{
  "address": "0x0141aC79eFD8e4305cE7785B4483C54d5E968995",
  "abi": [
    {
      "inputs": [
        {
          "internalType": "address",
          "name": "_auction",
          "type": "address"
        }
      ],
      "stateMutability": "nonpayable",
      "type": "constructor"
    },
    {
      "inputs": [
        {
          "internalType": "uint256",
          "name": "auctionId",
          "type": "uint256"
        },
        {
          "internalType": "address",
          "name": "nftContract",
          "type": "address"
        },
        {
          "internalType": "uint256",
          "name": "tokenId",
          "type": "uint256"
        }
      ],
      "name": "auctionIdMatchesToken",
      "outputs": [
        {
          "internalType": "bool",
          "name": "",
          "type": "bool"
        }
      ],
      "stateMutability": "view",
      "type": "function"
    },
    {
      "inputs": [
        {
          "internalType": "uint256",
          "name": "auctionId",
          "type": "uint256"
        },
        {
          "internalType": "uint256",
          "name": "bidAmount",
          "type": "uint256"
        }
      ],
      "name": "bid",
      "outputs": [],
      "stateMutability": "nonpayable",
      "type": "function"
    },
    {
      "inputs": [
        {
          "internalType": "uint256",
          "name": "auctionId",
          "type": "uint256"
        }
      ],
      "name": "finalize",
      "outputs": [],
      "stateMutability": "nonpayable",
      "type": "function"
    },
    {
      "inputs": [
        {
          "internalType": "uint256",
          "name": "auctionId",
          "type": "uint256"
        }
      ],
      "name": "getCurrentHighestBidder",
      "outputs": [
        {
          "internalType": "address",
          "name": "",
          "type": "address"
        }
      ],
      "stateMutability": "view",
      "type": "function"
    },
    {
      "inputs": [
        {
          "internalType": "uint256",
          "name": "auctionId",
          "type": "uint256"
        }
      ],
      "name": "getMinimumBid",
      "outputs": [
        {
          "internalType": "uint256",
          "name": "",
          "type": "uint256"
        }
      ],
      "stateMutability": "view",
      "type": "function"
    },
    {
      "inputs": [
        {
          "internalType": "uint256",
          "name": "auctionId",
          "type": "uint256"
        }
      ],
      "name": "isFinalized",
      "outputs": [
        {
          "internalType": "bool",
          "name": "",
          "type": "bool"
        }
      ],
      "stateMutability": "view",
      "type": "function"
    }
  ],
  "numDeployments": 1,
  "solcInputHash": "812d24ebc21a45fb2c582e2e4a91a8b6",
  "bytecode": "0x60a060405234801561001057600080fd5b5060405161067e38038061067e8339818101604052602081101561003357600080fd5b5051606081901b6001600160601b0319166080526001600160a01b03166105fe6100806000398061017652806101f95280610291528061032a52806103d6528061051e52506105fe6000f3fe608060405234801561001057600080fd5b50600436106100625760003560e01c806305261aea146100675780630600d4eb1461008657806333727c4d146100b5578063456b09c1146100e6578063598647f81461011f57806397e2d38014610142575b600080fd5b6100846004803603602081101561007d57600080fd5b5035610174565b005b6100a36004803603602081101561009c57600080fd5b50356101f5565b60408051918252519081900360200190f35b6100d2600480360360208110156100cb57600080fd5b503561028d565b604080519115158252519081900360200190f35b610103600480360360208110156100fc57600080fd5b5035610326565b604080516001600160a01b039092168252519081900360200190f35b6100846004803603604081101561013557600080fd5b508035906020013561038c565b6100d26004803603606081101561015857600080fd5b508035906001600160a01b03602082013516906040013561051a565b7f00000000000000000000000000000000000000000000000000000000000000006001600160a01b031663cf266ed0826040518263ffffffff1660e01b815260040180828152602001915050600060405180830381600087803b1580156101da57600080fd5b505af11580156101ee573d6000803e3d6000fd5b5050505050565b60007f00000000000000000000000000000000000000000000000000000000000000006001600160a01b0316630d607964836040518263ffffffff1660e01b81526004018082815260200191505060206040518083038186803b15801561025b57600080fd5b505afa15801561026f573d6000803e3d6000fd5b505050506040513d602081101561028557600080fd5b505192915050565b60007f00000000000000000000000000000000000000000000000000000000000000006001600160a01b031663a2a106b8836040518263ffffffff1660e01b81526004018082815260200191505060206040518083038186803b1580156102f357600080fd5b505afa158015610307573d6000803e3d6000fd5b505050506040513d602081101561031d57600080fd5b50511592915050565b60007f00000000000000000000000000000000000000000000000000000000000000006001600160a01b0316636eeb69db836040518263ffffffff1660e01b81526004018082815260200191505060206040518083038186803b15801561025b57600080fd5b60408051602480820185905282518083039091018152604490910182526020810180516001600160e01b031663054d7ed560e31b1781529151815160009384936001600160a01b037f000000000000000000000000000000000000000000000000000000000000000016938793919290918291908083835b602083106104235780518252601f199092019160209182019101610404565b6001836020036101000a03801982511681845116808217855250505050505090500191505060006040518083038185875af1925050503d8060008114610485576040519150601f19603f3d011682016040523d82523d6000602084013e61048a565b606091505b50915091508181906101ee5760405162461bcd60e51b81526004018080602001828103825283818151815260200191508051906020019080838360005b838110156104df5781810151838201526020016104c7565b50505050905090810190601f16801561050c5780820380516001836020036101000a031916815260200191505b509250505060405180910390fd5b60007f00000000000000000000000000000000000000000000000000000000000000006001600160a01b031663152b2c0a84846040518363ffffffff1660e01b815260040180836001600160a01b031681526020018281526020019250505060206040518083038186803b15801561059157600080fd5b505afa1580156105a5573d6000803e3d6000fd5b505050506040513d60208110156105bb57600080fd5b505184149050939250505056fea2646970667358221220180c4d052b171056f60fcbc84f197697819b37a3755322fd3d4c01fe3e103c0c64736f6c63430007060033",
  "devdoc": {
    "kind": "dev",
    "methods": {
      "auctionIdMatchesToken(uint256,address,uint256)": {
        "details": "Called in PartyBid.sol in `initialize` at line 174",
        "returns": {
          "_0": "TRUE if the auction is valid"
        }
      },
      "bid(uint256,uint256)": {
        "details": "Called in PartyBid.sol in `bid` at line 259"
      },
      "finalize(uint256)": {
        "details": "Called in PartyBid.sol in `finalize` at line 289"
      },
      "getCurrentHighestBidder(uint256)": {
        "details": "Called in PartyBid.sol in `bid` at line 241",
        "returns": {
          "_0": "highest bidder"
        }
      },
      "getMinimumBid(uint256)": {
        "details": "Called in PartyBid.sol in `bid` at line 251",
        "returns": {
          "_0": "minimum bid amount"
        }
      },
      "isFinalized(uint256)": {
        "details": "Called in PartyBid.sol in `bid` at line 247and in `finalize` at line 288",
        "returns": {
          "_0": "TRUE if the auction has been finalized"
        }
      }
    },
    "version": 1
  },
  "userdoc": {
    "kind": "user",
    "methods": {
      "auctionIdMatchesToken(uint256,address,uint256)": {
        "notice": "Given the auctionId, nftContract, and tokenId, check that: 1. the auction ID matches the token referred to by tokenId + nftContract 2. the auctionId refers to an *ACTIVE* auction (e.g. an auction that will accept bids) within this market contract 3. any additional validation to ensure that a PartyBid can bid on this auction (ex: if the market allows arbitrary bidding currencies, check that the auction currency is ETH) Note: This function probably should have been named \"isValidAuction\""
      },
      "bid(uint256,uint256)": {
        "notice": "Submit bid to Market contract"
      },
      "finalize(uint256)": {
        "notice": "Finalize the results of the auction on the Market contract It is assumed  that this operation is performed once for each auction, that after it is done the auction is over and the NFT has been transferred to the auction winner."
      },
      "getCurrentHighestBidder(uint256)": {
        "notice": "Query the current highest bidder for this auction It is assumed that there is always 1 winning highest bidder for an auction This is used to ensure that PartyBid cannot outbid itself if it is already winning"
      },
      "getMinimumBid(uint256)": {
        "notice": "Calculate the minimum next bid for this auction. PartyBid contracts always submit the minimum possible bid that will be accepted by the Market contract. usually, this is either the reserve price (if there are no bids) or a certain percentage increase above the current highest bid"
      },
      "isFinalized(uint256)": {
        "notice": "Determine whether the auction has been finalized Used to check if it is still possible to bid And to determine whether the PartyBid should finalize the auction"
      }
    },
    "version": 1
  },
  "storageLayout": {
    "storage": [],
    "types": null
  }
}