{
  "contractName": "RariMineV3",
  "abi": [
    {
      "anonymous": false,
      "inputs": [
        {
          "indexed": true,
          "internalType": "address",
          "name": "owner",
          "type": "address"
        },
        {
          "indexed": false,
          "internalType": "uint256",
          "name": "value",
          "type": "uint256"
        }
      ],
      "name": "Claim",
      "type": "event"
    },
    {
      "anonymous": false,
      "inputs": [
        {
          "indexed": true,
          "internalType": "address",
          "name": "previousOwner",
          "type": "address"
        },
        {
          "indexed": true,
          "internalType": "address",
          "name": "newOwner",
          "type": "address"
        }
      ],
      "name": "OwnershipTransferred",
      "type": "event"
    },
    {
      "anonymous": false,
      "inputs": [
        {
          "indexed": true,
          "internalType": "address",
          "name": "owner",
          "type": "address"
        },
        {
          "indexed": false,
          "internalType": "uint256",
          "name": "value",
          "type": "uint256"
        }
      ],
      "name": "Value",
      "type": "event"
    },
    {
      "inputs": [],
      "name": "VERSION",
      "outputs": [
        {
          "internalType": "uint8",
          "name": "",
          "type": "uint8"
        }
      ],
      "stateMutability": "view",
      "type": "function"
    },
    {
      "inputs": [
        {
          "internalType": "address",
          "name": "",
          "type": "address"
        }
      ],
      "name": "claimed",
      "outputs": [
        {
          "internalType": "uint256",
          "name": "",
          "type": "uint256"
        }
      ],
      "stateMutability": "view",
      "type": "function"
    },
    {
      "inputs": [],
      "name": "owner",
      "outputs": [
        {
          "internalType": "address",
          "name": "",
          "type": "address"
        }
      ],
      "stateMutability": "view",
      "type": "function"
    },
    {
      "inputs": [],
      "name": "renounceOwnership",
      "outputs": [],
      "stateMutability": "nonpayable",
      "type": "function"
    },
    {
      "inputs": [],
      "name": "staking",
      "outputs": [
        {
          "internalType": "contract IStaking",
          "name": "",
          "type": "address"
        }
      ],
      "stateMutability": "view",
      "type": "function"
    },
    {
      "inputs": [],
      "name": "token",
      "outputs": [
        {
          "internalType": "contract IERC20Upgradeable",
          "name": "",
          "type": "address"
        }
      ],
      "stateMutability": "view",
      "type": "function"
    },
    {
      "inputs": [],
      "name": "tokenOwner",
      "outputs": [
        {
          "internalType": "address",
          "name": "",
          "type": "address"
        }
      ],
      "stateMutability": "view",
      "type": "function"
    },
    {
      "inputs": [
        {
          "internalType": "address",
          "name": "newOwner",
          "type": "address"
        }
      ],
      "name": "transferOwnership",
      "outputs": [],
      "stateMutability": "nonpayable",
      "type": "function"
    },
    {
      "inputs": [
        {
          "internalType": "contract IERC20Upgradeable",
          "name": "_token",
          "type": "address"
        },
        {
          "internalType": "address",
          "name": "_tokenOwner",
          "type": "address"
        },
        {
          "internalType": "contract IStaking",
          "name": "_staking",
          "type": "address"
        }
      ],
      "name": "__RariMineV3_init",
      "outputs": [],
      "stateMutability": "nonpayable",
      "type": "function"
    },
    {
      "inputs": [
        {
          "components": [
            {
              "internalType": "address",
              "name": "recipient",
              "type": "address"
            },
            {
              "internalType": "uint256",
              "name": "value",
              "type": "uint256"
            }
          ],
          "internalType": "struct IRariMine.Balance",
          "name": "_balance",
          "type": "tuple"
        },
        {
          "internalType": "uint8",
          "name": "v",
          "type": "uint8"
        },
        {
          "internalType": "bytes32",
          "name": "r",
          "type": "bytes32"
        },
        {
          "internalType": "bytes32",
          "name": "s",
          "type": "bytes32"
        }
      ],
      "name": "claim",
      "outputs": [],
      "stateMutability": "nonpayable",
      "type": "function"
    },
    {
      "inputs": [
        {
          "components": [
            {
              "internalType": "address",
              "name": "recipient",
              "type": "address"
            },
            {
              "internalType": "uint256",
              "name": "value",
              "type": "uint256"
            }
          ],
          "internalType": "struct IRariMine.Balance[]",
          "name": "_balances",
          "type": "tuple[]"
        }
      ],
      "name": "doOverride",
      "outputs": [],
      "stateMutability": "nonpayable",
      "type": "function"
    }
  ],
  "bytecode": "0x608060405234801561001057600080fd5b50611928806100206000396000f3fe608060405234801561001057600080fd5b50600436106100a95760003560e01c8063a3e6761011610071578063a3e6761014610104578063c884ef831461010c578063eb47d1261461012c578063f2fde38b1461013f578063fc0c546a14610152578063ffa1ad741461015a576100a9565b80630be42fcc146100ae5780630ecf28e9146100c35780634cf088d9146100d6578063715018a6146100f45780638da5cb5b146100fc575b600080fd5b6100c16100bc366004611490565b61016f565b005b6100c16100d13660046115a8565b6102c2565b6100de610729565b6040516100eb9190611609565b60405180910390f35b6100c1610738565b6100de6107f6565b6100de610805565b61011f61011a366004611474565b610814565b6040516100eb919061182d565b6100c161013a36600461155e565b610826565b6100c161014d366004611474565b6108e5565b6100de6109fa565b610162610a09565b6040516100eb9190611836565b610177610a0e565b6001600160a01b03166101886107f6565b6001600160a01b0316146101e3576040805162461bcd60e51b815260206004820181905260248201527f4f776e61626c653a2063616c6c6572206973206e6f7420746865206f776e6572604482015290519081900360640190fd5b60005b81518110156102be578181815181106101fb57fe5b6020026020010151602001516068600084848151811061021757fe5b6020026020010151600001516001600160a01b03166001600160a01b031681526020019081526020016000208190555081818151811061025357fe5b6020026020010151600001516001600160a01b03167f4fccb55fc57298c6ed3fb8da8e64b2541fe5ef1a07553abb5123c87d2361ccba83838151811061029557fe5b6020026020010151602001516040516102ae919061182d565b60405180910390a26001016101e6565b5050565b6102ca6107f6565b6001600160a01b03166102eb8484846102e38930610a12565b929190610a59565b6001600160a01b03161461031a5760405162461bcd60e51b8152600401610311906116fb565b60405180910390fd5b83516001600160a01b03811661032e610a0e565b6001600160a01b0316141561070b576001600160a01b03811660009081526068602090815260408220549087015161036591610b4a565b9050600081116103875760405162461bcd60e51b81526004016103119061168b565b6020808701516001600160a01b038416600090815260689092526040909120546103b091610ba7565b5060006103cb6127106103c584610fa0610c08565b90610c61565b6065546066549192506001600160a01b03908116916323b872dd91166103ef610a0e565b846040518463ffffffff1660e01b815260040161040e9392919061164e565b602060405180830381600087803b15801561042857600080fd5b505af115801561043c573d6000803e3d6000fd5b505050506040513d601f19601f82011682018060405250810190610460919061153e565b61047c5760405162461bcd60e51b815260040161031190611769565b826001600160a01b03167f47cee97cb7acd717b3c0aa1435d004cd5b3c8c57d70dbceb4e4458bbd60e39d4826040516104b5919061182d565b60405180910390a2826001600160a01b03167f4fccb55fc57298c6ed3fb8da8e64b2541fe5ef1a07553abb5123c87d2361ccba88602001516040516104fa919061182d565b60405180910390a2600061050e8383610b4a565b9050600061051d82602a610cc8565b6065546066546040516323b872dd60e01b81529293506001600160a01b03918216926323b872dd926105579216903090879060040161164e565b602060405180830381600087803b15801561057157600080fd5b505af1158015610585573d6000803e3d6000fd5b505050506040513d601f19601f820116820180604052508101906105a9919061153e565b6105c55760405162461bcd60e51b8152600401610311906116b5565b60655460675460405163095ea7b360e01b81526001600160a01b039283169263095ea7b3926105fb929116908690600401611672565b602060405180830381600087803b15801561061557600080fd5b505af1158015610629573d6000803e3d6000fd5b505050506040513d601f19601f8201168201806040525081019061064d919061153e565b6106695760405162461bcd60e51b815260040161031190611732565b6067546001600160a01b031663f108fa93610682610a0e565b61068a610a0e565b8585602a6040518663ffffffff1660e01b81526004016106ae95949392919061161d565b602060405180830381600087803b1580156106c857600080fd5b505af11580156106dc573d6000803e3d6000fd5b505050506040513d601f19601f8201168201806040525081019061070091906115f1565b505050505050610723565b60405162461bcd60e51b8152600401610311906117b1565b50505050565b6067546001600160a01b031681565b610740610a0e565b6001600160a01b03166107516107f6565b6001600160a01b0316146107ac576040805162461bcd60e51b815260206004820181905260248201527f4f776e61626c653a2063616c6c6572206973206e6f7420746865206f776e6572604482015290519081900360640190fd5b6033546040516000916001600160a01b0316907f8be0079c531659141344cd1fd0a4f28419497f9722a3daafe3b4186f6b6457e0908390a3603380546001600160a01b0319169055565b6033546001600160a01b031690565b6066546001600160a01b031681565b60686020526000908152604090205481565b600054610100900460ff168061083f575061083f610ce3565b8061084d575060005460ff16155b6108885760405162461bcd60e51b815260040180806020018281038252602e8152602001806118a4602e913960400191505060405180910390fd5b600054610100900460ff161580156108b3576000805460ff1961ff0019909116610100171660011790555b6108be848484610cf4565b6108c6610dd5565b6108ce610ecf565b8015610723576000805461ff001916905550505050565b6108ed610a0e565b6001600160a01b03166108fe6107f6565b6001600160a01b031614610959576040805162461bcd60e51b815260206004820181905260248201527f4f776e61626c653a2063616c6c6572206973206e6f7420746865206f776e6572604482015290519081900360640190fd5b6001600160a01b03811661099e5760405162461bcd60e51b815260040180806020018281038252602681526020018061187e6026913960400191505060405180910390fd5b6033546040516001600160a01b038084169216907f8be0079c531659141344cd1fd0a4f28419497f9722a3daafe3b4186f6b6457e090600090a3603380546001600160a01b0319166001600160a01b0392909216919091179055565b6065546001600160a01b031681565b600181565b3390565b60606000469050610a4f8484836001604051602001610a3494939291906117f3565b60405160208183030381529060405280519060200120610f70565b9150505b92915050565b6000808590506000610ad16040518060400160405280601a81526020017f19457468657265756d205369676e6564204d6573736167653a0a000000000000815250610aa48451611086565b6040805160008082526020820181815282840182815260608401928352608084019094528893909161115e565b90506001818051906020012087878760405160008152602001604052604051808581526020018460ff1681526020018381526020018281526020019450505050506020604051602081039080840390855afa158015610b34573d6000803e3d6000fd5b5050604051601f19015198975050505050505050565b600082821115610ba1576040805162461bcd60e51b815260206004820152601e60248201527f536166654d6174683a207375627472616374696f6e206f766572666c6f770000604482015290519081900360640190fd5b50900390565b600082820183811015610c01576040805162461bcd60e51b815260206004820152601b60248201527f536166654d6174683a206164646974696f6e206f766572666c6f770000000000604482015290519081900360640190fd5b9392505050565b600082610c1757506000610a53565b82820282848281610c2457fe5b0414610c015760405162461bcd60e51b81526004018080602001828103825260218152602001806118d26021913960400191505060405180910390fd5b6000808211610cb7576040805162461bcd60e51b815260206004820152601a60248201527f536166654d6174683a206469766973696f6e206279207a65726f000000000000604482015290519081900360640190fd5b818381610cc057fe5b049392505050565b6000610c016001610cdd846103c58784610b4a565b90610ba7565b6000610cee3061141c565b15905090565b600054610100900460ff1680610d0d5750610d0d610ce3565b80610d1b575060005460ff16155b610d565760405162461bcd60e51b815260040180806020018281038252602e8152602001806118a4602e913960400191505060405180910390fd5b600054610100900460ff16158015610d81576000805460ff1961ff0019909116610100171660011790555b606580546001600160a01b038087166001600160a01b0319928316179092556066805486841690831617905560678054928516929091169190911790558015610723576000805461ff001916905550505050565b600054610100900460ff1680610dee5750610dee610ce3565b80610dfc575060005460ff16155b610e375760405162461bcd60e51b815260040180806020018281038252602e8152602001806118a4602e913960400191505060405180910390fd5b600054610100900460ff16158015610e62576000805460ff1961ff0019909116610100171660011790555b6000610e6c610a0e565b603380546001600160a01b0319166001600160a01b038316908117909155604051919250906000907f8be0079c531659141344cd1fd0a4f28419497f9722a3daafe3b4186f6b6457e0908290a3508015610ecc576000805461ff00191690555b50565b600054610100900460ff1680610ee85750610ee8610ce3565b80610ef6575060005460ff16155b610f315760405162461bcd60e51b815260040180806020018281038252602e8152602001806118a4602e913960400191505060405180910390fd5b600054610100900460ff16158015610f5c576000805460ff1961ff0019909116610100171660011790555b8015610ecc576000805461ff001916905550565b604080518082018252601081526f181899199a1a9b1b9c1cb0b131b232b360811b6020820152815182815260608181018452926000919060208201818036833701905050905060005b602081101561107c57826004868360208110610fd157fe5b1a60f81b6001600160f81b031916901c60f81c60ff1681518110610ff157fe5b602001015160f81c60f81b82826002028151811061100b57fe5b60200101906001600160f81b031916908160001a9053508285826020811061102f57fe5b825191901a600f1690811061104057fe5b602001015160f81c60f81b82826002026001018151811061105d57fe5b60200101906001600160f81b031916908160001a905350600101610fb9565b509150505b919050565b6060816110ab57506040805180820190915260018152600360fc1b6020820152611081565b8160005b81156110c357600101600a820491506110af565b60008167ffffffffffffffff811180156110dc57600080fd5b506040519080825280601f01601f191660200182016040528015611107576020820181803683370190505b50905060001982015b851561115557600a860660300160f81b8282806001900393508151811061113357fe5b60200101906001600160f81b031916908160001a905350600a86049550611110565b50949350505050565b6060600082518451865188518a518c518e5101010101010167ffffffffffffffff8111801561118c57600080fd5b506040519080825280601f01601f1916602001820160405280156111b7576020820181803683370190505b5090506000805b8a5181101561120f578a81815181106111d357fe5b602001015160f81c60f81b8383806001019450815181106111f057fe5b60200101906001600160f81b031916908160001a9053506001016111be565b5060005b89518110156112645789818151811061122857fe5b602001015160f81c60f81b83838060010194508151811061124557fe5b60200101906001600160f81b031916908160001a905350600101611213565b5060005b88518110156112b95788818151811061127d57fe5b602001015160f81c60f81b83838060010194508151811061129a57fe5b60200101906001600160f81b031916908160001a905350600101611268565b5060005b875181101561130e578781815181106112d257fe5b602001015160f81c60f81b8383806001019450815181106112ef57fe5b60200101906001600160f81b031916908160001a9053506001016112bd565b5060005b86518110156113635786818151811061132757fe5b602001015160f81c60f81b83838060010194508151811061134457fe5b60200101906001600160f81b031916908160001a905350600101611312565b5060005b85518110156113b85785818151811061137c57fe5b602001015160f81c60f81b83838060010194508151811061139957fe5b60200101906001600160f81b031916908160001a905350600101611367565b5060005b845181101561140d578481815181106113d157fe5b602001015160f81c60f81b8383806001019450815181106113ee57fe5b60200101906001600160f81b031916908160001a9053506001016113bc565b50909998505050505050505050565b3b151590565b600060408284031215611433578081fd5b6040516040810181811067ffffffffffffffff8211171561145057fe5b604052905080823561146181611868565b8152602092830135920191909152919050565b600060208284031215611485578081fd5b8135610c0181611868565b600060208083850312156114a2578182fd5b823567ffffffffffffffff808211156114b9578384fd5b818501915085601f8301126114cc578384fd5b8135818111156114d857fe5b6114e58485830201611844565b81815284810192508385016040808402860187018a1015611504578788fd5b8795505b838610156115305761151a8a83611422565b8552600195909501949386019390810190611508565b509098975050505050505050565b60006020828403121561154f578081fd5b81518015158114610c01578182fd5b600080600060608486031215611572578182fd5b833561157d81611868565b9250602084013561158d81611868565b9150604084013561159d81611868565b809150509250925092565b60008060008060a085870312156115bd578081fd5b6115c78686611422565b9350604085013560ff811681146115dc578182fd5b93969395505050506060820135916080013590565b600060208284031215611602578081fd5b5051919050565b6001600160a01b0391909116815260200190565b6001600160a01b03958616815293909416602084015260408301919091526060820152608081019190915260a00190565b6001600160a01b039384168152919092166020820152604081019190915260600190565b6001600160a01b03929092168252602082015260400190565b60208082526010908201526f6e6f7468696e6720746f20636c61696d60801b604082015260600190565b60208082526026908201527f7472616e7366657220746f20526172694d696e65206973206e6f742073756363604082015265195cdcd99d5b60d21b606082015260800190565b6020808252601a908201527f6f776e65722073686f756c64207369676e2062616c616e636573000000000000604082015260600190565b60208082526019908201527f617070726f7665206973206e6f74207375636365737366756c00000000000000604082015260600190565b60208082526028908201527f7472616e7366657220746f206d73672073656e646572206973206e6f7420737560408201526718d8d95cdcd99d5b60c21b606082015260800190565b60208082526022908201527f5f6d736753656e6465722829206973206e6f74207468652072656365697069656040820152611b9d60f21b606082015260800190565b84516001600160a01b03908116825260209586015195820195909552929093166040830152606082015260ff909116608082015260a00190565b90815260200190565b60ff91909116815260200190565b60405181810167ffffffffffffffff8111828210171561186057fe5b604052919050565b6001600160a01b0381168114610ecc57600080fdfe4f776e61626c653a206e6577206f776e657220697320746865207a65726f2061646472657373496e697469616c697a61626c653a20636f6e747261637420697320616c726561647920696e697469616c697a6564536166654d6174683a206d756c7469706c69636174696f6e206f766572666c6f77a264697066735822122051f12116a08302e9a41dfb7ef77a011c28cee28f2a04e2583beb3225e7ba663964736f6c63430007060033",
  "immutableReferences": {},
  "source": "// SPDX-License-Identifier: MIT\n\n/**\n *Submitted for verification at Etherscan.io on 2020-07-20\n*/\n\npragma solidity 0.7.6;\npragma abicoder v2;\n\nimport \"@openzeppelin/contracts-upgradeable/access/OwnableUpgradeable.sol\";\nimport \"@openzeppelin/contracts-upgradeable/utils/AddressUpgradeable.sol\";\nimport \"@openzeppelin/contracts-upgradeable/token/ERC20/IERC20Upgradeable.sol\";\n\nimport \"./libs/LibString.sol\";\nimport \"./libs/LibAddress.sol\";\nimport \"./libs/LibUint.sol\";\nimport \"./libs/LibStakingMath.sol\";\nimport \"./IRariMine.sol\";\nimport \"./IStaking.sol\";\n\ncontract RariMineV3 is OwnableUpgradeable, IRariMine {\n    using SafeMathUpgradeable for uint;\n    using LibString for string;\n    using LibUint for uint;\n    using LibAddress for address;\n\n    IERC20Upgradeable public token;\n    address           public tokenOwner;\n    IStaking          public staking;\n\n    uint256 constant CLAIM_FORMULA_CLAIM   = 4000;  // 40% to withdraw\n    uint256 constant CLAIM_FORMULA_DIVIDER = 10000; //  \n    uint256 constant CLAIM_CLIFF_WEEKS     = 42;        // the meaning of life, the universe, and everything\n    uint256 constant CLAIM_SLOPE_WEEKS     = 42;        // the meaning of life, the universe, and everything\n    uint8   public constant VERSION        = 1;\n\n    mapping(address => uint) public claimed;\n\n    function __RariMineV3_init(IERC20Upgradeable _token, address _tokenOwner, IStaking _staking) external initializer {\n        __RariMineV3_init_unchained(_token, _tokenOwner, _staking);\n        __Ownable_init_unchained();\n        __Context_init_unchained();\n    }\n\n    function __RariMineV3_init_unchained(IERC20Upgradeable _token, address _tokenOwner, IStaking _staking) internal initializer {\n        token = _token;\n        tokenOwner = _tokenOwner;\n        staking = _staking;\n    }\n\n    function claim(Balance memory _balance, uint8 v, bytes32 r, bytes32 s) public {\n        require(prepareMessage(_balance, address(this)).recover(v, r, s) == owner(), \"owner should sign balances\");\n\n        address recipient = _balance.recipient;\n        if (_msgSender() == recipient) {\n            uint toClaim = _balance.value.sub(claimed[recipient]);\n            require(toClaim > 0, \"nothing to claim\");\n            claimed[recipient].add(_balance.value);\n\n            // claim rari tokens\n            uint claimAmount = toClaim.mul(CLAIM_FORMULA_CLAIM).div(CLAIM_FORMULA_DIVIDER);\n            require(token.transferFrom(tokenOwner, _msgSender(), claimAmount), \"transfer to msg sender is not successful\");\n            emit Claim(recipient, claimAmount);\n            emit Value(recipient, _balance.value);\n\n            // stake some tokens\n            uint stakeAmount = toClaim.sub(claimAmount);\n            uint slope = LibStakingMath.divUp(stakeAmount, CLAIM_SLOPE_WEEKS);\n            require(token.transferFrom(tokenOwner, address(this), stakeAmount), \"transfer to RariMine is not successful\");\n            require(token.approve(address(staking), stakeAmount), \"approve is not successful\");\n            staking.stake(_msgSender(), _msgSender(), stakeAmount, slope, CLAIM_CLIFF_WEEKS);\n            return;\n        }\n        \n        revert(\"_msgSender() is not the receipient\");\n    }\n\n    function doOverride(Balance[] memory _balances) public onlyOwner {\n        for (uint i = 0; i < _balances.length; i++) {\n            claimed[_balances[i].recipient] = _balances[i].value;\n            emit Value(_balances[i].recipient, _balances[i].value);\n        }\n    }\n\n    function prepareMessage(Balance memory _balance, address _address) internal pure returns (string memory) {\n        uint256 id;\n        assembly {\n            id := chainid()\n        }\n        return toString(keccak256(abi.encode(_balance, _address, id, VERSION)));\n    }\n\n    function toString(bytes32 value) internal pure returns (string memory) {\n        bytes memory alphabet = \"0123456789abcdef\";\n        bytes memory str = new bytes(64);\n        for (uint256 i = 0; i < 32; i++) {\n            str[i*2] = alphabet[uint8(value[i] >> 4)];\n            str[1+i*2] = alphabet[uint8(value[i] & 0x0f)];\n        }\n        return string(str);\n    }\n\n    uint256[48] private __gap;\n}",
  "sourcePath": "/home/vfadeev/Documents/projects/rarible/protocol-contracts-npm-fix/protocol-contracts/staking/contracts/RariMineV3.sol",
  "compiler": {
    "name": "solc",
    "version": "0.7.6+commit.7338295f.Emscripten.clang"
  },
  "schemaVersion": "3.4.3",
  "updatedAt": "2022-10-07T11:03:02.189Z",
  "devdoc": {
    "kind": "dev",
    "methods": {
      "owner()": {
        "details": "Returns the address of the current owner."
      },
      "renounceOwnership()": {
        "details": "Leaves the contract without owner. It will not be possible to call `onlyOwner` functions anymore. Can only be called by the current owner. NOTE: Renouncing ownership will leave the contract without an owner, thereby removing any functionality that is only available to the owner."
      },
      "transferOwnership(address)": {
        "details": "Transfers ownership of the contract to a new account (`newOwner`). Can only be called by the current owner."
      }
    },
    "version": 1
  },
  "userdoc": {
    "kind": "user",
    "methods": {},
    "version": 1
  }
}