{
  "contractName": "RariMine",
  "abi": [
    {
      "anonymous": false,
      "inputs": [
        {
          "indexed": true,
          "internalType": "address",
          "name": "owner",
          "type": "address"
        },
        {
          "indexed": false,
          "internalType": "uint256",
          "name": "balance",
          "type": "uint256"
        }
      ],
      "name": "BalanceChange",
      "type": "event"
    },
    {
      "anonymous": false,
      "inputs": [
        {
          "indexed": true,
          "internalType": "uint256",
          "name": "newCliffPeriod",
          "type": "uint256"
        }
      ],
      "name": "CliffPeriodChange",
      "type": "event"
    },
    {
      "anonymous": false,
      "inputs": [
        {
          "indexed": true,
          "internalType": "address",
          "name": "previousOwner",
          "type": "address"
        },
        {
          "indexed": true,
          "internalType": "address",
          "name": "newOwner",
          "type": "address"
        }
      ],
      "name": "OwnershipTransferred",
      "type": "event"
    },
    {
      "anonymous": false,
      "inputs": [
        {
          "indexed": true,
          "internalType": "uint256",
          "name": "newSlopePeriod",
          "type": "uint256"
        }
      ],
      "name": "SlopePeriodChange",
      "type": "event"
    },
    {
      "inputs": [
        {
          "internalType": "address",
          "name": "",
          "type": "address"
        }
      ],
      "name": "balances",
      "outputs": [
        {
          "internalType": "uint256",
          "name": "",
          "type": "uint256"
        }
      ],
      "stateMutability": "view",
      "type": "function"
    },
    {
      "inputs": [],
      "name": "cliffPeriod",
      "outputs": [
        {
          "internalType": "uint256",
          "name": "",
          "type": "uint256"
        }
      ],
      "stateMutability": "view",
      "type": "function"
    },
    {
      "inputs": [],
      "name": "owner",
      "outputs": [
        {
          "internalType": "address",
          "name": "",
          "type": "address"
        }
      ],
      "stateMutability": "view",
      "type": "function"
    },
    {
      "inputs": [],
      "name": "renounceOwnership",
      "outputs": [],
      "stateMutability": "nonpayable",
      "type": "function"
    },
    {
      "inputs": [],
      "name": "slopePeriod",
      "outputs": [
        {
          "internalType": "uint256",
          "name": "",
          "type": "uint256"
        }
      ],
      "stateMutability": "view",
      "type": "function"
    },
    {
      "inputs": [],
      "name": "staking",
      "outputs": [
        {
          "internalType": "contract IStaking",
          "name": "",
          "type": "address"
        }
      ],
      "stateMutability": "view",
      "type": "function"
    },
    {
      "inputs": [],
      "name": "token",
      "outputs": [
        {
          "internalType": "contract ERC20",
          "name": "",
          "type": "address"
        }
      ],
      "stateMutability": "view",
      "type": "function"
    },
    {
      "inputs": [],
      "name": "tokenOwner",
      "outputs": [
        {
          "internalType": "address",
          "name": "",
          "type": "address"
        }
      ],
      "stateMutability": "view",
      "type": "function"
    },
    {
      "inputs": [
        {
          "internalType": "address",
          "name": "newOwner",
          "type": "address"
        }
      ],
      "name": "transferOwnership",
      "outputs": [],
      "stateMutability": "nonpayable",
      "type": "function"
    },
    {
      "inputs": [
        {
          "internalType": "contract ERC20",
          "name": "_token",
          "type": "address"
        },
        {
          "internalType": "address",
          "name": "_tokenOwner",
          "type": "address"
        },
        {
          "internalType": "contract IStaking",
          "name": "_staking",
          "type": "address"
        }
      ],
      "name": "__RariMine_init",
      "outputs": [],
      "stateMutability": "nonpayable",
      "type": "function"
    },
    {
      "inputs": [],
      "name": "claim",
      "outputs": [],
      "stateMutability": "nonpayable",
      "type": "function"
    },
    {
      "inputs": [
        {
          "components": [
            {
              "internalType": "address",
              "name": "recipient",
              "type": "address"
            },
            {
              "internalType": "uint256",
              "name": "value",
              "type": "uint256"
            }
          ],
          "internalType": "struct RariMine.Balance[]",
          "name": "_balances",
          "type": "tuple[]"
        }
      ],
      "name": "plus",
      "outputs": [],
      "stateMutability": "nonpayable",
      "type": "function"
    },
    {
      "inputs": [
        {
          "components": [
            {
              "internalType": "address",
              "name": "recipient",
              "type": "address"
            },
            {
              "internalType": "uint256",
              "name": "value",
              "type": "uint256"
            }
          ],
          "internalType": "struct RariMine.Balance[]",
          "name": "_balances",
          "type": "tuple[]"
        }
      ],
      "name": "minus",
      "outputs": [],
      "stateMutability": "nonpayable",
      "type": "function"
    },
    {
      "inputs": [
        {
          "internalType": "uint256",
          "name": "_slopePeriod",
          "type": "uint256"
        }
      ],
      "name": "setSlopePeriod",
      "outputs": [],
      "stateMutability": "nonpayable",
      "type": "function"
    },
    {
      "inputs": [
        {
          "internalType": "uint256",
          "name": "_cliffPeriod",
          "type": "uint256"
        }
      ],
      "name": "setCliffPeriod",
      "outputs": [],
      "stateMutability": "nonpayable",
      "type": "function"
    }
  ],
  "bytecode": "0x608060405234801561001057600080fd5b506114df806100206000396000f3fe608060405234801561001057600080fd5b50600436106100f55760003560e01c8063733c02e511610097578063a3e6761011610066578063a3e67610146101ae578063bef9cdfd146101b6578063f2fde38b146101c9578063fc0c546a146101dc576100f5565b8063733c02e514610178578063757dc92d1461018b57806381aa06d4146101935780638da5cb5b146101a6576100f5565b80634e71d92d116100d35780634e71d92d1461014057806352f779161461014a57806367f8bc751461015d578063715018a614610170576100f5565b806327e235e3146100fa5780632f661946146101235780634cf088d91461012b575b600080fd5b61010d61010836600461108f565b6101e4565b60405161011a91906112a3565b60405180910390f35b61010d6101f6565b6101336101fc565b60405161011a9190611221565b61014861020b565b005b6101486101583660046111f1565b610623565b61014861016b3660046111a7565b6106b8565b6101486107aa565b6101486101863660046110ab565b610856565b61010d6109eb565b6101486101a13660046111f1565b6109f1565b610133610a86565b610133610a95565b6101486101c43660046110ab565b610aa4565b6101486101d736600461108f565b610c81565b610133610d84565b60686020526000908152604090205481565b606a5481565b6067546001600160a01b031681565b600060686000610219610d93565b6001600160a01b03166001600160a01b03168152602001908152602001600020549050600081116102655760405162461bcd60e51b815260040161025c906113ad565b60405180910390fd5b600060686000610273610d93565b6001600160a01b03168152602081019190915260400160002055606954819061038657606a54610381576065546066546040516323b872dd60e01b81526001600160a01b03928316926323b872dd926102d59291169033908790600401611266565b602060405180830381600087803b1580156102ef57600080fd5b505af1158015610303573d6000803e3d6000fd5b505050506040513d601f19601f820116820180604052508101906103279190611187565b6103435760405162461bcd60e51b815260040161025c90611376565b61034b610d93565b6001600160a01b031660008051602061148a833981519152600060405161037291906112a3565b60405180910390a25050610621565b610395565b61039282606954610d97565b90505b6065546066546040516323b872dd60e01b81526001600160a01b03928316926323b872dd926103cd9291169030908790600401611266565b602060405180830381600087803b1580156103e757600080fd5b505af11580156103fb573d6000803e3d6000fd5b505050506040513d601f19601f8201168201806040525081019061041f9190611187565b61043b5760405162461bcd60e51b815260040161025c906112da565b60655460675460405163095ea7b360e01b81526001600160a01b039283169263095ea7b39261047192911690869060040161128a565b602060405180830381600087803b15801561048b57600080fd5b505af115801561049f573d6000803e3d6000fd5b505050506040513d601f19601f820116820180604052508101906104c39190611187565b506067546001600160a01b031663f108fa936104dd610d93565b6104e5610d93565b8585606a546040518663ffffffff1660e01b815260040161050a959493929190611235565b602060405180830381600087803b15801561052457600080fd5b505af1158015610538573d6000803e3d6000fd5b505050506040513d601f19601f8201168201806040525081019061055c9190611209565b5060655460675460405163095ea7b360e01b81526001600160a01b039283169263095ea7b3926105949291169060009060040161128a565b602060405180830381600087803b1580156105ae57600080fd5b505af11580156105c2573d6000803e3d6000fd5b505050506040513d601f19601f820116820180604052508101906105e69190611187565b506105ef610d93565b6001600160a01b031660008051602061148a833981519152600060405161061691906112a3565b60405180910390a250505b565b61062b610d93565b6001600160a01b031661063c610a86565b6001600160a01b031614610685576040805162461bcd60e51b8152602060048201819052602482015260008051602061146a833981519152604482015290519081900360640190fd5b606a81905560405181907fe722c1216bc97dd69581289c8f0479e0efcaaf2c3e44fad0b9809b9ae0e1e96490600090a250565b600054610100900460ff16806106d157506106d1610dbf565b806106df575060005460ff16155b61071a5760405162461bcd60e51b815260040180806020018281038252602e81526020018061143c602e913960400191505060405180910390fd5b600054610100900460ff16158015610745576000805460ff1961ff0019909116610100171660011790555b606580546001600160a01b038087166001600160a01b03199283161790925560668054868416908316179055606780549285169290911691909117905561078a610dd0565b610792610eca565b80156107a4576000805461ff00191690555b50505050565b6107b2610d93565b6001600160a01b03166107c3610a86565b6001600160a01b03161461080c576040805162461bcd60e51b8152602060048201819052602482015260008051602061146a833981519152604482015290519081900360640190fd5b6033546040516000916001600160a01b0316907f8be0079c531659141344cd1fd0a4f28419497f9722a3daafe3b4186f6b6457e0908390a3603380546001600160a01b0319169055565b61085e610d93565b6001600160a01b031661086f610a86565b6001600160a01b0316146108b8576040805162461bcd60e51b8152602060048201819052602482015260008051602061146a833981519152604482015290519081900360640190fd5b60005b81518110156109e75760008282815181106108d257fe5b602002602001015160000151905060008383815181106108ee57fe5b602002602001015160200151905060006001600160a01b0316826001600160a01b0316141561092f5760405162461bcd60e51b815260040161025c90611311565b8061094c5760405162461bcd60e51b815260040161025c906112ac565b61099b84848151811061095b57fe5b60200260200101516020015160686000856001600160a01b03166001600160a01b0316815260200190815260200160002054610f6b90919063ffffffff16565b6001600160a01b0383166000818152606860205260409081902083905551909160008051602061148a833981519152916109d591906112a3565b60405180910390a250506001016108bb565b5050565b60695481565b6109f9610d93565b6001600160a01b0316610a0a610a86565b6001600160a01b031614610a53576040805162461bcd60e51b8152602060048201819052602482015260008051602061146a833981519152604482015290519081900360640190fd5b606981905560405181907f7ba560b7e9a56872df75138c549ab17ba2643ddfa1ae0d16cefdcdccb172fe9790600090a250565b6033546001600160a01b031690565b6066546001600160a01b031681565b610aac610d93565b6001600160a01b0316610abd610a86565b6001600160a01b031614610b06576040805162461bcd60e51b8152602060048201819052602482015260008051602061146a833981519152604482015290519081900360640190fd5b60005b81518110156109e7576000828281518110610b2057fe5b60200260200101516000015190506000838381518110610b3c57fe5b602002602001015160200151905060006001600160a01b0316826001600160a01b03161415610b7d5760405162461bcd60e51b815260040161025c90611311565b80610b9a5760405162461bcd60e51b815260040161025c90611348565b838381518110610ba657fe5b60200260200101516020015160686000846001600160a01b03166001600160a01b03168152602001908152602001600020541115610c1f57838381518110610bea57fe5b6020908102919091018101518101516001600160a01b0384166000908152606890925260409091208054919091039055610c39565b6001600160a01b0382166000908152606860205260408120555b6001600160a01b0382166000818152606860205260409081902054905160008051602061148a83398151915291610c6f916112a3565b60405180910390a25050600101610b09565b610c89610d93565b6001600160a01b0316610c9a610a86565b6001600160a01b031614610ce3576040805162461bcd60e51b8152602060048201819052602482015260008051602061146a833981519152604482015290519081900360640190fd5b6001600160a01b038116610d285760405162461bcd60e51b81526004018080602001828103825260268152602001806114166026913960400191505060405180910390fd5b6033546040516001600160a01b038084169216907f8be0079c531659141344cd1fd0a4f28419497f9722a3daafe3b4186f6b6457e090600090a3603380546001600160a01b0319166001600160a01b0392909216919091179055565b6065546001600160a01b031681565b3390565b6000610db86001610db284610dac8784610fc5565b90611022565b90610f6b565b9392505050565b6000610dca30611089565b15905090565b600054610100900460ff1680610de95750610de9610dbf565b80610df7575060005460ff16155b610e325760405162461bcd60e51b815260040180806020018281038252602e81526020018061143c602e913960400191505060405180910390fd5b600054610100900460ff16158015610e5d576000805460ff1961ff0019909116610100171660011790555b6000610e67610d93565b603380546001600160a01b0319166001600160a01b038316908117909155604051919250906000907f8be0079c531659141344cd1fd0a4f28419497f9722a3daafe3b4186f6b6457e0908290a3508015610ec7576000805461ff00191690555b50565b600054610100900460ff1680610ee35750610ee3610dbf565b80610ef1575060005460ff16155b610f2c5760405162461bcd60e51b815260040180806020018281038252602e81526020018061143c602e913960400191505060405180910390fd5b600054610100900460ff16158015610f57576000805460ff1961ff0019909116610100171660011790555b8015610ec7576000805461ff001916905550565b600082820183811015610db8576040805162461bcd60e51b815260206004820152601b60248201527f536166654d6174683a206164646974696f6e206f766572666c6f770000000000604482015290519081900360640190fd5b60008282111561101c576040805162461bcd60e51b815260206004820152601e60248201527f536166654d6174683a207375627472616374696f6e206f766572666c6f770000604482015290519081900360640190fd5b50900390565b6000808211611078576040805162461bcd60e51b815260206004820152601a60248201527f536166654d6174683a206469766973696f6e206279207a65726f000000000000604482015290519081900360640190fd5b81838161108157fe5b049392505050565b3b151590565b6000602082840312156110a0578081fd5b8135610db881611400565b600060208083850312156110bd578182fd5b823567ffffffffffffffff808211156110d4578384fd5b818501915085601f8301126110e7578384fd5b8135818111156110f357fe5b61110084858302016113dc565b818152848101908486016040808502870188018b101561111e578889fd5b8896505b848710156111785780828c031215611138578889fd5b8051818101818110888211171561114b57fe5b8252823561115881611400565b815282890135898201528452600196909601959287019290810190611122565b50909998505050505050505050565b600060208284031215611198578081fd5b81518015158114610db8578182fd5b6000806000606084860312156111bb578182fd5b83356111c681611400565b925060208401356111d681611400565b915060408401356111e681611400565b809150509250925092565b600060208284031215611202578081fd5b5035919050565b60006020828403121561121a578081fd5b5051919050565b6001600160a01b0391909116815260200190565b6001600160a01b03958616815293909416602084015260408301919091526060820152608081019190915260a00190565b6001600160a01b039384168152919092166020820152604081019190915260600190565b6001600160a01b03929092168252602082015260400190565b90815260200190565b602080825260149082015273125b98dbdc9c9958dd0818591908185b5bdd5b9d60621b604082015260600190565b6020808252601d908201527f436f6e7472616374207472616e7366657220746f6b656e206572726f72000000604082015260600190565b6020808252601b908201527f496e636f727265637420726563697069656e7420616464726573730000000000604082015260600190565b602080825260149082015273125b98dbdc9c9958dd081cdd5888185b5bdd5b9d60621b604082015260600190565b6020808252601e908201527f526563697069656e74207472616e7366657220746f6b656e206572726f720000604082015260600190565b6020808252601590820152740416d6f756e7420666f72207374616b65203d3d203605c1b604082015260600190565b60405181810167ffffffffffffffff811182821017156113f857fe5b604052919050565b6001600160a01b0381168114610ec757600080fdfe4f776e61626c653a206e6577206f776e657220697320746865207a65726f2061646472657373496e697469616c697a61626c653a20636f6e747261637420697320616c726561647920696e697469616c697a65644f776e61626c653a2063616c6c6572206973206e6f7420746865206f776e657207b05dda14be236904a87f2818f6f1979eee34ca6f67fc5d014b048e9ccc6c6ba264697066735822122063d07cb6a6c387a4e1efb150ee8beb251466c37aadbce7f5bf82df430a93c80864736f6c63430007060033",
  "immutableReferences": {},
  "source": "// SPDX-License-Identifier: MIT\npragma solidity 0.7.6;\npragma abicoder v2;\n\n//import \"@openzeppelin/contracts/access/Ownable.sol\";\nimport \"@openzeppelin/contracts-upgradeable/access/OwnableUpgradeable.sol\";\nimport \"@openzeppelin/contracts/token/ERC20/ERC20.sol\";\nimport \"@openzeppelin/contracts-upgradeable/math/SafeMathUpgradeable.sol\";\nimport \"./IStaking.sol\";\nimport \"./LibStakingMath.sol\";\n\n/**\n * @dev RariMine, a contract that allows to increase (function plus())\n *      or decrease (function minus()) the balance of ERC20 users tokens.\n *      Also user can initiate stake or withdraw his own amount of ERC20 tokens.\n *      In function claim() Withdraw case works only for slopePeriod == cliffPeriod == 0,\n *      else stake`ll be initiate with amount equal ERC20 tokens user balance.\n */\ncontract RariMine is OwnableUpgradeable {\n    using SafeMathUpgradeable for uint256;\n\n    event BalanceChange(address indexed owner, uint256 balance);\n    event SlopePeriodChange(uint indexed newSlopePeriod);\n    event CliffPeriodChange(uint indexed newCliffPeriod);\n\n    struct Balance {\n        address recipient;\n        uint256 value;\n    }\n\n    ERC20 public token;\n    address public tokenOwner;\n    IStaking public staking;\n    mapping(address => uint256) public balances;\n    uint public slopePeriod;\n    uint public cliffPeriod;\n\n    /**\n     * @dev __RariMine_init, initialise necessary contracts needed for work\n     * @param _token, ERC20 token address contract\n     * @param _tokenOwner, address token owner\n     * @param _staking, staking address contract\n     */\n    function __RariMine_init(ERC20 _token, address _tokenOwner, IStaking _staking) external initializer {\n        token = _token;\n        tokenOwner = _tokenOwner;\n        staking = _staking;\n        __Ownable_init_unchained();\n        __Context_init_unchained();\n    }\n\n    /**\n     * @dev function, allow stake amount ERC20 tokens or\n     *      withdraw ERC20 tokens to user if slopePeriod == cliffPeriod == 0\n     */\n    function claim() external {\n        uint256 stakeAmount = balances[_msgSender()];\n        require(stakeAmount > 0, \"Amount for stake == 0\");\n        balances[_msgSender()] = 0;\n        uint slope = stakeAmount;\n        if (slopePeriod == 0) {\n            if (cliffPeriod == 0) {\n                require(\n                    token.transferFrom(tokenOwner, msg.sender, stakeAmount),\n                    \"Recipient transfer token error\"\n                );\n                emit BalanceChange(_msgSender(), 0);\n                return;\n            }\n        } else {\n            slope = LibStakingMath.divUp(stakeAmount, slopePeriod);\n        }\n\n        require(\n            token.transferFrom(tokenOwner, address(this), stakeAmount),\n            \"Contract transfer token error\"\n        );\n        token.approve(address(staking), stakeAmount);\n        staking.stake(_msgSender(), _msgSender(), stakeAmount, slope, cliffPeriod);\n        token.approve(address(staking), 0);\n        emit BalanceChange(_msgSender(), 0);\n    }\n\n    /**\n     * @dev function, add users balances in cycle by contract owner\n     * @param _balances, array balances\n     */\n    function plus(Balance[] memory _balances) external onlyOwner {\n        for (uint256 i = 0; i < _balances.length; i++) {\n            address recipient = _balances[i].recipient;\n            uint256 value = _balances[i].value;\n            require(recipient != address(0x0), \"Incorrect recipient address\");\n            require(value != 0, \"Incorrect add amount\");\n            balances[recipient] = balances[recipient].add(_balances[i].value);\n            emit BalanceChange(recipient, balances[recipient]);\n        }\n    }\n\n    /**\n     * @dev function, sub users balances in cycle by contract owner\n     * @param _balances, array balances\n     */\n    function minus(Balance[] memory _balances) external onlyOwner {\n        for (uint256 i = 0; i < _balances.length; i++) {\n            address recipient = _balances[i].recipient;\n            uint256 value = _balances[i].value;\n            require(recipient != address(0x0), \"Incorrect recipient address\");\n            require(value != 0, \"Incorrect sub amount\");\n            if (balances[recipient] > _balances[i].value) {\n                balances[recipient] = balances[recipient] - _balances[i].value;\n            } else {\n                balances[recipient] = 0;\n            }\n            emit BalanceChange(recipient, balances[recipient]);\n        }\n    }\n\n    /**\n     * @dev function, set new slopePeriod by contract owner\n     * @param _slopePeriod, new value (number of weeks) for slopePeriod\n     */\n    function setSlopePeriod(uint _slopePeriod) external onlyOwner {\n        slopePeriod = _slopePeriod;\n        emit SlopePeriodChange(_slopePeriod);\n    }\n\n    /**\n     * @dev function, set new cliffPeriod by contract owner\n     * @param _cliffPeriod, new value (number of weeks) for cliffPeriod\n     */\n    function setCliffPeriod(uint _cliffPeriod) external onlyOwner {\n        cliffPeriod = _cliffPeriod;\n        emit CliffPeriodChange(_cliffPeriod);\n    }\n\n    uint256[48] private __gap;\n}",
  "sourcePath": "/Users/ds/Documents/rarible/protocol-contracts/staking/contracts/RaRiMine.sol",
  "compiler": {
    "name": "solc",
    "version": "0.7.6+commit.7338295f.Emscripten.clang"
  },
  "schemaVersion": "3.4.3",
  "updatedAt": "2022-10-01T19:50:37.193Z",
  "devdoc": {
    "details": "RariMine, a contract that allows to increase (function plus())      or decrease (function minus()) the balance of ERC20 users tokens.      Also user can initiate stake or withdraw his own amount of ERC20 tokens.      In function claim() Withdraw case works only for slopePeriod == cliffPeriod == 0,      else stake`ll be initiate with amount equal ERC20 tokens user balance.",
    "kind": "dev",
    "methods": {
      "__RariMine_init(address,address,address)": {
        "details": "__RariMine_init, initialise necessary contracts needed for work",
        "params": {
          "_staking": ", staking address contract",
          "_token": ", ERC20 token address contract",
          "_tokenOwner": ", address token owner"
        }
      },
      "claim()": {
        "details": "function, allow stake amount ERC20 tokens or      withdraw ERC20 tokens to user if slopePeriod == cliffPeriod == 0"
      },
      "minus((address,uint256)[])": {
        "details": "function, sub users balances in cycle by contract owner",
        "params": {
          "_balances": ", array balances"
        }
      },
      "owner()": {
        "details": "Returns the address of the current owner."
      },
      "plus((address,uint256)[])": {
        "details": "function, add users balances in cycle by contract owner",
        "params": {
          "_balances": ", array balances"
        }
      },
      "renounceOwnership()": {
        "details": "Leaves the contract without owner. It will not be possible to call `onlyOwner` functions anymore. Can only be called by the current owner. NOTE: Renouncing ownership will leave the contract without an owner, thereby removing any functionality that is only available to the owner."
      },
      "setCliffPeriod(uint256)": {
        "details": "function, set new cliffPeriod by contract owner",
        "params": {
          "_cliffPeriod": ", new value (number of weeks) for cliffPeriod"
        }
      },
      "setSlopePeriod(uint256)": {
        "details": "function, set new slopePeriod by contract owner",
        "params": {
          "_slopePeriod": ", new value (number of weeks) for slopePeriod"
        }
      },
      "transferOwnership(address)": {
        "details": "Transfers ownership of the contract to a new account (`newOwner`). Can only be called by the current owner."
      }
    },
    "version": 1
  },
  "userdoc": {
    "kind": "user",
    "methods": {},
    "version": 1
  }
}