{
  "contractName": "RariMineV3",
  "abi": [
    {
      "anonymous": false,
      "inputs": [
        {
          "indexed": true,
          "internalType": "address",
          "name": "owner",
          "type": "address"
        },
        {
          "indexed": false,
          "internalType": "uint256",
          "name": "value",
          "type": "uint256"
        }
      ],
      "name": "Claim",
      "type": "event"
    },
    {
      "anonymous": false,
      "inputs": [
        {
          "indexed": true,
          "internalType": "address",
          "name": "previousOwner",
          "type": "address"
        },
        {
          "indexed": true,
          "internalType": "address",
          "name": "newOwner",
          "type": "address"
        }
      ],
      "name": "OwnershipTransferred",
      "type": "event"
    },
    {
      "anonymous": false,
      "inputs": [
        {
          "indexed": true,
          "internalType": "address",
          "name": "owner",
          "type": "address"
        },
        {
          "indexed": false,
          "internalType": "uint256",
          "name": "value",
          "type": "uint256"
        }
      ],
      "name": "Value",
      "type": "event"
    },
    {
      "inputs": [
        {
          "internalType": "address",
          "name": "",
          "type": "address"
        }
      ],
      "name": "claimed",
      "outputs": [
        {
          "internalType": "uint256",
          "name": "",
          "type": "uint256"
        }
      ],
      "stateMutability": "view",
      "type": "function"
    },
    {
      "inputs": [],
      "name": "owner",
      "outputs": [
        {
          "internalType": "address",
          "name": "",
          "type": "address"
        }
      ],
      "stateMutability": "view",
      "type": "function"
    },
    {
      "inputs": [],
      "name": "renounceOwnership",
      "outputs": [],
      "stateMutability": "nonpayable",
      "type": "function"
    },
    {
      "inputs": [],
      "name": "staking",
      "outputs": [
        {
          "internalType": "contract IStaking",
          "name": "",
          "type": "address"
        }
      ],
      "stateMutability": "view",
      "type": "function"
    },
    {
      "inputs": [],
      "name": "token",
      "outputs": [
        {
          "internalType": "contract IERC20Upgradeable",
          "name": "",
          "type": "address"
        }
      ],
      "stateMutability": "view",
      "type": "function"
    },
    {
      "inputs": [],
      "name": "tokenOwner",
      "outputs": [
        {
          "internalType": "address",
          "name": "",
          "type": "address"
        }
      ],
      "stateMutability": "view",
      "type": "function"
    },
    {
      "inputs": [
        {
          "internalType": "address",
          "name": "newOwner",
          "type": "address"
        }
      ],
      "name": "transferOwnership",
      "outputs": [],
      "stateMutability": "nonpayable",
      "type": "function"
    },
    {
      "inputs": [
        {
          "internalType": "contract IERC20Upgradeable",
          "name": "_token",
          "type": "address"
        },
        {
          "internalType": "address",
          "name": "_tokenOwner",
          "type": "address"
        },
        {
          "internalType": "contract IStaking",
          "name": "_staking",
          "type": "address"
        }
      ],
      "name": "__RariMineV3_init",
      "outputs": [],
      "stateMutability": "nonpayable",
      "type": "function"
    },
    {
      "inputs": [
        {
          "components": [
            {
              "internalType": "address",
              "name": "recipient",
              "type": "address"
            },
            {
              "internalType": "uint256",
              "name": "value",
              "type": "uint256"
            }
          ],
          "internalType": "struct IRariMine.Balance[]",
          "name": "_balances",
          "type": "tuple[]"
        },
        {
          "internalType": "uint8",
          "name": "v",
          "type": "uint8"
        },
        {
          "internalType": "bytes32",
          "name": "r",
          "type": "bytes32"
        },
        {
          "internalType": "bytes32",
          "name": "s",
          "type": "bytes32"
        }
      ],
      "name": "claim",
      "outputs": [],
      "stateMutability": "nonpayable",
      "type": "function"
    },
    {
      "inputs": [
        {
          "components": [
            {
              "internalType": "address",
              "name": "recipient",
              "type": "address"
            },
            {
              "internalType": "uint256",
              "name": "value",
              "type": "uint256"
            }
          ],
          "internalType": "struct IRariMine.Balance[]",
          "name": "_balances",
          "type": "tuple[]"
        }
      ],
      "name": "doOverride",
      "outputs": [],
      "stateMutability": "nonpayable",
      "type": "function"
    }
  ],
  "bytecode": "0x608060405234801561001057600080fd5b50611815806100206000396000f3fe608060405234801561001057600080fd5b506004361061009e5760003560e01c8063a3e6761011610066578063a3e67610146100f9578063c884ef8314610101578063eb47d12614610121578063f2fde38b14610134578063fc0c546a146101475761009e565b80630be42fcc146100a35780634cf088d9146100b8578063715018a6146100d65780638da5cb5b146100de5780639ec9b36b146100e6575b600080fd5b6100b66100b1366004611454565b61014f565b005b6100c06102a2565b6040516100cd9190611573565b60405180910390f35b6100b66102b1565b6100c061036f565b6100b66100f436600461148f565b61037e565b6100c0610776565b61011461010f366004611438565b610785565b6040516100cd9190611728565b6100b661012f366004611511565b610797565b6100b6610142366004611438565b610856565b6100c061096b565b61015761097a565b6001600160a01b031661016861036f565b6001600160a01b0316146101c3576040805162461bcd60e51b815260206004820181905260248201527f4f776e61626c653a2063616c6c6572206973206e6f7420746865206f776e6572604482015290519081900360640190fd5b60005b815181101561029e578181815181106101db57fe5b602002602001015160200151606860008484815181106101f757fe5b6020026020010151600001516001600160a01b03166001600160a01b031681526020019081526020016000208190555081818151811061023357fe5b6020026020010151600001516001600160a01b03167f4fccb55fc57298c6ed3fb8da8e64b2541fe5ef1a07553abb5123c87d2361ccba83838151811061027557fe5b60200260200101516020015160405161028e9190611728565b60405180910390a26001016101c6565b5050565b6067546001600160a01b031681565b6102b961097a565b6001600160a01b03166102ca61036f565b6001600160a01b031614610325576040805162461bcd60e51b815260206004820181905260248201527f4f776e61626c653a2063616c6c6572206973206e6f7420746865206f776e6572604482015290519081900360640190fd5b6033546040516000916001600160a01b0316907f8be0079c531659141344cd1fd0a4f28419497f9722a3daafe3b4186f6b6457e0908390a3603380546001600160a01b0319169055565b6033546001600160a01b031690565b61038661036f565b6001600160a01b03166103a684848461039e8961097e565b9291906109b7565b6001600160a01b0316146103d55760405162461bcd60e51b81526004016103cc906116ba565b60405180910390fd5b60005b84518110156107575760008582815181106103ef57fe5b6020026020010151600001519050806001600160a01b0316336001600160a01b0316141561074e576001600160a01b038116600090815260686020526040812054875161045d919089908690811061044357fe5b602002602001015160200151610aa890919063ffffffff16565b90506000811161047f5760405162461bcd60e51b81526004016103cc90611690565b86838151811061048b57fe5b6020908102919091018101518101516001600160a01b0384166000908152606890925260408220556104cf6305f5e1006104c9846302625a00610b0a565b90610b6a565b6065546066546040516323b872dd60e01b81529293506001600160a01b03918216926323b872dd92610509921690339086906004016115b8565b602060405180830381600087803b15801561052357600080fd5b505af1158015610537573d6000803e3d6000fd5b505050506040513d601f19601f8201168201806040525081019061055b91906114f1565b6105775760405162461bcd60e51b81526004016103cc906116f1565b826001600160a01b03167f47cee97cb7acd717b3c0aa1435d004cd5b3c8c57d70dbceb4e4458bbd60e39d4826040516105b09190611728565b60405180910390a2826001600160a01b03167f4fccb55fc57298c6ed3fb8da8e64b2541fe5ef1a07553abb5123c87d2361ccba8986815181106105ef57fe5b6020026020010151602001516040516106089190611728565b60405180910390a2808203600061062082602a610bd1565b60655460675460405163095ea7b360e01b81529293506001600160a01b039182169263095ea7b39261065892169086906004016115dc565b602060405180830381600087803b15801561067257600080fd5b505af1158015610686573d6000803e3d6000fd5b505050506040513d601f19601f820116820180604052508101906106aa91906114f1565b506067546001600160a01b031663f108fa936106c461097a565b6106cc61097a565b8585602a6040518663ffffffff1660e01b81526004016106f0959493929190611587565b602060405180830381600087803b15801561070a57600080fd5b505af115801561071e573d6000803e3d6000fd5b505050506040513d601f19601f82011682018060405250810190610742919061155b565b50505050505050610770565b506001016103d8565b5060405162461bcd60e51b81526004016103cc9061164d565b50505050565b6066546001600160a01b031681565b60686020526000908152604090205481565b600054610100900460ff16806107b057506107b0610bec565b806107be575060005460ff16155b6107f95760405162461bcd60e51b815260040180806020018281038252602e815260200180611791602e913960400191505060405180910390fd5b600054610100900460ff16158015610824576000805460ff1961ff0019909116610100171660011790555b61082f848484610bfd565b610837610cde565b61083f610dd8565b8015610770576000805461ff001916905550505050565b61085e61097a565b6001600160a01b031661086f61036f565b6001600160a01b0316146108ca576040805162461bcd60e51b815260206004820181905260248201527f4f776e61626c653a2063616c6c6572206973206e6f7420746865206f776e6572604482015290519081900360640190fd5b6001600160a01b03811661090f5760405162461bcd60e51b815260040180806020018281038252602681526020018061176b6026913960400191505060405180910390fd5b6033546040516001600160a01b038084169216907f8be0079c531659141344cd1fd0a4f28419497f9722a3daafe3b4186f6b6457e090600090a3603380546001600160a01b0319166001600160a01b0392909216919091179055565b6065546001600160a01b031681565b3390565b60606109af8260405160200161099491906115f5565b60405160208183030381529060405280519060200120610e79565b90505b919050565b6000808590506000610a2f6040518060400160405280601a81526020017f19457468657265756d205369676e6564204d6573736167653a0a000000000000815250610a028451610f8d565b60408051600080825260208201818152828401828152606084019283526080840190945288939091611065565b90506001818051906020012087878760405160008152602001604052604051808581526020018460ff1681526020018381526020018281526020019450505050506020604051602081039080840390855afa158015610a92573d6000803e3d6000fd5b5050604051601f19015198975050505050505050565b600082821115610aff576040805162461bcd60e51b815260206004820152601e60248201527f536166654d6174683a207375627472616374696f6e206f766572666c6f770000604482015290519081900360640190fd5b508082035b92915050565b600082610b1957506000610b04565b82820282848281610b2657fe5b0414610b635760405162461bcd60e51b81526004018080602001828103825260218152602001806117bf6021913960400191505060405180910390fd5b9392505050565b6000808211610bc0576040805162461bcd60e51b815260206004820152601a60248201527f536166654d6174683a206469766973696f6e206279207a65726f000000000000604482015290519081900360640190fd5b818381610bc957fe5b049392505050565b6000610b636001610be6846104c98784610aa8565b90611323565b6000610bf73061137d565b15905090565b600054610100900460ff1680610c165750610c16610bec565b80610c24575060005460ff16155b610c5f5760405162461bcd60e51b815260040180806020018281038252602e815260200180611791602e913960400191505060405180910390fd5b600054610100900460ff16158015610c8a576000805460ff1961ff0019909116610100171660011790555b606580546001600160a01b038087166001600160a01b0319928316179092556066805486841690831617905560678054928516929091169190911790558015610770576000805461ff001916905550505050565b600054610100900460ff1680610cf75750610cf7610bec565b80610d05575060005460ff16155b610d405760405162461bcd60e51b815260040180806020018281038252602e815260200180611791602e913960400191505060405180910390fd5b600054610100900460ff16158015610d6b576000805460ff1961ff0019909116610100171660011790555b6000610d7561097a565b603380546001600160a01b0319166001600160a01b038316908117909155604051919250906000907f8be0079c531659141344cd1fd0a4f28419497f9722a3daafe3b4186f6b6457e0908290a3508015610dd5576000805461ff00191690555b50565b600054610100900460ff1680610df15750610df1610bec565b80610dff575060005460ff16155b610e3a5760405162461bcd60e51b815260040180806020018281038252602e815260200180611791602e913960400191505060405180910390fd5b600054610100900460ff16158015610e65576000805460ff1961ff0019909116610100171660011790555b8015610dd5576000805461ff001916905550565b604080518082018252601081526f181899199a1a9b1b9c1cb0b131b232b360811b6020820152815182815260608181018452926000919060208201818036833701905050905060005b6020811015610f8557826004868360208110610eda57fe5b1a60f81b6001600160f81b031916901c60f81c60ff1681518110610efa57fe5b602001015160f81c60f81b828260020281518110610f1457fe5b60200101906001600160f81b031916908160001a90535082858260208110610f3857fe5b825191901a600f16908110610f4957fe5b602001015160f81c60f81b828260020260010181518110610f6657fe5b60200101906001600160f81b031916908160001a905350600101610ec2565b509392505050565b606081610fb257506040805180820190915260018152600360fc1b60208201526109b2565b8160005b8115610fca57600101600a82049150610fb6565b60008167ffffffffffffffff81118015610fe357600080fd5b506040519080825280601f01601f19166020018201604052801561100e576020820181803683370190505b50905060001982015b851561105c57600a860660300160f81b8282806001900393508151811061103a57fe5b60200101906001600160f81b031916908160001a905350600a86049550611017565b50949350505050565b6060600082518451865188518a518c518e5101010101010167ffffffffffffffff8111801561109357600080fd5b506040519080825280601f01601f1916602001820160405280156110be576020820181803683370190505b5090506000805b8a51811015611116578a81815181106110da57fe5b602001015160f81c60f81b8383806001019450815181106110f757fe5b60200101906001600160f81b031916908160001a9053506001016110c5565b5060005b895181101561116b5789818151811061112f57fe5b602001015160f81c60f81b83838060010194508151811061114c57fe5b60200101906001600160f81b031916908160001a90535060010161111a565b5060005b88518110156111c05788818151811061118457fe5b602001015160f81c60f81b8383806001019450815181106111a157fe5b60200101906001600160f81b031916908160001a90535060010161116f565b5060005b8751811015611215578781815181106111d957fe5b602001015160f81c60f81b8383806001019450815181106111f657fe5b60200101906001600160f81b031916908160001a9053506001016111c4565b5060005b865181101561126a5786818151811061122e57fe5b602001015160f81c60f81b83838060010194508151811061124b57fe5b60200101906001600160f81b031916908160001a905350600101611219565b5060005b85518110156112bf5785818151811061128357fe5b602001015160f81c60f81b8383806001019450815181106112a057fe5b60200101906001600160f81b031916908160001a90535060010161126e565b5060005b8451811015611314578481815181106112d857fe5b602001015160f81c60f81b8383806001019450815181106112f557fe5b60200101906001600160f81b031916908160001a9053506001016112c3565b50909998505050505050505050565b600082820183811015610b63576040805162461bcd60e51b815260206004820152601b60248201527f536166654d6174683a206164646974696f6e206f766572666c6f770000000000604482015290519081900360640190fd5b3b151590565b600082601f830112611393578081fd5b8135602067ffffffffffffffff808311156113aa57fe5b6113b78283850201611731565b838152828101908684016040808702890186018a10156113d5578788fd5b875b878110156114295781838c0312156113ed578889fd5b8151828101818110888211171561140057fe5b8352833561140d81611755565b81528388013588820152855293860193918101916001016113d7565b50919998505050505050505050565b600060208284031215611449578081fd5b8135610b6381611755565b600060208284031215611465578081fd5b813567ffffffffffffffff81111561147b578182fd5b61148784828501611383565b949350505050565b600080600080608085870312156114a4578283fd5b843567ffffffffffffffff8111156114ba578384fd5b6114c687828801611383565b945050602085013560ff811681146114dc578384fd5b93969395505050506040820135916060013590565b600060208284031215611502578081fd5b81518015158114610b63578182fd5b600080600060608486031215611525578283fd5b833561153081611755565b9250602084013561154081611755565b9150604084013561155081611755565b809150509250925092565b60006020828403121561156c578081fd5b5051919050565b6001600160a01b0391909116815260200190565b6001600160a01b03958616815293909416602084015260408301919091526060820152608081019190915260a00190565b6001600160a01b039384168152919092166020820152604081019190915260600190565b6001600160a01b03929092168252602082015260400190565b602080825282518282018190526000919060409081850190868401855b8281101561164057815180516001600160a01b03168552860151868501529284019290850190600101611612565b5091979650505050505050565b60208082526023908201527f6d73672e73656e646572206e6f7420666f756e6420696e2072656365697069656040820152626e747360e81b606082015260800190565b60208082526010908201526f6e6f7468696e6720746f20636c61696d60801b604082015260600190565b6020808252601a908201527f6f776e65722073686f756c64207369676e2062616c616e636573000000000000604082015260600190565b6020808252601a908201527f7472616e73666572206973206e6f74207375636365737366756c000000000000604082015260600190565b90815260200190565b60405181810167ffffffffffffffff8111828210171561174d57fe5b604052919050565b6001600160a01b0381168114610dd557600080fdfe4f776e61626c653a206e6577206f776e657220697320746865207a65726f2061646472657373496e697469616c697a61626c653a20636f6e747261637420697320616c726561647920696e697469616c697a6564536166654d6174683a206d756c7469706c69636174696f6e206f766572666c6f77a264697066735822122036b3c437322aaf7aa85e7205190e045e2dfe00efc6e76280f30a3b7e64451ca364736f6c63430007060033",
  "immutableReferences": {},
  "source": "// SPDX-License-Identifier: MIT\r\n\r\n/**\r\n *Submitted for verification at Etherscan.io on 2020-07-20\r\n*/\r\n\r\npragma solidity 0.7.6;\r\npragma abicoder v2;\r\n\r\nimport \"@openzeppelin/contracts-upgradeable/access/OwnableUpgradeable.sol\";\r\nimport \"@openzeppelin/contracts-upgradeable/utils/AddressUpgradeable.sol\";\r\nimport \"@openzeppelin/contracts-upgradeable/token/ERC20/IERC20Upgradeable.sol\";\r\n\r\nimport \"./libs/LibString.sol\";\r\nimport \"./libs/LibAddress.sol\";\r\nimport \"./libs/LibUint.sol\";\r\nimport \"./libs/LibStakingMath.sol\";\r\nimport \"./IRariMine.sol\";\r\nimport \"./IStaking.sol\";\r\n\r\ncontract RariMineV3 is OwnableUpgradeable, IRariMine {\r\n    using SafeMathUpgradeable for uint;\r\n    using LibString for string;\r\n    using LibUint for uint;\r\n    using LibAddress for address;\r\n\r\n    IERC20Upgradeable public token;\r\n    address public tokenOwner;\r\n    IStaking public staking;\r\n    uint256 constant CLAIM_FORMULA_STAKE   = 60000000;  // 60% to stake\r\n    uint256 constant CLAIM_FORMULA_CLAIM   = 40000000;  // 40% to withdraw\r\n    uint256 constant CLAIM_FORMULA_DIVIDER = 100000000; //  \r\n    uint256 constant CLAIM_CLIFF_WEEKS     = 42;        // the meaning of life, the universe, and everything\r\n\r\n    mapping(address => uint) public claimed;\r\n\r\n    function __RariMineV3_init(IERC20Upgradeable _token, address _tokenOwner, IStaking _staking) external initializer {\r\n        __RariMineV3_init_unchained(_token, _tokenOwner, _staking);\r\n        __Ownable_init_unchained();\r\n        __Context_init_unchained();\r\n    }\r\n\r\n    function __RariMineV3_init_unchained(IERC20Upgradeable _token, address _tokenOwner, IStaking _staking) internal initializer {\r\n        token = _token;\r\n        tokenOwner = _tokenOwner;\r\n        staking = _staking;\r\n    }\r\n\r\n    function claim(Balance[] memory _balances, uint8 v, bytes32 r, bytes32 s) public {\r\n        require(prepareMessage(_balances).recover(v, r, s) == owner(), \"owner should sign balances\");\r\n\r\n        for (uint i = 0; i < _balances.length; i++) {\r\n            address recipient = _balances[i].recipient;\r\n            if (msg.sender == recipient) {\r\n                uint toClaim = _balances[i].value.sub(claimed[recipient]);\r\n                require(toClaim > 0, \"nothing to claim\");\r\n                claimed[recipient] = _balances[i].value;\r\n\r\n                // claim rari tokens\r\n                uint claimAmount = toClaim.mul(CLAIM_FORMULA_CLAIM).div(CLAIM_FORMULA_DIVIDER);\r\n                require(token.transferFrom(tokenOwner, msg.sender, claimAmount), \"transfer is not successful\");\r\n                emit Claim(recipient, claimAmount);\r\n                emit Value(recipient, _balances[i].value);\r\n\r\n                // stake some tokens\r\n                uint stakeAmount = toClaim - claimAmount;\r\n                uint slope = LibStakingMath.divUp(stakeAmount, CLAIM_CLIFF_WEEKS);\r\n                token.approve(address(staking), stakeAmount);\r\n                staking.stake(_msgSender(), _msgSender(), stakeAmount, slope, CLAIM_CLIFF_WEEKS);\r\n                return;\r\n            }\r\n        }\r\n        revert(\"msg.sender not found in receipients\");\r\n    }\r\n\r\n    function doOverride(Balance[] memory _balances) public onlyOwner {\r\n        for (uint i = 0; i < _balances.length; i++) {\r\n            claimed[_balances[i].recipient] = _balances[i].value;\r\n            emit Value(_balances[i].recipient, _balances[i].value);\r\n        }\r\n    }\r\n\r\n    function prepareMessage(Balance[] memory _balances) internal pure returns (string memory) {\r\n        return toString(keccak256(abi.encode(_balances)));\r\n    }\r\n\r\n    function toString(bytes32 value) internal pure returns (string memory) {\r\n        bytes memory alphabet = \"0123456789abcdef\";\r\n        bytes memory str = new bytes(64);\r\n        for (uint256 i = 0; i < 32; i++) {\r\n            str[i*2] = alphabet[uint8(value[i] >> 4)];\r\n            str[1+i*2] = alphabet[uint8(value[i] & 0x0f)];\r\n        }\r\n        return string(str);\r\n    }\r\n\r\n    uint256[48] private __gap;\r\n}",
  "sourcePath": "C:\\rarible\\protocol-contracts\\staking\\contracts\\RariMineV3.sol",
  "compiler": {
    "name": "solc",
    "version": "0.7.6+commit.7338295f.Emscripten.clang"
  },
  "schemaVersion": "3.4.3",
  "updatedAt": "2022-09-29T14:33:52.825Z",
  "devdoc": {
    "kind": "dev",
    "methods": {
      "owner()": {
        "details": "Returns the address of the current owner."
      },
      "renounceOwnership()": {
        "details": "Leaves the contract without owner. It will not be possible to call `onlyOwner` functions anymore. Can only be called by the current owner. NOTE: Renouncing ownership will leave the contract without an owner, thereby removing any functionality that is only available to the owner."
      },
      "transferOwnership(address)": {
        "details": "Transfers ownership of the contract to a new account (`newOwner`). Can only be called by the current owner."
      }
    },
    "version": 1
  },
  "userdoc": {
    "kind": "user",
    "methods": {},
    "version": 1
  }
}