{
  "contractName": "RariMineV3",
  "abi": [
    {
      "anonymous": false,
      "inputs": [
        {
          "indexed": true,
          "internalType": "address",
          "name": "owner",
          "type": "address"
        },
        {
          "indexed": false,
          "internalType": "uint256",
          "name": "value",
          "type": "uint256"
        }
      ],
      "name": "Claim",
      "type": "event"
    },
    {
      "anonymous": false,
      "inputs": [
        {
          "indexed": true,
          "internalType": "address",
          "name": "previousOwner",
          "type": "address"
        },
        {
          "indexed": true,
          "internalType": "address",
          "name": "newOwner",
          "type": "address"
        }
      ],
      "name": "OwnershipTransferred",
      "type": "event"
    },
    {
      "anonymous": false,
      "inputs": [
        {
          "indexed": true,
          "internalType": "address",
          "name": "owner",
          "type": "address"
        },
        {
          "indexed": false,
          "internalType": "uint256",
          "name": "value",
          "type": "uint256"
        }
      ],
      "name": "Value",
      "type": "event"
    },
    {
      "inputs": [
        {
          "internalType": "address",
          "name": "",
          "type": "address"
        }
      ],
      "name": "claimed",
      "outputs": [
        {
          "internalType": "uint256",
          "name": "",
          "type": "uint256"
        }
      ],
      "stateMutability": "view",
      "type": "function"
    },
    {
      "inputs": [],
      "name": "owner",
      "outputs": [
        {
          "internalType": "address",
          "name": "",
          "type": "address"
        }
      ],
      "stateMutability": "view",
      "type": "function"
    },
    {
      "inputs": [],
      "name": "renounceOwnership",
      "outputs": [],
      "stateMutability": "nonpayable",
      "type": "function"
    },
    {
      "inputs": [],
      "name": "staking",
      "outputs": [
        {
          "internalType": "contract IStaking",
          "name": "",
          "type": "address"
        }
      ],
      "stateMutability": "view",
      "type": "function"
    },
    {
      "inputs": [],
      "name": "token",
      "outputs": [
        {
          "internalType": "contract IERC20Upgradeable",
          "name": "",
          "type": "address"
        }
      ],
      "stateMutability": "view",
      "type": "function"
    },
    {
      "inputs": [],
      "name": "tokenOwner",
      "outputs": [
        {
          "internalType": "address",
          "name": "",
          "type": "address"
        }
      ],
      "stateMutability": "view",
      "type": "function"
    },
    {
      "inputs": [
        {
          "internalType": "address",
          "name": "newOwner",
          "type": "address"
        }
      ],
      "name": "transferOwnership",
      "outputs": [],
      "stateMutability": "nonpayable",
      "type": "function"
    },
    {
      "inputs": [
        {
          "internalType": "contract IERC20Upgradeable",
          "name": "_token",
          "type": "address"
        },
        {
          "internalType": "address",
          "name": "_tokenOwner",
          "type": "address"
        },
        {
          "internalType": "contract IStaking",
          "name": "_staking",
          "type": "address"
        }
      ],
      "name": "__RariMineV3_init",
      "outputs": [],
      "stateMutability": "nonpayable",
      "type": "function"
    },
    {
      "inputs": [
        {
          "components": [
            {
              "internalType": "address",
              "name": "recipient",
              "type": "address"
            },
            {
              "internalType": "uint256",
              "name": "value",
              "type": "uint256"
            }
          ],
          "internalType": "struct IRariMine.Balance",
          "name": "_balance",
          "type": "tuple"
        },
        {
          "internalType": "uint8",
          "name": "v",
          "type": "uint8"
        },
        {
          "internalType": "bytes32",
          "name": "r",
          "type": "bytes32"
        },
        {
          "internalType": "bytes32",
          "name": "s",
          "type": "bytes32"
        }
      ],
      "name": "claim",
      "outputs": [],
      "stateMutability": "nonpayable",
      "type": "function"
    },
    {
      "inputs": [
        {
          "components": [
            {
              "internalType": "address",
              "name": "recipient",
              "type": "address"
            },
            {
              "internalType": "uint256",
              "name": "value",
              "type": "uint256"
            }
          ],
          "internalType": "struct IRariMine.Balance[]",
          "name": "_balances",
          "type": "tuple[]"
        }
      ],
      "name": "doOverride",
      "outputs": [],
      "stateMutability": "nonpayable",
      "type": "function"
    },
    {
      "inputs": [],
      "name": "totalSupply",
      "outputs": [
        {
          "internalType": "uint256",
          "name": "",
          "type": "uint256"
        }
      ],
      "stateMutability": "view",
      "type": "function"
    },
    {
      "inputs": [
        {
          "internalType": "address",
          "name": "account",
          "type": "address"
        }
      ],
      "name": "balanceOf",
      "outputs": [
        {
          "internalType": "uint256",
          "name": "",
          "type": "uint256"
        }
      ],
      "stateMutability": "view",
      "type": "function"
    },
    {
      "inputs": [],
      "name": "name",
      "outputs": [
        {
          "internalType": "string",
          "name": "",
          "type": "string"
        }
      ],
      "stateMutability": "view",
      "type": "function"
    },
    {
      "inputs": [],
      "name": "decimals",
      "outputs": [
        {
          "internalType": "uint8",
          "name": "",
          "type": "uint8"
        }
      ],
      "stateMutability": "view",
      "type": "function"
    },
    {
      "inputs": [],
      "name": "symbol",
      "outputs": [
        {
          "internalType": "string",
          "name": "",
          "type": "string"
        }
      ],
      "stateMutability": "view",
      "type": "function"
    }
  ],
  "bytecode": "0x608060405234801561001057600080fd5b50611aef806100206000396000f3fe608060405234801561001057600080fd5b50600436106100f55760003560e01c8063715018a611610097578063c884ef8311610066578063c884ef83146101b2578063eb47d126146101c5578063f2fde38b146101d8578063fc0c546a146101eb576100f5565b8063715018a6146101925780638da5cb5b1461019a57806395d89b41146101a2578063a3e67610146101aa576100f5565b806318160ddd116100d357806318160ddd14610140578063313ce567146101555780634cf088d91461016a57806370a082311461017f576100f5565b806306fdde03146100fa5780630be42fcc146101185780630ecf28e91461012d575b600080fd5b6101026101f3565b60405161010f9190611894565b60405180910390f35b61012b610126366004611699565b610289565b005b61012b61013b3660046117b1565b6103dc565b61014861078a565b60405161010f91906119f4565b61015d610790565b60405161010f91906119fd565b610172610799565b60405161010f9190611812565b61014861018d36600461167d565b6107a8565b61012b6107c7565b610172610885565b610102610894565b6101726108f5565b6101486101c036600461167d565b610904565b61012b6101d3366004611767565b610916565b61012b6101e636600461167d565b6109d5565b610172610aea565b60688054604080516020601f600260001961010060018816150201909516949094049384018190048102820181019092528281526060939092909183018282801561027f5780601f106102545761010080835404028352916020019161027f565b820191906000526020600020905b81548152906001019060200180831161026257829003601f168201915b5050505050905090565b610291610af9565b6001600160a01b03166102a2610885565b6001600160a01b0316146102fd576040805162461bcd60e51b815260206004820181905260248201527f4f776e61626c653a2063616c6c6572206973206e6f7420746865206f776e6572604482015290519081900360640190fd5b60005b81518110156103d85781818151811061031557fe5b602002602001015160200151606c600084848151811061033157fe5b6020026020010151600001516001600160a01b03166001600160a01b031681526020019081526020016000208190555081818151811061036d57fe5b6020026020010151600001516001600160a01b03167f4fccb55fc57298c6ed3fb8da8e64b2541fe5ef1a07553abb5123c87d2361ccba8383815181106103af57fe5b6020026020010151602001516040516103c891906119f4565b60405180910390a2600101610300565b5050565b6103e4610885565b6001600160a01b03166104058484846103fd8930610afd565b929190610b41565b6001600160a01b0316146104345760405162461bcd60e51b815260040161042b90611911565b60405180910390fd5b83516001600160a01b038116610448610af9565b6001600160a01b0316141561076c576001600160a01b0381166000908152606c602090815260408220549087015161047f91610c32565b9050600081116104a15760405162461bcd60e51b815260040161042b906118e7565b602080870180516001600160a01b0385166000908152606c909352604083208054909101905551606b805490910190556104ed6305f5e1006104e7846302625a00610c8f565b90610cef565b6065546066549192506001600160a01b03908116916323b872dd9116610511610af9565b856040518463ffffffff1660e01b815260040161053093929190611857565b602060405180830381600087803b15801561054a57600080fd5b505af115801561055e573d6000803e3d6000fd5b505050506040513d601f19601f820116820180604052508101906105829190611747565b61059e5760405162461bcd60e51b815260040161042b9061198a565b826001600160a01b03167f47cee97cb7acd717b3c0aa1435d004cd5b3c8c57d70dbceb4e4458bbd60e39d4826040516105d791906119f4565b60405180910390a2826001600160a01b03167f4fccb55fc57298c6ed3fb8da8e64b2541fe5ef1a07553abb5123c87d2361ccba886020015160405161061c91906119f4565b60405180910390a260006106308383610c32565b9050600061063f82602a610d56565b60655460675460405163095ea7b360e01b81529293506001600160a01b039182169263095ea7b392610677921690869060040161187b565b602060405180830381600087803b15801561069157600080fd5b505af11580156106a5573d6000803e3d6000fd5b505050506040513d601f19601f820116820180604052508101906106c99190611747565b506067546001600160a01b031663f108fa936106e3610af9565b6106eb610af9565b8585602a6040518663ffffffff1660e01b815260040161070f959493929190611826565b602060405180830381600087803b15801561072957600080fd5b505af115801561073d573d6000803e3d6000fd5b505050506040513d601f19601f8201168201806040525081019061076191906117fa565b505050505050610784565b60405162461bcd60e51b815260040161042b90611948565b50505050565b606b5490565b606a5460ff1690565b6067546001600160a01b031681565b6001600160a01b0381166000908152606c60205260409020545b919050565b6107cf610af9565b6001600160a01b03166107e0610885565b6001600160a01b03161461083b576040805162461bcd60e51b815260206004820181905260248201527f4f776e61626c653a2063616c6c6572206973206e6f7420746865206f776e6572604482015290519081900360640190fd5b6033546040516000916001600160a01b0316907f8be0079c531659141344cd1fd0a4f28419497f9722a3daafe3b4186f6b6457e0908390a3603380546001600160a01b0319169055565b6033546001600160a01b031690565b60698054604080516020601f600260001961010060018816150201909516949094049384018190048102820181019092528281526060939092909183018282801561027f5780601f106102545761010080835404028352916020019161027f565b6066546001600160a01b031681565b606c6020526000908152604090205481565b600054610100900460ff168061092f575061092f610d71565b8061093d575060005460ff16155b6109785760405162461bcd60e51b815260040180806020018281038252602e815260200180611a6b602e913960400191505060405180910390fd5b600054610100900460ff161580156109a3576000805460ff1961ff0019909116610100171660011790555b6109ae848484610d82565b6109b6610ee5565b6109be610fdf565b8015610784576000805461ff001916905550505050565b6109dd610af9565b6001600160a01b03166109ee610885565b6001600160a01b031614610a49576040805162461bcd60e51b815260206004820181905260248201527f4f776e61626c653a2063616c6c6572206973206e6f7420746865206f776e6572604482015290519081900360640190fd5b6001600160a01b038116610a8e5760405162461bcd60e51b8152600401808060200182810382526026815260200180611a456026913960400191505060405180910390fd5b6033546040516001600160a01b038084169216907f8be0079c531659141344cd1fd0a4f28419497f9722a3daafe3b4186f6b6457e090600090a3603380546001600160a01b0319166001600160a01b0392909216919091179055565b6065546001600160a01b031681565b3390565b60606000469050610b37848483604051602001610b1c939291906119c1565b60405160208183030381529060405280519060200120611080565b9150505b92915050565b6000808590506000610bb96040518060400160405280601a81526020017f19457468657265756d205369676e6564204d6573736167653a0a000000000000815250610b8c8451611194565b6040805160008082526020820181815282840182815260608401928352608084019094528893909161126c565b90506001818051906020012087878760405160008152602001604052604051808581526020018460ff1681526020018381526020018281526020019450505050506020604051602081039080840390855afa158015610c1c573d6000803e3d6000fd5b5050604051601f19015198975050505050505050565b600082821115610c89576040805162461bcd60e51b815260206004820152601e60248201527f536166654d6174683a207375627472616374696f6e206f766572666c6f770000604482015290519081900360640190fd5b50900390565b600082610c9e57506000610b3b565b82820282848281610cab57fe5b0414610ce85760405162461bcd60e51b8152600401808060200182810382526021815260200180611a996021913960400191505060405180910390fd5b9392505050565b6000808211610d45576040805162461bcd60e51b815260206004820152601a60248201527f536166654d6174683a206469766973696f6e206279207a65726f000000000000604482015290519081900360640190fd5b818381610d4e57fe5b049392505050565b6000610ce86001610d6b846104e78784610c32565b9061152a565b6000610d7c30611584565b15905090565b600054610100900460ff1680610d9b5750610d9b610d71565b80610da9575060005460ff16155b610de45760405162461bcd60e51b815260040180806020018281038252602e815260200180611a6b602e913960400191505060405180910390fd5b600054610100900460ff16158015610e0f576000805460ff1961ff0019909116610100171660011790555b606580546001600160a01b038087166001600160a01b031992831617909255606680548684169083161790556067805492851692909116919091179055606a805460ff191660121790556040805180820190915260188082527f52617269204d696e6520436c61696d656420546f6b656e7300000000000000006020909201918252610e9d9160689161158a565b5060408051808201909152600880825267526172694d696e6560c01b6020909201918252610ecd9160699161158a565b508015610784576000805461ff001916905550505050565b600054610100900460ff1680610efe5750610efe610d71565b80610f0c575060005460ff16155b610f475760405162461bcd60e51b815260040180806020018281038252602e815260200180611a6b602e913960400191505060405180910390fd5b600054610100900460ff16158015610f72576000805460ff1961ff0019909116610100171660011790555b6000610f7c610af9565b603380546001600160a01b0319166001600160a01b038316908117909155604051919250906000907f8be0079c531659141344cd1fd0a4f28419497f9722a3daafe3b4186f6b6457e0908290a3508015610fdc576000805461ff00191690555b50565b600054610100900460ff1680610ff85750610ff8610d71565b80611006575060005460ff16155b6110415760405162461bcd60e51b815260040180806020018281038252602e815260200180611a6b602e913960400191505060405180910390fd5b600054610100900460ff1615801561106c576000805460ff1961ff0019909116610100171660011790555b8015610fdc576000805461ff001916905550565b604080518082018252601081526f181899199a1a9b1b9c1cb0b131b232b360811b6020820152815182815260608181018452926000919060208201818036833701905050905060005b602081101561118c578260048683602081106110e157fe5b1a60f81b6001600160f81b031916901c60f81c60ff168151811061110157fe5b602001015160f81c60f81b82826002028151811061111b57fe5b60200101906001600160f81b031916908160001a9053508285826020811061113f57fe5b825191901a600f1690811061115057fe5b602001015160f81c60f81b82826002026001018151811061116d57fe5b60200101906001600160f81b031916908160001a9053506001016110c9565b509392505050565b6060816111b957506040805180820190915260018152600360fc1b60208201526107c2565b8160005b81156111d157600101600a820491506111bd565b60008167ffffffffffffffff811180156111ea57600080fd5b506040519080825280601f01601f191660200182016040528015611215576020820181803683370190505b50905060001982015b851561126357600a860660300160f81b8282806001900393508151811061124157fe5b60200101906001600160f81b031916908160001a905350600a8604955061121e565b50949350505050565b6060600082518451865188518a518c518e5101010101010167ffffffffffffffff8111801561129a57600080fd5b506040519080825280601f01601f1916602001820160405280156112c5576020820181803683370190505b5090506000805b8a5181101561131d578a81815181106112e157fe5b602001015160f81c60f81b8383806001019450815181106112fe57fe5b60200101906001600160f81b031916908160001a9053506001016112cc565b5060005b89518110156113725789818151811061133657fe5b602001015160f81c60f81b83838060010194508151811061135357fe5b60200101906001600160f81b031916908160001a905350600101611321565b5060005b88518110156113c75788818151811061138b57fe5b602001015160f81c60f81b8383806001019450815181106113a857fe5b60200101906001600160f81b031916908160001a905350600101611376565b5060005b875181101561141c578781815181106113e057fe5b602001015160f81c60f81b8383806001019450815181106113fd57fe5b60200101906001600160f81b031916908160001a9053506001016113cb565b5060005b86518110156114715786818151811061143557fe5b602001015160f81c60f81b83838060010194508151811061145257fe5b60200101906001600160f81b031916908160001a905350600101611420565b5060005b85518110156114c65785818151811061148a57fe5b602001015160f81c60f81b8383806001019450815181106114a757fe5b60200101906001600160f81b031916908160001a905350600101611475565b5060005b845181101561151b578481815181106114df57fe5b602001015160f81c60f81b8383806001019450815181106114fc57fe5b60200101906001600160f81b031916908160001a9053506001016114ca565b50909998505050505050505050565b600082820183811015610ce8576040805162461bcd60e51b815260206004820152601b60248201527f536166654d6174683a206164646974696f6e206f766572666c6f770000000000604482015290519081900360640190fd5b3b151590565b828054600181600116156101000203166002900490600052602060002090601f0160209004810192826115c05760008555611606565b82601f106115d957805160ff1916838001178555611606565b82800160010185558215611606579182015b828111156116065782518255916020019190600101906115eb565b50611612929150611616565b5090565b5b808211156116125760008155600101611617565b60006040828403121561163c578081fd5b6040516040810181811067ffffffffffffffff8211171561165957fe5b604052905080823561166a81611a2f565b8152602092830135920191909152919050565b60006020828403121561168e578081fd5b8135610ce881611a2f565b600060208083850312156116ab578182fd5b823567ffffffffffffffff808211156116c2578384fd5b818501915085601f8301126116d5578384fd5b8135818111156116e157fe5b6116ee8485830201611a0b565b81815284810192508385016040808402860187018a101561170d578788fd5b8795505b83861015611739576117238a8361162b565b8552600195909501949386019390810190611711565b509098975050505050505050565b600060208284031215611758578081fd5b81518015158114610ce8578182fd5b60008060006060848603121561177b578182fd5b833561178681611a2f565b9250602084013561179681611a2f565b915060408401356117a681611a2f565b809150509250925092565b60008060008060a085870312156117c6578081fd5b6117d0868661162b565b9350604085013560ff811681146117e5578182fd5b93969395505050506060820135916080013590565b60006020828403121561180b578081fd5b5051919050565b6001600160a01b0391909116815260200190565b6001600160a01b03958616815293909416602084015260408301919091526060820152608081019190915260a00190565b6001600160a01b039384168152919092166020820152604081019190915260600190565b6001600160a01b03929092168252602082015260400190565b6000602080835283518082850152825b818110156118c0578581018301518582016040015282016118a4565b818111156118d15783604083870101525b50601f01601f1916929092016040019392505050565b60208082526010908201526f6e6f7468696e6720746f20636c61696d60801b604082015260600190565b6020808252601a908201527f6f776e65722073686f756c64207369676e2062616c616e636573000000000000604082015260600190565b60208082526022908201527f5f6d736753656e6465722829206973206e6f74207468652072656365697069656040820152611b9d60f21b606082015260800190565b6020808252601a908201527f7472616e73666572206973206e6f74207375636365737366756c000000000000604082015260600190565b83516001600160a01b03908116825260209485015194820194909452919092166040820152606081019190915260800190565b90815260200190565b60ff91909116815260200190565b60405181810167ffffffffffffffff81118282101715611a2757fe5b604052919050565b6001600160a01b0381168114610fdc57600080fdfe4f776e61626c653a206e6577206f776e657220697320746865207a65726f2061646472657373496e697469616c697a61626c653a20636f6e747261637420697320616c726561647920696e697469616c697a6564536166654d6174683a206d756c7469706c69636174696f6e206f766572666c6f77a26469706673582212200eabdb4bc9722e373c14913651c867c191dbaa4b74d96aad92cc4cb84bffd2e664736f6c63430007060033",
  "immutableReferences": {},
  "source": "// SPDX-License-Identifier: MIT\r\n\r\n/**\r\n *Submitted for verification at Etherscan.io on 2020-07-20\r\n*/\r\n\r\npragma solidity 0.7.6;\r\npragma abicoder v2;\r\n\r\nimport \"@openzeppelin/contracts-upgradeable/access/OwnableUpgradeable.sol\";\r\nimport \"@openzeppelin/contracts-upgradeable/utils/AddressUpgradeable.sol\";\r\nimport \"@openzeppelin/contracts-upgradeable/token/ERC20/IERC20Upgradeable.sol\";\r\n\r\nimport \"./libs/LibString.sol\";\r\nimport \"./libs/LibAddress.sol\";\r\nimport \"./libs/LibUint.sol\";\r\nimport \"./libs/LibStakingMath.sol\";\r\nimport \"./IRariMine.sol\";\r\nimport \"./IStaking.sol\";\r\nimport \"./IERC20Read.sol\";\r\n\r\ncontract RariMineV3 is OwnableUpgradeable, IRariMine, IERC20Read {\r\n    using SafeMathUpgradeable for uint;\r\n    using LibString for string;\r\n    using LibUint for uint;\r\n    using LibAddress for address;\r\n\r\n    IERC20Upgradeable public token;\r\n    address public tokenOwner;\r\n    IStaking public staking;\r\n    string private _name;\r\n    string private _symbol;\r\n    uint8 private _decimals;\r\n    uint256 private _totalSupply;\r\n\r\n    uint256 constant CLAIM_FORMULA_STAKE   = 60000000;  // 60% to stake\r\n    uint256 constant CLAIM_FORMULA_CLAIM   = 40000000;  // 40% to withdraw\r\n    uint256 constant CLAIM_FORMULA_DIVIDER = 100000000; //  \r\n    uint256 constant CLAIM_CLIFF_WEEKS     = 42;        // the meaning of life, the universe, and everything\r\n    uint256 constant CLAIM_SLOPE_WEEKS     = 42;        // the meaning of life, the universe, and everything\r\n\r\n    mapping(address => uint) public claimed;\r\n\r\n    function __RariMineV3_init(IERC20Upgradeable _token, address _tokenOwner, IStaking _staking) external initializer {\r\n        __RariMineV3_init_unchained(_token, _tokenOwner, _staking);\r\n        __Ownable_init_unchained();\r\n        __Context_init_unchained();\r\n    }\r\n\r\n    function __RariMineV3_init_unchained(IERC20Upgradeable _token, address _tokenOwner, IStaking _staking) internal initializer {\r\n        token = _token;\r\n        tokenOwner = _tokenOwner;\r\n        staking = _staking;\r\n        _decimals = 18;\r\n        _name = \"Rari Mine Claimed Tokens\";\r\n        _symbol = \"RariMine\";\r\n    }\r\n\r\n    function claim(Balance memory _balance, uint8 v, bytes32 r, bytes32 s) public {\r\n        require(prepareMessage(_balance, address(this)).recover(v, r, s) == owner(), \"owner should sign balances\");\r\n\r\n        address recipient = _balance.recipient;\r\n        if (_msgSender() == recipient) {\r\n            uint toClaim = _balance.value.sub(claimed[recipient]);\r\n            require(toClaim > 0, \"nothing to claim\");\r\n            claimed[recipient] += _balance.value;\r\n            _totalSupply += _balance.value;\r\n\r\n            // claim rari tokens\r\n            uint claimAmount = toClaim.mul(CLAIM_FORMULA_CLAIM).div(CLAIM_FORMULA_DIVIDER);\r\n            require(token.transferFrom(tokenOwner, _msgSender(), toClaim), \"transfer is not successful\");\r\n            emit Claim(recipient, claimAmount);\r\n            emit Value(recipient, _balance.value);\r\n\r\n            // stake some tokens\r\n            uint stakeAmount = toClaim.sub(claimAmount);\r\n            uint slope = LibStakingMath.divUp(stakeAmount, CLAIM_SLOPE_WEEKS);\r\n            token.approve(address(staking), stakeAmount);\r\n            staking.stake(_msgSender(), _msgSender(), stakeAmount, slope, CLAIM_CLIFF_WEEKS);\r\n            return;\r\n        }\r\n        \r\n        revert(\"_msgSender() is not the receipient\");\r\n    }\r\n\r\n    function doOverride(Balance[] memory _balances) public onlyOwner {\r\n        for (uint i = 0; i < _balances.length; i++) {\r\n            claimed[_balances[i].recipient] = _balances[i].value;\r\n            emit Value(_balances[i].recipient, _balances[i].value);\r\n        }\r\n    }\r\n\r\n    function prepareMessage(Balance memory _balance, address _address) internal pure returns (string memory) {\r\n        uint256 id;\r\n        assembly {\r\n            id := chainid()\r\n        }\r\n        return toString(keccak256(abi.encode(_balance, _address, id)));\r\n    }\r\n\r\n    function toString(bytes32 value) internal pure returns (string memory) {\r\n        bytes memory alphabet = \"0123456789abcdef\";\r\n        bytes memory str = new bytes(64);\r\n        for (uint256 i = 0; i < 32; i++) {\r\n            str[i*2] = alphabet[uint8(value[i] >> 4)];\r\n            str[1+i*2] = alphabet[uint8(value[i] & 0x0f)];\r\n        }\r\n        return string(str);\r\n    }\r\n\r\n    /**\r\n     * @dev Returns the amount of tokens of released to the users.\r\n     */\r\n    function totalSupply() external override view returns (uint256) {\r\n        return _totalSupply;\r\n    }\r\n    /**\r\n     * @dev Returns the amount of tokens owned by `account`.\r\n     */\r\n    function balanceOf(address account) external override view returns (uint256) {\r\n        return claimed[account];\r\n    }\r\n\r\n    /**\r\n     * @dev Returns the token name.\r\n     */\r\n    function name() public override view returns (string memory) {\r\n        return _name;\r\n    }\r\n\r\n    /**\r\n     * @dev Returns the token decimals.\r\n     */\r\n    function decimals() public override view returns (uint8) {\r\n        return _decimals;\r\n    }\r\n\r\n    /**\r\n     * @dev Returns the token symbol.\r\n     */\r\n    function symbol() public override view returns (string memory) {\r\n        return _symbol;\r\n    }\r\n\r\n    uint256[48] private __gap;\r\n}",
  "sourcePath": "C:\\rarible\\protocol-contracts\\staking\\contracts\\RariMineV3.sol",
  "compiler": {
    "name": "solc",
    "version": "0.7.6+commit.7338295f.Emscripten.clang"
  },
  "schemaVersion": "3.4.3",
  "updatedAt": "2022-10-03T16:35:58.606Z",
  "devdoc": {
    "kind": "dev",
    "methods": {
      "balanceOf(address)": {
        "details": "Returns the amount of tokens owned by `account`."
      },
      "decimals()": {
        "details": "Returns the token decimals."
      },
      "name()": {
        "details": "Returns the token name."
      },
      "owner()": {
        "details": "Returns the address of the current owner."
      },
      "renounceOwnership()": {
        "details": "Leaves the contract without owner. It will not be possible to call `onlyOwner` functions anymore. Can only be called by the current owner. NOTE: Renouncing ownership will leave the contract without an owner, thereby removing any functionality that is only available to the owner."
      },
      "symbol()": {
        "details": "Returns the token symbol."
      },
      "totalSupply()": {
        "details": "Returns the amount of tokens of released to the users."
      },
      "transferOwnership(address)": {
        "details": "Transfers ownership of the contract to a new account (`newOwner`). Can only be called by the current owner."
      }
    },
    "version": 1
  },
  "userdoc": {
    "kind": "user",
    "methods": {},
    "version": 1
  }
}