{
  "contractName": "RariMineV3",
  "abi": [
    {
      "anonymous": false,
      "inputs": [
        {
          "indexed": true,
          "internalType": "address",
          "name": "owner",
          "type": "address"
        },
        {
          "indexed": false,
          "internalType": "uint256",
          "name": "value",
          "type": "uint256"
        }
      ],
      "name": "Claim",
      "type": "event"
    },
    {
      "anonymous": false,
      "inputs": [
        {
          "indexed": true,
          "internalType": "address",
          "name": "previousOwner",
          "type": "address"
        },
        {
          "indexed": true,
          "internalType": "address",
          "name": "newOwner",
          "type": "address"
        }
      ],
      "name": "OwnershipTransferred",
      "type": "event"
    },
    {
      "anonymous": false,
      "inputs": [
        {
          "indexed": true,
          "internalType": "address",
          "name": "owner",
          "type": "address"
        },
        {
          "indexed": false,
          "internalType": "uint256",
          "name": "value",
          "type": "uint256"
        }
      ],
      "name": "Value",
      "type": "event"
    },
    {
      "inputs": [],
      "name": "VERSION",
      "outputs": [
        {
          "internalType": "uint8",
          "name": "",
          "type": "uint8"
        }
      ],
      "stateMutability": "view",
      "type": "function"
    },
    {
      "inputs": [
        {
          "internalType": "address",
          "name": "",
          "type": "address"
        }
      ],
      "name": "claimed",
      "outputs": [
        {
          "internalType": "uint256",
          "name": "",
          "type": "uint256"
        }
      ],
      "stateMutability": "view",
      "type": "function"
    },
    {
      "inputs": [],
      "name": "owner",
      "outputs": [
        {
          "internalType": "address",
          "name": "",
          "type": "address"
        }
      ],
      "stateMutability": "view",
      "type": "function"
    },
    {
      "inputs": [],
      "name": "renounceOwnership",
      "outputs": [],
      "stateMutability": "nonpayable",
      "type": "function"
    },
    {
      "inputs": [],
      "name": "staking",
      "outputs": [
        {
          "internalType": "contract IStaking",
          "name": "",
          "type": "address"
        }
      ],
      "stateMutability": "view",
      "type": "function"
    },
    {
      "inputs": [],
      "name": "token",
      "outputs": [
        {
          "internalType": "contract IERC20Upgradeable",
          "name": "",
          "type": "address"
        }
      ],
      "stateMutability": "view",
      "type": "function"
    },
    {
      "inputs": [],
      "name": "tokenOwner",
      "outputs": [
        {
          "internalType": "address",
          "name": "",
          "type": "address"
        }
      ],
      "stateMutability": "view",
      "type": "function"
    },
    {
      "inputs": [
        {
          "internalType": "address",
          "name": "newOwner",
          "type": "address"
        }
      ],
      "name": "transferOwnership",
      "outputs": [],
      "stateMutability": "nonpayable",
      "type": "function"
    },
    {
      "inputs": [
        {
          "internalType": "contract IERC20Upgradeable",
          "name": "_token",
          "type": "address"
        },
        {
          "internalType": "address",
          "name": "_tokenOwner",
          "type": "address"
        },
        {
          "internalType": "contract IStaking",
          "name": "_staking",
          "type": "address"
        }
      ],
      "name": "__RariMineV3_init",
      "outputs": [],
      "stateMutability": "nonpayable",
      "type": "function"
    },
    {
      "inputs": [
        {
          "components": [
            {
              "internalType": "address",
              "name": "recipient",
              "type": "address"
            },
            {
              "internalType": "uint256",
              "name": "value",
              "type": "uint256"
            }
          ],
          "internalType": "struct IRariMine.Balance",
          "name": "_balance",
          "type": "tuple"
        },
        {
          "internalType": "uint8",
          "name": "v",
          "type": "uint8"
        },
        {
          "internalType": "bytes32",
          "name": "r",
          "type": "bytes32"
        },
        {
          "internalType": "bytes32",
          "name": "s",
          "type": "bytes32"
        }
      ],
      "name": "claim",
      "outputs": [],
      "stateMutability": "nonpayable",
      "type": "function"
    },
    {
      "inputs": [
        {
          "components": [
            {
              "internalType": "address",
              "name": "recipient",
              "type": "address"
            },
            {
              "internalType": "uint256",
              "name": "value",
              "type": "uint256"
            }
          ],
          "internalType": "struct IRariMine.Balance[]",
          "name": "_balances",
          "type": "tuple[]"
        }
      ],
      "name": "doOverride",
      "outputs": [],
      "stateMutability": "nonpayable",
      "type": "function"
    },
    {
      "inputs": [],
      "name": "totalSupply",
      "outputs": [
        {
          "internalType": "uint256",
          "name": "",
          "type": "uint256"
        }
      ],
      "stateMutability": "view",
      "type": "function"
    },
    {
      "inputs": [
        {
          "internalType": "address",
          "name": "account",
          "type": "address"
        }
      ],
      "name": "balanceOf",
      "outputs": [
        {
          "internalType": "uint256",
          "name": "",
          "type": "uint256"
        }
      ],
      "stateMutability": "view",
      "type": "function"
    },
    {
      "inputs": [],
      "name": "name",
      "outputs": [
        {
          "internalType": "string",
          "name": "",
          "type": "string"
        }
      ],
      "stateMutability": "view",
      "type": "function"
    },
    {
      "inputs": [],
      "name": "decimals",
      "outputs": [
        {
          "internalType": "uint8",
          "name": "",
          "type": "uint8"
        }
      ],
      "stateMutability": "view",
      "type": "function"
    },
    {
      "inputs": [],
      "name": "symbol",
      "outputs": [
        {
          "internalType": "string",
          "name": "",
          "type": "string"
        }
      ],
      "stateMutability": "view",
      "type": "function"
    }
  ],
  "bytecode": "0x608060405234801561001057600080fd5b50611c62806100206000396000f3fe608060405234801561001057600080fd5b50600436106101005760003560e01c80638da5cb5b11610097578063eb47d12611610066578063eb47d126146101d0578063f2fde38b146101e3578063fc0c546a146101f6578063ffa1ad74146101fe57610100565b80638da5cb5b146101a557806395d89b41146101ad578063a3e67610146101b5578063c884ef83146101bd57610100565b8063313ce567116100d3578063313ce567146101605780634cf088d91461017557806370a082311461018a578063715018a61461019d57610100565b806306fdde03146101055780630be42fcc146101235780630ecf28e91461013857806318160ddd1461014b575b600080fd5b61010d610206565b60405161011a9190611972565b60405180910390f35b610136610131366004611777565b61029c565b005b61013661014636600461188f565b6103ef565b61015361085e565b60405161011a9190611b67565b610168610864565b60405161011a9190611b70565b61017d61086d565b60405161011a91906118f0565b61015361019836600461175b565b61087c565b61013661089b565b61017d610959565b61010d610968565b61017d6109c9565b6101536101cb36600461175b565b6109d8565b6101366101de366004611845565b6109ea565b6101366101f136600461175b565b610aa9565b61017d610bbe565b610168610bcd565b60688054604080516020601f60026000196101006001881615020190951694909404938401819004810282018101909252828152606093909290918301828280156102925780601f1061026757610100808354040283529160200191610292565b820191906000526020600020905b81548152906001019060200180831161027557829003601f168201915b5050505050905090565b6102a4610bd2565b6001600160a01b03166102b5610959565b6001600160a01b031614610310576040805162461bcd60e51b815260206004820181905260248201527f4f776e61626c653a2063616c6c6572206973206e6f7420746865206f776e6572604482015290519081900360640190fd5b60005b81518110156103eb5781818151811061032857fe5b602002602001015160200151606c600084848151811061034457fe5b6020026020010151600001516001600160a01b03166001600160a01b031681526020019081526020016000208190555081818151811061038057fe5b6020026020010151600001516001600160a01b03167f4fccb55fc57298c6ed3fb8da8e64b2541fe5ef1a07553abb5123c87d2361ccba8383815181106103c257fe5b6020026020010151602001516040516103db9190611b67565b60405180910390a2600101610313565b5050565b6103f7610959565b6001600160a01b03166104188484846104108930610bd6565b929190610c1d565b6001600160a01b0316146104475760405162461bcd60e51b815260040161043e90611a35565b60405180910390fd5b83516001600160a01b03811661045b610bd2565b6001600160a01b03161415610840576001600160a01b0381166000908152606c602090815260408220549087015161049291610d0e565b9050600081116104b45760405162461bcd60e51b815260040161043e906119c5565b602080870180516001600160a01b0385166000908152606c909352604083208054909101905551606b805490910190556105006305f5e1006104fa846302625a00610d6b565b90610dcb565b6065546066549192506001600160a01b03908116916323b872dd9116610524610bd2565b846040518463ffffffff1660e01b815260040161054393929190611935565b602060405180830381600087803b15801561055d57600080fd5b505af1158015610571573d6000803e3d6000fd5b505050506040513d601f19601f820116820180604052508101906105959190611825565b6105b15760405162461bcd60e51b815260040161043e90611aa3565b826001600160a01b03167f47cee97cb7acd717b3c0aa1435d004cd5b3c8c57d70dbceb4e4458bbd60e39d4826040516105ea9190611b67565b60405180910390a2826001600160a01b03167f4fccb55fc57298c6ed3fb8da8e64b2541fe5ef1a07553abb5123c87d2361ccba886020015160405161062f9190611b67565b60405180910390a260006106438383610d0e565b9050600061065282602a610e32565b6065546066546040516323b872dd60e01b81529293506001600160a01b03918216926323b872dd9261068c92169030908790600401611935565b602060405180830381600087803b1580156106a657600080fd5b505af11580156106ba573d6000803e3d6000fd5b505050506040513d601f19601f820116820180604052508101906106de9190611825565b6106fa5760405162461bcd60e51b815260040161043e906119ef565b60655460675460405163095ea7b360e01b81526001600160a01b039283169263095ea7b392610730929116908690600401611959565b602060405180830381600087803b15801561074a57600080fd5b505af115801561075e573d6000803e3d6000fd5b505050506040513d601f19601f820116820180604052508101906107829190611825565b61079e5760405162461bcd60e51b815260040161043e90611a6c565b6067546001600160a01b031663f108fa936107b7610bd2565b6107bf610bd2565b8585602a6040518663ffffffff1660e01b81526004016107e3959493929190611904565b602060405180830381600087803b1580156107fd57600080fd5b505af1158015610811573d6000803e3d6000fd5b505050506040513d601f19601f8201168201806040525081019061083591906118d8565b505050505050610858565b60405162461bcd60e51b815260040161043e90611aeb565b50505050565b606b5490565b606a5460ff1690565b6067546001600160a01b031681565b6001600160a01b0381166000908152606c60205260409020545b919050565b6108a3610bd2565b6001600160a01b03166108b4610959565b6001600160a01b03161461090f576040805162461bcd60e51b815260206004820181905260248201527f4f776e61626c653a2063616c6c6572206973206e6f7420746865206f776e6572604482015290519081900360640190fd5b6033546040516000916001600160a01b0316907f8be0079c531659141344cd1fd0a4f28419497f9722a3daafe3b4186f6b6457e0908390a3603380546001600160a01b0319169055565b6033546001600160a01b031690565b60698054604080516020601f60026000196101006001881615020190951694909404938401819004810282018101909252828152606093909290918301828280156102925780601f1061026757610100808354040283529160200191610292565b6066546001600160a01b031681565b606c6020526000908152604090205481565b600054610100900460ff1680610a035750610a03610e4d565b80610a11575060005460ff16155b610a4c5760405162461bcd60e51b815260040180806020018281038252602e815260200180611bde602e913960400191505060405180910390fd5b600054610100900460ff16158015610a77576000805460ff1961ff0019909116610100171660011790555b610a82848484610e5e565b610a8a610fc3565b610a926110bd565b8015610858576000805461ff001916905550505050565b610ab1610bd2565b6001600160a01b0316610ac2610959565b6001600160a01b031614610b1d576040805162461bcd60e51b815260206004820181905260248201527f4f776e61626c653a2063616c6c6572206973206e6f7420746865206f776e6572604482015290519081900360640190fd5b6001600160a01b038116610b625760405162461bcd60e51b8152600401808060200182810382526026815260200180611bb86026913960400191505060405180910390fd5b6033546040516001600160a01b038084169216907f8be0079c531659141344cd1fd0a4f28419497f9722a3daafe3b4186f6b6457e090600090a3603380546001600160a01b0319166001600160a01b0392909216919091179055565b6065546001600160a01b031681565b600181565b3390565b60606000469050610c138484836001604051602001610bf89493929190611b2d565b6040516020818303038152906040528051906020012061115e565b9150505b92915050565b6000808590506000610c956040518060400160405280601a81526020017f19457468657265756d205369676e6564204d6573736167653a0a000000000000815250610c688451611272565b6040805160008082526020820181815282840182815260608401928352608084019094528893909161134a565b90506001818051906020012087878760405160008152602001604052604051808581526020018460ff1681526020018381526020018281526020019450505050506020604051602081039080840390855afa158015610cf8573d6000803e3d6000fd5b5050604051601f19015198975050505050505050565b600082821115610d65576040805162461bcd60e51b815260206004820152601e60248201527f536166654d6174683a207375627472616374696f6e206f766572666c6f770000604482015290519081900360640190fd5b50900390565b600082610d7a57506000610c17565b82820282848281610d8757fe5b0414610dc45760405162461bcd60e51b8152600401808060200182810382526021815260200180611c0c6021913960400191505060405180910390fd5b9392505050565b6000808211610e21576040805162461bcd60e51b815260206004820152601a60248201527f536166654d6174683a206469766973696f6e206279207a65726f000000000000604482015290519081900360640190fd5b818381610e2a57fe5b049392505050565b6000610dc46001610e47846104fa8784610d0e565b90611608565b6000610e5830611662565b15905090565b600054610100900460ff1680610e775750610e77610e4d565b80610e85575060005460ff16155b610ec05760405162461bcd60e51b815260040180806020018281038252602e815260200180611bde602e913960400191505060405180910390fd5b600054610100900460ff16158015610eeb576000805460ff1961ff0019909116610100171660011790555b606580546001600160a01b038087166001600160a01b031992831617909255606680548684169083161790556067805492851692909116919091179055606a805460ff191660121790556040805180820190915260188082527f52617269204d696e6520436c61696d656420546f6b656e7300000000000000006020909201918252610f7991606891611668565b5060408051808201909152600a8082526914985c9a535a5b9950d560b21b6020909201918252610fab91606991611668565b508015610858576000805461ff001916905550505050565b600054610100900460ff1680610fdc5750610fdc610e4d565b80610fea575060005460ff16155b6110255760405162461bcd60e51b815260040180806020018281038252602e815260200180611bde602e913960400191505060405180910390fd5b600054610100900460ff16158015611050576000805460ff1961ff0019909116610100171660011790555b600061105a610bd2565b603380546001600160a01b0319166001600160a01b038316908117909155604051919250906000907f8be0079c531659141344cd1fd0a4f28419497f9722a3daafe3b4186f6b6457e0908290a35080156110ba576000805461ff00191690555b50565b600054610100900460ff16806110d657506110d6610e4d565b806110e4575060005460ff16155b61111f5760405162461bcd60e51b815260040180806020018281038252602e815260200180611bde602e913960400191505060405180910390fd5b600054610100900460ff1615801561114a576000805460ff1961ff0019909116610100171660011790555b80156110ba576000805461ff001916905550565b604080518082018252601081526f181899199a1a9b1b9c1cb0b131b232b360811b6020820152815182815260608181018452926000919060208201818036833701905050905060005b602081101561126a578260048683602081106111bf57fe5b1a60f81b6001600160f81b031916901c60f81c60ff16815181106111df57fe5b602001015160f81c60f81b8282600202815181106111f957fe5b60200101906001600160f81b031916908160001a9053508285826020811061121d57fe5b825191901a600f1690811061122e57fe5b602001015160f81c60f81b82826002026001018151811061124b57fe5b60200101906001600160f81b031916908160001a9053506001016111a7565b509392505050565b60608161129757506040805180820190915260018152600360fc1b6020820152610896565b8160005b81156112af57600101600a8204915061129b565b60008167ffffffffffffffff811180156112c857600080fd5b506040519080825280601f01601f1916602001820160405280156112f3576020820181803683370190505b50905060001982015b851561134157600a860660300160f81b8282806001900393508151811061131f57fe5b60200101906001600160f81b031916908160001a905350600a860495506112fc565b50949350505050565b6060600082518451865188518a518c518e5101010101010167ffffffffffffffff8111801561137857600080fd5b506040519080825280601f01601f1916602001820160405280156113a3576020820181803683370190505b5090506000805b8a518110156113fb578a81815181106113bf57fe5b602001015160f81c60f81b8383806001019450815181106113dc57fe5b60200101906001600160f81b031916908160001a9053506001016113aa565b5060005b89518110156114505789818151811061141457fe5b602001015160f81c60f81b83838060010194508151811061143157fe5b60200101906001600160f81b031916908160001a9053506001016113ff565b5060005b88518110156114a55788818151811061146957fe5b602001015160f81c60f81b83838060010194508151811061148657fe5b60200101906001600160f81b031916908160001a905350600101611454565b5060005b87518110156114fa578781815181106114be57fe5b602001015160f81c60f81b8383806001019450815181106114db57fe5b60200101906001600160f81b031916908160001a9053506001016114a9565b5060005b865181101561154f5786818151811061151357fe5b602001015160f81c60f81b83838060010194508151811061153057fe5b60200101906001600160f81b031916908160001a9053506001016114fe565b5060005b85518110156115a45785818151811061156857fe5b602001015160f81c60f81b83838060010194508151811061158557fe5b60200101906001600160f81b031916908160001a905350600101611553565b5060005b84518110156115f9578481815181106115bd57fe5b602001015160f81c60f81b8383806001019450815181106115da57fe5b60200101906001600160f81b031916908160001a9053506001016115a8565b50909998505050505050505050565b600082820183811015610dc4576040805162461bcd60e51b815260206004820152601b60248201527f536166654d6174683a206164646974696f6e206f766572666c6f770000000000604482015290519081900360640190fd5b3b151590565b828054600181600116156101000203166002900490600052602060002090601f01602090048101928261169e57600085556116e4565b82601f106116b757805160ff19168380011785556116e4565b828001600101855582156116e4579182015b828111156116e45782518255916020019190600101906116c9565b506116f09291506116f4565b5090565b5b808211156116f057600081556001016116f5565b60006040828403121561171a578081fd5b6040516040810181811067ffffffffffffffff8211171561173757fe5b604052905080823561174881611ba2565b8152602092830135920191909152919050565b60006020828403121561176c578081fd5b8135610dc481611ba2565b60006020808385031215611789578182fd5b823567ffffffffffffffff808211156117a0578384fd5b818501915085601f8301126117b3578384fd5b8135818111156117bf57fe5b6117cc8485830201611b7e565b81815284810192508385016040808402860187018a10156117eb578788fd5b8795505b83861015611817576118018a83611709565b85526001959095019493860193908101906117ef565b509098975050505050505050565b600060208284031215611836578081fd5b81518015158114610dc4578182fd5b600080600060608486031215611859578182fd5b833561186481611ba2565b9250602084013561187481611ba2565b9150604084013561188481611ba2565b809150509250925092565b60008060008060a085870312156118a4578081fd5b6118ae8686611709565b9350604085013560ff811681146118c3578182fd5b93969395505050506060820135916080013590565b6000602082840312156118e9578081fd5b5051919050565b6001600160a01b0391909116815260200190565b6001600160a01b03958616815293909416602084015260408301919091526060820152608081019190915260a00190565b6001600160a01b039384168152919092166020820152604081019190915260600190565b6001600160a01b03929092168252602082015260400190565b6000602080835283518082850152825b8181101561199e57858101830151858201604001528201611982565b818111156119af5783604083870101525b50601f01601f1916929092016040019392505050565b60208082526010908201526f6e6f7468696e6720746f20636c61696d60801b604082015260600190565b60208082526026908201527f7472616e7366657220746f20526172694d696e65206973206e6f742073756363604082015265195cdcd99d5b60d21b606082015260800190565b6020808252601a908201527f6f776e65722073686f756c64207369676e2062616c616e636573000000000000604082015260600190565b60208082526019908201527f617070726f7665206973206e6f74207375636365737366756c00000000000000604082015260600190565b60208082526028908201527f7472616e7366657220746f206d73672073656e646572206973206e6f7420737560408201526718d8d95cdcd99d5b60c21b606082015260800190565b60208082526022908201527f5f6d736753656e6465722829206973206e6f74207468652072656365697069656040820152611b9d60f21b606082015260800190565b84516001600160a01b03908116825260209586015195820195909552929093166040830152606082015260ff909116608082015260a00190565b90815260200190565b60ff91909116815260200190565b60405181810167ffffffffffffffff81118282101715611b9a57fe5b604052919050565b6001600160a01b03811681146110ba57600080fdfe4f776e61626c653a206e6577206f776e657220697320746865207a65726f2061646472657373496e697469616c697a61626c653a20636f6e747261637420697320616c726561647920696e697469616c697a6564536166654d6174683a206d756c7469706c69636174696f6e206f766572666c6f77a26469706673582212209c01fd412aa67b4e45d34b591e5a57c7e14360c5864ea2d538349b013a3312f764736f6c63430007060033",
  "immutableReferences": {},
  "source": "// SPDX-License-Identifier: MIT\r\n\r\n/**\r\n *Submitted for verification at Etherscan.io on 2020-07-20\r\n*/\r\n\r\npragma solidity 0.7.6;\r\npragma abicoder v2;\r\n\r\nimport \"@openzeppelin/contracts-upgradeable/access/OwnableUpgradeable.sol\";\r\nimport \"@openzeppelin/contracts-upgradeable/utils/AddressUpgradeable.sol\";\r\nimport \"@openzeppelin/contracts-upgradeable/token/ERC20/IERC20Upgradeable.sol\";\r\n\r\nimport \"./libs/LibString.sol\";\r\nimport \"./libs/LibAddress.sol\";\r\nimport \"./libs/LibUint.sol\";\r\nimport \"./libs/LibStakingMath.sol\";\r\nimport \"./IRariMine.sol\";\r\nimport \"./IStaking.sol\";\r\nimport \"./IERC20Read.sol\";\r\n\r\ncontract RariMineV3 is OwnableUpgradeable, IRariMine, IERC20Read {\r\n    using SafeMathUpgradeable for uint;\r\n    using LibString for string;\r\n    using LibUint for uint;\r\n    using LibAddress for address;\r\n\r\n    IERC20Upgradeable public token;\r\n    address           public tokenOwner;\r\n    IStaking          public staking;\r\n\r\n    string   private _name;\r\n    string   private _symbol;\r\n    uint8    private _decimals;\r\n    uint256  private _totalSupply;\r\n\r\n    uint256 constant CLAIM_FORMULA_STAKE   = 60000000;  // 60% to stake\r\n    uint256 constant CLAIM_FORMULA_CLAIM   = 40000000;  // 40% to withdraw\r\n    uint256 constant CLAIM_FORMULA_DIVIDER = 100000000; //  \r\n    uint256 constant CLAIM_CLIFF_WEEKS     = 42;        // the meaning of life, the universe, and everything\r\n    uint256 constant CLAIM_SLOPE_WEEKS     = 42;        // the meaning of life, the universe, and everything\r\n    uint8   public constant VERSION               = 1;\r\n\r\n    mapping(address => uint) public claimed;\r\n\r\n    function __RariMineV3_init(IERC20Upgradeable _token, address _tokenOwner, IStaking _staking) external initializer {\r\n        __RariMineV3_init_unchained(_token, _tokenOwner, _staking);\r\n        __Ownable_init_unchained();\r\n        __Context_init_unchained();\r\n    }\r\n\r\n    function __RariMineV3_init_unchained(IERC20Upgradeable _token, address _tokenOwner, IStaking _staking) internal initializer {\r\n        token = _token;\r\n        tokenOwner = _tokenOwner;\r\n        staking = _staking;\r\n        _decimals = 18;\r\n        _name = \"Rari Mine Claimed Tokens\";\r\n        _symbol = \"RariMineCT\";\r\n    }\r\n\r\n    function claim(Balance memory _balance, uint8 v, bytes32 r, bytes32 s) public {\r\n        require(prepareMessage(_balance, address(this)).recover(v, r, s) == owner(), \"owner should sign balances\");\r\n\r\n        address recipient = _balance.recipient;\r\n        if (_msgSender() == recipient) {\r\n            uint toClaim = _balance.value.sub(claimed[recipient]);\r\n            require(toClaim > 0, \"nothing to claim\");\r\n            claimed[recipient] += _balance.value;\r\n            _totalSupply += _balance.value;\r\n\r\n            // claim rari tokens\r\n            uint claimAmount = toClaim.mul(CLAIM_FORMULA_CLAIM).div(CLAIM_FORMULA_DIVIDER);\r\n            require(token.transferFrom(tokenOwner, _msgSender(), claimAmount), \"transfer to msg sender is not successful\");\r\n            emit Claim(recipient, claimAmount);\r\n            emit Value(recipient, _balance.value);\r\n\r\n            // stake some tokens\r\n            uint stakeAmount = toClaim.sub(claimAmount);\r\n            uint slope = LibStakingMath.divUp(stakeAmount, CLAIM_SLOPE_WEEKS);\r\n            require(token.transferFrom(tokenOwner, address(this), stakeAmount), \"transfer to RariMine is not successful\");\r\n            require(token.approve(address(staking), stakeAmount), \"approve is not successful\");\r\n            staking.stake(_msgSender(), _msgSender(), stakeAmount, slope, CLAIM_CLIFF_WEEKS);\r\n            return;\r\n        }\r\n        \r\n        revert(\"_msgSender() is not the receipient\");\r\n    }\r\n\r\n    function doOverride(Balance[] memory _balances) public onlyOwner {\r\n        for (uint i = 0; i < _balances.length; i++) {\r\n            claimed[_balances[i].recipient] = _balances[i].value;\r\n            emit Value(_balances[i].recipient, _balances[i].value);\r\n        }\r\n    }\r\n\r\n    function prepareMessage(Balance memory _balance, address _address) internal pure returns (string memory) {\r\n        uint256 id;\r\n        assembly {\r\n            id := chainid()\r\n        }\r\n        return toString(keccak256(abi.encode(_balance, _address, id, VERSION)));\r\n    }\r\n\r\n    function toString(bytes32 value) internal pure returns (string memory) {\r\n        bytes memory alphabet = \"0123456789abcdef\";\r\n        bytes memory str = new bytes(64);\r\n        for (uint256 i = 0; i < 32; i++) {\r\n            str[i*2] = alphabet[uint8(value[i] >> 4)];\r\n            str[1+i*2] = alphabet[uint8(value[i] & 0x0f)];\r\n        }\r\n        return string(str);\r\n    }\r\n\r\n    /**\r\n     * @dev Returns the amount of tokens of released to the users.\r\n     */\r\n    function totalSupply() external override view returns (uint256) {\r\n        return _totalSupply;\r\n    }\r\n    /**\r\n     * @dev Returns the amount of tokens owned by `account`.\r\n     */\r\n    function balanceOf(address account) external override view returns (uint256) {\r\n        return claimed[account];\r\n    }\r\n\r\n    /**\r\n     * @dev Returns the token name.\r\n     */\r\n    function name() public override view returns (string memory) {\r\n        return _name;\r\n    }\r\n\r\n    /**\r\n     * @dev Returns the token decimals.\r\n     */\r\n    function decimals() public override view returns (uint8) {\r\n        return _decimals;\r\n    }\r\n\r\n    /**\r\n     * @dev Returns the token symbol.\r\n     */\r\n    function symbol() public override view returns (string memory) {\r\n        return _symbol;\r\n    }\r\n\r\n    uint256[48] private __gap;\r\n}",
  "sourcePath": "C:\\rarible\\protocol-contracts\\staking\\contracts\\RariMineV3.sol",
  "compiler": {
    "name": "solc",
    "version": "0.7.6+commit.7338295f.Emscripten.clang"
  },
  "schemaVersion": "3.4.3",
  "updatedAt": "2022-10-04T17:22:36.003Z",
  "devdoc": {
    "kind": "dev",
    "methods": {
      "balanceOf(address)": {
        "details": "Returns the amount of tokens owned by `account`."
      },
      "decimals()": {
        "details": "Returns the token decimals."
      },
      "name()": {
        "details": "Returns the token name."
      },
      "owner()": {
        "details": "Returns the address of the current owner."
      },
      "renounceOwnership()": {
        "details": "Leaves the contract without owner. It will not be possible to call `onlyOwner` functions anymore. Can only be called by the current owner. NOTE: Renouncing ownership will leave the contract without an owner, thereby removing any functionality that is only available to the owner."
      },
      "symbol()": {
        "details": "Returns the token symbol."
      },
      "totalSupply()": {
        "details": "Returns the amount of tokens of released to the users."
      },
      "transferOwnership(address)": {
        "details": "Transfers ownership of the contract to a new account (`newOwner`). Can only be called by the current owner."
      }
    },
    "version": 1
  },
  "userdoc": {
    "kind": "user",
    "methods": {},
    "version": 1
  }
}