{
  "contractName": "StakingRestake",
  "abi": [
    {
      "anonymous": false,
      "inputs": [
        {
          "indexed": true,
          "internalType": "uint256",
          "name": "id",
          "type": "uint256"
        },
        {
          "indexed": true,
          "internalType": "address",
          "name": "account",
          "type": "address"
        },
        {
          "indexed": true,
          "internalType": "address",
          "name": "delegate",
          "type": "address"
        },
        {
          "indexed": false,
          "internalType": "uint256",
          "name": "time",
          "type": "uint256"
        }
      ],
      "name": "Delegate",
      "type": "event"
    },
    {
      "anonymous": false,
      "inputs": [
        {
          "indexed": true,
          "internalType": "address",
          "name": "account",
          "type": "address"
        },
        {
          "indexed": false,
          "internalType": "uint256[]",
          "name": "id",
          "type": "uint256[]"
        }
      ],
      "name": "Migrate",
      "type": "event"
    },
    {
      "anonymous": false,
      "inputs": [
        {
          "indexed": true,
          "internalType": "address",
          "name": "previousOwner",
          "type": "address"
        },
        {
          "indexed": true,
          "internalType": "address",
          "name": "newOwner",
          "type": "address"
        }
      ],
      "name": "OwnershipTransferred",
      "type": "event"
    },
    {
      "anonymous": false,
      "inputs": [
        {
          "indexed": true,
          "internalType": "uint256",
          "name": "id",
          "type": "uint256"
        },
        {
          "indexed": true,
          "internalType": "address",
          "name": "account",
          "type": "address"
        },
        {
          "indexed": true,
          "internalType": "address",
          "name": "delegate",
          "type": "address"
        },
        {
          "indexed": false,
          "internalType": "uint256",
          "name": "counter",
          "type": "uint256"
        },
        {
          "indexed": false,
          "internalType": "uint256",
          "name": "time",
          "type": "uint256"
        },
        {
          "indexed": false,
          "internalType": "uint256",
          "name": "amount",
          "type": "uint256"
        },
        {
          "indexed": false,
          "internalType": "uint256",
          "name": "slope",
          "type": "uint256"
        },
        {
          "indexed": false,
          "internalType": "uint256",
          "name": "cliff",
          "type": "uint256"
        }
      ],
      "name": "Restake",
      "type": "event"
    },
    {
      "anonymous": false,
      "inputs": [
        {
          "indexed": true,
          "internalType": "uint256",
          "name": "newMinCliffPeriod",
          "type": "uint256"
        }
      ],
      "name": "SetMinCliffPeriod",
      "type": "event"
    },
    {
      "anonymous": false,
      "inputs": [
        {
          "indexed": true,
          "internalType": "uint256",
          "name": "newMinSlopePeriod",
          "type": "uint256"
        }
      ],
      "name": "SetMinSlopePeriod",
      "type": "event"
    },
    {
      "anonymous": false,
      "inputs": [
        {
          "indexed": true,
          "internalType": "uint256",
          "name": "id",
          "type": "uint256"
        },
        {
          "indexed": true,
          "internalType": "address",
          "name": "account",
          "type": "address"
        },
        {
          "indexed": true,
          "internalType": "address",
          "name": "delegate",
          "type": "address"
        },
        {
          "indexed": false,
          "internalType": "uint256",
          "name": "time",
          "type": "uint256"
        },
        {
          "indexed": false,
          "internalType": "uint256",
          "name": "amount",
          "type": "uint256"
        },
        {
          "indexed": false,
          "internalType": "uint256",
          "name": "slope",
          "type": "uint256"
        },
        {
          "indexed": false,
          "internalType": "uint256",
          "name": "cliff",
          "type": "uint256"
        }
      ],
      "name": "StakeCreate",
      "type": "event"
    },
    {
      "anonymous": false,
      "inputs": [
        {
          "indexed": true,
          "internalType": "address",
          "name": "account",
          "type": "address"
        },
        {
          "indexed": true,
          "internalType": "address",
          "name": "to",
          "type": "address"
        }
      ],
      "name": "StartMigration",
      "type": "event"
    },
    {
      "anonymous": false,
      "inputs": [
        {
          "indexed": true,
          "internalType": "address",
          "name": "account",
          "type": "address"
        }
      ],
      "name": "StopStaking",
      "type": "event"
    },
    {
      "anonymous": false,
      "inputs": [
        {
          "indexed": true,
          "internalType": "address",
          "name": "account",
          "type": "address"
        },
        {
          "indexed": false,
          "internalType": "uint256",
          "name": "amount",
          "type": "uint256"
        }
      ],
      "name": "Withdraw",
      "type": "event"
    },
    {
      "inputs": [],
      "name": "counter",
      "outputs": [
        {
          "internalType": "uint256",
          "name": "",
          "type": "uint256"
        }
      ],
      "stateMutability": "view",
      "type": "function"
    },
    {
      "inputs": [
        {
          "internalType": "uint256",
          "name": "amount",
          "type": "uint256"
        },
        {
          "internalType": "uint256",
          "name": "slope",
          "type": "uint256"
        },
        {
          "internalType": "uint256",
          "name": "cliff",
          "type": "uint256"
        }
      ],
      "name": "getStake",
      "outputs": [
        {
          "internalType": "uint256",
          "name": "stakeAmount",
          "type": "uint256"
        },
        {
          "internalType": "uint256",
          "name": "stakeSlope",
          "type": "uint256"
        }
      ],
      "stateMutability": "view",
      "type": "function"
    },
    {
      "inputs": [],
      "name": "migrateTo",
      "outputs": [
        {
          "internalType": "address",
          "name": "",
          "type": "address"
        }
      ],
      "stateMutability": "view",
      "type": "function"
    },
    {
      "inputs": [],
      "name": "minCliffPeriod",
      "outputs": [
        {
          "internalType": "uint256",
          "name": "",
          "type": "uint256"
        }
      ],
      "stateMutability": "view",
      "type": "function"
    },
    {
      "inputs": [],
      "name": "minSlopePeriod",
      "outputs": [
        {
          "internalType": "uint256",
          "name": "",
          "type": "uint256"
        }
      ],
      "stateMutability": "view",
      "type": "function"
    },
    {
      "inputs": [],
      "name": "owner",
      "outputs": [
        {
          "internalType": "address",
          "name": "",
          "type": "address"
        }
      ],
      "stateMutability": "view",
      "type": "function"
    },
    {
      "inputs": [],
      "name": "renounceOwnership",
      "outputs": [],
      "stateMutability": "nonpayable",
      "type": "function"
    },
    {
      "inputs": [],
      "name": "stopped",
      "outputs": [
        {
          "internalType": "bool",
          "name": "",
          "type": "bool"
        }
      ],
      "stateMutability": "view",
      "type": "function"
    },
    {
      "inputs": [],
      "name": "token",
      "outputs": [
        {
          "internalType": "contract IERC20Upgradeable",
          "name": "",
          "type": "address"
        }
      ],
      "stateMutability": "view",
      "type": "function"
    },
    {
      "inputs": [],
      "name": "totalSupplyLine",
      "outputs": [
        {
          "components": [
            {
              "internalType": "uint256",
              "name": "start",
              "type": "uint256"
            },
            {
              "internalType": "uint256",
              "name": "bias",
              "type": "uint256"
            },
            {
              "internalType": "uint256",
              "name": "slope",
              "type": "uint256"
            }
          ],
          "internalType": "struct LibBrokenLine.Line",
          "name": "initial",
          "type": "tuple"
        }
      ],
      "stateMutability": "view",
      "type": "function"
    },
    {
      "inputs": [
        {
          "internalType": "address",
          "name": "newOwner",
          "type": "address"
        }
      ],
      "name": "transferOwnership",
      "outputs": [],
      "stateMutability": "nonpayable",
      "type": "function"
    },
    {
      "inputs": [
        {
          "internalType": "uint256",
          "name": "id",
          "type": "uint256"
        },
        {
          "internalType": "address",
          "name": "newDelegate",
          "type": "address"
        },
        {
          "internalType": "uint256",
          "name": "newAmount",
          "type": "uint256"
        },
        {
          "internalType": "uint256",
          "name": "newSlope",
          "type": "uint256"
        },
        {
          "internalType": "uint256",
          "name": "newCliff",
          "type": "uint256"
        }
      ],
      "name": "restake",
      "outputs": [
        {
          "internalType": "uint256",
          "name": "",
          "type": "uint256"
        }
      ],
      "stateMutability": "nonpayable",
      "type": "function"
    }
  ],
  "bytecode": "0x608060405234801561001057600080fd5b506119fd806100206000396000f3fe608060405234801561001057600080fd5b50600436106100b45760003560e01c806398c6e7601161007157806398c6e76014610126578063b53546ab1461012e578063b623163314610143578063f2fde38b1461014b578063fc0c546a1461015e578063fecf0fdd14610166576100b4565b806361bc221a146100b957806367c8c473146100d75780636bde67d8146100df578063715018a6146100f257806375f12b21146100fc5780638da5cb5b14610111575b600080fd5b6100c1610187565b6040516100ce9190611901565b60405180910390f35b6100c161018d565b6100c16100ed36600461143d565b610193565b6100fa61030f565b005b6101046103cd565b6040516100ce91906114e5565b6101196103d6565b6040516100ce91906114ad565b6101196103e5565b6101366103f9565b6040516100ce91906118e0565b6100c161041d565b6100fa610159366004611403565b610423565b610119610538565b610179610174366004611482565b610547565b6040516100ce92919061190a565b60665481565b60685481565b60675460009060ff16156101c25760405162461bcd60e51b81526004016101b99061187c565b60405180910390fd5b60675461010090046001600160a01b0316156101f05760405162461bcd60e51b81526004016101b9906116ac565b60006101fb8761063a565b9050600061020f61020a610676565b61067a565b905061021f828988888886610698565b6000888152606b60209081526040808320600101546001600160a01b038681168552606a90935292209116906102589060060183610854565b6001600160a01b0383166000908152606a60205260408120600a0154906102818b86858761091e565b90506102908b8684848d610994565b6066805460010190556102a7858b8b8b8b89610b02565b896001600160a01b0316856001600160a01b03168c7fed21ca2fb4312d282540746b7f00899205aee2bd522dcbb837405aea6a92b52a606654888e8e8e6040516102f5959493929190611918565b60405180910390a450506066549998505050505050505050565b610317610c0b565b6001600160a01b03166103286103d6565b6001600160a01b031614610383576040805162461bcd60e51b815260206004820181905260248201527f4f776e61626c653a2063616c6c6572206973206e6f7420746865206f776e6572604482015290519081900360640190fd5b6033546040516000916001600160a01b0316907f8be0079c531659141344cd1fd0a4f28419497f9722a3daafe3b4186f6b6457e0908390a3603380546001600160a01b0319169055565b60675460ff1681565b6033546001600160a01b031690565b60675461010090046001600160a01b031681565b60408051606081018252606f54815260705460208201526071549181019190915281565b60695481565b61042b610c0b565b6001600160a01b031661043c6103d6565b6001600160a01b031614610497576040805162461bcd60e51b815260206004820181905260248201527f4f776e61626c653a2063616c6c6572206973206e6f7420746865206f776e6572604482015290519081900360640190fd5b6001600160a01b0381166104dc5760405162461bcd60e51b815260040180806020018281038252602681526020018061193c6026913960400191505060405180910390fd5b6033546040516001600160a01b038084169216907f8be0079c531659141344cd1fd0a4f28419497f9722a3daafe3b4186f6b6457e090600090a3603380546001600160a01b0319166001600160a01b0392909216919091179055565b6065546001600160a01b031681565b60008060006105568686610c0f565b905060685484101561057a5760405162461bcd60e51b81526004016101b9906115ef565b60695481101561059c5760405162461bcd60e51b81526004016101b99061189d565b60006105c86068546068036105c26304cace806068548903610c2b90919063ffffffff16565b90610c84565b905060006105f06069546068036105c26302625a006069548703610c2b90919063ffffffff16565b9050600061060c6301312d006106068585610ceb565b90610ceb565b90506106206305f5e1006105c28b84610c2b565b955061062c8685610c0f565b945050505050935093915050565b6000818152606b60205260409020546001600160a01b03163381146106715760405162461bcd60e51b81526004016101b99061155a565b919050565b4390565b60006106928161068c8461c4e0610c84565b90610d45565b92915050565b600084116106b85760405162461bcd60e51b81526004016101b990611535565b60688211156106d95760405162461bcd60e51b81526004016101b990611591565b60006106e58585610c0f565b905060688111156107085760405162461bcd60e51b81526004016101b99061182c565b6000610718826106068587610ceb565b6001600160a01b0389166000908152606a602090815260408083208b8452600801825291829020825160a0810184528154938101938452600182015460608201819052600283015460808301819052858352600390930154938201939093529394506107849190610c0f565b935060006107a78561060685602001518560000151610ceb90919063ffffffff16565b9050838111156107c95760405162461bcd60e51b81526004016101b9906116cf565b602083015182516000916107dd9190610ceb565b905060006107eb888a610ceb565b9050808211156108455760006108018383610d45565b6020860151909150600061081f610818848f610c2b565b8f90610d45565b9050818110156108415760405162461bcd60e51b81526004016101b9906115b8565b5050505b50505050505050505050505050565b600382015481811415610867575061091a565b600583015460048401548015610907578284116108965760405162461bcd60e51b81526004016101b9906117e7565b83831015610907576108a88183610d45565b600084815260208790526040812054919250906108ce906108c885610da2565b90610da8565b905060008112156108f15760405162461bcd60e51b81526004016101b9906114f0565b9150816108ff846001610ceb565b935050610896565b6003850184905560048501556005840155505b5050565b600061092b848484610e0d565b6001600160a01b0383166000908152606a6020526040902061094e908684610e64565b5061095f9150606c90508684610e64565b5050506001600160a01b0384166000908152606a60205260409020610988906006018684610e64565b50909695505050505050565b808211156109b45760405162461bcd60e51b81526004016101b99061174e565b60006109c08284610d45565b6001600160a01b0386166000908152606a60205260408120600c01549192506109e98287610d45565b905080831115610af85760006109ff8483610d45565b60655460008b8152606b6020526040908190205490516323b872dd60e01b81529293506001600160a01b03918216926323b872dd92610a46921690309086906004016114c1565b602060405180830381600087803b158015610a6057600080fd5b505af1158015610a74573d6000803e3d6000fd5b505050506040513d601f19601f82011682018060405250810190610a98919061141d565b610ab45760405162461bcd60e51b81526004016101b990611853565b6001600160a01b0388166000908152606a60205260409020600c0154610ada9082610ceb565b6001600160a01b0389166000908152606a60205260409020600c0155505b5050505050505050565b610b0d868683610e0d565b600080610b1b868686610547565b604080516060810182528681526020810184905290810182905260665492945090925090610b4d90606c9083886110c2565b6066546001600160a01b0389166000908152606a60205260409020610b739183886110c2565b506040805160608101825284815260208082018990528183018890526066546001600160a01b038c166000908152606a9092529290209091610bba916006019083886110c2565b5050606680546000908152606b602052604080822080546001600160a01b039b8c166001600160a01b0319918216179091559254825290206001018054979098169616959095179095555050505050565b3390565b6000610c246001610606846105c28784610d45565b9392505050565b600082610c3a57506000610692565b82820282848281610c4757fe5b0414610c245760405162461bcd60e51b81526004018080602001828103825260218152602001806119836021913960400191505060405180910390fd5b6000808211610cda576040805162461bcd60e51b815260206004820152601a60248201527f536166654d6174683a206469766973696f6e206279207a65726f000000000000604482015290519081900360640190fd5b818381610ce357fe5b049392505050565b600082820183811015610c24576040805162461bcd60e51b815260206004820152601b60248201527f536166654d6174683a206164646974696f6e206f766572666c6f770000000000604482015290519081900360640190fd5b600082821115610d9c576040805162461bcd60e51b815260206004820152601e60248201527f536166654d6174683a207375627472616374696f6e206f766572666c6f770000604482015290519081900360640190fd5b50900390565b80610671565b6000828201818312801590610dbd5750838112155b80610dd25750600083128015610dd257508381125b610c245760405162461bcd60e51b81526004018080602001828103825260218152602001806119626021913960400191505060405180910390fd5b610e18606c82610854565b6001600160a01b0382166000908152606a60205260409020610e3a9082610854565b6001600160a01b0383166000908152606a60205260409020610e5f9060060182610854565b505050565b6000828152600280850160209081526040808420815160a081018352815492810192835260018201546060820181905294820154608082015291825260030154918101919091528291829190610ecc5760405162461bcd60e51b81526004016101b990611632565b8051610ed88887610854565b8060200151945080604001519350600092506000610f128360200151610606610f0a888a610c8490919063ffffffff16565b855190610ceb565b905080871115610f2c5760009550600094505050506110b9565b6000610f39826001610d45565b90506000610f48896001610d45565b90506000610f5e610f598a8a6112db565b610da2565b90506000610f82600161068c89602001518960000151610ceb90919063ffffffff16565b9050808b11610fd557610f9a6001610606838e610d45565b9750610fb181610fa98b610da2565b8f9190611342565b610fd084610fc884610fc28d610da2565b9061136e565b8f91906113d3565b61105e565b838b116110355760058d0154610feb908a610d45565b60058e015561100184610fc884610fc28d610da2565b611022826106068b61101c8f8a610d4590919063ffffffff16565b90610c2b565b9950610fd083610fa984610fc28d610da2565b60058d01546110449083610d45565b60058e0155909850889750879061105e83610fa984610da2565b6110698d86846113d3565b60048d0154611078908b610d45565b60048e015560008c815260028e0160205260408120600101556110b18361109e8c610da2565b8f6001016113429092919063ffffffff16565b505050505050505b93509350939050565b60408201516110e35760405162461bcd60e51b81526004016101b990611706565b81602001518260400151111561110b5760405162461bcd60e51b81526004016101b99061179d565b60008381526002850160205260409020600101541561113c5760405162461bcd60e51b81526004016101b990611669565b604080518082018252838152602080820184815260008781526002808a018452908590209351805185559283015160018501559190930151908201559051600390910155815161118d908590610854565b602082015160048501546111a091610ceb565b600485015581516000906111b5906001610d45565b90506111d3816111c88560200151610da2565b6001880191906113d3565b60006111f084604001518560200151610c8490919063ffffffff16565b905082611230576040840151600587015461120a91610ceb565b6005870155604084015161122b90839061122390610da2565b8891906113d3565b611265565b600061123c8385610ceb565b90506112578161124f8760400151610da2565b8991906113d3565b6112618285610ceb565b9150505b6000611285610f59866040015187602001516112db90919063ffffffff16565b85519091506000906112979084610ceb565b905060006112a6826001610d45565b90506112c5816112bd85610fc28b60400151610da2565b8b9190611342565b6112d0898385611342565b505050505050505050565b6000808211611331576040805162461bcd60e51b815260206004820152601860248201527f536166654d6174683a206d6f64756c6f206279207a65726f0000000000000000604482015290519081900360640190fd5b81838161133a57fe5b069392505050565b60008281526020849052604090205461135b908261136e565b6000928352602093909352506040902055565b60008183038183128015906113835750838113155b80611398575060008312801561139857508381135b610c245760405162461bcd60e51b81526004018080602001828103825260248152602001806119a46024913960400191505060405180910390fd5b60008281526020849052604090205461135b9082610da8565b80356001600160a01b038116811461067157600080fd5b600060208284031215611414578081fd5b610c24826113ec565b60006020828403121561142e578081fd5b81518015158114610c24578182fd5b600080600080600060a08688031215611454578081fd5b85359450611464602087016113ec565b94979496505050506040830135926060810135926080909101359150565b600080600060608486031215611496578283fd5b505081359360208301359350604090920135919050565b6001600160a01b0391909116815260200190565b6001600160a01b039384168152919092166020820152604081019190915260600190565b901515815260200190565b60208082526025908201527f736c6f7065203c20302c20736f6d657468696e672077726f6e67207769746820604082015264736c6f706560d81b606082015260800190565b6020808252600b908201526a1e995c9bc8185b5bdd5b9d60aa1b604082015260600190565b60208082526018908201527f63616c6c6572206e6f742061207374616b65206f776e65720000000000000000604082015260600190565b6020808252600d908201526c636c69666620746f6f2062696760981b604082015260600190565b60208082526019908201527f64657465637420637574206465706f73697420636f726e657200000000000000604082015260600190565b60208082526023908201527f636c69666620706572696f64203c206d696e696d616c207374616b65207065726040820152621a5bd960ea1b606082015260800190565b6020808252601f908201527f52656d6f76696e67204c696e652c207768696368206e6f742065786973747300604082015260600190565b60208082526023908201527f4c696e65207769746820676976656e20696420697320616c72656164792065786040820152621a5cdd60ea1b606082015260800190565b6020808252600990820152686d6967726174696e6760b81b604082015260600190565b6020808252601f908201527f6e6577206c696e6520706572696f64207374616b6520746f6f2073686f727400604082015260600190565b60208082526028908201527f536c6f7065203d3d20302c20756e61636365707461626c652076616c756520666040820152676f7220736c6f706560c01b606082015260800190565b6020808252602f908201527f496d706f737369626c6520746f2072657374616b653a206c65737320616d6f7560408201526e6e742c207468656e206e6f7720697360881b606082015260800190565b6020808252602a908201527f536c6f7065203e20626961732c20756e61636365707461626c652076616c756560408201526920666f7220736c6f706560b01b606082015260800190565b60208082526025908201527f63616e2774207570646174652042726f6b656e4c696e6520666f7220706173746040820152642074696d6560d81b606082015260800190565b6020808252600d908201526c736c6f706520746f6f2062696760981b604082015260600190565b6020808252600f908201526e1d1c985b9cd9995c8819985a5b1959608a1b604082015260600190565b6020808252600790820152661cdd1bdc1c195960ca1b604082015260600190565b60208082526023908201527f736c6f706520706572696f64203c206d696e696d616c207374616b65207065726040820152621a5bd960ea1b606082015260800190565b81518152602080830151908201526040918201519181019190915260600190565b90815260200190565b918252602082015260400190565b948552602085019390935260408401919091526060830152608082015260a0019056fe4f776e61626c653a206e6577206f776e657220697320746865207a65726f20616464726573735369676e6564536166654d6174683a206164646974696f6e206f766572666c6f77536166654d6174683a206d756c7469706c69636174696f6e206f766572666c6f775369676e6564536166654d6174683a207375627472616374696f6e206f766572666c6f77a2646970667358221220734956de55f11e8ec756efc7321c201fdde5beee9ee2edc3a8f73f6eeedea0b164736f6c63430007060033",
  "immutableReferences": {},
  "source": "// SPDX-License-Identifier: MIT\r\n\r\npragma solidity 0.7.6;\r\npragma abicoder v2;\r\n\r\nimport \"./StakingBase.sol\";\r\n\r\ncontract StakingRestake is StakingBase {\r\n    using SafeMathUpgradeable for uint;\r\n    using LibBrokenLine for LibBrokenLine.BrokenLine;\r\n\r\n    function restake(uint id, address newDelegate, uint newAmount, uint newSlope, uint newCliff) external notStopped notMigrating returns (uint) {\r\n        address account = verifyStakeOwner(id);\r\n        uint time = roundTimestamp(getBlockNumber());\r\n        verification(account, id, newAmount, newSlope, newCliff, time);\r\n\r\n        address delegate = stakes[id].delegate;\r\n        accounts[account].locked.update(time);\r\n        uint bias = accounts[account].locked.initial.bias;\r\n        uint residue = removeLines(id, account, delegate, time);\r\n        rebalance(id, account, bias, residue, newAmount);\r\n\r\n        counter++;\r\n\r\n        addLines(account, newDelegate, newAmount, newSlope, newCliff, time);\r\n        emit Restake(id, account, newDelegate, counter, time, newAmount, newSlope, newCliff);\r\n        return counter;\r\n    }\r\n\r\n    /**\r\n     * @dev Verification parameters:\r\n     *      1. amount > 0, slope > 0\r\n     *      2. cliff period and slope period less or equal two years\r\n     *      3. newFinishTime more or equal oldFinishTime\r\n     */\r\n    function verification(address account, uint id, uint newAmount, uint newSlope, uint newCliff, uint toTime) internal view {\r\n        require(newAmount > 0, \"zero amount\");\r\n        require(newCliff <= TWO_YEAR_WEEKS, \"cliff too big\");\r\n        uint period = divUp(newAmount, newSlope);\r\n        require(period <= TWO_YEAR_WEEKS, \"slope too big\");\r\n        uint newEnd = toTime.add(newCliff).add(period);\r\n        LibBrokenLine.LineData memory lineData = accounts[account].locked.initiatedLines[id];\r\n        LibBrokenLine.Line memory line = lineData.line;\r\n        period = divUp(line.bias, line.slope);\r\n        uint oldEnd = line.start.add(lineData.cliff).add(period);\r\n        require(oldEnd <= newEnd, \"new line period stake too short\");\r\n        //check Line with new parameters don`t cut corner old Line\r\n        uint oldCliffEnd = line.start.add(lineData.cliff);\r\n        uint newCliffEnd = toTime.add(newCliff);\r\n        if (oldCliffEnd > newCliffEnd) {\r\n            uint balance = oldCliffEnd.sub(newCliffEnd);\r\n            uint oldBias = line.bias;\r\n            uint newBias = newAmount.sub(balance.mul(newSlope));\r\n            require(newBias >= oldBias, \"detect cut deposit corner\");\r\n        }\r\n    }\r\n\r\n    function removeLines(uint id, address account, address delegate, uint toTime) internal returns (uint residue) {\r\n        updateLines(account, delegate, toTime);\r\n        accounts[delegate].balance.remove(id, toTime);\r\n        totalSupplyLine.remove(id, toTime);\r\n        (residue,,) = accounts[account].locked.remove(id, toTime);\r\n    }\r\n\r\n    function rebalance(uint id, address account, uint bias, uint residue, uint newAmount) internal {\r\n        require(residue <= newAmount, \"Impossible to restake: less amount, then now is\");\r\n        uint addAmount = newAmount.sub(residue);\r\n        uint amount = accounts[account].amount;\r\n        uint balance = amount.sub(bias);\r\n        if (addAmount > balance) {\r\n            //need more, than balance, so need transfer tokens to this\r\n            uint transferAmount = addAmount.sub(balance);\r\n            require(token.transferFrom(stakes[id].account, address(this), transferAmount), \"transfer failed\");\r\n            accounts[account].amount = accounts[account].amount.add(transferAmount);\r\n        }\r\n    }\r\n\r\n    uint256[50] private __gap;\r\n}\r\n",
  "sourcePath": "C:\\rarible\\protocol-contracts\\staking\\contracts\\StakingRestake.sol",
  "compiler": {
    "name": "solc",
    "version": "0.7.6+commit.7338295f.Emscripten.clang"
  },
  "schemaVersion": "3.4.3",
  "updatedAt": "2022-10-03T08:08:15.204Z",
  "devdoc": {
    "kind": "dev",
    "methods": {
      "owner()": {
        "details": "Returns the address of the current owner."
      },
      "renounceOwnership()": {
        "details": "Leaves the contract without owner. It will not be possible to call `onlyOwner` functions anymore. Can only be called by the current owner. NOTE: Renouncing ownership will leave the contract without an owner, thereby removing any functionality that is only available to the owner."
      },
      "transferOwnership(address)": {
        "details": "Transfers ownership of the contract to a new account (`newOwner`). Can only be called by the current owner."
      }
    },
    "version": 1
  },
  "userdoc": {
    "kind": "user",
    "methods": {
      "getStake(uint256,uint256,uint256)": {
        "notice": "alculate and return (newAmount, newSlope), using formula: staking = (tokens * (      ST_FORMULA_CONST_MULTIPLIER      + ST_FORMULA_CLIFF_MULTIPLIER * (cliffPeriod - minCliffPeriod))/(TWO_YEAR_WEEKS - minCliffPeriod)      + ST_FORMULA_SLOPE_MULTIPLIER * (slopePeriod - minSlopePeriod))/(TWO_YEAR_WEEKS - minSlopePeriod)      )) / ST_FORMULA_DIVIDER*"
      }
    },
    "version": 1
  }
}