{
  "contractName": "StakingBase",
  "abi": [
    {
      "anonymous": false,
      "inputs": [
        {
          "indexed": true,
          "internalType": "uint256",
          "name": "id",
          "type": "uint256"
        },
        {
          "indexed": true,
          "internalType": "address",
          "name": "account",
          "type": "address"
        },
        {
          "indexed": true,
          "internalType": "address",
          "name": "delegate",
          "type": "address"
        },
        {
          "indexed": false,
          "internalType": "uint256",
          "name": "time",
          "type": "uint256"
        }
      ],
      "name": "Delegate",
      "type": "event"
    },
    {
      "anonymous": false,
      "inputs": [
        {
          "indexed": true,
          "internalType": "address",
          "name": "account",
          "type": "address"
        },
        {
          "indexed": false,
          "internalType": "uint256[]",
          "name": "id",
          "type": "uint256[]"
        }
      ],
      "name": "Migrate",
      "type": "event"
    },
    {
      "anonymous": false,
      "inputs": [
        {
          "indexed": true,
          "internalType": "address",
          "name": "previousOwner",
          "type": "address"
        },
        {
          "indexed": true,
          "internalType": "address",
          "name": "newOwner",
          "type": "address"
        }
      ],
      "name": "OwnershipTransferred",
      "type": "event"
    },
    {
      "anonymous": false,
      "inputs": [
        {
          "indexed": true,
          "internalType": "uint256",
          "name": "id",
          "type": "uint256"
        },
        {
          "indexed": true,
          "internalType": "address",
          "name": "account",
          "type": "address"
        },
        {
          "indexed": true,
          "internalType": "address",
          "name": "delegate",
          "type": "address"
        },
        {
          "indexed": false,
          "internalType": "uint256",
          "name": "counter",
          "type": "uint256"
        },
        {
          "indexed": false,
          "internalType": "uint256",
          "name": "time",
          "type": "uint256"
        },
        {
          "indexed": false,
          "internalType": "uint256",
          "name": "amount",
          "type": "uint256"
        },
        {
          "indexed": false,
          "internalType": "uint256",
          "name": "slope",
          "type": "uint256"
        },
        {
          "indexed": false,
          "internalType": "uint256",
          "name": "cliff",
          "type": "uint256"
        }
      ],
      "name": "Restake",
      "type": "event"
    },
    {
      "anonymous": false,
      "inputs": [
        {
          "indexed": true,
          "internalType": "uint256",
          "name": "newMinCliffPeriod",
          "type": "uint256"
        }
      ],
      "name": "SetMinCliffPeriod",
      "type": "event"
    },
    {
      "anonymous": false,
      "inputs": [
        {
          "indexed": true,
          "internalType": "uint256",
          "name": "newMinSlopePeriod",
          "type": "uint256"
        }
      ],
      "name": "SetMinSlopePeriod",
      "type": "event"
    },
    {
      "anonymous": false,
      "inputs": [
        {
          "indexed": true,
          "internalType": "uint256",
          "name": "newStartingPointWeek",
          "type": "uint256"
        }
      ],
      "name": "SetStartingPointWeek",
      "type": "event"
    },
    {
      "anonymous": false,
      "inputs": [
        {
          "indexed": true,
          "internalType": "uint256",
          "name": "id",
          "type": "uint256"
        },
        {
          "indexed": true,
          "internalType": "address",
          "name": "account",
          "type": "address"
        },
        {
          "indexed": true,
          "internalType": "address",
          "name": "delegate",
          "type": "address"
        },
        {
          "indexed": false,
          "internalType": "uint256",
          "name": "time",
          "type": "uint256"
        },
        {
          "indexed": false,
          "internalType": "uint256",
          "name": "amount",
          "type": "uint256"
        },
        {
          "indexed": false,
          "internalType": "uint256",
          "name": "slope",
          "type": "uint256"
        },
        {
          "indexed": false,
          "internalType": "uint256",
          "name": "cliff",
          "type": "uint256"
        }
      ],
      "name": "StakeCreate",
      "type": "event"
    },
    {
      "anonymous": false,
      "inputs": [
        {
          "indexed": true,
          "internalType": "address",
          "name": "account",
          "type": "address"
        },
        {
          "indexed": true,
          "internalType": "address",
          "name": "to",
          "type": "address"
        }
      ],
      "name": "StartMigration",
      "type": "event"
    },
    {
      "anonymous": false,
      "inputs": [
        {
          "indexed": true,
          "internalType": "address",
          "name": "account",
          "type": "address"
        }
      ],
      "name": "StopStaking",
      "type": "event"
    },
    {
      "anonymous": false,
      "inputs": [
        {
          "indexed": true,
          "internalType": "address",
          "name": "account",
          "type": "address"
        },
        {
          "indexed": false,
          "internalType": "uint256",
          "name": "amount",
          "type": "uint256"
        }
      ],
      "name": "Withdraw",
      "type": "event"
    },
    {
      "inputs": [],
      "name": "WEEK",
      "outputs": [
        {
          "internalType": "uint256",
          "name": "",
          "type": "uint256"
        }
      ],
      "stateMutability": "view",
      "type": "function"
    },
    {
      "inputs": [],
      "name": "counter",
      "outputs": [
        {
          "internalType": "uint256",
          "name": "",
          "type": "uint256"
        }
      ],
      "stateMutability": "view",
      "type": "function"
    },
    {
      "inputs": [],
      "name": "migrateTo",
      "outputs": [
        {
          "internalType": "address",
          "name": "",
          "type": "address"
        }
      ],
      "stateMutability": "view",
      "type": "function"
    },
    {
      "inputs": [],
      "name": "minCliffPeriod",
      "outputs": [
        {
          "internalType": "uint256",
          "name": "",
          "type": "uint256"
        }
      ],
      "stateMutability": "view",
      "type": "function"
    },
    {
      "inputs": [],
      "name": "minSlopePeriod",
      "outputs": [
        {
          "internalType": "uint256",
          "name": "",
          "type": "uint256"
        }
      ],
      "stateMutability": "view",
      "type": "function"
    },
    {
      "inputs": [],
      "name": "owner",
      "outputs": [
        {
          "internalType": "address",
          "name": "",
          "type": "address"
        }
      ],
      "stateMutability": "view",
      "type": "function"
    },
    {
      "inputs": [],
      "name": "renounceOwnership",
      "outputs": [],
      "stateMutability": "nonpayable",
      "type": "function"
    },
    {
      "inputs": [],
      "name": "startingPointWeek",
      "outputs": [
        {
          "internalType": "uint256",
          "name": "",
          "type": "uint256"
        }
      ],
      "stateMutability": "view",
      "type": "function"
    },
    {
      "inputs": [],
      "name": "stopped",
      "outputs": [
        {
          "internalType": "bool",
          "name": "",
          "type": "bool"
        }
      ],
      "stateMutability": "view",
      "type": "function"
    },
    {
      "inputs": [],
      "name": "token",
      "outputs": [
        {
          "internalType": "contract IERC20Upgradeable",
          "name": "",
          "type": "address"
        }
      ],
      "stateMutability": "view",
      "type": "function"
    },
    {
      "inputs": [],
      "name": "totalSupplyLine",
      "outputs": [
        {
          "components": [
            {
              "internalType": "uint256",
              "name": "start",
              "type": "uint256"
            },
            {
              "internalType": "uint256",
              "name": "bias",
              "type": "uint256"
            },
            {
              "internalType": "uint256",
              "name": "slope",
              "type": "uint256"
            }
          ],
          "internalType": "struct LibBrokenLine.Line",
          "name": "initial",
          "type": "tuple"
        }
      ],
      "stateMutability": "view",
      "type": "function"
    },
    {
      "inputs": [
        {
          "internalType": "address",
          "name": "newOwner",
          "type": "address"
        }
      ],
      "name": "transferOwnership",
      "outputs": [],
      "stateMutability": "nonpayable",
      "type": "function"
    },
    {
      "inputs": [
        {
          "internalType": "uint256",
          "name": "amount",
          "type": "uint256"
        },
        {
          "internalType": "uint256",
          "name": "slope",
          "type": "uint256"
        },
        {
          "internalType": "uint256",
          "name": "cliff",
          "type": "uint256"
        }
      ],
      "name": "getStake",
      "outputs": [
        {
          "internalType": "uint256",
          "name": "stakeAmount",
          "type": "uint256"
        },
        {
          "internalType": "uint256",
          "name": "stakeSlope",
          "type": "uint256"
        }
      ],
      "stateMutability": "view",
      "type": "function"
    },
    {
      "inputs": [
        {
          "internalType": "uint256",
          "name": "newStartingPointWeek",
          "type": "uint256"
        }
      ],
      "name": "setStartingPointWeek",
      "outputs": [],
      "stateMutability": "nonpayable",
      "type": "function"
    },
    {
      "inputs": [
        {
          "internalType": "uint256",
          "name": "newMinCliffPeriod",
          "type": "uint256"
        }
      ],
      "name": "setMinCliffPeriod",
      "outputs": [],
      "stateMutability": "nonpayable",
      "type": "function"
    },
    {
      "inputs": [
        {
          "internalType": "uint256",
          "name": "newMinSlopePeriod",
          "type": "uint256"
        }
      ],
      "name": "setMinSlopePeriod",
      "outputs": [],
      "stateMutability": "nonpayable",
      "type": "function"
    }
  ],
  "bytecode": "0x608060405234801561001057600080fd5b50610cd9806100206000396000f3fe608060405234801561001057600080fd5b50600436106101005760003560e01c8063ac7ae58911610097578063f2fde38b11610066578063f2fde38b146101c5578063f4359ce5146101d8578063fc0c546a146101e0578063fecf0fdd146101e857610100565b8063ac7ae5891461018d578063acc9b64814610195578063b53546ab146101a8578063b6231633146101bd57610100565b80638da5cb5b116100d35780638da5cb5b1461014a57806398c6e7601461015f57806399eccf6214610167578063a8edafbe1461017a57610100565b806361bc221a1461010557806367c8c47314610123578063715018a61461012b57806375f12b2114610135575b600080fd5b61010d610209565b60405161011a9190610c25565b60405180910390f35b61010d61020f565b610133610215565b005b61013d6102c1565b60405161011a9190610a8a565b6101526102ca565b60405161011a9190610a76565b6101526102d9565b610133610175366004610a33565b6102ed565b610133610188366004610a33565b6103fc565b61010d610510565b6101336101a3366004610a33565b610516565b6101b061061c565b60405161011a9190610c04565b61010d610640565b6101336101d3366004610a0c565b610646565b61010d610749565b61015261074e565b6101fb6101f6366004610a4b565b61075d565b60405161011a929190610c2e565b60665481565b60685481565b61021d610850565b6001600160a01b031661022e6102ca565b6001600160a01b031614610277576040805162461bcd60e51b81526020600482018190526024820152600080516020610c84833981519152604482015290519081900360640190fd5b6033546040516000916001600160a01b0316907f8be0079c531659141344cd1fd0a4f28419497f9722a3daafe3b4186f6b6457e0908390a3603380546001600160a01b0319169055565b60675460ff1681565b6033546001600160a01b031690565b60675461010090046001600160a01b031681565b60675460ff16156103195760405162461bcd60e51b815260040161031090610ba0565b60405180910390fd5b60675461010090046001600160a01b0316156103475760405162461bcd60e51b815260040161031090610b7d565b61034f610850565b6001600160a01b03166103606102ca565b6001600160a01b0316146103a9576040805162461bcd60e51b81526020600482018190526024820152600080516020610c84833981519152604482015290519081900360640190fd5b606881106103c95760405162461bcd60e51b815260040161031090610a95565b606981905560405181907f88345dd2cdc36a4778bf7fed510015cf81efda1a773e1b6360fde7cb1631b21090600090a250565b60675460ff161561041f5760405162461bcd60e51b815260040161031090610ba0565b60675461010090046001600160a01b03161561044d5760405162461bcd60e51b815260040161031090610b7d565b610455610850565b6001600160a01b03166104666102ca565b6001600160a01b0316146104af576040805162461bcd60e51b81526020600482018190526024820152600080516020610c84833981519152604482015290519081900360640190fd5b6104bf6104ba610854565b610858565b81106104dd5760405162461bcd60e51b815260040161031090610b46565b606a81905560405181907f2f807974bc9b84320f39300f6395b257c58bb285c61d262ec17c8332772d683690600090a250565b606a5481565b60675460ff16156105395760405162461bcd60e51b815260040161031090610ba0565b60675461010090046001600160a01b0316156105675760405162461bcd60e51b815260040161031090610b7d565b61056f610850565b6001600160a01b03166105806102ca565b6001600160a01b0316146105c9576040805162461bcd60e51b81526020600482018190526024820152600080516020610c84833981519152604482015290519081900360640190fd5b606881106105e95760405162461bcd60e51b815260040161031090610acc565b606881905560405181907fa21222d0eed205eed6a46ed1fe7faf1d0b5d097b9e04a6d4e59b7f1debfc8b2b90600090a250565b60408051606081018252607054815260715460208201526072549181019190915281565b60695481565b61064e610850565b6001600160a01b031661065f6102ca565b6001600160a01b0316146106a8576040805162461bcd60e51b81526020600482018190526024820152600080516020610c84833981519152604482015290519081900360640190fd5b6001600160a01b0381166106ed5760405162461bcd60e51b8152600401808060200182810382526026815260200180610c3d6026913960400191505060405180910390fd5b6033546040516001600160a01b038084169216907f8be0079c531659141344cd1fd0a4f28419497f9722a3daafe3b4186f6b6457e090600090a3603380546001600160a01b0319166001600160a01b0392909216919091179055565b603281565b6065546001600160a01b031681565b600080600061076c8686610879565b90506068548410156107905760405162461bcd60e51b815260040161031090610b03565b6069548110156107b25760405162461bcd60e51b815260040161031090610bc1565b60006107de6068546068036107d86304cace80606854890361089590919063ffffffff16565b906108ee565b905060006108066069546068036107d86302625a00606954870361089590919063ffffffff16565b905060006108226301312d0061081c8585610955565b90610955565b90506108366305f5e1006107d88b84610895565b95506108428685610879565b945050505050935093915050565b3390565b4390565b606a546000906108739061086d8460326108ee565b906109af565b92915050565b600061088e600161081c846107d887846109af565b9392505050565b6000826108a457506000610873565b828202828482816108b157fe5b041461088e5760405162461bcd60e51b8152600401808060200182810382526021815260200180610c636021913960400191505060405180910390fd5b6000808211610944576040805162461bcd60e51b815260206004820152601a60248201527f536166654d6174683a206469766973696f6e206279207a65726f000000000000604482015290519081900360640190fd5b81838161094d57fe5b049392505050565b60008282018381101561088e576040805162461bcd60e51b815260206004820152601b60248201527f536166654d6174683a206164646974696f6e206f766572666c6f770000000000604482015290519081900360640190fd5b600082821115610a06576040805162461bcd60e51b815260206004820152601e60248201527f536166654d6174683a207375627472616374696f6e206f766572666c6f770000604482015290519081900360640190fd5b50900390565b600060208284031215610a1d578081fd5b81356001600160a01b038116811461088e578182fd5b600060208284031215610a44578081fd5b5035919050565b600080600060608486031215610a5f578182fd5b505081359360208301359350604090920135919050565b6001600160a01b0391909116815260200190565b901515815260200190565b6020808252601a908201527f6e657720736c6f706520706572696f64203e2032207965617273000000000000604082015260600190565b6020808252601a908201527f6e657720636c69666620706572696f64203e2032207965617273000000000000604082015260600190565b60208082526023908201527f636c69666620706572696f64203c206d696e696d616c207374616b65207065726040820152621a5bd960ea1b606082015260800190565b6020808252601a908201527f77726f6e67206e65775374617274696e67506f696e745765656b000000000000604082015260600190565b6020808252600990820152686d6967726174696e6760b81b604082015260600190565b6020808252600790820152661cdd1bdc1c195960ca1b604082015260600190565b60208082526023908201527f736c6f706520706572696f64203c206d696e696d616c207374616b65207065726040820152621a5bd960ea1b606082015260800190565b81518152602080830151908201526040918201519181019190915260600190565b90815260200190565b91825260208201526040019056fe4f776e61626c653a206e6577206f776e657220697320746865207a65726f2061646472657373536166654d6174683a206d756c7469706c69636174696f6e206f766572666c6f774f776e61626c653a2063616c6c6572206973206e6f7420746865206f776e6572a2646970667358221220f951d2cb830968db211bd3f6aef59b4fe1d7c35fc0d11aa9a815c04df82f88eb64736f6c63430007060033",
  "immutableReferences": {},
  "source": "// SPDX-License-Identifier: MIT\n\npragma solidity 0.7.6;\npragma abicoder v2;\n\nimport \"@openzeppelin/contracts-upgradeable/token/ERC20/IERC20Upgradeable.sol\";\nimport \"@openzeppelin/contracts-upgradeable/access/OwnableUpgradeable.sol\";\n\nimport \"./lib-broken-line/LibBrokenLine.sol\";\n\ncontract StakingBase is OwnableUpgradeable {\n\n    using SafeMathUpgradeable for uint;\n    using LibBrokenLine for LibBrokenLine.BrokenLine;\n\n    //todo: set actual value!\n    uint256 constant public WEEK = 50; //blocks one week = 50400\n    \n    uint256 constant TWO_YEAR_WEEKS = 104;                  //two year weeks\n\n    uint256 constant ST_FORMULA_DIVIDER = 100000000;        //stFormula divider\n    uint256 constant ST_FORMULA_CONST_MULTIPLIER = 20000000;   //stFormula const multiplier\n    uint256 constant ST_FORMULA_CLIFF_MULTIPLIER = 80400000;   //stFormula cliff multiplier\n    uint256 constant ST_FORMULA_SLOPE_MULTIPLIER = 40000000;   //stFormula slope multiplier\n\n    /**\n     * @dev ERC20 token to lock\n     */\n    IERC20Upgradeable public token;\n    /**\n     * @dev counter for Stake identifiers\n     */\n    uint public counter;\n\n    /**\n     * @dev true if contract entered stopped state\n     */\n    bool public stopped;\n\n    /**\n     * @dev address to migrate Stakes to (zero if not in migration state)\n     */\n    address public migrateTo;\n\n    /**\n     * @dev minimal cliff period in weeks, minCliffPeriod < TWO_YEAR_WEEKS\n     */\n\n    uint public minCliffPeriod;\n\n    /**\n     * @dev minimal slope period in weeks, minSlopePeriod < TWO_YEAR_WEEKS\n     */\n    uint public minSlopePeriod;\n\n    /**\n     * @dev staking epoch start in weeks\n     */\n    uint public startingPointWeek;\n\n    /**\n     * @dev represents one user Stake\n     */\n    struct Stake {\n        address account;\n        address delegate;\n    }\n\n    /**\n     * @dev describes state of accounts's balance.\n     *      balance - broken line describes stake\n     *      locked - broken line describes how many tokens are locked\n     *      amount - total currently locked tokens (including tokens which can be withdrawed)\n     */\n    struct Account {\n        LibBrokenLine.BrokenLine balance;\n        LibBrokenLine.BrokenLine locked;\n        uint amount;\n    }\n\n    mapping(address => Account) accounts;\n    mapping(uint => Stake) stakes;\n    LibBrokenLine.BrokenLine public totalSupplyLine;\n\n    /**\n     * @dev Emitted when create Lock with parameters (account, delegate, amount, slope, cliff)\n     */\n    event StakeCreate(uint indexed id, address indexed account, address indexed delegate, uint time, uint amount, uint slope, uint cliff);\n    /**\n     * @dev Emitted when change Lock parameters (newDelegate, newAmount, newSlope, newCliff) for Lock with given id\n     */\n    event Restake(uint indexed id, address indexed account, address indexed delegate, uint counter, uint time, uint amount, uint slope, uint cliff);\n    /**\n     * @dev Emitted when to set newDelegate address for Lock with given id\n     */\n    event Delegate(uint indexed id, address indexed account, address indexed delegate, uint time);\n    /**\n     * @dev Emitted when withdraw amount of Rari, account - msg.sender, amount - amount Rari\n     */\n    event Withdraw(address indexed account, uint amount);\n    /**\n     * @dev Emitted when migrate Locks with given id, account - msg.sender\n     */\n    event Migrate(address indexed account, uint[] id);\n    /**\n     * @dev Stop run contract functions, accept withdraw, account - msg.sender\n     */\n    event StopStaking(address indexed account);\n    /**\n     * @dev StartMigration initiate migration to another contract, account - msg.sender, to - address delegate to\n     */\n    event StartMigration(address indexed account, address indexed to);\n    /**\n     * @dev set newMinCliffPeriod, require newMinCliffPeriod < TWO_YEAR_WEEKS = 104\n     */\n    event SetMinCliffPeriod(uint indexed newMinCliffPeriod);\n    /**\n     * @dev set newMinSlopePeriod, require newMinSlopePeriod < TWO_YEAR_WEEKS = 104\n     */\n    event SetMinSlopePeriod(uint indexed newMinSlopePeriod);\n    /**\n     * @dev set startingPointWeek\n     */\n    event SetStartingPointWeek(uint indexed newStartingPointWeek);\n\n    function __StakingBase_init_unchained(IERC20Upgradeable _token, uint _startingPointWeek) internal initializer {\n        token = _token;\n        startingPointWeek = _startingPointWeek;\n    }\n\n    function addLines(address account, address delegate, uint amount, uint slope, uint cliff, uint time) internal {\n        updateLines(account, delegate, time);\n        (uint stAmount, uint stSlope) = getStake(amount, slope, cliff);\n        LibBrokenLine.Line memory line = LibBrokenLine.Line(time, stAmount, stSlope);\n        totalSupplyLine.add(counter, line, cliff);\n        accounts[delegate].balance.add(counter, line, cliff);\n        line = LibBrokenLine.Line(time, amount, slope);\n        accounts[account].locked.add(counter, line, cliff);\n        stakes[counter].account = account;\n        stakes[counter].delegate = delegate;\n    }\n\n    function updateLines(address account, address delegate, uint time) internal {\n        totalSupplyLine.update(time);\n        accounts[delegate].balance.update(time);\n        accounts[account].locked.update(time);\n    }\n\n    /**\n     * alculate and return (newAmount, newSlope), using formula:\n     * staking = (tokens * (\n     *      ST_FORMULA_CONST_MULTIPLIER\n     *      + ST_FORMULA_CLIFF_MULTIPLIER * (cliffPeriod - minCliffPeriod))/(TWO_YEAR_WEEKS - minCliffPeriod)\n     *      + ST_FORMULA_SLOPE_MULTIPLIER * (slopePeriod - minSlopePeriod))/(TWO_YEAR_WEEKS - minSlopePeriod)\n     *      )) / ST_FORMULA_DIVIDER\n     **/\n    function getStake(uint amount, uint slope, uint cliff) public view returns (uint stakeAmount, uint stakeSlope) {\n        uint slopePeriod = divUp(amount, slope);\n        require(cliff >= minCliffPeriod, \"cliff period < minimal stake period\");\n        require(slopePeriod >= minSlopePeriod, \"slope period < minimal stake period\");\n\n        uint cliffSide = (cliff - minCliffPeriod).mul(ST_FORMULA_CLIFF_MULTIPLIER).div(TWO_YEAR_WEEKS - minCliffPeriod);\n        uint slopeSide = (slopePeriod - minSlopePeriod).mul(ST_FORMULA_SLOPE_MULTIPLIER).div(TWO_YEAR_WEEKS - minSlopePeriod);\n        uint multiplier = cliffSide.add(slopeSide).add(ST_FORMULA_CONST_MULTIPLIER);\n\n        stakeAmount = amount.mul(multiplier).div(ST_FORMULA_DIVIDER);\n        stakeSlope = divUp(stakeAmount, slopePeriod);\n    }\n\n    function divUp(uint a, uint b) internal pure returns (uint) {\n        return ((a.sub(1)).div(b)).add(1);\n    }\n\n    function roundTimestamp(uint ts) view internal returns (uint) {\n        return ts.div(WEEK).sub(startingPointWeek);\n    }\n\n    function verifyStakeOwner(uint id) internal view returns (address account) {\n        account = stakes[id].account;\n        require(account == msg.sender, \"caller not a stake owner\");\n    }\n\n    function getBlockNumber() internal virtual view returns (uint) {\n        return block.number;\n    }\n\n    function setStartingPointWeek(uint newStartingPointWeek) public notStopped notMigrating onlyOwner {\n        require(newStartingPointWeek < roundTimestamp(getBlockNumber()) , \"wrong newStartingPointWeek\");\n        startingPointWeek = newStartingPointWeek;\n\n        emit SetStartingPointWeek(newStartingPointWeek);\n    } \n\n    function setMinCliffPeriod(uint newMinCliffPeriod) external  notStopped notMigrating onlyOwner {\n        require(newMinCliffPeriod < TWO_YEAR_WEEKS, \"new cliff period > 2 years\");\n        minCliffPeriod = newMinCliffPeriod;\n\n        emit SetMinCliffPeriod(newMinCliffPeriod);\n    }\n\n    function setMinSlopePeriod(uint newMinSlopePeriod) external  notStopped notMigrating onlyOwner {\n        require(newMinSlopePeriod < TWO_YEAR_WEEKS, \"new slope period > 2 years\");\n        minSlopePeriod = newMinSlopePeriod;\n\n        emit SetMinSlopePeriod(newMinSlopePeriod);\n    }\n\n    /**\n     * @dev Throws if stopped\n     */\n    modifier notStopped() {\n        require(!stopped, \"stopped\");\n        _;\n    }\n\n    modifier notMigrating() {\n        require(migrateTo == address(0), \"migrating\");\n        _;\n    }\n\n    //add minCliffPeriod, decrease __gap\n    //add minSlopePeriod, decrease __gap\n    uint256[48] private __gap;\n\n}\n",
  "sourcePath": "/Users/ds/Documents/rarible/protocol-contracts/staking/contracts/StakingBase.sol",
  "compiler": {
    "name": "solc",
    "version": "0.7.6+commit.7338295f.Emscripten.clang"
  },
  "schemaVersion": "3.4.3",
  "updatedAt": "2022-10-01T19:50:37.247Z",
  "devdoc": {
    "events": {
      "Delegate(uint256,address,address,uint256)": {
        "details": "Emitted when to set newDelegate address for Lock with given id"
      },
      "Migrate(address,uint256[])": {
        "details": "Emitted when migrate Locks with given id, account - msg.sender"
      },
      "Restake(uint256,address,address,uint256,uint256,uint256,uint256,uint256)": {
        "details": "Emitted when change Lock parameters (newDelegate, newAmount, newSlope, newCliff) for Lock with given id"
      },
      "SetMinCliffPeriod(uint256)": {
        "details": "set newMinCliffPeriod, require newMinCliffPeriod < TWO_YEAR_WEEKS = 104"
      },
      "SetMinSlopePeriod(uint256)": {
        "details": "set newMinSlopePeriod, require newMinSlopePeriod < TWO_YEAR_WEEKS = 104"
      },
      "SetStartingPointWeek(uint256)": {
        "details": "set startingPointWeek"
      },
      "StakeCreate(uint256,address,address,uint256,uint256,uint256,uint256)": {
        "details": "Emitted when create Lock with parameters (account, delegate, amount, slope, cliff)"
      },
      "StartMigration(address,address)": {
        "details": "StartMigration initiate migration to another contract, account - msg.sender, to - address delegate to"
      },
      "StopStaking(address)": {
        "details": "Stop run contract functions, accept withdraw, account - msg.sender"
      },
      "Withdraw(address,uint256)": {
        "details": "Emitted when withdraw amount of Rari, account - msg.sender, amount - amount Rari"
      }
    },
    "kind": "dev",
    "methods": {
      "owner()": {
        "details": "Returns the address of the current owner."
      },
      "renounceOwnership()": {
        "details": "Leaves the contract without owner. It will not be possible to call `onlyOwner` functions anymore. Can only be called by the current owner. NOTE: Renouncing ownership will leave the contract without an owner, thereby removing any functionality that is only available to the owner."
      },
      "transferOwnership(address)": {
        "details": "Transfers ownership of the contract to a new account (`newOwner`). Can only be called by the current owner."
      }
    },
    "stateVariables": {
      "counter": {
        "details": "counter for Stake identifiers"
      },
      "migrateTo": {
        "details": "address to migrate Stakes to (zero if not in migration state)"
      },
      "minCliffPeriod": {
        "details": "minimal cliff period in weeks, minCliffPeriod < TWO_YEAR_WEEKS"
      },
      "minSlopePeriod": {
        "details": "minimal slope period in weeks, minSlopePeriod < TWO_YEAR_WEEKS"
      },
      "startingPointWeek": {
        "details": "staking epoch start in weeks"
      },
      "stopped": {
        "details": "true if contract entered stopped state"
      },
      "token": {
        "details": "ERC20 token to lock"
      }
    },
    "version": 1
  },
  "userdoc": {
    "kind": "user",
    "methods": {
      "getStake(uint256,uint256,uint256)": {
        "notice": "alculate and return (newAmount, newSlope), using formula: staking = (tokens * (      ST_FORMULA_CONST_MULTIPLIER      + ST_FORMULA_CLIFF_MULTIPLIER * (cliffPeriod - minCliffPeriod))/(TWO_YEAR_WEEKS - minCliffPeriod)      + ST_FORMULA_SLOPE_MULTIPLIER * (slopePeriod - minSlopePeriod))/(TWO_YEAR_WEEKS - minSlopePeriod)      )) / ST_FORMULA_DIVIDER*"
      }
    },
    "version": 1
  }
}