{
  "contractName": "Staking",
  "abi": [
    {
      "anonymous": false,
      "inputs": [
        {
          "indexed": true,
          "internalType": "uint256",
          "name": "id",
          "type": "uint256"
        },
        {
          "indexed": true,
          "internalType": "address",
          "name": "account",
          "type": "address"
        },
        {
          "indexed": true,
          "internalType": "address",
          "name": "delegate",
          "type": "address"
        },
        {
          "indexed": false,
          "internalType": "uint256",
          "name": "time",
          "type": "uint256"
        }
      ],
      "name": "Delegate",
      "type": "event"
    },
    {
      "anonymous": false,
      "inputs": [
        {
          "indexed": true,
          "internalType": "address",
          "name": "delegator",
          "type": "address"
        },
        {
          "indexed": true,
          "internalType": "address",
          "name": "fromDelegate",
          "type": "address"
        },
        {
          "indexed": true,
          "internalType": "address",
          "name": "toDelegate",
          "type": "address"
        }
      ],
      "name": "DelegateChanged",
      "type": "event"
    },
    {
      "anonymous": false,
      "inputs": [
        {
          "indexed": true,
          "internalType": "address",
          "name": "delegate",
          "type": "address"
        },
        {
          "indexed": false,
          "internalType": "uint256",
          "name": "previousBalance",
          "type": "uint256"
        },
        {
          "indexed": false,
          "internalType": "uint256",
          "name": "newBalance",
          "type": "uint256"
        }
      ],
      "name": "DelegateVotesChanged",
      "type": "event"
    },
    {
      "anonymous": false,
      "inputs": [
        {
          "indexed": true,
          "internalType": "address",
          "name": "account",
          "type": "address"
        },
        {
          "indexed": false,
          "internalType": "uint256[]",
          "name": "id",
          "type": "uint256[]"
        }
      ],
      "name": "Migrate",
      "type": "event"
    },
    {
      "anonymous": false,
      "inputs": [
        {
          "indexed": true,
          "internalType": "address",
          "name": "previousOwner",
          "type": "address"
        },
        {
          "indexed": true,
          "internalType": "address",
          "name": "newOwner",
          "type": "address"
        }
      ],
      "name": "OwnershipTransferred",
      "type": "event"
    },
    {
      "anonymous": false,
      "inputs": [
        {
          "indexed": true,
          "internalType": "uint256",
          "name": "id",
          "type": "uint256"
        },
        {
          "indexed": true,
          "internalType": "address",
          "name": "account",
          "type": "address"
        },
        {
          "indexed": true,
          "internalType": "address",
          "name": "delegate",
          "type": "address"
        },
        {
          "indexed": false,
          "internalType": "uint256",
          "name": "counter",
          "type": "uint256"
        },
        {
          "indexed": false,
          "internalType": "uint256",
          "name": "time",
          "type": "uint256"
        },
        {
          "indexed": false,
          "internalType": "uint256",
          "name": "amount",
          "type": "uint256"
        },
        {
          "indexed": false,
          "internalType": "uint256",
          "name": "slope",
          "type": "uint256"
        },
        {
          "indexed": false,
          "internalType": "uint256",
          "name": "cliff",
          "type": "uint256"
        }
      ],
      "name": "Restake",
      "type": "event"
    },
    {
      "anonymous": false,
      "inputs": [
        {
          "indexed": true,
          "internalType": "uint256",
          "name": "newMinCliffPeriod",
          "type": "uint256"
        }
      ],
      "name": "SetMinCliffPeriod",
      "type": "event"
    },
    {
      "anonymous": false,
      "inputs": [
        {
          "indexed": true,
          "internalType": "uint256",
          "name": "newMinSlopePeriod",
          "type": "uint256"
        }
      ],
      "name": "SetMinSlopePeriod",
      "type": "event"
    },
    {
      "anonymous": false,
      "inputs": [
        {
          "indexed": true,
          "internalType": "uint256",
          "name": "newStartingPointWeek",
          "type": "uint256"
        }
      ],
      "name": "SetStartingPointWeek",
      "type": "event"
    },
    {
      "anonymous": false,
      "inputs": [
        {
          "indexed": true,
          "internalType": "uint256",
          "name": "id",
          "type": "uint256"
        },
        {
          "indexed": true,
          "internalType": "address",
          "name": "account",
          "type": "address"
        },
        {
          "indexed": true,
          "internalType": "address",
          "name": "delegate",
          "type": "address"
        },
        {
          "indexed": false,
          "internalType": "uint256",
          "name": "time",
          "type": "uint256"
        },
        {
          "indexed": false,
          "internalType": "uint256",
          "name": "amount",
          "type": "uint256"
        },
        {
          "indexed": false,
          "internalType": "uint256",
          "name": "slope",
          "type": "uint256"
        },
        {
          "indexed": false,
          "internalType": "uint256",
          "name": "cliff",
          "type": "uint256"
        }
      ],
      "name": "StakeCreate",
      "type": "event"
    },
    {
      "anonymous": false,
      "inputs": [
        {
          "indexed": true,
          "internalType": "address",
          "name": "account",
          "type": "address"
        },
        {
          "indexed": true,
          "internalType": "address",
          "name": "to",
          "type": "address"
        }
      ],
      "name": "StartMigration",
      "type": "event"
    },
    {
      "anonymous": false,
      "inputs": [
        {
          "indexed": true,
          "internalType": "address",
          "name": "account",
          "type": "address"
        }
      ],
      "name": "StopStaking",
      "type": "event"
    },
    {
      "anonymous": false,
      "inputs": [
        {
          "indexed": true,
          "internalType": "address",
          "name": "account",
          "type": "address"
        },
        {
          "indexed": false,
          "internalType": "uint256",
          "name": "amount",
          "type": "uint256"
        }
      ],
      "name": "Withdraw",
      "type": "event"
    },
    {
      "inputs": [],
      "name": "WEEK",
      "outputs": [
        {
          "internalType": "uint256",
          "name": "",
          "type": "uint256"
        }
      ],
      "stateMutability": "view",
      "type": "function"
    },
    {
      "inputs": [],
      "name": "counter",
      "outputs": [
        {
          "internalType": "uint256",
          "name": "",
          "type": "uint256"
        }
      ],
      "stateMutability": "view",
      "type": "function"
    },
    {
      "inputs": [
        {
          "internalType": "address",
          "name": "delegatee",
          "type": "address"
        }
      ],
      "name": "delegate",
      "outputs": [],
      "stateMutability": "nonpayable",
      "type": "function"
    },
    {
      "inputs": [
        {
          "internalType": "address",
          "name": "delegatee",
          "type": "address"
        },
        {
          "internalType": "uint256",
          "name": "nonce",
          "type": "uint256"
        },
        {
          "internalType": "uint256",
          "name": "expiry",
          "type": "uint256"
        },
        {
          "internalType": "uint8",
          "name": "v",
          "type": "uint8"
        },
        {
          "internalType": "bytes32",
          "name": "r",
          "type": "bytes32"
        },
        {
          "internalType": "bytes32",
          "name": "s",
          "type": "bytes32"
        }
      ],
      "name": "delegateBySig",
      "outputs": [],
      "stateMutability": "nonpayable",
      "type": "function"
    },
    {
      "inputs": [
        {
          "internalType": "address",
          "name": "account",
          "type": "address"
        }
      ],
      "name": "delegates",
      "outputs": [
        {
          "internalType": "address",
          "name": "",
          "type": "address"
        }
      ],
      "stateMutability": "view",
      "type": "function"
    },
    {
      "inputs": [
        {
          "internalType": "uint256",
          "name": "blockNumber",
          "type": "uint256"
        }
      ],
      "name": "getPastTotalSupply",
      "outputs": [
        {
          "internalType": "uint256",
          "name": "",
          "type": "uint256"
        }
      ],
      "stateMutability": "view",
      "type": "function"
    },
    {
      "inputs": [
        {
          "internalType": "address",
          "name": "account",
          "type": "address"
        },
        {
          "internalType": "uint256",
          "name": "blockNumber",
          "type": "uint256"
        }
      ],
      "name": "getPastVotes",
      "outputs": [
        {
          "internalType": "uint256",
          "name": "",
          "type": "uint256"
        }
      ],
      "stateMutability": "view",
      "type": "function"
    },
    {
      "inputs": [
        {
          "internalType": "uint256",
          "name": "amount",
          "type": "uint256"
        },
        {
          "internalType": "uint256",
          "name": "slope",
          "type": "uint256"
        },
        {
          "internalType": "uint256",
          "name": "cliff",
          "type": "uint256"
        }
      ],
      "name": "getStake",
      "outputs": [
        {
          "internalType": "uint256",
          "name": "stakeAmount",
          "type": "uint256"
        },
        {
          "internalType": "uint256",
          "name": "stakeSlope",
          "type": "uint256"
        }
      ],
      "stateMutability": "view",
      "type": "function"
    },
    {
      "inputs": [
        {
          "internalType": "address",
          "name": "account",
          "type": "address"
        }
      ],
      "name": "getVotes",
      "outputs": [
        {
          "internalType": "uint256",
          "name": "",
          "type": "uint256"
        }
      ],
      "stateMutability": "view",
      "type": "function"
    },
    {
      "inputs": [],
      "name": "migrateTo",
      "outputs": [
        {
          "internalType": "address",
          "name": "",
          "type": "address"
        }
      ],
      "stateMutability": "view",
      "type": "function"
    },
    {
      "inputs": [],
      "name": "minCliffPeriod",
      "outputs": [
        {
          "internalType": "uint256",
          "name": "",
          "type": "uint256"
        }
      ],
      "stateMutability": "view",
      "type": "function"
    },
    {
      "inputs": [],
      "name": "minSlopePeriod",
      "outputs": [
        {
          "internalType": "uint256",
          "name": "",
          "type": "uint256"
        }
      ],
      "stateMutability": "view",
      "type": "function"
    },
    {
      "inputs": [],
      "name": "owner",
      "outputs": [
        {
          "internalType": "address",
          "name": "",
          "type": "address"
        }
      ],
      "stateMutability": "view",
      "type": "function"
    },
    {
      "inputs": [],
      "name": "renounceOwnership",
      "outputs": [],
      "stateMutability": "nonpayable",
      "type": "function"
    },
    {
      "inputs": [
        {
          "internalType": "uint256",
          "name": "id",
          "type": "uint256"
        },
        {
          "internalType": "address",
          "name": "newDelegate",
          "type": "address"
        },
        {
          "internalType": "uint256",
          "name": "newAmount",
          "type": "uint256"
        },
        {
          "internalType": "uint256",
          "name": "newSlope",
          "type": "uint256"
        },
        {
          "internalType": "uint256",
          "name": "newCliff",
          "type": "uint256"
        }
      ],
      "name": "restake",
      "outputs": [
        {
          "internalType": "uint256",
          "name": "",
          "type": "uint256"
        }
      ],
      "stateMutability": "nonpayable",
      "type": "function"
    },
    {
      "inputs": [
        {
          "internalType": "uint256",
          "name": "ts",
          "type": "uint256"
        }
      ],
      "name": "roundTimestamp",
      "outputs": [
        {
          "internalType": "uint256",
          "name": "",
          "type": "uint256"
        }
      ],
      "stateMutability": "view",
      "type": "function"
    },
    {
      "inputs": [
        {
          "internalType": "uint256",
          "name": "newMinCliffPeriod",
          "type": "uint256"
        }
      ],
      "name": "setMinCliffPeriod",
      "outputs": [],
      "stateMutability": "nonpayable",
      "type": "function"
    },
    {
      "inputs": [
        {
          "internalType": "uint256",
          "name": "newMinSlopePeriod",
          "type": "uint256"
        }
      ],
      "name": "setMinSlopePeriod",
      "outputs": [],
      "stateMutability": "nonpayable",
      "type": "function"
    },
    {
      "inputs": [
        {
          "internalType": "uint256",
          "name": "newStartingPointWeek",
          "type": "uint256"
        }
      ],
      "name": "setStartingPointWeek",
      "outputs": [],
      "stateMutability": "nonpayable",
      "type": "function"
    },
    {
      "inputs": [],
      "name": "startingPointWeek",
      "outputs": [
        {
          "internalType": "uint256",
          "name": "",
          "type": "uint256"
        }
      ],
      "stateMutability": "view",
      "type": "function"
    },
    {
      "inputs": [],
      "name": "stopped",
      "outputs": [
        {
          "internalType": "bool",
          "name": "",
          "type": "bool"
        }
      ],
      "stateMutability": "view",
      "type": "function"
    },
    {
      "inputs": [],
      "name": "token",
      "outputs": [
        {
          "internalType": "contract IERC20Upgradeable",
          "name": "",
          "type": "address"
        }
      ],
      "stateMutability": "view",
      "type": "function"
    },
    {
      "inputs": [],
      "name": "totalSupplyLine",
      "outputs": [
        {
          "components": [
            {
              "internalType": "uint256",
              "name": "start",
              "type": "uint256"
            },
            {
              "internalType": "uint256",
              "name": "bias",
              "type": "uint256"
            },
            {
              "internalType": "uint256",
              "name": "slope",
              "type": "uint256"
            }
          ],
          "internalType": "struct LibBrokenLine.Line",
          "name": "initial",
          "type": "tuple"
        }
      ],
      "stateMutability": "view",
      "type": "function"
    },
    {
      "inputs": [
        {
          "internalType": "address",
          "name": "newOwner",
          "type": "address"
        }
      ],
      "name": "transferOwnership",
      "outputs": [],
      "stateMutability": "nonpayable",
      "type": "function"
    },
    {
      "inputs": [
        {
          "internalType": "contract IERC20Upgradeable",
          "name": "_token",
          "type": "address"
        },
        {
          "internalType": "uint256",
          "name": "_startingPointWeek",
          "type": "uint256"
        },
        {
          "internalType": "uint256",
          "name": "_minCliffPeriod",
          "type": "uint256"
        },
        {
          "internalType": "uint256",
          "name": "_minSlopePeriod",
          "type": "uint256"
        }
      ],
      "name": "__Staking_init",
      "outputs": [],
      "stateMutability": "nonpayable",
      "type": "function"
    },
    {
      "inputs": [],
      "name": "stop",
      "outputs": [],
      "stateMutability": "nonpayable",
      "type": "function"
    },
    {
      "inputs": [
        {
          "internalType": "address",
          "name": "to",
          "type": "address"
        }
      ],
      "name": "startMigration",
      "outputs": [],
      "stateMutability": "nonpayable",
      "type": "function"
    },
    {
      "inputs": [
        {
          "internalType": "address",
          "name": "account",
          "type": "address"
        },
        {
          "internalType": "address",
          "name": "_delegate",
          "type": "address"
        },
        {
          "internalType": "uint256",
          "name": "amount",
          "type": "uint256"
        },
        {
          "internalType": "uint256",
          "name": "slope",
          "type": "uint256"
        },
        {
          "internalType": "uint256",
          "name": "cliff",
          "type": "uint256"
        }
      ],
      "name": "stake",
      "outputs": [
        {
          "internalType": "uint256",
          "name": "",
          "type": "uint256"
        }
      ],
      "stateMutability": "nonpayable",
      "type": "function"
    },
    {
      "inputs": [],
      "name": "withdraw",
      "outputs": [],
      "stateMutability": "nonpayable",
      "type": "function"
    },
    {
      "inputs": [
        {
          "internalType": "address",
          "name": "account",
          "type": "address"
        }
      ],
      "name": "getAvailableForWithdraw",
      "outputs": [
        {
          "internalType": "uint256",
          "name": "value",
          "type": "uint256"
        }
      ],
      "stateMutability": "view",
      "type": "function"
    },
    {
      "inputs": [
        {
          "internalType": "address",
          "name": "account",
          "type": "address"
        }
      ],
      "name": "locked",
      "outputs": [
        {
          "internalType": "uint256",
          "name": "",
          "type": "uint256"
        }
      ],
      "stateMutability": "view",
      "type": "function"
    },
    {
      "inputs": [
        {
          "internalType": "uint256",
          "name": "id",
          "type": "uint256"
        }
      ],
      "name": "getAccountAndDelegate",
      "outputs": [
        {
          "internalType": "address",
          "name": "account",
          "type": "address"
        },
        {
          "internalType": "address",
          "name": "delegate",
          "type": "address"
        }
      ],
      "stateMutability": "view",
      "type": "function"
    },
    {
      "inputs": [],
      "name": "getWeek",
      "outputs": [
        {
          "internalType": "uint256",
          "name": "",
          "type": "uint256"
        }
      ],
      "stateMutability": "view",
      "type": "function"
    },
    {
      "inputs": [
        {
          "internalType": "uint256",
          "name": "id",
          "type": "uint256"
        },
        {
          "internalType": "address",
          "name": "newDelegate",
          "type": "address"
        }
      ],
      "name": "delegateTo",
      "outputs": [],
      "stateMutability": "nonpayable",
      "type": "function"
    },
    {
      "inputs": [],
      "name": "totalSupply",
      "outputs": [
        {
          "internalType": "uint256",
          "name": "",
          "type": "uint256"
        }
      ],
      "stateMutability": "view",
      "type": "function"
    },
    {
      "inputs": [
        {
          "internalType": "address",
          "name": "account",
          "type": "address"
        }
      ],
      "name": "balanceOf",
      "outputs": [
        {
          "internalType": "uint256",
          "name": "",
          "type": "uint256"
        }
      ],
      "stateMutability": "view",
      "type": "function"
    },
    {
      "inputs": [
        {
          "internalType": "uint256[]",
          "name": "id",
          "type": "uint256[]"
        }
      ],
      "name": "migrate",
      "outputs": [],
      "stateMutability": "nonpayable",
      "type": "function"
    },
    {
      "inputs": [],
      "name": "name",
      "outputs": [
        {
          "internalType": "string",
          "name": "",
          "type": "string"
        }
      ],
      "stateMutability": "view",
      "type": "function"
    },
    {
      "inputs": [],
      "name": "symbol",
      "outputs": [
        {
          "internalType": "string",
          "name": "",
          "type": "string"
        }
      ],
      "stateMutability": "view",
      "type": "function"
    },
    {
      "inputs": [],
      "name": "decimals",
      "outputs": [
        {
          "internalType": "uint8",
          "name": "",
          "type": "uint8"
        }
      ],
      "stateMutability": "view",
      "type": "function"
    }
  ],
  "bytecode": "0x608060405234801561001057600080fd5b506139e8806100206000396000f3fe608060405234801561001057600080fd5b50600436106102485760003560e01c80638e539e8c1161013b578063b6231633116100b8578063f2fde38b1161007c578063f2fde38b14610498578063f4359ce5146104ab578063fc0c546a146104b3578063fc7881c6146104bb578063fecf0fdd146104ce57610248565b8063b623163314610449578063c3cda52014610451578063cbf9fe5f1461045f578063d93bf4fe14610472578063f108fa931461048557610248565b8063a0f52da0116100ff578063a0f52da0146103f3578063a8edafbe14610406578063ac7ae58914610419578063acc9b64814610421578063b53546ab1461043457610248565b80638e539e8c146103aa57806395d89b41146103bd57806398c6e760146103c557806399eccf62146103cd5780639ab24eb0146103e057610248565b80635c19a95c116101c9578063715018a61161018d578063715018a61461036a57806375f12b2114610372578063874d6d81146103875780638cda5c141461038f5780638da5cb5b146103a257610248565b80635c19a95c1461032157806361bc221a1461033457806367c8c4731461033c5780636bde67d81461034457806370a082311461035757610248565b8063313ce56711610210578063313ce567146102be5780633a46b1a8146102d35780633ccfd60b146102e657806346b96097146102ee578063587cde1e1461030157610248565b806306fdde031461024d57806307da68f51461026b5780630fc8deca1461027557806315622e231461029557806318160ddd146102b6575b600080fd5b6102556104ef565b6040516102629190613227565b60405180910390f35b61027361051d565b005b610288610283366004612eb8565b6105e5565b604051610262919061380c565b6102a86102a33660046130b7565b610657565b6040516102629291906131bc565b61028861067e565b6102c66106bf565b6040516102629190613895565b6102886102e1366004612f24565b6106c4565b610273610734565b6102886102fc3660046130b7565b61085d565b61031461030f366004612eb8565b6108ad565b604051610262919061316b565b61027361032f366004612eb8565b6108c7565b6102886108df565b6102886108e5565b6102886103523660046130fe565b6108eb565b610288610365366004612eb8565b610b31565b610273610b9a565b61037a610c46565b604051610262919061320e565b610288610c4f565b61027361039d36600461307d565b610c61565b610314610d23565b6102886103b83660046130b7565b610d32565b610255610d81565b610314610da1565b6102736103db3660046130b7565b610db5565b6102886103ee366004612eb8565b610ebb565b610273610401366004612eb8565b610ef2565b6102736104143660046130b7565b610fa8565b6102886110b7565b61027361042f3660046130b7565b6110bd565b61043c6111c3565b60405161026291906137fe565b6102886111e7565b61027361032f366004612f4f565b61028861046d366004612eb8565b6111ed565b610273610480366004612faf565b61120b565b610288610493366004612ed4565b6115b0565b6102736104a6366004612eb8565b611856565b610288611959565b61031461195f565b6102736104c93660046130cf565b61196e565b6104e16104dc366004613127565b611c00565b604051610262929190613219565b60408051808201909152601381527252617269626c6520566f74652d457363726f7760681b60208201525b90565b610525611cf3565b6001600160a01b0316610536610d23565b6001600160a01b03161461057f576040805162461bcd60e51b8152602060048201819052602482015260008051602061394f833981519152604482015290519081900360640190fd5b60675460ff16156105ab5760405162461bcd60e51b81526004016105a29061379a565b60405180910390fd5b6067805460ff1916600117905560405133907f6bc4e1d7a91902d97533e9181b5ca4c1e8a90725e767a9b8cdbbcf901ba554fe90600090a2565b6001600160a01b0381166000908152606b60205260409020600c015460675460ff166106525760006106186102fc611cf7565b6001600160a01b0384166000908152606b60205260408120919250906106419060060183611cfb565b905061064d8382611d6c565b925050505b919050565b6000908152606c6020526040902080546001909101546001600160a01b0391821692911690565b6071546000901580610692575060675460ff165b1561069f5750600061051a565b60006106ac6102fc611cf7565b90506106b9606d82611cfb565b91505090565b601290565b6000806106d08361085d565b90506106da611cf7565b831080156106e85750600081115b6107045760405162461bcd60e51b81526004016105a290613744565b6001600160a01b0384166000908152606b6020526040902061072a906000198301611cfb565b9150505b92915050565b600061073f336105e5565b9050801561081957336000908152606b60205260409020600c01546107649082611d6c565b336000818152606b602052604090819020600c0192909255606554915163a9059cbb60e01b81526001600160a01b039092169163a9059cbb916107ab9185906004016131a3565b602060405180830381600087803b1580156107c557600080fd5b505af11580156107d9573d6000803e3d6000fd5b505050506040513d601f19601f820116820180604052508101906107fd919061305d565b6108195760405162461bcd60e51b81526004016105a290613771565b336001600160a01b03167f884edad9ce6fa2440d8a54cc123490eb96d2768479d49ff9c7366125a942436482604051610852919061380c565b60405180910390a250565b6000610867611dc9565b82101561087657506000610652565b600061088a610883611dc9565b8490611d6c565b606a549091506108a6906108a08361c4e0611dcf565b90611d6c565b9392505050565b600060405162461bcd60e51b81526004016105a290613395565b60405162461bcd60e51b81526004016105a290613395565b60665481565b60685481565b60675460009060ff16156109115760405162461bcd60e51b81526004016105a29061379a565b60675461010090046001600160a01b03161561093f5760405162461bcd60e51b81526004016105a290613547565b600061094a87611e36565b905060006109596102fc611cf7565b9050610969828988888886611e6d565b6000888152606c60209081526040808320600101546001600160a01b038681168552606b90935292209116906109a29060060183612029565b6001600160a01b0383166000908152606b60205260409020600a01546109d8908a9085906109d2838387896120f3565b8b612169565b6066805460010190556109ef8389898989876122d7565b876001600160a01b0316836001600160a01b03168a7fed21ca2fb4312d282540746b7f00899205aee2bd522dcbb837405aea6a92b52a606654868c8c8c604051610a3d959493929190613872565b60405180910390a4876001600160a01b0316816001600160a01b0316846001600160a01b03167f3134e8a2e6d97e929a7e54011ea5485d7d196dd5f0ba4d4ef95803e8e3fc257f60405160405180910390a46001600160a01b0381166000818152606b602052604081206000805160206139938339815191529190610ac29086611cfb565b604051610ad0929190613219565b60405180910390a26001600160a01b0388166000818152606b602052604081206000805160206139938339815191529190610b0b9086611cfb565b604051610b19929190613219565b60405180910390a25050606654979650505050505050565b6001600160a01b0381166000908152606b60205260408120600401541580610b5b575060675460ff165b15610b6857506000610652565b6000610b756102fc611cf7565b6001600160a01b0384166000908152606b602052604090209091506108a69082611cfb565b610ba2611cf3565b6001600160a01b0316610bb3610d23565b6001600160a01b031614610bfc576040805162461bcd60e51b8152602060048201819052602482015260008051602061394f833981519152604482015290519081900360640190fd5b6033546040516000916001600160a01b0316907f8be0079c531659141344cd1fd0a4f28419497f9722a3daafe3b4186f6b6457e0908390a3603380546001600160a01b0319169055565b60675460ff1681565b6000610c5c6102fc611cf7565b905090565b600054610100900460ff1680610c7a5750610c7a6123e0565b80610c88575060005460ff16155b610cc35760405162461bcd60e51b815260040180806020018281038252602e815260200180613900602e913960400191505060405180910390fd5b600054610100900460ff16158015610cee576000805460ff1961ff0019909116610100171660011790555b610cfa858585856123f1565b610d026124c0565b610d0a6125b9565b8015610d1c576000805461ff00191690555b5050505050565b6033546001600160a01b031690565b600080610d3e8361085d565b9050610d48611cf7565b83108015610d565750600081115b610d725760405162461bcd60e51b81526004016105a290613744565b6108a6606d6000198301611cfb565b60408051808201909152600681526576655241524960d01b602082015290565b60675461010090046001600160a01b031681565b60675460ff1615610dd85760405162461bcd60e51b81526004016105a29061379a565b60675461010090046001600160a01b031615610e065760405162461bcd60e51b81526004016105a290613547565b610e0e611cf3565b6001600160a01b0316610e1f610d23565b6001600160a01b031614610e68576040805162461bcd60e51b8152602060048201819052602482015260008051602061394f833981519152604482015290519081900360640190fd5b60688110610e885760405162461bcd60e51b81526004016105a29061327a565b606981905560405181907f88345dd2cdc36a4778bf7fed510015cf81efda1a773e1b6360fde7cb1631b21090600090a250565b600080610ec96102fc611cf7565b6001600160a01b0384166000908152606b602052604090209091506108a6906000198301611cfb565b610efa611cf3565b6001600160a01b0316610f0b610d23565b6001600160a01b031614610f54576040805162461bcd60e51b8152602060048201819052602482015260008051602061394f833981519152604482015290519081900360640190fd5b60678054610100600160a81b0319166101006001600160a01b0384169081029190911790915560405133907f51ace7fc4e2a9f6104449d0bbe0532efdfd8dfebc68b225b91dd1de3bbb804fd90600090a350565b60675460ff1615610fcb5760405162461bcd60e51b81526004016105a29061379a565b60675461010090046001600160a01b031615610ff95760405162461bcd60e51b81526004016105a290613547565b611001611cf3565b6001600160a01b0316611012610d23565b6001600160a01b03161461105b576040805162461bcd60e51b8152602060048201819052602482015260008051602061394f833981519152604482015290519081900360640190fd5b6110666102fc611cf7565b81106110845760405162461bcd60e51b81526004016105a2906134cd565b606a81905560405181907f2f807974bc9b84320f39300f6395b257c58bb285c61d262ec17c8332772d683690600090a250565b606a5481565b60675460ff16156110e05760405162461bcd60e51b81526004016105a29061379a565b60675461010090046001600160a01b03161561110e5760405162461bcd60e51b81526004016105a290613547565b611116611cf3565b6001600160a01b0316611127610d23565b6001600160a01b031614611170576040805162461bcd60e51b8152602060048201819052602482015260008051602061394f833981519152604482015290519081900360640190fd5b606881106111905760405162461bcd60e51b81526004016105a29061341c565b606881905560405181907fa21222d0eed205eed6a46ed1fe7faf1d0b5d097b9e04a6d4e59b7f1debfc8b2b90600090a250565b60408051606081018252607054815260715460208201526072549181019190915281565b60695481565b6001600160a01b03166000908152606b60205260409020600c015490565b60675461010090046001600160a01b0316611225576115ad565b60006112326102fc611cf7565b60675490915061010090046001600160a01b031660005b835181101561156857600061127085838151811061126357fe5b6020026020010151611e36565b90506000606c600087858151811061128457fe5b6020908102919091018101518252810191909152604001600020600101546001600160a01b031690506112b882828761265a565b6001600160a01b0382166000908152606b60205260408120875160089091019082908990879081106112e657fe5b6020026020010151815260200190815260200160002060405180604001604052908160008201604051806060016040529081600082015481526020016001820154815260200160028201548152505081526020016003820154815250509050600061138588868151811061135657fe5b6020908102919091018101516001600160a01b0387166000908152606b909252604090912060060190896126b1565b505060655460675460405163a9059cbb60e01b81529293506001600160a01b039182169263a9059cbb926113c4926101009004169085906004016131a3565b602060405180830381600087803b1580156113de57600080fd5b505af11580156113f2573d6000803e3d6000fd5b505050506040513d601f19601f82011682018060405250810190611416919061305d565b6114325760405162461bcd60e51b81526004016105a290613771565b6001600160a01b0384166000908152606b60205260409020600c01546114589082611d6c565b6001600160a01b0385166000908152606b60205260409020600c015587516114b29089908790811061148657fe5b6020908102919091018101516001600160a01b0386166000908152606b909252604090912090896126b1565b5050506114de8886815181106114c457fe5b602002602001015188606d6126b19092919063ffffffff16565b505050856001600160a01b0316638d7cdec28987815181106114fc57fe5b60200260200101518487876040518563ffffffff1660e01b81526004016115269493929190613815565b600060405180830381600087803b15801561154057600080fd5b505af1158015611554573d6000803e3d6000fd5b505060019096019550611249945050505050565b50336001600160a01b03167f9302ff85f986fa03af144f0430ecea91ded0b24af1655f46bde13c1d3c13b76b846040516115a291906131d6565b60405180910390a250505b50565b60675460009060ff16156115d65760405162461bcd60e51b81526004016105a29061379a565b60675461010090046001600160a01b0316156116045760405162461bcd60e51b81526004016105a290613547565b600084116116245760405162461bcd60e51b81526004016105a2906132f6565b60688211156116455760405162461bcd60e51b81526004016105a2906133be565b6068611651858561290b565b111561166f5760405162461bcd60e51b81526004016105a290613638565b6065546040516323b872dd60e01b81526001600160a01b03909116906323b872dd906116a39033903090899060040161317f565b602060405180830381600087803b1580156116bd57600080fd5b505af11580156116d1573d6000803e3d6000fd5b505050506040513d601f19601f820116820180604052508101906116f5919061305d565b6117115760405162461bcd60e51b81526004016105a290613771565b60668054600101905560006117276102fc611cf7565b90506117378787878787866122d7565b6001600160a01b0387166000908152606b60205260409020600c015461175d9086612920565b6001600160a01b038089166000818152606b602052604090819020600c019390935560665492519189169290917f623b3d5e572a148a73b818e6f65063f047c4acf2a38cc0c8b367c5cd555963ae906117bd9086908b908b908b90613857565b60405180910390a46040516001600160a01b03808816916000918a16907f3134e8a2e6d97e929a7e54011ea5485d7d196dd5f0ba4d4ef95803e8e3fc257f908390a46001600160a01b0386166000818152606b6020526040812060008051602061399383398151915291906118329085611cfb565b604051611840929190613219565b60405180910390a2505060665495945050505050565b61185e611cf3565b6001600160a01b031661186f610d23565b6001600160a01b0316146118b8576040805162461bcd60e51b8152602060048201819052602482015260008051602061394f833981519152604482015290519081900360640190fd5b6001600160a01b0381166118fd5760405162461bcd60e51b81526004018080602001828103825260268152602001806138b96026913960400191505060405180910390fd5b6033546040516001600160a01b038084169216907f8be0079c531659141344cd1fd0a4f28419497f9722a3daafe3b4186f6b6457e090600090a3603380546001600160a01b0319166001600160a01b0392909216919091179055565b61c4e081565b6065546001600160a01b031681565b60675460ff16156119915760405162461bcd60e51b81526004016105a29061379a565b60675461010090046001600160a01b0316156119bf5760405162461bcd60e51b81526004016105a290613547565b60006119ca83611e36565b6000848152606c60205260408120600101549192506001600160a01b03909116906119f66102fc611cf7565b6001600160a01b0383166000908152606b60205260409020909150611a1b9082612029565b6001600160a01b0382166000908152606b6020526040812081908190611a429089866126b1565b6040805160608101825288815260208082018690528183018590526001600160a01b038d166000908152606b90915291909120939650919450925090611a889086612029565b6001600160a01b0388166000908152606b60205260409020611aac908a838561297a565b6000898152606c60205260409081902060010180546001600160a01b0319166001600160a01b038b81169182179092559151908916908b907f85c2730e083fbf1495501a47cbebc8a7e57eab8b6eeac16aedcebc825e268fac90611b11908a9061380c565b60405180910390a4876001600160a01b0316866001600160a01b0316886001600160a01b03167f3134e8a2e6d97e929a7e54011ea5485d7d196dd5f0ba4d4ef95803e8e3fc257f60405160405180910390a46001600160a01b0386166000818152606b602052604081206000805160206139938339815191529190611b969089611cfb565b604051611ba4929190613219565b60405180910390a26001600160a01b0388166000818152606b602052604081206000805160206139938339815191529190611bdf9089611cfb565b604051611bed929190613219565b60405180910390a2505050505050505050565b6000806000611c0f868661290b565b9050606854841015611c335760405162461bcd60e51b81526004016105a290613453565b606954811015611c555760405162461bcd60e51b81526004016105a2906137bb565b6000611c81606854606803611c7b6304cace806068548903612b9390919063ffffffff16565b90611dcf565b90506000611ca9606954606803611c7b6302625a006069548703612b9390919063ffffffff16565b90506000611cc56301312d00611cbf8585612920565b90612920565b9050611cd96305f5e100611c7b8b84612b93565b9550611ce5868561290b565b945050505050935093915050565b3390565b4390565b600382015460048301546000919083821415611d1a57915061072e9050565b81841115611d3757611d2e85838684612bec565b9250505061072e565b60008411611d575760405162461bcd60e51b81526004016105a290613660565b611d6385838684612c7a565b95945050505050565b600082821115611dc3576040805162461bcd60e51b815260206004820152601e60248201527f536166654d6174683a207375627472616374696f6e206f766572666c6f770000604482015290519081900360640190fd5b50900390565b619b2d90565b6000808211611e25576040805162461bcd60e51b815260206004820152601a60248201527f536166654d6174683a206469766973696f6e206279207a65726f000000000000604482015290519081900360640190fd5b818381611e2e57fe5b049392505050565b6000818152606c60205260409020546001600160a01b03163381146106525760405162461bcd60e51b81526004016105a29061331b565b60008411611e8d5760405162461bcd60e51b81526004016105a2906132f6565b6068821115611eae5760405162461bcd60e51b81526004016105a2906133be565b6000611eba858561290b565b90506068811115611edd5760405162461bcd60e51b81526004016105a29061371d565b6000611eed82611cbf8587612920565b6001600160a01b0389166000908152606b602090815260408083208b8452600801825291829020825160a081018452815493810193845260018201546060820181905260028301546080830181905285835260039093015493820193909352939450611f59919061290b565b93506000611f7c85611cbf8560200151856000015161292090919063ffffffff16565b905083811115611f9e5760405162461bcd60e51b81526004016105a29061356a565b60208301518251600091611fb29190612920565b90506000611fc0888a612920565b90508082111561201a576000611fd68383611d6c565b60208601519091506000611ff4611fed848f612b93565b8f90611d6c565b9050818110156120165760405162461bcd60e51b81526004016105a2906133e5565b5050505b50505050505050505050505050565b60038201548181141561203c57506120ef565b6005830154600484015480156120dc5782841161206b5760405162461bcd60e51b81526004016105a2906136d8565b838310156120dc5761207d8183611d6c565b600084815260208790526040812054919250906120a39061209d85612d36565b90612d3c565b905060008112156120c65760405162461bcd60e51b81526004016105a2906132b1565b9150816120d4846001612920565b93505061206b565b6003850184905560048501556005840155505b5050565b600061210084848461265a565b6001600160a01b0383166000908152606b602052604090206121239086846126b1565b506121349150606d905086846126b1565b5050506001600160a01b0384166000908152606b6020526040902061215d9060060186846126b1565b50909695505050505050565b808211156121895760405162461bcd60e51b81526004016105a2906135e9565b60006121958284611d6c565b6001600160a01b0386166000908152606b60205260408120600c01549192506121be8287611d6c565b9050808311156122cd5760006121d48483611d6c565b60655460008b8152606c6020526040908190205490516323b872dd60e01b81529293506001600160a01b03918216926323b872dd9261221b9216903090869060040161317f565b602060405180830381600087803b15801561223557600080fd5b505af1158015612249573d6000803e3d6000fd5b505050506040513d601f19601f8201168201806040525081019061226d919061305d565b6122895760405162461bcd60e51b81526004016105a290613771565b6001600160a01b0388166000908152606b60205260409020600c01546122af9082612920565b6001600160a01b0389166000908152606b60205260409020600c0155505b5050505050505050565b6122e286868361265a565b6000806122f0868686611c00565b60408051606081018252868152602081018490529081018290526066549294509092509061232290606d90838861297a565b6066546001600160a01b0389166000908152606b6020526040902061234891838861297a565b506040805160608101825284815260208082018990528183018890526066546001600160a01b038c166000908152606b909252929020909161238f9160060190838861297a565b5050606680546000908152606c602052604080822080546001600160a01b039b8c166001600160a01b0319918216179091559254825290206001018054979098169616959095179095555050505050565b60006123eb30612da1565b15905090565b600054610100900460ff168061240a575061240a6123e0565b80612418575060005460ff16155b6124535760405162461bcd60e51b815260040180806020018281038252602e815260200180613900602e913960400191505060405180910390fd5b600054610100900460ff1615801561247e576000805460ff1961ff0019909116610100171660011790555b606580546001600160a01b0319166001600160a01b038716179055606a849055606883905560698290558015610d1c576000805461ff00191690555050505050565b600054610100900460ff16806124d957506124d96123e0565b806124e7575060005460ff16155b6125225760405162461bcd60e51b815260040180806020018281038252602e815260200180613900602e913960400191505060405180910390fd5b600054610100900460ff1615801561254d576000805460ff1961ff0019909116610100171660011790555b6000612557611cf3565b603380546001600160a01b0319166001600160a01b038316908117909155604051919250906000907f8be0079c531659141344cd1fd0a4f28419497f9722a3daafe3b4186f6b6457e0908290a35080156115ad576000805461ff001916905550565b600054610100900460ff16806125d257506125d26123e0565b806125e0575060005460ff16155b61261b5760405162461bcd60e51b815260040180806020018281038252602e815260200180613900602e913960400191505060405180910390fd5b600054610100900460ff16158015612646576000805460ff1961ff0019909116610100171660011790555b80156115ad576000805461ff001916905550565b612665606d82612029565b6001600160a01b0382166000908152606b602052604090206126879082612029565b6001600160a01b0383166000908152606b602052604090206126ac9060060182612029565b505050565b6000828152600280850160209081526040808420815160a0810183528154928101928352600182015460608201819052948201546080820152918252600301549181019190915282918291906127195760405162461bcd60e51b81526004016105a290613496565b80516127258887612029565b806020015194508060400151935060009250600061275f8360200151611cbf612757888a611dcf90919063ffffffff16565b855190612920565b905080871115612779576000955060009450505050612902565b6000612786826001611d6c565b90506000612795896001611d6c565b905060006127ab6127a68a8a612da7565b612d36565b905060006127cf60016108a08960200151896000015161292090919063ffffffff16565b9050808b11612822576127e76001611cbf838e611d6c565b97506127fe816127f68b612d36565b8f9190612e0e565b61281d846128158461280f8d612d36565b90612e3a565b8f9190612e9f565b6128a7565b838b1161287e5760058d0154612838908a611d6c565b60058e015561284e846128158461280f8d612d36565b61286f82611cbf8b6128698f8a611d6c90919063ffffffff16565b90612b93565b995061281d836127f68b612d36565b60058d015461288d9083611d6c565b60058e015590985088975087906128a7836127f684612d36565b6128b28d8684612e9f565b60048d01546128c1908b611d6c565b60048e015560008c815260028e0160205260408120600101556128fa836128e78c612d36565b8f600101612e0e9092919063ffffffff16565b505050505050505b93509350939050565b60006108a66001611cbf84611c7b8784611d6c565b6000828201838110156108a6576040805162461bcd60e51b815260206004820152601b60248201527f536166654d6174683a206164646974696f6e206f766572666c6f770000000000604482015290519081900360640190fd5b604082015161299b5760405162461bcd60e51b81526004016105a2906135a1565b8160200151826040015111156129c35760405162461bcd60e51b81526004016105a29061368e565b6000838152600285016020526040902060010154156129f45760405162461bcd60e51b81526004016105a290613504565b604080518082018252838152602080820184815260008781526002808a0184529085902093518051855592830151600185015591909301519082015590516003909101558151612a45908590612029565b60208201516004850154612a5891612920565b60048501558151600090612a6d906001611d6c565b9050612a8b81612a808560200151612d36565b600188019190612e9f565b6000612aa884604001518560200151611dcf90919063ffffffff16565b905082612ae85760408401516005870154612ac291612920565b60058701556040840151612ae3908390612adb90612d36565b889190612e9f565b612b1d565b6000612af48385612920565b9050612b0f81612b078760400151612d36565b899190612e9f565b612b198285612920565b9150505b6000612b3d6127a686604001518760200151612da790919063ffffffff16565b8551909150600090612b4f9084612920565b90506000612b5e826001611d6c565b9050612b7d81612b758561280f8b60400151612d36565b8b9190612e0e565b612b88898385612e0e565b505050505050505050565b600082612ba25750600061072e565b82820282848281612baf57fe5b04146108a65760405162461bcd60e51b815260040180806020018281038252602181526020018061392e6021913960400191505060405180910390fd5b600081612bfa575080612c72565b6005850154845b84811015612c6c57612c138483611d6c565b60008281526020899052604081205491955090612c339061209d85612d36565b90506000811215612c565760405162461bcd60e51b81526004016105a2906132b1565b915081612c64826001612920565b915050612c01565b83925050505b949350505050565b6005840154600090845b84811115612c6c57612c97816001611d6c565b600081815260018901602052604081205491925090612cb99061280f87612d36565b90506000811215612cdc5760405162461bcd60e51b81526004016105a290613352565b6000828152602089905260408120549195508591612cfd9061280f86612d36565b90506000811215612d205760405162461bcd60e51b81526004016105a2906132b1565b925082612d2d8682612920565b95505050612c84565b80610652565b6000828201818312801590612d515750838112155b80612d665750600083128015612d6657508381125b6108a65760405162461bcd60e51b81526004018080602001828103825260218152602001806138df6021913960400191505060405180910390fd5b3b151590565b6000808211612dfd576040805162461bcd60e51b815260206004820152601860248201527f536166654d6174683a206d6f64756c6f206279207a65726f0000000000000000604482015290519081900360640190fd5b818381612e0657fe5b069392505050565b600082815260208490526040902054612e279082612e3a565b6000928352602093909352506040902055565b6000818303818312801590612e4f5750838113155b80612e645750600083128015612e6457508381135b6108a65760405162461bcd60e51b815260040180806020018281038252602481526020018061396f6024913960400191505060405180910390fd5b600082815260208490526040902054612e279082612d3c565b600060208284031215612ec9578081fd5b81356108a6816138a3565b600080600080600060a08688031215612eeb578081fd5b8535612ef6816138a3565b94506020860135612f06816138a3565b94979496505050506040830135926060810135926080909101359150565b60008060408385031215612f36578182fd5b8235612f41816138a3565b946020939093013593505050565b60008060008060008060c08789031215612f67578081fd5b8635612f72816138a3565b95506020870135945060408701359350606087013560ff81168114612f95578182fd5b9598949750929560808101359460a0909101359350915050565b60006020808385031215612fc1578182fd5b823567ffffffffffffffff80821115612fd8578384fd5b818501915085601f830112612feb578384fd5b813581811115612ff757fe5b8381026040518582820101818110858211171561301057fe5b604052828152858101935084860182860187018a101561302e578788fd5b8795505b83861015613050578035855260019590950194938601938601613032565b5098975050505050505050565b60006020828403121561306e578081fd5b815180151581146108a6578182fd5b60008060008060808587031215613092578384fd5b843561309d816138a3565b966020860135965060408601359560600135945092505050565b6000602082840312156130c8578081fd5b5035919050565b600080604083850312156130e1578182fd5b8235915060208301356130f3816138a3565b809150509250929050565b600080600080600060a08688031215613115578081fd5b853594506020860135612f06816138a3565b60008060006060848603121561313b578283fd5b505081359360208301359350604090920135919050565b8051825260208082015190830152604090810151910152565b6001600160a01b0391909116815260200190565b6001600160a01b039384168152919092166020820152604081019190915260600190565b6001600160a01b03929092168252602082015260400190565b6001600160a01b0392831681529116602082015260400190565b6020808252825182820181905260009190848201906040850190845b8181101561215d578351835292840192918401916001016131f2565b901515815260200190565b918252602082015260400190565b6000602080835283518082850152825b8181101561325357858101830151858201604001528201613237565b818111156132645783604083870101525b50601f01601f1916929092016040019392505050565b6020808252601a908201527f6e657720736c6f706520706572696f64203e2032207965617273000000000000604082015260600190565b60208082526025908201527f736c6f7065203c20302c20736f6d657468696e672077726f6e67207769746820604082015264736c6f706560d81b606082015260800190565b6020808252600b908201526a1e995c9bc8185b5bdd5b9d60aa1b604082015260600190565b60208082526018908201527f63616c6c6572206e6f742061207374616b65206f776e65720000000000000000604082015260600190565b60208082526023908201527f62696173203c20302c20736f6d657468696e672077726f6e672077697468206260408201526269617360e81b606082015260800190565b6020808252600f908201526e1b9bdd081a5b5c1b195b595b9d1959608a1b604082015260600190565b6020808252600d908201526c636c69666620746f6f2062696760981b604082015260600190565b60208082526019908201527f64657465637420637574206465706f73697420636f726e657200000000000000604082015260600190565b6020808252601a908201527f6e657720636c69666620706572696f64203e2032207965617273000000000000604082015260600190565b60208082526023908201527f636c69666620706572696f64203c206d696e696d616c207374616b65207065726040820152621a5bd960ea1b606082015260800190565b6020808252601f908201527f52656d6f76696e67204c696e652c207768696368206e6f742065786973747300604082015260600190565b6020808252601a908201527f77726f6e67206e65775374617274696e67506f696e745765656b000000000000604082015260600190565b60208082526023908201527f4c696e65207769746820676976656e20696420697320616c72656164792065786040820152621a5cdd60ea1b606082015260800190565b6020808252600990820152686d6967726174696e6760b81b604082015260600190565b6020808252601f908201527f6e6577206c696e6520706572696f64207374616b6520746f6f2073686f727400604082015260600190565b60208082526028908201527f536c6f7065203d3d20302c20756e61636365707461626c652076616c756520666040820152676f7220736c6f706560c01b606082015260800190565b6020808252602f908201527f496d706f737369626c6520746f2072657374616b653a206c65737320616d6f7560408201526e6e742c207468656e206e6f7720697360881b606082015260800190565b6020808252600e908201526d706572696f6420746f6f2062696760901b604082015260600190565b602080825260149082015273756e657870656374656420706173742074696d6560601b604082015260600190565b6020808252602a908201527f536c6f7065203e20626961732c20756e61636365707461626c652076616c756560408201526920666f7220736c6f706560b01b606082015260800190565b60208082526025908201527f63616e2774207570646174652042726f6b656e4c696e6520666f7220706173746040820152642074696d6560d81b606082015260800190565b6020808252600d908201526c736c6f706520746f6f2062696760981b604082015260600190565b602080825260139082015272189b1bd8dac81b9bdd081e595d081b5a5b9959606a1b604082015260600190565b6020808252600f908201526e1d1c985b9cd9995c8819985a5b1959608a1b604082015260600190565b6020808252600790820152661cdd1bdc1c195960ca1b604082015260600190565b60208082526023908201527f736c6f706520706572696f64203c206d696e696d616c207374616b65207065726040820152621a5bd960ea1b606082015260800190565b6060810161072e8284613152565b90815260200190565b600060e08201905085825261382e602083018651613152565b6020949094015160808201526001600160a01b0392831660a0820152911660c090910152919050565b93845260208401929092526040830152606082015260800190565b948552602085019390935260408401919091526060830152608082015260a00190565b60ff91909116815260200190565b6001600160a01b03811681146115ad57600080fdfe4f776e61626c653a206e6577206f776e657220697320746865207a65726f20616464726573735369676e6564536166654d6174683a206164646974696f6e206f766572666c6f77496e697469616c697a61626c653a20636f6e747261637420697320616c726561647920696e697469616c697a6564536166654d6174683a206d756c7469706c69636174696f6e206f766572666c6f774f776e61626c653a2063616c6c6572206973206e6f7420746865206f776e65725369676e6564536166654d6174683a207375627472616374696f6e206f766572666c6f77dec2bacdd2f05b59de34da9b523dff8be42e5e38e818c82fdb0bae774387a724a264697066735822122032b31a7638b4b7328b0ca18a04f0f92f0788c0688561b5892049bf91bd0765ce64736f6c63430007060033",
  "immutableReferences": {},
  "source": "// SPDX-License-Identifier: MIT\n\npragma solidity 0.7.6;\npragma abicoder v2;\n\nimport \"./INextVersionStake.sol\";\nimport \"./StakingBase.sol\";\nimport \"./StakingRestake.sol\";\nimport \"./StakingVotes.sol\";\n\ncontract Staking is StakingBase, StakingRestake, StakingVotes {\n    using SafeMathUpgradeable for uint;\n    using LibBrokenLine for LibBrokenLine.BrokenLine;\n\n    function __Staking_init(IERC20Upgradeable _token, uint _startingPointWeek, uint _minCliffPeriod, uint _minSlopePeriod) external initializer {\n        __StakingBase_init_unchained(_token, _startingPointWeek, _minCliffPeriod, _minSlopePeriod);\n        __Ownable_init_unchained();\n        __Context_init_unchained();\n    }\n\n    function stop() external onlyOwner notStopped {\n        stopped = true;\n        emit StopStaking(msg.sender);\n    }\n\n    function startMigration(address to) external onlyOwner {\n        migrateTo = to;\n        emit StartMigration(msg.sender, to);\n    }\n\n    function stake(address account, address _delegate, uint amount, uint slope, uint cliff) external notStopped notMigrating returns (uint) {\n        require(amount > 0, \"zero amount\");\n        require(cliff <= TWO_YEAR_WEEKS, \"cliff too big\");\n        require(divUp(amount, slope) <= TWO_YEAR_WEEKS, \"period too big\");\n        require(token.transferFrom(msg.sender, address(this), amount), \"transfer failed\");\n\n        counter++;\n\n        uint time = roundTimestamp(getBlockNumber());\n        addLines(account, _delegate, amount, slope, cliff, time);\n        accounts[account].amount = accounts[account].amount.add(amount);\n        emit StakeCreate(counter, account, _delegate, time, amount, slope, cliff);\n\n        // IVotesUpgradeable events\n        emit DelegateChanged(account, address(0), _delegate);\n        emit DelegateVotesChanged(_delegate, 0, accounts[_delegate].balance.actualValue(time));\n        return counter;\n    }\n\n    function withdraw() external {\n        uint value = getAvailableForWithdraw(msg.sender);\n        if (value > 0) {\n            accounts[msg.sender].amount = accounts[msg.sender].amount.sub(value);\n            require(token.transfer(msg.sender, value), \"transfer failed\");\n        }\n        emit Withdraw(msg.sender, value);\n    }\n\n    // Amount available for withdrawal\n    function getAvailableForWithdraw(address account) public view returns (uint value) {\n        value = accounts[account].amount;\n        if (!stopped) {\n            uint time = roundTimestamp(getBlockNumber());\n            uint bias = accounts[account].locked.actualValue(time);\n            value = value.sub(bias);\n        }\n    }\n\n    //Remaining locked amount\n    function locked(address account) external view returns (uint) {\n        return accounts[account].amount;\n    }\n\n    //For a given Line id, the owner and delegate addresses.\n    function getAccountAndDelegate(uint id) external view returns (address account, address delegate) {\n        account = stakes[id].account;\n        delegate = stakes[id].delegate;\n    }\n\n    //Getting \"current week\" of the contract.\n    function getWeek() external view returns (uint) {\n        return roundTimestamp(getBlockNumber());\n    }\n\n    function delegateTo(uint id, address newDelegate) external notStopped notMigrating {\n        address account = verifyStakeOwner(id);\n        address _delegate = stakes[id].delegate;\n        uint time = roundTimestamp(getBlockNumber());\n        accounts[_delegate].balance.update(time);\n        (uint bias, uint slope, uint cliff) = accounts[_delegate].balance.remove(id, time);\n        LibBrokenLine.Line memory line = LibBrokenLine.Line(time, bias, slope);\n        accounts[newDelegate].balance.update(time);\n        accounts[newDelegate].balance.add(id, line, cliff);\n        stakes[id].delegate = newDelegate;\n        emit Delegate(id, account, newDelegate, time);\n\n        // IVotesUpgradeable events\n        emit DelegateChanged(account, _delegate, newDelegate);\n        emit DelegateVotesChanged(_delegate, 0, accounts[_delegate].balance.actualValue(time));\n        emit DelegateVotesChanged(newDelegate, 0, accounts[newDelegate].balance.actualValue(time));\n    }\n\n    function totalSupply() external view returns (uint) {\n        if ((totalSupplyLine.initial.bias == 0) || (stopped)) {\n            return 0;\n        }\n        uint time = roundTimestamp(getBlockNumber());\n        return totalSupplyLine.actualValue(time);\n    }\n\n    function balanceOf(address account) external view returns (uint) {\n        if ((accounts[account].balance.initial.bias == 0) || (stopped)) {\n            return 0;\n        }\n        uint time = roundTimestamp(getBlockNumber());\n        return accounts[account].balance.actualValue(time);\n    }\n\n    function migrate(uint[] memory id) external {\n        if (migrateTo == address(0)) {\n            return;\n        }\n        uint time = roundTimestamp(getBlockNumber());\n        INextVersionStake nextVersionStake = INextVersionStake(migrateTo);\n        for (uint256 i = 0; i < id.length; i++) {\n            address account = verifyStakeOwner(id[i]);\n            address _delegate = stakes[id[i]].delegate;\n            updateLines(account, _delegate, time);\n            //save data Line before remove\n            LibBrokenLine.LineData memory lineData = accounts[account].locked.initiatedLines[id[i]];\n            (uint residue,,) = accounts[account].locked.remove(id[i], time);\n\n            require(token.transfer(migrateTo, residue), \"transfer failed\");\n            accounts[account].amount = accounts[account].amount.sub(residue);\n\n            accounts[_delegate].balance.remove(id[i], time);\n            totalSupplyLine.remove(id[i], time);\n            nextVersionStake.initiateData(id[i], lineData, account, _delegate);\n        }\n        emit Migrate(msg.sender, id);\n    }\n\n    function name() public view virtual returns (string memory) {\n        return \"Rarible Vote-Escrow\";\n    }\n\n    function symbol() public view virtual returns (string memory) {\n        return \"veRARI\";\n    }\n\n    function decimals() public view virtual returns (uint8) {\n        return 18;\n    }\n\n    uint256[50] private __gap;\n}",
  "sourcePath": "/home/vfadeev/Documents/projects/rarible/protocol-contracts-npm-fix/protocol-contracts/staking/contracts/Staking.sol",
  "compiler": {
    "name": "solc",
    "version": "0.7.6+commit.7338295f.Emscripten.clang"
  },
  "schemaVersion": "3.4.3",
  "updatedAt": "2022-10-07T11:03:02.193Z",
  "devdoc": {
    "kind": "dev",
    "methods": {
      "delegate(address)": {
        "details": "Delegates votes from the sender to `delegatee`."
      },
      "delegateBySig(address,uint256,uint256,uint8,bytes32,bytes32)": {
        "details": "Delegates votes from signer to `delegatee`."
      },
      "delegates(address)": {
        "details": "Returns the delegate that `account` has chosen."
      },
      "getPastTotalSupply(uint256)": {
        "details": "Returns the total supply of votes available  at the end of the last period"
      },
      "getPastVotes(address,uint256)": {
        "details": "Returns the amount of votes that `account` had at the end of the last period"
      },
      "getVotes(address)": {
        "details": "Returns the current amount of votes that `account` has."
      },
      "owner()": {
        "details": "Returns the address of the current owner."
      },
      "renounceOwnership()": {
        "details": "Leaves the contract without owner. It will not be possible to call `onlyOwner` functions anymore. Can only be called by the current owner. NOTE: Renouncing ownership will leave the contract without an owner, thereby removing any functionality that is only available to the owner."
      },
      "transferOwnership(address)": {
        "details": "Transfers ownership of the contract to a new account (`newOwner`). Can only be called by the current owner."
      }
    },
    "version": 1
  },
  "userdoc": {
    "kind": "user",
    "methods": {
      "getStake(uint256,uint256,uint256)": {
        "notice": "alculate and return (newAmount, newSlope), using formula: staking = (tokens * (      ST_FORMULA_CONST_MULTIPLIER      + ST_FORMULA_CLIFF_MULTIPLIER * (cliffPeriod - minCliffPeriod))/(TWO_YEAR_WEEKS - minCliffPeriod)      + ST_FORMULA_SLOPE_MULTIPLIER * (slopePeriod - minSlopePeriod))/(TWO_YEAR_WEEKS - minSlopePeriod)      )) / ST_FORMULA_DIVIDER*"
      }
    },
    "version": 1
  }
}