{
  "contractName": "Staking",
  "abi": [
    {
      "anonymous": false,
      "inputs": [
        {
          "indexed": true,
          "internalType": "uint256",
          "name": "id",
          "type": "uint256"
        },
        {
          "indexed": true,
          "internalType": "address",
          "name": "account",
          "type": "address"
        },
        {
          "indexed": true,
          "internalType": "address",
          "name": "delegate",
          "type": "address"
        },
        {
          "indexed": false,
          "internalType": "uint256",
          "name": "time",
          "type": "uint256"
        }
      ],
      "name": "Delegate",
      "type": "event"
    },
    {
      "anonymous": false,
      "inputs": [
        {
          "indexed": true,
          "internalType": "address",
          "name": "delegator",
          "type": "address"
        },
        {
          "indexed": true,
          "internalType": "address",
          "name": "fromDelegate",
          "type": "address"
        },
        {
          "indexed": true,
          "internalType": "address",
          "name": "toDelegate",
          "type": "address"
        }
      ],
      "name": "DelegateChanged",
      "type": "event"
    },
    {
      "anonymous": false,
      "inputs": [
        {
          "indexed": true,
          "internalType": "address",
          "name": "delegate",
          "type": "address"
        },
        {
          "indexed": false,
          "internalType": "uint256",
          "name": "previousBalance",
          "type": "uint256"
        },
        {
          "indexed": false,
          "internalType": "uint256",
          "name": "newBalance",
          "type": "uint256"
        }
      ],
      "name": "DelegateVotesChanged",
      "type": "event"
    },
    {
      "anonymous": false,
      "inputs": [
        {
          "indexed": true,
          "internalType": "address",
          "name": "account",
          "type": "address"
        },
        {
          "indexed": false,
          "internalType": "uint256[]",
          "name": "id",
          "type": "uint256[]"
        }
      ],
      "name": "Migrate",
      "type": "event"
    },
    {
      "anonymous": false,
      "inputs": [
        {
          "indexed": true,
          "internalType": "address",
          "name": "previousOwner",
          "type": "address"
        },
        {
          "indexed": true,
          "internalType": "address",
          "name": "newOwner",
          "type": "address"
        }
      ],
      "name": "OwnershipTransferred",
      "type": "event"
    },
    {
      "anonymous": false,
      "inputs": [
        {
          "indexed": true,
          "internalType": "uint256",
          "name": "id",
          "type": "uint256"
        },
        {
          "indexed": true,
          "internalType": "address",
          "name": "account",
          "type": "address"
        },
        {
          "indexed": true,
          "internalType": "address",
          "name": "delegate",
          "type": "address"
        },
        {
          "indexed": false,
          "internalType": "uint256",
          "name": "counter",
          "type": "uint256"
        },
        {
          "indexed": false,
          "internalType": "uint256",
          "name": "time",
          "type": "uint256"
        },
        {
          "indexed": false,
          "internalType": "uint256",
          "name": "amount",
          "type": "uint256"
        },
        {
          "indexed": false,
          "internalType": "uint256",
          "name": "slope",
          "type": "uint256"
        },
        {
          "indexed": false,
          "internalType": "uint256",
          "name": "cliff",
          "type": "uint256"
        }
      ],
      "name": "Restake",
      "type": "event"
    },
    {
      "anonymous": false,
      "inputs": [
        {
          "indexed": true,
          "internalType": "uint256",
          "name": "newMinCliffPeriod",
          "type": "uint256"
        }
      ],
      "name": "SetMinCliffPeriod",
      "type": "event"
    },
    {
      "anonymous": false,
      "inputs": [
        {
          "indexed": true,
          "internalType": "uint256",
          "name": "newMinSlopePeriod",
          "type": "uint256"
        }
      ],
      "name": "SetMinSlopePeriod",
      "type": "event"
    },
    {
      "anonymous": false,
      "inputs": [
        {
          "indexed": true,
          "internalType": "uint256",
          "name": "newStartingPointWeek",
          "type": "uint256"
        }
      ],
      "name": "SetStartingPointWeek",
      "type": "event"
    },
    {
      "anonymous": false,
      "inputs": [
        {
          "indexed": true,
          "internalType": "uint256",
          "name": "id",
          "type": "uint256"
        },
        {
          "indexed": true,
          "internalType": "address",
          "name": "account",
          "type": "address"
        },
        {
          "indexed": true,
          "internalType": "address",
          "name": "delegate",
          "type": "address"
        },
        {
          "indexed": false,
          "internalType": "uint256",
          "name": "time",
          "type": "uint256"
        },
        {
          "indexed": false,
          "internalType": "uint256",
          "name": "amount",
          "type": "uint256"
        },
        {
          "indexed": false,
          "internalType": "uint256",
          "name": "slope",
          "type": "uint256"
        },
        {
          "indexed": false,
          "internalType": "uint256",
          "name": "cliff",
          "type": "uint256"
        }
      ],
      "name": "StakeCreate",
      "type": "event"
    },
    {
      "anonymous": false,
      "inputs": [
        {
          "indexed": true,
          "internalType": "address",
          "name": "account",
          "type": "address"
        },
        {
          "indexed": true,
          "internalType": "address",
          "name": "to",
          "type": "address"
        }
      ],
      "name": "StartMigration",
      "type": "event"
    },
    {
      "anonymous": false,
      "inputs": [
        {
          "indexed": true,
          "internalType": "address",
          "name": "account",
          "type": "address"
        }
      ],
      "name": "StopStaking",
      "type": "event"
    },
    {
      "anonymous": false,
      "inputs": [
        {
          "indexed": true,
          "internalType": "address",
          "name": "account",
          "type": "address"
        },
        {
          "indexed": false,
          "internalType": "uint256",
          "name": "amount",
          "type": "uint256"
        }
      ],
      "name": "Withdraw",
      "type": "event"
    },
    {
      "inputs": [],
      "name": "WEEK",
      "outputs": [
        {
          "internalType": "uint256",
          "name": "",
          "type": "uint256"
        }
      ],
      "stateMutability": "view",
      "type": "function",
      "constant": true
    },
    {
      "inputs": [],
      "name": "counter",
      "outputs": [
        {
          "internalType": "uint256",
          "name": "",
          "type": "uint256"
        }
      ],
      "stateMutability": "view",
      "type": "function",
      "constant": true
    },
    {
      "inputs": [
        {
          "internalType": "address",
          "name": "delegatee",
          "type": "address"
        }
      ],
      "name": "delegate",
      "outputs": [],
      "stateMutability": "nonpayable",
      "type": "function"
    },
    {
      "inputs": [
        {
          "internalType": "address",
          "name": "delegatee",
          "type": "address"
        },
        {
          "internalType": "uint256",
          "name": "nonce",
          "type": "uint256"
        },
        {
          "internalType": "uint256",
          "name": "expiry",
          "type": "uint256"
        },
        {
          "internalType": "uint8",
          "name": "v",
          "type": "uint8"
        },
        {
          "internalType": "bytes32",
          "name": "r",
          "type": "bytes32"
        },
        {
          "internalType": "bytes32",
          "name": "s",
          "type": "bytes32"
        }
      ],
      "name": "delegateBySig",
      "outputs": [],
      "stateMutability": "nonpayable",
      "type": "function"
    },
    {
      "inputs": [
        {
          "internalType": "address",
          "name": "account",
          "type": "address"
        }
      ],
      "name": "delegates",
      "outputs": [
        {
          "internalType": "address",
          "name": "",
          "type": "address"
        }
      ],
      "stateMutability": "view",
      "type": "function",
      "constant": true
    },
    {
      "inputs": [
        {
          "internalType": "uint256",
          "name": "blockNumber",
          "type": "uint256"
        }
      ],
      "name": "getPastTotalSupply",
      "outputs": [
        {
          "internalType": "uint256",
          "name": "",
          "type": "uint256"
        }
      ],
      "stateMutability": "view",
      "type": "function",
      "constant": true
    },
    {
      "inputs": [
        {
          "internalType": "address",
          "name": "account",
          "type": "address"
        },
        {
          "internalType": "uint256",
          "name": "blockNumber",
          "type": "uint256"
        }
      ],
      "name": "getPastVotes",
      "outputs": [
        {
          "internalType": "uint256",
          "name": "",
          "type": "uint256"
        }
      ],
      "stateMutability": "view",
      "type": "function",
      "constant": true
    },
    {
      "inputs": [
        {
          "internalType": "uint256",
          "name": "amount",
          "type": "uint256"
        },
        {
          "internalType": "uint256",
          "name": "slope",
          "type": "uint256"
        },
        {
          "internalType": "uint256",
          "name": "cliff",
          "type": "uint256"
        }
      ],
      "name": "getStake",
      "outputs": [
        {
          "internalType": "uint256",
          "name": "stakeAmount",
          "type": "uint256"
        },
        {
          "internalType": "uint256",
          "name": "stakeSlope",
          "type": "uint256"
        }
      ],
      "stateMutability": "view",
      "type": "function",
      "constant": true
    },
    {
      "inputs": [
        {
          "internalType": "address",
          "name": "account",
          "type": "address"
        }
      ],
      "name": "getVotes",
      "outputs": [
        {
          "internalType": "uint256",
          "name": "",
          "type": "uint256"
        }
      ],
      "stateMutability": "view",
      "type": "function",
      "constant": true
    },
    {
      "inputs": [],
      "name": "migrateTo",
      "outputs": [
        {
          "internalType": "address",
          "name": "",
          "type": "address"
        }
      ],
      "stateMutability": "view",
      "type": "function",
      "constant": true
    },
    {
      "inputs": [],
      "name": "minCliffPeriod",
      "outputs": [
        {
          "internalType": "uint256",
          "name": "",
          "type": "uint256"
        }
      ],
      "stateMutability": "view",
      "type": "function",
      "constant": true
    },
    {
      "inputs": [],
      "name": "minSlopePeriod",
      "outputs": [
        {
          "internalType": "uint256",
          "name": "",
          "type": "uint256"
        }
      ],
      "stateMutability": "view",
      "type": "function",
      "constant": true
    },
    {
      "inputs": [],
      "name": "owner",
      "outputs": [
        {
          "internalType": "address",
          "name": "",
          "type": "address"
        }
      ],
      "stateMutability": "view",
      "type": "function",
      "constant": true
    },
    {
      "inputs": [],
      "name": "renounceOwnership",
      "outputs": [],
      "stateMutability": "nonpayable",
      "type": "function"
    },
    {
      "inputs": [
        {
          "internalType": "uint256",
          "name": "id",
          "type": "uint256"
        },
        {
          "internalType": "address",
          "name": "newDelegate",
          "type": "address"
        },
        {
          "internalType": "uint256",
          "name": "newAmount",
          "type": "uint256"
        },
        {
          "internalType": "uint256",
          "name": "newSlope",
          "type": "uint256"
        },
        {
          "internalType": "uint256",
          "name": "newCliff",
          "type": "uint256"
        }
      ],
      "name": "restake",
      "outputs": [
        {
          "internalType": "uint256",
          "name": "",
          "type": "uint256"
        }
      ],
      "stateMutability": "nonpayable",
      "type": "function"
    },
    {
      "inputs": [
        {
          "internalType": "uint256",
          "name": "newMinCliffPeriod",
          "type": "uint256"
        }
      ],
      "name": "setMinCliffPeriod",
      "outputs": [],
      "stateMutability": "nonpayable",
      "type": "function"
    },
    {
      "inputs": [
        {
          "internalType": "uint256",
          "name": "newMinSlopePeriod",
          "type": "uint256"
        }
      ],
      "name": "setMinSlopePeriod",
      "outputs": [],
      "stateMutability": "nonpayable",
      "type": "function"
    },
    {
      "inputs": [
        {
          "internalType": "uint256",
          "name": "newStartingPointWeek",
          "type": "uint256"
        }
      ],
      "name": "setStartingPointWeek",
      "outputs": [],
      "stateMutability": "nonpayable",
      "type": "function"
    },
    {
      "inputs": [],
      "name": "startingPointWeek",
      "outputs": [
        {
          "internalType": "uint256",
          "name": "",
          "type": "uint256"
        }
      ],
      "stateMutability": "view",
      "type": "function",
      "constant": true
    },
    {
      "inputs": [],
      "name": "stopped",
      "outputs": [
        {
          "internalType": "bool",
          "name": "",
          "type": "bool"
        }
      ],
      "stateMutability": "view",
      "type": "function",
      "constant": true
    },
    {
      "inputs": [],
      "name": "token",
      "outputs": [
        {
          "internalType": "contract IERC20Upgradeable",
          "name": "",
          "type": "address"
        }
      ],
      "stateMutability": "view",
      "type": "function",
      "constant": true
    },
    {
      "inputs": [],
      "name": "totalSupplyLine",
      "outputs": [
        {
          "components": [
            {
              "internalType": "uint256",
              "name": "start",
              "type": "uint256"
            },
            {
              "internalType": "uint256",
              "name": "bias",
              "type": "uint256"
            },
            {
              "internalType": "uint256",
              "name": "slope",
              "type": "uint256"
            }
          ],
          "internalType": "struct LibBrokenLine.Line",
          "name": "initial",
          "type": "tuple"
        }
      ],
      "stateMutability": "view",
      "type": "function",
      "constant": true
    },
    {
      "inputs": [
        {
          "internalType": "address",
          "name": "newOwner",
          "type": "address"
        }
      ],
      "name": "transferOwnership",
      "outputs": [],
      "stateMutability": "nonpayable",
      "type": "function"
    },
    {
      "inputs": [
        {
          "internalType": "contract IERC20Upgradeable",
          "name": "_token",
          "type": "address"
        },
        {
          "internalType": "uint256",
          "name": "_startingPointWeek",
          "type": "uint256"
        }
      ],
      "name": "__Staking_init",
      "outputs": [],
      "stateMutability": "nonpayable",
      "type": "function"
    },
    {
      "inputs": [],
      "name": "stop",
      "outputs": [],
      "stateMutability": "nonpayable",
      "type": "function"
    },
    {
      "inputs": [
        {
          "internalType": "address",
          "name": "to",
          "type": "address"
        }
      ],
      "name": "startMigration",
      "outputs": [],
      "stateMutability": "nonpayable",
      "type": "function"
    },
    {
      "inputs": [
        {
          "internalType": "address",
          "name": "account",
          "type": "address"
        },
        {
          "internalType": "address",
          "name": "_delegate",
          "type": "address"
        },
        {
          "internalType": "uint256",
          "name": "amount",
          "type": "uint256"
        },
        {
          "internalType": "uint256",
          "name": "slope",
          "type": "uint256"
        },
        {
          "internalType": "uint256",
          "name": "cliff",
          "type": "uint256"
        }
      ],
      "name": "stake",
      "outputs": [
        {
          "internalType": "uint256",
          "name": "",
          "type": "uint256"
        }
      ],
      "stateMutability": "nonpayable",
      "type": "function"
    },
    {
      "inputs": [],
      "name": "withdraw",
      "outputs": [],
      "stateMutability": "nonpayable",
      "type": "function"
    },
    {
      "inputs": [
        {
          "internalType": "address",
          "name": "account",
          "type": "address"
        }
      ],
      "name": "getAvailableForWithdraw",
      "outputs": [
        {
          "internalType": "uint256",
          "name": "value",
          "type": "uint256"
        }
      ],
      "stateMutability": "view",
      "type": "function",
      "constant": true
    },
    {
      "inputs": [
        {
          "internalType": "address",
          "name": "account",
          "type": "address"
        }
      ],
      "name": "locked",
      "outputs": [
        {
          "internalType": "uint256",
          "name": "",
          "type": "uint256"
        }
      ],
      "stateMutability": "view",
      "type": "function",
      "constant": true
    },
    {
      "inputs": [
        {
          "internalType": "uint256",
          "name": "id",
          "type": "uint256"
        }
      ],
      "name": "getAccountAndDelegate",
      "outputs": [
        {
          "internalType": "address",
          "name": "account",
          "type": "address"
        },
        {
          "internalType": "address",
          "name": "delegate",
          "type": "address"
        }
      ],
      "stateMutability": "view",
      "type": "function",
      "constant": true
    },
    {
      "inputs": [],
      "name": "getWeek",
      "outputs": [
        {
          "internalType": "uint256",
          "name": "",
          "type": "uint256"
        }
      ],
      "stateMutability": "view",
      "type": "function",
      "constant": true
    },
    {
      "inputs": [
        {
          "internalType": "uint256",
          "name": "id",
          "type": "uint256"
        },
        {
          "internalType": "address",
          "name": "newDelegate",
          "type": "address"
        }
      ],
      "name": "delegateTo",
      "outputs": [],
      "stateMutability": "nonpayable",
      "type": "function"
    },
    {
      "inputs": [],
      "name": "totalSupply",
      "outputs": [
        {
          "internalType": "uint256",
          "name": "",
          "type": "uint256"
        }
      ],
      "stateMutability": "view",
      "type": "function",
      "constant": true
    },
    {
      "inputs": [
        {
          "internalType": "address",
          "name": "account",
          "type": "address"
        }
      ],
      "name": "balanceOf",
      "outputs": [
        {
          "internalType": "uint256",
          "name": "",
          "type": "uint256"
        }
      ],
      "stateMutability": "view",
      "type": "function",
      "constant": true
    },
    {
      "inputs": [
        {
          "internalType": "uint256[]",
          "name": "id",
          "type": "uint256[]"
        }
      ],
      "name": "migrate",
      "outputs": [],
      "stateMutability": "nonpayable",
      "type": "function"
    },
    {
      "inputs": [],
      "name": "name",
      "outputs": [
        {
          "internalType": "string",
          "name": "",
          "type": "string"
        }
      ],
      "stateMutability": "view",
      "type": "function",
      "constant": true
    },
    {
      "inputs": [],
      "name": "symbol",
      "outputs": [
        {
          "internalType": "string",
          "name": "",
          "type": "string"
        }
      ],
      "stateMutability": "view",
      "type": "function",
      "constant": true
    },
    {
      "inputs": [],
      "name": "decimals",
      "outputs": [
        {
          "internalType": "uint8",
          "name": "",
          "type": "uint8"
        }
      ],
      "stateMutability": "view",
      "type": "function",
      "constant": true
    }
  ],
  "bytecode": "0x608060405234801561001057600080fd5b5061393b806100206000396000f3fe608060405234801561001057600080fd5b506004361061023d5760003560e01c80638e539e8c1161013b578063b6231633116100b8578063f2fde38b1161007c578063f2fde38b1461047a578063f4359ce51461048d578063fc0c546a14610495578063fc7881c61461049d578063fecf0fdd146104b05761023d565b8063b62316331461042b578063c3cda52014610433578063cbf9fe5f14610441578063d93bf4fe14610454578063f108fa93146104675761023d565b8063a0f52da0116100ff578063a0f52da0146103d5578063a8edafbe146103e8578063ac7ae589146103fb578063acc9b64814610403578063b53546ab146104165761023d565b80638e539e8c1461038c57806395d89b411461039f57806398c6e760146103a757806399eccf62146103af5780639ab24eb0146103c25761023d565b80635c19a95c116101c957806370a082311161018d57806370a082311461034c578063715018a61461035f57806375f12b2114610367578063874d6d811461037c5780638da5cb5b146103845761023d565b80635c19a95c1461030357806361bc221a1461031657806367c8c4731461031e5780636bde67d8146103265780636d7bfe25146103395761023d565b806318160ddd1161021057806318160ddd146102ab578063313ce567146102b35780633a46b1a8146102c85780633ccfd60b146102db578063587cde1e146102e35761023d565b806306fdde031461024257806307da68f5146102605780630fc8deca1461026a57806315622e231461028a575b600080fd5b61024a6104d1565b604051610257919061317a565b60405180910390f35b6102686104f7565b005b61027d610278366004612e45565b6105bf565b604051610257919061375f565b61029d61029836600461300a565b610636565b60405161025792919061310f565b61027d61065d565b6102bb61069e565b60405161025791906137e8565b61027d6102d6366004612eb1565b6106a3565b610268610713565b6102f66102f1366004612e45565b61083c565b60405161025791906130be565b610268610311366004612e45565b610856565b61027d61086e565b61027d610874565b61027d610334366004613051565b61087a565b610268610347366004612eb1565b610ac0565b61027d61035a366004612e45565b610b7e565b610268610bee565b61036f610c9a565b6040516102579190613161565b61027d610ca3565b6102f6610cb5565b61027d61039a36600461300a565b610cc4565b61024a610d13565b6102f6610d30565b6102686103bd36600461300a565b610d44565b61027d6103d0366004612e45565b610e4a565b6102686103e3366004612e45565b610e78565b6102686103f636600461300a565b610f2e565b61027d61103d565b61026861041136600461300a565b611043565b61041e611149565b6040516102579190613751565b61027d61116d565b610268610311366004612edc565b61027d61044f366004612e45565b611173565b610268610462366004612f3c565b611191565b61027d610475366004612e61565b611536565b610268610488366004612e45565b6117dc565b61027d6118df565b6102f66118e4565b6102686104ab366004613022565b6118f3565b6104c36104be36600461307a565b611b85565b60405161025792919061316c565b60408051808201909152600b81526a526172695374616b696e6760a81b60208201525b90565b6104ff611c78565b6001600160a01b0316610510610cb5565b6001600160a01b031614610559576040805162461bcd60e51b815260206004820181905260248201526000805160206138a2833981519152604482015290519081900360640190fd5b60675460ff16156105855760405162461bcd60e51b815260040161057c906136ed565b60405180910390fd5b6067805460ff1916600117905560405133907f6bc4e1d7a91902d97533e9181b5ca4c1e8a90725e767a9b8cdbbcf901ba554fe90600090a2565b6001600160a01b0381166000908152606b60205260409020600c015460675460ff166106315760006105f76105f2611c7c565b611c80565b6001600160a01b0384166000908152606b60205260408120919250906106209060060183611c9b565b905061062c8382611d0c565b925050505b919050565b6000908152606c6020526040902080546001909101546001600160a01b0391821692911690565b6071546000901580610671575060675460ff165b1561067e575060006104f4565b600061068b6105f2611c7c565b9050610698606d82611c9b565b91505090565b601290565b6000806106af83611c80565b90506106b9611c7c565b831080156106c75750600081115b6106e35760405162461bcd60e51b815260040161057c90613697565b6001600160a01b0384166000908152606b60205260409020610709906000198301611c9b565b9150505b92915050565b600061071e336105bf565b905080156107f857336000908152606b60205260409020600c01546107439082611d0c565b336000818152606b602052604090819020600c0192909255606554915163a9059cbb60e01b81526001600160a01b039092169163a9059cbb9161078a9185906004016130f6565b602060405180830381600087803b1580156107a457600080fd5b505af11580156107b8573d6000803e3d6000fd5b505050506040513d601f19601f820116820180604052508101906107dc9190612fea565b6107f85760405162461bcd60e51b815260040161057c906136c4565b336001600160a01b03167f884edad9ce6fa2440d8a54cc123490eb96d2768479d49ff9c7366125a942436482604051610831919061375f565b60405180910390a250565b600060405162461bcd60e51b815260040161057c906132e8565b60405162461bcd60e51b815260040161057c906132e8565b60665481565b60685481565b60675460009060ff16156108a05760405162461bcd60e51b815260040161057c906136ed565b60675461010090046001600160a01b0316156108ce5760405162461bcd60e51b815260040161057c9061349a565b60006108d987611d69565b905060006108e86105f2611c7c565b90506108f8828988888886611da0565b6000888152606c60209081526040808320600101546001600160a01b038681168552606b90935292209116906109319060060183611f5c565b6001600160a01b0383166000908152606b60205260409020600a0154610967908a90859061096183838789612026565b8b61209c565b60668054600101905561097e83898989898761220a565b876001600160a01b0316836001600160a01b03168a7fed21ca2fb4312d282540746b7f00899205aee2bd522dcbb837405aea6a92b52a606654868c8c8c6040516109cc9594939291906137c5565b60405180910390a4876001600160a01b0316816001600160a01b0316846001600160a01b03167f3134e8a2e6d97e929a7e54011ea5485d7d196dd5f0ba4d4ef95803e8e3fc257f60405160405180910390a46001600160a01b0381166000818152606b602052604081206000805160206138e68339815191529190610a519086611c9b565b604051610a5f92919061316c565b60405180910390a26001600160a01b0388166000818152606b602052604081206000805160206138e68339815191529190610a9a9086611c9b565b604051610aa892919061316c565b60405180910390a25050606654979650505050505050565b600054610100900460ff1680610ad95750610ad9612313565b80610ae7575060005460ff16155b610b225760405162461bcd60e51b815260040180806020018281038252602e815260200180613853602e913960400191505060405180910390fd5b600054610100900460ff16158015610b4d576000805460ff1961ff0019909116610100171660011790555b610b578383612324565b610b5f6123e7565b610b676124e0565b8015610b79576000805461ff00191690555b505050565b6001600160a01b0381166000908152606b60205260408120600401541580610ba8575060675460ff165b15610bb557506000610631565b6000610bc26105f2611c7c565b6001600160a01b0384166000908152606b60205260409020909150610be79082611c9b565b9392505050565b610bf6611c78565b6001600160a01b0316610c07610cb5565b6001600160a01b031614610c50576040805162461bcd60e51b815260206004820181905260248201526000805160206138a2833981519152604482015290519081900360640190fd5b6033546040516000916001600160a01b0316907f8be0079c531659141344cd1fd0a4f28419497f9722a3daafe3b4186f6b6457e0908390a3603380546001600160a01b0319169055565b60675460ff1681565b6000610cb06105f2611c7c565b905090565b6033546001600160a01b031690565b600080610cd083611c80565b9050610cda611c7c565b83108015610ce85750600081115b610d045760405162461bcd60e51b815260040161057c90613697565b610be7606d6000198301611c9b565b6040805180820190915260038152621494d560ea1b602082015290565b60675461010090046001600160a01b031681565b60675460ff1615610d675760405162461bcd60e51b815260040161057c906136ed565b60675461010090046001600160a01b031615610d955760405162461bcd60e51b815260040161057c9061349a565b610d9d611c78565b6001600160a01b0316610dae610cb5565b6001600160a01b031614610df7576040805162461bcd60e51b815260206004820181905260248201526000805160206138a2833981519152604482015290519081900360640190fd5b60688110610e175760405162461bcd60e51b815260040161057c906131cd565b606981905560405181907f88345dd2cdc36a4778bf7fed510015cf81efda1a773e1b6360fde7cb1631b21090600090a250565b600061070d610e5a6105f2611c7c565b6001600160a01b0384166000908152606b6020526040902090611c9b565b610e80611c78565b6001600160a01b0316610e91610cb5565b6001600160a01b031614610eda576040805162461bcd60e51b815260206004820181905260248201526000805160206138a2833981519152604482015290519081900360640190fd5b60678054610100600160a81b0319166101006001600160a01b0384169081029190911790915560405133907f51ace7fc4e2a9f6104449d0bbe0532efdfd8dfebc68b225b91dd1de3bbb804fd90600090a350565b60675460ff1615610f515760405162461bcd60e51b815260040161057c906136ed565b60675461010090046001600160a01b031615610f7f5760405162461bcd60e51b815260040161057c9061349a565b610f87611c78565b6001600160a01b0316610f98610cb5565b6001600160a01b031614610fe1576040805162461bcd60e51b815260206004820181905260248201526000805160206138a2833981519152604482015290519081900360640190fd5b610fec6105f2611c7c565b811061100a5760405162461bcd60e51b815260040161057c90613420565b606a81905560405181907f2f807974bc9b84320f39300f6395b257c58bb285c61d262ec17c8332772d683690600090a250565b606a5481565b60675460ff16156110665760405162461bcd60e51b815260040161057c906136ed565b60675461010090046001600160a01b0316156110945760405162461bcd60e51b815260040161057c9061349a565b61109c611c78565b6001600160a01b03166110ad610cb5565b6001600160a01b0316146110f6576040805162461bcd60e51b815260206004820181905260248201526000805160206138a2833981519152604482015290519081900360640190fd5b606881106111165760405162461bcd60e51b815260040161057c9061336f565b606881905560405181907fa21222d0eed205eed6a46ed1fe7faf1d0b5d097b9e04a6d4e59b7f1debfc8b2b90600090a250565b60408051606081018252607054815260715460208201526072549181019190915281565b60695481565b6001600160a01b03166000908152606b60205260409020600c015490565b60675461010090046001600160a01b03166111ab57611533565b60006111b86105f2611c7c565b60675490915061010090046001600160a01b031660005b83518110156114ee5760006111f68583815181106111e957fe5b6020026020010151611d69565b90506000606c600087858151811061120a57fe5b6020908102919091018101518252810191909152604001600020600101546001600160a01b0316905061123e828287612581565b6001600160a01b0382166000908152606b602052604081208751600890910190829089908790811061126c57fe5b6020026020010151815260200190815260200160002060405180604001604052908160008201604051806060016040529081600082015481526020016001820154815260200160028201548152505081526020016003820154815250509050600061130b8886815181106112dc57fe5b6020908102919091018101516001600160a01b0387166000908152606b909252604090912060060190896125d3565b505060655460675460405163a9059cbb60e01b81529293506001600160a01b039182169263a9059cbb9261134a926101009004169085906004016130f6565b602060405180830381600087803b15801561136457600080fd5b505af1158015611378573d6000803e3d6000fd5b505050506040513d601f19601f8201168201806040525081019061139c9190612fea565b6113b85760405162461bcd60e51b815260040161057c906136c4565b6001600160a01b0384166000908152606b60205260409020600c01546113de9082611d0c565b6001600160a01b0385166000908152606b60205260409020600c015587516114389089908790811061140c57fe5b6020908102919091018101516001600160a01b0386166000908152606b909252604090912090896125d3565b50505061146488868151811061144a57fe5b602002602001015188606d6125d39092919063ffffffff16565b505050856001600160a01b0316638d7cdec289878151811061148257fe5b60200260200101518487876040518563ffffffff1660e01b81526004016114ac9493929190613768565b600060405180830381600087803b1580156114c657600080fd5b505af11580156114da573d6000803e3d6000fd5b5050600190960195506111cf945050505050565b50336001600160a01b03167f9302ff85f986fa03af144f0430ecea91ded0b24af1655f46bde13c1d3c13b76b846040516115289190613129565b60405180910390a250505b50565b60675460009060ff161561155c5760405162461bcd60e51b815260040161057c906136ed565b60675461010090046001600160a01b03161561158a5760405162461bcd60e51b815260040161057c9061349a565b600084116115aa5760405162461bcd60e51b815260040161057c90613249565b60688211156115cb5760405162461bcd60e51b815260040161057c90613311565b60686115d78585612831565b11156115f55760405162461bcd60e51b815260040161057c9061358b565b6065546040516323b872dd60e01b81526001600160a01b03909116906323b872dd90611629903390309089906004016130d2565b602060405180830381600087803b15801561164357600080fd5b505af1158015611657573d6000803e3d6000fd5b505050506040513d601f19601f8201168201806040525081019061167b9190612fea565b6116975760405162461bcd60e51b815260040161057c906136c4565b60668054600101905560006116ad6105f2611c7c565b90506116bd87878787878661220a565b6001600160a01b0387166000908152606b60205260409020600c01546116e39086612846565b6001600160a01b038089166000818152606b602052604090819020600c019390935560665492519189169290917f623b3d5e572a148a73b818e6f65063f047c4acf2a38cc0c8b367c5cd555963ae906117439086908b908b908b906137aa565b60405180910390a46040516001600160a01b03808816916000918a16907f3134e8a2e6d97e929a7e54011ea5485d7d196dd5f0ba4d4ef95803e8e3fc257f908390a46001600160a01b0386166000818152606b602052604081206000805160206138e683398151915291906117b89085611c9b565b6040516117c692919061316c565b60405180910390a2505060665495945050505050565b6117e4611c78565b6001600160a01b03166117f5610cb5565b6001600160a01b03161461183e576040805162461bcd60e51b815260206004820181905260248201526000805160206138a2833981519152604482015290519081900360640190fd5b6001600160a01b0381166118835760405162461bcd60e51b815260040180806020018281038252602681526020018061380c6026913960400191505060405180910390fd5b6033546040516001600160a01b038084169216907f8be0079c531659141344cd1fd0a4f28419497f9722a3daafe3b4186f6b6457e090600090a3603380546001600160a01b0319166001600160a01b0392909216919091179055565b603281565b6065546001600160a01b031681565b60675460ff16156119165760405162461bcd60e51b815260040161057c906136ed565b60675461010090046001600160a01b0316156119445760405162461bcd60e51b815260040161057c9061349a565b600061194f83611d69565b6000848152606c60205260408120600101549192506001600160a01b039091169061197b6105f2611c7c565b6001600160a01b0383166000908152606b602052604090209091506119a09082611f5c565b6001600160a01b0382166000908152606b60205260408120819081906119c79089866125d3565b6040805160608101825288815260208082018690528183018590526001600160a01b038d166000908152606b90915291909120939650919450925090611a0d9086611f5c565b6001600160a01b0388166000908152606b60205260409020611a31908a83856128a0565b6000898152606c60205260409081902060010180546001600160a01b0319166001600160a01b038b81169182179092559151908916908b907f85c2730e083fbf1495501a47cbebc8a7e57eab8b6eeac16aedcebc825e268fac90611a96908a9061375f565b60405180910390a4876001600160a01b0316866001600160a01b0316886001600160a01b03167f3134e8a2e6d97e929a7e54011ea5485d7d196dd5f0ba4d4ef95803e8e3fc257f60405160405180910390a46001600160a01b0386166000818152606b602052604081206000805160206138e68339815191529190611b1b9089611c9b565b604051611b2992919061316c565b60405180910390a26001600160a01b0388166000818152606b602052604081206000805160206138e68339815191529190611b649089611c9b565b604051611b7292919061316c565b60405180910390a2505050505050505050565b6000806000611b948686612831565b9050606854841015611bb85760405162461bcd60e51b815260040161057c906133a6565b606954811015611bda5760405162461bcd60e51b815260040161057c9061370e565b6000611c06606854606803611c006304cace806068548903612ab990919063ffffffff16565b90612b12565b90506000611c2e606954606803611c006302625a006069548703612ab990919063ffffffff16565b90506000611c4a6301312d00611c448585612846565b90612846565b9050611c5e6305f5e100611c008b84612ab9565b9550611c6a8685612831565b945050505050935093915050565b3390565b4390565b606a5460009061070d90611c95846032612b12565b90611d0c565b600382015460048301546000919083821415611cba57915061070d9050565b81841115611cd757611cce85838684612b79565b9250505061070d565b60008411611cf75760405162461bcd60e51b815260040161057c906135b3565b611d0385838684612c07565b95945050505050565b600082821115611d63576040805162461bcd60e51b815260206004820152601e60248201527f536166654d6174683a207375627472616374696f6e206f766572666c6f770000604482015290519081900360640190fd5b50900390565b6000818152606c60205260409020546001600160a01b03163381146106315760405162461bcd60e51b815260040161057c9061326e565b60008411611dc05760405162461bcd60e51b815260040161057c90613249565b6068821115611de15760405162461bcd60e51b815260040161057c90613311565b6000611ded8585612831565b90506068811115611e105760405162461bcd60e51b815260040161057c90613670565b6000611e2082611c448587612846565b6001600160a01b0389166000908152606b602090815260408083208b8452600801825291829020825160a081018452815493810193845260018201546060820181905260028301546080830181905285835260039093015493820193909352939450611e8c9190612831565b93506000611eaf85611c448560200151856000015161284690919063ffffffff16565b905083811115611ed15760405162461bcd60e51b815260040161057c906134bd565b60208301518251600091611ee59190612846565b90506000611ef3888a612846565b905080821115611f4d576000611f098383611d0c565b60208601519091506000611f27611f20848f612ab9565b8f90611d0c565b905081811015611f495760405162461bcd60e51b815260040161057c90613338565b5050505b50505050505050505050505050565b600382015481811415611f6f5750612022565b60058301546004840154801561200f57828411611f9e5760405162461bcd60e51b815260040161057c9061362b565b8383101561200f57611fb08183611d0c565b60008481526020879052604081205491925090611fd690611fd085612cc3565b90612cc9565b90506000811215611ff95760405162461bcd60e51b815260040161057c90613204565b915081612007846001612846565b935050611f9e565b6003850184905560048501556005840155505b5050565b6000612033848484612581565b6001600160a01b0383166000908152606b602052604090206120569086846125d3565b506120679150606d905086846125d3565b5050506001600160a01b0384166000908152606b602052604090206120909060060186846125d3565b50909695505050505050565b808211156120bc5760405162461bcd60e51b815260040161057c9061353c565b60006120c88284611d0c565b6001600160a01b0386166000908152606b60205260408120600c01549192506120f18287611d0c565b9050808311156122005760006121078483611d0c565b60655460008b8152606c6020526040908190205490516323b872dd60e01b81529293506001600160a01b03918216926323b872dd9261214e921690309086906004016130d2565b602060405180830381600087803b15801561216857600080fd5b505af115801561217c573d6000803e3d6000fd5b505050506040513d601f19601f820116820180604052508101906121a09190612fea565b6121bc5760405162461bcd60e51b815260040161057c906136c4565b6001600160a01b0388166000908152606b60205260409020600c01546121e29082612846565b6001600160a01b0389166000908152606b60205260409020600c0155505b5050505050505050565b612215868683612581565b600080612223868686611b85565b60408051606081018252868152602081018490529081018290526066549294509092509061225590606d9083886128a0565b6066546001600160a01b0389166000908152606b6020526040902061227b9183886128a0565b506040805160608101825284815260208082018990528183018890526066546001600160a01b038c166000908152606b90925292902090916122c2916006019083886128a0565b5050606680546000908152606c602052604080822080546001600160a01b039b8c166001600160a01b0319918216179091559254825290206001018054979098169616959095179095555050505050565b600061231e30612d2e565b15905090565b600054610100900460ff168061233d575061233d612313565b8061234b575060005460ff16155b6123865760405162461bcd60e51b815260040180806020018281038252602e815260200180613853602e913960400191505060405180910390fd5b600054610100900460ff161580156123b1576000805460ff1961ff0019909116610100171660011790555b606580546001600160a01b0319166001600160a01b038516179055606a8290558015610b79576000805461ff0019169055505050565b600054610100900460ff16806124005750612400612313565b8061240e575060005460ff16155b6124495760405162461bcd60e51b815260040180806020018281038252602e815260200180613853602e913960400191505060405180910390fd5b600054610100900460ff16158015612474576000805460ff1961ff0019909116610100171660011790555b600061247e611c78565b603380546001600160a01b0319166001600160a01b038316908117909155604051919250906000907f8be0079c531659141344cd1fd0a4f28419497f9722a3daafe3b4186f6b6457e0908290a3508015611533576000805461ff001916905550565b600054610100900460ff16806124f957506124f9612313565b80612507575060005460ff16155b6125425760405162461bcd60e51b815260040180806020018281038252602e815260200180613853602e913960400191505060405180910390fd5b600054610100900460ff1615801561256d576000805460ff1961ff0019909116610100171660011790555b8015611533576000805461ff001916905550565b61258c606d82611f5c565b6001600160a01b0382166000908152606b602052604090206125ae9082611f5c565b6001600160a01b0383166000908152606b60205260409020610b799060060182611f5c565b6000828152600280850160209081526040808420815160a08101835281549281019283526001820154606082018190529482015460808201529182526003015491810191909152829182919061263b5760405162461bcd60e51b815260040161057c906133e9565b80516126478887611f5c565b80602001519450806040015193506000925060006126818360200151611c44612679888a612b1290919063ffffffff16565b855190612846565b90508087111561269b576000955060009450505050612828565b60006126a8826001611d0c565b905060006126b7896001611d0c565b905060006126cd6126c88a8a612d34565b612cc3565b905060006126f16001611c958960200151896000015161284690919063ffffffff16565b9050808b11612744576127096001611c44838e611d0c565b9750612720816127188b612cc3565b8f9190612d9b565b61273f84612737846127318d612cc3565b90612dc7565b8f9190612e2c565b6127cd565b838b116127a45760058d015461275a908a611d0c565b60058e015561277084612737846127318d612cc3565b61279182611c448b61278b8f8a611d0c90919063ffffffff16565b90612ab9565b995061273f83612718846127318d612cc3565b60058d01546127b39083611d0c565b60058e015590985088975087906127cd8361271884612cc3565b6127d88d8684612e2c565b60048d01546127e7908b611d0c565b60048e015560008c815260028e0160205260408120600101556128208361280d8c612cc3565b8f600101612d9b9092919063ffffffff16565b505050505050505b93509350939050565b6000610be76001611c4484611c008784611d0c565b600082820183811015610be7576040805162461bcd60e51b815260206004820152601b60248201527f536166654d6174683a206164646974696f6e206f766572666c6f770000000000604482015290519081900360640190fd5b60408201516128c15760405162461bcd60e51b815260040161057c906134f4565b8160200151826040015111156128e95760405162461bcd60e51b815260040161057c906135e1565b60008381526002850160205260409020600101541561291a5760405162461bcd60e51b815260040161057c90613457565b604080518082018252838152602080820184815260008781526002808a018452908590209351805185559283015160018501559190930151908201559051600390910155815161296b908590611f5c565b6020820151600485015461297e91612846565b60048501558151600090612993906001611d0c565b90506129b1816129a68560200151612cc3565b600188019190612e2c565b60006129ce84604001518560200151612b1290919063ffffffff16565b905082612a0e57604084015160058701546129e891612846565b60058701556040840151612a09908390612a0190612cc3565b889190612e2c565b612a43565b6000612a1a8385612846565b9050612a3581612a2d8760400151612cc3565b899190612e2c565b612a3f8285612846565b9150505b6000612a636126c886604001518760200151612d3490919063ffffffff16565b8551909150600090612a759084612846565b90506000612a84826001611d0c565b9050612aa381612a9b856127318b60400151612cc3565b8b9190612d9b565b612aae898385612d9b565b505050505050505050565b600082612ac85750600061070d565b82820282848281612ad557fe5b0414610be75760405162461bcd60e51b81526004018080602001828103825260218152602001806138816021913960400191505060405180910390fd5b6000808211612b68576040805162461bcd60e51b815260206004820152601a60248201527f536166654d6174683a206469766973696f6e206279207a65726f000000000000604482015290519081900360640190fd5b818381612b7157fe5b049392505050565b600081612b87575080612bff565b6005850154845b84811015612bf957612ba08483611d0c565b60008281526020899052604081205491955090612bc090611fd085612cc3565b90506000811215612be35760405162461bcd60e51b815260040161057c90613204565b915081612bf1826001612846565b915050612b8e565b83925050505b949350505050565b6005840154600090845b84811115612bf957612c24816001611d0c565b600081815260018901602052604081205491925090612c469061273187612cc3565b90506000811215612c695760405162461bcd60e51b815260040161057c906132a5565b6000828152602089905260408120549195508591612c8a9061273186612cc3565b90506000811215612cad5760405162461bcd60e51b815260040161057c90613204565b925082612cba8682612846565b95505050612c11565b80610631565b6000828201818312801590612cde5750838112155b80612cf35750600083128015612cf357508381125b610be75760405162461bcd60e51b81526004018080602001828103825260218152602001806138326021913960400191505060405180910390fd5b3b151590565b6000808211612d8a576040805162461bcd60e51b815260206004820152601860248201527f536166654d6174683a206d6f64756c6f206279207a65726f0000000000000000604482015290519081900360640190fd5b818381612d9357fe5b069392505050565b600082815260208490526040902054612db49082612dc7565b6000928352602093909352506040902055565b6000818303818312801590612ddc5750838113155b80612df15750600083128015612df157508381135b610be75760405162461bcd60e51b81526004018080602001828103825260248152602001806138c26024913960400191505060405180910390fd5b600082815260208490526040902054612db49082612cc9565b600060208284031215612e56578081fd5b8135610be7816137f6565b600080600080600060a08688031215612e78578081fd5b8535612e83816137f6565b94506020860135612e93816137f6565b94979496505050506040830135926060810135926080909101359150565b60008060408385031215612ec3578182fd5b8235612ece816137f6565b946020939093013593505050565b60008060008060008060c08789031215612ef4578081fd5b8635612eff816137f6565b95506020870135945060408701359350606087013560ff81168114612f22578182fd5b9598949750929560808101359460a0909101359350915050565b60006020808385031215612f4e578182fd5b823567ffffffffffffffff80821115612f65578384fd5b818501915085601f830112612f78578384fd5b813581811115612f8457fe5b83810260405185828201018181108582111715612f9d57fe5b604052828152858101935084860182860187018a1015612fbb578788fd5b8795505b83861015612fdd578035855260019590950194938601938601612fbf565b5098975050505050505050565b600060208284031215612ffb578081fd5b81518015158114610be7578182fd5b60006020828403121561301b578081fd5b5035919050565b60008060408385031215613034578182fd5b823591506020830135613046816137f6565b809150509250929050565b600080600080600060a08688031215613068578081fd5b853594506020860135612e93816137f6565b60008060006060848603121561308e578283fd5b505081359360208301359350604090920135919050565b8051825260208082015190830152604090810151910152565b6001600160a01b0391909116815260200190565b6001600160a01b039384168152919092166020820152604081019190915260600190565b6001600160a01b03929092168252602082015260400190565b6001600160a01b0392831681529116602082015260400190565b6020808252825182820181905260009190848201906040850190845b8181101561209057835183529284019291840191600101613145565b901515815260200190565b918252602082015260400190565b6000602080835283518082850152825b818110156131a65785810183015185820160400152820161318a565b818111156131b75783604083870101525b50601f01601f1916929092016040019392505050565b6020808252601a908201527f6e657720736c6f706520706572696f64203e2032207965617273000000000000604082015260600190565b60208082526025908201527f736c6f7065203c20302c20736f6d657468696e672077726f6e67207769746820604082015264736c6f706560d81b606082015260800190565b6020808252600b908201526a1e995c9bc8185b5bdd5b9d60aa1b604082015260600190565b60208082526018908201527f63616c6c6572206e6f742061207374616b65206f776e65720000000000000000604082015260600190565b60208082526023908201527f62696173203c20302c20736f6d657468696e672077726f6e672077697468206260408201526269617360e81b606082015260800190565b6020808252600f908201526e1b9bdd081a5b5c1b195b595b9d1959608a1b604082015260600190565b6020808252600d908201526c636c69666620746f6f2062696760981b604082015260600190565b60208082526019908201527f64657465637420637574206465706f73697420636f726e657200000000000000604082015260600190565b6020808252601a908201527f6e657720636c69666620706572696f64203e2032207965617273000000000000604082015260600190565b60208082526023908201527f636c69666620706572696f64203c206d696e696d616c207374616b65207065726040820152621a5bd960ea1b606082015260800190565b6020808252601f908201527f52656d6f76696e67204c696e652c207768696368206e6f742065786973747300604082015260600190565b6020808252601a908201527f77726f6e67206e65775374617274696e67506f696e745765656b000000000000604082015260600190565b60208082526023908201527f4c696e65207769746820676976656e20696420697320616c72656164792065786040820152621a5cdd60ea1b606082015260800190565b6020808252600990820152686d6967726174696e6760b81b604082015260600190565b6020808252601f908201527f6e6577206c696e6520706572696f64207374616b6520746f6f2073686f727400604082015260600190565b60208082526028908201527f536c6f7065203d3d20302c20756e61636365707461626c652076616c756520666040820152676f7220736c6f706560c01b606082015260800190565b6020808252602f908201527f496d706f737369626c6520746f2072657374616b653a206c65737320616d6f7560408201526e6e742c207468656e206e6f7720697360881b606082015260800190565b6020808252600e908201526d706572696f6420746f6f2062696760901b604082015260600190565b602080825260149082015273756e657870656374656420706173742074696d6560601b604082015260600190565b6020808252602a908201527f536c6f7065203e20626961732c20756e61636365707461626c652076616c756560408201526920666f7220736c6f706560b01b606082015260800190565b60208082526025908201527f63616e2774207570646174652042726f6b656e4c696e6520666f7220706173746040820152642074696d6560d81b606082015260800190565b6020808252600d908201526c736c6f706520746f6f2062696760981b604082015260600190565b602080825260139082015272189b1bd8dac81b9bdd081e595d081b5a5b9959606a1b604082015260600190565b6020808252600f908201526e1d1c985b9cd9995c8819985a5b1959608a1b604082015260600190565b6020808252600790820152661cdd1bdc1c195960ca1b604082015260600190565b60208082526023908201527f736c6f706520706572696f64203c206d696e696d616c207374616b65207065726040820152621a5bd960ea1b606082015260800190565b6060810161070d82846130a5565b90815260200190565b600060e0820190508582526137816020830186516130a5565b6020949094015160808201526001600160a01b0392831660a0820152911660c090910152919050565b93845260208401929092526040830152606082015260800190565b948552602085019390935260408401919091526060830152608082015260a00190565b60ff91909116815260200190565b6001600160a01b038116811461153357600080fdfe4f776e61626c653a206e6577206f776e657220697320746865207a65726f20616464726573735369676e6564536166654d6174683a206164646974696f6e206f766572666c6f77496e697469616c697a61626c653a20636f6e747261637420697320616c726561647920696e697469616c697a6564536166654d6174683a206d756c7469706c69636174696f6e206f766572666c6f774f776e61626c653a2063616c6c6572206973206e6f7420746865206f776e65725369676e6564536166654d6174683a207375627472616374696f6e206f766572666c6f77dec2bacdd2f05b59de34da9b523dff8be42e5e38e818c82fdb0bae774387a724a2646970667358221220aa0df65fc0a3fb9a2ed471769d1e85ffa6f35b580e4bfd206a46aa96431a766d64736f6c63430007060033",
  "immutableReferences": {},
  "source": "// SPDX-License-Identifier: MIT\n\npragma solidity 0.7.6;\npragma abicoder v2;\n\nimport \"./INextVersionStake.sol\";\nimport \"./StakingBase.sol\";\nimport \"./StakingRestake.sol\";\nimport \"./StakingVotes.sol\";\n\ncontract Staking is StakingBase, StakingRestake, StakingVotes {\n    using SafeMathUpgradeable for uint;\n    using LibBrokenLine for LibBrokenLine.BrokenLine;\n\n    function __Staking_init(IERC20Upgradeable _token, uint _startingPointWeek) external initializer {\n        __StakingBase_init_unchained(_token, _startingPointWeek);\n        __Ownable_init_unchained();\n        __Context_init_unchained();\n    }\n\n    function stop() external onlyOwner notStopped {\n        stopped = true;\n        emit StopStaking(msg.sender);\n    }\n\n    function startMigration(address to) external onlyOwner {\n        migrateTo = to;\n        emit StartMigration(msg.sender, to);\n    }\n\n    function stake(address account, address _delegate, uint amount, uint slope, uint cliff) external notStopped notMigrating returns (uint) {\n        require(amount > 0, \"zero amount\");\n        require(cliff <= TWO_YEAR_WEEKS, \"cliff too big\");\n        require(divUp(amount, slope) <= TWO_YEAR_WEEKS, \"period too big\");\n        require(token.transferFrom(msg.sender, address(this), amount), \"transfer failed\");\n\n        counter++;\n\n        uint time = roundTimestamp(getBlockNumber());\n        addLines(account, _delegate, amount, slope, cliff, time);\n        accounts[account].amount = accounts[account].amount.add(amount);\n        emit StakeCreate(counter, account, _delegate, time, amount, slope, cliff);\n\n        // IVotesUpgradeable events\n        emit DelegateChanged(account, address(0), _delegate);\n        emit DelegateVotesChanged(_delegate, 0, accounts[_delegate].balance.actualValue(time));\n        return counter;\n    }\n\n    function withdraw() external {\n        uint value = getAvailableForWithdraw(msg.sender);\n        if (value > 0) {\n            accounts[msg.sender].amount = accounts[msg.sender].amount.sub(value);\n            require(token.transfer(msg.sender, value), \"transfer failed\");\n        }\n        emit Withdraw(msg.sender, value);\n    }\n\n    // Amount available for withdrawal\n    function getAvailableForWithdraw(address account) public view returns (uint value) {\n        value = accounts[account].amount;\n        if (!stopped) {\n            uint time = roundTimestamp(getBlockNumber());\n            uint bias = accounts[account].locked.actualValue(time);\n            value = value.sub(bias);\n        }\n    }\n\n    //Remaining locked amount\n    function locked(address account) external view returns (uint) {\n        return accounts[account].amount;\n    }\n\n    //For a given Line id, the owner and delegate addresses.\n    function getAccountAndDelegate(uint id) external view returns (address account, address delegate) {\n        account = stakes[id].account;\n        delegate = stakes[id].delegate;\n    }\n\n    //Getting \"current week\" of the contract.\n    function getWeek() external view returns (uint) {\n        return roundTimestamp(getBlockNumber());\n    }\n\n    function delegateTo(uint id, address newDelegate) external notStopped notMigrating {\n        address account = verifyStakeOwner(id);\n        address _delegate = stakes[id].delegate;\n        uint time = roundTimestamp(getBlockNumber());\n        accounts[_delegate].balance.update(time);\n        (uint bias, uint slope, uint cliff) = accounts[_delegate].balance.remove(id, time);\n        LibBrokenLine.Line memory line = LibBrokenLine.Line(time, bias, slope);\n        accounts[newDelegate].balance.update(time);\n        accounts[newDelegate].balance.add(id, line, cliff);\n        stakes[id].delegate = newDelegate;\n        emit Delegate(id, account, newDelegate, time);\n\n        // IVotesUpgradeable events\n        emit DelegateChanged(account, _delegate, newDelegate);\n        emit DelegateVotesChanged(_delegate, 0, accounts[_delegate].balance.actualValue(time));\n        emit DelegateVotesChanged(newDelegate, 0, accounts[newDelegate].balance.actualValue(time));\n    }\n\n    function totalSupply() external view returns (uint) {\n        if ((totalSupplyLine.initial.bias == 0) || (stopped)) {\n            return 0;\n        }\n        uint time = roundTimestamp(getBlockNumber());\n        return totalSupplyLine.actualValue(time);\n    }\n\n    function balanceOf(address account) external view returns (uint) {\n        if ((accounts[account].balance.initial.bias == 0) || (stopped)) {\n            return 0;\n        }\n        uint time = roundTimestamp(getBlockNumber());\n        return accounts[account].balance.actualValue(time);\n    }\n\n    function migrate(uint[] memory id) external {\n        if (migrateTo == address(0)) {\n            return;\n        }\n        uint time = roundTimestamp(getBlockNumber());\n        INextVersionStake nextVersionStake = INextVersionStake(migrateTo);\n        for (uint256 i = 0; i < id.length; i++) {\n            address account = verifyStakeOwner(id[i]);\n            address _delegate = stakes[id[i]].delegate;\n            updateLines(account, _delegate, time);\n            //save data Line before remove\n            LibBrokenLine.LineData memory lineData = accounts[account].locked.initiatedLines[id[i]];\n            (uint residue,,) = accounts[account].locked.remove(id[i], time);\n\n            require(token.transfer(migrateTo, residue), \"transfer failed\");\n            accounts[account].amount = accounts[account].amount.sub(residue);\n\n            accounts[_delegate].balance.remove(id[i], time);\n            totalSupplyLine.remove(id[i], time);\n            nextVersionStake.initiateData(id[i], lineData, account, _delegate);\n        }\n        emit Migrate(msg.sender, id);\n    }\n\n    function name() public view virtual returns (string memory) {\n        return \"RariStaking\";\n    }\n\n    function symbol() public view virtual returns (string memory) {\n        return \"RST\";\n    }\n\n    function decimals() public view virtual returns (uint8) {\n        return 18;\n    }\n\n    uint256[50] private __gap;\n}",
  "sourcePath": "/Users/ds/Documents/rarible/protocol-contracts/staking/contracts/Staking.sol",
  "compiler": {
    "name": "solc",
    "version": "0.7.6+commit.7338295f.Emscripten.clang"
  },
  "schemaVersion": "3.4.3",
  "updatedAt": "2022-10-02T14:57:39.067Z",
  "networkType": "ethereum",
  "devdoc": {
    "kind": "dev",
    "methods": {
      "delegate(address)": {
        "details": "Delegates votes from the sender to `delegatee`."
      },
      "delegateBySig(address,uint256,uint256,uint8,bytes32,bytes32)": {
        "details": "Delegates votes from signer to `delegatee`."
      },
      "delegates(address)": {
        "details": "Returns the delegate that `account` has chosen."
      },
      "getPastTotalSupply(uint256)": {
        "details": "Returns the total supply of votes available  at the end of the last period"
      },
      "getPastVotes(address,uint256)": {
        "details": "Returns the amount of votes that `account` had at the end of the last period"
      },
      "getVotes(address)": {
        "details": "Returns the current amount of votes that `account` has."
      },
      "owner()": {
        "details": "Returns the address of the current owner."
      },
      "renounceOwnership()": {
        "details": "Leaves the contract without owner. It will not be possible to call `onlyOwner` functions anymore. Can only be called by the current owner. NOTE: Renouncing ownership will leave the contract without an owner, thereby removing any functionality that is only available to the owner."
      },
      "transferOwnership(address)": {
        "details": "Transfers ownership of the contract to a new account (`newOwner`). Can only be called by the current owner."
      }
    },
    "version": 1
  },
  "userdoc": {
    "kind": "user",
    "methods": {
      "getStake(uint256,uint256,uint256)": {
        "notice": "alculate and return (newAmount, newSlope), using formula: staking = (tokens * (      ST_FORMULA_CONST_MULTIPLIER      + ST_FORMULA_CLIFF_MULTIPLIER * (cliffPeriod - minCliffPeriod))/(TWO_YEAR_WEEKS - minCliffPeriod)      + ST_FORMULA_SLOPE_MULTIPLIER * (slopePeriod - minSlopePeriod))/(TWO_YEAR_WEEKS - minSlopePeriod)      )) / ST_FORMULA_DIVIDER*"
      }
    },
    "version": 1
  }
}