{
  "contractName": "Staking",
  "abi": [
    {
      "anonymous": false,
      "inputs": [
        {
          "indexed": true,
          "internalType": "uint256",
          "name": "id",
          "type": "uint256"
        },
        {
          "indexed": true,
          "internalType": "address",
          "name": "account",
          "type": "address"
        },
        {
          "indexed": true,
          "internalType": "address",
          "name": "delegate",
          "type": "address"
        },
        {
          "indexed": false,
          "internalType": "uint256",
          "name": "time",
          "type": "uint256"
        }
      ],
      "name": "Delegate",
      "type": "event"
    },
    {
      "anonymous": false,
      "inputs": [
        {
          "indexed": true,
          "internalType": "address",
          "name": "delegator",
          "type": "address"
        },
        {
          "indexed": true,
          "internalType": "address",
          "name": "fromDelegate",
          "type": "address"
        },
        {
          "indexed": true,
          "internalType": "address",
          "name": "toDelegate",
          "type": "address"
        }
      ],
      "name": "DelegateChanged",
      "type": "event"
    },
    {
      "anonymous": false,
      "inputs": [
        {
          "indexed": true,
          "internalType": "address",
          "name": "delegate",
          "type": "address"
        },
        {
          "indexed": false,
          "internalType": "uint256",
          "name": "previousBalance",
          "type": "uint256"
        },
        {
          "indexed": false,
          "internalType": "uint256",
          "name": "newBalance",
          "type": "uint256"
        }
      ],
      "name": "DelegateVotesChanged",
      "type": "event"
    },
    {
      "anonymous": false,
      "inputs": [
        {
          "indexed": true,
          "internalType": "address",
          "name": "account",
          "type": "address"
        },
        {
          "indexed": false,
          "internalType": "uint256[]",
          "name": "id",
          "type": "uint256[]"
        }
      ],
      "name": "Migrate",
      "type": "event"
    },
    {
      "anonymous": false,
      "inputs": [
        {
          "indexed": true,
          "internalType": "address",
          "name": "previousOwner",
          "type": "address"
        },
        {
          "indexed": true,
          "internalType": "address",
          "name": "newOwner",
          "type": "address"
        }
      ],
      "name": "OwnershipTransferred",
      "type": "event"
    },
    {
      "anonymous": false,
      "inputs": [
        {
          "indexed": true,
          "internalType": "uint256",
          "name": "id",
          "type": "uint256"
        },
        {
          "indexed": true,
          "internalType": "address",
          "name": "account",
          "type": "address"
        },
        {
          "indexed": true,
          "internalType": "address",
          "name": "delegate",
          "type": "address"
        },
        {
          "indexed": false,
          "internalType": "uint256",
          "name": "counter",
          "type": "uint256"
        },
        {
          "indexed": false,
          "internalType": "uint256",
          "name": "time",
          "type": "uint256"
        },
        {
          "indexed": false,
          "internalType": "uint256",
          "name": "amount",
          "type": "uint256"
        },
        {
          "indexed": false,
          "internalType": "uint256",
          "name": "slope",
          "type": "uint256"
        },
        {
          "indexed": false,
          "internalType": "uint256",
          "name": "cliff",
          "type": "uint256"
        }
      ],
      "name": "Restake",
      "type": "event"
    },
    {
      "anonymous": false,
      "inputs": [
        {
          "indexed": true,
          "internalType": "uint256",
          "name": "newMinCliffPeriod",
          "type": "uint256"
        }
      ],
      "name": "SetMinCliffPeriod",
      "type": "event"
    },
    {
      "anonymous": false,
      "inputs": [
        {
          "indexed": true,
          "internalType": "uint256",
          "name": "newMinSlopePeriod",
          "type": "uint256"
        }
      ],
      "name": "SetMinSlopePeriod",
      "type": "event"
    },
    {
      "anonymous": false,
      "inputs": [
        {
          "indexed": true,
          "internalType": "uint256",
          "name": "id",
          "type": "uint256"
        },
        {
          "indexed": true,
          "internalType": "address",
          "name": "account",
          "type": "address"
        },
        {
          "indexed": true,
          "internalType": "address",
          "name": "delegate",
          "type": "address"
        },
        {
          "indexed": false,
          "internalType": "uint256",
          "name": "time",
          "type": "uint256"
        },
        {
          "indexed": false,
          "internalType": "uint256",
          "name": "amount",
          "type": "uint256"
        },
        {
          "indexed": false,
          "internalType": "uint256",
          "name": "slope",
          "type": "uint256"
        },
        {
          "indexed": false,
          "internalType": "uint256",
          "name": "cliff",
          "type": "uint256"
        }
      ],
      "name": "StakeCreate",
      "type": "event"
    },
    {
      "anonymous": false,
      "inputs": [
        {
          "indexed": true,
          "internalType": "address",
          "name": "account",
          "type": "address"
        },
        {
          "indexed": true,
          "internalType": "address",
          "name": "to",
          "type": "address"
        }
      ],
      "name": "StartMigration",
      "type": "event"
    },
    {
      "anonymous": false,
      "inputs": [
        {
          "indexed": true,
          "internalType": "address",
          "name": "account",
          "type": "address"
        }
      ],
      "name": "StopStaking",
      "type": "event"
    },
    {
      "anonymous": false,
      "inputs": [
        {
          "indexed": true,
          "internalType": "address",
          "name": "account",
          "type": "address"
        },
        {
          "indexed": false,
          "internalType": "uint256",
          "name": "amount",
          "type": "uint256"
        }
      ],
      "name": "Withdraw",
      "type": "event"
    },
    {
      "inputs": [],
      "name": "counter",
      "outputs": [
        {
          "internalType": "uint256",
          "name": "",
          "type": "uint256"
        }
      ],
      "stateMutability": "view",
      "type": "function"
    },
    {
      "inputs": [
        {
          "internalType": "address",
          "name": "delegatee",
          "type": "address"
        }
      ],
      "name": "delegate",
      "outputs": [],
      "stateMutability": "nonpayable",
      "type": "function"
    },
    {
      "inputs": [
        {
          "internalType": "address",
          "name": "delegatee",
          "type": "address"
        },
        {
          "internalType": "uint256",
          "name": "nonce",
          "type": "uint256"
        },
        {
          "internalType": "uint256",
          "name": "expiry",
          "type": "uint256"
        },
        {
          "internalType": "uint8",
          "name": "v",
          "type": "uint8"
        },
        {
          "internalType": "bytes32",
          "name": "r",
          "type": "bytes32"
        },
        {
          "internalType": "bytes32",
          "name": "s",
          "type": "bytes32"
        }
      ],
      "name": "delegateBySig",
      "outputs": [],
      "stateMutability": "nonpayable",
      "type": "function"
    },
    {
      "inputs": [
        {
          "internalType": "address",
          "name": "account",
          "type": "address"
        }
      ],
      "name": "delegates",
      "outputs": [
        {
          "internalType": "address",
          "name": "",
          "type": "address"
        }
      ],
      "stateMutability": "view",
      "type": "function"
    },
    {
      "inputs": [
        {
          "internalType": "uint256",
          "name": "blockNumber",
          "type": "uint256"
        }
      ],
      "name": "getPastTotalSupply",
      "outputs": [
        {
          "internalType": "uint256",
          "name": "",
          "type": "uint256"
        }
      ],
      "stateMutability": "view",
      "type": "function"
    },
    {
      "inputs": [
        {
          "internalType": "address",
          "name": "account",
          "type": "address"
        },
        {
          "internalType": "uint256",
          "name": "blockNumber",
          "type": "uint256"
        }
      ],
      "name": "getPastVotes",
      "outputs": [
        {
          "internalType": "uint256",
          "name": "",
          "type": "uint256"
        }
      ],
      "stateMutability": "view",
      "type": "function"
    },
    {
      "inputs": [
        {
          "internalType": "uint256",
          "name": "amount",
          "type": "uint256"
        },
        {
          "internalType": "uint256",
          "name": "slope",
          "type": "uint256"
        },
        {
          "internalType": "uint256",
          "name": "cliff",
          "type": "uint256"
        }
      ],
      "name": "getStake",
      "outputs": [
        {
          "internalType": "uint256",
          "name": "stakeAmount",
          "type": "uint256"
        },
        {
          "internalType": "uint256",
          "name": "stakeSlope",
          "type": "uint256"
        }
      ],
      "stateMutability": "view",
      "type": "function"
    },
    {
      "inputs": [
        {
          "internalType": "address",
          "name": "account",
          "type": "address"
        }
      ],
      "name": "getVotes",
      "outputs": [
        {
          "internalType": "uint256",
          "name": "",
          "type": "uint256"
        }
      ],
      "stateMutability": "view",
      "type": "function"
    },
    {
      "inputs": [],
      "name": "migrateTo",
      "outputs": [
        {
          "internalType": "address",
          "name": "",
          "type": "address"
        }
      ],
      "stateMutability": "view",
      "type": "function"
    },
    {
      "inputs": [],
      "name": "minCliffPeriod",
      "outputs": [
        {
          "internalType": "uint256",
          "name": "",
          "type": "uint256"
        }
      ],
      "stateMutability": "view",
      "type": "function"
    },
    {
      "inputs": [],
      "name": "minSlopePeriod",
      "outputs": [
        {
          "internalType": "uint256",
          "name": "",
          "type": "uint256"
        }
      ],
      "stateMutability": "view",
      "type": "function"
    },
    {
      "inputs": [],
      "name": "owner",
      "outputs": [
        {
          "internalType": "address",
          "name": "",
          "type": "address"
        }
      ],
      "stateMutability": "view",
      "type": "function"
    },
    {
      "inputs": [],
      "name": "renounceOwnership",
      "outputs": [],
      "stateMutability": "nonpayable",
      "type": "function"
    },
    {
      "inputs": [
        {
          "internalType": "uint256",
          "name": "id",
          "type": "uint256"
        },
        {
          "internalType": "address",
          "name": "newDelegate",
          "type": "address"
        },
        {
          "internalType": "uint256",
          "name": "newAmount",
          "type": "uint256"
        },
        {
          "internalType": "uint256",
          "name": "newSlope",
          "type": "uint256"
        },
        {
          "internalType": "uint256",
          "name": "newCliff",
          "type": "uint256"
        }
      ],
      "name": "restake",
      "outputs": [
        {
          "internalType": "uint256",
          "name": "",
          "type": "uint256"
        }
      ],
      "stateMutability": "nonpayable",
      "type": "function"
    },
    {
      "inputs": [],
      "name": "stopped",
      "outputs": [
        {
          "internalType": "bool",
          "name": "",
          "type": "bool"
        }
      ],
      "stateMutability": "view",
      "type": "function"
    },
    {
      "inputs": [],
      "name": "token",
      "outputs": [
        {
          "internalType": "contract IERC20Upgradeable",
          "name": "",
          "type": "address"
        }
      ],
      "stateMutability": "view",
      "type": "function"
    },
    {
      "inputs": [],
      "name": "totalSupplyLine",
      "outputs": [
        {
          "components": [
            {
              "internalType": "uint256",
              "name": "start",
              "type": "uint256"
            },
            {
              "internalType": "uint256",
              "name": "bias",
              "type": "uint256"
            },
            {
              "internalType": "uint256",
              "name": "slope",
              "type": "uint256"
            }
          ],
          "internalType": "struct LibBrokenLine.Line",
          "name": "initial",
          "type": "tuple"
        }
      ],
      "stateMutability": "view",
      "type": "function"
    },
    {
      "inputs": [
        {
          "internalType": "address",
          "name": "newOwner",
          "type": "address"
        }
      ],
      "name": "transferOwnership",
      "outputs": [],
      "stateMutability": "nonpayable",
      "type": "function"
    },
    {
      "inputs": [
        {
          "internalType": "contract IERC20Upgradeable",
          "name": "_token",
          "type": "address"
        }
      ],
      "name": "__Staking_init",
      "outputs": [],
      "stateMutability": "nonpayable",
      "type": "function"
    },
    {
      "inputs": [],
      "name": "stop",
      "outputs": [],
      "stateMutability": "nonpayable",
      "type": "function"
    },
    {
      "inputs": [
        {
          "internalType": "address",
          "name": "to",
          "type": "address"
        }
      ],
      "name": "startMigration",
      "outputs": [],
      "stateMutability": "nonpayable",
      "type": "function"
    },
    {
      "inputs": [
        {
          "internalType": "address",
          "name": "account",
          "type": "address"
        },
        {
          "internalType": "address",
          "name": "_delegate",
          "type": "address"
        },
        {
          "internalType": "uint256",
          "name": "amount",
          "type": "uint256"
        },
        {
          "internalType": "uint256",
          "name": "slope",
          "type": "uint256"
        },
        {
          "internalType": "uint256",
          "name": "cliff",
          "type": "uint256"
        }
      ],
      "name": "stake",
      "outputs": [
        {
          "internalType": "uint256",
          "name": "",
          "type": "uint256"
        }
      ],
      "stateMutability": "nonpayable",
      "type": "function"
    },
    {
      "inputs": [],
      "name": "withdraw",
      "outputs": [],
      "stateMutability": "nonpayable",
      "type": "function"
    },
    {
      "inputs": [
        {
          "internalType": "address",
          "name": "account",
          "type": "address"
        }
      ],
      "name": "getAvailableForWithdraw",
      "outputs": [
        {
          "internalType": "uint256",
          "name": "value",
          "type": "uint256"
        }
      ],
      "stateMutability": "view",
      "type": "function"
    },
    {
      "inputs": [
        {
          "internalType": "address",
          "name": "account",
          "type": "address"
        }
      ],
      "name": "locked",
      "outputs": [
        {
          "internalType": "uint256",
          "name": "",
          "type": "uint256"
        }
      ],
      "stateMutability": "view",
      "type": "function"
    },
    {
      "inputs": [
        {
          "internalType": "uint256",
          "name": "id",
          "type": "uint256"
        }
      ],
      "name": "getAccountAndDelegate",
      "outputs": [
        {
          "internalType": "address",
          "name": "account",
          "type": "address"
        },
        {
          "internalType": "address",
          "name": "delegate",
          "type": "address"
        }
      ],
      "stateMutability": "view",
      "type": "function"
    },
    {
      "inputs": [],
      "name": "getWeek",
      "outputs": [
        {
          "internalType": "uint256",
          "name": "",
          "type": "uint256"
        }
      ],
      "stateMutability": "view",
      "type": "function"
    },
    {
      "inputs": [
        {
          "internalType": "uint256",
          "name": "id",
          "type": "uint256"
        },
        {
          "internalType": "address",
          "name": "newDelegate",
          "type": "address"
        }
      ],
      "name": "delegateTo",
      "outputs": [],
      "stateMutability": "nonpayable",
      "type": "function"
    },
    {
      "inputs": [],
      "name": "totalSupply",
      "outputs": [
        {
          "internalType": "uint256",
          "name": "",
          "type": "uint256"
        }
      ],
      "stateMutability": "view",
      "type": "function"
    },
    {
      "inputs": [
        {
          "internalType": "address",
          "name": "account",
          "type": "address"
        }
      ],
      "name": "balanceOf",
      "outputs": [
        {
          "internalType": "uint256",
          "name": "",
          "type": "uint256"
        }
      ],
      "stateMutability": "view",
      "type": "function"
    },
    {
      "inputs": [
        {
          "internalType": "uint256[]",
          "name": "id",
          "type": "uint256[]"
        }
      ],
      "name": "migrate",
      "outputs": [],
      "stateMutability": "nonpayable",
      "type": "function"
    },
    {
      "inputs": [
        {
          "internalType": "uint256",
          "name": "newMinCliffPeriod",
          "type": "uint256"
        }
      ],
      "name": "setMinCliffPeriod",
      "outputs": [],
      "stateMutability": "nonpayable",
      "type": "function"
    },
    {
      "inputs": [
        {
          "internalType": "uint256",
          "name": "newMinSlopePeriod",
          "type": "uint256"
        }
      ],
      "name": "setMinSlopePeriod",
      "outputs": [],
      "stateMutability": "nonpayable",
      "type": "function"
    }
  ],
  "bytecode": "0x608060405234801561001057600080fd5b5061340f806100206000396000f3fe608060405234801561001057600080fd5b50600436106101fb5760003560e01c80638e539e8c1161011a578063b6231633116100ad578063f108fa931161007c578063f108fa93146103d8578063f2fde38b146103eb578063fc0c546a146103fe578063fc7881c614610406578063fecf0fdd14610419576101fb565b8063b62316331461039c578063c3cda520146103a4578063cbf9fe5f146103b2578063d93bf4fe146103c5576101fb565b80639ab24eb0116100e95780639ab24eb01461034e578063a0f52da014610361578063acc9b64814610374578063b53546ab14610387576101fb565b80638e539e8c1461030d578063986b343d1461032057806398c6e7601461033357806399eccf621461033b576101fb565b806361bc221a11610192578063715018a611610161578063715018a6146102e057806375f12b21146102e8578063874d6d81146102fd5780638da5cb5b14610305576101fb565b806361bc221a146102aa57806367c8c473146102b25780636bde67d8146102ba57806370a08231146102cd576101fb565b80633a46b1a8116101ce5780633a46b1a81461025c5780633ccfd60b1461026f578063587cde1e146102775780635c19a95c14610297576101fb565b806307da68f5146102005780630fc8deca1461020a57806315622e231461023357806318160ddd14610254575b600080fd5b61020861043a565b005b61021d6102183660046129d1565b610502565b60405161022a9190613253565b60405180910390f35b610246610241366004612b96565b610579565b60405161022a929190612c9b565b61021d6105a0565b61021d61026a366004612a3d565b6105e2565b610208610635565b61028a6102853660046129d1565b61075e565b60405161022a9190612c4a565b6102086102a53660046129d1565b610778565b61021d610790565b61021d610796565b61021d6102c8366004612bdd565b61079c565b61021d6102db3660046129d1565b61090a565b61020861097a565b6102f0610a26565b60405161022a9190612ced565b61021d610a2f565b61028a610a41565b61021d61031b366004612b96565b610a50565b61020861032e3660046129d1565b610a83565b61028a610b3f565b610208610349366004612b96565b610b53565b61021d61035c3660046129d1565b610c59565b61020861036f3660046129d1565b610c84565b610208610382366004612b96565b610d3a565b61038f610e40565b60405161022a9190613245565b61021d610e64565b6102086102a5366004612a68565b61021d6103c03660046129d1565b610e6a565b6102086103d3366004612ac8565b610e88565b61021d6103e63660046129ed565b61122d565b6102086103f93660046129d1565b611450565b61028a611553565b610208610414366004612bae565b611562565b61042c610427366004612c06565b611718565b60405161022a92919061329e565b61044261180b565b6001600160a01b0316610453610a41565b6001600160a01b03161461049c576040805162461bcd60e51b81526020600482018190526024820152600080516020613396833981519152604482015290519081900360640190fd5b60675460ff16156104c85760405162461bcd60e51b81526004016104bf906131e1565b60405180910390fd5b6067805460ff1916600117905560405133907f6bc4e1d7a91902d97533e9181b5ca4c1e8a90725e767a9b8cdbbcf901ba554fe90600090a2565b6001600160a01b0381166000908152606a60205260409020600c015460675460ff1661057457600061053a61053561180f565b611813565b6001600160a01b0384166000908152606a6020526040812091925090610563906006018361182b565b905061056f838261189c565b925050505b919050565b6000908152606b6020526040902080546001909101546001600160a01b0391821692911690565b60705460009015806105b4575060675460ff165b156105c1575060006105df565b60006105ce61053561180f565b90506105db606c8261182b565b9150505b90565b60006105ec61180f565b821061060a5760405162461bcd60e51b81526004016104bf9061318b565b6001600160a01b0383166000908152606a6020526040902061062c908361182b565b90505b92915050565b600061064033610502565b9050801561071a57336000908152606a60205260409020600c0154610665908261189c565b336000818152606a602052604090819020600c0192909255606554915163a9059cbb60e01b81526001600160a01b039092169163a9059cbb916106ac918590600401612c82565b602060405180830381600087803b1580156106c657600080fd5b505af11580156106da573d6000803e3d6000fd5b505050506040513d601f19601f820116820180604052508101906106fe9190612b76565b61071a5760405162461bcd60e51b81526004016104bf906131b8565b336001600160a01b03167f884edad9ce6fa2440d8a54cc123490eb96d2768479d49ff9c7366125a9424364826040516107539190613253565b60405180910390a250565b600060405162461bcd60e51b81526004016104bf90612e13565b60405162461bcd60e51b81526004016104bf90612e13565b60665481565b60685481565b60675460009060ff16156107c25760405162461bcd60e51b81526004016104bf906131e1565b60675461010090046001600160a01b0316156107f05760405162461bcd60e51b81526004016104bf90612f8e565b60006107fb876118f9565b9050600061080a61053561180f565b905061081a828988888886611930565b6000888152606b60209081526040808320600101546001600160a01b038681168552606a90935292209116906108539060060183611aec565b6001600160a01b0383166000908152606a60205260408120600a01549061087c8b868587611bb5565b905061088b8b8684848d611c2b565b6066805460010190556108a2858b8b8b8b89611d99565b896001600160a01b0316856001600160a01b03168c7fed21ca2fb4312d282540746b7f00899205aee2bd522dcbb837405aea6a92b52a606654888e8e8e6040516108f09594939291906132c7565b60405180910390a450506066549998505050505050505050565b6001600160a01b0381166000908152606a60205260408120600401541580610934575060675460ff165b1561094157506000610574565b600061094e61053561180f565b6001600160a01b0384166000908152606a60205260409020909150610973908261182b565b9392505050565b61098261180b565b6001600160a01b0316610993610a41565b6001600160a01b0316146109dc576040805162461bcd60e51b81526020600482018190526024820152600080516020613396833981519152604482015290519081900360640190fd5b6033546040516000916001600160a01b0316907f8be0079c531659141344cd1fd0a4f28419497f9722a3daafe3b4186f6b6457e0908390a3603380546001600160a01b0319169055565b60675460ff1681565b6000610a3c61053561180f565b905090565b6033546001600160a01b031690565b6000610a5a61180f565b8210610a785760405162461bcd60e51b81526004016104bf9061318b565b61062f606c8361182b565b600054610100900460ff1680610a9c5750610a9c611ea2565b80610aaa575060005460ff16155b610ae55760405162461bcd60e51b815260040180806020018281038252602e815260200180613347602e913960400191505060405180910390fd5b600054610100900460ff16158015610b10576000805460ff1961ff0019909116610100171660011790555b610b1982611eb3565b610b21611f70565b610b29612069565b8015610b3b576000805461ff00191690555b5050565b60675461010090046001600160a01b031681565b60675460ff1615610b765760405162461bcd60e51b81526004016104bf906131e1565b60675461010090046001600160a01b031615610ba45760405162461bcd60e51b81526004016104bf90612f8e565b610bac61180b565b6001600160a01b0316610bbd610a41565b6001600160a01b031614610c06576040805162461bcd60e51b81526020600482018190526024820152600080516020613396833981519152604482015290519081900360640190fd5b60688110610c265760405162461bcd60e51b81526004016104bf90612cf8565b606981905560405181907f88345dd2cdc36a4778bf7fed510015cf81efda1a773e1b6360fde7cb1631b21090600090a250565b600061062f610c6661180f565b6001600160a01b0384166000908152606a602052604090209061182b565b610c8c61180b565b6001600160a01b0316610c9d610a41565b6001600160a01b031614610ce6576040805162461bcd60e51b81526020600482018190526024820152600080516020613396833981519152604482015290519081900360640190fd5b60678054610100600160a81b0319166101006001600160a01b0384169081029190911790915560405133907f51ace7fc4e2a9f6104449d0bbe0532efdfd8dfebc68b225b91dd1de3bbb804fd90600090a350565b60675460ff1615610d5d5760405162461bcd60e51b81526004016104bf906131e1565b60675461010090046001600160a01b031615610d8b5760405162461bcd60e51b81526004016104bf90612f8e565b610d9361180b565b6001600160a01b0316610da4610a41565b6001600160a01b031614610ded576040805162461bcd60e51b81526020600482018190526024820152600080516020613396833981519152604482015290519081900360640190fd5b60688110610e0d5760405162461bcd60e51b81526004016104bf90612e9a565b606881905560405181907fa21222d0eed205eed6a46ed1fe7faf1d0b5d097b9e04a6d4e59b7f1debfc8b2b90600090a250565b60408051606081018252606f54815260705460208201526071549181019190915281565b60695481565b6001600160a01b03166000908152606a60205260409020600c015490565b60675461010090046001600160a01b0316610ea25761122a565b6000610eaf61053561180f565b60675490915061010090046001600160a01b031660005b83518110156111e5576000610eed858381518110610ee057fe5b60200260200101516118f9565b90506000606b6000878581518110610f0157fe5b6020908102919091018101518252810191909152604001600020600101546001600160a01b03169050610f3582828761210a565b6001600160a01b0382166000908152606a6020526040812087516008909101908290899087908110610f6357fe5b60200260200101518152602001908152602001600020604051806040016040529081600082016040518060600160405290816000820154815260200160018201548152602001600282015481525050815260200160038201548152505090506000611002888681518110610fd357fe5b6020908102919091018101516001600160a01b0387166000908152606a90925260409091206006019089612161565b505060655460675460405163a9059cbb60e01b81529293506001600160a01b039182169263a9059cbb9261104192610100900416908590600401612c82565b602060405180830381600087803b15801561105b57600080fd5b505af115801561106f573d6000803e3d6000fd5b505050506040513d601f19601f820116820180604052508101906110939190612b76565b6110af5760405162461bcd60e51b81526004016104bf906131b8565b6001600160a01b0384166000908152606a60205260409020600c01546110d5908261189c565b6001600160a01b0385166000908152606a60205260409020600c0155875161112f9089908790811061110357fe5b6020908102919091018101516001600160a01b0386166000908152606a90925260409091209089612161565b50505061115b88868151811061114157fe5b602002602001015188606c6121619092919063ffffffff16565b505050856001600160a01b0316638d7cdec289878151811061117957fe5b60200260200101518487876040518563ffffffff1660e01b81526004016111a3949392919061325c565b600060405180830381600087803b1580156111bd57600080fd5b505af11580156111d1573d6000803e3d6000fd5b505060019096019550610ec6945050505050565b50336001600160a01b03167f9302ff85f986fa03af144f0430ecea91ded0b24af1655f46bde13c1d3c13b76b8460405161121f9190612cb5565b60405180910390a250505b50565b60675460009060ff16156112535760405162461bcd60e51b81526004016104bf906131e1565b60675461010090046001600160a01b0316156112815760405162461bcd60e51b81526004016104bf90612f8e565b600084116112a15760405162461bcd60e51b81526004016104bf90612d74565b60688211156112c25760405162461bcd60e51b81526004016104bf90612e3c565b60686112ce85856123bf565b11156112ec5760405162461bcd60e51b81526004016104bf9061307f565b6065546040516323b872dd60e01b81526001600160a01b03909116906323b872dd9061132090339030908990600401612c5e565b602060405180830381600087803b15801561133a57600080fd5b505af115801561134e573d6000803e3d6000fd5b505050506040513d601f19601f820116820180604052508101906113729190612b76565b61138e5760405162461bcd60e51b81526004016104bf906131b8565b60668054600101905560006113a461053561180f565b90506113b4878787878786611d99565b6001600160a01b0387166000908152606a60205260409020600c01546113da90866123d4565b6001600160a01b038089166000818152606a602052604090819020600c019390935560665492519189169290917f623b3d5e572a148a73b818e6f65063f047c4acf2a38cc0c8b367c5cd555963ae9061143a9086908b908b908b906132ac565b60405180910390a4505060665495945050505050565b61145861180b565b6001600160a01b0316611469610a41565b6001600160a01b0316146114b2576040805162461bcd60e51b81526020600482018190526024820152600080516020613396833981519152604482015290519081900360640190fd5b6001600160a01b0381166114f75760405162461bcd60e51b81526004018080602001828103825260268152602001806133006026913960400191505060405180910390fd5b6033546040516001600160a01b038084169216907f8be0079c531659141344cd1fd0a4f28419497f9722a3daafe3b4186f6b6457e090600090a3603380546001600160a01b0319166001600160a01b0392909216919091179055565b6065546001600160a01b031681565b60675460ff16156115855760405162461bcd60e51b81526004016104bf906131e1565b60675461010090046001600160a01b0316156115b35760405162461bcd60e51b81526004016104bf90612f8e565b60006115be836118f9565b6000848152606b60205260408120600101549192506001600160a01b03909116906115ea61053561180f565b6001600160a01b0383166000908152606a6020526040902090915061160f9082611aec565b6001600160a01b0382166000908152606a6020526040812081908190611636908986612161565b6040805160608101825288815260208082018690528183018590526001600160a01b038d166000908152606a9091529190912093965091945092509061167c9086611aec565b6001600160a01b0388166000908152606a602052604090206116a0908a838561242e565b6000898152606b60205260409081902060010180546001600160a01b0319166001600160a01b038b81169182179092559151908916908b907f85c2730e083fbf1495501a47cbebc8a7e57eab8b6eeac16aedcebc825e268fac90611705908a90613253565b60405180910390a4505050505050505050565b600080600061172786866123bf565b905060685484101561174b5760405162461bcd60e51b81526004016104bf90612ed1565b60695481101561176d5760405162461bcd60e51b81526004016104bf90613202565b60006117996068546068036117936304cace80606854890361264790919063ffffffff16565b906126a0565b905060006117c16069546068036117936302625a00606954870361264790919063ffffffff16565b905060006117dd6301312d006117d785856123d4565b906123d4565b90506117f16305f5e1006117938b84612647565b95506117fd86856123bf565b945050505050935093915050565b3390565b4390565b600061062f816118258461c4e06126a0565b9061189c565b60038201546004830154600091908382141561184a57915061062f9050565b818411156118675761185e85838684612707565b9250505061062f565b600084116118875760405162461bcd60e51b81526004016104bf906130a7565b61189385838684612795565b95945050505050565b6000828211156118f3576040805162461bcd60e51b815260206004820152601e60248201527f536166654d6174683a207375627472616374696f6e206f766572666c6f770000604482015290519081900360640190fd5b50900390565b6000818152606b60205260409020546001600160a01b03163381146105745760405162461bcd60e51b81526004016104bf90612d99565b600084116119505760405162461bcd60e51b81526004016104bf90612d74565b60688211156119715760405162461bcd60e51b81526004016104bf90612e3c565b600061197d85856123bf565b905060688111156119a05760405162461bcd60e51b81526004016104bf90613164565b60006119b0826117d785876123d4565b6001600160a01b0389166000908152606a602090815260408083208b8452600801825291829020825160a081018452815493810193845260018201546060820181905260028301546080830181905285835260039093015493820193909352939450611a1c91906123bf565b93506000611a3f856117d7856020015185600001516123d490919063ffffffff16565b905083811115611a615760405162461bcd60e51b81526004016104bf90612fb1565b60208301518251600091611a7591906123d4565b90506000611a83888a6123d4565b905080821115611add576000611a99838361189c565b60208601519091506000611ab7611ab0848f612647565b8f9061189c565b905081811015611ad95760405162461bcd60e51b81526004016104bf90612e63565b5050505b50505050505050505050505050565b600382015481811415611aff5750610b3b565b600583015460048401548015611b9f57828411611b2e5760405162461bcd60e51b81526004016104bf9061311f565b83831015611b9f57611b40818361189c565b60008481526020879052604081205491925090611b6690611b608561284f565b90612855565b90506000811215611b895760405162461bcd60e51b81526004016104bf90612d2f565b915081611b978460016123d4565b935050611b2e565b6003850184905560048501556005840155505050565b6000611bc284848461210a565b6001600160a01b0383166000908152606a60205260409020611be5908684612161565b50611bf69150606c90508684612161565b5050506001600160a01b0384166000908152606a60205260409020611c1f906006018684612161565b50909695505050505050565b80821115611c4b5760405162461bcd60e51b81526004016104bf90613030565b6000611c57828461189c565b6001600160a01b0386166000908152606a60205260408120600c0154919250611c80828761189c565b905080831115611d8f576000611c96848361189c565b60655460008b8152606b6020526040908190205490516323b872dd60e01b81529293506001600160a01b03918216926323b872dd92611cdd92169030908690600401612c5e565b602060405180830381600087803b158015611cf757600080fd5b505af1158015611d0b573d6000803e3d6000fd5b505050506040513d601f19601f82011682018060405250810190611d2f9190612b76565b611d4b5760405162461bcd60e51b81526004016104bf906131b8565b6001600160a01b0388166000908152606a60205260409020600c0154611d7190826123d4565b6001600160a01b0389166000908152606a60205260409020600c0155505b5050505050505050565b611da486868361210a565b600080611db2868686611718565b604080516060810182528681526020810184905290810182905260665492945090925090611de490606c90838861242e565b6066546001600160a01b0389166000908152606a60205260409020611e0a91838861242e565b506040805160608101825284815260208082018990528183018890526066546001600160a01b038c166000908152606a9092529290209091611e519160060190838861242e565b5050606680546000908152606b602052604080822080546001600160a01b039b8c166001600160a01b0319918216179091559254825290206001018054979098169616959095179095555050505050565b6000611ead306128ba565b15905090565b600054610100900460ff1680611ecc5750611ecc611ea2565b80611eda575060005460ff16155b611f155760405162461bcd60e51b815260040180806020018281038252602e815260200180613347602e913960400191505060405180910390fd5b600054610100900460ff16158015611f40576000805460ff1961ff0019909116610100171660011790555b606580546001600160a01b0319166001600160a01b0384161790558015610b3b576000805461ff00191690555050565b600054610100900460ff1680611f895750611f89611ea2565b80611f97575060005460ff16155b611fd25760405162461bcd60e51b815260040180806020018281038252602e815260200180613347602e913960400191505060405180910390fd5b600054610100900460ff16158015611ffd576000805460ff1961ff0019909116610100171660011790555b600061200761180b565b603380546001600160a01b0319166001600160a01b038316908117909155604051919250906000907f8be0079c531659141344cd1fd0a4f28419497f9722a3daafe3b4186f6b6457e0908290a350801561122a576000805461ff001916905550565b600054610100900460ff16806120825750612082611ea2565b80612090575060005460ff16155b6120cb5760405162461bcd60e51b815260040180806020018281038252602e815260200180613347602e913960400191505060405180910390fd5b600054610100900460ff161580156120f6576000805460ff1961ff0019909116610100171660011790555b801561122a576000805461ff001916905550565b612115606c82611aec565b6001600160a01b0382166000908152606a602052604090206121379082611aec565b6001600160a01b0383166000908152606a6020526040902061215c9060060182611aec565b505050565b6000828152600280850160209081526040808420815160a0810183528154928101928352600182015460608201819052948201546080820152918252600301549181019190915282918291906121c95760405162461bcd60e51b81526004016104bf90612f14565b80516121d58887611aec565b806020015194508060400151935060009250600061220f83602001516117d7612207888a6126a090919063ffffffff16565b8551906123d4565b9050808711156122295760009550600094505050506123b6565b600061223682600161189c565b9050600061224589600161189c565b9050600061225b6122568a8a6128c0565b61284f565b9050600061227f6001611825896020015189600001516123d490919063ffffffff16565b9050808b116122d25761229760016117d7838e61189c565b97506122ae816122a68b61284f565b8f9190612927565b6122cd846122c5846122bf8d61284f565b90612953565b8f91906129b8565b61235b565b838b116123325760058d01546122e8908a61189c565b60058e01556122fe846122c5846122bf8d61284f565b61231f826117d78b6123198f8a61189c90919063ffffffff16565b90612647565b99506122cd836122a6846122bf8d61284f565b60058d0154612341908361189c565b60058e0155909850889750879061235b836122a68461284f565b6123668d86846129b8565b60048d0154612375908b61189c565b60048e015560008c815260028e0160205260408120600101556123ae8361239b8c61284f565b8f6001016129279092919063ffffffff16565b505050505050505b93509350939050565b600061062c60016117d784611793878461189c565b60008282018381101561062c576040805162461bcd60e51b815260206004820152601b60248201527f536166654d6174683a206164646974696f6e206f766572666c6f770000000000604482015290519081900360640190fd5b604082015161244f5760405162461bcd60e51b81526004016104bf90612fe8565b8160200151826040015111156124775760405162461bcd60e51b81526004016104bf906130d5565b6000838152600285016020526040902060010154156124a85760405162461bcd60e51b81526004016104bf90612f4b565b604080518082018252838152602080820184815260008781526002808a01845290859020935180518555928301516001850155919093015190820155905160039091015581516124f9908590611aec565b6020820151600485015461250c916123d4565b6004850155815160009061252190600161189c565b905061253f81612534856020015161284f565b6001880191906129b8565b600061255c846040015185602001516126a090919063ffffffff16565b90508261259c5760408401516005870154612576916123d4565b6005870155604084015161259790839061258f9061284f565b8891906129b8565b6125d1565b60006125a883856123d4565b90506125c3816125bb876040015161284f565b8991906129b8565b6125cd82856123d4565b9150505b60006125f1612256866040015187602001516128c090919063ffffffff16565b855190915060009061260390846123d4565b9050600061261282600161189c565b905061263181612629856122bf8b6040015161284f565b8b9190612927565b61263c898385612927565b505050505050505050565b6000826126565750600061062f565b8282028284828161266357fe5b041461062c5760405162461bcd60e51b81526004018080602001828103825260218152602001806133756021913960400191505060405180910390fd5b60008082116126f6576040805162461bcd60e51b815260206004820152601a60248201527f536166654d6174683a206469766973696f6e206279207a65726f000000000000604482015290519081900360640190fd5b8183816126ff57fe5b049392505050565b60008161271557508061278d565b6005850154845b848110156127875761272e848361189c565b6000828152602089905260408120549195509061274e90611b608561284f565b905060008112156127715760405162461bcd60e51b81526004016104bf90612d2f565b91508161277f8260016123d4565b91505061271c565b83925050505b949350505050565b6005840154600090845b848110612787576127b084836123d4565b6000828152600189016020526040812054919550906127d2906122bf8761284f565b905060008112156127f55760405162461bcd60e51b81526004016104bf90612dd0565b93508361280382600161189c565b600081815260208a9052604081205491935090612823906122bf8661284f565b905060008112156128465760405162461bcd60e51b81526004016104bf90612d2f565b925061279f9050565b80610574565b600082820181831280159061286a5750838112155b8061287f575060008312801561287f57508381125b61062c5760405162461bcd60e51b81526004018080602001828103825260218152602001806133266021913960400191505060405180910390fd5b3b151590565b6000808211612916576040805162461bcd60e51b815260206004820152601860248201527f536166654d6174683a206d6f64756c6f206279207a65726f0000000000000000604482015290519081900360640190fd5b81838161291f57fe5b069392505050565b6000828152602084905260409020546129409082612953565b6000928352602093909352506040902055565b60008183038183128015906129685750838113155b8061297d575060008312801561297d57508381135b61062c5760405162461bcd60e51b81526004018080602001828103825260248152602001806133b66024913960400191505060405180910390fd5b6000828152602084905260409020546129409082612855565b6000602082840312156129e2578081fd5b813561062c816132ea565b600080600080600060a08688031215612a04578081fd5b8535612a0f816132ea565b94506020860135612a1f816132ea565b94979496505050506040830135926060810135926080909101359150565b60008060408385031215612a4f578182fd5b8235612a5a816132ea565b946020939093013593505050565b60008060008060008060c08789031215612a80578081fd5b8635612a8b816132ea565b95506020870135945060408701359350606087013560ff81168114612aae578182fd5b9598949750929560808101359460a0909101359350915050565b60006020808385031215612ada578182fd5b823567ffffffffffffffff80821115612af1578384fd5b818501915085601f830112612b04578384fd5b813581811115612b1057fe5b83810260405185828201018181108582111715612b2957fe5b604052828152858101935084860182860187018a1015612b47578788fd5b8795505b83861015612b69578035855260019590950194938601938601612b4b565b5098975050505050505050565b600060208284031215612b87578081fd5b8151801515811461062c578182fd5b600060208284031215612ba7578081fd5b5035919050565b60008060408385031215612bc0578182fd5b823591506020830135612bd2816132ea565b809150509250929050565b600080600080600060a08688031215612bf4578081fd5b853594506020860135612a1f816132ea565b600080600060608486031215612c1a578283fd5b505081359360208301359350604090920135919050565b8051825260208082015190830152604090810151910152565b6001600160a01b0391909116815260200190565b6001600160a01b039384168152919092166020820152604081019190915260600190565b6001600160a01b03929092168252602082015260400190565b6001600160a01b0392831681529116602082015260400190565b6020808252825182820181905260009190848201906040850190845b81811015611c1f57835183529284019291840191600101612cd1565b901515815260200190565b6020808252601a908201527f6e657720736c6f706520706572696f64203e2032207965617273000000000000604082015260600190565b60208082526025908201527f736c6f7065203c20302c20736f6d657468696e672077726f6e67207769746820604082015264736c6f706560d81b606082015260800190565b6020808252600b908201526a1e995c9bc8185b5bdd5b9d60aa1b604082015260600190565b60208082526018908201527f63616c6c6572206e6f742061207374616b65206f776e65720000000000000000604082015260600190565b60208082526023908201527f62696173203c20302c20736f6d657468696e672077726f6e672077697468206260408201526269617360e81b606082015260800190565b6020808252600f908201526e1b9bdd081a5b5c1b195b595b9d1959608a1b604082015260600190565b6020808252600d908201526c636c69666620746f6f2062696760981b604082015260600190565b60208082526019908201527f64657465637420637574206465706f73697420636f726e657200000000000000604082015260600190565b6020808252601a908201527f6e657720636c69666620706572696f64203e2032207965617273000000000000604082015260600190565b60208082526023908201527f636c69666620706572696f64203c206d696e696d616c207374616b65207065726040820152621a5bd960ea1b606082015260800190565b6020808252601f908201527f52656d6f76696e67204c696e652c207768696368206e6f742065786973747300604082015260600190565b60208082526023908201527f4c696e65207769746820676976656e20696420697320616c72656164792065786040820152621a5cdd60ea1b606082015260800190565b6020808252600990820152686d6967726174696e6760b81b604082015260600190565b6020808252601f908201527f6e6577206c696e6520706572696f64207374616b6520746f6f2073686f727400604082015260600190565b60208082526028908201527f536c6f7065203d3d20302c20756e61636365707461626c652076616c756520666040820152676f7220736c6f706560c01b606082015260800190565b6020808252602f908201527f496d706f737369626c6520746f2072657374616b653a206c65737320616d6f7560408201526e6e742c207468656e206e6f7720697360881b606082015260800190565b6020808252600e908201526d706572696f6420746f6f2062696760901b604082015260600190565b602080825260149082015273756e657870656374656420706173742074696d6560601b604082015260600190565b6020808252602a908201527f536c6f7065203e20626961732c20756e61636365707461626c652076616c756560408201526920666f7220736c6f706560b01b606082015260800190565b60208082526025908201527f63616e2774207570646174652042726f6b656e4c696e6520666f7220706173746040820152642074696d6560d81b606082015260800190565b6020808252600d908201526c736c6f706520746f6f2062696760981b604082015260600190565b602080825260139082015272189b1bd8dac81b9bdd081e595d081b5a5b9959606a1b604082015260600190565b6020808252600f908201526e1d1c985b9cd9995c8819985a5b1959608a1b604082015260600190565b6020808252600790820152661cdd1bdc1c195960ca1b604082015260600190565b60208082526023908201527f736c6f706520706572696f64203c206d696e696d616c207374616b65207065726040820152621a5bd960ea1b606082015260800190565b6060810161062f8284612c31565b90815260200190565b600060e082019050858252613275602083018651612c31565b6020949094015160808201526001600160a01b0392831660a0820152911660c090910152919050565b918252602082015260400190565b93845260208401929092526040830152606082015260800190565b948552602085019390935260408401919091526060830152608082015260a00190565b6001600160a01b038116811461122a57600080fdfe4f776e61626c653a206e6577206f776e657220697320746865207a65726f20616464726573735369676e6564536166654d6174683a206164646974696f6e206f766572666c6f77496e697469616c697a61626c653a20636f6e747261637420697320616c726561647920696e697469616c697a6564536166654d6174683a206d756c7469706c69636174696f6e206f766572666c6f774f776e61626c653a2063616c6c6572206973206e6f7420746865206f776e65725369676e6564536166654d6174683a207375627472616374696f6e206f766572666c6f77a26469706673582212209e41280ecdcd1d9f0ff43c668f0133789991ec052bea1a544ae29b574faa6f8764736f6c63430007060033",
  "immutableReferences": {},
  "source": "// SPDX-License-Identifier: MIT\r\n\r\npragma solidity 0.7.6;\r\npragma abicoder v2;\r\n\r\nimport \"./INextVersionStake.sol\";\r\nimport \"./StakingBase.sol\";\r\nimport \"./StakingRestake.sol\";\r\nimport \"./StakingVotes.sol\";\r\n\r\ncontract Staking is StakingBase, StakingRestake, StakingVotes {\r\n    using SafeMathUpgradeable for uint;\r\n    using LibBrokenLine for LibBrokenLine.BrokenLine;\r\n\r\n    function __Staking_init(IERC20Upgradeable _token) external initializer {\r\n        __StakingBase_init_unchained(_token);\r\n        __Ownable_init_unchained();\r\n        __Context_init_unchained();\r\n    }\r\n\r\n    function stop() external onlyOwner notStopped {\r\n        stopped = true;\r\n        emit StopStaking(msg.sender);\r\n    }\r\n\r\n    function startMigration(address to) external onlyOwner {\r\n        migrateTo = to;\r\n        emit StartMigration(msg.sender, to);\r\n    }\r\n\r\n    function stake(address account, address _delegate, uint amount, uint slope, uint cliff) external notStopped notMigrating returns (uint) {\r\n        require(amount > 0, \"zero amount\");\r\n        require(cliff <= TWO_YEAR_WEEKS, \"cliff too big\");\r\n        require(divUp(amount, slope) <= TWO_YEAR_WEEKS, \"period too big\");\r\n        require(token.transferFrom(msg.sender, address(this), amount), \"transfer failed\");\r\n\r\n        counter++;\r\n\r\n        uint time = roundTimestamp(getBlockNumber());\r\n        addLines(account, _delegate, amount, slope, cliff, time);\r\n        accounts[account].amount = accounts[account].amount.add(amount);\r\n        emit StakeCreate(counter, account, _delegate, time, amount, slope, cliff);\r\n        return counter;\r\n    }\r\n\r\n    function withdraw() external {\r\n        uint value = getAvailableForWithdraw(msg.sender);\r\n        if (value > 0) {\r\n            accounts[msg.sender].amount = accounts[msg.sender].amount.sub(value);\r\n            require(token.transfer(msg.sender, value), \"transfer failed\");\r\n        }\r\n        emit Withdraw(msg.sender, value);\r\n    }\r\n\r\n    // Amount available for withdrawal\r\n    function getAvailableForWithdraw(address account) public view returns (uint value) {\r\n        value = accounts[account].amount;\r\n        if (!stopped) {\r\n            uint time = roundTimestamp(getBlockNumber());\r\n            uint bias = accounts[account].locked.actualValue(time);\r\n            value = value.sub(bias);\r\n        }\r\n    }\r\n\r\n    //Remaining locked amount\r\n    function locked(address account) external view returns (uint) {\r\n        return accounts[account].amount;\r\n    }\r\n\r\n    //For a given Line id, the owner and delegate addresses.\r\n    function getAccountAndDelegate(uint id) external view returns (address account, address delegate) {\r\n        account = stakes[id].account;\r\n        delegate = stakes[id].delegate;\r\n    }\r\n\r\n    //Getting \"current week\" of the contract.\r\n    function getWeek() external view returns (uint) {\r\n        return roundTimestamp(getBlockNumber());\r\n    }\r\n\r\n    function delegateTo(uint id, address newDelegate) external notStopped notMigrating {\r\n        address account = verifyStakeOwner(id);\r\n        address _delegate = stakes[id].delegate;\r\n        uint time = roundTimestamp(getBlockNumber());\r\n        accounts[_delegate].balance.update(time);\r\n        (uint bias, uint slope, uint cliff) = accounts[_delegate].balance.remove(id, time);\r\n        LibBrokenLine.Line memory line = LibBrokenLine.Line(time, bias, slope);\r\n        accounts[newDelegate].balance.update(time);\r\n        accounts[newDelegate].balance.add(id, line, cliff);\r\n        stakes[id].delegate = newDelegate;\r\n        emit Delegate(id, account, newDelegate, time);\r\n    }\r\n\r\n    function totalSupply() external view returns (uint) {\r\n        if ((totalSupplyLine.initial.bias == 0) || (stopped)) {\r\n            return 0;\r\n        }\r\n        uint time = roundTimestamp(getBlockNumber());\r\n        return totalSupplyLine.actualValue(time);\r\n    }\r\n\r\n    function balanceOf(address account) external view returns (uint) {\r\n        if ((accounts[account].balance.initial.bias == 0) || (stopped)) {\r\n            return 0;\r\n        }\r\n        uint time = roundTimestamp(getBlockNumber());\r\n        return accounts[account].balance.actualValue(time);\r\n    }\r\n\r\n    function migrate(uint[] memory id) external {\r\n        if (migrateTo == address(0)) {\r\n            return;\r\n        }\r\n        uint time = roundTimestamp(getBlockNumber());\r\n        INextVersionStake nextVersionStake = INextVersionStake(migrateTo);\r\n        for (uint256 i = 0; i < id.length; i++) {\r\n            address account = verifyStakeOwner(id[i]);\r\n            address _delegate = stakes[id[i]].delegate;\r\n            updateLines(account, _delegate, time);\r\n            //save data Line before remove\r\n            LibBrokenLine.LineData memory lineData = accounts[account].locked.initiatedLines[id[i]];\r\n            (uint residue,,) = accounts[account].locked.remove(id[i], time);\r\n\r\n            require(token.transfer(migrateTo, residue), \"transfer failed\");\r\n            accounts[account].amount = accounts[account].amount.sub(residue);\r\n\r\n            accounts[_delegate].balance.remove(id[i], time);\r\n            totalSupplyLine.remove(id[i], time);\r\n            nextVersionStake.initiateData(id[i], lineData, account, _delegate);\r\n        }\r\n        emit Migrate(msg.sender, id);\r\n    }\r\n\r\n    function setMinCliffPeriod(uint newMinCliffPeriod) external  notStopped notMigrating onlyOwner {\r\n        require(newMinCliffPeriod < TWO_YEAR_WEEKS, \"new cliff period > 2 years\");\r\n        minCliffPeriod = newMinCliffPeriod;\r\n\r\n        emit SetMinCliffPeriod(newMinCliffPeriod);\r\n    }\r\n\r\n    function setMinSlopePeriod(uint newMinSlopePeriod) external  notStopped notMigrating onlyOwner {\r\n        require(newMinSlopePeriod < TWO_YEAR_WEEKS, \"new slope period > 2 years\");\r\n        minSlopePeriod = newMinSlopePeriod;\r\n\r\n        emit SetMinSlopePeriod(newMinSlopePeriod);\r\n    }\r\n\r\n    uint256[50] private __gap;\r\n}",
  "sourcePath": "C:\\rarible\\protocol-contracts\\staking\\contracts\\Staking.sol",
  "compiler": {
    "name": "solc",
    "version": "0.7.6+commit.7338295f.Emscripten.clang"
  },
  "schemaVersion": "3.4.3",
  "updatedAt": "2022-09-30T13:13:40.497Z",
  "devdoc": {
    "kind": "dev",
    "methods": {
      "delegate(address)": {
        "details": "Delegates votes from the sender to `delegatee`."
      },
      "delegateBySig(address,uint256,uint256,uint8,bytes32,bytes32)": {
        "details": "Delegates votes from signer to `delegatee`."
      },
      "delegates(address)": {
        "details": "Returns the delegate that `account` has chosen."
      },
      "getPastTotalSupply(uint256)": {
        "details": "Returns the total supply of votes available at the end of a past block (`blockNumber`). NOTE: This value is the sum of all available votes, which is not necessarily the sum of all delegated votes. Votes that have not been delegated are still part of total supply, even though they would not participate in a vote."
      },
      "getPastVotes(address,uint256)": {
        "details": "Returns the amount of votes that `account` had at the end of a past block (`blockNumber`)."
      },
      "getVotes(address)": {
        "details": "Returns the current amount of votes that `account` has."
      },
      "owner()": {
        "details": "Returns the address of the current owner."
      },
      "renounceOwnership()": {
        "details": "Leaves the contract without owner. It will not be possible to call `onlyOwner` functions anymore. Can only be called by the current owner. NOTE: Renouncing ownership will leave the contract without an owner, thereby removing any functionality that is only available to the owner."
      },
      "transferOwnership(address)": {
        "details": "Transfers ownership of the contract to a new account (`newOwner`). Can only be called by the current owner."
      }
    },
    "version": 1
  },
  "userdoc": {
    "kind": "user",
    "methods": {
      "getStake(uint256,uint256,uint256)": {
        "notice": "alculate and return (newAmount, newSlope), using formula: staking = (tokens * (      ST_FORMULA_CONST_MULTIPLIER      + ST_FORMULA_CLIFF_MULTIPLIER * (cliffPeriod - minCliffPeriod))/(TWO_YEAR_WEEKS - minCliffPeriod)      + ST_FORMULA_SLOPE_MULTIPLIER * (slopePeriod - minSlopePeriod))/(TWO_YEAR_WEEKS - minSlopePeriod)      )) / ST_FORMULA_DIVIDER*"
      }
    },
    "version": 1
  }
}