{
  "contractName": "Staking",
  "abi": [
    {
      "anonymous": false,
      "inputs": [
        {
          "indexed": true,
          "internalType": "uint256",
          "name": "id",
          "type": "uint256"
        },
        {
          "indexed": true,
          "internalType": "address",
          "name": "account",
          "type": "address"
        },
        {
          "indexed": true,
          "internalType": "address",
          "name": "delegate",
          "type": "address"
        },
        {
          "indexed": false,
          "internalType": "uint256",
          "name": "time",
          "type": "uint256"
        }
      ],
      "name": "Delegate",
      "type": "event"
    },
    {
      "anonymous": false,
      "inputs": [
        {
          "indexed": true,
          "internalType": "address",
          "name": "account",
          "type": "address"
        },
        {
          "indexed": false,
          "internalType": "uint256[]",
          "name": "id",
          "type": "uint256[]"
        }
      ],
      "name": "Migrate",
      "type": "event"
    },
    {
      "anonymous": false,
      "inputs": [
        {
          "indexed": true,
          "internalType": "address",
          "name": "previousOwner",
          "type": "address"
        },
        {
          "indexed": true,
          "internalType": "address",
          "name": "newOwner",
          "type": "address"
        }
      ],
      "name": "OwnershipTransferred",
      "type": "event"
    },
    {
      "anonymous": false,
      "inputs": [
        {
          "indexed": true,
          "internalType": "uint256",
          "name": "id",
          "type": "uint256"
        },
        {
          "indexed": true,
          "internalType": "address",
          "name": "account",
          "type": "address"
        },
        {
          "indexed": true,
          "internalType": "address",
          "name": "delegate",
          "type": "address"
        },
        {
          "indexed": false,
          "internalType": "uint256",
          "name": "counter",
          "type": "uint256"
        },
        {
          "indexed": false,
          "internalType": "uint256",
          "name": "time",
          "type": "uint256"
        },
        {
          "indexed": false,
          "internalType": "uint256",
          "name": "amount",
          "type": "uint256"
        },
        {
          "indexed": false,
          "internalType": "uint256",
          "name": "slope",
          "type": "uint256"
        },
        {
          "indexed": false,
          "internalType": "uint256",
          "name": "cliff",
          "type": "uint256"
        }
      ],
      "name": "Restake",
      "type": "event"
    },
    {
      "anonymous": false,
      "inputs": [
        {
          "indexed": true,
          "internalType": "uint256",
          "name": "id",
          "type": "uint256"
        },
        {
          "indexed": true,
          "internalType": "address",
          "name": "account",
          "type": "address"
        },
        {
          "indexed": true,
          "internalType": "address",
          "name": "delegate",
          "type": "address"
        },
        {
          "indexed": false,
          "internalType": "uint256",
          "name": "time",
          "type": "uint256"
        },
        {
          "indexed": false,
          "internalType": "uint256",
          "name": "amount",
          "type": "uint256"
        },
        {
          "indexed": false,
          "internalType": "uint256",
          "name": "slope",
          "type": "uint256"
        },
        {
          "indexed": false,
          "internalType": "uint256",
          "name": "cliff",
          "type": "uint256"
        }
      ],
      "name": "StakeCreate",
      "type": "event"
    },
    {
      "anonymous": false,
      "inputs": [
        {
          "indexed": true,
          "internalType": "address",
          "name": "account",
          "type": "address"
        },
        {
          "indexed": true,
          "internalType": "address",
          "name": "to",
          "type": "address"
        }
      ],
      "name": "StartMigration",
      "type": "event"
    },
    {
      "anonymous": false,
      "inputs": [
        {
          "indexed": true,
          "internalType": "address",
          "name": "account",
          "type": "address"
        }
      ],
      "name": "StopStaking",
      "type": "event"
    },
    {
      "anonymous": false,
      "inputs": [
        {
          "indexed": true,
          "internalType": "address",
          "name": "account",
          "type": "address"
        },
        {
          "indexed": false,
          "internalType": "uint256",
          "name": "amount",
          "type": "uint256"
        }
      ],
      "name": "Withdraw",
      "type": "event"
    },
    {
      "inputs": [],
      "name": "counter",
      "outputs": [
        {
          "internalType": "uint256",
          "name": "",
          "type": "uint256"
        }
      ],
      "stateMutability": "view",
      "type": "function"
    },
    {
      "inputs": [
        {
          "internalType": "uint256",
          "name": "amount",
          "type": "uint256"
        },
        {
          "internalType": "uint256",
          "name": "slope",
          "type": "uint256"
        },
        {
          "internalType": "uint256",
          "name": "cliff",
          "type": "uint256"
        }
      ],
      "name": "getStake",
      "outputs": [
        {
          "internalType": "uint256",
          "name": "stakeAmount",
          "type": "uint256"
        },
        {
          "internalType": "uint256",
          "name": "stakeSlope",
          "type": "uint256"
        }
      ],
      "stateMutability": "pure",
      "type": "function"
    },
    {
      "inputs": [],
      "name": "migrateTo",
      "outputs": [
        {
          "internalType": "address",
          "name": "",
          "type": "address"
        }
      ],
      "stateMutability": "view",
      "type": "function"
    },
    {
      "inputs": [],
      "name": "owner",
      "outputs": [
        {
          "internalType": "address",
          "name": "",
          "type": "address"
        }
      ],
      "stateMutability": "view",
      "type": "function"
    },
    {
      "inputs": [],
      "name": "renounceOwnership",
      "outputs": [],
      "stateMutability": "nonpayable",
      "type": "function"
    },
    {
      "inputs": [
        {
          "internalType": "uint256",
          "name": "id",
          "type": "uint256"
        },
        {
          "internalType": "address",
          "name": "newDelegate",
          "type": "address"
        },
        {
          "internalType": "uint256",
          "name": "newAmount",
          "type": "uint256"
        },
        {
          "internalType": "uint256",
          "name": "newSlope",
          "type": "uint256"
        },
        {
          "internalType": "uint256",
          "name": "newCliff",
          "type": "uint256"
        }
      ],
      "name": "restake",
      "outputs": [
        {
          "internalType": "uint256",
          "name": "",
          "type": "uint256"
        }
      ],
      "stateMutability": "nonpayable",
      "type": "function"
    },
    {
      "inputs": [],
      "name": "stopped",
      "outputs": [
        {
          "internalType": "bool",
          "name": "",
          "type": "bool"
        }
      ],
      "stateMutability": "view",
      "type": "function"
    },
    {
      "inputs": [],
      "name": "token",
      "outputs": [
        {
          "internalType": "contract IERC20Upgradeable",
          "name": "",
          "type": "address"
        }
      ],
      "stateMutability": "view",
      "type": "function"
    },
    {
      "inputs": [],
      "name": "totalSupplyLine",
      "outputs": [
        {
          "components": [
            {
              "internalType": "uint256",
              "name": "start",
              "type": "uint256"
            },
            {
              "internalType": "uint256",
              "name": "bias",
              "type": "uint256"
            },
            {
              "internalType": "uint256",
              "name": "slope",
              "type": "uint256"
            }
          ],
          "internalType": "struct LibBrokenLine.Line",
          "name": "initial",
          "type": "tuple"
        }
      ],
      "stateMutability": "view",
      "type": "function"
    },
    {
      "inputs": [
        {
          "internalType": "address",
          "name": "newOwner",
          "type": "address"
        }
      ],
      "name": "transferOwnership",
      "outputs": [],
      "stateMutability": "nonpayable",
      "type": "function"
    },
    {
      "inputs": [
        {
          "internalType": "contract IERC20Upgradeable",
          "name": "_token",
          "type": "address"
        }
      ],
      "name": "__Staking_init",
      "outputs": [],
      "stateMutability": "nonpayable",
      "type": "function"
    },
    {
      "inputs": [],
      "name": "stop",
      "outputs": [],
      "stateMutability": "nonpayable",
      "type": "function"
    },
    {
      "inputs": [
        {
          "internalType": "address",
          "name": "to",
          "type": "address"
        }
      ],
      "name": "startMigration",
      "outputs": [],
      "stateMutability": "nonpayable",
      "type": "function"
    },
    {
      "inputs": [
        {
          "internalType": "address",
          "name": "account",
          "type": "address"
        },
        {
          "internalType": "address",
          "name": "delegate",
          "type": "address"
        },
        {
          "internalType": "uint256",
          "name": "amount",
          "type": "uint256"
        },
        {
          "internalType": "uint256",
          "name": "slope",
          "type": "uint256"
        },
        {
          "internalType": "uint256",
          "name": "cliff",
          "type": "uint256"
        }
      ],
      "name": "stake",
      "outputs": [
        {
          "internalType": "uint256",
          "name": "",
          "type": "uint256"
        }
      ],
      "stateMutability": "nonpayable",
      "type": "function"
    },
    {
      "inputs": [],
      "name": "withdraw",
      "outputs": [],
      "stateMutability": "nonpayable",
      "type": "function"
    },
    {
      "inputs": [
        {
          "internalType": "address",
          "name": "account",
          "type": "address"
        }
      ],
      "name": "getAvailableForWithdraw",
      "outputs": [
        {
          "internalType": "uint256",
          "name": "value",
          "type": "uint256"
        }
      ],
      "stateMutability": "view",
      "type": "function"
    },
    {
      "inputs": [
        {
          "internalType": "address",
          "name": "account",
          "type": "address"
        }
      ],
      "name": "locked",
      "outputs": [
        {
          "internalType": "uint256",
          "name": "",
          "type": "uint256"
        }
      ],
      "stateMutability": "view",
      "type": "function"
    },
    {
      "inputs": [
        {
          "internalType": "uint256",
          "name": "id",
          "type": "uint256"
        }
      ],
      "name": "getAccountAndDelegate",
      "outputs": [
        {
          "internalType": "address",
          "name": "account",
          "type": "address"
        },
        {
          "internalType": "address",
          "name": "delegate",
          "type": "address"
        }
      ],
      "stateMutability": "view",
      "type": "function"
    },
    {
      "inputs": [],
      "name": "getWeek",
      "outputs": [
        {
          "internalType": "uint256",
          "name": "",
          "type": "uint256"
        }
      ],
      "stateMutability": "view",
      "type": "function"
    },
    {
      "inputs": [
        {
          "internalType": "uint256",
          "name": "id",
          "type": "uint256"
        },
        {
          "internalType": "address",
          "name": "newDelegate",
          "type": "address"
        }
      ],
      "name": "delegateTo",
      "outputs": [],
      "stateMutability": "nonpayable",
      "type": "function"
    },
    {
      "inputs": [],
      "name": "totalSupply",
      "outputs": [
        {
          "internalType": "uint256",
          "name": "",
          "type": "uint256"
        }
      ],
      "stateMutability": "view",
      "type": "function"
    },
    {
      "inputs": [
        {
          "internalType": "address",
          "name": "account",
          "type": "address"
        }
      ],
      "name": "balanceOf",
      "outputs": [
        {
          "internalType": "uint256",
          "name": "",
          "type": "uint256"
        }
      ],
      "stateMutability": "view",
      "type": "function"
    },
    {
      "inputs": [
        {
          "internalType": "uint256[]",
          "name": "id",
          "type": "uint256[]"
        }
      ],
      "name": "migrate",
      "outputs": [],
      "stateMutability": "nonpayable",
      "type": "function"
    }
  ],
  "bytecode": "0x608060405234801561001057600080fd5b50612b68806100206000396000f3fe608060405234801561001057600080fd5b506004361061014d5760003560e01c80638da5cb5b116100c3578063d93bf4fe1161007c578063d93bf4fe14610274578063f108fa9314610287578063f2fde38b1461029a578063fc0c546a146102ad578063fc7881c6146102b5578063fecf0fdd146102c85761014d565b80638da5cb5b14610209578063986b343d1461021e57806398c6e76014610231578063a0f52da014610239578063b53546ab1461024c578063cbf9fe5f146102615761014d565b806361bc221a1161011557806361bc221a146101b65780636bde67d8146101be57806370a08231146101d1578063715018a6146101e457806375f12b21146101ec578063874d6d81146102015761014d565b806307da68f5146101525780630fc8deca1461015c57806315622e231461018557806318160ddd146101a65780633ccfd60b146101ae575b600080fd5b61015a6102e9565b005b61016f61016a366004612370565b6103b1565b60405161017c91906129ac565b60405180910390f35b6101986101933660046124aa565b610421565b60405161017c9291906125af565b61016f610448565b61015a610488565b61016f6105b1565b61016f6101cc3660046124f1565b6105b7565b61016f6101df366004612370565b610723565b61015a610791565b6101f461083d565b60405161017c9190612601565b61016f610846565b610211610856565b60405161017c919061255e565b61015a61022c366004612370565b610865565b610211610921565b61015a610247366004612370565b610935565b6102546109eb565b60405161017c919061299e565b61016f61026f366004612370565b610a0f565b61015a6102823660046123dc565b610a2d565b61016f61029536600461238c565b610dd0565b61015a6102a8366004612370565b610ff1565b6102116110f4565b61015a6102c33660046124c2565b611103565b6102db6102d636600461251a565b6112b7565b60405161017c9291906129f7565b6102f1611346565b6001600160a01b0316610302610856565b6001600160a01b03161461034b576040805162461bcd60e51b81526020600482018190526024820152600080516020612aef833981519152604482015290519081900360640190fd5b60675460ff16156103775760405162461bcd60e51b815260040161036e9061297d565b60405180910390fd5b6067805460ff1916600117905560405133907f6bc4e1d7a91902d97533e9181b5ca4c1e8a90725e767a9b8cdbbcf901ba554fe90600090a2565b6001600160a01b0381166000908152606860205260409020600a015460675460ff1661041c5760006103e24261134a565b6001600160a01b03841660009081526068602052604081209192509061040b906005018361136b565b9050610417838261142a565b925050505b919050565b600090815260696020526040902080546001909101546001600160a01b0391821692911690565b606d54600090158061045c575060675460ff165b1561046957506000610485565b60006104744261134a565b9050610481606a8261136b565b9150505b90565b6000610493336103b1565b9050801561056d57336000908152606860205260409020600a01546104b8908261142a565b3360008181526068602052604090819020600a0192909255606554915163a9059cbb60e01b81526001600160a01b039092169163a9059cbb916104ff918590600401612596565b602060405180830381600087803b15801561051957600080fd5b505af115801561052d573d6000803e3d6000fd5b505050506040513d601f19601f82011682018060405250810190610551919061248a565b61056d5760405162461bcd60e51b815260040161036e90612954565b336001600160a01b03167f884edad9ce6fa2440d8a54cc123490eb96d2768479d49ff9c7366125a9424364826040516105a691906129ac565b60405180910390a250565b60665481565b60675460009060ff16156105dd5760405162461bcd60e51b815260040161036e9061297d565b60675461010090046001600160a01b03161561060b5760405162461bcd60e51b815260040161036e90612785565b600061061687611487565b905060006106234261134a565b90506106338289888888866114be565b6000888152606960209081526040808320600101546001600160a01b0386811685526068909352922091169061066c906005018361167a565b6001600160a01b038316600090815260686020526040812060080154906106958b86858761174c565b90506106a48b8684848d6117c2565b6066805460010190556106bb858b8b8b8b89611930565b896001600160a01b0316856001600160a01b03168c7fed21ca2fb4312d282540746b7f00899205aee2bd522dcbb837405aea6a92b52a606654888e8e8e604051610709959493929190612a20565b60405180910390a450506066549998505050505050505050565b6001600160a01b038116600090815260686020526040812060030154158061074d575060675460ff165b1561075a5750600061041c565b60006107654261134a565b6001600160a01b038416600090815260686020526040902090915061078a908261136b565b9392505050565b610799611346565b6001600160a01b03166107aa610856565b6001600160a01b0316146107f3576040805162461bcd60e51b81526020600482018190526024820152600080516020612aef833981519152604482015290519081900360640190fd5b6033546040516000916001600160a01b0316907f8be0079c531659141344cd1fd0a4f28419497f9722a3daafe3b4186f6b6457e0908390a3603380546001600160a01b0319169055565b60675460ff1681565b60006108514261134a565b905090565b6033546001600160a01b031690565b600054610100900460ff168061087e575061087e611a39565b8061088c575060005460ff16155b6108c75760405162461bcd60e51b815260040180806020018281038252602e815260200180612aa0602e913960400191505060405180910390fd5b600054610100900460ff161580156108f2576000805460ff1961ff0019909116610100171660011790555b6108fb82611a4a565b610903611b07565b61090b611c00565b801561091d576000805461ff00191690555b5050565b60675461010090046001600160a01b031681565b61093d611346565b6001600160a01b031661094e610856565b6001600160a01b031614610997576040805162461bcd60e51b81526020600482018190526024820152600080516020612aef833981519152604482015290519081900360640190fd5b60678054610100600160a81b0319166101006001600160a01b0384169081029190911790915560405133907f51ace7fc4e2a9f6104449d0bbe0532efdfd8dfebc68b225b91dd1de3bbb804fd90600090a350565b60408051606081018252606c548152606d546020820152606e549181019190915281565b6001600160a01b03166000908152606860205260409020600a015490565b60675461010090046001600160a01b0316610a4757610dcd565b6000610a524261134a565b60675490915061010090046001600160a01b031660005b8351811015610d88576000610a90858381518110610a8357fe5b6020026020010151611487565b9050600060696000878581518110610aa457fe5b6020908102919091018101518252810191909152604001600020600101546001600160a01b03169050610ad8828287611ca1565b6001600160a01b038216600090815260686020526040812087516006909101908290899087908110610b0657fe5b60200260200101518152602001908152602001600020604051806040016040529081600082016040518060600160405290816000820154815260200160018201548152602001600282015481525050815260200160038201548152505090506000610ba5888681518110610b7657fe5b6020908102919091018101516001600160a01b0387166000908152606890925260409091206005019089611cf8565b505060655460675460405163a9059cbb60e01b81529293506001600160a01b039182169263a9059cbb92610be492610100900416908590600401612596565b602060405180830381600087803b158015610bfe57600080fd5b505af1158015610c12573d6000803e3d6000fd5b505050506040513d601f19601f82011682018060405250810190610c36919061248a565b610c525760405162461bcd60e51b815260040161036e90612954565b6001600160a01b0384166000908152606860205260409020600a0154610c78908261142a565b6001600160a01b0385166000908152606860205260409020600a01558751610cd290899087908110610ca657fe5b6020908102919091018101516001600160a01b0386166000908152606890925260409091209089611cf8565b505050610cfe888681518110610ce457fe5b602002602001015188606a611cf89092919063ffffffff16565b505050856001600160a01b0316638d7cdec2898781518110610d1c57fe5b60200260200101518487876040518563ffffffff1660e01b8152600401610d4694939291906129b5565b600060405180830381600087803b158015610d6057600080fd5b505af1158015610d74573d6000803e3d6000fd5b505060019096019550610a69945050505050565b50336001600160a01b03167f9302ff85f986fa03af144f0430ecea91ded0b24af1655f46bde13c1d3c13b76b84604051610dc291906125c9565b60405180910390a250505b50565b60675460009060ff1615610df65760405162461bcd60e51b815260040161036e9061297d565b60675461010090046001600160a01b031615610e245760405162461bcd60e51b815260040161036e90612785565b60008411610e445760405162461bcd60e51b815260040161036e90612651565b6068821115610e655760405162461bcd60e51b815260040161036e906126ad565b6068610e718585611ef9565b1115610e8f5760405162461bcd60e51b815260040161036e90612876565b6065546040516323b872dd60e01b81526001600160a01b03909116906323b872dd90610ec390339030908990600401612572565b602060405180830381600087803b158015610edd57600080fd5b505af1158015610ef1573d6000803e3d6000fd5b505050506040513d601f19601f82011682018060405250810190610f15919061248a565b610f315760405162461bcd60e51b815260040161036e90612954565b6066805460010190556000610f454261134a565b9050610f55878787878786611930565b6001600160a01b0387166000908152606860205260409020600a0154610f7b9086611f0e565b6001600160a01b0380891660008181526068602052604090819020600a019390935560665492519189169290917f623b3d5e572a148a73b818e6f65063f047c4acf2a38cc0c8b367c5cd555963ae90610fdb9086908b908b908b90612a05565b60405180910390a4505060665495945050505050565b610ff9611346565b6001600160a01b031661100a610856565b6001600160a01b031614611053576040805162461bcd60e51b81526020600482018190526024820152600080516020612aef833981519152604482015290519081900360640190fd5b6001600160a01b0381166110985760405162461bcd60e51b8152600401808060200182810382526026815260200180612a596026913960400191505060405180910390fd5b6033546040516001600160a01b038084169216907f8be0079c531659141344cd1fd0a4f28419497f9722a3daafe3b4186f6b6457e090600090a3603380546001600160a01b0319166001600160a01b0392909216919091179055565b6065546001600160a01b031681565b60675460ff16156111265760405162461bcd60e51b815260040161036e9061297d565b60675461010090046001600160a01b0316156111545760405162461bcd60e51b815260040161036e90612785565b600061115f83611487565b6000848152606960205260408120600101549192506001600160a01b03909116906111894261134a565b6001600160a01b03831660009081526068602052604090209091506111ae908261167a565b6001600160a01b0382166000908152606860205260408120819081906111d5908986611cf8565b6040805160608101825288815260208082018690528183018590526001600160a01b038d16600090815260689091529190912093965091945092509061121b908661167a565b6001600160a01b038816600090815260686020526040902061123f908a8385611f68565b6000898152606960205260409081902060010180546001600160a01b0319166001600160a01b038b81169182179092559151908916908b907f85c2730e083fbf1495501a47cbebc8a7e57eab8b6eeac16aedcebc825e268fac906112a4908a906129ac565b60405180910390a4505050505050505050565b600080806112d16124546112cb868061212e565b9061212e565b905060006112df8787611ef9565b905060006112f361122a6112cb848061212e565b9050600061131a612a4061131462ad4a8061130e8887611f0e565b90611f0e565b90612187565b905061132c6103e86113148b8461212e565b95506113388684611ef9565b945050505050935093915050565b3390565b6000611365610a7461135f8462093a80612187565b9061142a565b92915050565b600282015460038301549082811480611382575081155b1561138d5750611365565b60048401548184116113b15760405162461bcd60e51b815260040161036e906128e8565b83821015611422576113c3838261142a565b600083815260208790526040812054919450906113e9906113e3846121ee565b906121f4565b9050600081121561140c5760405162461bcd60e51b815260040161036e9061260c565b90508061141a836001611f0e565b9250506113b1565b505092915050565b600082821115611481576040805162461bcd60e51b815260206004820152601e60248201527f536166654d6174683a207375627472616374696f6e206f766572666c6f770000604482015290519081900360640190fd5b50900390565b6000818152606960205260409020546001600160a01b031633811461041c5760405162461bcd60e51b815260040161036e90612676565b600084116114de5760405162461bcd60e51b815260040161036e90612651565b60688211156114ff5760405162461bcd60e51b815260040161036e906126ad565b600061150b8585611ef9565b9050606881111561152e5760405162461bcd60e51b815260040161036e9061292d565b600061153e8261130e8587611f0e565b6001600160a01b03891660009081526068602090815260408083208b8452600601825291829020825160a0810184528154938101938452600182015460608201819052600283015460808301819052858352600390930154938201939093529394506115aa9190611ef9565b935060006115cd8561130e85602001518560000151611f0e90919063ffffffff16565b9050838111156115ef5760405162461bcd60e51b815260040161036e906127a8565b602083015182516000916116039190611f0e565b90506000611611888a611f0e565b90508082111561166b576000611627838361142a565b6020860151909150600061164561163e848f61212e565b8f9061142a565b9050818110156116675760405162461bcd60e51b815260040161036e906126d4565b5050505b50505050505050505050505050565b60028201548181141561168d575061091d565b600483015460038401548015611736578284116116bc5760405162461bcd60e51b815260040161036e906128e8565b83831015611736576116ce818361142a565b600084815260208790526040812054919250906116ee906113e3856121ee565b905060008112156117115760405162461bcd60e51b815260040161036e9061260c565b60008481526020879052604081205591508161172e846001611f0e565b9350506116bc565b6002850184905560038501556004840155505050565b6000611759848484611ca1565b6001600160a01b038316600090815260686020526040902061177c908684611cf8565b5061178d9150606a90508684611cf8565b5050506001600160a01b03841660009081526068602052604090206117b6906005018684611cf8565b50909695505050505050565b808211156117e25760405162461bcd60e51b815260040161036e90612827565b60006117ee828461142a565b6001600160a01b0386166000908152606860205260408120600a0154919250611817828761142a565b90508083111561192657600061182d848361142a565b60655460008b815260696020526040908190205490516323b872dd60e01b81529293506001600160a01b03918216926323b872dd9261187492169030908690600401612572565b602060405180830381600087803b15801561188e57600080fd5b505af11580156118a2573d6000803e3d6000fd5b505050506040513d601f19601f820116820180604052508101906118c6919061248a565b6118e25760405162461bcd60e51b815260040161036e90612954565b6001600160a01b0388166000908152606860205260409020600a01546119089082611f0e565b6001600160a01b0389166000908152606860205260409020600a0155505b5050505050505050565b61193b868683611ca1565b6000806119498686866112b7565b60408051606081018252868152602081018490529081018290526066549294509092509061197b90606a908388611f68565b6066546001600160a01b03891660009081526068602052604090206119a1918388611f68565b506040805160608101825284815260208082018990528183018890526066546001600160a01b038c166000908152606890925292902090916119e891600501908388611f68565b50506066805460009081526069602052604080822080546001600160a01b039b8c166001600160a01b0319918216179091559254825290206001018054979098169616959095179095555050505050565b6000611a4430612259565b15905090565b600054610100900460ff1680611a635750611a63611a39565b80611a71575060005460ff16155b611aac5760405162461bcd60e51b815260040180806020018281038252602e815260200180612aa0602e913960400191505060405180910390fd5b600054610100900460ff16158015611ad7576000805460ff1961ff0019909116610100171660011790555b606580546001600160a01b0319166001600160a01b038416179055801561091d576000805461ff00191690555050565b600054610100900460ff1680611b205750611b20611a39565b80611b2e575060005460ff16155b611b695760405162461bcd60e51b815260040180806020018281038252602e815260200180612aa0602e913960400191505060405180910390fd5b600054610100900460ff16158015611b94576000805460ff1961ff0019909116610100171660011790555b6000611b9e611346565b603380546001600160a01b0319166001600160a01b038316908117909155604051919250906000907f8be0079c531659141344cd1fd0a4f28419497f9722a3daafe3b4186f6b6457e0908290a3508015610dcd576000805461ff001916905550565b600054610100900460ff1680611c195750611c19611a39565b80611c27575060005460ff16155b611c625760405162461bcd60e51b815260040180806020018281038252602e815260200180612aa0602e913960400191505060405180910390fd5b600054610100900460ff16158015611c8d576000805460ff1961ff0019909116610100171660011790555b8015610dcd576000805461ff001916905550565b611cac606a8261167a565b6001600160a01b0382166000908152606860205260409020611cce908261167a565b6001600160a01b0383166000908152606860205260409020611cf3906005018261167a565b505050565b6000828152600180850160209081526040808420815160a0810183528154928101928352938101546060850181905260028201546080860152918452600301549183019190915282918291611d5f5760405162461bcd60e51b815260040161036e9061270b565b8051611d6b888761167a565b8060200151945080604001519350600092506000611da5836020015161130e611d9d888a61218790919063ffffffff16565b855190611f0e565b905080871115611dbb5760009550505050611ef0565b6000611dc882600161142a565b90506000611dde611dd9898961225f565b6121ee565b90506000611e02600161135f88602001518860000151611f0e90919063ffffffff16565b9050808a11611e5557611e1a600161130e838d61142a565b9650611e3181611e298a6121ee565b8e91906122c6565b611e5083611e4884611e428c6121ee565b906122f2565b8e9190612357565b611eb7565b828a11611e9a5760048c0154611e6b908961142a565b60048d0155611e8183611e4884611e428c6121ee565b611e938261130e8a6112cb888f61142a565b9850611eb7565b60048c0154611ea9908361142a565b60048d015590975087965086905b611ec28c8584612357565b60038c0154611ed1908a61142a565b60038d015550505060008881526001808b016020526040822001555050505b93509350939050565b600061078a600161130e84611314878461142a565b60008282018381101561078a576040805162461bcd60e51b815260206004820152601b60248201527f536166654d6174683a206164646974696f6e206f766572666c6f770000000000604482015290519081900360640190fd5b6040820151611f895760405162461bcd60e51b815260040161036e906127df565b816020015182604001511115611fb15760405162461bcd60e51b815260040161036e9061289e565b600083815260018086016020526040909120015415611fe25760405162461bcd60e51b815260040161036e90612742565b604080518082018252838152602080820184815260008781526001808a01845290859020935180518555928301519084015592015160028201559051600390910155815161203190859061167a565b6020820151600385015461204491611f0e565b6003850155604082015160208301516000916120609190612187565b905081612084576040830151600486015461207a91611f0e565b60048601556120c3565b825160009061209a9060019061135f9086611f0e565b90506120b5816120ad86604001516121ee565b889190612357565b6120bf8284611f0e565b9150505b60006120e3611dd98560400151866020015161225f90919063ffffffff16565b84519091506000906120f59084611f0e565b9050600061210482600161142a565b90506121238161211b85611e428a604001516121ee565b8a91906122c6565b6119268883856122c6565b60008261213d57506000611365565b8282028284828161214a57fe5b041461078a5760405162461bcd60e51b8152600401808060200182810382526021815260200180612ace6021913960400191505060405180910390fd5b60008082116121dd576040805162461bcd60e51b815260206004820152601a60248201527f536166654d6174683a206469766973696f6e206279207a65726f000000000000604482015290519081900360640190fd5b8183816121e657fe5b049392505050565b8061041c565b60008282018183128015906122095750838112155b8061221e575060008312801561221e57508381125b61078a5760405162461bcd60e51b8152600401808060200182810382526021815260200180612a7f6021913960400191505060405180910390fd5b3b151590565b60008082116122b5576040805162461bcd60e51b815260206004820152601860248201527f536166654d6174683a206d6f64756c6f206279207a65726f0000000000000000604482015290519081900360640190fd5b8183816122be57fe5b069392505050565b6000828152602084905260409020546122df90826122f2565b6000928352602093909352506040902055565b60008183038183128015906123075750838113155b8061231c575060008312801561231c57508381135b61078a5760405162461bcd60e51b8152600401808060200182810382526024815260200180612b0f6024913960400191505060405180910390fd5b6000828152602084905260409020546122df90826121f4565b600060208284031215612381578081fd5b813561078a81612a43565b600080600080600060a086880312156123a3578081fd5b85356123ae81612a43565b945060208601356123be81612a43565b94979496505050506040830135926060810135926080909101359150565b600060208083850312156123ee578182fd5b823567ffffffffffffffff80821115612405578384fd5b818501915085601f830112612418578384fd5b81358181111561242457fe5b8381026040518582820101818110858211171561243d57fe5b604052828152858101935084860182860187018a101561245b578788fd5b8795505b8386101561247d57803585526001959095019493860193860161245f565b5098975050505050505050565b60006020828403121561249b578081fd5b8151801515811461078a578182fd5b6000602082840312156124bb578081fd5b5035919050565b600080604083850312156124d4578182fd5b8235915060208301356124e681612a43565b809150509250929050565b600080600080600060a08688031215612508578081fd5b8535945060208601356123be81612a43565b60008060006060848603121561252e578283fd5b505081359360208301359350604090920135919050565b8051825260208082015190830152604090810151910152565b6001600160a01b0391909116815260200190565b6001600160a01b039384168152919092166020820152604081019190915260600190565b6001600160a01b03929092168252602082015260400190565b6001600160a01b0392831681529116602082015260400190565b6020808252825182820181905260009190848201906040850190845b818110156117b6578351835292840192918401916001016125e5565b901515815260200190565b60208082526025908201527f736c6f7065203c20302c20736f6d657468696e672077726f6e67207769746820604082015264736c6f706560d81b606082015260800190565b6020808252600b908201526a1e995c9bc8185b5bdd5b9d60aa1b604082015260600190565b60208082526018908201527f63616c6c6572206e6f742061207374616b65206f776e65720000000000000000604082015260600190565b6020808252600d908201526c636c69666620746f6f2062696760981b604082015260600190565b60208082526019908201527f64657465637420637574206465706f73697420636f726e657200000000000000604082015260600190565b6020808252601f908201527f52656d6f76696e67204c696e652c207768696368206e6f742065786973747300604082015260600190565b60208082526023908201527f4c696e65207769746820676976656e20696420697320616c72656164792065786040820152621a5cdd60ea1b606082015260800190565b6020808252600990820152686d6967726174696e6760b81b604082015260600190565b6020808252601f908201527f6e6577206c696e6520706572696f64207374616b6520746f6f2073686f727400604082015260600190565b60208082526028908201527f536c6f7065203d3d20302c20756e61636365707461626c652076616c756520666040820152676f7220736c6f706560c01b606082015260800190565b6020808252602f908201527f496d706f737369626c6520746f2072657374616b653a206c65737320616d6f7560408201526e6e742c207468656e206e6f7720697360881b606082015260800190565b6020808252600e908201526d706572696f6420746f6f2062696760901b604082015260600190565b6020808252602a908201527f536c6f7065203e20626961732c20756e61636365707461626c652076616c756560408201526920666f7220736c6f706560b01b606082015260800190565b60208082526025908201527f63616e2774207570646174652042726f6b656e4c696e6520666f7220706173746040820152642074696d6560d81b606082015260800190565b6020808252600d908201526c736c6f706520746f6f2062696760981b604082015260600190565b6020808252600f908201526e1d1c985b9cd9995c8819985a5b1959608a1b604082015260600190565b6020808252600790820152661cdd1bdc1c195960ca1b604082015260600190565b606081016113658284612545565b90815260200190565b600060e0820190508582526129ce602083018651612545565b6020949094015160808201526001600160a01b0392831660a0820152911660c090910152919050565b918252602082015260400190565b93845260208401929092526040830152606082015260800190565b948552602085019390935260408401919091526060830152608082015260a00190565b6001600160a01b0381168114610dcd57600080fdfe4f776e61626c653a206e6577206f776e657220697320746865207a65726f20616464726573735369676e6564536166654d6174683a206164646974696f6e206f766572666c6f77496e697469616c697a61626c653a20636f6e747261637420697320616c726561647920696e697469616c697a6564536166654d6174683a206d756c7469706c69636174696f6e206f766572666c6f774f776e61626c653a2063616c6c6572206973206e6f7420746865206f776e65725369676e6564536166654d6174683a207375627472616374696f6e206f766572666c6f77a264697066735822122010a245dfb3cd72f763f6f6ed909e3068306525925faf7e0d03b6252adb0cba3964736f6c63430007060033",
  "immutableReferences": {},
  "source": "// SPDX-License-Identifier: MIT\r\n\r\npragma solidity 0.7.6;\r\npragma abicoder v2;\r\n\r\nimport \"./INextVersionStake.sol\";\r\nimport \"./StakingBase.sol\";\r\nimport \"./StakingRestake.sol\";\r\n\r\ncontract Staking is StakingBase, StakingRestake {\r\n    using SafeMathUpgradeable for uint;\r\n    using LibBrokenLine for LibBrokenLine.BrokenLine;\r\n\r\n    function __Staking_init(IERC20Upgradeable _token) external initializer {\r\n        __StakingBase_init_unchained(_token);\r\n        __Ownable_init_unchained();\r\n        __Context_init_unchained();\r\n    }\r\n\r\n    function stop() external onlyOwner notStopped {\r\n        stopped = true;\r\n        emit StopStaking(msg.sender);\r\n    }\r\n\r\n    function startMigration(address to) external onlyOwner {\r\n        migrateTo = to;\r\n        emit StartMigration(msg.sender, to);\r\n    }\r\n\r\n    function stake(address account, address delegate, uint amount, uint slope, uint cliff) external notStopped notMigrating returns (uint) {\r\n        require(amount > 0, \"zero amount\");\r\n        require(cliff <= TWO_YEAR_WEEKS, \"cliff too big\");\r\n        require(divUp(amount, slope) <= TWO_YEAR_WEEKS, \"period too big\");\r\n        require(token.transferFrom(msg.sender, address(this), amount), \"transfer failed\");\r\n\r\n        counter++;\r\n\r\n        uint time = roundTimestamp(block.timestamp);\r\n        addLines(account, delegate, amount, slope, cliff, time);\r\n        accounts[account].amount = accounts[account].amount.add(amount);\r\n        emit StakeCreate(counter, account, delegate, time, amount, slope, cliff);\r\n        return counter;\r\n    }\r\n\r\n    function withdraw() external {\r\n        uint value = getAvailableForWithdraw(msg.sender);\r\n        if (value > 0) {\r\n            accounts[msg.sender].amount = accounts[msg.sender].amount.sub(value);\r\n            require(token.transfer(msg.sender, value), \"transfer failed\");\r\n        }\r\n        emit Withdraw(msg.sender, value);\r\n    }\r\n\r\n    // Amount available for withdrawal\r\n    function getAvailableForWithdraw(address account) public view returns (uint value) {\r\n        value = accounts[account].amount;\r\n        if (!stopped) {\r\n            uint time = roundTimestamp(block.timestamp);\r\n            uint bias = accounts[account].locked.actualValue(time);\r\n            value = value.sub(bias);\r\n        }\r\n    }\r\n\r\n    //Remaining locked amount\r\n    function locked(address account) external view returns (uint) {\r\n        return accounts[account].amount;\r\n    }\r\n\r\n    //For a given Line id, the owner and delegate addresses.\r\n    function getAccountAndDelegate(uint id) external view returns (address account, address delegate) {\r\n        account = stakes[id].account;\r\n        delegate = stakes[id].delegate;\r\n    }\r\n\r\n    //Getting \"current week\" of the contract.\r\n    function getWeek() external view returns (uint) {\r\n        return roundTimestamp(block.timestamp);\r\n    }\r\n\r\n    function delegateTo(uint id, address newDelegate) external notStopped notMigrating {\r\n        address account = verifyStakeOwner(id);\r\n        address delegate = stakes[id].delegate;\r\n        uint time = roundTimestamp(block.timestamp);\r\n        accounts[delegate].balance.update(time);\r\n        (uint bias, uint slope, uint cliff) = accounts[delegate].balance.remove(id, time);\r\n        LibBrokenLine.Line memory line = LibBrokenLine.Line(time, bias, slope);\r\n        accounts[newDelegate].balance.update(time);\r\n        accounts[newDelegate].balance.add(id, line, cliff);\r\n        stakes[id].delegate = newDelegate;\r\n        emit Delegate(id, account, newDelegate, time);\r\n    }\r\n\r\n    function totalSupply() external view returns (uint) {\r\n        if ((totalSupplyLine.initial.bias == 0) || (stopped)) {\r\n            return 0;\r\n        }\r\n        uint time = roundTimestamp(block.timestamp);\r\n        return totalSupplyLine.actualValue(time);\r\n    }\r\n\r\n    function balanceOf(address account) external view returns (uint) {\r\n        if ((accounts[account].balance.initial.bias == 0) || (stopped)) {\r\n            return 0;\r\n        }\r\n        uint time = roundTimestamp(block.timestamp);\r\n        return accounts[account].balance.actualValue(time);\r\n    }\r\n\r\n    function migrate(uint[] memory id) external {\r\n        if (migrateTo == address(0)) {\r\n            return;\r\n        }\r\n        uint time = roundTimestamp(block.timestamp);\r\n        INextVersionStake nextVersionStake = INextVersionStake(migrateTo);\r\n        for (uint256 i = 0; i < id.length; i++) {\r\n            address account = verifyStakeOwner(id[i]);\r\n            address delegate = stakes[id[i]].delegate;\r\n            updateLines(account, delegate, time);\r\n            //save data Line before remove\r\n            LibBrokenLine.LineData memory lineData = accounts[account].locked.initiatedLines[id[i]];\r\n            (uint residue,,) = accounts[account].locked.remove(id[i], time);\r\n\r\n            require(token.transfer(migrateTo, residue), \"transfer failed\");\r\n            accounts[account].amount = accounts[account].amount.sub(residue);\r\n\r\n            accounts[delegate].balance.remove(id[i], time);\r\n            totalSupplyLine.remove(id[i], time);\r\n            nextVersionStake.initiateData(id[i], lineData, account, delegate);\r\n        }\r\n        emit Migrate(msg.sender, id);\r\n    }\r\n\r\n    uint256[50] private __gap;\r\n}",
  "sourcePath": "C:\\rarible\\protocol-contracts\\staking\\contracts\\Staking.sol",
  "compiler": {
    "name": "solc",
    "version": "0.7.6+commit.7338295f.Emscripten.clang"
  },
  "schemaVersion": "3.4.3",
  "updatedAt": "2022-09-28T17:01:58.215Z",
  "devdoc": {
    "kind": "dev",
    "methods": {
      "owner()": {
        "details": "Returns the address of the current owner."
      },
      "renounceOwnership()": {
        "details": "Leaves the contract without owner. It will not be possible to call `onlyOwner` functions anymore. Can only be called by the current owner. NOTE: Renouncing ownership will leave the contract without an owner, thereby removing any functionality that is only available to the owner."
      },
      "transferOwnership(address)": {
        "details": "Transfers ownership of the contract to a new account (`newOwner`). Can only be called by the current owner."
      }
    },
    "version": 1
  },
  "userdoc": {
    "kind": "user",
    "methods": {
      "getStake(uint256,uint256,uint256)": {
        "notice": "alculate and return (newAmount, newSlope), using formula: k = (ST_FORMULA_COMPENSATE + ST_FORMULA_CLIFF_MULTIPLIER * (cliffPeriod)^2 + ST_FORMULA_SLOPE_MULTIPLIER * (slopePeriod)^2) / ST_FORMULA_MULTIPLIER newAmount = k * amount / ST_FORMULA_DIVIDER newSlope = newAmount / slopePeriod*"
      }
    },
    "version": 1
  }
}