{
  "contractName": "StakingBase",
  "abi": [
    {
      "anonymous": false,
      "inputs": [
        {
          "indexed": true,
          "internalType": "uint256",
          "name": "id",
          "type": "uint256"
        },
        {
          "indexed": true,
          "internalType": "address",
          "name": "account",
          "type": "address"
        },
        {
          "indexed": true,
          "internalType": "address",
          "name": "delegate",
          "type": "address"
        },
        {
          "indexed": false,
          "internalType": "uint256",
          "name": "time",
          "type": "uint256"
        }
      ],
      "name": "Delegate",
      "type": "event"
    },
    {
      "anonymous": false,
      "inputs": [
        {
          "indexed": true,
          "internalType": "address",
          "name": "account",
          "type": "address"
        },
        {
          "indexed": false,
          "internalType": "uint256[]",
          "name": "id",
          "type": "uint256[]"
        }
      ],
      "name": "Migrate",
      "type": "event"
    },
    {
      "anonymous": false,
      "inputs": [
        {
          "indexed": true,
          "internalType": "address",
          "name": "previousOwner",
          "type": "address"
        },
        {
          "indexed": true,
          "internalType": "address",
          "name": "newOwner",
          "type": "address"
        }
      ],
      "name": "OwnershipTransferred",
      "type": "event"
    },
    {
      "anonymous": false,
      "inputs": [
        {
          "indexed": true,
          "internalType": "uint256",
          "name": "id",
          "type": "uint256"
        },
        {
          "indexed": true,
          "internalType": "address",
          "name": "account",
          "type": "address"
        },
        {
          "indexed": true,
          "internalType": "address",
          "name": "delegate",
          "type": "address"
        },
        {
          "indexed": false,
          "internalType": "uint256",
          "name": "counter",
          "type": "uint256"
        },
        {
          "indexed": false,
          "internalType": "uint256",
          "name": "time",
          "type": "uint256"
        },
        {
          "indexed": false,
          "internalType": "uint256",
          "name": "amount",
          "type": "uint256"
        },
        {
          "indexed": false,
          "internalType": "uint256",
          "name": "slope",
          "type": "uint256"
        },
        {
          "indexed": false,
          "internalType": "uint256",
          "name": "cliff",
          "type": "uint256"
        }
      ],
      "name": "Restake",
      "type": "event"
    },
    {
      "anonymous": false,
      "inputs": [
        {
          "indexed": true,
          "internalType": "uint256",
          "name": "newMinCliffPeriod",
          "type": "uint256"
        }
      ],
      "name": "SetMinCliffPeriod",
      "type": "event"
    },
    {
      "anonymous": false,
      "inputs": [
        {
          "indexed": true,
          "internalType": "uint256",
          "name": "newMinSlopePeriod",
          "type": "uint256"
        }
      ],
      "name": "SetMinSlopePeriod",
      "type": "event"
    },
    {
      "anonymous": false,
      "inputs": [
        {
          "indexed": true,
          "internalType": "uint256",
          "name": "id",
          "type": "uint256"
        },
        {
          "indexed": true,
          "internalType": "address",
          "name": "account",
          "type": "address"
        },
        {
          "indexed": true,
          "internalType": "address",
          "name": "delegate",
          "type": "address"
        },
        {
          "indexed": false,
          "internalType": "uint256",
          "name": "time",
          "type": "uint256"
        },
        {
          "indexed": false,
          "internalType": "uint256",
          "name": "amount",
          "type": "uint256"
        },
        {
          "indexed": false,
          "internalType": "uint256",
          "name": "slope",
          "type": "uint256"
        },
        {
          "indexed": false,
          "internalType": "uint256",
          "name": "cliff",
          "type": "uint256"
        }
      ],
      "name": "StakeCreate",
      "type": "event"
    },
    {
      "anonymous": false,
      "inputs": [
        {
          "indexed": true,
          "internalType": "address",
          "name": "account",
          "type": "address"
        },
        {
          "indexed": true,
          "internalType": "address",
          "name": "to",
          "type": "address"
        }
      ],
      "name": "StartMigration",
      "type": "event"
    },
    {
      "anonymous": false,
      "inputs": [
        {
          "indexed": true,
          "internalType": "address",
          "name": "account",
          "type": "address"
        }
      ],
      "name": "StopStaking",
      "type": "event"
    },
    {
      "anonymous": false,
      "inputs": [
        {
          "indexed": true,
          "internalType": "address",
          "name": "account",
          "type": "address"
        },
        {
          "indexed": false,
          "internalType": "uint256",
          "name": "amount",
          "type": "uint256"
        }
      ],
      "name": "Withdraw",
      "type": "event"
    },
    {
      "inputs": [],
      "name": "counter",
      "outputs": [
        {
          "internalType": "uint256",
          "name": "",
          "type": "uint256"
        }
      ],
      "stateMutability": "view",
      "type": "function"
    },
    {
      "inputs": [],
      "name": "migrateTo",
      "outputs": [
        {
          "internalType": "address",
          "name": "",
          "type": "address"
        }
      ],
      "stateMutability": "view",
      "type": "function"
    },
    {
      "inputs": [],
      "name": "minCliffPeriod",
      "outputs": [
        {
          "internalType": "uint256",
          "name": "",
          "type": "uint256"
        }
      ],
      "stateMutability": "view",
      "type": "function"
    },
    {
      "inputs": [],
      "name": "minSlopePeriod",
      "outputs": [
        {
          "internalType": "uint256",
          "name": "",
          "type": "uint256"
        }
      ],
      "stateMutability": "view",
      "type": "function"
    },
    {
      "inputs": [],
      "name": "owner",
      "outputs": [
        {
          "internalType": "address",
          "name": "",
          "type": "address"
        }
      ],
      "stateMutability": "view",
      "type": "function"
    },
    {
      "inputs": [],
      "name": "renounceOwnership",
      "outputs": [],
      "stateMutability": "nonpayable",
      "type": "function"
    },
    {
      "inputs": [],
      "name": "stopped",
      "outputs": [
        {
          "internalType": "bool",
          "name": "",
          "type": "bool"
        }
      ],
      "stateMutability": "view",
      "type": "function"
    },
    {
      "inputs": [],
      "name": "token",
      "outputs": [
        {
          "internalType": "contract IERC20Upgradeable",
          "name": "",
          "type": "address"
        }
      ],
      "stateMutability": "view",
      "type": "function"
    },
    {
      "inputs": [],
      "name": "totalSupplyLine",
      "outputs": [
        {
          "components": [
            {
              "internalType": "uint256",
              "name": "start",
              "type": "uint256"
            },
            {
              "internalType": "uint256",
              "name": "bias",
              "type": "uint256"
            },
            {
              "internalType": "uint256",
              "name": "slope",
              "type": "uint256"
            }
          ],
          "internalType": "struct LibBrokenLine.Line",
          "name": "initial",
          "type": "tuple"
        }
      ],
      "stateMutability": "view",
      "type": "function"
    },
    {
      "inputs": [
        {
          "internalType": "address",
          "name": "newOwner",
          "type": "address"
        }
      ],
      "name": "transferOwnership",
      "outputs": [],
      "stateMutability": "nonpayable",
      "type": "function"
    },
    {
      "inputs": [
        {
          "internalType": "uint256",
          "name": "amount",
          "type": "uint256"
        },
        {
          "internalType": "uint256",
          "name": "slope",
          "type": "uint256"
        },
        {
          "internalType": "uint256",
          "name": "cliff",
          "type": "uint256"
        }
      ],
      "name": "getStake",
      "outputs": [
        {
          "internalType": "uint256",
          "name": "stakeAmount",
          "type": "uint256"
        },
        {
          "internalType": "uint256",
          "name": "stakeSlope",
          "type": "uint256"
        }
      ],
      "stateMutability": "view",
      "type": "function"
    }
  ],
  "bytecode": "0x608060405234801561001057600080fd5b506107ee806100206000396000f3fe608060405234801561001057600080fd5b50600436106100a95760003560e01c806398c6e7601161007157806398c6e76014610108578063b53546ab14610110578063b623163314610125578063f2fde38b1461012d578063fc0c546a14610140578063fecf0fdd14610148576100a9565b806361bc221a146100ae57806367c8c473146100cc578063715018a6146100d457806375f12b21146100de5780638da5cb5b146100f3575b600080fd5b6100b6610169565b6040516100c3919061075a565b60405180910390f35b6100b661016f565b6100dc610175565b005b6100e6610233565b6040516100c391906106a8565b6100fb61023c565b6040516100c39190610694565b6100fb61024b565b61011861025f565b6040516100c39190610739565b6100b6610283565b6100dc61013b366004610642565b610289565b6100fb61039e565b61015b610156366004610669565b6103ad565b6040516100c3929190610763565b60665481565b60685481565b61017d6104a9565b6001600160a01b031661018e61023c565b6001600160a01b0316146101e9576040805162461bcd60e51b815260206004820181905260248201527f4f776e61626c653a2063616c6c6572206973206e6f7420746865206f776e6572604482015290519081900360640190fd5b6033546040516000916001600160a01b0316907f8be0079c531659141344cd1fd0a4f28419497f9722a3daafe3b4186f6b6457e0908390a3603380546001600160a01b0319169055565b60675460ff1681565b6033546001600160a01b031690565b60675461010090046001600160a01b031681565b60408051606081018252606f54815260705460208201526071549181019190915281565b60695481565b6102916104a9565b6001600160a01b03166102a261023c565b6001600160a01b0316146102fd576040805162461bcd60e51b815260206004820181905260248201527f4f776e61626c653a2063616c6c6572206973206e6f7420746865206f776e6572604482015290519081900360640190fd5b6001600160a01b0381166103425760405162461bcd60e51b81526004018080602001828103825260268152602001806107726026913960400191505060405180910390fd5b6033546040516001600160a01b038084169216907f8be0079c531659141344cd1fd0a4f28419497f9722a3daafe3b4186f6b6457e090600090a3603380546001600160a01b0319166001600160a01b0392909216919091179055565b6065546001600160a01b031681565b60008060006103bc86866104ad565b90506068548410156103e95760405162461bcd60e51b81526004016103e0906106b3565b60405180910390fd5b60695481101561040b5760405162461bcd60e51b81526004016103e0906106f6565b60006104376068546068036104316304cace8060685489036104cb90919063ffffffff16565b90610524565b9050600061045f6069546068036104316302625a0060695487036104cb90919063ffffffff16565b9050600061047b6301312d00610475858561058b565b9061058b565b905061048f6305f5e1006104318b846104cb565b955061049b86856104ad565b945050505050935093915050565b3390565b60006104c260016104758461043187846105e5565b90505b92915050565b6000826104da575060006104c5565b828202828482816104e757fe5b04146104c25760405162461bcd60e51b81526004018080602001828103825260218152602001806107986021913960400191505060405180910390fd5b600080821161057a576040805162461bcd60e51b815260206004820152601a60248201527f536166654d6174683a206469766973696f6e206279207a65726f000000000000604482015290519081900360640190fd5b81838161058357fe5b049392505050565b6000828201838110156104c2576040805162461bcd60e51b815260206004820152601b60248201527f536166654d6174683a206164646974696f6e206f766572666c6f770000000000604482015290519081900360640190fd5b60008282111561063c576040805162461bcd60e51b815260206004820152601e60248201527f536166654d6174683a207375627472616374696f6e206f766572666c6f770000604482015290519081900360640190fd5b50900390565b600060208284031215610653578081fd5b81356001600160a01b03811681146104c2578182fd5b60008060006060848603121561067d578182fd5b505081359360208301359350604090920135919050565b6001600160a01b0391909116815260200190565b901515815260200190565b60208082526023908201527f636c69666620706572696f64203c206d696e696d616c207374616b65207065726040820152621a5bd960ea1b606082015260800190565b60208082526023908201527f736c6f706520706572696f64203c206d696e696d616c207374616b65207065726040820152621a5bd960ea1b606082015260800190565b81518152602080830151908201526040918201519181019190915260600190565b90815260200190565b91825260208201526040019056fe4f776e61626c653a206e6577206f776e657220697320746865207a65726f2061646472657373536166654d6174683a206d756c7469706c69636174696f6e206f766572666c6f77a264697066735822122063594c0fc8d41a4c8a77d24857c9d24108b7fdd7e0cbc04f2bad7da61a099f1964736f6c63430007060033",
  "immutableReferences": {},
  "source": "// SPDX-License-Identifier: MIT\n\npragma solidity 0.7.6;\npragma abicoder v2;\n\nimport \"@openzeppelin/contracts-upgradeable/token/ERC20/IERC20Upgradeable.sol\";\nimport \"@openzeppelin/contracts-upgradeable/access/OwnableUpgradeable.sol\";\n\nimport \"./lib-broken-line/LibBrokenLine.sol\";\n\ncontract StakingBase is OwnableUpgradeable {\n\n    using SafeMathUpgradeable for uint;\n    using LibBrokenLine for LibBrokenLine.BrokenLine;\n\n    uint256 constant WEEK = 50400;                         //blocks one week\n    uint256 constant STARTING_POINT_WEEK = 0;            //starting point week (Staking Epoch start) 2676\n    uint256 constant TWO_YEAR_WEEKS = 104;                  //two year weeks\n\n    uint256 constant ST_FORMULA_DIVIDER = 100000000;        //stFormula divider\n    uint256 constant ST_FORMULA_CONST_MULTIPLIER = 20000000;   //stFormula const multiplier\n    uint256 constant ST_FORMULA_CLIFF_MULTIPLIER = 80400000;   //stFormula cliff multiplier\n    uint256 constant ST_FORMULA_SLOPE_MULTIPLIER = 40000000;   //stFormula slope multiplier\n\n    /**\n     * @dev ERC20 token to lock\n     */\n    IERC20Upgradeable public token;\n    /**\n     * @dev counter for Stake identifiers\n     */\n    uint public counter;\n\n    /**\n     * @dev true if contract entered stopped state\n     */\n    bool public stopped;\n\n    /**\n     * @dev address to migrate Stakes to (zero if not in migration state)\n     */\n    address public migrateTo;\n\n    /**\n     * @dev minimal cliff period in weeks, minCliffPeriod < TWO_YEAR_WEEKS\n     */\n\n    uint public minCliffPeriod;\n\n    /**\n     * @dev minimal slope period in weeks, minSlopePeriod < TWO_YEAR_WEEKS\n     */\n    uint public minSlopePeriod;\n\n    /**\n     * @dev represents one user Stake\n     */\n    struct Stake {\n        address account;\n        address delegate;\n    }\n\n    /**\n     * @dev describes state of accounts's balance.\n     *      balance - broken line describes stake\n     *      locked - broken line describes how many tokens are locked\n     *      amount - total currently locked tokens (including tokens which can be withdrawed)\n     */\n    struct Account {\n        LibBrokenLine.BrokenLine balance;\n        LibBrokenLine.BrokenLine locked;\n        uint amount;\n    }\n\n    mapping(address => Account) accounts;\n    mapping(uint => Stake) stakes;\n    LibBrokenLine.BrokenLine public totalSupplyLine;\n\n    /**\n     * @dev Emitted when create Lock with parameters (account, delegate, amount, slope, cliff)\n     */\n    event StakeCreate(uint indexed id, address indexed account, address indexed delegate, uint time, uint amount, uint slope, uint cliff);\n    /**\n     * @dev Emitted when change Lock parameters (newDelegate, newAmount, newSlope, newCliff) for Lock with given id\n     */\n    event Restake(uint indexed id, address indexed account, address indexed delegate, uint counter, uint time, uint amount, uint slope, uint cliff);\n    /**\n     * @dev Emitted when to set newDelegate address for Lock with given id\n     */\n    event Delegate(uint indexed id, address indexed account, address indexed delegate, uint time);\n    /**\n     * @dev Emitted when withdraw amount of Rari, account - msg.sender, amount - amount Rari\n     */\n    event Withdraw(address indexed account, uint amount);\n    /**\n     * @dev Emitted when migrate Locks with given id, account - msg.sender\n     */\n    event Migrate(address indexed account, uint[] id);\n    /**\n     * @dev Stop run contract functions, accept withdraw, account - msg.sender\n     */\n    event StopStaking(address indexed account);\n    /**\n     * @dev StartMigration initiate migration to another contract, account - msg.sender, to - address delegate to\n     */\n    event StartMigration(address indexed account, address indexed to);\n    /**\n     * @dev set newMinCliffPeriod, require newMinCliffPeriod < TWO_YEAR_WEEKS = 104\n     */\n    event SetMinCliffPeriod(uint indexed newMinCliffPeriod);\n    /**\n     * @dev set newMinSlopePeriod, require newMinSlopePeriod < TWO_YEAR_WEEKS = 104\n     */\n    event SetMinSlopePeriod(uint indexed newMinSlopePeriod);\n\n    function __StakingBase_init_unchained(IERC20Upgradeable _token) internal initializer {\n        token = _token;\n    }\n\n    function addLines(address account, address delegate, uint amount, uint slope, uint cliff, uint time) internal {\n        updateLines(account, delegate, time);\n        (uint stAmount, uint stSlope) = getStake(amount, slope, cliff);\n        LibBrokenLine.Line memory line = LibBrokenLine.Line(time, stAmount, stSlope);\n        totalSupplyLine.add(counter, line, cliff);\n        accounts[delegate].balance.add(counter, line, cliff);\n        line = LibBrokenLine.Line(time, amount, slope);\n        accounts[account].locked.add(counter, line, cliff);\n        stakes[counter].account = account;\n        stakes[counter].delegate = delegate;\n    }\n\n    function updateLines(address account, address delegate, uint time) internal {\n        totalSupplyLine.update(time);\n        accounts[delegate].balance.update(time);\n        accounts[account].locked.update(time);\n    }\n\n    /**\n     * alculate and return (newAmount, newSlope), using formula:\n     * staking = (tokens * (\n     *      ST_FORMULA_CONST_MULTIPLIER\n     *      + ST_FORMULA_CLIFF_MULTIPLIER * (cliffPeriod - minCliffPeriod))/(TWO_YEAR_WEEKS - minCliffPeriod)\n     *      + ST_FORMULA_SLOPE_MULTIPLIER * (slopePeriod - minSlopePeriod))/(TWO_YEAR_WEEKS - minSlopePeriod)\n     *      )) / ST_FORMULA_DIVIDER\n     **/\n    function getStake(uint amount, uint slope, uint cliff) public view returns (uint stakeAmount, uint stakeSlope) {\n        uint slopePeriod = divUp(amount, slope);\n        require(cliff >= minCliffPeriod, \"cliff period < minimal stake period\");\n        require(slopePeriod >= minSlopePeriod, \"slope period < minimal stake period\");\n\n        uint cliffSide = (cliff - minCliffPeriod).mul(ST_FORMULA_CLIFF_MULTIPLIER).div(TWO_YEAR_WEEKS - minCliffPeriod);\n        uint slopeSide = (slopePeriod - minSlopePeriod).mul(ST_FORMULA_SLOPE_MULTIPLIER).div(TWO_YEAR_WEEKS - minSlopePeriod);\n        uint multiplier = cliffSide.add(slopeSide).add(ST_FORMULA_CONST_MULTIPLIER);\n\n        stakeAmount = amount.mul(multiplier).div(ST_FORMULA_DIVIDER);\n        stakeSlope = divUp(stakeAmount, slopePeriod);\n    }\n\n    function divUp(uint a, uint b) internal pure returns (uint) {\n        return ((a.sub(1)).div(b)).add(1);\n    }\n\n    function roundTimestamp(uint ts) pure internal returns (uint) {\n        return ts.div(WEEK).sub(STARTING_POINT_WEEK);\n    }\n\n    function verifyStakeOwner(uint id) internal view returns (address account) {\n        account = stakes[id].account;\n        require(account == msg.sender, \"caller not a stake owner\");\n    }\n\n    function getBlockNumber() internal virtual view returns (uint) {\n        return block.number;\n    }\n\n    /**\n     * @dev Throws if stopped\n     */\n    modifier notStopped() {\n        require(!stopped, \"stopped\");\n        _;\n    }\n\n    modifier notMigrating() {\n        require(migrateTo == address(0), \"migrating\");\n        _;\n    }\n\n    //add minCliffPeriod, decrease __gap\n    //add minSlopePeriod, decrease __gap\n    uint256[48] private __gap;\n\n}\n",
  "sourcePath": "/Users/ds/Documents/rarible/protocol-contracts/staking/contracts/StakingBase.sol",
  "compiler": {
    "name": "solc",
    "version": "0.7.6+commit.7338295f.Emscripten.clang"
  },
  "schemaVersion": "3.4.3",
  "updatedAt": "2022-09-27T17:33:02.666Z",
  "devdoc": {
    "events": {
      "Delegate(uint256,address,address,uint256)": {
        "details": "Emitted when to set newDelegate address for Lock with given id"
      },
      "Migrate(address,uint256[])": {
        "details": "Emitted when migrate Locks with given id, account - msg.sender"
      },
      "Restake(uint256,address,address,uint256,uint256,uint256,uint256,uint256)": {
        "details": "Emitted when change Lock parameters (newDelegate, newAmount, newSlope, newCliff) for Lock with given id"
      },
      "SetMinCliffPeriod(uint256)": {
        "details": "set newMinCliffPeriod, require newMinCliffPeriod < TWO_YEAR_WEEKS = 104"
      },
      "SetMinSlopePeriod(uint256)": {
        "details": "set newMinSlopePeriod, require newMinSlopePeriod < TWO_YEAR_WEEKS = 104"
      },
      "StakeCreate(uint256,address,address,uint256,uint256,uint256,uint256)": {
        "details": "Emitted when create Lock with parameters (account, delegate, amount, slope, cliff)"
      },
      "StartMigration(address,address)": {
        "details": "StartMigration initiate migration to another contract, account - msg.sender, to - address delegate to"
      },
      "StopStaking(address)": {
        "details": "Stop run contract functions, accept withdraw, account - msg.sender"
      },
      "Withdraw(address,uint256)": {
        "details": "Emitted when withdraw amount of Rari, account - msg.sender, amount - amount Rari"
      }
    },
    "kind": "dev",
    "methods": {
      "owner()": {
        "details": "Returns the address of the current owner."
      },
      "renounceOwnership()": {
        "details": "Leaves the contract without owner. It will not be possible to call `onlyOwner` functions anymore. Can only be called by the current owner. NOTE: Renouncing ownership will leave the contract without an owner, thereby removing any functionality that is only available to the owner."
      },
      "transferOwnership(address)": {
        "details": "Transfers ownership of the contract to a new account (`newOwner`). Can only be called by the current owner."
      }
    },
    "stateVariables": {
      "counter": {
        "details": "counter for Stake identifiers"
      },
      "migrateTo": {
        "details": "address to migrate Stakes to (zero if not in migration state)"
      },
      "minCliffPeriod": {
        "details": "minimal cliff period in weeks, minCliffPeriod < TWO_YEAR_WEEKS"
      },
      "minSlopePeriod": {
        "details": "minimal slope period in weeks, minSlopePeriod < TWO_YEAR_WEEKS"
      },
      "stopped": {
        "details": "true if contract entered stopped state"
      },
      "token": {
        "details": "ERC20 token to lock"
      }
    },
    "version": 1
  },
  "userdoc": {
    "kind": "user",
    "methods": {
      "getStake(uint256,uint256,uint256)": {
        "notice": "alculate and return (newAmount, newSlope), using formula: staking = (tokens * (      ST_FORMULA_CONST_MULTIPLIER      + ST_FORMULA_CLIFF_MULTIPLIER * (cliffPeriod - minCliffPeriod))/(TWO_YEAR_WEEKS - minCliffPeriod)      + ST_FORMULA_SLOPE_MULTIPLIER * (slopePeriod - minSlopePeriod))/(TWO_YEAR_WEEKS - minSlopePeriod)      )) / ST_FORMULA_DIVIDER*"
      }
    },
    "version": 1
  }
}