{
  "contractName": "StakingRestake",
  "abi": [
    {
      "anonymous": false,
      "inputs": [
        {
          "indexed": true,
          "internalType": "uint256",
          "name": "id",
          "type": "uint256"
        },
        {
          "indexed": true,
          "internalType": "address",
          "name": "account",
          "type": "address"
        },
        {
          "indexed": true,
          "internalType": "address",
          "name": "delegate",
          "type": "address"
        },
        {
          "indexed": false,
          "internalType": "uint256",
          "name": "time",
          "type": "uint256"
        }
      ],
      "name": "Delegate",
      "type": "event"
    },
    {
      "anonymous": false,
      "inputs": [
        {
          "indexed": true,
          "internalType": "address",
          "name": "account",
          "type": "address"
        },
        {
          "indexed": false,
          "internalType": "uint256[]",
          "name": "id",
          "type": "uint256[]"
        }
      ],
      "name": "Migrate",
      "type": "event"
    },
    {
      "anonymous": false,
      "inputs": [
        {
          "indexed": true,
          "internalType": "address",
          "name": "previousOwner",
          "type": "address"
        },
        {
          "indexed": true,
          "internalType": "address",
          "name": "newOwner",
          "type": "address"
        }
      ],
      "name": "OwnershipTransferred",
      "type": "event"
    },
    {
      "anonymous": false,
      "inputs": [
        {
          "indexed": true,
          "internalType": "uint256",
          "name": "id",
          "type": "uint256"
        },
        {
          "indexed": true,
          "internalType": "address",
          "name": "account",
          "type": "address"
        },
        {
          "indexed": true,
          "internalType": "address",
          "name": "delegate",
          "type": "address"
        },
        {
          "indexed": false,
          "internalType": "uint256",
          "name": "counter",
          "type": "uint256"
        },
        {
          "indexed": false,
          "internalType": "uint256",
          "name": "time",
          "type": "uint256"
        },
        {
          "indexed": false,
          "internalType": "uint256",
          "name": "amount",
          "type": "uint256"
        },
        {
          "indexed": false,
          "internalType": "uint256",
          "name": "slope",
          "type": "uint256"
        },
        {
          "indexed": false,
          "internalType": "uint256",
          "name": "cliff",
          "type": "uint256"
        }
      ],
      "name": "Restake",
      "type": "event"
    },
    {
      "anonymous": false,
      "inputs": [
        {
          "indexed": true,
          "internalType": "uint256",
          "name": "newMinCliffPeriod",
          "type": "uint256"
        }
      ],
      "name": "SetMinCliffPeriod",
      "type": "event"
    },
    {
      "anonymous": false,
      "inputs": [
        {
          "indexed": true,
          "internalType": "uint256",
          "name": "newMinSlopePeriod",
          "type": "uint256"
        }
      ],
      "name": "SetMinSlopePeriod",
      "type": "event"
    },
    {
      "anonymous": false,
      "inputs": [
        {
          "indexed": true,
          "internalType": "uint256",
          "name": "newStartingPointWeek",
          "type": "uint256"
        }
      ],
      "name": "SetStartingPointWeek",
      "type": "event"
    },
    {
      "anonymous": false,
      "inputs": [
        {
          "indexed": true,
          "internalType": "uint256",
          "name": "id",
          "type": "uint256"
        },
        {
          "indexed": true,
          "internalType": "address",
          "name": "account",
          "type": "address"
        },
        {
          "indexed": true,
          "internalType": "address",
          "name": "delegate",
          "type": "address"
        },
        {
          "indexed": false,
          "internalType": "uint256",
          "name": "time",
          "type": "uint256"
        },
        {
          "indexed": false,
          "internalType": "uint256",
          "name": "amount",
          "type": "uint256"
        },
        {
          "indexed": false,
          "internalType": "uint256",
          "name": "slope",
          "type": "uint256"
        },
        {
          "indexed": false,
          "internalType": "uint256",
          "name": "cliff",
          "type": "uint256"
        }
      ],
      "name": "StakeCreate",
      "type": "event"
    },
    {
      "anonymous": false,
      "inputs": [
        {
          "indexed": true,
          "internalType": "address",
          "name": "account",
          "type": "address"
        },
        {
          "indexed": true,
          "internalType": "address",
          "name": "to",
          "type": "address"
        }
      ],
      "name": "StartMigration",
      "type": "event"
    },
    {
      "anonymous": false,
      "inputs": [
        {
          "indexed": true,
          "internalType": "address",
          "name": "account",
          "type": "address"
        }
      ],
      "name": "StopStaking",
      "type": "event"
    },
    {
      "anonymous": false,
      "inputs": [
        {
          "indexed": true,
          "internalType": "address",
          "name": "account",
          "type": "address"
        },
        {
          "indexed": false,
          "internalType": "uint256",
          "name": "amount",
          "type": "uint256"
        }
      ],
      "name": "Withdraw",
      "type": "event"
    },
    {
      "inputs": [],
      "name": "WEEK",
      "outputs": [
        {
          "internalType": "uint256",
          "name": "",
          "type": "uint256"
        }
      ],
      "stateMutability": "view",
      "type": "function"
    },
    {
      "inputs": [],
      "name": "counter",
      "outputs": [
        {
          "internalType": "uint256",
          "name": "",
          "type": "uint256"
        }
      ],
      "stateMutability": "view",
      "type": "function"
    },
    {
      "inputs": [
        {
          "internalType": "uint256",
          "name": "amount",
          "type": "uint256"
        },
        {
          "internalType": "uint256",
          "name": "slope",
          "type": "uint256"
        },
        {
          "internalType": "uint256",
          "name": "cliff",
          "type": "uint256"
        }
      ],
      "name": "getStake",
      "outputs": [
        {
          "internalType": "uint256",
          "name": "stakeAmount",
          "type": "uint256"
        },
        {
          "internalType": "uint256",
          "name": "stakeSlope",
          "type": "uint256"
        }
      ],
      "stateMutability": "view",
      "type": "function"
    },
    {
      "inputs": [],
      "name": "migrateTo",
      "outputs": [
        {
          "internalType": "address",
          "name": "",
          "type": "address"
        }
      ],
      "stateMutability": "view",
      "type": "function"
    },
    {
      "inputs": [],
      "name": "minCliffPeriod",
      "outputs": [
        {
          "internalType": "uint256",
          "name": "",
          "type": "uint256"
        }
      ],
      "stateMutability": "view",
      "type": "function"
    },
    {
      "inputs": [],
      "name": "minSlopePeriod",
      "outputs": [
        {
          "internalType": "uint256",
          "name": "",
          "type": "uint256"
        }
      ],
      "stateMutability": "view",
      "type": "function"
    },
    {
      "inputs": [],
      "name": "owner",
      "outputs": [
        {
          "internalType": "address",
          "name": "",
          "type": "address"
        }
      ],
      "stateMutability": "view",
      "type": "function"
    },
    {
      "inputs": [],
      "name": "renounceOwnership",
      "outputs": [],
      "stateMutability": "nonpayable",
      "type": "function"
    },
    {
      "inputs": [
        {
          "internalType": "uint256",
          "name": "newMinCliffPeriod",
          "type": "uint256"
        }
      ],
      "name": "setMinCliffPeriod",
      "outputs": [],
      "stateMutability": "nonpayable",
      "type": "function"
    },
    {
      "inputs": [
        {
          "internalType": "uint256",
          "name": "newMinSlopePeriod",
          "type": "uint256"
        }
      ],
      "name": "setMinSlopePeriod",
      "outputs": [],
      "stateMutability": "nonpayable",
      "type": "function"
    },
    {
      "inputs": [
        {
          "internalType": "uint256",
          "name": "newStartingPointWeek",
          "type": "uint256"
        }
      ],
      "name": "setStartingPointWeek",
      "outputs": [],
      "stateMutability": "nonpayable",
      "type": "function"
    },
    {
      "inputs": [],
      "name": "startingPointWeek",
      "outputs": [
        {
          "internalType": "uint256",
          "name": "",
          "type": "uint256"
        }
      ],
      "stateMutability": "view",
      "type": "function"
    },
    {
      "inputs": [],
      "name": "stopped",
      "outputs": [
        {
          "internalType": "bool",
          "name": "",
          "type": "bool"
        }
      ],
      "stateMutability": "view",
      "type": "function"
    },
    {
      "inputs": [],
      "name": "token",
      "outputs": [
        {
          "internalType": "contract IERC20Upgradeable",
          "name": "",
          "type": "address"
        }
      ],
      "stateMutability": "view",
      "type": "function"
    },
    {
      "inputs": [],
      "name": "totalSupplyLine",
      "outputs": [
        {
          "components": [
            {
              "internalType": "uint256",
              "name": "start",
              "type": "uint256"
            },
            {
              "internalType": "uint256",
              "name": "bias",
              "type": "uint256"
            },
            {
              "internalType": "uint256",
              "name": "slope",
              "type": "uint256"
            }
          ],
          "internalType": "struct LibBrokenLine.Line",
          "name": "initial",
          "type": "tuple"
        }
      ],
      "stateMutability": "view",
      "type": "function"
    },
    {
      "inputs": [
        {
          "internalType": "address",
          "name": "newOwner",
          "type": "address"
        }
      ],
      "name": "transferOwnership",
      "outputs": [],
      "stateMutability": "nonpayable",
      "type": "function"
    },
    {
      "inputs": [
        {
          "internalType": "uint256",
          "name": "id",
          "type": "uint256"
        },
        {
          "internalType": "address",
          "name": "newDelegate",
          "type": "address"
        },
        {
          "internalType": "uint256",
          "name": "newAmount",
          "type": "uint256"
        },
        {
          "internalType": "uint256",
          "name": "newSlope",
          "type": "uint256"
        },
        {
          "internalType": "uint256",
          "name": "newCliff",
          "type": "uint256"
        }
      ],
      "name": "restake",
      "outputs": [
        {
          "internalType": "uint256",
          "name": "",
          "type": "uint256"
        }
      ],
      "stateMutability": "nonpayable",
      "type": "function"
    }
  ],
  "bytecode": "0x608060405234801561001057600080fd5b50611e7f806100206000396000f3fe608060405234801561001057600080fd5b506004361061010b5760003560e01c8063a8edafbe116100a2578063b623163311610071578063b6231633146101db578063f2fde38b146101e3578063f4359ce5146101f6578063fc0c546a146101fe578063fecf0fdd146102065761010b565b8063a8edafbe14610198578063ac7ae589146101ab578063acc9b648146101b3578063b53546ab146101c65761010b565b806375f12b21116100de57806375f12b21146101535780638da5cb5b1461016857806398c6e7601461017d57806399eccf62146101855761010b565b806361bc221a1461011057806367c8c4731461012e5780636bde67d814610136578063715018a614610149575b600080fd5b610118610227565b6040516101259190611d63565b60405180910390f35b61011861022d565b6101186101443660046117fa565b610233565b6101516103af565b005b61015b61045b565b60405161012591906118a2565b610170610464565b604051610125919061186a565b610170610473565b6101516101933660046117e2565b610487565b6101516101a63660046117e2565b61058d565b61011861069c565b6101516101c13660046117e2565b6106a2565b6101ce6107a8565b6040516101259190611d42565b6101186107cc565b6101516101f13660046117a8565b6107d2565b6101186108d5565b6101706108da565b61021961021436600461183f565b6108e9565b604051610125929190611d6c565b60665481565b60685481565b60675460009060ff16156102625760405162461bcd60e51b815260040161025990611cde565b60405180910390fd5b60675461010090046001600160a01b0316156102905760405162461bcd60e51b815260040161025990611b0e565b600061029b876109dc565b905060006102af6102aa610a18565b610a1c565b90506102bf828988888886610a3d565b6000888152606c60209081526040808320600101546001600160a01b038681168552606b90935292209116906102f89060060183610bf9565b6001600160a01b0383166000908152606b60205260408120600a0154906103218b868587610cc3565b90506103308b8684848d610d39565b606680546001019055610347858b8b8b8b89610ea7565b896001600160a01b0316856001600160a01b03168c7fed21ca2fb4312d282540746b7f00899205aee2bd522dcbb837405aea6a92b52a606654888e8e8e604051610395959493929190611d7a565b60405180910390a450506066549998505050505050505050565b6103b7610fb0565b6001600160a01b03166103c8610464565b6001600160a01b031614610411576040805162461bcd60e51b81526020600482018190526024820152600080516020611e06833981519152604482015290519081900360640190fd5b6033546040516000916001600160a01b0316907f8be0079c531659141344cd1fd0a4f28419497f9722a3daafe3b4186f6b6457e0908390a3603380546001600160a01b0319169055565b60675460ff1681565b6033546001600160a01b031690565b60675461010090046001600160a01b031681565b60675460ff16156104aa5760405162461bcd60e51b815260040161025990611cde565b60675461010090046001600160a01b0316156104d85760405162461bcd60e51b815260040161025990611b0e565b6104e0610fb0565b6001600160a01b03166104f1610464565b6001600160a01b03161461053a576040805162461bcd60e51b81526020600482018190526024820152600080516020611e06833981519152604482015290519081900360640190fd5b6068811061055a5760405162461bcd60e51b8152600401610259906118ad565b606981905560405181907f88345dd2cdc36a4778bf7fed510015cf81efda1a773e1b6360fde7cb1631b21090600090a250565b60675460ff16156105b05760405162461bcd60e51b815260040161025990611cde565b60675461010090046001600160a01b0316156105de5760405162461bcd60e51b815260040161025990611b0e565b6105e6610fb0565b6001600160a01b03166105f7610464565b6001600160a01b031614610640576040805162461bcd60e51b81526020600482018190526024820152600080516020611e06833981519152604482015290519081900360640190fd5b61064b6102aa610a18565b81106106695760405162461bcd60e51b815260040161025990611a94565b606a81905560405181907f2f807974bc9b84320f39300f6395b257c58bb285c61d262ec17c8332772d683690600090a250565b606a5481565b60675460ff16156106c55760405162461bcd60e51b815260040161025990611cde565b60675461010090046001600160a01b0316156106f35760405162461bcd60e51b815260040161025990611b0e565b6106fb610fb0565b6001600160a01b031661070c610464565b6001600160a01b031614610755576040805162461bcd60e51b81526020600482018190526024820152600080516020611e06833981519152604482015290519081900360640190fd5b606881106107755760405162461bcd60e51b8152600401610259906119e3565b606881905560405181907fa21222d0eed205eed6a46ed1fe7faf1d0b5d097b9e04a6d4e59b7f1debfc8b2b90600090a250565b60408051606081018252607054815260715460208201526072549181019190915281565b60695481565b6107da610fb0565b6001600160a01b03166107eb610464565b6001600160a01b031614610834576040805162461bcd60e51b81526020600482018190526024820152600080516020611e06833981519152604482015290519081900360640190fd5b6001600160a01b0381166108795760405162461bcd60e51b8152600401808060200182810382526026815260200180611d9e6026913960400191505060405180910390fd5b6033546040516001600160a01b038084169216907f8be0079c531659141344cd1fd0a4f28419497f9722a3daafe3b4186f6b6457e090600090a3603380546001600160a01b0319166001600160a01b0392909216919091179055565b603281565b6065546001600160a01b031681565b60008060006108f88686610fb4565b905060685484101561091c5760405162461bcd60e51b815260040161025990611a1a565b60695481101561093e5760405162461bcd60e51b815260040161025990611cff565b600061096a6068546068036109646304cace806068548903610fd090919063ffffffff16565b90611029565b905060006109926069546068036109646302625a006069548703610fd090919063ffffffff16565b905060006109ae6301312d006109a88585611090565b90611090565b90506109c26305f5e1006109648b84610fd0565b95506109ce8685610fb4565b945050505050935093915050565b6000818152606c60205260409020546001600160a01b0316338114610a135760405162461bcd60e51b81526004016102599061194e565b919050565b4390565b606a54600090610a3790610a31846032611029565b906110ea565b92915050565b60008411610a5d5760405162461bcd60e51b815260040161025990611929565b6068821115610a7e5760405162461bcd60e51b815260040161025990611985565b6000610a8a8585610fb4565b90506068811115610aad5760405162461bcd60e51b815260040161025990611c8e565b6000610abd826109a88587611090565b6001600160a01b0389166000908152606b602090815260408083208b8452600801825291829020825160a081018452815493810193845260018201546060820181905260028301546080830181905285835260039093015493820193909352939450610b299190610fb4565b93506000610b4c856109a88560200151856000015161109090919063ffffffff16565b905083811115610b6e5760405162461bcd60e51b815260040161025990611b31565b60208301518251600091610b829190611090565b90506000610b90888a611090565b905080821115610bea576000610ba683836110ea565b60208601519091506000610bc4610bbd848f610fd0565b8f906110ea565b905081811015610be65760405162461bcd60e51b8152600401610259906119ac565b5050505b50505050505050505050505050565b600382015481811415610c0c5750610cbf565b600583015460048401548015610cac57828411610c3b5760405162461bcd60e51b815260040161025990611c49565b83831015610cac57610c4d81836110ea565b60008481526020879052604081205491925090610c7390610c6d85611147565b9061114d565b90506000811215610c965760405162461bcd60e51b8152600401610259906118e4565b915081610ca4846001611090565b935050610c3b565b6003850184905560048501556005840155505b5050565b6000610cd08484846111b2565b6001600160a01b0383166000908152606b60205260409020610cf3908684611209565b50610d049150606d90508684611209565b5050506001600160a01b0384166000908152606b60205260409020610d2d906006018684611209565b50909695505050505050565b80821115610d595760405162461bcd60e51b815260040161025990611bb0565b6000610d6582846110ea565b6001600160a01b0386166000908152606b60205260408120600c0154919250610d8e82876110ea565b905080831115610e9d576000610da484836110ea565b60655460008b8152606c6020526040908190205490516323b872dd60e01b81529293506001600160a01b03918216926323b872dd92610deb9216903090869060040161187e565b602060405180830381600087803b158015610e0557600080fd5b505af1158015610e19573d6000803e3d6000fd5b505050506040513d601f19601f82011682018060405250810190610e3d91906117c2565b610e595760405162461bcd60e51b815260040161025990611cb5565b6001600160a01b0388166000908152606b60205260409020600c0154610e7f9082611090565b6001600160a01b0389166000908152606b60205260409020600c0155505b5050505050505050565b610eb28686836111b2565b600080610ec08686866108e9565b604080516060810182528681526020810184905290810182905260665492945090925090610ef290606d908388611467565b6066546001600160a01b0389166000908152606b60205260409020610f18918388611467565b506040805160608101825284815260208082018990528183018890526066546001600160a01b038c166000908152606b9092529290209091610f5f91600601908388611467565b5050606680546000908152606c602052604080822080546001600160a01b039b8c166001600160a01b0319918216179091559254825290206001018054979098169616959095179095555050505050565b3390565b6000610fc960016109a88461096487846110ea565b9392505050565b600082610fdf57506000610a37565b82820282848281610fec57fe5b0414610fc95760405162461bcd60e51b8152600401808060200182810382526021815260200180611de56021913960400191505060405180910390fd5b600080821161107f576040805162461bcd60e51b815260206004820152601a60248201527f536166654d6174683a206469766973696f6e206279207a65726f000000000000604482015290519081900360640190fd5b81838161108857fe5b049392505050565b600082820183811015610fc9576040805162461bcd60e51b815260206004820152601b60248201527f536166654d6174683a206164646974696f6e206f766572666c6f770000000000604482015290519081900360640190fd5b600082821115611141576040805162461bcd60e51b815260206004820152601e60248201527f536166654d6174683a207375627472616374696f6e206f766572666c6f770000604482015290519081900360640190fd5b50900390565b80610a13565b60008282018183128015906111625750838112155b80611177575060008312801561117757508381125b610fc95760405162461bcd60e51b8152600401808060200182810382526021815260200180611dc46021913960400191505060405180910390fd5b6111bd606d82610bf9565b6001600160a01b0382166000908152606b602052604090206111df9082610bf9565b6001600160a01b0383166000908152606b602052604090206112049060060182610bf9565b505050565b6000828152600280850160209081526040808420815160a0810183528154928101928352600182015460608201819052948201546080820152918252600301549181019190915282918291906112715760405162461bcd60e51b815260040161025990611a5d565b805161127d8887610bf9565b80602001519450806040015193506000925060006112b783602001516109a86112af888a61102990919063ffffffff16565b855190611090565b9050808711156112d157600095506000945050505061145e565b60006112de8260016110ea565b905060006112ed8960016110ea565b905060006113036112fe8a8a611680565b611147565b905060006113276001610a318960200151896000015161109090919063ffffffff16565b9050808b1161137a5761133f60016109a8838e6110ea565b97506113568161134e8b611147565b8f91906116e7565b6113758461136d846113678d611147565b90611713565b8f9190611778565b611403565b838b116113da5760058d0154611390908a6110ea565b60058e01556113a68461136d846113678d611147565b6113c7826109a88b6113c18f8a6110ea90919063ffffffff16565b90610fd0565b99506113758361134e846113678d611147565b60058d01546113e990836110ea565b60058e015590985088975087906114038361134e84611147565b61140e8d8684611778565b60048d015461141d908b6110ea565b60048e015560008c815260028e016020526040812060010155611456836114438c611147565b8f6001016116e79092919063ffffffff16565b505050505050505b93509350939050565b60408201516114885760405162461bcd60e51b815260040161025990611b68565b8160200151826040015111156114b05760405162461bcd60e51b815260040161025990611bff565b6000838152600285016020526040902060010154156114e15760405162461bcd60e51b815260040161025990611acb565b604080518082018252838152602080820184815260008781526002808a0184529085902093518051855592830151600185015591909301519082015590516003909101558151611532908590610bf9565b6020820151600485015461154591611090565b6004850155815160009061155a9060016110ea565b90506115788161156d8560200151611147565b600188019190611778565b60006115958460400151856020015161102990919063ffffffff16565b9050826115d557604084015160058701546115af91611090565b600587015560408401516115d09083906115c890611147565b889190611778565b61160a565b60006115e18385611090565b90506115fc816115f48760400151611147565b899190611778565b6116068285611090565b9150505b600061162a6112fe8660400151876020015161168090919063ffffffff16565b855190915060009061163c9084611090565b9050600061164b8260016110ea565b905061166a81611662856113678b60400151611147565b8b91906116e7565b6116758983856116e7565b505050505050505050565b60008082116116d6576040805162461bcd60e51b815260206004820152601860248201527f536166654d6174683a206d6f64756c6f206279207a65726f0000000000000000604482015290519081900360640190fd5b8183816116df57fe5b069392505050565b6000828152602084905260409020546117009082611713565b6000928352602093909352506040902055565b60008183038183128015906117285750838113155b8061173d575060008312801561173d57508381135b610fc95760405162461bcd60e51b8152600401808060200182810382526024815260200180611e266024913960400191505060405180910390fd5b600082815260208490526040902054611700908261114d565b80356001600160a01b0381168114610a1357600080fd5b6000602082840312156117b9578081fd5b610fc982611791565b6000602082840312156117d3578081fd5b81518015158114610fc9578182fd5b6000602082840312156117f3578081fd5b5035919050565b600080600080600060a08688031215611811578081fd5b8535945061182160208701611791565b94979496505050506040830135926060810135926080909101359150565b600080600060608486031215611853578283fd5b505081359360208301359350604090920135919050565b6001600160a01b0391909116815260200190565b6001600160a01b039384168152919092166020820152604081019190915260600190565b901515815260200190565b6020808252601a908201527f6e657720736c6f706520706572696f64203e2032207965617273000000000000604082015260600190565b60208082526025908201527f736c6f7065203c20302c20736f6d657468696e672077726f6e67207769746820604082015264736c6f706560d81b606082015260800190565b6020808252600b908201526a1e995c9bc8185b5bdd5b9d60aa1b604082015260600190565b60208082526018908201527f63616c6c6572206e6f742061207374616b65206f776e65720000000000000000604082015260600190565b6020808252600d908201526c636c69666620746f6f2062696760981b604082015260600190565b60208082526019908201527f64657465637420637574206465706f73697420636f726e657200000000000000604082015260600190565b6020808252601a908201527f6e657720636c69666620706572696f64203e2032207965617273000000000000604082015260600190565b60208082526023908201527f636c69666620706572696f64203c206d696e696d616c207374616b65207065726040820152621a5bd960ea1b606082015260800190565b6020808252601f908201527f52656d6f76696e67204c696e652c207768696368206e6f742065786973747300604082015260600190565b6020808252601a908201527f77726f6e67206e65775374617274696e67506f696e745765656b000000000000604082015260600190565b60208082526023908201527f4c696e65207769746820676976656e20696420697320616c72656164792065786040820152621a5cdd60ea1b606082015260800190565b6020808252600990820152686d6967726174696e6760b81b604082015260600190565b6020808252601f908201527f6e6577206c696e6520706572696f64207374616b6520746f6f2073686f727400604082015260600190565b60208082526028908201527f536c6f7065203d3d20302c20756e61636365707461626c652076616c756520666040820152676f7220736c6f706560c01b606082015260800190565b6020808252602f908201527f496d706f737369626c6520746f2072657374616b653a206c65737320616d6f7560408201526e6e742c207468656e206e6f7720697360881b606082015260800190565b6020808252602a908201527f536c6f7065203e20626961732c20756e61636365707461626c652076616c756560408201526920666f7220736c6f706560b01b606082015260800190565b60208082526025908201527f63616e2774207570646174652042726f6b656e4c696e6520666f7220706173746040820152642074696d6560d81b606082015260800190565b6020808252600d908201526c736c6f706520746f6f2062696760981b604082015260600190565b6020808252600f908201526e1d1c985b9cd9995c8819985a5b1959608a1b604082015260600190565b6020808252600790820152661cdd1bdc1c195960ca1b604082015260600190565b60208082526023908201527f736c6f706520706572696f64203c206d696e696d616c207374616b65207065726040820152621a5bd960ea1b606082015260800190565b81518152602080830151908201526040918201519181019190915260600190565b90815260200190565b918252602082015260400190565b948552602085019390935260408401919091526060830152608082015260a0019056fe4f776e61626c653a206e6577206f776e657220697320746865207a65726f20616464726573735369676e6564536166654d6174683a206164646974696f6e206f766572666c6f77536166654d6174683a206d756c7469706c69636174696f6e206f766572666c6f774f776e61626c653a2063616c6c6572206973206e6f7420746865206f776e65725369676e6564536166654d6174683a207375627472616374696f6e206f766572666c6f77a26469706673582212203c8e6bcc0b9a6e36309b03cd72865adcb281a618abdb1ca76255d2b589b7345964736f6c63430007060033",
  "immutableReferences": {},
  "source": "// SPDX-License-Identifier: MIT\n\npragma solidity 0.7.6;\npragma abicoder v2;\n\nimport \"./StakingBase.sol\";\n\ncontract StakingRestake is StakingBase {\n    using SafeMathUpgradeable for uint;\n    using LibBrokenLine for LibBrokenLine.BrokenLine;\n\n    function restake(uint id, address newDelegate, uint newAmount, uint newSlope, uint newCliff) external notStopped notMigrating returns (uint) {\n        address account = verifyStakeOwner(id);\n        uint time = roundTimestamp(getBlockNumber());\n        verification(account, id, newAmount, newSlope, newCliff, time);\n\n        address delegate = stakes[id].delegate;\n        accounts[account].locked.update(time);\n        uint bias = accounts[account].locked.initial.bias;\n        uint residue = removeLines(id, account, delegate, time);\n        rebalance(id, account, bias, residue, newAmount);\n\n        counter++;\n\n        addLines(account, newDelegate, newAmount, newSlope, newCliff, time);\n        emit Restake(id, account, newDelegate, counter, time, newAmount, newSlope, newCliff);\n        return counter;\n    }\n\n    /**\n     * @dev Verification parameters:\n     *      1. amount > 0, slope > 0\n     *      2. cliff period and slope period less or equal two years\n     *      3. newFinishTime more or equal oldFinishTime\n     */\n    function verification(address account, uint id, uint newAmount, uint newSlope, uint newCliff, uint toTime) internal view {\n        require(newAmount > 0, \"zero amount\");\n        require(newCliff <= TWO_YEAR_WEEKS, \"cliff too big\");\n        uint period = divUp(newAmount, newSlope);\n        require(period <= TWO_YEAR_WEEKS, \"slope too big\");\n        uint newEnd = toTime.add(newCliff).add(period);\n        LibBrokenLine.LineData memory lineData = accounts[account].locked.initiatedLines[id];\n        LibBrokenLine.Line memory line = lineData.line;\n        period = divUp(line.bias, line.slope);\n        uint oldEnd = line.start.add(lineData.cliff).add(period);\n        require(oldEnd <= newEnd, \"new line period stake too short\");\n        //check Line with new parameters don`t cut corner old Line\n        uint oldCliffEnd = line.start.add(lineData.cliff);\n        uint newCliffEnd = toTime.add(newCliff);\n        if (oldCliffEnd > newCliffEnd) {\n            uint balance = oldCliffEnd.sub(newCliffEnd);\n            uint oldBias = line.bias;\n            uint newBias = newAmount.sub(balance.mul(newSlope));\n            require(newBias >= oldBias, \"detect cut deposit corner\");\n        }\n    }\n\n    function removeLines(uint id, address account, address delegate, uint toTime) internal returns (uint residue) {\n        updateLines(account, delegate, toTime);\n        accounts[delegate].balance.remove(id, toTime);\n        totalSupplyLine.remove(id, toTime);\n        (residue,,) = accounts[account].locked.remove(id, toTime);\n    }\n\n    function rebalance(uint id, address account, uint bias, uint residue, uint newAmount) internal {\n        require(residue <= newAmount, \"Impossible to restake: less amount, then now is\");\n        uint addAmount = newAmount.sub(residue);\n        uint amount = accounts[account].amount;\n        uint balance = amount.sub(bias);\n        if (addAmount > balance) {\n            //need more, than balance, so need transfer tokens to this\n            uint transferAmount = addAmount.sub(balance);\n            require(token.transferFrom(stakes[id].account, address(this), transferAmount), \"transfer failed\");\n            accounts[account].amount = accounts[account].amount.add(transferAmount);\n        }\n    }\n\n    uint256[50] private __gap;\n}\n",
  "sourcePath": "/Users/ds/Documents/rarible/protocol-contracts/staking/contracts/StakingRestake.sol",
  "compiler": {
    "name": "solc",
    "version": "0.7.6+commit.7338295f.Emscripten.clang"
  },
  "schemaVersion": "3.4.3",
  "updatedAt": "2022-10-01T19:50:37.259Z",
  "devdoc": {
    "kind": "dev",
    "methods": {
      "owner()": {
        "details": "Returns the address of the current owner."
      },
      "renounceOwnership()": {
        "details": "Leaves the contract without owner. It will not be possible to call `onlyOwner` functions anymore. Can only be called by the current owner. NOTE: Renouncing ownership will leave the contract without an owner, thereby removing any functionality that is only available to the owner."
      },
      "transferOwnership(address)": {
        "details": "Transfers ownership of the contract to a new account (`newOwner`). Can only be called by the current owner."
      }
    },
    "version": 1
  },
  "userdoc": {
    "kind": "user",
    "methods": {
      "getStake(uint256,uint256,uint256)": {
        "notice": "alculate and return (newAmount, newSlope), using formula: staking = (tokens * (      ST_FORMULA_CONST_MULTIPLIER      + ST_FORMULA_CLIFF_MULTIPLIER * (cliffPeriod - minCliffPeriod))/(TWO_YEAR_WEEKS - minCliffPeriod)      + ST_FORMULA_SLOPE_MULTIPLIER * (slopePeriod - minSlopePeriod))/(TWO_YEAR_WEEKS - minSlopePeriod)      )) / ST_FORMULA_DIVIDER*"
      }
    },
    "version": 1
  }
}