{
  "_format": "hh-sol-artifact-1",
  "contractName": "BlurExchange",
  "sourceName": "contracts/BlurExchange.sol",
  "abi": [
    {
      "inputs": [],
      "stateMutability": "nonpayable",
      "type": "constructor"
    },
    {
      "anonymous": false,
      "inputs": [
        {
          "indexed": false,
          "internalType": "address",
          "name": "previousAdmin",
          "type": "address"
        },
        {
          "indexed": false,
          "internalType": "address",
          "name": "newAdmin",
          "type": "address"
        }
      ],
      "name": "AdminChanged",
      "type": "event"
    },
    {
      "anonymous": false,
      "inputs": [
        {
          "indexed": true,
          "internalType": "address",
          "name": "beacon",
          "type": "address"
        }
      ],
      "name": "BeaconUpgraded",
      "type": "event"
    },
    {
      "anonymous": false,
      "inputs": [],
      "name": "Closed",
      "type": "event"
    },
    {
      "anonymous": false,
      "inputs": [
        {
          "indexed": false,
          "internalType": "uint8",
          "name": "version",
          "type": "uint8"
        }
      ],
      "name": "Initialized",
      "type": "event"
    },
    {
      "anonymous": false,
      "inputs": [
        {
          "indexed": false,
          "internalType": "uint256",
          "name": "blockRange",
          "type": "uint256"
        }
      ],
      "name": "NewBlockRange",
      "type": "event"
    },
    {
      "anonymous": false,
      "inputs": [
        {
          "indexed": true,
          "internalType": "contract IExecutionDelegate",
          "name": "executionDelegate",
          "type": "address"
        }
      ],
      "name": "NewExecutionDelegate",
      "type": "event"
    },
    {
      "anonymous": false,
      "inputs": [
        {
          "indexed": true,
          "internalType": "address",
          "name": "oracle",
          "type": "address"
        }
      ],
      "name": "NewOracle",
      "type": "event"
    },
    {
      "anonymous": false,
      "inputs": [
        {
          "indexed": true,
          "internalType": "contract IPolicyManager",
          "name": "policyManager",
          "type": "address"
        }
      ],
      "name": "NewPolicyManager",
      "type": "event"
    },
    {
      "anonymous": false,
      "inputs": [
        {
          "indexed": true,
          "internalType": "address",
          "name": "trader",
          "type": "address"
        },
        {
          "indexed": false,
          "internalType": "uint256",
          "name": "newNonce",
          "type": "uint256"
        }
      ],
      "name": "NonceIncremented",
      "type": "event"
    },
    {
      "anonymous": false,
      "inputs": [],
      "name": "Opened",
      "type": "event"
    },
    {
      "anonymous": false,
      "inputs": [
        {
          "indexed": false,
          "internalType": "bytes32",
          "name": "hash",
          "type": "bytes32"
        }
      ],
      "name": "OrderCancelled",
      "type": "event"
    },
    {
      "anonymous": false,
      "inputs": [
        {
          "indexed": true,
          "internalType": "address",
          "name": "maker",
          "type": "address"
        },
        {
          "indexed": true,
          "internalType": "address",
          "name": "taker",
          "type": "address"
        },
        {
          "components": [
            {
              "internalType": "address",
              "name": "trader",
              "type": "address"
            },
            {
              "internalType": "enum Side",
              "name": "side",
              "type": "uint8"
            },
            {
              "internalType": "address",
              "name": "matchingPolicy",
              "type": "address"
            },
            {
              "internalType": "address",
              "name": "collection",
              "type": "address"
            },
            {
              "internalType": "uint256",
              "name": "tokenId",
              "type": "uint256"
            },
            {
              "internalType": "uint256",
              "name": "amount",
              "type": "uint256"
            },
            {
              "internalType": "address",
              "name": "paymentToken",
              "type": "address"
            },
            {
              "internalType": "uint256",
              "name": "price",
              "type": "uint256"
            },
            {
              "internalType": "uint256",
              "name": "listingTime",
              "type": "uint256"
            },
            {
              "internalType": "uint256",
              "name": "expirationTime",
              "type": "uint256"
            },
            {
              "components": [
                {
                  "internalType": "uint16",
                  "name": "rate",
                  "type": "uint16"
                },
                {
                  "internalType": "address payable",
                  "name": "recipient",
                  "type": "address"
                }
              ],
              "internalType": "struct Fee[]",
              "name": "fees",
              "type": "tuple[]"
            },
            {
              "internalType": "uint256",
              "name": "salt",
              "type": "uint256"
            },
            {
              "internalType": "bytes",
              "name": "extraParams",
              "type": "bytes"
            }
          ],
          "indexed": false,
          "internalType": "struct Order",
          "name": "sell",
          "type": "tuple"
        },
        {
          "indexed": false,
          "internalType": "bytes32",
          "name": "sellHash",
          "type": "bytes32"
        },
        {
          "components": [
            {
              "internalType": "address",
              "name": "trader",
              "type": "address"
            },
            {
              "internalType": "enum Side",
              "name": "side",
              "type": "uint8"
            },
            {
              "internalType": "address",
              "name": "matchingPolicy",
              "type": "address"
            },
            {
              "internalType": "address",
              "name": "collection",
              "type": "address"
            },
            {
              "internalType": "uint256",
              "name": "tokenId",
              "type": "uint256"
            },
            {
              "internalType": "uint256",
              "name": "amount",
              "type": "uint256"
            },
            {
              "internalType": "address",
              "name": "paymentToken",
              "type": "address"
            },
            {
              "internalType": "uint256",
              "name": "price",
              "type": "uint256"
            },
            {
              "internalType": "uint256",
              "name": "listingTime",
              "type": "uint256"
            },
            {
              "internalType": "uint256",
              "name": "expirationTime",
              "type": "uint256"
            },
            {
              "components": [
                {
                  "internalType": "uint16",
                  "name": "rate",
                  "type": "uint16"
                },
                {
                  "internalType": "address payable",
                  "name": "recipient",
                  "type": "address"
                }
              ],
              "internalType": "struct Fee[]",
              "name": "fees",
              "type": "tuple[]"
            },
            {
              "internalType": "uint256",
              "name": "salt",
              "type": "uint256"
            },
            {
              "internalType": "bytes",
              "name": "extraParams",
              "type": "bytes"
            }
          ],
          "indexed": false,
          "internalType": "struct Order",
          "name": "buy",
          "type": "tuple"
        },
        {
          "indexed": false,
          "internalType": "bytes32",
          "name": "buyHash",
          "type": "bytes32"
        }
      ],
      "name": "OrdersMatched",
      "type": "event"
    },
    {
      "anonymous": false,
      "inputs": [
        {
          "indexed": true,
          "internalType": "address",
          "name": "previousOwner",
          "type": "address"
        },
        {
          "indexed": true,
          "internalType": "address",
          "name": "newOwner",
          "type": "address"
        }
      ],
      "name": "OwnershipTransferred",
      "type": "event"
    },
    {
      "anonymous": false,
      "inputs": [
        {
          "indexed": true,
          "internalType": "address",
          "name": "implementation",
          "type": "address"
        }
      ],
      "name": "Upgraded",
      "type": "event"
    },
    {
      "inputs": [],
      "name": "FEE_TYPEHASH",
      "outputs": [
        {
          "internalType": "bytes32",
          "name": "",
          "type": "bytes32"
        }
      ],
      "stateMutability": "view",
      "type": "function"
    },
    {
      "inputs": [],
      "name": "INVERSE_BASIS_POINT",
      "outputs": [
        {
          "internalType": "uint256",
          "name": "",
          "type": "uint256"
        }
      ],
      "stateMutability": "view",
      "type": "function"
    },
    {
      "inputs": [],
      "name": "NAME",
      "outputs": [
        {
          "internalType": "string",
          "name": "",
          "type": "string"
        }
      ],
      "stateMutability": "view",
      "type": "function"
    },
    {
      "inputs": [],
      "name": "ORACLE_ORDER_TYPEHASH",
      "outputs": [
        {
          "internalType": "bytes32",
          "name": "",
          "type": "bytes32"
        }
      ],
      "stateMutability": "view",
      "type": "function"
    },
    {
      "inputs": [],
      "name": "ORDER_TYPEHASH",
      "outputs": [
        {
          "internalType": "bytes32",
          "name": "",
          "type": "bytes32"
        }
      ],
      "stateMutability": "view",
      "type": "function"
    },
    {
      "inputs": [],
      "name": "POOL",
      "outputs": [
        {
          "internalType": "address",
          "name": "",
          "type": "address"
        }
      ],
      "stateMutability": "view",
      "type": "function"
    },
    {
      "inputs": [],
      "name": "ROOT_TYPEHASH",
      "outputs": [
        {
          "internalType": "bytes32",
          "name": "",
          "type": "bytes32"
        }
      ],
      "stateMutability": "view",
      "type": "function"
    },
    {
      "inputs": [],
      "name": "VERSION",
      "outputs": [
        {
          "internalType": "string",
          "name": "",
          "type": "string"
        }
      ],
      "stateMutability": "view",
      "type": "function"
    },
    {
      "inputs": [],
      "name": "WETH",
      "outputs": [
        {
          "internalType": "address",
          "name": "",
          "type": "address"
        }
      ],
      "stateMutability": "view",
      "type": "function"
    },
    {
      "inputs": [
        {
          "components": [
            {
              "components": [
                {
                  "internalType": "address",
                  "name": "trader",
                  "type": "address"
                },
                {
                  "internalType": "enum Side",
                  "name": "side",
                  "type": "uint8"
                },
                {
                  "internalType": "address",
                  "name": "matchingPolicy",
                  "type": "address"
                },
                {
                  "internalType": "address",
                  "name": "collection",
                  "type": "address"
                },
                {
                  "internalType": "uint256",
                  "name": "tokenId",
                  "type": "uint256"
                },
                {
                  "internalType": "uint256",
                  "name": "amount",
                  "type": "uint256"
                },
                {
                  "internalType": "address",
                  "name": "paymentToken",
                  "type": "address"
                },
                {
                  "internalType": "uint256",
                  "name": "price",
                  "type": "uint256"
                },
                {
                  "internalType": "uint256",
                  "name": "listingTime",
                  "type": "uint256"
                },
                {
                  "internalType": "uint256",
                  "name": "expirationTime",
                  "type": "uint256"
                },
                {
                  "components": [
                    {
                      "internalType": "uint16",
                      "name": "rate",
                      "type": "uint16"
                    },
                    {
                      "internalType": "address payable",
                      "name": "recipient",
                      "type": "address"
                    }
                  ],
                  "internalType": "struct Fee[]",
                  "name": "fees",
                  "type": "tuple[]"
                },
                {
                  "internalType": "uint256",
                  "name": "salt",
                  "type": "uint256"
                },
                {
                  "internalType": "bytes",
                  "name": "extraParams",
                  "type": "bytes"
                }
              ],
              "internalType": "struct Order",
              "name": "order",
              "type": "tuple"
            },
            {
              "internalType": "uint8",
              "name": "v",
              "type": "uint8"
            },
            {
              "internalType": "bytes32",
              "name": "r",
              "type": "bytes32"
            },
            {
              "internalType": "bytes32",
              "name": "s",
              "type": "bytes32"
            },
            {
              "internalType": "bytes",
              "name": "extraSignature",
              "type": "bytes"
            },
            {
              "internalType": "enum SignatureVersion",
              "name": "signatureVersion",
              "type": "uint8"
            },
            {
              "internalType": "uint256",
              "name": "blockNumber",
              "type": "uint256"
            }
          ],
          "internalType": "struct Input",
          "name": "sell",
          "type": "tuple"
        },
        {
          "components": [
            {
              "components": [
                {
                  "internalType": "address",
                  "name": "trader",
                  "type": "address"
                },
                {
                  "internalType": "enum Side",
                  "name": "side",
                  "type": "uint8"
                },
                {
                  "internalType": "address",
                  "name": "matchingPolicy",
                  "type": "address"
                },
                {
                  "internalType": "address",
                  "name": "collection",
                  "type": "address"
                },
                {
                  "internalType": "uint256",
                  "name": "tokenId",
                  "type": "uint256"
                },
                {
                  "internalType": "uint256",
                  "name": "amount",
                  "type": "uint256"
                },
                {
                  "internalType": "address",
                  "name": "paymentToken",
                  "type": "address"
                },
                {
                  "internalType": "uint256",
                  "name": "price",
                  "type": "uint256"
                },
                {
                  "internalType": "uint256",
                  "name": "listingTime",
                  "type": "uint256"
                },
                {
                  "internalType": "uint256",
                  "name": "expirationTime",
                  "type": "uint256"
                },
                {
                  "components": [
                    {
                      "internalType": "uint16",
                      "name": "rate",
                      "type": "uint16"
                    },
                    {
                      "internalType": "address payable",
                      "name": "recipient",
                      "type": "address"
                    }
                  ],
                  "internalType": "struct Fee[]",
                  "name": "fees",
                  "type": "tuple[]"
                },
                {
                  "internalType": "uint256",
                  "name": "salt",
                  "type": "uint256"
                },
                {
                  "internalType": "bytes",
                  "name": "extraParams",
                  "type": "bytes"
                }
              ],
              "internalType": "struct Order",
              "name": "order",
              "type": "tuple"
            },
            {
              "internalType": "uint8",
              "name": "v",
              "type": "uint8"
            },
            {
              "internalType": "bytes32",
              "name": "r",
              "type": "bytes32"
            },
            {
              "internalType": "bytes32",
              "name": "s",
              "type": "bytes32"
            },
            {
              "internalType": "bytes",
              "name": "extraSignature",
              "type": "bytes"
            },
            {
              "internalType": "enum SignatureVersion",
              "name": "signatureVersion",
              "type": "uint8"
            },
            {
              "internalType": "uint256",
              "name": "blockNumber",
              "type": "uint256"
            }
          ],
          "internalType": "struct Input",
          "name": "buy",
          "type": "tuple"
        }
      ],
      "name": "_execute",
      "outputs": [],
      "stateMutability": "payable",
      "type": "function"
    },
    {
      "inputs": [],
      "name": "blockRange",
      "outputs": [
        {
          "internalType": "uint256",
          "name": "",
          "type": "uint256"
        }
      ],
      "stateMutability": "view",
      "type": "function"
    },
    {
      "inputs": [
        {
          "components": [
            {
              "components": [
                {
                  "components": [
                    {
                      "internalType": "address",
                      "name": "trader",
                      "type": "address"
                    },
                    {
                      "internalType": "enum Side",
                      "name": "side",
                      "type": "uint8"
                    },
                    {
                      "internalType": "address",
                      "name": "matchingPolicy",
                      "type": "address"
                    },
                    {
                      "internalType": "address",
                      "name": "collection",
                      "type": "address"
                    },
                    {
                      "internalType": "uint256",
                      "name": "tokenId",
                      "type": "uint256"
                    },
                    {
                      "internalType": "uint256",
                      "name": "amount",
                      "type": "uint256"
                    },
                    {
                      "internalType": "address",
                      "name": "paymentToken",
                      "type": "address"
                    },
                    {
                      "internalType": "uint256",
                      "name": "price",
                      "type": "uint256"
                    },
                    {
                      "internalType": "uint256",
                      "name": "listingTime",
                      "type": "uint256"
                    },
                    {
                      "internalType": "uint256",
                      "name": "expirationTime",
                      "type": "uint256"
                    },
                    {
                      "components": [
                        {
                          "internalType": "uint16",
                          "name": "rate",
                          "type": "uint16"
                        },
                        {
                          "internalType": "address payable",
                          "name": "recipient",
                          "type": "address"
                        }
                      ],
                      "internalType": "struct Fee[]",
                      "name": "fees",
                      "type": "tuple[]"
                    },
                    {
                      "internalType": "uint256",
                      "name": "salt",
                      "type": "uint256"
                    },
                    {
                      "internalType": "bytes",
                      "name": "extraParams",
                      "type": "bytes"
                    }
                  ],
                  "internalType": "struct Order",
                  "name": "order",
                  "type": "tuple"
                },
                {
                  "internalType": "uint8",
                  "name": "v",
                  "type": "uint8"
                },
                {
                  "internalType": "bytes32",
                  "name": "r",
                  "type": "bytes32"
                },
                {
                  "internalType": "bytes32",
                  "name": "s",
                  "type": "bytes32"
                },
                {
                  "internalType": "bytes",
                  "name": "extraSignature",
                  "type": "bytes"
                },
                {
                  "internalType": "enum SignatureVersion",
                  "name": "signatureVersion",
                  "type": "uint8"
                },
                {
                  "internalType": "uint256",
                  "name": "blockNumber",
                  "type": "uint256"
                }
              ],
              "internalType": "struct Input",
              "name": "sell",
              "type": "tuple"
            },
            {
              "components": [
                {
                  "components": [
                    {
                      "internalType": "address",
                      "name": "trader",
                      "type": "address"
                    },
                    {
                      "internalType": "enum Side",
                      "name": "side",
                      "type": "uint8"
                    },
                    {
                      "internalType": "address",
                      "name": "matchingPolicy",
                      "type": "address"
                    },
                    {
                      "internalType": "address",
                      "name": "collection",
                      "type": "address"
                    },
                    {
                      "internalType": "uint256",
                      "name": "tokenId",
                      "type": "uint256"
                    },
                    {
                      "internalType": "uint256",
                      "name": "amount",
                      "type": "uint256"
                    },
                    {
                      "internalType": "address",
                      "name": "paymentToken",
                      "type": "address"
                    },
                    {
                      "internalType": "uint256",
                      "name": "price",
                      "type": "uint256"
                    },
                    {
                      "internalType": "uint256",
                      "name": "listingTime",
                      "type": "uint256"
                    },
                    {
                      "internalType": "uint256",
                      "name": "expirationTime",
                      "type": "uint256"
                    },
                    {
                      "components": [
                        {
                          "internalType": "uint16",
                          "name": "rate",
                          "type": "uint16"
                        },
                        {
                          "internalType": "address payable",
                          "name": "recipient",
                          "type": "address"
                        }
                      ],
                      "internalType": "struct Fee[]",
                      "name": "fees",
                      "type": "tuple[]"
                    },
                    {
                      "internalType": "uint256",
                      "name": "salt",
                      "type": "uint256"
                    },
                    {
                      "internalType": "bytes",
                      "name": "extraParams",
                      "type": "bytes"
                    }
                  ],
                  "internalType": "struct Order",
                  "name": "order",
                  "type": "tuple"
                },
                {
                  "internalType": "uint8",
                  "name": "v",
                  "type": "uint8"
                },
                {
                  "internalType": "bytes32",
                  "name": "r",
                  "type": "bytes32"
                },
                {
                  "internalType": "bytes32",
                  "name": "s",
                  "type": "bytes32"
                },
                {
                  "internalType": "bytes",
                  "name": "extraSignature",
                  "type": "bytes"
                },
                {
                  "internalType": "enum SignatureVersion",
                  "name": "signatureVersion",
                  "type": "uint8"
                },
                {
                  "internalType": "uint256",
                  "name": "blockNumber",
                  "type": "uint256"
                }
              ],
              "internalType": "struct Input",
              "name": "buy",
              "type": "tuple"
            }
          ],
          "internalType": "struct Execution[]",
          "name": "executions",
          "type": "tuple[]"
        }
      ],
      "name": "bulkExecute",
      "outputs": [],
      "stateMutability": "payable",
      "type": "function"
    },
    {
      "inputs": [
        {
          "components": [
            {
              "internalType": "address",
              "name": "trader",
              "type": "address"
            },
            {
              "internalType": "enum Side",
              "name": "side",
              "type": "uint8"
            },
            {
              "internalType": "address",
              "name": "matchingPolicy",
              "type": "address"
            },
            {
              "internalType": "address",
              "name": "collection",
              "type": "address"
            },
            {
              "internalType": "uint256",
              "name": "tokenId",
              "type": "uint256"
            },
            {
              "internalType": "uint256",
              "name": "amount",
              "type": "uint256"
            },
            {
              "internalType": "address",
              "name": "paymentToken",
              "type": "address"
            },
            {
              "internalType": "uint256",
              "name": "price",
              "type": "uint256"
            },
            {
              "internalType": "uint256",
              "name": "listingTime",
              "type": "uint256"
            },
            {
              "internalType": "uint256",
              "name": "expirationTime",
              "type": "uint256"
            },
            {
              "components": [
                {
                  "internalType": "uint16",
                  "name": "rate",
                  "type": "uint16"
                },
                {
                  "internalType": "address payable",
                  "name": "recipient",
                  "type": "address"
                }
              ],
              "internalType": "struct Fee[]",
              "name": "fees",
              "type": "tuple[]"
            },
            {
              "internalType": "uint256",
              "name": "salt",
              "type": "uint256"
            },
            {
              "internalType": "bytes",
              "name": "extraParams",
              "type": "bytes"
            }
          ],
          "internalType": "struct Order",
          "name": "order",
          "type": "tuple"
        }
      ],
      "name": "cancelOrder",
      "outputs": [],
      "stateMutability": "nonpayable",
      "type": "function"
    },
    {
      "inputs": [
        {
          "components": [
            {
              "internalType": "address",
              "name": "trader",
              "type": "address"
            },
            {
              "internalType": "enum Side",
              "name": "side",
              "type": "uint8"
            },
            {
              "internalType": "address",
              "name": "matchingPolicy",
              "type": "address"
            },
            {
              "internalType": "address",
              "name": "collection",
              "type": "address"
            },
            {
              "internalType": "uint256",
              "name": "tokenId",
              "type": "uint256"
            },
            {
              "internalType": "uint256",
              "name": "amount",
              "type": "uint256"
            },
            {
              "internalType": "address",
              "name": "paymentToken",
              "type": "address"
            },
            {
              "internalType": "uint256",
              "name": "price",
              "type": "uint256"
            },
            {
              "internalType": "uint256",
              "name": "listingTime",
              "type": "uint256"
            },
            {
              "internalType": "uint256",
              "name": "expirationTime",
              "type": "uint256"
            },
            {
              "components": [
                {
                  "internalType": "uint16",
                  "name": "rate",
                  "type": "uint16"
                },
                {
                  "internalType": "address payable",
                  "name": "recipient",
                  "type": "address"
                }
              ],
              "internalType": "struct Fee[]",
              "name": "fees",
              "type": "tuple[]"
            },
            {
              "internalType": "uint256",
              "name": "salt",
              "type": "uint256"
            },
            {
              "internalType": "bytes",
              "name": "extraParams",
              "type": "bytes"
            }
          ],
          "internalType": "struct Order[]",
          "name": "orders",
          "type": "tuple[]"
        }
      ],
      "name": "cancelOrders",
      "outputs": [],
      "stateMutability": "nonpayable",
      "type": "function"
    },
    {
      "inputs": [
        {
          "internalType": "bytes32",
          "name": "",
          "type": "bytes32"
        }
      ],
      "name": "cancelledOrFilled",
      "outputs": [
        {
          "internalType": "bool",
          "name": "",
          "type": "bool"
        }
      ],
      "stateMutability": "view",
      "type": "function"
    },
    {
      "inputs": [],
      "name": "close",
      "outputs": [],
      "stateMutability": "nonpayable",
      "type": "function"
    },
    {
      "inputs": [
        {
          "components": [
            {
              "components": [
                {
                  "internalType": "address",
                  "name": "trader",
                  "type": "address"
                },
                {
                  "internalType": "enum Side",
                  "name": "side",
                  "type": "uint8"
                },
                {
                  "internalType": "address",
                  "name": "matchingPolicy",
                  "type": "address"
                },
                {
                  "internalType": "address",
                  "name": "collection",
                  "type": "address"
                },
                {
                  "internalType": "uint256",
                  "name": "tokenId",
                  "type": "uint256"
                },
                {
                  "internalType": "uint256",
                  "name": "amount",
                  "type": "uint256"
                },
                {
                  "internalType": "address",
                  "name": "paymentToken",
                  "type": "address"
                },
                {
                  "internalType": "uint256",
                  "name": "price",
                  "type": "uint256"
                },
                {
                  "internalType": "uint256",
                  "name": "listingTime",
                  "type": "uint256"
                },
                {
                  "internalType": "uint256",
                  "name": "expirationTime",
                  "type": "uint256"
                },
                {
                  "components": [
                    {
                      "internalType": "uint16",
                      "name": "rate",
                      "type": "uint16"
                    },
                    {
                      "internalType": "address payable",
                      "name": "recipient",
                      "type": "address"
                    }
                  ],
                  "internalType": "struct Fee[]",
                  "name": "fees",
                  "type": "tuple[]"
                },
                {
                  "internalType": "uint256",
                  "name": "salt",
                  "type": "uint256"
                },
                {
                  "internalType": "bytes",
                  "name": "extraParams",
                  "type": "bytes"
                }
              ],
              "internalType": "struct Order",
              "name": "order",
              "type": "tuple"
            },
            {
              "internalType": "uint8",
              "name": "v",
              "type": "uint8"
            },
            {
              "internalType": "bytes32",
              "name": "r",
              "type": "bytes32"
            },
            {
              "internalType": "bytes32",
              "name": "s",
              "type": "bytes32"
            },
            {
              "internalType": "bytes",
              "name": "extraSignature",
              "type": "bytes"
            },
            {
              "internalType": "enum SignatureVersion",
              "name": "signatureVersion",
              "type": "uint8"
            },
            {
              "internalType": "uint256",
              "name": "blockNumber",
              "type": "uint256"
            }
          ],
          "internalType": "struct Input",
          "name": "sell",
          "type": "tuple"
        },
        {
          "components": [
            {
              "components": [
                {
                  "internalType": "address",
                  "name": "trader",
                  "type": "address"
                },
                {
                  "internalType": "enum Side",
                  "name": "side",
                  "type": "uint8"
                },
                {
                  "internalType": "address",
                  "name": "matchingPolicy",
                  "type": "address"
                },
                {
                  "internalType": "address",
                  "name": "collection",
                  "type": "address"
                },
                {
                  "internalType": "uint256",
                  "name": "tokenId",
                  "type": "uint256"
                },
                {
                  "internalType": "uint256",
                  "name": "amount",
                  "type": "uint256"
                },
                {
                  "internalType": "address",
                  "name": "paymentToken",
                  "type": "address"
                },
                {
                  "internalType": "uint256",
                  "name": "price",
                  "type": "uint256"
                },
                {
                  "internalType": "uint256",
                  "name": "listingTime",
                  "type": "uint256"
                },
                {
                  "internalType": "uint256",
                  "name": "expirationTime",
                  "type": "uint256"
                },
                {
                  "components": [
                    {
                      "internalType": "uint16",
                      "name": "rate",
                      "type": "uint16"
                    },
                    {
                      "internalType": "address payable",
                      "name": "recipient",
                      "type": "address"
                    }
                  ],
                  "internalType": "struct Fee[]",
                  "name": "fees",
                  "type": "tuple[]"
                },
                {
                  "internalType": "uint256",
                  "name": "salt",
                  "type": "uint256"
                },
                {
                  "internalType": "bytes",
                  "name": "extraParams",
                  "type": "bytes"
                }
              ],
              "internalType": "struct Order",
              "name": "order",
              "type": "tuple"
            },
            {
              "internalType": "uint8",
              "name": "v",
              "type": "uint8"
            },
            {
              "internalType": "bytes32",
              "name": "r",
              "type": "bytes32"
            },
            {
              "internalType": "bytes32",
              "name": "s",
              "type": "bytes32"
            },
            {
              "internalType": "bytes",
              "name": "extraSignature",
              "type": "bytes"
            },
            {
              "internalType": "enum SignatureVersion",
              "name": "signatureVersion",
              "type": "uint8"
            },
            {
              "internalType": "uint256",
              "name": "blockNumber",
              "type": "uint256"
            }
          ],
          "internalType": "struct Input",
          "name": "buy",
          "type": "tuple"
        }
      ],
      "name": "execute",
      "outputs": [],
      "stateMutability": "payable",
      "type": "function"
    },
    {
      "inputs": [],
      "name": "executionDelegate",
      "outputs": [
        {
          "internalType": "contract IExecutionDelegate",
          "name": "",
          "type": "address"
        }
      ],
      "stateMutability": "view",
      "type": "function"
    },
    {
      "inputs": [],
      "name": "incrementNonce",
      "outputs": [],
      "stateMutability": "nonpayable",
      "type": "function"
    },
    {
      "inputs": [
        {
          "internalType": "address",
          "name": "_WETH",
          "type": "address"
        },
        {
          "internalType": "address",
          "name": "_POOL",
          "type": "address"
        },
        {
          "internalType": "contract IExecutionDelegate",
          "name": "_executionDelegate",
          "type": "address"
        },
        {
          "internalType": "contract IPolicyManager",
          "name": "_policyManager",
          "type": "address"
        },
        {
          "internalType": "address",
          "name": "_oracle",
          "type": "address"
        },
        {
          "internalType": "uint256",
          "name": "_blockRange",
          "type": "uint256"
        }
      ],
      "name": "initialize",
      "outputs": [],
      "stateMutability": "nonpayable",
      "type": "function"
    },
    {
      "inputs": [],
      "name": "isInternal",
      "outputs": [
        {
          "internalType": "bool",
          "name": "",
          "type": "bool"
        }
      ],
      "stateMutability": "view",
      "type": "function"
    },
    {
      "inputs": [],
      "name": "isOpen",
      "outputs": [
        {
          "internalType": "uint256",
          "name": "",
          "type": "uint256"
        }
      ],
      "stateMutability": "view",
      "type": "function"
    },
    {
      "inputs": [
        {
          "internalType": "address",
          "name": "",
          "type": "address"
        }
      ],
      "name": "nonces",
      "outputs": [
        {
          "internalType": "uint256",
          "name": "",
          "type": "uint256"
        }
      ],
      "stateMutability": "view",
      "type": "function"
    },
    {
      "inputs": [],
      "name": "open",
      "outputs": [],
      "stateMutability": "nonpayable",
      "type": "function"
    },
    {
      "inputs": [],
      "name": "oracle",
      "outputs": [
        {
          "internalType": "address",
          "name": "",
          "type": "address"
        }
      ],
      "stateMutability": "view",
      "type": "function"
    },
    {
      "inputs": [],
      "name": "owner",
      "outputs": [
        {
          "internalType": "address",
          "name": "",
          "type": "address"
        }
      ],
      "stateMutability": "view",
      "type": "function"
    },
    {
      "inputs": [],
      "name": "policyManager",
      "outputs": [
        {
          "internalType": "contract IPolicyManager",
          "name": "",
          "type": "address"
        }
      ],
      "stateMutability": "view",
      "type": "function"
    },
    {
      "inputs": [],
      "name": "proxiableUUID",
      "outputs": [
        {
          "internalType": "bytes32",
          "name": "",
          "type": "bytes32"
        }
      ],
      "stateMutability": "view",
      "type": "function"
    },
    {
      "inputs": [],
      "name": "remainingETH",
      "outputs": [
        {
          "internalType": "uint256",
          "name": "",
          "type": "uint256"
        }
      ],
      "stateMutability": "view",
      "type": "function"
    },
    {
      "inputs": [],
      "name": "renounceOwnership",
      "outputs": [],
      "stateMutability": "nonpayable",
      "type": "function"
    },
    {
      "inputs": [
        {
          "internalType": "uint256",
          "name": "_blockRange",
          "type": "uint256"
        }
      ],
      "name": "setBlockRange",
      "outputs": [],
      "stateMutability": "nonpayable",
      "type": "function"
    },
    {
      "inputs": [
        {
          "internalType": "contract IExecutionDelegate",
          "name": "_executionDelegate",
          "type": "address"
        }
      ],
      "name": "setExecutionDelegate",
      "outputs": [],
      "stateMutability": "nonpayable",
      "type": "function"
    },
    {
      "inputs": [
        {
          "internalType": "address",
          "name": "_oracle",
          "type": "address"
        }
      ],
      "name": "setOracle",
      "outputs": [],
      "stateMutability": "nonpayable",
      "type": "function"
    },
    {
      "inputs": [
        {
          "internalType": "contract IPolicyManager",
          "name": "_policyManager",
          "type": "address"
        }
      ],
      "name": "setPolicyManager",
      "outputs": [],
      "stateMutability": "nonpayable",
      "type": "function"
    },
    {
      "inputs": [
        {
          "internalType": "address",
          "name": "newOwner",
          "type": "address"
        }
      ],
      "name": "transferOwnership",
      "outputs": [],
      "stateMutability": "nonpayable",
      "type": "function"
    },
    {
      "inputs": [
        {
          "internalType": "address",
          "name": "newImplementation",
          "type": "address"
        }
      ],
      "name": "upgradeTo",
      "outputs": [],
      "stateMutability": "nonpayable",
      "type": "function"
    },
    {
      "inputs": [
        {
          "internalType": "address",
          "name": "newImplementation",
          "type": "address"
        },
        {
          "internalType": "bytes",
          "name": "data",
          "type": "bytes"
        }
      ],
      "name": "upgradeToAndCall",
      "outputs": [],
      "stateMutability": "payable",
      "type": "function"
    }
  ],
  "bytecode": "0x60a06040526000805460ff19908116825530608052610131805490911690556101325534801561002e57600080fd5b5060805161383a610066600039600081816108160152818161089b015281816109ca01528181610a4f0152610b39015261383a6000f3fe60806040526004361061026a5760003560e01c80637ecebe0011610153578063ad5c4648116100cb578063f2fde38b1161007f578063f973a20911610064578063f973a209146106e6578063fcfff16f1461071a578063ffa1ad741461072f57600080fd5b8063f2fde38b146106a6578063f4acd740146106c657600080fd5b8063b3be57f8116100b0578063b3be57f81461066a578063cae6047f1461067d578063e04d94ae1461069357600080fd5b8063ad5c464814610629578063adde41e11461064a57600080fd5b80639a1fc3a711610122578063a4b2c67411610107578063a4b2c674146105d1578063ab3dbf3b146105e8578063ab7e8cba1461060957600080fd5b80639a1fc3a714610578578063a3f4df7e1461058b57600080fd5b80637ecebe00146104eb5780638da5cb5b1461051957806395b6ef0c14610537578063986c9b201461055757600080fd5b80634f1ef286116101e65780636992aa36116101b55780637535d2461161019a5780637535d246146104715780637adbf973146104aa5780637dc0d1d0146104ca57600080fd5b80636992aa361461043c578063715018a61461045c57600080fd5b80634f1ef286146103ce57806352d1902d146103e15780635511f319146103f6578063627cdcb91461042757600080fd5b806331e6d0fe1161023d57806343d726d61161022257806343d726d61461036e57806347535d7b146103835780634832ede11461039a57600080fd5b806331e6d0fe1461031a5780633659cfe61461034e57600080fd5b8063037c9be21461026f57806316e29d71146102915780631d97c9bb146102c15780632c7acf8c14610303575b600080fd5b34801561027b57600080fd5b5061028f61028a366004612e45565b61075e565b005b34801561029d57600080fd5b50610131546102ac9060ff1681565b60405190151581526020015b60405180910390f35b3480156102cd57600080fd5b506102f57fd71080023d2f293ed0723dc287d6b2d4e7d27d0b6c12928e300721b7c78c748581565b6040519081526020016102b8565b34801561030f57600080fd5b506102f56101325481565b34801561032657600080fd5b506102f57f5bcf4b2eaff7fcdeb49f0bda53026b9ebdd93db566fe4c447125cb899e598c9081565b34801561035a57600080fd5b5061028f610369366004612e45565b61080c565b34801561037a57600080fd5b5061028f610987565b34801561038f57600080fd5b506102f56101285481565b3480156103a657600080fd5b506102f57f05b43f730f67de334a342883f867101fc7ef3361dfdff4a29a7aa97e0920ef7a81565b61028f6103dc366004612e88565b6109c0565b3480156103ed57600080fd5b506102f5610b2c565b34801561040257600080fd5b506102ac610411366004612f4c565b61012f6020526000908152604090205460ff1681565b34801561043357600080fd5b5061028f610bf1565b34801561044857600080fd5b5061028f610457366004612f4c565b610c5e565b34801561046857600080fd5b5061028f610ca2565b34801561047d57600080fd5b5061012a54610492906001600160a01b031681565b6040516001600160a01b0390911681526020016102b8565b3480156104b657600080fd5b5061028f6104c5366004612e45565b610cb6565b3480156104d657600080fd5b5061012d54610492906001600160a01b031681565b3480156104f757600080fd5b506102f5610506366004612e45565b6101306020526000908152604090205481565b34801561052557600080fd5b506092546001600160a01b0316610492565b34801561054357600080fd5b5061028f610552366004612f65565b610d5f565b34801561056357600080fd5b5061012b54610492906001600160a01b031681565b61028f610586366004612ff6565b610f4f565b34801561059757600080fd5b506105c46040518060400160405280600d81526020016c426c75722045786368616e676560981b81525081565b6040516102b8919061307e565b3480156105dd57600080fd5b506102f561012e5481565b3480156105f457600080fd5b5061012c54610492906001600160a01b031681565b34801561061557600080fd5b5061028f6106243660046130fd565b611007565b34801561063557600080fd5b5061012954610492906001600160a01b031681565b34801561065657600080fd5b5061028f610665366004612e45565b611056565b61028f6106783660046130fd565b6110ff565b34801561068957600080fd5b506102f561271081565b61028f6106a1366004612ff6565b61127b565b3480156106b257600080fd5b5061028f6106c1366004612e45565b6116bc565b3480156106d257600080fd5b5061028f6106e136600461313f565b611749565b3480156106f257600080fd5b506102f57f376bfbc394a7ba7fdf10f224572cef371358e3053e362f4554fcd2ad56329b3f81565b34801561072657600080fd5b5061028f611888565b34801561073b57600080fd5b506105c4604051806040016040528060038152602001620312e360ec1b81525081565b6107666118c1565b6001600160a01b0381166107c15760405162461bcd60e51b815260206004820152601660248201527f416464726573732063616e6e6f74206265207a65726f0000000000000000000060448201526064015b60405180910390fd5b61012b80546001600160a01b0319166001600160a01b0383169081179091556040517ff9a0f356a7ef079355de09d32ce45cc3cfabc8f118681c19a17501f005a376ac90600090a250565b6001600160a01b037f00000000000000000000000000000000000000000000000000000000000000001630036108995760405162461bcd60e51b815260206004820152602c60248201527f46756e6374696f6e206d7573742062652063616c6c6564207468726f7567682060448201526b19195b1959d85d1958d85b1b60a21b60648201526084016107b8565b7f00000000000000000000000000000000000000000000000000000000000000006001600160a01b03166108f47f360894a13ba1a3210667c828492db98dca3e2076cc3735a920a3ca505d382bbc546001600160a01b031690565b6001600160a01b03161461095f5760405162461bcd60e51b815260206004820152602c60248201527f46756e6374696f6e206d7573742062652063616c6c6564207468726f7567682060448201526b6163746976652070726f787960a01b60648201526084016107b8565b6109688161191b565b6040805160008082526020820190925261098491839190611923565b50565b61098f6118c1565b60006101288190556040517f1cdde67b72a90f19919ac732a437ac2f7a10fc128d28c2a6e525d89ce5cd9d3a9190a1565b6001600160a01b037f0000000000000000000000000000000000000000000000000000000000000000163003610a4d5760405162461bcd60e51b815260206004820152602c60248201527f46756e6374696f6e206d7573742062652063616c6c6564207468726f7567682060448201526b19195b1959d85d1958d85b1b60a21b60648201526084016107b8565b7f00000000000000000000000000000000000000000000000000000000000000006001600160a01b0316610aa87f360894a13ba1a3210667c828492db98dca3e2076cc3735a920a3ca505d382bbc546001600160a01b031690565b6001600160a01b031614610b135760405162461bcd60e51b815260206004820152602c60248201527f46756e6374696f6e206d7573742062652063616c6c6564207468726f7567682060448201526b6163746976652070726f787960a01b60648201526084016107b8565b610b1c8261191b565b610b2882826001611923565b5050565b6000306001600160a01b037f00000000000000000000000000000000000000000000000000000000000000001614610bcc5760405162461bcd60e51b815260206004820152603860248201527f555550535570677261646561626c653a206d757374206e6f742062652063616c60448201527f6c6564207468726f7567682064656c656761746563616c6c000000000000000060648201526084016107b8565b507f360894a13ba1a3210667c828492db98dca3e2076cc3735a920a3ca505d382bbc90565b33600090815261013060205260408120805460019290610c12908490613191565b909155505033600081815261013060209081526040918290205491519182527fa82a649bbd060c9099cd7b7326e2b0dc9e9af0836480e0f849dc9eaa79710b3b910160405180910390a2565b610c666118c1565b61012e8190556040518181527f7706177c541ba1b858371bfc568aa77450b4713bbdbba62c730d4484ab6c12519060200160405180910390a150565b610caa6118c1565b610cb46000611ac3565b565b610cbe6118c1565b6001600160a01b038116610d145760405162461bcd60e51b815260206004820152601660248201527f416464726573732063616e6e6f74206265207a65726f0000000000000000000060448201526064016107b8565b61012d80546001600160a01b0319166001600160a01b0383169081179091556040517fb3eacd0e351fafdfefdec84e1cd19679b38dbcd63ea7c2c24da17fd2bc3b3c0e90600090a250565b605f54610100900460ff1615808015610d7f5750605f54600160ff909116105b80610d995750303b158015610d995750605f5460ff166001145b610e0b5760405162461bcd60e51b815260206004820152602e60248201527f496e697469616c697a61626c653a20636f6e747261637420697320616c72656160448201527f647920696e697469616c697a656400000000000000000000000000000000000060648201526084016107b8565b605f805460ff191660011790558015610e2e57605f805461ff0019166101001790555b610e36611b15565b6001610128556040805160c081018252600d608082019081526c426c75722045786368616e676560981b60a083015281528151808301835260038152620312e360ec1b6020828101919091528201524691810191909152306060820152610e9c90611b88565b60325561012b80546001600160a01b03199081166001600160a01b038881169190911790925561012c8054821687841617905561012d8054821686841617905561012e849055610129805482168a841617905561012a80549091169188169190911790558015610f4657605f805461ff0019169055604051600181527f7f26b83ff96e1f2b6a682f133852f6798a09c465da95921460cefb38474024989060200160405180910390a15b50505050505050565b61012854600114610f8b5760405162461bcd60e51b815260206004820152600660248201526510db1bdcd95960d21b60448201526064016107b8565b6101315460ff1615610fcd5760405162461bcd60e51b815260206004820152600b60248201526a155b9cd859994818d85b1b60aa1b60448201526064016107b8565b3461013255610131805460ff19166001179055610fea828261127b565b610ff2611c25565b5050600061013255610131805460ff19169055565b60005b60ff81168211156110515761103f83838360ff1681811061102d5761102d6131a4565b90506020028101906106e191906131ba565b80611049816131db565b91505061100a565b505050565b61105e6118c1565b6001600160a01b0381166110b45760405162461bcd60e51b815260206004820152601660248201527f416464726573732063616e6e6f74206265207a65726f0000000000000000000060448201526064016107b8565b61012c80546001600160a01b0319166001600160a01b0383169081179091556040517fdbe18f3fd927cc2aefe380ffd2abfdb8e13f0239c0258ccfc84c3d8fdd8c041890600090a250565b6101285460011461113b5760405162461bcd60e51b815260206004820152600660248201526510db1bdcd95960d21b60448201526064016107b8565b6101315460ff161561117d5760405162461bcd60e51b815260206004820152600b60248201526a155b9cd859994818d85b1b60aa1b60448201526064016107b8565b3461013255610131805460ff191660011790558060008190036111e25760405162461bcd60e51b815260206004820152601460248201527f4e6f206f726465727320746f206578656375746500000000000000000000000060448201526064016107b8565b60005b818160ff16101561125c57604051602082028501358501600060018085018614908114611222576001850160200288013588018390039150611228565b82360391505b50637026ca5760e11b8352808284600401376000806004830185305af4505050508080611254906131db565b9150506111e5565b50611265611c25565b505060006101325550610131805460ff19169055565b6101315460ff166112bc5760405162461bcd60e51b815260206004820152600b60248201526a155b9cd859994818d85b1b60aa1b60448201526064016107b8565b60005460ff161561130f5760405162461bcd60e51b815260206004820152601360248201527f5265656e7472616e63792064657465637465640000000000000000000000000060448201526064016107b8565b6000805460ff1916600190811790915561132983806131ba565b61133a906040810190602001613228565b600181111561134b5761134b6131fa565b1461135557600080fd5b60006113a761136484806131ba565b610130600061137387806131ba565b611381906020810190612e45565b6001600160a01b03166001600160a01b0316815260200190815260200160002054611c43565b905060006113b861136484806131ba565b90506113cd6113c785806131ba565b83611d84565b6114195760405162461bcd60e51b815260206004820152601b60248201527f53656c6c2068617320696e76616c696420706172616d6574657273000000000060448201526064016107b8565b61142c61142684806131ba565b82611d84565b6114785760405162461bcd60e51b815260206004820152601a60248201527f4275792068617320696e76616c696420706172616d657465727300000000000060448201526064016107b8565b600080808061149961148a89806131ba565b61149489806131ba565b611e58565b60008a815261012f60205260408082208054600160ff1991821681179092558c84529190922080549091169091179055929650909450925090506115406114e089806131ba565b6114ee906020810190612e45565b6114f889806131ba565b611506906020810190612e45565b6115108b806131ba565b6115219060e081019060c001612e45565b61152b8c806131ba565b61153a90610140810190613245565b89612252565b61159661154d89806131ba565b61155e906080810190606001612e45565b6115688a806131ba565b611576906020810190612e45565b6115808a806131ba565b61158e906020810190612e45565b86868661237f565b6115a087806131ba565b61010001356115af89806131ba565b6101000135116115d6576115c387806131ba565b6115d1906020810190612e45565b6115ee565b6115e088806131ba565b6115ee906020810190612e45565b6001600160a01b031661160188806131ba565b61010001356116108a806131ba565b610100013511156116385761162588806131ba565b611633906020810190612e45565b611650565b61164289806131ba565b611650906020810190612e45565b6001600160a01b03167f61cbb2a3dee0b6064c2e681aadd61677fb4ef319f0b547508d495626f5a62f646116848b806131ba565b8961168f8c806131ba565b8a6040516116a094939291906134f5565b60405180910390a350506000805460ff19169055505050505050565b6116c46118c1565b6001600160a01b0381166117405760405162461bcd60e51b815260206004820152602660248201527f4f776e61626c653a206e6577206f776e657220697320746865207a65726f206160448201527f646472657373000000000000000000000000000000000000000000000000000060648201526084016107b8565b61098481611ac3565b6117566020820182612e45565b6001600160a01b0316336001600160a01b0316146117b65760405162461bcd60e51b815260206004820152601260248201527f4e6f742073656e7420627920747261646572000000000000000000000000000060448201526064016107b8565b60006117cd82610130836113816020840184612e45565b600081815261012f602052604090205490915060ff16156118305760405162461bcd60e51b815260206004820152601960248201527f4f726465722063616e63656c6c6564206f722066696c6c65640000000000000060448201526064016107b8565b600081815261012f602052604090819020805460ff19166001179055517f5152abf959f6564662358c2e52b702259b78bac5ee7842a0f01937e670efcc7d9061187c9083815260200190565b60405180910390a15050565b6118906118c1565b6001610128556040517fd1dcd00534373f20882b79e6ab6875a5c358c5bd576448757ed50e63069ab51890600090a1565b6092546001600160a01b03163314610cb45760405162461bcd60e51b815260206004820181905260248201527f4f776e61626c653a2063616c6c6572206973206e6f7420746865206f776e657260448201526064016107b8565b6109846118c1565b7f4910fdfa16fed3260ed0e7147f7cc6da11a60208b5b9406d12a635614ffd91435460ff161561195657611051836124b4565b826001600160a01b03166352d1902d6040518163ffffffff1660e01b8152600401602060405180830381865afa9250505080156119b0575060408051601f3d908101601f191682019092526119ad91810190613532565b60015b611a225760405162461bcd60e51b815260206004820152602e60248201527f45524331393637557067726164653a206e657720696d706c656d656e7461746960448201527f6f6e206973206e6f74205555505300000000000000000000000000000000000060648201526084016107b8565b7f360894a13ba1a3210667c828492db98dca3e2076cc3735a920a3ca505d382bbc8114611ab75760405162461bcd60e51b815260206004820152602960248201527f45524331393637557067726164653a20756e737570706f727465642070726f7860448201527f6961626c6555554944000000000000000000000000000000000000000000000060648201526084016107b8565b50611051838383612572565b609280546001600160a01b038381166001600160a01b0319831681179093556040519116919082907f8be0079c531659141344cd1fd0a4f28419497f9722a3daafe3b4186f6b6457e090600090a35050565b605f54610100900460ff16611b805760405162461bcd60e51b815260206004820152602b60248201527f496e697469616c697a61626c653a20636f6e7472616374206973206e6f74206960448201526a6e697469616c697a696e6760a81b60648201526084016107b8565b610cb461259d565b60007f8b73c3c69bb8fe3d512ecc4cf759cc79239f7b179b0ffacaa9a75d522b39400f82600001518051906020012083602001518051906020012084604001518560600151604051602001611c089594939291909485526020850193909352604084019190915260608301526001600160a01b0316608082015260a00190565b604051602081830303815290604052805190602001209050919050565b6101325480156109845760008060008084335af180610b2857600080fd5b60007f376bfbc394a7ba7fdf10f224572cef371358e3053e362f4554fcd2ad56329b3f611c736020850185612e45565b611c836040860160208701613228565b611c936060870160408801612e45565b611ca36080880160608901612e45565b608088013560a0890135611cbd60e08b0160c08c01612e45565b8a60e001358b61010001358c6101200135611ce78e806101400190611ce29190613245565b612611565b8e61016001358f806101800190611cfe919061354b565b604051611d0c929190613592565b604051908190038120611d2e9e9d9c9b9a9998979695949392916020016135a2565b60408051601f1981840301815282825260208301859052910160408051601f1981840301815290829052611d659291602001613642565b6040516020818303038152906040528051906020012090505b92915050565b6000611da781611d976020860186612e45565b6001600160a01b031614156126e4565b600082815261012f6020526040902054611dc49060ff16156126e4565b611dd442846101000135106126e4565b611de483610120013542106126e4565b611ded42612725565b611dfb836101200135612725565b6000611e0a6020850185612e45565b6001600160a01b031614158015611e315750600082815261012f602052604090205460ff16155b8015611e41575042836101000135105b8015611e51575082610120013542105b9392505050565b60008060008060008561010001358761010001351161204457611eaf6040518060400160405280600f81526020017f73656c6c6572206973206d616b6572000000000000000000000000000000000081525061276a565b611ec7611ec26060890160408a01612e45565b6127ad565b61012c546001600160a01b031663874516cd611ee960608a0160408b01612e45565b6040517fffffffff0000000000000000000000000000000000000000000000000000000060e084901b1681526001600160a01b039091166004820152602401602060405180830381865afa158015611f45573d6000803e3d6000fd5b505050506040513d601f19601f82011682018060405250810190611f699190613681565b611fb55760405162461bcd60e51b815260206004820152601960248201527f506f6c696379206973206e6f742077686974656c69737465640000000000000060448201526064016107b8565b611fc56060880160408901612e45565b6001600160a01b031663d5ec8c7788886040518363ffffffff1660e01b8152600401611ff292919061369c565b60a060405180830381865afa15801561200f573d6000803e3d6000fd5b505050506040513d601f19601f8201168201806040525081019061203391906136c1565b9298509096509450925090506121fb565b6120826040518060400160405280600e81526020017f4275796572206973206d616b657200000000000000000000000000000000000081525061276a565b61012c546001600160a01b031663874516cd6120a46060890160408a01612e45565b6040517fffffffff0000000000000000000000000000000000000000000000000000000060e084901b1681526001600160a01b039091166004820152602401602060405180830381865afa158015612100573d6000803e3d6000fd5b505050506040513d601f19601f820116820180604052508101906121249190613681565b6121705760405162461bcd60e51b815260206004820152601960248201527f506f6c696379206973206e6f742077686974656c69737465640000000000000060448201526064016107b8565b6121806060870160408801612e45565b6001600160a01b0316630813a76687896040518363ffffffff1660e01b81526004016121ad92919061369c565b60a060405180830381865afa1580156121ca573d6000803e3d6000fd5b505050506040513d601f19601f820116820180604052508101906121ee91906136c1565b9298509096509450925090505b806122485760405162461bcd60e51b815260206004820152601860248201527f4f72646572732063616e6e6f74206265206d617463686564000000000000000060448201526064016107b8565b5092959194509250565b6001600160a01b03841661232457336001600160a01b038616146122b85760405162461bcd60e51b815260206004820152600e60248201527f43616e6e6f74207573652045544800000000000000000000000000000000000060448201526064016107b8565b8061013254101561230b5760405162461bcd60e51b815260206004820152601260248201527f496e73756666696369656e742076616c7565000000000000000000000000000060448201526064016107b8565b80610132600082825461231e9190613715565b90915550505b600061233384848789866127f5565b90506123736040518060400160405280600b81526020017f5f7472616e73666572546f00000000000000000000000000000000000000000081525061276a565b610f4685878984612910565b6000816001811115612393576123936131fa565b036124145761012b54604051633c4fc9fb60e11b81526001600160a01b03888116600483015287811660248301528681166044830152606482018690529091169063789f93f690608401600060405180830381600087803b1580156123f757600080fd5b505af115801561240b573d6000803e3d6000fd5b505050506124ac565b6001816001811115612428576124286131fa565b036124ac5761012b54604051633a54a01760e11b81526001600160a01b038881166004830152878116602483015286811660448301526064820186905260848201859052909116906374a9402e9060a401600060405180830381600087803b15801561249357600080fd5b505af11580156124a7573d6000803e3d6000fd5b505050505b505050505050565b6001600160a01b0381163b6125315760405162461bcd60e51b815260206004820152602d60248201527f455243313936373a206e657720696d706c656d656e746174696f6e206973206e60448201527f6f74206120636f6e74726163740000000000000000000000000000000000000060648201526084016107b8565b7f360894a13ba1a3210667c828492db98dca3e2076cc3735a920a3ca505d382bbc80546001600160a01b0319166001600160a01b0392909216919091179055565b61257b83612c16565b6000825111806125885750805b15611051576125978383612c56565b50505050565b605f54610100900460ff166126085760405162461bcd60e51b815260206004820152602b60248201527f496e697469616c697a61626c653a20636f6e7472616374206973206e6f74206960448201526a6e697469616c697a696e6760a81b60648201526084016107b8565b610cb433611ac3565b6000808267ffffffffffffffff81111561262d5761262d612e72565b604051908082528060200260200182016040528015612656578160200160208202803683370190505b50905060005b838110156126b357612684858583818110612679576126796131a4565b905060400201612d61565b828281518110612696576126966131a4565b6020908102919091010152806126ab81613728565b91505061265c565b50806040516020016126c59190613741565b6040516020818303038152906040528051906020012091505092915050565b60405181151560248201526109849060440160408051601f198184030181529190526020810180516001600160e01b03166332458eed60e01b179052612dd1565b6109848160405160240161273b91815260200190565b60408051601f198184030181529190526020810180516001600160e01b031663f82c50f160e01b179052612dd1565b6109848160405160240161277e919061307e565b60408051601f198184030181529190526020810180516001600160e01b031663104c13eb60e21b179052612dd1565b6040516001600160a01b03821660248201526109849060440160408051601f198184030181529190526020810180516001600160e01b031663161765e160e11b179052612dd1565b600080805b60ff81168711156128a757600061271089898460ff1681811061281f5761281f6131a4565b6128359260206040909202019081019150613777565b6128439061ffff1687613792565b61284d91906137a9565b905061288787878b8b8660ff16818110612869576128696131a4565b90506040020160200160208101906128819190612e45565b84612910565b6128918184613191565b925050808061289f906131db565b9150506127fa565b50828111156128f85760405162461bcd60e51b815260206004820152601c60248201527f4665657320617265206d6f7265207468616e207468652070726963650000000060448201526064016107b8565b60006129048285613715565b98975050505050505050565b8015612597576001600160a01b038416612a23576001600160a01b03821661297a5760405162461bcd60e51b815260206004820152601860248201527f5472616e7366657220746f207a65726f2061646472657373000000000000000060448201526064016107b8565b6000826001600160a01b03168260405160006040518083038185875af1925050503d80600081146129c7576040519150601f19603f3d011682016040523d82523d6000602084013e6129cc565b606091505b5050905080612a1d5760405162461bcd60e51b815260206004820152601360248201527f455448207472616e73666572206661696c65640000000000000000000000000060448201526064016107b8565b50612597565b61012a546001600160a01b0390811690851603612b0a5761012a546040516323b872dd60e01b81526001600160a01b03858116600483015284811660248301526044820184905260009216906323b872dd906064016020604051808303816000875af1158015612a97573d6000803e3d6000fd5b505050506040513d601f19601f82011682018060405250810190612abb9190613681565b905080612a1d5760405162461bcd60e51b815260206004820152601460248201527f506f6f6c207472616e73666572206661696c656400000000000000000000000060448201526064016107b8565b610129546001600160a01b0390811690851603612bce57612b46604051806040016040528060048152602001630ae8aa8960e31b81525061276a565b612b4f836127ad565b61012b546101295460405163368fa33960e21b81526001600160a01b039182166004820152858216602482015284821660448201526064810184905291169063da3e8ce490608401600060405180830381600087803b158015612bb157600080fd5b505af1158015612bc5573d6000803e3d6000fd5b50505050612597565b60405162461bcd60e51b815260206004820152601560248201527f496e76616c6964207061796d656e7420746f6b656e000000000000000000000060448201526064016107b8565b612c1f816124b4565b6040516001600160a01b038216907fbc7cd75a20ee27fd9adebab32041f755214dbc6bffa90cc0225b39da2e5c2d3b90600090a250565b60606001600160a01b0383163b612cd55760405162461bcd60e51b815260206004820152602660248201527f416464726573733a2064656c65676174652063616c6c20746f206e6f6e2d636f60448201527f6e7472616374000000000000000000000000000000000000000000000000000060648201526084016107b8565b600080846001600160a01b031684604051612cf091906137cb565b600060405180830381855af49150503d8060008114612d2b576040519150601f19603f3d011682016040523d82523d6000602084013e612d30565b606091505b5091509150612d5882826040518060600160405280602781526020016137de60279139612df2565b95945050505050565b60007f05b43f730f67de334a342883f867101fc7ef3361dfdff4a29a7aa97e0920ef7a612d916020840184613777565b612da16040850160208601612e45565b604051602001611c089392919092835261ffff9190911660208301526001600160a01b0316604082015260600190565b80516a636f6e736f6c652e6c6f67602083016000808483855afa5050505050565b60608315612e01575081611e51565b611e518383815115612e165781518083602001fd5b8060405162461bcd60e51b81526004016107b8919061307e565b6001600160a01b038116811461098457600080fd5b600060208284031215612e5757600080fd5b8135611e5181612e30565b8035612e6d81612e30565b919050565b634e487b7160e01b600052604160045260246000fd5b60008060408385031215612e9b57600080fd5b8235612ea681612e30565b9150602083013567ffffffffffffffff80821115612ec357600080fd5b818501915085601f830112612ed757600080fd5b813581811115612ee957612ee9612e72565b604051601f8201601f19908116603f01168101908382118183101715612f1157612f11612e72565b81604052828152886020848701011115612f2a57600080fd5b8260208601602083013760006020848301015280955050505050509250929050565b600060208284031215612f5e57600080fd5b5035919050565b60008060008060008060c08789031215612f7e57600080fd5b8635612f8981612e30565b95506020870135612f9981612e30565b94506040870135612fa981612e30565b93506060870135612fb981612e30565b92506080870135612fc981612e30565b8092505060a087013590509295509295509295565b600060e08284031215612ff057600080fd5b50919050565b6000806040838503121561300957600080fd5b823567ffffffffffffffff8082111561302157600080fd5b61302d86838701612fde565b9350602085013591508082111561304357600080fd5b5061305085828601612fde565b9150509250929050565b60005b8381101561307557818101518382015260200161305d565b50506000910152565b602081526000825180602084015261309d81604085016020870161305a565b601f01601f19169190910160400192915050565b60008083601f8401126130c357600080fd5b50813567ffffffffffffffff8111156130db57600080fd5b6020830191508360208260051b85010111156130f657600080fd5b9250929050565b6000806020838503121561311057600080fd5b823567ffffffffffffffff81111561312757600080fd5b613133858286016130b1565b90969095509350505050565b60006020828403121561315157600080fd5b813567ffffffffffffffff81111561316857600080fd5b82016101a08185031215611e5157600080fd5b634e487b7160e01b600052601160045260246000fd5b80820180821115611d7e57611d7e61317b565b634e487b7160e01b600052603260045260246000fd5b6000823561019e198336030181126131d157600080fd5b9190910192915050565b600060ff821660ff81036131f1576131f161317b565b60010192915050565b634e487b7160e01b600052602160045260246000fd5b6002811061098457600080fd5b8035612e6d81613210565b60006020828403121561323a57600080fd5b8135611e5181613210565b6000808335601e1984360301811261325c57600080fd5b83018035915067ffffffffffffffff82111561327757600080fd5b6020019150600681901b36038213156130f657600080fd5b600281106132ad57634e487b7160e01b600052602160045260246000fd5b9052565b6000808335601e198436030181126132c857600080fd5b830160208101925035905067ffffffffffffffff8111156132e857600080fd5b8060061b36038213156130f657600080fd5b803561ffff81168114612e6d57600080fd5b8183526000602080850194508260005b858110156133605761ffff613330836132fa565b1687528282013561334081612e30565b6001600160a01b031687840152604096870196919091019060010161331c565b509495945050505050565b6000808335601e1984360301811261338257600080fd5b830160208101925035905067ffffffffffffffff8111156133a257600080fd5b8036038213156130f657600080fd5b81835281816020850137506000828201602090810191909152601f909101601f19169091010190565b60006101a06133f9846133ec85612e62565b6001600160a01b03169052565b6134056020840161321d565b613412602086018261328f565b5061341f60408401612e62565b6001600160a01b0316604085015261343960608401612e62565b6001600160a01b0381166060860152506080830135608085015260a083013560a085015261346960c08401612e62565b6001600160a01b031660c085015260e08381013590850152610100808401359085015261012080840135908501526101406134a6818501856132b1565b83838801526134b8848801828461330c565b93505050506101608084013581860152506101806134d88185018561336b565b868403838801526134ea8482846133b1565b979650505050505050565b60808152600061350860808301876133da565b856020840152828103604084015261352081866133da565b91505082606083015295945050505050565b60006020828403121561354457600080fd5b5051919050565b6000808335601e1984360301811261356257600080fd5b83018035915067ffffffffffffffff82111561357d57600080fd5b6020019150368190038213156130f657600080fd5b8183823760009101908152919050565b8e81526001600160a01b038e1660208201526101c081016135c6604083018f61328f565b6001600160a01b038d1660608301526001600160a01b038c1660808301528a60a08301528960c083015261360560e083018a6001600160a01b03169052565b8761010083015286610120830152856101408301528461016083015283610180830152826101a08301529f9e505050505050505050505050505050565b6000835161365481846020880161305a565b83519083019061366881836020880161305a565b01949350505050565b80518015158114612e6d57600080fd5b60006020828403121561369357600080fd5b611e5182613671565b6040815260006136af60408301856133da565b8281036020840152612d5881856133da565b600080600080600060a086880312156136d957600080fd5b6136e286613671565b9450602086015193506040860151925060608601519150608086015161370781613210565b809150509295509295909350565b81810381811115611d7e57611d7e61317b565b60006001820161373a5761373a61317b565b5060010190565b815160009082906020808601845b8381101561376b5781518552938201939082019060010161374f565b50929695505050505050565b60006020828403121561378957600080fd5b611e51826132fa565b8082028115828204841417611d7e57611d7e61317b565b6000826137c657634e487b7160e01b600052601260045260246000fd5b500490565b600082516131d181846020870161305a56fe416464726573733a206c6f772d6c6576656c2064656c65676174652063616c6c206661696c6564a264697066735822122031c95201d168695a58dc7bebff9a0921f8dfc39a10ab30f8aad0ed83cfa6b6d164736f6c63430008110033",
  "linkReferences": {},
  "deployedLinkReferences": {}
}