{
  "_format": "hh-sol-artifact-1",
  "contractName": "BlurPool",
  "sourceName": "contracts/BlurPool.sol",
  "abi": [
    {
      "inputs": [],
      "stateMutability": "nonpayable",
      "type": "constructor"
    },
    {
      "anonymous": false,
      "inputs": [
        {
          "indexed": false,
          "internalType": "address",
          "name": "previousAdmin",
          "type": "address"
        },
        {
          "indexed": false,
          "internalType": "address",
          "name": "newAdmin",
          "type": "address"
        }
      ],
      "name": "AdminChanged",
      "type": "event"
    },
    {
      "anonymous": false,
      "inputs": [
        {
          "indexed": true,
          "internalType": "address",
          "name": "beacon",
          "type": "address"
        }
      ],
      "name": "BeaconUpgraded",
      "type": "event"
    },
    {
      "anonymous": false,
      "inputs": [
        {
          "indexed": false,
          "internalType": "uint8",
          "name": "version",
          "type": "uint8"
        }
      ],
      "name": "Initialized",
      "type": "event"
    },
    {
      "anonymous": false,
      "inputs": [
        {
          "indexed": true,
          "internalType": "address",
          "name": "previousOwner",
          "type": "address"
        },
        {
          "indexed": true,
          "internalType": "address",
          "name": "newOwner",
          "type": "address"
        }
      ],
      "name": "OwnershipTransferred",
      "type": "event"
    },
    {
      "anonymous": false,
      "inputs": [
        {
          "indexed": true,
          "internalType": "address",
          "name": "from",
          "type": "address"
        },
        {
          "indexed": true,
          "internalType": "address",
          "name": "to",
          "type": "address"
        },
        {
          "indexed": false,
          "internalType": "uint256",
          "name": "amount",
          "type": "uint256"
        }
      ],
      "name": "Transfer",
      "type": "event"
    },
    {
      "anonymous": false,
      "inputs": [
        {
          "indexed": true,
          "internalType": "address",
          "name": "implementation",
          "type": "address"
        }
      ],
      "name": "Upgraded",
      "type": "event"
    },
    {
      "inputs": [
        {
          "internalType": "address",
          "name": "user",
          "type": "address"
        }
      ],
      "name": "balanceOf",
      "outputs": [
        {
          "internalType": "uint256",
          "name": "",
          "type": "uint256"
        }
      ],
      "stateMutability": "view",
      "type": "function"
    },
    {
      "inputs": [],
      "name": "decimals",
      "outputs": [
        {
          "internalType": "uint8",
          "name": "",
          "type": "uint8"
        }
      ],
      "stateMutability": "pure",
      "type": "function"
    },
    {
      "inputs": [],
      "name": "deposit",
      "outputs": [],
      "stateMutability": "payable",
      "type": "function"
    },
    {
      "inputs": [],
      "name": "initialize",
      "outputs": [],
      "stateMutability": "nonpayable",
      "type": "function"
    },
    {
      "inputs": [],
      "name": "name",
      "outputs": [
        {
          "internalType": "string",
          "name": "",
          "type": "string"
        }
      ],
      "stateMutability": "view",
      "type": "function"
    },
    {
      "inputs": [],
      "name": "owner",
      "outputs": [
        {
          "internalType": "address",
          "name": "",
          "type": "address"
        }
      ],
      "stateMutability": "view",
      "type": "function"
    },
    {
      "inputs": [],
      "name": "proxiableUUID",
      "outputs": [
        {
          "internalType": "bytes32",
          "name": "",
          "type": "bytes32"
        }
      ],
      "stateMutability": "view",
      "type": "function"
    },
    {
      "inputs": [],
      "name": "renounceOwnership",
      "outputs": [],
      "stateMutability": "nonpayable",
      "type": "function"
    },
    {
      "inputs": [],
      "name": "totalSupply",
      "outputs": [
        {
          "internalType": "uint256",
          "name": "",
          "type": "uint256"
        }
      ],
      "stateMutability": "view",
      "type": "function"
    },
    {
      "inputs": [
        {
          "internalType": "address",
          "name": "from",
          "type": "address"
        },
        {
          "internalType": "address",
          "name": "to",
          "type": "address"
        },
        {
          "internalType": "uint256",
          "name": "amount",
          "type": "uint256"
        }
      ],
      "name": "transferFrom",
      "outputs": [
        {
          "internalType": "bool",
          "name": "",
          "type": "bool"
        }
      ],
      "stateMutability": "nonpayable",
      "type": "function"
    },
    {
      "inputs": [
        {
          "internalType": "address",
          "name": "newOwner",
          "type": "address"
        }
      ],
      "name": "transferOwnership",
      "outputs": [],
      "stateMutability": "nonpayable",
      "type": "function"
    },
    {
      "inputs": [
        {
          "internalType": "address",
          "name": "newImplementation",
          "type": "address"
        }
      ],
      "name": "upgradeTo",
      "outputs": [],
      "stateMutability": "nonpayable",
      "type": "function"
    },
    {
      "inputs": [
        {
          "internalType": "address",
          "name": "newImplementation",
          "type": "address"
        },
        {
          "internalType": "bytes",
          "name": "data",
          "type": "bytes"
        }
      ],
      "name": "upgradeToAndCall",
      "outputs": [],
      "stateMutability": "payable",
      "type": "function"
    },
    {
      "inputs": [
        {
          "internalType": "uint256",
          "name": "amount",
          "type": "uint256"
        }
      ],
      "name": "withdraw",
      "outputs": [],
      "stateMutability": "nonpayable",
      "type": "function"
    },
    {
      "stateMutability": "payable",
      "type": "receive"
    }
  ],
  "bytecode": "0x60a06040523060805234801561001457600080fd5b5061001d610022565b6100e2565b600054610100900460ff161561008e5760405162461bcd60e51b815260206004820152602760248201527f496e697469616c697a61626c653a20636f6e747261637420697320696e697469604482015266616c697a696e6760c81b606482015260840160405180910390fd5b60005460ff90811610156100e0576000805460ff191660ff9081179091556040519081527f7f26b83ff96e1f2b6a682f133852f6798a09c465da95921460cefb38474024989060200160405180910390a15b565b60805161145561011960003960008181610530015281816105b5015281816106ab01528181610730015261081a01526114556000f3fe6080604052600436106100e15760003560e01c806352d1902d1161007f5780638129fc1c116100595780638129fc1c146102705780638da5cb5b14610285578063d0e30db0146102ad578063f2fde38b146102b557600080fd5b806352d1902d1461021057806370a0823114610225578063715018a61461025b57600080fd5b80632e1a7d4d116100bb5780632e1a7d4d146101a1578063313ce567146101c15780633659cfe6146101dd5780634f1ef286146101fd57600080fd5b806306fdde03146100f557806318160ddd1461015457806323b872dd1461017157600080fd5b366100f0576100ee6102d5565b005b600080fd5b34801561010157600080fd5b5061013e6040518060400160405280600981526020017f426c757220506f6f6c000000000000000000000000000000000000000000000081525081565b60405161014b91906111f0565b60405180910390f35b34801561016057600080fd5b50475b60405190815260200161014b565b34801561017d57600080fd5b5061019161018c36600461123f565b610333565b604051901515815260200161014b565b3480156101ad57600080fd5b506100ee6101bc36600461127b565b6103cf565b3480156101cd57600080fd5b506040516012815260200161014b565b3480156101e957600080fd5b506100ee6101f8366004611294565b610526565b6100ee61020b3660046112c5565b6106a1565b34801561021c57600080fd5b5061016361080d565b34801561023157600080fd5b50610163610240366004611294565b6001600160a01b0316600090815260c9602052604090205490565b34801561026757600080fd5b506100ee6108d2565b34801561027c57600080fd5b506100ee6108e6565b34801561029157600080fd5b506033546040516001600160a01b03909116815260200161014b565b6100ee6102d5565b3480156102c157600080fd5b506100ee6102d0366004611294565b610a05565b33600090815260c96020526040812080543492906102f490849061139d565b909155505060405134815233906000907fddf252ad1be2c89b69c2b068fc378daa952ba7f163c4a11628f55a4df523b3ef9060200160405180910390a3565b6000336dad05ccc4f10045630fb830b95127148015906103675750337339da41747a83aee658334415666f3ef92dd0d54114155b156103b95760405162461bcd60e51b815260206004820152601560248201527f556e617574686f72697a6564207472616e73666572000000000000000000000060448201526064015b60405180910390fd5b6103c4848484610a92565b5060015b9392505050565b33600090815260c9602052604090205481111561042e5760405162461bcd60e51b815260206004820152601260248201527f496e73756666696369656e742066756e6473000000000000000000000000000060448201526064016103b0565b33600090815260c960205260408120805483929061044d9084906113b0565b9091555050604051600090339083908381818185875af1925050503d8060008114610494576040519150601f19603f3d011682016040523d82523d6000602084013e610499565b606091505b50509050806104ea5760405162461bcd60e51b815260206004820152600f60248201527f5472616e73666572206661696c6564000000000000000000000000000000000060448201526064016103b0565b60405182815260009033907fddf252ad1be2c89b69c2b068fc378daa952ba7f163c4a11628f55a4df523b3ef9060200160405180910390a35050565b6001600160a01b037f00000000000000000000000000000000000000000000000000000000000000001630036105b35760405162461bcd60e51b815260206004820152602c60248201527f46756e6374696f6e206d7573742062652063616c6c6564207468726f7567682060448201526b19195b1959d85d1958d85b1b60a21b60648201526084016103b0565b7f00000000000000000000000000000000000000000000000000000000000000006001600160a01b031661060e7f360894a13ba1a3210667c828492db98dca3e2076cc3735a920a3ca505d382bbc546001600160a01b031690565b6001600160a01b0316146106795760405162461bcd60e51b815260206004820152602c60248201527f46756e6374696f6e206d7573742062652063616c6c6564207468726f7567682060448201526b6163746976652070726f787960a01b60648201526084016103b0565b61068281610bfe565b6040805160008082526020820190925261069e91839190610c06565b50565b6001600160a01b037f000000000000000000000000000000000000000000000000000000000000000016300361072e5760405162461bcd60e51b815260206004820152602c60248201527f46756e6374696f6e206d7573742062652063616c6c6564207468726f7567682060448201526b19195b1959d85d1958d85b1b60a21b60648201526084016103b0565b7f00000000000000000000000000000000000000000000000000000000000000006001600160a01b03166107897f360894a13ba1a3210667c828492db98dca3e2076cc3735a920a3ca505d382bbc546001600160a01b031690565b6001600160a01b0316146107f45760405162461bcd60e51b815260206004820152602c60248201527f46756e6374696f6e206d7573742062652063616c6c6564207468726f7567682060448201526b6163746976652070726f787960a01b60648201526084016103b0565b6107fd82610bfe565b61080982826001610c06565b5050565b6000306001600160a01b037f000000000000000000000000000000000000000000000000000000000000000016146108ad5760405162461bcd60e51b815260206004820152603860248201527f555550535570677261646561626c653a206d757374206e6f742062652063616c60448201527f6c6564207468726f7567682064656c656761746563616c6c000000000000000060648201526084016103b0565b507f360894a13ba1a3210667c828492db98dca3e2076cc3735a920a3ca505d382bbc90565b6108da610dab565b6108e46000610e05565b565b600054610100900460ff16158080156109065750600054600160ff909116105b806109205750303b158015610920575060005460ff166001145b6109925760405162461bcd60e51b815260206004820152602e60248201527f496e697469616c697a61626c653a20636f6e747261637420697320616c72656160448201527f647920696e697469616c697a656400000000000000000000000000000000000060648201526084016103b0565b6000805460ff1916600117905580156109b5576000805461ff0019166101001790555b6109bd610e64565b801561069e576000805461ff0019169055604051600181527f7f26b83ff96e1f2b6a682f133852f6798a09c465da95921460cefb38474024989060200160405180910390a150565b610a0d610dab565b6001600160a01b038116610a895760405162461bcd60e51b815260206004820152602660248201527f4f776e61626c653a206e6577206f776e657220697320746865207a65726f206160448201527f646472657373000000000000000000000000000000000000000000000000000060648201526084016103b0565b61069e81610e05565b6001600160a01b038216610ae85760405162461bcd60e51b815260206004820152601c60248201527f43616e6e6f74207472616e7366657220746f203020616464726573730000000060448201526064016103b0565b6001600160a01b038316600090815260c96020526040902054811115610b505760405162461bcd60e51b815260206004820152601460248201527f496e73756666696369656e742062616c616e636500000000000000000000000060448201526064016103b0565b6001600160a01b038316600090815260c9602052604081208054839290610b789084906113b0565b90915550506001600160a01b038216600090815260c9602052604081208054839290610ba590849061139d565b92505081905550816001600160a01b0316836001600160a01b03167fddf252ad1be2c89b69c2b068fc378daa952ba7f163c4a11628f55a4df523b3ef83604051610bf191815260200190565b60405180910390a3505050565b61069e610dab565b7f4910fdfa16fed3260ed0e7147f7cc6da11a60208b5b9406d12a635614ffd91435460ff1615610c3e57610c3983610ed7565b505050565b826001600160a01b03166352d1902d6040518163ffffffff1660e01b8152600401602060405180830381865afa925050508015610c98575060408051601f3d908101601f19168201909252610c95918101906113c3565b60015b610d0a5760405162461bcd60e51b815260206004820152602e60248201527f45524331393637557067726164653a206e657720696d706c656d656e7461746960448201527f6f6e206973206e6f74205555505300000000000000000000000000000000000060648201526084016103b0565b7f360894a13ba1a3210667c828492db98dca3e2076cc3735a920a3ca505d382bbc8114610d9f5760405162461bcd60e51b815260206004820152602960248201527f45524331393637557067726164653a20756e737570706f727465642070726f7860448201527f6961626c6555554944000000000000000000000000000000000000000000000060648201526084016103b0565b50610c39838383610fa2565b6033546001600160a01b031633146108e45760405162461bcd60e51b815260206004820181905260248201527f4f776e61626c653a2063616c6c6572206973206e6f7420746865206f776e657260448201526064016103b0565b603380546001600160a01b0383811673ffffffffffffffffffffffffffffffffffffffff19831681179093556040519116919082907f8be0079c531659141344cd1fd0a4f28419497f9722a3daafe3b4186f6b6457e090600090a35050565b600054610100900460ff16610ecf5760405162461bcd60e51b815260206004820152602b60248201527f496e697469616c697a61626c653a20636f6e7472616374206973206e6f74206960448201526a6e697469616c697a696e6760a81b60648201526084016103b0565b6108e4610fcd565b6001600160a01b0381163b610f545760405162461bcd60e51b815260206004820152602d60248201527f455243313936373a206e657720696d706c656d656e746174696f6e206973206e60448201527f6f74206120636f6e74726163740000000000000000000000000000000000000060648201526084016103b0565b7f360894a13ba1a3210667c828492db98dca3e2076cc3735a920a3ca505d382bbc805473ffffffffffffffffffffffffffffffffffffffff19166001600160a01b0392909216919091179055565b610fab83611041565b600082511180610fb85750805b15610c3957610fc78383611081565b50505050565b600054610100900460ff166110385760405162461bcd60e51b815260206004820152602b60248201527f496e697469616c697a61626c653a20636f6e7472616374206973206e6f74206960448201526a6e697469616c697a696e6760a81b60648201526084016103b0565b6108e433610e05565b61104a81610ed7565b6040516001600160a01b038216907fbc7cd75a20ee27fd9adebab32041f755214dbc6bffa90cc0225b39da2e5c2d3b90600090a250565b60606001600160a01b0383163b6111005760405162461bcd60e51b815260206004820152602660248201527f416464726573733a2064656c65676174652063616c6c20746f206e6f6e2d636f60448201527f6e7472616374000000000000000000000000000000000000000000000000000060648201526084016103b0565b600080846001600160a01b03168460405161111b91906113dc565b600060405180830381855af49150503d8060008114611156576040519150601f19603f3d011682016040523d82523d6000602084013e61115b565b606091505b509150915061118382826040518060600160405280602781526020016113f96027913961118e565b925050505b92915050565b6060831561119d5750816103c8565b6103c883838151156111b25781518083602001fd5b8060405162461bcd60e51b81526004016103b091906111f0565b60005b838110156111e75781810151838201526020016111cf565b50506000910152565b602081526000825180602084015261120f8160408501602087016111cc565b601f01601f19169190910160400192915050565b80356001600160a01b038116811461123a57600080fd5b919050565b60008060006060848603121561125457600080fd5b61125d84611223565b925061126b60208501611223565b9150604084013590509250925092565b60006020828403121561128d57600080fd5b5035919050565b6000602082840312156112a657600080fd5b6103c882611223565b634e487b7160e01b600052604160045260246000fd5b600080604083850312156112d857600080fd5b6112e183611223565b9150602083013567ffffffffffffffff808211156112fe57600080fd5b818501915085601f83011261131257600080fd5b813581811115611324576113246112af565b604051601f8201601f19908116603f0116810190838211818310171561134c5761134c6112af565b8160405282815288602084870101111561136557600080fd5b8260208601602083013760006020848301015280955050505050509250929050565b634e487b7160e01b600052601160045260246000fd5b8082018082111561118857611188611387565b8181038181111561118857611188611387565b6000602082840312156113d557600080fd5b5051919050565b600082516113ee8184602087016111cc565b919091019291505056fe416464726573733a206c6f772d6c6576656c2064656c65676174652063616c6c206661696c6564a264697066735822122074bcb2405a8e63d5cfa94b62bf1954c4254580b8ab34bb3823caa1e68658a23864736f6c63430008110033",
  "linkReferences": {},
  "deployedLinkReferences": {}
}