{
  "contractName": "ExchangeV2",
  "abi": [
    {
      "anonymous": false,
      "inputs": [
        {
          "indexed": false,
          "internalType": "bytes32",
          "name": "hash",
          "type": "bytes32"
        }
      ],
      "name": "Cancel",
      "type": "event"
    },
    {
      "anonymous": false,
      "inputs": [
        {
          "indexed": false,
          "internalType": "bytes32",
          "name": "leftHash",
          "type": "bytes32"
        },
        {
          "indexed": false,
          "internalType": "bytes32",
          "name": "rightHash",
          "type": "bytes32"
        },
        {
          "indexed": false,
          "internalType": "uint256",
          "name": "newLeftFill",
          "type": "uint256"
        },
        {
          "indexed": false,
          "internalType": "uint256",
          "name": "newRightFill",
          "type": "uint256"
        }
      ],
      "name": "Match",
      "type": "event"
    },
    {
      "anonymous": false,
      "inputs": [
        {
          "indexed": true,
          "internalType": "bytes4",
          "name": "assetType",
          "type": "bytes4"
        },
        {
          "indexed": false,
          "internalType": "address",
          "name": "matcher",
          "type": "address"
        }
      ],
      "name": "MatcherChange",
      "type": "event"
    },
    {
      "anonymous": false,
      "inputs": [
        {
          "indexed": true,
          "internalType": "address",
          "name": "previousOwner",
          "type": "address"
        },
        {
          "indexed": true,
          "internalType": "address",
          "name": "newOwner",
          "type": "address"
        }
      ],
      "name": "OwnershipTransferred",
      "type": "event"
    },
    {
      "anonymous": false,
      "inputs": [
        {
          "indexed": true,
          "internalType": "bytes4",
          "name": "assetType",
          "type": "bytes4"
        },
        {
          "indexed": false,
          "internalType": "address",
          "name": "proxy",
          "type": "address"
        }
      ],
      "name": "ProxyChange",
      "type": "event"
    },
    {
      "inputs": [
        {
          "components": [
            {
              "internalType": "address",
              "name": "maker",
              "type": "address"
            },
            {
              "components": [
                {
                  "components": [
                    {
                      "internalType": "bytes4",
                      "name": "assetClass",
                      "type": "bytes4"
                    },
                    {
                      "internalType": "bytes",
                      "name": "data",
                      "type": "bytes"
                    }
                  ],
                  "internalType": "struct LibAsset.AssetType",
                  "name": "assetType",
                  "type": "tuple"
                },
                {
                  "internalType": "uint256",
                  "name": "value",
                  "type": "uint256"
                }
              ],
              "internalType": "struct LibAsset.Asset",
              "name": "makeAsset",
              "type": "tuple"
            },
            {
              "internalType": "address",
              "name": "taker",
              "type": "address"
            },
            {
              "components": [
                {
                  "components": [
                    {
                      "internalType": "bytes4",
                      "name": "assetClass",
                      "type": "bytes4"
                    },
                    {
                      "internalType": "bytes",
                      "name": "data",
                      "type": "bytes"
                    }
                  ],
                  "internalType": "struct LibAsset.AssetType",
                  "name": "assetType",
                  "type": "tuple"
                },
                {
                  "internalType": "uint256",
                  "name": "value",
                  "type": "uint256"
                }
              ],
              "internalType": "struct LibAsset.Asset",
              "name": "takeAsset",
              "type": "tuple"
            },
            {
              "internalType": "uint256",
              "name": "salt",
              "type": "uint256"
            },
            {
              "internalType": "uint256",
              "name": "start",
              "type": "uint256"
            },
            {
              "internalType": "uint256",
              "name": "end",
              "type": "uint256"
            },
            {
              "internalType": "bytes4",
              "name": "dataType",
              "type": "bytes4"
            },
            {
              "internalType": "bytes",
              "name": "data",
              "type": "bytes"
            }
          ],
          "internalType": "struct LibOrder.Order",
          "name": "order",
          "type": "tuple"
        }
      ],
      "name": "cancel",
      "outputs": [],
      "stateMutability": "nonpayable",
      "type": "function"
    },
    {
      "inputs": [
        {
          "components": [
            {
              "internalType": "address",
              "name": "bidMaker",
              "type": "address"
            },
            {
              "internalType": "uint256",
              "name": "bidNftAmount",
              "type": "uint256"
            },
            {
              "internalType": "bytes4",
              "name": "nftAssetClass",
              "type": "bytes4"
            },
            {
              "internalType": "bytes",
              "name": "nftData",
              "type": "bytes"
            },
            {
              "internalType": "uint256",
              "name": "bidPaymentAmount",
              "type": "uint256"
            },
            {
              "internalType": "address",
              "name": "paymentToken",
              "type": "address"
            },
            {
              "internalType": "uint256",
              "name": "bidSalt",
              "type": "uint256"
            },
            {
              "internalType": "uint256",
              "name": "bidStart",
              "type": "uint256"
            },
            {
              "internalType": "uint256",
              "name": "bidEnd",
              "type": "uint256"
            },
            {
              "internalType": "bytes4",
              "name": "bidDataType",
              "type": "bytes4"
            },
            {
              "internalType": "bytes",
              "name": "bidData",
              "type": "bytes"
            },
            {
              "internalType": "bytes",
              "name": "bidSignature",
              "type": "bytes"
            },
            {
              "internalType": "uint256",
              "name": "sellOrderPaymentAmount",
              "type": "uint256"
            },
            {
              "internalType": "uint256",
              "name": "sellOrderNftAmount",
              "type": "uint256"
            },
            {
              "internalType": "bytes",
              "name": "sellOrderData",
              "type": "bytes"
            }
          ],
          "internalType": "struct LibDirectTransfer.AcceptBid",
          "name": "direct",
          "type": "tuple"
        }
      ],
      "name": "directAcceptBid",
      "outputs": [],
      "stateMutability": "payable",
      "type": "function"
    },
    {
      "inputs": [
        {
          "components": [
            {
              "internalType": "address",
              "name": "sellOrderMaker",
              "type": "address"
            },
            {
              "internalType": "uint256",
              "name": "sellOrderNftAmount",
              "type": "uint256"
            },
            {
              "internalType": "bytes4",
              "name": "nftAssetClass",
              "type": "bytes4"
            },
            {
              "internalType": "bytes",
              "name": "nftData",
              "type": "bytes"
            },
            {
              "internalType": "uint256",
              "name": "sellOrderPaymentAmount",
              "type": "uint256"
            },
            {
              "internalType": "address",
              "name": "paymentToken",
              "type": "address"
            },
            {
              "internalType": "uint256",
              "name": "sellOrderSalt",
              "type": "uint256"
            },
            {
              "internalType": "uint256",
              "name": "sellOrderStart",
              "type": "uint256"
            },
            {
              "internalType": "uint256",
              "name": "sellOrderEnd",
              "type": "uint256"
            },
            {
              "internalType": "bytes4",
              "name": "sellOrderDataType",
              "type": "bytes4"
            },
            {
              "internalType": "bytes",
              "name": "sellOrderData",
              "type": "bytes"
            },
            {
              "internalType": "bytes",
              "name": "sellOrderSignature",
              "type": "bytes"
            },
            {
              "internalType": "uint256",
              "name": "buyOrderPaymentAmount",
              "type": "uint256"
            },
            {
              "internalType": "uint256",
              "name": "buyOrderNftAmount",
              "type": "uint256"
            },
            {
              "internalType": "bytes",
              "name": "buyOrderData",
              "type": "bytes"
            }
          ],
          "internalType": "struct LibDirectTransfer.Purchase",
          "name": "direct",
          "type": "tuple"
        }
      ],
      "name": "directPurchase",
      "outputs": [],
      "stateMutability": "payable",
      "type": "function"
    },
    {
      "inputs": [
        {
          "internalType": "bytes32",
          "name": "",
          "type": "bytes32"
        }
      ],
      "name": "fills",
      "outputs": [
        {
          "internalType": "uint256",
          "name": "",
          "type": "uint256"
        }
      ],
      "stateMutability": "view",
      "type": "function"
    },
    {
      "inputs": [
        {
          "components": [
            {
              "internalType": "address",
              "name": "maker",
              "type": "address"
            },
            {
              "components": [
                {
                  "components": [
                    {
                      "internalType": "bytes4",
                      "name": "assetClass",
                      "type": "bytes4"
                    },
                    {
                      "internalType": "bytes",
                      "name": "data",
                      "type": "bytes"
                    }
                  ],
                  "internalType": "struct LibAsset.AssetType",
                  "name": "assetType",
                  "type": "tuple"
                },
                {
                  "internalType": "uint256",
                  "name": "value",
                  "type": "uint256"
                }
              ],
              "internalType": "struct LibAsset.Asset",
              "name": "makeAsset",
              "type": "tuple"
            },
            {
              "internalType": "address",
              "name": "taker",
              "type": "address"
            },
            {
              "components": [
                {
                  "components": [
                    {
                      "internalType": "bytes4",
                      "name": "assetClass",
                      "type": "bytes4"
                    },
                    {
                      "internalType": "bytes",
                      "name": "data",
                      "type": "bytes"
                    }
                  ],
                  "internalType": "struct LibAsset.AssetType",
                  "name": "assetType",
                  "type": "tuple"
                },
                {
                  "internalType": "uint256",
                  "name": "value",
                  "type": "uint256"
                }
              ],
              "internalType": "struct LibAsset.Asset",
              "name": "takeAsset",
              "type": "tuple"
            },
            {
              "internalType": "uint256",
              "name": "salt",
              "type": "uint256"
            },
            {
              "internalType": "uint256",
              "name": "start",
              "type": "uint256"
            },
            {
              "internalType": "uint256",
              "name": "end",
              "type": "uint256"
            },
            {
              "internalType": "bytes4",
              "name": "dataType",
              "type": "bytes4"
            },
            {
              "internalType": "bytes",
              "name": "data",
              "type": "bytes"
            }
          ],
          "internalType": "struct LibOrder.Order",
          "name": "orderLeft",
          "type": "tuple"
        },
        {
          "internalType": "bytes",
          "name": "signatureLeft",
          "type": "bytes"
        },
        {
          "components": [
            {
              "internalType": "address",
              "name": "maker",
              "type": "address"
            },
            {
              "components": [
                {
                  "components": [
                    {
                      "internalType": "bytes4",
                      "name": "assetClass",
                      "type": "bytes4"
                    },
                    {
                      "internalType": "bytes",
                      "name": "data",
                      "type": "bytes"
                    }
                  ],
                  "internalType": "struct LibAsset.AssetType",
                  "name": "assetType",
                  "type": "tuple"
                },
                {
                  "internalType": "uint256",
                  "name": "value",
                  "type": "uint256"
                }
              ],
              "internalType": "struct LibAsset.Asset",
              "name": "makeAsset",
              "type": "tuple"
            },
            {
              "internalType": "address",
              "name": "taker",
              "type": "address"
            },
            {
              "components": [
                {
                  "components": [
                    {
                      "internalType": "bytes4",
                      "name": "assetClass",
                      "type": "bytes4"
                    },
                    {
                      "internalType": "bytes",
                      "name": "data",
                      "type": "bytes"
                    }
                  ],
                  "internalType": "struct LibAsset.AssetType",
                  "name": "assetType",
                  "type": "tuple"
                },
                {
                  "internalType": "uint256",
                  "name": "value",
                  "type": "uint256"
                }
              ],
              "internalType": "struct LibAsset.Asset",
              "name": "takeAsset",
              "type": "tuple"
            },
            {
              "internalType": "uint256",
              "name": "salt",
              "type": "uint256"
            },
            {
              "internalType": "uint256",
              "name": "start",
              "type": "uint256"
            },
            {
              "internalType": "uint256",
              "name": "end",
              "type": "uint256"
            },
            {
              "internalType": "bytes4",
              "name": "dataType",
              "type": "bytes4"
            },
            {
              "internalType": "bytes",
              "name": "data",
              "type": "bytes"
            }
          ],
          "internalType": "struct LibOrder.Order",
          "name": "orderRight",
          "type": "tuple"
        },
        {
          "internalType": "bytes",
          "name": "signatureRight",
          "type": "bytes"
        }
      ],
      "name": "matchOrders",
      "outputs": [],
      "stateMutability": "payable",
      "type": "function"
    },
    {
      "inputs": [],
      "name": "owner",
      "outputs": [
        {
          "internalType": "address",
          "name": "",
          "type": "address"
        }
      ],
      "stateMutability": "view",
      "type": "function"
    },
    {
      "inputs": [],
      "name": "renounceOwnership",
      "outputs": [],
      "stateMutability": "nonpayable",
      "type": "function"
    },
    {
      "inputs": [],
      "name": "royaltiesRegistry",
      "outputs": [
        {
          "internalType": "contract IRoyaltiesProvider",
          "name": "",
          "type": "address"
        }
      ],
      "stateMutability": "view",
      "type": "function"
    },
    {
      "inputs": [
        {
          "internalType": "bytes4",
          "name": "assetType",
          "type": "bytes4"
        },
        {
          "internalType": "address",
          "name": "matcher",
          "type": "address"
        }
      ],
      "name": "setAssetMatcher",
      "outputs": [],
      "stateMutability": "nonpayable",
      "type": "function"
    },
    {
      "inputs": [
        {
          "internalType": "contract IRoyaltiesProvider",
          "name": "newRoyaltiesRegistry",
          "type": "address"
        }
      ],
      "name": "setRoyaltiesRegistry",
      "outputs": [],
      "stateMutability": "nonpayable",
      "type": "function"
    },
    {
      "inputs": [
        {
          "internalType": "bytes4",
          "name": "assetType",
          "type": "bytes4"
        },
        {
          "internalType": "address",
          "name": "proxy",
          "type": "address"
        }
      ],
      "name": "setTransferProxy",
      "outputs": [],
      "stateMutability": "nonpayable",
      "type": "function"
    },
    {
      "inputs": [
        {
          "internalType": "address",
          "name": "newOwner",
          "type": "address"
        }
      ],
      "name": "transferOwnership",
      "outputs": [],
      "stateMutability": "nonpayable",
      "type": "function"
    },
    {
      "inputs": [
        {
          "internalType": "address",
          "name": "_transferProxy",
          "type": "address"
        },
        {
          "internalType": "address",
          "name": "_erc20TransferProxy",
          "type": "address"
        },
        {
          "internalType": "uint256",
          "name": "newProtocolFee",
          "type": "uint256"
        },
        {
          "internalType": "address",
          "name": "newDefaultFeeReceiver",
          "type": "address"
        },
        {
          "internalType": "contract IRoyaltiesProvider",
          "name": "newRoyaltiesProvider",
          "type": "address"
        }
      ],
      "name": "__ExchangeV2_init",
      "outputs": [],
      "stateMutability": "nonpayable",
      "type": "function"
    }
  ],
  "bytecode": "0x608060405234801561001057600080fd5b50615465806100206000396000f3fe6080604052600436106100c25760003560e01c80636d8f06941161007f578063b39deb4611610059578063b39deb46146101d1578063e2864fe3146101f1578063e99a3f8014610211578063f2fde38b14610224576100c2565b80636d8f069414610185578063715018a6146101a75780638da5cb5b146101bc576100c2565b80630d5f7d35146100c75780631372a625146100dc57806320158c44146100fc57806330c642f1146101325780633be899221461015257806367d49a3b14610172575b600080fd5b6100da6100d536600461499a565b610244565b005b3480156100e857600080fd5b506100da6100f736600461487b565b610569565b34801561010857600080fd5b5061011c61011736600461492e565b61063d565b6040516101299190614e00565b60405180910390f35b34801561013e57600080fd5b506100da61014d366004614962565b610650565b34801561015e57600080fd5b506100da61016d366004614626565b610720565b6100da61018036600461499a565b6107a5565b34801561019157600080fd5b5061019a610a88565b6040516101299190614d77565b3480156101b357600080fd5b506100da610a98565b3480156101c857600080fd5b5061019a610b44565b3480156101dd57600080fd5b506100da6101ec366004614962565b610b53565b3480156101fd57600080fd5b506100da61020c366004614c55565b610c17565b6100da61021f366004614c87565b610cd8565b34801561023057600080fd5b506100da61023f366004614626565b610cee565b600061025e61025960c0840160a08501614626565b610df1565b6040805161012081019091529091506000908061027e6020860186614626565b6001600160a01b03168152602001604051806040016040528060405180604001604052808860400160208101906102b59190614946565b6001600160e01b03191681526020016102d160608a018a61520d565b8080601f0160208091040260200160405190810160405280939291908181526020018383808284376000920182905250939094525050918352506020888101359281019290925291835282810191909152604080518082018252868152608080890135938201939093529083015260c080870135606084015260e08701359183019190915261010086013560a08301520161037461014086016101208701614946565b6001600160e01b031916815260200161039161014086018661520d565b8080601f01602080910402602001604051908101604052809392919081815260200183838082843760009201829052509390945250506040805161012081018252828152815180830183528781526101808901356020828101919091528201528082018390528151608081018352949550919391925060608084019291829182820191829161042591908c01908c01614946565b6001600160e01b031916815260200161044160608b018b61520d565b8080601f0160208091040260200160405190810160405280939291908181526020018383808284376000920182905250939094525050918352506101a089013560209283015291835282018190526040820181905260608201526080016104b86104b361014088016101208901614946565b610e57565b6001600160e01b03191681526020016104d56101c087018761520d565b8080601f016020809104026020016040519081016040528093929190818152602001838380828437600092019190915250505091525090506105598261051f61016087018761520d565b8080601f016020809104026020016040519081016040528093929190818152602001838380828437600092019190915250610edd92505050565b6105638282610ef4565b50505050565b600054610100900460ff16806105825750610582611152565b80610590575060005460ff16155b6105cb5760405162461bcd60e51b815260040180806020018281038252602e81526020018061539f602e913960400191505060405180910390fd5b600054610100900460ff161580156105f6576000805460ff1961ff0019909116610100171660011790555b6105fe611163565b610606611205565b61061086866112fe565b61061b8484846113a8565b610623611484565b8015610635576000805461ff00191690555b505050505050565b61012f6020526000908152604090205481565b610658611554565b6001600160a01b0316610669610b44565b6001600160a01b0316146106b2576040805162461bcd60e51b81526020600482018190526024820152600080516020615410833981519152604482015290519081900360640190fd5b6001600160e01b031982166000818152609760205260409081902080546001600160a01b0319166001600160a01b038516179055517f4b5aced933c0c9a88aeac3f0b3b72c5aaf75df8ebaf53225773248c4c315359390610714908490614d77565b60405180910390a25050565b610728611554565b6001600160a01b0316610739610b44565b6001600160a01b031614610782576040805162461bcd60e51b81526020600482018190526024820152600080516020615410833981519152604482015290519081900360640190fd5b61016280546001600160a01b0319166001600160a01b0392909216919091179055565b60006107ba61025960c0840160a08501614626565b604080516101208101909152909150600090806107da6020860186614626565b6001600160a01b0316815260200160405180604001604052808581526020018660800135815250815260200160006001600160a01b031681526020016040518060400160405280604051806040016040528088604001602081019061083f9190614946565b6001600160e01b031916815260200161085b60608a018a61520d565b8080601f016020809104026020016040519081016040528093929190818152602001838380828437600092019190915250505091525081526020878101359181019190915290825260c08601359082015260e0850135604082015261010085013560608201526080016108d661014086016101208701614946565b6001600160e01b03191681526020016108f361014086018661520d565b8080601f016020809104026020016040519081016040528093929190818152602001838380828437600092018290525093909452505060408051610120810182528281528151608081018352949550919391925060208301919081908181019081906109659060608c01908c01614946565b6001600160e01b031916815260200161098160608b018b61520d565b8080601f0160208091040260200160405190810160405280939291908181526020018383808284376000920182905250939094525050918352506101a08901356020928301529183528281018290526040805180820182528881526101808a013592810192909252830152606082018190526080820181905260a082015260c001610a176104b361014088016101208901614946565b6001600160e01b0319168152602001610a346101c087018761520d565b8080601f01602080910402602001604051908101604052809392919081815260200183838082843760009201919091525050509152509050610a7e8261051f61016087018761520d565b6105638183610ef4565b610162546001600160a01b031681565b610aa0611554565b6001600160a01b0316610ab1610b44565b6001600160a01b031614610afa576040805162461bcd60e51b81526020600482018190526024820152600080516020615410833981519152604482015290519081900360640190fd5b6033546040516000916001600160a01b0316907f8be0079c531659141344cd1fd0a4f28419497f9722a3daafe3b4186f6b6457e0908390a3603380546001600160a01b0319169055565b6033546001600160a01b031690565b610b5b611554565b6001600160a01b0316610b6c610b44565b6001600160a01b031614610bb5576040805162461bcd60e51b81526020600482018190526024820152600080516020615410833981519152604482015290519081900360640190fd5b6001600160e01b031982166000818152606560205260409081902080546001600160a01b0319166001600160a01b038516179055517fd2bf91075f105d0fd80328da28e20ebdad1c1261839711183bc29a44cbe6c72f90610714908490614d77565b80516001600160a01b0316610c2a611554565b6001600160a01b031614610c595760405162461bcd60e51b8152600401610c509061517d565b60405180910390fd5b6080810151610c7a5760405162461bcd60e51b8152600401610c5090614eff565b6000610c8582611558565b600081815261012f6020526040908190206000199055519091507fe8d9861dbc9c663ed3accd261bbe2fe01e0d3d9e5f51fa38523b265c7757a93a90610ccc908390614e00565b60405180910390a15050565b610ce4848484846116e0565b6105638483610ef4565b610cf6611554565b6001600160a01b0316610d07610b44565b6001600160a01b031614610d50576040805162461bcd60e51b81526020600482018190526024820152600080516020615410833981519152604482015290519081900360640190fd5b6001600160a01b038116610d955760405162461bcd60e51b815260040180806020018281038252602681526020018061530a6026913960400191505060405180910390fd5b6033546040516001600160a01b038084169216907f8be0079c531659141344cd1fd0a4f28419497f9722a3daafe3b4186f6b6457e090600090a3603380546001600160a01b0319166001600160a01b0392909216919091179055565b610df9614190565b610e01614190565b6001600160a01b038316610e1e576355575f5d60e11b8152610e4f565b6322ba176160e21b8152604051610e39908490602001614d77565b60408051601f1981840301815291905260208201525b90505b919050565b60006001600160e01b03198216632fa3cfd360e01b1415610e9957507f1b18cdf6be079a715471a3705c2d89e1d730066ce14915cb307cc3e4a90c92d4610e52565b6001600160e01b03198216630d8c66fb60e11b1415610ed957507f2fa3cfd36fc2a11048e46a7dac1916c392731880ba073f2b7f10566b2fd6133e610e52565b5090565b610ee6826117ac565b610ef08282611876565b5050565b600080610f018484611b32565b915091506000806000610f148787611bcb565b9250925092506000806110796040518060a0016040528060405180604001604052808b8152602001876000015181525081526020018760000151815260200187602001518152602001609760008b600001516001600160e01b0319166001600160e01b031916815260200190815260200160002060009054906101000a90046001600160a01b03166001600160a01b031681526020018b600001516001600160a01b03168152506040518060a0016040528060405180604001604052808b8152602001886020015181525081526020018760000151815260200187602001518152602001609760008b600001516001600160e01b0319166001600160e01b031916815260200190815260200160002060009054906101000a90046001600160a01b03166001600160a01b031681526020018b600001516001600160a01b03168152506110748a600001518a600001518e60e001518e60e001518c8c611c7a565b611cca565b885191935091506001600160e01b0319166355575f5d60e11b14156110f85785516001600160e01b0319166355575f5d60e11b14156110b757600080fd5b813410156110d75760405162461bcd60e51b8152600401610c5090615155565b813411156110f3576110f36110ec3484611dcf565b3390611e31565b611147565b85516001600160e01b0319166355575f5d60e11b141561114757803410156111325760405162461bcd60e51b8152600401610c5090615155565b80341115611147576111476110ec3483611dcf565b505050505050505050565b600061115d30611ece565b15905090565b600054610100900460ff168061117c575061117c611152565b8061118a575060005460ff16155b6111c55760405162461bcd60e51b815260040180806020018281038252602e81526020018061539f602e913960400191505060405180910390fd5b600054610100900460ff161580156111f0576000805460ff1961ff0019909116610100171660011790555b8015611202576000805461ff00191690555b50565b600054610100900460ff168061121e575061121e611152565b8061122c575060005460ff16155b6112675760405162461bcd60e51b815260040180806020018281038252602e81526020018061539f602e913960400191505060405180910390fd5b600054610100900460ff16158015611292576000805460ff1961ff0019909116610100171660011790555b600061129c611554565b603380546001600160a01b0319166001600160a01b038316908117909155604051919250906000907f8be0079c531659141344cd1fd0a4f28419497f9722a3daafe3b4186f6b6457e0908290a3508015611202576000805461ff001916905550565b60976020527f4532fa16f071d6234e30e1a1e69b9806f04095edf37a1ca7a25c8d6af7861cc080546001600160a01b039283166001600160a01b0319918216179091557f30a684095c937b5aa064dcf94f9903a7d808e3efb22d8389dbd43080ad4ed3d5805493909216928116831790915563025ceed960e61b6000527f4b5822151ea34b7c8d9e37c3e466bcecb631efe6a9f26a4a4054110a93dd316f80549091169091179055565b600054610100900460ff16806113c157506113c1611152565b806113cf575060005460ff16155b61140a5760405162461bcd60e51b815260040180806020018281038252602e81526020018061539f602e913960400191505060405180910390fd5b600054610100900460ff16158015611435576000805460ff1961ff0019909116610100171660011790555b61016184905561016380546001600160a01b038086166001600160a01b0319928316179092556101628054928516929091169190911790558015610563576000805461ff001916905550505050565b600054610100900460ff168061149d575061149d611152565b806114ab575060005460ff16155b6114e65760405162461bcd60e51b815260040180806020018281038252602e81526020018061539f602e913960400191505060405180910390fd5b600054610100900460ff16158015611511576000805460ff1961ff0019909116610100171660011790555b6111f06040518060400160405280600881526020016745786368616e676560c01b815250604051806040016040528060018152602001601960f91b815250611ed4565b3390565b60e08101516000906001600160e01b031916632611a13360e11b148061158c575060e08201516001600160e01b0319908116145b156116015781516020830151516115a290611f94565b6060840151516115b190611f94565b846080015160405160200180856001600160a01b03168152602001848152602001838152602001828152602001945050505050604051602081830303815290604052805190602001209050610e52565b815160208301515161161290611f94565b60608401515161162190611f94565b846080015185610100015160405160200180866001600160a01b0316815260200185815260200184815260200183815260200180602001828103825283818151815260200191508051906020019080838360005b8381101561168d578181015183820152602001611675565b50505050905090810190601f1680156116ba5780820380516001836020036101000a031916815260200191505b509650505050505050604051602081830303815290604052805190602001209050610e52565b6116ea8484610edd565b6116f48282610edd565b60408401516001600160a01b0316156117505781516001600160a01b0316156117505783604001516001600160a01b031682600001516001600160a01b0316146117505760405162461bcd60e51b8152600401610c5090615112565b60408201516001600160a01b0316156105635783516001600160a01b0316156105635783600001516001600160a01b031682604001516001600160a01b0316146105635760405162461bcd60e51b8152600401610c5090614fe7565b60a081015115806117c05750428160a00151105b611811576040805162461bcd60e51b815260206004820152601d60248201527f4f726465722073746172742076616c69646174696f6e206661696c6564000000604482015290519081900360640190fd5b60c081015115806118255750428160c00151115b611202576040805162461bcd60e51b815260206004820152601b60248201527f4f7264657220656e642076616c69646174696f6e206661696c65640000000000604482015290519081900360640190fd5b60808201516118fb5781516001600160a01b0316156118f65781516001600160a01b03166118a2611554565b6001600160a01b0316146118f6576040805162461bcd60e51b815260206004820152601660248201527536b0b5b2b91034b9903737ba103a3c1039b2b73232b960511b604482015290519081900360640190fd5b610ef0565b81516001600160a01b031661190e611554565b6001600160a01b031614610ef057600061192783611ffe565b9050600082516041141561194b5761194883611942846120ee565b9061213a565b90505b83516001600160a01b03828116911614611aeb578351611973906001600160a01b0316611ece565b15611aaf578351630b135d3f60e11b906001600160a01b0316631626ba7e61199a856120ee565b866040518363ffffffff1660e01b81526004018083815260200180602001828103825283818151815260200191508051906020019080838360005b838110156119ed5781810151838201526020016119d5565b50505050905090810190601f168015611a1a5780820380516001836020036101000a031916815260200191505b50935050505060206040518083038186803b158015611a3857600080fd5b505afa158015611a4c573d6000803e3d6000fd5b505050506040513d6020811015611a6257600080fd5b50516001600160e01b03191614611aaa5760405162461bcd60e51b815260040180806020018281038252602b815260200180615374602b913960400191505060405180910390fd5b611ae6565b60405162461bcd60e51b81526004018080602001828103825260228152602001806153526022913960400191505060405180910390fd5b610563565b83516001600160a01b0316610563576040805162461bcd60e51b815260206004820152600860248201526737379036b0b5b2b960c11b604482015290519081900360640190fd5b611b3a614190565b611b42614190565b602084015151606084015151611b5891906121ba565b80519092506001600160e01b031916611b835760405162461bcd60e51b8152600401610c50906150e6565b606084015151602084015151611b9991906121ba565b80519091506001600160e01b031916611bc45760405162461bcd60e51b8152600401610c50906150e6565b9250929050565b611bd36141a8565b611bdb6141a8565b611be36141d2565b6000611bee86611558565b90506000611bfb86611558565b90506000611c07611554565b88519091506001600160a01b0316611c26576001600160a01b03811688525b86516001600160a01b0316611c42576001600160a01b03811687525b611c4b886121fa565b9550611c56876121fa565b9450611c6e888885858a604001518a604001516123e3565b93505050509250925092565b611c826141ec565b611c8c8787612547565b81602001906002811115611c9c57fe5b90816002811115611ca957fe5b81525050611cbe858585858560200151612618565b81529695505050505050565b8251602090810151835190910151600183602001516002811115611cea57fe5b1415611d2f57611cff858585600001516127ce565b9150611d2a846000015160000151856000015160200151866080015188602001518860600151612a1d565b611dc7565b600283602001516002811115611d4157fe5b1415611d8157611d56848685600001516127ce565b9050611d2a856000015160000151866000015160200151876080015187602001518960600151612a1d565b845180516020918201516080880151928701516060890151611da4949190612a1d565b835180516020918201516080870151928801516060880151611dc7949190612a1d565b935093915050565b600082821115611e26576040805162461bcd60e51b815260206004820152601e60248201527f536166654d6174683a207375627472616374696f6e206f766572666c6f770000604482015290519081900360640190fd5b508082035b92915050565b6040516000906001600160a01b0384169083908381818185875af1925050503d8060008114611e7c576040519150601f19603f3d011682016040523d82523d6000602084013e611e81565b606091505b5050905080611ec9576040805162461bcd60e51b815260206004820152600f60248201526e1d1c985b9cd9995c8819985a5b1959608a1b604482015290519081900360640190fd5b505050565b3b151590565b600054610100900460ff1680611eed5750611eed611152565b80611efb575060005460ff16155b611f365760405162461bcd60e51b815260040180806020018281038252602e81526020018061539f602e913960400191505060405180910390fd5b600054610100900460ff16158015611f61576000805460ff1961ff0019909116610100171660011790555b825160208085019190912083519184019190912060c99190915560ca558015611ec9576000805461ff0019169055505050565b8051602091820151805190830120604080517f452a0dc408cb0d27ffc3b3caff933a5208040a53a9dbecd8d89cad2c0d40e00c818601526001600160e01b031990931683820152606080840192909252805180840390920182526080909201909152805191012090565b60007f477ed43b8020849b755512278536c3766a3b4ab547519949a75f483372493f8d82600001516120338460200151612ba1565b84604001516120458660600151612ba1565b86608001518760a001518860c001518960e001518a610100015180519060200120604051602001808b81526020018a6001600160a01b03168152602001898152602001886001600160a01b03168152602001878152602001868152602001858152602001848152602001836001600160e01b03191681526020018281526020019a5050505050505050505050604051602081830303815290604052805190602001209050919050565b60006120f8612c11565b82604051602001808061190160f01b81525060020183815260200182815260200192505050604051602081830303815290604052805190602001209050919050565b60008151604114612192576040805162461bcd60e51b815260206004820152601f60248201527f45434453413a20696e76616c6964207369676e6174757265206c656e67746800604482015290519081900360640190fd5b60208201516040830151606084015160001a6121b086828585612c51565b9695505050505050565b6121c2614190565b60006121ce8484612e9e565b80519091506001600160e01b0319166121f3576121eb8385612e9e565b915050611e2b565b9050611e2b565b6122026141a8565b60e08201516001600160e01b031916632611a13360e11b141561224357600061222f8361010001516130ba565b8051835260209081015190830152506123ca565b60e08201516001600160e01b0319166323d235ef60e01b14156122905760006122708361010001516130d6565b8051835260208082015190840152604090810151151590830152506123ca565b60e08201516001600160e01b031916632fa3cfd360e01b14156122fd5760006122bd8361010001516130f2565b90506122cc816000015161310e565b8252602081015160408201516122e29190613171565b602083015260016040830152606090810151908201526123ca565b60e08201516001600160e01b031916630d8c66fb60e11b141561236157600061232a8361010001516132d4565b9050612339816000015161310e565b82526020810151604082015161234f9190613171565b602083015250600060408201526123ca565b60e08201516001600160e01b0319908116141561237d576123ca565b6040805162461bcd60e51b815260206004820152601760248201527f556e6b6e6f776e204f7264657220646174612074797065000000000000000000604482015290519081900360640190fd5b805151610e525781516123dc906132f0565b8152919050565b6123eb6141d2565b60006123fb88608001518761338b565b9050600061240d88608001518761338b565b9050600061241f8a8a85858a8a6133b0565b9050600081602001511180156124355750805115155b6124515760405162461bcd60e51b8152600401610c5090615057565b60808a0151156124a457851561248357805161246e908490613436565b600089815261012f60205260409020556124a4565b6020810151612493908490613436565b600089815261012f60205260409020555b6080890151156124f75784156124d95760208101516124c4908390613436565b600088815261012f60205260409020556124f7565b80516124e6908390613436565b600088815261012f60205260409020555b602081015181516040517f956cd63ee4cdcd81fda5f0ec7c6c36dceda99e1b412f4a650a5d26055dc3c45092612532928c928c929190614e09565b60405180910390a19998505050505050505050565b60006001600160e01b031983166355575f5d60e11b141561256a57506001611e2b565b6001600160e01b031982166355575f5d60e11b141561258b57506002611e2b565b6001600160e01b031983166322ba176160e21b14156125ac57506001611e2b565b6001600160e01b031982166322ba176160e21b14156125cd57506002611e2b565b6001600160e01b0319831663025ceed960e61b14156125ee57506001611e2b565b6001600160e01b0319821663025ceed960e61b141561260f57506002611e2b565b50600092915050565b60006001600160e01b03198616632fa3cfd360e01b1480159061264c57506001600160e01b03198516632fa3cfd360e01b14155b801561266957506001600160e01b03198616630d8c66fb60e11b14155b801561268657506001600160e01b03198516630d8c66fb60e11b14155b15612693575060006127c5565b60006126a785602001518560200151613490565b9050600060018460028111156126b957fe5b1415612716575060608401516001600160e01b03198816630d8c66fb60e11b1480156126f557506001600160e01b03198716632fa3cfd360e01b145b6127115760405162461bcd60e51b8152600401610c5090614f2d565b612787565b600284600281111561272457fe5b141561277c575060608501516001600160e01b03198716630d8c66fb60e11b14801561276057506001600160e01b03198816632fa3cfd360e01b145b6127115760405162461bcd60e51b8152600401610c5090614fbf565b6000925050506127c5565b6000811180156127975750818110155b80156127a557506103e88111155b6127c15760405162461bcd60e51b8152600401610c5090614f99565b9150505b95945050505050565b60006127e784600001516020015185604001518461350f565b84518051855151602080880151930151608089015160608a0151959650869561281495928792909161357b565b9050846040015151600114801561283057508360400151516001145b80156128855750846040015160008151811061284857fe5b6020026020010151600001516001600160a01b0316846040015160008151811061286e57fe5b6020026020010151600001516001600160a01b0316145b1561299b57604080516001808252818301909252600091816020015b6128a96141ec565b8152602001906001900390816128a157905050905084604001516000815181106128cf57fe5b602002602001015160000151816000815181106128e857fe5b60209081029190910101516001600160a01b0390911690526040860151805160009061291057fe5b602002602001015160200151856040015160008151811061292d57fe5b602002602001015160200151018160008151811061294757fe5b6020026020010151602001906001600160601b031690816001600160601b03168152505061299186600001516000015183886000015160200151848a608001518b60600151613680565b5091506129f49050565b6129c585600001516000015182876000015160200151886040015189608001518a60600151613680565b50855180516020909101516040870151608089015160608a01519495506129f0948693929190613680565b5090505b612a1585600001516000015182876080015187602001518960600151612a1d565b509392505050565b6000825111612a3e5760405162461bcd60e51b8152600401610c5090614f55565b600084815b6001855103811015612b0d576000612a84868381518110612a6057fe5b6020026020010151602001516001600160601b03168961373590919063ffffffff16565b9050612ab9868381518110612a9557fe5b6020026020010151602001516001600160601b03168561343690919063ffffffff16565b93508015612b0457612acb8382611dcf565b9250612b0460405180604001604052808b81526020018381525088888581518110612af257fe5b6020026020010151600001518861374d565b50600101612a43565b50600084600186510381518110612b2057fe5b60200260200101519050612b4a81602001516001600160601b03168461343690919063ffffffff16565b92508261271014612b6d5760405162461bcd60e51b8152600401610c50906150af565b8115612b9757612b9760405180604001604052808a8152602001848152508783600001518761374d565b5050505050505050565b60007fdb6f72e915676cfc289da13bc4ece054fd17b1df6d77ffc4a60510718c236b08612bd18360000151611f94565b8360200151604051602001808481526020018381526020018281526020019350505050604051602081830303815290604052805190602001209050919050565b6000612c4c7f8b73c3c69bb8fe3d512ecc4cf759cc79239f7b179b0ffacaa9a75d522b39400f612c3f613b50565b612c47613b56565b613b5c565b905090565b60007f7fffffffffffffffffffffffffffffff5d576e7357a4501ddfe92f46681b20a0821115612cb25760405162461bcd60e51b81526004018080602001828103825260228152602001806153306022913960400191505060405180910390fd5b6000601e8560ff161115612d8c576004850360ff16601b1480612cdb57506004850360ff16601c145b612d165760405162461bcd60e51b81526004018080602001828103825260228152602001806153cd6022913960400191505060405180910390fd5b6001612d2187613bbe565b60048703868660405160008152602001604052604051808581526020018460ff1681526020018381526020018281526020019450505050506020604051602081039080840390855afa158015612d7b573d6000803e3d6000fd5b505050602060405103519050612e43565b8460ff16601b1480612da157508460ff16601c145b612ddc5760405162461bcd60e51b81526004018080602001828103825260228152602001806153cd6022913960400191505060405180910390fd5b60018686868660405160008152602001604052604051808581526020018460ff1681526020018381526020018281526020019450505050506020604051602081039080840390855afa158015612e36573d6000803e3d6000fd5b5050506020604051035190505b6001600160a01b0381166127c5576040805162461bcd60e51b815260206004820152601860248201527f45434453413a20696e76616c6964207369676e61747572650000000000000000604482015290519081900360640190fd5b612ea6614190565b825182516001600160e01b031982166355575f5d60e11b1415612f11576001600160e01b031981166355575f5d60e11b1415612ee6578492505050611e2b565b5050604080518082018252600080825282516020818101909452908152918101919091529050611e2b565b6001600160e01b031982166322ba176160e21b1415612f56576001600160e01b031981166322ba176160e21b1415612ee657612f4d8585613c0f565b92505050611e2b565b6001600160e01b031982166339d690a360e11b1415612f92576001600160e01b031981166339d690a360e11b1415612ee657612f4d8585613c0f565b6001600160e01b0319821663025ceed960e61b1415612fce576001600160e01b0319811663025ceed960e61b1415612ee657612f4d8585613c0f565b6001600160e01b031982166000908152606560205260409020546001600160a01b03168015613083576040516306d3f7cb60e41b81526001600160a01b03821690636d3f7cb09061302590899089906004016151a2565b60006040518083038186803b15801561303d57600080fd5b505afa158015613051573d6000803e3d6000fd5b505050506040513d6000823e601f3d908101601f1916820160405261307991908101906149cc565b9350505050611e2b565b6001600160e01b031983811690831614156130a2576130798686613c0f565b60405162461bcd60e51b8152600401610c5090614e91565b6130c2614203565b81806020019051810190611e2b9190614a57565b6130de61421d565b81806020019051810190611e2b9190614ae3565b6130fa614240565b81806020019051810190611e2b9190614bed565b6060808215610e4f5760408051600180825281830190925290816020015b6131346141ec565b81526020019060019003908161312c57905050905061315283613c6c565b8160008151811061315f57fe5b60200260200101819052509050919050565b6060806000841180156131845750600083115b156131ff576040805160028082526060820190925290816020015b6131a76141ec565b81526020019060019003908161319f5790505090506131c584613c6c565b816000815181106131d257fe5b60200260200101819052506131e683613c6c565b816001815181106131f357fe5b60200260200101819052505b60008411801561320d575082155b156132665760408051600180825281830190925290816020015b61322f6141ec565b81526020019060019003908161322757905050905061324d84613c6c565b8160008151811061325a57fe5b60200260200101819052505b831580156132745750600083115b156132cd5760408051600180825281830190925290816020015b6132966141ec565b81526020019060019003908161328e5790505090506132b483613c6c565b816000815181106132c157fe5b60200260200101819052505b9392505050565b6132dc614272565b81806020019051810190611e2b9190614b8f565b60408051600180825281830190925260609160009190816020015b6133136141ec565b81526020019060019003908161330b579050509050828160008151811061333657fe5b6020026020010151600001906001600160a01b031690816001600160a01b0316815250506127108160008151811061336a57fe5b6020908102919091018101516001600160601b039092169101529050919050565b60008261339a57506000611e2b565b50600090815261012f6020526040902054919050565b6133b86141d2565b6000806133c6898887613c94565b915091506000806133d88a8988613c94565b915091508381111561340b5761340084848c60200151602001518d6060015160200151613d0d565b9450505050506121b0565b6134278b60200151602001518c60600151602001518484613d92565b9b9a5050505050505050505050565b6000828201838110156132cd576040805162461bcd60e51b815260206004820152601b60248201527f536166654d6174683a206164646974696f6e206f766572666c6f770000000000604482015290519081900360640190fd5b600080805b84518110156134d0578481815181106134aa57fe5b6020026020010151602001516001600160601b0316820191508080600101915050613495565b5060005b8351811015612a15578381815181106134e957fe5b6020026020010151602001516001600160601b03168201915080806001019150506134d4565b6000811561351e5750826132cd565b8360005b84518110156135725761356861356186838151811061353d57fe5b6020026020010151602001516001600160601b03168861373590919063ffffffff16565b8390613436565b9150600101613522565b50949350505050565b60008061358788613e18565b90508051600114801561359b575086516001145b80156135e85750866000815181106135af57fe5b6020026020010151600001516001600160a01b0316816000815181106135d157fe5b6020026020010151600001516001600160a01b0316145b1561363957611388816000815181106135fd57fe5b6020026020010151602001516001600160601b031611156136305760405162461bcd60e51b8152600401610c5090614ec8565b85915050613675565b60008061364a8b8989868a8a613680565b915091506113888111156136705760405162461bcd60e51b8152600401610c5090614ec8565b509150505b979650505050505050565b846000805b8551811015613729576136c186828151811061369d57fe5b6020026020010151602001516001600160601b03168361343690919063ffffffff16565b915060006136f084898985815181106136d657fe5b6020026020010151602001516001600160601b0316613f8d565b909450905080156137205761372060405180604001604052808c81526020018381525087898581518110612af257fe5b50600101613685565b50965096945050505050565b60006132cd6127106137478585613faf565b90614008565b8351516001600160e01b0319166339d690a360e11b141561389357600080856000015160200151806020019051810190613787919061484e565b9150915085602001516001146137af5760405162461bcd60e51b8152600401610c509061502b565b6001600160a01b03851630141561382757604051632142170760e11b81526001600160a01b038316906342842e0e906137f090309088908690600401614d8b565b600060405180830381600087803b15801561380a57600080fd5b505af115801561381e573d6000803e3d6000fd5b5050505061388c565b604051637b84dc8360e11b81526001600160a01b0384169063f709b90690613859908590899089908790600401614e67565b600060405180830381600087803b15801561387357600080fd5b505af1158015613887573d6000803e3d6000fd5b505050505b5050610563565b8351516001600160e01b0319166322ba176160e21b14156139f15760008460000151602001518060200190518101906138cc9190614642565b90506001600160a01b03841630141561398357602085015160405163a9059cbb60e01b81526001600160a01b0383169163a9059cbb91613910918791600401614de7565b602060405180830381600087803b15801561392a57600080fd5b505af115801561393e573d6000803e3d6000fd5b505050506040513d601f19601f820116820180604052508101906139629190614914565b61397e5760405162461bcd60e51b8152600401610c5090615080565b6139eb565b602085015160405163776062c360e01b81526001600160a01b0384169163776062c3916139b891859189918991600401614e67565b600060405180830381600087803b1580156139d257600080fd5b505af11580156139e6573d6000803e3d6000fd5b505050505b50610563565b8351516001600160e01b03191663025ceed960e61b1415613aae57600080856000015160200151806020019051810190613a2b919061484e565b90925090506001600160a01b038516301415613a76576020860151604051637921219560e11b81526001600160a01b0384169163f242432a916137f091309189918791600401614daf565b6020860151604051639c1c2ee960e01b81526001600160a01b03851691639c1c2ee9916138599186918a918a91889190600401614e24565b8351516001600160e01b0319166355575f5d60e11b1415613af2576001600160a01b0382163014611ae6576020840151611ae6906001600160a01b03841690611e31565b6040516354bc0cf160e01b81526001600160a01b038216906354bc0cf190613b22908790879087906004016151c7565b600060405180830381600087803b158015613b3c57600080fd5b505af1158015612b97573d6000803e3d6000fd5b60c95490565b60ca5490565b6000838383613b6961406f565b3060405160200180868152602001858152602001848152602001838152602001826001600160a01b03168152602001955050505050506040516020818303038152906040528051906020012090509392505050565b604080517f19457468657265756d205369676e6564204d6573736167653a0a333200000000602080830191909152603c8083019490945282518083039094018452605c909101909152815191012090565b613c17614190565b60208084015180519082012083820151805192019190912080821415613c41578492505050611e2b565b5050604080518082018252600080825282516020808201909452908152918101919091529392505050565b613c746141ec565b8115610e52576001600160a01b038216815260a09190911c602082015290565b6000808215613cd3576020808601510151613caf9085611dcf565b9150613ccc85606001516020015186602001516020015184614073565b9050611dc7565b606085015160200151613ce69085611dcf565b9050613d0385602001516020015186606001516020015183614073565b9150935093915050565b613d156141d2565b6000613d22858585614073565b905085811115613d79576040805162461bcd60e51b815260206004820152601860248201527f66696c6c4c6566743a20756e61626c6520746f2066696c6c0000000000000000604482015290519081900360640190fd5b5050604080518082019091529384525050602082015290565b613d9a6141d2565b6000613da7838787614073565b905083811115613dfe576040805162461bcd60e51b815260206004820152601960248201527f66696c6c52696768743a20756e61626c6520746f2066696c6c00000000000000604482015290519081900360640190fd5b604080518082019091529283526020830152509392505050565b80516060906001600160e01b03191663025ceed960e61b1480613e4c575081516001600160e01b0319166339d690a360e11b145b15613f02576000808360200151806020019051810190613e6c919061484e565b61016254604051634e53ee3d60e11b81529294509092506001600160a01b031690639ca7dc7a90613ea39085908590600401614de7565b600060405180830381600087803b158015613ebd57600080fd5b505af1158015613ed1573d6000803e3d6000fd5b505050506040513d6000823e601f3d908101601f19168201604052613ef991908101906148e2565b92505050610e52565b81516001600160e01b03191662737ea960e61b1415613f435760008260200151806020019051810190613f35919061465e565b608001519250610e52915050565b81516001600160e01b03191663d8f960c160e01b1415613f855760008260200151806020019051810190613f77919061475b565b606001519250610e52915050565b506060919050565b600080613fa385613f9e8686613735565b6140d9565b91509150935093915050565b600082613fbe57506000611e2b565b82820282848281613fcb57fe5b04146132cd5760405162461bcd60e51b81526004018080602001828103825260218152602001806153ef6021913960400191505060405180910390fd5b600080821161405e576040805162461bcd60e51b815260206004820152601a60248201527f536166654d6174683a206469766973696f6e206279207a65726f000000000000604482015290519081900360640190fd5b81838161406757fe5b049392505050565b4690565b6000614080848484614101565b156140c3576040805162461bcd60e51b815260206004820152600e60248201526d3937bab73234b7339032b93937b960911b604482015290519081900360640190fd5b6140d1836137478685613faf565b949350505050565b600080828411156140f8576140ee8484611dcf565b9150829050611bc4565b50600093915050565b600082614148576040805162461bcd60e51b815260206004820152601060248201526f6469766973696f6e206279207a65726f60801b604482015290519081900360640190fd5b811580614153575083155b15614160575060006132cd565b6000838061416a57fe5b85840990506141798584613faf565b614185826103e8613faf565b101595945050505050565b60408051808201909152600081526060602082015290565b60405180608001604052806060815260200160608152602001600015158152602001600081525090565b604051806040016040528060008152602001600081525090565b604080518082019091526000808252602082015290565b604051806040016040528060608152602001606081525090565b604051806060016040528060608152602001606081526020016000151581525090565b6040518060a0016040528060008152602001600081526020016000815260200160008152602001600080191681525090565b6040518060800160405280600081526020016000815260200160008152602001600080191681525090565b8035610e52816152de565b600082601f8301126142b8578081fd5b815160206142cd6142c883615274565b615251565b82815281810190858301855b85811015614302576142f0898684518b0101614431565b845292840192908401906001016142d9565b5090979650505050505050565b600082601f83011261431f578081fd5b8151602061432f6142c883615274565b8281528181019085830160408086028801850189101561434d578687fd5b865b868110156143bc5781838b031215614365578788fd5b81518281018181106001600160401b038211171561437f57fe5b8352835161438c816152de565b8152838701516001600160601b03811681146143a657898afd5b818801528552938501939181019160010161434f565b509198975050505050505050565b80518015158114610e5257600080fd5b8035610e52816152f3565b600082601f8301126143f5578081fd5b81356144036142c882615291565b818152846020838601011115614417578283fd5b816020850160208301379081016020019190915292915050565b600082601f830112614441578081fd5b815161444f6142c882615291565b818152846020838601011115614463578283fd5b6140d18260208301602087016152b2565b60006101e08284031215614486578081fd5b50919050565b6000604080838503121561449e578182fd5b80518181016001600160401b0382821081831117156144b957fe5b8184528294508535818111156144ce57600080fd5b86018088038513156144df57600080fd5b6080840183811083821117156144f157fe5b909452833593614500856152f3565b9382526020840135938185111561451657600080fd5b614522888683016143e5565b60608501525050815260209384013593019290925292915050565b6000610120808385031215614550578182fd5b61455981615251565b9150506145658261429d565b815260208201356001600160401b038082111561458157600080fd5b61458d8583860161448c565b602084015261459e6040850161429d565b604084015260608401359150808211156145b757600080fd5b6145c38583860161448c565b60608401526080840135608084015260a084013560a084015260c084013560c08401526145f260e085016143da565b60e08401526101009150818401358181111561460d57600080fd5b614619868287016143e5565b8385015250505092915050565b600060208284031215614637578081fd5b81356132cd816152de565b600060208284031215614653578081fd5b81516132cd816152de565b60008060408385031215614670578081fd5b825161467b816152de565b60208401519092506001600160401b0380821115614697578283fd5b9084019060c082870312156146aa578283fd5b6146b460c0615251565b825181526020830151828111156146c9578485fd5b6146d588828601614431565b602083015250604083015160408201526060830151828111156146f6578485fd5b6147028882860161430f565b606083015250608083015182811115614719578485fd5b6147258882860161430f565b60808301525060a08301518281111561473c578485fd5b614748888286016142a8565b60a0830152508093505050509250929050565b6000806040838503121561476d578182fd5b8251614778816152de565b60208401519092506001600160401b0380821115614794578283fd5b9084019060a082870312156147a7578283fd5b6147b160a0615251565b825181526020830151828111156147c6578485fd5b6147d288828601614431565b6020830152506040830151828111156147e9578485fd5b6147f58882860161430f565b60408301525060608301518281111561480c578485fd5b6148188882860161430f565b60608301525060808301518281111561482f578485fd5b61483b888286016142a8565b6080830152508093505050509250929050565b60008060408385031215614860578182fd5b825161486b816152de565b6020939093015192949293505050565b600080600080600060a08688031215614892578081fd5b853561489d816152de565b945060208601356148ad816152de565b93506040860135925060608601356148c4816152de565b915060808601356148d4816152de565b809150509295509295909350565b6000602082840312156148f3578081fd5b81516001600160401b03811115614908578182fd5b6140d18482850161430f565b600060208284031215614925578081fd5b6132cd826143ca565b60006020828403121561493f578081fd5b5035919050565b600060208284031215614957578081fd5b81356132cd816152f3565b60008060408385031215614974578182fd5b823561497f816152f3565b9150602083013561498f816152de565b809150509250929050565b6000602082840312156149ab578081fd5b81356001600160401b038111156149c0578182fd5b6140d184828501614474565b6000602082840312156149dd578081fd5b81516001600160401b03808211156149f3578283fd5b9083019060408286031215614a06578283fd5b604051604081018181108382111715614a1b57fe5b6040528251614a29816152f3565b8152602083015182811115614a3c578485fd5b614a4887828601614431565b60208301525095945050505050565b600060208284031215614a68578081fd5b81516001600160401b0380821115614a7e578283fd5b9083019060408286031215614a91578283fd5b604051604081018181108382111715614aa657fe5b604052825182811115614ab7578485fd5b614ac38782860161430f565b825250602083015182811115614ad7578485fd5b614a488782860161430f565b600060208284031215614af4578081fd5b81516001600160401b0380821115614b0a578283fd5b9083019060608286031215614b1d578283fd5b604051606081018181108382111715614b3257fe5b604052825182811115614b43578485fd5b614b4f8782860161430f565b825250602083015182811115614b63578485fd5b614b6f8782860161430f565b602083015250614b81604084016143ca565b604082015295945050505050565b600060808284031215614ba0578081fd5b604051608081018181106001600160401b0382111715614bbc57fe5b8060405250825181526020830151602082015260408301516040820152606083015160608201528091505092915050565b600060a08284031215614bfe578081fd5b60405160a081018181106001600160401b0382111715614c1a57fe5b806040525082518152602083015160208201526040830151604082015260608301516060820152608083015160808201528091505092915050565b600060208284031215614c66578081fd5b81356001600160401b03811115614c7b578182fd5b6140d18482850161453d565b60008060008060808587031215614c9c578182fd5b84356001600160401b0380821115614cb2578384fd5b614cbe8883890161453d565b95506020870135915080821115614cd3578384fd5b614cdf888389016143e5565b94506040870135915080821115614cf4578384fd5b614d008883890161453d565b93506060870135915080821115614d15578283fd5b50614d22878288016143e5565b91505092959194509250565b600063ffffffff60e01b82511683526020820151604060208501528051806040860152614d628160608701602085016152b2565b601f01601f1916939093016060019392505050565b6001600160a01b0391909116815260200190565b6001600160a01b039384168152919092166020820152604081019190915260600190565b6001600160a01b0394851681529290931660208301526040820152606081019190915260a06080820181905260009082015260c00190565b6001600160a01b03929092168252602082015260400190565b90815260200190565b93845260208401929092526040830152606082015260800190565b6001600160a01b03958616815293851660208501529190931660408301526060820192909252608081019190915260c060a0820181905260009082015260e00190565b6001600160a01b039485168152928416602084015292166040820152606081019190915260800190565b60208082526017908201527f6e6f7420666f756e64204941737365744d617463686572000000000000000000604082015260600190565b6020808252601d908201527f526f79616c746965732061726520746f6f206869676820283e35302529000000604082015260600190565b6020808252601490820152730c081cd85b1d0818d85b89dd081899481d5cd95960621b604082015260600190565b6020808252600e908201526d77726f6e6720563320747970653160901b604082015260600190565b60208082526024908201527f7472616e736665725061796f7574733a206e6f7468696e6720746f207472616e60408201526339b332b960e11b606082015260800190565b6020808252600c908201526b77726f6e67206d617846656560a01b604082015260600190565b6020808252600e908201526d3bb937b733902b19903a3cb8329960911b604082015260600190565b60208082526024908201527f72696768744f726465722e74616b657220766572696669636174696f6e2066616040820152631a5b195960e21b606082015260800190565b60208082526012908201527132b9319b9918903b30b63ab29032b93937b960711b604082015260600190565b6020808252600f908201526e1b9bdd1a1a5b99c81d1bc8199a5b1b608a1b604082015260600190565b602080825260159082015274195c98cc8c081d1c985b9cd9995c8819985a5b1959605a1b604082015260600190565b6020808252601e908201527f53756d207061796f75747320427073206e6f7420657175616c20313030250000604082015260600190565b6020808252601290820152710c2e6e6cae8e640c8dedc4ee840dac2e8c6d60731b604082015260600190565b60208082526023908201527f6c6566744f726465722e74616b657220766572696669636174696f6e206661696040820152621b195960ea1b606082015260800190565b6020808252600e908201526d0dcdee840cadcdeeaced040cae8d60931b604082015260600190565b6020808252600b908201526a3737ba10309036b0b5b2b960a91b604082015260600190565b6000604082526151b56040830185614d2e565b82810360208401526127c58185614d2e565b6000606082528451604060608401526151e360a0840182614d2e565b60209687015160808501526001600160a01b03958616968401969096525050911660409091015290565b6000808335601e19843603018112615223578283fd5b8301803591506001600160401b0382111561523c578283fd5b602001915036819003821315611bc457600080fd5b6040518181016001600160401b038111828210171561526c57fe5b604052919050565b60006001600160401b0382111561528757fe5b5060209081020190565b60006001600160401b038211156152a457fe5b50601f01601f191660200190565b60005b838110156152cd5781810151838201526020016152b5565b838111156105635750506000910152565b6001600160a01b038116811461120257600080fd5b6001600160e01b03198116811461120257600080fdfe4f776e61626c653a206e6577206f776e657220697320746865207a65726f206164647265737345434453413a20696e76616c6964207369676e6174757265202773272076616c75656f72646572207369676e617475726520766572696669636174696f6e206572726f72636f6e7472616374206f72646572207369676e617475726520766572696669636174696f6e206572726f72496e697469616c697a61626c653a20636f6e747261637420697320616c726561647920696e697469616c697a656445434453413a20696e76616c6964207369676e6174757265202776272076616c7565536166654d6174683a206d756c7469706c69636174696f6e206f766572666c6f774f776e61626c653a2063616c6c6572206973206e6f7420746865206f776e6572a264697066735822122066f2cf416372a83bab4d0de717ee5b4b32c49bf9744592da8af8ab7f5bfe46ce64736f6c63430007060033",
  "immutableReferences": {},
  "source": "// SPDX-License-Identifier: MIT\n\npragma solidity 0.7.6;\npragma abicoder v2;\n\nimport \"./ExchangeV2Core.sol\";\nimport \"@rarible/transfer-manager/contracts/RaribleTransferManager.sol\";\n\ncontract ExchangeV2 is ExchangeV2Core, RaribleTransferManager {\n    function __ExchangeV2_init(\n        address _transferProxy,\n        address _erc20TransferProxy,\n        uint newProtocolFee,\n        address newDefaultFeeReceiver,\n        IRoyaltiesProvider newRoyaltiesProvider\n    ) external initializer {\n        __Context_init_unchained();\n        __Ownable_init_unchained();\n        __TransferExecutor_init_unchained(_transferProxy, _erc20TransferProxy);\n        __RaribleTransferManager_init_unchained(newProtocolFee, newDefaultFeeReceiver, newRoyaltiesProvider);\n        __OrderValidator_init_unchained();\n    }\n}\n",
  "sourcePath": "@rarible/exchange-v2/contracts/ExchangeV2.sol",
  "compiler": {
    "name": "solc",
    "version": "0.7.6+commit.7338295f.Emscripten.clang"
  },
  "schemaVersion": "3.4.3",
  "updatedAt": "2022-11-01T12:37:00.345Z",
  "devdoc": {
    "kind": "dev",
    "methods": {
      "directAcceptBid((address,uint256,bytes4,bytes,uint256,address,uint256,uint256,uint256,bytes4,bytes,bytes,uint256,uint256,bytes))": {
        "details": "function, generate sellOrder and buyOrder from parameters and call validateAndMatch() for accept bid transaction",
        "params": {
          "direct": "struct with parameters for accept bid operation"
        }
      },
      "directPurchase((address,uint256,bytes4,bytes,uint256,address,uint256,uint256,uint256,bytes4,bytes,bytes,uint256,uint256,bytes))": {
        "details": "function, generate sellOrder and buyOrder from parameters and call validateAndMatch() for purchase transaction"
      },
      "owner()": {
        "details": "Returns the address of the current owner."
      },
      "renounceOwnership()": {
        "details": "Leaves the contract without owner. It will not be possible to call `onlyOwner` functions anymore. Can only be called by the current owner. NOTE: Renouncing ownership will leave the contract without an owner, thereby removing any functionality that is only available to the owner."
      },
      "transferOwnership(address)": {
        "details": "Transfers ownership of the contract to a new account (`newOwner`). Can only be called by the current owner."
      }
    },
    "version": 1
  },
  "userdoc": {
    "kind": "user",
    "methods": {},
    "version": 1
  }
}