{
  "contractName": "ExchangeWrapper",
  "abi": [
    {
      "anonymous": false,
      "inputs": [
        {
          "indexed": true,
          "internalType": "address",
          "name": "previousOwner",
          "type": "address"
        },
        {
          "indexed": true,
          "internalType": "address",
          "name": "newOwner",
          "type": "address"
        }
      ],
      "name": "OwnershipTransferred",
      "type": "event"
    },
    {
      "inputs": [],
      "name": "exchangeV2",
      "outputs": [
        {
          "internalType": "contract IExchangeV2",
          "name": "",
          "type": "address"
        }
      ],
      "stateMutability": "view",
      "type": "function",
      "constant": true
    },
    {
      "inputs": [],
      "name": "owner",
      "outputs": [
        {
          "internalType": "address",
          "name": "",
          "type": "address"
        }
      ],
      "stateMutability": "view",
      "type": "function",
      "constant": true
    },
    {
      "inputs": [],
      "name": "renounceOwnership",
      "outputs": [],
      "stateMutability": "nonpayable",
      "type": "function"
    },
    {
      "inputs": [
        {
          "internalType": "address",
          "name": "newOwner",
          "type": "address"
        }
      ],
      "name": "transferOwnership",
      "outputs": [],
      "stateMutability": "nonpayable",
      "type": "function"
    },
    {
      "inputs": [],
      "name": "wyvernExchange",
      "outputs": [
        {
          "internalType": "contract IWyvernExchange",
          "name": "",
          "type": "address"
        }
      ],
      "stateMutability": "view",
      "type": "function",
      "constant": true
    },
    {
      "stateMutability": "payable",
      "type": "receive",
      "payable": true
    },
    {
      "inputs": [
        {
          "internalType": "contract IWyvernExchange",
          "name": "_wyvernExchange",
          "type": "address"
        },
        {
          "internalType": "contract IExchangeV2",
          "name": "_exchangeV2",
          "type": "address"
        }
      ],
      "name": "__ExchangeWrapper_init",
      "outputs": [],
      "stateMutability": "nonpayable",
      "type": "function"
    },
    {
      "inputs": [
        {
          "internalType": "contract IWyvernExchange",
          "name": "_wyvernExchange",
          "type": "address"
        }
      ],
      "name": "setWyvern",
      "outputs": [],
      "stateMutability": "nonpayable",
      "type": "function"
    },
    {
      "inputs": [
        {
          "internalType": "contract IExchangeV2",
          "name": "_exchangeV2",
          "type": "address"
        }
      ],
      "name": "setExchange",
      "outputs": [],
      "stateMutability": "nonpayable",
      "type": "function"
    },
    {
      "inputs": [
        {
          "components": [
            {
              "internalType": "enum ExchangeWrapper.Markets",
              "name": "marketId",
              "type": "uint8"
            },
            {
              "internalType": "uint256",
              "name": "amount",
              "type": "uint256"
            },
            {
              "internalType": "bytes",
              "name": "data",
              "type": "bytes"
            }
          ],
          "internalType": "struct ExchangeWrapper.PurchaseDetails",
          "name": "purchaseDetails",
          "type": "tuple"
        },
        {
          "internalType": "uint256[]",
          "name": "fees",
          "type": "uint256[]"
        }
      ],
      "name": "singlePurchase",
      "outputs": [],
      "stateMutability": "payable",
      "type": "function",
      "payable": true
    },
    {
      "inputs": [
        {
          "components": [
            {
              "internalType": "enum ExchangeWrapper.Markets",
              "name": "marketId",
              "type": "uint8"
            },
            {
              "internalType": "uint256",
              "name": "amount",
              "type": "uint256"
            },
            {
              "internalType": "bytes",
              "name": "data",
              "type": "bytes"
            }
          ],
          "internalType": "struct ExchangeWrapper.PurchaseDetails[]",
          "name": "purchaseDetails",
          "type": "tuple[]"
        },
        {
          "internalType": "uint256[]",
          "name": "fees",
          "type": "uint256[]"
        }
      ],
      "name": "bulkPurchase",
      "outputs": [],
      "stateMutability": "payable",
      "type": "function",
      "payable": true
    }
  ],
  "bytecode": "0x608060405234801561001057600080fd5b50611656806100206000396000f3fe6080604052600436106100955760003560e01c80638da5cb5b116100595780638da5cb5b1461011e578063a05f32dc14610149578063c9f0a2fa1461015e578063f2fde38b14610173578063ffe66dce146101935761009c565b806355b0126d146100a157806367b1f5df146100b6578063715018a6146100d65780637ad2607e146100eb57806383758e98146100fe5761009c565b3661009c57005b600080fd5b6100b46100af366004610fc2565b6101b3565b005b3480156100c257600080fd5b506100b46100d1366004610fa6565b6101fa565b3480156100e257600080fd5b506100b461027e565b6100b46100f93660046111ce565b61032a565b34801561010a57600080fd5b506100b4610119366004610fa6565b61033d565b34801561012a57600080fd5b506101336103c1565b60405161014091906113c8565b60405180910390f35b34801561015557600080fd5b506101336103d0565b34801561016a57600080fd5b506101336103df565b34801561017f57600080fd5b506100b461018e366004610fa6565b6103ee565b34801561019f57600080fd5b506100b46101ae366004611072565b6104f1565b60005b82518110156101e3576101db8382815181106101ce57fe5b60200260200101516105d5565b6001016101b6565b506101ee34826106e3565b6101f661075d565b5050565b610202610782565b6001600160a01b03166102136103c1565b6001600160a01b03161461025c576040805162461bcd60e51b81526020600482018190526024820152600080516020611601833981519152604482015290519081900360640190fd5b606680546001600160a01b0319166001600160a01b0392909216919091179055565b610286610782565b6001600160a01b03166102976103c1565b6001600160a01b0316146102e0576040805162461bcd60e51b81526020600482018190526024820152600080516020611601833981519152604482015290519081900360640190fd5b6033546040516000916001600160a01b0316907f8be0079c531659141344cd1fd0a4f28419497f9722a3daafe3b4186f6b6457e0908390a3603380546001600160a01b0319169055565b610333826105d5565b6101ee34826106e3565b610345610782565b6001600160a01b03166103566103c1565b6001600160a01b03161461039f576040805162461bcd60e51b81526020600482018190526024820152600080516020611601833981519152604482015290519081900360640190fd5b606580546001600160a01b0319166001600160a01b0392909216919091179055565b6033546001600160a01b031690565b6066546001600160a01b031681565b6065546001600160a01b031681565b6103f6610782565b6001600160a01b03166104076103c1565b6001600160a01b031614610450576040805162461bcd60e51b81526020600482018190526024820152600080516020611601833981519152604482015290519081900360640190fd5b6001600160a01b0381166104955760405162461bcd60e51b815260040180806020018281038252602681526020018061158c6026913960400191505060405180910390fd5b6033546040516001600160a01b038084169216907f8be0079c531659141344cd1fd0a4f28419497f9722a3daafe3b4186f6b6457e090600090a3603380546001600160a01b0319166001600160a01b0392909216919091179055565b600054610100900460ff168061050a575061050a610786565b80610518575060005460ff16155b6105535760405162461bcd60e51b815260040180806020018281038252602e8152602001806115b2602e913960400191505060405180910390fd5b600054610100900460ff1615801561057e576000805460ff1961ff0019909116610100171660011790555b610586610797565b61058e610838565b606580546001600160a01b038086166001600160a01b031992831617909255606680549285169290911691909117905580156105d0576000805461ff00191690555b505050565b60208101516001825160018111156105e957fe5b14156106855760655460408084015190516000926001600160a01b031691849161061391906113ac565b60006040518083038185875af1925050503d8060008114610650576040519150601f19603f3d011682016040523d82523d6000602084013e610655565b606091505b505090508061067f5760405162461bcd60e51b815260040161067690611413565b60405180910390fd5b506101f6565b60008251600181111561069457fe5b14156106cb5760008083604001518060200190518101906106b591906110aa565b915091506106c4828285610931565b50506101f6565b60405162461bcd60e51b8152600401610676906113dc565b60006106ef8347610aa3565b905060005b825181101561075757600061072960a085848151811061071057fe5b6020026020010151901c84610b0590919063ffffffff16565b9050801561074e5761074e84838151811061074057fe5b602002602001015182610b24565b506001016106f4565b50505050565b47801561077f5761077f81610770610782565b6001600160a01b031690610b24565b50565b3390565b600061079130610bbc565b15905090565b600054610100900460ff16806107b057506107b0610786565b806107be575060005460ff16155b6107f95760405162461bcd60e51b815260040180806020018281038252602e8152602001806115b2602e913960400191505060405180910390fd5b600054610100900460ff16158015610824576000805460ff1961ff0019909116610100171660011790555b801561077f576000805461ff001916905550565b600054610100900460ff16806108515750610851610786565b8061085f575060005460ff16155b61089a5760405162461bcd60e51b815260040180806020018281038252602e8152602001806115b2602e913960400191505060405180910390fd5b600054610100900460ff161580156108c5576000805460ff1961ff0019909116610100171660011790555b60006108cf610782565b603380546001600160a01b0319166001600160a01b038316908117909155604051919250906000907f8be0079c531659141344cd1fd0a4f28419497f9722a3daafe3b4186f6b6457e0908290a350801561077f576000805461ff001916905550565b610939610c86565b30815260608481015160208084019190915285015190820152604080516001808252818301909252600091816020015b610971610cf1565b81526020019060019003908161096957905050905061098e610782565b8160008151811061099b57fe5b6020026020010151600001906001600160a01b031690816001600160a01b031681525050612710816000815181106109cf57fe5b6020908102919091018101516bffffffffffffffffffffffff9092169101526109f6610d08565b818152604051610a0a90829060200161143c565b60408051601f198184030181529181526101008501919091526323d235ef60e01b60e085015260665490516301d3347f60e71b81526060916001600160a01b03169063e99a3f80908790610a68908b908b908a90889060040161148e565b6000604051808303818588803b158015610a8157600080fd5b505af1158015610a95573d6000803e3d6000fd5b505050505050505050505050565b600082821115610afa576040805162461bcd60e51b815260206004820152601e60248201527f536166654d6174683a207375627472616374696f6e206f766572666c6f770000604482015290519081900360640190fd5b508082035b92915050565b6000610b1d612710610b178585610bc6565b90610c1f565b9392505050565b6040516000906001600160a01b0384169083908381818185875af1925050503d8060008114610b6f576040519150601f19603f3d011682016040523d82523d6000602084013e610b74565b606091505b50509050806105d0576040805162461bcd60e51b815260206004820152600f60248201526e1d1c985b9cd9995c8819985a5b1959608a1b604482015290519081900360640190fd5b803b15155b919050565b600082610bd557506000610aff565b82820282848281610be257fe5b0414610b1d5760405162461bcd60e51b81526004018080602001828103825260218152602001806115e06021913960400191505060405180910390fd5b6000808211610c75576040805162461bcd60e51b815260206004820152601a60248201527f536166654d6174683a206469766973696f6e206279207a65726f000000000000604482015290519081900360640190fd5b818381610c7e57fe5b049392505050565b60405180610120016040528060006001600160a01b03168152602001610caa610d2b565b815260006020820152604001610cbe610d2b565b815260200160008152602001600081526020016000815260200160006001600160e01b0319168152602001606081525090565b604080518082019091526000808252602082015290565b604051806060016040528060608152602001606081526020016000151581525090565b6040518060400160405280610d3e610d4b565b8152602001600081525090565b60408051808201909152600081526060602082015290565b8051610bc181611576565b600082601f830112610d7e578081fd5b81356020610d93610d8e8361150a565b6114e6565b8281528181019085830183850287018401881015610daf578586fd5b855b85811015610dcd57813584529284019290840190600101610db1565b5090979650505050505050565b80516001600160e01b031981168114610bc157600080fd5b600082601f830112610e02578081fd5b8151610e10610d8e82611528565b818152846020838601011115610e24578283fd5b610e3582602083016020870161154a565b949350505050565b60006040808385031215610e4f578182fd5b805181810167ffffffffffffffff8282108183111715610e6b57fe5b818452829450855181811115610e8057600080fd5b8601808803851315610e9157600080fd5b608084018381108382111715610ea357fe5b8552610eae81610dda565b83526020810151945081851115610ec457600080fd5b610ed088868301610df2565b60608501525050815260209384015193019290925292915050565b600060608284031215610efc578081fd5b6040516060810167ffffffffffffffff8282108183111715610f1a57fe5b816040528293508435915060028210610f3257600080fd5b9082526020848101358184015290604085013581811115610f5257600080fd5b85019050601f81018613610f6557600080fd5b8035610f73610d8e82611528565b8181528784838501011115610f8757600080fd5b8184840185830137600091810190930152506040919091015292915050565b600060208284031215610fb7578081fd5b8135610b1d81611576565b60008060408385031215610fd4578081fd5b823567ffffffffffffffff80821115610feb578283fd5b818501915085601f830112610ffe578283fd5b8135602061100e610d8e8361150a565b82815281810190858301875b85811015611043576110318c8684358b0101610eeb565b8452928401929084019060010161101a565b5090975050508601359250508082111561105b578283fd5b5061106885828601610d6e565b9150509250929050565b60008060408385031215611084578182fd5b823561108f81611576565b9150602083013561109f81611576565b809150509250929050565b600080604083850312156110bc578182fd5b825167ffffffffffffffff808211156110d3578384fd5b81850191506101208083880312156110e9578485fd5b6110f2816114e6565b90506110fd83610d63565b8152602083015182811115611110578586fd5b61111c88828601610e3d565b60208301525061112e60408401610d63565b6040820152606083015182811115611144578586fd5b61115088828601610e3d565b6060830152506080830151608082015260a083015160a082015260c083015160c082015261118060e08401610dda565b60e08201526101008084015183811115611198578687fd5b6111a489828701610df2565b8284015250508094505060208501519150808211156111c1578283fd5b5061106885828601610df2565b600080604083850312156111e0578182fd5b823567ffffffffffffffff808211156111f7578384fd5b61120386838701610eeb565b9350602085013591508082111561105b578283fd5b6001600160a01b03169052565b6000815180845260208085019450808401835b8381101561127657815180516001600160a01b031688528301516bffffffffffffffffffffffff168388015260409096019590820190600101611238565b509495945050505050565b6001600160e01b0319169052565b600081518084526112a781602086016020860161154a565b601f01601f19169290920160200192915050565b600081516040845263ffffffff60e01b815116604085015260208101519050604060608501526112ee608085018261128f565b602093840151949093019390935250919050565b6000610120611312848451611218565b6020830151816020860152611329828601826112bb565b915050604083015161133e6040860182611218565b506060830151848203606086015261135682826112bb565b9150506080830151608085015260a083015160a085015260c083015160c085015260e083015161138960e0860182611281565b5061010080840151858303828701526113a2838261128f565b9695505050505050565b600082516113be81846020870161154a565b9190910192915050565b6001600160a01b0391909116815260200190565b60208082526018908201527f556e6b6e6f776e2070757263686173652064657461696c730000000000000000604082015260600190565b6020808252600f908201526e1d1c985b9cd9995c8819985a5b1959608a1b604082015260600190565b6000602082528251606060208401526114586080840182611225565b90506020840151601f198483030160408501526114758282611225565b9150506040840151151560608401528091505092915050565b6000608082526114a16080830187611302565b82810360208401526114b3818761128f565b905082810360408401526114c78186611302565b905082810360608401526114db818561128f565b979650505050505050565b60405181810167ffffffffffffffff8111828210171561150257fe5b604052919050565b600067ffffffffffffffff82111561151e57fe5b5060209081020190565b600067ffffffffffffffff82111561153c57fe5b50601f01601f191660200190565b60005b8381101561156557818101518382015260200161154d565b838111156107575750506000910152565b6001600160a01b038116811461077f57600080fdfe4f776e61626c653a206e6577206f776e657220697320746865207a65726f2061646472657373496e697469616c697a61626c653a20636f6e747261637420697320616c726561647920696e697469616c697a6564536166654d6174683a206d756c7469706c69636174696f6e206f766572666c6f774f776e61626c653a2063616c6c6572206973206e6f7420746865206f776e6572a264697066735822122062638adff25105b3be59f64921f887ddef849b195fe08ca8b1c9571ec167355464736f6c63430007060033",
  "immutableReferences": {},
  "source": "// SPDX-License-Identifier: MIT\n\npragma solidity 0.7.6;\npragma abicoder v2;\n\nimport \"@rarible/exchange-v2/contracts/lib/LibTransfer.sol\";\nimport \"@rarible/exchange-v2/contracts/lib/BpLibrary.sol\";\nimport \"@openzeppelin/contracts-upgradeable/access/OwnableUpgradeable.sol\";\nimport \"@rarible/exchange-interfaces/contracts/IWyvernExchange.sol\";\nimport \"@rarible/exchange-interfaces/contracts/IExchangeV2.sol\";\nimport \"@rarible/royalties/contracts/LibPart.sol\";\n\n\ncontract ExchangeWrapper is OwnableUpgradeable {\n    using LibTransfer for address;\n    using BpLibrary for uint;\n    using SafeMathUpgradeable for uint;\n\n\n    IWyvernExchange public wyvernExchange;\n    IExchangeV2 public exchangeV2;\n\n    enum Markets {\n        ExchangeV2,\n        WyvernExchange\n    }\n\n    struct PurchaseDetails {\n        Markets marketId;\n        uint256 amount;\n        bytes data;\n    }\n\n    function __ExchangeWrapper_init(\n        IWyvernExchange _wyvernExchange,\n        IExchangeV2 _exchangeV2\n    ) external initializer {\n        __Context_init_unchained();\n        __Ownable_init_unchained();\n        wyvernExchange = _wyvernExchange;\n        exchangeV2 = _exchangeV2;\n    }\n\n    function setWyvern(IWyvernExchange _wyvernExchange) external onlyOwner {\n        wyvernExchange = _wyvernExchange;\n    }\n\n    function setExchange(IExchangeV2 _exchangeV2) external onlyOwner {\n        exchangeV2 = _exchangeV2;\n    }\n\n    function singlePurchase(PurchaseDetails memory purchaseDetails, uint[] memory fees) external payable {\n        purchase(purchaseDetails);\n\n        feesTransfer(msg.value, fees);\n\n        changeTransfer();\n    }\n\n    function bulkPurchase(PurchaseDetails[] memory purchaseDetails, uint[] memory fees) external payable {\n        for (uint i = 0; i < purchaseDetails.length; i++) {\n            purchase(purchaseDetails[i]);\n        }\n\n        feesTransfer(msg.value, fees);\n\n        changeTransfer();\n    }\n\n    function purchase(PurchaseDetails memory purchaseDetails) internal {\n        uint paymentAmount = purchaseDetails.amount;\n        if (purchaseDetails.marketId == Markets.WyvernExchange) {\n            (bool success,) = address(wyvernExchange).call{value : paymentAmount}(purchaseDetails.data);\n            require(success, \"transfer failed\");\n        } else if (purchaseDetails.marketId == Markets.ExchangeV2) {\n            (LibOrder.Order memory sellOrder, bytes memory sellOrderSignature) = abi.decode(purchaseDetails.data, (LibOrder.Order, bytes));\n            matchExchangeV2(sellOrder, sellOrderSignature, paymentAmount);\n        } else {\n            revert(\"Unknown purchase details\");\n        }\n    }\n\n    function feesTransfer(uint amount, uint[] memory fees) internal {\n        uint spent = amount.sub(address(this).balance);\n        for (uint i = 0; i < fees.length; i++) {\n            uint feeValue = spent.bp(uint(fees[i] >> 160));\n            if (feeValue > 0) {\n                LibTransfer.transferEth(address(fees[i]), feeValue);\n            }\n        }\n    }\n\n    function changeTransfer() internal {\n        uint ethAmount = address(this).balance;\n        if (ethAmount > 0) {\n            address(_msgSender()).transferEth(ethAmount);\n        }\n    }\n\n    /*Transfer by ExchangeV2 sellOrder is in input, buyOrder is generated inside method */\n    function matchExchangeV2(\n        LibOrder.Order memory sellOrder,\n        bytes memory sellOrderSignature,\n        uint amount\n    ) internal {\n        LibOrder.Order memory buyerOrder;\n        buyerOrder.maker = address(this);\n        buyerOrder.makeAsset = sellOrder.takeAsset;\n        buyerOrder.takeAsset = sellOrder.makeAsset;\n\n        /*set buyer in payout*/\n        LibPart.Part[] memory payout = new LibPart.Part[](1);\n        payout[0].account = _msgSender();\n        payout[0].value = 10000;\n        LibOrderDataV2.DataV2 memory data;\n        data.payouts = payout;\n        buyerOrder.data = abi.encode(data);\n        buyerOrder.dataType = bytes4(keccak256(\"V2\"));\n\n        bytes memory buyOrderSignature; //empty signature is enough for buyerOrder\n\n        IExchangeV2(exchangeV2).matchOrders{value : amount }(sellOrder, sellOrderSignature, buyerOrder, buyOrderSignature);\n    }\n\n    receive() external payable {}\n}",
  "sourcePath": "/Users/ds/Documents/rarible/test-contracts/protocol-contracts/exchange-wrapper/contracts/ExchangeWrapper.sol",
  "compiler": {
    "name": "solc",
    "version": "0.7.6+commit.7338295f.Emscripten.clang"
  },
  "schemaVersion": "3.4.3",
  "updatedAt": "2022-04-27T09:37:14.917Z",
  "networkType": "ethereum",
  "devdoc": {
    "kind": "dev",
    "methods": {
      "owner()": {
        "details": "Returns the address of the current owner."
      },
      "renounceOwnership()": {
        "details": "Leaves the contract without owner. It will not be possible to call `onlyOwner` functions anymore. Can only be called by the current owner. NOTE: Renouncing ownership will leave the contract without an owner, thereby removing any functionality that is only available to the owner."
      },
      "transferOwnership(address)": {
        "details": "Transfers ownership of the contract to a new account (`newOwner`). Can only be called by the current owner."
      }
    },
    "version": 1
  },
  "userdoc": {
    "kind": "user",
    "methods": {},
    "version": 1
  }
}