{
  "contractName": "ExchangeWrapper",
  "abi": [
    {
      "anonymous": false,
      "inputs": [
        {
          "indexed": true,
          "internalType": "address",
          "name": "previousOwner",
          "type": "address"
        },
        {
          "indexed": true,
          "internalType": "address",
          "name": "newOwner",
          "type": "address"
        }
      ],
      "name": "OwnershipTransferred",
      "type": "event"
    },
    {
      "inputs": [],
      "name": "exchangeV2",
      "outputs": [
        {
          "internalType": "contract IExchangeV2",
          "name": "",
          "type": "address"
        }
      ],
      "stateMutability": "view",
      "type": "function",
      "constant": true
    },
    {
      "inputs": [],
      "name": "looksRare",
      "outputs": [
        {
          "internalType": "contract ILooksRare",
          "name": "",
          "type": "address"
        }
      ],
      "stateMutability": "view",
      "type": "function",
      "constant": true
    },
    {
      "inputs": [
        {
          "internalType": "address",
          "name": "",
          "type": "address"
        },
        {
          "internalType": "address",
          "name": "",
          "type": "address"
        },
        {
          "internalType": "uint256[]",
          "name": "",
          "type": "uint256[]"
        },
        {
          "internalType": "uint256[]",
          "name": "",
          "type": "uint256[]"
        },
        {
          "internalType": "bytes",
          "name": "",
          "type": "bytes"
        }
      ],
      "name": "onERC1155BatchReceived",
      "outputs": [
        {
          "internalType": "bytes4",
          "name": "",
          "type": "bytes4"
        }
      ],
      "stateMutability": "nonpayable",
      "type": "function"
    },
    {
      "inputs": [
        {
          "internalType": "address",
          "name": "",
          "type": "address"
        },
        {
          "internalType": "address",
          "name": "",
          "type": "address"
        },
        {
          "internalType": "uint256",
          "name": "",
          "type": "uint256"
        },
        {
          "internalType": "uint256",
          "name": "",
          "type": "uint256"
        },
        {
          "internalType": "bytes",
          "name": "",
          "type": "bytes"
        }
      ],
      "name": "onERC1155Received",
      "outputs": [
        {
          "internalType": "bytes4",
          "name": "",
          "type": "bytes4"
        }
      ],
      "stateMutability": "nonpayable",
      "type": "function"
    },
    {
      "inputs": [
        {
          "internalType": "address",
          "name": "",
          "type": "address"
        },
        {
          "internalType": "address",
          "name": "",
          "type": "address"
        },
        {
          "internalType": "uint256",
          "name": "",
          "type": "uint256"
        },
        {
          "internalType": "bytes",
          "name": "",
          "type": "bytes"
        }
      ],
      "name": "onERC721Received",
      "outputs": [
        {
          "internalType": "bytes4",
          "name": "",
          "type": "bytes4"
        }
      ],
      "stateMutability": "nonpayable",
      "type": "function"
    },
    {
      "inputs": [],
      "name": "owner",
      "outputs": [
        {
          "internalType": "address",
          "name": "",
          "type": "address"
        }
      ],
      "stateMutability": "view",
      "type": "function",
      "constant": true
    },
    {
      "inputs": [],
      "name": "renounceOwnership",
      "outputs": [],
      "stateMutability": "nonpayable",
      "type": "function"
    },
    {
      "inputs": [],
      "name": "seaPort",
      "outputs": [
        {
          "internalType": "contract ISeaPort",
          "name": "",
          "type": "address"
        }
      ],
      "stateMutability": "view",
      "type": "function",
      "constant": true
    },
    {
      "inputs": [
        {
          "internalType": "bytes4",
          "name": "interfaceId",
          "type": "bytes4"
        }
      ],
      "name": "supportsInterface",
      "outputs": [
        {
          "internalType": "bool",
          "name": "",
          "type": "bool"
        }
      ],
      "stateMutability": "view",
      "type": "function",
      "constant": true
    },
    {
      "inputs": [
        {
          "internalType": "address",
          "name": "newOwner",
          "type": "address"
        }
      ],
      "name": "transferOwnership",
      "outputs": [],
      "stateMutability": "nonpayable",
      "type": "function"
    },
    {
      "inputs": [],
      "name": "wyvernExchange",
      "outputs": [
        {
          "internalType": "contract IWyvernExchange",
          "name": "",
          "type": "address"
        }
      ],
      "stateMutability": "view",
      "type": "function",
      "constant": true
    },
    {
      "inputs": [],
      "name": "x2y2",
      "outputs": [
        {
          "internalType": "contract Ix2y2",
          "name": "",
          "type": "address"
        }
      ],
      "stateMutability": "view",
      "type": "function",
      "constant": true
    },
    {
      "stateMutability": "payable",
      "type": "receive",
      "payable": true
    },
    {
      "inputs": [
        {
          "internalType": "contract IWyvernExchange",
          "name": "_wyvernExchange",
          "type": "address"
        },
        {
          "internalType": "contract IExchangeV2",
          "name": "_exchangeV2",
          "type": "address"
        },
        {
          "internalType": "contract ISeaPort",
          "name": "_seaPort",
          "type": "address"
        },
        {
          "internalType": "contract Ix2y2",
          "name": "_x2y2",
          "type": "address"
        },
        {
          "internalType": "contract ILooksRare",
          "name": "_looksRare",
          "type": "address"
        }
      ],
      "name": "__ExchangeWrapper_init",
      "outputs": [],
      "stateMutability": "nonpayable",
      "type": "function"
    },
    {
      "inputs": [
        {
          "internalType": "contract IWyvernExchange",
          "name": "_wyvernExchange",
          "type": "address"
        }
      ],
      "name": "setWyvern",
      "outputs": [],
      "stateMutability": "nonpayable",
      "type": "function"
    },
    {
      "inputs": [
        {
          "internalType": "contract IExchangeV2",
          "name": "_exchangeV2",
          "type": "address"
        }
      ],
      "name": "setExchange",
      "outputs": [],
      "stateMutability": "nonpayable",
      "type": "function"
    },
    {
      "inputs": [
        {
          "internalType": "contract ISeaPort",
          "name": "_seaPort",
          "type": "address"
        }
      ],
      "name": "setSeaPort",
      "outputs": [],
      "stateMutability": "nonpayable",
      "type": "function"
    },
    {
      "inputs": [
        {
          "internalType": "contract Ix2y2",
          "name": "_x2y2",
          "type": "address"
        }
      ],
      "name": "setX2Y2",
      "outputs": [],
      "stateMutability": "nonpayable",
      "type": "function"
    },
    {
      "inputs": [
        {
          "internalType": "contract ILooksRare",
          "name": "_looksRare",
          "type": "address"
        }
      ],
      "name": "setLooksRare",
      "outputs": [],
      "stateMutability": "nonpayable",
      "type": "function"
    },
    {
      "inputs": [
        {
          "components": [
            {
              "internalType": "enum ExchangeWrapper.Markets",
              "name": "marketId",
              "type": "uint8"
            },
            {
              "internalType": "uint256",
              "name": "amount",
              "type": "uint256"
            },
            {
              "internalType": "bool",
              "name": "addFee",
              "type": "bool"
            },
            {
              "internalType": "bytes",
              "name": "data",
              "type": "bytes"
            }
          ],
          "internalType": "struct ExchangeWrapper.PurchaseDetails",
          "name": "purchaseDetails",
          "type": "tuple"
        },
        {
          "internalType": "uint256",
          "name": "originFeeFirst",
          "type": "uint256"
        },
        {
          "internalType": "uint256",
          "name": "originFeeSecond",
          "type": "uint256"
        }
      ],
      "name": "singlePurchase",
      "outputs": [],
      "stateMutability": "payable",
      "type": "function",
      "payable": true
    },
    {
      "inputs": [
        {
          "components": [
            {
              "internalType": "enum ExchangeWrapper.Markets",
              "name": "marketId",
              "type": "uint8"
            },
            {
              "internalType": "uint256",
              "name": "amount",
              "type": "uint256"
            },
            {
              "internalType": "bool",
              "name": "addFee",
              "type": "bool"
            },
            {
              "internalType": "bytes",
              "name": "data",
              "type": "bytes"
            }
          ],
          "internalType": "struct ExchangeWrapper.PurchaseDetails[]",
          "name": "purchaseDetails",
          "type": "tuple[]"
        },
        {
          "internalType": "uint256",
          "name": "originFeeFirst",
          "type": "uint256"
        },
        {
          "internalType": "uint256",
          "name": "originFeeSecond",
          "type": "uint256"
        },
        {
          "internalType": "bool",
          "name": "allowFail",
          "type": "bool"
        }
      ],
      "name": "bulkPurchase",
      "outputs": [],
      "stateMutability": "payable",
      "type": "function",
      "payable": true
    }
  ],
  "bytecode": "0x608060405234801561001057600080fd5b50612df4806100206000396000f3fe6080604052600436106101235760003560e01c80639110c777116100a0578063d162be1411610064578063d162be14146102e5578063f23a6e6114610305578063f2fde38b14610325578063fc40c9c714610345578063fe7daf171461035a5761012a565b80639110c777146102735780639a2defd014610288578063a05f32dc1461029b578063bc197c81146102b0578063c9f0a2fa146102d05761012a565b806367b1f5df116100e757806367b1f5df146101f6578063715018a61461021657806383758e981461022b57806387d8aad21461024b5780638da5cb5b1461025e5761012a565b806301ffc9a71461012f578063150b7a02146101655780631d9a08be1461019257806357f57d6a146101b457806362c1a97d146101d45761012a565b3661012a57005b600080fd5b34801561013b57600080fd5b5061014f61014a366004612014565b61037a565b60405161015c91906127dc565b60405180910390f35b34801561017157600080fd5b50610185610180366004611dcb565b61039d565b60405161015c91906127e7565b34801561019e57600080fd5b506101b26101ad366004611d06565b6103ad565b005b3480156101c057600080fd5b506101b26101cf366004611d06565b610432565b3480156101e057600080fd5b506101e96104b7565b60405161015c919061276c565b34801561020257600080fd5b506101b2610211366004611d06565b6104c7565b34801561022257600080fd5b506101b261054c565b34801561023757600080fd5b506101b2610246366004611d06565b6105f8565b6101b2610259366004611f6a565b61067d565b34801561026a57600080fd5b506101e96106cd565b34801561027f57600080fd5b506101e96106dc565b6101b26102963660046121d6565b6106ec565b3480156102a757600080fd5b506101e9610712565b3480156102bc57600080fd5b506101856102cb366004611d22565b610722565b3480156102dc57600080fd5b506101e9610733565b3480156102f157600080fd5b506101b2610300366004612030565b610743565b34801561031157600080fd5b50610185610320366004611e34565b610855565b34801561033157600080fd5b506101b2610340366004611d06565b610866565b34801561035157600080fd5b506101e9610969565b34801561036657600080fd5b506101b2610375366004611d06565b610979565b6001600160e01b0319811660009081526097602052604090205460ff165b919050565b630a85bd0160e11b949350505050565b6103b56109fe565b6001600160a01b03166103c66106cd565b6001600160a01b03161461040f576040805162461bcd60e51b81526020600482018190526024820152600080516020612d9f833981519152604482015290519081900360640190fd5b61013080546001600160a01b0319166001600160a01b0392909216919091179055565b61043a6109fe565b6001600160a01b031661044b6106cd565b6001600160a01b031614610494576040805162461bcd60e51b81526020600482018190526024820152600080516020612d9f833981519152604482015290519081900360640190fd5b61013180546001600160a01b0319166001600160a01b0392909216919091179055565b61012f546001600160a01b031681565b6104cf6109fe565b6001600160a01b03166104e06106cd565b6001600160a01b031614610529576040805162461bcd60e51b81526020600482018190526024820152600080516020612d9f833981519152604482015290519081900360640190fd5b61012e80546001600160a01b0319166001600160a01b0392909216919091179055565b6105546109fe565b6001600160a01b03166105656106cd565b6001600160a01b0316146105ae576040805162461bcd60e51b81526020600482018190526024820152600080516020612d9f833981519152604482015290519081900360640190fd5b6065546040516000916001600160a01b0316907f8be0079c531659141344cd1fd0a4f28419497f9722a3daafe3b4186f6b6457e0908390a3606580546001600160a01b0319169055565b6106006109fe565b6001600160a01b03166106116106cd565b6001600160a01b03161461065a576040805162461bcd60e51b81526020600482018190526024820152600080516020612d9f833981519152604482015290519081900360640190fd5b61012d80546001600160a01b0319166001600160a01b0392909216919091179055565b6000805b85518110156106b2576106a686828151811061069957fe5b6020026020010151610a02565b90910190600101610681565b506106be818585610f43565b6106c6610f5c565b5050505050565b6065546001600160a01b031690565b610131546001600160a01b031681565b60006106f784610a02565b9050610704818484610f43565b61070c610f5c565b50505050565b61012e546001600160a01b031681565b63bc197c8160e01b95945050505050565b61012d546001600160a01b031681565b600054610100900460ff168061075c575061075c610f70565b8061076a575060005460ff16155b6107a55760405162461bcd60e51b815260040180806020018281038252602e815260200180612d50602e913960400191505060405180910390fd5b600054610100900460ff161580156107d0576000805460ff1961ff0019909116610100171660011790555b6107d8610f81565b6107e0611022565b61012d80546001600160a01b03199081166001600160a01b038981169190911790925561012e8054821688841617905561012f80548216878416179055610130805482168684161790556101318054909116918416919091179055801561084d576000805461ff00191690555b505050505050565b63f23a6e6160e01b95945050505050565b61086e6109fe565b6001600160a01b031661087f6106cd565b6001600160a01b0316146108c8576040805162461bcd60e51b81526020600482018190526024820152600080516020612d9f833981519152604482015290519081900360640190fd5b6001600160a01b03811661090d5760405162461bcd60e51b8152600401808060200182810382526026815260200180612d2a6026913960400191505060405180910390fd5b6065546040516001600160a01b038084169216907f8be0079c531659141344cd1fd0a4f28419497f9722a3daafe3b4186f6b6457e090600090a3606580546001600160a01b0319166001600160a01b0392909216919091179055565b610130546001600160a01b031681565b6109816109fe565b6001600160a01b03166109926106cd565b6001600160a01b0316146109db576040805162461bcd60e51b81526020600482018190526024820152600080516020612d9f833981519152604482015290519081900360640190fd5b61012f80546001600160a01b0319166001600160a01b0392909216919091179055565b3390565b6020810151600090600283516004811115610a1957fe5b1415610ab65761012f5460608401516040516000926001600160a01b0316918491610a449190612750565b60006040518083038185875af1925050503d8060008114610a81576040519150601f19603f3d011682016040523d82523d6000602084013e610a86565b606091505b5050905080610ab05760405162461bcd60e51b8152600401610aa79061286a565b60405180910390fd5b50610f2a565b600183516004811115610ac557fe5b1415610b535761012d5460608401516040516000926001600160a01b0316918491610af09190612750565b60006040518083038185875af1925050503d8060008114610b2d576040519150601f19603f3d011682016040523d82523d6000602084013e610b32565b606091505b5050905080610ab05760405162461bcd60e51b8152600401610aa7906127fc565b600083516004811115610b6257fe5b1415610b9f5760008060008560600151806020019051810190610b8591906120a0565b925092509250610b978383868461111b565b505050610f2a565b600383516004811115610bae57fe5b1415610d6e5760008360600151806020019051810190610bce9190612221565b6101305460405163357a150b60e01b81529192506001600160a01b03169063357a150b908490610c0290859060040161297f565b6000604051808303818588803b158015610c1b57600080fd5b505af1158015610c2f573d6000803e3d6000fd5b505050505060005b815151811015610d675760005b8251805183908110610c5257fe5b6020026020010151610100015151811015610d5e57600083600001518381518110610c7957fe5b602002602001015161010001518281518110610c9157fe5b602002602001015160200151806020019051810190610cb09190611e9a565b905060005b8151811015610d54576000828281518110610ccc57fe5b6020026020010151905080600001516001600160a01b03166342842e0e30610cf26109fe565b84602001516040518463ffffffff1660e01b8152600401610d1593929190612780565b600060405180830381600087803b158015610d2f57600080fd5b505af1158015610d43573d6000803e3d6000fd5b505060019093019250610cb5915050565b5050600101610c44565b50600101610c37565b5050610f2a565b600483516004811115610d7d57fe5b1415610f125760008060008560600151806020019051810190610da091906122e9565b61013154604051635a72594b60e11b815293965091945092506001600160a01b03169063b4e4b296908690610ddb9087908790600401612b06565b6000604051808303818588803b158015610df457600080fd5b505af1158015610e08573d6000803e3d6000fd5b50505050506001600160e01b031981166339d690a360e11b1415610e9c5781604001516001600160a01b03166342842e0e30610e426109fe565b85608001516040518463ffffffff1660e01b8152600401610e6593929190612780565b600060405180830381600087803b158015610e7f57600080fd5b505af1158015610e93573d6000803e3d6000fd5b50505050610b97565b6001600160e01b0319811663025ceed960e61b1415610efa5781604001516001600160a01b031663f242432a30610ed16109fe565b85608001518660a001516040518563ffffffff1660e01b8152600401610e6594939291906127a4565b60405162461bcd60e51b8152600401610aa7906128af565b60405162461bcd60e51b8152600401610aa790612833565b8260400151610f3a576000610f3c565b805b9392505050565b610f4d8383611298565b610f578382611298565b505050565b478015610f6d57610f6d33826112b6565b50565b6000610f7b3061134e565b15905090565b600054610100900460ff1680610f9a5750610f9a610f70565b80610fa8575060005460ff16155b610fe35760405162461bcd60e51b815260040180806020018281038252602e815260200180612d50602e913960400191505060405180910390fd5b600054610100900460ff1615801561100e576000805460ff1961ff0019909116610100171660011790555b8015610f6d576000805461ff001916905550565b600054610100900460ff168061103b575061103b610f70565b80611049575060005460ff16155b6110845760405162461bcd60e51b815260040180806020018281038252602e815260200180612d50602e913960400191505060405180910390fd5b600054610100900460ff161580156110af576000805460ff1961ff0019909116610100171660011790555b60006110b96109fe565b606580546001600160a01b0319166001600160a01b038316908117909155604051919250906000907f8be0079c531659141344cd1fd0a4f28419497f9722a3daafe3b4186f6b6457e0908290a3508015610f6d576000805461ff001916905550565b611123611435565b3081526060858101516020808401919091528087015151918301805192909252905101829052604080516001808252818301909252600091816020015b6111686114a0565b8152602001906001900390816111605790505090506111856109fe565b8160008151811061119257fe5b6020026020010151600001906001600160a01b031690816001600160a01b031681525050612710816000815181106111c657fe5b6020908102919091018101516bffffffffffffffffffffffff9092169101526111ed6114b7565b8181526040516112019082906020016128db565b60408051601f198184030181529181526101008501919091526323d235ef60e01b60e085015261012e5490516301d3347f60e71b81526001600160a01b039091169063e99a3f8090879061125d908b908b90899060040161292d565b6000604051808303818588803b15801561127657600080fd5b505af115801561128a573d6000803e3d6000fd5b505050505050505050505050565b60006112a88360a084901c611354565b90508015610f5757610f5782825b6040516000906001600160a01b0384169083908381818185875af1925050503d8060008114611301576040519150601f19603f3d011682016040523d82523d6000602084013e611306565b606091505b5050905080610f57576040805162461bcd60e51b815260206004820152600f60248201526e1d1c985b9cd9995c8819985a5b1959608a1b604482015290519081900360640190fd5b3b151590565b600061136c6127106113668585611375565b906113ce565b90505b92915050565b6000826113845750600061136f565b8282028284828161139157fe5b041461136c5760405162461bcd60e51b8152600401808060200182810382526021815260200180612d7e6021913960400191505060405180910390fd5b6000808211611424576040805162461bcd60e51b815260206004820152601a60248201527f536166654d6174683a206469766973696f6e206279207a65726f000000000000604482015290519081900360640190fd5b81838161142d57fe5b049392505050565b60405180610120016040528060006001600160a01b031681526020016114596114da565b81526000602082015260400161146d6114da565b815260200160008152602001600081526020016000815260200160006001600160e01b0319168152602001606081525090565b604080518082019091526000808252602082015290565b604051806060016040528060608152602001606081526020016000151581525090565b60405180604001604052806114ed6114fa565b8152602001600081525090565b60408051808201909152600081526060602082015290565b805161039881612cf0565b600082601f83011261152d578081fd5b8151602061154261153d83612c86565b612c63565b82815281810190858301604080860288018501891015611560578687fd5b865b868110156115bb5781838b031215611578578788fd5b81518281018181106001600160401b038211171561159257fe5b835283518152868401516115a581612cf0565b8188015285529385019391810191600101611562565b509198975050505050505050565b600082601f8301126115d9578081fd5b815160206115e961153d83612c86565b82815281810190858301855b858110156116725781518801604080601f19838d03011215611615578889fd5b80518181016001600160401b03828210818311171561163057fe5b818452848a0151835292840151928084111561164a578b8cfd5b505061165a8c89848601016119be565b818901528652505092840192908401906001016115f5565b5090979650505050505050565b600082601f83011261168f578081fd5b8151602061169f61153d83612c86565b82815281810190858301855b8581101561167257815188016101a080601f19838d030112156116cc578889fd5b6116d581612c63565b8783015181526116e760408401611512565b88820152606083015160408201526080830151606082015260a0830151608082015260c083015160a082015261171f60e08401611512565b60c0820152610100808401516001600160401b038082111561173f578c8dfd5b61174d8f8c848901016119be565b60e0850152610120860151915080821115611766578c8dfd5b506117758e8b838801016115c9565b828401525050610140830151610120820152610160808401516101408301526101806117a2818601611cf5565b828401526117b1848601611cf5565b90830152508652505092840192908401906001016116ab565b600082601f8301126117da578081fd5b815160206117ea61153d83612c86565b82815281810190858301855b85811015611672578151880161016080601f19838d03011215611817578889fd5b61182081612c63565b61182b888401611a09565b815260408084015189830152606080850151828401526080915081850151818401525060a0808501518284015261186460c08601611512565b908301525060e0838101516001600160401b0380821115611883578c8dfd5b6118918f8c848901016119be565b60c0850152610100915081860151838501526101209250828601518285015261014091508186015183850152848601519450808511156118cf578c8dfd5b506118de8e8b8688010161151d565b90830152508652505092840192908401906001016117f6565b600082601f830112611907578081fd5b8135602061191761153d83612c86565b8281528181019085830183850287018401881015611933578586fd5b855b8581101561167257813584529284019290840190600101611935565b803561039881612d05565b805161039881612d05565b805161039881612d13565b600082601f830112611982578081fd5b813561199061153d82612ca3565b8181528460208386010111156119a4578283fd5b816020850160208301379081016020019190915292915050565b600082601f8301126119ce578081fd5b81516119dc61153d82612ca3565b8181528460208386010111156119f0578283fd5b611a01826020830160208701612cc4565b949350505050565b80516008811061039857600080fd5b60006040808385031215611a2a578182fd5b80518181016001600160401b038282108183111715611a4557fe5b818452829450855181811115611a5a57600080fd5b8601808803851315611a6b57600080fd5b608084018381108382111715611a7d57fe5b909452835193611a8c85612d13565b93825260208401519381851115611aa257600080fd5b611aae888683016119be565b60608501525050815260209384015193019290925292915050565b6000610200808385031215611adc578182fd5b611ae581612c63565b915050611af18261195c565b8152611aff60208301611512565b6020820152611b1060408301611512565b6040820152606082015160608201526080820151608082015260a082015160a0820152611b3f60c08301611512565b60c0820152611b5060e08301611512565b60e08201526101008281015190820152610120808301519082015261014080830151908201526101608083015190820152610180808301516001600160401b03811115611b9c57600080fd5b611ba8858286016119be565b8284015250506101a0611bbc818401611cf5565b908201526101c082810151908201526101e09182015191810191909152919050565b600060808284031215611bef578081fd5b604051608081016001600160401b038282108183111715611c0c57fe5b816040528293508435915060058210611c2457600080fd5b81835260208501356020840152611c3d60408601611951565b60408401526060850135915080821115611c5657600080fd5b50611c6385828601611972565b6060830152505092915050565b600060c08284031215611c81578081fd5b60405160c081018181106001600160401b0382111715611c9d57fe5b8060405250809150825181526020830151602082015260408301516040820152606083015160608201526080830151611cd581612cf0565b608082015260a0830151611ce881612d05565b60a0919091015292915050565b805160ff8116811461039857600080fd5b600060208284031215611d17578081fd5b813561136c81612cf0565b600080600080600060a08688031215611d39578081fd5b8535611d4481612cf0565b94506020860135611d5481612cf0565b935060408601356001600160401b0380821115611d6f578283fd5b611d7b89838a016118f7565b94506060880135915080821115611d90578283fd5b611d9c89838a016118f7565b93506080880135915080821115611db1578283fd5b50611dbe88828901611972565b9150509295509295909350565b60008060008060808587031215611de0578182fd5b8435611deb81612cf0565b93506020850135611dfb81612cf0565b92506040850135915060608501356001600160401b03811115611e1c578182fd5b611e2887828801611972565b91505092959194509250565b600080600080600060a08688031215611e4b578283fd5b8535611e5681612cf0565b94506020860135611e6681612cf0565b9350604086013592506060860135915060808601356001600160401b03811115611e8e578182fd5b611dbe88828901611972565b60006020808385031215611eac578182fd5b82516001600160401b0380821115611ec2578384fd5b818501915085601f830112611ed5578384fd5b8151611ee361153d82612c86565b818152848101908486016040808502870188018b1015611f01578889fd5b8896505b84871015611f5b5780828c031215611f1b578889fd5b80518181018181108882111715611f2e57fe5b82528251611f3b81612cf0565b815282890151898201528452600196909601959287019290810190611f05565b50909998505050505050505050565b60008060008060808587031215611f7f578182fd5b84356001600160401b03811115611f94578283fd5b8501601f81018713611fa4578283fd5b80356020611fb461153d83612c86565b82815281810190848301875b85811015611fe957611fd78d8684358a0101611bde565b84529284019290840190600101611fc0565b509098505050870135945050506040850135915061200960608601611951565b905092959194509250565b600060208284031215612025578081fd5b813561136c81612d13565b600080600080600060a08688031215612047578283fd5b853561205281612cf0565b9450602086013561206281612cf0565b9350604086013561207281612cf0565b9250606086013561208281612cf0565b9150608086013561209281612cf0565b809150509295509295909350565b6000806000606084860312156120b4578081fd5b83516001600160401b03808211156120ca578283fd5b81860191506101208083890312156120e0578384fd5b6120e981612c63565b90506120f483611512565b8152602083015182811115612107578485fd5b61211389828601611a18565b60208301525061212560408401611512565b604082015260608301518281111561213b578485fd5b61214789828601611a18565b6060830152506080830151608082015260a083015160a082015260c083015160c082015261217760e08401611967565b60e0820152610100808401518381111561218f578586fd5b61219b8a8287016119be565b8284015250508095505060208601519150808211156121b8578283fd5b506121c5868287016119be565b925050604084015190509250925092565b6000806000606084860312156121ea578081fd5b83356001600160401b038111156121ff578182fd5b61220b86828701611bde565b9660208601359650604090950135949350505050565b600060208284031215612232578081fd5b81516001600160401b0380821115612248578283fd5b90830190610160828603121561225c578283fd5b61226660c0612c63565b825182811115612274578485fd5b6122808782860161167f565b825250602083015182811115612294578485fd5b6122a0878286016117ca565b6020830152506122b38660408501611c70565b6040820152610100830151606082015261012083015160808201526122db6101408401611cf5565b60a082015295945050505050565b6000806000606084860312156122fd578081fd5b83516001600160401b0380821115612313578283fd5b9085019060c08288031215612326578283fd5b60405160c08101818110838211171561233b57fe5b6040526123478361195c565b815261235560208401611512565b602082015260408301516040820152606083015160608201526080830151608082015260a083015182811115612389578485fd5b612395898286016119be565b60a08301525060208701519095509150808211156123b1578283fd5b506123be86828701611ac9565b9250506123cd60408501611967565b90509250925092565b6001600160a01b03169052565b6000815180845260208085019450808401835b83811015612426578151805188528301516001600160a01b031683880152604090960195908201906001016123f6565b509495945050505050565b6000815180845260208085018081965082840281019150828601855b8581101561248b5782840389528151805185528501516040868601819052612477818701836125dc565b9a87019a955050509084019060010161244d565b5091979650505050505050565b6000815180845260208085019450808401835b8381101561242657815180516001600160a01b031688528301516bffffffffffffffffffffffff1683880152604090960195908201906001016124ab565b6000815180845260208085018081965082840281019150828601855b8581101561248b5782840389528151610160612522868351612608565b818701518688015260408083015190870152606080830151908701526080808301519087015260a08083015161255a828901826123d6565b505060c0808301518282890152612573838901826125dc565b60e085810151908a015261010080860151908a015261012080860151908a015261014094850151898203958a019590955292506125b49150829050836123e3565b9a87019a9550505090840190600101612505565b15159052565b6001600160e01b0319169052565b600081518084526125f4816020860160208601612cc4565b601f01601f19169290920160200192915050565b6008811061261257fe5b9052565b600081516040845263ffffffff60e01b8151166040850152602081015190506040606085015261264960808501826125dc565b602093840151949093019390935250919050565b600061012061266d8484516123d6565b602083015181602086015261268482860182612616565b915050604083015161269960408601826123d6565b50606083015184820360608601526126b18282612616565b9150506080830151608085015260a083015160a085015260c083015160c085015260e08301516126e460e08601826125ce565b5061010080840151858303828701526126fd83826125dc565b9695505050505050565b805182526020808201519083015260408082015190830152606080820151908301526080808201516001600160a01b03169083015260a0908101511515910152565b60ff169052565b60008251612762818460208701612cc4565b9190910192915050565b6001600160a01b0391909116815260200190565b6001600160a01b039384168152919092166020820152604081019190915260600190565b6001600160a01b0394851681529290931660208301526040820152606081019190915260a06080820181905260009082015260c00190565b901515815260200190565b6001600160e01b031991909116815260200190565b6020808252601e908201527f50757263686173652077797665726e45786368616e6765206661696c65640000604082015260600190565b60208082526018908201527f556e6b6e6f776e2070757263686173652064657461696c730000000000000000604082015260600190565b60208082526025908201527f507572636861736520536561506f7274416476616e6365644f72646572732066604082015264185a5b195960da1b606082015260800190565b602080825260129082015271556e6b6e6f776e20746f6b656e207479706560701b604082015260600190565b6000602082528251606060208401526128f76080840182612498565b90506020840151601f198483030160408501526129148282612498565b9150506040840151151560608401528091505092915050565b600060808252612940608083018661265d565b828103602084015261295281866125dc565b90508281036040840152612966818561265d565b8381036060909401939093525081526020019392505050565b60006020808352610180808401855161016080858801528282518085526101a094508489019150848782028a01018785019450885b82811015612a9c578a820361019f19018452855180518352898101516129dc8b8501826123d6565b5060408181015190840152606080820151908401526080808201519084015260a0808201519084015260c080820151612a17828601826123d6565b505060e0808201518982860152612a308a8601826125dc565b9150506101008083015185830382870152612a4b8382612431565b9250505061012080830151818601525061014080830151818601525086820151612a7788860182612749565b509089015190612a89848b0183612749565b968a0196948a01949250506001016129b4565b50968a0151898803601f190160408b015296612ab881896124e9565b975050505060408801519350612ad16060880185612707565b6060880151610120880152608088015161014088015260a08801519350612afa81880185612749565b50929695505050505050565b60006040825261010084511515604084015260018060a01b03602086015116606084015260408501516080840152606085015160a0840152608085015160c084015260a085015160c060e0850152612b60828501826125dc565b90508381036020850152610200612b788287516125c8565b6020860151612b8a60208401826123d6565b506040860151612b9d60408401826123d6565b50606086015160608301526080860151608083015260a086015160a083015260c0860151612bce60c08401826123d6565b5060e0860151612be160e08401826123d6565b50858301519282019290925261012080860151908201526101408086015190820152610160808601519082015261018080860151818301849052909290612c2a828401826125dc565b935050506101a080860151612c4182840182612749565b50506101c085810151908201526101e094850151940193909352509092915050565b6040518181016001600160401b0381118282101715612c7e57fe5b604052919050565b60006001600160401b03821115612c9957fe5b5060209081020190565b60006001600160401b03821115612cb657fe5b50601f01601f191660200190565b60005b83811015612cdf578181015183820152602001612cc7565b8381111561070c5750506000910152565b6001600160a01b0381168114610f6d57600080fd5b8015158114610f6d57600080fd5b6001600160e01b031981168114610f6d57600080fdfe4f776e61626c653a206e6577206f776e657220697320746865207a65726f2061646472657373496e697469616c697a61626c653a20636f6e747261637420697320616c726561647920696e697469616c697a6564536166654d6174683a206d756c7469706c69636174696f6e206f766572666c6f774f776e61626c653a2063616c6c6572206973206e6f7420746865206f776e6572a2646970667358221220325a18ae886ed801199b96d0aec269b7934f5a45fa0908658f29c7fbd4f902b964736f6c63430007060033",
  "immutableReferences": {},
  "source": "// SPDX-License-Identifier: MIT\n\npragma solidity 0.7.6;\npragma abicoder v2;\n\nimport \"@rarible/transfer-manager/contracts/lib/LibTransfer.sol\";\nimport \"@rarible/lib-bp/contracts/BpLibrary.sol\";\nimport \"@rarible/lib-part/contracts/LibPart.sol\";\n\nimport \"@openzeppelin/contracts-upgradeable/access/OwnableUpgradeable.sol\";\nimport \"@openzeppelin/contracts-upgradeable/token/ERC721/IERC721Upgradeable.sol\";\nimport \"@openzeppelin/contracts-upgradeable/token/ERC1155/IERC1155Upgradeable.sol\";\nimport \"@openzeppelin/contracts-upgradeable/token/ERC721/ERC721HolderUpgradeable.sol\";\nimport \"@openzeppelin/contracts-upgradeable/token/ERC1155/ERC1155HolderUpgradeable.sol\";\n\nimport \"./interfaces/IWyvernExchange.sol\";\nimport \"./interfaces/IExchangeV2.sol\";\nimport \"./interfaces/ISeaPort.sol\";\nimport \"./interfaces/Ix2y2.sol\";\nimport \"./interfaces/ILooksRare.sol\";\n\ncontract ExchangeWrapper is ERC721HolderUpgradeable, OwnableUpgradeable, ERC1155HolderUpgradeable {\n    using LibTransfer for address;\n    using BpLibrary for uint;\n    using SafeMathUpgradeable for uint;\n\n    IWyvernExchange public wyvernExchange;\n    IExchangeV2 public exchangeV2;\n    ISeaPort public seaPort;\n    Ix2y2 public x2y2;\n    ILooksRare public looksRare;\n\n    enum Markets {\n        ExchangeV2,\n        WyvernExchange,\n        SeaPortAdvancedOrders,\n        X2Y2,\n        LooksRareOrders\n    }\n\n    /**\n        @notice struct for the purchase data\n        @param marketId - market key from Markets enum (what market to use)\n        @param amount - eth price (amount of eth that needs to be send to the marketplace)\n        @param addFee - true if wrapper adds additional fees on top of the order\n        @param data - data for market call \n     */\n    struct PurchaseDetails {\n        Markets marketId;\n        uint256 amount;\n        bool addFee;\n        bytes data;\n    }\n\n    function __ExchangeWrapper_init(\n        IWyvernExchange _wyvernExchange,\n        IExchangeV2 _exchangeV2,\n        ISeaPort _seaPort,\n        Ix2y2 _x2y2,\n        ILooksRare _looksRare\n    ) external initializer {\n        __Context_init_unchained();\n        __Ownable_init_unchained();\n        wyvernExchange = _wyvernExchange;\n        exchangeV2 = _exchangeV2;\n        seaPort = _seaPort;\n        x2y2 = _x2y2;\n        looksRare = _looksRare;\n    }\n\n    function setWyvern(IWyvernExchange _wyvernExchange) external onlyOwner {\n        wyvernExchange = _wyvernExchange;\n    }\n\n    function setExchange(IExchangeV2 _exchangeV2) external onlyOwner {\n        exchangeV2 = _exchangeV2;\n    }\n\n    function setSeaPort(ISeaPort _seaPort) external onlyOwner {\n        seaPort = _seaPort;\n    }\n\n    function setX2Y2(Ix2y2 _x2y2) external onlyOwner {\n        x2y2 = _x2y2;\n    }\n\n    function setLooksRare(ILooksRare _looksRare) external onlyOwner {\n        looksRare = _looksRare;\n    }\n\n    /**\n        @notice executes a single purchase\n        @param purchaseDetails - deatails about the purchase (more info in PurchaseDetails struct)\n        @param originFeeFirst - first optional fee (address + amount encoded in uint, first 12 bytes are amount, last 20 bytes are address)\n        @param originFeeSecond - second optional fee (address + amount encoded in uint, first 12 bytes are amount, last 20 bytes are address)\n     */\n    function singlePurchase(PurchaseDetails memory purchaseDetails, uint originFeeFirst, uint originFeeSecond) external payable {\n        uint amountForFees = purchase(purchaseDetails);\n\n        _transferFees(amountForFees, originFeeFirst, originFeeSecond);\n\n        transferChange();\n    }\n\n    /**\n        @notice executes an array of purchases\n        @param purchaseDetails - array of deatails about the purchases (more info in PurchaseDetails struct)\n        @param originFeeFirst - first optional fee (address + amount encoded in uint, first 12 bytes are amount, last 20 bytes are address)\n        @param originFeeSecond - second optional fee (address + amount encoded in uint, first 12 bytes are amount, last 20 bytes are address)\n        @param allowFail - true if fails while executing orders are allowed, false if fail of a single order means fail of the whole batch\n     */\n    function bulkPurchase(PurchaseDetails[] memory purchaseDetails, uint originFeeFirst, uint originFeeSecond, bool allowFail) external payable {\n        uint amountForFees = 0;\n        for (uint i = 0; i < purchaseDetails.length; i++) {\n            amountForFees = amountForFees + purchase(purchaseDetails[i]);\n        }\n\n        _transferFees(amountForFees, originFeeFirst, originFeeSecond);\n\n        transferChange();\n    }\n\n    function purchase(PurchaseDetails memory purchaseDetails) internal returns(uint){\n        uint paymentAmount = purchaseDetails.amount;\n        if (purchaseDetails.marketId == Markets.SeaPortAdvancedOrders){\n            (bool success,) = address(seaPort).call{value : paymentAmount}(purchaseDetails.data);\n            require(success, \"Purchase SeaPortAdvancedOrders failed\");\n        } else if (purchaseDetails.marketId == Markets.WyvernExchange) {\n            (bool success,) = address(wyvernExchange).call{value : paymentAmount}(purchaseDetails.data);\n            require(success, \"Purchase wyvernExchange failed\");\n        } else if (purchaseDetails.marketId == Markets.ExchangeV2) {\n            (LibOrder.Order memory sellOrder, bytes memory sellOrderSignature, uint purchaseAmount) = abi.decode(purchaseDetails.data, (LibOrder.Order, bytes, uint));\n            matchExchangeV2(sellOrder, sellOrderSignature, paymentAmount, purchaseAmount);\n        } else if (purchaseDetails.marketId == Markets.X2Y2) {\n            Ix2y2.RunInput memory input = abi.decode(purchaseDetails.data, (Ix2y2.RunInput));\n            x2y2.run{value : paymentAmount}(input);\n            for (uint i = 0; i < input.orders.length; i++) {\n                for (uint j = 0; j < input.orders[i].items.length; j++) {\n                    Ix2y2.Pair[] memory pairs = abi.decode(input.orders[i].items[j].data, (Ix2y2.Pair[]));\n                    for (uint256 k = 0; k < pairs.length; k++) {\n                        Ix2y2.Pair memory p = pairs[k];\n                        IERC721Upgradeable(address(p.token)).safeTransferFrom(address(this), _msgSender(), p.tokenId);\n                    }    \n                }\n            } \n        } else if (purchaseDetails.marketId == Markets.LooksRareOrders) {\n            (LibLooksRare.TakerOrder memory takerOrder, LibLooksRare.MakerOrder memory makerOrder, bytes4 typeNft) = abi.decode(purchaseDetails.data, (LibLooksRare.TakerOrder, LibLooksRare.MakerOrder, bytes4));\n            ILooksRare(looksRare).matchAskWithTakerBidUsingETHAndWETH{value : paymentAmount}(takerOrder, makerOrder);\n\n            if (typeNft == LibAsset.ERC721_ASSET_CLASS) {\n                IERC721Upgradeable(makerOrder.collection).safeTransferFrom(address(this), _msgSender(), makerOrder.tokenId);\n            } else if (typeNft == LibAsset.ERC1155_ASSET_CLASS) {\n                IERC1155Upgradeable(makerOrder.collection).safeTransferFrom(address(this), _msgSender(), makerOrder.tokenId, makerOrder.amount, \"\");\n            } else {\n                revert(\"Unknown token type\");\n            }\n        } else {\n            revert(\"Unknown purchase details\");\n        }\n\n        return (purchaseDetails.addFee) ? paymentAmount : 0;\n    }\n\n    function _transferFees(uint amount, uint originFeeFirst, uint originFeeSecond) internal {\n        _transferFee(amount, originFeeFirst);\n        _transferFee(amount, originFeeSecond);\n    }\n\n    function _transferFee(uint amount, uint fee) internal {\n        uint feeValue = amount.bp(uint(fee >> 160));\n        if (feeValue > 0) {\n            LibTransfer.transferEth(address(fee), feeValue);\n        }\n    }\n\n    function transferChange() internal {\n        uint ethAmount = address(this).balance;\n        if (ethAmount > 0) {\n            address(msg.sender).transferEth(ethAmount);\n        }\n    }\n\n    /*Transfer by ExchangeV2 sellOrder is in input, buyOrder is generated inside method */\n    function matchExchangeV2(\n        LibOrder.Order memory sellOrder,\n        bytes memory sellOrderSignature,\n        uint paymentAmount,\n        uint purchaseAmount\n    ) internal {\n        LibOrder.Order memory buyerOrder;\n        buyerOrder.maker = address(this);\n        buyerOrder.makeAsset = sellOrder.takeAsset;\n        buyerOrder.takeAsset.assetType = sellOrder.makeAsset.assetType;\n        buyerOrder.takeAsset.value = purchaseAmount;\n\n        /*set buyer in payout*/\n        LibPart.Part[] memory payout = new LibPart.Part[](1);\n        payout[0].account = _msgSender();\n        payout[0].value = 10000;\n        LibOrderDataV2.DataV2 memory data;\n        data.payouts = payout;\n        buyerOrder.data = abi.encode(data);\n        buyerOrder.dataType = bytes4(keccak256(\"V2\"));\n\n        IExchangeV2(exchangeV2).matchOrders{value : paymentAmount }(sellOrder, sellOrderSignature, buyerOrder, \"\");\n    }\n\n    receive() external payable {}\n\n    uint256[50] private __gap;\n}",
  "sourcePath": "/Users/ds/Documents/rarible/protocol-contracts/exchange-wrapper/contracts/ExchangeWrapper.sol",
  "compiler": {
    "name": "solc",
    "version": "0.7.6+commit.7338295f.Emscripten.clang"
  },
  "schemaVersion": "3.4.3",
  "updatedAt": "2022-08-08T08:16:28.133Z",
  "networkType": "ethereum",
  "devdoc": {
    "kind": "dev",
    "methods": {
      "bulkPurchase((uint8,uint256,bool,bytes)[],uint256,uint256,bool)": {
        "params": {
          "allowFail": "- true if fails while executing orders are allowed, false if fail of a single order means fail of the whole batch",
          "originFeeFirst": "- first optional fee (address + amount encoded in uint, first 12 bytes are amount, last 20 bytes are address)",
          "originFeeSecond": "- second optional fee (address + amount encoded in uint, first 12 bytes are amount, last 20 bytes are address)",
          "purchaseDetails": "- array of deatails about the purchases (more info in PurchaseDetails struct)"
        }
      },
      "onERC721Received(address,address,uint256,bytes)": {
        "details": "See {IERC721Receiver-onERC721Received}. Always returns `IERC721Receiver.onERC721Received.selector`."
      },
      "owner()": {
        "details": "Returns the address of the current owner."
      },
      "renounceOwnership()": {
        "details": "Leaves the contract without owner. It will not be possible to call `onlyOwner` functions anymore. Can only be called by the current owner. NOTE: Renouncing ownership will leave the contract without an owner, thereby removing any functionality that is only available to the owner."
      },
      "singlePurchase((uint8,uint256,bool,bytes),uint256,uint256)": {
        "params": {
          "originFeeFirst": "- first optional fee (address + amount encoded in uint, first 12 bytes are amount, last 20 bytes are address)",
          "originFeeSecond": "- second optional fee (address + amount encoded in uint, first 12 bytes are amount, last 20 bytes are address)",
          "purchaseDetails": "- deatails about the purchase (more info in PurchaseDetails struct)"
        }
      },
      "supportsInterface(bytes4)": {
        "details": "See {IERC165-supportsInterface}. Time complexity O(1), guaranteed to always use less than 30 000 gas."
      },
      "transferOwnership(address)": {
        "details": "Transfers ownership of the contract to a new account (`newOwner`). Can only be called by the current owner."
      }
    },
    "version": 1
  },
  "userdoc": {
    "kind": "user",
    "methods": {
      "bulkPurchase((uint8,uint256,bool,bytes)[],uint256,uint256,bool)": {
        "notice": "executes an array of purchases"
      },
      "singlePurchase((uint8,uint256,bool,bytes),uint256,uint256)": {
        "notice": "executes a single purchase"
      }
    },
    "version": 1
  }
}