{
  "contractName": "ExchangeV2",
  "abi": [
    {
      "anonymous": false,
      "inputs": [
        {
          "indexed": false,
          "internalType": "bytes32",
          "name": "hash",
          "type": "bytes32"
        }
      ],
      "name": "Cancel",
      "type": "event"
    },
    {
      "anonymous": false,
      "inputs": [
        {
          "indexed": false,
          "internalType": "bytes32",
          "name": "leftHash",
          "type": "bytes32"
        },
        {
          "indexed": false,
          "internalType": "bytes32",
          "name": "rightHash",
          "type": "bytes32"
        },
        {
          "indexed": false,
          "internalType": "uint256",
          "name": "newLeftFill",
          "type": "uint256"
        },
        {
          "indexed": false,
          "internalType": "uint256",
          "name": "newRightFill",
          "type": "uint256"
        }
      ],
      "name": "Match",
      "type": "event"
    },
    {
      "anonymous": false,
      "inputs": [
        {
          "indexed": true,
          "internalType": "bytes4",
          "name": "assetType",
          "type": "bytes4"
        },
        {
          "indexed": false,
          "internalType": "address",
          "name": "matcher",
          "type": "address"
        }
      ],
      "name": "MatcherChange",
      "type": "event"
    },
    {
      "anonymous": false,
      "inputs": [
        {
          "indexed": true,
          "internalType": "address",
          "name": "previousOwner",
          "type": "address"
        },
        {
          "indexed": true,
          "internalType": "address",
          "name": "newOwner",
          "type": "address"
        }
      ],
      "name": "OwnershipTransferred",
      "type": "event"
    },
    {
      "anonymous": false,
      "inputs": [
        {
          "indexed": true,
          "internalType": "bytes4",
          "name": "assetType",
          "type": "bytes4"
        },
        {
          "indexed": false,
          "internalType": "address",
          "name": "proxy",
          "type": "address"
        }
      ],
      "name": "ProxyChange",
      "type": "event"
    },
    {
      "inputs": [
        {
          "components": [
            {
              "internalType": "address",
              "name": "maker",
              "type": "address"
            },
            {
              "components": [
                {
                  "components": [
                    {
                      "internalType": "bytes4",
                      "name": "assetClass",
                      "type": "bytes4"
                    },
                    {
                      "internalType": "bytes",
                      "name": "data",
                      "type": "bytes"
                    }
                  ],
                  "internalType": "struct LibAsset.AssetType",
                  "name": "assetType",
                  "type": "tuple"
                },
                {
                  "internalType": "uint256",
                  "name": "value",
                  "type": "uint256"
                }
              ],
              "internalType": "struct LibAsset.Asset",
              "name": "makeAsset",
              "type": "tuple"
            },
            {
              "internalType": "address",
              "name": "taker",
              "type": "address"
            },
            {
              "components": [
                {
                  "components": [
                    {
                      "internalType": "bytes4",
                      "name": "assetClass",
                      "type": "bytes4"
                    },
                    {
                      "internalType": "bytes",
                      "name": "data",
                      "type": "bytes"
                    }
                  ],
                  "internalType": "struct LibAsset.AssetType",
                  "name": "assetType",
                  "type": "tuple"
                },
                {
                  "internalType": "uint256",
                  "name": "value",
                  "type": "uint256"
                }
              ],
              "internalType": "struct LibAsset.Asset",
              "name": "takeAsset",
              "type": "tuple"
            },
            {
              "internalType": "uint256",
              "name": "salt",
              "type": "uint256"
            },
            {
              "internalType": "uint256",
              "name": "start",
              "type": "uint256"
            },
            {
              "internalType": "uint256",
              "name": "end",
              "type": "uint256"
            },
            {
              "internalType": "bytes4",
              "name": "dataType",
              "type": "bytes4"
            },
            {
              "internalType": "bytes",
              "name": "data",
              "type": "bytes"
            }
          ],
          "internalType": "struct LibOrder.Order",
          "name": "order",
          "type": "tuple"
        }
      ],
      "name": "cancel",
      "outputs": [],
      "stateMutability": "nonpayable",
      "type": "function"
    },
    {
      "inputs": [
        {
          "components": [
            {
              "internalType": "address",
              "name": "bidMaker",
              "type": "address"
            },
            {
              "internalType": "uint256",
              "name": "bidNftAmount",
              "type": "uint256"
            },
            {
              "internalType": "bytes4",
              "name": "nftAssetClass",
              "type": "bytes4"
            },
            {
              "internalType": "bytes",
              "name": "nftData",
              "type": "bytes"
            },
            {
              "internalType": "uint256",
              "name": "bidPaymentAmount",
              "type": "uint256"
            },
            {
              "internalType": "address",
              "name": "paymentToken",
              "type": "address"
            },
            {
              "internalType": "uint256",
              "name": "bidSalt",
              "type": "uint256"
            },
            {
              "internalType": "uint256",
              "name": "bidStart",
              "type": "uint256"
            },
            {
              "internalType": "uint256",
              "name": "bidEnd",
              "type": "uint256"
            },
            {
              "internalType": "bytes4",
              "name": "bidDataType",
              "type": "bytes4"
            },
            {
              "internalType": "bytes",
              "name": "bidData",
              "type": "bytes"
            },
            {
              "internalType": "bytes",
              "name": "bidSignature",
              "type": "bytes"
            },
            {
              "internalType": "uint256",
              "name": "sellOrderPaymentAmount",
              "type": "uint256"
            },
            {
              "internalType": "uint256",
              "name": "sellOrderNftAmount",
              "type": "uint256"
            },
            {
              "internalType": "bytes",
              "name": "sellOrderData",
              "type": "bytes"
            }
          ],
          "internalType": "struct LibDirectTransfer.AcceptBid",
          "name": "direct",
          "type": "tuple"
        }
      ],
      "name": "directAcceptBid",
      "outputs": [],
      "stateMutability": "payable",
      "type": "function"
    },
    {
      "inputs": [
        {
          "components": [
            {
              "internalType": "address",
              "name": "sellOrderMaker",
              "type": "address"
            },
            {
              "internalType": "uint256",
              "name": "sellOrderNftAmount",
              "type": "uint256"
            },
            {
              "internalType": "bytes4",
              "name": "nftAssetClass",
              "type": "bytes4"
            },
            {
              "internalType": "bytes",
              "name": "nftData",
              "type": "bytes"
            },
            {
              "internalType": "uint256",
              "name": "sellOrderPaymentAmount",
              "type": "uint256"
            },
            {
              "internalType": "address",
              "name": "paymentToken",
              "type": "address"
            },
            {
              "internalType": "uint256",
              "name": "sellOrderSalt",
              "type": "uint256"
            },
            {
              "internalType": "uint256",
              "name": "sellOrderStart",
              "type": "uint256"
            },
            {
              "internalType": "uint256",
              "name": "sellOrderEnd",
              "type": "uint256"
            },
            {
              "internalType": "bytes4",
              "name": "sellOrderDataType",
              "type": "bytes4"
            },
            {
              "internalType": "bytes",
              "name": "sellOrderData",
              "type": "bytes"
            },
            {
              "internalType": "bytes",
              "name": "sellOrderSignature",
              "type": "bytes"
            },
            {
              "internalType": "uint256",
              "name": "buyOrderPaymentAmount",
              "type": "uint256"
            },
            {
              "internalType": "uint256",
              "name": "buyOrderNftAmount",
              "type": "uint256"
            },
            {
              "internalType": "bytes",
              "name": "buyOrderData",
              "type": "bytes"
            }
          ],
          "internalType": "struct LibDirectTransfer.Purchase",
          "name": "direct",
          "type": "tuple"
        }
      ],
      "name": "directPurchase",
      "outputs": [],
      "stateMutability": "payable",
      "type": "function"
    },
    {
      "inputs": [
        {
          "internalType": "bytes32",
          "name": "",
          "type": "bytes32"
        }
      ],
      "name": "fills",
      "outputs": [
        {
          "internalType": "uint256",
          "name": "",
          "type": "uint256"
        }
      ],
      "stateMutability": "view",
      "type": "function"
    },
    {
      "inputs": [
        {
          "components": [
            {
              "internalType": "address",
              "name": "maker",
              "type": "address"
            },
            {
              "components": [
                {
                  "components": [
                    {
                      "internalType": "bytes4",
                      "name": "assetClass",
                      "type": "bytes4"
                    },
                    {
                      "internalType": "bytes",
                      "name": "data",
                      "type": "bytes"
                    }
                  ],
                  "internalType": "struct LibAsset.AssetType",
                  "name": "assetType",
                  "type": "tuple"
                },
                {
                  "internalType": "uint256",
                  "name": "value",
                  "type": "uint256"
                }
              ],
              "internalType": "struct LibAsset.Asset",
              "name": "makeAsset",
              "type": "tuple"
            },
            {
              "internalType": "address",
              "name": "taker",
              "type": "address"
            },
            {
              "components": [
                {
                  "components": [
                    {
                      "internalType": "bytes4",
                      "name": "assetClass",
                      "type": "bytes4"
                    },
                    {
                      "internalType": "bytes",
                      "name": "data",
                      "type": "bytes"
                    }
                  ],
                  "internalType": "struct LibAsset.AssetType",
                  "name": "assetType",
                  "type": "tuple"
                },
                {
                  "internalType": "uint256",
                  "name": "value",
                  "type": "uint256"
                }
              ],
              "internalType": "struct LibAsset.Asset",
              "name": "takeAsset",
              "type": "tuple"
            },
            {
              "internalType": "uint256",
              "name": "salt",
              "type": "uint256"
            },
            {
              "internalType": "uint256",
              "name": "start",
              "type": "uint256"
            },
            {
              "internalType": "uint256",
              "name": "end",
              "type": "uint256"
            },
            {
              "internalType": "bytes4",
              "name": "dataType",
              "type": "bytes4"
            },
            {
              "internalType": "bytes",
              "name": "data",
              "type": "bytes"
            }
          ],
          "internalType": "struct LibOrder.Order",
          "name": "orderLeft",
          "type": "tuple"
        },
        {
          "internalType": "bytes",
          "name": "signatureLeft",
          "type": "bytes"
        },
        {
          "components": [
            {
              "internalType": "address",
              "name": "maker",
              "type": "address"
            },
            {
              "components": [
                {
                  "components": [
                    {
                      "internalType": "bytes4",
                      "name": "assetClass",
                      "type": "bytes4"
                    },
                    {
                      "internalType": "bytes",
                      "name": "data",
                      "type": "bytes"
                    }
                  ],
                  "internalType": "struct LibAsset.AssetType",
                  "name": "assetType",
                  "type": "tuple"
                },
                {
                  "internalType": "uint256",
                  "name": "value",
                  "type": "uint256"
                }
              ],
              "internalType": "struct LibAsset.Asset",
              "name": "makeAsset",
              "type": "tuple"
            },
            {
              "internalType": "address",
              "name": "taker",
              "type": "address"
            },
            {
              "components": [
                {
                  "components": [
                    {
                      "internalType": "bytes4",
                      "name": "assetClass",
                      "type": "bytes4"
                    },
                    {
                      "internalType": "bytes",
                      "name": "data",
                      "type": "bytes"
                    }
                  ],
                  "internalType": "struct LibAsset.AssetType",
                  "name": "assetType",
                  "type": "tuple"
                },
                {
                  "internalType": "uint256",
                  "name": "value",
                  "type": "uint256"
                }
              ],
              "internalType": "struct LibAsset.Asset",
              "name": "takeAsset",
              "type": "tuple"
            },
            {
              "internalType": "uint256",
              "name": "salt",
              "type": "uint256"
            },
            {
              "internalType": "uint256",
              "name": "start",
              "type": "uint256"
            },
            {
              "internalType": "uint256",
              "name": "end",
              "type": "uint256"
            },
            {
              "internalType": "bytes4",
              "name": "dataType",
              "type": "bytes4"
            },
            {
              "internalType": "bytes",
              "name": "data",
              "type": "bytes"
            }
          ],
          "internalType": "struct LibOrder.Order",
          "name": "orderRight",
          "type": "tuple"
        },
        {
          "internalType": "bytes",
          "name": "signatureRight",
          "type": "bytes"
        }
      ],
      "name": "matchOrders",
      "outputs": [],
      "stateMutability": "payable",
      "type": "function"
    },
    {
      "inputs": [],
      "name": "owner",
      "outputs": [
        {
          "internalType": "address",
          "name": "",
          "type": "address"
        }
      ],
      "stateMutability": "view",
      "type": "function"
    },
    {
      "inputs": [],
      "name": "renounceOwnership",
      "outputs": [],
      "stateMutability": "nonpayable",
      "type": "function"
    },
    {
      "inputs": [],
      "name": "royaltiesRegistry",
      "outputs": [
        {
          "internalType": "contract IRoyaltiesProvider",
          "name": "",
          "type": "address"
        }
      ],
      "stateMutability": "view",
      "type": "function"
    },
    {
      "inputs": [
        {
          "internalType": "bytes4",
          "name": "assetType",
          "type": "bytes4"
        },
        {
          "internalType": "address",
          "name": "matcher",
          "type": "address"
        }
      ],
      "name": "setAssetMatcher",
      "outputs": [],
      "stateMutability": "nonpayable",
      "type": "function"
    },
    {
      "inputs": [
        {
          "internalType": "contract IRoyaltiesProvider",
          "name": "newRoyaltiesRegistry",
          "type": "address"
        }
      ],
      "name": "setRoyaltiesRegistry",
      "outputs": [],
      "stateMutability": "nonpayable",
      "type": "function"
    },
    {
      "inputs": [
        {
          "internalType": "bytes4",
          "name": "assetType",
          "type": "bytes4"
        },
        {
          "internalType": "address",
          "name": "proxy",
          "type": "address"
        }
      ],
      "name": "setTransferProxy",
      "outputs": [],
      "stateMutability": "nonpayable",
      "type": "function"
    },
    {
      "inputs": [
        {
          "internalType": "address",
          "name": "newOwner",
          "type": "address"
        }
      ],
      "name": "transferOwnership",
      "outputs": [],
      "stateMutability": "nonpayable",
      "type": "function"
    },
    {
      "inputs": [
        {
          "internalType": "address",
          "name": "_transferProxy",
          "type": "address"
        },
        {
          "internalType": "address",
          "name": "_erc20TransferProxy",
          "type": "address"
        },
        {
          "internalType": "uint256",
          "name": "newProtocolFee",
          "type": "uint256"
        },
        {
          "internalType": "address",
          "name": "newDefaultFeeReceiver",
          "type": "address"
        },
        {
          "internalType": "contract IRoyaltiesProvider",
          "name": "newRoyaltiesProvider",
          "type": "address"
        }
      ],
      "name": "__ExchangeV2_init",
      "outputs": [],
      "stateMutability": "nonpayable",
      "type": "function"
    }
  ],
  "bytecode": "0x608060405234801561001057600080fd5b506153e7806100206000396000f3fe6080604052600436106100c25760003560e01c80636d8f06941161007f578063b39deb4611610059578063b39deb46146101d1578063e2864fe3146101f1578063e99a3f8014610211578063f2fde38b14610224576100c2565b80636d8f069414610185578063715018a6146101a75780638da5cb5b146101bc576100c2565b80630d5f7d35146100c75780631372a625146100dc57806320158c44146100fc57806330c642f1146101325780633be899221461015257806367d49a3b14610172575b600080fd5b6100da6100d53660046148b6565b610244565b005b3480156100e857600080fd5b506100da6100f7366004614797565b610569565b34801561010857600080fd5b5061011c61011736600461484a565b61063d565b6040516101299190614d1c565b60405180910390f35b34801561013e57600080fd5b506100da61014d36600461487e565b610650565b34801561015e57600080fd5b506100da61016d366004614542565b610720565b6100da6101803660046148b6565b6107a5565b34801561019157600080fd5b5061019a610a88565b6040516101299190614c93565b3480156101b357600080fd5b506100da610a98565b3480156101c857600080fd5b5061019a610b44565b3480156101dd57600080fd5b506100da6101ec36600461487e565b610b53565b3480156101fd57600080fd5b506100da61020c366004614b71565b610c17565b6100da61021f366004614ba3565b610cd8565b34801561023057600080fd5b506100da61023f366004614542565b610cee565b600061025e61025960c0840160a08501614542565b610df1565b6040805161012081019091529091506000908061027e6020860186614542565b6001600160a01b03168152602001604051806040016040528060405180604001604052808860400160208101906102b59190614862565b6001600160e01b03191681526020016102d160608a018a61518f565b8080601f0160208091040260200160405190810160405280939291908181526020018383808284376000920182905250939094525050918352506020888101359281019290925291835282810191909152604080518082018252868152608080890135938201939093529083015260c080870135606084015260e08701359183019190915261010086013560a08301520161037461014086016101208701614862565b6001600160e01b031916815260200161039161014086018661518f565b8080601f01602080910402602001604051908101604052809392919081815260200183838082843760009201829052509390945250506040805161012081018252828152815180830183528781526101808901356020828101919091528201528082018390528151608081018352949550919391925060608084019291829182820191829161042591908c01908c01614862565b6001600160e01b031916815260200161044160608b018b61518f565b8080601f0160208091040260200160405190810160405280939291908181526020018383808284376000920182905250939094525050918352506101a089013560209283015291835282018190526040820181905260608201526080016104b86104b361014088016101208901614862565b610e57565b6001600160e01b03191681526020016104d56101c087018761518f565b8080601f016020809104026020016040519081016040528093929190818152602001838380828437600092019190915250505091525090506105598261051f61016087018761518f565b8080601f016020809104026020016040519081016040528093929190818152602001838380828437600092019190915250610edd92505050565b6105638282610ef4565b50505050565b600054610100900460ff16806105825750610582611152565b80610590575060005460ff16155b6105cb5760405162461bcd60e51b815260040180806020018281038252602e815260200180615321602e913960400191505060405180910390fd5b600054610100900460ff161580156105f6576000805460ff1961ff0019909116610100171660011790555b6105fe611163565b610606611205565b61061086866112fe565b61061b8484846113a8565b610623611484565b8015610635576000805461ff00191690555b505050505050565b61012f6020526000908152604090205481565b610658611554565b6001600160a01b0316610669610b44565b6001600160a01b0316146106b2576040805162461bcd60e51b81526020600482018190526024820152600080516020615392833981519152604482015290519081900360640190fd5b6001600160e01b031982166000818152609760205260409081902080546001600160a01b0319166001600160a01b038516179055517f4b5aced933c0c9a88aeac3f0b3b72c5aaf75df8ebaf53225773248c4c315359390610714908490614c93565b60405180910390a25050565b610728611554565b6001600160a01b0316610739610b44565b6001600160a01b031614610782576040805162461bcd60e51b81526020600482018190526024820152600080516020615392833981519152604482015290519081900360640190fd5b61016280546001600160a01b0319166001600160a01b0392909216919091179055565b60006107ba61025960c0840160a08501614542565b604080516101208101909152909150600090806107da6020860186614542565b6001600160a01b0316815260200160405180604001604052808581526020018660800135815250815260200160006001600160a01b031681526020016040518060400160405280604051806040016040528088604001602081019061083f9190614862565b6001600160e01b031916815260200161085b60608a018a61518f565b8080601f016020809104026020016040519081016040528093929190818152602001838380828437600092019190915250505091525081526020878101359181019190915290825260c08601359082015260e0850135604082015261010085013560608201526080016108d661014086016101208701614862565b6001600160e01b03191681526020016108f361014086018661518f565b8080601f016020809104026020016040519081016040528093929190818152602001838380828437600092018290525093909452505060408051610120810182528281528151608081018352949550919391925060208301919081908181019081906109659060608c01908c01614862565b6001600160e01b031916815260200161098160608b018b61518f565b8080601f0160208091040260200160405190810160405280939291908181526020018383808284376000920182905250939094525050918352506101a08901356020928301529183528281018290526040805180820182528881526101808a013592810192909252830152606082018190526080820181905260a082015260c001610a176104b361014088016101208901614862565b6001600160e01b0319168152602001610a346101c087018761518f565b8080601f01602080910402602001604051908101604052809392919081815260200183838082843760009201919091525050509152509050610a7e8261051f61016087018761518f565b6105638183610ef4565b610162546001600160a01b031681565b610aa0611554565b6001600160a01b0316610ab1610b44565b6001600160a01b031614610afa576040805162461bcd60e51b81526020600482018190526024820152600080516020615392833981519152604482015290519081900360640190fd5b6033546040516000916001600160a01b0316907f8be0079c531659141344cd1fd0a4f28419497f9722a3daafe3b4186f6b6457e0908390a3603380546001600160a01b0319169055565b6033546001600160a01b031690565b610b5b611554565b6001600160a01b0316610b6c610b44565b6001600160a01b031614610bb5576040805162461bcd60e51b81526020600482018190526024820152600080516020615392833981519152604482015290519081900360640190fd5b6001600160e01b031982166000818152606560205260409081902080546001600160a01b0319166001600160a01b038516179055517fd2bf91075f105d0fd80328da28e20ebdad1c1261839711183bc29a44cbe6c72f90610714908490614c93565b80516001600160a01b0316610c2a611554565b6001600160a01b031614610c595760405162461bcd60e51b8152600401610c50906150ff565b60405180910390fd5b6080810151610c7a5760405162461bcd60e51b8152600401610c5090614e1b565b6000610c8582611558565b600081815261012f6020526040908190206000199055519091507fe8d9861dbc9c663ed3accd261bbe2fe01e0d3d9e5f51fa38523b265c7757a93a90610ccc908390614d1c565b60405180910390a15050565b610ce4848484846116e0565b6105638483610ef4565b610cf6611554565b6001600160a01b0316610d07610b44565b6001600160a01b031614610d50576040805162461bcd60e51b81526020600482018190526024820152600080516020615392833981519152604482015290519081900360640190fd5b6001600160a01b038116610d955760405162461bcd60e51b815260040180806020018281038252602681526020018061528c6026913960400191505060405180910390fd5b6033546040516001600160a01b038084169216907f8be0079c531659141344cd1fd0a4f28419497f9722a3daafe3b4186f6b6457e090600090a3603380546001600160a01b0319166001600160a01b0392909216919091179055565b610df9614146565b610e01614146565b6001600160a01b038316610e1e576355575f5d60e11b8152610e4f565b6322ba176160e21b8152604051610e39908490602001614c93565b60408051601f1981840301815291905260208201525b90505b919050565b60006001600160e01b03198216632fa3cfd360e01b1415610e9957507f1b18cdf6be079a715471a3705c2d89e1d730066ce14915cb307cc3e4a90c92d4610e52565b6001600160e01b03198216630d8c66fb60e11b1415610ed957507f2fa3cfd36fc2a11048e46a7dac1916c392731880ba073f2b7f10566b2fd6133e610e52565b5090565b610ee6826117ac565b610ef08282611876565b5050565b600080610f018484611b2a565b915091506000806000610f148787611bc3565b9250925092506000806110796040518060a0016040528060405180604001604052808b8152602001876000015181525081526020018760000151815260200187602001518152602001609760008b600001516001600160e01b0319166001600160e01b031916815260200190815260200160002060009054906101000a90046001600160a01b03166001600160a01b031681526020018b600001516001600160a01b03168152506040518060a0016040528060405180604001604052808b8152602001886020015181525081526020018760000151815260200187602001518152602001609760008b600001516001600160e01b0319166001600160e01b031916815260200190815260200160002060009054906101000a90046001600160a01b03166001600160a01b031681526020018b600001516001600160a01b03168152506110748a600001518a600001518e60e001518e60e001518c8c611c72565b611cc2565b885191935091506001600160e01b0319166355575f5d60e11b14156110f85785516001600160e01b0319166355575f5d60e11b14156110b757600080fd5b813410156110d75760405162461bcd60e51b8152600401610c50906150d7565b813411156110f3576110f36110ec3484611dc7565b3390611e29565b611147565b85516001600160e01b0319166355575f5d60e11b141561114757803410156111325760405162461bcd60e51b8152600401610c50906150d7565b80341115611147576111476110ec3483611dc7565b505050505050505050565b600061115d30611ec1565b15905090565b600054610100900460ff168061117c575061117c611152565b8061118a575060005460ff16155b6111c55760405162461bcd60e51b815260040180806020018281038252602e815260200180615321602e913960400191505060405180910390fd5b600054610100900460ff161580156111f0576000805460ff1961ff0019909116610100171660011790555b8015611202576000805461ff00191690555b50565b600054610100900460ff168061121e575061121e611152565b8061122c575060005460ff16155b6112675760405162461bcd60e51b815260040180806020018281038252602e815260200180615321602e913960400191505060405180910390fd5b600054610100900460ff16158015611292576000805460ff1961ff0019909116610100171660011790555b600061129c611554565b603380546001600160a01b0319166001600160a01b038316908117909155604051919250906000907f8be0079c531659141344cd1fd0a4f28419497f9722a3daafe3b4186f6b6457e0908290a3508015611202576000805461ff001916905550565b60976020527f4532fa16f071d6234e30e1a1e69b9806f04095edf37a1ca7a25c8d6af7861cc080546001600160a01b039283166001600160a01b0319918216179091557f30a684095c937b5aa064dcf94f9903a7d808e3efb22d8389dbd43080ad4ed3d5805493909216928116831790915563025ceed960e61b6000527f4b5822151ea34b7c8d9e37c3e466bcecb631efe6a9f26a4a4054110a93dd316f80549091169091179055565b600054610100900460ff16806113c157506113c1611152565b806113cf575060005460ff16155b61140a5760405162461bcd60e51b815260040180806020018281038252602e815260200180615321602e913960400191505060405180910390fd5b600054610100900460ff16158015611435576000805460ff1961ff0019909116610100171660011790555b61016184905561016380546001600160a01b038086166001600160a01b0319928316179092556101628054928516929091169190911790558015610563576000805461ff001916905550505050565b600054610100900460ff168061149d575061149d611152565b806114ab575060005460ff16155b6114e65760405162461bcd60e51b815260040180806020018281038252602e815260200180615321602e913960400191505060405180910390fd5b600054610100900460ff16158015611511576000805460ff1961ff0019909116610100171660011790555b6111f06040518060400160405280600881526020016745786368616e676560c01b815250604051806040016040528060018152602001601960f91b815250611ec7565b3390565b60e08101516000906001600160e01b031916632611a13360e11b148061158c575060e08201516001600160e01b0319908116145b156116015781516020830151516115a290611f87565b6060840151516115b190611f87565b846080015160405160200180856001600160a01b03168152602001848152602001838152602001828152602001945050505050604051602081830303815290604052805190602001209050610e52565b815160208301515161161290611f87565b60608401515161162190611f87565b846080015185610100015160405160200180866001600160a01b0316815260200185815260200184815260200183815260200180602001828103825283818151815260200191508051906020019080838360005b8381101561168d578181015183820152602001611675565b50505050905090810190601f1680156116ba5780820380516001836020036101000a031916815260200191505b509650505050505050604051602081830303815290604052805190602001209050610e52565b6116ea8484610edd565b6116f48282610edd565b60408401516001600160a01b0316156117505781516001600160a01b0316156117505783604001516001600160a01b031682600001516001600160a01b0316146117505760405162461bcd60e51b8152600401610c5090615094565b60408201516001600160a01b0316156105635783516001600160a01b0316156105635783600001516001600160a01b031682604001516001600160a01b0316146105635760405162461bcd60e51b8152600401610c5090614f03565b60a081015115806117c05750428160a00151105b611811576040805162461bcd60e51b815260206004820152601d60248201527f4f726465722073746172742076616c69646174696f6e206661696c6564000000604482015290519081900360640190fd5b60c081015115806118255750428160c00151115b611202576040805162461bcd60e51b815260206004820152601b60248201527f4f7264657220656e642076616c69646174696f6e206661696c65640000000000604482015290519081900360640190fd5b60808201516118fb5781516001600160a01b0316156118f65781516001600160a01b03166118a2611554565b6001600160a01b0316146118f6576040805162461bcd60e51b815260206004820152601660248201527536b0b5b2b91034b9903737ba103a3c1039b2b73232b960511b604482015290519081900360640190fd5b610ef0565b81516001600160a01b031661190e611554565b6001600160a01b031614610ef057600061192783611ff1565b905061193f83600001516001600160a01b0316611ec1565b15611a7b578251630b135d3f60e11b906001600160a01b0316631626ba7e611966846120e1565b856040518363ffffffff1660e01b81526004018083815260200180602001828103825283818151815260200191508051906020019080838360005b838110156119b95781810151838201526020016119a1565b50505050905090810190601f1680156119e65780820380516001836020036101000a031916815260200191505b50935050505060206040518083038186803b158015611a0457600080fd5b505afa158015611a18573d6000803e3d6000fd5b505050506040513d6020811015611a2e57600080fd5b50516001600160e01b03191614611a765760405162461bcd60e51b815260040180806020018281038252602b8152602001806152f6602b913960400191505060405180910390fd5b611b25565b82516001600160a01b0316611a9983611a93846120e1565b9061212d565b6001600160a01b031614611ade5760405162461bcd60e51b81526004018080602001828103825260228152602001806152d46022913960400191505060405180910390fd5b82516001600160a01b0316611b25576040805162461bcd60e51b815260206004820152600860248201526737379036b0b5b2b960c11b604482015290519081900360640190fd5b505050565b611b32614146565b611b3a614146565b602084015151606084015151611b5091906121ad565b80519092506001600160e01b031916611b7b5760405162461bcd60e51b8152600401610c5090615068565b606084015151602084015151611b9191906121ad565b80519091506001600160e01b031916611bbc5760405162461bcd60e51b8152600401610c5090615068565b9250929050565b611bcb61415e565b611bd361415e565b611bdb614188565b6000611be686611558565b90506000611bf386611558565b90506000611bff611554565b88519091506001600160a01b0316611c1e576001600160a01b03811688525b86516001600160a01b0316611c3a576001600160a01b03811687525b611c43886121ed565b9550611c4e876121ed565b9450611c66888885858a604001518a604001516123cd565b93505050509250925092565b611c7a6141a2565b611c848787612531565b81602001906002811115611c9457fe5b90816002811115611ca157fe5b81525050611cb6858585858560200151612602565b81529695505050505050565b8251602090810151835190910151600183602001516002811115611ce257fe5b1415611d2757611cf7858585600001516127b8565b9150611d22846000015160000151856000015160200151866080015188602001518860600151612a07565b611dbf565b600283602001516002811115611d3957fe5b1415611d7957611d4e848685600001516127b8565b9050611d22856000015160000151866000015160200151876080015187602001518960600151612a07565b845180516020918201516080880151928701516060890151611d9c949190612a07565b835180516020918201516080870151928801516060880151611dbf949190612a07565b935093915050565b600082821115611e1e576040805162461bcd60e51b815260206004820152601e60248201527f536166654d6174683a207375627472616374696f6e206f766572666c6f770000604482015290519081900360640190fd5b508082035b92915050565b6040516000906001600160a01b0384169083908381818185875af1925050503d8060008114611e74576040519150601f19603f3d011682016040523d82523d6000602084013e611e79565b606091505b5050905080611b25576040805162461bcd60e51b815260206004820152600f60248201526e1d1c985b9cd9995c8819985a5b1959608a1b604482015290519081900360640190fd5b3b151590565b600054610100900460ff1680611ee05750611ee0611152565b80611eee575060005460ff16155b611f295760405162461bcd60e51b815260040180806020018281038252602e815260200180615321602e913960400191505060405180910390fd5b600054610100900460ff16158015611f54576000805460ff1961ff0019909116610100171660011790555b825160208085019190912083519184019190912060c99190915560ca558015611b25576000805461ff0019169055505050565b8051602091820151805190830120604080517f452a0dc408cb0d27ffc3b3caff933a5208040a53a9dbecd8d89cad2c0d40e00c818601526001600160e01b031990931683820152606080840192909252805180840390920182526080909201909152805191012090565b60007f477ed43b8020849b755512278536c3766a3b4ab547519949a75f483372493f8d82600001516120268460200151612b8b565b84604001516120388660600151612b8b565b86608001518760a001518860c001518960e001518a610100015180519060200120604051602001808b81526020018a6001600160a01b03168152602001898152602001886001600160a01b03168152602001878152602001868152602001858152602001848152602001836001600160e01b03191681526020018281526020019a5050505050505050505050604051602081830303815290604052805190602001209050919050565b60006120eb612bfb565b82604051602001808061190160f01b81525060020183815260200182815260200192505050604051602081830303815290604052805190602001209050919050565b60008151604114612185576040805162461bcd60e51b815260206004820152601f60248201527f45434453413a20696e76616c6964207369676e6174757265206c656e67746800604482015290519081900360640190fd5b60208201516040830151606084015160001a6121a386828585612c3b565b9695505050505050565b6121b5614146565b60006121c18484612e88565b80519091506001600160e01b0319166121e6576121de8385612e88565b915050611e23565b9050611e23565b6121f561415e565b60e08201516001600160e01b031916632611a13360e11b141561224157600082610100015180602001905181019061222d9190614973565b8051835260209081015190830152506123b4565b60e08201516001600160e01b0319166323d235ef60e01b141561229957600082610100015180602001905181019061227991906149ff565b8051835260208082015190840152604090810151151590830152506123b4565b60e08201516001600160e01b031916632fa3cfd360e01b14156123115760008261010001518060200190518101906122d19190614b09565b90506122e081600001516130a4565b8252602081015160408201516122f69190613107565b602083015260016040830152606090810151908201526123b4565b60e08201516001600160e01b031916630d8c66fb60e11b14156123805760008261010001518060200190518101906123499190614aab565b905061235881600001516130a4565b82526020810151604082015161236e9190613107565b602083015250600060408201526123b4565b60e08201516001600160e01b0319908116141561239c576123b4565b60405162461bcd60e51b8152600401610c5090614ffa565b805151610e525781516123c69061326a565b8152919050565b6123d5614188565b60006123e5886080015187613305565b905060006123f7886080015187613305565b905060006124098a8a85858a8a61332a565b90506000816020015111801561241f5750805115155b61243b5760405162461bcd60e51b8152600401610c5090614f73565b60808a01511561248e57851561246d5780516124589084906133b0565b600089815261012f602052604090205561248e565b602081015161247d9084906133b0565b600089815261012f60205260409020555b6080890151156124e15784156124c35760208101516124ae9083906133b0565b600088815261012f60205260409020556124e1565b80516124d09083906133b0565b600088815261012f60205260409020555b602081015181516040517f956cd63ee4cdcd81fda5f0ec7c6c36dceda99e1b412f4a650a5d26055dc3c4509261251c928c928c929190614d25565b60405180910390a19998505050505050505050565b60006001600160e01b031983166355575f5d60e11b141561255457506001611e23565b6001600160e01b031982166355575f5d60e11b141561257557506002611e23565b6001600160e01b031983166322ba176160e21b141561259657506001611e23565b6001600160e01b031982166322ba176160e21b14156125b757506002611e23565b6001600160e01b0319831663025ceed960e61b14156125d857506001611e23565b6001600160e01b0319821663025ceed960e61b14156125f957506002611e23565b50600092915050565b60006001600160e01b03198616632fa3cfd360e01b1480159061263657506001600160e01b03198516632fa3cfd360e01b14155b801561265357506001600160e01b03198616630d8c66fb60e11b14155b801561267057506001600160e01b03198516630d8c66fb60e11b14155b1561267d575060006127af565b60006126918560200151856020015161340a565b9050600060018460028111156126a357fe5b1415612700575060608401516001600160e01b03198816630d8c66fb60e11b1480156126df57506001600160e01b03198716632fa3cfd360e01b145b6126fb5760405162461bcd60e51b8152600401610c5090614e49565b612771565b600284600281111561270e57fe5b1415612766575060608501516001600160e01b03198716630d8c66fb60e11b14801561274a57506001600160e01b03198816632fa3cfd360e01b145b6126fb5760405162461bcd60e51b8152600401610c5090614edb565b6000925050506127af565b6000811180156127815750818110155b801561278f57506103e88111155b6127ab5760405162461bcd60e51b8152600401610c5090614eb5565b9150505b95945050505050565b60006127d1846000015160200151856040015184613489565b84518051855151602080880151930151608089015160608a015195965086956127fe95928792909161352c565b9050846040015151600114801561281a57508360400151516001145b801561286f5750846040015160008151811061283257fe5b6020026020010151600001516001600160a01b0316846040015160008151811061285857fe5b6020026020010151600001516001600160a01b0316145b1561298557604080516001808252818301909252600091816020015b6128936141a2565b81526020019060019003908161288b57905050905084604001516000815181106128b957fe5b602002602001015160000151816000815181106128d257fe5b60209081029190910101516001600160a01b039091169052604086015180516000906128fa57fe5b602002602001015160200151856040015160008151811061291757fe5b602002602001015160200151018160008151811061293157fe5b6020026020010151602001906001600160601b031690816001600160601b03168152505061297b86600001516000015183886000015160200151848a608001518b60600151613631565b5091506129de9050565b6129af85600001516000015182876000015160200151886040015189608001518a60600151613631565b50855180516020909101516040870151608089015160608a01519495506129da948693929190613631565b5090505b6129ff85600001516000015182876080015187602001518960600151612a07565b509392505050565b6000825111612a285760405162461bcd60e51b8152600401610c5090614e71565b600084815b6001855103811015612af7576000612a6e868381518110612a4a57fe5b6020026020010151602001516001600160601b0316896136e690919063ffffffff16565b9050612aa3868381518110612a7f57fe5b6020026020010151602001516001600160601b0316856133b090919063ffffffff16565b93508015612aee57612ab58382611dc7565b9250612aee60405180604001604052808b81526020018381525088888581518110612adc57fe5b602002602001015160000151886136fe565b50600101612a2d565b50600084600186510381518110612b0a57fe5b60200260200101519050612b3481602001516001600160601b0316846133b090919063ffffffff16565b92508261271014612b575760405162461bcd60e51b8152600401610c5090615031565b8115612b8157612b8160405180604001604052808a815260200184815250878360000151876136fe565b5050505050505050565b60007fdb6f72e915676cfc289da13bc4ece054fd17b1df6d77ffc4a60510718c236b08612bbb8360000151611f87565b8360200151604051602001808481526020018381526020018281526020019350505050604051602081830303815290604052805190602001209050919050565b6000612c367f8b73c3c69bb8fe3d512ecc4cf759cc79239f7b179b0ffacaa9a75d522b39400f612c29613b06565b612c31613b0c565b613b12565b905090565b60007f7fffffffffffffffffffffffffffffff5d576e7357a4501ddfe92f46681b20a0821115612c9c5760405162461bcd60e51b81526004018080602001828103825260228152602001806152b26022913960400191505060405180910390fd5b6000601e8560ff161115612d76576004850360ff16601b1480612cc557506004850360ff16601c145b612d005760405162461bcd60e51b815260040180806020018281038252602281526020018061534f6022913960400191505060405180910390fd5b6001612d0b87613b74565b60048703868660405160008152602001604052604051808581526020018460ff1681526020018381526020018281526020019450505050506020604051602081039080840390855afa158015612d65573d6000803e3d6000fd5b505050602060405103519050612e2d565b8460ff16601b1480612d8b57508460ff16601c145b612dc65760405162461bcd60e51b815260040180806020018281038252602281526020018061534f6022913960400191505060405180910390fd5b60018686868660405160008152602001604052604051808581526020018460ff1681526020018381526020018281526020019450505050506020604051602081039080840390855afa158015612e20573d6000803e3d6000fd5b5050506020604051035190505b6001600160a01b0381166127af576040805162461bcd60e51b815260206004820152601860248201527f45434453413a20696e76616c6964207369676e61747572650000000000000000604482015290519081900360640190fd5b612e90614146565b825182516001600160e01b031982166355575f5d60e11b1415612efb576001600160e01b031981166355575f5d60e11b1415612ed0578492505050611e23565b5050604080518082018252600080825282516020818101909452908152918101919091529050611e23565b6001600160e01b031982166322ba176160e21b1415612f40576001600160e01b031981166322ba176160e21b1415612ed057612f378585613bc5565b92505050611e23565b6001600160e01b031982166339d690a360e11b1415612f7c576001600160e01b031981166339d690a360e11b1415612ed057612f378585613bc5565b6001600160e01b0319821663025ceed960e61b1415612fb8576001600160e01b0319811663025ceed960e61b1415612ed057612f378585613bc5565b6001600160e01b031982166000908152606560205260409020546001600160a01b0316801561306d576040516306d3f7cb60e41b81526001600160a01b03821690636d3f7cb09061300f9089908990600401615124565b60006040518083038186803b15801561302757600080fd5b505afa15801561303b573d6000803e3d6000fd5b505050506040513d6000823e601f3d908101601f1916820160405261306391908101906148e8565b9350505050611e23565b6001600160e01b0319838116908316141561308c576130638686613bc5565b60405162461bcd60e51b8152600401610c5090614dad565b6060808215610e4f5760408051600180825281830190925290816020015b6130ca6141a2565b8152602001906001900390816130c25790505090506130e883613c22565b816000815181106130f557fe5b60200260200101819052509050919050565b60608060008411801561311a5750600083115b15613195576040805160028082526060820190925290816020015b61313d6141a2565b81526020019060019003908161313557905050905061315b84613c22565b8160008151811061316857fe5b602002602001018190525061317c83613c22565b8160018151811061318957fe5b60200260200101819052505b6000841180156131a3575082155b156131fc5760408051600180825281830190925290816020015b6131c56141a2565b8152602001906001900390816131bd5790505090506131e384613c22565b816000815181106131f057fe5b60200260200101819052505b8315801561320a5750600083115b156132635760408051600180825281830190925290816020015b61322c6141a2565b81526020019060019003908161322457905050905061324a83613c22565b8160008151811061325757fe5b60200260200101819052505b9392505050565b60408051600180825281830190925260609160009190816020015b61328d6141a2565b81526020019060019003908161328557905050905082816000815181106132b057fe5b6020026020010151600001906001600160a01b031690816001600160a01b031681525050612710816000815181106132e457fe5b6020908102919091018101516001600160601b039092169101529050919050565b60008261331457506000611e23565b50600090815261012f6020526040902054919050565b613332614188565b600080613340898887613c4a565b915091506000806133528a8988613c4a565b91509150838111156133855761337a84848c60200151602001518d6060015160200151613cc3565b9450505050506121a3565b6133a18b60200151602001518c60600151602001518484613d48565b9b9a5050505050505050505050565b600082820183811015613263576040805162461bcd60e51b815260206004820152601b60248201527f536166654d6174683a206164646974696f6e206f766572666c6f770000000000604482015290519081900360640190fd5b600080805b845181101561344a5784818151811061342457fe5b6020026020010151602001516001600160601b031682019150808060010191505061340f565b5060005b83518110156129ff5783818151811061346357fe5b6020026020010151602001516001600160601b031682019150808060010191505061344e565b60008115613498575082613263565b6000805b8451811015613517576127108582815181106134b457fe5b6020026020010151602001516001600160601b031611156134e75760405162461bcd60e51b8152600401610c5090614fcb565b8481815181106134f357fe5b6020026020010151602001516001600160601b03168201915080600101905061349c565b506127af61352586836136e6565b86906133b0565b60008061353888613dce565b90508051600114801561354c575086516001145b801561359957508660008151811061356057fe5b6020026020010151600001516001600160a01b03168160008151811061358257fe5b6020026020010151600001516001600160a01b0316145b156135ea57611388816000815181106135ae57fe5b6020026020010151602001516001600160601b031611156135e15760405162461bcd60e51b8152600401610c5090614de4565b85915050613626565b6000806135fb8b8989868a8a613631565b915091506113888111156136215760405162461bcd60e51b8152600401610c5090614de4565b509150505b979650505050505050565b846000805b85518110156136da5761367286828151811061364e57fe5b6020026020010151602001516001600160601b0316836133b090919063ffffffff16565b915060006136a1848989858151811061368757fe5b6020026020010151602001516001600160601b0316613f43565b909450905080156136d1576136d160405180604001604052808c81526020018381525087898581518110612adc57fe5b50600101613636565b50965096945050505050565b60006132636127106136f88585613f65565b90613fbe565b8351516001600160e01b0319166339d690a360e11b141561384457600080856000015160200151806020019051810190613738919061476a565b9150915085602001516001146137605760405162461bcd60e51b8152600401610c5090614f47565b6001600160a01b0385163014156137d857604051632142170760e11b81526001600160a01b038316906342842e0e906137a190309088908690600401614ca7565b600060405180830381600087803b1580156137bb57600080fd5b505af11580156137cf573d6000803e3d6000fd5b5050505061383d565b604051637b84dc8360e11b81526001600160a01b0384169063f709b9069061380a908590899089908790600401614d83565b600060405180830381600087803b15801561382457600080fd5b505af1158015613838573d6000803e3d6000fd5b505050505b5050610563565b8351516001600160e01b0319166322ba176160e21b14156139a257600084600001516020015180602001905181019061387d919061455e565b90506001600160a01b03841630141561393457602085015160405163a9059cbb60e01b81526001600160a01b0383169163a9059cbb916138c1918791600401614d03565b602060405180830381600087803b1580156138db57600080fd5b505af11580156138ef573d6000803e3d6000fd5b505050506040513d601f19601f820116820180604052508101906139139190614830565b61392f5760405162461bcd60e51b8152600401610c5090614f9c565b61399c565b602085015160405163776062c360e01b81526001600160a01b0384169163776062c39161396991859189918991600401614d83565b600060405180830381600087803b15801561398357600080fd5b505af1158015613997573d6000803e3d6000fd5b505050505b50610563565b8351516001600160e01b03191663025ceed960e61b1415613a5f576000808560000151602001518060200190518101906139dc919061476a565b90925090506001600160a01b038516301415613a27576020860151604051637921219560e11b81526001600160a01b0384169163f242432a916137a191309189918791600401614ccb565b6020860151604051639c1c2ee960e01b81526001600160a01b03851691639c1c2ee99161380a9186918a918a91889190600401614d40565b8351516001600160e01b0319166355575f5d60e11b1415613aa8576001600160a01b0382163014613aa3576020840151613aa3906001600160a01b03841690611e29565b610563565b6040516354bc0cf160e01b81526001600160a01b038216906354bc0cf190613ad890879087908790600401615149565b600060405180830381600087803b158015613af257600080fd5b505af1158015612b81573d6000803e3d6000fd5b60c95490565b60ca5490565b6000838383613b1f614025565b3060405160200180868152602001858152602001848152602001838152602001826001600160a01b03168152602001955050505050506040516020818303038152906040528051906020012090509392505050565b604080517f19457468657265756d205369676e6564204d6573736167653a0a333200000000602080830191909152603c8083019490945282518083039094018452605c909101909152815191012090565b613bcd614146565b60208084015180519082012083820151805192019190912080821415613bf7578492505050611e23565b5050604080518082018252600080825282516020808201909452908152918101919091529392505050565b613c2a6141a2565b8115610e52576001600160a01b038216815260a09190911c602082015290565b6000808215613c89576020808601510151613c659085611dc7565b9150613c8285606001516020015186602001516020015184614029565b9050611dbf565b606085015160200151613c9c9085611dc7565b9050613cb985602001516020015186606001516020015183614029565b9150935093915050565b613ccb614188565b6000613cd8858585614029565b905085811115613d2f576040805162461bcd60e51b815260206004820152601860248201527f66696c6c4c6566743a20756e61626c6520746f2066696c6c0000000000000000604482015290519081900360640190fd5b5050604080518082019091529384525050602082015290565b613d50614188565b6000613d5d838787614029565b905083811115613db4576040805162461bcd60e51b815260206004820152601960248201527f66696c6c52696768743a20756e61626c6520746f2066696c6c00000000000000604482015290519081900360640190fd5b604080518082019091529283526020830152509392505050565b80516060906001600160e01b03191663025ceed960e61b1480613e02575081516001600160e01b0319166339d690a360e11b145b15613eb8576000808360200151806020019051810190613e22919061476a565b61016254604051634e53ee3d60e11b81529294509092506001600160a01b031690639ca7dc7a90613e599085908590600401614d03565b600060405180830381600087803b158015613e7357600080fd5b505af1158015613e87573d6000803e3d6000fd5b505050506040513d6000823e601f3d908101601f19168201604052613eaf91908101906147fe565b92505050610e52565b81516001600160e01b03191662737ea960e61b1415613ef95760008260200151806020019051810190613eeb919061457a565b608001519250610e52915050565b81516001600160e01b03191663d8f960c160e01b1415613f3b5760008260200151806020019051810190613f2d9190614677565b606001519250610e52915050565b506060919050565b600080613f5985613f5486866136e6565b61408f565b91509150935093915050565b600082613f7457506000611e23565b82820282848281613f8157fe5b04146132635760405162461bcd60e51b81526004018080602001828103825260218152602001806153716021913960400191505060405180910390fd5b6000808211614014576040805162461bcd60e51b815260206004820152601a60248201527f536166654d6174683a206469766973696f6e206279207a65726f000000000000604482015290519081900360640190fd5b81838161401d57fe5b049392505050565b4690565b60006140368484846140b7565b15614079576040805162461bcd60e51b815260206004820152600e60248201526d3937bab73234b7339032b93937b960911b604482015290519081900360640190fd5b614087836136f88685613f65565b949350505050565b600080828411156140ae576140a48484611dc7565b9150829050611bbc565b50600093915050565b6000826140fe576040805162461bcd60e51b815260206004820152601060248201526f6469766973696f6e206279207a65726f60801b604482015290519081900360640190fd5b811580614109575083155b1561411657506000613263565b6000838061412057fe5b858409905061412f8584613f65565b61413b826103e8613f65565b101595945050505050565b60408051808201909152600081526060602082015290565b60405180608001604052806060815260200160608152602001600015158152602001600081525090565b604051806040016040528060008152602001600081525090565b604080518082019091526000808252602082015290565b8035610e5281615260565b600082601f8301126141d4578081fd5b815160206141e96141e4836151f6565b6151d3565b82815281810190858301855b8581101561421e5761420c898684518b010161434d565b845292840192908401906001016141f5565b5090979650505050505050565b600082601f83011261423b578081fd5b8151602061424b6141e4836151f6565b82815281810190858301604080860288018501891015614269578687fd5b865b868110156142d85781838b031215614281578788fd5b81518281018181106001600160401b038211171561429b57fe5b835283516142a881615260565b8152838701516001600160601b03811681146142c257898afd5b818801528552938501939181019160010161426b565b509198975050505050505050565b80518015158114610e5257600080fd5b8035610e5281615275565b600082601f830112614311578081fd5b813561431f6141e482615213565b818152846020838601011115614333578283fd5b816020850160208301379081016020019190915292915050565b600082601f83011261435d578081fd5b815161436b6141e482615213565b81815284602083860101111561437f578283fd5b614087826020830160208701615234565b60006101e082840312156143a2578081fd5b50919050565b600060408083850312156143ba578182fd5b80518181016001600160401b0382821081831117156143d557fe5b8184528294508535818111156143ea57600080fd5b86018088038513156143fb57600080fd5b60808401838110838211171561440d57fe5b90945283359361441c85615275565b9382526020840135938185111561443257600080fd5b61443e88868301614301565b60608501525050815260209384013593019290925292915050565b600061012080838503121561446c578182fd5b614475816151d3565b915050614481826141b9565b815260208201356001600160401b038082111561449d57600080fd5b6144a9858386016143a8565b60208401526144ba604085016141b9565b604084015260608401359150808211156144d357600080fd5b6144df858386016143a8565b60608401526080840135608084015260a084013560a084015260c084013560c084015261450e60e085016142f6565b60e08401526101009150818401358181111561452957600080fd5b61453586828701614301565b8385015250505092915050565b600060208284031215614553578081fd5b813561326381615260565b60006020828403121561456f578081fd5b815161326381615260565b6000806040838503121561458c578081fd5b825161459781615260565b60208401519092506001600160401b03808211156145b3578283fd5b9084019060c082870312156145c6578283fd5b6145d060c06151d3565b825181526020830151828111156145e5578485fd5b6145f18882860161434d565b60208301525060408301516040820152606083015182811115614612578485fd5b61461e8882860161422b565b606083015250608083015182811115614635578485fd5b6146418882860161422b565b60808301525060a083015182811115614658578485fd5b614664888286016141c4565b60a0830152508093505050509250929050565b60008060408385031215614689578182fd5b825161469481615260565b60208401519092506001600160401b03808211156146b0578283fd5b9084019060a082870312156146c3578283fd5b6146cd60a06151d3565b825181526020830151828111156146e2578485fd5b6146ee8882860161434d565b602083015250604083015182811115614705578485fd5b6147118882860161422b565b604083015250606083015182811115614728578485fd5b6147348882860161422b565b60608301525060808301518281111561474b578485fd5b614757888286016141c4565b6080830152508093505050509250929050565b6000806040838503121561477c578182fd5b825161478781615260565b6020939093015192949293505050565b600080600080600060a086880312156147ae578081fd5b85356147b981615260565b945060208601356147c981615260565b93506040860135925060608601356147e081615260565b915060808601356147f081615260565b809150509295509295909350565b60006020828403121561480f578081fd5b81516001600160401b03811115614824578182fd5b6140878482850161422b565b600060208284031215614841578081fd5b613263826142e6565b60006020828403121561485b578081fd5b5035919050565b600060208284031215614873578081fd5b813561326381615275565b60008060408385031215614890578182fd5b823561489b81615275565b915060208301356148ab81615260565b809150509250929050565b6000602082840312156148c7578081fd5b81356001600160401b038111156148dc578182fd5b61408784828501614390565b6000602082840312156148f9578081fd5b81516001600160401b038082111561490f578283fd5b9083019060408286031215614922578283fd5b60405160408101818110838211171561493757fe5b604052825161494581615275565b8152602083015182811115614958578485fd5b6149648782860161434d565b60208301525095945050505050565b600060208284031215614984578081fd5b81516001600160401b038082111561499a578283fd5b90830190604082860312156149ad578283fd5b6040516040810181811083821117156149c257fe5b6040528251828111156149d3578485fd5b6149df8782860161422b565b8252506020830151828111156149f3578485fd5b6149648782860161422b565b600060208284031215614a10578081fd5b81516001600160401b0380821115614a26578283fd5b9083019060608286031215614a39578283fd5b604051606081018181108382111715614a4e57fe5b604052825182811115614a5f578485fd5b614a6b8782860161422b565b825250602083015182811115614a7f578485fd5b614a8b8782860161422b565b602083015250614a9d604084016142e6565b604082015295945050505050565b600060808284031215614abc578081fd5b604051608081018181106001600160401b0382111715614ad857fe5b8060405250825181526020830151602082015260408301516040820152606083015160608201528091505092915050565b600060a08284031215614b1a578081fd5b60405160a081018181106001600160401b0382111715614b3657fe5b806040525082518152602083015160208201526040830151604082015260608301516060820152608083015160808201528091505092915050565b600060208284031215614b82578081fd5b81356001600160401b03811115614b97578182fd5b61408784828501614459565b60008060008060808587031215614bb8578182fd5b84356001600160401b0380821115614bce578384fd5b614bda88838901614459565b95506020870135915080821115614bef578384fd5b614bfb88838901614301565b94506040870135915080821115614c10578384fd5b614c1c88838901614459565b93506060870135915080821115614c31578283fd5b50614c3e87828801614301565b91505092959194509250565b600063ffffffff60e01b82511683526020820151604060208501528051806040860152614c7e816060870160208501615234565b601f01601f1916939093016060019392505050565b6001600160a01b0391909116815260200190565b6001600160a01b039384168152919092166020820152604081019190915260600190565b6001600160a01b0394851681529290931660208301526040820152606081019190915260a06080820181905260009082015260c00190565b6001600160a01b03929092168252602082015260400190565b90815260200190565b93845260208401929092526040830152606082015260800190565b6001600160a01b03958616815293851660208501529190931660408301526060820192909252608081019190915260c060a0820181905260009082015260e00190565b6001600160a01b039485168152928416602084015292166040820152606081019190915260800190565b60208082526017908201527f6e6f7420666f756e64204941737365744d617463686572000000000000000000604082015260600190565b6020808252601d908201527f526f79616c746965732061726520746f6f206869676820283e35302529000000604082015260600190565b6020808252601490820152730c081cd85b1d0818d85b89dd081899481d5cd95960621b604082015260600190565b6020808252600e908201526d77726f6e6720563320747970653160901b604082015260600190565b60208082526024908201527f7472616e736665725061796f7574733a206e6f7468696e6720746f207472616e60408201526339b332b960e11b606082015260800190565b6020808252600c908201526b77726f6e67206d617846656560a01b604082015260600190565b6020808252600e908201526d3bb937b733902b19903a3cb8329960911b604082015260600190565b60208082526024908201527f72696768744f726465722e74616b657220766572696669636174696f6e2066616040820152631a5b195960e21b606082015260800190565b60208082526012908201527132b9319b9918903b30b63ab29032b93937b960711b604082015260600190565b6020808252600f908201526e1b9bdd1a1a5b99c81d1bc8199a5b1b608a1b604082015260600190565b602080825260159082015274195c98cc8c081d1c985b9cd9995c8819985a5b1959605a1b604082015260600190565b6020808252601590820152746f726967696e2066656520697320746f6f2062696760581b604082015260600190565b60208082526017908201527f556e6b6e6f776e204f7264657220646174612074797065000000000000000000604082015260600190565b6020808252601e908201527f53756d207061796f75747320427073206e6f7420657175616c20313030250000604082015260600190565b6020808252601290820152710c2e6e6cae8e640c8dedc4ee840dac2e8c6d60731b604082015260600190565b60208082526023908201527f6c6566744f726465722e74616b657220766572696669636174696f6e206661696040820152621b195960ea1b606082015260800190565b6020808252600e908201526d0dcdee840cadcdeeaced040cae8d60931b604082015260600190565b6020808252600b908201526a3737ba10309036b0b5b2b960a91b604082015260600190565b6000604082526151376040830185614c4a565b82810360208401526127af8185614c4a565b60006060825284516040606084015261516560a0840182614c4a565b60209687015160808501526001600160a01b03958616968401969096525050911660409091015290565b6000808335601e198436030181126151a5578283fd5b8301803591506001600160401b038211156151be578283fd5b602001915036819003821315611bbc57600080fd5b6040518181016001600160401b03811182821017156151ee57fe5b604052919050565b60006001600160401b0382111561520957fe5b5060209081020190565b60006001600160401b0382111561522657fe5b50601f01601f191660200190565b60005b8381101561524f578181015183820152602001615237565b838111156105635750506000910152565b6001600160a01b038116811461120257600080fd5b6001600160e01b03198116811461120257600080fdfe4f776e61626c653a206e6577206f776e657220697320746865207a65726f206164647265737345434453413a20696e76616c6964207369676e6174757265202773272076616c75656f72646572207369676e617475726520766572696669636174696f6e206572726f72636f6e7472616374206f72646572207369676e617475726520766572696669636174696f6e206572726f72496e697469616c697a61626c653a20636f6e747261637420697320616c726561647920696e697469616c697a656445434453413a20696e76616c6964207369676e6174757265202776272076616c7565536166654d6174683a206d756c7469706c69636174696f6e206f766572666c6f774f776e61626c653a2063616c6c6572206973206e6f7420746865206f776e6572a2646970667358221220eb81612e2c7685ed1d8612f65fed0d0bcd3759057fc60373b3d81d9833a8b64364736f6c63430007060033",
  "immutableReferences": {},
  "source": "// SPDX-License-Identifier: MIT\n\npragma solidity 0.7.6;\npragma abicoder v2;\n\nimport \"./ExchangeV2Core.sol\";\nimport \"@rarible/transfer-manager/contracts/RaribleTransferManager.sol\";\n\ncontract ExchangeV2 is ExchangeV2Core, RaribleTransferManager {\n    function __ExchangeV2_init(\n        address _transferProxy,\n        address _erc20TransferProxy,\n        uint newProtocolFee,\n        address newDefaultFeeReceiver,\n        IRoyaltiesProvider newRoyaltiesProvider\n    ) external initializer {\n        __Context_init_unchained();\n        __Ownable_init_unchained();\n        __TransferExecutor_init_unchained(_transferProxy, _erc20TransferProxy);\n        __RaribleTransferManager_init_unchained(newProtocolFee, newDefaultFeeReceiver, newRoyaltiesProvider);\n        __OrderValidator_init_unchained();\n    }\n}\n",
  "sourcePath": "@rarible/exchange-v2/contracts/ExchangeV2.sol",
  "compiler": {
    "name": "solc",
    "version": "0.7.6+commit.7338295f.Emscripten.clang"
  },
  "schemaVersion": "3.4.3",
  "updatedAt": "2023-10-10T10:12:11.747Z",
  "devdoc": {
    "kind": "dev",
    "methods": {
      "directAcceptBid((address,uint256,bytes4,bytes,uint256,address,uint256,uint256,uint256,bytes4,bytes,bytes,uint256,uint256,bytes))": {
        "details": "function, generate sellOrder and buyOrder from parameters and call validateAndMatch() for accept bid transaction",
        "params": {
          "direct": "struct with parameters for accept bid operation"
        }
      },
      "directPurchase((address,uint256,bytes4,bytes,uint256,address,uint256,uint256,uint256,bytes4,bytes,bytes,uint256,uint256,bytes))": {
        "details": "function, generate sellOrder and buyOrder from parameters and call validateAndMatch() for purchase transaction"
      },
      "owner()": {
        "details": "Returns the address of the current owner."
      },
      "renounceOwnership()": {
        "details": "Leaves the contract without owner. It will not be possible to call `onlyOwner` functions anymore. Can only be called by the current owner. NOTE: Renouncing ownership will leave the contract without an owner, thereby removing any functionality that is only available to the owner."
      },
      "transferOwnership(address)": {
        "details": "Transfers ownership of the contract to a new account (`newOwner`). Can only be called by the current owner."
      }
    },
    "version": 1
  },
  "userdoc": {
    "kind": "user",
    "methods": {},
    "version": 1
  }
}