{
  "contractName": "ExchangeV2",
  "abi": [
    {
      "anonymous": false,
      "inputs": [
        {
          "indexed": false,
          "internalType": "bytes32",
          "name": "hash",
          "type": "bytes32"
        }
      ],
      "name": "Cancel",
      "type": "event"
    },
    {
      "anonymous": false,
      "inputs": [
        {
          "indexed": false,
          "internalType": "bytes32",
          "name": "leftHash",
          "type": "bytes32"
        },
        {
          "indexed": false,
          "internalType": "bytes32",
          "name": "rightHash",
          "type": "bytes32"
        },
        {
          "indexed": false,
          "internalType": "uint256",
          "name": "newLeftFill",
          "type": "uint256"
        },
        {
          "indexed": false,
          "internalType": "uint256",
          "name": "newRightFill",
          "type": "uint256"
        }
      ],
      "name": "Match",
      "type": "event"
    },
    {
      "anonymous": false,
      "inputs": [
        {
          "indexed": true,
          "internalType": "bytes4",
          "name": "assetType",
          "type": "bytes4"
        },
        {
          "indexed": false,
          "internalType": "address",
          "name": "matcher",
          "type": "address"
        }
      ],
      "name": "MatcherChange",
      "type": "event"
    },
    {
      "anonymous": false,
      "inputs": [
        {
          "indexed": true,
          "internalType": "address",
          "name": "previousOwner",
          "type": "address"
        },
        {
          "indexed": true,
          "internalType": "address",
          "name": "newOwner",
          "type": "address"
        }
      ],
      "name": "OwnershipTransferred",
      "type": "event"
    },
    {
      "anonymous": false,
      "inputs": [
        {
          "indexed": false,
          "internalType": "uint256",
          "name": "oldValue",
          "type": "uint256"
        },
        {
          "indexed": false,
          "internalType": "uint256",
          "name": "newValue",
          "type": "uint256"
        }
      ],
      "name": "ProtocolFeeChanged",
      "type": "event"
    },
    {
      "anonymous": false,
      "inputs": [
        {
          "indexed": true,
          "internalType": "bytes4",
          "name": "assetType",
          "type": "bytes4"
        },
        {
          "indexed": false,
          "internalType": "address",
          "name": "proxy",
          "type": "address"
        }
      ],
      "name": "ProxyChange",
      "type": "event"
    },
    {
      "inputs": [
        {
          "components": [
            {
              "internalType": "address",
              "name": "maker",
              "type": "address"
            },
            {
              "components": [
                {
                  "components": [
                    {
                      "internalType": "bytes4",
                      "name": "assetClass",
                      "type": "bytes4"
                    },
                    {
                      "internalType": "bytes",
                      "name": "data",
                      "type": "bytes"
                    }
                  ],
                  "internalType": "struct LibAsset.AssetType",
                  "name": "assetType",
                  "type": "tuple"
                },
                {
                  "internalType": "uint256",
                  "name": "value",
                  "type": "uint256"
                }
              ],
              "internalType": "struct LibAsset.Asset",
              "name": "makeAsset",
              "type": "tuple"
            },
            {
              "internalType": "address",
              "name": "taker",
              "type": "address"
            },
            {
              "components": [
                {
                  "components": [
                    {
                      "internalType": "bytes4",
                      "name": "assetClass",
                      "type": "bytes4"
                    },
                    {
                      "internalType": "bytes",
                      "name": "data",
                      "type": "bytes"
                    }
                  ],
                  "internalType": "struct LibAsset.AssetType",
                  "name": "assetType",
                  "type": "tuple"
                },
                {
                  "internalType": "uint256",
                  "name": "value",
                  "type": "uint256"
                }
              ],
              "internalType": "struct LibAsset.Asset",
              "name": "takeAsset",
              "type": "tuple"
            },
            {
              "internalType": "uint256",
              "name": "salt",
              "type": "uint256"
            },
            {
              "internalType": "uint256",
              "name": "start",
              "type": "uint256"
            },
            {
              "internalType": "uint256",
              "name": "end",
              "type": "uint256"
            },
            {
              "internalType": "bytes4",
              "name": "dataType",
              "type": "bytes4"
            },
            {
              "internalType": "bytes",
              "name": "data",
              "type": "bytes"
            }
          ],
          "internalType": "struct LibOrder.Order",
          "name": "order",
          "type": "tuple"
        }
      ],
      "name": "cancel",
      "outputs": [],
      "stateMutability": "nonpayable",
      "type": "function"
    },
    {
      "inputs": [],
      "name": "defaultFeeReceiver",
      "outputs": [
        {
          "internalType": "address",
          "name": "",
          "type": "address"
        }
      ],
      "stateMutability": "view",
      "type": "function"
    },
    {
      "inputs": [
        {
          "components": [
            {
              "internalType": "address",
              "name": "bidMaker",
              "type": "address"
            },
            {
              "internalType": "uint256",
              "name": "bidNftAmount",
              "type": "uint256"
            },
            {
              "internalType": "bytes4",
              "name": "nftAssetClass",
              "type": "bytes4"
            },
            {
              "internalType": "bytes",
              "name": "nftData",
              "type": "bytes"
            },
            {
              "internalType": "uint256",
              "name": "bidPaymentAmount",
              "type": "uint256"
            },
            {
              "internalType": "address",
              "name": "paymentToken",
              "type": "address"
            },
            {
              "internalType": "uint256",
              "name": "bidSalt",
              "type": "uint256"
            },
            {
              "internalType": "uint256",
              "name": "bidStart",
              "type": "uint256"
            },
            {
              "internalType": "uint256",
              "name": "bidEnd",
              "type": "uint256"
            },
            {
              "internalType": "bytes4",
              "name": "bidDataType",
              "type": "bytes4"
            },
            {
              "internalType": "bytes",
              "name": "bidData",
              "type": "bytes"
            },
            {
              "internalType": "bytes",
              "name": "bidSignature",
              "type": "bytes"
            },
            {
              "internalType": "uint256",
              "name": "sellOrderPaymentAmount",
              "type": "uint256"
            },
            {
              "internalType": "uint256",
              "name": "sellOrderNftAmount",
              "type": "uint256"
            },
            {
              "internalType": "bytes",
              "name": "sellOrderData",
              "type": "bytes"
            }
          ],
          "internalType": "struct LibDirectTransfer.AcceptBid",
          "name": "direct",
          "type": "tuple"
        }
      ],
      "name": "directAcceptBid",
      "outputs": [],
      "stateMutability": "payable",
      "type": "function"
    },
    {
      "inputs": [
        {
          "components": [
            {
              "internalType": "address",
              "name": "sellOrderMaker",
              "type": "address"
            },
            {
              "internalType": "uint256",
              "name": "sellOrderNftAmount",
              "type": "uint256"
            },
            {
              "internalType": "bytes4",
              "name": "nftAssetClass",
              "type": "bytes4"
            },
            {
              "internalType": "bytes",
              "name": "nftData",
              "type": "bytes"
            },
            {
              "internalType": "uint256",
              "name": "sellOrderPaymentAmount",
              "type": "uint256"
            },
            {
              "internalType": "address",
              "name": "paymentToken",
              "type": "address"
            },
            {
              "internalType": "uint256",
              "name": "sellOrderSalt",
              "type": "uint256"
            },
            {
              "internalType": "uint256",
              "name": "sellOrderStart",
              "type": "uint256"
            },
            {
              "internalType": "uint256",
              "name": "sellOrderEnd",
              "type": "uint256"
            },
            {
              "internalType": "bytes4",
              "name": "sellOrderDataType",
              "type": "bytes4"
            },
            {
              "internalType": "bytes",
              "name": "sellOrderData",
              "type": "bytes"
            },
            {
              "internalType": "bytes",
              "name": "sellOrderSignature",
              "type": "bytes"
            },
            {
              "internalType": "uint256",
              "name": "buyOrderPaymentAmount",
              "type": "uint256"
            },
            {
              "internalType": "uint256",
              "name": "buyOrderNftAmount",
              "type": "uint256"
            },
            {
              "internalType": "bytes",
              "name": "buyOrderData",
              "type": "bytes"
            }
          ],
          "internalType": "struct LibDirectTransfer.Purchase",
          "name": "direct",
          "type": "tuple"
        }
      ],
      "name": "directPurchase",
      "outputs": [],
      "stateMutability": "payable",
      "type": "function"
    },
    {
      "inputs": [
        {
          "internalType": "address",
          "name": "",
          "type": "address"
        }
      ],
      "name": "feeReceivers",
      "outputs": [
        {
          "internalType": "address",
          "name": "",
          "type": "address"
        }
      ],
      "stateMutability": "view",
      "type": "function"
    },
    {
      "inputs": [
        {
          "internalType": "bytes32",
          "name": "",
          "type": "bytes32"
        }
      ],
      "name": "fills",
      "outputs": [
        {
          "internalType": "uint256",
          "name": "",
          "type": "uint256"
        }
      ],
      "stateMutability": "view",
      "type": "function"
    },
    {
      "inputs": [
        {
          "components": [
            {
              "internalType": "address",
              "name": "maker",
              "type": "address"
            },
            {
              "components": [
                {
                  "components": [
                    {
                      "internalType": "bytes4",
                      "name": "assetClass",
                      "type": "bytes4"
                    },
                    {
                      "internalType": "bytes",
                      "name": "data",
                      "type": "bytes"
                    }
                  ],
                  "internalType": "struct LibAsset.AssetType",
                  "name": "assetType",
                  "type": "tuple"
                },
                {
                  "internalType": "uint256",
                  "name": "value",
                  "type": "uint256"
                }
              ],
              "internalType": "struct LibAsset.Asset",
              "name": "makeAsset",
              "type": "tuple"
            },
            {
              "internalType": "address",
              "name": "taker",
              "type": "address"
            },
            {
              "components": [
                {
                  "components": [
                    {
                      "internalType": "bytes4",
                      "name": "assetClass",
                      "type": "bytes4"
                    },
                    {
                      "internalType": "bytes",
                      "name": "data",
                      "type": "bytes"
                    }
                  ],
                  "internalType": "struct LibAsset.AssetType",
                  "name": "assetType",
                  "type": "tuple"
                },
                {
                  "internalType": "uint256",
                  "name": "value",
                  "type": "uint256"
                }
              ],
              "internalType": "struct LibAsset.Asset",
              "name": "takeAsset",
              "type": "tuple"
            },
            {
              "internalType": "uint256",
              "name": "salt",
              "type": "uint256"
            },
            {
              "internalType": "uint256",
              "name": "start",
              "type": "uint256"
            },
            {
              "internalType": "uint256",
              "name": "end",
              "type": "uint256"
            },
            {
              "internalType": "bytes4",
              "name": "dataType",
              "type": "bytes4"
            },
            {
              "internalType": "bytes",
              "name": "data",
              "type": "bytes"
            }
          ],
          "internalType": "struct LibOrder.Order",
          "name": "orderLeft",
          "type": "tuple"
        },
        {
          "internalType": "bytes",
          "name": "signatureLeft",
          "type": "bytes"
        },
        {
          "components": [
            {
              "internalType": "address",
              "name": "maker",
              "type": "address"
            },
            {
              "components": [
                {
                  "components": [
                    {
                      "internalType": "bytes4",
                      "name": "assetClass",
                      "type": "bytes4"
                    },
                    {
                      "internalType": "bytes",
                      "name": "data",
                      "type": "bytes"
                    }
                  ],
                  "internalType": "struct LibAsset.AssetType",
                  "name": "assetType",
                  "type": "tuple"
                },
                {
                  "internalType": "uint256",
                  "name": "value",
                  "type": "uint256"
                }
              ],
              "internalType": "struct LibAsset.Asset",
              "name": "makeAsset",
              "type": "tuple"
            },
            {
              "internalType": "address",
              "name": "taker",
              "type": "address"
            },
            {
              "components": [
                {
                  "components": [
                    {
                      "internalType": "bytes4",
                      "name": "assetClass",
                      "type": "bytes4"
                    },
                    {
                      "internalType": "bytes",
                      "name": "data",
                      "type": "bytes"
                    }
                  ],
                  "internalType": "struct LibAsset.AssetType",
                  "name": "assetType",
                  "type": "tuple"
                },
                {
                  "internalType": "uint256",
                  "name": "value",
                  "type": "uint256"
                }
              ],
              "internalType": "struct LibAsset.Asset",
              "name": "takeAsset",
              "type": "tuple"
            },
            {
              "internalType": "uint256",
              "name": "salt",
              "type": "uint256"
            },
            {
              "internalType": "uint256",
              "name": "start",
              "type": "uint256"
            },
            {
              "internalType": "uint256",
              "name": "end",
              "type": "uint256"
            },
            {
              "internalType": "bytes4",
              "name": "dataType",
              "type": "bytes4"
            },
            {
              "internalType": "bytes",
              "name": "data",
              "type": "bytes"
            }
          ],
          "internalType": "struct LibOrder.Order",
          "name": "orderRight",
          "type": "tuple"
        },
        {
          "internalType": "bytes",
          "name": "signatureRight",
          "type": "bytes"
        }
      ],
      "name": "matchOrders",
      "outputs": [],
      "stateMutability": "payable",
      "type": "function"
    },
    {
      "inputs": [],
      "name": "owner",
      "outputs": [
        {
          "internalType": "address",
          "name": "",
          "type": "address"
        }
      ],
      "stateMutability": "view",
      "type": "function"
    },
    {
      "inputs": [],
      "name": "protocolFee",
      "outputs": [
        {
          "internalType": "uint256",
          "name": "",
          "type": "uint256"
        }
      ],
      "stateMutability": "view",
      "type": "function"
    },
    {
      "inputs": [],
      "name": "renounceOwnership",
      "outputs": [],
      "stateMutability": "nonpayable",
      "type": "function"
    },
    {
      "inputs": [],
      "name": "royaltiesRegistry",
      "outputs": [
        {
          "internalType": "contract IRoyaltiesProvider",
          "name": "",
          "type": "address"
        }
      ],
      "stateMutability": "view",
      "type": "function"
    },
    {
      "inputs": [
        {
          "internalType": "bytes4",
          "name": "assetType",
          "type": "bytes4"
        },
        {
          "internalType": "address",
          "name": "matcher",
          "type": "address"
        }
      ],
      "name": "setAssetMatcher",
      "outputs": [],
      "stateMutability": "nonpayable",
      "type": "function"
    },
    {
      "inputs": [
        {
          "internalType": "address payable",
          "name": "newDefaultFeeReceiver",
          "type": "address"
        }
      ],
      "name": "setDefaultFeeReceiver",
      "outputs": [],
      "stateMutability": "nonpayable",
      "type": "function"
    },
    {
      "inputs": [
        {
          "internalType": "address",
          "name": "token",
          "type": "address"
        },
        {
          "internalType": "address",
          "name": "wallet",
          "type": "address"
        }
      ],
      "name": "setFeeReceiver",
      "outputs": [],
      "stateMutability": "nonpayable",
      "type": "function"
    },
    {
      "inputs": [
        {
          "internalType": "uint64",
          "name": "_protocolFee",
          "type": "uint64"
        }
      ],
      "name": "setProtocolFee",
      "outputs": [],
      "stateMutability": "nonpayable",
      "type": "function"
    },
    {
      "inputs": [
        {
          "internalType": "contract IRoyaltiesProvider",
          "name": "newRoyaltiesRegistry",
          "type": "address"
        }
      ],
      "name": "setRoyaltiesRegistry",
      "outputs": [],
      "stateMutability": "nonpayable",
      "type": "function"
    },
    {
      "inputs": [
        {
          "internalType": "bytes4",
          "name": "assetType",
          "type": "bytes4"
        },
        {
          "internalType": "address",
          "name": "proxy",
          "type": "address"
        }
      ],
      "name": "setTransferProxy",
      "outputs": [],
      "stateMutability": "nonpayable",
      "type": "function"
    },
    {
      "inputs": [
        {
          "internalType": "address",
          "name": "newOwner",
          "type": "address"
        }
      ],
      "name": "transferOwnership",
      "outputs": [],
      "stateMutability": "nonpayable",
      "type": "function"
    },
    {
      "inputs": [
        {
          "internalType": "address",
          "name": "_transferProxy",
          "type": "address"
        },
        {
          "internalType": "address",
          "name": "_erc20TransferProxy",
          "type": "address"
        },
        {
          "internalType": "uint256",
          "name": "newProtocolFee",
          "type": "uint256"
        },
        {
          "internalType": "address",
          "name": "newDefaultFeeReceiver",
          "type": "address"
        },
        {
          "internalType": "contract IRoyaltiesProvider",
          "name": "newRoyaltiesProvider",
          "type": "address"
        }
      ],
      "name": "__ExchangeV2_init",
      "outputs": [],
      "stateMutability": "nonpayable",
      "type": "function"
    }
  ],
  "bytecode": "0x608060405234801561001057600080fd5b506158e780620000216000396000f3fe6080604052600436106101145760003560e01c806367d49a3b116100a0578063b39deb4611610064578063b39deb46146102ad578063e2864fe3146102cd578063e66db25e146102ed578063e99a3f801461030d578063f2fde38b1461032057610114565b806367d49a3b146102465780636d8f069414610259578063715018a61461026e5780638da5cb5b14610283578063b0e21e8a1461029857610114565b806320158c44116100e757806320158c44146101a457806330c642f1146101d15780633abf6fd4146101f15780633be899221461020657806343bc42d31461022657610114565b806302097ab1146101195780630d5f7d351461014f5780631372a625146101645780631cdfe3d814610184575b600080fd5b34801561012557600080fd5b50610139610134366004614a7c565b610340565b6040516101469190615211565b60405180910390f35b61016261015d366004614e0d565b61035c565b005b34801561017057600080fd5b5061016261017f366004614d09565b6106a4565b34801561019057600080fd5b5061016261019f366004614a7c565b610778565b3480156101b057600080fd5b506101c46101bf366004614dbc565b6107fd565b604051610146919061529a565b3480156101dd57600080fd5b506101626101ec366004614df0565b610810565b3480156101fd57600080fd5b506101396108e0565b34801561021257600080fd5b50610162610221366004614a7c565b6108f0565b34801561023257600080fd5b506101626102413660046151a1565b610975565b610162610254366004614e0d565b610a22565b34801561026557600080fd5b50610139610d1b565b34801561027a57600080fd5b50610162610d2b565b34801561028f57600080fd5b50610139610dd7565b3480156102a457600080fd5b506101c4610de6565b3480156102b957600080fd5b506101626102c8366004614df0565b610ded565b3480156102d957600080fd5b506101626102e83660046150c8565b610eb1565b3480156102f957600080fd5b50610162610308366004614cd1565b610f72565b61016261031b3660046150fa565b611003565b34801561032c57600080fd5b5061016261033b366004614a7c565b611019565b610164602052600090815260409020546001600160a01b031681565b600061037661037160c0840160a08501614a7c565b61111c565b604080516101208101909152909150600090806103966020860186614a7c565b6001600160a01b03168152602001604051806040016040528060405180604001604052808860400160208101906103cd9190614dd4565b6001600160e01b03191681526020016103e960608a018a61568f565b8080601f0160208091040260200160405190810160405280939291908181526020018383808284376000920182905250939094525050918352506020888101359281019290925291835282810191909152604080518082018252868152608080890135938201939093529083015260c080870135606084015260e08701359183019190915261010086013560a08301520161048c61014086016101208701614dd4565b6001600160e01b03191681526020016104a961014086018661568f565b8080601f0160208091040260200160405190810160405280939291908181526020018383808284376000920182905250939094525050604080516101208101909152929350919050806104fa611182565b6001600160a01b031681526020016040518060400160405280868152602001876101800135815250815260200160006001600160a01b03168152602001604051806040016040528060405180604001604052808960400160208101906105609190614dd4565b6001600160e01b031916815260200161057c60608b018b61568f565b8080601f0160208091040260200160405190810160405280939291908181526020018383808284376000920182905250939094525050918352506101a089013560209283015291835282018190526040820181905260608201526080016105f36105ee61014088016101208901614dd4565b611186565b6001600160e01b03191681526020016106106101c087018761568f565b8080601f016020809104026020016040519081016040528093929190818152602001838380828437600092019190915250505091525090506106948261065a61016087018761568f565b8080601f01602080910402602001604051908101604052809392919081815260200183838082843760009201919091525061120c92505050565b61069e8282611223565b50505050565b600054610100900460ff16806106bd57506106bd61149e565b806106cb575060005460ff16155b6107065760405162461bcd60e51b815260040180806020018281038252602e815260200180615821602e913960400191505060405180910390fd5b600054610100900460ff16158015610731576000805460ff1961ff0019909116610100171660011790555b6107396114af565b610741611551565b61074b868661164a565b6107568484846116f4565b61075e6117d0565b8015610770576000805461ff00191690555b505050505050565b610780611182565b6001600160a01b0316610791610dd7565b6001600160a01b0316146107da576040805162461bcd60e51b81526020600482018190526024820152600080516020615892833981519152604482015290519081900360640190fd5b61016380546001600160a01b0319166001600160a01b0392909216919091179055565b61012f6020526000908152604090205481565b610818611182565b6001600160a01b0316610829610dd7565b6001600160a01b031614610872576040805162461bcd60e51b81526020600482018190526024820152600080516020615892833981519152604482015290519081900360640190fd5b6001600160e01b031982166000818152609760205260409081902080546001600160a01b0319166001600160a01b038516179055517f4b5aced933c0c9a88aeac3f0b3b72c5aaf75df8ebaf53225773248c4c3153593906108d4908490615211565b60405180910390a25050565b610163546001600160a01b031681565b6108f8611182565b6001600160a01b0316610909610dd7565b6001600160a01b031614610952576040805162461bcd60e51b81526020600482018190526024820152600080516020615892833981519152604482015290519081900360640190fd5b61016280546001600160a01b0319166001600160a01b0392909216919091179055565b61097d611182565b6001600160a01b031661098e610dd7565b6001600160a01b0316146109d7576040805162461bcd60e51b81526020600482018190526024820152600080516020615892833981519152604482015290519081900360640190fd5b7fb51bef650ff5ad43303dbe2e500a74d4fd1bdc9ae05f046bece330e82ae0ba876101615482604051610a0b929190615678565b60405180910390a16001600160401b031661016155565b6000610a3761037160c0840160a08501614a7c565b60408051610120810190915290915060009080610a576020860186614a7c565b6001600160a01b0316815260200160405180604001604052808581526020018660800135815250815260200160006001600160a01b0316815260200160405180604001604052806040518060400160405280886040016020810190610abc9190614dd4565b6001600160e01b0319168152602001610ad860608a018a61568f565b8080601f016020809104026020016040519081016040528093929190818152602001838380828437600092019190915250505091525081526020878101359181019190915290825260c08601359082015260e085013560408201526101008501356060820152608001610b5361014086016101208701614dd4565b6001600160e01b0319168152602001610b7061014086018661568f565b8080601f016020809104026020016040519081016040528093929190818152602001838380828437600092018290525093909452505060408051610120810190915292935091905080610bc1611182565b6001600160a01b0316815260200160405180604001604052806040518060400160405280896040016020810190610bf89190614dd4565b6001600160e01b0319168152602001610c1460608b018b61568f565b8080601f0160208091040260200160405190810160405280939291908181526020018383808284376000920182905250939094525050918352506101a08901356020928301529183528281018290526040805180820182528881526101808a013592810192909252830152606082018190526080820181905260a082015260c001610caa6105ee61014088016101208901614dd4565b6001600160e01b0319168152602001610cc76101c087018761568f565b8080601f01602080910402602001604051908101604052809392919081815260200183838082843760009201919091525050509152509050610d118261065a61016087018761568f565b61069e8183611223565b610162546001600160a01b031681565b610d33611182565b6001600160a01b0316610d44610dd7565b6001600160a01b031614610d8d576040805162461bcd60e51b81526020600482018190526024820152600080516020615892833981519152604482015290519081900360640190fd5b6033546040516000916001600160a01b0316907f8be0079c531659141344cd1fd0a4f28419497f9722a3daafe3b4186f6b6457e0908390a3603380546001600160a01b0319169055565b6033546001600160a01b031690565b6101615481565b610df5611182565b6001600160a01b0316610e06610dd7565b6001600160a01b031614610e4f576040805162461bcd60e51b81526020600482018190526024820152600080516020615892833981519152604482015290519081900360640190fd5b6001600160e01b031982166000818152606560205260409081902080546001600160a01b0319166001600160a01b038516179055517fd2bf91075f105d0fd80328da28e20ebdad1c1261839711183bc29a44cbe6c72f906108d4908490615211565b80516001600160a01b0316610ec4611182565b6001600160a01b031614610ef35760405162461bcd60e51b8152600401610eea906155e8565b60405180910390fd5b6080810151610f145760405162461bcd60e51b8152600401610eea90615399565b6000610f1f826118a0565b600081815261012f6020526040908190206000199055519091507fe8d9861dbc9c663ed3accd261bbe2fe01e0d3d9e5f51fa38523b265c7757a93a90610f6690839061529a565b60405180910390a15050565b610f7a611182565b6001600160a01b0316610f8b610dd7565b6001600160a01b031614610fd4576040805162461bcd60e51b81526020600482018190526024820152600080516020615892833981519152604482015290519081900360640190fd5b6001600160a01b0391821660009081526101646020526040902080546001600160a01b03191691909216179055565b61100f84848484611a28565b61069e8483611223565b611021611182565b6001600160a01b0316611032610dd7565b6001600160a01b03161461107b576040805162461bcd60e51b81526020600482018190526024820152600080516020615892833981519152604482015290519081900360640190fd5b6001600160a01b0381166110c05760405162461bcd60e51b815260040180806020018281038252602681526020018061578c6026913960400191505060405180910390fd5b6033546040516001600160a01b038084169216907f8be0079c531659141344cd1fd0a4f28419497f9722a3daafe3b4186f6b6457e090600090a3603380546001600160a01b0319166001600160a01b0392909216919091179055565b6111246145bb565b61112c6145bb565b6001600160a01b038316611149576355575f5d60e11b815261117a565b6322ba176160e21b8152604051611164908490602001615211565b60408051601f1981840301815291905260208201525b90505b919050565b3390565b60006001600160e01b03198216632fa3cfd360e01b14156111c857507f1b18cdf6be079a715471a3705c2d89e1d730066ce14915cb307cc3e4a90c92d461117d565b6001600160e01b03198216630d8c66fb60e11b141561120857507f2fa3cfd36fc2a11048e46a7dac1916c392731880ba073f2b7f10566b2fd6133e61117d565b5090565b61121582611ad4565b61121f8282611b9e565b5050565b6000806112308484611e73565b91509150600061123f85611f0c565b9050600061124c85611f0c565b905060006112648787856040015185604001516120f5565b90506000806113c56040518060a0016040528060405180604001604052808b8152602001876000015181525081526020018760000151815260200187602001518152602001609760008b600001516001600160e01b0319166001600160e01b031916815260200190815260200160002060009054906101000a90046001600160a01b03166001600160a01b031681526020018b600001516001600160a01b03168152506040518060a0016040528060405180604001604052808b8152602001886020015181525081526020018760000151815260200187602001518152602001609760008b600001516001600160e01b0319166001600160e01b031916815260200190815260200160002060009054906101000a90046001600160a01b03166001600160a01b031681526020018b600001516001600160a01b03168152506113c08a600001518a600001518e60e001518e60e001518c8c612275565b6122d8565b885191935091506001600160e01b0319166355575f5d60e11b14156114445785516001600160e01b0319166355575f5d60e11b141561140357600080fd5b813410156114235760405162461bcd60e51b8152600401610eea906155c0565b8134111561143f5761143f61143834846123e7565b3390612449565b611493565b85516001600160e01b0319166355575f5d60e11b1415611493578034101561147e5760405162461bcd60e51b8152600401610eea906155c0565b803411156114935761149361143834836123e7565b505050505050505050565b60006114a9306124e6565b15905090565b600054610100900460ff16806114c857506114c861149e565b806114d6575060005460ff16155b6115115760405162461bcd60e51b815260040180806020018281038252602e815260200180615821602e913960400191505060405180910390fd5b600054610100900460ff1615801561153c576000805460ff1961ff0019909116610100171660011790555b801561154e576000805461ff00191690555b50565b600054610100900460ff168061156a575061156a61149e565b80611578575060005460ff16155b6115b35760405162461bcd60e51b815260040180806020018281038252602e815260200180615821602e913960400191505060405180910390fd5b600054610100900460ff161580156115de576000805460ff1961ff0019909116610100171660011790555b60006115e8611182565b603380546001600160a01b0319166001600160a01b038316908117909155604051919250906000907f8be0079c531659141344cd1fd0a4f28419497f9722a3daafe3b4186f6b6457e0908290a350801561154e576000805461ff001916905550565b60976020527f4532fa16f071d6234e30e1a1e69b9806f04095edf37a1ca7a25c8d6af7861cc080546001600160a01b039283166001600160a01b0319918216179091557f30a684095c937b5aa064dcf94f9903a7d808e3efb22d8389dbd43080ad4ed3d5805493909216928116831790915563025ceed960e61b6000527f4b5822151ea34b7c8d9e37c3e466bcecb631efe6a9f26a4a4054110a93dd316f80549091169091179055565b600054610100900460ff168061170d575061170d61149e565b8061171b575060005460ff16155b6117565760405162461bcd60e51b815260040180806020018281038252602e815260200180615821602e913960400191505060405180910390fd5b600054610100900460ff16158015611781576000805460ff1961ff0019909116610100171660011790555b61016184905561016380546001600160a01b038086166001600160a01b031992831617909255610162805492851692909116919091179055801561069e576000805461ff001916905550505050565b600054610100900460ff16806117e957506117e961149e565b806117f7575060005460ff16155b6118325760405162461bcd60e51b815260040180806020018281038252602e815260200180615821602e913960400191505060405180910390fd5b600054610100900460ff1615801561185d576000805460ff1961ff0019909116610100171660011790555b61153c6040518060400160405280600881526020016745786368616e676560c01b815250604051806040016040528060018152602001601960f91b8152506124ec565b60e08101516000906001600160e01b031916632611a13360e11b14806118d4575060e08201516001600160e01b0319908116145b156119495781516020830151516118ea906125ac565b6060840151516118f9906125ac565b846080015160405160200180856001600160a01b0316815260200184815260200183815260200182815260200194505050505060405160208183030381529060405280519060200120905061117d565b815160208301515161195a906125ac565b606084015151611969906125ac565b846080015185610100015160405160200180866001600160a01b0316815260200185815260200184815260200183815260200180602001828103825283818151815260200191508051906020019080838360005b838110156119d55781810151838201526020016119bd565b50505050905090810190601f168015611a025780820380516001836020036101000a031916815260200191505b50965050505050505060405160208183030381529060405280519060200120905061117d565b611a32848461120c565b611a3c828261120c565b60408401516001600160a01b031615611a885783604001516001600160a01b031682600001516001600160a01b031614611a885760405162461bcd60e51b8152600401610eea9061557d565b60408201516001600160a01b03161561069e5783600001516001600160a01b031682604001516001600160a01b03161461069e5760405162461bcd60e51b8152600401610eea90615481565b60a08101511580611ae85750428160a00151105b611b39576040805162461bcd60e51b815260206004820152601d60248201527f4f726465722073746172742076616c69646174696f6e206661696c6564000000604482015290519081900360640190fd5b60c08101511580611b4d5750428160c00151115b61154e576040805162461bcd60e51b815260206004820152601b60248201527f4f7264657220656e642076616c69646174696f6e206661696c65640000000000604482015290519081900360640190fd5b6080820151611c3c5781516001600160a01b031615611c235781516001600160a01b0316611bca611182565b6001600160a01b031614611c1e576040805162461bcd60e51b815260206004820152601660248201527536b0b5b2b91034b9903737ba103a3c1039b2b73232b960511b604482015290519081900360640190fd5b611c37565b611c2b611182565b6001600160a01b031682525b61121f565b81516001600160a01b0316611c4f611182565b6001600160a01b03161461121f576000611c6883612616565b90506000825160411415611c8c57611c8983611c8384612706565b90612752565b90505b83516001600160a01b03828116911614611e2c578351611cb4906001600160a01b03166124e6565b15611df0578351630b135d3f60e11b906001600160a01b0316631626ba7e611cdb85612706565b866040518363ffffffff1660e01b81526004018083815260200180602001828103825283818151815260200191508051906020019080838360005b83811015611d2e578181015183820152602001611d16565b50505050905090810190601f168015611d5b5780820380516001836020036101000a031916815260200191505b50935050505060206040518083038186803b158015611d7957600080fd5b505afa158015611d8d573d6000803e3d6000fd5b505050506040513d6020811015611da357600080fd5b50516001600160e01b03191614611deb5760405162461bcd60e51b815260040180806020018281038252602b8152602001806157f6602b913960400191505060405180910390fd5b611e27565b60405162461bcd60e51b81526004018080602001828103825260228152602001806157d46022913960400191505060405180910390fd5b61069e565b83516001600160a01b031661069e576040805162461bcd60e51b815260206004820152600860248201526737379036b0b5b2b960c11b604482015290519081900360640190fd5b611e7b6145bb565b611e836145bb565b602084015151606084015151611e9991906127d2565b80519092506001600160e01b031916611ec45760405162461bcd60e51b8152600401610eea90615551565b606084015151602084015151611eda91906127d2565b80519091506001600160e01b031916611f055760405162461bcd60e51b8152600401610eea90615551565b9250929050565b611f146145d3565b60e08201516001600160e01b031916632611a13360e11b1415611f55576000611f41836101000151612812565b8051835260209081015190830152506120dc565b60e08201516001600160e01b0319166323d235ef60e01b1415611fa2576000611f8283610100015161282e565b8051835260208082015190840152604090810151151590830152506120dc565b60e08201516001600160e01b031916632fa3cfd360e01b141561200f576000611fcf83610100015161284a565b9050611fde8160000151612866565b825260208101516040820151611ff491906128c9565b602083015260016040830152606090810151908201526120dc565b60e08201516001600160e01b031916630d8c66fb60e11b141561207357600061203c836101000151612a2c565b905061204b8160000151612866565b82526020810151604082015161206191906128c9565b602083015250600060408201526120dc565b60e08201516001600160e01b0319908116141561208f576120dc565b6040805162461bcd60e51b815260206004820152601760248201527f556e6b6e6f776e204f7264657220646174612074797065000000000000000000604482015290519081900360640190fd5b80515161117d5781516120ee90612a48565b8152919050565b6120fd6145fd565b6000612108866118a0565b90506000612115866118a0565b90506000612127886080015184612ae3565b90506000612139886080015184612ae3565b9050600061214b8a8a85858c8c612b08565b9050600081602001511180156121615750805115155b61217d5760405162461bcd60e51b8152600401610eea906154f1565b60808a0151156121d05787156121af57805161219a908490612b8e565b600086815261012f60205260409020556121d0565b60208101516121bf908490612b8e565b600086815261012f60205260409020555b6080890151156122235786156122055760208101516121f0908390612b8e565b600085815261012f6020526040902055612223565b8051612212908390612b8e565b600085815261012f60205260409020555b602081015181516040517f956cd63ee4cdcd81fda5f0ec7c6c36dceda99e1b412f4a650a5d26055dc3c4509261225e928992899291906152a3565b60405180910390a19450505050505b949350505050565b61227d614617565b61228685612be8565b81526122928787612c35565b816040019060028111156122a257fe5b908160028111156122af57fe5b815250506122c98585858585604001518660000151612d06565b60208201529695505050505050565b82516020908101518351909101516001836040015160028111156122f857fe5b141561234257612312858585600001518660200151612ebc565b915061233d846000015160000151856000015160200151866080015188602001518860600151613138565b6123df565b60028360400151600281111561235457fe5b14156123995761236e848685600001518660200151612ebc565b905061233d856000015160000151866000015160200151876080015187602001518960600151613138565b8451805160209182015160808801519287015160608901516123bc949190613138565b8351805160209182015160808701519288015160608801516123df949190613138565b935093915050565b60008282111561243e576040805162461bcd60e51b815260206004820152601e60248201527f536166654d6174683a207375627472616374696f6e206f766572666c6f770000604482015290519081900360640190fd5b508082035b92915050565b6040516000906001600160a01b0384169083908381818185875af1925050503d8060008114612494576040519150601f19603f3d011682016040523d82523d6000602084013e612499565b606091505b50509050806124e1576040805162461bcd60e51b815260206004820152600f60248201526e1d1c985b9cd9995c8819985a5b1959608a1b604482015290519081900360640190fd5b505050565b3b151590565b600054610100900460ff1680612505575061250561149e565b80612513575060005460ff16155b61254e5760405162461bcd60e51b815260040180806020018281038252602e815260200180615821602e913960400191505060405180910390fd5b600054610100900460ff16158015612579576000805460ff1961ff0019909116610100171660011790555b825160208085019190912083519184019190912060c99190915560ca5580156124e1576000805461ff0019169055505050565b8051602091820151805190830120604080517f452a0dc408cb0d27ffc3b3caff933a5208040a53a9dbecd8d89cad2c0d40e00c818601526001600160e01b031990931683820152606080840192909252805180840390920182526080909201909152805191012090565b60007f477ed43b8020849b755512278536c3766a3b4ab547519949a75f483372493f8d826000015161264b84602001516132bc565b846040015161265d86606001516132bc565b86608001518760a001518860c001518960e001518a610100015180519060200120604051602001808b81526020018a6001600160a01b03168152602001898152602001886001600160a01b03168152602001878152602001868152602001858152602001848152602001836001600160e01b03191681526020018281526020019a5050505050505050505050604051602081830303815290604052805190602001209050919050565b600061271061332c565b82604051602001808061190160f01b81525060020183815260200182815260200192505050604051602081830303815290604052805190602001209050919050565b600081516041146127aa576040805162461bcd60e51b815260206004820152601f60248201527f45434453413a20696e76616c6964207369676e6174757265206c656e67746800604482015290519081900360640190fd5b60208201516040830151606084015160001a6127c88682858561336c565b9695505050505050565b6127da6145bb565b60006127e684846135c2565b80519091506001600160e01b03191661280b5761280383856135c2565b915050612443565b9050612443565b61281a614642565b818060200190518101906124439190614eca565b61283661465c565b818060200190518101906124439190614f56565b61285261467f565b818060200190518101906124439190615060565b606080821561117a5760408051600180825281830190925290816020015b61288c6146b1565b8152602001906001900390816128845790505090506128aa836137de565b816000815181106128b757fe5b60200260200101819052509050919050565b6060806000841180156128dc5750600083115b15612957576040805160028082526060820190925290816020015b6128ff6146b1565b8152602001906001900390816128f757905050905061291d846137de565b8160008151811061292a57fe5b602002602001018190525061293e836137de565b8160018151811061294b57fe5b60200260200101819052505b600084118015612965575082155b156129be5760408051600180825281830190925290816020015b6129876146b1565b81526020019060019003908161297f5790505090506129a5846137de565b816000815181106129b257fe5b60200260200101819052505b831580156129cc5750600083115b15612a255760408051600180825281830190925290816020015b6129ee6146b1565b8152602001906001900390816129e6579050509050612a0c836137de565b81600081518110612a1957fe5b60200260200101819052505b9392505050565b612a346146c8565b818060200190518101906124439190615002565b60408051600180825281830190925260609160009190816020015b612a6b6146b1565b815260200190600190039081612a635790505090508281600081518110612a8e57fe5b6020026020010151600001906001600160a01b031690816001600160a01b03168152505061271081600081518110612ac257fe5b6020908102919091018101516001600160601b039092169101529050919050565b600082612af257506000612443565b50600090815261012f6020526040902054919050565b612b106145fd565b600080612b1e898887613806565b91509150600080612b308a8988613806565b9150915083811115612b6357612b5884848c60200151602001518d606001516020015161387f565b9450505050506127c8565b612b7f8b60200151602001518c60600151602001518484613904565b9b9a5050505050505050505050565b600082820183811015612a25576040805162461bcd60e51b815260206004820152601b60248201527f536166654d6174683a206164646974696f6e206f766572666c6f770000000000604482015290519081900360640190fd5b60006001600160e01b03198216632fa3cfd360e01b1480612c1957506001600160e01b03198216630d8c66fb60e11b145b15612c2d57612c2661398a565b905061117d565b506000919050565b60006001600160e01b031983166355575f5d60e11b1415612c5857506001612443565b6001600160e01b031982166355575f5d60e11b1415612c7957506002612443565b6001600160e01b031983166322ba176160e21b1415612c9a57506001612443565b6001600160e01b031982166322ba176160e21b1415612cbb57506002612443565b6001600160e01b0319831663025ceed960e61b1415612cdc57506001612443565b6001600160e01b0319821663025ceed960e61b1415612cfd57506002612443565b50600092915050565b60006001600160e01b03198716632fa3cfd360e01b14801590612d3a57506001600160e01b03198616632fa3cfd360e01b14155b8015612d5757506001600160e01b03198716630d8c66fb60e11b14155b8015612d7457506001600160e01b03198616630d8c66fb60e11b14155b15612d81575060006127c8565b6000612d968387602001518760200151613991565b905060006001856002811115612da857fe5b1415612e05575060608501516001600160e01b03198916630d8c66fb60e11b148015612de457506001600160e01b03198816632fa3cfd360e01b145b612e005760405162461bcd60e51b8152600401610eea906153c7565b612e76565b6002856002811115612e1357fe5b1415612e6b575060608601516001600160e01b03198816630d8c66fb60e11b148015612e4f57506001600160e01b03198916632fa3cfd360e01b145b612e005760405162461bcd60e51b8152600401610eea90615459565b6000925050506127c8565b600081118015612e865750818110155b8015612e9457506103e88111155b612eb05760405162461bcd60e51b8152600401610eea90615433565b98975050505050505050565b6000612ed685600001516020015184876040015185613a10565b90506000612f00828760000151602001518860800151878a60000151600001518b60600151613a70565b865180518751516020808a015193015160808b015160608c0151959650612f2e959394929387929190613b36565b90508560400151516001148015612f4a57508460400151516001145b8015612f9f57508560400151600081518110612f6257fe5b6020026020010151600001516001600160a01b03168560400151600081518110612f8857fe5b6020026020010151600001516001600160a01b0316145b156130b557604080516001808252818301909252600091816020015b612fc36146b1565b815260200190600190039081612fbb5790505090508560400151600081518110612fe957fe5b6020026020010151600001518160008151811061300257fe5b60209081029190910101516001600160a01b0390911690526040870151805160009061302a57fe5b602002602001015160200151866040015160008151811061304757fe5b602002602001015160200151018160008151811061306157fe5b6020026020010151602001906001600160601b031690816001600160601b0316815250506130ab87600001516000015183896000015160200151848b608001518c60600151613c3b565b50915061310e9050565b6130df8660000151600001518288600001516020015189604001518a608001518b60600151613c3b565b5086518051602090910151604088015160808a015160608b015194955061310a948693929190613c3b565b5090505b61312f86600001516000015182886080015188602001518a60600151613138565b50949350505050565b60008251116131595760405162461bcd60e51b8152600401610eea906153ef565b600084815b600185510381101561322857600061319f86838151811061317b57fe5b6020026020010151602001516001600160601b031689613cf090919063ffffffff16565b90506131d48683815181106131b057fe5b6020026020010151602001516001600160601b031685612b8e90919063ffffffff16565b9350801561321f576131e683826123e7565b925061321f60405180604001604052808b8152602001838152508888858151811061320d57fe5b60200260200101516000015188613d08565b5060010161315e565b5060008460018651038151811061323b57fe5b6020026020010151905061326581602001516001600160601b031684612b8e90919063ffffffff16565b925082612710146132885760405162461bcd60e51b8152600401610eea9061551a565b81156132b2576132b260405180604001604052808a81526020018481525087836000015187613d08565b5050505050505050565b60007fdb6f72e915676cfc289da13bc4ece054fd17b1df6d77ffc4a60510718c236b086132ec83600001516125ac565b8360200151604051602001808481526020018381526020018281526020019350505050604051602081830303815290604052805190602001209050919050565b60006133677f8b73c3c69bb8fe3d512ecc4cf759cc79239f7b179b0ffacaa9a75d522b39400f61335a6140f0565b6133626140f6565b6140fc565b905090565b60007f7fffffffffffffffffffffffffffffff5d576e7357a4501ddfe92f46681b20a08211156133cd5760405162461bcd60e51b81526004018080602001828103825260228152602001806157b26022913960400191505060405180910390fd5b6000601e8560ff1611156134a7576004850360ff16601b14806133f657506004850360ff16601c145b6134315760405162461bcd60e51b815260040180806020018281038252602281526020018061584f6022913960400191505060405180910390fd5b600161343c8761415e565b60048703868660405160008152602001604052604051808581526020018460ff1681526020018381526020018281526020019450505050506020604051602081039080840390855afa158015613496573d6000803e3d6000fd5b50505060206040510351905061355e565b8460ff16601b14806134bc57508460ff16601c145b6134f75760405162461bcd60e51b815260040180806020018281038252602281526020018061584f6022913960400191505060405180910390fd5b60018686868660405160008152602001604052604051808581526020018460ff1681526020018381526020018281526020019450505050506020604051602081039080840390855afa158015613551573d6000803e3d6000fd5b5050506020604051035190505b6001600160a01b0381166135b9576040805162461bcd60e51b815260206004820152601860248201527f45434453413a20696e76616c6964207369676e61747572650000000000000000604482015290519081900360640190fd5b95945050505050565b6135ca6145bb565b825182516001600160e01b031982166355575f5d60e11b1415613635576001600160e01b031981166355575f5d60e11b141561360a578492505050612443565b5050604080518082018252600080825282516020818101909452908152918101919091529050612443565b6001600160e01b031982166322ba176160e21b141561367a576001600160e01b031981166322ba176160e21b141561360a5761367185856141af565b92505050612443565b6001600160e01b031982166339d690a360e11b14156136b6576001600160e01b031981166339d690a360e11b141561360a5761367185856141af565b6001600160e01b0319821663025ceed960e61b14156136f2576001600160e01b0319811663025ceed960e61b141561360a5761367185856141af565b6001600160e01b031982166000908152606560205260409020546001600160a01b031680156137a7576040516306d3f7cb60e41b81526001600160a01b03821690636d3f7cb090613749908990899060040161560d565b60006040518083038186803b15801561376157600080fd5b505afa158015613775573d6000803e3d6000fd5b505050506040513d6000823e601f3d908101601f1916820160405261379d9190810190614e3f565b9350505050612443565b6001600160e01b031983811690831614156137c65761379d86866141af565b60405162461bcd60e51b8152600401610eea9061532b565b6137e66146b1565b811561117d576001600160a01b038216815260a09190911c602082015290565b600080821561384557602080860151015161382190856123e7565b915061383e8560600151602001518660200151602001518461420c565b90506123df565b60608501516020015161385890856123e7565b90506138758560200151602001518660600151602001518361420c565b9150935093915050565b6138876145fd565b600061389485858561420c565b9050858111156138eb576040805162461bcd60e51b815260206004820152601860248201527f66696c6c4c6566743a20756e61626c6520746f2066696c6c0000000000000000604482015290519081900360640190fd5b5050604080518082019091529384525050602082015290565b61390c6145fd565b600061391983878761420c565b905083811115613970576040805162461bcd60e51b815260206004820152601960248201527f66696c6c52696768743a20756e61626c6520746f2066696c6c00000000000000604482015290519081900360640190fd5b604080518082019091529283526020830152509392505050565b6101615490565b600083815b84518110156139d1578481815181106139ab57fe5b6020026020010151602001516001600160601b0316820191508080600101915050613996565b5060005b835181101561312f578381815181106139ea57fe5b6020026020010151602001516001600160601b03168201915080806001019150506139d5565b60008115613a1f57508361226d565b6000613a35613a2e8787613cf0565b8790612b8e565b905060005b8451811015613a6657613a5c613a5586838151811061317b57fe5b8390612b8e565b9150600101613a3a565b5095945050505050565b6000806000613a8089898861426a565b90925090508015613b2a5784516000906001600160e01b0319166322ba176160e21b1415613ac7578560200151806020019051810190613ac09190614a98565b9050613b00565b85516001600160e01b03191663025ceed960e61b1415613b005760008660200151806020019051810190613afb9190614ca4565b509150505b613b2860405180604001604052808881526020018481525089613b228461428c565b88613d08565b505b50979650505050505050565b600080613b42886142cb565b905080516001148015613b56575086516001145b8015613ba3575086600081518110613b6a57fe5b6020026020010151600001516001600160a01b031681600081518110613b8c57fe5b6020026020010151600001516001600160a01b0316145b15613bf45761138881600081518110613bb857fe5b6020026020010151602001516001600160601b03161115613beb5760405162461bcd60e51b8152600401610eea90615362565b85915050613c30565b600080613c058b8989868a8a613c3b565b91509150611388811115613c2b5760405162461bcd60e51b8152600401610eea90615362565b509150505b979650505050505050565b846000805b8551811015613ce457613c7c868281518110613c5857fe5b6020026020010151602001516001600160601b031683612b8e90919063ffffffff16565b91506000613cab8489898581518110613c9157fe5b6020026020010151602001516001600160601b031661426a565b90945090508015613cdb57613cdb60405180604001604052808c8152602001838152508789858151811061320d57fe5b50600101613c40565b50965096945050505050565b6000612a25612710613d028585614440565b90614499565b8351516001600160e01b0319166339d690a360e11b1415613e4e57600080856000015160200151806020019051810190613d429190614ca4565b915091508560200151600114613d6a5760405162461bcd60e51b8152600401610eea906154c5565b6001600160a01b038516301415613de257604051632142170760e11b81526001600160a01b038316906342842e0e90613dab90309088908690600401615225565b600060405180830381600087803b158015613dc557600080fd5b505af1158015613dd9573d6000803e3d6000fd5b50505050613e47565b604051637b84dc8360e11b81526001600160a01b0384169063f709b90690613e14908590899089908790600401615301565b600060405180830381600087803b158015613e2e57600080fd5b505af1158015613e42573d6000803e3d6000fd5b505050505b505061069e565b8351516001600160e01b0319166322ba176160e21b1415613f91576000846000015160200151806020019051810190613e879190614a98565b90506001600160a01b038416301415613f2357602085015160405163a9059cbb60e01b81526001600160a01b0383169163a9059cbb91613ecb918791600401615281565b602060405180830381600087803b158015613ee557600080fd5b505af1158015613ef9573d6000803e3d6000fd5b505050506040513d601f19601f82011682018060405250810190613f1d9190614da2565b50613f8b565b602085015160405163776062c360e01b81526001600160a01b0384169163776062c391613f5891859189918991600401615301565b600060405180830381600087803b158015613f7257600080fd5b505af1158015613f86573d6000803e3d6000fd5b505050505b5061069e565b8351516001600160e01b03191663025ceed960e61b141561404e57600080856000015160200151806020019051810190613fcb9190614ca4565b90925090506001600160a01b038516301415614016576020860151604051637921219560e11b81526001600160a01b0384169163f242432a91613dab91309189918791600401615249565b6020860151604051639c1c2ee960e01b81526001600160a01b03851691639c1c2ee991613e149186918a918a918891906004016152be565b8351516001600160e01b0319166355575f5d60e11b1415614092576001600160a01b0382163014611e27576020840151611e27906001600160a01b03841690612449565b6040516354bc0cf160e01b81526001600160a01b038216906354bc0cf1906140c290879087908790600401615632565b600060405180830381600087803b1580156140dc57600080fd5b505af11580156132b2573d6000803e3d6000fd5b60c95490565b60ca5490565b6000838383614109614500565b3060405160200180868152602001858152602001848152602001838152602001826001600160a01b03168152602001955050505050506040516020818303038152906040528051906020012090509392505050565b604080517f19457468657265756d205369676e6564204d6573736167653a0a333200000000602080830191909152603c8083019490945282518083039094018452605c909101909152815191012090565b6141b76145bb565b602080840151805190820120838201518051920191909120808214156141e1578492505050612443565b5050604080518082018252600080825282516020808201909452908152918101919091529392505050565b6000614219848484614504565b1561425c576040805162461bcd60e51b815260206004820152600e60248201526d3937bab73234b7339032b93937b960911b604482015290519081900360640190fd5b61226d83613d028685614440565b6000806142808561427b8686613cf0565b614593565b91509150935093915050565b6001600160a01b038082166000908152610164602052604081205490911680156142b757905061117d565b5050610163546001600160a01b0316919050565b80516060906001600160e01b03191663025ceed960e61b14806142ff575081516001600160e01b0319166339d690a360e11b145b156143b557600080836020015180602001905181019061431f9190614ca4565b61016254604051634e53ee3d60e11b81529294509092506001600160a01b031690639ca7dc7a906143569085908590600401615281565b600060405180830381600087803b15801561437057600080fd5b505af1158015614384573d6000803e3d6000fd5b505050506040513d6000823e601f3d908101601f191682016040526143ac9190810190614d70565b9250505061117d565b81516001600160e01b03191662737ea960e61b14156143f657600082602001518060200190518101906143e89190614ab4565b60800151925061117d915050565b81516001600160e01b03191663d8f960c160e01b1415614438576000826020015180602001905181019061442a9190614bb1565b60600151925061117d915050565b506060919050565b60008261444f57506000612443565b8282028284828161445c57fe5b0414612a255760405162461bcd60e51b81526004018080602001828103825260218152602001806158716021913960400191505060405180910390fd5b60008082116144ef576040805162461bcd60e51b815260206004820152601a60248201527f536166654d6174683a206469766973696f6e206279207a65726f000000000000604482015290519081900360640190fd5b8183816144f857fe5b049392505050565b4690565b60008261454b576040805162461bcd60e51b815260206004820152601060248201526f6469766973696f6e206279207a65726f60801b604482015290519081900360640190fd5b811580614556575083155b1561456357506000612a25565b6000838061456d57fe5b858409905061457c8584614440565b614588826103e8614440565b101595945050505050565b600080828411156145b2576145a884846123e7565b9150829050611f05565b50600093915050565b60408051808201909152600081526060602082015290565b60405180608001604052806060815260200160608152602001600015158152602001600081525090565b604051806040016040528060008152602001600081525090565b604051806060016040528060008152602001600081526020016000600281111561463d57fe5b905290565b604051806040016040528060608152602001606081525090565b604051806060016040528060608152602001606081526020016000151581525090565b6040518060a0016040528060008152602001600081526020016000815260200160008152602001600080191681525090565b604080518082019091526000808252602082015290565b6040518060800160405280600081526020016000815260200160008152602001600080191681525090565b803561117d81615760565b600082601f83011261470e578081fd5b8151602061472361471e836156f6565b6156d3565b82815281810190858301855b8581101561475857614746898684518b0101614887565b8452928401929084019060010161472f565b5090979650505050505050565b600082601f830112614775578081fd5b8151602061478561471e836156f6565b828152818101908583016040808602880185018910156147a3578687fd5b865b868110156148125781838b0312156147bb578788fd5b81518281018181106001600160401b03821117156147d557fe5b835283516147e281615760565b8152838701516001600160601b03811681146147fc57898afd5b81880152855293850193918101916001016147a5565b509198975050505050505050565b8051801515811461117d57600080fd5b803561117d81615775565b600082601f83011261484b578081fd5b813561485961471e82615713565b81815284602083860101111561486d578283fd5b816020850160208301379081016020019190915292915050565b600082601f830112614897578081fd5b81516148a561471e82615713565b8181528460208386010111156148b9578283fd5b61226d826020830160208701615734565b60006101e082840312156148dc578081fd5b50919050565b600060408083850312156148f4578182fd5b80518181016001600160401b03828210818311171561490f57fe5b81845282945085358181111561492457600080fd5b860180880385131561493557600080fd5b60808401838110838211171561494757fe5b90945283359361495685615775565b9382526020840135938185111561496c57600080fd5b6149788886830161483b565b60608501525050815260209384013593019290925292915050565b60006101208083850312156149a6578182fd5b6149af816156d3565b9150506149bb826146f3565b815260208201356001600160401b03808211156149d757600080fd5b6149e3858386016148e2565b60208401526149f4604085016146f3565b60408401526060840135915080821115614a0d57600080fd5b614a19858386016148e2565b60608401526080840135608084015260a084013560a084015260c084013560c0840152614a4860e08501614830565b60e084015261010091508184013581811115614a6357600080fd5b614a6f8682870161483b565b8385015250505092915050565b600060208284031215614a8d578081fd5b8135612a2581615760565b600060208284031215614aa9578081fd5b8151612a2581615760565b60008060408385031215614ac6578081fd5b8251614ad181615760565b60208401519092506001600160401b0380821115614aed578283fd5b9084019060c08287031215614b00578283fd5b614b0a60c06156d3565b82518152602083015182811115614b1f578485fd5b614b2b88828601614887565b60208301525060408301516040820152606083015182811115614b4c578485fd5b614b5888828601614765565b606083015250608083015182811115614b6f578485fd5b614b7b88828601614765565b60808301525060a083015182811115614b92578485fd5b614b9e888286016146fe565b60a0830152508093505050509250929050565b60008060408385031215614bc3578182fd5b8251614bce81615760565b60208401519092506001600160401b0380821115614bea578283fd5b9084019060a08287031215614bfd578283fd5b614c0760a06156d3565b82518152602083015182811115614c1c578485fd5b614c2888828601614887565b602083015250604083015182811115614c3f578485fd5b614c4b88828601614765565b604083015250606083015182811115614c62578485fd5b614c6e88828601614765565b606083015250608083015182811115614c85578485fd5b614c91888286016146fe565b6080830152508093505050509250929050565b60008060408385031215614cb6578182fd5b8251614cc181615760565b6020939093015192949293505050565b60008060408385031215614ce3578182fd5b8235614cee81615760565b91506020830135614cfe81615760565b809150509250929050565b600080600080600060a08688031215614d20578081fd5b8535614d2b81615760565b94506020860135614d3b81615760565b9350604086013592506060860135614d5281615760565b91506080860135614d6281615760565b809150509295509295909350565b600060208284031215614d81578081fd5b81516001600160401b03811115614d96578182fd5b61226d84828501614765565b600060208284031215614db3578081fd5b612a2582614820565b600060208284031215614dcd578081fd5b5035919050565b600060208284031215614de5578081fd5b8135612a2581615775565b60008060408385031215614e02578182fd5b8235614cee81615775565b600060208284031215614e1e578081fd5b81356001600160401b03811115614e33578182fd5b61226d848285016148ca565b600060208284031215614e50578081fd5b81516001600160401b0380821115614e66578283fd5b9083019060408286031215614e79578283fd5b604051604081018181108382111715614e8e57fe5b6040528251614e9c81615775565b8152602083015182811115614eaf578485fd5b614ebb87828601614887565b60208301525095945050505050565b600060208284031215614edb578081fd5b81516001600160401b0380821115614ef1578283fd5b9083019060408286031215614f04578283fd5b604051604081018181108382111715614f1957fe5b604052825182811115614f2a578485fd5b614f3687828601614765565b825250602083015182811115614f4a578485fd5b614ebb87828601614765565b600060208284031215614f67578081fd5b81516001600160401b0380821115614f7d578283fd5b9083019060608286031215614f90578283fd5b604051606081018181108382111715614fa557fe5b604052825182811115614fb6578485fd5b614fc287828601614765565b825250602083015182811115614fd6578485fd5b614fe287828601614765565b602083015250614ff460408401614820565b604082015295945050505050565b600060808284031215615013578081fd5b604051608081018181106001600160401b038211171561502f57fe5b8060405250825181526020830151602082015260408301516040820152606083015160608201528091505092915050565b600060a08284031215615071578081fd5b60405160a081018181106001600160401b038211171561508d57fe5b806040525082518152602083015160208201526040830151604082015260608301516060820152608083015160808201528091505092915050565b6000602082840312156150d9578081fd5b81356001600160401b038111156150ee578182fd5b61226d84828501614993565b6000806000806080858703121561510f578182fd5b84356001600160401b0380821115615125578384fd5b61513188838901614993565b95506020870135915080821115615146578384fd5b6151528883890161483b565b94506040870135915080821115615167578384fd5b61517388838901614993565b93506060870135915080821115615188578283fd5b506151958782880161483b565b91505092959194509250565b6000602082840312156151b2578081fd5b81356001600160401b0381168114612a25578182fd5b600063ffffffff60e01b825116835260208201516040602085015280518060408601526151fc816060870160208501615734565b601f01601f1916939093016060019392505050565b6001600160a01b0391909116815260200190565b6001600160a01b039384168152919092166020820152604081019190915260600190565b6001600160a01b0394851681529290931660208301526040820152606081019190915260a06080820181905260009082015260c00190565b6001600160a01b03929092168252602082015260400190565b90815260200190565b93845260208401929092526040830152606082015260800190565b6001600160a01b03958616815293851660208501529190931660408301526060820192909252608081019190915260c060a0820181905260009082015260e00190565b6001600160a01b039485168152928416602084015292166040820152606081019190915260800190565b60208082526017908201527f6e6f7420666f756e64204941737365744d617463686572000000000000000000604082015260600190565b6020808252601d908201527f526f79616c746965732061726520746f6f206869676820283e35302529000000604082015260600190565b6020808252601490820152730c081cd85b1d0818d85b89dd081899481d5cd95960621b604082015260600190565b6020808252600e908201526d77726f6e6720563320747970653160901b604082015260600190565b60208082526024908201527f7472616e736665725061796f7574733a206e6f7468696e6720746f207472616e60408201526339b332b960e11b606082015260800190565b6020808252600c908201526b77726f6e67206d617846656560a01b604082015260600190565b6020808252600e908201526d3bb937b733902b19903a3cb8329960911b604082015260600190565b60208082526024908201527f72696768744f726465722e74616b657220766572696669636174696f6e2066616040820152631a5b195960e21b606082015260800190565b60208082526012908201527132b9319b9918903b30b63ab29032b93937b960711b604082015260600190565b6020808252600f908201526e1b9bdd1a1a5b99c81d1bc8199a5b1b608a1b604082015260600190565b6020808252601e908201527f53756d207061796f75747320427073206e6f7420657175616c20313030250000604082015260600190565b6020808252601290820152710c2e6e6cae8e640c8dedc4ee840dac2e8c6d60731b604082015260600190565b60208082526023908201527f6c6566744f726465722e74616b657220766572696669636174696f6e206661696040820152621b195960ea1b606082015260800190565b6020808252600e908201526d0dcdee840cadcdeeaced040cae8d60931b604082015260600190565b6020808252600b908201526a3737ba10309036b0b5b2b960a91b604082015260600190565b60006040825261562060408301856151c8565b82810360208401526135b981856151c8565b60006060825284516040606084015261564e60a08401826151c8565b60209687015160808501526001600160a01b03958616968401969096525050911660409091015290565b9182526001600160401b0316602082015260400190565b6000808335601e198436030181126156a5578283fd5b8301803591506001600160401b038211156156be578283fd5b602001915036819003821315611f0557600080fd5b6040518181016001600160401b03811182821017156156ee57fe5b604052919050565b60006001600160401b0382111561570957fe5b5060209081020190565b60006001600160401b0382111561572657fe5b50601f01601f191660200190565b60005b8381101561574f578181015183820152602001615737565b8381111561069e5750506000910152565b6001600160a01b038116811461154e57600080fd5b6001600160e01b03198116811461154e57600080fdfe4f776e61626c653a206e6577206f776e657220697320746865207a65726f206164647265737345434453413a20696e76616c6964207369676e6174757265202773272076616c75656f72646572207369676e617475726520766572696669636174696f6e206572726f72636f6e7472616374206f72646572207369676e617475726520766572696669636174696f6e206572726f72496e697469616c697a61626c653a20636f6e747261637420697320616c726561647920696e697469616c697a656445434453413a20696e76616c6964207369676e6174757265202776272076616c7565536166654d6174683a206d756c7469706c69636174696f6e206f766572666c6f774f776e61626c653a2063616c6c6572206973206e6f7420746865206f776e6572a26469706673582212207a6a0bfadeb2a0f9ff23ee3b5e0d48bce617095e4a9a2f66d83b95e17bc8df4964736f6c63430007060033",
  "immutableReferences": {},
  "source": "// SPDX-License-Identifier: MIT\n\npragma solidity 0.7.6;\npragma abicoder v2;\n\nimport \"./ExchangeV2Core.sol\";\nimport \"@rarible/transfer-manager/contracts/RaribleTransferManager.sol\";\n\ncontract ExchangeV2 is ExchangeV2Core, RaribleTransferManager {\n    function __ExchangeV2_init(\n        address _transferProxy,\n        address _erc20TransferProxy,\n        uint newProtocolFee,\n        address newDefaultFeeReceiver,\n        IRoyaltiesProvider newRoyaltiesProvider\n    ) external initializer {\n        __Context_init_unchained();\n        __Ownable_init_unchained();\n        __TransferExecutor_init_unchained(_transferProxy, _erc20TransferProxy);\n        __RaribleTransferManager_init_unchained(newProtocolFee, newDefaultFeeReceiver, newRoyaltiesProvider);\n        __OrderValidator_init_unchained();\n    }\n\n    function getProtocolFee() internal override view returns(uint) {\n        return protocolFee;\n    }\n}\n",
  "sourcePath": "@rarible/exchange-v2/contracts/ExchangeV2.sol",
  "compiler": {
    "name": "solc",
    "version": "0.7.6+commit.7338295f.Emscripten.clang"
  },
  "schemaVersion": "3.4.3",
  "updatedAt": "2022-08-11T21:08:52.679Z",
  "devdoc": {
    "kind": "dev",
    "methods": {
      "directAcceptBid((address,uint256,bytes4,bytes,uint256,address,uint256,uint256,uint256,bytes4,bytes,bytes,uint256,uint256,bytes))": {
        "details": "function, generate sellOrder and buyOrder from parameters and call validateAndMatch() for accept bid transaction",
        "params": {
          "direct": "struct with parameters for accept bid operation"
        }
      },
      "directPurchase((address,uint256,bytes4,bytes,uint256,address,uint256,uint256,uint256,bytes4,bytes,bytes,uint256,uint256,bytes))": {
        "details": "function, generate sellOrder and buyOrder from parameters and call validateAndMatch() for purchase transaction"
      },
      "owner()": {
        "details": "Returns the address of the current owner."
      },
      "renounceOwnership()": {
        "details": "Leaves the contract without owner. It will not be possible to call `onlyOwner` functions anymore. Can only be called by the current owner. NOTE: Renouncing ownership will leave the contract without an owner, thereby removing any functionality that is only available to the owner."
      },
      "transferOwnership(address)": {
        "details": "Transfers ownership of the contract to a new account (`newOwner`). Can only be called by the current owner."
      }
    },
    "version": 1
  },
  "userdoc": {
    "kind": "user",
    "methods": {},
    "version": 1
  }
}