{
  "contractName": "LinearCurve",
  "abi": [
    {
      "inputs": [
        {
          "internalType": "uint128",
          "name": "",
          "type": "uint128"
        }
      ],
      "name": "validateDelta",
      "outputs": [
        {
          "internalType": "bool",
          "name": "valid",
          "type": "bool"
        }
      ],
      "stateMutability": "pure",
      "type": "function",
      "constant": true
    },
    {
      "inputs": [
        {
          "internalType": "uint128",
          "name": "",
          "type": "uint128"
        }
      ],
      "name": "validateSpotPrice",
      "outputs": [
        {
          "internalType": "bool",
          "name": "",
          "type": "bool"
        }
      ],
      "stateMutability": "pure",
      "type": "function",
      "constant": true
    },
    {
      "inputs": [
        {
          "internalType": "uint128",
          "name": "spotPrice",
          "type": "uint128"
        },
        {
          "internalType": "uint128",
          "name": "delta",
          "type": "uint128"
        },
        {
          "internalType": "uint256",
          "name": "numItems",
          "type": "uint256"
        },
        {
          "internalType": "uint256",
          "name": "feeMultiplier",
          "type": "uint256"
        },
        {
          "internalType": "uint256",
          "name": "protocolFeeMultiplier",
          "type": "uint256"
        }
      ],
      "name": "getBuyInfo",
      "outputs": [
        {
          "internalType": "enum CurveErrorCodes.Error",
          "name": "error",
          "type": "uint8"
        },
        {
          "internalType": "uint128",
          "name": "newSpotPrice",
          "type": "uint128"
        },
        {
          "internalType": "uint128",
          "name": "newDelta",
          "type": "uint128"
        },
        {
          "internalType": "uint256",
          "name": "inputValue",
          "type": "uint256"
        },
        {
          "internalType": "uint256",
          "name": "protocolFee",
          "type": "uint256"
        }
      ],
      "stateMutability": "pure",
      "type": "function",
      "constant": true
    },
    {
      "inputs": [
        {
          "internalType": "uint128",
          "name": "spotPrice",
          "type": "uint128"
        },
        {
          "internalType": "uint128",
          "name": "delta",
          "type": "uint128"
        },
        {
          "internalType": "uint256",
          "name": "numItems",
          "type": "uint256"
        },
        {
          "internalType": "uint256",
          "name": "feeMultiplier",
          "type": "uint256"
        },
        {
          "internalType": "uint256",
          "name": "protocolFeeMultiplier",
          "type": "uint256"
        }
      ],
      "name": "getSellInfo",
      "outputs": [
        {
          "internalType": "enum CurveErrorCodes.Error",
          "name": "error",
          "type": "uint8"
        },
        {
          "internalType": "uint128",
          "name": "newSpotPrice",
          "type": "uint128"
        },
        {
          "internalType": "uint128",
          "name": "newDelta",
          "type": "uint128"
        },
        {
          "internalType": "uint256",
          "name": "outputValue",
          "type": "uint256"
        },
        {
          "internalType": "uint256",
          "name": "protocolFee",
          "type": "uint256"
        }
      ],
      "stateMutability": "pure",
      "type": "function",
      "constant": true
    }
  ],
  "bytecode": "0x608060405234801561001057600080fd5b50610538806100206000396000f3fe608060405234801561001057600080fd5b506004361061004c5760003560e01c8063097cc63d146100515780630ae67ccc1461007e5780637ca542ac146100a2578063a1bbb2e81461007e575b600080fd5b61006461005f366004610342565b6100b5565b60405161007595949392919061038f565b60405180910390f35b61009261008c3660046103d9565b50600190565b6040519015158152602001610075565b6100646100b0366004610342565b6101e0565b600080808080876100d557506001935060009250829150819050806101d3565b60006100ea896001600160801b038c16610411565b9050808b6001600160801b0316101561012957600094508461010c8b8d610446565b61011790600161046c565b6001600160801b031699506101369050565b610133818c610497565b94505b60026001600160801b038b1661014d60018c6104bf565b610157908c610411565b6101619190610411565b61016b91906104d6565b61017e6001600160801b038d168b610411565b61018891906104bf565b925061019d8388670de0b6b3a764000061030b565b91506101b28389670de0b6b3a764000061030b565b6101bc90846104bf565b92506101c882846104bf565b925089935060009550505b9550955095509550959050565b6000808080808761020057506001935060009250829150819050806101d3565b6000610215896001600160801b038c16610411565b610228906001600160801b038d166104ea565b90506001600160801b0381111561025157600260008060008095509550955095509550506101d3565b93508360006102608b8d61046c565b6001600160801b0316905060028b6001600160801b031660018c61028491906104bf565b61028e908d610411565b6102989190610411565b6102a291906104d6565b6102ac828c610411565b6102b691906104ea565b93506102cb8489670de0b6b3a764000061030b565b92506102e0848a670de0b6b3a764000061030b565b6102ea90856104ea565b93506102f683856104ea565b60009d969c5099509197509395505050505050565b828202831584820484141761031f57600080fd5b0492915050565b80356001600160801b038116811461033d57600080fd5b919050565b600080600080600060a0868803121561035a57600080fd5b61036386610326565b945061037160208701610326565b94979496505050506040830135926060810135926080909101359150565b60a08101600387106103b157634e487b7160e01b600052602160045260246000fd5b9581526001600160801b03948516602082015292909316604083015260608201526080015290565b6000602082840312156103eb57600080fd5b6103f482610326565b9392505050565b634e487b7160e01b600052601160045260246000fd5b600081600019048311821515161561042b5761042b6103fb565b500290565b634e487b7160e01b600052601260045260246000fd5b60006001600160801b038084168061046057610460610430565b92169190910492915050565b60006001600160801b0380831681851680830382111561048e5761048e6103fb565b01949350505050565b60006001600160801b03838116908316818110156104b7576104b76103fb565b039392505050565b6000828210156104d1576104d16103fb565b500390565b6000826104e5576104e5610430565b500490565b600082198211156104fd576104fd6103fb565b50019056fea2646970667358221220ad523b814bac59455235a53ec6f36f3e89dbffbf0ec16fa4157db88fa63ae86064736f6c634300080b0033",
  "immutableReferences": {},
  "source": "// SPDX-License-Identifier: AGPL-3.0\npragma solidity ^0.8.0;\n\nimport {ICurve} from \"./ICurve.sol\";\nimport {CurveErrorCodes} from \"./CurveErrorCodes.sol\";\nimport {FixedPointMathLib} from \"@rari-capital/solmate/src/utils/FixedPointMathLib.sol\";\n\n/*\n    @author 0xmons and boredGenius\n    @notice Bonding curve logic for a linear curve, where each buy/sell changes spot price by adding/substracting delta\n*/\ncontract LinearCurve is ICurve, CurveErrorCodes {\n    using FixedPointMathLib for uint256;\n\n    /**\n        @dev See {ICurve-validateDelta}\n     */\n    function validateDelta(\n        uint128 /*delta*/\n    ) external pure override returns (bool valid) {\n        // For a linear curve, all values of delta are valid\n        return true;\n    }\n\n    /**\n        @dev See {ICurve-validateSpotPrice}\n     */\n    function validateSpotPrice(\n        uint128 /* newSpotPrice */\n    ) external pure override returns (bool) {\n        // For a linear curve, all values of spot price are valid\n        return true;\n    }\n\n    /**\n        @dev See {ICurve-getBuyInfo}\n     */\n    function getBuyInfo(\n        uint128 spotPrice,\n        uint128 delta,\n        uint256 numItems,\n        uint256 feeMultiplier,\n        uint256 protocolFeeMultiplier\n    )\n        external\n        pure\n        override\n        returns (\n            Error error,\n            uint128 newSpotPrice,\n            uint128 newDelta,\n            uint256 inputValue,\n            uint256 protocolFee\n        )\n    {\n        // We only calculate changes for buying 1 or more NFTs\n        if (numItems == 0) {\n            return (Error.INVALID_NUMITEMS, 0, 0, 0, 0);\n        }\n\n        // For a linear curve, the spot price increases by delta for each item bought\n        uint256 newSpotPrice_ = spotPrice + delta * numItems;\n        if (newSpotPrice_ > type(uint128).max) {\n            return (Error.SPOT_PRICE_OVERFLOW, 0, 0, 0, 0);\n        }\n        newSpotPrice = uint128(newSpotPrice_);\n\n        // Spot price is assumed to be the instant sell price. To avoid arbitraging LPs, we adjust the buy price upwards.\n        // If spot price for buy and sell were the same, then someone could buy 1 NFT and then sell for immediate profit.\n        // EX: Let S be spot price. Then buying 1 NFT costs S ETH, now new spot price is (S+delta).\n        // The same person could then sell for (S+delta) ETH, netting them delta ETH profit.\n        // If spot price for buy and sell differ by delta, then buying costs (S+delta) ETH.\n        // The new spot price would become (S+delta), so selling would also yield (S+delta) ETH.\n        uint256 buySpotPrice = spotPrice + delta;\n\n        // If we buy n items, then the total cost is equal to:\n        // (buy spot price) + (buy spot price + 1*delta) + (buy spot price + 2*delta) + ... + (buy spot price + (n-1)*delta)\n        // This is equal to n*(buy spot price) + (delta)*(n*(n-1))/2\n        // because we have n instances of buy spot price, and then we sum up from delta to (n-1)*delta\n        inputValue =\n            numItems *\n            buySpotPrice +\n            (numItems * (numItems - 1) * delta) /\n            2;\n\n        // Account for the protocol fee, a flat percentage of the buy amount\n        protocolFee = inputValue.fmul(\n            protocolFeeMultiplier,\n            FixedPointMathLib.WAD\n        );\n\n        // Account for the trade fee, only for Trade pools\n        inputValue += inputValue.fmul(feeMultiplier, FixedPointMathLib.WAD);\n\n        // Add the protocol fee to the required input amount\n        inputValue += protocolFee;\n\n        // Keep delta the same\n        newDelta = delta;\n\n        // If we got all the way here, no math error happened\n        error = Error.OK;\n    }\n\n    /**\n        @dev See {ICurve-getSellInfo}\n     */\n    function getSellInfo(\n        uint128 spotPrice,\n        uint128 delta,\n        uint256 numItems,\n        uint256 feeMultiplier,\n        uint256 protocolFeeMultiplier\n    )\n        external\n        pure\n        override\n        returns (\n            Error error,\n            uint128 newSpotPrice,\n            uint128 newDelta,\n            uint256 outputValue,\n            uint256 protocolFee\n        )\n    {\n        // We only calculate changes for selling 1 or more NFTs\n        if (numItems == 0) {\n            return (Error.INVALID_NUMITEMS, 0, 0, 0, 0);\n        }\n\n        // We first calculate the change in spot price after selling all of the items\n        uint256 totalPriceDecrease = delta * numItems;\n\n        // If the current spot price is less than the total amount that the spot price should change by...\n        if (spotPrice < totalPriceDecrease) {\n            // Then we set the new spot price to be 0. (Spot price is never negative)\n            newSpotPrice = 0;\n\n            // We calculate how many items we can sell into the linear curve until the spot price reaches 0, rounding up\n            uint256 numItemsTillZeroPrice = spotPrice / delta + 1;\n            numItems = numItemsTillZeroPrice;\n        }\n        // Otherwise, the current spot price is greater than or equal to the total amount that the spot price changes\n        // Thus we don't need to calculate the maximum number of items until we reach zero spot price, so we don't modify numItems\n        else {\n            // The new spot price is just the change between spot price and the total price change\n            newSpotPrice = spotPrice - uint128(totalPriceDecrease);\n        }\n\n        // If we sell n items, then the total sale amount is:\n        // (spot price) + (spot price - 1*delta) + (spot price - 2*delta) + ... + (spot price - (n-1)*delta)\n        // This is equal to n*(spot price) - (delta)*(n*(n-1))/2\n        outputValue =\n            numItems *\n            spotPrice -\n            (numItems * (numItems - 1) * delta) /\n            2;\n\n        // Account for the protocol fee, a flat percentage of the sell amount\n        protocolFee = outputValue.fmul(\n            protocolFeeMultiplier,\n            FixedPointMathLib.WAD\n        );\n\n        // Account for the trade fee, only for Trade pools\n        outputValue -= outputValue.fmul(feeMultiplier, FixedPointMathLib.WAD);\n\n        // Subtract the protocol fee from the output amount to the seller\n        outputValue -= protocolFee;\n\n        // Keep delta the same\n        newDelta = delta;\n\n        // If we reached here, no math errors\n        error = Error.OK;\n    }\n}\n",
  "sourcePath": "/Users/ds/Documents/rarible/scripts/contracts/lsvm/bonding-curves/LinearCurve.sol",
  "compiler": {
    "name": "solc",
    "version": "0.8.11+commit.d7f03943.Emscripten.clang"
  },
  "schemaVersion": "3.4.3",
  "updatedAt": "2022-11-01T12:38:41.491Z",
  "networkType": "ethereum",
  "devdoc": {
    "kind": "dev",
    "methods": {
      "getBuyInfo(uint128,uint128,uint256,uint256,uint256)": {
        "details": "See {ICurve-getBuyInfo}"
      },
      "getSellInfo(uint128,uint128,uint256,uint256,uint256)": {
        "details": "See {ICurve-getSellInfo}"
      },
      "validateDelta(uint128)": {
        "details": "See {ICurve-validateDelta}"
      },
      "validateSpotPrice(uint128)": {
        "details": "See {ICurve-validateSpotPrice}"
      }
    },
    "version": 1
  },
  "userdoc": {
    "kind": "user",
    "methods": {},
    "version": 1
  }
}