{
  "contractName": "LSSVMPairEnumerableETH",
  "abi": [
    {
      "inputs": [
        {
          "internalType": "enum CurveErrorCodes.Error",
          "name": "error",
          "type": "uint8"
        }
      ],
      "name": "BondingCurveError",
      "type": "error"
    },
    {
      "inputs": [],
      "name": "Ownable_NewOwnerZeroAddress",
      "type": "error"
    },
    {
      "inputs": [],
      "name": "Ownable_NotOwner",
      "type": "error"
    },
    {
      "anonymous": false,
      "inputs": [
        {
          "indexed": false,
          "internalType": "address",
          "name": "a",
          "type": "address"
        }
      ],
      "name": "AssetRecipientChange",
      "type": "event"
    },
    {
      "anonymous": false,
      "inputs": [
        {
          "indexed": false,
          "internalType": "uint128",
          "name": "newDelta",
          "type": "uint128"
        }
      ],
      "name": "DeltaUpdate",
      "type": "event"
    },
    {
      "anonymous": false,
      "inputs": [
        {
          "indexed": false,
          "internalType": "uint96",
          "name": "newFee",
          "type": "uint96"
        }
      ],
      "name": "FeeUpdate",
      "type": "event"
    },
    {
      "anonymous": false,
      "inputs": [],
      "name": "NFTWithdrawal",
      "type": "event"
    },
    {
      "anonymous": false,
      "inputs": [
        {
          "indexed": true,
          "internalType": "address",
          "name": "newOwner",
          "type": "address"
        }
      ],
      "name": "OwnershipTransferred",
      "type": "event"
    },
    {
      "anonymous": false,
      "inputs": [
        {
          "indexed": false,
          "internalType": "uint128",
          "name": "newSpotPrice",
          "type": "uint128"
        }
      ],
      "name": "SpotPriceUpdate",
      "type": "event"
    },
    {
      "anonymous": false,
      "inputs": [],
      "name": "SwapNFTInPair",
      "type": "event"
    },
    {
      "anonymous": false,
      "inputs": [],
      "name": "SwapNFTOutPair",
      "type": "event"
    },
    {
      "anonymous": false,
      "inputs": [
        {
          "indexed": false,
          "internalType": "uint256",
          "name": "amount",
          "type": "uint256"
        }
      ],
      "name": "TokenDeposit",
      "type": "event"
    },
    {
      "anonymous": false,
      "inputs": [
        {
          "indexed": false,
          "internalType": "uint256",
          "name": "amount",
          "type": "uint256"
        }
      ],
      "name": "TokenWithdrawal",
      "type": "event"
    },
    {
      "stateMutability": "payable",
      "type": "fallback",
      "payable": true
    },
    {
      "inputs": [],
      "name": "assetRecipient",
      "outputs": [
        {
          "internalType": "address payable",
          "name": "",
          "type": "address"
        }
      ],
      "stateMutability": "view",
      "type": "function",
      "constant": true
    },
    {
      "inputs": [],
      "name": "bondingCurve",
      "outputs": [
        {
          "internalType": "contract ICurve",
          "name": "_bondingCurve",
          "type": "address"
        }
      ],
      "stateMutability": "pure",
      "type": "function",
      "constant": true
    },
    {
      "inputs": [
        {
          "internalType": "address payable",
          "name": "target",
          "type": "address"
        },
        {
          "internalType": "bytes",
          "name": "data",
          "type": "bytes"
        }
      ],
      "name": "call",
      "outputs": [],
      "stateMutability": "nonpayable",
      "type": "function"
    },
    {
      "inputs": [
        {
          "internalType": "address payable",
          "name": "newRecipient",
          "type": "address"
        }
      ],
      "name": "changeAssetRecipient",
      "outputs": [],
      "stateMutability": "nonpayable",
      "type": "function"
    },
    {
      "inputs": [
        {
          "internalType": "uint128",
          "name": "newDelta",
          "type": "uint128"
        }
      ],
      "name": "changeDelta",
      "outputs": [],
      "stateMutability": "nonpayable",
      "type": "function"
    },
    {
      "inputs": [
        {
          "internalType": "uint96",
          "name": "newFee",
          "type": "uint96"
        }
      ],
      "name": "changeFee",
      "outputs": [],
      "stateMutability": "nonpayable",
      "type": "function"
    },
    {
      "inputs": [
        {
          "internalType": "uint128",
          "name": "newSpotPrice",
          "type": "uint128"
        }
      ],
      "name": "changeSpotPrice",
      "outputs": [],
      "stateMutability": "nonpayable",
      "type": "function"
    },
    {
      "inputs": [],
      "name": "delta",
      "outputs": [
        {
          "internalType": "uint128",
          "name": "",
          "type": "uint128"
        }
      ],
      "stateMutability": "view",
      "type": "function",
      "constant": true
    },
    {
      "inputs": [],
      "name": "factory",
      "outputs": [
        {
          "internalType": "contract ILSSVMPairFactoryLike",
          "name": "_factory",
          "type": "address"
        }
      ],
      "stateMutability": "pure",
      "type": "function",
      "constant": true
    },
    {
      "inputs": [],
      "name": "fee",
      "outputs": [
        {
          "internalType": "uint96",
          "name": "",
          "type": "uint96"
        }
      ],
      "stateMutability": "view",
      "type": "function",
      "constant": true
    },
    {
      "inputs": [],
      "name": "getAllHeldIds",
      "outputs": [
        {
          "internalType": "uint256[]",
          "name": "",
          "type": "uint256[]"
        }
      ],
      "stateMutability": "view",
      "type": "function",
      "constant": true
    },
    {
      "inputs": [],
      "name": "getAssetRecipient",
      "outputs": [
        {
          "internalType": "address payable",
          "name": "_assetRecipient",
          "type": "address"
        }
      ],
      "stateMutability": "view",
      "type": "function",
      "constant": true
    },
    {
      "inputs": [
        {
          "internalType": "uint256",
          "name": "numNFTs",
          "type": "uint256"
        }
      ],
      "name": "getBuyNFTQuote",
      "outputs": [
        {
          "internalType": "enum CurveErrorCodes.Error",
          "name": "error",
          "type": "uint8"
        },
        {
          "internalType": "uint256",
          "name": "newSpotPrice",
          "type": "uint256"
        },
        {
          "internalType": "uint256",
          "name": "newDelta",
          "type": "uint256"
        },
        {
          "internalType": "uint256",
          "name": "inputAmount",
          "type": "uint256"
        },
        {
          "internalType": "uint256",
          "name": "protocolFee",
          "type": "uint256"
        }
      ],
      "stateMutability": "view",
      "type": "function",
      "constant": true
    },
    {
      "inputs": [
        {
          "internalType": "uint256",
          "name": "numNFTs",
          "type": "uint256"
        }
      ],
      "name": "getSellNFTQuote",
      "outputs": [
        {
          "internalType": "enum CurveErrorCodes.Error",
          "name": "error",
          "type": "uint8"
        },
        {
          "internalType": "uint256",
          "name": "newSpotPrice",
          "type": "uint256"
        },
        {
          "internalType": "uint256",
          "name": "newDelta",
          "type": "uint256"
        },
        {
          "internalType": "uint256",
          "name": "outputAmount",
          "type": "uint256"
        },
        {
          "internalType": "uint256",
          "name": "protocolFee",
          "type": "uint256"
        }
      ],
      "stateMutability": "view",
      "type": "function",
      "constant": true
    },
    {
      "inputs": [
        {
          "internalType": "address",
          "name": "_owner",
          "type": "address"
        },
        {
          "internalType": "address payable",
          "name": "_assetRecipient",
          "type": "address"
        },
        {
          "internalType": "uint128",
          "name": "_delta",
          "type": "uint128"
        },
        {
          "internalType": "uint96",
          "name": "_fee",
          "type": "uint96"
        },
        {
          "internalType": "uint128",
          "name": "_spotPrice",
          "type": "uint128"
        }
      ],
      "name": "initialize",
      "outputs": [],
      "stateMutability": "payable",
      "type": "function",
      "payable": true
    },
    {
      "inputs": [
        {
          "internalType": "bytes[]",
          "name": "calls",
          "type": "bytes[]"
        },
        {
          "internalType": "bool",
          "name": "revertOnFail",
          "type": "bool"
        }
      ],
      "name": "multicall",
      "outputs": [],
      "stateMutability": "nonpayable",
      "type": "function"
    },
    {
      "inputs": [],
      "name": "nft",
      "outputs": [
        {
          "internalType": "contract IERC721",
          "name": "_nft",
          "type": "address"
        }
      ],
      "stateMutability": "pure",
      "type": "function",
      "constant": true
    },
    {
      "inputs": [
        {
          "internalType": "address",
          "name": "",
          "type": "address"
        },
        {
          "internalType": "address",
          "name": "",
          "type": "address"
        },
        {
          "internalType": "uint256[]",
          "name": "",
          "type": "uint256[]"
        },
        {
          "internalType": "uint256[]",
          "name": "",
          "type": "uint256[]"
        },
        {
          "internalType": "bytes",
          "name": "",
          "type": "bytes"
        }
      ],
      "name": "onERC1155BatchReceived",
      "outputs": [
        {
          "internalType": "bytes4",
          "name": "",
          "type": "bytes4"
        }
      ],
      "stateMutability": "nonpayable",
      "type": "function"
    },
    {
      "inputs": [
        {
          "internalType": "address",
          "name": "",
          "type": "address"
        },
        {
          "internalType": "address",
          "name": "",
          "type": "address"
        },
        {
          "internalType": "uint256",
          "name": "",
          "type": "uint256"
        },
        {
          "internalType": "uint256",
          "name": "",
          "type": "uint256"
        },
        {
          "internalType": "bytes",
          "name": "",
          "type": "bytes"
        }
      ],
      "name": "onERC1155Received",
      "outputs": [
        {
          "internalType": "bytes4",
          "name": "",
          "type": "bytes4"
        }
      ],
      "stateMutability": "nonpayable",
      "type": "function"
    },
    {
      "inputs": [
        {
          "internalType": "address",
          "name": "",
          "type": "address"
        },
        {
          "internalType": "address",
          "name": "",
          "type": "address"
        },
        {
          "internalType": "uint256",
          "name": "",
          "type": "uint256"
        },
        {
          "internalType": "bytes",
          "name": "",
          "type": "bytes"
        }
      ],
      "name": "onERC721Received",
      "outputs": [
        {
          "internalType": "bytes4",
          "name": "",
          "type": "bytes4"
        }
      ],
      "stateMutability": "nonpayable",
      "type": "function"
    },
    {
      "inputs": [],
      "name": "owner",
      "outputs": [
        {
          "internalType": "address",
          "name": "",
          "type": "address"
        }
      ],
      "stateMutability": "view",
      "type": "function",
      "constant": true
    },
    {
      "inputs": [],
      "name": "poolType",
      "outputs": [
        {
          "internalType": "enum LSSVMPair.PoolType",
          "name": "_poolType",
          "type": "uint8"
        }
      ],
      "stateMutability": "pure",
      "type": "function",
      "constant": true
    },
    {
      "inputs": [],
      "name": "spotPrice",
      "outputs": [
        {
          "internalType": "uint128",
          "name": "",
          "type": "uint128"
        }
      ],
      "stateMutability": "view",
      "type": "function",
      "constant": true
    },
    {
      "inputs": [
        {
          "internalType": "bytes4",
          "name": "interfaceId",
          "type": "bytes4"
        }
      ],
      "name": "supportsInterface",
      "outputs": [
        {
          "internalType": "bool",
          "name": "",
          "type": "bool"
        }
      ],
      "stateMutability": "view",
      "type": "function",
      "constant": true
    },
    {
      "inputs": [
        {
          "internalType": "uint256[]",
          "name": "nftIds",
          "type": "uint256[]"
        },
        {
          "internalType": "uint256",
          "name": "minExpectedTokenOutput",
          "type": "uint256"
        },
        {
          "internalType": "address payable",
          "name": "tokenRecipient",
          "type": "address"
        },
        {
          "internalType": "bool",
          "name": "isRouter",
          "type": "bool"
        },
        {
          "internalType": "address",
          "name": "routerCaller",
          "type": "address"
        }
      ],
      "name": "swapNFTsForToken",
      "outputs": [
        {
          "internalType": "uint256",
          "name": "outputAmount",
          "type": "uint256"
        }
      ],
      "stateMutability": "nonpayable",
      "type": "function"
    },
    {
      "inputs": [
        {
          "internalType": "uint256",
          "name": "numNFTs",
          "type": "uint256"
        },
        {
          "internalType": "uint256",
          "name": "maxExpectedTokenInput",
          "type": "uint256"
        },
        {
          "internalType": "address",
          "name": "nftRecipient",
          "type": "address"
        },
        {
          "internalType": "bool",
          "name": "isRouter",
          "type": "bool"
        },
        {
          "internalType": "address",
          "name": "routerCaller",
          "type": "address"
        }
      ],
      "name": "swapTokenForAnyNFTs",
      "outputs": [
        {
          "internalType": "uint256",
          "name": "inputAmount",
          "type": "uint256"
        }
      ],
      "stateMutability": "payable",
      "type": "function",
      "payable": true
    },
    {
      "inputs": [
        {
          "internalType": "uint256[]",
          "name": "nftIds",
          "type": "uint256[]"
        },
        {
          "internalType": "uint256",
          "name": "maxExpectedTokenInput",
          "type": "uint256"
        },
        {
          "internalType": "address",
          "name": "nftRecipient",
          "type": "address"
        },
        {
          "internalType": "bool",
          "name": "isRouter",
          "type": "bool"
        },
        {
          "internalType": "address",
          "name": "routerCaller",
          "type": "address"
        }
      ],
      "name": "swapTokenForSpecificNFTs",
      "outputs": [
        {
          "internalType": "uint256",
          "name": "inputAmount",
          "type": "uint256"
        }
      ],
      "stateMutability": "payable",
      "type": "function",
      "payable": true
    },
    {
      "inputs": [
        {
          "internalType": "address",
          "name": "newOwner",
          "type": "address"
        }
      ],
      "name": "transferOwnership",
      "outputs": [],
      "stateMutability": "nonpayable",
      "type": "function"
    },
    {
      "inputs": [],
      "name": "withdrawAllETH",
      "outputs": [],
      "stateMutability": "nonpayable",
      "type": "function"
    },
    {
      "inputs": [
        {
          "internalType": "contract IERC1155",
          "name": "a",
          "type": "address"
        },
        {
          "internalType": "uint256[]",
          "name": "ids",
          "type": "uint256[]"
        },
        {
          "internalType": "uint256[]",
          "name": "amounts",
          "type": "uint256[]"
        }
      ],
      "name": "withdrawERC1155",
      "outputs": [],
      "stateMutability": "nonpayable",
      "type": "function"
    },
    {
      "inputs": [
        {
          "internalType": "contract ERC20",
          "name": "a",
          "type": "address"
        },
        {
          "internalType": "uint256",
          "name": "amount",
          "type": "uint256"
        }
      ],
      "name": "withdrawERC20",
      "outputs": [],
      "stateMutability": "nonpayable",
      "type": "function"
    },
    {
      "inputs": [
        {
          "internalType": "contract IERC721",
          "name": "a",
          "type": "address"
        },
        {
          "internalType": "uint256[]",
          "name": "nftIds",
          "type": "uint256[]"
        }
      ],
      "name": "withdrawERC721",
      "outputs": [],
      "stateMutability": "nonpayable",
      "type": "function"
    },
    {
      "inputs": [
        {
          "internalType": "uint256",
          "name": "amount",
          "type": "uint256"
        }
      ],
      "name": "withdrawETH",
      "outputs": [],
      "stateMutability": "nonpayable",
      "type": "function"
    },
    {
      "stateMutability": "payable",
      "type": "receive",
      "payable": true
    },
    {
      "inputs": [],
      "name": "pairVariant",
      "outputs": [
        {
          "internalType": "enum ILSSVMPairFactoryLike.PairVariant",
          "name": "",
          "type": "uint8"
        }
      ],
      "stateMutability": "pure",
      "type": "function",
      "constant": true
    }
  ],
  "bytecode": "0x608060405234801561001057600080fd5b506138e7806100206000396000f3fe6080604052600436106101fd5760003560e01c80638da5cb5b1161010d578063c45a0155116100a0578063f14210a61161006f578063f14210a614610684578063f23a6e61146106a4578063f2fde38b146106d0578063f4629549146106f0578063fd17aef91461071057610238565b8063c45a015514610602578063d8a1890c14610617578063ddca3f4314610637578063eff1d50e1461066f57610238565b8063a5ceac99116100dc578063a5ceac9914610574578063b1d3f1c114610594578063b1dd61b6146105b4578063bc197c81146105d657610238565b80638da5cb5b1461050157806390386bbf1461051f578063a1db978214610534578063a5cb2b911461055457610238565b80632f4fefaf1161019057806347ccca021161015f57806347ccca021461047e5780636809f664146104995780636b7a2200146104b95780636d8b99f7146104d957806379eac6c2146104ec57610238565b80632f4fefaf146103e15780633053fc5814610403578063398482d81461041f5780633bfa67fe1461043f57610238565b8063150b7a02116101cc578063150b7a021461033c5780631b8b921d146103805780631e9701d4146103a057806328b8aee1146103c057610238565b806301ffc9a7146102755780630c295e56146102aa57806312b495a8146102db57806313edab811461031a57610238565b36610238576040513481527ff1b3be8dace0fecfbdb6fb0fa1cc014c612bcb1b46db027c1ece5fc11fff09d6906020015b60405180910390a1005b603d361461024557600080fd5b6040513481527ff1b3be8dace0fecfbdb6fb0fa1cc014c612bcb1b46db027c1ece5fc11fff09d69060200161022e565b34801561028157600080fd5b50610295610290366004612cde565b610723565b60405190151581526020015b60405180910390f35b3480156102b657600080fd5b506102ca6102c5366004612d0f565b61075a565b6040516102a1959493929190612d4e565b3480156102e757600080fd5b5060025461030290600160801b90046001600160801b031681565b6040516001600160801b0390911681526020016102a1565b34801561032657600080fd5b5061033a610335366004612ddc565b61088e565b005b34801561034857600080fd5b50610367610357366004612ef3565b630a85bd0160e11b949350505050565b6040516001600160e01b031990911681526020016102a1565b34801561038c57600080fd5b5061033a61039b366004612f5e565b610989565b3480156103ac57600080fd5b5061033a6103bb366004612ff0565b610b32565b6103d36103ce366004613046565b610cae565b6040519081526020016102a1565b3480156103ed57600080fd5b506103f6610e8e565b6040516102a191906130a5565b34801561040f57600080fd5b5060006040516102a191906130fd565b34801561042b57600080fd5b50600254610302906001600160801b031681565b34801561044b57600080fd5b5060035461046690600160601b90046001600160a01b031681565b6040516001600160a01b0390911681526020016102a1565b34801561048a57600080fd5b5036601419013560601c610466565b3480156104a557600080fd5b5061033a6104b4366004613120565b610ff7565b3480156104c557600080fd5b5061033a6104d4366004613159565b611168565b6103d36104e7366004613174565b6112ce565b3480156104f857600080fd5b50610466611425565b34801561050d57600080fd5b506000546001600160a01b0316610466565b34801561052b57600080fd5b5061033a61146c565b34801561054057600080fd5b5061033a61054f3660046131f8565b6114b1565b34801561056057600080fd5b506102ca61056f366004612d0f565b6114ff565b34801561058057600080fd5b5061033a61058f366004613224565b611551565b3480156105a057600080fd5b506103d36105af366004613174565b6115fa565b3480156105c057600080fd5b506105c9611751565b6040516102a191906132a6565b3480156105e257600080fd5b506103676105f1366004613338565b63bc197c8160e01b95945050505050565b34801561060e57600080fd5b5061046661175d565b34801561062357600080fd5b5061033a610632366004613120565b611769565b34801561064357600080fd5b50600354610657906001600160601b031681565b6040516001600160601b0390911681526020016102a1565b34801561067b57600080fd5b506104666118d0565b34801561069057600080fd5b5061033a61069f366004612d0f565b6118dc565b3480156106b057600080fd5b506103676106bf3660046133e5565b63f23a6e6160e01b95945050505050565b3480156106dc57600080fd5b5061033a6106eb36600461344d565b611971565b3480156106fc57600080fd5b5061033a61070b36600461344d565b611a6e565b61033a61071e36600461346a565b611b7e565b60006001600160e01b03198216630271189760e51b148061075457506301ffc9a760e01b6001600160e01b03198316145b92915050565b600080600080600061076a6118d0565b6002546003546001600160a01b03929092169163097cc63d916001600160801b0380821692600160801b90920416908a906001600160601b03166107ac61175d565b6001600160a01b0316631ce4c78b6040518163ffffffff1660e01b8152600401602060405180830381865afa1580156107e9573d6000803e3d6000fd5b505050506040513d601f19601f8201168201806040525081019061080d91906134cb565b6040518663ffffffff1660e01b815260040161082d9594939291906134e4565b60a060405180830381865afa15801561084a573d6000803e3d6000fd5b505050506040513d601f19601f8201168201806040525081019061086e919061351e565b939a6001600160801b039384169a50919092169750909550909350915050565b336108a16000546001600160a01b031690565b6001600160a01b0316146108c857604051635eee3ad160e01b815260040160405180910390fd5b8060005b8181101561095957846001600160a01b03166342842e0e30338787868181106108f7576108f7613580565b905060200201356040518463ffffffff1660e01b815260040161091c93929190613596565b600060405180830381600087803b15801561093657600080fd5b505af115801561094a573d6000803e3d6000fd5b505050508060010190506108cc565b506040517f242b9b8fb5c0e6298454fcf80a0fbcbb7308620133d92b50091a1f64cee790e890600090a150505050565b3361099c6000546001600160a01b031690565b6001600160a01b0316146109c357604051635eee3ad160e01b815260040160405180910390fd5b60006109cd61175d565b6040516303f752bd60e31b81526001600160a01b03868116600483015291925090821690631fba95e890602401602060405180830381865afa158015610a17573d6000803e3d6000fd5b505050506040513d601f19601f82011682018060405250810190610a3b91906135ba565b610a8c5760405162461bcd60e51b815260206004820152601a60248201527f546172676574206d7573742062652077686974656c697374656400000000000060448201526064015b60405180910390fd5b6000846001600160a01b031660008585604051610aaa9291906135d7565b60006040518083038185875af1925050503d8060008114610ae7576040519150601f19603f3d011682016040523d82523d6000602084013e610aec565b606091505b5050905080610b2b5760405162461bcd60e51b815260206004820152600b60248201526a10d85b1b0819985a5b195960aa1b6044820152606401610a83565b5050505050565b33610b456000546001600160a01b031690565b6001600160a01b031614610b6c57604051635eee3ad160e01b815260040160405180910390fd5b60005b82811015610c2e5760008030868685818110610b8d57610b8d613580565b9050602002810190610b9f91906135e7565b604051610bad9291906135d7565b600060405180830381855af49150503d8060008114610be8576040519150601f19603f3d011682016040523d82523d6000602084013e610bed565b606091505b509150915081158015610bfd5750835b15610c2457610c0b81611f60565b60405162461bcd60e51b8152600401610a839190613659565b5050600101610b6f565b5033610c426000546001600160a01b031690565b6001600160a01b031614610ca95760405162461bcd60e51b815260206004820152602860248201527f4f776e6572736869702063616e6e6f74206265206368616e67656420696e206d6044820152671d5b1d1a58d85b1b60c21b6064820152608401610a83565b505050565b600060026001541415610cd35760405162461bcd60e51b8152600401610a839061368c565b60026001556000610ce261175d565b90506000610cee6118d0565b905060141936013560601c6000610d03611751565b90506001816002811115610d1957610d19612d28565b1480610d3657506002816002811115610d3457610d34612d28565b145b610d525760405162461bcd60e51b8152600401610a83906136c3565b60008a118015610dc957506040516370a0823160e01b81523060048201526001600160a01b038316906370a0823190602401602060405180830381865afa158015610da1573d6000803e3d6000fd5b505050506040513d601f19601f82011682018060405250810190610dc591906134cb565b8a11155b610e1f5760405162461bcd60e51b815260206004820152602160248201527f41736b20666f72203e203020616e64203c3d2062616c616e63654f66204e46546044820152607360f81b6064820152608401610a83565b506000610e2e8a8a8587611fbf565b95509050610e3f8588888785612274565b610e4a82898c612326565b610e5385612492565b6040517fbc479dfc6cb9c1a9d880f987ee4b30fa43dd7f06aec121db685b67d587c93c9390600090a150506001805550909695505050505050565b60606000366014190135821c6040516370a0823160e01b81523060048201529091506000906001600160a01b038316906370a0823190602401602060405180830381865afa158015610ee4573d6000803e3d6000fd5b505050506040513d601f19601f82011682018060405250810190610f0891906134cb565b90506000816001600160401b03811115610f2457610f24612e30565b604051908082528060200260200182016040528015610f4d578160200160208202803683370190505b50905060005b82811015610fef57604051632f745c5960e01b8152306004820152602481018290526001600160a01b03851690632f745c5990604401602060405180830381865afa158015610fa6573d6000803e3d6000fd5b505050506040513d601f19601f82011682018060405250810190610fca91906134cb565b828281518110610fdc57610fdc613580565b6020908102919091010152600101610f53565b509392505050565b3361100a6000546001600160a01b031690565b6001600160a01b03161461103157604051635eee3ad160e01b815260040160405180910390fd5b600061103b6118d0565b6040516302b99f3360e21b81526001600160801b03841660048201529091506001600160a01b03821690630ae67ccc90602401602060405180830381865afa15801561108b573d6000803e3d6000fd5b505050506040513d601f19601f820116820180604052508101906110af91906135ba565b6110f55760405162461bcd60e51b8152602060048201526017602482015276496e76616c69642064656c746120666f7220637572766560481b6044820152606401610a83565b6002546001600160801b03838116600160801b909204161461116457600280546001600160801b03908116600160801b918516918202179091556040519081527fc958ae052d28f8d17bc2c4ddbabb699a3cab5cccefd034d0fc971efdadc01da5906020015b60405180910390a15b5050565b3361117b6000546001600160a01b031690565b6001600160a01b0316146111a257604051635eee3ad160e01b815260040160405180910390fd5b60006111ac611751565b905060028160028111156111c2576111c2612d28565b146112065760405162461bcd60e51b81526020600482015260146024820152734f6e6c7920666f7220547261646520706f6f6c7360601b6044820152606401610a83565b670c7d713b49da0000826001600160601b0316106112665760405162461bcd60e51b815260206004820152601f60248201527f547261646520666565206d757374206265206c657373207468616e20393025006044820152606401610a83565b6003546001600160601b0383811691161461116457600380546bffffffffffffffffffffffff19166001600160601b0384169081179091556040519081527f66c55c30868c51e7ad52e3d85d1403576a9967614e67c48e25b55a10baa650c09060200161115b565b6000600260015414156112f35760405162461bcd60e51b8152600401610a839061368c565b6002600155600061130261175d565b9050600061130e6118d0565b9050600061131a611751565b9050600181600281111561133057611330612d28565b148061134d5750600281600281111561134b5761134b612d28565b145b6113695760405162461bcd60e51b8152600401610a83906136c3565b886113ae5760405162461bcd60e51b81526020600482015260156024820152744d7573742061736b20666f72203e2030204e46547360581b6044820152606401610a83565b5060006113bd89898486611fbf565b945090506113ce8487878685612274565b6113e236601419013560601c888c8c6124ae565b6113eb84612492565b6040517fbc479dfc6cb9c1a9d880f987ee4b30fa43dd7f06aec121db685b67d587c93c9390600090a1505060018055509695505050505050565b60006002611431611751565b600281111561144257611442612d28565b141561144d57503090565b50600354600160601b90046001600160a01b0316806114695750305b90565b3361147f6000546001600160a01b031690565b6001600160a01b0316146114a657604051635eee3ad160e01b815260040160405180910390fd5b6114af476118dc565b565b336114c46000546001600160a01b031690565b6001600160a01b0316146114eb57604051635eee3ad160e01b815260040160405180910390fd5b6111646001600160a01b038316338361253f565b600080600080600061150f6118d0565b6002546003546001600160a01b039290921691637ca542ac916001600160801b0380821692600160801b90920416908a906001600160601b03166107ac61175d565b336115646000546001600160a01b031690565b6001600160a01b03161461158b57604051635eee3ad160e01b815260040160405180910390fd5b604051631759616b60e11b81526001600160a01b03861690632eb2c2d6906115c190309033908990899089908990600401613722565b600060405180830381600087803b1580156115db57600080fd5b505af11580156115ef573d6000803e3d6000fd5b505050505050505050565b60006002600154141561161f5760405162461bcd60e51b8152600401610a839061368c565b6002600155600061162e61175d565b9050600061163a6118d0565b90506000611646611751565b9050600081600281111561165c5761165c612d28565b14806116795750600281600281111561167757611677612d28565b145b6116955760405162461bcd60e51b8152600401610a83906136c3565b886116da5760405162461bcd60e51b81526020600482015260156024820152744d7573742061736b20666f72203e2030204e46547360581b6044820152606401610a83565b5060006116e9898984866125bd565b945090506116f7878561276a565b6117018382612783565b61171736601419013560601c8b8b868a8a6127ac565b6040517f3614eb567740a0ee3897c0e2b11ad6a5720d2e4438f9c8accf6c95c24af3a47090600090a1505060018055509695505050505050565b60001936013560f81c90565b603c1936013560601c90565b3361177c6000546001600160a01b031690565b6001600160a01b0316146117a357604051635eee3ad160e01b815260040160405180910390fd5b60006117ad6118d0565b604051631437765d60e31b81526001600160801b03841660048201529091506001600160a01b0382169063a1bbb2e890602401602060405180830381865afa1580156117fd573d6000803e3d6000fd5b505050506040513d601f19601f8201168201806040525081019061182191906135ba565b61186d5760405162461bcd60e51b815260206004820181905260248201527f496e76616c6964206e65772073706f7420707269636520666f722063757276656044820152606401610a83565b6002546001600160801b0383811691161461116457600280546001600160801b0319166001600160801b0384169081179091556040519081527ff06180fdbe95e5193df4dcd1352726b1f04cb58599ce58552cc952447af2ffbb9060200161115b565b60281936013560601c90565b336118ef6000546001600160a01b031690565b6001600160a01b03161461191657604051635eee3ad160e01b815260040160405180910390fd5b61193b8161192c6000546001600160a01b031690565b6001600160a01b031690612c45565b6040518181527f0e266e8f38544aa1480d73762386eb10df55b1b8453d935762e891c44b69a1e69060200160405180910390a150565b336119846000546001600160a01b031690565b6001600160a01b0316146119ab57604051635eee3ad160e01b815260040160405180910390fd5b6001600160a01b0381166119d257604051633b7c6c7f60e21b815260040160405180910390fd5b6119db81612c96565b6001600160a01b0381163b15611a6b576040516314e8368d60e31b81523360048201526001600160a01b0382169063a741b46890602401600060405180830381600087803b158015611a2c57600080fd5b505af1925050508015611a3d575060015b611a6b573d808015610ca9576040519150601f19603f3d011682016040523d82523d6000602084013e505050565b50565b33611a816000546001600160a01b031690565b6001600160a01b031614611aa857604051635eee3ad160e01b815260040160405180910390fd5b6000611ab2611751565b90506002816002811115611ac857611ac8612d28565b1415611b0c5760405162461bcd60e51b81526020600482015260136024820152724e6f7420666f7220547261646520706f6f6c7360681b6044820152606401610a83565b6003546001600160a01b03838116600160601b909204161461116457600380546001600160601b0316600160601b6001600160a01b038516908102919091179091556040519081527f678f61dcdee86474eddea0407caf8f1f5130382a90dedabaef94906ed86a27b49060200161115b565b6000546001600160a01b031615611bc55760405162461bcd60e51b815260206004820152600b60248201526a125b9a5d1a585b1a5e995960aa1b6044820152606401610a83565b600080546001600160a01b0319166001600160a01b038716179055611be960018055565b6000611bf36118d0565b90506000611bff611751565b90506000816002811115611c1557611c15612d28565b1480611c3257506001816002811115611c3057611c30612d28565b145b15611cc1576001600160601b03841615611c9c5760405162461bcd60e51b815260206004820152602560248201527f4f6e6c7920547261646520506f6f6c732063616e2068617665206e6f6e7a65726044820152646f2066656560d81b6064820152608401610a83565b600380546001600160601b0316600160601b6001600160a01b03891602179055611dc1565b6002816002811115611cd557611cd5612d28565b1415611dc157670c7d713b49da0000846001600160601b031610611d3b5760405162461bcd60e51b815260206004820152601f60248201527f547261646520666565206d757374206265206c657373207468616e20393025006044820152606401610a83565b6001600160a01b03861615611da05760405162461bcd60e51b815260206004820152602560248201527f547261646520706f6f6c732063616e27742073657420617373657420726563696044820152641c1a595b9d60da1b6064820152608401610a83565b600380546bffffffffffffffffffffffff19166001600160601b0386161790555b6040516302b99f3360e21b81526001600160801b03861660048201526001600160a01b03831690630ae67ccc90602401602060405180830381865afa158015611e0e573d6000803e3d6000fd5b505050506040513d601f19601f82011682018060405250810190611e3291906135ba565b611e785760405162461bcd60e51b8152602060048201526017602482015276496e76616c69642064656c746120666f7220637572766560481b6044820152606401610a83565b604051631437765d60e31b81526001600160801b03841660048201526001600160a01b0383169063a1bbb2e890602401602060405180830381865afa158015611ec5573d6000803e3d6000fd5b505050506040513d601f19601f82011682018060405250810190611ee991906135ba565b611f355760405162461bcd60e51b815260206004820181905260248201527f496e76616c6964206e65772073706f7420707269636520666f722063757276656044820152606401610a83565b50506001600160801b039081169216600160801b026001600160801b03191691909117600255505050565b6060604482511015611fa557505060408051808201909152601d81527f5472616e73616374696f6e2072657665727465642073696c656e746c79000000602082015290565b600482019150818060200190518101906107549190613781565b600080600080600260009054906101000a90046001600160801b03169050600080600260109054906101000a90046001600160801b031690506000886001600160a01b0316637ca542ac85848e600360009054906101000a90046001600160601b03168d6001600160a01b0316631ce4c78b6040518163ffffffff1660e01b8152600401602060405180830381865afa158015612060573d6000803e3d6000fd5b505050506040513d601f19601f8201168201806040525081019061208491906134cb565b6040518663ffffffff1660e01b81526004016120a49594939291906134e4565b60a060405180830381865afa1580156120c1573d6000803e3d6000fd5b505050506040513d601f19601f820116820180604052508101906120e5919061351e565b9a50985091965093509050600085600281111561210457612104612d28565b14612124578460405163393cb16b60e21b8152600401610a8391906132a6565b898611156121695760405162461bcd60e51b8152602060048201526012602482015271496e20746f6f206d616e7920746f6b656e7360701b6044820152606401610a83565b826001600160801b0316846001600160801b031614158061219c5750806001600160801b0316826001600160801b031614155b156121ba576001600160801b03818116600160801b02908416176002555b826001600160801b0316846001600160801b031614612210576040516001600160801b03841681527ff06180fdbe95e5193df4dcd1352726b1f04cb58599ce58552cc952447af2ffbb9060200160405180910390a15b806001600160801b0316826001600160801b031614612266576040516001600160801b03821681527fc958ae052d28f8d17bc2c4ddbabb699a3cab5cccefd034d0fc971efdadc01da59060200160405180910390a15b505050505094509492505050565b843410156122ba5760405162461bcd60e51b81526020600482015260136024820152720a6cadce840e8dede40d8d2e8e8d8ca408aa89606b1b6044820152606401610a83565b60006122c4611425565b90506001600160a01b03811630146122f3576122f36122e383886137f7565b6001600160a01b03831690612c45565b811561231e5747821115612305574791505b811561231e5761231e6001600160a01b03841683612c45565b505050505050565b6040516370a0823160e01b81523060048201526000906001906001600160a01b038616906370a0823190602401602060405180830381865afa158015612370573d6000803e3d6000fd5b505050506040513d601f19601f8201168201806040525081019061239491906134cb565b61239e91906137f7565b905060005b82811015610b2b57604051632f745c5960e01b8152306004820152602481018390526000906001600160a01b03871690632f745c5990604401602060405180830381865afa1580156123f9573d6000803e3d6000fd5b505050506040513d601f19601f8201168201806040525081019061241d91906134cb565b604051632142170760e11b81529091506001600160a01b038716906342842e0e9061245090309089908690600401613596565b600060405180830381600087803b15801561246a57600080fd5b505af115801561247e573d6000803e3d6000fd5b5050600019909401935050506001016123a3565b80341115611a6b57611a6b6124a782346137f7565b3390612c45565b8060005b8181101561231e57856001600160a01b03166342842e0e30878787868181106124dd576124dd613580565b905060200201356040518463ffffffff1660e01b815260040161250293929190613596565b600060405180830381600087803b15801561251c57600080fd5b505af1158015612530573d6000803e3d6000fd5b505050508060010190506124b2565b600060405163a9059cbb60e01b8152836004820152826024820152602060006044836000895af13d15601f3d11600160005114161716915050806125b75760405162461bcd60e51b815260206004820152600f60248201526e1514905394d1915497d19052531151608a1b6044820152606401610a83565b50505050565b600080600080600260009054906101000a90046001600160801b03169050600080600260109054906101000a90046001600160801b031690506000886001600160a01b031663097cc63d85848e600360009054906101000a90046001600160601b03168d6001600160a01b0316631ce4c78b6040518163ffffffff1660e01b8152600401602060405180830381865afa15801561265e573d6000803e3d6000fd5b505050506040513d601f19601f8201168201806040525081019061268291906134cb565b6040518663ffffffff1660e01b81526004016126a29594939291906134e4565b60a060405180830381865afa1580156126bf573d6000803e3d6000fd5b505050506040513d601f19601f820116820180604052508101906126e3919061351e565b9a50985091965093509050600085600281111561270257612702612d28565b14612722578460405163393cb16b60e21b8152600401610a8391906132a6565b898610156121695760405162461bcd60e51b81526020600482015260156024820152744f757420746f6f206c6974746c6520746f6b656e7360581b6044820152606401610a83565b8015611164576111646001600160a01b03831682612c45565b8015611164574781111561276a5750478015611164576111646001600160a01b03831682612c45565b60006127b6611425565b9050848315612bab5760405163a93ec68b60e01b81523360048201819052906000906001600160a01b0388169063a93ec68b906024016040805180830381865afa158015612808573d6000803e3d6000fd5b505050506040513d601f19601f8201168201806040525081019061282c919061381c565b509050806128695760405162461bcd60e51b815260206004820152600a6024820152692737ba103937baba32b960b11b6044820152606401610a83565b6001831115612a40576040516370a0823160e01b81526001600160a01b038581166004830152600091908c16906370a0823190602401602060405180830381865afa1580156128bc573d6000803e3d6000fd5b505050506040513d601f19601f820116820180604052508101906128e091906134cb565b905060005b8481101561297d57836001600160a01b031663748ff3398d89898f8f8781811061291157612911613580565b90506020020135612920600090565b6040518663ffffffff1660e01b8152600401612940959493929190613856565b600060405180830381600087803b15801561295a57600080fd5b505af115801561296e573d6000803e3d6000fd5b505050508060010190506128e5565b506040516370a0823160e01b81526001600160a01b038681166004830152859183918e16906370a0823190602401602060405180830381865afa1580156129c8573d6000803e3d6000fd5b505050506040513d601f19601f820116820180604052508101906129ec91906134cb565b6129f691906137f7565b14612a3a5760405162461bcd60e51b81526020600482015260146024820152731391951cc81b9bdd081d1c985b9cd9995c9c995960621b6044820152606401610a83565b50612ba4565b816001600160a01b031663748ff3398b87878d8d6000818110612a6557612a65613580565b90506020020135612a74600090565b6040518663ffffffff1660e01b8152600401612a94959493929190613856565b600060405180830381600087803b158015612aae57600080fd5b505af1158015612ac2573d6000803e3d6000fd5b50505050836001600160a01b03168a6001600160a01b0316636352211e8b8b6000818110612af257612af2613580565b905060200201356040518263ffffffff1660e01b8152600401612b1791815260200190565b602060405180830381865afa158015612b34573d6000803e3d6000fd5b505050506040513d601f19601f82011682018060405250810190612b589190613894565b6001600160a01b031614612ba45760405162461bcd60e51b8152602060048201526013602482015272139195081b9bdd081d1c985b9cd9995c9c9959606a1b6044820152606401610a83565b5050612c3b565b60005b818110156115ef57886001600160a01b03166342842e0e33858b8b86818110612bd957612bd9613580565b905060200201356040518463ffffffff1660e01b8152600401612bfe93929190613596565b600060405180830381600087803b158015612c1857600080fd5b505af1158015612c2c573d6000803e3d6000fd5b50505050806001019050612bae565b5050505050505050565b600080600080600085875af1905080610ca95760405162461bcd60e51b815260206004820152601360248201527211551217d514905394d1915497d19052531151606a1b6044820152606401610a83565b600080546001600160a01b0319166001600160a01b038316908117825560405190917f04dba622d284ed0014ee4b9a6a68386be1a4c08a4913ae272de89199cc68616391a250565b600060208284031215612cf057600080fd5b81356001600160e01b031981168114612d0857600080fd5b9392505050565b600060208284031215612d2157600080fd5b5035919050565b634e487b7160e01b600052602160045260246000fd5b60038110611a6b57611a6b612d28565b60a08101612d5b87612d3e565b95815260208101949094526040840192909252606083015260809091015290565b6001600160a01b0381168114611a6b57600080fd5b60008083601f840112612da357600080fd5b5081356001600160401b03811115612dba57600080fd5b6020830191508360208260051b8501011115612dd557600080fd5b9250929050565b600080600060408486031215612df157600080fd5b8335612dfc81612d7c565b925060208401356001600160401b03811115612e1757600080fd5b612e2386828701612d91565b9497909650939450505050565b634e487b7160e01b600052604160045260246000fd5b604051601f8201601f191681016001600160401b0381118282101715612e6e57612e6e612e30565b604052919050565b60006001600160401b03821115612e8f57612e8f612e30565b50601f01601f191660200190565b600082601f830112612eae57600080fd5b8135612ec1612ebc82612e76565b612e46565b818152846020838601011115612ed657600080fd5b816020850160208301376000918101602001919091529392505050565b60008060008060808587031215612f0957600080fd5b8435612f1481612d7c565b93506020850135612f2481612d7c565b92506040850135915060608501356001600160401b03811115612f4657600080fd5b612f5287828801612e9d565b91505092959194509250565b600080600060408486031215612f7357600080fd5b8335612f7e81612d7c565b925060208401356001600160401b0380821115612f9a57600080fd5b818601915086601f830112612fae57600080fd5b813581811115612fbd57600080fd5b876020828501011115612fcf57600080fd5b6020830194508093505050509250925092565b8015158114611a6b57600080fd5b60008060006040848603121561300557600080fd5b83356001600160401b0381111561301b57600080fd5b61302786828701612d91565b909450925050602084013561303b81612fe2565b809150509250925092565b600080600080600060a0868803121561305e57600080fd5b8535945060208601359350604086013561307781612d7c565b9250606086013561308781612fe2565b9150608086013561309781612d7c565b809150509295509295909350565b6020808252825182820181905260009190848201906040850190845b818110156130dd578351835292840192918401916001016130c1565b50909695505050505050565b600481106130f9576130f9612d28565b9052565b6020810161075482846130e9565b6001600160801b0381168114611a6b57600080fd5b60006020828403121561313257600080fd5b8135612d088161310b565b80356001600160601b038116811461315457600080fd5b919050565b60006020828403121561316b57600080fd5b612d088261313d565b60008060008060008060a0878903121561318d57600080fd5b86356001600160401b038111156131a357600080fd5b6131af89828a01612d91565b9097509550506020870135935060408701356131ca81612d7c565b925060608701356131da81612fe2565b915060808701356131ea81612d7c565b809150509295509295509295565b6000806040838503121561320b57600080fd5b823561321681612d7c565b946020939093013593505050565b60008060008060006060868803121561323c57600080fd5b853561324781612d7c565b945060208601356001600160401b038082111561326357600080fd5b61326f89838a01612d91565b9096509450604088013591508082111561328857600080fd5b5061329588828901612d91565b969995985093965092949392505050565b602081016132b383612d3e565b91905290565b600082601f8301126132ca57600080fd5b813560206001600160401b038211156132e5576132e5612e30565b8160051b6132f4828201612e46565b928352848101820192828101908785111561330e57600080fd5b83870192505b8483101561332d57823582529183019190830190613314565b979650505050505050565b600080600080600060a0868803121561335057600080fd5b853561335b81612d7c565b9450602086013561336b81612d7c565b935060408601356001600160401b038082111561338757600080fd5b61339389838a016132b9565b945060608801359150808211156133a957600080fd5b6133b589838a016132b9565b935060808801359150808211156133cb57600080fd5b506133d888828901612e9d565b9150509295509295909350565b600080600080600060a086880312156133fd57600080fd5b853561340881612d7c565b9450602086013561341881612d7c565b9350604086013592506060860135915060808601356001600160401b0381111561344157600080fd5b6133d888828901612e9d565b60006020828403121561345f57600080fd5b8135612d0881612d7c565b600080600080600060a0868803121561348257600080fd5b853561348d81612d7c565b9450602086013561349d81612d7c565b935060408601356134ad8161310b565b92506134bb6060870161313d565b915060808601356130978161310b565b6000602082840312156134dd57600080fd5b5051919050565b6001600160801b03958616815293909416602084015260408301919091526001600160601b03166060820152608081019190915260a00190565b600080600080600060a0868803121561353657600080fd5b85516003811061354557600080fd5b60208701519095506135568161310b565b60408701519094506135678161310b565b6060870151608090970151959894975095949392505050565b634e487b7160e01b600052603260045260246000fd5b6001600160a01b039384168152919092166020820152604081019190915260600190565b6000602082840312156135cc57600080fd5b8151612d0881612fe2565b8183823760009101908152919050565b6000808335601e198436030181126135fe57600080fd5b8301803591506001600160401b0382111561361857600080fd5b602001915036819003821315612dd557600080fd5b60005b83811015613648578181015183820152602001613630565b838111156125b75750506000910152565b602081526000825180602084015261367881604085016020870161362d565b601f01601f19169190910160400192915050565b6020808252601f908201527f5265656e7472616e637947756172643a207265656e7472616e742063616c6c00604082015260600190565b6020808252600f908201526e57726f6e6720506f6f6c207479706560881b604082015260600190565b81835260006001600160fb1b0383111561370557600080fd5b8260051b8083602087013760009401602001938452509192915050565b6001600160a01b0387811682528616602082015260a06040820181905260009061374f90830186886136ec565b82810360608401526137628185876136ec565b8381036080909401939093525050600081526020019695505050505050565b60006020828403121561379357600080fd5b81516001600160401b038111156137a957600080fd5b8201601f810184136137ba57600080fd5b80516137c8612ebc82612e76565b8181528560208385010111156137dd57600080fd5b6137ee82602083016020860161362d565b95945050505050565b60008282101561381757634e487b7160e01b600052601160045260246000fd5b500390565b6000806040838503121561382f57600080fd5b825161383a81612fe2565b602084015190925061384b81612fe2565b809150509250929050565b6001600160a01b0386811682528581166020830152841660408201526060810183905260a0810161388a60808301846130e9565b9695505050505050565b6000602082840312156138a657600080fd5b8151612d0881612d7c56fea2646970667358221220bdbde6035c5679ba439161c417f2ed8f0eca583ad5ae86c6b054a76567256db564736f6c634300080b0033",
  "immutableReferences": {},
  "source": "// SPDX-License-Identifier: AGPL-3.0\npragma solidity ^0.8.0;\n\nimport {LSSVMPairETH} from \"./LSSVMPairETH.sol\";\nimport {LSSVMPairEnumerable} from \"./LSSVMPairEnumerable.sol\";\nimport {ILSSVMPairFactoryLike} from \"./ILSSVMPairFactoryLike.sol\";\n\n/**\n    @title An NFT/Token pair where the NFT implements ERC721Enumerable, and the token is ETH\n    @author boredGenius and 0xmons\n */\ncontract LSSVMPairEnumerableETH is LSSVMPairEnumerable, LSSVMPairETH {\n    /**\n        @notice Returns the LSSVMPair type\n     */\n    function pairVariant()\n        public\n        pure\n        override\n        returns (ILSSVMPairFactoryLike.PairVariant)\n    {\n        return ILSSVMPairFactoryLike.PairVariant.ENUMERABLE_ETH;\n    }\n}\n",
  "sourcePath": "/Users/ds/Documents/rarible/scripts/contracts/lsvm/LSSVMPairEnumerableETH.sol",
  "compiler": {
    "name": "solc",
    "version": "0.8.11+commit.d7f03943.Emscripten.clang"
  },
  "schemaVersion": "3.4.3",
  "updatedAt": "2022-11-01T12:38:41.395Z",
  "networkType": "ethereum",
  "devdoc": {
    "author": "boredGenius and 0xmons",
    "kind": "dev",
    "methods": {
      "call(address,bytes)": {
        "params": {
          "data": "The calldata to pass to the contract",
          "target": "The contract to call"
        }
      },
      "changeAssetRecipient(address)": {
        "params": {
          "newRecipient": "The new asset recipient"
        }
      },
      "changeDelta(uint128)": {
        "params": {
          "newDelta": "The new delta parameter"
        }
      },
      "changeFee(uint96)": {
        "params": {
          "newFee": "The new LP fee percentage, 18 decimals"
        }
      },
      "changeSpotPrice(uint128)": {
        "params": {
          "newSpotPrice": "The new selling spot price value, in Token"
        }
      },
      "getBuyNFTQuote(uint256)": {
        "details": "Used as read function to query the bonding curve for buy pricing info",
        "params": {
          "numNFTs": "The number of NFTs to buy from the pair"
        }
      },
      "getSellNFTQuote(uint256)": {
        "details": "Used as read function to query the bonding curve for sell pricing info",
        "params": {
          "numNFTs": "The number of NFTs to sell to the pair"
        }
      },
      "initialize(address,address,uint128,uint96,uint128)": {
        "details": "Only called once by factory to initialize. We verify this by making sure that the current owner is address(0).  The Ownable library we use disallows setting the owner to be address(0), so this condition should only be valid before the first initialize call. ",
        "params": {
          "_assetRecipient": "The address that will receive the TOKEN or NFT sent to this pair during swaps. NOTE: If set to address(0), they will go to the pair itself.",
          "_delta": "The initial delta of the bonding curve",
          "_fee": "The initial % fee taken, if this is a trade pair ",
          "_owner": "The owner of the pair",
          "_spotPrice": "The initial price to sell an asset into the pair"
        }
      },
      "multicall(bytes[],bool)": {
        "details": "Intended for withdrawing/altering pool pricing in one tx, only callable by owner, cannot change owner",
        "params": {
          "calls": "The calldata for each call to make",
          "revertOnFail": "Whether or not to revert the entire tx if any of the calls fail"
        }
      },
      "owner()": {
        "details": "Returns the address of the current owner."
      },
      "supportsInterface(bytes4)": {
        "details": "See {IERC165-supportsInterface}."
      },
      "swapNFTsForToken(uint256[],uint256,address,bool,address)": {
        "details": "To compute the amount of token to that will be received, call bondingCurve.getSellInfo.",
        "params": {
          "isRouter": "True if calling from LSSVMRouter, false otherwise. Not used for ETH pairs.",
          "minExpectedTokenOutput": "The minimum acceptable token received by the sender. If the actual amount is less than this value, the transaction will be reverted.",
          "nftIds": "The list of IDs of the NFTs to sell to the pair",
          "routerCaller": "If isRouter is true, ERC20 tokens will be transferred from this address. Not used for ETH pairs.",
          "tokenRecipient": "The recipient of the token output"
        },
        "returns": {
          "outputAmount": "The amount of token received"
        }
      },
      "swapTokenForAnyNFTs(uint256,uint256,address,bool,address)": {
        "details": "To compute the amount of token to send, call bondingCurve.getBuyInfo. This swap function is meant for users who are ID agnostic",
        "params": {
          "isRouter": "True if calling from LSSVMRouter, false otherwise. Not used for ETH pairs.",
          "maxExpectedTokenInput": "The maximum acceptable cost from the sender. If the actual amount is greater than this value, the transaction will be reverted.",
          "nftRecipient": "The recipient of the NFTs",
          "numNFTs": "The number of NFTs to purchase",
          "routerCaller": "If isRouter is true, ERC20 tokens will be transferred from this address. Not used for ETH pairs."
        },
        "returns": {
          "inputAmount": "The amount of token used for purchase"
        }
      },
      "swapTokenForSpecificNFTs(uint256[],uint256,address,bool,address)": {
        "details": "To compute the amount of token to send, call bondingCurve.getBuyInfo This swap is meant for users who want specific IDs. Also higher chance of reverting if some of the specified IDs leave the pool before the swap goes through.",
        "params": {
          "isRouter": "True if calling from LSSVMRouter, false otherwise. Not used for ETH pairs.",
          "maxExpectedTokenInput": "The maximum acceptable cost from the sender. If the actual amount is greater than this value, the transaction will be reverted.",
          "nftIds": "The list of IDs of the NFTs to purchase",
          "nftRecipient": "The recipient of the NFTs",
          "routerCaller": "If isRouter is true, ERC20 tokens will be transferred from this address. Not used for ETH pairs."
        },
        "returns": {
          "inputAmount": "The amount of token used for purchase"
        }
      },
      "transferOwnership(address)": {
        "details": "Transfers ownership of the contract to a new account (`newOwner`). Disallows setting to the zero address as a way to more gas-efficiently avoid reinitialization When ownership is transferred, if the new owner implements IOwnershipTransferCallback, we make a callback Can only be called by the current owner."
      },
      "withdrawAllETH()": {
        "details": "Only callable by the owner."
      },
      "withdrawERC1155(address,uint256[],uint256[])": {
        "params": {
          "a": "The NFT to transfer",
          "amounts": "The amounts of each id to transfer",
          "ids": "The NFT ids to transfer"
        }
      },
      "withdrawERC20(address,uint256)": {
        "params": {
          "a": "The token to transfer",
          "amount": "The amount of tokens to send to the owner"
        }
      },
      "withdrawERC721(address,uint256[])": {
        "details": "If the NFT is the pair's collection, we also remove it from the id tracking (if the NFT is missing enumerable).",
        "params": {
          "a": "The NFT to transfer",
          "nftIds": "The list of IDs of the NFTs to send to the owner"
        }
      },
      "withdrawETH(uint256)": {
        "details": "Only callable by the owner.",
        "params": {
          "amount": "The amount of token to send to the owner. If the pair's balance is less than this value, the transaction will be reverted."
        }
      }
    },
    "title": "An NFT/Token pair where the NFT implements ERC721Enumerable, and the token is ETH",
    "version": 1
  },
  "userdoc": {
    "kind": "user",
    "methods": {
      "bondingCurve()": {
        "notice": "Returns the type of bonding curve that parameterizes the pair"
      },
      "call(address,bytes)": {
        "notice": "Allows the pair to make arbitrary external calls to contracts whitelisted by the protocol. Only callable by the owner."
      },
      "changeAssetRecipient(address)": {
        "notice": "Changes the address that will receive assets received from trades. Only callable by the owner."
      },
      "changeDelta(uint128)": {
        "notice": "Updates the delta parameter. Only callable by the owner."
      },
      "changeFee(uint96)": {
        "notice": "Updates the fee taken by the LP. Only callable by the owner. Only callable if the pool is a Trade pool. Reverts if the fee is >= MAX_FEE."
      },
      "changeSpotPrice(uint128)": {
        "notice": "Updates the selling spot price. Only callable by the owner."
      },
      "getAllHeldIds()": {
        "notice": "Returns all NFT IDs held by the pool"
      },
      "getAssetRecipient()": {
        "notice": "Returns the address that assets that receives assets when a swap is done with this pair Can be set to another address by the owner, if set to address(0), defaults to the pair's own address"
      },
      "initialize(address,address,uint128,uint96,uint128)": {
        "notice": "Called during pair creation to set initial parameters"
      },
      "multicall(bytes[],bool)": {
        "notice": "Allows owner to batch multiple calls, forked from: https://github.com/boringcrypto/BoringSolidity/blob/master/contracts/BoringBatchable.sol "
      },
      "nft()": {
        "notice": "Returns the NFT collection that parameterizes the pair"
      },
      "pairVariant()": {
        "notice": "Returns the LSSVMPair type"
      },
      "poolType()": {
        "notice": "Returns the pair's type (TOKEN/NFT/TRADE)"
      },
      "swapNFTsForToken(uint256[],uint256,address,bool,address)": {
        "notice": "Sends a set of NFTs to the pair in exchange for token"
      },
      "swapTokenForAnyNFTs(uint256,uint256,address,bool,address)": {
        "notice": "Sends token to the pair in exchange for any `numNFTs` NFTs"
      },
      "swapTokenForSpecificNFTs(uint256[],uint256,address,bool,address)": {
        "notice": "Sends token to the pair in exchange for a specific set of NFTs"
      },
      "withdrawAllETH()": {
        "notice": "Withdraws all token owned by the pair to the owner address."
      },
      "withdrawERC1155(address,uint256[],uint256[])": {
        "notice": "Rescues ERC1155 tokens from the pair to the owner. Only callable by the owner."
      },
      "withdrawERC20(address,uint256)": {
        "notice": "Rescues ERC20 tokens from the pair to the owner. Only callable by the owner (onlyOwnable modifier is in the implemented function)."
      },
      "withdrawERC721(address,uint256[])": {
        "notice": "Rescues a specified set of NFTs owned by the pair to the owner address. (onlyOwnable modifier is in the implemented function)"
      },
      "withdrawETH(uint256)": {
        "notice": "Withdraws a specified amount of token owned by the pair to the owner address."
      }
    },
    "version": 1
  }
}