{
  "_format": "hh-sol-artifact-1",
  "contractName": "PolicyManager",
  "sourceName": "contracts/PolicyManager.sol",
  "abi": [
    {
      "anonymous": false,
      "inputs": [
        {
          "indexed": true,
          "internalType": "address",
          "name": "previousOwner",
          "type": "address"
        },
        {
          "indexed": true,
          "internalType": "address",
          "name": "newOwner",
          "type": "address"
        }
      ],
      "name": "OwnershipTransferred",
      "type": "event"
    },
    {
      "anonymous": false,
      "inputs": [
        {
          "indexed": true,
          "internalType": "address",
          "name": "policy",
          "type": "address"
        }
      ],
      "name": "PolicyRemoved",
      "type": "event"
    },
    {
      "anonymous": false,
      "inputs": [
        {
          "indexed": true,
          "internalType": "address",
          "name": "policy",
          "type": "address"
        }
      ],
      "name": "PolicyWhitelisted",
      "type": "event"
    },
    {
      "inputs": [
        {
          "internalType": "address",
          "name": "policy",
          "type": "address"
        }
      ],
      "name": "addPolicy",
      "outputs": [],
      "stateMutability": "nonpayable",
      "type": "function"
    },
    {
      "inputs": [
        {
          "internalType": "address",
          "name": "policy",
          "type": "address"
        }
      ],
      "name": "isPolicyWhitelisted",
      "outputs": [
        {
          "internalType": "bool",
          "name": "",
          "type": "bool"
        }
      ],
      "stateMutability": "view",
      "type": "function"
    },
    {
      "inputs": [],
      "name": "owner",
      "outputs": [
        {
          "internalType": "address",
          "name": "",
          "type": "address"
        }
      ],
      "stateMutability": "view",
      "type": "function"
    },
    {
      "inputs": [
        {
          "internalType": "address",
          "name": "policy",
          "type": "address"
        }
      ],
      "name": "removePolicy",
      "outputs": [],
      "stateMutability": "nonpayable",
      "type": "function"
    },
    {
      "inputs": [],
      "name": "renounceOwnership",
      "outputs": [],
      "stateMutability": "nonpayable",
      "type": "function"
    },
    {
      "inputs": [
        {
          "internalType": "address",
          "name": "newOwner",
          "type": "address"
        }
      ],
      "name": "transferOwnership",
      "outputs": [],
      "stateMutability": "nonpayable",
      "type": "function"
    },
    {
      "inputs": [],
      "name": "viewCountWhitelistedPolicies",
      "outputs": [
        {
          "internalType": "uint256",
          "name": "",
          "type": "uint256"
        }
      ],
      "stateMutability": "view",
      "type": "function"
    },
    {
      "inputs": [
        {
          "internalType": "uint256",
          "name": "cursor",
          "type": "uint256"
        },
        {
          "internalType": "uint256",
          "name": "size",
          "type": "uint256"
        }
      ],
      "name": "viewWhitelistedPolicies",
      "outputs": [
        {
          "internalType": "address[]",
          "name": "",
          "type": "address[]"
        },
        {
          "internalType": "uint256",
          "name": "",
          "type": "uint256"
        }
      ],
      "stateMutability": "view",
      "type": "function"
    }
  ],
  "bytecode": "0x608060405234801561001057600080fd5b5061001a3361001f565b61006f565b600080546001600160a01b038381166001600160a01b0319831681178455604051919092169283917f8be0079c531659141344cd1fd0a4f28419497f9722a3daafe3b4186f6b6457e09190a35050565b6108558061007e6000396000f3fe608060405234801561001057600080fd5b50600436106100885760003560e01c80638da5cb5b1161005b5780638da5cb5b146100f7578063b84ef08114610112578063d6f0d88e14610125578063f2fde38b1461013b57600080fd5b8063715018a61461008d578063747f54ae1461009757806378d38d82146100c1578063874516cd146100d4575b600080fd5b61009561014e565b005b6100aa6100a53660046106ec565b610162565b6040516100b892919061070e565b60405180910390f35b6100956100cf36600461075f565b610257565b6100e76100e236600461075f565b6102fe565b60405190151581526020016100b8565b6000546040516001600160a01b0390911681526020016100b8565b61009561012036600461075f565b610311565b61012d6103b4565b6040519081526020016100b8565b61009561014936600461075f565b6103c5565b610156610455565b61016060006104af565b565b6060600082846101726001610517565b61017c919061079e565b81111561019b578461018e6001610517565b610198919061079e565b90505b60008167ffffffffffffffff8111156101b6576101b66107b1565b6040519080825280602002602001820160405280156101df578160200160208202803683370190505b50905060005b8281101561023e576102026101fa82896107c7565b600190610521565b828281518110610214576102146107da565b6001600160a01b039092166020928302919091019091015280610236816107f0565b9150506101e5565b508061024a83886107c7565b9350935050509250929050565b61025f610455565b61026a600182610534565b6102bb5760405162461bcd60e51b815260206004820152600f60248201527f4e6f742077686974656c6973746564000000000000000000000000000000000060448201526064015b60405180910390fd5b6102c6600182610556565b506040516001600160a01b038216907f7d69543e56287cc6159e1cd00d200f2d86996b94ef9a170c4ec9a31daa6dd2ce90600090a250565b600061030b600183610534565b92915050565b610319610455565b610324600182610534565b156103715760405162461bcd60e51b815260206004820152601360248201527f416c72656164792077686974656c69737465640000000000000000000000000060448201526064016102b2565b61037c60018261056b565b506040516001600160a01b038216907f5b5592d50e950152eab424f0fde17ba8b36801c96694a656ca54c6ffd149980890600090a250565b60006103c06001610517565b905090565b6103cd610455565b6001600160a01b0381166104495760405162461bcd60e51b815260206004820152602660248201527f4f776e61626c653a206e6577206f776e657220697320746865207a65726f206160448201527f646472657373000000000000000000000000000000000000000000000000000060648201526084016102b2565b610452816104af565b50565b6000546001600160a01b031633146101605760405162461bcd60e51b815260206004820181905260248201527f4f776e61626c653a2063616c6c6572206973206e6f7420746865206f776e657260448201526064016102b2565b600080546001600160a01b038381167fffffffffffffffffffffffff0000000000000000000000000000000000000000831681178455604051919092169283917f8be0079c531659141344cd1fd0a4f28419497f9722a3daafe3b4186f6b6457e09190a35050565b600061030b825490565b600061052d8383610580565b9392505050565b6001600160a01b0381166000908152600183016020526040812054151561052d565b600061052d836001600160a01b0384166105aa565b600061052d836001600160a01b03841661069d565b6000826000018281548110610597576105976107da565b9060005260206000200154905092915050565b600081815260018301602052604081205480156106935760006105ce60018361079e565b85549091506000906105e29060019061079e565b9050818114610647576000866000018281548110610602576106026107da565b9060005260206000200154905080876000018481548110610625576106256107da565b6000918252602080832090910192909255918252600188019052604090208390555b855486908061065857610658610809565b60019003818190600052602060002001600090559055856001016000868152602001908152602001600020600090556001935050505061030b565b600091505061030b565b60008181526001830160205260408120546106e45750815460018181018455600084815260208082209093018490558454848252828601909352604090209190915561030b565b50600061030b565b600080604083850312156106ff57600080fd5b50508035926020909101359150565b604080825283519082018190526000906020906060840190828701845b828110156107505781516001600160a01b03168452928401929084019060010161072b565b50505092019290925292915050565b60006020828403121561077157600080fd5b81356001600160a01b038116811461052d57600080fd5b634e487b7160e01b600052601160045260246000fd5b8181038181111561030b5761030b610788565b634e487b7160e01b600052604160045260246000fd5b8082018082111561030b5761030b610788565b634e487b7160e01b600052603260045260246000fd5b60006001820161080257610802610788565b5060010190565b634e487b7160e01b600052603160045260246000fdfea26469706673582212201c92e238784fbc76a19740ded05a7717e0e5f0a927e45eae4ccff2add3c14d5a64736f6c63430008110033",
  "linkReferences": {},
  "deployedLinkReferences": {}
}