{
  "contractName": "RaribleExchangeWrapper",
  "abi": [
    {
      "inputs": [
        {
          "internalType": "address",
          "name": "_wyvernExchange",
          "type": "address"
        },
        {
          "internalType": "address",
          "name": "_exchangeV2",
          "type": "address"
        },
        {
          "internalType": "address",
          "name": "_seaPort",
          "type": "address"
        },
        {
          "internalType": "address",
          "name": "_x2y2",
          "type": "address"
        },
        {
          "internalType": "address",
          "name": "_looksRare",
          "type": "address"
        },
        {
          "internalType": "address",
          "name": "_sudoswap",
          "type": "address"
        },
        {
          "internalType": "address",
          "name": "_blurExchange",
          "type": "address"
        }
      ],
      "stateMutability": "nonpayable",
      "type": "constructor"
    },
    {
      "anonymous": false,
      "inputs": [
        {
          "indexed": false,
          "internalType": "bool",
          "name": "result",
          "type": "bool"
        }
      ],
      "name": "Execution",
      "type": "event"
    },
    {
      "anonymous": false,
      "inputs": [
        {
          "indexed": true,
          "internalType": "address",
          "name": "previousOwner",
          "type": "address"
        },
        {
          "indexed": true,
          "internalType": "address",
          "name": "newOwner",
          "type": "address"
        }
      ],
      "name": "OwnershipTransferred",
      "type": "event"
    },
    {
      "anonymous": false,
      "inputs": [
        {
          "indexed": false,
          "internalType": "bool",
          "name": "paused",
          "type": "bool"
        }
      ],
      "name": "Paused",
      "type": "event"
    },
    {
      "inputs": [],
      "name": "blurExchange",
      "outputs": [
        {
          "internalType": "address",
          "name": "",
          "type": "address"
        }
      ],
      "stateMutability": "view",
      "type": "function"
    },
    {
      "inputs": [],
      "name": "exchangeV2",
      "outputs": [
        {
          "internalType": "address",
          "name": "",
          "type": "address"
        }
      ],
      "stateMutability": "view",
      "type": "function"
    },
    {
      "inputs": [],
      "name": "looksRare",
      "outputs": [
        {
          "internalType": "address",
          "name": "",
          "type": "address"
        }
      ],
      "stateMutability": "view",
      "type": "function"
    },
    {
      "inputs": [
        {
          "internalType": "address",
          "name": "",
          "type": "address"
        },
        {
          "internalType": "address",
          "name": "",
          "type": "address"
        },
        {
          "internalType": "uint256[]",
          "name": "",
          "type": "uint256[]"
        },
        {
          "internalType": "uint256[]",
          "name": "",
          "type": "uint256[]"
        },
        {
          "internalType": "bytes",
          "name": "",
          "type": "bytes"
        }
      ],
      "name": "onERC1155BatchReceived",
      "outputs": [
        {
          "internalType": "bytes4",
          "name": "",
          "type": "bytes4"
        }
      ],
      "stateMutability": "nonpayable",
      "type": "function"
    },
    {
      "inputs": [
        {
          "internalType": "address",
          "name": "",
          "type": "address"
        },
        {
          "internalType": "address",
          "name": "",
          "type": "address"
        },
        {
          "internalType": "uint256",
          "name": "",
          "type": "uint256"
        },
        {
          "internalType": "uint256",
          "name": "",
          "type": "uint256"
        },
        {
          "internalType": "bytes",
          "name": "",
          "type": "bytes"
        }
      ],
      "name": "onERC1155Received",
      "outputs": [
        {
          "internalType": "bytes4",
          "name": "",
          "type": "bytes4"
        }
      ],
      "stateMutability": "nonpayable",
      "type": "function"
    },
    {
      "inputs": [
        {
          "internalType": "address",
          "name": "",
          "type": "address"
        },
        {
          "internalType": "address",
          "name": "",
          "type": "address"
        },
        {
          "internalType": "uint256",
          "name": "",
          "type": "uint256"
        },
        {
          "internalType": "bytes",
          "name": "",
          "type": "bytes"
        }
      ],
      "name": "onERC721Received",
      "outputs": [
        {
          "internalType": "bytes4",
          "name": "",
          "type": "bytes4"
        }
      ],
      "stateMutability": "nonpayable",
      "type": "function"
    },
    {
      "inputs": [],
      "name": "owner",
      "outputs": [
        {
          "internalType": "address",
          "name": "",
          "type": "address"
        }
      ],
      "stateMutability": "view",
      "type": "function"
    },
    {
      "inputs": [
        {
          "internalType": "bool",
          "name": "_paused",
          "type": "bool"
        }
      ],
      "name": "pause",
      "outputs": [],
      "stateMutability": "nonpayable",
      "type": "function"
    },
    {
      "inputs": [],
      "name": "paused",
      "outputs": [
        {
          "internalType": "bool",
          "name": "",
          "type": "bool"
        }
      ],
      "stateMutability": "view",
      "type": "function"
    },
    {
      "inputs": [],
      "name": "renounceOwnership",
      "outputs": [],
      "stateMutability": "nonpayable",
      "type": "function"
    },
    {
      "inputs": [],
      "name": "seaPort",
      "outputs": [
        {
          "internalType": "address",
          "name": "",
          "type": "address"
        }
      ],
      "stateMutability": "view",
      "type": "function"
    },
    {
      "inputs": [],
      "name": "sudoswap",
      "outputs": [
        {
          "internalType": "address",
          "name": "",
          "type": "address"
        }
      ],
      "stateMutability": "view",
      "type": "function"
    },
    {
      "inputs": [
        {
          "internalType": "bytes4",
          "name": "interfaceId",
          "type": "bytes4"
        }
      ],
      "name": "supportsInterface",
      "outputs": [
        {
          "internalType": "bool",
          "name": "",
          "type": "bool"
        }
      ],
      "stateMutability": "view",
      "type": "function"
    },
    {
      "inputs": [
        {
          "internalType": "address",
          "name": "newOwner",
          "type": "address"
        }
      ],
      "name": "transferOwnership",
      "outputs": [],
      "stateMutability": "nonpayable",
      "type": "function"
    },
    {
      "inputs": [],
      "name": "wyvernExchange",
      "outputs": [
        {
          "internalType": "address",
          "name": "",
          "type": "address"
        }
      ],
      "stateMutability": "view",
      "type": "function"
    },
    {
      "inputs": [],
      "name": "x2y2",
      "outputs": [
        {
          "internalType": "address",
          "name": "",
          "type": "address"
        }
      ],
      "stateMutability": "view",
      "type": "function"
    },
    {
      "stateMutability": "payable",
      "type": "receive"
    },
    {
      "inputs": [
        {
          "components": [
            {
              "internalType": "enum RaribleExchangeWrapper.Markets",
              "name": "marketId",
              "type": "uint8"
            },
            {
              "internalType": "uint256",
              "name": "amount",
              "type": "uint256"
            },
            {
              "internalType": "uint256",
              "name": "fees",
              "type": "uint256"
            },
            {
              "internalType": "bytes",
              "name": "data",
              "type": "bytes"
            }
          ],
          "internalType": "struct RaribleExchangeWrapper.PurchaseDetails",
          "name": "purchaseDetails",
          "type": "tuple"
        },
        {
          "internalType": "address",
          "name": "feeRecipientFirst",
          "type": "address"
        },
        {
          "internalType": "address",
          "name": "feeRecipientSecond",
          "type": "address"
        }
      ],
      "name": "singlePurchase",
      "outputs": [],
      "stateMutability": "payable",
      "type": "function"
    },
    {
      "inputs": [
        {
          "components": [
            {
              "internalType": "enum RaribleExchangeWrapper.Markets",
              "name": "marketId",
              "type": "uint8"
            },
            {
              "internalType": "uint256",
              "name": "amount",
              "type": "uint256"
            },
            {
              "internalType": "uint256",
              "name": "fees",
              "type": "uint256"
            },
            {
              "internalType": "bytes",
              "name": "data",
              "type": "bytes"
            }
          ],
          "internalType": "struct RaribleExchangeWrapper.PurchaseDetails[]",
          "name": "purchaseDetails",
          "type": "tuple[]"
        },
        {
          "internalType": "address",
          "name": "feeRecipientFirst",
          "type": "address"
        },
        {
          "internalType": "address",
          "name": "feeRecipientSecond",
          "type": "address"
        },
        {
          "internalType": "bool",
          "name": "allowFail",
          "type": "bool"
        }
      ],
      "name": "bulkPurchase",
      "outputs": [],
      "stateMutability": "payable",
      "type": "function"
    }
  ],
  "bytecode": "0x6101606040523480156200001257600080fd5b50604051620032b5380380620032b58339810160408190526200003591620001a1565b600062000041620000f8565b600080546001600160a01b0319166001600160a01b0383169081178255604051929350917f8be0079c531659141344cd1fd0a4f28419497f9722a3daafe3b4186f6b6457e0908290a3506200009d6301ffc9a760e01b620000fc565b620000af630271189760e51b620000fc565b6001600160601b0319606097881b811660805295871b861660a05293861b851660c05291851b841660e052841b831661010052831b82166101205290911b166101405262000235565b3390565b6001600160e01b031980821614156200015c576040805162461bcd60e51b815260206004820152601c60248201527f4552433136353a20696e76616c696420696e7465726661636520696400000000604482015290519081900360640190fd5b6001600160e01b0319166000908152600160208190526040909120805460ff19169091179055565b80516001600160a01b03811681146200019c57600080fd5b919050565b600080600080600080600060e0888a031215620001bc578283fd5b620001c78862000184565b9650620001d76020890162000184565b9550620001e76040890162000184565b9450620001f76060890162000184565b9350620002076080890162000184565b92506200021760a0890162000184565b91506200022760c0890162000184565b905092959891949750929550565b60805160601c60a05160601c60c05160601c60e05160601c6101005160601c6101205160601c6101405160601c612fea620002cb600039806103f3528061130852508061042052806112365250806105ae528061100a52806110a45250806108445280610bb15280610c4752508061044452806108ff5250806105d25280610aae5250806106fb52806109dc5250612fea6000f3fe60806040526004361061010d5760003560e01c80638da5cb5b11610095578063bc197c8111610064578063bc197c8114610279578063c9f0a2fa14610299578063f23a6e61146102ae578063f2fde38b146102ce578063fc40c9c7146102ee57610114565b80638da5cb5b146102275780639110c7771461023c578063a05f32dc14610251578063b94ee3321461026657610114565b80635c975abb116100dc5780635c975abb146101c05780635ea1e4c9146101d557806362c1a97d146101ea578063715018a6146101ff57806386496e7a1461021457610114565b806301ffc9a71461011957806302329a291461014f578063150b7a02146101715780634cd12af01461019e57610114565b3661011457005b600080fd5b34801561012557600080fd5b506101396101343660046123b6565b610303565b604051610146919061298f565b60405180910390f35b34801561015b57600080fd5b5061016f61016a36600461239a565b610326565b005b34801561017d57600080fd5b5061019161018c366004612072565b6103e1565b604051610146919061299a565b3480156101aa57600080fd5b506101b36103f1565b604051610146919061291f565b3480156101cc57600080fd5b50610139610415565b3480156101e157600080fd5b506101b361041e565b3480156101f657600080fd5b506101b3610442565b34801561020b57600080fd5b5061016f610466565b61016f6102223660046124c6565b610524565b34801561023357600080fd5b506101b361059d565b34801561024857600080fd5b506101b36105ac565b34801561025d57600080fd5b506101b36105d0565b61016f6102743660046122df565b6105f4565b34801561028557600080fd5b50610191610294366004611fc9565b6106e8565b3480156102a557600080fd5b506101b36106f9565b3480156102ba57600080fd5b506101916102c93660046120db565b61071d565b3480156102da57600080fd5b5061016f6102e9366004611fad565b61072e565b3480156102fa57600080fd5b506101b3610842565b6001600160e01b0319811660009081526001602052604090205460ff165b919050565b61032e610866565b6001600160a01b031661033f61059d565b6001600160a01b03161461039a576040805162461bcd60e51b815260206004820181905260248201527f4f776e61626c653a2063616c6c6572206973206e6f7420746865206f776e6572604482015290519081900360640190fd5b6002805482151560ff19909116811790915560408051918252517f0e2fb031ee032dc02d8011dc50b816eb450cf856abd8261680dac74f72165bd29181900360200190a150565b630a85bd0160e11b949350505050565b7f000000000000000000000000000000000000000000000000000000000000000081565b60025460ff1681565b7f000000000000000000000000000000000000000000000000000000000000000081565b7f000000000000000000000000000000000000000000000000000000000000000081565b61046e610866565b6001600160a01b031661047f61059d565b6001600160a01b0316146104da576040805162461bcd60e51b815260206004820181905260248201527f4f776e61626c653a2063616c6c6572206973206e6f7420746865206f776e6572604482015290519081900360640190fd5b600080546040516001600160a01b03909116907f8be0079c531659141344cd1fd0a4f28419497f9722a3daafe3b4186f6b6457e0908390a3600080546001600160a01b0319169055565b61052c61086a565b600080600061053c8660006108bd565b9250925092507fcc54b89ca2d75d5612023b14f0a477212b0e08bc0c5b8ad2804e2f8e2e401fc083604051610571919061298f565b60405180910390a16105838286611412565b61058d8185611412565b61059561143d565b505050505050565b6000546001600160a01b031690565b7f000000000000000000000000000000000000000000000000000000000000000081565b7f000000000000000000000000000000000000000000000000000000000000000081565b6105fc61086a565b6000806000805b875181101561069c57600080600061062e8b858151811061062057fe5b6020026020010151896108bd565b925092509250848061063d5750825b94507fcc54b89ca2d75d5612023b14f0a477212b0e08bc0c5b8ad2804e2f8e2e401fc08360405161066e919061298f565b60405180910390a16106808783611451565b965061068c8682611451565b9550505050806001019050610603565b50806106c35760405162461bcd60e51b81526004016106ba90612b8c565b60405180910390fd5b6106cd8387611412565b6106d78286611412565b6106df61143d565b50505050505050565b63bc197c8160e01b95945050505050565b7f000000000000000000000000000000000000000000000000000000000000000081565b63f23a6e6160e01b95945050505050565b610736610866565b6001600160a01b031661074761059d565b6001600160a01b0316146107a2576040805162461bcd60e51b815260206004820181905260248201527f4f776e61626c653a2063616c6c6572206973206e6f7420746865206f776e6572604482015290519081900360640190fd5b6001600160a01b0381166107e75760405162461bcd60e51b8152600401808060200182810382526026815260200180612f6e6026913960400191505060405180910390fd5b600080546040516001600160a01b03808516939216917f8be0079c531659141344cd1fd0a4f28419497f9722a3daafe3b4186f6b6457e091a3600080546001600160a01b0319166001600160a01b0392909216919091179055565b7f000000000000000000000000000000000000000000000000000000000000000081565b3390565b60025460ff16156108bb576040805162461bcd60e51b81526020600482015260166024820152751d1a194818dbdb9d1c9858dd081a5cc81c185d5cd95960521b604482015290519081900360640190fd5b565b60008060008060006108dc8760600151886040015189600001516114b4565b602089015191935091506002885160068111156108f557fe5b14156109c35760007f00000000000000000000000000000000000000000000000000000000000000006001600160a01b031682856040516109369190612903565b60006040518083038185875af1925050503d8060008114610973576040519150601f19603f3d011682016040523d82523d6000602084013e610978565b606091505b5050905087156109a0578061099b5760008060009650965096505050505061140b565b6109bd565b806109bd5760405162461bcd60e51b81526004016106ba90612a84565b506113d9565b6001885160068111156109d257fe5b1415610a955760007f00000000000000000000000000000000000000000000000000000000000000006001600160a01b03168285604051610a139190612903565b60006040518083038185875af1925050503d8060008114610a50576040519150601f19603f3d011682016040523d82523d6000602084013e610a55565b606091505b505090508715610a78578061099b5760008060009650965096505050505061140b565b806109bd5760405162461bcd60e51b81526004016106ba906129af565b600088516006811115610aa457fe5b1415610b675760007f00000000000000000000000000000000000000000000000000000000000000006001600160a01b03168285604051610ae59190612903565b60006040518083038185875af1925050503d8060008114610b22576040519150601f19603f3d011682016040523d82523d6000602084013e610b27565b606091505b505090508715610b4a578061099b5760008060009650965096505050505061140b565b806109bd5760405162461bcd60e51b81526004016106ba90612a1d565b600388516006811115610b7657fe5b1415610fb957600083806020019051810190610b929190612527565b90508715610c305760405163357a150b60e01b81526001600160a01b037f0000000000000000000000000000000000000000000000000000000000000000169063357a150b908490610be8908590600401612bc3565b6000604051808303818588803b158015610c0157600080fd5b505af193505050508015610c13575060015b610c2b5760008060009650965096505050505061140b565b610cb1565b60405163357a150b60e01b81526001600160a01b037f0000000000000000000000000000000000000000000000000000000000000000169063357a150b908490610c7e908590600401612bc3565b6000604051808303818588803b158015610c9757600080fd5b505af1158015610cab573d6000803e3d6000fd5b50505050505b60005b816020015151811015610fb257600082602001518281518110610cd357fe5b6020026020010151602001519050600083602001518381518110610cf357fe5b6020026020010151604001519050600084600001518381518110610d1357fe5b602002602001015161010001518281518110610d2b57fe5b6020026020010151602001519050600085600001518481518110610d4b57fe5b602002602001015160e0015151118015610d815750600085602001518581518110610d7257fe5b602002602001015160c0015151115b15610dc757610dc78186602001518681518110610d9a57fe5b602002602001015160c0015187600001518681518110610db657fe5b602002602001015160e0015161156d565b8451805184908110610dd557fe5b60200260200101516080015160011415610eaa57600081806020019051810190610dff919061221e565b905060005b8151811015610ea3576000828281518110610e1b57fe5b6020026020010151905080600001516001600160a01b03166342842e0e30610e41610866565b84602001516040518463ffffffff1660e01b8152600401610e6493929190612933565b600060405180830381600087803b158015610e7e57600080fd5b505af1158015610e92573d6000803e3d6000fd5b505060019093019250610e04915050565b5050610fa4565b8451805184908110610eb857fe5b60200260200101516080015160021415610f8c57600081806020019051810190610ee29190612141565b905060005b8151811015610ea3576000828281518110610efe57fe5b6020026020010151905080600001516001600160a01b031663f242432a30610f24610866565b846020015185604001516040518563ffffffff1660e01b8152600401610f4d9493929190612957565b600060405180830381600087803b158015610f6757600080fd5b505af1158015610f7b573d6000803e3d6000fd5b505060019093019250610ee7915050565b60405162461bcd60e51b81526004016106ba90612af2565b505050806001019050610cb4565b50506113d9565b600488516006811115610fc857fe5b141561121d57600080600085806020019051810190610fe791906125ef565b925092509250891561108d57604051635a72594b60e11b81526001600160a01b037f0000000000000000000000000000000000000000000000000000000000000000169063b4e4b2969086906110439087908790600401612d4a565b6000604051808303818588803b15801561105c57600080fd5b505af19350505050801561106e575060015b61108857600080600098509850985050505050505061140b565b611110565b604051635a72594b60e11b81526001600160a01b037f0000000000000000000000000000000000000000000000000000000000000000169063b4e4b2969086906110dd9087908790600401612d4a565b6000604051808303818588803b1580156110f657600080fd5b505af115801561110a573d6000803e3d6000fd5b50505050505b6001600160e01b031981166339d690a360e11b141561119f5781604001516001600160a01b03166342842e0e30611145610866565b85608001516040518463ffffffff1660e01b815260040161116893929190612933565b600060405180830381600087803b15801561118257600080fd5b505af1158015611196573d6000803e3d6000fd5b50505050611215565b6001600160e01b0319811663025ceed960e61b14156111fd5781604001516001600160a01b031663f242432a306111d4610866565b85608001518660a001516040518563ffffffff1660e01b81526004016111689493929190612957565b60405162461bcd60e51b81526004016106ba90612b29565b5050506113d9565b60058851600681111561122c57fe5b14156112ef5760007f00000000000000000000000000000000000000000000000000000000000000006001600160a01b0316828560405161126d9190612903565b60006040518083038185875af1925050503d80600081146112aa576040519150601f19603f3d011682016040523d82523d6000602084013e6112af565b606091505b5050905087156112d2578061099b5760008060009650965096505050505061140b565b806109bd5760405162461bcd60e51b81526004016106ba90612abb565b6006885160068111156112fe57fe5b14156113c15760007f00000000000000000000000000000000000000000000000000000000000000006001600160a01b0316828560405161133f9190612903565b60006040518083038185875af1925050503d806000811461137c576040519150601f19603f3d011682016040523d82523d6000602084013e611381565b606091505b5050905087156113a4578061099b5760008060009650965096505050505061140b565b806109bd5760405162461bcd60e51b81526004016106ba90612a54565b60405162461bcd60e51b81526004016106ba906129e6565b6113e78289602001516115fe565b6000806113fc8a604001518b6020015161168c565b60019950909750955050505050505b9250925092565b60008211801561142a57506001600160a01b03811615155b156114395761143981836116bd565b5050565b47801561144e5761144e33826116bd565b50565b6000828201838110156114ab576040805162461bcd60e51b815260206004820152601b60248201527f536166654d6174683a206164646974696f6e206f766572666c6f770000000000604482015290519081900360640190fd5b90505b92915050565b6060806000602085901c61ffff1660018111156114cd57fe5b9050606060008260018111156114df57fe5b14156114f15786935091506115659050565b60018260018111156114ff57fe5b141561154d5760008780602001905181019061151b91906123d2565b905061152686611755565b15611541578060000151816020015194509450505050611565565b51935091506115659050565b60405162461bcd60e51b81526004016106ba90612b55565b935093915050565b815183511461157b57600080fd5b805183511461158957600080fd5b60005b83518110156115f8578181815181106115a157fe5b01602001516001600160f81b031916156115f0578281815181106115c157fe5b602001015160f81c60f81b8482815181106115d857fe5b60200101906001600160f81b031916908160001a9053505b60010161158c565b50505050565b60005b825181101561168757600083828151811061161857fe5b6020026020010151111561167f57600083828151811061163457fe5b60200260200101519050600060a085848151811061164e57fe5b6020026020010151901c9050600061166f828661179190919063ffffffff16565b905061167b8184611412565b5050505b600101611601565b505050565b60008061ffff601085901c81169085166116a68583611791565b6116b08683611791565b9350935050509250929050565b6040516000906001600160a01b0384169083908381818185875af1925050503d8060008114611708576040519150601f19603f3d011682016040523d82523d6000602084013e61170d565b606091505b5050905080611687576040805162461bcd60e51b815260206004820152600f60248201526e1d1c985b9cd9995c8819985a5b1959608a1b604482015290519081900360640190fd5b6000600582600681111561176557fe5b148061177c5750600482600681111561177a57fe5b145b1561178957506001610321565b506000919050565b60006114ab6127106117a385856117a9565b90611802565b6000826117b8575060006114ae565b828202828482816117c557fe5b04146114ab5760405162461bcd60e51b8152600401808060200182810382526021815260200180612f946021913960400191505060405180910390fd5b6000808211611858576040805162461bcd60e51b815260206004820152601a60248201527f536166654d6174683a206469766973696f6e206279207a65726f000000000000604482015290519081900360640190fd5b81838161186157fe5b049392505050565b803561032181612f34565b805161032181612f34565b600082601f83011261188f578081fd5b815160206118a461189f83612eca565b612ea7565b828152818101908583016040808602880185018910156118c2578687fd5b865b8681101561191d5781838b0312156118da578788fd5b81518281018181106001600160401b03821117156118f457fe5b8352835181528684015161190781612f34565b81880152855293850193918101916001016118c4565b509198975050505050505050565b600082601f83011261193b578081fd5b8151602061194b61189f83612eca565b82815281810190858301855b858110156119d45781518801604080601f19838d03011215611977578889fd5b80518181016001600160401b03828210818311171561199257fe5b818452848a015183529284015192808411156119ac578b8cfd5b50506119bc8c8984860101611d1d565b81890152865250509284019290840190600101611957565b5090979650505050505050565b600082601f8301126119f1578081fd5b81516020611a0161189f83612eca565b82815281810190858301855b858110156119d457815188016101a080601f19838d03011215611a2e578889fd5b611a3781612ea7565b878301518152611a4960408401611874565b88820152606083015160408201526080830151606082015260a0830151608082015260c083015160a0820152611a8160e08401611874565b60c08201526101008301516001600160401b0380821115611aa0578b8cfd5b611aae8e8b84880101611d1d565b60e084015261012091508185015181811115611ac8578c8dfd5b611ad68f8c8389010161192b565b61010085015250506101408085015182840152610160850151818401525050611b026101808401611f9c565b610160820152611b13828401611f9c565b610180820152865250509284019290840190600101611a0d565b600082601f830112611b3d578081fd5b81516020611b4d61189f83612eca565b82815281810190858301855b858110156119d4578151880161016080601f19838d03011215611b7a578889fd5b611b8381612ea7565b611b8e888401611d68565b8152604083015188820152606083015160408201526080830151606082015260a08301516080820152611bc360c08401611874565b60a082015260e0808401516001600160401b0380821115611be2578c8dfd5b611bf08f8c84890101611d1d565b60c085015261010091508186015183850152610120925082860151828501526101409150818601518385015284860151945080851115611c2e578c8dfd5b50611c3d8e8b8688010161187f565b9083015250865250509284019290840190600101611b59565b600082601f830112611c66578081fd5b81356020611c7661189f83612eca565b8281528181019085830183850287018401881015611c92578586fd5b855b858110156119d457813584529284019290840190600101611c94565b803561032181612f49565b805161032181612f49565b805161032181612f57565b600082601f830112611ce1578081fd5b8135611cef61189f82612ee7565b818152846020838601011115611d03578283fd5b816020850160208301379081016020019190915292915050565b600082601f830112611d2d578081fd5b8151611d3b61189f82612ee7565b818152846020838601011115611d4f578283fd5b611d60826020830160208701612f08565b949350505050565b80516008811061032157600080fd5b6000610200808385031215611d8a578182fd5b611d9381612ea7565b915050611d9f82611cbb565b8152611dad60208301611874565b6020820152611dbe60408301611874565b6040820152606082015160608201526080820151608082015260a082015160a0820152611ded60c08301611874565b60c0820152611dfe60e08301611874565b60e08201526101008281015190820152610120808301519082015261014080830151908201526101608083015190820152610180808301516001600160401b03811115611e4a57600080fd5b611e5685828601611d1d565b8284015250506101a0611e6a818401611f9c565b908201526101c082810151908201526101e09182015191810191909152919050565b600060808284031215611e9d578081fd5b604051608081016001600160401b038282108183111715611eba57fe5b816040528293508435915060078210611ed257600080fd5b81835260208501356020840152604085013560408401526060850135915080821115611efd57600080fd5b50611f0a85828601611cd1565b6060830152505092915050565b600060c08284031215611f28578081fd5b60405160c081018181106001600160401b0382111715611f4457fe5b8060405250809150825181526020830151602082015260408301516040820152606083015160608201526080830151611f7c81612f34565b608082015260a0830151611f8f81612f49565b60a0919091015292915050565b805160ff8116811461032157600080fd5b600060208284031215611fbe578081fd5b81356114ab81612f34565b600080600080600060a08688031215611fe0578081fd5b8535611feb81612f34565b94506020860135611ffb81612f34565b935060408601356001600160401b0380821115612016578283fd5b61202289838a01611c56565b94506060880135915080821115612037578283fd5b61204389838a01611c56565b93506080880135915080821115612058578283fd5b5061206588828901611cd1565b9150509295509295909350565b60008060008060808587031215612087578182fd5b843561209281612f34565b935060208501356120a281612f34565b92506040850135915060608501356001600160401b038111156120c3578182fd5b6120cf87828801611cd1565b91505092959194509250565b600080600080600060a086880312156120f2578283fd5b85356120fd81612f34565b9450602086013561210d81612f34565b9350604086013592506060860135915060808601356001600160401b03811115612135578182fd5b61206588828901611cd1565b60006020808385031215612153578182fd5b82516001600160401b0380821115612169578384fd5b818501915085601f83011261217c578384fd5b815161218a61189f82612eca565b818152848101908486016060808502870188018b10156121a8578889fd5b8896505b8487101561220f5780828c0312156121c2578889fd5b6040805182810181811089821117156121d757fe5b825283516121e481612f34565b8152838a01518a820152818401519181019190915284526001969096019592870192908101906121ac565b50909998505050505050505050565b60006020808385031215612230578182fd5b82516001600160401b0380821115612246578384fd5b818501915085601f830112612259578384fd5b815161226761189f82612eca565b818152848101908486016040808502870188018b1015612285578889fd5b8896505b8487101561220f5780828c03121561229f578889fd5b805181810181811088821117156122b257fe5b825282516122bf81612f34565b815282890151898201528452600196909601959287019290810190612289565b600080600080608085870312156122f4578182fd5b84356001600160401b03811115612309578283fd5b8501601f81018713612319578283fd5b8035602061232961189f83612eca565b82815281810190848301875b8581101561235e5761234c8d8684358a0101611e8c565b84529284019290840190600101612335565b50508098505050612370818901611869565b955050505061238160408601611869565b915061238f60608601611cb0565b905092959194509250565b6000602082840312156123ab578081fd5b81356114ab81612f49565b6000602082840312156123c7578081fd5b81356114ab81612f57565b600060208083850312156123e4578182fd5b82516001600160401b03808211156123fa578384fd5b908401906040828703121561240d578384fd5b60405160408101818110838211171561242257fe5b604052825182811115612433578586fd5b61243f88828601611d1d565b8252508383015182811115612452578586fd5b80840193505086601f840112612466578485fd5b8251915061247661189f83612eca565b82815284810190848601868502860187018a1015612492578788fd5b8795505b848610156124b4578051835260019590950194918601918601612496565b50948201949094529695505050505050565b6000806000606084860312156124da578081fd5b83356001600160401b038111156124ef578182fd5b6124fb86828701611e8c565b935050602084013561250c81612f34565b9150604084013561251c81612f34565b809150509250925092565b600060208284031215612538578081fd5b81516001600160401b038082111561254e578283fd5b908301906101608286031215612562578283fd5b61256c60c0612ea7565b82518281111561257a578485fd5b612586878286016119e1565b82525060208301518281111561259a578485fd5b6125a687828601611b2d565b6020830152506125b98660408501611f17565b6040820152610100830151606082015261012083015160808201526125e16101408401611f9c565b60a082015295945050505050565b600080600060608486031215612603578081fd5b83516001600160401b0380821115612619578283fd5b9085019060c0828803121561262c578283fd5b60405160c08101818110838211171561264157fe5b60405261264d83611cbb565b815261265b60208401611874565b602082015260408301516040820152606083015160608201526080830151608082015260a08301518281111561268f578485fd5b61269b89828601611d1d565b60a08301525060208701519095509150808211156126b7578283fd5b506126c486828701611d77565b9250506126d360408501611cc6565b90509250925092565b6001600160a01b03169052565b6000815180845260208085019450808401835b8381101561272c578151805188528301516001600160a01b031683880152604090960195908201906001016126fc565b509495945050505050565b6000815180845260208085018081965082840281019150828601855b85811015612791578284038952815180518552850151604086860181905261277d81870183612880565b9a87019a9550505090840190600101612753565b5091979650505050505050565b6000815180845260208085019450848183028601828601855b858110156119d457838303895281516101606127d48583516128ac565b818701518588015260408083015190860152606080830151908601526080808301519086015260a08083015161280c828801826126dc565b505060c080830151828288015261282583880182612880565b60e0858101519089015261010080860151908901526101208086015190890152610140948501518882039589019590955292506128669150829050836126e9565b9a87019a94505050908401906001016127b7565b15159052565b60008151808452612898816020860160208601612f08565b601f01601f19169290920160200192915050565b600881106128b657fe5b9052565b805182526020808201519083015260408082015190830152606080820151908301526080808201516001600160a01b03169083015260a0908101511515910152565b60ff169052565b60008251612915818460208701612f08565b9190910192915050565b6001600160a01b0391909116815260200190565b6001600160a01b039384168152919092166020820152604081019190915260600190565b6001600160a01b0394851681529290931660208301526040820152606081019190915260a06080820181905260009082015260c00190565b901515815260200190565b6001600160e01b031991909116815260200190565b6020808252601e908201527f50757263686173652077797665726e45786368616e6765206661696c65640000604082015260600190565b60208082526018908201527f556e6b6e6f776e2070757263686173652064657461696c730000000000000000604082015260600190565b60208082526017908201527f50757263686173652072617269626c65206661696c6564000000000000000000604082015260600190565b602080825260169082015275141d5c98da185cd948189b1d5c9a5bc819985a5b195960521b604082015260600190565b60208082526017908201527f507572636861736520536561506f7274206661696c6564000000000000000000604082015260600190565b60208082526018908201527f5075726368617365207375646f73776170206661696c65640000000000000000604082015260600190565b60208082526019908201527f756e6b6e6f776e2064656c656761746554797065207832793200000000000000604082015260600190565b602080825260129082015271556e6b6e6f776e20746f6b656e207479706560701b604082015260600190565b6020808252601a908201527f756e6b6e6f776e206164646974696f6e616c4461746154797065000000000000604082015260600190565b60208082526018908201527f6e6f207375636365737366756c20657865637574696f6e730000000000000000604082015260600190565b60006020808352610180808401855161016080858801528282518085526101a094508489019150848782028a01018785019450885b82811015612ce0578a820361019f1901845285518051835289810151612c208b8501826126dc565b5060408181015190840152606080820151908401526080808201519084015260a0808201519084015260c080820151612c5b828601826126dc565b505060e0808201518982860152612c748a860182612880565b9150506101008083015185830382870152612c8f8382612737565b9250505061012080830151818601525061014080830151818601525086820151612cbb888601826128fc565b509089015190612ccd848b01836128fc565b968a0196948a0194925050600101612bf8565b50968a0151898803601f190160408b015296612cfc818961279e565b975050505060408801519350612d1560608801856128ba565b6060880151610120880152608088015161014088015260a08801519350612d3e818801856128fc565b50929695505050505050565b60006040825261010084511515604084015260018060a01b03602086015116606084015260408501516080840152606085015160a0840152608085015160c084015260a085015160c060e0850152612da482850182612880565b90508381036020850152610200612dbc82875161287a565b6020860151612dce60208401826126dc565b506040860151612de160408401826126dc565b50606086015160608301526080860151608083015260a086015160a083015260c0860151612e1260c08401826126dc565b5060e0860151612e2560e08401826126dc565b50858301519282019290925261012080860151908201526101408086015190820152610160808601519082015261018080860151818301849052909290612e6e82840182612880565b935050506101a080860151612e85828401826128fc565b50506101c085810151908201526101e094850151940193909352509092915050565b6040518181016001600160401b0381118282101715612ec257fe5b604052919050565b60006001600160401b03821115612edd57fe5b5060209081020190565b60006001600160401b03821115612efa57fe5b50601f01601f191660200190565b60005b83811015612f23578181015183820152602001612f0b565b838111156115f85750506000910152565b6001600160a01b038116811461144e57600080fd5b801515811461144e57600080fd5b6001600160e01b03198116811461144e57600080fdfe4f776e61626c653a206e6577206f776e657220697320746865207a65726f2061646472657373536166654d6174683a206d756c7469706c69636174696f6e206f766572666c6f77a2646970667358221220229b8e33edf7ea2100f0f8989612c1b49e7ea79bf4fc463f1db9efa2d8ea81db64736f6c63430007060033",
  "immutableReferences": {
    "8249": [
      {
        "length": 32,
        "start": 1787
      },
      {
        "length": 32,
        "start": 2524
      }
    ],
    "8251": [
      {
        "length": 32,
        "start": 1490
      },
      {
        "length": 32,
        "start": 2734
      }
    ],
    "8253": [
      {
        "length": 32,
        "start": 1092
      },
      {
        "length": 32,
        "start": 2303
      }
    ],
    "8255": [
      {
        "length": 32,
        "start": 2116
      },
      {
        "length": 32,
        "start": 2993
      },
      {
        "length": 32,
        "start": 3143
      }
    ],
    "8257": [
      {
        "length": 32,
        "start": 1454
      },
      {
        "length": 32,
        "start": 4106
      },
      {
        "length": 32,
        "start": 4260
      }
    ],
    "8259": [
      {
        "length": 32,
        "start": 1056
      },
      {
        "length": 32,
        "start": 4662
      }
    ],
    "8261": [
      {
        "length": 32,
        "start": 1011
      },
      {
        "length": 32,
        "start": 4872
      }
    ]
  },
  "source": "// SPDX-License-Identifier: MIT\n\npragma solidity 0.7.6;\npragma abicoder v2;\n\nimport \"@rarible/transfer-manager/contracts/lib/LibTransfer.sol\";\nimport \"@rarible/lib-bp/contracts/BpLibrary.sol\";\nimport \"@rarible/lib-part/contracts/LibPart.sol\";\n\nimport \"@openzeppelin/contracts/math/SafeMath.sol\";\n\nimport \"@openzeppelin/contracts/token/ERC721/ERC721Holder.sol\";\nimport \"@openzeppelin/contracts/token/ERC1155/ERC1155Holder.sol\";\n\nimport \"./interfaces/IWyvernExchange.sol\";\nimport \"./interfaces/IExchangeV2.sol\";\nimport \"./interfaces/ISeaPort.sol\";\nimport \"./interfaces/Ix2y2.sol\";\nimport \"./interfaces/ILooksRare.sol\";\nimport \"./interfaces/IBlurExchange.sol\";\nimport \"./libraries/IsPausable.sol\";\n\ncontract RaribleExchangeWrapper is Ownable, ERC721Holder, ERC1155Holder, IsPausable {\n    using LibTransfer for address;\n    using BpLibrary for uint;\n    using SafeMath for uint;\n\n    address public immutable wyvernExchange;\n    address public immutable exchangeV2;\n    address public immutable seaPort;\n    address public immutable x2y2;\n    address public immutable looksRare;\n    address public immutable sudoswap;\n    address public immutable blurExchange;\n\n    event Execution(bool result);\n\n    enum Markets {\n        ExchangeV2,\n        WyvernExchange,\n        SeaPort,\n        X2Y2,\n        LooksRareOrders,\n        SudoSwap,\n        BlurIo\n    }\n\n    enum AdditionalDataTypes {\n        NoAdditionalData,\n        RoyaltiesAdditionalData\n    }\n\n    /**\n        @notice struct for the purchase data\n        @param marketId - market key from Markets enum (what market to use)\n        @param amount - eth price (amount of eth that needs to be send to the marketplace)\n        @param fees - 2 fees (in base points) that are going to be taken on top of order amount encoded in 1 uint256\n                        bytes (27,28) used for dataType\n                        bytes (29,30) used for the first value (goes to feeRecipientFirst)\n                        bytes (31,32) are used for the second value (goes to feeRecipientSecond)\n        @param data - data for market call\n     */\n    struct PurchaseDetails {\n        Markets marketId;\n        uint256 amount;\n        uint fees;\n        bytes data;\n    }\n\n    /**\n        @notice struct for the data with additional Ddta\n        @param data - data for market call\n        @param additionalRoyalties - array additional Royalties (in base points plus address Royalty recipient)\n     */\n    struct AdditionalData {\n        bytes data;\n        uint[] additionalRoyalties;\n    }\n\n    constructor(\n        address _wyvernExchange,\n        address _exchangeV2,\n        address _seaPort,\n        address _x2y2,\n        address _looksRare,\n        address _sudoswap,\n        address _blurExchange\n    ) {\n        wyvernExchange = _wyvernExchange;\n        exchangeV2 = _exchangeV2;\n        seaPort = _seaPort;\n        x2y2 = _x2y2;\n        looksRare = _looksRare;\n        sudoswap = _sudoswap;\n        blurExchange = _blurExchange;\n    }\n\n    /**\n        @notice executes a single purchase\n        @param purchaseDetails - deatails about the purchase (more info in PurchaseDetails struct)\n        @param feeRecipientFirst - address of the first fee recipient\n        @param feeRecipientSecond - address of the second fee recipient\n     */\n    function singlePurchase(PurchaseDetails memory purchaseDetails, address feeRecipientFirst, address feeRecipientSecond) external payable {\n        requireNotPaused();\n\n        (bool success, uint feeAmountFirst, uint feeAmountSecond) = purchase(purchaseDetails, false);\n        emit Execution(success);\n        \n        transferFee(feeAmountFirst, feeRecipientFirst);\n        transferFee(feeAmountSecond, feeRecipientSecond);\n\n        transferChange();\n    }\n\n    /**\n        @notice executes an array of purchases\n        @param purchaseDetails - array of deatails about the purchases (more info in PurchaseDetails struct)\n        @param feeRecipientFirst - address of the first fee recipient\n        @param feeRecipientSecond - address of the second fee recipient\n        @param allowFail - true if fails while executing orders are allowed, false if fail of a single order means fail of the whole batch\n     */\n    \n    function bulkPurchase(PurchaseDetails[] memory purchaseDetails, address feeRecipientFirst, address feeRecipientSecond, bool allowFail) external payable {\n        requireNotPaused();\n\n        uint sumFirstFees = 0;\n        uint sumSecondFees = 0;\n        bool result = false;\n\n        for (uint i = 0; i < purchaseDetails.length; ++i) {\n            (bool success, uint firstFeeAmount, uint secondFeeAmount) = purchase(purchaseDetails[i], allowFail);\n\n            result = result || success;\n            emit Execution(success);\n\n            sumFirstFees = sumFirstFees.add(firstFeeAmount);\n            sumSecondFees = sumSecondFees.add(secondFeeAmount);\n        }\n\n        require(result, \"no successful executions\");\n\n        transferFee(sumFirstFees, feeRecipientFirst);\n        transferFee(sumSecondFees, feeRecipientSecond);\n\n        transferChange();\n    }\n\n    /**\n        @notice executes one purchase\n        @param purchaseDetails - details about the purchase\n        @param allowFail - true if errors are handled, false if revert on errors\n        @return result false if execution failed, true if succeded\n        @return firstFeeAmount amount of the first fee of the purchase, 0 if failed\n        @return secondFeeAmount amount of the second fee of the purchase, 0 if failed\n     */\n    function purchase(PurchaseDetails memory purchaseDetails, bool allowFail) internal returns(bool, uint, uint) {\n        (bytes memory marketData, uint[] memory additionalRoyalties) = getDataAndAdditionalData (purchaseDetails.data, purchaseDetails.fees, purchaseDetails.marketId);\n        uint paymentAmount = purchaseDetails.amount;\n        if (purchaseDetails.marketId == Markets.SeaPort){\n            (bool success,) = address(seaPort).call{value : paymentAmount}(marketData);\n            if (allowFail) {\n                if (!success) {\n                    return (false, 0, 0);\n                }\n            } else {\n                require(success, \"Purchase SeaPort failed\");\n            }\n        } else if (purchaseDetails.marketId == Markets.WyvernExchange) {\n            (bool success,) = address(wyvernExchange).call{value : paymentAmount}(marketData);\n            if (allowFail) {\n                if (!success) {\n                    return (false, 0, 0);\n                }\n            } else {\n                require(success, \"Purchase wyvernExchange failed\");\n            }\n        } else if (purchaseDetails.marketId == Markets.ExchangeV2) {\n            (bool success,) = address(exchangeV2).call{value : paymentAmount}(marketData);\n            if (allowFail) {\n                if (!success) {\n                    return (false, 0, 0);\n                }\n            } else {\n                require(success, \"Purchase rarible failed\");\n            }\n        } else if (purchaseDetails.marketId == Markets.X2Y2) {\n            Ix2y2.RunInput memory input = abi.decode(marketData, (Ix2y2.RunInput));\n\n            if (allowFail) {\n                try Ix2y2(x2y2).run{value : paymentAmount}(input) {\n                } catch {\n                    return (false, 0, 0);\n                }\n            } else {\n                Ix2y2(x2y2).run{value : paymentAmount}(input);\n            }\n\n            //for every element in input.details[] getting\n            // order = input.details[i].orderIdx\n            // and from that order getting item = input.details[i].itemId\n            for (uint i = 0; i < input.details.length; ++i) {\n                uint orderId = input.details[i].orderIdx;\n                uint itemId = input.details[i].itemIdx;\n                bytes memory data = input.orders[orderId].items[itemId].data;\n                {\n                    if (input.orders[orderId].dataMask.length > 0 && input.details[i].dataReplacement.length > 0) {\n                        _arrayReplace(data, input.details[i].dataReplacement, input.orders[orderId].dataMask);\n                    }\n                }\n\n                // 1 = erc-721\n                if (input.orders[orderId].delegateType == 1) {\n                    Ix2y2.Pair721[] memory pairs = abi.decode(data, (Ix2y2.Pair721[]));\n\n                    for (uint256 j = 0; j < pairs.length; j++) {\n                        Ix2y2.Pair721 memory p = pairs[j];\n                        IERC721Upgradeable(address(p.token)).safeTransferFrom(address(this), _msgSender(), p.tokenId);\n                    }\n                } else if (input.orders[orderId].delegateType == 2) {\n                    // 2 = erc-1155\n                    Ix2y2.Pair1155[] memory pairs = abi.decode(data, (Ix2y2.Pair1155[]));\n\n                    for (uint256 j = 0; j < pairs.length; j++) {\n                        Ix2y2.Pair1155 memory p = pairs[j];\n                        IERC1155Upgradeable(address(p.token)).safeTransferFrom(address(this),  _msgSender(), p.tokenId, p.amount, \"\");\n                    }\n                } else {\n                    revert(\"unknown delegateType x2y2\");\n                }\n            }\n        } else if (purchaseDetails.marketId == Markets.LooksRareOrders) {\n            (LibLooksRare.TakerOrder memory takerOrder, LibLooksRare.MakerOrder memory makerOrder, bytes4 typeNft) = abi.decode(marketData, (LibLooksRare.TakerOrder, LibLooksRare.MakerOrder, bytes4));\n            if (allowFail) {\n                try ILooksRare(looksRare).matchAskWithTakerBidUsingETHAndWETH{value : paymentAmount}(takerOrder, makerOrder) {\n                }   catch {\n                    return (false, 0, 0);\n                }\n            } else {\n                ILooksRare(looksRare).matchAskWithTakerBidUsingETHAndWETH{value : paymentAmount}(takerOrder, makerOrder);\n            }\n            if (typeNft == LibAsset.ERC721_ASSET_CLASS) {\n                IERC721Upgradeable(makerOrder.collection).safeTransferFrom(address(this), _msgSender(), makerOrder.tokenId);\n            } else if (typeNft == LibAsset.ERC1155_ASSET_CLASS) {\n                IERC1155Upgradeable(makerOrder.collection).safeTransferFrom(address(this), _msgSender(), makerOrder.tokenId, makerOrder.amount, \"\");\n            } else {\n                revert(\"Unknown token type\");\n            }\n        } else if (purchaseDetails.marketId == Markets.SudoSwap) {\n            (bool success,) = address(sudoswap).call{value : paymentAmount}(marketData);\n            if (allowFail) {\n                if (!success) {\n                    return (false, 0, 0);\n                }\n            } else {\n                require(success, \"Purchase sudoswap failed\");\n            }\n        } else if (purchaseDetails.marketId == Markets.BlurIo) {\n            (bool success,) = address(blurExchange).call{value : paymentAmount}(marketData);\n            if (allowFail) {\n                if (!success) {\n                    return (false, 0, 0);\n                }\n            } else {\n                require(success, \"Purchase blurio failed\");\n            }\n        } else {\n            revert(\"Unknown purchase details\");\n        }\n\n        //transferring royalties\n        transferAdditionalRoyalties(additionalRoyalties, purchaseDetails.amount);\n        \n        (uint firstFeeAmount, uint secondFeeAmount) = getFees(purchaseDetails.fees, purchaseDetails.amount);\n        return (true, firstFeeAmount, secondFeeAmount);\n    }\n\n    /**\n        @notice transfers fee to feeRecipient\n        @param feeAmount - amount to be transfered\n        @param feeRecipient - address of the recipient\n     */\n    function transferFee(uint feeAmount, address feeRecipient) internal {\n        if (feeAmount > 0 && feeRecipient != address(0)) {\n            LibTransfer.transferEth(feeRecipient, feeAmount);\n        }\n    }\n\n    /**\n        @notice transfers change back to sender\n     */\n    function transferChange() internal {\n        uint ethAmount = address(this).balance;\n        if (ethAmount > 0) {\n            address(msg.sender).transferEth(ethAmount);\n        }\n    }\n\n    /**\n        @notice parses fees in base points from one uint and calculates real amount of fees\n        @param fees two fees encoded in one uint, 29 and 30 bytes are used for the first fee, 31 and 32 bytes for second fee\n        @param amount price of the order\n        @return firstFeeAmount real amount for the first fee\n        @return secondFeeAmount real amount for the second fee\n     */\n    function getFees(uint fees, uint amount) internal pure returns(uint, uint) {\n        uint firstFee = uint(uint16(fees >> 16));\n        uint secondFee = uint(uint16(fees));\n        return (amount.bp(firstFee), amount.bp(secondFee));\n    }\n\n    /**\n        @notice parses _data to data for market call and additionalData\n        @param feesAndDataType 27 and 28 bytes for dataType\n        @return marketData data for market call\n        @return additionalRoyalties array uint256, (base point + address)\n     */\n    function getDataAndAdditionalData (bytes memory _data, uint feesAndDataType, Markets marketId) internal pure returns (bytes memory, uint[] memory) {\n        AdditionalDataTypes dataType = AdditionalDataTypes(uint16(feesAndDataType >> 32));\n        uint[] memory additionalRoyalties;\n\n        //return no royalties if wrong data type\n        if (dataType == AdditionalDataTypes.NoAdditionalData) {\n            return (_data, additionalRoyalties);\n        }\n\n        if (dataType == AdditionalDataTypes.RoyaltiesAdditionalData) {\n            AdditionalData memory additionalData = abi.decode(_data, (AdditionalData));\n\n            //return no royalties if market doesn't support royalties\n            if (supportsRoyalties(marketId)) {\n                return (additionalData.data, additionalData.additionalRoyalties);\n            } else {\n                return (additionalData.data, additionalRoyalties);\n            } \n        }\n        \n        revert(\"unknown additionalDataType\");\n    }\n\n    /**\n        @notice transfer additional royalties\n        @param _additionalRoyalties array uint256 (base point + royalty recipient address)\n     */\n    function transferAdditionalRoyalties (uint[] memory _additionalRoyalties, uint amount) internal {\n        for (uint i = 0; i < _additionalRoyalties.length; ++i) {\n            if (_additionalRoyalties[i] > 0) {\n                address payable account = payable(address(_additionalRoyalties[i]));\n                uint basePoint = uint(_additionalRoyalties[i] >> 160);\n                uint value = amount.bp(basePoint);\n                transferFee(value, account);\n            }\n        }\n    }\n\n    // modifies `src`\n    function _arrayReplace(\n        bytes memory src,\n        bytes memory replacement,\n        bytes memory mask\n    ) internal view virtual {\n        require(src.length == replacement.length);\n        require(src.length == mask.length);\n\n        for (uint256 i = 0; i < src.length; ++i) {\n            if (mask[i] != 0) {\n                src[i] = replacement[i];\n            }\n        }\n    }\n\n    /**\n        @notice returns true if this contract supports additional royalties for the marketplace\n        now royalties are supported for:\n          1. SudoSwap\n          2. LooksRare\n    */\n    function supportsRoyalties(Markets marketId) internal pure returns (bool){\n        if (\n            marketId == Markets.SudoSwap ||\n            marketId == Markets.LooksRareOrders\n        ) {\n            return true;\n        }\n\n        return false;\n    }\n\n    receive() external payable {}\n}",
  "sourcePath": "/Users/vfadeev/Work/rarible/protocol/protocol-contracts/features/PT-2031/exchange-wrapper/contracts/RaribleExchangeWrapper.sol",
  "compiler": {
    "name": "solc",
    "version": "0.7.6+commit.7338295f.Emscripten.clang"
  },
  "schemaVersion": "3.4.3",
  "updatedAt": "2023-02-07T16:14:21.284Z",
  "devdoc": {
    "kind": "dev",
    "methods": {
      "bulkPurchase((uint8,uint256,uint256,bytes)[],address,address,bool)": {
        "params": {
          "allowFail": "- true if fails while executing orders are allowed, false if fail of a single order means fail of the whole batch",
          "feeRecipientFirst": "- address of the first fee recipient",
          "feeRecipientSecond": "- address of the second fee recipient",
          "purchaseDetails": "- array of deatails about the purchases (more info in PurchaseDetails struct)"
        }
      },
      "onERC721Received(address,address,uint256,bytes)": {
        "details": "See {IERC721Receiver-onERC721Received}. Always returns `IERC721Receiver.onERC721Received.selector`."
      },
      "owner()": {
        "details": "Returns the address of the current owner."
      },
      "renounceOwnership()": {
        "details": "Leaves the contract without owner. It will not be possible to call `onlyOwner` functions anymore. Can only be called by the current owner. NOTE: Renouncing ownership will leave the contract without an owner, thereby removing any functionality that is only available to the owner."
      },
      "singlePurchase((uint8,uint256,uint256,bytes),address,address)": {
        "params": {
          "feeRecipientFirst": "- address of the first fee recipient",
          "feeRecipientSecond": "- address of the second fee recipient",
          "purchaseDetails": "- deatails about the purchase (more info in PurchaseDetails struct)"
        }
      },
      "supportsInterface(bytes4)": {
        "details": "See {IERC165-supportsInterface}. Time complexity O(1), guaranteed to always use less than 30 000 gas."
      },
      "transferOwnership(address)": {
        "details": "Transfers ownership of the contract to a new account (`newOwner`). Can only be called by the current owner."
      }
    },
    "version": 1
  },
  "userdoc": {
    "kind": "user",
    "methods": {
      "bulkPurchase((uint8,uint256,uint256,bytes)[],address,address,bool)": {
        "notice": "executes an array of purchases"
      },
      "singlePurchase((uint8,uint256,uint256,bytes),address,address)": {
        "notice": "executes a single purchase"
      }
    },
    "version": 1
  }
}