{
  "contractName": "X2Y2_r1",
  "abi": [
    {
      "anonymous": false,
      "inputs": [
        {
          "indexed": true,
          "internalType": "bytes32",
          "name": "itemHash",
          "type": "bytes32"
        },
        {
          "indexed": false,
          "internalType": "address",
          "name": "currency",
          "type": "address"
        },
        {
          "indexed": false,
          "internalType": "address",
          "name": "to",
          "type": "address"
        },
        {
          "indexed": false,
          "internalType": "uint256",
          "name": "amount",
          "type": "uint256"
        },
        {
          "indexed": false,
          "internalType": "uint256",
          "name": "incentive",
          "type": "uint256"
        }
      ],
      "name": "EvAuctionRefund",
      "type": "event"
    },
    {
      "anonymous": false,
      "inputs": [
        {
          "indexed": true,
          "internalType": "bytes32",
          "name": "itemHash",
          "type": "bytes32"
        }
      ],
      "name": "EvCancel",
      "type": "event"
    },
    {
      "anonymous": false,
      "inputs": [
        {
          "indexed": false,
          "internalType": "address",
          "name": "delegate",
          "type": "address"
        },
        {
          "indexed": false,
          "internalType": "bool",
          "name": "isRemoval",
          "type": "bool"
        }
      ],
      "name": "EvDelegate",
      "type": "event"
    },
    {
      "anonymous": false,
      "inputs": [
        {
          "indexed": false,
          "internalType": "uint256",
          "name": "index",
          "type": "uint256"
        },
        {
          "indexed": false,
          "internalType": "bytes",
          "name": "error",
          "type": "bytes"
        }
      ],
      "name": "EvFailure",
      "type": "event"
    },
    {
      "anonymous": false,
      "inputs": [
        {
          "indexed": false,
          "internalType": "uint256",
          "name": "newValue",
          "type": "uint256"
        }
      ],
      "name": "EvFeeCapUpdate",
      "type": "event"
    },
    {
      "anonymous": false,
      "inputs": [
        {
          "indexed": true,
          "internalType": "bytes32",
          "name": "itemHash",
          "type": "bytes32"
        },
        {
          "indexed": false,
          "internalType": "address",
          "name": "maker",
          "type": "address"
        },
        {
          "indexed": false,
          "internalType": "address",
          "name": "taker",
          "type": "address"
        },
        {
          "indexed": false,
          "internalType": "uint256",
          "name": "orderSalt",
          "type": "uint256"
        },
        {
          "indexed": false,
          "internalType": "uint256",
          "name": "settleSalt",
          "type": "uint256"
        },
        {
          "indexed": false,
          "internalType": "uint256",
          "name": "intent",
          "type": "uint256"
        },
        {
          "indexed": false,
          "internalType": "uint256",
          "name": "delegateType",
          "type": "uint256"
        },
        {
          "indexed": false,
          "internalType": "uint256",
          "name": "deadline",
          "type": "uint256"
        },
        {
          "indexed": false,
          "internalType": "contract IERC20Upgradeable",
          "name": "currency",
          "type": "address"
        },
        {
          "indexed": false,
          "internalType": "bytes",
          "name": "dataMask",
          "type": "bytes"
        },
        {
          "components": [
            {
              "internalType": "uint256",
              "name": "price",
              "type": "uint256"
            },
            {
              "internalType": "bytes",
              "name": "data",
              "type": "bytes"
            }
          ],
          "indexed": false,
          "internalType": "struct Market.OrderItem",
          "name": "item",
          "type": "tuple"
        },
        {
          "components": [
            {
              "internalType": "enum Market.Op",
              "name": "op",
              "type": "uint8"
            },
            {
              "internalType": "uint256",
              "name": "orderIdx",
              "type": "uint256"
            },
            {
              "internalType": "uint256",
              "name": "itemIdx",
              "type": "uint256"
            },
            {
              "internalType": "uint256",
              "name": "price",
              "type": "uint256"
            },
            {
              "internalType": "bytes32",
              "name": "itemHash",
              "type": "bytes32"
            },
            {
              "internalType": "contract IDelegate",
              "name": "executionDelegate",
              "type": "address"
            },
            {
              "internalType": "bytes",
              "name": "dataReplacement",
              "type": "bytes"
            },
            {
              "internalType": "uint256",
              "name": "bidIncentivePct",
              "type": "uint256"
            },
            {
              "internalType": "uint256",
              "name": "aucMinIncrementPct",
              "type": "uint256"
            },
            {
              "internalType": "uint256",
              "name": "aucIncDurationSecs",
              "type": "uint256"
            },
            {
              "components": [
                {
                  "internalType": "uint256",
                  "name": "percentage",
                  "type": "uint256"
                },
                {
                  "internalType": "address",
                  "name": "to",
                  "type": "address"
                }
              ],
              "internalType": "struct Market.Fee[]",
              "name": "fees",
              "type": "tuple[]"
            }
          ],
          "indexed": false,
          "internalType": "struct Market.SettleDetail",
          "name": "detail",
          "type": "tuple"
        }
      ],
      "name": "EvInventory",
      "type": "event"
    },
    {
      "anonymous": false,
      "inputs": [
        {
          "indexed": false,
          "internalType": "bytes32",
          "name": "itemHash",
          "type": "bytes32"
        },
        {
          "indexed": false,
          "internalType": "address",
          "name": "currency",
          "type": "address"
        },
        {
          "indexed": false,
          "internalType": "address",
          "name": "to",
          "type": "address"
        },
        {
          "indexed": false,
          "internalType": "uint256",
          "name": "amount",
          "type": "uint256"
        }
      ],
      "name": "EvProfit",
      "type": "event"
    },
    {
      "anonymous": false,
      "inputs": [
        {
          "indexed": false,
          "internalType": "address",
          "name": "signer",
          "type": "address"
        },
        {
          "indexed": false,
          "internalType": "bool",
          "name": "isRemoval",
          "type": "bool"
        }
      ],
      "name": "EvSigner",
      "type": "event"
    },
    {
      "anonymous": false,
      "inputs": [
        {
          "indexed": true,
          "internalType": "address",
          "name": "previousOwner",
          "type": "address"
        },
        {
          "indexed": true,
          "internalType": "address",
          "name": "newOwner",
          "type": "address"
        }
      ],
      "name": "OwnershipTransferred",
      "type": "event"
    },
    {
      "anonymous": false,
      "inputs": [
        {
          "indexed": false,
          "internalType": "address",
          "name": "account",
          "type": "address"
        }
      ],
      "name": "Paused",
      "type": "event"
    },
    {
      "anonymous": false,
      "inputs": [
        {
          "indexed": false,
          "internalType": "address",
          "name": "account",
          "type": "address"
        }
      ],
      "name": "Unpaused",
      "type": "event"
    },
    {
      "inputs": [],
      "name": "RATE_BASE",
      "outputs": [
        {
          "internalType": "uint256",
          "name": "",
          "type": "uint256"
        }
      ],
      "stateMutability": "view",
      "type": "function"
    },
    {
      "inputs": [
        {
          "internalType": "address",
          "name": "",
          "type": "address"
        }
      ],
      "name": "delegates",
      "outputs": [
        {
          "internalType": "bool",
          "name": "",
          "type": "bool"
        }
      ],
      "stateMutability": "view",
      "type": "function"
    },
    {
      "inputs": [],
      "name": "feeCapPct",
      "outputs": [
        {
          "internalType": "uint256",
          "name": "",
          "type": "uint256"
        }
      ],
      "stateMutability": "view",
      "type": "function"
    },
    {
      "inputs": [
        {
          "internalType": "bytes32",
          "name": "",
          "type": "bytes32"
        }
      ],
      "name": "inventoryStatus",
      "outputs": [
        {
          "internalType": "enum Market.InvStatus",
          "name": "",
          "type": "uint8"
        }
      ],
      "stateMutability": "view",
      "type": "function"
    },
    {
      "inputs": [
        {
          "internalType": "bytes32",
          "name": "",
          "type": "bytes32"
        }
      ],
      "name": "ongoingAuctions",
      "outputs": [
        {
          "internalType": "uint256",
          "name": "price",
          "type": "uint256"
        },
        {
          "internalType": "uint256",
          "name": "netPrice",
          "type": "uint256"
        },
        {
          "internalType": "uint256",
          "name": "endAt",
          "type": "uint256"
        },
        {
          "internalType": "address",
          "name": "bidder",
          "type": "address"
        }
      ],
      "stateMutability": "view",
      "type": "function"
    },
    {
      "inputs": [],
      "name": "owner",
      "outputs": [
        {
          "internalType": "address",
          "name": "",
          "type": "address"
        }
      ],
      "stateMutability": "view",
      "type": "function"
    },
    {
      "inputs": [],
      "name": "paused",
      "outputs": [
        {
          "internalType": "bool",
          "name": "",
          "type": "bool"
        }
      ],
      "stateMutability": "view",
      "type": "function"
    },
    {
      "inputs": [],
      "name": "renounceOwnership",
      "outputs": [],
      "stateMutability": "nonpayable",
      "type": "function"
    },
    {
      "inputs": [
        {
          "internalType": "address",
          "name": "",
          "type": "address"
        }
      ],
      "name": "signers",
      "outputs": [
        {
          "internalType": "bool",
          "name": "",
          "type": "bool"
        }
      ],
      "stateMutability": "view",
      "type": "function"
    },
    {
      "inputs": [
        {
          "internalType": "address",
          "name": "newOwner",
          "type": "address"
        }
      ],
      "name": "transferOwnership",
      "outputs": [],
      "stateMutability": "nonpayable",
      "type": "function"
    },
    {
      "inputs": [],
      "name": "weth",
      "outputs": [
        {
          "internalType": "contract IWETHUpgradable",
          "name": "",
          "type": "address"
        }
      ],
      "stateMutability": "view",
      "type": "function"
    },
    {
      "stateMutability": "payable",
      "type": "receive"
    },
    {
      "inputs": [],
      "name": "pause",
      "outputs": [],
      "stateMutability": "nonpayable",
      "type": "function"
    },
    {
      "inputs": [],
      "name": "unpause",
      "outputs": [],
      "stateMutability": "nonpayable",
      "type": "function"
    },
    {
      "inputs": [
        {
          "internalType": "uint256",
          "name": "feeCapPct_",
          "type": "uint256"
        },
        {
          "internalType": "address",
          "name": "weth_",
          "type": "address"
        }
      ],
      "name": "initialize",
      "outputs": [],
      "stateMutability": "nonpayable",
      "type": "function"
    },
    {
      "inputs": [
        {
          "internalType": "uint256",
          "name": "val",
          "type": "uint256"
        }
      ],
      "name": "updateFeeCap",
      "outputs": [],
      "stateMutability": "nonpayable",
      "type": "function"
    },
    {
      "inputs": [
        {
          "internalType": "address[]",
          "name": "toAdd",
          "type": "address[]"
        },
        {
          "internalType": "address[]",
          "name": "toRemove",
          "type": "address[]"
        }
      ],
      "name": "updateSigners",
      "outputs": [],
      "stateMutability": "nonpayable",
      "type": "function"
    },
    {
      "inputs": [
        {
          "internalType": "address[]",
          "name": "toAdd",
          "type": "address[]"
        },
        {
          "internalType": "address[]",
          "name": "toRemove",
          "type": "address[]"
        }
      ],
      "name": "updateDelegates",
      "outputs": [],
      "stateMutability": "nonpayable",
      "type": "function"
    },
    {
      "inputs": [
        {
          "internalType": "bytes32[]",
          "name": "itemHashes",
          "type": "bytes32[]"
        },
        {
          "internalType": "uint256",
          "name": "deadline",
          "type": "uint256"
        },
        {
          "internalType": "uint8",
          "name": "v",
          "type": "uint8"
        },
        {
          "internalType": "bytes32",
          "name": "r",
          "type": "bytes32"
        },
        {
          "internalType": "bytes32",
          "name": "s",
          "type": "bytes32"
        }
      ],
      "name": "cancel",
      "outputs": [],
      "stateMutability": "nonpayable",
      "type": "function"
    },
    {
      "inputs": [
        {
          "components": [
            {
              "components": [
                {
                  "internalType": "uint256",
                  "name": "salt",
                  "type": "uint256"
                },
                {
                  "internalType": "address",
                  "name": "user",
                  "type": "address"
                },
                {
                  "internalType": "uint256",
                  "name": "network",
                  "type": "uint256"
                },
                {
                  "internalType": "uint256",
                  "name": "intent",
                  "type": "uint256"
                },
                {
                  "internalType": "uint256",
                  "name": "delegateType",
                  "type": "uint256"
                },
                {
                  "internalType": "uint256",
                  "name": "deadline",
                  "type": "uint256"
                },
                {
                  "internalType": "contract IERC20Upgradeable",
                  "name": "currency",
                  "type": "address"
                },
                {
                  "internalType": "bytes",
                  "name": "dataMask",
                  "type": "bytes"
                },
                {
                  "components": [
                    {
                      "internalType": "uint256",
                      "name": "price",
                      "type": "uint256"
                    },
                    {
                      "internalType": "bytes",
                      "name": "data",
                      "type": "bytes"
                    }
                  ],
                  "internalType": "struct Market.OrderItem[]",
                  "name": "items",
                  "type": "tuple[]"
                },
                {
                  "internalType": "bytes32",
                  "name": "r",
                  "type": "bytes32"
                },
                {
                  "internalType": "bytes32",
                  "name": "s",
                  "type": "bytes32"
                },
                {
                  "internalType": "uint8",
                  "name": "v",
                  "type": "uint8"
                },
                {
                  "internalType": "uint8",
                  "name": "signVersion",
                  "type": "uint8"
                }
              ],
              "internalType": "struct Market.Order[]",
              "name": "orders",
              "type": "tuple[]"
            },
            {
              "components": [
                {
                  "internalType": "enum Market.Op",
                  "name": "op",
                  "type": "uint8"
                },
                {
                  "internalType": "uint256",
                  "name": "orderIdx",
                  "type": "uint256"
                },
                {
                  "internalType": "uint256",
                  "name": "itemIdx",
                  "type": "uint256"
                },
                {
                  "internalType": "uint256",
                  "name": "price",
                  "type": "uint256"
                },
                {
                  "internalType": "bytes32",
                  "name": "itemHash",
                  "type": "bytes32"
                },
                {
                  "internalType": "contract IDelegate",
                  "name": "executionDelegate",
                  "type": "address"
                },
                {
                  "internalType": "bytes",
                  "name": "dataReplacement",
                  "type": "bytes"
                },
                {
                  "internalType": "uint256",
                  "name": "bidIncentivePct",
                  "type": "uint256"
                },
                {
                  "internalType": "uint256",
                  "name": "aucMinIncrementPct",
                  "type": "uint256"
                },
                {
                  "internalType": "uint256",
                  "name": "aucIncDurationSecs",
                  "type": "uint256"
                },
                {
                  "components": [
                    {
                      "internalType": "uint256",
                      "name": "percentage",
                      "type": "uint256"
                    },
                    {
                      "internalType": "address",
                      "name": "to",
                      "type": "address"
                    }
                  ],
                  "internalType": "struct Market.Fee[]",
                  "name": "fees",
                  "type": "tuple[]"
                }
              ],
              "internalType": "struct Market.SettleDetail[]",
              "name": "details",
              "type": "tuple[]"
            },
            {
              "components": [
                {
                  "internalType": "uint256",
                  "name": "salt",
                  "type": "uint256"
                },
                {
                  "internalType": "uint256",
                  "name": "deadline",
                  "type": "uint256"
                },
                {
                  "internalType": "uint256",
                  "name": "amountToEth",
                  "type": "uint256"
                },
                {
                  "internalType": "uint256",
                  "name": "amountToWeth",
                  "type": "uint256"
                },
                {
                  "internalType": "address",
                  "name": "user",
                  "type": "address"
                },
                {
                  "internalType": "bool",
                  "name": "canFail",
                  "type": "bool"
                }
              ],
              "internalType": "struct Market.SettleShared",
              "name": "shared",
              "type": "tuple"
            },
            {
              "internalType": "bytes32",
              "name": "r",
              "type": "bytes32"
            },
            {
              "internalType": "bytes32",
              "name": "s",
              "type": "bytes32"
            },
            {
              "internalType": "uint8",
              "name": "v",
              "type": "uint8"
            }
          ],
          "internalType": "struct Market.RunInput",
          "name": "input",
          "type": "tuple"
        }
      ],
      "name": "run",
      "outputs": [],
      "stateMutability": "payable",
      "type": "function"
    },
    {
      "inputs": [
        {
          "components": [
            {
              "internalType": "uint256",
              "name": "salt",
              "type": "uint256"
            },
            {
              "internalType": "address",
              "name": "user",
              "type": "address"
            },
            {
              "internalType": "uint256",
              "name": "network",
              "type": "uint256"
            },
            {
              "internalType": "uint256",
              "name": "intent",
              "type": "uint256"
            },
            {
              "internalType": "uint256",
              "name": "delegateType",
              "type": "uint256"
            },
            {
              "internalType": "uint256",
              "name": "deadline",
              "type": "uint256"
            },
            {
              "internalType": "contract IERC20Upgradeable",
              "name": "currency",
              "type": "address"
            },
            {
              "internalType": "bytes",
              "name": "dataMask",
              "type": "bytes"
            },
            {
              "components": [
                {
                  "internalType": "uint256",
                  "name": "price",
                  "type": "uint256"
                },
                {
                  "internalType": "bytes",
                  "name": "data",
                  "type": "bytes"
                }
              ],
              "internalType": "struct Market.OrderItem[]",
              "name": "items",
              "type": "tuple[]"
            },
            {
              "internalType": "bytes32",
              "name": "r",
              "type": "bytes32"
            },
            {
              "internalType": "bytes32",
              "name": "s",
              "type": "bytes32"
            },
            {
              "internalType": "uint8",
              "name": "v",
              "type": "uint8"
            },
            {
              "internalType": "uint8",
              "name": "signVersion",
              "type": "uint8"
            }
          ],
          "internalType": "struct Market.Order",
          "name": "order",
          "type": "tuple"
        },
        {
          "components": [
            {
              "internalType": "uint256",
              "name": "salt",
              "type": "uint256"
            },
            {
              "internalType": "uint256",
              "name": "deadline",
              "type": "uint256"
            },
            {
              "internalType": "uint256",
              "name": "amountToEth",
              "type": "uint256"
            },
            {
              "internalType": "uint256",
              "name": "amountToWeth",
              "type": "uint256"
            },
            {
              "internalType": "address",
              "name": "user",
              "type": "address"
            },
            {
              "internalType": "bool",
              "name": "canFail",
              "type": "bool"
            }
          ],
          "internalType": "struct Market.SettleShared",
          "name": "shared",
          "type": "tuple"
        },
        {
          "components": [
            {
              "internalType": "enum Market.Op",
              "name": "op",
              "type": "uint8"
            },
            {
              "internalType": "uint256",
              "name": "orderIdx",
              "type": "uint256"
            },
            {
              "internalType": "uint256",
              "name": "itemIdx",
              "type": "uint256"
            },
            {
              "internalType": "uint256",
              "name": "price",
              "type": "uint256"
            },
            {
              "internalType": "bytes32",
              "name": "itemHash",
              "type": "bytes32"
            },
            {
              "internalType": "contract IDelegate",
              "name": "executionDelegate",
              "type": "address"
            },
            {
              "internalType": "bytes",
              "name": "dataReplacement",
              "type": "bytes"
            },
            {
              "internalType": "uint256",
              "name": "bidIncentivePct",
              "type": "uint256"
            },
            {
              "internalType": "uint256",
              "name": "aucMinIncrementPct",
              "type": "uint256"
            },
            {
              "internalType": "uint256",
              "name": "aucIncDurationSecs",
              "type": "uint256"
            },
            {
              "components": [
                {
                  "internalType": "uint256",
                  "name": "percentage",
                  "type": "uint256"
                },
                {
                  "internalType": "address",
                  "name": "to",
                  "type": "address"
                }
              ],
              "internalType": "struct Market.Fee[]",
              "name": "fees",
              "type": "tuple[]"
            }
          ],
          "internalType": "struct Market.SettleDetail",
          "name": "detail",
          "type": "tuple"
        }
      ],
      "name": "run1",
      "outputs": [
        {
          "internalType": "uint256",
          "name": "",
          "type": "uint256"
        }
      ],
      "stateMutability": "nonpayable",
      "type": "function"
    }
  ],
  "bytecode": "0x608060405234801561001057600080fd5b50614191806100206000396000f3fe6080604052600436106101235760003560e01c80638456cb59116100a0578063d95e3c5411610064578063d95e3c541461033e578063da35a26f1461035e578063e59f739a1461037e578063ea8059171461039e578063f2fde38b1461041257600080fd5b80638456cb59146102985780638da5cb5b146102ad578063912c860c146102cb57806395835fea146103085780639fb514671461032857600080fd5b80633fc8cef3116100e75780633fc8cef3146101c3578063587cde1e146101fb5780635c975abb1461023b578063715018a614610253578063736c0d5b1461026857600080fd5b80630873c6ec1461012f5780632295f9bf14610159578063350b23691461017b578063357a150b1461019b5780633f4ba83a146101ae57600080fd5b3661012a57005b600080fd5b34801561013b57600080fd5b50610146620f424081565b6040519081526020015b60405180910390f35b34801561016557600080fd5b5061017961017436600461304d565b610432565b005b34801561018757600080fd5b506101796101963660046131ad565b61063a565b6101796101a936600461378a565b61081d565b3480156101ba57600080fd5b50610179610cbf565b3480156101cf57600080fd5b5060ce546101e3906001600160a01b031681565b6040516001600160a01b039091168152602001610150565b34801561020757600080fd5b5061022b610216366004613855565b60c96020526000908152604090205460ff1681565b6040519015158152602001610150565b34801561024757600080fd5b5060975460ff1661022b565b34801561025f57600080fd5b50610179610cf3565b34801561027457600080fd5b5061022b610283366004613855565b60ca6020526000908152604090205460ff1681565b3480156102a457600080fd5b50610179610d27565b3480156102b957600080fd5b506065546001600160a01b03166101e3565b3480156102d757600080fd5b506102fb6102e6366004613872565b60cb6020526000908152604090205460ff1681565b60405161015091906138a1565b34801561031457600080fd5b50610179610323366004613872565b610d59565b34801561033457600080fd5b5061014660cd5481565b34801561034a57600080fd5b506101466103593660046138bb565b610dbe565b34801561036a57600080fd5b50610179610379366004613930565b610e12565b34801561038a57600080fd5b506101796103993660046131ad565b610f04565b3480156103aa57600080fd5b506103e96103b9366004613872565b60cc602052600090815260409020805460018201546002830154600390930154919290916001600160a01b031684565b604080519485526020850193909352918301526001600160a01b03166060820152608001610150565b34801561041e57600080fd5b5061017961042d366004613855565b6110e2565b6002600154141561048a5760405162461bcd60e51b815260206004820152601f60248201527f5265656e7472616e637947756172643a207265656e7472616e742063616c6c0060448201526064015b60405180910390fd5b600260015560975460ff16156104b25760405162461bcd60e51b815260040161048190613960565b4284116104d15760405162461bcd60e51b81526004016104819061398a565b6000855186866040516020016104e9939291906139b4565b604051602081830303815290604052805190602001209050600061050f8286868661117d565b6001600160a01b038116600090815260ca602052604090205490915060ff166105725760405162461bcd60e51b815260206004820152601560248201527424b7383aba1039b4b3b730ba3ab9329032b93937b960591b6044820152606401610481565b60005b875181101561062c57600088828151811061059257610592613a0b565b60200260200101519050600060048111156105af576105af61388b565b600082815260cb602052604090205460ff1660048111156105d2576105d261388b565b141561061957600081815260cb6020526040808220805460ff191660031790555182917f5b0b06d07e20243724d90e17a20034972f339eb28bd1c9437a71999bd15a1e7a91a25b508061062481613a37565b915050610575565b505060018055505050505050565b6065546001600160a01b031633146106645760405162461bcd60e51b815260040161048190613a52565b60005b825181101561074257600160ca600085848151811061068857610688613a0b565b60200260200101516001600160a01b03166001600160a01b0316815260200190815260200160002060006101000a81548160ff0219169083151502179055507f0127aee741cbb6bc48b5475b8eb3eb2e5d053809d551dedd517a0b5b52b80fd58382815181106106fa576106fa613a0b565b602002602001015160006040516107289291906001600160a01b039290921682521515602082015260400190565b60405180910390a18061073a81613a37565b915050610667565b5060005b81518110156108185760ca600083838151811061076557610765613a0b565b60200260200101516001600160a01b03166001600160a01b0316815260200190815260200160002060006101000a81549060ff02191690557f0127aee741cbb6bc48b5475b8eb3eb2e5d053809d551dedd517a0b5b52b80fd58282815181106107d0576107d0613a0b565b602002602001015160016040516107fe9291906001600160a01b039290921682521515602082015260400190565b60405180910390a18061081081613a37565b915050610746565b505050565b600260015414156108705760405162461bcd60e51b815260206004820152601f60248201527f5265656e7472616e637947756172643a207265656e7472616e742063616c6c006044820152606401610481565b600260015560975460ff16156108985760405162461bcd60e51b815260040161048190613960565b42816040015160200151116108e85760405162461bcd60e51b81526020600482015260166024820152751a5b9c1d5d08191958591b1a5b99481c995858da195960521b6044820152606401610481565b8060400151608001516001600160a01b0316336001600160a01b0316146109495760405162461bcd60e51b81526020600482015260156024820152740e6cadcc8cae440c8decae640dcdee840dac2e8c6d605b1b6044820152606401610481565b6040810151606001513490156109ea576040808301516060015160ce548251630d0e30db60e41b8152925191926001600160a01b039091169163d0e30db0918491600480830192600092919082900301818588803b1580156109aa57600080fd5b505af11580156109be573d6000803e3d6000fd5b505060ce546109dc93506001600160a01b03169150339050836111a7565b6109e68183613a87565b9150505b604080830151015115610a8557604080830151015160ce54610a17906001600160a01b031633308461120a565b60ce54604051632e1a7d4d60e01b8152600481018390526001600160a01b0390911690632e1a7d4d90602401600060405180830381600087803b158015610a5d57600080fd5b505af1158015610a71573d6000803e3d6000fd5b505050508082610a819190613a9e565b9150505b60005b825151811015610aa45780610a9c81613a37565b915050610a88565b5060005b826020015151811015610c8157600083602001518281518110610acd57610acd613a0b565b6020026020010151905060008460000151826020015181518110610af357610af3613a0b565b60200260200101519050846040015160a0015115610c505760408086015190516336578f1560e21b8152309163d95e3c5491610b359185918790600401613c96565b6020604051808303816000875af1925050508015610b70575060408051601f3d908101601f19168201909252610b6d91810190613ded565b60015b610c3e57610b7c613e06565b806308c379a01415610bdb5750610b91613e22565b80610b9c5750610bdd565b7f97c789f43a3e7ac27906b5fbdac832f54441771021fba06f71207d9be6d4b6238482604051610bcd929190613eab565b60405180910390a150610c6c565b505b3d808015610c07576040519150601f19603f3d011682016040523d82523d6000602084013e610c0c565b606091505b507f97c789f43a3e7ac27906b5fbdac832f54441771021fba06f71207d9be6d4b6238482604051610bcd929190613eab565b610c488186613a87565b945050610c6c565b610c5f81866040015184611248565b610c699085613a87565b93505b50508080610c7990613a37565b915050610aa8565b508015610cb757604051339082156108fc029083906000818181858888f19350505050158015610cb5573d6000803e3d6000fd5b505b505060018055565b6065546001600160a01b03163314610ce95760405162461bcd60e51b815260040161048190613a52565b610cf1612342565b565b6065546001600160a01b03163314610d1d5760405162461bcd60e51b815260040161048190613a52565b610cf160006123d5565b6065546001600160a01b03163314610d515760405162461bcd60e51b815260040161048190613a52565b610cf1612427565b6065546001600160a01b03163314610d835760405162461bcd60e51b815260040161048190613a52565b60cd8190556040518181527f19fc3beddeea399f0966d5f8664ad94006f16a10fb28c4e2fe6fae62626b71289060200160405180910390a150565b6000333014610dfd5760405162461bcd60e51b815260206004820152600b60248201526a1d5b9cd859994818d85b1b60aa1b6044820152606401610481565b610e08848484611248565b90505b9392505050565b600054610100900460ff16610e2d5760005460ff1615610e31565b303b155b610e945760405162461bcd60e51b815260206004820152602e60248201527f496e697469616c697a61626c653a20636f6e747261637420697320616c72656160448201526d191e481a5b9a5d1a585b1a5e995960921b6064820152608401610481565b600054610100900460ff16158015610eb6576000805461ffff19166101011790555b60cd83905560ce80546001600160a01b0319166001600160a01b038416179055610ede61247f565b610ee66124ac565b610eee6124df565b8015610818576000805461ff0019169055505050565b6065546001600160a01b03163314610f2e5760405162461bcd60e51b815260040161048190613a52565b60005b825181101561100c57600160c96000858481518110610f5257610f52613a0b565b60200260200101516001600160a01b03166001600160a01b0316815260200190815260200160002060006101000a81548160ff0219169083151502179055507f4a31a64b928a0e8aff42ef84d144ffe82d08cb41c8027060593135e2026899b2838281518110610fc457610fc4613a0b565b60200260200101516000604051610ff29291906001600160a01b039290921682521515602082015260400190565b60405180910390a18061100481613a37565b915050610f31565b5060005b81518110156108185760c9600083838151811061102f5761102f613a0b565b60200260200101516001600160a01b03166001600160a01b0316815260200190815260200160002060006101000a81549060ff02191690557f4a31a64b928a0e8aff42ef84d144ffe82d08cb41c8027060593135e2026899b282828151811061109a5761109a613a0b565b602002602001015160016040516110c89291906001600160a01b039290921682521515602082015260400190565b60405180910390a1806110da81613a37565b915050611010565b6065546001600160a01b0316331461110c5760405162461bcd60e51b815260040161048190613a52565b6001600160a01b0381166111715760405162461bcd60e51b815260206004820152602660248201527f4f776e61626c653a206e6577206f776e657220697320746865207a65726f206160448201526564647265737360d01b6064820152608401610481565b61117a816123d5565b50565b600080600061118e8787878761250f565b9150915061119b816125fc565b5090505b949350505050565b6040516001600160a01b03831660248201526044810182905261081890849063a9059cbb60e01b906064015b60408051601f198184030181529190526020810180516001600160e01b03166001600160e01b0319909316929092179091526127b7565b6040516001600160a01b03808516602483015283166044820152606481018290526112429085906323b872dd60e01b906084016111d3565b50505050565b60008060009050600085610100015184604001518151811061126c5761126c613a0b565b6020026020010151905060006112828783612889565b9050846080015181146112d75760405162461bcd60e51b815260206004820152601860248201527f6974656d206861736820646f6573206e6f74206d6174636800000000000000006044820152606401610481565b4687604001511461131a5760405162461bcd60e51b815260206004820152600d60248201526c77726f6e67206e6574776f726b60981b6044820152606401610481565b60a08501516001600160a01b031615801590611352575060a08501516001600160a01b0316600090815260c9602052604090205460ff165b6113915760405162461bcd60e51b815260206004820152601060248201526f756e6b6e6f776e2064656c656761746560801b6044820152606401610481565b602082015160e088015151158015906113af575060008660c0015151115b156113c7576113c7818760c001518a60e001516128e3565b6001865160078111156113dc576113dc61388b565b14156115c657600082815260cb602052604081205460ff1660048111156114055761140561388b565b146114225760405162461bcd60e51b815260040161048190613ec4565b60018860600151146114675760405162461bcd60e51b815260206004820152600e60248201526d1a5b9d195b9d08084f481cd95b1b60921b6044820152606401610481565b611471888761298a565b428860a00151116114945760405162461bcd60e51b81526004016104819061398a565b8251606087015110156114d55760405162461bcd60e51b81526020600482015260096024820152681d5b99195c9c185a5960ba1b6044820152606401610481565b6114ed828960c0015189608001518960600151612a3e565b93508560a001516001600160a01b031663bc553f0f89602001518960800151846040518463ffffffff1660e01b815260040161152b93929190613ef2565b6020604051808303816000875af115801561154a573d6000803e3d6000fd5b505050506040513d601f19601f8201168201806040525081019061156e9190613f27565b61158a5760405162461bcd60e51b815260040161048190613f44565b6115a88289602001518a60c00151898a606001518b60600151612a7b565b600082815260cb60205260409020805460ff19166002179055612329565b6002865160078111156115db576115db61388b565b141561180557600082815260cb602052604081205460ff1660048111156116045761160461388b565b146116215760405162461bcd60e51b815260040161048190613ec4565b60038860600151146116655760405162461bcd60e51b815260206004820152600d60248201526c696e74656e7420213d2062757960981b6044820152606401610481565b61166f888761298a565b428860a00151116116925760405162461bcd60e51b81526004016104819061398a565b60608601518351146116d85760405162461bcd60e51b815260206004820152600f60248201526e0e0e4d2c6ca40dcdee840dac2e8c6d608b1b6044820152606401610481565b60c08801516001600160a01b03166117325760405162461bcd60e51b815260206004820152601a60248201527f6e617469766520746f6b656e206e6f7420737570706f727465640000000000006044820152606401610481565b61174a828960c001518a602001518960600151612a3e565b93508560a001516001600160a01b0316631672162688608001518a60200151846040518463ffffffff1660e01b815260040161178893929190613ef2565b6020604051808303816000875af11580156117a7573d6000803e3d6000fd5b505050506040513d601f19601f820116820180604052508101906117cb9190613f27565b6117e75760405162461bcd60e51b815260040161048190613f44565b6115a88288608001518a60c00151898a606001518b60600151612a7b565b60038651600781111561181a5761181a61388b565b14156118eb57600082815260cb602052604081205460ff1660048111156118435761184361388b565b146118835760405162461bcd60e51b815260206004820152601060248201526f1d5b98589b19481d1bc818d85b98d95b60821b6044820152606401610481565b428860a00151116118a65760405162461bcd60e51b81526004016104819061398a565b600082815260cb6020526040808220805460ff191660031790555183917f5b0b06d07e20243724d90e17a20034972f339eb28bd1c9437a71999bd15a1e7a91a2612329565b6004865160078111156119005761190061388b565b1415611e8c57600288606001511461194e5760405162461bcd60e51b815260206004820152601160248201527034b73a32b73a10109e9030bab1ba34b7b760791b6044820152606401610481565b611958888761298a565b600082815260cc60205260408120600301546001600160a01b0316611b5c57600083815260cb602052604081205460ff16600481111561199a5761199a61388b565b146119b75760405162461bcd60e51b815260040161048190613ec4565b428960a00151116119fa5760405162461bcd60e51b815260206004820152600d60248201526c185d58dd1a5bdb88195b991959609a1b6044820152606401610481565b835160608801511015611a3b5760405162461bcd60e51b81526020600482015260096024820152681d5b99195c9c185a5960ba1b6044820152606401610481565b50604080516080808201835260608981018051845251602080850191825260a08e810151868801908152948e0180516001600160a01b0390811695880195865260008b815260cc85528981209851895594516001808a0191909155965160028901559451600390970180546001600160a01b0319169786169790971790965560cb8252868320805460ff1916861790558c0151908e01519451955163c23725f960e01b8152939592169363c23725f993611afd93919291908890600401613f6e565b6020604051808303816000875af1158015611b1c573d6000803e3d6000fd5b505050506040513d601f19601f82011682018060405250810190611b409190613f27565b611b5c5760405162461bcd60e51b815260040161048190613f44565b600083815260cc6020526040902060028101544210611bad5760405162461bcd60e51b815260206004820152600d60248201526c185d58dd1a5bdb88195b991959609a1b6044820152606401610481565b611bc5848b60c001518b608001518b60600151612a3e565b955081611e4b576001600085815260cb602052604090205460ff166004811115611bf157611bf161388b565b14611c355760405162461bcd60e51b815260206004820152601460248201527337b93232b91034b9903737ba1030bab1ba34b7b760611b6044820152606401610481565b6101008801518154620f424091611c4b91613fa2565b611c559190613fc1565b815460608a0151611c669190613a87565b1015611c9f5760405162461bcd60e51b81526020600482015260086024820152671d5b99195c989a5960c21b6044820152606401610481565b600181015460e089015160608a0151600091620f424091611cc09190613fa2565b611cca9190613fc1565b90506000611cd88284613a9e565b1115611d655760c08c01516003840154611d0591906001600160a01b0316611d008486613a9e565b612c04565b60c08c01516003840154604080516001600160a01b03938416815292909116602083015281018390526060810182905286907f681e2055b67e23ce693a446bd0567fb9df559ce6f82da4397482bad968551ac29060800160405180910390a25b60a08a015160208d0151600385015460808e015160405163c23725f960e01b81526001600160a01b039485169463c23725f994611dab9490939116918b90600401613f6e565b6020604051808303816000875af1158015611dca573d6000803e3d6000fd5b505050506040513d601f19601f82011682018060405250810190611dee9190613f27565b611e0a5760405162461bcd60e51b815260040161048190613f44565b60608a0151808455611e1d908290613a87565b6001840155505060808901516003820180546001600160a01b0319166001600160a01b039092169190911790555b6002810154610120890151611e609042613a9e565b1115611e8557876101200151816002016000828254611e7f9190613a9e565b90915550505b5050612329565b600686516007811115611ea157611ea161388b565b1480611ebf5750600786516007811115611ebd57611ebd61388b565b145b156120e5576001600083815260cb602052604090205460ff166004811115611ee957611ee961388b565b14611f365760405162461bcd60e51b815260206004820152601f60248201527f63616e6e6f742063616e63656c206e6f6e2d61756374696f6e206f72646572006044820152606401610481565b600082815260cc60205260409020600181015415611fd55760c089015160038201546001830154611f7192916001600160a01b031690612c04565b60c089015160038201546001830154604080516001600160a01b039485168152939092166020840152908201526000606082015283907f681e2055b67e23ce693a446bd0567fb9df559ce6f82da4397482bad968551ac29060800160405180910390a25b611fdf898861298a565b600687516007811115611ff457611ff461388b565b141561209a5760a087015160208a0151600383015460405163f477e4fd60e01b81526001600160a01b039384169363f477e4fd9361203b9390929116908790600401613ef2565b6020604051808303816000875af115801561205a573d6000803e3d6000fd5b505050506040513d601f19601f8201168201806040525081019061207e9190613f27565b61209a5760405162461bcd60e51b815260040161048190613f44565b50600082815260cc60209081526040808320838155600181018490556002810184905560030180546001600160a01b031916905560cb9091529020805460ff19166004179055612329565b6005865160078111156120fa576120fa61388b565b14156122f4576001600083815260cb602052604090205460ff1660048111156121255761212561388b565b1461217c5760405162461bcd60e51b815260206004820152602160248201527f63616e6e6f7420636f6d706c657465206e6f6e2d61756374696f6e206f7264656044820152603960f91b6064820152608401610481565b612186888761298a565b600082815260cc6020526040902060028101544210156121e85760405162461bcd60e51b815260206004820152601860248201527f61756374696f6e206e6f742066696e69736865642079657400000000000000006044820152606401610481565b60a087015160208a01516003830154604051633672c91160e01b81526001600160a01b0393841693633672c911936122299390929116908790600401613ef2565b6020604051808303816000875af1158015612248573d6000803e3d6000fd5b505050506040513d601f19601f8201168201806040525081019061226c9190613f27565b6122885760405162461bcd60e51b815260040161048190613f44565b6122a6838a602001518b60c001518a85600001548660010154612a7b565b50600082815260cb60209081526040808320805460ff1916600290811790915560cc9092528220828155600181018390559081019190915560030180546001600160a01b0319169055612329565b60405162461bcd60e51b815260206004820152600a6024820152690756e6b6e6f776e206f760b41b6044820152606401610481565b6123368289858a8a612c36565b50919695505050505050565b60975460ff1661238b5760405162461bcd60e51b815260206004820152601460248201527314185d5cd8589b194e881b9bdd081c185d5cd95960621b6044820152606401610481565b6097805460ff191690557f5db9ee0a495bf2e6ff9c91a7834c1ba4fdd244a5e8aa4e537bd38aeae4b073aa335b6040516001600160a01b03909116815260200160405180910390a1565b606580546001600160a01b038381166001600160a01b0319831681179093556040519116919082907f8be0079c531659141344cd1fd0a4f28419497f9722a3daafe3b4186f6b6457e090600090a35050565b60975460ff161561244a5760405162461bcd60e51b815260040161048190613960565b6097805460ff191660011790557f62e78cea01bee320cd4e420270b5ea74000d11b0c9f74754ebdbfc544b05a2586123b83390565b600054610100900460ff166124a65760405162461bcd60e51b815260040161048190613fe3565b60018055565b600054610100900460ff166124d35760405162461bcd60e51b815260040161048190613fe3565b6097805460ff19169055565b600054610100900460ff166125065760405162461bcd60e51b815260040161048190613fe3565b610cf1336123d5565b6000807f7fffffffffffffffffffffffffffffff5d576e7357a4501ddfe92f46681b20a083111561254657506000905060036125f3565b8460ff16601b1415801561255e57508460ff16601c14155b1561256f57506000905060046125f3565b6040805160008082526020820180845289905260ff881692820192909252606081018690526080810185905260019060a0016020604051602081039080840390855afa1580156125c3573d6000803e3d6000fd5b5050604051601f1901519150506001600160a01b0381166125ec576000600192509250506125f3565b9150600090505b94509492505050565b60008160048111156126105761261061388b565b14156126195750565b600181600481111561262d5761262d61388b565b141561267b5760405162461bcd60e51b815260206004820152601860248201527f45434453413a20696e76616c6964207369676e617475726500000000000000006044820152606401610481565b600281600481111561268f5761268f61388b565b14156126dd5760405162461bcd60e51b815260206004820152601f60248201527f45434453413a20696e76616c6964207369676e6174757265206c656e677468006044820152606401610481565b60038160048111156126f1576126f161388b565b141561274a5760405162461bcd60e51b815260206004820152602260248201527f45434453413a20696e76616c6964207369676e6174757265202773272076616c604482015261756560f01b6064820152608401610481565b600481600481111561275e5761275e61388b565b141561117a5760405162461bcd60e51b815260206004820152602260248201527f45434453413a20696e76616c6964207369676e6174757265202776272076616c604482015261756560f01b6064820152608401610481565b600061280c826040518060400160405280602081526020017f5361666545524332303a206c6f772d6c6576656c2063616c6c206661696c6564815250856001600160a01b0316612cad9092919063ffffffff16565b805190915015610818578080602001905181019061282a9190613f27565b6108185760405162461bcd60e51b815260206004820152602a60248201527f5361666545524332303a204552433230206f7065726174696f6e20646964206e6044820152691bdd081cdd58d8d9595960b21b6064820152608401610481565b81516020808401516040808601516060870151608088015160a089015160c08a015160e08b015195516000996128c599909897918c910161402e565b60405160208183030381529060405280519060200120905092915050565b81518351146128f157600080fd5b80518351146128ff57600080fd5b60005b83518110156112425781818151811061291d5761291d613a0b565b01602001516001600160f81b031916156129785782818151811061294357612943613a0b565b602001015160f81c60f81b84828151811061296057612960613a0b565b60200101906001600160f81b031916908160001a9053505b8061298281613a37565b915050612902565b81608001518160a001516001600160a01b0316632c436e5b6040518163ffffffff1660e01b8152600401602060405180830381865afa1580156129d1573d6000803e3d6000fd5b505050506040513d601f19601f820116820180604052508101906129f59190613ded565b14612a3a5760405162461bcd60e51b81526020600482015260156024820152743232b632b3b0ba34b7b7103a3cb8329032b93937b960591b6044820152606401610481565b5050565b60008115612a70576001600160a01b038416612a5b57508061119f565b612a706001600160a01b03851684308561120a565b506000949350505050565b80821015612ab95760405162461bcd60e51b815260206004820152600b60248201526a383934b1b29032b93937b960a91b6044820152606401610481565b806000805b85610140015151811015612b535760008661014001518281518110612ae557612ae5613a0b565b60200260200101519050806000015183612aff9190613a9e565b92506000620f4240826000015188612b179190613fa2565b612b219190613fc1565b9050612b2d8186613a87565b9450612b3e89836020015183612c04565b50508080612b4b90613a37565b915050612abe565b508060cd541015612b9f5760405162461bcd60e51b81526020600482015260166024820152751d1bdd185b081999594818d85c08195e18d95959195960521b6044820152606401610481565b612baa868884612c04565b604080518981526001600160a01b0388811660208301528916818301526060810184905290517fe2c49856b032c255ae7e325d18109bc4e22a2804e2e49a017ec0f59f19cd447b9181900360800190a15050505050505050565b8015610818576001600160a01b038316612c22576108188282612cbc565b6108186001600160a01b03841683836111a7565b847f3cbb63f144840e5b1b0a38a7c19211d2e89de4d7c5faf8b2d3c1776c302d1d33856020015184608001518760000151866000015189606001518a608001518b60a001518c60c001518d60e001518d8c604051612c9e9b9a9998979695949392919061409d565b60405180910390a25050505050565b6060610e088484600085612dd5565b80471015612d0c5760405162461bcd60e51b815260206004820152601d60248201527f416464726573733a20696e73756666696369656e742062616c616e63650000006044820152606401610481565b6000826001600160a01b03168260405160006040518083038185875af1925050503d8060008114612d59576040519150601f19603f3d011682016040523d82523d6000602084013e612d5e565b606091505b50509050806108185760405162461bcd60e51b815260206004820152603a60248201527f416464726573733a20756e61626c6520746f2073656e642076616c75652c207260448201527f6563697069656e74206d617920686176652072657665727465640000000000006064820152608401610481565b606082471015612e365760405162461bcd60e51b815260206004820152602660248201527f416464726573733a20696e73756666696369656e742062616c616e636520666f6044820152651c8818d85b1b60d21b6064820152608401610481565b6001600160a01b0385163b612e8d5760405162461bcd60e51b815260206004820152601d60248201527f416464726573733a2063616c6c20746f206e6f6e2d636f6e74726163740000006044820152606401610481565b600080866001600160a01b03168587604051612ea9919061412c565b60006040518083038185875af1925050503d8060008114612ee6576040519150601f19603f3d011682016040523d82523d6000602084013e612eeb565b606091505b5091509150612efb828286612f06565b979650505050505050565b60608315612f15575081610e0b565b825115612f255782518084602001fd5b8160405162461bcd60e51b81526004016104819190614148565b634e487b7160e01b600052604160045260246000fd5b604081018181106001600160401b0382111715612f7457612f74612f3f565b60405250565b601f8201601f191681016001600160401b0381118282101715612f9f57612f9f612f3f565b6040525050565b6040516101a081016001600160401b0381118282101715612fc957612fc9612f3f565b60405290565b60405161016081016001600160401b0381118282101715612fc957612fc9612f3f565b60405160c081016001600160401b0381118282101715612fc957612fc9612f3f565b60006001600160401b0382111561302d5761302d612f3f565b5060051b60200190565b803560ff8116811461304857600080fd5b919050565b600080600080600060a0868803121561306557600080fd5b85356001600160401b0381111561307b57600080fd5b8601601f8101881361308c57600080fd5b8035602061309982613014565b6040516130a68282612f7a565b83815260059390931b840182019282810191508b8411156130c657600080fd5b938201935b838510156130e4578435825293820193908201906130cb565b98505088013595506130fb91505060408701613037565b94979396509394606081013594506080013592915050565b6001600160a01b038116811461117a57600080fd5b803561304881613113565b600082601f83011261314457600080fd5b8135602061315182613014565b60405161315e8282612f7a565b83815260059390931b850182019282810191508684111561317e57600080fd5b8286015b848110156131a257803561319581613113565b8352918301918301613182565b509695505050505050565b600080604083850312156131c057600080fd5b82356001600160401b03808211156131d757600080fd5b6131e386838701613133565b935060208501359150808211156131f957600080fd5b5061320685828601613133565b9150509250929050565b600082601f83011261322157600080fd5b81356001600160401b0381111561323a5761323a612f3f565b604051613251601f8301601f191660200182612f7a565b81815284602083860101111561326657600080fd5b816020850160208301376000918101602001919091529392505050565b600082601f83011261329457600080fd5b813560206132a182613014565b604080516132af8382612f7a565b84815260059490941b86018301938381019250878511156132cf57600080fd5b8387015b858110156133505780356001600160401b03808211156132f35760008081fd5b90890190818b03601f190185131561330b5760008081fd5b845161331681612f55565b878301358152858301358281111561332e5760008081fd5b61333c8d8a83870101613210565b828a015250865250509284019284016132d3565b50979650505050505050565b60006101a0828403121561336f57600080fd5b613377612fa6565b90508135815261338960208301613128565b602082015260408201356040820152606082013560608201526080820135608082015260a082013560a08201526133c260c08301613128565b60c082015260e08201356001600160401b03808211156133e157600080fd5b6133ed85838601613210565b60e08401526101009150818401358181111561340857600080fd5b61341486828701613283565b83850152505050610120808301358183015250610140808301358183015250610160613441818401613037565b90820152610180613453838201613037565b9082015292915050565b600082601f83011261346e57600080fd5b8135602061347b82613014565b6040516134888282612f7a565b83815260059390931b85018201928281019150868411156134a857600080fd5b8286015b848110156131a25780356001600160401b038111156134cb5760008081fd5b6134d98986838b010161335c565b8452509183019183016134ac565b80356008811061304857600080fd5b600082601f83011261350757600080fd5b8135602061351482613014565b604080516135228382612f7a565b84815260069490941b860183019383810192508785111561354257600080fd5b8387015b858110156133505782818a03121561355e5760008081fd5b825161356981612f55565b813581528582013561357a81613113565b818701528452928401928201613546565b6000610160828403121561359e57600080fd5b6135a6612fcf565b90506135b1826134e7565b8152602082013560208201526040820135604082015260608201356060820152608082013560808201526135e760a08301613128565b60a082015260c08201356001600160401b038082111561360657600080fd5b61361285838601613210565b60c084015260e08481013590840152610100808501359084015261012080850135908401526101409150818401358181111561364d57600080fd5b613659868287016134f6565b8385015250505092915050565b600082601f83011261367757600080fd5b8135602061368482613014565b6040516136918282612f7a565b83815260059390931b85018201928281019150868411156136b157600080fd5b8286015b848110156131a25780356001600160401b038111156136d45760008081fd5b6136e28986838b010161358b565b8452509183019183016136b5565b801515811461117a57600080fd5b600060c0828403121561371057600080fd5b60405160c081018181106001600160401b038211171561373257613732612f3f565b806040525080915082358152602083013560208201526040830135604082015260608301356060820152608083013561376a81613113565b608082015260a083013561377d816136f0565b60a0919091015292915050565b60006020828403121561379c57600080fd5b81356001600160401b03808211156137b357600080fd5b9083019061016082860312156137c857600080fd5b6137d0612ff2565b8235828111156137df57600080fd5b6137eb8782860161345d565b82525060208301358281111561380057600080fd5b61380c87828601613666565b60208301525061381f86604085016136fe565b6040820152610100830135606082015261012083013560808201526138476101408401613037565b60a082015295945050505050565b60006020828403121561386757600080fd5b8135610e0b81613113565b60006020828403121561388457600080fd5b5035919050565b634e487b7160e01b600052602160045260246000fd5b60208101600583106138b5576138b561388b565b91905290565b600080600061010084860312156138d157600080fd5b83356001600160401b03808211156138e857600080fd5b6138f48783880161335c565b945061390387602088016136fe565b935060e086013591508082111561391957600080fd5b506139268682870161358b565b9150509250925092565b6000806040838503121561394357600080fd5b82359150602083013561395581613113565b809150509250929050565b60208082526010908201526f14185d5cd8589b194e881c185d5cd95960821b604082015260600190565b60208082526010908201526f191958591b1a5b99481c995858da195960821b604082015260600190565b6000606082018583526020606081850152818651808452608086019150828801935060005b818110156139f5578451835293830193918301916001016139d9565b5050809350505050826040830152949350505050565b634e487b7160e01b600052603260045260246000fd5b634e487b7160e01b600052601160045260246000fd5b6000600019821415613a4b57613a4b613a21565b5060010190565b6020808252818101527f4f776e61626c653a2063616c6c6572206973206e6f7420746865206f776e6572604082015260600190565b600082821015613a9957613a99613a21565b500390565b60008219821115613ab157613ab1613a21565b500190565b60005b83811015613ad1578181015183820152602001613ab9565b838111156112425750506000910152565b60008151808452613afa816020860160208601613ab6565b601f01601f19169290920160200192915050565b80518252600060208201516040602085015261119f6040850182613ae2565b600081518084526020808501808196508360051b8101915082860160005b85811015613b75578284038952613b63848351613b0e565b98850198935090840190600101613b4b565b5091979650505050505050565b60088110613b9257613b9261388b565b9052565b600081518084526020808501945080840160005b83811015613bda578151805188528301516001600160a01b03168388015260409096019590820190600101613baa565b509495945050505050565b6000610160613bf5848451613b82565b6020830151602085015260408301516040850152606083015160608501526080830151608085015260a0830151613c3760a08601826001600160a01b03169052565b5060c08301518160c0860152613c4f82860182613ae2565b91505060e083015160e08501526101008084015181860152506101208084015181860152506101408084015185830382870152613c8c8382613b96565b9695505050505050565b60006101008083528551818401526020860151610120613cc0818601836001600160a01b03169052565b60408801516101408681019190915260608901516101608088019190915260808a01516101808089019190915260a08b01516101a0808a019190915260c08c01516001600160a01b03166101c08a015260e08c01516101e08a01919091529450613d2e6102a0890186613ae2565b958b015188870360ff19016102008a0152959450613d4c8587613b2d565b9550838b0151610220890152828b0151610240890152818b01519450613d7861026089018660ff169052565b8a015160ff81166102808901529350613d9092505050565b50613ddb6020840186805182526020808201519083015260408082015190830152606080820151908301526080808201516001600160a01b03169083015260a0908101511515910152565b82810360e0840152613c8c8185613be5565b600060208284031215613dff57600080fd5b5051919050565b600060033d1115613e1f5760046000803e5060005160e01c5b90565b600060443d1015613e305790565b6040516003193d81016004833e81513d6001600160401b038160248401118184111715613e5f57505050505090565b8285019150815181811115613e775750505050505090565b843d8701016020828501011115613e915750505050505090565b613ea060208286010187612f7a565b509095945050505050565b828152604060208201526000610e086040830184613ae2565b6020808252601490820152736f7264657220616c72656164792065786973747360601b604082015260600190565b6001600160a01b03848116825283166020820152606060408201819052600090613f1e90830184613ae2565b95945050505050565b600060208284031215613f3957600080fd5b8151610e0b816136f0565b60208082526010908201526f3232b632b3b0ba34b7b71032b93937b960811b604082015260600190565b6001600160a01b038581168252848116602083015283166040820152608060608201819052600090613c8c90830184613ae2565b6000816000190483118215151615613fbc57613fbc613a21565b500290565b600082613fde57634e487b7160e01b600052601260045260246000fd5b500490565b6020808252602b908201527f496e697469616c697a61626c653a20636f6e7472616374206973206e6f74206960408201526a6e697469616c697a696e6760a81b606082015260800190565b60006101208b835260018060a01b03808c1660208501528a60408501528960608501528860808501528760a085015280871660c0850152508060e084015261407881840186613ae2565b905082810361010084015261408d8185613b0e565b9c9b505050505050505050505050565b600061016060018060a01b03808f168452808e1660208501528c60408501528b60608501528a60808501528960a08501528860c085015280881660e085015250806101008401526140f081840187613ae2565b90508281036101208401526141058186613b0e565b905082810361014084015261411a8185613be5565b9e9d5050505050505050505050505050565b6000825161413e818460208701613ab6565b9190910192915050565b602081526000610e0b6020830184613ae256fea264697066735822122047b199cb32bd21964f904cfa277e0e8580c4b8086a3ff9337a1d45bfcc75b79c64736f6c634300080b0033",
  "immutableReferences": {},
  "source": "// SPDX-License-Identifier: Unlicensed\n\npragma solidity ^0.8.0;\npragma abicoder v2;\n\nimport './IDelegate.sol';\nimport './IWETHUpgradable.sol';\nimport './MarketConsts.sol';\nimport '@openzeppelin/contracts-upgradeable/access/OwnableUpgradeable.sol';\nimport '@openzeppelin/contracts-upgradeable/proxy/utils/Initializable.sol';\nimport '@openzeppelin/contracts-upgradeable/security/PausableUpgradeable.sol';\nimport '@openzeppelin/contracts-upgradeable/security/ReentrancyGuardUpgradeable.sol';\nimport '@openzeppelin/contracts-upgradeable/token/ERC20/utils/SafeERC20Upgradeable.sol';\nimport '@openzeppelin/contracts/utils/cryptography/ECDSA.sol';\n\ninterface IX2Y2Run {\n    function run1(\n        Market.Order memory order,\n        Market.SettleShared memory shared,\n        Market.SettleDetail memory detail\n    ) external returns (uint256);\n}\n\ncontract X2Y2_r1 is\n    Initializable,\n    ReentrancyGuardUpgradeable,\n    OwnableUpgradeable,\n    PausableUpgradeable,\n    IX2Y2Run\n{\n    using SafeERC20Upgradeable for IERC20Upgradeable;\n\n    event EvProfit(bytes32 itemHash, address currency, address to, uint256 amount);\n    event EvAuctionRefund(\n        bytes32 indexed itemHash,\n        address currency,\n        address to,\n        uint256 amount,\n        uint256 incentive\n    );\n    event EvInventory(\n        bytes32 indexed itemHash,\n        address maker,\n        address taker,\n        uint256 orderSalt,\n        uint256 settleSalt,\n        uint256 intent,\n        uint256 delegateType,\n        uint256 deadline,\n        IERC20Upgradeable currency,\n        bytes dataMask,\n        Market.OrderItem item,\n        Market.SettleDetail detail\n    );\n    event EvSigner(address signer, bool isRemoval);\n    event EvDelegate(address delegate, bool isRemoval);\n    event EvFeeCapUpdate(uint256 newValue);\n    event EvCancel(bytes32 indexed itemHash);\n    event EvFailure(uint256 index, bytes error);\n\n    mapping(address => bool) public delegates;\n    mapping(address => bool) public signers;\n\n    mapping(bytes32 => Market.InvStatus) public inventoryStatus;\n    mapping(bytes32 => Market.OngoingAuction) public ongoingAuctions;\n\n    uint256 public constant RATE_BASE = 1e6;\n    uint256 public feeCapPct;\n    IWETHUpgradable public weth;\n\n    receive() external payable {}\n\n    function pause() public onlyOwner {\n        _pause();\n    }\n\n    function unpause() public onlyOwner {\n        _unpause();\n    }\n\n    function initialize(uint256 feeCapPct_, address weth_) public initializer {\n        feeCapPct = feeCapPct_;\n        weth = IWETHUpgradable(weth_);\n\n        __ReentrancyGuard_init_unchained();\n        __Pausable_init_unchained();\n        __Ownable_init_unchained();\n    }\n\n    function updateFeeCap(uint256 val) public virtual onlyOwner {\n        feeCapPct = val;\n        emit EvFeeCapUpdate(val);\n    }\n\n    function updateSigners(address[] memory toAdd, address[] memory toRemove)\n        public\n        virtual\n        onlyOwner\n    {\n        for (uint256 i = 0; i < toAdd.length; i++) {\n            signers[toAdd[i]] = true;\n            emit EvSigner(toAdd[i], false);\n        }\n        for (uint256 i = 0; i < toRemove.length; i++) {\n            delete signers[toRemove[i]];\n            emit EvSigner(toRemove[i], true);\n        }\n    }\n\n    function updateDelegates(address[] memory toAdd, address[] memory toRemove)\n        public\n        virtual\n        onlyOwner\n    {\n        for (uint256 i = 0; i < toAdd.length; i++) {\n            delegates[toAdd[i]] = true;\n            emit EvDelegate(toAdd[i], false);\n        }\n        for (uint256 i = 0; i < toRemove.length; i++) {\n            delete delegates[toRemove[i]];\n            emit EvDelegate(toRemove[i], true);\n        }\n    }\n\n    function cancel(\n        bytes32[] memory itemHashes,\n        uint256 deadline,\n        uint8 v,\n        bytes32 r,\n        bytes32 s\n    ) public virtual nonReentrant whenNotPaused {\n        require(deadline > block.timestamp, 'deadline reached');\n        bytes32 hash = keccak256(abi.encode(itemHashes.length, itemHashes, deadline));\n        address signer = ECDSA.recover(hash, v, r, s);\n        require(signers[signer], 'Input signature error');\n\n        for (uint256 i = 0; i < itemHashes.length; i++) {\n            bytes32 h = itemHashes[i];\n            if (inventoryStatus[h] == Market.InvStatus.NEW) {\n                inventoryStatus[h] = Market.InvStatus.CANCELLED;\n                emit EvCancel(h);\n            }\n        }\n    }\n\n    function run(Market.RunInput memory input) public payable virtual nonReentrant whenNotPaused {\n        require(input.shared.deadline > block.timestamp, 'input deadline reached');\n        require(msg.sender == input.shared.user, 'sender does not match');\n        //_verifyInputSignature(input);\n\n        uint256 amountEth = msg.value;\n        if (input.shared.amountToWeth > 0) {\n            uint256 amt = input.shared.amountToWeth;\n            weth.deposit{value: amt}();\n            SafeERC20Upgradeable.safeTransfer(weth, msg.sender, amt);\n            amountEth -= amt;\n        }\n        if (input.shared.amountToEth > 0) {\n            uint256 amt = input.shared.amountToEth;\n            SafeERC20Upgradeable.safeTransferFrom(weth, msg.sender, address(this), amt);\n            weth.withdraw(amt);\n            amountEth += amt;\n        }\n\n        for (uint256 i = 0; i < input.orders.length; i++) {\n            //_verifyOrderSignature(input.orders[i]);\n        }\n\n        for (uint256 i = 0; i < input.details.length; i++) {\n            Market.SettleDetail memory detail = input.details[i];\n            Market.Order memory order = input.orders[detail.orderIdx];\n            if (input.shared.canFail) {\n                try IX2Y2Run(address(this)).run1(order, input.shared, detail) returns (\n                    uint256 ethPayment\n                ) {\n                    amountEth -= ethPayment;\n                } catch Error(string memory _err) {\n                    emit EvFailure(i, bytes(_err));\n                } catch (bytes memory _err) {\n                    emit EvFailure(i, _err);\n                }\n            } else {\n                amountEth -= _run(order, input.shared, detail);\n            }\n        }\n        if (amountEth > 0) {\n            payable(msg.sender).transfer(amountEth);\n        }\n    }\n\n    function run1(\n        Market.Order memory order,\n        Market.SettleShared memory shared,\n        Market.SettleDetail memory detail\n    ) external virtual returns (uint256) {\n        require(msg.sender == address(this), 'unsafe call');\n\n        return _run(order, shared, detail);\n    }\n\n    function _hashItem(Market.Order memory order, Market.OrderItem memory item)\n        internal\n        view\n        virtual\n        returns (bytes32)\n    {\n        return\n            keccak256(\n                abi.encode(\n                    order.salt,\n                    order.user,\n                    order.network,\n                    order.intent,\n                    order.delegateType,\n                    order.deadline,\n                    order.currency,\n                    order.dataMask,\n                    item\n                )\n            );\n    }\n\n    function _emitInventory(\n        bytes32 itemHash,\n        Market.Order memory order,\n        Market.OrderItem memory item,\n        Market.SettleShared memory shared,\n        Market.SettleDetail memory detail\n    ) internal virtual {\n        emit EvInventory(\n            itemHash,\n            order.user,\n            shared.user,\n            order.salt,\n            shared.salt,\n            order.intent,\n            order.delegateType,\n            order.deadline,\n            order.currency,\n            order.dataMask,\n            item,\n            detail\n        );\n    }\n\n    function _run(\n        Market.Order memory order,\n        Market.SettleShared memory shared,\n        Market.SettleDetail memory detail\n    ) internal virtual returns (uint256) {\n        uint256 nativeAmount = 0;\n\n        Market.OrderItem memory item = order.items[detail.itemIdx];\n        bytes32 itemHash = _hashItem(order, item);\n\n        {\n            require(itemHash == detail.itemHash, 'item hash does not match');\n            require(order.network == block.chainid, 'wrong network');\n            require(\n                address(detail.executionDelegate) != address(0) &&\n                    delegates[address(detail.executionDelegate)],\n                'unknown delegate'\n            );\n        }\n\n        bytes memory data = item.data;\n        {\n            if (order.dataMask.length > 0 && detail.dataReplacement.length > 0) {\n                _arrayReplace(data, detail.dataReplacement, order.dataMask);\n            }\n        }\n\n        if (detail.op == Market.Op.COMPLETE_SELL_OFFER) {\n            require(inventoryStatus[itemHash] == Market.InvStatus.NEW, 'order already exists');\n            require(order.intent == Market.INTENT_SELL, 'intent != sell');\n            _assertDelegation(order, detail);\n            require(order.deadline > block.timestamp, 'deadline reached');\n            require(detail.price >= item.price, 'underpaid');\n\n            nativeAmount = _takePayment(itemHash, order.currency, shared.user, detail.price);\n            require(\n                detail.executionDelegate.executeSell(order.user, shared.user, data),\n                'delegation error'\n            );\n\n            _distributeFeeAndProfit(\n                itemHash,\n                order.user,\n                order.currency,\n                detail,\n                detail.price,\n                detail.price\n            );\n            inventoryStatus[itemHash] = Market.InvStatus.COMPLETE;\n        } else if (detail.op == Market.Op.COMPLETE_BUY_OFFER) {\n            require(inventoryStatus[itemHash] == Market.InvStatus.NEW, 'order already exists');\n            require(order.intent == Market.INTENT_BUY, 'intent != buy');\n            _assertDelegation(order, detail);\n            require(order.deadline > block.timestamp, 'deadline reached');\n            require(item.price == detail.price, 'price not match');\n\n            require(!_isNative(order.currency), 'native token not supported');\n\n            nativeAmount = _takePayment(itemHash, order.currency, order.user, detail.price);\n            require(\n                detail.executionDelegate.executeBuy(shared.user, order.user, data),\n                'delegation error'\n            );\n\n            _distributeFeeAndProfit(\n                itemHash,\n                shared.user,\n                order.currency,\n                detail,\n                detail.price,\n                detail.price\n            );\n            inventoryStatus[itemHash] = Market.InvStatus.COMPLETE;\n        } else if (detail.op == Market.Op.CANCEL_OFFER) {\n            require(inventoryStatus[itemHash] == Market.InvStatus.NEW, 'unable to cancel');\n            require(order.deadline > block.timestamp, 'deadline reached');\n            inventoryStatus[itemHash] = Market.InvStatus.CANCELLED;\n            emit EvCancel(itemHash);\n        } else if (detail.op == Market.Op.BID) {\n            require(order.intent == Market.INTENT_AUCTION, 'intent != auction');\n            _assertDelegation(order, detail);\n            bool firstBid = false;\n            if (ongoingAuctions[itemHash].bidder == address(0)) {\n                require(inventoryStatus[itemHash] == Market.InvStatus.NEW, 'order already exists');\n                require(order.deadline > block.timestamp, 'auction ended');\n                require(detail.price >= item.price, 'underpaid');\n\n                firstBid = true;\n                ongoingAuctions[itemHash] = Market.OngoingAuction({\n                    price: detail.price,\n                    netPrice: detail.price,\n                    bidder: shared.user,\n                    endAt: order.deadline\n                });\n                inventoryStatus[itemHash] = Market.InvStatus.AUCTION;\n\n                require(\n                    detail.executionDelegate.executeBid(order.user, address(0), shared.user, data),\n                    'delegation error'\n                );\n            }\n\n            Market.OngoingAuction storage auc = ongoingAuctions[itemHash];\n            require(auc.endAt > block.timestamp, 'auction ended');\n\n            nativeAmount = _takePayment(itemHash, order.currency, shared.user, detail.price);\n\n            if (!firstBid) {\n                require(\n                    inventoryStatus[itemHash] == Market.InvStatus.AUCTION,\n                    'order is not auction'\n                );\n                require(\n                    detail.price - auc.price >= (auc.price * detail.aucMinIncrementPct) / RATE_BASE,\n                    'underbid'\n                );\n\n                uint256 bidRefund = auc.netPrice;\n                uint256 incentive = (detail.price * detail.bidIncentivePct) / RATE_BASE;\n                if (bidRefund + incentive > 0) {\n                    _transferTo(order.currency, auc.bidder, bidRefund + incentive);\n                    emit EvAuctionRefund(\n                        itemHash,\n                        address(order.currency),\n                        auc.bidder,\n                        bidRefund,\n                        incentive\n                    );\n                }\n\n                require(\n                    detail.executionDelegate.executeBid(order.user, auc.bidder, shared.user, data),\n                    'delegation error'\n                );\n\n                auc.price = detail.price;\n                auc.netPrice = detail.price - incentive;\n                auc.bidder = shared.user;\n            }\n\n            if (block.timestamp + detail.aucIncDurationSecs > auc.endAt) {\n                auc.endAt += detail.aucIncDurationSecs;\n            }\n        } else if (\n            detail.op == Market.Op.REFUND_AUCTION ||\n            detail.op == Market.Op.REFUND_AUCTION_STUCK_ITEM\n        ) {\n            require(\n                inventoryStatus[itemHash] == Market.InvStatus.AUCTION,\n                'cannot cancel non-auction order'\n            );\n            Market.OngoingAuction storage auc = ongoingAuctions[itemHash];\n\n            if (auc.netPrice > 0) {\n                _transferTo(order.currency, auc.bidder, auc.netPrice);\n                emit EvAuctionRefund(\n                    itemHash,\n                    address(order.currency),\n                    auc.bidder,\n                    auc.netPrice,\n                    0\n                );\n            }\n            _assertDelegation(order, detail);\n\n            if (detail.op == Market.Op.REFUND_AUCTION) {\n                require(\n                    detail.executionDelegate.executeAuctionRefund(order.user, auc.bidder, data),\n                    'delegation error'\n                );\n            }\n            delete ongoingAuctions[itemHash];\n            inventoryStatus[itemHash] = Market.InvStatus.REFUNDED;\n        } else if (detail.op == Market.Op.COMPLETE_AUCTION) {\n            require(\n                inventoryStatus[itemHash] == Market.InvStatus.AUCTION,\n                'cannot complete non-auction order'\n            );\n            _assertDelegation(order, detail);\n            Market.OngoingAuction storage auc = ongoingAuctions[itemHash];\n            require(block.timestamp >= auc.endAt, 'auction not finished yet');\n\n            require(\n                detail.executionDelegate.executeAuctionComplete(order.user, auc.bidder, data),\n                'delegation error'\n            );\n            _distributeFeeAndProfit(\n                itemHash,\n                order.user,\n                order.currency,\n                detail,\n                auc.price,\n                auc.netPrice\n            );\n\n            inventoryStatus[itemHash] = Market.InvStatus.COMPLETE;\n            delete ongoingAuctions[itemHash];\n        } else {\n            revert('unknown op');\n        }\n\n        _emitInventory(itemHash, order, item, shared, detail);\n        return nativeAmount;\n    }\n\n    function _assertDelegation(Market.Order memory order, Market.SettleDetail memory detail)\n        internal\n        view\n        virtual\n    {\n        require(\n            detail.executionDelegate.delegateType() == order.delegateType,\n            'delegation type error'\n        );\n    }\n\n    // modifies `src`\n    function _arrayReplace(\n        bytes memory src,\n        bytes memory replacement,\n        bytes memory mask\n    ) internal view virtual {\n        require(src.length == replacement.length);\n        require(src.length == mask.length);\n\n        for (uint256 i = 0; i < src.length; i++) {\n            if (mask[i] != 0) {\n                src[i] = replacement[i];\n            }\n        }\n    }\n\n    function _verifyInputSignature(Market.RunInput memory input) internal view virtual {\n        bytes32 hash = keccak256(abi.encode(input.shared, input.details.length, input.details));\n        address signer = ECDSA.recover(hash, input.v, input.r, input.s);\n        require(signers[signer], 'Input signature error');\n    }\n\n    function _verifyOrderSignature(Market.Order memory order) internal view virtual {\n        address orderSigner;\n\n        if (order.signVersion == Market.SIGN_V1) {\n            bytes32 orderHash = keccak256(\n                abi.encode(\n                    order.salt,\n                    order.user,\n                    order.network,\n                    order.intent,\n                    order.delegateType,\n                    order.deadline,\n                    order.currency,\n                    order.dataMask,\n                    order.items.length,\n                    order.items\n                )\n            );\n            orderSigner = ECDSA.recover(\n                ECDSA.toEthSignedMessageHash(orderHash),\n                order.v,\n                order.r,\n                order.s\n            );\n        } else {\n            revert('unknown signature version');\n        }\n\n        require(orderSigner == order.user, 'Order signature does not match');\n    }\n\n    function _isNative(IERC20Upgradeable currency) internal view virtual returns (bool) {\n        return address(currency) == address(0);\n    }\n\n    function _takePayment(\n        bytes32 itemHash,\n        IERC20Upgradeable currency,\n        address from,\n        uint256 amount\n    ) internal virtual returns (uint256) {\n        if (amount > 0) {\n            if (_isNative(currency)) {\n                return amount;\n            } else {\n                currency.safeTransferFrom(from, address(this), amount);\n            }\n        }\n        return 0;\n    }\n\n    function _transferTo(\n        IERC20Upgradeable currency,\n        address to,\n        uint256 amount\n    ) internal virtual {\n        if (amount > 0) {\n            if (_isNative(currency)) {\n                AddressUpgradeable.sendValue(payable(to), amount);\n            } else {\n                currency.safeTransfer(to, amount);\n            }\n        }\n    }\n\n    function _distributeFeeAndProfit(\n        bytes32 itemHash,\n        address seller,\n        IERC20Upgradeable currency,\n        Market.SettleDetail memory sd,\n        uint256 price,\n        uint256 netPrice\n    ) internal virtual {\n        require(price >= netPrice, 'price error');\n\n        uint256 payment = netPrice;\n        uint256 totalFeePct;\n\n        for (uint256 i = 0; i < sd.fees.length; i++) {\n            Market.Fee memory fee = sd.fees[i];\n            totalFeePct += fee.percentage;\n            uint256 amount = (price * fee.percentage) / RATE_BASE;\n            payment -= amount;\n            _transferTo(currency, fee.to, amount);\n        }\n\n        require(feeCapPct >= totalFeePct, 'total fee cap exceeded');\n\n        _transferTo(currency, seller, payment);\n        emit EvProfit(itemHash, address(currency), seller, payment);\n    }\n}",
  "sourcePath": "/Users/ds/Documents/rarible/scripts/contracts/x2y2/X2Y2_r1.sol",
  "compiler": {
    "name": "solc",
    "version": "0.8.11+commit.d7f03943.Emscripten.clang"
  },
  "schemaVersion": "3.4.3",
  "updatedAt": "2022-07-23T08:47:52.595Z",
  "devdoc": {
    "kind": "dev",
    "methods": {
      "owner()": {
        "details": "Returns the address of the current owner."
      },
      "paused()": {
        "details": "Returns true if the contract is paused, and false otherwise."
      },
      "renounceOwnership()": {
        "details": "Leaves the contract without owner. It will not be possible to call `onlyOwner` functions anymore. Can only be called by the current owner. NOTE: Renouncing ownership will leave the contract without an owner, thereby removing any functionality that is only available to the owner."
      },
      "transferOwnership(address)": {
        "details": "Transfers ownership of the contract to a new account (`newOwner`). Can only be called by the current owner."
      }
    },
    "version": 1
  },
  "userdoc": {
    "kind": "user",
    "methods": {},
    "version": 1
  }
}