{
  "contractName": "TestERC1271",
  "abi": [
    {
      "inputs": [],
      "name": "ERC1271_INTERFACE_ID",
      "outputs": [
        {
          "internalType": "bytes4",
          "name": "",
          "type": "bytes4"
        }
      ],
      "stateMutability": "view",
      "type": "function"
    },
    {
      "inputs": [],
      "name": "ERC1271_RETURN_INVALID_SIGNATURE",
      "outputs": [
        {
          "internalType": "bytes4",
          "name": "",
          "type": "bytes4"
        }
      ],
      "stateMutability": "view",
      "type": "function"
    },
    {
      "inputs": [],
      "name": "ERC1271_RETURN_VALID_SIGNATURE",
      "outputs": [
        {
          "internalType": "bytes4",
          "name": "",
          "type": "bytes4"
        }
      ],
      "stateMutability": "view",
      "type": "function"
    },
    {
      "inputs": [
        {
          "internalType": "bool",
          "name": "value",
          "type": "bool"
        }
      ],
      "name": "setReturnSuccessfulValidSignature",
      "outputs": [],
      "stateMutability": "nonpayable",
      "type": "function"
    },
    {
      "inputs": [
        {
          "internalType": "bytes32",
          "name": "_hash",
          "type": "bytes32"
        },
        {
          "internalType": "bytes",
          "name": "_signature",
          "type": "bytes"
        }
      ],
      "name": "isValidSignature",
      "outputs": [
        {
          "internalType": "bytes4",
          "name": "",
          "type": "bytes4"
        }
      ],
      "stateMutability": "view",
      "type": "function"
    }
  ],
  "bytecode": "0x608060405234801561001057600080fd5b506101e5806100206000396000f3fe608060405234801561001057600080fd5b50600436106100575760003560e01c806311a5e4091461005c5780631626ba7e146100815780631ce301811461012e5780639890cdca14610136578063a85a89f81461013e575b600080fd5b61006461015f565b604080516001600160e01b03199092168252519081900360200190f35b6100646004803603604081101561009757600080fd5b813591908101906040810160208201356401000000008111156100b957600080fd5b8201836020820111156100cb57600080fd5b803590602001918460018302840111640100000000831117156100ed57600080fd5b91908080601f01602080910402602001604051908101604052809392919081815260200183838082843760009201919091525092955061016a945050505050565b61006461018c565b610064610191565b61015d6004803603602081101561015457600080fd5b5035151561019c565b005b63fb855dc960e01b81565b6000805460ff1661017c576000610185565b630b135d3f60e11b5b9392505050565b600081565b630b135d3f60e11b81565b6000805460ff191691151591909117905556fea2646970667358221220d06d760fb50c084593990d753afd93a491519fd7d017a4485b58ca424e2ad9ab64736f6c63430007060033",
  "immutableReferences": {},
  "source": "// SPDX-License-Identifier: MIT\n\npragma solidity >=0.6.2 <0.8.0;\n\nimport \"./ERC1271.sol\";\n\ncontract TestERC1271 is ERC1271 {\n\n    bool private returnSuccessfulValidSignature;\n\n    function setReturnSuccessfulValidSignature(bool value) public {\n        returnSuccessfulValidSignature = value;\n    }\n\n    function isValidSignature(bytes32 _hash, bytes memory _signature) public override view returns (bytes4) {\n        return returnSuccessfulValidSignature ? ERC1271_RETURN_VALID_SIGNATURE : ERC1271_RETURN_INVALID_SIGNATURE;\n    }\n}",
  "sourcePath": "/Users/ds/Documents/rarible/protocol-contracts/tokens-test/contracts/TestERC1271.sol",
  "compiler": {
    "name": "solc",
    "version": "0.7.6+commit.7338295f.Emscripten.clang"
  },
  "schemaVersion": "3.4.3",
  "updatedAt": "2021-11-12T07:09:22.179Z",
  "devdoc": {
    "kind": "dev",
    "methods": {
      "isValidSignature(bytes32,bytes)": {
        "details": "Function must be implemented by deriving contract",
        "params": {
          "_hash": "Arbitrary length data signed on the behalf of address(this)",
          "_signature": "Signature byte array associated with _data"
        },
        "returns": {
          "_0": "A bytes4 magic value 0x1626ba7e if the signature check passes, 0x00000000 if not MUST NOT modify state (using STATICCALL for solc < 0.5, view modifier for solc > 0.5) MUST allow external calls"
        }
      }
    },
    "version": 1
  },
  "userdoc": {
    "kind": "user",
    "methods": {},
    "version": 1
  }
}