{
  "contractName": "TestChainId",
  "abi": [
    {
      "inputs": [],
      "name": "getChainID",
      "outputs": [
        {
          "internalType": "uint256",
          "name": "id",
          "type": "uint256"
        }
      ],
      "stateMutability": "pure",
      "type": "function"
    }
  ],
  "bytecode": "0x6080604052348015600f57600080fd5b50607f8061001e6000396000f3fe6080604052348015600f57600080fd5b506004361060285760003560e01c8063564b81ef14602d575b600080fd5b60336045565b60408051918252519081900360200190f35b469056fea2646970667358221220d392edc776f58e280f115806b21de8292e6673db7214880f24c7476c4669dac464736f6c63430007060033",
  "immutableReferences": {},
  "source": "// SPDX-License-Identifier: MIT\r\n\r\npragma solidity ^0.7.0;\r\n\r\ncontract TestChainId {\r\n    function getChainID() public pure returns (uint256 id) {\r\n        assembly {\r\n            id := chainid()\r\n        }\r\n    }\r\n}\r\n",
  "sourcePath": "C:\\rarible\\protocol-contracts\\tokens-test\\contracts\\TestChainId.sol",
  "compiler": {
    "name": "solc",
    "version": "0.7.6+commit.7338295f.Emscripten.clang"
  },
  "schemaVersion": "3.4.10",
  "updatedAt": "2022-09-26T07:45:25.828Z",
  "devdoc": {
    "kind": "dev",
    "methods": {},
    "version": 1
  },
  "userdoc": {
    "kind": "user",
    "methods": {},
    "version": 1
  }
}