{
  "contractName": "TestERC1271",
  "abi": [
    {
      "inputs": [],
      "name": "ERC1271_INTERFACE_ID",
      "outputs": [
        {
          "internalType": "bytes4",
          "name": "",
          "type": "bytes4"
        }
      ],
      "stateMutability": "view",
      "type": "function"
    },
    {
      "inputs": [],
      "name": "ERC1271_RETURN_INVALID_SIGNATURE",
      "outputs": [
        {
          "internalType": "bytes4",
          "name": "",
          "type": "bytes4"
        }
      ],
      "stateMutability": "view",
      "type": "function"
    },
    {
      "inputs": [],
      "name": "ERC1271_RETURN_VALID_SIGNATURE",
      "outputs": [
        {
          "internalType": "bytes4",
          "name": "",
          "type": "bytes4"
        }
      ],
      "stateMutability": "view",
      "type": "function"
    },
    {
      "inputs": [
        {
          "internalType": "bool",
          "name": "value",
          "type": "bool"
        }
      ],
      "name": "setReturnSuccessfulValidSignature",
      "outputs": [],
      "stateMutability": "nonpayable",
      "type": "function"
    },
    {
      "inputs": [
        {
          "internalType": "bytes32",
          "name": "_hash",
          "type": "bytes32"
        },
        {
          "internalType": "bytes",
          "name": "_signature",
          "type": "bytes"
        }
      ],
      "name": "isValidSignature",
      "outputs": [
        {
          "internalType": "bytes4",
          "name": "",
          "type": "bytes4"
        }
      ],
      "stateMutability": "view",
      "type": "function"
    }
  ],
  "bytecode": "0x608060405234801561001057600080fd5b506102db806100206000396000f3fe608060405234801561001057600080fd5b50600436106100575760003560e01c806311a5e4091461005c5780631626ba7e146100995780631ce30181146101915780639890cdca146101ce578063a85a89f81461020b575b600080fd5b61006461023b565b60405180827bffffffffffffffffffffffffffffffffffffffffffffffffffffffff1916815260200191505060405180910390f35b61015c600480360360408110156100af57600080fd5b8101908080359060200190929190803590602001906401000000008111156100d657600080fd5b8201836020820111156100e857600080fd5b8035906020019184600183028401116401000000008311171561010a57600080fd5b91908080601f016020809104026020016040519081016040528093929190818152602001838380828437600081840152601f19601f820116905080830192505050505050509192919290505050610246565b60405180827bffffffffffffffffffffffffffffffffffffffffffffffffffffffff1916815260200191505060405180910390f35b610199610276565b60405180827bffffffffffffffffffffffffffffffffffffffffffffffffffffffff1916815260200191505060405180910390f35b6101d661027e565b60405180827bffffffffffffffffffffffffffffffffffffffffffffffffffffffff1916815260200191505060405180910390f35b6102396004803603602081101561022157600080fd5b81019080803515159060200190929190505050610289565b005b63fb855dc960e01b81565b60008060009054906101000a900460ff1661026557600060e01b61026e565b631626ba7e60e01b5b905092915050565b600060e01b81565b631626ba7e60e01b81565b806000806101000a81548160ff0219169083151502179055505056fea264697066735822122042b07029b7a1f3062d62f3340aea67ba4152306106e84f9322f8258d9fba0cde64736f6c63430007060033",
  "immutableReferences": {},
  "source": "// SPDX-License-Identifier: MIT\n\npragma solidity >=0.6.2 <0.8.0;\n\nimport \"./ERC1271.sol\";\n\ncontract TestERC1271 is ERC1271 {\n\n    bool private returnSuccessfulValidSignature;\n\n    function setReturnSuccessfulValidSignature(bool value) public {\n        returnSuccessfulValidSignature = value;\n    }\n\n    function isValidSignature(bytes32 _hash, bytes memory _signature) public override view returns (bytes4) {\n        return returnSuccessfulValidSignature ? ERC1271_RETURN_VALID_SIGNATURE : ERC1271_RETURN_INVALID_SIGNATURE;\n    }\n}",
  "sourcePath": "/home/quadro/Projects/rarible/protocol-contracts/tokens-test/contracts/TestERC1271.sol",
  "compiler": {
    "name": "solc",
    "version": "0.7.6+commit.7338295f.Emscripten.clang"
  },
  "schemaVersion": "3.4.0",
  "updatedAt": "2021-05-09T05:20:40.152Z",
  "devdoc": {
    "kind": "dev",
    "methods": {
      "isValidSignature(bytes32,bytes)": {
        "details": "Function must be implemented by deriving contract",
        "params": {
          "_hash": "Arbitrary length data signed on the behalf of address(this)",
          "_signature": "Signature byte array associated with _data"
        },
        "returns": {
          "_0": "A bytes4 magic value 0x1626ba7e if the signature check passes, 0x00000000 if not MUST NOT modify state (using STATICCALL for solc < 0.5, view modifier for solc > 0.5) MUST allow external calls"
        }
      }
    },
    "version": 1
  },
  "userdoc": {
    "kind": "user",
    "methods": {},
    "version": 1
  }
}