{
  "contractName": "TestERC721",
  "abi": [
    {
      "inputs": [
        {
          "internalType": "string",
          "name": "_name",
          "type": "string"
        },
        {
          "internalType": "string",
          "name": "_symbol",
          "type": "string"
        }
      ],
      "stateMutability": "nonpayable",
      "type": "constructor"
    },
    {
      "anonymous": false,
      "inputs": [
        {
          "indexed": true,
          "internalType": "address",
          "name": "owner",
          "type": "address"
        },
        {
          "indexed": true,
          "internalType": "address",
          "name": "approved",
          "type": "address"
        },
        {
          "indexed": true,
          "internalType": "uint256",
          "name": "tokenId",
          "type": "uint256"
        }
      ],
      "name": "Approval",
      "type": "event"
    },
    {
      "anonymous": false,
      "inputs": [
        {
          "indexed": true,
          "internalType": "address",
          "name": "owner",
          "type": "address"
        },
        {
          "indexed": true,
          "internalType": "address",
          "name": "operator",
          "type": "address"
        },
        {
          "indexed": false,
          "internalType": "bool",
          "name": "approved",
          "type": "bool"
        }
      ],
      "name": "ApprovalForAll",
      "type": "event"
    },
    {
      "anonymous": false,
      "inputs": [
        {
          "indexed": true,
          "internalType": "uint256",
          "name": "index",
          "type": "uint256"
        },
        {
          "indexed": false,
          "internalType": "string",
          "name": "revealedURI",
          "type": "string"
        }
      ],
      "name": "TokenURIRevealed",
      "type": "event"
    },
    {
      "anonymous": false,
      "inputs": [
        {
          "indexed": true,
          "internalType": "address",
          "name": "from",
          "type": "address"
        },
        {
          "indexed": true,
          "internalType": "address",
          "name": "to",
          "type": "address"
        },
        {
          "indexed": true,
          "internalType": "uint256",
          "name": "tokenId",
          "type": "uint256"
        }
      ],
      "name": "Transfer",
      "type": "event"
    },
    {
      "inputs": [
        {
          "internalType": "address",
          "name": "to",
          "type": "address"
        },
        {
          "internalType": "uint256",
          "name": "tokenId",
          "type": "uint256"
        }
      ],
      "name": "approve",
      "outputs": [],
      "stateMutability": "nonpayable",
      "type": "function"
    },
    {
      "inputs": [
        {
          "internalType": "address",
          "name": "owner",
          "type": "address"
        }
      ],
      "name": "balanceOf",
      "outputs": [
        {
          "internalType": "uint256",
          "name": "",
          "type": "uint256"
        }
      ],
      "stateMutability": "view",
      "type": "function"
    },
    {
      "inputs": [],
      "name": "baseURI",
      "outputs": [
        {
          "internalType": "string",
          "name": "",
          "type": "string"
        }
      ],
      "stateMutability": "view",
      "type": "function"
    },
    {
      "inputs": [
        {
          "internalType": "uint256",
          "name": "tokenId",
          "type": "uint256"
        }
      ],
      "name": "getApproved",
      "outputs": [
        {
          "internalType": "address",
          "name": "",
          "type": "address"
        }
      ],
      "stateMutability": "view",
      "type": "function"
    },
    {
      "inputs": [
        {
          "internalType": "address",
          "name": "owner",
          "type": "address"
        },
        {
          "internalType": "address",
          "name": "operator",
          "type": "address"
        }
      ],
      "name": "isApprovedForAll",
      "outputs": [
        {
          "internalType": "bool",
          "name": "",
          "type": "bool"
        }
      ],
      "stateMutability": "view",
      "type": "function"
    },
    {
      "inputs": [],
      "name": "name",
      "outputs": [
        {
          "internalType": "string",
          "name": "",
          "type": "string"
        }
      ],
      "stateMutability": "view",
      "type": "function"
    },
    {
      "inputs": [
        {
          "internalType": "uint256",
          "name": "tokenId",
          "type": "uint256"
        }
      ],
      "name": "ownerOf",
      "outputs": [
        {
          "internalType": "address",
          "name": "",
          "type": "address"
        }
      ],
      "stateMutability": "view",
      "type": "function"
    },
    {
      "inputs": [
        {
          "internalType": "address",
          "name": "from",
          "type": "address"
        },
        {
          "internalType": "address",
          "name": "to",
          "type": "address"
        },
        {
          "internalType": "uint256",
          "name": "tokenId",
          "type": "uint256"
        }
      ],
      "name": "safeTransferFrom",
      "outputs": [],
      "stateMutability": "nonpayable",
      "type": "function"
    },
    {
      "inputs": [
        {
          "internalType": "address",
          "name": "from",
          "type": "address"
        },
        {
          "internalType": "address",
          "name": "to",
          "type": "address"
        },
        {
          "internalType": "uint256",
          "name": "tokenId",
          "type": "uint256"
        },
        {
          "internalType": "bytes",
          "name": "_data",
          "type": "bytes"
        }
      ],
      "name": "safeTransferFrom",
      "outputs": [],
      "stateMutability": "nonpayable",
      "type": "function"
    },
    {
      "inputs": [
        {
          "internalType": "address",
          "name": "operator",
          "type": "address"
        },
        {
          "internalType": "bool",
          "name": "approved",
          "type": "bool"
        }
      ],
      "name": "setApprovalForAll",
      "outputs": [],
      "stateMutability": "nonpayable",
      "type": "function"
    },
    {
      "inputs": [
        {
          "internalType": "bytes4",
          "name": "interfaceId",
          "type": "bytes4"
        }
      ],
      "name": "supportsInterface",
      "outputs": [
        {
          "internalType": "bool",
          "name": "",
          "type": "bool"
        }
      ],
      "stateMutability": "view",
      "type": "function"
    },
    {
      "inputs": [],
      "name": "symbol",
      "outputs": [
        {
          "internalType": "string",
          "name": "",
          "type": "string"
        }
      ],
      "stateMutability": "view",
      "type": "function"
    },
    {
      "inputs": [
        {
          "internalType": "uint256",
          "name": "index",
          "type": "uint256"
        }
      ],
      "name": "tokenByIndex",
      "outputs": [
        {
          "internalType": "uint256",
          "name": "",
          "type": "uint256"
        }
      ],
      "stateMutability": "view",
      "type": "function"
    },
    {
      "inputs": [
        {
          "internalType": "address",
          "name": "owner",
          "type": "address"
        },
        {
          "internalType": "uint256",
          "name": "index",
          "type": "uint256"
        }
      ],
      "name": "tokenOfOwnerByIndex",
      "outputs": [
        {
          "internalType": "uint256",
          "name": "",
          "type": "uint256"
        }
      ],
      "stateMutability": "view",
      "type": "function"
    },
    {
      "inputs": [
        {
          "internalType": "uint256",
          "name": "tokenId",
          "type": "uint256"
        }
      ],
      "name": "tokenURI",
      "outputs": [
        {
          "internalType": "string",
          "name": "",
          "type": "string"
        }
      ],
      "stateMutability": "view",
      "type": "function"
    },
    {
      "inputs": [],
      "name": "totalSupply",
      "outputs": [
        {
          "internalType": "uint256",
          "name": "",
          "type": "uint256"
        }
      ],
      "stateMutability": "view",
      "type": "function"
    },
    {
      "inputs": [
        {
          "internalType": "address",
          "name": "from",
          "type": "address"
        },
        {
          "internalType": "address",
          "name": "to",
          "type": "address"
        },
        {
          "internalType": "uint256",
          "name": "tokenId",
          "type": "uint256"
        }
      ],
      "name": "transferFrom",
      "outputs": [],
      "stateMutability": "nonpayable",
      "type": "function"
    },
    {
      "inputs": [
        {
          "internalType": "address",
          "name": "to",
          "type": "address"
        },
        {
          "internalType": "uint256",
          "name": "tokenId",
          "type": "uint256"
        }
      ],
      "name": "mint",
      "outputs": [],
      "stateMutability": "nonpayable",
      "type": "function"
    },
    {
      "inputs": [
        {
          "internalType": "string",
          "name": "uri",
          "type": "string"
        }
      ],
      "name": "setBaseURI",
      "outputs": [],
      "stateMutability": "nonpayable",
      "type": "function"
    },
    {
      "inputs": [
        {
          "internalType": "uint256",
          "name": "_index",
          "type": "uint256"
        }
      ],
      "name": "reveal",
      "outputs": [],
      "stateMutability": "nonpayable",
      "type": "function"
    },
    {
      "inputs": [
        {
          "internalType": "uint256",
          "name": "_index",
          "type": "uint256"
        }
      ],
      "name": "getBatchIdAtIndex",
      "outputs": [
        {
          "internalType": "uint256",
          "name": "",
          "type": "uint256"
        }
      ],
      "stateMutability": "view",
      "type": "function"
    }
  ],
  "bytecode": "0x60806040523480156200001157600080fd5b506040516200227f3803806200227f833981810160405260408110156200003757600080fd5b81019080805160405193929190846401000000008211156200005857600080fd5b9083019060208201858111156200006e57600080fd5b82516401000000008111828201881017156200008957600080fd5b82525081516020918201929091019080838360005b83811015620000b85781810151838201526020016200009e565b50505050905090810190601f168015620000e65780820380516001836020036101000a031916815260200191505b50604052602001805160405193929190846401000000008211156200010a57600080fd5b9083019060208201858111156200012057600080fd5b82516401000000008111828201881017156200013b57600080fd5b82525081516020918201929091019080838360005b838110156200016a57818101518382015260200162000150565b50505050905090810190601f168015620001985780820380516001836020036101000a031916815260200191505b50604052505050620001b18282620001b960201b60201c565b505062000620565b600054610100900460ff1680620001d55750620001d562000285565b80620001e4575060005460ff16155b620002215760405162461bcd60e51b815260040180806020018281038252602e81526020018062002251602e913960400191505060405180910390fd5b600054610100900460ff161580156200024d576000805460ff1961ff0019909116610100171660011790555b62000257620002a3565b620002616200034d565b6200026d8383620003f3565b801562000280576000805461ff00191690555b505050565b60006200029d30620004e960201b62000e111760201c565b15905090565b600054610100900460ff1680620002bf5750620002bf62000285565b80620002ce575060005460ff16155b6200030b5760405162461bcd60e51b815260040180806020018281038252602e81526020018062002251602e913960400191505060405180910390fd5b600054610100900460ff1615801562000337576000805460ff1961ff0019909116610100171660011790555b80156200034a576000805461ff00191690555b50565b600054610100900460ff16806200036957506200036962000285565b8062000378575060005460ff16155b620003b55760405162461bcd60e51b815260040180806020018281038252602e81526020018062002251602e913960400191505060405180910390fd5b600054610100900460ff16158015620003e1576000805460ff1961ff0019909116610100171660011790555b620003376301ffc9a760e01b620004ef565b600054610100900460ff16806200040f57506200040f62000285565b806200041e575060005460ff16155b6200045b5760405162461bcd60e51b815260040180806020018281038252602e81526020018062002251602e913960400191505060405180910390fd5b600054610100900460ff1615801562000487576000805460ff1961ff0019909116610100171660011790555b82516200049c90606a90602086019062000574565b508151620004b290606b90602085019062000574565b50620004c56380ac58cd60e01b620004ef565b620004d7635b5e139f60e01b620004ef565b6200026d63780e9d6360e01b620004ef565b3b151590565b6001600160e01b031980821614156200054f576040805162461bcd60e51b815260206004820152601c60248201527f4552433136353a20696e76616c696420696e7465726661636520696400000000604482015290519081900360640190fd5b6001600160e01b0319166000908152603360205260409020805460ff19166001179055565b828054600181600116156101000203166002900490600052602060002090601f016020900481019282620005ac5760008555620005f7565b82601f10620005c757805160ff1916838001178555620005f7565b82800160010185558215620005f7579182015b82811115620005f7578251825591602001919060010190620005da565b506200060592915062000609565b5090565b5b808211156200060557600081556001016200060a565b611c2180620006306000396000f3fe608060405234801561001057600080fd5b50600436106101375760003560e01c80634f6ccce7116100b857806395d89b411161007c57806395d89b411461042e578063a22cb46514610436578063b88d4fde14610464578063c2ca0ac51461052a578063c87b56dd14610547578063e985e9c51461056457610137565b80634f6ccce71461035657806355f804b3146103735780636352211e146103e35780636c0360eb1461040057806370a082311461040857610137565b806323b872dd116100ff57806323b872dd146102755780632419f51b146102ab5780632f745c59146102c857806340c10f19146102f457806342842e0e1461032057610137565b806301ffc9a71461013c57806306fdde0314610177578063081812fc146101f4578063095ea7b31461022d57806318160ddd1461025b575b600080fd5b6101636004803603602081101561015257600080fd5b50356001600160e01b031916610592565b604080519115158252519081900360200190f35b61017f6105b5565b6040805160208082528351818301528351919283929083019185019080838360005b838110156101b95781810151838201526020016101a1565b50505050905090810190601f1680156101e65780820380516001836020036101000a031916815260200191505b509250505060405180910390f35b6102116004803603602081101561020a57600080fd5b503561064b565b604080516001600160a01b039092168252519081900360200190f35b6102596004803603604081101561024357600080fd5b506001600160a01b0381351690602001356106ad565b005b610263610788565b60408051918252519081900360200190f35b6102596004803603606081101561028b57600080fd5b506001600160a01b03813581169160208101359091169060400135610799565b610263600480360360208110156102c157600080fd5b50356107f0565b610263600480360360408110156102de57600080fd5b506001600160a01b0381351690602001356107f6565b6102596004803603604081101561030a57600080fd5b506001600160a01b038135169060200135610821565b6102596004803603606081101561033657600080fd5b506001600160a01b0381358116916020810135909116906040013561082f565b6102636004803603602081101561036c57600080fd5b503561084a565b6102596004803603602081101561038957600080fd5b8101906020810181356401000000008111156103a457600080fd5b8201836020820111156103b657600080fd5b803590602001918460018302840111640100000000831117156103d857600080fd5b50909250905061082b565b610211600480360360208110156103f957600080fd5b5035610860565b61017f610888565b6102636004803603602081101561041e57600080fd5b50356001600160a01b03166108e9565b61017f610951565b6102596004803603604081101561044c57600080fd5b506001600160a01b03813516906020013515156109b2565b6102596004803603608081101561047a57600080fd5b6001600160a01b038235811692602081013590911691604082013591908101906080810160608201356401000000008111156104b557600080fd5b8201836020820111156104c757600080fd5b803590602001918460018302840111640100000000831117156104e957600080fd5b91908080601f016020809104026020016040519081016040528093929190818152602001838380828437600092019190915250929550610ab7945050505050565b6102596004803603602081101561054057600080fd5b5035610b15565b61017f6004803603602081101561055d57600080fd5b5035610b62565b6101636004803603604081101561057a57600080fd5b506001600160a01b0381358116916020013516610de3565b6001600160e01b0319811660009081526033602052604090205460ff165b919050565b606a8054604080516020601f60026000196101006001881615020190951694909404938401819004810282018101909252828152606093909290918301828280156106415780601f1061061657610100808354040283529160200191610641565b820191906000526020600020905b81548152906001019060200180831161062457829003601f168201915b5050505050905090565b600061065682610e17565b6106915760405162461bcd60e51b815260040180806020018281038252602c815260200180611b16602c913960400191505060405180910390fd5b506000908152606860205260409020546001600160a01b031690565b60006106b882610860565b9050806001600160a01b0316836001600160a01b0316141561070b5760405162461bcd60e51b8152600401808060200182810382526021815260200180611b9a6021913960400191505060405180910390fd5b806001600160a01b031661071d610e24565b6001600160a01b0316148061073e575061073e81610739610e24565b610de3565b6107795760405162461bcd60e51b8152600401808060200182810382526038815260200180611a696038913960400191505060405180910390fd5b6107838383610e28565b505050565b60006107946066610e96565b905090565b6107aa6107a4610e24565b82610ea1565b6107e55760405162461bcd60e51b8152600401808060200182810382526031815260200180611bbb6031913960400191505060405180910390fd5b610783838383610f45565b50600a90565b6001600160a01b03821660009081526065602052604081206108189083611091565b90505b92915050565b61082b828261109d565b5050565b61078383838360405180602001604052806000815250610ab7565b6000806108586066846111cb565b509392505050565b600061081b82604051806060016040528060298152602001611acb60299139606691906111e7565b606d8054604080516020601f60026000196101006001881615020190951694909404938401819004810282018101909252828152606093909290918301828280156106415780601f1061061657610100808354040283529160200191610641565b60006001600160a01b0382166109305760405162461bcd60e51b815260040180806020018281038252602a815260200180611aa1602a913960400191505060405180910390fd5b6001600160a01b038216600090815260656020526040902061081b90610e96565b606b8054604080516020601f60026000196101006001881615020190951694909404938401819004810282018101909252828152606093909290918301828280156106415780601f1061061657610100808354040283529160200191610641565b6109ba610e24565b6001600160a01b0316826001600160a01b03161415610a20576040805162461bcd60e51b815260206004820152601960248201527f4552433732313a20617070726f766520746f2063616c6c657200000000000000604482015290519081900360640190fd5b8060696000610a2d610e24565b6001600160a01b03908116825260208083019390935260409182016000908120918716808252919093529120805460ff191692151592909217909155610a71610e24565b6001600160a01b03167f17307eab39ab6107e8899845ad3d59bd9653f200f220920489ca2b5937696c318360405180821515815260200191505060405180910390a35050565b610ac8610ac2610e24565b83610ea1565b610b035760405162461bcd60e51b8152600401808060200182810382526031815260200180611bbb6031913960400191505060405180910390fd5b610b0f848484846111fe565b50505050565b604080516020808252600490820152631d195cdd60e21b81830152905182917f6df1d8db2a036436ffe0b2d1833f2c5f1e624818dfce2578c0faa4b83ef9998d919081900360600190a250565b6060610b6d82610e17565b610ba85760405162461bcd60e51b815260040180806020018281038252602f815260200180611b6b602f913960400191505060405180910390fd5b6000828152606c602090815260408083208054825160026001831615610100026000190190921691909104601f810185900485028201850190935282815292909190830182828015610c3b5780601f10610c1057610100808354040283529160200191610c3b565b820191906000526020600020905b815481529060010190602001808311610c1e57829003601f168201915b505050505090506000610c4c610888565b9050805160001415610c60575090506105b0565b815115610d215780826040516020018083805190602001908083835b60208310610c9b5780518252601f199092019160209182019101610c7c565b51815160209384036101000a600019018019909216911617905285519190930192850191508083835b60208310610ce35780518252601f199092019160209182019101610cc4565b6001836020036101000a03801982511681845116808217855250505050505090500192505050604051602081830303815290604052925050506105b0565b80610d2b85611250565b6040516020018083805190602001908083835b60208310610d5d5780518252601f199092019160209182019101610d3e565b51815160209384036101000a600019018019909216911617905285519190930192850191508083835b60208310610da55780518252601f199092019160209182019101610d86565b6001836020036101000a0380198251168184511680821785525050505050509050019250505060405160208183030381529060405292505050919050565b6001600160a01b03918216600090815260696020908152604080832093909416825291909152205460ff1690565b3b151590565b600061081b60668361132b565b3390565b600081815260686020526040902080546001600160a01b0319166001600160a01b0384169081179091558190610e5d82610860565b6001600160a01b03167f8c5be1e5ebec7d5bd14f71427d1e84f3dd0314c0f7b2291e5b200ac8c7c3b92560405160405180910390a45050565b600061081b82611337565b6000610eac82610e17565b610ee75760405162461bcd60e51b815260040180806020018281038252602c815260200180611a3d602c913960400191505060405180910390fd5b6000610ef283610860565b9050806001600160a01b0316846001600160a01b03161480610f2d5750836001600160a01b0316610f228461064b565b6001600160a01b0316145b80610f3d5750610f3d8185610de3565b949350505050565b826001600160a01b0316610f5882610860565b6001600160a01b031614610f9d5760405162461bcd60e51b8152600401808060200182810382526029815260200180611b426029913960400191505060405180910390fd5b6001600160a01b038216610fe25760405162461bcd60e51b8152600401808060200182810382526024815260200180611a196024913960400191505060405180910390fd5b610fed838383610783565b610ff8600082610e28565b6001600160a01b038316600090815260656020526040902061101a908261133b565b506001600160a01b038216600090815260656020526040902061103d9082611347565b5061104a60668284611353565b5080826001600160a01b0316846001600160a01b03167fddf252ad1be2c89b69c2b068fc378daa952ba7f163c4a11628f55a4df523b3ef60405160405180910390a4505050565b60006108188383611369565b6001600160a01b0382166110f8576040805162461bcd60e51b815260206004820181905260248201527f4552433732313a206d696e7420746f20746865207a65726f2061646472657373604482015290519081900360640190fd5b61110181610e17565b15611153576040805162461bcd60e51b815260206004820152601c60248201527f4552433732313a20746f6b656e20616c7265616479206d696e74656400000000604482015290519081900360640190fd5b61115f60008383610783565b6001600160a01b03821660009081526065602052604090206111819082611347565b5061118e60668284611353565b5060405181906001600160a01b038416906000907fddf252ad1be2c89b69c2b068fc378daa952ba7f163c4a11628f55a4df523b3ef908290a45050565b60008080806111da86866113cd565b9097909650945050505050565b60006111f4848484611448565b90505b9392505050565b611209848484610f45565b61121584848484611512565b610b0f5760405162461bcd60e51b81526004018080602001828103825260328152602001806119e76032913960400191505060405180910390fd5b60608161127557506040805180820190915260018152600360fc1b60208201526105b0565b8160005b811561128d57600101600a82049150611279565b60008167ffffffffffffffff811180156112a657600080fd5b506040519080825280601f01601f1916602001820160405280156112d1576020820181803683370190505b50859350905060001982015b831561132257600a840660300160f81b8282806001900393508151811061130057fe5b60200101906001600160f81b031916908160001a905350600a840493506112dd565b50949350505050565b6000610818838361167a565b5490565b60006108188383611692565b60006108188383611758565b60006111f484846001600160a01b0385166117a2565b815460009082106113ab5760405162461bcd60e51b81526004018080602001828103825260228152602001806119c56022913960400191505060405180910390fd5b8260000182815481106113ba57fe5b9060005260206000200154905092915050565b8154600090819083106114115760405162461bcd60e51b8152600401808060200182810382526022815260200180611af46022913960400191505060405180910390fd5b600084600001848154811061142257fe5b906000526020600020906002020190508060000154816001015492509250509250929050565b600082815260018401602052604081205482816114e35760405162461bcd60e51b81526004018080602001828103825283818151815260200191508051906020019080838360005b838110156114a8578181015183820152602001611490565b50505050905090810190601f1680156114d55780820380516001836020036101000a031916815260200191505b509250505060405180910390fd5b508460000160018203815481106114f657fe5b9060005260206000209060020201600101549150509392505050565b6000611526846001600160a01b0316610e11565b61153257506001610f3d565b6000611640630a85bd0160e11b611547610e24565b88878760405160240180856001600160a01b03168152602001846001600160a01b0316815260200183815260200180602001828103825283818151815260200191508051906020019080838360005b838110156115ae578181015183820152602001611596565b50505050905090810190601f1680156115db5780820380516001836020036101000a031916815260200191505b5095505050505050604051602081830303815290604052906001600160e01b0319166020820180516001600160e01b0383818316178352505050506040518060600160405280603281526020016119e7603291396001600160a01b0388169190611839565b9050600081806020019051602081101561165957600080fd5b50516001600160e01b031916630a85bd0160e11b1492505050949350505050565b60009081526001919091016020526040902054151590565b6000818152600183016020526040812054801561174e57835460001980830191908101906000908790839081106116c557fe5b90600052602060002001549050808760000184815481106116e257fe5b60009182526020808320909101929092558281526001898101909252604090209084019055865487908061171257fe5b6001900381819060005260206000200160009055905586600101600087815260200190815260200160002060009055600194505050505061081b565b600091505061081b565b6000611764838361167a565b61179a5750815460018181018455600084815260208082209093018490558454848252828601909352604090209190915561081b565b50600061081b565b6000828152600184016020526040812054806118075750506040805180820182528381526020808201848152865460018181018955600089815284812095516002909302909501918255915190820155865486845281880190925292909120556111f7565b8285600001600183038154811061181a57fe5b90600052602060002090600202016001018190555060009150506111f7565b60606111f484846000858561184d85610e11565b61189e576040805162461bcd60e51b815260206004820152601d60248201527f416464726573733a2063616c6c20746f206e6f6e2d636f6e7472616374000000604482015290519081900360640190fd5b600080866001600160a01b031685876040518082805190602001908083835b602083106118dc5780518252601f1990920191602091820191016118bd565b6001836020036101000a03801982511681845116808217855250505050505090500191505060006040518083038185875af1925050503d806000811461193e576040519150601f19603f3d011682016040523d82523d6000602084013e611943565b606091505b509150915061195382828661195e565b979650505050505050565b6060831561196d5750816111f7565b82511561197d5782518084602001fd5b60405162461bcd60e51b81526020600482018181528451602484015284518593919283926044019190850190808383600083156114a857818101518382015260200161149056fe456e756d657261626c655365743a20696e646578206f7574206f6620626f756e64734552433732313a207472616e7366657220746f206e6f6e20455243373231526563656976657220696d706c656d656e7465724552433732313a207472616e7366657220746f20746865207a65726f20616464726573734552433732313a206f70657261746f7220717565727920666f72206e6f6e6578697374656e7420746f6b656e4552433732313a20617070726f76652063616c6c6572206973206e6f74206f776e6572206e6f7220617070726f76656420666f7220616c6c4552433732313a2062616c616e636520717565727920666f7220746865207a65726f20616464726573734552433732313a206f776e657220717565727920666f72206e6f6e6578697374656e7420746f6b656e456e756d657261626c654d61703a20696e646578206f7574206f6620626f756e64734552433732313a20617070726f76656420717565727920666f72206e6f6e6578697374656e7420746f6b656e4552433732313a207472616e73666572206f6620746f6b656e2074686174206973206e6f74206f776e4552433732314d657461646174613a2055524920717565727920666f72206e6f6e6578697374656e7420746f6b656e4552433732313a20617070726f76616c20746f2063757272656e74206f776e65724552433732313a207472616e736665722063616c6c6572206973206e6f74206f776e6572206e6f7220617070726f766564a26469706673582212201cc9cbaf4a28da4c3ee3ebf07017bb3d110f322090cd794ee7a57340023cb99864736f6c63430007060033496e697469616c697a61626c653a20636f6e747261637420697320616c726561647920696e697469616c697a6564",
  "immutableReferences": {},
  "source": "// SPDX-License-Identifier: MIT\n\npragma solidity 0.7.6;\n\nimport \"@openzeppelin/contracts-upgradeable/token/ERC721/ERC721Upgradeable.sol\";\n\ncontract TestERC721 is ERC721Upgradeable {\n    constructor(string memory _name, string memory _symbol) public {\n        __ERC721_init(_name, _symbol);\n    }\n\n    function mint(address to, uint tokenId) external {\n        _mint(to, tokenId);\n    }\n\n    function setBaseURI(string calldata uri) external {\n\n    }\n\n    function reveal(uint256 _index) external {\n        emit TokenURIRevealed(_index, \"test\");\n    }\n\n    function getBatchIdAtIndex(uint256 _index) external view returns (uint256) {\n        return 10;\n    }\n\n    event TokenURIRevealed(uint256 indexed index, string revealedURI);\n}\n",
  "sourcePath": "/Users/dmitry/workspaces/workspace-rarible/protocol-contracts/tokens-test/contracts/TestERC721.sol",
  "compiler": {
    "name": "solc",
    "version": "0.7.6+commit.7338295f.Emscripten.clang"
  },
  "schemaVersion": "3.4.14",
  "updatedAt": "2023-09-21T14:11:53.952Z",
  "devdoc": {
    "kind": "dev",
    "methods": {
      "approve(address,uint256)": {
        "details": "See {IERC721-approve}."
      },
      "balanceOf(address)": {
        "details": "See {IERC721-balanceOf}."
      },
      "baseURI()": {
        "details": "Returns the base URI set via {_setBaseURI}. This will be automatically added as a prefix in {tokenURI} to each token's URI, or to the token ID if no specific URI is set for that token ID."
      },
      "getApproved(uint256)": {
        "details": "See {IERC721-getApproved}."
      },
      "isApprovedForAll(address,address)": {
        "details": "See {IERC721-isApprovedForAll}."
      },
      "name()": {
        "details": "See {IERC721Metadata-name}."
      },
      "ownerOf(uint256)": {
        "details": "See {IERC721-ownerOf}."
      },
      "safeTransferFrom(address,address,uint256)": {
        "details": "See {IERC721-safeTransferFrom}."
      },
      "safeTransferFrom(address,address,uint256,bytes)": {
        "details": "See {IERC721-safeTransferFrom}."
      },
      "setApprovalForAll(address,bool)": {
        "details": "See {IERC721-setApprovalForAll}."
      },
      "supportsInterface(bytes4)": {
        "details": "See {IERC165-supportsInterface}. Time complexity O(1), guaranteed to always use less than 30 000 gas."
      },
      "symbol()": {
        "details": "See {IERC721Metadata-symbol}."
      },
      "tokenByIndex(uint256)": {
        "details": "See {IERC721Enumerable-tokenByIndex}."
      },
      "tokenOfOwnerByIndex(address,uint256)": {
        "details": "See {IERC721Enumerable-tokenOfOwnerByIndex}."
      },
      "tokenURI(uint256)": {
        "details": "See {IERC721Metadata-tokenURI}."
      },
      "totalSupply()": {
        "details": "See {IERC721Enumerable-totalSupply}."
      },
      "transferFrom(address,address,uint256)": {
        "details": "See {IERC721-transferFrom}."
      }
    },
    "version": 1
  },
  "userdoc": {
    "kind": "user",
    "methods": {},
    "version": 1
  }
}