{
  "contractName": "TestChainId",
  "abi": [
    {
      "inputs": [],
      "name": "getChainID",
      "outputs": [
        {
          "internalType": "uint256",
          "name": "id",
          "type": "uint256"
        }
      ],
      "stateMutability": "pure",
      "type": "function"
    }
  ],
  "bytecode": "0x6080604052348015600f57600080fd5b50607f8061001e6000396000f3fe6080604052348015600f57600080fd5b506004361060285760003560e01c8063564b81ef14602d575b600080fd5b60336045565b60408051918252519081900360200190f35b469056fea264697066735822122083a3c7577608057b94e95987022c0242abebad5b79c82108f03475d373fe19a164736f6c63430007060033",
  "immutableReferences": {},
  "source": "// SPDX-License-Identifier: MIT\n\npragma solidity ^0.7.0;\n\ncontract TestChainId {\n    function getChainID() public pure returns (uint256 id) {\n        assembly {\n            id := chainid()\n        }\n    }\n}\n",
  "sourcePath": "/Users/ds/Documents/rarible/protocol-contracts/tokens-test/contracts/TestChainId.sol",
  "compiler": {
    "name": "solc",
    "version": "0.7.6+commit.7338295f.Emscripten.clang"
  },
  "schemaVersion": "3.4.3",
  "updatedAt": "2021-11-12T07:09:22.176Z",
  "devdoc": {
    "kind": "dev",
    "methods": {},
    "version": 1
  },
  "userdoc": {
    "kind": "user",
    "methods": {},
    "version": 1
  }
}