{
  "contractName": "TestChainId",
  "abi": [
    {
      "inputs": [],
      "name": "getChainID",
      "outputs": [
        {
          "internalType": "uint256",
          "name": "id",
          "type": "uint256"
        }
      ],
      "stateMutability": "pure",
      "type": "function"
    }
  ],
  "bytecode": "0x6080604052348015600f57600080fd5b5060878061001e6000396000f3fe6080604052348015600f57600080fd5b506004361060285760003560e01c8063564b81ef14602d575b600080fd5b60336049565b6040518082815260200191505060405180910390f35b60004690509056fea26469706673582212205617b576866dcc49713d04a8fe0ed372be382a360a8b4d598aedbbe73119443c64736f6c63430007060033",
  "immutableReferences": {},
  "source": "pragma solidity ^0.7.0;\n\ncontract TestChainId {\n    function getChainID() public pure returns (uint256 id) {\n        assembly {\n            id := chainid()\n        }\n    }\n}\n",
  "sourcePath": "/home/quadro/Projects/rarible/protocol-contracts/tokens-test/contracts/TestChainId.sol",
  "compiler": {
    "name": "solc",
    "version": "0.7.6+commit.7338295f.Emscripten.clang"
  },
  "schemaVersion": "3.4.0",
  "updatedAt": "2021-08-12T03:41:51.194Z",
  "devdoc": {
    "kind": "dev",
    "methods": {},
    "version": 1
  },
  "userdoc": {
    "kind": "user",
    "methods": {},
    "version": 1
  }
}