{
  "contractName": "RoyaltiesV1Impl",
  "abi": [
    {
      "anonymous": false,
      "inputs": [
        {
          "indexed": false,
          "internalType": "uint256",
          "name": "tokenId",
          "type": "uint256"
        },
        {
          "indexed": false,
          "internalType": "address[]",
          "name": "recipients",
          "type": "address[]"
        },
        {
          "indexed": false,
          "internalType": "uint256[]",
          "name": "bps",
          "type": "uint256[]"
        }
      ],
      "name": "SecondarySaleFees",
      "type": "event"
    },
    {
      "inputs": [
        {
          "internalType": "uint256",
          "name": "",
          "type": "uint256"
        },
        {
          "internalType": "uint256",
          "name": "",
          "type": "uint256"
        }
      ],
      "name": "royalties",
      "outputs": [
        {
          "internalType": "address payable",
          "name": "account",
          "type": "address"
        },
        {
          "internalType": "uint96",
          "name": "value",
          "type": "uint96"
        }
      ],
      "stateMutability": "view",
      "type": "function"
    },
    {
      "inputs": [
        {
          "internalType": "uint256",
          "name": "id",
          "type": "uint256"
        }
      ],
      "name": "getFeeRecipients",
      "outputs": [
        {
          "internalType": "address payable[]",
          "name": "",
          "type": "address[]"
        }
      ],
      "stateMutability": "view",
      "type": "function"
    },
    {
      "inputs": [
        {
          "internalType": "uint256",
          "name": "id",
          "type": "uint256"
        }
      ],
      "name": "getFeeBps",
      "outputs": [
        {
          "internalType": "uint256[]",
          "name": "",
          "type": "uint256[]"
        }
      ],
      "stateMutability": "view",
      "type": "function"
    }
  ],
  "bytecode": "0x608060405234801561001057600080fd5b506103cb806100206000396000f3fe608060405234801561001057600080fd5b50600436106100415760003560e01c80630ebd4c7f146100465780638924af74146100b3578063b9c4d9fb14610101575b600080fd5b6100636004803603602081101561005c57600080fd5b503561011e565b60408051602080825283518183015283519192839290830191858101910280838360005b8381101561009f578181015183820152602001610087565b505050509050019250505060405180910390f35b6100d6600480360360408110156100c957600080fd5b5080359060200135610237565b604080516001600160a01b0390931683526001600160601b0390911660208301528051918290030190f35b6100636004803603602081101561011757600080fd5b5035610280565b600081815260208181526040808320805482518185028101850190935280835260609493849084015b8282101561019657600084815260209081902060408051808201909152908401546001600160a01b0381168252600160a01b90046001600160601b031681830152825260019092019101610147565b5050505090506000815167ffffffffffffffff811180156101b657600080fd5b506040519080825280602002602001820160405280156101e0578160200160208202803683370190505b50905060005b825181101561022f578281815181106101fb57fe5b6020026020010151602001516001600160601b031682828151811061021c57fe5b60209081029190910101526001016101e6565b509392505050565b6000602052816000526040600020818154811061025357600080fd5b6000918252602090912001546001600160a01b0381169250600160a01b90046001600160601b0316905082565b600081815260208181526040808320805482518185028101850190935280835260609493849084015b828210156102f857600084815260209081902060408051808201909152908401546001600160a01b0381168252600160a01b90046001600160601b0316818301528252600190920191016102a9565b5050505090506000815167ffffffffffffffff8111801561031857600080fd5b50604051908082528060200260200182016040528015610342578160200160208202803683370190505b50905060005b825181101561022f5782818151811061035d57fe5b60200260200101516000015182828151811061037557fe5b6001600160a01b039092166020928302919091019091015260010161034856fea2646970667358221220f5afbf53cd935b553dee528b5edaa46c172a5ebf06d9a60a0fc15143d60df3be64736f6c63430007060033",
  "immutableReferences": {},
  "source": "// SPDX-License-Identifier: MIT\n\npragma solidity >=0.6.2 <0.8.0;\n\nimport \"./AbstractRoyalties.sol\";\nimport \"../RoyaltiesV1.sol\";\n\ncontract RoyaltiesV1Impl is AbstractRoyalties, RoyaltiesV1 {\n\n    function getFeeRecipients(uint256 id) public override view returns (address payable[] memory) {\n        LibPart.Part[] memory _royalties = royalties[id];\n        address payable[] memory result = new address payable[](_royalties.length);\n        for (uint i = 0; i < _royalties.length; i++) {\n            result[i] = address(uint160(_royalties[i].account));\n        }\n        return result;\n    }\n\n    function getFeeBps(uint256 id) public override view returns (uint[] memory) {\n        LibPart.Part[] memory _royalties = royalties[id];\n        uint[] memory result = new uint[](_royalties.length);\n        for (uint i = 0; i < _royalties.length; i++) {\n            result[i] = _royalties[i].value;\n        }\n        return result;\n    }\n\n    function _onRoyaltiesSet(uint256 _id, LibPart.Part[] memory _royalties) override internal {\n        address[] memory recipients = new address[](_royalties.length);\n        uint[] memory bps = new uint[](_royalties.length);\n        for (uint i = 0; i < _royalties.length; i++) {\n            recipients[i] = _royalties[i].account;\n            bps[i] = _royalties[i].value;\n        }\n        emit SecondarySaleFees(_id, recipients, bps);\n    }\n}\n",
  "sourcePath": "@rarible/royalties/contracts/impl/RoyaltiesV1Impl.sol",
  "compiler": {
    "name": "solc",
    "version": "0.7.6+commit.7338295f.Emscripten.clang"
  },
  "schemaVersion": "3.4.0",
  "updatedAt": "2021-05-07T12:37:29.723Z",
  "devdoc": {
    "kind": "dev",
    "methods": {},
    "version": 1
  },
  "userdoc": {
    "kind": "user",
    "methods": {},
    "version": 1
  }
}