{
  "contractName": "LibBidDataV1",
  "abi": [
    {
      "inputs": [],
      "name": "V1",
      "outputs": [
        {
          "internalType": "bytes4",
          "name": "",
          "type": "bytes4"
        }
      ],
      "stateMutability": "view",
      "type": "function"
    }
  ],
  "bytecode": "0x60c1610025600b82828239805160001a60731461001857fe5b30600052607381538281f3fe730000000000000000000000000000000000000000301460806040526004361060335760003560e01c80633ee569bf146038575b600080fd5b603e6052565b604051604991906076565b60405180910390f35b7f4c23426613a5dc69e08fbd2787e6210aa679d4522e95a89d4dd88c4fd13a228381565b6001600160e01b03199190911681526020019056fea264697066735822122015187ca7a2a26a05b871e909d0af001467826a7c88335dcc2429501b767bfca864736f6c63430007060033",
  "immutableReferences": {},
  "source": "// SPDX-License-Identifier: MIT\n\npragma solidity 0.7.6;\npragma abicoder v2;\n\n/// @dev library that works with data field of Bid struct\nlibrary LibBidDataV1 {\n    bytes4 constant public V1 = bytes4(keccak256(\"V1\"));\n\n    /// @dev struct of Bid data field, version 1\n    struct DataV1 {\n        // auction originFees\n        uint originFee;\n    }\n\n    /// @dev returns parsed data field of a Bid (so returns DataV1 struct)\n    function parse(bytes memory data, bytes4 dataType) internal pure returns (DataV1 memory aucData) {\n        if (dataType == V1) {\n            if (data.length > 0){\n                aucData = abi.decode(data, (DataV1));\n            }  \n        } else {\n            revert(\"wrong bid dataType\");\n        }\n    }\n}\n",
  "sourcePath": "@rarible/auction/contracts/libs/LibBidDataV1.sol",
  "compiler": {
    "name": "solc",
    "version": "0.7.6+commit.7338295f.Emscripten.clang"
  },
  "schemaVersion": "3.4.16",
  "updatedAt": "2024-01-18T15:37:20.998Z",
  "devdoc": {
    "details": "library that works with data field of Bid struct",
    "kind": "dev",
    "methods": {},
    "version": 1
  },
  "userdoc": {
    "kind": "user",
    "methods": {},
    "version": 1
  }
}