{
  "address": "0x98C2d878064dCD20489214cf0866f972f91784D0",
  "abi": [
    {
      "anonymous": false,
      "inputs": [
        {
          "indexed": true,
          "internalType": "address",
          "name": "owner",
          "type": "address"
        },
        {
          "indexed": true,
          "internalType": "address",
          "name": "approved",
          "type": "address"
        },
        {
          "indexed": true,
          "internalType": "uint256",
          "name": "tokenId",
          "type": "uint256"
        }
      ],
      "name": "Approval",
      "type": "event"
    },
    {
      "anonymous": false,
      "inputs": [
        {
          "indexed": true,
          "internalType": "address",
          "name": "owner",
          "type": "address"
        },
        {
          "indexed": true,
          "internalType": "address",
          "name": "operator",
          "type": "address"
        },
        {
          "indexed": false,
          "internalType": "bool",
          "name": "approved",
          "type": "bool"
        }
      ],
      "name": "ApprovalForAll",
      "type": "event"
    },
    {
      "anonymous": false,
      "inputs": [
        {
          "indexed": false,
          "internalType": "string",
          "name": "newBaseURI",
          "type": "string"
        }
      ],
      "name": "BaseUriChanged",
      "type": "event"
    },
    {
      "anonymous": false,
      "inputs": [
        {
          "indexed": false,
          "internalType": "address",
          "name": "owner",
          "type": "address"
        },
        {
          "indexed": false,
          "internalType": "string",
          "name": "name",
          "type": "string"
        },
        {
          "indexed": false,
          "internalType": "string",
          "name": "symbol",
          "type": "string"
        }
      ],
      "name": "CreateERC721Rarible",
      "type": "event"
    },
    {
      "anonymous": false,
      "inputs": [
        {
          "indexed": false,
          "internalType": "uint256",
          "name": "tokenId",
          "type": "uint256"
        },
        {
          "components": [
            {
              "internalType": "address payable",
              "name": "account",
              "type": "address"
            },
            {
              "internalType": "uint96",
              "name": "value",
              "type": "uint96"
            }
          ],
          "indexed": false,
          "internalType": "struct LibPart.Part[]",
          "name": "creators",
          "type": "tuple[]"
        }
      ],
      "name": "Creators",
      "type": "event"
    },
    {
      "anonymous": false,
      "inputs": [
        {
          "indexed": true,
          "internalType": "address",
          "name": "operator",
          "type": "address"
        },
        {
          "indexed": false,
          "internalType": "bool",
          "name": "hasApproval",
          "type": "bool"
        }
      ],
      "name": "DefaultApproval",
      "type": "event"
    },
    {
      "anonymous": false,
      "inputs": [
        {
          "indexed": true,
          "internalType": "address",
          "name": "previousOwner",
          "type": "address"
        },
        {
          "indexed": true,
          "internalType": "address",
          "name": "newOwner",
          "type": "address"
        }
      ],
      "name": "OwnershipTransferred",
      "type": "event"
    },
    {
      "anonymous": false,
      "inputs": [
        {
          "indexed": false,
          "internalType": "uint256",
          "name": "tokenId",
          "type": "uint256"
        },
        {
          "components": [
            {
              "internalType": "address payable",
              "name": "account",
              "type": "address"
            },
            {
              "internalType": "uint96",
              "name": "value",
              "type": "uint96"
            }
          ],
          "indexed": false,
          "internalType": "struct LibPart.Part[]",
          "name": "royalties",
          "type": "tuple[]"
        }
      ],
      "name": "RoyaltiesSet",
      "type": "event"
    },
    {
      "anonymous": false,
      "inputs": [
        {
          "indexed": true,
          "internalType": "address",
          "name": "from",
          "type": "address"
        },
        {
          "indexed": true,
          "internalType": "address",
          "name": "to",
          "type": "address"
        },
        {
          "indexed": true,
          "internalType": "uint256",
          "name": "tokenId",
          "type": "uint256"
        }
      ],
      "name": "Transfer",
      "type": "event"
    },
    {
      "inputs": [
        {
          "internalType": "string",
          "name": "_name",
          "type": "string"
        },
        {
          "internalType": "string",
          "name": "_symbol",
          "type": "string"
        },
        {
          "internalType": "string",
          "name": "baseURI",
          "type": "string"
        },
        {
          "internalType": "string",
          "name": "contractURI",
          "type": "string"
        },
        {
          "internalType": "address",
          "name": "transferProxy",
          "type": "address"
        },
        {
          "internalType": "address",
          "name": "lazyTransferProxy",
          "type": "address"
        }
      ],
      "name": "__ERC721Rarible_init",
      "outputs": [],
      "stateMutability": "nonpayable",
      "type": "function"
    },
    {
      "inputs": [
        {
          "internalType": "address",
          "name": "to",
          "type": "address"
        },
        {
          "internalType": "uint256",
          "name": "tokenId",
          "type": "uint256"
        }
      ],
      "name": "approve",
      "outputs": [],
      "stateMutability": "nonpayable",
      "type": "function"
    },
    {
      "inputs": [
        {
          "internalType": "address",
          "name": "owner",
          "type": "address"
        }
      ],
      "name": "balanceOf",
      "outputs": [
        {
          "internalType": "uint256",
          "name": "",
          "type": "uint256"
        }
      ],
      "stateMutability": "view",
      "type": "function"
    },
    {
      "inputs": [],
      "name": "baseURI",
      "outputs": [
        {
          "internalType": "string",
          "name": "",
          "type": "string"
        }
      ],
      "stateMutability": "view",
      "type": "function"
    },
    {
      "inputs": [
        {
          "internalType": "uint256",
          "name": "tokenId",
          "type": "uint256"
        }
      ],
      "name": "burn",
      "outputs": [],
      "stateMutability": "nonpayable",
      "type": "function"
    },
    {
      "inputs": [],
      "name": "contractURI",
      "outputs": [
        {
          "internalType": "string",
          "name": "",
          "type": "string"
        }
      ],
      "stateMutability": "view",
      "type": "function"
    },
    {
      "inputs": [
        {
          "internalType": "uint256",
          "name": "tokenId",
          "type": "uint256"
        }
      ],
      "name": "getApproved",
      "outputs": [
        {
          "internalType": "address",
          "name": "",
          "type": "address"
        }
      ],
      "stateMutability": "view",
      "type": "function"
    },
    {
      "inputs": [
        {
          "internalType": "uint256",
          "name": "_id",
          "type": "uint256"
        }
      ],
      "name": "getCreators",
      "outputs": [
        {
          "components": [
            {
              "internalType": "address payable",
              "name": "account",
              "type": "address"
            },
            {
              "internalType": "uint96",
              "name": "value",
              "type": "uint96"
            }
          ],
          "internalType": "struct LibPart.Part[]",
          "name": "",
          "type": "tuple[]"
        }
      ],
      "stateMutability": "view",
      "type": "function"
    },
    {
      "inputs": [
        {
          "internalType": "uint256",
          "name": "id",
          "type": "uint256"
        }
      ],
      "name": "getRaribleV2Royalties",
      "outputs": [
        {
          "components": [
            {
              "internalType": "address payable",
              "name": "account",
              "type": "address"
            },
            {
              "internalType": "uint96",
              "name": "value",
              "type": "uint96"
            }
          ],
          "internalType": "struct LibPart.Part[]",
          "name": "",
          "type": "tuple[]"
        }
      ],
      "stateMutability": "view",
      "type": "function"
    },
    {
      "inputs": [
        {
          "internalType": "address",
          "name": "owner",
          "type": "address"
        },
        {
          "internalType": "address",
          "name": "operator",
          "type": "address"
        }
      ],
      "name": "isApprovedForAll",
      "outputs": [
        {
          "internalType": "bool",
          "name": "",
          "type": "bool"
        }
      ],
      "stateMutability": "view",
      "type": "function"
    },
    {
      "inputs": [
        {
          "components": [
            {
              "internalType": "uint256",
              "name": "tokenId",
              "type": "uint256"
            },
            {
              "internalType": "string",
              "name": "tokenURI",
              "type": "string"
            },
            {
              "components": [
                {
                  "internalType": "address payable",
                  "name": "account",
                  "type": "address"
                },
                {
                  "internalType": "uint96",
                  "name": "value",
                  "type": "uint96"
                }
              ],
              "internalType": "struct LibPart.Part[]",
              "name": "creators",
              "type": "tuple[]"
            },
            {
              "components": [
                {
                  "internalType": "address payable",
                  "name": "account",
                  "type": "address"
                },
                {
                  "internalType": "uint96",
                  "name": "value",
                  "type": "uint96"
                }
              ],
              "internalType": "struct LibPart.Part[]",
              "name": "royalties",
              "type": "tuple[]"
            },
            {
              "internalType": "bytes[]",
              "name": "signatures",
              "type": "bytes[]"
            }
          ],
          "internalType": "struct LibERC721LazyMint.Mint721Data",
          "name": "data",
          "type": "tuple"
        },
        {
          "internalType": "address",
          "name": "to",
          "type": "address"
        }
      ],
      "name": "mintAndTransfer",
      "outputs": [],
      "stateMutability": "nonpayable",
      "type": "function"
    },
    {
      "inputs": [],
      "name": "name",
      "outputs": [
        {
          "internalType": "string",
          "name": "",
          "type": "string"
        }
      ],
      "stateMutability": "view",
      "type": "function"
    },
    {
      "inputs": [],
      "name": "owner",
      "outputs": [
        {
          "internalType": "address",
          "name": "",
          "type": "address"
        }
      ],
      "stateMutability": "view",
      "type": "function"
    },
    {
      "inputs": [
        {
          "internalType": "uint256",
          "name": "tokenId",
          "type": "uint256"
        }
      ],
      "name": "ownerOf",
      "outputs": [
        {
          "internalType": "address",
          "name": "",
          "type": "address"
        }
      ],
      "stateMutability": "view",
      "type": "function"
    },
    {
      "inputs": [],
      "name": "renounceOwnership",
      "outputs": [],
      "stateMutability": "nonpayable",
      "type": "function"
    },
    {
      "inputs": [
        {
          "internalType": "uint256",
          "name": "id",
          "type": "uint256"
        },
        {
          "internalType": "uint256",
          "name": "_salePrice",
          "type": "uint256"
        }
      ],
      "name": "royaltyInfo",
      "outputs": [
        {
          "internalType": "address",
          "name": "receiver",
          "type": "address"
        },
        {
          "internalType": "uint256",
          "name": "royaltyAmount",
          "type": "uint256"
        }
      ],
      "stateMutability": "view",
      "type": "function"
    },
    {
      "inputs": [
        {
          "internalType": "address",
          "name": "from",
          "type": "address"
        },
        {
          "internalType": "address",
          "name": "to",
          "type": "address"
        },
        {
          "internalType": "uint256",
          "name": "tokenId",
          "type": "uint256"
        }
      ],
      "name": "safeTransferFrom",
      "outputs": [],
      "stateMutability": "nonpayable",
      "type": "function"
    },
    {
      "inputs": [
        {
          "internalType": "address",
          "name": "from",
          "type": "address"
        },
        {
          "internalType": "address",
          "name": "to",
          "type": "address"
        },
        {
          "internalType": "uint256",
          "name": "tokenId",
          "type": "uint256"
        },
        {
          "internalType": "bytes",
          "name": "_data",
          "type": "bytes"
        }
      ],
      "name": "safeTransferFrom",
      "outputs": [],
      "stateMutability": "nonpayable",
      "type": "function"
    },
    {
      "inputs": [
        {
          "internalType": "address",
          "name": "operator",
          "type": "address"
        },
        {
          "internalType": "bool",
          "name": "approved",
          "type": "bool"
        }
      ],
      "name": "setApprovalForAll",
      "outputs": [],
      "stateMutability": "nonpayable",
      "type": "function"
    },
    {
      "inputs": [
        {
          "internalType": "string",
          "name": "newBaseURI",
          "type": "string"
        }
      ],
      "name": "setBaseURI",
      "outputs": [],
      "stateMutability": "nonpayable",
      "type": "function"
    },
    {
      "inputs": [
        {
          "internalType": "bytes4",
          "name": "interfaceId",
          "type": "bytes4"
        }
      ],
      "name": "supportsInterface",
      "outputs": [
        {
          "internalType": "bool",
          "name": "",
          "type": "bool"
        }
      ],
      "stateMutability": "view",
      "type": "function"
    },
    {
      "inputs": [],
      "name": "symbol",
      "outputs": [
        {
          "internalType": "string",
          "name": "",
          "type": "string"
        }
      ],
      "stateMutability": "view",
      "type": "function"
    },
    {
      "inputs": [
        {
          "internalType": "uint256",
          "name": "index",
          "type": "uint256"
        }
      ],
      "name": "tokenByIndex",
      "outputs": [
        {
          "internalType": "uint256",
          "name": "",
          "type": "uint256"
        }
      ],
      "stateMutability": "view",
      "type": "function"
    },
    {
      "inputs": [
        {
          "internalType": "address",
          "name": "owner",
          "type": "address"
        },
        {
          "internalType": "uint256",
          "name": "index",
          "type": "uint256"
        }
      ],
      "name": "tokenOfOwnerByIndex",
      "outputs": [
        {
          "internalType": "uint256",
          "name": "",
          "type": "uint256"
        }
      ],
      "stateMutability": "view",
      "type": "function"
    },
    {
      "inputs": [
        {
          "internalType": "uint256",
          "name": "tokenId",
          "type": "uint256"
        }
      ],
      "name": "tokenURI",
      "outputs": [
        {
          "internalType": "string",
          "name": "",
          "type": "string"
        }
      ],
      "stateMutability": "view",
      "type": "function"
    },
    {
      "inputs": [],
      "name": "totalSupply",
      "outputs": [
        {
          "internalType": "uint256",
          "name": "",
          "type": "uint256"
        }
      ],
      "stateMutability": "view",
      "type": "function"
    },
    {
      "inputs": [
        {
          "internalType": "address",
          "name": "from",
          "type": "address"
        },
        {
          "internalType": "address",
          "name": "to",
          "type": "address"
        },
        {
          "internalType": "uint256",
          "name": "tokenId",
          "type": "uint256"
        }
      ],
      "name": "transferFrom",
      "outputs": [],
      "stateMutability": "nonpayable",
      "type": "function"
    },
    {
      "inputs": [
        {
          "components": [
            {
              "internalType": "uint256",
              "name": "tokenId",
              "type": "uint256"
            },
            {
              "internalType": "string",
              "name": "tokenURI",
              "type": "string"
            },
            {
              "components": [
                {
                  "internalType": "address payable",
                  "name": "account",
                  "type": "address"
                },
                {
                  "internalType": "uint96",
                  "name": "value",
                  "type": "uint96"
                }
              ],
              "internalType": "struct LibPart.Part[]",
              "name": "creators",
              "type": "tuple[]"
            },
            {
              "components": [
                {
                  "internalType": "address payable",
                  "name": "account",
                  "type": "address"
                },
                {
                  "internalType": "uint96",
                  "name": "value",
                  "type": "uint96"
                }
              ],
              "internalType": "struct LibPart.Part[]",
              "name": "royalties",
              "type": "tuple[]"
            },
            {
              "internalType": "bytes[]",
              "name": "signatures",
              "type": "bytes[]"
            }
          ],
          "internalType": "struct LibERC721LazyMint.Mint721Data",
          "name": "data",
          "type": "tuple"
        },
        {
          "internalType": "address",
          "name": "from",
          "type": "address"
        },
        {
          "internalType": "address",
          "name": "to",
          "type": "address"
        }
      ],
      "name": "transferFromOrMint",
      "outputs": [],
      "stateMutability": "nonpayable",
      "type": "function"
    },
    {
      "inputs": [
        {
          "internalType": "address",
          "name": "newOwner",
          "type": "address"
        }
      ],
      "name": "transferOwnership",
      "outputs": [],
      "stateMutability": "nonpayable",
      "type": "function"
    },
    {
      "inputs": [
        {
          "internalType": "uint256",
          "name": "_id",
          "type": "uint256"
        },
        {
          "internalType": "address",
          "name": "_from",
          "type": "address"
        },
        {
          "internalType": "address",
          "name": "_to",
          "type": "address"
        }
      ],
      "name": "updateAccount",
      "outputs": [],
      "stateMutability": "nonpayable",
      "type": "function"
    }
  ],
  "numDeployments": 1,
  "solcInputHash": "812d24ebc21a45fb2c582e2e4a91a8b6",
  "bytecode": "0x608060405234801561001057600080fd5b50614a9f806100206000396000f3fe608060405234801561001057600080fd5b50600436106101da5760003560e01c80636c0360eb11610104578063a22cb465116100a2578063e07f231911610071578063e07f2319146103e5578063e8a3d485146103f8578063e985e9c514610400578063f2fde38b14610413576101da565b8063a22cb46514610399578063b88d4fde146103ac578063c87b56dd146103bf578063cad96cca146103d2576101da565b8063832fbb29116100de578063832fbb2914610356578063891be974146103695780638da5cb5b1461038957806395d89b4114610391576101da565b80636c0360eb1461033357806370a082311461033b578063715018a61461034e576101da565b80632a55205a1161017c57806342966c681161014b57806342966c68146102e75780634f6ccce7146102fa57806355f804b31461030d5780636352211e14610320576101da565b80632a55205a1461028d5780632f745c59146102ae5780633db397c6146102c157806342842e0e146102d4576101da565b8063095ea7b3116101b8578063095ea7b31461023d57806318160ddd1461025257806322a775b61461026757806323b872dd1461027a576101da565b806301ffc9a7146101df57806306fdde0314610208578063081812fc1461021d575b600080fd5b6101f26101ed3660046140c4565b610426565b6040516101ff9190614401565b60405180910390f35b610210610439565b6040516101ff919061440c565b61023061022b36600461428a565b6104cf565b6040516101ff919061438b565b61025061024b366004614099565b610531565b005b61025a61060c565b6040516101ff919061463f565b6102506102753660046141e5565b61061d565b610250610288366004613fbf565b6107a8565b6102a061029b3660046142c8565b6107ff565b6040516101ff9291906143d5565b61025a6102bc366004614099565b61090d565b6102506102cf36600461411e565b610938565b6102506102e2366004613fbf565b610a30565b6102506102f536600461428a565b610a4b565b61025a61030836600461428a565b610b15565b61025061031b3660046140ec565b610b2b565b61023061032e36600461428a565b610be2565b610210610c0a565b61025a610349366004613f6b565b610c6b565b610250610cd3565b610250610364366004614229565b610d91565b61037c61037736600461428a565b610e0c565b6040516101ff91906143ee565b610230610e9c565b610210610eab565b6102506103a7366004614068565b610f0c565b6102506103ba366004613fff565b611011565b6102106103cd36600461428a565b61106f565b61037c6103e036600461428a565b611249565b6102506103f33660046142a2565b6112c4565b610210611307565b6101f261040e366004613f87565b611396565b610250610421366004613f6b565b6113a2565b6000610431826114b7565b90505b919050565b609c8054604080516020601f60026000196101006001881615020190951694909404938401819004810282018101909252828152606093909290918301828280156104c55780601f1061049a576101008083540402835291602001916104c5565b820191906000526020600020905b8154815290600101906020018083116104a857829003601f168201915b5050505050905090565b60006104da82611571565b6105155760405162461bcd60e51b815260040180806020018281038252602c8152602001806148f3602c913960400191505060405180910390fd5b506000908152609a60205260409020546001600160a01b031690565b600061053c82610be2565b9050806001600160a01b0316836001600160a01b0316141561058f5760405162461bcd60e51b81526004018080602001828103825260218152602001806149c36021913960400191505060405180910390fd5b806001600160a01b03166105a161157e565b6001600160a01b031614806105c257506105c2816105bd61157e565b611582565b6105fd5760405162461bcd60e51b81526004018080602001828103825260388152602001806147c96038913960400191505060405180910390fd5b61060783836115b0565b505050565b6000610618609861161e565b905090565b815160601c600061062c61157e565b9050836040015160008151811061063f57fe5b6020026020010151600001516001600160a01b0316826001600160a01b0316146106845760405162461bcd60e51b815260040161067b906144b6565b60405180910390fd5b8360800151518460400151511461069a57600080fd5b806001600160a01b0316826001600160a01b031614806106bf57506106bf8282611396565b6106db5760405162461bcd60e51b815260040161067b90614572565b60006106e685611629565b905060005b85604001515181101561075c5760008660400151828151811061070a57fe5b6020026020010151600001519050836001600160a01b0316816001600160a01b0316146107535761075381848960800151858151811061074657fe5b6020026020010151611870565b506001016106eb565b5061076b84866000015161187b565b61077d85600001518660600151611899565b61078f85600001518660400151611a88565b6107a185600001518660200151611c37565b5050505050565b6107b96107b361157e565b82611c9a565b6107f45760405162461bcd60e51b81526004018080602001828103825260318152602001806149e46031913960400191505060405180910390fd5b610607838383611ca6565b60008281526101c66020526040812054819061082057506000905080610906565b60008481526101c66020908152604080832080548251818502810185019093528083529192909190849084015b8282101561089c57600084815260209081902060408051808201909152908401546001600160a01b0381168252600160a01b90046001600160601b03168183015282526001909201910161084d565b505050509050806000815181106108af57fe5b60209081029190910101515192506000805b82518110156108fa578281815181106108d657fe5b6020026020010151602001516001600160601b0316820191508060010190506108c1565b50612710908502049150505b9250929050565b6001600160a01b038216600090815260976020526040812061092f9083611de0565b90505b92915050565b600054610100900460ff16806109515750610951611dec565b8061095f575060005460ff16155b61099a5760405162461bcd60e51b815260040180806020018281038252602e815260200180614854602e913960400191505060405180910390fd5b600054610100900460ff161580156109c5576000805460ff1961ff0019909116610100171660011790555b6109d3878787878787611dfd565b7ff05e55f0a9d205977ca8cc02236338b6a361376f404cf0b3019b2111964a01fd6109fc61157e565b8888604051610a0d9392919061439f565b60405180910390a18015610a27576000805461ff00191690555b50505050505050565b61060783838360405180602001604052806000815250611011565b610a5481611571565b610ac357606081901c610a6561157e565b6001600160a01b0316816001600160a01b031614610ab45760405162461bcd60e51b815260040180806020018281038252602d8152602001806148c6602d913960400191505060405180910390fd5b610abd82611e6f565b50610b12565b610ace6107b361157e565b610b095760405162461bcd60e51b8152600401808060200182810382526030815260200180614a3a6030913960400191505060405180910390fd5b610b1281611e8a565b50565b600080610b23609884611f4e565b509392505050565b610b3361157e565b6001600160a01b0316610b44610e9c565b6001600160a01b031614610b9f576040805162461bcd60e51b815260206004820181905260248201527f4f776e61626c653a2063616c6c6572206973206e6f7420746865206f776e6572604482015290519081900360640190fd5b610ba881611f6a565b7f87cdeaffd8e70903d6ce7cc983fac3b09ca79e83818124c98e47a1d70f8027d681604051610bd7919061440c565b60405180910390a150565b60006104318260405180606001604052806029815260200161482b6029913960989190611f7d565b609f8054604080516020601f60026000196101006001881615020190951694909404938401819004810282018101909252828152606093909290918301828280156104c55780601f1061049a576101008083540402835291602001916104c5565b60006001600160a01b038216610cb25760405162461bcd60e51b815260040180806020018281038252602a815260200180614801602a913960400191505060405180910390fd5b6001600160a01b03821660009081526097602052604090206104319061161e565b610cdb61157e565b6001600160a01b0316610cec610e9c565b6001600160a01b031614610d47576040805162461bcd60e51b815260206004820181905260248201527f4f776e61626c653a2063616c6c6572206973206e6f7420746865206f776e6572604482015290519081900360640190fd5b6033546040516000916001600160a01b0316907f8be0079c531659141344cd1fd0a4f28419497f9722a3daafe3b4186f6b6457e0908390a3603380546001600160a01b0319169055565b8251610d9c90611571565b15610db557610db082828560000151610a30565b610607565b8260400151600081518110610dc657fe5b6020026020010151600001516001600160a01b0316826001600160a01b031614610e025760405162461bcd60e51b815260040161067b90614456565b610607838261061d565b60606101c76000838152602001908152602001600020805480602002602001604051908101604052809291908181526020016000905b82821015610e9157600084815260209081902060408051808201909152908401546001600160a01b0381168252600160a01b90046001600160601b031681830152825260019092019101610e42565b505050509050919050565b6033546001600160a01b031690565b609d8054604080516020601f60026000196101006001881615020190951694909404938401819004810282018101909252828152606093909290918301828280156104c55780601f1061049a576101008083540402835291602001916104c5565b610f1461157e565b6001600160a01b0316826001600160a01b03161415610f7a576040805162461bcd60e51b815260206004820152601960248201527f4552433732313a20617070726f766520746f2063616c6c657200000000000000604482015290519081900360640190fd5b80609b6000610f8761157e565b6001600160a01b03908116825260208083019390935260409182016000908120918716808252919093529120805460ff191692151592909217909155610fcb61157e565b6001600160a01b03167f17307eab39ab6107e8899845ad3d59bd9653f200f220920489ca2b5937696c318360405180821515815260200191505060405180910390a35050565b61102261101c61157e565b83611c9a565b61105d5760405162461bcd60e51b81526004018080602001828103825260318152602001806149e46031913960400191505060405180910390fd5b61106984848484611f94565b50505050565b606061107a82611571565b6110b55760405162461bcd60e51b815260040180806020018281038252602f815260200180614974602f913960400191505060405180910390fd5b6000828152609e602090815260408083208054825160026001831615610100026000190190921691909104601f8101859004850282018501909352828152929091908301828280156111485780601f1061111d57610100808354040283529160200191611148565b820191906000526020600020905b81548152906001019060200180831161112b57829003601f168201915b505050505090506000611159610c0a565b905080516000141561116d57509050610434565b8151156111875761117e8183611fe6565b92505050610434565b80611191856121cb565b6040516020018083805190602001908083835b602083106111c35780518252601f1990920191602091820191016111a4565b51815160209384036101000a600019018019909216911617905285519190930192850191508083835b6020831061120b5780518252601f1990920191602091820191016111ec565b6001836020036101000a0380198251168184511680821785525050505050509050019250505060405160208183030381529060405292505050919050565b60008181526101c660209081526040808320805482518185028101850190935280835260609492939192909184018215610e9157600084815260209081902060408051808201909152908401546001600160a01b0381168252600160a01b90046001600160601b031681830152825260019092019101610e42565b816001600160a01b03166112d661157e565b6001600160a01b0316146112fc5760405162461bcd60e51b815260040161067b906144e1565b6106078383836122a5565b6101fa805460408051602060026001851615610100026000190190941693909304601f8101849004840282018401909252818152929183018282801561138e5780601f106113635761010080835404028352916020019161138e565b820191906000526020600020905b81548152906001019060200180831161137157829003601f168201915b505050505081565b600061092f8383612351565b6113aa61157e565b6001600160a01b03166113bb610e9c565b6001600160a01b031614611416576040805162461bcd60e51b815260206004820181905260248201527f4f776e61626c653a2063616c6c6572206973206e6f7420746865206f776e6572604482015290519081900360640190fd5b6001600160a01b03811661145b5760405162461bcd60e51b815260040180806020018281038252602681526020018061470b6026913960400191505060405180910390fd5b6033546040516001600160a01b038084169216907f8be0079c531659141344cd1fd0a4f28419497f9722a3daafe3b4186f6b6457e090600090a3603380546001600160a01b0319166001600160a01b0392909216919091179055565b60006001600160e01b03198216638486f69f60e01b14806114e857506001600160e01b0319821663656cb66560e11b145b8061150357506001600160e01b0319821663152a902d60e11b145b8061151e57506001600160e01b031982166301ffc9a760e01b145b8061153957506001600160e01b031982166380ac58cd60e01b145b8061155457506001600160e01b03198216635b5e139f60e01b145b806104315750506001600160e01b03191663780e9d6360e01b1490565b600061043160988361237d565b3390565b6001600160a01b039182166000908152609b6020908152604080832093909416825291909152205460ff1690565b6000818152609a6020526040902080546001600160a01b0319166001600160a01b03841690811790915581906115e582610be2565b6001600160a01b03167f8c5be1e5ebec7d5bd14f71427d1e84f3dd0314c0f7b2291e5b200ac8c7c3b92560405160405180910390a45050565b600061043182612389565b6000808260600151516001600160401b038111801561164757600080fd5b50604051908082528060200260200182016040528015611671578160200160208202803683370190505b50905060005b8360600151518110156116c3576116a48460600151828151811061169757fe5b602002602001015161238d565b8282815181106116b057fe5b6020908102919091010152600101611677565b5060008360400151516001600160401b03811180156116e157600080fd5b5060405190808252806020026020018201604052801561170b578160200160208202803683370190505b50905060005b846040015151811015611750576117318560400151828151811061169757fe5b82828151811061173d57fe5b6020908102919091010152600101611711565b507ff64326045af5fd7e15297ba939f85b550474d3899daa47d2bc1ffbdb9ced344e84600001518560200151805190602001208360405160200180828051906020019060200280838360005b838110156117b457818101518382015260200161179c565b50505050905001915050604051602081830303815290604052805190602001208560405160200180828051906020019060200280838360005b838110156118055781810151838201526020016117ed565b505050509050019150506040516020818303038152906040528051906020012060405160200180868152602001858152602001848152602001838152602001828152602001955050505050506040516020818303038152906040528051906020012092505050919050565b6106078383836123fa565b611895828260405180602001604052806000815250612679565b5050565b6000805b8251811015611a3d5760006001600160a01b03168382815181106118bd57fe5b6020026020010151600001516001600160a01b03161415611925576040805162461bcd60e51b815260206004820152601b60248201527f526563697069656e742073686f756c642062652070726573656e740000000000604482015290519081900360640190fd5b82818151811061193157fe5b6020026020010151602001516001600160601b03166000141561199b576040805162461bcd60e51b815260206004820181905260248201527f526f79616c74792076616c75652073686f756c6420626520706f736974697665604482015290519081900360640190fd5b8281815181106119a757fe5b6020026020010151602001516001600160601b0316820191506101c660008581526020019081526020016000208382815181106119e057fe5b60209081029190910181015182546001818101855560009485529383902082519101805492909301516001600160601b0316600160a01b026001600160a01b039182166001600160a01b031990931692909217161790550161189d565b506127108110611a7e5760405162461bcd60e51b8152600401808060200182810382526025815260200180614a156025913960400191505060405180910390fd5b61060783836126cb565b60008281526101c76020526040812090805b8351811015611bd65760006001600160a01b0316848281518110611aba57fe5b6020026020010151600001516001600160a01b03161415611aed5760405162461bcd60e51b815260040161067b9061453b565b838181518110611af957fe5b6020026020010151602001516001600160601b031660001415611b2e5760405162461bcd60e51b815260040161067b90614481565b82848281518110611b3b57fe5b602090810291909101810151825460018101845560009384529282902081519301805491909201516001600160601b0316600160a01b026001600160a01b039384166001600160a01b0319909216919091179092169190911790558351611bcc90859083908110611ba857fe5b6020026020010151602001516001600160601b03168361270890919063ffffffff16565b9150600101611a9a565b508061271014611bf85760405162461bcd60e51b815260040161067b906145f1565b7f841ffb90d4cabdd1f16034f3fa831d79060febbb8167bdd54a49269365bdf78f8484604051611c29929190614648565b60405180910390a150505050565b611c4082611571565b611c7b5760405162461bcd60e51b815260040180806020018281038252602c81526020018061491f602c913960400191505060405180910390fd5b6000828152609e60209081526040909120825161060792840190613c36565b600061092f8383612762565b826001600160a01b0316611cb982610be2565b6001600160a01b031614611cfe5760405162461bcd60e51b815260040180806020018281038252602981526020018061494b6029913960400191505060405180910390fd5b6001600160a01b038216611d435760405162461bcd60e51b81526004018080602001828103825260248152602001806147316024913960400191505060405180910390fd5b611d4e838383610607565b611d596000826115b0565b6001600160a01b0383166000908152609760205260409020611d7b908261278e565b506001600160a01b0382166000908152609760205260409020611d9e908261279a565b50611dab609882846127a6565b5080826001600160a01b0316846001600160a01b03166000805160206149a383398151915260405160405180910390a4505050565b600061092f83836127bc565b6000611df730612820565b15905090565b611e0684611f6a565b611e0e612826565b611e166128c7565b611e1e612826565b611e26612964565b611e2e612a01565b611e36612826565b611e3e612afa565b611e4783612bc9565b611e518686612c90565b611e5c826001612d8b565b611e67816001612d8b565b505050505050565b600090815260a060205260409020805460ff19166001179055565b6000611e9582610be2565b9050611ea381600084610607565b611eae6000836115b0565b6000828152609e60205260409020546002600019610100600184161502019091160415611eec576000828152609e60205260408120611eec91613cc2565b6001600160a01b0381166000908152609760205260409020611f0e908361278e565b50611f1a609883612deb565b50611f2482611e6f565b60405182906000906001600160a01b038416906000805160206149a3833981519152908390a45050565b6000808080611f5d8686612df7565b9097909650945050505050565b805161189590609f906020840190613c36565b6000611f8a848484612e72565b90505b9392505050565b611f9f848484611ca6565b611fab84848484612eff565b6110695760405162461bcd60e51b81526004018080602001828103825260328152602001806146d96032913960400191505060405180910390fd5b805182516060918491849110156120b15784846040516020018083805190602001908083835b6020831061202b5780518252601f19909201916020918201910161200c565b51815160209384036101000a600019018019909216911617905285519190930192850191508083835b602083106120735780518252601f199092019160209182019101612054565b6001836020036101000a0380198251168184511680821785525050505050509050019250505060405160208183030381529060405292505050610932565b60005b82518110156121c1578281815181106120c957fe5b602001015160f81c60f81b6001600160f81b0319168282815181106120ea57fe5b01602001516001600160f81b031916146121b95785856040516020018083805190602001908083835b602083106121325780518252601f199092019160209182019101612113565b51815160209384036101000a600019018019909216911617905285519190930192850191508083835b6020831061217a5780518252601f19909201916020918201910161215b565b6001836020036101000a038019825116818451168082178552505050505050905001925050506040516020818303038152906040529350505050610932565b6001016120b4565b5092949350505050565b6060816121f057506040805180820190915260018152600360fc1b6020820152610434565b8160005b811561220857600101600a820491506121f4565b6000816001600160401b038111801561222057600080fd5b506040519080825280601f01601f19166020018201604052801561224b576020820181803683370190505b50859350905060001982015b831561229c57600a840660300160f81b8282806001900393508151811061227a57fe5b60200101906001600160f81b031916908160001a905350600a84049350612257565b50949350505050565b60008381526101c66020526040812054905b818110156107a15760008581526101c66020526040902080546001600160a01b0386169190839081106122e657fe5b6000918252602090912001546001600160a01b031614156123495760008581526101c66020526040902080548491908390811061231f57fe5b600091825260209091200180546001600160a01b0319166001600160a01b03929092169190911790555b6001016122b7565b6001600160a01b038116600090815260c9602052604081205460ff168061092f575061092f8383611582565b600061092f8383613068565b5490565b8051602091820151604080517f397e04204c1e1a60ee8724b71f8244e10ab5f2e9009854d80f602bda21b59ebb818601526001600160a01b03909316838201526001600160601b039091166060808401919091528151808403909101815260809092019052805191012090565b600061240583613080565b905060008251604114156124205761241d82846130cc565b90505b846001600160a01b0316816001600160a01b0316146107a15761244b856001600160a01b0316612820565b156126015760408051630b135d3f60e11b808252600482018581526024830193845286516044840152865191936001600160a01b038a1693631626ba7e9388938a9390929091606490910190602085019080838360005b838110156124ba5781810151838201526020016124a2565b50505050905090810190601f1680156124e75780820380516001836020036101000a031916815260200191505b50935050505060206040518083038186803b15801561250557600080fd5b505afa158015612519573d6000803e3d6000fd5b505050506040513d602081101561252f57600080fd5b505160408051808201909152601c81527f7369676e617475726520766572696669636174696f6e206572726f72000000006020820152916001600160e01b0319909116146125fb5760405162461bcd60e51b81526004018080602001828103825283818151815260200191508051906020019080838360005b838110156125c05781810151838201526020016125a8565b50505050905090810190601f1680156125ed5780820380516001836020036101000a031916815260200191505b509250505060405180910390fd5b506107a1565b604080518082018252601c81527f7369676e617475726520766572696669636174696f6e206572726f72000000006020808301918252925162461bcd60e51b815260048101938452825160248201528251929392839260449092019190808383600083156125c05781810151838201526020016125a8565b612683838361314c565b6126906000848484612eff565b6106075760405162461bcd60e51b81526004018080602001828103825260328152602001806146d96032913960400191505060405180910390fd5b7f3fa96d7b6bcbfe71ef171666d84db3cf52fa2d1c8afdb1cc8e486177f208b7df82826040516126fc929190614648565b60405180910390a15050565b60008282018381101561092f576040805162461bcd60e51b815260206004820152601b60248201527f536166654d6174683a206164646974696f6e206f766572666c6f770000000000604482015290519081900360640190fd5b6001600160a01b038216600090815260c9602052604081205460ff168061092f575061092f8383613156565b600061092f83836131f2565b600061092f83836132b8565b6000611f8a84846001600160a01b038516613302565b815460009082106127fe5760405162461bcd60e51b81526004018080602001828103825260228152602001806146b76022913960400191505060405180910390fd5b82600001828154811061280d57fe5b9060005260206000200154905092915050565b3b151590565b600054610100900460ff168061283f575061283f611dec565b8061284d575060005460ff16155b6128885760405162461bcd60e51b815260040180806020018281038252602e815260200180614854602e913960400191505060405180910390fd5b600054610100900460ff161580156128b3576000805460ff1961ff0019909116610100171660011790555b8015610b12576000805461ff001916905550565b600054610100900460ff16806128e057506128e0611dec565b806128ee575060005460ff16155b6129295760405162461bcd60e51b815260040180806020018281038252602e815260200180614854602e913960400191505060405180910390fd5b600054610100900460ff16158015612954576000805460ff1961ff0019909116610100171660011790555b6128b363656cb66560e11b613399565b600054610100900460ff168061297d575061297d611dec565b8061298b575060005460ff16155b6129c65760405162461bcd60e51b815260040180806020018281038252602e815260200180614854602e913960400191505060405180910390fd5b600054610100900460ff161580156129f1576000805460ff1961ff0019909116610100171660011790555b6128b36301ffc9a760e01b613399565b600054610100900460ff1680612a1a5750612a1a611dec565b80612a28575060005460ff16155b612a635760405162461bcd60e51b815260040180806020018281038252602e815260200180614854602e913960400191505060405180910390fd5b600054610100900460ff16158015612a8e576000805460ff1961ff0019909116610100171660011790555b6000612a9861157e565b603380546001600160a01b0319166001600160a01b038316908117909155604051919250906000907f8be0079c531659141344cd1fd0a4f28419497f9722a3daafe3b4186f6b6457e0908290a3508015610b12576000805461ff001916905550565b600054610100900460ff1680612b135750612b13611dec565b80612b21575060005460ff16155b612b5c5760405162461bcd60e51b815260040180806020018281038252602e815260200180614854602e913960400191505060405180910390fd5b600054610100900460ff16158015612b87576000805460ff1961ff0019909116610100171660011790555b6128b3604051806040016040528060078152602001664d696e7437323160c81b815250604051806040016040528060018152602001603160f81b81525061341d565b600054610100900460ff1680612be25750612be2611dec565b80612bf0575060005460ff16155b612c2b5760405162461bcd60e51b815260040180806020018281038252602e815260200180614854602e913960400191505060405180910390fd5b600054610100900460ff16158015612c56576000805460ff1961ff0019909116610100171660011790555b8151612c6a906101fa906020850190613c36565b50612c7b63e8a3d48560e01b613399565b8015611895576000805461ff00191690555050565b600054610100900460ff1680612ca95750612ca9611dec565b80612cb7575060005460ff16155b612cf25760405162461bcd60e51b815260040180806020018281038252602e815260200180614854602e913960400191505060405180910390fd5b600054610100900460ff16158015612d1d576000805460ff1961ff0019909116610100171660011790555b8251612d3090609c906020860190613c36565b508151612d4490609d906020850190613c36565b50612d556380ac58cd60e01b613399565b612d65635b5e139f60e01b613399565b612d7563780e9d6360e01b613399565b8015610607576000805461ff0019169055505050565b6001600160a01b038216600081815260c96020908152604091829020805460ff1916851515908117909155825190815291517f270dbb8ba4292910ae92862466486be25c355c837270a3d8824b36a8bc7c653b9281900390910190a25050565b600061092f83836134df565b815460009081908310612e3b5760405162461bcd60e51b81526004018080602001828103825260228152602001806148a46022913960400191505060405180910390fd5b6000846000018481548110612e4c57fe5b906000526020600020906002020190508060000154816001015492509250509250929050565b60008281526001840160205260408120548281612ed05760405162461bcd60e51b81526020600482018181528351602484015283519092839260449091019190850190808383600083156125c05781810151838201526020016125a8565b50846000016001820381548110612ee357fe5b9060005260206000209060020201600101549150509392505050565b6000612f13846001600160a01b0316612820565b612f1f57506001613060565b600061302d630a85bd0160e11b612f3461157e565b88878760405160240180856001600160a01b03168152602001846001600160a01b0316815260200183815260200180602001828103825283818151815260200191508051906020019080838360005b83811015612f9b578181015183820152602001612f83565b50505050905090810190601f168015612fc85780820380516001836020036101000a031916815260200191505b5095505050505050604051602081830303815290604052906001600160e01b0319166020820180516001600160e01b0383818316178352505050506040518060600160405280603281526020016146d9603291396001600160a01b03881691906135b3565b9050600081806020019051602081101561304657600080fd5b50516001600160e01b031916630a85bd0160e11b14925050505b949350505050565b60009081526001919091016020526040902054151590565b600061308a6135c2565b82604051602001808061190160f01b81525060020183815260200182815260200192505050604051602081830303815290604052805190602001209050919050565b60008151604114613124576040805162461bcd60e51b815260206004820152601f60248201527f45434453413a20696e76616c6964207369676e6174757265206c656e67746800604482015290519081900360640190fd5b60208201516040830151606084015160001a613142868285856135fd565b9695505050505050565b6118958282613853565b600061316182611571565b61319c5760405162461bcd60e51b815260040180806020018281038252602c81526020018061479d602c913960400191505060405180910390fd5b60006131a783610be2565b9050806001600160a01b0316846001600160a01b031614806131e25750836001600160a01b03166131d7846104cf565b6001600160a01b0316145b8061306057506130608185611582565b600081815260018301602052604081205480156132ae578354600019808301919081019060009087908390811061322557fe5b906000526020600020015490508087600001848154811061324257fe5b60009182526020808320909101929092558281526001898101909252604090209084019055865487908061327257fe5b60019003818190600052602060002001600090559055866001016000878152602001908152602001600020600090556001945050505050610932565b6000915050610932565b60006132c48383613068565b6132fa57508154600181810184556000848152602080822090930184905584548482528286019093526040902091909155610932565b506000610932565b600082815260018401602052604081205480613367575050604080518082018252838152602080820184815286546001818101895560008981528481209551600290930290950191825591519082015586548684528188019092529290912055611f8d565b8285600001600183038154811061337a57fe5b9060005260206000209060020201600101819055506000915050611f8d565b6001600160e01b031980821614156133f8576040805162461bcd60e51b815260206004820152601c60248201527f4552433136353a20696e76616c696420696e7465726661636520696400000000604482015290519081900360640190fd5b6001600160e01b0319166000908152606560205260409020805460ff19166001179055565b600054610100900460ff16806134365750613436611dec565b80613444575060005460ff16155b61347f5760405162461bcd60e51b815260040180806020018281038252602e815260200180614854602e913960400191505060405180910390fd5b600054610100900460ff161580156134aa576000805460ff1961ff0019909116610100171660011790555b825160208085019190912083519184019190912061012e9190915561012f558015610607576000805461ff0019169055505050565b600081815260018301602052604081205480156132ae578354600019808301919081019060009087908390811061351257fe5b906000526020600020906002020190508087600001848154811061353257fe5b60009182526020808320845460029093020191825560019384015491840191909155835482528983019052604090209084019055865487908061357157fe5b60008281526020808220600260001990940193840201828155600190810183905592909355888152898201909252604082209190915594506109329350505050565b6060611f8a848460008561399b565b60006106187f8b73c3c69bb8fe3d512ecc4cf759cc79239f7b179b0ffacaa9a75d522b39400f6135f0613af6565b6135f8613afd565b613b04565b60007f7fffffffffffffffffffffffffffffff5d576e7357a4501ddfe92f46681b20a082111561365e5760405162461bcd60e51b81526004018080602001828103825260228152602001806147556022913960400191505060405180910390fd5b6000601e8560ff161115613738576004850360ff16601b148061368757506004850360ff16601c145b6136c25760405162461bcd60e51b81526004018080602001828103825260228152602001806148826022913960400191505060405180910390fd5b60016136cd87613b66565b60048703868660405160008152602001604052604051808581526020018460ff1681526020018381526020018281526020019450505050506020604051602081039080840390855afa158015613727573d6000803e3d6000fd5b5050506020604051035190506137ef565b8460ff16601b148061374d57508460ff16601c145b6137885760405162461bcd60e51b81526004018080602001828103825260228152602001806148826022913960400191505060405180910390fd5b60018686868660405160008152602001604052604051808581526020018460ff1681526020018381526020018281526020019450505050506020604051602081039080840390855afa1580156137e2573d6000803e3d6000fd5b5050506020604051035190505b6001600160a01b03811661384a576040805162461bcd60e51b815260206004820152601860248201527f45434453413a20696e76616c6964207369676e61747572650000000000000000604482015290519081900360640190fd5b95945050505050565b6001600160a01b0382166138795760405162461bcd60e51b815260040161067b90614506565b61388281613bb7565b1561389f5760405162461bcd60e51b815260040161067b906145c3565b6138a881611571565b156138c55760405162461bcd60e51b815260040161067b9061441f565b6138d160008383610607565b6001600160a01b03821660009081526097602052604090206138f3908261279a565b50613900609882846127a6565b50606081901c6001600160a01b03831681146139705760405182906001600160a01b038316906000906000805160206149a3833981519152908290a481836001600160a01b0316826001600160a01b03166000805160206149a383398151915260405160405180910390a4610607565b60405182906001600160a01b038516906000906000805160206149a3833981519152908290a4505050565b6060824710156139dc5760405162461bcd60e51b81526004018080602001828103825260268152602001806147776026913960400191505060405180910390fd5b6139e585612820565b613a36576040805162461bcd60e51b815260206004820152601d60248201527f416464726573733a2063616c6c20746f206e6f6e2d636f6e7472616374000000604482015290519081900360640190fd5b600080866001600160a01b031685876040518082805190602001908083835b60208310613a745780518252601f199092019160209182019101613a55565b6001836020036101000a03801982511681845116808217855250505050505090500191505060006040518083038185875af1925050503d8060008114613ad6576040519150601f19603f3d011682016040523d82523d6000602084013e613adb565b606091505b5091509150613aeb828286613bcc565b979650505050505050565b61012e5490565b61012f5490565b6000838383613b11613c32565b3060405160200180868152602001858152602001848152602001838152602001826001600160a01b03168152602001955050505050506040516020818303038152906040528051906020012090509392505050565b604080517f19457468657265756d205369676e6564204d6573736167653a0a333200000000602080830191909152603c8083019490945282518083039094018452605c909101909152815191012090565b600090815260a0602052604090205460ff1690565b60608315613bdb575081611f8d565b825115613beb5782518084602001fd5b60405162461bcd60e51b81526020600482018181528451602484015284518593919283926044019190850190808383600083156125c05781810151838201526020016125a8565b4690565b828054600181600116156101000203166002900490600052602060002090601f016020900481019282613c6c5760008555613cb2565b82601f10613c8557805160ff1916838001178555613cb2565b82800160010185558215613cb2579182015b82811115613cb2578251825591602001919060010190613c97565b50613cbe929150613d02565b5090565b50805460018160011615610100020316600290046000825580601f10613ce85750610b12565b601f016020900490600052602060002090810190610b1291905b5b80821115613cbe5760008155600101613d03565b8035610434816146a1565b600082601f830112613d32578081fd5b81356020613d47613d4283614684565b614661565b82815281810190858301855b85811015613d7c57613d6a898684358b0101613e44565b84529284019290840190600101613d53565b5090979650505050505050565b600082601f830112613d99578081fd5b81356020613da9613d4283614684565b82815281810190858301604080860288018501891015613dc7578687fd5b865b86811015613e365781838b031215613ddf578788fd5b81518281018181106001600160401b0382111715613df957fe5b83528335613e06816146a1565b8152838701356001600160601b0381168114613e2057898afd5b8188015285529385019391810191600101613dc9565b509198975050505050505050565b600082601f830112613e54578081fd5b81356001600160401b03811115613e6757fe5b613e7a601f8201601f1916602001614661565b818152846020838601011115613e8e578283fd5b816020850160208301379081016020019190915292915050565b600060a08284031215613eb9578081fd5b613ec360a0614661565b90508135815260208201356001600160401b0380821115613ee357600080fd5b613eef85838601613e44565b60208401526040840135915080821115613f0857600080fd5b613f1485838601613d89565b60408401526060840135915080821115613f2d57600080fd5b613f3985838601613d89565b60608401526080840135915080821115613f5257600080fd5b50613f5f84828501613d22565b60808301525092915050565b600060208284031215613f7c578081fd5b813561092f816146a1565b60008060408385031215613f99578081fd5b8235613fa4816146a1565b91506020830135613fb4816146a1565b809150509250929050565b600080600060608486031215613fd3578081fd5b8335613fde816146a1565b92506020840135613fee816146a1565b929592945050506040919091013590565b60008060008060808587031215614014578081fd5b843561401f816146a1565b9350602085013561402f816146a1565b92506040850135915060608501356001600160401b03811115614050578182fd5b61405c87828801613e44565b91505092959194509250565b6000806040838503121561407a578182fd5b8235614085816146a1565b915060208301358015158114613fb4578182fd5b600080604083850312156140ab578182fd5b82356140b6816146a1565b946020939093013593505050565b6000602082840312156140d5578081fd5b81356001600160e01b03198116811461092f578182fd5b6000602082840312156140fd578081fd5b81356001600160401b03811115614112578182fd5b61306084828501613e44565b60008060008060008060c08789031215614136578384fd5b86356001600160401b038082111561414c578586fd5b6141588a838b01613e44565b9750602089013591508082111561416d578586fd5b6141798a838b01613e44565b9650604089013591508082111561418e578586fd5b61419a8a838b01613e44565b955060608901359150808211156141af578384fd5b506141bc89828a01613e44565b9350506141cb60808801613d17565b91506141d960a08801613d17565b90509295509295509295565b600080604083850312156141f7578182fd5b82356001600160401b0381111561420c578283fd5b61421885828601613ea8565b9250506020830135613fb4816146a1565b60008060006060848603121561423d578081fd5b83356001600160401b03811115614252578182fd5b61425e86828701613ea8565b935050602084013561426f816146a1565b9150604084013561427f816146a1565b809150509250925092565b60006020828403121561429b578081fd5b5035919050565b6000806000606084860312156142b6578081fd5b83359250602084013561426f816146a1565b600080604083850312156142da578182fd5b50508035926020909101359150565b6000815180845260208085019450808401835b8381101561433557815180516001600160a01b031688528301516001600160601b031683880152604090960195908201906001016142fc565b509495945050505050565b60008151808452815b8181101561436557602081850181015186830182015201614349565b818111156143765782602083870101525b50601f01601f19169290920160200192915050565b6001600160a01b0391909116815260200190565b6001600160a01b03841681526060602082018190526000906143c390830185614340565b82810360408401526131428185614340565b6001600160a01b03929092168252602082015260400190565b60006020825261092f60208301846142e9565b901515815260200190565b60006020825261092f6020830184614340565b6020808252601c908201527f4552433732313a20746f6b656e20616c7265616479206d696e74656400000000604082015260600190565b6020808252601190820152703bb937b7339037b93232b91036b0b5b2b960791b604082015260600190565b6020808252818101527f43726561746f722073686172652073686f756c6420626520706f736974697665604082015260600190565b6020808252601190820152701d1bdad95b9259081a5b98dbdc9c9958dd607a1b604082015260600190565b6020808252600b908201526a1b9bdd08185b1b1bddd95960aa1b604082015260600190565b6020808252818101527f4552433732313a206d696e7420746f20746865207a65726f2061646472657373604082015260600190565b60208082526019908201527f4163636f756e742073686f756c642062652070726573656e7400000000000000604082015260600190565b60208082526031908201527f4552433732313a207472616e736665722063616c6c6572206973206e6f74206f6040820152701ddb995c881b9bdc88185c1c1c9bdd9959607a1b606082015260800190565b6020808252601490820152731d1bdad95b88185b1c9958591e48189d5c9b995960621b604082015260600190565b6020808252602e908201527f746f74616c20616d6f756e74206f662063726561746f7273207368617265207360408201526d0686f756c642062652031303030360941b606082015260800190565b90815260200190565b600083825260406020830152611f8a60408301846142e9565b6040518181016001600160401b038111828210171561467c57fe5b604052919050565b60006001600160401b0382111561469757fe5b5060209081020190565b6001600160a01b0381168114610b1257600080fdfe456e756d657261626c655365743a20696e646578206f7574206f6620626f756e64734552433732313a207472616e7366657220746f206e6f6e20455243373231526563656976657220696d706c656d656e7465724f776e61626c653a206e6577206f776e657220697320746865207a65726f20616464726573734552433732313a207472616e7366657220746f20746865207a65726f206164647265737345434453413a20696e76616c6964207369676e6174757265202773272076616c7565416464726573733a20696e73756666696369656e742062616c616e636520666f722063616c6c4552433732313a206f70657261746f7220717565727920666f72206e6f6e6578697374656e7420746f6b656e4552433732313a20617070726f76652063616c6c6572206973206e6f74206f776e6572206e6f7220617070726f76656420666f7220616c6c4552433732313a2062616c616e636520717565727920666f7220746865207a65726f20616464726573734552433732313a206f776e657220717565727920666f72206e6f6e6578697374656e7420746f6b656e496e697469616c697a61626c653a20636f6e747261637420697320616c726561647920696e697469616c697a656445434453413a20696e76616c6964207369676e6174757265202776272076616c7565456e756d657261626c654d61703a20696e646578206f7574206f6620626f756e64734552433732314275726e61626c653a2063616c6c6572206973206e6f74206f776e65722c206e6f74206275726e4552433732313a20617070726f76656420717565727920666f72206e6f6e6578697374656e7420746f6b656e4552433732314d657461646174613a2055524920736574206f66206e6f6e6578697374656e7420746f6b656e4552433732313a207472616e73666572206f6620746f6b656e2074686174206973206e6f74206f776e4552433732314d657461646174613a2055524920717565727920666f72206e6f6e6578697374656e7420746f6b656eddf252ad1be2c89b69c2b068fc378daa952ba7f163c4a11628f55a4df523b3ef4552433732313a20617070726f76616c20746f2063757272656e74206f776e65724552433732313a207472616e736665722063616c6c6572206973206e6f74206f776e6572206e6f7220617070726f766564526f79616c747920746f74616c2076616c75652073686f756c64206265203c2031303030304552433732314275726e61626c653a2063616c6c6572206973206e6f74206f776e6572206e6f7220617070726f766564a2646970667358221220679f5d533664e84c08c3d918682c335e63d7033504d5bb2632d93932493f86a464736f6c63430007060033",
  "devdoc": {
    "kind": "dev",
    "methods": {
      "approve(address,uint256)": {
        "details": "See {IERC721-approve}."
      },
      "balanceOf(address)": {
        "details": "See {IERC721-balanceOf}."
      },
      "baseURI()": {
        "details": "Returns the base URI set via {_setBaseURI}. This will be automatically added as a prefix in {tokenURI} to each token's URI, or to the token ID if no specific URI is set for that token ID."
      },
      "burn(uint256)": {
        "details": "Burns `tokenId`. See {ERC721-_burn}. Requirements: - The caller must own `tokenId` or be an approved operator."
      },
      "getApproved(uint256)": {
        "details": "See {IERC721-getApproved}."
      },
      "name()": {
        "details": "See {IERC721Metadata-name}."
      },
      "owner()": {
        "details": "Returns the address of the current owner."
      },
      "ownerOf(uint256)": {
        "details": "See {IERC721-ownerOf}."
      },
      "renounceOwnership()": {
        "details": "Leaves the contract without owner. It will not be possible to call `onlyOwner` functions anymore. Can only be called by the current owner. NOTE: Renouncing ownership will leave the contract without an owner, thereby removing any functionality that is only available to the owner."
      },
      "safeTransferFrom(address,address,uint256)": {
        "details": "See {IERC721-safeTransferFrom}."
      },
      "safeTransferFrom(address,address,uint256,bytes)": {
        "details": "See {IERC721-safeTransferFrom}."
      },
      "setApprovalForAll(address,bool)": {
        "details": "See {IERC721-setApprovalForAll}."
      },
      "symbol()": {
        "details": "See {IERC721Metadata-symbol}."
      },
      "tokenByIndex(uint256)": {
        "details": "See {IERC721Enumerable-tokenByIndex}."
      },
      "tokenOfOwnerByIndex(address,uint256)": {
        "details": "See {IERC721Enumerable-tokenOfOwnerByIndex}."
      },
      "tokenURI(uint256)": {
        "details": "See {IERC721Metadata-tokenURI}."
      },
      "totalSupply()": {
        "details": "See {IERC721Enumerable-totalSupply}."
      },
      "transferFrom(address,address,uint256)": {
        "details": "See {IERC721-transferFrom}."
      },
      "transferOwnership(address)": {
        "details": "Transfers ownership of the contract to a new account (`newOwner`). Can only be called by the current owner."
      }
    },
    "version": 1
  },
  "userdoc": {
    "kind": "user",
    "methods": {},
    "version": 1
  },
  "storageLayout": {
    "storage": [
      {
        "astId": 739,
        "contract": "@rarible/tokens/contracts/erc-721/ERC721Rarible.sol:ERC721Rarible",
        "label": "_initialized",
        "offset": 0,
        "slot": "0",
        "type": "t_bool"
      },
      {
        "astId": 742,
        "contract": "@rarible/tokens/contracts/erc-721/ERC721Rarible.sol:ERC721Rarible",
        "label": "_initializing",
        "offset": 1,
        "slot": "0",
        "type": "t_bool"
      },
      {
        "astId": 4256,
        "contract": "@rarible/tokens/contracts/erc-721/ERC721Rarible.sol:ERC721Rarible",
        "label": "__gap",
        "offset": 0,
        "slot": "1",
        "type": "t_array(t_uint256)50_storage"
      },
      {
        "astId": 10,
        "contract": "@rarible/tokens/contracts/erc-721/ERC721Rarible.sol:ERC721Rarible",
        "label": "_owner",
        "offset": 0,
        "slot": "51",
        "type": "t_address"
      },
      {
        "astId": 129,
        "contract": "@rarible/tokens/contracts/erc-721/ERC721Rarible.sol:ERC721Rarible",
        "label": "__gap",
        "offset": 0,
        "slot": "52",
        "type": "t_array(t_uint256)49_storage"
      },
      {
        "astId": 307,
        "contract": "@rarible/tokens/contracts/erc-721/ERC721Rarible.sol:ERC721Rarible",
        "label": "_supportedInterfaces",
        "offset": 0,
        "slot": "101",
        "type": "t_mapping(t_bytes4,t_bool)"
      },
      {
        "astId": 364,
        "contract": "@rarible/tokens/contracts/erc-721/ERC721Rarible.sol:ERC721Rarible",
        "label": "__gap",
        "offset": 0,
        "slot": "102",
        "type": "t_array(t_uint256)49_storage"
      },
      {
        "astId": 28228,
        "contract": "@rarible/tokens/contracts/erc-721/ERC721Rarible.sol:ERC721Rarible",
        "label": "_holderTokens",
        "offset": 0,
        "slot": "151",
        "type": "t_mapping(t_address,t_struct(UintSet)5214_storage)"
      },
      {
        "astId": 28230,
        "contract": "@rarible/tokens/contracts/erc-721/ERC721Rarible.sol:ERC721Rarible",
        "label": "_tokenOwners",
        "offset": 0,
        "slot": "152",
        "type": "t_struct(UintToAddressMap)4591_storage"
      },
      {
        "astId": 28234,
        "contract": "@rarible/tokens/contracts/erc-721/ERC721Rarible.sol:ERC721Rarible",
        "label": "_tokenApprovals",
        "offset": 0,
        "slot": "154",
        "type": "t_mapping(t_uint256,t_address)"
      },
      {
        "astId": 28240,
        "contract": "@rarible/tokens/contracts/erc-721/ERC721Rarible.sol:ERC721Rarible",
        "label": "_operatorApprovals",
        "offset": 0,
        "slot": "155",
        "type": "t_mapping(t_address,t_mapping(t_address,t_bool))"
      },
      {
        "astId": 28242,
        "contract": "@rarible/tokens/contracts/erc-721/ERC721Rarible.sol:ERC721Rarible",
        "label": "_name",
        "offset": 0,
        "slot": "156",
        "type": "t_string_storage"
      },
      {
        "astId": 28244,
        "contract": "@rarible/tokens/contracts/erc-721/ERC721Rarible.sol:ERC721Rarible",
        "label": "_symbol",
        "offset": 0,
        "slot": "157",
        "type": "t_string_storage"
      },
      {
        "astId": 28248,
        "contract": "@rarible/tokens/contracts/erc-721/ERC721Rarible.sol:ERC721Rarible",
        "label": "_tokenURIs",
        "offset": 0,
        "slot": "158",
        "type": "t_mapping(t_uint256,t_string_storage)"
      },
      {
        "astId": 28250,
        "contract": "@rarible/tokens/contracts/erc-721/ERC721Rarible.sol:ERC721Rarible",
        "label": "_baseURI",
        "offset": 0,
        "slot": "159",
        "type": "t_string_storage"
      },
      {
        "astId": 28263,
        "contract": "@rarible/tokens/contracts/erc-721/ERC721Rarible.sol:ERC721Rarible",
        "label": "_burnedTokens",
        "offset": 0,
        "slot": "160",
        "type": "t_mapping(t_uint256,t_bool)"
      },
      {
        "astId": 29188,
        "contract": "@rarible/tokens/contracts/erc-721/ERC721Rarible.sol:ERC721Rarible",
        "label": "__gap",
        "offset": 0,
        "slot": "161",
        "type": "t_array(t_uint256)40_storage"
      },
      {
        "astId": 27504,
        "contract": "@rarible/tokens/contracts/erc-721/ERC721Rarible.sol:ERC721Rarible",
        "label": "defaultApprovals",
        "offset": 0,
        "slot": "201",
        "type": "t_mapping(t_address,t_bool)"
      },
      {
        "astId": 27575,
        "contract": "@rarible/tokens/contracts/erc-721/ERC721Rarible.sol:ERC721Rarible",
        "label": "__gap",
        "offset": 0,
        "slot": "202",
        "type": "t_array(t_uint256)50_storage"
      },
      {
        "astId": 27494,
        "contract": "@rarible/tokens/contracts/erc-721/ERC721Rarible.sol:ERC721Rarible",
        "label": "__gap",
        "offset": 0,
        "slot": "252",
        "type": "t_array(t_uint256)50_storage"
      },
      {
        "astId": 138,
        "contract": "@rarible/tokens/contracts/erc-721/ERC721Rarible.sol:ERC721Rarible",
        "label": "_HASHED_NAME",
        "offset": 0,
        "slot": "302",
        "type": "t_bytes32"
      },
      {
        "astId": 140,
        "contract": "@rarible/tokens/contracts/erc-721/ERC721Rarible.sol:ERC721Rarible",
        "label": "_HASHED_VERSION",
        "offset": 0,
        "slot": "303",
        "type": "t_bytes32"
      },
      {
        "astId": 289,
        "contract": "@rarible/tokens/contracts/erc-721/ERC721Rarible.sol:ERC721Rarible",
        "label": "__gap",
        "offset": 0,
        "slot": "304",
        "type": "t_array(t_uint256)50_storage"
      },
      {
        "astId": 25071,
        "contract": "@rarible/tokens/contracts/erc-721/ERC721Rarible.sol:ERC721Rarible",
        "label": "__gap",
        "offset": 0,
        "slot": "354",
        "type": "t_array(t_uint256)50_storage"
      },
      {
        "astId": 21206,
        "contract": "@rarible/tokens/contracts/erc-721/ERC721Rarible.sol:ERC721Rarible",
        "label": "__gap",
        "offset": 0,
        "slot": "404",
        "type": "t_array(t_uint256)50_storage"
      },
      {
        "astId": 20222,
        "contract": "@rarible/tokens/contracts/erc-721/ERC721Rarible.sol:ERC721Rarible",
        "label": "royalties",
        "offset": 0,
        "slot": "454",
        "type": "t_mapping(t_uint256,t_array(t_struct(Part)18028_storage)dyn_storage)"
      },
      {
        "astId": 27620,
        "contract": "@rarible/tokens/contracts/erc-721/ERC721Rarible.sol:ERC721Rarible",
        "label": "creators",
        "offset": 0,
        "slot": "455",
        "type": "t_mapping(t_uint256,t_array(t_struct(Part)18028_storage)dyn_storage)"
      },
      {
        "astId": 28064,
        "contract": "@rarible/tokens/contracts/erc-721/ERC721Rarible.sol:ERC721Rarible",
        "label": "__gap",
        "offset": 0,
        "slot": "456",
        "type": "t_array(t_uint256)50_storage"
      },
      {
        "astId": 21047,
        "contract": "@rarible/tokens/contracts/erc-721/ERC721Rarible.sol:ERC721Rarible",
        "label": "contractURI",
        "offset": 0,
        "slot": "506",
        "type": "t_string_storage"
      },
      {
        "astId": 21081,
        "contract": "@rarible/tokens/contracts/erc-721/ERC721Rarible.sol:ERC721Rarible",
        "label": "__gap",
        "offset": 0,
        "slot": "507",
        "type": "t_array(t_uint256)49_storage"
      },
      {
        "astId": 27408,
        "contract": "@rarible/tokens/contracts/erc-721/ERC721Rarible.sol:ERC721Rarible",
        "label": "__gap",
        "offset": 0,
        "slot": "556",
        "type": "t_array(t_uint256)50_storage"
      },
      {
        "astId": 28177,
        "contract": "@rarible/tokens/contracts/erc-721/ERC721Rarible.sol:ERC721Rarible",
        "label": "__gap",
        "offset": 0,
        "slot": "606",
        "type": "t_array(t_uint256)50_storage"
      }
    ],
    "types": {
      "t_address": {
        "encoding": "inplace",
        "label": "address",
        "numberOfBytes": "20"
      },
      "t_address_payable": {
        "encoding": "inplace",
        "label": "address payable",
        "numberOfBytes": "20"
      },
      "t_array(t_bytes32)dyn_storage": {
        "base": "t_bytes32",
        "encoding": "dynamic_array",
        "label": "bytes32[]",
        "numberOfBytes": "32"
      },
      "t_array(t_struct(MapEntry)4265_storage)dyn_storage": {
        "base": "t_struct(MapEntry)4265_storage",
        "encoding": "dynamic_array",
        "label": "struct EnumerableMapUpgradeable.MapEntry[]",
        "numberOfBytes": "32"
      },
      "t_array(t_struct(Part)18028_storage)dyn_storage": {
        "base": "t_struct(Part)18028_storage",
        "encoding": "dynamic_array",
        "label": "struct LibPart.Part[]",
        "numberOfBytes": "32"
      },
      "t_array(t_uint256)40_storage": {
        "base": "t_uint256",
        "encoding": "inplace",
        "label": "uint256[40]",
        "numberOfBytes": "1280"
      },
      "t_array(t_uint256)49_storage": {
        "base": "t_uint256",
        "encoding": "inplace",
        "label": "uint256[49]",
        "numberOfBytes": "1568"
      },
      "t_array(t_uint256)50_storage": {
        "base": "t_uint256",
        "encoding": "inplace",
        "label": "uint256[50]",
        "numberOfBytes": "1600"
      },
      "t_bool": {
        "encoding": "inplace",
        "label": "bool",
        "numberOfBytes": "1"
      },
      "t_bytes32": {
        "encoding": "inplace",
        "label": "bytes32",
        "numberOfBytes": "32"
      },
      "t_bytes4": {
        "encoding": "inplace",
        "label": "bytes4",
        "numberOfBytes": "4"
      },
      "t_mapping(t_address,t_bool)": {
        "encoding": "mapping",
        "key": "t_address",
        "label": "mapping(address => bool)",
        "numberOfBytes": "32",
        "value": "t_bool"
      },
      "t_mapping(t_address,t_mapping(t_address,t_bool))": {
        "encoding": "mapping",
        "key": "t_address",
        "label": "mapping(address => mapping(address => bool))",
        "numberOfBytes": "32",
        "value": "t_mapping(t_address,t_bool)"
      },
      "t_mapping(t_address,t_struct(UintSet)5214_storage)": {
        "encoding": "mapping",
        "key": "t_address",
        "label": "mapping(address => struct EnumerableSetUpgradeable.UintSet)",
        "numberOfBytes": "32",
        "value": "t_struct(UintSet)5214_storage"
      },
      "t_mapping(t_bytes32,t_uint256)": {
        "encoding": "mapping",
        "key": "t_bytes32",
        "label": "mapping(bytes32 => uint256)",
        "numberOfBytes": "32",
        "value": "t_uint256"
      },
      "t_mapping(t_bytes4,t_bool)": {
        "encoding": "mapping",
        "key": "t_bytes4",
        "label": "mapping(bytes4 => bool)",
        "numberOfBytes": "32",
        "value": "t_bool"
      },
      "t_mapping(t_uint256,t_address)": {
        "encoding": "mapping",
        "key": "t_uint256",
        "label": "mapping(uint256 => address)",
        "numberOfBytes": "32",
        "value": "t_address"
      },
      "t_mapping(t_uint256,t_array(t_struct(Part)18028_storage)dyn_storage)": {
        "encoding": "mapping",
        "key": "t_uint256",
        "label": "mapping(uint256 => struct LibPart.Part[])",
        "numberOfBytes": "32",
        "value": "t_array(t_struct(Part)18028_storage)dyn_storage"
      },
      "t_mapping(t_uint256,t_bool)": {
        "encoding": "mapping",
        "key": "t_uint256",
        "label": "mapping(uint256 => bool)",
        "numberOfBytes": "32",
        "value": "t_bool"
      },
      "t_mapping(t_uint256,t_string_storage)": {
        "encoding": "mapping",
        "key": "t_uint256",
        "label": "mapping(uint256 => string)",
        "numberOfBytes": "32",
        "value": "t_string_storage"
      },
      "t_string_storage": {
        "encoding": "bytes",
        "label": "string",
        "numberOfBytes": "32"
      },
      "t_struct(Map)4273_storage": {
        "encoding": "inplace",
        "label": "struct EnumerableMapUpgradeable.Map",
        "members": [
          {
            "astId": 4268,
            "contract": "@rarible/tokens/contracts/erc-721/ERC721Rarible.sol:ERC721Rarible",
            "label": "_entries",
            "offset": 0,
            "slot": "0",
            "type": "t_array(t_struct(MapEntry)4265_storage)dyn_storage"
          },
          {
            "astId": 4272,
            "contract": "@rarible/tokens/contracts/erc-721/ERC721Rarible.sol:ERC721Rarible",
            "label": "_indexes",
            "offset": 0,
            "slot": "1",
            "type": "t_mapping(t_bytes32,t_uint256)"
          }
        ],
        "numberOfBytes": "64"
      },
      "t_struct(MapEntry)4265_storage": {
        "encoding": "inplace",
        "label": "struct EnumerableMapUpgradeable.MapEntry",
        "members": [
          {
            "astId": 4262,
            "contract": "@rarible/tokens/contracts/erc-721/ERC721Rarible.sol:ERC721Rarible",
            "label": "_key",
            "offset": 0,
            "slot": "0",
            "type": "t_bytes32"
          },
          {
            "astId": 4264,
            "contract": "@rarible/tokens/contracts/erc-721/ERC721Rarible.sol:ERC721Rarible",
            "label": "_value",
            "offset": 0,
            "slot": "1",
            "type": "t_bytes32"
          }
        ],
        "numberOfBytes": "64"
      },
      "t_struct(Part)18028_storage": {
        "encoding": "inplace",
        "label": "struct LibPart.Part",
        "members": [
          {
            "astId": 18025,
            "contract": "@rarible/tokens/contracts/erc-721/ERC721Rarible.sol:ERC721Rarible",
            "label": "account",
            "offset": 0,
            "slot": "0",
            "type": "t_address_payable"
          },
          {
            "astId": 18027,
            "contract": "@rarible/tokens/contracts/erc-721/ERC721Rarible.sol:ERC721Rarible",
            "label": "value",
            "offset": 20,
            "slot": "0",
            "type": "t_uint96"
          }
        ],
        "numberOfBytes": "32"
      },
      "t_struct(Set)4828_storage": {
        "encoding": "inplace",
        "label": "struct EnumerableSetUpgradeable.Set",
        "members": [
          {
            "astId": 4823,
            "contract": "@rarible/tokens/contracts/erc-721/ERC721Rarible.sol:ERC721Rarible",
            "label": "_values",
            "offset": 0,
            "slot": "0",
            "type": "t_array(t_bytes32)dyn_storage"
          },
          {
            "astId": 4827,
            "contract": "@rarible/tokens/contracts/erc-721/ERC721Rarible.sol:ERC721Rarible",
            "label": "_indexes",
            "offset": 0,
            "slot": "1",
            "type": "t_mapping(t_bytes32,t_uint256)"
          }
        ],
        "numberOfBytes": "64"
      },
      "t_struct(UintSet)5214_storage": {
        "encoding": "inplace",
        "label": "struct EnumerableSetUpgradeable.UintSet",
        "members": [
          {
            "astId": 5213,
            "contract": "@rarible/tokens/contracts/erc-721/ERC721Rarible.sol:ERC721Rarible",
            "label": "_inner",
            "offset": 0,
            "slot": "0",
            "type": "t_struct(Set)4828_storage"
          }
        ],
        "numberOfBytes": "64"
      },
      "t_struct(UintToAddressMap)4591_storage": {
        "encoding": "inplace",
        "label": "struct EnumerableMapUpgradeable.UintToAddressMap",
        "members": [
          {
            "astId": 4590,
            "contract": "@rarible/tokens/contracts/erc-721/ERC721Rarible.sol:ERC721Rarible",
            "label": "_inner",
            "offset": 0,
            "slot": "0",
            "type": "t_struct(Map)4273_storage"
          }
        ],
        "numberOfBytes": "64"
      },
      "t_uint256": {
        "encoding": "inplace",
        "label": "uint256",
        "numberOfBytes": "32"
      },
      "t_uint96": {
        "encoding": "inplace",
        "label": "uint96",
        "numberOfBytes": "12"
      }
    }
  }
}