{
  "address": "0xDBFf4Dd1b930bB0446c43bF710D6E8BAd14c27c5",
  "abi": [
    {
      "inputs": [],
      "name": "ProxyDeploymentFailed",
      "type": "error"
    },
    {
      "anonymous": false,
      "inputs": [
        {
          "indexed": true,
          "internalType": "address",
          "name": "implementation",
          "type": "address"
        },
        {
          "indexed": false,
          "internalType": "address",
          "name": "proxy",
          "type": "address"
        },
        {
          "indexed": true,
          "internalType": "address",
          "name": "deployer",
          "type": "address"
        }
      ],
      "name": "ProxyDeployed",
      "type": "event"
    },
    {
      "anonymous": false,
      "inputs": [
        {
          "indexed": true,
          "internalType": "address",
          "name": "implementation",
          "type": "address"
        },
        {
          "indexed": true,
          "internalType": "address",
          "name": "proxy",
          "type": "address"
        },
        {
          "indexed": true,
          "internalType": "address",
          "name": "deployer",
          "type": "address"
        },
        {
          "indexed": false,
          "internalType": "bytes32",
          "name": "inputSalt",
          "type": "bytes32"
        },
        {
          "indexed": false,
          "internalType": "bytes",
          "name": "data",
          "type": "bytes"
        },
        {
          "indexed": false,
          "internalType": "bytes",
          "name": "extraData",
          "type": "bytes"
        }
      ],
      "name": "ProxyDeployedV2",
      "type": "event"
    },
    {
      "inputs": [
        {
          "internalType": "address",
          "name": "_implementation",
          "type": "address"
        },
        {
          "internalType": "bytes",
          "name": "_data",
          "type": "bytes"
        },
        {
          "internalType": "bytes32",
          "name": "_salt",
          "type": "bytes32"
        }
      ],
      "name": "deployProxyByImplementation",
      "outputs": [
        {
          "internalType": "address",
          "name": "deployedProxy",
          "type": "address"
        }
      ],
      "stateMutability": "nonpayable",
      "type": "function"
    },
    {
      "inputs": [
        {
          "internalType": "address",
          "name": "implementation",
          "type": "address"
        },
        {
          "internalType": "bytes",
          "name": "data",
          "type": "bytes"
        },
        {
          "internalType": "bytes32",
          "name": "salt",
          "type": "bytes32"
        },
        {
          "internalType": "bytes",
          "name": "extraData",
          "type": "bytes"
        }
      ],
      "name": "deployProxyByImplementationV2",
      "outputs": [
        {
          "internalType": "address",
          "name": "deployedProxy",
          "type": "address"
        }
      ],
      "stateMutability": "nonpayable",
      "type": "function"
    }
  ],
  "transactionHash": "0xee187438ba154a73a64ddbb3d717ebf2565ee5757ec22544e6fa66051ba42772",
  "args": [],
  "numDeployments": 1,
  "solcInputHash": "ea87a6e19b93c07b3b720369cc097ca4",
  "bytecode": "0x6080604052348015600f57600080fd5b506108468061001f6000396000f3fe608060405234801561001057600080fd5b50600436106100365760003560e01c806311b804ab1461003b578063d057c8b114610077575b600080fd5b61004e610049366004610637565b61008a565b60405173ffffffffffffffffffffffffffffffffffffffff909116815260200160405180910390f35b61004e61008536600461068f565b6101f0565b6040517fffffffffffffffffffffffffffffffffffffffff0000000000000000000000003360601b1660208201526034810182905260009081906054016040516020818303038152906040528051906020012090506100e98582610341565b60405173ffffffffffffffffffffffffffffffffffffffff808316825291935033918716907f9e0862c4ebff2150fbbfd3f8547483f55bdec0c34fd977d3fccaa55d6c4ce7849060200160405180910390a38351156101e85760008273ffffffffffffffffffffffffffffffffffffffff16856040516101699190610736565b6000604051808303816000865af19150503d80600081146101a6576040519150601f19603f3d011682016040523d82523d6000602084013e6101ab565b606091505b50509050806101e6576040517fd853e20800000000000000000000000000000000000000000000000000000000815260040160405180910390fd5b505b509392505050565b6000806101fd8486610356565b90506102098682610341565b91503373ffffffffffffffffffffffffffffffffffffffff168273ffffffffffffffffffffffffffffffffffffffff168773ffffffffffffffffffffffffffffffffffffffff167fce771ab142d4dae572f01bd7e3eb77c8241179ce1a8128451099727badfba64e8789886040516102839392919061079c565b60405180910390a48451156103385760008273ffffffffffffffffffffffffffffffffffffffff16866040516102b99190610736565b6000604051808303816000865af19150503d80600081146102f6576040519150601f19603f3d011682016040523d82523d6000602084013e6102fb565b606091505b5050905080610336576040517fd853e20800000000000000000000000000000000000000000000000000000000815260040160405180910390fd5b505b50949350505050565b600061034f600084846104bc565b9392505050565b600082811a60f81b7f01000000000000000000000000000000000000000000000000000000000000008116158015917f020000000000000000000000000000000000000000000000000000000000000081161515917f0400000000000000000000000000000000000000000000000000000000000000909116151590849084906103dd5750825b156104125786866040516020016103f59291906107c7565b60405160208183030381529060405280519060200120905061048d565b83801561041d575082155b15610433576040805160208101899052016103f5565b8315801561043e5750825b15610458578646876040516020016103f5939291906107e8565b8646604051602001610474929190918252602082015260400190565b6040516020818303038152906040528051906020012090505b81156104b2576040805160208101839052338183015281518082038301905260600190525b9695505050505050565b60006c5af43d3d93803e602a57fd5bf36021528260145273602c3d8160093d39f33d3d3d3d363d3d37363d73600052816035600c86f59050806105075763301164256000526004601cfd5b60006021529392505050565b803573ffffffffffffffffffffffffffffffffffffffff8116811461053757600080fd5b919050565b7f4e487b7100000000000000000000000000000000000000000000000000000000600052604160045260246000fd5b600082601f83011261057c57600080fd5b813567ffffffffffffffff8111156105965761059661053c565b6040517fffffffffffffffffffffffffffffffffffffffffffffffffffffffffffffffe0603f7fffffffffffffffffffffffffffffffffffffffffffffffffffffffffffffffe0601f8501160116810181811067ffffffffffffffff821117156106025761060261053c565b60405281815283820160200185101561061a57600080fd5b816020850160208301376000918101602001919091529392505050565b60008060006060848603121561064c57600080fd5b61065584610513565b9250602084013567ffffffffffffffff81111561067157600080fd5b61067d8682870161056b565b93969395505050506040919091013590565b600080600080608085870312156106a557600080fd5b6106ae85610513565b9350602085013567ffffffffffffffff8111156106ca57600080fd5b6106d68782880161056b565b93505060408501359150606085013567ffffffffffffffff8111156106fa57600080fd5b6107068782880161056b565b91505092959194509250565b60005b8381101561072d578181015183820152602001610715565b50506000910152565b60008251610748818460208701610712565b9190910192915050565b6000815180845261076a816020860160208601610712565b601f017fffffffffffffffffffffffffffffffffffffffffffffffffffffffffffffffe0169290920160200192915050565b8381526060602082015260006107b56060830185610752565b82810360408401526104b28185610752565b8281526040602082015260006107e06040830184610752565b949350505050565b8381528260208201526060604082015260006108076060830184610752565b9594505050505056fea264697066735822122088b8c3eaba4d3a6458fdd052e48ab4203a38fe6326795d0170ec094a4aab8e0164736f6c634300081a0033"
}