{
  "contractName": "ERC1155LazyMintTransferProxy",
  "abi": [
    {
      "anonymous": false,
      "inputs": [
        {
          "indexed": true,
          "internalType": "address",
          "name": "previousOwner",
          "type": "address"
        },
        {
          "indexed": true,
          "internalType": "address",
          "name": "newOwner",
          "type": "address"
        }
      ],
      "name": "OwnershipTransferred",
      "type": "event"
    },
    {
      "inputs": [],
      "name": "__OperatorRole_init",
      "outputs": [],
      "stateMutability": "nonpayable",
      "type": "function"
    },
    {
      "inputs": [
        {
          "internalType": "address",
          "name": "operator",
          "type": "address"
        }
      ],
      "name": "addOperator",
      "outputs": [],
      "stateMutability": "nonpayable",
      "type": "function"
    },
    {
      "inputs": [],
      "name": "owner",
      "outputs": [
        {
          "internalType": "address",
          "name": "",
          "type": "address"
        }
      ],
      "stateMutability": "view",
      "type": "function"
    },
    {
      "inputs": [
        {
          "internalType": "address",
          "name": "operator",
          "type": "address"
        }
      ],
      "name": "removeOperator",
      "outputs": [],
      "stateMutability": "nonpayable",
      "type": "function"
    },
    {
      "inputs": [],
      "name": "renounceOwnership",
      "outputs": [],
      "stateMutability": "nonpayable",
      "type": "function"
    },
    {
      "inputs": [
        {
          "internalType": "address",
          "name": "newOwner",
          "type": "address"
        }
      ],
      "name": "transferOwnership",
      "outputs": [],
      "stateMutability": "nonpayable",
      "type": "function"
    },
    {
      "inputs": [
        {
          "components": [
            {
              "components": [
                {
                  "internalType": "bytes4",
                  "name": "tp",
                  "type": "bytes4"
                },
                {
                  "internalType": "bytes",
                  "name": "data",
                  "type": "bytes"
                }
              ],
              "internalType": "struct LibAsset.AssetType",
              "name": "assetType",
              "type": "tuple"
            },
            {
              "internalType": "uint256",
              "name": "amount",
              "type": "uint256"
            }
          ],
          "internalType": "struct LibAsset.Asset",
          "name": "asset",
          "type": "tuple"
        },
        {
          "internalType": "address",
          "name": "",
          "type": "address"
        },
        {
          "internalType": "address",
          "name": "to",
          "type": "address"
        }
      ],
      "name": "transfer",
      "outputs": [],
      "stateMutability": "nonpayable",
      "type": "function"
    }
  ],
  "bytecode": "0x608060405234801561001057600080fd5b50610e9f806100206000396000f3fe608060405234801561001057600080fd5b506004361061007d5760003560e01c80638da5cb5b1161005b5780638da5cb5b146100a75780639870d7fe146100c5578063ac8a584a146100d8578063f2fde38b146100eb5761007d565b80632ff26a0a1461008257806354bc0cf11461008c578063715018a61461009f575b600080fd5b61008a6100fe565b005b61008a61009a366004610a26565b6101b0565b61008a6102a5565b6100af610351565b6040516100bc9190610c34565b60405180910390f35b61008a6100d336600461090c565b610360565b61008a6100e636600461090c565b6103e6565b61008a6100f936600461090c565b610469565b600054610100900460ff1680610117575061011761056c565b80610125575060005460ff16155b6101605760405162461bcd60e51b815260040180806020018281038252602e815260200180610df4602e913960400191505060405180910390fd5b600054610100900460ff1615801561018b576000805460ff1961ff0019909116610100171660011790555b61019361057d565b61019b61061d565b80156101ad576000805461ff00191690555b50565b606560006101bc610716565b6001600160a01b0316815260208101919091526040016000205460ff166102145760405162461bcd60e51b8152600401808060200182810382526028815260200180610e426028913960400191505060405180910390fd5b6000808460000151602001518060200190518101906102339190610928565b602087015160405163f6cd41e160e01b81529294509092506001600160a01b0384169163f6cd41e19161026c9185918891600401610c48565b600060405180830381600087803b15801561028657600080fd5b505af115801561029a573d6000803e3d6000fd5b505050505050505050565b6102ad610716565b6001600160a01b03166102be610351565b6001600160a01b031614610307576040805162461bcd60e51b81526020600482018190526024820152600080516020610e22833981519152604482015290519081900360640190fd5b6033546040516000916001600160a01b0316907f8be0079c531659141344cd1fd0a4f28419497f9722a3daafe3b4186f6b6457e0908390a3603380546001600160a01b0319169055565b6033546001600160a01b031690565b610368610716565b6001600160a01b0316610379610351565b6001600160a01b0316146103c2576040805162461bcd60e51b81526020600482018190526024820152600080516020610e22833981519152604482015290519081900360640190fd5b6001600160a01b03166000908152606560205260409020805460ff19166001179055565b6103ee610716565b6001600160a01b03166103ff610351565b6001600160a01b031614610448576040805162461bcd60e51b81526020600482018190526024820152600080516020610e22833981519152604482015290519081900360640190fd5b6001600160a01b03166000908152606560205260409020805460ff19169055565b610471610716565b6001600160a01b0316610482610351565b6001600160a01b0316146104cb576040805162461bcd60e51b81526020600482018190526024820152600080516020610e22833981519152604482015290519081900360640190fd5b6001600160a01b0381166105105760405162461bcd60e51b8152600401808060200182810382526026815260200180610dce6026913960400191505060405180910390fd5b6033546040516001600160a01b038084169216907f8be0079c531659141344cd1fd0a4f28419497f9722a3daafe3b4186f6b6457e090600090a3603380546001600160a01b0319166001600160a01b0392909216919091179055565b60006105773061071a565b15905090565b600054610100900460ff1680610596575061059661056c565b806105a4575060005460ff16155b6105df5760405162461bcd60e51b815260040180806020018281038252602e815260200180610df4602e913960400191505060405180910390fd5b600054610100900460ff1615801561019b576000805460ff1961ff00199091166101001716600117905580156101ad576000805461ff001916905550565b600054610100900460ff1680610636575061063661056c565b80610644575060005460ff16155b61067f5760405162461bcd60e51b815260040180806020018281038252602e815260200180610df4602e913960400191505060405180910390fd5b600054610100900460ff161580156106aa576000805460ff1961ff0019909116610100171660011790555b60006106b4610716565b603380546001600160a01b0319166001600160a01b038316908117909155604051919250906000907f8be0079c531659141344cd1fd0a4f28419497f9722a3daafe3b4186f6b6457e0908290a35080156101ad576000805461ff001916905550565b3390565b803b15155b919050565b600061073761073284610d66565b610d24565b905082815283838301111561074b57600080fd5b610759836020830184610d88565b9392505050565b803561071f81610db8565b600082601f83011261077b578081fd5b8151602061078b61073283610d48565b82815281810190858301838502870184018810156107a7578586fd5b855b858110156107ce5781516107bc81610db8565b845292840192908401906001016107a9565b5090979650505050505050565b600082601f8301126107eb578081fd5b815160206107fb61073283610d48565b82815281810190858301855b858110156107ce578151880189603f820112610821578788fd5b6108328a8783015160408401610724565b8552509284019290840190600101610807565b600082601f830112610855578081fd5b8151602061086561073283610d48565b82815281810190858301604080860288018501891015610883578687fd5b865b868110156108df5781838b03121561089b578788fd5b815182810181811067ffffffffffffffff821117156108b657fe5b835283516108c381610db8565b8152838701518782015285529385019391810191600101610885565b509198975050505050505050565b600082601f8301126108fd578081fd5b61075983835160208501610724565b60006020828403121561091d578081fd5b813561075981610db8565b6000806040838503121561093a578081fd5b825161094581610db8565b602084015190925067ffffffffffffffff80821115610962578283fd5b9084019060c08287031215610975578283fd5b61097f60c0610d24565b82518152602083015182811115610994578485fd5b6109a0888286016108ed565b602083015250604083015160408201526060830151828111156109c1578485fd5b6109cd8882860161076b565b6060830152506080830151828111156109e4578485fd5b6109f088828601610845565b60808301525060a083015182811115610a07578485fd5b610a13888286016107db565b60a0830152508093505050509250929050565b600080600060608486031215610a3a578081fd5b833567ffffffffffffffff80821115610a51578283fd5b81860191506040808389031215610a66578384fd5b80518181018181108482111715610a7957fe5b808352843584811115610a8a578687fd5b8501808b03841315610a9a578687fd5b608083018281108682111715610aac57fe5b845280356001600160e01b031981168114610ac5578788fd5b825260208181013586811115610ad9578889fd5b82019550601f86018c13610aeb578788fd5b85359150610afb61073283610d66565b8281528c82848901011115610b0e578889fd5b828288018383013788828483010152806060860152508284528087013581850152839950610b3d818c01610760565b985050505050610b4e818801610760565b93505050509250925092565b6001600160a01b03169052565b6000815180845260208085018081965082840281019150828601855b85811015610bad578284038952610b9b848351610c08565b98850198935090840190600101610b83565b5091979650505050505050565b6000815180845260208085019450808401835b83811015610bfd57815180516001600160a01b031688528301518388015260409096019590820190600101610bcd565b509495945050505050565b60008151808452610c20816020860160208601610d88565b601f01601f19169290920160200192915050565b6001600160a01b0391909116815260200190565b6000606082528451606083015260208086015160c06080850152610c70610120850182610c08565b604088015160a08601526060880151858203605f1990810160c08801528151808452918501935085929091908501905b80841015610cc95784516001600160a01b03168252938501936001939093019290850190610ca0565b5060808a01519350818782030160e0880152610ce58185610bba565b93505060a08901519150808684030161010087015250610d058282610b67565b93505050610d1581840186610b5a565b50826040830152949350505050565b60405181810167ffffffffffffffff81118282101715610d4057fe5b604052919050565b600067ffffffffffffffff821115610d5c57fe5b5060209081020190565b600067ffffffffffffffff821115610d7a57fe5b50601f01601f191660200190565b60005b83811015610da3578181015183820152602001610d8b565b83811115610db2576000848401525b50505050565b6001600160a01b03811681146101ad57600080fdfe4f776e61626c653a206e6577206f776e657220697320746865207a65726f2061646472657373496e697469616c697a61626c653a20636f6e747261637420697320616c726561647920696e697469616c697a65644f776e61626c653a2063616c6c6572206973206e6f7420746865206f776e65724f70657261746f72526f6c653a2063616c6c6572206973206e6f7420746865206f70657261746f72a26469706673582212205c443975f4ef1e9098e8486a90eaf467662f2ccf47722565394eee125df0fdbf64736f6c63430007060033",
  "immutableReferences": {},
  "source": "// SPDX-License-Identifier: MIT\n\npragma solidity >=0.6.9 <0.8.0;\npragma abicoder v2;\n\nimport \"../../exchange/v2/ITransferProxy.sol\";\nimport \"@rarible/lazy-mint/contracts/erc-1155/LibERC1155LazyMint.sol\";\nimport \"@rarible/lazy-mint/contracts/erc-1155/IERC1155LazyMint.sol\";\nimport \"../../roles/OperatorRole.sol\";\n\ncontract ERC1155LazyMintTransferProxy is OperatorRole, ITransferProxy {\n    function transfer(LibAsset.Asset memory asset, address, address to) override onlyOperator external {\n        (address token, LibERC1155LazyMint.Mint1155Data memory data) = abi.decode(asset.assetType.data, (address, LibERC1155LazyMint.Mint1155Data));\n        IERC1155LazyMint(token).mintAndTransfer(data, to, asset.amount);\n    }\n}\n",
  "sourcePath": "/home/quadro/Projects/tokenplace/interfaces/exchange-v2/contracts/lazy-mint/erc1155/ERC1155LazyMintTransferProxy.sol",
  "compiler": {
    "name": "solc",
    "version": "0.7.6+commit.7338295f.Emscripten.clang"
  },
  "schemaVersion": "3.3.4",
  "updatedAt": "2021-03-24T11:38:54.462Z",
  "devdoc": {
    "kind": "dev",
    "methods": {
      "owner()": {
        "details": "Returns the address of the current owner."
      },
      "renounceOwnership()": {
        "details": "Leaves the contract without owner. It will not be possible to call `onlyOwner` functions anymore. Can only be called by the current owner. NOTE: Renouncing ownership will leave the contract without an owner, thereby removing any functionality that is only available to the owner."
      },
      "transferOwnership(address)": {
        "details": "Transfers ownership of the contract to a new account (`newOwner`). Can only be called by the current owner."
      }
    },
    "version": 1
  },
  "userdoc": {
    "kind": "user",
    "methods": {},
    "version": 1
  }
}