{
  "contractName": "ERC20TransferProxy",
  "abi": [
    {
      "anonymous": false,
      "inputs": [
        {
          "indexed": true,
          "internalType": "address",
          "name": "previousOwner",
          "type": "address"
        },
        {
          "indexed": true,
          "internalType": "address",
          "name": "newOwner",
          "type": "address"
        }
      ],
      "name": "OwnershipTransferred",
      "type": "event"
    },
    {
      "inputs": [
        {
          "internalType": "address",
          "name": "operator",
          "type": "address"
        }
      ],
      "name": "addOperator",
      "outputs": [],
      "stateMutability": "nonpayable",
      "type": "function"
    },
    {
      "inputs": [],
      "name": "owner",
      "outputs": [
        {
          "internalType": "address",
          "name": "",
          "type": "address"
        }
      ],
      "stateMutability": "view",
      "type": "function"
    },
    {
      "inputs": [
        {
          "internalType": "address",
          "name": "operator",
          "type": "address"
        }
      ],
      "name": "removeOperator",
      "outputs": [],
      "stateMutability": "nonpayable",
      "type": "function"
    },
    {
      "inputs": [],
      "name": "renounceOwnership",
      "outputs": [],
      "stateMutability": "nonpayable",
      "type": "function"
    },
    {
      "inputs": [
        {
          "internalType": "address",
          "name": "newOwner",
          "type": "address"
        }
      ],
      "name": "transferOwnership",
      "outputs": [],
      "stateMutability": "nonpayable",
      "type": "function"
    },
    {
      "inputs": [],
      "name": "__ERC20TransferProxy_init",
      "outputs": [],
      "stateMutability": "nonpayable",
      "type": "function"
    },
    {
      "inputs": [
        {
          "internalType": "contract IERC20Upgradeable",
          "name": "token",
          "type": "address"
        },
        {
          "internalType": "address",
          "name": "from",
          "type": "address"
        },
        {
          "internalType": "address",
          "name": "to",
          "type": "address"
        },
        {
          "internalType": "uint256",
          "name": "value",
          "type": "uint256"
        }
      ],
      "name": "erc20safeTransferFrom",
      "outputs": [],
      "stateMutability": "nonpayable",
      "type": "function"
    }
  ],
  "bytecode": "0x608060405234801561001057600080fd5b50610949806100206000396000f3fe608060405234801561001057600080fd5b506004361061007d5760003560e01c80638da5cb5b1161005b5780638da5cb5b146100d05780639870d7fe146100f4578063ac8a584a1461011a578063f2fde38b146101405761007d565b8063715018a614610082578063759781271461008c578063776062c314610094575b600080fd5b61008a610166565b005b61008a610212565b61008a600480360360808110156100aa57600080fd5b506001600160a01b038135811691602081013582169160408201351690606001356102bc565b6100d861040b565b604080516001600160a01b039092168252519081900360200190f35b61008a6004803603602081101561010a57600080fd5b50356001600160a01b031661041a565b61008a6004803603602081101561013057600080fd5b50356001600160a01b03166104a0565b61008a6004803603602081101561015657600080fd5b50356001600160a01b0316610523565b61016e610626565b6001600160a01b031661017f61040b565b6001600160a01b0316146101c8576040805162461bcd60e51b815260206004820181905260248201526000805160206108cc833981519152604482015290519081900360640190fd5b6033546040516000916001600160a01b0316907f8be0079c531659141344cd1fd0a4f28419497f9722a3daafe3b4186f6b6457e0908390a3603380546001600160a01b0319169055565b600054610100900460ff168061022b575061022b61062a565b80610239575060005460ff16155b6102745760405162461bcd60e51b815260040180806020018281038252602e81526020018061089e602e913960400191505060405180910390fd5b600054610100900460ff1615801561029f576000805460ff1961ff0019909116610100171660011790555b6102a761063b565b80156102b9576000805461ff00191690555b50565b606560006102c8610626565b6001600160a01b0316815260208101919091526040016000205460ff166103205760405162461bcd60e51b81526004018080602001828103825260288152602001806108ec6028913960400191505060405180910390fd5b836001600160a01b03166323b872dd8484846040518463ffffffff1660e01b815260040180846001600160a01b03168152602001836001600160a01b031681526020018281526020019350505050602060405180830381600087803b15801561038857600080fd5b505af115801561039c573d6000803e3d6000fd5b505050506040513d60208110156103b257600080fd5b5051610405576040805162461bcd60e51b815260206004820152601a60248201527f6661696c757265207768696c65207472616e7366657272696e67000000000000604482015290519081900360640190fd5b50505050565b6033546001600160a01b031690565b610422610626565b6001600160a01b031661043361040b565b6001600160a01b03161461047c576040805162461bcd60e51b815260206004820181905260248201526000805160206108cc833981519152604482015290519081900360640190fd5b6001600160a01b03166000908152606560205260409020805460ff19166001179055565b6104a8610626565b6001600160a01b03166104b961040b565b6001600160a01b031614610502576040805162461bcd60e51b815260206004820181905260248201526000805160206108cc833981519152604482015290519081900360640190fd5b6001600160a01b03166000908152606560205260409020805460ff19169055565b61052b610626565b6001600160a01b031661053c61040b565b6001600160a01b031614610585576040805162461bcd60e51b815260206004820181905260248201526000805160206108cc833981519152604482015290519081900360640190fd5b6001600160a01b0381166105ca5760405162461bcd60e51b81526004018080602001828103825260268152602001806108786026913960400191505060405180910390fd5b6033546040516001600160a01b038084169216907f8be0079c531659141344cd1fd0a4f28419497f9722a3daafe3b4186f6b6457e090600090a3603380546001600160a01b0319166001600160a01b0392909216919091179055565b3390565b6000610635306106d8565b15905090565b600054610100900460ff1680610654575061065461062a565b80610662575060005460ff16155b61069d5760405162461bcd60e51b815260040180806020018281038252602e81526020018061089e602e913960400191505060405180910390fd5b600054610100900460ff161580156106c8576000805460ff1961ff0019909116610100171660011790555b6106d06106de565b6102a761077e565b3b151590565b600054610100900460ff16806106f757506106f761062a565b80610705575060005460ff16155b6107405760405162461bcd60e51b815260040180806020018281038252602e81526020018061089e602e913960400191505060405180910390fd5b600054610100900460ff161580156102a7576000805460ff1961ff00199091166101001716600117905580156102b9576000805461ff001916905550565b600054610100900460ff1680610797575061079761062a565b806107a5575060005460ff16155b6107e05760405162461bcd60e51b815260040180806020018281038252602e81526020018061089e602e913960400191505060405180910390fd5b600054610100900460ff1615801561080b576000805460ff1961ff0019909116610100171660011790555b6000610815610626565b603380546001600160a01b0319166001600160a01b038316908117909155604051919250906000907f8be0079c531659141344cd1fd0a4f28419497f9722a3daafe3b4186f6b6457e0908290a35080156102b9576000805461ff00191690555056fe4f776e61626c653a206e6577206f776e657220697320746865207a65726f2061646472657373496e697469616c697a61626c653a20636f6e747261637420697320616c726561647920696e697469616c697a65644f776e61626c653a2063616c6c6572206973206e6f7420746865206f776e65724f70657261746f72526f6c653a2063616c6c6572206973206e6f7420746865206f70657261746f72a264697066735822122095c09f0ba29f1935b6df8253f9e1d8bead5492f775a596ab87c604e871154d4d64736f6c63430007060033",
  "immutableReferences": {},
  "source": "// SPDX-License-Identifier: MIT\n\npragma solidity >=0.6.9 <0.8.0;\n\nimport \"../roles/OperatorRole.sol\";\nimport \"@openzeppelin/contracts-upgradeable/token/ERC20/IERC20Upgradeable.sol\";\n\ncontract ERC20TransferProxy is Initializable, OperatorRole {\n\n    function __ERC20TransferProxy_init() external initializer {\n        __Ownable_init();\n    }\n\n    function erc20safeTransferFrom(IERC20Upgradeable token, address from, address to, uint256 value) external onlyOperator {\n        require(token.transferFrom(from, to, value), \"failure while transferring\");\n    }\n}\n",
  "sourcePath": "/home/quadro/Projects/tokenplace/interfaces/exchange-v2/contracts/transfers/ERC20TransferProxy.sol",
  "compiler": {
    "name": "solc",
    "version": "0.7.6+commit.7338295f.Emscripten.clang"
  },
  "schemaVersion": "3.3.2",
  "updatedAt": "2021-03-18T10:24:19.213Z",
  "devdoc": {
    "kind": "dev",
    "methods": {
      "owner()": {
        "details": "Returns the address of the current owner."
      },
      "renounceOwnership()": {
        "details": "Leaves the contract without owner. It will not be possible to call `onlyOwner` functions anymore. Can only be called by the current owner. NOTE: Renouncing ownership will leave the contract without an owner, thereby removing any functionality that is only available to the owner."
      },
      "transferOwnership(address)": {
        "details": "Transfers ownership of the contract to a new account (`newOwner`). Can only be called by the current owner."
      }
    },
    "version": 1
  },
  "userdoc": {
    "kind": "user",
    "methods": {},
    "version": 1
  }
}