{
  "contractName": "ERC721LazyMintTransferProxy",
  "abi": [
    {
      "inputs": [
        {
          "components": [
            {
              "components": [
                {
                  "internalType": "bytes4",
                  "name": "tp",
                  "type": "bytes4"
                },
                {
                  "internalType": "bytes",
                  "name": "data",
                  "type": "bytes"
                }
              ],
              "internalType": "struct LibAsset.AssetType",
              "name": "assetType",
              "type": "tuple"
            },
            {
              "internalType": "uint256",
              "name": "amount",
              "type": "uint256"
            }
          ],
          "internalType": "struct LibAsset.Asset",
          "name": "asset",
          "type": "tuple"
        },
        {
          "internalType": "address",
          "name": "",
          "type": "address"
        },
        {
          "internalType": "address",
          "name": "to",
          "type": "address"
        }
      ],
      "name": "transfer",
      "outputs": [],
      "stateMutability": "nonpayable",
      "type": "function"
    }
  ],
  "bytecode": "0x608060405234801561001057600080fd5b506107c3806100206000396000f3fe608060405234801561001057600080fd5b506004361061002b5760003560e01c806354bc0cf114610030575b600080fd5b61004361003e3660046103de565b610045565b005b82602001516001146100725760405162461bcd60e51b8152600401610069906105ec565b60405180910390fd5b60008084600001516020015180602001905181019061009191906102ea565b60405163c2ae4dd560e01b815291935091506001600160a01b0383169063c2ae4dd5906100c49084908790600401610619565b600060405180830381600087803b1580156100de57600080fd5b505af11580156100f2573d6000803e3d6000fd5b505050505050505050565b600061011061010b84610723565b6106e1565b905082815283838301111561012457600080fd5b610132836020830184610745565b9392505050565b803561014481610775565b919050565b600082601f830112610159578081fd5b8151602061016961010b83610705565b8281528181019085830183850287018401881015610185578586fd5b855b858110156101ac57815161019a81610775565b84529284019290840190600101610187565b5090979650505050505050565b600082601f8301126101c9578081fd5b815160206101d961010b83610705565b82815281810190858301855b858110156101ac578151880189603f8201126101ff578788fd5b6102108a87830151604084016100fd565b85525092840192908401906001016101e5565b600082601f830112610233578081fd5b8151602061024361010b83610705565b82815281810190858301604080860288018501891015610261578687fd5b865b868110156102bd5781838b031215610279578788fd5b815182810181811067ffffffffffffffff8211171561029457fe5b835283516102a181610775565b8152838701518782015285529385019391810191600101610263565b509198975050505050505050565b600082601f8301126102db578081fd5b610132838351602085016100fd565b600080604083850312156102fc578182fd5b825161030781610775565b602084015190925067ffffffffffffffff80821115610324578283fd5b9084019060a08287031215610337578283fd5b61034160a06106e1565b82518152602083015182811115610356578485fd5b610362888286016102cb565b602083015250604083015182811115610379578485fd5b61038588828601610149565b60408301525060608301518281111561039c578485fd5b6103a888828601610223565b6060830152506080830151828111156103bf578485fd5b6103cb888286016101b9565b6080830152508093505050509250929050565b6000806000606084860312156103f2578081fd5b833567ffffffffffffffff80821115610409578283fd5b8186019150604080838903121561041e578384fd5b8051818101818110848211171561043157fe5b808352843584811115610442578687fd5b8501808b03841315610452578687fd5b60808301828110868211171561046457fe5b845280356001600160e01b03198116811461047d578788fd5b825260208181013586811115610491578889fd5b82019550601f86018c136104a3578788fd5b853591506104b361010b83610723565b8281528c828489010111156104c6578889fd5b8282880183830137888284830101528060608601525082845280870135818501528399506104f5818c01610139565b985050505050610506818801610139565b93505050509250925092565b6001600160a01b03169052565b6000815180845260208085018081965082840281019150828601855b858110156105655782840389526105538483516105c0565b9885019893509084019060010161053b565b5091979650505050505050565b6000815180845260208085019450808401835b838110156105b557815180516001600160a01b031688528301518388015260409096019590820190600101610585565b509495945050505050565b600081518084526105d8816020860160208601610745565b601f01601f19169290920160200192915050565b60208082526013908201527232b9319b99189030b6b7bab73a1032b93937b960691b604082015260600190565b6000604082528351604083015260208085015160a0606085015261064060e08501826105c0565b6040870151603f19868303810160808801528151808452918501935085929091908501905b8084101561068e5784516001600160a01b03168252938501936001939093019290850190610665565b5060608901519350818782030160a08801526106aa8185610572565b93505060808801519150808684030160c0870152506106c9828261051f565b935050506106d981840185610512565b509392505050565b60405181810167ffffffffffffffff811182821017156106fd57fe5b604052919050565b600067ffffffffffffffff82111561071957fe5b5060209081020190565b600067ffffffffffffffff82111561073757fe5b50601f01601f191660200190565b60005b83811015610760578181015183820152602001610748565b8381111561076f576000848401525b50505050565b6001600160a01b038116811461078a57600080fd5b5056fea2646970667358221220179741419c362d9ddc917a93f92379f2c040ae28621aaa592a1070e3d7c3e72c64736f6c63430007060033",
  "immutableReferences": {},
  "source": "// SPDX-License-Identifier: MIT\n\npragma solidity >=0.6.9 <0.8.0;\npragma abicoder v2;\n\nimport \"../../exchange/v2/ITransferProxy.sol\";\nimport \"@rarible/lazy-mint/contracts/erc-721/LibERC721LazyMint.sol\";\nimport \"@rarible/lazy-mint/contracts/erc-721/IERC721LazyMint.sol\";\n\ncontract ERC721LazyMintTransferProxy is ITransferProxy {\n    function transfer(LibAsset.Asset memory asset, address, address to) override external {\n        require(asset.amount == 1, \"erc721 amount error\");\n        (address token, LibERC721LazyMint.Mint721Data memory data) = abi.decode(asset.assetType.data, (address, LibERC721LazyMint.Mint721Data));\n        IERC721LazyMint(token).mintAndTransfer(data, to);\n    }\n}\n",
  "sourcePath": "/home/quadro/Projects/tokenplace/interfaces/exchange-v2/contracts/lazy-mint/erc721/ERC721LazyMintTransferProxy.sol",
  "compiler": {
    "name": "solc",
    "version": "0.7.6+commit.7338295f.Emscripten.clang"
  },
  "schemaVersion": "3.3.2",
  "updatedAt": "2021-03-18T10:24:19.203Z",
  "devdoc": {
    "kind": "dev",
    "methods": {},
    "version": 1
  },
  "userdoc": {
    "kind": "user",
    "methods": {},
    "version": 1
  }
}