{
  "contractName": "ERC721LazyMintTransferProxy",
  "abi": [
    {
      "anonymous": false,
      "inputs": [
        {
          "indexed": true,
          "internalType": "address",
          "name": "previousOwner",
          "type": "address"
        },
        {
          "indexed": true,
          "internalType": "address",
          "name": "newOwner",
          "type": "address"
        }
      ],
      "name": "OwnershipTransferred",
      "type": "event"
    },
    {
      "inputs": [],
      "name": "__OperatorRole_init",
      "outputs": [],
      "stateMutability": "nonpayable",
      "type": "function"
    },
    {
      "inputs": [
        {
          "internalType": "address",
          "name": "operator",
          "type": "address"
        }
      ],
      "name": "addOperator",
      "outputs": [],
      "stateMutability": "nonpayable",
      "type": "function"
    },
    {
      "inputs": [],
      "name": "owner",
      "outputs": [
        {
          "internalType": "address",
          "name": "",
          "type": "address"
        }
      ],
      "stateMutability": "view",
      "type": "function"
    },
    {
      "inputs": [
        {
          "internalType": "address",
          "name": "operator",
          "type": "address"
        }
      ],
      "name": "removeOperator",
      "outputs": [],
      "stateMutability": "nonpayable",
      "type": "function"
    },
    {
      "inputs": [],
      "name": "renounceOwnership",
      "outputs": [],
      "stateMutability": "nonpayable",
      "type": "function"
    },
    {
      "inputs": [
        {
          "internalType": "address",
          "name": "newOwner",
          "type": "address"
        }
      ],
      "name": "transferOwnership",
      "outputs": [],
      "stateMutability": "nonpayable",
      "type": "function"
    },
    {
      "inputs": [
        {
          "components": [
            {
              "components": [
                {
                  "internalType": "bytes4",
                  "name": "assetClass",
                  "type": "bytes4"
                },
                {
                  "internalType": "bytes",
                  "name": "data",
                  "type": "bytes"
                }
              ],
              "internalType": "struct LibAsset.AssetType",
              "name": "assetType",
              "type": "tuple"
            },
            {
              "internalType": "uint256",
              "name": "value",
              "type": "uint256"
            }
          ],
          "internalType": "struct LibAsset.Asset",
          "name": "asset",
          "type": "tuple"
        },
        {
          "internalType": "address",
          "name": "",
          "type": "address"
        },
        {
          "internalType": "address",
          "name": "to",
          "type": "address"
        }
      ],
      "name": "transfer",
      "outputs": [],
      "stateMutability": "nonpayable",
      "type": "function"
    }
  ],
  "bytecode": "0x608060405234801561001057600080fd5b50610e54806100206000396000f3fe608060405234801561001057600080fd5b506004361061007d5760003560e01c80638da5cb5b1161005b5780638da5cb5b146100a75780639870d7fe146100c5578063ac8a584a146100d8578063f2fde38b146100eb5761007d565b80632ff26a0a1461008257806354bc0cf11461008c578063715018a61461009f575b600080fd5b61008a6100fe565b005b61008a61009a3660046109f9565b6101b0565b61008a6102cc565b6100af610378565b6040516100bc9190610bc2565b60405180910390f35b61008a6100d33660046108e9565b610387565b61008a6100e63660046108e9565b61040d565b61008a6100f93660046108e9565b610490565b600054610100900460ff16806101175750610117610593565b80610125575060005460ff16155b6101605760405162461bcd60e51b815260040180806020018281038252602e815260200180610da9602e913960400191505060405180910390fd5b600054610100900460ff1615801561018b576000805460ff1961ff0019909116610100171660011790555b6101936105a4565b61019b610644565b80156101ad576000805461ff00191690555b50565b606560006101bc61073d565b6001600160a01b0316815260208101919091526040016000205460ff166102145760405162461bcd60e51b8152600401808060200182810382526028815260200180610df76028913960400191505060405180910390fd5b82602001516001146102415760405162461bcd60e51b815260040161023890610bd6565b60405180910390fd5b6000808460000151602001518060200190518101906102609190610905565b604051631153badb60e11b815291935091506001600160a01b038316906322a775b6906102939084908790600401610c02565b600060405180830381600087803b1580156102ad57600080fd5b505af11580156102c1573d6000803e3d6000fd5b505050505050505050565b6102d461073d565b6001600160a01b03166102e5610378565b6001600160a01b03161461032e576040805162461bcd60e51b81526020600482018190526024820152600080516020610dd7833981519152604482015290519081900360640190fd5b6033546040516000916001600160a01b0316907f8be0079c531659141344cd1fd0a4f28419497f9722a3daafe3b4186f6b6457e0908390a3603380546001600160a01b0319169055565b6033546001600160a01b031690565b61038f61073d565b6001600160a01b03166103a0610378565b6001600160a01b0316146103e9576040805162461bcd60e51b81526020600482018190526024820152600080516020610dd7833981519152604482015290519081900360640190fd5b6001600160a01b03166000908152606560205260409020805460ff19166001179055565b61041561073d565b6001600160a01b0316610426610378565b6001600160a01b03161461046f576040805162461bcd60e51b81526020600482018190526024820152600080516020610dd7833981519152604482015290519081900360640190fd5b6001600160a01b03166000908152606560205260409020805460ff19169055565b61049861073d565b6001600160a01b03166104a9610378565b6001600160a01b0316146104f2576040805162461bcd60e51b81526020600482018190526024820152600080516020610dd7833981519152604482015290519081900360640190fd5b6001600160a01b0381166105375760405162461bcd60e51b8152600401808060200182810382526026815260200180610d836026913960400191505060405180910390fd5b6033546040516001600160a01b038084169216907f8be0079c531659141344cd1fd0a4f28419497f9722a3daafe3b4186f6b6457e090600090a3603380546001600160a01b0319166001600160a01b0392909216919091179055565b600061059e30610741565b15905090565b600054610100900460ff16806105bd57506105bd610593565b806105cb575060005460ff16155b6106065760405162461bcd60e51b815260040180806020018281038252602e815260200180610da9602e913960400191505060405180910390fd5b600054610100900460ff1615801561019b576000805460ff1961ff00199091166101001716600117905580156101ad576000805461ff001916905550565b600054610100900460ff168061065d575061065d610593565b8061066b575060005460ff16155b6106a65760405162461bcd60e51b815260040180806020018281038252602e815260200180610da9602e913960400191505060405180910390fd5b600054610100900460ff161580156106d1576000805460ff1961ff0019909116610100171660011790555b60006106db61073d565b603380546001600160a01b0319166001600160a01b038316908117909155604051919250906000907f8be0079c531659141344cd1fd0a4f28419497f9722a3daafe3b4186f6b6457e0908290a35080156101ad576000805461ff001916905550565b3390565b803b15155b919050565b600061075e61075984610d1b565b610cd9565b905082815283838301111561077257600080fd5b610780836020830184610d3d565b9392505050565b803561074681610d6d565b600082601f8301126107a2578081fd5b815160206107b261075983610cfd565b82815281810190858301855b858110156107fc578151880189603f8201126107d8578788fd5b6107e98a878301516040840161074b565b85525092840192908401906001016107be565b5090979650505050505050565b600082601f830112610819578081fd5b8151602061082961075983610cfd565b82815281810190858301604080860288018501891015610847578687fd5b865b868110156108bc5781838b03121561085f578788fd5b815182810181811067ffffffffffffffff8211171561087a57fe5b8352835161088781610d6d565b8152838701516bffffffffffffffffffffffff811681146108a657898afd5b8188015285529385019391810191600101610849565b509198975050505050505050565b600082601f8301126108da578081fd5b6107808383516020850161074b565b6000602082840312156108fa578081fd5b813561078081610d6d565b60008060408385031215610917578081fd5b825161092281610d6d565b602084015190925067ffffffffffffffff8082111561093f578283fd5b9084019060a08287031215610952578283fd5b61095c60a0610cd9565b82518152602083015182811115610971578485fd5b61097d888286016108ca565b602083015250604083015182811115610994578485fd5b6109a088828601610809565b6040830152506060830151828111156109b7578485fd5b6109c388828601610809565b6060830152506080830151828111156109da578485fd5b6109e688828601610792565b6080830152508093505050509250929050565b600080600060608486031215610a0d578081fd5b833567ffffffffffffffff80821115610a24578283fd5b81860191506040808389031215610a39578384fd5b80518181018181108482111715610a4c57fe5b808352843584811115610a5d578687fd5b8501808b03841315610a6d578687fd5b608083018281108682111715610a7f57fe5b845280356001600160e01b031981168114610a98578788fd5b825260208181013586811115610aac578889fd5b82019550601f86018c13610abe578788fd5b85359150610ace61075983610d1b565b8281528c82848901011115610ae1578889fd5b828288018383013788828483010152806060860152508284528087013581850152839950610b10818c01610787565b985050505050610b21818801610787565b93505050509250925092565b6001600160a01b03169052565b6000815180845260208085019450808401835b83811015610b8b57815180516001600160a01b031688528301516bffffffffffffffffffffffff168388015260409096019590820190600101610b4d565b509495945050505050565b60008151808452610bae816020860160208601610d3d565b601f01601f19169290920160200192915050565b6001600160a01b0391909116815260200190565b60208082526012908201527132b9319b9918903b30b63ab29032b93937b960711b604082015260600190565b6000604082528351604083015260208085015160a06060850152610c2960e0850182610b96565b90506040860151603f1980868403016080870152610c478383610b3a565b925060608801519150808684030160a0870152610c648383610b3a565b608089015187820390920160c0880152815180825290935090840191508383019084810284018501865b82811015610cbc57601f19868303018452610caa828651610b96565b94870194938701939150600101610c8e565b508096505050505050610cd181840185610b2d565b509392505050565b60405181810167ffffffffffffffff81118282101715610cf557fe5b604052919050565b600067ffffffffffffffff821115610d1157fe5b5060209081020190565b600067ffffffffffffffff821115610d2f57fe5b50601f01601f191660200190565b60005b83811015610d58578181015183820152602001610d40565b83811115610d67576000848401525b50505050565b6001600160a01b03811681146101ad57600080fdfe4f776e61626c653a206e6577206f776e657220697320746865207a65726f2061646472657373496e697469616c697a61626c653a20636f6e747261637420697320616c726561647920696e697469616c697a65644f776e61626c653a2063616c6c6572206973206e6f7420746865206f776e65724f70657261746f72526f6c653a2063616c6c6572206973206e6f7420746865206f70657261746f72a2646970667358221220b4e7760d8cbe29128d6ea609912bce657cc57c4be71d2af2849c59e721ff5b9c64736f6c63430007060033",
  "immutableReferences": {},
  "source": "// SPDX-License-Identifier: MIT\n\npragma solidity >=0.6.9 <0.8.0;\npragma abicoder v2;\n\nimport \"../../exchange/v2/ITransferProxy.sol\";\nimport \"@rarible/lazy-mint/contracts/erc-721/LibERC721LazyMint.sol\";\nimport \"@rarible/lazy-mint/contracts/erc-721/IERC721LazyMint.sol\";\nimport \"../../roles/OperatorRole.sol\";\n\ncontract ERC721LazyMintTransferProxy is OperatorRole, ITransferProxy {\n    function transfer(LibAsset.Asset memory asset, address, address to) override onlyOperator external {\n        require(asset.value == 1, \"erc721 value error\");\n        (address token, LibERC721LazyMint.Mint721Data memory data) = abi.decode(asset.assetType.data, (address, LibERC721LazyMint.Mint721Data));\n        IERC721LazyMint(token).mintAndTransfer(data, to);\n    }\n}\n",
  "sourcePath": "/home/sks/Rarible/testProject3/protocol-contracts/exchange-v2/contracts/lazy-mint/erc721/ERC721LazyMintTransferProxy.sol",
  "compiler": {
    "name": "solc",
    "version": "0.7.6+commit.7338295f.Emscripten.clang"
  },
  "schemaVersion": "3.3.4",
  "updatedAt": "2021-04-09T06:06:36.233Z",
  "devdoc": {
    "kind": "dev",
    "methods": {
      "owner()": {
        "details": "Returns the address of the current owner."
      },
      "renounceOwnership()": {
        "details": "Leaves the contract without owner. It will not be possible to call `onlyOwner` functions anymore. Can only be called by the current owner. NOTE: Renouncing ownership will leave the contract without an owner, thereby removing any functionality that is only available to the owner."
      },
      "transferOwnership(address)": {
        "details": "Transfers ownership of the contract to a new account (`newOwner`). Can only be called by the current owner."
      }
    },
    "version": 1
  },
  "userdoc": {
    "kind": "user",
    "methods": {},
    "version": 1
  }
}