{
  "contractName": "ExchangeV2",
  "abi": [
    {
      "anonymous": false,
      "inputs": [
        {
          "indexed": false,
          "internalType": "bytes32",
          "name": "hash",
          "type": "bytes32"
        },
        {
          "indexed": false,
          "internalType": "address",
          "name": "maker",
          "type": "address"
        },
        {
          "components": [
            {
              "internalType": "bytes4",
              "name": "assetClass",
              "type": "bytes4"
            },
            {
              "internalType": "bytes",
              "name": "data",
              "type": "bytes"
            }
          ],
          "indexed": false,
          "internalType": "struct LibAsset.AssetType",
          "name": "makeAssetType",
          "type": "tuple"
        },
        {
          "components": [
            {
              "internalType": "bytes4",
              "name": "assetClass",
              "type": "bytes4"
            },
            {
              "internalType": "bytes",
              "name": "data",
              "type": "bytes"
            }
          ],
          "indexed": false,
          "internalType": "struct LibAsset.AssetType",
          "name": "takeAssetType",
          "type": "tuple"
        }
      ],
      "name": "Cancel",
      "type": "event"
    },
    {
      "anonymous": false,
      "inputs": [
        {
          "indexed": false,
          "internalType": "bytes32",
          "name": "leftHash",
          "type": "bytes32"
        },
        {
          "indexed": false,
          "internalType": "bytes32",
          "name": "rightHash",
          "type": "bytes32"
        },
        {
          "indexed": false,
          "internalType": "address",
          "name": "leftMaker",
          "type": "address"
        },
        {
          "indexed": false,
          "internalType": "address",
          "name": "rightMaker",
          "type": "address"
        },
        {
          "indexed": false,
          "internalType": "uint256",
          "name": "newLeftFill",
          "type": "uint256"
        },
        {
          "indexed": false,
          "internalType": "uint256",
          "name": "newRightFill",
          "type": "uint256"
        },
        {
          "components": [
            {
              "internalType": "bytes4",
              "name": "assetClass",
              "type": "bytes4"
            },
            {
              "internalType": "bytes",
              "name": "data",
              "type": "bytes"
            }
          ],
          "indexed": false,
          "internalType": "struct LibAsset.AssetType",
          "name": "leftAsset",
          "type": "tuple"
        },
        {
          "components": [
            {
              "internalType": "bytes4",
              "name": "assetClass",
              "type": "bytes4"
            },
            {
              "internalType": "bytes",
              "name": "data",
              "type": "bytes"
            }
          ],
          "indexed": false,
          "internalType": "struct LibAsset.AssetType",
          "name": "rightAsset",
          "type": "tuple"
        }
      ],
      "name": "Match",
      "type": "event"
    },
    {
      "anonymous": false,
      "inputs": [
        {
          "indexed": true,
          "internalType": "bytes4",
          "name": "assetType",
          "type": "bytes4"
        },
        {
          "indexed": false,
          "internalType": "address",
          "name": "matcher",
          "type": "address"
        }
      ],
      "name": "MatcherChange",
      "type": "event"
    },
    {
      "anonymous": false,
      "inputs": [
        {
          "indexed": true,
          "internalType": "address",
          "name": "previousOwner",
          "type": "address"
        },
        {
          "indexed": true,
          "internalType": "address",
          "name": "newOwner",
          "type": "address"
        }
      ],
      "name": "OwnershipTransferred",
      "type": "event"
    },
    {
      "anonymous": false,
      "inputs": [
        {
          "indexed": true,
          "internalType": "bytes4",
          "name": "assetType",
          "type": "bytes4"
        },
        {
          "indexed": false,
          "internalType": "address",
          "name": "proxy",
          "type": "address"
        }
      ],
      "name": "ProxyChange",
      "type": "event"
    },
    {
      "anonymous": false,
      "inputs": [
        {
          "components": [
            {
              "components": [
                {
                  "internalType": "bytes4",
                  "name": "assetClass",
                  "type": "bytes4"
                },
                {
                  "internalType": "bytes",
                  "name": "data",
                  "type": "bytes"
                }
              ],
              "internalType": "struct LibAsset.AssetType",
              "name": "assetType",
              "type": "tuple"
            },
            {
              "internalType": "uint256",
              "name": "value",
              "type": "uint256"
            }
          ],
          "indexed": false,
          "internalType": "struct LibAsset.Asset",
          "name": "asset",
          "type": "tuple"
        },
        {
          "indexed": false,
          "internalType": "address",
          "name": "from",
          "type": "address"
        },
        {
          "indexed": false,
          "internalType": "address",
          "name": "to",
          "type": "address"
        },
        {
          "indexed": false,
          "internalType": "bytes4",
          "name": "transferDirection",
          "type": "bytes4"
        },
        {
          "indexed": false,
          "internalType": "bytes4",
          "name": "transferType",
          "type": "bytes4"
        }
      ],
      "name": "Transfer",
      "type": "event"
    },
    {
      "inputs": [
        {
          "components": [
            {
              "internalType": "address",
              "name": "maker",
              "type": "address"
            },
            {
              "components": [
                {
                  "components": [
                    {
                      "internalType": "bytes4",
                      "name": "assetClass",
                      "type": "bytes4"
                    },
                    {
                      "internalType": "bytes",
                      "name": "data",
                      "type": "bytes"
                    }
                  ],
                  "internalType": "struct LibAsset.AssetType",
                  "name": "assetType",
                  "type": "tuple"
                },
                {
                  "internalType": "uint256",
                  "name": "value",
                  "type": "uint256"
                }
              ],
              "internalType": "struct LibAsset.Asset",
              "name": "makeAsset",
              "type": "tuple"
            },
            {
              "internalType": "address",
              "name": "taker",
              "type": "address"
            },
            {
              "components": [
                {
                  "components": [
                    {
                      "internalType": "bytes4",
                      "name": "assetClass",
                      "type": "bytes4"
                    },
                    {
                      "internalType": "bytes",
                      "name": "data",
                      "type": "bytes"
                    }
                  ],
                  "internalType": "struct LibAsset.AssetType",
                  "name": "assetType",
                  "type": "tuple"
                },
                {
                  "internalType": "uint256",
                  "name": "value",
                  "type": "uint256"
                }
              ],
              "internalType": "struct LibAsset.Asset",
              "name": "takeAsset",
              "type": "tuple"
            },
            {
              "internalType": "uint256",
              "name": "salt",
              "type": "uint256"
            },
            {
              "internalType": "uint256",
              "name": "start",
              "type": "uint256"
            },
            {
              "internalType": "uint256",
              "name": "end",
              "type": "uint256"
            },
            {
              "internalType": "bytes4",
              "name": "dataType",
              "type": "bytes4"
            },
            {
              "internalType": "bytes",
              "name": "data",
              "type": "bytes"
            }
          ],
          "internalType": "struct LibOrder.Order",
          "name": "order",
          "type": "tuple"
        }
      ],
      "name": "cancel",
      "outputs": [],
      "stateMutability": "nonpayable",
      "type": "function"
    },
    {
      "inputs": [],
      "name": "defaultFeeReceiver",
      "outputs": [
        {
          "internalType": "address",
          "name": "",
          "type": "address"
        }
      ],
      "stateMutability": "view",
      "type": "function"
    },
    {
      "inputs": [
        {
          "internalType": "address",
          "name": "",
          "type": "address"
        }
      ],
      "name": "feeReceivers",
      "outputs": [
        {
          "internalType": "address",
          "name": "",
          "type": "address"
        }
      ],
      "stateMutability": "view",
      "type": "function"
    },
    {
      "inputs": [
        {
          "internalType": "bytes32",
          "name": "",
          "type": "bytes32"
        }
      ],
      "name": "fills",
      "outputs": [
        {
          "internalType": "uint256",
          "name": "",
          "type": "uint256"
        }
      ],
      "stateMutability": "view",
      "type": "function"
    },
    {
      "inputs": [
        {
          "components": [
            {
              "internalType": "address",
              "name": "maker",
              "type": "address"
            },
            {
              "components": [
                {
                  "components": [
                    {
                      "internalType": "bytes4",
                      "name": "assetClass",
                      "type": "bytes4"
                    },
                    {
                      "internalType": "bytes",
                      "name": "data",
                      "type": "bytes"
                    }
                  ],
                  "internalType": "struct LibAsset.AssetType",
                  "name": "assetType",
                  "type": "tuple"
                },
                {
                  "internalType": "uint256",
                  "name": "value",
                  "type": "uint256"
                }
              ],
              "internalType": "struct LibAsset.Asset",
              "name": "makeAsset",
              "type": "tuple"
            },
            {
              "internalType": "address",
              "name": "taker",
              "type": "address"
            },
            {
              "components": [
                {
                  "components": [
                    {
                      "internalType": "bytes4",
                      "name": "assetClass",
                      "type": "bytes4"
                    },
                    {
                      "internalType": "bytes",
                      "name": "data",
                      "type": "bytes"
                    }
                  ],
                  "internalType": "struct LibAsset.AssetType",
                  "name": "assetType",
                  "type": "tuple"
                },
                {
                  "internalType": "uint256",
                  "name": "value",
                  "type": "uint256"
                }
              ],
              "internalType": "struct LibAsset.Asset",
              "name": "takeAsset",
              "type": "tuple"
            },
            {
              "internalType": "uint256",
              "name": "salt",
              "type": "uint256"
            },
            {
              "internalType": "uint256",
              "name": "start",
              "type": "uint256"
            },
            {
              "internalType": "uint256",
              "name": "end",
              "type": "uint256"
            },
            {
              "internalType": "bytes4",
              "name": "dataType",
              "type": "bytes4"
            },
            {
              "internalType": "bytes",
              "name": "data",
              "type": "bytes"
            }
          ],
          "internalType": "struct LibOrder.Order",
          "name": "orderLeft",
          "type": "tuple"
        },
        {
          "internalType": "bytes",
          "name": "signatureLeft",
          "type": "bytes"
        },
        {
          "components": [
            {
              "internalType": "address",
              "name": "maker",
              "type": "address"
            },
            {
              "components": [
                {
                  "components": [
                    {
                      "internalType": "bytes4",
                      "name": "assetClass",
                      "type": "bytes4"
                    },
                    {
                      "internalType": "bytes",
                      "name": "data",
                      "type": "bytes"
                    }
                  ],
                  "internalType": "struct LibAsset.AssetType",
                  "name": "assetType",
                  "type": "tuple"
                },
                {
                  "internalType": "uint256",
                  "name": "value",
                  "type": "uint256"
                }
              ],
              "internalType": "struct LibAsset.Asset",
              "name": "makeAsset",
              "type": "tuple"
            },
            {
              "internalType": "address",
              "name": "taker",
              "type": "address"
            },
            {
              "components": [
                {
                  "components": [
                    {
                      "internalType": "bytes4",
                      "name": "assetClass",
                      "type": "bytes4"
                    },
                    {
                      "internalType": "bytes",
                      "name": "data",
                      "type": "bytes"
                    }
                  ],
                  "internalType": "struct LibAsset.AssetType",
                  "name": "assetType",
                  "type": "tuple"
                },
                {
                  "internalType": "uint256",
                  "name": "value",
                  "type": "uint256"
                }
              ],
              "internalType": "struct LibAsset.Asset",
              "name": "takeAsset",
              "type": "tuple"
            },
            {
              "internalType": "uint256",
              "name": "salt",
              "type": "uint256"
            },
            {
              "internalType": "uint256",
              "name": "start",
              "type": "uint256"
            },
            {
              "internalType": "uint256",
              "name": "end",
              "type": "uint256"
            },
            {
              "internalType": "bytes4",
              "name": "dataType",
              "type": "bytes4"
            },
            {
              "internalType": "bytes",
              "name": "data",
              "type": "bytes"
            }
          ],
          "internalType": "struct LibOrder.Order",
          "name": "orderRight",
          "type": "tuple"
        },
        {
          "internalType": "bytes",
          "name": "signatureRight",
          "type": "bytes"
        }
      ],
      "name": "matchOrders",
      "outputs": [],
      "stateMutability": "payable",
      "type": "function"
    },
    {
      "inputs": [],
      "name": "owner",
      "outputs": [
        {
          "internalType": "address",
          "name": "",
          "type": "address"
        }
      ],
      "stateMutability": "view",
      "type": "function"
    },
    {
      "inputs": [],
      "name": "protocolFee",
      "outputs": [
        {
          "internalType": "uint256",
          "name": "",
          "type": "uint256"
        }
      ],
      "stateMutability": "view",
      "type": "function"
    },
    {
      "inputs": [],
      "name": "renounceOwnership",
      "outputs": [],
      "stateMutability": "nonpayable",
      "type": "function"
    },
    {
      "inputs": [],
      "name": "royaltiesRegistry",
      "outputs": [
        {
          "internalType": "contract IRoyaltiesProvider",
          "name": "",
          "type": "address"
        }
      ],
      "stateMutability": "view",
      "type": "function"
    },
    {
      "inputs": [
        {
          "internalType": "bytes4",
          "name": "assetType",
          "type": "bytes4"
        },
        {
          "internalType": "address",
          "name": "matcher",
          "type": "address"
        }
      ],
      "name": "setAssetMatcher",
      "outputs": [],
      "stateMutability": "nonpayable",
      "type": "function"
    },
    {
      "inputs": [
        {
          "internalType": "address payable",
          "name": "newDefaultFeeReceiver",
          "type": "address"
        }
      ],
      "name": "setDefaultFeeReceiver",
      "outputs": [],
      "stateMutability": "nonpayable",
      "type": "function"
    },
    {
      "inputs": [
        {
          "internalType": "address",
          "name": "token",
          "type": "address"
        },
        {
          "internalType": "address",
          "name": "wallet",
          "type": "address"
        }
      ],
      "name": "setFeeReceiver",
      "outputs": [],
      "stateMutability": "nonpayable",
      "type": "function"
    },
    {
      "inputs": [
        {
          "internalType": "uint256",
          "name": "newProtocolFee",
          "type": "uint256"
        }
      ],
      "name": "setProtocolFee",
      "outputs": [],
      "stateMutability": "nonpayable",
      "type": "function"
    },
    {
      "inputs": [
        {
          "internalType": "contract IRoyaltiesProvider",
          "name": "newRoyaltiesRegistry",
          "type": "address"
        }
      ],
      "name": "setRoyaltiesRegistry",
      "outputs": [],
      "stateMutability": "nonpayable",
      "type": "function"
    },
    {
      "inputs": [
        {
          "internalType": "bytes4",
          "name": "assetType",
          "type": "bytes4"
        },
        {
          "internalType": "address",
          "name": "proxy",
          "type": "address"
        }
      ],
      "name": "setTransferProxy",
      "outputs": [],
      "stateMutability": "nonpayable",
      "type": "function"
    },
    {
      "inputs": [
        {
          "internalType": "address",
          "name": "newOwner",
          "type": "address"
        }
      ],
      "name": "transferOwnership",
      "outputs": [],
      "stateMutability": "nonpayable",
      "type": "function"
    },
    {
      "inputs": [
        {
          "internalType": "contract INftTransferProxy",
          "name": "_transferProxy",
          "type": "address"
        },
        {
          "internalType": "contract IERC20TransferProxy",
          "name": "_erc20TransferProxy",
          "type": "address"
        },
        {
          "internalType": "uint256",
          "name": "newProtocolFee",
          "type": "uint256"
        },
        {
          "internalType": "address",
          "name": "newDefaultFeeReceiver",
          "type": "address"
        },
        {
          "internalType": "contract IRoyaltiesProvider",
          "name": "newRoyaltiesProvider",
          "type": "address"
        }
      ],
      "name": "__ExchangeV2_init",
      "outputs": [],
      "stateMutability": "nonpayable",
      "type": "function"
    }
  ],
  "bytecode": "0x608060405234801561001057600080fd5b50614578806100206000396000f3fe6080604052600436106100fe5760003560e01c8063715018a611610095578063b39deb4611610064578063b39deb4614610271578063e2864fe314610291578063e66db25e146102b1578063e99a3f80146102d1578063f2fde38b146102e4576100fe565b8063715018a614610212578063787dce3d146102275780638da5cb5b14610247578063b0e21e8a1461025c576100fe565b806330c642f1116100d157806330c642f1146101a85780633abf6fd4146101c85780633be89922146101dd5780636d8f0694146101fd576100fe565b806302097ab1146101035780631372a625146101395780631cdfe3d81461015b57806320158c441461017b575b600080fd5b34801561010f57600080fd5b5061012361011e3660046138e0565b610304565b6040516101309190613f53565b60405180910390f35b34801561014557600080fd5b50610159610154366004613bd4565b610320565b005b34801561016757600080fd5b506101596101763660046138e0565b6103f4565b34801561018757600080fd5b5061019b610196366004613b9f565b610479565b604051610130919061435b565b3480156101b457600080fd5b506101596101c3366004613bb7565b61048c565b3480156101d457600080fd5b5061012361055c565b3480156101e957600080fd5b506101596101f83660046138e0565b61056c565b34801561020957600080fd5b506101236105f1565b34801561021e57600080fd5b50610159610601565b34801561023357600080fd5b50610159610242366004613b9f565b6106ad565b34801561025357600080fd5b50610123610715565b34801561026857600080fd5b5061019b610724565b34801561027d57600080fd5b5061015961028c366004613bb7565b61072b565b34801561029d57600080fd5b506101596102ac366004613e08565b6107ef565b3480156102bd57600080fd5b506101596102cc366004613b35565b6108c2565b6101596102df366004613e3a565b610953565b3480156102f057600080fd5b506101596102ff3660046138e0565b610a0f565b610164602052600090815260409020546001600160a01b031681565b600054610100900460ff16806103395750610339610b12565b80610347575060005460ff16155b6103825760405162461bcd60e51b815260040180806020018281038252602e8152602001806144b2602e913960400191505060405180910390fd5b600054610100900460ff161580156103ad576000805460ff1961ff0019909116610100171660011790555b6103b5610b23565b6103bd610bc5565b6103c78686610cbe565b6103d2848484610d68565b6103da610e44565b80156103ec576000805461ff00191690555b505050505050565b6103fc610f14565b6001600160a01b031661040d610715565b6001600160a01b031614610456576040805162461bcd60e51b81526020600482018190526024820152600080516020614523833981519152604482015290519081900360640190fd5b61016380546001600160a01b0319166001600160a01b0392909216919091179055565b61012f6020526000908152604090205481565b610494610f14565b6001600160a01b03166104a5610715565b6001600160a01b0316146104ee576040805162461bcd60e51b81526020600482018190526024820152600080516020614523833981519152604482015290519081900360640190fd5b6001600160e01b031982166000818152609760205260409081902080546001600160a01b0319166001600160a01b038516179055517f4b5aced933c0c9a88aeac3f0b3b72c5aaf75df8ebaf53225773248c4c315359390610550908490613f53565b60405180910390a25050565b610163546001600160a01b031681565b610574610f14565b6001600160a01b0316610585610715565b6001600160a01b0316146105ce576040805162461bcd60e51b81526020600482018190526024820152600080516020614523833981519152604482015290519081900360640190fd5b61016280546001600160a01b0319166001600160a01b0392909216919091179055565b610162546001600160a01b031681565b610609610f14565b6001600160a01b031661061a610715565b6001600160a01b031614610663576040805162461bcd60e51b81526020600482018190526024820152600080516020614523833981519152604482015290519081900360640190fd5b6033546040516000916001600160a01b0316907f8be0079c531659141344cd1fd0a4f28419497f9722a3daafe3b4186f6b6457e0908390a3603380546001600160a01b0319169055565b6106b5610f14565b6001600160a01b03166106c6610715565b6001600160a01b03161461070f576040805162461bcd60e51b81526020600482018190526024820152600080516020614523833981519152604482015290519081900360640190fd5b61016155565b6033546001600160a01b031690565b6101615481565b610733610f14565b6001600160a01b0316610744610715565b6001600160a01b03161461078d576040805162461bcd60e51b81526020600482018190526024820152600080516020614523833981519152604482015290519081900360640190fd5b6001600160e01b031982166000818152606560205260409081902080546001600160a01b0319166001600160a01b038516179055517fd2bf91075f105d0fd80328da28e20ebdad1c1261839711183bc29a44cbe6c72f90610550908490613f53565b80516001600160a01b0316610802610f14565b6001600160a01b0316146108315760405162461bcd60e51b815260040161082890614293565b60405180910390fd5b60808101516108525760405162461bcd60e51b8152600401610828906140fe565b600061085d82610f18565b600081815261012f602090815260409182902060001990558451908501515160608601515192519394507fbbdc98cb2835f4f846e6a63700d0498b4674f0e8858fd50c6379314227afa04e936108b69386939291613f80565b60405180910390a15050565b6108ca610f14565b6001600160a01b03166108db610715565b6001600160a01b031614610924576040805162461bcd60e51b81526020600482018190526024820152600080516020614523833981519152604482015290519081900360640190fd5b6001600160a01b0391821660009081526101646020526040902080546001600160a01b03191691909216179055565b61095d8484611088565b6109678282611088565b60408401516001600160a01b0316156109b35783604001516001600160a01b031682600001516001600160a01b0316146109b35760405162461bcd60e51b815260040161082890614228565b60408201516001600160a01b0316156109ff5783600001516001600160a01b031682604001516001600160a01b0316146109ff5760405162461bcd60e51b81526004016108289061412c565b610a09848361109f565b50505050565b610a17610f14565b6001600160a01b0316610a28610715565b6001600160a01b031614610a71576040805162461bcd60e51b81526020600482018190526024820152600080516020614523833981519152604482015290519081900360640190fd5b6001600160a01b038116610ab65760405162461bcd60e51b815260040180806020018281038252602681526020018061441d6026913960400191505060405180910390fd5b6033546040516001600160a01b038084169216907f8be0079c531659141344cd1fd0a4f28419497f9722a3daafe3b4186f6b6457e090600090a3603380546001600160a01b0319166001600160a01b0392909216919091179055565b6000610b1d30611238565b15905090565b600054610100900460ff1680610b3c5750610b3c610b12565b80610b4a575060005460ff16155b610b855760405162461bcd60e51b815260040180806020018281038252602e8152602001806144b2602e913960400191505060405180910390fd5b600054610100900460ff16158015610bb0576000805460ff1961ff0019909116610100171660011790555b8015610bc2576000805461ff00191690555b50565b600054610100900460ff1680610bde5750610bde610b12565b80610bec575060005460ff16155b610c275760405162461bcd60e51b815260040180806020018281038252602e8152602001806144b2602e913960400191505060405180910390fd5b600054610100900460ff16158015610c52576000805460ff1961ff0019909116610100171660011790555b6000610c5c610f14565b603380546001600160a01b0319166001600160a01b038316908117909155604051919250906000907f8be0079c531659141344cd1fd0a4f28419497f9722a3daafe3b4186f6b6457e0908290a3508015610bc2576000805461ff001916905550565b60976020527f4532fa16f071d6234e30e1a1e69b9806f04095edf37a1ca7a25c8d6af7861cc080546001600160a01b039283166001600160a01b0319918216179091557f30a684095c937b5aa064dcf94f9903a7d808e3efb22d8389dbd43080ad4ed3d5805493909216928116831790915563025ceed960e61b6000527f4b5822151ea34b7c8d9e37c3e466bcecb631efe6a9f26a4a4054110a93dd316f80549091169091179055565b600054610100900460ff1680610d815750610d81610b12565b80610d8f575060005460ff16155b610dca5760405162461bcd60e51b815260040180806020018281038252602e8152602001806144b2602e913960400191505060405180910390fd5b600054610100900460ff16158015610df5576000805460ff1961ff0019909116610100171660011790555b61016184905561016380546001600160a01b038086166001600160a01b0319928316179092556101628054928516929091169190911790558015610a09576000805461ff001916905550505050565b600054610100900460ff1680610e5d5750610e5d610b12565b80610e6b575060005460ff16155b610ea65760405162461bcd60e51b815260040180806020018281038252602e8152602001806144b2602e913960400191505060405180910390fd5b600054610100900460ff16158015610ed1576000805460ff1961ff0019909116610100171660011790555b610bb06040518060400160405280600881526020016745786368616e676560c01b815250604051806040016040528060018152602001601960f91b81525061123e565b3390565b60e08101516000906001600160e01b0319166323d235ef60e01b1415611017578151602083015151610f49906112ff565b606084015151610f58906112ff565b846080015185610100015160405160200180866001600160a01b0316815260200185815260200184815260200183815260200180602001828103825283818151815260200191508051906020019080838360005b83811015610fc4578181015183820152602001610fac565b50505050905090810190601f168015610ff15780820380516001836020036101000a031916815260200191505b509650505050505050604051602081830303815290604052805190602001209050611083565b8151602083015151611028906112ff565b606084015151611037906112ff565b846080015160405160200180856001600160a01b031681526020018481526020018381526020018281526020019450505050506040516020818303038152906040528051906020012090505b919050565b61109182611369565b61109b8282611433565b5050565b6000806110ac84846116bc565b9150915060006110bb85610f18565b905060006110c885610f18565b905060006110d587611755565b905060006110e287611755565b905060006110f4898987878787611859565b90506000806111088989858e8e8a8a611984565b8a5191935091506001600160e01b0319166355575f5d60e11b14156111875787516001600160e01b0319166355575f5d60e11b141561114657600080fd5b813410156111665760405162461bcd60e51b81526004016108289061426b565b813411156111825761118261117b3484611b2c565b3390611b8e565b6111d6565b87516001600160e01b0319166355575f5d60e11b14156111d657803410156111c15760405162461bcd60e51b81526004016108289061426b565b803411156111d6576111d661117b3483611b2c565b7f268820db288a211986b26a8fda86b1e0046281b21206936bb0e61c67b5c79ef487878d600001518d60000151876020015188600001518f8f604051611223989796959493929190613fc7565b60405180910390a15050505050505050505050565b3b151590565b600054610100900460ff16806112575750611257610b12565b80611265575060005460ff16155b6112a05760405162461bcd60e51b815260040180806020018281038252602e8152602001806144b2602e913960400191505060405180910390fd5b600054610100900460ff161580156112cb576000805460ff1961ff0019909116610100171660011790555b825160208085019190912083519184019190912060c99190915560ca5580156112fa576000805461ff00191690555b505050565b8051602091820151805190830120604080517f452a0dc408cb0d27ffc3b3caff933a5208040a53a9dbecd8d89cad2c0d40e00c818601526001600160e01b031990931683820152606080840192909252805180840390920182526080909201909152805191012090565b60a0810151158061137d5750428160a00151105b6113ce576040805162461bcd60e51b815260206004820152601d60248201527f4f726465722073746172742076616c69646174696f6e206661696c6564000000604482015290519081900360640190fd5b60c081015115806113e25750428160c00151115b610bc2576040805162461bcd60e51b815260206004820152601b60248201527f4f7264657220656e642076616c69646174696f6e206661696c65640000000000604482015290519081900360640190fd5b60808201516114d15781516001600160a01b0316156114b85781516001600160a01b031661145f610f14565b6001600160a01b0316146114b3576040805162461bcd60e51b815260206004820152601660248201527536b0b5b2b91034b9903737ba103a3c1039b2b73232b960511b604482015290519081900360640190fd5b6114cc565b6114c0610f14565b6001600160a01b031682525b61109b565b81516001600160a01b03166114e4610f14565b6001600160a01b03161461109b5760006114fd83611c26565b905060008251604114156115215761151e8361151884611d16565b90611d62565b90505b83516001600160a01b03828116911614610a09578351611549906001600160a01b0316611238565b15611685578351630b135d3f60e11b906001600160a01b0316631626ba7e61157085611d16565b866040518363ffffffff1660e01b81526004018083815260200180602001828103825283818151815260200191508051906020019080838360005b838110156115c35781810151838201526020016115ab565b50505050905090810190601f1680156115f05780820380516001836020036101000a031916815260200191505b50935050505060206040518083038186803b15801561160e57600080fd5b505afa158015611622573d6000803e3d6000fd5b505050506040513d602081101561163857600080fd5b50516001600160e01b031916146116805760405162461bcd60e51b815260040180806020018281038252602b815260200180614487602b913960400191505060405180910390fd5b610a09565b60405162461bcd60e51b81526004018080602001828103825260228152602001806144656022913960400191505060405180910390fd5b6116c46134f9565b6116cc6134f9565b6020840151516060840151516116e29190611dd8565b80519092506001600160e01b03191661170d5760405162461bcd60e51b8152600401610828906141fc565b6060840151516020840151516117239190611dd8565b80519091506001600160e01b03191661174e5760405162461bcd60e51b8152600401610828906141fc565b9250929050565b61175d613511565b60e08201516001600160e01b031916632611a13360e11b14156117a557600061178a836101000151611e18565b80518352602090810151908301525060006040820152611840565b60e08201516001600160e01b0319166323d235ef60e01b14156117d7576117d0826101000151611e34565b9050611840565b60e08201516001600160e01b031990811614156117f357611840565b6040805162461bcd60e51b815260206004820152601760248201527f556e6b6e6f776e204f7264657220646174612074797065000000000000000000604482015290519081900360640190fd5b80515161108357815161185290611e50565b8152919050565b611861613534565b600061186d8887611eeb565b9050600061187b8887611eeb565b905060006118958a8a85858a604001518a60400151611f18565b9050600081602001511180156118ab5750805115155b6118c75760405162461bcd60e51b81526004016108289061419c565b60808a01511561191e578560400151156118fd5780516118e8908490611f9e565b600089815261012f602052604090205561191e565b602081015161190d908490611f9e565b600089815261012f60205260409020555b60808901511561197557846040015115611957576020810151611942908390611f9e565b600088815261012f6020526040902055611975565b8051611964908390611f9e565b600088815261012f60205260409020555b925050505b9695505050505050565b600080600061199b8a600001518a60000151611fff565b885160208a01519094509250905060018160028111156119b757fe5b1415611a3057875187516119f0919087878e8e7f1a0388dd7519a093630516a672419a2562e0e74deb98af068657dc265f0164c96120d0565b9250611a2b898960200151886000015188600001517fb45a3ba14423c8f1b71cc094845ab56b5294dbe8d8e3ba53f3cdb63d59a4044b612194565b611b1f565b6002816002811115611a3e57fe5b1415611ab257611a7b8860200151876000015186888d8f7fb45a3ba14423c8f1b71cc094845ab56b5294dbe8d8e3ba53f3cdb63d59a4044b6120d0565b885188518651929450611a2b928d9291907f1a0388dd7519a093630516a672419a2562e0e74deb98af068657dc265f0164c9612194565b875187518551611ae6928d9290917f1a0388dd7519a093630516a672419a2562e0e74deb98af068657dc265f0164c9612194565b611b1f898960200151886000015188600001517fb45a3ba14423c8f1b71cc094845ab56b5294dbe8d8e3ba53f3cdb63d59a4044b612194565b5097509795505050505050565b600082821115611b83576040805162461bcd60e51b815260206004820152601e60248201527f536166654d6174683a207375627472616374696f6e206f766572666c6f770000604482015290519081900360640190fd5b508082035b92915050565b6040516000906001600160a01b0384169083908381818185875af1925050503d8060008114611bd9576040519150601f19603f3d011682016040523d82523d6000602084013e611bde565b606091505b50509050806112fa576040805162461bcd60e51b815260206004820152600f60248201526e1d1c985b9cd9995c8819985a5b1959608a1b604482015290519081900360640190fd5b60007f477ed43b8020849b755512278536c3766a3b4ab547519949a75f483372493f8d8260000151611c5b8460200151612339565b8460400151611c6d8660600151612339565b86608001518760a001518860c001518960e001518a610100015180519060200120604051602001808b81526020018a6001600160a01b03168152602001898152602001886001600160a01b03168152602001878152602001868152602001858152602001848152602001836001600160e01b03191681526020018281526020019a5050505050505050505050604051602081830303815290604052805190602001209050919050565b6000611d206123a9565b82604051602001808061190160f01b81525060020183815260200182815260200192505050604051602081830303815290604052805190602001209050919050565b60008151604114611dba576040805162461bcd60e51b815260206004820152601f60248201527f45434453413a20696e76616c6964207369676e6174757265206c656e67746800604482015290519081900360640190fd5b60208201516040830151606084015160001a61197a868285856123e9565b611de06134f9565b6000611dec848461263f565b80519091506001600160e01b031916611e1157611e09838561263f565b915050611b88565b9050611b88565b611e2061354e565b81806020019051810190611b889190613cc6565b611e3c613511565b81806020019051810190611b889190613d52565b60408051600180825281830190925260609160009190816020015b611e73613568565b815260200190600190039081611e6b5790505090508281600081518110611e9657fe5b6020026020010151600001906001600160a01b031690816001600160a01b03168152505061271081600081518110611eca57fe5b6020908102919091018101516001600160601b039092169101529050919050565b6000826080015160001415611f0257506000611b88565b50600090815261012f6020526040902054919050565b611f20613534565b600080611f2e89888761285b565b91509150600080611f408a898861285b565b9150915083811115611f7357611f6884848c60200151602001518d60600151602001516128d5565b94505050505061197a565b611f8f8b60200151602001518c6060015160200151848461295a565b9b9a5050505050505050505050565b600082820183811015611ff8576040805162461bcd60e51b815260206004820152601b60248201527f536166654d6174683a206164646974696f6e206f766572666c6f770000000000604482015290519081900360640190fd5b9392505050565b60006001600160e01b031983166355575f5d60e11b141561202257506001611b88565b6001600160e01b031982166355575f5d60e11b141561204357506002611b88565b6001600160e01b031983166322ba176160e21b141561206457506001611b88565b6001600160e01b031982166322ba176160e21b141561208557506002611b88565b6001600160e01b0319831663025ceed960e61b14156120a657506001611b88565b6001600160e01b0319821663025ceed960e61b14156120c757506002611b88565b50600092915050565b60006120e4886101615488602001516129e0565b905060006120f5828a8a8887612a53565b90506121058585838c8c88612b4f565b905061213a85828b8a602001518c887fdfdfdaf4cc275341b6776a7ee23b953990b8d991717449077287da70f32cf955612bc2565b508091505061217285828b89602001518c887fdfdfdaf4cc275341b6776a7ee23b953990b8d991717449077287da70f32cf955612bc2565b508091505061218885828a896000015187612194565b50979650505050505050565b600084815b60018551038110156122845760006121da8683815181106121b657fe5b6020026020010151602001516001600160601b031689612c8390919063ffffffff16565b905061220f8683815181106121eb57fe5b6020026020010151602001516001600160601b031685611f9e90919063ffffffff16565b9350801561227b576122218382611b2c565b925061227b60405180604001604052808b8152602001838152508888858151811061224857fe5b602002602001015160000151887fa10bb5b2060a412d05113732875a5431ca23453eb93f797e0ffcb5b40e5f2c3e612c9b565b50600101612199565b5060008460018651038151811061229757fe5b602002602001015190506122c181602001516001600160601b031684611f9e90919063ffffffff16565b925082612710146122e45760405162461bcd60e51b8152600401610828906141c5565b811561232f5761232f60405180604001604052808a815260200184815250878360000151877fa10bb5b2060a412d05113732875a5431ca23453eb93f797e0ffcb5b40e5f2c3e612c9b565b5050505050505050565b60007fdb6f72e915676cfc289da13bc4ece054fd17b1df6d77ffc4a60510718c236b0861236983600001516112ff565b8360200151604051602001808481526020018381526020018281526020019350505050604051602081830303815290604052805190602001209050919050565b60006123e47f8b73c3c69bb8fe3d512ecc4cf759cc79239f7b179b0ffacaa9a75d522b39400f6123d7613022565b6123df613028565b61302e565b905090565b60007f7fffffffffffffffffffffffffffffff5d576e7357a4501ddfe92f46681b20a082111561244a5760405162461bcd60e51b81526004018080602001828103825260228152602001806144436022913960400191505060405180910390fd5b6000601e8560ff161115612524576004850360ff16601b148061247357506004850360ff16601c145b6124ae5760405162461bcd60e51b81526004018080602001828103825260228152602001806144e06022913960400191505060405180910390fd5b60016124b987613090565b60048703868660405160008152602001604052604051808581526020018460ff1681526020018381526020018281526020019450505050506020604051602081039080840390855afa158015612513573d6000803e3d6000fd5b5050506020604051035190506125db565b8460ff16601b148061253957508460ff16601c145b6125745760405162461bcd60e51b81526004018080602001828103825260228152602001806144e06022913960400191505060405180910390fd5b60018686868660405160008152602001604052604051808581526020018460ff1681526020018381526020018281526020019450505050506020604051602081039080840390855afa1580156125ce573d6000803e3d6000fd5b5050506020604051035190505b6001600160a01b038116612636576040805162461bcd60e51b815260206004820152601860248201527f45434453413a20696e76616c6964207369676e61747572650000000000000000604482015290519081900360640190fd5b95945050505050565b6126476134f9565b825182516001600160e01b031982166355575f5d60e11b14156126b2576001600160e01b031981166355575f5d60e11b1415612687578492505050611b88565b5050604080518082018252600080825282516020818101909452908152918101919091529050611b88565b6001600160e01b031982166322ba176160e21b14156126f7576001600160e01b031981166322ba176160e21b1415612687576126ee85856130e1565b92505050611b88565b6001600160e01b031982166339d690a360e11b1415612733576001600160e01b031981166339d690a360e11b1415612687576126ee85856130e1565b6001600160e01b0319821663025ceed960e61b141561276f576001600160e01b0319811663025ceed960e61b1415612687576126ee85856130e1565b6001600160e01b031982166000908152606560205260409020546001600160a01b03168015612824576040516306d3f7cb60e41b81526001600160a01b03821690636d3f7cb0906127c690899089906004016142b8565b60006040518083038186803b1580156127de57600080fd5b505afa1580156127f2573d6000803e3d6000fd5b505050506040513d6000823e601f3d908101601f1916820160405261281a9190810190613c3b565b9350505050611b88565b6001600160e01b031983811690831614156128435761281a86866130e1565b60405162461bcd60e51b815260040161082890614090565b600080821561289a5760208086015101516128769085611b2c565b91506128938560600151602001518660200151602001518461313e565b90506128cd565b6060850151602001516128ad9085611b2c565b90506128ca8560200151602001518660600151602001518361313e565b91505b935093915050565b6128dd613534565b60006128ea85858561313e565b905085811115612941576040805162461bcd60e51b815260206004820152601860248201527f66696c6c4c6566743a20756e61626c6520746f2066696c6c0000000000000000604482015290519081900360640190fd5b5050604080518082019091529384525050602082015290565b612962613534565b600061296f83878761313e565b9050838111156129c6576040805162461bcd60e51b815260206004820152601960248201527f66696c6c52696768743a20756e61626c6520746f2066696c6c00000000000000604482015290519081900360640190fd5b604080518082019091529283526020830152509392505050565b60006129f66129ef8585612c83565b8590611f9e565b905060005b8251811015612a4b57612a41612a3a848381518110612a1657fe5b6020026020010151602001516001600160601b031687612c8390919063ffffffff16565b8390611f9e565b91506001016129fb565b509392505050565b6000806000612a798888612a746002610161546131a490919063ffffffff16565b6131fd565b90925090508015612b445784516000906001600160e01b0319166322ba176160e21b1415612ac0578560200151806020019051810190612ab991906138fc565b9050612af9565b85516001600160e01b03191663025ceed960e61b1415612af95760008660200151806020019051810190612af49190613b08565b509150505b612b4260405180604001604052808881526020018481525088612b1b8461321f565b887ff87e69cb514f255f3d32f9d90f25160a10d0cdefe6618a6406db334d4450595c612c9b565b505b509695505050505050565b600080612b5b8761325e565b9050600080612b8f8a8989868a8a7fb3c5c697ec0b511b76d12f6293e6ee827b1e1df79ac7c64d0466d945904893d7612bc2565b91509150611388811115612bb55760405162461bcd60e51b8152600401610828906140c7565b5098975050505050505050565b856000805b8651811015611b1f57612c03878281518110612bdf57fe5b6020026020010151602001516001600160601b031683611f9e90919063ffffffff16565b9150600080612c33858b8b8681518110612c1957fe5b6020026020010151602001516001600160601b03166131fd565b90955085925090508015612c7957612c7960405180604001604052808e815260200183815250898b8681518110612c6657fe5b6020026020010151600001518a8a612c9b565b5050600101612bc7565b6000611ff8612710612c9585856131a4565b906133d7565b8451516001600160e01b0319166355575f5d60e11b1415612cd4576020850151612ccf906001600160a01b03851690611b8e565b612fdc565b8451516001600160e01b0319166322ba176160e21b1415612db2576000856000015160200151806020019051810190612d0d91906138fc565b6322ba176160e21b600052609760209081527f4532fa16f071d6234e30e1a1e69b9806f04095edf37a1ca7a25c8d6af7861cc0549088015160405163776062c360e01b81529293506001600160a01b039091169163776062c391612d7a9185918a918a9190600401614066565b600060405180830381600087803b158015612d9457600080fd5b505af1158015612da8573d6000803e3d6000fd5b5050505050612fdc565b8451516001600160e01b0319166339d690a360e11b1415612eb257600080866000015160200151806020019051810190612dec9190613b08565b915091508660200151600114612e145760405162461bcd60e51b815260040161082890614170565b6339d690a360e11b60005260976020527f30a684095c937b5aa064dcf94f9903a7d808e3efb22d8389dbd43080ad4ed3d554604051637b84dc8360e11b81526001600160a01b039091169063f709b90690612e799085908a908a908790600401614066565b600060405180830381600087803b158015612e9357600080fd5b505af1158015612ea7573d6000803e3d6000fd5b505050505050612fdc565b8451516001600160e01b03191663025ceed960e61b1415612f5b57600080866000015160200151806020019051810190612eec9190613b08565b63025ceed960e61b600052609760209081527f4b5822151ea34b7c8d9e37c3e466bcecb631efe6a9f26a4a4054110a93dd316f54908a0151604051639c1c2ee960e01b81529395509193506001600160a01b031691639c1c2ee991612e799186918b918b918891600401614023565b8451516001600160e01b031916600090815260976020526040908190205490516354bc0cf160e01b81526001600160a01b03909116906354bc0cf190612fa9908890889088906004016142dd565b600060405180830381600087803b158015612fc357600080fd5b505af1158015612fd7573d6000803e3d6000fd5b505050505b7fcae9d16f553e92058883de29cb3135dbc0c1e31fd7eace79fef1d80577fe482e8585858585604051613013959493929190614310565b60405180910390a15050505050565b60c95490565b60ca5490565b600083838361303b61343e565b3060405160200180868152602001858152602001848152602001838152602001826001600160a01b03168152602001955050505050506040516020818303038152906040528051906020012090509392505050565b604080517f19457468657265756d205369676e6564204d6573736167653a0a333200000000602080830191909152603c8083019490945282518083039094018452605c909101909152815191012090565b6130e96134f9565b60208084015180519082012083820151805192019190912080821415613113578492505050611b88565b5050604080518082018252600080825282516020808201909452908152918101919091529392505050565b600061314b848484613442565b1561318e576040805162461bcd60e51b815260206004820152600e60248201526d3937bab73234b7339032b93937b960911b604482015290519081900360640190fd5b61319c83612c9586856131a4565b949350505050565b6000826131b357506000611b88565b828202828482816131c057fe5b0414611ff85760405162461bcd60e51b81526004018080602001828103825260218152602001806145026021913960400191505060405180910390fd5b6000806132138561320e8686612c83565b6134d1565b91509150935093915050565b6001600160a01b0380821660009081526101646020526040812054909116801561324a579050611083565b5050610163546001600160a01b0316919050565b80516060906001600160e01b03191663025ceed960e61b1480613292575081516001600160e01b0319166339d690a360e11b145b156133485760008083602001518060200190518101906132b29190613b08565b61016254604051634e53ee3d60e11b81529294509092506001600160a01b031690639ca7dc7a906132e99085908590600401613f67565b600060405180830381600087803b15801561330357600080fd5b505af1158015613317573d6000803e3d6000fd5b505050506040513d6000823e601f3d908101601f1916820160405261333f9190810190613b6d565b92505050611083565b81516001600160e01b03191662737ea960e61b141561338b57600080836020015180602001905181019061337c9190613918565b60800151935061108392505050565b81516001600160e01b03191663d8f960c160e01b14156133cf5760008083602001518060200190518101906133c09190613a15565b60600151935061108392505050565b506060919050565b600080821161342d576040805162461bcd60e51b815260206004820152601a60248201527f536166654d6174683a206469766973696f6e206279207a65726f000000000000604482015290519081900360640190fd5b81838161343657fe5b049392505050565b4690565b600082613489576040805162461bcd60e51b815260206004820152601060248201526f6469766973696f6e206279207a65726f60801b604482015290519081900360640190fd5b811580613494575083155b156134a157506000611ff8565b600083806134ab57fe5b85840990506134ba85846131a4565b6134c6826103e86131a4565b101595945050505050565b600080828411156134f0576134e68484611b2c565b915082905061174e565b50600093915050565b60408051808201909152600081526060602082015290565b604051806060016040528060608152602001606081526020016000151581525090565b604051806040016040528060008152602001600081525090565b604051806040016040528060608152602001606081525090565b604080518082019091526000808252602082015290565b8035611083816143f1565b600082601f83011261359a578081fd5b815160206135af6135aa83614387565b614364565b82815281810190858301855b858110156135e4576135d2898684518b0101613703565b845292840192908401906001016135bb565b5090979650505050505050565b600082601f830112613601578081fd5b815160206136116135aa83614387565b8281528181019085830160408086028801850189101561362f578687fd5b865b8681101561369e5781838b031215613647578788fd5b81518281018181106001600160401b038211171561366157fe5b8352835161366e816143f1565b8152838701516001600160601b038116811461368857898afd5b8188015285529385019391810191600101613631565b509198975050505050505050565b803561108381614406565b600082601f8301126136c7578081fd5b81356136d56135aa826143a4565b8181528460208386010111156136e9578283fd5b816020850160208301379081016020019190915292915050565b600082601f830112613713578081fd5b81516137216135aa826143a4565b818152846020838601011115613735578283fd5b61319c8260208301602087016143c5565b60006040808385031215613758578182fd5b80518181016001600160401b03828210818311171561377357fe5b81845282945085358181111561378857600080fd5b860180880385131561379957600080fd5b6080840183811083821117156137ab57fe5b9094528335936137ba85614406565b938252602084013593818511156137d057600080fd5b6137dc888683016136b7565b60608501525050815260209384013593019290925292915050565b600061012080838503121561380a578182fd5b61381381614364565b91505061381f8261357f565b815260208201356001600160401b038082111561383b57600080fd5b61384785838601613746565b60208401526138586040850161357f565b6040840152606084013591508082111561387157600080fd5b61387d85838601613746565b60608401526080840135608084015260a084013560a084015260c084013560c08401526138ac60e085016136ac565b60e0840152610100915081840135818111156138c757600080fd5b6138d3868287016136b7565b8385015250505092915050565b6000602082840312156138f1578081fd5b8135611ff8816143f1565b60006020828403121561390d578081fd5b8151611ff8816143f1565b6000806040838503121561392a578081fd5b8251613935816143f1565b60208401519092506001600160401b0380821115613951578283fd5b9084019060c08287031215613964578283fd5b61396e60c0614364565b82518152602083015182811115613983578485fd5b61398f88828601613703565b602083015250604083015160408201526060830151828111156139b0578485fd5b6139bc888286016135f1565b6060830152506080830151828111156139d3578485fd5b6139df888286016135f1565b60808301525060a0830151828111156139f6578485fd5b613a028882860161358a565b60a0830152508093505050509250929050565b60008060408385031215613a27578182fd5b8251613a32816143f1565b60208401519092506001600160401b0380821115613a4e578283fd5b9084019060a08287031215613a61578283fd5b613a6b60a0614364565b82518152602083015182811115613a80578485fd5b613a8c88828601613703565b602083015250604083015182811115613aa3578485fd5b613aaf888286016135f1565b604083015250606083015182811115613ac6578485fd5b613ad2888286016135f1565b606083015250608083015182811115613ae9578485fd5b613af58882860161358a565b6080830152508093505050509250929050565b60008060408385031215613b1a578182fd5b8251613b25816143f1565b6020939093015192949293505050565b60008060408385031215613b47578182fd5b8235613b52816143f1565b91506020830135613b62816143f1565b809150509250929050565b600060208284031215613b7e578081fd5b81516001600160401b03811115613b93578182fd5b61319c848285016135f1565b600060208284031215613bb0578081fd5b5035919050565b60008060408385031215613bc9578182fd5b8235613b5281614406565b600080600080600060a08688031215613beb578081fd5b8535613bf6816143f1565b94506020860135613c06816143f1565b9350604086013592506060860135613c1d816143f1565b91506080860135613c2d816143f1565b809150509295509295909350565b600060208284031215613c4c578081fd5b81516001600160401b0380821115613c62578283fd5b9083019060408286031215613c75578283fd5b604051604081018181108382111715613c8a57fe5b6040528251613c9881614406565b8152602083015182811115613cab578485fd5b613cb787828601613703565b60208301525095945050505050565b600060208284031215613cd7578081fd5b81516001600160401b0380821115613ced578283fd5b9083019060408286031215613d00578283fd5b604051604081018181108382111715613d1557fe5b604052825182811115613d26578485fd5b613d32878286016135f1565b825250602083015182811115613d46578485fd5b613cb7878286016135f1565b600060208284031215613d63578081fd5b81516001600160401b0380821115613d79578283fd5b9083019060608286031215613d8c578283fd5b604051606081018181108382111715613da157fe5b604052825182811115613db2578485fd5b613dbe878286016135f1565b825250602083015182811115613dd2578485fd5b613dde878286016135f1565b602083015250604083015192508215158314613df8578384fd5b6040810192909252509392505050565b600060208284031215613e19578081fd5b81356001600160401b03811115613e2e578182fd5b61319c848285016137f7565b60008060008060808587031215613e4f578182fd5b84356001600160401b0380821115613e65578384fd5b613e71888389016137f7565b95506020870135915080821115613e86578384fd5b613e92888389016136b7565b94506040870135915080821115613ea7578384fd5b613eb3888389016137f7565b93506060870135915080821115613ec8578283fd5b50613ed5878288016136b7565b91505092959194509250565b600063ffffffff60e01b82511683526020820151604060208501528051806040860152613f158160608701602085016143c5565b601f01601f1916939093016060019392505050565b6000815160408452613f3f6040850182613ee1565b602093840151949093019390935250919050565b6001600160a01b0391909116815260200190565b6001600160a01b03929092168252602082015260400190565b8481526001600160a01b0384166020820152608060408201819052600090613faa90830185613ee1565b8281036060840152613fbc8185613ee1565b979650505050505050565b888152602081018890526001600160a01b038781166040830152861660608201526080810185905260a0810184905261010060c0820181905260009061400f83820186613ee1565b905082810360e0840152611f8f8185613ee1565b6001600160a01b03958616815293851660208501529190931660408301526060820192909252608081019190915260c060a0820181905260009082015260e00190565b6001600160a01b039485168152928416602084015292166040820152606081019190915260800190565b60208082526017908201527f6e6f7420666f756e64204941737365744d617463686572000000000000000000604082015260600190565b6020808252601d908201527f526f79616c746965732061726520746f6f206869676820283e35302529000000604082015260600190565b6020808252601490820152730c081cd85b1d0818d85b89dd081899481d5cd95960621b604082015260600190565b60208082526024908201527f72696768744f726465722e74616b657220766572696669636174696f6e2066616040820152631a5b195960e21b606082015260800190565b60208082526012908201527132b9319b9918903b30b63ab29032b93937b960711b604082015260600190565b6020808252600f908201526e1b9bdd1a1a5b99c81d1bc8199a5b1b608a1b604082015260600190565b6020808252601e908201527f53756d207061796f75747320427073206e6f7420657175616c20313030250000604082015260600190565b6020808252601290820152710c2e6e6cae8e640c8dedc4ee840dac2e8c6d60731b604082015260600190565b60208082526023908201527f6c6566744f726465722e74616b657220766572696669636174696f6e206661696040820152621b195960ea1b606082015260800190565b6020808252600e908201526d0dcdee840cadcdeeaced040cae8d60931b604082015260600190565b6020808252600b908201526a3737ba10309036b0b5b2b960a91b604082015260600190565b6000604082526142cb6040830185613ee1565b82810360208401526126368185613ee1565b6000606082526142f06060830186613f2a565b6001600160a01b0394851660208401529290931660409091015292915050565b600060a0825261432360a0830188613f2a565b6001600160a01b0396871660208401529490951660408201526001600160e01b03199283166060820152911660809091015292915050565b90815260200190565b6040518181016001600160401b038111828210171561437f57fe5b604052919050565b60006001600160401b0382111561439a57fe5b5060209081020190565b60006001600160401b038211156143b757fe5b50601f01601f191660200190565b60005b838110156143e05781810151838201526020016143c8565b83811115610a095750506000910152565b6001600160a01b0381168114610bc257600080fd5b6001600160e01b031981168114610bc257600080fdfe4f776e61626c653a206e6577206f776e657220697320746865207a65726f206164647265737345434453413a20696e76616c6964207369676e6174757265202773272076616c75656f72646572207369676e617475726520766572696669636174696f6e206572726f72636f6e7472616374206f72646572207369676e617475726520766572696669636174696f6e206572726f72496e697469616c697a61626c653a20636f6e747261637420697320616c726561647920696e697469616c697a656445434453413a20696e76616c6964207369676e6174757265202776272076616c7565536166654d6174683a206d756c7469706c69636174696f6e206f766572666c6f774f776e61626c653a2063616c6c6572206973206e6f7420746865206f776e6572a2646970667358221220c648895bb56a79864ea0e3c3cf76d9b4538e559f0dc174eddcf56d3ec99364fe64736f6c63430007060033",
  "immutableReferences": {},
  "source": "// SPDX-License-Identifier: MIT\n\npragma solidity 0.7.6;\npragma abicoder v2;\n\nimport \"./ExchangeV2Core.sol\";\nimport \"./RaribleTransferManager.sol\";\nimport \"@rarible/royalties/contracts/IRoyaltiesProvider.sol\";\n\ncontract ExchangeV2 is ExchangeV2Core, RaribleTransferManager {\n    function __ExchangeV2_init(\n        INftTransferProxy _transferProxy,\n        IERC20TransferProxy _erc20TransferProxy,\n        uint newProtocolFee,\n        address newDefaultFeeReceiver,\n        IRoyaltiesProvider newRoyaltiesProvider\n    ) external initializer {\n        __Context_init_unchained();\n        __Ownable_init_unchained();\n        __TransferExecutor_init_unchained(_transferProxy, _erc20TransferProxy);\n        __RaribleTransferManager_init_unchained(newProtocolFee, newDefaultFeeReceiver, newRoyaltiesProvider);\n        __OrderValidator_init_unchained();\n    }\n}",
  "sourcePath": "/home/quadro/Projects/rarible/protocol-contracts/exchange-v2/contracts/ExchangeV2.sol",
  "compiler": {
    "name": "solc",
    "version": "0.7.6+commit.7338295f.Emscripten.clang"
  },
  "schemaVersion": "3.4.3",
  "updatedAt": "2021-11-08T12:47:29.840Z",
  "devdoc": {
    "kind": "dev",
    "methods": {
      "owner()": {
        "details": "Returns the address of the current owner."
      },
      "renounceOwnership()": {
        "details": "Leaves the contract without owner. It will not be possible to call `onlyOwner` functions anymore. Can only be called by the current owner. NOTE: Renouncing ownership will leave the contract without an owner, thereby removing any functionality that is only available to the owner."
      },
      "transferOwnership(address)": {
        "details": "Transfers ownership of the contract to a new account (`newOwner`). Can only be called by the current owner."
      }
    },
    "version": 1
  },
  "userdoc": {
    "kind": "user",
    "methods": {},
    "version": 1
  }
}