{
  "contractName": "ExchangeSimpleV2",
  "abi": [
    {
      "anonymous": false,
      "inputs": [
        {
          "indexed": false,
          "internalType": "bytes32",
          "name": "hash",
          "type": "bytes32"
        }
      ],
      "name": "Cancel",
      "type": "event"
    },
    {
      "anonymous": false,
      "inputs": [
        {
          "indexed": false,
          "internalType": "bytes32",
          "name": "leftHash",
          "type": "bytes32"
        },
        {
          "indexed": false,
          "internalType": "bytes32",
          "name": "rightHash",
          "type": "bytes32"
        },
        {
          "indexed": false,
          "internalType": "address",
          "name": "leftMaker",
          "type": "address"
        },
        {
          "indexed": false,
          "internalType": "address",
          "name": "rightMaker",
          "type": "address"
        },
        {
          "indexed": false,
          "internalType": "uint256",
          "name": "newLeftFill",
          "type": "uint256"
        },
        {
          "indexed": false,
          "internalType": "uint256",
          "name": "newRightFill",
          "type": "uint256"
        }
      ],
      "name": "Match",
      "type": "event"
    },
    {
      "anonymous": false,
      "inputs": [
        {
          "indexed": true,
          "internalType": "bytes4",
          "name": "assetType",
          "type": "bytes4"
        },
        {
          "indexed": false,
          "internalType": "address",
          "name": "matcher",
          "type": "address"
        }
      ],
      "name": "MatcherChange",
      "type": "event"
    },
    {
      "anonymous": false,
      "inputs": [
        {
          "indexed": true,
          "internalType": "address",
          "name": "previousOwner",
          "type": "address"
        },
        {
          "indexed": true,
          "internalType": "address",
          "name": "newOwner",
          "type": "address"
        }
      ],
      "name": "OwnershipTransferred",
      "type": "event"
    },
    {
      "anonymous": false,
      "inputs": [
        {
          "indexed": true,
          "internalType": "bytes4",
          "name": "assetType",
          "type": "bytes4"
        },
        {
          "indexed": false,
          "internalType": "address",
          "name": "proxy",
          "type": "address"
        }
      ],
      "name": "ProxyChange",
      "type": "event"
    },
    {
      "anonymous": false,
      "inputs": [
        {
          "components": [
            {
              "components": [
                {
                  "internalType": "bytes4",
                  "name": "assetClass",
                  "type": "bytes4"
                },
                {
                  "internalType": "bytes",
                  "name": "data",
                  "type": "bytes"
                }
              ],
              "internalType": "struct LibAsset.AssetType",
              "name": "assetType",
              "type": "tuple"
            },
            {
              "internalType": "uint256",
              "name": "value",
              "type": "uint256"
            }
          ],
          "indexed": false,
          "internalType": "struct LibAsset.Asset",
          "name": "asset",
          "type": "tuple"
        },
        {
          "indexed": false,
          "internalType": "address",
          "name": "from",
          "type": "address"
        },
        {
          "indexed": false,
          "internalType": "address",
          "name": "to",
          "type": "address"
        },
        {
          "indexed": false,
          "internalType": "bytes4",
          "name": "transferDirection",
          "type": "bytes4"
        },
        {
          "indexed": false,
          "internalType": "bytes4",
          "name": "transferType",
          "type": "bytes4"
        }
      ],
      "name": "Transfer",
      "type": "event"
    },
    {
      "inputs": [
        {
          "components": [
            {
              "internalType": "address",
              "name": "maker",
              "type": "address"
            },
            {
              "components": [
                {
                  "components": [
                    {
                      "internalType": "bytes4",
                      "name": "assetClass",
                      "type": "bytes4"
                    },
                    {
                      "internalType": "bytes",
                      "name": "data",
                      "type": "bytes"
                    }
                  ],
                  "internalType": "struct LibAsset.AssetType",
                  "name": "assetType",
                  "type": "tuple"
                },
                {
                  "internalType": "uint256",
                  "name": "value",
                  "type": "uint256"
                }
              ],
              "internalType": "struct LibAsset.Asset",
              "name": "makeAsset",
              "type": "tuple"
            },
            {
              "internalType": "address",
              "name": "taker",
              "type": "address"
            },
            {
              "components": [
                {
                  "components": [
                    {
                      "internalType": "bytes4",
                      "name": "assetClass",
                      "type": "bytes4"
                    },
                    {
                      "internalType": "bytes",
                      "name": "data",
                      "type": "bytes"
                    }
                  ],
                  "internalType": "struct LibAsset.AssetType",
                  "name": "assetType",
                  "type": "tuple"
                },
                {
                  "internalType": "uint256",
                  "name": "value",
                  "type": "uint256"
                }
              ],
              "internalType": "struct LibAsset.Asset",
              "name": "takeAsset",
              "type": "tuple"
            },
            {
              "internalType": "uint256",
              "name": "salt",
              "type": "uint256"
            },
            {
              "internalType": "uint256",
              "name": "start",
              "type": "uint256"
            },
            {
              "internalType": "uint256",
              "name": "end",
              "type": "uint256"
            },
            {
              "internalType": "bytes4",
              "name": "dataType",
              "type": "bytes4"
            },
            {
              "internalType": "bytes",
              "name": "data",
              "type": "bytes"
            }
          ],
          "internalType": "struct LibOrder.Order",
          "name": "order",
          "type": "tuple"
        }
      ],
      "name": "cancel",
      "outputs": [],
      "stateMutability": "nonpayable",
      "type": "function"
    },
    {
      "inputs": [
        {
          "internalType": "bytes32",
          "name": "",
          "type": "bytes32"
        }
      ],
      "name": "fills",
      "outputs": [
        {
          "internalType": "uint256",
          "name": "",
          "type": "uint256"
        }
      ],
      "stateMutability": "view",
      "type": "function"
    },
    {
      "inputs": [],
      "name": "getChainId",
      "outputs": [
        {
          "internalType": "uint256",
          "name": "chainId",
          "type": "uint256"
        }
      ],
      "stateMutability": "view",
      "type": "function"
    },
    {
      "inputs": [
        {
          "components": [
            {
              "internalType": "address",
              "name": "maker",
              "type": "address"
            },
            {
              "components": [
                {
                  "components": [
                    {
                      "internalType": "bytes4",
                      "name": "assetClass",
                      "type": "bytes4"
                    },
                    {
                      "internalType": "bytes",
                      "name": "data",
                      "type": "bytes"
                    }
                  ],
                  "internalType": "struct LibAsset.AssetType",
                  "name": "assetType",
                  "type": "tuple"
                },
                {
                  "internalType": "uint256",
                  "name": "value",
                  "type": "uint256"
                }
              ],
              "internalType": "struct LibAsset.Asset",
              "name": "makeAsset",
              "type": "tuple"
            },
            {
              "internalType": "address",
              "name": "taker",
              "type": "address"
            },
            {
              "components": [
                {
                  "components": [
                    {
                      "internalType": "bytes4",
                      "name": "assetClass",
                      "type": "bytes4"
                    },
                    {
                      "internalType": "bytes",
                      "name": "data",
                      "type": "bytes"
                    }
                  ],
                  "internalType": "struct LibAsset.AssetType",
                  "name": "assetType",
                  "type": "tuple"
                },
                {
                  "internalType": "uint256",
                  "name": "value",
                  "type": "uint256"
                }
              ],
              "internalType": "struct LibAsset.Asset",
              "name": "takeAsset",
              "type": "tuple"
            },
            {
              "internalType": "uint256",
              "name": "salt",
              "type": "uint256"
            },
            {
              "internalType": "uint256",
              "name": "start",
              "type": "uint256"
            },
            {
              "internalType": "uint256",
              "name": "end",
              "type": "uint256"
            },
            {
              "internalType": "bytes4",
              "name": "dataType",
              "type": "bytes4"
            },
            {
              "internalType": "bytes",
              "name": "data",
              "type": "bytes"
            }
          ],
          "internalType": "struct LibOrder.Order",
          "name": "orderLeft",
          "type": "tuple"
        },
        {
          "internalType": "bytes",
          "name": "signatureLeft",
          "type": "bytes"
        },
        {
          "components": [
            {
              "internalType": "address",
              "name": "maker",
              "type": "address"
            },
            {
              "components": [
                {
                  "components": [
                    {
                      "internalType": "bytes4",
                      "name": "assetClass",
                      "type": "bytes4"
                    },
                    {
                      "internalType": "bytes",
                      "name": "data",
                      "type": "bytes"
                    }
                  ],
                  "internalType": "struct LibAsset.AssetType",
                  "name": "assetType",
                  "type": "tuple"
                },
                {
                  "internalType": "uint256",
                  "name": "value",
                  "type": "uint256"
                }
              ],
              "internalType": "struct LibAsset.Asset",
              "name": "makeAsset",
              "type": "tuple"
            },
            {
              "internalType": "address",
              "name": "taker",
              "type": "address"
            },
            {
              "components": [
                {
                  "components": [
                    {
                      "internalType": "bytes4",
                      "name": "assetClass",
                      "type": "bytes4"
                    },
                    {
                      "internalType": "bytes",
                      "name": "data",
                      "type": "bytes"
                    }
                  ],
                  "internalType": "struct LibAsset.AssetType",
                  "name": "assetType",
                  "type": "tuple"
                },
                {
                  "internalType": "uint256",
                  "name": "value",
                  "type": "uint256"
                }
              ],
              "internalType": "struct LibAsset.Asset",
              "name": "takeAsset",
              "type": "tuple"
            },
            {
              "internalType": "uint256",
              "name": "salt",
              "type": "uint256"
            },
            {
              "internalType": "uint256",
              "name": "start",
              "type": "uint256"
            },
            {
              "internalType": "uint256",
              "name": "end",
              "type": "uint256"
            },
            {
              "internalType": "bytes4",
              "name": "dataType",
              "type": "bytes4"
            },
            {
              "internalType": "bytes",
              "name": "data",
              "type": "bytes"
            }
          ],
          "internalType": "struct LibOrder.Order",
          "name": "orderRight",
          "type": "tuple"
        },
        {
          "internalType": "bytes",
          "name": "signatureRight",
          "type": "bytes"
        }
      ],
      "name": "matchOrders",
      "outputs": [],
      "stateMutability": "payable",
      "type": "function"
    },
    {
      "inputs": [],
      "name": "owner",
      "outputs": [
        {
          "internalType": "address",
          "name": "",
          "type": "address"
        }
      ],
      "stateMutability": "view",
      "type": "function"
    },
    {
      "inputs": [],
      "name": "renounceOwnership",
      "outputs": [],
      "stateMutability": "nonpayable",
      "type": "function"
    },
    {
      "inputs": [
        {
          "internalType": "bytes4",
          "name": "assetType",
          "type": "bytes4"
        },
        {
          "internalType": "address",
          "name": "matcher",
          "type": "address"
        }
      ],
      "name": "setAssetMatcher",
      "outputs": [],
      "stateMutability": "nonpayable",
      "type": "function"
    },
    {
      "inputs": [
        {
          "internalType": "bytes4",
          "name": "assetType",
          "type": "bytes4"
        },
        {
          "internalType": "address",
          "name": "proxy",
          "type": "address"
        }
      ],
      "name": "setTransferProxy",
      "outputs": [],
      "stateMutability": "nonpayable",
      "type": "function"
    },
    {
      "inputs": [
        {
          "internalType": "address",
          "name": "newOwner",
          "type": "address"
        }
      ],
      "name": "transferOwnership",
      "outputs": [],
      "stateMutability": "nonpayable",
      "type": "function"
    },
    {
      "inputs": [
        {
          "internalType": "contract TransferProxy",
          "name": "_transferProxy",
          "type": "address"
        },
        {
          "internalType": "contract ERC20TransferProxy",
          "name": "_erc20TransferProxy",
          "type": "address"
        }
      ],
      "name": "__ExchangeSimpleV2_init",
      "outputs": [],
      "stateMutability": "nonpayable",
      "type": "function"
    }
  ],
  "bytecode": "0x608060405234801561001057600080fd5b50612d16806100206000396000f3fe6080604052600436106100915760003560e01c806398f1b9521161005957806398f1b9521461013a578063b39deb461461015a578063e2864fe31461017a578063e99a3f801461019a578063f2fde38b146101ad57610091565b806320158c441461009657806330c642f1146100cc5780633408e470146100ee578063715018a6146101035780638da5cb5b14610118575b600080fd5b3480156100a257600080fd5b506100b66100b1366004612621565b6101cd565b6040516100c391906128ba565b60405180910390f35b3480156100d857600080fd5b506100ec6100e7366004612639565b6101e0565b005b3480156100fa57600080fd5b506100b66102b0565b34801561010f57600080fd5b506100ec6102b4565b34801561012457600080fd5b5061012d610360565b6040516100c391906128a6565b34801561014657600080fd5b506100ec610155366004612671565b61036f565b34801561016657600080fd5b506100ec610175366004612639565b610435565b34801561018657600080fd5b506100ec610195366004612756565b6104f9565b6100ec6101a8366004612789565b610599565b3480156101b957600080fd5b506100ec6101c83660046125bc565b610655565b61012f6020526000908152604090205481565b6101e8610758565b6001600160a01b03166101f9610360565b6001600160a01b031614610242576040805162461bcd60e51b81526020600482018190526024820152600080516020612cc1833981519152604482015290519081900360640190fd5b6001600160e01b031982166000818152609760205260409081902080546001600160a01b0319166001600160a01b038516179055517f4b5aced933c0c9a88aeac3f0b3b72c5aaf75df8ebaf53225773248c4c3153593906102a49084906128a6565b60405180910390a25050565b4690565b6102bc610758565b6001600160a01b03166102cd610360565b6001600160a01b031614610316576040805162461bcd60e51b81526020600482018190526024820152600080516020612cc1833981519152604482015290519081900360640190fd5b6033546040516000916001600160a01b0316907f8be0079c531659141344cd1fd0a4f28419497f9722a3daafe3b4186f6b6457e0908390a3603380546001600160a01b0319169055565b6033546001600160a01b031690565b600054610100900460ff1680610388575061038861075c565b80610396575060005460ff16155b6103d15760405162461bcd60e51b815260040180806020018281038252602e815260200180612c50602e913960400191505060405180910390fd5b600054610100900460ff161580156103fc576000805460ff1961ff0019909116610100171660011790555b61040461076d565b61040c61080f565b6104168383610908565b61041e6109b2565b8015610430576000805461ff00191690555b505050565b61043d610758565b6001600160a01b031661044e610360565b6001600160a01b031614610497576040805162461bcd60e51b81526020600482018190526024820152600080516020612cc1833981519152604482015290519081900360640190fd5b6001600160e01b031982166000818152606560205260409081902080546001600160a01b0319166001600160a01b038516179055517fd2bf91075f105d0fd80328da28e20ebdad1c1261839711183bc29a44cbe6c72f906102a49084906128a6565b80516001600160a01b031661050c610758565b6001600160a01b03161461053b5760405162461bcd60e51b815260040161053290612aa2565b60405180910390fd5b600061054682610a82565b600081815261012f6020526040908190206000199055519091507fe8d9861dbc9c663ed3accd261bbe2fe01e0d3d9e5f51fa38523b265c7757a93a9061058d9083906128ba565b60405180910390a15050565b6105a38484610af7565b6105ad8282610af7565b60408401516001600160a01b0316156105f95783604001516001600160a01b031682600001516001600160a01b0316146105f95760405162461bcd60e51b8152600401610532906129c5565b60408201516001600160a01b0316156106455783600001516001600160a01b031682604001516001600160a01b0316146106455760405162461bcd60e51b8152600401610532906129c5565b61064f8483610b0e565b50505050565b61065d610758565b6001600160a01b031661066e610360565b6001600160a01b0316146106b7576040805162461bcd60e51b81526020600482018190526024820152600080516020612cc1833981519152604482015290519081900360640190fd5b6001600160a01b0381166106fc5760405162461bcd60e51b8152600401808060200182810382526026815260200180612c086026913960400191505060405180910390fd5b6033546040516001600160a01b038084169216907f8be0079c531659141344cd1fd0a4f28419497f9722a3daafe3b4186f6b6457e090600090a3603380546001600160a01b0319166001600160a01b0392909216919091179055565b3390565b600061076730610d07565b15905090565b600054610100900460ff1680610786575061078661075c565b80610794575060005460ff16155b6107cf5760405162461bcd60e51b815260040180806020018281038252602e815260200180612c50602e913960400191505060405180910390fd5b600054610100900460ff161580156107fa576000805460ff1961ff0019909116610100171660011790555b801561080c576000805461ff00191690555b50565b600054610100900460ff1680610828575061082861075c565b80610836575060005460ff16155b6108715760405162461bcd60e51b815260040180806020018281038252602e815260200180612c50602e913960400191505060405180910390fd5b600054610100900460ff1615801561089c576000805460ff1961ff0019909116610100171660011790555b60006108a6610758565b603380546001600160a01b0319166001600160a01b038316908117909155604051919250906000907f8be0079c531659141344cd1fd0a4f28419497f9722a3daafe3b4186f6b6457e0908290a350801561080c576000805461ff001916905550565b60976020527f4532fa16f071d6234e30e1a1e69b9806f04095edf37a1ca7a25c8d6af7861cc080546001600160a01b039283166001600160a01b0319918216179091557f30a684095c937b5aa064dcf94f9903a7d808e3efb22d8389dbd43080ad4ed3d5805493909216928116831790915563025ceed960e61b6000527f4b5822151ea34b7c8d9e37c3e466bcecb631efe6a9f26a4a4054110a93dd316f80549091169091179055565b600054610100900460ff16806109cb57506109cb61075c565b806109d9575060005460ff16155b610a145760405162461bcd60e51b815260040180806020018281038252602e815260200180612c50602e913960400191505060405180910390fd5b600054610100900460ff16158015610a3f576000805460ff1961ff0019909116610100171660011790555b6107fa6040518060400160405280600881526020016745786368616e676560c01b815250604051806040016040528060018152602001601960f91b815250610d0d565b805160208201515160009190610a9790610dcd565b606084015151610aa690610dcd565b846080015160405160200180856001600160a01b031681526020018481526020018381526020018281526020019450505050506040516020818303038152906040528051906020012090505b919050565b610b0082610e37565b610b0a8282610f01565b5050565b600080610b1b8484611110565b915091506000610b2a85610a82565b90506000610b3785610a82565b600083815261012f602052604080822054838352908220549293509190610b60898985856111a9565b90506000816020015111610b865760405162461bcd60e51b8152600401610532906129fc565b600080610b968989858e8e611239565b8a5191935091506001600160e01b0319166355575f5d60e11b1415610bef5781341015610bd55760405162461bcd60e51b815260040161053290612a7a565b81341115610bea57610bea333484900361132a565b610c3e565b87516001600160e01b0319166355575f5d60e11b1415610c3e5780341015610c295760405162461bcd60e51b815260040161053290612a7a565b80341115610c3e57610c3e333483900361132a565b6000610c48610758565b90508b600001516001600160a01b0316816001600160a01b031614610c835760208085015160008a815261012f909252604090912090870190555b8a516001600160a01b03828116911614610cae578351600088815261012f6020526040902090860190555b8b518b51602086015186516040517f6bd3176da6f0aab285937ad5ead5f53b9036f403cfad62f77e4e0f80b5a7e18d94610cf1948e948e949293919290916128c3565b60405180910390a1505050505050505050505050565b3b151590565b600054610100900460ff1680610d265750610d2661075c565b80610d34575060005460ff16155b610d6f5760405162461bcd60e51b815260040180806020018281038252602e815260200180612c50602e913960400191505060405180910390fd5b600054610100900460ff16158015610d9a576000805460ff1961ff0019909116610100171660011790555b825160208085019190912083519184019190912060c99190915560ca558015610430576000805461ff0019169055505050565b8051602091820151805190830120604080517f452a0dc408cb0d27ffc3b3caff933a5208040a53a9dbecd8d89cad2c0d40e00c818601526001600160e01b031990931683820152606080840192909252805180840390920182526080909201909152805191012090565b60a08101511580610e4b5750428160a00151105b610e9c576040805162461bcd60e51b815260206004820152601d60248201527f4f726465722073746172742076616c69646174696f6e206661696c6564000000604482015290519081900360640190fd5b60c08101511580610eb05750428160c00151115b61080c576040805162461bcd60e51b815260206004820152601b60248201527f4f7264657220656e642076616c69646174696f6e206661696c65640000000000604482015290519081900360640190fd5b81516001600160a01b0316610f14610758565b6001600160a01b031614610b0a576000610f2d836113c2565b9050610f4583600001516001600160a01b0316610d07565b15611097578251630b135d3f60e11b906001600160a01b0316631626ba7e610f6c846114b2565b856040518363ffffffff1660e01b81526004018083815260200180602001828103825283818151815260200191508051906020019080838360005b83811015610fbf578181015183820152602001610fa7565b50505050905090810190601f168015610fec5780820380516001836020036101000a031916815260200191505b50935050505060206040518083038186803b15801561100a57600080fd5b505afa15801561101e573d6000803e3d6000fd5b505050506040513d602081101561103457600080fd5b50516001600160e01b03191614611092576040805162461bcd60e51b815260206004820152601c60248201527f7369676e617475726520766572696669636174696f6e206572726f7200000000604482015290519081900360640190fd5b610430565b82516001600160a01b03166110b5836110af846114b2565b906114fe565b6001600160a01b031614610430576040805162461bcd60e51b815260206004820152601c60248201527f7369676e617475726520766572696669636174696f6e206572726f7200000000604482015290519081900360640190fd5b611118612387565b611120612387565b6020840151516060840151516111369190611580565b80519092506001600160e01b0319166111615760405162461bcd60e51b815260040161053290612a25565b6060840151516020840151516111779190611580565b80519091506001600160e01b0319166111a25760405162461bcd60e51b815260040161053290612a25565b9250929050565b6111b161239f565b6000806111be87866115c0565b915091506000806111cf88876115c0565b9150915081831115611202576111f78960200151602001518a60600151602001518484611604565b945050505050611231565b83811115611226576111f784848a60200151602001518b606001516020015161168a565b6111f784848361170f565b949350505050565b81518151604080518082019091528781528551602082015284516000938493909290916112a99190837fa10bb5b2060a412d05113732875a5431ca23453eb93f797e0ffcb5b40e5f2c3e7f1a0388dd7519a093630516a672419a2562e0e74deb98af068657dc265f0164c961178b565b61131260405180604001604052808a815260200189602001518152508660000151847fa10bb5b2060a412d05113732875a5431ca23453eb93f797e0ffcb5b40e5f2c3e7fb45a3ba14423c8f1b71cc094845ab56b5294dbe8d8e3ba53f3cdb63d59a4044b61178b565b50508451602090950151949794965093945050505050565b6040516000906001600160a01b0384169083908381818185875af1925050503d8060008114611375576040519150601f19603f3d011682016040523d82523d6000602084013e61137a565b606091505b5050905080610430576040805162461bcd60e51b815260206004820152600f60248201526e1d1c985b9cd9995c8819985a5b1959608a1b604482015290519081900360640190fd5b60007f477ed43b8020849b755512278536c3766a3b4ab547519949a75f483372493f8d82600001516113f78460200151611b7a565b84604001516114098660600151611b7a565b86608001518760a001518860c001518960e001518a610100015180519060200120604051602001808b81526020018a6001600160a01b03168152602001898152602001886001600160a01b03168152602001878152602001868152602001858152602001848152602001836001600160e01b03191681526020018281526020019a5050505050505050505050604051602081830303815290604052805190602001209050919050565b60006114bc611bea565b82604051602001808061190160f01b81525060020183815260200182815260200192505050604051602081830303815290604052805190602001209050919050565b60008151604114611556576040805162461bcd60e51b815260206004820152601f60248201527f45434453413a20696e76616c6964207369676e6174757265206c656e67746800604482015290519081900360640190fd5b60208201516040830151606084015160001a61157486828585611c2a565b93505050505b92915050565b611588612387565b60006115948484611da8565b80519091506001600160e01b0319166115b9576115b18385611da8565b91505061157a565b905061157a565b6000806115de8385606001516020015161210990919063ffffffff16565b90506115fb84602001516020015185606001516020015183612166565b91509250929050565b61160c61239f565b6000611619838787612166565b905083811115611670576040805162461bcd60e51b815260206004820152601960248201527f66696c6c52696768743a20756e61626c6520746f2066696c6c00000000000000604482015290519081900360640190fd5b604080518082019091529283526020830152509392505050565b61169261239f565b600061169f858585612166565b9050858111156116f6576040805162461bcd60e51b815260206004820152601860248201527f66696c6c4c6566743a20756e61626c6520746f2066696c6c0000000000000000604482015290519081900360640190fd5b5050604080518082019091529384525050602082015290565b61171761239f565b8382111561176c576040805162461bcd60e51b815260206004820152601860248201527f66696c6c426f74683a20756e61626c6520746f2066696c6c0000000000000000604482015290519081900360640190fd5b60405180604001604052808581526020018481525090505b9392505050565b8451516001600160e01b0319166355575f5d60e11b141561182c576000836001600160a01b031686602001516040516117c3906128a3565b60006040518083038185875af1925050503d8060008114611800576040519150601f19603f3d011682016040523d82523d6000602084013e611805565b606091505b50509050806118265760405162461bcd60e51b815260040161053290612a51565b50611b34565b8451516001600160e01b0319166322ba176160e21b141561190a57600085600001516020015180602001905181019061186591906125d8565b6322ba176160e21b600052609760209081527f4532fa16f071d6234e30e1a1e69b9806f04095edf37a1ca7a25c8d6af7861cc0549088015160405163776062c360e01b81529293506001600160a01b039091169163776062c3916118d29185918a918a9190600401612938565b600060405180830381600087803b1580156118ec57600080fd5b505af1158015611900573d6000803e3d6000fd5b5050505050611b34565b8451516001600160e01b0319166339d690a360e11b1415611a0a5760008086600001516020015180602001905181019061194491906125f4565b91509150866020015160011461196c5760405162461bcd60e51b815260040161053290612999565b6339d690a360e11b60005260976020527f30a684095c937b5aa064dcf94f9903a7d808e3efb22d8389dbd43080ad4ed3d554604051637b84dc8360e11b81526001600160a01b039091169063f709b906906119d19085908a908a908790600401612938565b600060405180830381600087803b1580156119eb57600080fd5b505af11580156119ff573d6000803e3d6000fd5b505050505050611b34565b8451516001600160e01b03191663025ceed960e61b1415611ab357600080866000015160200151806020019051810190611a4491906125f4565b63025ceed960e61b600052609760209081527f4b5822151ea34b7c8d9e37c3e466bcecb631efe6a9f26a4a4054110a93dd316f54908a0151604051639c1c2ee960e01b81529395509193506001600160a01b031691639c1c2ee9916119d19186918b918b9188916004016128f5565b8451516001600160e01b031916600090815260976020526040908190205490516354bc0cf160e01b81526001600160a01b03909116906354bc0cf190611b0190889088908890600401612aec565b600060405180830381600087803b158015611b1b57600080fd5b505af1158015611b2f573d6000803e3d6000fd5b505050505b7fcae9d16f553e92058883de29cb3135dbc0c1e31fd7eace79fef1d80577fe482e8585858585604051611b6b959493929190612b1f565b60405180910390a15050505050565b60007fdb6f72e915676cfc289da13bc4ece054fd17b1df6d77ffc4a60510718c236b08611baa8360000151610dcd565b8360200151604051602001808481526020018381526020018281526020019350505050604051602081830303815290604052805190602001209050919050565b6000611c257f8b73c3c69bb8fe3d512ecc4cf759cc79239f7b179b0ffacaa9a75d522b39400f611c186121ca565b611c206121d0565b6121d6565b905090565b60007f7fffffffffffffffffffffffffffffff5d576e7357a4501ddfe92f46681b20a0821115611c8b5760405162461bcd60e51b8152600401808060200182810382526022815260200180612c2e6022913960400191505060405180910390fd5b8360ff16601b1480611ca057508360ff16601c145b611cdb5760405162461bcd60e51b8152600401808060200182810382526022815260200180612c7e6022913960400191505060405180910390fd5b600060018686868660405160008152602001604052604051808581526020018460ff1681526020018381526020018281526020019450505050506020604051602081039080840390855afa158015611d37573d6000803e3d6000fd5b5050604051601f1901519150506001600160a01b038116611d9f576040805162461bcd60e51b815260206004820152601860248201527f45434453413a20696e76616c6964207369676e61747572650000000000000000604482015290519081900360640190fd5b95945050505050565b611db0612387565b825182516001600160e01b031982166355575f5d60e11b1415611e1b576001600160e01b031981166355575f5d60e11b1415611df057849250505061157a565b505060408051808201825260008082528251602081810190945290815291810191909152905061157a565b6001600160e01b031982166322ba176160e21b1415611ed8576001600160e01b031981166322ba176160e21b1415611df05760008560200151806020019051810190611e6791906125d8565b905060008560200151806020019051810190611e8391906125d8565b9050806001600160a01b0316826001600160a01b03161415611eab578694505050505061157a565b5050505060408051808201825260008082528251602081810190945290815291810191909152905061157a565b6001600160e01b031982166339d690a360e11b1415611faa576001600160e01b031981166339d690a360e11b1415611df0576000808660200151806020019051810190611f2591906125f4565b915091506000808760200151806020019051810190611f4491906125f4565b91509150816001600160a01b0316846001600160a01b0316148015611f6857508083145b15611f7b5788965050505050505061157a565b50505050505060408051808201825260008082528251602081810190945290815291810191909152905061157a565b6001600160e01b0319821663025ceed960e61b1415611ff7576001600160e01b0319811663025ceed960e61b1415611df0576000808660200151806020019051810190611f2591906125f4565b6001600160e01b031982166000908152606560205260409020546001600160a01b031680156120ac576040516306d3f7cb60e41b81526001600160a01b03821690636d3f7cb09061204e9089908990600401612ac7565b60006040518083038186803b15801561206657600080fd5b505afa15801561207a573d6000803e3d6000fd5b505050506040513d6000823e601f3d908101601f191682016040526120a2919081019061268e565b935050505061157a565b6001600160e01b031983811690831614156120f157602080870151805190820120868201518051920191909120808214156120ee57879550505050505061157a565b50505b60405162461bcd60e51b815260040161053290612962565b600082821115612160576040805162461bcd60e51b815260206004820152601e60248201527f536166654d6174683a207375627472616374696f6e206f766572666c6f770000604482015290519081900360640190fd5b50900390565b6000612173848484612238565b156121b6576040805162461bcd60e51b815260206004820152600e60248201526d3937bab73234b7339032b93937b960911b604482015290519081900360640190fd5b611231836121c486856122c7565b90612320565b60c95490565b60ca5490565b60008383836121e36102b0565b3060405160200180868152602001858152602001848152602001838152602001826001600160a01b03168152602001955050505050506040516020818303038152906040528051906020012090509392505050565b60008261227f576040805162461bcd60e51b815260206004820152601060248201526f6469766973696f6e206279207a65726f60801b604482015290519081900360640190fd5b81158061228a575083155b1561229757506000611784565b600083806122a157fe5b85840990506122b085846122c7565b6122bc826103e86122c7565b101595945050505050565b6000826122d65750600061157a565b828202828482816122e357fe5b04146117845760405162461bcd60e51b8152600401808060200182810382526021815260200180612ca06021913960400191505060405180910390fd5b6000808211612376576040805162461bcd60e51b815260206004820152601a60248201527f536166654d6174683a206469766973696f6e206279207a65726f000000000000604482015290519081900360640190fd5b81838161237f57fe5b049392505050565b60408051808201909152600081526060602082015290565b604051806040016040528060008152602001600081525090565b8035610af281612bdc565b8035610af281612bf1565b600082601f8301126123df578081fd5b81356123f26123ed82612b8e565b612b6a565b818152846020838601011115612406578283fd5b816020850160208301379081016020019190915292915050565b60006040808385031215612432578182fd5b805181810167ffffffffffffffff828210818311171561244e57fe5b81845282945085358181111561246357600080fd5b860180880385131561247457600080fd5b60808401838110838211171561248657fe5b90945283359361249585612bf1565b938252602084013593818511156124ab57600080fd5b6124b7888683016123cf565b60608501525050815260209384013593019290925292915050565b60006101208083850312156124e5578182fd5b6124ee81612b6a565b9150506124fa826123b9565b8152602082013567ffffffffffffffff8082111561251757600080fd5b61252385838601612420565b6020840152612534604085016123b9565b6040840152606084013591508082111561254d57600080fd5b61255985838601612420565b60608401526080840135608084015260a084013560a084015260c084013560c084015261258860e085016123c4565b60e0840152610100915081840135818111156125a357600080fd5b6125af868287016123cf565b8385015250505092915050565b6000602082840312156125cd578081fd5b813561178481612bdc565b6000602082840312156125e9578081fd5b815161178481612bdc565b60008060408385031215612606578081fd5b825161261181612bdc565b6020939093015192949293505050565b600060208284031215612632578081fd5b5035919050565b6000806040838503121561264b578182fd5b823561265681612bf1565b9150602083013561266681612bdc565b809150509250929050565b60008060408385031215612683578182fd5b823561265681612bdc565b600060208083850312156126a0578182fd5b825167ffffffffffffffff808211156126b7578384fd5b90840190604082870312156126ca578384fd5b6040516040810181811083821117156126df57fe5b60405282516126ed81612bf1565b815282840151828111156126ff578586fd5b80840193505086601f840112612713578485fd5b825191506127236123ed83612b8e565b8281528785848601011115612736578586fd5b61274583868301878701612bb0565b938101939093525090949350505050565b600060208284031215612767578081fd5b813567ffffffffffffffff81111561277d578182fd5b611231848285016124d2565b6000806000806080858703121561279e578182fd5b843567ffffffffffffffff808211156127b5578384fd5b6127c1888389016124d2565b955060208701359150808211156127d6578384fd5b6127e2888389016123cf565b945060408701359150808211156127f7578384fd5b612803888389016124d2565b93506060870135915080821115612818578283fd5b50612825878288016123cf565b91505092959194509250565b600063ffffffff60e01b82511683526020820151604060208501528051806040860152612865816060870160208501612bb0565b601f01601f1916939093016060019392505050565b600081516040845261288f6040850182612831565b602093840151949093019390935250919050565b90565b6001600160a01b0391909116815260200190565b90815260200190565b95865260208601949094526001600160a01b03928316604086015291166060840152608083015260a082015260c00190565b6001600160a01b03958616815293851660208501529190931660408301526060820192909252608081019190915260c060a0820181905260009082015260e00190565b6001600160a01b039485168152928416602084015292166040820152606081019190915260800190565b60208082526017908201527f6e6f7420666f756e64204941737365744d617463686572000000000000000000604082015260600190565b60208082526012908201527132b9319b9918903b30b63ab29032b93937b960711b604082015260600190565b60208082526019908201527f74616b657220766572696669636174696f6e206661696c656400000000000000604082015260600190565b6020808252600f908201526e1b9bdd1a1a5b99c81d1bc8199a5b1b608a1b604082015260600190565b6020808252601290820152710c2e6e6cae8e640c8dedc4ee840dac2e8c6d60731b604082015260600190565b6020808252600f908201526e1d1c985b9cd9995c8819985a5b1959608a1b604082015260600190565b6020808252600e908201526d0dcdee840cadcdeeaced040cae8d60931b604082015260600190565b6020808252600b908201526a3737ba10309036b0b5b2b960a91b604082015260600190565b600060408252612ada6040830185612831565b8281036020840152611d9f8185612831565b600060608252612aff606083018661287a565b6001600160a01b0394851660208401529290931660409091015292915050565b600060a08252612b3260a083018861287a565b6001600160a01b0396871660208401529490951660408201526001600160e01b03199283166060820152911660809091015292915050565b60405181810167ffffffffffffffff81118282101715612b8657fe5b604052919050565b600067ffffffffffffffff821115612ba257fe5b50601f01601f191660200190565b60005b83811015612bcb578181015183820152602001612bb3565b8381111561064f5750506000910152565b6001600160a01b038116811461080c57600080fd5b6001600160e01b03198116811461080c57600080fdfe4f776e61626c653a206e6577206f776e657220697320746865207a65726f206164647265737345434453413a20696e76616c6964207369676e6174757265202773272076616c7565496e697469616c697a61626c653a20636f6e747261637420697320616c726561647920696e697469616c697a656445434453413a20696e76616c6964207369676e6174757265202776272076616c7565536166654d6174683a206d756c7469706c69636174696f6e206f766572666c6f774f776e61626c653a2063616c6c6572206973206e6f7420746865206f776e6572a2646970667358221220021ebe55c9b9ddff4b3dbcbfdd83ba7083e53bb8506da5a097141258bbba6b6b64736f6c63430007060033",
  "immutableReferences": {},
  "source": "// SPDX-License-Identifier: MIT\n\npragma solidity >=0.6.2 <0.8.0;\npragma abicoder v2;\n\nimport \"./ExchangeV2Core.sol\";\nimport \"./SimpleTransferManager.sol\";\n\ncontract ExchangeSimpleV2 is ExchangeV2Core, SimpleTransferManager {\n    function __ExchangeSimpleV2_init(\n        TransferProxy _transferProxy,\n        ERC20TransferProxy _erc20TransferProxy\n    ) external initializer {\n        __Context_init_unchained();\n        __Ownable_init_unchained();\n        __TransferExecutor_init_unchained(_transferProxy, _erc20TransferProxy);\n        __OrderValidator_init_unchained();\n    }\n}\n",
  "sourcePath": "/home/quadro/Projects/tokenplace/interfaces/exchange-v2/contracts/exchange/v2/ExchangeSimpleV2.sol",
  "compiler": {
    "name": "solc",
    "version": "0.7.6+commit.7338295f.Emscripten.clang"
  },
  "schemaVersion": "3.3.4",
  "updatedAt": "2021-04-09T13:32:39.587Z",
  "devdoc": {
    "kind": "dev",
    "methods": {
      "owner()": {
        "details": "Returns the address of the current owner."
      },
      "renounceOwnership()": {
        "details": "Leaves the contract without owner. It will not be possible to call `onlyOwner` functions anymore. Can only be called by the current owner. NOTE: Renouncing ownership will leave the contract without an owner, thereby removing any functionality that is only available to the owner."
      },
      "transferOwnership(address)": {
        "details": "Transfers ownership of the contract to a new account (`newOwner`). Can only be called by the current owner."
      }
    },
    "version": 1
  },
  "userdoc": {
    "kind": "user",
    "methods": {},
    "version": 1
  }
}