{
  "contractName": "ExchangeV2",
  "abi": [
    {
      "anonymous": false,
      "inputs": [
        {
          "indexed": false,
          "internalType": "bytes32",
          "name": "hash",
          "type": "bytes32"
        },
        {
          "indexed": false,
          "internalType": "address",
          "name": "maker",
          "type": "address"
        },
        {
          "components": [
            {
              "internalType": "bytes4",
              "name": "assetClass",
              "type": "bytes4"
            },
            {
              "internalType": "bytes",
              "name": "data",
              "type": "bytes"
            }
          ],
          "indexed": false,
          "internalType": "struct LibAsset.AssetType",
          "name": "makeAssetType",
          "type": "tuple"
        },
        {
          "components": [
            {
              "internalType": "bytes4",
              "name": "assetClass",
              "type": "bytes4"
            },
            {
              "internalType": "bytes",
              "name": "data",
              "type": "bytes"
            }
          ],
          "indexed": false,
          "internalType": "struct LibAsset.AssetType",
          "name": "takeAssetType",
          "type": "tuple"
        }
      ],
      "name": "Cancel",
      "type": "event"
    },
    {
      "anonymous": false,
      "inputs": [
        {
          "indexed": false,
          "internalType": "bytes32",
          "name": "leftHash",
          "type": "bytes32"
        },
        {
          "indexed": false,
          "internalType": "bytes32",
          "name": "rightHash",
          "type": "bytes32"
        },
        {
          "indexed": false,
          "internalType": "address",
          "name": "leftMaker",
          "type": "address"
        },
        {
          "indexed": false,
          "internalType": "address",
          "name": "rightMaker",
          "type": "address"
        },
        {
          "indexed": false,
          "internalType": "uint256",
          "name": "newLeftFill",
          "type": "uint256"
        },
        {
          "indexed": false,
          "internalType": "uint256",
          "name": "newRightFill",
          "type": "uint256"
        },
        {
          "components": [
            {
              "internalType": "bytes4",
              "name": "assetClass",
              "type": "bytes4"
            },
            {
              "internalType": "bytes",
              "name": "data",
              "type": "bytes"
            }
          ],
          "indexed": false,
          "internalType": "struct LibAsset.AssetType",
          "name": "leftAsset",
          "type": "tuple"
        },
        {
          "components": [
            {
              "internalType": "bytes4",
              "name": "assetClass",
              "type": "bytes4"
            },
            {
              "internalType": "bytes",
              "name": "data",
              "type": "bytes"
            }
          ],
          "indexed": false,
          "internalType": "struct LibAsset.AssetType",
          "name": "rightAsset",
          "type": "tuple"
        }
      ],
      "name": "Match",
      "type": "event"
    },
    {
      "anonymous": false,
      "inputs": [
        {
          "indexed": true,
          "internalType": "bytes4",
          "name": "assetType",
          "type": "bytes4"
        },
        {
          "indexed": false,
          "internalType": "address",
          "name": "matcher",
          "type": "address"
        }
      ],
      "name": "MatcherChange",
      "type": "event"
    },
    {
      "anonymous": false,
      "inputs": [
        {
          "indexed": true,
          "internalType": "address",
          "name": "previousOwner",
          "type": "address"
        },
        {
          "indexed": true,
          "internalType": "address",
          "name": "newOwner",
          "type": "address"
        }
      ],
      "name": "OwnershipTransferred",
      "type": "event"
    },
    {
      "anonymous": false,
      "inputs": [
        {
          "indexed": true,
          "internalType": "bytes4",
          "name": "assetType",
          "type": "bytes4"
        },
        {
          "indexed": false,
          "internalType": "address",
          "name": "proxy",
          "type": "address"
        }
      ],
      "name": "ProxyChange",
      "type": "event"
    },
    {
      "anonymous": false,
      "inputs": [
        {
          "components": [
            {
              "components": [
                {
                  "internalType": "bytes4",
                  "name": "assetClass",
                  "type": "bytes4"
                },
                {
                  "internalType": "bytes",
                  "name": "data",
                  "type": "bytes"
                }
              ],
              "internalType": "struct LibAsset.AssetType",
              "name": "assetType",
              "type": "tuple"
            },
            {
              "internalType": "uint256",
              "name": "value",
              "type": "uint256"
            }
          ],
          "indexed": false,
          "internalType": "struct LibAsset.Asset",
          "name": "asset",
          "type": "tuple"
        },
        {
          "indexed": false,
          "internalType": "address",
          "name": "from",
          "type": "address"
        },
        {
          "indexed": false,
          "internalType": "address",
          "name": "to",
          "type": "address"
        },
        {
          "indexed": false,
          "internalType": "bytes4",
          "name": "transferDirection",
          "type": "bytes4"
        },
        {
          "indexed": false,
          "internalType": "bytes4",
          "name": "transferType",
          "type": "bytes4"
        }
      ],
      "name": "Transfer",
      "type": "event"
    },
    {
      "inputs": [
        {
          "components": [
            {
              "internalType": "address",
              "name": "maker",
              "type": "address"
            },
            {
              "components": [
                {
                  "components": [
                    {
                      "internalType": "bytes4",
                      "name": "assetClass",
                      "type": "bytes4"
                    },
                    {
                      "internalType": "bytes",
                      "name": "data",
                      "type": "bytes"
                    }
                  ],
                  "internalType": "struct LibAsset.AssetType",
                  "name": "assetType",
                  "type": "tuple"
                },
                {
                  "internalType": "uint256",
                  "name": "value",
                  "type": "uint256"
                }
              ],
              "internalType": "struct LibAsset.Asset",
              "name": "makeAsset",
              "type": "tuple"
            },
            {
              "internalType": "address",
              "name": "taker",
              "type": "address"
            },
            {
              "components": [
                {
                  "components": [
                    {
                      "internalType": "bytes4",
                      "name": "assetClass",
                      "type": "bytes4"
                    },
                    {
                      "internalType": "bytes",
                      "name": "data",
                      "type": "bytes"
                    }
                  ],
                  "internalType": "struct LibAsset.AssetType",
                  "name": "assetType",
                  "type": "tuple"
                },
                {
                  "internalType": "uint256",
                  "name": "value",
                  "type": "uint256"
                }
              ],
              "internalType": "struct LibAsset.Asset",
              "name": "takeAsset",
              "type": "tuple"
            },
            {
              "internalType": "uint256",
              "name": "salt",
              "type": "uint256"
            },
            {
              "internalType": "uint256",
              "name": "start",
              "type": "uint256"
            },
            {
              "internalType": "uint256",
              "name": "end",
              "type": "uint256"
            },
            {
              "internalType": "bytes4",
              "name": "dataType",
              "type": "bytes4"
            },
            {
              "internalType": "bytes",
              "name": "data",
              "type": "bytes"
            }
          ],
          "internalType": "struct LibOrder.Order",
          "name": "order",
          "type": "tuple"
        }
      ],
      "name": "cancel",
      "outputs": [],
      "stateMutability": "nonpayable",
      "type": "function"
    },
    {
      "inputs": [],
      "name": "defaultFeeReceiver",
      "outputs": [
        {
          "internalType": "address",
          "name": "",
          "type": "address"
        }
      ],
      "stateMutability": "view",
      "type": "function",
      "constant": true
    },
    {
      "inputs": [
        {
          "internalType": "address",
          "name": "",
          "type": "address"
        }
      ],
      "name": "feeReceivers",
      "outputs": [
        {
          "internalType": "address",
          "name": "",
          "type": "address"
        }
      ],
      "stateMutability": "view",
      "type": "function",
      "constant": true
    },
    {
      "inputs": [
        {
          "internalType": "bytes32",
          "name": "",
          "type": "bytes32"
        }
      ],
      "name": "fills",
      "outputs": [
        {
          "internalType": "uint256",
          "name": "",
          "type": "uint256"
        }
      ],
      "stateMutability": "view",
      "type": "function",
      "constant": true
    },
    {
      "inputs": [
        {
          "components": [
            {
              "internalType": "address",
              "name": "maker",
              "type": "address"
            },
            {
              "components": [
                {
                  "components": [
                    {
                      "internalType": "bytes4",
                      "name": "assetClass",
                      "type": "bytes4"
                    },
                    {
                      "internalType": "bytes",
                      "name": "data",
                      "type": "bytes"
                    }
                  ],
                  "internalType": "struct LibAsset.AssetType",
                  "name": "assetType",
                  "type": "tuple"
                },
                {
                  "internalType": "uint256",
                  "name": "value",
                  "type": "uint256"
                }
              ],
              "internalType": "struct LibAsset.Asset",
              "name": "makeAsset",
              "type": "tuple"
            },
            {
              "internalType": "address",
              "name": "taker",
              "type": "address"
            },
            {
              "components": [
                {
                  "components": [
                    {
                      "internalType": "bytes4",
                      "name": "assetClass",
                      "type": "bytes4"
                    },
                    {
                      "internalType": "bytes",
                      "name": "data",
                      "type": "bytes"
                    }
                  ],
                  "internalType": "struct LibAsset.AssetType",
                  "name": "assetType",
                  "type": "tuple"
                },
                {
                  "internalType": "uint256",
                  "name": "value",
                  "type": "uint256"
                }
              ],
              "internalType": "struct LibAsset.Asset",
              "name": "takeAsset",
              "type": "tuple"
            },
            {
              "internalType": "uint256",
              "name": "salt",
              "type": "uint256"
            },
            {
              "internalType": "uint256",
              "name": "start",
              "type": "uint256"
            },
            {
              "internalType": "uint256",
              "name": "end",
              "type": "uint256"
            },
            {
              "internalType": "bytes4",
              "name": "dataType",
              "type": "bytes4"
            },
            {
              "internalType": "bytes",
              "name": "data",
              "type": "bytes"
            }
          ],
          "internalType": "struct LibOrder.Order",
          "name": "orderLeft",
          "type": "tuple"
        },
        {
          "internalType": "bytes",
          "name": "signatureLeft",
          "type": "bytes"
        },
        {
          "components": [
            {
              "internalType": "address",
              "name": "maker",
              "type": "address"
            },
            {
              "components": [
                {
                  "components": [
                    {
                      "internalType": "bytes4",
                      "name": "assetClass",
                      "type": "bytes4"
                    },
                    {
                      "internalType": "bytes",
                      "name": "data",
                      "type": "bytes"
                    }
                  ],
                  "internalType": "struct LibAsset.AssetType",
                  "name": "assetType",
                  "type": "tuple"
                },
                {
                  "internalType": "uint256",
                  "name": "value",
                  "type": "uint256"
                }
              ],
              "internalType": "struct LibAsset.Asset",
              "name": "makeAsset",
              "type": "tuple"
            },
            {
              "internalType": "address",
              "name": "taker",
              "type": "address"
            },
            {
              "components": [
                {
                  "components": [
                    {
                      "internalType": "bytes4",
                      "name": "assetClass",
                      "type": "bytes4"
                    },
                    {
                      "internalType": "bytes",
                      "name": "data",
                      "type": "bytes"
                    }
                  ],
                  "internalType": "struct LibAsset.AssetType",
                  "name": "assetType",
                  "type": "tuple"
                },
                {
                  "internalType": "uint256",
                  "name": "value",
                  "type": "uint256"
                }
              ],
              "internalType": "struct LibAsset.Asset",
              "name": "takeAsset",
              "type": "tuple"
            },
            {
              "internalType": "uint256",
              "name": "salt",
              "type": "uint256"
            },
            {
              "internalType": "uint256",
              "name": "start",
              "type": "uint256"
            },
            {
              "internalType": "uint256",
              "name": "end",
              "type": "uint256"
            },
            {
              "internalType": "bytes4",
              "name": "dataType",
              "type": "bytes4"
            },
            {
              "internalType": "bytes",
              "name": "data",
              "type": "bytes"
            }
          ],
          "internalType": "struct LibOrder.Order",
          "name": "orderRight",
          "type": "tuple"
        },
        {
          "internalType": "bytes",
          "name": "signatureRight",
          "type": "bytes"
        }
      ],
      "name": "matchOrders",
      "outputs": [],
      "stateMutability": "payable",
      "type": "function",
      "payable": true
    },
    {
      "inputs": [],
      "name": "owner",
      "outputs": [
        {
          "internalType": "address",
          "name": "",
          "type": "address"
        }
      ],
      "stateMutability": "view",
      "type": "function",
      "constant": true
    },
    {
      "inputs": [],
      "name": "protocolFee",
      "outputs": [
        {
          "internalType": "uint256",
          "name": "",
          "type": "uint256"
        }
      ],
      "stateMutability": "view",
      "type": "function",
      "constant": true
    },
    {
      "inputs": [],
      "name": "renounceOwnership",
      "outputs": [],
      "stateMutability": "nonpayable",
      "type": "function"
    },
    {
      "inputs": [],
      "name": "royaltiesRegistry",
      "outputs": [
        {
          "internalType": "contract IRoyaltiesProvider",
          "name": "",
          "type": "address"
        }
      ],
      "stateMutability": "view",
      "type": "function",
      "constant": true
    },
    {
      "inputs": [
        {
          "internalType": "bytes4",
          "name": "assetType",
          "type": "bytes4"
        },
        {
          "internalType": "address",
          "name": "matcher",
          "type": "address"
        }
      ],
      "name": "setAssetMatcher",
      "outputs": [],
      "stateMutability": "nonpayable",
      "type": "function"
    },
    {
      "inputs": [
        {
          "internalType": "address payable",
          "name": "newDefaultFeeReceiver",
          "type": "address"
        }
      ],
      "name": "setDefaultFeeReceiver",
      "outputs": [],
      "stateMutability": "nonpayable",
      "type": "function"
    },
    {
      "inputs": [
        {
          "internalType": "address",
          "name": "token",
          "type": "address"
        },
        {
          "internalType": "address",
          "name": "wallet",
          "type": "address"
        }
      ],
      "name": "setFeeReceiver",
      "outputs": [],
      "stateMutability": "nonpayable",
      "type": "function"
    },
    {
      "inputs": [
        {
          "internalType": "uint256",
          "name": "newProtocolFee",
          "type": "uint256"
        }
      ],
      "name": "setProtocolFee",
      "outputs": [],
      "stateMutability": "nonpayable",
      "type": "function"
    },
    {
      "inputs": [
        {
          "internalType": "contract IRoyaltiesProvider",
          "name": "newRoyaltiesRegistry",
          "type": "address"
        }
      ],
      "name": "setRoyaltiesRegistry",
      "outputs": [],
      "stateMutability": "nonpayable",
      "type": "function"
    },
    {
      "inputs": [
        {
          "internalType": "bytes4",
          "name": "assetType",
          "type": "bytes4"
        },
        {
          "internalType": "address",
          "name": "proxy",
          "type": "address"
        }
      ],
      "name": "setTransferProxy",
      "outputs": [],
      "stateMutability": "nonpayable",
      "type": "function"
    },
    {
      "inputs": [
        {
          "internalType": "address",
          "name": "newOwner",
          "type": "address"
        }
      ],
      "name": "transferOwnership",
      "outputs": [],
      "stateMutability": "nonpayable",
      "type": "function"
    },
    {
      "inputs": [
        {
          "internalType": "contract INftTransferProxy",
          "name": "_transferProxy",
          "type": "address"
        },
        {
          "internalType": "contract IERC20TransferProxy",
          "name": "_erc20TransferProxy",
          "type": "address"
        },
        {
          "internalType": "uint256",
          "name": "newProtocolFee",
          "type": "uint256"
        },
        {
          "internalType": "address",
          "name": "newDefaultFeeReceiver",
          "type": "address"
        },
        {
          "internalType": "contract IRoyaltiesProvider",
          "name": "newRoyaltiesProvider",
          "type": "address"
        }
      ],
      "name": "__ExchangeV2_init",
      "outputs": [],
      "stateMutability": "nonpayable",
      "type": "function"
    }
  ],
  "bytecode": "0x608060405234801561001057600080fd5b50614260806100206000396000f3fe6080604052600436106100fe5760003560e01c8063715018a611610095578063b39deb4611610064578063b39deb4614610271578063e2864fe314610291578063e66db25e146102b1578063e99a3f80146102d1578063f2fde38b146102e4576100fe565b8063715018a614610212578063787dce3d146102275780638da5cb5b14610247578063b0e21e8a1461025c576100fe565b806330c642f1116100d157806330c642f1146101a85780633abf6fd4146101c85780633be89922146101dd5780636d8f0694146101fd576100fe565b806302097ab1146101035780631372a625146101395780631cdfe3d81461015b57806320158c441461017b575b600080fd5b34801561010f57600080fd5b5061012361011e36600461366f565b610304565b6040516101309190613c2c565b60405180910390f35b34801561014557600080fd5b50610159610154366004613963565b610320565b005b34801561016757600080fd5b5061015961017636600461366f565b6103f4565b34801561018757600080fd5b5061019b61019636600461392e565b610479565b6040516101309190614043565b3480156101b457600080fd5b506101596101c3366004613946565b61048c565b3480156101d457600080fd5b5061012361055c565b3480156101e957600080fd5b506101596101f836600461366f565b61056c565b34801561020957600080fd5b506101236105f1565b34801561021e57600080fd5b50610159610601565b34801561023357600080fd5b5061015961024236600461392e565b6106ad565b34801561025357600080fd5b50610123610715565b34801561026857600080fd5b5061019b610724565b34801561027d57600080fd5b5061015961028c366004613946565b61072b565b34801561029d57600080fd5b506101596102ac366004613ae1565b6107ef565b3480156102bd57600080fd5b506101596102cc3660046138c4565b6108c2565b6101596102df366004613b13565b610953565b3480156102f057600080fd5b506101596102ff36600461366f565b610a0f565b610164602052600090815260409020546001600160a01b031681565b600054610100900460ff16806103395750610339610b12565b80610347575060005460ff16155b6103825760405162461bcd60e51b815260040180806020018281038252602e81526020018061419a602e913960400191505060405180910390fd5b600054610100900460ff161580156103ad576000805460ff1961ff0019909116610100171660011790555b6103b5610b23565b6103bd610bc5565b6103c78686610cbe565b6103d2848484610d68565b6103da610e44565b80156103ec576000805461ff00191690555b505050505050565b6103fc610f14565b6001600160a01b031661040d610715565b6001600160a01b031614610456576040805162461bcd60e51b8152602060048201819052602482015260008051602061420b833981519152604482015290519081900360640190fd5b61016380546001600160a01b0319166001600160a01b0392909216919091179055565b61012f6020526000908152604090205481565b610494610f14565b6001600160a01b03166104a5610715565b6001600160a01b0316146104ee576040805162461bcd60e51b8152602060048201819052602482015260008051602061420b833981519152604482015290519081900360640190fd5b6001600160e01b031982166000818152609760205260409081902080546001600160a01b0319166001600160a01b038516179055517f4b5aced933c0c9a88aeac3f0b3b72c5aaf75df8ebaf53225773248c4c315359390610550908490613c2c565b60405180910390a25050565b610163546001600160a01b031681565b610574610f14565b6001600160a01b0316610585610715565b6001600160a01b0316146105ce576040805162461bcd60e51b8152602060048201819052602482015260008051602061420b833981519152604482015290519081900360640190fd5b61016280546001600160a01b0319166001600160a01b0392909216919091179055565b610162546001600160a01b031681565b610609610f14565b6001600160a01b031661061a610715565b6001600160a01b031614610663576040805162461bcd60e51b8152602060048201819052602482015260008051602061420b833981519152604482015290519081900360640190fd5b6033546040516000916001600160a01b0316907f8be0079c531659141344cd1fd0a4f28419497f9722a3daafe3b4186f6b6457e0908390a3603380546001600160a01b0319169055565b6106b5610f14565b6001600160a01b03166106c6610715565b6001600160a01b03161461070f576040805162461bcd60e51b8152602060048201819052602482015260008051602061420b833981519152604482015290519081900360640190fd5b61016155565b6033546001600160a01b031690565b6101615481565b610733610f14565b6001600160a01b0316610744610715565b6001600160a01b03161461078d576040805162461bcd60e51b8152602060048201819052602482015260008051602061420b833981519152604482015290519081900360640190fd5b6001600160e01b031982166000818152606560205260409081902080546001600160a01b0319166001600160a01b038516179055517fd2bf91075f105d0fd80328da28e20ebdad1c1261839711183bc29a44cbe6c72f90610550908490613c2c565b80516001600160a01b0316610802610f14565b6001600160a01b0316146108315760405162461bcd60e51b815260040161082890613f7b565b60405180910390fd5b60808101516108525760405162461bcd60e51b815260040161082890613de6565b600061085d82610f18565b600081815261012f602090815260409182902060001990558451908501515160608601515192519394507fbbdc98cb2835f4f846e6a63700d0498b4674f0e8858fd50c6379314227afa04e936108b69386939291613c59565b60405180910390a15050565b6108ca610f14565b6001600160a01b03166108db610715565b6001600160a01b031614610924576040805162461bcd60e51b8152602060048201819052602482015260008051602061420b833981519152604482015290519081900360640190fd5b6001600160a01b0391821660009081526101646020526040902080546001600160a01b03191691909216179055565b61095d8484610f8d565b6109678282610f8d565b60408401516001600160a01b0316156109b35783604001516001600160a01b031682600001516001600160a01b0316146109b35760405162461bcd60e51b815260040161082890613f10565b60408201516001600160a01b0316156109ff5783600001516001600160a01b031682604001516001600160a01b0316146109ff5760405162461bcd60e51b815260040161082890613e14565b610a098483610fa4565b50505050565b610a17610f14565b6001600160a01b0316610a28610715565b6001600160a01b031614610a71576040805162461bcd60e51b8152602060048201819052602482015260008051602061420b833981519152604482015290519081900360640190fd5b6001600160a01b038116610ab65760405162461bcd60e51b81526004018080602001828103825260268152602001806141056026913960400191505060405180910390fd5b6033546040516001600160a01b038084169216907f8be0079c531659141344cd1fd0a4f28419497f9722a3daafe3b4186f6b6457e090600090a3603380546001600160a01b0319166001600160a01b0392909216919091179055565b6000610b1d306111b2565b15905090565b600054610100900460ff1680610b3c5750610b3c610b12565b80610b4a575060005460ff16155b610b855760405162461bcd60e51b815260040180806020018281038252602e81526020018061419a602e913960400191505060405180910390fd5b600054610100900460ff16158015610bb0576000805460ff1961ff0019909116610100171660011790555b8015610bc2576000805461ff00191690555b50565b600054610100900460ff1680610bde5750610bde610b12565b80610bec575060005460ff16155b610c275760405162461bcd60e51b815260040180806020018281038252602e81526020018061419a602e913960400191505060405180910390fd5b600054610100900460ff16158015610c52576000805460ff1961ff0019909116610100171660011790555b6000610c5c610f14565b603380546001600160a01b0319166001600160a01b038316908117909155604051919250906000907f8be0079c531659141344cd1fd0a4f28419497f9722a3daafe3b4186f6b6457e0908290a3508015610bc2576000805461ff001916905550565b60976020527f4532fa16f071d6234e30e1a1e69b9806f04095edf37a1ca7a25c8d6af7861cc080546001600160a01b039283166001600160a01b0319918216179091557f30a684095c937b5aa064dcf94f9903a7d808e3efb22d8389dbd43080ad4ed3d5805493909216928116831790915563025ceed960e61b6000527f4b5822151ea34b7c8d9e37c3e466bcecb631efe6a9f26a4a4054110a93dd316f80549091169091179055565b600054610100900460ff1680610d815750610d81610b12565b80610d8f575060005460ff16155b610dca5760405162461bcd60e51b815260040180806020018281038252602e81526020018061419a602e913960400191505060405180910390fd5b600054610100900460ff16158015610df5576000805460ff1961ff0019909116610100171660011790555b61016184905561016380546001600160a01b038086166001600160a01b0319928316179092556101628054928516929091169190911790558015610a09576000805461ff001916905550505050565b600054610100900460ff1680610e5d5750610e5d610b12565b80610e6b575060005460ff16155b610ea65760405162461bcd60e51b815260040180806020018281038252602e81526020018061419a602e913960400191505060405180910390fd5b600054610100900460ff16158015610ed1576000805460ff1961ff0019909116610100171660011790555b610bb06040518060400160405280600881526020016745786368616e676560c01b815250604051806040016040528060018152602001601960f91b8152506111b8565b3390565b805160208201515160009190610f2d90611279565b606084015151610f3c90611279565b846080015160405160200180856001600160a01b031681526020018481526020018381526020018281526020019450505050506040516020818303038152906040528051906020012090505b919050565b610f96826112e3565b610fa082826113ad565b5050565b600080610fb18484611604565b915091506000610fc085610f18565b90506000610fcd85610f18565b90506000610fdb878461169d565b90506000610fe9878461169d565b90506000610ff9898985856116cc565b9050600081602001511161101f5760405162461bcd60e51b815260040161082890613e84565b60808901511561104a576020810151611039908490611750565b600086815261012f60205260409020555b608088015115611072578051611061908390611750565b600085815261012f60205260409020555b6000806110828989858e8e6117b1565b8a5191935091506001600160e01b0319166355575f5d60e11b14156111015787516001600160e01b0319166355575f5d60e11b14156110c057600080fd5b813410156110e05760405162461bcd60e51b815260040161082890613f53565b813411156110fc576110fc6110f53484611973565b33906119d0565b611150565b87516001600160e01b0319166355575f5d60e11b1415611150578034101561113b5760405162461bcd60e51b815260040161082890613f53565b80341115611150576111506110f53483611973565b7f268820db288a211986b26a8fda86b1e0046281b21206936bb0e61c67b5c79ef487878d600001518d60000151876020015188600001518f8f60405161119d989796959493929190613ca0565b60405180910390a15050505050505050505050565b3b151590565b600054610100900460ff16806111d157506111d1610b12565b806111df575060005460ff16155b61121a5760405162461bcd60e51b815260040180806020018281038252602e81526020018061419a602e913960400191505060405180910390fd5b600054610100900460ff16158015611245576000805460ff1961ff0019909116610100171660011790555b825160208085019190912083519184019190912060c99190915560ca558015611274576000805461ff00191690555b505050565b8051602091820151805190830120604080517f452a0dc408cb0d27ffc3b3caff933a5208040a53a9dbecd8d89cad2c0d40e00c818601526001600160e01b031990931683820152606080840192909252805180840390920182526080909201909152805191012090565b60a081015115806112f75750428160a00151105b611348576040805162461bcd60e51b815260206004820152601d60248201527f4f726465722073746172742076616c69646174696f6e206661696c6564000000604482015290519081900360640190fd5b60c0810151158061135c5750428160c00151115b610bc2576040805162461bcd60e51b815260206004820152601b60248201527f4f7264657220656e642076616c69646174696f6e206661696c65640000000000604482015290519081900360640190fd5b60808201516114225781516001600160a01b03166113c9610f14565b6001600160a01b03161461141d576040805162461bcd60e51b815260206004820152601660248201527536b0b5b2b91034b9903737ba103a3c1039b2b73232b960511b604482015290519081900360640190fd5b610fa0565b81516001600160a01b0316611435610f14565b6001600160a01b031614610fa057600061144e83611a68565b83519091506001600160a01b031661146f8361146984611b58565b90611ba4565b6001600160a01b031614611274578251611491906001600160a01b03166111b2565b156115cd578251630b135d3f60e11b906001600160a01b0316631626ba7e6114b884611b58565b856040518363ffffffff1660e01b81526004018083815260200180602001828103825283818151815260200191508051906020019080838360005b8381101561150b5781810151838201526020016114f3565b50505050905090810190601f1680156115385780820380516001836020036101000a031916815260200191505b50935050505060206040518083038186803b15801561155657600080fd5b505afa15801561156a573d6000803e3d6000fd5b505050506040513d602081101561158057600080fd5b50516001600160e01b031916146115c85760405162461bcd60e51b815260040180806020018281038252602b81526020018061416f602b913960400191505060405180910390fd5b611274565b60405162461bcd60e51b815260040180806020018281038252602281526020018061414d6022913960400191505060405180910390fd5b61160c6132ab565b6116146132ab565b60208401515160608401515161162a9190611c24565b80519092506001600160e01b0319166116555760405162461bcd60e51b815260040161082890613ee4565b60608401515160208401515161166b9190611c24565b80519091506001600160e01b0319166116965760405162461bcd60e51b815260040161082890613ee4565b9250929050565b60008260800151600014156116b4575060006116c6565b50600081815261012f60205260409020545b92915050565b6116d46132c3565b6000806116e18786611c64565b915091506000806116f28887611c64565b91509150838111156117255761171a84848a60200151602001518b6060015160200151611ca8565b945050505050611748565b6117418960200151602001518a60600151602001518484611d2d565b9450505050505b949350505050565b6000828201838110156117aa576040805162461bcd60e51b815260206004820152601b60248201527f536166654d6174683a206164646974696f6e206f766572666c6f770000000000604482015290519081900360640190fd5b9392505050565b60008060006117c888600001518860000151611db3565b865160208801519094509250905060006117e186611e84565b905060006117ee86611e84565b905060018360028111156117fe57fe5b14156118775787518751611837919084848e8e7f1a0388dd7519a093630516a672419a2562e0e74deb98af068657dc265f0164c9611f45565b9450611872898960200151886000015185600001517fb45a3ba14423c8f1b71cc094845ab56b5294dbe8d8e3ba53f3cdb63d59a4044b612009565b611966565b600283600281111561188557fe5b14156118f9576118c28860200151876000015183858d8f7fb45a3ba14423c8f1b71cc094845ab56b5294dbe8d8e3ba53f3cdb63d59a4044b611f45565b885188518351929650611872928d9291907f1a0388dd7519a093630516a672419a2562e0e74deb98af068657dc265f0164c9612009565b87518751825161192d928d9290917f1a0388dd7519a093630516a672419a2562e0e74deb98af068657dc265f0164c9612009565b611966898960200151886000015185600001517fb45a3ba14423c8f1b71cc094845ab56b5294dbe8d8e3ba53f3cdb63d59a4044b612009565b5050509550959350505050565b6000828211156119ca576040805162461bcd60e51b815260206004820152601e60248201527f536166654d6174683a207375627472616374696f6e206f766572666c6f770000604482015290519081900360640190fd5b50900390565b6040516000906001600160a01b0384169083908381818185875af1925050503d8060008114611a1b576040519150601f19603f3d011682016040523d82523d6000602084013e611a20565b606091505b5050905080611274576040805162461bcd60e51b815260206004820152600f60248201526e1d1c985b9cd9995c8819985a5b1959608a1b604482015290519081900360640190fd5b60007f477ed43b8020849b755512278536c3766a3b4ab547519949a75f483372493f8d8260000151611a9d84602001516121ae565b8460400151611aaf86606001516121ae565b86608001518760a001518860c001518960e001518a610100015180519060200120604051602001808b81526020018a6001600160a01b03168152602001898152602001886001600160a01b03168152602001878152602001868152602001858152602001848152602001836001600160e01b03191681526020018281526020019a5050505050505050505050604051602081830303815290604052805190602001209050919050565b6000611b6261221e565b82604051602001808061190160f01b81525060020183815260200182815260200192505050604051602081830303815290604052805190602001209050919050565b60008151604114611bfc576040805162461bcd60e51b815260206004820152601f60248201527f45434453413a20696e76616c6964207369676e6174757265206c656e67746800604482015290519081900360640190fd5b60208201516040830151606084015160001a611c1a8682858561225e565b9695505050505050565b611c2c6132ab565b6000611c3884846124b4565b80519091506001600160e01b031916611c5d57611c5583856124b4565b9150506116c6565b90506116c6565b600080611c828385606001516020015161197390919063ffffffff16565b9050611c9f846020015160200151856060015160200151836126d0565b91509250929050565b611cb06132c3565b6000611cbd8585856126d0565b905085811115611d14576040805162461bcd60e51b815260206004820152601860248201527f66696c6c4c6566743a20756e61626c6520746f2066696c6c0000000000000000604482015290519081900360640190fd5b5050604080518082019091529384525050602082015290565b611d356132c3565b6000611d428387876126d0565b905083811115611d99576040805162461bcd60e51b815260206004820152601960248201527f66696c6c52696768743a20756e61626c6520746f2066696c6c00000000000000604482015290519081900360640190fd5b604080518082019091529283526020830152509392505050565b60006001600160e01b031983166355575f5d60e11b1415611dd6575060016116c6565b6001600160e01b031982166355575f5d60e11b1415611df7575060026116c6565b6001600160e01b031983166322ba176160e21b1415611e18575060016116c6565b6001600160e01b031982166322ba176160e21b1415611e39575060026116c6565b6001600160e01b0319831663025ceed960e61b1415611e5a575060016116c6565b6001600160e01b0319821663025ceed960e61b1415611e7b575060026116c6565b50600092915050565b611e8c6132dd565b60e08201516001600160e01b031916632611a13360e11b1415611ed557611eb7826101000151612734565b805151909150611ed0578151611ecd9082612750565b90505b610f88565b60e08201516001600160e01b03199081161415611ef8578151611ecd9082612750565b6040805162461bcd60e51b815260206004820152601760248201527f556e6b6e6f776e204f7264657220646174612074797065000000000000000000604482015290519081900360640190fd5b6000611f59886101615488602001516127f1565b90506000611f6a828a8a8887612864565b9050611f7a8585838c8c88612960565b9050611faf85828b8a602001518c887fdfdfdaf4cc275341b6776a7ee23b953990b8d991717449077287da70f32cf9556129d3565b5080915050611fe785828b89602001518c887fdfdfdaf4cc275341b6776a7ee23b953990b8d991717449077287da70f32cf9556129d3565b5080915050611ffd85828a896000015187612009565b50979650505050505050565b600084815b60018551038110156120f957600061204f86838151811061202b57fe5b6020026020010151602001516001600160601b031689612aa190919063ffffffff16565b905061208486838151811061206057fe5b6020026020010151602001516001600160601b03168561175090919063ffffffff16565b935080156120f0576120968382611973565b92506120f060405180604001604052808b815260200183815250888885815181106120bd57fe5b602002602001015160000151887fa10bb5b2060a412d05113732875a5431ca23453eb93f797e0ffcb5b40e5f2c3e612ab3565b5060010161200e565b5060008460018651038151811061210c57fe5b6020026020010151905061213681602001516001600160601b03168461175090919063ffffffff16565b925082612710146121595760405162461bcd60e51b815260040161082890613ead565b81156121a4576121a460405180604001604052808a815260200184815250878360000151877fa10bb5b2060a412d05113732875a5431ca23453eb93f797e0ffcb5b40e5f2c3e612ab3565b5050505050505050565b60007fdb6f72e915676cfc289da13bc4ece054fd17b1df6d77ffc4a60510718c236b086121de8360000151611279565b8360200151604051602001808481526020018381526020018281526020019350505050604051602081830303815290604052805190602001209050919050565b60006122597f8b73c3c69bb8fe3d512ecc4cf759cc79239f7b179b0ffacaa9a75d522b39400f61224c612e3a565b612254612e40565b612e46565b905090565b60007f7fffffffffffffffffffffffffffffff5d576e7357a4501ddfe92f46681b20a08211156122bf5760405162461bcd60e51b815260040180806020018281038252602281526020018061412b6022913960400191505060405180910390fd5b6000601e8560ff161115612399576004850360ff16601b14806122e857506004850360ff16601c145b6123235760405162461bcd60e51b81526004018080602001828103825260228152602001806141c86022913960400191505060405180910390fd5b600161232e87612ea8565b60048703868660405160008152602001604052604051808581526020018460ff1681526020018381526020018281526020019450505050506020604051602081039080840390855afa158015612388573d6000803e3d6000fd5b505050602060405103519050612450565b8460ff16601b14806123ae57508460ff16601c145b6123e95760405162461bcd60e51b81526004018080602001828103825260228152602001806141c86022913960400191505060405180910390fd5b60018686868660405160008152602001604052604051808581526020018460ff1681526020018381526020018281526020019450505050506020604051602081039080840390855afa158015612443573d6000803e3d6000fd5b5050506020604051035190505b6001600160a01b0381166124ab576040805162461bcd60e51b815260206004820152601860248201527f45434453413a20696e76616c6964207369676e61747572650000000000000000604482015290519081900360640190fd5b95945050505050565b6124bc6132ab565b825182516001600160e01b031982166355575f5d60e11b1415612527576001600160e01b031981166355575f5d60e11b14156124fc5784925050506116c6565b50506040805180820182526000808252825160208181019094529081529181019190915290506116c6565b6001600160e01b031982166322ba176160e21b141561256c576001600160e01b031981166322ba176160e21b14156124fc576125638585612ef9565b925050506116c6565b6001600160e01b031982166339d690a360e11b14156125a8576001600160e01b031981166339d690a360e11b14156124fc576125638585612ef9565b6001600160e01b0319821663025ceed960e61b14156125e4576001600160e01b0319811663025ceed960e61b14156124fc576125638585612ef9565b6001600160e01b031982166000908152606560205260409020546001600160a01b03168015612699576040516306d3f7cb60e41b81526001600160a01b03821690636d3f7cb09061263b9089908990600401613fa0565b60006040518083038186803b15801561265357600080fd5b505afa158015612667573d6000803e3d6000fd5b505050506040513d6000823e601f3d908101601f1916820160405261268f91908101906139ca565b93505050506116c6565b6001600160e01b031983811690831614156126b85761268f8686612ef9565b60405162461bcd60e51b815260040161082890613d78565b60006126dd848484612f56565b15612720576040805162461bcd60e51b815260206004820152600e60248201526d3937bab73234b7339032b93937b960911b604482015290519081900360640190fd5b6117488361272e8685612fe5565b9061303e565b61273c6132dd565b818060200190518101906116c69190613a55565b6127586132dd565b604080516001808252818301909252600091816020015b6127776132f7565b81526020019060019003908161276f579050509050838160008151811061279a57fe5b6020026020010151600001906001600160a01b031690816001600160a01b031681525050612710816000815181106127ce57fe5b6020908102919091018101516001600160601b0392909216910152825250919050565b60006128076128008585612aa1565b8590611750565b905060005b825181101561285c5761285261284b84838151811061282757fe5b6020026020010151602001516001600160601b031687612aa190919063ffffffff16565b8390611750565b915060010161280c565b509392505050565b600080600061288a8888612885600261016154612fe590919063ffffffff16565b6130a5565b909250905080156129555784516000906001600160e01b0319166322ba176160e21b14156128d15785602001518060200190518101906128ca919061368b565b905061290a565b85516001600160e01b03191663025ceed960e61b141561290a57600086602001518060200190518101906129059190613897565b509150505b6129536040518060400160405280888152602001848152508861292c846130c7565b887ff87e69cb514f255f3d32f9d90f25160a10d0cdefe6618a6406db334d4450595c612ab3565b505b509695505050505050565b60008061296c87613106565b90506000806129a08a8989868a8a7fb3c5c697ec0b511b76d12f6293e6ee827b1e1df79ac7c64d0466d945904893d76129d3565b915091506113888111156129c65760405162461bcd60e51b815260040161082890613daf565b5098975050505050505050565b856000805b8651811015612a9457612a148782815181106129f057fe5b6020026020010151602001516001600160601b03168361175090919063ffffffff16565b9150600080612a44858b8b8681518110612a2a57fe5b6020026020010151602001516001600160601b03166130a5565b90955085925090508015612a8a57612a8a60405180604001604052808e815260200183815250898b8681518110612a7757fe5b6020026020010151600001518a8a612ab3565b50506001016129d8565b5097509795505050505050565b60006117aa61271061272e8585612fe5565b8451516001600160e01b0319166355575f5d60e11b1415612aec576020850151612ae7906001600160a01b038516906119d0565b612df4565b8451516001600160e01b0319166322ba176160e21b1415612bca576000856000015160200151806020019051810190612b25919061368b565b6322ba176160e21b600052609760209081527f4532fa16f071d6234e30e1a1e69b9806f04095edf37a1ca7a25c8d6af7861cc0549088015160405163776062c360e01b81529293506001600160a01b039091169163776062c391612b929185918a918a9190600401613d4e565b600060405180830381600087803b158015612bac57600080fd5b505af1158015612bc0573d6000803e3d6000fd5b5050505050612df4565b8451516001600160e01b0319166339d690a360e11b1415612cca57600080866000015160200151806020019051810190612c049190613897565b915091508660200151600114612c2c5760405162461bcd60e51b815260040161082890613e58565b6339d690a360e11b60005260976020527f30a684095c937b5aa064dcf94f9903a7d808e3efb22d8389dbd43080ad4ed3d554604051637b84dc8360e11b81526001600160a01b039091169063f709b90690612c919085908a908a908790600401613d4e565b600060405180830381600087803b158015612cab57600080fd5b505af1158015612cbf573d6000803e3d6000fd5b505050505050612df4565b8451516001600160e01b03191663025ceed960e61b1415612d7357600080866000015160200151806020019051810190612d049190613897565b63025ceed960e61b600052609760209081527f4b5822151ea34b7c8d9e37c3e466bcecb631efe6a9f26a4a4054110a93dd316f54908a0151604051639c1c2ee960e01b81529395509193506001600160a01b031691639c1c2ee991612c919186918b918b918891600401613d0b565b8451516001600160e01b031916600090815260976020526040908190205490516354bc0cf160e01b81526001600160a01b03909116906354bc0cf190612dc190889088908890600401613fc5565b600060405180830381600087803b158015612ddb57600080fd5b505af1158015612def573d6000803e3d6000fd5b505050505b7fcae9d16f553e92058883de29cb3135dbc0c1e31fd7eace79fef1d80577fe482e8585858585604051612e2b959493929190613ff8565b60405180910390a15050505050565b60c95490565b60ca5490565b6000838383612e5361327f565b3060405160200180868152602001858152602001848152602001838152602001826001600160a01b03168152602001955050505050506040516020818303038152906040528051906020012090509392505050565b604080517f19457468657265756d205369676e6564204d6573736167653a0a333200000000602080830191909152603c8083019490945282518083039094018452605c909101909152815191012090565b612f016132ab565b60208084015180519082012083820151805192019190912080821415612f2b5784925050506116c6565b5050604080518082018252600080825282516020808201909452908152918101919091529392505050565b600082612f9d576040805162461bcd60e51b815260206004820152601060248201526f6469766973696f6e206279207a65726f60801b604482015290519081900360640190fd5b811580612fa8575083155b15612fb5575060006117aa565b60008380612fbf57fe5b8584099050612fce8584612fe5565b612fda826103e8612fe5565b101595945050505050565b600082612ff4575060006116c6565b8282028284828161300157fe5b04146117aa5760405162461bcd60e51b81526004018080602001828103825260218152602001806141ea6021913960400191505060405180910390fd5b6000808211613094576040805162461bcd60e51b815260206004820152601a60248201527f536166654d6174683a206469766973696f6e206279207a65726f000000000000604482015290519081900360640190fd5b81838161309d57fe5b049392505050565b6000806130bb856130b68686612aa1565b613283565b91509150935093915050565b6001600160a01b038082166000908152610164602052604081205490911680156130f2579050610f88565b5050610163546001600160a01b0316919050565b80516060906001600160e01b03191663025ceed960e61b148061313a575081516001600160e01b0319166339d690a360e11b145b156131f057600080836020015180602001905181019061315a9190613897565b61016254604051634e53ee3d60e11b81529294509092506001600160a01b031690639ca7dc7a906131919085908590600401613c40565b600060405180830381600087803b1580156131ab57600080fd5b505af11580156131bf573d6000803e3d6000fd5b505050506040513d6000823e601f3d908101601f191682016040526131e791908101906138fc565b92505050610f88565b81516001600160e01b03191662737ea960e61b141561323357600080836020015180602001905181019061322491906136a7565b608001519350610f8892505050565b81516001600160e01b03191663d8f960c160e01b141561327757600080836020015180602001905181019061326891906137a4565b606001519350610f8892505050565b506060919050565b4690565b600080828411156132a2576132988484611973565b9150829050611696565b50600093915050565b60408051808201909152600081526060602082015290565b604051806040016040528060008152602001600081525090565b604051806040016040528060608152602001606081525090565b604080518082019091526000808252602082015290565b8035610f88816140d9565b600082601f830112613329578081fd5b8151602061333e6133398361406f565b61404c565b82815281810190858301855b8581101561337357613361898684518b0101613492565b8452928401929084019060010161334a565b5090979650505050505050565b600082601f830112613390578081fd5b815160206133a06133398361406f565b828152818101908583016040808602880185018910156133be578687fd5b865b8681101561342d5781838b0312156133d6578788fd5b81518281018181106001600160401b03821117156133f057fe5b835283516133fd816140d9565b8152838701516001600160601b038116811461341757898afd5b81880152855293850193918101916001016133c0565b509198975050505050505050565b8035610f88816140ee565b600082601f830112613456578081fd5b81356134646133398261408c565b818152846020838601011115613478578283fd5b816020850160208301379081016020019190915292915050565b600082601f8301126134a2578081fd5b81516134b06133398261408c565b8181528460208386010111156134c4578283fd5b6117488260208301602087016140ad565b600060408083850312156134e7578182fd5b80518181016001600160401b03828210818311171561350257fe5b81845282945085358181111561351757600080fd5b860180880385131561352857600080fd5b60808401838110838211171561353a57fe5b909452833593613549856140ee565b9382526020840135938185111561355f57600080fd5b61356b88868301613446565b60608501525050815260209384013593019290925292915050565b6000610120808385031215613599578182fd5b6135a28161404c565b9150506135ae8261330e565b815260208201356001600160401b03808211156135ca57600080fd5b6135d6858386016134d5565b60208401526135e76040850161330e565b6040840152606084013591508082111561360057600080fd5b61360c858386016134d5565b60608401526080840135608084015260a084013560a084015260c084013560c084015261363b60e0850161343b565b60e08401526101009150818401358181111561365657600080fd5b61366286828701613446565b8385015250505092915050565b600060208284031215613680578081fd5b81356117aa816140d9565b60006020828403121561369c578081fd5b81516117aa816140d9565b600080604083850312156136b9578081fd5b82516136c4816140d9565b60208401519092506001600160401b03808211156136e0578283fd5b9084019060c082870312156136f3578283fd5b6136fd60c061404c565b82518152602083015182811115613712578485fd5b61371e88828601613492565b6020830152506040830151604082015260608301518281111561373f578485fd5b61374b88828601613380565b606083015250608083015182811115613762578485fd5b61376e88828601613380565b60808301525060a083015182811115613785578485fd5b61379188828601613319565b60a0830152508093505050509250929050565b600080604083850312156137b6578182fd5b82516137c1816140d9565b60208401519092506001600160401b03808211156137dd578283fd5b9084019060a082870312156137f0578283fd5b6137fa60a061404c565b8251815260208301518281111561380f578485fd5b61381b88828601613492565b602083015250604083015182811115613832578485fd5b61383e88828601613380565b604083015250606083015182811115613855578485fd5b61386188828601613380565b606083015250608083015182811115613878578485fd5b61388488828601613319565b6080830152508093505050509250929050565b600080604083850312156138a9578182fd5b82516138b4816140d9565b6020939093015192949293505050565b600080604083850312156138d6578182fd5b82356138e1816140d9565b915060208301356138f1816140d9565b809150509250929050565b60006020828403121561390d578081fd5b81516001600160401b03811115613922578182fd5b61174884828501613380565b60006020828403121561393f578081fd5b5035919050565b60008060408385031215613958578182fd5b82356138e1816140ee565b600080600080600060a0868803121561397a578081fd5b8535613985816140d9565b94506020860135613995816140d9565b93506040860135925060608601356139ac816140d9565b915060808601356139bc816140d9565b809150509295509295909350565b6000602082840312156139db578081fd5b81516001600160401b03808211156139f1578283fd5b9083019060408286031215613a04578283fd5b604051604081018181108382111715613a1957fe5b6040528251613a27816140ee565b8152602083015182811115613a3a578485fd5b613a4687828601613492565b60208301525095945050505050565b600060208284031215613a66578081fd5b81516001600160401b0380821115613a7c578283fd5b9083019060408286031215613a8f578283fd5b604051604081018181108382111715613aa457fe5b604052825182811115613ab5578485fd5b613ac187828601613380565b825250602083015182811115613ad5578485fd5b613a4687828601613380565b600060208284031215613af2578081fd5b81356001600160401b03811115613b07578182fd5b61174884828501613586565b60008060008060808587031215613b28578182fd5b84356001600160401b0380821115613b3e578384fd5b613b4a88838901613586565b95506020870135915080821115613b5f578384fd5b613b6b88838901613446565b94506040870135915080821115613b80578384fd5b613b8c88838901613586565b93506060870135915080821115613ba1578283fd5b50613bae87828801613446565b91505092959194509250565b600063ffffffff60e01b82511683526020820151604060208501528051806040860152613bee8160608701602085016140ad565b601f01601f1916939093016060019392505050565b6000815160408452613c186040850182613bba565b602093840151949093019390935250919050565b6001600160a01b0391909116815260200190565b6001600160a01b03929092168252602082015260400190565b8481526001600160a01b0384166020820152608060408201819052600090613c8390830185613bba565b8281036060840152613c958185613bba565b979650505050505050565b888152602081018890526001600160a01b038781166040830152861660608201526080810185905260a0810184905261010060c08201819052600090613ce883820186613bba565b905082810360e0840152613cfc8185613bba565b9b9a5050505050505050505050565b6001600160a01b03958616815293851660208501529190931660408301526060820192909252608081019190915260c060a0820181905260009082015260e00190565b6001600160a01b039485168152928416602084015292166040820152606081019190915260800190565b60208082526017908201527f6e6f7420666f756e64204941737365744d617463686572000000000000000000604082015260600190565b6020808252601d908201527f526f79616c746965732061726520746f6f206869676820283e35302529000000604082015260600190565b6020808252601490820152730c081cd85b1d0818d85b89dd081899481d5cd95960621b604082015260600190565b60208082526024908201527f72696768744f726465722e74616b657220766572696669636174696f6e2066616040820152631a5b195960e21b606082015260800190565b60208082526012908201527132b9319b9918903b30b63ab29032b93937b960711b604082015260600190565b6020808252600f908201526e1b9bdd1a1a5b99c81d1bc8199a5b1b608a1b604082015260600190565b6020808252601e908201527f53756d207061796f75747320427073206e6f7420657175616c20313030250000604082015260600190565b6020808252601290820152710c2e6e6cae8e640c8dedc4ee840dac2e8c6d60731b604082015260600190565b60208082526023908201527f6c6566744f726465722e74616b657220766572696669636174696f6e206661696040820152621b195960ea1b606082015260800190565b6020808252600e908201526d0dcdee840cadcdeeaced040cae8d60931b604082015260600190565b6020808252600b908201526a3737ba10309036b0b5b2b960a91b604082015260600190565b600060408252613fb36040830185613bba565b82810360208401526124ab8185613bba565b600060608252613fd86060830186613c03565b6001600160a01b0394851660208401529290931660409091015292915050565b600060a0825261400b60a0830188613c03565b6001600160a01b0396871660208401529490951660408201526001600160e01b03199283166060820152911660809091015292915050565b90815260200190565b6040518181016001600160401b038111828210171561406757fe5b604052919050565b60006001600160401b0382111561408257fe5b5060209081020190565b60006001600160401b0382111561409f57fe5b50601f01601f191660200190565b60005b838110156140c85781810151838201526020016140b0565b83811115610a095750506000910152565b6001600160a01b0381168114610bc257600080fd5b6001600160e01b031981168114610bc257600080fdfe4f776e61626c653a206e6577206f776e657220697320746865207a65726f206164647265737345434453413a20696e76616c6964207369676e6174757265202773272076616c75656f72646572207369676e617475726520766572696669636174696f6e206572726f72636f6e7472616374206f72646572207369676e617475726520766572696669636174696f6e206572726f72496e697469616c697a61626c653a20636f6e747261637420697320616c726561647920696e697469616c697a656445434453413a20696e76616c6964207369676e6174757265202776272076616c7565536166654d6174683a206d756c7469706c69636174696f6e206f766572666c6f774f776e61626c653a2063616c6c6572206973206e6f7420746865206f776e6572a2646970667358221220c1fd08a747016a050b0a93866e452e23bc249f9ec2375b340352c4a011c860cf64736f6c63430007060033",
  "immutableReferences": {},
  "source": "// SPDX-License-Identifier: MIT\n\npragma solidity 0.7.6;\npragma abicoder v2;\n\nimport \"./ExchangeV2Core.sol\";\nimport \"./RaribleTransferManager.sol\";\nimport \"@rarible/royalties/contracts/IRoyaltiesProvider.sol\";\n\ncontract ExchangeV2 is ExchangeV2Core, RaribleTransferManager {\n    function __ExchangeV2_init(\n        INftTransferProxy _transferProxy,\n        IERC20TransferProxy _erc20TransferProxy,\n        uint newProtocolFee,\n        address newDefaultFeeReceiver,\n        IRoyaltiesProvider newRoyaltiesProvider\n    ) external initializer {\n        __Context_init_unchained();\n        __Ownable_init_unchained();\n        __TransferExecutor_init_unchained(_transferProxy, _erc20TransferProxy);\n        __RaribleTransferManager_init_unchained(newProtocolFee, newDefaultFeeReceiver, newRoyaltiesProvider);\n        __OrderValidator_init_unchained();\n    }\n}\n",
  "sourcePath": "/home/quadro/Projects/rarible/protocol-contracts/exchange-v2/contracts/ExchangeV2.sol",
  "compiler": {
    "name": "solc",
    "version": "0.7.6+commit.7338295f.Emscripten.clang"
  },
  "schemaVersion": "3.4.0",
  "updatedAt": "2021-07-28T14:44:06.478Z",
  "networkType": "ethereum",
  "devdoc": {
    "kind": "dev",
    "methods": {
      "owner()": {
        "details": "Returns the address of the current owner."
      },
      "renounceOwnership()": {
        "details": "Leaves the contract without owner. It will not be possible to call `onlyOwner` functions anymore. Can only be called by the current owner. NOTE: Renouncing ownership will leave the contract without an owner, thereby removing any functionality that is only available to the owner."
      },
      "transferOwnership(address)": {
        "details": "Transfers ownership of the contract to a new account (`newOwner`). Can only be called by the current owner."
      }
    },
    "version": 1
  },
  "userdoc": {
    "kind": "user",
    "methods": {},
    "version": 1
  }
}