{
  "contractName": "ExchangeSimpleV2",
  "abi": [
    {
      "anonymous": false,
      "inputs": [
        {
          "indexed": false,
          "internalType": "bytes32",
          "name": "hash",
          "type": "bytes32"
        }
      ],
      "name": "Cancel",
      "type": "event"
    },
    {
      "anonymous": false,
      "inputs": [
        {
          "indexed": false,
          "internalType": "bytes32",
          "name": "leftHash",
          "type": "bytes32"
        },
        {
          "indexed": false,
          "internalType": "bytes32",
          "name": "rightHash",
          "type": "bytes32"
        },
        {
          "indexed": false,
          "internalType": "address",
          "name": "leftMaker",
          "type": "address"
        },
        {
          "indexed": false,
          "internalType": "address",
          "name": "rightMaker",
          "type": "address"
        },
        {
          "indexed": false,
          "internalType": "uint256",
          "name": "newLeftFill",
          "type": "uint256"
        },
        {
          "indexed": false,
          "internalType": "uint256",
          "name": "newRightFill",
          "type": "uint256"
        }
      ],
      "name": "Match",
      "type": "event"
    },
    {
      "anonymous": false,
      "inputs": [
        {
          "indexed": true,
          "internalType": "bytes4",
          "name": "assetType",
          "type": "bytes4"
        },
        {
          "indexed": false,
          "internalType": "address",
          "name": "matcher",
          "type": "address"
        }
      ],
      "name": "MatcherChange",
      "type": "event"
    },
    {
      "anonymous": false,
      "inputs": [
        {
          "indexed": true,
          "internalType": "address",
          "name": "previousOwner",
          "type": "address"
        },
        {
          "indexed": true,
          "internalType": "address",
          "name": "newOwner",
          "type": "address"
        }
      ],
      "name": "OwnershipTransferred",
      "type": "event"
    },
    {
      "anonymous": false,
      "inputs": [
        {
          "indexed": true,
          "internalType": "bytes4",
          "name": "assetType",
          "type": "bytes4"
        },
        {
          "indexed": false,
          "internalType": "address",
          "name": "proxy",
          "type": "address"
        }
      ],
      "name": "ProxyChange",
      "type": "event"
    },
    {
      "anonymous": false,
      "inputs": [
        {
          "components": [
            {
              "components": [
                {
                  "internalType": "bytes4",
                  "name": "tp",
                  "type": "bytes4"
                },
                {
                  "internalType": "bytes",
                  "name": "data",
                  "type": "bytes"
                }
              ],
              "internalType": "struct LibAsset.AssetType",
              "name": "assetType",
              "type": "tuple"
            },
            {
              "internalType": "uint256",
              "name": "amount",
              "type": "uint256"
            }
          ],
          "indexed": false,
          "internalType": "struct LibAsset.Asset",
          "name": "asset",
          "type": "tuple"
        },
        {
          "indexed": false,
          "internalType": "address",
          "name": "from",
          "type": "address"
        },
        {
          "indexed": false,
          "internalType": "address",
          "name": "to",
          "type": "address"
        },
        {
          "indexed": false,
          "internalType": "bytes4",
          "name": "transferType",
          "type": "bytes4"
        }
      ],
      "name": "Transfer",
      "type": "event"
    },
    {
      "inputs": [
        {
          "components": [
            {
              "internalType": "address",
              "name": "maker",
              "type": "address"
            },
            {
              "components": [
                {
                  "components": [
                    {
                      "internalType": "bytes4",
                      "name": "tp",
                      "type": "bytes4"
                    },
                    {
                      "internalType": "bytes",
                      "name": "data",
                      "type": "bytes"
                    }
                  ],
                  "internalType": "struct LibAsset.AssetType",
                  "name": "assetType",
                  "type": "tuple"
                },
                {
                  "internalType": "uint256",
                  "name": "amount",
                  "type": "uint256"
                }
              ],
              "internalType": "struct LibAsset.Asset",
              "name": "makeAsset",
              "type": "tuple"
            },
            {
              "internalType": "address",
              "name": "taker",
              "type": "address"
            },
            {
              "components": [
                {
                  "components": [
                    {
                      "internalType": "bytes4",
                      "name": "tp",
                      "type": "bytes4"
                    },
                    {
                      "internalType": "bytes",
                      "name": "data",
                      "type": "bytes"
                    }
                  ],
                  "internalType": "struct LibAsset.AssetType",
                  "name": "assetType",
                  "type": "tuple"
                },
                {
                  "internalType": "uint256",
                  "name": "amount",
                  "type": "uint256"
                }
              ],
              "internalType": "struct LibAsset.Asset",
              "name": "takeAsset",
              "type": "tuple"
            },
            {
              "internalType": "uint256",
              "name": "salt",
              "type": "uint256"
            },
            {
              "internalType": "uint256",
              "name": "start",
              "type": "uint256"
            },
            {
              "internalType": "uint256",
              "name": "end",
              "type": "uint256"
            },
            {
              "internalType": "bytes4",
              "name": "dataType",
              "type": "bytes4"
            },
            {
              "internalType": "bytes",
              "name": "data",
              "type": "bytes"
            }
          ],
          "internalType": "struct LibOrder.Order",
          "name": "order",
          "type": "tuple"
        }
      ],
      "name": "cancel",
      "outputs": [],
      "stateMutability": "nonpayable",
      "type": "function"
    },
    {
      "inputs": [
        {
          "internalType": "bytes32",
          "name": "",
          "type": "bytes32"
        }
      ],
      "name": "fills",
      "outputs": [
        {
          "internalType": "uint256",
          "name": "",
          "type": "uint256"
        }
      ],
      "stateMutability": "view",
      "type": "function"
    },
    {
      "inputs": [],
      "name": "getChainId",
      "outputs": [
        {
          "internalType": "uint256",
          "name": "chainId",
          "type": "uint256"
        }
      ],
      "stateMutability": "view",
      "type": "function"
    },
    {
      "inputs": [
        {
          "components": [
            {
              "internalType": "address",
              "name": "maker",
              "type": "address"
            },
            {
              "components": [
                {
                  "components": [
                    {
                      "internalType": "bytes4",
                      "name": "tp",
                      "type": "bytes4"
                    },
                    {
                      "internalType": "bytes",
                      "name": "data",
                      "type": "bytes"
                    }
                  ],
                  "internalType": "struct LibAsset.AssetType",
                  "name": "assetType",
                  "type": "tuple"
                },
                {
                  "internalType": "uint256",
                  "name": "amount",
                  "type": "uint256"
                }
              ],
              "internalType": "struct LibAsset.Asset",
              "name": "makeAsset",
              "type": "tuple"
            },
            {
              "internalType": "address",
              "name": "taker",
              "type": "address"
            },
            {
              "components": [
                {
                  "components": [
                    {
                      "internalType": "bytes4",
                      "name": "tp",
                      "type": "bytes4"
                    },
                    {
                      "internalType": "bytes",
                      "name": "data",
                      "type": "bytes"
                    }
                  ],
                  "internalType": "struct LibAsset.AssetType",
                  "name": "assetType",
                  "type": "tuple"
                },
                {
                  "internalType": "uint256",
                  "name": "amount",
                  "type": "uint256"
                }
              ],
              "internalType": "struct LibAsset.Asset",
              "name": "takeAsset",
              "type": "tuple"
            },
            {
              "internalType": "uint256",
              "name": "salt",
              "type": "uint256"
            },
            {
              "internalType": "uint256",
              "name": "start",
              "type": "uint256"
            },
            {
              "internalType": "uint256",
              "name": "end",
              "type": "uint256"
            },
            {
              "internalType": "bytes4",
              "name": "dataType",
              "type": "bytes4"
            },
            {
              "internalType": "bytes",
              "name": "data",
              "type": "bytes"
            }
          ],
          "internalType": "struct LibOrder.Order",
          "name": "orderLeft",
          "type": "tuple"
        },
        {
          "internalType": "bytes",
          "name": "signatureLeft",
          "type": "bytes"
        },
        {
          "components": [
            {
              "internalType": "address",
              "name": "maker",
              "type": "address"
            },
            {
              "components": [
                {
                  "components": [
                    {
                      "internalType": "bytes4",
                      "name": "tp",
                      "type": "bytes4"
                    },
                    {
                      "internalType": "bytes",
                      "name": "data",
                      "type": "bytes"
                    }
                  ],
                  "internalType": "struct LibAsset.AssetType",
                  "name": "assetType",
                  "type": "tuple"
                },
                {
                  "internalType": "uint256",
                  "name": "amount",
                  "type": "uint256"
                }
              ],
              "internalType": "struct LibAsset.Asset",
              "name": "makeAsset",
              "type": "tuple"
            },
            {
              "internalType": "address",
              "name": "taker",
              "type": "address"
            },
            {
              "components": [
                {
                  "components": [
                    {
                      "internalType": "bytes4",
                      "name": "tp",
                      "type": "bytes4"
                    },
                    {
                      "internalType": "bytes",
                      "name": "data",
                      "type": "bytes"
                    }
                  ],
                  "internalType": "struct LibAsset.AssetType",
                  "name": "assetType",
                  "type": "tuple"
                },
                {
                  "internalType": "uint256",
                  "name": "amount",
                  "type": "uint256"
                }
              ],
              "internalType": "struct LibAsset.Asset",
              "name": "takeAsset",
              "type": "tuple"
            },
            {
              "internalType": "uint256",
              "name": "salt",
              "type": "uint256"
            },
            {
              "internalType": "uint256",
              "name": "start",
              "type": "uint256"
            },
            {
              "internalType": "uint256",
              "name": "end",
              "type": "uint256"
            },
            {
              "internalType": "bytes4",
              "name": "dataType",
              "type": "bytes4"
            },
            {
              "internalType": "bytes",
              "name": "data",
              "type": "bytes"
            }
          ],
          "internalType": "struct LibOrder.Order",
          "name": "orderRight",
          "type": "tuple"
        },
        {
          "internalType": "bytes",
          "name": "signatureRight",
          "type": "bytes"
        }
      ],
      "name": "matchOrders",
      "outputs": [],
      "stateMutability": "payable",
      "type": "function"
    },
    {
      "inputs": [],
      "name": "owner",
      "outputs": [
        {
          "internalType": "address",
          "name": "",
          "type": "address"
        }
      ],
      "stateMutability": "view",
      "type": "function"
    },
    {
      "inputs": [],
      "name": "renounceOwnership",
      "outputs": [],
      "stateMutability": "nonpayable",
      "type": "function"
    },
    {
      "inputs": [
        {
          "internalType": "bytes4",
          "name": "assetType",
          "type": "bytes4"
        },
        {
          "internalType": "address",
          "name": "matcher",
          "type": "address"
        }
      ],
      "name": "setAssetMatcher",
      "outputs": [],
      "stateMutability": "nonpayable",
      "type": "function"
    },
    {
      "inputs": [
        {
          "internalType": "bytes4",
          "name": "assetType",
          "type": "bytes4"
        },
        {
          "internalType": "address",
          "name": "proxy",
          "type": "address"
        }
      ],
      "name": "setTransferProxy",
      "outputs": [],
      "stateMutability": "nonpayable",
      "type": "function"
    },
    {
      "inputs": [
        {
          "internalType": "address",
          "name": "newOwner",
          "type": "address"
        }
      ],
      "name": "transferOwnership",
      "outputs": [],
      "stateMutability": "nonpayable",
      "type": "function"
    },
    {
      "inputs": [
        {
          "internalType": "contract TransferProxy",
          "name": "_transferProxy",
          "type": "address"
        },
        {
          "internalType": "contract ERC20TransferProxy",
          "name": "_erc20TransferProxy",
          "type": "address"
        }
      ],
      "name": "__ExchangeSimpleV2_init",
      "outputs": [],
      "stateMutability": "nonpayable",
      "type": "function"
    }
  ],
  "bytecode": "0x608060405234801561001057600080fd5b50612ccc806100206000396000f3fe6080604052600436106100915760003560e01c806398f1b9521161005957806398f1b9521461013a578063b39deb461461015a578063e2864fe31461017a578063e99a3f801461019a578063f2fde38b146101ad57610091565b806320158c441461009657806330c642f1146100cc5780633408e470146100ee578063715018a6146101035780638da5cb5b14610118575b600080fd5b3480156100a257600080fd5b506100b66100b13660046125dc565b6101cd565b6040516100c39190612875565b60405180910390f35b3480156100d857600080fd5b506100ec6100e73660046125f4565b6101e0565b005b3480156100fa57600080fd5b506100b66102b0565b34801561010f57600080fd5b506100ec6102b4565b34801561012457600080fd5b5061012d610360565b6040516100c39190612861565b34801561014657600080fd5b506100ec61015536600461262c565b61036f565b34801561016657600080fd5b506100ec6101753660046125f4565b610435565b34801561018657600080fd5b506100ec610195366004612711565b6104f9565b6100ec6101a8366004612744565b610599565b3480156101b957600080fd5b506100ec6101c8366004612577565b610655565b61012f6020526000908152604090205481565b6101e8610758565b6001600160a01b03166101f9610360565b6001600160a01b031614610242576040805162461bcd60e51b81526020600482018190526024820152600080516020612c77833981519152604482015290519081900360640190fd5b6001600160e01b031982166000818152609760205260409081902080546001600160a01b0319166001600160a01b038516179055517f4b5aced933c0c9a88aeac3f0b3b72c5aaf75df8ebaf53225773248c4c3153593906102a4908490612861565b60405180910390a25050565b4690565b6102bc610758565b6001600160a01b03166102cd610360565b6001600160a01b031614610316576040805162461bcd60e51b81526020600482018190526024820152600080516020612c77833981519152604482015290519081900360640190fd5b6033546040516000916001600160a01b0316907f8be0079c531659141344cd1fd0a4f28419497f9722a3daafe3b4186f6b6457e0908390a3603380546001600160a01b0319169055565b6033546001600160a01b031690565b600054610100900460ff1680610388575061038861075c565b80610396575060005460ff16155b6103d15760405162461bcd60e51b815260040180806020018281038252602e815260200180612c06602e913960400191505060405180910390fd5b600054610100900460ff161580156103fc576000805460ff1961ff0019909116610100171660011790555b61040461076d565b61040c61080f565b6104168383610908565b61041e6109b2565b8015610430576000805461ff00191690555b505050565b61043d610758565b6001600160a01b031661044e610360565b6001600160a01b031614610497576040805162461bcd60e51b81526020600482018190526024820152600080516020612c77833981519152604482015290519081900360640190fd5b6001600160e01b031982166000818152606560205260409081902080546001600160a01b0319166001600160a01b038516179055517fd2bf91075f105d0fd80328da28e20ebdad1c1261839711183bc29a44cbe6c72f906102a4908490612861565b80516001600160a01b031661050c610758565b6001600160a01b03161461053b5760405162461bcd60e51b815260040161053290612a5e565b60405180910390fd5b600061054682610a82565b600081815261012f6020526040908190206000199055519091507fe8d9861dbc9c663ed3accd261bbe2fe01e0d3d9e5f51fa38523b265c7757a93a9061058d908390612875565b60405180910390a15050565b6105a38484610af7565b6105ad8282610af7565b60408401516001600160a01b0316156105f95783604001516001600160a01b031682600001516001600160a01b0316146105f95760405162461bcd60e51b815260040161053290612981565b60408201516001600160a01b0316156106455783600001516001600160a01b031682604001516001600160a01b0316146106455760405162461bcd60e51b815260040161053290612981565b61064f8483610b0e565b50505050565b61065d610758565b6001600160a01b031661066e610360565b6001600160a01b0316146106b7576040805162461bcd60e51b81526020600482018190526024820152600080516020612c77833981519152604482015290519081900360640190fd5b6001600160a01b0381166106fc5760405162461bcd60e51b8152600401808060200182810382526026815260200180612bbe6026913960400191505060405180910390fd5b6033546040516001600160a01b038084169216907f8be0079c531659141344cd1fd0a4f28419497f9722a3daafe3b4186f6b6457e090600090a3603380546001600160a01b0319166001600160a01b0392909216919091179055565b3390565b600061076730610d07565b15905090565b600054610100900460ff1680610786575061078661075c565b80610794575060005460ff16155b6107cf5760405162461bcd60e51b815260040180806020018281038252602e815260200180612c06602e913960400191505060405180910390fd5b600054610100900460ff161580156107fa576000805460ff1961ff0019909116610100171660011790555b801561080c576000805461ff00191690555b50565b600054610100900460ff1680610828575061082861075c565b80610836575060005460ff16155b6108715760405162461bcd60e51b815260040180806020018281038252602e815260200180612c06602e913960400191505060405180910390fd5b600054610100900460ff1615801561089c576000805460ff1961ff0019909116610100171660011790555b60006108a6610758565b603380546001600160a01b0319166001600160a01b038316908117909155604051919250906000907f8be0079c531659141344cd1fd0a4f28419497f9722a3daafe3b4186f6b6457e0908290a350801561080c576000805461ff001916905550565b60976020527f4532fa16f071d6234e30e1a1e69b9806f04095edf37a1ca7a25c8d6af7861cc080546001600160a01b039283166001600160a01b0319918216179091557f30a684095c937b5aa064dcf94f9903a7d808e3efb22d8389dbd43080ad4ed3d5805493909216928116831790915563025ceed960e61b6000527f4b5822151ea34b7c8d9e37c3e466bcecb631efe6a9f26a4a4054110a93dd316f80549091169091179055565b600054610100900460ff16806109cb57506109cb61075c565b806109d9575060005460ff16155b610a145760405162461bcd60e51b815260040180806020018281038252602e815260200180612c06602e913960400191505060405180910390fd5b600054610100900460ff16158015610a3f576000805460ff1961ff0019909116610100171660011790555b6107fa6040518060400160405280600881526020016745786368616e676560c01b815250604051806040016040528060018152602001601960f91b815250610d0d565b805160208201515160009190610a9790610dcd565b606084015151610aa690610dcd565b846080015160405160200180856001600160a01b031681526020018481526020018381526020018281526020019450505050506040516020818303038152906040528051906020012090505b919050565b610b0082610e37565b610b0a8282610f01565b5050565b600080610b1b8484611110565b915091506000610b2a85610a82565b90506000610b3785610a82565b600083815261012f602052604080822054838352908220549293509190610b60898985856111a9565b90506000816020015111610b865760405162461bcd60e51b8152600401610532906129b8565b600080610b968989858e8e611239565b8a5191935091506001600160e01b0319166355575f5d60e11b1415610bef5781341015610bd55760405162461bcd60e51b815260040161053290612a36565b81341115610bea57610bea33348490036112e8565b610c3e565b87516001600160e01b0319166355575f5d60e11b1415610c3e5780341015610c295760405162461bcd60e51b815260040161053290612a36565b80341115610c3e57610c3e33348390036112e8565b6000610c48610758565b90508b600001516001600160a01b0316816001600160a01b031614610c835760208085015160008a815261012f909252604090912090870190555b8a516001600160a01b03828116911614610cae578351600088815261012f6020526040902090860190555b8b518b51602086015186516040517f6bd3176da6f0aab285937ad5ead5f53b9036f403cfad62f77e4e0f80b5a7e18d94610cf1948e948e9492939192909161287e565b60405180910390a1505050505050505050505050565b3b151590565b600054610100900460ff1680610d265750610d2661075c565b80610d34575060005460ff16155b610d6f5760405162461bcd60e51b815260040180806020018281038252602e815260200180612c06602e913960400191505060405180910390fd5b600054610100900460ff16158015610d9a576000805460ff1961ff0019909116610100171660011790555b825160208085019190912083519184019190912060c99190915560ca558015610430576000805461ff0019169055505050565b8051602091820151805190830120604080517f9669e224ec6ad2f24a7c7d8aa1817412c93cd29c0282aaa396dacf7c912d49c7818601526001600160e01b031990931683820152606080840192909252805180840390920182526080909201909152805191012090565b60a08101511580610e4b5750428160a00151105b610e9c576040805162461bcd60e51b815260206004820152601d60248201527f4f726465722073746172742076616c69646174696f6e206661696c6564000000604482015290519081900360640190fd5b60c08101511580610eb05750428160c00151115b61080c576040805162461bcd60e51b815260206004820152601b60248201527f4f7264657220656e642076616c69646174696f6e206661696c65640000000000604482015290519081900360640190fd5b81516001600160a01b0316610f14610758565b6001600160a01b031614610b0a576000610f2d83611380565b9050610f4583600001516001600160a01b0316610d07565b156110975782516320c13b0b60e01b906001600160a01b0316631626ba7e610f6c84611470565b856040518363ffffffff1660e01b81526004018083815260200180602001828103825283818151815260200191508051906020019080838360005b83811015610fbf578181015183820152602001610fa7565b50505050905090810190601f168015610fec5780820380516001836020036101000a031916815260200191505b50935050505060206040518083038186803b15801561100a57600080fd5b505afa15801561101e573d6000803e3d6000fd5b505050506040513d602081101561103457600080fd5b50516001600160e01b03191614611092576040805162461bcd60e51b815260206004820152601c60248201527f7369676e617475726520766572696669636174696f6e206572726f7200000000604482015290519081900360640190fd5b610430565b82516001600160a01b03166110b5836110af84611470565b906114bc565b6001600160a01b031614610430576040805162461bcd60e51b815260206004820152601c60248201527f7369676e617475726520766572696669636174696f6e206572726f7200000000604482015290519081900360640190fd5b611118612342565b611120612342565b602084015151606084015151611136919061153e565b80519092506001600160e01b0319166111615760405162461bcd60e51b8152600401610532906129e1565b606084015151602084015151611177919061153e565b80519091506001600160e01b0319166111a25760405162461bcd60e51b8152600401610532906129e1565b9250929050565b6111b161235a565b6000806111be878661157e565b915091506000806111cf888761157e565b9150915081831115611202576111f78960200151602001518a606001516020015184846115c2565b945050505050611231565b83811115611226576111f784848a60200151602001518b6060015160200151611648565b6111f78484836116cd565b949350505050565b81518151604080518082019091528781528551602082015284516000938493909290916112889190837f1a0388dd7519a093630516a672419a2562e0e74deb98af068657dc265f0164c9611749565b6112d060405180604001604052808a815260200189602001518152508660000151847fb45a3ba14423c8f1b71cc094845ab56b5294dbe8d8e3ba53f3cdb63d59a4044b611749565b50508451602090950151949794965093945050505050565b6040516000906001600160a01b0384169083908381818185875af1925050503d8060008114611333576040519150601f19603f3d011682016040523d82523d6000602084013e611338565b606091505b5050905080610430576040805162461bcd60e51b815260206004820152600f60248201526e1d1c985b9cd9995c8819985a5b1959608a1b604482015290519081900360640190fd5b60007f9e8225ce4c1405fdec349fb6a9979f1009f1a40f74e8eece1be6c810f607f34382600001516113b58460200151611b35565b84604001516113c78660600151611b35565b86608001518760a001518860c001518960e001518a610100015180519060200120604051602001808b81526020018a6001600160a01b03168152602001898152602001886001600160a01b03168152602001878152602001868152602001858152602001848152602001836001600160e01b03191681526020018281526020019a5050505050505050505050604051602081830303815290604052805190602001209050919050565b600061147a611ba5565b82604051602001808061190160f01b81525060020183815260200182815260200192505050604051602081830303815290604052805190602001209050919050565b60008151604114611514576040805162461bcd60e51b815260206004820152601f60248201527f45434453413a20696e76616c6964207369676e6174757265206c656e67746800604482015290519081900360640190fd5b60208201516040830151606084015160001a61153286828585611be5565b93505050505b92915050565b611546612342565b60006115528484611d63565b80519091506001600160e01b0319166115775761156f8385611d63565b915050611538565b9050611538565b60008061159c838560600151602001516120c490919063ffffffff16565b90506115b984602001516020015185606001516020015183612121565b91509250929050565b6115ca61235a565b60006115d7838787612121565b90508381111561162e576040805162461bcd60e51b815260206004820152601960248201527f66696c6c52696768743a20756e61626c6520746f2066696c6c00000000000000604482015290519081900360640190fd5b604080518082019091529283526020830152509392505050565b61165061235a565b600061165d858585612121565b9050858111156116b4576040805162461bcd60e51b815260206004820152601860248201527f66696c6c4c6566743a20756e61626c6520746f2066696c6c0000000000000000604482015290519081900360640190fd5b5050604080518082019091529384525050602082015290565b6116d561235a565b8382111561172a576040805162461bcd60e51b815260206004820152601860248201527f66696c6c426f74683a20756e61626c6520746f2066696c6c0000000000000000604482015290519081900360640190fd5b60405180604001604052808581526020018481525090505b9392505050565b8351516001600160e01b0319166355575f5d60e11b14156117ea576000826001600160a01b031685602001516040516117819061285e565b60006040518083038185875af1925050503d80600081146117be576040519150601f19603f3d011682016040523d82523d6000602084013e6117c3565b606091505b50509050806117e45760405162461bcd60e51b815260040161053290612a0d565b50611af2565b8351516001600160e01b0319166322ba176160e21b14156118c85760008460000151602001518060200190518101906118239190612593565b6322ba176160e21b600052609760209081527f4532fa16f071d6234e30e1a1e69b9806f04095edf37a1ca7a25c8d6af7861cc0549087015160405163776062c360e01b81529293506001600160a01b039091169163776062c39161189091859189918991906004016128f3565b600060405180830381600087803b1580156118aa57600080fd5b505af11580156118be573d6000803e3d6000fd5b5050505050611af2565b8351516001600160e01b0319166339d690a360e11b14156119c85760008085600001516020015180602001905181019061190291906125af565b91509150856020015160011461192a5760405162461bcd60e51b815260040161053290612954565b6339d690a360e11b60005260976020527f30a684095c937b5aa064dcf94f9903a7d808e3efb22d8389dbd43080ad4ed3d554604051637b84dc8360e11b81526001600160a01b039091169063f709b9069061198f9085908990899087906004016128f3565b600060405180830381600087803b1580156119a957600080fd5b505af11580156119bd573d6000803e3d6000fd5b505050505050611af2565b8351516001600160e01b03191663025ceed960e61b1415611a7157600080856000015160200151806020019051810190611a0291906125af565b63025ceed960e61b600052609760209081527f4b5822151ea34b7c8d9e37c3e466bcecb631efe6a9f26a4a4054110a93dd316f5490890151604051639c1c2ee960e01b81529395509193506001600160a01b031691639c1c2ee99161198f9186918a918a9188916004016128b0565b8351516001600160e01b031916600090815260976020526040908190205490516354bc0cf160e01b81526001600160a01b03909116906354bc0cf190611abf90879087908790600401612aa8565b600060405180830381600087803b158015611ad957600080fd5b505af1158015611aed573d6000803e3d6000fd5b505050505b7f9fe8adddc6697ce223994bafe7de263e59ec2be255a62c89890e32a32b17ae8a84848484604051611b279493929190612adb565b60405180910390a150505050565b60007f8544d62f5b187ba3785617f70992fcc46e97a1831ab900d9be9b5db69f4acb1c611b658360000151610dcd565b8360200151604051602001808481526020018381526020018281526020019350505050604051602081830303815290604052805190602001209050919050565b6000611be07f8b73c3c69bb8fe3d512ecc4cf759cc79239f7b179b0ffacaa9a75d522b39400f611bd3612185565b611bdb61218b565b612191565b905090565b60007f7fffffffffffffffffffffffffffffff5d576e7357a4501ddfe92f46681b20a0821115611c465760405162461bcd60e51b8152600401808060200182810382526022815260200180612be46022913960400191505060405180910390fd5b8360ff16601b1480611c5b57508360ff16601c145b611c965760405162461bcd60e51b8152600401808060200182810382526022815260200180612c346022913960400191505060405180910390fd5b600060018686868660405160008152602001604052604051808581526020018460ff1681526020018381526020018281526020019450505050506020604051602081039080840390855afa158015611cf2573d6000803e3d6000fd5b5050604051601f1901519150506001600160a01b038116611d5a576040805162461bcd60e51b815260206004820152601860248201527f45434453413a20696e76616c6964207369676e61747572650000000000000000604482015290519081900360640190fd5b95945050505050565b611d6b612342565b825182516001600160e01b031982166355575f5d60e11b1415611dd6576001600160e01b031981166355575f5d60e11b1415611dab578492505050611538565b5050604080518082018252600080825282516020818101909452908152918101919091529050611538565b6001600160e01b031982166322ba176160e21b1415611e93576001600160e01b031981166322ba176160e21b1415611dab5760008560200151806020019051810190611e229190612593565b905060008560200151806020019051810190611e3e9190612593565b9050806001600160a01b0316826001600160a01b03161415611e665786945050505050611538565b50505050604080518082018252600080825282516020818101909452908152918101919091529050611538565b6001600160e01b031982166339d690a360e11b1415611f65576001600160e01b031981166339d690a360e11b1415611dab576000808660200151806020019051810190611ee091906125af565b915091506000808760200151806020019051810190611eff91906125af565b91509150816001600160a01b0316846001600160a01b0316148015611f2357508083145b15611f3657889650505050505050611538565b505050505050604080518082018252600080825282516020818101909452908152918101919091529050611538565b6001600160e01b0319821663025ceed960e61b1415611fb2576001600160e01b0319811663025ceed960e61b1415611dab576000808660200151806020019051810190611ee091906125af565b6001600160e01b031982166000908152606560205260409020546001600160a01b03168015612067576040516306d3f7cb60e41b81526001600160a01b03821690636d3f7cb0906120099089908990600401612a83565b60006040518083038186803b15801561202157600080fd5b505afa158015612035573d6000803e3d6000fd5b505050506040513d6000823e601f3d908101601f1916820160405261205d9190810190612649565b9350505050611538565b6001600160e01b031983811690831614156120ac57602080870151805190820120868201518051920191909120808214156120a9578795505050505050611538565b50505b60405162461bcd60e51b81526004016105329061291d565b60008282111561211b576040805162461bcd60e51b815260206004820152601e60248201527f536166654d6174683a207375627472616374696f6e206f766572666c6f770000604482015290519081900360640190fd5b50900390565b600061212e8484846121f3565b15612171576040805162461bcd60e51b815260206004820152600e60248201526d3937bab73234b7339032b93937b960911b604482015290519081900360640190fd5b6112318361217f8685612282565b906122db565b60c95490565b60ca5490565b600083838361219e6102b0565b3060405160200180868152602001858152602001848152602001838152602001826001600160a01b03168152602001955050505050506040516020818303038152906040528051906020012090509392505050565b60008261223a576040805162461bcd60e51b815260206004820152601060248201526f6469766973696f6e206279207a65726f60801b604482015290519081900360640190fd5b811580612245575083155b1561225257506000611742565b6000838061225c57fe5b858409905061226b8584612282565b612277826103e8612282565b101595945050505050565b60008261229157506000611538565b8282028284828161229e57fe5b04146117425760405162461bcd60e51b8152600401808060200182810382526021815260200180612c566021913960400191505060405180910390fd5b6000808211612331576040805162461bcd60e51b815260206004820152601a60248201527f536166654d6174683a206469766973696f6e206279207a65726f000000000000604482015290519081900360640190fd5b81838161233a57fe5b049392505050565b60408051808201909152600081526060602082015290565b604051806040016040528060008152602001600081525090565b8035610af281612b92565b8035610af281612ba7565b600082601f83011261239a578081fd5b81356123ad6123a882612b44565b612b20565b8181528460208386010111156123c1578283fd5b816020850160208301379081016020019190915292915050565b600060408083850312156123ed578182fd5b805181810167ffffffffffffffff828210818311171561240957fe5b81845282945085358181111561241e57600080fd5b860180880385131561242f57600080fd5b60808401838110838211171561244157fe5b90945283359361245085612ba7565b9382526020840135938185111561246657600080fd5b6124728886830161238a565b60608501525050815260209384013593019290925292915050565b60006101208083850312156124a0578182fd5b6124a981612b20565b9150506124b582612374565b8152602082013567ffffffffffffffff808211156124d257600080fd5b6124de858386016123db565b60208401526124ef60408501612374565b6040840152606084013591508082111561250857600080fd5b612514858386016123db565b60608401526080840135608084015260a084013560a084015260c084013560c084015261254360e0850161237f565b60e08401526101009150818401358181111561255e57600080fd5b61256a8682870161238a565b8385015250505092915050565b600060208284031215612588578081fd5b813561174281612b92565b6000602082840312156125a4578081fd5b815161174281612b92565b600080604083850312156125c1578081fd5b82516125cc81612b92565b6020939093015192949293505050565b6000602082840312156125ed578081fd5b5035919050565b60008060408385031215612606578182fd5b823561261181612ba7565b9150602083013561262181612b92565b809150509250929050565b6000806040838503121561263e578182fd5b823561261181612b92565b6000602080838503121561265b578182fd5b825167ffffffffffffffff80821115612672578384fd5b9084019060408287031215612685578384fd5b60405160408101818110838211171561269a57fe5b60405282516126a881612ba7565b815282840151828111156126ba578586fd5b80840193505086601f8401126126ce578485fd5b825191506126de6123a883612b44565b82815287858486010111156126f1578586fd5b61270083868301878701612b66565b938101939093525090949350505050565b600060208284031215612722578081fd5b813567ffffffffffffffff811115612738578182fd5b6112318482850161248d565b60008060008060808587031215612759578182fd5b843567ffffffffffffffff80821115612770578384fd5b61277c8883890161248d565b95506020870135915080821115612791578384fd5b61279d8883890161238a565b945060408701359150808211156127b2578384fd5b6127be8883890161248d565b935060608701359150808211156127d3578283fd5b506127e08782880161238a565b91505092959194509250565b600063ffffffff60e01b82511683526020820151604060208501528051806040860152612820816060870160208501612b66565b601f01601f1916939093016060019392505050565b600081516040845261284a60408501826127ec565b602093840151949093019390935250919050565b90565b6001600160a01b0391909116815260200190565b90815260200190565b95865260208601949094526001600160a01b03928316604086015291166060840152608083015260a082015260c00190565b6001600160a01b03958616815293851660208501529190931660408301526060820192909252608081019190915260c060a0820181905260009082015260e00190565b6001600160a01b039485168152928416602084015292166040820152606081019190915260800190565b60208082526017908201527f6e6f7420666f756e64204941737365744d617463686572000000000000000000604082015260600190565b60208082526013908201527232b9319b99189030b6b7bab73a1032b93937b960691b604082015260600190565b60208082526019908201527f74616b657220766572696669636174696f6e206661696c656400000000000000604082015260600190565b6020808252600f908201526e1b9bdd1a1a5b99c81d1bc8199a5b1b608a1b604082015260600190565b6020808252601290820152710c2e6e6cae8e640c8dedc4ee840dac2e8c6d60731b604082015260600190565b6020808252600f908201526e1d1c985b9cd9995c8819985a5b1959608a1b604082015260600190565b6020808252600e908201526d0dcdee840cadcdeeaced040cae8d60931b604082015260600190565b6020808252600b908201526a3737ba10309036b0b5b2b960a91b604082015260600190565b600060408252612a9660408301856127ec565b8281036020840152611d5a81856127ec565b600060608252612abb6060830186612835565b6001600160a01b0394851660208401529290931660409091015292915050565b600060808252612aee6080830187612835565b6001600160a01b0395861660208401529390941660408201526001600160e01b03199190911660609091015292915050565b60405181810167ffffffffffffffff81118282101715612b3c57fe5b604052919050565b600067ffffffffffffffff821115612b5857fe5b50601f01601f191660200190565b60005b83811015612b81578181015183820152602001612b69565b8381111561064f5750506000910152565b6001600160a01b038116811461080c57600080fd5b6001600160e01b03198116811461080c57600080fdfe4f776e61626c653a206e6577206f776e657220697320746865207a65726f206164647265737345434453413a20696e76616c6964207369676e6174757265202773272076616c7565496e697469616c697a61626c653a20636f6e747261637420697320616c726561647920696e697469616c697a656445434453413a20696e76616c6964207369676e6174757265202776272076616c7565536166654d6174683a206d756c7469706c69636174696f6e206f766572666c6f774f776e61626c653a2063616c6c6572206973206e6f7420746865206f776e6572a2646970667358221220390755e33f1f243902453e10e359fbb60882660b0bf8e1aa1e6ba7409bc1a4f064736f6c63430007060033",
  "immutableReferences": {},
  "source": "// SPDX-License-Identifier: MIT\n\npragma solidity >=0.6.2 <0.8.0;\npragma abicoder v2;\n\nimport \"./ExchangeV2Core.sol\";\nimport \"./SimpleTransferManager.sol\";\n\ncontract ExchangeSimpleV2 is ExchangeV2Core, SimpleTransferManager {\n    function __ExchangeSimpleV2_init(\n        TransferProxy _transferProxy,\n        ERC20TransferProxy _erc20TransferProxy\n    ) external initializer {\n        __Context_init_unchained();\n        __Ownable_init_unchained();\n        __TransferExecutor_init_unchained(_transferProxy, _erc20TransferProxy);\n        __OrderValidator_init_unchained();\n    }\n}\n",
  "sourcePath": "/home/quadro/Projects/tokenplace/interfaces/exchange-v2/contracts/exchange/v2/ExchangeSimpleV2.sol",
  "compiler": {
    "name": "solc",
    "version": "0.7.6+commit.7338295f.Emscripten.clang"
  },
  "schemaVersion": "3.3.2",
  "updatedAt": "2021-03-17T15:58:23.339Z",
  "devdoc": {
    "kind": "dev",
    "methods": {
      "owner()": {
        "details": "Returns the address of the current owner."
      },
      "renounceOwnership()": {
        "details": "Leaves the contract without owner. It will not be possible to call `onlyOwner` functions anymore. Can only be called by the current owner. NOTE: Renouncing ownership will leave the contract without an owner, thereby removing any functionality that is only available to the owner."
      },
      "transferOwnership(address)": {
        "details": "Transfers ownership of the contract to a new account (`newOwner`). Can only be called by the current owner."
      }
    },
    "version": 1
  },
  "userdoc": {
    "kind": "user",
    "methods": {},
    "version": 1
  }
}