{
  "contractName": "ExchangeV2",
  "abi": [
    {
      "anonymous": false,
      "inputs": [
        {
          "indexed": false,
          "internalType": "bytes32",
          "name": "hash",
          "type": "bytes32"
        }
      ],
      "name": "Cancel",
      "type": "event"
    },
    {
      "anonymous": false,
      "inputs": [
        {
          "indexed": false,
          "internalType": "bytes32",
          "name": "leftHash",
          "type": "bytes32"
        },
        {
          "indexed": false,
          "internalType": "bytes32",
          "name": "rightHash",
          "type": "bytes32"
        },
        {
          "indexed": false,
          "internalType": "address",
          "name": "leftMaker",
          "type": "address"
        },
        {
          "indexed": false,
          "internalType": "address",
          "name": "rightMaker",
          "type": "address"
        },
        {
          "indexed": false,
          "internalType": "uint256",
          "name": "newLeftFill",
          "type": "uint256"
        },
        {
          "indexed": false,
          "internalType": "uint256",
          "name": "newRightFill",
          "type": "uint256"
        }
      ],
      "name": "Match",
      "type": "event"
    },
    {
      "anonymous": false,
      "inputs": [
        {
          "indexed": true,
          "internalType": "bytes4",
          "name": "assetType",
          "type": "bytes4"
        },
        {
          "indexed": false,
          "internalType": "address",
          "name": "matcher",
          "type": "address"
        }
      ],
      "name": "MatcherChange",
      "type": "event"
    },
    {
      "anonymous": false,
      "inputs": [
        {
          "indexed": true,
          "internalType": "address",
          "name": "previousOwner",
          "type": "address"
        },
        {
          "indexed": true,
          "internalType": "address",
          "name": "newOwner",
          "type": "address"
        }
      ],
      "name": "OwnershipTransferred",
      "type": "event"
    },
    {
      "anonymous": false,
      "inputs": [
        {
          "indexed": true,
          "internalType": "bytes4",
          "name": "assetType",
          "type": "bytes4"
        },
        {
          "indexed": false,
          "internalType": "address",
          "name": "proxy",
          "type": "address"
        }
      ],
      "name": "ProxyChange",
      "type": "event"
    },
    {
      "anonymous": false,
      "inputs": [
        {
          "components": [
            {
              "components": [
                {
                  "internalType": "bytes4",
                  "name": "tp",
                  "type": "bytes4"
                },
                {
                  "internalType": "bytes",
                  "name": "data",
                  "type": "bytes"
                }
              ],
              "internalType": "struct LibAsset.AssetType",
              "name": "assetType",
              "type": "tuple"
            },
            {
              "internalType": "uint256",
              "name": "amount",
              "type": "uint256"
            }
          ],
          "indexed": false,
          "internalType": "struct LibAsset.Asset",
          "name": "asset",
          "type": "tuple"
        },
        {
          "indexed": false,
          "internalType": "address",
          "name": "from",
          "type": "address"
        },
        {
          "indexed": false,
          "internalType": "address",
          "name": "to",
          "type": "address"
        },
        {
          "indexed": false,
          "internalType": "bytes4",
          "name": "transferType",
          "type": "bytes4"
        }
      ],
      "name": "Transfer",
      "type": "event"
    },
    {
      "inputs": [],
      "name": "buyerFee",
      "outputs": [
        {
          "internalType": "uint256",
          "name": "",
          "type": "uint256"
        }
      ],
      "stateMutability": "view",
      "type": "function"
    },
    {
      "inputs": [
        {
          "components": [
            {
              "internalType": "address",
              "name": "maker",
              "type": "address"
            },
            {
              "components": [
                {
                  "components": [
                    {
                      "internalType": "bytes4",
                      "name": "tp",
                      "type": "bytes4"
                    },
                    {
                      "internalType": "bytes",
                      "name": "data",
                      "type": "bytes"
                    }
                  ],
                  "internalType": "struct LibAsset.AssetType",
                  "name": "assetType",
                  "type": "tuple"
                },
                {
                  "internalType": "uint256",
                  "name": "amount",
                  "type": "uint256"
                }
              ],
              "internalType": "struct LibAsset.Asset",
              "name": "makeAsset",
              "type": "tuple"
            },
            {
              "internalType": "address",
              "name": "taker",
              "type": "address"
            },
            {
              "components": [
                {
                  "components": [
                    {
                      "internalType": "bytes4",
                      "name": "tp",
                      "type": "bytes4"
                    },
                    {
                      "internalType": "bytes",
                      "name": "data",
                      "type": "bytes"
                    }
                  ],
                  "internalType": "struct LibAsset.AssetType",
                  "name": "assetType",
                  "type": "tuple"
                },
                {
                  "internalType": "uint256",
                  "name": "amount",
                  "type": "uint256"
                }
              ],
              "internalType": "struct LibAsset.Asset",
              "name": "takeAsset",
              "type": "tuple"
            },
            {
              "internalType": "uint256",
              "name": "salt",
              "type": "uint256"
            },
            {
              "internalType": "uint256",
              "name": "start",
              "type": "uint256"
            },
            {
              "internalType": "uint256",
              "name": "end",
              "type": "uint256"
            },
            {
              "internalType": "bytes4",
              "name": "dataType",
              "type": "bytes4"
            },
            {
              "internalType": "bytes",
              "name": "data",
              "type": "bytes"
            }
          ],
          "internalType": "struct LibOrder.Order",
          "name": "order",
          "type": "tuple"
        }
      ],
      "name": "cancel",
      "outputs": [],
      "stateMutability": "nonpayable",
      "type": "function"
    },
    {
      "inputs": [],
      "name": "communityWallet",
      "outputs": [
        {
          "internalType": "address",
          "name": "",
          "type": "address"
        }
      ],
      "stateMutability": "view",
      "type": "function"
    },
    {
      "inputs": [
        {
          "internalType": "bytes32",
          "name": "",
          "type": "bytes32"
        }
      ],
      "name": "fills",
      "outputs": [
        {
          "internalType": "uint256",
          "name": "",
          "type": "uint256"
        }
      ],
      "stateMutability": "view",
      "type": "function"
    },
    {
      "inputs": [],
      "name": "getChainId",
      "outputs": [
        {
          "internalType": "uint256",
          "name": "chainId",
          "type": "uint256"
        }
      ],
      "stateMutability": "view",
      "type": "function"
    },
    {
      "inputs": [
        {
          "components": [
            {
              "internalType": "address",
              "name": "maker",
              "type": "address"
            },
            {
              "components": [
                {
                  "components": [
                    {
                      "internalType": "bytes4",
                      "name": "tp",
                      "type": "bytes4"
                    },
                    {
                      "internalType": "bytes",
                      "name": "data",
                      "type": "bytes"
                    }
                  ],
                  "internalType": "struct LibAsset.AssetType",
                  "name": "assetType",
                  "type": "tuple"
                },
                {
                  "internalType": "uint256",
                  "name": "amount",
                  "type": "uint256"
                }
              ],
              "internalType": "struct LibAsset.Asset",
              "name": "makeAsset",
              "type": "tuple"
            },
            {
              "internalType": "address",
              "name": "taker",
              "type": "address"
            },
            {
              "components": [
                {
                  "components": [
                    {
                      "internalType": "bytes4",
                      "name": "tp",
                      "type": "bytes4"
                    },
                    {
                      "internalType": "bytes",
                      "name": "data",
                      "type": "bytes"
                    }
                  ],
                  "internalType": "struct LibAsset.AssetType",
                  "name": "assetType",
                  "type": "tuple"
                },
                {
                  "internalType": "uint256",
                  "name": "amount",
                  "type": "uint256"
                }
              ],
              "internalType": "struct LibAsset.Asset",
              "name": "takeAsset",
              "type": "tuple"
            },
            {
              "internalType": "uint256",
              "name": "salt",
              "type": "uint256"
            },
            {
              "internalType": "uint256",
              "name": "start",
              "type": "uint256"
            },
            {
              "internalType": "uint256",
              "name": "end",
              "type": "uint256"
            },
            {
              "internalType": "bytes4",
              "name": "dataType",
              "type": "bytes4"
            },
            {
              "internalType": "bytes",
              "name": "data",
              "type": "bytes"
            }
          ],
          "internalType": "struct LibOrder.Order",
          "name": "orderLeft",
          "type": "tuple"
        },
        {
          "internalType": "bytes",
          "name": "signatureLeft",
          "type": "bytes"
        },
        {
          "components": [
            {
              "internalType": "address",
              "name": "maker",
              "type": "address"
            },
            {
              "components": [
                {
                  "components": [
                    {
                      "internalType": "bytes4",
                      "name": "tp",
                      "type": "bytes4"
                    },
                    {
                      "internalType": "bytes",
                      "name": "data",
                      "type": "bytes"
                    }
                  ],
                  "internalType": "struct LibAsset.AssetType",
                  "name": "assetType",
                  "type": "tuple"
                },
                {
                  "internalType": "uint256",
                  "name": "amount",
                  "type": "uint256"
                }
              ],
              "internalType": "struct LibAsset.Asset",
              "name": "makeAsset",
              "type": "tuple"
            },
            {
              "internalType": "address",
              "name": "taker",
              "type": "address"
            },
            {
              "components": [
                {
                  "components": [
                    {
                      "internalType": "bytes4",
                      "name": "tp",
                      "type": "bytes4"
                    },
                    {
                      "internalType": "bytes",
                      "name": "data",
                      "type": "bytes"
                    }
                  ],
                  "internalType": "struct LibAsset.AssetType",
                  "name": "assetType",
                  "type": "tuple"
                },
                {
                  "internalType": "uint256",
                  "name": "amount",
                  "type": "uint256"
                }
              ],
              "internalType": "struct LibAsset.Asset",
              "name": "takeAsset",
              "type": "tuple"
            },
            {
              "internalType": "uint256",
              "name": "salt",
              "type": "uint256"
            },
            {
              "internalType": "uint256",
              "name": "start",
              "type": "uint256"
            },
            {
              "internalType": "uint256",
              "name": "end",
              "type": "uint256"
            },
            {
              "internalType": "bytes4",
              "name": "dataType",
              "type": "bytes4"
            },
            {
              "internalType": "bytes",
              "name": "data",
              "type": "bytes"
            }
          ],
          "internalType": "struct LibOrder.Order",
          "name": "orderRight",
          "type": "tuple"
        },
        {
          "internalType": "bytes",
          "name": "signatureRight",
          "type": "bytes"
        }
      ],
      "name": "matchOrders",
      "outputs": [],
      "stateMutability": "payable",
      "type": "function"
    },
    {
      "inputs": [],
      "name": "owner",
      "outputs": [
        {
          "internalType": "address",
          "name": "",
          "type": "address"
        }
      ],
      "stateMutability": "view",
      "type": "function"
    },
    {
      "inputs": [],
      "name": "renounceOwnership",
      "outputs": [],
      "stateMutability": "nonpayable",
      "type": "function"
    },
    {
      "inputs": [],
      "name": "sellerFee",
      "outputs": [
        {
          "internalType": "uint256",
          "name": "",
          "type": "uint256"
        }
      ],
      "stateMutability": "view",
      "type": "function"
    },
    {
      "inputs": [
        {
          "internalType": "bytes4",
          "name": "assetType",
          "type": "bytes4"
        },
        {
          "internalType": "address",
          "name": "matcher",
          "type": "address"
        }
      ],
      "name": "setAssetMatcher",
      "outputs": [],
      "stateMutability": "nonpayable",
      "type": "function"
    },
    {
      "inputs": [
        {
          "internalType": "uint256",
          "name": "newBuyerFee",
          "type": "uint256"
        }
      ],
      "name": "setBuyerFee",
      "outputs": [],
      "stateMutability": "nonpayable",
      "type": "function"
    },
    {
      "inputs": [
        {
          "internalType": "address payable",
          "name": "newCommunityWallet",
          "type": "address"
        }
      ],
      "name": "setCommunityWallet",
      "outputs": [],
      "stateMutability": "nonpayable",
      "type": "function"
    },
    {
      "inputs": [
        {
          "internalType": "uint256",
          "name": "newSellerFee",
          "type": "uint256"
        }
      ],
      "name": "setSellerFee",
      "outputs": [],
      "stateMutability": "nonpayable",
      "type": "function"
    },
    {
      "inputs": [
        {
          "internalType": "bytes4",
          "name": "assetType",
          "type": "bytes4"
        },
        {
          "internalType": "address",
          "name": "proxy",
          "type": "address"
        }
      ],
      "name": "setTransferProxy",
      "outputs": [],
      "stateMutability": "nonpayable",
      "type": "function"
    },
    {
      "inputs": [
        {
          "internalType": "address",
          "name": "token",
          "type": "address"
        },
        {
          "internalType": "address",
          "name": "wallet",
          "type": "address"
        }
      ],
      "name": "setWalletForToken",
      "outputs": [],
      "stateMutability": "nonpayable",
      "type": "function"
    },
    {
      "inputs": [
        {
          "internalType": "address",
          "name": "newOwner",
          "type": "address"
        }
      ],
      "name": "transferOwnership",
      "outputs": [],
      "stateMutability": "nonpayable",
      "type": "function"
    },
    {
      "inputs": [
        {
          "internalType": "address",
          "name": "",
          "type": "address"
        }
      ],
      "name": "walletsForTokens",
      "outputs": [
        {
          "internalType": "address",
          "name": "",
          "type": "address"
        }
      ],
      "stateMutability": "view",
      "type": "function"
    },
    {
      "inputs": [
        {
          "internalType": "contract TransferProxy",
          "name": "_transferProxy",
          "type": "address"
        },
        {
          "internalType": "contract ERC20TransferProxy",
          "name": "_erc20TransferProxy",
          "type": "address"
        },
        {
          "internalType": "uint256",
          "name": "newBuyerFee",
          "type": "uint256"
        },
        {
          "internalType": "uint256",
          "name": "newSellerFee",
          "type": "uint256"
        },
        {
          "internalType": "address",
          "name": "newCommunityWallet",
          "type": "address"
        }
      ],
      "name": "__ExchangeV2_init",
      "outputs": [],
      "stateMutability": "nonpayable",
      "type": "function"
    }
  ],
  "bytecode": "0x608060405234801561001057600080fd5b50613e83806100206000396000f3fe6080604052600436106101095760003560e01c80639daa823d11610095578063e1f3d55a11610064578063e1f3d55a1461029c578063e2864fe3146102b1578063e99a3f80146102d1578063f2fde38b146102e4578063fa7da19d1461030457610109565b80639daa823d14610227578063b39deb4614610247578063c757483914610267578063d22ce6c61461027c57610109565b80635de6c42f116100dc5780635de6c42f1461019b578063715018a6146101b0578063840e997c146101c557806385d6bb81146101e55780638da5cb5b1461020557610109565b80631bfee1211461010e57806320158c441461013057806330c642f1146101665780633408e47014610186575b600080fd5b34801561011a57600080fd5b5061012e6101293660046136b5565b610324565b005b34801561013c57600080fd5b5061015061014b3660046136b5565b61038c565b60405161015d91906139fc565b60405180910390f35b34801561017257600080fd5b5061012e6101813660046136cd565b61039f565b34801561019257600080fd5b5061015061046f565b3480156101a757600080fd5b50610150610473565b3480156101bc57600080fd5b5061012e61047a565b3480156101d157600080fd5b5061012e6101e03660046136ea565b610526565b3480156101f157600080fd5b5061012e6102003660046134ab565b6105fa565b34801561021157600080fd5b5061021a61067f565b60405161015d91906139e8565b34801561023357600080fd5b5061021a6102423660046134ab565b61068e565b34801561025357600080fd5b5061012e6102623660046136cd565b6106aa565b34801561027357600080fd5b5061021a61076e565b34801561028857600080fd5b5061012e610297366004613510565b61077e565b3480156102a857600080fd5b5061015061080f565b3480156102bd57600080fd5b5061012e6102cc36600461389a565b610816565b61012e6102df3660046138cc565b6108b6565b3480156102f057600080fd5b5061012e6102ff3660046134ab565b610972565b34801561031057600080fd5b5061012e61031f3660046136b5565b610a75565b61032c610add565b6001600160a01b031661033d61067f565b6001600160a01b031614610386576040805162461bcd60e51b81526020600482018190526024820152600080516020613e2e833981519152604482015290519081900360640190fd5b61016255565b61012f6020526000908152604090205481565b6103a7610add565b6001600160a01b03166103b861067f565b6001600160a01b031614610401576040805162461bcd60e51b81526020600482018190526024820152600080516020613e2e833981519152604482015290519081900360640190fd5b6001600160e01b031982166000818152609760205260409081902080546001600160a01b0319166001600160a01b038516179055517f4b5aced933c0c9a88aeac3f0b3b72c5aaf75df8ebaf53225773248c4c3153593906104639084906139e8565b60405180910390a25050565b4690565b6101615481565b610482610add565b6001600160a01b031661049361067f565b6001600160a01b0316146104dc576040805162461bcd60e51b81526020600482018190526024820152600080516020613e2e833981519152604482015290519081900360640190fd5b6033546040516000916001600160a01b0316907f8be0079c531659141344cd1fd0a4f28419497f9722a3daafe3b4186f6b6457e0908390a3603380546001600160a01b0319169055565b600054610100900460ff168061053f575061053f610ae1565b8061054d575060005460ff16155b6105885760405162461bcd60e51b815260040180806020018281038252602e815260200180613dbd602e913960400191505060405180910390fd5b600054610100900460ff161580156105b3576000805460ff1961ff0019909116610100171660011790555b6105bb610af2565b6105c3610b94565b6105cd8686610c8d565b6105d8848484610d37565b6105e0610e03565b80156105f2576000805461ff00191690555b505050505050565b610602610add565b6001600160a01b031661061361067f565b6001600160a01b03161461065c576040805162461bcd60e51b81526020600482018190526024820152600080516020613e2e833981519152604482015290519081900360640190fd5b61016380546001600160a01b0319166001600160a01b0392909216919091179055565b6033546001600160a01b031690565b610164602052600090815260409020546001600160a01b031681565b6106b2610add565b6001600160a01b03166106c361067f565b6001600160a01b03161461070c576040805162461bcd60e51b81526020600482018190526024820152600080516020613e2e833981519152604482015290519081900360640190fd5b6001600160e01b031982166000818152606560205260409081902080546001600160a01b0319166001600160a01b038516179055517fd2bf91075f105d0fd80328da28e20ebdad1c1261839711183bc29a44cbe6c72f906104639084906139e8565b610163546001600160a01b031681565b610786610add565b6001600160a01b031661079761067f565b6001600160a01b0316146107e0576040805162461bcd60e51b81526020600482018190526024820152600080516020613e2e833981519152604482015290519081900360640190fd5b6001600160a01b0391821660009081526101646020526040902080546001600160a01b03191691909216179055565b6101625481565b80516001600160a01b0316610829610add565b6001600160a01b0316146108585760405162461bcd60e51b815260040161084f90613bfa565b60405180910390fd5b600061086382610ed3565b600081815261012f6020526040908190206000199055519091507fe8d9861dbc9c663ed3accd261bbe2fe01e0d3d9e5f51fa38523b265c7757a93a906108aa9083906139fc565b60405180910390a15050565b6108c08484610f48565b6108ca8282610f48565b60408401516001600160a01b0316156109165783604001516001600160a01b031682600001516001600160a01b0316146109165760405162461bcd60e51b815260040161084f90613b1d565b60408201516001600160a01b0316156109625783600001516001600160a01b031682604001516001600160a01b0316146109625760405162461bcd60e51b815260040161084f90613b1d565b61096c8483610f5f565b50505050565b61097a610add565b6001600160a01b031661098b61067f565b6001600160a01b0316146109d4576040805162461bcd60e51b81526020600482018190526024820152600080516020613e2e833981519152604482015290519081900360640190fd5b6001600160a01b038116610a195760405162461bcd60e51b8152600401808060200182810382526026815260200180613d756026913960400191505060405180910390fd5b6033546040516001600160a01b038084169216907f8be0079c531659141344cd1fd0a4f28419497f9722a3daafe3b4186f6b6457e090600090a3603380546001600160a01b0319166001600160a01b0392909216919091179055565b610a7d610add565b6001600160a01b0316610a8e61067f565b6001600160a01b031614610ad7576040805162461bcd60e51b81526020600482018190526024820152600080516020613e2e833981519152604482015290519081900360640190fd5b61016155565b3390565b6000610aec30611158565b15905090565b600054610100900460ff1680610b0b5750610b0b610ae1565b80610b19575060005460ff16155b610b545760405162461bcd60e51b815260040180806020018281038252602e815260200180613dbd602e913960400191505060405180910390fd5b600054610100900460ff16158015610b7f576000805460ff1961ff0019909116610100171660011790555b8015610b91576000805461ff00191690555b50565b600054610100900460ff1680610bad5750610bad610ae1565b80610bbb575060005460ff16155b610bf65760405162461bcd60e51b815260040180806020018281038252602e815260200180613dbd602e913960400191505060405180910390fd5b600054610100900460ff16158015610c21576000805460ff1961ff0019909116610100171660011790555b6000610c2b610add565b603380546001600160a01b0319166001600160a01b038316908117909155604051919250906000907f8be0079c531659141344cd1fd0a4f28419497f9722a3daafe3b4186f6b6457e0908290a3508015610b91576000805461ff001916905550565b60976020527f4532fa16f071d6234e30e1a1e69b9806f04095edf37a1ca7a25c8d6af7861cc080546001600160a01b039283166001600160a01b0319918216179091557f30a684095c937b5aa064dcf94f9903a7d808e3efb22d8389dbd43080ad4ed3d5805493909216928116831790915563025ceed960e61b6000527f4b5822151ea34b7c8d9e37c3e466bcecb631efe6a9f26a4a4054110a93dd316f80549091169091179055565b600054610100900460ff1680610d505750610d50610ae1565b80610d5e575060005460ff16155b610d995760405162461bcd60e51b815260040180806020018281038252602e815260200180613dbd602e913960400191505060405180910390fd5b600054610100900460ff16158015610dc4576000805460ff1961ff0019909116610100171660011790555b61016184905561016283905561016380546001600160a01b0319166001600160a01b038416179055801561096c576000805461ff001916905550505050565b600054610100900460ff1680610e1c5750610e1c610ae1565b80610e2a575060005460ff16155b610e655760405162461bcd60e51b815260040180806020018281038252602e815260200180613dbd602e913960400191505060405180910390fd5b600054610100900460ff16158015610e90576000805460ff1961ff0019909116610100171660011790555b610b7f6040518060400160405280600881526020016745786368616e676560c01b815250604051806040016040528060018152602001601960f91b81525061115e565b805160208201515160009190610ee89061121f565b606084015151610ef79061121f565b846080015160405160200180856001600160a01b031681526020018481526020018381526020018281526020019450505050506040516020818303038152906040528051906020012090505b919050565b610f5182611289565b610f5b8282611353565b5050565b600080610f6c8484611562565b915091506000610f7b85610ed3565b90506000610f8885610ed3565b600083815261012f602052604080822054838352908220549293509190610fb1898985856115fb565b90506000816020015111610fd75760405162461bcd60e51b815260040161084f90613b54565b600080610fe78989858e8e61168b565b8a5191935091506001600160e01b0319166355575f5d60e11b141561104057813410156110265760405162461bcd60e51b815260040161084f90613bd2565b8134111561103b5761103b33348490036117e8565b61108f565b87516001600160e01b0319166355575f5d60e11b141561108f578034101561107a5760405162461bcd60e51b815260040161084f90613bd2565b8034111561108f5761108f33348390036117e8565b6000611099610add565b90508b600001516001600160a01b0316816001600160a01b0316146110d45760208085015160008a815261012f909252604090912090870190555b8a516001600160a01b038281169116146110ff578351600088815261012f6020526040902090860190555b8b518b51602086015186516040517f6bd3176da6f0aab285937ad5ead5f53b9036f403cfad62f77e4e0f80b5a7e18d94611142948e948e94929391929091613a05565b60405180910390a1505050505050505050505050565b3b151590565b600054610100900460ff16806111775750611177610ae1565b80611185575060005460ff16155b6111c05760405162461bcd60e51b815260040180806020018281038252602e815260200180613dbd602e913960400191505060405180910390fd5b600054610100900460ff161580156111eb576000805460ff1961ff0019909116610100171660011790555b825160208085019190912083519184019190912060c99190915560ca55801561121a576000805461ff00191690555b505050565b8051602091820151805190830120604080517f9669e224ec6ad2f24a7c7d8aa1817412c93cd29c0282aaa396dacf7c912d49c7818601526001600160e01b031990931683820152606080840192909252805180840390920182526080909201909152805191012090565b60a0810151158061129d5750428160a00151105b6112ee576040805162461bcd60e51b815260206004820152601d60248201527f4f726465722073746172742076616c69646174696f6e206661696c6564000000604482015290519081900360640190fd5b60c081015115806113025750428160c00151115b610b91576040805162461bcd60e51b815260206004820152601b60248201527f4f7264657220656e642076616c69646174696f6e206661696c65640000000000604482015290519081900360640190fd5b81516001600160a01b0316611366610add565b6001600160a01b031614610f5b57600061137f83611880565b905061139783600001516001600160a01b0316611158565b156114e95782516320c13b0b60e01b906001600160a01b0316631626ba7e6113be84611970565b856040518363ffffffff1660e01b81526004018083815260200180602001828103825283818151815260200191508051906020019080838360005b838110156114115781810151838201526020016113f9565b50505050905090810190601f16801561143e5780820380516001836020036101000a031916815260200191505b50935050505060206040518083038186803b15801561145c57600080fd5b505afa158015611470573d6000803e3d6000fd5b505050506040513d602081101561148657600080fd5b50516001600160e01b031916146114e4576040805162461bcd60e51b815260206004820152601c60248201527f7369676e617475726520766572696669636174696f6e206572726f7200000000604482015290519081900360640190fd5b61121a565b82516001600160a01b03166115078361150184611970565b906119bc565b6001600160a01b03161461121a576040805162461bcd60e51b815260206004820152601c60248201527f7369676e617475726520766572696669636174696f6e206572726f7200000000604482015290519081900360640190fd5b61156a6131ba565b6115726131ba565b6020840151516060840151516115889190611a3e565b80519092506001600160e01b0319166115b35760405162461bcd60e51b815260040161084f90613b7d565b6060840151516020840151516115c99190611a3e565b80519091506001600160e01b0319166115f45760405162461bcd60e51b815260040161084f90613b7d565b9250929050565b6116036131d2565b6000806116108786611a7e565b915091506000806116218887611a7e565b9150915081831115611654576116498960200151602001518a60600151602001518484611ac2565b945050505050611683565b838111156116785761164984848a60200151602001518b6060015160200151611b48565b611649848483611bcd565b949350505050565b60008060006116a288600001518860000151611c49565b865160208801519094509250905060018160028111156116be57fe5b141561174b5785516116f49086868b8b7f1a0388dd7519a093630516a672419a2562e0e74deb98af068657dc265f0164c9611d1a565b925061174660405180604001604052808981526020018860200151815250856000015161172088611dc1565b7fb45a3ba14423c8f1b71cc094845ab56b5294dbe8d8e3ba53f3cdb63d59a4044b611e0e565b6117dd565b600281600281111561175957fe5b14156117dd57611791866020015185878a8c7fb45a3ba14423c8f1b71cc094845ab56b5294dbe8d8e3ba53f3cdb63d59a4044b611d1a565b604080518082019091528981528751602082015286519193506117dd916117b787611dc1565b7f1a0388dd7519a093630516a672419a2562e0e74deb98af068657dc265f0164c9611e0e565b509550959350505050565b6040516000906001600160a01b0384169083908381818185875af1925050503d8060008114611833576040519150601f19603f3d011682016040523d82523d6000602084013e611838565b606091505b505090508061121a576040805162461bcd60e51b815260206004820152600f60248201526e1d1c985b9cd9995c8819985a5b1959608a1b604482015290519081900360640190fd5b60007f9e8225ce4c1405fdec349fb6a9979f1009f1a40f74e8eece1be6c810f607f34382600001516118b584602001516121fa565b84604001516118c786606001516121fa565b86608001518760a001518860c001518960e001518a610100015180519060200120604051602001808b81526020018a6001600160a01b03168152602001898152602001886001600160a01b03168152602001878152602001868152602001858152602001848152602001836001600160e01b03191681526020018281526020019a5050505050505050505050604051602081830303815290604052805190602001209050919050565b600061197a61226a565b82604051602001808061190160f01b81525060020183815260200182815260200192505050604051602081830303815290604052805190602001209050919050565b60008151604114611a14576040805162461bcd60e51b815260206004820152601f60248201527f45434453413a20696e76616c6964207369676e6174757265206c656e67746800604482015290519081900360640190fd5b60208201516040830151606084015160001a611a32868285856122aa565b93505050505b92915050565b611a466131ba565b6000611a528484612428565b80519091506001600160e01b031916611a7757611a6f8385612428565b915050611a38565b9050611a38565b600080611a9c8385606001516020015161278990919063ffffffff16565b9050611ab9846020015160200151856060015160200151836127e6565b91509250929050565b611aca6131d2565b6000611ad78387876127e6565b905083811115611b2e576040805162461bcd60e51b815260206004820152601960248201527f66696c6c52696768743a20756e61626c6520746f2066696c6c00000000000000604482015290519081900360640190fd5b604080518082019091529283526020830152509392505050565b611b506131d2565b6000611b5d8585856127e6565b905085811115611bb4576040805162461bcd60e51b815260206004820152601860248201527f66696c6c4c6566743a20756e61626c6520746f2066696c6c0000000000000000604482015290519081900360640190fd5b5050604080518082019091529384525050602082015290565b611bd56131d2565b83821115611c2a576040805162461bcd60e51b815260206004820152601860248201527f66696c6c426f74683a20756e61626c6520746f2066696c6c0000000000000000604482015290519081900360640190fd5b60405180604001604052808581526020018481525090505b9392505050565b60006001600160e01b031983166355575f5d60e11b1415611c6c57506001611a38565b6001600160e01b031982166355575f5d60e11b1415611c8d57506002611a38565b6001600160e01b031983166322ba176160e21b1415611cae57506001611a38565b6001600160e01b031982166322ba176160e21b1415611ccf57506002611a38565b6001600160e01b0319831663025ceed960e61b1415611cf057506001611a38565b6001600160e01b0319821663025ceed960e61b1415611d1157506002611a38565b50600092915050565b6000611d328761016154611d2d8961284a565b612885565b90506000611d4682898960000151886128ef565b9050611d5a8585838b8b60000151886129e7565b9050611d6e85828a8a8b6000015188612a84565b9050611d8285828a898b6000015188612a84565b90508015611db657611db66040518060400160405280878152602001838152508860000151611db089611dc1565b86611e0e565b509695505050505050565b805160e08201516001600160e01b031916632611a13360e11b1415610f43576000611df0836101000151612aef565b80519091506001600160a01b031615611e0857805191505b50919050565b8351516001600160e01b0319166355575f5d60e11b1415611eaf576000826001600160a01b03168560200151604051611e46906139e5565b60006040518083038185875af1925050503d8060008114611e83576040519150601f19603f3d011682016040523d82523d6000602084013e611e88565b606091505b5050905080611ea95760405162461bcd60e51b815260040161084f90613ba9565b506121b7565b8351516001600160e01b0319166322ba176160e21b1415611f8d576000846000015160200151806020019051810190611ee891906134c7565b6322ba176160e21b600052609760209081527f4532fa16f071d6234e30e1a1e69b9806f04095edf37a1ca7a25c8d6af7861cc0549087015160405163776062c360e01b81529293506001600160a01b039091169163776062c391611f559185918991899190600401613a8f565b600060405180830381600087803b158015611f6f57600080fd5b505af1158015611f83573d6000803e3d6000fd5b50505050506121b7565b8351516001600160e01b0319166339d690a360e11b141561208d57600080856000015160200151806020019051810190611fc791906134e3565b915091508560200151600114611fef5760405162461bcd60e51b815260040161084f90613af0565b6339d690a360e11b60005260976020527f30a684095c937b5aa064dcf94f9903a7d808e3efb22d8389dbd43080ad4ed3d554604051637b84dc8360e11b81526001600160a01b039091169063f709b90690612054908590899089908790600401613a8f565b600060405180830381600087803b15801561206e57600080fd5b505af1158015612082573d6000803e3d6000fd5b5050505050506121b7565b8351516001600160e01b03191663025ceed960e61b1415612136576000808560000151602001518060200190518101906120c791906134e3565b63025ceed960e61b600052609760209081527f4b5822151ea34b7c8d9e37c3e466bcecb631efe6a9f26a4a4054110a93dd316f5490890151604051639c1c2ee960e01b81529395509193506001600160a01b031691639c1c2ee9916120549186918a918a918891600401613a4c565b8351516001600160e01b031916600090815260976020526040908190205490516354bc0cf160e01b81526001600160a01b03909116906354bc0cf19061218490879087908790600401613c44565b600060405180830381600087803b15801561219e57600080fd5b505af11580156121b2573d6000803e3d6000fd5b505050505b7f9fe8adddc6697ce223994bafe7de263e59ec2be255a62c89890e32a32b17ae8a848484846040516121ec9493929190613c77565b60405180910390a150505050565b60007f8544d62f5b187ba3785617f70992fcc46e97a1831ab900d9be9b5db69f4acb1c61222a836000015161121f565b8360200151604051602001808481526020018381526020018281526020019350505050604051602081830303815290604052805190602001209050919050565b60006122a57f8b73c3c69bb8fe3d512ecc4cf759cc79239f7b179b0ffacaa9a75d522b39400f612298612b0b565b6122a0612b11565b612b17565b905090565b60007f7fffffffffffffffffffffffffffffff5d576e7357a4501ddfe92f46681b20a082111561230b5760405162461bcd60e51b8152600401808060200182810382526022815260200180613d9b6022913960400191505060405180910390fd5b8360ff16601b148061232057508360ff16601c145b61235b5760405162461bcd60e51b8152600401808060200182810382526022815260200180613deb6022913960400191505060405180910390fd5b600060018686868660405160008152602001604052604051808581526020018460ff1681526020018381526020018281526020019450505050506020604051602081039080840390855afa1580156123b7573d6000803e3d6000fd5b5050604051601f1901519150506001600160a01b03811661241f576040805162461bcd60e51b815260206004820152601860248201527f45434453413a20696e76616c6964207369676e61747572650000000000000000604482015290519081900360640190fd5b95945050505050565b6124306131ba565b825182516001600160e01b031982166355575f5d60e11b141561249b576001600160e01b031981166355575f5d60e11b1415612470578492505050611a38565b5050604080518082018252600080825282516020818101909452908152918101919091529050611a38565b6001600160e01b031982166322ba176160e21b1415612558576001600160e01b031981166322ba176160e21b141561247057600085602001518060200190518101906124e791906134c7565b90506000856020015180602001905181019061250391906134c7565b9050806001600160a01b0316826001600160a01b0316141561252b5786945050505050611a38565b50505050604080518082018252600080825282516020818101909452908152918101919091529050611a38565b6001600160e01b031982166339d690a360e11b141561262a576001600160e01b031981166339d690a360e11b14156124705760008086602001518060200190518101906125a591906134e3565b9150915060008087602001518060200190518101906125c491906134e3565b91509150816001600160a01b0316846001600160a01b03161480156125e857508083145b156125fb57889650505050505050611a38565b505050505050604080518082018252600080825282516020818101909452908152918101919091529050611a38565b6001600160e01b0319821663025ceed960e61b1415612677576001600160e01b0319811663025ceed960e61b14156124705760008086602001518060200190518101906125a591906134e3565b6001600160e01b031982166000908152606560205260409020546001600160a01b0316801561272c576040516306d3f7cb60e41b81526001600160a01b03821690636d3f7cb0906126ce9089908990600401613c1f565b60006040518083038186803b1580156126e657600080fd5b505afa1580156126fa573d6000803e3d6000fd5b505050506040513d6000823e601f3d908101601f191682016040526127229190810190613748565b9350505050611a38565b6001600160e01b03198381169083161415612771576020808701518051908201208682015180519201919091208082141561276e578795505050505050611a38565b50505b60405162461bcd60e51b815260040161084f90613ab9565b6000828211156127e0576040805162461bcd60e51b815260206004820152601e60248201527f536166654d6174683a207375627472616374696f6e206f766572666c6f770000604482015290519081900360640190fd5b50900390565b60006127f3848484612b79565b15612836576040805162461bcd60e51b815260206004820152600e60248201526d3937bab73234b7339032b93937b960911b604482015290519081900360640190fd5b611683836128448685612c08565b90612c61565b60e08101516060906001600160e01b031916632611a13360e11b1415610f4357600061287a836101000151612aef565b602001519392505050565b600061289b6128948585612cc8565b8590612cda565b905060005b82518110156128e7576128dd6128d68483815181106128bb57fe5b60200260200101516020015187612cc890919063ffffffff16565b8390612cda565b91506001016128a0565b509392505050565b600080600061291787876129126101625461016154612cda90919063ffffffff16565b612d34565b909250905080156129dd5783516000906001600160e01b0319166322ba176160e21b141561295a57846020015180602001905181019061295791906134c7565b90505b84516001600160e01b03191663025ceed960e61b1415612993576000856020015180602001905181019061298e91906134e3565b509150505b6129db604051806040016040528087815260200184815250876129b584612d56565b7fd60865c0def5016cd61c108b3e743b8ea8c6187106115a8d32d91bcc37697cd3611e0e565b505b5095945050505050565b6000806129f387612d95565b905085915060005b8151811015612a7857600080612a298589868681518110612a1857fe5b602002602001015160200151612d34565b90955085925090508015612a6e57612a6e60405180604001604052808d81526020018381525088868681518110612a5c57fe5b60200260200101516000015189611e0e565b50506001016129fb565b50509695505050505050565b846000612a908561284a565b905060005b8151811015612a7857600080612ab2858a868681518110612a1857fe5b90955085925090508015612ae557612ae560405180604001604052808d81526020018381525088868681518110612a5c57fe5b5050600101612a95565b612af76131ba565b81806020019051810190611a38919061380f565b60c95490565b60ca5490565b6000838383612b2461046f565b3060405160200180868152602001858152602001848152602001838152602001826001600160a01b03168152602001955050505050506040516020818303038152906040528051906020012090509392505050565b600082612bc0576040805162461bcd60e51b815260206004820152601060248201526f6469766973696f6e206279207a65726f60801b604482015290519081900360640190fd5b811580612bcb575083155b15612bd857506000611c42565b60008380612be257fe5b8584099050612bf18584612c08565b612bfd826103e8612c08565b101595945050505050565b600082612c1757506000611a38565b82820282848281612c2457fe5b0414611c425760405162461bcd60e51b8152600401808060200182810382526021815260200180613e0d6021913960400191505060405180910390fd5b6000808211612cb7576040805162461bcd60e51b815260206004820152601a60248201527f536166654d6174683a206469766973696f6e206279207a65726f000000000000604482015290519081900360640190fd5b818381612cc057fe5b049392505050565b6000611c426127106128448585612c08565b600082820183811015611c42576040805162461bcd60e51b815260206004820152601b60248201527f536166654d6174683a206164646974696f6e206f766572666c6f770000000000604482015290519081900360640190fd5b600080612d4a85612d458686612cc8565b61319b565b91509150935093915050565b6001600160a01b03808216600090815261016460205260408120549091168015612d81579050610f43565b5050610163546001600160a01b0316919050565b80516060906001600160e01b03191663025ceed960e61b14801590612dcc575081516001600160e01b0319166339d690a360e11b14155b15612dd657610f43565b6000808360200151806020019051810190612df191906134e3565b6040516301ffc9a760e01b815291935091506001600160a01b038316906301ffc9a790612e2990631131d2f360e21b90600401613a37565b60206040518083038186803b158015612e4157600080fd5b505afa158015612e55573d6000803e3d6000fd5b505050506040513d601f19601f82011682018060405250810190612e799190613695565b15612f0b57604051635d9dd7eb60e11b815282906001600160a01b0382169063bb3bafd690612eac9085906004016139fc565b60006040518083038186803b158015612ec457600080fd5b505afa925050508015612ef957506040513d6000823e601f3d908101601f19168201604052612ef691908101906135e0565b60015b612f0257612f05565b93505b50613194565b6040516301ffc9a760e01b81526001600160a01b038316906301ffc9a790612f3e90632dde656160e21b90600401613a37565b60206040518083038186803b158015612f5657600080fd5b505afa158015612f6a573d6000803e3d6000fd5b505050506040513d601f19601f82011682018060405250810190612f8e9190613695565b156131945760405163b9c4d9fb60e01b815282906060906001600160a01b0383169063b9c4d9fb90612fc49086906004016139fc565b60006040518083038186803b158015612fdc57600080fd5b505afa92505050801561301157506040513d6000823e601f3d908101601f1916820160405261300e9190810190613548565b60015b61301e5750505050610f43565b9050604051630ebd4c7f60e01b81526060906001600160a01b03841690630ebd4c7f9061304f9087906004016139fc565b60006040518083038186803b15801561306757600080fd5b505afa92505050801561309c57506040513d6000823e601f3d908101601f191682016040526130999190810190613612565b60015b6130aa575050505050610f43565b905081518151146130bf575050505050610f43565b80516001600160401b03811180156130d657600080fd5b5060405190808252806020026020018201604052801561311057816020015b6130fd6131ec565b8152602001906001900390816130f55790505b50955060005b815181101561318f5781818151811061312b57fe5b602002602001015187828151811061313f57fe5b6020026020010151602001818152505082818151811061315b57fe5b602002602001015187828151811061316f57fe5b60209081029190910101516001600160a01b039091169052600101613116565b505050505b5050919050565b600080828411156131b1575050808203816115f4565b50600093915050565b60408051808201909152600081526060602082015290565b604051806040016040528060008152602001600081525090565b604080518082019091526000808252602082015290565b8035610f4381613d49565b600082601f83011261321e578081fd5b8151602061323361322e83613cdf565b613cbc565b82815281810190858301604080860288018501891015613251578687fd5b865b868110156132ac5781838b031215613269578788fd5b81518281018181106001600160401b038211171561328357fe5b8352835161329081613d49565b8152838701518782015285529385019391810191600101613253565b509198975050505050505050565b8035610f4381613d5e565b600082601f8301126132d5578081fd5b81356132e361322e82613cfc565b8181528460208386010111156132f7578283fd5b816020850160208301379081016020019190915292915050565b60006040808385031215613323578182fd5b80518181016001600160401b03828210818311171561333e57fe5b81845282945085358181111561335357600080fd5b860180880385131561336457600080fd5b60808401838110838211171561337657fe5b90945283359361338585613d5e565b9382526020840135938185111561339b57600080fd5b6133a7888683016132c5565b60608501525050815260209384013593019290925292915050565b60006101208083850312156133d5578182fd5b6133de81613cbc565b9150506133ea82613203565b815260208201356001600160401b038082111561340657600080fd5b61341285838601613311565b602084015261342360408501613203565b6040840152606084013591508082111561343c57600080fd5b61344885838601613311565b60608401526080840135608084015260a084013560a084015260c084013560c084015261347760e085016132ba565b60e08401526101009150818401358181111561349257600080fd5b61349e868287016132c5565b8385015250505092915050565b6000602082840312156134bc578081fd5b8135611c4281613d49565b6000602082840312156134d8578081fd5b8151611c4281613d49565b600080604083850312156134f5578081fd5b825161350081613d49565b6020939093015192949293505050565b60008060408385031215613522578182fd5b823561352d81613d49565b9150602083013561353d81613d49565b809150509250929050565b6000602080838503121561355a578182fd5b82516001600160401b0381111561356f578283fd5b8301601f8101851361357f578283fd5b805161358d61322e82613cdf565b81815283810190838501858402850186018910156135a9578687fd5b8694505b838510156135d45780516135c081613d49565b8352600194909401939185019185016135ad565b50979650505050505050565b6000602082840312156135f1578081fd5b81516001600160401b03811115613606578182fd5b6116838482850161320e565b60006020808385031215613624578182fd5b82516001600160401b03811115613639578283fd5b8301601f81018513613649578283fd5b805161365761322e82613cdf565b8181528381019083850185840285018601891015613673578687fd5b8694505b838510156135d4578051835260019490940193918501918501613677565b6000602082840312156136a6578081fd5b81518015158114611c42578182fd5b6000602082840312156136c6578081fd5b5035919050565b600080604083850312156136df578182fd5b823561352d81613d5e565b600080600080600060a08688031215613701578081fd5b853561370c81613d49565b9450602086013561371c81613d49565b93506040860135925060608601359150608086013561373a81613d49565b809150509295509295909350565b6000602080838503121561375a578182fd5b82516001600160401b0380821115613770578384fd5b9084019060408287031215613783578384fd5b60405160408101818110838211171561379857fe5b60405282516137a681613d5e565b815282840151828111156137b8578586fd5b80840193505086601f8401126137cc578485fd5b825191506137dc61322e83613cfc565b82815287858486010111156137ef578586fd5b6137fe83868301878701613d1d565b938101939093525090949350505050565b600060208284031215613820578081fd5b81516001600160401b0380821115613836578283fd5b9083019060408286031215613849578283fd5b60405160408101818110838211171561385e57fe5b604052825161386c81613d49565b815260208301518281111561387f578485fd5b61388b8782860161320e565b60208301525095945050505050565b6000602082840312156138ab578081fd5b81356001600160401b038111156138c0578182fd5b611683848285016133c2565b600080600080608085870312156138e1578182fd5b84356001600160401b03808211156138f7578384fd5b613903888389016133c2565b95506020870135915080821115613918578384fd5b613924888389016132c5565b94506040870135915080821115613939578384fd5b613945888389016133c2565b9350606087013591508082111561395a578283fd5b50613967878288016132c5565b91505092959194509250565b600063ffffffff60e01b825116835260208201516040602085015280518060408601526139a7816060870160208501613d1d565b601f01601f1916939093016060019392505050565b60008151604084526139d16040850182613973565b602093840151949093019390935250919050565b90565b6001600160a01b0391909116815260200190565b90815260200190565b95865260208601949094526001600160a01b03928316604086015291166060840152608083015260a082015260c00190565b6001600160e01b031991909116815260200190565b6001600160a01b03958616815293851660208501529190931660408301526060820192909252608081019190915260c060a0820181905260009082015260e00190565b6001600160a01b039485168152928416602084015292166040820152606081019190915260800190565b60208082526017908201527f6e6f7420666f756e64204941737365744d617463686572000000000000000000604082015260600190565b60208082526013908201527232b9319b99189030b6b7bab73a1032b93937b960691b604082015260600190565b60208082526019908201527f74616b657220766572696669636174696f6e206661696c656400000000000000604082015260600190565b6020808252600f908201526e1b9bdd1a1a5b99c81d1bc8199a5b1b608a1b604082015260600190565b6020808252601290820152710c2e6e6cae8e640c8dedc4ee840dac2e8c6d60731b604082015260600190565b6020808252600f908201526e1d1c985b9cd9995c8819985a5b1959608a1b604082015260600190565b6020808252600e908201526d0dcdee840cadcdeeaced040cae8d60931b604082015260600190565b6020808252600b908201526a3737ba10309036b0b5b2b960a91b604082015260600190565b600060408252613c326040830185613973565b828103602084015261241f8185613973565b600060608252613c5760608301866139bc565b6001600160a01b0394851660208401529290931660409091015292915050565b600060808252613c8a60808301876139bc565b6001600160a01b0395861660208401529390941660408201526001600160e01b03199190911660609091015292915050565b6040518181016001600160401b0381118282101715613cd757fe5b604052919050565b60006001600160401b03821115613cf257fe5b5060209081020190565b60006001600160401b03821115613d0f57fe5b50601f01601f191660200190565b60005b83811015613d38578181015183820152602001613d20565b8381111561096c5750506000910152565b6001600160a01b0381168114610b9157600080fd5b6001600160e01b031981168114610b9157600080fdfe4f776e61626c653a206e6577206f776e657220697320746865207a65726f206164647265737345434453413a20696e76616c6964207369676e6174757265202773272076616c7565496e697469616c697a61626c653a20636f6e747261637420697320616c726561647920696e697469616c697a656445434453413a20696e76616c6964207369676e6174757265202776272076616c7565536166654d6174683a206d756c7469706c69636174696f6e206f766572666c6f774f776e61626c653a2063616c6c6572206973206e6f7420746865206f776e6572a2646970667358221220c50ff476c9f682dbee782320a4bb8d6b18a939ddf21639d115226913c42ea14164736f6c63430007060033",
  "immutableReferences": {},
  "source": "// SPDX-License-Identifier: MIT\n\npragma solidity >=0.6.2 <0.8.0;\npragma abicoder v2;\n\nimport \"./ExchangeV2Core.sol\";\nimport \"./RaribleTransferManager.sol\";\n\ncontract ExchangeV2 is ExchangeV2Core, RaribleTransferManager {\n    function __ExchangeV2_init(\n        TransferProxy _transferProxy,\n        ERC20TransferProxy _erc20TransferProxy,\n        uint newBuyerFee,\n        uint newSellerFee,\n        address newCommunityWallet\n    ) external initializer {\n        __Context_init_unchained();\n        __Ownable_init_unchained();\n        __TransferExecutor_init_unchained(_transferProxy, _erc20TransferProxy);\n        __RaribleTransferManager_init_unchained(newBuyerFee, newSellerFee, newCommunityWallet);\n        __OrderValidator_init_unchained();\n    }\n}\n",
  "sourcePath": "/home/quadro/Projects/tokenplace/interfaces/exchange-v2/contracts/exchange/v2/ExchangeV2.sol",
  "compiler": {
    "name": "solc",
    "version": "0.7.6+commit.7338295f.Emscripten.clang"
  },
  "schemaVersion": "3.3.2",
  "updatedAt": "2021-03-18T10:24:19.137Z",
  "devdoc": {
    "kind": "dev",
    "methods": {
      "owner()": {
        "details": "Returns the address of the current owner."
      },
      "renounceOwnership()": {
        "details": "Leaves the contract without owner. It will not be possible to call `onlyOwner` functions anymore. Can only be called by the current owner. NOTE: Renouncing ownership will leave the contract without an owner, thereby removing any functionality that is only available to the owner."
      },
      "transferOwnership(address)": {
        "details": "Transfers ownership of the contract to a new account (`newOwner`). Can only be called by the current owner."
      }
    },
    "version": 1
  },
  "userdoc": {
    "kind": "user",
    "methods": {},
    "version": 1
  }
}