{
  "contractName": "ExchangeV2",
  "abi": [
    {
      "anonymous": false,
      "inputs": [
        {
          "indexed": false,
          "internalType": "bytes32",
          "name": "hash",
          "type": "bytes32"
        }
      ],
      "name": "Cancel",
      "type": "event"
    },
    {
      "anonymous": false,
      "inputs": [
        {
          "indexed": false,
          "internalType": "bytes32",
          "name": "leftHash",
          "type": "bytes32"
        },
        {
          "indexed": false,
          "internalType": "bytes32",
          "name": "rightHash",
          "type": "bytes32"
        },
        {
          "indexed": false,
          "internalType": "address",
          "name": "leftMaker",
          "type": "address"
        },
        {
          "indexed": false,
          "internalType": "address",
          "name": "rightMaker",
          "type": "address"
        },
        {
          "indexed": false,
          "internalType": "uint256",
          "name": "newLeftFill",
          "type": "uint256"
        },
        {
          "indexed": false,
          "internalType": "uint256",
          "name": "newRightFill",
          "type": "uint256"
        }
      ],
      "name": "Match",
      "type": "event"
    },
    {
      "anonymous": false,
      "inputs": [
        {
          "indexed": true,
          "internalType": "bytes4",
          "name": "assetType",
          "type": "bytes4"
        },
        {
          "indexed": false,
          "internalType": "address",
          "name": "matcher",
          "type": "address"
        }
      ],
      "name": "MatcherChange",
      "type": "event"
    },
    {
      "anonymous": false,
      "inputs": [
        {
          "indexed": true,
          "internalType": "address",
          "name": "previousOwner",
          "type": "address"
        },
        {
          "indexed": true,
          "internalType": "address",
          "name": "newOwner",
          "type": "address"
        }
      ],
      "name": "OwnershipTransferred",
      "type": "event"
    },
    {
      "anonymous": false,
      "inputs": [
        {
          "indexed": true,
          "internalType": "bytes4",
          "name": "assetType",
          "type": "bytes4"
        },
        {
          "indexed": false,
          "internalType": "address",
          "name": "proxy",
          "type": "address"
        }
      ],
      "name": "ProxyChange",
      "type": "event"
    },
    {
      "anonymous": false,
      "inputs": [
        {
          "components": [
            {
              "components": [
                {
                  "internalType": "bytes4",
                  "name": "assetClass",
                  "type": "bytes4"
                },
                {
                  "internalType": "bytes",
                  "name": "data",
                  "type": "bytes"
                }
              ],
              "internalType": "struct LibAsset.AssetType",
              "name": "assetType",
              "type": "tuple"
            },
            {
              "internalType": "uint256",
              "name": "value",
              "type": "uint256"
            }
          ],
          "indexed": false,
          "internalType": "struct LibAsset.Asset",
          "name": "asset",
          "type": "tuple"
        },
        {
          "indexed": false,
          "internalType": "address",
          "name": "from",
          "type": "address"
        },
        {
          "indexed": false,
          "internalType": "address",
          "name": "to",
          "type": "address"
        },
        {
          "indexed": false,
          "internalType": "bytes4",
          "name": "transferDirection",
          "type": "bytes4"
        },
        {
          "indexed": false,
          "internalType": "bytes4",
          "name": "transferType",
          "type": "bytes4"
        }
      ],
      "name": "Transfer",
      "type": "event"
    },
    {
      "inputs": [
        {
          "components": [
            {
              "internalType": "address",
              "name": "maker",
              "type": "address"
            },
            {
              "components": [
                {
                  "components": [
                    {
                      "internalType": "bytes4",
                      "name": "assetClass",
                      "type": "bytes4"
                    },
                    {
                      "internalType": "bytes",
                      "name": "data",
                      "type": "bytes"
                    }
                  ],
                  "internalType": "struct LibAsset.AssetType",
                  "name": "assetType",
                  "type": "tuple"
                },
                {
                  "internalType": "uint256",
                  "name": "value",
                  "type": "uint256"
                }
              ],
              "internalType": "struct LibAsset.Asset",
              "name": "makeAsset",
              "type": "tuple"
            },
            {
              "internalType": "address",
              "name": "taker",
              "type": "address"
            },
            {
              "components": [
                {
                  "components": [
                    {
                      "internalType": "bytes4",
                      "name": "assetClass",
                      "type": "bytes4"
                    },
                    {
                      "internalType": "bytes",
                      "name": "data",
                      "type": "bytes"
                    }
                  ],
                  "internalType": "struct LibAsset.AssetType",
                  "name": "assetType",
                  "type": "tuple"
                },
                {
                  "internalType": "uint256",
                  "name": "value",
                  "type": "uint256"
                }
              ],
              "internalType": "struct LibAsset.Asset",
              "name": "takeAsset",
              "type": "tuple"
            },
            {
              "internalType": "uint256",
              "name": "salt",
              "type": "uint256"
            },
            {
              "internalType": "uint256",
              "name": "start",
              "type": "uint256"
            },
            {
              "internalType": "uint256",
              "name": "end",
              "type": "uint256"
            },
            {
              "internalType": "bytes4",
              "name": "dataType",
              "type": "bytes4"
            },
            {
              "internalType": "bytes",
              "name": "data",
              "type": "bytes"
            }
          ],
          "internalType": "struct LibOrder.Order",
          "name": "order",
          "type": "tuple"
        }
      ],
      "name": "cancel",
      "outputs": [],
      "stateMutability": "nonpayable",
      "type": "function"
    },
    {
      "inputs": [],
      "name": "defaultFeeReceiver",
      "outputs": [
        {
          "internalType": "address",
          "name": "",
          "type": "address"
        }
      ],
      "stateMutability": "view",
      "type": "function",
      "constant": true
    },
    {
      "inputs": [
        {
          "internalType": "address",
          "name": "",
          "type": "address"
        }
      ],
      "name": "feeReceivers",
      "outputs": [
        {
          "internalType": "address",
          "name": "",
          "type": "address"
        }
      ],
      "stateMutability": "view",
      "type": "function",
      "constant": true
    },
    {
      "inputs": [
        {
          "internalType": "bytes32",
          "name": "",
          "type": "bytes32"
        }
      ],
      "name": "fills",
      "outputs": [
        {
          "internalType": "uint256",
          "name": "",
          "type": "uint256"
        }
      ],
      "stateMutability": "view",
      "type": "function",
      "constant": true
    },
    {
      "inputs": [
        {
          "components": [
            {
              "internalType": "address",
              "name": "maker",
              "type": "address"
            },
            {
              "components": [
                {
                  "components": [
                    {
                      "internalType": "bytes4",
                      "name": "assetClass",
                      "type": "bytes4"
                    },
                    {
                      "internalType": "bytes",
                      "name": "data",
                      "type": "bytes"
                    }
                  ],
                  "internalType": "struct LibAsset.AssetType",
                  "name": "assetType",
                  "type": "tuple"
                },
                {
                  "internalType": "uint256",
                  "name": "value",
                  "type": "uint256"
                }
              ],
              "internalType": "struct LibAsset.Asset",
              "name": "makeAsset",
              "type": "tuple"
            },
            {
              "internalType": "address",
              "name": "taker",
              "type": "address"
            },
            {
              "components": [
                {
                  "components": [
                    {
                      "internalType": "bytes4",
                      "name": "assetClass",
                      "type": "bytes4"
                    },
                    {
                      "internalType": "bytes",
                      "name": "data",
                      "type": "bytes"
                    }
                  ],
                  "internalType": "struct LibAsset.AssetType",
                  "name": "assetType",
                  "type": "tuple"
                },
                {
                  "internalType": "uint256",
                  "name": "value",
                  "type": "uint256"
                }
              ],
              "internalType": "struct LibAsset.Asset",
              "name": "takeAsset",
              "type": "tuple"
            },
            {
              "internalType": "uint256",
              "name": "salt",
              "type": "uint256"
            },
            {
              "internalType": "uint256",
              "name": "start",
              "type": "uint256"
            },
            {
              "internalType": "uint256",
              "name": "end",
              "type": "uint256"
            },
            {
              "internalType": "bytes4",
              "name": "dataType",
              "type": "bytes4"
            },
            {
              "internalType": "bytes",
              "name": "data",
              "type": "bytes"
            }
          ],
          "internalType": "struct LibOrder.Order",
          "name": "orderLeft",
          "type": "tuple"
        },
        {
          "internalType": "bytes",
          "name": "signatureLeft",
          "type": "bytes"
        },
        {
          "components": [
            {
              "internalType": "address",
              "name": "maker",
              "type": "address"
            },
            {
              "components": [
                {
                  "components": [
                    {
                      "internalType": "bytes4",
                      "name": "assetClass",
                      "type": "bytes4"
                    },
                    {
                      "internalType": "bytes",
                      "name": "data",
                      "type": "bytes"
                    }
                  ],
                  "internalType": "struct LibAsset.AssetType",
                  "name": "assetType",
                  "type": "tuple"
                },
                {
                  "internalType": "uint256",
                  "name": "value",
                  "type": "uint256"
                }
              ],
              "internalType": "struct LibAsset.Asset",
              "name": "makeAsset",
              "type": "tuple"
            },
            {
              "internalType": "address",
              "name": "taker",
              "type": "address"
            },
            {
              "components": [
                {
                  "components": [
                    {
                      "internalType": "bytes4",
                      "name": "assetClass",
                      "type": "bytes4"
                    },
                    {
                      "internalType": "bytes",
                      "name": "data",
                      "type": "bytes"
                    }
                  ],
                  "internalType": "struct LibAsset.AssetType",
                  "name": "assetType",
                  "type": "tuple"
                },
                {
                  "internalType": "uint256",
                  "name": "value",
                  "type": "uint256"
                }
              ],
              "internalType": "struct LibAsset.Asset",
              "name": "takeAsset",
              "type": "tuple"
            },
            {
              "internalType": "uint256",
              "name": "salt",
              "type": "uint256"
            },
            {
              "internalType": "uint256",
              "name": "start",
              "type": "uint256"
            },
            {
              "internalType": "uint256",
              "name": "end",
              "type": "uint256"
            },
            {
              "internalType": "bytes4",
              "name": "dataType",
              "type": "bytes4"
            },
            {
              "internalType": "bytes",
              "name": "data",
              "type": "bytes"
            }
          ],
          "internalType": "struct LibOrder.Order",
          "name": "orderRight",
          "type": "tuple"
        },
        {
          "internalType": "bytes",
          "name": "signatureRight",
          "type": "bytes"
        }
      ],
      "name": "matchOrders",
      "outputs": [],
      "stateMutability": "payable",
      "type": "function",
      "payable": true
    },
    {
      "inputs": [],
      "name": "owner",
      "outputs": [
        {
          "internalType": "address",
          "name": "",
          "type": "address"
        }
      ],
      "stateMutability": "view",
      "type": "function",
      "constant": true
    },
    {
      "inputs": [],
      "name": "protocolFee",
      "outputs": [
        {
          "internalType": "uint256",
          "name": "",
          "type": "uint256"
        }
      ],
      "stateMutability": "view",
      "type": "function",
      "constant": true
    },
    {
      "inputs": [],
      "name": "renounceOwnership",
      "outputs": [],
      "stateMutability": "nonpayable",
      "type": "function"
    },
    {
      "inputs": [],
      "name": "royaltiesRegistry",
      "outputs": [
        {
          "internalType": "contract IRoyaltiesProvider",
          "name": "",
          "type": "address"
        }
      ],
      "stateMutability": "view",
      "type": "function",
      "constant": true
    },
    {
      "inputs": [
        {
          "internalType": "bytes4",
          "name": "assetType",
          "type": "bytes4"
        },
        {
          "internalType": "address",
          "name": "matcher",
          "type": "address"
        }
      ],
      "name": "setAssetMatcher",
      "outputs": [],
      "stateMutability": "nonpayable",
      "type": "function"
    },
    {
      "inputs": [
        {
          "internalType": "address payable",
          "name": "newDefaultFeeReceiver",
          "type": "address"
        }
      ],
      "name": "setDefaultFeeReceiver",
      "outputs": [],
      "stateMutability": "nonpayable",
      "type": "function"
    },
    {
      "inputs": [
        {
          "internalType": "address",
          "name": "token",
          "type": "address"
        },
        {
          "internalType": "address",
          "name": "wallet",
          "type": "address"
        }
      ],
      "name": "setFeeReceiver",
      "outputs": [],
      "stateMutability": "nonpayable",
      "type": "function"
    },
    {
      "inputs": [
        {
          "internalType": "uint256",
          "name": "newProtocolFee",
          "type": "uint256"
        }
      ],
      "name": "setProtocolFee",
      "outputs": [],
      "stateMutability": "nonpayable",
      "type": "function"
    },
    {
      "inputs": [
        {
          "internalType": "contract IRoyaltiesProvider",
          "name": "newRoyaltiesRegistry",
          "type": "address"
        }
      ],
      "name": "setRoyaltiesRegistry",
      "outputs": [],
      "stateMutability": "nonpayable",
      "type": "function"
    },
    {
      "inputs": [
        {
          "internalType": "bytes4",
          "name": "assetType",
          "type": "bytes4"
        },
        {
          "internalType": "address",
          "name": "proxy",
          "type": "address"
        }
      ],
      "name": "setTransferProxy",
      "outputs": [],
      "stateMutability": "nonpayable",
      "type": "function"
    },
    {
      "inputs": [
        {
          "internalType": "address",
          "name": "newOwner",
          "type": "address"
        }
      ],
      "name": "transferOwnership",
      "outputs": [],
      "stateMutability": "nonpayable",
      "type": "function"
    },
    {
      "inputs": [
        {
          "internalType": "contract INftTransferProxy",
          "name": "_transferProxy",
          "type": "address"
        },
        {
          "internalType": "contract IERC20TransferProxy",
          "name": "_erc20TransferProxy",
          "type": "address"
        },
        {
          "internalType": "uint256",
          "name": "newProtocolFee",
          "type": "uint256"
        },
        {
          "internalType": "address",
          "name": "newDefaultFeeReceiver",
          "type": "address"
        },
        {
          "internalType": "contract IRoyaltiesProvider",
          "name": "newRoyaltiesProvider",
          "type": "address"
        }
      ],
      "name": "__ExchangeV2_init",
      "outputs": [],
      "stateMutability": "nonpayable",
      "type": "function"
    }
  ],
  "bytecode": "0x608060405234801561001057600080fd5b50613d0d806100206000396000f3fe6080604052600436106100fe5760003560e01c8063715018a611610095578063b39deb4611610064578063b39deb4614610271578063e2864fe314610291578063e66db25e146102b1578063e99a3f80146102d1578063f2fde38b146102e4576100fe565b8063715018a614610212578063787dce3d146102275780638da5cb5b14610247578063b0e21e8a1461025c576100fe565b806330c642f1116100d157806330c642f1146101a85780633abf6fd4146101c85780633be89922146101dd5780636d8f0694146101fd576100fe565b806302097ab1146101035780631372a625146101395780631cdfe3d81461015b57806320158c441461017b575b600080fd5b34801561010f57600080fd5b5061012361011e3660046133bc565b610304565b60405161013091906137d9565b60405180910390f35b34801561014557600080fd5b506101596101543660046134c1565b610320565b005b34801561016757600080fd5b506101596101763660046133bc565b6103f4565b34801561018757600080fd5b5061019b61019636600461348c565b610479565b6040516101309190613806565b3480156101b457600080fd5b506101596101c33660046134a4565b61048c565b3480156101d457600080fd5b5061012361055c565b3480156101e957600080fd5b506101596101f83660046133bc565b61056c565b34801561020957600080fd5b506101236105f1565b34801561021e57600080fd5b50610159610601565b34801561023357600080fd5b5061015961024236600461348c565b6106ad565b34801561025357600080fd5b50610123610715565b34801561026857600080fd5b5061019b610724565b34801561027d57600080fd5b5061015961028c3660046134a4565b61072b565b34801561029d57600080fd5b506101596102ac36600461368c565b6107ef565b3480156102bd57600080fd5b506101596102cc366004613421565b61088f565b6101596102df3660046136bf565b610920565b3480156102f057600080fd5b506101596102ff3660046133bc565b6109dc565b610164602052600090815260409020546001600160a01b031681565b600054610100900460ff16806103395750610339610adf565b80610347575060005460ff16155b6103825760405162461bcd60e51b815260040180806020018281038252602e815260200180613c47602e913960400191505060405180910390fd5b600054610100900460ff161580156103ad576000805460ff1961ff0019909116610100171660011790555b6103b5610af0565b6103bd610b92565b6103c78686610c8b565b6103d2848484610d35565b6103da610e11565b80156103ec576000805461ff00191690555b505050505050565b6103fc610ee1565b6001600160a01b031661040d610715565b6001600160a01b031614610456576040805162461bcd60e51b81526020600482018190526024820152600080516020613cb8833981519152604482015290519081900360640190fd5b61016380546001600160a01b0319166001600160a01b0392909216919091179055565b61012f6020526000908152604090205481565b610494610ee1565b6001600160a01b03166104a5610715565b6001600160a01b0316146104ee576040805162461bcd60e51b81526020600482018190526024820152600080516020613cb8833981519152604482015290519081900360640190fd5b6001600160e01b031982166000818152609760205260409081902080546001600160a01b0319166001600160a01b038516179055517f4b5aced933c0c9a88aeac3f0b3b72c5aaf75df8ebaf53225773248c4c3153593906105509084906137d9565b60405180910390a25050565b610163546001600160a01b031681565b610574610ee1565b6001600160a01b0316610585610715565b6001600160a01b0316146105ce576040805162461bcd60e51b81526020600482018190526024820152600080516020613cb8833981519152604482015290519081900360640190fd5b61016280546001600160a01b0319166001600160a01b0392909216919091179055565b610162546001600160a01b031681565b610609610ee1565b6001600160a01b031661061a610715565b6001600160a01b031614610663576040805162461bcd60e51b81526020600482018190526024820152600080516020613cb8833981519152604482015290519081900360640190fd5b6033546040516000916001600160a01b0316907f8be0079c531659141344cd1fd0a4f28419497f9722a3daafe3b4186f6b6457e0908390a3603380546001600160a01b0319169055565b6106b5610ee1565b6001600160a01b03166106c6610715565b6001600160a01b03161461070f576040805162461bcd60e51b81526020600482018190526024820152600080516020613cb8833981519152604482015290519081900360640190fd5b61016155565b6033546001600160a01b031690565b6101615481565b610733610ee1565b6001600160a01b0316610744610715565b6001600160a01b03161461078d576040805162461bcd60e51b81526020600482018190526024820152600080516020613cb8833981519152604482015290519081900360640190fd5b6001600160e01b031982166000818152606560205260409081902080546001600160a01b0319166001600160a01b038516179055517fd2bf91075f105d0fd80328da28e20ebdad1c1261839711183bc29a44cbe6c72f906105509084906137d9565b80516001600160a01b0316610802610ee1565b6001600160a01b0316146108315760405162461bcd60e51b815260040161082890613a4c565b60405180910390fd5b600061083c82610ee5565b600081815261012f6020526040908190206000199055519091507fe8d9861dbc9c663ed3accd261bbe2fe01e0d3d9e5f51fa38523b265c7757a93a90610883908390613806565b60405180910390a15050565b610897610ee1565b6001600160a01b03166108a8610715565b6001600160a01b0316146108f1576040805162461bcd60e51b81526020600482018190526024820152600080516020613cb8833981519152604482015290519081900360640190fd5b6001600160a01b0391821660009081526101646020526040902080546001600160a01b03191691909216179055565b61092a8484610f5a565b6109348282610f5a565b60408401516001600160a01b0316156109805783604001516001600160a01b031682600001516001600160a01b0316146109805760405162461bcd60e51b8152600401610828906139e1565b60408201516001600160a01b0316156109cc5783600001516001600160a01b031682604001516001600160a01b0316146109cc5760405162461bcd60e51b8152600401610828906138e5565b6109d68483610f71565b50505050565b6109e4610ee1565b6001600160a01b03166109f5610715565b6001600160a01b031614610a3e576040805162461bcd60e51b81526020600482018190526024820152600080516020613cb8833981519152604482015290519081900360640190fd5b6001600160a01b038116610a835760405162461bcd60e51b8152600401808060200182810382526026815260200180613bb26026913960400191505060405180910390fd5b6033546040516001600160a01b038084169216907f8be0079c531659141344cd1fd0a4f28419497f9722a3daafe3b4186f6b6457e090600090a3603380546001600160a01b0319166001600160a01b0392909216919091179055565b6000610aea3061117e565b15905090565b600054610100900460ff1680610b095750610b09610adf565b80610b17575060005460ff16155b610b525760405162461bcd60e51b815260040180806020018281038252602e815260200180613c47602e913960400191505060405180910390fd5b600054610100900460ff16158015610b7d576000805460ff1961ff0019909116610100171660011790555b8015610b8f576000805461ff00191690555b50565b600054610100900460ff1680610bab5750610bab610adf565b80610bb9575060005460ff16155b610bf45760405162461bcd60e51b815260040180806020018281038252602e815260200180613c47602e913960400191505060405180910390fd5b600054610100900460ff16158015610c1f576000805460ff1961ff0019909116610100171660011790555b6000610c29610ee1565b603380546001600160a01b0319166001600160a01b038316908117909155604051919250906000907f8be0079c531659141344cd1fd0a4f28419497f9722a3daafe3b4186f6b6457e0908290a3508015610b8f576000805461ff001916905550565b60976020527f4532fa16f071d6234e30e1a1e69b9806f04095edf37a1ca7a25c8d6af7861cc080546001600160a01b039283166001600160a01b0319918216179091557f30a684095c937b5aa064dcf94f9903a7d808e3efb22d8389dbd43080ad4ed3d5805493909216928116831790915563025ceed960e61b6000527f4b5822151ea34b7c8d9e37c3e466bcecb631efe6a9f26a4a4054110a93dd316f80549091169091179055565b600054610100900460ff1680610d4e5750610d4e610adf565b80610d5c575060005460ff16155b610d975760405162461bcd60e51b815260040180806020018281038252602e815260200180613c47602e913960400191505060405180910390fd5b600054610100900460ff16158015610dc2576000805460ff1961ff0019909116610100171660011790555b61016184905561016380546001600160a01b038086166001600160a01b03199283161790925561016280549285169290911691909117905580156109d6576000805461ff001916905550505050565b600054610100900460ff1680610e2a5750610e2a610adf565b80610e38575060005460ff16155b610e735760405162461bcd60e51b815260040180806020018281038252602e815260200180613c47602e913960400191505060405180910390fd5b600054610100900460ff16158015610e9e576000805460ff1961ff0019909116610100171660011790555b610b7d6040518060400160405280600881526020016745786368616e676560c01b815250604051806040016040528060018152602001601960f91b815250611184565b3390565b805160208201515160009190610efa90611245565b606084015151610f0990611245565b846080015160405160200180856001600160a01b031681526020018481526020018381526020018281526020019450505050506040516020818303038152906040528051906020012090505b919050565b610f63826112af565b610f6d8282611379565b5050565b600080610f7e84846115d1565b915091506000610f8d85610ee5565b90506000610f9a85610ee5565b600083815261012f602052604080822054838352908220549293509190610fc38989858561166a565b90506000816020015111610fe95760405162461bcd60e51b815260040161082890613955565b60808901511561100f57602080820151600087815261012f909252604090912090840190555b608088015115611030578051600085815261012f6020526040902090830190555b6000806110408989858e8e611700565b8a5191935091506001600160e01b0319166355575f5d60e11b14156110b85787516001600160e01b0319166355575f5d60e11b141561107e57600080fd5b8134101561109e5760405162461bcd60e51b815260040161082890613a24565b813411156110b3576110b33334849003611855565b611126565b87516001600160e01b0319166355575f5d60e11b14156111265788516001600160e01b0319166355575f5d60e11b14156110f157600080fd5b803410156111115760405162461bcd60e51b815260040161082890613a24565b80341115611126576111263334839003611855565b8a518a51602085015185516040517f6bd3176da6f0aab285937ad5ead5f53b9036f403cfad62f77e4e0f80b5a7e18d94611169948d948d9492939192909161380f565b60405180910390a15050505050505050505050565b3b151590565b600054610100900460ff168061119d575061119d610adf565b806111ab575060005460ff16155b6111e65760405162461bcd60e51b815260040180806020018281038252602e815260200180613c47602e913960400191505060405180910390fd5b600054610100900460ff16158015611211576000805460ff1961ff0019909116610100171660011790555b825160208085019190912083519184019190912060c99190915560ca558015611240576000805461ff00191690555b505050565b8051602091820151805190830120604080517f452a0dc408cb0d27ffc3b3caff933a5208040a53a9dbecd8d89cad2c0d40e00c818601526001600160e01b031990931683820152606080840192909252805180840390920182526080909201909152805191012090565b60a081015115806112c35750428160a00151105b611314576040805162461bcd60e51b815260206004820152601d60248201527f4f726465722073746172742076616c69646174696f6e206661696c6564000000604482015290519081900360640190fd5b60c081015115806113285750428160c00151115b610b8f576040805162461bcd60e51b815260206004820152601b60248201527f4f7264657220656e642076616c69646174696f6e206661696c65640000000000604482015290519081900360640190fd5b60808201516113ee5781516001600160a01b0316611395610ee1565b6001600160a01b0316146113e9576040805162461bcd60e51b815260206004820152601660248201527536b0b5b2b91034b9903737ba103a3c1039b2b73232b960511b604482015290519081900360640190fd5b610f6d565b81516001600160a01b0316611401610ee1565b6001600160a01b031614610f6d57600061141a836118ed565b905061143283600001516001600160a01b031661117e565b1561156e578251630b135d3f60e11b906001600160a01b0316631626ba7e611459846119dd565b856040518363ffffffff1660e01b81526004018083815260200180602001828103825283818151815260200191508051906020019080838360005b838110156114ac578181015183820152602001611494565b50505050905090810190601f1680156114d95780820380516001836020036101000a031916815260200191505b50935050505060206040518083038186803b1580156114f757600080fd5b505afa15801561150b573d6000803e3d6000fd5b505050506040513d602081101561152157600080fd5b50516001600160e01b031916146115695760405162461bcd60e51b815260040180806020018281038252602b815260200180613c1c602b913960400191505060405180910390fd5b611240565b82516001600160a01b031661158c83611586846119dd565b90611a29565b6001600160a01b0316146112405760405162461bcd60e51b8152600401808060200182810382526022815260200180613bfa6022913960400191505060405180910390fd5b6115d961308d565b6115e161308d565b6020840151516060840151516115f79190611aab565b80519092506001600160e01b0319166116225760405162461bcd60e51b8152600401610828906139b5565b6060840151516020840151516116389190611aab565b80519091506001600160e01b0319166116635760405162461bcd60e51b8152600401610828906139b5565b9250929050565b6116726130a5565b60008061167f8786611aeb565b915091506000806116908887611aeb565b91509150818311156116c3576116b88960200151602001518a60600151602001518484611b2f565b9450505050506116f8565b838111156116e7576116b884848a60200151602001518b6060015160200151611bb5565b6116f18484611c3a565b9450505050505b949350505050565b600080600061171788600001518860000151611c58565b8651602088015190945092509050600061173086611d29565b9050600061173d86611d29565b9050600183600281111561174d57fe5b14156117c65787518751611786919084848e8e7f1a0388dd7519a093630516a672419a2562e0e74deb98af068657dc265f0164c9611dea565b94506117c1898960200151886000015185600001517fb45a3ba14423c8f1b71cc094845ab56b5294dbe8d8e3ba53f3cdb63d59a4044b611ea8565b611848565b60028360028111156117d457fe5b1415611848576118118860200151876000015183858d8f7fb45a3ba14423c8f1b71cc094845ab56b5294dbe8d8e3ba53f3cdb63d59a4044b611dea565b885188518351929650611848928d9291907f1a0388dd7519a093630516a672419a2562e0e74deb98af068657dc265f0164c9611ea8565b5050509550959350505050565b6040516000906001600160a01b0384169083908381818185875af1925050503d80600081146118a0576040519150601f19603f3d011682016040523d82523d6000602084013e6118a5565b606091505b5050905080611240576040805162461bcd60e51b815260206004820152600f60248201526e1d1c985b9cd9995c8819985a5b1959608a1b604482015290519081900360640190fd5b60007f477ed43b8020849b755512278536c3766a3b4ab547519949a75f483372493f8d8260000151611922846020015161202a565b8460400151611934866060015161202a565b86608001518760a001518860c001518960e001518a610100015180519060200120604051602001808b81526020018a6001600160a01b03168152602001898152602001886001600160a01b03168152602001878152602001868152602001858152602001848152602001836001600160e01b03191681526020018281526020019a5050505050505050505050604051602081830303815290604052805190602001209050919050565b60006119e761209a565b82604051602001808061190160f01b81525060020183815260200182815260200192505050604051602081830303815290604052805190602001209050919050565b60008151604114611a81576040805162461bcd60e51b815260206004820152601f60248201527f45434453413a20696e76616c6964207369676e6174757265206c656e67746800604482015290519081900360640190fd5b60208201516040830151606084015160001a611a9f868285856120da565b93505050505b92915050565b611ab361308d565b6000611abf8484612258565b80519091506001600160e01b031916611ae457611adc8385612258565b915050611aa5565b9050611aa5565b600080611b09838560600151602001516125b990919063ffffffff16565b9050611b2684602001516020015185606001516020015183612616565b91509250929050565b611b376130a5565b6000611b44838787612616565b905083811115611b9b576040805162461bcd60e51b815260206004820152601960248201527f66696c6c52696768743a20756e61626c6520746f2066696c6c00000000000000604482015290519081900360640190fd5b604080518082019091529283526020830152509392505050565b611bbd6130a5565b6000611bca858585612616565b905085811115611c21576040805162461bcd60e51b815260206004820152601860248201527f66696c6c4c6566743a20756e61626c6520746f2066696c6c0000000000000000604482015290519081900360640190fd5b5050604080518082019091529384525050602082015290565b611c426130a5565b5060408051808201909152918252602082015290565b60006001600160e01b031983166355575f5d60e11b1415611c7b57506001611aa5565b6001600160e01b031982166355575f5d60e11b1415611c9c57506002611aa5565b6001600160e01b031983166322ba176160e21b1415611cbd57506001611aa5565b6001600160e01b031982166322ba176160e21b1415611cde57506002611aa5565b6001600160e01b0319831663025ceed960e61b1415611cff57506001611aa5565b6001600160e01b0319821663025ceed960e61b1415611d2057506002611aa5565b50600092915050565b611d316130bf565b60e08201516001600160e01b031916632611a13360e11b1415611d7a57611d5c82610100015161267a565b805151909150611d75578151611d729082612696565b90505b610f55565b60e08201516001600160e01b03199081161415611d9d578151611d729082612696565b6040805162461bcd60e51b815260206004820152601760248201527f556e6b6e6f776e204f7264657220646174612074797065000000000000000000604482015290519081900360640190fd5b6000611dfe88610161548860200151612737565b90506000611e0f828a8a88876127aa565b9050611e1f8585838c8c88612896565b9050611e5485828b8a602001518c887fdfdfdaf4cc275341b6776a7ee23b953990b8d991717449077287da70f32cf9556129c7565b9050611e8985828b89602001518c887fdfdfdaf4cc275341b6776a7ee23b953990b8d991717449077287da70f32cf9556129c7565b9050611e9c85828a896000015187611ea8565b50979650505050505050565b600084815b6001855103811015611f8b576000611eee868381518110611eca57fe5b6020026020010151602001516001600160601b031689612a5290919063ffffffff16565b9050858281518110611efc57fe5b6020026020010151602001516001600160601b0316840193506000811115611f8257611f2883826125b9565b9250611f8260405180604001604052808b81526020018381525088888581518110611f4f57fe5b602002602001015160000151887fa10bb5b2060a412d05113732875a5431ca23453eb93f797e0ffcb5b40e5f2c3e612a6b565b50600101611ead565b50600084600186510381518110611f9e57fe5b6020026020010151905080602001516001600160601b0316830192508261271014611fdb5760405162461bcd60e51b81526004016108289061397e565b61202060405180604001604052808a815260200184815250878360000151877fa10bb5b2060a412d05113732875a5431ca23453eb93f797e0ffcb5b40e5f2c3e612a6b565b5050505050505050565b60007fdb6f72e915676cfc289da13bc4ece054fd17b1df6d77ffc4a60510718c236b0861205a8360000151611245565b8360200151604051602001808481526020018381526020018281526020019350505050604051602081830303815290604052805190602001209050919050565b60006120d57f8b73c3c69bb8fe3d512ecc4cf759cc79239f7b179b0ffacaa9a75d522b39400f6120c8612df2565b6120d0612df8565b612dfe565b905090565b60007f7fffffffffffffffffffffffffffffff5d576e7357a4501ddfe92f46681b20a082111561213b5760405162461bcd60e51b8152600401808060200182810382526022815260200180613bd86022913960400191505060405180910390fd5b8360ff16601b148061215057508360ff16601c145b61218b5760405162461bcd60e51b8152600401808060200182810382526022815260200180613c756022913960400191505060405180910390fd5b600060018686868660405160008152602001604052604051808581526020018460ff1681526020018381526020018281526020019450505050506020604051602081039080840390855afa1580156121e7573d6000803e3d6000fd5b5050604051601f1901519150506001600160a01b03811661224f576040805162461bcd60e51b815260206004820152601860248201527f45434453413a20696e76616c6964207369676e61747572650000000000000000604482015290519081900360640190fd5b95945050505050565b61226061308d565b825182516001600160e01b031982166355575f5d60e11b14156122cb576001600160e01b031981166355575f5d60e11b14156122a0578492505050611aa5565b5050604080518082018252600080825282516020818101909452908152918101919091529050611aa5565b6001600160e01b031982166322ba176160e21b1415612388576001600160e01b031981166322ba176160e21b14156122a0576000856020015180602001905181019061231791906133d8565b90506000856020015180602001905181019061233391906133d8565b9050806001600160a01b0316826001600160a01b0316141561235b5786945050505050611aa5565b50505050604080518082018252600080825282516020818101909452908152918101919091529050611aa5565b6001600160e01b031982166339d690a360e11b141561245a576001600160e01b031981166339d690a360e11b14156122a05760008086602001518060200190518101906123d591906133f4565b9150915060008087602001518060200190518101906123f491906133f4565b91509150816001600160a01b0316846001600160a01b031614801561241857508083145b1561242b57889650505050505050611aa5565b505050505050604080518082018252600080825282516020818101909452908152918101919091529050611aa5565b6001600160e01b0319821663025ceed960e61b14156124a7576001600160e01b0319811663025ceed960e61b14156122a05760008086602001518060200190518101906123d591906133f4565b6001600160e01b031982166000908152606560205260409020546001600160a01b0316801561255c576040516306d3f7cb60e41b81526001600160a01b03821690636d3f7cb0906124fe9089908990600401613a71565b60006040518083038186803b15801561251657600080fd5b505afa15801561252a573d6000803e3d6000fd5b505050506040513d6000823e601f3d908101601f191682016040526125529190810190613528565b9350505050611aa5565b6001600160e01b031983811690831614156125a1576020808701518051908201208682015180519201919091208082141561259e578795505050505050611aa5565b50505b60405162461bcd60e51b8152600401610828906138ae565b600082821115612610576040805162461bcd60e51b815260206004820152601e60248201527f536166654d6174683a207375627472616374696f6e206f766572666c6f770000604482015290519081900360640190fd5b50900390565b6000612623848484612e60565b15612666576040805162461bcd60e51b815260206004820152600e60248201526d3937bab73234b7339032b93937b960911b604482015290519081900360640190fd5b6116f8836126748685612eef565b90612f48565b6126826130bf565b81806020019051810190611aa591906135f0565b61269e6130bf565b604080516001808252818301909252600091816020015b6126bd6130d9565b8152602001906001900390816126b557905050905083816000815181106126e057fe5b6020026020010151600001906001600160a01b031690816001600160a01b0316815250506127108160008151811061271457fe5b6020908102919091018101516001600160601b0392909216910152825250919050565b600061274d6127468585612a52565b8590612faf565b905060005b82518110156127a25761279861279184838151811061276d57fe5b6020026020010151602001516001600160601b031687612a5290919063ffffffff16565b8390612faf565b9150600101612752565b509392505050565b60008060006127c0888861016154600202613009565b9092509050801561288b5784516000906001600160e01b0319166322ba176160e21b141561280757856020015180602001905181019061280091906133d8565b9050612840565b85516001600160e01b03191663025ceed960e61b1415612840576000866020015180602001905181019061283b91906133f4565b509150505b612889604051806040016040528088815260200184815250886128628461302b565b887ff87e69cb514f255f3d32f9d90f25160a10d0cdefe6618a6406db334d4450595c612a6b565b505b509695505050505050565b84516000906001600160e01b03191663025ceed960e61b148015906128cd575085516001600160e01b0319166339d690a360e11b14155b156128d95750836129bd565b60008087602001518060200190518101906128f491906133f4565b61016254604051634e53ee3d60e11b81529294509092506000916001600160a01b0390911690639ca7dc7a9061293090869086906004016137ed565b600060405180830381600087803b15801561294a57600080fd5b505af115801561295e573d6000803e3d6000fd5b505050506040513d6000823e601f3d908101601f191682016040526129869190810190613459565b90506129b78a8989848a8a7fb3c5c697ec0b511b76d12f6293e6ee827b1e1df79ac7c64d0466d945904893d76129c7565b93505050505b9695505050505050565b8560005b8551811015611e9c57600080612a02848a8a86815181106129e857fe5b6020026020010151602001516001600160601b0316613009565b90945084925090508015612a4857612a4860405180604001604052808d815260200183815250888a8681518110612a3557fe5b6020026020010151600001518989612a6b565b50506001016129cb565b6000612a646127106126748585612eef565b9392505050565b8451516001600160e01b0319166355575f5d60e11b1415612aa4576020850151612a9f906001600160a01b03851690611855565b612dac565b8451516001600160e01b0319166322ba176160e21b1415612b82576000856000015160200151806020019051810190612add91906133d8565b6322ba176160e21b600052609760209081527f4532fa16f071d6234e30e1a1e69b9806f04095edf37a1ca7a25c8d6af7861cc0549088015160405163776062c360e01b81529293506001600160a01b039091169163776062c391612b4a9185918a918a9190600401613884565b600060405180830381600087803b158015612b6457600080fd5b505af1158015612b78573d6000803e3d6000fd5b5050505050612dac565b8451516001600160e01b0319166339d690a360e11b1415612c8257600080866000015160200151806020019051810190612bbc91906133f4565b915091508660200151600114612be45760405162461bcd60e51b815260040161082890613929565b6339d690a360e11b60005260976020527f30a684095c937b5aa064dcf94f9903a7d808e3efb22d8389dbd43080ad4ed3d554604051637b84dc8360e11b81526001600160a01b039091169063f709b90690612c499085908a908a908790600401613884565b600060405180830381600087803b158015612c6357600080fd5b505af1158015612c77573d6000803e3d6000fd5b505050505050612dac565b8451516001600160e01b03191663025ceed960e61b1415612d2b57600080866000015160200151806020019051810190612cbc91906133f4565b63025ceed960e61b600052609760209081527f4b5822151ea34b7c8d9e37c3e466bcecb631efe6a9f26a4a4054110a93dd316f54908a0151604051639c1c2ee960e01b81529395509193506001600160a01b031691639c1c2ee991612c499186918b918b918891600401613841565b8451516001600160e01b031916600090815260976020526040908190205490516354bc0cf160e01b81526001600160a01b03909116906354bc0cf190612d7990889088908890600401613a96565b600060405180830381600087803b158015612d9357600080fd5b505af1158015612da7573d6000803e3d6000fd5b505050505b7fcae9d16f553e92058883de29cb3135dbc0c1e31fd7eace79fef1d80577fe482e8585858585604051612de3959493929190613ac9565b60405180910390a15050505050565b60c95490565b60ca5490565b6000838383612e0b61306a565b3060405160200180868152602001858152602001848152602001838152602001826001600160a01b03168152602001955050505050506040516020818303038152906040528051906020012090509392505050565b600082612ea7576040805162461bcd60e51b815260206004820152601060248201526f6469766973696f6e206279207a65726f60801b604482015290519081900360640190fd5b811580612eb2575083155b15612ebf57506000612a64565b60008380612ec957fe5b8584099050612ed88584612eef565b612ee4826103e8612eef565b101595945050505050565b600082612efe57506000611aa5565b82820282848281612f0b57fe5b0414612a645760405162461bcd60e51b8152600401808060200182810382526021815260200180613c976021913960400191505060405180910390fd5b6000808211612f9e576040805162461bcd60e51b815260206004820152601a60248201527f536166654d6174683a206469766973696f6e206279207a65726f000000000000604482015290519081900360640190fd5b818381612fa757fe5b049392505050565b600082820183811015612a64576040805162461bcd60e51b815260206004820152601b60248201527f536166654d6174683a206164646974696f6e206f766572666c6f770000000000604482015290519081900360640190fd5b60008061301f8561301a8686612a52565b61306e565b91509150935093915050565b6001600160a01b03808216600090815261016460205260408120549091168015613056579050610f55565b5050610163546001600160a01b0316919050565b4690565b6000808284111561308457505080820381611663565b50600093915050565b60408051808201909152600081526060602082015290565b604051806040016040528060008152602001600081525090565b604051806040016040528060608152602001606081525090565b604080518082019091526000808252602082015290565b8035610f5581613b86565b600082601f83011261310b578081fd5b8151602067ffffffffffffffff8083111561312257fe5b61312f8283850201613b14565b838152828101908684016040808702890186018a101561314d578788fd5b875b878110156131b55781838c031215613165578889fd5b8151828101818110888211171561317857fe5b8352835161318581613b86565b8152838801516001600160601b038116811461319f578a8bfd5b818901528552938601939181019160010161314f565b50919998505050505050505050565b8035610f5581613b9b565b600082601f8301126131df578081fd5b81356131f26131ed82613b38565b613b14565b818152846020838601011115613206578283fd5b816020850160208301379081016020019190915292915050565b60006040808385031215613232578182fd5b805181810167ffffffffffffffff828210818311171561324e57fe5b81845282945085358181111561326357600080fd5b860180880385131561327457600080fd5b60808401838110838211171561328657fe5b90945283359361329585613b9b565b938252602084013593818511156132ab57600080fd5b6132b7888683016131cf565b60608501525050815260209384013593019290925292915050565b60006101208083850312156132e5578182fd5b6132ee81613b14565b9150506132fa826130f0565b8152602082013567ffffffffffffffff8082111561331757600080fd5b61332385838601613220565b6020840152613334604085016130f0565b6040840152606084013591508082111561334d57600080fd5b61335985838601613220565b60608401526080840135608084015260a084013560a084015260c084013560c084015261338860e085016131c4565b60e0840152610100915081840135818111156133a357600080fd5b6133af868287016131cf565b8385015250505092915050565b6000602082840312156133cd578081fd5b8135612a6481613b86565b6000602082840312156133e9578081fd5b8151612a6481613b86565b60008060408385031215613406578081fd5b825161341181613b86565b6020939093015192949293505050565b60008060408385031215613433578182fd5b823561343e81613b86565b9150602083013561344e81613b86565b809150509250929050565b60006020828403121561346a578081fd5b815167ffffffffffffffff811115613480578182fd5b6116f8848285016130fb565b60006020828403121561349d578081fd5b5035919050565b600080604083850312156134b6578182fd5b823561343e81613b9b565b600080600080600060a086880312156134d8578081fd5b85356134e381613b86565b945060208601356134f381613b86565b935060408601359250606086013561350a81613b86565b9150608086013561351a81613b86565b809150509295509295909350565b6000602080838503121561353a578182fd5b825167ffffffffffffffff80821115613551578384fd5b9084019060408287031215613564578384fd5b60405160408101818110838211171561357957fe5b604052825161358781613b9b565b81528284015182811115613599578586fd5b80840193505086601f8401126135ad578485fd5b825191506135bd6131ed83613b38565b82815287858486010111156135d0578586fd5b6135df83868301878701613b5a565b938101939093525090949350505050565b600060208284031215613601578081fd5b815167ffffffffffffffff80821115613618578283fd5b908301906040828603121561362b578283fd5b60405160408101818110838211171561364057fe5b604052825182811115613651578485fd5b61365d878286016130fb565b825250602083015182811115613671578485fd5b61367d878286016130fb565b60208301525095945050505050565b60006020828403121561369d578081fd5b813567ffffffffffffffff8111156136b3578182fd5b6116f8848285016132d2565b600080600080608085870312156136d4578182fd5b843567ffffffffffffffff808211156136eb578384fd5b6136f7888389016132d2565b9550602087013591508082111561370c578384fd5b613718888389016131cf565b9450604087013591508082111561372d578384fd5b613739888389016132d2565b9350606087013591508082111561374e578283fd5b5061375b878288016131cf565b91505092959194509250565b600063ffffffff60e01b8251168352602082015160406020850152805180604086015261379b816060870160208501613b5a565b601f01601f1916939093016060019392505050565b60008151604084526137c56040850182613767565b602093840151949093019390935250919050565b6001600160a01b0391909116815260200190565b6001600160a01b03929092168252602082015260400190565b90815260200190565b95865260208601949094526001600160a01b03928316604086015291166060840152608083015260a082015260c00190565b6001600160a01b03958616815293851660208501529190931660408301526060820192909252608081019190915260c060a0820181905260009082015260e00190565b6001600160a01b039485168152928416602084015292166040820152606081019190915260800190565b60208082526017908201527f6e6f7420666f756e64204941737365744d617463686572000000000000000000604082015260600190565b60208082526024908201527f72696768744f726465722e74616b657220766572696669636174696f6e2066616040820152631a5b195960e21b606082015260800190565b60208082526012908201527132b9319b9918903b30b63ab29032b93937b960711b604082015260600190565b6020808252600f908201526e1b9bdd1a1a5b99c81d1bc8199a5b1b608a1b604082015260600190565b6020808252601e908201527f53756d207061796f75747320427073206e6f7420657175616c20313030250000604082015260600190565b6020808252601290820152710c2e6e6cae8e640c8dedc4ee840dac2e8c6d60731b604082015260600190565b60208082526023908201527f6c6566744f726465722e74616b657220766572696669636174696f6e206661696040820152621b195960ea1b606082015260800190565b6020808252600e908201526d0dcdee840cadcdeeaced040cae8d60931b604082015260600190565b6020808252600b908201526a3737ba10309036b0b5b2b960a91b604082015260600190565b600060408252613a846040830185613767565b828103602084015261224f8185613767565b600060608252613aa960608301866137b0565b6001600160a01b0394851660208401529290931660409091015292915050565b600060a08252613adc60a08301886137b0565b6001600160a01b0396871660208401529490951660408201526001600160e01b03199283166060820152911660809091015292915050565b60405181810167ffffffffffffffff81118282101715613b3057fe5b604052919050565b600067ffffffffffffffff821115613b4c57fe5b50601f01601f191660200190565b60005b83811015613b75578181015183820152602001613b5d565b838111156109d65750506000910152565b6001600160a01b0381168114610b8f57600080fd5b6001600160e01b031981168114610b8f57600080fdfe4f776e61626c653a206e6577206f776e657220697320746865207a65726f206164647265737345434453413a20696e76616c6964207369676e6174757265202773272076616c75656f72646572207369676e617475726520766572696669636174696f6e206572726f72636f6e7472616374206f72646572207369676e617475726520766572696669636174696f6e206572726f72496e697469616c697a61626c653a20636f6e747261637420697320616c726561647920696e697469616c697a656445434453413a20696e76616c6964207369676e6174757265202776272076616c7565536166654d6174683a206d756c7469706c69636174696f6e206f766572666c6f774f776e61626c653a2063616c6c6572206973206e6f7420746865206f776e6572a26469706673582212201cc563258f162a9216a64e3376acd9cc2b6e947060facfc5d7a1e7abb2aeabd464736f6c63430007060033",
  "immutableReferences": {},
  "source": "// SPDX-License-Identifier: MIT\n\npragma solidity >=0.6.2 <0.8.0;\npragma abicoder v2;\n\nimport \"./ExchangeV2Core.sol\";\nimport \"./RaribleTransferManager.sol\";\nimport \"@rarible/royalties/contracts/IRoyaltiesProvider.sol\";\n\ncontract ExchangeV2 is ExchangeV2Core, RaribleTransferManager {\n    function __ExchangeV2_init(\n        INftTransferProxy _transferProxy,\n        IERC20TransferProxy _erc20TransferProxy,\n        uint newProtocolFee,\n        address newDefaultFeeReceiver,\n        IRoyaltiesProvider newRoyaltiesProvider\n    ) external initializer {\n        __Context_init_unchained();\n        __Ownable_init_unchained();\n        __TransferExecutor_init_unchained(_transferProxy, _erc20TransferProxy);\n        __RaribleTransferManager_init_unchained(newProtocolFee, newDefaultFeeReceiver, newRoyaltiesProvider);\n        __OrderValidator_init_unchained();\n    }\n}\n",
  "sourcePath": "/home/quadro/Projects/rarible/protocol-contracts/exchange-v2/contracts/ExchangeV2.sol",
  "compiler": {
    "name": "solc",
    "version": "0.7.6+commit.7338295f.Emscripten.clang"
  },
  "schemaVersion": "3.4.0",
  "updatedAt": "2021-05-07T12:55:44.395Z",
  "networkType": "ethereum",
  "devdoc": {
    "kind": "dev",
    "methods": {
      "owner()": {
        "details": "Returns the address of the current owner."
      },
      "renounceOwnership()": {
        "details": "Leaves the contract without owner. It will not be possible to call `onlyOwner` functions anymore. Can only be called by the current owner. NOTE: Renouncing ownership will leave the contract without an owner, thereby removing any functionality that is only available to the owner."
      },
      "transferOwnership(address)": {
        "details": "Transfers ownership of the contract to a new account (`newOwner`). Can only be called by the current owner."
      }
    },
    "version": 1
  },
  "userdoc": {
    "kind": "user",
    "methods": {},
    "version": 1
  }
}