{
  "contractName": "ExchangeV2",
  "abi": [
    {
      "anonymous": false,
      "inputs": [
        {
          "indexed": false,
          "internalType": "bytes32",
          "name": "hash",
          "type": "bytes32"
        },
        {
          "indexed": false,
          "internalType": "address",
          "name": "maker",
          "type": "address"
        },
        {
          "components": [
            {
              "internalType": "bytes4",
              "name": "assetClass",
              "type": "bytes4"
            },
            {
              "internalType": "bytes",
              "name": "data",
              "type": "bytes"
            }
          ],
          "indexed": false,
          "internalType": "struct LibAsset.AssetType",
          "name": "makeAssetType",
          "type": "tuple"
        },
        {
          "components": [
            {
              "internalType": "bytes4",
              "name": "assetClass",
              "type": "bytes4"
            },
            {
              "internalType": "bytes",
              "name": "data",
              "type": "bytes"
            }
          ],
          "indexed": false,
          "internalType": "struct LibAsset.AssetType",
          "name": "takeAssetType",
          "type": "tuple"
        }
      ],
      "name": "Cancel",
      "type": "event"
    },
    {
      "anonymous": false,
      "inputs": [
        {
          "indexed": false,
          "internalType": "bytes32",
          "name": "leftHash",
          "type": "bytes32"
        },
        {
          "indexed": false,
          "internalType": "bytes32",
          "name": "rightHash",
          "type": "bytes32"
        },
        {
          "indexed": false,
          "internalType": "address",
          "name": "leftMaker",
          "type": "address"
        },
        {
          "indexed": false,
          "internalType": "address",
          "name": "rightMaker",
          "type": "address"
        },
        {
          "indexed": false,
          "internalType": "uint256",
          "name": "newLeftFill",
          "type": "uint256"
        },
        {
          "indexed": false,
          "internalType": "uint256",
          "name": "newRightFill",
          "type": "uint256"
        },
        {
          "components": [
            {
              "internalType": "bytes4",
              "name": "assetClass",
              "type": "bytes4"
            },
            {
              "internalType": "bytes",
              "name": "data",
              "type": "bytes"
            }
          ],
          "indexed": false,
          "internalType": "struct LibAsset.AssetType",
          "name": "leftAsset",
          "type": "tuple"
        },
        {
          "components": [
            {
              "internalType": "bytes4",
              "name": "assetClass",
              "type": "bytes4"
            },
            {
              "internalType": "bytes",
              "name": "data",
              "type": "bytes"
            }
          ],
          "indexed": false,
          "internalType": "struct LibAsset.AssetType",
          "name": "rightAsset",
          "type": "tuple"
        }
      ],
      "name": "Match",
      "type": "event"
    },
    {
      "anonymous": false,
      "inputs": [
        {
          "indexed": true,
          "internalType": "bytes4",
          "name": "assetType",
          "type": "bytes4"
        },
        {
          "indexed": false,
          "internalType": "address",
          "name": "matcher",
          "type": "address"
        }
      ],
      "name": "MatcherChange",
      "type": "event"
    },
    {
      "anonymous": false,
      "inputs": [
        {
          "indexed": true,
          "internalType": "address",
          "name": "previousOwner",
          "type": "address"
        },
        {
          "indexed": true,
          "internalType": "address",
          "name": "newOwner",
          "type": "address"
        }
      ],
      "name": "OwnershipTransferred",
      "type": "event"
    },
    {
      "anonymous": false,
      "inputs": [
        {
          "indexed": true,
          "internalType": "bytes4",
          "name": "assetType",
          "type": "bytes4"
        },
        {
          "indexed": false,
          "internalType": "address",
          "name": "proxy",
          "type": "address"
        }
      ],
      "name": "ProxyChange",
      "type": "event"
    },
    {
      "anonymous": false,
      "inputs": [
        {
          "components": [
            {
              "components": [
                {
                  "internalType": "bytes4",
                  "name": "assetClass",
                  "type": "bytes4"
                },
                {
                  "internalType": "bytes",
                  "name": "data",
                  "type": "bytes"
                }
              ],
              "internalType": "struct LibAsset.AssetType",
              "name": "assetType",
              "type": "tuple"
            },
            {
              "internalType": "uint256",
              "name": "value",
              "type": "uint256"
            }
          ],
          "indexed": false,
          "internalType": "struct LibAsset.Asset",
          "name": "asset",
          "type": "tuple"
        },
        {
          "indexed": false,
          "internalType": "address",
          "name": "from",
          "type": "address"
        },
        {
          "indexed": false,
          "internalType": "address",
          "name": "to",
          "type": "address"
        },
        {
          "indexed": false,
          "internalType": "bytes4",
          "name": "transferDirection",
          "type": "bytes4"
        },
        {
          "indexed": false,
          "internalType": "bytes4",
          "name": "transferType",
          "type": "bytes4"
        }
      ],
      "name": "Transfer",
      "type": "event"
    },
    {
      "inputs": [
        {
          "components": [
            {
              "internalType": "address",
              "name": "maker",
              "type": "address"
            },
            {
              "components": [
                {
                  "components": [
                    {
                      "internalType": "bytes4",
                      "name": "assetClass",
                      "type": "bytes4"
                    },
                    {
                      "internalType": "bytes",
                      "name": "data",
                      "type": "bytes"
                    }
                  ],
                  "internalType": "struct LibAsset.AssetType",
                  "name": "assetType",
                  "type": "tuple"
                },
                {
                  "internalType": "uint256",
                  "name": "value",
                  "type": "uint256"
                }
              ],
              "internalType": "struct LibAsset.Asset",
              "name": "makeAsset",
              "type": "tuple"
            },
            {
              "internalType": "address",
              "name": "taker",
              "type": "address"
            },
            {
              "components": [
                {
                  "components": [
                    {
                      "internalType": "bytes4",
                      "name": "assetClass",
                      "type": "bytes4"
                    },
                    {
                      "internalType": "bytes",
                      "name": "data",
                      "type": "bytes"
                    }
                  ],
                  "internalType": "struct LibAsset.AssetType",
                  "name": "assetType",
                  "type": "tuple"
                },
                {
                  "internalType": "uint256",
                  "name": "value",
                  "type": "uint256"
                }
              ],
              "internalType": "struct LibAsset.Asset",
              "name": "takeAsset",
              "type": "tuple"
            },
            {
              "internalType": "uint256",
              "name": "salt",
              "type": "uint256"
            },
            {
              "internalType": "uint256",
              "name": "start",
              "type": "uint256"
            },
            {
              "internalType": "uint256",
              "name": "end",
              "type": "uint256"
            },
            {
              "internalType": "bytes4",
              "name": "dataType",
              "type": "bytes4"
            },
            {
              "internalType": "bytes",
              "name": "data",
              "type": "bytes"
            }
          ],
          "internalType": "struct LibOrder.Order",
          "name": "order",
          "type": "tuple"
        }
      ],
      "name": "cancel",
      "outputs": [],
      "stateMutability": "nonpayable",
      "type": "function"
    },
    {
      "inputs": [],
      "name": "defaultFeeReceiver",
      "outputs": [
        {
          "internalType": "address",
          "name": "",
          "type": "address"
        }
      ],
      "stateMutability": "view",
      "type": "function",
      "constant": true
    },
    {
      "inputs": [
        {
          "internalType": "address",
          "name": "",
          "type": "address"
        }
      ],
      "name": "feeReceivers",
      "outputs": [
        {
          "internalType": "address",
          "name": "",
          "type": "address"
        }
      ],
      "stateMutability": "view",
      "type": "function",
      "constant": true
    },
    {
      "inputs": [
        {
          "internalType": "bytes32",
          "name": "",
          "type": "bytes32"
        }
      ],
      "name": "fills",
      "outputs": [
        {
          "internalType": "uint256",
          "name": "",
          "type": "uint256"
        }
      ],
      "stateMutability": "view",
      "type": "function",
      "constant": true
    },
    {
      "inputs": [
        {
          "components": [
            {
              "internalType": "address",
              "name": "maker",
              "type": "address"
            },
            {
              "components": [
                {
                  "components": [
                    {
                      "internalType": "bytes4",
                      "name": "assetClass",
                      "type": "bytes4"
                    },
                    {
                      "internalType": "bytes",
                      "name": "data",
                      "type": "bytes"
                    }
                  ],
                  "internalType": "struct LibAsset.AssetType",
                  "name": "assetType",
                  "type": "tuple"
                },
                {
                  "internalType": "uint256",
                  "name": "value",
                  "type": "uint256"
                }
              ],
              "internalType": "struct LibAsset.Asset",
              "name": "makeAsset",
              "type": "tuple"
            },
            {
              "internalType": "address",
              "name": "taker",
              "type": "address"
            },
            {
              "components": [
                {
                  "components": [
                    {
                      "internalType": "bytes4",
                      "name": "assetClass",
                      "type": "bytes4"
                    },
                    {
                      "internalType": "bytes",
                      "name": "data",
                      "type": "bytes"
                    }
                  ],
                  "internalType": "struct LibAsset.AssetType",
                  "name": "assetType",
                  "type": "tuple"
                },
                {
                  "internalType": "uint256",
                  "name": "value",
                  "type": "uint256"
                }
              ],
              "internalType": "struct LibAsset.Asset",
              "name": "takeAsset",
              "type": "tuple"
            },
            {
              "internalType": "uint256",
              "name": "salt",
              "type": "uint256"
            },
            {
              "internalType": "uint256",
              "name": "start",
              "type": "uint256"
            },
            {
              "internalType": "uint256",
              "name": "end",
              "type": "uint256"
            },
            {
              "internalType": "bytes4",
              "name": "dataType",
              "type": "bytes4"
            },
            {
              "internalType": "bytes",
              "name": "data",
              "type": "bytes"
            }
          ],
          "internalType": "struct LibOrder.Order",
          "name": "orderLeft",
          "type": "tuple"
        },
        {
          "internalType": "bytes",
          "name": "signatureLeft",
          "type": "bytes"
        },
        {
          "components": [
            {
              "internalType": "address",
              "name": "maker",
              "type": "address"
            },
            {
              "components": [
                {
                  "components": [
                    {
                      "internalType": "bytes4",
                      "name": "assetClass",
                      "type": "bytes4"
                    },
                    {
                      "internalType": "bytes",
                      "name": "data",
                      "type": "bytes"
                    }
                  ],
                  "internalType": "struct LibAsset.AssetType",
                  "name": "assetType",
                  "type": "tuple"
                },
                {
                  "internalType": "uint256",
                  "name": "value",
                  "type": "uint256"
                }
              ],
              "internalType": "struct LibAsset.Asset",
              "name": "makeAsset",
              "type": "tuple"
            },
            {
              "internalType": "address",
              "name": "taker",
              "type": "address"
            },
            {
              "components": [
                {
                  "components": [
                    {
                      "internalType": "bytes4",
                      "name": "assetClass",
                      "type": "bytes4"
                    },
                    {
                      "internalType": "bytes",
                      "name": "data",
                      "type": "bytes"
                    }
                  ],
                  "internalType": "struct LibAsset.AssetType",
                  "name": "assetType",
                  "type": "tuple"
                },
                {
                  "internalType": "uint256",
                  "name": "value",
                  "type": "uint256"
                }
              ],
              "internalType": "struct LibAsset.Asset",
              "name": "takeAsset",
              "type": "tuple"
            },
            {
              "internalType": "uint256",
              "name": "salt",
              "type": "uint256"
            },
            {
              "internalType": "uint256",
              "name": "start",
              "type": "uint256"
            },
            {
              "internalType": "uint256",
              "name": "end",
              "type": "uint256"
            },
            {
              "internalType": "bytes4",
              "name": "dataType",
              "type": "bytes4"
            },
            {
              "internalType": "bytes",
              "name": "data",
              "type": "bytes"
            }
          ],
          "internalType": "struct LibOrder.Order",
          "name": "orderRight",
          "type": "tuple"
        },
        {
          "internalType": "bytes",
          "name": "signatureRight",
          "type": "bytes"
        }
      ],
      "name": "matchOrders",
      "outputs": [],
      "stateMutability": "payable",
      "type": "function",
      "payable": true
    },
    {
      "inputs": [],
      "name": "owner",
      "outputs": [
        {
          "internalType": "address",
          "name": "",
          "type": "address"
        }
      ],
      "stateMutability": "view",
      "type": "function",
      "constant": true
    },
    {
      "inputs": [],
      "name": "protocolFee",
      "outputs": [
        {
          "internalType": "uint256",
          "name": "",
          "type": "uint256"
        }
      ],
      "stateMutability": "view",
      "type": "function",
      "constant": true
    },
    {
      "inputs": [],
      "name": "renounceOwnership",
      "outputs": [],
      "stateMutability": "nonpayable",
      "type": "function"
    },
    {
      "inputs": [],
      "name": "royaltiesRegistry",
      "outputs": [
        {
          "internalType": "contract IRoyaltiesProvider",
          "name": "",
          "type": "address"
        }
      ],
      "stateMutability": "view",
      "type": "function",
      "constant": true
    },
    {
      "inputs": [
        {
          "internalType": "bytes4",
          "name": "assetType",
          "type": "bytes4"
        },
        {
          "internalType": "address",
          "name": "matcher",
          "type": "address"
        }
      ],
      "name": "setAssetMatcher",
      "outputs": [],
      "stateMutability": "nonpayable",
      "type": "function"
    },
    {
      "inputs": [
        {
          "internalType": "address payable",
          "name": "newDefaultFeeReceiver",
          "type": "address"
        }
      ],
      "name": "setDefaultFeeReceiver",
      "outputs": [],
      "stateMutability": "nonpayable",
      "type": "function"
    },
    {
      "inputs": [
        {
          "internalType": "address",
          "name": "token",
          "type": "address"
        },
        {
          "internalType": "address",
          "name": "wallet",
          "type": "address"
        }
      ],
      "name": "setFeeReceiver",
      "outputs": [],
      "stateMutability": "nonpayable",
      "type": "function"
    },
    {
      "inputs": [
        {
          "internalType": "uint256",
          "name": "newProtocolFee",
          "type": "uint256"
        }
      ],
      "name": "setProtocolFee",
      "outputs": [],
      "stateMutability": "nonpayable",
      "type": "function"
    },
    {
      "inputs": [
        {
          "internalType": "contract IRoyaltiesProvider",
          "name": "newRoyaltiesRegistry",
          "type": "address"
        }
      ],
      "name": "setRoyaltiesRegistry",
      "outputs": [],
      "stateMutability": "nonpayable",
      "type": "function"
    },
    {
      "inputs": [
        {
          "internalType": "bytes4",
          "name": "assetType",
          "type": "bytes4"
        },
        {
          "internalType": "address",
          "name": "proxy",
          "type": "address"
        }
      ],
      "name": "setTransferProxy",
      "outputs": [],
      "stateMutability": "nonpayable",
      "type": "function"
    },
    {
      "inputs": [
        {
          "internalType": "address",
          "name": "newOwner",
          "type": "address"
        }
      ],
      "name": "transferOwnership",
      "outputs": [],
      "stateMutability": "nonpayable",
      "type": "function"
    },
    {
      "inputs": [
        {
          "internalType": "contract INftTransferProxy",
          "name": "_transferProxy",
          "type": "address"
        },
        {
          "internalType": "contract IERC20TransferProxy",
          "name": "_erc20TransferProxy",
          "type": "address"
        },
        {
          "internalType": "uint256",
          "name": "newProtocolFee",
          "type": "uint256"
        },
        {
          "internalType": "address",
          "name": "newDefaultFeeReceiver",
          "type": "address"
        },
        {
          "internalType": "contract IRoyaltiesProvider",
          "name": "newRoyaltiesProvider",
          "type": "address"
        }
      ],
      "name": "__ExchangeV2_init",
      "outputs": [],
      "stateMutability": "nonpayable",
      "type": "function"
    }
  ],
  "bytecode": "0x608060405234801561001057600080fd5b50613e54806100206000396000f3fe6080604052600436106100fe5760003560e01c8063715018a611610095578063b39deb4611610064578063b39deb4614610271578063e2864fe314610291578063e66db25e146102b1578063e99a3f80146102d1578063f2fde38b146102e4576100fe565b8063715018a614610212578063787dce3d146102275780638da5cb5b14610247578063b0e21e8a1461025c576100fe565b806330c642f1116100d157806330c642f1146101a85780633abf6fd4146101c85780633be89922146101dd5780636d8f0694146101fd576100fe565b806302097ab1146101035780631372a625146101395780631cdfe3d81461015b57806320158c441461017b575b600080fd5b34801561010f57600080fd5b5061012361011e36600461341e565b610304565b604051610130919061383b565b60405180910390f35b34801561014557600080fd5b50610159610154366004613523565b610320565b005b34801561016757600080fd5b5061015961017636600461341e565b6103f4565b34801561018757600080fd5b5061019b6101963660046134ee565b610479565b6040516101309190613c52565b3480156101b457600080fd5b506101596101c3366004613506565b61048c565b3480156101d457600080fd5b5061012361055c565b3480156101e957600080fd5b506101596101f836600461341e565b61056c565b34801561020957600080fd5b506101236105f1565b34801561021e57600080fd5b50610159610601565b34801561023357600080fd5b506101596102423660046134ee565b6106ad565b34801561025357600080fd5b50610123610715565b34801561026857600080fd5b5061019b610724565b34801561027d57600080fd5b5061015961028c366004613506565b61072b565b34801561029d57600080fd5b506101596102ac3660046136ee565b6107ef565b3480156102bd57600080fd5b506101596102cc366004613483565b6108c2565b6101596102df366004613721565b610953565b3480156102f057600080fd5b506101596102ff36600461341e565b610a0f565b610164602052600090815260409020546001600160a01b031681565b600054610100900460ff16806103395750610339610b12565b80610347575060005460ff16155b6103825760405162461bcd60e51b815260040180806020018281038252602e815260200180613d8e602e913960400191505060405180910390fd5b600054610100900460ff161580156103ad576000805460ff1961ff0019909116610100171660011790555b6103b5610b23565b6103bd610bc5565b6103c78686610cbe565b6103d2848484610d68565b6103da610e44565b80156103ec576000805461ff00191690555b505050505050565b6103fc610f14565b6001600160a01b031661040d610715565b6001600160a01b031614610456576040805162461bcd60e51b81526020600482018190526024820152600080516020613dff833981519152604482015290519081900360640190fd5b61016380546001600160a01b0319166001600160a01b0392909216919091179055565b61012f6020526000908152604090205481565b610494610f14565b6001600160a01b03166104a5610715565b6001600160a01b0316146104ee576040805162461bcd60e51b81526020600482018190526024820152600080516020613dff833981519152604482015290519081900360640190fd5b6001600160e01b031982166000818152609760205260409081902080546001600160a01b0319166001600160a01b038516179055517f4b5aced933c0c9a88aeac3f0b3b72c5aaf75df8ebaf53225773248c4c31535939061055090849061383b565b60405180910390a25050565b610163546001600160a01b031681565b610574610f14565b6001600160a01b0316610585610715565b6001600160a01b0316146105ce576040805162461bcd60e51b81526020600482018190526024820152600080516020613dff833981519152604482015290519081900360640190fd5b61016280546001600160a01b0319166001600160a01b0392909216919091179055565b610162546001600160a01b031681565b610609610f14565b6001600160a01b031661061a610715565b6001600160a01b031614610663576040805162461bcd60e51b81526020600482018190526024820152600080516020613dff833981519152604482015290519081900360640190fd5b6033546040516000916001600160a01b0316907f8be0079c531659141344cd1fd0a4f28419497f9722a3daafe3b4186f6b6457e0908390a3603380546001600160a01b0319169055565b6106b5610f14565b6001600160a01b03166106c6610715565b6001600160a01b03161461070f576040805162461bcd60e51b81526020600482018190526024820152600080516020613dff833981519152604482015290519081900360640190fd5b61016155565b6033546001600160a01b031690565b6101615481565b610733610f14565b6001600160a01b0316610744610715565b6001600160a01b03161461078d576040805162461bcd60e51b81526020600482018190526024820152600080516020613dff833981519152604482015290519081900360640190fd5b6001600160e01b031982166000818152606560205260409081902080546001600160a01b0319166001600160a01b038516179055517fd2bf91075f105d0fd80328da28e20ebdad1c1261839711183bc29a44cbe6c72f9061055090849061383b565b80516001600160a01b0316610802610f14565b6001600160a01b0316146108315760405162461bcd60e51b815260040161082890613b8a565b60405180910390fd5b60808101516108525760405162461bcd60e51b8152600401610828906139f5565b600061085d82610f18565b600081815261012f602090815260409182902060001990558451908501515160608601515192519394507fbbdc98cb2835f4f846e6a63700d0498b4674f0e8858fd50c6379314227afa04e936108b69386939291613868565b60405180910390a15050565b6108ca610f14565b6001600160a01b03166108db610715565b6001600160a01b031614610924576040805162461bcd60e51b81526020600482018190526024820152600080516020613dff833981519152604482015290519081900360640190fd5b6001600160a01b0391821660009081526101646020526040902080546001600160a01b03191691909216179055565b61095d8484610f8d565b6109678282610f8d565b60408401516001600160a01b0316156109b35783604001516001600160a01b031682600001516001600160a01b0316146109b35760405162461bcd60e51b815260040161082890613b1f565b60408201516001600160a01b0316156109ff5783600001516001600160a01b031682604001516001600160a01b0316146109ff5760405162461bcd60e51b815260040161082890613a23565b610a098483610fa4565b50505050565b610a17610f14565b6001600160a01b0316610a28610715565b6001600160a01b031614610a71576040805162461bcd60e51b81526020600482018190526024820152600080516020613dff833981519152604482015290519081900360640190fd5b6001600160a01b038116610ab65760405162461bcd60e51b8152600401808060200182810382526026815260200180613cf96026913960400191505060405180910390fd5b6033546040516001600160a01b038084169216907f8be0079c531659141344cd1fd0a4f28419497f9722a3daafe3b4186f6b6457e090600090a3603380546001600160a01b0319166001600160a01b0392909216919091179055565b6000610b1d306111b2565b15905090565b600054610100900460ff1680610b3c5750610b3c610b12565b80610b4a575060005460ff16155b610b855760405162461bcd60e51b815260040180806020018281038252602e815260200180613d8e602e913960400191505060405180910390fd5b600054610100900460ff16158015610bb0576000805460ff1961ff0019909116610100171660011790555b8015610bc2576000805461ff00191690555b50565b600054610100900460ff1680610bde5750610bde610b12565b80610bec575060005460ff16155b610c275760405162461bcd60e51b815260040180806020018281038252602e815260200180613d8e602e913960400191505060405180910390fd5b600054610100900460ff16158015610c52576000805460ff1961ff0019909116610100171660011790555b6000610c5c610f14565b603380546001600160a01b0319166001600160a01b038316908117909155604051919250906000907f8be0079c531659141344cd1fd0a4f28419497f9722a3daafe3b4186f6b6457e0908290a3508015610bc2576000805461ff001916905550565b60976020527f4532fa16f071d6234e30e1a1e69b9806f04095edf37a1ca7a25c8d6af7861cc080546001600160a01b039283166001600160a01b0319918216179091557f30a684095c937b5aa064dcf94f9903a7d808e3efb22d8389dbd43080ad4ed3d5805493909216928116831790915563025ceed960e61b6000527f4b5822151ea34b7c8d9e37c3e466bcecb631efe6a9f26a4a4054110a93dd316f80549091169091179055565b600054610100900460ff1680610d815750610d81610b12565b80610d8f575060005460ff16155b610dca5760405162461bcd60e51b815260040180806020018281038252602e815260200180613d8e602e913960400191505060405180910390fd5b600054610100900460ff16158015610df5576000805460ff1961ff0019909116610100171660011790555b61016184905561016380546001600160a01b038086166001600160a01b0319928316179092556101628054928516929091169190911790558015610a09576000805461ff001916905550505050565b600054610100900460ff1680610e5d5750610e5d610b12565b80610e6b575060005460ff16155b610ea65760405162461bcd60e51b815260040180806020018281038252602e815260200180613d8e602e913960400191505060405180910390fd5b600054610100900460ff16158015610ed1576000805460ff1961ff0019909116610100171660011790555b610bb06040518060400160405280600881526020016745786368616e676560c01b815250604051806040016040528060018152602001601960f91b8152506111b8565b3390565b805160208201515160009190610f2d90611279565b606084015151610f3c90611279565b846080015160405160200180856001600160a01b031681526020018481526020018381526020018281526020019450505050506040516020818303038152906040528051906020012090505b919050565b610f96826112e3565b610fa082826113ad565b5050565b600080610fb18484611604565b915091506000610fc085610f18565b90506000610fcd85610f18565b90506000610fdb878461169d565b90506000610fe9878461169d565b90506000610ff9898985856116cc565b9050600081602001511161101f5760405162461bcd60e51b815260040161082890613a93565b60808901511561104a576020810151611039908490611750565b600086815261012f60205260409020555b608088015115611072578051611061908390611750565b600085815261012f60205260409020555b6000806110828989858e8e6117b1565b8a5191935091506001600160e01b0319166355575f5d60e11b14156111015787516001600160e01b0319166355575f5d60e11b14156110c057600080fd5b813410156110e05760405162461bcd60e51b815260040161082890613b62565b813411156110fc576110fc6110f53484611973565b33906119d0565b611150565b87516001600160e01b0319166355575f5d60e11b1415611150578034101561113b5760405162461bcd60e51b815260040161082890613b62565b80341115611150576111506110f53483611973565b7f268820db288a211986b26a8fda86b1e0046281b21206936bb0e61c67b5c79ef487878d600001518d60000151876020015188600001518f8f60405161119d9897969594939291906138af565b60405180910390a15050505050505050505050565b3b151590565b600054610100900460ff16806111d157506111d1610b12565b806111df575060005460ff16155b61121a5760405162461bcd60e51b815260040180806020018281038252602e815260200180613d8e602e913960400191505060405180910390fd5b600054610100900460ff16158015611245576000805460ff1961ff0019909116610100171660011790555b825160208085019190912083519184019190912060c99190915560ca558015611274576000805461ff00191690555b505050565b8051602091820151805190830120604080517f452a0dc408cb0d27ffc3b3caff933a5208040a53a9dbecd8d89cad2c0d40e00c818601526001600160e01b031990931683820152606080840192909252805180840390920182526080909201909152805191012090565b60a081015115806112f75750428160a00151105b611348576040805162461bcd60e51b815260206004820152601d60248201527f4f726465722073746172742076616c69646174696f6e206661696c6564000000604482015290519081900360640190fd5b60c0810151158061135c5750428160c00151115b610bc2576040805162461bcd60e51b815260206004820152601b60248201527f4f7264657220656e642076616c69646174696f6e206661696c65640000000000604482015290519081900360640190fd5b60808201516114225781516001600160a01b03166113c9610f14565b6001600160a01b03161461141d576040805162461bcd60e51b815260206004820152601660248201527536b0b5b2b91034b9903737ba103a3c1039b2b73232b960511b604482015290519081900360640190fd5b610fa0565b81516001600160a01b0316611435610f14565b6001600160a01b031614610fa057600061144e83611a68565b83519091506001600160a01b031661146f8361146984611b58565b90611ba4565b6001600160a01b031614611274578251611491906001600160a01b03166111b2565b156115cd578251630b135d3f60e11b906001600160a01b0316631626ba7e6114b884611b58565b856040518363ffffffff1660e01b81526004018083815260200180602001828103825283818151815260200191508051906020019080838360005b8381101561150b5781810151838201526020016114f3565b50505050905090810190601f1680156115385780820380516001836020036101000a031916815260200191505b50935050505060206040518083038186803b15801561155657600080fd5b505afa15801561156a573d6000803e3d6000fd5b505050506040513d602081101561158057600080fd5b50516001600160e01b031916146115c85760405162461bcd60e51b815260040180806020018281038252602b815260200180613d63602b913960400191505060405180910390fd5b611274565b60405162461bcd60e51b8152600401808060200182810382526022815260200180613d416022913960400191505060405180910390fd5b61160c6130ef565b6116146130ef565b60208401515160608401515161162a9190611c24565b80519092506001600160e01b0319166116555760405162461bcd60e51b815260040161082890613af3565b60608401515160208401515161166b9190611c24565b80519091506001600160e01b0319166116965760405162461bcd60e51b815260040161082890613af3565b9250929050565b60008260800151600014156116b4575060006116c6565b50600081815261012f60205260409020545b92915050565b6116d4613107565b6000806116e18786611c64565b915091506000806116f28887611c64565b91509150838111156117255761171a84848a60200151602001518b6060015160200151611ca8565b945050505050611748565b6117418960200151602001518a60600151602001518484611d2d565b9450505050505b949350505050565b6000828201838110156117aa576040805162461bcd60e51b815260206004820152601b60248201527f536166654d6174683a206164646974696f6e206f766572666c6f770000000000604482015290519081900360640190fd5b9392505050565b60008060006117c888600001518860000151611db3565b865160208801519094509250905060006117e186611e84565b905060006117ee86611e84565b905060018360028111156117fe57fe5b14156118775787518751611837919084848e8e7f1a0388dd7519a093630516a672419a2562e0e74deb98af068657dc265f0164c9611f45565b9450611872898960200151886000015185600001517fb45a3ba14423c8f1b71cc094845ab56b5294dbe8d8e3ba53f3cdb63d59a4044b612009565b611966565b600283600281111561188557fe5b14156118f9576118c28860200151876000015183858d8f7fb45a3ba14423c8f1b71cc094845ab56b5294dbe8d8e3ba53f3cdb63d59a4044b611f45565b885188518351929650611872928d9291907f1a0388dd7519a093630516a672419a2562e0e74deb98af068657dc265f0164c9612009565b87518751825161192d928d9290917f1a0388dd7519a093630516a672419a2562e0e74deb98af068657dc265f0164c9612009565b611966898960200151886000015185600001517fb45a3ba14423c8f1b71cc094845ab56b5294dbe8d8e3ba53f3cdb63d59a4044b612009565b5050509550959350505050565b6000828211156119ca576040805162461bcd60e51b815260206004820152601e60248201527f536166654d6174683a207375627472616374696f6e206f766572666c6f770000604482015290519081900360640190fd5b50900390565b6040516000906001600160a01b0384169083908381818185875af1925050503d8060008114611a1b576040519150601f19603f3d011682016040523d82523d6000602084013e611a20565b606091505b5050905080611274576040805162461bcd60e51b815260206004820152600f60248201526e1d1c985b9cd9995c8819985a5b1959608a1b604482015290519081900360640190fd5b60007f477ed43b8020849b755512278536c3766a3b4ab547519949a75f483372493f8d8260000151611a9d84602001516121ae565b8460400151611aaf86606001516121ae565b86608001518760a001518860c001518960e001518a610100015180519060200120604051602001808b81526020018a6001600160a01b03168152602001898152602001886001600160a01b03168152602001878152602001868152602001858152602001848152602001836001600160e01b03191681526020018281526020019a5050505050505050505050604051602081830303815290604052805190602001209050919050565b6000611b6261221e565b82604051602001808061190160f01b81525060020183815260200182815260200192505050604051602081830303815290604052805190602001209050919050565b60008151604114611bfc576040805162461bcd60e51b815260206004820152601f60248201527f45434453413a20696e76616c6964207369676e6174757265206c656e67746800604482015290519081900360640190fd5b60208201516040830151606084015160001a611c1a8682858561225e565b9695505050505050565b611c2c6130ef565b6000611c3884846123dc565b80519091506001600160e01b031916611c5d57611c5583856123dc565b9150506116c6565b90506116c6565b600080611c828385606001516020015161197390919063ffffffff16565b9050611c9f846020015160200151856060015160200151836125f8565b91509250929050565b611cb0613107565b6000611cbd8585856125f8565b905085811115611d14576040805162461bcd60e51b815260206004820152601860248201527f66696c6c4c6566743a20756e61626c6520746f2066696c6c0000000000000000604482015290519081900360640190fd5b5050604080518082019091529384525050602082015290565b611d35613107565b6000611d428387876125f8565b905083811115611d99576040805162461bcd60e51b815260206004820152601960248201527f66696c6c52696768743a20756e61626c6520746f2066696c6c00000000000000604482015290519081900360640190fd5b604080518082019091529283526020830152509392505050565b60006001600160e01b031983166355575f5d60e11b1415611dd6575060016116c6565b6001600160e01b031982166355575f5d60e11b1415611df7575060026116c6565b6001600160e01b031983166322ba176160e21b1415611e18575060016116c6565b6001600160e01b031982166322ba176160e21b1415611e39575060026116c6565b6001600160e01b0319831663025ceed960e61b1415611e5a575060016116c6565b6001600160e01b0319821663025ceed960e61b1415611e7b575060026116c6565b50600092915050565b611e8c613121565b60e08201516001600160e01b031916632611a13360e11b1415611ed557611eb782610100015161265c565b805151909150611ed0578151611ecd9082612678565b90505b610f88565b60e08201516001600160e01b03199081161415611ef8578151611ecd9082612678565b6040805162461bcd60e51b815260206004820152601760248201527f556e6b6e6f776e204f7264657220646174612074797065000000000000000000604482015290519081900360640190fd5b6000611f5988610161548860200151612719565b90506000611f6a828a8a888761278c565b9050611f7a8585838c8c88612888565b9050611faf85828b8a602001518c887fdfdfdaf4cc275341b6776a7ee23b953990b8d991717449077287da70f32cf9556129e1565b5080915050611fe785828b89602001518c887fdfdfdaf4cc275341b6776a7ee23b953990b8d991717449077287da70f32cf9556129e1565b5080915050611ffd85828a896000015187612009565b50979650505050505050565b600084815b60018551038110156120f957600061204f86838151811061202b57fe5b6020026020010151602001516001600160601b031689612aaf90919063ffffffff16565b905061208486838151811061206057fe5b6020026020010151602001516001600160601b03168561175090919063ffffffff16565b935080156120f0576120968382611973565b92506120f060405180604001604052808b815260200183815250888885815181106120bd57fe5b602002602001015160000151887fa10bb5b2060a412d05113732875a5431ca23453eb93f797e0ffcb5b40e5f2c3e612ac1565b5060010161200e565b5060008460018651038151811061210c57fe5b6020026020010151905061213681602001516001600160601b03168461175090919063ffffffff16565b925082612710146121595760405162461bcd60e51b815260040161082890613abc565b81156121a4576121a460405180604001604052808a815260200184815250878360000151877fa10bb5b2060a412d05113732875a5431ca23453eb93f797e0ffcb5b40e5f2c3e612ac1565b5050505050505050565b60007fdb6f72e915676cfc289da13bc4ece054fd17b1df6d77ffc4a60510718c236b086121de8360000151611279565b8360200151604051602001808481526020018381526020018281526020019350505050604051602081830303815290604052805190602001209050919050565b60006122597f8b73c3c69bb8fe3d512ecc4cf759cc79239f7b179b0ffacaa9a75d522b39400f61224c612e48565b612254612e4e565b612e54565b905090565b60007f7fffffffffffffffffffffffffffffff5d576e7357a4501ddfe92f46681b20a08211156122bf5760405162461bcd60e51b8152600401808060200182810382526022815260200180613d1f6022913960400191505060405180910390fd5b8360ff16601b14806122d457508360ff16601c145b61230f5760405162461bcd60e51b8152600401808060200182810382526022815260200180613dbc6022913960400191505060405180910390fd5b600060018686868660405160008152602001604052604051808581526020018460ff1681526020018381526020018281526020019450505050506020604051602081039080840390855afa15801561236b573d6000803e3d6000fd5b5050604051601f1901519150506001600160a01b0381166123d3576040805162461bcd60e51b815260206004820152601860248201527f45434453413a20696e76616c6964207369676e61747572650000000000000000604482015290519081900360640190fd5b95945050505050565b6123e46130ef565b825182516001600160e01b031982166355575f5d60e11b141561244f576001600160e01b031981166355575f5d60e11b14156124245784925050506116c6565b50506040805180820182526000808252825160208181019094529081529181019190915290506116c6565b6001600160e01b031982166322ba176160e21b1415612494576001600160e01b031981166322ba176160e21b14156124245761248b8585612eb6565b925050506116c6565b6001600160e01b031982166339d690a360e11b14156124d0576001600160e01b031981166339d690a360e11b14156124245761248b8585612eb6565b6001600160e01b0319821663025ceed960e61b141561250c576001600160e01b0319811663025ceed960e61b14156124245761248b8585612eb6565b6001600160e01b031982166000908152606560205260409020546001600160a01b031680156125c1576040516306d3f7cb60e41b81526001600160a01b03821690636d3f7cb0906125639089908990600401613baf565b60006040518083038186803b15801561257b57600080fd5b505afa15801561258f573d6000803e3d6000fd5b505050506040513d6000823e601f3d908101601f191682016040526125b7919081019061358a565b93505050506116c6565b6001600160e01b031983811690831614156125e0576125b78686612eb6565b60405162461bcd60e51b815260040161082890613987565b6000612605848484612f13565b15612648576040805162461bcd60e51b815260206004820152600e60248201526d3937bab73234b7339032b93937b960911b604482015290519081900360640190fd5b611748836126568685612fa2565b90612ffb565b612664613121565b818060200190518101906116c69190613652565b612680613121565b604080516001808252818301909252600091816020015b61269f61313b565b81526020019060019003908161269757905050905083816000815181106126c257fe5b6020026020010151600001906001600160a01b031690816001600160a01b031681525050612710816000815181106126f657fe5b6020908102919091018101516001600160601b0392909216910152825250919050565b600061272f6127288585612aaf565b8590611750565b905060005b82518110156127845761277a61277384838151811061274f57fe5b6020026020010151602001516001600160601b031687612aaf90919063ffffffff16565b8390611750565b9150600101612734565b509392505050565b60008060006127b288886127ad600261016154612fa290919063ffffffff16565b613062565b9092509050801561287d5784516000906001600160e01b0319166322ba176160e21b14156127f95785602001518060200190518101906127f2919061343a565b9050612832565b85516001600160e01b03191663025ceed960e61b1415612832576000866020015180602001905181019061282d9190613456565b509150505b61287b6040518060400160405280888152602001848152508861285484613084565b887ff87e69cb514f255f3d32f9d90f25160a10d0cdefe6618a6406db334d4450595c612ac1565b505b509695505050505050565b84516000906001600160e01b03191663025ceed960e61b148015906128bf575085516001600160e01b0319166339d690a360e11b14155b156128cb575083611c1a565b60008087602001518060200190518101906128e69190613456565b61016254604051634e53ee3d60e11b81529294509092506000916001600160a01b0390911690639ca7dc7a90612922908690869060040161384f565b600060405180830381600087803b15801561293c57600080fd5b505af1158015612950573d6000803e3d6000fd5b505050506040513d6000823e601f3d908101601f1916820160405261297891908101906134bb565b90506000806129ac8c8b8b868c8c7fb3c5c697ec0b511b76d12f6293e6ee827b1e1df79ac7c64d0466d945904893d76129e1565b915091506113888111156129d25760405162461bcd60e51b8152600401610828906139be565b509a9950505050505050505050565b856000805b8651811015612aa257612a228782815181106129fe57fe5b6020026020010151602001516001600160601b03168361175090919063ffffffff16565b9150600080612a52858b8b8681518110612a3857fe5b6020026020010151602001516001600160601b0316613062565b90955085925090508015612a9857612a9860405180604001604052808e815260200183815250898b8681518110612a8557fe5b6020026020010151600001518a8a612ac1565b50506001016129e6565b5097509795505050505050565b60006117aa6127106126568585612fa2565b8451516001600160e01b0319166355575f5d60e11b1415612afa576020850151612af5906001600160a01b038516906119d0565b612e02565b8451516001600160e01b0319166322ba176160e21b1415612bd8576000856000015160200151806020019051810190612b33919061343a565b6322ba176160e21b600052609760209081527f4532fa16f071d6234e30e1a1e69b9806f04095edf37a1ca7a25c8d6af7861cc0549088015160405163776062c360e01b81529293506001600160a01b039091169163776062c391612ba09185918a918a919060040161395d565b600060405180830381600087803b158015612bba57600080fd5b505af1158015612bce573d6000803e3d6000fd5b5050505050612e02565b8451516001600160e01b0319166339d690a360e11b1415612cd857600080866000015160200151806020019051810190612c129190613456565b915091508660200151600114612c3a5760405162461bcd60e51b815260040161082890613a67565b6339d690a360e11b60005260976020527f30a684095c937b5aa064dcf94f9903a7d808e3efb22d8389dbd43080ad4ed3d554604051637b84dc8360e11b81526001600160a01b039091169063f709b90690612c9f9085908a908a90879060040161395d565b600060405180830381600087803b158015612cb957600080fd5b505af1158015612ccd573d6000803e3d6000fd5b505050505050612e02565b8451516001600160e01b03191663025ceed960e61b1415612d8157600080866000015160200151806020019051810190612d129190613456565b63025ceed960e61b600052609760209081527f4b5822151ea34b7c8d9e37c3e466bcecb631efe6a9f26a4a4054110a93dd316f54908a0151604051639c1c2ee960e01b81529395509193506001600160a01b031691639c1c2ee991612c9f9186918b918b91889160040161391a565b8451516001600160e01b031916600090815260976020526040908190205490516354bc0cf160e01b81526001600160a01b03909116906354bc0cf190612dcf90889088908890600401613bd4565b600060405180830381600087803b158015612de957600080fd5b505af1158015612dfd573d6000803e3d6000fd5b505050505b7fcae9d16f553e92058883de29cb3135dbc0c1e31fd7eace79fef1d80577fe482e8585858585604051612e39959493929190613c07565b60405180910390a15050505050565b60c95490565b60ca5490565b6000838383612e616130c3565b3060405160200180868152602001858152602001848152602001838152602001826001600160a01b03168152602001955050505050506040516020818303038152906040528051906020012090509392505050565b612ebe6130ef565b60208084015180519082012083820151805192019190912080821415612ee85784925050506116c6565b5050604080518082018252600080825282516020808201909452908152918101919091529392505050565b600082612f5a576040805162461bcd60e51b815260206004820152601060248201526f6469766973696f6e206279207a65726f60801b604482015290519081900360640190fd5b811580612f65575083155b15612f72575060006117aa565b60008380612f7c57fe5b8584099050612f8b8584612fa2565b612f97826103e8612fa2565b101595945050505050565b600082612fb1575060006116c6565b82820282848281612fbe57fe5b04146117aa5760405162461bcd60e51b8152600401808060200182810382526021815260200180613dde6021913960400191505060405180910390fd5b6000808211613051576040805162461bcd60e51b815260206004820152601a60248201527f536166654d6174683a206469766973696f6e206279207a65726f000000000000604482015290519081900360640190fd5b81838161305a57fe5b049392505050565b600080613078856130738686612aaf565b6130c7565b91509150935093915050565b6001600160a01b038082166000908152610164602052604081205490911680156130af579050610f88565b5050610163546001600160a01b0316919050565b4690565b600080828411156130e6576130dc8484611973565b9150829050611696565b50600093915050565b60408051808201909152600081526060602082015290565b604051806040016040528060008152602001600081525090565b604051806040016040528060608152602001606081525090565b604080518082019091526000808252602082015290565b8035610f8881613ccd565b600082601f83011261316d578081fd5b8151602067ffffffffffffffff8083111561318457fe5b6131918283850201613c5b565b838152828101908684016040808702890186018a10156131af578788fd5b875b878110156132175781838c0312156131c7578889fd5b815182810181811088821117156131da57fe5b835283516131e781613ccd565b8152838801516001600160601b0381168114613201578a8bfd5b81890152855293860193918101916001016131b1565b50919998505050505050505050565b8035610f8881613ce2565b600082601f830112613241578081fd5b813561325461324f82613c7f565b613c5b565b818152846020838601011115613268578283fd5b816020850160208301379081016020019190915292915050565b60006040808385031215613294578182fd5b805181810167ffffffffffffffff82821081831117156132b057fe5b8184528294508535818111156132c557600080fd5b86018088038513156132d657600080fd5b6080840183811083821117156132e857fe5b9094528335936132f785613ce2565b9382526020840135938185111561330d57600080fd5b61331988868301613231565b60608501525050815260209384013593019290925292915050565b6000610120808385031215613347578182fd5b61335081613c5b565b91505061335c82613152565b8152602082013567ffffffffffffffff8082111561337957600080fd5b61338585838601613282565b602084015261339660408501613152565b604084015260608401359150808211156133af57600080fd5b6133bb85838601613282565b60608401526080840135608084015260a084013560a084015260c084013560c08401526133ea60e08501613226565b60e08401526101009150818401358181111561340557600080fd5b61341186828701613231565b8385015250505092915050565b60006020828403121561342f578081fd5b81356117aa81613ccd565b60006020828403121561344b578081fd5b81516117aa81613ccd565b60008060408385031215613468578081fd5b825161347381613ccd565b6020939093015192949293505050565b60008060408385031215613495578182fd5b82356134a081613ccd565b915060208301356134b081613ccd565b809150509250929050565b6000602082840312156134cc578081fd5b815167ffffffffffffffff8111156134e2578182fd5b6117488482850161315d565b6000602082840312156134ff578081fd5b5035919050565b60008060408385031215613518578182fd5b82356134a081613ce2565b600080600080600060a0868803121561353a578081fd5b853561354581613ccd565b9450602086013561355581613ccd565b935060408601359250606086013561356c81613ccd565b9150608086013561357c81613ccd565b809150509295509295909350565b6000602080838503121561359c578182fd5b825167ffffffffffffffff808211156135b3578384fd5b90840190604082870312156135c6578384fd5b6040516040810181811083821117156135db57fe5b60405282516135e981613ce2565b815282840151828111156135fb578586fd5b80840193505086601f84011261360f578485fd5b8251915061361f61324f83613c7f565b8281528785848601011115613632578586fd5b61364183868301878701613ca1565b938101939093525090949350505050565b600060208284031215613663578081fd5b815167ffffffffffffffff8082111561367a578283fd5b908301906040828603121561368d578283fd5b6040516040810181811083821117156136a257fe5b6040528251828111156136b3578485fd5b6136bf8782860161315d565b8252506020830151828111156136d3578485fd5b6136df8782860161315d565b60208301525095945050505050565b6000602082840312156136ff578081fd5b813567ffffffffffffffff811115613715578182fd5b61174884828501613334565b60008060008060808587031215613736578182fd5b843567ffffffffffffffff8082111561374d578384fd5b61375988838901613334565b9550602087013591508082111561376e578384fd5b61377a88838901613231565b9450604087013591508082111561378f578384fd5b61379b88838901613334565b935060608701359150808211156137b0578283fd5b506137bd87828801613231565b91505092959194509250565b600063ffffffff60e01b825116835260208201516040602085015280518060408601526137fd816060870160208501613ca1565b601f01601f1916939093016060019392505050565b600081516040845261382760408501826137c9565b602093840151949093019390935250919050565b6001600160a01b0391909116815260200190565b6001600160a01b03929092168252602082015260400190565b8481526001600160a01b0384166020820152608060408201819052600090613892908301856137c9565b82810360608401526138a481856137c9565b979650505050505050565b888152602081018890526001600160a01b038781166040830152861660608201526080810185905260a0810184905261010060c082018190526000906138f7838201866137c9565b905082810360e084015261390b81856137c9565b9b9a5050505050505050505050565b6001600160a01b03958616815293851660208501529190931660408301526060820192909252608081019190915260c060a0820181905260009082015260e00190565b6001600160a01b039485168152928416602084015292166040820152606081019190915260800190565b60208082526017908201527f6e6f7420666f756e64204941737365744d617463686572000000000000000000604082015260600190565b6020808252601d908201527f526f79616c746965732061726520746f6f206869676820283e35302529000000604082015260600190565b6020808252601490820152730c081cd85b1d0818d85b89dd081899481d5cd95960621b604082015260600190565b60208082526024908201527f72696768744f726465722e74616b657220766572696669636174696f6e2066616040820152631a5b195960e21b606082015260800190565b60208082526012908201527132b9319b9918903b30b63ab29032b93937b960711b604082015260600190565b6020808252600f908201526e1b9bdd1a1a5b99c81d1bc8199a5b1b608a1b604082015260600190565b6020808252601e908201527f53756d207061796f75747320427073206e6f7420657175616c20313030250000604082015260600190565b6020808252601290820152710c2e6e6cae8e640c8dedc4ee840dac2e8c6d60731b604082015260600190565b60208082526023908201527f6c6566744f726465722e74616b657220766572696669636174696f6e206661696040820152621b195960ea1b606082015260800190565b6020808252600e908201526d0dcdee840cadcdeeaced040cae8d60931b604082015260600190565b6020808252600b908201526a3737ba10309036b0b5b2b960a91b604082015260600190565b600060408252613bc260408301856137c9565b82810360208401526123d381856137c9565b600060608252613be76060830186613812565b6001600160a01b0394851660208401529290931660409091015292915050565b600060a08252613c1a60a0830188613812565b6001600160a01b0396871660208401529490951660408201526001600160e01b03199283166060820152911660809091015292915050565b90815260200190565b60405181810167ffffffffffffffff81118282101715613c7757fe5b604052919050565b600067ffffffffffffffff821115613c9357fe5b50601f01601f191660200190565b60005b83811015613cbc578181015183820152602001613ca4565b83811115610a095750506000910152565b6001600160a01b0381168114610bc257600080fd5b6001600160e01b031981168114610bc257600080fdfe4f776e61626c653a206e6577206f776e657220697320746865207a65726f206164647265737345434453413a20696e76616c6964207369676e6174757265202773272076616c75656f72646572207369676e617475726520766572696669636174696f6e206572726f72636f6e7472616374206f72646572207369676e617475726520766572696669636174696f6e206572726f72496e697469616c697a61626c653a20636f6e747261637420697320616c726561647920696e697469616c697a656445434453413a20696e76616c6964207369676e6174757265202776272076616c7565536166654d6174683a206d756c7469706c69636174696f6e206f766572666c6f774f776e61626c653a2063616c6c6572206973206e6f7420746865206f776e6572a26469706673582212207556dc6995cfd1d9ed5905b432d99b81d7962cb7fce2403703e4bb97b996ac0564736f6c63430007060033",
  "immutableReferences": {},
  "source": "// SPDX-License-Identifier: MIT\n\npragma solidity 0.7.6;\npragma abicoder v2;\n\nimport \"./ExchangeV2Core.sol\";\nimport \"./RaribleTransferManager.sol\";\nimport \"@rarible/royalties/contracts/IRoyaltiesProvider.sol\";\n\ncontract ExchangeV2 is ExchangeV2Core, RaribleTransferManager {\n    function __ExchangeV2_init(\n        INftTransferProxy _transferProxy,\n        IERC20TransferProxy _erc20TransferProxy,\n        uint newProtocolFee,\n        address newDefaultFeeReceiver,\n        IRoyaltiesProvider newRoyaltiesProvider\n    ) external initializer {\n        __Context_init_unchained();\n        __Ownable_init_unchained();\n        __TransferExecutor_init_unchained(_transferProxy, _erc20TransferProxy);\n        __RaribleTransferManager_init_unchained(newProtocolFee, newDefaultFeeReceiver, newRoyaltiesProvider);\n        __OrderValidator_init_unchained();\n    }\n}\n",
  "sourcePath": "/home/quadro/Projects/rarible/protocol-contracts/exchange-v2/contracts/ExchangeV2.sol",
  "compiler": {
    "name": "solc",
    "version": "0.7.6+commit.7338295f.Emscripten.clang"
  },
  "schemaVersion": "3.4.0",
  "updatedAt": "2021-06-30T15:26:11.712Z",
  "networkType": "ethereum",
  "devdoc": {
    "kind": "dev",
    "methods": {
      "owner()": {
        "details": "Returns the address of the current owner."
      },
      "renounceOwnership()": {
        "details": "Leaves the contract without owner. It will not be possible to call `onlyOwner` functions anymore. Can only be called by the current owner. NOTE: Renouncing ownership will leave the contract without an owner, thereby removing any functionality that is only available to the owner."
      },
      "transferOwnership(address)": {
        "details": "Transfers ownership of the contract to a new account (`newOwner`). Can only be called by the current owner."
      }
    },
    "version": 1
  },
  "userdoc": {
    "kind": "user",
    "methods": {},
    "version": 1
  }
}