{
  "contractName": "ExchangeV2",
  "abi": [
    {
      "anonymous": false,
      "inputs": [
        {
          "indexed": false,
          "internalType": "bytes32",
          "name": "hash",
          "type": "bytes32"
        }
      ],
      "name": "Cancel",
      "type": "event"
    },
    {
      "anonymous": false,
      "inputs": [
        {
          "indexed": false,
          "internalType": "bytes32",
          "name": "leftHash",
          "type": "bytes32"
        },
        {
          "indexed": false,
          "internalType": "bytes32",
          "name": "rightHash",
          "type": "bytes32"
        },
        {
          "indexed": false,
          "internalType": "address",
          "name": "leftMaker",
          "type": "address"
        },
        {
          "indexed": false,
          "internalType": "address",
          "name": "rightMaker",
          "type": "address"
        },
        {
          "indexed": false,
          "internalType": "uint256",
          "name": "newLeftFill",
          "type": "uint256"
        },
        {
          "indexed": false,
          "internalType": "uint256",
          "name": "newRightFill",
          "type": "uint256"
        }
      ],
      "name": "Match",
      "type": "event"
    },
    {
      "anonymous": false,
      "inputs": [
        {
          "indexed": true,
          "internalType": "bytes4",
          "name": "assetType",
          "type": "bytes4"
        },
        {
          "indexed": false,
          "internalType": "address",
          "name": "matcher",
          "type": "address"
        }
      ],
      "name": "MatcherChange",
      "type": "event"
    },
    {
      "anonymous": false,
      "inputs": [
        {
          "indexed": true,
          "internalType": "address",
          "name": "previousOwner",
          "type": "address"
        },
        {
          "indexed": true,
          "internalType": "address",
          "name": "newOwner",
          "type": "address"
        }
      ],
      "name": "OwnershipTransferred",
      "type": "event"
    },
    {
      "anonymous": false,
      "inputs": [
        {
          "indexed": true,
          "internalType": "bytes4",
          "name": "assetType",
          "type": "bytes4"
        },
        {
          "indexed": false,
          "internalType": "address",
          "name": "proxy",
          "type": "address"
        }
      ],
      "name": "ProxyChange",
      "type": "event"
    },
    {
      "anonymous": false,
      "inputs": [
        {
          "components": [
            {
              "components": [
                {
                  "internalType": "bytes4",
                  "name": "assetClass",
                  "type": "bytes4"
                },
                {
                  "internalType": "bytes",
                  "name": "data",
                  "type": "bytes"
                }
              ],
              "internalType": "struct LibAsset.AssetType",
              "name": "assetType",
              "type": "tuple"
            },
            {
              "internalType": "uint256",
              "name": "value",
              "type": "uint256"
            }
          ],
          "indexed": false,
          "internalType": "struct LibAsset.Asset",
          "name": "asset",
          "type": "tuple"
        },
        {
          "indexed": false,
          "internalType": "address",
          "name": "from",
          "type": "address"
        },
        {
          "indexed": false,
          "internalType": "address",
          "name": "to",
          "type": "address"
        },
        {
          "indexed": false,
          "internalType": "bytes4",
          "name": "transferDirection",
          "type": "bytes4"
        },
        {
          "indexed": false,
          "internalType": "bytes4",
          "name": "transferType",
          "type": "bytes4"
        }
      ],
      "name": "Transfer",
      "type": "event"
    },
    {
      "inputs": [],
      "name": "buyerFee",
      "outputs": [
        {
          "internalType": "uint256",
          "name": "",
          "type": "uint256"
        }
      ],
      "stateMutability": "view",
      "type": "function"
    },
    {
      "inputs": [
        {
          "components": [
            {
              "internalType": "address",
              "name": "maker",
              "type": "address"
            },
            {
              "components": [
                {
                  "components": [
                    {
                      "internalType": "bytes4",
                      "name": "assetClass",
                      "type": "bytes4"
                    },
                    {
                      "internalType": "bytes",
                      "name": "data",
                      "type": "bytes"
                    }
                  ],
                  "internalType": "struct LibAsset.AssetType",
                  "name": "assetType",
                  "type": "tuple"
                },
                {
                  "internalType": "uint256",
                  "name": "value",
                  "type": "uint256"
                }
              ],
              "internalType": "struct LibAsset.Asset",
              "name": "makeAsset",
              "type": "tuple"
            },
            {
              "internalType": "address",
              "name": "taker",
              "type": "address"
            },
            {
              "components": [
                {
                  "components": [
                    {
                      "internalType": "bytes4",
                      "name": "assetClass",
                      "type": "bytes4"
                    },
                    {
                      "internalType": "bytes",
                      "name": "data",
                      "type": "bytes"
                    }
                  ],
                  "internalType": "struct LibAsset.AssetType",
                  "name": "assetType",
                  "type": "tuple"
                },
                {
                  "internalType": "uint256",
                  "name": "value",
                  "type": "uint256"
                }
              ],
              "internalType": "struct LibAsset.Asset",
              "name": "takeAsset",
              "type": "tuple"
            },
            {
              "internalType": "uint256",
              "name": "salt",
              "type": "uint256"
            },
            {
              "internalType": "uint256",
              "name": "start",
              "type": "uint256"
            },
            {
              "internalType": "uint256",
              "name": "end",
              "type": "uint256"
            },
            {
              "internalType": "bytes4",
              "name": "dataType",
              "type": "bytes4"
            },
            {
              "internalType": "bytes",
              "name": "data",
              "type": "bytes"
            }
          ],
          "internalType": "struct LibOrder.Order",
          "name": "order",
          "type": "tuple"
        }
      ],
      "name": "cancel",
      "outputs": [],
      "stateMutability": "nonpayable",
      "type": "function"
    },
    {
      "inputs": [],
      "name": "communityWallet",
      "outputs": [
        {
          "internalType": "address",
          "name": "",
          "type": "address"
        }
      ],
      "stateMutability": "view",
      "type": "function"
    },
    {
      "inputs": [
        {
          "internalType": "bytes32",
          "name": "",
          "type": "bytes32"
        }
      ],
      "name": "fills",
      "outputs": [
        {
          "internalType": "uint256",
          "name": "",
          "type": "uint256"
        }
      ],
      "stateMutability": "view",
      "type": "function"
    },
    {
      "inputs": [],
      "name": "getChainId",
      "outputs": [
        {
          "internalType": "uint256",
          "name": "chainId",
          "type": "uint256"
        }
      ],
      "stateMutability": "view",
      "type": "function"
    },
    {
      "inputs": [
        {
          "components": [
            {
              "internalType": "address",
              "name": "maker",
              "type": "address"
            },
            {
              "components": [
                {
                  "components": [
                    {
                      "internalType": "bytes4",
                      "name": "assetClass",
                      "type": "bytes4"
                    },
                    {
                      "internalType": "bytes",
                      "name": "data",
                      "type": "bytes"
                    }
                  ],
                  "internalType": "struct LibAsset.AssetType",
                  "name": "assetType",
                  "type": "tuple"
                },
                {
                  "internalType": "uint256",
                  "name": "value",
                  "type": "uint256"
                }
              ],
              "internalType": "struct LibAsset.Asset",
              "name": "makeAsset",
              "type": "tuple"
            },
            {
              "internalType": "address",
              "name": "taker",
              "type": "address"
            },
            {
              "components": [
                {
                  "components": [
                    {
                      "internalType": "bytes4",
                      "name": "assetClass",
                      "type": "bytes4"
                    },
                    {
                      "internalType": "bytes",
                      "name": "data",
                      "type": "bytes"
                    }
                  ],
                  "internalType": "struct LibAsset.AssetType",
                  "name": "assetType",
                  "type": "tuple"
                },
                {
                  "internalType": "uint256",
                  "name": "value",
                  "type": "uint256"
                }
              ],
              "internalType": "struct LibAsset.Asset",
              "name": "takeAsset",
              "type": "tuple"
            },
            {
              "internalType": "uint256",
              "name": "salt",
              "type": "uint256"
            },
            {
              "internalType": "uint256",
              "name": "start",
              "type": "uint256"
            },
            {
              "internalType": "uint256",
              "name": "end",
              "type": "uint256"
            },
            {
              "internalType": "bytes4",
              "name": "dataType",
              "type": "bytes4"
            },
            {
              "internalType": "bytes",
              "name": "data",
              "type": "bytes"
            }
          ],
          "internalType": "struct LibOrder.Order",
          "name": "orderLeft",
          "type": "tuple"
        },
        {
          "internalType": "bytes",
          "name": "signatureLeft",
          "type": "bytes"
        },
        {
          "components": [
            {
              "internalType": "address",
              "name": "maker",
              "type": "address"
            },
            {
              "components": [
                {
                  "components": [
                    {
                      "internalType": "bytes4",
                      "name": "assetClass",
                      "type": "bytes4"
                    },
                    {
                      "internalType": "bytes",
                      "name": "data",
                      "type": "bytes"
                    }
                  ],
                  "internalType": "struct LibAsset.AssetType",
                  "name": "assetType",
                  "type": "tuple"
                },
                {
                  "internalType": "uint256",
                  "name": "value",
                  "type": "uint256"
                }
              ],
              "internalType": "struct LibAsset.Asset",
              "name": "makeAsset",
              "type": "tuple"
            },
            {
              "internalType": "address",
              "name": "taker",
              "type": "address"
            },
            {
              "components": [
                {
                  "components": [
                    {
                      "internalType": "bytes4",
                      "name": "assetClass",
                      "type": "bytes4"
                    },
                    {
                      "internalType": "bytes",
                      "name": "data",
                      "type": "bytes"
                    }
                  ],
                  "internalType": "struct LibAsset.AssetType",
                  "name": "assetType",
                  "type": "tuple"
                },
                {
                  "internalType": "uint256",
                  "name": "value",
                  "type": "uint256"
                }
              ],
              "internalType": "struct LibAsset.Asset",
              "name": "takeAsset",
              "type": "tuple"
            },
            {
              "internalType": "uint256",
              "name": "salt",
              "type": "uint256"
            },
            {
              "internalType": "uint256",
              "name": "start",
              "type": "uint256"
            },
            {
              "internalType": "uint256",
              "name": "end",
              "type": "uint256"
            },
            {
              "internalType": "bytes4",
              "name": "dataType",
              "type": "bytes4"
            },
            {
              "internalType": "bytes",
              "name": "data",
              "type": "bytes"
            }
          ],
          "internalType": "struct LibOrder.Order",
          "name": "orderRight",
          "type": "tuple"
        },
        {
          "internalType": "bytes",
          "name": "signatureRight",
          "type": "bytes"
        }
      ],
      "name": "matchOrders",
      "outputs": [],
      "stateMutability": "payable",
      "type": "function"
    },
    {
      "inputs": [],
      "name": "owner",
      "outputs": [
        {
          "internalType": "address",
          "name": "",
          "type": "address"
        }
      ],
      "stateMutability": "view",
      "type": "function"
    },
    {
      "inputs": [],
      "name": "renounceOwnership",
      "outputs": [],
      "stateMutability": "nonpayable",
      "type": "function"
    },
    {
      "inputs": [],
      "name": "royaltiesRegistry",
      "outputs": [
        {
          "internalType": "contract IRoyaltiesProvider",
          "name": "",
          "type": "address"
        }
      ],
      "stateMutability": "view",
      "type": "function"
    },
    {
      "inputs": [],
      "name": "sellerFee",
      "outputs": [
        {
          "internalType": "uint256",
          "name": "",
          "type": "uint256"
        }
      ],
      "stateMutability": "view",
      "type": "function"
    },
    {
      "inputs": [
        {
          "internalType": "bytes4",
          "name": "assetType",
          "type": "bytes4"
        },
        {
          "internalType": "address",
          "name": "matcher",
          "type": "address"
        }
      ],
      "name": "setAssetMatcher",
      "outputs": [],
      "stateMutability": "nonpayable",
      "type": "function"
    },
    {
      "inputs": [
        {
          "internalType": "uint256",
          "name": "newBuyerFee",
          "type": "uint256"
        }
      ],
      "name": "setBuyerFee",
      "outputs": [],
      "stateMutability": "nonpayable",
      "type": "function"
    },
    {
      "inputs": [
        {
          "internalType": "address payable",
          "name": "newCommunityWallet",
          "type": "address"
        }
      ],
      "name": "setCommunityWallet",
      "outputs": [],
      "stateMutability": "nonpayable",
      "type": "function"
    },
    {
      "inputs": [
        {
          "internalType": "uint256",
          "name": "newSellerFee",
          "type": "uint256"
        }
      ],
      "name": "setSellerFee",
      "outputs": [],
      "stateMutability": "nonpayable",
      "type": "function"
    },
    {
      "inputs": [
        {
          "internalType": "bytes4",
          "name": "assetType",
          "type": "bytes4"
        },
        {
          "internalType": "address",
          "name": "proxy",
          "type": "address"
        }
      ],
      "name": "setTransferProxy",
      "outputs": [],
      "stateMutability": "nonpayable",
      "type": "function"
    },
    {
      "inputs": [
        {
          "internalType": "address",
          "name": "token",
          "type": "address"
        },
        {
          "internalType": "address",
          "name": "wallet",
          "type": "address"
        }
      ],
      "name": "setWalletForToken",
      "outputs": [],
      "stateMutability": "nonpayable",
      "type": "function"
    },
    {
      "inputs": [
        {
          "internalType": "address",
          "name": "newOwner",
          "type": "address"
        }
      ],
      "name": "transferOwnership",
      "outputs": [],
      "stateMutability": "nonpayable",
      "type": "function"
    },
    {
      "inputs": [
        {
          "internalType": "address",
          "name": "",
          "type": "address"
        }
      ],
      "name": "walletsForTokens",
      "outputs": [
        {
          "internalType": "address",
          "name": "",
          "type": "address"
        }
      ],
      "stateMutability": "view",
      "type": "function"
    },
    {
      "inputs": [
        {
          "internalType": "contract INftTransferProxy",
          "name": "_transferProxy",
          "type": "address"
        },
        {
          "internalType": "contract IErc20TransferProxy",
          "name": "_erc20TransferProxy",
          "type": "address"
        },
        {
          "internalType": "uint256",
          "name": "newBuyerFee",
          "type": "uint256"
        },
        {
          "internalType": "uint256",
          "name": "newSellerFee",
          "type": "uint256"
        },
        {
          "internalType": "address",
          "name": "newCommunityWallet",
          "type": "address"
        },
        {
          "internalType": "contract IRoyaltiesProvider",
          "name": "newRoyaltiesProvider",
          "type": "address"
        }
      ],
      "name": "__ExchangeV2_init",
      "outputs": [],
      "stateMutability": "nonpayable",
      "type": "function"
    }
  ],
  "bytecode": "0x608060405234801561001057600080fd5b50613cf8806100206000396000f3fe6080604052600436106101145760003560e01c80638da5cb5b116100a0578063e1f3d55a11610064578063e1f3d55a146102bc578063e2864fe3146102d1578063e99a3f80146102f1578063f2fde38b14610304578063fa7da19d1461032457610114565b80638da5cb5b146102325780639daa823d14610247578063b39deb4614610267578063c757483914610287578063d22ce6c61461029c57610114565b80635de6c42f116100e75780635de6c42f146101a65780636d8f0694146101bb578063715018a6146101dd57806376380cfe146101f257806385d6bb811461021257610114565b80631bfee1211461011957806320158c441461013b57806330c642f1146101715780633408e47014610191575b600080fd5b34801561012557600080fd5b506101396101343660046134e0565b610344565b005b34801561014757600080fd5b5061015b6101563660046134e0565b6103ac565b6040516101689190613865565b60405180910390f35b34801561017d57600080fd5b5061013961018c3660046134f8565b6103bf565b34801561019d57600080fd5b5061015b61048f565b3480156101b257600080fd5b5061015b610493565b3480156101c757600080fd5b506101d061049a565b6040516101689190613838565b3480156101e957600080fd5b506101396104aa565b3480156101fe57600080fd5b5061013961020d366004613515565b610556565b34801561021e57600080fd5b5061013961022d366004613410565b61062c565b34801561023e57600080fd5b506101d06106b1565b34801561025357600080fd5b506101d0610262366004613410565b6106c0565b34801561027357600080fd5b506101396102823660046134f8565b6106dc565b34801561029357600080fd5b506101d06107a0565b3480156102a857600080fd5b506101396102b7366004613475565b6107b0565b3480156102c857600080fd5b5061015b610841565b3480156102dd57600080fd5b506101396102ec3660046136e8565b610848565b6101396102ff36600461371b565b6108e8565b34801561031057600080fd5b5061013961031f366004613410565b6109a4565b34801561033057600080fd5b5061013961033f3660046134e0565b610aa7565b61034c610b0f565b6001600160a01b031661035d6106b1565b6001600160a01b0316146103a6576040805162461bcd60e51b81526020600482018190526024820152600080516020613ca3833981519152604482015290519081900360640190fd5b61016255565b61012f6020526000908152604090205481565b6103c7610b0f565b6001600160a01b03166103d86106b1565b6001600160a01b031614610421576040805162461bcd60e51b81526020600482018190526024820152600080516020613ca3833981519152604482015290519081900360640190fd5b6001600160e01b031982166000818152609760205260409081902080546001600160a01b0319166001600160a01b038516179055517f4b5aced933c0c9a88aeac3f0b3b72c5aaf75df8ebaf53225773248c4c315359390610483908490613838565b60405180910390a25050565b4690565b6101615481565b610163546001600160a01b031681565b6104b2610b0f565b6001600160a01b03166104c36106b1565b6001600160a01b03161461050c576040805162461bcd60e51b81526020600482018190526024820152600080516020613ca3833981519152604482015290519081900360640190fd5b6033546040516000916001600160a01b0316907f8be0079c531659141344cd1fd0a4f28419497f9722a3daafe3b4186f6b6457e0908390a3603380546001600160a01b0319169055565b600054610100900460ff168061056f575061056f610b13565b8061057d575060005460ff16155b6105b85760405162461bcd60e51b815260040180806020018281038252602e815260200180613c32602e913960400191505060405180910390fd5b600054610100900460ff161580156105e3576000805460ff1961ff0019909116610100171660011790555b6105eb610b24565b6105f3610bc6565b6105fd8787610cbf565b61060985858585610d69565b610611610e4d565b8015610623576000805461ff00191690555b50505050505050565b610634610b0f565b6001600160a01b03166106456106b1565b6001600160a01b03161461068e576040805162461bcd60e51b81526020600482018190526024820152600080516020613ca3833981519152604482015290519081900360640190fd5b61016480546001600160a01b0319166001600160a01b0392909216919091179055565b6033546001600160a01b031690565b610165602052600090815260409020546001600160a01b031681565b6106e4610b0f565b6001600160a01b03166106f56106b1565b6001600160a01b03161461073e576040805162461bcd60e51b81526020600482018190526024820152600080516020613ca3833981519152604482015290519081900360640190fd5b6001600160e01b031982166000818152606560205260409081902080546001600160a01b0319166001600160a01b038516179055517fd2bf91075f105d0fd80328da28e20ebdad1c1261839711183bc29a44cbe6c72f90610483908490613838565b610164546001600160a01b031681565b6107b8610b0f565b6001600160a01b03166107c96106b1565b6001600160a01b031614610812576040805162461bcd60e51b81526020600482018190526024820152600080516020613ca3833981519152604482015290519081900360640190fd5b6001600160a01b0391821660009081526101656020526040902080546001600160a01b03191691909216179055565b6101625481565b80516001600160a01b031661085b610b0f565b6001600160a01b03161461088a5760405162461bcd60e51b815260040161088190613a84565b60405180910390fd5b600061089582610f1d565b600081815261012f6020526040908190206000199055519091507fe8d9861dbc9c663ed3accd261bbe2fe01e0d3d9e5f51fa38523b265c7757a93a906108dc908390613865565b60405180910390a15050565b6108f28484610f92565b6108fc8282610f92565b60408401516001600160a01b0316156109485783604001516001600160a01b031682600001516001600160a01b0316146109485760405162461bcd60e51b815260040161088190613970565b60408201516001600160a01b0316156109945783600001516001600160a01b031682604001516001600160a01b0316146109945760405162461bcd60e51b815260040161088190613970565b61099e8483610fa9565b50505050565b6109ac610b0f565b6001600160a01b03166109bd6106b1565b6001600160a01b031614610a06576040805162461bcd60e51b81526020600482018190526024820152600080516020613ca3833981519152604482015290519081900360640190fd5b6001600160a01b038116610a4b5760405162461bcd60e51b8152600401808060200182810382526026815260200180613bea6026913960400191505060405180910390fd5b6033546040516001600160a01b038084169216907f8be0079c531659141344cd1fd0a4f28419497f9722a3daafe3b4186f6b6457e090600090a3603380546001600160a01b0319166001600160a01b0392909216919091179055565b610aaf610b0f565b6001600160a01b0316610ac06106b1565b6001600160a01b031614610b09576040805162461bcd60e51b81526020600482018190526024820152600080516020613ca3833981519152604482015290519081900360640190fd5b61016155565b3390565b6000610b1e306111a2565b15905090565b600054610100900460ff1680610b3d5750610b3d610b13565b80610b4b575060005460ff16155b610b865760405162461bcd60e51b815260040180806020018281038252602e815260200180613c32602e913960400191505060405180910390fd5b600054610100900460ff16158015610bb1576000805460ff1961ff0019909116610100171660011790555b8015610bc3576000805461ff00191690555b50565b600054610100900460ff1680610bdf5750610bdf610b13565b80610bed575060005460ff16155b610c285760405162461bcd60e51b815260040180806020018281038252602e815260200180613c32602e913960400191505060405180910390fd5b600054610100900460ff16158015610c53576000805460ff1961ff0019909116610100171660011790555b6000610c5d610b0f565b603380546001600160a01b0319166001600160a01b038316908117909155604051919250906000907f8be0079c531659141344cd1fd0a4f28419497f9722a3daafe3b4186f6b6457e0908290a3508015610bc3576000805461ff001916905550565b60976020527f4532fa16f071d6234e30e1a1e69b9806f04095edf37a1ca7a25c8d6af7861cc080546001600160a01b039283166001600160a01b0319918216179091557f30a684095c937b5aa064dcf94f9903a7d808e3efb22d8389dbd43080ad4ed3d5805493909216928116831790915563025ceed960e61b6000527f4b5822151ea34b7c8d9e37c3e466bcecb631efe6a9f26a4a4054110a93dd316f80549091169091179055565b600054610100900460ff1680610d825750610d82610b13565b80610d90575060005460ff16155b610dcb5760405162461bcd60e51b815260040180806020018281038252602e815260200180613c32602e913960400191505060405180910390fd5b600054610100900460ff16158015610df6576000805460ff1961ff0019909116610100171660011790555b61016185905561016284905561016480546001600160a01b038086166001600160a01b0319928316179092556101638054928516929091169190911790558015610e46576000805461ff00191690555b5050505050565b600054610100900460ff1680610e665750610e66610b13565b80610e74575060005460ff16155b610eaf5760405162461bcd60e51b815260040180806020018281038252602e815260200180613c32602e913960400191505060405180910390fd5b600054610100900460ff16158015610eda576000805460ff1961ff0019909116610100171660011790555b610bb16040518060400160405280600881526020016745786368616e676560c01b815250604051806040016040528060018152602001601960f91b8152506111a8565b805160208201515160009190610f3290611269565b606084015151610f4190611269565b846080015160405160200180856001600160a01b031681526020018481526020018381526020018281526020019450505050506040516020818303038152906040528051906020012090505b919050565b610f9b826112d3565b610fa5828261139d565b5050565b600080610fb684846115ac565b915091506000610fc585610f1d565b90506000610fd285610f1d565b600083815261012f602052604080822054838352908220549293509190610ffb89898585611645565b905060008160200151116110215760405162461bcd60e51b8152600401610881906139a7565b6000806110318989858e8e6116d5565b8a5191935091506001600160e01b0319166355575f5d60e11b141561108a57813410156110705760405162461bcd60e51b815260040161088190613a5c565b8134111561108557611085333484900361182a565b6110d9565b87516001600160e01b0319166355575f5d60e11b14156110d957803410156110c45760405162461bcd60e51b815260040161088190613a5c565b803411156110d9576110d9333483900361182a565b60006110e3610b0f565b90508b600001516001600160a01b0316816001600160a01b03161461111e5760208085015160008a815261012f909252604090912090870190555b8a516001600160a01b03828116911614611149578351600088815261012f6020526040902090860190555b8b518b51602086015186516040517f6bd3176da6f0aab285937ad5ead5f53b9036f403cfad62f77e4e0f80b5a7e18d9461118c948e948e9492939192909161386e565b60405180910390a1505050505050505050505050565b3b151590565b600054610100900460ff16806111c157506111c1610b13565b806111cf575060005460ff16155b61120a5760405162461bcd60e51b815260040180806020018281038252602e815260200180613c32602e913960400191505060405180910390fd5b600054610100900460ff16158015611235576000805460ff1961ff0019909116610100171660011790555b825160208085019190912083519184019190912060c99190915560ca558015611264576000805461ff00191690555b505050565b8051602091820151805190830120604080517f452a0dc408cb0d27ffc3b3caff933a5208040a53a9dbecd8d89cad2c0d40e00c818601526001600160e01b031990931683820152606080840192909252805180840390920182526080909201909152805191012090565b60a081015115806112e75750428160a00151105b611338576040805162461bcd60e51b815260206004820152601d60248201527f4f726465722073746172742076616c69646174696f6e206661696c6564000000604482015290519081900360640190fd5b60c0810151158061134c5750428160c00151115b610bc3576040805162461bcd60e51b815260206004820152601b60248201527f4f7264657220656e642076616c69646174696f6e206661696c65640000000000604482015290519081900360640190fd5b81516001600160a01b03166113b0610b0f565b6001600160a01b031614610fa55760006113c9836118c2565b90506113e183600001516001600160a01b03166111a2565b156115335782516320c13b0b60e01b906001600160a01b0316631626ba7e611408846119b2565b856040518363ffffffff1660e01b81526004018083815260200180602001828103825283818151815260200191508051906020019080838360005b8381101561145b578181015183820152602001611443565b50505050905090810190601f1680156114885780820380516001836020036101000a031916815260200191505b50935050505060206040518083038186803b1580156114a657600080fd5b505afa1580156114ba573d6000803e3d6000fd5b505050506040513d60208110156114d057600080fd5b50516001600160e01b0319161461152e576040805162461bcd60e51b815260206004820152601c60248201527f7369676e617475726520766572696669636174696f6e206572726f7200000000604482015290519081900360640190fd5b611264565b82516001600160a01b03166115518361154b846119b2565b906119fe565b6001600160a01b031614611264576040805162461bcd60e51b815260206004820152601c60248201527f7369676e617475726520766572696669636174696f6e206572726f7200000000604482015290519081900360640190fd5b6115b46130e1565b6115bc6130e1565b6020840151516060840151516115d29190611a80565b80519092506001600160e01b0319166115fd5760405162461bcd60e51b815260040161088190613a07565b6060840151516020840151516116139190611a80565b80519091506001600160e01b03191661163e5760405162461bcd60e51b815260040161088190613a07565b9250929050565b61164d6130f9565b60008061165a8786611ac0565b9150915060008061166b8887611ac0565b915091508183111561169e576116938960200151602001518a60600151602001518484611b04565b9450505050506116cd565b838111156116c25761169384848a60200151602001518b6060015160200151611b8a565b611693848483611c0f565b949350505050565b60008060006116ec88600001518860000151611c8b565b8651602088015190945092509050600061170586611d5c565b9050600061171286611d5c565b9050600183600281111561172257fe5b141561179b578751875161175b919084848e8e7f1a0388dd7519a093630516a672419a2562e0e74deb98af068657dc265f0164c9611e1d565b9450611796898960200151886000015185600001517fb45a3ba14423c8f1b71cc094845ab56b5294dbe8d8e3ba53f3cdb63d59a4044b611e99565b61181d565b60028360028111156117a957fe5b141561181d576117e68860200151876000015183858d8f7fb45a3ba14423c8f1b71cc094845ab56b5294dbe8d8e3ba53f3cdb63d59a4044b611e1d565b88518851835192965061181d928d9291907f1a0388dd7519a093630516a672419a2562e0e74deb98af068657dc265f0164c9611e99565b5050509550959350505050565b6040516000906001600160a01b0384169083908381818185875af1925050503d8060008114611875576040519150601f19603f3d011682016040523d82523d6000602084013e61187a565b606091505b5050905080611264576040805162461bcd60e51b815260206004820152600f60248201526e1d1c985b9cd9995c8819985a5b1959608a1b604482015290519081900360640190fd5b60007f477ed43b8020849b755512278536c3766a3b4ab547519949a75f483372493f8d82600001516118f78460200151611f96565b84604001516119098660600151611f96565b86608001518760a001518860c001518960e001518a610100015180519060200120604051602001808b81526020018a6001600160a01b03168152602001898152602001886001600160a01b03168152602001878152602001868152602001858152602001848152602001836001600160e01b03191681526020018281526020019a5050505050505050505050604051602081830303815290604052805190602001209050919050565b60006119bc612006565b82604051602001808061190160f01b81525060020183815260200182815260200192505050604051602081830303815290604052805190602001209050919050565b60008151604114611a56576040805162461bcd60e51b815260206004820152601f60248201527f45434453413a20696e76616c6964207369676e6174757265206c656e67746800604482015290519081900360640190fd5b60208201516040830151606084015160001a611a7486828585612046565b93505050505b92915050565b611a886130e1565b6000611a9484846121c4565b80519091506001600160e01b031916611ab957611ab183856121c4565b915050611a7a565b9050611a7a565b600080611ade8385606001516020015161252590919063ffffffff16565b9050611afb84602001516020015185606001516020015183612582565b91509250929050565b611b0c6130f9565b6000611b19838787612582565b905083811115611b70576040805162461bcd60e51b815260206004820152601960248201527f66696c6c52696768743a20756e61626c6520746f2066696c6c00000000000000604482015290519081900360640190fd5b604080518082019091529283526020830152509392505050565b611b926130f9565b6000611b9f858585612582565b905085811115611bf6576040805162461bcd60e51b815260206004820152601860248201527f66696c6c4c6566743a20756e61626c6520746f2066696c6c0000000000000000604482015290519081900360640190fd5b5050604080518082019091529384525050602082015290565b611c176130f9565b83821115611c6c576040805162461bcd60e51b815260206004820152601860248201527f66696c6c426f74683a20756e61626c6520746f2066696c6c0000000000000000604482015290519081900360640190fd5b60405180604001604052808581526020018481525090505b9392505050565b60006001600160e01b031983166355575f5d60e11b1415611cae57506001611a7a565b6001600160e01b031982166355575f5d60e11b1415611ccf57506002611a7a565b6001600160e01b031983166322ba176160e21b1415611cf057506001611a7a565b6001600160e01b031982166322ba176160e21b1415611d1157506002611a7a565b6001600160e01b0319831663025ceed960e61b1415611d3257506001611a7a565b6001600160e01b0319821663025ceed960e61b1415611d5357506002611a7a565b50600092915050565b611d64613113565b60e08201516001600160e01b031916632611a13360e11b1415611dad57611d8f8261010001516125e6565b805151909150611da8578151611da59082612602565b90505b610f8d565b60e08201516001600160e01b03199081161415611dd0578151611da59082612602565b6040805162461bcd60e51b815260206004820152601760248201527f556e6b6e6f776e204f7264657220646174612074797065000000000000000000604482015290519081900360640190fd5b6000611e31886101615488602001516126a3565b90506000611e42828a8a8887612716565b9050611e528585838c8c88612810565b9050611e6685828b8a602001518c886129b8565b9050611e7a85828b89602001518c886129b8565b9050611e8d85828a896000015187611e99565b50979650505050505050565b6000805b8351811015611f6c576000611edb858381518110611eb757fe5b6020026020010151602001516001600160601b031688612a4990919063ffffffff16565b9050848281518110611ee957fe5b6020026020010151602001516001600160601b0316830192506000811115611f6357611f6360405180604001604052808a81526020018381525087878581518110611f3057fe5b602002602001015160000151877fa10bb5b2060a412d05113732875a5431ca23453eb93f797e0ffcb5b40e5f2c3e612a5b565b50600101611e9d565b508061271014611f8e5760405162461bcd60e51b8152600401610881906139d0565b505050505050565b60007fdb6f72e915676cfc289da13bc4ece054fd17b1df6d77ffc4a60510718c236b08611fc68360000151611269565b8360200151604051602001808481526020018381526020018281526020019350505050604051602081830303815290604052805190602001209050919050565b60006120417f8b73c3c69bb8fe3d512ecc4cf759cc79239f7b179b0ffacaa9a75d522b39400f612034612e4a565b61203c612e50565b612e56565b905090565b60007f7fffffffffffffffffffffffffffffff5d576e7357a4501ddfe92f46681b20a08211156120a75760405162461bcd60e51b8152600401808060200182810382526022815260200180613c106022913960400191505060405180910390fd5b8360ff16601b14806120bc57508360ff16601c145b6120f75760405162461bcd60e51b8152600401808060200182810382526022815260200180613c606022913960400191505060405180910390fd5b600060018686868660405160008152602001604052604051808581526020018460ff1681526020018381526020018281526020019450505050506020604051602081039080840390855afa158015612153573d6000803e3d6000fd5b5050604051601f1901519150506001600160a01b0381166121bb576040805162461bcd60e51b815260206004820152601860248201527f45434453413a20696e76616c6964207369676e61747572650000000000000000604482015290519081900360640190fd5b95945050505050565b6121cc6130e1565b825182516001600160e01b031982166355575f5d60e11b1415612237576001600160e01b031981166355575f5d60e11b141561220c578492505050611a7a565b5050604080518082018252600080825282516020818101909452908152918101919091529050611a7a565b6001600160e01b031982166322ba176160e21b14156122f4576001600160e01b031981166322ba176160e21b141561220c5760008560200151806020019051810190612283919061342c565b90506000856020015180602001905181019061229f919061342c565b9050806001600160a01b0316826001600160a01b031614156122c75786945050505050611a7a565b50505050604080518082018252600080825282516020818101909452908152918101919091529050611a7a565b6001600160e01b031982166339d690a360e11b14156123c6576001600160e01b031981166339d690a360e11b141561220c5760008086602001518060200190518101906123419190613448565b9150915060008087602001518060200190518101906123609190613448565b91509150816001600160a01b0316846001600160a01b031614801561238457508083145b1561239757889650505050505050611a7a565b505050505050604080518082018252600080825282516020818101909452908152918101919091529050611a7a565b6001600160e01b0319821663025ceed960e61b1415612413576001600160e01b0319811663025ceed960e61b141561220c5760008086602001518060200190518101906123419190613448565b6001600160e01b031982166000908152606560205260409020546001600160a01b031680156124c8576040516306d3f7cb60e41b81526001600160a01b03821690636d3f7cb09061246a9089908990600401613aa9565b60006040518083038186803b15801561248257600080fd5b505afa158015612496573d6000803e3d6000fd5b505050506040513d6000823e601f3d908101601f191682016040526124be9190810190613584565b9350505050611a7a565b6001600160e01b0319838116908316141561250d576020808701518051908201208682015180519201919091208082141561250a578795505050505050611a7a565b50505b60405162461bcd60e51b81526004016108819061390d565b60008282111561257c576040805162461bcd60e51b815260206004820152601e60248201527f536166654d6174683a207375627472616374696f6e206f766572666c6f770000604482015290519081900360640190fd5b50900390565b600061258f848484612eb8565b156125d2576040805162461bcd60e51b815260206004820152600e60248201526d3937bab73234b7339032b93937b960911b604482015290519081900360640190fd5b6116cd836125e08685612f47565b90612fa0565b6125ee613113565b81806020019051810190611a7a919061364c565b61260a613113565b604080516001808252818301909252600091816020015b61262961312d565b815260200190600190039081612621579050509050838160008151811061264c57fe5b6020026020010151600001906001600160a01b031690816001600160a01b0316815250506127108160008151811061268057fe5b6020908102919091018101516001600160601b0392909216910152825250919050565b60006126b96126b28585612a49565b8590613007565b905060005b825181101561270e576127046126fd8483815181106126d957fe5b6020026020010151602001516001600160601b031687612a4990919063ffffffff16565b8390613007565b91506001016126be565b509392505050565b600080600061273e8888612739610162546101615461300790919063ffffffff16565b613061565b909250905080156128055784516000906001600160e01b0319166322ba176160e21b141561278157856020015180602001905181019061277e919061342c565b90505b85516001600160e01b03191663025ceed960e61b14156127ba57600086602001518060200190518101906127b59190613448565b509150505b612803604051806040016040528088815260200184815250886127dc84613083565b887ff87e69cb514f255f3d32f9d90f25160a10d0cdefe6618a6406db334d4450595c612a5b565b505b509695505050505050565b845184906001600160e01b03191663025ceed960e61b14801590612846575085516001600160e01b0319166339d690a360e11b14155b15612850576129ae565b600080876020015180602001905181019061286b9190613448565b61016354604051634e53ee3d60e11b81529294509092506000916001600160a01b0390911690639ca7dc7a906128a7908690869060040161384c565b600060405180830381600087803b1580156128c157600080fd5b505af11580156128d5573d6000803e3d6000fd5b505050506040513d6000823e601f3d908101601f191682016040526128fd91908101906134ad565b905060005b81518110156129a957600080612939878b86868151811061291f57fe5b6020026020010151602001516001600160601b0316613061565b9097508792509050801561299f5761299f60405180604001604052808f8152602001838152508a86868151811061296c57fe5b6020026020010151600001518b7fb3c5c697ec0b511b76d12f6293e6ee827b1e1df79ac7c64d0466d945904893d7612a5b565b5050600101612902565b505050505b9695505050505050565b8460005b8451811015612805576000806129d9848989868151811061291f57fe5b90945084925090508015612a3f57612a3f60405180604001604052808c81526020018381525087898681518110612a0c57fe5b602002602001015160000151887fdfdfdaf4cc275341b6776a7ee23b953990b8d991717449077287da70f32cf955612a5b565b50506001016129bc565b6000611c846127106125e08585612f47565b8451516001600160e01b0319166355575f5d60e11b1415612afc576000836001600160a01b03168660200151604051612a9390613835565b60006040518083038185875af1925050503d8060008114612ad0576040519150601f19603f3d011682016040523d82523d6000602084013e612ad5565b606091505b5050905080612af65760405162461bcd60e51b815260040161088190613a33565b50612e04565b8451516001600160e01b0319166322ba176160e21b1415612bda576000856000015160200151806020019051810190612b35919061342c565b6322ba176160e21b600052609760209081527f4532fa16f071d6234e30e1a1e69b9806f04095edf37a1ca7a25c8d6af7861cc0549088015160405163776062c360e01b81529293506001600160a01b039091169163776062c391612ba29185918a918a91906004016138e3565b600060405180830381600087803b158015612bbc57600080fd5b505af1158015612bd0573d6000803e3d6000fd5b5050505050612e04565b8451516001600160e01b0319166339d690a360e11b1415612cda57600080866000015160200151806020019051810190612c149190613448565b915091508660200151600114612c3c5760405162461bcd60e51b815260040161088190613944565b6339d690a360e11b60005260976020527f30a684095c937b5aa064dcf94f9903a7d808e3efb22d8389dbd43080ad4ed3d554604051637b84dc8360e11b81526001600160a01b039091169063f709b90690612ca19085908a908a9087906004016138e3565b600060405180830381600087803b158015612cbb57600080fd5b505af1158015612ccf573d6000803e3d6000fd5b505050505050612e04565b8451516001600160e01b03191663025ceed960e61b1415612d8357600080866000015160200151806020019051810190612d149190613448565b63025ceed960e61b600052609760209081527f4b5822151ea34b7c8d9e37c3e466bcecb631efe6a9f26a4a4054110a93dd316f54908a0151604051639c1c2ee960e01b81529395509193506001600160a01b031691639c1c2ee991612ca19186918b918b9188916004016138a0565b8451516001600160e01b031916600090815260976020526040908190205490516354bc0cf160e01b81526001600160a01b03909116906354bc0cf190612dd190889088908890600401613ace565b600060405180830381600087803b158015612deb57600080fd5b505af1158015612dff573d6000803e3d6000fd5b505050505b7fcae9d16f553e92058883de29cb3135dbc0c1e31fd7eace79fef1d80577fe482e8585858585604051612e3b959493929190613b01565b60405180910390a15050505050565b60c95490565b60ca5490565b6000838383612e6361048f565b3060405160200180868152602001858152602001848152602001838152602001826001600160a01b03168152602001955050505050506040516020818303038152906040528051906020012090509392505050565b600082612eff576040805162461bcd60e51b815260206004820152601060248201526f6469766973696f6e206279207a65726f60801b604482015290519081900360640190fd5b811580612f0a575083155b15612f1757506000611c84565b60008380612f2157fe5b8584099050612f308584612f47565b612f3c826103e8612f47565b101595945050505050565b600082612f5657506000611a7a565b82820282848281612f6357fe5b0414611c845760405162461bcd60e51b8152600401808060200182810382526021815260200180613c826021913960400191505060405180910390fd5b6000808211612ff6576040805162461bcd60e51b815260206004820152601a60248201527f536166654d6174683a206469766973696f6e206279207a65726f000000000000604482015290519081900360640190fd5b818381612fff57fe5b049392505050565b600082820183811015611c84576040805162461bcd60e51b815260206004820152601b60248201527f536166654d6174683a206164646974696f6e206f766572666c6f770000000000604482015290519081900360640190fd5b600080613077856130728686612a49565b6130c2565b91509150935093915050565b6001600160a01b038082166000908152610165602052604081205490911680156130ae579050610f8d565b5050610164546001600160a01b0316919050565b600080828411156130d85750508082038161163e565b50600093915050565b60408051808201909152600081526060602082015290565b604051806040016040528060008152602001600081525090565b604051806040016040528060608152602001606081525090565b604080518082019091526000808252602082015290565b8035610f8d81613bbe565b600082601f83011261315f578081fd5b8151602067ffffffffffffffff8083111561317657fe5b6131838283850201613b4c565b838152828101908684016040808702890186018a10156131a1578788fd5b875b878110156132095781838c0312156131b9578889fd5b815182810181811088821117156131cc57fe5b835283516131d981613bbe565b8152838801516001600160601b03811681146131f3578a8bfd5b81890152855293860193918101916001016131a3565b50919998505050505050505050565b8035610f8d81613bd3565b600082601f830112613233578081fd5b813561324661324182613b70565b613b4c565b81815284602083860101111561325a578283fd5b816020850160208301379081016020019190915292915050565b60006040808385031215613286578182fd5b805181810167ffffffffffffffff82821081831117156132a257fe5b8184528294508535818111156132b757600080fd5b86018088038513156132c857600080fd5b6080840183811083821117156132da57fe5b9094528335936132e985613bd3565b938252602084013593818511156132ff57600080fd5b61330b88868301613223565b60608501525050815260209384013593019290925292915050565b6000610120808385031215613339578182fd5b61334281613b4c565b91505061334e82613144565b8152602082013567ffffffffffffffff8082111561336b57600080fd5b61337785838601613274565b602084015261338860408501613144565b604084015260608401359150808211156133a157600080fd5b6133ad85838601613274565b60608401526080840135608084015260a084013560a084015260c084013560c08401526133dc60e08501613218565b60e0840152610100915081840135818111156133f757600080fd5b61340386828701613223565b8385015250505092915050565b600060208284031215613421578081fd5b8135611c8481613bbe565b60006020828403121561343d578081fd5b8151611c8481613bbe565b6000806040838503121561345a578081fd5b825161346581613bbe565b6020939093015192949293505050565b60008060408385031215613487578182fd5b823561349281613bbe565b915060208301356134a281613bbe565b809150509250929050565b6000602082840312156134be578081fd5b815167ffffffffffffffff8111156134d4578182fd5b6116cd8482850161314f565b6000602082840312156134f1578081fd5b5035919050565b6000806040838503121561350a578182fd5b823561349281613bd3565b60008060008060008060c0878903121561352d578182fd5b863561353881613bbe565b9550602087013561354881613bbe565b94506040870135935060608701359250608087013561356681613bbe565b915060a087013561357681613bbe565b809150509295509295509295565b60006020808385031215613596578182fd5b825167ffffffffffffffff808211156135ad578384fd5b90840190604082870312156135c0578384fd5b6040516040810181811083821117156135d557fe5b60405282516135e381613bd3565b815282840151828111156135f5578586fd5b80840193505086601f840112613609578485fd5b8251915061361961324183613b70565b828152878584860101111561362c578586fd5b61363b83868301878701613b92565b938101939093525090949350505050565b60006020828403121561365d578081fd5b815167ffffffffffffffff80821115613674578283fd5b9083019060408286031215613687578283fd5b60405160408101818110838211171561369c57fe5b6040528251828111156136ad578485fd5b6136b98782860161314f565b8252506020830151828111156136cd578485fd5b6136d98782860161314f565b60208301525095945050505050565b6000602082840312156136f9578081fd5b813567ffffffffffffffff81111561370f578182fd5b6116cd84828501613326565b60008060008060808587031215613730578182fd5b843567ffffffffffffffff80821115613747578384fd5b61375388838901613326565b95506020870135915080821115613768578384fd5b61377488838901613223565b94506040870135915080821115613789578384fd5b61379588838901613326565b935060608701359150808211156137aa578283fd5b506137b787828801613223565b91505092959194509250565b600063ffffffff60e01b825116835260208201516040602085015280518060408601526137f7816060870160208501613b92565b601f01601f1916939093016060019392505050565b600081516040845261382160408501826137c3565b602093840151949093019390935250919050565b90565b6001600160a01b0391909116815260200190565b6001600160a01b03929092168252602082015260400190565b90815260200190565b95865260208601949094526001600160a01b03928316604086015291166060840152608083015260a082015260c00190565b6001600160a01b03958616815293851660208501529190931660408301526060820192909252608081019190915260c060a0820181905260009082015260e00190565b6001600160a01b039485168152928416602084015292166040820152606081019190915260800190565b60208082526017908201527f6e6f7420666f756e64204941737365744d617463686572000000000000000000604082015260600190565b60208082526012908201527132b9319b9918903b30b63ab29032b93937b960711b604082015260600190565b60208082526019908201527f74616b657220766572696669636174696f6e206661696c656400000000000000604082015260600190565b6020808252600f908201526e1b9bdd1a1a5b99c81d1bc8199a5b1b608a1b604082015260600190565b6020808252601e908201527f53756d207061796f75747320427073206e6f7420657175616c20313030250000604082015260600190565b6020808252601290820152710c2e6e6cae8e640c8dedc4ee840dac2e8c6d60731b604082015260600190565b6020808252600f908201526e1d1c985b9cd9995c8819985a5b1959608a1b604082015260600190565b6020808252600e908201526d0dcdee840cadcdeeaced040cae8d60931b604082015260600190565b6020808252600b908201526a3737ba10309036b0b5b2b960a91b604082015260600190565b600060408252613abc60408301856137c3565b82810360208401526121bb81856137c3565b600060608252613ae1606083018661380c565b6001600160a01b0394851660208401529290931660409091015292915050565b600060a08252613b1460a083018861380c565b6001600160a01b0396871660208401529490951660408201526001600160e01b03199283166060820152911660809091015292915050565b60405181810167ffffffffffffffff81118282101715613b6857fe5b604052919050565b600067ffffffffffffffff821115613b8457fe5b50601f01601f191660200190565b60005b83811015613bad578181015183820152602001613b95565b8381111561099e5750506000910152565b6001600160a01b0381168114610bc357600080fd5b6001600160e01b031981168114610bc357600080fdfe4f776e61626c653a206e6577206f776e657220697320746865207a65726f206164647265737345434453413a20696e76616c6964207369676e6174757265202773272076616c7565496e697469616c697a61626c653a20636f6e747261637420697320616c726561647920696e697469616c697a656445434453413a20696e76616c6964207369676e6174757265202776272076616c7565536166654d6174683a206d756c7469706c69636174696f6e206f766572666c6f774f776e61626c653a2063616c6c6572206973206e6f7420746865206f776e6572a26469706673582212203e10b835081c6e58572aa9e10b8296bd2d6b17a709329136601760890fdeb08a64736f6c63430007060033",
  "immutableReferences": {},
  "source": "// SPDX-License-Identifier: MIT\n\npragma solidity >=0.6.2 <0.8.0;\npragma abicoder v2;\n\nimport \"./ExchangeV2Core.sol\";\nimport \"./RaribleTransferManager.sol\";\nimport \"@rarible/royalties/contracts/IRoyaltiesProvider.sol\";\n\ncontract ExchangeV2 is ExchangeV2Core, RaribleTransferManager {\n    function __ExchangeV2_init(\n        INftTransferProxy _transferProxy,\n        IErc20TransferProxy _erc20TransferProxy,\n        uint newBuyerFee,\n        uint newSellerFee,\n        address newCommunityWallet,\n        IRoyaltiesProvider newRoyaltiesProvider\n    ) external initializer {\n        __Context_init_unchained();\n        __Ownable_init_unchained();\n        __TransferExecutor_init_unchained(_transferProxy, _erc20TransferProxy);\n        __RaribleTransferManager_init_unchained(newBuyerFee, newSellerFee, newCommunityWallet, newRoyaltiesProvider);\n        __OrderValidator_init_unchained();\n    }\n}\n",
  "sourcePath": "/home/sks/Rarible/testProject3/protocol-contracts/exchange-v2/contracts/exchange/v2/ExchangeV2.sol",
  "compiler": {
    "name": "solc",
    "version": "0.7.6+commit.7338295f.Emscripten.clang"
  },
  "schemaVersion": "3.3.4",
  "updatedAt": "2021-04-09T06:06:36.111Z",
  "devdoc": {
    "kind": "dev",
    "methods": {
      "owner()": {
        "details": "Returns the address of the current owner."
      },
      "renounceOwnership()": {
        "details": "Leaves the contract without owner. It will not be possible to call `onlyOwner` functions anymore. Can only be called by the current owner. NOTE: Renouncing ownership will leave the contract without an owner, thereby removing any functionality that is only available to the owner."
      },
      "transferOwnership(address)": {
        "details": "Transfers ownership of the contract to a new account (`newOwner`). Can only be called by the current owner."
      }
    },
    "version": 1
  },
  "userdoc": {
    "kind": "user",
    "methods": {},
    "version": 1
  }
}