{
  "contractName": "ExchangeMetaV2",
  "abi": [
    {
      "anonymous": false,
      "inputs": [
        {
          "indexed": false,
          "internalType": "bytes32",
          "name": "hash",
          "type": "bytes32"
        },
        {
          "indexed": false,
          "internalType": "address",
          "name": "maker",
          "type": "address"
        },
        {
          "components": [
            {
              "internalType": "bytes4",
              "name": "assetClass",
              "type": "bytes4"
            },
            {
              "internalType": "bytes",
              "name": "data",
              "type": "bytes"
            }
          ],
          "indexed": false,
          "internalType": "struct LibAsset.AssetType",
          "name": "makeAssetType",
          "type": "tuple"
        },
        {
          "components": [
            {
              "internalType": "bytes4",
              "name": "assetClass",
              "type": "bytes4"
            },
            {
              "internalType": "bytes",
              "name": "data",
              "type": "bytes"
            }
          ],
          "indexed": false,
          "internalType": "struct LibAsset.AssetType",
          "name": "takeAssetType",
          "type": "tuple"
        }
      ],
      "name": "Cancel",
      "type": "event"
    },
    {
      "anonymous": false,
      "inputs": [
        {
          "indexed": false,
          "internalType": "bytes32",
          "name": "leftHash",
          "type": "bytes32"
        },
        {
          "indexed": false,
          "internalType": "bytes32",
          "name": "rightHash",
          "type": "bytes32"
        },
        {
          "indexed": false,
          "internalType": "address",
          "name": "leftMaker",
          "type": "address"
        },
        {
          "indexed": false,
          "internalType": "address",
          "name": "rightMaker",
          "type": "address"
        },
        {
          "indexed": false,
          "internalType": "uint256",
          "name": "newLeftFill",
          "type": "uint256"
        },
        {
          "indexed": false,
          "internalType": "uint256",
          "name": "newRightFill",
          "type": "uint256"
        },
        {
          "components": [
            {
              "internalType": "bytes4",
              "name": "assetClass",
              "type": "bytes4"
            },
            {
              "internalType": "bytes",
              "name": "data",
              "type": "bytes"
            }
          ],
          "indexed": false,
          "internalType": "struct LibAsset.AssetType",
          "name": "leftAsset",
          "type": "tuple"
        },
        {
          "components": [
            {
              "internalType": "bytes4",
              "name": "assetClass",
              "type": "bytes4"
            },
            {
              "internalType": "bytes",
              "name": "data",
              "type": "bytes"
            }
          ],
          "indexed": false,
          "internalType": "struct LibAsset.AssetType",
          "name": "rightAsset",
          "type": "tuple"
        }
      ],
      "name": "Match",
      "type": "event"
    },
    {
      "anonymous": false,
      "inputs": [
        {
          "indexed": true,
          "internalType": "bytes4",
          "name": "assetType",
          "type": "bytes4"
        },
        {
          "indexed": false,
          "internalType": "address",
          "name": "matcher",
          "type": "address"
        }
      ],
      "name": "MatcherChange",
      "type": "event"
    },
    {
      "anonymous": false,
      "inputs": [
        {
          "indexed": false,
          "internalType": "address",
          "name": "userAddress",
          "type": "address"
        },
        {
          "indexed": false,
          "internalType": "address payable",
          "name": "relayerAddress",
          "type": "address"
        },
        {
          "indexed": false,
          "internalType": "bytes",
          "name": "functionSignature",
          "type": "bytes"
        }
      ],
      "name": "MetaTransactionExecuted",
      "type": "event"
    },
    {
      "anonymous": false,
      "inputs": [
        {
          "indexed": true,
          "internalType": "address",
          "name": "previousOwner",
          "type": "address"
        },
        {
          "indexed": true,
          "internalType": "address",
          "name": "newOwner",
          "type": "address"
        }
      ],
      "name": "OwnershipTransferred",
      "type": "event"
    },
    {
      "anonymous": false,
      "inputs": [
        {
          "indexed": false,
          "internalType": "uint256",
          "name": "oldValue",
          "type": "uint256"
        },
        {
          "indexed": false,
          "internalType": "uint256",
          "name": "newValue",
          "type": "uint256"
        }
      ],
      "name": "ProtocolFeeChanged",
      "type": "event"
    },
    {
      "anonymous": false,
      "inputs": [
        {
          "indexed": true,
          "internalType": "bytes4",
          "name": "assetType",
          "type": "bytes4"
        },
        {
          "indexed": false,
          "internalType": "address",
          "name": "proxy",
          "type": "address"
        }
      ],
      "name": "ProxyChange",
      "type": "event"
    },
    {
      "inputs": [
        {
          "components": [
            {
              "internalType": "address",
              "name": "maker",
              "type": "address"
            },
            {
              "components": [
                {
                  "components": [
                    {
                      "internalType": "bytes4",
                      "name": "assetClass",
                      "type": "bytes4"
                    },
                    {
                      "internalType": "bytes",
                      "name": "data",
                      "type": "bytes"
                    }
                  ],
                  "internalType": "struct LibAsset.AssetType",
                  "name": "assetType",
                  "type": "tuple"
                },
                {
                  "internalType": "uint256",
                  "name": "value",
                  "type": "uint256"
                }
              ],
              "internalType": "struct LibAsset.Asset",
              "name": "makeAsset",
              "type": "tuple"
            },
            {
              "internalType": "address",
              "name": "taker",
              "type": "address"
            },
            {
              "components": [
                {
                  "components": [
                    {
                      "internalType": "bytes4",
                      "name": "assetClass",
                      "type": "bytes4"
                    },
                    {
                      "internalType": "bytes",
                      "name": "data",
                      "type": "bytes"
                    }
                  ],
                  "internalType": "struct LibAsset.AssetType",
                  "name": "assetType",
                  "type": "tuple"
                },
                {
                  "internalType": "uint256",
                  "name": "value",
                  "type": "uint256"
                }
              ],
              "internalType": "struct LibAsset.Asset",
              "name": "takeAsset",
              "type": "tuple"
            },
            {
              "internalType": "uint256",
              "name": "salt",
              "type": "uint256"
            },
            {
              "internalType": "uint256",
              "name": "start",
              "type": "uint256"
            },
            {
              "internalType": "uint256",
              "name": "end",
              "type": "uint256"
            },
            {
              "internalType": "bytes4",
              "name": "dataType",
              "type": "bytes4"
            },
            {
              "internalType": "bytes",
              "name": "data",
              "type": "bytes"
            }
          ],
          "internalType": "struct LibOrder.Order",
          "name": "order",
          "type": "tuple"
        }
      ],
      "name": "cancel",
      "outputs": [],
      "stateMutability": "nonpayable",
      "type": "function"
    },
    {
      "inputs": [],
      "name": "defaultFeeReceiver",
      "outputs": [
        {
          "internalType": "address",
          "name": "",
          "type": "address"
        }
      ],
      "stateMutability": "view",
      "type": "function"
    },
    {
      "inputs": [
        {
          "internalType": "address",
          "name": "userAddress",
          "type": "address"
        },
        {
          "internalType": "bytes",
          "name": "functionSignature",
          "type": "bytes"
        },
        {
          "internalType": "bytes32",
          "name": "sigR",
          "type": "bytes32"
        },
        {
          "internalType": "bytes32",
          "name": "sigS",
          "type": "bytes32"
        },
        {
          "internalType": "uint8",
          "name": "sigV",
          "type": "uint8"
        }
      ],
      "name": "executeMetaTransaction",
      "outputs": [
        {
          "internalType": "bytes",
          "name": "",
          "type": "bytes"
        }
      ],
      "stateMutability": "payable",
      "type": "function"
    },
    {
      "inputs": [
        {
          "internalType": "address",
          "name": "",
          "type": "address"
        }
      ],
      "name": "feeReceivers",
      "outputs": [
        {
          "internalType": "address",
          "name": "",
          "type": "address"
        }
      ],
      "stateMutability": "view",
      "type": "function"
    },
    {
      "inputs": [
        {
          "internalType": "bytes32",
          "name": "",
          "type": "bytes32"
        }
      ],
      "name": "fills",
      "outputs": [
        {
          "internalType": "uint256",
          "name": "",
          "type": "uint256"
        }
      ],
      "stateMutability": "view",
      "type": "function"
    },
    {
      "inputs": [
        {
          "internalType": "address",
          "name": "user",
          "type": "address"
        }
      ],
      "name": "getNonce",
      "outputs": [
        {
          "internalType": "uint256",
          "name": "nonce",
          "type": "uint256"
        }
      ],
      "stateMutability": "view",
      "type": "function"
    },
    {
      "inputs": [
        {
          "components": [
            {
              "internalType": "address",
              "name": "maker",
              "type": "address"
            },
            {
              "components": [
                {
                  "components": [
                    {
                      "internalType": "bytes4",
                      "name": "assetClass",
                      "type": "bytes4"
                    },
                    {
                      "internalType": "bytes",
                      "name": "data",
                      "type": "bytes"
                    }
                  ],
                  "internalType": "struct LibAsset.AssetType",
                  "name": "assetType",
                  "type": "tuple"
                },
                {
                  "internalType": "uint256",
                  "name": "value",
                  "type": "uint256"
                }
              ],
              "internalType": "struct LibAsset.Asset",
              "name": "makeAsset",
              "type": "tuple"
            },
            {
              "internalType": "address",
              "name": "taker",
              "type": "address"
            },
            {
              "components": [
                {
                  "components": [
                    {
                      "internalType": "bytes4",
                      "name": "assetClass",
                      "type": "bytes4"
                    },
                    {
                      "internalType": "bytes",
                      "name": "data",
                      "type": "bytes"
                    }
                  ],
                  "internalType": "struct LibAsset.AssetType",
                  "name": "assetType",
                  "type": "tuple"
                },
                {
                  "internalType": "uint256",
                  "name": "value",
                  "type": "uint256"
                }
              ],
              "internalType": "struct LibAsset.Asset",
              "name": "takeAsset",
              "type": "tuple"
            },
            {
              "internalType": "uint256",
              "name": "salt",
              "type": "uint256"
            },
            {
              "internalType": "uint256",
              "name": "start",
              "type": "uint256"
            },
            {
              "internalType": "uint256",
              "name": "end",
              "type": "uint256"
            },
            {
              "internalType": "bytes4",
              "name": "dataType",
              "type": "bytes4"
            },
            {
              "internalType": "bytes",
              "name": "data",
              "type": "bytes"
            }
          ],
          "internalType": "struct LibOrder.Order",
          "name": "orderLeft",
          "type": "tuple"
        },
        {
          "internalType": "bytes",
          "name": "signatureLeft",
          "type": "bytes"
        },
        {
          "components": [
            {
              "internalType": "address",
              "name": "maker",
              "type": "address"
            },
            {
              "components": [
                {
                  "components": [
                    {
                      "internalType": "bytes4",
                      "name": "assetClass",
                      "type": "bytes4"
                    },
                    {
                      "internalType": "bytes",
                      "name": "data",
                      "type": "bytes"
                    }
                  ],
                  "internalType": "struct LibAsset.AssetType",
                  "name": "assetType",
                  "type": "tuple"
                },
                {
                  "internalType": "uint256",
                  "name": "value",
                  "type": "uint256"
                }
              ],
              "internalType": "struct LibAsset.Asset",
              "name": "makeAsset",
              "type": "tuple"
            },
            {
              "internalType": "address",
              "name": "taker",
              "type": "address"
            },
            {
              "components": [
                {
                  "components": [
                    {
                      "internalType": "bytes4",
                      "name": "assetClass",
                      "type": "bytes4"
                    },
                    {
                      "internalType": "bytes",
                      "name": "data",
                      "type": "bytes"
                    }
                  ],
                  "internalType": "struct LibAsset.AssetType",
                  "name": "assetType",
                  "type": "tuple"
                },
                {
                  "internalType": "uint256",
                  "name": "value",
                  "type": "uint256"
                }
              ],
              "internalType": "struct LibAsset.Asset",
              "name": "takeAsset",
              "type": "tuple"
            },
            {
              "internalType": "uint256",
              "name": "salt",
              "type": "uint256"
            },
            {
              "internalType": "uint256",
              "name": "start",
              "type": "uint256"
            },
            {
              "internalType": "uint256",
              "name": "end",
              "type": "uint256"
            },
            {
              "internalType": "bytes4",
              "name": "dataType",
              "type": "bytes4"
            },
            {
              "internalType": "bytes",
              "name": "data",
              "type": "bytes"
            }
          ],
          "internalType": "struct LibOrder.Order",
          "name": "orderRight",
          "type": "tuple"
        },
        {
          "internalType": "bytes",
          "name": "signatureRight",
          "type": "bytes"
        }
      ],
      "name": "matchOrders",
      "outputs": [],
      "stateMutability": "payable",
      "type": "function"
    },
    {
      "inputs": [],
      "name": "owner",
      "outputs": [
        {
          "internalType": "address",
          "name": "",
          "type": "address"
        }
      ],
      "stateMutability": "view",
      "type": "function"
    },
    {
      "inputs": [],
      "name": "protocolFee",
      "outputs": [
        {
          "internalType": "uint256",
          "name": "",
          "type": "uint256"
        }
      ],
      "stateMutability": "view",
      "type": "function"
    },
    {
      "inputs": [],
      "name": "renounceOwnership",
      "outputs": [],
      "stateMutability": "nonpayable",
      "type": "function"
    },
    {
      "inputs": [],
      "name": "royaltiesRegistry",
      "outputs": [
        {
          "internalType": "contract IRoyaltiesProvider",
          "name": "",
          "type": "address"
        }
      ],
      "stateMutability": "view",
      "type": "function"
    },
    {
      "inputs": [
        {
          "internalType": "bytes4",
          "name": "assetType",
          "type": "bytes4"
        },
        {
          "internalType": "address",
          "name": "matcher",
          "type": "address"
        }
      ],
      "name": "setAssetMatcher",
      "outputs": [],
      "stateMutability": "nonpayable",
      "type": "function"
    },
    {
      "inputs": [
        {
          "internalType": "address payable",
          "name": "newDefaultFeeReceiver",
          "type": "address"
        }
      ],
      "name": "setDefaultFeeReceiver",
      "outputs": [],
      "stateMutability": "nonpayable",
      "type": "function"
    },
    {
      "inputs": [
        {
          "internalType": "address",
          "name": "token",
          "type": "address"
        },
        {
          "internalType": "address",
          "name": "wallet",
          "type": "address"
        }
      ],
      "name": "setFeeReceiver",
      "outputs": [],
      "stateMutability": "nonpayable",
      "type": "function"
    },
    {
      "inputs": [
        {
          "internalType": "uint64",
          "name": "_protocolFee",
          "type": "uint64"
        }
      ],
      "name": "setProtocolFee",
      "outputs": [],
      "stateMutability": "nonpayable",
      "type": "function"
    },
    {
      "inputs": [
        {
          "internalType": "contract IRoyaltiesProvider",
          "name": "newRoyaltiesRegistry",
          "type": "address"
        }
      ],
      "name": "setRoyaltiesRegistry",
      "outputs": [],
      "stateMutability": "nonpayable",
      "type": "function"
    },
    {
      "inputs": [
        {
          "internalType": "bytes4",
          "name": "assetType",
          "type": "bytes4"
        },
        {
          "internalType": "address",
          "name": "proxy",
          "type": "address"
        }
      ],
      "name": "setTransferProxy",
      "outputs": [],
      "stateMutability": "nonpayable",
      "type": "function"
    },
    {
      "inputs": [
        {
          "internalType": "address",
          "name": "newOwner",
          "type": "address"
        }
      ],
      "name": "transferOwnership",
      "outputs": [],
      "stateMutability": "nonpayable",
      "type": "function"
    },
    {
      "inputs": [
        {
          "internalType": "address",
          "name": "_transferProxy",
          "type": "address"
        },
        {
          "internalType": "address",
          "name": "_erc20TransferProxy",
          "type": "address"
        },
        {
          "internalType": "uint256",
          "name": "newProtocolFee",
          "type": "uint256"
        },
        {
          "internalType": "address",
          "name": "newDefaultFeeReceiver",
          "type": "address"
        },
        {
          "internalType": "contract IRoyaltiesProvider",
          "name": "newRoyaltiesProvider",
          "type": "address"
        }
      ],
      "name": "__ExchangeV2_init",
      "outputs": [],
      "stateMutability": "nonpayable",
      "type": "function"
    }
  ],
  "bytecode": "0x608060405234801561001057600080fd5b50614eeb806100206000396000f3fe6080604052600436106101145760003560e01c806343bc42d3116100a0578063b39deb4611610064578063b39deb46146102c7578063e2864fe3146102e7578063e66db25e14610307578063e99a3f8014610327578063f2fde38b1461033a57610114565b806343bc42d3146102535780636d8f069414610273578063715018a6146102885780638da5cb5b1461029d578063b0e21e8a146102b257610114565b806320158c44116100e757806320158c44146101b15780632d0335ab146101de57806330c642f1146101fe5780633abf6fd41461021e5780633be899221461023357610114565b806302097ab1146101195780630c53c51c1461014f5780631372a6251461016f5780631cdfe3d814610191575b600080fd5b34801561012557600080fd5b5061013961013436600461409b565b61035a565b6040516101469190614793565b60405180910390f35b61016261015d36600461438f565b610376565b60405161014691906148bf565b34801561017b57600080fd5b5061018f61018a366004614328565b6106d9565b005b34801561019d57600080fd5b5061018f6101ac36600461409b565b6107f6565b3480156101bd57600080fd5b506101d16101cc366004614447565b61087b565b6040516101469190614c16565b3480156101ea57600080fd5b506101d16101f936600461409b565b61088e565b34801561020a57600080fd5b5061018f61021936600461445f565b6108aa565b34801561022a57600080fd5b5061013961097a565b34801561023f57600080fd5b5061018f61024e36600461409b565b61098a565b34801561025f57600080fd5b5061018f61026e366004614718565b610a0f565b34801561027f57600080fd5b50610139610abc565b34801561029457600080fd5b5061018f610acc565b3480156102a957600080fd5b50610139610b78565b3480156102be57600080fd5b506101d1610b88565b3480156102d357600080fd5b5061018f6102e236600461445f565b610b8f565b3480156102f357600080fd5b5061018f61030236600461463f565b610c53565b34801561031357600080fd5b5061018f6103223660046142f0565b610d26565b61018f610335366004614671565b610db7565b34801561034657600080fd5b5061018f61035536600461409b565b610e73565b610162602052600090815260409020546001600160a01b031681565b6060600061038386610f76565b90506000356001600160e01b031990811690821614156103d45760405162461bcd60e51b815260040180806020018281038252603d815260200180614d58603d913960400191505060405180910390fd5b604080516060810182526001600160a01b03891660008181526101916020908152908490205483528201529081018790526104128882888888610f96565b61044d5760405162461bcd60e51b8152600401808060200182810382526021815260200180614e956021913960400191505060405180910390fd5b6001600160a01b03881660009081526101916020526040902054610472906001611080565b61019160008a6001600160a01b03166001600160a01b0316815260200190815260200160002081905550600080306001600160a01b0316898b6040516020018083805190602001908083835b602083106104dd5780518252601f1990920191602091820191016104be565b6001836020036101000a038019825116818451168082178552505050505050905001826001600160a01b031660601b8152601401925050506040516020818303038152906040526040518082805190602001908083835b602083106105535780518252601f199092019160209182019101610534565b6001836020036101000a0380198251168184511680821785525050505050509050019150506000604051808303816000865af19150503d80600081146105b5576040519150601f19603f3d011682016040523d82523d6000602084013e6105ba565b606091505b509150915081610611576040805162461bcd60e51b815260206004820152601c60248201527f46756e6374696f6e2063616c6c206e6f74207375636365737366756c00000000604482015290519081900360640190fd5b7f5845892132946850460bff5a0083f71031bc5bf9aadcd40f1de79423eac9b10b8a338b60405180846001600160a01b03168152602001836001600160a01b0316815260200180602001828103825283818151815260200191508051906020019080838360005b83811015610690578181015183820152602001610678565b50505050905090810190601f1680156106bd5780820380516001836020036101000a031916815260200191505b5094505050505060405180910390a19998505050505050505050565b600054610100900460ff16806106f257506106f26110e3565b80610700575060005460ff16155b61073b5760405162461bcd60e51b815260040180806020018281038252602e815260200180614e04602e913960400191505060405180910390fd5b600054610100900460ff16158015610766576000805460ff1961ff0019909116610100171660011790555b61076e6110f4565b610776611196565b61077e61128f565b6107c76040518060400160405280600e81526020016d22bc31b430b733b2a6b2ba30ab1960911b815250604051806040016040528060018152602001603160f81b81525061135f565b6107d186866113ef565b6107dc848484611499565b80156107ee576000805461ff00191690555b505050505050565b6107fe611575565b6001600160a01b031661080f610b78565b6001600160a01b031614610858576040805162461bcd60e51b81526020600482018190526024820152600080516020614e75833981519152604482015290519081900360640190fd5b61016180546001600160a01b0319166001600160a01b0392909216919091179055565b61012f6020526000908152604090205481565b6001600160a01b03166000908152610191602052604090205490565b6108b2611575565b6001600160a01b03166108c3610b78565b6001600160a01b03161461090c576040805162461bcd60e51b81526020600482018190526024820152600080516020614e75833981519152604482015290519081900360640190fd5b6001600160e01b031982166000818152609760205260409081902080546001600160a01b0319166001600160a01b038516179055517f4b5aced933c0c9a88aeac3f0b3b72c5aaf75df8ebaf53225773248c4c31535939061096e908490614793565b60405180910390a25050565b610161546001600160a01b031681565b610992611575565b6001600160a01b03166109a3610b78565b6001600160a01b0316146109ec576040805162461bcd60e51b81526020600482018190526024820152600080516020614e75833981519152604482015290519081900360640190fd5b61016080546001600160a01b0319166001600160a01b0392909216919091179055565b610a17611575565b6001600160a01b0316610a28610b78565b6001600160a01b031614610a71576040805162461bcd60e51b81526020600482018190526024820152600080516020614e75833981519152604482015290519081900360640190fd5b7fb51bef650ff5ad43303dbe2e500a74d4fd1bdc9ae05f046bece330e82ae0ba8761015f5482604051610aa5929190614c1f565b60405180910390a16001600160401b031661015f55565b610160546001600160a01b031681565b610ad4611575565b6001600160a01b0316610ae5610b78565b6001600160a01b031614610b2e576040805162461bcd60e51b81526020600482018190526024820152600080516020614e75833981519152604482015290519081900360640190fd5b6033546040516000916001600160a01b0316907f8be0079c531659141344cd1fd0a4f28419497f9722a3daafe3b4186f6b6457e0908390a3603380546001600160a01b0319169055565b6033546001600160a01b03165b90565b61015f5481565b610b97611575565b6001600160a01b0316610ba8610b78565b6001600160a01b031614610bf1576040805162461bcd60e51b81526020600482018190526024820152600080516020614e75833981519152604482015290519081900360640190fd5b6001600160e01b031982166000818152606560205260409081902080546001600160a01b0319166001600160a01b038516179055517fd2bf91075f105d0fd80328da28e20ebdad1c1261839711183bc29a44cbe6c72f9061096e908490614793565b80516001600160a01b0316610c66611575565b6001600160a01b031614610c955760405162461bcd60e51b8152600401610c8c90614b86565b60405180910390fd5b6080810151610cb65760405162461bcd60e51b8152600401610c8c906149ad565b6000610cc182611584565b600081815261012f602090815260409182902060001990558451908501515160608601515192519394507fbbdc98cb2835f4f846e6a63700d0498b4674f0e8858fd50c6379314227afa04e93610d1a938693929161481c565b60405180910390a15050565b610d2e611575565b6001600160a01b0316610d3f610b78565b6001600160a01b031614610d88576040805162461bcd60e51b81526020600482018190526024820152600080516020614e75833981519152604482015290519081900360640190fd5b6001600160a01b0391821660009081526101626020526040902080546001600160a01b03191691909216179055565b610dc184846116f3565b610dcb82826116f3565b60408401516001600160a01b031615610e175783604001516001600160a01b031682600001516001600160a01b031614610e175760405162461bcd60e51b8152600401610c8c90614b1b565b60408201516001600160a01b031615610e635783600001516001600160a01b031682604001516001600160a01b031614610e635760405162461bcd60e51b8152600401610c8c90614a1f565b610e6d848361170a565b50505050565b610e7b611575565b6001600160a01b0316610e8c610b78565b6001600160a01b031614610ed5576040805162461bcd60e51b81526020600482018190526024820152600080516020614e75833981519152604482015290519081900360640190fd5b6001600160a01b038116610f1a5760405162461bcd60e51b8152600401808060200182810382526026815260200180614d326026913960400191505060405180910390fd5b6033546040516001600160a01b038084169216907f8be0079c531659141344cd1fd0a4f28419497f9722a3daafe3b4186f6b6457e090600090a3603380546001600160a01b0319166001600160a01b0392909216919091179055565b6000815160001415610f8a57506000610f91565b5060208101515b919050565b6000806001610fac610fa788611a04565b611a87565b84878760405160008152602001604052604051808581526020018460ff1681526020018381526020018281526020019450505050506020604051602081039080840390855afa158015611003573d6000803e3d6000fd5b5050604051601f1901519150506001600160a01b03811661105f576040805162461bcd60e51b8152602060048201526011602482015270496e76616c6964207369676e617475726560781b604482015290519081900360640190fd5b866001600160a01b0316816001600160a01b03161491505095945050505050565b6000828201838110156110da576040805162461bcd60e51b815260206004820152601b60248201527f536166654d6174683a206164646974696f6e206f766572666c6f770000000000604482015290519081900360640190fd5b90505b92915050565b60006110ee30611ad3565b15905090565b600054610100900460ff168061110d575061110d6110e3565b8061111b575060005460ff16155b6111565760405162461bcd60e51b815260040180806020018281038252602e815260200180614e04602e913960400191505060405180910390fd5b600054610100900460ff16158015611181576000805460ff1961ff0019909116610100171660011790555b8015611193576000805461ff00191690555b50565b600054610100900460ff16806111af57506111af6110e3565b806111bd575060005460ff16155b6111f85760405162461bcd60e51b815260040180806020018281038252602e815260200180614e04602e913960400191505060405180910390fd5b600054610100900460ff16158015611223576000805460ff1961ff0019909116610100171660011790555b600061122d611575565b603380546001600160a01b0319166001600160a01b038316908117909155604051919250906000907f8be0079c531659141344cd1fd0a4f28419497f9722a3daafe3b4186f6b6457e0908290a3508015611193576000805461ff001916905550565b600054610100900460ff16806112a857506112a86110e3565b806112b6575060005460ff16155b6112f15760405162461bcd60e51b815260040180806020018281038252602e815260200180614e04602e913960400191505060405180910390fd5b600054610100900460ff1615801561131c576000805460ff1961ff0019909116610100171660011790555b6111816040518060400160405280600881526020016745786368616e676560c01b815250604051806040016040528060018152602001601960f91b815250611ad9565b7f36c25de3e541d5d970f66e4210d728721220fff5c077cc6cd008b3a0c62adab78280519060200120828051906020012030611399611b9a565b60405160200180868152602001858152602001848152602001836001600160a01b031681526020018281526020019550505050505060405160208183030381529060405280519060200120610192819055505050565b60976020527f4532fa16f071d6234e30e1a1e69b9806f04095edf37a1ca7a25c8d6af7861cc080546001600160a01b039283166001600160a01b0319918216179091557f30a684095c937b5aa064dcf94f9903a7d808e3efb22d8389dbd43080ad4ed3d5805493909216928116831790915563025ceed960e61b6000527f4b5822151ea34b7c8d9e37c3e466bcecb631efe6a9f26a4a4054110a93dd316f80549091169091179055565b600054610100900460ff16806114b257506114b26110e3565b806114c0575060005460ff16155b6114fb5760405162461bcd60e51b815260040180806020018281038252602e815260200180614e04602e913960400191505060405180910390fd5b600054610100900460ff16158015611526576000805460ff1961ff0019909116610100171660011790555b61015f84905561016180546001600160a01b038086166001600160a01b0319928316179092556101608054928516929091169190911790558015610e6d576000805461ff001916905550505050565b600061157f611ba4565b905090565b60e08101516000906001600160e01b0319166323d235ef60e01b14156116835781516020830151516115b590611c00565b6060840151516115c490611c00565b846080015185610100015160405160200180866001600160a01b0316815260200185815260200184815260200183815260200180602001828103825283818151815260200191508051906020019080838360005b83811015611630578181015183820152602001611618565b50505050905090810190601f16801561165d5780820380516001836020036101000a031916815260200191505b509650505050505050604051602081830303815290604052805190602001209050610f91565b815160208301515161169490611c00565b6060840151516116a390611c00565b846080015160405160200180856001600160a01b03168152602001848152602001838152602001828152602001945050505050604051602081830303815290604052805190602001209050610f91565b6116fc82611c6a565b6117068282611d34565b5050565b6000806117178484611fbd565b91509150600061172685611584565b9050600061173385611584565b9050600061174087612056565b9050600061174d87612056565b90506000611767898987878760400151876040015161215a565b90506000806118d46040518060a0016040528060405180604001604052808d8152602001876000015181525081526020018760000151815260200187602001518152602001609760008f6020015160000151600001516001600160e01b0319166001600160e01b031916815260200190815260200160002060009054906101000a90046001600160a01b03166001600160a01b031681526020018d600001516001600160a01b03168152506040518060a0016040528060405180604001604052808d8152602001886020015181525081526020018760000151815260200187602001518152602001609760008f6020015160000151600001516001600160e01b0319166001600160e01b031916815260200190815260200160002060009054906101000a90046001600160a01b03166001600160a01b031681526020018d600001516001600160a01b03168152506118c78c600001518c6000015161227d565b6118cf61234e565b612355565b8a5191935091506001600160e01b0319166355575f5d60e11b14156119535787516001600160e01b0319166355575f5d60e11b141561191257600080fd5b813410156119325760405162461bcd60e51b8152600401610c8c90614b5e565b8134111561194e5761194e611947348461244b565b33906124a8565b6119a2565b87516001600160e01b0319166355575f5d60e11b14156119a2578034101561198d5760405162461bcd60e51b8152600401610c8c90614b5e565b803411156119a2576119a2611947348361244b565b7f268820db288a211986b26a8fda86b1e0046281b21206936bb0e61c67b5c79ef487878d600001518d60000151876020015188600001518f8f6040516119ef989796959493929190614863565b60405180910390a15050505050505050505050565b6000604051806080016040528060438152602001614cef60439139805190602001208260000151836020015184604001518051906020012060405160200180858152602001848152602001836001600160a01b03168152602001828152602001945050505050604051602081830303815290604052805190602001209050919050565b6000611a91612540565b82604051602001808061190160f01b81525060020183815260200182815260200192505050604051602081830303815290604052805190602001209050919050565b3b151590565b600054610100900460ff1680611af25750611af26110e3565b80611b00575060005460ff16155b611b3b5760405162461bcd60e51b815260040180806020018281038252602e815260200180614e04602e913960400191505060405180910390fd5b600054610100900460ff16158015611b66576000805460ff1961ff0019909116610100171660011790555b825160208085019190912083519184019190912060c99190915560ca558015611b95576000805461ff00191690555b505050565b600061157f612547565b600033301415611bfb57600080368080601f0160208091040260200160405190810160405280939291908181526020018383808284376000920191909152505050503601516001600160a01b03169150610b859050565b503390565b8051602091820151805190830120604080517f452a0dc408cb0d27ffc3b3caff933a5208040a53a9dbecd8d89cad2c0d40e00c818601526001600160e01b031990931683820152606080840192909252805180840390920182526080909201909152805191012090565b60a08101511580611c7e5750428160a00151105b611ccf576040805162461bcd60e51b815260206004820152601d60248201527f4f726465722073746172742076616c69646174696f6e206661696c6564000000604482015290519081900360640190fd5b60c08101511580611ce35750428160c00151115b611193576040805162461bcd60e51b815260206004820152601b60248201527f4f7264657220656e642076616c69646174696f6e206661696c65640000000000604482015290519081900360640190fd5b6080820151611dd25781516001600160a01b031615611db95781516001600160a01b0316611d60611575565b6001600160a01b031614611db4576040805162461bcd60e51b815260206004820152601660248201527536b0b5b2b91034b9903737ba103a3c1039b2b73232b960511b604482015290519081900360640190fd5b611dcd565b611dc1611575565b6001600160a01b031682525b611706565b81516001600160a01b0316611de5611575565b6001600160a01b031614611706576000611dfe8361254b565b90506000825160411415611e2257611e1f83611e198461263b565b90612645565b90505b83516001600160a01b03828116911614610e6d578351611e4a906001600160a01b0316611ad3565b15611f86578351630b135d3f60e11b906001600160a01b0316631626ba7e611e718561263b565b866040518363ffffffff1660e01b81526004018083815260200180602001828103825283818151815260200191508051906020019080838360005b83811015611ec4578181015183820152602001611eac565b50505050905090810190601f168015611ef15780820380516001836020036101000a031916815260200191505b50935050505060206040518083038186803b158015611f0f57600080fd5b505afa158015611f23573d6000803e3d6000fd5b505050506040513d6020811015611f3957600080fd5b50516001600160e01b03191614611f815760405162461bcd60e51b815260040180806020018281038252602b815260200180614dd9602b913960400191505060405180910390fd5b610e6d565b60405162461bcd60e51b8152600401808060200182810382526022815260200180614db76022913960400191505060405180910390fd5b611fc5613ca4565b611fcd613ca4565b602084015151606084015151611fe391906126bb565b80519092506001600160e01b03191661200e5760405162461bcd60e51b8152600401610c8c90614aef565b60608401515160208401515161202491906126bb565b80519091506001600160e01b03191661204f5760405162461bcd60e51b8152600401610c8c90614aef565b9250929050565b61205e613cbc565b60e08201516001600160e01b031916632611a13360e11b14156120a657600061208b8361010001516126fb565b80518352602090810151908301525060006040820152612141565b60e08201516001600160e01b0319166323d235ef60e01b14156120d8576120d1826101000151612717565b9050612141565b60e08201516001600160e01b031990811614156120f457612141565b6040805162461bcd60e51b815260206004820152601760248201527f556e6b6e6f776e204f7264657220646174612074797065000000000000000000604482015290519081900360640190fd5b805151610f9157815161215390612733565b8152919050565b612162613cdf565b60006121728860800151876127ce565b905060006121848860800151876127ce565b905060006121968a8a85858a8a6127f3565b9050600081602001511180156121ac5750805115155b6121c85760405162461bcd60e51b8152600401610c8c90614a8f565b60808a01511561221b5785156121fa5780516121e5908490611080565b600089815261012f602052604090205561221b565b602081015161220a908490611080565b600089815261012f60205260409020555b60808901511561226e57841561225057602081015161223b908390611080565b600088815261012f602052604090205561226e565b805161225d908390611080565b600088815261012f60205260409020555b925050505b9695505050505050565b60006001600160e01b031983166355575f5d60e11b14156122a0575060016110dd565b6001600160e01b031982166355575f5d60e11b14156122c1575060026110dd565b6001600160e01b031983166322ba176160e21b14156122e2575060016110dd565b6001600160e01b031982166322ba176160e21b1415612303575060026110dd565b6001600160e01b0319831663025ceed960e61b1415612324575060016110dd565b6001600160e01b0319821663025ceed960e61b1415612345575060026110dd565b50600092915050565b61015f5490565b8351602090810151845190910151600184600281111561237157fe5b14156123b257612382868685612879565b91506123ad856000015160000151866000015160200151876080015189602001518960600151612969565b612442565b60028460028111156123c057fe5b14156123fc576123d1858785612879565b90506123ad866000015160000151876000015160200151886080015188602001518a60600151612969565b8551805160209182015160808901519288015160608a015161241f949190612969565b845180516020918201516080880151928901516060890151612442949190612969565b94509492505050565b6000828211156124a2576040805162461bcd60e51b815260206004820152601e60248201527f536166654d6174683a207375627472616374696f6e206f766572666c6f770000604482015290519081900360640190fd5b50900390565b6040516000906001600160a01b0384169083908381818185875af1925050503d80600081146124f3576040519150601f19603f3d011682016040523d82523d6000602084013e6124f8565b606091505b5050905080611b95576040805162461bcd60e51b815260206004820152600f60248201526e1d1c985b9cd9995c8819985a5b1959608a1b604482015290519081900360640190fd5b6101925490565b4690565b60007f477ed43b8020849b755512278536c3766a3b4ab547519949a75f483372493f8d82600001516125808460200151612aed565b84604001516125928660600151612aed565b86608001518760a001518860c001518960e001518a610100015180519060200120604051602001808b81526020018a6001600160a01b03168152602001898152602001886001600160a01b03168152602001878152602001868152602001858152602001848152602001836001600160e01b03191681526020018281526020019a5050505050505050505050604051602081830303815290604052805190602001209050919050565b6000611a91612b5d565b6000815160411461269d576040805162461bcd60e51b815260206004820152601f60248201527f45434453413a20696e76616c6964207369676e6174757265206c656e67746800604482015290519081900360640190fd5b60208201516040830151606084015160001a61227386828585612b98565b6126c3613ca4565b60006126cf8484612dee565b80519091506001600160e01b0319166126f4576126ec8385612dee565b9150506110dd565b90506110dd565b612703613cf9565b818060200190518101906110dd9190614507565b61271f613cbc565b818060200190518101906110dd9190614593565b60408051600180825281830190925260609160009190816020015b612756613d13565b81526020019060019003908161274e579050509050828160008151811061277957fe5b6020026020010151600001906001600160a01b031690816001600160a01b031681525050612710816000815181106127ad57fe5b6020908102919091018101516001600160601b039092169101529050919050565b6000826127dd575060006110dd565b50600090815261012f6020526040902054919050565b6127fb613cdf565b60008061280989888761300a565b9150915060008061281b8a898861300a565b915091508381111561284e5761284384848c60200151602001518d6060015160200151613084565b945050505050612273565b61286a8b60200151602001518c60600151602001518484613109565b9b9a5050505050505050505050565b600061289284600001516020015183866040015161318f565b905060006128bd82866000015160200151876080015186878a60000151600001518b606001516131fa565b85518051865151602090920151608089015160608a01519495506128e794929392869291906132c3565b905061291385600001516000015182876000015160200151886040015189608001518a60600151613308565b50855180516020909101516040870151608089015160608a015194955061293e948693929190613308565b508551516080870151602087015160608901519394506129619385929190612969565b509392505050565b600082511161298a5760405162461bcd60e51b8152600401610c8c906149db565b600084815b6001855103811015612a595760006129d08683815181106129ac57fe5b6020026020010151602001516001600160601b0316896133d490919063ffffffff16565b9050612a058683815181106129e157fe5b6020026020010151602001516001600160601b03168561108090919063ffffffff16565b93508015612a5057612a17838261244b565b9250612a5060405180604001604052808b81526020018381525088888581518110612a3e57fe5b602002602001015160000151886133ec565b5060010161298f565b50600084600186510381518110612a6c57fe5b60200260200101519050612a9681602001516001600160601b03168461108090919063ffffffff16565b92508261271014612ab95760405162461bcd60e51b8152600401610c8c90614ab8565b8115612ae357612ae360405180604001604052808a815260200184815250878360000151876133ec565b5050505050505050565b60007fdb6f72e915676cfc289da13bc4ece054fd17b1df6d77ffc4a60510718c236b08612b1d8360000151611c00565b8360200151604051602001808481526020018381526020018281526020019350505050604051602081830303815290604052805190602001209050919050565b600061157f7f8b73c3c69bb8fe3d512ecc4cf759cc79239f7b179b0ffacaa9a75d522b39400f612b8b6137d4565b612b936137da565b6137e0565b60007f7fffffffffffffffffffffffffffffff5d576e7357a4501ddfe92f46681b20a0821115612bf95760405162461bcd60e51b8152600401808060200182810382526022815260200180614d956022913960400191505060405180910390fd5b6000601e8560ff161115612cd3576004850360ff16601b1480612c2257506004850360ff16601c145b612c5d5760405162461bcd60e51b8152600401808060200182810382526022815260200180614e326022913960400191505060405180910390fd5b6001612c6887613843565b60048703868660405160008152602001604052604051808581526020018460ff1681526020018381526020018281526020019450505050506020604051602081039080840390855afa158015612cc2573d6000803e3d6000fd5b505050602060405103519050612d8a565b8460ff16601b1480612ce857508460ff16601c145b612d235760405162461bcd60e51b8152600401808060200182810382526022815260200180614e326022913960400191505060405180910390fd5b60018686868660405160008152602001604052604051808581526020018460ff1681526020018381526020018281526020019450505050506020604051602081039080840390855afa158015612d7d573d6000803e3d6000fd5b5050506020604051035190505b6001600160a01b038116612de5576040805162461bcd60e51b815260206004820152601860248201527f45434453413a20696e76616c6964207369676e61747572650000000000000000604482015290519081900360640190fd5b95945050505050565b612df6613ca4565b825182516001600160e01b031982166355575f5d60e11b1415612e61576001600160e01b031981166355575f5d60e11b1415612e365784925050506110dd565b50506040805180820182526000808252825160208181019094529081529181019190915290506110dd565b6001600160e01b031982166322ba176160e21b1415612ea6576001600160e01b031981166322ba176160e21b1415612e3657612e9d8585613894565b925050506110dd565b6001600160e01b031982166339d690a360e11b1415612ee2576001600160e01b031981166339d690a360e11b1415612e3657612e9d8585613894565b6001600160e01b0319821663025ceed960e61b1415612f1e576001600160e01b0319811663025ceed960e61b1415612e3657612e9d8585613894565b6001600160e01b031982166000908152606560205260409020546001600160a01b03168015612fd3576040516306d3f7cb60e41b81526001600160a01b03821690636d3f7cb090612f759089908990600401614bab565b60006040518083038186803b158015612f8d57600080fd5b505afa158015612fa1573d6000803e3d6000fd5b505050506040513d6000823e601f3d908101601f19168201604052612fc9919081019061447c565b93505050506110dd565b6001600160e01b03198381169083161415612ff257612fc98686613894565b60405162461bcd60e51b8152600401610c8c9061493f565b6000808215613049576020808601510151613025908561244b565b9150613042856060015160200151866020015160200151846138f1565b905061307c565b60608501516020015161305c908561244b565b9050613079856020015160200151866060015160200151836138f1565b91505b935093915050565b61308c613cdf565b60006130998585856138f1565b9050858111156130f0576040805162461bcd60e51b815260206004820152601860248201527f66696c6c4c6566743a20756e61626c6520746f2066696c6c0000000000000000604482015290519081900360640190fd5b5050604080518082019091529384525050602082015290565b613111613cdf565b600061311e8387876138f1565b905083811115613175576040805162461bcd60e51b815260206004820152601960248201527f66696c6c52696768743a20756e61626c6520746f2066696c6c00000000000000604482015290519081900360640190fd5b604080518082019091529283526020830152509392505050565b60006131a561319e85856133d4565b8590611080565b905060005b8251811015612961576131f06131e98483815181106131c557fe5b6020026020010151602001516001600160601b0316876133d490919063ffffffff16565b8390611080565b91506001016131aa565b600080600061320c8a8a888a01613957565b909250905080156132b65784516000906001600160e01b0319166322ba176160e21b141561325357856020015180602001905181019061324c91906140b7565b905061328c565b85516001600160e01b03191663025ceed960e61b141561328c576000866020015180602001905181019061328791906142c3565b509150505b6132b46040518060400160405280888152602001848152508a6132ae84613979565b886133ec565b505b5098975050505050505050565b6000806132cf876139b8565b90506000806132e28a8989868a8a613308565b915091506113888111156132b65760405162461bcd60e51b8152600401610c8c90614976565b846000805b85518110156133c85761334986828151811061332557fe5b6020026020010151602001516001600160601b03168361108090919063ffffffff16565b9150600080613379858a8a868151811061335f57fe5b6020026020010151602001516001600160601b0316613957565b909550859250905080156133be576133be60405180604001604052808d815260200183815250888a86815181106133ac57fe5b602002602001015160000151896133ec565b505060010161330d565b50965096945050505050565b60006110da6127106133e68585613b2d565b90613b86565b8351516001600160e01b0319166339d690a360e11b14156135325760008085600001516020015180602001905181019061342691906142c3565b91509150856020015160011461344e5760405162461bcd60e51b8152600401610c8c90614a63565b6001600160a01b0385163014156134c657604051632142170760e11b81526001600160a01b038316906342842e0e9061348f903090889086906004016147a7565b600060405180830381600087803b1580156134a957600080fd5b505af11580156134bd573d6000803e3d6000fd5b5050505061352b565b604051637b84dc8360e11b81526001600160a01b0384169063f709b906906134f8908590899089908790600401614915565b600060405180830381600087803b15801561351257600080fd5b505af1158015613526573d6000803e3d6000fd5b505050505b5050610e6d565b8351516001600160e01b0319166322ba176160e21b141561367557600084600001516020015180602001905181019061356b91906140b7565b90506001600160a01b03841630141561360757602085015160405163a9059cbb60e01b81526001600160a01b0383169163a9059cbb916135af918791600401614803565b602060405180830381600087803b1580156135c957600080fd5b505af11580156135dd573d6000803e3d6000fd5b505050506040513d601f19601f82011682018060405250810190613601919061442d565b5061366f565b602085015160405163776062c360e01b81526001600160a01b0384169163776062c39161363c91859189918991600401614915565b600060405180830381600087803b15801561365657600080fd5b505af115801561366a573d6000803e3d6000fd5b505050505b50610e6d565b8351516001600160e01b03191663025ceed960e61b1415613732576000808560000151602001518060200190518101906136af91906142c3565b90925090506001600160a01b0385163014156136fa576020860151604051637921219560e11b81526001600160a01b0384169163f242432a9161348f913091899187916004016147cb565b6020860151604051639c1c2ee960e01b81526001600160a01b03851691639c1c2ee9916134f89186918a918a918891906004016148d2565b8351516001600160e01b0319166355575f5d60e11b1415613776576001600160a01b0382163014611f81576020840151611f81906001600160a01b038416906124a8565b6040516354bc0cf160e01b81526001600160a01b038216906354bc0cf1906137a690879087908790600401614bd0565b600060405180830381600087803b1580156137c057600080fd5b505af1158015612ae3573d6000803e3d6000fd5b60c95490565b60ca5490565b60008383836137ed612547565b3060405160200180868152602001858152602001848152602001838152602001826001600160a01b03168152602001955050505050506040516020818303038152906040528051906020012090505b9392505050565b604080517f19457468657265756d205369676e6564204d6573736167653a0a333200000000602080830191909152603c8083019490945282518083039094018452605c909101909152815191012090565b61389c613ca4565b602080840151805190820120838201518051920191909120808214156138c65784925050506110dd565b5050604080518082018252600080825282516020808201909452908152918101919091529392505050565b60006138fe848484613bed565b15613941576040805162461bcd60e51b815260206004820152600e60248201526d3937bab73234b7339032b93937b960911b604482015290519081900360640190fd5b61394f836133e68685613b2d565b949350505050565b60008061396d8561396886866133d4565b613c7c565b91509150935093915050565b6001600160a01b038082166000908152610162602052604081205490911680156139a4579050610f91565b5050610161546001600160a01b0316919050565b80516060906001600160e01b03191663025ceed960e61b14806139ec575081516001600160e01b0319166339d690a360e11b145b15613aa2576000808360200151806020019051810190613a0c91906142c3565b61016054604051634e53ee3d60e11b81529294509092506001600160a01b031690639ca7dc7a90613a439085908590600401614803565b600060405180830381600087803b158015613a5d57600080fd5b505af1158015613a71573d6000803e3d6000fd5b505050506040513d6000823e601f3d908101601f19168201604052613a9991908101906143fb565b92505050610f91565b81516001600160e01b03191662737ea960e61b1415613ae35760008260200151806020019051810190613ad591906140d3565b608001519250610f91915050565b81516001600160e01b03191663d8f960c160e01b1415613b255760008260200151806020019051810190613b1791906141d0565b606001519250610f91915050565b506060919050565b600082613b3c575060006110dd565b82820282848281613b4957fe5b04146110da5760405162461bcd60e51b8152600401808060200182810382526021815260200180614e546021913960400191505060405180910390fd5b6000808211613bdc576040805162461bcd60e51b815260206004820152601a60248201527f536166654d6174683a206469766973696f6e206279207a65726f000000000000604482015290519081900360640190fd5b818381613be557fe5b049392505050565b600082613c34576040805162461bcd60e51b815260206004820152601060248201526f6469766973696f6e206279207a65726f60801b604482015290519081900360640190fd5b811580613c3f575083155b15613c4c5750600061383c565b60008380613c5657fe5b8584099050613c658584613b2d565b613c71826103e8613b2d565b101595945050505050565b60008082841115613c9b57613c91848461244b565b915082905061204f565b50600093915050565b60408051808201909152600081526060602082015290565b604051806060016040528060608152602001606081526020016000151581525090565b604051806040016040528060008152602001600081525090565b604051806040016040528060608152602001606081525090565b604080518082019091526000808252602082015290565b8035610f9181614cc3565b600082601f830112613d45578081fd5b81516020613d5a613d5583614c59565b614c36565b82815281810190858301855b85811015613d8f57613d7d898684518b0101613ebe565b84529284019290840190600101613d66565b5090979650505050505050565b600082601f830112613dac578081fd5b81516020613dbc613d5583614c59565b82815281810190858301604080860288018501891015613dda578687fd5b865b86811015613e495781838b031215613df2578788fd5b81518281018181106001600160401b0382111715613e0c57fe5b83528351613e1981614cc3565b8152838701516001600160601b0381168114613e3357898afd5b8188015285529385019391810191600101613ddc565b509198975050505050505050565b80518015158114610f9157600080fd5b8035610f9181614cd8565b600082601f830112613e82578081fd5b8135613e90613d5582614c76565b818152846020838601011115613ea4578283fd5b816020850160208301379081016020019190915292915050565b600082601f830112613ece578081fd5b8151613edc613d5582614c76565b818152846020838601011115613ef0578283fd5b61394f826020830160208701614c97565b60006040808385031215613f13578182fd5b80518181016001600160401b038282108183111715613f2e57fe5b818452829450853581811115613f4357600080fd5b8601808803851315613f5457600080fd5b608084018381108382111715613f6657fe5b909452833593613f7585614cd8565b93825260208401359381851115613f8b57600080fd5b613f9788868301613e72565b60608501525050815260209384013593019290925292915050565b6000610120808385031215613fc5578182fd5b613fce81614c36565b915050613fda82613d2a565b815260208201356001600160401b0380821115613ff657600080fd5b61400285838601613f01565b602084015261401360408501613d2a565b6040840152606084013591508082111561402c57600080fd5b61403885838601613f01565b60608401526080840135608084015260a084013560a084015260c084013560c084015261406760e08501613e67565b60e08401526101009150818401358181111561408257600080fd5b61408e86828701613e72565b8385015250505092915050565b6000602082840312156140ac578081fd5b81356110da81614cc3565b6000602082840312156140c8578081fd5b81516110da81614cc3565b600080604083850312156140e5578081fd5b82516140f081614cc3565b60208401519092506001600160401b038082111561410c578283fd5b9084019060c0828703121561411f578283fd5b61412960c0614c36565b8251815260208301518281111561413e578485fd5b61414a88828601613ebe565b6020830152506040830151604082015260608301518281111561416b578485fd5b61417788828601613d9c565b60608301525060808301518281111561418e578485fd5b61419a88828601613d9c565b60808301525060a0830151828111156141b1578485fd5b6141bd88828601613d35565b60a0830152508093505050509250929050565b600080604083850312156141e2578182fd5b82516141ed81614cc3565b60208401519092506001600160401b0380821115614209578283fd5b9084019060a0828703121561421c578283fd5b61422660a0614c36565b8251815260208301518281111561423b578485fd5b61424788828601613ebe565b60208301525060408301518281111561425e578485fd5b61426a88828601613d9c565b604083015250606083015182811115614281578485fd5b61428d88828601613d9c565b6060830152506080830151828111156142a4578485fd5b6142b088828601613d35565b6080830152508093505050509250929050565b600080604083850312156142d5578182fd5b82516142e081614cc3565b6020939093015192949293505050565b60008060408385031215614302578182fd5b823561430d81614cc3565b9150602083013561431d81614cc3565b809150509250929050565b600080600080600060a0868803121561433f578081fd5b853561434a81614cc3565b9450602086013561435a81614cc3565b935060408601359250606086013561437181614cc3565b9150608086013561438181614cc3565b809150509295509295909350565b600080600080600060a086880312156143a6578283fd5b85356143b181614cc3565b945060208601356001600160401b038111156143cb578384fd5b6143d788828901613e72565b9450506040860135925060608601359150608086013560ff81168114614381578182fd5b60006020828403121561440c578081fd5b81516001600160401b03811115614421578182fd5b61394f84828501613d9c565b60006020828403121561443e578081fd5b6110da82613e57565b600060208284031215614458578081fd5b5035919050565b60008060408385031215614471578182fd5b823561430d81614cd8565b60006020828403121561448d578081fd5b81516001600160401b03808211156144a3578283fd5b90830190604082860312156144b6578283fd5b6040516040810181811083821117156144cb57fe5b60405282516144d981614cd8565b81526020830151828111156144ec578485fd5b6144f887828601613ebe565b60208301525095945050505050565b600060208284031215614518578081fd5b81516001600160401b038082111561452e578283fd5b9083019060408286031215614541578283fd5b60405160408101818110838211171561455657fe5b604052825182811115614567578485fd5b61457387828601613d9c565b825250602083015182811115614587578485fd5b6144f887828601613d9c565b6000602082840312156145a4578081fd5b81516001600160401b03808211156145ba578283fd5b90830190606082860312156145cd578283fd5b6040516060810181811083821117156145e257fe5b6040528251828111156145f3578485fd5b6145ff87828601613d9c565b825250602083015182811115614613578485fd5b61461f87828601613d9c565b60208301525061463160408401613e57565b604082015295945050505050565b600060208284031215614650578081fd5b81356001600160401b03811115614665578182fd5b61394f84828501613fb2565b60008060008060808587031215614686578182fd5b84356001600160401b038082111561469c578384fd5b6146a888838901613fb2565b955060208701359150808211156146bd578384fd5b6146c988838901613e72565b945060408701359150808211156146de578384fd5b6146ea88838901613fb2565b935060608701359150808211156146ff578283fd5b5061470c87828801613e72565b91505092959194509250565b600060208284031215614729578081fd5b81356001600160401b03811681146110da578182fd5b60008151808452614757816020860160208601614c97565b601f01601f19169290920160200192915050565b600063ffffffff60e01b825116835260208201516040602085015261394f604085018261473f565b6001600160a01b0391909116815260200190565b6001600160a01b039384168152919092166020820152604081019190915260600190565b6001600160a01b0394851681529290931660208301526040820152606081019190915260a06080820181905260009082015260c00190565b6001600160a01b03929092168252602082015260400190565b8481526001600160a01b03841660208201526080604082018190526000906148469083018561476b565b8281036060840152614858818561476b565b979650505050505050565b888152602081018890526001600160a01b038781166040830152861660608201526080810185905260a0810184905261010060c082018190526000906148ab8382018661476b565b905082810360e084015261286a818561476b565b6000602082526110da602083018461473f565b6001600160a01b03958616815293851660208501529190931660408301526060820192909252608081019190915260c060a0820181905260009082015260e00190565b6001600160a01b039485168152928416602084015292166040820152606081019190915260800190565b60208082526017908201527f6e6f7420666f756e64204941737365744d617463686572000000000000000000604082015260600190565b6020808252601d908201527f526f79616c746965732061726520746f6f206869676820283e35302529000000604082015260600190565b6020808252601490820152730c081cd85b1d0818d85b89dd081899481d5cd95960621b604082015260600190565b60208082526024908201527f7472616e736665725061796f7574733a206e6f7468696e6720746f207472616e60408201526339b332b960e11b606082015260800190565b60208082526024908201527f72696768744f726465722e74616b657220766572696669636174696f6e2066616040820152631a5b195960e21b606082015260800190565b60208082526012908201527132b9319b9918903b30b63ab29032b93937b960711b604082015260600190565b6020808252600f908201526e1b9bdd1a1a5b99c81d1bc8199a5b1b608a1b604082015260600190565b6020808252601e908201527f53756d207061796f75747320427073206e6f7420657175616c20313030250000604082015260600190565b6020808252601290820152710c2e6e6cae8e640c8dedc4ee840dac2e8c6d60731b604082015260600190565b60208082526023908201527f6c6566744f726465722e74616b657220766572696669636174696f6e206661696040820152621b195960ea1b606082015260800190565b6020808252600e908201526d0dcdee840cadcdeeaced040cae8d60931b604082015260600190565b6020808252600b908201526a3737ba10309036b0b5b2b960a91b604082015260600190565b600060408252614bbe604083018561476b565b8281036020840152612de5818561476b565b600060608252845160406060840152614bec60a084018261476b565b60209687015160808501526001600160a01b03958616968401969096525050911660409091015290565b90815260200190565b9182526001600160401b0316602082015260400190565b6040518181016001600160401b0381118282101715614c5157fe5b604052919050565b60006001600160401b03821115614c6c57fe5b5060209081020190565b60006001600160401b03821115614c8957fe5b50601f01601f191660200190565b60005b83811015614cb2578181015183820152602001614c9a565b83811115610e6d5750506000910152565b6001600160a01b038116811461119357600080fd5b6001600160e01b03198116811461119357600080fdfe4d6574615472616e73616374696f6e2875696e74323536206e6f6e63652c616464726573732066726f6d2c62797465732066756e6374696f6e5369676e6174757265294f776e61626c653a206e6577206f776e657220697320746865207a65726f206164647265737366756e6374696f6e5369676e61747572652063616e206e6f74206265206f6620657865637574654d6574615472616e73616374696f6e206d6574686f6445434453413a20696e76616c6964207369676e6174757265202773272076616c75656f72646572207369676e617475726520766572696669636174696f6e206572726f72636f6e7472616374206f72646572207369676e617475726520766572696669636174696f6e206572726f72496e697469616c697a61626c653a20636f6e747261637420697320616c726561647920696e697469616c697a656445434453413a20696e76616c6964207369676e6174757265202776272076616c7565536166654d6174683a206d756c7469706c69636174696f6e206f766572666c6f774f776e61626c653a2063616c6c6572206973206e6f7420746865206f776e65725369676e657220616e64207369676e617475726520646f206e6f74206d61746368a2646970667358221220b0beeaf29ef83ce4ccc177f52780165aa54dde169142843a50787a07d5a3ed5864736f6c63430007060033",
  "immutableReferences": {},
  "source": "// SPDX-License-Identifier: MIT\n\npragma solidity 0.7.6;\npragma abicoder v2;\n\nimport \"./ExchangeV2Core.sol\";\nimport \"@rarible/meta-tx/contracts/EIP712MetaTransaction.sol\";\nimport \"@rarible/transfer-manager/contracts/RaribleTransferManager.sol\";\n\ncontract ExchangeMetaV2 is ExchangeV2Core, RaribleTransferManager, EIP712MetaTransaction {\n    function __ExchangeV2_init(\n        address _transferProxy,\n        address _erc20TransferProxy,\n        uint newProtocolFee,\n        address newDefaultFeeReceiver,\n        IRoyaltiesProvider newRoyaltiesProvider\n    ) external initializer {\n        __Context_init_unchained();\n        __Ownable_init_unchained();\n        __OrderValidator_init_unchained();\n        __MetaTransaction_init_unchained(\"ExchangeMetaV2\", \"1\");\n        __TransferExecutor_init_unchained(_transferProxy, _erc20TransferProxy);\n        __RaribleTransferManager_init_unchained(newProtocolFee, newDefaultFeeReceiver, newRoyaltiesProvider);\n    }\n\n    function _msgSender() internal view virtual override(ContextUpgradeable, EIP712MetaTransaction) returns (address payable) {\n        return super._msgSender();\n    }\n\n    function getProtocolFee() internal override view returns(uint) {\n        return protocolFee;\n    }\n\n}\n",
  "sourcePath": "/Users/ds/Documents/rarible/protocol-contracts/exchange-v2/contracts/ExchangeMetaV2.sol",
  "compiler": {
    "name": "solc",
    "version": "0.7.6+commit.7338295f.Emscripten.clang"
  },
  "schemaVersion": "3.4.3",
  "updatedAt": "2022-03-09T20:13:08.399Z",
  "devdoc": {
    "kind": "dev",
    "methods": {
      "owner()": {
        "details": "Returns the address of the current owner."
      },
      "renounceOwnership()": {
        "details": "Leaves the contract without owner. It will not be possible to call `onlyOwner` functions anymore. Can only be called by the current owner. NOTE: Renouncing ownership will leave the contract without an owner, thereby removing any functionality that is only available to the owner."
      },
      "transferOwnership(address)": {
        "details": "Transfers ownership of the contract to a new account (`newOwner`). Can only be called by the current owner."
      }
    },
    "version": 1
  },
  "userdoc": {
    "kind": "user",
    "methods": {},
    "version": 1
  }
}