{
  "contractName": "LibAsset",
  "abi": [
    {
      "inputs": [],
      "name": "ERC1155_ASSET_TYPE",
      "outputs": [
        {
          "internalType": "bytes4",
          "name": "",
          "type": "bytes4"
        }
      ],
      "stateMutability": "view",
      "type": "function"
    },
    {
      "inputs": [],
      "name": "ERC20_ASSET_TYPE",
      "outputs": [
        {
          "internalType": "bytes4",
          "name": "",
          "type": "bytes4"
        }
      ],
      "stateMutability": "view",
      "type": "function"
    },
    {
      "inputs": [],
      "name": "ERC721_ASSET_TYPE",
      "outputs": [
        {
          "internalType": "bytes4",
          "name": "",
          "type": "bytes4"
        }
      ],
      "stateMutability": "view",
      "type": "function"
    },
    {
      "inputs": [],
      "name": "ETH_ASSET_TYPE",
      "outputs": [
        {
          "internalType": "bytes4",
          "name": "",
          "type": "bytes4"
        }
      ],
      "stateMutability": "view",
      "type": "function"
    }
  ],
  "bytecode": "0x61015e610026600b82828239805160001a60731461001957fe5b30600052607381538281f3fe73000000000000000000000000000000000000000030146080604052600436106100565760003560e01c806303b429dd1461005b578063235b20b814610080578063285649d8146100885780634f3decde14610090575b600080fd5b610063610098565b604080516001600160e01b03199092168252519081900360200190f35b6100636100bc565b6100636100e0565b610063610104565b7f973bb64086f173ec8099b7ed3d43da984f4a332e4417a08bc6a286e6402b058681565b7f8ae85d849167ff996c04040c44924fd364217285e4cad818292c7ac37c0a345b81565b7f73ad2146b3d3a286642c794379d750360a2d53a3459a11b3e5d6cc900f55f44a81565b7faaaebeba3810b1e6b70781f14b2d72c1cb89c0b2b320c43bb67ff79f562f5ff48156fea264697066735822122041140b62668120150ce32f3ec2bc491f0b538f561519e8f073de9360b4aa7f8064736f6c63430007060033",
  "immutableReferences": {},
  "source": "// SPDX-License-Identifier: MIT\n\npragma solidity >=0.6.9 <0.8.0;\n\nlibrary LibAsset {\n    bytes4 constant public ETH_ASSET_TYPE = bytes4(keccak256(\"ETH\"));\n    bytes4 constant public ERC20_ASSET_TYPE = bytes4(keccak256(\"ERC20\"));\n    bytes4 constant public ERC721_ASSET_TYPE = bytes4(keccak256(\"ERC721\"));\n    bytes4 constant public ERC1155_ASSET_TYPE = bytes4(keccak256(\"ERC1155\"));\n\n    bytes32 constant ASSET_TYPE_TYPEHASH = keccak256(\n        \"AssetType(bytes4 tp,bytes data)\"\n    );\n\n    bytes32 constant ASSET_TYPEHASH = keccak256(\n        \"Asset(AssetType assetType,uint256 amount)AssetType(bytes4 tp,bytes data)\"\n    );\n\n    struct AssetType {\n        bytes4 tp;\n        bytes data;\n    }\n\n    struct Asset {\n        AssetType assetType;\n        uint amount;\n    }\n\n    function hash(AssetType memory assetType) internal pure returns (bytes32) {\n        return keccak256(abi.encode(\n                ASSET_TYPE_TYPEHASH,\n                assetType.tp,\n                keccak256(assetType.data)\n            ));\n    }\n\n    function hash(Asset memory asset) internal pure returns (bytes32) {\n        return keccak256(abi.encode(\n                ASSET_TYPEHASH,\n                hash(asset.assetType),\n                asset.amount\n            ));\n    }\n\n}\n",
  "sourcePath": "/home/quadro/Projects/tokenplace/interfaces/exchange-v2/contracts/exchange/v2/LibAsset.sol",
  "compiler": {
    "name": "solc",
    "version": "0.7.6+commit.7338295f.Emscripten.clang"
  },
  "schemaVersion": "3.3.2",
  "updatedAt": "2021-03-17T15:58:23.375Z",
  "devdoc": {
    "kind": "dev",
    "methods": {},
    "version": 1
  },
  "userdoc": {
    "kind": "user",
    "methods": {},
    "version": 1
  }
}