{
  "contractName": "LibERC1155LazyMint",
  "abi": [
    {
      "inputs": [],
      "name": "ERC1155_LAZY_ASSET_CLASS",
      "outputs": [
        {
          "internalType": "bytes4",
          "name": "",
          "type": "bytes4"
        }
      ],
      "stateMutability": "view",
      "type": "function"
    },
    {
      "inputs": [],
      "name": "MINT_AND_TRANSFER_TYPEHASH",
      "outputs": [
        {
          "internalType": "bytes32",
          "name": "",
          "type": "bytes32"
        }
      ],
      "stateMutability": "view",
      "type": "function"
    }
  ],
  "bytecode": "0x60fb610025600b82828239805160001a60731461001857fe5b30600052607381538281f3fe7300000000000000000000000000000000000000003014608060405260043610603d5760003560e01c80637987105f14604257806390c20c4314605a575b600080fd5b6048607d565b60408051918252519081900360200190f35b606060a1565b604080516001600160e01b03199092168252519081900360200190f35b7ffb988707ebb338694f318760b0fd5cfe756d00a2ade251fda110b80c336a3c7f81565b7f1cdfaa400bc064c91b5cc20e571cfcc92103980be96e01fb36dda1962d8d78cb8156fea2646970667358221220d116293ed1234d2458b21090f0a4f70b740fc69875913ecd96f54d2e9001f2fd64736f6c63430007060033",
  "immutableReferences": {},
  "source": "// SPDX-License-Identifier: MIT\n\npragma solidity >=0.6.2 <0.8.0;\n\nimport \"@rarible/royalties/contracts/LibPart.sol\";\n\nlibrary LibERC1155LazyMint {\n    bytes4 constant public ERC1155_LAZY_ASSET_CLASS = bytes4(keccak256(\"ERC1155_LAZY\"));\n    bytes4 constant _INTERFACE_ID_MINT_AND_TRANSFER = 0x6db15a0f;\n\n    struct Mint1155Data {\n        uint tokenId;\n        string tokenURI;\n        uint supply;\n        LibPart.Part[] creators;\n        LibPart.Part[] royalties;\n        bytes[] signatures;\n    }\n\n    bytes32 public constant MINT_AND_TRANSFER_TYPEHASH = keccak256(\"Mint1155(uint256 tokenId,uint256 supply,string tokenURI,Part[] creators,Part[] royalties)Part(address account,uint96 value)\");\n\n    function hash(Mint1155Data memory data) internal pure returns (bytes32) {\n        bytes32[] memory royaltiesBytes = new bytes32[](data.royalties.length);\n        for (uint i = 0; i < data.royalties.length; i++) {\n            royaltiesBytes[i] = LibPart.hash(data.royalties[i]);\n        }\n        bytes32[] memory creatorsBytes = new bytes32[](data.creators.length);\n        for (uint i = 0; i < data.creators.length; i++) {\n            creatorsBytes[i] = LibPart.hash(data.creators[i]);\n        }\n        return keccak256(abi.encode(\n                MINT_AND_TRANSFER_TYPEHASH,\n                data.tokenId,\n                data.supply,\n                keccak256(bytes(data.tokenURI)),\n                keccak256(abi.encodePacked(creatorsBytes)),\n                keccak256(abi.encodePacked(royaltiesBytes))\n            ));\n    }\n}\n",
  "sourcePath": "@rarible/lazy-mint/contracts/erc-1155/LibERC1155LazyMint.sol",
  "compiler": {
    "name": "solc",
    "version": "0.7.6+commit.7338295f.Emscripten.clang"
  },
  "schemaVersion": "3.4.3",
  "updatedAt": "2022-03-11T06:21:16.981Z",
  "devdoc": {
    "kind": "dev",
    "methods": {},
    "version": 1
  },
  "userdoc": {
    "kind": "user",
    "methods": {},
    "version": 1
  }
}