{
  "contractName": "LibERC721LazyMint",
  "abi": [
    {
      "inputs": [],
      "name": "ERC721_NON_MINTED_ASSET_TYPE",
      "outputs": [
        {
          "internalType": "bytes4",
          "name": "",
          "type": "bytes4"
        }
      ],
      "stateMutability": "view",
      "type": "function"
    }
  ],
  "bytecode": "0x60b5610024600b82828239805160001a607314601757fe5b30600052607381538281f3fe730000000000000000000000000000000000000000301460806040526004361060335760003560e01c80639371b045146038575b600080fd5b603e605b565b604080516001600160e01b03199092168252519081900360200190f35b7fd8f960c1450658267efb07308b4050c9e705cea25a53b560236c88cb149696be8156fea264697066735822122075d0d4b211ec4680483c1cbd011c84fb9800c3342b99226192ebf5508d0ce71164736f6c63430007060033",
  "immutableReferences": {},
  "source": "// SPDX-License-Identifier: MIT\n\npragma solidity >=0.6.2 <0.8.0;\n\nimport \"@rarible/royalties/contracts/LibPart.sol\";\n\nlibrary LibERC721LazyMint {\n    bytes4 constant public ERC721_NON_MINTED_ASSET_TYPE = bytes4(keccak256(\"ERC721_LAZY\"));\n\n    struct Mint721Data {\n        uint tokenId;\n        string uri;\n        address[] creators;\n        LibPart.Part[] royalties;\n        bytes[] signatures;\n    }\n}\n",
  "sourcePath": "@rarible/lazy-mint/contracts/erc-721/LibERC721LazyMint.sol",
  "compiler": {
    "name": "solc",
    "version": "0.7.6+commit.7338295f.Emscripten.clang"
  },
  "schemaVersion": "3.3.4",
  "updatedAt": "2021-03-24T11:38:54.510Z",
  "devdoc": {
    "kind": "dev",
    "methods": {},
    "version": 1
  },
  "userdoc": {
    "kind": "user",
    "methods": {},
    "version": 1
  }
}