{
  "contractName": "LibPart",
  "abi": [
    {
      "inputs": [],
      "name": "TYPE_HASH",
      "outputs": [
        {
          "internalType": "bytes32",
          "name": "",
          "type": "bytes32"
        }
      ],
      "stateMutability": "view",
      "type": "function"
    }
  ],
  "bytecode": "0x60aa610024600b82828239805160001a607314601757fe5b30600052607381538281f3fe730000000000000000000000000000000000000000301460806040526004361060335760003560e01c806364d4c819146038575b600080fd5b603e6050565b60408051918252519081900360200190f35b7fde9f867c8c0082f67cb8553d1312c639b9fd36e285659afb024b603c39ade5468156fea264697066735822122049173255d2d505eb5a04133b147169c0f7bbad9ef2d8d99d5d50538aa9395af464736f6c63430007060033",
  "immutableReferences": {},
  "source": "// SPDX-License-Identifier: MIT\n\npragma solidity >=0.6.2 <0.8.0;\n\nlibrary LibPart {\n    bytes32 public constant TYPE_HASH = keccak256(\"Part(address account,uint256 value)\");\n\n    struct Part {\n        address payable account;\n        uint value;\n    }\n\n    function hash(Part memory part) internal pure returns (bytes32) {\n        return keccak256(abi.encode(TYPE_HASH, part.account, part.value));\n    }\n}\n",
  "sourcePath": "@rarible/royalties/contracts/LibPart.sol",
  "compiler": {
    "name": "solc",
    "version": "0.7.6+commit.7338295f.Emscripten.clang"
  },
  "schemaVersion": "3.3.2",
  "updatedAt": "2021-03-18T10:24:19.244Z",
  "devdoc": {
    "kind": "dev",
    "methods": {},
    "version": 1
  },
  "userdoc": {
    "kind": "user",
    "methods": {},
    "version": 1
  }
}