{
  "contractName": "OperatorRole",
  "abi": [
    {
      "anonymous": false,
      "inputs": [
        {
          "indexed": true,
          "internalType": "address",
          "name": "previousOwner",
          "type": "address"
        },
        {
          "indexed": true,
          "internalType": "address",
          "name": "newOwner",
          "type": "address"
        }
      ],
      "name": "OwnershipTransferred",
      "type": "event"
    },
    {
      "inputs": [],
      "name": "owner",
      "outputs": [
        {
          "internalType": "address",
          "name": "",
          "type": "address"
        }
      ],
      "stateMutability": "view",
      "type": "function"
    },
    {
      "inputs": [],
      "name": "renounceOwnership",
      "outputs": [],
      "stateMutability": "nonpayable",
      "type": "function"
    },
    {
      "inputs": [
        {
          "internalType": "address",
          "name": "newOwner",
          "type": "address"
        }
      ],
      "name": "transferOwnership",
      "outputs": [],
      "stateMutability": "nonpayable",
      "type": "function"
    },
    {
      "inputs": [
        {
          "internalType": "address",
          "name": "operator",
          "type": "address"
        }
      ],
      "name": "addOperator",
      "outputs": [],
      "stateMutability": "nonpayable",
      "type": "function"
    },
    {
      "inputs": [
        {
          "internalType": "address",
          "name": "operator",
          "type": "address"
        }
      ],
      "name": "removeOperator",
      "outputs": [],
      "stateMutability": "nonpayable",
      "type": "function"
    }
  ],
  "bytecode": "0x608060405234801561001057600080fd5b50610443806100206000396000f3fe608060405234801561001057600080fd5b50600436106100575760003560e01c8063715018a61461005c5780638da5cb5b146100665780639870d7fe1461008a578063ac8a584a146100b0578063f2fde38b146100d6575b600080fd5b6100646100fc565b005b61006e6101a8565b604080516001600160a01b039092168252519081900360200190f35b610064600480360360208110156100a057600080fd5b50356001600160a01b03166101b7565b610064600480360360208110156100c657600080fd5b50356001600160a01b031661023d565b610064600480360360208110156100ec57600080fd5b50356001600160a01b03166102c0565b6101046103c3565b6001600160a01b03166101156101a8565b6001600160a01b03161461015e576040805162461bcd60e51b815260206004820181905260248201526000805160206103ee833981519152604482015290519081900360640190fd5b6033546040516000916001600160a01b0316907f8be0079c531659141344cd1fd0a4f28419497f9722a3daafe3b4186f6b6457e0908390a3603380546001600160a01b0319169055565b6033546001600160a01b031690565b6101bf6103c3565b6001600160a01b03166101d06101a8565b6001600160a01b031614610219576040805162461bcd60e51b815260206004820181905260248201526000805160206103ee833981519152604482015290519081900360640190fd5b6001600160a01b03166000908152606560205260409020805460ff19166001179055565b6102456103c3565b6001600160a01b03166102566101a8565b6001600160a01b03161461029f576040805162461bcd60e51b815260206004820181905260248201526000805160206103ee833981519152604482015290519081900360640190fd5b6001600160a01b03166000908152606560205260409020805460ff19169055565b6102c86103c3565b6001600160a01b03166102d96101a8565b6001600160a01b031614610322576040805162461bcd60e51b815260206004820181905260248201526000805160206103ee833981519152604482015290519081900360640190fd5b6001600160a01b0381166103675760405162461bcd60e51b81526004018080602001828103825260268152602001806103c86026913960400191505060405180910390fd5b6033546040516001600160a01b038084169216907f8be0079c531659141344cd1fd0a4f28419497f9722a3daafe3b4186f6b6457e090600090a3603380546001600160a01b0319166001600160a01b0392909216919091179055565b339056fe4f776e61626c653a206e6577206f776e657220697320746865207a65726f20616464726573734f776e61626c653a2063616c6c6572206973206e6f7420746865206f776e6572a264697066735822122080dfedf1e3d6d9428405d4a4c287c626e1403da9473663bf9b4aaf4b05da9e7964736f6c63430007060033",
  "immutableReferences": {},
  "source": "// SPDX-License-Identifier: MIT\n\npragma solidity >=0.6.9 <0.8.0;\n\nimport \"@openzeppelin/contracts-upgradeable/access/OwnableUpgradeable.sol\";\n\ncontract OperatorRole is OwnableUpgradeable {\n    mapping (address => bool) operators;\n\n    function addOperator(address operator) external onlyOwner {\n        operators[operator] = true;\n    }\n\n    function removeOperator(address operator) external onlyOwner {\n        operators[operator] = false;\n    }\n\n    modifier onlyOperator() {\n        require(operators[_msgSender()], \"OperatorRole: caller is not the operator\");\n        _;\n    }\n}\n",
  "sourcePath": "/home/quadro/Projects/tokenplace/interfaces/exchange-v2/contracts/roles/OperatorRole.sol",
  "compiler": {
    "name": "solc",
    "version": "0.7.6+commit.7338295f.Emscripten.clang"
  },
  "schemaVersion": "3.3.2",
  "updatedAt": "2021-03-17T15:58:23.437Z",
  "devdoc": {
    "kind": "dev",
    "methods": {
      "owner()": {
        "details": "Returns the address of the current owner."
      },
      "renounceOwnership()": {
        "details": "Leaves the contract without owner. It will not be possible to call `onlyOwner` functions anymore. Can only be called by the current owner. NOTE: Renouncing ownership will leave the contract without an owner, thereby removing any functionality that is only available to the owner."
      },
      "transferOwnership(address)": {
        "details": "Transfers ownership of the contract to a new account (`newOwner`). Can only be called by the current owner."
      }
    },
    "version": 1
  },
  "userdoc": {
    "kind": "user",
    "methods": {},
    "version": 1
  }
}