{
  "contractName": "RoyaltiesV1Impl",
  "abi": [
    {
      "anonymous": false,
      "inputs": [
        {
          "indexed": false,
          "internalType": "uint256",
          "name": "tokenId",
          "type": "uint256"
        },
        {
          "indexed": false,
          "internalType": "address[]",
          "name": "recipients",
          "type": "address[]"
        },
        {
          "indexed": false,
          "internalType": "uint256[]",
          "name": "bps",
          "type": "uint256[]"
        }
      ],
      "name": "SecondarySaleFees",
      "type": "event"
    },
    {
      "inputs": [
        {
          "internalType": "uint256",
          "name": "",
          "type": "uint256"
        },
        {
          "internalType": "uint256",
          "name": "",
          "type": "uint256"
        }
      ],
      "name": "fees",
      "outputs": [
        {
          "internalType": "address payable",
          "name": "account",
          "type": "address"
        },
        {
          "internalType": "uint256",
          "name": "value",
          "type": "uint256"
        }
      ],
      "stateMutability": "view",
      "type": "function"
    },
    {
      "inputs": [
        {
          "internalType": "uint256",
          "name": "id",
          "type": "uint256"
        }
      ],
      "name": "getFeeRecipients",
      "outputs": [
        {
          "internalType": "address payable[]",
          "name": "",
          "type": "address[]"
        }
      ],
      "stateMutability": "view",
      "type": "function"
    },
    {
      "inputs": [
        {
          "internalType": "uint256",
          "name": "id",
          "type": "uint256"
        }
      ],
      "name": "getFeeBps",
      "outputs": [
        {
          "internalType": "uint256[]",
          "name": "",
          "type": "uint256[]"
        }
      ],
      "stateMutability": "view",
      "type": "function"
    }
  ],
  "bytecode": "0x608060405234801561001057600080fd5b506103a9806100206000396000f3fe608060405234801561001057600080fd5b50600436106100415760003560e01c80630ebd4c7f146100465780636308f1cd146100b3578063b9c4d9fb146100f9575b600080fd5b6100636004803603602081101561005c57600080fd5b5035610116565b60408051602080825283518183015283519192839290830191858101910280838360005b8381101561009f578181015183820152602001610087565b505050509050019250505060405180910390f35b6100d6600480360360408110156100c957600080fd5b508035906020013561021f565b604080516001600160a01b03909316835260208301919091528051918290030190f35b6100636004803603602081101561010f57600080fd5b5035610265565b600081815260208181526040808320805482518185028101850190935280835260609493849084015b82821015610187576000848152602090819020604080518082019091526002850290910180546001600160a01b0316825260019081015482840152908352909201910161013f565b5050505090506000815167ffffffffffffffff811180156101a757600080fd5b506040519080825280602002602001820160405280156101d1578160200160208202803683370190505b50905060005b8251811015610217578281815181106101ec57fe5b60200260200101516020015182828151811061020457fe5b60209081029190910101526001016101d7565b509392505050565b6000602052816000526040600020818154811061023b57600080fd5b6000918252602090912060029091020180546001909101546001600160a01b039091169250905082565b600081815260208181526040808320805482518185028101850190935280835260609493849084015b828210156102d6576000848152602090819020604080518082019091526002850290910180546001600160a01b0316825260019081015482840152908352909201910161028e565b5050505090506000815167ffffffffffffffff811180156102f657600080fd5b50604051908082528060200260200182016040528015610320578160200160208202803683370190505b50905060005b82518110156102175782818151811061033b57fe5b60200260200101516000015182828151811061035357fe5b6001600160a01b039092166020928302919091019091015260010161032656fea2646970667358221220146657f08fa25ff3123899a919ed7d5c70010ed3db364ab4b84ab8a955d9e2ae64736f6c63430007060033",
  "immutableReferences": {},
  "source": "// SPDX-License-Identifier: MIT\n\npragma solidity >=0.6.2 <0.8.0;\n\nimport \"./AbstractRoyalties.sol\";\nimport \"../RoyaltiesV1.sol\";\n\ncontract RoyaltiesV1Impl is AbstractRoyalties, RoyaltiesV1 {\n\n    function getFeeRecipients(uint256 id) public override view returns (address payable[] memory) {\n        LibPart.Part[] memory _fees = fees[id];\n        address payable[] memory result = new address payable[](_fees.length);\n        for (uint i = 0; i < _fees.length; i++) {\n            result[i] = address(uint160(_fees[i].account));\n        }\n        return result;\n    }\n\n    function getFeeBps(uint256 id) public override view returns (uint[] memory) {\n        LibPart.Part[] memory _fees = fees[id];\n        uint[] memory result = new uint[](_fees.length);\n        for (uint i = 0; i < _fees.length; i++) {\n            result[i] = _fees[i].value;\n        }\n        return result;\n    }\n\n    function _onRoyaltiesSet(uint256 _id, LibPart.Part[] memory _fees) override internal {\n        address[] memory recipients = new address[](_fees.length);\n        uint[] memory bps = new uint[](_fees.length);\n        for (uint i = 0; i < _fees.length; i++) {\n            recipients[i] = _fees[i].account;\n            bps[i] = _fees[i].value;\n        }\n        emit SecondarySaleFees(_id, recipients, bps);\n    }\n}\n",
  "sourcePath": "@rarible/royalties/contracts/impl/RoyaltiesV1Impl.sol",
  "compiler": {
    "name": "solc",
    "version": "0.7.6+commit.7338295f.Emscripten.clang"
  },
  "schemaVersion": "3.3.2",
  "updatedAt": "2021-03-17T15:36:10.772Z",
  "devdoc": {
    "kind": "dev",
    "methods": {},
    "version": 1
  },
  "userdoc": {
    "kind": "user",
    "methods": {},
    "version": 1
  }
}