{
  "contractName": "LibAsset",
  "abi": [
    {
      "inputs": [],
      "name": "COLLECTION",
      "outputs": [
        {
          "internalType": "bytes4",
          "name": "",
          "type": "bytes4"
        }
      ],
      "stateMutability": "view",
      "type": "function"
    },
    {
      "inputs": [],
      "name": "CRYPTO_PUNKS",
      "outputs": [
        {
          "internalType": "bytes4",
          "name": "",
          "type": "bytes4"
        }
      ],
      "stateMutability": "view",
      "type": "function"
    },
    {
      "inputs": [],
      "name": "ERC1155_ASSET_CLASS",
      "outputs": [
        {
          "internalType": "bytes4",
          "name": "",
          "type": "bytes4"
        }
      ],
      "stateMutability": "view",
      "type": "function"
    },
    {
      "inputs": [],
      "name": "ERC20_ASSET_CLASS",
      "outputs": [
        {
          "internalType": "bytes4",
          "name": "",
          "type": "bytes4"
        }
      ],
      "stateMutability": "view",
      "type": "function"
    },
    {
      "inputs": [],
      "name": "ERC721_ASSET_CLASS",
      "outputs": [
        {
          "internalType": "bytes4",
          "name": "",
          "type": "bytes4"
        }
      ],
      "stateMutability": "view",
      "type": "function"
    },
    {
      "inputs": [],
      "name": "ETH_ASSET_CLASS",
      "outputs": [
        {
          "internalType": "bytes4",
          "name": "",
          "type": "bytes4"
        }
      ],
      "stateMutability": "view",
      "type": "function"
    }
  ],
  "bytecode": "0x6101cc610026600b82828239805160001a60731461001957fe5b30600052607381538281f3fe730000000000000000000000000000000000000000301460806040526004361061006c5760003560e01c80631d32813614610071578063405bf27514610096578063697b23651461009e5780636cd2c30a146100a6578063b4797da2146100ae578063c214be59146100b6575b600080fd5b6100796100be565b604080516001600160e01b03199092168252519081900360200190f35b6100796100e2565b610079610106565b61007961012a565b61007961014e565b610079610172565b7f3e6b89d41ae6cce5def8a4064ada8dba77d057c7a0113741d26b5e4eccdd2a7e81565b7f973bb64086f173ec8099b7ed3d43da984f4a332e4417a08bc6a286e6402b058681565b7ff63c282591b950c64511498574d1cdfa76078b63dbcad6d06139d12d140b61cb81565b7f8ae85d849167ff996c04040c44924fd364217285e4cad818292c7ac37c0a345b81565b7faaaebeba3810b1e6b70781f14b2d72c1cb89c0b2b320c43bb67ff79f562f5ff481565b7f73ad2146b3d3a286642c794379d750360a2d53a3459a11b3e5d6cc900f55f44a8156fea2646970667358221220e4d6ae1fe9fc30350ce1b93c0bcfbed9f57416a636cde53928bb1072fa5af9e864736f6c63430007060033",
  "immutableReferences": {},
  "source": "// SPDX-License-Identifier: MIT\r\n\r\npragma solidity 0.7.6;\r\n\r\nlibrary LibAsset {\r\n    bytes4 constant public ETH_ASSET_CLASS = bytes4(keccak256(\"ETH\"));\r\n    bytes4 constant public ERC20_ASSET_CLASS = bytes4(keccak256(\"ERC20\"));\r\n    bytes4 constant public ERC721_ASSET_CLASS = bytes4(keccak256(\"ERC721\"));\r\n    bytes4 constant public ERC1155_ASSET_CLASS = bytes4(keccak256(\"ERC1155\"));\r\n    bytes4 constant public COLLECTION = bytes4(keccak256(\"COLLECTION\"));\r\n    bytes4 constant public CRYPTO_PUNKS = bytes4(keccak256(\"CRYPTO_PUNKS\"));\r\n\r\n    bytes32 constant ASSET_TYPE_TYPEHASH = keccak256(\r\n        \"AssetType(bytes4 assetClass,bytes data)\"\r\n    );\r\n\r\n    bytes32 constant ASSET_TYPEHASH = keccak256(\r\n        \"Asset(AssetType assetType,uint256 value)AssetType(bytes4 assetClass,bytes data)\"\r\n    );\r\n\r\n    struct AssetType {\r\n        bytes4 assetClass;\r\n        bytes data;\r\n    }\r\n\r\n    struct Asset {\r\n        AssetType assetType;\r\n        uint value;\r\n    }\r\n\r\n    function hash(AssetType memory assetType) internal pure returns (bytes32) {\r\n        return keccak256(abi.encode(\r\n                ASSET_TYPE_TYPEHASH,\r\n                assetType.assetClass,\r\n                keccak256(assetType.data)\r\n            ));\r\n    }\r\n\r\n    function hash(Asset memory asset) internal pure returns (bytes32) {\r\n        return keccak256(abi.encode(\r\n                ASSET_TYPEHASH,\r\n                hash(asset.assetType),\r\n                asset.value\r\n            ));\r\n    }\r\n\r\n}\r\n",
  "sourcePath": "@rarible\\lib-asset\\contracts\\LibAsset.sol",
  "compiler": {
    "name": "solc",
    "version": "0.7.6+commit.7338295f.Emscripten.clang"
  },
  "schemaVersion": "3.4.10",
  "updatedAt": "2022-09-23T17:17:23.902Z",
  "devdoc": {
    "kind": "dev",
    "methods": {},
    "version": 1
  },
  "userdoc": {
    "kind": "user",
    "methods": {},
    "version": 1
  }
}