{
  "contractName": "LibERC1155LazyMint",
  "abi": [
    {
      "inputs": [],
      "name": "ERC1155_LAZY_ASSET_CLASS",
      "outputs": [
        {
          "internalType": "bytes4",
          "name": "",
          "type": "bytes4"
        }
      ],
      "stateMutability": "view",
      "type": "function"
    },
    {
      "inputs": [],
      "name": "MINT_AND_TRANSFER_TYPEHASH",
      "outputs": [
        {
          "internalType": "bytes32",
          "name": "",
          "type": "bytes32"
        }
      ],
      "stateMutability": "view",
      "type": "function"
    }
  ],
  "bytecode": "0x60fb610025600b82828239805160001a60731461001857fe5b30600052607381538281f3fe7300000000000000000000000000000000000000003014608060405260043610603d5760003560e01c80637987105f14604257806390c20c4314605a575b600080fd5b6048607d565b60408051918252519081900360200190f35b606060a1565b604080516001600160e01b03199092168252519081900360200190f35b7ffb988707ebb338694f318760b0fd5cfe756d00a2ade251fda110b80c336a3c7f81565b7f1cdfaa400bc064c91b5cc20e571cfcc92103980be96e01fb36dda1962d8d78cb8156fea2646970667358221220cd5d17d3dbd0f7fe106ab7e17040e4554deaf0bc0f247efe821c3df05c16b28a64736f6c63430007060033",
  "immutableReferences": {},
  "source": "// SPDX-License-Identifier: MIT\r\n\r\npragma solidity >=0.6.2 <0.8.0;\r\n\r\nimport \"@rarible/lib-part/contracts/LibPart.sol\";\r\n\r\nlibrary LibERC1155LazyMint {\r\n    bytes4 constant public ERC1155_LAZY_ASSET_CLASS = bytes4(keccak256(\"ERC1155_LAZY\"));\r\n    bytes4 constant _INTERFACE_ID_MINT_AND_TRANSFER = 0x6db15a0f;\r\n\r\n    struct Mint1155Data {\r\n        uint tokenId;\r\n        string tokenURI;\r\n        uint supply;\r\n        LibPart.Part[] creators;\r\n        LibPart.Part[] royalties;\r\n        bytes[] signatures;\r\n    }\r\n\r\n    bytes32 public constant MINT_AND_TRANSFER_TYPEHASH = keccak256(\"Mint1155(uint256 tokenId,uint256 supply,string tokenURI,Part[] creators,Part[] royalties)Part(address account,uint96 value)\");\r\n\r\n    function hash(Mint1155Data memory data) internal pure returns (bytes32) {\r\n        bytes32[] memory royaltiesBytes = new bytes32[](data.royalties.length);\r\n        for (uint i = 0; i < data.royalties.length; i++) {\r\n            royaltiesBytes[i] = LibPart.hash(data.royalties[i]);\r\n        }\r\n        bytes32[] memory creatorsBytes = new bytes32[](data.creators.length);\r\n        for (uint i = 0; i < data.creators.length; i++) {\r\n            creatorsBytes[i] = LibPart.hash(data.creators[i]);\r\n        }\r\n        return keccak256(abi.encode(\r\n                MINT_AND_TRANSFER_TYPEHASH,\r\n                data.tokenId,\r\n                data.supply,\r\n                keccak256(bytes(data.tokenURI)),\r\n                keccak256(abi.encodePacked(creatorsBytes)),\r\n                keccak256(abi.encodePacked(royaltiesBytes))\r\n            ));\r\n    }\r\n}\r\n",
  "sourcePath": "@rarible\\lazy-mint\\contracts\\erc-1155\\LibERC1155LazyMint.sol",
  "compiler": {
    "name": "solc",
    "version": "0.7.6+commit.7338295f.Emscripten.clang"
  },
  "schemaVersion": "3.4.10",
  "updatedAt": "2022-09-26T07:45:50.952Z",
  "devdoc": {
    "kind": "dev",
    "methods": {},
    "version": 1
  },
  "userdoc": {
    "kind": "user",
    "methods": {},
    "version": 1
  }
}