{
  "contractName": "LibPart",
  "abi": [
    {
      "inputs": [],
      "name": "TYPE_HASH",
      "outputs": [
        {
          "internalType": "bytes32",
          "name": "",
          "type": "bytes32"
        }
      ],
      "stateMutability": "view",
      "type": "function"
    }
  ],
  "bytecode": "0x60aa610024600b82828239805160001a607314601757fe5b30600052607381538281f3fe730000000000000000000000000000000000000000301460806040526004361060335760003560e01c806364d4c819146038575b600080fd5b603e6050565b60408051918252519081900360200190f35b7f397e04204c1e1a60ee8724b71f8244e10ab5f2e9009854d80f602bda21b59ebb8156fea2646970667358221220d91d796c9cead110c05487c1554fc5152c3123ce952ddf1bee5ba4242de427d764736f6c63430007060033",
  "immutableReferences": {},
  "source": "// SPDX-License-Identifier: MIT\r\n\r\npragma solidity >=0.6.2 <0.8.0;\r\n\r\nlibrary LibPart {\r\n    bytes32 public constant TYPE_HASH = keccak256(\"Part(address account,uint96 value)\");\r\n\r\n    struct Part {\r\n        address payable account;\r\n        uint96 value;\r\n    }\r\n\r\n    function hash(Part memory part) internal pure returns (bytes32) {\r\n        return keccak256(abi.encode(TYPE_HASH, part.account, part.value));\r\n    }\r\n}\r\n",
  "sourcePath": "@rarible\\lib-part\\contracts\\LibPart.sol",
  "compiler": {
    "name": "solc",
    "version": "0.7.6+commit.7338295f.Emscripten.clang"
  },
  "schemaVersion": "3.4.10",
  "updatedAt": "2022-09-26T07:45:50.964Z",
  "devdoc": {
    "kind": "dev",
    "methods": {},
    "version": 1
  },
  "userdoc": {
    "kind": "user",
    "methods": {},
    "version": 1
  }
}