{
  "contractName": "TransferExecutorCore",
  "abi": [
    {
      "anonymous": false,
      "inputs": [
        {
          "indexed": true,
          "internalType": "address",
          "name": "previousOwner",
          "type": "address"
        },
        {
          "indexed": true,
          "internalType": "address",
          "name": "newOwner",
          "type": "address"
        }
      ],
      "name": "OwnershipTransferred",
      "type": "event"
    },
    {
      "anonymous": false,
      "inputs": [
        {
          "indexed": true,
          "internalType": "bytes4",
          "name": "assetType",
          "type": "bytes4"
        },
        {
          "indexed": false,
          "internalType": "address",
          "name": "proxy",
          "type": "address"
        }
      ],
      "name": "ProxyChange",
      "type": "event"
    },
    {
      "inputs": [],
      "name": "defaultFeeReceiver",
      "outputs": [
        {
          "internalType": "address",
          "name": "",
          "type": "address"
        }
      ],
      "stateMutability": "view",
      "type": "function"
    },
    {
      "inputs": [
        {
          "internalType": "address",
          "name": "",
          "type": "address"
        }
      ],
      "name": "feeReceivers",
      "outputs": [
        {
          "internalType": "address",
          "name": "",
          "type": "address"
        }
      ],
      "stateMutability": "view",
      "type": "function"
    },
    {
      "inputs": [],
      "name": "owner",
      "outputs": [
        {
          "internalType": "address",
          "name": "",
          "type": "address"
        }
      ],
      "stateMutability": "view",
      "type": "function"
    },
    {
      "inputs": [],
      "name": "renounceOwnership",
      "outputs": [],
      "stateMutability": "nonpayable",
      "type": "function"
    },
    {
      "inputs": [],
      "name": "royaltiesRegistry",
      "outputs": [
        {
          "internalType": "contract IRoyaltiesProvider",
          "name": "",
          "type": "address"
        }
      ],
      "stateMutability": "view",
      "type": "function"
    },
    {
      "inputs": [
        {
          "internalType": "address",
          "name": "newOwner",
          "type": "address"
        }
      ],
      "name": "transferOwnership",
      "outputs": [],
      "stateMutability": "nonpayable",
      "type": "function"
    },
    {
      "inputs": [
        {
          "internalType": "contract IRoyaltiesProvider",
          "name": "newRoyaltiesRegistry",
          "type": "address"
        }
      ],
      "name": "setRoyaltiesRegistry",
      "outputs": [],
      "stateMutability": "nonpayable",
      "type": "function"
    },
    {
      "inputs": [
        {
          "internalType": "address payable",
          "name": "newDefaultFeeReceiver",
          "type": "address"
        }
      ],
      "name": "setDefaultFeeReceiver",
      "outputs": [],
      "stateMutability": "nonpayable",
      "type": "function"
    },
    {
      "inputs": [
        {
          "internalType": "address",
          "name": "token",
          "type": "address"
        },
        {
          "internalType": "address",
          "name": "wallet",
          "type": "address"
        }
      ],
      "name": "setFeeReceiver",
      "outputs": [],
      "stateMutability": "nonpayable",
      "type": "function"
    },
    {
      "inputs": [
        {
          "internalType": "address",
          "name": "token",
          "type": "address"
        }
      ],
      "name": "getFeeReceiver",
      "outputs": [
        {
          "internalType": "address",
          "name": "",
          "type": "address"
        }
      ],
      "stateMutability": "view",
      "type": "function"
    },
    {
      "inputs": [
        {
          "internalType": "bytes4",
          "name": "assetType",
          "type": "bytes4"
        },
        {
          "internalType": "address",
          "name": "proxy",
          "type": "address"
        }
      ],
      "name": "setTransferProxy",
      "outputs": [],
      "stateMutability": "nonpayable",
      "type": "function"
    },
    {
      "inputs": [
        {
          "internalType": "uint256",
          "name": "data",
          "type": "uint256"
        }
      ],
      "name": "parseFeeData",
      "outputs": [
        {
          "internalType": "address",
          "name": "",
          "type": "address"
        },
        {
          "internalType": "uint96",
          "name": "",
          "type": "uint96"
        }
      ],
      "stateMutability": "pure",
      "type": "function"
    }
  ],
  "bytecode": "0x608060405234801561001057600080fd5b5061078c806100206000396000f3fe608060405234801561001057600080fd5b50600436106100b45760003560e01c80636d8f0694116100715780636d8f0694146101ad578063715018a6146101b55780638da5cb5b146101bd578063b8bfa006146101c5578063e66db25e14610212578063f2fde38b14610240576100b4565b806302097ab1146100b95780631cdfe3d8146100fb5780632deafb991461012357806330c642f1146101495780633abf6fd41461017f5780633be8992214610187575b600080fd5b6100df600480360360208110156100cf57600080fd5b50356001600160a01b0316610266565b604080516001600160a01b039092168252519081900360200190f35b6101216004803603602081101561011157600080fd5b50356001600160a01b0316610281565b005b6100df6004803603602081101561013957600080fd5b50356001600160a01b0316610305565b6101216004803603604081101561015f57600080fd5b5080356001600160e01b03191690602001356001600160a01b0316610343565b6100df610413565b6101216004803603602081101561019d57600080fd5b50356001600160a01b0316610422565b6100df6104a6565b6101216104b5565b6100df610561565b6101e2600480360360208110156101db57600080fd5b5035610570565b604080516001600160a01b0390931683526bffffffffffffffffffffffff90911660208301528051918290030190f35b6101216004803603604081101561022857600080fd5b506001600160a01b0381358116916020013516610579565b6101216004803603602081101561025657600080fd5b50356001600160a01b0316610609565b6067602052600090815260409020546001600160a01b031681565b61028961070c565b6001600160a01b031661029a610561565b6001600160a01b0316146102e3576040805162461bcd60e51b81526020600482018190526024820152600080516020610737833981519152604482015290519081900360640190fd5b606680546001600160a01b0319166001600160a01b0392909216919091179055565b6001600160a01b03808216600090815260676020526040812054909116801561032f57905061033e565b50506066546001600160a01b03165b919050565b61034b61070c565b6001600160a01b031661035c610561565b6001600160a01b0316146103a5576040805162461bcd60e51b81526020600482018190526024820152600080516020610737833981519152604482015290519081900360640190fd5b6001600160e01b0319821660008181526068602090815260409182902080546001600160a01b0319166001600160a01b038616908117909155825190815291517f4b5aced933c0c9a88aeac3f0b3b72c5aaf75df8ebaf53225773248c4c31535939281900390910190a25050565b6066546001600160a01b031681565b61042a61070c565b6001600160a01b031661043b610561565b6001600160a01b031614610484576040805162461bcd60e51b81526020600482018190526024820152600080516020610737833981519152604482015290519081900360640190fd5b606580546001600160a01b0319166001600160a01b0392909216919091179055565b6065546001600160a01b031681565b6104bd61070c565b6001600160a01b03166104ce610561565b6001600160a01b031614610517576040805162461bcd60e51b81526020600482018190526024820152600080516020610737833981519152604482015290519081900360640190fd5b6033546040516000916001600160a01b0316907f8be0079c531659141344cd1fd0a4f28419497f9722a3daafe3b4186f6b6457e0908390a3603380546001600160a01b0319169055565b6033546001600160a01b031690565b9060a082901c90565b61058161070c565b6001600160a01b0316610592610561565b6001600160a01b0316146105db576040805162461bcd60e51b81526020600482018190526024820152600080516020610737833981519152604482015290519081900360640190fd5b6001600160a01b03918216600090815260676020526040902080546001600160a01b03191691909216179055565b61061161070c565b6001600160a01b0316610622610561565b6001600160a01b03161461066b576040805162461bcd60e51b81526020600482018190526024820152600080516020610737833981519152604482015290519081900360640190fd5b6001600160a01b0381166106b05760405162461bcd60e51b81526004018080602001828103825260268152602001806107116026913960400191505060405180910390fd5b6033546040516001600160a01b038084169216907f8be0079c531659141344cd1fd0a4f28419497f9722a3daafe3b4186f6b6457e090600090a3603380546001600160a01b0319166001600160a01b0392909216919091179055565b339056fe4f776e61626c653a206e6577206f776e657220697320746865207a65726f20616464726573734f776e61626c653a2063616c6c6572206973206e6f7420746865206f776e6572a26469706673582212204abf1b618aa63a87202df235a94d268ce4061607ada83fa1100b7a6b6f4ae3e364736f6c63430007060033",
  "immutableReferences": {},
  "source": "// SPDX-License-Identifier: MIT\n\npragma solidity 0.7.6;\n\nimport \"@rarible/royalties/contracts/IRoyaltiesProvider.sol\";\nimport \"@rarible/lib-asset/contracts/LibAsset.sol\";\nimport \"@rarible/libraries/contracts/BpLibrary.sol\";\n\nimport \"@openzeppelin/contracts-upgradeable/proxy/Initializable.sol\";\nimport \"@openzeppelin/contracts-upgradeable/access/OwnableUpgradeable.sol\";\nimport \"@openzeppelin/contracts-upgradeable/math/SafeMathUpgradeable.sol\";\n\nimport \"./lib/LibTransfer.sol\";\n\ncontract TransferExecutorCore is Initializable, OwnableUpgradeable{\n    using BpLibrary for uint;\n    using SafeMathUpgradeable for uint;\n\n    IRoyaltiesProvider public royaltiesRegistry;\n\n    address public defaultFeeReceiver;\n    mapping(address => address) public feeReceivers;\n\n    mapping (bytes4 => address) proxies;\n\n    event ProxyChange(bytes4 indexed assetType, address proxy);\n\n    function __TransferExecutorCore_init_unchained(\n        address newDefaultFeeReceiver,\n        IRoyaltiesProvider newRoyaltiesProvider,\n        address transferProxy,\n        address erc20TransferProxy\n    ) internal initializer {\n        defaultFeeReceiver = newDefaultFeeReceiver;\n        royaltiesRegistry = newRoyaltiesProvider;\n        proxies[LibAsset.ERC20_ASSET_CLASS] = erc20TransferProxy;\n        proxies[LibAsset.ERC721_ASSET_CLASS] = transferProxy;\n        proxies[LibAsset.ERC1155_ASSET_CLASS] = transferProxy;\n    }\n\n    function setRoyaltiesRegistry(IRoyaltiesProvider newRoyaltiesRegistry) external onlyOwner {\n        royaltiesRegistry = newRoyaltiesRegistry;\n    }\n\n    function setDefaultFeeReceiver(address payable newDefaultFeeReceiver) external onlyOwner {\n        defaultFeeReceiver = newDefaultFeeReceiver;\n    }\n\n    function setFeeReceiver(address token, address wallet) external onlyOwner {\n        feeReceivers[token] = wallet;\n    }\n\n    function getFeeReceiver(address token) public view returns (address) {\n        address wallet = feeReceivers[token];\n        if (wallet != address(0)) {\n            return wallet;\n        }\n        return defaultFeeReceiver;\n    }\n\n    function setTransferProxy(bytes4 assetType, address proxy) external onlyOwner {\n        proxies[assetType] = proxy;\n        emit ProxyChange(assetType, proxy);\n    }\n\n    function subFeeInBp(uint value, uint total, uint feeInBp) internal pure returns (uint newValue, uint realFee) {\n        return subFee(value, total.bp(feeInBp));\n    }\n\n    function subFee(uint value, uint fee) internal pure returns (uint newValue, uint realFee) {\n        if (value > fee) {\n            newValue = value.sub(fee);\n            realFee = fee;\n        } else {\n            newValue = 0;\n            realFee = value;\n        }\n    }\n\n    function parseFeeData(uint data) public pure returns(address, uint96) {\n        return (address(data), uint96(data >> 160));\n    }\n}",
  "sourcePath": "/Users/ds/Documents/rarible/protocol-contracts/transfer-manager/contracts/TransferExecutorCore.sol",
  "compiler": {
    "name": "solc",
    "version": "0.7.6+commit.7338295f.Emscripten.clang"
  },
  "schemaVersion": "3.4.3",
  "updatedAt": "2022-03-06T16:16:50.805Z",
  "devdoc": {
    "kind": "dev",
    "methods": {
      "owner()": {
        "details": "Returns the address of the current owner."
      },
      "renounceOwnership()": {
        "details": "Leaves the contract without owner. It will not be possible to call `onlyOwner` functions anymore. Can only be called by the current owner. NOTE: Renouncing ownership will leave the contract without an owner, thereby removing any functionality that is only available to the owner."
      },
      "transferOwnership(address)": {
        "details": "Transfers ownership of the contract to a new account (`newOwner`). Can only be called by the current owner."
      }
    },
    "version": 1
  },
  "userdoc": {
    "kind": "user",
    "methods": {},
    "version": 1
  }
}