{
  "contractName": "ExchangeV2",
  "abi": [
    {
      "anonymous": false,
      "inputs": [
        {
          "indexed": false,
          "internalType": "uint256",
          "name": "oldValue",
          "type": "uint256"
        },
        {
          "indexed": false,
          "internalType": "uint256",
          "name": "newValue",
          "type": "uint256"
        }
      ],
      "name": "BuyerFeeAmountChanged",
      "type": "event"
    },
    {
      "anonymous": false,
      "inputs": [
        {
          "indexed": false,
          "internalType": "bytes32",
          "name": "hash",
          "type": "bytes32"
        }
      ],
      "name": "Cancel",
      "type": "event"
    },
    {
      "anonymous": false,
      "inputs": [
        {
          "indexed": false,
          "internalType": "address",
          "name": "oldValue",
          "type": "address"
        },
        {
          "indexed": false,
          "internalType": "address",
          "name": "newValue",
          "type": "address"
        }
      ],
      "name": "FeeReceiverChanged",
      "type": "event"
    },
    {
      "anonymous": false,
      "inputs": [
        {
          "indexed": false,
          "internalType": "bytes32",
          "name": "leftHash",
          "type": "bytes32"
        },
        {
          "indexed": false,
          "internalType": "bytes32",
          "name": "rightHash",
          "type": "bytes32"
        },
        {
          "indexed": false,
          "internalType": "uint256",
          "name": "newLeftFill",
          "type": "uint256"
        },
        {
          "indexed": false,
          "internalType": "uint256",
          "name": "newRightFill",
          "type": "uint256"
        }
      ],
      "name": "Match",
      "type": "event"
    },
    {
      "anonymous": false,
      "inputs": [
        {
          "indexed": true,
          "internalType": "bytes4",
          "name": "assetType",
          "type": "bytes4"
        },
        {
          "indexed": false,
          "internalType": "address",
          "name": "matcher",
          "type": "address"
        }
      ],
      "name": "MatcherChange",
      "type": "event"
    },
    {
      "anonymous": false,
      "inputs": [
        {
          "indexed": true,
          "internalType": "address",
          "name": "previousOwner",
          "type": "address"
        },
        {
          "indexed": true,
          "internalType": "address",
          "name": "newOwner",
          "type": "address"
        }
      ],
      "name": "OwnershipTransferred",
      "type": "event"
    },
    {
      "anonymous": false,
      "inputs": [
        {
          "indexed": true,
          "internalType": "bytes4",
          "name": "assetType",
          "type": "bytes4"
        },
        {
          "indexed": false,
          "internalType": "address",
          "name": "proxy",
          "type": "address"
        }
      ],
      "name": "ProxyChange",
      "type": "event"
    },
    {
      "anonymous": false,
      "inputs": [
        {
          "indexed": false,
          "internalType": "uint256",
          "name": "oldValue",
          "type": "uint256"
        },
        {
          "indexed": false,
          "internalType": "uint256",
          "name": "newValue",
          "type": "uint256"
        }
      ],
      "name": "SellerFeeAmountChanged",
      "type": "event"
    },
    {
      "inputs": [
        {
          "components": [
            {
              "internalType": "address",
              "name": "maker",
              "type": "address"
            },
            {
              "components": [
                {
                  "components": [
                    {
                      "internalType": "bytes4",
                      "name": "assetClass",
                      "type": "bytes4"
                    },
                    {
                      "internalType": "bytes",
                      "name": "data",
                      "type": "bytes"
                    }
                  ],
                  "internalType": "struct LibAsset.AssetType",
                  "name": "assetType",
                  "type": "tuple"
                },
                {
                  "internalType": "uint256",
                  "name": "value",
                  "type": "uint256"
                }
              ],
              "internalType": "struct LibAsset.Asset",
              "name": "makeAsset",
              "type": "tuple"
            },
            {
              "internalType": "address",
              "name": "taker",
              "type": "address"
            },
            {
              "components": [
                {
                  "components": [
                    {
                      "internalType": "bytes4",
                      "name": "assetClass",
                      "type": "bytes4"
                    },
                    {
                      "internalType": "bytes",
                      "name": "data",
                      "type": "bytes"
                    }
                  ],
                  "internalType": "struct LibAsset.AssetType",
                  "name": "assetType",
                  "type": "tuple"
                },
                {
                  "internalType": "uint256",
                  "name": "value",
                  "type": "uint256"
                }
              ],
              "internalType": "struct LibAsset.Asset",
              "name": "takeAsset",
              "type": "tuple"
            },
            {
              "internalType": "uint256",
              "name": "salt",
              "type": "uint256"
            },
            {
              "internalType": "uint256",
              "name": "start",
              "type": "uint256"
            },
            {
              "internalType": "uint256",
              "name": "end",
              "type": "uint256"
            },
            {
              "internalType": "bytes4",
              "name": "dataType",
              "type": "bytes4"
            },
            {
              "internalType": "bytes",
              "name": "data",
              "type": "bytes"
            }
          ],
          "internalType": "struct LibOrder.Order",
          "name": "order",
          "type": "tuple"
        }
      ],
      "name": "cancel",
      "outputs": [],
      "stateMutability": "nonpayable",
      "type": "function"
    },
    {
      "inputs": [
        {
          "components": [
            {
              "internalType": "address",
              "name": "bidMaker",
              "type": "address"
            },
            {
              "internalType": "uint256",
              "name": "bidNftAmount",
              "type": "uint256"
            },
            {
              "internalType": "bytes4",
              "name": "nftAssetClass",
              "type": "bytes4"
            },
            {
              "internalType": "bytes",
              "name": "nftData",
              "type": "bytes"
            },
            {
              "internalType": "uint256",
              "name": "bidPaymentAmount",
              "type": "uint256"
            },
            {
              "internalType": "address",
              "name": "paymentToken",
              "type": "address"
            },
            {
              "internalType": "uint256",
              "name": "bidSalt",
              "type": "uint256"
            },
            {
              "internalType": "uint256",
              "name": "bidStart",
              "type": "uint256"
            },
            {
              "internalType": "uint256",
              "name": "bidEnd",
              "type": "uint256"
            },
            {
              "internalType": "bytes4",
              "name": "bidDataType",
              "type": "bytes4"
            },
            {
              "internalType": "bytes",
              "name": "bidData",
              "type": "bytes"
            },
            {
              "internalType": "bytes",
              "name": "bidSignature",
              "type": "bytes"
            },
            {
              "internalType": "uint256",
              "name": "sellOrderPaymentAmount",
              "type": "uint256"
            },
            {
              "internalType": "uint256",
              "name": "sellOrderNftAmount",
              "type": "uint256"
            },
            {
              "internalType": "bytes",
              "name": "sellOrderData",
              "type": "bytes"
            }
          ],
          "internalType": "struct LibDirectTransfer.AcceptBid",
          "name": "direct",
          "type": "tuple"
        }
      ],
      "name": "directAcceptBid",
      "outputs": [],
      "stateMutability": "payable",
      "type": "function"
    },
    {
      "inputs": [
        {
          "components": [
            {
              "internalType": "address",
              "name": "sellOrderMaker",
              "type": "address"
            },
            {
              "internalType": "uint256",
              "name": "sellOrderNftAmount",
              "type": "uint256"
            },
            {
              "internalType": "bytes4",
              "name": "nftAssetClass",
              "type": "bytes4"
            },
            {
              "internalType": "bytes",
              "name": "nftData",
              "type": "bytes"
            },
            {
              "internalType": "uint256",
              "name": "sellOrderPaymentAmount",
              "type": "uint256"
            },
            {
              "internalType": "address",
              "name": "paymentToken",
              "type": "address"
            },
            {
              "internalType": "uint256",
              "name": "sellOrderSalt",
              "type": "uint256"
            },
            {
              "internalType": "uint256",
              "name": "sellOrderStart",
              "type": "uint256"
            },
            {
              "internalType": "uint256",
              "name": "sellOrderEnd",
              "type": "uint256"
            },
            {
              "internalType": "bytes4",
              "name": "sellOrderDataType",
              "type": "bytes4"
            },
            {
              "internalType": "bytes",
              "name": "sellOrderData",
              "type": "bytes"
            },
            {
              "internalType": "bytes",
              "name": "sellOrderSignature",
              "type": "bytes"
            },
            {
              "internalType": "uint256",
              "name": "buyOrderPaymentAmount",
              "type": "uint256"
            },
            {
              "internalType": "uint256",
              "name": "buyOrderNftAmount",
              "type": "uint256"
            },
            {
              "internalType": "bytes",
              "name": "buyOrderData",
              "type": "bytes"
            }
          ],
          "internalType": "struct LibDirectTransfer.Purchase",
          "name": "direct",
          "type": "tuple"
        }
      ],
      "name": "directPurchase",
      "outputs": [],
      "stateMutability": "payable",
      "type": "function"
    },
    {
      "inputs": [
        {
          "internalType": "bytes32",
          "name": "",
          "type": "bytes32"
        }
      ],
      "name": "fills",
      "outputs": [
        {
          "internalType": "uint256",
          "name": "",
          "type": "uint256"
        }
      ],
      "stateMutability": "view",
      "type": "function"
    },
    {
      "inputs": [
        {
          "components": [
            {
              "internalType": "address",
              "name": "maker",
              "type": "address"
            },
            {
              "components": [
                {
                  "components": [
                    {
                      "internalType": "bytes4",
                      "name": "assetClass",
                      "type": "bytes4"
                    },
                    {
                      "internalType": "bytes",
                      "name": "data",
                      "type": "bytes"
                    }
                  ],
                  "internalType": "struct LibAsset.AssetType",
                  "name": "assetType",
                  "type": "tuple"
                },
                {
                  "internalType": "uint256",
                  "name": "value",
                  "type": "uint256"
                }
              ],
              "internalType": "struct LibAsset.Asset",
              "name": "makeAsset",
              "type": "tuple"
            },
            {
              "internalType": "address",
              "name": "taker",
              "type": "address"
            },
            {
              "components": [
                {
                  "components": [
                    {
                      "internalType": "bytes4",
                      "name": "assetClass",
                      "type": "bytes4"
                    },
                    {
                      "internalType": "bytes",
                      "name": "data",
                      "type": "bytes"
                    }
                  ],
                  "internalType": "struct LibAsset.AssetType",
                  "name": "assetType",
                  "type": "tuple"
                },
                {
                  "internalType": "uint256",
                  "name": "value",
                  "type": "uint256"
                }
              ],
              "internalType": "struct LibAsset.Asset",
              "name": "takeAsset",
              "type": "tuple"
            },
            {
              "internalType": "uint256",
              "name": "salt",
              "type": "uint256"
            },
            {
              "internalType": "uint256",
              "name": "start",
              "type": "uint256"
            },
            {
              "internalType": "uint256",
              "name": "end",
              "type": "uint256"
            },
            {
              "internalType": "bytes4",
              "name": "dataType",
              "type": "bytes4"
            },
            {
              "internalType": "bytes",
              "name": "data",
              "type": "bytes"
            }
          ],
          "internalType": "struct LibOrder.Order",
          "name": "orderLeft",
          "type": "tuple"
        },
        {
          "internalType": "bytes",
          "name": "signatureLeft",
          "type": "bytes"
        },
        {
          "components": [
            {
              "internalType": "address",
              "name": "maker",
              "type": "address"
            },
            {
              "components": [
                {
                  "components": [
                    {
                      "internalType": "bytes4",
                      "name": "assetClass",
                      "type": "bytes4"
                    },
                    {
                      "internalType": "bytes",
                      "name": "data",
                      "type": "bytes"
                    }
                  ],
                  "internalType": "struct LibAsset.AssetType",
                  "name": "assetType",
                  "type": "tuple"
                },
                {
                  "internalType": "uint256",
                  "name": "value",
                  "type": "uint256"
                }
              ],
              "internalType": "struct LibAsset.Asset",
              "name": "makeAsset",
              "type": "tuple"
            },
            {
              "internalType": "address",
              "name": "taker",
              "type": "address"
            },
            {
              "components": [
                {
                  "components": [
                    {
                      "internalType": "bytes4",
                      "name": "assetClass",
                      "type": "bytes4"
                    },
                    {
                      "internalType": "bytes",
                      "name": "data",
                      "type": "bytes"
                    }
                  ],
                  "internalType": "struct LibAsset.AssetType",
                  "name": "assetType",
                  "type": "tuple"
                },
                {
                  "internalType": "uint256",
                  "name": "value",
                  "type": "uint256"
                }
              ],
              "internalType": "struct LibAsset.Asset",
              "name": "takeAsset",
              "type": "tuple"
            },
            {
              "internalType": "uint256",
              "name": "salt",
              "type": "uint256"
            },
            {
              "internalType": "uint256",
              "name": "start",
              "type": "uint256"
            },
            {
              "internalType": "uint256",
              "name": "end",
              "type": "uint256"
            },
            {
              "internalType": "bytes4",
              "name": "dataType",
              "type": "bytes4"
            },
            {
              "internalType": "bytes",
              "name": "data",
              "type": "bytes"
            }
          ],
          "internalType": "struct LibOrder.Order",
          "name": "orderRight",
          "type": "tuple"
        },
        {
          "internalType": "bytes",
          "name": "signatureRight",
          "type": "bytes"
        }
      ],
      "name": "matchOrders",
      "outputs": [],
      "stateMutability": "payable",
      "type": "function"
    },
    {
      "inputs": [],
      "name": "owner",
      "outputs": [
        {
          "internalType": "address",
          "name": "",
          "type": "address"
        }
      ],
      "stateMutability": "view",
      "type": "function"
    },
    {
      "inputs": [],
      "name": "protocolFee",
      "outputs": [
        {
          "internalType": "address",
          "name": "receiver",
          "type": "address"
        },
        {
          "internalType": "uint48",
          "name": "buyerAmount",
          "type": "uint48"
        },
        {
          "internalType": "uint48",
          "name": "sellerAmount",
          "type": "uint48"
        }
      ],
      "stateMutability": "view",
      "type": "function"
    },
    {
      "inputs": [],
      "name": "renounceOwnership",
      "outputs": [],
      "stateMutability": "nonpayable",
      "type": "function"
    },
    {
      "inputs": [],
      "name": "royaltiesRegistry",
      "outputs": [
        {
          "internalType": "contract IRoyaltiesProvider",
          "name": "",
          "type": "address"
        }
      ],
      "stateMutability": "view",
      "type": "function"
    },
    {
      "inputs": [
        {
          "internalType": "address",
          "name": "_receiver",
          "type": "address"
        },
        {
          "internalType": "uint48",
          "name": "_buyerAmount",
          "type": "uint48"
        },
        {
          "internalType": "uint48",
          "name": "_sellerAmount",
          "type": "uint48"
        }
      ],
      "name": "setAllProtocolFeeData",
      "outputs": [],
      "stateMutability": "nonpayable",
      "type": "function"
    },
    {
      "inputs": [
        {
          "internalType": "bytes4",
          "name": "assetType",
          "type": "bytes4"
        },
        {
          "internalType": "address",
          "name": "matcher",
          "type": "address"
        }
      ],
      "name": "setAssetMatcher",
      "outputs": [],
      "stateMutability": "nonpayable",
      "type": "function"
    },
    {
      "inputs": [
        {
          "internalType": "uint48",
          "name": "_buyerAmount",
          "type": "uint48"
        }
      ],
      "name": "setPrtocolFeeBuyerAmount",
      "outputs": [],
      "stateMutability": "nonpayable",
      "type": "function"
    },
    {
      "inputs": [
        {
          "internalType": "address",
          "name": "_receiver",
          "type": "address"
        }
      ],
      "name": "setPrtocolFeeReceiver",
      "outputs": [],
      "stateMutability": "nonpayable",
      "type": "function"
    },
    {
      "inputs": [
        {
          "internalType": "uint48",
          "name": "_sellerAmount",
          "type": "uint48"
        }
      ],
      "name": "setPrtocolFeeSellerAmount",
      "outputs": [],
      "stateMutability": "nonpayable",
      "type": "function"
    },
    {
      "inputs": [
        {
          "internalType": "contract IRoyaltiesProvider",
          "name": "newRoyaltiesRegistry",
          "type": "address"
        }
      ],
      "name": "setRoyaltiesRegistry",
      "outputs": [],
      "stateMutability": "nonpayable",
      "type": "function"
    },
    {
      "inputs": [
        {
          "internalType": "bytes4",
          "name": "assetType",
          "type": "bytes4"
        },
        {
          "internalType": "address",
          "name": "proxy",
          "type": "address"
        }
      ],
      "name": "setTransferProxy",
      "outputs": [],
      "stateMutability": "nonpayable",
      "type": "function"
    },
    {
      "inputs": [
        {
          "internalType": "address",
          "name": "newOwner",
          "type": "address"
        }
      ],
      "name": "transferOwnership",
      "outputs": [],
      "stateMutability": "nonpayable",
      "type": "function"
    },
    {
      "inputs": [
        {
          "internalType": "address",
          "name": "_transferProxy",
          "type": "address"
        },
        {
          "internalType": "address",
          "name": "_erc20TransferProxy",
          "type": "address"
        },
        {
          "internalType": "uint256",
          "name": "newProtocolFee",
          "type": "uint256"
        },
        {
          "internalType": "address",
          "name": "newDefaultFeeReceiver",
          "type": "address"
        },
        {
          "internalType": "contract IRoyaltiesProvider",
          "name": "newRoyaltiesProvider",
          "type": "address"
        }
      ],
      "name": "__ExchangeV2_init",
      "outputs": [],
      "stateMutability": "nonpayable",
      "type": "function"
    }
  ],
  "bytecode": "0x608060405234801561001057600080fd5b50615277806100206000396000f3fe6080604052600436106101095760003560e01c8063b0e21e8a11610095578063d6ca6ab711610064578063d6ca6ab71461029c578063e2864fe3146102bc578063e99a3f80146102dc578063eae3ad6f146102ef578063f2fde38b1461030f57610109565b8063b0e21e8a14610218578063b39deb461461023c578063b74c8e9a1461025c578063bc158c2d1461027c57610109565b80633be89922116100dc5780633be899221461019957806367d49a3b146101b95780636d8f0694146101cc578063715018a6146101ee5780638da5cb5b1461020357610109565b80630d5f7d351461010e5780631372a6251461012357806320158c441461014357806330c642f114610179575b600080fd5b61012161011c36600461480c565b61032f565b005b34801561012f57600080fd5b5061012161013e3660046146a9565b61064c565b34801561014f57600080fd5b5061016361015e3660046147a0565b610720565b6040516101709190614c09565b60405180910390f35b34801561018557600080fd5b506101216101943660046147d4565b610733565b3480156101a557600080fd5b506101216101b4366004614454565b610803565b6101216101c736600461480c565b610888565b3480156101d857600080fd5b506101e1610b68565b6040516101709190614b3d565b3480156101fa57600080fd5b50610121610b78565b34801561020f57600080fd5b506101e1610c24565b34801561022457600080fd5b5061022d610c33565b60405161017093929190614be0565b34801561024857600080fd5b506101216102573660046147d4565b610c5e565b34801561026857600080fd5b50610121610277366004614710565b610d22565b34801561028857600080fd5b50610121610297366004614454565b610da4565b3480156102a857600080fd5b506101216102b7366004614ada565b610e71565b3480156102c857600080fd5b506101216102d7366004614a01565b610f4b565b6101216102ea366004614a33565b61100c565b3480156102fb57600080fd5b5061012161030a366004614ada565b611022565b34801561031b57600080fd5b5061012161032a366004614454565b6110f9565b600061034961034460c0840160a08501614454565b6111fc565b604080516101208101909152909150600090806103696020860186614454565b6001600160a01b03168152602001604051806040016040528060405180604001604052808860400160208101906103a091906147b8565b6001600160e01b03191681526020016103bc60608a018a61501f565b8080601f0160208091040260200160405190810160405280939291908181526020018383808284376000920182905250939094525050918352506020888101359281019290925291835282810191909152604080518082018252868152608080890135938201939093529083015260c080870135606084015260e08701359183019190915261010086013560a08301520161045f610140860161012087016147b8565b6001600160e01b031916815260200161047c61014086018661501f565b8080601f01602080910402602001604051908101604052809392919081815260200183838082843760009201829052509390945250506040805161012081018252828152815180830183528781526101808901356020828101919091528201528082018390528151608081018352949550919391925060608084019291829182820191829161051091908c01908c016147b8565b6001600160e01b031916815260200161052c60608b018b61501f565b8080601f0160208091040260200160405190810160405280939291908181526020018383808284376000920182905250939094525050918352506101a0890135602092830152918352820181905260408201819052606082015260800161059b610140870161012088016147b8565b6001600160e01b03191681526020016105b86101c087018761501f565b8080601f0160208091040260200160405190810160405280939291908181526020018383808284376000920191909152505050915250905061063c8261060261016087018761501f565b8080601f01602080910402602001604051908101604052809392919081815260200183838082843760009201919091525061126292505050565b6106468282611279565b50505050565b600054610100900460ff168061066557506106656114cb565b80610673575060005460ff16155b6106ae5760405162461bcd60e51b815260040180806020018281038252602e8152602001806151b1602e913960400191505060405180910390fd5b600054610100900460ff161580156106d9576000805460ff1961ff0019909116610100171660011790555b6106e16114dc565b6106e961157e565b6106f38686611677565b6106fe848484611721565b6107066117e1565b8015610718576000805461ff00191690555b505050505050565b61012f6020526000908152604090205481565b61073b6118b1565b6001600160a01b031661074c610c24565b6001600160a01b031614610795576040805162461bcd60e51b81526020600482018190526024820152600080516020615222833981519152604482015290519081900360640190fd5b6001600160e01b031982166000818152609760205260409081902080546001600160a01b0319166001600160a01b038516179055517f4b5aced933c0c9a88aeac3f0b3b72c5aaf75df8ebaf53225773248c4c3153593906107f7908490614b3d565b60405180910390a25050565b61080b6118b1565b6001600160a01b031661081c610c24565b6001600160a01b031614610865576040805162461bcd60e51b81526020600482018190526024820152600080516020615222833981519152604482015290519081900360640190fd5b61016280546001600160a01b0319166001600160a01b0392909216919091179055565b600061089d61034460c0840160a08501614454565b604080516101208101909152909150600090806108bd6020860186614454565b6001600160a01b0316815260200160405180604001604052808581526020018660800135815250815260200160006001600160a01b031681526020016040518060400160405280604051806040016040528088604001602081019061092291906147b8565b6001600160e01b031916815260200161093e60608a018a61501f565b8080601f016020809104026020016040519081016040528093929190818152602001838380828437600092019190915250505091525081526020878101359181019190915290825260c08601359082015260e0850135604082015261010085013560608201526080016109b9610140860161012087016147b8565b6001600160e01b03191681526020016109d661014086018661501f565b8080601f01602080910402602001604051908101604052809392919081815260200183838082843760009201829052509390945250506040805161012081018252828152815160808101835294955091939192506020830191908190818101908190610a489060608c01908c016147b8565b6001600160e01b0319168152602001610a6460608b018b61501f565b8080601f0160208091040260200160405190810160405280939291908181526020018383808284376000920182905250939094525050918352506101a08901356020928301529183528281018290526040805180820182528881526101808a013592810192909252830152606082018190526080820181905260a082015260c001610af7610140870161012088016147b8565b6001600160e01b0319168152602001610b146101c087018761501f565b8080601f01602080910402602001604051908101604052809392919081815260200183838082843760009201919091525050509152509050610b5e8261060261016087018761501f565b6106468183611279565b610162546001600160a01b031681565b610b806118b1565b6001600160a01b0316610b91610c24565b6001600160a01b031614610bda576040805162461bcd60e51b81526020600482018190526024820152600080516020615222833981519152604482015290519081900360640190fd5b6033546040516000916001600160a01b0316907f8be0079c531659141344cd1fd0a4f28419497f9722a3daafe3b4186f6b6457e0908390a3603380546001600160a01b0319169055565b6033546001600160a01b031690565b610161546001600160a01b0381169065ffffffffffff600160a01b8204811691600160d01b90041683565b610c666118b1565b6001600160a01b0316610c77610c24565b6001600160a01b031614610cc0576040805162461bcd60e51b81526020600482018190526024820152600080516020615222833981519152604482015290519081900360640190fd5b6001600160e01b031982166000818152606560205260409081902080546001600160a01b0319166001600160a01b038516179055517fd2bf91075f105d0fd80328da28e20ebdad1c1261839711183bc29a44cbe6c72f906107f7908490614b3d565b610d2a6118b1565b6001600160a01b0316610d3b610c24565b6001600160a01b031614610d84576040805162461bcd60e51b81526020600482018190526024820152600080516020615222833981519152604482015290519081900360640190fd5b610d8d83610da4565b610d9682610e71565b610d9f81611022565b505050565b610dac6118b1565b6001600160a01b0316610dbd610c24565b6001600160a01b031614610e06576040805162461bcd60e51b81526020600482018190526024820152600080516020615222833981519152604482015290519081900360640190fd5b610161546040517fa4b009cc442411b602eaf94bc0579b6abdb8fd90b4ef5b9426e270038906bd0391610e46916001600160a01b03909116908490614b51565b60405180910390a161016180546001600160a01b0319166001600160a01b0392909216919091179055565b610e796118b1565b6001600160a01b0316610e8a610c24565b6001600160a01b031614610ed3576040805162461bcd60e51b81526020600482018190526024820152600080516020615222833981519152604482015290519081900360640190fd5b610161546040517f70bba4f904a93ba5c1af3a1bb602bc9c058551dbe963dfe0b6cb5bc11c5fea9e91610f1891600160a01b90910465ffffffffffff16908490615006565b60405180910390a1610161805465ffffffffffff909216600160a01b0265ffffffffffff60a01b19909216919091179055565b80516001600160a01b0316610f5e6118b1565b6001600160a01b031614610f8d5760405162461bcd60e51b8152600401610f8490614f76565b60405180910390fd5b6080810151610fae5760405162461bcd60e51b8152600401610f8490614d08565b6000610fb9826118b5565b600081815261012f6020526040908190206000199055519091507fe8d9861dbc9c663ed3accd261bbe2fe01e0d3d9e5f51fa38523b265c7757a93a90611000908390614c09565b60405180910390a15050565b61101884848484611a3d565b6106468483611279565b61102a6118b1565b6001600160a01b031661103b610c24565b6001600160a01b031614611084576040805162461bcd60e51b81526020600482018190526024820152600080516020615222833981519152604482015290519081900360640190fd5b610161546040517fa8af9093caa9beb61d20432227c66258ceef926f21879b80f3adf22a4d19f131916110c991600160d01b90910465ffffffffffff16908490615006565b60405180910390a1610161805465ffffffffffff909216600160d01b026001600160d01b03909216919091179055565b6111016118b1565b6001600160a01b0316611112610c24565b6001600160a01b03161461115b576040805162461bcd60e51b81526020600482018190526024820152600080516020615222833981519152604482015290519081900360640190fd5b6001600160a01b0381166111a05760405162461bcd60e51b815260040180806020018281038252602681526020018061511c6026913960400191505060405180910390fd5b6033546040516001600160a01b038084169216907f8be0079c531659141344cd1fd0a4f28419497f9722a3daafe3b4186f6b6457e090600090a3603380546001600160a01b0319166001600160a01b0392909216919091179055565b611204614049565b61120c614049565b6001600160a01b038316611229576355575f5d60e11b815261125a565b6322ba176160e21b8152604051611244908490602001614b3d565b60408051601f1981840301815291905260208201525b90505b919050565b61126b82611b09565b6112758282611bd3565b5050565b6000806112868484611e82565b9150915060008060006112998787611f1b565b9250925092506000806113f26040518060a0016040528060405180604001604052808b8152602001876000015181525081526020018760000151815260200187602001518152602001609760008b600001516001600160e01b0319166001600160e01b031916815260200190815260200160002060009054906101000a90046001600160a01b03166001600160a01b031681526020018b600001516001600160a01b03168152506040518060a0016040528060405180604001604052808b8152602001886020015181525081526020018760000151815260200187602001518152602001609760008b600001516001600160e01b0319166001600160e01b031916815260200190815260200160002060009054906101000a90046001600160a01b03166001600160a01b031681526020018b600001516001600160a01b03168152506113ed8a600001518a60000151611fca565b61209c565b885191935091506001600160e01b0319166355575f5d60e11b14156114715785516001600160e01b0319166355575f5d60e11b141561143057600080fd5b813410156114505760405162461bcd60e51b8152600401610f8490614f4e565b8134111561146c5761146c6114653484612213565b3390612270565b6114c0565b85516001600160e01b0319166355575f5d60e11b14156114c057803410156114ab5760405162461bcd60e51b8152600401610f8490614f4e565b803411156114c0576114c06114653483612213565b505050505050505050565b60006114d630612308565b15905090565b600054610100900460ff16806114f557506114f56114cb565b80611503575060005460ff16155b61153e5760405162461bcd60e51b815260040180806020018281038252602e8152602001806151b1602e913960400191505060405180910390fd5b600054610100900460ff16158015611569576000805460ff1961ff0019909116610100171660011790555b801561157b576000805461ff00191690555b50565b600054610100900460ff168061159757506115976114cb565b806115a5575060005460ff16155b6115e05760405162461bcd60e51b815260040180806020018281038252602e8152602001806151b1602e913960400191505060405180910390fd5b600054610100900460ff1615801561160b576000805460ff1961ff0019909116610100171660011790555b60006116156118b1565b603380546001600160a01b0319166001600160a01b038316908117909155604051919250906000907f8be0079c531659141344cd1fd0a4f28419497f9722a3daafe3b4186f6b6457e0908290a350801561157b576000805461ff001916905550565b60976020527f4532fa16f071d6234e30e1a1e69b9806f04095edf37a1ca7a25c8d6af7861cc080546001600160a01b039283166001600160a01b0319918216179091557f30a684095c937b5aa064dcf94f9903a7d808e3efb22d8389dbd43080ad4ed3d5805493909216928116831790915563025ceed960e61b6000527f4b5822151ea34b7c8d9e37c3e466bcecb631efe6a9f26a4a4054110a93dd316f80549091169091179055565b600054610100900460ff168061173a575061173a6114cb565b80611748575060005460ff16155b6117835760405162461bcd60e51b815260040180806020018281038252602e8152602001806151b1602e913960400191505060405180910390fd5b600054610100900460ff161580156117ae576000805460ff1961ff0019909116610100171660011790555b61016280546001600160a01b0319166001600160a01b0384161790558015610646576000805461ff001916905550505050565b600054610100900460ff16806117fa57506117fa6114cb565b80611808575060005460ff16155b6118435760405162461bcd60e51b815260040180806020018281038252602e8152602001806151b1602e913960400191505060405180910390fd5b600054610100900460ff1615801561186e576000805460ff1961ff0019909116610100171660011790555b6115696040518060400160405280600881526020016745786368616e676560c01b815250604051806040016040528060018152602001601960f91b81525061230e565b3390565b60e08101516000906001600160e01b031916632611a13360e11b14806118e9575060e08201516001600160e01b0319908116145b1561195e5781516020830151516118ff906123ce565b60608401515161190e906123ce565b846080015160405160200180856001600160a01b0316815260200184815260200183815260200182815260200194505050505060405160208183030381529060405280519060200120905061125d565b815160208301515161196f906123ce565b60608401515161197e906123ce565b846080015185610100015160405160200180866001600160a01b0316815260200185815260200184815260200183815260200180602001828103825283818151815260200191508051906020019080838360005b838110156119ea5781810151838201526020016119d2565b50505050905090810190601f168015611a175780820380516001836020036101000a031916815260200191505b50965050505050505060405160208183030381529060405280519060200120905061125d565b611a478484611262565b611a518282611262565b60408401516001600160a01b031615611aad5781516001600160a01b031615611aad5783604001516001600160a01b031682600001516001600160a01b031614611aad5760405162461bcd60e51b8152600401610f8490614f0b565b60408201516001600160a01b0316156106465783516001600160a01b0316156106465783600001516001600160a01b031682604001516001600160a01b0316146106465760405162461bcd60e51b8152600401610f8490614d7a565b60a08101511580611b1d5750428160a00151105b611b6e576040805162461bcd60e51b815260206004820152601d60248201527f4f726465722073746172742076616c69646174696f6e206661696c6564000000604482015290519081900360640190fd5b60c08101511580611b825750428160c00151115b61157b576040805162461bcd60e51b815260206004820152601b60248201527f4f7264657220656e642076616c69646174696f6e206661696c65640000000000604482015290519081900360640190fd5b6080820151611c585781516001600160a01b031615611c535781516001600160a01b0316611bff6118b1565b6001600160a01b031614611c53576040805162461bcd60e51b815260206004820152601660248201527536b0b5b2b91034b9903737ba103a3c1039b2b73232b960511b604482015290519081900360640190fd5b611275565b81516001600160a01b0316611c6b6118b1565b6001600160a01b031614611275576000611c8483612438565b9050611c9c83600001516001600160a01b0316612308565b15611dd8578251630b135d3f60e11b906001600160a01b0316631626ba7e611cc384612528565b856040518363ffffffff1660e01b81526004018083815260200180602001828103825283818151815260200191508051906020019080838360005b83811015611d16578181015183820152602001611cfe565b50505050905090810190601f168015611d435780820380516001836020036101000a031916815260200191505b50935050505060206040518083038186803b158015611d6157600080fd5b505afa158015611d75573d6000803e3d6000fd5b505050506040513d6020811015611d8b57600080fd5b50516001600160e01b03191614611dd35760405162461bcd60e51b815260040180806020018281038252602b815260200180615186602b913960400191505060405180910390fd5b610d9f565b82516001600160a01b0316611df683611df084612528565b90612574565b6001600160a01b031614611e3b5760405162461bcd60e51b81526004018080602001828103825260228152602001806151646022913960400191505060405180910390fd5b82516001600160a01b0316610d9f576040805162461bcd60e51b815260206004820152600860248201526737379036b0b5b2b960c11b604482015290519081900360640190fd5b611e8a614049565b611e92614049565b602084015151606084015151611ea891906125f4565b80519092506001600160e01b031916611ed35760405162461bcd60e51b8152600401610f8490614edf565b606084015151602084015151611ee991906125f4565b80519091506001600160e01b031916611f145760405162461bcd60e51b8152600401610f8490614edf565b9250929050565b611f23614061565b611f2b614061565b611f33614084565b6000611f3e866118b5565b90506000611f4b866118b5565b90506000611f576118b1565b88519091506001600160a01b0316611f76576001600160a01b03811688525b86516001600160a01b0316611f92576001600160a01b03811687525b611f9b88612634565b9550611fa687612634565b9450611fbe888885858a604001518a6040015161272d565b93505050509250925092565b60006001600160e01b031983166355575f5d60e11b1415611fed57506001612096565b6001600160e01b031982166355575f5d60e11b141561200e57506002612096565b6001600160e01b031983166322ba176160e21b141561202f57506001612096565b6001600160e01b031982166322ba176160e21b141561205057506002612096565b6001600160e01b0319831663025ceed960e61b141561207157506001612096565b6001600160e01b0319821663025ceed960e61b141561209257506002612096565b5060005b92915050565b825160209081015183519091015160018360028111156120b857fe5b141561213a5760408051606081018252610161546001600160a01b038116825265ffffffffffff600160a01b820481166020840152600160d01b909104169181019190915261210a9086908690612891565b9150612135846000015160000151856000015160200151866080015188602001518860600151612b0b565b61220b565b600283600281111561214857fe5b14156121c55760408051606081018252610161546001600160a01b038116825265ffffffffffff600160a01b820481166020840152600160d01b909104169181019190915261219a9085908790612891565b9050612135856000015160000151866000015160200151876080015187602001518960600151612b0b565b8451805160209182015160808801519287015160608901516121e8949190612b0b565b83518051602091820151608087015192880151606088015161220b949190612b0b565b935093915050565b60008282111561226a576040805162461bcd60e51b815260206004820152601e60248201527f536166654d6174683a207375627472616374696f6e206f766572666c6f770000604482015290519081900360640190fd5b50900390565b6040516000906001600160a01b0384169083908381818185875af1925050503d80600081146122bb576040519150601f19603f3d011682016040523d82523d6000602084013e6122c0565b606091505b5050905080610d9f576040805162461bcd60e51b815260206004820152600f60248201526e1d1c985b9cd9995c8819985a5b1959608a1b604482015290519081900360640190fd5b3b151590565b600054610100900460ff168061232757506123276114cb565b80612335575060005460ff16155b6123705760405162461bcd60e51b815260040180806020018281038252602e8152602001806151b1602e913960400191505060405180910390fd5b600054610100900460ff1615801561239b576000805460ff1961ff0019909116610100171660011790555b825160208085019190912083519184019190912060c99190915560ca558015610d9f576000805461ff0019169055505050565b8051602091820151805190830120604080517f452a0dc408cb0d27ffc3b3caff933a5208040a53a9dbecd8d89cad2c0d40e00c818601526001600160e01b031990931683820152606080840192909252805180840390920182526080909201909152805191012090565b60007f477ed43b8020849b755512278536c3766a3b4ab547519949a75f483372493f8d826000015161246d8460200151612c8f565b846040015161247f8660600151612c8f565b86608001518760a001518860c001518960e001518a610100015180519060200120604051602001808b81526020018a6001600160a01b03168152602001898152602001886001600160a01b03168152602001878152602001868152602001858152602001848152602001836001600160e01b03191681526020018281526020019a5050505050505050505050604051602081830303815290604052805190602001209050919050565b6000612532612cff565b82604051602001808061190160f01b81525060020183815260200182815260200192505050604051602081830303815290604052805190602001209050919050565b600081516041146125cc576040805162461bcd60e51b815260206004820152601f60248201527f45434453413a20696e76616c6964207369676e6174757265206c656e67746800604482015290519081900360640190fd5b60208201516040830151606084015160001a6125ea86828585612d3f565b9695505050505050565b6125fc614049565b60006126088484612f95565b80519091506001600160e01b03191661262d576126258385612f95565b915050612096565b9050612096565b61263c614061565b60e08201516001600160e01b031916632611a13360e11b141561268857600082610100015180602001905181019061267491906148c9565b805183526020908101519083015250612714565b60e08201516001600160e01b0319166323d235ef60e01b14156126e05760008261010001518060200190518101906126c09190614955565b805183526020808201519084015260409081015115159083015250612714565b60e08201516001600160e01b031990811614156126fc57612714565b60405162461bcd60e51b8152600401610f8490614e71565b80515161125d578151612726906131b1565b8152919050565b612735614084565b600061274588608001518761324c565b9050600061275788608001518761324c565b905060006127698a8a85858a8a613271565b90506000816020015111801561277f5750805115155b61279b5760405162461bcd60e51b8152600401610f8490614dea565b60808a0151156127ee5785156127cd5780516127b89084906132f7565b600089815261012f60205260409020556127ee565b60208101516127dd9084906132f7565b600089815261012f60205260409020555b60808901511561284157841561282357602081015161280e9083906132f7565b600088815261012f6020526040902055612841565b80516128309083906132f7565b600088815261012f60205260409020555b602081015181516040517f956cd63ee4cdcd81fda5f0ec7c6c36dceda99e1b412f4a650a5d26055dc3c4509261287c928c928c929190614c12565b60405180910390a19998505050505050505050565b60006128aa846000015160200151838660400151613358565b905060006128d4828660000151602001518760800151868960000151600001518a606001516133fa565b8551805186515160208089015193015160808a015160608b0151959650612902959394929387929190613457565b9050846040015151600114801561291e57508360400151516001145b80156129735750846040015160008151811061293657fe5b6020026020010151600001516001600160a01b0316846040015160008151811061295c57fe5b6020026020010151600001516001600160a01b0316145b15612a8957604080516001808252818301909252600091816020015b61299761409e565b81526020019060019003908161298f57905050905084604001516000815181106129bd57fe5b602002602001015160000151816000815181106129d657fe5b60209081029190910101516001600160a01b039091169052604086015180516000906129fe57fe5b6020026020010151602001518560400151600081518110612a1b57fe5b6020026020010151602001510181600081518110612a3557fe5b6020026020010151602001906001600160601b031690816001600160601b031681525050612a7f86600001516000015183886000015160200151848a608001518b6060015161355c565b509150612ae29050565b612ab385600001516000015182876000015160200151886040015189608001518a6060015161355c565b50855180516020909101516040870151608089015160608a0151949550612ade94869392919061355c565b5090505b612b0385600001516000015182876080015187602001518960600151612b0b565b509392505050565b6000825111612b2c5760405162461bcd60e51b8152600401610f8490614d36565b600084815b6001855103811015612bfb576000612b72868381518110612b4e57fe5b6020026020010151602001516001600160601b03168961361190919063ffffffff16565b9050612ba7868381518110612b8357fe5b6020026020010151602001516001600160601b0316856132f790919063ffffffff16565b93508015612bf257612bb98382612213565b9250612bf260405180604001604052808b81526020018381525088888581518110612be057fe5b60200260200101516000015188613629565b50600101612b31565b50600084600186510381518110612c0e57fe5b60200260200101519050612c3881602001516001600160601b0316846132f790919063ffffffff16565b92508261271014612c5b5760405162461bcd60e51b8152600401610f8490614ea8565b8115612c8557612c8560405180604001604052808a81526020018481525087836000015187613629565b5050505050505050565b60007fdb6f72e915676cfc289da13bc4ece054fd17b1df6d77ffc4a60510718c236b08612cbf83600001516123ce565b8360200151604051602001808481526020018381526020018281526020019350505050604051602081830303815290604052805190602001209050919050565b6000612d3a7f8b73c3c69bb8fe3d512ecc4cf759cc79239f7b179b0ffacaa9a75d522b39400f612d2d613a31565b612d35613a37565b613a3d565b905090565b60007f7fffffffffffffffffffffffffffffff5d576e7357a4501ddfe92f46681b20a0821115612da05760405162461bcd60e51b81526004018080602001828103825260228152602001806151426022913960400191505060405180910390fd5b6000601e8560ff161115612e7a576004850360ff16601b1480612dc957506004850360ff16601c145b612e045760405162461bcd60e51b81526004018080602001828103825260228152602001806151df6022913960400191505060405180910390fd5b6001612e0f87613a9f565b60048703868660405160008152602001604052604051808581526020018460ff1681526020018381526020018281526020019450505050506020604051602081039080840390855afa158015612e69573d6000803e3d6000fd5b505050602060405103519050612f31565b8460ff16601b1480612e8f57508460ff16601c145b612eca5760405162461bcd60e51b81526004018080602001828103825260228152602001806151df6022913960400191505060405180910390fd5b60018686868660405160008152602001604052604051808581526020018460ff1681526020018381526020018281526020019450505050506020604051602081039080840390855afa158015612f24573d6000803e3d6000fd5b5050506020604051035190505b6001600160a01b038116612f8c576040805162461bcd60e51b815260206004820152601860248201527f45434453413a20696e76616c6964207369676e61747572650000000000000000604482015290519081900360640190fd5b95945050505050565b612f9d614049565b825182516001600160e01b031982166355575f5d60e11b1415613008576001600160e01b031981166355575f5d60e11b1415612fdd578492505050612096565b5050604080518082018252600080825282516020818101909452908152918101919091529050612096565b6001600160e01b031982166322ba176160e21b141561304d576001600160e01b031981166322ba176160e21b1415612fdd576130448585613af0565b92505050612096565b6001600160e01b031982166339d690a360e11b1415613089576001600160e01b031981166339d690a360e11b1415612fdd576130448585613af0565b6001600160e01b0319821663025ceed960e61b14156130c5576001600160e01b0319811663025ceed960e61b1415612fdd576130448585613af0565b6001600160e01b031982166000908152606560205260409020546001600160a01b0316801561317a576040516306d3f7cb60e41b81526001600160a01b03821690636d3f7cb09061311c9089908990600401614f9b565b60006040518083038186803b15801561313457600080fd5b505afa158015613148573d6000803e3d6000fd5b505050506040513d6000823e601f3d908101601f19168201604052613170919081019061483e565b9350505050612096565b6001600160e01b03198381169083161415613199576131708686613af0565b60405162461bcd60e51b8152600401610f8490614c9a565b60408051600180825281830190925260609160009190816020015b6131d461409e565b8152602001906001900390816131cc57905050905082816000815181106131f757fe5b6020026020010151600001906001600160a01b031690816001600160a01b0316815250506127108160008151811061322b57fe5b6020908102919091018101516001600160601b039092169101529050919050565b60008261325b57506000612096565b50600090815261012f6020526040902054919050565b613279614084565b600080613287898887613b4d565b915091506000806132998a8988613b4d565b91509150838111156132cc576132c184848c60200151602001518d6060015160200151613bc6565b9450505050506125ea565b6132e88b60200151602001518c60600151602001518484613c4b565b9b9a5050505050505050505050565b600082820183811015613351576040805162461bcd60e51b815260206004820152601b60248201527f536166654d6174683a206164646974696f6e206f766572666c6f770000000000604482015290519081900360640190fd5b9392505050565b602082015160009065ffffffffffff16815b83518110156133e55761271084828151811061338257fe5b6020026020010151602001516001600160601b031611156133b55760405162461bcd60e51b8152600401610f8490614e42565b8381815181106133c157fe5b6020026020010151602001516001600160601b03168201915080600101905061336a565b50612f8c6133f38683613611565b86906132f7565b600080600061341c8989886040015189602001510165ffffffffffff16613cd1565b9092509050801561344b5761344b60405180604001604052808781526020018381525088886000015187613629565b50979650505050505050565b60008061346388613cf3565b905080516001148015613477575086516001145b80156134c457508660008151811061348b57fe5b6020026020010151600001516001600160a01b0316816000815181106134ad57fe5b6020026020010151600001516001600160a01b0316145b1561351557611388816000815181106134d957fe5b6020026020010151602001516001600160601b0316111561350c5760405162461bcd60e51b8152600401610f8490614cd1565b85915050613551565b6000806135268b8989868a8a61355c565b9150915061138881111561354c5760405162461bcd60e51b8152600401610f8490614cd1565b509150505b979650505050505050565b846000805b85518110156136055761359d86828151811061357957fe5b6020026020010151602001516001600160601b0316836132f790919063ffffffff16565b915060006135cc84898985815181106135b257fe5b6020026020010151602001516001600160601b0316613cd1565b909450905080156135fc576135fc60405180604001604052808c81526020018381525087898581518110612be057fe5b50600101613561565b50965096945050505050565b60006133516127106136238585613e68565b90613ec1565b8351516001600160e01b0319166339d690a360e11b141561376f57600080856000015160200151806020019051810190613663919061467c565b91509150856020015160011461368b5760405162461bcd60e51b8152600401610f8490614dbe565b6001600160a01b03851630141561370357604051632142170760e11b81526001600160a01b038316906342842e0e906136cc90309088908690600401614b6b565b600060405180830381600087803b1580156136e657600080fd5b505af11580156136fa573d6000803e3d6000fd5b50505050613768565b604051637b84dc8360e11b81526001600160a01b0384169063f709b90690613735908590899089908790600401614c70565b600060405180830381600087803b15801561374f57600080fd5b505af1158015613763573d6000803e3d6000fd5b505050505b5050610646565b8351516001600160e01b0319166322ba176160e21b14156138cd5760008460000151602001518060200190518101906137a89190614470565b90506001600160a01b03841630141561385f57602085015160405163a9059cbb60e01b81526001600160a01b0383169163a9059cbb916137ec918791600401614bc7565b602060405180830381600087803b15801561380657600080fd5b505af115801561381a573d6000803e3d6000fd5b505050506040513d601f19601f8201168201806040525081019061383e9190614786565b61385a5760405162461bcd60e51b8152600401610f8490614e13565b6138c7565b602085015160405163776062c360e01b81526001600160a01b0384169163776062c39161389491859189918991600401614c70565b600060405180830381600087803b1580156138ae57600080fd5b505af11580156138c2573d6000803e3d6000fd5b505050505b50610646565b8351516001600160e01b03191663025ceed960e61b141561398a57600080856000015160200151806020019051810190613907919061467c565b90925090506001600160a01b038516301415613952576020860151604051637921219560e11b81526001600160a01b0384169163f242432a916136cc91309189918791600401614b8f565b6020860151604051639c1c2ee960e01b81526001600160a01b03851691639c1c2ee9916137359186918a918a91889190600401614c2d565b8351516001600160e01b0319166355575f5d60e11b14156139d3576001600160a01b03821630146139ce5760208401516139ce906001600160a01b03841690612270565b610646565b6040516354bc0cf160e01b81526001600160a01b038216906354bc0cf190613a0390879087908790600401614fc0565b600060405180830381600087803b158015613a1d57600080fd5b505af1158015612c85573d6000803e3d6000fd5b60c95490565b60ca5490565b6000838383613a4a613f28565b3060405160200180868152602001858152602001848152602001838152602001826001600160a01b03168152602001955050505050506040516020818303038152906040528051906020012090509392505050565b604080517f19457468657265756d205369676e6564204d6573736167653a0a333200000000602080830191909152603c8083019490945282518083039094018452605c909101909152815191012090565b613af8614049565b60208084015180519082012083820151805192019190912080821415613b22578492505050612096565b5050604080518082018252600080825282516020808201909452908152918101919091529392505050565b6000808215613b8c576020808601510151613b689085612213565b9150613b8585606001516020015186602001516020015184613f2c565b905061220b565b606085015160200151613b9f9085612213565b9050613bbc85602001516020015186606001516020015183613f2c565b9150935093915050565b613bce614084565b6000613bdb858585613f2c565b905085811115613c32576040805162461bcd60e51b815260206004820152601860248201527f66696c6c4c6566743a20756e61626c6520746f2066696c6c0000000000000000604482015290519081900360640190fd5b5050604080518082019091529384525050602082015290565b613c53614084565b6000613c60838787613f2c565b905083811115613cb7576040805162461bcd60e51b815260206004820152601960248201527f66696c6c52696768743a20756e61626c6520746f2066696c6c00000000000000604482015290519081900360640190fd5b604080518082019091529283526020830152509392505050565b600080613ce785613ce28686613611565b613f92565b91509150935093915050565b80516060906001600160e01b03191663025ceed960e61b1480613d27575081516001600160e01b0319166339d690a360e11b145b15613ddd576000808360200151806020019051810190613d47919061467c565b61016254604051634e53ee3d60e11b81529294509092506001600160a01b031690639ca7dc7a90613d7e9085908590600401614bc7565b600060405180830381600087803b158015613d9857600080fd5b505af1158015613dac573d6000803e3d6000fd5b505050506040513d6000823e601f3d908101601f19168201604052613dd49190810190614754565b9250505061125d565b81516001600160e01b03191662737ea960e61b1415613e1e5760008260200151806020019051810190613e10919061448c565b60800151925061125d915050565b81516001600160e01b03191663d8f960c160e01b1415613e605760008260200151806020019051810190613e529190614589565b60600151925061125d915050565b506060919050565b600082613e7757506000612096565b82820282848281613e8457fe5b04146133515760405162461bcd60e51b81526004018080602001828103825260218152602001806152016021913960400191505060405180910390fd5b6000808211613f17576040805162461bcd60e51b815260206004820152601a60248201527f536166654d6174683a206469766973696f6e206279207a65726f000000000000604482015290519081900360640190fd5b818381613f2057fe5b049392505050565b4690565b6000613f39848484613fba565b15613f7c576040805162461bcd60e51b815260206004820152600e60248201526d3937bab73234b7339032b93937b960911b604482015290519081900360640190fd5b613f8a836136238685613e68565b949350505050565b60008082841115613fb157613fa78484612213565b9150829050611f14565b50600093915050565b600082614001576040805162461bcd60e51b815260206004820152601060248201526f6469766973696f6e206279207a65726f60801b604482015290519081900360640190fd5b81158061400c575083155b1561401957506000613351565b6000838061402357fe5b85840990506140328584613e68565b61403e826103e8613e68565b101595945050505050565b60408051808201909152600081526060602082015290565b604051806060016040528060608152602001606081526020016000151581525090565b604051806040016040528060008152602001600081525090565b604080518082019091526000808252602082015290565b803561125d816150f0565b600082601f8301126140d0578081fd5b815160206140e56140e083615086565b615063565b82815281810190858301855b8581101561411a57614108898684518b0101614249565b845292840192908401906001016140f1565b5090979650505050505050565b600082601f830112614137578081fd5b815160206141476140e083615086565b82815281810190858301604080860288018501891015614165578687fd5b865b868110156141d45781838b03121561417d578788fd5b81518281018181106001600160401b038211171561419757fe5b835283516141a4816150f0565b8152838701516001600160601b03811681146141be57898afd5b8188015285529385019391810191600101614167565b509198975050505050505050565b8051801515811461125d57600080fd5b803561125d81615105565b600082601f83011261420d578081fd5b813561421b6140e0826150a3565b81815284602083860101111561422f578283fd5b816020850160208301379081016020019190915292915050565b600082601f830112614259578081fd5b81516142676140e0826150a3565b81815284602083860101111561427b578283fd5b613f8a8260208301602087016150c4565b60006101e0828403121561429e578081fd5b50919050565b600060408083850312156142b6578182fd5b80518181016001600160401b0382821081831117156142d157fe5b8184528294508535818111156142e657600080fd5b86018088038513156142f757600080fd5b60808401838110838211171561430957fe5b90945283359361431885615105565b9382526020840135938185111561432e57600080fd5b61433a888683016141fd565b60608501525050815260209384013593019290925292915050565b6000610120808385031215614368578182fd5b61437181615063565b91505061437d826140b5565b815260208201356001600160401b038082111561439957600080fd5b6143a5858386016142a4565b60208401526143b6604085016140b5565b604084015260608401359150808211156143cf57600080fd5b6143db858386016142a4565b60608401526080840135608084015260a084013560a084015260c084013560c084015261440a60e085016141f2565b60e08401526101009150818401358181111561442557600080fd5b614431868287016141fd565b8385015250505092915050565b803565ffffffffffff8116811461125d57600080fd5b600060208284031215614465578081fd5b8135613351816150f0565b600060208284031215614481578081fd5b8151613351816150f0565b6000806040838503121561449e578081fd5b82516144a9816150f0565b60208401519092506001600160401b03808211156144c5578283fd5b9084019060c082870312156144d8578283fd5b6144e260c0615063565b825181526020830151828111156144f7578485fd5b61450388828601614249565b60208301525060408301516040820152606083015182811115614524578485fd5b61453088828601614127565b606083015250608083015182811115614547578485fd5b61455388828601614127565b60808301525060a08301518281111561456a578485fd5b614576888286016140c0565b60a0830152508093505050509250929050565b6000806040838503121561459b578182fd5b82516145a6816150f0565b60208401519092506001600160401b03808211156145c2578283fd5b9084019060a082870312156145d5578283fd5b6145df60a0615063565b825181526020830151828111156145f4578485fd5b61460088828601614249565b602083015250604083015182811115614617578485fd5b61462388828601614127565b60408301525060608301518281111561463a578485fd5b61464688828601614127565b60608301525060808301518281111561465d578485fd5b614669888286016140c0565b6080830152508093505050509250929050565b6000806040838503121561468e578182fd5b8251614699816150f0565b6020939093015192949293505050565b600080600080600060a086880312156146c0578081fd5b85356146cb816150f0565b945060208601356146db816150f0565b93506040860135925060608601356146f2816150f0565b91506080860135614702816150f0565b809150509295509295909350565b600080600060608486031215614724578081fd5b833561472f816150f0565b925061473d6020850161443e565b915061474b6040850161443e565b90509250925092565b600060208284031215614765578081fd5b81516001600160401b0381111561477a578182fd5b613f8a84828501614127565b600060208284031215614797578081fd5b613351826141e2565b6000602082840312156147b1578081fd5b5035919050565b6000602082840312156147c9578081fd5b813561335181615105565b600080604083850312156147e6578182fd5b82356147f181615105565b91506020830135614801816150f0565b809150509250929050565b60006020828403121561481d578081fd5b81356001600160401b03811115614832578182fd5b613f8a8482850161428c565b60006020828403121561484f578081fd5b81516001600160401b0380821115614865578283fd5b9083019060408286031215614878578283fd5b60405160408101818110838211171561488d57fe5b604052825161489b81615105565b81526020830151828111156148ae578485fd5b6148ba87828601614249565b60208301525095945050505050565b6000602082840312156148da578081fd5b81516001600160401b03808211156148f0578283fd5b9083019060408286031215614903578283fd5b60405160408101818110838211171561491857fe5b604052825182811115614929578485fd5b61493587828601614127565b825250602083015182811115614949578485fd5b6148ba87828601614127565b600060208284031215614966578081fd5b81516001600160401b038082111561497c578283fd5b908301906060828603121561498f578283fd5b6040516060810181811083821117156149a457fe5b6040528251828111156149b5578485fd5b6149c187828601614127565b8252506020830151828111156149d5578485fd5b6149e187828601614127565b6020830152506149f3604084016141e2565b604082015295945050505050565b600060208284031215614a12578081fd5b81356001600160401b03811115614a27578182fd5b613f8a84828501614355565b60008060008060808587031215614a48578182fd5b84356001600160401b0380821115614a5e578384fd5b614a6a88838901614355565b95506020870135915080821115614a7f578384fd5b614a8b888389016141fd565b94506040870135915080821115614aa0578384fd5b614aac88838901614355565b93506060870135915080821115614ac1578283fd5b50614ace878288016141fd565b91505092959194509250565b600060208284031215614aeb578081fd5b6133518261443e565b600063ffffffff60e01b82511683526020820151604060208501528051806040860152614b288160608701602085016150c4565b601f01601f1916939093016060019392505050565b6001600160a01b0391909116815260200190565b6001600160a01b0392831681529116602082015260400190565b6001600160a01b039384168152919092166020820152604081019190915260600190565b6001600160a01b0394851681529290931660208301526040820152606081019190915260a06080820181905260009082015260c00190565b6001600160a01b03929092168252602082015260400190565b6001600160a01b0393909316835265ffffffffffff918216602084015216604082015260600190565b90815260200190565b93845260208401929092526040830152606082015260800190565b6001600160a01b03958616815293851660208501529190931660408301526060820192909252608081019190915260c060a0820181905260009082015260e00190565b6001600160a01b039485168152928416602084015292166040820152606081019190915260800190565b60208082526017908201527f6e6f7420666f756e64204941737365744d617463686572000000000000000000604082015260600190565b6020808252601d908201527f526f79616c746965732061726520746f6f206869676820283e35302529000000604082015260600190565b6020808252601490820152730c081cd85b1d0818d85b89dd081899481d5cd95960621b604082015260600190565b60208082526024908201527f7472616e736665725061796f7574733a206e6f7468696e6720746f207472616e60408201526339b332b960e11b606082015260800190565b60208082526024908201527f72696768744f726465722e74616b657220766572696669636174696f6e2066616040820152631a5b195960e21b606082015260800190565b60208082526012908201527132b9319b9918903b30b63ab29032b93937b960711b604082015260600190565b6020808252600f908201526e1b9bdd1a1a5b99c81d1bc8199a5b1b608a1b604082015260600190565b602080825260159082015274195c98cc8c081d1c985b9cd9995c8819985a5b1959605a1b604082015260600190565b6020808252601590820152746f726967696e2066656520697320746f6f2062696760581b604082015260600190565b60208082526017908201527f556e6b6e6f776e204f7264657220646174612074797065000000000000000000604082015260600190565b6020808252601e908201527f53756d207061796f75747320427073206e6f7420657175616c20313030250000604082015260600190565b6020808252601290820152710c2e6e6cae8e640c8dedc4ee840dac2e8c6d60731b604082015260600190565b60208082526023908201527f6c6566744f726465722e74616b657220766572696669636174696f6e206661696040820152621b195960ea1b606082015260800190565b6020808252600e908201526d0dcdee840cadcdeeaced040cae8d60931b604082015260600190565b6020808252600b908201526a3737ba10309036b0b5b2b960a91b604082015260600190565b600060408252614fae6040830185614af4565b8281036020840152612f8c8185614af4565b600060608252845160406060840152614fdc60a0840182614af4565b60209687015160808501526001600160a01b03958616968401969096525050911660409091015290565b65ffffffffffff92831681529116602082015260400190565b6000808335601e19843603018112615035578283fd5b8301803591506001600160401b0382111561504e578283fd5b602001915036819003821315611f1457600080fd5b6040518181016001600160401b038111828210171561507e57fe5b604052919050565b60006001600160401b0382111561509957fe5b5060209081020190565b60006001600160401b038211156150b657fe5b50601f01601f191660200190565b60005b838110156150df5781810151838201526020016150c7565b838111156106465750506000910152565b6001600160a01b038116811461157b57600080fd5b6001600160e01b03198116811461157b57600080fdfe4f776e61626c653a206e6577206f776e657220697320746865207a65726f206164647265737345434453413a20696e76616c6964207369676e6174757265202773272076616c75656f72646572207369676e617475726520766572696669636174696f6e206572726f72636f6e7472616374206f72646572207369676e617475726520766572696669636174696f6e206572726f72496e697469616c697a61626c653a20636f6e747261637420697320616c726561647920696e697469616c697a656445434453413a20696e76616c6964207369676e6174757265202776272076616c7565536166654d6174683a206d756c7469706c69636174696f6e206f766572666c6f774f776e61626c653a2063616c6c6572206973206e6f7420746865206f776e6572a2646970667358221220d6e0550462fe9be122a43f8c735c590bcc9460d7f75c5d505a1cf792f4e527c764736f6c63430007060033",
  "immutableReferences": {},
  "source": "// SPDX-License-Identifier: MIT\n\npragma solidity 0.7.6;\npragma abicoder v2;\n\nimport \"./ExchangeV2Core.sol\";\nimport \"@rarible/transfer-manager/contracts/RaribleTransferManager.sol\";\n\ncontract ExchangeV2 is ExchangeV2Core, RaribleTransferManager {\n    function __ExchangeV2_init(\n        address _transferProxy,\n        address _erc20TransferProxy,\n        uint newProtocolFee,\n        address newDefaultFeeReceiver,\n        IRoyaltiesProvider newRoyaltiesProvider\n    ) external initializer {\n        __Context_init_unchained();\n        __Ownable_init_unchained();\n        __TransferExecutor_init_unchained(_transferProxy, _erc20TransferProxy);\n        __RaribleTransferManager_init_unchained(newProtocolFee, newDefaultFeeReceiver, newRoyaltiesProvider);\n        __OrderValidator_init_unchained();\n    }\n\n}\n",
  "sourcePath": "@rarible/exchange-v2/contracts/ExchangeV2.sol",
  "compiler": {
    "name": "solc",
    "version": "0.7.6+commit.7338295f.Emscripten.clang"
  },
  "schemaVersion": "3.4.16",
  "updatedAt": "2024-01-18T15:37:06.760Z",
  "devdoc": {
    "kind": "dev",
    "methods": {
      "directAcceptBid((address,uint256,bytes4,bytes,uint256,address,uint256,uint256,uint256,bytes4,bytes,bytes,uint256,uint256,bytes))": {
        "details": "function, generate sellOrder and buyOrder from parameters and call validateAndMatch() for accept bid transaction",
        "params": {
          "direct": "struct with parameters for accept bid operation"
        }
      },
      "directPurchase((address,uint256,bytes4,bytes,uint256,address,uint256,uint256,uint256,bytes4,bytes,bytes,uint256,uint256,bytes))": {
        "details": "function, generate sellOrder and buyOrder from parameters and call validateAndMatch() for purchase transaction"
      },
      "owner()": {
        "details": "Returns the address of the current owner."
      },
      "renounceOwnership()": {
        "details": "Leaves the contract without owner. It will not be possible to call `onlyOwner` functions anymore. Can only be called by the current owner. NOTE: Renouncing ownership will leave the contract without an owner, thereby removing any functionality that is only available to the owner."
      },
      "transferOwnership(address)": {
        "details": "Transfers ownership of the contract to a new account (`newOwner`). Can only be called by the current owner."
      }
    },
    "version": 1
  },
  "userdoc": {
    "kind": "user",
    "methods": {},
    "version": 1
  }
}