{
  "contractName": "ExecutionManager",
  "abi": [
    {
      "anonymous": false,
      "inputs": [
        {
          "indexed": true,
          "internalType": "address",
          "name": "previousOwner",
          "type": "address"
        },
        {
          "indexed": true,
          "internalType": "address",
          "name": "newOwner",
          "type": "address"
        }
      ],
      "name": "OwnershipTransferred",
      "type": "event"
    },
    {
      "anonymous": false,
      "inputs": [
        {
          "indexed": true,
          "internalType": "address",
          "name": "strategy",
          "type": "address"
        }
      ],
      "name": "StrategyRemoved",
      "type": "event"
    },
    {
      "anonymous": false,
      "inputs": [
        {
          "indexed": true,
          "internalType": "address",
          "name": "strategy",
          "type": "address"
        }
      ],
      "name": "StrategyWhitelisted",
      "type": "event"
    },
    {
      "inputs": [],
      "name": "owner",
      "outputs": [
        {
          "internalType": "address",
          "name": "",
          "type": "address"
        }
      ],
      "stateMutability": "view",
      "type": "function"
    },
    {
      "inputs": [],
      "name": "renounceOwnership",
      "outputs": [],
      "stateMutability": "nonpayable",
      "type": "function"
    },
    {
      "inputs": [
        {
          "internalType": "address",
          "name": "newOwner",
          "type": "address"
        }
      ],
      "name": "transferOwnership",
      "outputs": [],
      "stateMutability": "nonpayable",
      "type": "function"
    },
    {
      "inputs": [
        {
          "internalType": "address",
          "name": "strategy",
          "type": "address"
        }
      ],
      "name": "addStrategy",
      "outputs": [],
      "stateMutability": "nonpayable",
      "type": "function"
    },
    {
      "inputs": [
        {
          "internalType": "address",
          "name": "strategy",
          "type": "address"
        }
      ],
      "name": "removeStrategy",
      "outputs": [],
      "stateMutability": "nonpayable",
      "type": "function"
    },
    {
      "inputs": [
        {
          "internalType": "address",
          "name": "strategy",
          "type": "address"
        }
      ],
      "name": "isStrategyWhitelisted",
      "outputs": [
        {
          "internalType": "bool",
          "name": "",
          "type": "bool"
        }
      ],
      "stateMutability": "view",
      "type": "function"
    },
    {
      "inputs": [],
      "name": "viewCountWhitelistedStrategies",
      "outputs": [
        {
          "internalType": "uint256",
          "name": "",
          "type": "uint256"
        }
      ],
      "stateMutability": "view",
      "type": "function"
    },
    {
      "inputs": [
        {
          "internalType": "uint256",
          "name": "cursor",
          "type": "uint256"
        },
        {
          "internalType": "uint256",
          "name": "size",
          "type": "uint256"
        }
      ],
      "name": "viewWhitelistedStrategies",
      "outputs": [
        {
          "internalType": "address[]",
          "name": "",
          "type": "address[]"
        },
        {
          "internalType": "uint256",
          "name": "",
          "type": "uint256"
        }
      ],
      "stateMutability": "view",
      "type": "function"
    }
  ],
  "bytecode": "0x608060405234801561001057600080fd5b5061002161001c610026565b61002a565b61007a565b3390565b600080546001600160a01b038381166001600160a01b0319831681178455604051919092169283917f8be0079c531659141344cd1fd0a4f28419497f9722a3daafe3b4186f6b6457e09190a35050565b6108af806100896000396000f3fe608060405234801561001057600080fd5b50600436106100885760003560e01c80638da5cb5b1161005b5780638da5cb5b146100e7578063985e3a2f146100fc578063999ba27c14610111578063f2fde38b1461013157610088565b8063175188e81461008d578063223e5479146100a257806331fb5b1f146100b5578063715018a6146100df575b600080fd5b6100a061009b36600461066f565b610144565b005b6100a06100b036600461066f565b6101bf565b6100c86100c3366004610696565b610232565b6040516100d69291906106cb565b60405180910390f35b6100a0610343565b6100ef610357565b6040516100d691906106b7565b610104610366565b6040516100d69190610810565b61012461011f36600461066f565b610377565b6040516100d6919061071c565b6100a061013f36600461066f565b61038a565b61014c6103c4565b610157600182610403565b61017c5760405162461bcd60e51b815260040161017390610727565b60405180910390fd5b61018760018261041f565b506040516001600160a01b038216907f09a1db4b80c32706328728508c941a6b954f31eb5affd32f236c1fd405f8fea490600090a250565b6101c76103c4565b6101d2600182610403565b156101ef5760405162461bcd60e51b8152600401610173906107d9565b6101fa600182610434565b506040516001600160a01b038216907f6b583e2e3ad2e182671d77905fee57b1ffd8ce2aa5c0b652ca029317919751a490600090a250565b6060600082846102426001610449565b61024c9190610831565b81111561026b578461025e6001610449565b6102689190610831565b90505b60008167ffffffffffffffff81111561029457634e487b7160e01b600052604160045260246000fd5b6040519080825280602002602001820160405280156102bd578160200160208202803683370190505b50905060005b8281101561032a576102e06102d88289610819565b600190610454565b82828151811061030057634e487b7160e01b600052603260045260246000fd5b6001600160a01b03909216602092830291909101909101528061032281610848565b9150506102c3565b50806103368388610819565b9350935050509250929050565b61034b6103c4565b6103556000610460565b565b6000546001600160a01b031690565b60006103726001610449565b905090565b6000610384600183610403565b92915050565b6103926103c4565b6001600160a01b0381166103b85760405162461bcd60e51b81526004016101739061075e565b6103c181610460565b50565b6103cc6104b0565b6001600160a01b03166103dd610357565b6001600160a01b0316146103555760405162461bcd60e51b8152600401610173906107a4565b6000610418836001600160a01b0384166104b4565b9392505050565b6000610418836001600160a01b0384166104cc565b6000610418836001600160a01b0384166105e9565b600061038482610633565b60006104188383610637565b600080546001600160a01b038381166001600160a01b0319831681178455604051919092169283917f8be0079c531659141344cd1fd0a4f28419497f9722a3daafe3b4186f6b6457e09190a35050565b3390565b60009081526001919091016020526040902054151590565b600081815260018301602052604081205480156105df5760006104f0600183610831565b855490915060009061050490600190610831565b905081811461058557600086600001828154811061053257634e487b7160e01b600052603260045260246000fd5b906000526020600020015490508087600001848154811061056357634e487b7160e01b600052603260045260246000fd5b6000918252602080832090910192909255918252600188019052604090208390555b85548690806105a457634e487b7160e01b600052603160045260246000fd5b600190038181906000526020600020016000905590558560010160008681526020019081526020016000206000905560019350505050610384565b6000915050610384565b60006105f583836104b4565b61062b57508154600181810184556000848152602080822090930184905584548482528286019093526040902091909155610384565b506000610384565b5490565b600082600001828154811061065c57634e487b7160e01b600052603260045260246000fd5b9060005260206000200154905092915050565b600060208284031215610680578081fd5b81356001600160a01b0381168114610418578182fd5b600080604083850312156106a8578081fd5b50508035926020909101359150565b6001600160a01b0391909116815260200190565b604080825283519082018190526000906020906060840190828701845b8281101561070d5781516001600160a01b0316845292840192908401906001016106e8565b50505092019290925292915050565b901515815260200190565b60208082526019908201527f53747261746567793a204e6f742077686974656c697374656400000000000000604082015260600190565b60208082526026908201527f4f776e61626c653a206e6577206f776e657220697320746865207a65726f206160408201526564647265737360d01b606082015260800190565b6020808252818101527f4f776e61626c653a2063616c6c6572206973206e6f7420746865206f776e6572604082015260600190565b6020808252601d908201527f53747261746567793a20416c72656164792077686974656c6973746564000000604082015260600190565b90815260200190565b6000821982111561082c5761082c610863565b500190565b60008282101561084357610843610863565b500390565b600060001982141561085c5761085c610863565b5060010190565b634e487b7160e01b600052601160045260246000fdfea26469706673582212205eed297c6a1e5614ce081dcc58e7124c6545f552b86c52dd5e770fbc8f21dd2664736f6c63430008010033",
  "immutableReferences": {},
  "source": "// SPDX-License-Identifier: MIT\npragma solidity ^0.8.0;\n\nimport {Ownable} from \"@openzeppelin/contracts/access/Ownable.sol\";\nimport {EnumerableSet} from \"@openzeppelin/contracts/utils/structs/EnumerableSet.sol\";\n\nimport {IExecutionManager} from \"./interfaces/IExecutionManager.sol\";\n\n/**\n * @title ExecutionManager\n * @notice It allows adding/removing execution strategies for trading on the LooksRare exchange.\n */\ncontract ExecutionManager is IExecutionManager, Ownable {\n    using EnumerableSet for EnumerableSet.AddressSet;\n\n    EnumerableSet.AddressSet private _whitelistedStrategies;\n\n    event StrategyRemoved(address indexed strategy);\n    event StrategyWhitelisted(address indexed strategy);\n\n    /**\n     * @notice Add an execution strategy in the system\n     * @param strategy address of the strategy to add\n     */\n    function addStrategy(address strategy) external override onlyOwner {\n        require(!_whitelistedStrategies.contains(strategy), \"Strategy: Already whitelisted\");\n        _whitelistedStrategies.add(strategy);\n\n        emit StrategyWhitelisted(strategy);\n    }\n\n    /**\n     * @notice Remove an execution strategy from the system\n     * @param strategy address of the strategy to remove\n     */\n    function removeStrategy(address strategy) external override onlyOwner {\n        require(_whitelistedStrategies.contains(strategy), \"Strategy: Not whitelisted\");\n        _whitelistedStrategies.remove(strategy);\n\n        emit StrategyRemoved(strategy);\n    }\n\n    /**\n     * @notice Returns if an execution strategy is in the system\n     * @param strategy address of the strategy\n     */\n    function isStrategyWhitelisted(address strategy) external view override returns (bool) {\n        return _whitelistedStrategies.contains(strategy);\n    }\n\n    /**\n     * @notice View number of whitelisted strategies\n     */\n    function viewCountWhitelistedStrategies() external view override returns (uint256) {\n        return _whitelistedStrategies.length();\n    }\n\n    /**\n     * @notice See whitelisted strategies in the system\n     * @param cursor cursor (should start at 0 for first request)\n     * @param size size of the response (e.g., 50)\n     */\n    function viewWhitelistedStrategies(uint256 cursor, uint256 size)\n        external\n        view\n        override\n        returns (address[] memory, uint256)\n    {\n        uint256 length = size;\n\n        if (length > _whitelistedStrategies.length() - cursor) {\n            length = _whitelistedStrategies.length() - cursor;\n        }\n\n        address[] memory whitelistedStrategies = new address[](length);\n\n        for (uint256 i = 0; i < length; i++) {\n            whitelistedStrategies[i] = _whitelistedStrategies.at(cursor + i);\n        }\n\n        return (whitelistedStrategies, cursor + length);\n    }\n}",
  "sourcePath": "/Users/ds/Documents/rarible/LooksRare/contracts/ExecutionManager.sol",
  "compiler": {
    "name": "solc",
    "version": "0.8.1+commit.df193b15.Emscripten.clang"
  },
  "schemaVersion": "3.4.3",
  "updatedAt": "2022-07-21T19:22:52.811Z",
  "devdoc": {
    "kind": "dev",
    "methods": {
      "addStrategy(address)": {
        "params": {
          "strategy": "address of the strategy to add"
        }
      },
      "isStrategyWhitelisted(address)": {
        "params": {
          "strategy": "address of the strategy"
        }
      },
      "owner()": {
        "details": "Returns the address of the current owner."
      },
      "removeStrategy(address)": {
        "params": {
          "strategy": "address of the strategy to remove"
        }
      },
      "renounceOwnership()": {
        "details": "Leaves the contract without owner. It will not be possible to call `onlyOwner` functions anymore. Can only be called by the current owner. NOTE: Renouncing ownership will leave the contract without an owner, thereby removing any functionality that is only available to the owner."
      },
      "transferOwnership(address)": {
        "details": "Transfers ownership of the contract to a new account (`newOwner`). Can only be called by the current owner."
      },
      "viewWhitelistedStrategies(uint256,uint256)": {
        "params": {
          "cursor": "cursor (should start at 0 for first request)",
          "size": "size of the response (e.g., 50)"
        }
      }
    },
    "title": "ExecutionManager",
    "version": 1
  },
  "userdoc": {
    "kind": "user",
    "methods": {
      "addStrategy(address)": {
        "notice": "Add an execution strategy in the system"
      },
      "isStrategyWhitelisted(address)": {
        "notice": "Returns if an execution strategy is in the system"
      },
      "removeStrategy(address)": {
        "notice": "Remove an execution strategy from the system"
      },
      "viewCountWhitelistedStrategies()": {
        "notice": "View number of whitelisted strategies"
      },
      "viewWhitelistedStrategies(uint256,uint256)": {
        "notice": "See whitelisted strategies in the system"
      }
    },
    "notice": "It allows adding/removing execution strategies for trading on the LooksRare exchange.",
    "version": 1
  }
}