{
  "contractName": "LooksRareExchange",
  "abi": [
    {
      "inputs": [
        {
          "internalType": "address",
          "name": "_currencyManager",
          "type": "address"
        },
        {
          "internalType": "address",
          "name": "_executionManager",
          "type": "address"
        },
        {
          "internalType": "address",
          "name": "_royaltyFeeManager",
          "type": "address"
        },
        {
          "internalType": "address",
          "name": "_WETH",
          "type": "address"
        },
        {
          "internalType": "address",
          "name": "_protocolFeeRecipient",
          "type": "address"
        }
      ],
      "stateMutability": "nonpayable",
      "type": "constructor"
    },
    {
      "anonymous": false,
      "inputs": [
        {
          "indexed": true,
          "internalType": "address",
          "name": "user",
          "type": "address"
        },
        {
          "indexed": false,
          "internalType": "uint256",
          "name": "newMinNonce",
          "type": "uint256"
        }
      ],
      "name": "CancelAllOrders",
      "type": "event"
    },
    {
      "anonymous": false,
      "inputs": [
        {
          "indexed": true,
          "internalType": "address",
          "name": "user",
          "type": "address"
        },
        {
          "indexed": false,
          "internalType": "uint256[]",
          "name": "orderNonces",
          "type": "uint256[]"
        }
      ],
      "name": "CancelMultipleOrders",
      "type": "event"
    },
    {
      "anonymous": false,
      "inputs": [
        {
          "indexed": true,
          "internalType": "address",
          "name": "currencyManager",
          "type": "address"
        }
      ],
      "name": "NewCurrencyManager",
      "type": "event"
    },
    {
      "anonymous": false,
      "inputs": [
        {
          "indexed": true,
          "internalType": "address",
          "name": "executionManager",
          "type": "address"
        }
      ],
      "name": "NewExecutionManager",
      "type": "event"
    },
    {
      "anonymous": false,
      "inputs": [
        {
          "indexed": true,
          "internalType": "address",
          "name": "protocolFeeRecipient",
          "type": "address"
        }
      ],
      "name": "NewProtocolFeeRecipient",
      "type": "event"
    },
    {
      "anonymous": false,
      "inputs": [
        {
          "indexed": true,
          "internalType": "address",
          "name": "royaltyFeeManager",
          "type": "address"
        }
      ],
      "name": "NewRoyaltyFeeManager",
      "type": "event"
    },
    {
      "anonymous": false,
      "inputs": [
        {
          "indexed": true,
          "internalType": "address",
          "name": "transferSelectorNFT",
          "type": "address"
        }
      ],
      "name": "NewTransferSelectorNFT",
      "type": "event"
    },
    {
      "anonymous": false,
      "inputs": [
        {
          "indexed": true,
          "internalType": "address",
          "name": "previousOwner",
          "type": "address"
        },
        {
          "indexed": true,
          "internalType": "address",
          "name": "newOwner",
          "type": "address"
        }
      ],
      "name": "OwnershipTransferred",
      "type": "event"
    },
    {
      "anonymous": false,
      "inputs": [
        {
          "indexed": true,
          "internalType": "address",
          "name": "collection",
          "type": "address"
        },
        {
          "indexed": true,
          "internalType": "uint256",
          "name": "tokenId",
          "type": "uint256"
        },
        {
          "indexed": true,
          "internalType": "address",
          "name": "royaltyRecipient",
          "type": "address"
        },
        {
          "indexed": false,
          "internalType": "address",
          "name": "currency",
          "type": "address"
        },
        {
          "indexed": false,
          "internalType": "uint256",
          "name": "amount",
          "type": "uint256"
        }
      ],
      "name": "RoyaltyPayment",
      "type": "event"
    },
    {
      "anonymous": false,
      "inputs": [
        {
          "indexed": false,
          "internalType": "bytes32",
          "name": "orderHash",
          "type": "bytes32"
        },
        {
          "indexed": false,
          "internalType": "uint256",
          "name": "orderNonce",
          "type": "uint256"
        },
        {
          "indexed": true,
          "internalType": "address",
          "name": "taker",
          "type": "address"
        },
        {
          "indexed": true,
          "internalType": "address",
          "name": "maker",
          "type": "address"
        },
        {
          "indexed": true,
          "internalType": "address",
          "name": "strategy",
          "type": "address"
        },
        {
          "indexed": false,
          "internalType": "address",
          "name": "currency",
          "type": "address"
        },
        {
          "indexed": false,
          "internalType": "address",
          "name": "collection",
          "type": "address"
        },
        {
          "indexed": false,
          "internalType": "uint256",
          "name": "tokenId",
          "type": "uint256"
        },
        {
          "indexed": false,
          "internalType": "uint256",
          "name": "amount",
          "type": "uint256"
        },
        {
          "indexed": false,
          "internalType": "uint256",
          "name": "price",
          "type": "uint256"
        }
      ],
      "name": "TakerAsk",
      "type": "event"
    },
    {
      "anonymous": false,
      "inputs": [
        {
          "indexed": false,
          "internalType": "bytes32",
          "name": "orderHash",
          "type": "bytes32"
        },
        {
          "indexed": false,
          "internalType": "uint256",
          "name": "orderNonce",
          "type": "uint256"
        },
        {
          "indexed": true,
          "internalType": "address",
          "name": "taker",
          "type": "address"
        },
        {
          "indexed": true,
          "internalType": "address",
          "name": "maker",
          "type": "address"
        },
        {
          "indexed": true,
          "internalType": "address",
          "name": "strategy",
          "type": "address"
        },
        {
          "indexed": false,
          "internalType": "address",
          "name": "currency",
          "type": "address"
        },
        {
          "indexed": false,
          "internalType": "address",
          "name": "collection",
          "type": "address"
        },
        {
          "indexed": false,
          "internalType": "uint256",
          "name": "tokenId",
          "type": "uint256"
        },
        {
          "indexed": false,
          "internalType": "uint256",
          "name": "amount",
          "type": "uint256"
        },
        {
          "indexed": false,
          "internalType": "uint256",
          "name": "price",
          "type": "uint256"
        }
      ],
      "name": "TakerBid",
      "type": "event"
    },
    {
      "inputs": [],
      "name": "DOMAIN_SEPARATOR",
      "outputs": [
        {
          "internalType": "bytes32",
          "name": "",
          "type": "bytes32"
        }
      ],
      "stateMutability": "view",
      "type": "function"
    },
    {
      "inputs": [],
      "name": "WETH",
      "outputs": [
        {
          "internalType": "address",
          "name": "",
          "type": "address"
        }
      ],
      "stateMutability": "view",
      "type": "function"
    },
    {
      "inputs": [],
      "name": "currencyManager",
      "outputs": [
        {
          "internalType": "contract ICurrencyManager",
          "name": "",
          "type": "address"
        }
      ],
      "stateMutability": "view",
      "type": "function"
    },
    {
      "inputs": [],
      "name": "executionManager",
      "outputs": [
        {
          "internalType": "contract IExecutionManager",
          "name": "",
          "type": "address"
        }
      ],
      "stateMutability": "view",
      "type": "function"
    },
    {
      "inputs": [],
      "name": "owner",
      "outputs": [
        {
          "internalType": "address",
          "name": "",
          "type": "address"
        }
      ],
      "stateMutability": "view",
      "type": "function"
    },
    {
      "inputs": [],
      "name": "protocolFeeRecipient",
      "outputs": [
        {
          "internalType": "address",
          "name": "",
          "type": "address"
        }
      ],
      "stateMutability": "view",
      "type": "function"
    },
    {
      "inputs": [],
      "name": "renounceOwnership",
      "outputs": [],
      "stateMutability": "nonpayable",
      "type": "function"
    },
    {
      "inputs": [],
      "name": "royaltyFeeManager",
      "outputs": [
        {
          "internalType": "contract IRoyaltyFeeManager",
          "name": "",
          "type": "address"
        }
      ],
      "stateMutability": "view",
      "type": "function"
    },
    {
      "inputs": [
        {
          "internalType": "address",
          "name": "newOwner",
          "type": "address"
        }
      ],
      "name": "transferOwnership",
      "outputs": [],
      "stateMutability": "nonpayable",
      "type": "function"
    },
    {
      "inputs": [],
      "name": "transferSelectorNFT",
      "outputs": [
        {
          "internalType": "contract ITransferSelectorNFT",
          "name": "",
          "type": "address"
        }
      ],
      "stateMutability": "view",
      "type": "function"
    },
    {
      "inputs": [
        {
          "internalType": "address",
          "name": "",
          "type": "address"
        }
      ],
      "name": "userMinOrderNonce",
      "outputs": [
        {
          "internalType": "uint256",
          "name": "",
          "type": "uint256"
        }
      ],
      "stateMutability": "view",
      "type": "function"
    },
    {
      "inputs": [
        {
          "internalType": "uint256",
          "name": "minNonce",
          "type": "uint256"
        }
      ],
      "name": "cancelAllOrdersForSender",
      "outputs": [],
      "stateMutability": "nonpayable",
      "type": "function"
    },
    {
      "inputs": [
        {
          "internalType": "uint256[]",
          "name": "orderNonces",
          "type": "uint256[]"
        }
      ],
      "name": "cancelMultipleMakerOrders",
      "outputs": [],
      "stateMutability": "nonpayable",
      "type": "function"
    },
    {
      "inputs": [
        {
          "components": [
            {
              "internalType": "bool",
              "name": "isOrderAsk",
              "type": "bool"
            },
            {
              "internalType": "address",
              "name": "taker",
              "type": "address"
            },
            {
              "internalType": "uint256",
              "name": "price",
              "type": "uint256"
            },
            {
              "internalType": "uint256",
              "name": "tokenId",
              "type": "uint256"
            },
            {
              "internalType": "uint256",
              "name": "minPercentageToAsk",
              "type": "uint256"
            },
            {
              "internalType": "bytes",
              "name": "params",
              "type": "bytes"
            }
          ],
          "internalType": "struct OrderTypes.TakerOrder",
          "name": "takerBid",
          "type": "tuple"
        },
        {
          "components": [
            {
              "internalType": "bool",
              "name": "isOrderAsk",
              "type": "bool"
            },
            {
              "internalType": "address",
              "name": "signer",
              "type": "address"
            },
            {
              "internalType": "address",
              "name": "collection",
              "type": "address"
            },
            {
              "internalType": "uint256",
              "name": "price",
              "type": "uint256"
            },
            {
              "internalType": "uint256",
              "name": "tokenId",
              "type": "uint256"
            },
            {
              "internalType": "uint256",
              "name": "amount",
              "type": "uint256"
            },
            {
              "internalType": "address",
              "name": "strategy",
              "type": "address"
            },
            {
              "internalType": "address",
              "name": "currency",
              "type": "address"
            },
            {
              "internalType": "uint256",
              "name": "nonce",
              "type": "uint256"
            },
            {
              "internalType": "uint256",
              "name": "startTime",
              "type": "uint256"
            },
            {
              "internalType": "uint256",
              "name": "endTime",
              "type": "uint256"
            },
            {
              "internalType": "uint256",
              "name": "minPercentageToAsk",
              "type": "uint256"
            },
            {
              "internalType": "bytes",
              "name": "params",
              "type": "bytes"
            },
            {
              "internalType": "uint8",
              "name": "v",
              "type": "uint8"
            },
            {
              "internalType": "bytes32",
              "name": "r",
              "type": "bytes32"
            },
            {
              "internalType": "bytes32",
              "name": "s",
              "type": "bytes32"
            }
          ],
          "internalType": "struct OrderTypes.MakerOrder",
          "name": "makerAsk",
          "type": "tuple"
        }
      ],
      "name": "matchAskWithTakerBidUsingETHAndWETH",
      "outputs": [],
      "stateMutability": "payable",
      "type": "function"
    },
    {
      "inputs": [
        {
          "components": [
            {
              "internalType": "bool",
              "name": "isOrderAsk",
              "type": "bool"
            },
            {
              "internalType": "address",
              "name": "taker",
              "type": "address"
            },
            {
              "internalType": "uint256",
              "name": "price",
              "type": "uint256"
            },
            {
              "internalType": "uint256",
              "name": "tokenId",
              "type": "uint256"
            },
            {
              "internalType": "uint256",
              "name": "minPercentageToAsk",
              "type": "uint256"
            },
            {
              "internalType": "bytes",
              "name": "params",
              "type": "bytes"
            }
          ],
          "internalType": "struct OrderTypes.TakerOrder",
          "name": "takerBid",
          "type": "tuple"
        },
        {
          "components": [
            {
              "internalType": "bool",
              "name": "isOrderAsk",
              "type": "bool"
            },
            {
              "internalType": "address",
              "name": "signer",
              "type": "address"
            },
            {
              "internalType": "address",
              "name": "collection",
              "type": "address"
            },
            {
              "internalType": "uint256",
              "name": "price",
              "type": "uint256"
            },
            {
              "internalType": "uint256",
              "name": "tokenId",
              "type": "uint256"
            },
            {
              "internalType": "uint256",
              "name": "amount",
              "type": "uint256"
            },
            {
              "internalType": "address",
              "name": "strategy",
              "type": "address"
            },
            {
              "internalType": "address",
              "name": "currency",
              "type": "address"
            },
            {
              "internalType": "uint256",
              "name": "nonce",
              "type": "uint256"
            },
            {
              "internalType": "uint256",
              "name": "startTime",
              "type": "uint256"
            },
            {
              "internalType": "uint256",
              "name": "endTime",
              "type": "uint256"
            },
            {
              "internalType": "uint256",
              "name": "minPercentageToAsk",
              "type": "uint256"
            },
            {
              "internalType": "bytes",
              "name": "params",
              "type": "bytes"
            },
            {
              "internalType": "uint8",
              "name": "v",
              "type": "uint8"
            },
            {
              "internalType": "bytes32",
              "name": "r",
              "type": "bytes32"
            },
            {
              "internalType": "bytes32",
              "name": "s",
              "type": "bytes32"
            }
          ],
          "internalType": "struct OrderTypes.MakerOrder",
          "name": "makerAsk",
          "type": "tuple"
        }
      ],
      "name": "matchAskWithTakerBid",
      "outputs": [],
      "stateMutability": "nonpayable",
      "type": "function"
    },
    {
      "inputs": [
        {
          "components": [
            {
              "internalType": "bool",
              "name": "isOrderAsk",
              "type": "bool"
            },
            {
              "internalType": "address",
              "name": "taker",
              "type": "address"
            },
            {
              "internalType": "uint256",
              "name": "price",
              "type": "uint256"
            },
            {
              "internalType": "uint256",
              "name": "tokenId",
              "type": "uint256"
            },
            {
              "internalType": "uint256",
              "name": "minPercentageToAsk",
              "type": "uint256"
            },
            {
              "internalType": "bytes",
              "name": "params",
              "type": "bytes"
            }
          ],
          "internalType": "struct OrderTypes.TakerOrder",
          "name": "takerAsk",
          "type": "tuple"
        },
        {
          "components": [
            {
              "internalType": "bool",
              "name": "isOrderAsk",
              "type": "bool"
            },
            {
              "internalType": "address",
              "name": "signer",
              "type": "address"
            },
            {
              "internalType": "address",
              "name": "collection",
              "type": "address"
            },
            {
              "internalType": "uint256",
              "name": "price",
              "type": "uint256"
            },
            {
              "internalType": "uint256",
              "name": "tokenId",
              "type": "uint256"
            },
            {
              "internalType": "uint256",
              "name": "amount",
              "type": "uint256"
            },
            {
              "internalType": "address",
              "name": "strategy",
              "type": "address"
            },
            {
              "internalType": "address",
              "name": "currency",
              "type": "address"
            },
            {
              "internalType": "uint256",
              "name": "nonce",
              "type": "uint256"
            },
            {
              "internalType": "uint256",
              "name": "startTime",
              "type": "uint256"
            },
            {
              "internalType": "uint256",
              "name": "endTime",
              "type": "uint256"
            },
            {
              "internalType": "uint256",
              "name": "minPercentageToAsk",
              "type": "uint256"
            },
            {
              "internalType": "bytes",
              "name": "params",
              "type": "bytes"
            },
            {
              "internalType": "uint8",
              "name": "v",
              "type": "uint8"
            },
            {
              "internalType": "bytes32",
              "name": "r",
              "type": "bytes32"
            },
            {
              "internalType": "bytes32",
              "name": "s",
              "type": "bytes32"
            }
          ],
          "internalType": "struct OrderTypes.MakerOrder",
          "name": "makerBid",
          "type": "tuple"
        }
      ],
      "name": "matchBidWithTakerAsk",
      "outputs": [],
      "stateMutability": "nonpayable",
      "type": "function"
    },
    {
      "inputs": [
        {
          "internalType": "address",
          "name": "_currencyManager",
          "type": "address"
        }
      ],
      "name": "updateCurrencyManager",
      "outputs": [],
      "stateMutability": "nonpayable",
      "type": "function"
    },
    {
      "inputs": [
        {
          "internalType": "address",
          "name": "_executionManager",
          "type": "address"
        }
      ],
      "name": "updateExecutionManager",
      "outputs": [],
      "stateMutability": "nonpayable",
      "type": "function"
    },
    {
      "inputs": [
        {
          "internalType": "address",
          "name": "_protocolFeeRecipient",
          "type": "address"
        }
      ],
      "name": "updateProtocolFeeRecipient",
      "outputs": [],
      "stateMutability": "nonpayable",
      "type": "function"
    },
    {
      "inputs": [
        {
          "internalType": "address",
          "name": "_royaltyFeeManager",
          "type": "address"
        }
      ],
      "name": "updateRoyaltyFeeManager",
      "outputs": [],
      "stateMutability": "nonpayable",
      "type": "function"
    },
    {
      "inputs": [
        {
          "internalType": "address",
          "name": "_transferSelectorNFT",
          "type": "address"
        }
      ],
      "name": "updateTransferSelectorNFT",
      "outputs": [],
      "stateMutability": "nonpayable",
      "type": "function"
    },
    {
      "inputs": [
        {
          "internalType": "address",
          "name": "user",
          "type": "address"
        },
        {
          "internalType": "uint256",
          "name": "orderNonce",
          "type": "uint256"
        }
      ],
      "name": "isUserOrderNonceExecutedOrCancelled",
      "outputs": [
        {
          "internalType": "bool",
          "name": "",
          "type": "bool"
        }
      ],
      "stateMutability": "view",
      "type": "function"
    }
  ],
  "bytecode": "0x60c06040523480156200001157600080fd5b5060405162002dfa38038062002dfa8339810160408190526200003491620001b9565b600160005562000044336200014a565b604080517f8b73c3c69bb8fe3d512ecc4cf759cc79239f7b179b0ffacaa9a75d522b39400f60208201527fda9101ba92939daf4bb2e18cd5f942363b9297fbc3232c9dd964abb1fb70ed71918101919091527fc89efdaa54c0f20c7adf612882df0950f5a951637e0307cdcb4c672f298b8bc660608201524660808201523060a082015260c00160408051808303601f19018152919052805160209091012060a052600380546001600160a01b03199081166001600160a01b0397881617909155600480548216958716959095179094556005805485169386169390931790925560601b6001600160601b03191660805260028054909216921691909117905562000229565b600180546001600160a01b038381166001600160a01b0319831681179093556040519116919082907f8be0079c531659141344cd1fd0a4f28419497f9722a3daafe3b4186f6b6457e090600090a35050565b80516001600160a01b0381168114620001b457600080fd5b919050565b600080600080600060a08688031215620001d257600080fd5b620001dd866200019c565b9450620001ed602087016200019c565b9350620001fd604087016200019c565b92506200020d606087016200019c565b91506200021d608087016200019c565b90509295509295909350565b60805160601c60a051612b776200028360003960006102010152600081816103a301528181610d2a01528181610e1a01528181610e9c01528181611c1b01528181611d0e01528181611d790152611e380152612b776000f3fe6080604052600436106101355760003560e01c8063715018a6116100ab578063b4e4b2961161006f578063b4e4b296146103c5578063c5498769146103d8578063cbd2ec65146103f8578063d4ff41dc14610418578063f2fde38b14610438578063f75ff53f1461045857600080fd5b8063715018a61461031e57806387e4401f146103335780638da5cb5b146103535780639e53a69a14610371578063ad5c46481461039157600080fd5b80633b6d032e116100fd5780633b6d032e146102515780634266581e14610271578063483abb9f1461029e5780635ce052d7146102be5780635e14f68e146102de57806364df049e146102fe57600080fd5b80630f747d741461013a5780631df47f801461017757806331e27e27146101995780633644e515146101ef57806338e2920914610231575b600080fd5b34801561014657600080fd5b5060035461015a906001600160a01b031681565b6040516001600160a01b0390911681526020015b60405180910390f35b34801561018357600080fd5b50610197610192366004612240565b610478565b005b3480156101a557600080fd5b506101df6101b436600461227a565b6001600160a01b03919091166000908152600860209081526040808320938352929052205460ff1690565b604051901515815260200161016e565b3480156101fb57600080fd5b506102237f000000000000000000000000000000000000000000000000000000000000000081565b60405190815260200161016e565b34801561023d57600080fd5b5061019761024c3660046123ba565b6104ca565b34801561025d57600080fd5b5061019761026c3660046123ba565b610811565b34801561027d57600080fd5b5061022361028c366004612240565b60076020526000908152604090205481565b3480156102aa57600080fd5b5060045461015a906001600160a01b031681565b3480156102ca57600080fd5b506101976102d9366004612240565b610ae3565b3480156102ea57600080fd5b5060065461015a906001600160a01b031681565b34801561030a57600080fd5b5060025461015a906001600160a01b031681565b34801561032a57600080fd5b50610197610b5b565b34801561033f57600080fd5b5060055461015a906001600160a01b031681565b34801561035f57600080fd5b506001546001600160a01b031661015a565b34801561037d57600080fd5b5061019761038c3660046122d4565b610b6f565b34801561039d57600080fd5b5061015a7f000000000000000000000000000000000000000000000000000000000000000081565b6101976103d33660046123ba565b610cb9565b3480156103e457600080fd5b506101976103f3366004612240565b611071565b34801561040457600080fd5b5061019761041336600461242e565b6110e9565b34801561042457600080fd5b50610197610433366004612240565b6111db565b34801561044457600080fd5b50610197610453366004612240565b611253565b34801561046457600080fd5b50610197610473366004612240565b6112cc565b610480611344565b600280546001600160a01b0319166001600160a01b0383169081179091556040517f8cffb07faa2874440346743bdc0a86b06c3335cc47dc49b327d10e77b73ceb1090600090a250565b600260005414156104f65760405162461bcd60e51b81526004016104ed90612641565b60405180910390fd5b60026000556105086020820182612349565b801561051e575061051c6020830183612349565b155b61053a5760405162461bcd60e51b81526004016104ed906125a7565b61054a6040830160208401612240565b6001600160a01b0316336001600160a01b03161461057a5760405162461bcd60e51b81526004016104ed90612678565b600061058d61058883612984565b61139e565b90506105998282611445565b600080806105ad60e0860160c08701612240565b6001600160a01b031663865781ca87876040518363ffffffff1660e01b81526004016105da9291906126f5565b60606040518083038186803b1580156105f257600080fd5b505afa158015610606573d6000803e3d6000fd5b505050506040513d601f19601f8201168201806040525081019061062a9190612383565b9250925092508261064d5760405162461bcd60e51b81526004016104ed9061260a565b6001600860006106636040890160208a01612240565b6001600160a01b03168152602080820192909252604090810160009081206101008a013582529092529020805460ff19169115159190911790556106f36106b060e0870160c08801612240565b6106c06060880160408901612240565b846106d26101008a0160e08b01612240565b336106e360408c0160208d01612240565b8c604001358c610160013561179c565b61072d6107066060870160408801612240565b6107166040880160208901612240565b61072660408a0160208b01612240565b85856119ae565b61073d60e0860160c08701612240565b6001600160a01b03166107566040870160208801612240565b6001600160a01b031661076f6040890160208a01612240565b6001600160a01b03167f95fb6205e23ff6bda16a2d1dba56b9ad7c783f67c96fa149785052f47696f2be876101008a018035906107af9060e08d01612240565b6107bf60608d0160408e01612240565b6040805194855260208501939093526001600160a01b03918216848401521660608301526080820188905260a082018790528b013560c082015260e00160405180910390a45050600160005550505050565b600260005414156108345760405162461bcd60e51b81526004016104ed90612641565b60026000556108466020820182612349565b15801561085b575061085b6020830183612349565b6108775760405162461bcd60e51b81526004016104ed906125a7565b6108876040830160208401612240565b6001600160a01b0316336001600160a01b0316146108b75760405162461bcd60e51b81526004016104ed90612678565b60006108c561058883612984565b90506108d18282611445565b600080806108e560e0860160c08701612240565b6001600160a01b031663ad2390ac87876040518363ffffffff1660e01b81526004016109129291906126f5565b60606040518083038186803b15801561092a57600080fd5b505afa15801561093e573d6000803e3d6000fd5b505050506040513d601f19601f820116820180604052508101906109629190612383565b925092509250826109855760405162461bcd60e51b81526004016104ed9061260a565b60016008600061099b6040890160208a01612240565b6001600160a01b03168152602080820192909252604090810160009081206101008a0135825290925290819020805460ff1916921515929092179091556109fd906109ec9060608801908801612240565b336107266040890160208a01612240565b610a61610a1060e0870160c08801612240565b610a206060880160408901612240565b84610a326101008a0160e08b01612240565b610a4260408b0160208c01612240565b610a5260408d0160208e01612240565b8c604001358d6080013561179c565b610a7160e0860160c08701612240565b6001600160a01b0316610a8a6040870160208801612240565b6001600160a01b0316610aa36040890160208a01612240565b6001600160a01b03167f68cd251d4d267c6e2034ff0088b990352b97b2002c0476587d0c4da889c11330876101008a018035906107af9060e08d01612240565b610aeb611344565b6001600160a01b038116610b115760405162461bcd60e51b81526004016104ed906125d3565b600380546001600160a01b0319166001600160a01b0383169081179091556040517fb4f5db40df3aced29e88a4babbc3b46e305e07d34098525d18b1497056e6383890600090a250565b610b63611344565b610b6d6000611b19565b565b80610bbc5760405162461bcd60e51b815260206004820152601760248201527f43616e63656c3a2043616e6e6f7420626520656d70747900000000000000000060448201526064016104ed565b60005b81811015610c715733600090815260076020526040902054838383818110610be957610be9612af2565b905060200201351015610c0e5760405162461bcd60e51b81526004016104ed906126af565b336000908152600860205260408120600191858585818110610c3257610c32612af2565b90506020020135815260200190815260200160002060006101000a81548160ff0219169083151502179055508080610c6990612ac1565b915050610bbf565b50336001600160a01b03167ffa0ae5d80fe3763c880a3839fab0294171a6f730d1f82c4cd5392c6f67b417328383604051610cad9291906124a5565b60405180910390a25050565b60026000541415610cdc5760405162461bcd60e51b81526004016104ed90612641565b6002600055610cee6020820182612349565b8015610d045750610d026020830183612349565b155b610d205760405162461bcd60e51b81526004016104ed906125a7565b6001600160a01b037f000000000000000000000000000000000000000000000000000000000000000016610d5b610100830160e08401612240565b6001600160a01b031614610db15760405162461bcd60e51b815260206004820152601c60248201527f4f726465723a2043757272656e6379206d75737420626520574554480000000060448201526064016104ed565b610dc16040830160208401612240565b6001600160a01b0316336001600160a01b031614610df15760405162461bcd60e51b81526004016104ed90612678565b3482604001351115610e4757610e423330610e1034604087013561296d565b6001600160a01b037f000000000000000000000000000000000000000000000000000000000000000016929190611b6b565b610e9a565b34826040013514610e9a5760405162461bcd60e51b815260206004820152601960248201527f4f726465723a204d73672e76616c756520746f6f20686967680000000000000060448201526064016104ed565b7f00000000000000000000000000000000000000000000000000000000000000006001600160a01b031663d0e30db0346040518263ffffffff1660e01b81526004016000604051808303818588803b158015610ef557600080fd5b505af1158015610f09573d6000803e3d6000fd5b50505050506000610f1d8261058890612984565b9050610f298282611445565b60008080610f3d60e0860160c08701612240565b6001600160a01b031663865781ca87876040518363ffffffff1660e01b8152600401610f6a9291906126f5565b60606040518083038186803b158015610f8257600080fd5b505afa158015610f96573d6000803e3d6000fd5b505050506040513d601f19601f82011682018060405250810190610fba9190612383565b92509250925082610fdd5760405162461bcd60e51b81526004016104ed9061260a565b600160086000610ff36040890160208a01612240565b6001600160a01b03168152602080820192909252604090810160009081206101008a013582529092529020805460ff19169115159190911790556106f361104060e0870160c08801612240565b6110506060880160408901612240565b8461106160408a0160208b01612240565b8a604001358a6101600135611bdc565b611079611344565b6001600160a01b03811661109f5760405162461bcd60e51b81526004016104ed906125d3565b600580546001600160a01b0319166001600160a01b0383169081179091556040517f80e3874461ebbd918ac3e81da0a92e5e51387d70f337237c9123e48d20e5a50890600090a250565b3360009081526007602052604090205481116111175760405162461bcd60e51b81526004016104ed906126af565b33600090815260076020526040902054611134906207a120612914565b811061118c5760405162461bcd60e51b815260206004820152602160248201527f43616e63656c3a2043616e6e6f742063616e63656c206d6f7265206f726465726044820152607360f81b60648201526084016104ed565b3360008181526007602052604090819020839055517f1e7178d84f0b0825c65795cd62e7972809ad3aac6917843aaec596161b2c0a97906111d09084815260200190565b60405180910390a250565b6111e3611344565b6001600160a01b0381166112095760405162461bcd60e51b81526004016104ed906125d3565b600480546001600160a01b0319166001600160a01b0383169081179091556040517f36e2a376eabc3bc60cb88f29c288f53e36874a95a7f407330ab4f166b090569890600090a250565b61125b611344565b6001600160a01b0381166112c05760405162461bcd60e51b815260206004820152602660248201527f4f776e61626c653a206e6577206f776e657220697320746865207a65726f206160448201526564647265737360d01b60648201526084016104ed565b6112c981611b19565b50565b6112d4611344565b6001600160a01b0381166112fa5760405162461bcd60e51b81526004016104ed906125d3565b600680546001600160a01b0319166001600160a01b0383169081179091556040517f205d78ab41afe80bd6b6aaa5d7599d5300ff8690da3ab1302c1b552f7baf7d8c90600090a250565b6001546001600160a01b03163314610b6d5760405162461bcd60e51b815260206004820181905260248201527f4f776e61626c653a2063616c6c6572206973206e6f7420746865206f776e657260448201526064016104ed565b80516020808301516040808501516060860151608087015160a088015160c089015160e08a01516101008b01516101208c01516101408d01516101608e01516101808f01518051908e01209a5160009e6114289e7f40261ade532fa1d2c7293df30aaadb9b3c616fae525a0b56d3d411c841a850289e919d919c9b9a9998979695949392016124e1565b604051602081830303815290604052805190602001209050919050565b600860006114596040850160208601612240565b6001600160a01b0316815260208082019290925260409081016000908120610100860135825290925290205460ff161580156114ce5750600760006114a46040850160208601612240565b6001600160a01b03166001600160a01b031681526020019081526020016000205482610100013510155b61151a5760405162461bcd60e51b815260206004820152601d60248201527f4f726465723a204d61746368696e67206f72646572206578706972656400000060448201526064016104ed565b600061152c6040840160208501612240565b6001600160a01b0316141561157b5760405162461bcd60e51b815260206004820152601560248201527427b93232b91d1024b73b30b634b21039b4b3b732b960591b60448201526064016104ed565b60008260a00135116115cf5760405162461bcd60e51b815260206004820152601960248201527f4f726465723a20416d6f756e742063616e6e6f7420626520300000000000000060448201526064016104ed565b6003546001600160a01b03166343b938c56115f1610100850160e08601612240565b6040516001600160e01b031960e084901b1681526001600160a01b03909116600482015260240160206040518083038186803b15801561163057600080fd5b505afa158015611644573d6000803e3d6000fd5b505050506040513d601f19601f820116820180604052508101906116689190612366565b6116b45760405162461bcd60e51b815260206004820152601960248201527f43757272656e63793a204e6f742077686974656c69737465640000000000000060448201526064016104ed565b6004546001600160a01b031663999ba27c6116d560e0850160c08601612240565b6040516001600160e01b031960e084901b1681526001600160a01b03909116600482015260240160206040518083038186803b15801561171457600080fd5b505afa158015611728573d6000803e3d6000fd5b505050506040513d601f19601f8201168201806040525081019061174c9190612366565b6117985760405162461bcd60e51b815260206004820152601960248201527f53747261746567793a204e6f742077686974656c69737465640000000000000060448201526064016104ed565b5050565b8160006117a98a83611e68565b6002549091506001600160a01b0316158015906117c557508015155b156117f3576002546117e6906001600160a01b038981169189911684611b6b565b6117f0818361296d565b91505b50600554604051637a7b1afd60e11b81526001600160a01b038a81166004830152602482018a905260448201869052600092839291169063f4f635fa90606401604080518083038186803b15801561184a57600080fd5b505afa15801561185e573d6000803e3d6000fd5b505050506040513d601f19601f8201168201806040525081019061188291906122a6565b90925090506001600160a01b0382161580159061189e57508015155b15611927576118b86001600160a01b038916888484611b6b565b6118c2818461296d565b9250816001600160a01b0316898b6001600160a01b03167f27c4f0403323142b599832f26acd21c74a9e5b809f2215726e244a4ac588cd7d8b8560405161191e9291906001600160a01b03929092168252602082015260400190565b60405180910390a45b506119349050838361294e565b6119408261271061294e565b101561198e5760405162461bcd60e51b815260206004820152601a60248201527f466565733a20486967686572207468616e20657870656374656400000000000060448201526064016104ed565b6119a36001600160a01b038716868684611b6b565b505050505050505050565b60065460405163cc15949360e01b81526001600160a01b038781166004830152600092169063cc1594939060240160206040518083038186803b1580156119f457600080fd5b505afa158015611a08573d6000803e3d6000fd5b505050506040513d601f19601f82011682018060405250810190611a2c919061225d565b90506001600160a01b038116611a985760405162461bcd60e51b815260206004820152602b60248201527f5472616e736665723a204e6f204e4654207472616e73666572206d616e61676560448201526a7220617661696c61626c6560a81b60648201526084016104ed565b6040516333f2fa9f60e01b81526001600160a01b0387811660048301528681166024830152858116604483015260648201859052608482018490528216906333f2fa9f9060a401600060405180830381600087803b158015611af957600080fd5b505af1158015611b0d573d6000803e3d6000fd5b50505050505050505050565b600180546001600160a01b038381166001600160a01b0319831681179093556040519116919082907f8be0079c531659141344cd1fd0a4f28419497f9722a3daafe3b4186f6b6457e090600090a35050565b6040516001600160a01b0380851660248301528316604482015260648101829052611bd69085906323b872dd60e01b906084015b60408051601f198184030181529190526020810180516001600160e01b03166001600160e01b031990931692909217909152611efd565b50505050565b816000611be98883611e68565b6002549091506001600160a01b031615801590611c0557508015155b15611c5157600254611c44906001600160a01b037f00000000000000000000000000000000000000000000000000000000000000008116911683611fd4565b611c4e818361296d565b91505b50600554604051637a7b1afd60e11b81526001600160a01b0388811660048301526024820188905260448201869052600092839291169063f4f635fa90606401604080518083038186803b158015611ca857600080fd5b505afa158015611cbc573d6000803e3d6000fd5b505050506040513d601f19601f82011682018060405250810190611ce091906122a6565b90925090506001600160a01b03821615801590611cfc57508015155b15611dc457611d356001600160a01b037f0000000000000000000000000000000000000000000000000000000000000000168383611fd4565b611d3f818461296d565b9250816001600160a01b031687896001600160a01b03167f27c4f0403323142b599832f26acd21c74a9e5b809f2215726e244a4ac588cd7d7f000000000000000000000000000000000000000000000000000000000000000085604051611dbb9291906001600160a01b03929092168252602082015260400190565b60405180910390a45b50611dd19050838361294e565b611ddd8261271061294e565b1015611e2b5760405162461bcd60e51b815260206004820152601a60248201527f466565733a20486967686572207468616e20657870656374656400000000000060448201526064016104ed565b611e5f6001600160a01b037f0000000000000000000000000000000000000000000000000000000000000000168583611fd4565b50505050505050565b600080836001600160a01b0316639dd1cda66040518163ffffffff1660e01b815260040160206040518083038186803b158015611ea457600080fd5b505afa158015611eb8573d6000803e3d6000fd5b505050506040513d601f19601f82011682018060405250810190611edc9190612447565b9050612710611eeb848361294e565b611ef5919061292c565b949350505050565b6000611f52826040518060400160405280602081526020017f5361666545524332303a206c6f772d6c6576656c2063616c6c206661696c6564815250856001600160a01b03166120049092919063ffffffff16565b805190915015611fcf5780806020019051810190611f709190612366565b611fcf5760405162461bcd60e51b815260206004820152602a60248201527f5361666545524332303a204552433230206f7065726174696f6e20646964206e6044820152691bdd081cdd58d8d9595960b21b60648201526084016104ed565b505050565b6040516001600160a01b038316602482015260448101829052611fcf90849063a9059cbb60e01b90606401611b9f565b6060612013848460008561201d565b90505b9392505050565b60608247101561207e5760405162461bcd60e51b815260206004820152602660248201527f416464726573733a20696e73756666696369656e742062616c616e636520666f6044820152651c8818d85b1b60d21b60648201526084016104ed565b6001600160a01b0385163b6120d55760405162461bcd60e51b815260206004820152601d60248201527f416464726573733a2063616c6c20746f206e6f6e2d636f6e747261637400000060448201526064016104ed565b600080866001600160a01b031685876040516120f19190612489565b60006040518083038185875af1925050503d806000811461212e576040519150601f19603f3d011682016040523d82523d6000602084013e612133565b606091505b509150915061214382828661214e565b979650505050505050565b6060831561215d575081612016565b82511561216d5782518084602001fd5b8160405162461bcd60e51b81526004016104ed9190612574565b803561219281612b1e565b919050565b803561219281612b33565b600082601f8301126121b357600080fd5b813567ffffffffffffffff808211156121ce576121ce612b08565b604051601f8301601f19908116603f011681019082821181831017156121f6576121f6612b08565b8160405283815286602085880101111561220f57600080fd5b836020870160208301376000602085830101528094505050505092915050565b803560ff8116811461219257600080fd5b60006020828403121561225257600080fd5b813561201681612b1e565b60006020828403121561226f57600080fd5b815161201681612b1e565b6000806040838503121561228d57600080fd5b823561229881612b1e565b946020939093013593505050565b600080604083850312156122b957600080fd5b82516122c481612b1e565b6020939093015192949293505050565b600080602083850312156122e757600080fd5b823567ffffffffffffffff808211156122ff57600080fd5b818501915085601f83011261231357600080fd5b81358181111561232257600080fd5b8660208260051b850101111561233757600080fd5b60209290920196919550909350505050565b60006020828403121561235b57600080fd5b813561201681612b33565b60006020828403121561237857600080fd5b815161201681612b33565b60008060006060848603121561239857600080fd5b83516123a381612b33565b602085015160409095015190969495509392505050565b600080604083850312156123cd57600080fd5b823567ffffffffffffffff808211156123e557600080fd5b9084019060c082870312156123f957600080fd5b9092506020840135908082111561240f57600080fd5b508301610200818603121561242357600080fd5b809150509250929050565b60006020828403121561244057600080fd5b5035919050565b60006020828403121561245957600080fd5b5051919050565b81835281816020850137506000828201602090810191909152601f909101601f19169091010190565b6000825161249b818460208701612a95565b9190910192915050565b6020808252810182905260006001600160fb1b038311156124c557600080fd5b8260051b80856040850137600092016040019182525092915050565b8e81528d151560208201526001600160a01b038d811660408301528c1660608201526101c081018b60808301528a60a08301528960c083015261252f60e083018a6001600160a01b03169052565b6001600160a01b0388166101008301526101208201969096526101408101949094526101608401929092526101808301526101a0909101529998505050505050505050565b6020815260008251806020840152612593816040850160208701612a95565b601f01601f19169190910160400192915050565b6020808252601290820152714f726465723a2057726f6e6720736964657360701b604082015260600190565b6020808252601d908201527f4f776e65723a2043616e6e6f74206265206e756c6c2061646472657373000000604082015260600190565b6020808252601b908201527f53747261746567793a20457865637574696f6e20696e76616c69640000000000604082015260600190565b6020808252601f908201527f5265656e7472616e637947756172643a207265656e7472616e742063616c6c00604082015260600190565b6020808252601f908201527f4f726465723a2054616b6572206d757374206265207468652073656e64657200604082015260600190565b60208082526026908201527f43616e63656c3a204f72646572206e6f6e6365206c6f776572207468616e20636040820152651d5c9c995b9d60d21b606082015260800190565b604081526000610100843561270981612b33565b15156040840152602085013561271e81612b1e565b60018060a01b03811660608501525060408501356080840152606085013560a0840152608085013560c084015261275860a08601866128c7565b60c060e086015261276c8386018284612460565b915050838103602085015261020061278d8261278788612197565b15159052565b61279960208701612187565b6001600160a01b031660208301526127b360408701612187565b6001600160a01b038116604084015250606086013560608301526080860135608083015260a086013560a08301526127ed60c08701612187565b6001600160a01b031660c083015261280760e08701612187565b6001600160a01b031660e0830152828601359282019290925261012080860135908201526101408086013590820152610160808601359082015261018091612851838701876128c7565b82858501526128638385018284612460565b94505050506101a061287681870161222f565b60ff16908201526101c085810135908201526101e094850135940193909352509092915050565b604051610200810167ffffffffffffffff811182821017156128c1576128c1612b08565b60405290565b6000808335601e198436030181126128de57600080fd5b830160208101925035905067ffffffffffffffff8111156128fe57600080fd5b80360383131561290d57600080fd5b9250929050565b6000821982111561292757612927612adc565b500190565b60008261294957634e487b7160e01b600052601260045260246000fd5b500490565b600081600019048311821515161561296857612968612adc565b500290565b60008282101561297f5761297f612adc565b500390565b6000610200823603121561299757600080fd5b61299f61289d565b6129a883612197565b81526129b660208401612187565b60208201526129c760408401612187565b6040820152606083013560608201526080830135608082015260a083013560a08201526129f660c08401612187565b60c0820152612a0760e08401612187565b60e082015261010083810135908201526101208084013590820152610140808401359082015261016080840135908201526101808084013567ffffffffffffffff811115612a5457600080fd5b612a60368287016121a2565b8284015250506101a0612a7481850161222f565b908201526101c083810135908201526101e092830135928101929092525090565b60005b83811015612ab0578181015183820152602001612a98565b83811115611bd65750506000910152565b6000600019821415612ad557612ad5612adc565b5060010190565b634e487b7160e01b600052601160045260246000fd5b634e487b7160e01b600052603260045260246000fd5b634e487b7160e01b600052604160045260246000fd5b6001600160a01b03811681146112c957600080fd5b80151581146112c957600080fdfea2646970667358221220cb71b62fb5a9a03b78d2e1811f7c649aa7c93623ae97df85357b23d34300f31c64736f6c63430008070033",
  "immutableReferences": {
    "1936": [
      {
        "length": 32,
        "start": 931
      },
      {
        "length": 32,
        "start": 3370
      },
      {
        "length": 32,
        "start": 3610
      },
      {
        "length": 32,
        "start": 3740
      },
      {
        "length": 32,
        "start": 7195
      },
      {
        "length": 32,
        "start": 7438
      },
      {
        "length": 32,
        "start": 7545
      },
      {
        "length": 32,
        "start": 7736
      }
    ],
    "1938": [
      {
        "length": 32,
        "start": 513
      }
    ]
  },
  "source": "// SPDX-License-Identifier: MIT\npragma solidity ^0.8.0;\n\n// OpenZeppelin contracts\nimport {Ownable} from \"@openzeppelin/contracts/access/Ownable.sol\";\nimport {ReentrancyGuard} from \"@openzeppelin/contracts/security/ReentrancyGuard.sol\";\nimport {IERC20, SafeERC20} from \"@openzeppelin/contracts/token/ERC20/utils/SafeERC20.sol\";\n\n// LooksRare interfaces\nimport {ICurrencyManager} from \"./interfaces/ICurrencyManager.sol\";\nimport {IExecutionManager} from \"./interfaces/IExecutionManager.sol\";\nimport {IExecutionStrategy} from \"./interfaces/IExecutionStrategy.sol\";\nimport {IRoyaltyFeeManager} from \"./interfaces/IRoyaltyFeeManager.sol\";\nimport {ILooksRareExchange} from \"./interfaces/ILooksRareExchange.sol\";\nimport {ITransferManagerNFT} from \"./interfaces/ITransferManagerNFT.sol\";\nimport {ITransferSelectorNFT} from \"./interfaces/ITransferSelectorNFT.sol\";\nimport {IWETH} from \"./interfaces/IWETH.sol\";\n\n// LooksRare libraries\nimport {OrderTypes} from \"./libraries/OrderTypes.sol\";\nimport {SignatureChecker} from \"./libraries/SignatureChecker.sol\";\n\n/**\n * @title LooksRareExchange\n * @notice It is the core contract of the LooksRare exchange.\nLOOKSRARELOOKSRARELOOKSRLOOKSRARELOOKSRARELOOKSRARELOOKSRARELOOKSRLOOKSRARELOOKSRARELOOKSR\nLOOKSRARELOOKSRARELOOKSRAR'''''''''''''''''''''''''''''''''''OOKSRLOOKSRARELOOKSRARELOOKSR\nLOOKSRARELOOKSRARELOOKS:.                                        .;OOKSRARELOOKSRARELOOKSR\nLOOKSRARELOOKSRARELOO,.                                            .,KSRARELOOKSRARELOOKSR\nLOOKSRARELOOKSRAREL'                ..',;:LOOKS::;,'..                'RARELOOKSRARELOOKSR\nLOOKSRARELOOKSRAR.              .,:LOOKSRARELOOKSRARELO:,.              .RELOOKSRARELOOKSR\nLOOKSRARELOOKS:.             .;RARELOOKSRARELOOKSRARELOOKSl;.             .:OOKSRARELOOKSR\nLOOKSRARELOO;.            .'OKSRARELOOKSRARELOOKSRARELOOKSRARE'.            .;KSRARELOOKSR\nLOOKSRAREL,.            .,LOOKSRARELOOK:;;:\"\"\"\":;;;lELOOKSRARELO,.            .,RARELOOKSR\nLOOKSRAR.             .;okLOOKSRAREx:.              .;OOKSRARELOOK;.             .RELOOKSR\nLOOKS:.             .:dOOOLOOKSRARE'      .''''..     .OKSRARELOOKSR:.             .LOOKSR\nLOx;.             .cKSRARELOOKSRAR'     'LOOKSRAR'     .KSRARELOOKSRARc..            .OKSR\nL;.             .cxOKSRARELOOKSRAR.    .LOOKS.RARE'     ;kRARELOOKSRARExc.             .;R\nLO'             .;oOKSRARELOOKSRAl.    .LOOKS.RARE.     :kRARELOOKSRAREo;.             'SR\nLOOK;.            .,KSRARELOOKSRAx,     .;LOOKSR;.     .oSRARELOOKSRAo,.            .;OKSR\nLOOKSk:.            .'RARELOOKSRARd;.      ....       'oOOOOOOOOOOxc'.            .:LOOKSR\nLOOKSRARc.             .:dLOOKSRAREko;.            .,lxOOOOOOOOOd:.             .ARELOOKSR\nLOOKSRARELo'             .;oOKSRARELOOxoc;,....,;:ldkOOOOOOOOkd;.             'SRARELOOKSR\nLOOKSRARELOOd,.            .,lSRARELOOKSRARELOOKSRARELOOKSRkl,.            .,OKSRARELOOKSR\nLOOKSRARELOOKSx;.            ..;oxELOOKSRARELOOKSRARELOkxl:..            .:LOOKSRARELOOKSR\nLOOKSRARELOOKSRARc.              .':cOKSRARELOOKSRALOc;'.              .ARELOOKSRARELOOKSR\nLOOKSRARELOOKSRARELl'                 ...'',,,,''...                 'SRARELOOKSRARELOOKSR\nLOOKSRARELOOKSRARELOOo,.                                          .,OKSRARELOOKSRARELOOKSR\nLOOKSRARELOOKSRARELOOKSx;.                                      .;xOOKSRARELOOKSRARELOOKSR\nLOOKSRARELOOKSRARELOOKSRLO:.                                  .:SRLOOKSRARELOOKSRARELOOKSR\nLOOKSRARELOOKSRARELOOKSRLOOKl.                              .lOKSRLOOKSRARELOOKSRARELOOKSR\nLOOKSRARELOOKSRARELOOKSRLOOKSRo'.                        .'oLOOKSRLOOKSRARELOOKSRARELOOKSR\nLOOKSRARELOOKSRARELOOKSRLOOKSRARd;.                    .;xRELOOKSRLOOKSRARELOOKSRARELOOKSR\nLOOKSRARELOOKSRARELOOKSRLOOKSRARELO:.                .:kRARELOOKSRLOOKSRARELOOKSRARELOOKSR\nLOOKSRARELOOKSRARELOOKSRLOOKSRARELOOKl.            .cOKSRARELOOKSRLOOKSRARELOOKSRARELOOKSR\nLOOKSRARELOOKSRARELOOKSRLOOKSRARELOOKSRo'        'oLOOKSRARELOOKSRLOOKSRARELOOKSRARELOOKSR\nLOOKSRARELOOKSRARELOOKSRLOOKSRARELOOKSRARE,.  .,dRELOOKSRARELOOKSRLOOKSRARELOOKSRARELOOKSR\nLOOKSRARELOOKSRARELOOKSRLOOKSRARELOOKSRARELOOKSRARELOOKSRARELOOKSRLOOKSRARELOOKSRARELOOKSR\n */\ncontract LooksRareExchange is ILooksRareExchange, ReentrancyGuard, Ownable {\n    using SafeERC20 for IERC20;\n\n    using OrderTypes for OrderTypes.MakerOrder;\n    using OrderTypes for OrderTypes.TakerOrder;\n\n    address public immutable WETH;\n    bytes32 public immutable DOMAIN_SEPARATOR;\n\n    address public protocolFeeRecipient;\n\n    ICurrencyManager public currencyManager;\n    IExecutionManager public executionManager;\n    IRoyaltyFeeManager public royaltyFeeManager;\n    ITransferSelectorNFT public transferSelectorNFT;\n\n    mapping(address => uint256) public userMinOrderNonce;\n    mapping(address => mapping(uint256 => bool)) private _isUserOrderNonceExecutedOrCancelled;\n\n    event CancelAllOrders(address indexed user, uint256 newMinNonce);\n    event CancelMultipleOrders(address indexed user, uint256[] orderNonces);\n    event NewCurrencyManager(address indexed currencyManager);\n    event NewExecutionManager(address indexed executionManager);\n    event NewProtocolFeeRecipient(address indexed protocolFeeRecipient);\n    event NewRoyaltyFeeManager(address indexed royaltyFeeManager);\n    event NewTransferSelectorNFT(address indexed transferSelectorNFT);\n\n    event RoyaltyPayment(\n        address indexed collection,\n        uint256 indexed tokenId,\n        address indexed royaltyRecipient,\n        address currency,\n        uint256 amount\n    );\n\n    event TakerAsk(\n        bytes32 orderHash, // bid hash of the maker order\n        uint256 orderNonce, // user order nonce\n        address indexed taker, // sender address for the taker ask order\n        address indexed maker, // maker address of the initial bid order\n        address indexed strategy, // strategy that defines the execution\n        address currency, // currency address\n        address collection, // collection address\n        uint256 tokenId, // tokenId transferred\n        uint256 amount, // amount of tokens transferred\n        uint256 price // final transacted price\n    );\n\n    event TakerBid(\n        bytes32 orderHash, // ask hash of the maker order\n        uint256 orderNonce, // user order nonce\n        address indexed taker, // sender address for the taker bid order\n        address indexed maker, // maker address of the initial ask order\n        address indexed strategy, // strategy that defines the execution\n        address currency, // currency address\n        address collection, // collection address\n        uint256 tokenId, // tokenId transferred\n        uint256 amount, // amount of tokens transferred\n        uint256 price // final transacted price\n    );\n\n    /**\n     * @notice Constructor\n     * @param _currencyManager currency manager address\n     * @param _executionManager execution manager address\n     * @param _royaltyFeeManager royalty fee manager address\n     * @param _WETH wrapped ether address (for other chains, use wrapped native asset)\n     * @param _protocolFeeRecipient protocol fee recipient\n     */\n    constructor(\n        address _currencyManager,\n        address _executionManager,\n        address _royaltyFeeManager,\n        address _WETH,\n        address _protocolFeeRecipient\n    ) {\n        // Calculate the domain separator\n        DOMAIN_SEPARATOR = keccak256(\n            abi.encode(\n                0x8b73c3c69bb8fe3d512ecc4cf759cc79239f7b179b0ffacaa9a75d522b39400f, // keccak256(\"EIP712Domain(string name,string version,uint256 chainId,address verifyingContract)\")\n                0xda9101ba92939daf4bb2e18cd5f942363b9297fbc3232c9dd964abb1fb70ed71, // keccak256(\"LooksRareExchange\")\n                0xc89efdaa54c0f20c7adf612882df0950f5a951637e0307cdcb4c672f298b8bc6, // keccak256(bytes(\"1\")) for versionId = 1\n                block.chainid,\n                address(this)\n            )\n        );\n\n        currencyManager = ICurrencyManager(_currencyManager);\n        executionManager = IExecutionManager(_executionManager);\n        royaltyFeeManager = IRoyaltyFeeManager(_royaltyFeeManager);\n        WETH = _WETH;\n        protocolFeeRecipient = _protocolFeeRecipient;\n    }\n\n    /**\n     * @notice Cancel all pending orders for a sender\n     * @param minNonce minimum user nonce\n     */\n    function cancelAllOrdersForSender(uint256 minNonce) external {\n        require(minNonce > userMinOrderNonce[msg.sender], \"Cancel: Order nonce lower than current\");\n        require(minNonce < userMinOrderNonce[msg.sender] + 500000, \"Cancel: Cannot cancel more orders\");\n        userMinOrderNonce[msg.sender] = minNonce;\n\n        emit CancelAllOrders(msg.sender, minNonce);\n    }\n\n    /**\n     * @notice Cancel maker orders\n     * @param orderNonces array of order nonces\n     */\n    function cancelMultipleMakerOrders(uint256[] calldata orderNonces) external {\n        require(orderNonces.length > 0, \"Cancel: Cannot be empty\");\n\n        for (uint256 i = 0; i < orderNonces.length; i++) {\n            require(orderNonces[i] >= userMinOrderNonce[msg.sender], \"Cancel: Order nonce lower than current\");\n            _isUserOrderNonceExecutedOrCancelled[msg.sender][orderNonces[i]] = true;\n        }\n\n        emit CancelMultipleOrders(msg.sender, orderNonces);\n    }\n\n    /**\n     * @notice Match ask with a taker bid order using ETH\n     * @param takerBid taker bid order\n     * @param makerAsk maker ask order\n     */\n    function matchAskWithTakerBidUsingETHAndWETH(\n        OrderTypes.TakerOrder calldata takerBid,\n        OrderTypes.MakerOrder calldata makerAsk\n    ) external payable override nonReentrant {\n        require((makerAsk.isOrderAsk) && (!takerBid.isOrderAsk), \"Order: Wrong sides\");\n        require(makerAsk.currency == WETH, \"Order: Currency must be WETH\");\n        require(msg.sender == takerBid.taker, \"Order: Taker must be the sender\");\n\n        // If not enough ETH to cover the price, use WETH\n        if (takerBid.price > msg.value) {\n            IERC20(WETH).safeTransferFrom(msg.sender, address(this), (takerBid.price - msg.value));\n        } else {\n            require(takerBid.price == msg.value, \"Order: Msg.value too high\");\n        }\n\n        // Wrap ETH sent to this contract\n        IWETH(WETH).deposit{value: msg.value}();\n\n        // Check the maker ask order\n        bytes32 askHash = makerAsk.hash();\n        _validateOrder(makerAsk, askHash);\n\n        // Retrieve execution parameters\n        (bool isExecutionValid, uint256 tokenId, uint256 amount) = IExecutionStrategy(makerAsk.strategy)\n            .canExecuteTakerBid(takerBid, makerAsk);\n\n        require(isExecutionValid, \"Strategy: Execution invalid\");\n\n        // Update maker ask order status to true (prevents replay)\n        _isUserOrderNonceExecutedOrCancelled[makerAsk.signer][makerAsk.nonce] = true;\n\n        // Execution part 1/2\n        _transferFeesAndFundsWithWETH(\n            makerAsk.strategy,\n            makerAsk.collection,\n            tokenId,\n            makerAsk.signer,\n            takerBid.price,\n            makerAsk.minPercentageToAsk\n        );\n\n        // Execution part 2/2\n        _transferNonFungibleToken(makerAsk.collection, makerAsk.signer, takerBid.taker, tokenId, amount);\n\n        emit TakerBid(\n            askHash,\n            makerAsk.nonce,\n            takerBid.taker,\n            makerAsk.signer,\n            makerAsk.strategy,\n            makerAsk.currency,\n            makerAsk.collection,\n            tokenId,\n            amount,\n            takerBid.price\n        );\n    }\n\n    /**\n     * @notice Match a takerBid with a matchAsk\n     * @param takerBid taker bid order\n     * @param makerAsk maker ask order\n     */\n    function matchAskWithTakerBid(OrderTypes.TakerOrder calldata takerBid, OrderTypes.MakerOrder calldata makerAsk)\n        external\n        override\n        nonReentrant\n    {\n        require((makerAsk.isOrderAsk) && (!takerBid.isOrderAsk), \"Order: Wrong sides\");\n        require(msg.sender == takerBid.taker, \"Order: Taker must be the sender\");\n\n        // Check the maker ask order\n        bytes32 askHash = makerAsk.hash();\n        _validateOrder(makerAsk, askHash);\n\n        (bool isExecutionValid, uint256 tokenId, uint256 amount) = IExecutionStrategy(makerAsk.strategy)\n            .canExecuteTakerBid(takerBid, makerAsk);\n\n        require(isExecutionValid, \"Strategy: Execution invalid\");\n\n        // Update maker ask order status to true (prevents replay)\n        _isUserOrderNonceExecutedOrCancelled[makerAsk.signer][makerAsk.nonce] = true;\n\n        // Execution part 1/2\n        _transferFeesAndFunds(\n            makerAsk.strategy,\n            makerAsk.collection,\n            tokenId,\n            makerAsk.currency,\n            msg.sender,\n            makerAsk.signer,\n            takerBid.price,\n            makerAsk.minPercentageToAsk\n        );\n\n        // Execution part 2/2\n        _transferNonFungibleToken(makerAsk.collection, makerAsk.signer, takerBid.taker, tokenId, amount);\n\n        emit TakerBid(\n            askHash,\n            makerAsk.nonce,\n            takerBid.taker,\n            makerAsk.signer,\n            makerAsk.strategy,\n            makerAsk.currency,\n            makerAsk.collection,\n            tokenId,\n            amount,\n            takerBid.price\n        );\n    }\n\n    /**\n     * @notice Match a takerAsk with a makerBid\n     * @param takerAsk taker ask order\n     * @param makerBid maker bid order\n     */\n    function matchBidWithTakerAsk(OrderTypes.TakerOrder calldata takerAsk, OrderTypes.MakerOrder calldata makerBid)\n        external\n        override\n        nonReentrant\n    {\n        require((!makerBid.isOrderAsk) && (takerAsk.isOrderAsk), \"Order: Wrong sides\");\n        require(msg.sender == takerAsk.taker, \"Order: Taker must be the sender\");\n\n        // Check the maker bid order\n        bytes32 bidHash = makerBid.hash();\n        _validateOrder(makerBid, bidHash);\n\n        (bool isExecutionValid, uint256 tokenId, uint256 amount) = IExecutionStrategy(makerBid.strategy)\n            .canExecuteTakerAsk(takerAsk, makerBid);\n\n        require(isExecutionValid, \"Strategy: Execution invalid\");\n\n        // Update maker bid order status to true (prevents replay)\n        _isUserOrderNonceExecutedOrCancelled[makerBid.signer][makerBid.nonce] = true;\n\n        // Execution part 1/2\n        _transferNonFungibleToken(makerBid.collection, msg.sender, makerBid.signer, tokenId, amount);\n\n        // Execution part 2/2\n        _transferFeesAndFunds(\n            makerBid.strategy,\n            makerBid.collection,\n            tokenId,\n            makerBid.currency,\n            makerBid.signer,\n            takerAsk.taker,\n            takerAsk.price,\n            takerAsk.minPercentageToAsk\n        );\n\n        emit TakerAsk(\n            bidHash,\n            makerBid.nonce,\n            takerAsk.taker,\n            makerBid.signer,\n            makerBid.strategy,\n            makerBid.currency,\n            makerBid.collection,\n            tokenId,\n            amount,\n            takerAsk.price\n        );\n    }\n\n    /**\n     * @notice Update currency manager\n     * @param _currencyManager new currency manager address\n     */\n    function updateCurrencyManager(address _currencyManager) external onlyOwner {\n        require(_currencyManager != address(0), \"Owner: Cannot be null address\");\n        currencyManager = ICurrencyManager(_currencyManager);\n        emit NewCurrencyManager(_currencyManager);\n    }\n\n    /**\n     * @notice Update execution manager\n     * @param _executionManager new execution manager address\n     */\n    function updateExecutionManager(address _executionManager) external onlyOwner {\n        require(_executionManager != address(0), \"Owner: Cannot be null address\");\n        executionManager = IExecutionManager(_executionManager);\n        emit NewExecutionManager(_executionManager);\n    }\n\n    /**\n     * @notice Update protocol fee and recipient\n     * @param _protocolFeeRecipient new recipient for protocol fees\n     */\n    function updateProtocolFeeRecipient(address _protocolFeeRecipient) external onlyOwner {\n        protocolFeeRecipient = _protocolFeeRecipient;\n        emit NewProtocolFeeRecipient(_protocolFeeRecipient);\n    }\n\n    /**\n     * @notice Update royalty fee manager\n     * @param _royaltyFeeManager new fee manager address\n     */\n    function updateRoyaltyFeeManager(address _royaltyFeeManager) external onlyOwner {\n        require(_royaltyFeeManager != address(0), \"Owner: Cannot be null address\");\n        royaltyFeeManager = IRoyaltyFeeManager(_royaltyFeeManager);\n        emit NewRoyaltyFeeManager(_royaltyFeeManager);\n    }\n\n    /**\n     * @notice Update transfer selector NFT\n     * @param _transferSelectorNFT new transfer selector address\n     */\n    function updateTransferSelectorNFT(address _transferSelectorNFT) external onlyOwner {\n        require(_transferSelectorNFT != address(0), \"Owner: Cannot be null address\");\n        transferSelectorNFT = ITransferSelectorNFT(_transferSelectorNFT);\n\n        emit NewTransferSelectorNFT(_transferSelectorNFT);\n    }\n\n    /**\n     * @notice Check whether user order nonce is executed or cancelled\n     * @param user address of user\n     * @param orderNonce nonce of the order\n     */\n    function isUserOrderNonceExecutedOrCancelled(address user, uint256 orderNonce) external view returns (bool) {\n        return _isUserOrderNonceExecutedOrCancelled[user][orderNonce];\n    }\n\n    /**\n     * @notice Transfer fees and funds to royalty recipient, protocol, and seller\n     * @param strategy address of the execution strategy\n     * @param collection non fungible token address for the transfer\n     * @param tokenId tokenId\n     * @param currency currency being used for the purchase (e.g., WETH/USDC)\n     * @param from sender of the funds\n     * @param to seller's recipient\n     * @param amount amount being transferred (in currency)\n     * @param minPercentageToAsk minimum percentage of the gross amount that goes to ask\n     */\n    function _transferFeesAndFunds(\n        address strategy,\n        address collection,\n        uint256 tokenId,\n        address currency,\n        address from,\n        address to,\n        uint256 amount,\n        uint256 minPercentageToAsk\n    ) internal {\n        // Initialize the final amount that is transferred to seller\n        uint256 finalSellerAmount = amount;\n\n        // 1. Protocol fee\n        {\n            uint256 protocolFeeAmount = _calculateProtocolFee(strategy, amount);\n\n            // Check if the protocol fee is different than 0 for this strategy\n            if ((protocolFeeRecipient != address(0)) && (protocolFeeAmount != 0)) {\n                IERC20(currency).safeTransferFrom(from, protocolFeeRecipient, protocolFeeAmount);\n                finalSellerAmount -= protocolFeeAmount;\n            }\n        }\n\n        // 2. Royalty fee\n        {\n            (address royaltyFeeRecipient, uint256 royaltyFeeAmount) = royaltyFeeManager\n                .calculateRoyaltyFeeAndGetRecipient(collection, tokenId, amount);\n\n            // Check if there is a royalty fee and that it is different to 0\n            if ((royaltyFeeRecipient != address(0)) && (royaltyFeeAmount != 0)) {\n                IERC20(currency).safeTransferFrom(from, royaltyFeeRecipient, royaltyFeeAmount);\n                finalSellerAmount -= royaltyFeeAmount;\n\n                emit RoyaltyPayment(collection, tokenId, royaltyFeeRecipient, currency, royaltyFeeAmount);\n            }\n        }\n\n        require((finalSellerAmount * 10000) >= (minPercentageToAsk * amount), \"Fees: Higher than expected\");\n\n        // 3. Transfer final amount (post-fees) to seller\n        {\n            IERC20(currency).safeTransferFrom(from, to, finalSellerAmount);\n        }\n    }\n\n    /**\n     * @notice Transfer fees and funds to royalty recipient, protocol, and seller\n     * @param strategy address of the execution strategy\n     * @param collection non fungible token address for the transfer\n     * @param tokenId tokenId\n     * @param to seller's recipient\n     * @param amount amount being transferred (in currency)\n     * @param minPercentageToAsk minimum percentage of the gross amount that goes to ask\n     */\n    function _transferFeesAndFundsWithWETH(\n        address strategy,\n        address collection,\n        uint256 tokenId,\n        address to,\n        uint256 amount,\n        uint256 minPercentageToAsk\n    ) internal {\n        // Initialize the final amount that is transferred to seller\n        uint256 finalSellerAmount = amount;\n\n        // 1. Protocol fee\n        {\n            uint256 protocolFeeAmount = _calculateProtocolFee(strategy, amount);\n\n            // Check if the protocol fee is different than 0 for this strategy\n            if ((protocolFeeRecipient != address(0)) && (protocolFeeAmount != 0)) {\n                IERC20(WETH).safeTransfer(protocolFeeRecipient, protocolFeeAmount);\n                finalSellerAmount -= protocolFeeAmount;\n            }\n        }\n\n        // 2. Royalty fee\n        {\n            (address royaltyFeeRecipient, uint256 royaltyFeeAmount) = royaltyFeeManager\n                .calculateRoyaltyFeeAndGetRecipient(collection, tokenId, amount);\n\n            // Check if there is a royalty fee and that it is different to 0\n            if ((royaltyFeeRecipient != address(0)) && (royaltyFeeAmount != 0)) {\n                IERC20(WETH).safeTransfer(royaltyFeeRecipient, royaltyFeeAmount);\n                finalSellerAmount -= royaltyFeeAmount;\n\n                emit RoyaltyPayment(collection, tokenId, royaltyFeeRecipient, address(WETH), royaltyFeeAmount);\n            }\n        }\n\n        require((finalSellerAmount * 10000) >= (minPercentageToAsk * amount), \"Fees: Higher than expected\");\n\n        // 3. Transfer final amount (post-fees) to seller\n        {\n            IERC20(WETH).safeTransfer(to, finalSellerAmount);\n        }\n    }\n\n    /**\n     * @notice Transfer NFT\n     * @param collection address of the token collection\n     * @param from address of the sender\n     * @param to address of the recipient\n     * @param tokenId tokenId\n     * @param amount amount of tokens (1 for ERC721, 1+ for ERC1155)\n     * @dev For ERC721, amount is not used\n     */\n    function _transferNonFungibleToken(\n        address collection,\n        address from,\n        address to,\n        uint256 tokenId,\n        uint256 amount\n    ) internal {\n        // Retrieve the transfer manager address\n        address transferManager = transferSelectorNFT.checkTransferManagerForToken(collection);\n\n        // If no transfer manager found, it returns address(0)\n        require(transferManager != address(0), \"Transfer: No NFT transfer manager available\");\n\n        // If one is found, transfer the token\n        ITransferManagerNFT(transferManager).transferNonFungibleToken(collection, from, to, tokenId, amount);\n    }\n\n    /**\n     * @notice Calculate protocol fee for an execution strategy\n     * @param executionStrategy strategy\n     * @param amount amount to transfer\n     */\n    function _calculateProtocolFee(address executionStrategy, uint256 amount) internal view returns (uint256) {\n        uint256 protocolFee = IExecutionStrategy(executionStrategy).viewProtocolFee();\n        return (protocolFee * amount) / 10000;\n    }\n\n    /**\n     * @notice Verify the validity of the maker order\n     * @param makerOrder maker order\n     * @param orderHash computed hash for the order\n     */\n    function _validateOrder(OrderTypes.MakerOrder calldata makerOrder, bytes32 orderHash) internal view {\n        // Verify whether order nonce has expired\n        require(\n            (!_isUserOrderNonceExecutedOrCancelled[makerOrder.signer][makerOrder.nonce]) &&\n                (makerOrder.nonce >= userMinOrderNonce[makerOrder.signer]),\n            \"Order: Matching order expired\"\n        );\n\n        // Verify the signer is not address(0)\n        require(makerOrder.signer != address(0), \"Order: Invalid signer\");\n\n        // Verify the amount is not 0\n        require(makerOrder.amount > 0, \"Order: Amount cannot be 0\");\n        /*\n        // Verify the validity of the signature\n        require(\n            SignatureChecker.verify(\n                orderHash,\n                makerOrder.signer,\n                makerOrder.v,\n                makerOrder.r,\n                makerOrder.s,\n                DOMAIN_SEPARATOR\n            ),\n            \"Signature: Invalid\"\n        );\n        */\n\n        // Verify whether the currency is whitelisted\n        require(currencyManager.isCurrencyWhitelisted(makerOrder.currency), \"Currency: Not whitelisted\");\n\n        // Verify whether strategy can be executed\n        require(executionManager.isStrategyWhitelisted(makerOrder.strategy), \"Strategy: Not whitelisted\");\n    }\n}",
  "sourcePath": "/Users/ds/Documents/rarible/LooksRare/contracts/LooksRareExchange.sol",
  "compiler": {
    "name": "solc",
    "version": "0.8.7+commit.e28d00a7.Emscripten.clang"
  },
  "schemaVersion": "3.4.3",
  "updatedAt": "2022-07-26T09:38:09.334Z",
  "devdoc": {
    "kind": "dev",
    "methods": {
      "cancelAllOrdersForSender(uint256)": {
        "params": {
          "minNonce": "minimum user nonce"
        }
      },
      "cancelMultipleMakerOrders(uint256[])": {
        "params": {
          "orderNonces": "array of order nonces"
        }
      },
      "constructor": {
        "params": {
          "_WETH": "wrapped ether address (for other chains, use wrapped native asset)",
          "_currencyManager": "currency manager address",
          "_executionManager": "execution manager address",
          "_protocolFeeRecipient": "protocol fee recipient",
          "_royaltyFeeManager": "royalty fee manager address"
        }
      },
      "isUserOrderNonceExecutedOrCancelled(address,uint256)": {
        "params": {
          "orderNonce": "nonce of the order",
          "user": "address of user"
        }
      },
      "matchAskWithTakerBid((bool,address,uint256,uint256,uint256,bytes),(bool,address,address,uint256,uint256,uint256,address,address,uint256,uint256,uint256,uint256,bytes,uint8,bytes32,bytes32))": {
        "params": {
          "makerAsk": "maker ask order",
          "takerBid": "taker bid order"
        }
      },
      "matchAskWithTakerBidUsingETHAndWETH((bool,address,uint256,uint256,uint256,bytes),(bool,address,address,uint256,uint256,uint256,address,address,uint256,uint256,uint256,uint256,bytes,uint8,bytes32,bytes32))": {
        "params": {
          "makerAsk": "maker ask order",
          "takerBid": "taker bid order"
        }
      },
      "matchBidWithTakerAsk((bool,address,uint256,uint256,uint256,bytes),(bool,address,address,uint256,uint256,uint256,address,address,uint256,uint256,uint256,uint256,bytes,uint8,bytes32,bytes32))": {
        "params": {
          "makerBid": "maker bid order",
          "takerAsk": "taker ask order"
        }
      },
      "owner()": {
        "details": "Returns the address of the current owner."
      },
      "renounceOwnership()": {
        "details": "Leaves the contract without owner. It will not be possible to call `onlyOwner` functions anymore. Can only be called by the current owner. NOTE: Renouncing ownership will leave the contract without an owner, thereby removing any functionality that is only available to the owner."
      },
      "transferOwnership(address)": {
        "details": "Transfers ownership of the contract to a new account (`newOwner`). Can only be called by the current owner."
      },
      "updateCurrencyManager(address)": {
        "params": {
          "_currencyManager": "new currency manager address"
        }
      },
      "updateExecutionManager(address)": {
        "params": {
          "_executionManager": "new execution manager address"
        }
      },
      "updateProtocolFeeRecipient(address)": {
        "params": {
          "_protocolFeeRecipient": "new recipient for protocol fees"
        }
      },
      "updateRoyaltyFeeManager(address)": {
        "params": {
          "_royaltyFeeManager": "new fee manager address"
        }
      },
      "updateTransferSelectorNFT(address)": {
        "params": {
          "_transferSelectorNFT": "new transfer selector address"
        }
      }
    },
    "title": "LooksRareExchange",
    "version": 1
  },
  "userdoc": {
    "kind": "user",
    "methods": {
      "cancelAllOrdersForSender(uint256)": {
        "notice": "Cancel all pending orders for a sender"
      },
      "cancelMultipleMakerOrders(uint256[])": {
        "notice": "Cancel maker orders"
      },
      "constructor": {
        "notice": "Constructor"
      },
      "isUserOrderNonceExecutedOrCancelled(address,uint256)": {
        "notice": "Check whether user order nonce is executed or cancelled"
      },
      "matchAskWithTakerBid((bool,address,uint256,uint256,uint256,bytes),(bool,address,address,uint256,uint256,uint256,address,address,uint256,uint256,uint256,uint256,bytes,uint8,bytes32,bytes32))": {
        "notice": "Match a takerBid with a matchAsk"
      },
      "matchAskWithTakerBidUsingETHAndWETH((bool,address,uint256,uint256,uint256,bytes),(bool,address,address,uint256,uint256,uint256,address,address,uint256,uint256,uint256,uint256,bytes,uint8,bytes32,bytes32))": {
        "notice": "Match ask with a taker bid order using ETH"
      },
      "matchBidWithTakerAsk((bool,address,uint256,uint256,uint256,bytes),(bool,address,address,uint256,uint256,uint256,address,address,uint256,uint256,uint256,uint256,bytes,uint8,bytes32,bytes32))": {
        "notice": "Match a takerAsk with a makerBid"
      },
      "updateCurrencyManager(address)": {
        "notice": "Update currency manager"
      },
      "updateExecutionManager(address)": {
        "notice": "Update execution manager"
      },
      "updateProtocolFeeRecipient(address)": {
        "notice": "Update protocol fee and recipient"
      },
      "updateRoyaltyFeeManager(address)": {
        "notice": "Update royalty fee manager"
      },
      "updateTransferSelectorNFT(address)": {
        "notice": "Update transfer selector NFT"
      }
    },
    "notice": "It is the core contract of the LooksRare exchange. LOOKSRARELOOKSRARELOOKSRLOOKSRARELOOKSRARELOOKSRARELOOKSRARELOOKSRLOOKSRARELOOKSRARELOOKSR LOOKSRARELOOKSRARELOOKSRAR'''''''''''''''''''''''''''''''''''OOKSRLOOKSRARELOOKSRARELOOKSR LOOKSRARELOOKSRARELOOKS:.                                        .;OOKSRARELOOKSRARELOOKSR LOOKSRARELOOKSRARELOO,.                                            .,KSRARELOOKSRARELOOKSR LOOKSRARELOOKSRAREL'                ..',;:LOOKS::;,'..                'RARELOOKSRARELOOKSR LOOKSRARELOOKSRAR.              .,:LOOKSRARELOOKSRARELO:,.              .RELOOKSRARELOOKSR LOOKSRARELOOKS:.             .;RARELOOKSRARELOOKSRARELOOKSl;.             .:OOKSRARELOOKSR LOOKSRARELOO;.            .'OKSRARELOOKSRARELOOKSRARELOOKSRARE'.            .;KSRARELOOKSR LOOKSRAREL,.            .,LOOKSRARELOOK:;;:\"\"\"\":;;;lELOOKSRARELO,.            .,RARELOOKSR LOOKSRAR.             .;okLOOKSRAREx:.              .;OOKSRARELOOK;.             .RELOOKSR LOOKS:.             .:dOOOLOOKSRARE'      .''''..     .OKSRARELOOKSR:.             .LOOKSR LOx;.             .cKSRARELOOKSRAR'     'LOOKSRAR'     .KSRARELOOKSRARc..            .OKSR L;.             .cxOKSRARELOOKSRAR.    .LOOKS.RARE'     ;kRARELOOKSRARExc.             .;R LO'             .;oOKSRARELOOKSRAl.    .LOOKS.RARE.     :kRARELOOKSRAREo;.             'SR LOOK;.            .,KSRARELOOKSRAx,     .;LOOKSR;.     .oSRARELOOKSRAo,.            .;OKSR LOOKSk:.            .'RARELOOKSRARd;.      ....       'oOOOOOOOOOOxc'.            .:LOOKSR LOOKSRARc.             .:dLOOKSRAREko;.            .,lxOOOOOOOOOd:.             .ARELOOKSR LOOKSRARELo'             .;oOKSRARELOOxoc;,....,;:ldkOOOOOOOOkd;.             'SRARELOOKSR LOOKSRARELOOd,.            .,lSRARELOOKSRARELOOKSRARELOOKSRkl,.            .,OKSRARELOOKSR LOOKSRARELOOKSx;.            ..;oxELOOKSRARELOOKSRARELOkxl:..            .:LOOKSRARELOOKSR LOOKSRARELOOKSRARc.              .':cOKSRARELOOKSRALOc;'.              .ARELOOKSRARELOOKSR LOOKSRARELOOKSRARELl'                 ...'',,,,''...                 'SRARELOOKSRARELOOKSR LOOKSRARELOOKSRARELOOo,.                                          .,OKSRARELOOKSRARELOOKSR LOOKSRARELOOKSRARELOOKSx;.                                      .;xOOKSRARELOOKSRARELOOKSR LOOKSRARELOOKSRARELOOKSRLO:.                                  .:SRLOOKSRARELOOKSRARELOOKSR LOOKSRARELOOKSRARELOOKSRLOOKl.                              .lOKSRLOOKSRARELOOKSRARELOOKSR LOOKSRARELOOKSRARELOOKSRLOOKSRo'.                        .'oLOOKSRLOOKSRARELOOKSRARELOOKSR LOOKSRARELOOKSRARELOOKSRLOOKSRARd;.                    .;xRELOOKSRLOOKSRARELOOKSRARELOOKSR LOOKSRARELOOKSRARELOOKSRLOOKSRARELO:.                .:kRARELOOKSRLOOKSRARELOOKSRARELOOKSR LOOKSRARELOOKSRARELOOKSRLOOKSRARELOOKl.            .cOKSRARELOOKSRLOOKSRARELOOKSRARELOOKSR LOOKSRARELOOKSRARELOOKSRLOOKSRARELOOKSRo'        'oLOOKSRARELOOKSRLOOKSRARELOOKSRARELOOKSR LOOKSRARELOOKSRARELOOKSRLOOKSRARELOOKSRARE,.  .,dRELOOKSRARELOOKSRLOOKSRARELOOKSRARELOOKSR LOOKSRARELOOKSRARELOOKSRLOOKSRARELOOKSRARELOOKSRARELOOKSRARELOOKSRLOOKSRARELOOKSRARELOOKSR",
    "version": 1
  }
}