{
  "contractName": "RoyaltyFeeRegistry",
  "abi": [
    {
      "inputs": [
        {
          "internalType": "uint256",
          "name": "_royaltyFeeLimit",
          "type": "uint256"
        }
      ],
      "stateMutability": "nonpayable",
      "type": "constructor"
    },
    {
      "anonymous": false,
      "inputs": [
        {
          "indexed": false,
          "internalType": "uint256",
          "name": "royaltyFeeLimit",
          "type": "uint256"
        }
      ],
      "name": "NewRoyaltyFeeLimit",
      "type": "event"
    },
    {
      "anonymous": false,
      "inputs": [
        {
          "indexed": true,
          "internalType": "address",
          "name": "previousOwner",
          "type": "address"
        },
        {
          "indexed": true,
          "internalType": "address",
          "name": "newOwner",
          "type": "address"
        }
      ],
      "name": "OwnershipTransferred",
      "type": "event"
    },
    {
      "anonymous": false,
      "inputs": [
        {
          "indexed": true,
          "internalType": "address",
          "name": "collection",
          "type": "address"
        },
        {
          "indexed": true,
          "internalType": "address",
          "name": "setter",
          "type": "address"
        },
        {
          "indexed": true,
          "internalType": "address",
          "name": "receiver",
          "type": "address"
        },
        {
          "indexed": false,
          "internalType": "uint256",
          "name": "fee",
          "type": "uint256"
        }
      ],
      "name": "RoyaltyFeeUpdate",
      "type": "event"
    },
    {
      "inputs": [],
      "name": "owner",
      "outputs": [
        {
          "internalType": "address",
          "name": "",
          "type": "address"
        }
      ],
      "stateMutability": "view",
      "type": "function"
    },
    {
      "inputs": [],
      "name": "renounceOwnership",
      "outputs": [],
      "stateMutability": "nonpayable",
      "type": "function"
    },
    {
      "inputs": [],
      "name": "royaltyFeeLimit",
      "outputs": [
        {
          "internalType": "uint256",
          "name": "",
          "type": "uint256"
        }
      ],
      "stateMutability": "view",
      "type": "function"
    },
    {
      "inputs": [
        {
          "internalType": "address",
          "name": "newOwner",
          "type": "address"
        }
      ],
      "name": "transferOwnership",
      "outputs": [],
      "stateMutability": "nonpayable",
      "type": "function"
    },
    {
      "inputs": [
        {
          "internalType": "uint256",
          "name": "_royaltyFeeLimit",
          "type": "uint256"
        }
      ],
      "name": "updateRoyaltyFeeLimit",
      "outputs": [],
      "stateMutability": "nonpayable",
      "type": "function"
    },
    {
      "inputs": [
        {
          "internalType": "address",
          "name": "collection",
          "type": "address"
        },
        {
          "internalType": "address",
          "name": "setter",
          "type": "address"
        },
        {
          "internalType": "address",
          "name": "receiver",
          "type": "address"
        },
        {
          "internalType": "uint256",
          "name": "fee",
          "type": "uint256"
        }
      ],
      "name": "updateRoyaltyInfoForCollection",
      "outputs": [],
      "stateMutability": "nonpayable",
      "type": "function"
    },
    {
      "inputs": [
        {
          "internalType": "address",
          "name": "collection",
          "type": "address"
        },
        {
          "internalType": "uint256",
          "name": "amount",
          "type": "uint256"
        }
      ],
      "name": "royaltyInfo",
      "outputs": [
        {
          "internalType": "address",
          "name": "",
          "type": "address"
        },
        {
          "internalType": "uint256",
          "name": "",
          "type": "uint256"
        }
      ],
      "stateMutability": "view",
      "type": "function"
    },
    {
      "inputs": [
        {
          "internalType": "address",
          "name": "collection",
          "type": "address"
        }
      ],
      "name": "royaltyFeeInfoCollection",
      "outputs": [
        {
          "internalType": "address",
          "name": "",
          "type": "address"
        },
        {
          "internalType": "address",
          "name": "",
          "type": "address"
        },
        {
          "internalType": "uint256",
          "name": "",
          "type": "uint256"
        }
      ],
      "stateMutability": "view",
      "type": "function"
    }
  ],
  "bytecode": "0x608060405234801561001057600080fd5b506040516107fc3803806107fc8339818101604052602081101561003357600080fd5b5051600061003f6100d2565b600080546001600160a01b0319166001600160a01b0383169081178255604051929350917f8be0079c531659141344cd1fd0a4f28419497f9722a3daafe3b4186f6b6457e0908290a35061251c8111156100ca5760405162461bcd60e51b81526004018080602001828103825260218152602001806107db6021913960400191505060405180910390fd5b6001556100d6565b3390565b6106f6806100e56000396000f3fe608060405234801561001057600080fd5b50600436106100885760003560e01c8063b9223c9d1161005b578063b9223c9d14610124578063bbdf9b6814610141578063e31ef91c1461017d578063f2fde38b146101cd57610088565b80632782d6c71461008d5780634fb7d3f9146100dc578063715018a6146100f65780638da5cb5b14610100575b600080fd5b6100b9600480360360408110156100a357600080fd5b506001600160a01b0381351690602001356101f3565b604080516001600160a01b03909316835260208301919091528051918290030190f35b6100e4610225565b60408051918252519081900360200190f35b6100fe61022b565b005b6101086102d7565b604080516001600160a01b039092168252519081900360200190f35b6100fe6004803603602081101561013a57600080fd5b50356102e6565b6100fe6004803603608081101561015757600080fd5b506001600160a01b038135811691602081013582169160408201351690606001356103c4565b6101a36004803603602081101561019357600080fd5b50356001600160a01b0316610522565b604080516001600160a01b0394851681529290931660208301528183015290519081900360600190f35b6100fe600480360360208110156101e357600080fd5b50356001600160a01b0316610553565b6001600160a01b0391821660009081526002602081905260409091206001810154910154921692612710919092020490565b60015481565b610233610655565b6001600160a01b03166102446102d7565b6001600160a01b03161461028d576040805162461bcd60e51b815260206004820181905260248201526000805160206106a1833981519152604482015290519081900360640190fd5b600080546040516001600160a01b03909116907f8be0079c531659141344cd1fd0a4f28419497f9722a3daafe3b4186f6b6457e0908390a3600080546001600160a01b0319169055565b6000546001600160a01b031690565b6102ee610655565b6001600160a01b03166102ff6102d7565b6001600160a01b031614610348576040805162461bcd60e51b815260206004820181905260248201526000805160206106a1833981519152604482015290519081900360640190fd5b61251c8111156103895760405162461bcd60e51b81526004018080602001828103825260218152602001806106806021913960400191505060405180910390fd5b60018190556040805182815290517f2da7166c72ef3860ef4fb2571105533c40615269a6dbc38ce0b264910df1c2569181900360200190a150565b6103cc610655565b6001600160a01b03166103dd6102d7565b6001600160a01b031614610426576040805162461bcd60e51b815260206004820181905260248201526000805160206106a1833981519152604482015290519081900360640190fd5b60015481111561047d576040805162461bcd60e51b815260206004820152601e60248201527f52656769737472793a20526f79616c74792066656520746f6f20686967680000604482015290519081900360640190fd5b604080516060810182526001600160a01b0380861680835285821660208085018281528587018881528b861660008181526002808652908a9020985189549089166001600160a01b0319918216178a55935160018a018054919099169416939093179096555195019490945584518681529451909491937fd01984afa6e37420452e575e7d99dd7e632b3ec8ea2adec998475b76ca494d64928290030190a450505050565b6001600160a01b03908116600090815260026020819052604090912080546001820154919092015491831693921691565b61055b610655565b6001600160a01b031661056c6102d7565b6001600160a01b0316146105b5576040805162461bcd60e51b815260206004820181905260248201526000805160206106a1833981519152604482015290519081900360640190fd5b6001600160a01b0381166105fa5760405162461bcd60e51b815260040180806020018281038252602681526020018061065a6026913960400191505060405180910390fd5b600080546040516001600160a01b03808516939216917f8be0079c531659141344cd1fd0a4f28419497f9722a3daafe3b4186f6b6457e091a3600080546001600160a01b0319166001600160a01b0392909216919091179055565b339056fe4f776e61626c653a206e6577206f776e657220697320746865207a65726f20616464726573734f776e65723a20526f79616c747920666565206c696d697420746f6f20686967684f776e61626c653a2063616c6c6572206973206e6f7420746865206f776e6572a2646970667358221220882d7ad4bbc7da438a98f9dfda439a55431431da122bd695a447c37a466010a964736f6c634300070600334f776e65723a20526f79616c747920666565206c696d697420746f6f2068696768",
  "immutableReferences": {},
  "source": "// SPDX-License-Identifier: MIT\npragma solidity 0.7.6;\n\nimport {Ownable} from \"@openzeppelin/contracts/access/Ownable.sol\";\n\nimport {IRoyaltyFeeRegistry} from \"./interfaces/IRoyaltyFeeRegistry.sol\";\n\n/**\n * @title RoyaltyFeeRegistry\n * @notice It is a royalty fee registry for the LooksRare exchange.\n */\ncontract RoyaltyFeeRegistry is IRoyaltyFeeRegistry, Ownable {\n    struct FeeInfo {\n        address setter;\n        address receiver;\n        uint256 fee;\n    }\n\n    // Limit (if enforced for fee royalty in percentage (10,000 = 100%)\n    uint256 public royaltyFeeLimit;\n\n    mapping(address => FeeInfo) private _royaltyFeeInfoCollection;\n\n    event NewRoyaltyFeeLimit(uint256 royaltyFeeLimit);\n    event RoyaltyFeeUpdate(address indexed collection, address indexed setter, address indexed receiver, uint256 fee);\n\n    /**\n     * @notice Constructor\n     * @param _royaltyFeeLimit new royalty fee limit (500 = 5%, 1,000 = 10%)\n     */\n    constructor(uint256 _royaltyFeeLimit) {\n        require(_royaltyFeeLimit <= 9500, \"Owner: Royalty fee limit too high\");\n        royaltyFeeLimit = _royaltyFeeLimit;\n    }\n\n    /**\n     * @notice Update royalty info for collection\n     * @param _royaltyFeeLimit new royalty fee limit (500 = 5%, 1,000 = 10%)\n     */\n    function updateRoyaltyFeeLimit(uint256 _royaltyFeeLimit) external override onlyOwner {\n        require(_royaltyFeeLimit <= 9500, \"Owner: Royalty fee limit too high\");\n        royaltyFeeLimit = _royaltyFeeLimit;\n\n        emit NewRoyaltyFeeLimit(_royaltyFeeLimit);\n    }\n\n    /**\n     * @notice Update royalty info for collection\n     * @param collection address of the NFT contract\n     * @param setter address that sets the receiver\n     * @param receiver receiver for the royalty fee\n     * @param fee fee (500 = 5%, 1,000 = 10%)\n     */\n    function updateRoyaltyInfoForCollection(\n        address collection,\n        address setter,\n        address receiver,\n        uint256 fee\n    ) external override onlyOwner {\n        require(fee <= royaltyFeeLimit, \"Registry: Royalty fee too high\");\n        _royaltyFeeInfoCollection[collection] = FeeInfo({setter: setter, receiver: receiver, fee: fee});\n\n        emit RoyaltyFeeUpdate(collection, setter, receiver, fee);\n    }\n\n    /**\n     * @notice Calculate royalty info for a collection address and a sale gross amount\n     * @param collection collection address\n     * @param amount amount\n     * @return receiver address and amount received by royalty recipient\n     */\n    function royaltyInfo(address collection, uint256 amount) external view override returns (address, uint256) {\n        return (\n        _royaltyFeeInfoCollection[collection].receiver,\n        (amount * _royaltyFeeInfoCollection[collection].fee) / 10000\n        );\n    }\n\n    /**\n     * @notice View royalty info for a collection address\n     * @param collection collection address\n     */\n    function royaltyFeeInfoCollection(address collection)\n    external\n    view\n    override\n    returns (\n        address,\n        address,\n        uint256\n    )\n    {\n        return (\n        _royaltyFeeInfoCollection[collection].setter,\n        _royaltyFeeInfoCollection[collection].receiver,\n        _royaltyFeeInfoCollection[collection].fee\n        );\n    }\n}",
  "sourcePath": "/home/sks/Work/project/21/LooksRare/contracts/RoyaltyFeeRigistry.sol",
  "compiler": {
    "name": "solc",
    "version": "0.7.6+commit.7338295f.Emscripten.clang"
  },
  "schemaVersion": "3.4.3",
  "updatedAt": "2022-07-26T17:38:44.723Z",
  "devdoc": {
    "kind": "dev",
    "methods": {
      "constructor": {
        "params": {
          "_royaltyFeeLimit": "new royalty fee limit (500 = 5%, 1,000 = 10%)"
        }
      },
      "owner()": {
        "details": "Returns the address of the current owner."
      },
      "renounceOwnership()": {
        "details": "Leaves the contract without owner. It will not be possible to call `onlyOwner` functions anymore. Can only be called by the current owner. NOTE: Renouncing ownership will leave the contract without an owner, thereby removing any functionality that is only available to the owner."
      },
      "royaltyFeeInfoCollection(address)": {
        "params": {
          "collection": "collection address"
        }
      },
      "royaltyInfo(address,uint256)": {
        "params": {
          "amount": "amount",
          "collection": "collection address"
        },
        "returns": {
          "_0": "receiver address and amount received by royalty recipient"
        }
      },
      "transferOwnership(address)": {
        "details": "Transfers ownership of the contract to a new account (`newOwner`). Can only be called by the current owner."
      },
      "updateRoyaltyFeeLimit(uint256)": {
        "params": {
          "_royaltyFeeLimit": "new royalty fee limit (500 = 5%, 1,000 = 10%)"
        }
      },
      "updateRoyaltyInfoForCollection(address,address,address,uint256)": {
        "params": {
          "collection": "address of the NFT contract",
          "fee": "fee (500 = 5%, 1,000 = 10%)",
          "receiver": "receiver for the royalty fee",
          "setter": "address that sets the receiver"
        }
      }
    },
    "title": "RoyaltyFeeRegistry",
    "version": 1
  },
  "userdoc": {
    "kind": "user",
    "methods": {
      "constructor": {
        "notice": "Constructor"
      },
      "royaltyFeeInfoCollection(address)": {
        "notice": "View royalty info for a collection address"
      },
      "royaltyInfo(address,uint256)": {
        "notice": "Calculate royalty info for a collection address and a sale gross amount"
      },
      "updateRoyaltyFeeLimit(uint256)": {
        "notice": "Update royalty info for collection"
      },
      "updateRoyaltyInfoForCollection(address,address,address,uint256)": {
        "notice": "Update royalty info for collection"
      }
    },
    "notice": "It is a royalty fee registry for the LooksRare exchange.",
    "version": 1
  }
}