{
  "contractName": "RoyaltyFeeManager",
  "abi": [
    {
      "inputs": [
        {
          "internalType": "address",
          "name": "_royaltyFeeRegistry",
          "type": "address"
        }
      ],
      "stateMutability": "nonpayable",
      "type": "constructor"
    },
    {
      "anonymous": false,
      "inputs": [
        {
          "indexed": true,
          "internalType": "address",
          "name": "previousOwner",
          "type": "address"
        },
        {
          "indexed": true,
          "internalType": "address",
          "name": "newOwner",
          "type": "address"
        }
      ],
      "name": "OwnershipTransferred",
      "type": "event"
    },
    {
      "inputs": [],
      "name": "INTERFACE_ID_ERC2981",
      "outputs": [
        {
          "internalType": "bytes4",
          "name": "",
          "type": "bytes4"
        }
      ],
      "stateMutability": "view",
      "type": "function"
    },
    {
      "inputs": [],
      "name": "owner",
      "outputs": [
        {
          "internalType": "address",
          "name": "",
          "type": "address"
        }
      ],
      "stateMutability": "view",
      "type": "function"
    },
    {
      "inputs": [],
      "name": "renounceOwnership",
      "outputs": [],
      "stateMutability": "nonpayable",
      "type": "function"
    },
    {
      "inputs": [],
      "name": "royaltyFeeRegistry",
      "outputs": [
        {
          "internalType": "contract IRoyaltyFeeRegistry",
          "name": "",
          "type": "address"
        }
      ],
      "stateMutability": "view",
      "type": "function"
    },
    {
      "inputs": [
        {
          "internalType": "address",
          "name": "newOwner",
          "type": "address"
        }
      ],
      "name": "transferOwnership",
      "outputs": [],
      "stateMutability": "nonpayable",
      "type": "function"
    },
    {
      "inputs": [
        {
          "internalType": "address",
          "name": "collection",
          "type": "address"
        },
        {
          "internalType": "uint256",
          "name": "tokenId",
          "type": "uint256"
        },
        {
          "internalType": "uint256",
          "name": "amount",
          "type": "uint256"
        }
      ],
      "name": "calculateRoyaltyFeeAndGetRecipient",
      "outputs": [
        {
          "internalType": "address",
          "name": "",
          "type": "address"
        },
        {
          "internalType": "uint256",
          "name": "",
          "type": "uint256"
        }
      ],
      "stateMutability": "view",
      "type": "function"
    }
  ],
  "bytecode": "0x60a060405234801561001057600080fd5b5060405161069538038061069583398101604081905261002f916100a8565b61003f61003a610054565b610058565b60601b6001600160601b0319166080526100d6565b3390565b600080546001600160a01b038381166001600160a01b0319831681178455604051919092169283917f8be0079c531659141344cd1fd0a4f28419497f9722a3daafe3b4186f6b6457e09190a35050565b6000602082840312156100b9578081fd5b81516001600160a01b03811681146100cf578182fd5b9392505050565b60805160601c61059a6100fb60003960008181610110015261017d015261059a6000f3fe608060405234801561001057600080fd5b50600436106100625760003560e01c8063715018a6146100675780638da5cb5b14610071578063b060dd861461008f578063c16f5156146100a4578063f2fde38b146100ac578063f4f635fa146100bf575b600080fd5b61006f6100e0565b005b6100796100f4565b6040516100869190610484565b60405180910390f35b610097610103565b60405161008691906104b1565b61007961010e565b61006f6100ba3660046103e0565b610132565b6100d26100cd366004610430565b610175565b604051610086929190610498565b6100e861034d565b6100f2600061038c565b565b6000546001600160a01b031690565b63152a902d60e11b81565b7f000000000000000000000000000000000000000000000000000000000000000081565b61013a61034d565b6001600160a01b0381166101695760405162461bcd60e51b8152600401610160906104c6565b60405180910390fd5b6101728161038c565b50565b6000806000807f00000000000000000000000000000000000000000000000000000000000000006001600160a01b0316632782d6c788876040518363ffffffff1660e01b81526004016101c9929190610498565b604080518083038186803b1580156101e057600080fd5b505afa1580156101f4573d6000803e3d6000fd5b505050506040513d601f19601f820116820180604052508101906102189190610403565b90925090506001600160a01b0382161580610231575080155b15610341576040516301ffc9a760e01b81526001600160a01b038816906301ffc9a7906102699063152a902d60e11b906004016104b1565b60206040518083038186803b15801561028157600080fd5b505afa158015610295573d6000803e3d6000fd5b505050506040513d601f19601f820116820180604052508101906102b99190610464565b156103415760405163152a902d60e11b81526001600160a01b03881690632a55205a906102ec9089908990600401610541565b604080518083038186803b15801561030357600080fd5b505afa158015610317573d6000803e3d6000fd5b505050506040513d601f19601f8201168201806040525081019061033b9190610403565b90925090505b90969095509350505050565b6103556103dc565b6001600160a01b03166103666100f4565b6001600160a01b0316146100f25760405162461bcd60e51b81526004016101609061050c565b600080546001600160a01b038381166001600160a01b0319831681178455604051919092169283917f8be0079c531659141344cd1fd0a4f28419497f9722a3daafe3b4186f6b6457e09190a35050565b3390565b6000602082840312156103f1578081fd5b81356103fc8161054f565b9392505050565b60008060408385031215610415578081fd5b82516104208161054f565b6020939093015192949293505050565b600080600060608486031215610444578081fd5b833561044f8161054f565b95602085013595506040909401359392505050565b600060208284031215610475578081fd5b815180151581146103fc578182fd5b6001600160a01b0391909116815260200190565b6001600160a01b03929092168252602082015260400190565b6001600160e01b031991909116815260200190565b60208082526026908201527f4f776e61626c653a206e6577206f776e657220697320746865207a65726f206160408201526564647265737360d01b606082015260800190565b6020808252818101527f4f776e61626c653a2063616c6c6572206973206e6f7420746865206f776e6572604082015260600190565b918252602082015260400190565b6001600160a01b038116811461017257600080fdfea2646970667358221220072453a83e180c2784d934f4b82ad5a56b5aaa84569dc15984a656df67b59fd364736f6c63430008010033",
  "immutableReferences": {
    "3199": [
      {
        "length": 32,
        "start": 272
      },
      {
        "length": 32,
        "start": 381
      }
    ]
  },
  "source": "// SPDX-License-Identifier: MIT\npragma solidity ^0.8.0;\n\nimport {Ownable} from \"@openzeppelin/contracts/access/Ownable.sol\";\nimport {IERC165, IERC2981} from \"@openzeppelin/contracts/interfaces/IERC2981.sol\";\n\nimport {IRoyaltyFeeManager} from \"./interfaces/IRoyaltyFeeManager.sol\";\nimport {IRoyaltyFeeRegistry} from \"./interfaces/IRoyaltyFeeRegistry.sol\";\n\n/**\n * @title RoyaltyFeeManager\n * @notice It handles the logic to check and transfer royalty fees (if any).\n */\ncontract RoyaltyFeeManager is IRoyaltyFeeManager, Ownable {\n    // https://eips.ethereum.org/EIPS/eip-2981\n    bytes4 public constant INTERFACE_ID_ERC2981 = 0x2a55205a;\n\n    IRoyaltyFeeRegistry public immutable royaltyFeeRegistry;\n\n    /**\n     * @notice Constructor\n     * @param _royaltyFeeRegistry address of the RoyaltyFeeRegistry\n     */\n    constructor(address _royaltyFeeRegistry) {\n        royaltyFeeRegistry = IRoyaltyFeeRegistry(_royaltyFeeRegistry);\n    }\n\n    /**\n     * @notice Calculate royalty fee and get recipient\n     * @param collection address of the NFT contract\n     * @param tokenId tokenId\n     * @param amount amount to transfer\n     */\n    function calculateRoyaltyFeeAndGetRecipient(\n        address collection,\n        uint256 tokenId,\n        uint256 amount\n    ) external view override returns (address, uint256) {\n        // 1. Check if there is a royalty info in the system\n        (address receiver, uint256 royaltyAmount) = royaltyFeeRegistry.royaltyInfo(collection, amount);\n\n        // 2. If the receiver is address(0), fee is null, check if it supports the ERC2981 interface\n        if ((receiver == address(0)) || (royaltyAmount == 0)) {\n            if (IERC165(collection).supportsInterface(INTERFACE_ID_ERC2981)) {\n                (receiver, royaltyAmount) = IERC2981(collection).royaltyInfo(tokenId, amount);\n            }\n        }\n        return (receiver, royaltyAmount);\n    }\n}",
  "sourcePath": "/Users/ds/Documents/rarible/LooksRare/contracts/RoyaltyFeeManager.sol",
  "compiler": {
    "name": "solc",
    "version": "0.8.1+commit.df193b15.Emscripten.clang"
  },
  "schemaVersion": "3.4.3",
  "updatedAt": "2022-07-21T19:22:52.831Z",
  "devdoc": {
    "kind": "dev",
    "methods": {
      "calculateRoyaltyFeeAndGetRecipient(address,uint256,uint256)": {
        "params": {
          "amount": "amount to transfer",
          "collection": "address of the NFT contract",
          "tokenId": "tokenId"
        }
      },
      "constructor": {
        "params": {
          "_royaltyFeeRegistry": "address of the RoyaltyFeeRegistry"
        }
      },
      "owner()": {
        "details": "Returns the address of the current owner."
      },
      "renounceOwnership()": {
        "details": "Leaves the contract without owner. It will not be possible to call `onlyOwner` functions anymore. Can only be called by the current owner. NOTE: Renouncing ownership will leave the contract without an owner, thereby removing any functionality that is only available to the owner."
      },
      "transferOwnership(address)": {
        "details": "Transfers ownership of the contract to a new account (`newOwner`). Can only be called by the current owner."
      }
    },
    "title": "RoyaltyFeeManager",
    "version": 1
  },
  "userdoc": {
    "kind": "user",
    "methods": {
      "calculateRoyaltyFeeAndGetRecipient(address,uint256,uint256)": {
        "notice": "Calculate royalty fee and get recipient"
      },
      "constructor": {
        "notice": "Constructor"
      }
    },
    "notice": "It handles the logic to check and transfer royalty fees (if any).",
    "version": 1
  }
}