{
  "_format": "hh-sol-artifact-1",
  "contractName": "RoyaltiesRegistryOld",
  "sourceName": "contracts/test/royalty-registry/RoyaltiesRegistryOld.sol",
  "abi": [
    {
      "anonymous": false,
      "inputs": [
        {
          "indexed": true,
          "internalType": "address",
          "name": "previousOwner",
          "type": "address"
        },
        {
          "indexed": true,
          "internalType": "address",
          "name": "newOwner",
          "type": "address"
        }
      ],
      "name": "OwnershipTransferred",
      "type": "event"
    },
    {
      "anonymous": false,
      "inputs": [
        {
          "indexed": true,
          "internalType": "address",
          "name": "token",
          "type": "address"
        },
        {
          "components": [
            {
              "internalType": "address payable",
              "name": "account",
              "type": "address"
            },
            {
              "internalType": "uint96",
              "name": "value",
              "type": "uint96"
            }
          ],
          "indexed": false,
          "internalType": "struct LibPart.Part[]",
          "name": "royalties",
          "type": "tuple[]"
        }
      ],
      "name": "RoyaltiesSetForContract",
      "type": "event"
    },
    {
      "anonymous": false,
      "inputs": [
        {
          "indexed": true,
          "internalType": "address",
          "name": "token",
          "type": "address"
        },
        {
          "indexed": true,
          "internalType": "uint256",
          "name": "tokenId",
          "type": "uint256"
        },
        {
          "components": [
            {
              "internalType": "address payable",
              "name": "account",
              "type": "address"
            },
            {
              "internalType": "uint96",
              "name": "value",
              "type": "uint96"
            }
          ],
          "indexed": false,
          "internalType": "struct LibPart.Part[]",
          "name": "royalties",
          "type": "tuple[]"
        }
      ],
      "name": "RoyaltiesSetForToken",
      "type": "event"
    },
    {
      "inputs": [],
      "name": "__RoyaltiesRegistry_init",
      "outputs": [],
      "stateMutability": "nonpayable",
      "type": "function"
    },
    {
      "inputs": [
        {
          "internalType": "address",
          "name": "token",
          "type": "address"
        }
      ],
      "name": "getProvider",
      "outputs": [
        {
          "internalType": "address",
          "name": "",
          "type": "address"
        }
      ],
      "stateMutability": "view",
      "type": "function"
    },
    {
      "inputs": [
        {
          "internalType": "address",
          "name": "token",
          "type": "address"
        },
        {
          "internalType": "uint256",
          "name": "tokenId",
          "type": "uint256"
        }
      ],
      "name": "getRoyalties",
      "outputs": [
        {
          "components": [
            {
              "internalType": "address payable",
              "name": "account",
              "type": "address"
            },
            {
              "internalType": "uint96",
              "name": "value",
              "type": "uint96"
            }
          ],
          "internalType": "struct LibPart.Part[]",
          "name": "",
          "type": "tuple[]"
        }
      ],
      "stateMutability": "nonpayable",
      "type": "function"
    },
    {
      "inputs": [],
      "name": "owner",
      "outputs": [
        {
          "internalType": "address",
          "name": "",
          "type": "address"
        }
      ],
      "stateMutability": "view",
      "type": "function"
    },
    {
      "inputs": [],
      "name": "renounceOwnership",
      "outputs": [],
      "stateMutability": "nonpayable",
      "type": "function"
    },
    {
      "inputs": [
        {
          "internalType": "address",
          "name": "",
          "type": "address"
        }
      ],
      "name": "royaltiesByToken",
      "outputs": [
        {
          "internalType": "bool",
          "name": "initialized",
          "type": "bool"
        }
      ],
      "stateMutability": "view",
      "type": "function"
    },
    {
      "inputs": [
        {
          "internalType": "bytes32",
          "name": "",
          "type": "bytes32"
        }
      ],
      "name": "royaltiesByTokenAndTokenId",
      "outputs": [
        {
          "internalType": "bool",
          "name": "initialized",
          "type": "bool"
        }
      ],
      "stateMutability": "view",
      "type": "function"
    },
    {
      "inputs": [
        {
          "internalType": "address",
          "name": "",
          "type": "address"
        }
      ],
      "name": "royaltiesProviders",
      "outputs": [
        {
          "internalType": "uint256",
          "name": "",
          "type": "uint256"
        }
      ],
      "stateMutability": "view",
      "type": "function"
    },
    {
      "inputs": [
        {
          "internalType": "address",
          "name": "token",
          "type": "address"
        },
        {
          "internalType": "address",
          "name": "provider",
          "type": "address"
        }
      ],
      "name": "setProviderByToken",
      "outputs": [],
      "stateMutability": "nonpayable",
      "type": "function"
    },
    {
      "inputs": [
        {
          "internalType": "address",
          "name": "token",
          "type": "address"
        },
        {
          "components": [
            {
              "internalType": "address payable",
              "name": "account",
              "type": "address"
            },
            {
              "internalType": "uint96",
              "name": "value",
              "type": "uint96"
            }
          ],
          "internalType": "struct LibPart.Part[]",
          "name": "royalties",
          "type": "tuple[]"
        }
      ],
      "name": "setRoyaltiesByToken",
      "outputs": [],
      "stateMutability": "nonpayable",
      "type": "function"
    },
    {
      "inputs": [
        {
          "internalType": "address",
          "name": "token",
          "type": "address"
        },
        {
          "internalType": "uint256",
          "name": "tokenId",
          "type": "uint256"
        },
        {
          "components": [
            {
              "internalType": "address payable",
              "name": "account",
              "type": "address"
            },
            {
              "internalType": "uint96",
              "name": "value",
              "type": "uint96"
            }
          ],
          "internalType": "struct LibPart.Part[]",
          "name": "royalties",
          "type": "tuple[]"
        }
      ],
      "name": "setRoyaltiesByTokenAndTokenId",
      "outputs": [],
      "stateMutability": "nonpayable",
      "type": "function"
    },
    {
      "inputs": [
        {
          "internalType": "address",
          "name": "newOwner",
          "type": "address"
        }
      ],
      "name": "transferOwnership",
      "outputs": [],
      "stateMutability": "nonpayable",
      "type": "function"
    }
  ],
  "bytecode": "0x608060405234801561001057600080fd5b50611d05806100206000396000f3fe608060405234801561001057600080fd5b50600436106100b45760003560e01c8063acf14efb11610071578063acf14efb1461013c578063c652885f1461014f578063d1da3cce14610162578063d836f01314610175578063f2fde38b14610188578063f39cc7061461019b576100b4565b806305df952f146100b957806327fff8ab146100e257806355f21eb7146100ec578063715018a61461010c5780638da5cb5b146101145780639ca7dc7a1461011c575b600080fd5b6100cc6100c7366004611578565b6101bb565b6040516100d991906119a9565b60405180910390f35b6100ea6101d0565b005b6100ff6100fa366004611578565b61027a565b6040516100d9919061191b565b6100ea610295565b6100ff610353565b61012f61012a36600461163d565b610362565b6040516100d99190611948565b6100ea61014a3660046115ef565b61053a565b6100ea61015d366004611695565b610756565b6100cc610170366004611903565b61076f565b6100ea6101833660046115b7565b610784565b6100ea610196366004611578565b6107ac565b6101ae6101a9366004611578565b6108c1565b6040516100d99190611bef565b60666020526000908152604090205460ff1681565b600054610100900460ff16806101e957506101e96108d3565b806101f7575060005460ff16155b6102325760405162461bcd60e51b815260040180806020018281038252602e815260200180611ca2602e913960400191505060405180910390fd5b600054610100900460ff1615801561025d576000805460ff1961ff0019909116610100171660011790555b6102656108e4565b8015610277576000805461ff00191690555b50565b6001600160a01b031660009081526067602052604090205490565b61029d6109dd565b6001600160a01b03166102ae610353565b6001600160a01b031614610309576040805162461bcd60e51b815260206004820181905260248201527f4f776e61626c653a2063616c6c6572206973206e6f7420746865206f776e6572604482015290519081900360640190fd5b6033546040516000916001600160a01b0316907f8be0079c531659141344cd1fd0a4f28419497f9722a3daafe3b4186f6b6457e0908390a3603380546001600160a01b0319169055565b6033546001600160a01b031690565b6060600060656000858560405160200161037d92919061192f565b60408051601f198184030181529181528151602092830120835282820193909352908201600090812083518085018552815460ff161515815260018201805486518187028101870190975280875291959294868101949192919084015b8282101561042957600084815260209081902060408051808201909152908401546001600160a01b0381168252600160a01b90046001600160601b0316818301528252600190920191016103da565b5050509152505080519091501561044557602001519050610534565b6001600160a01b038416600090815260666020908152604080832081518083018352815460ff16151581526001820180548451818702810187019095528085529195929486810194939192919084015b828210156104e457600084815260209081902060408051808201909152908401546001600160a01b0381168252600160a01b90046001600160601b031681830152825260019092019101610495565b5050509152505080519091501561050057602001519050610534565b60008061050d86866109e1565b909250905081610524576105218686610a99565b90505b61052f868683610ac4565b925050505b92915050565b61054382610ce1565b6001600160a01b0382166000908152606660205260408120805460ff19168155816105716001830182611474565b505060005b82518110156106d45760006001600160a01b031683828151811061059657fe5b6020026020010151600001516001600160a01b031614156105d25760405162461bcd60e51b81526004016105c9906119c9565b60405180910390fd5b8281815181106105de57fe5b6020026020010151602001516001600160601b0316600014156106135760405162461bcd60e51b81526004016105c990611b49565b60666000856001600160a01b03166001600160a01b0316815260200190815260200160002060010183828151811061064757fe5b602090810291909101810151825460018101845560009384529282902081519301805491909201516001600160601b0316600160a01b026001600160a01b039384166001600160a01b03199092169190911790921691909117905582518390829081106106b057fe5b6020026020010151602001516001600160601b031682019150806001019050610576565b5061271081106106f65760405162461bcd60e51b81526004016105c990611a15565b6001600160a01b03831660008181526066602052604090819020805460ff19166001179055517fc026171b9a7c9009d6a748a19a0a3cb877978a585e1647a87a786d724bbde12790610749908590611948565b60405180910390a2505050565b61075f83610ce1565b61076a838383610ac4565b505050565b60656020526000908152604090205460ff1681565b61078d82610ce1565b6001600160a01b03918216600090815260676020526040902091169055565b6107b46109dd565b6001600160a01b03166107c5610353565b6001600160a01b031614610820576040805162461bcd60e51b815260206004820181905260248201527f4f776e61626c653a2063616c6c6572206973206e6f7420746865206f776e6572604482015290519081900360640190fd5b6001600160a01b0381166108655760405162461bcd60e51b8152600401808060200182810382526026815260200180611c7c6026913960400191505060405180910390fd5b6033546040516001600160a01b038084169216907f8be0079c531659141344cd1fd0a4f28419497f9722a3daafe3b4186f6b6457e090600090a3603380546001600160a01b0319166001600160a01b0392909216919091179055565b60676020526000908152604090205481565b60006108de30610db7565b15905090565b600054610100900460ff16806108fd57506108fd6108d3565b8061090b575060005460ff16155b6109465760405162461bcd60e51b815260040180806020018281038252602e815260200180611ca2602e913960400191505060405180910390fd5b600054610100900460ff16158015610971576000805460ff1961ff0019909116610100171660011790555b600061097b6109dd565b603380546001600160a01b0319166001600160a01b038316908117909155604051919250906000907f8be0079c531659141344cd1fd0a4f28419497f9722a3daafe3b4186f6b6457e0908290a3508015610277576000805461ff001916905550565b3390565b60006060816109ef8561027a565b90506001600160a01b03811615610a9157604051634e53ee3d60e11b815281906001600160a01b03821690639ca7dc7a90610a30908990899060040161192f565b600060405180830381600087803b158015610a4a57600080fd5b505af1925050508015610a7f57506040513d6000823e601f3d908101601f19168201604052610a7c9190810190611785565b60015b610a8857610a8f565b6001945092505b505b509250929050565b6060600080610aa88585610dbd565b915091508015610aba57509050610534565b61052f85856111dc565b6000808484604051602001610ada92919061192f565b604051602081830303815290604052805190602001209050606560008281526020019081526020016000206001016000610b149190611474565b60005b8351811015610c5a5760006001600160a01b0316848281518110610b3757fe5b6020026020010151600001516001600160a01b03161415610b6a5760405162461bcd60e51b81526004016105c990611b99565b838181518110610b7657fe5b6020026020010151602001516001600160601b031660001415610bab5760405162461bcd60e51b81526004016105c990611aec565b60656000838152602001908152602001600020600101848281518110610bcd57fe5b602090810291909101810151825460018101845560009384529282902081519301805491909201516001600160601b0316600160a01b026001600160a01b039384166001600160a01b0319909216919091179092169190911790558351849082908110610c3657fe5b6020026020010151602001516001600160601b031683019250806001019050610b17565b506127108210610c7c5760405162461bcd60e51b81526004016105c990611a5f565b60008181526065602052604090819020805460ff191660011790555184906001600160a01b038716907feb39ff9fa01427567623bcdf507c38c3661f0febd78123a35951895dc9ec731590610cd2908790611948565b60405180910390a35050505050565b610ce96109dd565b6001600160a01b0316610cfa610353565b6001600160a01b031614158015610d9a5750610d146109dd565b6001600160a01b0316816001600160a01b0316638da5cb5b6040518163ffffffff1660e01b815260040160206040518083038186803b158015610d5657600080fd5b505afa158015610d6a573d6000803e3d6000fd5b505050506040513d601f19601f82011682018060405250810190610d8e919061159b565b6001600160a01b031614155b156102775760405162461bcd60e51b81526004016105c990611ab5565b3b151590565b6040516301ffc9a760e01b81526060906000906001600160a01b038516906301ffc9a790610df69063656cb66560e11b906004016119b4565b60206040518083038186803b158015610e0e57600080fd5b505afa158015610e22573d6000803e3d6000fd5b505050506040513d601f19601f82011682018060405250810190610e4691906118e3565b15610f155760405163656cb66560e11b815284906001600160a01b0382169063cad96cca90610e79908790600401611bef565b60006040518083038186803b158015610e9157600080fd5b505afa925050508015610ec657506040513d6000823e601f3d908101601f19168201604052610ec39190810190611785565b60015b610f08576040805160008082526020820190925290610efb565b610ee8611492565b815260200190600190039081610ee05790505b50600092509250506111d5565b9250600191506111d59050565b60405163b9c4d9fb60e01b815284906060906001600160a01b0383169063b9c4d9fb90610f46908890600401611bef565b60006040518083038186803b158015610f5e57600080fd5b505afa925050508015610f9357506040513d6000823e601f3d908101601f19168201604052610f9091908101906116ec565b60015b610fd6576040805160008082526020820190925290610fc8565b610fb5611492565b815260200190600190039081610fad5790505b5060009350935050506111d5565b9050604051630ebd4c7f60e01b81526060906001600160a01b03841690630ebd4c7f90611007908990600401611bef565b60006040518083038186803b15801561101f57600080fd5b505afa92505050801561105457506040513d6000823e601f3d908101601f19168201604052611051919081019061185f565b60015b611098576040805160008082526020820190925290611089565b611076611492565b81526020019060019003908161106e5790505b506000945094505050506111d5565b905081518151146110e35760408051600080825260208201909252906110d4565b6110c1611492565b8152602001906001900390816110b95790505b506001945094505050506111d5565b6000815167ffffffffffffffff811180156110fd57600080fd5b5060405190808252806020026020018201604052801561113757816020015b611124611492565b81526020019060019003908161111c5790505b50905060005b82518110156111ca5782818151811061115257fe5b602002602001015182828151811061116657fe5b6020026020010151602001906001600160601b031690816001600160601b03168152505083818151811061119657fe5b60200260200101518282815181106111aa57fe5b60209081029190910101516001600160a01b03909116905260010161113d565b509450600193505050505b9250929050565b6040516301ffc9a760e01b81526060906001600160a01b038416906301ffc9a7906112129063152a902d60e11b906004016119b4565b60206040518083038186803b15801561122a57600080fd5b505afa15801561123e573d6000803e3d6000fd5b505050506040513d601f19601f8201168201806040525081019061126291906118e3565b156113335760405163152a902d60e11b815283906001600160a01b03821690632a55205a9061129a908690620f424090600401611bf8565b604080518083038186803b1580156112b157600080fd5b505afa9250505080156112e1575060408051601f3d908101601f191682019092526112de91810190611668565b60015b61131f576040805160008082526020820190925290611316565b611303611492565b8152602001906001900390816112fb5790505b50915050610534565b611329828261136c565b9350505050610534565b6040805160008082526020820190925290611364565b611351611492565b8152602001906001900390816113495790505b509392505050565b6060808261137b579050610534565b6000620f4240612710850204905061271081106113df576040805162461bcd60e51b815260206004820152601b60248201527f526f79616c746965732032393831206578636565647320313030250000000000604482015290519081900360640190fd5b60408051600180825281830190925290816020015b6113fc611492565b8152602001906001900390816113f4579050509150848260008151811061141f57fe5b6020026020010151600001906001600160a01b031690816001600160a01b031681525050808260008151811061145157fe5b6020908102919091018101516001600160601b0390921691015250905092915050565b508054600082559060005260206000209081019061027791906114a9565b604080518082019091526000808252602082015290565b5b808211156114be57600081556001016114aa565b5090565b600082601f8301126114d2578081fd5b813560206114e76114e283611c33565b611c0f565b82815281810190858301604080860288018501891015611505578687fd5b865b8681101561156a5781838b03121561151d578788fd5b815182810181811067ffffffffffffffff8211171561153857fe5b8352833561154581611c51565b81528387013561155481611c66565b8188015285529385019391810191600101611507565b509198975050505050505050565b600060208284031215611589578081fd5b813561159481611c51565b9392505050565b6000602082840312156115ac578081fd5b815161159481611c51565b600080604083850312156115c9578081fd5b82356115d481611c51565b915060208301356115e481611c51565b809150509250929050565b60008060408385031215611601578182fd5b823561160c81611c51565b9150602083013567ffffffffffffffff811115611627578182fd5b611633858286016114c2565b9150509250929050565b6000806040838503121561164f578182fd5b823561165a81611c51565b946020939093013593505050565b6000806040838503121561167a578182fd5b825161168581611c51565b6020939093015192949293505050565b6000806000606084860312156116a9578081fd5b83356116b481611c51565b925060208401359150604084013567ffffffffffffffff8111156116d6578182fd5b6116e2868287016114c2565b9150509250925092565b600060208083850312156116fe578182fd5b825167ffffffffffffffff811115611714578283fd5b8301601f81018513611724578283fd5b80516117326114e282611c33565b818152838101908385018584028501860189101561174e578687fd5b8694505b8385101561177957805161176581611c51565b835260019490940193918501918501611752565b50979650505050505050565b60006020808385031215611797578182fd5b825167ffffffffffffffff808211156117ae578384fd5b818501915085601f8301126117c1578384fd5b81516117cf6114e282611c33565b818152848101908486016040808502870188018b10156117ed578889fd5b8896505b848710156118505780828c031215611807578889fd5b8051818101818110888211171561181a57fe5b8252825161182781611c51565b81528289015161183681611c66565b818a015284526001969096019592870192908101906117f1565b50909998505050505050505050565b60006020808385031215611871578182fd5b825167ffffffffffffffff811115611887578283fd5b8301601f81018513611897578283fd5b80516118a56114e282611c33565b81815283810190838501858402850186018910156118c1578687fd5b8694505b838510156117795780518352600194909401939185019185016118c5565b6000602082840312156118f4578081fd5b81518015158114611594578182fd5b600060208284031215611914578081fd5b5035919050565b6001600160a01b0391909116815260200190565b6001600160a01b03929092168252602082015260400190565b602080825282518282018190526000919060409081850190868401855b8281101561199c57815180516001600160a01b031685528601516001600160601b0316868501529284019290850190600101611965565b5091979650505050505050565b901515815260200190565b6001600160e01b031991909116815260200190565b6020808252602c908201527f526f79616c746965734279546f6b656e20726563697069656e742073686f756c60408201526b19081899481c1c995cd95b9d60a21b606082015260800190565b6020808252602a908201527f53657420627920746f6b656e20726f79616c746965732073756d206d6f72652c604082015269207468616e203130302560b01b606082015260800190565b60208082526036908201527f53657420627920746f6b656e20616e6420746f6b656e496420726f79616c746960408201527565732073756d206d6f72652c207468616e203130302560501b606082015260800190565b60208082526018908201527f546f6b656e206f776e6572206e6f742064657465637465640000000000000000604082015260600190565b6020808252603a908201527f526f79616c74792076616c756520666f7220526f79616c746965734279546f6b60408201527f656e416e64546f6b656e49642073686f756c64206265203e2030000000000000606082015260800190565b60208082526030908201527f526f79616c74792076616c756520666f7220526f79616c746965734279546f6b60408201526f0656e2073686f756c64206265203e20360841b606082015260800190565b60208082526036908201527f526f79616c746965734279546f6b656e416e64546f6b656e49642072656369706040820152751a595b9d081cda1bdd5b19081899481c1c995cd95b9d60521b606082015260800190565b90815260200190565b9182526001600160601b0316602082015260400190565b60405181810167ffffffffffffffff81118282101715611c2b57fe5b604052919050565b600067ffffffffffffffff821115611c4757fe5b5060209081020190565b6001600160a01b038116811461027757600080fd5b6001600160601b038116811461027757600080fdfe4f776e61626c653a206e6577206f776e657220697320746865207a65726f2061646472657373496e697469616c697a61626c653a20636f6e747261637420697320616c726561647920696e697469616c697a6564a26469706673582212209ed7e189f7745f881bff025ff43d710ca1ed97b4f561790b09def565067604c264736f6c63430007060033",
  "linkReferences": {},
  "deployedLinkReferences": {}
}