{
  "address": "0xb23BCD4F668365B1c9Ec4B4DF79915bF8c76C5b5",
  "abi": [
    {
      "inputs": [
        {
          "internalType": "address[]",
          "name": "executors",
          "type": "address[]"
        }
      ],
      "stateMutability": "nonpayable",
      "type": "constructor"
    },
    {
      "anonymous": false,
      "inputs": [
        {
          "indexed": true,
          "internalType": "bytes32",
          "name": "role",
          "type": "bytes32"
        },
        {
          "indexed": true,
          "internalType": "bytes32",
          "name": "previousAdminRole",
          "type": "bytes32"
        },
        {
          "indexed": true,
          "internalType": "bytes32",
          "name": "newAdminRole",
          "type": "bytes32"
        }
      ],
      "name": "RoleAdminChanged",
      "type": "event"
    },
    {
      "anonymous": false,
      "inputs": [
        {
          "indexed": true,
          "internalType": "bytes32",
          "name": "role",
          "type": "bytes32"
        },
        {
          "indexed": true,
          "internalType": "address",
          "name": "account",
          "type": "address"
        },
        {
          "indexed": true,
          "internalType": "address",
          "name": "sender",
          "type": "address"
        }
      ],
      "name": "RoleGranted",
      "type": "event"
    },
    {
      "anonymous": false,
      "inputs": [
        {
          "indexed": true,
          "internalType": "bytes32",
          "name": "role",
          "type": "bytes32"
        },
        {
          "indexed": true,
          "internalType": "address",
          "name": "account",
          "type": "address"
        },
        {
          "indexed": true,
          "internalType": "address",
          "name": "sender",
          "type": "address"
        }
      ],
      "name": "RoleRevoked",
      "type": "event"
    },
    {
      "anonymous": false,
      "inputs": [
        {
          "indexed": true,
          "internalType": "address",
          "name": "upgrade",
          "type": "address"
        },
        {
          "indexed": false,
          "internalType": "uint256",
          "name": "value",
          "type": "uint256"
        },
        {
          "indexed": false,
          "internalType": "bytes",
          "name": "data",
          "type": "bytes"
        }
      ],
      "name": "UpgradeExecuted",
      "type": "event"
    },
    {
      "inputs": [],
      "name": "ADMIN_ROLE",
      "outputs": [
        {
          "internalType": "bytes32",
          "name": "",
          "type": "bytes32"
        }
      ],
      "stateMutability": "view",
      "type": "function"
    },
    {
      "inputs": [],
      "name": "DEFAULT_ADMIN_ROLE",
      "outputs": [
        {
          "internalType": "bytes32",
          "name": "",
          "type": "bytes32"
        }
      ],
      "stateMutability": "view",
      "type": "function"
    },
    {
      "inputs": [],
      "name": "EXECUTOR_ROLE",
      "outputs": [
        {
          "internalType": "bytes32",
          "name": "",
          "type": "bytes32"
        }
      ],
      "stateMutability": "view",
      "type": "function"
    },
    {
      "inputs": [
        {
          "internalType": "address",
          "name": "upgrade",
          "type": "address"
        },
        {
          "internalType": "bytes",
          "name": "upgradeCallData",
          "type": "bytes"
        }
      ],
      "name": "execute",
      "outputs": [],
      "stateMutability": "payable",
      "type": "function"
    },
    {
      "inputs": [
        {
          "internalType": "bytes32",
          "name": "role",
          "type": "bytes32"
        }
      ],
      "name": "getRoleAdmin",
      "outputs": [
        {
          "internalType": "bytes32",
          "name": "",
          "type": "bytes32"
        }
      ],
      "stateMutability": "view",
      "type": "function"
    },
    {
      "inputs": [
        {
          "internalType": "bytes32",
          "name": "role",
          "type": "bytes32"
        },
        {
          "internalType": "address",
          "name": "account",
          "type": "address"
        }
      ],
      "name": "grantRole",
      "outputs": [],
      "stateMutability": "nonpayable",
      "type": "function"
    },
    {
      "inputs": [
        {
          "internalType": "bytes32",
          "name": "role",
          "type": "bytes32"
        },
        {
          "internalType": "address",
          "name": "account",
          "type": "address"
        }
      ],
      "name": "hasRole",
      "outputs": [
        {
          "internalType": "bool",
          "name": "",
          "type": "bool"
        }
      ],
      "stateMutability": "view",
      "type": "function"
    },
    {
      "inputs": [
        {
          "internalType": "bytes32",
          "name": "role",
          "type": "bytes32"
        },
        {
          "internalType": "address",
          "name": "account",
          "type": "address"
        }
      ],
      "name": "renounceRole",
      "outputs": [],
      "stateMutability": "nonpayable",
      "type": "function"
    },
    {
      "inputs": [
        {
          "internalType": "bytes32",
          "name": "role",
          "type": "bytes32"
        },
        {
          "internalType": "address",
          "name": "account",
          "type": "address"
        }
      ],
      "name": "revokeRole",
      "outputs": [],
      "stateMutability": "nonpayable",
      "type": "function"
    },
    {
      "inputs": [
        {
          "internalType": "bytes4",
          "name": "interfaceId",
          "type": "bytes4"
        }
      ],
      "name": "supportsInterface",
      "outputs": [
        {
          "internalType": "bool",
          "name": "",
          "type": "bool"
        }
      ],
      "stateMutability": "view",
      "type": "function"
    }
  ],
  "transactionHash": "0x8f27c64af1fc80f0a3d9caa65d16a5845cdae30a8390c0117d77cbaf4e88da87",
  "args": [
    [
      "0x7e9c956e3EFA81Ace71905Ff0dAEf1A71f42CBC5",
      "0xa5e4514145463385aEF763Fc8161CB42b92c74f2",
      "0x256eFfCeA2ab308D31e318728D2615545171d85B"
    ]
  ],
  "numDeployments": 1,
  "solcInputHash": "52fc4d6e30cbda5b0161d89208b5f842",
  "bytecode": "0x60806040523480156200001157600080fd5b5060405162000f3538038062000f3583398101604081905262000034916200021e565b60018055306200005460008051602062000f1583398151915280620000ff565b6200007e60008051602062000ef583398151915260008051602062000f15833981519152620000ff565b6200009960008051602062000f15833981519152826200014a565b60005b8251811015620000f657620000e360008051602062000ef5833981519152848381518110620000cf57620000cf620002f0565b60200260200101516200014a60201b60201c565b620000ee8162000306565b90506200009c565b5050506200032e565b600082815260208190526040808220600101805490849055905190918391839186917fbd79b86ffe0ab8e8776151514217cd7cacd52c909f66475c3af44e129f0b00ff9190a4505050565b6000828152602081815260408083206001600160a01b038516845290915290205460ff16620001e7576000828152602081815260408083206001600160a01b03851684529091529020805460ff19166001179055620001a63390565b6001600160a01b0316816001600160a01b0316837f2f8788117e7eff1d82e926ec794901d17c78024a50270940304540a733656f0d60405160405180910390a45b5050565b634e487b7160e01b600052604160045260246000fd5b80516001600160a01b03811681146200021957600080fd5b919050565b600060208083850312156200023257600080fd5b82516001600160401b03808211156200024a57600080fd5b818501915085601f8301126200025f57600080fd5b815181811115620002745762000274620001eb565b8060051b604051601f19603f830116810181811085821117156200029c576200029c620001eb565b604052918252848201925083810185019188831115620002bb57600080fd5b938501935b82851015620002e457620002d48562000201565b84529385019392850192620002c0565b98975050505050505050565b634e487b7160e01b600052603260045260246000fd5b6000600182016200032757634e487b7160e01b600052601160045260246000fd5b5060010190565b610bb7806200033e6000396000f3fe6080604052600436106100915760003560e01c806336568abe1161005957806336568abe1461017257806375b238fc1461019257806391d14854146101c6578063a217fddf146101e6578063d547741f146101fb57600080fd5b806301ffc9a71461009657806307bd0265146100cb5780631cff79cd1461010d578063248a9ca3146101225780632f2ff15d14610152575b600080fd5b3480156100a257600080fd5b506100b66100b136600461085a565b61021b565b60405190151581526020015b60405180910390f35b3480156100d757600080fd5b506100ff7fd8aa0f3194971a2a116679f7c2090f6939c8d4e01a2a8d7e41d55e5351469e6381565b6040519081526020016100c2565b61012061011b3660046108b6565b610252565b005b34801561012e57600080fd5b506100ff61013d366004610978565b60009081526020819052604090206001015490565b34801561015e57600080fd5b5061012061016d366004610991565b610356565b34801561017e57600080fd5b5061012061018d366004610991565b610380565b34801561019e57600080fd5b506100ff7fa49807205ce4d355092ef5a8a18f56e8913cf4a201fbe287825b095693c2177581565b3480156101d257600080fd5b506100b66101e1366004610991565b6103fe565b3480156101f257600080fd5b506100ff600081565b34801561020757600080fd5b50610120610216366004610991565b610427565b60006001600160e01b03198216637965db0b60e01b148061024c57506301ffc9a760e01b6001600160e01b03198316145b92915050565b7fd8aa0f3194971a2a116679f7c2090f6939c8d4e01a2a8d7e41d55e5351469e6361027c8161044c565b6002600154036102d35760405162461bcd60e51b815260206004820152601f60248201527f5265656e7472616e637947756172643a207265656e7472616e742063616c6c0060448201526064015b60405180910390fd5b6002600181905550610309826040518060600160405280603a8152602001610b48603a91396001600160a01b0386169190610459565b50826001600160a01b03167f49f6851d1cd01a518db5bdea5cffbbe90276baa2595f74250b7472b96806302e3484604051610345929190610a0d565b60405180910390a250506001805550565b6000828152602081905260409020600101546103718161044c565b61037b8383610538565b505050565b6001600160a01b03811633146103f05760405162461bcd60e51b815260206004820152602f60248201527f416363657373436f6e74726f6c3a2063616e206f6e6c792072656e6f756e636560448201526e103937b632b9903337b91039b2b63360891b60648201526084016102ca565b6103fa82826105bc565b5050565b6000918252602082815260408084206001600160a01b0393909316845291905290205460ff1690565b6000828152602081905260409020600101546104428161044c565b61037b83836105bc565b6104568133610621565b50565b60606001600160a01b0384163b6104c15760405162461bcd60e51b815260206004820152602660248201527f416464726573733a2064656c65676174652063616c6c20746f206e6f6e2d636f6044820152651b9d1c9858dd60d21b60648201526084016102ca565b600080856001600160a01b0316856040516104dc9190610a2e565b600060405180830381855af49150503d8060008114610517576040519150601f19603f3d011682016040523d82523d6000602084013e61051c565b606091505b509150915061052c828286610685565b925050505b9392505050565b61054282826103fe565b6103fa576000828152602081815260408083206001600160a01b03851684529091529020805460ff191660011790556105783390565b6001600160a01b0316816001600160a01b0316837f2f8788117e7eff1d82e926ec794901d17c78024a50270940304540a733656f0d60405160405180910390a45050565b6105c682826103fe565b156103fa576000828152602081815260408083206001600160a01b0385168085529252808320805460ff1916905551339285917ff6391f5c32d9c69d2a47ea670b442974b53935d1edc7fd64eb21e047a839171b9190a45050565b61062b82826103fe565b6103fa57610643816001600160a01b031660146106be565b61064e8360206106be565b60405160200161065f929190610a4a565b60408051601f198184030181529082905262461bcd60e51b82526102ca91600401610abf565b60608315610694575081610531565b8251156106a45782518084602001fd5b8160405162461bcd60e51b81526004016102ca9190610abf565b606060006106cd836002610ae8565b6106d8906002610b07565b67ffffffffffffffff8111156106f0576106f06108a0565b6040519080825280601f01601f19166020018201604052801561071a576020820181803683370190505b509050600360fc1b8160008151811061073557610735610b1a565b60200101906001600160f81b031916908160001a905350600f60fb1b8160018151811061076457610764610b1a565b60200101906001600160f81b031916908160001a9053506000610788846002610ae8565b610793906001610b07565b90505b600181111561080b576f181899199a1a9b1b9c1cb0b131b232b360811b85600f16601081106107c7576107c7610b1a565b1a60f81b8282815181106107dd576107dd610b1a565b60200101906001600160f81b031916908160001a90535060049490941c9361080481610b30565b9050610796565b5083156105315760405162461bcd60e51b815260206004820181905260248201527f537472696e67733a20686578206c656e67746820696e73756666696369656e7460448201526064016102ca565b60006020828403121561086c57600080fd5b81356001600160e01b03198116811461053157600080fd5b80356001600160a01b038116811461089b57600080fd5b919050565b634e487b7160e01b600052604160045260246000fd5b600080604083850312156108c957600080fd5b6108d283610884565b9150602083013567ffffffffffffffff808211156108ef57600080fd5b818501915085601f83011261090357600080fd5b813581811115610915576109156108a0565b604051601f8201601f19908116603f0116810190838211818310171561093d5761093d6108a0565b8160405282815288602084870101111561095657600080fd5b8260208601602083013760006020848301015280955050505050509250929050565b60006020828403121561098a57600080fd5b5035919050565b600080604083850312156109a457600080fd5b823591506109b460208401610884565b90509250929050565b60005b838110156109d85781810151838201526020016109c0565b50506000910152565b600081518084526109f98160208601602086016109bd565b601f01601f19169290920160200192915050565b828152604060208201526000610a2660408301846109e1565b949350505050565b60008251610a408184602087016109bd565b9190910192915050565b7f416363657373436f6e74726f6c3a206163636f756e7420000000000000000000815260008351610a828160178501602088016109bd565b7001034b99036b4b9b9b4b733903937b6329607d1b6017918401918201528351610ab38160288401602088016109bd565b01602801949350505050565b60208152600061053160208301846109e1565b634e487b7160e01b600052601160045260246000fd5b6000816000190483118215151615610b0257610b02610ad2565b500290565b8082018082111561024c5761024c610ad2565b634e487b7160e01b600052603260045260246000fd5b600081610b3f57610b3f610ad2565b50600019019056fe557067726164654578656375746f723a20696e6e65722064656c65676174652063616c6c206661696c656420776974686f757420726561736f6ea26469706673582212200357c6c663ca014b415b88e4ab75bd3afba1c2cdf73b1db171391ddd9f001b9b64736f6c63430008100033d8aa0f3194971a2a116679f7c2090f6939c8d4e01a2a8d7e41d55e5351469e63a49807205ce4d355092ef5a8a18f56e8913cf4a201fbe287825b095693c21775",
  "devdoc": {
    "details": "We use these upgrade contracts as they allow multiple actions to take place in an upgrade         and for these actions to interact. However because we are delegatecalling into these upgrade         contracts, it's important that these upgrade contract do not touch or modify contract state.",
    "kind": "dev",
    "methods": {
      "constructor": {
        "params": {
          "executors": "Can call the execute function - EXECUTOR_ROLE"
        }
      },
      "execute(address,bytes)": {
        "details": "Only executor can call this. Since we're using a delegatecall here the Upgrade contract         will have access to the state of this contract - including the roles. Only upgrade contracts         that do not touch local state should be used."
      },
      "getRoleAdmin(bytes32)": {
        "details": "Returns the admin role that controls `role`. See {grantRole} and {revokeRole}. To change a role's admin, use {_setRoleAdmin}."
      },
      "grantRole(bytes32,address)": {
        "details": "Grants `role` to `account`. If `account` had not been already granted `role`, emits a {RoleGranted} event. Requirements: - the caller must have ``role``'s admin role. May emit a {RoleGranted} event."
      },
      "hasRole(bytes32,address)": {
        "details": "Returns `true` if `account` has been granted `role`."
      },
      "renounceRole(bytes32,address)": {
        "details": "Revokes `role` from the calling account. Roles are often managed via {grantRole} and {revokeRole}: this function's purpose is to provide a mechanism for accounts to lose their privileges if they are compromised (such as when a trusted device is misplaced). If the calling account had been revoked `role`, emits a {RoleRevoked} event. Requirements: - the caller must be `account`. May emit a {RoleRevoked} event."
      },
      "revokeRole(bytes32,address)": {
        "details": "Revokes `role` from `account`. If `account` had been granted `role`, emits a {RoleRevoked} event. Requirements: - the caller must have ``role``'s admin role. May emit a {RoleRevoked} event."
      },
      "supportsInterface(bytes4)": {
        "details": "See {IERC165-supportsInterface}."
      }
    },
    "title": "A root contract from which it execute upgrades",
    "version": 1
  },
  "userdoc": {
    "events": {
      "UpgradeExecuted(address,uint256,bytes)": {
        "notice": "Emitted when an upgrade execution occurs"
      }
    },
    "kind": "user",
    "methods": {
      "constructor": {
        "notice": "Initialise the upgrade executor"
      },
      "execute(address,bytes)": {
        "notice": "Execute an upgrade by delegate calling an upgrade contract"
      }
    },
    "notice": "Does not contain upgrade logic itself, only the means to call upgrade contracts and execute them",
    "version": 1
  },
  "storageLayout": {
    "storage": [
      {
        "astId": 2230,
        "contract": "src/UpgradeExecutor.sol:UpgradeExecutor",
        "label": "_roles",
        "offset": 0,
        "slot": "0",
        "type": "t_mapping(t_bytes32,t_struct(RoleData)2225_storage)"
      },
      {
        "astId": 3433,
        "contract": "src/UpgradeExecutor.sol:UpgradeExecutor",
        "label": "_status",
        "offset": 0,
        "slot": "1",
        "type": "t_uint256"
      }
    ],
    "types": {
      "t_address": {
        "encoding": "inplace",
        "label": "address",
        "numberOfBytes": "20"
      },
      "t_bool": {
        "encoding": "inplace",
        "label": "bool",
        "numberOfBytes": "1"
      },
      "t_bytes32": {
        "encoding": "inplace",
        "label": "bytes32",
        "numberOfBytes": "32"
      },
      "t_mapping(t_address,t_bool)": {
        "encoding": "mapping",
        "key": "t_address",
        "label": "mapping(address => bool)",
        "numberOfBytes": "32",
        "value": "t_bool"
      },
      "t_mapping(t_bytes32,t_struct(RoleData)2225_storage)": {
        "encoding": "mapping",
        "key": "t_bytes32",
        "label": "mapping(bytes32 => struct AccessControl.RoleData)",
        "numberOfBytes": "32",
        "value": "t_struct(RoleData)2225_storage"
      },
      "t_struct(RoleData)2225_storage": {
        "encoding": "inplace",
        "label": "struct AccessControl.RoleData",
        "members": [
          {
            "astId": 2222,
            "contract": "src/UpgradeExecutor.sol:UpgradeExecutor",
            "label": "members",
            "offset": 0,
            "slot": "0",
            "type": "t_mapping(t_address,t_bool)"
          },
          {
            "astId": 2224,
            "contract": "src/UpgradeExecutor.sol:UpgradeExecutor",
            "label": "adminRole",
            "offset": 0,
            "slot": "1",
            "type": "t_bytes32"
          }
        ],
        "numberOfBytes": "64"
      },
      "t_uint256": {
        "encoding": "inplace",
        "label": "uint256",
        "numberOfBytes": "32"
      }
    }
  }
}