{
  "_format": "hh-sol-artifact-1",
  "contractName": "TestERC721WithRoyaltiesV1OwnableUpgradeable",
  "sourceName": "contracts/test/tokens/TestERC721WithRoyaltyV1OwnableUpgradeable.sol",
  "abi": [
    {
      "anonymous": false,
      "inputs": [
        {
          "indexed": true,
          "internalType": "address",
          "name": "owner",
          "type": "address"
        },
        {
          "indexed": true,
          "internalType": "address",
          "name": "approved",
          "type": "address"
        },
        {
          "indexed": true,
          "internalType": "uint256",
          "name": "tokenId",
          "type": "uint256"
        }
      ],
      "name": "Approval",
      "type": "event"
    },
    {
      "anonymous": false,
      "inputs": [
        {
          "indexed": true,
          "internalType": "address",
          "name": "owner",
          "type": "address"
        },
        {
          "indexed": true,
          "internalType": "address",
          "name": "operator",
          "type": "address"
        },
        {
          "indexed": false,
          "internalType": "bool",
          "name": "approved",
          "type": "bool"
        }
      ],
      "name": "ApprovalForAll",
      "type": "event"
    },
    {
      "anonymous": false,
      "inputs": [
        {
          "indexed": true,
          "internalType": "address",
          "name": "previousOwner",
          "type": "address"
        },
        {
          "indexed": true,
          "internalType": "address",
          "name": "newOwner",
          "type": "address"
        }
      ],
      "name": "OwnershipTransferred",
      "type": "event"
    },
    {
      "anonymous": false,
      "inputs": [
        {
          "indexed": false,
          "internalType": "uint256",
          "name": "tokenId",
          "type": "uint256"
        },
        {
          "indexed": false,
          "internalType": "address[]",
          "name": "recipients",
          "type": "address[]"
        },
        {
          "indexed": false,
          "internalType": "uint256[]",
          "name": "bps",
          "type": "uint256[]"
        }
      ],
      "name": "SecondarySaleFees",
      "type": "event"
    },
    {
      "anonymous": false,
      "inputs": [
        {
          "indexed": true,
          "internalType": "address",
          "name": "from",
          "type": "address"
        },
        {
          "indexed": true,
          "internalType": "address",
          "name": "to",
          "type": "address"
        },
        {
          "indexed": true,
          "internalType": "uint256",
          "name": "tokenId",
          "type": "uint256"
        }
      ],
      "name": "Transfer",
      "type": "event"
    },
    {
      "inputs": [
        {
          "internalType": "address",
          "name": "to",
          "type": "address"
        },
        {
          "internalType": "uint256",
          "name": "tokenId",
          "type": "uint256"
        }
      ],
      "name": "approve",
      "outputs": [],
      "stateMutability": "nonpayable",
      "type": "function"
    },
    {
      "inputs": [
        {
          "internalType": "address",
          "name": "owner",
          "type": "address"
        }
      ],
      "name": "balanceOf",
      "outputs": [
        {
          "internalType": "uint256",
          "name": "",
          "type": "uint256"
        }
      ],
      "stateMutability": "view",
      "type": "function"
    },
    {
      "inputs": [],
      "name": "baseURI",
      "outputs": [
        {
          "internalType": "string",
          "name": "",
          "type": "string"
        }
      ],
      "stateMutability": "view",
      "type": "function"
    },
    {
      "inputs": [
        {
          "internalType": "uint256",
          "name": "tokenId",
          "type": "uint256"
        }
      ],
      "name": "getApproved",
      "outputs": [
        {
          "internalType": "address",
          "name": "",
          "type": "address"
        }
      ],
      "stateMutability": "view",
      "type": "function"
    },
    {
      "inputs": [
        {
          "internalType": "uint256",
          "name": "id",
          "type": "uint256"
        }
      ],
      "name": "getFeeBps",
      "outputs": [
        {
          "internalType": "uint256[]",
          "name": "",
          "type": "uint256[]"
        }
      ],
      "stateMutability": "view",
      "type": "function"
    },
    {
      "inputs": [
        {
          "internalType": "uint256",
          "name": "id",
          "type": "uint256"
        }
      ],
      "name": "getFeeRecipients",
      "outputs": [
        {
          "internalType": "address payable[]",
          "name": "",
          "type": "address[]"
        }
      ],
      "stateMutability": "view",
      "type": "function"
    },
    {
      "inputs": [],
      "name": "initialize",
      "outputs": [],
      "stateMutability": "nonpayable",
      "type": "function"
    },
    {
      "inputs": [
        {
          "internalType": "address",
          "name": "owner",
          "type": "address"
        },
        {
          "internalType": "address",
          "name": "operator",
          "type": "address"
        }
      ],
      "name": "isApprovedForAll",
      "outputs": [
        {
          "internalType": "bool",
          "name": "",
          "type": "bool"
        }
      ],
      "stateMutability": "view",
      "type": "function"
    },
    {
      "inputs": [
        {
          "internalType": "address",
          "name": "to",
          "type": "address"
        },
        {
          "internalType": "uint256",
          "name": "tokenId",
          "type": "uint256"
        },
        {
          "components": [
            {
              "internalType": "address payable",
              "name": "account",
              "type": "address"
            },
            {
              "internalType": "uint96",
              "name": "value",
              "type": "uint96"
            }
          ],
          "internalType": "struct LibPart.Part[]",
          "name": "_fees",
          "type": "tuple[]"
        }
      ],
      "name": "mint",
      "outputs": [],
      "stateMutability": "nonpayable",
      "type": "function"
    },
    {
      "inputs": [],
      "name": "name",
      "outputs": [
        {
          "internalType": "string",
          "name": "",
          "type": "string"
        }
      ],
      "stateMutability": "view",
      "type": "function"
    },
    {
      "inputs": [],
      "name": "owner",
      "outputs": [
        {
          "internalType": "address",
          "name": "",
          "type": "address"
        }
      ],
      "stateMutability": "view",
      "type": "function"
    },
    {
      "inputs": [
        {
          "internalType": "uint256",
          "name": "tokenId",
          "type": "uint256"
        }
      ],
      "name": "ownerOf",
      "outputs": [
        {
          "internalType": "address",
          "name": "",
          "type": "address"
        }
      ],
      "stateMutability": "view",
      "type": "function"
    },
    {
      "inputs": [],
      "name": "renounceOwnership",
      "outputs": [],
      "stateMutability": "nonpayable",
      "type": "function"
    },
    {
      "inputs": [
        {
          "internalType": "address",
          "name": "from",
          "type": "address"
        },
        {
          "internalType": "address",
          "name": "to",
          "type": "address"
        },
        {
          "internalType": "uint256",
          "name": "tokenId",
          "type": "uint256"
        }
      ],
      "name": "safeTransferFrom",
      "outputs": [],
      "stateMutability": "nonpayable",
      "type": "function"
    },
    {
      "inputs": [
        {
          "internalType": "address",
          "name": "from",
          "type": "address"
        },
        {
          "internalType": "address",
          "name": "to",
          "type": "address"
        },
        {
          "internalType": "uint256",
          "name": "tokenId",
          "type": "uint256"
        },
        {
          "internalType": "bytes",
          "name": "_data",
          "type": "bytes"
        }
      ],
      "name": "safeTransferFrom",
      "outputs": [],
      "stateMutability": "nonpayable",
      "type": "function"
    },
    {
      "inputs": [
        {
          "internalType": "address",
          "name": "operator",
          "type": "address"
        },
        {
          "internalType": "bool",
          "name": "approved",
          "type": "bool"
        }
      ],
      "name": "setApprovalForAll",
      "outputs": [],
      "stateMutability": "nonpayable",
      "type": "function"
    },
    {
      "inputs": [
        {
          "internalType": "bytes4",
          "name": "interfaceId",
          "type": "bytes4"
        }
      ],
      "name": "supportsInterface",
      "outputs": [
        {
          "internalType": "bool",
          "name": "",
          "type": "bool"
        }
      ],
      "stateMutability": "view",
      "type": "function"
    },
    {
      "inputs": [],
      "name": "symbol",
      "outputs": [
        {
          "internalType": "string",
          "name": "",
          "type": "string"
        }
      ],
      "stateMutability": "view",
      "type": "function"
    },
    {
      "inputs": [
        {
          "internalType": "uint256",
          "name": "index",
          "type": "uint256"
        }
      ],
      "name": "tokenByIndex",
      "outputs": [
        {
          "internalType": "uint256",
          "name": "",
          "type": "uint256"
        }
      ],
      "stateMutability": "view",
      "type": "function"
    },
    {
      "inputs": [
        {
          "internalType": "address",
          "name": "owner",
          "type": "address"
        },
        {
          "internalType": "uint256",
          "name": "index",
          "type": "uint256"
        }
      ],
      "name": "tokenOfOwnerByIndex",
      "outputs": [
        {
          "internalType": "uint256",
          "name": "",
          "type": "uint256"
        }
      ],
      "stateMutability": "view",
      "type": "function"
    },
    {
      "inputs": [
        {
          "internalType": "uint256",
          "name": "tokenId",
          "type": "uint256"
        }
      ],
      "name": "tokenURI",
      "outputs": [
        {
          "internalType": "string",
          "name": "",
          "type": "string"
        }
      ],
      "stateMutability": "view",
      "type": "function"
    },
    {
      "inputs": [],
      "name": "totalSupply",
      "outputs": [
        {
          "internalType": "uint256",
          "name": "",
          "type": "uint256"
        }
      ],
      "stateMutability": "view",
      "type": "function"
    },
    {
      "inputs": [
        {
          "internalType": "address",
          "name": "from",
          "type": "address"
        },
        {
          "internalType": "address",
          "name": "to",
          "type": "address"
        },
        {
          "internalType": "uint256",
          "name": "tokenId",
          "type": "uint256"
        }
      ],
      "name": "transferFrom",
      "outputs": [],
      "stateMutability": "nonpayable",
      "type": "function"
    },
    {
      "inputs": [
        {
          "internalType": "address",
          "name": "newOwner",
          "type": "address"
        }
      ],
      "name": "transferOwnership",
      "outputs": [],
      "stateMutability": "nonpayable",
      "type": "function"
    }
  ],
  "bytecode": "0x608060405234801561001057600080fd5b50612833806100206000396000f3fe608060405234801561001057600080fd5b50600436106101585760003560e01c80636c0360eb116100c3578063a22cb4651161007c578063a22cb465146102b2578063b88d4fde146102c5578063b9c4d9fb146102d8578063c87b56dd146102f8578063e985e9c51461030b578063f2fde38b1461031e57610158565b80636c0360eb1461027757806370a082311461027f578063715018a6146102925780638129fc1c1461029a5780638da5cb5b146102a257806395d89b41146102aa57610158565b806323b872dd1161011557806323b872dd146102055780632f745c59146102185780633f0b47921461022b57806342842e0e1461023e5780634f6ccce7146102515780636352211e1461026457610158565b806301ffc9a71461015d57806306fdde0314610186578063081812fc1461019b578063095ea7b3146101bb5780630ebd4c7f146101d057806318160ddd146101f0575b600080fd5b61017061016b3660046123e4565b610331565b60405161017d91906124bd565b60405180910390f35b61018e610354565b60405161017d91906124c8565b6101ae6101a936600461240c565b6103ea565b60405161017d9190612424565b6101ce6101c93660046122af565b61044c565b005b6101e36101de36600461240c565b610522565b60405161017d9190612485565b6101f861063b565b60405161017d919061251b565b6101ce610213366004612188565b61064c565b6101f86102263660046122af565b6106a3565b6101ce6102393660046122da565b6106ce565b6101ce61024c366004612188565b6106e2565b6101f861025f36600461240c565b6106fd565b6101ae61027236600461240c565b61070b565b61018e610733565b6101f861028d366004612134565b610794565b6101ce6107fc565b6101ce6108ba565b6101ae610973565b61018e610982565b6101ce6102c036600461227e565b6109e3565b6101ce6102d33660046121c8565b610ae8565b6102eb6102e636600461240c565b610b46565b60405161017d9190612438565b61018e61030636600461240c565b610c5b565b610170610319366004612150565b610edc565b6101ce61032c366004612134565b610f0a565b6001600160e01b0319811660009081526034602052604090205460ff165b919050565b606b8054604080516020601f60026000196101006001881615020190951694909404938401819004810282018101909252828152606093909290918301828280156103e05780601f106103b5576101008083540402835291602001916103e0565b820191906000526020600020905b8154815290600101906020018083116103c357829003601f168201915b5050505050905090565b60006103f58261101f565b6104305760405162461bcd60e51b815260040180806020018281038252602c815260200180612703602c913960400191505060405180910390fd5b506000908152606960205260409020546001600160a01b031690565b60006104578261070b565b9050806001600160a01b0316836001600160a01b031614156104aa5760405162461bcd60e51b81526004018080602001828103825260218152602001806127876021913960400191505060405180910390fd5b806001600160a01b03166104bc61102c565b6001600160a01b031614806104d857506104d88161031961102c565b6105135760405162461bcd60e51b81526004018080602001828103825260388152602001806126286038913960400191505060405180910390fd5b61051d8383611030565b505050565b600081815260208181526040808320805482518185028101850190935280835260609493849084015b8282101561059a57600084815260209081902060408051808201909152908401546001600160a01b0381168252600160a01b90046001600160601b03168183015282526001909201910161054b565b5050505090506000815167ffffffffffffffff811180156105ba57600080fd5b506040519080825280602002602001820160405280156105e4578160200160208202803683370190505b50905060005b8251811015610633578281815181106105ff57fe5b6020026020010151602001516001600160601b031682828151811061062057fe5b60209081029190910101526001016105ea565b509392505050565b6000610647606761109e565b905090565b61065d61065761102c565b826110a9565b6106985760405162461bcd60e51b81526004018080602001828103825260318152602001806127a86031913960400191505060405180910390fd5b61051d83838361114d565b6001600160a01b03821660009081526066602052604081206106c59083611299565b90505b92915050565b6106d883836112a5565b61051d82826113d3565b61051d83838360405180602001604052806000815250610ae8565b6000806106336067846115c0565b60006106c88260405180606001604052806029815260200161268a60299139606791906115dc565b606e8054604080516020601f60026000196101006001881615020190951694909404938401819004810282018101909252828152606093909290918301828280156103e05780601f106103b5576101008083540402835291602001916103e0565b60006001600160a01b0382166107db5760405162461bcd60e51b815260040180806020018281038252602a815260200180612660602a913960400191505060405180910390fd5b6001600160a01b03821660009081526066602052604090206106c89061109e565b61080461102c565b6001600160a01b0316610815610973565b6001600160a01b031614610870576040805162461bcd60e51b815260206004820181905260248201527f4f776e61626c653a2063616c6c6572206973206e6f7420746865206f776e6572604482015290519081900360640190fd5b6098546040516000916001600160a01b0316907f8be0079c531659141344cd1fd0a4f28419497f9722a3daafe3b4186f6b6457e0908390a3609880546001600160a01b0319169055565b600154610100900460ff16806108d357506108d36115f3565b806108e1575060015460ff16155b61091c5760405162461bcd60e51b815260040180806020018281038252602e8152602001806126b3602e913960400191505060405180910390fd5b600154610100900460ff16158015610946576001805460ff1961ff00199091166101001716811790555b610956632dde656160e21b611604565b61095e611688565b8015610970576001805461ff00191690555b50565b6098546001600160a01b031690565b606c8054604080516020601f60026000196101006001881615020190951694909404938401819004810282018101909252828152606093909290918301828280156103e05780601f106103b5576101008083540402835291602001916103e0565b6109eb61102c565b6001600160a01b0316826001600160a01b03161415610a51576040805162461bcd60e51b815260206004820152601960248201527f4552433732313a20617070726f766520746f2063616c6c657200000000000000604482015290519081900360640190fd5b80606a6000610a5e61102c565b6001600160a01b03908116825260208083019390935260409182016000908120918716808252919093529120805460ff191692151592909217909155610aa261102c565b6001600160a01b03167f17307eab39ab6107e8899845ad3d59bd9653f200f220920489ca2b5937696c318360405180821515815260200191505060405180910390a35050565b610af9610af361102c565b836110a9565b610b345760405162461bcd60e51b81526004018080602001828103825260318152602001806127a86031913960400191505060405180910390fd5b610b4084848484611780565b50505050565b600081815260208181526040808320805482518185028101850190935280835260609493849084015b82821015610bbe57600084815260209081902060408051808201909152908401546001600160a01b0381168252600160a01b90046001600160601b031681830152825260019092019101610b6f565b5050505090506000815167ffffffffffffffff81118015610bde57600080fd5b50604051908082528060200260200182016040528015610c08578160200160208202803683370190505b50905060005b825181101561063357828181518110610c2357fe5b602002602001015160000151828281518110610c3b57fe5b6001600160a01b0390921660209283029190910190910152600101610c0e565b6060610c668261101f565b610ca15760405162461bcd60e51b815260040180806020018281038252602f815260200180612758602f913960400191505060405180910390fd5b6000828152606d602090815260408083208054825160026001831615610100026000190190921691909104601f810185900485028201850190935282815292909190830182828015610d345780601f10610d0957610100808354040283529160200191610d34565b820191906000526020600020905b815481529060010190602001808311610d1757829003601f168201915b505050505090506000610d45610733565b9050805160001415610d595750905061034f565b815115610e1a5780826040516020018083805190602001908083835b60208310610d945780518252601f199092019160209182019101610d75565b51815160209384036101000a600019018019909216911617905285519190930192850191508083835b60208310610ddc5780518252601f199092019160209182019101610dbd565b6001836020036101000a038019825116818451168082178552505050505050905001925050506040516020818303038152906040529250505061034f565b80610e24856117d2565b6040516020018083805190602001908083835b60208310610e565780518252601f199092019160209182019101610e37565b51815160209384036101000a600019018019909216911617905285519190930192850191508083835b60208310610e9e5780518252601f199092019160209182019101610e7f565b6001836020036101000a0380198251168184511680821785525050505050509050019250505060405160208183030381529060405292505050919050565b6001600160a01b039182166000908152606a6020908152604080832093909416825291909152205460ff1690565b610f1261102c565b6001600160a01b0316610f23610973565b6001600160a01b031614610f7e576040805162461bcd60e51b815260206004820181905260248201527f4f776e61626c653a2063616c6c6572206973206e6f7420746865206f776e6572604482015290519081900360640190fd5b6001600160a01b038116610fc35760405162461bcd60e51b81526004018080602001828103825260268152602001806125b26026913960400191505060405180910390fd5b6098546040516001600160a01b038084169216907f8be0079c531659141344cd1fd0a4f28419497f9722a3daafe3b4186f6b6457e090600090a3609880546001600160a01b0319166001600160a01b0392909216919091179055565b60006106c86067836118ad565b3390565b600081815260696020526040902080546001600160a01b0319166001600160a01b03841690811790915581906110658261070b565b6001600160a01b03167f8c5be1e5ebec7d5bd14f71427d1e84f3dd0314c0f7b2291e5b200ac8c7c3b92560405160405180910390a45050565b60006106c8826118b9565b60006110b48261101f565b6110ef5760405162461bcd60e51b815260040180806020018281038252602c8152602001806125fc602c913960400191505060405180910390fd5b60006110fa8361070b565b9050806001600160a01b0316846001600160a01b031614806111355750836001600160a01b031661112a846103ea565b6001600160a01b0316145b8061114557506111458185610edc565b949350505050565b826001600160a01b03166111608261070b565b6001600160a01b0316146111a55760405162461bcd60e51b815260040180806020018281038252602981526020018061272f6029913960400191505060405180910390fd5b6001600160a01b0382166111ea5760405162461bcd60e51b81526004018080602001828103825260248152602001806125d86024913960400191505060405180910390fd5b6111f583838361051d565b611200600082611030565b6001600160a01b038316600090815260666020526040902061122290826118bd565b506001600160a01b038216600090815260666020526040902061124590826118c9565b50611252606782846118d5565b5080826001600160a01b0316846001600160a01b03167fddf252ad1be2c89b69c2b068fc378daa952ba7f163c4a11628f55a4df523b3ef60405160405180910390a4505050565b60006106c583836118eb565b6001600160a01b038216611300576040805162461bcd60e51b815260206004820181905260248201527f4552433732313a206d696e7420746f20746865207a65726f2061646472657373604482015290519081900360640190fd5b6113098161101f565b1561135b576040805162461bcd60e51b815260206004820152601c60248201527f4552433732313a20746f6b656e20616c7265616479206d696e74656400000000604482015290519081900360640190fd5b6113676000838361051d565b6001600160a01b038216600090815260666020526040902061138990826118c9565b50611396606782846118d5565b5060405181906001600160a01b038416906000907fddf252ad1be2c89b69c2b068fc378daa952ba7f163c4a11628f55a4df523b3ef908290a45050565b6000805b82518110156115755760006001600160a01b03168382815181106113f757fe5b6020026020010151600001516001600160a01b0316141561145f576040805162461bcd60e51b815260206004820152601b60248201527f526563697069656e742073686f756c642062652070726573656e740000000000604482015290519081900360640190fd5b82818151811061146b57fe5b6020026020010151602001516001600160601b0316600014156114d5576040805162461bcd60e51b815260206004820181905260248201527f526f79616c74792076616c75652073686f756c6420626520706f736974697665604482015290519081900360640190fd5b8281815181106114e157fe5b6020026020010151602001516001600160601b03168201915060008085815260200190815260200160002083828151811061151857fe5b60209081029190910181015182546001818101855560009485529383902082519101805492909301516001600160601b0316600160a01b026001600160a01b039182166001600160a01b03199093169290921716179055016113d7565b5061271081106115b65760405162461bcd60e51b81526004018080602001828103825260258152602001806127d96025913960400191505060405180910390fd5b61051d838361194f565b60008080806115cf8686611b37565b9097909650945050505050565b60006115e9848484611bb2565b90505b9392505050565b60006115fe30611c7c565b15905090565b6001600160e01b03198082161415611663576040805162461bcd60e51b815260206004820152601c60248201527f4552433136353a20696e76616c696420696e7465726661636520696400000000604482015290519081900360640190fd5b6001600160e01b0319166000908152603460205260409020805460ff19166001179055565b600154610100900460ff16806116a157506116a16115f3565b806116af575060015460ff16155b6116ea5760405162461bcd60e51b815260040180806020018281038252602e8152602001806126b3602e913960400191505060405180910390fd5b600154610100900460ff16158015611714576001805460ff1961ff00199091166101001716811790555b600061171e61102c565b609880546001600160a01b0319166001600160a01b038316908117909155604051919250906000907f8be0079c531659141344cd1fd0a4f28419497f9722a3daafe3b4186f6b6457e0908290a3508015610970576001805461ff001916905550565b61178b84848461114d565b61179784848484611c82565b610b405760405162461bcd60e51b81526004018080602001828103825260328152602001806125806032913960400191505060405180910390fd5b6060816117f757506040805180820190915260018152600360fc1b602082015261034f565b8160005b811561180f57600101600a820491506117fb565b60008167ffffffffffffffff8111801561182857600080fd5b506040519080825280601f01601f191660200182016040528015611853576020820181803683370190505b50859350905060001982015b83156118a457600a840660300160f81b8282806001900393508151811061188257fe5b60200101906001600160f81b031916908160001a905350600a8404935061185f565b50949350505050565b60006106c58383611dea565b5490565b60006106c58383611e02565b60006106c58383611ec8565b60006115e984846001600160a01b038516611f12565b8154600090821061192d5760405162461bcd60e51b815260040180806020018281038252602281526020018061255e6022913960400191505060405180910390fd5b82600001828154811061193c57fe5b9060005260206000200154905092915050565b6000815167ffffffffffffffff8111801561196957600080fd5b50604051908082528060200260200182016040528015611993578160200160208202803683370190505b5090506000825167ffffffffffffffff811180156119b057600080fd5b506040519080825280602002602001820160405280156119da578160200160208202803683370190505b50905060005b8351811015611a6d578381815181106119f557fe5b602002602001015160000151838281518110611a0d57fe5b60200260200101906001600160a01b031690816001600160a01b031681525050838181518110611a3957fe5b6020026020010151602001516001600160601b0316828281518110611a5a57fe5b60209081029190910101526001016119e0565b507f99aba1d63749cfd5ad1afda7c4663840924d54eb5f005bbbeadedc6ec13674b2848383604051808481526020018060200180602001838103835285818151815260200191508051906020019060200280838360005b83811015611adc578181015183820152602001611ac4565b50505050905001838103825284818151815260200191508051906020019060200280838360005b83811015611b1b578181015183820152602001611b03565b505050509050019550505050505060405180910390a150505050565b815460009081908310611b7b5760405162461bcd60e51b81526004018080602001828103825260228152602001806126e16022913960400191505060405180910390fd5b6000846000018481548110611b8c57fe5b906000526020600020906002020190508060000154816001015492509250509250929050565b60008281526001840160205260408120548281611c4d5760405162461bcd60e51b81526004018080602001828103825283818151815260200191508051906020019080838360005b83811015611c12578181015183820152602001611bfa565b50505050905090810190601f168015611c3f5780820380516001836020036101000a031916815260200191505b509250505060405180910390fd5b50846000016001820381548110611c6057fe5b9060005260206000209060020201600101549150509392505050565b3b151590565b6000611c96846001600160a01b0316611c7c565b611ca257506001611145565b6000611db0630a85bd0160e11b611cb761102c565b88878760405160240180856001600160a01b03168152602001846001600160a01b0316815260200183815260200180602001828103825283818151815260200191508051906020019080838360005b83811015611d1e578181015183820152602001611d06565b50505050905090810190601f168015611d4b5780820380516001836020036101000a031916815260200191505b5095505050505050604051602081830303815290604052906001600160e01b0319166020820180516001600160e01b038381831617835250505050604051806060016040528060328152602001612580603291396001600160a01b0388169190611fa9565b90506000818060200190516020811015611dc957600080fd5b50516001600160e01b031916630a85bd0160e11b1492505050949350505050565b60009081526001919091016020526040902054151590565b60008181526001830160205260408120548015611ebe5783546000198083019190810190600090879083908110611e3557fe5b9060005260206000200154905080876000018481548110611e5257fe5b600091825260208083209091019290925582815260018981019092526040902090840190558654879080611e8257fe5b600190038181906000526020600020016000905590558660010160008781526020019081526020016000206000905560019450505050506106c8565b60009150506106c8565b6000611ed48383611dea565b611f0a575081546001818101845560008481526020808220909301849055845484825282860190935260409020919091556106c8565b5060006106c8565b600082815260018401602052604081205480611f775750506040805180820182528381526020808201848152865460018181018955600089815284812095516002909302909501918255915190820155865486845281880190925292909120556115ec565b82856000016001830381548110611f8a57fe5b90600052602060002090600202016001018190555060009150506115ec565b60606115e9848460008585611fbd85611c7c565b61200e576040805162461bcd60e51b815260206004820152601d60248201527f416464726573733a2063616c6c20746f206e6f6e2d636f6e7472616374000000604482015290519081900360640190fd5b600080866001600160a01b031685876040518082805190602001908083835b6020831061204c5780518252601f19909201916020918201910161202d565b6001836020036101000a03801982511681845116808217855250505050505090500191505060006040518083038185875af1925050503d80600081146120ae576040519150601f19603f3d011682016040523d82523d6000602084013e6120b3565b606091505b50915091506120c38282866120ce565b979650505050505050565b606083156120dd5750816115ec565b8251156120ed5782518084602001fd5b60405162461bcd60e51b8152602060048201818152845160248401528451859391928392604401919085019080838360008315611c12578181015183820152602001611bfa565b600060208284031215612145578081fd5b81356115ec81612548565b60008060408385031215612162578081fd5b823561216d81612548565b9150602083013561217d81612548565b809150509250929050565b60008060006060848603121561219c578081fd5b83356121a781612548565b925060208401356121b781612548565b929592945050506040919091013590565b600080600080608085870312156121dd578081fd5b84356121e881612548565b93506020858101356121f981612548565b935060408601359250606086013567ffffffffffffffff8082111561221c578384fd5b818801915088601f83011261222f578384fd5b81358181111561223b57fe5b61224d601f8201601f19168501612524565b91508082528984828501011115612262578485fd5b8084840185840137810190920192909252939692955090935050565b60008060408385031215612290578182fd5b823561229b81612548565b91506020830135801515811461217d578182fd5b600080604083850312156122c1578182fd5b82356122cc81612548565b946020939093013593505050565b6000806000606084860312156122ee578283fd5b83356122f981612548565b9250602084810135925060408086013567ffffffffffffffff8082111561231e578485fd5b818801915088601f830112612331578485fd5b81358181111561233d57fe5b61234a8586830201612524565b81815285810190848701868402860188018d1015612366578889fd5b8895505b838610156123d25786818e031215612380578889fd5b8651878101818110878211171561239357fe5b885281356123a081612548565b8152818901356001600160601b03811681146123ba578a8bfd5b818a015283526001959095019491870191860161236a565b50809750505050505050509250925092565b6000602082840312156123f5578081fd5b81356001600160e01b0319811681146115ec578182fd5b60006020828403121561241d578081fd5b5035919050565b6001600160a01b0391909116815260200190565b6020808252825182820181905260009190848201906040850190845b818110156124795783516001600160a01b031683529284019291840191600101612454565b50909695505050505050565b6020808252825182820181905260009190848201906040850190845b81811015612479578351835292840192918401916001016124a1565b901515815260200190565b6000602080835283518082850152825b818110156124f4578581018301518582016040015282016124d8565b818111156125055783604083870101525b50601f01601f1916929092016040019392505050565b90815260200190565b60405181810167ffffffffffffffff8111828210171561254057fe5b604052919050565b6001600160a01b038116811461097057600080fdfe456e756d657261626c655365743a20696e646578206f7574206f6620626f756e64734552433732313a207472616e7366657220746f206e6f6e20455243373231526563656976657220696d706c656d656e7465724f776e61626c653a206e6577206f776e657220697320746865207a65726f20616464726573734552433732313a207472616e7366657220746f20746865207a65726f20616464726573734552433732313a206f70657261746f7220717565727920666f72206e6f6e6578697374656e7420746f6b656e4552433732313a20617070726f76652063616c6c6572206973206e6f74206f776e6572206e6f7220617070726f76656420666f7220616c6c4552433732313a2062616c616e636520717565727920666f7220746865207a65726f20616464726573734552433732313a206f776e657220717565727920666f72206e6f6e6578697374656e7420746f6b656e496e697469616c697a61626c653a20636f6e747261637420697320616c726561647920696e697469616c697a6564456e756d657261626c654d61703a20696e646578206f7574206f6620626f756e64734552433732313a20617070726f76656420717565727920666f72206e6f6e6578697374656e7420746f6b656e4552433732313a207472616e73666572206f6620746f6b656e2074686174206973206e6f74206f776e4552433732314d657461646174613a2055524920717565727920666f72206e6f6e6578697374656e7420746f6b656e4552433732313a20617070726f76616c20746f2063757272656e74206f776e65724552433732313a207472616e736665722063616c6c6572206973206e6f74206f776e6572206e6f7220617070726f766564526f79616c747920746f74616c2076616c75652073686f756c64206265203c203130303030a264697066735822122094ff0f2651dc6753f1e4819d84ce92b519b47ff91addab5feb2a1013ec6aa41064736f6c63430007060033",
  "linkReferences": {},
  "deployedLinkReferences": {}
}