{
  "_format": "hh-sol-artifact-1",
  "contractName": "LibERC1155LazyMint",
  "sourceName": "@rarible/lazy-mint/contracts/erc-1155/LibERC1155LazyMint.sol",
  "abi": [
    {
      "inputs": [],
      "name": "ERC1155_LAZY_ASSET_CLASS",
      "outputs": [
        {
          "internalType": "bytes4",
          "name": "",
          "type": "bytes4"
        }
      ],
      "stateMutability": "view",
      "type": "function"
    },
    {
      "inputs": [],
      "name": "MINT_AND_TRANSFER_TYPEHASH",
      "outputs": [
        {
          "internalType": "bytes32",
          "name": "",
          "type": "bytes32"
        }
      ],
      "stateMutability": "view",
      "type": "function"
    }
  ],
  "bytecode": "0x60fb610025600b82828239805160001a60731461001857fe5b30600052607381538281f3fe7300000000000000000000000000000000000000003014608060405260043610603d5760003560e01c80637987105f14604257806390c20c4314605a575b600080fd5b6048607d565b60408051918252519081900360200190f35b606060a1565b604080516001600160e01b03199092168252519081900360200190f35b7ffb988707ebb338694f318760b0fd5cfe756d00a2ade251fda110b80c336a3c7f81565b7f1cdfaa400bc064c91b5cc20e571cfcc92103980be96e01fb36dda1962d8d78cb8156fea2646970667358221220fda8996ff851f2ed5b1955b2db4fabe9eb2a00f2713ef4fe9f23e14c302a767064736f6c63430007060033",
  "linkReferences": {},
  "deployedLinkReferences": {}
}