{
  "address": "0xF46e8e6fA0F048DdD76F8c6982eBD059796298B8",
  "abi": [
    {
      "anonymous": false,
      "inputs": [
        {
          "indexed": true,
          "internalType": "uint256",
          "name": "auctionId",
          "type": "uint256"
        },
        {
          "indexed": false,
          "internalType": "address",
          "name": "buyer",
          "type": "address"
        }
      ],
      "name": "AuctionBuyOut",
      "type": "event"
    },
    {
      "anonymous": false,
      "inputs": [
        {
          "indexed": true,
          "internalType": "uint256",
          "name": "auctionId",
          "type": "uint256"
        }
      ],
      "name": "AuctionCancelled",
      "type": "event"
    },
    {
      "anonymous": false,
      "inputs": [
        {
          "indexed": true,
          "internalType": "uint256",
          "name": "auctionId",
          "type": "uint256"
        },
        {
          "indexed": false,
          "internalType": "address",
          "name": "seller",
          "type": "address"
        }
      ],
      "name": "AuctionCreated",
      "type": "event"
    },
    {
      "anonymous": false,
      "inputs": [
        {
          "indexed": true,
          "internalType": "uint256",
          "name": "auctionId",
          "type": "uint256"
        }
      ],
      "name": "AuctionFinished",
      "type": "event"
    },
    {
      "anonymous": false,
      "inputs": [
        {
          "indexed": true,
          "internalType": "address",
          "name": "owner",
          "type": "address"
        },
        {
          "indexed": false,
          "internalType": "uint256",
          "name": "added",
          "type": "uint256"
        },
        {
          "indexed": false,
          "internalType": "uint256",
          "name": "total",
          "type": "uint256"
        }
      ],
      "name": "AvailableToWithdraw",
      "type": "event"
    },
    {
      "anonymous": false,
      "inputs": [
        {
          "indexed": true,
          "internalType": "uint256",
          "name": "auctionId",
          "type": "uint256"
        },
        {
          "indexed": false,
          "internalType": "address",
          "name": "buyer",
          "type": "address"
        },
        {
          "indexed": false,
          "internalType": "uint256",
          "name": "endTime",
          "type": "uint256"
        }
      ],
      "name": "BidPlaced",
      "type": "event"
    },
    {
      "anonymous": false,
      "inputs": [
        {
          "indexed": false,
          "internalType": "uint256",
          "name": "oldValue",
          "type": "uint256"
        },
        {
          "indexed": false,
          "internalType": "uint256",
          "name": "newValue",
          "type": "uint256"
        }
      ],
      "name": "MinimalDurationChanged",
      "type": "event"
    },
    {
      "anonymous": false,
      "inputs": [
        {
          "indexed": false,
          "internalType": "uint256",
          "name": "oldValue",
          "type": "uint256"
        },
        {
          "indexed": false,
          "internalType": "uint256",
          "name": "newValue",
          "type": "uint256"
        }
      ],
      "name": "MinimalStepChanged",
      "type": "event"
    },
    {
      "anonymous": false,
      "inputs": [
        {
          "indexed": true,
          "internalType": "address",
          "name": "previousOwner",
          "type": "address"
        },
        {
          "indexed": true,
          "internalType": "address",
          "name": "newOwner",
          "type": "address"
        }
      ],
      "name": "OwnershipTransferred",
      "type": "event"
    },
    {
      "anonymous": false,
      "inputs": [
        {
          "indexed": true,
          "internalType": "bytes4",
          "name": "assetType",
          "type": "bytes4"
        },
        {
          "indexed": false,
          "internalType": "address",
          "name": "proxy",
          "type": "address"
        }
      ],
      "name": "ProxyChange",
      "type": "event"
    },
    {
      "inputs": [
        {
          "internalType": "address",
          "name": "newDefaultFeeReceiver",
          "type": "address"
        },
        {
          "internalType": "contract IRoyaltiesProvider",
          "name": "newRoyaltiesProvider",
          "type": "address"
        },
        {
          "internalType": "address",
          "name": "_transferProxy",
          "type": "address"
        },
        {
          "internalType": "address",
          "name": "_erc20TransferProxy",
          "type": "address"
        },
        {
          "internalType": "uint64",
          "name": "newProtocolFee",
          "type": "uint64"
        },
        {
          "internalType": "uint96",
          "name": "_minimalStepBasePoint",
          "type": "uint96"
        }
      ],
      "name": "__AuctionHouse721_init",
      "outputs": [],
      "stateMutability": "nonpayable",
      "type": "function"
    },
    {
      "inputs": [],
      "name": "auctionId",
      "outputs": [
        {
          "internalType": "uint256",
          "name": "",
          "type": "uint256"
        }
      ],
      "stateMutability": "view",
      "type": "function"
    },
    {
      "inputs": [
        {
          "internalType": "uint256",
          "name": "_auctionId",
          "type": "uint256"
        },
        {
          "components": [
            {
              "internalType": "uint256",
              "name": "amount",
              "type": "uint256"
            },
            {
              "internalType": "bytes4",
              "name": "dataType",
              "type": "bytes4"
            },
            {
              "internalType": "bytes",
              "name": "data",
              "type": "bytes"
            }
          ],
          "internalType": "struct AuctionHouseBase.Bid",
          "name": "bid",
          "type": "tuple"
        }
      ],
      "name": "buyOut",
      "outputs": [],
      "stateMutability": "payable",
      "type": "function"
    },
    {
      "inputs": [
        {
          "internalType": "uint256",
          "name": "_auctionId",
          "type": "uint256"
        }
      ],
      "name": "cancel",
      "outputs": [],
      "stateMutability": "nonpayable",
      "type": "function"
    },
    {
      "inputs": [
        {
          "internalType": "uint96",
          "name": "newValue",
          "type": "uint96"
        }
      ],
      "name": "changeMinimalDuration",
      "outputs": [],
      "stateMutability": "nonpayable",
      "type": "function"
    },
    {
      "inputs": [
        {
          "internalType": "uint96",
          "name": "newValue",
          "type": "uint96"
        }
      ],
      "name": "changeMinimalStep",
      "outputs": [],
      "stateMutability": "nonpayable",
      "type": "function"
    },
    {
      "inputs": [
        {
          "internalType": "uint256",
          "name": "_auctionId",
          "type": "uint256"
        }
      ],
      "name": "checkAuctionExistence",
      "outputs": [
        {
          "internalType": "bool",
          "name": "",
          "type": "bool"
        }
      ],
      "stateMutability": "view",
      "type": "function"
    },
    {
      "inputs": [
        {
          "internalType": "uint256",
          "name": "_auctionId",
          "type": "uint256"
        }
      ],
      "name": "checkAuctionRangeTime",
      "outputs": [
        {
          "internalType": "bool",
          "name": "",
          "type": "bool"
        }
      ],
      "stateMutability": "view",
      "type": "function"
    },
    {
      "inputs": [
        {
          "internalType": "uint256",
          "name": "_auctionId",
          "type": "uint256"
        }
      ],
      "name": "finishAuction",
      "outputs": [],
      "stateMutability": "nonpayable",
      "type": "function"
    },
    {
      "inputs": [
        {
          "internalType": "address",
          "name": "_collection",
          "type": "address"
        },
        {
          "internalType": "uint256",
          "name": "tokenId",
          "type": "uint256"
        }
      ],
      "name": "getAuctionByToken",
      "outputs": [
        {
          "internalType": "uint256",
          "name": "",
          "type": "uint256"
        }
      ],
      "stateMutability": "view",
      "type": "function"
    },
    {
      "inputs": [
        {
          "internalType": "uint256",
          "name": "_auctionId",
          "type": "uint256"
        }
      ],
      "name": "getCurrentBuyer",
      "outputs": [
        {
          "internalType": "address",
          "name": "",
          "type": "address"
        }
      ],
      "stateMutability": "view",
      "type": "function"
    },
    {
      "inputs": [
        {
          "internalType": "uint256",
          "name": "_auctionId",
          "type": "uint256"
        }
      ],
      "name": "getMinimalNextBid",
      "outputs": [
        {
          "internalType": "uint256",
          "name": "minBid",
          "type": "uint256"
        }
      ],
      "stateMutability": "view",
      "type": "function"
    },
    {
      "inputs": [],
      "name": "minimalDuration",
      "outputs": [
        {
          "internalType": "uint96",
          "name": "",
          "type": "uint96"
        }
      ],
      "stateMutability": "view",
      "type": "function"
    },
    {
      "inputs": [],
      "name": "minimalStepBasePoint",
      "outputs": [
        {
          "internalType": "uint96",
          "name": "",
          "type": "uint96"
        }
      ],
      "stateMutability": "view",
      "type": "function"
    },
    {
      "inputs": [
        {
          "internalType": "address",
          "name": "",
          "type": "address"
        },
        {
          "internalType": "address",
          "name": "",
          "type": "address"
        },
        {
          "internalType": "uint256",
          "name": "",
          "type": "uint256"
        },
        {
          "internalType": "bytes",
          "name": "",
          "type": "bytes"
        }
      ],
      "name": "onERC721Received",
      "outputs": [
        {
          "internalType": "bytes4",
          "name": "",
          "type": "bytes4"
        }
      ],
      "stateMutability": "nonpayable",
      "type": "function"
    },
    {
      "inputs": [],
      "name": "owner",
      "outputs": [
        {
          "internalType": "address",
          "name": "",
          "type": "address"
        }
      ],
      "stateMutability": "view",
      "type": "function"
    },
    {
      "inputs": [
        {
          "internalType": "uint256",
          "name": "_auctionId",
          "type": "uint256"
        },
        {
          "components": [
            {
              "internalType": "uint256",
              "name": "amount",
              "type": "uint256"
            },
            {
              "internalType": "bytes4",
              "name": "dataType",
              "type": "bytes4"
            },
            {
              "internalType": "bytes",
              "name": "data",
              "type": "bytes"
            }
          ],
          "internalType": "struct AuctionHouseBase.Bid",
          "name": "bid",
          "type": "tuple"
        }
      ],
      "name": "putBid",
      "outputs": [],
      "stateMutability": "payable",
      "type": "function"
    },
    {
      "inputs": [
        {
          "internalType": "uint256",
          "name": "_auctionId",
          "type": "uint256"
        }
      ],
      "name": "putBidWrapper",
      "outputs": [],
      "stateMutability": "payable",
      "type": "function"
    },
    {
      "inputs": [],
      "name": "renounceOwnership",
      "outputs": [],
      "stateMutability": "nonpayable",
      "type": "function"
    },
    {
      "inputs": [],
      "name": "royaltiesRegistry",
      "outputs": [
        {
          "internalType": "contract IRoyaltiesProvider",
          "name": "",
          "type": "address"
        }
      ],
      "stateMutability": "view",
      "type": "function"
    },
    {
      "inputs": [
        {
          "internalType": "contract IRoyaltiesProvider",
          "name": "newRoyaltiesRegistry",
          "type": "address"
        }
      ],
      "name": "setRoyaltiesRegistry",
      "outputs": [],
      "stateMutability": "nonpayable",
      "type": "function"
    },
    {
      "inputs": [
        {
          "internalType": "bytes4",
          "name": "assetType",
          "type": "bytes4"
        },
        {
          "internalType": "address",
          "name": "proxy",
          "type": "address"
        }
      ],
      "name": "setTransferProxy",
      "outputs": [],
      "stateMutability": "nonpayable",
      "type": "function"
    },
    {
      "inputs": [
        {
          "internalType": "address",
          "name": "_sellToken",
          "type": "address"
        },
        {
          "internalType": "uint256",
          "name": "_sellTokenId",
          "type": "uint256"
        },
        {
          "internalType": "address",
          "name": "_buyAsset",
          "type": "address"
        },
        {
          "internalType": "uint96",
          "name": "minimalPrice",
          "type": "uint96"
        },
        {
          "internalType": "bytes4",
          "name": "dataType",
          "type": "bytes4"
        },
        {
          "internalType": "bytes",
          "name": "data",
          "type": "bytes"
        }
      ],
      "name": "startAuction",
      "outputs": [],
      "stateMutability": "nonpayable",
      "type": "function"
    },
    {
      "inputs": [
        {
          "internalType": "address",
          "name": "newOwner",
          "type": "address"
        }
      ],
      "name": "transferOwnership",
      "outputs": [],
      "stateMutability": "nonpayable",
      "type": "function"
    },
    {
      "inputs": [
        {
          "internalType": "address",
          "name": "_to",
          "type": "address"
        }
      ],
      "name": "withdrawFaultyBid",
      "outputs": [],
      "stateMutability": "nonpayable",
      "type": "function"
    }
  ],
  "numDeployments": 1,
  "solcInputHash": "812d24ebc21a45fb2c582e2e4a91a8b6",
  "bytecode": "0x608060405234801561001057600080fd5b506152d1806100206000396000f3fe6080604052600436106101665760003560e01c80636d8f0694116100d1578063a6f4a3e01161008a578063ec57834811610064578063ec578348146103ee578063eeffbfaf1461040e578063efa0598a1461042e578063f2fde38b1461044e57610166565b8063a6f4a3e01461039b578063bd9d21bd146103ae578063cf266ed0146103ce57610166565b80636d8f0694146102ed5780636eeb69db1461030f578063715018a61461032f5780638da5cb5b14610344578063914bf5f914610359578063a2a106b81461036e57610166565b806330c642f11161012357806330c642f11461023a578063363188151461025a5780633be899221461027a57806340e58ee51461029a578063506a90e7146102ba5780635f4a436e146102cd57610166565b80630d6079641461016b57806310782f8f146101a1578063150b7a02146101b6578063152b2c0a146101e35780632a6bf6a8146102035780632f57233614610218575b600080fd5b34801561017757600080fd5b5061018b610186366004614a0c565b61046e565b60405161019891906150ca565b60405180910390f35b3480156101ad57600080fd5b5061018b6106b4565b3480156101c257600080fd5b506101d66101d1366004614723565b6106bb565b6040516101989190614b98565b3480156101ef57600080fd5b5061018b6101fe366004614818565b6106cb565b610216610211366004614a0c565b6106f6565b005b34801561022457600080fd5b5061022d610798565b60405161019891906150e1565b34801561024657600080fd5b50610216610255366004614928565b6107a8565b34801561026657600080fd5b50610216610275366004614ac3565b610879565b34801561028657600080fd5b506102166102953660046144ce565b61094b565b3480156102a657600080fd5b506102166102b5366004614a0c565b6109cf565b6102166102c8366004614a24565b610d39565b3480156102d957600080fd5b506102166102e8366004614ac3565b611339565b3480156102f957600080fd5b5061030261141c565b6040516101989190614ae2565b34801561031b57600080fd5b5061030261032a366004614a0c565b61142b565b34801561033b57600080fd5b5061021661144a565b34801561035057600080fd5b506103026114f6565b34801561036557600080fd5b5061022d611505565b34801561037a57600080fd5b5061038e610389366004614a0c565b61151c565b6040516101989190614b8d565b6102166103a9366004614a24565b611541565b3480156103ba57600080fd5b506102166103c93660046144ce565b6118bd565b3480156103da57600080fd5b506102166103e9366004614a0c565b61192d565b3480156103fa57600080fd5b5061038e610409366004614a0c565b611d94565b34801561041a57600080fd5b5061021661042936600461478c565b611e82565b34801561043a57600080fd5b50610216610449366004614843565b611f79565b34801561045a57600080fd5b506102166104693660046144ce565b612326565b60008181526101956020908152604080832081516101608101835281546001600160a01b0390811682526001808401548387015260028085015492831684870152600160a01b9092046001600160601b0316606080850191909152855190810186526003850180548252600486015460e01b6001600160e01b0319168289015260058601805488516101009582161595909502600019011694909404601f810189900489028401890188528084528998959760808901969395929490860193909291908301828280156105825780601f1061055757610100808354040283529160200191610582565b820191906000526020600020905b81548152906001019060200180831161056557829003601f168201915b50505091909252505050815260068201546001600160a01b03808216602080850191909152600160a01b928390046001600160601b0316604080860191909152600786015492831660608601529282046001600160401b03166080850152600160e01b90910460e01b6001600160e01b03191660a0840152600884018054835160026101006001841615026000190190921691909104601f810184900484028201840190945283815260c0909401939290918301828280156106855780601f1061065a57610100808354040283529160200191610685565b820191906000526020600020905b81548152906001019060200180831161066857829003601f168201915b50505050508152505090506106ab8160e001518260c00151836080015160000151612429565b9150505b919050565b6101615481565b630a85bd0160e11b949350505050565b6001600160a01b03821660009081526033602090815260408083208484529091529020545b92915050565b600081815261019560205260409020600201546001600160a01b0316156107385760405162461bcd60e51b815260040161072f90614c1a565b60405180910390fd5b6107958160405180606001604052803481526020017f4c23426613a5dc69e08fbd2787e6210aa679d4522e95a89d4dd88c4fd13a22836001600160e01b031916815260200160405180602001604052806000815250815250610d39565b50565b610162546001600160601b031681565b6107b061247d565b6001600160a01b03166107c16114f6565b6001600160a01b03161461080a576040805162461bcd60e51b8152602060048201819052602482015260008051602061527c833981519152604482015290519081900360640190fd5b6001600160e01b03198216600081815261012e60205260409081902080546001600160a01b0319166001600160a01b038516179055517f4b5aced933c0c9a88aeac3f0b3b72c5aaf75df8ebaf53225773248c4c31535939061086d908490614ae2565b60405180910390a25050565b61088161247d565b6001600160a01b03166108926114f6565b6001600160a01b0316146108db576040805162461bcd60e51b8152602060048201819052602482015260008051602061527c833981519152604482015290519081900360640190fd5b610162546040517fa13d21133118bfdffd1e4dc724faaadc5860dcb38ac5836e06f183ac5306b2799161091b916001600160601b039091169084906150f5565b60405180910390a161016280546bffffffffffffffffffffffff19166001600160601b0392909216919091179055565b61095361247d565b6001600160a01b03166109646114f6565b6001600160a01b0316146109ad576040805162461bcd60e51b8152602060048201819052602482015260008051602061527c833981519152604482015290519081900360640190fd5b60fd80546001600160a01b0319166001600160a01b0392909216919091179055565b600260ca541415610a15576040805162461bcd60e51b815260206004820152601f60248201526000805160206151c7833981519152604482015290519081900360640190fd5b600260ca81905560008281526101956020908152604080832081516101608101835281546001600160a01b039081168252600180840154838701528388015491821683860152600160a01b9091046001600160601b0316606080840191909152845190810185526003840180548252600485015460e01b6001600160e01b0319168288015260058501805487516101009582161595909502600019011699909904601f8101889004880284018801875280845297989397949660808901969295919492860193929190830182828015610b2f5780601f10610b0457610100808354040283529160200191610b2f565b820191906000526020600020905b815481529060010190602001808311610b1257829003601f168201915b50505091909252505050815260068201546001600160a01b03808216602080850191909152600160a01b928390046001600160601b0316604080860191909152600786015492831660608601529282046001600160401b03166080850152600160e01b90910460e01b6001600160e01b03191660a0840152600884018054835160026101006001841615026000190190921691909104601f810184900484028201840190945283815260c090940193929091830182828015610c325780601f10610c0757610100808354040283529160200191610c32565b820191906000526020600020905b815481529060010190602001808311610c1557829003601f168201915b5050509190925250505060a0810151909150610c4d81612481565b610c695760405162461bcd60e51b815260040161072f90614ca4565b610c7161247d565b6001600160a01b0316816001600160a01b031614610ca15760405162461bcd60e51b815260040161072f90614d6e565b60e08201516001600160a01b031615610ccc5760405162461bcd60e51b815260040161072f90614e4f565b610cf182600001518360200151600160008051602061520d833981519152308661248f565b610d0483836000015184602001516124d3565b60405183907f2809c7e17bf978fbc7194c0a694b638c4215e9140cacc6c38ca36010b45697df90600090a25050600160ca5550565b600260ca541415610d7f576040805162461bcd60e51b815260206004820152601f60248201526000805160206151c7833981519152604482015290519081900360640190fd5b600260ca556000610d8e61247d565b825160008581526101956020908152604080832081516101608101835281546001600160a01b0390811682526001808401548387015260028085015492831684870152600160a01b9092046001600160601b0316606080850191909152855190810186526003850180548252600486015460e01b6001600160e01b0319168289015260058601805488516101009582161595909502600019011694909404601f810189900489028401890188528084529a9b50989997989397949660808901969195918601939190830182828015610ea75780601f10610e7c57610100808354040283529160200191610ea7565b820191906000526020600020905b815481529060010190602001808311610e8a57829003601f168201915b50505091909252505050815260068201546001600160a01b03808216602080850191909152600160a01b928390046001600160601b0316604080860191909152600786015492831660608601529282046001600160401b03166080850152600160e01b90910460e01b6001600160e01b03191660a0840152600884018054835160026101006001841615026000190190921691909104601f810184900484028201840190945283815260c090940193929091830182828015610faa5780601f10610f7f57610100808354040283529160200191610faa565b820191906000526020600020905b815481529060010190602001808311610f8d57829003601f168201915b50505050508152505090506000816060015190506000610fd4836101400151846101200151612581565b90506000610fea876040015188602001516125dd565b6000015190506103e88461010001516001600160401b031661100b83612631565b845161101690612631565b010111156110365760405162461bcd60e51b815260040161072f90614c80565b60408401516001600160a01b03166110545786516110549087612637565b61107d8460a0015185606001516001600160601b031684604001516001600160601b0316612685565b61108782866126bb565b156110a55761109a8488848b858b6126fc565b505050505050611330565b60e084015142906001600160a01b03166111365760208301516110d2906001600160601b038316906128b3565b60008a81526101956020526040902060020180546001600160601b03808416600160a01b026001600160a01b039092169190911790915560c0870151919550168610156111315760405162461bcd60e51b815260040161072f90614da5565b6111ad565b866001600160a01b03168560e001516001600160a01b0316141561116c5760405162461bcd60e51b815260040161072f90614ee4565b60006111898660e001518760c00151886080015160000151612429565b9050808710156111ab5760405162461bcd60e51b815260040161072f90614cd9565b505b60006111bc8660400151612919565b90506111dc86604001518760e001518a8960800151858e6000015161296d565b60008a815261019560209081526040918290208b51600382019081558c83015160048301805463ffffffff191660e09290921c919091179055928c015180518d949361122d93600501920190614181565b50505060008a81526101956020526040812060070180546001600160a01b0319166001600160a01b038b16179055610162546001600160601b031690610384821061127a5761038461127c565b815b90506001600160601b038082169061129690891686612986565b6001600160601b031610156112eb576112b86001600160601b038516826128b3565b60008d81526101956020526040902060020180546001600160a01b0316600160a01b6001600160601b0384160217905596505b8b7f0e54eff26401bf69b81b26f60bd85ef47f5d85275c1d268d84f68d6897431c478b8960405161131d929190614af6565b60405180910390a2505050505050505050505b5050600160ca55565b61134161247d565b6001600160a01b03166113526114f6565b6001600160a01b03161461139b576040805162461bcd60e51b8152602060048201819052602482015260008051602061527c833981519152604482015290519081900360640190fd5b7f30bd79db520376a437e44c44c2b3ec63f6730f4df0a95f56ea39765f1420cab7610162600c9054906101000a90046001600160601b0316826040516113e29291906150f5565b60405180910390a161016280546001600160601b03909216600160601b026bffffffffffffffffffffffff60601b19909216919091179055565b60fd546001600160a01b031681565b600090815261019560205260409020600701546001600160a01b031690565b61145261247d565b6001600160a01b03166114636114f6565b6001600160a01b0316146114ac576040805162461bcd60e51b8152602060048201819052602482015260008051602061527c833981519152604482015290519081900360640190fd5b6098546040516000916001600160a01b0316907f8be0079c531659141344cd1fd0a4f28419497f9722a3daafe3b4186f6b6457e0908390a3609880546001600160a01b0319169055565b6098546001600160a01b031690565b61016254600160601b90046001600160601b031681565b600081815261019560205260408120600601546106f0906001600160a01b0316612481565b600260ca541415611587576040805162461bcd60e51b815260206004820152601f60248201526000805160206151c7833981519152604482015290519081900360640190fd5b600260ca81905560008381526101956020908152604080832081516101608101835281546001600160a01b039081168252600180840154838701528388015491821683860152600160a01b9091046001600160601b0316606080840191909152845190810185526003840180548252600485015460e01b6001600160e01b0319168288015260058501805487516101009582161595909502600019011699909904601f81018890048802840188018752808452979893979496608089019692959194928601939291908301828280156116a15780601f10611676576101008083540402835291602001916116a1565b820191906000526020600020905b81548152906001019060200180831161168457829003601f168201915b50505091909252505050815260068201546001600160a01b03808216602080850191909152600160a01b928390046001600160601b0316604080860191909152600786015492831660608601529282046001600160401b03166080850152600160e01b90910460e01b6001600160e01b03191660a0840152600884018054835160026101006001841615026000190190921691909104601f810184900484028201840190945283815260c0909401939290918301828280156117a45780601f10611779576101008083540402835291602001916117a4565b820191906000526020600020905b81548152906001019060200180831161178757829003601f168201915b505050505081525050905060006117c5826101400151836101200151612581565b90506117f08260a0015183606001516001600160601b031683604001516001600160601b0316612685565b6000611804846040015185602001516125dd565b5184519091506118159083906126bb565b6118315760405162461bcd60e51b815260040161072f90614e20565b6103e88361010001516001600160401b031661184c83612631565b845161185790612631565b010111156118775760405162461bcd60e51b815260040161072f90614c80565b600061188161247d565b60408501519091506001600160a01b03166118a25784516118a29082612637565b6118b08486858986866126fc565b5050600160ca5550505050565b60006118c761247d565b6001600160a01b03811660009081526101606020526040902054909150806119015760405162461bcd60e51b815260040161072f90614f75565b6001600160a01b0380831660009081526101606020526040812055611928908416826129f5565b505050565b600260ca541415611973576040805162461bcd60e51b815260206004820152601f60248201526000805160206151c7833981519152604482015290519081900360640190fd5b600260ca81905560008281526101956020908152604080832081516101608101835281546001600160a01b039081168252600180840154838701528388015491821683860152600160a01b9091046001600160601b0316606080840191909152845190810185526003840180548252600485015460e01b6001600160e01b0319168288015260058501805487516101009582161595909502600019011699909904601f8101889004880284018801875280845297989397949660808901969295919492860193929190830182828015611a8d5780601f10611a6257610100808354040283529160200191611a8d565b820191906000526020600020905b815481529060010190602001808311611a7057829003601f168201915b50505091909252505050815260068201546001600160a01b03808216602080850191909152600160a01b928390046001600160601b0316604080860191909152600786015492831660608601529282046001600160401b03166080850152600160e01b90910460e01b6001600160e01b03191660a0840152600884018054835160026101006001841615026000190190921691909104601f810184900484028201840190945283815260c090940193929091830182828015611b905780601f10611b6557610100808354040283529160200191611b90565b820191906000526020600020905b815481529060010190602001808311611b7357829003601f168201915b5050505050815250509050611ba88160a00151612481565b611bc45760405162461bcd60e51b815260040161072f90614ca4565b6000611bda826101400151836101200151612581565b9050611c0082606001516001600160601b031682604001516001600160601b0316612a8d565b158015611c19575060e08201516001600160a01b031615155b611c355760405162461bcd60e51b815260040161072f90614fd2565b6000611c518360800151604001518460800151602001516125dd565b600001519050611d746040518060a00160405280611c8886600001518760200151600160008051602061520d833981519152612ad6565b8152602001611c9a8660a00151612b24565b8152602001611cac8560000151612bbf565b81526339d690a360e11b60005261012e60209081527f7d19e2b8a217fe03fb4454578d48cd35c47b3709623b40a40dad7ab8ca53ecb3546001600160a01b03169082015230604091820152805160a081018252908601516080870151518291611d1491612c33565b8152602001611d268760e00151612b24565b8152602001611d3485612bbf565b8152602001611d468760400151612919565b6001600160a01b0316815230602091820152604080518082019091526103e8815290810160025b9052612c9a565b5050611d8984846000015185602001516124d3565b5050600160ca555050565b6000818152610195602090815260408083206002808201546008909201805484516101006001831615026000190190911692909204601f81018690048602830186019094528382526106f094600160a01b9093046001600160601b031693611e7093830182828015611e475780601f10611e1c57610100808354040283529160200191611e47565b820191906000526020600020905b815481529060010190602001808311611e2a57829003601f168201915b50505060008881526101956020526040902060070154600160e01b900460e01b91506125819050565b604001516001600160601b0316612a8d565b600054610100900460ff1680611e9b5750611e9b612d9f565b80611ea9575060005460ff16155b611ee45760405162461bcd60e51b815260040180806020018281038252602e81526020018061522d602e913960400191505060405180910390fd5b600054610100900460ff16158015611f0f576000805460ff1961ff0019909116610100171660011790555b611f17612db0565b611f1f612e51565b611f27612db0565b611f2f612f4a565b611f3882612ff0565b611f4285856130d8565b611f56836001600160401b03168888613183565b611f5e612db0565b8015611f70576000805461ff00191690555b50505050505050565b600080611f868385612581565b6101625460208201519192506001600160601b03908116911610801590611fd057506305265c006fffffffffffffffffffffffffffffffff1681602001516001600160601b031611155b611fec5760405162461bcd60e51b815260040161072f90614d42565b6103e882611ffd8360000151612631565b01111561201c5760405162461bcd60e51b815260040161072f90614c80565b600061202661325c565b9050600061203261247d565b905060006040518061016001604052808c6001600160a01b031681526020018b81526020018a6001600160a01b0316815260200160006001600160601b0316815260200160405180606001604052806000815260200160006001600160e01b0319168152602001604051806020016040528060008152508152508152602001836001600160a01b03168152602001896001600160601b0316815260200160006001600160a01b03168152602001866001600160401b03168152602001886001600160e01b031916815260200187815250905080610195600085815260200190815260200160002060008201518160000160006101000a8154816001600160a01b0302191690836001600160a01b031602179055506020820151816001015560408201518160020160006101000a8154816001600160a01b0302191690836001600160a01b0316021790555060608201518160020160146101000a8154816001600160601b0302191690836001600160601b031602179055506080820151816003016000820151816000015560208201518160010160006101000a81548163ffffffff021916908360e01c021790555060408201518160020190805190602001906121fd929190614181565b50505060a082015160068201805460c08501516001600160601b0316600160a01b9081026001600160a01b039485166001600160a01b03199384161785161790925560e0808601516007860180546101008901516101208a015190941c600160e01b026001600160e01b036001600160401b0390951690960267ffffffffffffffff60a01b199390971694169390931716939093179290921617905561014082015180516122b5916008840191602090910190614181565b509050506122d68b8b600160008051602061520d833981519152863061248f565b6122e18b8b8561326b565b827f5d551e2a2cc977fd8c530317059b4f2d9f504fb82f7dfad736f8d56679bcdfd0836040516123119190614ae2565b60405180910390a25050505050505050505050565b61232e61247d565b6001600160a01b031661233f6114f6565b6001600160a01b031614612388576040805162461bcd60e51b8152602060048201819052602482015260008051602061527c833981519152604482015290519081900360640190fd5b6001600160a01b0381166123cd5760405162461bcd60e51b81526004018080602001828103825260268152602001806151e76026913960400191505060405180910390fd5b6098546040516001600160a01b038084169216907f8be0079c531659141344cd1fd0a4f28419497f9722a3daafe3b4186f6b6457e090600090a3609880546001600160a01b0319166001600160a01b0392909216919091179055565b60006001600160a01b03841661244957506001600160601b038216612476565b610162546124739061246c908490600160601b90046001600160601b0316613291565b83906132a9565b90505b9392505050565b3390565b6001600160a01b0316151590565b6124cb61249e87878787612ad6565b6001600160e01b03198516600090815261012e6020526040902054849084906001600160a01b0316613303565b505050505050565b60405183907f53ab6823c4ae8c865033f94ee16313a21c6ade19520d884dc804d622a43bc67490600090a26125088282613715565b60008381526101956020526040812080546001600160a01b031916815560018101829055600281018290556003810182815560048201805463ffffffff191690559091908161255a600585018261420d565b50506000600683018190556007830181905561257a90600884019061420d565b5050505050565b612589614251565b6001600160e01b03198216632611a13360e11b14156125c5578251156125c057828060200190518101906125bd919061495e565b90505b6106f0565b60405162461bcd60e51b815260040161072f90614fa2565b6125e5614278565b6001600160e01b03198216632611a13360e11b1415612619578251156125c057828060200190518101906125bd91906149d2565b60405162461bcd60e51b815260040161072f9061501d565b60a01c90565b34828110156126585760405162461bcd60e51b815260040161072f90614dcc565b6000612664828561373d565b9050801561267f5761267f6001600160a01b038416826129f5565b50505050565b61268e83612481565b801561269f575061269f8282612a8d565b6119285760405162461bcd60e51b815260040161072f90614f11565b60008083606001516001600160601b03161180156126e657508183606001516001600160601b031611155b156126f3575060016106f0565b50600092915050565b600061270b8760400151612919565b9050612725876080015188604001518960e0015184613794565b60408701516000906001600160a01b0316612741575030612744565b50815b6128596040518060a001604052806127758b600001518c60200151600160008051602061520d833981519152612ad6565b81526020016127878b60a00151612b24565b81526020016127998960000151612bbf565b81526339d690a360e11b60005261012e60209081527f7d19e2b8a217fe03fb4454578d48cd35c47b3709623b40a40dad7ab8ca53ecb3546001600160a01b03169082015230604091820152805160a081018252908b01518a5182916127fd91612c33565b815260200161280b87612b24565b815260200161281988612bbf565b8152602001856001600160a01b03168152602001846001600160a01b031681525060405180604001604052806103e88152602001600280811115611d6d57fe5b505061286e8589600001518a602001516124d3565b610161547f10373d853b64ae416c332eacb659de0f9bfc4fa3601556194abce1991061efbe846040516128a19190614ae2565b60405180910390a25050505050505050565b60008282016001600160601b038085169082161015612476576040805162461bcd60e51b815260206004820152601b60248201527f536166654d6174683a206164646974696f6e206f766572666c6f770000000000604482015290519081900360640190fd5b6000806001600160a01b038316156106f05750506322ba176160e21b6000525061012e6020527f66dac2712484e57696cd5b0a7c5522ea4a109a8cbe86d42ac52cc349ee8e1d64546001600160a01b031690565b61297983878785613794565b6124cb81878630866138b4565b6000826001600160601b0316826001600160601b031611156129ef576040805162461bcd60e51b815260206004820152601e60248201527f536166654d6174683a207375627472616374696f6e206f766572666c6f770000604482015290519081900360640190fd5b50900390565b6040516000906001600160a01b0384169083908381818185875af1925050503d8060008114612a40576040519150601f19603f3d011682016040523d82523d6000602084013e612a45565b606091505b5050905080611928576040805162461bcd60e51b815260206004820152600f60248201526e1d1c985b9cd9995c8819985a5b1959608a1b604482015290519081900360640190fd5b6000428215801590612a9e57508083115b15612aad5760009150506106f0565b600084118015612abd5750808411155b15612acc5760009150506106f0565b5060019392505050565b612ade61428b565b602080820184905281516001600160e01b031984169052604051612b06918791879101614b74565b60408051601f19818403018152919052815160200152949350505050565b60408051600180825281830190925260609160009190816020015b612b476142ab565b815260200190600190039081612b3f5790505090508281600081518110612b6a57fe5b6020026020010151600001906001600160a01b031690816001600160a01b03168152505061271081600081518110612b9e57fe5b6020908102919091018101516001600160601b039092169101529050919050565b60408051600180825281830190925260609160009190816020015b612be26142ab565b815260200190600190039081612bda5790505090508281600081518110612c0557fe5b60209081029190910101516001600160a01b039091169052612c2683612631565b81600081518110612b9e57fe5b612c3b61428b565b602081018290526001600160a01b038316612c615780516355575f5d60e11b90526106f0565b80516322ba176160e21b9052604051612c7e908490602001614ae2565b60408051601f1981840301815291905281516020015292915050565b8251602090810151835190910151600183602001516002811115612cba57fe5b1415612cff57612ccf858585600001516138c9565b9150612cfa846000015160000151856000015160200151866080015188602001518860600151613b18565b612d97565b600283602001516002811115612d1157fe5b1415612d5157612d26848685600001516138c9565b9050612cfa856000015160000151866000015160200151876080015187602001518960600151613b18565b845180516020918201516080880151928701516060890151612d74949190613b18565b835180516020918201516080870151928801516060880151612d97949190613b18565b935093915050565b6000612daa30613c92565b15905090565b600054610100900460ff1680612dc95750612dc9612d9f565b80612dd7575060005460ff16155b612e125760405162461bcd60e51b815260040180806020018281038252602e81526020018061522d602e913960400191505060405180910390fd5b600054610100900460ff16158015612e3d576000805460ff1961ff0019909116610100171660011790555b8015610795576000805461ff001916905550565b600054610100900460ff1680612e6a5750612e6a612d9f565b80612e78575060005460ff16155b612eb35760405162461bcd60e51b815260040180806020018281038252602e81526020018061522d602e913960400191505060405180910390fd5b600054610100900460ff16158015612ede576000805460ff1961ff0019909116610100171660011790555b6000612ee861247d565b609880546001600160a01b0319166001600160a01b038316908117909155604051919250906000907f8be0079c531659141344cd1fd0a4f28419497f9722a3daafe3b4186f6b6457e0908290a3508015610795576000805461ff001916905550565b600054610100900460ff1680612f635750612f63612d9f565b80612f71575060005460ff16155b612fac5760405162461bcd60e51b815260040180806020018281038252602e81526020018061522d602e913960400191505060405180910390fd5b600054610100900460ff16158015612fd7576000805460ff1961ff0019909116610100171660011790555b600160ca558015610795576000805461ff001916905550565b600054610100900460ff16806130095750613009612d9f565b80613017575060005460ff16155b6130525760405162461bcd60e51b815260040180806020018281038252602e81526020018061522d602e913960400191505060405180910390fd5b600054610100900460ff1615801561307d576000805460ff1961ff0019909116610100171660011790555b60016101615561016280546103846bffffffffffffffffffffffff19909116176bffffffffffffffffffffffff60601b1916600160601b6001600160601b0385160217905580156130d4576000805461ff00191690555b5050565b61012e6020527f66dac2712484e57696cd5b0a7c5522ea4a109a8cbe86d42ac52cc349ee8e1d6480546001600160a01b039283166001600160a01b0319918216179091557f7d19e2b8a217fe03fb4454578d48cd35c47b3709623b40a40dad7ab8ca53ecb3805493909216928116831790915563025ceed960e61b6000527f0fe703a970ae3b662eee99e0b622325124ff4b134531cb07e2cdcc6f1d12396f80549091169091179055565b600054610100900460ff168061319c575061319c612d9f565b806131aa575060005460ff16155b6131e55760405162461bcd60e51b815260040180806020018281038252602e81526020018061522d602e913960400191505060405180910390fd5b600054610100900460ff16158015613210576000805460ff1961ff0019909116610100171660011790555b60fc84905560fe80546001600160a01b038086166001600160a01b03199283161790925560fd805492851692909116919091179055801561267f576000805461ff001916905550505050565b61016180546001810190915590565b6001600160a01b0390921660009081526033602090815260408083209383529290522055565b60006124766127106132a38585613c98565b90613cf1565b600082820183811015612476576040805162461bcd60e51b815260206004820152601b60248201527f536166654d6174683a206164646974696f6e206f766572666c6f770000000000604482015290519081900360640190fd5b8351516001600160e01b0319166339d690a360e11b14156134495760008085600001516020015180602001905181019061333d91906146f6565b9150915085602001516001146133655760405162461bcd60e51b815260040161072f90614df4565b6001600160a01b0385163014156133dd57604051632142170760e11b81526001600160a01b038316906342842e0e906133a690309088908690600401614b18565b600060405180830381600087803b1580156133c057600080fd5b505af11580156133d4573d6000803e3d6000fd5b50505050613442565b604051637b84dc8360e11b81526001600160a01b0384169063f709b9069061340f908590899089908790600401614bf0565b600060405180830381600087803b15801561342957600080fd5b505af115801561343d573d6000803e3d6000fd5b505050505b505061267f565b8351516001600160e01b0319166322ba176160e21b14156135a757600084600001516020015180602001905181019061348291906144ea565b90506001600160a01b03841630141561353957602085015160405163a9059cbb60e01b81526001600160a01b0383169163a9059cbb916134c6918791600401614b74565b602060405180830381600087803b1580156134e057600080fd5b505af11580156134f4573d6000803e3d6000fd5b505050506040513d601f19601f820116820180604052508101906135189190614908565b6135345760405162461bcd60e51b815260040161072f90614e86565b6135a1565b602085015160405163776062c360e01b81526001600160a01b0384169163776062c39161356e91859189918991600401614bf0565b600060405180830381600087803b15801561358857600080fd5b505af115801561359c573d6000803e3d6000fd5b505050505b5061267f565b8351516001600160e01b03191663025ceed960e61b1415613664576000808560000151602001518060200190518101906135e191906146f6565b90925090506001600160a01b03851630141561362c576020860151604051637921219560e11b81526001600160a01b0384169163f242432a916133a691309189918791600401614b3c565b6020860151604051639c1c2ee960e01b81526001600160a01b03851691639c1c2ee99161340f9186918a918a91889190600401614bad565b8351516001600160e01b0319166355575f5d60e11b14156136ad576001600160a01b03821630146136a85760208401516136a8906001600160a01b038416906129f5565b61267f565b6040516354bc0cf160e01b81526001600160a01b038216906354bc0cf1906136dd90879087908790600401615049565b600060405180830381600087803b1580156136f757600080fd5b505af115801561370b573d6000803e3d6000fd5b5050505050505050565b6001600160a01b03909116600090815260336020908152604080832093835292905290812055565b6000828211156129ef576040805162461bcd60e51b815260206004820152601e60248201527f536166654d6174683a207375627472616374696f6e206f766572666c6f770000604482015290519081900360640190fd5b6001600160a01b0382166137a75761267f565b6001600160a01b0383166138a9576000826001600160a01b031685600001516040516137d290614adf565b60006040518083038185875af1925050503d806000811461380f576040519150601f19603f3d011682016040523d82523d6000602084013e613814565b606091505b50509050806135a1576001600160a01b03831660009081526101606020526040812054865190919061384690836132a9565b6001600160a01b03861660008181526101606020526040908190208390558951905192935090917e13bff06d622c14d54757ee0547a817dc3e491fb8da534f108a531b016dee3c916138999185906150d3565b60405180910390a250505061267f565b835161267f90843085855b61257a6138c18587612c33565b848484613303565b60006138e2846000015160200151856040015184613d58565b84518051855151602080880151930151608089015160608a0151959650869561390f959287929091613e04565b9050846040015151600114801561392b57508360400151516001145b80156139805750846040015160008151811061394357fe5b6020026020010151600001516001600160a01b0316846040015160008151811061396957fe5b6020026020010151600001516001600160a01b0316145b15613a9657604080516001808252818301909252600091816020015b6139a46142ab565b81526020019060019003908161399c57905050905084604001516000815181106139ca57fe5b602002602001015160000151816000815181106139e357fe5b60209081029190910101516001600160a01b03909116905260408601518051600090613a0b57fe5b6020026020010151602001518560400151600081518110613a2857fe5b6020026020010151602001510181600081518110613a4257fe5b6020026020010151602001906001600160601b031690816001600160601b031681525050613a8c86600001516000015183886000015160200151848a608001518b60600151613f09565b509150613aef9050565b613ac085600001516000015182876000015160200151886040015189608001518a60600151613f09565b50855180516020909101516040870151608089015160608a0151949550613aeb948693929190613f09565b5090505b613b1085600001516000015182876080015187602001518960600151613b18565b509392505050565b6000825111613b395760405162461bcd60e51b815260040161072f90614cfe565b600084815b6001855103811015613c08576000613b7f868381518110613b5b57fe5b6020026020010151602001516001600160601b03168961329190919063ffffffff16565b9050613bb4868381518110613b9057fe5b6020026020010151602001516001600160601b0316856132a990919063ffffffff16565b93508015613bff57613bc6838261373d565b9250613bff60405180604001604052808b81526020018381525088888581518110613bed57fe5b60200260200101516000015188613303565b50600101613b3e565b50600084600186510381518110613c1b57fe5b60200260200101519050613c4581602001516001600160601b0316846132a990919063ffffffff16565b92508261271014613c685760405162461bcd60e51b815260040161072f90614f3e565b811561370b5761370b60405180604001604052808a81526020018481525087836000015187613303565b3b151590565b600082613ca7575060006106f0565b82820282848281613cb457fe5b04146124765760405162461bcd60e51b815260040180806020018281038252602181526020018061525b6021913960400191505060405180910390fd5b6000808211613d47576040805162461bcd60e51b815260206004820152601a60248201527f536166654d6174683a206469766973696f6e206279207a65726f000000000000604482015290519081900360640190fd5b818381613d5057fe5b049392505050565b60008115613d67575082612476565b6000805b8451811015613de657612710858281518110613d8357fe5b6020026020010151602001516001600160601b03161115613db65760405162461bcd60e51b815260040161072f90614eb5565b848181518110613dc257fe5b6020026020010151602001516001600160601b031682019150806001019050613d6b565b50613dfb613df48683613291565b86906132a9565b95945050505050565b600080613e1088613fbe565b905080516001148015613e24575086516001145b8015613e71575086600081518110613e3857fe5b6020026020010151600001516001600160a01b031681600081518110613e5a57fe5b6020026020010151600001516001600160a01b0316145b15613ec25761138881600081518110613e8657fe5b6020026020010151602001516001600160601b03161115613eb95760405162461bcd60e51b815260040161072f90614c49565b85915050613efe565b600080613ed38b8989868a8a613f09565b91509150611388811115613ef95760405162461bcd60e51b815260040161072f90614c49565b509150505b979650505050505050565b846000805b8551811015613fb257613f4a868281518110613f2657fe5b6020026020010151602001516001600160601b0316836132a990919063ffffffff16565b91506000613f798489898581518110613f5f57fe5b6020026020010151602001516001600160601b0316614132565b90945090508015613fa957613fa960405180604001604052808c81526020018381525087898581518110613bed57fe5b50600101613f0e565b50965096945050505050565b80516060906001600160e01b03191663025ceed960e61b1480613ff2575081516001600160e01b0319166339d690a360e11b145b156140a757600080836020015180602001905181019061401291906146f6565b60fd54604051634e53ee3d60e11b81529294509092506001600160a01b031690639ca7dc7a906140489085908590600401614b74565b600060405180830381600087803b15801561406257600080fd5b505af1158015614076573d6000803e3d6000fd5b505050506040513d6000823e601f3d908101601f1916820160405261409e91908101906148ce565b925050506106af565b81516001600160e01b03191662737ea960e61b14156140e857600082602001518060200190518101906140da9190614506565b6080015192506106af915050565b81516001600160e01b03191663d8f960c160e01b141561412a576000826020015180602001905181019061411c9190614603565b6060015192506106af915050565b506060919050565b600080614148856141438686613291565b614154565b91509150935093915050565b6000808284111561417357614169848461373d565b915082905061417a565b5060009050825b9250929050565b828054600181600116156101000203166002900490600052602060002090601f0160209004810192826141b757600085556141fd565b82601f106141d057805160ff19168380011785556141fd565b828001600101855582156141fd579182015b828111156141fd5782518255916020019190600101906141e2565b506142099291506142c2565b5090565b50805460018160011615610100020316600290046000825580601f106142335750610795565b601f01602090049060005260206000209081019061079591906142c2565b60408051608081018252600080825260208201819052918101829052606081019190915290565b6040518060200160405280600081525090565b604051806040016040528061429e6142d7565b8152602001600081525090565b604080518082019091526000808252602082015290565b5b8082111561420957600081556001016142c3565b60408051808201909152600081526060602082015290565b60006143026142fd8461514f565b61510f565b905082815283838301111561431657600080fd5b612476836020830184615170565b600082601f830112614334578081fd5b815160206143446142fd83615132565b82815281810190858301855b8581101561438e578151880189603f82011261436a578788fd5b61437b8a87830151604084016142ef565b8552509284019290840190600101614350565b5090979650505050505050565b600082601f8301126143ab578081fd5b815160206143bb6142fd83615132565b828152818101908583016040808602880185018910156143d9578687fd5b865b8681101561443d5781838b0312156143f1578788fd5b81518281018181106001600160401b038211171561440b57fe5b835283516144188161519c565b815283870151614427816151b1565b81880152855293850193918101916001016143db565b509198975050505050505050565b80356001600160e01b0319811681146106af57600080fd5b600082601f830112614473578081fd5b81356144816142fd8261514f565b818152846020838601011115614495578283fd5b816020850160208301379081016020019190915292915050565b600082601f8301126144bf578081fd5b612476838351602085016142ef565b6000602082840312156144df578081fd5b81356124768161519c565b6000602082840312156144fb578081fd5b81516124768161519c565b60008060408385031215614518578081fd5b82516145238161519c565b60208401519092506001600160401b038082111561453f578283fd5b9084019060c08287031215614552578283fd5b61455c60c061510f565b82518152602083015182811115614571578485fd5b61457d888286016144af565b6020830152506040830151604082015260608301518281111561459e578485fd5b6145aa8882860161439b565b6060830152506080830151828111156145c1578485fd5b6145cd8882860161439b565b60808301525060a0830151828111156145e4578485fd5b6145f088828601614324565b60a0830152508093505050509250929050565b60008060408385031215614615578182fd5b82516146208161519c565b60208401519092506001600160401b038082111561463c578283fd5b9084019060a0828703121561464f578283fd5b61465960a061510f565b8251815260208301518281111561466e578485fd5b61467a888286016144af565b602083015250604083015182811115614691578485fd5b61469d8882860161439b565b6040830152506060830151828111156146b4578485fd5b6146c08882860161439b565b6060830152506080830151828111156146d7578485fd5b6146e388828601614324565b6080830152508093505050509250929050565b60008060408385031215614708578182fd5b82516147138161519c565b6020939093015192949293505050565b60008060008060808587031215614738578182fd5b84356147438161519c565b935060208501356147538161519c565b92506040850135915060608501356001600160401b03811115614774578182fd5b61478087828801614463565b91505092959194509250565b60008060008060008060c087890312156147a4578384fd5b86356147af8161519c565b955060208701356147bf8161519c565b945060408701356147cf8161519c565b935060608701356147df8161519c565b925060808701356001600160401b03811681146147fa578283fd5b915060a087013561480a816151b1565b809150509295509295509295565b6000806040838503121561482a578182fd5b82356148358161519c565b946020939093013593505050565b60008060008060008060c0878903121561485b578384fd5b86356148668161519c565b955060208701359450604087013561487d8161519c565b9350606087013561488d816151b1565b925061489b6080880161444b565b915060a08701356001600160401b038111156148b5578182fd5b6148c189828a01614463565b9150509295509295509295565b6000602082840312156148df578081fd5b81516001600160401b038111156148f4578182fd5b6149008482850161439b565b949350505050565b600060208284031215614919578081fd5b81518015158114612476578182fd5b6000806040838503121561493a578182fd5b6149438361444b565b915060208301356149538161519c565b809150509250929050565b60006080828403121561496f578081fd5b604051608081018181106001600160401b038211171561498b57fe5b6040528251815260208301516149a0816151b1565b602082015260408301516149b3816151b1565b604082015260608301516149c6816151b1565b60608201529392505050565b6000602082840312156149e3578081fd5b604051602081018181106001600160401b03821117156149ff57fe5b6040529151825250919050565b600060208284031215614a1d578081fd5b5035919050565b60008060408385031215614a36578182fd5b8235915060208301356001600160401b0380821115614a53578283fd5b9084019060608287031215614a66578283fd5b604051606081018181108382111715614a7b57fe5b60405282358152614a8e6020840161444b565b6020820152604083013582811115614aa4578485fd5b614ab088828601614463565b6040830152508093505050509250929050565b600060208284031215614ad4578081fd5b8135612476816151b1565b90565b6001600160a01b0391909116815260200190565b6001600160a01b039290921682526001600160601b0316602082015260400190565b6001600160a01b039384168152919092166020820152604081019190915260600190565b6001600160a01b0394851681529290931660208301526040820152606081019190915260a06080820181905260009082015260c00190565b6001600160a01b03929092168252602082015260400190565b901515815260200190565b6001600160e01b031991909116815260200190565b6001600160a01b03958616815293851660208501529190931660408301526060820192909252608081019190915260c060a0820181905260009082015260e00190565b6001600160a01b039485168152928416602084015292166040820152606081019190915260800190565b6020808252601590820152741bdb9b1e4811551208189a591cc8185b1b1bddd959605a1b604082015260600190565b6020808252601d908201527f526f79616c746965732061726520746f6f206869676820283e35302529000000604082015260600190565b6020808252600a908201526977726f6e67206665657360b01b604082015260600190565b6020808252818101527f7468657265206973206e6f2061756374696f6e20776974682074686973206964604082015260600190565b6020808252600b908201526a62696420746f6f206c6f7760a81b604082015260600190565b60208082526024908201527f7472616e736665725061796f7574733a206e6f7468696e6720746f207472616e60408201526339b332b960e11b606082015260800190565b60208082526012908201527134b731b7b93932b1ba10323ab930ba34b7b760711b604082015260600190565b6020808252601a908201527f61756374696f6e206f776e6572206e6f74206465746563746564000000000000604082015260600190565b6020808252600d908201526c189a59081d1bdbc81cdb585b1b609a1b604082015260600190565b6020808252600e908201526d0dcdee840cadcdeeaced0408aa8960931b604082015260600190565b60208082526012908201527132b9319b9918903b30b63ab29032b93937b960711b604082015260600190565b6020808252601590820152741b9bdd08195b9bdd59da08199bdc88189d5e5bdd5d605a1b604082015260600190565b6020808252601d908201527f63616e27742063616e63656c2061756374696f6e207769746820626964000000604082015260600190565b602080825260159082015274195c98cc8c081d1c985b9cd9995c8819985a5b1959605a1b604082015260600190565b6020808252601590820152746f726967696e2066656520697320746f6f2062696760581b604082015260600190565b602080825260139082015272185b1c9958591e481dda5b9b9a5b99c8189a59606a1b604082015260600190565b60208082526013908201527261756374696f6e20697320696e61637469766560681b604082015260600190565b6020808252601e908201527f53756d207061796f75747320427073206e6f7420657175616c20313030250000604082015260600190565b6020808252601390820152726e6f7468696e6720746f20776974686472617760681b604082015260600190565b60208082526016908201527577726f6e672061756374696f6e20646174615479706560501b604082015260600190565b6020808252602b908201527f6f6e6c7920656e6465642061756374696f6e2077697468206269642063616e2060408201526a189948199a5b9a5cda195960aa1b606082015260800190565b60208082526012908201527177726f6e672062696420646174615479706560701b604082015260600190565b60006060825284516040606084015263ffffffff60e01b81511660a084015260208101519050604060c084015280518060e08501526101006150918282870160208601615170565b60209788015160808601526001600160a01b039687169785019790975293909416604083015250601f909101601f191601909101919050565b90815260200190565b918252602082015260400190565b6001600160601b0391909116815260200190565b6001600160601b0392831681529116602082015260400190565b6040518181016001600160401b038111828210171561512a57fe5b604052919050565b60006001600160401b0382111561514557fe5b5060209081020190565b60006001600160401b0382111561516257fe5b50601f01601f191660200190565b60005b8381101561518b578181015183820152602001615173565b8381111561267f5750506000910152565b6001600160a01b038116811461079557600080fd5b6001600160601b038116811461079557600080fdfe5265656e7472616e637947756172643a207265656e7472616e742063616c6c004f776e61626c653a206e6577206f776e657220697320746865207a65726f206164647265737373ad2146b3d3a286642c794379d750360a2d53a3459a11b3e5d6cc900f55f44a496e697469616c697a61626c653a20636f6e747261637420697320616c726561647920696e697469616c697a6564536166654d6174683a206d756c7469706c69636174696f6e206f766572666c6f774f776e61626c653a2063616c6c6572206973206e6f7420746865206f776e6572a2646970667358221220a4a69798d43b847ddae4dde84dcb5905f986d9fe92e7ee0ad3e68a3d869be13964736f6c63430007060033",
  "devdoc": {
    "details": "contract to create and interact with auctions",
    "kind": "dev",
    "methods": {
      "buyOut(uint256,(uint256,bytes4,bytes))": {
        "details": "buyout auction if bid satisfies buyout condition"
      },
      "cancel(uint256)": {
        "details": "cancels existing auction without bid"
      },
      "checkAuctionExistence(uint256)": {
        "details": "returns true if auction exists, false otherwise"
      },
      "checkAuctionRangeTime(uint256)": {
        "details": "returns true if auction started and hasn't finished yet, false otherwise"
      },
      "finishAuction(uint256)": {
        "details": "finishes, deletes and transfers all assets for an auction if it's ended (it exists, it has at least one bid, now > endTme)"
      },
      "getAuctionByToken(address,uint256)": {
        "details": "returns auction id by token address and token id"
      },
      "getCurrentBuyer(uint256)": {
        "details": "returns current highest bidder for an auction"
      },
      "getMinimalNextBid(uint256)": {
        "details": "returns the minimal amount of the next bid (without fees)"
      },
      "onERC721Received(address,address,uint256,bytes)": {
        "details": "See {IERC721Receiver-onERC721Received}. Always returns `IERC721Receiver.onERC721Received.selector`."
      },
      "owner()": {
        "details": "Returns the address of the current owner."
      },
      "putBid(uint256,(uint256,bytes4,bytes))": {
        "details": "put a bid and return locked assets for the last bid"
      },
      "putBidWrapper(uint256)": {
        "details": "function to call from wrapper to put bid"
      },
      "renounceOwnership()": {
        "details": "Leaves the contract without owner. It will not be possible to call `onlyOwner` functions anymore. Can only be called by the current owner. NOTE: Renouncing ownership will leave the contract without an owner, thereby removing any functionality that is only available to the owner."
      },
      "startAuction(address,uint256,address,uint96,bytes4,bytes)": {
        "details": "creates an auction and locks sell asset"
      },
      "transferOwnership(address)": {
        "details": "Transfers ownership of the contract to a new account (`newOwner`). Can only be called by the current owner."
      },
      "withdrawFaultyBid(address)": {
        "details": "Used to withdraw faulty bids (bids that failed to return after out-bidding)"
      }
    },
    "version": 1
  },
  "userdoc": {
    "kind": "user",
    "methods": {},
    "version": 1
  },
  "storageLayout": {
    "storage": [
      {
        "astId": 739,
        "contract": "@rarible/auction/contracts/721/AuctionHouse721.sol:AuctionHouse721",
        "label": "_initialized",
        "offset": 0,
        "slot": "0",
        "type": "t_bool"
      },
      {
        "astId": 742,
        "contract": "@rarible/auction/contracts/721/AuctionHouse721.sol:AuctionHouse721",
        "label": "_initializing",
        "offset": 1,
        "slot": "0",
        "type": "t_bool"
      },
      {
        "astId": 2801,
        "contract": "@rarible/auction/contracts/721/AuctionHouse721.sol:AuctionHouse721",
        "label": "__gap",
        "offset": 0,
        "slot": "1",
        "type": "t_array(t_uint256)50_storage"
      },
      {
        "astId": 11094,
        "contract": "@rarible/auction/contracts/721/AuctionHouse721.sol:AuctionHouse721",
        "label": "tokenToAuctionId",
        "offset": 0,
        "slot": "51",
        "type": "t_mapping(t_address,t_mapping(t_uint256,t_uint256))"
      },
      {
        "astId": 11150,
        "contract": "@rarible/auction/contracts/721/AuctionHouse721.sol:AuctionHouse721",
        "label": "______gap",
        "offset": 0,
        "slot": "52",
        "type": "t_array(t_uint256)50_storage"
      },
      {
        "astId": 4256,
        "contract": "@rarible/auction/contracts/721/AuctionHouse721.sol:AuctionHouse721",
        "label": "__gap",
        "offset": 0,
        "slot": "102",
        "type": "t_array(t_uint256)50_storage"
      },
      {
        "astId": 10,
        "contract": "@rarible/auction/contracts/721/AuctionHouse721.sol:AuctionHouse721",
        "label": "_owner",
        "offset": 0,
        "slot": "152",
        "type": "t_address"
      },
      {
        "astId": 129,
        "contract": "@rarible/auction/contracts/721/AuctionHouse721.sol:AuctionHouse721",
        "label": "__gap",
        "offset": 0,
        "slot": "153",
        "type": "t_array(t_uint256)49_storage"
      },
      {
        "astId": 5323,
        "contract": "@rarible/auction/contracts/721/AuctionHouse721.sol:AuctionHouse721",
        "label": "_status",
        "offset": 0,
        "slot": "202",
        "type": "t_uint256"
      },
      {
        "astId": 5366,
        "contract": "@rarible/auction/contracts/721/AuctionHouse721.sol:AuctionHouse721",
        "label": "__gap",
        "offset": 0,
        "slot": "203",
        "type": "t_array(t_uint256)49_storage"
      },
      {
        "astId": 29210,
        "contract": "@rarible/auction/contracts/721/AuctionHouse721.sol:AuctionHouse721",
        "label": "protocolFee",
        "offset": 0,
        "slot": "252",
        "type": "t_uint256"
      },
      {
        "astId": 29212,
        "contract": "@rarible/auction/contracts/721/AuctionHouse721.sol:AuctionHouse721",
        "label": "royaltiesRegistry",
        "offset": 0,
        "slot": "253",
        "type": "t_contract(IRoyaltiesProvider)11495"
      },
      {
        "astId": 29214,
        "contract": "@rarible/auction/contracts/721/AuctionHouse721.sol:AuctionHouse721",
        "label": "defaultFeeReceiver",
        "offset": 0,
        "slot": "254",
        "type": "t_address"
      },
      {
        "astId": 29218,
        "contract": "@rarible/auction/contracts/721/AuctionHouse721.sol:AuctionHouse721",
        "label": "feeReceivers",
        "offset": 0,
        "slot": "255",
        "type": "t_mapping(t_address,t_address)"
      },
      {
        "astId": 30100,
        "contract": "@rarible/auction/contracts/721/AuctionHouse721.sol:AuctionHouse721",
        "label": "__gap",
        "offset": 0,
        "slot": "256",
        "type": "t_array(t_uint256)46_storage"
      },
      {
        "astId": 30124,
        "contract": "@rarible/auction/contracts/721/AuctionHouse721.sol:AuctionHouse721",
        "label": "proxies",
        "offset": 0,
        "slot": "302",
        "type": "t_mapping(t_bytes4,t_address)"
      },
      {
        "astId": 30421,
        "contract": "@rarible/auction/contracts/721/AuctionHouse721.sol:AuctionHouse721",
        "label": "__gap",
        "offset": 0,
        "slot": "303",
        "type": "t_array(t_uint256)49_storage"
      },
      {
        "astId": 10119,
        "contract": "@rarible/auction/contracts/721/AuctionHouse721.sol:AuctionHouse721",
        "label": "readyToWithdraw",
        "offset": 0,
        "slot": "352",
        "type": "t_mapping(t_address,t_uint256)"
      },
      {
        "astId": 10122,
        "contract": "@rarible/auction/contracts/721/AuctionHouse721.sol:AuctionHouse721",
        "label": "auctionId",
        "offset": 0,
        "slot": "353",
        "type": "t_uint256"
      },
      {
        "astId": 10125,
        "contract": "@rarible/auction/contracts/721/AuctionHouse721.sol:AuctionHouse721",
        "label": "minimalDuration",
        "offset": 0,
        "slot": "354",
        "type": "t_uint96"
      },
      {
        "astId": 10128,
        "contract": "@rarible/auction/contracts/721/AuctionHouse721.sol:AuctionHouse721",
        "label": "minimalStepBasePoint",
        "offset": 12,
        "slot": "354",
        "type": "t_uint96"
      },
      {
        "astId": 10867,
        "contract": "@rarible/auction/contracts/721/AuctionHouse721.sol:AuctionHouse721",
        "label": "______gap",
        "offset": 0,
        "slot": "355",
        "type": "t_array(t_uint256)50_storage"
      },
      {
        "astId": 10050,
        "contract": "@rarible/auction/contracts/721/AuctionHouse721.sol:AuctionHouse721",
        "label": "auctions",
        "offset": 0,
        "slot": "405",
        "type": "t_mapping(t_uint256,t_struct(Auction)10073_storage)"
      }
    ],
    "types": {
      "t_address": {
        "encoding": "inplace",
        "label": "address",
        "numberOfBytes": "20"
      },
      "t_address_payable": {
        "encoding": "inplace",
        "label": "address payable",
        "numberOfBytes": "20"
      },
      "t_array(t_uint256)46_storage": {
        "base": "t_uint256",
        "encoding": "inplace",
        "label": "uint256[46]",
        "numberOfBytes": "1472"
      },
      "t_array(t_uint256)49_storage": {
        "base": "t_uint256",
        "encoding": "inplace",
        "label": "uint256[49]",
        "numberOfBytes": "1568"
      },
      "t_array(t_uint256)50_storage": {
        "base": "t_uint256",
        "encoding": "inplace",
        "label": "uint256[50]",
        "numberOfBytes": "1600"
      },
      "t_bool": {
        "encoding": "inplace",
        "label": "bool",
        "numberOfBytes": "1"
      },
      "t_bytes4": {
        "encoding": "inplace",
        "label": "bytes4",
        "numberOfBytes": "4"
      },
      "t_bytes_storage": {
        "encoding": "bytes",
        "label": "bytes",
        "numberOfBytes": "32"
      },
      "t_contract(IRoyaltiesProvider)11495": {
        "encoding": "inplace",
        "label": "contract IRoyaltiesProvider",
        "numberOfBytes": "20"
      },
      "t_mapping(t_address,t_address)": {
        "encoding": "mapping",
        "key": "t_address",
        "label": "mapping(address => address)",
        "numberOfBytes": "32",
        "value": "t_address"
      },
      "t_mapping(t_address,t_mapping(t_uint256,t_uint256))": {
        "encoding": "mapping",
        "key": "t_address",
        "label": "mapping(address => mapping(uint256 => uint256))",
        "numberOfBytes": "32",
        "value": "t_mapping(t_uint256,t_uint256)"
      },
      "t_mapping(t_address,t_uint256)": {
        "encoding": "mapping",
        "key": "t_address",
        "label": "mapping(address => uint256)",
        "numberOfBytes": "32",
        "value": "t_uint256"
      },
      "t_mapping(t_bytes4,t_address)": {
        "encoding": "mapping",
        "key": "t_bytes4",
        "label": "mapping(bytes4 => address)",
        "numberOfBytes": "32",
        "value": "t_address"
      },
      "t_mapping(t_uint256,t_struct(Auction)10073_storage)": {
        "encoding": "mapping",
        "key": "t_uint256",
        "label": "mapping(uint256 => struct AuctionHouseBase721.Auction)",
        "numberOfBytes": "32",
        "value": "t_struct(Auction)10073_storage"
      },
      "t_mapping(t_uint256,t_uint256)": {
        "encoding": "mapping",
        "key": "t_uint256",
        "label": "mapping(uint256 => uint256)",
        "numberOfBytes": "32",
        "value": "t_uint256"
      },
      "t_struct(Auction)10073_storage": {
        "encoding": "inplace",
        "label": "struct AuctionHouseBase721.Auction",
        "members": [
          {
            "astId": 10052,
            "contract": "@rarible/auction/contracts/721/AuctionHouse721.sol:AuctionHouse721",
            "label": "sellToken",
            "offset": 0,
            "slot": "0",
            "type": "t_address"
          },
          {
            "astId": 10054,
            "contract": "@rarible/auction/contracts/721/AuctionHouse721.sol:AuctionHouse721",
            "label": "sellTokenId",
            "offset": 0,
            "slot": "1",
            "type": "t_uint256"
          },
          {
            "astId": 10056,
            "contract": "@rarible/auction/contracts/721/AuctionHouse721.sol:AuctionHouse721",
            "label": "buyAsset",
            "offset": 0,
            "slot": "2",
            "type": "t_address"
          },
          {
            "astId": 10058,
            "contract": "@rarible/auction/contracts/721/AuctionHouse721.sol:AuctionHouse721",
            "label": "endTime",
            "offset": 20,
            "slot": "2",
            "type": "t_uint96"
          },
          {
            "astId": 10060,
            "contract": "@rarible/auction/contracts/721/AuctionHouse721.sol:AuctionHouse721",
            "label": "lastBid",
            "offset": 0,
            "slot": "3",
            "type": "t_struct(Bid)10135_storage"
          },
          {
            "astId": 10062,
            "contract": "@rarible/auction/contracts/721/AuctionHouse721.sol:AuctionHouse721",
            "label": "seller",
            "offset": 0,
            "slot": "6",
            "type": "t_address_payable"
          },
          {
            "astId": 10064,
            "contract": "@rarible/auction/contracts/721/AuctionHouse721.sol:AuctionHouse721",
            "label": "minimalPrice",
            "offset": 20,
            "slot": "6",
            "type": "t_uint96"
          },
          {
            "astId": 10066,
            "contract": "@rarible/auction/contracts/721/AuctionHouse721.sol:AuctionHouse721",
            "label": "buyer",
            "offset": 0,
            "slot": "7",
            "type": "t_address_payable"
          },
          {
            "astId": 10068,
            "contract": "@rarible/auction/contracts/721/AuctionHouse721.sol:AuctionHouse721",
            "label": "protocolFee",
            "offset": 20,
            "slot": "7",
            "type": "t_uint64"
          },
          {
            "astId": 10070,
            "contract": "@rarible/auction/contracts/721/AuctionHouse721.sol:AuctionHouse721",
            "label": "dataType",
            "offset": 28,
            "slot": "7",
            "type": "t_bytes4"
          },
          {
            "astId": 10072,
            "contract": "@rarible/auction/contracts/721/AuctionHouse721.sol:AuctionHouse721",
            "label": "data",
            "offset": 0,
            "slot": "8",
            "type": "t_bytes_storage"
          }
        ],
        "numberOfBytes": "288"
      },
      "t_struct(Bid)10135_storage": {
        "encoding": "inplace",
        "label": "struct AuctionHouseBase.Bid",
        "members": [
          {
            "astId": 10130,
            "contract": "@rarible/auction/contracts/721/AuctionHouse721.sol:AuctionHouse721",
            "label": "amount",
            "offset": 0,
            "slot": "0",
            "type": "t_uint256"
          },
          {
            "astId": 10132,
            "contract": "@rarible/auction/contracts/721/AuctionHouse721.sol:AuctionHouse721",
            "label": "dataType",
            "offset": 0,
            "slot": "1",
            "type": "t_bytes4"
          },
          {
            "astId": 10134,
            "contract": "@rarible/auction/contracts/721/AuctionHouse721.sol:AuctionHouse721",
            "label": "data",
            "offset": 0,
            "slot": "2",
            "type": "t_bytes_storage"
          }
        ],
        "numberOfBytes": "96"
      },
      "t_uint256": {
        "encoding": "inplace",
        "label": "uint256",
        "numberOfBytes": "32"
      },
      "t_uint64": {
        "encoding": "inplace",
        "label": "uint64",
        "numberOfBytes": "8"
      },
      "t_uint96": {
        "encoding": "inplace",
        "label": "uint96",
        "numberOfBytes": "12"
      }
    }
  }
}