{
  "address": "0x66a1037a48b6A2469cF740aD9Ac42BD47eDF9573",
  "abi": [
    {
      "inputs": [
        {
          "internalType": "address",
          "name": "_beacon",
          "type": "address"
        },
        {
          "internalType": "address",
          "name": "_transferProxy",
          "type": "address"
        },
        {
          "internalType": "address",
          "name": "_lazyTransferProxy",
          "type": "address"
        }
      ],
      "stateMutability": "nonpayable",
      "type": "constructor"
    },
    {
      "anonymous": false,
      "inputs": [
        {
          "indexed": false,
          "internalType": "address",
          "name": "proxy",
          "type": "address"
        }
      ],
      "name": "Create721RaribleProxy",
      "type": "event"
    },
    {
      "anonymous": false,
      "inputs": [
        {
          "indexed": false,
          "internalType": "address",
          "name": "proxy",
          "type": "address"
        }
      ],
      "name": "Create721RaribleUserProxy",
      "type": "event"
    },
    {
      "anonymous": false,
      "inputs": [
        {
          "indexed": true,
          "internalType": "address",
          "name": "previousOwner",
          "type": "address"
        },
        {
          "indexed": true,
          "internalType": "address",
          "name": "newOwner",
          "type": "address"
        }
      ],
      "name": "OwnershipTransferred",
      "type": "event"
    },
    {
      "inputs": [],
      "name": "beacon",
      "outputs": [
        {
          "internalType": "address",
          "name": "",
          "type": "address"
        }
      ],
      "stateMutability": "view",
      "type": "function"
    },
    {
      "inputs": [
        {
          "internalType": "string",
          "name": "_name",
          "type": "string"
        },
        {
          "internalType": "string",
          "name": "_symbol",
          "type": "string"
        },
        {
          "internalType": "string",
          "name": "baseURI",
          "type": "string"
        },
        {
          "internalType": "string",
          "name": "contractURI",
          "type": "string"
        },
        {
          "internalType": "address[]",
          "name": "operators",
          "type": "address[]"
        },
        {
          "internalType": "uint256",
          "name": "salt",
          "type": "uint256"
        }
      ],
      "name": "createToken",
      "outputs": [],
      "stateMutability": "nonpayable",
      "type": "function"
    },
    {
      "inputs": [
        {
          "internalType": "string",
          "name": "_name",
          "type": "string"
        },
        {
          "internalType": "string",
          "name": "_symbol",
          "type": "string"
        },
        {
          "internalType": "string",
          "name": "baseURI",
          "type": "string"
        },
        {
          "internalType": "string",
          "name": "contractURI",
          "type": "string"
        },
        {
          "internalType": "uint256",
          "name": "salt",
          "type": "uint256"
        }
      ],
      "name": "createToken",
      "outputs": [],
      "stateMutability": "nonpayable",
      "type": "function"
    },
    {
      "inputs": [
        {
          "internalType": "string",
          "name": "_name",
          "type": "string"
        },
        {
          "internalType": "string",
          "name": "_symbol",
          "type": "string"
        },
        {
          "internalType": "string",
          "name": "baseURI",
          "type": "string"
        },
        {
          "internalType": "string",
          "name": "contractURI",
          "type": "string"
        },
        {
          "internalType": "address[]",
          "name": "operators",
          "type": "address[]"
        },
        {
          "internalType": "uint256",
          "name": "_salt",
          "type": "uint256"
        }
      ],
      "name": "getAddress",
      "outputs": [
        {
          "internalType": "address",
          "name": "",
          "type": "address"
        }
      ],
      "stateMutability": "view",
      "type": "function"
    },
    {
      "inputs": [
        {
          "internalType": "string",
          "name": "_name",
          "type": "string"
        },
        {
          "internalType": "string",
          "name": "_symbol",
          "type": "string"
        },
        {
          "internalType": "string",
          "name": "baseURI",
          "type": "string"
        },
        {
          "internalType": "string",
          "name": "contractURI",
          "type": "string"
        },
        {
          "internalType": "uint256",
          "name": "_salt",
          "type": "uint256"
        }
      ],
      "name": "getAddress",
      "outputs": [
        {
          "internalType": "address",
          "name": "",
          "type": "address"
        }
      ],
      "stateMutability": "view",
      "type": "function"
    },
    {
      "inputs": [],
      "name": "owner",
      "outputs": [
        {
          "internalType": "address",
          "name": "",
          "type": "address"
        }
      ],
      "stateMutability": "view",
      "type": "function"
    },
    {
      "inputs": [],
      "name": "renounceOwnership",
      "outputs": [],
      "stateMutability": "nonpayable",
      "type": "function"
    },
    {
      "inputs": [
        {
          "internalType": "address",
          "name": "newOwner",
          "type": "address"
        }
      ],
      "name": "transferOwnership",
      "outputs": [],
      "stateMutability": "nonpayable",
      "type": "function"
    }
  ],
  "numDeployments": 1,
  "solcInputHash": "bf917ed004d0f3f4e7ddfe1dd4d0856b",
  "bytecode": "0x608060405234801561001057600080fd5b5060405161167638038061167683398101604081905261002f916100e5565b60006100396100c5565b600080546001600160a01b0319166001600160a01b0383169081178255604051929350917f8be0079c531659141344cd1fd0a4f28419497f9722a3daafe3b4186f6b6457e0908290a350600180546001600160a01b039485166001600160a01b031991821617909155600280549385169382169390931790925560038054919093169116179055610127565b3390565b80516001600160a01b03811681146100e057600080fd5b919050565b6000806000606084860312156100f9578283fd5b610102846100c9565b9250610110602085016100c9565b915061011e604085016100c9565b90509250925092565b611540806101366000396000f3fe60806040523480156200001157600080fd5b5060043610620000945760003560e01c806372397ad5116200006357806372397ad514620000f55780638da5cb5b146200010c5780639cf3178b1462000116578063f2fde38b146200012d5762000094565b806327050d1f14620000995780633928069514620000b257806359659e9014620000e1578063715018a614620000eb575b600080fd5b620000b0620000aa3660046200087b565b62000144565b005b620000c9620000c33660046200087b565b62000211565b604051620000d8919062000ac3565b60405180910390f35b620000c96200027a565b620000b062000289565b620000b0620001063660046200095f565b6200034c565b620000c962000410565b620000c9620001273660046200095f565b6200041f565b620000b06200013e36600462000857565b62000480565b6000620001606200015988888888886200059b565b8362000614565b9050806001600160a01b03811663f2fde38b6200017c62000643565b6040518263ffffffff1660e01b81526004016200019a919062000ac3565b600060405180830381600087803b158015620001b557600080fd5b505af1158015620001ca573d6000803e3d6000fd5b505050507f4768a3e06654c109507892e111851106a07f51f57cc0cfc3374a141e03c3f08f82604051620001ff919062000ac3565b60405180910390a15050505050505050565b6000806200022d6200022789898989896200059b565b62000647565b9050600060ff60f81b3085848051906020012060405160200162000255949392919062000a57565b60408051808303601f1901815291905280516020909101209998505050505050505050565b6001546001600160a01b031681565b6200029362000643565b6001600160a01b0316620002a662000410565b6001600160a01b03161462000302576040805162461bcd60e51b815260206004820181905260248201527f4f776e61626c653a2063616c6c6572206973206e6f7420746865206f776e6572604482015290519081900360640190fd5b600080546040516001600160a01b03909116907f8be0079c531659141344cd1fd0a4f28419497f9722a3daafe3b4186f6b6457e0908390a3600080546001600160a01b0319169055565b6000620003606200015987878787620006c6565b9050806001600160a01b03811663f2fde38b6200037c62000643565b6040518263ffffffff1660e01b81526004016200039a919062000ac3565b600060405180830381600087803b158015620003b557600080fd5b505af1158015620003ca573d6000803e3d6000fd5b505050507fcc1a02f08b4aa92a7d307d9c65aec395a00ed50d5575adbd7447a85dfefdaf9282604051620003ff919062000ac3565b60405180910390a150505050505050565b6000546001600160a01b031690565b600080620004346200022788888888620006c6565b9050600060ff60f81b308584805190602001206040516020016200045c949392919062000a57565b60408051808303601f19018152919052805160209091012098975050505050505050565b6200048a62000643565b6001600160a01b03166200049d62000410565b6001600160a01b031614620004f9576040805162461bcd60e51b815260206004820181905260248201527f4f776e61626c653a2063616c6c6572206973206e6f7420746865206f776e6572604482015290519081900360640190fd5b6001600160a01b038116620005405760405162461bcd60e51b8152600401808060200182810382526026815260200180620014e56026913960400191505060405180910390fd5b600080546040516001600160a01b03808516939216917f8be0079c531659141344cd1fd0a4f28419497f9722a3daafe3b4186f6b6457e091a3600080546001600160a01b0319166001600160a01b0392909216919091179055565b600254600354604051606092634648eb9d60e01b92620005d7928a928a928a928a928a926001600160a01b039182169291169060240162000b81565b60408051601f198184030181529190526020810180516001600160e01b03166001600160e01b031990931692909217909152905095945050505050565b600080620006228462000647565b9050828151602083016000f59150813b6200063c57600080fd5b5092915050565b3390565b6060604051806020016200065b906200073b565b601f1982820381018352601f9091011660408190526001546200068f916001600160a01b0390911690859060200162000ad7565b60408051601f1981840301815290829052620006af929160200162000a90565b60405160208183030381529060405290505b919050565b600254600354604051606092631ed9cbe360e11b92620006ff9289928992899289926001600160a01b0390811692169060240162000b05565b60408051601f198184030181529190526020810180516001600160e01b03166001600160e01b0319909316929092179091529050949350505050565b6108448062000ca183390190565b80356001600160a01b0381168114620006c157600080fd5b600082601f83011262000772578081fd5b8135602067ffffffffffffffff8211156200078957fe5b8082026200079982820162000c48565b838152828101908684018388018501891015620007b4578687fd5b8693505b85841015620007e157620007cc8162000749565b835260019390930192918401918401620007b8565b50979650505050505050565b600082601f830112620007fe578081fd5b813567ffffffffffffffff8111156200081357fe5b62000828601f8201601f191660200162000c48565b8181528460208386010111156200083d578283fd5b816020850160208301379081016020019190915292915050565b60006020828403121562000869578081fd5b620008748262000749565b9392505050565b60008060008060008060c0878903121562000894578182fd5b863567ffffffffffffffff80821115620008ac578384fd5b620008ba8a838b01620007ed565b97506020890135915080821115620008d0578384fd5b620008de8a838b01620007ed565b96506040890135915080821115620008f4578384fd5b620009028a838b01620007ed565b9550606089013591508082111562000918578384fd5b620009268a838b01620007ed565b945060808901359150808211156200093c578384fd5b506200094b89828a0162000761565b92505060a087013590509295509295509295565b600080600080600060a0868803121562000977578081fd5b853567ffffffffffffffff808211156200098f578283fd5b6200099d89838a01620007ed565b96506020880135915080821115620009b3578283fd5b620009c189838a01620007ed565b95506040880135915080821115620009d7578283fd5b620009e589838a01620007ed565b94506060880135915080821115620009fb578283fd5b5062000a0a88828901620007ed565b95989497509295608001359392505050565b6001600160a01b03169052565b6000815180845262000a4381602086016020860162000c6d565b601f01601f19169290920160200192915050565b6001600160f81b031994909416845260609290921b6bffffffffffffffffffffffff191660018401526015830152603582015260550190565b6000835162000aa481846020880162000c6d565b83519083019062000aba81836020880162000c6d565b01949350505050565b6001600160a01b0391909116815260200190565b6001600160a01b038316815260406020820181905260009062000afd9083018462000a29565b949350505050565b600060c0825262000b1a60c083018962000a29565b828103602084015262000b2e818962000a29565b9050828103604084015262000b44818862000a29565b9050828103606084015262000b5a818762000a29565b6001600160a01b0395861660808501529390941660a0909201919091525095945050505050565b600060e0825262000b9660e083018a62000a29565b60208382038185015262000bab828b62000a29565b9150838203604085015262000bc1828a62000a29565b9150838203606085015262000bd7828962000a29565b84810360808601528751808252828901935090820190845b8181101562000c165784516001600160a01b03168352938301939183019160010162000bef565b505080935050505062000c2d60a083018562000a1c565b62000c3c60c083018462000a1c565b98975050505050505050565b60405181810167ffffffffffffffff8111828210171562000c6557fe5b604052919050565b60005b8381101562000c8a57818101518382015260200162000c70565b8381111562000c9a576000848401525b5050505056fe60806040526040516108443803806108448339818101604052604081101561002657600080fd5b81516020830180516040519294929383019291908464010000000082111561004d57600080fd5b90830190602082018581111561006257600080fd5b825164010000000081118282018810171561007c57600080fd5b82525081516020918201929091019080838360005b838110156100a9578181015183820152602001610091565b50505050905090810190601f1680156100d65780820380516001836020036101000a031916815260200191505b50604052506100e3915050565b6100ed82826100f4565b505061047e565b6101078261024960201b6100311760201c565b6101425760405162461bcd60e51b81526004018080602001828103825260258152602001806107c56025913960400191505060405180910390fd5b6101ba826001600160a01b0316635c60da1b6040518163ffffffff1660e01b815260040160206040518083038186803b15801561017e57600080fd5b505afa158015610192573d6000803e3d6000fd5b505050506040513d60208110156101a857600080fd5b5051610249602090811b61003117901c565b6101f55760405162461bcd60e51b81526004018080602001828103825260348152602001806108106034913960400191505060405180910390fd5b6000805160206107848339815191528281558151156102445761024261021961024f565b836040518060600160405280602181526020016107a4602191396102c260201b6100371760201c565b505b505050565b3b151590565b60006102596103c7565b6001600160a01b0316635c60da1b6040518163ffffffff1660e01b815260040160206040518083038186803b15801561029157600080fd5b505afa1580156102a5573d6000803e3d6000fd5b505050506040513d60208110156102bb57600080fd5b5051905090565b60606102cd84610249565b6103085760405162461bcd60e51b81526004018080602001828103825260268152602001806107ea6026913960400191505060405180910390fd5b600080856001600160a01b0316856040518082805190602001908083835b602083106103455780518252601f199092019160209182019101610326565b6001836020036101000a038019825116818451168082178552505050505050905001915050600060405180830381855af49150503d80600081146103a5576040519150601f19603f3d011682016040523d82523d6000602084013e6103aa565b606091505b5090925090506103bb8282866103da565b925050505b9392505050565b6000805160206107848339815191525490565b606083156103e95750816103c0565b8251156103f95782518084602001fd5b8160405162461bcd60e51b81526004018080602001828103825283818151815260200191508051906020019080838360005b8381101561044357818101518382015260200161042b565b50505050905090810190601f1680156104705780820380516001836020036101000a031916815260200191505b509250505060405180910390fd5b6102f78061048d6000396000f3fe60806040523661001357610011610017565b005b6100115b61001f61002f565b61002f61002a61013b565b6101ae565b565b3b151590565b606061004284610031565b61007d5760405162461bcd60e51b815260040180806020018281038252602681526020018061029c6026913960400191505060405180910390fd5b600080856001600160a01b0316856040518082805190602001908083835b602083106100ba5780518252601f19909201916020918201910161009b565b6001836020036101000a038019825116818451168082178552505050505050905001915050600060405180830381855af49150503d806000811461011a576040519150601f19603f3d011682016040523d82523d6000602084013e61011f565b606091505b509150915061012f8282866101d2565b925050505b9392505050565b6000610145610276565b6001600160a01b0316635c60da1b6040518163ffffffff1660e01b815260040160206040518083038186803b15801561017d57600080fd5b505afa158015610191573d6000803e3d6000fd5b505050506040513d60208110156101a757600080fd5b5051905090565b3660008037600080366000845af43d6000803e8080156101cd573d6000f35b3d6000fd5b606083156101e1575081610134565b8251156101f15782518084602001fd5b8160405162461bcd60e51b81526004018080602001828103825283818151815260200191508051906020019080838360005b8381101561023b578181015183820152602001610223565b50505050905090810190601f1680156102685780820380516001836020036101000a031916815260200191505b509250505060405180910390fd5b7fa3f0ad74e5423aebfd80d3ef4346578335a9a72aeaee59ff6cb3582b35133d50549056fe416464726573733a2064656c65676174652063616c6c20746f206e6f6e2d636f6e7472616374a26469706673582212200d13fbc9dd1124e596f23eb7f271a5a242d59277784a0254458aae2e0fa4bbd364736f6c63430007060033a3f0ad74e5423aebfd80d3ef4346578335a9a72aeaee59ff6cb3582b35133d50426561636f6e50726f78793a2066756e6374696f6e2063616c6c206661696c6564426561636f6e50726f78793a20626561636f6e206973206e6f74206120636f6e7472616374416464726573733a2064656c65676174652063616c6c20746f206e6f6e2d636f6e7472616374426561636f6e50726f78793a20626561636f6e20696d706c656d656e746174696f6e206973206e6f74206120636f6e74726163744f776e61626c653a206e6577206f776e657220697320746865207a65726f2061646472657373a2646970667358221220eddea18042d9f39d17b0a1fd61e2ed79324248e73c5a11bf15501760c458070264736f6c63430007060033",
  "devdoc": {
    "details": "This contract is for creating proxy to access ERC721Rarible token. The beacon should be initialized before call ERC721RaribleFactoryC2 constructor.",
    "kind": "dev",
    "methods": {
      "owner()": {
        "details": "Returns the address of the current owner."
      },
      "renounceOwnership()": {
        "details": "Leaves the contract without owner. It will not be possible to call `onlyOwner` functions anymore. Can only be called by the current owner. NOTE: Renouncing ownership will leave the contract without an owner, thereby removing any functionality that is only available to the owner."
      },
      "transferOwnership(address)": {
        "details": "Transfers ownership of the contract to a new account (`newOwner`). Can only be called by the current owner."
      }
    },
    "version": 1
  },
  "userdoc": {
    "kind": "user",
    "methods": {},
    "version": 1
  },
  "storageLayout": {
    "storage": [
      {
        "astId": 5462,
        "contract": "@rarible/tokens/contracts/create-2/ERC721RaribleFactoryC2.sol:ERC721RaribleFactoryC2",
        "label": "_owner",
        "offset": 0,
        "slot": "0",
        "type": "t_address"
      },
      {
        "astId": 22716,
        "contract": "@rarible/tokens/contracts/create-2/ERC721RaribleFactoryC2.sol:ERC721RaribleFactoryC2",
        "label": "beacon",
        "offset": 0,
        "slot": "1",
        "type": "t_address"
      },
      {
        "astId": 22718,
        "contract": "@rarible/tokens/contracts/create-2/ERC721RaribleFactoryC2.sol:ERC721RaribleFactoryC2",
        "label": "transferProxy",
        "offset": 0,
        "slot": "2",
        "type": "t_address"
      },
      {
        "astId": 22720,
        "contract": "@rarible/tokens/contracts/create-2/ERC721RaribleFactoryC2.sol:ERC721RaribleFactoryC2",
        "label": "lazyTransferProxy",
        "offset": 0,
        "slot": "3",
        "type": "t_address"
      }
    ],
    "types": {
      "t_address": {
        "encoding": "inplace",
        "label": "address",
        "numberOfBytes": "20"
      }
    }
  }
}