{
  "address": "0x3cb55a5CC2D032d5EcBfdCA863acf8C50d94E77A",
  "abi": [
    {
      "anonymous": false,
      "inputs": [
        {
          "indexed": false,
          "internalType": "uint256",
          "name": "oldValue",
          "type": "uint256"
        },
        {
          "indexed": false,
          "internalType": "uint256",
          "name": "newValue",
          "type": "uint256"
        }
      ],
      "name": "BuyerFeeAmountChanged",
      "type": "event"
    },
    {
      "anonymous": false,
      "inputs": [
        {
          "indexed": false,
          "internalType": "bytes32",
          "name": "hash",
          "type": "bytes32"
        }
      ],
      "name": "Cancel",
      "type": "event"
    },
    {
      "anonymous": false,
      "inputs": [
        {
          "indexed": false,
          "internalType": "address",
          "name": "oldValue",
          "type": "address"
        },
        {
          "indexed": false,
          "internalType": "address",
          "name": "newValue",
          "type": "address"
        }
      ],
      "name": "FeeReceiverChanged",
      "type": "event"
    },
    {
      "anonymous": false,
      "inputs": [
        {
          "indexed": false,
          "internalType": "bytes32",
          "name": "leftHash",
          "type": "bytes32"
        },
        {
          "indexed": false,
          "internalType": "bytes32",
          "name": "rightHash",
          "type": "bytes32"
        },
        {
          "indexed": false,
          "internalType": "uint256",
          "name": "newLeftFill",
          "type": "uint256"
        },
        {
          "indexed": false,
          "internalType": "uint256",
          "name": "newRightFill",
          "type": "uint256"
        }
      ],
      "name": "Match",
      "type": "event"
    },
    {
      "anonymous": false,
      "inputs": [
        {
          "indexed": true,
          "internalType": "bytes4",
          "name": "assetType",
          "type": "bytes4"
        },
        {
          "indexed": false,
          "internalType": "address",
          "name": "matcher",
          "type": "address"
        }
      ],
      "name": "MatcherChange",
      "type": "event"
    },
    {
      "anonymous": false,
      "inputs": [
        {
          "indexed": true,
          "internalType": "address",
          "name": "previousOwner",
          "type": "address"
        },
        {
          "indexed": true,
          "internalType": "address",
          "name": "newOwner",
          "type": "address"
        }
      ],
      "name": "OwnershipTransferred",
      "type": "event"
    },
    {
      "anonymous": false,
      "inputs": [
        {
          "indexed": true,
          "internalType": "bytes4",
          "name": "assetType",
          "type": "bytes4"
        },
        {
          "indexed": false,
          "internalType": "address",
          "name": "proxy",
          "type": "address"
        }
      ],
      "name": "ProxyChange",
      "type": "event"
    },
    {
      "anonymous": false,
      "inputs": [
        {
          "indexed": false,
          "internalType": "uint256",
          "name": "oldValue",
          "type": "uint256"
        },
        {
          "indexed": false,
          "internalType": "uint256",
          "name": "newValue",
          "type": "uint256"
        }
      ],
      "name": "SellerFeeAmountChanged",
      "type": "event"
    },
    {
      "inputs": [
        {
          "internalType": "address",
          "name": "_transferProxy",
          "type": "address"
        },
        {
          "internalType": "address",
          "name": "_erc20TransferProxy",
          "type": "address"
        },
        {
          "internalType": "uint256",
          "name": "newProtocolFee",
          "type": "uint256"
        },
        {
          "internalType": "address",
          "name": "newDefaultFeeReceiver",
          "type": "address"
        },
        {
          "internalType": "contract IRoyaltiesProvider",
          "name": "newRoyaltiesProvider",
          "type": "address"
        }
      ],
      "name": "__ExchangeV2_init",
      "outputs": [],
      "stateMutability": "nonpayable",
      "type": "function"
    },
    {
      "inputs": [
        {
          "components": [
            {
              "internalType": "address",
              "name": "maker",
              "type": "address"
            },
            {
              "components": [
                {
                  "components": [
                    {
                      "internalType": "bytes4",
                      "name": "assetClass",
                      "type": "bytes4"
                    },
                    {
                      "internalType": "bytes",
                      "name": "data",
                      "type": "bytes"
                    }
                  ],
                  "internalType": "struct LibAsset.AssetType",
                  "name": "assetType",
                  "type": "tuple"
                },
                {
                  "internalType": "uint256",
                  "name": "value",
                  "type": "uint256"
                }
              ],
              "internalType": "struct LibAsset.Asset",
              "name": "makeAsset",
              "type": "tuple"
            },
            {
              "internalType": "address",
              "name": "taker",
              "type": "address"
            },
            {
              "components": [
                {
                  "components": [
                    {
                      "internalType": "bytes4",
                      "name": "assetClass",
                      "type": "bytes4"
                    },
                    {
                      "internalType": "bytes",
                      "name": "data",
                      "type": "bytes"
                    }
                  ],
                  "internalType": "struct LibAsset.AssetType",
                  "name": "assetType",
                  "type": "tuple"
                },
                {
                  "internalType": "uint256",
                  "name": "value",
                  "type": "uint256"
                }
              ],
              "internalType": "struct LibAsset.Asset",
              "name": "takeAsset",
              "type": "tuple"
            },
            {
              "internalType": "uint256",
              "name": "salt",
              "type": "uint256"
            },
            {
              "internalType": "uint256",
              "name": "start",
              "type": "uint256"
            },
            {
              "internalType": "uint256",
              "name": "end",
              "type": "uint256"
            },
            {
              "internalType": "bytes4",
              "name": "dataType",
              "type": "bytes4"
            },
            {
              "internalType": "bytes",
              "name": "data",
              "type": "bytes"
            }
          ],
          "internalType": "struct LibOrder.Order",
          "name": "order",
          "type": "tuple"
        }
      ],
      "name": "cancel",
      "outputs": [],
      "stateMutability": "nonpayable",
      "type": "function"
    },
    {
      "inputs": [
        {
          "components": [
            {
              "internalType": "address",
              "name": "bidMaker",
              "type": "address"
            },
            {
              "internalType": "uint256",
              "name": "bidNftAmount",
              "type": "uint256"
            },
            {
              "internalType": "bytes4",
              "name": "nftAssetClass",
              "type": "bytes4"
            },
            {
              "internalType": "bytes",
              "name": "nftData",
              "type": "bytes"
            },
            {
              "internalType": "uint256",
              "name": "bidPaymentAmount",
              "type": "uint256"
            },
            {
              "internalType": "address",
              "name": "paymentToken",
              "type": "address"
            },
            {
              "internalType": "uint256",
              "name": "bidSalt",
              "type": "uint256"
            },
            {
              "internalType": "uint256",
              "name": "bidStart",
              "type": "uint256"
            },
            {
              "internalType": "uint256",
              "name": "bidEnd",
              "type": "uint256"
            },
            {
              "internalType": "bytes4",
              "name": "bidDataType",
              "type": "bytes4"
            },
            {
              "internalType": "bytes",
              "name": "bidData",
              "type": "bytes"
            },
            {
              "internalType": "bytes",
              "name": "bidSignature",
              "type": "bytes"
            },
            {
              "internalType": "uint256",
              "name": "sellOrderPaymentAmount",
              "type": "uint256"
            },
            {
              "internalType": "uint256",
              "name": "sellOrderNftAmount",
              "type": "uint256"
            },
            {
              "internalType": "bytes",
              "name": "sellOrderData",
              "type": "bytes"
            }
          ],
          "internalType": "struct LibDirectTransfer.AcceptBid",
          "name": "direct",
          "type": "tuple"
        }
      ],
      "name": "directAcceptBid",
      "outputs": [],
      "stateMutability": "payable",
      "type": "function"
    },
    {
      "inputs": [
        {
          "components": [
            {
              "internalType": "address",
              "name": "sellOrderMaker",
              "type": "address"
            },
            {
              "internalType": "uint256",
              "name": "sellOrderNftAmount",
              "type": "uint256"
            },
            {
              "internalType": "bytes4",
              "name": "nftAssetClass",
              "type": "bytes4"
            },
            {
              "internalType": "bytes",
              "name": "nftData",
              "type": "bytes"
            },
            {
              "internalType": "uint256",
              "name": "sellOrderPaymentAmount",
              "type": "uint256"
            },
            {
              "internalType": "address",
              "name": "paymentToken",
              "type": "address"
            },
            {
              "internalType": "uint256",
              "name": "sellOrderSalt",
              "type": "uint256"
            },
            {
              "internalType": "uint256",
              "name": "sellOrderStart",
              "type": "uint256"
            },
            {
              "internalType": "uint256",
              "name": "sellOrderEnd",
              "type": "uint256"
            },
            {
              "internalType": "bytes4",
              "name": "sellOrderDataType",
              "type": "bytes4"
            },
            {
              "internalType": "bytes",
              "name": "sellOrderData",
              "type": "bytes"
            },
            {
              "internalType": "bytes",
              "name": "sellOrderSignature",
              "type": "bytes"
            },
            {
              "internalType": "uint256",
              "name": "buyOrderPaymentAmount",
              "type": "uint256"
            },
            {
              "internalType": "uint256",
              "name": "buyOrderNftAmount",
              "type": "uint256"
            },
            {
              "internalType": "bytes",
              "name": "buyOrderData",
              "type": "bytes"
            }
          ],
          "internalType": "struct LibDirectTransfer.Purchase",
          "name": "direct",
          "type": "tuple"
        }
      ],
      "name": "directPurchase",
      "outputs": [],
      "stateMutability": "payable",
      "type": "function"
    },
    {
      "inputs": [
        {
          "internalType": "bytes32",
          "name": "",
          "type": "bytes32"
        }
      ],
      "name": "fills",
      "outputs": [
        {
          "internalType": "uint256",
          "name": "",
          "type": "uint256"
        }
      ],
      "stateMutability": "view",
      "type": "function"
    },
    {
      "inputs": [
        {
          "components": [
            {
              "internalType": "address",
              "name": "maker",
              "type": "address"
            },
            {
              "components": [
                {
                  "components": [
                    {
                      "internalType": "bytes4",
                      "name": "assetClass",
                      "type": "bytes4"
                    },
                    {
                      "internalType": "bytes",
                      "name": "data",
                      "type": "bytes"
                    }
                  ],
                  "internalType": "struct LibAsset.AssetType",
                  "name": "assetType",
                  "type": "tuple"
                },
                {
                  "internalType": "uint256",
                  "name": "value",
                  "type": "uint256"
                }
              ],
              "internalType": "struct LibAsset.Asset",
              "name": "makeAsset",
              "type": "tuple"
            },
            {
              "internalType": "address",
              "name": "taker",
              "type": "address"
            },
            {
              "components": [
                {
                  "components": [
                    {
                      "internalType": "bytes4",
                      "name": "assetClass",
                      "type": "bytes4"
                    },
                    {
                      "internalType": "bytes",
                      "name": "data",
                      "type": "bytes"
                    }
                  ],
                  "internalType": "struct LibAsset.AssetType",
                  "name": "assetType",
                  "type": "tuple"
                },
                {
                  "internalType": "uint256",
                  "name": "value",
                  "type": "uint256"
                }
              ],
              "internalType": "struct LibAsset.Asset",
              "name": "takeAsset",
              "type": "tuple"
            },
            {
              "internalType": "uint256",
              "name": "salt",
              "type": "uint256"
            },
            {
              "internalType": "uint256",
              "name": "start",
              "type": "uint256"
            },
            {
              "internalType": "uint256",
              "name": "end",
              "type": "uint256"
            },
            {
              "internalType": "bytes4",
              "name": "dataType",
              "type": "bytes4"
            },
            {
              "internalType": "bytes",
              "name": "data",
              "type": "bytes"
            }
          ],
          "internalType": "struct LibOrder.Order",
          "name": "orderLeft",
          "type": "tuple"
        },
        {
          "internalType": "bytes",
          "name": "signatureLeft",
          "type": "bytes"
        },
        {
          "components": [
            {
              "internalType": "address",
              "name": "maker",
              "type": "address"
            },
            {
              "components": [
                {
                  "components": [
                    {
                      "internalType": "bytes4",
                      "name": "assetClass",
                      "type": "bytes4"
                    },
                    {
                      "internalType": "bytes",
                      "name": "data",
                      "type": "bytes"
                    }
                  ],
                  "internalType": "struct LibAsset.AssetType",
                  "name": "assetType",
                  "type": "tuple"
                },
                {
                  "internalType": "uint256",
                  "name": "value",
                  "type": "uint256"
                }
              ],
              "internalType": "struct LibAsset.Asset",
              "name": "makeAsset",
              "type": "tuple"
            },
            {
              "internalType": "address",
              "name": "taker",
              "type": "address"
            },
            {
              "components": [
                {
                  "components": [
                    {
                      "internalType": "bytes4",
                      "name": "assetClass",
                      "type": "bytes4"
                    },
                    {
                      "internalType": "bytes",
                      "name": "data",
                      "type": "bytes"
                    }
                  ],
                  "internalType": "struct LibAsset.AssetType",
                  "name": "assetType",
                  "type": "tuple"
                },
                {
                  "internalType": "uint256",
                  "name": "value",
                  "type": "uint256"
                }
              ],
              "internalType": "struct LibAsset.Asset",
              "name": "takeAsset",
              "type": "tuple"
            },
            {
              "internalType": "uint256",
              "name": "salt",
              "type": "uint256"
            },
            {
              "internalType": "uint256",
              "name": "start",
              "type": "uint256"
            },
            {
              "internalType": "uint256",
              "name": "end",
              "type": "uint256"
            },
            {
              "internalType": "bytes4",
              "name": "dataType",
              "type": "bytes4"
            },
            {
              "internalType": "bytes",
              "name": "data",
              "type": "bytes"
            }
          ],
          "internalType": "struct LibOrder.Order",
          "name": "orderRight",
          "type": "tuple"
        },
        {
          "internalType": "bytes",
          "name": "signatureRight",
          "type": "bytes"
        }
      ],
      "name": "matchOrders",
      "outputs": [],
      "stateMutability": "payable",
      "type": "function"
    },
    {
      "inputs": [],
      "name": "owner",
      "outputs": [
        {
          "internalType": "address",
          "name": "",
          "type": "address"
        }
      ],
      "stateMutability": "view",
      "type": "function"
    },
    {
      "inputs": [],
      "name": "protocolFee",
      "outputs": [
        {
          "internalType": "address",
          "name": "receiver",
          "type": "address"
        },
        {
          "internalType": "uint48",
          "name": "buyerAmount",
          "type": "uint48"
        },
        {
          "internalType": "uint48",
          "name": "sellerAmount",
          "type": "uint48"
        }
      ],
      "stateMutability": "view",
      "type": "function"
    },
    {
      "inputs": [],
      "name": "renounceOwnership",
      "outputs": [],
      "stateMutability": "nonpayable",
      "type": "function"
    },
    {
      "inputs": [],
      "name": "royaltiesRegistry",
      "outputs": [
        {
          "internalType": "contract IRoyaltiesProvider",
          "name": "",
          "type": "address"
        }
      ],
      "stateMutability": "view",
      "type": "function"
    },
    {
      "inputs": [
        {
          "internalType": "address",
          "name": "_receiver",
          "type": "address"
        },
        {
          "internalType": "uint48",
          "name": "_buyerAmount",
          "type": "uint48"
        },
        {
          "internalType": "uint48",
          "name": "_sellerAmount",
          "type": "uint48"
        }
      ],
      "name": "setAllProtocolFeeData",
      "outputs": [],
      "stateMutability": "nonpayable",
      "type": "function"
    },
    {
      "inputs": [
        {
          "internalType": "bytes4",
          "name": "assetType",
          "type": "bytes4"
        },
        {
          "internalType": "address",
          "name": "matcher",
          "type": "address"
        }
      ],
      "name": "setAssetMatcher",
      "outputs": [],
      "stateMutability": "nonpayable",
      "type": "function"
    },
    {
      "inputs": [
        {
          "internalType": "uint48",
          "name": "_buyerAmount",
          "type": "uint48"
        }
      ],
      "name": "setPrtocolFeeBuyerAmount",
      "outputs": [],
      "stateMutability": "nonpayable",
      "type": "function"
    },
    {
      "inputs": [
        {
          "internalType": "address",
          "name": "_receiver",
          "type": "address"
        }
      ],
      "name": "setPrtocolFeeReceiver",
      "outputs": [],
      "stateMutability": "nonpayable",
      "type": "function"
    },
    {
      "inputs": [
        {
          "internalType": "uint48",
          "name": "_sellerAmount",
          "type": "uint48"
        }
      ],
      "name": "setPrtocolFeeSellerAmount",
      "outputs": [],
      "stateMutability": "nonpayable",
      "type": "function"
    },
    {
      "inputs": [
        {
          "internalType": "contract IRoyaltiesProvider",
          "name": "newRoyaltiesRegistry",
          "type": "address"
        }
      ],
      "name": "setRoyaltiesRegistry",
      "outputs": [],
      "stateMutability": "nonpayable",
      "type": "function"
    },
    {
      "inputs": [
        {
          "internalType": "bytes4",
          "name": "assetType",
          "type": "bytes4"
        },
        {
          "internalType": "address",
          "name": "proxy",
          "type": "address"
        }
      ],
      "name": "setTransferProxy",
      "outputs": [],
      "stateMutability": "nonpayable",
      "type": "function"
    },
    {
      "inputs": [
        {
          "internalType": "address",
          "name": "newOwner",
          "type": "address"
        }
      ],
      "name": "transferOwnership",
      "outputs": [],
      "stateMutability": "nonpayable",
      "type": "function"
    }
  ],
  "transactionHash": "0x7ef72e2ff3a0a1a6bd65b055cbd7c1e11acb05c67c7b467264648cba3221d4d9",
  "args": [],
  "numDeployments": 2,
  "solcInputHash": "18cf8d0003f91de2c6ccf5af55330880",
  "bytecode": "0x608060405234801561001057600080fd5b506152d7806100206000396000f3fe6080604052600436106101095760003560e01c8063b0e21e8a11610095578063d6ca6ab711610064578063d6ca6ab71461029c578063e2864fe3146102bc578063e99a3f80146102dc578063eae3ad6f146102ef578063f2fde38b1461030f57610109565b8063b0e21e8a14610218578063b39deb461461023c578063b74c8e9a1461025c578063bc158c2d1461027c57610109565b80633be89922116100dc5780633be899221461019957806367d49a3b146101b95780636d8f0694146101cc578063715018a6146101ee5780638da5cb5b1461020357610109565b80630d5f7d351461010e5780631372a6251461012357806320158c441461014357806330c642f114610179575b600080fd5b61012161011c36600461486c565b61032f565b005b34801561012f57600080fd5b5061012161013e366004614709565b61064c565b34801561014f57600080fd5b5061016361015e366004614800565b610720565b6040516101709190614c69565b60405180910390f35b34801561018557600080fd5b50610121610194366004614834565b610733565b3480156101a557600080fd5b506101216101b43660046144b4565b610803565b6101216101c736600461486c565b610888565b3480156101d857600080fd5b506101e1610b68565b6040516101709190614b9d565b3480156101fa57600080fd5b50610121610b78565b34801561020f57600080fd5b506101e1610c24565b34801561022457600080fd5b5061022d610c33565b60405161017093929190614c40565b34801561024857600080fd5b50610121610257366004614834565b610c5e565b34801561026857600080fd5b50610121610277366004614770565b610d22565b34801561028857600080fd5b506101216102973660046144b4565b610da4565b3480156102a857600080fd5b506101216102b7366004614b3a565b610e71565b3480156102c857600080fd5b506101216102d7366004614a61565b610f4b565b6101216102ea366004614a93565b61100c565b3480156102fb57600080fd5b5061012161030a366004614b3a565b611022565b34801561031b57600080fd5b5061012161032a3660046144b4565b6110f9565b600061034961034460c0840160a085016144b4565b6111fc565b6040805161012081019091529091506000908061036960208601866144b4565b6001600160a01b03168152602001604051806040016040528060405180604001604052808860400160208101906103a09190614818565b6001600160e01b03191681526020016103bc60608a018a61507f565b8080601f0160208091040260200160405190810160405280939291908181526020018383808284376000920182905250939094525050918352506020888101359281019290925291835282810191909152604080518082018252868152608080890135938201939093529083015260c080870135606084015260e08701359183019190915261010086013560a08301520161045f61014086016101208701614818565b6001600160e01b031916815260200161047c61014086018661507f565b8080601f01602080910402602001604051908101604052809392919081815260200183838082843760009201829052509390945250506040805161012081018252828152815180830183528781526101808901356020828101919091528201528082018390528151608081018352949550919391925060608084019291829182820191829161051091908c01908c01614818565b6001600160e01b031916815260200161052c60608b018b61507f565b8080601f0160208091040260200160405190810160405280939291908181526020018383808284376000920182905250939094525050918352506101a0890135602092830152918352820181905260408201819052606082015260800161059b61014087016101208801614818565b6001600160e01b03191681526020016105b86101c087018761507f565b8080601f0160208091040260200160405190810160405280939291908181526020018383808284376000920191909152505050915250905061063c8261060261016087018761507f565b8080601f01602080910402602001604051908101604052809392919081815260200183838082843760009201919091525061126292505050565b6106468282611279565b50505050565b600054610100900460ff168061066557506106656114cb565b80610673575060005460ff16155b6106ae5760405162461bcd60e51b815260040180806020018281038252602e815260200180615211602e913960400191505060405180910390fd5b600054610100900460ff161580156106d9576000805460ff1961ff0019909116610100171660011790555b6106e16114dc565b6106e961157e565b6106f38686611677565b6106fe848484611721565b6107066117e1565b8015610718576000805461ff00191690555b505050505050565b61012f6020526000908152604090205481565b61073b6118b1565b6001600160a01b031661074c610c24565b6001600160a01b031614610795576040805162461bcd60e51b81526020600482018190526024820152600080516020615282833981519152604482015290519081900360640190fd5b6001600160e01b031982166000818152609760205260409081902080546001600160a01b0319166001600160a01b038516179055517f4b5aced933c0c9a88aeac3f0b3b72c5aaf75df8ebaf53225773248c4c3153593906107f7908490614b9d565b60405180910390a25050565b61080b6118b1565b6001600160a01b031661081c610c24565b6001600160a01b031614610865576040805162461bcd60e51b81526020600482018190526024820152600080516020615282833981519152604482015290519081900360640190fd5b61016280546001600160a01b0319166001600160a01b0392909216919091179055565b600061089d61034460c0840160a085016144b4565b604080516101208101909152909150600090806108bd60208601866144b4565b6001600160a01b0316815260200160405180604001604052808581526020018660800135815250815260200160006001600160a01b03168152602001604051806040016040528060405180604001604052808860400160208101906109229190614818565b6001600160e01b031916815260200161093e60608a018a61507f565b8080601f016020809104026020016040519081016040528093929190818152602001838380828437600092019190915250505091525081526020878101359181019190915290825260c08601359082015260e0850135604082015261010085013560608201526080016109b961014086016101208701614818565b6001600160e01b03191681526020016109d661014086018661507f565b8080601f01602080910402602001604051908101604052809392919081815260200183838082843760009201829052509390945250506040805161012081018252828152815160808101835294955091939192506020830191908190818101908190610a489060608c01908c01614818565b6001600160e01b0319168152602001610a6460608b018b61507f565b8080601f0160208091040260200160405190810160405280939291908181526020018383808284376000920182905250939094525050918352506101a08901356020928301529183528281018290526040805180820182528881526101808a013592810192909252830152606082018190526080820181905260a082015260c001610af761014087016101208801614818565b6001600160e01b0319168152602001610b146101c087018761507f565b8080601f01602080910402602001604051908101604052809392919081815260200183838082843760009201919091525050509152509050610b5e8261060261016087018761507f565b6106468183611279565b610162546001600160a01b031681565b610b806118b1565b6001600160a01b0316610b91610c24565b6001600160a01b031614610bda576040805162461bcd60e51b81526020600482018190526024820152600080516020615282833981519152604482015290519081900360640190fd5b6033546040516000916001600160a01b0316907f8be0079c531659141344cd1fd0a4f28419497f9722a3daafe3b4186f6b6457e0908390a3603380546001600160a01b0319169055565b6033546001600160a01b031690565b610161546001600160a01b0381169065ffffffffffff600160a01b8204811691600160d01b90041683565b610c666118b1565b6001600160a01b0316610c77610c24565b6001600160a01b031614610cc0576040805162461bcd60e51b81526020600482018190526024820152600080516020615282833981519152604482015290519081900360640190fd5b6001600160e01b031982166000818152606560205260409081902080546001600160a01b0319166001600160a01b038516179055517fd2bf91075f105d0fd80328da28e20ebdad1c1261839711183bc29a44cbe6c72f906107f7908490614b9d565b610d2a6118b1565b6001600160a01b0316610d3b610c24565b6001600160a01b031614610d84576040805162461bcd60e51b81526020600482018190526024820152600080516020615282833981519152604482015290519081900360640190fd5b610d8d83610da4565b610d9682610e71565b610d9f81611022565b505050565b610dac6118b1565b6001600160a01b0316610dbd610c24565b6001600160a01b031614610e06576040805162461bcd60e51b81526020600482018190526024820152600080516020615282833981519152604482015290519081900360640190fd5b610161546040517fa4b009cc442411b602eaf94bc0579b6abdb8fd90b4ef5b9426e270038906bd0391610e46916001600160a01b03909116908490614bb1565b60405180910390a161016180546001600160a01b0319166001600160a01b0392909216919091179055565b610e796118b1565b6001600160a01b0316610e8a610c24565b6001600160a01b031614610ed3576040805162461bcd60e51b81526020600482018190526024820152600080516020615282833981519152604482015290519081900360640190fd5b610161546040517f70bba4f904a93ba5c1af3a1bb602bc9c058551dbe963dfe0b6cb5bc11c5fea9e91610f1891600160a01b90910465ffffffffffff16908490615066565b60405180910390a1610161805465ffffffffffff909216600160a01b0265ffffffffffff60a01b19909216919091179055565b80516001600160a01b0316610f5e6118b1565b6001600160a01b031614610f8d5760405162461bcd60e51b8152600401610f8490614fd6565b60405180910390fd5b6080810151610fae5760405162461bcd60e51b8152600401610f8490614d68565b6000610fb9826118b5565b600081815261012f6020526040908190206000199055519091507fe8d9861dbc9c663ed3accd261bbe2fe01e0d3d9e5f51fa38523b265c7757a93a90611000908390614c69565b60405180910390a15050565b61101884848484611a3d565b6106468483611279565b61102a6118b1565b6001600160a01b031661103b610c24565b6001600160a01b031614611084576040805162461bcd60e51b81526020600482018190526024820152600080516020615282833981519152604482015290519081900360640190fd5b610161546040517fa8af9093caa9beb61d20432227c66258ceef926f21879b80f3adf22a4d19f131916110c991600160d01b90910465ffffffffffff16908490615066565b60405180910390a1610161805465ffffffffffff909216600160d01b026001600160d01b03909216919091179055565b6111016118b1565b6001600160a01b0316611112610c24565b6001600160a01b03161461115b576040805162461bcd60e51b81526020600482018190526024820152600080516020615282833981519152604482015290519081900360640190fd5b6001600160a01b0381166111a05760405162461bcd60e51b815260040180806020018281038252602681526020018061517c6026913960400191505060405180910390fd5b6033546040516001600160a01b038084169216907f8be0079c531659141344cd1fd0a4f28419497f9722a3daafe3b4186f6b6457e090600090a3603380546001600160a01b0319166001600160a01b0392909216919091179055565b6112046140a9565b61120c6140a9565b6001600160a01b038316611229576355575f5d60e11b815261125a565b6322ba176160e21b8152604051611244908490602001614b9d565b60408051601f1981840301815291905260208201525b90505b919050565b61126b82611b09565b6112758282611bd3565b5050565b6000806112868484611e82565b9150915060008060006112998787611f1b565b9250925092506000806113f26040518060a0016040528060405180604001604052808b8152602001876000015181525081526020018760000151815260200187602001518152602001609760008b600001516001600160e01b0319166001600160e01b031916815260200190815260200160002060009054906101000a90046001600160a01b03166001600160a01b031681526020018b600001516001600160a01b03168152506040518060a0016040528060405180604001604052808b8152602001886020015181525081526020018760000151815260200187602001518152602001609760008b600001516001600160e01b0319166001600160e01b031916815260200190815260200160002060009054906101000a90046001600160a01b03166001600160a01b031681526020018b600001516001600160a01b03168152506113ed8a600001518a60000151611fca565b61209c565b885191935091506001600160e01b0319166355575f5d60e11b14156114715785516001600160e01b0319166355575f5d60e11b141561143057600080fd5b813410156114505760405162461bcd60e51b8152600401610f8490614fae565b8134111561146c5761146c6114653484612213565b3390612270565b6114c0565b85516001600160e01b0319166355575f5d60e11b14156114c057803410156114ab5760405162461bcd60e51b8152600401610f8490614fae565b803411156114c0576114c06114653483612213565b505050505050505050565b60006114d630612308565b15905090565b600054610100900460ff16806114f557506114f56114cb565b80611503575060005460ff16155b61153e5760405162461bcd60e51b815260040180806020018281038252602e815260200180615211602e913960400191505060405180910390fd5b600054610100900460ff16158015611569576000805460ff1961ff0019909116610100171660011790555b801561157b576000805461ff00191690555b50565b600054610100900460ff168061159757506115976114cb565b806115a5575060005460ff16155b6115e05760405162461bcd60e51b815260040180806020018281038252602e815260200180615211602e913960400191505060405180910390fd5b600054610100900460ff1615801561160b576000805460ff1961ff0019909116610100171660011790555b60006116156118b1565b603380546001600160a01b0319166001600160a01b038316908117909155604051919250906000907f8be0079c531659141344cd1fd0a4f28419497f9722a3daafe3b4186f6b6457e0908290a350801561157b576000805461ff001916905550565b60976020527f4532fa16f071d6234e30e1a1e69b9806f04095edf37a1ca7a25c8d6af7861cc080546001600160a01b039283166001600160a01b0319918216179091557f30a684095c937b5aa064dcf94f9903a7d808e3efb22d8389dbd43080ad4ed3d5805493909216928116831790915563025ceed960e61b6000527f4b5822151ea34b7c8d9e37c3e466bcecb631efe6a9f26a4a4054110a93dd316f80549091169091179055565b600054610100900460ff168061173a575061173a6114cb565b80611748575060005460ff16155b6117835760405162461bcd60e51b815260040180806020018281038252602e815260200180615211602e913960400191505060405180910390fd5b600054610100900460ff161580156117ae576000805460ff1961ff0019909116610100171660011790555b61016280546001600160a01b0319166001600160a01b0384161790558015610646576000805461ff001916905550505050565b600054610100900460ff16806117fa57506117fa6114cb565b80611808575060005460ff16155b6118435760405162461bcd60e51b815260040180806020018281038252602e815260200180615211602e913960400191505060405180910390fd5b600054610100900460ff1615801561186e576000805460ff1961ff0019909116610100171660011790555b6115696040518060400160405280600881526020016745786368616e676560c01b815250604051806040016040528060018152602001601960f91b81525061230e565b3390565b60e08101516000906001600160e01b031916632611a13360e11b14806118e9575060e08201516001600160e01b0319908116145b1561195e5781516020830151516118ff906123ce565b60608401515161190e906123ce565b846080015160405160200180856001600160a01b0316815260200184815260200183815260200182815260200194505050505060405160208183030381529060405280519060200120905061125d565b815160208301515161196f906123ce565b60608401515161197e906123ce565b846080015185610100015160405160200180866001600160a01b0316815260200185815260200184815260200183815260200180602001828103825283818151815260200191508051906020019080838360005b838110156119ea5781810151838201526020016119d2565b50505050905090810190601f168015611a175780820380516001836020036101000a031916815260200191505b50965050505050505060405160208183030381529060405280519060200120905061125d565b611a478484611262565b611a518282611262565b60408401516001600160a01b031615611aad5781516001600160a01b031615611aad5783604001516001600160a01b031682600001516001600160a01b031614611aad5760405162461bcd60e51b8152600401610f8490614f6b565b60408201516001600160a01b0316156106465783516001600160a01b0316156106465783600001516001600160a01b031682604001516001600160a01b0316146106465760405162461bcd60e51b8152600401610f8490614dda565b60a08101511580611b1d5750428160a00151105b611b6e576040805162461bcd60e51b815260206004820152601d60248201527f4f726465722073746172742076616c69646174696f6e206661696c6564000000604482015290519081900360640190fd5b60c08101511580611b825750428160c00151115b61157b576040805162461bcd60e51b815260206004820152601b60248201527f4f7264657220656e642076616c69646174696f6e206661696c65640000000000604482015290519081900360640190fd5b6080820151611c585781516001600160a01b031615611c535781516001600160a01b0316611bff6118b1565b6001600160a01b031614611c53576040805162461bcd60e51b815260206004820152601660248201527536b0b5b2b91034b9903737ba103a3c1039b2b73232b960511b604482015290519081900360640190fd5b611275565b81516001600160a01b0316611c6b6118b1565b6001600160a01b031614611275576000611c8483612438565b9050611c9c83600001516001600160a01b0316612308565b15611dd8578251630b135d3f60e11b906001600160a01b0316631626ba7e611cc384612528565b856040518363ffffffff1660e01b81526004018083815260200180602001828103825283818151815260200191508051906020019080838360005b83811015611d16578181015183820152602001611cfe565b50505050905090810190601f168015611d435780820380516001836020036101000a031916815260200191505b50935050505060206040518083038186803b158015611d6157600080fd5b505afa158015611d75573d6000803e3d6000fd5b505050506040513d6020811015611d8b57600080fd5b50516001600160e01b03191614611dd35760405162461bcd60e51b815260040180806020018281038252602b8152602001806151e6602b913960400191505060405180910390fd5b610d9f565b82516001600160a01b0316611df683611df084612528565b90612574565b6001600160a01b031614611e3b5760405162461bcd60e51b81526004018080602001828103825260228152602001806151c46022913960400191505060405180910390fd5b82516001600160a01b0316610d9f576040805162461bcd60e51b815260206004820152600860248201526737379036b0b5b2b960c11b604482015290519081900360640190fd5b611e8a6140a9565b611e926140a9565b602084015151606084015151611ea891906125f4565b80519092506001600160e01b031916611ed35760405162461bcd60e51b8152600401610f8490614f3f565b606084015151602084015151611ee991906125f4565b80519091506001600160e01b031916611f145760405162461bcd60e51b8152600401610f8490614f3f565b9250929050565b611f236140c1565b611f2b6140c1565b611f336140e4565b6000611f3e866118b5565b90506000611f4b866118b5565b90506000611f576118b1565b88519091506001600160a01b0316611f76576001600160a01b03811688525b86516001600160a01b0316611f92576001600160a01b03811687525b611f9b88612634565b9550611fa687612634565b9450611fbe888885858a604001518a6040015161272d565b93505050509250925092565b60006001600160e01b031983166355575f5d60e11b1415611fed57506001612096565b6001600160e01b031982166355575f5d60e11b141561200e57506002612096565b6001600160e01b031983166322ba176160e21b141561202f57506001612096565b6001600160e01b031982166322ba176160e21b141561205057506002612096565b6001600160e01b0319831663025ceed960e61b141561207157506001612096565b6001600160e01b0319821663025ceed960e61b141561209257506002612096565b5060005b92915050565b825160209081015183519091015160018360028111156120b857fe5b141561213a5760408051606081018252610161546001600160a01b038116825265ffffffffffff600160a01b820481166020840152600160d01b909104169181019190915261210a90869086906128e8565b9150612135846000015160000151856000015160200151866080015188602001518860600151612b62565b61220b565b600283600281111561214857fe5b14156121c55760408051606081018252610161546001600160a01b038116825265ffffffffffff600160a01b820481166020840152600160d01b909104169181019190915261219a90859087906128e8565b9050612135856000015160000151866000015160200151876080015187602001518960600151612b62565b8451805160209182015160808801519287015160608901516121e8949190612b62565b83518051602091820151608087015192880151606088015161220b949190612b62565b935093915050565b60008282111561226a576040805162461bcd60e51b815260206004820152601e60248201527f536166654d6174683a207375627472616374696f6e206f766572666c6f770000604482015290519081900360640190fd5b50900390565b6040516000906001600160a01b0384169083908381818185875af1925050503d80600081146122bb576040519150601f19603f3d011682016040523d82523d6000602084013e6122c0565b606091505b5050905080610d9f576040805162461bcd60e51b815260206004820152600f60248201526e1d1c985b9cd9995c8819985a5b1959608a1b604482015290519081900360640190fd5b3b151590565b600054610100900460ff168061232757506123276114cb565b80612335575060005460ff16155b6123705760405162461bcd60e51b815260040180806020018281038252602e815260200180615211602e913960400191505060405180910390fd5b600054610100900460ff1615801561239b576000805460ff1961ff0019909116610100171660011790555b825160208085019190912083519184019190912060c99190915560ca558015610d9f576000805461ff0019169055505050565b8051602091820151805190830120604080517f452a0dc408cb0d27ffc3b3caff933a5208040a53a9dbecd8d89cad2c0d40e00c818601526001600160e01b031990931683820152606080840192909252805180840390920182526080909201909152805191012090565b60007f477ed43b8020849b755512278536c3766a3b4ab547519949a75f483372493f8d826000015161246d8460200151612ce6565b846040015161247f8660600151612ce6565b86608001518760a001518860c001518960e001518a610100015180519060200120604051602001808b81526020018a6001600160a01b03168152602001898152602001886001600160a01b03168152602001878152602001868152602001858152602001848152602001836001600160e01b03191681526020018281526020019a5050505050505050505050604051602081830303815290604052805190602001209050919050565b6000612532612d56565b82604051602001808061190160f01b81525060020183815260200182815260200192505050604051602081830303815290604052805190602001209050919050565b600081516041146125cc576040805162461bcd60e51b815260206004820152601f60248201527f45434453413a20696e76616c6964207369676e6174757265206c656e67746800604482015290519081900360640190fd5b60208201516040830151606084015160001a6125ea86828585612d96565b9695505050505050565b6125fc6140a9565b60006126088484612fec565b80519091506001600160e01b03191661262d576126258385612fec565b915050612096565b9050612096565b61263c6140c1565b60e08201516001600160e01b031916632611a13360e11b14156126885760008261010001518060200190518101906126749190614929565b805183526020908101519083015250612714565b60e08201516001600160e01b0319166323d235ef60e01b14156126e05760008261010001518060200190518101906126c091906149b5565b805183526020808201519084015260409081015115159083015250612714565b60e08201516001600160e01b031990811614156126fc57612714565b60405162461bcd60e51b8152600401610f8490614ed1565b80515161125d57815161272690613208565b8152919050565b6127356140e4565b60006127458860800151876132a3565b905060006127578860800151876132a3565b905060006127698a8a85858a8a6132c8565b9050896020015160200151600014158061278a575060608901516020015115155b156127ad5780516127ad5760405162461bcd60e51b8152600401610f8490614e4a565b60608a0151602001511515806127c957506020808a0151015115155b156127f25760008160200151116127f25760405162461bcd60e51b8152600401610f8490614e4a565b60808a01511561284557851561282457805161280f908490613357565b600089815261012f6020526040902055612845565b6020810151612834908490613357565b600089815261012f60205260409020555b60808901511561289857841561287a576020810151612865908390613357565b600088815261012f6020526040902055612898565b8051612887908390613357565b600088815261012f60205260409020555b602081015181516040517f956cd63ee4cdcd81fda5f0ec7c6c36dceda99e1b412f4a650a5d26055dc3c450926128d3928c928c929190614c72565b60405180910390a19998505050505050505050565b60006129018460000151602001518386604001516133b8565b9050600061292b828660000151602001518760800151868960000151600001518a6060015161345a565b8551805186515160208089015193015160808a015160608b01519596506129599593949293879291906134b7565b9050846040015151600114801561297557508360400151516001145b80156129ca5750846040015160008151811061298d57fe5b6020026020010151600001516001600160a01b031684604001516000815181106129b357fe5b6020026020010151600001516001600160a01b0316145b15612ae057604080516001808252818301909252600091816020015b6129ee6140fe565b8152602001906001900390816129e65790505090508460400151600081518110612a1457fe5b60200260200101516000015181600081518110612a2d57fe5b60209081029190910101516001600160a01b03909116905260408601518051600090612a5557fe5b6020026020010151602001518560400151600081518110612a7257fe5b6020026020010151602001510181600081518110612a8c57fe5b6020026020010151602001906001600160601b031690816001600160601b031681525050612ad686600001516000015183886000015160200151848a608001518b606001516135bc565b509150612b399050565b612b0a85600001516000015182876000015160200151886040015189608001518a606001516135bc565b50855180516020909101516040870151608089015160608a0151949550612b359486939291906135bc565b5090505b612b5a85600001516000015182876080015187602001518960600151612b62565b509392505050565b6000825111612b835760405162461bcd60e51b8152600401610f8490614d96565b600084815b6001855103811015612c52576000612bc9868381518110612ba557fe5b6020026020010151602001516001600160601b03168961367190919063ffffffff16565b9050612bfe868381518110612bda57fe5b6020026020010151602001516001600160601b03168561335790919063ffffffff16565b93508015612c4957612c108382612213565b9250612c4960405180604001604052808b81526020018381525088888581518110612c3757fe5b60200260200101516000015188613689565b50600101612b88565b50600084600186510381518110612c6557fe5b60200260200101519050612c8f81602001516001600160601b03168461335790919063ffffffff16565b92508261271014612cb25760405162461bcd60e51b8152600401610f8490614f08565b8115612cdc57612cdc60405180604001604052808a81526020018481525087836000015187613689565b5050505050505050565b60007fdb6f72e915676cfc289da13bc4ece054fd17b1df6d77ffc4a60510718c236b08612d1683600001516123ce565b8360200151604051602001808481526020018381526020018281526020019350505050604051602081830303815290604052805190602001209050919050565b6000612d917f8b73c3c69bb8fe3d512ecc4cf759cc79239f7b179b0ffacaa9a75d522b39400f612d84613a91565b612d8c613a97565b613a9d565b905090565b60007f7fffffffffffffffffffffffffffffff5d576e7357a4501ddfe92f46681b20a0821115612df75760405162461bcd60e51b81526004018080602001828103825260228152602001806151a26022913960400191505060405180910390fd5b6000601e8560ff161115612ed1576004850360ff16601b1480612e2057506004850360ff16601c145b612e5b5760405162461bcd60e51b815260040180806020018281038252602281526020018061523f6022913960400191505060405180910390fd5b6001612e6687613aff565b60048703868660405160008152602001604052604051808581526020018460ff1681526020018381526020018281526020019450505050506020604051602081039080840390855afa158015612ec0573d6000803e3d6000fd5b505050602060405103519050612f88565b8460ff16601b1480612ee657508460ff16601c145b612f215760405162461bcd60e51b815260040180806020018281038252602281526020018061523f6022913960400191505060405180910390fd5b60018686868660405160008152602001604052604051808581526020018460ff1681526020018381526020018281526020019450505050506020604051602081039080840390855afa158015612f7b573d6000803e3d6000fd5b5050506020604051035190505b6001600160a01b038116612fe3576040805162461bcd60e51b815260206004820152601860248201527f45434453413a20696e76616c6964207369676e61747572650000000000000000604482015290519081900360640190fd5b95945050505050565b612ff46140a9565b825182516001600160e01b031982166355575f5d60e11b141561305f576001600160e01b031981166355575f5d60e11b1415613034578492505050612096565b5050604080518082018252600080825282516020818101909452908152918101919091529050612096565b6001600160e01b031982166322ba176160e21b14156130a4576001600160e01b031981166322ba176160e21b14156130345761309b8585613b50565b92505050612096565b6001600160e01b031982166339d690a360e11b14156130e0576001600160e01b031981166339d690a360e11b14156130345761309b8585613b50565b6001600160e01b0319821663025ceed960e61b141561311c576001600160e01b0319811663025ceed960e61b14156130345761309b8585613b50565b6001600160e01b031982166000908152606560205260409020546001600160a01b031680156131d1576040516306d3f7cb60e41b81526001600160a01b03821690636d3f7cb0906131739089908990600401614ffb565b60006040518083038186803b15801561318b57600080fd5b505afa15801561319f573d6000803e3d6000fd5b505050506040513d6000823e601f3d908101601f191682016040526131c7919081019061489e565b9350505050612096565b6001600160e01b031983811690831614156131f0576131c78686613b50565b60405162461bcd60e51b8152600401610f8490614cfa565b60408051600180825281830190925260609160009190816020015b61322b6140fe565b815260200190600190039081613223579050509050828160008151811061324e57fe5b6020026020010151600001906001600160a01b031690816001600160a01b0316815250506127108160008151811061328257fe5b6020908102919091018101516001600160601b039092169101529050919050565b6000826132b257506000612096565b50600090815261012f6020526040902054919050565b6132d06140e4565b6000806132de898887613bad565b915091506000806132f08a8988613bad565b9150915083811180613300575083155b1561332c5761332184848c60200151602001518d6060015160200151613c26565b9450505050506125ea565b6133488b60200151602001518c60600151602001518484613cab565b9b9a5050505050505050505050565b6000828201838110156133b1576040805162461bcd60e51b815260206004820152601b60248201527f536166654d6174683a206164646974696f6e206f766572666c6f770000000000604482015290519081900360640190fd5b9392505050565b602082015160009065ffffffffffff16815b8351811015613445576127108482815181106133e257fe5b6020026020010151602001516001600160601b031611156134155760405162461bcd60e51b8152600401610f8490614ea2565b83818151811061342157fe5b6020026020010151602001516001600160601b0316820191508060010190506133ca565b50612fe36134538683613671565b8690613357565b600080600061347c8989886040015189602001510165ffffffffffff16613d31565b909250905080156134ab576134ab60405180604001604052808781526020018381525088886000015187613689565b50979650505050505050565b6000806134c388613d53565b9050805160011480156134d7575086516001145b80156135245750866000815181106134eb57fe5b6020026020010151600001516001600160a01b03168160008151811061350d57fe5b6020026020010151600001516001600160a01b0316145b15613575576113888160008151811061353957fe5b6020026020010151602001516001600160601b0316111561356c5760405162461bcd60e51b8152600401610f8490614d31565b859150506135b1565b6000806135868b8989868a8a6135bc565b915091506113888111156135ac5760405162461bcd60e51b8152600401610f8490614d31565b509150505b979650505050505050565b846000805b8551811015613665576135fd8682815181106135d957fe5b6020026020010151602001516001600160601b03168361335790919063ffffffff16565b9150600061362c848989858151811061361257fe5b6020026020010151602001516001600160601b0316613d31565b9094509050801561365c5761365c60405180604001604052808c81526020018381525087898581518110612c3757fe5b506001016135c1565b50965096945050505050565b60006133b16127106136838585613ec8565b90613f21565b8351516001600160e01b0319166339d690a360e11b14156137cf576000808560000151602001518060200190518101906136c391906146dc565b9150915085602001516001146136eb5760405162461bcd60e51b8152600401610f8490614e1e565b6001600160a01b03851630141561376357604051632142170760e11b81526001600160a01b038316906342842e0e9061372c90309088908690600401614bcb565b600060405180830381600087803b15801561374657600080fd5b505af115801561375a573d6000803e3d6000fd5b505050506137c8565b604051637b84dc8360e11b81526001600160a01b0384169063f709b90690613795908590899089908790600401614cd0565b600060405180830381600087803b1580156137af57600080fd5b505af11580156137c3573d6000803e3d6000fd5b505050505b5050610646565b8351516001600160e01b0319166322ba176160e21b141561392d57600084600001516020015180602001905181019061380891906144d0565b90506001600160a01b0384163014156138bf57602085015160405163a9059cbb60e01b81526001600160a01b0383169163a9059cbb9161384c918791600401614c27565b602060405180830381600087803b15801561386657600080fd5b505af115801561387a573d6000803e3d6000fd5b505050506040513d601f19601f8201168201806040525081019061389e91906147e6565b6138ba5760405162461bcd60e51b8152600401610f8490614e73565b613927565b602085015160405163776062c360e01b81526001600160a01b0384169163776062c3916138f491859189918991600401614cd0565b600060405180830381600087803b15801561390e57600080fd5b505af1158015613922573d6000803e3d6000fd5b505050505b50610646565b8351516001600160e01b03191663025ceed960e61b14156139ea5760008085600001516020015180602001905181019061396791906146dc565b90925090506001600160a01b0385163014156139b2576020860151604051637921219560e11b81526001600160a01b0384169163f242432a9161372c91309189918791600401614bef565b6020860151604051639c1c2ee960e01b81526001600160a01b03851691639c1c2ee9916137959186918a918a91889190600401614c8d565b8351516001600160e01b0319166355575f5d60e11b1415613a33576001600160a01b0382163014613a2e576020840151613a2e906001600160a01b03841690612270565b610646565b6040516354bc0cf160e01b81526001600160a01b038216906354bc0cf190613a6390879087908790600401615020565b600060405180830381600087803b158015613a7d57600080fd5b505af1158015612cdc573d6000803e3d6000fd5b60c95490565b60ca5490565b6000838383613aaa613f88565b3060405160200180868152602001858152602001848152602001838152602001826001600160a01b03168152602001955050505050506040516020818303038152906040528051906020012090509392505050565b604080517f19457468657265756d205369676e6564204d6573736167653a0a333200000000602080830191909152603c8083019490945282518083039094018452605c909101909152815191012090565b613b586140a9565b60208084015180519082012083820151805192019190912080821415613b82578492505050612096565b5050604080518082018252600080825282516020808201909452908152918101919091529392505050565b6000808215613bec576020808601510151613bc89085612213565b9150613be585606001516020015186602001516020015184613f8c565b905061220b565b606085015160200151613bff9085612213565b9050613c1c85602001516020015186606001516020015183613f8c565b9150935093915050565b613c2e6140e4565b6000613c3b858585613f8c565b905085811115613c92576040805162461bcd60e51b815260206004820152601860248201527f66696c6c4c6566743a20756e61626c6520746f2066696c6c0000000000000000604482015290519081900360640190fd5b5050604080518082019091529384525050602082015290565b613cb36140e4565b6000613cc0838787613f8c565b905083811115613d17576040805162461bcd60e51b815260206004820152601960248201527f66696c6c52696768743a20756e61626c6520746f2066696c6c00000000000000604482015290519081900360640190fd5b604080518082019091529283526020830152509392505050565b600080613d4785613d428686613671565b613ff2565b91509150935093915050565b80516060906001600160e01b03191663025ceed960e61b1480613d87575081516001600160e01b0319166339d690a360e11b145b15613e3d576000808360200151806020019051810190613da791906146dc565b61016254604051634e53ee3d60e11b81529294509092506001600160a01b031690639ca7dc7a90613dde9085908590600401614c27565b600060405180830381600087803b158015613df857600080fd5b505af1158015613e0c573d6000803e3d6000fd5b505050506040513d6000823e601f3d908101601f19168201604052613e3491908101906147b4565b9250505061125d565b81516001600160e01b03191662737ea960e61b1415613e7e5760008260200151806020019051810190613e7091906144ec565b60800151925061125d915050565b81516001600160e01b03191663d8f960c160e01b1415613ec05760008260200151806020019051810190613eb291906145e9565b60600151925061125d915050565b506060919050565b600082613ed757506000612096565b82820282848281613ee457fe5b04146133b15760405162461bcd60e51b81526004018080602001828103825260218152602001806152616021913960400191505060405180910390fd5b6000808211613f77576040805162461bcd60e51b815260206004820152601a60248201527f536166654d6174683a206469766973696f6e206279207a65726f000000000000604482015290519081900360640190fd5b818381613f8057fe5b049392505050565b4690565b6000613f9984848461401a565b15613fdc576040805162461bcd60e51b815260206004820152600e60248201526d3937bab73234b7339032b93937b960911b604482015290519081900360640190fd5b613fea836136838685613ec8565b949350505050565b60008082841115614011576140078484612213565b9150829050611f14565b50600093915050565b600082614061576040805162461bcd60e51b815260206004820152601060248201526f6469766973696f6e206279207a65726f60801b604482015290519081900360640190fd5b81158061406c575083155b15614079575060006133b1565b6000838061408357fe5b85840990506140928584613ec8565b61409e826103e8613ec8565b101595945050505050565b60408051808201909152600081526060602082015290565b604051806060016040528060608152602001606081526020016000151581525090565b604051806040016040528060008152602001600081525090565b604080518082019091526000808252602082015290565b803561125d81615150565b600082601f830112614130578081fd5b81516020614145614140836150e6565b6150c3565b82815281810190858301855b8581101561417a57614168898684518b01016142a9565b84529284019290840190600101614151565b5090979650505050505050565b600082601f830112614197578081fd5b815160206141a7614140836150e6565b828152818101908583016040808602880185018910156141c5578687fd5b865b868110156142345781838b0312156141dd578788fd5b81518281018181106001600160401b03821117156141f757fe5b8352835161420481615150565b8152838701516001600160601b038116811461421e57898afd5b81880152855293850193918101916001016141c7565b509198975050505050505050565b8051801515811461125d57600080fd5b803561125d81615165565b600082601f83011261426d578081fd5b813561427b61414082615103565b81815284602083860101111561428f578283fd5b816020850160208301379081016020019190915292915050565b600082601f8301126142b9578081fd5b81516142c761414082615103565b8181528460208386010111156142db578283fd5b613fea826020830160208701615124565b60006101e082840312156142fe578081fd5b50919050565b60006040808385031215614316578182fd5b80518181016001600160401b03828210818311171561433157fe5b81845282945085358181111561434657600080fd5b860180880385131561435757600080fd5b60808401838110838211171561436957fe5b90945283359361437885615165565b9382526020840135938185111561438e57600080fd5b61439a8886830161425d565b60608501525050815260209384013593019290925292915050565b60006101208083850312156143c8578182fd5b6143d1816150c3565b9150506143dd82614115565b815260208201356001600160401b03808211156143f957600080fd5b61440585838601614304565b602084015261441660408501614115565b6040840152606084013591508082111561442f57600080fd5b61443b85838601614304565b60608401526080840135608084015260a084013560a084015260c084013560c084015261446a60e08501614252565b60e08401526101009150818401358181111561448557600080fd5b6144918682870161425d565b8385015250505092915050565b803565ffffffffffff8116811461125d57600080fd5b6000602082840312156144c5578081fd5b81356133b181615150565b6000602082840312156144e1578081fd5b81516133b181615150565b600080604083850312156144fe578081fd5b825161450981615150565b60208401519092506001600160401b0380821115614525578283fd5b9084019060c08287031215614538578283fd5b61454260c06150c3565b82518152602083015182811115614557578485fd5b614563888286016142a9565b60208301525060408301516040820152606083015182811115614584578485fd5b61459088828601614187565b6060830152506080830151828111156145a7578485fd5b6145b388828601614187565b60808301525060a0830151828111156145ca578485fd5b6145d688828601614120565b60a0830152508093505050509250929050565b600080604083850312156145fb578182fd5b825161460681615150565b60208401519092506001600160401b0380821115614622578283fd5b9084019060a08287031215614635578283fd5b61463f60a06150c3565b82518152602083015182811115614654578485fd5b614660888286016142a9565b602083015250604083015182811115614677578485fd5b61468388828601614187565b60408301525060608301518281111561469a578485fd5b6146a688828601614187565b6060830152506080830151828111156146bd578485fd5b6146c988828601614120565b6080830152508093505050509250929050565b600080604083850312156146ee578182fd5b82516146f981615150565b6020939093015192949293505050565b600080600080600060a08688031215614720578081fd5b853561472b81615150565b9450602086013561473b81615150565b935060408601359250606086013561475281615150565b9150608086013561476281615150565b809150509295509295909350565b600080600060608486031215614784578081fd5b833561478f81615150565b925061479d6020850161449e565b91506147ab6040850161449e565b90509250925092565b6000602082840312156147c5578081fd5b81516001600160401b038111156147da578182fd5b613fea84828501614187565b6000602082840312156147f7578081fd5b6133b182614242565b600060208284031215614811578081fd5b5035919050565b600060208284031215614829578081fd5b81356133b181615165565b60008060408385031215614846578182fd5b823561485181615165565b9150602083013561486181615150565b809150509250929050565b60006020828403121561487d578081fd5b81356001600160401b03811115614892578182fd5b613fea848285016142ec565b6000602082840312156148af578081fd5b81516001600160401b03808211156148c5578283fd5b90830190604082860312156148d8578283fd5b6040516040810181811083821117156148ed57fe5b60405282516148fb81615165565b815260208301518281111561490e578485fd5b61491a878286016142a9565b60208301525095945050505050565b60006020828403121561493a578081fd5b81516001600160401b0380821115614950578283fd5b9083019060408286031215614963578283fd5b60405160408101818110838211171561497857fe5b604052825182811115614989578485fd5b61499587828601614187565b8252506020830151828111156149a9578485fd5b61491a87828601614187565b6000602082840312156149c6578081fd5b81516001600160401b03808211156149dc578283fd5b90830190606082860312156149ef578283fd5b604051606081018181108382111715614a0457fe5b604052825182811115614a15578485fd5b614a2187828601614187565b825250602083015182811115614a35578485fd5b614a4187828601614187565b602083015250614a5360408401614242565b604082015295945050505050565b600060208284031215614a72578081fd5b81356001600160401b03811115614a87578182fd5b613fea848285016143b5565b60008060008060808587031215614aa8578182fd5b84356001600160401b0380821115614abe578384fd5b614aca888389016143b5565b95506020870135915080821115614adf578384fd5b614aeb8883890161425d565b94506040870135915080821115614b00578384fd5b614b0c888389016143b5565b93506060870135915080821115614b21578283fd5b50614b2e8782880161425d565b91505092959194509250565b600060208284031215614b4b578081fd5b6133b18261449e565b600063ffffffff60e01b82511683526020820151604060208501528051806040860152614b88816060870160208501615124565b601f01601f1916939093016060019392505050565b6001600160a01b0391909116815260200190565b6001600160a01b0392831681529116602082015260400190565b6001600160a01b039384168152919092166020820152604081019190915260600190565b6001600160a01b0394851681529290931660208301526040820152606081019190915260a06080820181905260009082015260c00190565b6001600160a01b03929092168252602082015260400190565b6001600160a01b0393909316835265ffffffffffff918216602084015216604082015260600190565b90815260200190565b93845260208401929092526040830152606082015260800190565b6001600160a01b03958616815293851660208501529190931660408301526060820192909252608081019190915260c060a0820181905260009082015260e00190565b6001600160a01b039485168152928416602084015292166040820152606081019190915260800190565b60208082526017908201527f6e6f7420666f756e64204941737365744d617463686572000000000000000000604082015260600190565b6020808252601d908201527f526f79616c746965732061726520746f6f206869676820283e35302529000000604082015260600190565b6020808252601490820152730c081cd85b1d0818d85b89dd081899481d5cd95960621b604082015260600190565b60208082526024908201527f7472616e736665725061796f7574733a206e6f7468696e6720746f207472616e60408201526339b332b960e11b606082015260800190565b60208082526024908201527f72696768744f726465722e74616b657220766572696669636174696f6e2066616040820152631a5b195960e21b606082015260800190565b60208082526012908201527132b9319b9918903b30b63ab29032b93937b960711b604082015260600190565b6020808252600f908201526e1b9bdd1a1a5b99c81d1bc8199a5b1b608a1b604082015260600190565b602080825260159082015274195c98cc8c081d1c985b9cd9995c8819985a5b1959605a1b604082015260600190565b6020808252601590820152746f726967696e2066656520697320746f6f2062696760581b604082015260600190565b60208082526017908201527f556e6b6e6f776e204f7264657220646174612074797065000000000000000000604082015260600190565b6020808252601e908201527f53756d207061796f75747320427073206e6f7420657175616c20313030250000604082015260600190565b6020808252601290820152710c2e6e6cae8e640c8dedc4ee840dac2e8c6d60731b604082015260600190565b60208082526023908201527f6c6566744f726465722e74616b657220766572696669636174696f6e206661696040820152621b195960ea1b606082015260800190565b6020808252600e908201526d0dcdee840cadcdeeaced040cae8d60931b604082015260600190565b6020808252600b908201526a3737ba10309036b0b5b2b960a91b604082015260600190565b60006040825261500e6040830185614b54565b8281036020840152612fe38185614b54565b60006060825284516040606084015261503c60a0840182614b54565b60209687015160808501526001600160a01b03958616968401969096525050911660409091015290565b65ffffffffffff92831681529116602082015260400190565b6000808335601e19843603018112615095578283fd5b8301803591506001600160401b038211156150ae578283fd5b602001915036819003821315611f1457600080fd5b6040518181016001600160401b03811182821017156150de57fe5b604052919050565b60006001600160401b038211156150f957fe5b5060209081020190565b60006001600160401b0382111561511657fe5b50601f01601f191660200190565b60005b8381101561513f578181015183820152602001615127565b838111156106465750506000910152565b6001600160a01b038116811461157b57600080fd5b6001600160e01b03198116811461157b57600080fdfe4f776e61626c653a206e6577206f776e657220697320746865207a65726f206164647265737345434453413a20696e76616c6964207369676e6174757265202773272076616c75656f72646572207369676e617475726520766572696669636174696f6e206572726f72636f6e7472616374206f72646572207369676e617475726520766572696669636174696f6e206572726f72496e697469616c697a61626c653a20636f6e747261637420697320616c726561647920696e697469616c697a656445434453413a20696e76616c6964207369676e6174757265202776272076616c7565536166654d6174683a206d756c7469706c69636174696f6e206f766572666c6f774f776e61626c653a2063616c6c6572206973206e6f7420746865206f776e6572a2646970667358221220f74a93ad2119baf51e2331ba3273c6b8cb7f2a69c6a2681551547b9584249fb864736f6c63430007060033",
  "devdoc": {
    "kind": "dev",
    "methods": {
      "directAcceptBid((address,uint256,bytes4,bytes,uint256,address,uint256,uint256,uint256,bytes4,bytes,bytes,uint256,uint256,bytes))": {
        "details": "function, generate sellOrder and buyOrder from parameters and call validateAndMatch() for accept bid transaction",
        "params": {
          "direct": "struct with parameters for accept bid operation"
        }
      },
      "directPurchase((address,uint256,bytes4,bytes,uint256,address,uint256,uint256,uint256,bytes4,bytes,bytes,uint256,uint256,bytes))": {
        "details": "function, generate sellOrder and buyOrder from parameters and call validateAndMatch() for purchase transaction"
      },
      "owner()": {
        "details": "Returns the address of the current owner."
      },
      "renounceOwnership()": {
        "details": "Leaves the contract without owner. It will not be possible to call `onlyOwner` functions anymore. Can only be called by the current owner. NOTE: Renouncing ownership will leave the contract without an owner, thereby removing any functionality that is only available to the owner."
      },
      "transferOwnership(address)": {
        "details": "Transfers ownership of the contract to a new account (`newOwner`). Can only be called by the current owner."
      }
    },
    "version": 1
  },
  "userdoc": {
    "kind": "user",
    "methods": {},
    "version": 1
  },
  "storageLayout": {
    "storage": [
      {
        "astId": 739,
        "contract": "@rarible/exchange-v2/contracts/ExchangeV2.sol:ExchangeV2",
        "label": "_initialized",
        "offset": 0,
        "slot": "0",
        "type": "t_bool"
      },
      {
        "astId": 742,
        "contract": "@rarible/exchange-v2/contracts/ExchangeV2.sol:ExchangeV2",
        "label": "_initializing",
        "offset": 1,
        "slot": "0",
        "type": "t_bool"
      },
      {
        "astId": 4256,
        "contract": "@rarible/exchange-v2/contracts/ExchangeV2.sol:ExchangeV2",
        "label": "__gap",
        "offset": 0,
        "slot": "1",
        "type": "t_array(t_uint256)50_storage"
      },
      {
        "astId": 10,
        "contract": "@rarible/exchange-v2/contracts/ExchangeV2.sol:ExchangeV2",
        "label": "_owner",
        "offset": 0,
        "slot": "51",
        "type": "t_address"
      },
      {
        "astId": 129,
        "contract": "@rarible/exchange-v2/contracts/ExchangeV2.sol:ExchangeV2",
        "label": "__gap",
        "offset": 0,
        "slot": "52",
        "type": "t_array(t_uint256)49_storage"
      },
      {
        "astId": 11953,
        "contract": "@rarible/exchange-v2/contracts/ExchangeV2.sol:ExchangeV2",
        "label": "matchers",
        "offset": 0,
        "slot": "101",
        "type": "t_mapping(t_bytes4,t_address)"
      },
      {
        "astId": 12199,
        "contract": "@rarible/exchange-v2/contracts/ExchangeV2.sol:ExchangeV2",
        "label": "__gap",
        "offset": 0,
        "slot": "102",
        "type": "t_array(t_uint256)49_storage"
      },
      {
        "astId": 31255,
        "contract": "@rarible/exchange-v2/contracts/ExchangeV2.sol:ExchangeV2",
        "label": "proxies",
        "offset": 0,
        "slot": "151",
        "type": "t_mapping(t_bytes4,t_address)"
      },
      {
        "astId": 31552,
        "contract": "@rarible/exchange-v2/contracts/ExchangeV2.sol:ExchangeV2",
        "label": "__gap",
        "offset": 0,
        "slot": "152",
        "type": "t_array(t_uint256)49_storage"
      },
      {
        "astId": 138,
        "contract": "@rarible/exchange-v2/contracts/ExchangeV2.sol:ExchangeV2",
        "label": "_HASHED_NAME",
        "offset": 0,
        "slot": "201",
        "type": "t_bytes32"
      },
      {
        "astId": 140,
        "contract": "@rarible/exchange-v2/contracts/ExchangeV2.sol:ExchangeV2",
        "label": "_HASHED_VERSION",
        "offset": 0,
        "slot": "202",
        "type": "t_bytes32"
      },
      {
        "astId": 289,
        "contract": "@rarible/exchange-v2/contracts/ExchangeV2.sol:ExchangeV2",
        "label": "__gap",
        "offset": 0,
        "slot": "203",
        "type": "t_array(t_uint256)50_storage"
      },
      {
        "astId": 13421,
        "contract": "@rarible/exchange-v2/contracts/ExchangeV2.sol:ExchangeV2",
        "label": "__gap",
        "offset": 0,
        "slot": "253",
        "type": "t_array(t_uint256)50_storage"
      },
      {
        "astId": 12353,
        "contract": "@rarible/exchange-v2/contracts/ExchangeV2.sol:ExchangeV2",
        "label": "fills",
        "offset": 0,
        "slot": "303",
        "type": "t_mapping(t_bytes32,t_uint256)"
      },
      {
        "astId": 13285,
        "contract": "@rarible/exchange-v2/contracts/ExchangeV2.sol:ExchangeV2",
        "label": "__gap",
        "offset": 0,
        "slot": "304",
        "type": "t_array(t_uint256)49_storage"
      },
      {
        "astId": 30182,
        "contract": "@rarible/exchange-v2/contracts/ExchangeV2.sol:ExchangeV2",
        "label": "protocolFee",
        "offset": 0,
        "slot": "353",
        "type": "t_struct(ProtocolFeeData)30218_storage"
      },
      {
        "astId": 30184,
        "contract": "@rarible/exchange-v2/contracts/ExchangeV2.sol:ExchangeV2",
        "label": "royaltiesRegistry",
        "offset": 0,
        "slot": "354",
        "type": "t_contract(IRoyaltiesProvider)11922"
      },
      {
        "astId": 30186,
        "contract": "@rarible/exchange-v2/contracts/ExchangeV2.sol:ExchangeV2",
        "label": "defaultFeeReceiver",
        "offset": 0,
        "slot": "355",
        "type": "t_address"
      },
      {
        "astId": 30190,
        "contract": "@rarible/exchange-v2/contracts/ExchangeV2.sol:ExchangeV2",
        "label": "feeReceivers",
        "offset": 0,
        "slot": "356",
        "type": "t_mapping(t_address,t_address)"
      },
      {
        "astId": 31231,
        "contract": "@rarible/exchange-v2/contracts/ExchangeV2.sol:ExchangeV2",
        "label": "__gap",
        "offset": 0,
        "slot": "357",
        "type": "t_array(t_uint256)46_storage"
      }
    ],
    "types": {
      "t_address": {
        "encoding": "inplace",
        "label": "address",
        "numberOfBytes": "20"
      },
      "t_array(t_uint256)46_storage": {
        "base": "t_uint256",
        "encoding": "inplace",
        "label": "uint256[46]",
        "numberOfBytes": "1472"
      },
      "t_array(t_uint256)49_storage": {
        "base": "t_uint256",
        "encoding": "inplace",
        "label": "uint256[49]",
        "numberOfBytes": "1568"
      },
      "t_array(t_uint256)50_storage": {
        "base": "t_uint256",
        "encoding": "inplace",
        "label": "uint256[50]",
        "numberOfBytes": "1600"
      },
      "t_bool": {
        "encoding": "inplace",
        "label": "bool",
        "numberOfBytes": "1"
      },
      "t_bytes32": {
        "encoding": "inplace",
        "label": "bytes32",
        "numberOfBytes": "32"
      },
      "t_bytes4": {
        "encoding": "inplace",
        "label": "bytes4",
        "numberOfBytes": "4"
      },
      "t_contract(IRoyaltiesProvider)11922": {
        "encoding": "inplace",
        "label": "contract IRoyaltiesProvider",
        "numberOfBytes": "20"
      },
      "t_mapping(t_address,t_address)": {
        "encoding": "mapping",
        "key": "t_address",
        "label": "mapping(address => address)",
        "numberOfBytes": "32",
        "value": "t_address"
      },
      "t_mapping(t_bytes32,t_uint256)": {
        "encoding": "mapping",
        "key": "t_bytes32",
        "label": "mapping(bytes32 => uint256)",
        "numberOfBytes": "32",
        "value": "t_uint256"
      },
      "t_mapping(t_bytes4,t_address)": {
        "encoding": "mapping",
        "key": "t_bytes4",
        "label": "mapping(bytes4 => address)",
        "numberOfBytes": "32",
        "value": "t_address"
      },
      "t_struct(ProtocolFeeData)30218_storage": {
        "encoding": "inplace",
        "label": "struct RaribleTransferManager.ProtocolFeeData",
        "members": [
          {
            "astId": 30213,
            "contract": "@rarible/exchange-v2/contracts/ExchangeV2.sol:ExchangeV2",
            "label": "receiver",
            "offset": 0,
            "slot": "0",
            "type": "t_address"
          },
          {
            "astId": 30215,
            "contract": "@rarible/exchange-v2/contracts/ExchangeV2.sol:ExchangeV2",
            "label": "buyerAmount",
            "offset": 20,
            "slot": "0",
            "type": "t_uint48"
          },
          {
            "astId": 30217,
            "contract": "@rarible/exchange-v2/contracts/ExchangeV2.sol:ExchangeV2",
            "label": "sellerAmount",
            "offset": 26,
            "slot": "0",
            "type": "t_uint48"
          }
        ],
        "numberOfBytes": "32"
      },
      "t_uint256": {
        "encoding": "inplace",
        "label": "uint256",
        "numberOfBytes": "32"
      },
      "t_uint48": {
        "encoding": "inplace",
        "label": "uint48",
        "numberOfBytes": "6"
      }
    }
  }
}