{
  "address": "0xa36e6ee8c5eEBfb1738fb78ce3d09562869F58A4",
  "abi": [
    {
      "anonymous": false,
      "inputs": [
        {
          "indexed": true,
          "internalType": "address",
          "name": "account",
          "type": "address"
        },
        {
          "indexed": true,
          "internalType": "address",
          "name": "operator",
          "type": "address"
        },
        {
          "indexed": false,
          "internalType": "bool",
          "name": "approved",
          "type": "bool"
        }
      ],
      "name": "ApprovalForAll",
      "type": "event"
    },
    {
      "anonymous": false,
      "inputs": [
        {
          "indexed": false,
          "internalType": "string",
          "name": "newBaseURI",
          "type": "string"
        }
      ],
      "name": "BaseUriChanged",
      "type": "event"
    },
    {
      "anonymous": false,
      "inputs": [
        {
          "indexed": true,
          "internalType": "address",
          "name": "operator",
          "type": "address"
        },
        {
          "indexed": true,
          "internalType": "address",
          "name": "account",
          "type": "address"
        },
        {
          "indexed": false,
          "internalType": "uint256",
          "name": "id",
          "type": "uint256"
        },
        {
          "indexed": false,
          "internalType": "uint256",
          "name": "amount",
          "type": "uint256"
        }
      ],
      "name": "BurnLazy",
      "type": "event"
    },
    {
      "anonymous": false,
      "inputs": [
        {
          "indexed": true,
          "internalType": "address",
          "name": "operator",
          "type": "address"
        },
        {
          "indexed": true,
          "internalType": "address",
          "name": "account",
          "type": "address"
        },
        {
          "indexed": false,
          "internalType": "uint256[]",
          "name": "ids",
          "type": "uint256[]"
        },
        {
          "indexed": false,
          "internalType": "uint256[]",
          "name": "amounts",
          "type": "uint256[]"
        }
      ],
      "name": "BurnLazyBatch",
      "type": "event"
    },
    {
      "anonymous": false,
      "inputs": [
        {
          "indexed": false,
          "internalType": "address",
          "name": "owner",
          "type": "address"
        },
        {
          "indexed": false,
          "internalType": "string",
          "name": "name",
          "type": "string"
        },
        {
          "indexed": false,
          "internalType": "string",
          "name": "symbol",
          "type": "string"
        }
      ],
      "name": "CreateERC1155Rarible",
      "type": "event"
    },
    {
      "anonymous": false,
      "inputs": [
        {
          "indexed": false,
          "internalType": "address",
          "name": "owner",
          "type": "address"
        },
        {
          "indexed": false,
          "internalType": "string",
          "name": "name",
          "type": "string"
        },
        {
          "indexed": false,
          "internalType": "string",
          "name": "symbol",
          "type": "string"
        }
      ],
      "name": "CreateERC1155RaribleUser",
      "type": "event"
    },
    {
      "anonymous": false,
      "inputs": [
        {
          "indexed": false,
          "internalType": "uint256",
          "name": "tokenId",
          "type": "uint256"
        },
        {
          "components": [
            {
              "internalType": "address payable",
              "name": "account",
              "type": "address"
            },
            {
              "internalType": "uint96",
              "name": "value",
              "type": "uint96"
            }
          ],
          "indexed": false,
          "internalType": "struct LibPart.Part[]",
          "name": "creators",
          "type": "tuple[]"
        }
      ],
      "name": "Creators",
      "type": "event"
    },
    {
      "anonymous": false,
      "inputs": [
        {
          "indexed": true,
          "internalType": "address",
          "name": "operator",
          "type": "address"
        },
        {
          "indexed": false,
          "internalType": "bool",
          "name": "hasApproval",
          "type": "bool"
        }
      ],
      "name": "DefaultApproval",
      "type": "event"
    },
    {
      "anonymous": false,
      "inputs": [
        {
          "indexed": false,
          "internalType": "address",
          "name": "userAddress",
          "type": "address"
        },
        {
          "indexed": false,
          "internalType": "address payable",
          "name": "relayerAddress",
          "type": "address"
        },
        {
          "indexed": false,
          "internalType": "bytes",
          "name": "functionSignature",
          "type": "bytes"
        }
      ],
      "name": "MetaTransactionExecuted",
      "type": "event"
    },
    {
      "anonymous": false,
      "inputs": [
        {
          "indexed": true,
          "internalType": "address",
          "name": "minter",
          "type": "address"
        },
        {
          "indexed": true,
          "internalType": "bool",
          "name": "status",
          "type": "bool"
        }
      ],
      "name": "MinterStatusChanged",
      "type": "event"
    },
    {
      "anonymous": false,
      "inputs": [
        {
          "indexed": true,
          "internalType": "address",
          "name": "previousOwner",
          "type": "address"
        },
        {
          "indexed": true,
          "internalType": "address",
          "name": "newOwner",
          "type": "address"
        }
      ],
      "name": "OwnershipTransferred",
      "type": "event"
    },
    {
      "anonymous": false,
      "inputs": [
        {
          "indexed": false,
          "internalType": "uint256",
          "name": "tokenId",
          "type": "uint256"
        },
        {
          "components": [
            {
              "internalType": "address payable",
              "name": "account",
              "type": "address"
            },
            {
              "internalType": "uint96",
              "name": "value",
              "type": "uint96"
            }
          ],
          "indexed": false,
          "internalType": "struct LibPart.Part[]",
          "name": "royalties",
          "type": "tuple[]"
        }
      ],
      "name": "RoyaltiesSet",
      "type": "event"
    },
    {
      "anonymous": false,
      "inputs": [
        {
          "indexed": false,
          "internalType": "uint256",
          "name": "tokenId",
          "type": "uint256"
        },
        {
          "indexed": false,
          "internalType": "uint256",
          "name": "value",
          "type": "uint256"
        }
      ],
      "name": "Supply",
      "type": "event"
    },
    {
      "anonymous": false,
      "inputs": [
        {
          "indexed": true,
          "internalType": "address",
          "name": "operator",
          "type": "address"
        },
        {
          "indexed": true,
          "internalType": "address",
          "name": "from",
          "type": "address"
        },
        {
          "indexed": true,
          "internalType": "address",
          "name": "to",
          "type": "address"
        },
        {
          "indexed": false,
          "internalType": "uint256[]",
          "name": "ids",
          "type": "uint256[]"
        },
        {
          "indexed": false,
          "internalType": "uint256[]",
          "name": "values",
          "type": "uint256[]"
        }
      ],
      "name": "TransferBatch",
      "type": "event"
    },
    {
      "anonymous": false,
      "inputs": [
        {
          "indexed": true,
          "internalType": "address",
          "name": "operator",
          "type": "address"
        },
        {
          "indexed": true,
          "internalType": "address",
          "name": "from",
          "type": "address"
        },
        {
          "indexed": true,
          "internalType": "address",
          "name": "to",
          "type": "address"
        },
        {
          "indexed": false,
          "internalType": "uint256",
          "name": "id",
          "type": "uint256"
        },
        {
          "indexed": false,
          "internalType": "uint256",
          "name": "value",
          "type": "uint256"
        }
      ],
      "name": "TransferSingle",
      "type": "event"
    },
    {
      "anonymous": false,
      "inputs": [
        {
          "indexed": false,
          "internalType": "string",
          "name": "value",
          "type": "string"
        },
        {
          "indexed": true,
          "internalType": "uint256",
          "name": "id",
          "type": "uint256"
        }
      ],
      "name": "URI",
      "type": "event"
    },
    {
      "inputs": [
        {
          "internalType": "string",
          "name": "_name",
          "type": "string"
        },
        {
          "internalType": "string",
          "name": "_symbol",
          "type": "string"
        },
        {
          "internalType": "string",
          "name": "baseURI",
          "type": "string"
        },
        {
          "internalType": "string",
          "name": "contractURI",
          "type": "string"
        },
        {
          "internalType": "address[]",
          "name": "operators",
          "type": "address[]"
        },
        {
          "internalType": "address",
          "name": "transferProxy",
          "type": "address"
        },
        {
          "internalType": "address",
          "name": "lazyTransferProxy",
          "type": "address"
        }
      ],
      "name": "__ERC1155RaribleUser_init",
      "outputs": [],
      "stateMutability": "nonpayable",
      "type": "function"
    },
    {
      "inputs": [
        {
          "internalType": "string",
          "name": "_name",
          "type": "string"
        },
        {
          "internalType": "string",
          "name": "_symbol",
          "type": "string"
        },
        {
          "internalType": "string",
          "name": "baseURI",
          "type": "string"
        },
        {
          "internalType": "string",
          "name": "contractURI",
          "type": "string"
        },
        {
          "internalType": "address",
          "name": "transferProxy",
          "type": "address"
        },
        {
          "internalType": "address",
          "name": "lazyTransferProxy",
          "type": "address"
        }
      ],
      "name": "__ERC1155Rarible_init",
      "outputs": [],
      "stateMutability": "nonpayable",
      "type": "function"
    },
    {
      "inputs": [
        {
          "internalType": "string",
          "name": "_name",
          "type": "string"
        },
        {
          "internalType": "string",
          "name": "_symbol",
          "type": "string"
        },
        {
          "internalType": "string",
          "name": "baseURI",
          "type": "string"
        },
        {
          "internalType": "string",
          "name": "contractURI",
          "type": "string"
        },
        {
          "internalType": "address",
          "name": "transferProxy",
          "type": "address"
        },
        {
          "internalType": "address",
          "name": "lazyTransferProxy",
          "type": "address"
        },
        {
          "internalType": "address",
          "name": "initialOwner",
          "type": "address"
        }
      ],
      "name": "__ERC1155Rarible_init_proxy",
      "outputs": [],
      "stateMutability": "nonpayable",
      "type": "function"
    },
    {
      "inputs": [
        {
          "internalType": "address",
          "name": "minter",
          "type": "address"
        }
      ],
      "name": "addMinter",
      "outputs": [],
      "stateMutability": "nonpayable",
      "type": "function"
    },
    {
      "inputs": [
        {
          "internalType": "address[]",
          "name": "minters",
          "type": "address[]"
        }
      ],
      "name": "addMinters",
      "outputs": [],
      "stateMutability": "nonpayable",
      "type": "function"
    },
    {
      "inputs": [
        {
          "internalType": "address",
          "name": "account",
          "type": "address"
        },
        {
          "internalType": "uint256",
          "name": "id",
          "type": "uint256"
        }
      ],
      "name": "balanceOf",
      "outputs": [
        {
          "internalType": "uint256",
          "name": "",
          "type": "uint256"
        }
      ],
      "stateMutability": "view",
      "type": "function"
    },
    {
      "inputs": [
        {
          "internalType": "address[]",
          "name": "accounts",
          "type": "address[]"
        },
        {
          "internalType": "uint256[]",
          "name": "ids",
          "type": "uint256[]"
        }
      ],
      "name": "balanceOfBatch",
      "outputs": [
        {
          "internalType": "uint256[]",
          "name": "",
          "type": "uint256[]"
        }
      ],
      "stateMutability": "view",
      "type": "function"
    },
    {
      "inputs": [],
      "name": "baseURI",
      "outputs": [
        {
          "internalType": "string",
          "name": "",
          "type": "string"
        }
      ],
      "stateMutability": "view",
      "type": "function"
    },
    {
      "inputs": [
        {
          "internalType": "address",
          "name": "account",
          "type": "address"
        },
        {
          "internalType": "uint256",
          "name": "id",
          "type": "uint256"
        },
        {
          "internalType": "uint256",
          "name": "amount",
          "type": "uint256"
        }
      ],
      "name": "burn",
      "outputs": [],
      "stateMutability": "nonpayable",
      "type": "function"
    },
    {
      "inputs": [
        {
          "internalType": "address",
          "name": "account",
          "type": "address"
        },
        {
          "internalType": "uint256[]",
          "name": "ids",
          "type": "uint256[]"
        },
        {
          "internalType": "uint256[]",
          "name": "amounts",
          "type": "uint256[]"
        }
      ],
      "name": "burnBatch",
      "outputs": [],
      "stateMutability": "nonpayable",
      "type": "function"
    },
    {
      "inputs": [],
      "name": "contractURI",
      "outputs": [
        {
          "internalType": "string",
          "name": "",
          "type": "string"
        }
      ],
      "stateMutability": "view",
      "type": "function"
    },
    {
      "inputs": [
        {
          "internalType": "address",
          "name": "userAddress",
          "type": "address"
        },
        {
          "internalType": "bytes",
          "name": "functionSignature",
          "type": "bytes"
        },
        {
          "internalType": "bytes32",
          "name": "sigR",
          "type": "bytes32"
        },
        {
          "internalType": "bytes32",
          "name": "sigS",
          "type": "bytes32"
        },
        {
          "internalType": "uint8",
          "name": "sigV",
          "type": "uint8"
        }
      ],
      "name": "executeMetaTransaction",
      "outputs": [
        {
          "internalType": "bytes",
          "name": "",
          "type": "bytes"
        }
      ],
      "stateMutability": "payable",
      "type": "function"
    },
    {
      "inputs": [
        {
          "internalType": "uint256",
          "name": "_id",
          "type": "uint256"
        }
      ],
      "name": "getCreators",
      "outputs": [
        {
          "components": [
            {
              "internalType": "address payable",
              "name": "account",
              "type": "address"
            },
            {
              "internalType": "uint96",
              "name": "value",
              "type": "uint96"
            }
          ],
          "internalType": "struct LibPart.Part[]",
          "name": "",
          "type": "tuple[]"
        }
      ],
      "stateMutability": "view",
      "type": "function"
    },
    {
      "inputs": [
        {
          "internalType": "address",
          "name": "user",
          "type": "address"
        }
      ],
      "name": "getNonce",
      "outputs": [
        {
          "internalType": "uint256",
          "name": "nonce",
          "type": "uint256"
        }
      ],
      "stateMutability": "view",
      "type": "function"
    },
    {
      "inputs": [
        {
          "internalType": "uint256",
          "name": "id",
          "type": "uint256"
        }
      ],
      "name": "getRaribleV2Royalties",
      "outputs": [
        {
          "components": [
            {
              "internalType": "address payable",
              "name": "account",
              "type": "address"
            },
            {
              "internalType": "uint96",
              "name": "value",
              "type": "uint96"
            }
          ],
          "internalType": "struct LibPart.Part[]",
          "name": "",
          "type": "tuple[]"
        }
      ],
      "stateMutability": "view",
      "type": "function"
    },
    {
      "inputs": [
        {
          "internalType": "address",
          "name": "_owner",
          "type": "address"
        },
        {
          "internalType": "address",
          "name": "_operator",
          "type": "address"
        }
      ],
      "name": "isApprovedForAll",
      "outputs": [
        {
          "internalType": "bool",
          "name": "",
          "type": "bool"
        }
      ],
      "stateMutability": "view",
      "type": "function"
    },
    {
      "inputs": [
        {
          "internalType": "address",
          "name": "account",
          "type": "address"
        }
      ],
      "name": "isMinter",
      "outputs": [
        {
          "internalType": "bool",
          "name": "",
          "type": "bool"
        }
      ],
      "stateMutability": "view",
      "type": "function"
    },
    {
      "inputs": [
        {
          "components": [
            {
              "internalType": "uint256",
              "name": "tokenId",
              "type": "uint256"
            },
            {
              "internalType": "string",
              "name": "tokenURI",
              "type": "string"
            },
            {
              "internalType": "uint256",
              "name": "supply",
              "type": "uint256"
            },
            {
              "components": [
                {
                  "internalType": "address payable",
                  "name": "account",
                  "type": "address"
                },
                {
                  "internalType": "uint96",
                  "name": "value",
                  "type": "uint96"
                }
              ],
              "internalType": "struct LibPart.Part[]",
              "name": "creators",
              "type": "tuple[]"
            },
            {
              "components": [
                {
                  "internalType": "address payable",
                  "name": "account",
                  "type": "address"
                },
                {
                  "internalType": "uint96",
                  "name": "value",
                  "type": "uint96"
                }
              ],
              "internalType": "struct LibPart.Part[]",
              "name": "royalties",
              "type": "tuple[]"
            },
            {
              "internalType": "bytes[]",
              "name": "signatures",
              "type": "bytes[]"
            }
          ],
          "internalType": "struct LibERC1155LazyMint.Mint1155Data",
          "name": "data",
          "type": "tuple"
        },
        {
          "internalType": "address",
          "name": "to",
          "type": "address"
        },
        {
          "internalType": "uint256",
          "name": "_amount",
          "type": "uint256"
        }
      ],
      "name": "mintAndTransfer",
      "outputs": [],
      "stateMutability": "nonpayable",
      "type": "function"
    },
    {
      "inputs": [],
      "name": "name",
      "outputs": [
        {
          "internalType": "string",
          "name": "",
          "type": "string"
        }
      ],
      "stateMutability": "view",
      "type": "function"
    },
    {
      "inputs": [],
      "name": "owner",
      "outputs": [
        {
          "internalType": "address",
          "name": "",
          "type": "address"
        }
      ],
      "stateMutability": "view",
      "type": "function"
    },
    {
      "inputs": [
        {
          "internalType": "address",
          "name": "_minter",
          "type": "address"
        }
      ],
      "name": "removeMinter",
      "outputs": [],
      "stateMutability": "nonpayable",
      "type": "function"
    },
    {
      "inputs": [],
      "name": "renounceOwnership",
      "outputs": [],
      "stateMutability": "nonpayable",
      "type": "function"
    },
    {
      "inputs": [
        {
          "internalType": "uint256",
          "name": "id",
          "type": "uint256"
        },
        {
          "internalType": "uint256",
          "name": "_salePrice",
          "type": "uint256"
        }
      ],
      "name": "royaltyInfo",
      "outputs": [
        {
          "internalType": "address",
          "name": "receiver",
          "type": "address"
        },
        {
          "internalType": "uint256",
          "name": "royaltyAmount",
          "type": "uint256"
        }
      ],
      "stateMutability": "view",
      "type": "function"
    },
    {
      "inputs": [
        {
          "internalType": "address",
          "name": "from",
          "type": "address"
        },
        {
          "internalType": "address",
          "name": "to",
          "type": "address"
        },
        {
          "internalType": "uint256[]",
          "name": "ids",
          "type": "uint256[]"
        },
        {
          "internalType": "uint256[]",
          "name": "amounts",
          "type": "uint256[]"
        },
        {
          "internalType": "bytes",
          "name": "data",
          "type": "bytes"
        }
      ],
      "name": "safeBatchTransferFrom",
      "outputs": [],
      "stateMutability": "nonpayable",
      "type": "function"
    },
    {
      "inputs": [
        {
          "internalType": "address",
          "name": "from",
          "type": "address"
        },
        {
          "internalType": "address",
          "name": "to",
          "type": "address"
        },
        {
          "internalType": "uint256",
          "name": "id",
          "type": "uint256"
        },
        {
          "internalType": "uint256",
          "name": "amount",
          "type": "uint256"
        },
        {
          "internalType": "bytes",
          "name": "data",
          "type": "bytes"
        }
      ],
      "name": "safeTransferFrom",
      "outputs": [],
      "stateMutability": "nonpayable",
      "type": "function"
    },
    {
      "inputs": [
        {
          "internalType": "address",
          "name": "operator",
          "type": "address"
        },
        {
          "internalType": "bool",
          "name": "approved",
          "type": "bool"
        }
      ],
      "name": "setApprovalForAll",
      "outputs": [],
      "stateMutability": "nonpayable",
      "type": "function"
    },
    {
      "inputs": [
        {
          "internalType": "string",
          "name": "newBaseURI",
          "type": "string"
        }
      ],
      "name": "setBaseURI",
      "outputs": [],
      "stateMutability": "nonpayable",
      "type": "function"
    },
    {
      "inputs": [
        {
          "internalType": "bytes4",
          "name": "interfaceId",
          "type": "bytes4"
        }
      ],
      "name": "supportsInterface",
      "outputs": [
        {
          "internalType": "bool",
          "name": "",
          "type": "bool"
        }
      ],
      "stateMutability": "view",
      "type": "function"
    },
    {
      "inputs": [],
      "name": "symbol",
      "outputs": [
        {
          "internalType": "string",
          "name": "",
          "type": "string"
        }
      ],
      "stateMutability": "view",
      "type": "function"
    },
    {
      "inputs": [
        {
          "components": [
            {
              "internalType": "uint256",
              "name": "tokenId",
              "type": "uint256"
            },
            {
              "internalType": "string",
              "name": "tokenURI",
              "type": "string"
            },
            {
              "internalType": "uint256",
              "name": "supply",
              "type": "uint256"
            },
            {
              "components": [
                {
                  "internalType": "address payable",
                  "name": "account",
                  "type": "address"
                },
                {
                  "internalType": "uint96",
                  "name": "value",
                  "type": "uint96"
                }
              ],
              "internalType": "struct LibPart.Part[]",
              "name": "creators",
              "type": "tuple[]"
            },
            {
              "components": [
                {
                  "internalType": "address payable",
                  "name": "account",
                  "type": "address"
                },
                {
                  "internalType": "uint96",
                  "name": "value",
                  "type": "uint96"
                }
              ],
              "internalType": "struct LibPart.Part[]",
              "name": "royalties",
              "type": "tuple[]"
            },
            {
              "internalType": "bytes[]",
              "name": "signatures",
              "type": "bytes[]"
            }
          ],
          "internalType": "struct LibERC1155LazyMint.Mint1155Data",
          "name": "data",
          "type": "tuple"
        },
        {
          "internalType": "address",
          "name": "from",
          "type": "address"
        },
        {
          "internalType": "address",
          "name": "to",
          "type": "address"
        },
        {
          "internalType": "uint256",
          "name": "amount",
          "type": "uint256"
        }
      ],
      "name": "transferFromOrMint",
      "outputs": [],
      "stateMutability": "nonpayable",
      "type": "function"
    },
    {
      "inputs": [
        {
          "internalType": "address",
          "name": "newOwner",
          "type": "address"
        }
      ],
      "name": "transferOwnership",
      "outputs": [],
      "stateMutability": "nonpayable",
      "type": "function"
    },
    {
      "inputs": [
        {
          "internalType": "uint256",
          "name": "_id",
          "type": "uint256"
        },
        {
          "internalType": "address",
          "name": "_from",
          "type": "address"
        },
        {
          "internalType": "address",
          "name": "_to",
          "type": "address"
        }
      ],
      "name": "updateAccount",
      "outputs": [],
      "stateMutability": "nonpayable",
      "type": "function"
    },
    {
      "inputs": [
        {
          "internalType": "uint256",
          "name": "id",
          "type": "uint256"
        }
      ],
      "name": "uri",
      "outputs": [
        {
          "internalType": "string",
          "name": "",
          "type": "string"
        }
      ],
      "stateMutability": "view",
      "type": "function"
    }
  ],
  "transactionHash": "0x5a5916003a8b20732b370820166fb5bbe35096b2f86698150509159b2f962de0",
  "args": [],
  "numDeployments": 1,
  "solcInputHash": "25cec8d3d0ea4b0d6c3f88e02b714495",
  "bytecode": "0x608060405234801561001057600080fd5b50615ff280620000216000396000f3fe6080604052600436106101ed5760003560e01c80636c0360eb1161010d578063aa271e1a116100a0578063e985e9c51161006f578063e985e9c51461058a578063f242432a146105aa578063f2fde38b146105ca578063f5298aca146105ea578063ffc4e0a71461060a576101ed565b8063aa271e1a14610515578063cad96cca14610535578063e07f231914610555578063e8a3d48514610575576101ed565b80638da5cb5b116100dc5780638da5cb5b1461049e57806395d89b41146104c0578063983b2d56146104d5578063a22cb465146104f5576101ed565b80636c0360eb14610427578063715018a61461043c57806371e2a65714610451578063891be97414610471576101ed565b80632a55205a116101855780634e1273f4116101545780634e1273f41461039a57806355f804b3146103c757806361e05459146103e75780636b20c45414610407576101ed565b80632a55205a1461030c5780632d0335ab1461033a5780632eb2c2d61461035a5780633092afd51461037a576101ed565b80630e89341c116101c15780630e89341c1461028a5780630eaead67146102aa578063173c43d2146102cc578063220e4d73146102ec576101ed565b8062fdd58e146101f257806301ffc9a71461022857806306fdde03146102555780630c53c51c14610277575b600080fd5b3480156101fe57600080fd5b5061021261020d366004615211565b61062a565b60405161021f9190615b3a565b60405180910390f35b34801561023457600080fd5b5061024861024336600461530a565b61069c565b60405161021f919061588b565b34801561026157600080fd5b5061026a6106af565b60405161021f9190615896565b61026a610285366004615197565b61073e565b34801561029657600080fd5b5061026a6102a5366004615692565b610ab7565b3480156102b657600080fd5b506102ca6102c536600461563b565b610ac2565b005b3480156102d857600080fd5b506102ca6102e7366004615364565b610b66565b3480156102f857600080fd5b506102ca61030736600461542b565b610c16565b34801561031857600080fd5b5061032c6103273660046156eb565b610cd0565b60405161021f929190615827565b34801561034657600080fd5b50610212610355366004614f91565b610dde565b34801561036657600080fd5b506102ca610375366004614fe5565b610dfa565b34801561038657600080fd5b506102ca610395366004614f91565b6110f8565b3480156103a657600080fd5b506103ba6103b53660046152aa565b6111a8565b60405161021f9190615853565b3480156103d357600080fd5b506102ca6103e2366004615332565b611293565b3480156103f357600080fd5b506102ca610402366004615504565b611338565b34801561041357600080fd5b506102ca6104223660046150f4565b6113ce565b34801561043357600080fd5b5061026a611554565b34801561044857600080fd5b506102ca6115ec565b34801561045d57600080fd5b506102ca61046c366004615270565b611698565b34801561047d57600080fd5b5061049161048c366004615692565b611781565b60405161021f9190615840565b3480156104aa57600080fd5b506104b3611811565b60405161021f91906157dd565b3480156104cc57600080fd5b5061026a611820565b3480156104e157600080fd5b506102ca6104f0366004614f91565b61187c565b34801561050157600080fd5b506102ca610510366004615166565b611931565b34801561052157600080fd5b50610248610530366004614f91565b611a20565b34801561054157600080fd5b50610491610550366004615692565b611a3f565b34801561056157600080fd5b506102ca6105703660046156aa565b611aba565b34801561058157600080fd5b5061026a611afd565b34801561059657600080fd5b506102486105a5366004614fad565b611b59565b3480156105b657600080fd5b506102ca6105c536600461508e565b611b6c565b3480156105d657600080fd5b506102ca6105e5366004614f91565b611d25565b3480156105f657600080fd5b506102ca61060536600461523c565b611e28565b34801561061657600080fd5b506102ca6106253660046155d4565b611ea4565b60006001600160a01b0383166106715760405162461bcd60e51b815260040180806020018281038252602b815260200180615ce6602b913960400191505060405180910390fd5b5060008181526097602090815260408083206001600160a01b03861684529091529020545b92915050565b60006106a782611f4c565b90505b919050565b610262805460408051602060026001851615610100026000190190941693909304601f810184900484028201840190925281815292918301828280156107365780601f1061070b57610100808354040283529160200191610736565b820191906000526020600020905b81548152906001019060200180831161071957829003601f168201915b505050505081565b6060600061074b86611feb565b90506000356001600160e01b031990811690821614156107b2576040805162461bcd60e51b815260206004820152601760248201527f57726f6e672066756e6374696f6e5369676e6174757265000000000000000000604482015290519081900360640190fd5b604080516060810182526001600160a01b03891660008181526102fb6020908152908490205483528201529081018790526107f08882888888612007565b61082b5760405162461bcd60e51b8152600401808060200182810382526021815260200180615efd6021913960400191505060405180910390fd5b6001600160a01b03881660009081526102fb60205260409020546108509060016120f1565b6102fb60008a6001600160a01b03166001600160a01b0316815260200190815260200160002081905550600080306001600160a01b0316898b6040516020018083805190602001908083835b602083106108bb5780518252601f19909201916020918201910161089c565b6001836020036101000a038019825116818451168082178552505050505050905001826001600160a01b031660601b8152601401925050506040516020818303038152906040526040518082805190602001908083835b602083106109315780518252601f199092019160209182019101610912565b6001836020036101000a0380198251168184511680821785525050505050509050019150506000604051808303816000865af19150503d8060008114610993576040519150601f19603f3d011682016040523d82523d6000602084013e610998565b606091505b5091509150816109ef576040805162461bcd60e51b815260206004820152601c60248201527f46756e6374696f6e2063616c6c206e6f74207375636365737366756c00000000604482015290519081900360640190fd5b7f5845892132946850460bff5a0083f71031bc5bf9aadcd40f1de79423eac9b10b8a338b60405180846001600160a01b03168152602001836001600160a01b0316815260200180602001828103825283818151815260200191508051906020019080838360005b83811015610a6e578181015183820152602001610a56565b50505050905090810190601f168015610a9b5780820380516001836020036101000a031916815260200191505b5094505050505060405180910390a19998505050505050505050565b60606106a78261214b565b6102965460ff1615610b56578260600151600081518110610adf57fe5b6020026020010151600001516001600160a01b0316610afc611811565b6001600160a01b03161480610b315750610b318360600151600081518110610b2057fe5b602002602001015160000151611a20565b610b565760405162461bcd60e51b8152600401610b4d906158d4565b60405180910390fd5b610b618383836122e1565b505050565b610b748686868686866125dd565b610bc1604051806040016040528060128152602001714552433131353552617269626c654d65746160701b815250604051806040016040528060018152602001603160f81b81525061270f565b610296805460ff191690557fcc215b7682459c30faa0e854780165d503a7d62d22a9aaaad6334585dc63343e610bf561279f565b8787604051610c06939291906157f1565b60405180910390a1505050505050565b610c248787878787876125dd565b610c71604051806040016040528060128152602001714552433131353552617269626c654d65746160701b815250604051806040016040528060018152602001603160f81b81525061270f565b610296805460ff19169055610c8581611d25565b7fcc215b7682459c30faa0e854780165d503a7d62d22a9aaaad6334585dc63343e610cae61279f565b8888604051610cbf939291906157f1565b60405180910390a150505050505050565b60008281526101fa60205260408120548190610cf157506000905080610dd7565b60008481526101fa6020908152604080832080548251818502810185019093528083529192909190849084015b82821015610d6d57600084815260209081902060408051808201909152908401546001600160a01b0381168252600160a01b90046001600160601b031681830152825260019092019101610d1e565b50505050905080600081518110610d8057fe5b60209081029190910101515192506000805b8251811015610dcb57828181518110610da757fe5b6020026020010151602001516001600160601b031682019150806001019050610d92565b50612710908502049150505b9250929050565b6001600160a01b031660009081526102fb602052604090205490565b8151835114610e3a5760405162461bcd60e51b8152600401808060200182810382526028815260200180615f956028913960400191505060405180910390fd5b6001600160a01b038416610e7f5760405162461bcd60e51b8152600401808060200182810382526025815260200180615de96025913960400191505060405180910390fd5b610e8761279f565b6001600160a01b0316856001600160a01b03161480610ead5750610ead856105a561279f565b610ee85760405162461bcd60e51b8152600401808060200182810382526032815260200180615e0e6032913960400191505060405180910390fd5b6000610ef261279f565b9050610f028187878787876110f0565b60005b8451811015611008576000858281518110610f1c57fe5b602002602001015190506000858381518110610f3457fe5b60200260200101519050610fa1816040518060600160405280602a8152602001615eb3602a91396097600086815260200190815260200160002060008d6001600160a01b03166001600160a01b03168152602001908152602001600020546127ae9092919063ffffffff16565b60008381526097602090815260408083206001600160a01b038e811685529252808320939093558a1681522054610fd890826120f1565b60009283526097602090815260408085206001600160a01b038c1686529091529092209190915550600101610f05565b50846001600160a01b0316866001600160a01b0316826001600160a01b03167f4a39dc06d4c0dbc64b70af90fd698a233a518aa5d07e595d983b8c0526c8f7fb8787604051808060200180602001838103835285818151815260200191508051906020019060200280838360005b8381101561108e578181015183820152602001611076565b50505050905001838103825284818151815260200191508051906020019060200280838360005b838110156110cd5781810151838201526020016110b5565b5050505090500194505050505060405180910390a46110f0818787878787612845565b505050505050565b61110061279f565b6001600160a01b0316611111611811565b6001600160a01b03161461115a576040805162461bcd60e51b81526020600482018190526024820152600080516020615edd833981519152604482015290519081900360640190fd5b6001600160a01b03811660008181526102c86020526040808220805460ff19169055519091907f3042b80e435ae46c334b2cfec51a66d64c9a8a8af4cd0c279a124c35a09e91dd908390a350565b606081518351146111ea5760405162461bcd60e51b8152600401808060200182810382526029815260200180615f6c6029913960400191505060405180910390fd5b600083516001600160401b038111801561120357600080fd5b5060405190808252806020026020018201604052801561122d578160200160208202803683370190505b50905060005b845181101561128b5761126c85828151811061124b57fe5b602002602001015185838151811061125f57fe5b602002602001015161062a565b82828151811061127857fe5b6020908102919091010152600101611233565b509392505050565b61129b61279f565b6001600160a01b03166112ac611811565b6001600160a01b0316146112f5576040805162461bcd60e51b81526020600482018190526024820152600080516020615edd833981519152604482015290519081900360640190fd5b6112fe81612abb565b7f87cdeaffd8e70903d6ce7cc983fac3b09ca79e83818124c98e47a1d70f8027d68160405161132d9190615896565b60405180910390a150565b6113468787878786866125dd565b611397604051806040016040528060168152602001754552433131353552617269626c65557365724d65746160501b815250604051806040016040528060018152602001603160f81b81525061270f565b610296805460ff191660011790557f7da6bc204c8c4856a6aff786a6cb81c59477c782191dc51837d644a8ad50f2cc610cae61279f565b80518251146113ef5760405162461bcd60e51b8152600401610b4d90615a83565b600082516001600160401b038111801561140857600080fd5b50604051908082528060200260200182016040528015611432578160200160208202803683370190505b509050600083516001600160401b038111801561144e57600080fd5b50604051908082528060200260200182016040528015611478578160200160208202803683370190505b50905060005b84518110156114ed576114b785828151811061149657fe5b60200260200101518583815181106114aa57fe5b6020026020010151612acf565b8483815181106114c357fe5b602002602001018484815181106114d657fe5b60209081029190910101919091525260010161147e565b506114f9858584612b44565b846001600160a01b031661150b61279f565b6001600160a01b03167fcf3391513e21a9d4a0348f8e890080170eba18dc62db35b60d8a518b7088eb3a8684604051611545929190615866565b60405180910390a35050505050565b61012f8054604080516020601f60026000196101006001881615020190951694909404938401819004810282018101909252828152606093909290918301828280156115e15780601f106115b6576101008083540402835291602001916115e1565b820191906000526020600020905b8154815290600101906020018083116115c457829003601f168201915b505050505090505b90565b6115f461279f565b6001600160a01b0316611605611811565b6001600160a01b03161461164e576040805162461bcd60e51b81526020600482018190526024820152600080516020615edd833981519152604482015290519081900360640190fd5b6033546040516000916001600160a01b0316907f8be0079c531659141344cd1fd0a4f28419497f9722a3daafe3b4186f6b6457e0908390a3603380546001600160a01b0319169055565b6116a061279f565b6001600160a01b03166116b1611811565b6001600160a01b0316146116fa576040805162461bcd60e51b81526020600482018190526024820152600080516020615edd833981519152604482015290519081900360640190fd5b60005b815181101561177d57600082828151811061171457fe5b6020908102919091018101516001600160a01b03811660008181526102c89093526040808420805460ff1916600190811790915590519294509290917f3042b80e435ae46c334b2cfec51a66d64c9a8a8af4cd0c279a124c35a09e91dd9190a3506001016116fd565b5050565b60606101fb6000838152602001908152602001600020805480602002602001604051908101604052809291908181526020016000905b8282101561180657600084815260209081902060408051808201909152908401546001600160a01b0381168252600160a01b90046001600160601b0316818301528252600190920191016117b7565b505050509050919050565b6033546001600160a01b031690565b610263805460408051602060026001851615610100026000190190941693909304601f810184900484028201840190925281815292918301828280156107365780601f1061070b57610100808354040283529160200191610736565b61188461279f565b6001600160a01b0316611895611811565b6001600160a01b0316146118de576040805162461bcd60e51b81526020600482018190526024820152600080516020615edd833981519152604482015290519081900360640190fd5b6001600160a01b03811660008181526102c86020526040808220805460ff1916600190811790915590519092917f3042b80e435ae46c334b2cfec51a66d64c9a8a8af4cd0c279a124c35a09e91dd91a350565b816001600160a01b031661194361279f565b6001600160a01b031614156119895760405162461bcd60e51b8152600401808060200182810382526029815260200180615f436029913960400191505060405180910390fd5b806098600061199661279f565b6001600160a01b03908116825260208083019390935260409182016000908120918716808252919093529120805460ff1916921515929092179091556119da61279f565b6001600160a01b03167f17307eab39ab6107e8899845ad3d59bd9653f200f220920489ca2b5937696c318360405180821515815260200191505060405180910390a35050565b6001600160a01b031660009081526102c8602052604090205460ff1690565b60008181526101fa6020908152604080832080548251818502810185019093528083526060949293919290918401821561180657600084815260209081902060408051808201909152908401546001600160a01b0381168252600160a01b90046001600160601b0316818301528252600190920191016117b7565b816001600160a01b0316611acc61279f565b6001600160a01b031614611af25760405162461bcd60e51b8152600401610b4d9061598b565b610b61838383612bb8565b610230805460408051602060026001851615610100026000190190941693909304601f810184900484028201840190925281815292918301828280156107365780601f1061070b57610100808354040283529160200191610736565b6000611b658383612c64565b9392505050565b6001600160a01b038416611bb15760405162461bcd60e51b8152600401808060200182810382526025815260200180615de96025913960400191505060405180910390fd5b611bb961279f565b6001600160a01b0316856001600160a01b03161480611bdf5750611bdf856105a561279f565b611c1a5760405162461bcd60e51b8152600401808060200182810382526029815260200180615d9e6029913960400191505060405180910390fd5b6000611c2461279f565b9050611c44818787611c3588612c90565b611c3e88612c90565b876110f0565b611c8b836040518060600160405280602a8152602001615eb3602a913960008781526097602090815260408083206001600160a01b038d16845290915290205491906127ae565b60008581526097602090815260408083206001600160a01b038b81168552925280832093909355871681522054611cc290846120f1565b60008581526097602090815260408083206001600160a01b03808b168086529184529382902094909455805188815291820187905280518a841693861692600080516020615cc683398151915292908290030190a46110f0818787878787612cd5565b611d2d61279f565b6001600160a01b0316611d3e611811565b6001600160a01b031614611d87576040805162461bcd60e51b81526020600482018190526024820152600080516020615edd833981519152604482015290519081900360640190fd5b6001600160a01b038116611dcc5760405162461bcd60e51b8152600401808060200182810382526026815260200180615d546026913960400191505060405180910390fd5b6033546040516001600160a01b038084169216907f8be0079c531659141344cd1fd0a4f28419497f9722a3daafe3b4186f6b6457e090600090a3603380546001600160a01b0319166001600160a01b0392909216919091179055565b600080611e358484612acf565b90925090508115611e4b57611e4b858584612e46565b8015611e9d57846001600160a01b0316611e6361279f565b6001600160a01b03167f5110a21391aa55386de41fe7a3e3dffb40132d38d629a113a7f4afff251b1a018684604051611545929190615b5c565b5050505050565b6000611eb484866000015161062a565b9050818115611eee578280831015611ec95750815b611ee9868689600001518460405180602001604052806000815250611b6c565b830390505b80156110f0578560600151600081518110611f0557fe5b6020026020010151600001516001600160a01b0316856001600160a01b031614611f415760405162461bcd60e51b8152600401610b4d906158a9565b6110f0868583610ac2565b60006001600160e01b03198216636db15a0f60e01b1480611f7d57506001600160e01b0319821663656cb66560e11b145b80611f9857506001600160e01b0319821663152a902d60e11b145b80611fb357506001600160e01b031982166301ffc9a760e01b145b80611fce57506001600160e01b03198216636cdb3d1360e11b145b806106a75750506001600160e01b0319166303a24d0760e21b1490565b6000815160001415611fff575060006106aa565b506020015190565b600080600161201d61201888612eba565b612f3d565b84878760405160008152602001604052604051808581526020018460ff1681526020018381526020018281526020019450505050506020604051602081039080840390855afa158015612074573d6000803e3d6000fd5b5050604051601f1901519150506001600160a01b0381166120d0576040805162461bcd60e51b8152602060048201526011602482015270496e76616c6964207369676e617475726560781b604482015290519081900360640190fd5b866001600160a01b0316816001600160a01b03161491505095945050505050565b600082820183811015611b65576040805162461bcd60e51b815260206004820152601b60248201527f536166654d6174683a206164646974696f6e206f766572666c6f770000000000604482015290519081900360640190fd5b600081815261012e6020908152604080832080548251601f60026000196101006001861615020190931692909204918201859004850281018501909352808352606094938301828280156121e05780601f106121b5576101008083540402835291602001916121e0565b820191906000526020600020905b8154815290600101906020018083116121c357829003601f168201915b5050505050905060006121f1611554565b9050805160001415612205575090506106aa565b81511561221f576122168183612f89565b925050506106aa565b806122298561316e565b6040516020018083805190602001908083835b6020831061225b5780518252601f19909201916020918201910161223c565b51815160209384036101000a600019018019909216911617905285519190930192850191508083835b602083106122a35780518252601f199092019160209182019101612284565b6001836020036101000a0380198251168184511680821785525050505050509050019250505060405160208183030381529060405292505050919050565b825160601c60006122f061279f565b9050806001600160a01b0316826001600160a01b0316148061231757506123178282611b59565b6123335760405162461bcd60e51b8152600401610b4d906159da565b600083116123535760405162461bcd60e51b8152600401610b4d906159b0565b845160009081526101fc60205260409020546124bc57846060015160008151811061237a57fe5b6020026020010151600001516001600160a01b0316826001600160a01b0316146123b65760405162461bcd60e51b8152600401610b4d90615960565b60008560400151116123da5760405162461bcd60e51b8152600401610b4d90615901565b8460a0015151856060015151146123f057600080fd5b60006123fb86613248565b905060005b8660600151518110156124715760008760600151828151811061241f57fe5b6020026020010151600001519050836001600160a01b0316816001600160a01b0316146124685761246881848a60a00151858151811061245b57fe5b602002602001015161349b565b50600101612400565b50612484866000015187604001516134a6565b61249686600001518760800151613510565b6124a8866000015187606001516136ff565b6124ba866000015187602001516138ae565b505b6124db8486600001518560405180602001604052806000815250613972565b836001600160a01b0316826001600160a01b03161461258c57816001600160a01b031660006001600160a01b0316826001600160a01b0316600080516020615cc6833981519152886000015187604051612536929190615b5c565b60405180910390a4836001600160a01b0316826001600160a01b0316826001600160a01b0316600080516020615cc683398151915288600001518760405161257f929190615b5c565b60405180910390a4611e9d565b836001600160a01b031660006001600160a01b0316826001600160a01b0316600080516020615cc68339815191528860000151876040516125ce929190615b5c565b60405180910390a45050505050565b600054610100900460ff16806125f657506125f6613984565b80612604575060005460ff16155b61263f5760405162461bcd60e51b815260040180806020018281038252602e815260200180615e40602e913960400191505060405180910390fd5b600054610100900460ff1615801561266a576000805460ff1961ff0019909116610100171660011790555b612672613995565b61267a613a8f565b612682613a91565b61268a613b42565b612692613be2565b6126aa60405180602001604052806000815250613c25565b6126b384613cf0565b6126bb613a8f565b6126c3613d15565b6126cd8787613db2565b6126d5613a8f565b6126de85612abb565b6126e9836001613ddb565b6126f4826001613ddb565b8015612706576000805461ff00191690555b50505050505050565b7f36c25de3e541d5d970f66e4210d728721220fff5c077cc6cd008b3a0c62adab78280519060200120828051906020012030612749613e3b565b60405160200180868152602001858152602001848152602001836001600160a01b0316815260200182815260200195505050505050604051602081830303815290604052805190602001206102fc819055505050565b60006127a9613e45565b905090565b6000818484111561283d5760405162461bcd60e51b81526004018080602001828103825283818151815260200191508051906020019080838360005b838110156128025781810151838201526020016127ea565b50505050905090810190601f16801561282f5780820380516001836020036101000a031916815260200191505b509250505060405180910390fd5b505050900390565b612857846001600160a01b0316613ea1565b156110f057836001600160a01b031663bc197c8187878686866040518663ffffffff1660e01b815260040180866001600160a01b03168152602001856001600160a01b03168152602001806020018060200180602001848103845287818151815260200191508051906020019060200280838360005b838110156128e55781810151838201526020016128cd565b50505050905001848103835286818151815260200191508051906020019060200280838360005b8381101561292457818101518382015260200161290c565b50505050905001848103825285818151815260200191508051906020019080838360005b83811015612960578181015183820152602001612948565b50505050905090810190601f16801561298d5780820380516001836020036101000a031916815260200191505b5098505050505050505050602060405180830381600087803b1580156129b257600080fd5b505af19250505080156129d757506040513d60208110156129d257600080fd5b505160015b612a6c576129e3615bb0565b806129ee5750612a35565b60405162461bcd60e51b81526020600482018181528351602484015283518493919283926044019190850190808383600083156128025781810151838201526020016127ea565b60405162461bcd60e51b8152600401808060200182810382526034815260200180615c6a6034913960400191505060405180910390fd5b6001600160e01b0319811663bc197c8160e01b146127065760405162461bcd60e51b8152600401808060200182810382526028815260200180615c9e6028913960400191505060405180910390fd5b805161177d9061012f906020840190614bd5565b806000606084901c612adf61279f565b6001600160a01b0316816001600160a01b03161415612b3c578391506000612b0686613ea7565b90508015612b2b576000612b1987613eba565b8203905080861115612b29578093505b505b612b358684613ecd565b8285039350505b509250929050565b612b4c61279f565b6001600160a01b0316836001600160a01b03161480612b725750612b72836105a561279f565b612bad5760405162461bcd60e51b8152600401808060200182810382526029815260200180615d9e6029913960400191505060405180910390fd5b610b61838383613ee6565b60008381526101fa6020526040812054905b81811015611e9d5760008581526101fa6020526040902080546001600160a01b038616919083908110612bf957fe5b6000918252602090912001546001600160a01b03161415612c5c5760008581526101fa60205260409020805484919083908110612c3257fe5b600091825260209091200180546001600160a01b0319166001600160a01b03929092169190911790555b600101612bca565b6001600160a01b038116600090815260c9602052604081205460ff1680611b655750611b658383614154565b60408051600180825281830190925260609160009190602080830190803683370190505090508281600081518110612cc457fe5b602090810291909101015292915050565b612ce7846001600160a01b0316613ea1565b156110f057836001600160a01b031663f23a6e6187878686866040518663ffffffff1660e01b815260040180866001600160a01b03168152602001856001600160a01b0316815260200184815260200183815260200180602001828103825283818151815260200191508051906020019080838360005b83811015612d76578181015183820152602001612d5e565b50505050905090810190601f168015612da35780820380516001836020036101000a031916815260200191505b509650505050505050602060405180830381600087803b158015612dc657600080fd5b505af1925050508015612deb57506040513d6020811015612de657600080fd5b505160015b612df7576129e3615bb0565b6001600160e01b0319811663f23a6e6160e01b146127065760405162461bcd60e51b8152600401808060200182810382526028815260200180615c9e6028913960400191505060405180910390fd5b612e4e61279f565b6001600160a01b0316836001600160a01b03161480612e745750612e74836105a561279f565b612eaf5760405162461bcd60e51b8152600401808060200182810382526029815260200180615d9e6029913960400191505060405180910390fd5b610b61838383614182565b6000604051806080016040528060438152602001615d1160439139805190602001208260000151836020015184604001518051906020012060405160200180858152602001848152602001836001600160a01b03168152602001828152602001945050505050604051602081830303815290604052805190602001209050919050565b6000612f476142a3565b82604051602001808061190160f01b81525060020183815260200182815260200192505050604051602081830303815290604052805190602001209050919050565b805182516060918491849110156130545784846040516020018083805190602001908083835b60208310612fce5780518252601f199092019160209182019101612faf565b51815160209384036101000a600019018019909216911617905285519190930192850191508083835b602083106130165780518252601f199092019160209182019101612ff7565b6001836020036101000a0380198251168184511680821785525050505050509050019250505060405160208183030381529060405292505050610696565b60005b82518110156131645782818151811061306c57fe5b602001015160f81c60f81b6001600160f81b03191682828151811061308d57fe5b01602001516001600160f81b0319161461315c5785856040516020018083805190602001908083835b602083106130d55780518252601f1990920191602091820191016130b6565b51815160209384036101000a600019018019909216911617905285519190930192850191508083835b6020831061311d5780518252601f1990920191602091820191016130fe565b6001836020036101000a038019825116818451168082178552505050505050905001925050506040516020818303038152906040529350505050610696565b600101613057565b5092949350505050565b60608161319357506040805180820190915260018152600360fc1b60208201526106aa565b8160005b81156131ab57600101600a82049150613197565b6000816001600160401b03811180156131c357600080fd5b506040519080825280601f01601f1916602001820160405280156131ee576020820181803683370190505b50859350905060001982015b831561323f57600a840660300160f81b8282806001900393508151811061321d57fe5b60200101906001600160f81b031916908160001a905350600a840493506131fa565b50949350505050565b6000808260800151516001600160401b038111801561326657600080fd5b50604051908082528060200260200182016040528015613290578160200160208202803683370190505b50905060005b8360800151518110156132e2576132c3846080015182815181106132b657fe5b60200260200101516142aa565b8282815181106132cf57fe5b6020908102919091010152600101613296565b5060008360600151516001600160401b038111801561330057600080fd5b5060405190808252806020026020018201604052801561332a578160200160208202803683370190505b50905060005b84606001515181101561336f57613350856060015182815181106132b657fe5b82828151811061335c57fe5b6020908102919091010152600101613330565b507ffb988707ebb338694f318760b0fd5cfe756d00a2ade251fda110b80c336a3c7f846000015185604001518660200151805190602001208460405160200180828051906020019060200280838360005b838110156133d85781810151838201526020016133c0565b50505050905001915050604051602081830303815290604052805190602001208660405160200180828051906020019060200280838360005b83811015613429578181015183820152602001613411565b50505050905001915050604051602081830303815290604052805190602001206040516020018087815260200186815260200185815260200184815260200183815260200182815260200196505050505050506040516020818303038152906040528051906020012092505050919050565b610b61838383614317565b60008281526101fc6020526040902054156134c057600080fd5b60008281526101fc602052604090819020829055517f5e2aa66efd74cce82b21852e317e5490d9ecc9e6bb953ae24d90851258cc2f5c906135049084908490615b5c565b60405180910390a15050565b6000805b82518110156136b45760006001600160a01b031683828151811061353457fe5b6020026020010151600001516001600160a01b0316141561359c576040805162461bcd60e51b815260206004820152601b60248201527f526563697069656e742073686f756c642062652070726573656e740000000000604482015290519081900360640190fd5b8281815181106135a857fe5b6020026020010151602001516001600160601b031660001415613612576040805162461bcd60e51b815260206004820181905260248201527f526f79616c74792076616c75652073686f756c6420626520706f736974697665604482015290519081900360640190fd5b82818151811061361e57fe5b6020026020010151602001516001600160601b0316820191506101fa600085815260200190815260200160002083828151811061365757fe5b60209081029190910181015182546001818101855560009485529383902082519101805492909301516001600160601b0316600160a01b026001600160a01b039182166001600160a01b0319909316929092171617905501613514565b5061271081106136f55760405162461bcd60e51b8152600401808060200182810382526025815260200180615f1e6025913960400191505060405180910390fd5b610b618383614559565b60008281526101fb6020526040812090805b835181101561384d5760006001600160a01b031684828151811061373157fe5b6020026020010151600001516001600160a01b031614156137645760405162461bcd60e51b8152600401610b4d90615a4c565b83818151811061377057fe5b6020026020010151602001516001600160601b0316600014156137a55760405162461bcd60e51b8152600401610b4d9061592b565b828482815181106137b257fe5b602090810291909101810151825460018101845560009384529282902081519301805491909201516001600160601b0316600160a01b026001600160a01b039384166001600160a01b03199092169190911790921691909117905583516138439085908390811061381f57fe5b6020026020010151602001516001600160601b0316836120f190919063ffffffff16565b9150600101613711565b50806127101461386f5760405162461bcd60e51b8152600401610b4d90615aec565b7f841ffb90d4cabdd1f16034f3fa831d79060febbb8167bdd54a49269365bdf78f84846040516138a0929190615b43565b60405180910390a150505050565b600082815261012e6020908152604090912082516138ce92840190614bd5565b50817f6bb7ff708619ba0610cba295a58592e0451dee2622938c8755667688daf3529b6138fa8461214b565b6040805160208082528351818301528351919283929083019185019080838360005b8381101561393457818101518382015260200161391c565b50505050905090810190601f1680156139615780820380516001836020036101000a031916815260200191505b509250505060405180910390a25050565b61397e8484848461458a565b50505050565b600061398f30613ea1565b15905090565b600054610100900460ff16806139ae57506139ae613984565b806139bc575060005460ff16155b6139f75760405162461bcd60e51b815260040180806020018281038252602e815260200180615e40602e913960400191505060405180910390fd5b600054610100900460ff16158015613a22576000805460ff1961ff0019909116610100171660011790555b6000613a2c61279f565b603380546001600160a01b0319166001600160a01b038316908117909155604051919250906000907f8be0079c531659141344cd1fd0a4f28419497f9722a3daafe3b4186f6b6457e0908290a3508015613a8c576000805461ff00191690555b50565b565b600054610100900460ff1680613aaa5750613aaa613984565b80613ab8575060005460ff16155b613af35760405162461bcd60e51b815260040180806020018281038252602e815260200180615e40602e913960400191505060405180910390fd5b600054610100900460ff16158015613b1e576000805460ff1961ff0019909116610100171660011790555b613b2e6301ffc9a760e01b61469c565b8015613a8c576000805461ff001916905550565b600054610100900460ff1680613b5b5750613b5b613984565b80613b69575060005460ff16155b613ba45760405162461bcd60e51b815260040180806020018281038252602e815260200180615e40602e913960400191505060405180910390fd5b600054610100900460ff16158015613b2e576000805460ff1961ff0019909116610100171660011790558015613a8c576000805461ff001916905550565b613a8f604051806040016040528060088152602001674d696e743131353560c01b815250604051806040016040528060018152602001603160f81b815250614720565b600054610100900460ff1680613c3e5750613c3e613984565b80613c4c575060005460ff16155b613c875760405162461bcd60e51b815260040180806020018281038252602e815260200180615e40602e913960400191505060405180910390fd5b600054610100900460ff16158015613cb2576000805460ff1961ff0019909116610100171660011790555b613cbb826147e2565b613ccb636cdb3d1360e11b61469c565b613cdb6303a24d0760e21b61469c565b801561177d576000805461ff00191690555050565b8051613d0490610230906020840190614bd5565b50613a8c63e8a3d48560e01b61469c565b600054610100900460ff1680613d2e5750613d2e613984565b80613d3c575060005460ff16155b613d775760405162461bcd60e51b815260040180806020018281038252602e815260200180615e40602e913960400191505060405180910390fd5b600054610100900460ff16158015613da2576000805460ff1961ff0019909116610100171660011790555b613b2e63656cb66560e11b61469c565b8151613dc690610262906020850190614bd5565b508051610b6190610263906020840190614bd5565b6001600160a01b038216600081815260c96020908152604091829020805460ff1916851515908117909155825190815291517f270dbb8ba4292910ae92862466486be25c355c837270a3d8824b36a8bc7c653b9281900390910190a25050565b60006127a96147f5565b600033301415613e9c57600080368080601f0160208091040260200160405190810160405280939291908181526020018383808284376000920191909152505050503601516001600160a01b031691506115e99050565b503390565b3b151590565b60009081526101fc602052604090205490565b60009081526101fd602052604090205490565b60009182526101fd602052604090912080549091019055565b6001600160a01b038316613f2b5760405162461bcd60e51b8152600401808060200182810382526023815260200180615e906023913960400191505060405180910390fd5b8051825114613f6b5760405162461bcd60e51b8152600401808060200182810382526028815260200180615f956028913960400191505060405180910390fd5b6000613f7561279f565b9050613f95818560008686604051806020016040528060008152506110f0565b60005b83518110156140735761402a838281518110613fb057fe5b6020026020010151604051806060016040528060248152602001615d7a6024913960976000888681518110613fe157fe5b602002602001015181526020019081526020016000206000896001600160a01b03166001600160a01b03168152602001908152602001600020546127ae9092919063ffffffff16565b6097600086848151811061403a57fe5b602090810291909101810151825281810192909252604090810160009081206001600160a01b038a168252909252902055600101613f98565b5060006001600160a01b0316846001600160a01b0316826001600160a01b03167f4a39dc06d4c0dbc64b70af90fd698a233a518aa5d07e595d983b8c0526c8f7fb8686604051808060200180602001838103835285818151815260200191508051906020019060200280838360005b838110156140fa5781810151838201526020016140e2565b50505050905001838103825284818151815260200191508051906020019060200280838360005b83811015614139578181015183820152602001614121565b5050505090500194505050505060405180910390a450505050565b6001600160a01b03918216600090815260986020908152604080832093909416825291909152205460ff1690565b6001600160a01b0383166141c75760405162461bcd60e51b8152600401808060200182810382526023815260200180615e906023913960400191505060405180910390fd5b60006141d161279f565b9050614201818560006141e387612c90565b6141ec87612c90565b604051806020016040528060008152506110f0565b61424882604051806060016040528060248152602001615d7a6024913960008681526097602090815260408083206001600160a01b038b16845290915290205491906127ae565b60008481526097602090815260408083206001600160a01b03808a1680865291845282852095909555815188815292830187905281519394909390861692600080516020615cc683398151915292908290030190a450505050565b6102fc5490565b8051602091820151604080517f397e04204c1e1a60ee8724b71f8244e10ab5f2e9009854d80f602bda21b59ebb818601526001600160a01b03909316838201526001600160601b039091166060808401919091528151808403909101815260809092019052805191012090565b6000614322836147f9565b9050600082516041141561433d5761433a8284614803565b90505b846001600160a01b0316816001600160a01b031614611e9d57614368856001600160a01b0316613ea1565b156144e15760408051630b135d3f60e11b808252600482018581526024830193845286516044840152865191936001600160a01b038a1693631626ba7e9388938a9390929091606490910190602085019080838360005b838110156143d75781810151838201526020016143bf565b50505050905090810190601f1680156144045780820380516001836020036101000a031916815260200191505b50935050505060206040518083038186803b15801561442257600080fd5b505afa158015614436573d6000803e3d6000fd5b505050506040513d602081101561444c57600080fd5b505160408051808201909152601c81527f7369676e617475726520766572696669636174696f6e206572726f72000000006020820152916001600160e01b0319909116146144db5760405162461bcd60e51b81526020600482018181528351602484015283519092839260449091019190850190808383600083156128025781810151838201526020016127ea565b50611e9d565b604080518082018252601c81527f7369676e617475726520766572696669636174696f6e206572726f72000000006020808301918252925162461bcd60e51b815260048101938452825160248201528251929392839260449092019190808383600083156128025781810151838201526020016127ea565b7f3fa96d7b6bcbfe71ef171666d84db3cf52fa2d1c8afdb1cc8e486177f208b7df8282604051613504929190615b43565b60008381526101fd60205260408120546145a59084906120f1565b60008581526101fc60205260409020549091508111156145d75760405162461bcd60e51b8152600401610b4d90615a22565b60008481526101fd602052604090208190556001600160a01b03851661460f5760405162461bcd60e51b8152600401610b4d90615aab565b600061461961279f565b905061463a8160008861462b89612c90565b61463489612c90565b886110f0565b60008581526097602090815260408083206001600160a01b038a16845290915290205461466790856120f1565b60008681526097602090815260408083206001600160a01b038b1684529091528120919091556110f090829088888888612cd5565b6001600160e01b031980821614156146fb576040805162461bcd60e51b815260206004820152601c60248201527f4552433136353a20696e76616c696420696e7465726661636520696400000000604482015290519081900360640190fd5b6001600160e01b0319166000908152606560205260409020805460ff19166001179055565b600054610100900460ff16806147395750614739613984565b80614747575060005460ff16155b6147825760405162461bcd60e51b815260040180806020018281038252602e815260200180615e40602e913960400191505060405180910390fd5b600054610100900460ff161580156147ad576000805460ff1961ff0019909116610100171660011790555b825160208085019190912083519184019190912061016291909155610163558015610b61576000805461ff0019169055505050565b805161177d906099906020840190614bd5565b4690565b6000612f47614883565b6000815160411461485b576040805162461bcd60e51b815260206004820152601f60248201527f45434453413a20696e76616c6964207369676e6174757265206c656e67746800604482015290519081900360640190fd5b60208201516040830151606084015160001a614879868285856148be565b9695505050505050565b60006127a97f8b73c3c69bb8fe3d512ecc4cf759cc79239f7b179b0ffacaa9a75d522b39400f6148b1614b14565b6148b9614b1b565b614b22565b60007f7fffffffffffffffffffffffffffffff5d576e7357a4501ddfe92f46681b20a082111561491f5760405162461bcd60e51b8152600401808060200182810382526022815260200180615dc76022913960400191505060405180910390fd5b6000601e8560ff1611156149f9576004850360ff16601b148061494857506004850360ff16601c145b6149835760405162461bcd60e51b8152600401808060200182810382526022815260200180615e6e6022913960400191505060405180910390fd5b600161498e87614b84565b60048703868660405160008152602001604052604051808581526020018460ff1681526020018381526020018281526020019450505050506020604051602081039080840390855afa1580156149e8573d6000803e3d6000fd5b505050602060405103519050614ab0565b8460ff16601b1480614a0e57508460ff16601c145b614a495760405162461bcd60e51b8152600401808060200182810382526022815260200180615e6e6022913960400191505060405180910390fd5b60018686868660405160008152602001604052604051808581526020018460ff1681526020018381526020018281526020019450505050506020604051602081039080840390855afa158015614aa3573d6000803e3d6000fd5b5050506020604051035190505b6001600160a01b038116614b0b576040805162461bcd60e51b815260206004820152601860248201527f45434453413a20696e76616c6964207369676e61747572650000000000000000604482015290519081900360640190fd5b95945050505050565b6101625490565b6101635490565b6000838383614b2f6147f5565b3060405160200180868152602001858152602001848152602001838152602001826001600160a01b03168152602001955050505050506040516020818303038152906040528051906020012090509392505050565b604080517f19457468657265756d205369676e6564204d6573736167653a0a333200000000602080830191909152603c8083019490945282518083039094018452605c909101909152815191012090565b828054600181600116156101000203166002900490600052602060002090601f016020900481019282614c0b5760008555614c51565b82601f10614c2457805160ff1916838001178555614c51565b82800160010185558215614c51579182015b82811115614c51578251825591602001919060010190614c36565b50614c5d929150614c61565b5090565b5b80821115614c5d5760008155600101614c62565b80356106aa81615c54565b600082601f830112614c91578081fd5b81356020614ca6614ca183615b8d565b615b6a565b8281528181019085830183850287018401881015614cc2578586fd5b855b85811015614ce9578135614cd781615c54565b84529284019290840190600101614cc4565b5090979650505050505050565b600082601f830112614d06578081fd5b81356020614d16614ca183615b8d565b82815281810190858301855b85811015614ce957614d39898684358b0101614e60565b84529284019290840190600101614d22565b600082601f830112614d5b578081fd5b81356020614d6b614ca183615b8d565b82815281810190858301604080860288018501891015614d89578687fd5b865b86811015614df85781838b031215614da1578788fd5b81518281018181106001600160401b0382111715614dbb57fe5b83528335614dc881615c54565b8152838701356001600160601b0381168114614de257898afd5b8188015285529385019391810191600101614d8b565b509198975050505050505050565b600082601f830112614e16578081fd5b81356020614e26614ca183615b8d565b8281528181019085830183850287018401881015614e42578586fd5b855b85811015614ce957813584529284019290840190600101614e44565b600082601f830112614e70578081fd5b81356001600160401b03811115614e8357fe5b614e96601f8201601f1916602001615b6a565b818152846020838601011115614eaa578283fd5b816020850160208301379081016020019190915292915050565b600060c08284031215614ed5578081fd5b614edf60c0615b6a565b90508135815260208201356001600160401b0380821115614eff57600080fd5b614f0b85838601614e60565b6020840152604084013560408401526060840135915080821115614f2e57600080fd5b614f3a85838601614d4b565b60608401526080840135915080821115614f5357600080fd5b614f5f85838601614d4b565b608084015260a0840135915080821115614f7857600080fd5b50614f8584828501614cf6565b60a08301525092915050565b600060208284031215614fa2578081fd5b8135611b6581615c54565b60008060408385031215614fbf578081fd5b8235614fca81615c54565b91506020830135614fda81615c54565b809150509250929050565b600080600080600060a08688031215614ffc578081fd5b853561500781615c54565b9450602086013561501781615c54565b935060408601356001600160401b0380821115615032578283fd5b61503e89838a01614e06565b94506060880135915080821115615053578283fd5b61505f89838a01614e06565b93506080880135915080821115615074578283fd5b5061508188828901614e60565b9150509295509295909350565b600080600080600060a086880312156150a5578283fd5b85356150b081615c54565b945060208601356150c081615c54565b9350604086013592506060860135915060808601356001600160401b038111156150e8578182fd5b61508188828901614e60565b600080600060608486031215615108578081fd5b833561511381615c54565b925060208401356001600160401b038082111561512e578283fd5b61513a87838801614e06565b9350604086013591508082111561514f578283fd5b5061515c86828701614e06565b9150509250925092565b60008060408385031215615178578182fd5b823561518381615c54565b915060208301358015158114614fda578182fd5b600080600080600060a086880312156151ae578283fd5b85356151b981615c54565b945060208601356001600160401b038111156151d3578384fd5b6151df88828901614e60565b9450506040860135925060608601359150608086013560ff81168114615203578182fd5b809150509295509295909350565b60008060408385031215615223578182fd5b823561522e81615c54565b946020939093013593505050565b600080600060608486031215615250578081fd5b833561525b81615c54565b95602085013595506040909401359392505050565b600060208284031215615281578081fd5b81356001600160401b03811115615296578182fd5b6152a284828501614c81565b949350505050565b600080604083850312156152bc578182fd5b82356001600160401b03808211156152d2578384fd5b6152de86838701614c81565b935060208501359150808211156152f3578283fd5b5061530085828601614e06565b9150509250929050565b60006020828403121561531b578081fd5b81356001600160e01b031981168114611b65578182fd5b600060208284031215615343578081fd5b81356001600160401b03811115615358578182fd5b6152a284828501614e60565b60008060008060008060c0878903121561537c578384fd5b86356001600160401b0380821115615392578586fd5b61539e8a838b01614e60565b975060208901359150808211156153b3578586fd5b6153bf8a838b01614e60565b965060408901359150808211156153d4578586fd5b6153e08a838b01614e60565b955060608901359150808211156153f5578283fd5b5061540289828a01614e60565b93505061541160808801614c76565b915061541f60a08801614c76565b90509295509295509295565b600080600080600080600060e0888a031215615445578485fd5b87356001600160401b038082111561545b578687fd5b6154678b838c01614e60565b985060208a013591508082111561547c578687fd5b6154888b838c01614e60565b975060408a013591508082111561549d578687fd5b6154a98b838c01614e60565b965060608a01359150808211156154be578283fd5b506154cb8a828b01614e60565b9450506154da60808901614c76565b92506154e860a08901614c76565b91506154f660c08901614c76565b905092959891949750929550565b600080600080600080600060e0888a03121561551e578081fd5b87356001600160401b0380821115615534578283fd5b6155408b838c01614e60565b985060208a0135915080821115615555578283fd5b6155618b838c01614e60565b975060408a0135915080821115615576578283fd5b6155828b838c01614e60565b965060608a0135915080821115615597578283fd5b6155a38b838c01614e60565b955060808a01359150808211156155b8578283fd5b506155c58a828b01614c81565b9350506154e860a08901614c76565b600080600080608085870312156155e9578182fd5b84356001600160401b038111156155fe578283fd5b61560a87828801614ec4565b945050602085013561561b81615c54565b9250604085013561562b81615c54565b9396929550929360600135925050565b60008060006060848603121561564f578081fd5b83356001600160401b03811115615664578182fd5b61567086828701614ec4565b935050602084013561568181615c54565b929592945050506040919091013590565b6000602082840312156156a3578081fd5b5035919050565b6000806000606084860312156156be578081fd5b8335925060208401356156d081615c54565b915060408401356156e081615c54565b809150509250925092565b600080604083850312156156fd578182fd5b50508035926020909101359150565b6000815180845260208085019450808401835b8381101561575857815180516001600160a01b031688528301516001600160601b0316838801526040909601959082019060010161571f565b509495945050505050565b6000815180845260208085019450808401835b8381101561575857815187529582019590820190600101615776565b60008151808452815b818110156157b75760208185018101518683018201520161579b565b818111156157c85782602083870101525b50601f01601f19169290920160200192915050565b6001600160a01b0391909116815260200190565b6001600160a01b038416815260606020820181905260009061581590830185615792565b82810360408401526148798185615792565b6001600160a01b03929092168252602082015260400190565b600060208252611b65602083018461570c565b600060208252611b656020830184615763565b6000604082526158796040830185615763565b8281036020840152614b0b8185615763565b901515815260200190565b600060208252611b656020830184615792565b6020808252601190820152703bb937b7339037b93232b91036b0b5b2b960791b604082015260600190565b6020808252601390820152723737ba1037bbb732b91037b91036b4b73a32b960691b604082015260600190565b60208082526010908201526f1cdd5c1c1b1e481a5b98dbdc9c9958dd60821b604082015260600190565b6020808252818101527f43726561746f722073686172652073686f756c6420626520706f736974697665604082015260600190565b6020808252601190820152701d1bdad95b9259081a5b98dbdc9c9958dd607a1b604082015260600190565b6020808252600b908201526a1b9bdd08185b1b1bddd95960aa1b604082015260600190565b60208082526010908201526f185b5bdd5b9d081a5b98dbdc9c9958dd60821b604082015260600190565b60208082526028908201527f455243313135353a207472616e736665722063616c6c6572206973206e6f7420604082015267185c1c1c9bdd995960c21b606082015260800190565b60208082526010908201526f6d6f7265207468616e20737570706c7960801b604082015260600190565b60208082526019908201527f4163636f756e742073686f756c642062652070726573656e7400000000000000604082015260600190565b6020808252600e908201526d69647320213d20616d6f756e747360901b604082015260600190565b60208082526021908201527f455243313135353a206d696e7420746f20746865207a65726f206164647265736040820152607360f81b606082015260800190565b6020808252602e908201527f746f74616c20616d6f756e74206f662063726561746f7273207368617265207360408201526d0686f756c642062652031303030360941b606082015260800190565b90815260200190565b6000838252604060208301526152a2604083018461570c565b918252602082015260400190565b6040518181016001600160401b0381118282101715615b8557fe5b604052919050565b60006001600160401b03821115615ba057fe5b5060209081020190565b60e01c90565b600060443d1015615bc0576115e9565b600481823e6308c379a0615bd48251615baa565b14615bde576115e9565b6040513d600319016004823e80513d6001600160401b038160248401118184111715615c0d57505050506115e9565b82840192508251915080821115615c2757505050506115e9565b503d83016020828401011115615c3f575050506115e9565b601f01601f1916810160200160405291505090565b6001600160a01b0381168114613a8c57600080fdfe455243313135353a207472616e7366657220746f206e6f6e2045524331313535526563656976657220696d706c656d656e746572455243313135353a204552433131353552656365697665722072656a656374656420746f6b656e73c3d58168c5ae7397731d063d5bbf3d657854427343f4c083240f7aacaa2d0f62455243313135353a2062616c616e636520717565727920666f7220746865207a65726f20616464726573734d6574615472616e73616374696f6e2875696e74323536206e6f6e63652c616464726573732066726f6d2c62797465732066756e6374696f6e5369676e6174757265294f776e61626c653a206e6577206f776e657220697320746865207a65726f2061646472657373455243313135353a206275726e20616d6f756e7420657863656564732062616c616e6365455243313135353a2063616c6c6572206973206e6f74206f776e6572206e6f7220617070726f76656445434453413a20696e76616c6964207369676e6174757265202773272076616c7565455243313135353a207472616e7366657220746f20746865207a65726f2061646472657373455243313135353a207472616e736665722063616c6c6572206973206e6f74206f776e6572206e6f7220617070726f766564496e697469616c697a61626c653a20636f6e747261637420697320616c726561647920696e697469616c697a656445434453413a20696e76616c6964207369676e6174757265202776272076616c7565455243313135353a206275726e2066726f6d20746865207a65726f2061646472657373455243313135353a20696e73756666696369656e742062616c616e636520666f72207472616e736665724f776e61626c653a2063616c6c6572206973206e6f7420746865206f776e65725369676e657220616e64207369676e617475726520646f206e6f74206d61746368526f79616c747920746f74616c2076616c75652073686f756c64206265203c203130303030455243313135353a2073657474696e6720617070726f76616c2073746174757320666f722073656c66455243313135353a206163636f756e747320616e6420696473206c656e677468206d69736d61746368455243313135353a2069647320616e6420616d6f756e7473206c656e677468206d69736d61746368a2646970667358221220f540d26841c40ddd1f27954b47aaa64f7ec5519fb4b4f9b16d43c26372e6e07e64736f6c63430007060033",
  "devdoc": {
    "kind": "dev",
    "methods": {
      "addMinter(address)": {
        "details": "Add `minter` to the list of allowed minters."
      },
      "addMinters(address[])": {
        "details": "Add `minters` to the list of allowed minters."
      },
      "balanceOf(address,uint256)": {
        "details": "See {IERC1155-balanceOf}. Requirements: - `account` cannot be the zero address."
      },
      "balanceOfBatch(address[],uint256[])": {
        "details": "See {IERC1155-balanceOfBatch}. Requirements: - `accounts` and `ids` must have the same length."
      },
      "baseURI()": {
        "details": "Returns the base URI set via {_setBaseURI}. This will be automatically added as a prefix in {tokenURI} to each token's URI, or to the token ID if no specific URI is set for that token ID."
      },
      "isMinter(address)": {
        "details": "Returns `true` if `account` has been granted to minters."
      },
      "owner()": {
        "details": "Returns the address of the current owner."
      },
      "removeMinter(address)": {
        "details": "Revoke `_minter` from the list of allowed minters."
      },
      "renounceOwnership()": {
        "details": "Leaves the contract without owner. It will not be possible to call `onlyOwner` functions anymore. Can only be called by the current owner. NOTE: Renouncing ownership will leave the contract without an owner, thereby removing any functionality that is only available to the owner."
      },
      "safeBatchTransferFrom(address,address,uint256[],uint256[],bytes)": {
        "details": "See {IERC1155-safeBatchTransferFrom}."
      },
      "safeTransferFrom(address,address,uint256,uint256,bytes)": {
        "details": "See {IERC1155-safeTransferFrom}."
      },
      "setApprovalForAll(address,bool)": {
        "details": "See {IERC1155-setApprovalForAll}."
      },
      "transferOwnership(address)": {
        "details": "Transfers ownership of the contract to a new account (`newOwner`). Can only be called by the current owner."
      }
    },
    "version": 1
  },
  "userdoc": {
    "kind": "user",
    "methods": {},
    "version": 1
  },
  "storageLayout": {
    "storage": [
      {
        "astId": 739,
        "contract": "@rarible/tokens/contracts/erc-1155/erc-1155-meta/ERC1155RaribleMeta.sol:ERC1155RaribleMeta",
        "label": "_initialized",
        "offset": 0,
        "slot": "0",
        "type": "t_bool"
      },
      {
        "astId": 742,
        "contract": "@rarible/tokens/contracts/erc-1155/erc-1155-meta/ERC1155RaribleMeta.sol:ERC1155RaribleMeta",
        "label": "_initializing",
        "offset": 1,
        "slot": "0",
        "type": "t_bool"
      },
      {
        "astId": 4256,
        "contract": "@rarible/tokens/contracts/erc-1155/erc-1155-meta/ERC1155RaribleMeta.sol:ERC1155RaribleMeta",
        "label": "__gap",
        "offset": 0,
        "slot": "1",
        "type": "t_array(t_uint256)50_storage"
      },
      {
        "astId": 10,
        "contract": "@rarible/tokens/contracts/erc-1155/erc-1155-meta/ERC1155RaribleMeta.sol:ERC1155RaribleMeta",
        "label": "_owner",
        "offset": 0,
        "slot": "51",
        "type": "t_address"
      },
      {
        "astId": 129,
        "contract": "@rarible/tokens/contracts/erc-1155/erc-1155-meta/ERC1155RaribleMeta.sol:ERC1155RaribleMeta",
        "label": "__gap",
        "offset": 0,
        "slot": "52",
        "type": "t_array(t_uint256)49_storage"
      },
      {
        "astId": 307,
        "contract": "@rarible/tokens/contracts/erc-1155/erc-1155-meta/ERC1155RaribleMeta.sol:ERC1155RaribleMeta",
        "label": "_supportedInterfaces",
        "offset": 0,
        "slot": "101",
        "type": "t_mapping(t_bytes4,t_bool)"
      },
      {
        "astId": 364,
        "contract": "@rarible/tokens/contracts/erc-1155/erc-1155-meta/ERC1155RaribleMeta.sol:ERC1155RaribleMeta",
        "label": "__gap",
        "offset": 0,
        "slot": "102",
        "type": "t_array(t_uint256)49_storage"
      },
      {
        "astId": 25039,
        "contract": "@rarible/tokens/contracts/erc-1155/erc-1155-meta/ERC1155RaribleMeta.sol:ERC1155RaribleMeta",
        "label": "_balances",
        "offset": 0,
        "slot": "151",
        "type": "t_mapping(t_uint256,t_mapping(t_address,t_uint256))"
      },
      {
        "astId": 25045,
        "contract": "@rarible/tokens/contracts/erc-1155/erc-1155-meta/ERC1155RaribleMeta.sol:ERC1155RaribleMeta",
        "label": "_operatorApprovals",
        "offset": 0,
        "slot": "152",
        "type": "t_mapping(t_address,t_mapping(t_address,t_bool))"
      },
      {
        "astId": 25047,
        "contract": "@rarible/tokens/contracts/erc-1155/erc-1155-meta/ERC1155RaribleMeta.sol:ERC1155RaribleMeta",
        "label": "_uri",
        "offset": 0,
        "slot": "153",
        "type": "t_string_storage"
      },
      {
        "astId": 26040,
        "contract": "@rarible/tokens/contracts/erc-1155/erc-1155-meta/ERC1155RaribleMeta.sol:ERC1155RaribleMeta",
        "label": "__gap",
        "offset": 0,
        "slot": "154",
        "type": "t_array(t_uint256)47_storage"
      },
      {
        "astId": 24041,
        "contract": "@rarible/tokens/contracts/erc-1155/erc-1155-meta/ERC1155RaribleMeta.sol:ERC1155RaribleMeta",
        "label": "defaultApprovals",
        "offset": 0,
        "slot": "201",
        "type": "t_mapping(t_address,t_bool)"
      },
      {
        "astId": 24091,
        "contract": "@rarible/tokens/contracts/erc-1155/erc-1155-meta/ERC1155RaribleMeta.sol:ERC1155RaribleMeta",
        "label": "__gap",
        "offset": 0,
        "slot": "202",
        "type": "t_array(t_uint256)50_storage"
      },
      {
        "astId": 24031,
        "contract": "@rarible/tokens/contracts/erc-1155/erc-1155-meta/ERC1155RaribleMeta.sol:ERC1155RaribleMeta",
        "label": "__gap",
        "offset": 0,
        "slot": "252",
        "type": "t_array(t_uint256)50_storage"
      },
      {
        "astId": 23834,
        "contract": "@rarible/tokens/contracts/erc-1155/erc-1155-meta/ERC1155RaribleMeta.sol:ERC1155RaribleMeta",
        "label": "_tokenURIs",
        "offset": 0,
        "slot": "302",
        "type": "t_mapping(t_uint256,t_string_storage)"
      },
      {
        "astId": 23836,
        "contract": "@rarible/tokens/contracts/erc-1155/erc-1155-meta/ERC1155RaribleMeta.sol:ERC1155RaribleMeta",
        "label": "_baseURI",
        "offset": 0,
        "slot": "303",
        "type": "t_string_storage"
      },
      {
        "astId": 23951,
        "contract": "@rarible/tokens/contracts/erc-1155/erc-1155-meta/ERC1155RaribleMeta.sol:ERC1155RaribleMeta",
        "label": "__gap",
        "offset": 0,
        "slot": "304",
        "type": "t_array(t_uint256)50_storage"
      },
      {
        "astId": 138,
        "contract": "@rarible/tokens/contracts/erc-1155/erc-1155-meta/ERC1155RaribleMeta.sol:ERC1155RaribleMeta",
        "label": "_HASHED_NAME",
        "offset": 0,
        "slot": "354",
        "type": "t_bytes32"
      },
      {
        "astId": 140,
        "contract": "@rarible/tokens/contracts/erc-1155/erc-1155-meta/ERC1155RaribleMeta.sol:ERC1155RaribleMeta",
        "label": "_HASHED_VERSION",
        "offset": 0,
        "slot": "355",
        "type": "t_bytes32"
      },
      {
        "astId": 289,
        "contract": "@rarible/tokens/contracts/erc-1155/erc-1155-meta/ERC1155RaribleMeta.sol:ERC1155RaribleMeta",
        "label": "__gap",
        "offset": 0,
        "slot": "356",
        "type": "t_array(t_uint256)50_storage"
      },
      {
        "astId": 26448,
        "contract": "@rarible/tokens/contracts/erc-1155/erc-1155-meta/ERC1155RaribleMeta.sol:ERC1155RaribleMeta",
        "label": "__gap",
        "offset": 0,
        "slot": "406",
        "type": "t_array(t_uint256)50_storage"
      },
      {
        "astId": 26076,
        "contract": "@rarible/tokens/contracts/erc-1155/erc-1155-meta/ERC1155RaribleMeta.sol:ERC1155RaribleMeta",
        "label": "__gap",
        "offset": 0,
        "slot": "456",
        "type": "t_array(t_uint256)50_storage"
      },
      {
        "astId": 21496,
        "contract": "@rarible/tokens/contracts/erc-1155/erc-1155-meta/ERC1155RaribleMeta.sol:ERC1155RaribleMeta",
        "label": "royalties",
        "offset": 0,
        "slot": "506",
        "type": "t_mapping(t_uint256,t_array(t_struct(Part)19269_storage)dyn_storage)"
      },
      {
        "astId": 24128,
        "contract": "@rarible/tokens/contracts/erc-1155/erc-1155-meta/ERC1155RaribleMeta.sol:ERC1155RaribleMeta",
        "label": "creators",
        "offset": 0,
        "slot": "507",
        "type": "t_mapping(t_uint256,t_array(t_struct(Part)19269_storage)dyn_storage)"
      },
      {
        "astId": 24132,
        "contract": "@rarible/tokens/contracts/erc-1155/erc-1155-meta/ERC1155RaribleMeta.sol:ERC1155RaribleMeta",
        "label": "supply",
        "offset": 0,
        "slot": "508",
        "type": "t_mapping(t_uint256,t_uint256)"
      },
      {
        "astId": 24136,
        "contract": "@rarible/tokens/contracts/erc-1155/erc-1155-meta/ERC1155RaribleMeta.sol:ERC1155RaribleMeta",
        "label": "minted",
        "offset": 0,
        "slot": "509",
        "type": "t_mapping(t_uint256,t_uint256)"
      },
      {
        "astId": 24749,
        "contract": "@rarible/tokens/contracts/erc-1155/erc-1155-meta/ERC1155RaribleMeta.sol:ERC1155RaribleMeta",
        "label": "__gap",
        "offset": 0,
        "slot": "510",
        "type": "t_array(t_uint256)50_storage"
      },
      {
        "astId": 22321,
        "contract": "@rarible/tokens/contracts/erc-1155/erc-1155-meta/ERC1155RaribleMeta.sol:ERC1155RaribleMeta",
        "label": "contractURI",
        "offset": 0,
        "slot": "560",
        "type": "t_string_storage"
      },
      {
        "astId": 22353,
        "contract": "@rarible/tokens/contracts/erc-1155/erc-1155-meta/ERC1155RaribleMeta.sol:ERC1155RaribleMeta",
        "label": "__gap",
        "offset": 0,
        "slot": "561",
        "type": "t_array(t_uint256)49_storage"
      },
      {
        "astId": 23458,
        "contract": "@rarible/tokens/contracts/erc-1155/erc-1155-meta/ERC1155RaribleMeta.sol:ERC1155RaribleMeta",
        "label": "name",
        "offset": 0,
        "slot": "610",
        "type": "t_string_storage"
      },
      {
        "astId": 23460,
        "contract": "@rarible/tokens/contracts/erc-1155/erc-1155-meta/ERC1155RaribleMeta.sol:ERC1155RaribleMeta",
        "label": "symbol",
        "offset": 0,
        "slot": "611",
        "type": "t_string_storage"
      },
      {
        "astId": 23819,
        "contract": "@rarible/tokens/contracts/erc-1155/erc-1155-meta/ERC1155RaribleMeta.sol:ERC1155RaribleMeta",
        "label": "__gap",
        "offset": 0,
        "slot": "612",
        "type": "t_array(t_uint256)50_storage"
      },
      {
        "astId": 22359,
        "contract": "@rarible/tokens/contracts/erc-1155/erc-1155-meta/ERC1155RaribleMeta.sol:ERC1155RaribleMeta",
        "label": "isPrivate",
        "offset": 0,
        "slot": "662",
        "type": "t_bool"
      },
      {
        "astId": 22363,
        "contract": "@rarible/tokens/contracts/erc-1155/erc-1155-meta/ERC1155RaribleMeta.sol:ERC1155RaribleMeta",
        "label": "__gap",
        "offset": 0,
        "slot": "663",
        "type": "t_array(t_uint256)49_storage"
      },
      {
        "astId": 22488,
        "contract": "@rarible/tokens/contracts/erc-1155/erc-1155-meta/ERC1155RaribleMeta.sol:ERC1155RaribleMeta",
        "label": "_minters",
        "offset": 0,
        "slot": "712",
        "type": "t_mapping(t_address,t_bool)"
      },
      {
        "astId": 22605,
        "contract": "@rarible/tokens/contracts/erc-1155/erc-1155-meta/ERC1155RaribleMeta.sol:ERC1155RaribleMeta",
        "label": "__gap",
        "offset": 0,
        "slot": "713",
        "type": "t_array(t_uint256)50_storage"
      },
      {
        "astId": 19515,
        "contract": "@rarible/tokens/contracts/erc-1155/erc-1155-meta/ERC1155RaribleMeta.sol:ERC1155RaribleMeta",
        "label": "nonces",
        "offset": 0,
        "slot": "763",
        "type": "t_mapping(t_address,t_uint256)"
      },
      {
        "astId": 19517,
        "contract": "@rarible/tokens/contracts/erc-1155/erc-1155-meta/ERC1155RaribleMeta.sol:ERC1155RaribleMeta",
        "label": "domainSeparator",
        "offset": 0,
        "slot": "764",
        "type": "t_bytes32"
      }
    ],
    "types": {
      "t_address": {
        "encoding": "inplace",
        "label": "address",
        "numberOfBytes": "20"
      },
      "t_address_payable": {
        "encoding": "inplace",
        "label": "address payable",
        "numberOfBytes": "20"
      },
      "t_array(t_struct(Part)19269_storage)dyn_storage": {
        "base": "t_struct(Part)19269_storage",
        "encoding": "dynamic_array",
        "label": "struct LibPart.Part[]",
        "numberOfBytes": "32"
      },
      "t_array(t_uint256)47_storage": {
        "base": "t_uint256",
        "encoding": "inplace",
        "label": "uint256[47]",
        "numberOfBytes": "1504"
      },
      "t_array(t_uint256)49_storage": {
        "base": "t_uint256",
        "encoding": "inplace",
        "label": "uint256[49]",
        "numberOfBytes": "1568"
      },
      "t_array(t_uint256)50_storage": {
        "base": "t_uint256",
        "encoding": "inplace",
        "label": "uint256[50]",
        "numberOfBytes": "1600"
      },
      "t_bool": {
        "encoding": "inplace",
        "label": "bool",
        "numberOfBytes": "1"
      },
      "t_bytes32": {
        "encoding": "inplace",
        "label": "bytes32",
        "numberOfBytes": "32"
      },
      "t_bytes4": {
        "encoding": "inplace",
        "label": "bytes4",
        "numberOfBytes": "4"
      },
      "t_mapping(t_address,t_bool)": {
        "encoding": "mapping",
        "key": "t_address",
        "label": "mapping(address => bool)",
        "numberOfBytes": "32",
        "value": "t_bool"
      },
      "t_mapping(t_address,t_mapping(t_address,t_bool))": {
        "encoding": "mapping",
        "key": "t_address",
        "label": "mapping(address => mapping(address => bool))",
        "numberOfBytes": "32",
        "value": "t_mapping(t_address,t_bool)"
      },
      "t_mapping(t_address,t_uint256)": {
        "encoding": "mapping",
        "key": "t_address",
        "label": "mapping(address => uint256)",
        "numberOfBytes": "32",
        "value": "t_uint256"
      },
      "t_mapping(t_bytes4,t_bool)": {
        "encoding": "mapping",
        "key": "t_bytes4",
        "label": "mapping(bytes4 => bool)",
        "numberOfBytes": "32",
        "value": "t_bool"
      },
      "t_mapping(t_uint256,t_array(t_struct(Part)19269_storage)dyn_storage)": {
        "encoding": "mapping",
        "key": "t_uint256",
        "label": "mapping(uint256 => struct LibPart.Part[])",
        "numberOfBytes": "32",
        "value": "t_array(t_struct(Part)19269_storage)dyn_storage"
      },
      "t_mapping(t_uint256,t_mapping(t_address,t_uint256))": {
        "encoding": "mapping",
        "key": "t_uint256",
        "label": "mapping(uint256 => mapping(address => uint256))",
        "numberOfBytes": "32",
        "value": "t_mapping(t_address,t_uint256)"
      },
      "t_mapping(t_uint256,t_string_storage)": {
        "encoding": "mapping",
        "key": "t_uint256",
        "label": "mapping(uint256 => string)",
        "numberOfBytes": "32",
        "value": "t_string_storage"
      },
      "t_mapping(t_uint256,t_uint256)": {
        "encoding": "mapping",
        "key": "t_uint256",
        "label": "mapping(uint256 => uint256)",
        "numberOfBytes": "32",
        "value": "t_uint256"
      },
      "t_string_storage": {
        "encoding": "bytes",
        "label": "string",
        "numberOfBytes": "32"
      },
      "t_struct(Part)19269_storage": {
        "encoding": "inplace",
        "label": "struct LibPart.Part",
        "members": [
          {
            "astId": 19266,
            "contract": "@rarible/tokens/contracts/erc-1155/erc-1155-meta/ERC1155RaribleMeta.sol:ERC1155RaribleMeta",
            "label": "account",
            "offset": 0,
            "slot": "0",
            "type": "t_address_payable"
          },
          {
            "astId": 19268,
            "contract": "@rarible/tokens/contracts/erc-1155/erc-1155-meta/ERC1155RaribleMeta.sol:ERC1155RaribleMeta",
            "label": "value",
            "offset": 20,
            "slot": "0",
            "type": "t_uint96"
          }
        ],
        "numberOfBytes": "32"
      },
      "t_uint256": {
        "encoding": "inplace",
        "label": "uint256",
        "numberOfBytes": "32"
      },
      "t_uint96": {
        "encoding": "inplace",
        "label": "uint96",
        "numberOfBytes": "12"
      }
    }
  }
}