{
  "contractName": "RariMineV3",
  "abi": [
    {
      "anonymous": false,
      "inputs": [
        {
          "indexed": true,
          "internalType": "address",
          "name": "owner",
          "type": "address"
        },
        {
          "indexed": false,
          "internalType": "uint256",
          "name": "value",
          "type": "uint256"
        }
      ],
      "name": "Claim",
      "type": "event"
    },
    {
      "anonymous": false,
      "inputs": [
        {
          "indexed": true,
          "internalType": "address",
          "name": "previousOwner",
          "type": "address"
        },
        {
          "indexed": true,
          "internalType": "address",
          "name": "newOwner",
          "type": "address"
        }
      ],
      "name": "OwnershipTransferred",
      "type": "event"
    },
    {
      "anonymous": false,
      "inputs": [
        {
          "indexed": true,
          "internalType": "uint256",
          "name": "newClaimCliffWeeks",
          "type": "uint256"
        }
      ],
      "name": "SetClaimCliffWeeks",
      "type": "event"
    },
    {
      "anonymous": false,
      "inputs": [
        {
          "indexed": true,
          "internalType": "uint256",
          "name": "newClaimFormulaClaim",
          "type": "uint256"
        }
      ],
      "name": "SetClaimFormulaClaim",
      "type": "event"
    },
    {
      "anonymous": false,
      "inputs": [
        {
          "indexed": true,
          "internalType": "uint256",
          "name": "newClaimSlopeWeeks",
          "type": "uint256"
        }
      ],
      "name": "SetClaimSlopeWeeks",
      "type": "event"
    },
    {
      "anonymous": false,
      "inputs": [
        {
          "indexed": true,
          "internalType": "address",
          "name": "newLocking",
          "type": "address"
        }
      ],
      "name": "SetNewLocking",
      "type": "event"
    },
    {
      "anonymous": false,
      "inputs": [
        {
          "indexed": true,
          "internalType": "address",
          "name": "newSigner",
          "type": "address"
        }
      ],
      "name": "SetNewSigner",
      "type": "event"
    },
    {
      "anonymous": false,
      "inputs": [
        {
          "indexed": true,
          "internalType": "address",
          "name": "newTokenOwner",
          "type": "address"
        }
      ],
      "name": "SetNewTokenOwner",
      "type": "event"
    },
    {
      "anonymous": false,
      "inputs": [
        {
          "indexed": true,
          "internalType": "address",
          "name": "owner",
          "type": "address"
        },
        {
          "indexed": false,
          "internalType": "uint256",
          "name": "value",
          "type": "uint256"
        }
      ],
      "name": "Value",
      "type": "event"
    },
    {
      "inputs": [],
      "name": "VERSION",
      "outputs": [
        {
          "internalType": "uint8",
          "name": "",
          "type": "uint8"
        }
      ],
      "stateMutability": "view",
      "type": "function"
    },
    {
      "inputs": [],
      "name": "claimCliffWeeks",
      "outputs": [
        {
          "internalType": "uint256",
          "name": "",
          "type": "uint256"
        }
      ],
      "stateMutability": "view",
      "type": "function"
    },
    {
      "inputs": [],
      "name": "claimFormulaClaim",
      "outputs": [
        {
          "internalType": "uint256",
          "name": "",
          "type": "uint256"
        }
      ],
      "stateMutability": "view",
      "type": "function"
    },
    {
      "inputs": [],
      "name": "claimSlopeWeeks",
      "outputs": [
        {
          "internalType": "uint256",
          "name": "",
          "type": "uint256"
        }
      ],
      "stateMutability": "view",
      "type": "function"
    },
    {
      "inputs": [
        {
          "internalType": "address",
          "name": "",
          "type": "address"
        }
      ],
      "name": "claimed",
      "outputs": [
        {
          "internalType": "uint256",
          "name": "",
          "type": "uint256"
        }
      ],
      "stateMutability": "view",
      "type": "function"
    },
    {
      "inputs": [],
      "name": "locking",
      "outputs": [
        {
          "internalType": "contract ILocking",
          "name": "",
          "type": "address"
        }
      ],
      "stateMutability": "view",
      "type": "function"
    },
    {
      "inputs": [],
      "name": "owner",
      "outputs": [
        {
          "internalType": "address",
          "name": "",
          "type": "address"
        }
      ],
      "stateMutability": "view",
      "type": "function"
    },
    {
      "inputs": [],
      "name": "renounceOwnership",
      "outputs": [],
      "stateMutability": "nonpayable",
      "type": "function"
    },
    {
      "inputs": [],
      "name": "signer",
      "outputs": [
        {
          "internalType": "address",
          "name": "",
          "type": "address"
        }
      ],
      "stateMutability": "view",
      "type": "function"
    },
    {
      "inputs": [],
      "name": "token",
      "outputs": [
        {
          "internalType": "contract IERC20Upgradeable",
          "name": "",
          "type": "address"
        }
      ],
      "stateMutability": "view",
      "type": "function"
    },
    {
      "inputs": [],
      "name": "tokenOwner",
      "outputs": [
        {
          "internalType": "address",
          "name": "",
          "type": "address"
        }
      ],
      "stateMutability": "view",
      "type": "function"
    },
    {
      "inputs": [
        {
          "internalType": "address",
          "name": "newOwner",
          "type": "address"
        }
      ],
      "name": "transferOwnership",
      "outputs": [],
      "stateMutability": "nonpayable",
      "type": "function"
    },
    {
      "inputs": [
        {
          "internalType": "contract IERC20Upgradeable",
          "name": "_token",
          "type": "address"
        },
        {
          "internalType": "address",
          "name": "_tokenOwner",
          "type": "address"
        },
        {
          "internalType": "contract ILocking",
          "name": "_locking",
          "type": "address"
        },
        {
          "internalType": "uint256",
          "name": "_claimCliffWeeks",
          "type": "uint256"
        },
        {
          "internalType": "uint256",
          "name": "_claimSlopeWeeks",
          "type": "uint256"
        },
        {
          "internalType": "uint256",
          "name": "_claimFormulaClaim",
          "type": "uint256"
        }
      ],
      "name": "__RariMineV3_init",
      "outputs": [],
      "stateMutability": "nonpayable",
      "type": "function"
    },
    {
      "inputs": [
        {
          "components": [
            {
              "internalType": "address",
              "name": "recipient",
              "type": "address"
            },
            {
              "internalType": "uint256",
              "name": "value",
              "type": "uint256"
            }
          ],
          "internalType": "struct IRariMine.Balance",
          "name": "_balance",
          "type": "tuple"
        },
        {
          "internalType": "uint8",
          "name": "v",
          "type": "uint8"
        },
        {
          "internalType": "bytes32",
          "name": "r",
          "type": "bytes32"
        },
        {
          "internalType": "bytes32",
          "name": "s",
          "type": "bytes32"
        }
      ],
      "name": "claim",
      "outputs": [],
      "stateMutability": "nonpayable",
      "type": "function"
    },
    {
      "inputs": [
        {
          "components": [
            {
              "internalType": "address",
              "name": "recipient",
              "type": "address"
            },
            {
              "internalType": "uint256",
              "name": "value",
              "type": "uint256"
            }
          ],
          "internalType": "struct IRariMine.Balance[]",
          "name": "_balances",
          "type": "tuple[]"
        }
      ],
      "name": "doOverride",
      "outputs": [],
      "stateMutability": "nonpayable",
      "type": "function"
    },
    {
      "inputs": [
        {
          "internalType": "address",
          "name": "newTokenOwner",
          "type": "address"
        }
      ],
      "name": "setTokenOwner",
      "outputs": [],
      "stateMutability": "nonpayable",
      "type": "function"
    },
    {
      "inputs": [
        {
          "internalType": "uint256",
          "name": "newClaimFormulaClaim",
          "type": "uint256"
        }
      ],
      "name": "setClaimFormulaClaim",
      "outputs": [],
      "stateMutability": "nonpayable",
      "type": "function"
    },
    {
      "inputs": [
        {
          "internalType": "uint256",
          "name": "newClaimCliffWeeks",
          "type": "uint256"
        }
      ],
      "name": "setClaimCliffWeeks",
      "outputs": [],
      "stateMutability": "nonpayable",
      "type": "function"
    },
    {
      "inputs": [
        {
          "internalType": "uint256",
          "name": "newClaimSlopeWeeks",
          "type": "uint256"
        }
      ],
      "name": "setClaimSlopeWeeks",
      "outputs": [],
      "stateMutability": "nonpayable",
      "type": "function"
    },
    {
      "inputs": [
        {
          "internalType": "address",
          "name": "newLocking",
          "type": "address"
        }
      ],
      "name": "setLocking",
      "outputs": [],
      "stateMutability": "nonpayable",
      "type": "function"
    },
    {
      "inputs": [
        {
          "internalType": "address",
          "name": "newSigner",
          "type": "address"
        }
      ],
      "name": "setSigner",
      "outputs": [],
      "stateMutability": "nonpayable",
      "type": "function"
    }
  ],
  "bytecode": "0x608060405234801561001057600080fd5b50611eb3806100206000396000f3fe608060405234801561001057600080fd5b50600436106101375760003560e01c806358ad5a8b116100b85780638da5cb5b1161007c5780638da5cb5b1461023c578063a3e6761014610244578063c884ef831461024c578063f2fde38b1461025f578063fc0c546a14610272578063ffa1ad741461027a57610137565b806358ad5a8b146101fe578063591041a0146102065780636965f1731461020e5780636c19e78314610221578063715018a61461023457610137565b806318e02bd9116100ff57806318e02bd91461019d5780631f842e7d146101b057806322071216146101c357806323526f06146101e1578063238ac933146101e957610137565b8063091a28ab1461013c5780630be42fcc146101515780630ecf28e9146101645780630f4b53b01461017757806313af10991461018a575b600080fd5b61014f61014a366004611a96565b61028f565b005b61014f61015f3660046119c8565b610355565b61014f610172366004611afa565b610496565b61014f610185366004611b43565b610902565b61014f6101983660046119ac565b610997565b61014f6101ab3660046119ac565b610a43565b61014f6101be366004611b43565b610aef565b6101cb610b84565b6040516101d89190611d98565b60405180910390f35b6101cb610b8a565b6101f1610b90565b6040516101d89190611b73565b6101f1610b9f565b6101cb610bae565b61014f61021c366004611b43565b610bb4565b61014f61022f3660046119ac565b610c49565b61014f610cf5565b6101f1610da1565b6101f1610db0565b6101cb61025a3660046119ac565b610dbf565b61014f61026d3660046119ac565b610dd1565b6101f1610ed4565b610282610ee3565b6040516101d89190611da1565b600054610100900460ff16806102a857506102a8610ee8565b806102b6575060005460ff16155b6102f15760405162461bcd60e51b815260040180806020018281038252602e815260200180611e0f602e913960400191505060405180910390fd5b600054610100900460ff1615801561031c576000805460ff1961ff0019909116610100171660011790555b61032a878787878787610ef9565b610332611014565b61033a61110e565b801561034c576000805461ff00191690555b50505050505050565b61035d6111af565b6001600160a01b031661036e610da1565b6001600160a01b0316146103b7576040805162461bcd60e51b81526020600482018190526024820152600080516020611e5e833981519152604482015290519081900360640190fd5b60005b8151811015610492578181815181106103cf57fe5b602002602001015160200151606b60008484815181106103eb57fe5b6020026020010151600001516001600160a01b03166001600160a01b031681526020019081526020016000208190555081818151811061042757fe5b6020026020010151600001516001600160a01b03167f4fccb55fc57298c6ed3fb8da8e64b2541fe5ef1a07553abb5123c87d2361ccba83838151811061046957fe5b6020026020010151602001516040516104829190611d98565b60405180910390a26001016103ba565b5050565b606c546001600160a01b03166104ba8484846104b289306111b3565b9291906111fa565b6001600160a01b0316146104e95760405162461bcd60e51b81526004016104e090611c1f565b60405180910390fd5b83516001600160a01b0381166104fd6111af565b6001600160a01b031614156108e4576001600160a01b0381166000908152606b60209081526040808320548151808301909252601082526f6e6f7468696e6720746f20636c61696d60801b828401529188015161055b9290916112eb565b90506000811161057d5760405162461bcd60e51b81526004016104e090611bf5565b6020808701516001600160a01b0384166000908152606b90925260408220556068546105b890612710906105b2908590611382565b906113e2565b905080156106ed576065546066546040516323b872dd60e01b81526001600160a01b03928316926323b872dd926105f89291169087908690600401611b87565b602060405180830381600087803b15801561061257600080fd5b505af1158015610626573d6000803e3d6000fd5b505050506040513d601f19601f8201168201806040525081019061064a9190611a76565b6106665760405162461bcd60e51b81526004016104e090611cd3565b826001600160a01b03167f47cee97cb7acd717b3c0aa1435d004cd5b3c8c57d70dbceb4e4458bbd60e39d48260405161069f9190611d98565b60405180910390a2826001600160a01b03167f4fccb55fc57298c6ed3fb8da8e64b2541fe5ef1a07553abb5123c87d2361ccba88602001516040516106e49190611d98565b60405180910390a25b60006106f98383611449565b905080156108db576065546066546040516323b872dd60e01b81526001600160a01b03928316926323b872dd926107399291169030908690600401611b87565b602060405180830381600087803b15801561075357600080fd5b505af1158015610767573d6000803e3d6000fd5b505050506040513d601f19601f8201168201806040525081019061078b9190611a76565b6107a75760405162461bcd60e51b81526004016104e090611c56565b60655460675460405163095ea7b360e01b81526001600160a01b039283169263095ea7b3926107dd929116908590600401611bdc565b602060405180830381600087803b1580156107f757600080fd5b505af115801561080b573d6000803e3d6000fd5b505050506040513d601f19601f8201168201806040525081019061082f9190611a76565b61084b5760405162461bcd60e51b81526004016104e090611c9c565b606754606a5460695460405163106689a560e01b81526001600160a01b039093169263106689a592610887928992839288929091600401611bab565b602060405180830381600087803b1580156108a157600080fd5b505af11580156108b5573d6000803e3d6000fd5b505050506040513d601f19601f820116820180604052508101906108d99190611b5b565b505b505050506108fc565b60405162461bcd60e51b81526004016104e090611d1b565b50505050565b61090a6111af565b6001600160a01b031661091b610da1565b6001600160a01b031614610964576040805162461bcd60e51b81526020600482018190526024820152600080516020611e5e833981519152604482015290519081900360640190fd5b606881905560405181907f2b3e94e9b05d83dceaadc284ae1c3a0d09cd75d13efaa19e37c33f59f069420990600090a250565b61099f6111af565b6001600160a01b03166109b0610da1565b6001600160a01b0316146109f9576040805162461bcd60e51b81526020600482018190526024820152600080516020611e5e833981519152604482015290519081900360640190fd5b606780546001600160a01b0319166001600160a01b0383169081179091556040517fa18a8a4a6882d22f7692587d34b398c0767c437112b882483e1a6ff256d1a58c90600090a250565b610a4b6111af565b6001600160a01b0316610a5c610da1565b6001600160a01b031614610aa5576040805162461bcd60e51b81526020600482018190526024820152600080516020611e5e833981519152604482015290519081900360640190fd5b606680546001600160a01b0319166001600160a01b0383169081179091556040517f756b3a80473d847237cccd94401c2cb5970adda46f21e0169a35b878331bde4d90600090a250565b610af76111af565b6001600160a01b0316610b08610da1565b6001600160a01b031614610b51576040805162461bcd60e51b81526020600482018190526024820152600080516020611e5e833981519152604482015290519081900360640190fd5b606a81905560405181907f2b3e94e9b05d83dceaadc284ae1c3a0d09cd75d13efaa19e37c33f59f069420990600090a250565b60685481565b606a5481565b606c546001600160a01b031681565b6067546001600160a01b031681565b60695481565b610bbc6111af565b6001600160a01b0316610bcd610da1565b6001600160a01b031614610c16576040805162461bcd60e51b81526020600482018190526024820152600080516020611e5e833981519152604482015290519081900360640190fd5b606981905560405181907f2b3e94e9b05d83dceaadc284ae1c3a0d09cd75d13efaa19e37c33f59f069420990600090a250565b610c516111af565b6001600160a01b0316610c62610da1565b6001600160a01b031614610cab576040805162461bcd60e51b81526020600482018190526024820152600080516020611e5e833981519152604482015290519081900360640190fd5b606c80546001600160a01b0319166001600160a01b0383169081179091556040517fe4c12d7a5f70ed11c7148c76c0f3fcf43b5cc6b5bafd428f4ae9486b6f68c83e90600090a250565b610cfd6111af565b6001600160a01b0316610d0e610da1565b6001600160a01b031614610d57576040805162461bcd60e51b81526020600482018190526024820152600080516020611e5e833981519152604482015290519081900360640190fd5b6033546040516000916001600160a01b0316907f8be0079c531659141344cd1fd0a4f28419497f9722a3daafe3b4186f6b6457e0908390a3603380546001600160a01b0319169055565b6033546001600160a01b031690565b6066546001600160a01b031681565b606b6020526000908152604090205481565b610dd96111af565b6001600160a01b0316610dea610da1565b6001600160a01b031614610e33576040805162461bcd60e51b81526020600482018190526024820152600080516020611e5e833981519152604482015290519081900360640190fd5b6001600160a01b038116610e785760405162461bcd60e51b8152600401808060200182810382526026815260200180611de96026913960400191505060405180910390fd5b6033546040516001600160a01b038084169216907f8be0079c531659141344cd1fd0a4f28419497f9722a3daafe3b4186f6b6457e090600090a3603380546001600160a01b0319166001600160a01b0392909216919091179055565b6065546001600160a01b031681565b600181565b6000610ef3306114a6565b15905090565b600054610100900460ff1680610f125750610f12610ee8565b80610f20575060005460ff16155b610f5b5760405162461bcd60e51b815260040180806020018281038252602e815260200180611e0f602e913960400191505060405180910390fd5b600054610100900460ff16158015610f86576000805460ff1961ff0019909116610100171660011790555b606580546001600160a01b03808a166001600160a01b0319928316179092556066805489841690831617905560678054928816929091169190911790556069849055606a8390556068829055610fda6111af565b606c80546001600160a01b0319166001600160a01b0392909216919091179055801561034c576000805461ff001916905550505050505050565b600054610100900460ff168061102d575061102d610ee8565b8061103b575060005460ff16155b6110765760405162461bcd60e51b815260040180806020018281038252602e815260200180611e0f602e913960400191505060405180910390fd5b600054610100900460ff161580156110a1576000805460ff1961ff0019909116610100171660011790555b60006110ab6111af565b603380546001600160a01b0319166001600160a01b038316908117909155604051919250906000907f8be0079c531659141344cd1fd0a4f28419497f9722a3daafe3b4186f6b6457e0908290a350801561110b576000805461ff00191690555b50565b600054610100900460ff16806111275750611127610ee8565b80611135575060005460ff16155b6111705760405162461bcd60e51b815260040180806020018281038252602e815260200180611e0f602e913960400191505060405180910390fd5b600054610100900460ff1615801561119b576000805460ff1961ff0019909116610100171660011790555b801561110b576000805461ff001916905550565b3390565b606060004690506111f084846001846040516020016111d59493929190611d5d565b604051602081830303815290604052805190602001206114b0565b9150505b92915050565b60008085905060006112726040518060400160405280601a81526020017f19457468657265756d205369676e6564204d6573736167653a0a00000000000081525061124584516115c4565b6040805160008082526020820181815282840182815260608401928352608084019094528893909161169c565b90506001818051906020012087878760405160008152602001604052604051808581526020018460ff1681526020018381526020018281526020019450505050506020604051602081039080840390855afa1580156112d5573d6000803e3d6000fd5b5050604051601f19015198975050505050505050565b6000818484111561137a5760405162461bcd60e51b81526004018080602001828103825283818151815260200191508051906020019080838360005b8381101561133f578181015183820152602001611327565b50505050905090810190601f16801561136c5780820380516001836020036101000a031916815260200191505b509250505060405180910390fd5b505050900390565b600082611391575060006111f4565b8282028284828161139e57fe5b04146113db5760405162461bcd60e51b8152600401808060200182810382526021815260200180611e3d6021913960400191505060405180910390fd5b9392505050565b6000808211611438576040805162461bcd60e51b815260206004820152601a60248201527f536166654d6174683a206469766973696f6e206279207a65726f000000000000604482015290519081900360640190fd5b81838161144157fe5b049392505050565b6000828211156114a0576040805162461bcd60e51b815260206004820152601e60248201527f536166654d6174683a207375627472616374696f6e206f766572666c6f770000604482015290519081900360640190fd5b50900390565b803b15155b919050565b604080518082018252601081526f181899199a1a9b1b9c1cb0b131b232b360811b6020820152815182815260608181018452926000919060208201818036833701905050905060005b60208110156115bc5782600486836020811061151157fe5b1a60f81b6001600160f81b031916901c60f81c60ff168151811061153157fe5b602001015160f81c60f81b82826002028151811061154b57fe5b60200101906001600160f81b031916908160001a9053508285826020811061156f57fe5b825191901a600f1690811061158057fe5b602001015160f81c60f81b82826002026001018151811061159d57fe5b60200101906001600160f81b031916908160001a9053506001016114f9565b509392505050565b6060816115e957506040805180820190915260018152600360fc1b60208201526114ab565b8160005b811561160157600101600a820491506115ed565b60008167ffffffffffffffff8111801561161a57600080fd5b506040519080825280601f01601f191660200182016040528015611645576020820181803683370190505b50905060001982015b851561169357600a860660300160f81b8282806001900393508151811061167157fe5b60200101906001600160f81b031916908160001a905350600a8604955061164e565b50949350505050565b6060600082518451865188518a518c518e5101010101010167ffffffffffffffff811180156116ca57600080fd5b506040519080825280601f01601f1916602001820160405280156116f5576020820181803683370190505b5090506000805b8a5181101561174d578a818151811061171157fe5b602001015160f81c60f81b83838060010194508151811061172e57fe5b60200101906001600160f81b031916908160001a9053506001016116fc565b5060005b89518110156117a25789818151811061176657fe5b602001015160f81c60f81b83838060010194508151811061178357fe5b60200101906001600160f81b031916908160001a905350600101611751565b5060005b88518110156117f7578881815181106117bb57fe5b602001015160f81c60f81b8383806001019450815181106117d857fe5b60200101906001600160f81b031916908160001a9053506001016117a6565b5060005b875181101561184c5787818151811061181057fe5b602001015160f81c60f81b83838060010194508151811061182d57fe5b60200101906001600160f81b031916908160001a9053506001016117fb565b5060005b86518110156118a15786818151811061186557fe5b602001015160f81c60f81b83838060010194508151811061188257fe5b60200101906001600160f81b031916908160001a905350600101611850565b5060005b85518110156118f6578581815181106118ba57fe5b602001015160f81c60f81b8383806001019450815181106118d757fe5b60200101906001600160f81b031916908160001a9053506001016118a5565b5060005b845181101561194b5784818151811061190f57fe5b602001015160f81c60f81b83838060010194508151811061192c57fe5b60200101906001600160f81b031916908160001a9053506001016118fa565b50909998505050505050505050565b60006040828403121561196b578081fd5b6040516040810181811067ffffffffffffffff8211171561198857fe5b604052905080823561199981611dd3565b8152602092830135920191909152919050565b6000602082840312156119bd578081fd5b81356113db81611dd3565b600060208083850312156119da578182fd5b823567ffffffffffffffff808211156119f1578384fd5b818501915085601f830112611a04578384fd5b813581811115611a1057fe5b611a1d8485830201611daf565b81815284810192508385016040808402860187018a1015611a3c578788fd5b8795505b83861015611a6857611a528a8361195a565b8552600195909501949386019390810190611a40565b509098975050505050505050565b600060208284031215611a87578081fd5b815180151581146113db578182fd5b60008060008060008060c08789031215611aae578182fd5b8635611ab981611dd3565b95506020870135611ac981611dd3565b94506040870135611ad981611dd3565b959894975094956060810135955060808101359460a0909101359350915050565b60008060008060a08587031215611b0f578384fd5b611b19868661195a565b9350604085013560ff81168114611b2e578384fd5b93969395505050506060820135916080013590565b600060208284031215611b54578081fd5b5035919050565b600060208284031215611b6c578081fd5b5051919050565b6001600160a01b0391909116815260200190565b6001600160a01b039384168152919092166020820152604081019190915260600190565b6001600160a01b03958616815293909416602084015260408301919091526060820152608081019190915260a00190565b6001600160a01b03929092168252602082015260400190565b60208082526010908201526f6e6f7468696e6720746f20636c61696d60801b604082015260600190565b6020808252601b908201527f7369676e65722073686f756c64207369676e2062616c616e6365730000000000604082015260600190565b60208082526026908201527f7472616e7366657220746f20526172694d696e65206973206e6f742073756363604082015265195cdcd99d5b60d21b606082015260800190565b60208082526019908201527f617070726f7665206973206e6f74207375636365737366756c00000000000000604082015260600190565b60208082526028908201527f7472616e7366657220746f206d73672073656e646572206973206e6f7420737560408201526718d8d95cdcd99d5b60c21b606082015260800190565b60208082526022908201527f5f6d736753656e6465722829206973206e6f74207468652072656365697069656040820152611b9d60f21b606082015260800190565b84516001600160a01b0390811682526020958601519582019590955292909316604083015260ff166060820152608081019190915260a00190565b90815260200190565b60ff91909116815260200190565b60405181810167ffffffffffffffff81118282101715611dcb57fe5b604052919050565b6001600160a01b038116811461110b57600080fdfe4f776e61626c653a206e6577206f776e657220697320746865207a65726f2061646472657373496e697469616c697a61626c653a20636f6e747261637420697320616c726561647920696e697469616c697a6564536166654d6174683a206d756c7469706c69636174696f6e206f766572666c6f774f776e61626c653a2063616c6c6572206973206e6f7420746865206f776e6572a2646970667358221220877a22e35ced1948b1a50ee79ff3ba48fcbb232c521d3f3880a21d9f6f06a86464736f6c63430007060033",
  "immutableReferences": {},
  "source": "// SPDX-License-Identifier: MIT\n\n/**\n *Submitted for verification at Etherscan.io on 2020-07-20\n */\n\npragma solidity 0.7.6;\npragma abicoder v2;\n\nimport \"@openzeppelin/contracts-upgradeable/access/OwnableUpgradeable.sol\";\nimport \"@openzeppelin/contracts-upgradeable/utils/AddressUpgradeable.sol\";\nimport \"@openzeppelin/contracts-upgradeable/token/ERC20/IERC20Upgradeable.sol\";\n\nimport \"./libs/LibString.sol\";\nimport \"./libs/LibAddress.sol\";\nimport \"./libs/LibUint.sol\";\nimport \"./libs/LibLockingMath.sol\";\nimport \"./IRariMine.sol\";\nimport \"./ILocking.sol\";\n\ncontract RariMineV3 is OwnableUpgradeable, IRariMine {\n    using SafeMathUpgradeable for uint256;\n    using LibString for string;\n    using LibUint for uint256;\n    using LibAddress for address;\n\n    IERC20Upgradeable public token;\n    address public tokenOwner;\n    ILocking public locking;\n\n    uint256 public claimFormulaClaim;\n    uint256 public claimCliffWeeks;\n    uint256 public claimSlopeWeeks;\n    uint256 constant CLAIM_FORMULA_DIVIDER = 10000;\n\n    uint8 public constant VERSION = 1;\n\n    mapping(address => uint256) public claimed;\n\n    address public signer;\n\n    event SetClaimFormulaClaim(uint256 indexed newClaimFormulaClaim);\n    event SetClaimCliffWeeks(uint256 indexed newClaimCliffWeeks);\n    event SetClaimSlopeWeeks(uint256 indexed newClaimSlopeWeeks);\n    event SetNewTokenOwner(address indexed newTokenOwner);\n    event SetNewLocking(address indexed newLocking);\n    event SetNewSigner(address indexed newSigner);\n\n    function __RariMineV3_init(\n        IERC20Upgradeable _token,\n        address _tokenOwner,\n        ILocking _locking,\n        uint256 _claimCliffWeeks,\n        uint256 _claimSlopeWeeks,\n        uint256 _claimFormulaClaim\n    ) external initializer {\n        __RariMineV3_init_unchained(_token, _tokenOwner, _locking, _claimCliffWeeks, _claimSlopeWeeks, _claimFormulaClaim);\n        __Ownable_init_unchained();\n        __Context_init_unchained();\n    }\n\n    function __RariMineV3_init_unchained(\n        IERC20Upgradeable _token,\n        address _tokenOwner,\n        ILocking _locking,\n        uint256 _claimCliffWeeks,\n        uint256 _claimSlopeWeeks,\n        uint256 _claimFormulaClaim\n    ) internal initializer {\n        token = _token;\n        tokenOwner = _tokenOwner;\n        locking = _locking;\n        claimCliffWeeks = _claimCliffWeeks;\n        claimSlopeWeeks = _claimSlopeWeeks;\n        claimFormulaClaim = _claimFormulaClaim;\n        signer = _msgSender();\n    }\n\n    function claim(\n        Balance memory _balance,\n        uint8 v,\n        bytes32 r,\n        bytes32 s\n    ) public {\n        require(prepareMessage(_balance, address(this)).recover(v, r, s) == signer, \"signer should sign balances\");\n\n        address recipient = _balance.recipient;\n        if (_msgSender() == recipient) {\n            uint256 toClaim = _balance.value.sub(claimed[recipient], \"nothing to claim\");\n            require(toClaim > 0, \"nothing to claim\");\n            claimed[recipient] = _balance.value;\n\n            // claim rari tokens\n            uint256 claimAmount = toClaim.mul(claimFormulaClaim).div(CLAIM_FORMULA_DIVIDER);\n            if (claimAmount > 0) {\n                require(token.transferFrom(tokenOwner, recipient, claimAmount), \"transfer to msg sender is not successful\");\n                emit Claim(recipient, claimAmount);\n                emit Value(recipient, _balance.value);\n            }\n\n            // lock some tokens\n            uint256 lockAmount = toClaim.sub(claimAmount);\n            if(lockAmount > 0) {\n                require(token.transferFrom(tokenOwner, address(this), lockAmount), \"transfer to RariMine is not successful\");\n                require(token.approve(address(locking), lockAmount), \"approve is not successful\");\n                locking.lock(recipient, recipient, lockAmount, claimSlopeWeeks, claimCliffWeeks);\n            }\n\n            return;\n        }\n\n        revert(\"_msgSender() is not the receipient\");\n    }\n\n    function doOverride(Balance[] memory _balances) public onlyOwner {\n        for (uint256 i = 0; i < _balances.length; i++) {\n            claimed[_balances[i].recipient] = _balances[i].value;\n            emit Value(_balances[i].recipient, _balances[i].value);\n        }\n    }\n\n    function prepareMessage(Balance memory _balance, address _address) internal pure returns (string memory) {\n        uint256 id;\n        assembly {\n            id := chainid()\n        }\n        return toString(keccak256(abi.encode(_balance, _address, VERSION, id)));\n    }\n\n    function toString(bytes32 value) internal pure returns (string memory) {\n        bytes memory alphabet = \"0123456789abcdef\";\n        bytes memory str = new bytes(64);\n        for (uint256 i = 0; i < 32; i++) {\n            str[i * 2] = alphabet[uint8(value[i] >> 4)];\n            str[1 + i * 2] = alphabet[uint8(value[i] & 0x0f)];\n        }\n        return string(str);\n    }\n\n    function setTokenOwner(address newTokenOwner) external onlyOwner {\n        tokenOwner = newTokenOwner;\n        emit SetNewTokenOwner(newTokenOwner);\n    }\n\n    function setClaimFormulaClaim(uint256 newClaimFormulaClaim) external onlyOwner {\n        claimFormulaClaim = newClaimFormulaClaim;\n        emit SetClaimCliffWeeks(newClaimFormulaClaim);\n    }\n\n    function setClaimCliffWeeks(uint256 newClaimCliffWeeks) external onlyOwner {\n        claimCliffWeeks = newClaimCliffWeeks;\n        emit SetClaimCliffWeeks(newClaimCliffWeeks);\n    }\n\n    function setClaimSlopeWeeks(uint256 newClaimSlopeWeeks) external onlyOwner {\n        claimSlopeWeeks = newClaimSlopeWeeks;\n        emit SetClaimCliffWeeks(newClaimSlopeWeeks);\n    }\n\n    function setLocking(address newLocking) external onlyOwner {\n        locking = ILocking(newLocking);\n        emit SetNewLocking(newLocking);\n    }\n\n    function setSigner(address newSigner) external onlyOwner {\n        signer = newSigner;\n        emit SetNewSigner(newSigner);\n    }\n\n    uint256[47] private __gap;\n}\n",
  "sourcePath": "/Users/ds/Documents/rarible/protocol-contracts/locking/contracts/RariMineV3.sol",
  "compiler": {
    "name": "solc",
    "version": "0.7.6+commit.7338295f.Emscripten.clang"
  },
  "schemaVersion": "3.4.3",
  "updatedAt": "2022-11-01T16:15:42.746Z",
  "devdoc": {
    "kind": "dev",
    "methods": {
      "owner()": {
        "details": "Returns the address of the current owner."
      },
      "renounceOwnership()": {
        "details": "Leaves the contract without owner. It will not be possible to call `onlyOwner` functions anymore. Can only be called by the current owner. NOTE: Renouncing ownership will leave the contract without an owner, thereby removing any functionality that is only available to the owner."
      },
      "transferOwnership(address)": {
        "details": "Transfers ownership of the contract to a new account (`newOwner`). Can only be called by the current owner."
      }
    },
    "version": 1
  },
  "userdoc": {
    "kind": "user",
    "methods": {},
    "version": 1
  }
}