{
  "address": "0xDa381535565B97640a6453fA7A1A7b161AF78cbE",
  "abi": [
    {
      "inputs": [
        {
          "internalType": "address",
          "name": "initialOwner",
          "type": "address"
        }
      ],
      "stateMutability": "nonpayable",
      "type": "constructor"
    },
    {
      "anonymous": false,
      "inputs": [
        {
          "indexed": false,
          "internalType": "bool",
          "name": "result",
          "type": "bool"
        }
      ],
      "name": "Execution",
      "type": "event"
    },
    {
      "anonymous": false,
      "inputs": [
        {
          "indexed": true,
          "internalType": "address",
          "name": "previousOwner",
          "type": "address"
        },
        {
          "indexed": true,
          "internalType": "address",
          "name": "newOwner",
          "type": "address"
        }
      ],
      "name": "OwnershipTransferred",
      "type": "event"
    },
    {
      "anonymous": false,
      "inputs": [
        {
          "indexed": false,
          "internalType": "bool",
          "name": "paused",
          "type": "bool"
        }
      ],
      "name": "Paused",
      "type": "event"
    },
    {
      "inputs": [
        {
          "internalType": "address[]",
          "name": "transferProxies",
          "type": "address[]"
        }
      ],
      "name": "approveWETH",
      "outputs": [],
      "stateMutability": "nonpayable",
      "type": "function"
    },
    {
      "inputs": [],
      "name": "blur",
      "outputs": [
        {
          "internalType": "address",
          "name": "",
          "type": "address"
        }
      ],
      "stateMutability": "view",
      "type": "function"
    },
    {
      "inputs": [
        {
          "components": [
            {
              "internalType": "enum AbstractRaribleExchangeWrapper.Markets",
              "name": "marketId",
              "type": "uint8"
            },
            {
              "internalType": "uint256",
              "name": "amount",
              "type": "uint256"
            },
            {
              "internalType": "uint256",
              "name": "fees",
              "type": "uint256"
            },
            {
              "internalType": "bytes",
              "name": "data",
              "type": "bytes"
            }
          ],
          "internalType": "struct AbstractRaribleExchangeWrapper.PurchaseDetails[]",
          "name": "purchaseDetails",
          "type": "tuple[]"
        },
        {
          "internalType": "address",
          "name": "feeRecipientFirst",
          "type": "address"
        },
        {
          "internalType": "address",
          "name": "feeRecipientSecond",
          "type": "address"
        },
        {
          "internalType": "bool",
          "name": "allowFail",
          "type": "bool"
        }
      ],
      "name": "bulkPurchase",
      "outputs": [],
      "stateMutability": "payable",
      "type": "function"
    },
    {
      "inputs": [],
      "name": "exchangeV2",
      "outputs": [
        {
          "internalType": "address",
          "name": "",
          "type": "address"
        }
      ],
      "stateMutability": "view",
      "type": "function"
    },
    {
      "inputs": [
        {
          "internalType": "address",
          "name": "wyvernExchange_",
          "type": "address"
        },
        {
          "internalType": "address",
          "name": "exchangeV2_",
          "type": "address"
        },
        {
          "internalType": "address",
          "name": "seaPort_1_1_",
          "type": "address"
        },
        {
          "internalType": "address",
          "name": "x2y2_",
          "type": "address"
        },
        {
          "internalType": "address",
          "name": "looksRare_",
          "type": "address"
        },
        {
          "internalType": "address",
          "name": "sudoswap_",
          "type": "address"
        },
        {
          "internalType": "address",
          "name": "seaPort_1_4_",
          "type": "address"
        },
        {
          "internalType": "address",
          "name": "looksRareV2_",
          "type": "address"
        },
        {
          "internalType": "address",
          "name": "blur_",
          "type": "address"
        },
        {
          "internalType": "address",
          "name": "seaPort_1_5_",
          "type": "address"
        },
        {
          "internalType": "address",
          "name": "seaPort_1_6_",
          "type": "address"
        },
        {
          "internalType": "address",
          "name": "weth_",
          "type": "address"
        }
      ],
      "name": "initialize",
      "outputs": [],
      "stateMutability": "nonpayable",
      "type": "function"
    },
    {
      "inputs": [],
      "name": "looksRare",
      "outputs": [
        {
          "internalType": "address",
          "name": "",
          "type": "address"
        }
      ],
      "stateMutability": "view",
      "type": "function"
    },
    {
      "inputs": [],
      "name": "looksRareV2",
      "outputs": [
        {
          "internalType": "address",
          "name": "",
          "type": "address"
        }
      ],
      "stateMutability": "view",
      "type": "function"
    },
    {
      "inputs": [
        {
          "internalType": "address",
          "name": "",
          "type": "address"
        },
        {
          "internalType": "address",
          "name": "",
          "type": "address"
        },
        {
          "internalType": "uint256[]",
          "name": "",
          "type": "uint256[]"
        },
        {
          "internalType": "uint256[]",
          "name": "",
          "type": "uint256[]"
        },
        {
          "internalType": "bytes",
          "name": "",
          "type": "bytes"
        }
      ],
      "name": "onERC1155BatchReceived",
      "outputs": [
        {
          "internalType": "bytes4",
          "name": "",
          "type": "bytes4"
        }
      ],
      "stateMutability": "nonpayable",
      "type": "function"
    },
    {
      "inputs": [
        {
          "internalType": "address",
          "name": "",
          "type": "address"
        },
        {
          "internalType": "address",
          "name": "",
          "type": "address"
        },
        {
          "internalType": "uint256",
          "name": "",
          "type": "uint256"
        },
        {
          "internalType": "uint256",
          "name": "",
          "type": "uint256"
        },
        {
          "internalType": "bytes",
          "name": "",
          "type": "bytes"
        }
      ],
      "name": "onERC1155Received",
      "outputs": [
        {
          "internalType": "bytes4",
          "name": "",
          "type": "bytes4"
        }
      ],
      "stateMutability": "nonpayable",
      "type": "function"
    },
    {
      "inputs": [
        {
          "internalType": "address",
          "name": "",
          "type": "address"
        },
        {
          "internalType": "address",
          "name": "",
          "type": "address"
        },
        {
          "internalType": "uint256",
          "name": "",
          "type": "uint256"
        },
        {
          "internalType": "bytes",
          "name": "",
          "type": "bytes"
        }
      ],
      "name": "onERC721Received",
      "outputs": [
        {
          "internalType": "bytes4",
          "name": "",
          "type": "bytes4"
        }
      ],
      "stateMutability": "nonpayable",
      "type": "function"
    },
    {
      "inputs": [],
      "name": "owner",
      "outputs": [
        {
          "internalType": "address",
          "name": "",
          "type": "address"
        }
      ],
      "stateMutability": "view",
      "type": "function"
    },
    {
      "inputs": [
        {
          "internalType": "bool",
          "name": "_paused",
          "type": "bool"
        }
      ],
      "name": "pause",
      "outputs": [],
      "stateMutability": "nonpayable",
      "type": "function"
    },
    {
      "inputs": [],
      "name": "paused",
      "outputs": [
        {
          "internalType": "bool",
          "name": "",
          "type": "bool"
        }
      ],
      "stateMutability": "view",
      "type": "function"
    },
    {
      "inputs": [],
      "name": "renounceOwnership",
      "outputs": [],
      "stateMutability": "nonpayable",
      "type": "function"
    },
    {
      "inputs": [],
      "name": "seaPort_1_1",
      "outputs": [
        {
          "internalType": "address",
          "name": "",
          "type": "address"
        }
      ],
      "stateMutability": "view",
      "type": "function"
    },
    {
      "inputs": [],
      "name": "seaPort_1_4",
      "outputs": [
        {
          "internalType": "address",
          "name": "",
          "type": "address"
        }
      ],
      "stateMutability": "view",
      "type": "function"
    },
    {
      "inputs": [],
      "name": "seaPort_1_5",
      "outputs": [
        {
          "internalType": "address",
          "name": "",
          "type": "address"
        }
      ],
      "stateMutability": "view",
      "type": "function"
    },
    {
      "inputs": [],
      "name": "seaPort_1_6",
      "outputs": [
        {
          "internalType": "address",
          "name": "",
          "type": "address"
        }
      ],
      "stateMutability": "view",
      "type": "function"
    },
    {
      "inputs": [
        {
          "internalType": "address",
          "name": "newAddress",
          "type": "address"
        }
      ],
      "name": "setBlur",
      "outputs": [],
      "stateMutability": "nonpayable",
      "type": "function"
    },
    {
      "inputs": [
        {
          "internalType": "address",
          "name": "newAddress",
          "type": "address"
        }
      ],
      "name": "setExchangeV2",
      "outputs": [],
      "stateMutability": "nonpayable",
      "type": "function"
    },
    {
      "inputs": [
        {
          "internalType": "address",
          "name": "newAddress",
          "type": "address"
        }
      ],
      "name": "setLooksRare",
      "outputs": [],
      "stateMutability": "nonpayable",
      "type": "function"
    },
    {
      "inputs": [
        {
          "internalType": "address",
          "name": "newAddress",
          "type": "address"
        }
      ],
      "name": "setLooksRareV2",
      "outputs": [],
      "stateMutability": "nonpayable",
      "type": "function"
    },
    {
      "inputs": [
        {
          "internalType": "address",
          "name": "newAddress",
          "type": "address"
        }
      ],
      "name": "setSeaPort_1_1",
      "outputs": [],
      "stateMutability": "nonpayable",
      "type": "function"
    },
    {
      "inputs": [
        {
          "internalType": "address",
          "name": "newAddress",
          "type": "address"
        }
      ],
      "name": "setSeaPort_1_4",
      "outputs": [],
      "stateMutability": "nonpayable",
      "type": "function"
    },
    {
      "inputs": [
        {
          "internalType": "address",
          "name": "newAddress",
          "type": "address"
        }
      ],
      "name": "setSeaPort_1_5",
      "outputs": [],
      "stateMutability": "nonpayable",
      "type": "function"
    },
    {
      "inputs": [
        {
          "internalType": "address",
          "name": "newAddress",
          "type": "address"
        }
      ],
      "name": "setSeaPort_1_6",
      "outputs": [],
      "stateMutability": "nonpayable",
      "type": "function"
    },
    {
      "inputs": [
        {
          "internalType": "address",
          "name": "newAddress",
          "type": "address"
        }
      ],
      "name": "setSudoswap",
      "outputs": [],
      "stateMutability": "nonpayable",
      "type": "function"
    },
    {
      "inputs": [
        {
          "internalType": "address",
          "name": "newAddress",
          "type": "address"
        }
      ],
      "name": "setWeth",
      "outputs": [],
      "stateMutability": "nonpayable",
      "type": "function"
    },
    {
      "inputs": [
        {
          "internalType": "address",
          "name": "newAddress",
          "type": "address"
        }
      ],
      "name": "setWyvernExchange",
      "outputs": [],
      "stateMutability": "nonpayable",
      "type": "function"
    },
    {
      "inputs": [
        {
          "internalType": "address",
          "name": "newAddress",
          "type": "address"
        }
      ],
      "name": "setX2y2",
      "outputs": [],
      "stateMutability": "nonpayable",
      "type": "function"
    },
    {
      "inputs": [
        {
          "components": [
            {
              "internalType": "enum AbstractRaribleExchangeWrapper.Markets",
              "name": "marketId",
              "type": "uint8"
            },
            {
              "internalType": "uint256",
              "name": "amount",
              "type": "uint256"
            },
            {
              "internalType": "uint256",
              "name": "fees",
              "type": "uint256"
            },
            {
              "internalType": "bytes",
              "name": "data",
              "type": "bytes"
            }
          ],
          "internalType": "struct AbstractRaribleExchangeWrapper.PurchaseDetails",
          "name": "purchaseDetails",
          "type": "tuple"
        },
        {
          "internalType": "address",
          "name": "feeRecipientFirst",
          "type": "address"
        },
        {
          "internalType": "address",
          "name": "feeRecipientSecond",
          "type": "address"
        }
      ],
      "name": "singlePurchase",
      "outputs": [],
      "stateMutability": "payable",
      "type": "function"
    },
    {
      "inputs": [],
      "name": "sudoswap",
      "outputs": [
        {
          "internalType": "address",
          "name": "",
          "type": "address"
        }
      ],
      "stateMutability": "view",
      "type": "function"
    },
    {
      "inputs": [
        {
          "internalType": "bytes4",
          "name": "interfaceId",
          "type": "bytes4"
        }
      ],
      "name": "supportsInterface",
      "outputs": [
        {
          "internalType": "bool",
          "name": "",
          "type": "bool"
        }
      ],
      "stateMutability": "view",
      "type": "function"
    },
    {
      "inputs": [
        {
          "internalType": "address",
          "name": "newOwner",
          "type": "address"
        }
      ],
      "name": "transferOwnership",
      "outputs": [],
      "stateMutability": "nonpayable",
      "type": "function"
    },
    {
      "inputs": [],
      "name": "weth",
      "outputs": [
        {
          "internalType": "address",
          "name": "",
          "type": "address"
        }
      ],
      "stateMutability": "view",
      "type": "function"
    },
    {
      "inputs": [],
      "name": "wyvernExchange",
      "outputs": [
        {
          "internalType": "address",
          "name": "",
          "type": "address"
        }
      ],
      "stateMutability": "view",
      "type": "function"
    },
    {
      "inputs": [],
      "name": "x2y2",
      "outputs": [
        {
          "internalType": "address",
          "name": "",
          "type": "address"
        }
      ],
      "stateMutability": "view",
      "type": "function"
    },
    {
      "stateMutability": "payable",
      "type": "receive"
    }
  ],
  "transactionHash": "0x17b44f9f9f30a384a7d2cc1c40b29d4a097e6d6f1ad85a98f1680a44bad53fd9",
  "args": [
    "0x256eFfCeA2ab308D31e318728D2615545171d85B"
  ],
  "numDeployments": 1,
  "solcInputHash": "d2e9fef5d37ee798c88c8951735ba04c",
  "bytecode": "0x60806040523480156200001157600080fd5b506040516200557938038062005579833981016040819052620000349162000254565b600062000040620000af565b600080546001600160a01b0319166001600160a01b03831690811782556040519293509160008051602062005559833981519152908290a3506200008b6301ffc9a760e01b620000b3565b6200009d630271189760e51b620000b3565b620000a8816200013b565b5062000284565b3390565b6001600160e01b0319808216141562000113576040805162461bcd60e51b815260206004820152601c60248201527f4552433136353a20696e76616c696420696e7465726661636520696400000000604482015290519081900360640190fd5b6001600160e01b0319166000908152600160208190526040909120805460ff19169091179055565b62000145620000af565b6001600160a01b03166200015862000245565b6001600160a01b031614620001b4576040805162461bcd60e51b815260206004820181905260248201527f4f776e61626c653a2063616c6c6572206973206e6f7420746865206f776e6572604482015290519081900360640190fd5b6001600160a01b038116620001fb5760405162461bcd60e51b8152600401808060200182810382526026815260200180620055336026913960400191505060405180910390fd5b600080546040516001600160a01b03808516939216916000805160206200555983398151915291a3600080546001600160a01b0319166001600160a01b0392909216919091179055565b6000546001600160a01b031690565b60006020828403121562000266578081fd5b81516001600160a01b03811681146200027d578182fd5b9392505050565b61529f80620002946000396000f3fe60806040526004361061021d5760003560e01c806386496e7a11610123578063c6c71948116100ab578063df6c25581161006f578063df6c2558146105bd578063f23a6e61146105d2578063f2fde38b146105f2578063f66ac0cb14610612578063fc40c9c71461062757610224565b8063c6c7194814610528578063c9f0a2fa14610548578063d08b47bc1461055d578063d23bf34c1461057d578063dbd18d311461059d57610224565b8063a05f32dc116100f2578063a05f32dc146104ab578063b8d1452f146104c0578063b94ee332146104e0578063bc197c81146104f3578063bd4486ee1461051357610224565b806386496e7a1461044e57806386dcbd27146104615780638da5cb5b146104815780639110c7771461049657610224565b8063349d6a85116101a657806357f57d6a1161017557806357f57d6a146103cf5780635ade0c4a146103ef5780635c975abb1461040f5780635ea1e4c914610424578063715018a61461043957610224565b8063349d6a85146103705780633733b82b146103855780633841f34c1461039a5780633fc8cef3146103ba57610224565b806308b1571d116101ed57806308b1571d146102c35780630b800f48146102e3578063150b7a021461030357806318de7aca1461033057806332a1f99d1461035057610224565b80628534f71461022957806301ffc9a71461025457806302329a2914610281578063079da73a146102a357610224565b3661022457005b600080fd5b34801561023557600080fd5b5061023e61063c565b60405161024b919061492b565b60405180910390f35b34801561026057600080fd5b5061027461026f36600461418f565b61064b565b60405161024b91906149b4565b34801561028d57600080fd5b506102a161029c366004614157565b61066e565b005b3480156102af57600080fd5b506102a16102be366004613c15565b610717565b3480156102cf57600080fd5b506102a16102de366004613c15565b61079b565b3480156102ef57600080fd5b506102a16102fe366004613c31565b61081f565b34801561030f57600080fd5b5061032361031e366004613dc1565b610aad565b60405161024b91906149bf565b34801561033c57600080fd5b506102a161034b366004613c15565b610abd565b34801561035c57600080fd5b506102a161036b366004613c15565b610b41565b34801561037c57600080fd5b5061023e610bc5565b34801561039157600080fd5b5061023e610bd4565b3480156103a657600080fd5b506102a16103b5366004613c15565b610be3565b3480156103c657600080fd5b5061023e610c67565b3480156103db57600080fd5b506102a16103ea366004613c15565b610c76565b3480156103fb57600080fd5b506102a161040a366004613c15565b610cfa565b34801561041b57600080fd5b50610274610d7e565b34801561043057600080fd5b5061023e610d87565b34801561044557600080fd5b506102a1610d96565b6102a161045c366004614313565b610e42565b34801561046d57600080fd5b506102a161047c366004613e90565b610ff4565b34801561048d57600080fd5b5061023e611118565b3480156104a257600080fd5b5061023e611127565b3480156104b757600080fd5b5061023e611136565b3480156104cc57600080fd5b506102a16104db366004613c15565b611145565b6102a16104ee36600461409c565b6111c9565b3480156104ff57600080fd5b5061032361050e366004613d18565b611439565b34801561051f57600080fd5b5061023e61144a565b34801561053457600080fd5b506102a1610543366004613c15565b611459565b34801561055457600080fd5b5061023e6114dd565b34801561056957600080fd5b506102a1610578366004613c15565b6114f3565b34801561058957600080fd5b506102a1610598366004613c15565b611577565b3480156105a957600080fd5b506102a16105b8366004613c15565b6115fb565b3480156105c957600080fd5b5061023e611689565b3480156105de57600080fd5b506103236105ed366004613e2a565b611698565b3480156105fe57600080fd5b506102a161060d366004613c15565b6116a9565b34801561061e57600080fd5b5061023e6117ab565b34801561063357600080fd5b5061023e6117ba565b6004546001600160a01b031690565b6001600160e01b0319811660009081526001602052604090205460ff165b919050565b6106766117c9565b6001600160a01b0316610687611118565b6001600160a01b0316146106d0576040805162461bcd60e51b8152602060048201819052602482015260008051602061524a833981519152604482015290519081900360640190fd5b6002805482151560ff19909116811790915560408051918252517f0e2fb031ee032dc02d8011dc50b816eb450cf856abd8261680dac74f72165bd29181900360200190a150565b61071f6117c9565b6001600160a01b0316610730611118565b6001600160a01b031614610779576040805162461bcd60e51b8152602060048201819052602482015260008051602061524a833981519152604482015290519081900360640190fd5b600880546001600160a01b0319166001600160a01b0392909216919091179055565b6107a36117c9565b6001600160a01b03166107b4611118565b6001600160a01b0316146107fd576040805162461bcd60e51b8152602060048201819052602482015260008051602061524a833981519152604482015290519081900360640190fd5b600a80546001600160a01b0319166001600160a01b0392909216919091179055565b60025462010000900460ff168061083957506108396117cd565b8061084c5750600254610100900460ff16155b6108875760405162461bcd60e51b815260040180806020018281038252602e8152602001806151fb602e913960400191505060405180910390fd5b60025462010000900460ff161580156108b7576002805461ff001962ff0000199091166201000017166101001790555b8c600260036101000a8154816001600160a01b0302191690836001600160a01b031602179055508b600360006101000a8154816001600160a01b0302191690836001600160a01b031602179055508a600460006101000a8154816001600160a01b0302191690836001600160a01b0316021790555089600560006101000a8154816001600160a01b0302191690836001600160a01b0316021790555088600660006101000a8154816001600160a01b0302191690836001600160a01b0316021790555087600760006101000a8154816001600160a01b0302191690836001600160a01b0316021790555086600860006101000a8154816001600160a01b0302191690836001600160a01b0316021790555085600960006101000a8154816001600160a01b0302191690836001600160a01b0316021790555084600a60006101000a8154816001600160a01b0302191690836001600160a01b0316021790555083600b60006101000a8154816001600160a01b0302191690836001600160a01b0316021790555082600c60006101000a8154816001600160a01b0302191690836001600160a01b0316021790555081600d60006101000a8154816001600160a01b0302191690836001600160a01b031602179055508015610a9e576002805462ff0000191690555b50505050505050505050505050565b630a85bd0160e11b949350505050565b610ac56117c9565b6001600160a01b0316610ad6611118565b6001600160a01b031614610b1f576040805162461bcd60e51b8152602060048201819052602482015260008051602061524a833981519152604482015290519081900360640190fd5b600c80546001600160a01b0319166001600160a01b0392909216919091179055565b610b496117c9565b6001600160a01b0316610b5a611118565b6001600160a01b031614610ba3576040805162461bcd60e51b8152602060048201819052602482015260008051602061524a833981519152604482015290519081900360640190fd5b600980546001600160a01b0319166001600160a01b0392909216919091179055565b600b546001600160a01b031690565b6009546001600160a01b031690565b610beb6117c9565b6001600160a01b0316610bfc611118565b6001600160a01b031614610c45576040805162461bcd60e51b8152602060048201819052602482015260008051602061524a833981519152604482015290519081900360640190fd5b600780546001600160a01b0319166001600160a01b0392909216919091179055565b600d546001600160a01b031690565b610c7e6117c9565b6001600160a01b0316610c8f611118565b6001600160a01b031614610cd8576040805162461bcd60e51b8152602060048201819052602482015260008051602061524a833981519152604482015290519081900360640190fd5b600680546001600160a01b0319166001600160a01b0392909216919091179055565b610d026117c9565b6001600160a01b0316610d13611118565b6001600160a01b031614610d5c576040805162461bcd60e51b8152602060048201819052602482015260008051602061524a833981519152604482015290519081900360640190fd5b600480546001600160a01b0319166001600160a01b0392909216919091179055565b60025460ff1681565b6007546001600160a01b031690565b610d9e6117c9565b6001600160a01b0316610daf611118565b6001600160a01b031614610df8576040805162461bcd60e51b8152602060048201819052602482015260008051602061524a833981519152604482015290519081900360640190fd5b600080546040516001600160a01b03909116907f8be0079c531659141344cd1fd0a4f28419497f9722a3daafe3b4186f6b6457e0908390a3600080546001600160a01b0319169055565b610e4a6117de565b6000610e5584611831565b90508015610eef57610e65610c67565b6001600160a01b03166323b872dd610e7b6117c9565b30846040518463ffffffff1660e01b8152600401610e9b9392919061493f565b602060405180830381600087803b158015610eb557600080fd5b505af1158015610ec9573d6000803e3d6000fd5b505050506040513d601f19601f82011682018060405250810190610eed9190614173565b505b6000610efe85604001516118fc565b90506000808080846001811115610f1157fe5b1415610f4257610f22886000611918565b91945092509050610f33828861279c565b610f3d818761279c565b610f9d565b6001846001811115610f5057fe5b1415610f7c57610f618860006127c7565b91945092509050610f728288612bd6565b610f3d8187612bd6565b60405162461bcd60e51b8152600401610f9490614b7f565b60405180910390fd5b7fcc54b89ca2d75d5612023b14f0a477212b0e08bc0c5b8ad2804e2f8e2e401fc083604051610fcc91906149b4565b60405180910390a1610fdc612c7a565b8415610fea57610fea612c8e565b5050505050505050565b610ffc6117c9565b6001600160a01b031661100d611118565b6001600160a01b031614611056576040805162461bcd60e51b8152602060048201819052602482015260008051602061524a833981519152604482015290519081900360640190fd5b60005b8181101561111357611069610c67565b6001600160a01b031663095ea7b384848481811061108357fe5b90506020020160208101906110989190613c15565b6000196040518363ffffffff1660e01b81526004016110b892919061499b565b602060405180830381600087803b1580156110d257600080fd5b505af11580156110e6573d6000803e3d6000fd5b505050506040513d601f19601f8201168201806040525081019061110a9190614173565b50600101611059565b505050565b6000546001600160a01b031690565b6006546001600160a01b031690565b6003546001600160a01b031690565b61114d6117c9565b6001600160a01b031661115e611118565b6001600160a01b0316146111a7576040805162461bcd60e51b8152602060048201819052602482015260008051602061524a833981519152604482015290519081900360640190fd5b600d80546001600160a01b0319166001600160a01b0392909216919091179055565b6111d16117de565b60008060008060008060005b8a5181101561120e576112028b82815181106111f557fe5b6020026020010151611831565b909101906001016111dd565b5080156112a75761121d610c67565b6001600160a01b03166323b872dd6112336117c9565b30846040518463ffffffff1660e01b81526004016112539392919061493f565b602060405180830381600087803b15801561126d57600080fd5b505af1158015611281573d6000803e3d6000fd5b505050506040513d601f19601f820116820180604052508101906112a59190614173565b505b60005b8a518110156113d15760006112d58c83815181106112c457fe5b6020026020010151604001516118fc565b905060008080808460018111156112e857fe5b141561132f5761130b8f86815181106112fd57fe5b60200260200101518d611918565b9194509250905061131c8b83612da9565b9a506113288a82612da9565b9950611380565b600184600181111561133d57fe5b1415610f7c576113608f868151811061135257fe5b60200260200101518d6127c7565b919450925090506113718983612da9565b985061137d8882612da9565b97505b86806113895750825b96507fcc54b89ca2d75d5612023b14f0a477212b0e08bc0c5b8ad2804e2f8e2e401fc0836040516113ba91906149b4565b60405180910390a1505050508060010190506112aa565b50816113ef5760405162461bcd60e51b8152600401610f9490614dc5565b6113f9868a61279c565b611403858961279c565b61140d848a612bd6565b6114178389612bd6565b61141f612c7a565b801561142d5761142d612c8e565b50505050505050505050565b63bc197c8160e01b95945050505050565b6008546001600160a01b031690565b6114616117c9565b6001600160a01b0316611472611118565b6001600160a01b0316146114bb576040805162461bcd60e51b8152602060048201819052602482015260008051602061524a833981519152604482015290519081900360640190fd5b600580546001600160a01b0319166001600160a01b0392909216919091179055565b600254630100000090046001600160a01b031690565b6114fb6117c9565b6001600160a01b031661150c611118565b6001600160a01b031614611555576040805162461bcd60e51b8152602060048201819052602482015260008051602061524a833981519152604482015290519081900360640190fd5b600380546001600160a01b0319166001600160a01b0392909216919091179055565b61157f6117c9565b6001600160a01b0316611590611118565b6001600160a01b0316146115d9576040805162461bcd60e51b8152602060048201819052602482015260008051602061524a833981519152604482015290519081900360640190fd5b600b80546001600160a01b0319166001600160a01b0392909216919091179055565b6116036117c9565b6001600160a01b0316611614611118565b6001600160a01b03161461165d576040805162461bcd60e51b8152602060048201819052602482015260008051602061524a833981519152604482015290519081900360640190fd5b600280546001600160a01b039092166301000000026301000000600160b81b0319909216919091179055565b600a546001600160a01b031690565b63f23a6e6160e01b95945050505050565b6116b16117c9565b6001600160a01b03166116c2611118565b6001600160a01b03161461170b576040805162461bcd60e51b8152602060048201819052602482015260008051602061524a833981519152604482015290519081900360640190fd5b6001600160a01b0381166117505760405162461bcd60e51b81526004018080602001828103825260268152602001806151d56026913960400191505060405180910390fd5b600080546040516001600160a01b03808516939216917f8be0079c531659141344cd1fd0a4f28419497f9722a3daafe3b4186f6b6457e091a3600080546001600160a01b0319166001600160a01b0392909216919091179055565b600c546001600160a01b031690565b6005546001600160a01b031690565b3390565b60006117d830612e0a565b15905090565b60025460ff161561182f576040805162461bcd60e51b81526020600482015260166024820152751d1a194818dbdb9d1c9858dd081a5cc81c185d5cd95960521b604482015290519081900360640190fd5b565b60008060009050600061184784604001516118fc565b9050600181600181111561185757fe5b14156118f5576020840151604085015192810192600091829161187991612e10565b9150915080828501019350600061189d876060015188604001518960000151612e41565b91505060005b81518110156118f057600060a08383815181106118bc57fe5b6020026020010151901c905060006118e1828b60200151612efa90919063ffffffff16565b979097019650506001016118a3565b505050505b5092915050565b6000603082901c61ffff16600181111561191257fe5b92915050565b6000806000806000611937876060015188604001518960000151612e41565b6020890151919350915060028851600a81111561195057fe5b1415611a0557600061196061063c565b6001600160a01b03168285604051611978919061490f565b60006040518083038185875af1925050503d80600081146119b5576040519150601f19603f3d011682016040523d82523d6000602084013e6119ba565b606091505b5050905087156119e257806119dd57600080600096509650965050505050612795565b6119ff565b806119ff5760405162461bcd60e51b8152600401610f9490614be5565b50612763565b60018851600a811115611a1457fe5b1415611abe576000611a246114dd565b6001600160a01b03168285604051611a3c919061490f565b60006040518083038185875af1925050503d8060008114611a79576040519150601f19603f3d011682016040523d82523d6000602084013e611a7e565b606091505b505090508715611aa157806119dd57600080600096509650965050505050612795565b806119ff5760405162461bcd60e51b8152600401610f9490614a3e565b60008851600a811115611acd57fe5b1415611b77576000611add611136565b6001600160a01b03168285604051611af5919061490f565b60006040518083038185875af1925050503d8060008114611b32576040519150601f19603f3d011682016040523d82523d6000602084013e611b37565b606091505b505090508715611b5a57806119dd57600080600096509650965050505050612795565b806119ff5760405162461bcd60e51b8152600401610f9490614aac565b60038851600a811115611b8657fe5b1415611f9557600083806020019051810190611ba29190614369565b90508715611c2657611bb26117ba565b6001600160a01b031663357a150b83836040518363ffffffff1660e01b8152600401611bde9190614e2a565b6000604051808303818588803b158015611bf757600080fd5b505af193505050508015611c09575060015b611c2157600080600096509650965050505050612795565b611c8d565b611c2e6117ba565b6001600160a01b031663357a150b83836040518363ffffffff1660e01b8152600401611c5a9190614e2a565b6000604051808303818588803b158015611c7357600080fd5b505af1158015611c87573d6000803e3d6000fd5b50505050505b60005b816020015151811015611f8e57600082602001518281518110611caf57fe5b6020026020010151602001519050600083602001518381518110611ccf57fe5b6020026020010151604001519050600084600001518381518110611cef57fe5b602002602001015161010001518281518110611d0757fe5b6020026020010151602001519050600085600001518481518110611d2757fe5b602002602001015160e0015151118015611d5d5750600085602001518581518110611d4e57fe5b602002602001015160c0015151115b15611da357611da38186602001518681518110611d7657fe5b602002602001015160c0015187600001518681518110611d9257fe5b602002602001015160e00151612f12565b8451805184908110611db157fe5b60200260200101516080015160011415611e8657600081806020019051810190611ddb9190613fdb565b905060005b8151811015611e7f576000828281518110611df757fe5b6020026020010151905080600001516001600160a01b03166342842e0e30611e1d6117c9565b84602001516040518463ffffffff1660e01b8152600401611e409392919061493f565b600060405180830381600087803b158015611e5a57600080fd5b505af1158015611e6e573d6000803e3d6000fd5b505060019093019250611de0915050565b5050611f80565b8451805184908110611e9457fe5b60200260200101516080015160021415611f6857600081806020019051810190611ebe9190613efe565b905060005b8151811015611e7f576000828281518110611eda57fe5b6020026020010151905080600001516001600160a01b031663f242432a30611f006117c9565b846020015185604001516040518563ffffffff1660e01b8152600401611f299493929190614963565b600060405180830381600087803b158015611f4357600080fd5b505af1158015611f57573d6000803e3d6000fd5b505060019093019250611ec3915050565b60405162461bcd60e51b8152600401610f9490614cf4565b505050806001019050611c90565b5050612763565b60048851600a811115611fa457fe5b14156121c557600080600085806020019051810190611fc39190614431565b925092509250891561204f57611fd7611127565b6001600160a01b031663b4e4b2968585856040518463ffffffff1660e01b8152600401612005929190614fb1565b6000604051808303818588803b15801561201e57600080fd5b505af193505050508015612030575060015b61204a576000806000985098509850505050505050612795565b6120b8565b612057611127565b6001600160a01b031663b4e4b2968585856040518463ffffffff1660e01b8152600401612085929190614fb1565b6000604051808303818588803b15801561209e57600080fd5b505af11580156120b2573d6000803e3d6000fd5b50505050505b6001600160e01b031981166339d690a360e11b14156121475781604001516001600160a01b03166342842e0e306120ed6117c9565b85608001516040518463ffffffff1660e01b81526004016121109392919061493f565b600060405180830381600087803b15801561212a57600080fd5b505af115801561213e573d6000803e3d6000fd5b505050506121bd565b6001600160e01b0319811663025ceed960e61b14156121a55781604001516001600160a01b031663f242432a3061217c6117c9565b85608001518660a001516040518563ffffffff1660e01b81526004016121109493929190614963565b60405162461bcd60e51b8152600401610f9490614d62565b505050612763565b60058851600a8111156121d457fe5b141561227e5760006121e4610d87565b6001600160a01b031682856040516121fc919061490f565b60006040518083038185875af1925050503d8060008114612239576040519150601f19603f3d011682016040523d82523d6000602084013e61223e565b606091505b50509050871561226157806119dd57600080600096509650965050505050612795565b806119ff5760405162461bcd60e51b8152600401610f9490614cbd565b60068851600a81111561228d57fe5b141561233757600061229d61144a565b6001600160a01b031682856040516122b5919061490f565b60006040518083038185875af1925050503d80600081146122f2576040519150601f19603f3d011682016040523d82523d6000602084013e6122f7565b606091505b50509050871561231a57806119dd57600080600096509650965050505050612795565b806119ff5760405162461bcd60e51b8152600401610f9490614a75565b60078851600a81111561234657fe5b14156123f0576000612356610bd4565b6001600160a01b0316828560405161236e919061490f565b60006040518083038185875af1925050503d80600081146123ab576040519150601f19603f3d011682016040523d82523d6000602084013e6123b0565b606091505b5050905087156123d357806119dd57600080600096509650965050505050612795565b806119ff5760405162461bcd60e51b8152600401610f9490614d2b565b60088851600a8111156123ff57fe5b14156125d95760008060008580602001905181019061241e919061429f565b92509250925089156124aa57612432611689565b6001600160a01b0316639a1fc3a78585856040518463ffffffff1660e01b8152600401612460929190614dfc565b6000604051808303818588803b15801561247957600080fd5b505af19350505050801561248b575060015b6124a5576000806000985098509850505050505050612795565b612513565b6124b2611689565b6001600160a01b0316639a1fc3a78585856040518463ffffffff1660e01b81526004016124e0929190614dfc565b6000604051808303818588803b1580156124f957600080fd5b505af115801561250d573d6000803e3d6000fd5b50505050505b6001600160e01b031981166339d690a360e11b1415612572578251606001516001600160a01b03166342842e0e306125496117c9565b8651608001516040516001600160e01b031960e086901b1681526121109392919060040161493f565b6001600160e01b0319811663025ceed960e61b14156121a5578251606001516001600160a01b031663f242432a306125a86117c9565b8651608081015160a0909101516040516001600160e01b031960e087901b1681526121109493929190600401614963565b60098851600a8111156125e857fe5b14156126925760006125f8610bc5565b6001600160a01b03168285604051612610919061490f565b60006040518083038185875af1925050503d806000811461264d576040519150601f19603f3d011682016040523d82523d6000602084013e612652565b606091505b50509050871561267557806119dd57600080600096509650965050505050612795565b806119ff5760405162461bcd60e51b8152600401610f9490614c51565b600a8851600a8111156126a157fe5b141561274b5760006126b16117ab565b6001600160a01b031682856040516126c9919061490f565b60006040518083038185875af1925050503d8060008114612706576040519150601f19603f3d011682016040523d82523d6000602084013e61270b565b606091505b50509050871561272e57806119dd57600080600096509650965050505050612795565b806119ff5760405162461bcd60e51b8152600401610f9490614b48565b60405162461bcd60e51b8152600401610f9490614b1a565b612771828960200151612fa3565b6000806127868a604001518b60200151612e10565b60019950909750955050505050505b9250925092565b6000821180156127b457506001600160a01b03811615155b156127c3576127c3818361302c565b5050565b60008060008060006127e6876060015188604001518960000151612e41565b909250905060028751600a8111156127fa57fe5b14156128ad57600061280a61063c565b6001600160a01b031683604051612821919061490f565b6000604051808303816000865af19150503d806000811461285e576040519150601f19603f3d011682016040523d82523d6000602084013e612863565b606091505b50509050861561288a5780612885576000806000955095509550505050612795565b6128a7565b806128a75760405162461bcd60e51b8152600401610f9490614c88565b50612ba1565b60008751600a8111156128bc57fe5b14156129645760006128cc611136565b6001600160a01b0316836040516128e3919061490f565b6000604051808303816000865af19150503d8060008114612920576040519150601f19603f3d011682016040523d82523d6000602084013e612925565b606091505b5050905086156129475780612885576000806000955095509550505050612795565b806128a75760405162461bcd60e51b8152600401610f9490614ae3565b60068751600a81111561297357fe5b1415612a1b57600061298361144a565b6001600160a01b03168360405161299a919061490f565b6000604051808303816000865af19150503d80600081146129d7576040519150601f19603f3d011682016040523d82523d6000602084013e6129dc565b606091505b5050905086156129fe5780612885576000806000955095509550505050612795565b806128a75760405162461bcd60e51b8152600401610f94906149d4565b60098751600a811115612a2a57fe5b1415612ad2576000612a3a610bc5565b6001600160a01b031683604051612a51919061490f565b6000604051808303816000865af19150503d8060008114612a8e576040519150601f19603f3d011682016040523d82523d6000602084013e612a93565b606091505b505090508615612ab55780612885576000806000955095509550505050612795565b806128a75760405162461bcd60e51b8152600401610f9490614a09565b600a8751600a811115612ae157fe5b1415612b89576000612af16117ab565b6001600160a01b031683604051612b08919061490f565b6000604051808303816000865af19150503d8060008114612b45576040519150601f19603f3d011682016040523d82523d6000602084013e612b4a565b606091505b505090508615612b6c5780612885576000806000955095509550505050612795565b806128a75760405162461bcd60e51b8152600401610f9490614c1c565b60405162461bcd60e51b8152600401610f9490614bb6565b612baf8188602001516130c4565b600080612bc489604001518a60200151612e10565b60019b919a5098509650505050505050565b600082118015612bee57506001600160a01b03811615155b156127c357612bfb610c67565b6001600160a01b031663a9059cbb82846040518363ffffffff1660e01b8152600401612c2892919061499b565b602060405180830381600087803b158015612c4257600080fd5b505af1158015612c56573d6000803e3d6000fd5b505050506040513d601f19601f820116820180604052508101906111139190614173565b478015612c8b57612c8b338261302c565b50565b6000612c98610c67565b6001600160a01b03166370a08231306040518263ffffffff1660e01b8152600401612cc3919061492b565b60206040518083038186803b158015612cdb57600080fd5b505afa158015612cef573d6000803e3d6000fd5b505050506040513d601f19601f82011682018060405250810190612d13919061451e565b90508015612c8b57612d23610c67565b6001600160a01b031663a9059cbb612d396117c9565b836040518363ffffffff1660e01b8152600401612d5792919061499b565b602060405180830381600087803b158015612d7157600080fd5b505af1158015612d85573d6000803e3d6000fd5b505050506040513d601f19601f820116820180604052508101906127c39190614173565b600082820183811015612e03576040805162461bcd60e51b815260206004820152601b60248201527f536166654d6174683a206164646974696f6e206f766572666c6f770000000000604482015290519081900360640190fd5b9392505050565b3b151590565b60008061ffff601085901c8116908516612e2a8583612efa565b612e348683612efa565b9350935050509250929050565b6060806000602085901c61ffff166001811115612e5a57fe5b905060606000826001811115612e6c57fe5b1415612e7e578693509150612ef29050565b6001826001811115612e8c57fe5b1415612eda57600087806020019051810190612ea891906141ab565b9050612eb38661314d565b15612ece578060000151816020015194509450505050612ef2565b5193509150612ef29050565b60405162461bcd60e51b8152600401610f9490614d8e565b935093915050565b6000612e03612710612f0c858561319f565b906131f8565b8151835114612f2057600080fd5b8051835114612f2e57600080fd5b60005b8351811015612f9d57818181518110612f4657fe5b01602001516001600160f81b03191615612f9557828181518110612f6657fe5b602001015160f81c60f81b848281518110612f7d57fe5b60200101906001600160f81b031916908160001a9053505b600101612f31565b50505050565b60005b8251811015611113576000838281518110612fbd57fe5b60200260200101511115613024576000838281518110612fd957fe5b60200260200101519050600060a0858481518110612ff357fe5b6020026020010151901c905060006130148286612efa90919063ffffffff16565b9050613020818461279c565b5050505b600101612fa6565b6040516000906001600160a01b0384169083908381818185875af1925050503d8060008114613077576040519150601f19603f3d011682016040523d82523d6000602084013e61307c565b606091505b5050905080611113576040805162461bcd60e51b815260206004820152600f60248201526e1d1c985b9cd9995c8819985a5b1959608a1b604482015290519081900360640190fd5b60005b82518110156111135760008382815181106130de57fe5b602002602001015111156131455760008382815181106130fa57fe5b60200260200101519050600060a085848151811061311457fe5b6020026020010151901c905060006131358286612efa90919063ffffffff16565b90506131418184612bd6565b5050505b6001016130c7565b6000600582600a81111561315d57fe5b14806131745750600482600a81111561317257fe5b145b8061318a5750600782600a81111561318857fe5b145b1561319757506001610669565b506000919050565b6000826131ae57506000611912565b828202828482816131bb57fe5b0414612e035760405162461bcd60e51b81526004018080602001828103825260218152602001806152296021913960400191505060405180910390fd5b600080821161324e576040805162461bcd60e51b815260206004820152601a60248201527f536166654d6174683a206469766973696f6e206279207a65726f000000000000604482015290519081900360640190fd5b81838161325757fe5b049392505050565b80356106698161519b565b80516106698161519b565b600082601f830112613285578081fd5b8151602061329a61329583615131565b61510e565b828152818101908583016040808602880185018910156132b8578687fd5b865b868110156133225781838b0312156132d0578788fd5b81518281018181106001600160401b03821117156132ea57fe5b8352835161ffff811681146132fd57898afd5b81528387015161330c8161519b565b81880152855293850193918101916001016132ba565b509198975050505050505050565b600082601f830112613340578081fd5b8151602061335061329583615131565b8281528181019085830160408086028801850189101561336e578687fd5b865b868110156133225781838b031215613386578788fd5b81518281018181106001600160401b03821117156133a057fe5b835283518152868401516133b38161519b565b8188015285529385019391810191600101613370565b600082601f8301126133d9578081fd5b815160206133e961329583615131565b82815281810190858301855b858110156134725781518801604080601f19838d03011215613415578889fd5b80518181016001600160401b03828210818311171561343057fe5b818452848a0151835292840151928084111561344a578b8cfd5b505061345a8c89848601016137bb565b818901528652505092840192908401906001016133f5565b5090979650505050505050565b600082601f83011261348f578081fd5b8151602061349f61329583615131565b82815281810190858301855b8581101561347257815188016101a080601f19838d030112156134cc578889fd5b6134d58161510e565b8783015181526134e76040840161326a565b88820152606083015160408201526080830151606082015260a0830151608082015260c083015160a082015261351f60e0840161326a565b60c0820152610100808401516001600160401b038082111561353f578c8dfd5b61354d8f8c848901016137bb565b60e0850152610120860151915080821115613566578c8dfd5b506135758e8b838801016133c9565b8284015250506101408301516101208201526101608301516101408201526135a06101808401613c04565b6101608201526135b1828401613c04565b6101808201528652505092840192908401906001016134ab565b600082601f8301126135db578081fd5b815160206135eb61329583615131565b82815281810190858301855b85811015613472578151880161016080601f19838d03011215613618578889fd5b6136218161510e565b61362c888401613806565b8152604083015188820152606083015160408201526080830151606082015260a0830151608082015261366160c0840161326a565b60a082015260e0808401516001600160401b0380821115613680578c8dfd5b61368e8f8c848901016137bb565b60c0850152610100915081860151838501526101209250828601518285015261014091508186015183850152848601519450808511156136cc578c8dfd5b506136db8e8b86880101613330565b90830152508652505092840192908401906001016135f7565b600082601f830112613704578081fd5b8135602061371461329583615131565b8281528181019085830183850287018401881015613730578586fd5b855b8581101561347257813584529284019290840190600101613732565b8035610669816151b0565b8051610669816151b0565b8051610669816151be565b600082601f83011261377f578081fd5b813561378d6132958261514e565b8181528460208386010111156137a1578283fd5b816020850160208301379081016020019190915292915050565b600082601f8301126137cb578081fd5b81516137d96132958261514e565b8181528460208386010111156137ed578283fd5b6137fe82602083016020870161516f565b949350505050565b80516008811061066957600080fd5b80516002811061066957600080fd5b600060e08284031215613835578081fd5b61383f60e061510e565b905081516001600160401b038082111561385857600080fd5b613864858386016139e8565b835261387260208501613c04565b60208401526040840151604084015260608401516060840152608084015191508082111561389f57600080fd5b506138ac848285016137bb565b6080830152506138be60a08301613815565b60a082015260c082015160c082015292915050565b60006102008083850312156138e6578182fd5b6138ef8161510e565b9150506138fb82613759565b81526139096020830161326a565b602082015261391a6040830161326a565b6040820152606082015160608201526080820151608082015260a082015160a082015261394960c0830161326a565b60c082015261395a60e0830161326a565b60e08201526101008281015190820152610120808301519082015261014080830151908201526101608083015190820152610180808301516001600160401b038111156139a657600080fd5b6139b2858286016137bb565b8284015250506101a06139c6818401613c04565b908201526101c082810151908201526101e09182015191810191909152919050565b60006101a08083850312156139fb578182fd5b613a048161510e565b915050613a108261326a565b8152613a1e60208301613815565b6020820152613a2f6040830161326a565b6040820152613a406060830161326a565b60608201526080820151608082015260a082015160a0820152613a6560c0830161326a565b60c082015260e0828101519082015261010080830151908201526101208083015190820152610140808301516001600160401b0380821115613aa657600080fd5b613ab286838701613275565b8385015261016092508285015183850152610180925082850151915080821115613adb57600080fd5b50613ae8858286016137bb565b82840152505092915050565b600060808284031215613b05578081fd5b604051608081016001600160401b038282108183111715613b2257fe5b8160405282935084359150600b8210613b3a57600080fd5b81835260208501356020840152604085013560408401526060850135915080821115613b6557600080fd5b50613b728582860161376f565b6060830152505092915050565b600060c08284031215613b90578081fd5b60405160c081018181106001600160401b0382111715613bac57fe5b8060405250809150825181526020830151602082015260408301516040820152606083015160608201526080830151613be48161519b565b608082015260a0830151613bf7816151b0565b60a0919091015292915050565b805160ff8116811461066957600080fd5b600060208284031215613c26578081fd5b8135612e038161519b565b6000806000806000806000806000806000806101808d8f031215613c53578788fd5b8c35613c5e8161519b565b9b5060208d0135613c6e8161519b565b9a5060408d0135613c7e8161519b565b995060608d0135613c8e8161519b565b985060808d0135613c9e8161519b565b975060a08d0135613cae8161519b565b9650613cbc60c08e0161325f565b9550613cca60e08e0161325f565b9450613cd96101008e0161325f565b9350613ce86101208e0161325f565b9250613cf76101408e0161325f565b9150613d066101608e0161325f565b90509295989b509295989b509295989b565b600080600080600060a08688031215613d2f578283fd5b8535613d3a8161519b565b94506020860135613d4a8161519b565b935060408601356001600160401b0380821115613d65578485fd5b613d7189838a016136f4565b94506060880135915080821115613d86578283fd5b613d9289838a016136f4565b93506080880135915080821115613da7578283fd5b50613db48882890161376f565b9150509295509295909350565b60008060008060808587031215613dd6578182fd5b8435613de18161519b565b93506020850135613df18161519b565b92506040850135915060608501356001600160401b03811115613e12578182fd5b613e1e8782880161376f565b91505092959194509250565b600080600080600060a08688031215613e41578283fd5b8535613e4c8161519b565b94506020860135613e5c8161519b565b9350604086013592506060860135915060808601356001600160401b03811115613e84578182fd5b613db48882890161376f565b60008060208385031215613ea2578182fd5b82356001600160401b0380821115613eb8578384fd5b818501915085601f830112613ecb578384fd5b813581811115613ed9578485fd5b8660208083028501011115613eec578485fd5b60209290920196919550909350505050565b60006020808385031215613f10578182fd5b82516001600160401b0380821115613f26578384fd5b818501915085601f830112613f39578384fd5b8151613f4761329582615131565b818152848101908486016060808502870188018b1015613f65578889fd5b8896505b84871015613fcc5780828c031215613f7f578889fd5b604080518281018181108982111715613f9457fe5b82528351613fa18161519b565b8152838a01518a82015281840151918101919091528452600196909601959287019290810190613f69565b50909998505050505050505050565b60006020808385031215613fed578182fd5b82516001600160401b0380821115614003578384fd5b818501915085601f830112614016578384fd5b815161402461329582615131565b818152848101908486016040808502870188018b1015614042578889fd5b8896505b84871015613fcc5780828c03121561405c578889fd5b8051818101818110888211171561406f57fe5b8252825161407c8161519b565b815282890151898201528452600196909601959287019290810190614046565b600080600080608085870312156140b1578182fd5b84356001600160401b038111156140c6578283fd5b8501601f810187136140d6578283fd5b803560206140e661329583615131565b82815281810190848301875b8581101561411b576141098d8684358a0101613af4565b845292840192908401906001016140f2565b5050809850505061412d81890161325f565b955050505061413e6040860161325f565b915061414c6060860161374e565b905092959194509250565b600060208284031215614168578081fd5b8135612e03816151b0565b600060208284031215614184578081fd5b8151612e03816151b0565b6000602082840312156141a0578081fd5b8135612e03816151be565b600060208083850312156141bd578182fd5b82516001600160401b03808211156141d3578384fd5b90840190604082870312156141e6578384fd5b6040516040810181811083821117156141fb57fe5b60405282518281111561420c578586fd5b614218888286016137bb565b825250838301518281111561422b578586fd5b80840193505086601f84011261423f578485fd5b8251915061424f61329583615131565b82815284810190848601868502860187018a101561426b578788fd5b8795505b8486101561428d57805183526001959095019491860191860161426f565b50948201949094529695505050505050565b6000806000606084860312156142b3578081fd5b83516001600160401b03808211156142c9578283fd5b6142d587838801613824565b945060208601519150808211156142ea578283fd5b506142f786828701613824565b9250506040840151614308816151be565b809150509250925092565b600080600060608486031215614327578081fd5b83356001600160401b0381111561433c578182fd5b61434886828701613af4565b93505060208401356143598161519b565b915060408401356143088161519b565b60006020828403121561437a578081fd5b81516001600160401b0380821115614390578283fd5b9083019061016082860312156143a4578283fd5b6143ae60c061510e565b8251828111156143bc578485fd5b6143c88782860161347f565b8252506020830151828111156143dc578485fd5b6143e8878286016135cb565b6020830152506143fb8660408501613b7f565b6040820152610100830151606082015261012083015160808201526144236101408401613c04565b60a082015295945050505050565b600080600060608486031215614445578081fd5b83516001600160401b038082111561445b578283fd5b9085019060c0828803121561446e578283fd5b60405160c08101818110838211171561448357fe5b60405261448f83613759565b815261449d6020840161326a565b602082015260408301516040820152606083015160608201526080830151608082015260a0830151828111156144d1578485fd5b6144dd898286016137bb565b60a08301525060208701519095509150808211156144f9578283fd5b50614506868287016138d3565b92505061451560408501613764565b90509250925092565b60006020828403121561452f578081fd5b5051919050565b6001600160a01b03169052565b6000815180845260208085019450808401835b8381101561458a578151805161ffff1688528301516001600160a01b03168388015260409096019590820190600101614556565b509495945050505050565b6000815180845260208085019450808401835b8381101561458a578151805188528301516001600160a01b031683880152604090960195908201906001016145a8565b6000815180845260208085018081965082840281019150828601855b85811015614632578284038952815180518552850151604086860181905261461e81870183614724565b9a87019a95505050908401906001016145f4565b5091979650505050505050565b6000815180845260208085018081965082840281019150828601855b858110156146325782840389528151610160614678868351614750565b818701518688015260408083015190870152606080830151908701526080808301519087015260a0808301516146b082890182614536565b505060c08083015182828901526146c983890182614724565b60e085810151908a015261010080860151908a015261012080860151908a015261014094850151898203958a0195909552925061470a915082905083614595565b9a87019a955050509084019060010161465b565b15159052565b6000815180845261473c81602086016020860161516f565b601f01601f19169290920160200192915050565b6008811061475a57fe5b9052565b6002811061475a57fe5b6000815160e0845261477e60e085018251614536565b60208101516101006147928187018361475e565b604083015191506101206147a881880184614536565b606084015192506101406147be81890185614536565b6080850151935061016084818a015260a0860151945061018085818b015260c087015195506101a06147f2818c0188614536565b60e08801516101c08c0152858801516101e08c0152848801516102008c0152838801519650806102208c01525061482d6102808b0187614543565b918701516102408b01529095015188860360df19016102608a015294935061485b9250839150849050614724565b91505060208301516148706020860182614908565b5060408301516040850152606083015160608501526080830151848203608086015261489c8282614724565b91505060a08301516148b160a086018261475e565b5060c083015160c08501528091505092915050565b805182526020808201519083015260408082015190830152606080820151908301526080808201516001600160a01b03169083015260a0908101511515910152565b60ff169052565b6000825161492181846020870161516f565b9190910192915050565b6001600160a01b0391909116815260200190565b6001600160a01b039384168152919092166020820152604081019190915260600190565b6001600160a01b0394851681529290931660208301526040820152606081019190915260a06080820181905260009082015260c00190565b6001600160a01b03929092168252602082015260400190565b901515815260200190565b6001600160e01b031991909116815260200190565b6020808252818101527f507572636861736520536561506f72745f315f34206661696c65642057455448604082015260600190565b6020808252818101527f507572636861736520536561506f72745f315f35206661696c65642057455448604082015260600190565b6020808252601e908201527f50757263686173652077797665726e45786368616e6765206661696c65640000604082015260600190565b6020808252601b908201527f507572636861736520536561506f72745f315f34206661696c65640000000000604082015260600190565b60208082526017908201527f50757263686173652072617269626c65206661696c6564000000000000000000604082015260600190565b6020808252601c908201527f50757263686173652072617269626c65206661696c6564205745544800000000604082015260600190565b6020808252601490820152730aadcd6dcdeeedc40dac2e4d6cae892c8408aa8960631b604082015260600190565b6020808252601b908201527f507572636861736520536561506f72745f315f36206661696c65640000000000604082015260600190565b60208082526019908201527f556e6b6e6f776e2070757263686173652063757272656e637900000000000000604082015260600190565b6020808252601590820152740aadcd6dcdeeedc40dac2e4d6cae892c840ae8aa89605b1b604082015260600190565b6020808252601b908201527f507572636861736520536561506f72745f315f31206661696c65640000000000604082015260600190565b6020808252818101527f507572636861736520536561506f72745f315f36206661696c65642057455448604082015260600190565b6020808252601b908201527f507572636861736520536561506f72745f315f35206661696c65640000000000604082015260600190565b6020808252818101527f507572636861736520536561506f72745f315f31206661696c65642057455448604082015260600190565b60208082526018908201527f5075726368617365207375646f73776170206661696c65640000000000000000604082015260600190565b60208082526019908201527f756e6b6e6f776e2064656c656761746554797065207832793200000000000000604082015260600190565b6020808252601b908201527f5075726368617365204c6f6f6b73526172655632206661696c65640000000000604082015260600190565b602080825260129082015271556e6b6e6f776e20746f6b656e207479706560701b604082015260600190565b6020808252601a908201527f756e6b6e6f776e206164646974696f6e616c4461746154797065000000000000604082015260600190565b60208082526018908201527f6e6f207375636365737366756c20657865637574696f6e730000000000000000604082015260600190565b600060408252614e0f6040830185614768565b8281036020840152614e218185614768565b95945050505050565b60006020808352610180808401855161016080858801528282518085526101a094508489019150848782028a01018785019450885b82811015614f47578a820361019f1901845285518051835289810151614e878b850182614536565b5060408181015190840152606080820151908401526080808201519084015260a0808201519084015260c080820151614ec282860182614536565b505060e0808201518982860152614edb8a860182614724565b9150506101008083015185830382870152614ef683826145d8565b9250505061012080830151818601525061014080830151818601525086820151614f2288860182614908565b509089015190614f34848b0183614908565b968a0196948a0194925050600101614e5f565b50968a0151898803601f190160408b015296614f63818961463f565b975050505060408801519350614f7c60608801856148c6565b6060880151610120880152608088015161014088015260a08801519350614fa581880185614908565b50929695505050505050565b60006040825261010084511515604084015260018060a01b03602086015116606084015260408501516080840152606085015160a0840152608085015160c084015260a085015160c060e085015261500b82850182614724565b9050838103602085015261020061502382875161471e565b60208601516150356020840182614536565b5060408601516150486040840182614536565b50606086015160608301526080860151608083015260a086015160a083015260c086015161507960c0840182614536565b5060e086015161508c60e0840182614536565b508583015192820192909252610120808601519082015261014080860151908201526101608086015190820152610180808601518183018490529092906150d582840182614724565b935050506101a0808601516150ec82840182614908565b50506101c085810151908201526101e094850151940193909352509092915050565b6040518181016001600160401b038111828210171561512957fe5b604052919050565b60006001600160401b0382111561514457fe5b5060209081020190565b60006001600160401b0382111561516157fe5b50601f01601f191660200190565b60005b8381101561518a578181015183820152602001615172565b83811115612f9d5750506000910152565b6001600160a01b0381168114612c8b57600080fd5b8015158114612c8b57600080fd5b6001600160e01b031981168114612c8b57600080fdfe4f776e61626c653a206e6577206f776e657220697320746865207a65726f2061646472657373496e697469616c697a61626c653a20636f6e747261637420697320616c726561647920696e697469616c697a6564536166654d6174683a206d756c7469706c69636174696f6e206f766572666c6f774f776e61626c653a2063616c6c6572206973206e6f7420746865206f776e6572a2646970667358221220d04ac089950c5b1dfc08ec58d28fb917129895edf480c53c75a52219e44ffefb64736f6c634300070600334f776e61626c653a206e6577206f776e657220697320746865207a65726f20616464726573738be0079c531659141344cd1fd0a4f28419497f9722a3daafe3b4186f6b6457e0",
  "devdoc": {
    "kind": "dev",
    "methods": {
      "approveWETH(address[])": {
        "params": {
          "transferProxies": "- array of addresses to approve WETH for"
        }
      },
      "bulkPurchase((uint8,uint256,uint256,bytes)[],address,address,bool)": {
        "params": {
          "allowFail": "- true if fails while executing orders are allowed, false if fail of a single order means fail of the whole batch",
          "feeRecipientFirst": "- address of the first fee recipient",
          "feeRecipientSecond": "- address of the second fee recipient",
          "purchaseDetails": "- array of deatails about the purchases (more info in PurchaseDetails struct)"
        }
      },
      "onERC721Received(address,address,uint256,bytes)": {
        "details": "See {IERC721Receiver-onERC721Received}. Always returns `IERC721Receiver.onERC721Received.selector`."
      },
      "owner()": {
        "details": "Returns the address of the current owner."
      },
      "renounceOwnership()": {
        "details": "Leaves the contract without owner. It will not be possible to call `onlyOwner` functions anymore. Can only be called by the current owner. NOTE: Renouncing ownership will leave the contract without an owner, thereby removing any functionality that is only available to the owner."
      },
      "singlePurchase((uint8,uint256,uint256,bytes),address,address)": {
        "params": {
          "feeRecipientFirst": "- address of the first fee recipient",
          "feeRecipientSecond": "- address of the second fee recipient",
          "purchaseDetails": "- deatails about the purchase (more info in PurchaseDetails struct)"
        }
      },
      "supportsInterface(bytes4)": {
        "details": "See {IERC165-supportsInterface}. Time complexity O(1), guaranteed to always use less than 30 000 gas."
      },
      "transferOwnership(address)": {
        "details": "Transfers ownership of the contract to a new account (`newOwner`). Can only be called by the current owner."
      }
    },
    "version": 1
  },
  "userdoc": {
    "kind": "user",
    "methods": {
      "approveWETH(address[])": {
        "notice": "approves weth for a list of the addresses"
      },
      "bulkPurchase((uint8,uint256,uint256,bytes)[],address,address,bool)": {
        "notice": "executes an array of purchases"
      },
      "singlePurchase((uint8,uint256,uint256,bytes),address,address)": {
        "notice": "executes a single purchase"
      }
    },
    "version": 1
  },
  "storageLayout": {
    "storage": [
      {
        "astId": 5462,
        "contract": "@rarible/exchange-wrapper/contracts/MutableRaribleExchangeWrapper.sol:MutableRaribleExchangeWrapper",
        "label": "_owner",
        "offset": 0,
        "slot": "0",
        "type": "t_address"
      },
      {
        "astId": 5578,
        "contract": "@rarible/exchange-wrapper/contracts/MutableRaribleExchangeWrapper.sol:MutableRaribleExchangeWrapper",
        "label": "_supportedInterfaces",
        "offset": 0,
        "slot": "1",
        "type": "t_mapping(t_bytes4,t_bool)"
      },
      {
        "astId": 18113,
        "contract": "@rarible/exchange-wrapper/contracts/MutableRaribleExchangeWrapper.sol:MutableRaribleExchangeWrapper",
        "label": "paused",
        "offset": 0,
        "slot": "2",
        "type": "t_bool"
      },
      {
        "astId": 739,
        "contract": "@rarible/exchange-wrapper/contracts/MutableRaribleExchangeWrapper.sol:MutableRaribleExchangeWrapper",
        "label": "_initialized",
        "offset": 1,
        "slot": "2",
        "type": "t_bool"
      },
      {
        "astId": 742,
        "contract": "@rarible/exchange-wrapper/contracts/MutableRaribleExchangeWrapper.sol:MutableRaribleExchangeWrapper",
        "label": "_initializing",
        "offset": 2,
        "slot": "2",
        "type": "t_bool"
      },
      {
        "astId": 17080,
        "contract": "@rarible/exchange-wrapper/contracts/MutableRaribleExchangeWrapper.sol:MutableRaribleExchangeWrapper",
        "label": "_wyvernExchange",
        "offset": 3,
        "slot": "2",
        "type": "t_address"
      },
      {
        "astId": 17082,
        "contract": "@rarible/exchange-wrapper/contracts/MutableRaribleExchangeWrapper.sol:MutableRaribleExchangeWrapper",
        "label": "_exchangeV2",
        "offset": 0,
        "slot": "3",
        "type": "t_address"
      },
      {
        "astId": 17084,
        "contract": "@rarible/exchange-wrapper/contracts/MutableRaribleExchangeWrapper.sol:MutableRaribleExchangeWrapper",
        "label": "_seaPort_1_1",
        "offset": 0,
        "slot": "4",
        "type": "t_address"
      },
      {
        "astId": 17086,
        "contract": "@rarible/exchange-wrapper/contracts/MutableRaribleExchangeWrapper.sol:MutableRaribleExchangeWrapper",
        "label": "_x2y2",
        "offset": 0,
        "slot": "5",
        "type": "t_address"
      },
      {
        "astId": 17088,
        "contract": "@rarible/exchange-wrapper/contracts/MutableRaribleExchangeWrapper.sol:MutableRaribleExchangeWrapper",
        "label": "_looksRare",
        "offset": 0,
        "slot": "6",
        "type": "t_address"
      },
      {
        "astId": 17090,
        "contract": "@rarible/exchange-wrapper/contracts/MutableRaribleExchangeWrapper.sol:MutableRaribleExchangeWrapper",
        "label": "_sudoswap",
        "offset": 0,
        "slot": "7",
        "type": "t_address"
      },
      {
        "astId": 17092,
        "contract": "@rarible/exchange-wrapper/contracts/MutableRaribleExchangeWrapper.sol:MutableRaribleExchangeWrapper",
        "label": "_seaPort_1_4",
        "offset": 0,
        "slot": "8",
        "type": "t_address"
      },
      {
        "astId": 17094,
        "contract": "@rarible/exchange-wrapper/contracts/MutableRaribleExchangeWrapper.sol:MutableRaribleExchangeWrapper",
        "label": "_looksRareV2",
        "offset": 0,
        "slot": "9",
        "type": "t_address"
      },
      {
        "astId": 17096,
        "contract": "@rarible/exchange-wrapper/contracts/MutableRaribleExchangeWrapper.sol:MutableRaribleExchangeWrapper",
        "label": "_blur",
        "offset": 0,
        "slot": "10",
        "type": "t_address"
      },
      {
        "astId": 17098,
        "contract": "@rarible/exchange-wrapper/contracts/MutableRaribleExchangeWrapper.sol:MutableRaribleExchangeWrapper",
        "label": "_seaPort_1_5",
        "offset": 0,
        "slot": "11",
        "type": "t_address"
      },
      {
        "astId": 17100,
        "contract": "@rarible/exchange-wrapper/contracts/MutableRaribleExchangeWrapper.sol:MutableRaribleExchangeWrapper",
        "label": "_seaPort_1_6",
        "offset": 0,
        "slot": "12",
        "type": "t_address"
      },
      {
        "astId": 17102,
        "contract": "@rarible/exchange-wrapper/contracts/MutableRaribleExchangeWrapper.sol:MutableRaribleExchangeWrapper",
        "label": "_weth",
        "offset": 0,
        "slot": "13",
        "type": "t_address"
      }
    ],
    "types": {
      "t_address": {
        "encoding": "inplace",
        "label": "address",
        "numberOfBytes": "20"
      },
      "t_bool": {
        "encoding": "inplace",
        "label": "bool",
        "numberOfBytes": "1"
      },
      "t_bytes4": {
        "encoding": "inplace",
        "label": "bytes4",
        "numberOfBytes": "4"
      },
      "t_mapping(t_bytes4,t_bool)": {
        "encoding": "mapping",
        "key": "t_bytes4",
        "label": "mapping(bytes4 => bool)",
        "numberOfBytes": "32",
        "value": "t_bool"
      }
    }
  }
}