{
  "address": "0x21ba8E67F86e4b06d97140A9B22BDb0a91F8b4af",
  "abi": [
    {
      "inputs": [],
      "stateMutability": "nonpayable",
      "type": "constructor"
    },
    {
      "anonymous": false,
      "inputs": [
        {
          "indexed": false,
          "internalType": "address",
          "name": "previousAdmin",
          "type": "address"
        },
        {
          "indexed": false,
          "internalType": "address",
          "name": "newAdmin",
          "type": "address"
        }
      ],
      "name": "AdminChanged",
      "type": "event"
    },
    {
      "anonymous": false,
      "inputs": [
        {
          "indexed": true,
          "internalType": "address",
          "name": "beacon",
          "type": "address"
        }
      ],
      "name": "BeaconUpgraded",
      "type": "event"
    },
    {
      "anonymous": false,
      "inputs": [
        {
          "indexed": false,
          "internalType": "uint8",
          "name": "version",
          "type": "uint8"
        }
      ],
      "name": "Initialized",
      "type": "event"
    },
    {
      "anonymous": false,
      "inputs": [
        {
          "indexed": false,
          "internalType": "uint256",
          "name": "oldPrice",
          "type": "uint256"
        },
        {
          "indexed": false,
          "internalType": "uint256",
          "name": "newPrice",
          "type": "uint256"
        }
      ],
      "name": "NativeWLPriceSet",
      "type": "event"
    },
    {
      "anonymous": false,
      "inputs": [
        {
          "indexed": true,
          "internalType": "address",
          "name": "previousOwner",
          "type": "address"
        },
        {
          "indexed": true,
          "internalType": "address",
          "name": "newOwner",
          "type": "address"
        }
      ],
      "name": "OwnershipTransferred",
      "type": "event"
    },
    {
      "anonymous": false,
      "inputs": [
        {
          "indexed": false,
          "internalType": "bool",
          "name": "payWithNative",
          "type": "bool"
        }
      ],
      "name": "PayWithNativeSet",
      "type": "event"
    },
    {
      "anonymous": false,
      "inputs": [
        {
          "indexed": true,
          "internalType": "bytes32",
          "name": "role",
          "type": "bytes32"
        },
        {
          "indexed": true,
          "internalType": "bytes32",
          "name": "previousAdminRole",
          "type": "bytes32"
        },
        {
          "indexed": true,
          "internalType": "bytes32",
          "name": "newAdminRole",
          "type": "bytes32"
        }
      ],
      "name": "RoleAdminChanged",
      "type": "event"
    },
    {
      "anonymous": false,
      "inputs": [
        {
          "indexed": true,
          "internalType": "bytes32",
          "name": "role",
          "type": "bytes32"
        },
        {
          "indexed": true,
          "internalType": "address",
          "name": "account",
          "type": "address"
        },
        {
          "indexed": true,
          "internalType": "address",
          "name": "sender",
          "type": "address"
        }
      ],
      "name": "RoleGranted",
      "type": "event"
    },
    {
      "anonymous": false,
      "inputs": [
        {
          "indexed": true,
          "internalType": "bytes32",
          "name": "role",
          "type": "bytes32"
        },
        {
          "indexed": true,
          "internalType": "address",
          "name": "account",
          "type": "address"
        },
        {
          "indexed": true,
          "internalType": "address",
          "name": "sender",
          "type": "address"
        }
      ],
      "name": "RoleRevoked",
      "type": "event"
    },
    {
      "anonymous": false,
      "inputs": [
        {
          "indexed": true,
          "internalType": "address",
          "name": "oldTreasury",
          "type": "address"
        },
        {
          "indexed": true,
          "internalType": "address",
          "name": "newTreasury",
          "type": "address"
        }
      ],
      "name": "TreasurySet",
      "type": "event"
    },
    {
      "anonymous": false,
      "inputs": [
        {
          "indexed": true,
          "internalType": "address",
          "name": "implementation",
          "type": "address"
        }
      ],
      "name": "Upgraded",
      "type": "event"
    },
    {
      "anonymous": false,
      "inputs": [
        {
          "indexed": true,
          "internalType": "address",
          "name": "oldRegistry",
          "type": "address"
        },
        {
          "indexed": true,
          "internalType": "address",
          "name": "newRegistry",
          "type": "address"
        }
      ],
      "name": "WLCollectionRegistrySet",
      "type": "event"
    },
    {
      "anonymous": false,
      "inputs": [
        {
          "indexed": false,
          "internalType": "uint256",
          "name": "oldPrice",
          "type": "uint256"
        },
        {
          "indexed": false,
          "internalType": "uint256",
          "name": "newPrice",
          "type": "uint256"
        }
      ],
      "name": "WLPriceSet",
      "type": "event"
    },
    {
      "anonymous": false,
      "inputs": [
        {
          "indexed": true,
          "internalType": "address",
          "name": "oldToken",
          "type": "address"
        },
        {
          "indexed": true,
          "internalType": "address",
          "name": "newToken",
          "type": "address"
        }
      ],
      "name": "WLTokenSet",
      "type": "event"
    },
    {
      "inputs": [],
      "name": "DEFAULT_ADMIN_ROLE",
      "outputs": [
        {
          "internalType": "bytes32",
          "name": "",
          "type": "bytes32"
        }
      ],
      "stateMutability": "view",
      "type": "function"
    },
    {
      "inputs": [],
      "name": "WL_ADMIN_ROLE",
      "outputs": [
        {
          "internalType": "bytes32",
          "name": "",
          "type": "bytes32"
        }
      ],
      "stateMutability": "view",
      "type": "function"
    },
    {
      "inputs": [
        {
          "internalType": "address",
          "name": "collection",
          "type": "address"
        },
        {
          "internalType": "uint256",
          "name": "chainId",
          "type": "uint256"
        }
      ],
      "name": "addToWL",
      "outputs": [],
      "stateMutability": "payable",
      "type": "function"
    },
    {
      "inputs": [
        {
          "internalType": "bytes32",
          "name": "role",
          "type": "bytes32"
        }
      ],
      "name": "getRoleAdmin",
      "outputs": [
        {
          "internalType": "bytes32",
          "name": "",
          "type": "bytes32"
        }
      ],
      "stateMutability": "view",
      "type": "function"
    },
    {
      "inputs": [
        {
          "internalType": "bytes32",
          "name": "role",
          "type": "bytes32"
        },
        {
          "internalType": "address",
          "name": "account",
          "type": "address"
        }
      ],
      "name": "grantRole",
      "outputs": [],
      "stateMutability": "nonpayable",
      "type": "function"
    },
    {
      "inputs": [
        {
          "internalType": "bytes32",
          "name": "role",
          "type": "bytes32"
        },
        {
          "internalType": "address",
          "name": "account",
          "type": "address"
        }
      ],
      "name": "hasRole",
      "outputs": [
        {
          "internalType": "bool",
          "name": "",
          "type": "bool"
        }
      ],
      "stateMutability": "view",
      "type": "function"
    },
    {
      "inputs": [
        {
          "internalType": "address",
          "name": "_initialOwner",
          "type": "address"
        },
        {
          "internalType": "address",
          "name": "_initialTreasury",
          "type": "address"
        }
      ],
      "name": "initialize",
      "outputs": [],
      "stateMutability": "nonpayable",
      "type": "function"
    },
    {
      "inputs": [],
      "name": "nativeWlPrice",
      "outputs": [
        {
          "internalType": "uint256",
          "name": "",
          "type": "uint256"
        }
      ],
      "stateMutability": "view",
      "type": "function"
    },
    {
      "inputs": [],
      "name": "owner",
      "outputs": [
        {
          "internalType": "address",
          "name": "",
          "type": "address"
        }
      ],
      "stateMutability": "view",
      "type": "function"
    },
    {
      "inputs": [],
      "name": "payWithNative",
      "outputs": [
        {
          "internalType": "bool",
          "name": "",
          "type": "bool"
        }
      ],
      "stateMutability": "view",
      "type": "function"
    },
    {
      "inputs": [],
      "name": "proxiableUUID",
      "outputs": [
        {
          "internalType": "bytes32",
          "name": "",
          "type": "bytes32"
        }
      ],
      "stateMutability": "view",
      "type": "function"
    },
    {
      "inputs": [
        {
          "internalType": "address",
          "name": "collection",
          "type": "address"
        },
        {
          "internalType": "uint256",
          "name": "chainId",
          "type": "uint256"
        }
      ],
      "name": "removeFromWL",
      "outputs": [],
      "stateMutability": "nonpayable",
      "type": "function"
    },
    {
      "inputs": [],
      "name": "renounceOwnership",
      "outputs": [],
      "stateMutability": "nonpayable",
      "type": "function"
    },
    {
      "inputs": [
        {
          "internalType": "bytes32",
          "name": "role",
          "type": "bytes32"
        },
        {
          "internalType": "address",
          "name": "account",
          "type": "address"
        }
      ],
      "name": "renounceRole",
      "outputs": [],
      "stateMutability": "nonpayable",
      "type": "function"
    },
    {
      "inputs": [
        {
          "internalType": "bytes32",
          "name": "role",
          "type": "bytes32"
        },
        {
          "internalType": "address",
          "name": "account",
          "type": "address"
        }
      ],
      "name": "revokeRole",
      "outputs": [],
      "stateMutability": "nonpayable",
      "type": "function"
    },
    {
      "inputs": [
        {
          "internalType": "uint256",
          "name": "_price",
          "type": "uint256"
        }
      ],
      "name": "setNativeWLPrice",
      "outputs": [],
      "stateMutability": "nonpayable",
      "type": "function"
    },
    {
      "inputs": [
        {
          "internalType": "bool",
          "name": "_payWithNative",
          "type": "bool"
        }
      ],
      "name": "setPayWithNative",
      "outputs": [],
      "stateMutability": "nonpayable",
      "type": "function"
    },
    {
      "inputs": [
        {
          "internalType": "address",
          "name": "_treasury",
          "type": "address"
        }
      ],
      "name": "setTreasuryAddress",
      "outputs": [],
      "stateMutability": "nonpayable",
      "type": "function"
    },
    {
      "inputs": [
        {
          "internalType": "address",
          "name": "_wlCollectionRegistry",
          "type": "address"
        }
      ],
      "name": "setWLCollectionRegistry",
      "outputs": [],
      "stateMutability": "nonpayable",
      "type": "function"
    },
    {
      "inputs": [
        {
          "internalType": "uint256",
          "name": "_price",
          "type": "uint256"
        }
      ],
      "name": "setWLPrice",
      "outputs": [],
      "stateMutability": "nonpayable",
      "type": "function"
    },
    {
      "inputs": [
        {
          "internalType": "address",
          "name": "_wlToken",
          "type": "address"
        }
      ],
      "name": "setWLToken",
      "outputs": [],
      "stateMutability": "nonpayable",
      "type": "function"
    },
    {
      "inputs": [
        {
          "internalType": "bytes4",
          "name": "interfaceId",
          "type": "bytes4"
        }
      ],
      "name": "supportsInterface",
      "outputs": [
        {
          "internalType": "bool",
          "name": "",
          "type": "bool"
        }
      ],
      "stateMutability": "view",
      "type": "function"
    },
    {
      "inputs": [
        {
          "internalType": "address",
          "name": "newOwner",
          "type": "address"
        }
      ],
      "name": "transferOwnership",
      "outputs": [],
      "stateMutability": "nonpayable",
      "type": "function"
    },
    {
      "inputs": [],
      "name": "treasury",
      "outputs": [
        {
          "internalType": "address",
          "name": "",
          "type": "address"
        }
      ],
      "stateMutability": "view",
      "type": "function"
    },
    {
      "inputs": [
        {
          "internalType": "address",
          "name": "newImplementation",
          "type": "address"
        }
      ],
      "name": "upgradeTo",
      "outputs": [],
      "stateMutability": "nonpayable",
      "type": "function"
    },
    {
      "inputs": [
        {
          "internalType": "address",
          "name": "newImplementation",
          "type": "address"
        },
        {
          "internalType": "bytes",
          "name": "data",
          "type": "bytes"
        }
      ],
      "name": "upgradeToAndCall",
      "outputs": [],
      "stateMutability": "payable",
      "type": "function"
    },
    {
      "inputs": [],
      "name": "wlCollectionRegistry",
      "outputs": [
        {
          "internalType": "contract IWLCollectionRegistry",
          "name": "",
          "type": "address"
        }
      ],
      "stateMutability": "view",
      "type": "function"
    },
    {
      "inputs": [],
      "name": "wlPrice",
      "outputs": [
        {
          "internalType": "uint256",
          "name": "",
          "type": "uint256"
        }
      ],
      "stateMutability": "view",
      "type": "function"
    },
    {
      "inputs": [],
      "name": "wlToken",
      "outputs": [
        {
          "internalType": "contract IERC20",
          "name": "",
          "type": "address"
        }
      ],
      "stateMutability": "view",
      "type": "function"
    }
  ],
  "transactionHash": "0xb295ca9dff591fd02f4464258e014701f1c9b0321356d5fa03fe24cea0cf011a",
  "args": [],
  "numDeployments": 1,
  "solcInputHash": "b2004855e7da041ed155c1d3a5e57d0a",
  "bytecode": "0x60a06040523060805234801561001457600080fd5b5061001d610022565b6100e1565b600054610100900460ff161561008e5760405162461bcd60e51b815260206004820152602760248201527f496e697469616c697a61626c653a20636f6e747261637420697320696e697469604482015266616c697a696e6760c81b606482015260840160405180910390fd5b60005460ff908116146100df576000805460ff191660ff9081179091556040519081527f7f26b83ff96e1f2b6a682f133852f6798a09c465da95921460cefb38474024989060200160405180910390a15b565b60805161231362000119600039600081816105dd0152818161061d015281816108c701528181610907015261097f01526123136000f3fe6080604052600436106101525760003560e01c806301ffc9a7146101575780631560ad281461018c578063248a9ca3146101bc5780632f2ff15d146101dc57806336568abe146101fe5780633659cfe61461021e57806338b28e1d1461023e578063485cc955146102605780634f1ef2861461028057806352d1902d1461029357806360548592146102a857806361d027b3146102bb5780636605bfda146102f45780636b38add314610314578063715018a6146103345780638da5cb5b1461034957806391d148541461035e578063a0143aa41461037e578063a217fddf1461039e578063a2c78ba7146103b3578063c7f8d01a146103d4578063cfafb904146103eb578063d547741f14610402578063db9c3c8b14610422578063e124f97a14610442578063e77d7bf514610463578063f2fde38b14610483578063f6a5b8e6146104a3578063ffa237cb146104c3575b600080fd5b34801561016357600080fd5b50610177610172366004611d7b565b6104e3565b60405190151581526020015b60405180910390f35b34801561019857600080fd5b506101ae60008051602061229783398151915281565b604051908152602001610183565b3480156101c857600080fd5b506101ae6101d7366004611da5565b61051a565b3480156101e857600080fd5b506101fc6101f7366004611dd3565b61052f565b005b34801561020a57600080fd5b506101fc610219366004611dd3565b610550565b34801561022a57600080fd5b506101fc610239366004611e03565b6105d3565b34801561024a57600080fd5b506101635461017790600160a01b900460ff1681565b34801561026c57600080fd5b506101fc61027b366004611e20565b61069b565b6101fc61028e366004611e64565b6108bd565b34801561029f57600080fd5b506101ae610972565b6101fc6102b6366004611f27565b610a20565b3480156102c757600080fd5b50610163546102dc906001600160a01b031681565b6040516001600160a01b039091168152602001610183565b34801561030057600080fd5b506101fc61030f366004611e03565b610d84565b34801561032057600080fd5b506101fc61032f366004611f27565b610e34565b34801561034057600080fd5b506101fc610f5a565b34801561035557600080fd5b506102dc610f6e565b34801561036a57600080fd5b50610177610379366004611dd3565b610f7d565b34801561038a57600080fd5b506101fc610399366004611e03565b610fa8565b3480156103aa57600080fd5b506101ae600081565b3480156103bf57600080fd5b5061015f546102dc906001600160a01b031681565b3480156103e057600080fd5b506101ae6101615481565b3480156103f757600080fd5b506101ae6101625481565b34801561040e57600080fd5b506101fc61041d366004611dd3565b611007565b34801561042e57600080fd5b506101fc61043d366004611da5565b611023565b34801561044e57600080fd5b50610160546102dc906001600160a01b031681565b34801561046f57600080fd5b506101fc61047e366004611f61565b61108d565b34801561048f57600080fd5b506101fc61049e366004611e03565b6110f5565b3480156104af57600080fd5b506101fc6104be366004611da5565b61116b565b3480156104cf57600080fd5b506101fc6104de366004611e03565b6111d5565b60006001600160e01b03198216637965db0b60e01b148061051457506301ffc9a760e01b6001600160e01b03198316145b92915050565b600090815260fb602052604090206001015490565b6105388261051a565b61054181611282565b61054b838361128c565b505050565b6001600160a01b03811633146105c55760405162461bcd60e51b815260206004820152602f60248201527f416363657373436f6e74726f6c3a2063616e206f6e6c792072656e6f756e636560448201526e103937b632b9903337b91039b2b63360891b60648201526084015b60405180910390fd5b6105cf8282611312565b5050565b6001600160a01b037f000000000000000000000000000000000000000000000000000000000000000016300361061b5760405162461bcd60e51b81526004016105bc90611f7e565b7f00000000000000000000000000000000000000000000000000000000000000006001600160a01b031661064d611379565b6001600160a01b0316146106735760405162461bcd60e51b81526004016105bc90611fca565b61067c81611395565b604080516000808252602082019092526106989183919061139d565b50565b600054610100900460ff16158080156106bb5750600054600160ff909116105b806106dc57506106ca30611508565b1580156106dc575060005460ff166001145b61073f5760405162461bcd60e51b815260206004820152602e60248201527f496e697469616c697a61626c653a20636f6e747261637420697320616c72656160448201526d191e481a5b9a5d1a585b1a5e995960921b60648201526084016105bc565b6000805460ff191660011790558015610762576000805461ff0019166101001790555b6001600160a01b0383166107a85760405162461bcd60e51b815260206004820152600d60248201526c24b73b30b634b21037bbb732b960991b60448201526064016105bc565b6001600160a01b0382166107f15760405162461bcd60e51b815260206004820152601060248201526f496e76616c696420747265617375727960801b60448201526064016105bc565b6107f9611517565b610801611546565b61080961156d565b610811611546565b61081c60008461159c565b6108346000805160206122978339815191528461159c565b61083d836110f5565b6101638054670de0b6b3a7640000610161819055610162556001600160a81b0319166001600160a01b03841617600160a01b179055801561054b576000805461ff0019169055604051600181527f7f26b83ff96e1f2b6a682f133852f6798a09c465da95921460cefb3847402498906020015b60405180910390a1505050565b6001600160a01b037f00000000000000000000000000000000000000000000000000000000000000001630036109055760405162461bcd60e51b81526004016105bc90611f7e565b7f00000000000000000000000000000000000000000000000000000000000000006001600160a01b0316610937611379565b6001600160a01b03161461095d5760405162461bcd60e51b81526004016105bc90611fca565b61096682611395565b6105cf8282600161139d565b6000306001600160a01b037f00000000000000000000000000000000000000000000000000000000000000001614610a0d5760405162461bcd60e51b815260206004820152603860248201527f555550535570677261646561626c653a206d757374206e6f742062652063616c6044820152771b1959081d1a1c9bdd59da0819195b1959d85d1958d85b1b60421b60648201526084016105bc565b5060008051602061227783398151915290565b610a286115a6565b6001600160a01b038216610a7b5760405162461bcd60e51b815260206004820152601a602482015279496e76616c696420636f6c6c656374696f6e206164647265737360301b60448201526064016105bc565b610160546001600160a01b0316151580610aa4575061016354600160a01b900460ff1615156001145b610b055760405162461bcd60e51b815260206004820152602c60248201527f574c20746f6b656e206e6f7420736574206f72207061792077697468206e617460448201526b6976652069732066616c736560a01b60648201526084016105bc565b610163546001600160a01b0316610b515760405162461bcd60e51b815260206004820152601060248201526f151c99585cdd5c9e481b9bdd081cd95d60821b60448201526064016105bc565b80600003610b935760405162461bcd60e51b815260206004820152600f60248201526e125b9d985b1a590818da185a5b9259608a1b60448201526064016105bc565b61016354600090600160a01b900460ff1615610c9a57610162543414610bfb5760405162461bcd60e51b815260206004820152601d60248201527f496e636f7272656374206e617469766520746f6b656e20616d6f756e7400000060448201526064016105bc565b610163546040516000916001600160a01b03169034908381818185875af1925050503d8060008114610c49576040519150601f19603f3d011682016040523d82523d6000602084013e610c4e565b606091505b5050905080610c915760405162461bcd60e51b815260206004820152600f60248201526e151c985b9cd9995c8819985a5b1959608a1b60448201526064016105bc565b34915050610d11565b3415610ce45760405162461bcd60e51b8152602060048201526019602482015278446f206e6f742073656e64206e617469766520746f6b656e7360381b60448201526064016105bc565b610163546101615461016054610d0b926001600160a01b0391821692339290911690611601565b50610161545b61015f5460405163338a0ea160e21b81526001600160a01b039091169063ce283a8490610d4690869033908790600401612016565b600060405180830381600087803b158015610d6057600080fd5b505af1158015610d74573d6000803e3d6000fd5b50505050506105cf600161012d55565b6000610d8f81611282565b6001600160a01b038216610de05760405162461bcd60e51b8152602060048201526018602482015277496e76616c6964207472656173757279206164647265737360401b60448201526064016105bc565b61016380546001600160a01b038481166001600160a01b0319831681179093556040519116919082907f21eb548722a564f6e09f039f7aa858ae94c911910f3823b37af2250eeca4f40390600090a3505050565b610e3c6115a6565b61015f5460405163c912414f60e01b81526000916001600160a01b03169063c912414f90610e70908690869060040161203a565b602060405180830381865afa158015610e8d573d6000803e3d6000fd5b505050506040513d601f19601f82011682018060405250810190610eb19190612053565b9050610ecb60008051602061229783398151915233610f7d565b80610ede57506001600160a01b03811633145b610f275760405162461bcd60e51b815260206004820152601a60248201527910dbdb1b1958dd1a5bdb881b9bdd081dda1a5d195b1a5cdd195960321b60448201526064016105bc565b61015f54604051636b38add360e01b81526001600160a01b0390911690636b38add390610d46908690869060040161203a565b610f62611667565b610f6c60006116c6565b565b6097546001600160a01b031690565b600091825260fb602090815260408084206001600160a01b0393909316845291905290205460ff1690565b6000610fb381611282565b61015f80546001600160a01b038481166001600160a01b0319831681179093556040519116919082907f59aaeb276dbe063a56c0930e4754d21ace4417cc15be6fd7697382bbc521980190600090a3505050565b6110108261051a565b61101981611282565b61054b8383611312565b600061102e81611282565b6000821161104e5760405162461bcd60e51b81526004016105bc90612070565b61016280549083905560408051828152602081018590527f3497a8394ee922e00d8e96906346c8f965499b9c9b6b415a6790f27f2d97302c91016108b0565b600061109881611282565b610163805460ff60a01b1916600160a01b8415158102919091179182905560405160ff9190920416151581527f7b718b0608d5dc7cf0e1c8fd640acf00805c9ffcd62392228e32b2958844df089060200160405180910390a15050565b6110fd611667565b6001600160a01b0381166111625760405162461bcd60e51b815260206004820152602660248201527f4f776e61626c653a206e6577206f776e657220697320746865207a65726f206160448201526564647265737360d01b60648201526084016105bc565b610698816116c6565b600061117681611282565b600082116111965760405162461bcd60e51b81526004016105bc90612070565b61016180549083905560408051828152602081018590527f63af036375ff9c560a1b987e40b5862268f62427961c3b74626605690b0c15ff91016108b0565b60006111e081611282565b6001600160a01b03821661122e5760405162461bcd60e51b8152602060048201526015602482015274496e76616c696420746f6b656e206164647265737360581b60448201526064016105bc565b61016080546001600160a01b038481166001600160a01b0319831681179093556040519116919082907f468a1beedf8641f81b81a11f4664a92ce3a2227092abd659679bb99ae395d2b790600090a3505050565b6106988133611718565b6112968282610f7d565b6105cf57600082815260fb602090815260408083206001600160a01b03851684529091529020805460ff191660011790556112ce3390565b6001600160a01b0316816001600160a01b0316837f2f8788117e7eff1d82e926ec794901d17c78024a50270940304540a733656f0d60405160405180910390a45050565b61131c8282610f7d565b156105cf57600082815260fb602090815260408083206001600160a01b0385168085529252808320805460ff1916905551339285917ff6391f5c32d9c69d2a47ea670b442974b53935d1edc7fd64eb21e047a839171b9190a45050565b600080516020612277833981519152546001600160a01b031690565b610698611667565b7f4910fdfa16fed3260ed0e7147f7cc6da11a60208b5b9406d12a635614ffd91435460ff16156113d05761054b83611771565b826001600160a01b03166352d1902d6040518163ffffffff1660e01b8152600401602060405180830381865afa92505050801561142a575060408051601f3d908101601f19168201909252611427918101906120a6565b60015b61148d5760405162461bcd60e51b815260206004820152602e60248201527f45524331393637557067726164653a206e657720696d706c656d656e7461746960448201526d6f6e206973206e6f74205555505360901b60648201526084016105bc565b60008051602061227783398151915281146114fc5760405162461bcd60e51b815260206004820152602960248201527f45524331393637557067726164653a20756e737570706f727465642070726f786044820152681a58589b195555525160ba1b60648201526084016105bc565b5061054b83838361180b565b6001600160a01b03163b151590565b600054610100900460ff1661153e5760405162461bcd60e51b81526004016105bc906120bf565b610f6c611830565b600054610100900460ff16610f6c5760405162461bcd60e51b81526004016105bc906120bf565b600054610100900460ff166115945760405162461bcd60e51b81526004016105bc906120bf565b610f6c611860565b6105cf828261128c565b600261012d54036115f95760405162461bcd60e51b815260206004820152601f60248201527f5265656e7472616e637947756172643a207265656e7472616e742063616c6c0060448201526064016105bc565b600261012d55565b611659846323b872dd60e01b85858560405160240161162293929190612016565b60408051601f198184030181529190526020810180516001600160e01b03166001600160e01b031990931692909217909152611887565b50505050565b600161012d55565b33611670610f6e565b6001600160a01b031614610f6c5760405162461bcd60e51b815260206004820181905260248201527f4f776e61626c653a2063616c6c6572206973206e6f7420746865206f776e657260448201526064016105bc565b609780546001600160a01b038381166001600160a01b0319831681179093556040519116919082907f8be0079c531659141344cd1fd0a4f28419497f9722a3daafe3b4186f6b6457e090600090a35050565b6117228282610f7d565b6105cf5761172f8161195c565b61173a83602061196e565b60405160200161174b92919061212e565b60408051601f198184030181529082905262461bcd60e51b82526105bc9160040161219d565b61177a81611508565b6117dc5760405162461bcd60e51b815260206004820152602d60248201527f455243313936373a206e657720696d706c656d656e746174696f6e206973206e60448201526c1bdd08184818dbdb9d1c9858dd609a1b60648201526084016105bc565b60008051602061227783398151915280546001600160a01b0319166001600160a01b0392909216919091179055565b61181483611b10565b6000825111806118215750805b1561054b576116598383611b50565b600054610100900460ff166118575760405162461bcd60e51b81526004016105bc906120bf565b610f6c336116c6565b600054610100900460ff1661165f5760405162461bcd60e51b81526004016105bc906120bf565b60006118dc826040518060400160405280602081526020017f5361666545524332303a206c6f772d6c6576656c2063616c6c206661696c6564815250856001600160a01b0316611b759092919063ffffffff16565b90508051600014806118fd5750808060200190518101906118fd91906121d0565b61054b5760405162461bcd60e51b815260206004820152602a60248201527f5361666545524332303a204552433230206f7065726174696f6e20646964206e6044820152691bdd081cdd58d8d9595960b21b60648201526084016105bc565b60606105146001600160a01b03831660145b6060600061197d836002612203565b61198890600261221a565b6001600160401b0381111561199f5761199f611e4e565b6040519080825280601f01601f1916602001820160405280156119c9576020820181803683370190505b509050600360fc1b816000815181106119e4576119e461222d565b60200101906001600160f81b031916908160001a905350600f60fb1b81600181518110611a1357611a1361222d565b60200101906001600160f81b031916908160001a9053506000611a37846002612203565b611a4290600161221a565b90505b6001811115611aba576f181899199a1a9b1b9c1cb0b131b232b360811b85600f1660108110611a7657611a7661222d565b1a60f81b828281518110611a8c57611a8c61222d565b60200101906001600160f81b031916908160001a90535060049490941c93611ab381612243565b9050611a45565b508315611b095760405162461bcd60e51b815260206004820181905260248201527f537472696e67733a20686578206c656e67746820696e73756666696369656e7460448201526064016105bc565b9392505050565b611b1981611771565b6040516001600160a01b038216907fbc7cd75a20ee27fd9adebab32041f755214dbc6bffa90cc0225b39da2e5c2d3b90600090a250565b6060611b0983836040518060600160405280602781526020016122b760279139611b8c565b6060611b848484600085611c04565b949350505050565b6060600080856001600160a01b031685604051611ba9919061225a565b600060405180830381855af49150503d8060008114611be4576040519150601f19603f3d011682016040523d82523d6000602084013e611be9565b606091505b5091509150611bfa86838387611cdf565b9695505050505050565b606082471015611c655760405162461bcd60e51b815260206004820152602660248201527f416464726573733a20696e73756666696369656e742062616c616e636520666f6044820152651c8818d85b1b60d21b60648201526084016105bc565b600080866001600160a01b03168587604051611c81919061225a565b60006040518083038185875af1925050503d8060008114611cbe576040519150601f19603f3d011682016040523d82523d6000602084013e611cc3565b606091505b5091509150611cd487838387611cdf565b979650505050505050565b60608315611d4c578251600003611d4557611cf985611508565b611d455760405162461bcd60e51b815260206004820152601d60248201527f416464726573733a2063616c6c20746f206e6f6e2d636f6e747261637400000060448201526064016105bc565b5081611b84565b611b848383815115611d615781518083602001fd5b8060405162461bcd60e51b81526004016105bc919061219d565b600060208284031215611d8d57600080fd5b81356001600160e01b031981168114611b0957600080fd5b600060208284031215611db757600080fd5b5035919050565b6001600160a01b038116811461069857600080fd5b60008060408385031215611de657600080fd5b823591506020830135611df881611dbe565b809150509250929050565b600060208284031215611e1557600080fd5b8135611b0981611dbe565b60008060408385031215611e3357600080fd5b8235611e3e81611dbe565b91506020830135611df881611dbe565b634e487b7160e01b600052604160045260246000fd5b60008060408385031215611e7757600080fd5b8235611e8281611dbe565b915060208301356001600160401b0380821115611e9e57600080fd5b818501915085601f830112611eb257600080fd5b813581811115611ec457611ec4611e4e565b604051601f8201601f19908116603f01168101908382118183101715611eec57611eec611e4e565b81604052828152886020848701011115611f0557600080fd5b8260208601602083013760006020848301015280955050505050509250929050565b60008060408385031215611f3a57600080fd5b8235611f4581611dbe565b946020939093013593505050565b801515811461069857600080fd5b600060208284031215611f7357600080fd5b8135611b0981611f53565b6020808252602c908201527f46756e6374696f6e206d7573742062652063616c6c6564207468726f7567682060408201526b19195b1959d85d1958d85b1b60a21b606082015260800190565b6020808252602c908201527f46756e6374696f6e206d7573742062652063616c6c6564207468726f7567682060408201526b6163746976652070726f787960a01b606082015260800190565b6001600160a01b039384168152919092166020820152604081019190915260600190565b6001600160a01b03929092168252602082015260400190565b60006020828403121561206557600080fd5b8151611b0981611dbe565b6020808252601c908201527b05072696365206d7573742062652067726561746572207468616e20360241b604082015260600190565b6000602082840312156120b857600080fd5b5051919050565b6020808252602b908201527f496e697469616c697a61626c653a20636f6e7472616374206973206e6f74206960408201526a6e697469616c697a696e6760a81b606082015260800190565b60005b8381101561212557818101518382015260200161210d565b50506000910152565b76020b1b1b2b9b9a1b7b73a3937b61d1030b1b1b7bab73a1604d1b81526000835161216081601785016020880161210a565b7001034b99036b4b9b9b4b733903937b6329607d1b601791840191820152835161219181602884016020880161210a565b01602801949350505050565b60208152600082518060208401526121bc81604085016020870161210a565b601f01601f19169190910160400192915050565b6000602082840312156121e257600080fd5b8151611b0981611f53565b634e487b7160e01b600052601160045260246000fd5b8082028115828204841417610514576105146121ed565b80820180821115610514576105146121ed565b634e487b7160e01b600052603260045260246000fd5b600081612252576122526121ed565b506000190190565b6000825161226c81846020870161210a565b919091019291505056fe360894a13ba1a3210667c828492db98dca3e2076cc3735a920a3ca505d382bbc890890e02be6a0b8e1b70730bcef8a1c3cf7e7736f24f1faf9db9c6c31b69317416464726573733a206c6f772d6c6576656c2064656c65676174652063616c6c206661696c6564a26469706673582212207b051e55851a083704a54716d5326d1ef7687b67442193612fcde95a8d3a2bc364736f6c63430008170033",
  "devdoc": {
    "events": {
      "AdminChanged(address,address)": {
        "details": "Emitted when the admin account has changed."
      },
      "BeaconUpgraded(address)": {
        "details": "Emitted when the beacon is changed."
      },
      "Initialized(uint8)": {
        "details": "Triggered when the contract has been initialized or reinitialized."
      },
      "RoleAdminChanged(bytes32,bytes32,bytes32)": {
        "details": "Emitted when `newAdminRole` is set as ``role``'s admin role, replacing `previousAdminRole` `DEFAULT_ADMIN_ROLE` is the starting admin for all roles, despite {RoleAdminChanged} not being emitted signaling this. _Available since v3.1._"
      },
      "RoleGranted(bytes32,address,address)": {
        "details": "Emitted when `account` is granted `role`. `sender` is the account that originated the contract call, an admin role bearer except when using {AccessControl-_setupRole}."
      },
      "RoleRevoked(bytes32,address,address)": {
        "details": "Emitted when `account` is revoked `role`. `sender` is the account that originated the contract call:   - if using `revokeRole`, it is the admin role bearer   - if using `renounceRole`, it is the role bearer (i.e. `account`)"
      },
      "Upgraded(address)": {
        "details": "Emitted when the implementation is upgraded."
      }
    },
    "kind": "dev",
    "methods": {
      "addToWL(address,uint256)": {
        "params": {
          "chainId": "The chainId associated with the collection.",
          "collection": "The collection address."
        }
      },
      "constructor": {
        "custom:oz-upgrades-unsafe-allow": "constructor"
      },
      "getRoleAdmin(bytes32)": {
        "details": "Returns the admin role that controls `role`. See {grantRole} and {revokeRole}. To change a role's admin, use {_setRoleAdmin}."
      },
      "grantRole(bytes32,address)": {
        "details": "Grants `role` to `account`. If `account` had not been already granted `role`, emits a {RoleGranted} event. Requirements: - the caller must have ``role``'s admin role. May emit a {RoleGranted} event."
      },
      "hasRole(bytes32,address)": {
        "details": "Returns `true` if `account` has been granted `role`."
      },
      "owner()": {
        "details": "Returns the address of the current owner."
      },
      "proxiableUUID()": {
        "details": "Implementation of the ERC1822 {proxiableUUID} function. This returns the storage slot used by the implementation. It is used to validate the implementation's compatibility when performing an upgrade. IMPORTANT: A proxy pointing at a proxiable contract should not be considered proxiable itself, because this risks bricking a proxy that upgrades to it, by delegating to itself until out of gas. Thus it is critical that this function revert if invoked through a proxy. This is guaranteed by the `notDelegated` modifier."
      },
      "renounceOwnership()": {
        "details": "Leaves the contract without owner. It will not be possible to call `onlyOwner` functions. Can only be called by the current owner. NOTE: Renouncing ownership will leave the contract without an owner, thereby disabling any functionality that is only available to the owner."
      },
      "renounceRole(bytes32,address)": {
        "details": "Revokes `role` from the calling account. Roles are often managed via {grantRole} and {revokeRole}: this function's purpose is to provide a mechanism for accounts to lose their privileges if they are compromised (such as when a trusted device is misplaced). If the calling account had been revoked `role`, emits a {RoleRevoked} event. Requirements: - the caller must be `account`. May emit a {RoleRevoked} event."
      },
      "revokeRole(bytes32,address)": {
        "details": "Revokes `role` from `account`. If `account` had been granted `role`, emits a {RoleRevoked} event. Requirements: - the caller must have ``role``'s admin role. May emit a {RoleRevoked} event."
      },
      "supportsInterface(bytes4)": {
        "details": "See {IERC165-supportsInterface}."
      },
      "transferOwnership(address)": {
        "details": "Transfers ownership of the contract to a new account (`newOwner`). Can only be called by the current owner."
      },
      "upgradeTo(address)": {
        "custom:oz-upgrades-unsafe-allow-reachable": "delegatecall",
        "details": "Upgrade the implementation of the proxy to `newImplementation`. Calls {_authorizeUpgrade}. Emits an {Upgraded} event."
      },
      "upgradeToAndCall(address,bytes)": {
        "custom:oz-upgrades-unsafe-allow-reachable": "delegatecall",
        "details": "Upgrade the implementation of the proxy to `newImplementation`, and subsequently execute the function call encoded in `data`. Calls {_authorizeUpgrade}. Emits an {Upgraded} event."
      }
    },
    "version": 1
  },
  "userdoc": {
    "kind": "user",
    "methods": {
      "addToWL(address,uint256)": {
        "notice": "Adds a collection to the whitelist."
      },
      "removeFromWL(address,uint256)": {
        "notice": "Removes a collection from the whitelist. Only the collection creator can call this."
      }
    },
    "version": 1
  },
  "storageLayout": {
    "storage": [
      {
        "astId": 934,
        "contract": "src/WLCollectionListing.sol:WLCollectionListing",
        "label": "_initialized",
        "offset": 0,
        "slot": "0",
        "type": "t_uint8"
      },
      {
        "astId": 937,
        "contract": "src/WLCollectionListing.sol:WLCollectionListing",
        "label": "_initializing",
        "offset": 1,
        "slot": "0",
        "type": "t_bool"
      },
      {
        "astId": 916,
        "contract": "src/WLCollectionListing.sol:WLCollectionListing",
        "label": "__gap",
        "offset": 0,
        "slot": "1",
        "type": "t_array(t_uint256)50_storage"
      },
      {
        "astId": 1232,
        "contract": "src/WLCollectionListing.sol:WLCollectionListing",
        "label": "__gap",
        "offset": 0,
        "slot": "51",
        "type": "t_array(t_uint256)50_storage"
      },
      {
        "astId": 3283,
        "contract": "src/WLCollectionListing.sol:WLCollectionListing",
        "label": "__gap",
        "offset": 0,
        "slot": "101",
        "type": "t_array(t_uint256)50_storage"
      },
      {
        "astId": 421,
        "contract": "src/WLCollectionListing.sol:WLCollectionListing",
        "label": "_owner",
        "offset": 0,
        "slot": "151",
        "type": "t_address"
      },
      {
        "astId": 541,
        "contract": "src/WLCollectionListing.sol:WLCollectionListing",
        "label": "__gap",
        "offset": 0,
        "slot": "152",
        "type": "t_array(t_uint256)49_storage"
      },
      {
        "astId": 3667,
        "contract": "src/WLCollectionListing.sol:WLCollectionListing",
        "label": "__gap",
        "offset": 0,
        "slot": "201",
        "type": "t_array(t_uint256)50_storage"
      },
      {
        "astId": 28,
        "contract": "src/WLCollectionListing.sol:WLCollectionListing",
        "label": "_roles",
        "offset": 0,
        "slot": "251",
        "type": "t_mapping(t_bytes32,t_struct(RoleData)23_storage)"
      },
      {
        "astId": 335,
        "contract": "src/WLCollectionListing.sol:WLCollectionListing",
        "label": "__gap",
        "offset": 0,
        "slot": "252",
        "type": "t_array(t_uint256)49_storage"
      },
      {
        "astId": 1248,
        "contract": "src/WLCollectionListing.sol:WLCollectionListing",
        "label": "_status",
        "offset": 0,
        "slot": "301",
        "type": "t_uint256"
      },
      {
        "astId": 1317,
        "contract": "src/WLCollectionListing.sol:WLCollectionListing",
        "label": "__gap",
        "offset": 0,
        "slot": "302",
        "type": "t_array(t_uint256)49_storage"
      },
      {
        "astId": 20974,
        "contract": "src/WLCollectionListing.sol:WLCollectionListing",
        "label": "wlCollectionRegistry",
        "offset": 0,
        "slot": "351",
        "type": "t_contract(IWLCollectionRegistry)20633"
      },
      {
        "astId": 20977,
        "contract": "src/WLCollectionListing.sol:WLCollectionListing",
        "label": "wlToken",
        "offset": 0,
        "slot": "352",
        "type": "t_contract(IERC20)5429"
      },
      {
        "astId": 20979,
        "contract": "src/WLCollectionListing.sol:WLCollectionListing",
        "label": "wlPrice",
        "offset": 0,
        "slot": "353",
        "type": "t_uint256"
      },
      {
        "astId": 20981,
        "contract": "src/WLCollectionListing.sol:WLCollectionListing",
        "label": "nativeWlPrice",
        "offset": 0,
        "slot": "354",
        "type": "t_uint256"
      },
      {
        "astId": 20983,
        "contract": "src/WLCollectionListing.sol:WLCollectionListing",
        "label": "treasury",
        "offset": 0,
        "slot": "355",
        "type": "t_address"
      },
      {
        "astId": 20985,
        "contract": "src/WLCollectionListing.sol:WLCollectionListing",
        "label": "payWithNative",
        "offset": 20,
        "slot": "355",
        "type": "t_bool"
      }
    ],
    "types": {
      "t_address": {
        "encoding": "inplace",
        "label": "address",
        "numberOfBytes": "20"
      },
      "t_array(t_uint256)49_storage": {
        "base": "t_uint256",
        "encoding": "inplace",
        "label": "uint256[49]",
        "numberOfBytes": "1568"
      },
      "t_array(t_uint256)50_storage": {
        "base": "t_uint256",
        "encoding": "inplace",
        "label": "uint256[50]",
        "numberOfBytes": "1600"
      },
      "t_bool": {
        "encoding": "inplace",
        "label": "bool",
        "numberOfBytes": "1"
      },
      "t_bytes32": {
        "encoding": "inplace",
        "label": "bytes32",
        "numberOfBytes": "32"
      },
      "t_contract(IERC20)5429": {
        "encoding": "inplace",
        "label": "contract IERC20",
        "numberOfBytes": "20"
      },
      "t_contract(IWLCollectionRegistry)20633": {
        "encoding": "inplace",
        "label": "contract IWLCollectionRegistry",
        "numberOfBytes": "20"
      },
      "t_mapping(t_address,t_bool)": {
        "encoding": "mapping",
        "key": "t_address",
        "label": "mapping(address => bool)",
        "numberOfBytes": "32",
        "value": "t_bool"
      },
      "t_mapping(t_bytes32,t_struct(RoleData)23_storage)": {
        "encoding": "mapping",
        "key": "t_bytes32",
        "label": "mapping(bytes32 => struct AccessControlUpgradeable.RoleData)",
        "numberOfBytes": "32",
        "value": "t_struct(RoleData)23_storage"
      },
      "t_struct(RoleData)23_storage": {
        "encoding": "inplace",
        "label": "struct AccessControlUpgradeable.RoleData",
        "members": [
          {
            "astId": 20,
            "contract": "src/WLCollectionListing.sol:WLCollectionListing",
            "label": "members",
            "offset": 0,
            "slot": "0",
            "type": "t_mapping(t_address,t_bool)"
          },
          {
            "astId": 22,
            "contract": "src/WLCollectionListing.sol:WLCollectionListing",
            "label": "adminRole",
            "offset": 0,
            "slot": "1",
            "type": "t_bytes32"
          }
        ],
        "numberOfBytes": "64"
      },
      "t_uint256": {
        "encoding": "inplace",
        "label": "uint256",
        "numberOfBytes": "32"
      },
      "t_uint8": {
        "encoding": "inplace",
        "label": "uint8",
        "numberOfBytes": "1"
      }
    }
  }
}