{
  "address": "0x6c619E55E9947051e98570a36044C31C4eB0736d",
  "abi": [
    {
      "anonymous": false,
      "inputs": [
        {
          "indexed": false,
          "internalType": "uint256",
          "name": "oldValue",
          "type": "uint256"
        },
        {
          "indexed": false,
          "internalType": "uint256",
          "name": "newValue",
          "type": "uint256"
        }
      ],
      "name": "BuyerFeeAmountChanged",
      "type": "event"
    },
    {
      "anonymous": false,
      "inputs": [
        {
          "indexed": false,
          "internalType": "bytes32",
          "name": "hash",
          "type": "bytes32"
        }
      ],
      "name": "Cancel",
      "type": "event"
    },
    {
      "anonymous": false,
      "inputs": [
        {
          "indexed": false,
          "internalType": "address",
          "name": "oldValue",
          "type": "address"
        },
        {
          "indexed": false,
          "internalType": "address",
          "name": "newValue",
          "type": "address"
        }
      ],
      "name": "FeeReceiverChanged",
      "type": "event"
    },
    {
      "anonymous": false,
      "inputs": [
        {
          "indexed": false,
          "internalType": "bytes32",
          "name": "leftHash",
          "type": "bytes32"
        },
        {
          "indexed": false,
          "internalType": "bytes32",
          "name": "rightHash",
          "type": "bytes32"
        },
        {
          "indexed": false,
          "internalType": "uint256",
          "name": "newLeftFill",
          "type": "uint256"
        },
        {
          "indexed": false,
          "internalType": "uint256",
          "name": "newRightFill",
          "type": "uint256"
        }
      ],
      "name": "Match",
      "type": "event"
    },
    {
      "anonymous": false,
      "inputs": [
        {
          "indexed": true,
          "internalType": "bytes4",
          "name": "assetType",
          "type": "bytes4"
        },
        {
          "indexed": false,
          "internalType": "address",
          "name": "matcher",
          "type": "address"
        }
      ],
      "name": "MatcherChange",
      "type": "event"
    },
    {
      "anonymous": false,
      "inputs": [
        {
          "indexed": false,
          "internalType": "address",
          "name": "userAddress",
          "type": "address"
        },
        {
          "indexed": false,
          "internalType": "address payable",
          "name": "relayerAddress",
          "type": "address"
        },
        {
          "indexed": false,
          "internalType": "bytes",
          "name": "functionSignature",
          "type": "bytes"
        }
      ],
      "name": "MetaTransactionExecuted",
      "type": "event"
    },
    {
      "anonymous": false,
      "inputs": [
        {
          "indexed": true,
          "internalType": "address",
          "name": "previousOwner",
          "type": "address"
        },
        {
          "indexed": true,
          "internalType": "address",
          "name": "newOwner",
          "type": "address"
        }
      ],
      "name": "OwnershipTransferred",
      "type": "event"
    },
    {
      "anonymous": false,
      "inputs": [
        {
          "indexed": true,
          "internalType": "bytes4",
          "name": "assetType",
          "type": "bytes4"
        },
        {
          "indexed": false,
          "internalType": "address",
          "name": "proxy",
          "type": "address"
        }
      ],
      "name": "ProxyChange",
      "type": "event"
    },
    {
      "anonymous": false,
      "inputs": [
        {
          "indexed": false,
          "internalType": "uint256",
          "name": "oldValue",
          "type": "uint256"
        },
        {
          "indexed": false,
          "internalType": "uint256",
          "name": "newValue",
          "type": "uint256"
        }
      ],
      "name": "SellerFeeAmountChanged",
      "type": "event"
    },
    {
      "inputs": [
        {
          "internalType": "address",
          "name": "_transferProxy",
          "type": "address"
        },
        {
          "internalType": "address",
          "name": "_erc20TransferProxy",
          "type": "address"
        },
        {
          "internalType": "uint256",
          "name": "newProtocolFee",
          "type": "uint256"
        },
        {
          "internalType": "address",
          "name": "newDefaultFeeReceiver",
          "type": "address"
        },
        {
          "internalType": "contract IRoyaltiesProvider",
          "name": "newRoyaltiesProvider",
          "type": "address"
        }
      ],
      "name": "__ExchangeV2_init",
      "outputs": [],
      "stateMutability": "nonpayable",
      "type": "function"
    },
    {
      "inputs": [
        {
          "internalType": "address",
          "name": "_transferProxy",
          "type": "address"
        },
        {
          "internalType": "address",
          "name": "_erc20TransferProxy",
          "type": "address"
        },
        {
          "internalType": "uint256",
          "name": "newProtocolFee",
          "type": "uint256"
        },
        {
          "internalType": "address",
          "name": "newDefaultFeeReceiver",
          "type": "address"
        },
        {
          "internalType": "contract IRoyaltiesProvider",
          "name": "newRoyaltiesProvider",
          "type": "address"
        },
        {
          "internalType": "address",
          "name": "_initialOwner",
          "type": "address"
        },
        {
          "internalType": "bytes4[]",
          "name": "assetTypes",
          "type": "bytes4[]"
        },
        {
          "internalType": "address[]",
          "name": "proxies",
          "type": "address[]"
        },
        {
          "internalType": "bytes4",
          "name": "assetMatcherType",
          "type": "bytes4"
        },
        {
          "internalType": "address",
          "name": "assetMatcher",
          "type": "address"
        }
      ],
      "name": "__ExchangeV2_init_proxy",
      "outputs": [],
      "stateMutability": "nonpayable",
      "type": "function"
    },
    {
      "inputs": [
        {
          "components": [
            {
              "internalType": "address",
              "name": "maker",
              "type": "address"
            },
            {
              "components": [
                {
                  "components": [
                    {
                      "internalType": "bytes4",
                      "name": "assetClass",
                      "type": "bytes4"
                    },
                    {
                      "internalType": "bytes",
                      "name": "data",
                      "type": "bytes"
                    }
                  ],
                  "internalType": "struct LibAsset.AssetType",
                  "name": "assetType",
                  "type": "tuple"
                },
                {
                  "internalType": "uint256",
                  "name": "value",
                  "type": "uint256"
                }
              ],
              "internalType": "struct LibAsset.Asset",
              "name": "makeAsset",
              "type": "tuple"
            },
            {
              "internalType": "address",
              "name": "taker",
              "type": "address"
            },
            {
              "components": [
                {
                  "components": [
                    {
                      "internalType": "bytes4",
                      "name": "assetClass",
                      "type": "bytes4"
                    },
                    {
                      "internalType": "bytes",
                      "name": "data",
                      "type": "bytes"
                    }
                  ],
                  "internalType": "struct LibAsset.AssetType",
                  "name": "assetType",
                  "type": "tuple"
                },
                {
                  "internalType": "uint256",
                  "name": "value",
                  "type": "uint256"
                }
              ],
              "internalType": "struct LibAsset.Asset",
              "name": "takeAsset",
              "type": "tuple"
            },
            {
              "internalType": "uint256",
              "name": "salt",
              "type": "uint256"
            },
            {
              "internalType": "uint256",
              "name": "start",
              "type": "uint256"
            },
            {
              "internalType": "uint256",
              "name": "end",
              "type": "uint256"
            },
            {
              "internalType": "bytes4",
              "name": "dataType",
              "type": "bytes4"
            },
            {
              "internalType": "bytes",
              "name": "data",
              "type": "bytes"
            }
          ],
          "internalType": "struct LibOrder.Order",
          "name": "order",
          "type": "tuple"
        }
      ],
      "name": "cancel",
      "outputs": [],
      "stateMutability": "nonpayable",
      "type": "function"
    },
    {
      "inputs": [
        {
          "components": [
            {
              "internalType": "address",
              "name": "bidMaker",
              "type": "address"
            },
            {
              "internalType": "uint256",
              "name": "bidNftAmount",
              "type": "uint256"
            },
            {
              "internalType": "bytes4",
              "name": "nftAssetClass",
              "type": "bytes4"
            },
            {
              "internalType": "bytes",
              "name": "nftData",
              "type": "bytes"
            },
            {
              "internalType": "uint256",
              "name": "bidPaymentAmount",
              "type": "uint256"
            },
            {
              "internalType": "address",
              "name": "paymentToken",
              "type": "address"
            },
            {
              "internalType": "uint256",
              "name": "bidSalt",
              "type": "uint256"
            },
            {
              "internalType": "uint256",
              "name": "bidStart",
              "type": "uint256"
            },
            {
              "internalType": "uint256",
              "name": "bidEnd",
              "type": "uint256"
            },
            {
              "internalType": "bytes4",
              "name": "bidDataType",
              "type": "bytes4"
            },
            {
              "internalType": "bytes",
              "name": "bidData",
              "type": "bytes"
            },
            {
              "internalType": "bytes",
              "name": "bidSignature",
              "type": "bytes"
            },
            {
              "internalType": "uint256",
              "name": "sellOrderPaymentAmount",
              "type": "uint256"
            },
            {
              "internalType": "uint256",
              "name": "sellOrderNftAmount",
              "type": "uint256"
            },
            {
              "internalType": "bytes",
              "name": "sellOrderData",
              "type": "bytes"
            }
          ],
          "internalType": "struct LibDirectTransfer.AcceptBid",
          "name": "direct",
          "type": "tuple"
        }
      ],
      "name": "directAcceptBid",
      "outputs": [],
      "stateMutability": "payable",
      "type": "function"
    },
    {
      "inputs": [
        {
          "components": [
            {
              "internalType": "address",
              "name": "sellOrderMaker",
              "type": "address"
            },
            {
              "internalType": "uint256",
              "name": "sellOrderNftAmount",
              "type": "uint256"
            },
            {
              "internalType": "bytes4",
              "name": "nftAssetClass",
              "type": "bytes4"
            },
            {
              "internalType": "bytes",
              "name": "nftData",
              "type": "bytes"
            },
            {
              "internalType": "uint256",
              "name": "sellOrderPaymentAmount",
              "type": "uint256"
            },
            {
              "internalType": "address",
              "name": "paymentToken",
              "type": "address"
            },
            {
              "internalType": "uint256",
              "name": "sellOrderSalt",
              "type": "uint256"
            },
            {
              "internalType": "uint256",
              "name": "sellOrderStart",
              "type": "uint256"
            },
            {
              "internalType": "uint256",
              "name": "sellOrderEnd",
              "type": "uint256"
            },
            {
              "internalType": "bytes4",
              "name": "sellOrderDataType",
              "type": "bytes4"
            },
            {
              "internalType": "bytes",
              "name": "sellOrderData",
              "type": "bytes"
            },
            {
              "internalType": "bytes",
              "name": "sellOrderSignature",
              "type": "bytes"
            },
            {
              "internalType": "uint256",
              "name": "buyOrderPaymentAmount",
              "type": "uint256"
            },
            {
              "internalType": "uint256",
              "name": "buyOrderNftAmount",
              "type": "uint256"
            },
            {
              "internalType": "bytes",
              "name": "buyOrderData",
              "type": "bytes"
            }
          ],
          "internalType": "struct LibDirectTransfer.Purchase",
          "name": "direct",
          "type": "tuple"
        }
      ],
      "name": "directPurchase",
      "outputs": [],
      "stateMutability": "payable",
      "type": "function"
    },
    {
      "inputs": [
        {
          "internalType": "address",
          "name": "userAddress",
          "type": "address"
        },
        {
          "internalType": "bytes",
          "name": "functionSignature",
          "type": "bytes"
        },
        {
          "internalType": "bytes32",
          "name": "sigR",
          "type": "bytes32"
        },
        {
          "internalType": "bytes32",
          "name": "sigS",
          "type": "bytes32"
        },
        {
          "internalType": "uint8",
          "name": "sigV",
          "type": "uint8"
        }
      ],
      "name": "executeMetaTransaction",
      "outputs": [
        {
          "internalType": "bytes",
          "name": "",
          "type": "bytes"
        }
      ],
      "stateMutability": "payable",
      "type": "function"
    },
    {
      "inputs": [
        {
          "internalType": "bytes32",
          "name": "",
          "type": "bytes32"
        }
      ],
      "name": "fills",
      "outputs": [
        {
          "internalType": "uint256",
          "name": "",
          "type": "uint256"
        }
      ],
      "stateMutability": "view",
      "type": "function"
    },
    {
      "inputs": [
        {
          "internalType": "address",
          "name": "user",
          "type": "address"
        }
      ],
      "name": "getNonce",
      "outputs": [
        {
          "internalType": "uint256",
          "name": "nonce",
          "type": "uint256"
        }
      ],
      "stateMutability": "view",
      "type": "function"
    },
    {
      "inputs": [
        {
          "components": [
            {
              "internalType": "address",
              "name": "maker",
              "type": "address"
            },
            {
              "components": [
                {
                  "components": [
                    {
                      "internalType": "bytes4",
                      "name": "assetClass",
                      "type": "bytes4"
                    },
                    {
                      "internalType": "bytes",
                      "name": "data",
                      "type": "bytes"
                    }
                  ],
                  "internalType": "struct LibAsset.AssetType",
                  "name": "assetType",
                  "type": "tuple"
                },
                {
                  "internalType": "uint256",
                  "name": "value",
                  "type": "uint256"
                }
              ],
              "internalType": "struct LibAsset.Asset",
              "name": "makeAsset",
              "type": "tuple"
            },
            {
              "internalType": "address",
              "name": "taker",
              "type": "address"
            },
            {
              "components": [
                {
                  "components": [
                    {
                      "internalType": "bytes4",
                      "name": "assetClass",
                      "type": "bytes4"
                    },
                    {
                      "internalType": "bytes",
                      "name": "data",
                      "type": "bytes"
                    }
                  ],
                  "internalType": "struct LibAsset.AssetType",
                  "name": "assetType",
                  "type": "tuple"
                },
                {
                  "internalType": "uint256",
                  "name": "value",
                  "type": "uint256"
                }
              ],
              "internalType": "struct LibAsset.Asset",
              "name": "takeAsset",
              "type": "tuple"
            },
            {
              "internalType": "uint256",
              "name": "salt",
              "type": "uint256"
            },
            {
              "internalType": "uint256",
              "name": "start",
              "type": "uint256"
            },
            {
              "internalType": "uint256",
              "name": "end",
              "type": "uint256"
            },
            {
              "internalType": "bytes4",
              "name": "dataType",
              "type": "bytes4"
            },
            {
              "internalType": "bytes",
              "name": "data",
              "type": "bytes"
            }
          ],
          "internalType": "struct LibOrder.Order",
          "name": "orderLeft",
          "type": "tuple"
        },
        {
          "internalType": "bytes",
          "name": "signatureLeft",
          "type": "bytes"
        },
        {
          "components": [
            {
              "internalType": "address",
              "name": "maker",
              "type": "address"
            },
            {
              "components": [
                {
                  "components": [
                    {
                      "internalType": "bytes4",
                      "name": "assetClass",
                      "type": "bytes4"
                    },
                    {
                      "internalType": "bytes",
                      "name": "data",
                      "type": "bytes"
                    }
                  ],
                  "internalType": "struct LibAsset.AssetType",
                  "name": "assetType",
                  "type": "tuple"
                },
                {
                  "internalType": "uint256",
                  "name": "value",
                  "type": "uint256"
                }
              ],
              "internalType": "struct LibAsset.Asset",
              "name": "makeAsset",
              "type": "tuple"
            },
            {
              "internalType": "address",
              "name": "taker",
              "type": "address"
            },
            {
              "components": [
                {
                  "components": [
                    {
                      "internalType": "bytes4",
                      "name": "assetClass",
                      "type": "bytes4"
                    },
                    {
                      "internalType": "bytes",
                      "name": "data",
                      "type": "bytes"
                    }
                  ],
                  "internalType": "struct LibAsset.AssetType",
                  "name": "assetType",
                  "type": "tuple"
                },
                {
                  "internalType": "uint256",
                  "name": "value",
                  "type": "uint256"
                }
              ],
              "internalType": "struct LibAsset.Asset",
              "name": "takeAsset",
              "type": "tuple"
            },
            {
              "internalType": "uint256",
              "name": "salt",
              "type": "uint256"
            },
            {
              "internalType": "uint256",
              "name": "start",
              "type": "uint256"
            },
            {
              "internalType": "uint256",
              "name": "end",
              "type": "uint256"
            },
            {
              "internalType": "bytes4",
              "name": "dataType",
              "type": "bytes4"
            },
            {
              "internalType": "bytes",
              "name": "data",
              "type": "bytes"
            }
          ],
          "internalType": "struct LibOrder.Order",
          "name": "orderRight",
          "type": "tuple"
        },
        {
          "internalType": "bytes",
          "name": "signatureRight",
          "type": "bytes"
        }
      ],
      "name": "matchOrders",
      "outputs": [],
      "stateMutability": "payable",
      "type": "function"
    },
    {
      "inputs": [],
      "name": "owner",
      "outputs": [
        {
          "internalType": "address",
          "name": "",
          "type": "address"
        }
      ],
      "stateMutability": "view",
      "type": "function"
    },
    {
      "inputs": [],
      "name": "protocolFee",
      "outputs": [
        {
          "internalType": "address",
          "name": "receiver",
          "type": "address"
        },
        {
          "internalType": "uint48",
          "name": "buyerAmount",
          "type": "uint48"
        },
        {
          "internalType": "uint48",
          "name": "sellerAmount",
          "type": "uint48"
        }
      ],
      "stateMutability": "view",
      "type": "function"
    },
    {
      "inputs": [],
      "name": "renounceOwnership",
      "outputs": [],
      "stateMutability": "nonpayable",
      "type": "function"
    },
    {
      "inputs": [],
      "name": "royaltiesRegistry",
      "outputs": [
        {
          "internalType": "contract IRoyaltiesProvider",
          "name": "",
          "type": "address"
        }
      ],
      "stateMutability": "view",
      "type": "function"
    },
    {
      "inputs": [
        {
          "internalType": "address",
          "name": "_receiver",
          "type": "address"
        },
        {
          "internalType": "uint48",
          "name": "_buyerAmount",
          "type": "uint48"
        },
        {
          "internalType": "uint48",
          "name": "_sellerAmount",
          "type": "uint48"
        }
      ],
      "name": "setAllProtocolFeeData",
      "outputs": [],
      "stateMutability": "nonpayable",
      "type": "function"
    },
    {
      "inputs": [
        {
          "internalType": "bytes4",
          "name": "assetType",
          "type": "bytes4"
        },
        {
          "internalType": "address",
          "name": "matcher",
          "type": "address"
        }
      ],
      "name": "setAssetMatcher",
      "outputs": [],
      "stateMutability": "nonpayable",
      "type": "function"
    },
    {
      "inputs": [
        {
          "internalType": "uint48",
          "name": "_buyerAmount",
          "type": "uint48"
        }
      ],
      "name": "setPrtocolFeeBuyerAmount",
      "outputs": [],
      "stateMutability": "nonpayable",
      "type": "function"
    },
    {
      "inputs": [
        {
          "internalType": "address",
          "name": "_receiver",
          "type": "address"
        }
      ],
      "name": "setPrtocolFeeReceiver",
      "outputs": [],
      "stateMutability": "nonpayable",
      "type": "function"
    },
    {
      "inputs": [
        {
          "internalType": "uint48",
          "name": "_sellerAmount",
          "type": "uint48"
        }
      ],
      "name": "setPrtocolFeeSellerAmount",
      "outputs": [],
      "stateMutability": "nonpayable",
      "type": "function"
    },
    {
      "inputs": [
        {
          "internalType": "contract IRoyaltiesProvider",
          "name": "newRoyaltiesRegistry",
          "type": "address"
        }
      ],
      "name": "setRoyaltiesRegistry",
      "outputs": [],
      "stateMutability": "nonpayable",
      "type": "function"
    },
    {
      "inputs": [
        {
          "internalType": "bytes4",
          "name": "assetType",
          "type": "bytes4"
        },
        {
          "internalType": "address",
          "name": "proxy",
          "type": "address"
        }
      ],
      "name": "setTransferProxy",
      "outputs": [],
      "stateMutability": "nonpayable",
      "type": "function"
    },
    {
      "inputs": [
        {
          "internalType": "address",
          "name": "newOwner",
          "type": "address"
        }
      ],
      "name": "transferOwnership",
      "outputs": [],
      "stateMutability": "nonpayable",
      "type": "function"
    }
  ],
  "transactionHash": "0x8e1907dcb354ea634192361d245d17e202759be614e120205a60a099e66d61b2",
  "args": [],
  "numDeployments": 1,
  "solcInputHash": "25cec8d3d0ea4b0d6c3f88e02b714495",
  "bytecode": "0x608060405234801561001057600080fd5b50615df280620000216000396000f3fe60806040526004361061012a5760003560e01c8063715018a6116100ab578063bc158c2d1161006f578063bc158c2d146102fd578063d6ca6ab71461031d578063e2864fe31461033d578063e99a3f801461035d578063eae3ad6f14610370578063f2fde38b146103905761012a565b8063715018a61461026f5780638da5cb5b14610284578063b0e21e8a14610299578063b39deb46146102bd578063b74c8e9a146102dd5761012a565b80632d0335ab116100f25780632d0335ab146101da57806330c642f1146101fa5780633be899221461021a57806367d49a3b1461023a5780636d8f06941461024d5761012a565b80630c53c51c1461012f5780630d5f7d35146101585780631372a6251461016d57806320158c441461018d5780632bed54d6146101ba575b600080fd5b61014261013d36600461519d565b6103b0565b60405161014f9190615731565b60405180910390f35b61016b610166366004615305565b610729565b005b34801561017957600080fd5b5061016b610188366004615056565b610a46565b34801561019957600080fd5b506101ad6101a8366004615299565b610b63565b60405161014f919061570d565b3480156101c657600080fd5b5061016b6101d53660046150bd565b610b76565b3480156101e657600080fd5b506101ad6101f5366004614e01565b610cf0565b34801561020657600080fd5b5061016b6102153660046152cd565b610d0c565b34801561022657600080fd5b5061016b610235366004614e01565b610ddc565b61016b610248366004615305565b610e61565b34801561025957600080fd5b50610262611141565b60405161014f9190615641565b34801561027b57600080fd5b5061016b611151565b34801561029057600080fd5b506102626111fd565b3480156102a557600080fd5b506102ae61120d565b60405161014f939291906156e4565b3480156102c957600080fd5b5061016b6102d83660046152cd565b611238565b3480156102e957600080fd5b5061016b6102f8366004615209565b6112fc565b34801561030957600080fd5b5061016b610318366004614e01565b61137e565b34801561032957600080fd5b5061016b6103383660046155d3565b61144b565b34801561034957600080fd5b5061016b6103583660046154fa565b611525565b61016b61036b36600461552c565b6115e6565b34801561037c57600080fd5b5061016b61038b3660046155d3565b6115fc565b34801561039c57600080fd5b5061016b6103ab366004614e01565b6116d3565b606060006103bd866117d6565b90506000356001600160e01b03199081169082161415610424576040805162461bcd60e51b815260206004820152601760248201527f57726f6e672066756e6374696f6e5369676e6174757265000000000000000000604482015290519081900360640190fd5b604080516060810182526001600160a01b038916600081815261019360209081529084902054835282015290810187905261046288828888886117f6565b61049d5760405162461bcd60e51b8152600401808060200182810382526021815260200180615d9c6021913960400191505060405180910390fd5b6001600160a01b038816600090815261019360205260409020546104c29060016118e0565b61019360008a6001600160a01b03166001600160a01b0316815260200190815260200160002081905550600080306001600160a01b0316898b6040516020018083805190602001908083835b6020831061052d5780518252601f19909201916020918201910161050e565b6001836020036101000a038019825116818451168082178552505050505050905001826001600160a01b031660601b8152601401925050506040516020818303038152906040526040518082805190602001908083835b602083106105a35780518252601f199092019160209182019101610584565b6001836020036101000a0380198251168184511680821785525050505050509050019150506000604051808303816000865af19150503d8060008114610605576040519150601f19603f3d011682016040523d82523d6000602084013e61060a565b606091505b509150915081610661576040805162461bcd60e51b815260206004820152601c60248201527f46756e6374696f6e2063616c6c206e6f74207375636365737366756c00000000604482015290519081900360640190fd5b7f5845892132946850460bff5a0083f71031bc5bf9aadcd40f1de79423eac9b10b8a338b60405180846001600160a01b03168152602001836001600160a01b0316815260200180602001828103825283818151815260200191508051906020019080838360005b838110156106e05781810151838201526020016106c8565b50505050905090810190601f16801561070d5780820380516001836020036101000a031916815260200191505b5094505050505060405180910390a19998505050505050505050565b600061074361073e60c0840160a08501614e01565b611943565b604080516101208101909152909150600090806107636020860186614e01565b6001600160a01b031681526020016040518060400160405280604051806040016040528088604001602081019061079a91906152b1565b6001600160e01b03191681526020016107b660608a018a615b36565b8080601f0160208091040260200160405190810160405280939291908181526020018383808284376000920182905250939094525050918352506020888101359281019290925291835282810191909152604080518082018252868152608080890135938201939093529083015260c080870135606084015260e08701359183019190915261010086013560a083015201610859610140860161012087016152b1565b6001600160e01b0319168152602001610876610140860186615b36565b8080601f01602080910402602001604051908101604052809392919081815260200183838082843760009201829052509390945250506040805161012081018252828152815180830183528781526101808901356020828101919091528201528082018390528151608081018352949550919391925060608084019291829182820191829161090a91908c01908c016152b1565b6001600160e01b031916815260200161092660608b018b615b36565b8080601f0160208091040260200160405190810160405280939291908181526020018383808284376000920182905250939094525050918352506101a08901356020928301529183528201819052604082018190526060820152608001610995610140870161012088016152b1565b6001600160e01b03191681526020016109b26101c0870187615b36565b8080601f01602080910402602001604051908101604052809392919081815260200183838082843760009201919091525050509152509050610a36826109fc610160870187615b36565b8080601f0160208091040260200160405190810160405280939291908181526020018383808284376000920191909152506119a692505050565b610a4082826119bd565b50505050565b600054610100900460ff1680610a5f5750610a5f611c0f565b80610a6d575060005460ff16155b610aa85760405162461bcd60e51b815260040180806020018281038252602e815260200180615d0b602e913960400191505060405180910390fd5b600054610100900460ff16158015610ad3576000805460ff1961ff0019909116610100171660011790555b610adb611c20565b610ae3611cc2565b610aeb611dbb565b610b346040518060400160405280600e81526020016d22bc31b430b733b2a6b2ba30ab1960911b815250604051806040016040528060018152602001603160f81b815250611e8b565b610b3e8686611f1b565b610b49848484611fc5565b8015610b5b576000805461ff00191690555b505050505050565b61012f6020526000908152604090205481565b600054610100900460ff1680610b8f5750610b8f611c0f565b80610b9d575060005460ff16155b610bd85760405162461bcd60e51b815260040180806020018281038252602e815260200180615d0b602e913960400191505060405180910390fd5b600054610100900460ff16158015610c03576000805460ff1961ff0019909116610100171660011790555b610c0b611c20565b610c13611cc2565b610c1b611dbb565b610c646040518060400160405280600e81526020016d22bc31b430b733b2a6b2ba30ab1960911b815250604051806040016040528060018152602001603160f81b815250611e8b565b610c6e8b8b611f1b565b610c79898989611fc5565b60005b8551811015610cbd57610cb5868281518110610c9457fe5b6020026020010151868381518110610ca857fe5b6020026020010151610d6e565b600101610c7c565b50610cc8838361129a565b610cd1866116d3565b8015610ce3576000805461ff00191690555b5050505050505050505050565b6001600160a01b03166000908152610193602052604090205490565b610d14612085565b6001600160a01b0316610d256111fd565b6001600160a01b031614610d6e576040805162461bcd60e51b81526020600482018190526024820152600080516020615d7c833981519152604482015290519081900360640190fd5b6001600160e01b031982166000818152609760205260409081902080546001600160a01b0319166001600160a01b038516179055517f4b5aced933c0c9a88aeac3f0b3b72c5aaf75df8ebaf53225773248c4c315359390610dd0908490615641565b60405180910390a25050565b610de4612085565b6001600160a01b0316610df56111fd565b6001600160a01b031614610e3e576040805162461bcd60e51b81526020600482018190526024820152600080516020615d7c833981519152604482015290519081900360640190fd5b61016280546001600160a01b0319166001600160a01b0392909216919091179055565b6000610e7661073e60c0840160a08501614e01565b60408051610120810190915290915060009080610e966020860186614e01565b6001600160a01b0316815260200160405180604001604052808581526020018660800135815250815260200160006001600160a01b0316815260200160405180604001604052806040518060400160405280886040016020810190610efb91906152b1565b6001600160e01b0319168152602001610f1760608a018a615b36565b8080601f016020809104026020016040519081016040528093929190818152602001838380828437600092019190915250505091525081526020878101359181019190915290825260c08601359082015260e085013560408201526101008501356060820152608001610f92610140860161012087016152b1565b6001600160e01b0319168152602001610faf610140860186615b36565b8080601f016020809104026020016040519081016040528093929190818152602001838380828437600092018290525093909452505060408051610120810182528281528151608081018352949550919391925060208301919081908181019081906110219060608c01908c016152b1565b6001600160e01b031916815260200161103d60608b018b615b36565b8080601f0160208091040260200160405190810160405280939291908181526020018383808284376000920182905250939094525050918352506101a08901356020928301529183528281018290526040805180820182528881526101808a013592810192909252830152606082018190526080820181905260a082015260c0016110d0610140870161012088016152b1565b6001600160e01b03191681526020016110ed6101c0870187615b36565b8080601f01602080910402602001604051908101604052809392919081815260200183838082843760009201919091525050509152509050611137826109fc610160870187615b36565b610a4081836119bd565b610162546001600160a01b031681565b611159612085565b6001600160a01b031661116a6111fd565b6001600160a01b0316146111b3576040805162461bcd60e51b81526020600482018190526024820152600080516020615d7c833981519152604482015290519081900360640190fd5b6033546040516000916001600160a01b0316907f8be0079c531659141344cd1fd0a4f28419497f9722a3daafe3b4186f6b6457e0908390a3603380546001600160a01b0319169055565b6033546001600160a01b03165b90565b610161546001600160a01b0381169065ffffffffffff600160a01b8204811691600160d01b90041683565b611240612085565b6001600160a01b03166112516111fd565b6001600160a01b03161461129a576040805162461bcd60e51b81526020600482018190526024820152600080516020615d7c833981519152604482015290519081900360640190fd5b6001600160e01b031982166000818152606560205260409081902080546001600160a01b0319166001600160a01b038516179055517fd2bf91075f105d0fd80328da28e20ebdad1c1261839711183bc29a44cbe6c72f90610dd0908490615641565b611304612085565b6001600160a01b03166113156111fd565b6001600160a01b03161461135e576040805162461bcd60e51b81526020600482018190526024820152600080516020615d7c833981519152604482015290519081900360640190fd5b6113678361137e565b6113708261144b565b611379816115fc565b505050565b611386612085565b6001600160a01b03166113976111fd565b6001600160a01b0316146113e0576040805162461bcd60e51b81526020600482018190526024820152600080516020615d7c833981519152604482015290519081900360640190fd5b610161546040517fa4b009cc442411b602eaf94bc0579b6abdb8fd90b4ef5b9426e270038906bd0391611420916001600160a01b03909116908490615655565b60405180910390a161016180546001600160a01b0319166001600160a01b0392909216919091179055565b611453612085565b6001600160a01b03166114646111fd565b6001600160a01b0316146114ad576040805162461bcd60e51b81526020600482018190526024820152600080516020615d7c833981519152604482015290519081900360640190fd5b610161546040517f70bba4f904a93ba5c1af3a1bb602bc9c058551dbe963dfe0b6cb5bc11c5fea9e916114f291600160a01b90910465ffffffffffff16908490615b1d565b60405180910390a1610161805465ffffffffffff909216600160a01b0265ffffffffffff60a01b19909216919091179055565b80516001600160a01b0316611538612085565b6001600160a01b0316146115675760405162461bcd60e51b815260040161155e90615a8d565b60405180910390fd5b60808101516115885760405162461bcd60e51b815260040161155e9061581f565b600061159382612094565b600081815261012f6020526040908190206000199055519091507fe8d9861dbc9c663ed3accd261bbe2fe01e0d3d9e5f51fa38523b265c7757a93a906115da90839061570d565b60405180910390a15050565b6115f28484848461221c565b610a4084836119bd565b611604612085565b6001600160a01b03166116156111fd565b6001600160a01b03161461165e576040805162461bcd60e51b81526020600482018190526024820152600080516020615d7c833981519152604482015290519081900360640190fd5b610161546040517fa8af9093caa9beb61d20432227c66258ceef926f21879b80f3adf22a4d19f131916116a391600160d01b90910465ffffffffffff16908490615b1d565b60405180910390a1610161805465ffffffffffff909216600160d01b026001600160d01b03909216919091179055565b6116db612085565b6001600160a01b03166116ec6111fd565b6001600160a01b031614611735576040805162461bcd60e51b81526020600482018190526024820152600080516020615d7c833981519152604482015290519081900360640190fd5b6001600160a01b03811661177a5760405162461bcd60e51b8152600401808060200182810382526026815260200180615c766026913960400191505060405180910390fd5b6033546040516001600160a01b038084169216907f8be0079c531659141344cd1fd0a4f28419497f9722a3daafe3b4186f6b6457e090600090a3603380546001600160a01b0319166001600160a01b0392909216919091179055565b60008151600014156117ea575060006117f1565b5060208101515b919050565b600080600161180c611807886122e8565b61236b565b84878760405160008152602001604052604051808581526020018460ff1681526020018381526020018281526020019450505050506020604051602081039080840390855afa158015611863573d6000803e3d6000fd5b5050604051601f1901519150506001600160a01b0381166118bf576040805162461bcd60e51b8152602060048201526011602482015270496e76616c6964207369676e617475726560781b604482015290519081900360640190fd5b866001600160a01b0316816001600160a01b03161491505095945050505050565b60008282018381101561193a576040805162461bcd60e51b815260206004820152601b60248201527f536166654d6174683a206164646974696f6e206f766572666c6f770000000000604482015290519081900360640190fd5b90505b92915050565b61194b614930565b611953614930565b6001600160a01b038316611970576355575f5d60e11b815261193d565b6322ba176160e21b815260405161198b908490602001615641565b60408051601f19818403018152919052602082015292915050565b6119af826123b7565b6119b98282612481565b5050565b6000806119ca8484612730565b9150915060008060006119dd87876127c9565b925092509250600080611b366040518060a0016040528060405180604001604052808b8152602001876000015181525081526020018760000151815260200187602001518152602001609760008b600001516001600160e01b0319166001600160e01b031916815260200190815260200160002060009054906101000a90046001600160a01b03166001600160a01b031681526020018b600001516001600160a01b03168152506040518060a0016040528060405180604001604052808b8152602001886020015181525081526020018760000151815260200187602001518152602001609760008b600001516001600160e01b0319166001600160e01b031916815260200190815260200160002060009054906101000a90046001600160a01b03166001600160a01b031681526020018b600001516001600160a01b0316815250611b318a600001518a60000151612878565b612949565b885191935091506001600160e01b0319166355575f5d60e11b1415611bb55785516001600160e01b0319166355575f5d60e11b1415611b7457600080fd5b81341015611b945760405162461bcd60e51b815260040161155e90615a65565b81341115611bb057611bb0611ba93484612ac0565b3390612b1d565b611c04565b85516001600160e01b0319166355575f5d60e11b1415611c045780341015611bef5760405162461bcd60e51b815260040161155e90615a65565b80341115611c0457611c04611ba93483612ac0565b505050505050505050565b6000611c1a30612bb5565b15905090565b600054610100900460ff1680611c395750611c39611c0f565b80611c47575060005460ff16155b611c825760405162461bcd60e51b815260040180806020018281038252602e815260200180615d0b602e913960400191505060405180910390fd5b600054610100900460ff16158015611cad576000805460ff1961ff0019909116610100171660011790555b8015611cbf576000805461ff00191690555b50565b600054610100900460ff1680611cdb5750611cdb611c0f565b80611ce9575060005460ff16155b611d245760405162461bcd60e51b815260040180806020018281038252602e815260200180615d0b602e913960400191505060405180910390fd5b600054610100900460ff16158015611d4f576000805460ff1961ff0019909116610100171660011790555b6000611d59612085565b603380546001600160a01b0319166001600160a01b038316908117909155604051919250906000907f8be0079c531659141344cd1fd0a4f28419497f9722a3daafe3b4186f6b6457e0908290a3508015611cbf576000805461ff001916905550565b600054610100900460ff1680611dd45750611dd4611c0f565b80611de2575060005460ff16155b611e1d5760405162461bcd60e51b815260040180806020018281038252602e815260200180615d0b602e913960400191505060405180910390fd5b600054610100900460ff16158015611e48576000805460ff1961ff0019909116610100171660011790555b611cad6040518060400160405280600881526020016745786368616e676560c01b815250604051806040016040528060018152602001601960f91b815250612bbb565b7f36c25de3e541d5d970f66e4210d728721220fff5c077cc6cd008b3a0c62adab78280519060200120828051906020012030611ec5612c7b565b60405160200180868152602001858152602001848152602001836001600160a01b031681526020018281526020019550505050505060405160208183030381529060405280519060200120610194819055505050565b60976020527f4532fa16f071d6234e30e1a1e69b9806f04095edf37a1ca7a25c8d6af7861cc080546001600160a01b039283166001600160a01b0319918216179091557f30a684095c937b5aa064dcf94f9903a7d808e3efb22d8389dbd43080ad4ed3d5805493909216928116831790915563025ceed960e61b6000527f4b5822151ea34b7c8d9e37c3e466bcecb631efe6a9f26a4a4054110a93dd316f80549091169091179055565b600054610100900460ff1680611fde5750611fde611c0f565b80611fec575060005460ff16155b6120275760405162461bcd60e51b815260040180806020018281038252602e815260200180615d0b602e913960400191505060405180910390fd5b600054610100900460ff16158015612052576000805460ff1961ff0019909116610100171660011790555b61016280546001600160a01b0319166001600160a01b0384161790558015610a40576000805461ff001916905550505050565b600061208f612c85565b905090565b60e08101516000906001600160e01b031916632611a13360e11b14806120c8575060e08201516001600160e01b0319908116145b1561213d5781516020830151516120de90612ce1565b6060840151516120ed90612ce1565b846080015160405160200180856001600160a01b031681526020018481526020018381526020018281526020019450505050506040516020818303038152906040528051906020012090506117f1565b815160208301515161214e90612ce1565b60608401515161215d90612ce1565b846080015185610100015160405160200180866001600160a01b0316815260200185815260200184815260200183815260200180602001828103825283818151815260200191508051906020019080838360005b838110156121c95781810151838201526020016121b1565b50505050905090810190601f1680156121f65780820380516001836020036101000a031916815260200191505b5096505050505050506040516020818303038152906040528051906020012090506117f1565b61222684846119a6565b61223082826119a6565b60408401516001600160a01b03161561228c5781516001600160a01b03161561228c5783604001516001600160a01b031682600001516001600160a01b03161461228c5760405162461bcd60e51b815260040161155e90615a22565b60408201516001600160a01b031615610a405783516001600160a01b031615610a405783600001516001600160a01b031682604001516001600160a01b031614610a405760405162461bcd60e51b815260040161155e90615891565b6000604051806080016040528060438152602001615c3360439139805190602001208260000151836020015184604001518051906020012060405160200180858152602001848152602001836001600160a01b03168152602001828152602001945050505050604051602081830303815290604052805190602001209050919050565b6000612375612d4b565b82604051602001808061190160f01b81525060020183815260200182815260200192505050604051602081830303815290604052805190602001209050919050565b60a081015115806123cb5750428160a00151105b61241c576040805162461bcd60e51b815260206004820152601d60248201527f4f726465722073746172742076616c69646174696f6e206661696c6564000000604482015290519081900360640190fd5b60c081015115806124305750428160c00151115b611cbf576040805162461bcd60e51b815260206004820152601b60248201527f4f7264657220656e642076616c69646174696f6e206661696c65640000000000604482015290519081900360640190fd5b60808201516125065781516001600160a01b0316156125015781516001600160a01b03166124ad612085565b6001600160a01b031614612501576040805162461bcd60e51b815260206004820152601660248201527536b0b5b2b91034b9903737ba103a3c1039b2b73232b960511b604482015290519081900360640190fd5b6119b9565b81516001600160a01b0316612519612085565b6001600160a01b0316146119b957600061253283612d52565b905061254a83600001516001600160a01b0316612bb5565b15612686578251630b135d3f60e11b906001600160a01b0316631626ba7e61257184612e42565b856040518363ffffffff1660e01b81526004018083815260200180602001828103825283818151815260200191508051906020019080838360005b838110156125c45781810151838201526020016125ac565b50505050905090810190601f1680156125f15780820380516001836020036101000a031916815260200191505b50935050505060206040518083038186803b15801561260f57600080fd5b505afa158015612623573d6000803e3d6000fd5b505050506040513d602081101561263957600080fd5b50516001600160e01b031916146126815760405162461bcd60e51b815260040180806020018281038252602b815260200180615ce0602b913960400191505060405180910390fd5b611379565b82516001600160a01b03166126a48361269e84612e42565b90612e4c565b6001600160a01b0316146126e95760405162461bcd60e51b8152600401808060200182810382526022815260200180615cbe6022913960400191505060405180910390fd5b82516001600160a01b0316611379576040805162461bcd60e51b815260206004820152600860248201526737379036b0b5b2b960c11b604482015290519081900360640190fd5b612738614930565b612740614930565b6020840151516060840151516127569190612ecc565b80519092506001600160e01b0319166127815760405162461bcd60e51b815260040161155e906159f6565b6060840151516020840151516127979190612ecc565b80519091506001600160e01b0319166127c25760405162461bcd60e51b815260040161155e906159f6565b9250929050565b6127d1614948565b6127d9614948565b6127e161496b565b60006127ec86612094565b905060006127f986612094565b90506000612805612085565b88519091506001600160a01b0316612824576001600160a01b03811688525b86516001600160a01b0316612840576001600160a01b03811687525b61284988612f0c565b955061285487612f0c565b945061286c888885858a604001518a60400151613005565b93505050509250925092565b60006001600160e01b031983166355575f5d60e11b141561289b5750600161193d565b6001600160e01b031982166355575f5d60e11b14156128bc5750600261193d565b6001600160e01b031983166322ba176160e21b14156128dd5750600161193d565b6001600160e01b031982166322ba176160e21b14156128fe5750600261193d565b6001600160e01b0319831663025ceed960e61b141561291f5750600161193d565b6001600160e01b0319821663025ceed960e61b14156129405750600261193d565b50600092915050565b8251602090810151835190910151600183600281111561296557fe5b14156129e75760408051606081018252610161546001600160a01b038116825265ffffffffffff600160a01b820481166020840152600160d01b90910416918101919091526129b790869086906131c0565b91506129e284600001516000015185600001516020015186608001518860200151886060015161343a565b612ab8565b60028360028111156129f557fe5b1415612a725760408051606081018252610161546001600160a01b038116825265ffffffffffff600160a01b820481166020840152600160d01b9091041691810191909152612a4790859087906131c0565b90506129e285600001516000015186600001516020015187608001518760200151896060015161343a565b845180516020918201516080880151928701516060890151612a9594919061343a565b835180516020918201516080870151928801516060880151612ab894919061343a565b935093915050565b600082821115612b17576040805162461bcd60e51b815260206004820152601e60248201527f536166654d6174683a207375627472616374696f6e206f766572666c6f770000604482015290519081900360640190fd5b50900390565b6040516000906001600160a01b0384169083908381818185875af1925050503d8060008114612b68576040519150601f19603f3d011682016040523d82523d6000602084013e612b6d565b606091505b5050905080611379576040805162461bcd60e51b815260206004820152600f60248201526e1d1c985b9cd9995c8819985a5b1959608a1b604482015290519081900360640190fd5b3b151590565b600054610100900460ff1680612bd45750612bd4611c0f565b80612be2575060005460ff16155b612c1d5760405162461bcd60e51b815260040180806020018281038252602e815260200180615d0b602e913960400191505060405180910390fd5b600054610100900460ff16158015612c48576000805460ff1961ff0019909116610100171660011790555b825160208085019190912083519184019190912060c99190915560ca558015611379576000805461ff0019169055505050565b600061208f6135be565b600033301415612cdc57600080368080601f0160208091040260200160405190810160405280939291908181526020018383808284376000920191909152505050503601516001600160a01b0316915061120a9050565b503390565b8051602091820151805190830120604080517f452a0dc408cb0d27ffc3b3caff933a5208040a53a9dbecd8d89cad2c0d40e00c818601526001600160e01b031990931683820152606080840192909252805180840390920182526080909201909152805191012090565b6101945490565b60007f477ed43b8020849b755512278536c3766a3b4ab547519949a75f483372493f8d8260000151612d8784602001516135c2565b8460400151612d9986606001516135c2565b86608001518760a001518860c001518960e001518a610100015180519060200120604051602001808b81526020018a6001600160a01b03168152602001898152602001886001600160a01b03168152602001878152602001868152602001858152602001848152602001836001600160e01b03191681526020018281526020019a5050505050505050505050604051602081830303815290604052805190602001209050919050565b6000612375613632565b60008151604114612ea4576040805162461bcd60e51b815260206004820152601f60248201527f45434453413a20696e76616c6964207369676e6174757265206c656e67746800604482015290519081900360640190fd5b60208201516040830151606084015160001a612ec28682858561366d565b9695505050505050565b612ed4614930565b6000612ee084846138c3565b80519091506001600160e01b031916612f0557612efd83856138c3565b91505061193d565b905061193d565b612f14614948565b60e08201516001600160e01b031916632611a13360e11b1415612f60576000826101000151806020019051810190612f4c91906153c2565b805183526020908101519083015250612fec565b60e08201516001600160e01b0319166323d235ef60e01b1415612fb8576000826101000151806020019051810190612f98919061544e565b805183526020808201519084015260409081015115159083015250612fec565b60e08201516001600160e01b03199081161415612fd457612fec565b60405162461bcd60e51b815260040161155e90615988565b8051516117f1578151612ffe90613adf565b8152919050565b61300d61496b565b600061301d886080015187613b7a565b9050600061302f886080015187613b7a565b905060006130418a8a85858a8a613b9f565b90508960200151602001516000141580613062575060608901516020015115155b156130855780516130855760405162461bcd60e51b815260040161155e90615901565b60608a0151602001511515806130a157506020808a0151015115155b156130ca5760008160200151116130ca5760405162461bcd60e51b815260040161155e90615901565b60808a01511561311d5785156130fc5780516130e79084906118e0565b600089815261012f602052604090205561311d565b602081015161310c9084906118e0565b600089815261012f60205260409020555b60808901511561317057841561315257602081015161313d9083906118e0565b600088815261012f6020526040902055613170565b805161315f9083906118e0565b600088815261012f60205260409020555b602081015181516040517f956cd63ee4cdcd81fda5f0ec7c6c36dceda99e1b412f4a650a5d26055dc3c450926131ab928c928c929190615716565b60405180910390a19998505050505050505050565b60006131d9846000015160200151838660400151613c38565b90506000613203828660000151602001518760800151868960000151600001518a60600151613ce5565b8551805186515160208089015193015160808a015160608b0151959650613231959394929387929190613d42565b9050846040015151600114801561324d57508360400151516001145b80156132a25750846040015160008151811061326557fe5b6020026020010151600001516001600160a01b0316846040015160008151811061328b57fe5b6020026020010151600001516001600160a01b0316145b156133b857604080516001808252818301909252600091816020015b6132c6614985565b8152602001906001900390816132be57905050905084604001516000815181106132ec57fe5b6020026020010151600001518160008151811061330557fe5b60209081029190910101516001600160a01b0390911690526040860151805160009061332d57fe5b602002602001015160200151856040015160008151811061334a57fe5b602002602001015160200151018160008151811061336457fe5b6020026020010151602001906001600160601b031690816001600160601b0316815250506133ae86600001516000015183886000015160200151848a608001518b60600151613e47565b5091506134119050565b6133e285600001516000015182876000015160200151886040015189608001518a60600151613e47565b50855180516020909101516040870151608089015160608a015194955061340d948693929190613e47565b5090505b6134328560000151600001518287608001518760200151896060015161343a565b509392505050565b600082511161345b5760405162461bcd60e51b815260040161155e9061584d565b600084815b600185510381101561352a5760006134a186838151811061347d57fe5b6020026020010151602001516001600160601b031689613efc90919063ffffffff16565b90506134d68683815181106134b257fe5b6020026020010151602001516001600160601b0316856118e090919063ffffffff16565b93508015613521576134e88382612ac0565b925061352160405180604001604052808b8152602001838152508888858151811061350f57fe5b60200260200101516000015188613f14565b50600101613460565b5060008460018651038151811061353d57fe5b6020026020010151905061356781602001516001600160601b0316846118e090919063ffffffff16565b9250826127101461358a5760405162461bcd60e51b815260040161155e906159bf565b81156135b4576135b460405180604001604052808a81526020018481525087836000015187613f14565b5050505050505050565b4690565b60007fdb6f72e915676cfc289da13bc4ece054fd17b1df6d77ffc4a60510718c236b086135f28360000151612ce1565b8360200151604051602001808481526020018381526020018281526020019350505050604051602081830303815290604052805190602001209050919050565b600061208f7f8b73c3c69bb8fe3d512ecc4cf759cc79239f7b179b0ffacaa9a75d522b39400f61366061431c565b613668614322565b614328565b60007f7fffffffffffffffffffffffffffffff5d576e7357a4501ddfe92f46681b20a08211156136ce5760405162461bcd60e51b8152600401808060200182810382526022815260200180615c9c6022913960400191505060405180910390fd5b6000601e8560ff1611156137a8576004850360ff16601b14806136f757506004850360ff16601c145b6137325760405162461bcd60e51b8152600401808060200182810382526022815260200180615d396022913960400191505060405180910390fd5b600161373d8761438a565b60048703868660405160008152602001604052604051808581526020018460ff1681526020018381526020018281526020019450505050506020604051602081039080840390855afa158015613797573d6000803e3d6000fd5b50505060206040510351905061385f565b8460ff16601b14806137bd57508460ff16601c145b6137f85760405162461bcd60e51b8152600401808060200182810382526022815260200180615d396022913960400191505060405180910390fd5b60018686868660405160008152602001604052604051808581526020018460ff1681526020018381526020018281526020019450505050506020604051602081039080840390855afa158015613852573d6000803e3d6000fd5b5050506020604051035190505b6001600160a01b0381166138ba576040805162461bcd60e51b815260206004820152601860248201527f45434453413a20696e76616c6964207369676e61747572650000000000000000604482015290519081900360640190fd5b95945050505050565b6138cb614930565b825182516001600160e01b031982166355575f5d60e11b1415613936576001600160e01b031981166355575f5d60e11b141561390b57849250505061193d565b505060408051808201825260008082528251602081810190945290815291810191909152905061193d565b6001600160e01b031982166322ba176160e21b141561397b576001600160e01b031981166322ba176160e21b141561390b5761397285856143db565b9250505061193d565b6001600160e01b031982166339d690a360e11b14156139b7576001600160e01b031981166339d690a360e11b141561390b5761397285856143db565b6001600160e01b0319821663025ceed960e61b14156139f3576001600160e01b0319811663025ceed960e61b141561390b5761397285856143db565b6001600160e01b031982166000908152606560205260409020546001600160a01b03168015613aa8576040516306d3f7cb60e41b81526001600160a01b03821690636d3f7cb090613a4a9089908990600401615ab2565b60006040518083038186803b158015613a6257600080fd5b505afa158015613a76573d6000803e3d6000fd5b505050506040513d6000823e601f3d908101601f19168201604052613a9e9190810190615337565b935050505061193d565b6001600160e01b03198381169083161415613ac757613a9e86866143db565b60405162461bcd60e51b815260040161155e906157b1565b60408051600180825281830190925260609160009190816020015b613b02614985565b815260200190600190039081613afa5790505090508281600081518110613b2557fe5b6020026020010151600001906001600160a01b031690816001600160a01b03168152505061271081600081518110613b5957fe5b6020908102919091018101516001600160601b039092169101529050919050565b600082613b895750600061193d565b50600090815261012f6020526040902054919050565b613ba761496b565b600080613bb5898887614438565b91509150600080613bc78a8988614438565b9150915083811180613be157508381148015613be1575083155b15613c0d57613c0284848c60200151602001518d60600151602001516144b1565b945050505050612ec2565b613c298b60200151602001518c60600151602001518484614536565b9b9a5050505050505050505050565b602082015160009065ffffffffffff16815b8351811015613cc557612710848281518110613c6257fe5b6020026020010151602001516001600160601b03161115613c955760405162461bcd60e51b815260040161155e90615959565b838181518110613ca157fe5b6020026020010151602001516001600160601b031682019150806001019050613c4a565b50613cda613cd38683613efc565b86906118e0565b9150505b9392505050565b6000806000613d078989886040015189602001510165ffffffffffff166145bc565b90925090508015613d3657613d3660405180604001604052808781526020018381525088886000015187613f14565b50979650505050505050565b600080613d4e886145de565b905080516001148015613d62575086516001145b8015613daf575086600081518110613d7657fe5b6020026020010151600001516001600160a01b031681600081518110613d9857fe5b6020026020010151600001516001600160a01b0316145b15613e005761138881600081518110613dc457fe5b6020026020010151602001516001600160601b03161115613df75760405162461bcd60e51b815260040161155e906157e8565b85915050613e3c565b600080613e118b8989868a8a613e47565b91509150611388811115613e375760405162461bcd60e51b815260040161155e906157e8565b509150505b979650505050505050565b846000805b8551811015613ef057613e88868281518110613e6457fe5b6020026020010151602001516001600160601b0316836118e090919063ffffffff16565b91506000613eb78489898581518110613e9d57fe5b6020026020010151602001516001600160601b03166145bc565b90945090508015613ee757613ee760405180604001604052808c8152602001838152508789858151811061350f57fe5b50600101613e4c565b50965096945050505050565b600061193a612710613f0e8585614753565b906147ac565b8351516001600160e01b0319166339d690a360e11b141561405a57600080856000015160200151806020019051810190613f4e9190615029565b915091508560200151600114613f765760405162461bcd60e51b815260040161155e906158d5565b6001600160a01b038516301415613fee57604051632142170760e11b81526001600160a01b038316906342842e0e90613fb79030908890869060040161566f565b600060405180830381600087803b158015613fd157600080fd5b505af1158015613fe5573d6000803e3d6000fd5b50505050614053565b604051637b84dc8360e11b81526001600160a01b0384169063f709b90690614020908590899089908790600401615787565b600060405180830381600087803b15801561403a57600080fd5b505af115801561404e573d6000803e3d6000fd5b505050505b5050610a40565b8351516001600160e01b0319166322ba176160e21b14156141b85760008460000151602001518060200190518101906140939190614e1d565b90506001600160a01b03841630141561414a57602085015160405163a9059cbb60e01b81526001600160a01b0383169163a9059cbb916140d79187916004016156cb565b602060405180830381600087803b1580156140f157600080fd5b505af1158015614105573d6000803e3d6000fd5b505050506040513d601f19601f82011682018060405250810190614129919061527f565b6141455760405162461bcd60e51b815260040161155e9061592a565b6141b2565b602085015160405163776062c360e01b81526001600160a01b0384169163776062c39161417f91859189918991600401615787565b600060405180830381600087803b15801561419957600080fd5b505af11580156141ad573d6000803e3d6000fd5b505050505b50610a40565b8351516001600160e01b03191663025ceed960e61b1415614275576000808560000151602001518060200190518101906141f29190615029565b90925090506001600160a01b03851630141561423d576020860151604051637921219560e11b81526001600160a01b0384169163f242432a91613fb791309189918791600401615693565b6020860151604051639c1c2ee960e01b81526001600160a01b03851691639c1c2ee9916140209186918a918a91889190600401615744565b8351516001600160e01b0319166355575f5d60e11b14156142be576001600160a01b03821630146142b95760208401516142b9906001600160a01b03841690612b1d565b610a40565b6040516354bc0cf160e01b81526001600160a01b038216906354bc0cf1906142ee90879087908790600401615ad7565b600060405180830381600087803b15801561430857600080fd5b505af11580156135b4573d6000803e3d6000fd5b60c95490565b60ca5490565b60008383836143356135be565b3060405160200180868152602001858152602001848152602001838152602001826001600160a01b03168152602001955050505050506040516020818303038152906040528051906020012090509392505050565b604080517f19457468657265756d205369676e6564204d6573736167653a0a333200000000602080830191909152603c8083019490945282518083039094018452605c909101909152815191012090565b6143e3614930565b6020808401518051908201208382015180519201919091208082141561440d57849250505061193d565b5050604080518082018252600080825282516020808201909452908152918101919091529392505050565b60008082156144775760208086015101516144539085612ac0565b915061447085606001516020015186602001516020015184614813565b9050612ab8565b60608501516020015161448a9085612ac0565b90506144a785602001516020015186606001516020015183614813565b9150935093915050565b6144b961496b565b60006144c6858585614813565b90508581111561451d576040805162461bcd60e51b815260206004820152601860248201527f66696c6c4c6566743a20756e61626c6520746f2066696c6c0000000000000000604482015290519081900360640190fd5b5050604080518082019091529384525050602082015290565b61453e61496b565b600061454b838787614813565b9050838111156145a2576040805162461bcd60e51b815260206004820152601960248201527f66696c6c52696768743a20756e61626c6520746f2066696c6c00000000000000604482015290519081900360640190fd5b604080518082019091529283526020830152509392505050565b6000806145d2856145cd8686613efc565b614879565b91509150935093915050565b80516060906001600160e01b03191663025ceed960e61b1480614612575081516001600160e01b0319166339d690a360e11b145b156146c85760008083602001518060200190518101906146329190615029565b61016254604051634e53ee3d60e11b81529294509092506001600160a01b031690639ca7dc7a9061466990859085906004016156cb565b600060405180830381600087803b15801561468357600080fd5b505af1158015614697573d6000803e3d6000fd5b505050506040513d6000823e601f3d908101601f191682016040526146bf919081019061524d565b925050506117f1565b81516001600160e01b03191662737ea960e61b141561470957600082602001518060200190518101906146fb9190614e39565b6080015192506117f1915050565b81516001600160e01b03191663d8f960c160e01b141561474b576000826020015180602001905181019061473d9190614f36565b6060015192506117f1915050565b506060919050565b6000826147625750600061193d565b8282028284828161476f57fe5b041461193a5760405162461bcd60e51b8152600401808060200182810382526021815260200180615d5b6021913960400191505060405180910390fd5b6000808211614802576040805162461bcd60e51b815260206004820152601a60248201527f536166654d6174683a206469766973696f6e206279207a65726f000000000000604482015290519081900360640190fd5b81838161480b57fe5b049392505050565b60006148208484846148a1565b15614863576040805162461bcd60e51b815260206004820152600e60248201526d3937bab73234b7339032b93937b960911b604482015290519081900360640190fd5b61487183613f0e8685614753565b949350505050565b600080828411156148985761488e8484612ac0565b91508290506127c2565b50600093915050565b6000826148e8576040805162461bcd60e51b815260206004820152601060248201526f6469766973696f6e206279207a65726f60801b604482015290519081900360640190fd5b8115806148f3575083155b1561490057506000613cde565b6000838061490a57fe5b85840990506149198584614753565b614925826103e8614753565b101595945050505050565b60408051808201909152600081526060602082015290565b604051806060016040528060608152602001606081526020016000151581525090565b604051806040016040528060008152602001600081525090565b604080518082019091526000808252602082015290565b80356117f181615c07565b600082601f8301126149b7578081fd5b813560206149cc6149c783615b9d565b615b7a565b82815281810190858301838502870184018810156149e8578586fd5b855b85811015614a0f5781356149fd81615c07565b845292840192908401906001016149ea565b5090979650505050505050565b600082601f830112614a2c578081fd5b81356020614a3c6149c783615b9d565b8281528181019085830183850287018401881015614a58578586fd5b855b85811015614a0f578135614a6d81615c1c565b84529284019290840190600101614a5a565b600082601f830112614a8f578081fd5b81516020614a9f6149c783615b9d565b82815281810190858301855b85811015614a0f57614ac2898684518b0101614bf6565b84529284019290840190600101614aab565b600082601f830112614ae4578081fd5b81516020614af46149c783615b9d565b82815281810190858301604080860288018501891015614b12578687fd5b865b86811015614b815781838b031215614b2a578788fd5b81518281018181106001600160401b0382111715614b4457fe5b83528351614b5181615c07565b8152838701516001600160601b0381168114614b6b57898afd5b8188015285529385019391810191600101614b14565b509198975050505050505050565b805180151581146117f157600080fd5b80356117f181615c1c565b600082601f830112614bba578081fd5b8135614bc86149c782615bba565b818152846020838601011115614bdc578283fd5b816020850160208301379081016020019190915292915050565b600082601f830112614c06578081fd5b8151614c146149c782615bba565b818152846020838601011115614c28578283fd5b614871826020830160208701615bdb565b60006101e08284031215614c4b578081fd5b50919050565b60006040808385031215614c63578182fd5b80518181016001600160401b038282108183111715614c7e57fe5b818452829450853581811115614c9357600080fd5b8601808803851315614ca457600080fd5b608084018381108382111715614cb657fe5b909452833593614cc585615c1c565b93825260208401359381851115614cdb57600080fd5b614ce788868301614baa565b60608501525050815260209384013593019290925292915050565b6000610120808385031215614d15578182fd5b614d1e81615b7a565b915050614d2a8261499c565b815260208201356001600160401b0380821115614d4657600080fd5b614d5285838601614c51565b6020840152614d636040850161499c565b60408401526060840135915080821115614d7c57600080fd5b614d8885838601614c51565b60608401526080840135608084015260a084013560a084015260c084013560c0840152614db760e08501614b9f565b60e084015261010091508184013581811115614dd257600080fd5b614dde86828701614baa565b8385015250505092915050565b803565ffffffffffff811681146117f157600080fd5b600060208284031215614e12578081fd5b813561193a81615c07565b600060208284031215614e2e578081fd5b815161193a81615c07565b60008060408385031215614e4b578081fd5b8251614e5681615c07565b60208401519092506001600160401b0380821115614e72578283fd5b9084019060c08287031215614e85578283fd5b614e8f60c0615b7a565b82518152602083015182811115614ea4578485fd5b614eb088828601614bf6565b60208301525060408301516040820152606083015182811115614ed1578485fd5b614edd88828601614ad4565b606083015250608083015182811115614ef4578485fd5b614f0088828601614ad4565b60808301525060a083015182811115614f17578485fd5b614f2388828601614a7f565b60a0830152508093505050509250929050565b60008060408385031215614f48578182fd5b8251614f5381615c07565b60208401519092506001600160401b0380821115614f6f578283fd5b9084019060a08287031215614f82578283fd5b614f8c60a0615b7a565b82518152602083015182811115614fa1578485fd5b614fad88828601614bf6565b602083015250604083015182811115614fc4578485fd5b614fd088828601614ad4565b604083015250606083015182811115614fe7578485fd5b614ff388828601614ad4565b60608301525060808301518281111561500a578485fd5b61501688828601614a7f565b6080830152508093505050509250929050565b6000806040838503121561503b578182fd5b825161504681615c07565b6020939093015192949293505050565b600080600080600060a0868803121561506d578081fd5b853561507881615c07565b9450602086013561508881615c07565b935060408601359250606086013561509f81615c07565b915060808601356150af81615c07565b809150509295509295909350565b6000806000806000806000806000806101408b8d0312156150dc578788fd5b6150e58b61499c565b99506150f360208c0161499c565b985060408b0135975061510860608c0161499c565b965061511660808c0161499c565b955061512460a08c0161499c565b945060c08b01356001600160401b038082111561513f578586fd5b61514b8e838f01614a1c565b955060e08d0135915080821115615160578485fd5b5061516d8d828e016149a7565b93505061517d6101008c01614b9f565b915061518c6101208c0161499c565b90509295989b9194979a5092959850565b600080600080600060a086880312156151b4578283fd5b85356151bf81615c07565b945060208601356001600160401b038111156151d9578384fd5b6151e588828901614baa565b9450506040860135925060608601359150608086013560ff811681146150af578182fd5b60008060006060848603121561521d578081fd5b833561522881615c07565b925061523660208501614deb565b915061524460408501614deb565b90509250925092565b60006020828403121561525e578081fd5b81516001600160401b03811115615273578182fd5b61487184828501614ad4565b600060208284031215615290578081fd5b61193a82614b8f565b6000602082840312156152aa578081fd5b5035919050565b6000602082840312156152c2578081fd5b813561193a81615c1c565b600080604083850312156152df578182fd5b82356152ea81615c1c565b915060208301356152fa81615c07565b809150509250929050565b600060208284031215615316578081fd5b81356001600160401b0381111561532b578182fd5b61487184828501614c39565b600060208284031215615348578081fd5b81516001600160401b038082111561535e578283fd5b9083019060408286031215615371578283fd5b60405160408101818110838211171561538657fe5b604052825161539481615c1c565b81526020830151828111156153a7578485fd5b6153b387828601614bf6565b60208301525095945050505050565b6000602082840312156153d3578081fd5b81516001600160401b03808211156153e9578283fd5b90830190604082860312156153fc578283fd5b60405160408101818110838211171561541157fe5b604052825182811115615422578485fd5b61542e87828601614ad4565b825250602083015182811115615442578485fd5b6153b387828601614ad4565b60006020828403121561545f578081fd5b81516001600160401b0380821115615475578283fd5b9083019060608286031215615488578283fd5b60405160608101818110838211171561549d57fe5b6040528251828111156154ae578485fd5b6154ba87828601614ad4565b8252506020830151828111156154ce578485fd5b6154da87828601614ad4565b6020830152506154ec60408401614b8f565b604082015295945050505050565b60006020828403121561550b578081fd5b81356001600160401b03811115615520578182fd5b61487184828501614d02565b60008060008060808587031215615541578182fd5b84356001600160401b0380821115615557578384fd5b61556388838901614d02565b95506020870135915080821115615578578384fd5b61558488838901614baa565b94506040870135915080821115615599578384fd5b6155a588838901614d02565b935060608701359150808211156155ba578283fd5b506155c787828801614baa565b91505092959194509250565b6000602082840312156155e4578081fd5b61193a82614deb565b60008151808452615605816020860160208601615bdb565b601f01601f19169290920160200192915050565b600063ffffffff60e01b825116835260208201516040602085015261487160408501826155ed565b6001600160a01b0391909116815260200190565b6001600160a01b0392831681529116602082015260400190565b6001600160a01b039384168152919092166020820152604081019190915260600190565b6001600160a01b0394851681529290931660208301526040820152606081019190915260a06080820181905260009082015260c00190565b6001600160a01b03929092168252602082015260400190565b6001600160a01b0393909316835265ffffffffffff918216602084015216604082015260600190565b90815260200190565b93845260208401929092526040830152606082015260800190565b60006020825261193a60208301846155ed565b6001600160a01b03958616815293851660208501529190931660408301526060820192909252608081019190915260c060a0820181905260009082015260e00190565b6001600160a01b039485168152928416602084015292166040820152606081019190915260800190565b60208082526017908201527f6e6f7420666f756e64204941737365744d617463686572000000000000000000604082015260600190565b6020808252601d908201527f526f79616c746965732061726520746f6f206869676820283e35302529000000604082015260600190565b6020808252601490820152730c081cd85b1d0818d85b89dd081899481d5cd95960621b604082015260600190565b60208082526024908201527f7472616e736665725061796f7574733a206e6f7468696e6720746f207472616e60408201526339b332b960e11b606082015260800190565b60208082526024908201527f72696768744f726465722e74616b657220766572696669636174696f6e2066616040820152631a5b195960e21b606082015260800190565b60208082526012908201527132b9319b9918903b30b63ab29032b93937b960711b604082015260600190565b6020808252600f908201526e1b9bdd1a1a5b99c81d1bc8199a5b1b608a1b604082015260600190565b602080825260159082015274195c98cc8c081d1c985b9cd9995c8819985a5b1959605a1b604082015260600190565b6020808252601590820152746f726967696e2066656520697320746f6f2062696760581b604082015260600190565b60208082526017908201527f556e6b6e6f776e204f7264657220646174612074797065000000000000000000604082015260600190565b6020808252601e908201527f53756d207061796f75747320427073206e6f7420657175616c20313030250000604082015260600190565b6020808252601290820152710c2e6e6cae8e640c8dedc4ee840dac2e8c6d60731b604082015260600190565b60208082526023908201527f6c6566744f726465722e74616b657220766572696669636174696f6e206661696040820152621b195960ea1b606082015260800190565b6020808252600e908201526d0dcdee840cadcdeeaced040cae8d60931b604082015260600190565b6020808252600b908201526a3737ba10309036b0b5b2b960a91b604082015260600190565b600060408252615ac56040830185615619565b8281036020840152613cda8185615619565b600060608252845160406060840152615af360a0840182615619565b60209687015160808501526001600160a01b03958616968401969096525050911660409091015290565b65ffffffffffff92831681529116602082015260400190565b6000808335601e19843603018112615b4c578283fd5b8301803591506001600160401b03821115615b65578283fd5b6020019150368190038213156127c257600080fd5b6040518181016001600160401b0381118282101715615b9557fe5b604052919050565b60006001600160401b03821115615bb057fe5b5060209081020190565b60006001600160401b03821115615bcd57fe5b50601f01601f191660200190565b60005b83811015615bf6578181015183820152602001615bde565b83811115610a405750506000910152565b6001600160a01b0381168114611cbf57600080fd5b6001600160e01b031981168114611cbf57600080fdfe4d6574615472616e73616374696f6e2875696e74323536206e6f6e63652c616464726573732066726f6d2c62797465732066756e6374696f6e5369676e6174757265294f776e61626c653a206e6577206f776e657220697320746865207a65726f206164647265737345434453413a20696e76616c6964207369676e6174757265202773272076616c75656f72646572207369676e617475726520766572696669636174696f6e206572726f72636f6e7472616374206f72646572207369676e617475726520766572696669636174696f6e206572726f72496e697469616c697a61626c653a20636f6e747261637420697320616c726561647920696e697469616c697a656445434453413a20696e76616c6964207369676e6174757265202776272076616c7565536166654d6174683a206d756c7469706c69636174696f6e206f766572666c6f774f776e61626c653a2063616c6c6572206973206e6f7420746865206f776e65725369676e657220616e64207369676e617475726520646f206e6f74206d61746368a2646970667358221220853fb7961aafe6e2183b94b8e1ed04009e1c58f763f151673e596f036a33a5d064736f6c63430007060033",
  "devdoc": {
    "kind": "dev",
    "methods": {
      "directAcceptBid((address,uint256,bytes4,bytes,uint256,address,uint256,uint256,uint256,bytes4,bytes,bytes,uint256,uint256,bytes))": {
        "details": "function, generate sellOrder and buyOrder from parameters and call validateAndMatch() for accept bid transaction",
        "params": {
          "direct": "struct with parameters for accept bid operation"
        }
      },
      "directPurchase((address,uint256,bytes4,bytes,uint256,address,uint256,uint256,uint256,bytes4,bytes,bytes,uint256,uint256,bytes))": {
        "details": "function, generate sellOrder and buyOrder from parameters and call validateAndMatch() for purchase transaction"
      },
      "owner()": {
        "details": "Returns the address of the current owner."
      },
      "renounceOwnership()": {
        "details": "Leaves the contract without owner. It will not be possible to call `onlyOwner` functions anymore. Can only be called by the current owner. NOTE: Renouncing ownership will leave the contract without an owner, thereby removing any functionality that is only available to the owner."
      },
      "transferOwnership(address)": {
        "details": "Transfers ownership of the contract to a new account (`newOwner`). Can only be called by the current owner."
      }
    },
    "version": 1
  },
  "userdoc": {
    "kind": "user",
    "methods": {},
    "version": 1
  },
  "storageLayout": {
    "storage": [
      {
        "astId": 739,
        "contract": "@rarible/exchange-v2/contracts/ExchangeMetaV2.sol:ExchangeMetaV2",
        "label": "_initialized",
        "offset": 0,
        "slot": "0",
        "type": "t_bool"
      },
      {
        "astId": 742,
        "contract": "@rarible/exchange-v2/contracts/ExchangeMetaV2.sol:ExchangeMetaV2",
        "label": "_initializing",
        "offset": 1,
        "slot": "0",
        "type": "t_bool"
      },
      {
        "astId": 4256,
        "contract": "@rarible/exchange-v2/contracts/ExchangeMetaV2.sol:ExchangeMetaV2",
        "label": "__gap",
        "offset": 0,
        "slot": "1",
        "type": "t_array(t_uint256)50_storage"
      },
      {
        "astId": 10,
        "contract": "@rarible/exchange-v2/contracts/ExchangeMetaV2.sol:ExchangeMetaV2",
        "label": "_owner",
        "offset": 0,
        "slot": "51",
        "type": "t_address"
      },
      {
        "astId": 129,
        "contract": "@rarible/exchange-v2/contracts/ExchangeMetaV2.sol:ExchangeMetaV2",
        "label": "__gap",
        "offset": 0,
        "slot": "52",
        "type": "t_array(t_uint256)49_storage"
      },
      {
        "astId": 11953,
        "contract": "@rarible/exchange-v2/contracts/ExchangeMetaV2.sol:ExchangeMetaV2",
        "label": "matchers",
        "offset": 0,
        "slot": "101",
        "type": "t_mapping(t_bytes4,t_address)"
      },
      {
        "astId": 12218,
        "contract": "@rarible/exchange-v2/contracts/ExchangeMetaV2.sol:ExchangeMetaV2",
        "label": "__gap",
        "offset": 0,
        "slot": "102",
        "type": "t_array(t_uint256)49_storage"
      },
      {
        "astId": 31747,
        "contract": "@rarible/exchange-v2/contracts/ExchangeMetaV2.sol:ExchangeMetaV2",
        "label": "proxies",
        "offset": 0,
        "slot": "151",
        "type": "t_mapping(t_bytes4,t_address)"
      },
      {
        "astId": 32063,
        "contract": "@rarible/exchange-v2/contracts/ExchangeMetaV2.sol:ExchangeMetaV2",
        "label": "__gap",
        "offset": 0,
        "slot": "152",
        "type": "t_array(t_uint256)49_storage"
      },
      {
        "astId": 138,
        "contract": "@rarible/exchange-v2/contracts/ExchangeMetaV2.sol:ExchangeMetaV2",
        "label": "_HASHED_NAME",
        "offset": 0,
        "slot": "201",
        "type": "t_bytes32"
      },
      {
        "astId": 140,
        "contract": "@rarible/exchange-v2/contracts/ExchangeMetaV2.sol:ExchangeMetaV2",
        "label": "_HASHED_VERSION",
        "offset": 0,
        "slot": "202",
        "type": "t_bytes32"
      },
      {
        "astId": 289,
        "contract": "@rarible/exchange-v2/contracts/ExchangeMetaV2.sol:ExchangeMetaV2",
        "label": "__gap",
        "offset": 0,
        "slot": "203",
        "type": "t_array(t_uint256)50_storage"
      },
      {
        "astId": 13603,
        "contract": "@rarible/exchange-v2/contracts/ExchangeMetaV2.sol:ExchangeMetaV2",
        "label": "__gap",
        "offset": 0,
        "slot": "253",
        "type": "t_array(t_uint256)50_storage"
      },
      {
        "astId": 12535,
        "contract": "@rarible/exchange-v2/contracts/ExchangeMetaV2.sol:ExchangeMetaV2",
        "label": "fills",
        "offset": 0,
        "slot": "303",
        "type": "t_mapping(t_bytes32,t_uint256)"
      },
      {
        "astId": 13467,
        "contract": "@rarible/exchange-v2/contracts/ExchangeMetaV2.sol:ExchangeMetaV2",
        "label": "__gap",
        "offset": 0,
        "slot": "304",
        "type": "t_array(t_uint256)49_storage"
      },
      {
        "astId": 30674,
        "contract": "@rarible/exchange-v2/contracts/ExchangeMetaV2.sol:ExchangeMetaV2",
        "label": "protocolFee",
        "offset": 0,
        "slot": "353",
        "type": "t_struct(ProtocolFeeData)30710_storage"
      },
      {
        "astId": 30676,
        "contract": "@rarible/exchange-v2/contracts/ExchangeMetaV2.sol:ExchangeMetaV2",
        "label": "royaltiesRegistry",
        "offset": 0,
        "slot": "354",
        "type": "t_contract(IRoyaltiesProvider)11922"
      },
      {
        "astId": 30678,
        "contract": "@rarible/exchange-v2/contracts/ExchangeMetaV2.sol:ExchangeMetaV2",
        "label": "defaultFeeReceiver",
        "offset": 0,
        "slot": "355",
        "type": "t_address"
      },
      {
        "astId": 30682,
        "contract": "@rarible/exchange-v2/contracts/ExchangeMetaV2.sol:ExchangeMetaV2",
        "label": "feeReceivers",
        "offset": 0,
        "slot": "356",
        "type": "t_mapping(t_address,t_address)"
      },
      {
        "astId": 31723,
        "contract": "@rarible/exchange-v2/contracts/ExchangeMetaV2.sol:ExchangeMetaV2",
        "label": "__gap",
        "offset": 0,
        "slot": "357",
        "type": "t_array(t_uint256)46_storage"
      },
      {
        "astId": 19515,
        "contract": "@rarible/exchange-v2/contracts/ExchangeMetaV2.sol:ExchangeMetaV2",
        "label": "nonces",
        "offset": 0,
        "slot": "403",
        "type": "t_mapping(t_address,t_uint256)"
      },
      {
        "astId": 19517,
        "contract": "@rarible/exchange-v2/contracts/ExchangeMetaV2.sol:ExchangeMetaV2",
        "label": "domainSeparator",
        "offset": 0,
        "slot": "404",
        "type": "t_bytes32"
      }
    ],
    "types": {
      "t_address": {
        "encoding": "inplace",
        "label": "address",
        "numberOfBytes": "20"
      },
      "t_array(t_uint256)46_storage": {
        "base": "t_uint256",
        "encoding": "inplace",
        "label": "uint256[46]",
        "numberOfBytes": "1472"
      },
      "t_array(t_uint256)49_storage": {
        "base": "t_uint256",
        "encoding": "inplace",
        "label": "uint256[49]",
        "numberOfBytes": "1568"
      },
      "t_array(t_uint256)50_storage": {
        "base": "t_uint256",
        "encoding": "inplace",
        "label": "uint256[50]",
        "numberOfBytes": "1600"
      },
      "t_bool": {
        "encoding": "inplace",
        "label": "bool",
        "numberOfBytes": "1"
      },
      "t_bytes32": {
        "encoding": "inplace",
        "label": "bytes32",
        "numberOfBytes": "32"
      },
      "t_bytes4": {
        "encoding": "inplace",
        "label": "bytes4",
        "numberOfBytes": "4"
      },
      "t_contract(IRoyaltiesProvider)11922": {
        "encoding": "inplace",
        "label": "contract IRoyaltiesProvider",
        "numberOfBytes": "20"
      },
      "t_mapping(t_address,t_address)": {
        "encoding": "mapping",
        "key": "t_address",
        "label": "mapping(address => address)",
        "numberOfBytes": "32",
        "value": "t_address"
      },
      "t_mapping(t_address,t_uint256)": {
        "encoding": "mapping",
        "key": "t_address",
        "label": "mapping(address => uint256)",
        "numberOfBytes": "32",
        "value": "t_uint256"
      },
      "t_mapping(t_bytes32,t_uint256)": {
        "encoding": "mapping",
        "key": "t_bytes32",
        "label": "mapping(bytes32 => uint256)",
        "numberOfBytes": "32",
        "value": "t_uint256"
      },
      "t_mapping(t_bytes4,t_address)": {
        "encoding": "mapping",
        "key": "t_bytes4",
        "label": "mapping(bytes4 => address)",
        "numberOfBytes": "32",
        "value": "t_address"
      },
      "t_struct(ProtocolFeeData)30710_storage": {
        "encoding": "inplace",
        "label": "struct RaribleTransferManager.ProtocolFeeData",
        "members": [
          {
            "astId": 30705,
            "contract": "@rarible/exchange-v2/contracts/ExchangeMetaV2.sol:ExchangeMetaV2",
            "label": "receiver",
            "offset": 0,
            "slot": "0",
            "type": "t_address"
          },
          {
            "astId": 30707,
            "contract": "@rarible/exchange-v2/contracts/ExchangeMetaV2.sol:ExchangeMetaV2",
            "label": "buyerAmount",
            "offset": 20,
            "slot": "0",
            "type": "t_uint48"
          },
          {
            "astId": 30709,
            "contract": "@rarible/exchange-v2/contracts/ExchangeMetaV2.sol:ExchangeMetaV2",
            "label": "sellerAmount",
            "offset": 26,
            "slot": "0",
            "type": "t_uint48"
          }
        ],
        "numberOfBytes": "32"
      },
      "t_uint256": {
        "encoding": "inplace",
        "label": "uint256",
        "numberOfBytes": "32"
      },
      "t_uint48": {
        "encoding": "inplace",
        "label": "uint48",
        "numberOfBytes": "6"
      }
    }
  }
}