{
  "address": "0x1e762E0B18280Fe4E87a48D4e4F6c5419dF18476",
  "abi": [
    {
      "anonymous": false,
      "inputs": [
        {
          "indexed": true,
          "internalType": "address",
          "name": "previousOwner",
          "type": "address"
        },
        {
          "indexed": true,
          "internalType": "address",
          "name": "newOwner",
          "type": "address"
        }
      ],
      "name": "OwnershipTransferred",
      "type": "event"
    },
    {
      "anonymous": false,
      "inputs": [
        {
          "indexed": true,
          "internalType": "address",
          "name": "token",
          "type": "address"
        },
        {
          "components": [
            {
              "internalType": "address payable",
              "name": "account",
              "type": "address"
            },
            {
              "internalType": "uint96",
              "name": "value",
              "type": "uint96"
            }
          ],
          "indexed": false,
          "internalType": "struct LibPart.Part[]",
          "name": "royalties",
          "type": "tuple[]"
        }
      ],
      "name": "RoyaltiesSetForContract",
      "type": "event"
    },
    {
      "anonymous": false,
      "inputs": [
        {
          "indexed": true,
          "internalType": "address",
          "name": "token",
          "type": "address"
        },
        {
          "indexed": true,
          "internalType": "uint256",
          "name": "tokenId",
          "type": "uint256"
        },
        {
          "components": [
            {
              "internalType": "address payable",
              "name": "account",
              "type": "address"
            },
            {
              "internalType": "uint96",
              "name": "value",
              "type": "uint96"
            }
          ],
          "indexed": false,
          "internalType": "struct LibPart.Part[]",
          "name": "royalties",
          "type": "tuple[]"
        }
      ],
      "name": "RoyaltiesSetForToken",
      "type": "event"
    },
    {
      "inputs": [],
      "name": "__RoyaltiesRegistry_init",
      "outputs": [],
      "stateMutability": "nonpayable",
      "type": "function"
    },
    {
      "inputs": [
        {
          "internalType": "address",
          "name": "_initialOwner",
          "type": "address"
        }
      ],
      "name": "__RoyaltiesRegistry_init_proxy",
      "outputs": [],
      "stateMutability": "nonpayable",
      "type": "function"
    },
    {
      "inputs": [
        {
          "internalType": "address",
          "name": "token",
          "type": "address"
        }
      ],
      "name": "clearRoyaltiesType",
      "outputs": [],
      "stateMutability": "nonpayable",
      "type": "function"
    },
    {
      "inputs": [
        {
          "internalType": "address",
          "name": "token",
          "type": "address"
        },
        {
          "internalType": "uint256",
          "name": "royaltiesType",
          "type": "uint256"
        }
      ],
      "name": "forceSetRoyaltiesType",
      "outputs": [],
      "stateMutability": "nonpayable",
      "type": "function"
    },
    {
      "inputs": [
        {
          "internalType": "address",
          "name": "token",
          "type": "address"
        }
      ],
      "name": "getProvider",
      "outputs": [
        {
          "internalType": "address",
          "name": "",
          "type": "address"
        }
      ],
      "stateMutability": "view",
      "type": "function"
    },
    {
      "inputs": [
        {
          "internalType": "address",
          "name": "token",
          "type": "address"
        },
        {
          "internalType": "uint256",
          "name": "tokenId",
          "type": "uint256"
        }
      ],
      "name": "getRoyalties",
      "outputs": [
        {
          "components": [
            {
              "internalType": "address payable",
              "name": "account",
              "type": "address"
            },
            {
              "internalType": "uint96",
              "name": "value",
              "type": "uint96"
            }
          ],
          "internalType": "struct LibPart.Part[]",
          "name": "",
          "type": "tuple[]"
        }
      ],
      "stateMutability": "nonpayable",
      "type": "function"
    },
    {
      "inputs": [
        {
          "internalType": "address",
          "name": "token",
          "type": "address"
        }
      ],
      "name": "getRoyaltiesType",
      "outputs": [
        {
          "internalType": "uint256",
          "name": "",
          "type": "uint256"
        }
      ],
      "stateMutability": "view",
      "type": "function"
    },
    {
      "inputs": [],
      "name": "owner",
      "outputs": [
        {
          "internalType": "address",
          "name": "",
          "type": "address"
        }
      ],
      "stateMutability": "view",
      "type": "function"
    },
    {
      "inputs": [],
      "name": "renounceOwnership",
      "outputs": [],
      "stateMutability": "nonpayable",
      "type": "function"
    },
    {
      "inputs": [
        {
          "internalType": "address",
          "name": "",
          "type": "address"
        }
      ],
      "name": "royaltiesByToken",
      "outputs": [
        {
          "internalType": "bool",
          "name": "initialized",
          "type": "bool"
        }
      ],
      "stateMutability": "view",
      "type": "function"
    },
    {
      "inputs": [
        {
          "internalType": "bytes32",
          "name": "",
          "type": "bytes32"
        }
      ],
      "name": "royaltiesByTokenAndTokenId",
      "outputs": [
        {
          "internalType": "bool",
          "name": "initialized",
          "type": "bool"
        }
      ],
      "stateMutability": "view",
      "type": "function"
    },
    {
      "inputs": [
        {
          "internalType": "address",
          "name": "",
          "type": "address"
        }
      ],
      "name": "royaltiesProviders",
      "outputs": [
        {
          "internalType": "uint256",
          "name": "",
          "type": "uint256"
        }
      ],
      "stateMutability": "view",
      "type": "function"
    },
    {
      "inputs": [
        {
          "internalType": "address",
          "name": "token",
          "type": "address"
        },
        {
          "internalType": "address",
          "name": "provider",
          "type": "address"
        }
      ],
      "name": "setProviderByToken",
      "outputs": [],
      "stateMutability": "nonpayable",
      "type": "function"
    },
    {
      "inputs": [
        {
          "internalType": "address",
          "name": "token",
          "type": "address"
        },
        {
          "components": [
            {
              "internalType": "address payable",
              "name": "account",
              "type": "address"
            },
            {
              "internalType": "uint96",
              "name": "value",
              "type": "uint96"
            }
          ],
          "internalType": "struct LibPart.Part[]",
          "name": "royalties",
          "type": "tuple[]"
        }
      ],
      "name": "setRoyaltiesByToken",
      "outputs": [],
      "stateMutability": "nonpayable",
      "type": "function"
    },
    {
      "inputs": [
        {
          "internalType": "address",
          "name": "newOwner",
          "type": "address"
        }
      ],
      "name": "transferOwnership",
      "outputs": [],
      "stateMutability": "nonpayable",
      "type": "function"
    }
  ],
  "transactionHash": "0xda2f564a58cd4133d18a51befae45b0c99f6cadaedf30cea845645abf4ac14dd",
  "args": [],
  "numDeployments": 1,
  "solcInputHash": "25cec8d3d0ea4b0d6c3f88e02b714495",
  "bytecode": "0x608060405234801561001057600080fd5b50611c43806100206000396000f3fe608060405234801561001057600080fd5b50600436106100f55760003560e01c80638da5cb5b11610097578063d836f01311610066578063d836f013146101e9578063f2fde38b146101fc578063f39cc7061461020f578063fc73be0014610222576100f5565b80638da5cb5b1461019b5780639ca7dc7a146101a3578063acf14efb146101c3578063d1da3cce146101d6576100f5565b806336eff6c2116100d357806336eff6c21461014057806355f21eb714610153578063715018a61461017357806382b19f121461017b576100f5565b806305df952f146100fa57806317c44b171461012357806327fff8ab14610138575b600080fd5b61010d610108366004611517565b610235565b60405161011a919061198c565b60405180910390f35b610136610131366004611517565b61024a565b005b6101366102fe565b61013661014e366004611677565b6103a8565b610166610161366004611517565b6103c4565b60405161011a91906118fe565b6101366103e3565b61018e610189366004611517565b6104a1565b60405161011a9190611b2d565b6101666104c9565b6101b66101b1366004611677565b6104d8565b60405161011a919061192b565b6101366101d1366004611587565b610676565b61010d6101e43660046118e6565b6108b2565b6101366101f736600461154f565b6108c7565b61013661020a366004611517565b6108dc565b61018e61021d366004611517565b6109f1565b610136610230366004611517565b610a03565b60666020526000908152604090205460ff1681565b600054610100900460ff16806102635750610263610a34565b80610271575060005460ff16155b6102ac5760405162461bcd60e51b815260040180806020018281038252602e815260200180611be0602e913960400191505060405180910390fd5b600054610100900460ff161580156102d7576000805460ff1961ff0019909116610100171660011790555b6102df610a45565b6102e8826108dc565b80156102fa576000805461ff00191690555b5050565b600054610100900460ff16806103175750610317610a34565b80610325575060005460ff16155b6103605760405162461bcd60e51b815260040180806020018281038252602e815260200180611be0602e913960400191505060405180910390fd5b600054610100900460ff1615801561038b576000805460ff1961ff0019909116610100171660011790555b610393610a45565b80156103a5576000805461ff00191690555b50565b6103b182610b3e565b6102fa82826103bf856103c4565b610c14565b6001600160a01b0381166000908152606760205260409020545b919050565b6103eb610c6b565b6001600160a01b03166103fc6104c9565b6001600160a01b031614610457576040805162461bcd60e51b815260206004820181905260248201527f4f776e61626c653a2063616c6c6572206973206e6f7420746865206f776e6572604482015290519081900360640190fd5b6033546040516000916001600160a01b0316907f8be0079c531659141344cd1fd0a4f28419497f9722a3daafe3b4186f6b6457e0908390a3603380546001600160a01b0319169055565b6001600160a01b0381166000908152606760205260408120546104c390610c6f565b92915050565b6033546001600160a01b031690565b6001600160a01b03821660009081526067602052604081205460609181906104ff82610c6f565b90508061051d576105108683610cad565b905061051d868284610c14565b80600114156105b9576001600160a01b038616600090815260666020908152604080832060010180548251818502810185019093528083529193909284015b828210156105ab57600084815260209081902060408051808201909152908401546001600160a01b0381168252600160a01b90046001600160601b03168183015282526001909201910161055c565b5050505093505050506104c3565b80600214156105d6576105cc8686610ebb565b93505050506104c3565b80600314156105e9576105cc8686610f7b565b80600414156105fd576105cc86868461122f565b8060051415610610576105cc86866112f6565b806006141561065557604080516000808252602082019092529061064a565b6106376114ce565b81526020019060019003908161062f5790505b5093505050506104c3565b60405162461bcd60e51b815260040161066d906119ac565b60405180910390fd5b61067f82610b3e565b6001600160a01b03821660009081526067602052604081208190556106a8908390600190610c14565b6001600160a01b0382166000908152606660205260408120805460ff19168155816106d660018301826114e5565b505060005b82518110156108305760006001600160a01b03168382815181106106fb57fe5b6020026020010151600001516001600160a01b0316141561072e5760405162461bcd60e51b815260040161066d906119e3565b82818151811061073a57fe5b6020026020010151602001516001600160601b03166000141561076f5760405162461bcd60e51b815260040161066d90611ab0565b60666000856001600160a01b03166001600160a01b031681526020019081526020016000206001018382815181106107a357fe5b602090810291909101810151825460018101845560009384529282902081519301805491909201516001600160601b0316600160a01b026001600160a01b039384166001600160a01b031990921691909117909216919091179055825183908290811061080c57fe5b6020026020010151602001516001600160601b0316820191508060010190506106db565b5061271081106108525760405162461bcd60e51b815260040161066d90611a2f565b6001600160a01b03831660008181526066602052604090819020805460ff19166001179055517fc026171b9a7c9009d6a748a19a0a3cb877978a585e1647a87a786d724bbde127906108a590859061192b565b60405180910390a2505050565b60656020526000908152604090205460ff1681565b6108d082610b3e565b6102fa82600483610c14565b6108e4610c6b565b6001600160a01b03166108f56104c9565b6001600160a01b031614610950576040805162461bcd60e51b815260206004820181905260248201527f4f776e61626c653a2063616c6c6572206973206e6f7420746865206f776e6572604482015290519081900360640190fd5b6001600160a01b0381166109955760405162461bcd60e51b8152600401808060200182810382526026815260200180611bba6026913960400191505060405180910390fd5b6033546040516001600160a01b038084169216907f8be0079c531659141344cd1fd0a4f28419497f9722a3daafe3b4186f6b6457e090600090a3603380546001600160a01b0319166001600160a01b0392909216919091179055565b60676020526000908152604090205481565b610a0c81610b3e565b610a15816103c4565b6001600160a01b03918216600090815260676020526040902091169055565b6000610a3f306113c0565b15905090565b600054610100900460ff1680610a5e5750610a5e610a34565b80610a6c575060005460ff16155b610aa75760405162461bcd60e51b815260040180806020018281038252602e815260200180611be0602e913960400191505060405180910390fd5b600054610100900460ff16158015610ad2576000805460ff1961ff0019909116610100171660011790555b6000610adc610c6b565b603380546001600160a01b0319166001600160a01b038316908117909155604051919250906000907f8be0079c531659141344cd1fd0a4f28419497f9722a3daafe3b4186f6b6457e0908290a35080156103a5576000805461ff001916905550565b610b46610c6b565b6001600160a01b0316610b576104c9565b6001600160a01b031614158015610bf75750610b71610c6b565b6001600160a01b0316816001600160a01b0316638da5cb5b6040518163ffffffff1660e01b815260040160206040518083038186803b158015610bb357600080fd5b505afa158015610bc7573d6000803e3d6000fd5b505050506040513d601f19601f82011682018060405250810190610beb9190611533565b6001600160a01b031614155b156103a55760405162461bcd60e51b815260040161066d90611a79565b600082118015610c25575060068211155b610c415760405162461bcd60e51b815260040161066d90611b00565b6001600160a01b03928316600090815260676020526040902092166101009190910360020a019055565b3390565b600060015b60068111610ca457806101000360020a8381610c8c57fe5b0460011415610c9c5790506103de565b600101610c74565b50600092915050565b6040516301ffc9a760e01b81526000906001600160a01b038416906301ffc9a790610ce39063656cb66560e11b90600401611997565b60206040518083038186803b158015610cfb57600080fd5b505afa925050508015610d2b575060408051601f3d908101601f19168201909252610d28918101906118c6565b60015b610d3457610d46565b8015610d445760029150506104c3565b505b6040516301ffc9a760e01b81526001600160a01b038416906301ffc9a790610d7990632dde656160e21b90600401611997565b60206040518083038186803b158015610d9157600080fd5b505afa925050508015610dc1575060408051601f3d908101601f19168201909252610dbe918101906118c6565b60015b610dca57610ddc565b8015610dda5760039150506104c3565b505b6040516301ffc9a760e01b81526001600160a01b038416906301ffc9a790610e0f9063152a902d60e11b90600401611997565b60206040518083038186803b158015610e2757600080fd5b505afa925050508015610e57575060408051601f3d908101601f19168201909252610e54918101906118c6565b60015b610e6057610e72565b8015610e705760059150506104c3565b505b6001600160a01b03821615610e89575060046104c3565b6001600160a01b03831660009081526066602052604090205460ff1615610eb2575060016104c3565b50600692915050565b60405163656cb66560e11b81526060906001600160a01b0384169063cad96cca90610eea908590600401611b2d565b60006040518083038186803b158015610f0257600080fd5b505afa925050508015610f3757506040513d6000823e601f3d908101601f19168201604052610f349190810190611768565b60015b610f74576040805160008082526020820190925290610f6c565b610f596114ce565b815260200190600190039081610f515790505b5090506104c3565b90506104c3565b60405163b9c4d9fb60e01b8152606090839082906001600160a01b0383169063b9c4d9fb90610fae908790600401611b2d565b60006040518083038186803b158015610fc657600080fd5b505afa925050508015610ffb57506040513d6000823e601f3d908101601f19168201604052610ff891908101906116cf565b60015b61103a576040805160008082526020820190925290611030565b61101d6114ce565b8152602001906001900390816110155790505b50925050506104c3565b9050604051630ebd4c7f60e01b81526060906001600160a01b03841690630ebd4c7f9061106b908890600401611b2d565b60006040518083038186803b15801561108357600080fd5b505afa9250505080156110b857506040513d6000823e601f3d908101601f191682016040526110b59190810190611842565b60015b6110f757604080516000808252602082019092529061064a565b6110da6114ce565b8152602001906001900390816110d25790505093505050506104c3565b9050815181511461113d57604080516000808252602082019092529061064a565b6111206114ce565b8152602001906001900390816111185790505093505050506104c3565b6000815167ffffffffffffffff8111801561115757600080fd5b5060405190808252806020026020018201604052801561119157816020015b61117e6114ce565b8152602001906001900390816111765790505b50905060005b8251811015611224578281815181106111ac57fe5b60200260200101518282815181106111c057fe5b6020026020010151602001906001600160601b031690816001600160601b0316815250508381815181106111f057fe5b602002602001015182828151811061120457fe5b60209081029190910101516001600160a01b039091169052600101611197565b509695505050505050565b604051634e53ee3d60e11b81526060906001600160a01b03831690639ca7dc7a906112609087908790600401611912565b600060405180830381600087803b15801561127a57600080fd5b505af19250505080156112af57506040513d6000823e601f3d908101601f191682016040526112ac9190810190611768565b60015b6112ec5760408051600080825260208201909252906112e4565b6112d16114ce565b8152602001906001900390816112c95790505b5090506112ef565b90505b9392505050565b60405163152a902d60e11b81526060906001600160a01b03841690632a55205a9061132a908590620f424090600401611b36565b604080518083038186803b15801561134157600080fd5b505afa925050508015611371575060408051601f3d908101601f1916820190925261136e918101906116a2565b60015b6113ad576040805160008082526020820190925290610f6c565b6113936114ce565b81526020019060019003908161138b5790505090506104c3565b6113b782826113c6565b925050506104c3565b3b151590565b606080826113d55790506104c3565b6000620f424061271085020490506127108110611439576040805162461bcd60e51b815260206004820152601b60248201527f526f79616c746965732032393831206578636565647320313030250000000000604482015290519081900360640190fd5b60408051600180825281830190925290816020015b6114566114ce565b81526020019060019003908161144e579050509150848260008151811061147957fe5b6020026020010151600001906001600160a01b031690816001600160a01b03168152505080826000815181106114ab57fe5b6020908102919091018101516001600160601b0390921691015250905092915050565b604080518082019091526000808252602082015290565b50805460008255906000526020600020908101906103a591905b8082111561151357600081556001016114ff565b5090565b600060208284031215611528578081fd5b81356112ef81611b8f565b600060208284031215611544578081fd5b81516112ef81611b8f565b60008060408385031215611561578081fd5b823561156c81611b8f565b9150602083013561157c81611b8f565b809150509250929050565b600080604080848603121561159a578283fd5b83356115a581611b8f565b925060208481013567ffffffffffffffff808211156115c2578485fd5b818701915087601f8301126115d5578485fd5b81356115e86115e382611b71565b611b4d565b81815284810190848601878402860187018c1015611604578889fd5b8895505b838610156116655787818d03121561161e578889fd5b8751888101818110878211171561163157fe5b8952813561163e81611b8f565b81528188013561164d81611ba4565b81890152835260019590950194918601918701611608565b50809750505050505050509250929050565b60008060408385031215611689578182fd5b823561169481611b8f565b946020939093013593505050565b600080604083850312156116b4578182fd5b82516116bf81611b8f565b6020939093015192949293505050565b600060208083850312156116e1578182fd5b825167ffffffffffffffff8111156116f7578283fd5b8301601f81018513611707578283fd5b80516117156115e382611b71565b8181528381019083850185840285018601891015611731578687fd5b8694505b8385101561175c57805161174881611b8f565b835260019490940193918501918501611735565b50979650505050505050565b6000602080838503121561177a578182fd5b825167ffffffffffffffff80821115611791578384fd5b818501915085601f8301126117a4578384fd5b81516117b26115e382611b71565b818152848101908486016040808502870188018b10156117d0578889fd5b8896505b848710156118335780828c0312156117ea578889fd5b805181810181811088821117156117fd57fe5b8252825161180a81611b8f565b81528289015161181981611ba4565b818a015284526001969096019592870192908101906117d4565b50909998505050505050505050565b60006020808385031215611854578182fd5b825167ffffffffffffffff81111561186a578283fd5b8301601f8101851361187a578283fd5b80516118886115e382611b71565b81815283810190838501858402850186018910156118a4578687fd5b8694505b8385101561175c5780518352600194909401939185019185016118a8565b6000602082840312156118d7578081fd5b815180151581146112ef578182fd5b6000602082840312156118f7578081fd5b5035919050565b6001600160a01b0391909116815260200190565b6001600160a01b03929092168252602082015260400190565b602080825282518282018190526000919060409081850190868401855b8281101561197f57815180516001600160a01b031685528601516001600160601b0316868501529284019290850190600101611948565b5091979650505050505050565b901515815260200190565b6001600160e01b031991909116815260200190565b6020808252601f908201527f736f6d657468696e672077726f6e6720696e20676574526f79616c7469657300604082015260600190565b6020808252602c908201527f526f79616c746965734279546f6b656e20726563697069656e742073686f756c60408201526b19081899481c1c995cd95b9d60a21b606082015260800190565b6020808252602a908201527f53657420627920746f6b656e20726f79616c746965732073756d206d6f72652c604082015269207468616e203130302560b01b606082015260800190565b60208082526018908201527f546f6b656e206f776e6572206e6f742064657465637465640000000000000000604082015260600190565b60208082526030908201527f526f79616c74792076616c756520666f7220526f79616c746965734279546f6b60408201526f0656e2073686f756c64206265203e20360841b606082015260800190565b60208082526013908201527277726f6e6720726f79616c746965735479706560681b604082015260600190565b90815260200190565b9182526001600160601b0316602082015260400190565b60405181810167ffffffffffffffff81118282101715611b6957fe5b604052919050565b600067ffffffffffffffff821115611b8557fe5b5060209081020190565b6001600160a01b03811681146103a557600080fd5b6001600160601b03811681146103a557600080fdfe4f776e61626c653a206e6577206f776e657220697320746865207a65726f2061646472657373496e697469616c697a61626c653a20636f6e747261637420697320616c726561647920696e697469616c697a6564a26469706673582212206011445674d35ef28e96f7be2c7e18367ccbf39ba213446ab0ff8093543dc49764736f6c63430007060033",
  "devdoc": {
    "events": {
      "RoyaltiesSetForContract(address,(address,uint96)[])": {
        "details": "emitted when royalties set for token in "
      },
      "RoyaltiesSetForToken(address,uint256,(address,uint96)[])": {
        "details": "deprecated"
      }
    },
    "kind": "dev",
    "methods": {
      "clearRoyaltiesType(address)": {
        "details": "clears royalties type for token contract"
      },
      "forceSetRoyaltiesType(address,uint256)": {
        "details": "clears and sets new royalties type for token contract"
      },
      "getProvider(address)": {
        "details": "returns provider address for token contract from royaltiesProviders mapping"
      },
      "getRoyalties(address,uint256)": {
        "details": "returns royalties for token contract and token id"
      },
      "getRoyaltiesType(address)": {
        "details": "returns royalties type for token contract"
      },
      "owner()": {
        "details": "Returns the address of the current owner."
      },
      "renounceOwnership()": {
        "details": "Leaves the contract without owner. It will not be possible to call `onlyOwner` functions anymore. Can only be called by the current owner. NOTE: Renouncing ownership will leave the contract without an owner, thereby removing any functionality that is only available to the owner."
      },
      "setProviderByToken(address,address)": {
        "details": "sets external provider for token contract, and royalties type = 4"
      },
      "setRoyaltiesByToken(address,(address,uint96)[])": {
        "details": "sets royalties for token contract in royaltiesByToken mapping and royalties type = 1"
      },
      "transferOwnership(address)": {
        "details": "Transfers ownership of the contract to a new account (`newOwner`). Can only be called by the current owner."
      }
    },
    "stateVariables": {
      "royaltiesByToken": {
        "details": "stores royalties for token contract, set in setRoyaltiesByToken() method"
      },
      "royaltiesByTokenAndTokenId": {
        "details": "deprecated"
      },
      "royaltiesProviders": {
        "details": "stores external provider and royalties type for token contract"
      },
      "royaltiesTypesAmount": {
        "details": "total amount or supported royalties types"
      }
    },
    "version": 1
  },
  "userdoc": {
    "kind": "user",
    "methods": {},
    "version": 1
  },
  "storageLayout": {
    "storage": [
      {
        "astId": 739,
        "contract": "@rarible/royalties-registry/contracts/RoyaltiesRegistry.sol:RoyaltiesRegistry",
        "label": "_initialized",
        "offset": 0,
        "slot": "0",
        "type": "t_bool"
      },
      {
        "astId": 742,
        "contract": "@rarible/royalties-registry/contracts/RoyaltiesRegistry.sol:RoyaltiesRegistry",
        "label": "_initializing",
        "offset": 1,
        "slot": "0",
        "type": "t_bool"
      },
      {
        "astId": 4256,
        "contract": "@rarible/royalties-registry/contracts/RoyaltiesRegistry.sol:RoyaltiesRegistry",
        "label": "__gap",
        "offset": 0,
        "slot": "1",
        "type": "t_array(t_uint256)50_storage"
      },
      {
        "astId": 10,
        "contract": "@rarible/royalties-registry/contracts/RoyaltiesRegistry.sol:RoyaltiesRegistry",
        "label": "_owner",
        "offset": 0,
        "slot": "51",
        "type": "t_address"
      },
      {
        "astId": 129,
        "contract": "@rarible/royalties-registry/contracts/RoyaltiesRegistry.sol:RoyaltiesRegistry",
        "label": "__gap",
        "offset": 0,
        "slot": "52",
        "type": "t_array(t_uint256)49_storage"
      },
      {
        "astId": 20000,
        "contract": "@rarible/royalties-registry/contracts/RoyaltiesRegistry.sol:RoyaltiesRegistry",
        "label": "royaltiesByTokenAndTokenId",
        "offset": 0,
        "slot": "101",
        "type": "t_mapping(t_bytes32,t_struct(RoyaltiesSet)19995_storage)"
      },
      {
        "astId": 20005,
        "contract": "@rarible/royalties-registry/contracts/RoyaltiesRegistry.sol:RoyaltiesRegistry",
        "label": "royaltiesByToken",
        "offset": 0,
        "slot": "102",
        "type": "t_mapping(t_address,t_struct(RoyaltiesSet)19995_storage)"
      },
      {
        "astId": 20010,
        "contract": "@rarible/royalties-registry/contracts/RoyaltiesRegistry.sol:RoyaltiesRegistry",
        "label": "royaltiesProviders",
        "offset": 0,
        "slot": "103",
        "type": "t_mapping(t_address,t_uint256)"
      },
      {
        "astId": 20805,
        "contract": "@rarible/royalties-registry/contracts/RoyaltiesRegistry.sol:RoyaltiesRegistry",
        "label": "__gap",
        "offset": 0,
        "slot": "104",
        "type": "t_array(t_uint256)46_storage"
      }
    ],
    "types": {
      "t_address": {
        "encoding": "inplace",
        "label": "address",
        "numberOfBytes": "20"
      },
      "t_address_payable": {
        "encoding": "inplace",
        "label": "address payable",
        "numberOfBytes": "20"
      },
      "t_array(t_struct(Part)19269_storage)dyn_storage": {
        "base": "t_struct(Part)19269_storage",
        "encoding": "dynamic_array",
        "label": "struct LibPart.Part[]",
        "numberOfBytes": "32"
      },
      "t_array(t_uint256)46_storage": {
        "base": "t_uint256",
        "encoding": "inplace",
        "label": "uint256[46]",
        "numberOfBytes": "1472"
      },
      "t_array(t_uint256)49_storage": {
        "base": "t_uint256",
        "encoding": "inplace",
        "label": "uint256[49]",
        "numberOfBytes": "1568"
      },
      "t_array(t_uint256)50_storage": {
        "base": "t_uint256",
        "encoding": "inplace",
        "label": "uint256[50]",
        "numberOfBytes": "1600"
      },
      "t_bool": {
        "encoding": "inplace",
        "label": "bool",
        "numberOfBytes": "1"
      },
      "t_bytes32": {
        "encoding": "inplace",
        "label": "bytes32",
        "numberOfBytes": "32"
      },
      "t_mapping(t_address,t_struct(RoyaltiesSet)19995_storage)": {
        "encoding": "mapping",
        "key": "t_address",
        "label": "mapping(address => struct RoyaltiesRegistry.RoyaltiesSet)",
        "numberOfBytes": "32",
        "value": "t_struct(RoyaltiesSet)19995_storage"
      },
      "t_mapping(t_address,t_uint256)": {
        "encoding": "mapping",
        "key": "t_address",
        "label": "mapping(address => uint256)",
        "numberOfBytes": "32",
        "value": "t_uint256"
      },
      "t_mapping(t_bytes32,t_struct(RoyaltiesSet)19995_storage)": {
        "encoding": "mapping",
        "key": "t_bytes32",
        "label": "mapping(bytes32 => struct RoyaltiesRegistry.RoyaltiesSet)",
        "numberOfBytes": "32",
        "value": "t_struct(RoyaltiesSet)19995_storage"
      },
      "t_struct(Part)19269_storage": {
        "encoding": "inplace",
        "label": "struct LibPart.Part",
        "members": [
          {
            "astId": 19266,
            "contract": "@rarible/royalties-registry/contracts/RoyaltiesRegistry.sol:RoyaltiesRegistry",
            "label": "account",
            "offset": 0,
            "slot": "0",
            "type": "t_address_payable"
          },
          {
            "astId": 19268,
            "contract": "@rarible/royalties-registry/contracts/RoyaltiesRegistry.sol:RoyaltiesRegistry",
            "label": "value",
            "offset": 20,
            "slot": "0",
            "type": "t_uint96"
          }
        ],
        "numberOfBytes": "32"
      },
      "t_struct(RoyaltiesSet)19995_storage": {
        "encoding": "inplace",
        "label": "struct RoyaltiesRegistry.RoyaltiesSet",
        "members": [
          {
            "astId": 19991,
            "contract": "@rarible/royalties-registry/contracts/RoyaltiesRegistry.sol:RoyaltiesRegistry",
            "label": "initialized",
            "offset": 0,
            "slot": "0",
            "type": "t_bool"
          },
          {
            "astId": 19994,
            "contract": "@rarible/royalties-registry/contracts/RoyaltiesRegistry.sol:RoyaltiesRegistry",
            "label": "royalties",
            "offset": 0,
            "slot": "1",
            "type": "t_array(t_struct(Part)19269_storage)dyn_storage"
          }
        ],
        "numberOfBytes": "64"
      },
      "t_uint256": {
        "encoding": "inplace",
        "label": "uint256",
        "numberOfBytes": "32"
      },
      "t_uint96": {
        "encoding": "inplace",
        "label": "uint96",
        "numberOfBytes": "12"
      }
    }
  }
}