{
  "contractName": "WyvernExchangeProxy",
  "abi": [
    {
      "inputs": [],
      "name": "feeReceiver",
      "outputs": [
        {
          "internalType": "address",
          "name": "",
          "type": "address"
        }
      ],
      "stateMutability": "view",
      "type": "function"
    },
    {
      "inputs": [],
      "name": "protocolFee",
      "outputs": [
        {
          "internalType": "uint256",
          "name": "",
          "type": "uint256"
        }
      ],
      "stateMutability": "view",
      "type": "function"
    },
    {
      "inputs": [],
      "name": "wyvernExchange",
      "outputs": [
        {
          "internalType": "contract IWyvernExchange",
          "name": "",
          "type": "address"
        }
      ],
      "stateMutability": "view",
      "type": "function"
    },
    {
      "inputs": [
        {
          "internalType": "contract IWyvernExchange",
          "name": "newWyvernExchange",
          "type": "address"
        }
      ],
      "name": "setWyvernExchange",
      "outputs": [],
      "stateMutability": "nonpayable",
      "type": "function"
    },
    {
      "inputs": [
        {
          "internalType": "address",
          "name": "wallet",
          "type": "address"
        }
      ],
      "name": "setFeeReceiver",
      "outputs": [],
      "stateMutability": "nonpayable",
      "type": "function"
    },
    {
      "inputs": [
        {
          "internalType": "address[14]",
          "name": "addrs",
          "type": "address[14]"
        },
        {
          "internalType": "uint256[18]",
          "name": "uints",
          "type": "uint256[18]"
        },
        {
          "internalType": "uint8[8]",
          "name": "feeMethodsSidesKindsHowToCalls",
          "type": "uint8[8]"
        },
        {
          "internalType": "bytes",
          "name": "calldataBuy",
          "type": "bytes"
        },
        {
          "internalType": "bytes",
          "name": "calldataSell",
          "type": "bytes"
        },
        {
          "internalType": "bytes",
          "name": "replacementPatternBuy",
          "type": "bytes"
        },
        {
          "internalType": "bytes",
          "name": "replacementPatternSell",
          "type": "bytes"
        },
        {
          "internalType": "bytes",
          "name": "staticExtradataBuy",
          "type": "bytes"
        },
        {
          "internalType": "bytes",
          "name": "staticExtradataSell",
          "type": "bytes"
        },
        {
          "internalType": "uint8[2]",
          "name": "vs",
          "type": "uint8[2]"
        },
        {
          "internalType": "bytes32[5]",
          "name": "rssMetadata",
          "type": "bytes32[5]"
        }
      ],
      "name": "atomicMatch_",
      "outputs": [],
      "stateMutability": "payable",
      "type": "function"
    }
  ],
  "bytecode": "0x608060405234801561001057600080fd5b5061083b806100206000396000f3fe6080604052600436106100555760003560e01c8063ab834bab1461005a578063b0e21e8a1461006f578063b3f006741461009a578063c9f0a2fa146100bc578063dbd18d31146100d1578063efdcd974146100f1575b600080fd5b61006d61006836600461046f565b610111565b005b34801561007b57600080fd5b50610084610194565b60405161009191906107c0565b60405180910390f35b3480156100a657600080fd5b506100af61019a565b60405161009191906106b1565b3480156100c857600080fd5b506100af6101a9565b3480156100dd57600080fd5b5061006d6100ec366004610453565b6101b8565b3480156100fd57600080fd5b5061006d61010c366004610453565b6101da565b60005460405163ab834bab60e01b81526001600160a01b039091169063ab834bab90610155908e908e908e908e908e908e908e908e908e908e908e906004016106c5565b600060405180830381600087803b15801561016f57600080fd5b505af1158015610183573d6000803e3d6000fd5b505050505050505050505050505050565b60025481565b6001546001600160a01b031681565b6000546001600160a01b031681565b600080546001600160a01b0319166001600160a01b0392909216919091179055565b600180546001600160a01b0319166001600160a01b0392909216919091179055565b600067ffffffffffffffff83111561021057fe5b602080840261021e816107c9565b9250828487838701111561023157600080fd5b60009250825b8781101561026157813560ff8116811461024f578485fd5b83529184019190840190600101610237565b50505050509392505050565b600082601f83011261027d578081fd5b6040516101c080820182811067ffffffffffffffff8211171561029c57fe5b60405281848281018710156102af578485fd5b8492505b600e8310156102dc5780356102c7816107ed565b825260019290920191602091820191016102b3565b509195945050505050565b600082601f8301126102f7578081fd5b60405160a0810181811067ffffffffffffffff8211171561031457fe5b604052808360a08101861015610328578384fd5b835b60058110156102dc57813583526020928301929091019060010161032a565b600082601f830112610359578081fd5b60405161024080820182811067ffffffffffffffff8211171561037857fe5b604052818482810187101561038b578485fd5b8492505b60128310156102dc5780358252600192909201916020918201910161038f565b600082601f8301126103bf578081fd5b6103cb836002846101fc565b9392505050565b600082601f8301126103e2578081fd5b6103cb836008846101fc565b600082601f8301126103fe578081fd5b813567ffffffffffffffff81111561041257fe5b610425601f8201601f19166020016107c9565b818152846020838601011115610439578283fd5b816020850160208301379081016020019190915292915050565b600060208284031215610464578081fd5b81356103cb816107ed565b60008060008060008060008060008060006106a08c8e031215610490578687fd5b61049a8d8d61026d565b9a506104aa8d6101c08e01610349565b99506104ba8d6104008e016103d2565b985067ffffffffffffffff806105008e013511156104d6578788fd5b6104e78e6105008f01358f016103ee565b9850806105208e013511156104fa578788fd5b61050b8e6105208f01358f016103ee565b9750806105408e0135111561051e578687fd5b61052f8e6105408f01358f016103ee565b9650806105608e01351115610542578586fd5b6105538e6105608f01358f016103ee565b9550806105808e01351115610566578485fd5b6105778e6105808f01358f016103ee565b9450806105a08e0135111561058a578384fd5b5061059c8d6105a08e01358e016103ee565b92506105ac8d6105c08e016103af565b91506105bc8d6106008e016102e7565b90509295989b509295989b9093969950565b8060005b60058110156105f15781518452602093840193909101906001016105d2565b50505050565b8060005b60128110156105f15781518452602093840193909101906001016105fb565b8060005b60028110156105f157815160ff1684526020938401939091019060010161061e565b8060005b60088110156105f157815160ff16845260209384019390910190600101610644565b60008151808452815b8181101561068b5760208185018101518683018201520161066f565b8181111561069c5782602083870101525b50601f01601f19169290920160200192915050565b6001600160a01b0391909116815260200190565b60006106a0828e835b600e8110156106f65781516001600160a01b03168352602092830192909101906001016106ce565b5050506107076101c084018e6105f7565b61071561040084018d610640565b806105008401526107288184018c610666565b905082810361052084015261073d818b610666565b9050828103610540840152610752818a610666565b90508281036105608401526107678189610666565b905082810361058084015261077c8188610666565b90508281036105a08401526107918187610666565b9150506107a26105c083018561061a565b6107b06106008301846105ce565b9c9b505050505050505050505050565b90815260200190565b60405181810167ffffffffffffffff811182821017156107e557fe5b604052919050565b6001600160a01b038116811461080257600080fd5b5056fea26469706673582212202a7e7bb339b5fd274cde58ff1027c7f7cb5783ed792c7f5c396d217d46cd1dfd64736f6c63430007060033",
  "immutableReferences": {},
  "source": "// SPDX-License-Identifier: MIT\npragma solidity ^0.7.6;\npragma abicoder v2;\n\nimport \"@rarible/exchange-interfaces/contracts/IWyvernExchange.sol\";\nimport \"@rarible/libraries/contracts/LibWyvernData.sol\";\n\ncontract WyvernExchangeProxy {\n    IWyvernExchange public wyvernExchange;\n    address public feeReceiver;\n    uint public protocolFee;\n\n    function setWyvernExchange (IWyvernExchange newWyvernExchange) external { //todo onlyOwner\n        wyvernExchange = newWyvernExchange;\n    }\n\n    function setFeeReceiver(address wallet) external {//todo onlyOwner\n        feeReceiver = wallet;\n    }\n\n    function atomicMatch_(\n        address[14] memory addrs,\n        uint[18] memory uints,\n        uint8[8] memory feeMethodsSidesKindsHowToCalls,\n//        LibWyvernData.DataBytes memory data,\n        bytes memory calldataBuy,\n        bytes memory calldataSell,\n        bytes memory replacementPatternBuy,\n        bytes memory replacementPatternSell,\n        bytes memory staticExtradataBuy,\n        bytes memory staticExtradataSell,\n        uint8[2] memory vs,\n        bytes32[5] memory rssMetadata)\n    external payable {\n        wyvernExchange.atomicMatch_(\n        addrs,\n        uints,\n        feeMethodsSidesKindsHowToCalls,\n        calldataBuy,\n        calldataSell,\n        replacementPatternBuy,\n        replacementPatternSell,\n        staticExtradataBuy,\n        staticExtradataSell,\n        vs,\n        rssMetadata);\n    }\n}\n",
  "sourcePath": "/home/sks/Work/project/10/protocol-contracts/proxy-market-places/contracts/WyvernExchangeProxy.sol",
  "compiler": {
    "name": "solc",
    "version": "0.7.6+commit.7338295f.Emscripten.clang"
  },
  "schemaVersion": "3.4.3",
  "updatedAt": "2022-03-02T05:27:47.003Z",
  "devdoc": {
    "kind": "dev",
    "methods": {},
    "version": 1
  },
  "userdoc": {
    "kind": "user",
    "methods": {},
    "version": 1
  }
}