{
  "address": "0xB46589A412df88186b8909844882A236D20EDB0C",
  "abi": [
    {
      "inputs": [
        {
          "components": [
            {
              "components": [
                {
                  "internalType": "address payable",
                  "name": "account",
                  "type": "address"
                },
                {
                  "internalType": "uint96",
                  "name": "value",
                  "type": "uint96"
                }
              ],
              "internalType": "struct LibPart.Part[]",
              "name": "payouts",
              "type": "tuple[]"
            },
            {
              "components": [
                {
                  "internalType": "address payable",
                  "name": "account",
                  "type": "address"
                },
                {
                  "internalType": "uint96",
                  "name": "value",
                  "type": "uint96"
                }
              ],
              "internalType": "struct LibPart.Part[]",
              "name": "originFees",
              "type": "tuple[]"
            }
          ],
          "internalType": "struct LibOrderDataV1.DataV1",
          "name": "data",
          "type": "tuple"
        }
      ],
      "name": "encode",
      "outputs": [
        {
          "internalType": "bytes",
          "name": "",
          "type": "bytes"
        }
      ],
      "stateMutability": "pure",
      "type": "function"
    },
    {
      "inputs": [
        {
          "components": [
            {
              "internalType": "uint256",
              "name": "tokenId",
              "type": "uint256"
            },
            {
              "internalType": "string",
              "name": "tokenURI",
              "type": "string"
            },
            {
              "internalType": "uint256",
              "name": "supply",
              "type": "uint256"
            },
            {
              "components": [
                {
                  "internalType": "address payable",
                  "name": "account",
                  "type": "address"
                },
                {
                  "internalType": "uint96",
                  "name": "value",
                  "type": "uint96"
                }
              ],
              "internalType": "struct LibPart.Part[]",
              "name": "creators",
              "type": "tuple[]"
            },
            {
              "components": [
                {
                  "internalType": "address payable",
                  "name": "account",
                  "type": "address"
                },
                {
                  "internalType": "uint96",
                  "name": "value",
                  "type": "uint96"
                }
              ],
              "internalType": "struct LibPart.Part[]",
              "name": "royalties",
              "type": "tuple[]"
            },
            {
              "internalType": "bytes[]",
              "name": "signatures",
              "type": "bytes[]"
            }
          ],
          "internalType": "struct LibERC1155LazyMint.Mint1155Data",
          "name": "data",
          "type": "tuple"
        },
        {
          "internalType": "address",
          "name": "token",
          "type": "address"
        }
      ],
      "name": "encodeLazy1155",
      "outputs": [
        {
          "internalType": "bytes",
          "name": "",
          "type": "bytes"
        }
      ],
      "stateMutability": "pure",
      "type": "function"
    },
    {
      "inputs": [
        {
          "components": [
            {
              "internalType": "uint256",
              "name": "tokenId",
              "type": "uint256"
            },
            {
              "internalType": "string",
              "name": "tokenURI",
              "type": "string"
            },
            {
              "components": [
                {
                  "internalType": "address payable",
                  "name": "account",
                  "type": "address"
                },
                {
                  "internalType": "uint96",
                  "name": "value",
                  "type": "uint96"
                }
              ],
              "internalType": "struct LibPart.Part[]",
              "name": "creators",
              "type": "tuple[]"
            },
            {
              "components": [
                {
                  "internalType": "address payable",
                  "name": "account",
                  "type": "address"
                },
                {
                  "internalType": "uint96",
                  "name": "value",
                  "type": "uint96"
                }
              ],
              "internalType": "struct LibPart.Part[]",
              "name": "royalties",
              "type": "tuple[]"
            },
            {
              "internalType": "bytes[]",
              "name": "signatures",
              "type": "bytes[]"
            }
          ],
          "internalType": "struct LibERC721LazyMint.Mint721Data",
          "name": "data",
          "type": "tuple"
        },
        {
          "internalType": "address",
          "name": "token",
          "type": "address"
        }
      ],
      "name": "encodeLazy721",
      "outputs": [
        {
          "internalType": "bytes",
          "name": "",
          "type": "bytes"
        }
      ],
      "stateMutability": "pure",
      "type": "function"
    },
    {
      "inputs": [
        {
          "internalType": "address",
          "name": "account",
          "type": "address"
        },
        {
          "internalType": "uint96",
          "name": "value",
          "type": "uint96"
        }
      ],
      "name": "encodeOriginFeeIntoUint",
      "outputs": [
        {
          "internalType": "uint256",
          "name": "",
          "type": "uint256"
        }
      ],
      "stateMutability": "pure",
      "type": "function"
    },
    {
      "inputs": [
        {
          "components": [
            {
              "components": [
                {
                  "internalType": "address payable",
                  "name": "account",
                  "type": "address"
                },
                {
                  "internalType": "uint96",
                  "name": "value",
                  "type": "uint96"
                }
              ],
              "internalType": "struct LibPart.Part[]",
              "name": "payouts",
              "type": "tuple[]"
            },
            {
              "components": [
                {
                  "internalType": "address payable",
                  "name": "account",
                  "type": "address"
                },
                {
                  "internalType": "uint96",
                  "name": "value",
                  "type": "uint96"
                }
              ],
              "internalType": "struct LibPart.Part[]",
              "name": "originFees",
              "type": "tuple[]"
            },
            {
              "internalType": "bool",
              "name": "isMakeFill",
              "type": "bool"
            }
          ],
          "internalType": "struct LibOrderDataV2.DataV2",
          "name": "data",
          "type": "tuple"
        }
      ],
      "name": "encodeV2",
      "outputs": [
        {
          "internalType": "bytes",
          "name": "",
          "type": "bytes"
        }
      ],
      "stateMutability": "pure",
      "type": "function"
    },
    {
      "inputs": [
        {
          "components": [
            {
              "internalType": "uint256",
              "name": "payouts",
              "type": "uint256"
            },
            {
              "internalType": "uint256",
              "name": "originFeeFirst",
              "type": "uint256"
            },
            {
              "internalType": "uint256",
              "name": "originFeeSecond",
              "type": "uint256"
            },
            {
              "internalType": "bytes32",
              "name": "marketplaceMarker",
              "type": "bytes32"
            }
          ],
          "internalType": "struct LibOrderDataV3.DataV3_BUY",
          "name": "data",
          "type": "tuple"
        }
      ],
      "name": "encodeV3_BUY",
      "outputs": [
        {
          "internalType": "bytes",
          "name": "",
          "type": "bytes"
        }
      ],
      "stateMutability": "pure",
      "type": "function"
    },
    {
      "inputs": [
        {
          "components": [
            {
              "internalType": "uint256",
              "name": "payouts",
              "type": "uint256"
            },
            {
              "internalType": "uint256",
              "name": "originFeeFirst",
              "type": "uint256"
            },
            {
              "internalType": "uint256",
              "name": "originFeeSecond",
              "type": "uint256"
            },
            {
              "internalType": "uint256",
              "name": "maxFeesBasePoint",
              "type": "uint256"
            },
            {
              "internalType": "bytes32",
              "name": "marketplaceMarker",
              "type": "bytes32"
            }
          ],
          "internalType": "struct LibOrderDataV3.DataV3_SELL",
          "name": "data",
          "type": "tuple"
        }
      ],
      "name": "encodeV3_SELL",
      "outputs": [
        {
          "internalType": "bytes",
          "name": "",
          "type": "bytes"
        }
      ],
      "stateMutability": "pure",
      "type": "function"
    },
    {
      "inputs": [
        {
          "components": [
            {
              "internalType": "address",
              "name": "maker",
              "type": "address"
            },
            {
              "components": [
                {
                  "components": [
                    {
                      "internalType": "bytes4",
                      "name": "assetClass",
                      "type": "bytes4"
                    },
                    {
                      "internalType": "bytes",
                      "name": "data",
                      "type": "bytes"
                    }
                  ],
                  "internalType": "struct LibAsset.AssetType",
                  "name": "assetType",
                  "type": "tuple"
                },
                {
                  "internalType": "uint256",
                  "name": "value",
                  "type": "uint256"
                }
              ],
              "internalType": "struct LibAsset.Asset",
              "name": "makeAsset",
              "type": "tuple"
            },
            {
              "internalType": "address",
              "name": "taker",
              "type": "address"
            },
            {
              "components": [
                {
                  "components": [
                    {
                      "internalType": "bytes4",
                      "name": "assetClass",
                      "type": "bytes4"
                    },
                    {
                      "internalType": "bytes",
                      "name": "data",
                      "type": "bytes"
                    }
                  ],
                  "internalType": "struct LibAsset.AssetType",
                  "name": "assetType",
                  "type": "tuple"
                },
                {
                  "internalType": "uint256",
                  "name": "value",
                  "type": "uint256"
                }
              ],
              "internalType": "struct LibAsset.Asset",
              "name": "takeAsset",
              "type": "tuple"
            },
            {
              "internalType": "uint256",
              "name": "salt",
              "type": "uint256"
            },
            {
              "internalType": "uint256",
              "name": "start",
              "type": "uint256"
            },
            {
              "internalType": "uint256",
              "name": "end",
              "type": "uint256"
            },
            {
              "internalType": "bytes4",
              "name": "dataType",
              "type": "bytes4"
            },
            {
              "internalType": "bytes",
              "name": "data",
              "type": "bytes"
            }
          ],
          "internalType": "struct LibOrder.Order",
          "name": "order",
          "type": "tuple"
        }
      ],
      "name": "hashKey",
      "outputs": [
        {
          "internalType": "bytes32",
          "name": "",
          "type": "bytes32"
        }
      ],
      "stateMutability": "pure",
      "type": "function"
    },
    {
      "inputs": [
        {
          "internalType": "address",
          "name": "maker",
          "type": "address"
        },
        {
          "components": [
            {
              "components": [
                {
                  "internalType": "bytes4",
                  "name": "assetClass",
                  "type": "bytes4"
                },
                {
                  "internalType": "bytes",
                  "name": "data",
                  "type": "bytes"
                }
              ],
              "internalType": "struct LibAsset.AssetType",
              "name": "assetType",
              "type": "tuple"
            },
            {
              "internalType": "uint256",
              "name": "value",
              "type": "uint256"
            }
          ],
          "internalType": "struct LibAsset.Asset",
          "name": "makeAsset",
          "type": "tuple"
        },
        {
          "components": [
            {
              "components": [
                {
                  "internalType": "bytes4",
                  "name": "assetClass",
                  "type": "bytes4"
                },
                {
                  "internalType": "bytes",
                  "name": "data",
                  "type": "bytes"
                }
              ],
              "internalType": "struct LibAsset.AssetType",
              "name": "assetType",
              "type": "tuple"
            },
            {
              "internalType": "uint256",
              "name": "value",
              "type": "uint256"
            }
          ],
          "internalType": "struct LibAsset.Asset",
          "name": "takeAsset",
          "type": "tuple"
        },
        {
          "internalType": "uint256",
          "name": "salt",
          "type": "uint256"
        },
        {
          "internalType": "bytes",
          "name": "data",
          "type": "bytes"
        }
      ],
      "name": "hashV2",
      "outputs": [
        {
          "internalType": "bytes32",
          "name": "",
          "type": "bytes32"
        }
      ],
      "stateMutability": "pure",
      "type": "function"
    }
  ],
  "transactionHash": "0xf1c760e3c89ee26908090e0dc8793c7c54ae3c716d6cb62488386a3e3e404311",
  "args": [],
  "numDeployments": 1,
  "solcInputHash": "6bd3e189b416974652fe89dcdf00f7eb",
  "bytecode": "0x608060405234801561001057600080fd5b506110df806100206000396000f3fe608060405234801561001057600080fd5b50600436106100935760003560e01c806375ac6ca21161006657806375ac6ca2146101075780637a8050011461011a5780638a2dc0b41461012d5780639a3c40fb146101405780639d461f511461015357610093565b8063058dbeef146100985780634f56cb8d146100c15780634fa8d605146100e15780635613ab11146100f4575b600080fd5b6100ab6100a6366004610bae565b610166565b6040516100b89190610e54565b60405180910390f35b6100d46100cf366004610912565b610181565b6040516100b89190610e5d565b6100ab6100ef3660046106ed565b6101aa565b6100d46101023660046109d8565b6101fc565b6100d4610115366004610ac8565b610228565b6100d4610128366004610970565b61023d565b6100ab61013b36600461078d565b610250565b6100d461014e3660046107c1565b610270565b6100d461016136600461085c565b610283565b600061017961017483610fa9565b610296565b90505b919050565b6060816040516020016101949190610f04565b6040516020818303038152906040529050919050565b6000856101ba866000015161041e565b85516101c59061041e565b85856040516020016101db959493929190610ce7565b60405160208183030381529060405280519060200120905095945050505050565b60608183604051602001610211929190610d25565b604051602081830303815290604052905092915050565b60608183604051602001610211929190610dc7565b6060816040516020016101949190610f2f565b6001600160a01b031960a082901b166001600160a01b0383160192915050565b6060816040516020016101949190610e70565b6060816040516020016101949190610eb2565b60e08101516000906001600160e01b031916632611a13360e11b14806102ca575060e08201516001600160e01b0319908116145b1561033f5781516020830151516102e09061041e565b6060840151516102ef9061041e565b846080015160405160200180856001600160a01b0316815260200184815260200183815260200182815260200194505050505060405160208183030381529060405280519060200120905061017c565b81516020830151516103509061041e565b60608401515161035f9061041e565b846080015185610100015160405160200180866001600160a01b0316815260200185815260200184815260200183815260200180602001828103825283818151815260200191508051906020019080838360005b838110156103cb5781810151838201526020016103b3565b50505050905090810190601f1680156103f85780820380516001836020036101000a031916815260200191505b50965050505050505060405160208183030381529060405280519060200120905061017c565b8051602091820151805190830120604080517f452a0dc408cb0d27ffc3b3caff933a5208040a53a9dbecd8d89cad2c0d40e00c818601526001600160e01b031990931683820152606080840192909252805180840390920182526080909201909152805191012090565b803561017c81611091565b600082601f8301126104a3578081fd5b813560206104b86104b383610f8c565b610f69565b82815281810190858301855b858110156104ed576104db898684358b01016105c0565b845292840192908401906001016104c4565b5090979650505050505050565b600082601f83011261050a578081fd5b8135602061051a6104b383610f8c565b82815281810190858301604080860288018501891015610538578687fd5b865b8681101561059a5781838b031215610550578788fd5b81518281018181106001600160401b038211171561056a57fe5b8352833561057781611091565b81526105848488016106d1565b818801528552938501939181019160010161053a565b509198975050505050505050565b80356001600160e01b03198116811461017c57600080fd5b600082601f8301126105d0578081fd5b81356001600160401b038111156105e357fe5b6105f6601f8201601f1916602001610f69565b81815284602083860101111561060a578283fd5b816020850160208301379081016020019190915292915050565b60006040808385031215610636578182fd5b80518181016001600160401b03828210818311171561065157fe5b81845282945085358181111561066657600080fd5b860180880385131561067757600080fd5b60808401838110838211171561068957fe5b8552610694816105a8565b835260208101359450818511156106aa57600080fd5b6106b6888683016105c0565b60608501525050815260209384013593019290925292915050565b80356bffffffffffffffffffffffff8116811461017c57600080fd5b600080600080600060a08688031215610704578081fd5b853561070f81611091565b945060208601356001600160401b038082111561072a578283fd5b61073689838a01610624565b9550604088013591508082111561074b578283fd5b61075789838a01610624565b9450606088013593506080880135915080821115610773578283fd5b50610780888289016105c0565b9150509295509295909350565b6000806040838503121561079f578182fd5b82356107aa81611091565b91506107b8602084016106d1565b90509250929050565b6000602082840312156107d2578081fd5b81356001600160401b03808211156107e8578283fd5b90830190604082860312156107fb578283fd5b60405160408101818110838211171561081057fe5b604052823582811115610821578485fd5b61082d878286016104fa565b825250602083013582811115610841578485fd5b61084d878286016104fa565b60208301525095945050505050565b60006020828403121561086d578081fd5b81356001600160401b0380821115610883578283fd5b9083019060608286031215610896578283fd5b6040516060810181811083821117156108ab57fe5b6040528235828111156108bc578485fd5b6108c8878286016104fa565b8252506020830135828111156108dc578485fd5b6108e8878286016104fa565b602083015250604083013592508215158314610902578384fd5b6040810192909252509392505050565b600060808284031215610923578081fd5b604051608081018181106001600160401b038211171561093f57fe5b8060405250823581526020830135602082015260408301356040820152606083013560608201528091505092915050565b600060a08284031215610981578081fd5b60405160a081018181106001600160401b038211171561099d57fe5b806040525082358152602083013560208201526040830135604082015260608301356060820152608083013560808201528091505092915050565b600080604083850312156109ea578182fd5b82356001600160401b0380821115610a00578384fd5b9084019060c08287031215610a13578384fd5b610a1d60c0610f69565b82358152602083013582811115610a32578586fd5b610a3e888286016105c0565b60208301525060408301356040820152606083013582811115610a5f578586fd5b610a6b888286016104fa565b606083015250608083013582811115610a82578586fd5b610a8e888286016104fa565b60808301525060a083013582811115610aa5578586fd5b610ab188828601610493565b60a08301525093506107b891505060208401610488565b60008060408385031215610ada578182fd5b82356001600160401b0380821115610af0578384fd5b9084019060a08287031215610b03578384fd5b610b0d60a0610f69565b82358152602083013582811115610b22578586fd5b610b2e888286016105c0565b602083015250604083013582811115610b45578586fd5b610b51888286016104fa565b604083015250606083013582811115610b68578586fd5b610b74888286016104fa565b606083015250608083013582811115610b8b578586fd5b610b9788828601610493565b60808301525093506107b891505060208401610488565b600060208284031215610bbf578081fd5b81356001600160401b03811115610bd4578182fd5b82016101208185031215610be6578182fd5b9392505050565b6000815180845260208085018081965082840281019150828601855b85811015610c33578284038952610c21848351610c9c565b98850198935090840190600101610c09565b5091979650505050505050565b6000815180845260208085019450808401835b83811015610c9157815180516001600160a01b031688528301516bffffffffffffffffffffffff168388015260409096019590820190600101610c53565b509495945050505050565b60008151808452815b81811015610cc157602081850181015186830182015201610ca5565b81811115610cd25782602083870101525b50601f01601f19169290920160200192915050565b600060018060a01b038716825285602083015284604083015283606083015260a06080830152610d1a60a0830184610c9c565b979650505050505050565b600060018060a01b03841682526040602083015282516040830152602083015160c06060840152610d5a610100840182610c9c565b9050604084015160808401526060840151603f19808584030160a0860152610d828383610c40565b925060808601519150808584030160c0860152610d9f8383610c40565b925060a08601519150808584030160e086015250610dbd8282610bed565b9695505050505050565b600060018060a01b03841682526040602083015282516040830152602083015160a06060840152610dfb60e0840182610c9c565b90506040840151603f1980858403016080860152610e198383610c40565b925060608601519150808584030160a0860152610e368383610c40565b925060808601519150808584030160c086015250610dbd8282610bed565b90815260200190565b600060208252610be66020830184610c9c565b600060208252825160406020840152610e8c6060840182610c40565b90506020840151601f19848303016040850152610ea98282610c40565b95945050505050565b600060208252825160606020840152610ece6080840182610c40565b90506020840151601f19848303016040850152610eeb8282610c40565b9150506040840151151560608401528091505092915050565b8151815260208083015190820152604080830151908201526060918201519181019190915260800190565b600060a082019050825182526020830151602083015260408301516040830152606083015160608301526080830151608083015292915050565b6040518181016001600160401b0381118282101715610f8457fe5b604052919050565b60006001600160401b03821115610f9f57fe5b5060209081020190565b6000610120808336031215610fbc578182fd5b610fc581610f69565b9050610fd083610488565b815260208301356001600160401b0380821115610feb578384fd5b610ff736838701610624565b602084015261100860408601610488565b60408401526060850135915080821115611020578384fd5b61102c36838701610624565b60608401526080850135608084015260a085013560a084015260c085013560c084015261105b60e086016105a8565b60e084015261010091508185013581811115611075578485fd5b611081368288016105c0565b8385015250505080915050919050565b6001600160a01b03811681146110a657600080fd5b5056fea26469706673582212206bf0b838b5df09c96de57c749eaa0b02f7322fefc089d5459cbc18551ef27a3264736f6c63430007060033",
  "devdoc": {
    "kind": "dev",
    "methods": {},
    "version": 1
  },
  "userdoc": {
    "kind": "user",
    "methods": {},
    "version": 1
  },
  "storageLayout": {
    "storage": [],
    "types": null
  }
}