{
  "contractName": "ERC20TransferProxy",
  "abi": [
    {
      "anonymous": false,
      "inputs": [
        {
          "indexed": true,
          "internalType": "address",
          "name": "previousOwner",
          "type": "address"
        },
        {
          "indexed": true,
          "internalType": "address",
          "name": "newOwner",
          "type": "address"
        }
      ],
      "name": "OwnershipTransferred",
      "type": "event"
    },
    {
      "inputs": [],
      "name": "__OperatorRole_init",
      "outputs": [],
      "stateMutability": "nonpayable",
      "type": "function"
    },
    {
      "inputs": [
        {
          "internalType": "address",
          "name": "operator",
          "type": "address"
        }
      ],
      "name": "addOperator",
      "outputs": [],
      "stateMutability": "nonpayable",
      "type": "function"
    },
    {
      "inputs": [],
      "name": "owner",
      "outputs": [
        {
          "internalType": "address",
          "name": "",
          "type": "address"
        }
      ],
      "stateMutability": "view",
      "type": "function"
    },
    {
      "inputs": [
        {
          "internalType": "address",
          "name": "operator",
          "type": "address"
        }
      ],
      "name": "removeOperator",
      "outputs": [],
      "stateMutability": "nonpayable",
      "type": "function"
    },
    {
      "inputs": [],
      "name": "renounceOwnership",
      "outputs": [],
      "stateMutability": "nonpayable",
      "type": "function"
    },
    {
      "inputs": [
        {
          "internalType": "address",
          "name": "newOwner",
          "type": "address"
        }
      ],
      "name": "transferOwnership",
      "outputs": [],
      "stateMutability": "nonpayable",
      "type": "function"
    },
    {
      "inputs": [],
      "name": "__ERC20TransferProxy_init",
      "outputs": [],
      "stateMutability": "nonpayable",
      "type": "function"
    },
    {
      "inputs": [
        {
          "internalType": "contract IERC20Upgradeable",
          "name": "token",
          "type": "address"
        },
        {
          "internalType": "address",
          "name": "from",
          "type": "address"
        },
        {
          "internalType": "address",
          "name": "to",
          "type": "address"
        },
        {
          "internalType": "uint256",
          "name": "value",
          "type": "uint256"
        }
      ],
      "name": "erc20safeTransferFrom",
      "outputs": [],
      "stateMutability": "nonpayable",
      "type": "function"
    }
  ],
  "bytecode": "0x608060405234801561001057600080fd5b5061095c806100206000396000f3fe608060405234801561001057600080fd5b50600436106100885760003560e01c80638da5cb5b1161005b5780638da5cb5b146100e35780639870d7fe14610107578063ac8a584a1461012d578063f2fde38b1461015357610088565b80632ff26a0a1461008d578063715018a614610097578063759781271461009f578063776062c3146100a7575b600080fd5b610095610179565b005b61009561022b565b6100956102d7565b610095600480360360808110156100bd57600080fd5b506001600160a01b0381358116916020810135821691604082013516906060013561036c565b6100eb6104bb565b604080516001600160a01b039092168252519081900360200190f35b6100956004803603602081101561011d57600080fd5b50356001600160a01b03166104ca565b6100956004803603602081101561014357600080fd5b50356001600160a01b0316610550565b6100956004803603602081101561016957600080fd5b50356001600160a01b03166105d3565b600054610100900460ff168061019257506101926106d6565b806101a0575060005460ff16155b6101db5760405162461bcd60e51b815260040180806020018281038252602e8152602001806108b1602e913960400191505060405180910390fd5b600054610100900460ff16158015610206576000805460ff1961ff0019909116610100171660011790555b61020e6106e7565b610216610787565b8015610228576000805461ff00191690555b50565b610233610880565b6001600160a01b03166102446104bb565b6001600160a01b03161461028d576040805162461bcd60e51b815260206004820181905260248201526000805160206108df833981519152604482015290519081900360640190fd5b6033546040516000916001600160a01b0316907f8be0079c531659141344cd1fd0a4f28419497f9722a3daafe3b4186f6b6457e0908390a3603380546001600160a01b0319169055565b600054610100900460ff16806102f057506102f06106d6565b806102fe575060005460ff16155b6103395760405162461bcd60e51b815260040180806020018281038252602e8152602001806108b1602e913960400191505060405180910390fd5b600054610100900460ff16158015610364576000805460ff1961ff0019909116610100171660011790555b610216610179565b60656000610378610880565b6001600160a01b0316815260208101919091526040016000205460ff166103d05760405162461bcd60e51b81526004018080602001828103825260288152602001806108ff6028913960400191505060405180910390fd5b836001600160a01b03166323b872dd8484846040518463ffffffff1660e01b815260040180846001600160a01b03168152602001836001600160a01b031681526020018281526020019350505050602060405180830381600087803b15801561043857600080fd5b505af115801561044c573d6000803e3d6000fd5b505050506040513d602081101561046257600080fd5b50516104b5576040805162461bcd60e51b815260206004820152601a60248201527f6661696c757265207768696c65207472616e7366657272696e67000000000000604482015290519081900360640190fd5b50505050565b6033546001600160a01b031690565b6104d2610880565b6001600160a01b03166104e36104bb565b6001600160a01b03161461052c576040805162461bcd60e51b815260206004820181905260248201526000805160206108df833981519152604482015290519081900360640190fd5b6001600160a01b03166000908152606560205260409020805460ff19166001179055565b610558610880565b6001600160a01b03166105696104bb565b6001600160a01b0316146105b2576040805162461bcd60e51b815260206004820181905260248201526000805160206108df833981519152604482015290519081900360640190fd5b6001600160a01b03166000908152606560205260409020805460ff19169055565b6105db610880565b6001600160a01b03166105ec6104bb565b6001600160a01b031614610635576040805162461bcd60e51b815260206004820181905260248201526000805160206108df833981519152604482015290519081900360640190fd5b6001600160a01b03811661067a5760405162461bcd60e51b815260040180806020018281038252602681526020018061088b6026913960400191505060405180910390fd5b6033546040516001600160a01b038084169216907f8be0079c531659141344cd1fd0a4f28419497f9722a3daafe3b4186f6b6457e090600090a3603380546001600160a01b0319166001600160a01b0392909216919091179055565b60006106e130610884565b15905090565b600054610100900460ff168061070057506107006106d6565b8061070e575060005460ff16155b6107495760405162461bcd60e51b815260040180806020018281038252602e8152602001806108b1602e913960400191505060405180910390fd5b600054610100900460ff16158015610216576000805460ff1961ff0019909116610100171660011790558015610228576000805461ff001916905550565b600054610100900460ff16806107a057506107a06106d6565b806107ae575060005460ff16155b6107e95760405162461bcd60e51b815260040180806020018281038252602e8152602001806108b1602e913960400191505060405180910390fd5b600054610100900460ff16158015610814576000805460ff1961ff0019909116610100171660011790555b600061081e610880565b603380546001600160a01b0319166001600160a01b038316908117909155604051919250906000907f8be0079c531659141344cd1fd0a4f28419497f9722a3daafe3b4186f6b6457e0908290a3508015610228576000805461ff001916905550565b3390565b3b15159056fe4f776e61626c653a206e6577206f776e657220697320746865207a65726f2061646472657373496e697469616c697a61626c653a20636f6e747261637420697320616c726561647920696e697469616c697a65644f776e61626c653a2063616c6c6572206973206e6f7420746865206f776e65724f70657261746f72526f6c653a2063616c6c6572206973206e6f7420746865206f70657261746f72a264697066735822122025e26081c66b8c4b64c10cb8059035ccc6d666d6a5f4fb5a824ddaac869ce58a64736f6c63430007060033",
  "immutableReferences": {},
  "source": "// SPDX-License-Identifier: MIT\r\n\r\npragma solidity >=0.6.9 <0.8.0;\r\n\r\nimport \"@rarible/role-operator/contracts/OperatorRole.sol\";\r\nimport \"@rarible/exchange-interfaces/contracts/IERC20TransferProxy.sol\";\r\nimport \"@rarible/lib-safe-erc20/contracts/SafeERC20.sol\";\r\n\r\ncontract ERC20TransferProxy is IERC20TransferProxy, Initializable, OperatorRole {\r\n    using SafeERC20 for IERC20;\r\n\r\n    function __ERC20TransferProxy_init() external initializer {\r\n        __Ownable_init();\r\n    }\r\n\r\n    // function erc20safeTransferFrom(IERC20 token, address from, address to, uint256 value) override external onlyOperator {\r\n    //     require(token.safeTransferFrom(from, to, value), \"failure while transferring\");\r\n    // }\r\n    function erc20safeTransferFrom(IERC20Upgradeable token, address from, address to, uint256 value) override external onlyOperator {\r\n        require(token.transferFrom(from, to, value), \"failure while transferring\");\r\n    }\r\n}\r\n",
  "sourcePath": "C:\\rarible\\protocol-contracts\\transfer-proxy\\contracts\\proxy\\ERC20TransferProxy.sol",
  "compiler": {
    "name": "solc",
    "version": "0.7.6+commit.7338295f.Emscripten.clang"
  },
  "schemaVersion": "3.4.10",
  "updatedAt": "2022-09-26T08:03:39.387Z",
  "devdoc": {
    "kind": "dev",
    "methods": {
      "owner()": {
        "details": "Returns the address of the current owner."
      },
      "renounceOwnership()": {
        "details": "Leaves the contract without owner. It will not be possible to call `onlyOwner` functions anymore. Can only be called by the current owner. NOTE: Renouncing ownership will leave the contract without an owner, thereby removing any functionality that is only available to the owner."
      },
      "transferOwnership(address)": {
        "details": "Transfers ownership of the contract to a new account (`newOwner`). Can only be called by the current owner."
      }
    },
    "version": 1
  },
  "userdoc": {
    "kind": "user",
    "methods": {},
    "version": 1
  }
}