{
  "contractName": "IExchangeV2",
  "abi": [
    {
      "inputs": [
        {
          "internalType": "bytes4",
          "name": "assetType",
          "type": "bytes4"
        },
        {
          "internalType": "address",
          "name": "proxy",
          "type": "address"
        }
      ],
      "name": "setTransferProxy",
      "outputs": [],
      "stateMutability": "nonpayable",
      "type": "function"
    }
  ],
  "bytecode": "0x6080604052348015600f57600080fd5b50609c8061001e6000396000f3fe6080604052348015600f57600080fd5b506004361060285760003560e01c806330c642f114602d575b600080fd5b606060048036036040811015604157600080fd5b5080356001600160e01b03191690602001356001600160a01b03166062565b005b505056fea2646970667358221220ce212f975bc7cef6a4b0ac76918a6413f5b3f32518e519848a1bd1a94b39600764736f6c63430007060033",
  "immutableReferences": {},
  "source": "// SPDX-License-Identifier: MIT\r\n\r\npragma solidity 0.7.6;\r\n\r\ncontract IExchangeV2{\r\n  function setTransferProxy(bytes4 assetType, address proxy) external {\r\n  } \r\n}",
  "sourcePath": "C:\\rarible\\protocol-contracts\\transfer-proxy\\contracts\\IExchangeV2.sol",
  "compiler": {
    "name": "solc",
    "version": "0.7.6+commit.7338295f.Emscripten.clang"
  },
  "schemaVersion": "3.4.10",
  "updatedAt": "2022-09-26T08:03:39.364Z",
  "devdoc": {
    "kind": "dev",
    "methods": {},
    "version": 1
  },
  "userdoc": {
    "kind": "user",
    "methods": {},
    "version": 1
  }
}