{
  "contractName": "TransferProxyForDeprecated",
  "abi": [
    {
      "anonymous": false,
      "inputs": [
        {
          "indexed": true,
          "internalType": "address",
          "name": "previousOwner",
          "type": "address"
        },
        {
          "indexed": true,
          "internalType": "address",
          "name": "newOwner",
          "type": "address"
        }
      ],
      "name": "OwnershipTransferred",
      "type": "event"
    },
    {
      "inputs": [],
      "name": "ERC721_DEP_ASSET_TYPE",
      "outputs": [
        {
          "internalType": "bytes4",
          "name": "",
          "type": "bytes4"
        }
      ],
      "stateMutability": "view",
      "type": "function"
    },
    {
      "inputs": [],
      "name": "__OperatorRole_init",
      "outputs": [],
      "stateMutability": "nonpayable",
      "type": "function"
    },
    {
      "inputs": [
        {
          "internalType": "address",
          "name": "operator",
          "type": "address"
        }
      ],
      "name": "addOperator",
      "outputs": [],
      "stateMutability": "nonpayable",
      "type": "function"
    },
    {
      "inputs": [],
      "name": "owner",
      "outputs": [
        {
          "internalType": "address",
          "name": "",
          "type": "address"
        }
      ],
      "stateMutability": "view",
      "type": "function"
    },
    {
      "inputs": [
        {
          "internalType": "address",
          "name": "operator",
          "type": "address"
        }
      ],
      "name": "removeOperator",
      "outputs": [],
      "stateMutability": "nonpayable",
      "type": "function"
    },
    {
      "inputs": [],
      "name": "renounceOwnership",
      "outputs": [],
      "stateMutability": "nonpayable",
      "type": "function"
    },
    {
      "inputs": [
        {
          "internalType": "address",
          "name": "newOwner",
          "type": "address"
        }
      ],
      "name": "transferOwnership",
      "outputs": [],
      "stateMutability": "nonpayable",
      "type": "function"
    },
    {
      "inputs": [],
      "name": "__TransferProxyForDeprecated_init",
      "outputs": [],
      "stateMutability": "nonpayable",
      "type": "function"
    },
    {
      "inputs": [
        {
          "components": [
            {
              "components": [
                {
                  "internalType": "bytes4",
                  "name": "assetClass",
                  "type": "bytes4"
                },
                {
                  "internalType": "bytes",
                  "name": "data",
                  "type": "bytes"
                }
              ],
              "internalType": "struct LibAsset.AssetType",
              "name": "assetType",
              "type": "tuple"
            },
            {
              "internalType": "uint256",
              "name": "value",
              "type": "uint256"
            }
          ],
          "internalType": "struct LibAsset.Asset",
          "name": "asset",
          "type": "tuple"
        },
        {
          "internalType": "address",
          "name": "from",
          "type": "address"
        },
        {
          "internalType": "address",
          "name": "to",
          "type": "address"
        }
      ],
      "name": "transfer",
      "outputs": [],
      "stateMutability": "nonpayable",
      "type": "function"
    }
  ],
  "bytecode": "0x608060405234801561001057600080fd5b50610bcb806100206000396000f3fe608060405234801561001057600080fd5b50600436106100935760003560e01c806375f7aa4f1161006657806375f7aa4f146100db5780638da5cb5b146100e35780639870d7fe146100f8578063ac8a584a1461010b578063f2fde38b1461011e57610093565b80632ff26a0a146100985780634a3a282a146100a257806354bc0cf1146100c0578063715018a6146100d3575b600080fd5b6100a0610131565b005b6100aa6101e3565b6040516100b79190610a44565b60405180910390f35b6100a06100ce3660046108c6565b610207565b6100a0610357565b6100a0610403565b6100eb610498565b6040516100b79190610a0c565b6100a0610106366004610876565b6104a7565b6100a0610119366004610876565b61052d565b6100a061012c366004610876565b6105b0565b600054610100900460ff168061014a575061014a6106b3565b80610158575060005460ff16155b6101935760405162461bcd60e51b815260040180806020018281038252602e815260200180610b20602e913960400191505060405180910390fd5b600054610100900460ff161580156101be576000805460ff1961ff0019909116610100171660011790555b6101c66106c4565b6101ce610764565b80156101e0576000805461ff00191690555b50565b7fc0ab004bd2f7ebb1e7d6bcc670c5e6004034bef97a7979534d3907f787f5f8ad81565b6065600061021361085d565b6001600160a01b0316815260208101919091526040016000205460ff1661026b5760405162461bcd60e51b8152600401808060200182810382526028815260200180610b6e6028913960400191505060405180910390fd5b8251516001600160e01b03191663c0ab004b60e01b146102a65760405162461bcd60e51b815260040161029d90610a59565b60405180910390fd5b82602001516001146102ca5760405162461bcd60e51b815260040161029d90610a90565b6000808460000151602001518060200190518101906102e99190610899565b6040516323b872dd60e01b815291935091506001600160a01b038316906323b872dd9061031e90879087908690600401610a20565b600060405180830381600087803b15801561033857600080fd5b505af115801561034c573d6000803e3d6000fd5b505050505050505050565b61035f61085d565b6001600160a01b0316610370610498565b6001600160a01b0316146103b9576040805162461bcd60e51b81526020600482018190526024820152600080516020610b4e833981519152604482015290519081900360640190fd5b6033546040516000916001600160a01b0316907f8be0079c531659141344cd1fd0a4f28419497f9722a3daafe3b4186f6b6457e0908390a3603380546001600160a01b0319169055565b600054610100900460ff168061041c575061041c6106b3565b8061042a575060005460ff16155b6104655760405162461bcd60e51b815260040180806020018281038252602e815260200180610b20602e913960400191505060405180910390fd5b600054610100900460ff16158015610490576000805460ff1961ff0019909116610100171660011790555b6101ce610131565b6033546001600160a01b031690565b6104af61085d565b6001600160a01b03166104c0610498565b6001600160a01b031614610509576040805162461bcd60e51b81526020600482018190526024820152600080516020610b4e833981519152604482015290519081900360640190fd5b6001600160a01b03166000908152606560205260409020805460ff19166001179055565b61053561085d565b6001600160a01b0316610546610498565b6001600160a01b03161461058f576040805162461bcd60e51b81526020600482018190526024820152600080516020610b4e833981519152604482015290519081900360640190fd5b6001600160a01b03166000908152606560205260409020805460ff19169055565b6105b861085d565b6001600160a01b03166105c9610498565b6001600160a01b031614610612576040805162461bcd60e51b81526020600482018190526024820152600080516020610b4e833981519152604482015290519081900360640190fd5b6001600160a01b0381166106575760405162461bcd60e51b8152600401808060200182810382526026815260200180610afa6026913960400191505060405180910390fd5b6033546040516001600160a01b038084169216907f8be0079c531659141344cd1fd0a4f28419497f9722a3daafe3b4186f6b6457e090600090a3603380546001600160a01b0319166001600160a01b0392909216919091179055565b60006106be30610861565b15905090565b600054610100900460ff16806106dd57506106dd6106b3565b806106eb575060005460ff16155b6107265760405162461bcd60e51b815260040180806020018281038252602e815260200180610b20602e913960400191505060405180910390fd5b600054610100900460ff161580156101ce576000805460ff1961ff00199091166101001716600117905580156101e0576000805461ff001916905550565b600054610100900460ff168061077d575061077d6106b3565b8061078b575060005460ff16155b6107c65760405162461bcd60e51b815260040180806020018281038252602e815260200180610b20602e913960400191505060405180910390fd5b600054610100900460ff161580156107f1576000805460ff1961ff0019909116610100171660011790555b60006107fb61085d565b603380546001600160a01b0319166001600160a01b038316908117909155604051919250906000907f8be0079c531659141344cd1fd0a4f28419497f9722a3daafe3b4186f6b6457e0908290a35080156101e0576000805461ff001916905550565b3390565b803b15155b919050565b803561086681610ae4565b600060208284031215610887578081fd5b813561089281610ae4565b9392505050565b600080604083850312156108ab578081fd5b82516108b681610ae4565b6020939093015192949293505050565b6000806000606084860312156108da578081fd5b833567ffffffffffffffff808211156108f1578283fd5b81860191506040808389031215610906578384fd5b8051818101818110848211171561091957fe5b80835284358481111561092a578687fd5b8501808b0384131561093a578687fd5b60808301828110868211171561094c57fe5b845280356001600160e01b031981168114610965578788fd5b825260208181013586811115610979578889fd5b8083019250508b601f83011261098d578788fd5b81358681111561099957fe5b6109ab601f8201601f19168301610ac0565b96508087528c828285010111156109c0578889fd5b8082840183890137888282890101525085606085015282845280870135818501528399506109ef818c0161086b565b985050505050610a0081880161086b565b93505050509250925092565b6001600160a01b0391909116815260200190565b6001600160a01b039384168152919092166020820152604081019190915260600190565b6001600160e01b031991909116815260200190565b60208082526018908201527f6e6f7420737570706f7274656420617373657420747970650000000000000000604082015260600190565b6020808252601690820152753b30b63ab2903b30b634b230ba34b7b71032b93937b960511b604082015260600190565b60405181810167ffffffffffffffff81118282101715610adc57fe5b604052919050565b6001600160a01b03811681146101e057600080fdfe4f776e61626c653a206e6577206f776e657220697320746865207a65726f2061646472657373496e697469616c697a61626c653a20636f6e747261637420697320616c726561647920696e697469616c697a65644f776e61626c653a2063616c6c6572206973206e6f7420746865206f776e65724f70657261746f72526f6c653a2063616c6c6572206973206e6f7420746865206f70657261746f72a26469706673582212202a65271f2546889282ee4b799036d686e97ceddb0d1b00bb88bf4eef1f20bd6364736f6c63430007060033",
  "immutableReferences": {},
  "source": "// SPDX-License-Identifier: MIT\r\n\r\npragma solidity >=0.6.9 <0.8.0;\r\npragma abicoder v2;\r\n\r\nimport \"@rarible/role-operator/contracts/OperatorRole.sol\";\r\nimport \"@rarible/exchange-interfaces/contracts/ITransferProxy.sol\";\r\nimport \"@openzeppelin/contracts-upgradeable/token/ERC721/IERC721Upgradeable.sol\";\r\n\r\ncontract TransferProxyForDeprecated is Initializable, OperatorRole, ITransferProxy {\r\n    bytes4 constant public ERC721_DEP_ASSET_TYPE = bytes4(keccak256(\"ERC721_DEP\"));\r\n\r\n    function __TransferProxyForDeprecated_init() external initializer {\r\n        __Ownable_init();\r\n    }\r\n\r\n    function transfer(LibAsset.Asset memory asset, address from, address to) override external onlyOperator {\r\n        require(asset.assetType.assetClass == ERC721_DEP_ASSET_TYPE, \"not supported asset type\");\r\n        require(asset.value == 1, \"value validation error\");\r\n        (address token, uint tokenId) = abi.decode(asset.assetType.data, (address, uint));\r\n        IERC721Upgradeable(token).transferFrom(from, to, tokenId);\r\n    }\r\n}",
  "sourcePath": "C:\\rarible\\protocol-contracts\\transfer-proxy\\contracts\\deprecated\\TransferProxyForDeprecated.sol",
  "compiler": {
    "name": "solc",
    "version": "0.7.6+commit.7338295f.Emscripten.clang"
  },
  "schemaVersion": "3.4.10",
  "updatedAt": "2022-09-26T08:03:39.372Z",
  "devdoc": {
    "kind": "dev",
    "methods": {
      "owner()": {
        "details": "Returns the address of the current owner."
      },
      "renounceOwnership()": {
        "details": "Leaves the contract without owner. It will not be possible to call `onlyOwner` functions anymore. Can only be called by the current owner. NOTE: Renouncing ownership will leave the contract without an owner, thereby removing any functionality that is only available to the owner."
      },
      "transferOwnership(address)": {
        "details": "Transfers ownership of the contract to a new account (`newOwner`). Can only be called by the current owner."
      }
    },
    "version": 1
  },
  "userdoc": {
    "kind": "user",
    "methods": {},
    "version": 1
  }
}