{
  "_format": "hh-sol-artifact-1",
  "contractName": "LibPart",
  "sourceName": "@rarible/lib-part/contracts/LibPart.sol",
  "abi": [
    {
      "inputs": [],
      "name": "TYPE_HASH",
      "outputs": [
        {
          "internalType": "bytes32",
          "name": "",
          "type": "bytes32"
        }
      ],
      "stateMutability": "view",
      "type": "function"
    }
  ],
  "bytecode": "0x60aa610024600b82828239805160001a607314601757fe5b30600052607381538281f3fe730000000000000000000000000000000000000000301460806040526004361060335760003560e01c806364d4c819146038575b600080fd5b603e6050565b60408051918252519081900360200190f35b7f397e04204c1e1a60ee8724b71f8244e10ab5f2e9009854d80f602bda21b59ebb8156fea264697066735822122002896caec54ee73c5b02e5d10b219295e244c4c6809b0a8ce157b22c1913a4e564736f6c63430007060033",
  "linkReferences": {},
  "deployedLinkReferences": {}
}