{
  "_format": "hh-sol-artifact-1",
  "contractName": "TestERC721ArtBlocksV2",
  "sourceName": "contracts/test/tokens/TestERC721ArtBlocksV2.sol",
  "abi": [
    {
      "inputs": [
        {
          "internalType": "string",
          "name": "_name",
          "type": "string"
        },
        {
          "internalType": "string",
          "name": "_symbol",
          "type": "string"
        }
      ],
      "stateMutability": "nonpayable",
      "type": "constructor"
    },
    {
      "anonymous": false,
      "inputs": [
        {
          "indexed": true,
          "internalType": "address",
          "name": "owner",
          "type": "address"
        },
        {
          "indexed": true,
          "internalType": "address",
          "name": "approved",
          "type": "address"
        },
        {
          "indexed": true,
          "internalType": "uint256",
          "name": "tokenId",
          "type": "uint256"
        }
      ],
      "name": "Approval",
      "type": "event"
    },
    {
      "anonymous": false,
      "inputs": [
        {
          "indexed": true,
          "internalType": "address",
          "name": "owner",
          "type": "address"
        },
        {
          "indexed": true,
          "internalType": "address",
          "name": "operator",
          "type": "address"
        },
        {
          "indexed": false,
          "internalType": "bool",
          "name": "approved",
          "type": "bool"
        }
      ],
      "name": "ApprovalForAll",
      "type": "event"
    },
    {
      "anonymous": false,
      "inputs": [
        {
          "indexed": true,
          "internalType": "address",
          "name": "from",
          "type": "address"
        },
        {
          "indexed": true,
          "internalType": "address",
          "name": "to",
          "type": "address"
        },
        {
          "indexed": true,
          "internalType": "uint256",
          "name": "tokenId",
          "type": "uint256"
        }
      ],
      "name": "Transfer",
      "type": "event"
    },
    {
      "inputs": [
        {
          "internalType": "uint256",
          "name": "",
          "type": "uint256"
        },
        {
          "internalType": "uint256",
          "name": "",
          "type": "uint256"
        }
      ],
      "name": "_bps",
      "outputs": [
        {
          "internalType": "uint256",
          "name": "",
          "type": "uint256"
        }
      ],
      "stateMutability": "view",
      "type": "function"
    },
    {
      "inputs": [
        {
          "internalType": "uint256",
          "name": "",
          "type": "uint256"
        },
        {
          "internalType": "uint256",
          "name": "",
          "type": "uint256"
        }
      ],
      "name": "_recipients",
      "outputs": [
        {
          "internalType": "address payable",
          "name": "",
          "type": "address"
        }
      ],
      "stateMutability": "view",
      "type": "function"
    },
    {
      "inputs": [
        {
          "internalType": "address",
          "name": "to",
          "type": "address"
        },
        {
          "internalType": "uint256",
          "name": "tokenId",
          "type": "uint256"
        }
      ],
      "name": "approve",
      "outputs": [],
      "stateMutability": "nonpayable",
      "type": "function"
    },
    {
      "inputs": [
        {
          "internalType": "address",
          "name": "owner",
          "type": "address"
        }
      ],
      "name": "balanceOf",
      "outputs": [
        {
          "internalType": "uint256",
          "name": "",
          "type": "uint256"
        }
      ],
      "stateMutability": "view",
      "type": "function"
    },
    {
      "inputs": [],
      "name": "baseURI",
      "outputs": [
        {
          "internalType": "string",
          "name": "",
          "type": "string"
        }
      ],
      "stateMutability": "view",
      "type": "function"
    },
    {
      "inputs": [
        {
          "internalType": "uint256",
          "name": "tokenId",
          "type": "uint256"
        }
      ],
      "name": "getApproved",
      "outputs": [
        {
          "internalType": "address",
          "name": "",
          "type": "address"
        }
      ],
      "stateMutability": "view",
      "type": "function"
    },
    {
      "inputs": [
        {
          "internalType": "uint256",
          "name": "_tokenId",
          "type": "uint256"
        }
      ],
      "name": "getRoyalties",
      "outputs": [
        {
          "internalType": "address payable[]",
          "name": "recipients",
          "type": "address[]"
        },
        {
          "internalType": "uint256[]",
          "name": "bps",
          "type": "uint256[]"
        }
      ],
      "stateMutability": "view",
      "type": "function"
    },
    {
      "inputs": [
        {
          "internalType": "address",
          "name": "owner",
          "type": "address"
        },
        {
          "internalType": "address",
          "name": "operator",
          "type": "address"
        }
      ],
      "name": "isApprovedForAll",
      "outputs": [
        {
          "internalType": "bool",
          "name": "",
          "type": "bool"
        }
      ],
      "stateMutability": "view",
      "type": "function"
    },
    {
      "inputs": [
        {
          "internalType": "address",
          "name": "to",
          "type": "address"
        },
        {
          "internalType": "uint256",
          "name": "tokenId",
          "type": "uint256"
        }
      ],
      "name": "mint",
      "outputs": [],
      "stateMutability": "nonpayable",
      "type": "function"
    },
    {
      "inputs": [],
      "name": "name",
      "outputs": [
        {
          "internalType": "string",
          "name": "",
          "type": "string"
        }
      ],
      "stateMutability": "view",
      "type": "function"
    },
    {
      "inputs": [
        {
          "internalType": "uint256",
          "name": "tokenId",
          "type": "uint256"
        }
      ],
      "name": "ownerOf",
      "outputs": [
        {
          "internalType": "address",
          "name": "",
          "type": "address"
        }
      ],
      "stateMutability": "view",
      "type": "function"
    },
    {
      "inputs": [
        {
          "internalType": "address",
          "name": "from",
          "type": "address"
        },
        {
          "internalType": "address",
          "name": "to",
          "type": "address"
        },
        {
          "internalType": "uint256",
          "name": "tokenId",
          "type": "uint256"
        }
      ],
      "name": "safeTransferFrom",
      "outputs": [],
      "stateMutability": "nonpayable",
      "type": "function"
    },
    {
      "inputs": [
        {
          "internalType": "address",
          "name": "from",
          "type": "address"
        },
        {
          "internalType": "address",
          "name": "to",
          "type": "address"
        },
        {
          "internalType": "uint256",
          "name": "tokenId",
          "type": "uint256"
        },
        {
          "internalType": "bytes",
          "name": "_data",
          "type": "bytes"
        }
      ],
      "name": "safeTransferFrom",
      "outputs": [],
      "stateMutability": "nonpayable",
      "type": "function"
    },
    {
      "inputs": [
        {
          "internalType": "address",
          "name": "operator",
          "type": "address"
        },
        {
          "internalType": "bool",
          "name": "approved",
          "type": "bool"
        }
      ],
      "name": "setApprovalForAll",
      "outputs": [],
      "stateMutability": "nonpayable",
      "type": "function"
    },
    {
      "inputs": [
        {
          "internalType": "uint256",
          "name": "tokenId",
          "type": "uint256"
        },
        {
          "internalType": "address payable[]",
          "name": "recipients",
          "type": "address[]"
        },
        {
          "internalType": "uint256[]",
          "name": "bps",
          "type": "uint256[]"
        }
      ],
      "name": "setRoyalties",
      "outputs": [],
      "stateMutability": "nonpayable",
      "type": "function"
    },
    {
      "inputs": [
        {
          "internalType": "bytes4",
          "name": "interfaceId",
          "type": "bytes4"
        }
      ],
      "name": "supportsInterface",
      "outputs": [
        {
          "internalType": "bool",
          "name": "",
          "type": "bool"
        }
      ],
      "stateMutability": "view",
      "type": "function"
    },
    {
      "inputs": [],
      "name": "symbol",
      "outputs": [
        {
          "internalType": "string",
          "name": "",
          "type": "string"
        }
      ],
      "stateMutability": "view",
      "type": "function"
    },
    {
      "inputs": [
        {
          "internalType": "uint256",
          "name": "index",
          "type": "uint256"
        }
      ],
      "name": "tokenByIndex",
      "outputs": [
        {
          "internalType": "uint256",
          "name": "",
          "type": "uint256"
        }
      ],
      "stateMutability": "view",
      "type": "function"
    },
    {
      "inputs": [
        {
          "internalType": "address",
          "name": "owner",
          "type": "address"
        },
        {
          "internalType": "uint256",
          "name": "index",
          "type": "uint256"
        }
      ],
      "name": "tokenOfOwnerByIndex",
      "outputs": [
        {
          "internalType": "uint256",
          "name": "",
          "type": "uint256"
        }
      ],
      "stateMutability": "view",
      "type": "function"
    },
    {
      "inputs": [
        {
          "internalType": "uint256",
          "name": "tokenId",
          "type": "uint256"
        }
      ],
      "name": "tokenURI",
      "outputs": [
        {
          "internalType": "string",
          "name": "",
          "type": "string"
        }
      ],
      "stateMutability": "view",
      "type": "function"
    },
    {
      "inputs": [],
      "name": "totalSupply",
      "outputs": [
        {
          "internalType": "uint256",
          "name": "",
          "type": "uint256"
        }
      ],
      "stateMutability": "view",
      "type": "function"
    },
    {
      "inputs": [
        {
          "internalType": "address",
          "name": "from",
          "type": "address"
        },
        {
          "internalType": "address",
          "name": "to",
          "type": "address"
        },
        {
          "internalType": "uint256",
          "name": "tokenId",
          "type": "uint256"
        }
      ],
      "name": "transferFrom",
      "outputs": [],
      "stateMutability": "nonpayable",
      "type": "function"
    }
  ],
  "bytecode": "0x60806040523480156200001157600080fd5b50604051620025ee380380620025ee833981810160405260408110156200003757600080fd5b81019080805160405193929190846401000000008211156200005857600080fd5b9083019060208201858111156200006e57600080fd5b82516401000000008111828201881017156200008957600080fd5b82525081516020918201929091019080838360005b83811015620000b85781810151838201526020016200009e565b50505050905090810190601f168015620000e65780820380516001836020036101000a031916815260200191505b50604052602001805160405193929190846401000000008211156200010a57600080fd5b9083019060208201858111156200012057600080fd5b82516401000000008111828201881017156200013b57600080fd5b82525081516020918201929091019080838360005b838110156200016a57818101518382015260200162000150565b50505050905090810190601f168015620001985780820380516001836020036101000a031916815260200191505b50604052505050620001b18282620001b960201b60201c565b505062000620565b600054610100900460ff1680620001d55750620001d562000285565b80620001e4575060005460ff16155b620002215760405162461bcd60e51b815260040180806020018281038252602e815260200180620025c0602e913960400191505060405180910390fd5b600054610100900460ff161580156200024d576000805460ff1961ff0019909116610100171660011790555b62000257620002a3565b620002616200034d565b6200026d8383620003f3565b801562000280576000805461ff00191690555b505050565b60006200029d30620004e960201b620010cb1760201c565b15905090565b600054610100900460ff1680620002bf5750620002bf62000285565b80620002ce575060005460ff16155b6200030b5760405162461bcd60e51b815260040180806020018281038252602e815260200180620025c0602e913960400191505060405180910390fd5b600054610100900460ff1615801562000337576000805460ff1961ff0019909116610100171660011790555b80156200034a576000805461ff00191690555b50565b600054610100900460ff16806200036957506200036962000285565b8062000378575060005460ff16155b620003b55760405162461bcd60e51b815260040180806020018281038252602e815260200180620025c0602e913960400191505060405180910390fd5b600054610100900460ff16158015620003e1576000805460ff1961ff0019909116610100171660011790555b620003376301ffc9a760e01b620004ef565b600054610100900460ff16806200040f57506200040f62000285565b806200041e575060005460ff16155b6200045b5760405162461bcd60e51b815260040180806020018281038252602e815260200180620025c0602e913960400191505060405180910390fd5b600054610100900460ff1615801562000487576000805460ff1961ff0019909116610100171660011790555b82516200049c90606a90602086019062000574565b508151620004b290606b90602085019062000574565b50620004c56380ac58cd60e01b620004ef565b620004d7635b5e139f60e01b620004ef565b6200026d63780e9d6360e01b620004ef565b3b151590565b6001600160e01b031980821614156200054f576040805162461bcd60e51b815260206004820152601c60248201527f4552433136353a20696e76616c696420696e7465726661636520696400000000604482015290519081900360640190fd5b6001600160e01b0319166000908152603360205260409020805460ff19166001179055565b828054600181600116156101000203166002900490600052602060002090601f016020900481019282620005ac5760008555620005f7565b82601f10620005c757805160ff1916838001178555620005f7565b82800160010185558215620005f7579182015b82811115620005f7578251825591602001919060010190620005da565b506200060592915062000609565b5090565b5b808211156200060557600081556001016200060a565b611f9080620006306000396000f3fe608060405234801561001057600080fd5b50600436106101425760003560e01c80634f6ccce7116100b8578063a22cb4651161007c578063a22cb46514610505578063b88d4fde14610533578063bb3bafd6146105f9578063c87b56dd146106af578063e985e9c5146106cc578063eaf46534146106fa57610142565b80634f6ccce7146104955780636352211e146104b25780636c0360eb146104cf57806370a08231146104d757806395d89b41146104fd57610142565b806320e4afe21161010a57806320e4afe21461028057806323b872dd146103ae5780632f745c59146103e457806340c10f191461041057806342842e0e1461043c5780634ee50f201461047257610142565b806301ffc9a71461014757806306fdde0314610182578063081812fc146101ff578063095ea7b31461023857806318160ddd14610266575b600080fd5b61016e6004803603602081101561015d57600080fd5b50356001600160e01b03191661071d565b604080519115158252519081900360200190f35b61018a610740565b6040805160208082528351818301528351919283929083019185019080838360005b838110156101c45781810151838201526020016101ac565b50505050905090810190601f1680156101f15780820380516001836020036101000a031916815260200191505b509250505060405180910390f35b61021c6004803603602081101561021557600080fd5b50356107d6565b604080516001600160a01b039092168252519081900360200190f35b6102646004803603604081101561024e57600080fd5b506001600160a01b038135169060200135610838565b005b61026e610913565b60408051918252519081900360200190f35b6102646004803603606081101561029657600080fd5b813591908101906040810160208201356401000000008111156102b857600080fd5b8201836020820111156102ca57600080fd5b803590602001918460208302840111640100000000831117156102ec57600080fd5b919080806020026020016040519081016040528093929190818152602001838360200280828437600092019190915250929594936020810193503591505064010000000081111561033c57600080fd5b82018360208201111561034e57600080fd5b8035906020019184602083028401116401000000008311171561037057600080fd5b919080806020026020016040519081016040528093929190818152602001838360200280828437600092019190915250929550610924945050505050565b610264600480360360608110156103c457600080fd5b506001600160a01b03813581169160208101359091169060400135610969565b61026e600480360360408110156103fa57600080fd5b506001600160a01b0381351690602001356109c0565b6102646004803603604081101561042657600080fd5b506001600160a01b0381351690602001356109eb565b6102646004803603606081101561045257600080fd5b506001600160a01b038135811691602081013590911690604001356109f9565b61026e6004803603604081101561048857600080fd5b5080359060200135610a14565b61026e600480360360208110156104ab57600080fd5b5035610a45565b61021c600480360360208110156104c857600080fd5b5035610a5b565b61018a610a83565b61026e600480360360208110156104ed57600080fd5b50356001600160a01b0316610ae4565b61018a610b4c565b6102646004803603604081101561051b57600080fd5b506001600160a01b0381351690602001351515610bad565b6102646004803603608081101561054957600080fd5b6001600160a01b0382358116926020810135909116916040820135919081019060808101606082013564010000000081111561058457600080fd5b82018360208201111561059657600080fd5b803590602001918460018302840111640100000000831117156105b857600080fd5b91908080601f016020809104026020016040519081016040528093929190818152602001838380828437600092019190915250929550610cb2945050505050565b6106166004803603602081101561060f57600080fd5b5035610d0a565b604051808060200180602001838103835285818151815260200191508051906020019060200280838360005b8381101561065a578181015183820152602001610642565b50505050905001838103825284818151815260200191508051906020019060200280838360005b83811015610699578181015183820152602001610681565b5050505090500194505050505060405180910390f35b61018a600480360360208110156106c557600080fd5b5035610de4565b61016e600480360360408110156106e257600080fd5b506001600160a01b0381358116916020013516611065565b61021c6004803603604081101561071057600080fd5b5080359060200135611093565b6001600160e01b0319811660009081526033602052604090205460ff165b919050565b606a8054604080516020601f60026000196101006001881615020190951694909404938401819004810282018101909252828152606093909290918301828280156107cc5780601f106107a1576101008083540402835291602001916107cc565b820191906000526020600020905b8154815290600101906020018083116107af57829003601f168201915b5050505050905090565b60006107e1826110d1565b61081c5760405162461bcd60e51b815260040180806020018281038252602c815260200180611e85602c913960400191505060405180910390fd5b506000908152606860205260409020546001600160a01b031690565b600061084382610a5b565b9050806001600160a01b0316836001600160a01b031614156108965760405162461bcd60e51b8152600401808060200182810382526021815260200180611f096021913960400191505060405180910390fd5b806001600160a01b03166108a86110de565b6001600160a01b031614806108c957506108c9816108c46110de565b611065565b6109045760405162461bcd60e51b8152600401808060200182810382526038815260200180611dd86038913960400191505060405180910390fd5b61090e83836110e2565b505050565b600061091f6066611150565b905090565b6000838152609760209081526040909120835161094392850190611c7e565b506000838152609860209081526040909120825161096392840190611ce3565b50505050565b61097a6109746110de565b8261115b565b6109b55760405162461bcd60e51b8152600401808060200182810382526031815260200180611f2a6031913960400191505060405180910390fd5b61090e8383836111ff565b6001600160a01b03821660009081526065602052604081206109e2908361134b565b90505b92915050565b6109f58282611357565b5050565b61090e83838360405180602001604052806000815250610cb2565b60986020528160005260406000208181548110610a3057600080fd5b90600052602060002001600091509150505481565b600080610a53606684611485565b509392505050565b60006109e582604051806060016040528060298152602001611e3a60299139606691906114a1565b606d8054604080516020601f60026000196101006001881615020190951694909404938401819004810282018101909252828152606093909290918301828280156107cc5780601f106107a1576101008083540402835291602001916107cc565b60006001600160a01b038216610b2b5760405162461bcd60e51b815260040180806020018281038252602a815260200180611e10602a913960400191505060405180910390fd5b6001600160a01b03821660009081526065602052604090206109e590611150565b606b8054604080516020601f60026000196101006001881615020190951694909404938401819004810282018101909252828152606093909290918301828280156107cc5780601f106107a1576101008083540402835291602001916107cc565b610bb56110de565b6001600160a01b0316826001600160a01b03161415610c1b576040805162461bcd60e51b815260206004820152601960248201527f4552433732313a20617070726f766520746f2063616c6c657200000000000000604482015290519081900360640190fd5b8060696000610c286110de565b6001600160a01b03908116825260208083019390935260409182016000908120918716808252919093529120805460ff191692151592909217909155610c6c6110de565b6001600160a01b03167f17307eab39ab6107e8899845ad3d59bd9653f200f220920489ca2b5937696c318360405180821515815260200191505060405180910390a35050565b610cc3610cbd6110de565b8361115b565b610cfe5760405162461bcd60e51b8152600401808060200182810382526031815260200180611f2a6031913960400191505060405180910390fd5b610963848484846114b8565b60608060976000848152602001908152602001600020805480602002602001604051908101604052809291908181526020018280548015610d7457602002820191906000526020600020905b81546001600160a01b03168152600190910190602001808311610d56575b5050505050915060986000848152602001908152602001600020805480602002602001604051908101604052809291908181526020018280548015610dd857602002820191906000526020600020905b815481526020019060010190808311610dc4575b50505050509050915091565b6060610def826110d1565b610e2a5760405162461bcd60e51b815260040180806020018281038252602f815260200180611eda602f913960400191505060405180910390fd5b6000828152606c602090815260408083208054825160026001831615610100026000190190921691909104601f810185900485028201850190935282815292909190830182828015610ebd5780601f10610e9257610100808354040283529160200191610ebd565b820191906000526020600020905b815481529060010190602001808311610ea057829003601f168201915b505050505090506000610ece610a83565b9050805160001415610ee25750905061073b565b815115610fa35780826040516020018083805190602001908083835b60208310610f1d5780518252601f199092019160209182019101610efe565b51815160209384036101000a600019018019909216911617905285519190930192850191508083835b60208310610f655780518252601f199092019160209182019101610f46565b6001836020036101000a038019825116818451168082178552505050505050905001925050506040516020818303038152906040529250505061073b565b80610fad8561150a565b6040516020018083805190602001908083835b60208310610fdf5780518252601f199092019160209182019101610fc0565b51815160209384036101000a600019018019909216911617905285519190930192850191508083835b602083106110275780518252601f199092019160209182019101611008565b6001836020036101000a0380198251168184511680821785525050505050509050019250505060405160208183030381529060405292505050919050565b6001600160a01b03918216600090815260696020908152604080832093909416825291909152205460ff1690565b609760205281600052604060002081815481106110af57600080fd5b6000918252602090912001546001600160a01b03169150829050565b3b151590565b60006109e56066836115e5565b3390565b600081815260686020526040902080546001600160a01b0319166001600160a01b038416908117909155819061111782610a5b565b6001600160a01b03167f8c5be1e5ebec7d5bd14f71427d1e84f3dd0314c0f7b2291e5b200ac8c7c3b92560405160405180910390a45050565b60006109e5826115f1565b6000611166826110d1565b6111a15760405162461bcd60e51b815260040180806020018281038252602c815260200180611dac602c913960400191505060405180910390fd5b60006111ac83610a5b565b9050806001600160a01b0316846001600160a01b031614806111e75750836001600160a01b03166111dc846107d6565b6001600160a01b0316145b806111f757506111f78185611065565b949350505050565b826001600160a01b031661121282610a5b565b6001600160a01b0316146112575760405162461bcd60e51b8152600401808060200182810382526029815260200180611eb16029913960400191505060405180910390fd5b6001600160a01b03821661129c5760405162461bcd60e51b8152600401808060200182810382526024815260200180611d886024913960400191505060405180910390fd5b6112a783838361090e565b6112b26000826110e2565b6001600160a01b03831660009081526065602052604090206112d490826115f5565b506001600160a01b03821660009081526065602052604090206112f79082611601565b506113046066828461160d565b5080826001600160a01b0316846001600160a01b03167fddf252ad1be2c89b69c2b068fc378daa952ba7f163c4a11628f55a4df523b3ef60405160405180910390a4505050565b60006109e28383611623565b6001600160a01b0382166113b2576040805162461bcd60e51b815260206004820181905260248201527f4552433732313a206d696e7420746f20746865207a65726f2061646472657373604482015290519081900360640190fd5b6113bb816110d1565b1561140d576040805162461bcd60e51b815260206004820152601c60248201527f4552433732313a20746f6b656e20616c7265616479206d696e74656400000000604482015290519081900360640190fd5b6114196000838361090e565b6001600160a01b038216600090815260656020526040902061143b9082611601565b506114486066828461160d565b5060405181906001600160a01b038416906000907fddf252ad1be2c89b69c2b068fc378daa952ba7f163c4a11628f55a4df523b3ef908290a45050565b60008080806114948686611687565b9097909650945050505050565b60006114ae848484611702565b90505b9392505050565b6114c38484846111ff565b6114cf848484846117cc565b6109635760405162461bcd60e51b8152600401808060200182810382526032815260200180611d566032913960400191505060405180910390fd5b60608161152f57506040805180820190915260018152600360fc1b602082015261073b565b8160005b811561154757600101600a82049150611533565b60008167ffffffffffffffff8111801561156057600080fd5b506040519080825280601f01601f19166020018201604052801561158b576020820181803683370190505b50859350905060001982015b83156115dc57600a840660300160f81b828280600190039350815181106115ba57fe5b60200101906001600160f81b031916908160001a905350600a84049350611597565b50949350505050565b60006109e28383611934565b5490565b60006109e2838361194c565b60006109e28383611a12565b60006114ae84846001600160a01b038516611a5c565b815460009082106116655760405162461bcd60e51b8152600401808060200182810382526022815260200180611d346022913960400191505060405180910390fd5b82600001828154811061167457fe5b9060005260206000200154905092915050565b8154600090819083106116cb5760405162461bcd60e51b8152600401808060200182810382526022815260200180611e636022913960400191505060405180910390fd5b60008460000184815481106116dc57fe5b906000526020600020906002020190508060000154816001015492509250509250929050565b6000828152600184016020526040812054828161179d5760405162461bcd60e51b81526004018080602001828103825283818151815260200191508051906020019080838360005b8381101561176257818101518382015260200161174a565b50505050905090810190601f16801561178f5780820380516001836020036101000a031916815260200191505b509250505060405180910390fd5b508460000160018203815481106117b057fe5b9060005260206000209060020201600101549150509392505050565b60006117e0846001600160a01b03166110cb565b6117ec575060016111f7565b60006118fa630a85bd0160e11b6118016110de565b88878760405160240180856001600160a01b03168152602001846001600160a01b0316815260200183815260200180602001828103825283818151815260200191508051906020019080838360005b83811015611868578181015183820152602001611850565b50505050905090810190601f1680156118955780820380516001836020036101000a031916815260200191505b5095505050505050604051602081830303815290604052906001600160e01b0319166020820180516001600160e01b038381831617835250505050604051806060016040528060328152602001611d56603291396001600160a01b0388169190611af3565b9050600081806020019051602081101561191357600080fd5b50516001600160e01b031916630a85bd0160e11b1492505050949350505050565b60009081526001919091016020526040902054151590565b60008181526001830160205260408120548015611a08578354600019808301919081019060009087908390811061197f57fe5b906000526020600020015490508087600001848154811061199c57fe5b6000918252602080832090910192909255828152600189810190925260409020908401905586548790806119cc57fe5b600190038181906000526020600020016000905590558660010160008781526020019081526020016000206000905560019450505050506109e5565b60009150506109e5565b6000611a1e8383611934565b611a54575081546001818101845560008481526020808220909301849055845484825282860190935260409020919091556109e5565b5060006109e5565b600082815260018401602052604081205480611ac15750506040805180820182528381526020808201848152865460018181018955600089815284812095516002909302909501918255915190820155865486845281880190925292909120556114b1565b82856000016001830381548110611ad457fe5b90600052602060002090600202016001018190555060009150506114b1565b60606114ae848460008585611b07856110cb565b611b58576040805162461bcd60e51b815260206004820152601d60248201527f416464726573733a2063616c6c20746f206e6f6e2d636f6e7472616374000000604482015290519081900360640190fd5b600080866001600160a01b031685876040518082805190602001908083835b60208310611b965780518252601f199092019160209182019101611b77565b6001836020036101000a03801982511681845116808217855250505050505090500191505060006040518083038185875af1925050503d8060008114611bf8576040519150601f19603f3d011682016040523d82523d6000602084013e611bfd565b606091505b5091509150611c0d828286611c18565b979650505050505050565b60608315611c275750816114b1565b825115611c375782518084602001fd5b60405162461bcd60e51b815260206004820181815284516024840152845185939192839260440191908501908083836000831561176257818101518382015260200161174a565b828054828255906000526020600020908101928215611cd3579160200282015b82811115611cd357825182546001600160a01b0319166001600160a01b03909116178255602090920191600190910190611c9e565b50611cdf929150611d1e565b5090565b828054828255906000526020600020908101928215611cd3579160200282015b82811115611cd3578251825591602001919060010190611d03565b5b80821115611cdf5760008155600101611d1f56fe456e756d657261626c655365743a20696e646578206f7574206f6620626f756e64734552433732313a207472616e7366657220746f206e6f6e20455243373231526563656976657220696d706c656d656e7465724552433732313a207472616e7366657220746f20746865207a65726f20616464726573734552433732313a206f70657261746f7220717565727920666f72206e6f6e6578697374656e7420746f6b656e4552433732313a20617070726f76652063616c6c6572206973206e6f74206f776e6572206e6f7220617070726f76656420666f7220616c6c4552433732313a2062616c616e636520717565727920666f7220746865207a65726f20616464726573734552433732313a206f776e657220717565727920666f72206e6f6e6578697374656e7420746f6b656e456e756d657261626c654d61703a20696e646578206f7574206f6620626f756e64734552433732313a20617070726f76656420717565727920666f72206e6f6e6578697374656e7420746f6b656e4552433732313a207472616e73666572206f6620746f6b656e2074686174206973206e6f74206f776e4552433732314d657461646174613a2055524920717565727920666f72206e6f6e6578697374656e7420746f6b656e4552433732313a20617070726f76616c20746f2063757272656e74206f776e65724552433732313a207472616e736665722063616c6c6572206973206e6f74206f776e6572206e6f7220617070726f766564a2646970667358221220fe91b82d4262934d0fe934d056496fae4fe2d4f43477c803a41b42f3420bc60e64736f6c63430007060033496e697469616c697a61626c653a20636f6e747261637420697320616c726561647920696e697469616c697a6564",
  "linkReferences": {},
  "deployedLinkReferences": {}
}