{
  "address": "0x24D31Af64AA0028A5389b25Ef1Eae7eB59fF1CC3",
  "abi": [
    {
      "inputs": [],
      "stateMutability": "nonpayable",
      "type": "constructor"
    },
    {
      "inputs": [],
      "name": "AccessControlBadConfirmation",
      "type": "error"
    },
    {
      "inputs": [
        {
          "internalType": "address",
          "name": "account",
          "type": "address"
        },
        {
          "internalType": "bytes32",
          "name": "neededRole",
          "type": "bytes32"
        }
      ],
      "name": "AccessControlUnauthorizedAccount",
      "type": "error"
    },
    {
      "inputs": [],
      "name": "ECDSAInvalidSignature",
      "type": "error"
    },
    {
      "inputs": [
        {
          "internalType": "uint256",
          "name": "length",
          "type": "uint256"
        }
      ],
      "name": "ECDSAInvalidSignatureLength",
      "type": "error"
    },
    {
      "inputs": [
        {
          "internalType": "bytes32",
          "name": "s",
          "type": "bytes32"
        }
      ],
      "name": "ECDSAInvalidSignatureS",
      "type": "error"
    },
    {
      "inputs": [],
      "name": "InvalidInitialization",
      "type": "error"
    },
    {
      "inputs": [],
      "name": "NotInitializing",
      "type": "error"
    },
    {
      "inputs": [
        {
          "internalType": "address",
          "name": "owner",
          "type": "address"
        }
      ],
      "name": "OwnableInvalidOwner",
      "type": "error"
    },
    {
      "inputs": [
        {
          "internalType": "address",
          "name": "account",
          "type": "address"
        }
      ],
      "name": "OwnableUnauthorizedAccount",
      "type": "error"
    },
    {
      "inputs": [],
      "name": "ReentrancyGuardReentrantCall",
      "type": "error"
    },
    {
      "inputs": [
        {
          "internalType": "address",
          "name": "token",
          "type": "address"
        }
      ],
      "name": "SafeERC20FailedOperation",
      "type": "error"
    },
    {
      "anonymous": false,
      "inputs": [
        {
          "indexed": true,
          "internalType": "address",
          "name": "owner",
          "type": "address"
        },
        {
          "indexed": true,
          "internalType": "address",
          "name": "spender",
          "type": "address"
        },
        {
          "indexed": false,
          "internalType": "uint256",
          "name": "value",
          "type": "uint256"
        }
      ],
      "name": "Approval",
      "type": "event"
    },
    {
      "anonymous": false,
      "inputs": [
        {
          "indexed": true,
          "internalType": "uint256",
          "name": "epochIndex",
          "type": "uint256"
        },
        {
          "indexed": false,
          "internalType": "uint256",
          "name": "totalAllocatedPoints",
          "type": "uint256"
        },
        {
          "indexed": false,
          "internalType": "uint256",
          "name": "price",
          "type": "uint256"
        }
      ],
      "name": "EpochUpdated",
      "type": "event"
    },
    {
      "anonymous": false,
      "inputs": [
        {
          "indexed": true,
          "internalType": "address",
          "name": "by",
          "type": "address"
        },
        {
          "indexed": true,
          "internalType": "address",
          "name": "token",
          "type": "address"
        },
        {
          "indexed": false,
          "internalType": "uint256",
          "name": "amount",
          "type": "uint256"
        },
        {
          "indexed": true,
          "internalType": "address",
          "name": "to",
          "type": "address"
        }
      ],
      "name": "FeeWithdrawn",
      "type": "event"
    },
    {
      "anonymous": false,
      "inputs": [
        {
          "indexed": false,
          "internalType": "uint64",
          "name": "version",
          "type": "uint64"
        }
      ],
      "name": "Initialized",
      "type": "event"
    },
    {
      "anonymous": false,
      "inputs": [
        {
          "indexed": true,
          "internalType": "address",
          "name": "previousOwner",
          "type": "address"
        },
        {
          "indexed": true,
          "internalType": "address",
          "name": "newOwner",
          "type": "address"
        }
      ],
      "name": "OwnershipTransferred",
      "type": "event"
    },
    {
      "anonymous": false,
      "inputs": [
        {
          "indexed": true,
          "internalType": "address",
          "name": "user",
          "type": "address"
        },
        {
          "indexed": true,
          "internalType": "uint256",
          "name": "epochIndex",
          "type": "uint256"
        },
        {
          "indexed": false,
          "internalType": "uint256",
          "name": "pointsClaimed",
          "type": "uint256"
        },
        {
          "indexed": false,
          "internalType": "uint256",
          "name": "rewardAmount",
          "type": "uint256"
        }
      ],
      "name": "RewardClaimed",
      "type": "event"
    },
    {
      "anonymous": false,
      "inputs": [
        {
          "indexed": true,
          "internalType": "address",
          "name": "rewardToken",
          "type": "address"
        }
      ],
      "name": "RewardTokenSet",
      "type": "event"
    },
    {
      "anonymous": false,
      "inputs": [
        {
          "indexed": false,
          "internalType": "uint256",
          "name": "amount",
          "type": "uint256"
        },
        {
          "indexed": true,
          "internalType": "address",
          "name": "to",
          "type": "address"
        }
      ],
      "name": "RewardTokenWithdrawn",
      "type": "event"
    },
    {
      "anonymous": false,
      "inputs": [
        {
          "indexed": true,
          "internalType": "bytes32",
          "name": "role",
          "type": "bytes32"
        },
        {
          "indexed": true,
          "internalType": "bytes32",
          "name": "previousAdminRole",
          "type": "bytes32"
        },
        {
          "indexed": true,
          "internalType": "bytes32",
          "name": "newAdminRole",
          "type": "bytes32"
        }
      ],
      "name": "RoleAdminChanged",
      "type": "event"
    },
    {
      "anonymous": false,
      "inputs": [
        {
          "indexed": true,
          "internalType": "bytes32",
          "name": "role",
          "type": "bytes32"
        },
        {
          "indexed": true,
          "internalType": "address",
          "name": "account",
          "type": "address"
        },
        {
          "indexed": true,
          "internalType": "address",
          "name": "sender",
          "type": "address"
        }
      ],
      "name": "RoleGranted",
      "type": "event"
    },
    {
      "anonymous": false,
      "inputs": [
        {
          "indexed": true,
          "internalType": "bytes32",
          "name": "role",
          "type": "bytes32"
        },
        {
          "indexed": true,
          "internalType": "address",
          "name": "account",
          "type": "address"
        },
        {
          "indexed": true,
          "internalType": "address",
          "name": "sender",
          "type": "address"
        }
      ],
      "name": "RoleRevoked",
      "type": "event"
    },
    {
      "anonymous": false,
      "inputs": [
        {
          "indexed": true,
          "internalType": "address",
          "name": "from",
          "type": "address"
        },
        {
          "indexed": true,
          "internalType": "address",
          "name": "to",
          "type": "address"
        },
        {
          "indexed": false,
          "internalType": "uint256",
          "name": "value",
          "type": "uint256"
        }
      ],
      "name": "Transfer",
      "type": "event"
    },
    {
      "inputs": [],
      "name": "DEFAULT_ADMIN_ROLE",
      "outputs": [
        {
          "internalType": "bytes32",
          "name": "",
          "type": "bytes32"
        }
      ],
      "stateMutability": "view",
      "type": "function"
    },
    {
      "inputs": [],
      "name": "EPOCH_ROLE",
      "outputs": [
        {
          "internalType": "bytes32",
          "name": "",
          "type": "bytes32"
        }
      ],
      "stateMutability": "view",
      "type": "function"
    },
    {
      "inputs": [],
      "name": "PRICE_SCALE",
      "outputs": [
        {
          "internalType": "uint256",
          "name": "",
          "type": "uint256"
        }
      ],
      "stateMutability": "view",
      "type": "function"
    },
    {
      "inputs": [],
      "name": "SWAP_ROLE",
      "outputs": [
        {
          "internalType": "bytes32",
          "name": "",
          "type": "bytes32"
        }
      ],
      "stateMutability": "view",
      "type": "function"
    },
    {
      "inputs": [
        {
          "internalType": "address",
          "name": "",
          "type": "address"
        },
        {
          "internalType": "address",
          "name": "",
          "type": "address"
        }
      ],
      "name": "allowance",
      "outputs": [
        {
          "internalType": "uint256",
          "name": "",
          "type": "uint256"
        }
      ],
      "stateMutability": "pure",
      "type": "function"
    },
    {
      "inputs": [
        {
          "internalType": "address",
          "name": "",
          "type": "address"
        },
        {
          "internalType": "uint256",
          "name": "",
          "type": "uint256"
        }
      ],
      "name": "approve",
      "outputs": [
        {
          "internalType": "bool",
          "name": "",
          "type": "bool"
        }
      ],
      "stateMutability": "pure",
      "type": "function"
    },
    {
      "inputs": [
        {
          "internalType": "address",
          "name": "account",
          "type": "address"
        }
      ],
      "name": "balanceOf",
      "outputs": [
        {
          "internalType": "uint256",
          "name": "",
          "type": "uint256"
        }
      ],
      "stateMutability": "view",
      "type": "function"
    },
    {
      "inputs": [
        {
          "internalType": "address",
          "name": "user",
          "type": "address"
        },
        {
          "internalType": "uint256",
          "name": "epoch",
          "type": "uint256"
        },
        {
          "internalType": "uint256",
          "name": "points",
          "type": "uint256"
        }
      ],
      "name": "claimMessageHash",
      "outputs": [
        {
          "internalType": "bytes32",
          "name": "",
          "type": "bytes32"
        }
      ],
      "stateMutability": "view",
      "type": "function"
    },
    {
      "inputs": [
        {
          "internalType": "uint256",
          "name": "pointsToClaim",
          "type": "uint256"
        },
        {
          "internalType": "uint256",
          "name": "totalPoints",
          "type": "uint256"
        },
        {
          "internalType": "uint256",
          "name": "epoch",
          "type": "uint256"
        },
        {
          "internalType": "bytes",
          "name": "signature",
          "type": "bytes"
        }
      ],
      "name": "claimReward",
      "outputs": [],
      "stateMutability": "nonpayable",
      "type": "function"
    },
    {
      "inputs": [
        {
          "internalType": "address",
          "name": "",
          "type": "address"
        }
      ],
      "name": "claimedPoints",
      "outputs": [
        {
          "internalType": "uint256",
          "name": "",
          "type": "uint256"
        }
      ],
      "stateMutability": "view",
      "type": "function"
    },
    {
      "inputs": [],
      "name": "decimals",
      "outputs": [
        {
          "internalType": "uint8",
          "name": "",
          "type": "uint8"
        }
      ],
      "stateMutability": "pure",
      "type": "function"
    },
    {
      "inputs": [],
      "name": "epochIndex",
      "outputs": [
        {
          "internalType": "uint256",
          "name": "",
          "type": "uint256"
        }
      ],
      "stateMutability": "view",
      "type": "function"
    },
    {
      "inputs": [
        {
          "internalType": "address",
          "name": "user",
          "type": "address"
        },
        {
          "internalType": "uint256",
          "name": "epoch",
          "type": "uint256"
        },
        {
          "internalType": "uint256",
          "name": "signedCumulativePoints",
          "type": "uint256"
        }
      ],
      "name": "getClaimable",
      "outputs": [
        {
          "internalType": "uint256",
          "name": "claimablePoints",
          "type": "uint256"
        },
        {
          "internalType": "uint256",
          "name": "claimableAmount",
          "type": "uint256"
        }
      ],
      "stateMutability": "view",
      "type": "function"
    },
    {
      "inputs": [
        {
          "internalType": "bytes32",
          "name": "role",
          "type": "bytes32"
        }
      ],
      "name": "getRoleAdmin",
      "outputs": [
        {
          "internalType": "bytes32",
          "name": "",
          "type": "bytes32"
        }
      ],
      "stateMutability": "view",
      "type": "function"
    },
    {
      "inputs": [
        {
          "internalType": "bytes32",
          "name": "role",
          "type": "bytes32"
        },
        {
          "internalType": "address",
          "name": "account",
          "type": "address"
        }
      ],
      "name": "grantRole",
      "outputs": [],
      "stateMutability": "nonpayable",
      "type": "function"
    },
    {
      "inputs": [
        {
          "internalType": "bytes32",
          "name": "role",
          "type": "bytes32"
        },
        {
          "internalType": "address",
          "name": "account",
          "type": "address"
        }
      ],
      "name": "hasRole",
      "outputs": [
        {
          "internalType": "bool",
          "name": "",
          "type": "bool"
        }
      ],
      "stateMutability": "view",
      "type": "function"
    },
    {
      "inputs": [
        {
          "internalType": "address",
          "name": "_initialOwner",
          "type": "address"
        }
      ],
      "name": "initialize",
      "outputs": [],
      "stateMutability": "nonpayable",
      "type": "function"
    },
    {
      "inputs": [],
      "name": "name",
      "outputs": [
        {
          "internalType": "string",
          "name": "",
          "type": "string"
        }
      ],
      "stateMutability": "pure",
      "type": "function"
    },
    {
      "inputs": [],
      "name": "owner",
      "outputs": [
        {
          "internalType": "address",
          "name": "",
          "type": "address"
        }
      ],
      "stateMutability": "view",
      "type": "function"
    },
    {
      "inputs": [],
      "name": "price",
      "outputs": [
        {
          "internalType": "uint256",
          "name": "",
          "type": "uint256"
        }
      ],
      "stateMutability": "view",
      "type": "function"
    },
    {
      "inputs": [],
      "name": "renounceOwnership",
      "outputs": [],
      "stateMutability": "nonpayable",
      "type": "function"
    },
    {
      "inputs": [
        {
          "internalType": "bytes32",
          "name": "role",
          "type": "bytes32"
        },
        {
          "internalType": "address",
          "name": "callerConfirmation",
          "type": "address"
        }
      ],
      "name": "renounceRole",
      "outputs": [],
      "stateMutability": "nonpayable",
      "type": "function"
    },
    {
      "inputs": [
        {
          "internalType": "bytes32",
          "name": "role",
          "type": "bytes32"
        },
        {
          "internalType": "address",
          "name": "account",
          "type": "address"
        }
      ],
      "name": "revokeRole",
      "outputs": [],
      "stateMutability": "nonpayable",
      "type": "function"
    },
    {
      "inputs": [],
      "name": "rewardToken",
      "outputs": [
        {
          "internalType": "contract IERC20",
          "name": "",
          "type": "address"
        }
      ],
      "stateMutability": "view",
      "type": "function"
    },
    {
      "inputs": [
        {
          "internalType": "address",
          "name": "_rewardToken",
          "type": "address"
        }
      ],
      "name": "setRewardToken",
      "outputs": [],
      "stateMutability": "nonpayable",
      "type": "function"
    },
    {
      "inputs": [
        {
          "internalType": "bytes4",
          "name": "interfaceId",
          "type": "bytes4"
        }
      ],
      "name": "supportsInterface",
      "outputs": [
        {
          "internalType": "bool",
          "name": "",
          "type": "bool"
        }
      ],
      "stateMutability": "view",
      "type": "function"
    },
    {
      "inputs": [],
      "name": "symbol",
      "outputs": [
        {
          "internalType": "string",
          "name": "",
          "type": "string"
        }
      ],
      "stateMutability": "pure",
      "type": "function"
    },
    {
      "inputs": [],
      "name": "totalAllocatedPoints",
      "outputs": [
        {
          "internalType": "uint256",
          "name": "",
          "type": "uint256"
        }
      ],
      "stateMutability": "view",
      "type": "function"
    },
    {
      "inputs": [],
      "name": "totalConvertedPoints",
      "outputs": [
        {
          "internalType": "uint256",
          "name": "",
          "type": "uint256"
        }
      ],
      "stateMutability": "view",
      "type": "function"
    },
    {
      "inputs": [],
      "name": "totalSupply",
      "outputs": [
        {
          "internalType": "uint256",
          "name": "",
          "type": "uint256"
        }
      ],
      "stateMutability": "view",
      "type": "function"
    },
    {
      "inputs": [
        {
          "internalType": "address",
          "name": "",
          "type": "address"
        },
        {
          "internalType": "uint256",
          "name": "",
          "type": "uint256"
        }
      ],
      "name": "transfer",
      "outputs": [
        {
          "internalType": "bool",
          "name": "",
          "type": "bool"
        }
      ],
      "stateMutability": "pure",
      "type": "function"
    },
    {
      "inputs": [
        {
          "internalType": "address",
          "name": "",
          "type": "address"
        },
        {
          "internalType": "address",
          "name": "",
          "type": "address"
        },
        {
          "internalType": "uint256",
          "name": "",
          "type": "uint256"
        }
      ],
      "name": "transferFrom",
      "outputs": [
        {
          "internalType": "bool",
          "name": "",
          "type": "bool"
        }
      ],
      "stateMutability": "pure",
      "type": "function"
    },
    {
      "inputs": [
        {
          "internalType": "address",
          "name": "newOwner",
          "type": "address"
        }
      ],
      "name": "transferOwnership",
      "outputs": [],
      "stateMutability": "nonpayable",
      "type": "function"
    },
    {
      "inputs": [
        {
          "internalType": "uint256",
          "name": "newTotalPoints",
          "type": "uint256"
        }
      ],
      "name": "updateEpoch",
      "outputs": [],
      "stateMutability": "nonpayable",
      "type": "function"
    },
    {
      "inputs": [
        {
          "internalType": "address",
          "name": "token",
          "type": "address"
        },
        {
          "internalType": "uint256",
          "name": "amount",
          "type": "uint256"
        },
        {
          "internalType": "address",
          "name": "to",
          "type": "address"
        }
      ],
      "name": "withdrawFees",
      "outputs": [],
      "stateMutability": "nonpayable",
      "type": "function"
    },
    {
      "inputs": [
        {
          "internalType": "uint256",
          "name": "amount",
          "type": "uint256"
        },
        {
          "internalType": "address",
          "name": "to",
          "type": "address"
        }
      ],
      "name": "withdrawFeesETH",
      "outputs": [],
      "stateMutability": "nonpayable",
      "type": "function"
    },
    {
      "inputs": [
        {
          "internalType": "uint256",
          "name": "amount",
          "type": "uint256"
        },
        {
          "internalType": "address",
          "name": "to",
          "type": "address"
        }
      ],
      "name": "withdrawRewardToken",
      "outputs": [],
      "stateMutability": "nonpayable",
      "type": "function"
    },
    {
      "stateMutability": "payable",
      "type": "receive"
    }
  ],
  "transactionHash": "0x006b09f6bd639223edf06044f797954044e0aaafd3ec74f733e0ec698d9f960f",
  "args": [],
  "numDeployments": 3,
  "solcInputHash": "2fecdaf3aedb182dd655eebdfc1cd3eb",
  "bytecode": "0x608060405234801561001057600080fd5b5061001961001e565b6100d0565b7ff0c57e16840df040f15088dc2f81fe391c3923bec73e23a9662efc9c229c6a00805468010000000000000000900460ff161561006e5760405163f92ee8a960e01b815260040160405180910390fd5b80546001600160401b03908116146100cd5780546001600160401b0319166001600160401b0390811782556040519081527fc7f505b2f371ae2175ee4913f4499e1f2633a7b5936321eed1cdaeb6115181d29060200160405180910390a15b50565b611e8b806100df6000396000f3fe6080604052600436106101be5760003560e01c8063715018a6116100f3578063715018a6146104445780638aee8127146104595780638da5cb5b1461047957806391d148541461049b57806395d89b41146104bb5780639ba372c2146104ea578063a035b1fe1461050a578063a160d72f14610520578063a217fddf14610555578063a5fc06e41461056a578063a9059cbb14610267578063c33f59d31461058c578063c4d66de8146105a8578063cacd50f4146105c8578063d4b7f403146105e8578063d547741f1461060a578063dd62ed3e1461062a578063f2fde38b1461064d578063f7c618c11461066d57600080fd5b806301ffc9a7146101ca57806306c106f9146101ff57806306fdde0314610223578063095ea7b31461026757806310dff60e1461028757806315545eb2146102b457806315ca0dc0146102ca57806318160ddd146102ec57806318f11db41461030157806323b872dd14610321578063248a9ca31461033c5780632f2ff15d1461035c578063313ce5671461037c57806336568abe146103985780634c4c2bdc146103b85780634fc4ee15146103d85780636209deb4146103ee57806370a082311461040e57600080fd5b366101c557005b600080fd5b3480156101d657600080fd5b506101ea6101e5366004611a3b565b61068d565b60405190151581526020015b60405180910390f35b34801561020b57600080fd5b5061021560015481565b6040519081526020016101f6565b34801561022f57600080fd5b50604080518082019091526012815271526172692052657761726420506f696e747360701b60208201525b6040516101f69190611a6c565b34801561027357600080fd5b506101ea610282366004611ad7565b6106c4565b34801561029357600080fd5b506102156102a2366004611b01565b60056020526000908152604090205481565b3480156102c057600080fd5b5061021560025481565b3480156102d657600080fd5b506102ea6102e5366004611b1c565b610707565b005b3480156102f857600080fd5b50600354610215565b34801561030d57600080fd5b506102ea61031c366004611b35565b6108eb565b34801561032d57600080fd5b506101ea610282366004611b61565b34801561034857600080fd5b50610215610357366004611b1c565b610a15565b34801561036857600080fd5b506102ea610377366004611b35565b610a35565b34801561038857600080fd5b50604051601281526020016101f6565b3480156103a457600080fd5b506102ea6103b3366004611b35565b610a57565b3480156103c457600080fd5b506102156103d3366004611b9d565b610a8a565b3480156103e457600080fd5b5061021560035481565b3480156103fa57600080fd5b506102ea610409366004611bd0565b610a9f565b34801561041a57600080fd5b50610215610429366004611b01565b6001600160a01b031660009081526005602052604090205490565b34801561045057600080fd5b506102ea610e71565b34801561046557600080fd5b506102ea610474366004611b01565b610e85565b34801561048557600080fd5b5061048e610ed5565b6040516101f69190611c5c565b3480156104a757600080fd5b506101ea6104b6366004611b35565b610ef0565b3480156104c757600080fd5b5060408051808201909152600681526505261726952560d41b602082015261025a565b3480156104f657600080fd5b506102ea610505366004611c70565b610f26565b34801561051657600080fd5b5061021560045481565b34801561052c57600080fd5b5061054061053b366004611b9d565b6110e3565b604080519283526020830191909152016101f6565b34801561056157600080fd5b50610215600081565b34801561057657600080fd5b50610215600080516020611e3683398151915281565b34801561059857600080fd5b50610215670de0b6b3a764000081565b3480156105b457600080fd5b506102ea6105c3366004611b01565b611166565b3480156105d457600080fd5b506102ea6105e3366004611b35565b611309565b3480156105f457600080fd5b50610215600080516020611e1683398151915281565b34801561061657600080fd5b506102ea610625366004611b35565b61136f565b34801561063657600080fd5b50610215610645366004611cac565b600092915050565b34801561065957600080fd5b506102ea610668366004611b01565b61138b565b34801561067957600080fd5b5060005461048e906001600160a01b031681565b60006001600160e01b03198216637965db0b60e01b14806106be57506301ffc9a760e01b6001600160e01b03198316145b92915050565b60405162461bcd60e51b815260206004820152601060248201526f4e4f4e5f5452414e5346455241424c4560801b60448201526000906064015b60405180910390fd5b600080516020611e3683398151915261071f816113c9565b600254821161076d5760405162461bcd60e51b815260206004820152601a602482015279546f74616c20706f696e7473206d75737420696e63726561736560301b60448201526064016106fe565b6000600354831161077f57600061078c565b60035461078c9084611cec565b9050600081116107d85760405162461bcd60e51b8152602060048201526017602482015276139bc81b995dc81c1bda5b9d1cc81d1bc81c995dd85c99604a1b60448201526064016106fe565b600080546040516370a0823160e01b81526001600160a01b03909116906370a0823190610809903090600401611c5c565b602060405180830381865afa158015610826573d6000803e3d6000fd5b505050506040513d601f19601f8201168201806040525081019061084a9190611cff565b90508060000361085e57600060045561087f565b81610871670de0b6b3a764000083611d18565b61087b9190611d2f565b6004555b8360028190555060018060008282546108989190611d51565b90915550506001546002546004546040517f2df6562a84e8230615692a4ab0f0a5ed8c530ddef1234943bc37aa74646bb876926108dd92908252602082015260400190565b60405180910390a250505050565b600080516020611e16833981519152610903816113c9565b61090b6113d3565b6001600160a01b0382166109315760405162461bcd60e51b81526004016106fe90611d64565b824710156109515760405162461bcd60e51b81526004016106fe90611d8f565b6000826001600160a01b03168460405160006040518083038185875af1925050503d806000811461099e576040519150601f19603f3d011682016040523d82523d6000602084013e6109a3565b606091505b50509050806109c45760405162461bcd60e51b81526004016106fe90611db9565b6040518481526001600160a01b0384169060009033907f937945ae31f68a07b2e3e6c8bf3d812113b074d104fa92b0ea8604696aa7bb5e9060200160405180910390a450610a10611409565b505050565b600080610a2061141a565b60009384526020525050604090206001015490565b610a3e82610a15565b610a47816113c9565b610a51838361143e565b50505050565b6001600160a01b0381163314610a805760405163334bd91960e11b815260040160405180910390fd5b610a1082826114df565b6000610a97848484611557565b949350505050565b610aa76113d3565b60015433908414610aeb5760405162461bcd60e51b815260206004820152600e60248201526d08ae0dec6d040dad2e6dac2e8c6d60931b60448201526064016106fe565b60008611610b305760405162461bcd60e51b81526020600482015260126024820152714e6f20706f696e747320746f20636c61696d60701b60448201526064016106fe565b60008511610b8c5760405162461bcd60e51b815260206004820152602360248201527f546f74616c20706f696e7473206d75737420626520677265617465722074686160448201526206e20360ec1b60648201526084016106fe565b6000610b99828688611557565b90506000610bdd8286868080601f0160208091040260200160405190810160405280939291908181526020018383808284376000920191909152506115e092505050565b9050610bf7600080516020611e3683398151915282610ef0565b610c375760405162461bcd60e51b8152602060048201526011602482015270496e76616c6964207369676e617475726560781b60448201526064016106fe565b6001600160a01b038316600090815260056020526040902054808811610c935760405162461bcd60e51b81526020600482015260116024820152704e6f7468696e6720636c61696d61626c6560781b60448201526064016106fe565b6000610c9f828a611cec565b9050808a1115610d0d5760405162461bcd60e51b815260206004820152603360248201527f506f696e747320746f20636c61696d206d757374206265206c657373207468616044820152726e206f7220657175616c20746f2064656c746160681b60648201526084016106fe565b6000670de0b6b3a76400006004548c610d269190611d18565b610d309190611d2f565b905060008111610d785760405162461bcd60e51b81526020600482015260136024820152724e6f2072657761726420617661696c61626c6560681b60448201526064016106fe565b6001600160a01b038616600090815260056020526040812080548d9290610da0908490611d51565b925050819055508a60036000828254610db99190611d51565b9091555050600054610dd5906001600160a01b0316878361160a565b604080518c8152602081018390528a916001600160a01b038916917f812be816db82c66cd18ca8457005cd84689642d8ac4d38599cc6af444a2dc72a910160405180910390a36040518b81526001600160a01b038716906000907fddf252ad1be2c89b69c2b068fc378daa952ba7f163c4a11628f55a4df523b3ef9060200160405180910390a3505050505050610e6a611409565b5050505050565b610e79611662565b610e836000611694565b565b610e8d611662565b600080546001600160a01b0319166001600160a01b038316908117825560405190917f2d6b04df9b7d358407d1a014f1114b064add34c19d63d395db155a7e533e967a91a250565b600080610ee06116f0565b546001600160a01b031692915050565b600080610efb61141a565b6000948552602090815260408086206001600160a01b03959095168652939052505090205460ff1690565b600080516020611e16833981519152610f3e816113c9565b610f466113d3565b6001600160a01b038216610f6c5760405162461bcd60e51b81526004016106fe90611d64565b6001600160a01b0384166110135782471015610f9a5760405162461bcd60e51b81526004016106fe90611d8f565b6000826001600160a01b03168460405160006040518083038185875af1925050503d8060008114610fe7576040519150601f19603f3d011682016040523d82523d6000602084013e610fec565b606091505b505090508061100d5760405162461bcd60e51b81526004016106fe90611db9565b50611084565b6000546001600160a01b03908116908516036110705760405162461bcd60e51b815260206004820152601c60248201527b21b0b73737ba103bb4ba34323930bb903932bbb0b932103a37b5b2b760211b60448201526064016106fe565b6110846001600160a01b038516838561160a565b816001600160a01b0316846001600160a01b0316336001600160a01b03167f937945ae31f68a07b2e3e6c8bf3d812113b074d104fa92b0ea8604696aa7bb5e866040516110d391815260200190565b60405180910390a4610a51611409565b60008060015484146110fa5750600090508061115e565b6001600160a01b03851660009081526005602052604090205480841161112757600080925092505061115e565b60006111338286611cec565b905080670de0b6b3a76400006004548361114d9190611d18565b6111579190611d2f565b9350935050505b935093915050565b6000611170611714565b805490915060ff600160401b82041615906001600160401b03166000811580156111975750825b90506000826001600160401b031660011480156111b35750303b155b9050811580156111c1575080155b156111df5760405163f92ee8a960e01b815260040160405180910390fd5b845467ffffffffffffffff19166001178555831561120957845460ff60401b1916600160401b1785555b6001600160a01b03861661124f5760405162461bcd60e51b815260206004820152600d60248201526c24b73b30b634b21037bbb732b960991b60448201526064016106fe565b6112588661173d565b61126061174e565b611268611756565b60006001819055600281905560038190556004819055611288908761143e565b506112a1600080516020611e168339815191528761143e565b506112ba600080516020611e368339815191528761143e565b50831561130157845460ff60401b19168555604051600181527fc7f505b2f371ae2175ee4913f4499e1f2633a7b5936321eed1cdaeb6115181d29060200160405180910390a15b505050505050565b611311611662565b600054611328906001600160a01b0316828461160a565b806001600160a01b03167fdd11afe86f075236e5c742e42c7d1d8a9ec5ea954f474938f5acffc72c88e3fc8360405161136391815260200190565b60405180910390a25050565b61137882610a15565b611381816113c9565b610a5183836114df565b611393611662565b6001600160a01b0381166113bd576000604051631e4fbdf760e01b81526004016106fe9190611c5c565b6113c681611694565b50565b6113c68133611766565b60006113dd611795565b80549091506001190161140357604051633ee5aeb560e01b815260040160405180910390fd5b60029055565b6000611413611795565b6001905550565b7f02dd7bc7dec4dceedda775e58dd541e08a116c6c53815c0bd028192f7b62680090565b60008061144961141a565b90506114558484610ef0565b6114d5576000848152602082815260408083206001600160a01b03871684529091529020805460ff1916600117905561148b3390565b6001600160a01b0316836001600160a01b0316857f2f8788117e7eff1d82e926ec794901d17c78024a50270940304540a733656f0d60405160405180910390a460019150506106be565b60009150506106be565b6000806114ea61141a565b90506114f68484610ef0565b156114d5576000848152602082815260408083206001600160a01b0387168085529252808320805460ff1916905551339287917ff6391f5c32d9c69d2a47ea670b442974b53935d1edc7fd64eb21e047a839171b9190a460019150506106be565b60408051466020808301919091526001600160601b031930606090811b82168486015260548401969096529590941b90941660748501526088808501929092528051808503909201825260a890930190925281519101207b0ca2ba3432b932bab69029b4b3b732b21026b2b9b9b0b3b29d05199960211b6000908152601c91909152603c902090565b6000806000806115f086866117b9565b9250925092506116008282611806565b5090949350505050565b610a1083846001600160a01b031663a9059cbb8585604051602401611630929190611de6565b604051602081830303815290604052915060e01b6020820180516001600160e01b0383818316178352505050506118bf565b3361166b610ed5565b6001600160a01b031614610e83573360405163118cdaa760e01b81526004016106fe9190611c5c565b600061169e6116f0565b80546001600160a01b038481166001600160a01b031983168117845560405193945091169182907f8be0079c531659141344cd1fd0a4f28419497f9722a3daafe3b4186f6b6457e090600090a3505050565b7f9016d09d72d40fdae2fd8ceac6b6234c7706214fd39c1cd1e609a0528c19930090565b6000807ff0c57e16840df040f15088dc2f81fe391c3923bec73e23a9662efc9c229c6a006106be565b611745611927565b6113c68161194c565b610e83611927565b61175e611927565b610e83611954565b6117708282610ef0565b61179157808260405163e2517d3f60e01b81526004016106fe929190611de6565b5050565b7f9b779b17422d0df92223018b32b4d1fa46e071723d6817e2486d003becc55f0090565b600080600083516041036117f35760208401516040850151606086015160001a6117e58882858561195c565b9550955095505050506117ff565b50508151600091506002905b9250925092565b600082600381111561181a5761181a611dff565b03611823575050565b600182600381111561183757611837611dff565b036118555760405163f645eedf60e01b815260040160405180910390fd5b600282600381111561186957611869611dff565b0361188a5760405163fce698f760e01b8152600481018290526024016106fe565b600382600381111561189e5761189e611dff565b03611791576040516335e2f38360e21b8152600481018290526024016106fe565b600080602060008451602086016000885af1806118e2576040513d6000823e3d81fd5b50506000513d915081156118fa578060011415611907565b6001600160a01b0384163b155b15610a515783604051635274afe760e01b81526004016106fe9190611c5c565b61192f611a21565b610e8357604051631afcd79f60e31b815260040160405180910390fd5b611393611927565b611409611927565b600080806fa2a8918ca85bafe22016d0b997e4df60600160ff1b0384111561198d5750600091506003905082611a17565b604080516000808252602082018084528a905260ff891692820192909252606081018790526080810186905260019060a0016020604051602081039080840390855afa1580156119e1573d6000803e3d6000fd5b5050604051601f1901519150506001600160a01b038116611a0d57506000925060019150829050611a17565b9250600091508190505b9450945094915050565b6000611a2b611714565b54600160401b900460ff16919050565b600060208284031215611a4d57600080fd5b81356001600160e01b031981168114611a6557600080fd5b9392505050565b60006020808352835180602085015260005b81811015611a9a57858101830151858201604001528201611a7e565b506000604082860101526040601f19601f8301168501019250505092915050565b80356001600160a01b0381168114611ad257600080fd5b919050565b60008060408385031215611aea57600080fd5b611af383611abb565b946020939093013593505050565b600060208284031215611b1357600080fd5b611a6582611abb565b600060208284031215611b2e57600080fd5b5035919050565b60008060408385031215611b4857600080fd5b82359150611b5860208401611abb565b90509250929050565b600080600060608486031215611b7657600080fd5b611b7f84611abb565b9250611b8d60208501611abb565b9150604084013590509250925092565b600080600060608486031215611bb257600080fd5b611bbb84611abb565b95602085013595506040909401359392505050565b600080600080600060808688031215611be857600080fd5b85359450602086013593506040860135925060608601356001600160401b0380821115611c1457600080fd5b818801915088601f830112611c2857600080fd5b813581811115611c3757600080fd5b896020828501011115611c4957600080fd5b9699959850939650602001949392505050565b6001600160a01b0391909116815260200190565b600080600060608486031215611c8557600080fd5b611c8e84611abb565b925060208401359150611ca360408501611abb565b90509250925092565b60008060408385031215611cbf57600080fd5b611cc883611abb565b9150611b5860208401611abb565b634e487b7160e01b600052601160045260246000fd5b818103818111156106be576106be611cd6565b600060208284031215611d1157600080fd5b5051919050565b80820281158282048414176106be576106be611cd6565b600082611d4c57634e487b7160e01b600052601260045260246000fd5b500490565b808201808211156106be576106be611cd6565b602080825260119082015270125b9d985b1a59081c9958da5c1a595b9d607a1b604082015260600190565b60208082526010908201526f092dce6eaccccd2c6d2cadce8408aa8960831b604082015260600190565b602080825260139082015272115512081d1c985b9cd9995c8819985a5b1959606a1b604082015260600190565b6001600160a01b03929092168252602082015260400190565b634e487b7160e01b600052602160045260246000fdfe499b8dbdbe4f7b12284c4a222a9951ce4488b43af4d09f42655d67f73b612fe1d5a89e8a650061fa538ac2ef45b7e2fa231077c8f19d034f623c35bd12bf68aca264697066735822122073af4968c6ee896e26d77cf1973edf290cf15e4bb168d2a9da563a1aa4cd92ab64736f6c63430008170033",
  "devdoc": {
    "errors": {
      "AccessControlBadConfirmation()": [
        {
          "details": "The caller of a function is not the expected one. NOTE: Don't confuse with {AccessControlUnauthorizedAccount}."
        }
      ],
      "AccessControlUnauthorizedAccount(address,bytes32)": [
        {
          "details": "The `account` is missing a role."
        }
      ],
      "ECDSAInvalidSignature()": [
        {
          "details": "The signature derives the `address(0)`."
        }
      ],
      "ECDSAInvalidSignatureLength(uint256)": [
        {
          "details": "The signature has an invalid length."
        }
      ],
      "ECDSAInvalidSignatureS(bytes32)": [
        {
          "details": "The signature has an S value that is in the upper half order."
        }
      ],
      "InvalidInitialization()": [
        {
          "details": "The contract is already initialized."
        }
      ],
      "NotInitializing()": [
        {
          "details": "The contract is not initializing."
        }
      ],
      "OwnableInvalidOwner(address)": [
        {
          "details": "The owner is not a valid owner account. (eg. `address(0)`)"
        }
      ],
      "OwnableUnauthorizedAccount(address)": [
        {
          "details": "The caller account is not authorized to perform an operation."
        }
      ],
      "ReentrancyGuardReentrantCall()": [
        {
          "details": "Unauthorized reentrant call."
        }
      ],
      "SafeERC20FailedOperation(address)": [
        {
          "details": "An operation with an ERC-20 token failed."
        }
      ]
    },
    "events": {
      "Approval(address,address,uint256)": {
        "details": "Emitted when the allowance of a `spender` for an `owner` is set by a call to {approve}. `value` is the new allowance."
      },
      "Initialized(uint64)": {
        "details": "Triggered when the contract has been initialized or reinitialized."
      },
      "RoleAdminChanged(bytes32,bytes32,bytes32)": {
        "details": "Emitted when `newAdminRole` is set as ``role``'s admin role, replacing `previousAdminRole` `DEFAULT_ADMIN_ROLE` is the starting admin for all roles, despite {RoleAdminChanged} not being emitted to signal this."
      },
      "RoleGranted(bytes32,address,address)": {
        "details": "Emitted when `account` is granted `role`. `sender` is the account that originated the contract call. This account bears the admin role (for the granted role). Expected in cases where the role was granted using the internal {AccessControl-_grantRole}."
      },
      "RoleRevoked(bytes32,address,address)": {
        "details": "Emitted when `account` is revoked `role`. `sender` is the account that originated the contract call:   - if using `revokeRole`, it is the admin role bearer   - if using `renounceRole`, it is the role bearer (i.e. `account`)"
      },
      "Transfer(address,address,uint256)": {
        "details": "Emitted when `value` tokens are moved from one account (`from`) to another (`to`). Note that `value` may be zero."
      }
    },
    "kind": "dev",
    "methods": {
      "claimMessageHash(address,uint256,uint256)": {
        "details": "Backends can call this in tests to build the exact message to sign."
      },
      "claimReward(uint256,uint256,uint256,bytes)": {
        "details": "Signature must be from an address with EPOCH_ROLE.      The contract pays only the delta = signedPoints - alreadyClaimed[user].",
        "params": {
          "epoch": "The epoch index being claimed (must equal current epochIndex).",
          "pointsToClaim": "points user wants to claim.",
          "signature": "Backend signature over the claim (see claimMessageHash()).",
          "totalPoints": "CUMULATIVE points allocated to the user for this epoch."
        }
      },
      "constructor": {
        "custom:oz-upgrades-unsafe-allow": "constructor"
      },
      "getRoleAdmin(bytes32)": {
        "details": "Returns the admin role that controls `role`. See {grantRole} and {revokeRole}. To change a role's admin, use {_setRoleAdmin}."
      },
      "grantRole(bytes32,address)": {
        "details": "Grants `role` to `account`. If `account` had not been already granted `role`, emits a {RoleGranted} event. Requirements: - the caller must have ``role``'s admin role. May emit a {RoleGranted} event."
      },
      "hasRole(bytes32,address)": {
        "details": "Returns `true` if `account` has been granted `role`."
      },
      "initialize(address)": {
        "details": "Initializer function (to replace constructor in upgradeable contract).",
        "params": {
          "_initialOwner": "Address of the initial owner/admin."
        }
      },
      "owner()": {
        "details": "Returns the address of the current owner."
      },
      "renounceOwnership()": {
        "details": "Leaves the contract without owner. It will not be possible to call `onlyOwner` functions. Can only be called by the current owner. NOTE: Renouncing ownership will leave the contract without an owner, thereby disabling any functionality that is only available to the owner."
      },
      "renounceRole(bytes32,address)": {
        "details": "Revokes `role` from the calling account. Roles are often managed via {grantRole} and {revokeRole}: this function's purpose is to provide a mechanism for accounts to lose their privileges if they are compromised (such as when a trusted device is misplaced). If the calling account had been revoked `role`, emits a {RoleRevoked} event. Requirements: - the caller must be `callerConfirmation`. May emit a {RoleRevoked} event."
      },
      "revokeRole(bytes32,address)": {
        "details": "Revokes `role` from `account`. If `account` had been granted `role`, emits a {RoleRevoked} event. Requirements: - the caller must have ``role``'s admin role. May emit a {RoleRevoked} event."
      },
      "supportsInterface(bytes4)": {
        "details": "Returns true if this contract implements the interface defined by `interfaceId`. See the corresponding https://eips.ethereum.org/EIPS/eip-165#how-interfaces-are-identified[ERC section] to learn more about how these ids are created. This function call must use less than 30 000 gas."
      },
      "transferOwnership(address)": {
        "details": "Transfers ownership of the contract to a new account (`newOwner`). Can only be called by the current owner."
      },
      "updateEpoch(uint256)": {
        "details": "Only EPOCH_ROLE. Computes a new price per point from current RARI balance and remaining points.      - newTotalPoints must strictly increase.      - pointsToReward = newTotalPoints - totalConvertedPoints must be > 0",
        "params": {
          "newTotalPoints": "The new cumulative total points across all users."
        }
      },
      "withdrawFees(address,uint256,address)": {
        "details": "Restricted to SWAP_ROLE. Cannot withdraw the rewardToken (RARI).",
        "params": {
          "amount": "Amount to withdraw.",
          "to": "Recipient of the funds (swap executor).",
          "token": "Address of the token to withdraw (use address(0) for ETH)."
        }
      },
      "withdrawFeesETH(uint256,address)": {
        "details": "Restricted to SWAP_ROLE.",
        "params": {
          "amount": "Amount to withdraw.",
          "to": "Recipient of the funds (swap executor)."
        }
      },
      "withdrawRewardToken(uint256,address)": {
        "details": "Only the owner can withdraw the reward token.",
        "params": {
          "amount": "Amount to withdraw.",
          "to": "Recipient of the reward token."
        }
      }
    },
    "title": "RariReward",
    "version": 1
  },
  "userdoc": {
    "kind": "user",
    "methods": {
      "allowance(address,address)": {
        "notice": "Allowance is always zero for a non-transferable token."
      },
      "approve(address,uint256)": {
        "notice": "Approvals are not supported: always reverts."
      },
      "balanceOf(address)": {
        "notice": "Balance equals user's cumulative claimed points."
      },
      "claimMessageHash(address,uint256,uint256)": {
        "notice": "Helper to generate the off-chain message hash for signing."
      },
      "claimReward(uint256,uint256,uint256,bytes)": {
        "notice": "Claim RARI rewards for the caller, using a backend signature for (epoch, user, cumulative points)."
      },
      "decimals()": {
        "notice": "Returns the number of decimals of the token."
      },
      "getClaimable(address,uint256,uint256)": {
        "notice": "View helper: returns claimable points and amount given a signed \"cumulative points\" value."
      },
      "name()": {
        "notice": "Returns the name of the token."
      },
      "symbol()": {
        "notice": "Returns the symbol of the token."
      },
      "totalSupply()": {
        "notice": "Total supply equals total converted (claimed) points."
      },
      "transfer(address,uint256)": {
        "notice": "Non-transferable: always reverts."
      },
      "transferFrom(address,address,uint256)": {
        "notice": "Transfers via allowance are not supported: always reverts."
      },
      "updateEpoch(uint256)": {
        "notice": "Update the reward epoch with new total allocated points."
      },
      "withdrawFees(address,uint256,address)": {
        "notice": "Allows the Swap service to withdraw collected fees (ETH or non-RARI ERC20) for conversion to RARI."
      },
      "withdrawFeesETH(uint256,address)": {
        "notice": "Allows the Swap service to withdraw collected fees (ETH or non-RARI ERC20) for conversion to RARI."
      },
      "withdrawRewardToken(uint256,address)": {
        "notice": "Allows the owner to withdraw the reward token."
      }
    },
    "notice": "Reward distribution contract for an NFT Exchange. High-level: - Exchange forwards fees here (ETH or other tokens). - Off-chain Swap service pulls fees (EXCEPT rewardToken) to convert into RARI and sends RARI back here. - Backend (EPOCH_ROLE) updates epochs with cumulative total points => contract computes price per point. - Users claim with a backend signature for (epoch, user, cumulativePoints). Contract pays only the delta that   hasn't been claimed yet for that epoch. Key invariants: - price is scaled by 1e18 (PRICE_SCALE). - totalAllocatedPoints is cumulative across all time. - totalConvertedPoints tracks cumulative points that have actually been paid out. - On updateEpoch(newTotalPoints), price is set from the current RARI balance and the remaining unconverted points.",
    "version": 1
  },
  "storageLayout": {
    "storage": [
      {
        "astId": 8098,
        "contract": "src/RariReward.sol:RariReward",
        "label": "rewardToken",
        "offset": 0,
        "slot": "0",
        "type": "t_contract(IERC20)2093"
      },
      {
        "astId": 8100,
        "contract": "src/RariReward.sol:RariReward",
        "label": "epochIndex",
        "offset": 0,
        "slot": "1",
        "type": "t_uint256"
      },
      {
        "astId": 8102,
        "contract": "src/RariReward.sol:RariReward",
        "label": "totalAllocatedPoints",
        "offset": 0,
        "slot": "2",
        "type": "t_uint256"
      },
      {
        "astId": 8104,
        "contract": "src/RariReward.sol:RariReward",
        "label": "totalConvertedPoints",
        "offset": 0,
        "slot": "3",
        "type": "t_uint256"
      },
      {
        "astId": 8106,
        "contract": "src/RariReward.sol:RariReward",
        "label": "price",
        "offset": 0,
        "slot": "4",
        "type": "t_uint256"
      },
      {
        "astId": 8110,
        "contract": "src/RariReward.sol:RariReward",
        "label": "claimedPoints",
        "offset": 0,
        "slot": "5",
        "type": "t_mapping(t_address,t_uint256)"
      }
    ],
    "types": {
      "t_address": {
        "encoding": "inplace",
        "label": "address",
        "numberOfBytes": "20"
      },
      "t_contract(IERC20)2093": {
        "encoding": "inplace",
        "label": "contract IERC20",
        "numberOfBytes": "20"
      },
      "t_mapping(t_address,t_uint256)": {
        "encoding": "mapping",
        "key": "t_address",
        "label": "mapping(address => uint256)",
        "numberOfBytes": "32",
        "value": "t_uint256"
      },
      "t_uint256": {
        "encoding": "inplace",
        "label": "uint256",
        "numberOfBytes": "32"
      }
    }
  }
}