{
  "_format": "hh-sol-artifact-1",
  "contractName": "Royalties2981TestImpl",
  "sourceName": "@rarible/royalties/test/contracts/Royalties2981TestImpl.sol",
  "abi": [
    {
      "inputs": [
        {
          "internalType": "address payable",
          "name": "to",
          "type": "address"
        },
        {
          "internalType": "uint96",
          "name": "amount",
          "type": "uint96"
        }
      ],
      "name": "calculateRoyaltiesTest",
      "outputs": [
        {
          "components": [
            {
              "internalType": "address payable",
              "name": "account",
              "type": "address"
            },
            {
              "internalType": "uint96",
              "name": "value",
              "type": "uint96"
            }
          ],
          "internalType": "struct LibPart.Part[]",
          "name": "",
          "type": "tuple[]"
        }
      ],
      "stateMutability": "nonpayable",
      "type": "function"
    },
    {
      "inputs": [],
      "name": "royaltiesBasePoint",
      "outputs": [
        {
          "internalType": "uint256",
          "name": "",
          "type": "uint256"
        }
      ],
      "stateMutability": "view",
      "type": "function"
    },
    {
      "inputs": [
        {
          "internalType": "uint256",
          "name": "_tokenId",
          "type": "uint256"
        },
        {
          "internalType": "uint256",
          "name": "_salePrice",
          "type": "uint256"
        }
      ],
      "name": "royaltyInfo",
      "outputs": [
        {
          "internalType": "address",
          "name": "receiver",
          "type": "address"
        },
        {
          "internalType": "uint256",
          "name": "royaltyAmount",
          "type": "uint256"
        }
      ],
      "stateMutability": "view",
      "type": "function"
    },
    {
      "inputs": [
        {
          "internalType": "uint256",
          "name": "_value",
          "type": "uint256"
        }
      ],
      "name": "setRoyalties",
      "outputs": [],
      "stateMutability": "nonpayable",
      "type": "function"
    }
  ],
  "bytecode": "0x608060405234801561001057600080fd5b50610362806100206000396000f3fe608060405234801561001057600080fd5b506004361061004c5760003560e01c8063028a11bd146100515780632a55205a1461007a5780632b80183f1461009b578063361244d5146100b0575b600080fd5b61006461005f366004610222565b6100c5565b60405161007191906102c2565b60405180910390f35b61008d610088366004610288565b6100e3565b6040516100719291906102a9565b6100ae6100a9366004610270565b6100f8565b005b6100b86100fd565b6040516100719190610323565b60606100da83836001600160601b0316610103565b90505b92915050565b60005460609290921c92612710919092020490565b600055565b60005481565b606080826101125790506100dd565b6000620f424061271085020490506127108110610176576040805162461bcd60e51b815260206004820152601b60248201527f526f79616c746965732032393831206578636565647320313030250000000000604482015290519081900360640190fd5b60408051600180825281830190925290816020015b61019361020b565b81526020019060019003908161018b57905050915084826000815181106101b657fe5b6020026020010151600001906001600160a01b031690816001600160a01b03168152505080826000815181106101e857fe5b6020908102919091018101516001600160601b0390921691015250905092915050565b604080518082019091526000808252602082015290565b60008060408385031215610234578182fd5b82356001600160a01b038116811461024a578283fd5b915060208301356001600160601b0381168114610265578182fd5b809150509250929050565b600060208284031215610281578081fd5b5035919050565b6000806040838503121561029a578182fd5b50508035926020909101359150565b6001600160a01b03929092168252602082015260400190565b602080825282518282018190526000919060409081850190868401855b8281101561031657815180516001600160a01b031685528601516001600160601b03168685015292840192908501906001016102df565b5091979650505050505050565b9081526020019056fea26469706673582212207c4d9136f6313092a1b21a40d80eb3e7d4c89b16305c247a2643b25fcafe504164736f6c63430007060033",
  "linkReferences": {},
  "deployedLinkReferences": {}
}