{
  "address": "0xC5BBd75789bD007784A0046094d19aCeA1A79eB1",
  "abi": [
    {
      "anonymous": false,
      "inputs": [
        {
          "indexed": false,
          "internalType": "uint256",
          "name": "oldValue",
          "type": "uint256"
        },
        {
          "indexed": false,
          "internalType": "uint256",
          "name": "newValue",
          "type": "uint256"
        }
      ],
      "name": "BuyerFeeAmountChanged",
      "type": "event"
    },
    {
      "anonymous": false,
      "inputs": [
        {
          "indexed": false,
          "internalType": "bytes32",
          "name": "hash",
          "type": "bytes32"
        }
      ],
      "name": "Cancel",
      "type": "event"
    },
    {
      "anonymous": false,
      "inputs": [
        {
          "indexed": false,
          "internalType": "address",
          "name": "oldValue",
          "type": "address"
        },
        {
          "indexed": false,
          "internalType": "address",
          "name": "newValue",
          "type": "address"
        }
      ],
      "name": "FeeReceiverChanged",
      "type": "event"
    },
    {
      "anonymous": false,
      "inputs": [
        {
          "indexed": false,
          "internalType": "bytes32",
          "name": "leftHash",
          "type": "bytes32"
        },
        {
          "indexed": false,
          "internalType": "bytes32",
          "name": "rightHash",
          "type": "bytes32"
        },
        {
          "indexed": false,
          "internalType": "uint256",
          "name": "newLeftFill",
          "type": "uint256"
        },
        {
          "indexed": false,
          "internalType": "uint256",
          "name": "newRightFill",
          "type": "uint256"
        }
      ],
      "name": "Match",
      "type": "event"
    },
    {
      "anonymous": false,
      "inputs": [
        {
          "indexed": true,
          "internalType": "bytes4",
          "name": "assetType",
          "type": "bytes4"
        },
        {
          "indexed": false,
          "internalType": "address",
          "name": "matcher",
          "type": "address"
        }
      ],
      "name": "MatcherChange",
      "type": "event"
    },
    {
      "anonymous": false,
      "inputs": [
        {
          "indexed": false,
          "internalType": "address",
          "name": "userAddress",
          "type": "address"
        },
        {
          "indexed": false,
          "internalType": "address payable",
          "name": "relayerAddress",
          "type": "address"
        },
        {
          "indexed": false,
          "internalType": "bytes",
          "name": "functionSignature",
          "type": "bytes"
        }
      ],
      "name": "MetaTransactionExecuted",
      "type": "event"
    },
    {
      "anonymous": false,
      "inputs": [
        {
          "indexed": true,
          "internalType": "address",
          "name": "previousOwner",
          "type": "address"
        },
        {
          "indexed": true,
          "internalType": "address",
          "name": "newOwner",
          "type": "address"
        }
      ],
      "name": "OwnershipTransferred",
      "type": "event"
    },
    {
      "anonymous": false,
      "inputs": [
        {
          "indexed": true,
          "internalType": "bytes4",
          "name": "assetType",
          "type": "bytes4"
        },
        {
          "indexed": false,
          "internalType": "address",
          "name": "proxy",
          "type": "address"
        }
      ],
      "name": "ProxyChange",
      "type": "event"
    },
    {
      "anonymous": false,
      "inputs": [
        {
          "indexed": false,
          "internalType": "uint256",
          "name": "oldValue",
          "type": "uint256"
        },
        {
          "indexed": false,
          "internalType": "uint256",
          "name": "newValue",
          "type": "uint256"
        }
      ],
      "name": "SellerFeeAmountChanged",
      "type": "event"
    },
    {
      "inputs": [
        {
          "internalType": "address",
          "name": "_transferProxy",
          "type": "address"
        },
        {
          "internalType": "address",
          "name": "_erc20TransferProxy",
          "type": "address"
        },
        {
          "internalType": "uint256",
          "name": "newProtocolFee",
          "type": "uint256"
        },
        {
          "internalType": "address",
          "name": "newDefaultFeeReceiver",
          "type": "address"
        },
        {
          "internalType": "contract IRoyaltiesProvider",
          "name": "newRoyaltiesProvider",
          "type": "address"
        }
      ],
      "name": "__ExchangeV2_init",
      "outputs": [],
      "stateMutability": "nonpayable",
      "type": "function"
    },
    {
      "inputs": [
        {
          "components": [
            {
              "internalType": "address",
              "name": "maker",
              "type": "address"
            },
            {
              "components": [
                {
                  "components": [
                    {
                      "internalType": "bytes4",
                      "name": "assetClass",
                      "type": "bytes4"
                    },
                    {
                      "internalType": "bytes",
                      "name": "data",
                      "type": "bytes"
                    }
                  ],
                  "internalType": "struct LibAsset.AssetType",
                  "name": "assetType",
                  "type": "tuple"
                },
                {
                  "internalType": "uint256",
                  "name": "value",
                  "type": "uint256"
                }
              ],
              "internalType": "struct LibAsset.Asset",
              "name": "makeAsset",
              "type": "tuple"
            },
            {
              "internalType": "address",
              "name": "taker",
              "type": "address"
            },
            {
              "components": [
                {
                  "components": [
                    {
                      "internalType": "bytes4",
                      "name": "assetClass",
                      "type": "bytes4"
                    },
                    {
                      "internalType": "bytes",
                      "name": "data",
                      "type": "bytes"
                    }
                  ],
                  "internalType": "struct LibAsset.AssetType",
                  "name": "assetType",
                  "type": "tuple"
                },
                {
                  "internalType": "uint256",
                  "name": "value",
                  "type": "uint256"
                }
              ],
              "internalType": "struct LibAsset.Asset",
              "name": "takeAsset",
              "type": "tuple"
            },
            {
              "internalType": "uint256",
              "name": "salt",
              "type": "uint256"
            },
            {
              "internalType": "uint256",
              "name": "start",
              "type": "uint256"
            },
            {
              "internalType": "uint256",
              "name": "end",
              "type": "uint256"
            },
            {
              "internalType": "bytes4",
              "name": "dataType",
              "type": "bytes4"
            },
            {
              "internalType": "bytes",
              "name": "data",
              "type": "bytes"
            }
          ],
          "internalType": "struct LibOrder.Order",
          "name": "order",
          "type": "tuple"
        }
      ],
      "name": "cancel",
      "outputs": [],
      "stateMutability": "nonpayable",
      "type": "function"
    },
    {
      "inputs": [
        {
          "components": [
            {
              "internalType": "address",
              "name": "bidMaker",
              "type": "address"
            },
            {
              "internalType": "uint256",
              "name": "bidNftAmount",
              "type": "uint256"
            },
            {
              "internalType": "bytes4",
              "name": "nftAssetClass",
              "type": "bytes4"
            },
            {
              "internalType": "bytes",
              "name": "nftData",
              "type": "bytes"
            },
            {
              "internalType": "uint256",
              "name": "bidPaymentAmount",
              "type": "uint256"
            },
            {
              "internalType": "address",
              "name": "paymentToken",
              "type": "address"
            },
            {
              "internalType": "uint256",
              "name": "bidSalt",
              "type": "uint256"
            },
            {
              "internalType": "uint256",
              "name": "bidStart",
              "type": "uint256"
            },
            {
              "internalType": "uint256",
              "name": "bidEnd",
              "type": "uint256"
            },
            {
              "internalType": "bytes4",
              "name": "bidDataType",
              "type": "bytes4"
            },
            {
              "internalType": "bytes",
              "name": "bidData",
              "type": "bytes"
            },
            {
              "internalType": "bytes",
              "name": "bidSignature",
              "type": "bytes"
            },
            {
              "internalType": "uint256",
              "name": "sellOrderPaymentAmount",
              "type": "uint256"
            },
            {
              "internalType": "uint256",
              "name": "sellOrderNftAmount",
              "type": "uint256"
            },
            {
              "internalType": "bytes",
              "name": "sellOrderData",
              "type": "bytes"
            }
          ],
          "internalType": "struct LibDirectTransfer.AcceptBid",
          "name": "direct",
          "type": "tuple"
        }
      ],
      "name": "directAcceptBid",
      "outputs": [],
      "stateMutability": "payable",
      "type": "function"
    },
    {
      "inputs": [
        {
          "components": [
            {
              "internalType": "address",
              "name": "sellOrderMaker",
              "type": "address"
            },
            {
              "internalType": "uint256",
              "name": "sellOrderNftAmount",
              "type": "uint256"
            },
            {
              "internalType": "bytes4",
              "name": "nftAssetClass",
              "type": "bytes4"
            },
            {
              "internalType": "bytes",
              "name": "nftData",
              "type": "bytes"
            },
            {
              "internalType": "uint256",
              "name": "sellOrderPaymentAmount",
              "type": "uint256"
            },
            {
              "internalType": "address",
              "name": "paymentToken",
              "type": "address"
            },
            {
              "internalType": "uint256",
              "name": "sellOrderSalt",
              "type": "uint256"
            },
            {
              "internalType": "uint256",
              "name": "sellOrderStart",
              "type": "uint256"
            },
            {
              "internalType": "uint256",
              "name": "sellOrderEnd",
              "type": "uint256"
            },
            {
              "internalType": "bytes4",
              "name": "sellOrderDataType",
              "type": "bytes4"
            },
            {
              "internalType": "bytes",
              "name": "sellOrderData",
              "type": "bytes"
            },
            {
              "internalType": "bytes",
              "name": "sellOrderSignature",
              "type": "bytes"
            },
            {
              "internalType": "uint256",
              "name": "buyOrderPaymentAmount",
              "type": "uint256"
            },
            {
              "internalType": "uint256",
              "name": "buyOrderNftAmount",
              "type": "uint256"
            },
            {
              "internalType": "bytes",
              "name": "buyOrderData",
              "type": "bytes"
            }
          ],
          "internalType": "struct LibDirectTransfer.Purchase",
          "name": "direct",
          "type": "tuple"
        }
      ],
      "name": "directPurchase",
      "outputs": [],
      "stateMutability": "payable",
      "type": "function"
    },
    {
      "inputs": [
        {
          "internalType": "address",
          "name": "userAddress",
          "type": "address"
        },
        {
          "internalType": "bytes",
          "name": "functionSignature",
          "type": "bytes"
        },
        {
          "internalType": "bytes32",
          "name": "sigR",
          "type": "bytes32"
        },
        {
          "internalType": "bytes32",
          "name": "sigS",
          "type": "bytes32"
        },
        {
          "internalType": "uint8",
          "name": "sigV",
          "type": "uint8"
        }
      ],
      "name": "executeMetaTransaction",
      "outputs": [
        {
          "internalType": "bytes",
          "name": "",
          "type": "bytes"
        }
      ],
      "stateMutability": "payable",
      "type": "function"
    },
    {
      "inputs": [
        {
          "internalType": "bytes32",
          "name": "",
          "type": "bytes32"
        }
      ],
      "name": "fills",
      "outputs": [
        {
          "internalType": "uint256",
          "name": "",
          "type": "uint256"
        }
      ],
      "stateMutability": "view",
      "type": "function"
    },
    {
      "inputs": [
        {
          "internalType": "address",
          "name": "user",
          "type": "address"
        }
      ],
      "name": "getNonce",
      "outputs": [
        {
          "internalType": "uint256",
          "name": "nonce",
          "type": "uint256"
        }
      ],
      "stateMutability": "view",
      "type": "function"
    },
    {
      "inputs": [
        {
          "components": [
            {
              "internalType": "address",
              "name": "maker",
              "type": "address"
            },
            {
              "components": [
                {
                  "components": [
                    {
                      "internalType": "bytes4",
                      "name": "assetClass",
                      "type": "bytes4"
                    },
                    {
                      "internalType": "bytes",
                      "name": "data",
                      "type": "bytes"
                    }
                  ],
                  "internalType": "struct LibAsset.AssetType",
                  "name": "assetType",
                  "type": "tuple"
                },
                {
                  "internalType": "uint256",
                  "name": "value",
                  "type": "uint256"
                }
              ],
              "internalType": "struct LibAsset.Asset",
              "name": "makeAsset",
              "type": "tuple"
            },
            {
              "internalType": "address",
              "name": "taker",
              "type": "address"
            },
            {
              "components": [
                {
                  "components": [
                    {
                      "internalType": "bytes4",
                      "name": "assetClass",
                      "type": "bytes4"
                    },
                    {
                      "internalType": "bytes",
                      "name": "data",
                      "type": "bytes"
                    }
                  ],
                  "internalType": "struct LibAsset.AssetType",
                  "name": "assetType",
                  "type": "tuple"
                },
                {
                  "internalType": "uint256",
                  "name": "value",
                  "type": "uint256"
                }
              ],
              "internalType": "struct LibAsset.Asset",
              "name": "takeAsset",
              "type": "tuple"
            },
            {
              "internalType": "uint256",
              "name": "salt",
              "type": "uint256"
            },
            {
              "internalType": "uint256",
              "name": "start",
              "type": "uint256"
            },
            {
              "internalType": "uint256",
              "name": "end",
              "type": "uint256"
            },
            {
              "internalType": "bytes4",
              "name": "dataType",
              "type": "bytes4"
            },
            {
              "internalType": "bytes",
              "name": "data",
              "type": "bytes"
            }
          ],
          "internalType": "struct LibOrder.Order",
          "name": "orderLeft",
          "type": "tuple"
        },
        {
          "internalType": "bytes",
          "name": "signatureLeft",
          "type": "bytes"
        },
        {
          "components": [
            {
              "internalType": "address",
              "name": "maker",
              "type": "address"
            },
            {
              "components": [
                {
                  "components": [
                    {
                      "internalType": "bytes4",
                      "name": "assetClass",
                      "type": "bytes4"
                    },
                    {
                      "internalType": "bytes",
                      "name": "data",
                      "type": "bytes"
                    }
                  ],
                  "internalType": "struct LibAsset.AssetType",
                  "name": "assetType",
                  "type": "tuple"
                },
                {
                  "internalType": "uint256",
                  "name": "value",
                  "type": "uint256"
                }
              ],
              "internalType": "struct LibAsset.Asset",
              "name": "makeAsset",
              "type": "tuple"
            },
            {
              "internalType": "address",
              "name": "taker",
              "type": "address"
            },
            {
              "components": [
                {
                  "components": [
                    {
                      "internalType": "bytes4",
                      "name": "assetClass",
                      "type": "bytes4"
                    },
                    {
                      "internalType": "bytes",
                      "name": "data",
                      "type": "bytes"
                    }
                  ],
                  "internalType": "struct LibAsset.AssetType",
                  "name": "assetType",
                  "type": "tuple"
                },
                {
                  "internalType": "uint256",
                  "name": "value",
                  "type": "uint256"
                }
              ],
              "internalType": "struct LibAsset.Asset",
              "name": "takeAsset",
              "type": "tuple"
            },
            {
              "internalType": "uint256",
              "name": "salt",
              "type": "uint256"
            },
            {
              "internalType": "uint256",
              "name": "start",
              "type": "uint256"
            },
            {
              "internalType": "uint256",
              "name": "end",
              "type": "uint256"
            },
            {
              "internalType": "bytes4",
              "name": "dataType",
              "type": "bytes4"
            },
            {
              "internalType": "bytes",
              "name": "data",
              "type": "bytes"
            }
          ],
          "internalType": "struct LibOrder.Order",
          "name": "orderRight",
          "type": "tuple"
        },
        {
          "internalType": "bytes",
          "name": "signatureRight",
          "type": "bytes"
        }
      ],
      "name": "matchOrders",
      "outputs": [],
      "stateMutability": "payable",
      "type": "function"
    },
    {
      "inputs": [],
      "name": "owner",
      "outputs": [
        {
          "internalType": "address",
          "name": "",
          "type": "address"
        }
      ],
      "stateMutability": "view",
      "type": "function"
    },
    {
      "inputs": [],
      "name": "protocolFee",
      "outputs": [
        {
          "internalType": "address",
          "name": "receiver",
          "type": "address"
        },
        {
          "internalType": "uint48",
          "name": "buyerAmount",
          "type": "uint48"
        },
        {
          "internalType": "uint48",
          "name": "sellerAmount",
          "type": "uint48"
        }
      ],
      "stateMutability": "view",
      "type": "function"
    },
    {
      "inputs": [],
      "name": "renounceOwnership",
      "outputs": [],
      "stateMutability": "nonpayable",
      "type": "function"
    },
    {
      "inputs": [],
      "name": "royaltiesRegistry",
      "outputs": [
        {
          "internalType": "contract IRoyaltiesProvider",
          "name": "",
          "type": "address"
        }
      ],
      "stateMutability": "view",
      "type": "function"
    },
    {
      "inputs": [
        {
          "internalType": "address",
          "name": "_receiver",
          "type": "address"
        },
        {
          "internalType": "uint48",
          "name": "_buyerAmount",
          "type": "uint48"
        },
        {
          "internalType": "uint48",
          "name": "_sellerAmount",
          "type": "uint48"
        }
      ],
      "name": "setAllProtocolFeeData",
      "outputs": [],
      "stateMutability": "nonpayable",
      "type": "function"
    },
    {
      "inputs": [
        {
          "internalType": "bytes4",
          "name": "assetType",
          "type": "bytes4"
        },
        {
          "internalType": "address",
          "name": "matcher",
          "type": "address"
        }
      ],
      "name": "setAssetMatcher",
      "outputs": [],
      "stateMutability": "nonpayable",
      "type": "function"
    },
    {
      "inputs": [
        {
          "internalType": "uint48",
          "name": "_buyerAmount",
          "type": "uint48"
        }
      ],
      "name": "setPrtocolFeeBuyerAmount",
      "outputs": [],
      "stateMutability": "nonpayable",
      "type": "function"
    },
    {
      "inputs": [
        {
          "internalType": "address",
          "name": "_receiver",
          "type": "address"
        }
      ],
      "name": "setPrtocolFeeReceiver",
      "outputs": [],
      "stateMutability": "nonpayable",
      "type": "function"
    },
    {
      "inputs": [
        {
          "internalType": "uint48",
          "name": "_sellerAmount",
          "type": "uint48"
        }
      ],
      "name": "setPrtocolFeeSellerAmount",
      "outputs": [],
      "stateMutability": "nonpayable",
      "type": "function"
    },
    {
      "inputs": [
        {
          "internalType": "contract IRoyaltiesProvider",
          "name": "newRoyaltiesRegistry",
          "type": "address"
        }
      ],
      "name": "setRoyaltiesRegistry",
      "outputs": [],
      "stateMutability": "nonpayable",
      "type": "function"
    },
    {
      "inputs": [
        {
          "internalType": "bytes4",
          "name": "assetType",
          "type": "bytes4"
        },
        {
          "internalType": "address",
          "name": "proxy",
          "type": "address"
        }
      ],
      "name": "setTransferProxy",
      "outputs": [],
      "stateMutability": "nonpayable",
      "type": "function"
    },
    {
      "inputs": [
        {
          "internalType": "address",
          "name": "newOwner",
          "type": "address"
        }
      ],
      "name": "transferOwnership",
      "outputs": [],
      "stateMutability": "nonpayable",
      "type": "function"
    }
  ],
  "transactionHash": "0x9035cdd565676e528175298882bd2ae3fb921db62f9d767e1de63197bc549631",
  "args": [],
  "numDeployments": 1,
  "solcInputHash": "358de5a7961e6fc925b5d4bf3077f6e2",
  "bytecode": "0x608060405234801561001057600080fd5b50615aa780620000216000396000f3fe60806040526004361061011f5760003560e01c80638da5cb5b116100a0578063d6ca6ab711610064578063d6ca6ab7146102f2578063e2864fe314610312578063e99a3f8014610332578063eae3ad6f14610345578063f2fde38b146103655761011f565b80638da5cb5b14610259578063b0e21e8a1461026e578063b39deb4614610292578063b74c8e9a146102b2578063bc158c2d146102d25761011f565b806330c642f1116100e757806330c642f1146101cf5780633be89922146101ef57806367d49a3b1461020f5780636d8f069414610222578063715018a6146102445761011f565b80630c53c51c146101245780630d5f7d351461014d5780631372a6251461016257806320158c44146101825780632d0335ab146101af575b600080fd5b610137610132366004614e52565b610385565b60405161014491906153e6565b60405180910390f35b61016061015b366004614fba565b6106fe565b005b34801561016e57600080fd5b5061016061017d366004614deb565b610a1b565b34801561018e57600080fd5b506101a261019d366004614f4e565b610b38565b60405161014491906153c2565b3480156101bb57600080fd5b506101a26101ca366004614b96565b610b4b565b3480156101db57600080fd5b506101606101ea366004614f82565b610b67565b3480156101fb57600080fd5b5061016061020a366004614b96565b610c37565b61016061021d366004614fba565b610cbc565b34801561022e57600080fd5b50610237610f9c565b60405161014491906152f6565b34801561025057600080fd5b50610160610fac565b34801561026557600080fd5b50610237611058565b34801561027a57600080fd5b50610283611068565b60405161014493929190615399565b34801561029e57600080fd5b506101606102ad366004614f82565b611093565b3480156102be57600080fd5b506101606102cd366004614ebe565b611157565b3480156102de57600080fd5b506101606102ed366004614b96565b6111d9565b3480156102fe57600080fd5b5061016061030d366004615288565b6112a6565b34801561031e57600080fd5b5061016061032d3660046151af565b611380565b6101606103403660046151e1565b611441565b34801561035157600080fd5b50610160610360366004615288565b611457565b34801561037157600080fd5b50610160610380366004614b96565b61152e565b6060600061039286611631565b90506000356001600160e01b031990811690821614156103f9576040805162461bcd60e51b815260206004820152601760248201527f57726f6e672066756e6374696f6e5369676e6174757265000000000000000000604482015290519081900360640190fd5b604080516060810182526001600160a01b03891660008181526101936020908152908490205483528201529081018790526104378882888888611651565b6104725760405162461bcd60e51b8152600401808060200182810382526021815260200180615a516021913960400191505060405180910390fd5b6001600160a01b0388166000908152610193602052604090205461049790600161173b565b61019360008a6001600160a01b03166001600160a01b0316815260200190815260200160002081905550600080306001600160a01b0316898b6040516020018083805190602001908083835b602083106105025780518252601f1990920191602091820191016104e3565b6001836020036101000a038019825116818451168082178552505050505050905001826001600160a01b031660601b8152601401925050506040516020818303038152906040526040518082805190602001908083835b602083106105785780518252601f199092019160209182019101610559565b6001836020036101000a0380198251168184511680821785525050505050509050019150506000604051808303816000865af19150503d80600081146105da576040519150601f19603f3d011682016040523d82523d6000602084013e6105df565b606091505b509150915081610636576040805162461bcd60e51b815260206004820152601c60248201527f46756e6374696f6e2063616c6c206e6f74207375636365737366756c00000000604482015290519081900360640190fd5b7f5845892132946850460bff5a0083f71031bc5bf9aadcd40f1de79423eac9b10b8a338b60405180846001600160a01b03168152602001836001600160a01b0316815260200180602001828103825283818151815260200191508051906020019080838360005b838110156106b557818101518382015260200161069d565b50505050905090810190601f1680156106e25780820380516001836020036101000a031916815260200191505b5094505050505060405180910390a19998505050505050505050565b600061071861071360c0840160a08501614b96565b61179e565b604080516101208101909152909150600090806107386020860186614b96565b6001600160a01b031681526020016040518060400160405280604051806040016040528088604001602081019061076f9190614f66565b6001600160e01b031916815260200161078b60608a018a6157eb565b8080601f0160208091040260200160405190810160405280939291908181526020018383808284376000920182905250939094525050918352506020888101359281019290925291835282810191909152604080518082018252868152608080890135938201939093529083015260c080870135606084015260e08701359183019190915261010086013560a08301520161082e61014086016101208701614f66565b6001600160e01b031916815260200161084b6101408601866157eb565b8080601f0160208091040260200160405190810160405280939291908181526020018383808284376000920182905250939094525050604080516101208101825282815281518083018352878152610180890135602082810191909152820152808201839052815160808101835294955091939192506060808401929182918282019182916108df91908c01908c01614f66565b6001600160e01b03191681526020016108fb60608b018b6157eb565b8080601f0160208091040260200160405190810160405280939291908181526020018383808284376000920182905250939094525050918352506101a0890135602092830152918352820181905260408201819052606082015260800161096a61014087016101208801614f66565b6001600160e01b03191681526020016109876101c08701876157eb565b8080601f01602080910402602001604051908101604052809392919081815260200183838082843760009201919091525050509152509050610a0b826109d16101608701876157eb565b8080601f01602080910402602001604051908101604052809392919081815260200183838082843760009201919091525061180192505050565b610a158282611818565b50505050565b600054610100900460ff1680610a345750610a34611a6a565b80610a42575060005460ff16155b610a7d5760405162461bcd60e51b815260040180806020018281038252602e8152602001806159c0602e913960400191505060405180910390fd5b600054610100900460ff16158015610aa8576000805460ff1961ff0019909116610100171660011790555b610ab0611a7b565b610ab8611b1d565b610ac0611c16565b610b096040518060400160405280600e81526020016d22bc31b430b733b2a6b2ba30ab1960911b815250604051806040016040528060018152602001603160f81b815250611ce6565b610b138686611d76565b610b1e848484611e20565b8015610b30576000805461ff00191690555b505050505050565b61012f6020526000908152604090205481565b6001600160a01b03166000908152610193602052604090205490565b610b6f611ee0565b6001600160a01b0316610b80611058565b6001600160a01b031614610bc9576040805162461bcd60e51b81526020600482018190526024820152600080516020615a31833981519152604482015290519081900360640190fd5b6001600160e01b031982166000818152609760205260409081902080546001600160a01b0319166001600160a01b038516179055517f4b5aced933c0c9a88aeac3f0b3b72c5aaf75df8ebaf53225773248c4c315359390610c2b9084906152f6565b60405180910390a25050565b610c3f611ee0565b6001600160a01b0316610c50611058565b6001600160a01b031614610c99576040805162461bcd60e51b81526020600482018190526024820152600080516020615a31833981519152604482015290519081900360640190fd5b61016280546001600160a01b0319166001600160a01b0392909216919091179055565b6000610cd161071360c0840160a08501614b96565b60408051610120810190915290915060009080610cf16020860186614b96565b6001600160a01b0316815260200160405180604001604052808581526020018660800135815250815260200160006001600160a01b0316815260200160405180604001604052806040518060400160405280886040016020810190610d569190614f66565b6001600160e01b0319168152602001610d7260608a018a6157eb565b8080601f016020809104026020016040519081016040528093929190818152602001838380828437600092019190915250505091525081526020878101359181019190915290825260c08601359082015260e085013560408201526101008501356060820152608001610ded61014086016101208701614f66565b6001600160e01b0319168152602001610e0a6101408601866157eb565b8080601f01602080910402602001604051908101604052809392919081815260200183838082843760009201829052509390945250506040805161012081018252828152815160808101835294955091939192506020830191908190818101908190610e7c9060608c01908c01614f66565b6001600160e01b0319168152602001610e9860608b018b6157eb565b8080601f0160208091040260200160405190810160405280939291908181526020018383808284376000920182905250939094525050918352506101a08901356020928301529183528281018290526040805180820182528881526101808a013592810192909252830152606082018190526080820181905260a082015260c001610f2b61014087016101208801614f66565b6001600160e01b0319168152602001610f486101c08701876157eb565b8080601f01602080910402602001604051908101604052809392919081815260200183838082843760009201919091525050509152509050610f92826109d16101608701876157eb565b610a158183611818565b610162546001600160a01b031681565b610fb4611ee0565b6001600160a01b0316610fc5611058565b6001600160a01b03161461100e576040805162461bcd60e51b81526020600482018190526024820152600080516020615a31833981519152604482015290519081900360640190fd5b6033546040516000916001600160a01b0316907f8be0079c531659141344cd1fd0a4f28419497f9722a3daafe3b4186f6b6457e0908390a3603380546001600160a01b0319169055565b6033546001600160a01b03165b90565b610161546001600160a01b0381169065ffffffffffff600160a01b8204811691600160d01b90041683565b61109b611ee0565b6001600160a01b03166110ac611058565b6001600160a01b0316146110f5576040805162461bcd60e51b81526020600482018190526024820152600080516020615a31833981519152604482015290519081900360640190fd5b6001600160e01b031982166000818152606560205260409081902080546001600160a01b0319166001600160a01b038516179055517fd2bf91075f105d0fd80328da28e20ebdad1c1261839711183bc29a44cbe6c72f90610c2b9084906152f6565b61115f611ee0565b6001600160a01b0316611170611058565b6001600160a01b0316146111b9576040805162461bcd60e51b81526020600482018190526024820152600080516020615a31833981519152604482015290519081900360640190fd5b6111c2836111d9565b6111cb826112a6565b6111d481611457565b505050565b6111e1611ee0565b6001600160a01b03166111f2611058565b6001600160a01b03161461123b576040805162461bcd60e51b81526020600482018190526024820152600080516020615a31833981519152604482015290519081900360640190fd5b610161546040517fa4b009cc442411b602eaf94bc0579b6abdb8fd90b4ef5b9426e270038906bd039161127b916001600160a01b0390911690849061530a565b60405180910390a161016180546001600160a01b0319166001600160a01b0392909216919091179055565b6112ae611ee0565b6001600160a01b03166112bf611058565b6001600160a01b031614611308576040805162461bcd60e51b81526020600482018190526024820152600080516020615a31833981519152604482015290519081900360640190fd5b610161546040517f70bba4f904a93ba5c1af3a1bb602bc9c058551dbe963dfe0b6cb5bc11c5fea9e9161134d91600160a01b90910465ffffffffffff169084906157d2565b60405180910390a1610161805465ffffffffffff909216600160a01b0265ffffffffffff60a01b19909216919091179055565b80516001600160a01b0316611393611ee0565b6001600160a01b0316146113c25760405162461bcd60e51b81526004016113b990615742565b60405180910390fd5b60808101516113e35760405162461bcd60e51b81526004016113b9906154d4565b60006113ee82611eef565b600081815261012f6020526040908190206000199055519091507fe8d9861dbc9c663ed3accd261bbe2fe01e0d3d9e5f51fa38523b265c7757a93a906114359083906153c2565b60405180910390a15050565b61144d84848484612077565b610a158483611818565b61145f611ee0565b6001600160a01b0316611470611058565b6001600160a01b0316146114b9576040805162461bcd60e51b81526020600482018190526024820152600080516020615a31833981519152604482015290519081900360640190fd5b610161546040517fa8af9093caa9beb61d20432227c66258ceef926f21879b80f3adf22a4d19f131916114fe91600160d01b90910465ffffffffffff169084906157d2565b60405180910390a1610161805465ffffffffffff909216600160d01b026001600160d01b03909216919091179055565b611536611ee0565b6001600160a01b0316611547611058565b6001600160a01b031614611590576040805162461bcd60e51b81526020600482018190526024820152600080516020615a31833981519152604482015290519081900360640190fd5b6001600160a01b0381166115d55760405162461bcd60e51b815260040180806020018281038252602681526020018061592b6026913960400191505060405180910390fd5b6033546040516001600160a01b038084169216907f8be0079c531659141344cd1fd0a4f28419497f9722a3daafe3b4186f6b6457e090600090a3603380546001600160a01b0319166001600160a01b0392909216919091179055565b60008151600014156116455750600061164c565b5060208101515b919050565b600080600161166761166288612143565b6121c6565b84878760405160008152602001604052604051808581526020018460ff1681526020018381526020018281526020019450505050506020604051602081039080840390855afa1580156116be573d6000803e3d6000fd5b5050604051601f1901519150506001600160a01b03811661171a576040805162461bcd60e51b8152602060048201526011602482015270496e76616c6964207369676e617475726560781b604482015290519081900360640190fd5b866001600160a01b0316816001600160a01b03161491505095945050505050565b600082820183811015611795576040805162461bcd60e51b815260206004820152601b60248201527f536166654d6174683a206164646974696f6e206f766572666c6f770000000000604482015290519081900360640190fd5b90505b92915050565b6117a661478b565b6117ae61478b565b6001600160a01b0383166117cb576355575f5d60e11b8152611798565b6322ba176160e21b81526040516117e69084906020016152f6565b60408051601f19818403018152919052602082015292915050565b61180a82612212565b61181482826122dc565b5050565b600080611825848461258b565b9150915060008060006118388787612624565b9250925092506000806119916040518060a0016040528060405180604001604052808b8152602001876000015181525081526020018760000151815260200187602001518152602001609760008b600001516001600160e01b0319166001600160e01b031916815260200190815260200160002060009054906101000a90046001600160a01b03166001600160a01b031681526020018b600001516001600160a01b03168152506040518060a0016040528060405180604001604052808b8152602001886020015181525081526020018760000151815260200187602001518152602001609760008b600001516001600160e01b0319166001600160e01b031916815260200190815260200160002060009054906101000a90046001600160a01b03166001600160a01b031681526020018b600001516001600160a01b031681525061198c8a600001518a600001516126d3565b6127a4565b885191935091506001600160e01b0319166355575f5d60e11b1415611a105785516001600160e01b0319166355575f5d60e11b14156119cf57600080fd5b813410156119ef5760405162461bcd60e51b81526004016113b99061571a565b81341115611a0b57611a0b611a04348461291b565b3390612978565b611a5f565b85516001600160e01b0319166355575f5d60e11b1415611a5f5780341015611a4a5760405162461bcd60e51b81526004016113b99061571a565b80341115611a5f57611a5f611a04348361291b565b505050505050505050565b6000611a7530612a10565b15905090565b600054610100900460ff1680611a945750611a94611a6a565b80611aa2575060005460ff16155b611add5760405162461bcd60e51b815260040180806020018281038252602e8152602001806159c0602e913960400191505060405180910390fd5b600054610100900460ff16158015611b08576000805460ff1961ff0019909116610100171660011790555b8015611b1a576000805461ff00191690555b50565b600054610100900460ff1680611b365750611b36611a6a565b80611b44575060005460ff16155b611b7f5760405162461bcd60e51b815260040180806020018281038252602e8152602001806159c0602e913960400191505060405180910390fd5b600054610100900460ff16158015611baa576000805460ff1961ff0019909116610100171660011790555b6000611bb4611ee0565b603380546001600160a01b0319166001600160a01b038316908117909155604051919250906000907f8be0079c531659141344cd1fd0a4f28419497f9722a3daafe3b4186f6b6457e0908290a3508015611b1a576000805461ff001916905550565b600054610100900460ff1680611c2f5750611c2f611a6a565b80611c3d575060005460ff16155b611c785760405162461bcd60e51b815260040180806020018281038252602e8152602001806159c0602e913960400191505060405180910390fd5b600054610100900460ff16158015611ca3576000805460ff1961ff0019909116610100171660011790555b611b086040518060400160405280600881526020016745786368616e676560c01b815250604051806040016040528060018152602001601960f91b815250612a16565b7f36c25de3e541d5d970f66e4210d728721220fff5c077cc6cd008b3a0c62adab78280519060200120828051906020012030611d20612ad6565b60405160200180868152602001858152602001848152602001836001600160a01b031681526020018281526020019550505050505060405160208183030381529060405280519060200120610194819055505050565b60976020527f4532fa16f071d6234e30e1a1e69b9806f04095edf37a1ca7a25c8d6af7861cc080546001600160a01b039283166001600160a01b0319918216179091557f30a684095c937b5aa064dcf94f9903a7d808e3efb22d8389dbd43080ad4ed3d5805493909216928116831790915563025ceed960e61b6000527f4b5822151ea34b7c8d9e37c3e466bcecb631efe6a9f26a4a4054110a93dd316f80549091169091179055565b600054610100900460ff1680611e395750611e39611a6a565b80611e47575060005460ff16155b611e825760405162461bcd60e51b815260040180806020018281038252602e8152602001806159c0602e913960400191505060405180910390fd5b600054610100900460ff16158015611ead576000805460ff1961ff0019909116610100171660011790555b61016280546001600160a01b0319166001600160a01b0384161790558015610a15576000805461ff001916905550505050565b6000611eea612ae0565b905090565b60e08101516000906001600160e01b031916632611a13360e11b1480611f23575060e08201516001600160e01b0319908116145b15611f98578151602083015151611f3990612b3c565b606084015151611f4890612b3c565b846080015160405160200180856001600160a01b0316815260200184815260200183815260200182815260200194505050505060405160208183030381529060405280519060200120905061164c565b8151602083015151611fa990612b3c565b606084015151611fb890612b3c565b846080015185610100015160405160200180866001600160a01b0316815260200185815260200184815260200183815260200180602001828103825283818151815260200191508051906020019080838360005b8381101561202457818101518382015260200161200c565b50505050905090810190601f1680156120515780820380516001836020036101000a031916815260200191505b50965050505050505060405160208183030381529060405280519060200120905061164c565b6120818484611801565b61208b8282611801565b60408401516001600160a01b0316156120e75781516001600160a01b0316156120e75783604001516001600160a01b031682600001516001600160a01b0316146120e75760405162461bcd60e51b81526004016113b9906156d7565b60408201516001600160a01b031615610a155783516001600160a01b031615610a155783600001516001600160a01b031682604001516001600160a01b031614610a155760405162461bcd60e51b81526004016113b990615546565b60006040518060800160405280604381526020016158e860439139805190602001208260000151836020015184604001518051906020012060405160200180858152602001848152602001836001600160a01b03168152602001828152602001945050505050604051602081830303815290604052805190602001209050919050565b60006121d0612ba6565b82604051602001808061190160f01b81525060020183815260200182815260200192505050604051602081830303815290604052805190602001209050919050565b60a081015115806122265750428160a00151105b612277576040805162461bcd60e51b815260206004820152601d60248201527f4f726465722073746172742076616c69646174696f6e206661696c6564000000604482015290519081900360640190fd5b60c0810151158061228b5750428160c00151115b611b1a576040805162461bcd60e51b815260206004820152601b60248201527f4f7264657220656e642076616c69646174696f6e206661696c65640000000000604482015290519081900360640190fd5b60808201516123615781516001600160a01b03161561235c5781516001600160a01b0316612308611ee0565b6001600160a01b03161461235c576040805162461bcd60e51b815260206004820152601660248201527536b0b5b2b91034b9903737ba103a3c1039b2b73232b960511b604482015290519081900360640190fd5b611814565b81516001600160a01b0316612374611ee0565b6001600160a01b03161461181457600061238d83612bad565b90506123a583600001516001600160a01b0316612a10565b156124e1578251630b135d3f60e11b906001600160a01b0316631626ba7e6123cc84612c9d565b856040518363ffffffff1660e01b81526004018083815260200180602001828103825283818151815260200191508051906020019080838360005b8381101561241f578181015183820152602001612407565b50505050905090810190601f16801561244c5780820380516001836020036101000a031916815260200191505b50935050505060206040518083038186803b15801561246a57600080fd5b505afa15801561247e573d6000803e3d6000fd5b505050506040513d602081101561249457600080fd5b50516001600160e01b031916146124dc5760405162461bcd60e51b815260040180806020018281038252602b815260200180615995602b913960400191505060405180910390fd5b6111d4565b82516001600160a01b03166124ff836124f984612c9d565b90612ca7565b6001600160a01b0316146125445760405162461bcd60e51b81526004018080602001828103825260228152602001806159736022913960400191505060405180910390fd5b82516001600160a01b03166111d4576040805162461bcd60e51b815260206004820152600860248201526737379036b0b5b2b960c11b604482015290519081900360640190fd5b61259361478b565b61259b61478b565b6020840151516060840151516125b19190612d27565b80519092506001600160e01b0319166125dc5760405162461bcd60e51b81526004016113b9906156ab565b6060840151516020840151516125f29190612d27565b80519091506001600160e01b03191661261d5760405162461bcd60e51b81526004016113b9906156ab565b9250929050565b61262c6147a3565b6126346147a3565b61263c6147c6565b600061264786611eef565b9050600061265486611eef565b90506000612660611ee0565b88519091506001600160a01b031661267f576001600160a01b03811688525b86516001600160a01b031661269b576001600160a01b03811687525b6126a488612d67565b95506126af87612d67565b94506126c7888885858a604001518a60400151612e60565b93505050509250925092565b60006001600160e01b031983166355575f5d60e11b14156126f657506001611798565b6001600160e01b031982166355575f5d60e11b141561271757506002611798565b6001600160e01b031983166322ba176160e21b141561273857506001611798565b6001600160e01b031982166322ba176160e21b141561275957506002611798565b6001600160e01b0319831663025ceed960e61b141561277a57506001611798565b6001600160e01b0319821663025ceed960e61b141561279b57506002611798565b50600092915050565b825160209081015183519091015160018360028111156127c057fe5b14156128425760408051606081018252610161546001600160a01b038116825265ffffffffffff600160a01b820481166020840152600160d01b9091041691810191909152612812908690869061301b565b915061283d846000015160000151856000015160200151866080015188602001518860600151613295565b612913565b600283600281111561285057fe5b14156128cd5760408051606081018252610161546001600160a01b038116825265ffffffffffff600160a01b820481166020840152600160d01b90910416918101919091526128a2908590879061301b565b905061283d856000015160000151866000015160200151876080015187602001518960600151613295565b8451805160209182015160808801519287015160608901516128f0949190613295565b835180516020918201516080870151928801516060880151612913949190613295565b935093915050565b600082821115612972576040805162461bcd60e51b815260206004820152601e60248201527f536166654d6174683a207375627472616374696f6e206f766572666c6f770000604482015290519081900360640190fd5b50900390565b6040516000906001600160a01b0384169083908381818185875af1925050503d80600081146129c3576040519150601f19603f3d011682016040523d82523d6000602084013e6129c8565b606091505b50509050806111d4576040805162461bcd60e51b815260206004820152600f60248201526e1d1c985b9cd9995c8819985a5b1959608a1b604482015290519081900360640190fd5b3b151590565b600054610100900460ff1680612a2f5750612a2f611a6a565b80612a3d575060005460ff16155b612a785760405162461bcd60e51b815260040180806020018281038252602e8152602001806159c0602e913960400191505060405180910390fd5b600054610100900460ff16158015612aa3576000805460ff1961ff0019909116610100171660011790555b825160208085019190912083519184019190912060c99190915560ca5580156111d4576000805461ff0019169055505050565b6000611eea613419565b600033301415612b3757600080368080601f0160208091040260200160405190810160405280939291908181526020018383808284376000920191909152505050503601516001600160a01b031691506110659050565b503390565b8051602091820151805190830120604080517f452a0dc408cb0d27ffc3b3caff933a5208040a53a9dbecd8d89cad2c0d40e00c818601526001600160e01b031990931683820152606080840192909252805180840390920182526080909201909152805191012090565b6101945490565b60007f477ed43b8020849b755512278536c3766a3b4ab547519949a75f483372493f8d8260000151612be2846020015161341d565b8460400151612bf4866060015161341d565b86608001518760a001518860c001518960e001518a610100015180519060200120604051602001808b81526020018a6001600160a01b03168152602001898152602001886001600160a01b03168152602001878152602001868152602001858152602001848152602001836001600160e01b03191681526020018281526020019a5050505050505050505050604051602081830303815290604052805190602001209050919050565b60006121d061348d565b60008151604114612cff576040805162461bcd60e51b815260206004820152601f60248201527f45434453413a20696e76616c6964207369676e6174757265206c656e67746800604482015290519081900360640190fd5b60208201516040830151606084015160001a612d1d868285856134c8565b9695505050505050565b612d2f61478b565b6000612d3b848461371e565b80519091506001600160e01b031916612d6057612d58838561371e565b915050611798565b9050611798565b612d6f6147a3565b60e08201516001600160e01b031916632611a13360e11b1415612dbb576000826101000151806020019051810190612da79190615077565b805183526020908101519083015250612e47565b60e08201516001600160e01b0319166323d235ef60e01b1415612e13576000826101000151806020019051810190612df39190615103565b805183526020808201519084015260409081015115159083015250612e47565b60e08201516001600160e01b03199081161415612e2f57612e47565b60405162461bcd60e51b81526004016113b99061563d565b80515161164c578151612e599061393a565b8152919050565b612e686147c6565b6000612e788860800151876139d5565b90506000612e8a8860800151876139d5565b90506000612e9c8a8a85858a8a6139fa565b90508960200151602001516000141580612ebd575060608901516020015115155b15612ee0578051612ee05760405162461bcd60e51b81526004016113b9906155b6565b60608a015160200151151580612efc57506020808a0151015115155b15612f25576000816020015111612f255760405162461bcd60e51b81526004016113b9906155b6565b60808a015115612f78578515612f57578051612f4290849061173b565b600089815261012f6020526040902055612f78565b6020810151612f6790849061173b565b600089815261012f60205260409020555b608089015115612fcb578415612fad576020810151612f9890839061173b565b600088815261012f6020526040902055612fcb565b8051612fba90839061173b565b600088815261012f60205260409020555b602081015181516040517f956cd63ee4cdcd81fda5f0ec7c6c36dceda99e1b412f4a650a5d26055dc3c45092613006928c928c9291906153cb565b60405180910390a19998505050505050505050565b6000613034846000015160200151838660400151613a93565b9050600061305e828660000151602001518760800151868960000151600001518a60600151613b40565b8551805186515160208089015193015160808a015160608b015195965061308c959394929387929190613b9d565b905084604001515160011480156130a857508360400151516001145b80156130fd575084604001516000815181106130c057fe5b6020026020010151600001516001600160a01b031684604001516000815181106130e657fe5b6020026020010151600001516001600160a01b0316145b1561321357604080516001808252818301909252600091816020015b6131216147e0565b815260200190600190039081613119579050509050846040015160008151811061314757fe5b6020026020010151600001518160008151811061316057fe5b60209081029190910101516001600160a01b0390911690526040860151805160009061318857fe5b60200260200101516020015185604001516000815181106131a557fe5b60200260200101516020015101816000815181106131bf57fe5b6020026020010151602001906001600160601b031690816001600160601b03168152505061320986600001516000015183886000015160200151848a608001518b60600151613ca2565b50915061326c9050565b61323d85600001516000015182876000015160200151886040015189608001518a60600151613ca2565b50855180516020909101516040870151608089015160608a0151949550613268948693929190613ca2565b5090505b61328d85600001516000015182876080015187602001518960600151613295565b509392505050565b60008251116132b65760405162461bcd60e51b81526004016113b990615502565b600084815b60018551038110156133855760006132fc8683815181106132d857fe5b6020026020010151602001516001600160601b031689613d5790919063ffffffff16565b905061333186838151811061330d57fe5b6020026020010151602001516001600160601b03168561173b90919063ffffffff16565b9350801561337c57613343838261291b565b925061337c60405180604001604052808b8152602001838152508888858151811061336a57fe5b60200260200101516000015188613d6f565b506001016132bb565b5060008460018651038151811061339857fe5b602002602001015190506133c281602001516001600160601b03168461173b90919063ffffffff16565b925082612710146133e55760405162461bcd60e51b81526004016113b990615674565b811561340f5761340f60405180604001604052808a81526020018481525087836000015187613d6f565b5050505050505050565b4690565b60007fdb6f72e915676cfc289da13bc4ece054fd17b1df6d77ffc4a60510718c236b0861344d8360000151612b3c565b8360200151604051602001808481526020018381526020018281526020019350505050604051602081830303815290604052805190602001209050919050565b6000611eea7f8b73c3c69bb8fe3d512ecc4cf759cc79239f7b179b0ffacaa9a75d522b39400f6134bb614177565b6134c361417d565b614183565b60007f7fffffffffffffffffffffffffffffff5d576e7357a4501ddfe92f46681b20a08211156135295760405162461bcd60e51b81526004018080602001828103825260228152602001806159516022913960400191505060405180910390fd5b6000601e8560ff161115613603576004850360ff16601b148061355257506004850360ff16601c145b61358d5760405162461bcd60e51b81526004018080602001828103825260228152602001806159ee6022913960400191505060405180910390fd5b6001613598876141e5565b60048703868660405160008152602001604052604051808581526020018460ff1681526020018381526020018281526020019450505050506020604051602081039080840390855afa1580156135f2573d6000803e3d6000fd5b5050506020604051035190506136ba565b8460ff16601b148061361857508460ff16601c145b6136535760405162461bcd60e51b81526004018080602001828103825260228152602001806159ee6022913960400191505060405180910390fd5b60018686868660405160008152602001604052604051808581526020018460ff1681526020018381526020018281526020019450505050506020604051602081039080840390855afa1580156136ad573d6000803e3d6000fd5b5050506020604051035190505b6001600160a01b038116613715576040805162461bcd60e51b815260206004820152601860248201527f45434453413a20696e76616c6964207369676e61747572650000000000000000604482015290519081900360640190fd5b95945050505050565b61372661478b565b825182516001600160e01b031982166355575f5d60e11b1415613791576001600160e01b031981166355575f5d60e11b1415613766578492505050611798565b5050604080518082018252600080825282516020818101909452908152918101919091529050611798565b6001600160e01b031982166322ba176160e21b14156137d6576001600160e01b031981166322ba176160e21b1415613766576137cd8585614236565b92505050611798565b6001600160e01b031982166339d690a360e11b1415613812576001600160e01b031981166339d690a360e11b1415613766576137cd8585614236565b6001600160e01b0319821663025ceed960e61b141561384e576001600160e01b0319811663025ceed960e61b1415613766576137cd8585614236565b6001600160e01b031982166000908152606560205260409020546001600160a01b03168015613903576040516306d3f7cb60e41b81526001600160a01b03821690636d3f7cb0906138a59089908990600401615767565b60006040518083038186803b1580156138bd57600080fd5b505afa1580156138d1573d6000803e3d6000fd5b505050506040513d6000823e601f3d908101601f191682016040526138f99190810190614fec565b9350505050611798565b6001600160e01b03198381169083161415613922576138f98686614236565b60405162461bcd60e51b81526004016113b990615466565b60408051600180825281830190925260609160009190816020015b61395d6147e0565b815260200190600190039081613955579050509050828160008151811061398057fe5b6020026020010151600001906001600160a01b031690816001600160a01b031681525050612710816000815181106139b457fe5b6020908102919091018101516001600160601b039092169101529050919050565b6000826139e457506000611798565b50600090815261012f6020526040902054919050565b613a026147c6565b600080613a10898887614293565b91509150600080613a228a8988614293565b9150915083811180613a3c57508381148015613a3c575083155b15613a6857613a5d84848c60200151602001518d606001516020015161430c565b945050505050612d1d565b613a848b60200151602001518c60600151602001518484614391565b9b9a5050505050505050505050565b602082015160009065ffffffffffff16815b8351811015613b2057612710848281518110613abd57fe5b6020026020010151602001516001600160601b03161115613af05760405162461bcd60e51b81526004016113b99061560e565b838181518110613afc57fe5b6020026020010151602001516001600160601b031682019150806001019050613aa5565b50613b35613b2e8683613d57565b869061173b565b9150505b9392505050565b6000806000613b628989886040015189602001510165ffffffffffff16614417565b90925090508015613b9157613b9160405180604001604052808781526020018381525088886000015187613d6f565b50979650505050505050565b600080613ba988614439565b905080516001148015613bbd575086516001145b8015613c0a575086600081518110613bd157fe5b6020026020010151600001516001600160a01b031681600081518110613bf357fe5b6020026020010151600001516001600160a01b0316145b15613c5b5761138881600081518110613c1f57fe5b6020026020010151602001516001600160601b03161115613c525760405162461bcd60e51b81526004016113b99061549d565b85915050613c97565b600080613c6c8b8989868a8a613ca2565b91509150611388811115613c925760405162461bcd60e51b81526004016113b99061549d565b509150505b979650505050505050565b846000805b8551811015613d4b57613ce3868281518110613cbf57fe5b6020026020010151602001516001600160601b03168361173b90919063ffffffff16565b91506000613d128489898581518110613cf857fe5b6020026020010151602001516001600160601b0316614417565b90945090508015613d4257613d4260405180604001604052808c8152602001838152508789858151811061336a57fe5b50600101613ca7565b50965096945050505050565b6000611795612710613d6985856145ae565b90614607565b8351516001600160e01b0319166339d690a360e11b1415613eb557600080856000015160200151806020019051810190613da99190614dbe565b915091508560200151600114613dd15760405162461bcd60e51b81526004016113b99061558a565b6001600160a01b038516301415613e4957604051632142170760e11b81526001600160a01b038316906342842e0e90613e1290309088908690600401615324565b600060405180830381600087803b158015613e2c57600080fd5b505af1158015613e40573d6000803e3d6000fd5b50505050613eae565b604051637b84dc8360e11b81526001600160a01b0384169063f709b90690613e7b90859089908990879060040161543c565b600060405180830381600087803b158015613e9557600080fd5b505af1158015613ea9573d6000803e3d6000fd5b505050505b5050610a15565b8351516001600160e01b0319166322ba176160e21b1415614013576000846000015160200151806020019051810190613eee9190614bb2565b90506001600160a01b038416301415613fa557602085015160405163a9059cbb60e01b81526001600160a01b0383169163a9059cbb91613f32918791600401615380565b602060405180830381600087803b158015613f4c57600080fd5b505af1158015613f60573d6000803e3d6000fd5b505050506040513d601f19601f82011682018060405250810190613f849190614f34565b613fa05760405162461bcd60e51b81526004016113b9906155df565b61400d565b602085015160405163776062c360e01b81526001600160a01b0384169163776062c391613fda9185918991899160040161543c565b600060405180830381600087803b158015613ff457600080fd5b505af1158015614008573d6000803e3d6000fd5b505050505b50610a15565b8351516001600160e01b03191663025ceed960e61b14156140d05760008085600001516020015180602001905181019061404d9190614dbe565b90925090506001600160a01b038516301415614098576020860151604051637921219560e11b81526001600160a01b0384169163f242432a91613e1291309189918791600401615348565b6020860151604051639c1c2ee960e01b81526001600160a01b03851691639c1c2ee991613e7b9186918a918a918891906004016153f9565b8351516001600160e01b0319166355575f5d60e11b1415614119576001600160a01b0382163014614114576020840151614114906001600160a01b03841690612978565b610a15565b6040516354bc0cf160e01b81526001600160a01b038216906354bc0cf1906141499087908790879060040161578c565b600060405180830381600087803b15801561416357600080fd5b505af115801561340f573d6000803e3d6000fd5b60c95490565b60ca5490565b6000838383614190613419565b3060405160200180868152602001858152602001848152602001838152602001826001600160a01b03168152602001955050505050506040516020818303038152906040528051906020012090509392505050565b604080517f19457468657265756d205369676e6564204d6573736167653a0a333200000000602080830191909152603c8083019490945282518083039094018452605c909101909152815191012090565b61423e61478b565b60208084015180519082012083820151805192019190912080821415614268578492505050611798565b5050604080518082018252600080825282516020808201909452908152918101919091529392505050565b60008082156142d25760208086015101516142ae908561291b565b91506142cb8560600151602001518660200151602001518461466e565b9050612913565b6060850151602001516142e5908561291b565b90506143028560200151602001518660600151602001518361466e565b9150935093915050565b6143146147c6565b600061432185858561466e565b905085811115614378576040805162461bcd60e51b815260206004820152601860248201527f66696c6c4c6566743a20756e61626c6520746f2066696c6c0000000000000000604482015290519081900360640190fd5b5050604080518082019091529384525050602082015290565b6143996147c6565b60006143a683878761466e565b9050838111156143fd576040805162461bcd60e51b815260206004820152601960248201527f66696c6c52696768743a20756e61626c6520746f2066696c6c00000000000000604482015290519081900360640190fd5b604080518082019091529283526020830152509392505050565b60008061442d856144288686613d57565b6146d4565b91509150935093915050565b80516060906001600160e01b03191663025ceed960e61b148061446d575081516001600160e01b0319166339d690a360e11b145b1561452357600080836020015180602001905181019061448d9190614dbe565b61016254604051634e53ee3d60e11b81529294509092506001600160a01b031690639ca7dc7a906144c49085908590600401615380565b600060405180830381600087803b1580156144de57600080fd5b505af11580156144f2573d6000803e3d6000fd5b505050506040513d6000823e601f3d908101601f1916820160405261451a9190810190614f02565b9250505061164c565b81516001600160e01b03191662737ea960e61b141561456457600082602001518060200190518101906145569190614bce565b60800151925061164c915050565b81516001600160e01b03191663d8f960c160e01b14156145a657600082602001518060200190518101906145989190614ccb565b60600151925061164c915050565b506060919050565b6000826145bd57506000611798565b828202828482816145ca57fe5b04146117955760405162461bcd60e51b8152600401808060200182810382526021815260200180615a106021913960400191505060405180910390fd5b600080821161465d576040805162461bcd60e51b815260206004820152601a60248201527f536166654d6174683a206469766973696f6e206279207a65726f000000000000604482015290519081900360640190fd5b81838161466657fe5b049392505050565b600061467b8484846146fc565b156146be576040805162461bcd60e51b815260206004820152600e60248201526d3937bab73234b7339032b93937b960911b604482015290519081900360640190fd5b6146cc83613d6986856145ae565b949350505050565b600080828411156146f3576146e9848461291b565b915082905061261d565b50600093915050565b600082614743576040805162461bcd60e51b815260206004820152601060248201526f6469766973696f6e206279207a65726f60801b604482015290519081900360640190fd5b81158061474e575083155b1561475b57506000613b39565b6000838061476557fe5b858409905061477485846145ae565b614780826103e86145ae565b101595945050505050565b60408051808201909152600081526060602082015290565b604051806060016040528060608152602001606081526020016000151581525090565b604051806040016040528060008152602001600081525090565b604080518082019091526000808252602082015290565b803561164c816158bc565b600082601f830112614812578081fd5b8151602061482761482283615852565b61582f565b82815281810190858301855b8581101561485c5761484a898684518b010161498b565b84529284019290840190600101614833565b5090979650505050505050565b600082601f830112614879578081fd5b8151602061488961482283615852565b828152818101908583016040808602880185018910156148a7578687fd5b865b868110156149165781838b0312156148bf578788fd5b81518281018181106001600160401b03821117156148d957fe5b835283516148e6816158bc565b8152838701516001600160601b038116811461490057898afd5b81880152855293850193918101916001016148a9565b509198975050505050505050565b8051801515811461164c57600080fd5b803561164c816158d1565b600082601f83011261494f578081fd5b813561495d6148228261586f565b818152846020838601011115614971578283fd5b816020850160208301379081016020019190915292915050565b600082601f83011261499b578081fd5b81516149a96148228261586f565b8181528460208386010111156149bd578283fd5b6146cc826020830160208701615890565b60006101e082840312156149e0578081fd5b50919050565b600060408083850312156149f8578182fd5b80518181016001600160401b038282108183111715614a1357fe5b818452829450853581811115614a2857600080fd5b8601808803851315614a3957600080fd5b608084018381108382111715614a4b57fe5b909452833593614a5a856158d1565b93825260208401359381851115614a7057600080fd5b614a7c8886830161493f565b60608501525050815260209384013593019290925292915050565b6000610120808385031215614aaa578182fd5b614ab38161582f565b915050614abf826147f7565b815260208201356001600160401b0380821115614adb57600080fd5b614ae7858386016149e6565b6020840152614af8604085016147f7565b60408401526060840135915080821115614b1157600080fd5b614b1d858386016149e6565b60608401526080840135608084015260a084013560a084015260c084013560c0840152614b4c60e08501614934565b60e084015261010091508184013581811115614b6757600080fd5b614b738682870161493f565b8385015250505092915050565b803565ffffffffffff8116811461164c57600080fd5b600060208284031215614ba7578081fd5b8135611795816158bc565b600060208284031215614bc3578081fd5b8151611795816158bc565b60008060408385031215614be0578081fd5b8251614beb816158bc565b60208401519092506001600160401b0380821115614c07578283fd5b9084019060c08287031215614c1a578283fd5b614c2460c061582f565b82518152602083015182811115614c39578485fd5b614c458882860161498b565b60208301525060408301516040820152606083015182811115614c66578485fd5b614c7288828601614869565b606083015250608083015182811115614c89578485fd5b614c9588828601614869565b60808301525060a083015182811115614cac578485fd5b614cb888828601614802565b60a0830152508093505050509250929050565b60008060408385031215614cdd578182fd5b8251614ce8816158bc565b60208401519092506001600160401b0380821115614d04578283fd5b9084019060a08287031215614d17578283fd5b614d2160a061582f565b82518152602083015182811115614d36578485fd5b614d428882860161498b565b602083015250604083015182811115614d59578485fd5b614d6588828601614869565b604083015250606083015182811115614d7c578485fd5b614d8888828601614869565b606083015250608083015182811115614d9f578485fd5b614dab88828601614802565b6080830152508093505050509250929050565b60008060408385031215614dd0578182fd5b8251614ddb816158bc565b6020939093015192949293505050565b600080600080600060a08688031215614e02578081fd5b8535614e0d816158bc565b94506020860135614e1d816158bc565b9350604086013592506060860135614e34816158bc565b91506080860135614e44816158bc565b809150509295509295909350565b600080600080600060a08688031215614e69578283fd5b8535614e74816158bc565b945060208601356001600160401b03811115614e8e578384fd5b614e9a8882890161493f565b9450506040860135925060608601359150608086013560ff81168114614e44578182fd5b600080600060608486031215614ed2578081fd5b8335614edd816158bc565b9250614eeb60208501614b80565b9150614ef960408501614b80565b90509250925092565b600060208284031215614f13578081fd5b81516001600160401b03811115614f28578182fd5b6146cc84828501614869565b600060208284031215614f45578081fd5b61179582614924565b600060208284031215614f5f578081fd5b5035919050565b600060208284031215614f77578081fd5b8135611795816158d1565b60008060408385031215614f94578182fd5b8235614f9f816158d1565b91506020830135614faf816158bc565b809150509250929050565b600060208284031215614fcb578081fd5b81356001600160401b03811115614fe0578182fd5b6146cc848285016149ce565b600060208284031215614ffd578081fd5b81516001600160401b0380821115615013578283fd5b9083019060408286031215615026578283fd5b60405160408101818110838211171561503b57fe5b6040528251615049816158d1565b815260208301518281111561505c578485fd5b6150688782860161498b565b60208301525095945050505050565b600060208284031215615088578081fd5b81516001600160401b038082111561509e578283fd5b90830190604082860312156150b1578283fd5b6040516040810181811083821117156150c657fe5b6040528251828111156150d7578485fd5b6150e387828601614869565b8252506020830151828111156150f7578485fd5b61506887828601614869565b600060208284031215615114578081fd5b81516001600160401b038082111561512a578283fd5b908301906060828603121561513d578283fd5b60405160608101818110838211171561515257fe5b604052825182811115615163578485fd5b61516f87828601614869565b825250602083015182811115615183578485fd5b61518f87828601614869565b6020830152506151a160408401614924565b604082015295945050505050565b6000602082840312156151c0578081fd5b81356001600160401b038111156151d5578182fd5b6146cc84828501614a97565b600080600080608085870312156151f6578182fd5b84356001600160401b038082111561520c578384fd5b61521888838901614a97565b9550602087013591508082111561522d578384fd5b6152398883890161493f565b9450604087013591508082111561524e578384fd5b61525a88838901614a97565b9350606087013591508082111561526f578283fd5b5061527c8782880161493f565b91505092959194509250565b600060208284031215615299578081fd5b61179582614b80565b600081518084526152ba816020860160208601615890565b601f01601f19169290920160200192915050565b600063ffffffff60e01b82511683526020820151604060208501526146cc60408501826152a2565b6001600160a01b0391909116815260200190565b6001600160a01b0392831681529116602082015260400190565b6001600160a01b039384168152919092166020820152604081019190915260600190565b6001600160a01b0394851681529290931660208301526040820152606081019190915260a06080820181905260009082015260c00190565b6001600160a01b03929092168252602082015260400190565b6001600160a01b0393909316835265ffffffffffff918216602084015216604082015260600190565b90815260200190565b93845260208401929092526040830152606082015260800190565b60006020825261179560208301846152a2565b6001600160a01b03958616815293851660208501529190931660408301526060820192909252608081019190915260c060a0820181905260009082015260e00190565b6001600160a01b039485168152928416602084015292166040820152606081019190915260800190565b60208082526017908201527f6e6f7420666f756e64204941737365744d617463686572000000000000000000604082015260600190565b6020808252601d908201527f526f79616c746965732061726520746f6f206869676820283e35302529000000604082015260600190565b6020808252601490820152730c081cd85b1d0818d85b89dd081899481d5cd95960621b604082015260600190565b60208082526024908201527f7472616e736665725061796f7574733a206e6f7468696e6720746f207472616e60408201526339b332b960e11b606082015260800190565b60208082526024908201527f72696768744f726465722e74616b657220766572696669636174696f6e2066616040820152631a5b195960e21b606082015260800190565b60208082526012908201527132b9319b9918903b30b63ab29032b93937b960711b604082015260600190565b6020808252600f908201526e1b9bdd1a1a5b99c81d1bc8199a5b1b608a1b604082015260600190565b602080825260159082015274195c98cc8c081d1c985b9cd9995c8819985a5b1959605a1b604082015260600190565b6020808252601590820152746f726967696e2066656520697320746f6f2062696760581b604082015260600190565b60208082526017908201527f556e6b6e6f776e204f7264657220646174612074797065000000000000000000604082015260600190565b6020808252601e908201527f53756d207061796f75747320427073206e6f7420657175616c20313030250000604082015260600190565b6020808252601290820152710c2e6e6cae8e640c8dedc4ee840dac2e8c6d60731b604082015260600190565b60208082526023908201527f6c6566744f726465722e74616b657220766572696669636174696f6e206661696040820152621b195960ea1b606082015260800190565b6020808252600e908201526d0dcdee840cadcdeeaced040cae8d60931b604082015260600190565b6020808252600b908201526a3737ba10309036b0b5b2b960a91b604082015260600190565b60006040825261577a60408301856152ce565b8281036020840152613b3581856152ce565b6000606082528451604060608401526157a860a08401826152ce565b60209687015160808501526001600160a01b03958616968401969096525050911660409091015290565b65ffffffffffff92831681529116602082015260400190565b6000808335601e19843603018112615801578283fd5b8301803591506001600160401b0382111561581a578283fd5b60200191503681900382131561261d57600080fd5b6040518181016001600160401b038111828210171561584a57fe5b604052919050565b60006001600160401b0382111561586557fe5b5060209081020190565b60006001600160401b0382111561588257fe5b50601f01601f191660200190565b60005b838110156158ab578181015183820152602001615893565b83811115610a155750506000910152565b6001600160a01b0381168114611b1a57600080fd5b6001600160e01b031981168114611b1a57600080fdfe4d6574615472616e73616374696f6e2875696e74323536206e6f6e63652c616464726573732066726f6d2c62797465732066756e6374696f6e5369676e6174757265294f776e61626c653a206e6577206f776e657220697320746865207a65726f206164647265737345434453413a20696e76616c6964207369676e6174757265202773272076616c75656f72646572207369676e617475726520766572696669636174696f6e206572726f72636f6e7472616374206f72646572207369676e617475726520766572696669636174696f6e206572726f72496e697469616c697a61626c653a20636f6e747261637420697320616c726561647920696e697469616c697a656445434453413a20696e76616c6964207369676e6174757265202776272076616c7565536166654d6174683a206d756c7469706c69636174696f6e206f766572666c6f774f776e61626c653a2063616c6c6572206973206e6f7420746865206f776e65725369676e657220616e64207369676e617475726520646f206e6f74206d61746368a2646970667358221220fc68b5fb43f86bb6bbf81fad7483b86104940d34e238f5525f68cdfb9690db0e64736f6c63430007060033",
  "devdoc": {
    "kind": "dev",
    "methods": {
      "directAcceptBid((address,uint256,bytes4,bytes,uint256,address,uint256,uint256,uint256,bytes4,bytes,bytes,uint256,uint256,bytes))": {
        "details": "function, generate sellOrder and buyOrder from parameters and call validateAndMatch() for accept bid transaction",
        "params": {
          "direct": "struct with parameters for accept bid operation"
        }
      },
      "directPurchase((address,uint256,bytes4,bytes,uint256,address,uint256,uint256,uint256,bytes4,bytes,bytes,uint256,uint256,bytes))": {
        "details": "function, generate sellOrder and buyOrder from parameters and call validateAndMatch() for purchase transaction"
      },
      "owner()": {
        "details": "Returns the address of the current owner."
      },
      "renounceOwnership()": {
        "details": "Leaves the contract without owner. It will not be possible to call `onlyOwner` functions anymore. Can only be called by the current owner. NOTE: Renouncing ownership will leave the contract without an owner, thereby removing any functionality that is only available to the owner."
      },
      "transferOwnership(address)": {
        "details": "Transfers ownership of the contract to a new account (`newOwner`). Can only be called by the current owner."
      }
    },
    "version": 1
  },
  "userdoc": {
    "kind": "user",
    "methods": {},
    "version": 1
  },
  "storageLayout": {
    "storage": [
      {
        "astId": 739,
        "contract": "@rarible/exchange-v2/contracts/ExchangeMetaV2.sol:ExchangeMetaV2",
        "label": "_initialized",
        "offset": 0,
        "slot": "0",
        "type": "t_bool"
      },
      {
        "astId": 742,
        "contract": "@rarible/exchange-v2/contracts/ExchangeMetaV2.sol:ExchangeMetaV2",
        "label": "_initializing",
        "offset": 1,
        "slot": "0",
        "type": "t_bool"
      },
      {
        "astId": 4256,
        "contract": "@rarible/exchange-v2/contracts/ExchangeMetaV2.sol:ExchangeMetaV2",
        "label": "__gap",
        "offset": 0,
        "slot": "1",
        "type": "t_array(t_uint256)50_storage"
      },
      {
        "astId": 10,
        "contract": "@rarible/exchange-v2/contracts/ExchangeMetaV2.sol:ExchangeMetaV2",
        "label": "_owner",
        "offset": 0,
        "slot": "51",
        "type": "t_address"
      },
      {
        "astId": 129,
        "contract": "@rarible/exchange-v2/contracts/ExchangeMetaV2.sol:ExchangeMetaV2",
        "label": "__gap",
        "offset": 0,
        "slot": "52",
        "type": "t_array(t_uint256)49_storage"
      },
      {
        "astId": 11953,
        "contract": "@rarible/exchange-v2/contracts/ExchangeMetaV2.sol:ExchangeMetaV2",
        "label": "matchers",
        "offset": 0,
        "slot": "101",
        "type": "t_mapping(t_bytes4,t_address)"
      },
      {
        "astId": 12199,
        "contract": "@rarible/exchange-v2/contracts/ExchangeMetaV2.sol:ExchangeMetaV2",
        "label": "__gap",
        "offset": 0,
        "slot": "102",
        "type": "t_array(t_uint256)49_storage"
      },
      {
        "astId": 31462,
        "contract": "@rarible/exchange-v2/contracts/ExchangeMetaV2.sol:ExchangeMetaV2",
        "label": "proxies",
        "offset": 0,
        "slot": "151",
        "type": "t_mapping(t_bytes4,t_address)"
      },
      {
        "astId": 31759,
        "contract": "@rarible/exchange-v2/contracts/ExchangeMetaV2.sol:ExchangeMetaV2",
        "label": "__gap",
        "offset": 0,
        "slot": "152",
        "type": "t_array(t_uint256)49_storage"
      },
      {
        "astId": 138,
        "contract": "@rarible/exchange-v2/contracts/ExchangeMetaV2.sol:ExchangeMetaV2",
        "label": "_HASHED_NAME",
        "offset": 0,
        "slot": "201",
        "type": "t_bytes32"
      },
      {
        "astId": 140,
        "contract": "@rarible/exchange-v2/contracts/ExchangeMetaV2.sol:ExchangeMetaV2",
        "label": "_HASHED_VERSION",
        "offset": 0,
        "slot": "202",
        "type": "t_bytes32"
      },
      {
        "astId": 289,
        "contract": "@rarible/exchange-v2/contracts/ExchangeMetaV2.sol:ExchangeMetaV2",
        "label": "__gap",
        "offset": 0,
        "slot": "203",
        "type": "t_array(t_uint256)50_storage"
      },
      {
        "astId": 13421,
        "contract": "@rarible/exchange-v2/contracts/ExchangeMetaV2.sol:ExchangeMetaV2",
        "label": "__gap",
        "offset": 0,
        "slot": "253",
        "type": "t_array(t_uint256)50_storage"
      },
      {
        "astId": 12353,
        "contract": "@rarible/exchange-v2/contracts/ExchangeMetaV2.sol:ExchangeMetaV2",
        "label": "fills",
        "offset": 0,
        "slot": "303",
        "type": "t_mapping(t_bytes32,t_uint256)"
      },
      {
        "astId": 13285,
        "contract": "@rarible/exchange-v2/contracts/ExchangeMetaV2.sol:ExchangeMetaV2",
        "label": "__gap",
        "offset": 0,
        "slot": "304",
        "type": "t_array(t_uint256)49_storage"
      },
      {
        "astId": 30389,
        "contract": "@rarible/exchange-v2/contracts/ExchangeMetaV2.sol:ExchangeMetaV2",
        "label": "protocolFee",
        "offset": 0,
        "slot": "353",
        "type": "t_struct(ProtocolFeeData)30425_storage"
      },
      {
        "astId": 30391,
        "contract": "@rarible/exchange-v2/contracts/ExchangeMetaV2.sol:ExchangeMetaV2",
        "label": "royaltiesRegistry",
        "offset": 0,
        "slot": "354",
        "type": "t_contract(IRoyaltiesProvider)11922"
      },
      {
        "astId": 30393,
        "contract": "@rarible/exchange-v2/contracts/ExchangeMetaV2.sol:ExchangeMetaV2",
        "label": "defaultFeeReceiver",
        "offset": 0,
        "slot": "355",
        "type": "t_address"
      },
      {
        "astId": 30397,
        "contract": "@rarible/exchange-v2/contracts/ExchangeMetaV2.sol:ExchangeMetaV2",
        "label": "feeReceivers",
        "offset": 0,
        "slot": "356",
        "type": "t_mapping(t_address,t_address)"
      },
      {
        "astId": 31438,
        "contract": "@rarible/exchange-v2/contracts/ExchangeMetaV2.sol:ExchangeMetaV2",
        "label": "__gap",
        "offset": 0,
        "slot": "357",
        "type": "t_array(t_uint256)46_storage"
      },
      {
        "astId": 19327,
        "contract": "@rarible/exchange-v2/contracts/ExchangeMetaV2.sol:ExchangeMetaV2",
        "label": "nonces",
        "offset": 0,
        "slot": "403",
        "type": "t_mapping(t_address,t_uint256)"
      },
      {
        "astId": 19329,
        "contract": "@rarible/exchange-v2/contracts/ExchangeMetaV2.sol:ExchangeMetaV2",
        "label": "domainSeparator",
        "offset": 0,
        "slot": "404",
        "type": "t_bytes32"
      }
    ],
    "types": {
      "t_address": {
        "encoding": "inplace",
        "label": "address",
        "numberOfBytes": "20"
      },
      "t_array(t_uint256)46_storage": {
        "base": "t_uint256",
        "encoding": "inplace",
        "label": "uint256[46]",
        "numberOfBytes": "1472"
      },
      "t_array(t_uint256)49_storage": {
        "base": "t_uint256",
        "encoding": "inplace",
        "label": "uint256[49]",
        "numberOfBytes": "1568"
      },
      "t_array(t_uint256)50_storage": {
        "base": "t_uint256",
        "encoding": "inplace",
        "label": "uint256[50]",
        "numberOfBytes": "1600"
      },
      "t_bool": {
        "encoding": "inplace",
        "label": "bool",
        "numberOfBytes": "1"
      },
      "t_bytes32": {
        "encoding": "inplace",
        "label": "bytes32",
        "numberOfBytes": "32"
      },
      "t_bytes4": {
        "encoding": "inplace",
        "label": "bytes4",
        "numberOfBytes": "4"
      },
      "t_contract(IRoyaltiesProvider)11922": {
        "encoding": "inplace",
        "label": "contract IRoyaltiesProvider",
        "numberOfBytes": "20"
      },
      "t_mapping(t_address,t_address)": {
        "encoding": "mapping",
        "key": "t_address",
        "label": "mapping(address => address)",
        "numberOfBytes": "32",
        "value": "t_address"
      },
      "t_mapping(t_address,t_uint256)": {
        "encoding": "mapping",
        "key": "t_address",
        "label": "mapping(address => uint256)",
        "numberOfBytes": "32",
        "value": "t_uint256"
      },
      "t_mapping(t_bytes32,t_uint256)": {
        "encoding": "mapping",
        "key": "t_bytes32",
        "label": "mapping(bytes32 => uint256)",
        "numberOfBytes": "32",
        "value": "t_uint256"
      },
      "t_mapping(t_bytes4,t_address)": {
        "encoding": "mapping",
        "key": "t_bytes4",
        "label": "mapping(bytes4 => address)",
        "numberOfBytes": "32",
        "value": "t_address"
      },
      "t_struct(ProtocolFeeData)30425_storage": {
        "encoding": "inplace",
        "label": "struct RaribleTransferManager.ProtocolFeeData",
        "members": [
          {
            "astId": 30420,
            "contract": "@rarible/exchange-v2/contracts/ExchangeMetaV2.sol:ExchangeMetaV2",
            "label": "receiver",
            "offset": 0,
            "slot": "0",
            "type": "t_address"
          },
          {
            "astId": 30422,
            "contract": "@rarible/exchange-v2/contracts/ExchangeMetaV2.sol:ExchangeMetaV2",
            "label": "buyerAmount",
            "offset": 20,
            "slot": "0",
            "type": "t_uint48"
          },
          {
            "astId": 30424,
            "contract": "@rarible/exchange-v2/contracts/ExchangeMetaV2.sol:ExchangeMetaV2",
            "label": "sellerAmount",
            "offset": 26,
            "slot": "0",
            "type": "t_uint48"
          }
        ],
        "numberOfBytes": "32"
      },
      "t_uint256": {
        "encoding": "inplace",
        "label": "uint256",
        "numberOfBytes": "32"
      },
      "t_uint48": {
        "encoding": "inplace",
        "label": "uint48",
        "numberOfBytes": "6"
      }
    }
  }
}