{
  "_format": "hh3-artifact-1",
  "contractName": "PackManager",
  "sourceName": "contracts/PackManager.sol",
  "abi": [
    {
      "inputs": [],
      "stateMutability": "nonpayable",
      "type": "constructor"
    },
    {
      "inputs": [],
      "name": "EnforcedPause",
      "type": "error"
    },
    {
      "inputs": [],
      "name": "ExpectedPause",
      "type": "error"
    },
    {
      "inputs": [
        {
          "internalType": "address",
          "name": "collection",
          "type": "address"
        }
      ],
      "name": "FloorPriceNotSet",
      "type": "error"
    },
    {
      "inputs": [],
      "name": "InstantCashNotEnabled",
      "type": "error"
    },
    {
      "inputs": [],
      "name": "InsufficientTreasuryBalance",
      "type": "error"
    },
    {
      "inputs": [],
      "name": "InvalidInitialization",
      "type": "error"
    },
    {
      "inputs": [],
      "name": "InvalidProbabilities",
      "type": "error"
    },
    {
      "inputs": [],
      "name": "InvalidVrfCoordinator",
      "type": "error"
    },
    {
      "inputs": [
        {
          "internalType": "enum NftPool.PoolLevel",
          "name": "level",
          "type": "uint8"
        }
      ],
      "name": "LevelEmpty",
      "type": "error"
    },
    {
      "inputs": [],
      "name": "NoActiveRequest",
      "type": "error"
    },
    {
      "inputs": [],
      "name": "NotAuthorized",
      "type": "error"
    },
    {
      "inputs": [],
      "name": "NotInitializing",
      "type": "error"
    },
    {
      "inputs": [],
      "name": "NotPackOwner",
      "type": "error"
    },
    {
      "inputs": [],
      "name": "OnlyVrfCoordinator",
      "type": "error"
    },
    {
      "inputs": [
        {
          "internalType": "address",
          "name": "owner",
          "type": "address"
        }
      ],
      "name": "OwnableInvalidOwner",
      "type": "error"
    },
    {
      "inputs": [
        {
          "internalType": "address",
          "name": "account",
          "type": "address"
        }
      ],
      "name": "OwnableUnauthorizedAccount",
      "type": "error"
    },
    {
      "inputs": [],
      "name": "PackAlreadyOpened",
      "type": "error"
    },
    {
      "inputs": [],
      "name": "PackEmpty",
      "type": "error"
    },
    {
      "inputs": [],
      "name": "PackNotOpened",
      "type": "error"
    },
    {
      "inputs": [],
      "name": "PackOpeningInProgressError",
      "type": "error"
    },
    {
      "inputs": [],
      "name": "PayoutTreasuryNotSet",
      "type": "error"
    },
    {
      "inputs": [],
      "name": "PoolNotSet",
      "type": "error"
    },
    {
      "inputs": [],
      "name": "ReentrancyGuardReentrantCall",
      "type": "error"
    },
    {
      "inputs": [],
      "name": "RequestAlreadyFulfilled",
      "type": "error"
    },
    {
      "inputs": [],
      "name": "RequestNotFound",
      "type": "error"
    },
    {
      "inputs": [],
      "name": "RequestNotPending",
      "type": "error"
    },
    {
      "inputs": [],
      "name": "RequestNotTimedOut",
      "type": "error"
    },
    {
      "inputs": [],
      "name": "TransferFailed",
      "type": "error"
    },
    {
      "inputs": [],
      "name": "ZeroAddress",
      "type": "error"
    },
    {
      "anonymous": false,
      "inputs": [
        {
          "indexed": false,
          "internalType": "uint64",
          "name": "version",
          "type": "uint64"
        }
      ],
      "name": "Initialized",
      "type": "event"
    },
    {
      "anonymous": false,
      "inputs": [
        {
          "indexed": true,
          "internalType": "address",
          "name": "requester",
          "type": "address"
        },
        {
          "indexed": true,
          "internalType": "uint256",
          "name": "packTokenId",
          "type": "uint256"
        },
        {
          "indexed": false,
          "internalType": "uint256",
          "name": "totalPayout",
          "type": "uint256"
        },
        {
          "indexed": false,
          "internalType": "address[]",
          "name": "collections",
          "type": "address[]"
        },
        {
          "indexed": false,
          "internalType": "uint256[]",
          "name": "tokenIds",
          "type": "uint256[]"
        }
      ],
      "name": "InstantCashClaimed",
      "type": "event"
    },
    {
      "anonymous": false,
      "inputs": [
        {
          "indexed": false,
          "internalType": "bool",
          "name": "enabled",
          "type": "bool"
        }
      ],
      "name": "InstantCashEnabledUpdated",
      "type": "event"
    },
    {
      "anonymous": false,
      "inputs": [
        {
          "indexed": true,
          "internalType": "address",
          "name": "collection",
          "type": "address"
        },
        {
          "indexed": true,
          "internalType": "uint256",
          "name": "tokenId",
          "type": "uint256"
        }
      ],
      "name": "LockedNftRollbackFailed",
      "type": "event"
    },
    {
      "anonymous": false,
      "inputs": [
        {
          "indexed": true,
          "internalType": "address",
          "name": "requester",
          "type": "address"
        },
        {
          "indexed": true,
          "internalType": "uint256",
          "name": "packTokenId",
          "type": "uint256"
        },
        {
          "indexed": false,
          "internalType": "address[]",
          "name": "collections",
          "type": "address[]"
        },
        {
          "indexed": false,
          "internalType": "uint256[]",
          "name": "tokenIds",
          "type": "uint256[]"
        }
      ],
      "name": "NftClaimed",
      "type": "event"
    },
    {
      "anonymous": false,
      "inputs": [
        {
          "indexed": true,
          "internalType": "address",
          "name": "poolAddress",
          "type": "address"
        }
      ],
      "name": "NftPoolSet",
      "type": "event"
    },
    {
      "anonymous": false,
      "inputs": [
        {
          "indexed": true,
          "internalType": "address",
          "name": "previousOwner",
          "type": "address"
        },
        {
          "indexed": true,
          "internalType": "address",
          "name": "newOwner",
          "type": "address"
        }
      ],
      "name": "OwnershipTransferred",
      "type": "event"
    },
    {
      "anonymous": false,
      "inputs": [
        {
          "indexed": true,
          "internalType": "uint256",
          "name": "requestId",
          "type": "uint256"
        },
        {
          "indexed": true,
          "internalType": "address",
          "name": "requester",
          "type": "address"
        },
        {
          "indexed": true,
          "internalType": "uint256",
          "name": "packTokenId",
          "type": "uint256"
        },
        {
          "indexed": false,
          "internalType": "address",
          "name": "cancelledBy",
          "type": "address"
        }
      ],
      "name": "PackOpenCancelled",
      "type": "event"
    },
    {
      "anonymous": false,
      "inputs": [
        {
          "indexed": true,
          "internalType": "uint256",
          "name": "requestId",
          "type": "uint256"
        },
        {
          "indexed": true,
          "internalType": "address",
          "name": "requester",
          "type": "address"
        },
        {
          "indexed": true,
          "internalType": "uint256",
          "name": "packTokenId",
          "type": "uint256"
        },
        {
          "indexed": false,
          "internalType": "enum PackManager.OpenFailReason",
          "name": "reason",
          "type": "uint8"
        }
      ],
      "name": "PackOpenFailed",
      "type": "event"
    },
    {
      "anonymous": false,
      "inputs": [
        {
          "indexed": true,
          "internalType": "uint256",
          "name": "requestId",
          "type": "uint256"
        },
        {
          "indexed": true,
          "internalType": "address",
          "name": "requester",
          "type": "address"
        },
        {
          "indexed": true,
          "internalType": "uint256",
          "name": "packTokenId",
          "type": "uint256"
        },
        {
          "indexed": false,
          "internalType": "enum RariPack.PackType",
          "name": "packType",
          "type": "uint8"
        }
      ],
      "name": "PackOpenRequested",
      "type": "event"
    },
    {
      "anonymous": false,
      "inputs": [
        {
          "indexed": true,
          "internalType": "uint256",
          "name": "requestId",
          "type": "uint256"
        },
        {
          "indexed": true,
          "internalType": "address",
          "name": "requester",
          "type": "address"
        },
        {
          "indexed": true,
          "internalType": "uint256",
          "name": "packTokenId",
          "type": "uint256"
        },
        {
          "components": [
            {
              "internalType": "address",
              "name": "collection",
              "type": "address"
            },
            {
              "internalType": "uint256",
              "name": "tokenId",
              "type": "uint256"
            },
            {
              "internalType": "enum NftPool.PoolLevel",
              "name": "poolLevel",
              "type": "uint8"
            }
          ],
          "indexed": false,
          "internalType": "struct PackManager.RewardNft[3]",
          "name": "rewards",
          "type": "tuple[3]"
        }
      ],
      "name": "PackOpened",
      "type": "event"
    },
    {
      "anonymous": false,
      "inputs": [
        {
          "indexed": true,
          "internalType": "enum RariPack.PackType",
          "name": "packType",
          "type": "uint8"
        },
        {
          "indexed": false,
          "internalType": "uint16",
          "name": "ultraRare",
          "type": "uint16"
        },
        {
          "indexed": false,
          "internalType": "uint16",
          "name": "legendary",
          "type": "uint16"
        },
        {
          "indexed": false,
          "internalType": "uint16",
          "name": "epic",
          "type": "uint16"
        },
        {
          "indexed": false,
          "internalType": "uint16",
          "name": "rare",
          "type": "uint16"
        }
      ],
      "name": "PackProbabilitiesUpdated",
      "type": "event"
    },
    {
      "anonymous": false,
      "inputs": [
        {
          "indexed": false,
          "internalType": "address",
          "name": "account",
          "type": "address"
        }
      ],
      "name": "Paused",
      "type": "event"
    },
    {
      "anonymous": false,
      "inputs": [
        {
          "indexed": true,
          "internalType": "address",
          "name": "oldTreasury",
          "type": "address"
        },
        {
          "indexed": true,
          "internalType": "address",
          "name": "newTreasury",
          "type": "address"
        }
      ],
      "name": "PayoutTreasuryUpdated",
      "type": "event"
    },
    {
      "anonymous": false,
      "inputs": [
        {
          "indexed": true,
          "internalType": "address",
          "name": "rariPackAddress",
          "type": "address"
        }
      ],
      "name": "RariPackSet",
      "type": "event"
    },
    {
      "anonymous": false,
      "inputs": [
        {
          "indexed": true,
          "internalType": "address",
          "name": "funder",
          "type": "address"
        },
        {
          "indexed": false,
          "internalType": "uint256",
          "name": "amount",
          "type": "uint256"
        }
      ],
      "name": "TreasuryFunded",
      "type": "event"
    },
    {
      "anonymous": false,
      "inputs": [
        {
          "indexed": true,
          "internalType": "address",
          "name": "to",
          "type": "address"
        },
        {
          "indexed": false,
          "internalType": "uint256",
          "name": "amount",
          "type": "uint256"
        }
      ],
      "name": "TreasuryWithdrawn",
      "type": "event"
    },
    {
      "anonymous": false,
      "inputs": [
        {
          "indexed": false,
          "internalType": "address",
          "name": "account",
          "type": "address"
        }
      ],
      "name": "Unpaused",
      "type": "event"
    },
    {
      "anonymous": false,
      "inputs": [
        {
          "indexed": true,
          "internalType": "address",
          "name": "coordinator",
          "type": "address"
        },
        {
          "indexed": false,
          "internalType": "uint256",
          "name": "subscriptionId",
          "type": "uint256"
        },
        {
          "indexed": false,
          "internalType": "bytes32",
          "name": "keyHash",
          "type": "bytes32"
        },
        {
          "indexed": false,
          "internalType": "uint32",
          "name": "callbackGasLimit",
          "type": "uint32"
        },
        {
          "indexed": false,
          "internalType": "uint16",
          "name": "requestConfirmations",
          "type": "uint16"
        }
      ],
      "name": "VrfConfigUpdated",
      "type": "event"
    },
    {
      "anonymous": false,
      "inputs": [
        {
          "indexed": false,
          "internalType": "bool",
          "name": "payWithLink",
          "type": "bool"
        }
      ],
      "name": "VrfPayWithLinkUpdated",
      "type": "event"
    },
    {
      "anonymous": false,
      "inputs": [
        {
          "indexed": false,
          "internalType": "uint64",
          "name": "oldTimeout",
          "type": "uint64"
        },
        {
          "indexed": false,
          "internalType": "uint64",
          "name": "newTimeout",
          "type": "uint64"
        }
      ],
      "name": "VrfRequestTimeoutUpdated",
      "type": "event"
    },
    {
      "inputs": [],
      "name": "INSTANT_CASH_PERCENTAGE",
      "outputs": [
        {
          "internalType": "uint256",
          "name": "",
          "type": "uint256"
        }
      ],
      "stateMutability": "view",
      "type": "function"
    },
    {
      "inputs": [],
      "name": "PROBABILITY_PRECISION",
      "outputs": [
        {
          "internalType": "uint256",
          "name": "",
          "type": "uint256"
        }
      ],
      "stateMutability": "view",
      "type": "function"
    },
    {
      "inputs": [],
      "name": "REWARDS_PER_PACK",
      "outputs": [
        {
          "internalType": "uint256",
          "name": "",
          "type": "uint256"
        }
      ],
      "stateMutability": "view",
      "type": "function"
    },
    {
      "inputs": [
        {
          "internalType": "uint256",
          "name": "packTokenId",
          "type": "uint256"
        }
      ],
      "name": "adminOpenPack",
      "outputs": [
        {
          "internalType": "uint256",
          "name": "requestId",
          "type": "uint256"
        }
      ],
      "stateMutability": "nonpayable",
      "type": "function"
    },
    {
      "inputs": [
        {
          "internalType": "enum RariPack.PackType",
          "name": "packType",
          "type": "uint8"
        }
      ],
      "name": "canOpenPack",
      "outputs": [
        {
          "internalType": "bool",
          "name": "",
          "type": "bool"
        }
      ],
      "stateMutability": "view",
      "type": "function"
    },
    {
      "inputs": [
        {
          "internalType": "uint256",
          "name": "packTokenId",
          "type": "uint256"
        }
      ],
      "name": "cancelOpenRequest",
      "outputs": [],
      "stateMutability": "nonpayable",
      "type": "function"
    },
    {
      "inputs": [
        {
          "internalType": "uint256",
          "name": "requestId",
          "type": "uint256"
        }
      ],
      "name": "cancelOpenRequestByRequestId",
      "outputs": [],
      "stateMutability": "nonpayable",
      "type": "function"
    },
    {
      "inputs": [
        {
          "internalType": "uint256",
          "name": "packTokenId",
          "type": "uint256"
        }
      ],
      "name": "claimNft",
      "outputs": [],
      "stateMutability": "nonpayable",
      "type": "function"
    },
    {
      "inputs": [
        {
          "internalType": "uint256",
          "name": "packTokenId",
          "type": "uint256"
        }
      ],
      "name": "claimReward",
      "outputs": [],
      "stateMutability": "nonpayable",
      "type": "function"
    },
    {
      "inputs": [],
      "name": "fundTreasury",
      "outputs": [],
      "stateMutability": "payable",
      "type": "function"
    },
    {
      "inputs": [
        {
          "internalType": "uint256",
          "name": "packTokenId",
          "type": "uint256"
        }
      ],
      "name": "getActiveRequestIdForPack",
      "outputs": [
        {
          "internalType": "uint256",
          "name": "",
          "type": "uint256"
        }
      ],
      "stateMutability": "view",
      "type": "function"
    },
    {
      "inputs": [
        {
          "internalType": "address",
          "name": "collection",
          "type": "address"
        }
      ],
      "name": "getInstantCashPayout",
      "outputs": [
        {
          "internalType": "uint256",
          "name": "payout",
          "type": "uint256"
        }
      ],
      "stateMutability": "view",
      "type": "function"
    },
    {
      "inputs": [],
      "name": "getInstantCashPercentage",
      "outputs": [
        {
          "internalType": "uint256",
          "name": "",
          "type": "uint256"
        }
      ],
      "stateMutability": "pure",
      "type": "function"
    },
    {
      "inputs": [],
      "name": "getNftPool",
      "outputs": [
        {
          "internalType": "address",
          "name": "",
          "type": "address"
        }
      ],
      "stateMutability": "view",
      "type": "function"
    },
    {
      "inputs": [
        {
          "internalType": "enum RariPack.PackType",
          "name": "packType",
          "type": "uint8"
        }
      ],
      "name": "getPackProbabilities",
      "outputs": [
        {
          "internalType": "uint16",
          "name": "ultraRare",
          "type": "uint16"
        },
        {
          "internalType": "uint16",
          "name": "legendary",
          "type": "uint16"
        },
        {
          "internalType": "uint16",
          "name": "epic",
          "type": "uint16"
        },
        {
          "internalType": "uint16",
          "name": "rare",
          "type": "uint16"
        }
      ],
      "stateMutability": "view",
      "type": "function"
    },
    {
      "inputs": [
        {
          "internalType": "enum RariPack.PackType",
          "name": "packType",
          "type": "uint8"
        }
      ],
      "name": "getPackProbabilitiesPercent",
      "outputs": [
        {
          "internalType": "uint16",
          "name": "ultraRarePercent",
          "type": "uint16"
        },
        {
          "internalType": "uint16",
          "name": "legendaryPercent",
          "type": "uint16"
        },
        {
          "internalType": "uint16",
          "name": "epicPercent",
          "type": "uint16"
        },
        {
          "internalType": "uint16",
          "name": "rarePercent",
          "type": "uint16"
        },
        {
          "internalType": "uint16",
          "name": "commonPercent",
          "type": "uint16"
        }
      ],
      "stateMutability": "view",
      "type": "function"
    },
    {
      "inputs": [
        {
          "internalType": "address",
          "name": "user",
          "type": "address"
        }
      ],
      "name": "getPendingRequests",
      "outputs": [
        {
          "internalType": "uint256[]",
          "name": "",
          "type": "uint256[]"
        }
      ],
      "stateMutability": "view",
      "type": "function"
    },
    {
      "inputs": [
        {
          "internalType": "address",
          "name": "initialOwner",
          "type": "address"
        },
        {
          "internalType": "address",
          "name": "rariPack_",
          "type": "address"
        }
      ],
      "name": "initialize",
      "outputs": [],
      "stateMutability": "nonpayable",
      "type": "function"
    },
    {
      "inputs": [],
      "name": "instantCashEnabled",
      "outputs": [
        {
          "internalType": "bool",
          "name": "",
          "type": "bool"
        }
      ],
      "stateMutability": "view",
      "type": "function"
    },
    {
      "inputs": [],
      "name": "nftPool",
      "outputs": [
        {
          "internalType": "contract NftPool",
          "name": "",
          "type": "address"
        }
      ],
      "stateMutability": "view",
      "type": "function"
    },
    {
      "inputs": [
        {
          "internalType": "address",
          "name": "",
          "type": "address"
        },
        {
          "internalType": "address",
          "name": "",
          "type": "address"
        },
        {
          "internalType": "uint256",
          "name": "",
          "type": "uint256"
        },
        {
          "internalType": "bytes",
          "name": "",
          "type": "bytes"
        }
      ],
      "name": "onERC721Received",
      "outputs": [
        {
          "internalType": "bytes4",
          "name": "",
          "type": "bytes4"
        }
      ],
      "stateMutability": "nonpayable",
      "type": "function"
    },
    {
      "inputs": [
        {
          "internalType": "uint256",
          "name": "packTokenId",
          "type": "uint256"
        }
      ],
      "name": "openPack",
      "outputs": [
        {
          "internalType": "uint256",
          "name": "requestId",
          "type": "uint256"
        }
      ],
      "stateMutability": "nonpayable",
      "type": "function"
    },
    {
      "inputs": [
        {
          "internalType": "uint256",
          "name": "",
          "type": "uint256"
        }
      ],
      "name": "openRequests",
      "outputs": [
        {
          "internalType": "address",
          "name": "requester",
          "type": "address"
        },
        {
          "internalType": "uint256",
          "name": "packTokenId",
          "type": "uint256"
        },
        {
          "internalType": "enum RariPack.PackType",
          "name": "packType",
          "type": "uint8"
        },
        {
          "internalType": "bool",
          "name": "fulfilled",
          "type": "bool"
        },
        {
          "internalType": "uint64",
          "name": "createdAt",
          "type": "uint64"
        },
        {
          "internalType": "enum PackManager.RequestStatus",
          "name": "status",
          "type": "uint8"
        }
      ],
      "stateMutability": "view",
      "type": "function"
    },
    {
      "inputs": [],
      "name": "owner",
      "outputs": [
        {
          "internalType": "address",
          "name": "",
          "type": "address"
        }
      ],
      "stateMutability": "view",
      "type": "function"
    },
    {
      "inputs": [
        {
          "internalType": "uint256",
          "name": "",
          "type": "uint256"
        }
      ],
      "name": "packOpeningInProgress",
      "outputs": [
        {
          "internalType": "bool",
          "name": "",
          "type": "bool"
        }
      ],
      "stateMutability": "view",
      "type": "function"
    },
    {
      "inputs": [
        {
          "internalType": "uint256",
          "name": "",
          "type": "uint256"
        }
      ],
      "name": "packToRequestId",
      "outputs": [
        {
          "internalType": "uint256",
          "name": "",
          "type": "uint256"
        }
      ],
      "stateMutability": "view",
      "type": "function"
    },
    {
      "inputs": [],
      "name": "pause",
      "outputs": [],
      "stateMutability": "nonpayable",
      "type": "function"
    },
    {
      "inputs": [],
      "name": "paused",
      "outputs": [
        {
          "internalType": "bool",
          "name": "",
          "type": "bool"
        }
      ],
      "stateMutability": "view",
      "type": "function"
    },
    {
      "inputs": [],
      "name": "payoutTreasury",
      "outputs": [
        {
          "internalType": "address",
          "name": "",
          "type": "address"
        }
      ],
      "stateMutability": "view",
      "type": "function"
    },
    {
      "inputs": [],
      "name": "rariPack",
      "outputs": [
        {
          "internalType": "contract RariPack",
          "name": "",
          "type": "address"
        }
      ],
      "stateMutability": "view",
      "type": "function"
    },
    {
      "inputs": [
        {
          "internalType": "uint256",
          "name": "requestId",
          "type": "uint256"
        },
        {
          "internalType": "uint256[]",
          "name": "randomWords",
          "type": "uint256[]"
        }
      ],
      "name": "rawFulfillRandomWords",
      "outputs": [],
      "stateMutability": "nonpayable",
      "type": "function"
    },
    {
      "inputs": [],
      "name": "renounceOwnership",
      "outputs": [],
      "stateMutability": "nonpayable",
      "type": "function"
    },
    {
      "inputs": [
        {
          "components": [
            {
              "internalType": "uint16",
              "name": "ultraRare",
              "type": "uint16"
            },
            {
              "internalType": "uint16",
              "name": "legendary",
              "type": "uint16"
            },
            {
              "internalType": "uint16",
              "name": "epic",
              "type": "uint16"
            },
            {
              "internalType": "uint16",
              "name": "rare",
              "type": "uint16"
            }
          ],
          "internalType": "struct PackManager.PackProbabilities",
          "name": "platinumProbs",
          "type": "tuple"
        },
        {
          "components": [
            {
              "internalType": "uint16",
              "name": "ultraRare",
              "type": "uint16"
            },
            {
              "internalType": "uint16",
              "name": "legendary",
              "type": "uint16"
            },
            {
              "internalType": "uint16",
              "name": "epic",
              "type": "uint16"
            },
            {
              "internalType": "uint16",
              "name": "rare",
              "type": "uint16"
            }
          ],
          "internalType": "struct PackManager.PackProbabilities",
          "name": "goldProbs",
          "type": "tuple"
        },
        {
          "components": [
            {
              "internalType": "uint16",
              "name": "ultraRare",
              "type": "uint16"
            },
            {
              "internalType": "uint16",
              "name": "legendary",
              "type": "uint16"
            },
            {
              "internalType": "uint16",
              "name": "epic",
              "type": "uint16"
            },
            {
              "internalType": "uint16",
              "name": "rare",
              "type": "uint16"
            }
          ],
          "internalType": "struct PackManager.PackProbabilities",
          "name": "silverProbs",
          "type": "tuple"
        },
        {
          "components": [
            {
              "internalType": "uint16",
              "name": "ultraRare",
              "type": "uint16"
            },
            {
              "internalType": "uint16",
              "name": "legendary",
              "type": "uint16"
            },
            {
              "internalType": "uint16",
              "name": "epic",
              "type": "uint16"
            },
            {
              "internalType": "uint16",
              "name": "rare",
              "type": "uint16"
            }
          ],
          "internalType": "struct PackManager.PackProbabilities",
          "name": "bronzeProbs",
          "type": "tuple"
        }
      ],
      "name": "setAllPackProbabilities",
      "outputs": [],
      "stateMutability": "nonpayable",
      "type": "function"
    },
    {
      "inputs": [
        {
          "internalType": "bool",
          "name": "enabled",
          "type": "bool"
        }
      ],
      "name": "setInstantCashEnabled",
      "outputs": [],
      "stateMutability": "nonpayable",
      "type": "function"
    },
    {
      "inputs": [
        {
          "internalType": "address",
          "name": "pool_",
          "type": "address"
        }
      ],
      "name": "setNftPool",
      "outputs": [],
      "stateMutability": "nonpayable",
      "type": "function"
    },
    {
      "inputs": [
        {
          "internalType": "enum RariPack.PackType",
          "name": "packType",
          "type": "uint8"
        },
        {
          "internalType": "uint16",
          "name": "ultraRare",
          "type": "uint16"
        },
        {
          "internalType": "uint16",
          "name": "legendary",
          "type": "uint16"
        },
        {
          "internalType": "uint16",
          "name": "epic",
          "type": "uint16"
        },
        {
          "internalType": "uint16",
          "name": "rare",
          "type": "uint16"
        }
      ],
      "name": "setPackProbabilities",
      "outputs": [],
      "stateMutability": "nonpayable",
      "type": "function"
    },
    {
      "inputs": [
        {
          "internalType": "address",
          "name": "treasury_",
          "type": "address"
        }
      ],
      "name": "setPayoutTreasury",
      "outputs": [],
      "stateMutability": "nonpayable",
      "type": "function"
    },
    {
      "inputs": [
        {
          "internalType": "address",
          "name": "rariPack_",
          "type": "address"
        }
      ],
      "name": "setRariPack",
      "outputs": [],
      "stateMutability": "nonpayable",
      "type": "function"
    },
    {
      "inputs": [
        {
          "internalType": "address",
          "name": "coordinator_",
          "type": "address"
        },
        {
          "internalType": "uint256",
          "name": "subscriptionId_",
          "type": "uint256"
        },
        {
          "internalType": "bytes32",
          "name": "keyHash_",
          "type": "bytes32"
        },
        {
          "internalType": "uint32",
          "name": "callbackGasLimit_",
          "type": "uint32"
        },
        {
          "internalType": "uint16",
          "name": "requestConfirmations_",
          "type": "uint16"
        }
      ],
      "name": "setVrfConfig",
      "outputs": [],
      "stateMutability": "nonpayable",
      "type": "function"
    },
    {
      "inputs": [
        {
          "internalType": "bool",
          "name": "payWithLink_",
          "type": "bool"
        }
      ],
      "name": "setVrfPayWithLink",
      "outputs": [],
      "stateMutability": "nonpayable",
      "type": "function"
    },
    {
      "inputs": [
        {
          "internalType": "uint64",
          "name": "timeoutSeconds",
          "type": "uint64"
        }
      ],
      "name": "setVrfRequestTimeout",
      "outputs": [],
      "stateMutability": "nonpayable",
      "type": "function"
    },
    {
      "inputs": [
        {
          "internalType": "address",
          "name": "newOwner",
          "type": "address"
        }
      ],
      "name": "transferOwnership",
      "outputs": [],
      "stateMutability": "nonpayable",
      "type": "function"
    },
    {
      "inputs": [],
      "name": "treasuryBalance",
      "outputs": [
        {
          "internalType": "uint256",
          "name": "",
          "type": "uint256"
        }
      ],
      "stateMutability": "view",
      "type": "function"
    },
    {
      "inputs": [],
      "name": "unpause",
      "outputs": [],
      "stateMutability": "nonpayable",
      "type": "function"
    },
    {
      "inputs": [],
      "name": "vrfCallbackGasLimit",
      "outputs": [
        {
          "internalType": "uint32",
          "name": "",
          "type": "uint32"
        }
      ],
      "stateMutability": "view",
      "type": "function"
    },
    {
      "inputs": [],
      "name": "vrfCoordinator",
      "outputs": [
        {
          "internalType": "address",
          "name": "",
          "type": "address"
        }
      ],
      "stateMutability": "view",
      "type": "function"
    },
    {
      "inputs": [],
      "name": "vrfKeyHash",
      "outputs": [
        {
          "internalType": "bytes32",
          "name": "",
          "type": "bytes32"
        }
      ],
      "stateMutability": "view",
      "type": "function"
    },
    {
      "inputs": [],
      "name": "vrfPayWithLink",
      "outputs": [
        {
          "internalType": "bool",
          "name": "",
          "type": "bool"
        }
      ],
      "stateMutability": "view",
      "type": "function"
    },
    {
      "inputs": [],
      "name": "vrfRequestConfirmations",
      "outputs": [
        {
          "internalType": "uint16",
          "name": "",
          "type": "uint16"
        }
      ],
      "stateMutability": "view",
      "type": "function"
    },
    {
      "inputs": [],
      "name": "vrfRequestTimeout",
      "outputs": [
        {
          "internalType": "uint64",
          "name": "",
          "type": "uint64"
        }
      ],
      "stateMutability": "view",
      "type": "function"
    },
    {
      "inputs": [],
      "name": "vrfSubscriptionId",
      "outputs": [
        {
          "internalType": "uint256",
          "name": "",
          "type": "uint256"
        }
      ],
      "stateMutability": "view",
      "type": "function"
    },
    {
      "inputs": [
        {
          "internalType": "address",
          "name": "to",
          "type": "address"
        },
        {
          "internalType": "uint256",
          "name": "amount",
          "type": "uint256"
        }
      ],
      "name": "withdrawTreasury",
      "outputs": [],
      "stateMutability": "nonpayable",
      "type": "function"
    },
    {
      "stateMutability": "payable",
      "type": "receive"
    }
  ],
  "bytecode": "0x6080604052348015600e575f5ffd5b5060156019565b60c9565b7ff0c57e16840df040f15088dc2f81fe391c3923bec73e23a9662efc9c229c6a00805468010000000000000000900460ff161560685760405163f92ee8a960e01b815260040160405180910390fd5b80546001600160401b039081161460c65780546001600160401b0319166001600160401b0390811782556040519081527fc7f505b2f371ae2175ee4913f4499e1f2633a7b5936321eed1cdaeb6115181d29060200160405180910390a15b50565b6146f4806100d65f395ff3fe6080604052600436106102f6575f3560e01c8063715018a611610189578063c5b7bc71116100d8578063dbcdd1e011610092578063edc641da1161006d578063edc641da14610a01578063f05bfa7b14610a20578063f2fde38b14610a4c578063fca778a014610a6b575f5ffd5b8063dbcdd1e01461099f578063ec3a2013146109be578063ed647d21146109ec575f5ffd5b8063c5b7bc7114610893578063ca206a1c146108a7578063cc993ca2146108c6578063cd1a44db146108e5578063ce16f19d14610961578063d1c27c4314610980575f5ffd5b8063a3e56fa811610143578063b20b1bfb1161011e578063b20b1bfb14610822578063b23e3f551461084d578063b9c186851461086c578063c52c964b14610874575f5ffd5b8063a3e56fa8146107c5578063a41c96d7146107e4578063ae169a5014610803575f5ffd5b8063715018a61461070857806378a948661461071c578063794687d71461073b5780637a4a2311146107725780638456cb591461079d5780638da5cb5b146107b1575f5ffd5b80633b7ed7341161024557806352428313116101ff578063623860fd116101da578063623860fd1461069757806367bdf8fa146106ac57806368e1ec35146106c95780636ebc4062146106e9575f5ffd5b806352428313146105f3578063598bc486146106405780635c975abb14610674575f5ffd5b80633b7ed734146104fd5780633f4ba83a1461052e5780634045e68d146105425780634264955214610596578063485cc955146105b557806350a88c7e146105d4575f5ffd5b8063191f0d9a116102b05780632487a60c1161028b5780632487a60c146104845780632ec09d39146104ad578063313dab20146104cc57806337f624fb146104de575f5ffd5b8063191f0d9a146104275780631fe543e31461044657806322ac08f314610465575f5ffd5b8063011b320c1461033657806302932e1314610371578063041d443e1461038f5780630828862d146103a45780630d86419a146103c3578063150b7a02146103e4575f5ffd5b366103325760405134815233907fda1785fe1dec267c363b06ae3e02c3e086123f9d611399f7a1cc98492518372e9060200160405180910390a2005b5f5ffd5b348015610341575f5ffd5b505f54610354906001600160a01b031681565b6040516001600160a01b0390911681526020015b60405180910390f35b34801561037c575f5ffd5b50611f405b604051908152602001610368565b34801561039a575f5ffd5b5061038160045481565b3480156103af575f5ffd5b50600154610354906001600160a01b031681565b3480156103ce575f5ffd5b506103e26103dd366004613cb3565b610a80565b005b3480156103ef575f5ffd5b5061040e6103fe366004613d21565b630a85bd0160e11b949350505050565b6040516001600160e01b03199091168152602001610368565b348015610432575f5ffd5b506103e2610441366004613de1565b610b88565b348015610451575f5ffd5b506103e2610460366004613e07565b610bf2565b348015610470575f5ffd5b50600954610354906001600160a01b031681565b34801561048f575f5ffd5b50600b5461049d9060ff1681565b6040519015158152602001610368565b3480156104b8575f5ffd5b506103e26104c7366004613e7f565b610c2d565b3480156104d7575f5ffd5b5047610381565b3480156104e9575f5ffd5b506103e26104f8366004613e96565b610f05565b348015610508575f5ffd5b506005546105199063ffffffff1681565b60405163ffffffff9091168152602001610368565b348015610539575f5ffd5b506103e2610f7d565b34801561054d575f5ffd5b5061056161055c366004613ebd565b610f8f565b6040805161ffff968716815294861660208601529285169284019290925283166060830152909116608082015260a001610368565b3480156105a1575f5ffd5b506103e26105b0366004613e96565b611056565b3480156105c0575f5ffd5b506103e26105cf366004613ed8565b6110cc565b3480156105df575f5ffd5b506103816105ee366004613e7f565b6112d5565b3480156105fe575f5ffd5b5061061261060d366004613ebd565b611686565b6040805161ffff95861681529385166020850152918416918301919091529091166060820152608001610368565b34801561064b575f5ffd5b5060055461066190600160201b900461ffff1681565b60405161ffff9091168152602001610368565b34801561067f575f5ffd5b505f51602061467f5f395f51905f525460ff1661049d565b3480156106a2575f5ffd5b5061038161271081565b3480156106b7575f5ffd5b506001546001600160a01b0316610354565b3480156106d4575f5ffd5b5060095461049d90600160a01b900460ff1681565b3480156106f4575f5ffd5b50610381610703366004613e7f565b6116ee565b348015610713575f5ffd5b506103e2611a72565b348015610727575f5ffd5b506103e2610736366004613f1c565b611a83565b348015610746575f5ffd5b50600d5461075a906001600160401b031681565b6040516001600160401b039091168152602001610368565b34801561077d575f5ffd5b5061038161078c366004613e7f565b5f908152600c602052604090205490565b3480156107a8575f5ffd5b506103e2611ae3565b3480156107bc575f5ffd5b50610354611af3565b3480156107d0575f5ffd5b50600254610354906001600160a01b031681565b3480156107ef575f5ffd5b5061049d6107fe366004613ebd565b611b21565b34801561080e575f5ffd5b506103e261081d366004613e7f565b611e14565b34801561082d575f5ffd5b5061038161083c366004613e7f565b600c6020525f908152604090205481565b348015610858575f5ffd5b506103e2610867366004613f46565b6122c5565b6103e261239a565b34801561087f575f5ffd5b5061038161088e366004613e96565b6123d1565b34801561089e575f5ffd5b50610381600381565b3480156108b2575f5ffd5b506103e26108c1366004613e7f565b612487565b3480156108d1575f5ffd5b506103e26108e0366004613f1c565b6124c3565b3480156108f0575f5ffd5b5061094f6108ff366004613e7f565b60066020525f90815260409020805460018201546002909201546001600160a01b03909116919060ff8082169161010081048216916001600160401b036201000083041691600160501b90041686565b60405161036896959493929190613fcd565b34801561096c575f5ffd5b506103e261097b36600461403a565b61250c565b34801561098b575f5ffd5b506103e261099a366004614092565b612545565b3480156109aa575f5ffd5b506103e26109b9366004613e96565b6126d9565b3480156109c9575f5ffd5b5061049d6109d8366004613e7f565b600a6020525f908152604090205460ff1681565b3480156109f7575f5ffd5b5061038160035481565b348015610a0c575f5ffd5b506103e2610a1b366004613e7f565b612732565b348015610a2b575f5ffd5b50610a3f610a3a366004613e96565b61273b565b604051610368919061411b565b348015610a57575f5ffd5b506103e2610a66366004613e96565b6127a4565b348015610a76575f5ffd5b50610381611f4081565b610a886127de565b6001600160a01b038216610aaf5760405163d92e233d60e01b815260040160405180910390fd5b47811115610ad057604051631c7b597b60e11b815260040160405180910390fd5b5f826001600160a01b0316826040515f6040518083038185875af1925050503d805f8114610b19576040519150601f19603f3d011682016040523d82523d5f602084013e610b1e565b606091505b5050905080610b40576040516312171d8360e31b815260040160405180910390fd5b826001600160a01b03167f41fdd680478135993bc53fb2ffaf9560951b57ef62ff6badd02b61e018b4f17f83604051610b7b91815260200190565b60405180910390a2505050565b610b906127de565b600d80546001600160401b0383811667ffffffffffffffff1983168117909355604080519190921680825260208201939093527f7bb01aa90bfc0fda2ba9e0b5483628c8f9364c779cce4a10552f6dcdeb7dfa17910160405180910390a15050565b6002546001600160a01b03163314610c1d576040516325a3b0bb60e11b815260040160405180910390fd5b610c28838383612810565b505050565b610c35612974565b610c3d6129ab565b5f546040516331a9108f60e11b81526004810183905233916001600160a01b031690636352211e90602401602060405180830381865afa158015610c83573d5f5f3e3d5ffd5b505050506040513d601f19601f82011682018060405250810190610ca7919061412d565b6001600160a01b031614610cce5760405163094db52160e01b815260040160405180910390fd5b5f80546040516346a6223560e11b815260048101849052829182916001600160a01b0390911690638d4c446a906024015f60405180830381865afa158015610d18573d5f5f3e3d5ffd5b505050506040513d5f823e601f3d908101601f19168201604052610d3f91908101906141df565b92509250925080610d635760405163c575c80d60e01b815260040160405180910390fd5b82515f03610d845760405163026253cf60e01b815260040160405180910390fd5b5f5b8351811015610e4c5760015484516001600160a01b03909116906307b8732490869084908110610db857610db86142b3565b602002602001015133868581518110610dd357610dd36142b3565b60209081029190910101516040516001600160e01b031960e086901b1681526001600160a01b03938416600482015292909116602483015260448201526064015f604051808303815f87803b158015610e2a575f5ffd5b505af1158015610e3c573d5f5f3e3d5ffd5b505060019092019150610d869050565b505f54604051631f551a8760e31b8152600481018690526001600160a01b039091169063faa8d438906024015f604051808303815f87803b158015610e8f575f5ffd5b505af1158015610ea1573d5f5f3e3d5ffd5b5050505083336001600160a01b03167f5027db88362f7982ad6710e364a23b83f5c908aa59dcb47904f9fa8a5203830d8585604051610ee1929190614300565b60405180910390a3505050610f0260015f51602061469f5f395f51905f5255565b50565b610f0d6127de565b6001600160a01b038116610f345760405163d92e233d60e01b815260040160405180910390fd5b600180546001600160a01b0319166001600160a01b0383169081179091556040517ffa4a003a95cb18a77c743156dd85a0223663d08d0a0877b6e1a871e535aa2fb9905f90a250565b610f856127de565b610f8d6129ee565b565b5f5f5f5f5f5f60085f886003811115610faa57610faa613fa9565b6003811115610fbb57610fbb613fa9565b815260208101919091526040015f20805461ffff8082169850919250610fe991889162010000900416614341565b815490955061100b9061ffff620100008204811691600160201b900416614341565b815490945061102e9061ffff600160201b8204811691600160301b900416614341565b815490935061104a90600160301b900461ffff16612710614341565b91505091939590929450565b61105e6127de565b6001600160a01b0381166110855760405163d92e233d60e01b815260040160405180910390fd5b5f80546001600160a01b0319166001600160a01b038316908117825560405190917f1ef106513f1df0cdb371590f2865deb0e55b849e1447cf2196e818ffedd5a56e91a250565b5f6110d5612a47565b805490915060ff600160401b82041615906001600160401b03165f811580156110fb5750825b90505f826001600160401b031660011480156111165750303b155b905081158015611124575080155b156111425760405163f92ee8a960e01b815260040160405180910390fd5b845467ffffffffffffffff19166001178555831561116c57845460ff60401b1916600160401b1785555b6001600160a01b0387166111935760405163d92e233d60e01b815260040160405180910390fd5b6001600160a01b0386166111ba5760405163d92e233d60e01b815260040160405180910390fd5b6111c387612a71565b6111cb612a82565b6111d3612a92565b6111db612a92565b5f80546001600160a01b0319166001600160a01b038816908117825560405190917f1ef106513f1df0cdb371590f2865deb0e55b849e1447cf2196e818ffedd5a56e91a2611227612a9a565b6009805460ff60a01b19169055600d805467ffffffffffffffff1916610e10908117909155604080515f815260208101929092527f7bb01aa90bfc0fda2ba9e0b5483628c8f9364c779cce4a10552f6dcdeb7dfa17910160405180910390a183156112cc57845460ff60401b19168555604051600181527fc7f505b2f371ae2175ee4913f4499e1f2633a7b5936321eed1cdaeb6115181d29060200160405180910390a15b50505050505050565b5f6112de612974565b6112e66129ab565b5f546040516331a9108f60e11b81526004810184905233916001600160a01b031690636352211e90602401602060405180830381865afa15801561132c573d5f5f3e3d5ffd5b505050506040513d601f19601f82011682018060405250810190611350919061412d565b6001600160a01b0316146113775760405163094db52160e01b815260040160405180910390fd5b5f80546040516346a6223560e11b8152600481018590526001600160a01b0390911690638d4c446a906024015f60405180830381865afa1580156113bd573d5f5f3e3d5ffd5b505050506040513d5f823e601f3d908101601f191682016040526113e491908101906141df565b9250505080156114075760405163d7747b5960e01b815260040160405180910390fd5b5f838152600a602052604090205460ff1615611436576040516353b913dd60e11b815260040160405180910390fd5b5f80546040516337b33e8f60e01b8152600481018690526001600160a01b03909116906337b33e8f90602401602060405180830381865afa15801561147d573d5f5f3e3d5ffd5b505050506040513d601f19601f820116820180604052508101906114a1919061435b565b90506114ac81612d4f565b6114b46130b0565b92506040518060c00160405280336001600160a01b031681526020018581526020018260038111156114e8576114e8613fa9565b81525f602082018190526001600160401b03421660408301526060909101525f84815260066020908152604091829020835181546001600160a01b0319166001600160a01b03909116178155908301516001808301919091559183015160028201805492939192909160ff199091169083600381111561156a5761156a613fa9565b0217905550606082015160028201805460808501516001600160401b0316620100000269ffffffffffffffff000019931515610100029390931669ffffffffffffffffff0019909116179190911780825560a0840151919060ff60501b1916600160501b8360038111156115e0576115e0613fa9565b021790555050505f848152600a60209081526040808320805460ff19166001908117909155600c8352818420879055338085526007845282852080549283018155855292909320909201859055905185919085907fd2237c8fbf3a4bfd600cc85b0138726bf7c65d81d3404b6f5c40f1bed5edee6690611661908690614376565b60405180910390a4505061168160015f51602061469f5f395f51905f5255565b919050565b5f5f5f5f5f60085f8760038111156116a0576116a0613fa9565b60038111156116b1576116b1613fa9565b815260208101919091526040015f205461ffff8082169862010000830482169850600160201b830482169750600160301b90920416945092505050565b5f6116f76127de565b6116ff6129ab565b5f80546040516331a9108f60e11b8152600481018590526001600160a01b0390911690636352211e90602401602060405180830381865afa158015611746573d5f5f3e3d5ffd5b505050506040513d601f19601f8201168201806040525081019061176a919061412d565b5f80546040516346a6223560e11b81526004810187905292935090916001600160a01b0390911690638d4c446a906024015f60405180830381865afa1580156117b5573d5f5f3e3d5ffd5b505050506040513d5f823e601f3d908101601f191682016040526117dc91908101906141df565b9250505080156117ff5760405163d7747b5960e01b815260040160405180910390fd5b5f848152600a602052604090205460ff161561182e576040516353b913dd60e11b815260040160405180910390fd5b5f80546040516337b33e8f60e01b8152600481018790526001600160a01b03909116906337b33e8f90602401602060405180830381865afa158015611875573d5f5f3e3d5ffd5b505050506040513d601f19601f82011682018060405250810190611899919061435b565b90506118a481612d4f565b6118ac6130b0565b93506040518060c00160405280846001600160a01b031681526020018681526020018260038111156118e0576118e0613fa9565b81525f602082018190526001600160401b03421660408301526060909101525f85815260066020908152604091829020835181546001600160a01b0319166001600160a01b03909116178155908301516001808301919091559183015160028201805492939192909160ff199091169083600381111561196257611962613fa9565b0217905550606082015160028201805460808501516001600160401b0316620100000269ffffffffffffffff000019931515610100029390931669ffffffffffffffffff0019909116179190911780825560a0840151919060ff60501b1916600160501b8360038111156119d8576119d8613fa9565b021790555050505f858152600a60209081526040808320805460ff19166001908117909155600c83528184208890556001600160a01b0387168085526007845282852080549283018155855292909320909201869055905186919086907fd2237c8fbf3a4bfd600cc85b0138726bf7c65d81d3404b6f5c40f1bed5edee6690611a62908690614376565b60405180910390a4505050919050565b611a7a6127de565b610f8d5f6131b5565b611a8b6127de565b60098054821515600160a01b0260ff60a01b199091161790556040517f8277024b9390fa98610c30f82615eb4c55e6d1167f0c80ecdd78427b51470cee90611ad890831515815260200190565b60405180910390a150565b611aeb6127de565b610f8d613225565b7f9016d09d72d40fdae2fd8ceac6b6234c7706214fd39c1cd1e609a0528c199300546001600160a01b031690565b6001545f906001600160a01b0316611b3a57505f919050565b600154604051636880a12760e01b81526001600160a01b0390911690636880a12790611b6a905f9060040161439d565b602060405180830381865afa158015611b85573d5f5f3e3d5ffd5b505050506040513d601f19601f82011682018060405250810190611ba991906143ab565b5f03611bb657505f919050565b60018054604051636880a12760e01b81526001600160a01b0390911691636880a12791611be6919060040161439d565b602060405180830381865afa158015611c01573d5f5f3e3d5ffd5b505050506040513d601f19601f82011682018060405250810190611c2591906143ab565b5f03611c3257505f919050565b600154604051636880a12760e01b81526001600160a01b0390911690636880a12790611c639060029060040161439d565b602060405180830381865afa158015611c7e573d5f5f3e3d5ffd5b505050506040513d601f19601f82011682018060405250810190611ca291906143ab565b5f03611caf57505f919050565b600154604051636880a12760e01b81526001600160a01b0390911690636880a12790611ce09060039060040161439d565b602060405180830381865afa158015611cfb573d5f5f3e3d5ffd5b505050506040513d601f19601f82011682018060405250810190611d1f91906143ab565b5f03611d2c57505f919050565b5f60085f846003811115611d4257611d42613fa9565b6003811115611d5357611d53613fa9565b815260208101919091526040015f2090506003836003811115611d7857611d78613fa9565b148015611d895750805461ffff1615155b15611e0b57600154604051636880a12760e01b81526001600160a01b0390911690636880a12790611dbe90600490810161439d565b602060405180830381865afa158015611dd9573d5f5f3e3d5ffd5b505050506040513d601f19601f82011682018060405250810190611dfd91906143ab565b5f03611e0b57505f92915050565b50600192915050565b611e1c612974565b611e246129ab565b600954600160a01b900460ff16611e4e57604051633dd34edd60e11b815260040160405180910390fd5b5f546040516331a9108f60e11b81526004810183905233916001600160a01b031690636352211e90602401602060405180830381865afa158015611e94573d5f5f3e3d5ffd5b505050506040513d601f19601f82011682018060405250810190611eb8919061412d565b6001600160a01b031614611edf5760405163094db52160e01b815260040160405180910390fd5b5f80546040516346a6223560e11b815260048101849052829182916001600160a01b0390911690638d4c446a906024015f60405180830381865afa158015611f29573d5f5f3e3d5ffd5b505050506040513d5f823e601f3d908101601f19168201604052611f5091908101906141df565b92509250925080611f745760405163c575c80d60e01b815260040160405180910390fd5b82515f03611f955760405163026253cf60e01b815260040160405180910390fd5b5f805b84518110156120c35760015485515f916001600160a01b031690638504817990889085908110611fca57611fca6142b3565b60200260200101516040518263ffffffff1660e01b8152600401611ffd91906001600160a01b0391909116815260200190565b602060405180830381865afa158015612018573d5f5f3e3d5ffd5b505050506040513d601f19601f8201168201806040525081019061203c91906143ab565b9050805f0361209157858281518110612057576120576142b3565b6020026020010151604051631c12ebad60e31b815260040161208891906001600160a01b0391909116815260200190565b60405180910390fd5b5f6127106120a1611f40846143c2565b6120ab91906143ed565b90506120b78185614400565b93505050600101611f98565b50804710156120e557604051631c7b597b60e11b815260040160405180910390fd5b5f5b84518110156121a55760015485516001600160a01b03909116906310f392f190879084908110612119576121196142b3565b6020026020010151868481518110612133576121336142b3565b60200260200101516040518363ffffffff1660e01b815260040161216c9291906001600160a01b03929092168252602082015260400190565b5f604051808303815f87803b158015612183575f5ffd5b505af1158015612195573d5f5f3e3d5ffd5b5050600190920191506120e79050565b505f54604051631f551a8760e31b8152600481018790526001600160a01b039091169063faa8d438906024015f604051808303815f87803b1580156121e8575f5ffd5b505af11580156121fa573d5f5f3e3d5ffd5b50506040515f925033915083908381818185875af1925050503d805f811461223d576040519150601f19603f3d011682016040523d82523d5f602084013e612242565b606091505b5050905080612264576040516312171d8360e31b815260040160405180910390fd5b85336001600160a01b03167f5ef445537ebccacf6667faf9ad034ba3db15cac81b666f0ec024e8a41cc023008488886040516122a293929190614413565b60405180910390a35050505050610f0260015f51602061469f5f395f51905f5255565b6122cd6127de565b6001600160a01b0385166122f45760405163d92e233d60e01b815260040160405180910390fd5b600280546001600160a01b0319166001600160a01b038716908117909155600385905560048490556005805463ffffffff851665ffffffffffff199091168117600160201b61ffff86169081029190911790925560408051888152602081018890529081019190915260608101919091527f01f5f200e0377eaf9ccfa84bf8ec28b6ca9a8f44bf569d184eb5f56d7d35c705906080015b60405180910390a25050505050565b60405134815233907fda1785fe1dec267c363b06ae3e02c3e086123f9d611399f7a1cc98492518372e9060200160405180910390a2565b6001545f906001600160a01b03166123ea57505f919050565b600154604051638504817960e01b81526001600160a01b0384811660048301525f921690638504817990602401602060405180830381865afa158015612432573d5f5f3e3d5ffd5b505050506040513d601f19601f8201168201806040525081019061245691906143ab565b9050805f0361246757505f92915050565b612710612476611f40836143c2565b61248091906143ed565b9392505050565b5f818152600c6020526040812054908190036124b657604051633c22193360e01b815260040160405180910390fd5b6124bf8161326d565b5050565b6124cb6127de565b600b805460ff19168215159081179091556040519081527fa99b7b15123d19348f0080e3987f86cb4ae7f0298d73a6f387d8dbf302afdab790602001611ad8565b6125146127de565b61251f60038561346f565b61252a60028461346f565b61253560018361346f565b61253f5f8261346f565b50505050565b61254d6127de565b8261ffff168461ffff16118061256a57508161ffff168361ffff16115b8061257c57508061ffff168261ffff16115b8061258c57506127108161ffff16115b156125aa57604051631c9c038760e21b815260040160405180910390fd5b60405180608001604052808561ffff1681526020018461ffff1681526020018361ffff1681526020018261ffff1681525060085f8760038111156125f0576125f0613fa9565b600381111561260157612601613fa9565b815260208082019290925260409081015f2083518154938501519285015160609095015161ffff908116600160301b0261ffff60301b19968216600160201b029690961667ffffffff0000000019948216620100000263ffffffff19909616919092161793909317919091169190911791909117905584600381111561268957612689613fa9565b6040805161ffff808816825280871660208301528086169282019290925290831660608201527ff5370cf9c54a2d7723e4bf55bca0c299d4e06c2dd0e9be8eb841a3e0780cc63f9060800161238b565b6126e16127de565b600980546001600160a01b038381166001600160a01b0319831681179093556040519116919082907f07cc4e710541d72b0e82cca8cc72177e01d6593dab3f394426edf623e7f582c1905f90a35050565b610f028161326d565b6001600160a01b0381165f9081526007602090815260409182902080548351818402810184019094528084526060939283018282801561279857602002820191905f5260205f20905b815481526020019060010190808311612784575b50505050509050919050565b6127ac6127de565b6001600160a01b0381166127d557604051631e4fbdf760e01b81525f6004820152602401612088565b610f02816131b5565b336127e7611af3565b6001600160a01b031614610f8d5760405163118cdaa760e01b8152336004820152602401612088565b5f83815260066020526040902080546001600160a01b031661284557604051632589d98f60e11b815260040160405180910390fd5b5f6002820154600160501b900460ff16600381111561286657612866613fa9565b146128715750505050565b5f5f5f61287f848787613617565b9250925092508215612900576002840180546aff0000000000000000ff0019166a0100000000000000000100179055600184015484546040516001600160a01b039091169089907f9c45ce386f33b07d91133f49542b7df26b440397c213d4e333ecb8c9fb98e9d6906128f3908790614447565b60405180910390a461296a565b6002840180546aff0000000000000000ff001916600360501b179055600184015484546040516001600160a01b039091169089907fab7bb9f253cbbcc9e7eb54ce7db5bcdfb7d0b5919c8956d446ea06886464d7b5906129619086906144a5565b60405180910390a45b6112cc878561387a565b5f51602061469f5f395f51905f528054600119016129a557604051633ee5aeb560e01b815260040160405180910390fd5b60029055565b5f51602061467f5f395f51905f525460ff1615610f8d5760405163d93c066560e01b815260040160405180910390fd5b60015f51602061469f5f395f51905f5255565b6129f66138ca565b5f51602061467f5f395f51905f52805460ff191681557f5db9ee0a495bf2e6ff9c91a7834c1ba4fdd244a5e8aa4e537bd38aeae4b073aa335b6040516001600160a01b039091168152602001611ad8565b5f807ff0c57e16840df040f15088dc2f81fe391c3923bec73e23a9662efc9c229c6a005b92915050565b612a796138f9565b610f028161391e565b612a8a6138f9565b610f8d613926565b610f8d6138f9565b60408051608080820183526032825260fa60208084019182526103b6848601908152610b86606080870191825260035f908152600880865297517f625b35f5e76f098dd7c3a05b10e2e5e78a4a01228d60c3b143426cdf36d26455805497519551945161ffff908116600160301b0261ffff60301b19968216600160201b029690961667ffffffff0000000019978216620100000263ffffffff19909a16919093161797909717949094169390931791909117909355855193840186528084526064918401919091526102589483019490945261083490820152916002815260208082019290925260409081015f90812084518154868601518786015160609889015161ffff908116600160301b0261ffff60301b19928216600160201b029290921667ffffffff0000000019938216620100000263ffffffff199095169190951617929092171691909117179055815160808101835281815260329381019390935261015e91830191909152610546928201929092529060089060016003811115612c2857612c28613fa9565b815260208082019290925260409081015f90812084518154868601518786015160609889015161ffff908116600160301b0261ffff60301b19928216600160201b029290921667ffffffff0000000019938216620100000263ffffffff199095169190951617929092171691909117179055815160808101835281815260149381019390935260789183019190915261026c9282019290925290600890806003811115612cd757612cd7613fa9565b815260208082019290925260409081015f2083518154938501519285015160609095015161ffff908116600160301b0261ffff60301b19968216600160201b029690961667ffffffff0000000019948216620100000263ffffffff199096169190921617939093179190911691909117919091179055565b6001546001600160a01b0316612d7857604051633c67586360e01b815260040160405180910390fd5b600154604051636880a12760e01b81526001600160a01b0390911690636880a12790612da8905f9060040161439d565b602060405180830381865afa158015612dc3573d5f5f3e3d5ffd5b505050506040513d601f19601f82011682018060405250810190612de791906143ab565b5f03612e08575f60405163c605579d60e01b8152600401612088919061439d565b60018054604051636880a12760e01b81526001600160a01b0390911691636880a12791612e38919060040161439d565b602060405180830381865afa158015612e53573d5f5f3e3d5ffd5b505050506040513d601f19601f82011682018060405250810190612e7791906143ab565b5f03612e9957600160405163c605579d60e01b8152600401612088919061439d565b600154604051636880a12760e01b81526001600160a01b0390911690636880a12790612eca9060029060040161439d565b602060405180830381865afa158015612ee5573d5f5f3e3d5ffd5b505050506040513d601f19601f82011682018060405250810190612f0991906143ab565b5f03612f2b57600260405163c605579d60e01b8152600401612088919061439d565b600154604051636880a12760e01b81526001600160a01b0390911690636880a12790612f5c9060039060040161439d565b602060405180830381865afa158015612f77573d5f5f3e3d5ffd5b505050506040513d601f19601f82011682018060405250810190612f9b91906143ab565b5f03612fbd57600360405163c605579d60e01b8152600401612088919061439d565b5f60085f836003811115612fd357612fd3613fa9565b6003811115612fe457612fe4613fa9565b815260208101919091526040015f209050600382600381111561300957613009613fa9565b14801561301a5750805461ffff1615155b156124bf57600154604051636880a12760e01b81526001600160a01b0390911690636880a1279061304f90600490810161439d565b602060405180830381865afa15801561306a573d5f5f3e3d5ffd5b505050506040513d601f19601f8201168201806040525081019061308e91906143ab565b5f036124bf57600460405163c605579d60e01b8152600401612088919061439d565b6002545f906001600160a01b03166130db5760405163fdfe534b60e01b815260040160405180910390fd5b6040805160208101909152600b5460ff161581525f906130fa9061392e565b6040805160c08101825260048054825260038054602084015260055461ffff600160201b8204168486015263ffffffff166060840152608083015260a082018490526002549251634d8e1c2f60e11b815293945090926001600160a01b0390921691639b1c385e9161316e918591016144b9565b6020604051808303815f875af115801561318a573d5f5f3e3d5ffd5b505050506040513d601f19601f820116820180604052508101906131ae91906143ab565b9250505090565b7f9016d09d72d40fdae2fd8ceac6b6234c7706214fd39c1cd1e609a0528c19930080546001600160a01b031981166001600160a01b03848116918217845560405192169182907f8be0079c531659141344cd1fd0a4f28419497f9722a3daafe3b4186f6b6457e0905f90a3505050565b61322d6129ab565b5f51602061467f5f395f51905f52805460ff191660011781557f62e78cea01bee320cd4e420270b5ea74000d11b0c9f74754ebdbfc544b05a25833612a2f565b5f81815260066020526040902080546001600160a01b03166132a257604051632589d98f60e11b815260040160405180910390fd5b5f6002820154600160501b900460ff1660038111156132c3576132c3613fa9565b146132e15760405163f41814a760e01b815260040160405180910390fd5b60018101545f80546040516331a9108f60e11b8152600481018490526001600160a01b0390911690636352211e90602401602060405180830381865afa15801561332d573d5f5f3e3d5ffd5b505050506040513d601f19601f82011682018060405250810190613351919061412d565b905061335b611af3565b6001600160a01b0316336001600160a01b0316141580156133855750336001600160a01b03821614155b156133a35760405163ea8e4eb560e01b815260040160405180910390fd5b6133ab611af3565b6001600160a01b0316336001600160a01b03161461340757600d5460028401546133e7916001600160401b039081169162010000900416614400565b42101561340757604051636c5b777b60e11b815260040160405180910390fd5b60028301805460ff60501b1916600160511b179055613426848461387a565b825460405133815283916001600160a01b03169086907f9416736f51d0e865b2efb1d6aa02e2491691c459ec373b3b49d0eefb52a599949060200160405180910390a450505050565b61347f604082016020830161453c565b61ffff16613490602083018361453c565b61ffff1611806134c557506134ab606082016040830161453c565b61ffff166134bf604083016020840161453c565b61ffff16115b806134f557506134db608082016060830161453c565b61ffff166134ef606083016040840161453c565b61ffff16115b80613514575061271061350e608083016060840161453c565b61ffff16115b1561353257604051631c9c038760e21b815260040160405180910390fd5b8060085f84600381111561354857613548613fa9565b600381111561355957613559613fa9565b81526020019081526020015f2081816135729190614557565b90505081600381111561358757613587613fa9565b7ff5370cf9c54a2d7723e4bf55bca0c299d4e06c2dd0e9be8eb841a3e0780cc63f6135b5602084018461453c565b6135c5604085016020860161453c565b6135d5606086016040870161453c565b6135e5608087016060880161453c565b6040805161ffff9586168152938516602085015291841683830152909216606082015290519081900360800190a25050565b5f613620613c5a565b604080516003808252608082019092525f91829190602082016060803683375050604080516003808252608082019092529293505f929150602082016060803683370190505090505f5b60038110156137e4575f888883818110613686576136866142b3565b60028d01546020909102929092013592505f916136a7915060ff168361399f565b60015460405163b1af52dd60e01b81529192506001600160a01b03169063b1af52dd906136de908490601087901c906004016145fd565b60408051808303815f875af1925050508015613717575060408051601f3d908101601f1916820190925261371491810190614618565b60015b61373857613726858585613a82565b505f9650600194506138719350505050565b6040518060600160405280836001600160a01b0316815260200182815260200184600481111561376a5761376a613fa9565b905289866003811061377e5761377e6142b3565b602002018190525081878681518110613799576137996142b3565b60200260200101906001600160a01b031690816001600160a01b031681525050808686815181106137cc576137cc6142b3565b6020026020010181815250505050505060010161366a565b505f546001890154604051630c41941560e11b81526001600160a01b0390921691631883282a9161381b9186908690600401614413565b5f604051808303815f87803b158015613832575f5ffd5b505af1925050508015613843575060015b6138625761385382826003613a82565b505f9350600291506138719050565b50600193505f91506138719050565b93509350939050565b60018101545f818152600a60209081526040808320805460ff19169055600c9091529020548390036138b5575f818152600c60205260408120555b8154610c28906001600160a01b031684613b87565b5f51602061467f5f395f51905f525460ff16610f8d57604051638dfc202b60e01b815260040160405180910390fd5b613901613c41565b610f8d57604051631afcd79f60e31b815260040160405180910390fd5b6127ac6138f9565b6129db6138f9565b60607f92fd13387c7fe7befbc38d303d6468778fb9731bc4583f17d92989c6fcfdeaaa8260405160240161396791511515815260200190565b60408051601f198184030181529190526020810180516001600160e01b03166001600160e01b03199093169290921790915292915050565b5f806139ad61271084614644565b90505f60085f8660038111156139c5576139c5613fa9565b60038111156139d6576139d6613fa9565b815260208101919091526040015f20905060038560038111156139fb576139fb613fa9565b148015613a0c5750805461ffff1682105b15613a1c57600492505050612a6b565b805462010000900461ffff16821015613a3a57600392505050612a6b565b8054600160201b900461ffff16821015613a5957600292505050612a6b565b8054600160301b900461ffff16821015613a7857600192505050612a6b565b505f949350505050565b5f5b8181101561253f575f848281518110613a9f57613a9f6142b3565b602002602001015190505f848381518110613abc57613abc6142b3565b602002602001015190505f6001600160a01b0316826001600160a01b031603613ae6575050613b7f565b6001546040516310f392f160e01b81526001600160a01b03848116600483015260248201849052909116906310f392f1906044015f604051808303815f87803b158015613b31575f5ffd5b505af1925050508015613b42575060015b613b7c5760405181906001600160a01b038416907fa58b35b956a692d3a65f752dc904012867b3ff3309e82fd7e9a42e55f01a5ff7905f90a35b50505b600101613a84565b6001600160a01b0382165f908152600760205260408120905b815481101561253f5782828281548110613bbc57613bbc6142b3565b905f5260205f20015403613c395781548290613bda90600190614657565b81548110613bea57613bea6142b3565b905f5260205f200154828281548110613c0557613c056142b3565b905f5260205f20018190555081805480613c2157613c2161466a565b600190038181905f5260205f20015f9055905561253f565b600101613ba0565b5f613c4a612a47565b54600160401b900460ff16919050565b60405180606001604052806003905b613c89604080516060810182525f80825260208201819052909182015290565b815260200190600190039081613c695790505090565b6001600160a01b0381168114610f02575f5ffd5b5f5f60408385031215613cc4575f5ffd5b8235613ccf81613c9f565b946020939093013593505050565b634e487b7160e01b5f52604160045260245ffd5b604051601f8201601f191681016001600160401b0381118282101715613d1957613d19613cdd565b604052919050565b5f5f5f5f60808587031215613d34575f5ffd5b8435613d3f81613c9f565b93506020850135613d4f81613c9f565b92506040850135915060608501356001600160401b03811115613d70575f5ffd5b8501601f81018713613d80575f5ffd5b80356001600160401b03811115613d9957613d99613cdd565b613dac601f8201601f1916602001613cf1565b818152886020838501011115613dc0575f5ffd5b816020840160208301375f6020838301015280935050505092959194509250565b5f60208284031215613df1575f5ffd5b81356001600160401b0381168114612480575f5ffd5b5f5f5f60408486031215613e19575f5ffd5b8335925060208401356001600160401b03811115613e35575f5ffd5b8401601f81018613613e45575f5ffd5b80356001600160401b03811115613e5a575f5ffd5b8660208260051b8401011115613e6e575f5ffd5b939660209190910195509293505050565b5f60208284031215613e8f575f5ffd5b5035919050565b5f60208284031215613ea6575f5ffd5b813561248081613c9f565b60048110610f02575f5ffd5b5f60208284031215613ecd575f5ffd5b813561248081613eb1565b5f5f60408385031215613ee9575f5ffd5b8235613ef481613c9f565b91506020830135613f0481613c9f565b809150509250929050565b8015158114610f02575f5ffd5b5f60208284031215613f2c575f5ffd5b813561248081613f0f565b61ffff81168114610f02575f5ffd5b5f5f5f5f5f60a08688031215613f5a575f5ffd5b8535613f6581613c9f565b94506020860135935060408601359250606086013563ffffffff81168114613f8b575f5ffd5b91506080860135613f9b81613f37565b809150509295509295909350565b634e487b7160e01b5f52602160045260245ffd5b60048110610f0257610f02613fa9565b6001600160a01b03871681526020810186905260c08101613fed86613fbd565b85604083015284151560608301526001600160401b038416608083015261401383613fbd565b8260a0830152979650505050505050565b5f60808284031215614034575f5ffd5b50919050565b5f5f5f5f610200858703121561404e575f5ffd5b6140588686614024565b93506140678660808701614024565b9250614077866101008701614024565b9150614087866101808701614024565b905092959194509250565b5f5f5f5f5f60a086880312156140a6575f5ffd5b85356140b181613eb1565b945060208601356140c181613f37565b935060408601356140d181613f37565b92506060860135613f8b81613f37565b5f8151808452602084019350602083015f5b828110156141115781518652602095860195909101906001016140f3565b5093949350505050565b602081525f61248060208301846140e1565b5f6020828403121561413d575f5ffd5b815161248081613c9f565b5f6001600160401b0382111561416057614160613cdd565b5060051b60200190565b5f82601f830112614179575f5ffd5b815161418c61418782614148565b613cf1565b8082825260208201915060208360051b8601019250858311156141ad575f5ffd5b602085015b838110156141ca5780518352602092830192016141b2565b5095945050505050565b805161168181613f0f565b5f5f5f606084860312156141f1575f5ffd5b83516001600160401b03811115614206575f5ffd5b8401601f81018613614216575f5ffd5b805161422461418782614148565b8082825260208201915060208360051b850101925088831115614245575f5ffd5b6020840193505b8284101561427057835161425f81613c9f565b82526020938401939091019061424c565b8096505050505060208401516001600160401b0381111561428f575f5ffd5b61429b8682870161416a565b9250506142aa604085016141d4565b90509250925092565b634e487b7160e01b5f52603260045260245ffd5b5f8151808452602084019350602083015f5b828110156141115781516001600160a01b03168652602095860195909101906001016142d9565b604081525f61431260408301856142c7565b828103602084015261432481856140e1565b95945050505050565b634e487b7160e01b5f52601160045260245ffd5b61ffff8281168282160390811115612a6b57612a6b61432d565b5f6020828403121561436b575f5ffd5b815161248081613eb1565b6020810161438383613fbd565b91905290565b6005811061439957614399613fa9565b9052565b60208101612a6b8284614389565b5f602082840312156143bb575f5ffd5b5051919050565b8082028115828204841417612a6b57612a6b61432d565b634e487b7160e01b5f52601260045260245ffd5b5f826143fb576143fb6143d9565b500490565b80820180821115612a6b57612a6b61432d565b838152606060208201525f61442b60608301856142c7565b828103604084015261443d81856140e1565b9695505050505050565b610120810181835f5b600381101561449c57815180516001600160a01b03168452602080820151908501526040908101519061448590850182614389565b506060929092019160209190910190600101614450565b50505092915050565b602081016003831061438357614383613fa9565b60208152815160208201526020820151604082015261ffff604083015116606082015263ffffffff606083015116608082015263ffffffff60808301511660a08201525f60a083015160c08084015280518060e0850152806020830161010086015e5f6101008286010152610100601f19601f8301168501019250505092915050565b5f6020828403121561454c575f5ffd5b813561248081613f37565b813561456281613f37565b61ffff8116905081548161ffff198216178355602084013561458381613f37565b63ffff00008160101b169050808363ffffffff1984161717845560408501356145ab81613f37565b65ffff000000008160201b168465ffffffffffff198516178317178555505050505f60608301356145db81613f37565b825461ffff60301b191660309190911b67ffff00000000000016179091555050565b6040810161460b8285614389565b8260208301529392505050565b5f5f60408385031215614629575f5ffd5b825161463481613c9f565b6020939093015192949293505050565b5f82614652576146526143d9565b500690565b81810381811115612a6b57612a6b61432d565b634e487b7160e01b5f52603160045260245ffdfecd5ed15c6e187e77e9aee88184c21f4f2182ab5827cb3b7e07fbedcd63f033009b779b17422d0df92223018b32b4d1fa46e071723d6817e2486d003becc55f00a2646970667358221220c8f3ec14750e1cb5da525171ed0e26acbf9ca545f71b289e2e2d4604589b265964736f6c634300081e0033",
  "linkReferences": {},
  "deployedLinkReferences": {},
  "immutableReferences": {},
  "inputSourceName": "project/contracts/PackManager.sol",
  "buildInfoId": "solc-0_8_30-7d7d035a95d953f8021c4fca999efad9aa10cd2d"
}