{
  "_format": "hh3-artifact-1",
  "contractName": "NftPool",
  "sourceName": "contracts/NftPool.sol",
  "abi": [
    {
      "inputs": [],
      "stateMutability": "nonpayable",
      "type": "constructor"
    },
    {
      "inputs": [],
      "name": "AccessControlBadConfirmation",
      "type": "error"
    },
    {
      "inputs": [
        {
          "internalType": "address",
          "name": "account",
          "type": "address"
        },
        {
          "internalType": "bytes32",
          "name": "neededRole",
          "type": "bytes32"
        }
      ],
      "name": "AccessControlUnauthorizedAccount",
      "type": "error"
    },
    {
      "inputs": [],
      "name": "AlreadyTracked",
      "type": "error"
    },
    {
      "inputs": [],
      "name": "ArrayLengthMismatch",
      "type": "error"
    },
    {
      "inputs": [],
      "name": "CollectionNotAllowed",
      "type": "error"
    },
    {
      "inputs": [],
      "name": "FloorPriceNotSet",
      "type": "error"
    },
    {
      "inputs": [],
      "name": "IndexOutOfBounds",
      "type": "error"
    },
    {
      "inputs": [],
      "name": "InvalidInitialization",
      "type": "error"
    },
    {
      "inputs": [],
      "name": "InvalidPriceRange",
      "type": "error"
    },
    {
      "inputs": [
        {
          "internalType": "enum NftPool.PoolLevel",
          "name": "level",
          "type": "uint8"
        }
      ],
      "name": "LevelEmpty",
      "type": "error"
    },
    {
      "inputs": [],
      "name": "NotInPool",
      "type": "error"
    },
    {
      "inputs": [],
      "name": "NotInitializing",
      "type": "error"
    },
    {
      "inputs": [
        {
          "internalType": "address",
          "name": "owner",
          "type": "address"
        }
      ],
      "name": "OwnableInvalidOwner",
      "type": "error"
    },
    {
      "inputs": [
        {
          "internalType": "address",
          "name": "account",
          "type": "address"
        }
      ],
      "name": "OwnableUnauthorizedAccount",
      "type": "error"
    },
    {
      "inputs": [],
      "name": "ZeroAddress",
      "type": "error"
    },
    {
      "anonymous": false,
      "inputs": [
        {
          "indexed": true,
          "internalType": "address",
          "name": "collection",
          "type": "address"
        },
        {
          "indexed": false,
          "internalType": "bool",
          "name": "allowed",
          "type": "bool"
        }
      ],
      "name": "CollectionAllowedUpdated",
      "type": "event"
    },
    {
      "anonymous": false,
      "inputs": [
        {
          "indexed": true,
          "internalType": "address",
          "name": "collection",
          "type": "address"
        },
        {
          "indexed": false,
          "internalType": "bool",
          "name": "allowed",
          "type": "bool"
        },
        {
          "indexed": false,
          "internalType": "uint256",
          "name": "floorPrice",
          "type": "uint256"
        }
      ],
      "name": "CollectionConfigured",
      "type": "event"
    },
    {
      "anonymous": false,
      "inputs": [
        {
          "indexed": true,
          "internalType": "address",
          "name": "collection",
          "type": "address"
        },
        {
          "indexed": false,
          "internalType": "uint256",
          "name": "oldPrice",
          "type": "uint256"
        },
        {
          "indexed": false,
          "internalType": "uint256",
          "name": "newPrice",
          "type": "uint256"
        }
      ],
      "name": "CollectionFloorPriceUpdated",
      "type": "event"
    },
    {
      "anonymous": false,
      "inputs": [
        {
          "indexed": true,
          "internalType": "address",
          "name": "collection",
          "type": "address"
        },
        {
          "indexed": true,
          "internalType": "uint256",
          "name": "tokenId",
          "type": "uint256"
        },
        {
          "indexed": true,
          "internalType": "enum NftPool.PoolLevel",
          "name": "poolLevel",
          "type": "uint8"
        }
      ],
      "name": "Deposited",
      "type": "event"
    },
    {
      "anonymous": false,
      "inputs": [
        {
          "indexed": false,
          "internalType": "uint64",
          "name": "version",
          "type": "uint64"
        }
      ],
      "name": "Initialized",
      "type": "event"
    },
    {
      "anonymous": false,
      "inputs": [
        {
          "indexed": true,
          "internalType": "address",
          "name": "previousOwner",
          "type": "address"
        },
        {
          "indexed": true,
          "internalType": "address",
          "name": "newOwner",
          "type": "address"
        }
      ],
      "name": "OwnershipTransferred",
      "type": "event"
    },
    {
      "anonymous": false,
      "inputs": [
        {
          "indexed": true,
          "internalType": "enum NftPool.PoolLevel",
          "name": "poolLevel",
          "type": "uint8"
        },
        {
          "indexed": false,
          "internalType": "uint256",
          "name": "lowPrice",
          "type": "uint256"
        },
        {
          "indexed": false,
          "internalType": "uint256",
          "name": "highPrice",
          "type": "uint256"
        }
      ],
      "name": "PoolInfoUpdated",
      "type": "event"
    },
    {
      "anonymous": false,
      "inputs": [
        {
          "indexed": true,
          "internalType": "address",
          "name": "to",
          "type": "address"
        },
        {
          "indexed": true,
          "internalType": "address",
          "name": "collection",
          "type": "address"
        },
        {
          "indexed": true,
          "internalType": "uint256",
          "name": "tokenId",
          "type": "uint256"
        }
      ],
      "name": "RescuedNft",
      "type": "event"
    },
    {
      "anonymous": false,
      "inputs": [
        {
          "indexed": true,
          "internalType": "bytes32",
          "name": "role",
          "type": "bytes32"
        },
        {
          "indexed": true,
          "internalType": "bytes32",
          "name": "previousAdminRole",
          "type": "bytes32"
        },
        {
          "indexed": true,
          "internalType": "bytes32",
          "name": "newAdminRole",
          "type": "bytes32"
        }
      ],
      "name": "RoleAdminChanged",
      "type": "event"
    },
    {
      "anonymous": false,
      "inputs": [
        {
          "indexed": true,
          "internalType": "bytes32",
          "name": "role",
          "type": "bytes32"
        },
        {
          "indexed": true,
          "internalType": "address",
          "name": "account",
          "type": "address"
        },
        {
          "indexed": true,
          "internalType": "address",
          "name": "sender",
          "type": "address"
        }
      ],
      "name": "RoleGranted",
      "type": "event"
    },
    {
      "anonymous": false,
      "inputs": [
        {
          "indexed": true,
          "internalType": "bytes32",
          "name": "role",
          "type": "bytes32"
        },
        {
          "indexed": true,
          "internalType": "address",
          "name": "account",
          "type": "address"
        },
        {
          "indexed": true,
          "internalType": "address",
          "name": "sender",
          "type": "address"
        }
      ],
      "name": "RoleRevoked",
      "type": "event"
    },
    {
      "anonymous": false,
      "inputs": [
        {
          "indexed": true,
          "internalType": "address",
          "name": "to",
          "type": "address"
        },
        {
          "indexed": true,
          "internalType": "address",
          "name": "collection",
          "type": "address"
        },
        {
          "indexed": true,
          "internalType": "uint256",
          "name": "tokenId",
          "type": "uint256"
        },
        {
          "indexed": false,
          "internalType": "enum NftPool.PoolLevel",
          "name": "poolLevel",
          "type": "uint8"
        }
      ],
      "name": "Withdrawn",
      "type": "event"
    },
    {
      "inputs": [],
      "name": "DEFAULT_ADMIN_ROLE",
      "outputs": [
        {
          "internalType": "bytes32",
          "name": "",
          "type": "bytes32"
        }
      ],
      "stateMutability": "view",
      "type": "function"
    },
    {
      "inputs": [],
      "name": "POOL_MANAGER_ROLE",
      "outputs": [
        {
          "internalType": "bytes32",
          "name": "",
          "type": "bytes32"
        }
      ],
      "stateMutability": "view",
      "type": "function"
    },
    {
      "inputs": [
        {
          "internalType": "address",
          "name": "collection",
          "type": "address"
        },
        {
          "internalType": "uint256",
          "name": "tokenId",
          "type": "uint256"
        }
      ],
      "name": "addLockedNft",
      "outputs": [],
      "stateMutability": "nonpayable",
      "type": "function"
    },
    {
      "inputs": [
        {
          "internalType": "address",
          "name": "collection",
          "type": "address"
        },
        {
          "internalType": "bool",
          "name": "allowed",
          "type": "bool"
        },
        {
          "internalType": "uint256",
          "name": "floorPrice",
          "type": "uint256"
        }
      ],
      "name": "configureCollection",
      "outputs": [],
      "stateMutability": "nonpayable",
      "type": "function"
    },
    {
      "inputs": [
        {
          "internalType": "address[]",
          "name": "collections",
          "type": "address[]"
        },
        {
          "internalType": "bool[]",
          "name": "allowedList",
          "type": "bool[]"
        },
        {
          "internalType": "uint256[]",
          "name": "floorPrices",
          "type": "uint256[]"
        }
      ],
      "name": "configureCollections",
      "outputs": [],
      "stateMutability": "nonpayable",
      "type": "function"
    },
    {
      "inputs": [
        {
          "internalType": "address",
          "name": "collection",
          "type": "address"
        },
        {
          "internalType": "uint256",
          "name": "tokenId",
          "type": "uint256"
        }
      ],
      "name": "deposit",
      "outputs": [],
      "stateMutability": "nonpayable",
      "type": "function"
    },
    {
      "inputs": [
        {
          "internalType": "address",
          "name": "collection",
          "type": "address"
        }
      ],
      "name": "getCollectionFloorPrice",
      "outputs": [
        {
          "internalType": "uint256",
          "name": "",
          "type": "uint256"
        }
      ],
      "stateMutability": "view",
      "type": "function"
    },
    {
      "inputs": [
        {
          "internalType": "address",
          "name": "collection",
          "type": "address"
        }
      ],
      "name": "getCollectionInfo",
      "outputs": [
        {
          "internalType": "bool",
          "name": "allowed",
          "type": "bool"
        },
        {
          "internalType": "uint256",
          "name": "floorPrice",
          "type": "uint256"
        },
        {
          "internalType": "enum NftPool.PoolLevel",
          "name": "poolLevel",
          "type": "uint8"
        }
      ],
      "stateMutability": "view",
      "type": "function"
    },
    {
      "inputs": [
        {
          "internalType": "address",
          "name": "collection",
          "type": "address"
        }
      ],
      "name": "getCollectionPoolLevel",
      "outputs": [
        {
          "internalType": "enum NftPool.PoolLevel",
          "name": "",
          "type": "uint8"
        }
      ],
      "stateMutability": "view",
      "type": "function"
    },
    {
      "inputs": [
        {
          "internalType": "address",
          "name": "collection",
          "type": "address"
        },
        {
          "internalType": "uint256",
          "name": "tokenId",
          "type": "uint256"
        }
      ],
      "name": "getNftPoolLevel",
      "outputs": [
        {
          "internalType": "enum NftPool.PoolLevel",
          "name": "",
          "type": "uint8"
        }
      ],
      "stateMutability": "view",
      "type": "function"
    },
    {
      "inputs": [
        {
          "internalType": "enum NftPool.PoolLevel",
          "name": "level",
          "type": "uint8"
        }
      ],
      "name": "getPoolCollections",
      "outputs": [
        {
          "internalType": "address[]",
          "name": "",
          "type": "address[]"
        }
      ],
      "stateMutability": "view",
      "type": "function"
    },
    {
      "inputs": [
        {
          "internalType": "enum NftPool.PoolLevel",
          "name": "level",
          "type": "uint8"
        }
      ],
      "name": "getPoolInfo",
      "outputs": [
        {
          "internalType": "uint256",
          "name": "lowPrice",
          "type": "uint256"
        },
        {
          "internalType": "uint256",
          "name": "highPrice",
          "type": "uint256"
        }
      ],
      "stateMutability": "view",
      "type": "function"
    },
    {
      "inputs": [
        {
          "internalType": "enum NftPool.PoolLevel",
          "name": "level",
          "type": "uint8"
        },
        {
          "internalType": "uint256",
          "name": "index",
          "type": "uint256"
        }
      ],
      "name": "getPoolLevelNftAt",
      "outputs": [
        {
          "internalType": "address",
          "name": "collection",
          "type": "address"
        },
        {
          "internalType": "uint256",
          "name": "tokenId",
          "type": "uint256"
        }
      ],
      "stateMutability": "view",
      "type": "function"
    },
    {
      "inputs": [
        {
          "internalType": "enum NftPool.PoolLevel",
          "name": "level",
          "type": "uint8"
        }
      ],
      "name": "getPoolLevelSize",
      "outputs": [
        {
          "internalType": "uint256",
          "name": "",
          "type": "uint256"
        }
      ],
      "stateMutability": "view",
      "type": "function"
    },
    {
      "inputs": [
        {
          "internalType": "bytes32",
          "name": "role",
          "type": "bytes32"
        }
      ],
      "name": "getRoleAdmin",
      "outputs": [
        {
          "internalType": "bytes32",
          "name": "",
          "type": "bytes32"
        }
      ],
      "stateMutability": "view",
      "type": "function"
    },
    {
      "inputs": [
        {
          "internalType": "bytes32",
          "name": "role",
          "type": "bytes32"
        },
        {
          "internalType": "address",
          "name": "account",
          "type": "address"
        }
      ],
      "name": "grantRole",
      "outputs": [],
      "stateMutability": "nonpayable",
      "type": "function"
    },
    {
      "inputs": [
        {
          "internalType": "bytes32",
          "name": "role",
          "type": "bytes32"
        },
        {
          "internalType": "address",
          "name": "account",
          "type": "address"
        }
      ],
      "name": "hasRole",
      "outputs": [
        {
          "internalType": "bool",
          "name": "",
          "type": "bool"
        }
      ],
      "stateMutability": "view",
      "type": "function"
    },
    {
      "inputs": [
        {
          "internalType": "address",
          "name": "initialOwner",
          "type": "address"
        },
        {
          "components": [
            {
              "internalType": "uint256",
              "name": "lowPrice",
              "type": "uint256"
            },
            {
              "internalType": "uint256",
              "name": "highPrice",
              "type": "uint256"
            }
          ],
          "internalType": "struct NftPool.PoolRange[]",
          "name": "ranges",
          "type": "tuple[]"
        }
      ],
      "name": "initialize",
      "outputs": [],
      "stateMutability": "nonpayable",
      "type": "function"
    },
    {
      "inputs": [
        {
          "internalType": "address",
          "name": "collection",
          "type": "address"
        }
      ],
      "name": "isCollectionAllowed",
      "outputs": [
        {
          "internalType": "bool",
          "name": "",
          "type": "bool"
        }
      ],
      "stateMutability": "view",
      "type": "function"
    },
    {
      "inputs": [
        {
          "internalType": "address",
          "name": "collection",
          "type": "address"
        },
        {
          "internalType": "uint256",
          "name": "tokenId",
          "type": "uint256"
        }
      ],
      "name": "isNftInPool",
      "outputs": [
        {
          "internalType": "bool",
          "name": "",
          "type": "bool"
        }
      ],
      "stateMutability": "view",
      "type": "function"
    },
    {
      "inputs": [
        {
          "internalType": "address",
          "name": "",
          "type": "address"
        },
        {
          "internalType": "address",
          "name": "",
          "type": "address"
        },
        {
          "internalType": "uint256",
          "name": "tokenId",
          "type": "uint256"
        },
        {
          "internalType": "bytes",
          "name": "",
          "type": "bytes"
        }
      ],
      "name": "onERC721Received",
      "outputs": [
        {
          "internalType": "bytes4",
          "name": "",
          "type": "bytes4"
        }
      ],
      "stateMutability": "nonpayable",
      "type": "function"
    },
    {
      "inputs": [],
      "name": "owner",
      "outputs": [
        {
          "internalType": "address",
          "name": "",
          "type": "address"
        }
      ],
      "stateMutability": "view",
      "type": "function"
    },
    {
      "inputs": [],
      "name": "renounceOwnership",
      "outputs": [],
      "stateMutability": "nonpayable",
      "type": "function"
    },
    {
      "inputs": [
        {
          "internalType": "bytes32",
          "name": "role",
          "type": "bytes32"
        },
        {
          "internalType": "address",
          "name": "callerConfirmation",
          "type": "address"
        }
      ],
      "name": "renounceRole",
      "outputs": [],
      "stateMutability": "nonpayable",
      "type": "function"
    },
    {
      "inputs": [
        {
          "internalType": "address",
          "name": "collection",
          "type": "address"
        },
        {
          "internalType": "address",
          "name": "to",
          "type": "address"
        },
        {
          "internalType": "uint256",
          "name": "tokenId",
          "type": "uint256"
        }
      ],
      "name": "rescueNft",
      "outputs": [],
      "stateMutability": "nonpayable",
      "type": "function"
    },
    {
      "inputs": [
        {
          "internalType": "bytes32",
          "name": "role",
          "type": "bytes32"
        },
        {
          "internalType": "address",
          "name": "account",
          "type": "address"
        }
      ],
      "name": "revokeRole",
      "outputs": [],
      "stateMutability": "nonpayable",
      "type": "function"
    },
    {
      "inputs": [
        {
          "internalType": "enum NftPool.PoolLevel",
          "name": "level",
          "type": "uint8"
        },
        {
          "internalType": "uint256",
          "name": "randomValue",
          "type": "uint256"
        }
      ],
      "name": "selectAndLockFromLevel",
      "outputs": [
        {
          "internalType": "address",
          "name": "collection",
          "type": "address"
        },
        {
          "internalType": "uint256",
          "name": "tokenId",
          "type": "uint256"
        }
      ],
      "stateMutability": "nonpayable",
      "type": "function"
    },
    {
      "inputs": [
        {
          "internalType": "enum NftPool.PoolLevel",
          "name": "level",
          "type": "uint8"
        },
        {
          "internalType": "uint256",
          "name": "randomValue",
          "type": "uint256"
        },
        {
          "internalType": "address",
          "name": "to",
          "type": "address"
        }
      ],
      "name": "selectAndTransferFromLevel",
      "outputs": [
        {
          "internalType": "address",
          "name": "collection",
          "type": "address"
        },
        {
          "internalType": "uint256",
          "name": "tokenId",
          "type": "uint256"
        }
      ],
      "stateMutability": "nonpayable",
      "type": "function"
    },
    {
      "inputs": [
        {
          "components": [
            {
              "internalType": "uint256",
              "name": "lowPrice",
              "type": "uint256"
            },
            {
              "internalType": "uint256",
              "name": "highPrice",
              "type": "uint256"
            }
          ],
          "internalType": "struct NftPool.PoolRange[]",
          "name": "ranges",
          "type": "tuple[]"
        }
      ],
      "name": "setAllPoolInfo",
      "outputs": [],
      "stateMutability": "nonpayable",
      "type": "function"
    },
    {
      "inputs": [
        {
          "internalType": "address",
          "name": "collection",
          "type": "address"
        },
        {
          "internalType": "uint256",
          "name": "newPrice",
          "type": "uint256"
        }
      ],
      "name": "setCollectionFloorPrice",
      "outputs": [],
      "stateMutability": "nonpayable",
      "type": "function"
    },
    {
      "inputs": [
        {
          "internalType": "address[]",
          "name": "collections",
          "type": "address[]"
        },
        {
          "internalType": "uint256[]",
          "name": "floorPrices",
          "type": "uint256[]"
        }
      ],
      "name": "setCollectionFloorPrices",
      "outputs": [],
      "stateMutability": "nonpayable",
      "type": "function"
    },
    {
      "inputs": [
        {
          "internalType": "enum NftPool.PoolLevel",
          "name": "level",
          "type": "uint8"
        },
        {
          "internalType": "uint256",
          "name": "lowPrice",
          "type": "uint256"
        },
        {
          "internalType": "uint256",
          "name": "highPrice",
          "type": "uint256"
        }
      ],
      "name": "setPoolInfo",
      "outputs": [],
      "stateMutability": "nonpayable",
      "type": "function"
    },
    {
      "inputs": [
        {
          "internalType": "bytes4",
          "name": "interfaceId",
          "type": "bytes4"
        }
      ],
      "name": "supportsInterface",
      "outputs": [
        {
          "internalType": "bool",
          "name": "",
          "type": "bool"
        }
      ],
      "stateMutability": "view",
      "type": "function"
    },
    {
      "inputs": [],
      "name": "totalPoolSize",
      "outputs": [
        {
          "internalType": "uint256",
          "name": "total",
          "type": "uint256"
        }
      ],
      "stateMutability": "view",
      "type": "function"
    },
    {
      "inputs": [
        {
          "internalType": "address",
          "name": "collection",
          "type": "address"
        },
        {
          "internalType": "address",
          "name": "to",
          "type": "address"
        },
        {
          "internalType": "uint256",
          "name": "tokenId",
          "type": "uint256"
        }
      ],
      "name": "transferLockedNft",
      "outputs": [],
      "stateMutability": "nonpayable",
      "type": "function"
    },
    {
      "inputs": [
        {
          "internalType": "address",
          "name": "collection",
          "type": "address"
        },
        {
          "internalType": "address",
          "name": "to",
          "type": "address"
        },
        {
          "internalType": "uint256",
          "name": "tokenId",
          "type": "uint256"
        }
      ],
      "name": "transferNft",
      "outputs": [],
      "stateMutability": "nonpayable",
      "type": "function"
    },
    {
      "inputs": [
        {
          "internalType": "address",
          "name": "newOwner",
          "type": "address"
        }
      ],
      "name": "transferOwnership",
      "outputs": [],
      "stateMutability": "nonpayable",
      "type": "function"
    }
  ],
  "bytecode": "0x6080604052348015600e575f5ffd5b5060156019565b60c9565b7ff0c57e16840df040f15088dc2f81fe391c3923bec73e23a9662efc9c229c6a00805468010000000000000000900460ff161560685760405163f92ee8a960e01b815260040160405180910390fd5b80546001600160401b039081161460c65780546001600160401b0319166001600160401b0390811782556040519081527fc7f505b2f371ae2175ee4913f4499e1f2633a7b5936321eed1cdaeb6115181d29060200160405180910390a15b50565b612ef4806100d65f395ff3fe608060405234801561000f575f5ffd5b506004361061021e575f3560e01c8063715018a61161012a578063c1fe786d116100b4578063d0a03e0111610079578063d0a03e01146105a9578063d11eccd6146105bc578063d547741f146105cf578063ebdaae4a146105e2578063f2fde38b1461060a575f5ffd5b8063c1fe786d14610531578063c4353d8d14610568578063c64650ef14610570578063cc4102ba14610583578063ce63fd3014610596575f5ffd5b806391d14854116100fa57806391d14854146104bf57806393503543146104d2578063a217fddf146104e5578063b1af52dd146104ec578063c10fbcb21461051e575f5ffd5b8063715018a614610407578063850481791461040f5780638da5cb5b146104375780639056a04b14610471575f5ffd5b8063248a9ca3116101ab57806347e7ef241161017b57806347e7ef241461038b57806356d735681461039e578063610139de146103b25780636880a127146103c55780636e68dfa6146103d8575f5ffd5b8063248a9ca3146103315780632f2ff15d1461035257806336568abe146103655780633e59fbc114610378575f5ffd5b8063150b7a02116101f1578063150b7a02146102855780631a6c7f64146102b15780631ac6cb69146102d15780631d59aeff146102f15780631e79b0ef14610304575f5ffd5b806301ffc9a71461022257806307b873241461024a57806310f392f11461025f57806310f417bf14610272575b5f5ffd5b6102356102303660046127e9565b61061d565b60405190151581526020015b60405180910390f35b61025d61025836600461282b565b610647565b005b61025d61026d366004612869565b6107f7565b61025d6102803660046128d3565b610936565b610298610293366004612983565b610a54565b6040516001600160e01b03199091168152602001610241565b6102c46102bf366004612869565b610aa7565b6040516102419190612a95565b6102e46102df366004612ab6565b610b0c565b6040516102419190612acf565b61025d6102ff366004612869565b610ba1565b610235610312366004612b1a565b6001600160a01b03165f90815260016020526040902060020154151590565b61034461033f366004612b35565b610bf0565b604051908152602001610241565b61025d610360366004612b4c565b610c10565b61025d610373366004612b4c565b610c2c565b61025d610386366004612b89565b610c5f565b61025d610399366004612869565b610ca8565b6103445f516020612e9f5f395f51905f5281565b61025d6103c0366004612bf4565b610da0565b6103446103d3366004612ab6565b6111ba565b6102c46103e6366004612b1a565b6001600160a01b03165f908152600160208190526040909120015460ff1690565b61025d6111f8565b61034461041d366004612b1a565b6001600160a01b03165f9081526001602052604090205490565b7f9016d09d72d40fdae2fd8ceac6b6234c7706214fd39c1cd1e609a0528c199300546040516001600160a01b039091168152602001610241565b6104b061047f366004612b1a565b6001600160a01b03165f90815260016020819052604090912060028101548154919092015491151592909160ff1690565b60405161024193929190612c44565b6102356104cd366004612b4c565b61120b565b61025d6104e0366004612c61565b611241565b6103445f81565b6104ff6104fa366004612c91565b6112fb565b604080516001600160a01b039093168352602083019190915201610241565b6104ff61052c366004612c91565b6113a4565b61023561053f366004612869565b6001600160a01b03919091165f9081526003602090815260408083209383529290522054151590565b610344611411565b61025d61057e366004612cab565b611487565b6104ff610591366004612ce9565b6115ba565b61025d6105a436600461282b565b6116ff565b61025d6105b7366004612d26565b6118ce565b61025d6105ca36600461282b565b6119ac565b61025d6105dd366004612b4c565b611aa0565b6105f56105f0366004612ab6565b611abc565b60408051928352602083019190915201610241565b61025d610618366004612b1a565b611b06565b5f6001600160e01b03198216630a85bd0160e11b1480610641575061064182611b43565b92915050565b5f516020612e9f5f395f51905f5261065e81611b77565b6001600160a01b0384165f9081526003602090815260408083208584529091529020541561069f57604051637dd1570560e11b815260040160405180910390fd5b6040516331a9108f60e11b81526004810183905230906001600160a01b03861690636352211e90602401602060405180830381865afa1580156106e4573d5f5f3e3d5ffd5b505050506040513d601f19601f820116820180604052508101906107089190612d90565b6001600160a01b03161461072f57604051636bad456160e01b815260040160405180910390fd5b6001600160a01b0384165f8181526001602081905260409182902001549051632142170760e11b815260ff90911691906342842e0e9061077790309088908890600401612dab565b5f604051808303815f87803b15801561078e575f5ffd5b505af11580156107a0573d5f5f3e3d5ffd5b5050505082856001600160a01b0316856001600160a01b03167f06b7a26d6a3a682884491b833e0c33a64a6759ba14f903c01b532185938ee45d846040516107e89190612a95565b60405180910390a45050505050565b5f516020612e9f5f395f51905f5261080e81611b77565b6001600160a01b0383165f908152600160205260408120600281015490910361084a576040516341fbc5a760e01b815260040160405180910390fd5b6040516331a9108f60e11b81526004810184905230906001600160a01b03861690636352211e90602401602060405180830381865afa15801561088f573d5f5f3e3d5ffd5b505050506040513d601f19601f820116820180604052508101906108b39190612d90565b6001600160a01b0316146108da57604051636bad456160e01b815260040160405180910390fd5b6001600160a01b0384165f9081526003602090815260408083208684529091529020541561091b57604051637dd1570560e11b815260040160405180910390fd5b6001810154610930908590859060ff16611b81565b50505050565b5f516020612e9f5f395f51905f5261094d81611b77565b858414158061095c5750858214155b1561097a5760405163512509d360e11b815260040160405180910390fd5b5f5b86811015610a4a575f88888381811061099757610997612dcf565b90506020020160208101906109ac9190612b1a565b6001600160a01b0316036109d35760405163d92e233d60e01b815260040160405180910390fd5b610a428888838181106109e8576109e8612dcf565b90506020020160208101906109fd9190612b1a565b878784818110610a0f57610a0f612dcf565b9050602002016020810190610a249190612de3565b868685818110610a3657610a36612dcf565b90506020020135611caf565b60010161097c565b5050505050505050565b335f818152600160205260408120600281015491929115801590610a785750805415155b15610a92576001810154610a92908390879060ff16611b81565b50630a85bd0160e11b9150505b949350505050565b6001600160a01b0382165f9081526003602090815260408083208484529091528120548103610ae957604051636bad456160e01b815260040160405180910390fd5b50506001600160a01b03165f908152600160208190526040909120015460ff1690565b60605f5f836004811115610b2257610b22612a61565b6004811115610b3357610b33612a61565b81526020019081526020015f20600201805480602002602001604051908101604052809291908181526020018280548015610b9557602002820191905f5260205f20905b81546001600160a01b03168152600190910190602001808311610b77575b50505050509050919050565b5f516020612e9f5f395f51905f52610bb881611b77565b6001600160a01b038316610bdf5760405163d92e233d60e01b815260040160405180910390fd5b610beb83600184611caf565b505050565b5f9081525f516020612e7f5f395f51905f52602052604090206001015490565b610c1982610bf0565b610c2281611b77565b6109308383611fd1565b6001600160a01b0381163314610c555760405163334bd91960e11b815260040160405180910390fd5b610beb8282612072565b5f516020612e9f5f395f51905f52610c7681611b77565b6001600160a01b038416610c9d5760405163d92e233d60e01b815260040160405180910390fd5b610930848484611caf565b6001600160a01b0382165f9081526001602052604081206002810154909103610ce4576040516341fbc5a760e01b815260040160405180910390fd5b80545f03610d055760405163105500ff60e11b815260040160405180910390fd5b604051632142170760e11b81526001600160a01b038416906342842e0e90610d3590339030908790600401612dab565b5f604051808303815f87803b158015610d4c575f5ffd5b505af1158015610d5e573d5f5f3e3d5ffd5b505050506001600160a01b0383165f9081526003602090815260408083208584529091528120549003610beb576001810154610beb908490849060ff16611b81565b5f610da96120eb565b805490915060ff600160401b82041615906001600160401b03165f81158015610dcf5750825b90505f826001600160401b03166001148015610dea5750303b155b905081158015610df8575080155b15610e165760405163f92ee8a960e01b815260040160405180910390fd5b845467ffffffffffffffff191660011785558315610e4057845460ff60401b1916600160401b1785555b6001600160a01b038816610e675760405163d92e233d60e01b815260040160405180910390fd5b610e6f612113565b610e788861211b565b610e80612113565b610e8a5f89611fd1565b50610ea25f516020612e9f5f395f51905f5289611fd1565b505f86900361103e575f60208190527fad3228b676f7d3cd4284a5443f17f1962b36e491b30a40b2405849e597ba5fb581905566bd2e97c64a20007fad3228b676f7d3cd4284a5443f17f1962b36e491b30a40b2405849e597ba5fb68190557fada5013122d395ba3c54772283fb069b10426056ef8ca54750cb9bb552a59e7d556702f4ba5f192880007fada5013122d395ba3c54772283fb069b10426056ef8ca54750cb9bb552a59e7e8190557fabbb5caa7dda850e60932de0934eb1f9d0f59695050f761dc64e443e5030a56955670ec7a3db7dca80007fabbb5caa7dda850e60932de0934eb1f9d0f59695050f761dc64e443e5030a56a8190557f101e368776582e57ab3d116ffe2517c0a585cd5b23174b01e275c2d8329c3d83556749e6334974f480007f101e368776582e57ab3d116ffe2517c0a585cd5b23174b01e275c2d8329c3d8481905560049091527f52d75039926638d3c558b2bdefb945d5be8dae29dedd1c313212a4d472d9fde5555f197f52d75039926638d3c558b2bdefb945d5be8dae29dedd1c313212a4d472d9fde65561116b565b61104a60046001612e10565b86146110695760405163512509d360e11b815260040160405180910390fd5b5f5b86811015611169573688888381811061108657611086612dcf565b90506040020190508060200135815f0135106110b5576040516323f5f0b960e11b815260040160405180910390fd5b5f8260048111156110c8576110c8612a61565b90505f5f5f8360048111156110df576110df612a61565b60048111156110f0576110f0612a61565b81526020808201929092526040015f2084358155908401356001820155905081600481111561112157611121612a61565b6040805185358152602080870135908201527f3f2a81ba786fd6a209dfec6301c9ab010ba241d538fb9d7157567bdac2fbceff910160405180910390a250505060010161106b565b505b8315610a4a57845460ff60401b19168555604051600181527fc7f505b2f371ae2175ee4913f4499e1f2633a7b5936321eed1cdaeb6115181d29060200160405180910390a15050505050505050565b5f5f5f8360048111156111cf576111cf612a61565b60048111156111e0576111e0612a61565b81526020019081526020015f20600301549050919050565b61120061212c565b6112095f612187565b565b5f9182525f516020612e7f5f395f51905f52602090815260408084206001600160a01b0393909316845291905290205460ff1690565b61124961212c565b808210611269576040516323f5f0b960e11b815260040160405180910390fd5b5f5f5f85600481111561127e5761127e612a61565b600481111561128f5761128f612a61565b815260208101919091526040015f208381556001810183905590508360048111156112bc576112bc612a61565b60408051858152602081018590527f3f2a81ba786fd6a209dfec6301c9ab010ba241d538fb9d7157567bdac2fbceff910160405180910390a250505050565b5f5f5f516020612e9f5f395f51905f5261131481611b77565b5f5f5f87600481111561132957611329612a61565b600481111561133a5761133a612a61565b81526020019081526020015f20600301549050805f03611378578560405163c605579d60e01b815260040161136f9190612a95565b60405180910390fd5b61138b866113868388612e23565b6121f7565b909450925061139b848488612303565b50509250929050565b5f5f5f5f8560048111156113ba576113ba612a61565b60048111156113cb576113cb612a61565b81526020019081526020015f206003015483106113fb57604051634e23d03560e01b815260040160405180910390fd5b61140584846121f7565b915091505b9250929050565b5f805b61142060046001612e10565b811015611483575f5f82600481111561143b5761143b612a61565b600481111561144c5761144c612a61565b600481111561145d5761145d612a61565b81526020019081526020015f2060030154826114799190612e10565b9150600101611414565b5090565b61148f61212c565b61149b60046001612e10565b81146114ba5760405163512509d360e11b815260040160405180910390fd5b5f5b81811015610beb57368383838181106114d7576114d7612dcf565b90506040020190508060200135815f013510611506576040516323f5f0b960e11b815260040160405180910390fd5b5f82600481111561151957611519612a61565b90505f5f5f83600481111561153057611530612a61565b600481111561154157611541612a61565b81526020808201929092526040015f2084358155908401356001820155905081600481111561157257611572612a61565b6040805185358152602080870135908201527f3f2a81ba786fd6a209dfec6301c9ab010ba241d538fb9d7157567bdac2fbceff910160405180910390a25050506001016114bc565b5f5f5f516020612e9f5f395f51905f526115d381611b77565b5f5f5f8860048111156115e8576115e8612a61565b60048111156115f9576115f9612a61565b81526020019081526020015f20600301549050805f0361162e578660405163c605579d60e01b815260040161136f9190612a95565b61163c876113868389612e23565b909450925061164c848489612303565b604051632142170760e11b81526001600160a01b038516906342842e0e9061167c90309089908890600401612dab565b5f604051808303815f87803b158015611693575f5ffd5b505af11580156116a5573d5f5f3e3d5ffd5b5050505082846001600160a01b0316866001600160a01b03167f06b7a26d6a3a682884491b833e0c33a64a6759ba14f903c01b532185938ee45d8a6040516116ed9190612a95565b60405180910390a45050935093915050565b61170761212c565b6001600160a01b0383165f908152600360209081526040808320848452909152902054156117775760405162461bcd60e51b815260206004820152601760248201527f4e6674506f6f6c3a204e465420697320747261636b6564000000000000000000604482015260640161136f565b6040516331a9108f60e11b81526004810182905230906001600160a01b03851690636352211e90602401602060405180830381865afa1580156117bc573d5f5f3e3d5ffd5b505050506040513d601f19601f820116820180604052508101906117e09190612d90565b6001600160a01b03161461182b5760405162461bcd60e51b815260206004820152601260248201527113999d141bdbdb0e881b9bdd081bdddb995960721b604482015260640161136f565b604051632142170760e11b81526001600160a01b038416906342842e0e9061185b90309086908690600401612dab565b5f604051808303815f87803b158015611872575f5ffd5b505af1158015611884573d5f5f3e3d5ffd5b5050505080836001600160a01b0316836001600160a01b03167f56ddd34da5f93058e7aecf1b662831c154f45fb2a5d151aebea53994061579cc60405160405180910390a4505050565b5f516020612e9f5f395f51905f526118e581611b77565b8382146119055760405163512509d360e11b815260040160405180910390fd5b5f5b848110156119a4575f86868381811061192257611922612dcf565b90506020020160208101906119379190612b1a565b6001600160a01b03160361195e5760405163d92e233d60e01b815260040160405180910390fd5b61199c86868381811061197357611973612dcf565b90506020020160208101906119889190612b1a565b6001868685818110610a3657610a36612dcf565b600101611907565b505050505050565b5f516020612e9f5f395f51905f526119c381611b77565b6001600160a01b0384165f9081526001602081905260409091209081015460ff166119ef868583612303565b604051632142170760e11b81526001600160a01b038716906342842e0e90611a1f90309089908990600401612dab565b5f604051808303815f87803b158015611a36575f5ffd5b505af1158015611a48573d5f5f3e3d5ffd5b5050505083866001600160a01b0316866001600160a01b03167f06b7a26d6a3a682884491b833e0c33a64a6759ba14f903c01b532185938ee45d84604051611a909190612a95565b60405180910390a4505050505050565b611aa982610bf0565b611ab281611b77565b6109308383612072565b5f5f5f5f5f856004811115611ad357611ad3612a61565b6004811115611ae457611ae4612a61565b81526020019081526020015f209050805f015481600101549250925050915091565b611b0e61212c565b6001600160a01b038116611b3757604051631e4fbdf760e01b81525f600482015260240161136f565b611b4081612187565b50565b5f6001600160e01b03198216637965db0b60e01b148061064157506301ffc9a760e01b6001600160e01b0319831614610641565b611b4081336124a4565b6001600160a01b0383165f90815260036020908152604080832085845290915290205415611bc257604051637dd1570560e11b815260040160405180910390fd5b6001600160a01b0383165f8181526002602081815260408084208054600181810183558287528487209091018990558154878752600385528387208a885285528387205595855294909152909120015415611c625760015f5f846004811115611c2d57611c2d612a61565b6004811115611c3e57611c3e612a61565b81526020019081526020015f206003015f828254611c5c9190612e10565b90915550505b816004811115611c7457611c74612a61565b60405184906001600160a01b038716907f68ef9715adf17aacc9d4ab13dbff6ecd13ea4916b4a6c98416a0c2789e1b9d52905f90a450505050565b818015611cba575080155b15611cd85760405163105500ff60e11b815260040160405180910390fd5b6001600160a01b0383165f90815260016020818152604080842060028082015482549583015491909452918520548682559094921515939260ff90921691611d1f876124e1565b90508415611e5c5787611d8b57611d36898461258c565b8115611d8657815f5f856004811115611d5157611d51612a61565b6004811115611d6257611d62612a61565b81526020019081526020015f206003015f828254611d809190612e42565b90915550505b611ebc565b826004811115611d9d57611d9d612a61565b816004811115611daf57611daf612a61565b14611d8657611dbe898461258c565b611dc889826126f0565b8115611d8657815f5f856004811115611de357611de3612a61565b6004811115611df457611df4612a61565b81526020019081526020015f206003015f828254611e129190612e42565b909155508290505f80836004811115611e2d57611e2d612a61565b6004811115611e3e57611e3e612a61565b81526020019081526020015f206003015f828254611d809190612e10565b8715611ebc57611e6c89826126f0565b8115611ebc57815f5f836004811115611e8757611e87612a61565b6004811115611e9857611e98612a61565b81526020019081526020015f206003015f828254611eb69190612e10565b90915550505b60018087018054839260ff1990911690836004811115611ede57611ede612a61565b0217905550604080518915158152602081018990526001600160a01b038b16917f9559e7b9f773e4dec2c7d67f764390c311fe977c081f19f5c2b7fba6f9c7dbaf910160405180910390a2868414611f755760408051858152602081018990526001600160a01b038b16917f370b8e6c695990bd3b51e1f7c9ca26db203e2d4968dea720eeceb678ce1a505d910160405180910390a25b87151585151514611fc657886001600160a01b03167f8e126a47b437302983a8b9dacd479107a4a0c454319d81cc32896617e897cede89604051611fbd911515815260200190565b60405180910390a25b505050505050505050565b5f5f516020612e7f5f395f51905f52611fea848461120b565b612069575f848152602082815260408083206001600160a01b03871684529091529020805460ff1916600117905561201f3390565b6001600160a01b0316836001600160a01b0316857f2f8788117e7eff1d82e926ec794901d17c78024a50270940304540a733656f0d60405160405180910390a46001915050610641565b5f915050610641565b5f5f516020612e7f5f395f51905f5261208b848461120b565b15612069575f848152602082815260408083206001600160a01b0387168085529252808320805460ff1916905551339287917ff6391f5c32d9c69d2a47ea670b442974b53935d1edc7fd64eb21e047a839171b9190a46001915050610641565b5f807ff0c57e16840df040f15088dc2f81fe391c3923bec73e23a9662efc9c229c6a00610641565b6112096127a3565b6121236127a3565b611b40816127c8565b3361215e7f9016d09d72d40fdae2fd8ceac6b6234c7706214fd39c1cd1e609a0528c199300546001600160a01b031690565b6001600160a01b0316146112095760405163118cdaa760e01b815233600482015260240161136f565b7f9016d09d72d40fdae2fd8ceac6b6234c7706214fd39c1cd1e609a0528c19930080546001600160a01b031981166001600160a01b03848116918217845560405192169182907f8be0079c531659141344cd1fd0a4f28419497f9722a3daafe3b4186f6b6457e0905f90a3505050565b5f5f5f5f5f86600481111561220e5761220e612a61565b600481111561221f5761221f612a61565b815260208101919091526040015f908120600201915084905b82548110156122e7575f83828154811061225457612254612dcf565b5f9182526020808320909101546001600160a01b03168083526002909152604090912054909150801580159061228957508084105b156122d1576001600160a01b0382165f9081526002602052604090208054839190869081106122ba576122ba612dcf565b905f5260205f20015496509650505050505061140a565b6122db8185612e42565b93505050600101612238565b508560405163c605579d60e01b815260040161136f9190612a95565b6001600160a01b0383165f9081526003602090815260408083208584529091528120549081900361234757604051636bad456160e01b815260040160405180910390fd5b6001600160a01b0384165f9081526002602052604081209061236a600184612e42565b82549091505f9061237d90600190612e42565b90508082146123f3575f83828154811061239957612399612dcf565b905f5260205f2001549050808484815481106123b7576123b7612dcf565b5f918252602090912001556123cd836001612e10565b6001600160a01b0389165f90815260036020908152604080832094835293905291909120555b8280548061240357612403612e55565b5f828152602080822083015f199081018390559092019092556001600160a01b0389168083526003825260408084208a8552835280842084905590835260019091529020600201541561249b5760015f5f87600481111561246657612466612a61565b600481111561247757612477612a61565b81526020019081526020015f206003015f8282546124959190612e42565b90915550505b50505050505050565b6124ae828261120b565b6124dd5760405163e2517d3f60e01b81526001600160a01b03821660048201526024810183905260440161136f565b5050565b5f806124ef60046001612e10565b90505b8015612584575f612504600183612e42565b600481111561251557612515612a61565b90505f5f5f83600481111561252c5761252c612a61565b600481111561253d5761253d612a61565b81526020019081526020015f209050805f015485101580156125625750806001015485105b1561256f57509392505050565b5050808061257c90612e69565b9150506124f2565b505f92915050565b6001600160a01b0382165f908152600160205260408120600281015490918190036125b75750505050565b5f5f5f8560048111156125cc576125cc612a61565b60048111156125dd576125dd612a61565b81526020019081526020015f2090505f6001836125fa9190612e42565b60028301549091505f9061261090600190612e42565b90508082146126a9575f83600201828154811061262f5761262f612dcf565b5f918252602090912001546002850180546001600160a01b03909216925082918590811061265f5761265f612dcf565b5f91825260208083209190910180546001600160a01b0319166001600160a01b03948516179055918316815260019182905260409020906126a1908590612e10565b600290910155505b826002018054806126bc576126bc612e55565b5f8281526020812082015f1990810180546001600160a01b0319169055909101909155600290950194909455505050505050565b5f5f5f83600481111561270557612705612a61565b600481111561271657612716612a61565b815260208082019290925260409081015f908120600280820180546001808201835582865287862090910180546001600160a01b0319166001600160a01b038c16908117909155915491855295869052939092209182018390558184018054919550929391928692909160ff19169083600481111561279757612797612a61565b02179055505050505050565b6127ab6127d0565b61120957604051631afcd79f60e31b815260040160405180910390fd5b611b0e6127a3565b5f6127d96120eb565b54600160401b900460ff16919050565b5f602082840312156127f9575f5ffd5b81356001600160e01b031981168114612810575f5ffd5b9392505050565b6001600160a01b0381168114611b40575f5ffd5b5f5f5f6060848603121561283d575f5ffd5b833561284881612817565b9250602084013561285881612817565b929592945050506040919091013590565b5f5f6040838503121561287a575f5ffd5b823561288581612817565b946020939093013593505050565b5f5f83601f8401126128a3575f5ffd5b5081356001600160401b038111156128b9575f5ffd5b6020830191508360208260051b850101111561140a575f5ffd5b5f5f5f5f5f5f606087890312156128e8575f5ffd5b86356001600160401b038111156128fd575f5ffd5b61290989828a01612893565b90975095505060208701356001600160401b03811115612927575f5ffd5b61293389828a01612893565b90955093505060408701356001600160401b03811115612951575f5ffd5b61295d89828a01612893565b979a9699509497509295939492505050565b634e487b7160e01b5f52604160045260245ffd5b5f5f5f5f60808587031215612996575f5ffd5b84356129a181612817565b935060208501356129b181612817565b92506040850135915060608501356001600160401b038111156129d2575f5ffd5b8501601f810187136129e2575f5ffd5b80356001600160401b038111156129fb576129fb61296f565b604051601f8201601f19908116603f011681016001600160401b0381118282101715612a2957612a2961296f565b604052818152828201602001891015612a40575f5ffd5b816020840160208301375f6020838301015280935050505092959194509250565b634e487b7160e01b5f52602160045260245ffd5b60058110612a9157634e487b7160e01b5f52602160045260245ffd5b9052565b602081016106418284612a75565b803560058110612ab1575f5ffd5b919050565b5f60208284031215612ac6575f5ffd5b61281082612aa3565b602080825282518282018190525f918401906040840190835b81811015612b0f5783516001600160a01b0316835260209384019390920191600101612ae8565b509095945050505050565b5f60208284031215612b2a575f5ffd5b813561281081612817565b5f60208284031215612b45575f5ffd5b5035919050565b5f5f60408385031215612b5d575f5ffd5b823591506020830135612b6f81612817565b809150509250929050565b80358015158114612ab1575f5ffd5b5f5f5f60608486031215612b9b575f5ffd5b8335612ba681612817565b925061285860208501612b7a565b5f5f83601f840112612bc4575f5ffd5b5081356001600160401b03811115612bda575f5ffd5b6020830191508360208260061b850101111561140a575f5ffd5b5f5f5f60408486031215612c06575f5ffd5b8335612c1181612817565b925060208401356001600160401b03811115612c2b575f5ffd5b612c3786828701612bb4565b9497909650939450505050565b83151581526020810183905260608101610a9f6040830184612a75565b5f5f5f60608486031215612c73575f5ffd5b612c7c84612aa3565b95602085013595506040909401359392505050565b5f5f60408385031215612ca2575f5ffd5b61288583612aa3565b5f5f60208385031215612cbc575f5ffd5b82356001600160401b03811115612cd1575f5ffd5b612cdd85828601612bb4565b90969095509350505050565b5f5f5f60608486031215612cfb575f5ffd5b612d0484612aa3565b9250602084013591506040840135612d1b81612817565b809150509250925092565b5f5f5f5f60408587031215612d39575f5ffd5b84356001600160401b03811115612d4e575f5ffd5b612d5a87828801612893565b90955093505060208501356001600160401b03811115612d78575f5ffd5b612d8487828801612893565b95989497509550505050565b5f60208284031215612da0575f5ffd5b815161281081612817565b6001600160a01b039384168152919092166020820152604081019190915260600190565b634e487b7160e01b5f52603260045260245ffd5b5f60208284031215612df3575f5ffd5b61281082612b7a565b634e487b7160e01b5f52601160045260245ffd5b8082018082111561064157610641612dfc565b5f82612e3d57634e487b7160e01b5f52601260045260245ffd5b500690565b8181038181111561064157610641612dfc565b634e487b7160e01b5f52603160045260245ffd5b5f81612e7757612e77612dfc565b505f19019056fe02dd7bc7dec4dceedda775e58dd541e08a116c6c53815c0bd028192f7b6268006077685936c8169d09204a1d97db12e41713588c38e1d29a61867d3dcee98affa26469706673582212206dc4f76092d012a10b96baa9a2eecf7ba7aaaf613c81fd080da6ee8de11cd0f664736f6c634300081e0033",
  "linkReferences": {},
  "deployedLinkReferences": {},
  "immutableReferences": {},
  "inputSourceName": "project/contracts/NftPool.sol",
  "buildInfoId": "solc-0_8_30-9924e8cb17ec4f1df243906ea7d98769aa69e1dc"
}