{
  "address": "0x0a233a5cC5D22faCBBf04BA5c207A3cC9b816E0e",
  "abi": [
    {
      "anonymous": false,
      "inputs": [
        {
          "indexed": false,
          "internalType": "bool",
          "name": "",
          "type": "bool"
        },
        {
          "indexed": false,
          "internalType": "bytes",
          "name": "",
          "type": "bytes"
        }
      ],
      "name": "CallResponseEvent",
      "type": "event"
    },
    {
      "anonymous": false,
      "inputs": [
        {
          "indexed": false,
          "internalType": "address",
          "name": "tokenAddress",
          "type": "address"
        }
      ],
      "name": "CreatedToken",
      "type": "event"
    },
    {
      "anonymous": false,
      "inputs": [
        {
          "indexed": false,
          "internalType": "int64",
          "name": "newTotalSupply",
          "type": "int64"
        },
        {
          "indexed": false,
          "internalType": "int64[]",
          "name": "serialNumbers",
          "type": "int64[]"
        }
      ],
      "name": "MintedToken",
      "type": "event"
    },
    {
      "anonymous": false,
      "inputs": [
        {
          "indexed": false,
          "internalType": "int256",
          "name": "responseCode",
          "type": "int256"
        }
      ],
      "name": "ResponseCode",
      "type": "event"
    },
    {
      "inputs": [
        {
          "internalType": "address",
          "name": "token",
          "type": "address"
        },
        {
          "internalType": "address",
          "name": "spender",
          "type": "address"
        },
        {
          "internalType": "uint256",
          "name": "tokenId",
          "type": "uint256"
        }
      ],
      "name": "approveFromERC721",
      "outputs": [],
      "stateMutability": "nonpayable",
      "type": "function"
    },
    {
      "inputs": [
        {
          "internalType": "address",
          "name": "token",
          "type": "address"
        },
        {
          "internalType": "address",
          "name": "approved",
          "type": "address"
        },
        {
          "internalType": "uint256",
          "name": "serialNumber",
          "type": "uint256"
        }
      ],
      "name": "approveNFTPublic",
      "outputs": [
        {
          "internalType": "int256",
          "name": "responseCode",
          "type": "int256"
        }
      ],
      "stateMutability": "nonpayable",
      "type": "function"
    },
    {
      "inputs": [
        {
          "internalType": "address",
          "name": "account",
          "type": "address"
        },
        {
          "internalType": "address",
          "name": "token",
          "type": "address"
        }
      ],
      "name": "associateTokenPublic",
      "outputs": [
        {
          "internalType": "int256",
          "name": "responseCode",
          "type": "int256"
        }
      ],
      "stateMutability": "nonpayable",
      "type": "function"
    },
    {
      "inputs": [
        {
          "internalType": "address",
          "name": "treasury",
          "type": "address"
        }
      ],
      "name": "createNonFungibleTokenPublic",
      "outputs": [],
      "stateMutability": "payable",
      "type": "function"
    },
    {
      "inputs": [
        {
          "internalType": "address",
          "name": "treasury",
          "type": "address"
        },
        {
          "internalType": "address",
          "name": "feeCollector",
          "type": "address"
        },
        {
          "internalType": "bool",
          "name": "isRoyaltyFee",
          "type": "bool"
        },
        {
          "internalType": "bool",
          "name": "isFixedFee",
          "type": "bool"
        },
        {
          "internalType": "int64",
          "name": "feeAmount",
          "type": "int64"
        },
        {
          "internalType": "address",
          "name": "fixedFeeTokenAddress",
          "type": "address"
        },
        {
          "internalType": "bool",
          "name": "useHbarsForPayment",
          "type": "bool"
        },
        {
          "internalType": "bool",
          "name": "useCurrentTokenForPayment",
          "type": "bool"
        }
      ],
      "name": "createNonFungibleTokenWithCustomFeesPublic",
      "outputs": [],
      "stateMutability": "payable",
      "type": "function"
    },
    {
      "inputs": [
        {
          "internalType": "address",
          "name": "treasury",
          "type": "address"
        },
        {
          "components": [
            {
              "internalType": "address",
              "name": "feeCollector",
              "type": "address"
            },
            {
              "internalType": "bool",
              "name": "isFractionalFee",
              "type": "bool"
            },
            {
              "internalType": "bool",
              "name": "isFixedFee",
              "type": "bool"
            },
            {
              "internalType": "int64",
              "name": "feeAmount",
              "type": "int64"
            },
            {
              "internalType": "address",
              "name": "fixedFeeTokenAddress",
              "type": "address"
            },
            {
              "internalType": "bool",
              "name": "useHbarsForPayment",
              "type": "bool"
            },
            {
              "internalType": "bool",
              "name": "useCurrentTokenForPayment",
              "type": "bool"
            },
            {
              "internalType": "bool",
              "name": "isMultipleFixedFee",
              "type": "bool"
            },
            {
              "internalType": "address",
              "name": "feeCollector2",
              "type": "address"
            },
            {
              "internalType": "int64",
              "name": "secondfeeAmount",
              "type": "int64"
            },
            {
              "internalType": "address",
              "name": "secondFixedFeeTokenAddress",
              "type": "address"
            },
            {
              "internalType": "bool",
              "name": "useHbarsForPaymentSecondFixFee",
              "type": "bool"
            },
            {
              "internalType": "bool",
              "name": "useCurrentTokenForPaymentSecondFixFee",
              "type": "bool"
            }
          ],
          "internalType": "struct RariHedera721DropFactory.FixFeeParams",
          "name": "params",
          "type": "tuple"
        },
        {
          "components": [
            {
              "internalType": "address",
              "name": "feeCollector",
              "type": "address"
            },
            {
              "internalType": "bool",
              "name": "isRoyaltyFee",
              "type": "bool"
            },
            {
              "internalType": "int64",
              "name": "feeAmount",
              "type": "int64"
            },
            {
              "internalType": "address",
              "name": "fixedFeeTokenAddress",
              "type": "address"
            },
            {
              "internalType": "bool",
              "name": "useHbarsForPayment",
              "type": "bool"
            },
            {
              "internalType": "bool",
              "name": "isMultipleRoyaltyFee",
              "type": "bool"
            },
            {
              "internalType": "address",
              "name": "feeCollector2",
              "type": "address"
            },
            {
              "internalType": "int64",
              "name": "secondfeeAmount",
              "type": "int64"
            },
            {
              "internalType": "address",
              "name": "secondFixedFeeTokenAddress",
              "type": "address"
            },
            {
              "internalType": "bool",
              "name": "useHbarsForPaymentSecondFixFee",
              "type": "bool"
            }
          ],
          "internalType": "struct RariHedera721DropFactory.RoyaltyFeeParams",
          "name": "royaltyParams",
          "type": "tuple"
        }
      ],
      "name": "createNonFungibleTokenWithMultipleCustomFeesPublic",
      "outputs": [],
      "stateMutability": "payable",
      "type": "function"
    },
    {
      "inputs": [
        {
          "components": [
            {
              "components": [
                {
                  "internalType": "address",
                  "name": "accountID",
                  "type": "address"
                },
                {
                  "internalType": "int64",
                  "name": "amount",
                  "type": "int64"
                },
                {
                  "internalType": "bool",
                  "name": "isApproval",
                  "type": "bool"
                }
              ],
              "internalType": "struct IHederaTokenService.AccountAmount[]",
              "name": "transfers",
              "type": "tuple[]"
            }
          ],
          "internalType": "struct IHederaTokenService.TransferList",
          "name": "transferList",
          "type": "tuple"
        },
        {
          "components": [
            {
              "internalType": "address",
              "name": "token",
              "type": "address"
            },
            {
              "components": [
                {
                  "internalType": "address",
                  "name": "accountID",
                  "type": "address"
                },
                {
                  "internalType": "int64",
                  "name": "amount",
                  "type": "int64"
                },
                {
                  "internalType": "bool",
                  "name": "isApproval",
                  "type": "bool"
                }
              ],
              "internalType": "struct IHederaTokenService.AccountAmount[]",
              "name": "transfers",
              "type": "tuple[]"
            },
            {
              "components": [
                {
                  "internalType": "address",
                  "name": "senderAccountID",
                  "type": "address"
                },
                {
                  "internalType": "address",
                  "name": "receiverAccountID",
                  "type": "address"
                },
                {
                  "internalType": "int64",
                  "name": "serialNumber",
                  "type": "int64"
                },
                {
                  "internalType": "bool",
                  "name": "isApproval",
                  "type": "bool"
                }
              ],
              "internalType": "struct IHederaTokenService.NftTransfer[]",
              "name": "nftTransfers",
              "type": "tuple[]"
            }
          ],
          "internalType": "struct IHederaTokenService.TokenTransferList[]",
          "name": "tokenTransferList",
          "type": "tuple[]"
        }
      ],
      "name": "cryptoTransferPublic",
      "outputs": [
        {
          "internalType": "int256",
          "name": "responseCode",
          "type": "int256"
        }
      ],
      "stateMutability": "nonpayable",
      "type": "function"
    },
    {
      "inputs": [
        {
          "internalType": "address",
          "name": "token",
          "type": "address"
        },
        {
          "internalType": "int64",
          "name": "amount",
          "type": "int64"
        },
        {
          "internalType": "bytes[]",
          "name": "metadata",
          "type": "bytes[]"
        }
      ],
      "name": "mintTokenPublic",
      "outputs": [
        {
          "internalType": "int256",
          "name": "responseCode",
          "type": "int256"
        },
        {
          "internalType": "int64",
          "name": "newTotalSupply",
          "type": "int64"
        },
        {
          "internalType": "int64[]",
          "name": "serialNumbers",
          "type": "int64[]"
        }
      ],
      "stateMutability": "nonpayable",
      "type": "function"
    },
    {
      "inputs": [
        {
          "internalType": "address",
          "name": "token",
          "type": "address"
        },
        {
          "internalType": "int64",
          "name": "amount",
          "type": "int64"
        },
        {
          "internalType": "bytes[]",
          "name": "metadata",
          "type": "bytes[]"
        }
      ],
      "name": "mintTokenToAddressPublic",
      "outputs": [
        {
          "internalType": "int256",
          "name": "responseCode",
          "type": "int256"
        },
        {
          "internalType": "int64",
          "name": "newTotalSupply",
          "type": "int64"
        },
        {
          "internalType": "int64[]",
          "name": "serialNumbers",
          "type": "int64[]"
        }
      ],
      "stateMutability": "nonpayable",
      "type": "function"
    },
    {
      "inputs": [
        {
          "internalType": "address",
          "name": "token",
          "type": "address"
        },
        {
          "internalType": "bytes",
          "name": "encodedFunctionSelector",
          "type": "bytes"
        }
      ],
      "name": "redirectForToken",
      "outputs": [
        {
          "internalType": "int256",
          "name": "responseCode",
          "type": "int256"
        },
        {
          "internalType": "bytes",
          "name": "response",
          "type": "bytes"
        }
      ],
      "stateMutability": "nonpayable",
      "type": "function"
    },
    {
      "inputs": [
        {
          "internalType": "address",
          "name": "token",
          "type": "address"
        },
        {
          "internalType": "address",
          "name": "from",
          "type": "address"
        },
        {
          "internalType": "address",
          "name": "to",
          "type": "address"
        },
        {
          "internalType": "uint256",
          "name": "amount",
          "type": "uint256"
        }
      ],
      "name": "transferFrom",
      "outputs": [
        {
          "internalType": "int64",
          "name": "responseCode",
          "type": "int64"
        }
      ],
      "stateMutability": "nonpayable",
      "type": "function"
    },
    {
      "inputs": [
        {
          "internalType": "address",
          "name": "token",
          "type": "address"
        },
        {
          "internalType": "address",
          "name": "sender",
          "type": "address"
        },
        {
          "internalType": "address",
          "name": "recipient",
          "type": "address"
        },
        {
          "internalType": "uint256",
          "name": "tokenId",
          "type": "uint256"
        }
      ],
      "name": "transferFromERC721",
      "outputs": [],
      "stateMutability": "nonpayable",
      "type": "function"
    },
    {
      "inputs": [
        {
          "internalType": "address",
          "name": "token",
          "type": "address"
        },
        {
          "internalType": "address",
          "name": "from",
          "type": "address"
        },
        {
          "internalType": "address",
          "name": "to",
          "type": "address"
        },
        {
          "internalType": "uint256",
          "name": "serialNumber",
          "type": "uint256"
        }
      ],
      "name": "transferFromNFT",
      "outputs": [
        {
          "internalType": "int64",
          "name": "responseCode",
          "type": "int64"
        }
      ],
      "stateMutability": "nonpayable",
      "type": "function"
    },
    {
      "inputs": [
        {
          "internalType": "address",
          "name": "token",
          "type": "address"
        },
        {
          "internalType": "address[]",
          "name": "sender",
          "type": "address[]"
        },
        {
          "internalType": "address[]",
          "name": "receiver",
          "type": "address[]"
        },
        {
          "internalType": "int64[]",
          "name": "serialNumber",
          "type": "int64[]"
        }
      ],
      "name": "transferNFTsPublic",
      "outputs": [
        {
          "internalType": "int256",
          "name": "responseCode",
          "type": "int256"
        }
      ],
      "stateMutability": "nonpayable",
      "type": "function"
    }
  ],
  "transactionHash": "0x7d541b2dbd536b398bda1b19f3c24c28de40d0b25d51f417b00236d7e17ef563",
  "args": [],
  "numDeployments": 3,
  "solcInputHash": "885407f46c155ed7486beb9bff257343",
  "bytecode": "0x60c06040526009608090815268746f6b656e4e616d6560b81b60a0526002906200002a90826200026c565b5060408051808201909152600b81526a1d1bdad95b94de5b589bdb60aa1b60208201526003906200005c90826200026c565b50604080518082019091526004808252636d656d6f60e01b6020830152906200008690826200026c565b50600580546001600160a81b0319167008000000000000271000000000000003e8179055348015620000b757600080fd5b50600160208181527fa6eef7e35abe7026729641147f7915573c7e97b47efa546f5f6e3230263bcb499190915560027fcc69885fda6bcc1a4ace058b4a62bf5e179ea78fd58a1ccd71c22cc9b688792f5560047fd9d16d34ffb15ba3a3d852f0d403e2ce1d691fb54de27ac87cd2f993f3ec330f5560087f7dfe757ecd65cbd7922a9c0161e935dd7fdbcc0e999689c7d31633896b1fc60b5560107fedc95719e9a3b28dd8e80877cb5880a9be7de1a13fc8b05e7999683b6b567643557fe2689cd4a84e23ad2f564004f1c9013e9589d260bde6380aba3ca7e09e4df40c55600660005260407f8f331abe73332f95a25873e8b430885974c0409691f89d643119a11623a7924a5562000338565b634e487b7160e01b600052604160045260246000fd5b600181811c90821680620001f057607f821691505b6020821081036200021157634e487b7160e01b600052602260045260246000fd5b50919050565b601f82111562000267576000816000526020600020601f850160051c81016020861015620002425750805b601f850160051c820191505b8181101562000263578281556001016200024e565b5050505b505050565b81516001600160401b03811115620002885762000288620001c5565b620002a081620002998454620001db565b8462000217565b602080601f831160018114620002d85760008415620002bf5750858301515b600019600386901b1c1916600185901b17855562000263565b600085815260208120601f198616915b828110156200030957888601518255948401946001909101908401620002e8565b5085821015620003285787850151600019600388901b60f8161c191681555b5050505050600190811b01905550565b6132c680620003486000396000f3fe6080604052600436106100dd5760003560e01c80639b23d3d91161007f578063de84a77911610059578063de84a77914610240578063df6c06f514610260578063e0be816a14610280578063f4a01e5b146102a057600080fd5b80639b23d3d9146101ed578063cc2528f01461020d578063d85f74c11461022d57600080fd5b8063618dc65e116100bb578063618dc65e1461015e57806377c444a71461018c5780637df81b901461019f578063970e23d2146101bf57600080fd5b806315dacbea146100e25780633497d39f1461011a5780634d1769d61461012f575b600080fd5b3480156100ee57600080fd5b506101026100fd366004611f5b565b6102c0565b60405160079190910b81526020015b60405180910390f35b61012d610128366004612175565b6103b4565b005b34801561013b57600080fd5b5061014f61014a366004612345565b610ad6565b60405161011193929190612460565b34801561016a57600080fd5b5061017e61017936600461248b565b610b85565b60405161011192919061252a565b61012d61019a366004612543565b610ca3565b3480156101ab57600080fd5b5061012d6101ba366004611f5b565b6111ae565b3480156101cb57600080fd5b506101df6101da3660046125e2565b61121e565b604051908152602001610111565b3480156101f957600080fd5b50610102610208366004611f5b565b611278565b34801561021957600080fd5b506101df6102283660046126f6565b6112bd565b61012d61023b3660046127ed565b611309565b34801561024c57600080fd5b5061014f61025b366004612345565b611649565b34801561026c57600080fd5b506101df61027b36600461280a565b6116d1565b34801561028c57600080fd5b5061012d61029b36600461280a565b6116de565b3480156102ac57600080fd5b506101df6102bb36600461284b565b611745565b6040516001600160a01b038581166024830152848116604483015283166064820152608481018290526000908190819061016790630aed65f560e11b9060a4015b60408051601f198184030181529181526020820180516001600160e01b03166001600160e01b031990941693909317909252905161033f9190612884565b6000604051808303816000865af19150503d806000811461037c576040519150601f19603f3d011682016040523d82523d6000602084013e610381565b606091505b5091509150816103925760156103a6565b808060200190518101906103a691906128b2565b60030b979650505050505050565b60408051600280825260608201909252600091816020015b6103d4611e6e565b8152602001906001900390816103cc5790505090506104046000806040518060200160405280600081525061178d565b81600081518110610417576104176128cd565b602002602001018190525061043e600460006040518060200160405280600081525061178d565b81600181518110610451576104516128cd565b602002602001018190525060006040518060600160405280600060070b8152602001866001600160a01b03168152602001627a120060070b81525090506000604051806101200160405280600280546104a9906128e3565b80601f01602080910402602001604051908101604052809291908181526020018280546104d5906128e3565b80156105225780601f106104f757610100808354040283529160200191610522565b820191906000526020600020905b81548152906001019060200180831161050557829003601f168201915b5050505050815260200160038054610539906128e3565b80601f0160208091040260200160405190810160405280929190818152602001828054610565906128e3565b80156105b25780601f10610587576101008083540402835291602001916105b2565b820191906000526020600020905b81548152906001019060200180831161059557829003601f168201915b50505050508152602001876001600160a01b03168152602001600480546105d8906128e3565b80601f0160208091040260200160405190810160405280929190818152602001828054610604906128e3565b80156106515780601f1061062657610100808354040283529160200191610651565b820191906000526020600020905b81548152906001019060200180831161063457829003601f168201915b505050918352505060016020820152600554600160401b810460070b6040830152600160a01b900460ff16151560608201526080810185905260a0018390529050600060026040519080825280602002602001820160405280156106cf57816020015b6106bc611e8d565b8152602001906001900390816106b45790505b50905085604001511561084a578560e001511561071e576040805160028082526060820190925290816020015b610704611e8d565b8152602001906001900390816106fc579050509050610751565b60408051600180825281830190925290816020015b61073b611e8d565b8152602001906001900390816107335790505090505b6040518060a00160405280876060015160070b815260200187608001516001600160a01b031681526020018760a00151151581526020018760c001511515815260200187600001516001600160a01b0316815250816000815181106107b8576107b86128cd565b60200260200101819052508560e0015115610845576040518060a0016040528087610120015160070b81526020018761014001516001600160a01b0316815260200187610160015115158152602001876101800151151581526020018761010001516001600160a01b031681525081600181518110610839576108396128cd565b60200260200101819052505b61087f565b604080516000808252602082019092529061087b565b610868611e8d565b8152602001906001900390816108605790505b5090505b60408051600280825260608201909252600091816020015b61089f611ebb565b815260200190600190039081610897579050509050856020015115610a39578560a0015115610900576040805160028082526060820190925290816020015b6108e6611ebb565b8152602001906001900390816108de579050509050610933565b60408051600180825281830190925290816020015b61091d611ebb565b8152602001906001900390816109155790505090505b6040518060c00160405280600160070b8152602001600a60070b8152602001876040015160070b815260200187606001516001600160a01b0316815260200187608001511515815260200187600001516001600160a01b0316815250816000815181106109a2576109a26128cd565b60200260200101819052508560a0015115610a34576040518060c00160405280600160070b8152602001600a60070b81526020018760e0015160070b81526020018761010001516001600160a01b03168152602001876101200151151581526020018760c001516001600160a01b031681525081600181518110610a2857610a286128cd565b60200260200101819052505b610a6e565b6040805160008082526020820190925290610a6a565b610a57611ebb565b815260200190600190039081610a4f5790505b5090505b600080610a7c8585856117c2565b909250905060168214610a8e57600080fd5b6040516001600160a01b03821681527f7bb17726df1f3adee8aa00ba8e8bc5d6f182af3bbf77604639cb7f008dd3b4ed9060200160405180910390a150505050505050505050565b6000806060610ae68686866118ea565b60405183815292955090935091506000805160206132718339815191529060200160405180910390a160168314610b1c57600080fd5b7ffc6b20023c4bac8ff1c48c1693e0cea5cd3c2163e9c2da41c58f17dd6d9f163d8282604051610b4d92919061291d565b60405180910390a1610b7b86303384600081518110610b6e57610b6e6128cd565b60200260200101516119e8565b5093509350939050565b600060606000806101676001600160a01b031663618dc65e60e01b8787604051602401610bb3929190612939565b60408051601f198184030181529181526020820180516001600160e01b03166001600160e01b0319909416939093179092529051610bf19190612884565b6000604051808303816000865af19150503d8060008114610c2e576040519150601f19603f3d011682016040523d82523d6000602084013e610c33565b606091505b50915091507f4af4780e06fe8cb9df64b0794fa6f01399af979175bb988e35e0e57e594567bc8282604051610c6992919061295d565b60405180910390a181610c8d57601560405180602001604052806000815250610c91565b6016815b60039190910b97909650945050505050565b60408051600280825260608201909252600091816020015b610cc3611e6e565b815260200190600190039081610cbb579050509050610cf36000806040518060200160405280600081525061178d565b81600081518110610d0657610d066128cd565b6020026020010181905250610d2d600460006040518060200160405280600081525061178d565b81600181518110610d4057610d406128cd565b602002602001018190525060006040518060600160405280600060070b81526020018b6001600160a01b03168152602001627a120060070b8152509050600060405180610120016040528060028054610d98906128e3565b80601f0160208091040260200160405190810160405280929190818152602001828054610dc4906128e3565b8015610e115780601f10610de657610100808354040283529160200191610e11565b820191906000526020600020905b815481529060010190602001808311610df457829003601f168201915b5050505050815260200160038054610e28906128e3565b80601f0160208091040260200160405190810160405280929190818152602001828054610e54906128e3565b8015610ea15780601f10610e7657610100808354040283529160200191610ea1565b820191906000526020600020905b815481529060010190602001808311610e8457829003601f168201915b505050505081526020018c6001600160a01b0316815260200160048054610ec7906128e3565b80601f0160208091040260200160405190810160405280929190818152602001828054610ef3906128e3565b8015610f405780601f10610f1557610100808354040283529160200191610f40565b820191906000526020600020905b815481529060010190602001808311610f2357829003601f168201915b5050509183525050600160208201819052600554600160401b810460070b6040840152600160a01b900460ff16151560608301526080820186905260a0909101849052909150600090604051908082528060200260200182016040528015610fc257816020015b610faf611e8d565b815260200190600190039081610fa75790505b509050881561102e576040518060a001604052808960070b8152602001886001600160a01b03168152602001871515815260200186151581526020018c6001600160a01b03168152508160008151811061101e5761101e6128cd565b6020026020010181905250611063565b604080516000808252602082019092529061105f565b61104c611e8d565b8152602001906001900390816110445790505b5090505b604080516001808252818301909252600091816020015b611082611ebb565b81526020019060019003908161107a5790505090508a1561110c576040518060c00160405280600160070b8152602001600a60070b81526020018a60070b8152602001896001600160a01b0316815260200188151581526020018e6001600160a01b0316815250816000815181106110fc576110fc6128cd565b6020026020010181905250611141565b604080516000808252602082019092529061113d565b61112a611ebb565b8152602001906001900390816111225790505b5090505b60008061114f8585856117c2565b90925090506016821461116157600080fd5b6040516001600160a01b03821681527f7bb17726df1f3adee8aa00ba8e8bc5d6f182af3bbf77604639cb7f008dd3b4ed9060200160405180910390a1505050505050505050505050505050565b6040516323b872dd60e01b81526001600160a01b0384811660048301528381166024830152604482018390528516906323b872dd90606401600060405180830381600087803b15801561120057600080fd5b505af1158015611214573d6000803e3d6000fd5b5050505050505050565b600061123b61122c85612a25565b6112368486612a85565b611a30565b90506000805160206132718339815191528160405161125c91815260200190565b60405180910390a16016811461127157600080fd5b9392505050565b6040516001600160a01b038581166024830152848116604483015283166064820152608481018290526000908190819061016790639b23d3d960e01b9060a401610301565b60006112cb85858585611b0d565b9050600080516020613271833981519152816040516112ec91815260200190565b60405180910390a16016811461130157600080fd5b949350505050565b60408051600280825260608201909252600091816020015b611329611e6e565b8152602001906001900390816113215790505090506113596000806040518060200160405280600081525061178d565b8160008151811061136c5761136c6128cd565b6020026020010181905250611393600460006040518060200160405280600081525061178d565b816001815181106113a6576113a66128cd565b602002602001018190525060006040518060600160405280600060070b8152602001846001600160a01b03168152602001627a120060070b81525090506000604051806101200160405280600280546113fe906128e3565b80601f016020809104026020016040519081016040528092919081815260200182805461142a906128e3565b80156114775780601f1061144c57610100808354040283529160200191611477565b820191906000526020600020905b81548152906001019060200180831161145a57829003601f168201915b505050505081526020016003805461148e906128e3565b80601f01602080910402602001604051908101604052809291908181526020018280546114ba906128e3565b80156115075780601f106114dc57610100808354040283529160200191611507565b820191906000526020600020905b8154815290600101906020018083116114ea57829003601f168201915b50505050508152602001856001600160a01b031681526020016004805461152d906128e3565b80601f0160208091040260200160405190810160405280929190818152602001828054611559906128e3565b80156115a65780601f1061157b576101008083540402835291602001916115a6565b820191906000526020600020905b81548152906001019060200180831161158957829003601f168201915b505050918352505060016020820152600554600160401b810460070b6040830152600160a01b900460ff16151560608201526080810185905260a00183905290506000806115f383611b3d565b90925090506016821461160557600080fd5b6040516001600160a01b03821681527f7bb17726df1f3adee8aa00ba8e8bc5d6f182af3bbf77604639cb7f008dd3b4ed9060200160405180910390a1505050505050565b60008060606116598686866118ea565b60405183815292955090935091506000805160206132718339815191529060200160405180910390a16016831461168f57600080fd5b7ffc6b20023c4bac8ff1c48c1693e0cea5cd3c2163e9c2da41c58f17dd6d9f163d82826040516116c092919061291d565b60405180910390a193509350939050565b600061123b848484611c4d565b60405163095ea7b360e01b81526001600160a01b0383811660048301526024820183905284169063095ea7b390604401600060405180830381600087803b15801561172857600080fd5b505af115801561173c573d6000803e3d6000fd5b50505050505050565b60006117518383611d26565b90506000805160206132718339815191528160405161177291815260200190565b60405180910390a16016811461178757600080fd5b92915050565b611795611e6e565b60405180604001604052806117a986611d5c565b81526020016117b88585611d9b565b9052949350505050565b600080848061010001516000015160070b60001480156117ec57506101008101516040015160070b155b15611802576101008101516276a7006040909101525b6000806101676001600160a01b03163463abb54eb560e01b8a8a8a60405160240161182f93929190612e53565b60408051601f198184030181529181526020820180516001600160e01b03166001600160e01b031990941693909317909252905161186d9190612884565b60006040518083038185875af1925050503d80600081146118aa576040519150601f19603f3d011682016040523d82523d6000602084013e6118af565b606091505b5091509150816118c257601560006118d6565b808060200190518101906118d69190612efa565b60039190910b999098509650505050505050565b60008060606000806101676001600160a01b031663e0f4059a60e01b89898960405160240161191b93929190612f26565b60408051601f198184030181529181526020820180516001600160e01b03166001600160e01b03199094169390931790925290516119599190612884565b6000604051808303816000865af19150503d8060008114611996576040519150601f19603f3d011682016040523d82523d6000602084013e61199b565b606091505b5091509150816119be5760408051600080825260208201909252601591906119d2565b808060200190518101906119d29190612fa4565b60039290920b9a90995090975095505050505050565b6040516001600160a01b038581166024830152848116604483015283166064820152600782900b60848201526000908190819061016790635cfc901160e01b9060a401610301565b60008060006101676001600160a01b0316630e71804f60e01b8686604051602401611a5c9291906130b8565b60408051601f198184030181529181526020820180516001600160e01b03166001600160e01b0319909416939093179092529051611a9a9190612884565b6000604051808303816000865af19150503d8060008114611ad7576040519150601f19603f3d011682016040523d82523d6000602084013e611adc565b606091505b509150915081611aed576015611b01565b80806020019051810190611b0191906128b2565b60030b95945050505050565b60008060006101676001600160a01b0316632c4ba19160e01b8888888860405160240161030194939291906131f2565b600080828061010001516000015160070b6000148015611b6757506101008101516040015160070b155b15611b7d576101008101516276a7006040909101525b6000806101676001600160a01b03163463ea83f29360e01b88604051602401611ba69190613247565b60408051601f198184030181529181526020820180516001600160e01b03166001600160e01b0319909416939093179092529051611be49190612884565b60006040518083038185875af1925050503d8060008114611c21576040519150601f19603f3d011682016040523d82523d6000602084013e611c26565b606091505b509150915081611c395760156000610c91565b80806020019051810190610c919190612efa565b604080516001600160a01b03858116602483015284166044820152606480820184905282518083039091018152608490910182526020810180516001600160e01b03166307336aaf60e41b17905290516000918291829161016791611cb29190612884565b6000604051808303816000865af19150503d8060008114611cef576040519150601f19603f3d011682016040523d82523d6000602084013e611cf4565b606091505b509150915081611d05576015611d19565b80806020019051810190611d1991906128b2565b60030b9695505050505050565b6040516001600160a01b03838116602483015282166044820152600090819081906101679063248a35ef60e11b90606401611a5c565b600060016000836006811115611d7457611d7461325a565b6006811115611d8557611d8561325a565b8152602001908152602001600020549050919050565b611da3611ef0565b6000836004811115611db757611db761325a565b03611dc55760018152611787565b6001836004811115611dd957611dd961325a565b03611df4576000546001600160a01b03166020820152611787565b6002836004811115611e0857611e0861325a565b03611e195760408101829052611787565b6003836004811115611e2d57611e2d61325a565b03611e3e5760608101829052611787565b6004836004811115611e5257611e5261325a565b03611787576000546001600160a01b0316608082015292915050565b604051806040016040528060008152602001611e88611ef0565b905290565b6040805160a08101825260008082526020820181905291810182905260608101829052608081019190915290565b6040805160c081018252600080825260208201819052918101829052606081018290526080810182905260a081019190915290565b6040518060a0016040528060001515815260200160006001600160a01b03168152602001606081526020016060815260200160006001600160a01b031681525090565b6001600160a01b0381168114611f4857600080fd5b50565b8035611f5681611f33565b919050565b60008060008060808587031215611f7157600080fd5b8435611f7c81611f33565b93506020850135611f8c81611f33565b92506040850135611f9c81611f33565b9396929550929360600135925050565b634e487b7160e01b600052604160045260246000fd5b60405161014081016001600160401b0381118282101715611fe557611fe5611fac565b60405290565b6040516101a081016001600160401b0381118282101715611fe557611fe5611fac565b604051606081016001600160401b0381118282101715611fe557611fe5611fac565b604051608081016001600160401b0381118282101715611fe557611fe5611fac565b604051601f8201601f191681016001600160401b038111828210171561207a5761207a611fac565b604052919050565b80358015158114611f5657600080fd5b8060070b8114611f4857600080fd5b8035611f5681612092565b600061014082840312156120bf57600080fd5b6120c7611fc2565b90506120d282611f4b565b81526120e060208301612082565b60208201526120f1604083016120a1565b604082015261210260608301611f4b565b606082015261211360808301612082565b608082015261212460a08301612082565b60a082015261213560c08301611f4b565b60c082015261214660e083016120a1565b60e0820152610100612159818401611f4b565b9082015261012061216b838201612082565b9082015292915050565b600080600083850361030081121561218c57600080fd5b843561219781611f33565b93506101a0601f1982018113156121ad57600080fd5b6121b5611feb565b91506121c360208701611f4b565b82526121d160408701612082565b60208301526121e260608701612082565b60408301526121f3608087016120a1565b606083015261220460a08701611f4b565b608083015261221560c08701612082565b60a083015261222660e08701612082565b60c0830152610100612239818801612082565b60e084015261012061224c818901611f4b565b8285015261014091506122608289016120a1565b90840152610160612272888201611f4b565b828501526101809150612286828901612082565b90840152612295878301612082565b908301525091506122aa856101c086016120ac565b90509250925092565b60006001600160401b038211156122cc576122cc611fac565b5060051b60200190565b600082601f8301126122e757600080fd5b81356001600160401b0381111561230057612300611fac565b612313601f8201601f1916602001612052565b81815284602083860101111561232857600080fd5b816020850160208301376000918101602001919091529392505050565b60008060006060848603121561235a57600080fd5b833561236581611f33565b925060208481013561237681612092565b925060408501356001600160401b038082111561239257600080fd5b818701915087601f8301126123a657600080fd5b81356123b96123b4826122b3565b612052565b81815260059190911b8301840190848101908a8311156123d857600080fd5b8585015b83811015612410578035858111156123f45760008081fd5b6124028d89838a01016122d6565b8452509186019186016123dc565b508096505050505050509250925092565b60008151808452602080850194506020840160005b8381101561245557815160070b87529582019590820190600101612436565b509495945050505050565b8381528260070b60208201526060604082015260006124826060830184612421565b95945050505050565b6000806040838503121561249e57600080fd5b82356124a981611f33565b915060208301356001600160401b038111156124c457600080fd5b6124d0858286016122d6565b9150509250929050565b60005b838110156124f55781810151838201526020016124dd565b50506000910152565b600081518084526125168160208601602086016124da565b601f01601f19169290920160200192915050565b82815260406020820152600061130160408301846124fe565b600080600080600080600080610100898b03121561256057600080fd5b883561256b81611f33565b9750602089013561257b81611f33565b965061258960408a01612082565b955061259760608a01612082565b945060808901356125a781612092565b935060a08901356125b781611f33565b92506125c560c08a01612082565b91506125d360e08a01612082565b90509295985092959890939650565b6000806000604084860312156125f757600080fd5b83356001600160401b038082111561260e57600080fd5b908501906020828803121561262257600080fd5b9093506020850135908082111561263857600080fd5b818601915086601f83011261264c57600080fd5b81358181111561265b57600080fd5b8760208260051b850101111561267057600080fd5b6020830194508093505050509250925092565b600082601f83011261269457600080fd5b813560206126a46123b4836122b3565b8083825260208201915060208460051b8701019350868411156126c657600080fd5b602086015b848110156126eb5780356126de81611f33565b83529183019183016126cb565b509695505050505050565b6000806000806080858703121561270c57600080fd5b843561271781611f33565b93506020858101356001600160401b038082111561273457600080fd5b61274089838a01612683565b9550604088013591508082111561275657600080fd5b61276289838a01612683565b9450606088013591508082111561277857600080fd5b508601601f8101881361278a57600080fd5b80356127986123b4826122b3565b81815260059190911b8201830190838101908a8311156127b757600080fd5b928401925b828410156127de5783356127cf81612092565b825292840192908401906127bc565b979a9699509497505050505050565b6000602082840312156127ff57600080fd5b813561127181611f33565b60008060006060848603121561281f57600080fd5b833561282a81611f33565b9250602084013561283a81611f33565b929592945050506040919091013590565b6000806040838503121561285e57600080fd5b823561286981611f33565b9150602083013561287981611f33565b809150509250929050565b600082516128968184602087016124da565b9190910192915050565b8051600381900b8114611f5657600080fd5b6000602082840312156128c457600080fd5b611271826128a0565b634e487b7160e01b600052603260045260246000fd5b600181811c908216806128f757607f821691505b60208210810361291757634e487b7160e01b600052602260045260246000fd5b50919050565b8260070b81526040602082015260006113016040830184612421565b6001600160a01b0383168152604060208201819052600090611301908301846124fe565b821515815260406020820152600061130160408301846124fe565b600082601f83011261298957600080fd5b813560206129996123b4836122b3565b828152606092830285018201928282019190878511156129b857600080fd5b8387015b85811015612a185781818a0312156129d45760008081fd5b6129dc61200e565b81356129e781611f33565b8152818601356129f681612092565b818701526040612a07838201612082565b9082015284529284019281016129bc565b5090979650505050505050565b600060208236031215612a3757600080fd5b604051602081016001600160401b038282108183111715612a5a57612a5a611fac565b816040528435915080821115612a6f57600080fd5b50612a7c36828601612978565b82525092915050565b6000612a936123b4846122b3565b80848252602080830192508560051b850136811115612ab157600080fd5b855b81811015612c0b5780356001600160401b0380821115612ad35760008081fd5b81890191506060808336031215612aea5760008081fd5b612af261200e565b8335612afd81611f33565b81528387013583811115612b115760008081fd5b612b1d36828701612978565b888301525060408085013584811115612b365760008081fd5b949094019336601f860112612b4d57600093508384fd5b84359350612b5d6123b4856122b3565b84815260079490941b85018801938881019036861115612b7d5760008081fd5b958901955b85871015612bf35760808736031215612b9b5760008081fd5b612ba3612030565b8735612bae81611f33565b8152878b0135612bbd81611f33565b818c015287840135612bce81612092565b81850152612bdd888701612082565b8187015282526080969096019590890190612b82565b91830191909152508852505050938201938201612ab3565b50919695505050505050565b600082825180855260208086019550808260051b84010181860160005b84811015612a1857858303601f1901895281518051845284015160408585018190528151151581860152818601516001600160a01b039081166060808801919091529183015160a06080808901829052919390929091612c9760e08a01866124fe565b92860151898403603f1901858b0152929450612cb385846124fe565b9501511660c09790970196909652505098840198925090830190600101612c34565b60006101608251818552612ceb828601826124fe565b91505060208301518482036020860152612d0582826124fe565b9150506040830151612d2260408601826001600160a01b03169052565b5060608301518482036060860152612d3a82826124fe565b9150506080830151612d50608086018215159052565b5060a0830151612d6560a086018260070b9052565b5060c0830151612d7960c086018215159052565b5060e083015184820360e0860152612d918282612c17565b610100858101518051600790810b8984015260208201516001600160a01b03166101208a01526040820151900b61014089015291935091505090949350505050565b60008151808452602080850194506020840160005b838110156124555781518051600790810b895284820151810b858a015260408083015190910b908901526060808201516001600160a01b03908116918a01919091526080808301511515908a015260a091820151169088015260c09096019590820190600101612de8565b60006060808352612e676060840187612cd5565b83810360208581019190915286518083528782019282019060005b81811015612ed9578451805160070b8452848101516001600160a01b03908116868601526040808301511515908601528782015115158886015260809182015116908401529383019360a090920191600101612e82565b50508581036040870152612eed8188612dd3565b9998505050505050505050565b60008060408385031215612f0d57600080fd5b612f16836128a0565b9150602083015161287981611f33565b60006060820160018060a01b038616835260208560070b60208501526060604085015281855180845260808601915060808160051b87010193506020870160005b82811015612f9557607f19888703018452612f838683516124fe565b95509284019290840190600101612f67565b50939998505050505050505050565b600080600060608486031215612fb957600080fd5b612fc2846128a0565b9250602080850151612fd381612092565b60408601519093506001600160401b03811115612fef57600080fd5b8501601f8101871361300057600080fd5b805161300e6123b4826122b3565b81815260059190911b8201830190838101908983111561302d57600080fd5b928401925b8284101561305457835161304581612092565b82529284019290840190613032565b80955050505050509250925092565b60008151808452602080850194506020840160005b8381101561245557815180516001600160a01b031688528381015160070b8489015260409081015115159088015260609096019590820190600101613078565b6000604080835260608551602080848701526130d76060870183613063565b9150858203818701528187518084528284019150828160051b850101838a0160005b838110156131a757868303601f19018552815180516001600160a01b039081168552878201518886018b90526131318b870182613063565b928c0151868403878e01528051808552908a0193600092508a01905b808310156131915784518051851683528b81015185168c8401528e81015160070b8f8401528d015115158d830152938a01936001929092019160809091019061314d565b50978901979550505091860191506001016130f9565b50909b9a5050505050505050505050565b60008151808452602080850194506020840160005b838110156124555781516001600160a01b0316875295820195908201906001016131cd565b6001600160a01b0385168152608060208201819052600090613216908301866131b8565b828103604084015261322881866131b8565b9050828103606084015261323c8185612421565b979650505050505050565b6020815260006112716020830184612cd5565b634e487b7160e01b600052602160045260246000fdfe90a5cf4cffe88b4edbb041cfc7a8a812c48a5ec30b84640fb37690875168e3aaa2646970667358221220bc7ba8e4ff7cd1a031bc8691226fc79975c1430e0882df5f3e7fc0c59859ed3064736f6c63430008180033",
  "devdoc": {
    "kind": "dev",
    "methods": {
      "redirectForToken(address,bytes)": {
        "params": {
          "encodedFunctionSelector": "The function selector from the ERC20 interface + the bytes input for the function called",
          "token": "The token address"
        },
        "returns": {
          "response": "The result of the call that had been encoded and sent for execution.",
          "responseCode": "The response code for the status of the request. SUCCESS is 22."
        }
      },
      "transferFrom(address,address,address,uint256)": {
        "params": {
          "amount": "The amount of tokens to transfer from `from` to `to`",
          "from": "The account address of the owner of the token, on the behalf of which to transfer `amount` tokens",
          "to": "The account address of the receiver of the `amount` tokens",
          "token": "The address of the fungible Hedera token to transfer"
        },
        "returns": {
          "responseCode": "The response code for the status of the request. SUCCESS is 22."
        }
      },
      "transferFromNFT(address,address,address,uint256)": {
        "params": {
          "from": "The account address of the owner of `serialNumber` of `token`",
          "serialNumber": "The NFT serial number to transfer",
          "to": "The account address of the receiver of `serialNumber`",
          "token": "The address of the non-fungible Hedera token to transfer"
        },
        "returns": {
          "responseCode": "The response code for the status of the request. SUCCESS is 22."
        }
      }
    },
    "version": 1
  },
  "userdoc": {
    "events": {
      "CallResponseEvent(bool,bytes)": {
        "notice": "Generic event"
      }
    },
    "kind": "user",
    "methods": {
      "redirectForToken(address,bytes)": {
        "notice": "Redirect for token"
      },
      "transferFrom(address,address,address,uint256)": {
        "notice": "Only applicable to fungible tokens"
      },
      "transferFromNFT(address,address,address,uint256)": {
        "notice": "Transfers `serialNumber` of `token` from `from` to `to` using the allowance mechanism. Only applicable to NFT tokens"
      }
    },
    "version": 1
  },
  "storageLayout": {
    "storage": [
      {
        "astId": 8842,
        "contract": "contracts/tokens/RariHedera721DropFactory.sol:RariHedera721DropFactory",
        "label": "supplyContract",
        "offset": 0,
        "slot": "0",
        "type": "t_address"
      },
      {
        "astId": 8847,
        "contract": "contracts/tokens/RariHedera721DropFactory.sol:RariHedera721DropFactory",
        "label": "keyTypes",
        "offset": 0,
        "slot": "1",
        "type": "t_mapping(t_enum(KeyType)8855,t_uint256)"
      },
      {
        "astId": 19149,
        "contract": "contracts/tokens/RariHedera721DropFactory.sol:RariHedera721DropFactory",
        "label": "name",
        "offset": 0,
        "slot": "2",
        "type": "t_string_storage"
      },
      {
        "astId": 19152,
        "contract": "contracts/tokens/RariHedera721DropFactory.sol:RariHedera721DropFactory",
        "label": "symbol",
        "offset": 0,
        "slot": "3",
        "type": "t_string_storage"
      },
      {
        "astId": 19155,
        "contract": "contracts/tokens/RariHedera721DropFactory.sol:RariHedera721DropFactory",
        "label": "memo",
        "offset": 0,
        "slot": "4",
        "type": "t_string_storage"
      },
      {
        "astId": 19158,
        "contract": "contracts/tokens/RariHedera721DropFactory.sol:RariHedera721DropFactory",
        "label": "initialTotalSupply",
        "offset": 0,
        "slot": "5",
        "type": "t_int64"
      },
      {
        "astId": 19161,
        "contract": "contracts/tokens/RariHedera721DropFactory.sol:RariHedera721DropFactory",
        "label": "maxSupply",
        "offset": 8,
        "slot": "5",
        "type": "t_int64"
      },
      {
        "astId": 19164,
        "contract": "contracts/tokens/RariHedera721DropFactory.sol:RariHedera721DropFactory",
        "label": "decimals",
        "offset": 16,
        "slot": "5",
        "type": "t_int32"
      },
      {
        "astId": 19167,
        "contract": "contracts/tokens/RariHedera721DropFactory.sol:RariHedera721DropFactory",
        "label": "freezeDefaultStatus",
        "offset": 20,
        "slot": "5",
        "type": "t_bool"
      }
    ],
    "types": {
      "t_address": {
        "encoding": "inplace",
        "label": "address",
        "numberOfBytes": "20"
      },
      "t_bool": {
        "encoding": "inplace",
        "label": "bool",
        "numberOfBytes": "1"
      },
      "t_enum(KeyType)8855": {
        "encoding": "inplace",
        "label": "enum KeyHelper.KeyType",
        "numberOfBytes": "1"
      },
      "t_int32": {
        "encoding": "inplace",
        "label": "int32",
        "numberOfBytes": "4"
      },
      "t_int64": {
        "encoding": "inplace",
        "label": "int64",
        "numberOfBytes": "8"
      },
      "t_mapping(t_enum(KeyType)8855,t_uint256)": {
        "encoding": "mapping",
        "key": "t_enum(KeyType)8855",
        "label": "mapping(enum KeyHelper.KeyType => uint256)",
        "numberOfBytes": "32",
        "value": "t_uint256"
      },
      "t_string_storage": {
        "encoding": "bytes",
        "label": "string",
        "numberOfBytes": "32"
      },
      "t_uint256": {
        "encoding": "inplace",
        "label": "uint256",
        "numberOfBytes": "32"
      }
    }
  }
}