{
  "address": "0x48838abEAE900a2FC9fC4eC95a47F29a6c1B7647",
  "abi": [
    {
      "anonymous": false,
      "inputs": [
        {
          "indexed": false,
          "internalType": "bool",
          "name": "",
          "type": "bool"
        },
        {
          "indexed": false,
          "internalType": "bytes",
          "name": "",
          "type": "bytes"
        }
      ],
      "name": "CallResponseEvent",
      "type": "event"
    },
    {
      "anonymous": false,
      "inputs": [
        {
          "indexed": false,
          "internalType": "address",
          "name": "tokenAddress",
          "type": "address"
        }
      ],
      "name": "CreatedToken",
      "type": "event"
    },
    {
      "inputs": [
        {
          "internalType": "address",
          "name": "",
          "type": "address"
        }
      ],
      "name": "baseUri",
      "outputs": [
        {
          "internalType": "string",
          "name": "",
          "type": "string"
        }
      ],
      "stateMutability": "view",
      "type": "function"
    },
    {
      "inputs": [
        {
          "internalType": "string",
          "name": "input",
          "type": "string"
        }
      ],
      "name": "convertStringToBytes",
      "outputs": [
        {
          "internalType": "bytes",
          "name": "",
          "type": "bytes"
        }
      ],
      "stateMutability": "pure",
      "type": "function"
    },
    {
      "inputs": [
        {
          "internalType": "string",
          "name": "name",
          "type": "string"
        },
        {
          "internalType": "string",
          "name": "symbol",
          "type": "string"
        },
        {
          "internalType": "string",
          "name": "memo",
          "type": "string"
        },
        {
          "internalType": "int64",
          "name": "maxSupply",
          "type": "int64"
        },
        {
          "internalType": "int64",
          "name": "autoRenewPeriod",
          "type": "int64"
        }
      ],
      "name": "createNftCollection",
      "outputs": [
        {
          "internalType": "address",
          "name": "",
          "type": "address"
        }
      ],
      "stateMutability": "payable",
      "type": "function"
    },
    {
      "inputs": [
        {
          "internalType": "string",
          "name": "name",
          "type": "string"
        },
        {
          "internalType": "string",
          "name": "symbol",
          "type": "string"
        },
        {
          "internalType": "string",
          "name": "memo",
          "type": "string"
        },
        {
          "internalType": "int64",
          "name": "maxSupply",
          "type": "int64"
        },
        {
          "internalType": "string",
          "name": "uri",
          "type": "string"
        },
        {
          "components": [
            {
              "internalType": "address",
              "name": "feeCollector",
              "type": "address"
            },
            {
              "internalType": "bool",
              "name": "isRoyaltyFee",
              "type": "bool"
            },
            {
              "internalType": "bool",
              "name": "isFixedFee",
              "type": "bool"
            },
            {
              "internalType": "int64",
              "name": "feeAmount",
              "type": "int64"
            },
            {
              "internalType": "address",
              "name": "fixedFeeTokenAddress",
              "type": "address"
            },
            {
              "internalType": "bool",
              "name": "useHbarsForPayment",
              "type": "bool"
            },
            {
              "internalType": "bool",
              "name": "useCurrentTokenForPayment",
              "type": "bool"
            }
          ],
          "internalType": "struct RariNFTCreator.CreateNftCollectionParams",
          "name": "params",
          "type": "tuple"
        }
      ],
      "name": "createNonFungibleTokenWithCustomFeesPublic",
      "outputs": [],
      "stateMutability": "payable",
      "type": "function"
    },
    {
      "inputs": [
        {
          "internalType": "int64",
          "name": "value",
          "type": "int64"
        }
      ],
      "name": "int64ToString",
      "outputs": [
        {
          "internalType": "string",
          "name": "",
          "type": "string"
        }
      ],
      "stateMutability": "pure",
      "type": "function"
    },
    {
      "inputs": [
        {
          "internalType": "address",
          "name": "token",
          "type": "address"
        }
      ],
      "name": "mintNft",
      "outputs": [
        {
          "internalType": "int64",
          "name": "",
          "type": "int64"
        }
      ],
      "stateMutability": "nonpayable",
      "type": "function"
    },
    {
      "inputs": [
        {
          "internalType": "address",
          "name": "token",
          "type": "address"
        },
        {
          "internalType": "bytes[]",
          "name": "metadata",
          "type": "bytes[]"
        }
      ],
      "name": "mintNftWithMetadata",
      "outputs": [
        {
          "internalType": "int64",
          "name": "",
          "type": "int64"
        }
      ],
      "stateMutability": "nonpayable",
      "type": "function"
    },
    {
      "inputs": [
        {
          "internalType": "address",
          "name": "token",
          "type": "address"
        },
        {
          "internalType": "bytes",
          "name": "encodedFunctionSelector",
          "type": "bytes"
        }
      ],
      "name": "redirectForToken",
      "outputs": [
        {
          "internalType": "int256",
          "name": "responseCode",
          "type": "int256"
        },
        {
          "internalType": "bytes",
          "name": "response",
          "type": "bytes"
        }
      ],
      "stateMutability": "nonpayable",
      "type": "function"
    },
    {
      "inputs": [
        {
          "internalType": "address",
          "name": "token",
          "type": "address"
        },
        {
          "internalType": "address",
          "name": "from",
          "type": "address"
        },
        {
          "internalType": "address",
          "name": "to",
          "type": "address"
        },
        {
          "internalType": "uint256",
          "name": "amount",
          "type": "uint256"
        }
      ],
      "name": "transferFrom",
      "outputs": [
        {
          "internalType": "int64",
          "name": "responseCode",
          "type": "int64"
        }
      ],
      "stateMutability": "nonpayable",
      "type": "function"
    },
    {
      "inputs": [
        {
          "internalType": "address",
          "name": "token",
          "type": "address"
        },
        {
          "internalType": "address",
          "name": "from",
          "type": "address"
        },
        {
          "internalType": "address",
          "name": "to",
          "type": "address"
        },
        {
          "internalType": "uint256",
          "name": "serialNumber",
          "type": "uint256"
        }
      ],
      "name": "transferFromNFT",
      "outputs": [
        {
          "internalType": "int64",
          "name": "responseCode",
          "type": "int64"
        }
      ],
      "stateMutability": "nonpayable",
      "type": "function"
    },
    {
      "inputs": [
        {
          "internalType": "address",
          "name": "token",
          "type": "address"
        },
        {
          "internalType": "address",
          "name": "receiver",
          "type": "address"
        },
        {
          "internalType": "int64",
          "name": "serial",
          "type": "int64"
        }
      ],
      "name": "transferNft",
      "outputs": [
        {
          "internalType": "int256",
          "name": "",
          "type": "int256"
        }
      ],
      "stateMutability": "nonpayable",
      "type": "function"
    }
  ],
  "transactionHash": "0xf99d56f14db70fd103ae7ef3874c06f269b35fbf593979704248d5b772b29a54",
  "args": [],
  "numDeployments": 1,
  "solcInputHash": "836e6e9d6ae096bbf34159396047cea2",
  "bytecode": "0x608060405234801561001057600080fd5b50600160208181527fa6eef7e35abe7026729641147f7915573c7e97b47efa546f5f6e3230263bcb499190915560027fcc69885fda6bcc1a4ace058b4a62bf5e179ea78fd58a1ccd71c22cc9b688792f5560047fd9d16d34ffb15ba3a3d852f0d403e2ce1d691fb54de27ac87cd2f993f3ec330f5560087f7dfe757ecd65cbd7922a9c0161e935dd7fdbcc0e999689c7d31633896b1fc60b5560107fedc95719e9a3b28dd8e80877cb5880a9be7de1a13fc8b05e7999683b6b567643557fe2689cd4a84e23ad2f564004f1c9013e9589d260bde6380aba3ca7e09e4df40c55600660005260407f8f331abe73332f95a25873e8b430885974c0409691f89d643119a11623a7924a556130da806101276000396000f3fe60806040526004361061009c5760003560e01c806382b562aa1161006457806382b562aa146101695780639b23d3d914610197578063acd04219146101b7578063c0e82be1146101d7578063cb6b8a9514610202578063e9c2e14b1461022057600080fd5b8063065c53c6146100a157806315dacbea146100d957806342adc8e8146100f9578063618dc65e14610126578063694aa00814610154575b600080fd5b3480156100ad57600080fd5b506100c16100bc366004611bec565b610240565b60405160079190910b81526020015b60405180910390f35b3480156100e557600080fd5b506100c16100f4366004611cb1565b61056c565b34801561010557600080fd5b50610119610114366004611d02565b610660565b6040516100d09190611d76565b34801561013257600080fd5b50610146610141366004611d89565b6106fa565b6040516100d0929190611dd8565b610167610162366004611ede565b610818565b005b34801561017557600080fd5b50610189610184366004611fac565b610c1e565b6040519081526020016100d0565b3480156101a357600080fd5b506100c16101b2366004611cb1565b610c95565b3480156101c357600080fd5b506101196101d2366004611ff7565b610cda565b6101ea6101e5366004612014565b610e7c565b6040516001600160a01b0390911681526020016100d0565b34801561020e57600080fd5b5061011961021d3660046120c3565b90565b34801561022c57600080fd5b506100c161023b366004611d02565b61100b565b60006102806040518060400160405280601d81526020017f4c6f6767696e6720696e707574206d657461646174612061727261793a0000008152506111ce565b60005b82518110156102e7576102bd6040518060400160405280600f81526020016e169036b2ba30b230ba30ad92b9ae9d60891b81525082611214565b6102df8382815181106102d2576102d26120f7565b602002602001015161125d565b600101610283565b506000806102f7856000866112a0565b6001600160a01b03881660009081526002602052604081208054949650919450929091506103249061210d565b80601f01602080910402602001604051908101604052809291908181526020018280546103509061210d565b801561039d5780601f106103725761010080835404028352916020019161039d565b820191906000526020600020905b81548152906001019060200180831161038057829003601f168201915b505050505090506000806103b08861139e565b9092509050601682146103de5760405162461bcd60e51b81526004016103d590612147565b60405180910390fd5b60208101516000846103ef83610cda565b604051602001610400929190612188565b60408051808303601f190181526001808452838301909252925060009190816020015b6060815260200190600190039081610423579050509050818160008151811061044e5761044e6120f7565b60200260200101819052506104976040518060400160405280601981526020017f47656e657261746564206d657461646174612061727261793a000000000000008152506111ce565b60005b81518110156104f4576104d760405180604001604052806012815260200171169036b2ba30b230ba30b3b2b72d92b9ae9d60711b81525082611214565b6104ec8282815181106102d2576102d26120f7565b60010161049a565b50610520604051806040016040528060098152602001683a37b5b2b72ab9349d60b91b8152508361146e565b601688146105405760405162461bcd60e51b81526004016103d590612147565b86600081518110610553576105536120f7565b6020026020010151985050505050505050505b92915050565b6040516001600160a01b038581166024830152848116604483015283166064820152608481018290526000908190819061016790630aed65f560e11b9060a4015b60408051601f198184030181529181526020820180516001600160e01b03166001600160e01b03199094169390931790925290516105eb91906121d6565b6000604051808303816000865af19150503d8060008114610628576040519150601f19603f3d011682016040523d82523d6000602084013e61062d565b606091505b50915091508161063e576015610652565b808060200190518101906106529190612204565b60030b979650505050505050565b600260205260009081526040902080546106799061210d565b80601f01602080910402602001604051908101604052809291908181526020018280546106a59061210d565b80156106f25780601f106106c7576101008083540402835291602001916106f2565b820191906000526020600020905b8154815290600101906020018083116106d557829003601f168201915b505050505081565b600060606000806101676001600160a01b031663618dc65e60e01b878760405160240161072892919061221f565b60408051601f198184030181529181526020820180516001600160e01b03166001600160e01b031990941693909317909252905161076691906121d6565b6000604051808303816000865af19150503d80600081146107a3576040519150601f19603f3d011682016040523d82523d6000602084013e6107a8565b606091505b50915091507f4af4780e06fe8cb9df64b0794fa6f01399af979175bb988e35e0e57e594567bc82826040516107de929190612243565b60405180910390a18161080257601560405180602001604052806000815250610806565b6016815b60039190910b97909650945050505050565b60408051600280825260608201909252600091816020015b610838611932565b815260200190600190039081610830579050509050610868600080604051806020016040528060008152506114b3565b8160008151811061087b5761087b6120f7565b60200260200101819052506108a260046000604051806020016040528060008152506114b3565b816001815181106108b5576108b56120f7565b6020908102919091018101919091526040805160608082018352600080835230838601819052627a1200848601528451610120810186528d81529586018c905285850152908401899052600160808501819052600789900b60a086015260c0850182905260e08501869052610100850183905283518181528085019094529193929091816020015b6040805160a08101825260008082526020808301829052928201819052606082018190526080820152825260001990920191018161093d5790505090508460400151156109fb576040518060a00160405280866060015160070b815260200186608001516001600160a01b031681526020018660a00151151581526020018660c001511515815260200186600001516001600160a01b0316815250816000815181106109eb576109eb6120f7565b6020026020010181905250610a50565b6040805160008082526020820190925290610a4c565b6040805160a081018252600080825260208083018290529282018190526060820181905260808201528252600019909201910181610a115790505b5090505b604080516001808252818301909252600091816020015b6040805160c08101825260008082526020808301829052928201819052606082018190526080820181905260a08201528252600019909201910181610a67579050509050856020015115610b34576040518060c00160405280600160070b8152602001600a60070b8152602001876060015160070b815260200187608001516001600160a01b031681526020018760a001511515815260200187600001516001600160a01b031681525081600081518110610b2457610b246120f7565b6020026020010181905250610b90565b6040805160008082526020820190925290610b8c565b6040805160c08101825260008082526020808301829052928201819052606082018190526080820181905260a08201528252600019909201910181610b4a5790505b5090505b600080610b9e8585856114e8565b909250905060168214610bb057600080fd5b6001600160a01b0381166000908152600260205260409020610bd28a826122af565b506040516001600160a01b03821681527f7bb17726df1f3adee8aa00ba8e8bc5d6f182af3bbf77604639cb7f008dd3b4ed9060200160405180910390a150505050505050505050505050565b600080610c2d85308686611610565b905060168114610c8d5760405162461bcd60e51b815260206004820152602560248201527f4661696c656420746f207472616e73666572206e6f6e2d66756e6769626c65206044820152643a37b5b2b760d91b60648201526084016103d5565b949350505050565b6040516001600160a01b038581166024830152848116604483015283166064820152608481018290526000908190819061016790639b23d3d960e01b9060a4016105ad565b60608160070b600003610d045750506040805180820190915260018152600360fc1b602082015290565b6000808360070b129050600081610d1b5783610d24565b610d2484612384565b90506000815b6001600160401b03811615610d595781610d43816123ab565b9250610d529050600a826123da565b9050610d2a565b8315610d6d5781610d69816123ab565b9250505b6000826001600160401b03811115610d8757610d87611a77565b6040519080825280601f01601f191660200182016040528015610db1576020820181803683370190505b5090506000610dc1600185612400565b90505b6001600160401b03851615610e3b57610dde600a86612413565b610de9906030612439565b60f81b828281518110610dfe57610dfe6120f7565b60200101906001600160f81b031916908160001a905350610e20600a866123da565b94508015610e365780610e3281612460565b9150505b610dc4565b8515610e7157602d60f81b82600081518110610e5957610e596120f7565b60200101906001600160f81b031916908160001a9053505b509695505050505050565b604080516001808252818301909252600091829190816020015b610e9e611932565b815260200190600190039081610e96579050509050610ec06004600130611658565b81600081518110610ed357610ed36120f7565b6020026020010181905250610ee6611951565b8781526020810187905260608101869052306040820181905260016080830152600786900b60a083015260e08201839052600060c0830152610f4f908560408051606081018252600081526001600160a01b0393909316602084015260079190910b9082015290565b610100820152600080610f6183611683565b909250905060168214610fc25760405162461bcd60e51b815260206004820152602360248201527f4661696c656420746f20637265617465206e6f6e2d66756e6769626c6520746f60448201526235b2b760e91b60648201526084016103d5565b6040516001600160a01b03821681527f7bb17726df1f3adee8aa00ba8e8bc5d6f182af3bbf77604639cb7f008dd3b4ed9060200160405180910390a19998505050505050505050565b6001600160a01b038116600090815260026020526040812080548291906110319061210d565b80601f016020809104026020016040519081016040528092919081815260200182805461105d9061210d565b80156110aa5780601f1061107f576101008083540402835291602001916110aa565b820191906000526020600020905b81548152906001019060200180831161108d57829003601f168201915b505050505090506000806110bd8561139e565b9092509050601682146110e25760405162461bcd60e51b81526004016103d590612147565b6000816020015160016110f59190612477565b905060008461110383610cda565b604051602001611114929190612188565b60408051808303601f190181526001808452838301909252925060009190816020015b60608152602001906001900390816111375790505090508181600081518110611162576111626120f7565b602002602001018190525060008061117c8a6000856112a0565b9250509150601660030b82146111a45760405162461bcd60e51b81526004016103d590612147565b806000815181106111b7576111b76120f7565b602002602001015198505050505050505050919050565b611211816040516024016111e29190611d76565b60408051601f198184030181529190526020810180516001600160e01b031663104c13eb60e21b179052611793565b50565b611259828260405160240161122a9291906124a6565b60408051601f198184030181529190526020810180516001600160e01b0316632d839cb360e21b179052611793565b5050565b611211816040516024016112719190611d76565b60408051601f198184030181529190526020810180516001600160e01b03166305f3bfab60e11b179052611793565b60008060606000806101676001600160a01b031663e0f4059a60e01b8989896040516024016112d1939291906124c8565b60408051601f198184030181529181526020820180516001600160e01b03166001600160e01b031990941693909317909252905161130f91906121d6565b6000604051808303816000865af19150503d806000811461134c576040519150601f19603f3d011682016040523d82523d6000602084013e611351565b606091505b509150915081611374576040805160008082526020820190925260159190611388565b808060200190518101906113889190612551565b60039290920b9a90995090975095505050505050565b60006113a86119b4565b604080516001600160a01b03851660248083019190915282518083039091018152604490910182526020810180516001600160e01b0316631f69565f60e01b17905290516000918291610167916113fe916121d6565b6000604051808303816000865af19150503d806000811461143b576040519150601f19603f3d011682016040523d82523d6000602084013e611440565b606091505b509150915061144d6119b4565b8261145a57601581610806565b818060200190518101906108069190612bd2565b6112598282604051602401611484929190612d28565b60408051601f198184030181529190526020810180516001600160e01b0316634b5c427760e01b179052611793565b6114bb611932565b60405180604001604052806114cf8661179c565b81526020016114de85856117db565b9052949350505050565b600080848061010001516000015160070b600014801561151257506101008101516040015160070b155b15611528576101008101516276a7006040909101525b6000806101676001600160a01b03163463abb54eb560e01b8a8a8a60405160240161155593929190612f9d565b60408051601f198184030181529181526020820180516001600160e01b03166001600160e01b031990941693909317909252905161159391906121d6565b60006040518083038185875af1925050503d80600081146115d0576040519150601f19603f3d011682016040523d82523d6000602084013e6115d5565b606091505b5091509150816115e857601560006115fc565b808060200190518101906115fc9190613044565b60039190910b999098509650505050505050565b6040516001600160a01b038581166024830152848116604483015283166064820152600782900b60848201526000908190819061016790635cfc901160e01b9060a4016105ad565b611660611932565b60405180604001604052806116748661179c565b81526020016114de85856118ae565b600080828061010001516000015160070b60001480156116ad57506101008101516040015160070b155b156116c3576101008101516276a7006040909101525b6000806101676001600160a01b03163463ea83f29360e01b886040516024016116ec919061307b565b60408051601f198184030181529181526020820180516001600160e01b03166001600160e01b031990941693909317909252905161172a91906121d6565b60006040518083038185875af1925050503d8060008114611767576040519150601f19603f3d011682016040523d82523d6000602084013e61176c565b606091505b50915091508161177f5760156000610806565b808060200190518101906108069190613044565b61121181611911565b6000600160008360068111156117b4576117b461308e565b60068111156117c5576117c561308e565b8152602001908152602001600020549050919050565b6117e3611a0f565b60008360048111156117f7576117f761308e565b036118055760018152610566565b60018360048111156118195761181961308e565b03611834576000546001600160a01b03166020820152610566565b60028360048111156118485761184861308e565b036118595760408101829052610566565b600383600481111561186d5761186d61308e565b0361187e5760608101829052610566565b60048360048111156118925761189261308e565b03610566576000546001600160a01b0316608082015292915050565b6118b6611a0f565b60018360048111156118ca576118ca61308e565b036118e3576001600160a01b0382166020820152610566565b60048360048111156118f7576118f761308e565b03610566576001600160a01b038216608082015292915050565b60006a636f6e736f6c652e6c6f679050600080835160208501845afa505050565b60405180604001604052806000815260200161194c611a0f565b905290565b60408051610120810182526060808252602080830182905260008385018190528284018390526080840181905260a0840181905260c0840181905260e0840183905284519283018552808352908201819052928101929092529061010082015290565b6040518061012001604052806119c8611951565b8152602001600060070b8152602001600015158152602001600015158152602001600015158152602001606081526020016060815260200160608152602001606081525090565b6040518060a0016040528060001515815260200160006001600160a01b03168152602001606081526020016060815260200160006001600160a01b031681525090565b6001600160a01b038116811461121157600080fd5b8035611a7281611a52565b919050565b634e487b7160e01b600052604160045260246000fd5b604080519081016001600160401b0381118282101715611aaf57611aaf611a77565b60405290565b60405160a081016001600160401b0381118282101715611aaf57611aaf611a77565b60405161012081016001600160401b0381118282101715611aaf57611aaf611a77565b60405160c081016001600160401b0381118282101715611aaf57611aaf611a77565b604051601f8201601f191681016001600160401b0381118282101715611b4457611b44611a77565b604052919050565b60006001600160401b03821115611b6557611b65611a77565b5060051b60200190565b60006001600160401b03821115611b8857611b88611a77565b50601f01601f191660200190565b600082601f830112611ba757600080fd5b8135611bba611bb582611b6f565b611b1c565b818152846020838601011115611bcf57600080fd5b816020850160208301376000918101602001919091529392505050565b60008060408385031215611bff57600080fd5b8235611c0a81611a52565b91506020838101356001600160401b0380821115611c2757600080fd5b818601915086601f830112611c3b57600080fd5b8135611c49611bb582611b4c565b81815260059190911b83018401908481019089831115611c6857600080fd5b8585015b83811015611ca057803585811115611c845760008081fd5b611c928c89838a0101611b96565b845250918601918601611c6c565b508096505050505050509250929050565b60008060008060808587031215611cc757600080fd5b8435611cd281611a52565b93506020850135611ce281611a52565b92506040850135611cf281611a52565b9396929550929360600135925050565b600060208284031215611d1457600080fd5b8135611d1f81611a52565b9392505050565b60005b83811015611d41578181015183820152602001611d29565b50506000910152565b60008151808452611d62816020860160208601611d26565b601f01601f19169290920160200192915050565b602081526000611d1f6020830184611d4a565b60008060408385031215611d9c57600080fd5b8235611da781611a52565b915060208301356001600160401b03811115611dc257600080fd5b611dce85828601611b96565b9150509250929050565b828152604060208201526000610c8d6040830184611d4a565b8060070b811461121157600080fd5b8035611a7281611df1565b801515811461121157600080fd5b8035611a7281611e0b565b600060e08284031215611e3657600080fd5b60405160e081018181106001600160401b0382111715611e5857611e58611a77565b6040529050808235611e6981611a52565b81526020830135611e7981611e0b565b60208201526040830135611e8c81611e0b565b60408201526060830135611e9f81611df1565b6060820152611eb060808401611a67565b6080820152611ec160a08401611e19565b60a0820152611ed260c08401611e19565b60c08201525092915050565b6000806000806000806101808789031215611ef857600080fd5b86356001600160401b0380821115611f0f57600080fd5b611f1b8a838b01611b96565b97506020890135915080821115611f3157600080fd5b611f3d8a838b01611b96565b96506040890135915080821115611f5357600080fd5b611f5f8a838b01611b96565b9550611f6d60608a01611e00565b94506080890135915080821115611f8357600080fd5b50611f9089828a01611b96565b925050611fa08860a08901611e24565b90509295509295509295565b600080600060608486031215611fc157600080fd5b8335611fcc81611a52565b92506020840135611fdc81611a52565b91506040840135611fec81611df1565b809150509250925092565b60006020828403121561200957600080fd5b8135611d1f81611df1565b600080600080600060a0868803121561202c57600080fd5b85356001600160401b038082111561204357600080fd5b61204f89838a01611b96565b9650602088013591508082111561206557600080fd5b61207189838a01611b96565b9550604088013591508082111561208757600080fd5b5061209488828901611b96565b93505060608601356120a581611df1565b915060808601356120b581611df1565b809150509295509295909350565b6000602082840312156120d557600080fd5b81356001600160401b038111156120eb57600080fd5b610c8d84828501611b96565b634e487b7160e01b600052603260045260246000fd5b600181811c9082168061212157607f821691505b60208210810361214157634e487b7160e01b600052602260045260246000fd5b50919050565b60208082526021908201527f4661696c656420746f206d696e74206e6f6e2d66756e6769626c6520746f6b656040820152603760f91b606082015260800190565b6000835161219a818460208801611d26565b602f60f81b90830190815283516121b8816001840160208801611d26565b64173539b7b760d91b60019290910191820152600601949350505050565b600082516121e8818460208701611d26565b9190910192915050565b8051600381900b8114611a7257600080fd5b60006020828403121561221657600080fd5b611d1f826121f2565b6001600160a01b0383168152604060208201819052600090610c8d90830184611d4a565b8215158152604060208201526000610c8d6040830184611d4a565b601f8211156122aa576000816000526020600020601f850160051c810160208610156122875750805b601f850160051c820191505b818110156122a657828155600101612293565b5050505b505050565b81516001600160401b038111156122c8576122c8611a77565b6122dc816122d6845461210d565b8461225e565b602080601f83116001811461231157600084156122f95750858301515b600019600386901b1c1916600185901b1785556122a6565b600085815260208120601f198616915b8281101561234057888601518255948401946001909101908401612321565b508582101561235e5787850151600019600388901b60f8161c191681555b5050505050600190811b01905550565b634e487b7160e01b600052601160045260246000fd5b60008160070b677fffffffffffffff1981036123a2576123a261236e565b60000392915050565b6000600182016123bd576123bd61236e565b5060010190565b634e487b7160e01b600052601260045260246000fd5b60006001600160401b03808416806123f4576123f46123c4565b92169190910492915050565b818103818111156105665761056661236e565b60006001600160401b038084168061242d5761242d6123c4565b92169190910692915050565b6001600160401b038181168382160190808211156124595761245961236e565b5092915050565b60008161246f5761246f61236e565b506000190190565b600781810b9083900b01677fffffffffffffff8113677fffffffffffffff19821217156105665761056661236e565b6040815260006124b96040830185611d4a565b90508260208301529392505050565b60006060820160018060a01b038616835260208560070b60208501526060604085015281855180845260808601915060808160051b87010193506020870160005b8281101561253757607f19888703018452612525868351611d4a565b95509284019290840190600101612509565b50939998505050505050505050565b8051611a7281611df1565b60008060006060848603121561256657600080fd5b61256f846121f2565b925060208085015161258081611df1565b60408601519093506001600160401b0381111561259c57600080fd5b8501601f810187136125ad57600080fd5b80516125bb611bb582611b4c565b81815260059190911b820183019083810190898311156125da57600080fd5b928401925b828410156126015783516125f281611df1565b825292840192908401906125df565b80955050505050509250925092565b600082601f83011261262157600080fd5b815161262f611bb582611b6f565b81815284602083860101111561264457600080fd5b610c8d826020830160208701611d26565b8051611a7281611a52565b8051611a7281611e0b565b600082601f83011261267c57600080fd5b8151602061268c611bb583611b4c565b82815260059290921b840181019181810190868411156126ab57600080fd5b8286015b84811015610e715780516001600160401b03808211156126ce57600080fd5b908801906040601f19838c0381018213156126e857600080fd5b6126f0611a8d565b888501518152828501518481111561270757600080fd5b949094019360a0858e038301121561271f5760008081fd5b612727611ab5565b91508885015161273681611e0b565b82528483015161274581611a52565b828a01526060858101518581111561275d5760008081fd5b61276b8f8c838a0101612610565b85850152506080935083860151858111156127865760008081fd5b6127948f8c838a0101612610565b8285015250506127a660a08601612655565b9282019290925281880152855250509183019183016126af565b6000606082840312156127d257600080fd5b604051606081018181106001600160401b03821117156127f4576127f4611a77565b8060405250809150825161280781611df1565b8152602083015161281781611a52565b6020820152604083015161282a81611df1565b6040919091015292915050565b6000610160828403121561284a57600080fd5b612852611ad7565b905081516001600160401b038082111561286b57600080fd5b61287785838601612610565b8352602084015191508082111561288d57600080fd5b61289985838601612610565b60208401526128aa60408501612655565b604084015260608401519150808211156128c357600080fd5b6128cf85838601612610565b60608401526128e060808501612660565b60808401526128f160a08501612546565b60a084015261290260c08501612660565b60c084015260e084015191508082111561291b57600080fd5b506129288482850161266b565b60e08301525061010061293d848285016127c0565b9082015292915050565b600082601f83011261295857600080fd5b81516020612968611bb583611b4c565b82815260a0928302850182019282820191908785111561298757600080fd5b8387015b85811015612a0f5781818a0312156129a35760008081fd5b6129ab611ab5565b81516129b681611df1565b8152818601516129c581611a52565b818701526040828101516129d881611e0b565b908201526060828101516129eb81611e0b565b908201526080828101516129fe81611a52565b90820152845292840192810161298b565b5090979650505050505050565b600082601f830112612a2d57600080fd5b81516020612a3d611bb583611b4c565b82815260c09283028501820192828201919087851115612a5c57600080fd5b8387015b85811015612a0f5781818a031215612a785760008081fd5b612a80611afa565b8151612a8b81611df1565b815281860151612a9a81611df1565b81870152604082810151612aad81611df1565b90820152606082810151612ac081611df1565b90820152608082810151612ad381611e0b565b9082015260a082810151612ae681611a52565b908201528452928401928101612a60565b600082601f830112612b0857600080fd5b81516020612b18611bb583611b4c565b82815260c09283028501820192828201919087851115612b3757600080fd5b8387015b85811015612a0f5781818a031215612b535760008081fd5b612b5b611afa565b8151612b6681611df1565b815281860151612b7581611df1565b81870152604082810151612b8881611df1565b90820152606082810151612b9b81611a52565b90820152608082810151612bae81611e0b565b9082015260a082810151612bc181611a52565b908201528452928401928101612b3b565b60008060408385031215612be557600080fd5b612bee836121f2565b915060208301516001600160401b0380821115612c0a57600080fd5b908401906101208287031215612c1f57600080fd5b612c27611ad7565b825182811115612c3657600080fd5b612c4288828601612837565b825250612c5160208401612546565b6020820152612c6260408401612660565b6040820152612c7360608401612660565b6060820152612c8460808401612660565b608082015260a083015182811115612c9b57600080fd5b612ca788828601612947565b60a08301525060c083015182811115612cbf57600080fd5b612ccb88828601612a1c565b60c08301525060e083015182811115612ce357600080fd5b612cef88828601612af7565b60e0830152506101008084015183811115612d0957600080fd5b612d1589828701612610565b8284015250508093505050509250929050565b604081526000612d3b6040830185611d4a565b8281036020840152612d4d8185611d4a565b95945050505050565b600082825180855260208086019550808260051b84010181860160005b84811015612a0f57858303601f1901895281518051845284015160408585018190528151151581860152818601516001600160a01b039081166060808801919091529183015160a06080808901829052919390929091612dd660e08a0186611d4a565b92860151898403603f1901858b0152929450612df28584611d4a565b9501511660c09790970196909652505098840198925090830190600101612d73565b60006101608251818552612e2a82860182611d4a565b91505060208301518482036020860152612e448282611d4a565b9150506040830151612e6160408601826001600160a01b03169052565b5060608301518482036060860152612e798282611d4a565b9150506080830151612e8f608086018215159052565b5060a0830151612ea460a086018260070b9052565b5060c0830151612eb860c086018215159052565b5060e083015184820360e0860152612ed08282612d56565b610100858101518051600790810b8984015260208201516001600160a01b03166101208a01526040820151900b61014089015291935091505090949350505050565b60008151808452602080850194506020840160005b83811015612f925781518051600790810b895284820151810b858a015260408083015190910b908901526060808201516001600160a01b03908116918a01919091526080808301511515908a015260a091820151169088015260c09096019590820190600101612f27565b509495945050505050565b60006060808352612fb16060840187612e14565b83810360208581019190915286518083528782019282019060005b81811015613023578451805160070b8452848101516001600160a01b03908116868601526040808301511515908601528782015115158886015260809182015116908401529383019360a090920191600101612fcc565b505085810360408701526130378188612f12565b9998505050505050505050565b6000806040838503121561305757600080fd5b613060836121f2565b9150602083015161307081611a52565b809150509250929050565b602081526000611d1f6020830184612e14565b634e487b7160e01b600052602160045260246000fdfea2646970667358221220ee0c87704260a2b2df48ddbc685a3dd42446b4d51e688fe928df2f1f49d5fe4464736f6c63430008180033",
  "devdoc": {
    "kind": "dev",
    "methods": {
      "mintNftWithMetadata(address,bytes[])": {
        "details": "Example function that logs both the input metadata and a      newly-generated metadata to compare the two."
      },
      "redirectForToken(address,bytes)": {
        "params": {
          "encodedFunctionSelector": "The function selector from the ERC20 interface + the bytes input for the function called",
          "token": "The token address"
        },
        "returns": {
          "response": "The result of the call that had been encoded and sent for execution.",
          "responseCode": "The response code for the status of the request. SUCCESS is 22."
        }
      },
      "transferFrom(address,address,address,uint256)": {
        "params": {
          "amount": "The amount of tokens to transfer from `from` to `to`",
          "from": "The account address of the owner of the token, on the behalf of which to transfer `amount` tokens",
          "to": "The account address of the receiver of the `amount` tokens",
          "token": "The address of the fungible Hedera token to transfer"
        },
        "returns": {
          "responseCode": "The response code for the status of the request. SUCCESS is 22."
        }
      },
      "transferFromNFT(address,address,address,uint256)": {
        "params": {
          "from": "The account address of the owner of `serialNumber` of `token`",
          "serialNumber": "The NFT serial number to transfer",
          "to": "The account address of the receiver of `serialNumber`",
          "token": "The address of the non-fungible Hedera token to transfer"
        },
        "returns": {
          "responseCode": "The response code for the status of the request. SUCCESS is 22."
        }
      }
    },
    "version": 1
  },
  "userdoc": {
    "events": {
      "CallResponseEvent(bool,bytes)": {
        "notice": "Generic event"
      }
    },
    "kind": "user",
    "methods": {
      "redirectForToken(address,bytes)": {
        "notice": "Redirect for token"
      },
      "transferFrom(address,address,address,uint256)": {
        "notice": "Only applicable to fungible tokens"
      },
      "transferFromNFT(address,address,address,uint256)": {
        "notice": "Transfers `serialNumber` of `token` from `from` to `to` using the allowance mechanism. Only applicable to NFT tokens"
      }
    },
    "version": 1
  },
  "storageLayout": {
    "storage": [
      {
        "astId": 14296,
        "contract": "contracts/tokens/RariNFTCreator.sol:RariNFTCreator",
        "label": "supplyContract",
        "offset": 0,
        "slot": "0",
        "type": "t_address"
      },
      {
        "astId": 14301,
        "contract": "contracts/tokens/RariNFTCreator.sol:RariNFTCreator",
        "label": "keyTypes",
        "offset": 0,
        "slot": "1",
        "type": "t_mapping(t_enum(KeyType)14309,t_uint256)"
      },
      {
        "astId": 27222,
        "contract": "contracts/tokens/RariNFTCreator.sol:RariNFTCreator",
        "label": "baseUri",
        "offset": 0,
        "slot": "2",
        "type": "t_mapping(t_address,t_string_storage)"
      }
    ],
    "types": {
      "t_address": {
        "encoding": "inplace",
        "label": "address",
        "numberOfBytes": "20"
      },
      "t_enum(KeyType)14309": {
        "encoding": "inplace",
        "label": "enum KeyHelper.KeyType",
        "numberOfBytes": "1"
      },
      "t_mapping(t_address,t_string_storage)": {
        "encoding": "mapping",
        "key": "t_address",
        "label": "mapping(address => string)",
        "numberOfBytes": "32",
        "value": "t_string_storage"
      },
      "t_mapping(t_enum(KeyType)14309,t_uint256)": {
        "encoding": "mapping",
        "key": "t_enum(KeyType)14309",
        "label": "mapping(enum KeyHelper.KeyType => uint256)",
        "numberOfBytes": "32",
        "value": "t_uint256"
      },
      "t_string_storage": {
        "encoding": "bytes",
        "label": "string",
        "numberOfBytes": "32"
      },
      "t_uint256": {
        "encoding": "inplace",
        "label": "uint256",
        "numberOfBytes": "32"
      }
    }
  }
}