{
  "address": "0x650932d048b44558e4d8a4393C5cc5B2459095C1",
  "abi": [
    {
      "anonymous": false,
      "inputs": [
        {
          "indexed": false,
          "internalType": "bool",
          "name": "",
          "type": "bool"
        },
        {
          "indexed": false,
          "internalType": "bytes",
          "name": "",
          "type": "bytes"
        }
      ],
      "name": "CallResponseEvent",
      "type": "event"
    },
    {
      "anonymous": false,
      "inputs": [
        {
          "indexed": false,
          "internalType": "address",
          "name": "tokenAddress",
          "type": "address"
        }
      ],
      "name": "CreatedToken",
      "type": "event"
    },
    {
      "anonymous": false,
      "inputs": [
        {
          "indexed": false,
          "internalType": "int256",
          "name": "status",
          "type": "int256"
        }
      ],
      "name": "MintTokenStatus",
      "type": "event"
    },
    {
      "inputs": [
        {
          "internalType": "address",
          "name": "",
          "type": "address"
        }
      ],
      "name": "baseUri",
      "outputs": [
        {
          "internalType": "string",
          "name": "",
          "type": "string"
        }
      ],
      "stateMutability": "view",
      "type": "function"
    },
    {
      "inputs": [
        {
          "internalType": "string",
          "name": "input",
          "type": "string"
        }
      ],
      "name": "convertStringToBytes",
      "outputs": [
        {
          "internalType": "bytes",
          "name": "",
          "type": "bytes"
        }
      ],
      "stateMutability": "pure",
      "type": "function"
    },
    {
      "inputs": [
        {
          "internalType": "string",
          "name": "name",
          "type": "string"
        },
        {
          "internalType": "string",
          "name": "symbol",
          "type": "string"
        },
        {
          "internalType": "string",
          "name": "memo",
          "type": "string"
        },
        {
          "internalType": "int64",
          "name": "maxSupply",
          "type": "int64"
        },
        {
          "internalType": "int64",
          "name": "autoRenewPeriod",
          "type": "int64"
        }
      ],
      "name": "createNftCollection",
      "outputs": [
        {
          "internalType": "address",
          "name": "",
          "type": "address"
        }
      ],
      "stateMutability": "payable",
      "type": "function"
    },
    {
      "inputs": [
        {
          "internalType": "string",
          "name": "name",
          "type": "string"
        },
        {
          "internalType": "string",
          "name": "symbol",
          "type": "string"
        },
        {
          "internalType": "string",
          "name": "memo",
          "type": "string"
        },
        {
          "internalType": "int64",
          "name": "maxSupply",
          "type": "int64"
        },
        {
          "internalType": "string",
          "name": "uri",
          "type": "string"
        },
        {
          "components": [
            {
              "internalType": "address",
              "name": "feeCollector",
              "type": "address"
            },
            {
              "internalType": "bool",
              "name": "isRoyaltyFee",
              "type": "bool"
            },
            {
              "internalType": "bool",
              "name": "isFixedFee",
              "type": "bool"
            },
            {
              "internalType": "int64",
              "name": "feeAmount",
              "type": "int64"
            },
            {
              "internalType": "address",
              "name": "fixedFeeTokenAddress",
              "type": "address"
            },
            {
              "internalType": "bool",
              "name": "useHbarsForPayment",
              "type": "bool"
            },
            {
              "internalType": "bool",
              "name": "useCurrentTokenForPayment",
              "type": "bool"
            }
          ],
          "internalType": "struct RariNFTCreator.CreateNftCollectionParams",
          "name": "params",
          "type": "tuple"
        }
      ],
      "name": "createNonFungibleTokenWithCustomFeesPublic",
      "outputs": [],
      "stateMutability": "payable",
      "type": "function"
    },
    {
      "inputs": [
        {
          "internalType": "int64",
          "name": "value",
          "type": "int64"
        }
      ],
      "name": "int64ToString",
      "outputs": [
        {
          "internalType": "string",
          "name": "",
          "type": "string"
        }
      ],
      "stateMutability": "pure",
      "type": "function"
    },
    {
      "inputs": [
        {
          "internalType": "address",
          "name": "token",
          "type": "address"
        }
      ],
      "name": "mintNft",
      "outputs": [
        {
          "internalType": "int64",
          "name": "",
          "type": "int64"
        }
      ],
      "stateMutability": "payable",
      "type": "function"
    },
    {
      "inputs": [
        {
          "internalType": "address",
          "name": "token",
          "type": "address"
        },
        {
          "internalType": "address",
          "name": "to",
          "type": "address"
        }
      ],
      "name": "mintNftTo",
      "outputs": [
        {
          "internalType": "int64",
          "name": "",
          "type": "int64"
        }
      ],
      "stateMutability": "payable",
      "type": "function"
    },
    {
      "inputs": [
        {
          "internalType": "address",
          "name": "token",
          "type": "address"
        },
        {
          "internalType": "bytes[]",
          "name": "metadata",
          "type": "bytes[]"
        }
      ],
      "name": "mintNftWithMetadata",
      "outputs": [
        {
          "internalType": "int64",
          "name": "",
          "type": "int64"
        }
      ],
      "stateMutability": "nonpayable",
      "type": "function"
    },
    {
      "inputs": [
        {
          "internalType": "address",
          "name": "token",
          "type": "address"
        },
        {
          "internalType": "bytes",
          "name": "encodedFunctionSelector",
          "type": "bytes"
        }
      ],
      "name": "redirectForToken",
      "outputs": [
        {
          "internalType": "int256",
          "name": "responseCode",
          "type": "int256"
        },
        {
          "internalType": "bytes",
          "name": "response",
          "type": "bytes"
        }
      ],
      "stateMutability": "nonpayable",
      "type": "function"
    },
    {
      "inputs": [
        {
          "internalType": "address",
          "name": "token",
          "type": "address"
        },
        {
          "internalType": "address",
          "name": "from",
          "type": "address"
        },
        {
          "internalType": "address",
          "name": "to",
          "type": "address"
        },
        {
          "internalType": "uint256",
          "name": "amount",
          "type": "uint256"
        }
      ],
      "name": "transferFrom",
      "outputs": [
        {
          "internalType": "int64",
          "name": "responseCode",
          "type": "int64"
        }
      ],
      "stateMutability": "nonpayable",
      "type": "function"
    },
    {
      "inputs": [
        {
          "internalType": "address",
          "name": "token",
          "type": "address"
        },
        {
          "internalType": "address",
          "name": "from",
          "type": "address"
        },
        {
          "internalType": "address",
          "name": "to",
          "type": "address"
        },
        {
          "internalType": "uint256",
          "name": "serialNumber",
          "type": "uint256"
        }
      ],
      "name": "transferFromNFT",
      "outputs": [
        {
          "internalType": "int64",
          "name": "responseCode",
          "type": "int64"
        }
      ],
      "stateMutability": "nonpayable",
      "type": "function"
    },
    {
      "inputs": [
        {
          "internalType": "address",
          "name": "token",
          "type": "address"
        },
        {
          "internalType": "address",
          "name": "receiver",
          "type": "address"
        },
        {
          "internalType": "int64",
          "name": "serial",
          "type": "int64"
        }
      ],
      "name": "transferNft",
      "outputs": [
        {
          "internalType": "int256",
          "name": "",
          "type": "int256"
        }
      ],
      "stateMutability": "nonpayable",
      "type": "function"
    }
  ],
  "transactionHash": "0x02e9e454e3ee125cd2de34705bb99141e5af1b30301e947205c4c8b11ddd6f37",
  "args": [],
  "numDeployments": 1,
  "solcInputHash": "6a3103488fd13209ff1e9de9bf565e75",
  "bytecode": "0x608060405234801561001057600080fd5b50600160208181527fa6eef7e35abe7026729641147f7915573c7e97b47efa546f5f6e3230263bcb499190915560027fcc69885fda6bcc1a4ace058b4a62bf5e179ea78fd58a1ccd71c22cc9b688792f5560047fd9d16d34ffb15ba3a3d852f0d403e2ce1d691fb54de27ac87cd2f993f3ec330f5560087f7dfe757ecd65cbd7922a9c0161e935dd7fdbcc0e999689c7d31633896b1fc60b5560107fedc95719e9a3b28dd8e80877cb5880a9be7de1a13fc8b05e7999683b6b567643557fe2689cd4a84e23ad2f564004f1c9013e9589d260bde6380aba3ca7e09e4df40c55600660005260407f8f331abe73332f95a25873e8b430885974c0409691f89d643119a11623a7924a556133dc806101276000396000f3fe6080604052600436106100a75760003560e01c806386b532ac1161006457806386b532ac146101a25780639b23d3d9146101b5578063acd04219146101d5578063c0e82be1146101f5578063cb6b8a9514610220578063e9c2e14b1461023e57600080fd5b8063065c53c6146100ac57806315dacbea146100e457806342adc8e814610104578063618dc65e14610131578063694aa0081461015f57806382b562aa14610174575b600080fd5b3480156100b857600080fd5b506100cc6100c7366004611cff565b610251565b60405160079190910b81526020015b60405180910390f35b3480156100f057600080fd5b506100cc6100ff366004611dc4565b61045b565b34801561011057600080fd5b5061012461011f366004611e15565b61054f565b6040516100db9190611e89565b34801561013d57600080fd5b5061015161014c366004611e9c565b6105e9565b6040516100db929190611eeb565b61017261016d366004611ff1565b610707565b005b34801561018057600080fd5b5061019461018f3660046120bf565b610b0d565b6040519081526020016100db565b6100cc6101b036600461210a565b610b46565b3480156101c157600080fd5b506100cc6101d0366004611dc4565b610d58565b3480156101e157600080fd5b506101246101f0366004612143565b610d9d565b610208610203366004612160565b610f3f565b6040516001600160a01b0390911681526020016100db565b34801561022c57600080fd5b5061012461023b36600461220f565b90565b6100cc61024c366004611e15565b6110ce565b6000806000610262856000866112d9565b6001600160a01b038816600090815260026020526040812080549496509194509290915061028f90612243565b80601f01602080910402602001604051908101604052809291908181526020018280546102bb90612243565b80156103085780601f106102dd57610100808354040283529160200191610308565b820191906000526020600020905b8154815290600101906020018083116102eb57829003601f168201915b5050505050905060008061031b886113d7565b9092509050601682146103495760405162461bcd60e51b81526004016103409061227d565b60405180910390fd5b602081015160008461035a83610d9d565b60405160200161036b9291906122be565b60408051808303601f190181526001808452838301909252925060009190816020015b606081526020019060019003908161038e57905050905081816000815181106103b9576103b961230c565b6020908102919091010152601688146103e45760405162461bcd60e51b81526004016103409061227d565b600061040c8c30338b6000815181106103ff576103ff61230c565b60200260200101516114a7565b90506016811461042e5760405162461bcd60e51b815260040161034090612322565b876000815181106104415761044161230c565b602002602001015199505050505050505050505b92915050565b6040516001600160a01b038581166024830152848116604483015283166064820152608481018290526000908190819061016790630aed65f560e11b9060a4015b60408051601f198184030181529181526020820180516001600160e01b03166001600160e01b03199094169390931790925290516104da9190612367565b6000604051808303816000865af19150503d8060008114610517576040519150601f19603f3d011682016040523d82523d6000602084013e61051c565b606091505b50915091508161052d576015610541565b808060200190518101906105419190612395565b60030b979650505050505050565b6002602052600090815260409020805461056890612243565b80601f016020809104026020016040519081016040528092919081815260200182805461059490612243565b80156105e15780601f106105b6576101008083540402835291602001916105e1565b820191906000526020600020905b8154815290600101906020018083116105c457829003601f168201915b505050505081565b600060606000806101676001600160a01b031663618dc65e60e01b87876040516024016106179291906123b0565b60408051601f198184030181529181526020820180516001600160e01b03166001600160e01b03199094169390931790925290516106559190612367565b6000604051808303816000865af19150503d8060008114610692576040519150601f19603f3d011682016040523d82523d6000602084013e610697565b606091505b50915091507f4af4780e06fe8cb9df64b0794fa6f01399af979175bb988e35e0e57e594567bc82826040516106cd9291906123d4565b60405180910390a1816106f1576015604051806020016040528060008152506106f5565b6016815b60039190910b97909650945050505050565b60408051600280825260608201909252600091816020015b610727611a42565b81526020019060019003908161071f579050509050610757600080604051806020016040528060008152506114ef565b8160008151811061076a5761076a61230c565b602002602001018190525061079160046000604051806020016040528060008152506114ef565b816001815181106107a4576107a461230c565b6020908102919091018101919091526040805160608082018352600080835230838601819052627a1200848601528451610120810186528d81529586018c905285850152908401899052600160808501819052600789900b60a086015260c0850182905260e08501869052610100850183905283518181528085019094529193929091816020015b6040805160a08101825260008082526020808301829052928201819052606082018190526080820152825260001990920191018161082c5790505090508460400151156108ea576040518060a00160405280866060015160070b815260200186608001516001600160a01b031681526020018660a00151151581526020018660c001511515815260200186600001516001600160a01b0316815250816000815181106108da576108da61230c565b602002602001018190525061093f565b604080516000808252602082019092529061093b565b6040805160a0810182526000808252602080830182905292820181905260608201819052608082015282526000199092019101816109005790505b5090505b604080516001808252818301909252600091816020015b6040805160c08101825260008082526020808301829052928201819052606082018190526080820181905260a08201528252600019909201910181610956579050509050856020015115610a23576040518060c00160405280600160070b8152602001600a60070b8152602001876060015160070b815260200187608001516001600160a01b031681526020018760a001511515815260200187600001516001600160a01b031681525081600081518110610a1357610a1361230c565b6020026020010181905250610a7f565b6040805160008082526020820190925290610a7b565b6040805160c08101825260008082526020808301829052928201819052606082018190526080820181905260a08201528252600019909201910181610a395790505b5090505b600080610a8d858585611524565b909250905060168214610a9f57600080fd5b6001600160a01b0381166000908152600260205260409020610ac18a82612440565b506040516001600160a01b03821681527f7bb17726df1f3adee8aa00ba8e8bc5d6f182af3bbf77604639cb7f008dd3b4ed9060200160405180910390a150505050505050505050505050565b600080610b1c853086866114a7565b905060168114610b3e5760405162461bcd60e51b815260040161034090612322565b949350505050565b6001600160a01b03821660009081526002602052604081208054829190610b6c90612243565b80601f0160208091040260200160405190810160405280929190818152602001828054610b9890612243565b8015610be55780601f10610bba57610100808354040283529160200191610be5565b820191906000526020600020905b815481529060010190602001808311610bc857829003601f168201915b50505050509050600080610bf8866113d7565b909250905060168214610c4457610c0e8261164c565b604051602001610c1e91906124ff565b60408051601f198184030181529082905262461bcd60e51b825261034091600401611e89565b600081602001516001610c579190612580565b9050600084610c6583610d9d565b604051602001610c769291906122be565b60408051808303601f190181526001808452838301909252925060009190816020015b6060815260200190600190039081610c995790505090508181600081518110610cc457610cc461230c565b6020026020010181905250600080610cde8b6000856112d9565b9250509150601660030b8214610d0757610cf78261164c565b604051602001610c1e91906125af565b6000610d228c308d856000815181106103ff576103ff61230c565b905060168114610d4557610d358161164c565b604051602001610c1e9190612649565b816000815181106104415761044161230c565b6040516001600160a01b038581166024830152848116604483015283166064820152608481018290526000908190819061016790639b23d3d960e01b9060a40161049c565b60608160070b600003610dc75750506040805180820190915260018152600360fc1b602082015290565b6000808360070b129050600081610dde5783610de7565b610de78461266c565b90506000815b6001600160401b03811615610e1c5781610e0681612693565b9250610e159050600a826126c2565b9050610ded565b8315610e305781610e2c81612693565b9250505b6000826001600160401b03811115610e4a57610e4a611b8a565b6040519080825280601f01601f191660200182016040528015610e74576020820181803683370190505b5090506000610e846001856126e8565b90505b6001600160401b03851615610efe57610ea1600a866126fb565b610eac906030612721565b60f81b828281518110610ec157610ec161230c565b60200101906001600160f81b031916908160001a905350610ee3600a866126c2565b94508015610ef95780610ef581612748565b9150505b610e87565b8515610f3457602d60f81b82600081518110610f1c57610f1c61230c565b60200101906001600160f81b031916908160001a9053505b509695505050505050565b604080516001808252818301909252600091829190816020015b610f61611a42565b815260200190600190039081610f59579050509050610f836004600130611792565b81600081518110610f9657610f9661230c565b6020026020010181905250610fa9611a61565b8781526020810187905260608101869052306040820181905260016080830152600786900b60a083015260e08201839052600060c0830152611012908560408051606081018252600081526001600160a01b0393909316602084015260079190910b9082015290565b610100820152600080611024836117bd565b9092509050601682146110855760405162461bcd60e51b815260206004820152602360248201527f4661696c656420746f20637265617465206e6f6e2d66756e6769626c6520746f60448201526235b2b760e91b6064820152608401610340565b6040516001600160a01b03821681527f7bb17726df1f3adee8aa00ba8e8bc5d6f182af3bbf77604639cb7f008dd3b4ed9060200160405180910390a19998505050505050505050565b6001600160a01b038116600090815260026020526040812080548291906110f490612243565b80601f016020809104026020016040519081016040528092919081815260200182805461112090612243565b801561116d5780601f106111425761010080835404028352916020019161116d565b820191906000526020600020905b81548152906001019060200180831161115057829003601f168201915b50505050509050600080611180856113d7565b90925090506016821461119657610c0e8261164c565b6000816020015160016111a99190612580565b90506000846111b783610d9d565b6040516020016111c89291906122be565b60408051808303601f190181526001808452838301909252925060009190816020015b60608152602001906001900390816111eb57905050905081816000815181106112165761121661230c565b60200260200101819052506000806112308a6000856112d9565b9250509150601660030b821461124957610cf78261164c565b60006112648b3033856000815181106103ff576103ff61230c565b9050601681146112ae576112778161164c565b61129d8360008151811061128d5761128d61230c565b602002602001015160070b61164c565b604051602001610c1e92919061275f565b816000815181106112c1576112c161230c565b60200260200101519950505050505050505050919050565b60008060606000806101676001600160a01b031663e0f4059a60e01b89898960405160240161130a939291906127ac565b60408051601f198184030181529181526020820180516001600160e01b03166001600160e01b03199094169390931790925290516113489190612367565b6000604051808303816000865af19150503d8060008114611385576040519150601f19603f3d011682016040523d82523d6000602084013e61138a565b606091505b5091509150816113ad5760408051600080825260208201909252601591906113c1565b808060200190518101906113c19190612835565b60039290920b9a90995090975095505050505050565b60006113e1611ac4565b604080516001600160a01b03851660248083019190915282518083039091018152604490910182526020810180516001600160e01b0316631f69565f60e01b179052905160009182916101679161143791612367565b6000604051808303816000865af19150503d8060008114611474576040519150601f19603f3d011682016040523d82523d6000602084013e611479565b606091505b5091509150611486611ac4565b82611493576015816106f5565b818060200190518101906106f59190612eb6565b6040516001600160a01b038581166024830152848116604483015283166064820152600782900b60848201526000908190819061016790635cfc901160e01b9060a40161049c565b6114f7611a42565b604051806040016040528061150b866118cd565b815260200161151a858561190c565b9052949350505050565b600080848061010001516000015160070b600014801561154e57506101008101516040015160070b155b15611564576101008101516276a7006040909101525b6000806101676001600160a01b03163463abb54eb560e01b8a8a8a60405160240161159193929190613253565b60408051601f198184030181529181526020820180516001600160e01b03166001600160e01b03199094169390931790925290516115cf9190612367565b60006040518083038185875af1925050503d806000811461160c576040519150601f19603f3d011682016040523d82523d6000602084013e611611565b606091505b5091509150816116245760156000611638565b8080602001905181019061163891906132fa565b60039190910b999098509650505050505050565b6060816000036116735750506040805180820190915260018152600360fc1b602082015290565b60008083129081611684578361168d565b61168d84613326565b90506000815b80156116b957816116a381612693565b92506116b29050600a82613342565b9050611693565b83156116cd57816116c981612693565b9250505b6000826001600160401b038111156116e7576116e7611b8a565b6040519080825280601f01601f191660200182016040528015611711576020820181803683370190505b50905060006117216001856126e8565b90505b8415610efe57611735600a86613356565b61174090603061336a565b60f81b8282815181106117555761175561230c565b60200101906001600160f81b031916908160001a905350611777600a86613342565b9450801561178d578061178981612748565b9150505b611724565b61179a611a42565b60405180604001604052806117ae866118cd565b815260200161151a85856119df565b600080828061010001516000015160070b60001480156117e757506101008101516040015160070b155b156117fd576101008101516276a7006040909101525b6000806101676001600160a01b03163463ea83f29360e01b88604051602401611826919061337d565b60408051601f198184030181529181526020820180516001600160e01b03166001600160e01b03199094169390931790925290516118649190612367565b60006040518083038185875af1925050503d80600081146118a1576040519150601f19603f3d011682016040523d82523d6000602084013e6118a6565b606091505b5091509150816118b957601560006106f5565b808060200190518101906106f591906132fa565b6000600160008360068111156118e5576118e5613390565b60068111156118f6576118f6613390565b8152602001908152602001600020549050919050565b611914611b1f565b600083600481111561192857611928613390565b036119365760018152610455565b600183600481111561194a5761194a613390565b03611965576000546001600160a01b03166020820152610455565b600283600481111561197957611979613390565b0361198a5760408101829052610455565b600383600481111561199e5761199e613390565b036119af5760608101829052610455565b60048360048111156119c3576119c3613390565b03610455576000546001600160a01b0316608082015292915050565b6119e7611b1f565b60018360048111156119fb576119fb613390565b03611a14576001600160a01b0382166020820152610455565b6004836004811115611a2857611a28613390565b03610455576001600160a01b038216608082015292915050565b604051806040016040528060008152602001611a5c611b1f565b905290565b60408051610120810182526060808252602080830182905260008385018190528284018390526080840181905260a0840181905260c0840181905260e0840183905284519283018552808352908201819052928101929092529061010082015290565b604051806101200160405280611ad8611a61565b8152602001600060070b8152602001600015158152602001600015158152602001600015158152602001606081526020016060815260200160608152602001606081525090565b6040518060a0016040528060001515815260200160006001600160a01b03168152602001606081526020016060815260200160006001600160a01b031681525090565b6001600160a01b0381168114611b7757600080fd5b50565b8035611b8581611b62565b919050565b634e487b7160e01b600052604160045260246000fd5b604080519081016001600160401b0381118282101715611bc257611bc2611b8a565b60405290565b60405160a081016001600160401b0381118282101715611bc257611bc2611b8a565b60405161012081016001600160401b0381118282101715611bc257611bc2611b8a565b60405160c081016001600160401b0381118282101715611bc257611bc2611b8a565b604051601f8201601f191681016001600160401b0381118282101715611c5757611c57611b8a565b604052919050565b60006001600160401b03821115611c7857611c78611b8a565b5060051b60200190565b60006001600160401b03821115611c9b57611c9b611b8a565b50601f01601f191660200190565b600082601f830112611cba57600080fd5b8135611ccd611cc882611c82565b611c2f565b818152846020838601011115611ce257600080fd5b816020850160208301376000918101602001919091529392505050565b60008060408385031215611d1257600080fd5b8235611d1d81611b62565b91506020838101356001600160401b0380821115611d3a57600080fd5b818601915086601f830112611d4e57600080fd5b8135611d5c611cc882611c5f565b81815260059190911b83018401908481019089831115611d7b57600080fd5b8585015b83811015611db357803585811115611d975760008081fd5b611da58c89838a0101611ca9565b845250918601918601611d7f565b508096505050505050509250929050565b60008060008060808587031215611dda57600080fd5b8435611de581611b62565b93506020850135611df581611b62565b92506040850135611e0581611b62565b9396929550929360600135925050565b600060208284031215611e2757600080fd5b8135611e3281611b62565b9392505050565b60005b83811015611e54578181015183820152602001611e3c565b50506000910152565b60008151808452611e75816020860160208601611e39565b601f01601f19169290920160200192915050565b602081526000611e326020830184611e5d565b60008060408385031215611eaf57600080fd5b8235611eba81611b62565b915060208301356001600160401b03811115611ed557600080fd5b611ee185828601611ca9565b9150509250929050565b828152604060208201526000610b3e6040830184611e5d565b8060070b8114611b7757600080fd5b8035611b8581611f04565b8015158114611b7757600080fd5b8035611b8581611f1e565b600060e08284031215611f4957600080fd5b60405160e081018181106001600160401b0382111715611f6b57611f6b611b8a565b6040529050808235611f7c81611b62565b81526020830135611f8c81611f1e565b60208201526040830135611f9f81611f1e565b60408201526060830135611fb281611f04565b6060820152611fc360808401611b7a565b6080820152611fd460a08401611f2c565b60a0820152611fe560c08401611f2c565b60c08201525092915050565b600080600080600080610180878903121561200b57600080fd5b86356001600160401b038082111561202257600080fd5b61202e8a838b01611ca9565b9750602089013591508082111561204457600080fd5b6120508a838b01611ca9565b9650604089013591508082111561206657600080fd5b6120728a838b01611ca9565b955061208060608a01611f13565b9450608089013591508082111561209657600080fd5b506120a389828a01611ca9565b9250506120b38860a08901611f37565b90509295509295509295565b6000806000606084860312156120d457600080fd5b83356120df81611b62565b925060208401356120ef81611b62565b915060408401356120ff81611f04565b809150509250925092565b6000806040838503121561211d57600080fd5b823561212881611b62565b9150602083013561213881611b62565b809150509250929050565b60006020828403121561215557600080fd5b8135611e3281611f04565b600080600080600060a0868803121561217857600080fd5b85356001600160401b038082111561218f57600080fd5b61219b89838a01611ca9565b965060208801359150808211156121b157600080fd5b6121bd89838a01611ca9565b955060408801359150808211156121d357600080fd5b506121e088828901611ca9565b93505060608601356121f181611f04565b9150608086013561220181611f04565b809150509295509295909350565b60006020828403121561222157600080fd5b81356001600160401b0381111561223757600080fd5b610b3e84828501611ca9565b600181811c9082168061225757607f821691505b60208210810361227757634e487b7160e01b600052602260045260246000fd5b50919050565b60208082526021908201527f4661696c656420746f206d696e74206e6f6e2d66756e6769626c6520746f6b656040820152603760f91b606082015260800190565b600083516122d0818460208801611e39565b602f60f81b90830190815283516122ee816001840160208801611e39565b64173539b7b760d91b60019290910191820152600601949350505050565b634e487b7160e01b600052603260045260246000fd5b60208082526025908201527f4661696c656420746f207472616e73666572206e6f6e2d66756e6769626c65206040820152643a37b5b2b760d91b606082015260800190565b60008251612379818460208701611e39565b9190910192915050565b8051600381900b8114611b8557600080fd5b6000602082840312156123a757600080fd5b611e3282612383565b6001600160a01b0383168152604060208201819052600090610b3e90830184611e5d565b8215158152604060208201526000610b3e6040830184611e5d565b601f82111561243b576000816000526020600020601f850160051c810160208610156124185750805b601f850160051c820191505b8181101561243757828155600101612424565b5050505b505050565b81516001600160401b0381111561245957612459611b8a565b61246d816124678454612243565b846123ef565b602080601f8311600181146124a2576000841561248a5750858301515b600019600386901b1c1916600185901b178555612437565b600085815260208120601f198616915b828110156124d1578886015182559484019460019091019084016124b2565b50858210156124ef5787850151600019600388901b60f8161c191681555b5050505050600190811b01905550565b7f4661696c656420746f2067657420696e666f7220666f7220636f6c6c6563746981527f6f6e206e6f6e2d66756e6769626c6520746f6b656e3b207374617475733a200060208201526000825161255d81603f850160208701611e39565b91909101603f0192915050565b634e487b7160e01b600052601160045260246000fd5b600781810b9083900b01677fffffffffffffff8113677fffffffffffffff19821217156104555761045561256a565b7f4661696c656420746f206d696e74206e6f6e2d66756e6769626c6520746f6b6581526a0371d9039ba30ba3ab99d160ad1b6020820152600082516125fb81602b850160208701611e39565b91909101602b0192915050565b7f4661696c656420746f207472616e73666572206e6f6e2d66756e6769626c652081526e03a37b5b2b71d9039ba30ba3ab99d1608d1b6020820152602f0190565b600061265482612608565b8351612664818360208801611e39565b019392505050565b60008160070b677fffffffffffffff19810361268a5761268a61256a565b60000392915050565b6000600182016126a5576126a561256a565b5060010190565b634e487b7160e01b600052601260045260246000fd5b60006001600160401b03808416806126dc576126dc6126ac565b92169190910492915050565b818103818111156104555761045561256a565b60006001600160401b0380841680612715576127156126ac565b92169190910692915050565b6001600160401b038181168382160190808211156127415761274161256a565b5092915050565b6000816127575761275761256a565b506000190190565b600061276a82612608565b845161277a818360208901611e39565b690103a37b5b2b724b21d160b51b910190815283516127a081600a840160208801611e39565b01600a01949350505050565b60006060820160018060a01b038616835260208560070b60208501526060604085015281855180845260808601915060808160051b87010193506020870160005b8281101561281b57607f19888703018452612809868351611e5d565b955092840192908401906001016127ed565b50939998505050505050505050565b8051611b8581611f04565b60008060006060848603121561284a57600080fd5b61285384612383565b925060208085015161286481611f04565b60408601519093506001600160401b0381111561288057600080fd5b8501601f8101871361289157600080fd5b805161289f611cc882611c5f565b81815260059190911b820183019083810190898311156128be57600080fd5b928401925b828410156128e55783516128d681611f04565b825292840192908401906128c3565b80955050505050509250925092565b600082601f83011261290557600080fd5b8151612913611cc882611c82565b81815284602083860101111561292857600080fd5b610b3e826020830160208701611e39565b8051611b8581611b62565b8051611b8581611f1e565b600082601f83011261296057600080fd5b81516020612970611cc883611c5f565b82815260059290921b8401810191818101908684111561298f57600080fd5b8286015b84811015610f345780516001600160401b03808211156129b257600080fd5b908801906040601f19838c0381018213156129cc57600080fd5b6129d4611ba0565b88850151815282850151848111156129eb57600080fd5b949094019360a0858e0383011215612a035760008081fd5b612a0b611bc8565b915088850151612a1a81611f1e565b825284830151612a2981611b62565b828a015260608581015185811115612a415760008081fd5b612a4f8f8c838a01016128f4565b8585015250608093508386015185811115612a6a5760008081fd5b612a788f8c838a01016128f4565b828501525050612a8a60a08601612939565b928201929092528188015285525050918301918301612993565b600060608284031215612ab657600080fd5b604051606081018181106001600160401b0382111715612ad857612ad8611b8a565b80604052508091508251612aeb81611f04565b81526020830151612afb81611b62565b60208201526040830151612b0e81611f04565b6040919091015292915050565b60006101608284031215612b2e57600080fd5b612b36611bea565b905081516001600160401b0380821115612b4f57600080fd5b612b5b858386016128f4565b83526020840151915080821115612b7157600080fd5b612b7d858386016128f4565b6020840152612b8e60408501612939565b60408401526060840151915080821115612ba757600080fd5b612bb3858386016128f4565b6060840152612bc460808501612944565b6080840152612bd560a0850161282a565b60a0840152612be660c08501612944565b60c084015260e0840151915080821115612bff57600080fd5b50612c0c8482850161294f565b60e083015250610100612c2184828501612aa4565b9082015292915050565b600082601f830112612c3c57600080fd5b81516020612c4c611cc883611c5f565b82815260a09283028501820192828201919087851115612c6b57600080fd5b8387015b85811015612cf35781818a031215612c875760008081fd5b612c8f611bc8565b8151612c9a81611f04565b815281860151612ca981611b62565b81870152604082810151612cbc81611f1e565b90820152606082810151612ccf81611f1e565b90820152608082810151612ce281611b62565b908201528452928401928101612c6f565b5090979650505050505050565b600082601f830112612d1157600080fd5b81516020612d21611cc883611c5f565b82815260c09283028501820192828201919087851115612d4057600080fd5b8387015b85811015612cf35781818a031215612d5c5760008081fd5b612d64611c0d565b8151612d6f81611f04565b815281860151612d7e81611f04565b81870152604082810151612d9181611f04565b90820152606082810151612da481611f04565b90820152608082810151612db781611f1e565b9082015260a082810151612dca81611b62565b908201528452928401928101612d44565b600082601f830112612dec57600080fd5b81516020612dfc611cc883611c5f565b82815260c09283028501820192828201919087851115612e1b57600080fd5b8387015b85811015612cf35781818a031215612e375760008081fd5b612e3f611c0d565b8151612e4a81611f04565b815281860151612e5981611f04565b81870152604082810151612e6c81611f04565b90820152606082810151612e7f81611b62565b90820152608082810151612e9281611f1e565b9082015260a082810151612ea581611b62565b908201528452928401928101612e1f565b60008060408385031215612ec957600080fd5b612ed283612383565b915060208301516001600160401b0380821115612eee57600080fd5b908401906101208287031215612f0357600080fd5b612f0b611bea565b825182811115612f1a57600080fd5b612f2688828601612b1b565b825250612f356020840161282a565b6020820152612f4660408401612944565b6040820152612f5760608401612944565b6060820152612f6860808401612944565b608082015260a083015182811115612f7f57600080fd5b612f8b88828601612c2b565b60a08301525060c083015182811115612fa357600080fd5b612faf88828601612d00565b60c08301525060e083015182811115612fc757600080fd5b612fd388828601612ddb565b60e0830152506101008084015183811115612fed57600080fd5b612ff9898287016128f4565b8284015250508093505050509250929050565b600082825180855260208086019550808260051b84010181860160005b84811015612cf357858303601f1901895281518051845284015160408585018190528151151581860152818601516001600160a01b039081166060808801919091529183015160a0608080890182905291939092909161308c60e08a0186611e5d565b92860151898403603f1901858b01529294506130a88584611e5d565b9501511660c09790970196909652505098840198925090830190600101613029565b600061016082518185526130e082860182611e5d565b915050602083015184820360208601526130fa8282611e5d565b915050604083015161311760408601826001600160a01b03169052565b506060830151848203606086015261312f8282611e5d565b9150506080830151613145608086018215159052565b5060a083015161315a60a086018260070b9052565b5060c083015161316e60c086018215159052565b5060e083015184820360e0860152613186828261300c565b610100858101518051600790810b8984015260208201516001600160a01b03166101208a01526040820151900b61014089015291935091505090949350505050565b60008151808452602080850194506020840160005b838110156132485781518051600790810b895284820151810b858a015260408083015190910b908901526060808201516001600160a01b03908116918a01919091526080808301511515908a015260a091820151169088015260c090960195908201906001016131dd565b509495945050505050565b6000606080835261326760608401876130ca565b83810360208581019190915286518083528782019282019060005b818110156132d9578451805160070b8452848101516001600160a01b03908116868601526040808301511515908601528782015115158886015260809182015116908401529383019360a090920191600101613282565b505085810360408701526132ed81886131c8565b9998505050505050505050565b6000806040838503121561330d57600080fd5b61331683612383565b9150602083015161213881611b62565b6000600160ff1b820161333b5761333b61256a565b5060000390565b600082613351576133516126ac565b500490565b600082613365576133656126ac565b500690565b808201808211156104555761045561256a565b602081526000611e3260208301846130ca565b634e487b7160e01b600052602160045260246000fdfea2646970667358221220b4662ea5c327422557e2624aac320b1a0f5aca7ec5f6f37ba39282399440daef64736f6c63430008180033",
  "devdoc": {
    "kind": "dev",
    "methods": {
      "mintNftWithMetadata(address,bytes[])": {
        "details": "Example function that logs both the input metadata and a      newly-generated metadata to compare the two."
      },
      "redirectForToken(address,bytes)": {
        "params": {
          "encodedFunctionSelector": "The function selector from the ERC20 interface + the bytes input for the function called",
          "token": "The token address"
        },
        "returns": {
          "response": "The result of the call that had been encoded and sent for execution.",
          "responseCode": "The response code for the status of the request. SUCCESS is 22."
        }
      },
      "transferFrom(address,address,address,uint256)": {
        "params": {
          "amount": "The amount of tokens to transfer from `from` to `to`",
          "from": "The account address of the owner of the token, on the behalf of which to transfer `amount` tokens",
          "to": "The account address of the receiver of the `amount` tokens",
          "token": "The address of the fungible Hedera token to transfer"
        },
        "returns": {
          "responseCode": "The response code for the status of the request. SUCCESS is 22."
        }
      },
      "transferFromNFT(address,address,address,uint256)": {
        "params": {
          "from": "The account address of the owner of `serialNumber` of `token`",
          "serialNumber": "The NFT serial number to transfer",
          "to": "The account address of the receiver of `serialNumber`",
          "token": "The address of the non-fungible Hedera token to transfer"
        },
        "returns": {
          "responseCode": "The response code for the status of the request. SUCCESS is 22."
        }
      }
    },
    "version": 1
  },
  "userdoc": {
    "events": {
      "CallResponseEvent(bool,bytes)": {
        "notice": "Generic event"
      }
    },
    "kind": "user",
    "methods": {
      "redirectForToken(address,bytes)": {
        "notice": "Redirect for token"
      },
      "transferFrom(address,address,address,uint256)": {
        "notice": "Only applicable to fungible tokens"
      },
      "transferFromNFT(address,address,address,uint256)": {
        "notice": "Transfers `serialNumber` of `token` from `from` to `to` using the allowance mechanism. Only applicable to NFT tokens"
      }
    },
    "version": 1
  },
  "storageLayout": {
    "storage": [
      {
        "astId": 9672,
        "contract": "contracts/tokens/RariNFTCreator.sol:RariNFTCreator",
        "label": "supplyContract",
        "offset": 0,
        "slot": "0",
        "type": "t_address"
      },
      {
        "astId": 9677,
        "contract": "contracts/tokens/RariNFTCreator.sol:RariNFTCreator",
        "label": "keyTypes",
        "offset": 0,
        "slot": "1",
        "type": "t_mapping(t_enum(KeyType)9685,t_uint256)"
      },
      {
        "astId": 20977,
        "contract": "contracts/tokens/RariNFTCreator.sol:RariNFTCreator",
        "label": "baseUri",
        "offset": 0,
        "slot": "2",
        "type": "t_mapping(t_address,t_string_storage)"
      }
    ],
    "types": {
      "t_address": {
        "encoding": "inplace",
        "label": "address",
        "numberOfBytes": "20"
      },
      "t_enum(KeyType)9685": {
        "encoding": "inplace",
        "label": "enum KeyHelper.KeyType",
        "numberOfBytes": "1"
      },
      "t_mapping(t_address,t_string_storage)": {
        "encoding": "mapping",
        "key": "t_address",
        "label": "mapping(address => string)",
        "numberOfBytes": "32",
        "value": "t_string_storage"
      },
      "t_mapping(t_enum(KeyType)9685,t_uint256)": {
        "encoding": "mapping",
        "key": "t_enum(KeyType)9685",
        "label": "mapping(enum KeyHelper.KeyType => uint256)",
        "numberOfBytes": "32",
        "value": "t_uint256"
      },
      "t_string_storage": {
        "encoding": "bytes",
        "label": "string",
        "numberOfBytes": "32"
      },
      "t_uint256": {
        "encoding": "inplace",
        "label": "uint256",
        "numberOfBytes": "32"
      }
    }
  }
}