{
  "address": "0x3e52D660b69d1bDacb6C513cE085D924F5Cb9c77",
  "abi": [
    {
      "anonymous": false,
      "inputs": [
        {
          "indexed": false,
          "internalType": "bool",
          "name": "",
          "type": "bool"
        },
        {
          "indexed": false,
          "internalType": "bytes",
          "name": "",
          "type": "bytes"
        }
      ],
      "name": "CallResponseEvent",
      "type": "event"
    },
    {
      "anonymous": false,
      "inputs": [
        {
          "indexed": false,
          "internalType": "address",
          "name": "tokenAddress",
          "type": "address"
        }
      ],
      "name": "CreatedToken",
      "type": "event"
    },
    {
      "inputs": [
        {
          "internalType": "string",
          "name": "name",
          "type": "string"
        },
        {
          "internalType": "string",
          "name": "symbol",
          "type": "string"
        },
        {
          "internalType": "string",
          "name": "memo",
          "type": "string"
        },
        {
          "internalType": "int64",
          "name": "maxSupply",
          "type": "int64"
        },
        {
          "internalType": "int64",
          "name": "autoRenewPeriod",
          "type": "int64"
        }
      ],
      "name": "createNft",
      "outputs": [
        {
          "internalType": "address",
          "name": "",
          "type": "address"
        }
      ],
      "stateMutability": "payable",
      "type": "function"
    },
    {
      "inputs": [
        {
          "internalType": "address",
          "name": "token",
          "type": "address"
        },
        {
          "internalType": "bytes[]",
          "name": "metadata",
          "type": "bytes[]"
        }
      ],
      "name": "mintNft",
      "outputs": [
        {
          "internalType": "int64",
          "name": "",
          "type": "int64"
        }
      ],
      "stateMutability": "nonpayable",
      "type": "function"
    },
    {
      "inputs": [
        {
          "internalType": "address",
          "name": "token",
          "type": "address"
        },
        {
          "internalType": "bytes",
          "name": "encodedFunctionSelector",
          "type": "bytes"
        }
      ],
      "name": "redirectForToken",
      "outputs": [
        {
          "internalType": "int256",
          "name": "responseCode",
          "type": "int256"
        },
        {
          "internalType": "bytes",
          "name": "response",
          "type": "bytes"
        }
      ],
      "stateMutability": "nonpayable",
      "type": "function"
    },
    {
      "inputs": [
        {
          "internalType": "address",
          "name": "token",
          "type": "address"
        },
        {
          "internalType": "address",
          "name": "from",
          "type": "address"
        },
        {
          "internalType": "address",
          "name": "to",
          "type": "address"
        },
        {
          "internalType": "uint256",
          "name": "amount",
          "type": "uint256"
        }
      ],
      "name": "transferFrom",
      "outputs": [
        {
          "internalType": "int64",
          "name": "responseCode",
          "type": "int64"
        }
      ],
      "stateMutability": "nonpayable",
      "type": "function"
    },
    {
      "inputs": [
        {
          "internalType": "address",
          "name": "token",
          "type": "address"
        },
        {
          "internalType": "address",
          "name": "from",
          "type": "address"
        },
        {
          "internalType": "address",
          "name": "to",
          "type": "address"
        },
        {
          "internalType": "uint256",
          "name": "serialNumber",
          "type": "uint256"
        }
      ],
      "name": "transferFromNFT",
      "outputs": [
        {
          "internalType": "int64",
          "name": "responseCode",
          "type": "int64"
        }
      ],
      "stateMutability": "nonpayable",
      "type": "function"
    },
    {
      "inputs": [
        {
          "internalType": "address",
          "name": "token",
          "type": "address"
        },
        {
          "internalType": "address",
          "name": "receiver",
          "type": "address"
        },
        {
          "internalType": "int64",
          "name": "serial",
          "type": "int64"
        }
      ],
      "name": "transferNft",
      "outputs": [
        {
          "internalType": "int256",
          "name": "",
          "type": "int256"
        }
      ],
      "stateMutability": "nonpayable",
      "type": "function"
    }
  ],
  "transactionHash": "0x859f386cede8c1deabf3cd24e529b2fb893c4312a8c9ac00829d6ff25c5d4240",
  "args": [],
  "numDeployments": 1,
  "solcInputHash": "2ef3a5cb614a1611bb15237fb473bdd0",
  "bytecode": "0x608060405234801561001057600080fd5b50600160208181527fa6eef7e35abe7026729641147f7915573c7e97b47efa546f5f6e3230263bcb499190915560027fcc69885fda6bcc1a4ace058b4a62bf5e179ea78fd58a1ccd71c22cc9b688792f5560047fd9d16d34ffb15ba3a3d852f0d403e2ce1d691fb54de27ac87cd2f993f3ec330f5560087f7dfe757ecd65cbd7922a9c0161e935dd7fdbcc0e999689c7d31633896b1fc60b5560107fedc95719e9a3b28dd8e80877cb5880a9be7de1a13fc8b05e7999683b6b567643557fe2689cd4a84e23ad2f564004f1c9013e9589d260bde6380aba3ca7e09e4df40c55600660005260407f8f331abe73332f95a25873e8b430885974c0409691f89d643119a11623a7924a5561125d806101276000396000f3fe6080604052600436106100555760003560e01c80630a284cb61461005a57806315dacbea14610092578063618dc65e146100b257806382b562aa146100e05780639b23d3d91461010e578063b6c907a61461012e575b600080fd5b34801561006657600080fd5b5061007a610075366004610b34565b610159565b60405160079190910b81526020015b60405180910390f35b34801561009e57600080fd5b5061007a6100ad366004610bff565b6101f7565b3480156100be57600080fd5b506100d26100cd366004610c50565b6102eb565b604051610089929190610cf0565b3480156100ec57600080fd5b506101006100fb366004610d18565b610409565b604051908152602001610089565b34801561011a57600080fd5b5061007a610129366004610bff565b610480565b61014161013c366004610d63565b6104c5565b6040516001600160a01b039091168152602001610089565b600080600061016a856000866106b2565b9250509150601660030b82146101d15760405162461bcd60e51b815260206004820152602160248201527f4661696c656420746f206d696e74206e6f6e2d66756e6769626c6520746f6b656044820152603760f91b60648201526084015b60405180910390fd5b806000815181106101e4576101e4610e13565b6020026020010151925050505b92915050565b6040516001600160a01b038581166024830152848116604483015283166064820152608481018290526000908190819061016790630aed65f560e11b9060a4015b60408051601f198184030181529181526020820180516001600160e01b03166001600160e01b03199094169390931790925290516102769190610e29565b6000604051808303816000865af19150503d80600081146102b3576040519150601f19603f3d011682016040523d82523d6000602084013e6102b8565b606091505b5091509150816102c95760156102dd565b808060200190518101906102dd9190610e5c565b60030b979650505050505050565b600060606000806101676001600160a01b031663618dc65e60e01b8787604051602401610319929190610e7e565b60408051601f198184030181529181526020820180516001600160e01b03166001600160e01b03199094169390931790925290516103579190610e29565b6000604051808303816000865af19150503d8060008114610394576040519150601f19603f3d011682016040523d82523d6000602084013e610399565b606091505b50915091507f4af4780e06fe8cb9df64b0794fa6f01399af979175bb988e35e0e57e594567bc82826040516103cf929190610ea2565b60405180910390a1816103f3576015604051806020016040528060008152506103f7565b6016815b60039190910b97909650945050505050565b600080610418853086866107b0565b9050601681146104785760405162461bcd60e51b815260206004820152602560248201527f4661696c656420746f207472616e73666572206e6f6e2d66756e6769626c65206044820152643a37b5b2b760d91b60648201526084016101c8565b949350505050565b6040516001600160a01b038581166024830152848116604483015283166064820152608481018290526000908190819061016790639b23d3d960e01b9060a401610238565b604080516001808252818301909252600091829190816020015b6104e76109df565b8152602001906001900390816104df57905050905061050960046001306107f8565b8160008151811061051c5761051c610e13565b602002602001018190525061058d60408051610120810182526060808252602080830182905260008385018190528284018390526080840181905260a0840181905260c0840181905260e0840183905284519283018552808352908201819052928101929092529061010082015290565b8781526020810187905260608101869052306040820181905260016080830152600786900b60a083015260e08201839052600060c08301526105f6908560408051606081018252600081526001600160a01b0393909316602084015260079190910b9082015290565b6101008201526000806106088361082d565b9092509050601682146106695760405162461bcd60e51b815260206004820152602360248201527f4661696c656420746f20637265617465206e6f6e2d66756e6769626c6520746f60448201526235b2b760e91b60648201526084016101c8565b6040516001600160a01b03821681527f7bb17726df1f3adee8aa00ba8e8bc5d6f182af3bbf77604639cb7f008dd3b4ed9060200160405180910390a19998505050505050505050565b60008060606000806101676001600160a01b031663e0f4059a60e01b8989896040516024016106e393929190610ebd565b60408051601f198184030181529181526020820180516001600160e01b03166001600160e01b03199094169390931790925290516107219190610e29565b6000604051808303816000865af19150503d806000811461075e576040519150601f19603f3d011682016040523d82523d6000602084013e610763565b606091505b50915091508161078657604080516000808252602082019092526015919061079a565b8080602001905181019061079a9190610f3b565b60039290920b9a90995090975095505050505050565b6040516001600160a01b038581166024830152848116604483015283166064820152600782900b60848201526000908190819061016790635cfc901160e01b9060a401610238565b6108006109df565b60405180604001604052806108148661093d565b8152602001610823858561097c565b9052949350505050565b600080828061010001516000015160070b600014801561085757506101008101516040015160070b155b1561086d576101008101516276a7006040909101525b6000806101676001600160a01b03163463ea83f29360e01b8860405160240161089691906110c6565b60408051601f198184030181529181526020820180516001600160e01b03166001600160e01b03199094169390931790925290516108d49190610e29565b60006040518083038185875af1925050503d8060008114610911576040519150601f19603f3d011682016040523d82523d6000602084013e610916565b606091505b50915091508161092957601560006103f7565b808060200190518101906103f791906111da565b60006001600083600681111561095557610955611211565b600681111561096657610966611211565b8152602001908152602001600020549050919050565b6109846109fe565b600183600481111561099857610998611211565b036109b1576001600160a01b03821660208201526101f1565b60048360048111156109c5576109c5611211565b036101f1576001600160a01b038216608082015292915050565b6040518060400160405280600081526020016109f96109fe565b905290565b6040518060a0016040528060001515815260200160006001600160a01b03168152602001606081526020016060815260200160006001600160a01b031681525090565b6001600160a01b0381168114610a5657600080fd5b50565b634e487b7160e01b600052604160045260246000fd5b604051601f8201601f1916810167ffffffffffffffff81118282101715610a9857610a98610a59565b604052919050565b600067ffffffffffffffff821115610aba57610aba610a59565b5060051b60200190565b600082601f830112610ad557600080fd5b813567ffffffffffffffff811115610aef57610aef610a59565b610b02601f8201601f1916602001610a6f565b818152846020838601011115610b1757600080fd5b816020850160208301376000918101602001919091529392505050565b60008060408385031215610b4757600080fd5b8235610b5281610a41565b915060208381013567ffffffffffffffff80821115610b7057600080fd5b818601915086601f830112610b8457600080fd5b8135610b97610b9282610aa0565b610a6f565b81815260059190911b83018401908481019089831115610bb657600080fd5b8585015b83811015610bee57803585811115610bd25760008081fd5b610be08c89838a0101610ac4565b845250918601918601610bba565b508096505050505050509250929050565b60008060008060808587031215610c1557600080fd5b8435610c2081610a41565b93506020850135610c3081610a41565b92506040850135610c4081610a41565b9396929550929360600135925050565b60008060408385031215610c6357600080fd5b8235610c6e81610a41565b9150602083013567ffffffffffffffff811115610c8a57600080fd5b610c9685828601610ac4565b9150509250929050565b60005b83811015610cbb578181015183820152602001610ca3565b50506000910152565b60008151808452610cdc816020860160208601610ca0565b601f01601f19169290920160200192915050565b8281526040602082015260006104786040830184610cc4565b8060070b8114610a5657600080fd5b600080600060608486031215610d2d57600080fd5b8335610d3881610a41565b92506020840135610d4881610a41565b91506040840135610d5881610d09565b809150509250925092565b600080600080600060a08688031215610d7b57600080fd5b853567ffffffffffffffff80821115610d9357600080fd5b610d9f89838a01610ac4565b96506020880135915080821115610db557600080fd5b610dc189838a01610ac4565b95506040880135915080821115610dd757600080fd5b50610de488828901610ac4565b9350506060860135610df581610d09565b91506080860135610e0581610d09565b809150509295509295909350565b634e487b7160e01b600052603260045260246000fd5b60008251610e3b818460208701610ca0565b9190910192915050565b8051600381900b8114610e5757600080fd5b919050565b600060208284031215610e6e57600080fd5b610e7782610e45565b9392505050565b6001600160a01b038316815260406020820181905260009061047890830184610cc4565b82151581526040602082015260006104786040830184610cc4565b60006060820160018060a01b038616835260208560070b60208501526060604085015281855180845260808601915060808160051b87010193506020870160005b82811015610f2c57607f19888703018452610f1a868351610cc4565b95509284019290840190600101610efe565b50939998505050505050505050565b600080600060608486031215610f5057600080fd5b610f5984610e45565b9250602080850151610f6a81610d09565b604086015190935067ffffffffffffffff811115610f8757600080fd5b8501601f81018713610f9857600080fd5b8051610fa6610b9282610aa0565b81815260059190911b82018301908381019089831115610fc557600080fd5b928401925b82841015610fec578351610fdd81610d09565b82529284019290840190610fca565b80955050505050509250925092565b600082825180855260208086019550808260051b84010181860160005b848110156110b957858303601f1901895281518051845284015160408585018190528151151581860152818601516001600160a01b039081166060808801919091529183015160a0608080890182905291939092909161107b60e08a0186610cc4565b92860151898403603f1901858b01529294506110978584610cc4565b9501511660c09790970196909652505098840198925090830190600101611018565b5090979650505050505050565b602081526000825161016060208401526110e4610180840182610cc4565b90506020840151601f19808584030160408601526111028383610cc4565b92506040860151915061112060608601836001600160a01b03169052565b606086015191508085840301608086015261113b8383610cc4565b92506080860151915061115260a086018315159052565b60a0860151915061116860c086018360070b9052565b60c086015180151560e0870152915060e086015191506101008186850301818701526111948484610ffb565b908701518051600790810b61012089015260208201516001600160a01b03166101408901526040820151900b61016088015290935091506111d29050565b509392505050565b600080604083850312156111ed57600080fd5b6111f683610e45565b9150602083015161120681610a41565b809150509250929050565b634e487b7160e01b600052602160045260246000fdfea26469706673582212206537a0d2871881d378081e1a350ea8916471240b535db8d0b871db06e0c0453664736f6c63430008180033",
  "devdoc": {
    "kind": "dev",
    "methods": {
      "redirectForToken(address,bytes)": {
        "params": {
          "encodedFunctionSelector": "The function selector from the ERC20 interface + the bytes input for the function called",
          "token": "The token address"
        },
        "returns": {
          "response": "The result of the call that had been encoded and sent for execution.",
          "responseCode": "The response code for the status of the request. SUCCESS is 22."
        }
      },
      "transferFrom(address,address,address,uint256)": {
        "params": {
          "amount": "The amount of tokens to transfer from `from` to `to`",
          "from": "The account address of the owner of the token, on the behalf of which to transfer `amount` tokens",
          "to": "The account address of the receiver of the `amount` tokens",
          "token": "The address of the fungible Hedera token to transfer"
        },
        "returns": {
          "responseCode": "The response code for the status of the request. SUCCESS is 22."
        }
      },
      "transferFromNFT(address,address,address,uint256)": {
        "params": {
          "from": "The account address of the owner of `serialNumber` of `token`",
          "serialNumber": "The NFT serial number to transfer",
          "to": "The account address of the receiver of `serialNumber`",
          "token": "The address of the non-fungible Hedera token to transfer"
        },
        "returns": {
          "responseCode": "The response code for the status of the request. SUCCESS is 22."
        }
      }
    },
    "version": 1
  },
  "userdoc": {
    "events": {
      "CallResponseEvent(bool,bytes)": {
        "notice": "Generic event"
      }
    },
    "kind": "user",
    "methods": {
      "redirectForToken(address,bytes)": {
        "notice": "Redirect for token"
      },
      "transferFrom(address,address,address,uint256)": {
        "notice": "Only applicable to fungible tokens"
      },
      "transferFromNFT(address,address,address,uint256)": {
        "notice": "Transfers `serialNumber` of `token` from `from` to `to` using the allowance mechanism. Only applicable to NFT tokens"
      }
    },
    "version": 1
  },
  "storageLayout": {
    "storage": [
      {
        "astId": 14296,
        "contract": "contracts/tokens/RariNFTCreator.sol:RariNFTCreator",
        "label": "supplyContract",
        "offset": 0,
        "slot": "0",
        "type": "t_address"
      },
      {
        "astId": 14301,
        "contract": "contracts/tokens/RariNFTCreator.sol:RariNFTCreator",
        "label": "keyTypes",
        "offset": 0,
        "slot": "1",
        "type": "t_mapping(t_enum(KeyType)14309,t_uint256)"
      }
    ],
    "types": {
      "t_address": {
        "encoding": "inplace",
        "label": "address",
        "numberOfBytes": "20"
      },
      "t_enum(KeyType)14309": {
        "encoding": "inplace",
        "label": "enum KeyHelper.KeyType",
        "numberOfBytes": "1"
      },
      "t_mapping(t_enum(KeyType)14309,t_uint256)": {
        "encoding": "mapping",
        "key": "t_enum(KeyType)14309",
        "label": "mapping(enum KeyHelper.KeyType => uint256)",
        "numberOfBytes": "32",
        "value": "t_uint256"
      },
      "t_uint256": {
        "encoding": "inplace",
        "label": "uint256",
        "numberOfBytes": "32"
      }
    }
  }
}