{
  "contractName": "IExchangeV2",
  "abi": [
    {
      "inputs": [
        {
          "internalType": "bytes4",
          "name": "assetType",
          "type": "bytes4"
        },
        {
          "internalType": "address",
          "name": "matcher",
          "type": "address"
        }
      ],
      "name": "setAssetMatcher",
      "outputs": [],
      "stateMutability": "nonpayable",
      "type": "function"
    }
  ],
  "bytecode": "0x6080604052348015600f57600080fd5b50609c8061001e6000396000f3fe6080604052348015600f57600080fd5b506004361060285760003560e01c8063b39deb4614602d575b600080fd5b606060048036036040811015604157600080fd5b5080356001600160e01b03191690602001356001600160a01b03166062565b005b505056fea26469706673582212207e187e285eea3beb1ecd4c820904a3811d7338e6cabdb972e527b3501c804e1264736f6c63430007060033",
  "immutableReferences": {},
  "source": "// SPDX-License-Identifier: MIT\n\npragma solidity 0.7.6;\n\ncontract IExchangeV2{\n  function setAssetMatcher(bytes4 assetType, address matcher) external {\n  } \n}\n",
  "sourcePath": "/Users/vfadeev/Work/rarible/protocol/protocol-contracts/master/protocol-contracts/custom-matchers/contracts/IExchangeV2.sol",
  "compiler": {
    "name": "solc",
    "version": "0.7.6+commit.7338295f.Emscripten.clang"
  },
  "schemaVersion": "3.4.3",
  "updatedAt": "2023-10-21T09:37:32.250Z",
  "devdoc": {
    "kind": "dev",
    "methods": {},
    "version": 1
  },
  "userdoc": {
    "kind": "user",
    "methods": {},
    "version": 1
  }
}