{"abi":[{"type":"constructor","inputs":[],"stateMutability":"nonpayable"},{"type":"function","name":"DEFAULT_ADMIN_ROLE","inputs":[],"outputs":[{"name":"","type":"bytes32","internalType":"bytes32"}],"stateMutability":"view"},{"type":"function","name":"DEFAULT_FEE_RECIPIENT","inputs":[],"outputs":[{"name":"","type":"address","internalType":"address"}],"stateMutability":"view"},{"type":"function","name":"balanceOf","inputs":[{"name":"account","type":"address","internalType":"address"},{"name":"id","type":"uint256","internalType":"uint256"}],"outputs":[{"name":"","type":"uint256","internalType":"uint256"}],"stateMutability":"view"},{"type":"function","name":"balanceOfBatch","inputs":[{"name":"accounts","type":"address[]","internalType":"address[]"},{"name":"ids","type":"uint256[]","internalType":"uint256[]"}],"outputs":[{"name":"","type":"uint256[]","internalType":"uint256[]"}],"stateMutability":"view"},{"type":"function","name":"batchFrozen","inputs":[{"name":"","type":"uint256","internalType":"uint256"}],"outputs":[{"name":"","type":"bool","internalType":"bool"}],"stateMutability":"view"},{"type":"function","name":"burnBatch","inputs":[{"name":"account","type":"address","internalType":"address"},{"name":"ids","type":"uint256[]","internalType":"uint256[]"},{"name":"values","type":"uint256[]","internalType":"uint256[]"}],"outputs":[],"stateMutability":"nonpayable"},{"type":"function","name":"claim","inputs":[{"name":"_receiver","type":"address","internalType":"address"},{"name":"_tokenId","type":"uint256","internalType":"uint256"},{"name":"_quantity","type":"uint256","internalType":"uint256"},{"name":"_currency","type":"address","internalType":"address"},{"name":"_pricePerToken","type":"uint256","internalType":"uint256"},{"name":"_allowlistProof","type":"tuple","internalType":"struct IDrop1155.AllowlistProof","components":[{"name":"proof","type":"bytes32[]","internalType":"bytes32[]"},{"name":"quantityLimitPerWallet","type":"uint256","internalType":"uint256"},{"name":"pricePerToken","type":"uint256","internalType":"uint256"},{"name":"currency","type":"address","internalType":"address"}]},{"name":"_data","type":"bytes","internalType":"bytes"}],"outputs":[],"stateMutability":"payable"},{"type":"function","name":"claimCondition","inputs":[{"name":"","type":"uint256","internalType":"uint256"}],"outputs":[{"name":"currentStartId","type":"uint256","internalType":"uint256"},{"name":"count","type":"uint256","internalType":"uint256"}],"stateMutability":"view"},{"type":"function","name":"contractType","inputs":[],"outputs":[{"name":"","type":"bytes32","internalType":"bytes32"}],"stateMutability":"pure"},{"type":"function","name":"contractURI","inputs":[],"outputs":[{"name":"","type":"string","internalType":"string"}],"stateMutability":"view"},{"type":"function","name":"contractVersion","inputs":[],"outputs":[{"name":"","type":"uint8","internalType":"uint8"}],"stateMutability":"pure"},{"type":"function","name":"freezeBatchBaseURI","inputs":[{"name":"_index","type":"uint256","internalType":"uint256"}],"outputs":[],"stateMutability":"nonpayable"},{"type":"function","name":"getActiveClaimConditionId","inputs":[{"name":"_tokenId","type":"uint256","internalType":"uint256"}],"outputs":[{"name":"","type":"uint256","internalType":"uint256"}],"stateMutability":"view"},{"type":"function","name":"getBaseURICount","inputs":[],"outputs":[{"name":"","type":"uint256","internalType":"uint256"}],"stateMutability":"view"},{"type":"function","name":"getBatchIdAtIndex","inputs":[{"name":"_index","type":"uint256","internalType":"uint256"}],"outputs":[{"name":"","type":"uint256","internalType":"uint256"}],"stateMutability":"view"},{"type":"function","name":"getClaimConditionById","inputs":[{"name":"_tokenId","type":"uint256","internalType":"uint256"},{"name":"_conditionId","type":"uint256","internalType":"uint256"}],"outputs":[{"name":"condition","type":"tuple","internalType":"struct IClaimCondition.ClaimCondition","components":[{"name":"startTimestamp","type":"uint256","internalType":"uint256"},{"name":"maxClaimableSupply","type":"uint256","internalType":"uint256"},{"name":"supplyClaimed","type":"uint256","internalType":"uint256"},{"name":"quantityLimitPerWallet","type":"uint256","internalType":"uint256"},{"name":"merkleRoot","type":"bytes32","internalType":"bytes32"},{"name":"pricePerToken","type":"uint256","internalType":"uint256"},{"name":"currency","type":"address","internalType":"address"},{"name":"metadata","type":"string","internalType":"string"}]}],"stateMutability":"view"},{"type":"function","name":"getDefaultRoyaltyInfo","inputs":[],"outputs":[{"name":"","type":"address","internalType":"address"},{"name":"","type":"uint16","internalType":"uint16"}],"stateMutability":"view"},{"type":"function","name":"getFlatPlatformFeeInfo","inputs":[],"outputs":[{"name":"","type":"address","internalType":"address"},{"name":"","type":"uint256","internalType":"uint256"}],"stateMutability":"view"},{"type":"function","name":"getPlatformFeeInfo","inputs":[],"outputs":[{"name":"","type":"address","internalType":"address"},{"name":"","type":"uint16","internalType":"uint16"}],"stateMutability":"view"},{"type":"function","name":"getPlatformFeeType","inputs":[],"outputs":[{"name":"","type":"uint8","internalType":"enum IPlatformFee.PlatformFeeType"}],"stateMutability":"view"},{"type":"function","name":"getRoleAdmin","inputs":[{"name":"role","type":"bytes32","internalType":"bytes32"}],"outputs":[{"name":"","type":"bytes32","internalType":"bytes32"}],"stateMutability":"view"},{"type":"function","name":"getRoleMember","inputs":[{"name":"role","type":"bytes32","internalType":"bytes32"},{"name":"index","type":"uint256","internalType":"uint256"}],"outputs":[{"name":"member","type":"address","internalType":"address"}],"stateMutability":"view"},{"type":"function","name":"getRoleMemberCount","inputs":[{"name":"role","type":"bytes32","internalType":"bytes32"}],"outputs":[{"name":"count","type":"uint256","internalType":"uint256"}],"stateMutability":"view"},{"type":"function","name":"getRoyaltyInfoForToken","inputs":[{"name":"_tokenId","type":"uint256","internalType":"uint256"}],"outputs":[{"name":"","type":"address","internalType":"address"},{"name":"","type":"uint16","internalType":"uint16"}],"stateMutability":"view"},{"type":"function","name":"getSupplyClaimedByWallet","inputs":[{"name":"_tokenId","type":"uint256","internalType":"uint256"},{"name":"_conditionId","type":"uint256","internalType":"uint256"},{"name":"_claimer","type":"address","internalType":"address"}],"outputs":[{"name":"supplyClaimedByWallet","type":"uint256","internalType":"uint256"}],"stateMutability":"view"},{"type":"function","name":"grantRole","inputs":[{"name":"role","type":"bytes32","internalType":"bytes32"},{"name":"account","type":"address","internalType":"address"}],"outputs":[],"stateMutability":"nonpayable"},{"type":"function","name":"hasRole","inputs":[{"name":"role","type":"bytes32","internalType":"bytes32"},{"name":"account","type":"address","internalType":"address"}],"outputs":[{"name":"","type":"bool","internalType":"bool"}],"stateMutability":"view"},{"type":"function","name":"hasRoleWithSwitch","inputs":[{"name":"role","type":"bytes32","internalType":"bytes32"},{"name":"account","type":"address","internalType":"address"}],"outputs":[{"name":"","type":"bool","internalType":"bool"}],"stateMutability":"view"},{"type":"function","name":"initialize","inputs":[{"name":"_defaultAdmin","type":"address","internalType":"address"},{"name":"_name","type":"string","internalType":"string"},{"name":"_symbol","type":"string","internalType":"string"},{"name":"_contractURI","type":"string","internalType":"string"},{"name":"_trustedForwarders","type":"address[]","internalType":"address[]"},{"name":"_saleRecipient","type":"address","internalType":"address"},{"name":"_royaltyRecipient","type":"address","internalType":"address"},{"name":"_royaltyBps","type":"uint128","internalType":"uint128"},{"name":"_platformFeeBps","type":"uint128","internalType":"uint128"},{"name":"_platformFeeRecipient","type":"address","internalType":"address"}],"outputs":[],"stateMutability":"nonpayable"},{"type":"function","name":"isApprovedForAll","inputs":[{"name":"account","type":"address","internalType":"address"},{"name":"operator","type":"address","internalType":"address"}],"outputs":[{"name":"","type":"bool","internalType":"bool"}],"stateMutability":"view"},{"type":"function","name":"isTrustedForwarder","inputs":[{"name":"forwarder","type":"address","internalType":"address"}],"outputs":[{"name":"","type":"bool","internalType":"bool"}],"stateMutability":"view"},{"type":"function","name":"lazyMint","inputs":[{"name":"_amount","type":"uint256","internalType":"uint256"},{"name":"_baseURIForTokens","type":"string","internalType":"string"},{"name":"_data","type":"bytes","internalType":"bytes"}],"outputs":[{"name":"batchId","type":"uint256","internalType":"uint256"}],"stateMutability":"nonpayable"},{"type":"function","name":"maxTotalSupply","inputs":[{"name":"","type":"uint256","internalType":"uint256"}],"outputs":[{"name":"","type":"uint256","internalType":"uint256"}],"stateMutability":"view"},{"type":"function","name":"multicall","inputs":[{"name":"data","type":"bytes[]","internalType":"bytes[]"}],"outputs":[{"name":"results","type":"bytes[]","internalType":"bytes[]"}],"stateMutability":"nonpayable"},{"type":"function","name":"name","inputs":[],"outputs":[{"name":"","type":"string","internalType":"string"}],"stateMutability":"view"},{"type":"function","name":"nextTokenIdToMint","inputs":[],"outputs":[{"name":"","type":"uint256","internalType":"uint256"}],"stateMutability":"view"},{"type":"function","name":"owner","inputs":[],"outputs":[{"name":"","type":"address","internalType":"address"}],"stateMutability":"view"},{"type":"function","name":"primarySaleRecipient","inputs":[],"outputs":[{"name":"","type":"address","internalType":"address"}],"stateMutability":"view"},{"type":"function","name":"renounceRole","inputs":[{"name":"role","type":"bytes32","internalType":"bytes32"},{"name":"account","type":"address","internalType":"address"}],"outputs":[],"stateMutability":"nonpayable"},{"type":"function","name":"revokeRole","inputs":[{"name":"role","type":"bytes32","internalType":"bytes32"},{"name":"account","type":"address","internalType":"address"}],"outputs":[],"stateMutability":"nonpayable"},{"type":"function","name":"royaltyInfo","inputs":[{"name":"tokenId","type":"uint256","internalType":"uint256"},{"name":"salePrice","type":"uint256","internalType":"uint256"}],"outputs":[{"name":"receiver","type":"address","internalType":"address"},{"name":"royaltyAmount","type":"uint256","internalType":"uint256"}],"stateMutability":"view"},{"type":"function","name":"safeBatchTransferFrom","inputs":[{"name":"from","type":"address","internalType":"address"},{"name":"to","type":"address","internalType":"address"},{"name":"ids","type":"uint256[]","internalType":"uint256[]"},{"name":"amounts","type":"uint256[]","internalType":"uint256[]"},{"name":"data","type":"bytes","internalType":"bytes"}],"outputs":[],"stateMutability":"nonpayable"},{"type":"function","name":"safeTransferFrom","inputs":[{"name":"from","type":"address","internalType":"address"},{"name":"to","type":"address","internalType":"address"},{"name":"id","type":"uint256","internalType":"uint256"},{"name":"amount","type":"uint256","internalType":"uint256"},{"name":"data","type":"bytes","internalType":"bytes"}],"outputs":[],"stateMutability":"nonpayable"},{"type":"function","name":"saleRecipient","inputs":[{"name":"","type":"uint256","internalType":"uint256"}],"outputs":[{"name":"","type":"address","internalType":"address"}],"stateMutability":"view"},{"type":"function","name":"setApprovalForAll","inputs":[{"name":"operator","type":"address","internalType":"address"},{"name":"approved","type":"bool","internalType":"bool"}],"outputs":[],"stateMutability":"nonpayable"},{"type":"function","name":"setClaimConditions","inputs":[{"name":"_tokenId","type":"uint256","internalType":"uint256"},{"name":"_conditions","type":"tuple[]","internalType":"struct IClaimCondition.ClaimCondition[]","components":[{"name":"startTimestamp","type":"uint256","internalType":"uint256"},{"name":"maxClaimableSupply","type":"uint256","internalType":"uint256"},{"name":"supplyClaimed","type":"uint256","internalType":"uint256"},{"name":"quantityLimitPerWallet","type":"uint256","internalType":"uint256"},{"name":"merkleRoot","type":"bytes32","internalType":"bytes32"},{"name":"pricePerToken","type":"uint256","internalType":"uint256"},{"name":"currency","type":"address","internalType":"address"},{"name":"metadata","type":"string","internalType":"string"}]},{"name":"_resetClaimEligibility","type":"bool","internalType":"bool"}],"outputs":[],"stateMutability":"nonpayable"},{"type":"function","name":"setContractURI","inputs":[{"name":"_uri","type":"string","internalType":"string"}],"outputs":[],"stateMutability":"nonpayable"},{"type":"function","name":"setDefaultRoyaltyInfo","inputs":[{"name":"_royaltyRecipient","type":"address","internalType":"address"},{"name":"_royaltyBps","type":"uint256","internalType":"uint256"}],"outputs":[],"stateMutability":"nonpayable"},{"type":"function","name":"setFlatPlatformFeeInfo","inputs":[{"name":"_platformFeeRecipient","type":"address","internalType":"address"},{"name":"_flatFee","type":"uint256","internalType":"uint256"}],"outputs":[],"stateMutability":"nonpayable"},{"type":"function","name":"setMaxTotalSupply","inputs":[{"name":"_tokenId","type":"uint256","internalType":"uint256"},{"name":"_maxTotalSupply","type":"uint256","internalType":"uint256"}],"outputs":[],"stateMutability":"nonpayable"},{"type":"function","name":"setOwner","inputs":[{"name":"_newOwner","type":"address","internalType":"address"}],"outputs":[],"stateMutability":"nonpayable"},{"type":"function","name":"setPlatformFeeInfo","inputs":[{"name":"_platformFeeRecipient","type":"address","internalType":"address"},{"name":"_platformFeeBps","type":"uint256","internalType":"uint256"}],"outputs":[],"stateMutability":"nonpayable"},{"type":"function","name":"setPlatformFeeType","inputs":[{"name":"_feeType","type":"uint8","internalType":"enum IPlatformFee.PlatformFeeType"}],"outputs":[],"stateMutability":"nonpayable"},{"type":"function","name":"setPrimarySaleRecipient","inputs":[{"name":"_saleRecipient","type":"address","internalType":"address"}],"outputs":[],"stateMutability":"nonpayable"},{"type":"function","name":"setRoyaltyInfoForToken","inputs":[{"name":"_tokenId","type":"uint256","internalType":"uint256"},{"name":"_recipient","type":"address","internalType":"address"},{"name":"_bps","type":"uint256","internalType":"uint256"}],"outputs":[],"stateMutability":"nonpayable"},{"type":"function","name":"setSaleRecipientForToken","inputs":[{"name":"_tokenId","type":"uint256","internalType":"uint256"},{"name":"_saleRecipient","type":"address","internalType":"address"}],"outputs":[],"stateMutability":"nonpayable"},{"type":"function","name":"supportsInterface","inputs":[{"name":"interfaceId","type":"bytes4","internalType":"bytes4"}],"outputs":[{"name":"","type":"bool","internalType":"bool"}],"stateMutability":"view"},{"type":"function","name":"symbol","inputs":[],"outputs":[{"name":"","type":"string","internalType":"string"}],"stateMutability":"view"},{"type":"function","name":"totalSupply","inputs":[{"name":"","type":"uint256","internalType":"uint256"}],"outputs":[{"name":"","type":"uint256","internalType":"uint256"}],"stateMutability":"view"},{"type":"function","name":"updateBatchBaseURI","inputs":[{"name":"_index","type":"uint256","internalType":"uint256"},{"name":"_uri","type":"string","internalType":"string"}],"outputs":[],"stateMutability":"nonpayable"},{"type":"function","name":"uri","inputs":[{"name":"_tokenId","type":"uint256","internalType":"uint256"}],"outputs":[{"name":"","type":"string","internalType":"string"}],"stateMutability":"view"},{"type":"function","name":"verifyClaim","inputs":[{"name":"_conditionId","type":"uint256","internalType":"uint256"},{"name":"_claimer","type":"address","internalType":"address"},{"name":"_tokenId","type":"uint256","internalType":"uint256"},{"name":"_quantity","type":"uint256","internalType":"uint256"},{"name":"_currency","type":"address","internalType":"address"},{"name":"_pricePerToken","type":"uint256","internalType":"uint256"},{"name":"_allowlistProof","type":"tuple","internalType":"struct IDrop1155.AllowlistProof","components":[{"name":"proof","type":"bytes32[]","internalType":"bytes32[]"},{"name":"quantityLimitPerWallet","type":"uint256","internalType":"uint256"},{"name":"pricePerToken","type":"uint256","internalType":"uint256"},{"name":"currency","type":"address","internalType":"address"}]}],"outputs":[{"name":"isOverride","type":"bool","internalType":"bool"}],"stateMutability":"view"},{"type":"event","name":"ApprovalForAll","inputs":[{"name":"account","type":"address","indexed":true,"internalType":"address"},{"name":"operator","type":"address","indexed":true,"internalType":"address"},{"name":"approved","type":"bool","indexed":false,"internalType":"bool"}],"anonymous":false},{"type":"event","name":"BatchMetadataUpdate","inputs":[{"name":"_fromTokenId","type":"uint256","indexed":false,"internalType":"uint256"},{"name":"_toTokenId","type":"uint256","indexed":false,"internalType":"uint256"}],"anonymous":false},{"type":"event","name":"ClaimConditionsUpdated","inputs":[{"name":"tokenId","type":"uint256","indexed":true,"internalType":"uint256"},{"name":"claimConditions","type":"tuple[]","indexed":false,"internalType":"struct IClaimCondition.ClaimCondition[]","components":[{"name":"startTimestamp","type":"uint256","internalType":"uint256"},{"name":"maxClaimableSupply","type":"uint256","internalType":"uint256"},{"name":"supplyClaimed","type":"uint256","internalType":"uint256"},{"name":"quantityLimitPerWallet","type":"uint256","internalType":"uint256"},{"name":"merkleRoot","type":"bytes32","internalType":"bytes32"},{"name":"pricePerToken","type":"uint256","internalType":"uint256"},{"name":"currency","type":"address","internalType":"address"},{"name":"metadata","type":"string","internalType":"string"}]},{"name":"resetEligibility","type":"bool","indexed":false,"internalType":"bool"}],"anonymous":false},{"type":"event","name":"ContractURIUpdated","inputs":[{"name":"prevURI","type":"string","indexed":false,"internalType":"string"},{"name":"newURI","type":"string","indexed":false,"internalType":"string"}],"anonymous":false},{"type":"event","name":"DefaultRoyalty","inputs":[{"name":"newRoyaltyRecipient","type":"address","indexed":true,"internalType":"address"},{"name":"newRoyaltyBps","type":"uint256","indexed":false,"internalType":"uint256"}],"anonymous":false},{"type":"event","name":"FlatPlatformFeeUpdated","inputs":[{"name":"platformFeeRecipient","type":"address","indexed":false,"internalType":"address"},{"name":"flatFee","type":"uint256","indexed":false,"internalType":"uint256"}],"anonymous":false},{"type":"event","name":"Initialized","inputs":[{"name":"version","type":"uint8","indexed":false,"internalType":"uint8"}],"anonymous":false},{"type":"event","name":"MaxTotalSupplyUpdated","inputs":[{"name":"tokenId","type":"uint256","indexed":false,"internalType":"uint256"},{"name":"maxTotalSupply","type":"uint256","indexed":false,"internalType":"uint256"}],"anonymous":false},{"type":"event","name":"MetadataFrozen","inputs":[],"anonymous":false},{"type":"event","name":"OwnerUpdated","inputs":[{"name":"prevOwner","type":"address","indexed":true,"internalType":"address"},{"name":"newOwner","type":"address","indexed":true,"internalType":"address"}],"anonymous":false},{"type":"event","name":"PlatformFeeInfoUpdated","inputs":[{"name":"platformFeeRecipient","type":"address","indexed":true,"internalType":"address"},{"name":"platformFeeBps","type":"uint256","indexed":false,"internalType":"uint256"}],"anonymous":false},{"type":"event","name":"PlatformFeeTypeUpdated","inputs":[{"name":"feeType","type":"uint8","indexed":false,"internalType":"enum IPlatformFee.PlatformFeeType"}],"anonymous":false},{"type":"event","name":"PrimarySaleRecipientUpdated","inputs":[{"name":"recipient","type":"address","indexed":true,"internalType":"address"}],"anonymous":false},{"type":"event","name":"RoleAdminChanged","inputs":[{"name":"role","type":"bytes32","indexed":true,"internalType":"bytes32"},{"name":"previousAdminRole","type":"bytes32","indexed":true,"internalType":"bytes32"},{"name":"newAdminRole","type":"bytes32","indexed":true,"internalType":"bytes32"}],"anonymous":false},{"type":"event","name":"RoleGranted","inputs":[{"name":"role","type":"bytes32","indexed":true,"internalType":"bytes32"},{"name":"account","type":"address","indexed":true,"internalType":"address"},{"name":"sender","type":"address","indexed":true,"internalType":"address"}],"anonymous":false},{"type":"event","name":"RoleRevoked","inputs":[{"name":"role","type":"bytes32","indexed":true,"internalType":"bytes32"},{"name":"account","type":"address","indexed":true,"internalType":"address"},{"name":"sender","type":"address","indexed":true,"internalType":"address"}],"anonymous":false},{"type":"event","name":"RoyaltyForToken","inputs":[{"name":"tokenId","type":"uint256","indexed":true,"internalType":"uint256"},{"name":"royaltyRecipient","type":"address","indexed":true,"internalType":"address"},{"name":"royaltyBps","type":"uint256","indexed":false,"internalType":"uint256"}],"anonymous":false},{"type":"event","name":"SaleRecipientForTokenUpdated","inputs":[{"name":"tokenId","type":"uint256","indexed":true,"internalType":"uint256"},{"name":"saleRecipient","type":"address","indexed":false,"internalType":"address"}],"anonymous":false},{"type":"event","name":"TokensClaimed","inputs":[{"name":"claimConditionIndex","type":"uint256","indexed":true,"internalType":"uint256"},{"name":"claimer","type":"address","indexed":true,"internalType":"address"},{"name":"receiver","type":"address","indexed":true,"internalType":"address"},{"name":"tokenId","type":"uint256","indexed":false,"internalType":"uint256"},{"name":"quantityClaimed","type":"uint256","indexed":false,"internalType":"uint256"}],"anonymous":false},{"type":"event","name":"TokensLazyMinted","inputs":[{"name":"startTokenId","type":"uint256","indexed":true,"internalType":"uint256"},{"name":"endTokenId","type":"uint256","indexed":false,"internalType":"uint256"},{"name":"baseURI","type":"string","indexed":false,"internalType":"string"},{"name":"encryptedBaseURI","type":"bytes","indexed":false,"internalType":"bytes"}],"anonymous":false},{"type":"event","name":"TransferBatch","inputs":[{"name":"operator","type":"address","indexed":true,"internalType":"address"},{"name":"from","type":"address","indexed":true,"internalType":"address"},{"name":"to","type":"address","indexed":true,"internalType":"address"},{"name":"ids","type":"uint256[]","indexed":false,"internalType":"uint256[]"},{"name":"values","type":"uint256[]","indexed":false,"internalType":"uint256[]"}],"anonymous":false},{"type":"event","name":"TransferSingle","inputs":[{"name":"operator","type":"address","indexed":true,"internalType":"address"},{"name":"from","type":"address","indexed":true,"internalType":"address"},{"name":"to","type":"address","indexed":true,"internalType":"address"},{"name":"id","type":"uint256","indexed":false,"internalType":"uint256"},{"name":"value","type":"uint256","indexed":false,"internalType":"uint256"}],"anonymous":false},{"type":"event","name":"URI","inputs":[{"name":"value","type":"string","indexed":false,"internalType":"string"},{"name":"id","type":"uint256","indexed":true,"internalType":"uint256"}],"anonymous":false},{"type":"error","name":"BatchMintInvalidBatchId","inputs":[{"name":"index","type":"uint256","internalType":"uint256"}]},{"type":"error","name":"BatchMintInvalidTokenId","inputs":[{"name":"tokenId","type":"uint256","internalType":"uint256"}]},{"type":"error","name":"BatchMintMetadataFrozen","inputs":[{"name":"batchId","type":"uint256","internalType":"uint256"}]},{"type":"error","name":"ContractMetadataUnauthorized","inputs":[]},{"type":"error","name":"CurrencyTransferLibFailedNativeTransfer","inputs":[{"name":"recipient","type":"address","internalType":"address"},{"name":"value","type":"uint256","internalType":"uint256"}]},{"type":"error","name":"DropClaimExceedLimit","inputs":[{"name":"expected","type":"uint256","internalType":"uint256"},{"name":"actual","type":"uint256","internalType":"uint256"}]},{"type":"error","name":"DropClaimExceedMaxSupply","inputs":[{"name":"expected","type":"uint256","internalType":"uint256"},{"name":"actual","type":"uint256","internalType":"uint256"}]},{"type":"error","name":"DropClaimInvalidTokenPrice","inputs":[{"name":"expectedCurrency","type":"address","internalType":"address"},{"name":"expectedPricePerToken","type":"uint256","internalType":"uint256"},{"name":"actualCurrency","type":"address","internalType":"address"},{"name":"actualExpectedPricePerToken","type":"uint256","internalType":"uint256"}]},{"type":"error","name":"DropClaimNotStarted","inputs":[{"name":"expected","type":"uint256","internalType":"uint256"},{"name":"actual","type":"uint256","internalType":"uint256"}]},{"type":"error","name":"DropExceedMaxSupply","inputs":[]},{"type":"error","name":"DropNoActiveCondition","inputs":[]},{"type":"error","name":"DropUnauthorized","inputs":[]},{"type":"error","name":"LazyMintInvalidAmount","inputs":[]},{"type":"error","name":"LazyMintUnauthorized","inputs":[]},{"type":"error","name":"OwnableUnauthorized","inputs":[]},{"type":"error","name":"PermissionsAlreadyGranted","inputs":[{"name":"account","type":"address","internalType":"address"},{"name":"role","type":"bytes32","internalType":"bytes32"}]},{"type":"error","name":"PermissionsInvalidPermission","inputs":[{"name":"expected","type":"address","internalType":"address"},{"name":"actual","type":"address","internalType":"address"}]},{"type":"error","name":"PermissionsUnauthorizedAccount","inputs":[{"name":"account","type":"address","internalType":"address"},{"name":"neededRole","type":"bytes32","internalType":"bytes32"}]},{"type":"error","name":"PlatformFeeExceededMaxFeeBps","inputs":[{"name":"max","type":"uint256","internalType":"uint256"},{"name":"actual","type":"uint256","internalType":"uint256"}]},{"type":"error","name":"PlatformFeeInvalidRecipient","inputs":[{"name":"recipient","type":"address","internalType":"address"}]},{"type":"error","name":"PlatformFeeUnauthorized","inputs":[]},{"type":"error","name":"PrimarySaleInvalidRecipient","inputs":[{"name":"recipient","type":"address","internalType":"address"}]},{"type":"error","name":"PrimarySaleUnauthorized","inputs":[]},{"type":"error","name":"RoyaltyExceededMaxFeeBps","inputs":[{"name":"max","type":"uint256","internalType":"uint256"},{"name":"actual","type":"uint256","internalType":"uint256"}]},{"type":"error","name":"RoyaltyInvalidRecipient","inputs":[{"name":"recipient","type":"address","internalType":"address"}]},{"type":"error","name":"RoyaltyUnauthorized","inputs":[]}],"bytecode":{"object":"0x60806040523480156200001157600080fd5b50600054610100900460ff1615808015620000335750600054600160ff909116105b806200004f5750303b1580156200004f575060005460ff166001145b620000b75760405162461bcd60e51b815260206004820152602e60248201527f496e697469616c697a61626c653a20636f6e747261637420697320616c72656160448201526d191e481a5b9a5d1a585b1a5e995960921b606482015260840160405180910390fd5b6000805460ff191660011790558015620000db576000805461ff0019166101001790555b801562000122576000805461ff0019169055604051600181527f7f26b83ff96e1f2b6a682f133852f6798a09c465da95921460cefb38474024989060200160405180910390a15b50615b5c80620001336000396000f3fe6080604052600436106102cc5760003560e01c80638da5cb5b116101775780638da5cb5b146107535780639010d07c1461077157806391d1485414610791578063938e3d7b146107b157806395d89b41146107d15780639bcf7a15146107e6578063a07ced9e14610806578063a0a8e46014610826578063a217fddf14610842578063a22cb46514610857578063a32fa5b314610877578063ac9650d814610897578063b24f2d39146108c4578063b6f10c79146108ef578063bd85b0391461090f578063c7337d6b1461093c578063ca15c87314610972578063cb2ef6f714610992578063d37c353b146109b3578063d45573f6146109d3578063d45b28d7146109e8578063d547741f14610a15578063de903ddd14610a35578063e159163414610a55578063e57553da14610a75578063e8a3d48514610a99578063e9703d2514610aae578063e985e9c514610af0578063ea1def9c14610b39578063f242432a14610b59578063f28083c314610b7957600080fd5b8062fdd58e146102d157806301ffc9a71461030457806306fdde0314610334578063079fe40e146103565780630e89341c1461037857806313af403514610398578063183718d1146103ba5780631e7ac488146103da5780632419f51b146103fa578063248a9ca31461041a57806324aaffaa1461044757806329c49b9b146104745780632a55205a146104945780632eb2c2d6146104c25780632f2ff15d146104e257806336568abe146105025780633b1475a7146105225780634cc157df146105375780634e1273f414610579578063572b6c05146105a657806357bc3d78146105c65780635811ddab146105d95780635ab063e814610626578063600dd5ea14610646578063637102df1461066657806363b45e2d1461068e5780636b20c454146106a35780636f4f2837146106c35780637e54523c146106e3578063830405321461070357806387198cf214610733575b600080fd5b3480156102dd57600080fd5b506102f16102ec3660046145a1565b610ba0565b6040519081526020015b60405180910390f35b34801561031057600080fd5b5061032461031f3660046145e3565b610c3b565b60405190151581526020016102fb565b34801561034057600080fd5b50610349610c63565b6040516102fb9190614650565b34801561036257600080fd5b5061036b610cf1565b6040516102fb9190614663565b34801561038457600080fd5b50610349610393366004614677565b610d00565b3480156103a457600080fd5b506103b86103b3366004614690565b610d41565b005b3480156103c657600080fd5b506103b86103d5366004614706565b610d72565b3480156103e657600080fd5b506103b86103f53660046145a1565b61108e565b34801561040657600080fd5b506102f1610415366004614677565b6110c1565b34801561042657600080fd5b506102f1610435366004614677565b6000908152600d602052604090205490565b34801561045357600080fd5b506102f1610462366004614677565b60de6020526000908152604090205481565b34801561048057600080fd5b506103b861048f366004614764565b611113565b3480156104a057600080fd5b506104b46104af366004614794565b611185565b6040516102fb9291906147b6565b3480156104ce57600080fd5b506103b86104dd36600461491d565b6111c2565b3480156104ee57600080fd5b506103b86104fd366004614764565b611220565b34801561050e57600080fd5b506103b861051d366004614764565b61128b565b34801561052e57600080fd5b50600b546102f1565b34801561054357600080fd5b50610557610552366004614677565b6112cf565b604080516001600160a01b03909316835261ffff9091166020830152016102fb565b34801561058557600080fd5b50610599610594366004614a3e565b61133a565b6040516102fb9190614add565b3480156105b257600080fd5b506103246105c1366004614690565b61145b565b6103b86105d4366004614b02565b611479565b3480156105e557600080fd5b506102f16105f4366004614ba7565b6000928352600f60209081526040808520938552600390930181528284206001600160a01b0390921684525290205490565b34801561063257600080fd5b506102f1610641366004614677565b6115b3565b34801561065257600080fd5b506103b86106613660046145a1565b611647565b34801561067257600080fd5b5061036b731af20c6b23373350ad464700b5965ce4b0d2ad9481565b34801561069a57600080fd5b506008546102f1565b3480156106af57600080fd5b506103b86106be366004614be0565b611676565b3480156106cf57600080fd5b506103b86106de366004614690565b611713565b3480156106ef57600080fd5b506103b86106fe3660046145a1565b611741565b34801561070f57600080fd5b5061032461071e366004614677565b600a6020526000908152604090205460ff1681565b34801561073f57600080fd5b506103b861074e366004614794565b611770565b34801561075f57600080fd5b506007546001600160a01b031661036b565b34801561077d57600080fd5b5061036b61078c366004614794565b6117cc565b34801561079d57600080fd5b506103246107ac366004614764565b6118ba565b3480156107bd57600080fd5b506103b86107cc366004614c55565b6118e5565b3480156107dd57600080fd5b50610349611913565b3480156107f257600080fd5b506103b8610801366004614c89565b611920565b34801561081257600080fd5b506103b8610821366004614677565b611950565b34801561083257600080fd5b50604051600481526020016102fb565b34801561084e57600080fd5b506102f1600081565b34801561086357600080fd5b506103b8610872366004614cc1565b611973565b34801561088357600080fd5b50610324610892366004614764565b611985565b3480156108a357600080fd5b506108b76108b2366004614cef565b6119db565b6040516102fb9190614d30565b3480156108d057600080fd5b506004546001600160a01b03811690600160a01b900461ffff16610557565b3480156108fb57600080fd5b506103b861090a366004614d94565b611b4e565b34801561091b57600080fd5b506102f161092a366004614677565b60dd6020526000908152604090205481565b34801561094857600080fd5b5061036b610957366004614677565b60df602052600090815260409020546001600160a01b031681565b34801561097e57600080fd5b506102f161098d366004614677565b611b7c565b34801561099e57600080fd5b506a44726f704552433131353560a81b6102f1565b3480156109bf57600080fd5b506102f16109ce366004614df6565b611c05565b3480156109df57600080fd5b50610557611cfc565b3480156109f457600080fd5b50610a08610a03366004614794565b611d19565b6040516102fb9190614e6f565b348015610a2157600080fd5b506103b8610a30366004614764565b611e80565b348015610a4157600080fd5b506103b8610a50366004614edc565b611e99565b348015610a6157600080fd5b506103b8610a70366004614f3e565b611ef3565b348015610a8157600080fd5b506104b46002546003546001600160a01b0390911691565b348015610aa557600080fd5b5061034961213c565b348015610aba57600080fd5b50610ae2610ac9366004614677565b600f602052600090815260409020805460019091015482565b6040516102fb929190615050565b348015610afc57600080fd5b50610324610b0b36600461505e565b6001600160a01b03918216600090815260a76020908152604080832093909416825291909152205460ff1690565b348015610b4557600080fd5b50610324610b5436600461508c565b612149565b348015610b6557600080fd5b506103b8610b74366004615105565b6124f3565b348015610b8557600080fd5b50600254600160b01b900460ff166040516102fb9190615183565b60006001600160a01b038316610c105760405162461bcd60e51b815260206004820152602a60248201527f455243313135353a2061646472657373207a65726f206973206e6f742061207660448201526930b634b21037bbb732b960b11b60648201526084015b60405180910390fd5b50600081815260a6602090815260408083206001600160a01b03861684529091529020545b92915050565b6000610c468261254a565b80610c355750506001600160e01b03191663152a902d60e11b1490565b60d88054610c70906151ab565b80601f0160208091040260200160405190810160405280929190818152602001828054610c9c906151ab565b8015610ce95780601f10610cbe57610100808354040283529160200191610ce9565b820191906000526020600020905b815481529060010190602001808311610ccc57829003601f168201915b505050505081565b6006546001600160a01b031690565b60606000610d0d8361259a565b905080610d1984612718565b604051602001610d2a9291906151df565b604051602081830303815290604052915050919050565b610d496127aa565b610d66576040516316ccb9cb60e11b815260040160405180910390fd5b610d6f816127bd565b50565b610d7a6127aa565b610d97576040516356c4ef5160e01b815260040160405180910390fd5b6000848152600f6020526040902080546001820154818415610dc057610dbd8284615224565b90505b600184018690558084556000805b87811015610f4a57801580610e065750888882818110610df057610df0615237565b9050602002810190610e02919061524d565b3582105b610e375760405162461bcd60e51b815260206004820152600260248201526114d560f21b6044820152606401610c07565b60006002870181610e488487615224565b8152602001908152602001600020600201549050898983818110610e6e57610e6e615237565b9050602002810190610e80919061524d565b60200135811115610ea45760405163032b539f60e11b815260040160405180910390fd5b898983818110610eb657610eb6615237565b9050602002810190610ec8919061524d565b600288016000610ed88588615224565b81526020019081526020016000208181610ef291906153c9565b50819050600288016000610f068588615224565b8152602081019190915260400160002060020155898983818110610f2c57610f2c615237565b9050602002810190610f3e919061524d565b35925050600101610dce565b508515610fc157835b82811015610fbb576000818152600280880160205260408220828155600181018390559081018290556003810182905560048101829055600581018290556006810180546001600160a01b031916905590610fb1600783018261452e565b5050600101610f53565b50611047565b8683111561104757865b8381101561104557600286016000610fe38386615224565b81526020810191909152604001600090812081815560018101829055600281018290556003810182905560048101829055600581018290556006810180546001600160a01b03191690559061103b600783018261452e565b5050600101610fcb565b505b887f066f72a648b18490c0bc4ab07d508cdb5d6589fa188c63cfba1e0547f3a6556a89898960405161107b939291906154b5565b60405180910390a2505050505050505050565b6110966127aa565b6110b3576040516387d20a6d60e01b815260040160405180910390fd5b6110bd828261280f565b5050565b60006110cc60085490565b82106110ee57604051630793127760e11b815260048101839052602401610c07565b6008828154811061110157611101615237565b90600052602060002001549050919050565b600061111f81336128cd565b600083815260df60205260409081902080546001600160a01b0319166001600160a01b0385161790555183907f359479172ba65a6639b0df237f704e030498cb7135d5e89b56f598bd1d84b01690611178908590614663565b60405180910390a2505050565b600080600080611194866112cf565b90945084925061ffff1690506127106111ad828761559d565b6111b791906155b4565b925050509250929050565b6111ca612914565b6001600160a01b0316856001600160a01b031614806111f057506111f085610b0b612914565b61120c5760405162461bcd60e51b8152600401610c07906155d6565b611219858585858561291e565b5050505050565b6000828152600d602052604090205461123990336128cd565b6000828152600c602090815260408083206001600160a01b038516845290915290205460ff1615611281578082604051636a4e0b3560e11b8152600401610c079291906147b6565b6110bd8282612acf565b336001600160a01b038216146112c5576040516320b4e31160e11b81523360048201526001600160a01b0382166024820152604401610c07565b6110bd8282612ae3565b6000818152600560209081526040808320815180830190925280546001600160a01b0316808352600190910154928201929092528291156113165780516020820151611330565b6004546001600160a01b03811690600160a01b900461ffff165b9250925050915091565b6060815183511461139f5760405162461bcd60e51b815260206004820152602960248201527f455243313135353a206163636f756e747320616e6420696473206c656e677468604482015268040dad2e6dac2e8c6d60bb1b6064820152608401610c07565b600083516001600160401b038111156113ba576113ba6147cf565b6040519080825280602002602001820160405280156113e3578160200160208202803683370190505b50905060005b84518110156114535761142e85828151811061140757611407615237565b602002602001015185838151811061142157611421615237565b6020026020010151610ba0565b82828151811061144057611440615237565b60209081029190910101526001016113e9565b509392505050565b6001600160a01b031660009081526042602052604090205460ff1690565b61148886888787878787612b3a565b6000611493876115b3565b90506114ab816114a1612bc8565b8989898989612149565b506000878152600f60209081526040808320848452600290810190925282200180548892906114db908490615224565b90915550506000878152600f6020908152604080832084845260030190915281208791611506612bc8565b6001600160a01b03166001600160a01b0316815260200190815260200160002060008282546115359190615224565b909155506115499050876000888888612bd2565b611554888888612d15565b876001600160a01b0316611566612bc8565b6001600160a01b0316827ffa76a4010d9533e3e964f2930a65fb6042a12fa6ff5b08281837a10b0be7321e8a8a6040516115a1929190615050565b60405180910390a45050505050505050565b6000818152600f602052604081206001810154815483916115d391615224565b90505b815481111561162d576002820160006115f0600184615624565b815260200190815260200160002060000154421061161b57611613600182615624565b949350505050565b8061162581615637565b9150506115d6565b506040516303d03c7360e61b815260040160405180910390fd5b61164f6127aa565b61166c57604051636fae358160e11b815260040160405180910390fd5b6110bd8282612d30565b61167e612914565b6001600160a01b0316836001600160a01b031614806116a457506116a483610b0b612914565b6117035760405162461bcd60e51b815260206004820152602a60248201527f455243313135353a2063616c6c6572206973206e6f74206f776e6572206e6f726044820152691030b8383937bb32b21760b11b6064820152608401610c07565b61170e838383612db4565b505050565b61171b6127aa565b61173857604051631c98210f60e21b815260040160405180910390fd5b610d6f81612fca565b6117496127aa565b611766576040516387d20a6d60e01b815260040160405180910390fd5b6110bd828261303d565b600061177c81336128cd565b600083815260de602052604090819020839055517fc58cd6132bb46df23d468939c03dd023b74b509aaa6b04c39d5a6461c65963bd906117bf9085908590615050565b60405180910390a1505050565b6000828152600e602052604081205481805b828110156118b1576000868152600e602090815260408083208484526001019091529020546001600160a01b03161561185a57848203611848576000868152600e602090815260408083209383526001909301905220546001600160a01b03169250610c35915050565b611853600183615224565b915061189f565b6118658660006118ba565b801561188c57506000868152600e6020908152604080832083805260020190915290205481145b1561189f5761189c600183615224565b91505b6118aa600182615224565b90506117de565b50505092915050565b6000918252600c602090815260408084206001600160a01b0393909316845291905290205460ff1690565b6118ed6127aa565b61190a57604051639f7f092560e01b815260040160405180910390fd5b610d6f8161309b565b60d98054610c70906151ab565b6119286127aa565b61194557604051636fae358160e11b815260040160405180910390fd5b61170e83838361316b565b60dc5461195d81336128cd565b6000611968836110c1565b905061170e8161321a565b6110bd61197e612914565b838361331b565b6000828152600c6020908152604080832083805290915281205460ff166119d257506000828152600c602090815260408083206001600160a01b038516845290915290205460ff16610c35565b50600192915050565b6060816001600160401b038111156119f5576119f56147cf565b604051908082528060200260200182016040528015611a2857816020015b6060815260200190600190039081611a135790505b5090506000611a35612914565b9050336001600160a01b038216141560005b848110156118b1578115611ac657611aa430878784818110611a6b57611a6b615237565b9050602002810190611a7d919061526d565b86604051602001611a909392919061564e565b6040516020818303038152906040526133f3565b848281518110611ab657611ab6615237565b6020026020010181905250611b46565b611b2830878784818110611adc57611adc615237565b9050602002810190611aee919061526d565b8080601f0160208091040260200160405190810160405280939291908181526020018383808284376000920191909152506133f392505050565b848281518110611b3a57611b3a615237565b60200260200101819052505b600101611a47565b611b566127aa565b611b73576040516387d20a6d60e01b815260040160405180910390fd5b610d6f8161341f565b6000818152600e6020526040812054815b81811015611be0576000848152600e602090815260408083208484526001019091529020546001600160a01b031615611bce57611bcb600184615224565b92505b611bd9600182615224565b9050611b8d565b50611bec8360006118ba565b15611bff57611bfc600183615224565b91505b50919050565b6000611c0f613483565b611c2c5760405163f409ec7360e01b815260040160405180910390fd5b85600003611c4d57604051638fd36a9b60e01b815260040160405180910390fd5b6000600b549050611c95818888888080601f01602080910402602001604051908101604052809392919081815260200183838082843760009201919091525061349392505050565b600b919091559150807f2a0365091ef1a40953c670dce28177e37520648a6fdc91506bffac0ab045570d6001611ccb8a84615224565b611cd59190615624565b88888888604051611cea95949392919061566f565b60405180910390a25095945050505050565b6002546001600160a01b03811691600160a01b90910461ffff1690565b611d6d60405180610100016040528060008152602001600081526020016000815260200160008152602001600080191681526020016000815260200160006001600160a01b03168152602001606081525090565b6000838152600f6020908152604080832085845260029081018352928190208151610100810183528154815260018201549381019390935292830154908201526003820154606082015260048201546080820152600582015460a082015260068201546001600160a01b031660c082015260078201805491929160e084019190611df6906151ab565b80601f0160208091040260200160405190810160405280929190818152602001828054611e22906151ab565b8015611e6f5780601f10611e4457610100808354040283529160200191611e6f565b820191906000526020600020905b815481529060010190602001808311611e5257829003601f168201915b505050505081525050905092915050565b6000828152600d60205260409020546112c590336128cd565b60dc54611ea681336128cd565b6000611eb1856110c1565b90506112198185858080601f0160208091040260200160405190810160405280939291908181526020018383808284376000920191909152506134f792505050565b600054610100900460ff1615808015611f135750600054600160ff909116105b80611f345750611f223061357c565b158015611f34575060005460ff166001145b611f975760405162461bcd60e51b815260206004820152602e60248201527f496e697469616c697a61626c653a20636f6e747261637420697320616c72656160448201526d191e481a5b9a5d1a585b1a5e995960921b6064820152608401610c07565b6000805460ff191660011790558015611fba576000805461ff0019166101001790555b7f8502233096d909befbda0999bb8ea2f3a6be3c138b9fbf003752a4c8bce86f6c7f9f2df0fed2c77648de5860a4cc508cd0818c85b8b8a1ab4ceeef8d981c8956a67f6bd6b5318a46e5fff572d5e4258a20774aab40cc35ac7680654b9081fcc82f806120268a61358b565b61203e604051806020016040528060008152506135c3565b6120478b61309b565b6120508e6127bd565b61205b60008f612acf565b612065828f612acf565b61206f838f612acf565b61207a836000612acf565b612084818f612acf565b61208e81826135f3565b6120a185876001600160801b031661280f565b6120b488886001600160801b0316612d30565b6120bd89612fca565b60da83905560db82905560dc81905560d86120d88e826156a8565b5060d96120e58d826156a8565b50505050801561212f576000805461ff0019169055604051600181527f7f26b83ff96e1f2b6a682f133852f6798a09c465da95921460cefb38474024989060200160405180910390a15b5050505050505050505050565b60018054610c70906151ab565b6000858152600f602090815260408083208a8452600290810183528184208251610100810184528154815260018201549481019490945290810154918301919091526003810154606083015260048101546080830152600581015460a083015260068101546001600160a01b031660c08301526007810180548493929160e08401916121d4906151ab565b80601f0160208091040260200160405190810160405280929190818152602001828054612200906151ab565b801561224d5780601f106122225761010080835404028352916020019161224d565b820191906000526020600020905b81548152906001019060200180831161223057829003601f168201915b50505091909252505050606081015160a082015160c083015160808401519394509192909190156122fb576122f76122858780615761565b86608001518e8a602001358b604001358c60600160208101906122a89190614690565b6040516001600160601b0319606095861b811660208301526034820194909452605481019290925290921b1660748201526088016040516020818303038152906040528051906020012061363b565b5094505b84156123825785602001356000036123135782612319565b85602001355b925060001986604001350361232e5781612334565b85604001355b9150600019866040013514158015612365575060006123596080880160608901614690565b6001600160a01b031614155b61236f578061237f565b61237f6080870160608801614690565b90505b6000600f60008c815260200190815260200160002060030160008e815260200190815260200160002060008d6001600160a01b03166001600160a01b03168152602001908152602001600020549050816001600160a01b0316896001600160a01b03161415806123f25750828814155b156124315760405163f13474e960e01b81526001600160a01b03808b166004830152602482018a90528316604482015260648101849052608401610c07565b891580612446575083612444828c615224565b115b156124715783612456828c615224565b604051639e7762db60e01b8152600401610c07929190615050565b84602001518a86604001516124869190615224565b11156124bc5784602001518a86604001516124a19190615224565b60405163fe381cc960e01b8152600401610c07929190615050565b84514210156124e35784516040516322b1048f60e11b8152610c0791904290600401615050565b5050505050979650505050505050565b6124fb612914565b6001600160a01b0316856001600160a01b03161480612521575061252185610b0b612914565b61253d5760405162461bcd60e51b8152600401610c07906155d6565b61121985858585856136c6565b60006001600160e01b03198216636cdb3d1360e11b148061257b57506001600160e01b031982166303a24d0760e21b145b80610c3557506301ffc9a760e01b6001600160e01b0319831614610c35565b606060006125a760085490565b9050600060088054806020026020016040519081016040528092919081815260200182805480156125f757602002820191906000526020600020905b8154815260200190600101908083116125e3575b5050505050905060005b828110156126fb5781818151811061261b5761261b615237565b60200260200101518510156126e9576009600083838151811061264057612640615237565b602002602001015181526020019081526020016000208054612661906151ab565b80601f016020809104026020016040519081016040528092919081815260200182805461268d906151ab565b80156126da5780601f106126af576101008083540402835291602001916126da565b820191906000526020600020905b8154815290600101906020018083116126bd57829003601f168201915b50505050509350505050919050565b6126f4600182615224565b9050612601565b506040516309797f6960e21b815260048101859052602401610c07565b6060600061272583613819565b60010190506000816001600160401b03811115612744576127446147cf565b6040519080825280601f01601f19166020018201604052801561276e576020820181803683370190505b5090508181016020015b600019016f181899199a1a9b1b9c1cb0b131b232b360811b600a86061a8153600a850494508461277857509392505050565b60006127b8816107ac612914565b905090565b600780546001600160a01b038381166001600160a01b0319831681179093556040519116919082907f8292fce18fa69edf4db7b94ea2e58241df0ae57f97e0a6c9b29067028bf92d7690600090a35050565b6127108111156128385761271081604051631c1a1fe960e11b8152600401610c07929190615050565b6001600160a01b03821661286157816040516334c5763b60e21b8152600401610c079190614663565b600280546001600160b01b031916600160a01b61ffff8416026001600160a01b031916176001600160a01b0384169081179091556040518281527fe2497bd806ec41a6e0dd992c29a72efc0ef8fec9092d1978fd4a1e00b2f18304906020015b60405180910390a25050565b6000828152600c602090815260408083206001600160a01b038516845290915290205460ff166110bd57808260405163043c588360e11b8152600401610c079291906147b6565b60006127b86138ef565b815183511461293f5760405162461bcd60e51b8152600401610c07906157aa565b6001600160a01b0384166129655760405162461bcd60e51b8152600401610c07906157f2565b600061296f612914565b905061297f818787878787613914565b60005b8451811015612a6157600085828151811061299f5761299f615237565b6020026020010151905060008583815181106129bd576129bd615237565b602090810291909101810151600084815260a6835260408082206001600160a01b038e168352909352919091205490915081811015612a0e5760405162461bcd60e51b8152600401610c0790615837565b600083815260a6602090815260408083206001600160a01b038e8116855292528083208585039055908b16825281208054849290612a4d908490615224565b909155505060019093019250612982915050565b50846001600160a01b0316866001600160a01b0316826001600160a01b03167f4a39dc06d4c0dbc64b70af90fd698a233a518aa5d07e595d983b8c0526c8f7fb8787604051612ab1929190615881565b60405180910390a4612ac7818787878787613abf565b505050505050565b612ad98282613c21565b6110bd8282613c7c565b612aed8282613ce9565b6000828152600e602090815260408083206001600160a01b03851680855260028201808552838620805487526001909301855292852080546001600160a01b031916905584529152555050565b600087815260de60205260409020541580612b795750600087815260de602090815260408083205460dd90925290912054612b76908790615224565b11155b612bbf5760405162461bcd60e51b8152602060048201526017602482015276657863656564206d617820746f74616c20737570706c7960481b6044820152606401610c07565b50505050505050565b60006127b8612914565b80600003612bfd573415612bf85760405162461bcd60e51b8152600401610c07906158af565b611219565b600080612c08611cfc565b909250905060006001600160a01b03871615612c245786612c66565b600088815260df60205260409020546001600160a01b031615612c5e57600088815260df60205260409020546001600160a01b0316612c66565b612c66610cf1565b90506000612c74858861559d565b90506000612710612c8961ffff86168461559d565b612c9391906155b4565b9050600073eeeeeeeeeeeeeeeeeeeeeeeeeeeeeeeeeeeeeeed196001600160a01b03891601612cc55750348214612cc9565b5034155b80612ce65760405162461bcd60e51b8152600401610c07906158af565b612cf988612cf2612914565b8885613d4b565b61212f88612d05612914565b86612d108688615624565b613d4b565b61170e83838360405180602001604052806000815250613d91565b612710811115612d595761271081604051630a4930ad60e31b8152600401610c07929190615050565b600480546001600160a01b0384166001600160b01b03199091168117600160a01b61ffff851602179091556040518281527f90d7ec04bcb8978719414f82e52e4cb651db41d0e6f8cea6118c2191e6183adb906020016128c1565b6001600160a01b038316612e165760405162461bcd60e51b815260206004820152602360248201527f455243313135353a206275726e2066726f6d20746865207a65726f206164647260448201526265737360e81b6064820152608401610c07565b8051825114612e375760405162461bcd60e51b8152600401610c07906157aa565b6000612e41612914565b9050612e6181856000868660405180602001604052806000815250613914565b60005b8351811015612f5b576000848281518110612e8157612e81615237565b602002602001015190506000848381518110612e9f57612e9f615237565b602090810291909101810151600084815260a6835260408082206001600160a01b038c168352909352919091205490915081811015612f2c5760405162461bcd60e51b8152602060048201526024808201527f455243313135353a206275726e20616d6f756e7420657863656564732062616c604482015263616e636560e01b6064820152608401610c07565b600092835260a6602090815260408085206001600160a01b038b16865290915290922091039055600101612e64565b5060006001600160a01b0316846001600160a01b0316826001600160a01b03167f4a39dc06d4c0dbc64b70af90fd698a233a518aa5d07e595d983b8c0526c8f7fb8686604051612fac929190615881565b60405180910390a46040805160208101909152600090525b50505050565b6001600160a01b038116612ff35780604051630f7cac3760e21b8152600401610c079190614663565b600680546001600160a01b0319166001600160a01b0383169081179091556040517f299d17e95023f496e0ffc4909cff1a61f74bb5eb18de6f900f4155bfa1b3b33390600090a250565b6003819055600280546001600160a01b0319166001600160a01b0384161790556040517ff8086cee80709bd44c82f89dbca54115ebd05e840a88ab81df9cf5be9754eb639061308f90849084906147b6565b60405180910390a15050565b6000600180546130aa906151ab565b80601f01602080910402602001604051908101604052809291908181526020018280546130d6906151ab565b80156131235780601f106130f857610100808354040283529160200191613123565b820191906000526020600020905b81548152906001019060200180831161310657829003601f168201915b50505050509050816001908161313991906156a8565b507fc9c7c3fe08b88b4df9d4d47ef47d2c43d55c025a0ba88ca442580ed9e7348a16818360405161308f9291906158cb565b6127108111156131945761271081604051630a4930ad60e31b8152600401610c07929190615050565b6040805180820182526001600160a01b038481168083526020808401868152600089815260058352869020945185546001600160a01b031916941693909317845591516001909301929092559151838152909185917f7365cf4122f072a3365c20d54eff9b38d73c096c28e1892ec8f5b0e403a0f12d91015b60405180910390a3505050565b60008181526009602052604081208054613233906151ab565b80601f016020809104026020016040519081016040528092919081815260200182805461325f906151ab565b80156132ac5780601f10613281576101008083540402835291602001916132ac565b820191906000526020600020905b81548152906001019060200180831161328f57829003601f168201915b5050505050905080516000036132d857604051630793127760e11b815260048101839052602401610c07565b6000828152600a6020526040808220805460ff19166001179055517feef043febddf4e1d1cf1f72ff1407b84e036e805aa0934418cb82095da8d71649190a15050565b816001600160a01b0316836001600160a01b03160361338e5760405162461bcd60e51b815260206004820152602960248201527f455243313135353a2073657474696e6720617070726f76616c20737461747573604482015268103337b91039b2b63360b91b6064820152608401610c07565b6001600160a01b03838116600081815260a76020908152604080832094871680845294825291829020805460ff191686151590811790915591519182527f17307eab39ab6107e8899845ad3d59bd9653f200f220920489ca2b5937696c31910161320d565b60606134188383604051806060016040528060278152602001615b0060279139613ec6565b9392505050565b6002805482919060ff60b01b1916600160b01b8360018111156134445761344461516d565b02179055507fd246da9440709ce0dd3f4fd669abc85ada012ab9774b8ecdcc5059ba1486b9c1816040516134789190615183565b60405180910390a150565b60006127b860db546107ac612914565b6000806134a08486615224565b60088054600181019091557ff3f7a9fe364faab93b216da50a3214154f22a0a2b415b23a84c8169e8b636ee30181905560008181526009602052604090209092508291506134ee84826156a8565b50935093915050565b6000828152600a602052604090205460ff161561352a57604051635d079ac960e11b815260048101839052602401610c07565b600082815260096020526040902061354282826156a8565b507f6bd5c950a8d8df17f772f5af37cb3655737899cbf903264b9795592da439661c61356d83613f3e565b8360405161308f929190615050565b6001600160a01b03163b151590565b600054610100900460ff166135b25760405162461bcd60e51b8152600401610c07906158f0565b6135ba614030565b610d6f81614059565b600054610100900460ff166135ea5760405162461bcd60e51b8152600401610c07906158f0565b610d6f816140de565b6000828152600d6020526040808220805490849055905190918391839186917fbd79b86ffe0ab8e8776151514217cd7cacd52c909f66475c3af44e129f0b00ff9190a4505050565b6000808281805b878110156136b75761365560028361559d565b9150600089898381811061366b5761366b615237565b90506020020135905080841161369057600084815260208290526040902093506136ae565b600081815260208590526040902093506136ab600184615224565b92505b50600101613642565b50941496939550929350505050565b6001600160a01b0384166136ec5760405162461bcd60e51b8152600401610c07906157f2565b60006136f6612914565b90506000613703856140ea565b90506000613710856140ea565b9050613720838989858589613914565b600086815260a6602090815260408083206001600160a01b038c168452909152902054858110156137635760405162461bcd60e51b8152600401610c0790615837565b600087815260a6602090815260408083206001600160a01b038d8116855292528083208985039055908a168252812080548892906137a2908490615224565b92505081905550876001600160a01b0316896001600160a01b0316856001600160a01b03167fc3d58168c5ae7397731d063d5bbf3d657854427343f4c083240f7aacaa2d0f628a8a6040516137f8929190615050565b60405180910390a461380e848a8a8a8a8a614135565b505050505050505050565b60008072184f03e93ff9f4daa797ed6e38ed64bf6a1f0160401b83106138585772184f03e93ff9f4daa797ed6e38ed64bf6a1f0160401b830492506040015b6904ee2d6d415b85acef8160201b8310613882576904ee2d6d415b85acef8160201b830492506020015b662386f26fc1000083106138a057662386f26fc10000830492506010015b6305f5e10083106138b8576305f5e100830492506008015b61271083106138cc57612710830492506004015b606483106138de576064830492506002015b600a8310610c355760010192915050565b60006138fa3361145b565b1561390c575060131936013560601c90565b503390565b90565b61392160da5460006118ba565b15801561393657506001600160a01b03851615155b801561394a57506001600160a01b03841615155b156139c55761395b60da54866118ba565b8061396d575061396d60da54856118ba565b6139c55760405162461bcd60e51b8152602060048201526024808201527f7265737472696374656420746f205452414e534645525f524f4c4520686f6c6460448201526332b9399760e11b6064820152608401610c07565b6001600160a01b038516613a435760005b8351811015613a41578281815181106139f1576139f1615237565b602002602001015160dd6000868481518110613a0f57613a0f615237565b602002602001015181526020019081526020016000206000828254613a349190615224565b90915550506001016139d6565b505b6001600160a01b038416612ac75760005b8351811015612bbf57828181518110613a6f57613a6f615237565b602002602001015160dd6000868481518110613a8d57613a8d615237565b602002602001015181526020019081526020016000206000828254613ab29190615624565b9091555050600101613a54565b613ad1846001600160a01b031661357c565b15612ac75760405163bc197c8160e01b81526001600160a01b0385169063bc197c8190613b0a908990899088908890889060040161593b565b6020604051808303816000875af1925050508015613b45575060408051601f3d908101601f19168201909252613b429181019061598d565b60015b613bf157613b516159aa565b806308c379a003613b8a5750613b656159c5565b80613b705750613b8c565b8060405162461bcd60e51b8152600401610c079190614650565b505b60405162461bcd60e51b815260206004820152603460248201527f455243313135353a207472616e7366657220746f206e6f6e2d455243313135356044820152732932b1b2b4bb32b91034b6b83632b6b2b73a32b960611b6064820152608401610c07565b6001600160e01b0319811663bc197c8160e01b14612bbf5760405162461bcd60e51b8152600401610c0790615a4e565b6000828152600c602090815260408083206001600160a01b0385168085529252808320805460ff1916600117905551339285917f2f8788117e7eff1d82e926ec794901d17c78024a50270940304540a733656f0d9190a45050565b6000828152600e6020526040812080549160019190613c9b8385615224565b90915550506000928352600e6020908152604080852083865260018101835281862080546001600160a01b039096166001600160a01b03199096168617905593855260029093019052912055565b613cf382826128cd565b6000828152600c602090815260408083206001600160a01b0385168085529252808320805460ff1916905551339285917ff6391f5c32d9c69d2a47ea670b442974b53935d1edc7fd64eb21e047a839171b9190a45050565b8015612fc45773eeeeeeeeeeeeeeeeeeeeeeeeeeeeeeeeeeeeeeed196001600160a01b03851601613d8557613d8082826141f7565b612fc4565b612fc48484848461426f565b6001600160a01b038416613df15760405162461bcd60e51b815260206004820152602160248201527f455243313135353a206d696e7420746f20746865207a65726f206164647265736044820152607360f81b6064820152608401610c07565b6000613dfb612914565b90506000613e08856140ea565b90506000613e15856140ea565b9050613e2683600089858589613914565b600086815260a6602090815260408083206001600160a01b038b16845290915281208054879290613e58908490615224565b92505081905550866001600160a01b031660006001600160a01b0316846001600160a01b03167fc3d58168c5ae7397731d063d5bbf3d657854427343f4c083240f7aacaa2d0f628989604051613eaf929190615050565b60405180910390a4612bbf83600089898989614135565b6060600080856001600160a01b031685604051613ee39190615a96565b600060405180830381855af49150503d8060008114613f1e576040519150601f19603f3d011682016040523d82523d6000602084013e613f23565b606091505b5091509150613f34868383876142c2565b9695505050505050565b600080613f4a60085490565b905060006008805480602002602001604051908101604052809291908181526020018280548015613f9a57602002820191906000526020600020905b815481526020019060010190808311613f86575b5050505050905060005b8281101561401357818181518110613fbe57613fbe615237565b6020026020010151850361400b5780156140005781613fde600183615624565b81518110613fee57613fee615237565b60200260200101519350505050919050565b506000949350505050565b600101613fa4565b50604051630793127760e11b815260048101859052602401610c07565b600054610100900460ff166140575760405162461bcd60e51b8152600401610c07906158f0565b565b600054610100900460ff166140805760405162461bcd60e51b8152600401610c07906158f0565b60005b81518110156110bd576001604260008484815181106140a4576140a4615237565b6020908102919091018101516001600160a01b03168252810191909152604001600020805460ff1916911515919091179055600101614083565b60a86110bd82826156a8565b6040805160018082528183019092526060916000919060208083019080368337019050509050828160008151811061412457614124615237565b602090810291909101015292915050565b614147846001600160a01b031661357c565b15612ac75760405163f23a6e6160e01b81526001600160a01b0385169063f23a6e61906141809089908990889088908890600401615aa8565b6020604051808303816000875af19250505080156141bb575060408051601f3d908101601f191682019092526141b89181019061598d565b60015b6141c757613b516159aa565b6001600160e01b0319811663f23a6e6160e01b14612bbf5760405162461bcd60e51b8152600401610c0790615a4e565b6000826001600160a01b03168260405160006040518083038185875af1925050503d8060008114614244576040519150601f19603f3d011682016040523d82523d6000602084013e614249565b606091505b505090508061170e578282604051635fdc4ec160e11b8152600401610c079291906147b6565b816001600160a01b0316836001600160a01b03160315612fc457306001600160a01b038416036142ad57613d806001600160a01b0385168383614339565b612fc46001600160a01b03851684848461438f565b6060831561432f578251600003614328576142dc8561357c565b6143285760405162461bcd60e51b815260206004820152601d60248201527f416464726573733a2063616c6c20746f206e6f6e2d636f6e74726163740000006044820152606401610c07565b5081611613565b61161383836143c7565b61170e8363a9059cbb60e01b84846040516024016143589291906147b6565b60408051601f198184030181529190526020810180516001600160e01b03166001600160e01b0319909316929092179091526143d7565b6040516001600160a01b0380851660248301528316604482015260648101829052612fc49085906323b872dd60e01b90608401614358565b815115613b705781518083602001fd5b600061442c826040518060400160405280602081526020017f5361666545524332303a206c6f772d6c6576656c2063616c6c206661696c6564815250856001600160a01b03166144a99092919063ffffffff16565b80519091501561170e578080602001905181019061444a9190615ae2565b61170e5760405162461bcd60e51b815260206004820152602a60248201527f5361666545524332303a204552433230206f7065726174696f6e20646964206e6044820152691bdd081cdd58d8d9595960b21b6064820152608401610c07565b6060611613848460008585600080866001600160a01b031685876040516144d09190615a96565b60006040518083038185875af1925050503d806000811461450d576040519150601f19603f3d011682016040523d82523d6000602084013e614512565b606091505b5091509150614523878383876142c2565b979650505050505050565b50805461453a906151ab565b6000825580601f1061454a575050565b601f016020900490600052602060002090810190610d6f91905b808211156145785760008155600101614564565b5090565b6001600160a01b0381168114610d6f57600080fd5b803561459c8161457c565b919050565b600080604083850312156145b457600080fd5b82356145bf8161457c565b946020939093013593505050565b6001600160e01b031981168114610d6f57600080fd5b6000602082840312156145f557600080fd5b8135613418816145cd565b60005b8381101561461b578181015183820152602001614603565b50506000910152565b6000815180845261463c816020860160208601614600565b601f01601f19169290920160200192915050565b6020815260006134186020830184614624565b6001600160a01b0391909116815260200190565b60006020828403121561468957600080fd5b5035919050565b6000602082840312156146a257600080fd5b81356134188161457c565b60008083601f8401126146bf57600080fd5b5081356001600160401b038111156146d657600080fd5b6020830191508360208260051b85010111156146f157600080fd5b9250929050565b8015158114610d6f57600080fd5b6000806000806060858703121561471c57600080fd5b8435935060208501356001600160401b0381111561473957600080fd5b614745878288016146ad565b9094509250506040850135614759816146f8565b939692955090935050565b6000806040838503121561477757600080fd5b8235915060208301356147898161457c565b809150509250929050565b600080604083850312156147a757600080fd5b50508035926020909101359150565b6001600160a01b03929092168252602082015260400190565b634e487b7160e01b600052604160045260246000fd5b601f8201601f191681016001600160401b038111828210171561480a5761480a6147cf565b6040525050565b60006001600160401b0382111561482a5761482a6147cf565b5060051b60200190565b600082601f83011261484557600080fd5b8135602061485282614811565b60405161485f82826147e5565b80915083815260208101915060208460051b87010193508684111561488357600080fd5b602086015b8481101561489f5780358352918301918301614888565b509695505050505050565b600082601f8301126148bb57600080fd5b81356001600160401b038111156148d4576148d46147cf565b6040516148eb601f8301601f1916602001826147e5565b81815284602083860101111561490057600080fd5b816020850160208301376000918101602001919091529392505050565b600080600080600060a0868803121561493557600080fd5b85356149408161457c565b945060208601356149508161457c565b935060408601356001600160401b038082111561496c57600080fd5b61497889838a01614834565b9450606088013591508082111561498e57600080fd5b61499a89838a01614834565b935060808801359150808211156149b057600080fd5b506149bd888289016148aa565b9150509295509295909350565b600082601f8301126149db57600080fd5b813560206149e882614811565b6040516149f582826147e5565b80915083815260208101915060208460051b870101935086841115614a1957600080fd5b602086015b8481101561489f578035614a318161457c565b8352918301918301614a1e565b60008060408385031215614a5157600080fd5b82356001600160401b0380821115614a6857600080fd5b614a74868387016149ca565b93506020850135915080821115614a8a57600080fd5b50614a9785828601614834565b9150509250929050565b60008151808452602080850194506020840160005b83811015614ad257815187529582019590820190600101614ab6565b509495945050505050565b6020815260006134186020830184614aa1565b600060808284031215611bff57600080fd5b600080600080600080600060e0888a031215614b1d57600080fd5b8735614b288161457c565b965060208801359550604088013594506060880135614b468161457c565b93506080880135925060a08801356001600160401b0380821115614b6957600080fd5b614b758b838c01614af0565b935060c08a0135915080821115614b8b57600080fd5b50614b988a828b016148aa565b91505092959891949750929550565b600080600060608486031215614bbc57600080fd5b83359250602084013591506040840135614bd58161457c565b809150509250925092565b600080600060608486031215614bf557600080fd5b8335614c008161457c565b925060208401356001600160401b0380821115614c1c57600080fd5b614c2887838801614834565b93506040860135915080821115614c3e57600080fd5b50614c4b86828701614834565b9150509250925092565b600060208284031215614c6757600080fd5b81356001600160401b03811115614c7d57600080fd5b611613848285016148aa565b600080600060608486031215614c9e57600080fd5b833592506020840135614cb08161457c565b929592945050506040919091013590565b60008060408385031215614cd457600080fd5b8235614cdf8161457c565b91506020830135614789816146f8565b60008060208385031215614d0257600080fd5b82356001600160401b03811115614d1857600080fd5b614d24858286016146ad565b90969095509350505050565b600060208083016020845280855180835260408601915060408160051b87010192506020870160005b82811015614d8757603f19888603018452614d75858351614624565b94509285019290850190600101614d59565b5092979650505050505050565b600060208284031215614da657600080fd5b81356002811061341857600080fd5b60008083601f840112614dc757600080fd5b5081356001600160401b03811115614dde57600080fd5b6020830191508360208285010111156146f157600080fd5b600080600080600060608688031215614e0e57600080fd5b8535945060208601356001600160401b0380821115614e2c57600080fd5b614e3889838a01614db5565b90965094506040880135915080821115614e5157600080fd5b50614e5e88828901614db5565b969995985093965092949392505050565b6020815281516020820152602082015160408201526040820151606082015260608201516080820152608082015160a082015260a082015160c082015260018060a01b0360c08301511660e0820152600060e0830151610100808185015250611613610120840182614624565b600080600060408486031215614ef157600080fd5b8335925060208401356001600160401b03811115614f0e57600080fd5b614f1a86828701614db5565b9497909650939450505050565b80356001600160801b038116811461459c57600080fd5b6000806000806000806000806000806101408b8d031215614f5e57600080fd5b614f678b614591565b995060208b01356001600160401b0380821115614f8357600080fd5b614f8f8e838f016148aa565b9a5060408d0135915080821115614fa557600080fd5b614fb18e838f016148aa565b995060608d0135915080821115614fc757600080fd5b614fd38e838f016148aa565b985060808d0135915080821115614fe957600080fd5b50614ff68d828e016149ca565b96505061500560a08c01614591565b945061501360c08c01614591565b935061502160e08c01614f27565b92506150306101008c01614f27565b915061503f6101208c01614591565b90509295989b9194979a5092959850565b918252602082015260400190565b6000806040838503121561507157600080fd5b823561507c8161457c565b915060208301356147898161457c565b600080600080600080600060e0888a0312156150a757600080fd5b8735965060208801356150b98161457c565b9550604088013594506060880135935060808801356150d78161457c565b925060a0880135915060c08801356001600160401b038111156150f957600080fd5b614b988a828b01614af0565b600080600080600060a0868803121561511d57600080fd5b85356151288161457c565b945060208601356151388161457c565b9350604086013592506060860135915060808601356001600160401b0381111561516157600080fd5b6149bd888289016148aa565b634e487b7160e01b600052602160045260246000fd5b60208101600283106151a557634e487b7160e01b600052602160045260246000fd5b91905290565b600181811c908216806151bf57607f821691505b602082108103611bff57634e487b7160e01b600052602260045260246000fd5b600083516151f1818460208801614600565b835190830190615205818360208801614600565b01949350505050565b634e487b7160e01b600052601160045260246000fd5b80820180821115610c3557610c3561520e565b634e487b7160e01b600052603260045260246000fd5b6000823560fe1983360301811261526357600080fd5b9190910192915050565b6000808335601e1984360301811261528457600080fd5b8301803591506001600160401b0382111561529e57600080fd5b6020019150368190038213156146f157600080fd5b601f82111561170e576000816000526020600020601f850160051c810160208610156152dc5750805b601f850160051c820191505b81811015612ac7578281556001016152e8565b600019600383901b1c191660019190911b1790565b6001600160401b03831115615327576153276147cf565b61533b8361533583546151ab565b836152b3565b6000601f84116001811461536957600085156153575750838201355b61536186826152fb565b845550611219565b600083815260209020601f19861690835b8281101561539a578685013582556020948501946001909201910161537a565b50868210156153b75760001960f88860031b161c19848701351681555b505060018560011b0183555050505050565b813581556020820135600182015560408201356002820155606082013560038201556080820135600482015560a082013560058201556006810160c08301356154118161457c565b81546001600160a01b0319166001600160a01b039190911617905561543960e083018361526d565b612fc4818360078601615310565b6000808335601e1984360301811261545e57600080fd5b83016020810192503590506001600160401b0381111561547d57600080fd5b8036038213156146f157600080fd5b81835281816020850137506000828201602090810191909152601f909101601f19169091010190565b60408082528181018490526000906060808401600587901b850182018885805b8a81101561558757888403605f190185528235368d900360fe190181126154fa578283fd5b8c018035855260208082013581870152888201358987015287820135888701526080808301359087015260a080830135908701526101009060c0808401356155418161457c565b6001600160a01b03169088015260e061555c84820185615447565b945083828a0152615570848a01868361548c565b9983019998505050949094019350506001016154d5565b5050508615156020870152935061161392505050565b8082028115828204841417610c3557610c3561520e565b6000826155d157634e487b7160e01b600052601260045260246000fd5b500490565b6020808252602e908201527f455243313135353a2063616c6c6572206973206e6f7420746f6b656e206f776e60408201526d195c881bdc88185c1c1c9bdd995960921b606082015260800190565b81810381811115610c3557610c3561520e565b6000816156465761564661520e565b506000190190565b8284823760609190911b6001600160601b0319169101908152601401919050565b85815260606020820152600061568960608301868861548c565b828103604084015261569c81858761548c565b98975050505050505050565b81516001600160401b038111156156c1576156c16147cf565b6156d5816156cf84546151ab565b846152b3565b602080601f83116001811461570457600084156156f25750858301515b6156fc85826152fb565b865550612ac7565b600085815260208120601f198616915b8281101561573357888601518255948401946001909101908401615714565b50858210156157515787850151600019600388901b60f8161c191681555b5050505050600190811b01905550565b6000808335601e1984360301811261577857600080fd5b8301803591506001600160401b0382111561579257600080fd5b6020019150600581901b36038213156146f157600080fd5b60208082526028908201527f455243313135353a2069647320616e6420616d6f756e7473206c656e677468206040820152670dad2e6dac2e8c6d60c31b606082015260800190565b60208082526025908201527f455243313135353a207472616e7366657220746f20746865207a65726f206164604082015264647265737360d81b606082015260800190565b6020808252602a908201527f455243313135353a20696e73756666696369656e742062616c616e636520666f60408201526939103a3930b739b332b960b11b606082015260800190565b6040815260006158946040830185614aa1565b82810360208401526158a68185614aa1565b95945050505050565b60208082526002908201526110ab60f11b604082015260600190565b6040815260006158de6040830185614624565b82810360208401526158a68185614624565b6020808252602b908201527f496e697469616c697a61626c653a20636f6e7472616374206973206e6f74206960408201526a6e697469616c697a696e6760a81b606082015260800190565b6001600160a01b0386811682528516602082015260a06040820181905260009061596790830186614aa1565b82810360608401526159798186614aa1565b9050828103608084015261569c8185614624565b60006020828403121561599f57600080fd5b8151613418816145cd565b600060033d11156139115760046000803e5060005160e01c90565b600060443d10156159d35790565b6040516003193d81016004833e81513d6001600160401b038160248401118184111715615a0257505050505090565b8285019150815181811115615a1a5750505050505090565b843d8701016020828501011115615a345750505050505090565b615a43602082860101876147e5565b509095945050505050565b60208082526028908201527f455243313135353a204552433131353552656365697665722072656a656374656040820152676420746f6b656e7360c01b606082015260800190565b60008251615263818460208701614600565b6001600160a01b03868116825285166020820152604081018490526060810183905260a06080820181905260009061452390830184614624565b600060208284031215615af457600080fd5b8151613418816146f856fe416464726573733a206c6f772d6c6576656c2064656c65676174652063616c6c206661696c6564a2646970667358221220f5810037f848fb95191912a5f8163259b6e92125401006842f03276bf9c81d1664736f6c63430008170033","linkReferences":{}},"methodIdentifiers":{"DEFAULT_ADMIN_ROLE()":"a217fddf","DEFAULT_FEE_RECIPIENT()":"637102df","balanceOf(address,uint256)":"00fdd58e","balanceOfBatch(address[],uint256[])":"4e1273f4","batchFrozen(uint256)":"83040532","burnBatch(address,uint256[],uint256[])":"6b20c454","claim(address,uint256,uint256,address,uint256,(bytes32[],uint256,uint256,address),bytes)":"57bc3d78","claimCondition(uint256)":"e9703d25","contractType()":"cb2ef6f7","contractURI()":"e8a3d485","contractVersion()":"a0a8e460","freezeBatchBaseURI(uint256)":"a07ced9e","getActiveClaimConditionId(uint256)":"5ab063e8","getBaseURICount()":"63b45e2d","getBatchIdAtIndex(uint256)":"2419f51b","getClaimConditionById(uint256,uint256)":"d45b28d7","getDefaultRoyaltyInfo()":"b24f2d39","getFlatPlatformFeeInfo()":"e57553da","getPlatformFeeInfo()":"d45573f6","getPlatformFeeType()":"f28083c3","getRoleAdmin(bytes32)":"248a9ca3","getRoleMember(bytes32,uint256)":"9010d07c","getRoleMemberCount(bytes32)":"ca15c873","getRoyaltyInfoForToken(uint256)":"4cc157df","getSupplyClaimedByWallet(uint256,uint256,address)":"5811ddab","grantRole(bytes32,address)":"2f2ff15d","hasRole(bytes32,address)":"91d14854","hasRoleWithSwitch(bytes32,address)":"a32fa5b3","initialize(address,string,string,string,address[],address,address,uint128,uint128,address)":"e1591634","isApprovedForAll(address,address)":"e985e9c5","isTrustedForwarder(address)":"572b6c05","lazyMint(uint256,string,bytes)":"d37c353b","maxTotalSupply(uint256)":"24aaffaa","multicall(bytes[])":"ac9650d8","name()":"06fdde03","nextTokenIdToMint()":"3b1475a7","owner()":"8da5cb5b","primarySaleRecipient()":"079fe40e","renounceRole(bytes32,address)":"36568abe","revokeRole(bytes32,address)":"d547741f","royaltyInfo(uint256,uint256)":"2a55205a","safeBatchTransferFrom(address,address,uint256[],uint256[],bytes)":"2eb2c2d6","safeTransferFrom(address,address,uint256,uint256,bytes)":"f242432a","saleRecipient(uint256)":"c7337d6b","setApprovalForAll(address,bool)":"a22cb465","setClaimConditions(uint256,(uint256,uint256,uint256,uint256,bytes32,uint256,address,string)[],bool)":"183718d1","setContractURI(string)":"938e3d7b","setDefaultRoyaltyInfo(address,uint256)":"600dd5ea","setFlatPlatformFeeInfo(address,uint256)":"7e54523c","setMaxTotalSupply(uint256,uint256)":"87198cf2","setOwner(address)":"13af4035","setPlatformFeeInfo(address,uint256)":"1e7ac488","setPlatformFeeType(uint8)":"b6f10c79","setPrimarySaleRecipient(address)":"6f4f2837","setRoyaltyInfoForToken(uint256,address,uint256)":"9bcf7a15","setSaleRecipientForToken(uint256,address)":"29c49b9b","supportsInterface(bytes4)":"01ffc9a7","symbol()":"95d89b41","totalSupply(uint256)":"bd85b039","updateBatchBaseURI(uint256,string)":"de903ddd","uri(uint256)":"0e89341c","verifyClaim(uint256,address,uint256,uint256,address,uint256,(bytes32[],uint256,uint256,address))":"ea1def9c"},"id":344}