{"abi":[{"type":"constructor","inputs":[],"stateMutability":"nonpayable"},{"type":"function","name":"DEFAULT_ADMIN_ROLE","inputs":[],"outputs":[{"name":"","type":"bytes32","internalType":"bytes32"}],"stateMutability":"view"},{"type":"function","name":"DEFAULT_FEE_RECIPIENT","inputs":[],"outputs":[{"name":"","type":"address","internalType":"address"}],"stateMutability":"view"},{"type":"function","name":"approve","inputs":[{"name":"to","type":"address","internalType":"address"},{"name":"tokenId","type":"uint256","internalType":"uint256"}],"outputs":[],"stateMutability":"payable"},{"type":"function","name":"balanceOf","inputs":[{"name":"owner","type":"address","internalType":"address"}],"outputs":[{"name":"","type":"uint256","internalType":"uint256"}],"stateMutability":"view"},{"type":"function","name":"burn","inputs":[{"name":"tokenId","type":"uint256","internalType":"uint256"}],"outputs":[],"stateMutability":"nonpayable"},{"type":"function","name":"claim","inputs":[{"name":"_receiver","type":"address","internalType":"address"},{"name":"_quantity","type":"uint256","internalType":"uint256"},{"name":"_currency","type":"address","internalType":"address"},{"name":"_pricePerToken","type":"uint256","internalType":"uint256"},{"name":"_allowlistProof","type":"tuple","internalType":"struct IDrop.AllowlistProof","components":[{"name":"proof","type":"bytes32[]","internalType":"bytes32[]"},{"name":"quantityLimitPerWallet","type":"uint256","internalType":"uint256"},{"name":"pricePerToken","type":"uint256","internalType":"uint256"},{"name":"currency","type":"address","internalType":"address"}]},{"name":"_data","type":"bytes","internalType":"bytes"}],"outputs":[],"stateMutability":"payable"},{"type":"function","name":"claimCondition","inputs":[],"outputs":[{"name":"currentStartId","type":"uint256","internalType":"uint256"},{"name":"count","type":"uint256","internalType":"uint256"}],"stateMutability":"view"},{"type":"function","name":"contractURI","inputs":[],"outputs":[{"name":"","type":"string","internalType":"string"}],"stateMutability":"view"},{"type":"function","name":"explicitOwnershipOf","inputs":[{"name":"tokenId","type":"uint256","internalType":"uint256"}],"outputs":[{"name":"ownership","type":"tuple","internalType":"struct IERC721AUpgradeable.TokenOwnership","components":[{"name":"addr","type":"address","internalType":"address"},{"name":"startTimestamp","type":"uint64","internalType":"uint64"},{"name":"burned","type":"bool","internalType":"bool"},{"name":"extraData","type":"uint24","internalType":"uint24"}]}],"stateMutability":"view"},{"type":"function","name":"getActiveClaimConditionId","inputs":[],"outputs":[{"name":"","type":"uint256","internalType":"uint256"}],"stateMutability":"view"},{"type":"function","name":"getApproved","inputs":[{"name":"tokenId","type":"uint256","internalType":"uint256"}],"outputs":[{"name":"","type":"address","internalType":"address"}],"stateMutability":"view"},{"type":"function","name":"getClaimConditionById","inputs":[{"name":"_conditionId","type":"uint256","internalType":"uint256"}],"outputs":[{"name":"condition","type":"tuple","internalType":"struct IClaimCondition.ClaimCondition","components":[{"name":"startTimestamp","type":"uint256","internalType":"uint256"},{"name":"maxClaimableSupply","type":"uint256","internalType":"uint256"},{"name":"supplyClaimed","type":"uint256","internalType":"uint256"},{"name":"quantityLimitPerWallet","type":"uint256","internalType":"uint256"},{"name":"merkleRoot","type":"bytes32","internalType":"bytes32"},{"name":"pricePerToken","type":"uint256","internalType":"uint256"},{"name":"currency","type":"address","internalType":"address"},{"name":"metadata","type":"string","internalType":"string"}]}],"stateMutability":"view"},{"type":"function","name":"getDefaultRoyaltyInfo","inputs":[],"outputs":[{"name":"","type":"address","internalType":"address"},{"name":"","type":"uint16","internalType":"uint16"}],"stateMutability":"view"},{"type":"function","name":"getFlatPlatformFeeInfo","inputs":[],"outputs":[{"name":"","type":"address","internalType":"address"},{"name":"","type":"uint256","internalType":"uint256"}],"stateMutability":"view"},{"type":"function","name":"getPlatformFeeInfo","inputs":[],"outputs":[{"name":"","type":"address","internalType":"address"},{"name":"","type":"uint16","internalType":"uint16"}],"stateMutability":"view"},{"type":"function","name":"getPlatformFeeType","inputs":[],"outputs":[{"name":"","type":"uint8","internalType":"enum IPlatformFee.PlatformFeeType"}],"stateMutability":"view"},{"type":"function","name":"getRoleAdmin","inputs":[{"name":"role","type":"bytes32","internalType":"bytes32"}],"outputs":[{"name":"","type":"bytes32","internalType":"bytes32"}],"stateMutability":"view"},{"type":"function","name":"getRoleMember","inputs":[{"name":"role","type":"bytes32","internalType":"bytes32"},{"name":"index","type":"uint256","internalType":"uint256"}],"outputs":[{"name":"member","type":"address","internalType":"address"}],"stateMutability":"view"},{"type":"function","name":"getRoleMemberCount","inputs":[{"name":"role","type":"bytes32","internalType":"bytes32"}],"outputs":[{"name":"count","type":"uint256","internalType":"uint256"}],"stateMutability":"view"},{"type":"function","name":"getRoyaltyInfoForToken","inputs":[{"name":"_tokenId","type":"uint256","internalType":"uint256"}],"outputs":[{"name":"","type":"address","internalType":"address"},{"name":"","type":"uint16","internalType":"uint16"}],"stateMutability":"view"},{"type":"function","name":"getSupplyClaimedByWallet","inputs":[{"name":"_conditionId","type":"uint256","internalType":"uint256"},{"name":"_claimer","type":"address","internalType":"address"}],"outputs":[{"name":"supplyClaimedByWallet","type":"uint256","internalType":"uint256"}],"stateMutability":"view"},{"type":"function","name":"grantRole","inputs":[{"name":"role","type":"bytes32","internalType":"bytes32"},{"name":"account","type":"address","internalType":"address"}],"outputs":[],"stateMutability":"nonpayable"},{"type":"function","name":"hasRole","inputs":[{"name":"role","type":"bytes32","internalType":"bytes32"},{"name":"account","type":"address","internalType":"address"}],"outputs":[{"name":"","type":"bool","internalType":"bool"}],"stateMutability":"view"},{"type":"function","name":"hasRoleWithSwitch","inputs":[{"name":"role","type":"bytes32","internalType":"bytes32"},{"name":"account","type":"address","internalType":"address"}],"outputs":[{"name":"","type":"bool","internalType":"bool"}],"stateMutability":"view"},{"type":"function","name":"initialize","inputs":[{"name":"_defaultAdmin","type":"address","internalType":"address"},{"name":"_name","type":"string","internalType":"string"},{"name":"_symbol","type":"string","internalType":"string"},{"name":"_contractURI","type":"string","internalType":"string"},{"name":"_trustedForwarders","type":"address[]","internalType":"address[]"},{"name":"_saleRecipient","type":"address","internalType":"address"},{"name":"_royaltyRecipient","type":"address","internalType":"address"},{"name":"_royaltyBps","type":"uint128","internalType":"uint128"},{"name":"_platformFeeBps","type":"uint128","internalType":"uint128"},{"name":"_platformFeeRecipient","type":"address","internalType":"address"}],"outputs":[],"stateMutability":"nonpayable"},{"type":"function","name":"isApprovedForAll","inputs":[{"name":"owner","type":"address","internalType":"address"},{"name":"operator","type":"address","internalType":"address"}],"outputs":[{"name":"","type":"bool","internalType":"bool"}],"stateMutability":"view"},{"type":"function","name":"isTrustedForwarder","inputs":[{"name":"forwarder","type":"address","internalType":"address"}],"outputs":[{"name":"","type":"bool","internalType":"bool"}],"stateMutability":"view"},{"type":"function","name":"multicall","inputs":[{"name":"data","type":"bytes[]","internalType":"bytes[]"}],"outputs":[{"name":"results","type":"bytes[]","internalType":"bytes[]"}],"stateMutability":"nonpayable"},{"type":"function","name":"name","inputs":[],"outputs":[{"name":"","type":"string","internalType":"string"}],"stateMutability":"view"},{"type":"function","name":"nextTokenIdToClaim","inputs":[],"outputs":[{"name":"","type":"uint256","internalType":"uint256"}],"stateMutability":"view"},{"type":"function","name":"nextTokenIdToMint","inputs":[],"outputs":[{"name":"","type":"uint256","internalType":"uint256"}],"stateMutability":"view"},{"type":"function","name":"owner","inputs":[],"outputs":[{"name":"","type":"address","internalType":"address"}],"stateMutability":"view"},{"type":"function","name":"ownerOf","inputs":[{"name":"tokenId","type":"uint256","internalType":"uint256"}],"outputs":[{"name":"","type":"address","internalType":"address"}],"stateMutability":"view"},{"type":"function","name":"primarySaleRecipient","inputs":[],"outputs":[{"name":"","type":"address","internalType":"address"}],"stateMutability":"view"},{"type":"function","name":"renounceRole","inputs":[{"name":"role","type":"bytes32","internalType":"bytes32"},{"name":"account","type":"address","internalType":"address"}],"outputs":[],"stateMutability":"nonpayable"},{"type":"function","name":"revokeRole","inputs":[{"name":"role","type":"bytes32","internalType":"bytes32"},{"name":"account","type":"address","internalType":"address"}],"outputs":[],"stateMutability":"nonpayable"},{"type":"function","name":"royaltyInfo","inputs":[{"name":"tokenId","type":"uint256","internalType":"uint256"},{"name":"salePrice","type":"uint256","internalType":"uint256"}],"outputs":[{"name":"receiver","type":"address","internalType":"address"},{"name":"royaltyAmount","type":"uint256","internalType":"uint256"}],"stateMutability":"view"},{"type":"function","name":"safeTransferFrom","inputs":[{"name":"from","type":"address","internalType":"address"},{"name":"to","type":"address","internalType":"address"},{"name":"tokenId","type":"uint256","internalType":"uint256"}],"outputs":[],"stateMutability":"payable"},{"type":"function","name":"safeTransferFrom","inputs":[{"name":"from","type":"address","internalType":"address"},{"name":"to","type":"address","internalType":"address"},{"name":"tokenId","type":"uint256","internalType":"uint256"},{"name":"_data","type":"bytes","internalType":"bytes"}],"outputs":[],"stateMutability":"payable"},{"type":"function","name":"setApprovalForAll","inputs":[{"name":"operator","type":"address","internalType":"address"},{"name":"approved","type":"bool","internalType":"bool"}],"outputs":[],"stateMutability":"nonpayable"},{"type":"function","name":"setClaimConditions","inputs":[{"name":"_conditions","type":"tuple[]","internalType":"struct IClaimCondition.ClaimCondition[]","components":[{"name":"startTimestamp","type":"uint256","internalType":"uint256"},{"name":"maxClaimableSupply","type":"uint256","internalType":"uint256"},{"name":"supplyClaimed","type":"uint256","internalType":"uint256"},{"name":"quantityLimitPerWallet","type":"uint256","internalType":"uint256"},{"name":"merkleRoot","type":"bytes32","internalType":"bytes32"},{"name":"pricePerToken","type":"uint256","internalType":"uint256"},{"name":"currency","type":"address","internalType":"address"},{"name":"metadata","type":"string","internalType":"string"}]},{"name":"_resetClaimEligibility","type":"bool","internalType":"bool"}],"outputs":[],"stateMutability":"nonpayable"},{"type":"function","name":"setContractURI","inputs":[{"name":"_uri","type":"string","internalType":"string"}],"outputs":[],"stateMutability":"nonpayable"},{"type":"function","name":"setDefaultRoyaltyInfo","inputs":[{"name":"_royaltyRecipient","type":"address","internalType":"address"},{"name":"_royaltyBps","type":"uint256","internalType":"uint256"}],"outputs":[],"stateMutability":"nonpayable"},{"type":"function","name":"setFlatPlatformFeeInfo","inputs":[{"name":"_platformFeeRecipient","type":"address","internalType":"address"},{"name":"_flatFee","type":"uint256","internalType":"uint256"}],"outputs":[],"stateMutability":"nonpayable"},{"type":"function","name":"setOwner","inputs":[{"name":"_newOwner","type":"address","internalType":"address"}],"outputs":[],"stateMutability":"nonpayable"},{"type":"function","name":"setPlatformFeeInfo","inputs":[{"name":"_platformFeeRecipient","type":"address","internalType":"address"},{"name":"_platformFeeBps","type":"uint256","internalType":"uint256"}],"outputs":[],"stateMutability":"nonpayable"},{"type":"function","name":"setPlatformFeeType","inputs":[{"name":"_feeType","type":"uint8","internalType":"enum IPlatformFee.PlatformFeeType"}],"outputs":[],"stateMutability":"nonpayable"},{"type":"function","name":"setPrimarySaleRecipient","inputs":[{"name":"_saleRecipient","type":"address","internalType":"address"}],"outputs":[],"stateMutability":"nonpayable"},{"type":"function","name":"setRoyaltyInfoForToken","inputs":[{"name":"_tokenId","type":"uint256","internalType":"uint256"},{"name":"_recipient","type":"address","internalType":"address"},{"name":"_bps","type":"uint256","internalType":"uint256"}],"outputs":[],"stateMutability":"nonpayable"},{"type":"function","name":"setSharedMetadata","inputs":[{"name":"_metadata","type":"tuple","internalType":"struct ISharedMetadata.SharedMetadataInfo","components":[{"name":"name","type":"string","internalType":"string"},{"name":"description","type":"string","internalType":"string"},{"name":"imageURI","type":"string","internalType":"string"},{"name":"animationURI","type":"string","internalType":"string"}]}],"outputs":[],"stateMutability":"nonpayable"},{"type":"function","name":"sharedMetadata","inputs":[],"outputs":[{"name":"name","type":"string","internalType":"string"},{"name":"description","type":"string","internalType":"string"},{"name":"imageURI","type":"string","internalType":"string"},{"name":"animationURI","type":"string","internalType":"string"}],"stateMutability":"view"},{"type":"function","name":"startTokenId","inputs":[],"outputs":[{"name":"","type":"uint256","internalType":"uint256"}],"stateMutability":"pure"},{"type":"function","name":"supportsInterface","inputs":[{"name":"interfaceId","type":"bytes4","internalType":"bytes4"}],"outputs":[{"name":"","type":"bool","internalType":"bool"}],"stateMutability":"view"},{"type":"function","name":"symbol","inputs":[],"outputs":[{"name":"","type":"string","internalType":"string"}],"stateMutability":"view"},{"type":"function","name":"tokenURI","inputs":[{"name":"_tokenId","type":"uint256","internalType":"uint256"}],"outputs":[{"name":"","type":"string","internalType":"string"}],"stateMutability":"view"},{"type":"function","name":"tokensOfOwner","inputs":[{"name":"owner","type":"address","internalType":"address"}],"outputs":[{"name":"","type":"uint256[]","internalType":"uint256[]"}],"stateMutability":"view"},{"type":"function","name":"tokensOfOwnerIn","inputs":[{"name":"owner","type":"address","internalType":"address"},{"name":"start","type":"uint256","internalType":"uint256"},{"name":"stop","type":"uint256","internalType":"uint256"}],"outputs":[{"name":"","type":"uint256[]","internalType":"uint256[]"}],"stateMutability":"view"},{"type":"function","name":"totalMinted","inputs":[],"outputs":[{"name":"","type":"uint256","internalType":"uint256"}],"stateMutability":"view"},{"type":"function","name":"totalSupply","inputs":[],"outputs":[{"name":"","type":"uint256","internalType":"uint256"}],"stateMutability":"view"},{"type":"function","name":"transferFrom","inputs":[{"name":"from","type":"address","internalType":"address"},{"name":"to","type":"address","internalType":"address"},{"name":"tokenId","type":"uint256","internalType":"uint256"}],"outputs":[],"stateMutability":"payable"},{"type":"function","name":"verifyClaim","inputs":[{"name":"_conditionId","type":"uint256","internalType":"uint256"},{"name":"_claimer","type":"address","internalType":"address"},{"name":"_quantity","type":"uint256","internalType":"uint256"},{"name":"_currency","type":"address","internalType":"address"},{"name":"_pricePerToken","type":"uint256","internalType":"uint256"},{"name":"_allowlistProof","type":"tuple","internalType":"struct IDrop.AllowlistProof","components":[{"name":"proof","type":"bytes32[]","internalType":"bytes32[]"},{"name":"quantityLimitPerWallet","type":"uint256","internalType":"uint256"},{"name":"pricePerToken","type":"uint256","internalType":"uint256"},{"name":"currency","type":"address","internalType":"address"}]}],"outputs":[{"name":"isOverride","type":"bool","internalType":"bool"}],"stateMutability":"view"},{"type":"event","name":"Approval","inputs":[{"name":"owner","type":"address","indexed":true,"internalType":"address"},{"name":"approved","type":"address","indexed":true,"internalType":"address"},{"name":"tokenId","type":"uint256","indexed":true,"internalType":"uint256"}],"anonymous":false},{"type":"event","name":"ApprovalForAll","inputs":[{"name":"owner","type":"address","indexed":true,"internalType":"address"},{"name":"operator","type":"address","indexed":true,"internalType":"address"},{"name":"approved","type":"bool","indexed":false,"internalType":"bool"}],"anonymous":false},{"type":"event","name":"BatchMetadataUpdate","inputs":[{"name":"_fromTokenId","type":"uint256","indexed":false,"internalType":"uint256"},{"name":"_toTokenId","type":"uint256","indexed":false,"internalType":"uint256"}],"anonymous":false},{"type":"event","name":"ClaimConditionsUpdated","inputs":[{"name":"claimConditions","type":"tuple[]","indexed":false,"internalType":"struct IClaimCondition.ClaimCondition[]","components":[{"name":"startTimestamp","type":"uint256","internalType":"uint256"},{"name":"maxClaimableSupply","type":"uint256","internalType":"uint256"},{"name":"supplyClaimed","type":"uint256","internalType":"uint256"},{"name":"quantityLimitPerWallet","type":"uint256","internalType":"uint256"},{"name":"merkleRoot","type":"bytes32","internalType":"bytes32"},{"name":"pricePerToken","type":"uint256","internalType":"uint256"},{"name":"currency","type":"address","internalType":"address"},{"name":"metadata","type":"string","internalType":"string"}]},{"name":"resetEligibility","type":"bool","indexed":false,"internalType":"bool"}],"anonymous":false},{"type":"event","name":"ConsecutiveTransfer","inputs":[{"name":"fromTokenId","type":"uint256","indexed":true,"internalType":"uint256"},{"name":"toTokenId","type":"uint256","indexed":false,"internalType":"uint256"},{"name":"from","type":"address","indexed":true,"internalType":"address"},{"name":"to","type":"address","indexed":true,"internalType":"address"}],"anonymous":false},{"type":"event","name":"ContractURIUpdated","inputs":[{"name":"prevURI","type":"string","indexed":false,"internalType":"string"},{"name":"newURI","type":"string","indexed":false,"internalType":"string"}],"anonymous":false},{"type":"event","name":"DefaultRoyalty","inputs":[{"name":"newRoyaltyRecipient","type":"address","indexed":true,"internalType":"address"},{"name":"newRoyaltyBps","type":"uint256","indexed":false,"internalType":"uint256"}],"anonymous":false},{"type":"event","name":"FlatPlatformFeeUpdated","inputs":[{"name":"platformFeeRecipient","type":"address","indexed":false,"internalType":"address"},{"name":"flatFee","type":"uint256","indexed":false,"internalType":"uint256"}],"anonymous":false},{"type":"event","name":"Initialized","inputs":[{"name":"version","type":"uint8","indexed":false,"internalType":"uint8"}],"anonymous":false},{"type":"event","name":"MetadataUpdate","inputs":[{"name":"_tokenId","type":"uint256","indexed":false,"internalType":"uint256"}],"anonymous":false},{"type":"event","name":"OwnerUpdated","inputs":[{"name":"prevOwner","type":"address","indexed":true,"internalType":"address"},{"name":"newOwner","type":"address","indexed":true,"internalType":"address"}],"anonymous":false},{"type":"event","name":"PlatformFeeInfoUpdated","inputs":[{"name":"platformFeeRecipient","type":"address","indexed":true,"internalType":"address"},{"name":"platformFeeBps","type":"uint256","indexed":false,"internalType":"uint256"}],"anonymous":false},{"type":"event","name":"PlatformFeeTypeUpdated","inputs":[{"name":"feeType","type":"uint8","indexed":false,"internalType":"enum IPlatformFee.PlatformFeeType"}],"anonymous":false},{"type":"event","name":"PrimarySaleRecipientUpdated","inputs":[{"name":"recipient","type":"address","indexed":true,"internalType":"address"}],"anonymous":false},{"type":"event","name":"RoleAdminChanged","inputs":[{"name":"role","type":"bytes32","indexed":true,"internalType":"bytes32"},{"name":"previousAdminRole","type":"bytes32","indexed":true,"internalType":"bytes32"},{"name":"newAdminRole","type":"bytes32","indexed":true,"internalType":"bytes32"}],"anonymous":false},{"type":"event","name":"RoleGranted","inputs":[{"name":"role","type":"bytes32","indexed":true,"internalType":"bytes32"},{"name":"account","type":"address","indexed":true,"internalType":"address"},{"name":"sender","type":"address","indexed":true,"internalType":"address"}],"anonymous":false},{"type":"event","name":"RoleRevoked","inputs":[{"name":"role","type":"bytes32","indexed":true,"internalType":"bytes32"},{"name":"account","type":"address","indexed":true,"internalType":"address"},{"name":"sender","type":"address","indexed":true,"internalType":"address"}],"anonymous":false},{"type":"event","name":"RoyaltyForToken","inputs":[{"name":"tokenId","type":"uint256","indexed":true,"internalType":"uint256"},{"name":"royaltyRecipient","type":"address","indexed":true,"internalType":"address"},{"name":"royaltyBps","type":"uint256","indexed":false,"internalType":"uint256"}],"anonymous":false},{"type":"event","name":"SharedMetadataUpdated","inputs":[{"name":"name","type":"string","indexed":false,"internalType":"string"},{"name":"description","type":"string","indexed":false,"internalType":"string"},{"name":"imageURI","type":"string","indexed":false,"internalType":"string"},{"name":"animationURI","type":"string","indexed":false,"internalType":"string"}],"anonymous":false},{"type":"event","name":"TokensClaimed","inputs":[{"name":"claimConditionIndex","type":"uint256","indexed":true,"internalType":"uint256"},{"name":"claimer","type":"address","indexed":true,"internalType":"address"},{"name":"receiver","type":"address","indexed":true,"internalType":"address"},{"name":"startTokenId","type":"uint256","indexed":false,"internalType":"uint256"},{"name":"quantityClaimed","type":"uint256","indexed":false,"internalType":"uint256"}],"anonymous":false},{"type":"event","name":"Transfer","inputs":[{"name":"from","type":"address","indexed":true,"internalType":"address"},{"name":"to","type":"address","indexed":true,"internalType":"address"},{"name":"tokenId","type":"uint256","indexed":true,"internalType":"uint256"}],"anonymous":false},{"type":"error","name":"ApprovalCallerNotOwnerNorApproved","inputs":[]},{"type":"error","name":"ApprovalQueryForNonexistentToken","inputs":[]},{"type":"error","name":"BalanceQueryForZeroAddress","inputs":[]},{"type":"error","name":"ContractMetadataUnauthorized","inputs":[]},{"type":"error","name":"CurrencyTransferLibFailedNativeTransfer","inputs":[{"name":"recipient","type":"address","internalType":"address"},{"name":"value","type":"uint256","internalType":"uint256"}]},{"type":"error","name":"DropClaimExceedLimit","inputs":[{"name":"expected","type":"uint256","internalType":"uint256"},{"name":"actual","type":"uint256","internalType":"uint256"}]},{"type":"error","name":"DropClaimExceedMaxSupply","inputs":[{"name":"expected","type":"uint256","internalType":"uint256"},{"name":"actual","type":"uint256","internalType":"uint256"}]},{"type":"error","name":"DropClaimInvalidTokenPrice","inputs":[{"name":"expectedCurrency","type":"address","internalType":"address"},{"name":"expectedPricePerToken","type":"uint256","internalType":"uint256"},{"name":"actualCurrency","type":"address","internalType":"address"},{"name":"actualExpectedPricePerToken","type":"uint256","internalType":"uint256"}]},{"type":"error","name":"DropClaimNotStarted","inputs":[{"name":"expected","type":"uint256","internalType":"uint256"},{"name":"actual","type":"uint256","internalType":"uint256"}]},{"type":"error","name":"DropExceedMaxSupply","inputs":[]},{"type":"error","name":"DropNoActiveCondition","inputs":[]},{"type":"error","name":"DropUnauthorized","inputs":[]},{"type":"error","name":"InvalidQueryRange","inputs":[]},{"type":"error","name":"MintERC2309QuantityExceedsLimit","inputs":[]},{"type":"error","name":"MintToZeroAddress","inputs":[]},{"type":"error","name":"MintZeroQuantity","inputs":[]},{"type":"error","name":"OwnableUnauthorized","inputs":[]},{"type":"error","name":"OwnerQueryForNonexistentToken","inputs":[]},{"type":"error","name":"OwnershipNotInitializedForExtraData","inputs":[]},{"type":"error","name":"PermissionsAlreadyGranted","inputs":[{"name":"account","type":"address","internalType":"address"},{"name":"role","type":"bytes32","internalType":"bytes32"}]},{"type":"error","name":"PermissionsInvalidPermission","inputs":[{"name":"expected","type":"address","internalType":"address"},{"name":"actual","type":"address","internalType":"address"}]},{"type":"error","name":"PermissionsUnauthorizedAccount","inputs":[{"name":"account","type":"address","internalType":"address"},{"name":"neededRole","type":"bytes32","internalType":"bytes32"}]},{"type":"error","name":"PlatformFeeExceededMaxFeeBps","inputs":[{"name":"max","type":"uint256","internalType":"uint256"},{"name":"actual","type":"uint256","internalType":"uint256"}]},{"type":"error","name":"PlatformFeeInvalidRecipient","inputs":[{"name":"recipient","type":"address","internalType":"address"}]},{"type":"error","name":"PlatformFeeUnauthorized","inputs":[]},{"type":"error","name":"PrimarySaleInvalidRecipient","inputs":[{"name":"recipient","type":"address","internalType":"address"}]},{"type":"error","name":"PrimarySaleUnauthorized","inputs":[]},{"type":"error","name":"RoyaltyExceededMaxFeeBps","inputs":[{"name":"max","type":"uint256","internalType":"uint256"},{"name":"actual","type":"uint256","internalType":"uint256"}]},{"type":"error","name":"RoyaltyInvalidRecipient","inputs":[{"name":"recipient","type":"address","internalType":"address"}]},{"type":"error","name":"RoyaltyUnauthorized","inputs":[]},{"type":"error","name":"TransferCallerNotOwnerNorApproved","inputs":[]},{"type":"error","name":"TransferFromIncorrectOwner","inputs":[]},{"type":"error","name":"TransferToNonERC721ReceiverImplementer","inputs":[]},{"type":"error","name":"TransferToZeroAddress","inputs":[]},{"type":"error","name":"URIQueryForNonexistentToken","inputs":[]}],"bytecode":{"object":"0x60806040523480156200001157600080fd5b50600054610100900460ff1615808015620000335750600054600160ff909116105b806200004f5750303b1580156200004f575060005460ff166001145b620000b75760405162461bcd60e51b815260206004820152602e60248201527f496e697469616c697a61626c653a20636f6e747261637420697320616c72656160448201526d191e481a5b9a5d1a585b1a5e995960921b606482015260840160405180910390fd5b6000805460ff191660011790558015620000db576000805461ff0019166101001790555b801562000122576000805461ff0019169055604051600181527f7f26b83ff96e1f2b6a682f133852f6798a09c465da95921460cefb38474024989060200160405180910390a15b50615a9280620001336000396000f3fe6080604052600436106102c25760003560e01c80639010d07c116101775780639010d07c146106c357806391d14854146106e3578063938e3d7b1461070357806395d89b411461072357806399a2557a146107385780639bcf7a1514610758578063a217fddf14610778578063a22cb4651461078d578063a2309ff8146107ad578063a32fa5b3146107c2578063a7d27d9d146107e2578063ac9650d814610802578063acd083f8146104a6578063ad1eefc51461082f578063b24f2d3914610871578063b280f7031461089c578063b6f10c79146108c1578063b88d4fde146108e1578063c23dc68f146108f4578063c68907de14610960578063c87b56dd14610975578063ca15c87314610995578063d45573f6146109b5578063d547741f146109ca578063d637ed59146109ea578063e159163414610a13578063e57553da14610a33578063e6798baa14610a48578063e8a3d48514610a5c578063e985e9c514610a71578063f28083c314610a9157600080fd5b806301ffc9a7146102c757806306fdde03146102fc578063079fe40e1461031e578063081812fc14610340578063095ea7b31461036057806313af40351461037557806318160ddd146103955780631e7ac488146103b857806323a2902b146103d857806323b872dd146103f8578063248a9ca31461040b5780632a55205a146104385780632f2ff15d1461046657806336568abe146104865780633b1475a7146104a657806342842e0e146104bb57806342966c68146104ce5780634cc157df146104ee578063572b6c0514610530578063600dd5ea146105505780636352211e14610570578063637102df146105905780636f4f2837146105b85780636f8934f4146105d857806370a082311461060557806374bc7db7146106255780637e54523c146106455780638462151c1461066557806384bb1e42146106925780638da5cb5b146106a5575b600080fd5b3480156102d357600080fd5b506102e76102e23660046146be565b610ab3565b60405190151581526020015b60405180910390f35b34801561030857600080fd5b50610311610adf565b6040516102f3919061472b565b34801561032a57600080fd5b50610333610b7a565b6040516102f3919061473e565b34801561034c57600080fd5b5061033361035b366004614752565b610b89565b61037361036e36600461478b565b610bcd565b005b34801561038157600080fd5b506103736103903660046147b7565b610bdd565b3480156103a157600080fd5b506103aa610c0e565b6040519081526020016102f3565b3480156103c457600080fd5b506103736103d336600461478b565b610c2e565b3480156103e457600080fd5b506102e76103f33660046147e6565b610c5d565b610373610406366004614863565b610fc7565b34801561041757600080fd5b506103aa610426366004614752565b6000908152600d602052604090205490565b34801561044457600080fd5b506104586104533660046148a4565b61118a565b6040516102f39291906148c6565b34801561047257600080fd5b506103736104813660046148df565b6111c7565b34801561049257600080fd5b506103736104a13660046148df565b611232565b3480156104b257600080fd5b506103aa611276565b6103736104c9366004614863565b611285565b3480156104da57600080fd5b506103736104e9366004614752565b6112a5565b3480156104fa57600080fd5b5061050e610509366004614752565b6112b0565b604080516001600160a01b03909316835261ffff9091166020830152016102f3565b34801561053c57600080fd5b506102e761054b3660046147b7565b61131b565b34801561055c57600080fd5b5061037361056b36600461478b565b611339565b34801561057c57600080fd5b5061033361058b366004614752565b611368565b34801561059c57600080fd5b50610333731af20c6b23373350ad464700b5965ce4b0d2ad9481565b3480156105c457600080fd5b506103736105d33660046147b7565b611373565b3480156105e457600080fd5b506105f86105f3366004614752565b6113a1565b6040516102f3919061490f565b34801561061157600080fd5b506103aa6106203660046147b7565b6114fe565b34801561063157600080fd5b506103736106403660046149d5565b61155d565b34801561065157600080fd5b5061037361066036600461478b565b61185d565b34801561067157600080fd5b506106856106803660046147b7565b61188c565b6040516102f39190614a2b565b6103736106a0366004614b18565b6118bb565b3480156106b157600080fd5b506007546001600160a01b0316610333565b3480156106cf57600080fd5b506103336106de3660046148a4565b6119ca565b3480156106ef57600080fd5b506102e76106fe3660046148df565b611ab8565b34801561070f57600080fd5b5061037361071e366004614ba5565b611ae3565b34801561072f57600080fd5b50610311611b11565b34801561074457600080fd5b50610685610753366004614bd9565b611b29565b34801561076457600080fd5b50610373610773366004614c0e565b611b36565b34801561078457600080fd5b506103aa600081565b34801561079957600080fd5b506103736107a8366004614c35565b611b66565b3480156107b957600080fd5b506103aa611c08565b3480156107ce57600080fd5b506102e76107dd3660046148df565b611c1a565b3480156107ee57600080fd5b506103736107fd366004614c63565b611c70565b34801561080e57600080fd5b5061082261081d366004614c97565b611cbe565b6040516102f39190614cd8565b34801561083b57600080fd5b506103aa61084a3660046148df565b60009182526012602090815260408084206001600160a01b03909316845291905290205490565b34801561087d57600080fd5b506004546001600160a01b03811690600160a01b900461ffff1661050e565b3480156108a857600080fd5b506108b1611e31565b6040516102f39493929190614d3c565b3480156108cd57600080fd5b506103736108dc366004614d89565b61206d565b6103736108ef366004614daa565b61209b565b34801561090057600080fd5b5061091461090f366004614752565b6120dc565b6040516102f3919081516001600160a01b031681526020808301516001600160401b03169082015260408083015115159082015260609182015162ffffff169181019190915260800190565b34801561096c57600080fd5b506103aa612123565b34801561098157600080fd5b50610311610990366004614752565b6121a9565b3480156109a157600080fd5b506103aa6109b0366004614752565b6121ef565b3480156109c157600080fd5b5061050e612278565b3480156109d657600080fd5b506103736109e53660046148df565b612295565b3480156109f657600080fd5b50600f54601054610a05919082565b6040516102f3929190614e15565b348015610a1f57600080fd5b50610373610a2e366004614eb7565b6122ae565b348015610a3f57600080fd5b506104586125a6565b348015610a5457600080fd5b5060016103aa565b348015610a6857600080fd5b506103116125ba565b348015610a7d57600080fd5b506102e7610a8c366004614fc9565b612648565b348015610a9d57600080fd5b50610aa6612685565b6040516102f3919061500d565b6000610abe82612695565b80610ad9575063152a902d60e11b6001600160e01b03198316145b92915050565b6060610ae96126e3565b6002018054610af790615035565b80601f0160208091040260200160405190810160405280929190818152602001828054610b2390615035565b8015610b705780601f10610b4557610100808354040283529160200191610b70565b820191906000526020600020905b815481529060010190602001808311610b5357829003601f168201915b5050505050905090565b6006546001600160a01b031690565b6000610b9482612707565b610ba857610ba86333d1c03960e21b612765565b610bb06126e3565b60009283526006016020525060409020546001600160a01b031690565b610bd98282600161276f565b5050565b610be5612832565b610c02576040516316ccb9cb60e11b815260040160405180910390fd5b610c0b81612840565b50565b60006001610c1a6126e3565b60010154610c266126e3565b540303919050565b610c36612832565b610c53576040516387d20a6d60e01b815260040160405180910390fd5b610bd98282612892565b6000868152601160209081526040808320815161010081018352815481526001820154938101939093526002810154918301919091526003810154606083015260048101546080830152600581015460a083015260068101546001600160a01b031660c08301526007810180548493929160e0840191610cdc90615035565b80601f0160208091040260200160405190810160405280929190818152602001828054610d0890615035565b8015610d555780601f10610d2a57610100808354040283529160200191610d55565b820191906000526020600020905b815481529060010190602001808311610d3857829003601f168201915b50505091909252505050606081015160a082015160c08301516080840151939450919290919015610e0357610dff610d8d8780615069565b86608001518d8a602001358b604001358c6060016020810190610db091906147b7565b6040516001600160601b0319606095861b811660208301526034820194909452605481019290925290921b16607482015260880160405160208183030381529060405280519060200120612950565b5094505b8415610e8a578560200135600003610e1b5782610e21565b85602001355b9250600019866040013503610e365781610e3c565b85604001355b9150600019866040013514158015610e6d57506000610e6160808801606089016147b7565b6001600160a01b031614155b610e775780610e87565b610e8760808701606088016147b7565b90505b60008b81526012602090815260408083206001600160a01b03808f16855292529091205490898116908316141580610ec25750828814155b15610f065760405163f13474e960e01b81526001600160a01b03808b166004830152602482018a905283166044820152606481018490526084015b60405180910390fd5b891580610f1b575083610f19828c6150c8565b115b15610f465783610f2b828c6150c8565b604051639e7762db60e01b8152600401610efd929190614e15565b84602001518a8660400151610f5b91906150c8565b1115610f915784602001518a8660400151610f7691906150c8565b60405163fe381cc960e01b8152600401610efd929190614e15565b8451421015610fb85784516040516322b1048f60e11b8152610efd91904290600401614e15565b50505050509695505050505050565b6000610fd2826129db565b6001600160a01b039485169490915081168414610ff857610ff862a1148160e81b612765565b60008061100484612a9d565b9150915061102a8187611015612ac5565b6001600160a01b039081169116811491141790565b61104e5761103a86610a8c612ac5565b61104e5761104e632ce44b5f60e11b612765565b61105b8686866001612acf565b801561106657600082555b61106e6126e3565b6001600160a01b038716600090815260059190910160205260409020805460001901905561109a6126e3565b6001600160a01b038616600090815260059190910160205260409020805460010190556110cb85600160e11b612b5e565b6110d36126e3565b60008681526004919091016020526040812091909155600160e11b8416900361114957600184016111026126e3565b600082815260049190910160205260408120549003611147576111236126e3565b54811461114757836111336126e3565b600083815260049190910160205260409020555b505b6001600160a01b038516848188600080516020615a3d833981519152600080a48060000361118157611181633a954ecd60e21b612765565b50505050505050565b600080600080611199866112b0565b90945084925061ffff1690506127106111b282876150db565b6111bc9190615108565b925050509250929050565b6000828152600d60205260409020546111e09033612b73565b6000828152600c602090815260408083206001600160a01b038516845290915290205460ff1615611228578082604051636a4e0b3560e11b8152600401610efd9291906148c6565b610bd98282612bba565b336001600160a01b0382161461126c576040516320b4e31160e11b81523360048201526001600160a01b0382166024820152604401610efd565b610bd98282612bce565b6000611280612c25565b905090565b6112a08383836040518060200160405280600081525061209b565b505050565b610c0b816001612c35565b6000818152600560209081526040808320815180830190925280546001600160a01b0316808352600190910154928201929092528291156112f75780516020820151611311565b6004546001600160a01b03811690600160a01b900461ffff165b9250925050915091565b6001600160a01b031660009081526045602052604090205460ff1690565b611341612832565b61135e57604051636fae358160e11b815260040160405180910390fd5b610bd98282612da5565b6000610ad9826129db565b61137b612832565b61139857604051631c98210f60e21b815260040160405180910390fd5b610c0b81612e29565b6113f560405180610100016040528060008152602001600081526020016000815260200160008152602001600080191681526020016000815260200160006001600160a01b03168152602001606081525090565b600082815260116020908152604091829020825161010081018452815481526001820154928101929092526002810154928201929092526003820154606082015260048201546080820152600582015460a082015260068201546001600160a01b031660c082015260078201805491929160e08401919061147590615035565b80601f01602080910402602001604051908101604052809291908181526020018280546114a190615035565b80156114ee5780601f106114c3576101008083540402835291602001916114ee565b820191906000526020600020905b8154815290600101906020018083116114d157829003601f168201915b5050505050815250509050919050565b60006001600160a01b03821661151e5761151e6323d3ad8160e21b612765565b6001600160401b0361152e6126e3565b6005016000846001600160a01b03166001600160a01b0316815260200190815260200160002054169050919050565b611565612832565b611582576040516356c4ef5160e01b815260040160405180910390fd5b600f5460105481831561159c5761159982846150c8565b90505b6010859055600f8190556000805b86811015611720578015806115e257508787828181106115cc576115cc61511c565b90506020028101906115de9190615132565b3582105b6116135760405162461bcd60e51b815260206004820152600260248201526114d560f21b6044820152606401610efd565b600060118161162284876150c8565b81526020019081526020016000206002015490508888838181106116485761164861511c565b905060200281019061165a9190615132565b6020013581111561167e5760405163032b539f60e11b815260040160405180910390fd5b8888838181106116905761169061511c565b90506020028101906116a29190615132565b601160006116b085886150c8565b815260200190815260200160002081816116ca91906152ae565b50819050601160006116dc85886150c8565b81526020810191909152604001600020600201558888838181106117025761170261511c565b90506020028101906117149190615132565b359250506001016115aa565b50841561179557835b8281101561178f57600081815260116020526040812081815560018101829055600281018290556003810182905560048101829055600581018290556006810180546001600160a01b031916905590611785600783018261462e565b5050600101611729565b50611819565b8583111561181957855b8381101561181757601160006117b583866150c8565b81526020810191909152604001600090812081815560018101829055600281018290556003810182905560048101829055600581018290556006810180546001600160a01b03191690559061180d600783018261462e565b505060010161179f565b505b7fbf4016fceeaaa4ac5cf4be865b559ff85825ab4ca7aa7b661d16e2f544c0309887878760405161184c9392919061539a565b60405180910390a150505050505050565b611865612832565b611882576040516387d20a6d60e01b815260040160405180910390fd5b610bd98282612e9c565b60606001600061189a612c25565b905060608183146118b3576118b0858484612efa565b90505b949350505050565b60006118c5612123565b90506118dc816118d3612ac5565b88888888610c5d565b50600081815260116020526040812060020180548892906118fe9084906150c8565b90915550506000818152601260205260408120879161191b612ac5565b6001600160a01b03166001600160a01b03168152602001908152602001600020600082825461194a91906150c8565b9091555061195d9050600087878761300a565b600061196988886131d3565b9050876001600160a01b031661197d612ac5565b6001600160a01b0316837ffa76a4010d9533e3e964f2930a65fb6042a12fa6ff5b08281837a10b0be7321e848b6040516119b8929190614e15565b60405180910390a45050505050505050565b6000828152600e602052604081205481805b82811015611aaf576000868152600e602090815260408083208484526001019091529020546001600160a01b031615611a5857848203611a46576000868152600e602090815260408083209383526001909301905220546001600160a01b03169250610ad9915050565b611a516001836150c8565b9150611a9d565b611a63866000611ab8565b8015611a8a57506000868152600e6020908152604080832083805260020190915290205481145b15611a9d57611a9a6001836150c8565b91505b611aa86001826150c8565b90506119dc565b50505092915050565b6000918252600c602090815260408084206001600160a01b0393909316845291905290205460ff1690565b611aeb612832565b611b0857604051639f7f092560e01b815260040160405180910390fd5b610c0b816131e9565b6060611b1b6126e3565b6003018054610af790615035565b60606118b3848484612efa565b611b3e612832565b611b5b57604051636fae358160e11b815260040160405180910390fd5b6112a08383836132b9565b80611b6f6126e3565b6007016000611b7c612ac5565b6001600160a01b03908116825260208083019390935260409182016000908120918716808252919093529120805460ff191692151592909217909155611bc0612ac5565b6001600160a01b03167f17307eab39ab6107e8899845ad3d59bd9653f200f220920489ca2b5937696c3183604051611bfc911515815260200190565b60405180910390a35050565b60006001611c14612c25565b03905090565b6000828152600c6020908152604080832083805290915281205460ff16611c6757506000828152600c602090815260408083206001600160a01b038516845290915290205460ff16610ad9565b50600192915050565b611c78613367565b611cb55760405162461bcd60e51b815260206004820152600e60248201526d139bdd08185d5d1a1bdc9a5e995960921b6044820152606401610efd565b610c0b81613377565b6060816001600160401b03811115611cd857611cd8614a63565b604051908082528060200260200182016040528015611d0b57816020015b6060815260200190600190039081611cf65790505b5090506000611d1861359b565b9050336001600160a01b038216141560005b84811015611aaf578115611da957611d8730878784818110611d4e57611d4e61511c565b9050602002810190611d609190615152565b86604051602001611d7393929190615482565b6040516020818303038152906040526135a5565b848281518110611d9957611d9961511c565b6020026020010181905250611e29565b611e0b30878784818110611dbf57611dbf61511c565b9050602002810190611dd19190615152565b8080601f0160208091040260200160405190810160405280939291908181526020018383808284376000920191909152506135a592505050565b848281518110611e1d57611e1d61511c565b60200260200101819052505b600101611d2a565b600880548190611e4090615035565b80601f0160208091040260200160405190810160405280929190818152602001828054611e6c90615035565b8015611eb95780601f10611e8e57610100808354040283529160200191611eb9565b820191906000526020600020905b815481529060010190602001808311611e9c57829003601f168201915b505050505090806001018054611ece90615035565b80601f0160208091040260200160405190810160405280929190818152602001828054611efa90615035565b8015611f475780601f10611f1c57610100808354040283529160200191611f47565b820191906000526020600020905b815481529060010190602001808311611f2a57829003601f168201915b505050505090806002018054611f5c90615035565b80601f0160208091040260200160405190810160405280929190818152602001828054611f8890615035565b8015611fd55780601f10611faa57610100808354040283529160200191611fd5565b820191906000526020600020905b815481529060010190602001808311611fb857829003601f168201915b505050505090806003018054611fea90615035565b80601f016020809104026020016040519081016040528092919081815260200182805461201690615035565b80156120635780601f1061203857610100808354040283529160200191612063565b820191906000526020600020905b81548152906001019060200180831161204657829003601f168201915b5050505050905084565b612075612832565b612092576040516387d20a6d60e01b815260040160405180910390fd5b610c0b816135d1565b6120a6848484610fc7565b6001600160a01b0383163b156120d6576120c28484848461362a565b6120d6576120d66368d2bf6b60e11b612765565b50505050565b6120e4614668565b6001821061211e576120f4612c25565b82101561211e575b61210582613712565b61211557600019909101906120fc565b610ad982613732565b919050565b601054600f54600091829161213891906150c8565b90505b600f5481111561218f57601160006121546001846154a3565b815260200190815260200160002060000154421061217d576121776001826154a3565b91505090565b80612187816154b6565b91505061213b565b506040516303d03c7360e61b815260040160405180910390fd5b60606121b482612707565b6121e65760405162461bcd60e51b815260206004820152600360248201526208525160ea1b6044820152606401610efd565b610ad98261375d565b6000818152600e6020526040812054815b81811015612253576000848152600e602090815260408083208484526001019091529020546001600160a01b0316156122415761223e6001846150c8565b92505b61224c6001826150c8565b9050612200565b5061225f836000611ab8565b156122725761226f6001836150c8565b91505b50919050565b6002546001600160a01b03811691600160a01b90910461ffff1690565b6000828152600d602052604090205461126c9033612b73565b6122b66139d5565b54610100900460ff166122d5576122cb6139d5565b5460ff16156122d9565b303b155b6123455760405162461bcd60e51b815260206004820152603760248201527f455243373231415f5f496e697469616c697a61626c653a20636f6e7472616374604482015276081a5cc8185b1c9958591e481a5b9a5d1a585b1a5e9959604a1b6064820152608401610efd565b600061234f6139d5565b54610100900460ff16159050801561239b57600161236b6139d5565b80549115156101000261ff0019909216919091179055600161238b6139d5565b805460ff19169115159190911790555b600054610100900460ff16158080156123bb5750600054600160ff909116105b806123dc57506123ca306139f9565b1580156123dc575060005460ff166001145b61243f5760405162461bcd60e51b815260206004820152602e60248201527f496e697469616c697a61626c653a20636f6e747261637420697320616c72656160448201526d191e481a5b9a5d1a585b1a5e995960921b6064820152608401610efd565b6000805460ff191660011790558015612462576000805461ff0019166101001790555b7f8502233096d909befbda0999bb8ea2f3a6be3c138b9fbf003752a4c8bce86f6c7f9f2df0fed2c77648de5860a4cc508cd0818c85b8b8a1ab4ceeef8d981c8956a66124ad8a613a08565b6124b78d8d613a40565b6124c08b6131e9565b6124c98e612840565b6124d460008f612bba565b6124de818f612bba565b6124e8828f612bba565b6124f3826000612bba565b61250685876001600160801b0316612892565b61251988886001600160801b0316612da5565b61252289612e29565b6077919091556078558015612571576000805461ff0019169055604051600181527f7f26b83ff96e1f2b6a682f133852f6798a09c465da95921460cefb38474024989060200160405180910390a15b5080156125995760006125826139d5565b80549115156101000261ff00199092169190911790555b5050505050505050505050565b6002546003546001600160a01b0390911691565b600180546125c790615035565b80601f01602080910402602001604051908101604052809291908181526020018280546125f390615035565b80156126405780601f1061261557610100808354040283529160200191612640565b820191906000526020600020905b81548152906001019060200180831161262357829003601f168201915b505050505081565b60006126526126e3565b6001600160a01b039384166000908152600791909101602090815260408083209490951682529290925250205460ff1690565b600254600160b01b900460ff1690565b60006301ffc9a760e01b6001600160e01b0319831614806126c657506380ac58cd60e01b6001600160e01b03198316145b80610ad95750506001600160e01b031916635b5e139f60e01b1490565b7f2569078dfb4b0305704d3008e7403993ae9601b85f7ae5e742de3de8f8011c4090565b60008160011161211e576127196126e3565b5482101561211e5760005b61272c6126e3565b60008481526004919091016020526040812054915081900361275857612751836154b6565b9250612724565b600160e01b161592915050565b8060005260046000fd5b600061277a83611368565b90508180156127a25750806001600160a01b0316612796612ac5565b6001600160a01b031614155b156127c7576127b381610a8c612ac5565b6127c7576127c76367d9dca160e11b612765565b836127d06126e3565b6000858152600691909101602052604080822080546001600160a01b0319166001600160a01b0394851617905551859287811692908516917f8c5be1e5ebec7d5bd14f71427d1e84f3dd0314c0f7b2291e5b200ac8c7c3b9259190a450505050565b6000611280816106fe61359b565b600780546001600160a01b038381166001600160a01b0319831681179093556040519116919082907f8292fce18fa69edf4db7b94ea2e58241df0ae57f97e0a6c9b29067028bf92d7690600090a35050565b6127108111156128bb5761271081604051631c1a1fe960e11b8152600401610efd929190614e15565b6001600160a01b0382166128e457816040516334c5763b60e21b8152600401610efd919061473e565b600280546001600160b01b031916600160a01b61ffff8416026001600160a01b031916176001600160a01b0384169081179091556040518281527fe2497bd806ec41a6e0dd992c29a72efc0ef8fec9092d1978fd4a1e00b2f18304906020015b60405180910390a25050565b6000808281805b878110156129cc5761296a6002836150db565b915060008989838181106129805761298061511c565b9050602002013590508084116129a557600084815260208290526040902093506129c3565b600081815260208590526040902093506129c06001846150c8565b92505b50600101612957565b50941496939550929350505050565b600081600111612a8d576129ed6126e3565b600083815260049190910160205260408120549150819003612a7a57612a116126e3565b548210612a2857612a28636f96cda160e11b612765565b612a306126e3565b600019909201600081815260049390930160205260409092205490508015612a2857600160e01b8116600003612a6557919050565b612a75636f96cda160e11b612765565b612a28565b600160e01b8116600003612a8d57919050565b61211e636f96cda160e11b612765565b6000806000612aaa6126e3565b60009485526006016020525050604090912080549092909150565b600061128061359b565b612adc6077546000611ab8565b158015612af157506001600160a01b03841615155b8015612b0557506001600160a01b03831615155b156120d657612b1660775485611ab8565b158015612b2c5750612b2a60775484611ab8565b155b156120d65760405162461bcd60e51b8152602060048201526002602482015261085560f21b6044820152606401610efd565b4260a01b176001600160a01b03919091161790565b6000828152600c602090815260408083206001600160a01b038516845290915290205460ff16610bd957808260405163043c588360e11b8152600401610efd9291906148c6565b612bc48282613a77565b610bd98282613ad2565b612bd88282613b3f565b6000828152600e602090815260408083206001600160a01b03851680855260028201808552838620805487526001909301855292852080546001600160a01b031916905584529152555050565b6000612c2f6126e3565b54919050565b6000612c40836129db565b905080600080612c4f86612a9d565b915091508415612c8a57612c668184611015612ac5565b612c8a57612c7683610a8c612ac5565b612c8a57612c8a632ce44b5f60e11b612765565b612c98836000886001612acf565b8015612ca357600082555b6001600160801b03612cb36126e3565b6001600160a01b0385166000908152600591909101602052604090208054919091019055612ce583600360e01b612b5e565b612ced6126e3565b60008881526004919091016020526040812091909155600160e11b85169003612d635760018601612d1c6126e3565b600082815260049190910160205260408120549003612d6157612d3d6126e3565b548114612d615784612d4d6126e3565b600083815260049190910160205260409020555b505b60405186906000906001600160a01b03861690600080516020615a3d833981519152908390a4612d916126e3565b600190810180549091019055505050505050565b612710811115612dce5761271081604051630a4930ad60e31b8152600401610efd929190614e15565b600480546001600160a01b0384166001600160b01b03199091168117600160a01b61ffff851602179091556040518281527f90d7ec04bcb8978719414f82e52e4cb651db41d0e6f8cea6118c2191e6183adb90602001612944565b6001600160a01b038116612e525780604051630f7cac3760e21b8152600401610efd919061473e565b600680546001600160a01b0319166001600160a01b0383169081179091556040517f299d17e95023f496e0ffc4909cff1a61f74bb5eb18de6f900f4155bfa1b3b33390600090a250565b6003819055600280546001600160a01b0319166001600160a01b0384161790556040517ff8086cee80709bd44c82f89dbca54115ebd05e840a88ab81df9cf5be9754eb6390612eee90849084906148c6565b60405180910390a15050565b6060818310612f1357612f13631960ccad60e11b612765565b6001831015612f2157600192505b6000612f2b612c25565b9050808310612f38578092505b60606000612f45876114fe565b85871090810291508115612ff6578187870311612f625786860391505b60405192506001820160051b83016040526000612f7e886120dc565b905060008160400151612f8f575080515b60005b612f9b8a613732565b9250604083015160008114612fb35760009250612fd8565b835115612fbf57835192505b8b831860601b612fd8576001820191508a8260051b8801525b5060018a019950888a1480612fec57508481145b15612f9257855250505b50909695505050505050565b505050505050565b8060000361304e5734156130495760405162461bcd60e51b81526020600482015260066024820152652156616c756560d01b6044820152606401610efd565b6120d6565b600061305a82856150db565b90506000806001613069612685565b600181111561307a5761307a614ff7565b03613090576130876125a6565b925090506130c3565b60008061309b612278565b90935083925090506127106130b461ffff8316876150db565b6130be9190615108565b935050505b818310156131125760405162461bcd60e51b815260206004820152601c60248201527b7072696365206c657373207468616e20706c6174666f726d2066656560201b6044820152606401610efd565b600073eeeeeeeeeeeeeeeeeeeeeeeeeeeeeeeeeeeeeeed196001600160a01b038716016131425750348314613146565b5034155b806131785760405162461bcd60e51b815260206004820152600260248201526110ab60f11b6044820152606401610efd565b60006001600160a01b0389161561318f5788613197565b613197610b7a565b90506131ac876131a561359b565b8587613ba1565b6131c8876131b861359b565b836131c3888a6154a3565b613ba1565b505050505050505050565b60006131dd612c25565b9050610ad98383613be2565b6000600180546131f890615035565b80601f016020809104026020016040519081016040528092919081815260200182805461322490615035565b80156132715780601f1061324657610100808354040283529160200191613271565b820191906000526020600020905b81548152906001019060200180831161325457829003601f168201915b50505050509050816001908161328791906154cd565b507fc9c7c3fe08b88b4df9d4d47ef47d2c43d55c025a0ba88ca442580ed9e7348a168183604051612eee929190615586565b6127108111156132e25761271081604051630a4930ad60e31b8152600401610efd929190614e15565b6040805180820182526001600160a01b038481168083526020808401868152600089815260058352869020945185546001600160a01b031916941693909317845591516001909301929092559151838152909185917f7365cf4122f072a3365c20d54eff9b38d73c096c28e1892ec8f5b0e403a0f12d910160405180910390a3505050565b60006112806078546106fe61359b565b60408051608081019091528061338d8380615152565b8080601f0160208091040260200160405190810160405280939291908181526020018383808284376000920191909152505050908252506020908101906133d690840184615152565b8080601f01602080910402602001604051908101604052809392919081815260200183838082843760009201919091525050509082525060200161341d6040840184615152565b8080601f0160208091040260200160405190810160405280939291908181526020018383808284376000920191909152505050908252506020016134646060840184615152565b8080601f0160208091040260200160405190810160405280939291908181526020018383808284376000920191909152505050915250805160089081906134ab90826154cd565b50602082015160018201906134c090826154cd565b50604082015160028201906134d590826154cd565b50606082015160038201906134ea90826154cd565b509050507f6bd5c950a8d8df17f772f5af37cb3655737899cbf903264b9795592da439661c6000600019604051613522929190614e15565b60405180910390a17f8edd7f36d5f01bd45e59cf55b0a670dcf701fc20f678970a8c243b2346d6acaf6135558280615152565b6135626020850185615152565b61356f6040870187615152565b61357c6060890189615152565b6040516135909897969594939291906155b4565b60405180910390a150565b6000611280613bfc565b60606135ca8383604051806060016040528060278152602001615a1660279139613c1e565b9392505050565b6002805482919060ff60b01b1916600160b01b8360018111156135f6576135f6614ff7565b02179055507fd246da9440709ce0dd3f4fd669abc85ada012ab9774b8ecdcc5059ba1486b9c181604051613590919061500d565b6000836001600160a01b031663150b7a02613643612ac5565b8786866040518563ffffffff1660e01b81526004016136659493929190615614565b6020604051808303816000875af19250505080156136a0575060408051601f3d908101601f1916820190925261369d91810190615647565b60015b6136f5573d8080156136ce576040519150601f19603f3d011682016040523d82523d6000602084013e6136d3565b606091505b5080516000036136ed576136ed6368d2bf6b60e11b612765565b805181602001fd5b6001600160e01b031916630a85bd0160e11b149050949350505050565b600061371c6126e3565b6000928352600401602052506040902054151590565b61373a614668565b610ad96137456126e3565b60008481526004919091016020526040902054613c96565b60606000600860405180608001604052908160008201805461377e90615035565b80601f01602080910402602001604051908101604052809291908181526020018280546137aa90615035565b80156137f75780601f106137cc576101008083540402835291602001916137f7565b820191906000526020600020905b8154815290600101906020018083116137da57829003601f168201915b5050505050815260200160018201805461381090615035565b80601f016020809104026020016040519081016040528092919081815260200182805461383c90615035565b80156138895780601f1061385e57610100808354040283529160200191613889565b820191906000526020600020905b81548152906001019060200180831161386c57829003601f168201915b505050505081526020016002820180546138a290615035565b80601f01602080910402602001604051908101604052809291908181526020018280546138ce90615035565b801561391b5780601f106138f05761010080835404028352916020019161391b565b820191906000526020600020905b8154815290600101906020018083116138fe57829003601f168201915b5050505050815260200160038201805461393490615035565b80601f016020809104026020016040519081016040528092919081815260200182805461396090615035565b80156139ad5780601f10613982576101008083540402835291602001916139ad565b820191906000526020600020905b81548152906001019060200180831161399057829003601f168201915b505050505081525050905061226f816000015182602001518360400151846060015187613cd9565b7fee151c8401928dc223602bb187aff91b9a56c7cae5476ef1b3287b085a16c85f90565b6001600160a01b03163b151590565b600054610100900460ff16613a2f5760405162461bcd60e51b8152600401610efd90615664565b613a37613d0e565b610c0b81613d37565b613a486139d5565b54610100900460ff16613a6d5760405162461bcd60e51b8152600401610efd906156af565b610bd98282613dbc565b6000828152600c602090815260408083206001600160a01b0385168085529252808320805460ff1916600117905551339285917f2f8788117e7eff1d82e926ec794901d17c78024a50270940304540a733656f0d9190a45050565b6000828152600e6020526040812080549160019190613af183856150c8565b90915550506000928352600e6020908152604080852083865260018101835281862080546001600160a01b039096166001600160a01b03199096168617905593855260029093019052912055565b613b498282612b73565b6000828152600c602090815260408083206001600160a01b0385168085529252808320805460ff1916905551339285917ff6391f5c32d9c69d2a47ea670b442974b53935d1edc7fd64eb21e047a839171b9190a45050565b80156120d65773eeeeeeeeeeeeeeeeeeeeeeeeeeeeeeeeeeeeeeed196001600160a01b03851601613bd6576130498282613e28565b6120d684848484613ea0565b610bd9828260405180602001604052806000815250613ef3565b6000613c073361131b565b15613c19575060131936013560601c90565b503390565b6060600080856001600160a01b031685604051613c3b919061571f565b600060405180830381855af49150503d8060008114613c76576040519150601f19603f3d011682016040523d82523d6000602084013e613c7b565b606091505b5091509150613c8c86838387613f6c565b9695505050505050565b613c9e614668565b6001600160a01b03821681526001600160401b0360a083901c166020820152600160e01b82161515604082015260e89190911c606082015290565b60606000613ce78585613fe3565b90506000613cf788888487614070565b9050613d02816140b6565b98975050505050505050565b600054610100900460ff16613d355760405162461bcd60e51b8152600401610efd90615664565b565b600054610100900460ff16613d5e5760405162461bcd60e51b8152600401610efd90615664565b60005b8151811015610bd957600160456000848481518110613d8257613d8261511c565b6020908102919091018101516001600160a01b03168252810191909152604001600020805460ff1916911515919091179055600101613d61565b613dc46139d5565b54610100900460ff16613de95760405162461bcd60e51b8152600401610efd906156af565b81613df26126e3565b60020190613e0090826154cd565b5080613e0a6126e3565b60030190613e1890826154cd565b506001613e236126e3565b555050565b6000826001600160a01b03168260405160006040518083038185875af1925050503d8060008114613e75576040519150601f19603f3d011682016040523d82523d6000602084013e613e7a565b606091505b50509050806112a0578282604051635fdc4ec160e11b8152600401610efd9291906148c6565b816001600160a01b0316836001600160a01b031603156120d657306001600160a01b03841603613ede576130496001600160a01b03851683836140e7565b6120d66001600160a01b03851684848461413d565b613efd8383614175565b6001600160a01b0383163b156112a0576000613f176126e3565b5490508281035b613f31600086838060010194508661362a565b613f4557613f456368d2bf6b60e11b612765565b818110613f1e5781613f556126e3565b5414613f6557613f656000612765565b5050505050565b60608315613fd9578251600003613fd257613f86856139f9565b613fd25760405162461bcd60e51b815260206004820152601d60248201527f416464726573733a2063616c6c20746f206e6f6e2d636f6e74726163740000006044820152606401610efd565b50816118b3565b6118b3838361425b565b81518151606091158015911515908290613ffa5750805b1561402a578484604051602001614012929190615731565b60405160208183030381529060405292505050610ad9565b8115614041578460405160200161401291906157a8565b8015614058578360405160200161401291906157e8565b50506040805160208101909152600081529392505050565b60608461407c83614285565b858561408786614285565b8960405160200161409d96959493929190615830565b6040516020818303038152906040529050949350505050565b60606140c182614385565b6040516020016140d19190615946565b6040516020818303038152906040529050919050565b6112a08363a9059cbb60e01b84846040516024016141069291906148c6565b60408051601f198184030181529190526020810180516001600160e01b03166001600160e01b0319909316929092179091526144d7565b6040516001600160a01b03808516602483015283166044820152606481018290526120d69085906323b872dd60e01b90608401614106565b600061417f6126e3565b549050600082900361419b5761419b63b562e8dd60e01b612765565b6141a86000848385612acf565b6141b8836001841460e11b612b5e565b6141c06126e3565b600083815260049190910160205260409020556001600160401b0182026141e56126e3565b6001600160a01b038516600081815260059290920160205260408220805490930190925581900361421f5761421f622e076360e81b612765565b818301825b80836000600080516020615a3d833981519152600080a481816001019150810361422457816142516126e3565b55506112a0915050565b81511561426b5781518083602001fd5b8060405162461bcd60e51b8152600401610efd919061472b565b6060816000036142ac5750506040805180820190915260018152600360fc1b602082015290565b8160005b81156142d657806142c08161598b565b91506142cf9050600a83615108565b91506142b0565b6000816001600160401b038111156142f0576142f0614a63565b6040519080825280601f01601f19166020018201604052801561431a576020820181803683370190505b5090505b84156118b35761432f6001836154a3565b915061433c600a866159a4565b6143479060306150c8565b60f81b81838151811061435c5761435c61511c565b60200101906001600160f81b031916908160001a90535061437e600a86615108565b945061431e565b606081516000036143a457505060408051602081019091526000815290565b60006040518060600160405280604081526020016159d660409139905060006003845160026143d391906150c8565b6143dd9190615108565b6143e89060046150db565b6001600160401b038111156143ff576143ff614a63565b6040519080825280601f01601f191660200182016040528015614429576020820181803683370190505b509050600182016020820185865187015b80821015614495576003820191508151603f8160121c168501518453600184019350603f81600c1c168501518453600184019350603f8160061c168501518453600184019350603f811685015184535060018301925061443a565b50506003865106600181146144b157600281146144c4576144cc565b603d6001830353603d60028303536144cc565b603d60018303535b509195945050505050565b600061452c826040518060400160405280602081526020017f5361666545524332303a206c6f772d6c6576656c2063616c6c206661696c6564815250856001600160a01b03166145a99092919063ffffffff16565b8051909150156112a0578080602001905181019061454a91906159b8565b6112a05760405162461bcd60e51b815260206004820152602a60248201527f5361666545524332303a204552433230206f7065726174696f6e20646964206e6044820152691bdd081cdd58d8d9595960b21b6064820152608401610efd565b60606118b3848460008585600080866001600160a01b031685876040516145d0919061571f565b60006040518083038185875af1925050503d806000811461460d576040519150601f19603f3d011682016040523d82523d6000602084013e614612565b606091505b509150915061462387838387613f6c565b979650505050505050565b50805461463a90615035565b6000825580601f1061464a575050565b601f016020900490600052602060002090810190610c0b919061468f565b60408051608081018252600080825260208201819052918101829052606081019190915290565b5b808211156146a45760008155600101614690565b5090565b6001600160e01b031981168114610c0b57600080fd5b6000602082840312156146d057600080fd5b81356135ca816146a8565b60005b838110156146f65781810151838201526020016146de565b50506000910152565b600081518084526147178160208601602086016146db565b601f01601f19169290920160200192915050565b6020815260006135ca60208301846146ff565b6001600160a01b0391909116815260200190565b60006020828403121561476457600080fd5b5035919050565b6001600160a01b0381168114610c0b57600080fd5b803561211e8161476b565b6000806040838503121561479e57600080fd5b82356147a98161476b565b946020939093013593505050565b6000602082840312156147c957600080fd5b81356135ca8161476b565b60006080828403121561227257600080fd5b60008060008060008060c087890312156147ff57600080fd5b8635955060208701356148118161476b565b94506040870135935060608701356148288161476b565b92506080870135915060a08701356001600160401b0381111561484a57600080fd5b61485689828a016147d4565b9150509295509295509295565b60008060006060848603121561487857600080fd5b83356148838161476b565b925060208401356148938161476b565b929592945050506040919091013590565b600080604083850312156148b757600080fd5b50508035926020909101359150565b6001600160a01b03929092168252602082015260400190565b600080604083850312156148f257600080fd5b8235915060208301356149048161476b565b809150509250929050565b6020815281516020820152602082015160408201526040820151606082015260608201516080820152608082015160a082015260a082015160c082015260018060a01b0360c08301511660e0820152600060e08301516101008081850152506118b36101208401826146ff565b60008083601f84011261498e57600080fd5b5081356001600160401b038111156149a557600080fd5b6020830191508360208260051b85010111156149c057600080fd5b9250929050565b8015158114610c0b57600080fd5b6000806000604084860312156149ea57600080fd5b83356001600160401b03811115614a0057600080fd5b614a0c8682870161497c565b9094509250506020840135614a20816149c7565b809150509250925092565b6020808252825182820181905260009190848201906040850190845b81811015612ff657835183529284019291840191600101614a47565b634e487b7160e01b600052604160045260246000fd5b604051601f8201601f191681016001600160401b0381118282101715614aa157614aa1614a63565b604052919050565b600082601f830112614aba57600080fd5b81356001600160401b03811115614ad357614ad3614a63565b614ae6601f8201601f1916602001614a79565b818152846020838601011115614afb57600080fd5b816020850160208301376000918101602001919091529392505050565b60008060008060008060c08789031215614b3157600080fd5b8635614b3c8161476b565b9550602087013594506040870135614b538161476b565b93506060870135925060808701356001600160401b0380821115614b7657600080fd5b614b828a838b016147d4565b935060a0890135915080821115614b9857600080fd5b5061485689828a01614aa9565b600060208284031215614bb757600080fd5b81356001600160401b03811115614bcd57600080fd5b6118b384828501614aa9565b600080600060608486031215614bee57600080fd5b8335614bf98161476b565b95602085013595506040909401359392505050565b600080600060608486031215614c2357600080fd5b8335925060208401356148938161476b565b60008060408385031215614c4857600080fd5b8235614c538161476b565b91506020830135614904816149c7565b600060208284031215614c7557600080fd5b81356001600160401b03811115614c8b57600080fd5b6118b3848285016147d4565b60008060208385031215614caa57600080fd5b82356001600160401b03811115614cc057600080fd5b614ccc8582860161497c565b90969095509350505050565b600060208083016020845280855180835260408601915060408160051b87010192506020870160005b82811015614d2f57603f19888603018452614d1d8583516146ff565b94509285019290850190600101614d01565b5092979650505050505050565b608081526000614d4f60808301876146ff565b8281036020840152614d6181876146ff565b90508281036040840152614d7581866146ff565b9050828103606084015261462381856146ff565b600060208284031215614d9b57600080fd5b8135600281106135ca57600080fd5b60008060008060808587031215614dc057600080fd5b8435614dcb8161476b565b93506020850135614ddb8161476b565b92506040850135915060608501356001600160401b03811115614dfd57600080fd5b614e0987828801614aa9565b91505092959194509250565b918252602082015260400190565b600082601f830112614e3457600080fd5b813560206001600160401b03821115614e4f57614e4f614a63565b8160051b614e5e828201614a79565b9283528481018201928281019087851115614e7857600080fd5b83870192505b84831015614623578235614e918161476b565b82529183019190830190614e7e565b80356001600160801b038116811461211e57600080fd5b6000806000806000806000806000806101408b8d031215614ed757600080fd5b614ee08b614780565b995060208b01356001600160401b0380821115614efc57600080fd5b614f088e838f01614aa9565b9a5060408d0135915080821115614f1e57600080fd5b614f2a8e838f01614aa9565b995060608d0135915080821115614f4057600080fd5b614f4c8e838f01614aa9565b985060808d0135915080821115614f6257600080fd5b50614f6f8d828e01614e23565b965050614f7e60a08c01614780565b9450614f8c60c08c01614780565b9350614f9a60e08c01614ea0565b9250614fa96101008c01614ea0565b9150614fb86101208c01614780565b90509295989b9194979a5092959850565b60008060408385031215614fdc57600080fd5b8235614fe78161476b565b915060208301356149048161476b565b634e487b7160e01b600052602160045260246000fd5b602081016002831061502f57634e487b7160e01b600052602160045260246000fd5b91905290565b600181811c9082168061504957607f821691505b60208210810361227257634e487b7160e01b600052602260045260246000fd5b6000808335601e1984360301811261508057600080fd5b8301803591506001600160401b0382111561509a57600080fd5b6020019150600581901b36038213156149c057600080fd5b634e487b7160e01b600052601160045260246000fd5b80820180821115610ad957610ad96150b2565b8082028115828204841417610ad957610ad96150b2565b634e487b7160e01b600052601260045260246000fd5b600082615117576151176150f2565b500490565b634e487b7160e01b600052603260045260246000fd5b6000823560fe1983360301811261514857600080fd5b9190910192915050565b6000808335601e1984360301811261516957600080fd5b8301803591506001600160401b0382111561518357600080fd5b6020019150368190038213156149c057600080fd5b601f8211156112a0576000816000526020600020601f850160051c810160208610156151c15750805b601f850160051c820191505b81811015613002578281556001016151cd565b600019600383901b1c191660019190911b1790565b6001600160401b0383111561520c5761520c614a63565b6152208361521a8354615035565b83615198565b6000601f84116001811461524e576000851561523c5750838201355b61524686826151e0565b845550613f65565b600083815260209020601f19861690835b8281101561527f578685013582556020948501946001909201910161525f565b508682101561529c5760001960f88860031b161c19848701351681555b505060018560011b0183555050505050565b813581556020820135600182015560408201356002820155606082013560038201556080820135600482015560a082013560058201556006810160c08301356152f68161476b565b81546001600160a01b0319166001600160a01b039190911617905561531e60e0830183615152565b6120d68183600786016151f5565b6000808335601e1984360301811261534357600080fd5b83016020810192503590506001600160401b0381111561536257600080fd5b8036038213156149c057600080fd5b81835281816020850137506000828201602090810191909152601f909101601f19169091010190565b60408082528181018490526000906060808401600587901b850182018885805b8a81101561546c57888403605f190185528235368d900360fe190181126153df578283fd5b8c018035855260208082013581870152888201358987015287820135888701526080808301359087015260a080830135908701526101009060c0808401356154268161476b565b6001600160a01b03169088015260e06154418482018561532c565b945083828a0152615455848a018683615371565b9983019998505050949094019350506001016153ba565b505050861515602087015293506118b392505050565b8284823760609190911b6001600160601b0319169101908152601401919050565b81810381811115610ad957610ad96150b2565b6000816154c5576154c56150b2565b506000190190565b81516001600160401b038111156154e6576154e6614a63565b6154fa816154f48454615035565b84615198565b602080601f83116001811461552957600084156155175750858301515b61552185826151e0565b865550613002565b600085815260208120601f198616915b8281101561555857888601518255948401946001909101908401615539565b50858210156155765787850151600019600388901b60f8161c191681555b5050505050600190811b01905550565b60408152600061559960408301856146ff565b82810360208401526155ab81856146ff565b95945050505050565b6080815260006155c8608083018a8c615371565b82810360208401526155db81898b615371565b905082810360408401526155f0818789615371565b90508281036060840152615605818587615371565b9b9a5050505050505050505050565b6001600160a01b0385811682528416602082015260408101839052608060608201819052600090613c8c908301846146ff565b60006020828403121561565957600080fd5b81516135ca816146a8565b6020808252602b908201527f496e697469616c697a61626c653a20636f6e7472616374206973206e6f74206960408201526a6e697469616c697a696e6760a81b606082015260800190565b60208082526034908201527f455243373231415f5f496e697469616c697a61626c653a20636f6e7472616374604082015273206973206e6f7420696e697469616c697a696e6760601b606082015260800190565b600081516157158185602086016146db565b9290920192915050565b600082516151488184602087016146db565b6834b6b0b3b2911d101160b91b815282516000906157568160098501602088016146db565b741116101130b734b6b0ba34b7b72fbab936111d101160591b600991840191820152835161578b81601e8401602088016146db565b631116101160e11b601e9290910191820152602201949350505050565b6834b6b0b3b2911d101160b91b815281516000906157cd8160098501602087016146db565b631116101160e11b6009939091019283015250600d01919050565b7030b734b6b0ba34b7b72fbab936111d101160791b815281516000906158158160118501602087016146db565b631116101160e11b6011939091019283015250601501919050565b693d913730b6b2911d101160b11b8152865160009061585681600a850160208c016146db565b600160fd1b600a91840191820152875161587781600b840160208c016146db565b631116101160e11b600b929091019182018190526e3232b9b1b934b83a34b7b7111d101160891b600f83015287516158b681601e850160208c016146db565b601e92019182015285516158d1816022840160208a016146db565b770383937b832b93a34b2b9911d103d91373ab6b132b9111d160451b6022929091019182015261593961592a61592461590d603a850189615703565b6a1610113730b6b2911d101160a91b8152600b0190565b86615703565b62227d7d60e81b815260030190565b9998505050505050505050565b7f646174613a6170706c69636174696f6e2f6a736f6e3b6261736536342c00000081526000825161597e81601d8501602087016146db565b91909101601d0192915050565b60006001820161599d5761599d6150b2565b5060010190565b6000826159b3576159b36150f2565b500690565b6000602082840312156159ca57600080fd5b81516135ca816149c756fe4142434445464748494a4b4c4d4e4f505152535455565758595a6162636465666768696a6b6c6d6e6f707172737475767778797a303132333435363738392b2f416464726573733a206c6f772d6c6576656c2064656c65676174652063616c6c206661696c6564ddf252ad1be2c89b69c2b068fc378daa952ba7f163c4a11628f55a4df523b3efa26469706673582212201b249ec32262f76e1523f29ab677175a1e2eccadee29cee4b8fd4c878340fd9364736f6c63430008170033","linkReferences":{}},"methodIdentifiers":{"DEFAULT_ADMIN_ROLE()":"a217fddf","DEFAULT_FEE_RECIPIENT()":"637102df","approve(address,uint256)":"095ea7b3","balanceOf(address)":"70a08231","burn(uint256)":"42966c68","claim(address,uint256,address,uint256,(bytes32[],uint256,uint256,address),bytes)":"84bb1e42","claimCondition()":"d637ed59","contractURI()":"e8a3d485","explicitOwnershipOf(uint256)":"c23dc68f","getActiveClaimConditionId()":"c68907de","getApproved(uint256)":"081812fc","getClaimConditionById(uint256)":"6f8934f4","getDefaultRoyaltyInfo()":"b24f2d39","getFlatPlatformFeeInfo()":"e57553da","getPlatformFeeInfo()":"d45573f6","getPlatformFeeType()":"f28083c3","getRoleAdmin(bytes32)":"248a9ca3","getRoleMember(bytes32,uint256)":"9010d07c","getRoleMemberCount(bytes32)":"ca15c873","getRoyaltyInfoForToken(uint256)":"4cc157df","getSupplyClaimedByWallet(uint256,address)":"ad1eefc5","grantRole(bytes32,address)":"2f2ff15d","hasRole(bytes32,address)":"91d14854","hasRoleWithSwitch(bytes32,address)":"a32fa5b3","initialize(address,string,string,string,address[],address,address,uint128,uint128,address)":"e1591634","isApprovedForAll(address,address)":"e985e9c5","isTrustedForwarder(address)":"572b6c05","multicall(bytes[])":"ac9650d8","name()":"06fdde03","nextTokenIdToClaim()":"acd083f8","nextTokenIdToMint()":"3b1475a7","owner()":"8da5cb5b","ownerOf(uint256)":"6352211e","primarySaleRecipient()":"079fe40e","renounceRole(bytes32,address)":"36568abe","revokeRole(bytes32,address)":"d547741f","royaltyInfo(uint256,uint256)":"2a55205a","safeTransferFrom(address,address,uint256)":"42842e0e","safeTransferFrom(address,address,uint256,bytes)":"b88d4fde","setApprovalForAll(address,bool)":"a22cb465","setClaimConditions((uint256,uint256,uint256,uint256,bytes32,uint256,address,string)[],bool)":"74bc7db7","setContractURI(string)":"938e3d7b","setDefaultRoyaltyInfo(address,uint256)":"600dd5ea","setFlatPlatformFeeInfo(address,uint256)":"7e54523c","setOwner(address)":"13af4035","setPlatformFeeInfo(address,uint256)":"1e7ac488","setPlatformFeeType(uint8)":"b6f10c79","setPrimarySaleRecipient(address)":"6f4f2837","setRoyaltyInfoForToken(uint256,address,uint256)":"9bcf7a15","setSharedMetadata((string,string,string,string))":"a7d27d9d","sharedMetadata()":"b280f703","startTokenId()":"e6798baa","supportsInterface(bytes4)":"01ffc9a7","symbol()":"95d89b41","tokenURI(uint256)":"c87b56dd","tokensOfOwner(address)":"8462151c","tokensOfOwnerIn(address,uint256,uint256)":"99a2557a","totalMinted()":"a2309ff8","totalSupply()":"18160ddd","transferFrom(address,address,uint256)":"23b872dd","verifyClaim(uint256,address,uint256,address,uint256,(bytes32[],uint256,uint256,address))":"23a2902b"},"id":384}