{
  "_format": "hh-sol-artifact-1",
  "contractName": "TestERC721RoyaltiesV2",
  "sourceName": "@rarible/royalties/test/contracts/TestERC721RoyaltiesV2.sol",
  "abi": [
    {
      "anonymous": false,
      "inputs": [
        {
          "indexed": true,
          "internalType": "address",
          "name": "owner",
          "type": "address"
        },
        {
          "indexed": true,
          "internalType": "address",
          "name": "approved",
          "type": "address"
        },
        {
          "indexed": true,
          "internalType": "uint256",
          "name": "tokenId",
          "type": "uint256"
        }
      ],
      "name": "Approval",
      "type": "event"
    },
    {
      "anonymous": false,
      "inputs": [
        {
          "indexed": true,
          "internalType": "address",
          "name": "owner",
          "type": "address"
        },
        {
          "indexed": true,
          "internalType": "address",
          "name": "operator",
          "type": "address"
        },
        {
          "indexed": false,
          "internalType": "bool",
          "name": "approved",
          "type": "bool"
        }
      ],
      "name": "ApprovalForAll",
      "type": "event"
    },
    {
      "anonymous": false,
      "inputs": [
        {
          "indexed": false,
          "internalType": "uint256",
          "name": "tokenId",
          "type": "uint256"
        },
        {
          "components": [
            {
              "internalType": "address payable",
              "name": "account",
              "type": "address"
            },
            {
              "internalType": "uint96",
              "name": "value",
              "type": "uint96"
            }
          ],
          "indexed": false,
          "internalType": "struct LibPart.Part[]",
          "name": "royalties",
          "type": "tuple[]"
        }
      ],
      "name": "RoyaltiesSet",
      "type": "event"
    },
    {
      "anonymous": false,
      "inputs": [
        {
          "indexed": true,
          "internalType": "address",
          "name": "from",
          "type": "address"
        },
        {
          "indexed": true,
          "internalType": "address",
          "name": "to",
          "type": "address"
        },
        {
          "indexed": true,
          "internalType": "uint256",
          "name": "tokenId",
          "type": "uint256"
        }
      ],
      "name": "Transfer",
      "type": "event"
    },
    {
      "inputs": [
        {
          "internalType": "address",
          "name": "to",
          "type": "address"
        },
        {
          "internalType": "uint256",
          "name": "tokenId",
          "type": "uint256"
        }
      ],
      "name": "approve",
      "outputs": [],
      "stateMutability": "nonpayable",
      "type": "function"
    },
    {
      "inputs": [
        {
          "internalType": "address",
          "name": "owner",
          "type": "address"
        }
      ],
      "name": "balanceOf",
      "outputs": [
        {
          "internalType": "uint256",
          "name": "",
          "type": "uint256"
        }
      ],
      "stateMutability": "view",
      "type": "function"
    },
    {
      "inputs": [],
      "name": "baseURI",
      "outputs": [
        {
          "internalType": "string",
          "name": "",
          "type": "string"
        }
      ],
      "stateMutability": "view",
      "type": "function"
    },
    {
      "inputs": [
        {
          "internalType": "uint256",
          "name": "tokenId",
          "type": "uint256"
        }
      ],
      "name": "getApproved",
      "outputs": [
        {
          "internalType": "address",
          "name": "",
          "type": "address"
        }
      ],
      "stateMutability": "view",
      "type": "function"
    },
    {
      "inputs": [
        {
          "internalType": "uint256",
          "name": "id",
          "type": "uint256"
        }
      ],
      "name": "getRaribleV2Royalties",
      "outputs": [
        {
          "components": [
            {
              "internalType": "address payable",
              "name": "account",
              "type": "address"
            },
            {
              "internalType": "uint96",
              "name": "value",
              "type": "uint96"
            }
          ],
          "internalType": "struct LibPart.Part[]",
          "name": "",
          "type": "tuple[]"
        }
      ],
      "stateMutability": "view",
      "type": "function"
    },
    {
      "inputs": [],
      "name": "initialize",
      "outputs": [],
      "stateMutability": "nonpayable",
      "type": "function"
    },
    {
      "inputs": [
        {
          "internalType": "address",
          "name": "owner",
          "type": "address"
        },
        {
          "internalType": "address",
          "name": "operator",
          "type": "address"
        }
      ],
      "name": "isApprovedForAll",
      "outputs": [
        {
          "internalType": "bool",
          "name": "",
          "type": "bool"
        }
      ],
      "stateMutability": "view",
      "type": "function"
    },
    {
      "inputs": [
        {
          "internalType": "address",
          "name": "to",
          "type": "address"
        },
        {
          "internalType": "uint256",
          "name": "tokenId",
          "type": "uint256"
        },
        {
          "components": [
            {
              "internalType": "address payable",
              "name": "account",
              "type": "address"
            },
            {
              "internalType": "uint96",
              "name": "value",
              "type": "uint96"
            }
          ],
          "internalType": "struct LibPart.Part[]",
          "name": "_fees",
          "type": "tuple[]"
        }
      ],
      "name": "mint",
      "outputs": [],
      "stateMutability": "nonpayable",
      "type": "function"
    },
    {
      "inputs": [],
      "name": "name",
      "outputs": [
        {
          "internalType": "string",
          "name": "",
          "type": "string"
        }
      ],
      "stateMutability": "view",
      "type": "function"
    },
    {
      "inputs": [
        {
          "internalType": "uint256",
          "name": "tokenId",
          "type": "uint256"
        }
      ],
      "name": "ownerOf",
      "outputs": [
        {
          "internalType": "address",
          "name": "",
          "type": "address"
        }
      ],
      "stateMutability": "view",
      "type": "function"
    },
    {
      "inputs": [
        {
          "internalType": "uint256",
          "name": "id",
          "type": "uint256"
        },
        {
          "internalType": "uint256",
          "name": "_salePrice",
          "type": "uint256"
        }
      ],
      "name": "royaltyInfo",
      "outputs": [
        {
          "internalType": "address",
          "name": "receiver",
          "type": "address"
        },
        {
          "internalType": "uint256",
          "name": "royaltyAmount",
          "type": "uint256"
        }
      ],
      "stateMutability": "view",
      "type": "function"
    },
    {
      "inputs": [
        {
          "internalType": "address",
          "name": "from",
          "type": "address"
        },
        {
          "internalType": "address",
          "name": "to",
          "type": "address"
        },
        {
          "internalType": "uint256",
          "name": "tokenId",
          "type": "uint256"
        }
      ],
      "name": "safeTransferFrom",
      "outputs": [],
      "stateMutability": "nonpayable",
      "type": "function"
    },
    {
      "inputs": [
        {
          "internalType": "address",
          "name": "from",
          "type": "address"
        },
        {
          "internalType": "address",
          "name": "to",
          "type": "address"
        },
        {
          "internalType": "uint256",
          "name": "tokenId",
          "type": "uint256"
        },
        {
          "internalType": "bytes",
          "name": "_data",
          "type": "bytes"
        }
      ],
      "name": "safeTransferFrom",
      "outputs": [],
      "stateMutability": "nonpayable",
      "type": "function"
    },
    {
      "inputs": [
        {
          "internalType": "address",
          "name": "operator",
          "type": "address"
        },
        {
          "internalType": "bool",
          "name": "approved",
          "type": "bool"
        }
      ],
      "name": "setApprovalForAll",
      "outputs": [],
      "stateMutability": "nonpayable",
      "type": "function"
    },
    {
      "inputs": [
        {
          "internalType": "bytes4",
          "name": "interfaceId",
          "type": "bytes4"
        }
      ],
      "name": "supportsInterface",
      "outputs": [
        {
          "internalType": "bool",
          "name": "",
          "type": "bool"
        }
      ],
      "stateMutability": "view",
      "type": "function"
    },
    {
      "inputs": [],
      "name": "symbol",
      "outputs": [
        {
          "internalType": "string",
          "name": "",
          "type": "string"
        }
      ],
      "stateMutability": "view",
      "type": "function"
    },
    {
      "inputs": [
        {
          "internalType": "uint256",
          "name": "index",
          "type": "uint256"
        }
      ],
      "name": "tokenByIndex",
      "outputs": [
        {
          "internalType": "uint256",
          "name": "",
          "type": "uint256"
        }
      ],
      "stateMutability": "view",
      "type": "function"
    },
    {
      "inputs": [
        {
          "internalType": "address",
          "name": "owner",
          "type": "address"
        },
        {
          "internalType": "uint256",
          "name": "index",
          "type": "uint256"
        }
      ],
      "name": "tokenOfOwnerByIndex",
      "outputs": [
        {
          "internalType": "uint256",
          "name": "",
          "type": "uint256"
        }
      ],
      "stateMutability": "view",
      "type": "function"
    },
    {
      "inputs": [
        {
          "internalType": "uint256",
          "name": "tokenId",
          "type": "uint256"
        }
      ],
      "name": "tokenURI",
      "outputs": [
        {
          "internalType": "string",
          "name": "",
          "type": "string"
        }
      ],
      "stateMutability": "view",
      "type": "function"
    },
    {
      "inputs": [],
      "name": "totalSupply",
      "outputs": [
        {
          "internalType": "uint256",
          "name": "",
          "type": "uint256"
        }
      ],
      "stateMutability": "view",
      "type": "function"
    },
    {
      "inputs": [
        {
          "internalType": "address",
          "name": "from",
          "type": "address"
        },
        {
          "internalType": "address",
          "name": "to",
          "type": "address"
        },
        {
          "internalType": "uint256",
          "name": "tokenId",
          "type": "uint256"
        }
      ],
      "name": "transferFrom",
      "outputs": [],
      "stateMutability": "nonpayable",
      "type": "function"
    }
  ],
  "bytecode": "0x608060405234801561001057600080fd5b506122df806100206000396000f3fe608060405234801561001057600080fd5b50600436106101375760003560e01c80634f6ccce7116100b857806395d89b411161007c57806395d89b411461027a578063a22cb46514610282578063b88d4fde14610295578063c87b56dd146102a8578063cad96cca146102bb578063e985e9c5146102db57610137565b80634f6ccce7146102315780636352211e146102445780636c0360eb1461025757806370a082311461025f5780638129fc1c1461027257610137565b806323b872dd116100ff57806323b872dd146101c45780632a55205a146101d75780632f745c59146101f85780633f0b47921461020b57806342842e0e1461021e57610137565b806301ffc9a71461013c57806306fdde0314610165578063081812fc1461017a578063095ea7b31461019a57806318160ddd146101af575b600080fd5b61014f61014a366004611e7e565b6102ee565b60405161015c9190611f76565b60405180910390f35b61016d610311565b60405161015c9190611f81565b61018d610188366004611ea6565b6103a7565b60405161015c9190611f36565b6101ad6101a8366004611d49565b610409565b005b6101b76104df565b60405161015c9190611fd4565b6101ad6101d2366004611c22565b6104f0565b6101ea6101e5366004611ebe565b610547565b60405161015c929190611f4a565b6101b7610206366004611d49565b610651565b6101ad610219366004611d74565b61067c565b6101ad61022c366004611c22565b610690565b6101b761023f366004611ea6565b6106ab565b61018d610252366004611ea6565b6106c1565b61016d6106e9565b6101b761026d366004611bce565b61074a565b6101ad6107b2565b61016d610863565b6101ad610290366004611d18565b6108c4565b6101ad6102a3366004611c62565b6109c9565b61016d6102b6366004611ea6565b610a27565b6102ce6102c9366004611ea6565b610ca8565b60405161015c9190611f63565b61014f6102e9366004611bea565b610d2e565b6001600160e01b0319811660009081526034602052604090205460ff165b919050565b606b8054604080516020601f600260001961010060018816150201909516949094049384018190048102820181019092528281526060939092909183018282801561039d5780601f106103725761010080835404028352916020019161039d565b820191906000526020600020905b81548152906001019060200180831161038057829003601f168201915b5050505050905090565b60006103b282610d5c565b6103ed5760405162461bcd60e51b815260040180806020018281038252602c8152602001806121af602c913960400191505060405180910390fd5b506000908152606960205260409020546001600160a01b031690565b6000610414826106c1565b9050806001600160a01b0316836001600160a01b031614156104675760405162461bcd60e51b81526004018080602001828103825260218152602001806122336021913960400191505060405180910390fd5b806001600160a01b0316610479610d69565b6001600160a01b031614806104955750610495816102e9610d69565b6104d05760405162461bcd60e51b81526004018080602001828103825260388152602001806120d46038913960400191505060405180910390fd5b6104da8383610d6d565b505050565b60006104eb6067610ddb565b905090565b6105016104fb610d69565b82610de6565b61053c5760405162461bcd60e51b81526004018080602001828103825260318152602001806122546031913960400191505060405180910390fd5b6104da838383610e8a565b60008281526020819052604081205481906105675750600090508061064a565b60008481526020818152604080832080548251818502810185019093528083529192909190849084015b828210156105e057600084815260209081902060408051808201909152908401546001600160a01b0381168252600160a01b90046001600160601b031681830152825260019092019101610591565b505050509050806000815181106105f357fe5b60209081029190910101515192506000805b825181101561063e5782818151811061061a57fe5b6020026020010151602001516001600160601b031682019150806001019050610605565b50612710908502049150505b9250929050565b6001600160a01b03821660009081526066602052604081206106739083610fd6565b90505b92915050565b6106868383610fe2565b6104da8282611110565b6104da838383604051806020016040528060008152506109c9565b6000806106b96067846112fd565b509392505050565b6000610676826040518060600160405280602981526020016121366029913960679190611319565b606e8054604080516020601f600260001961010060018816150201909516949094049384018190048102820181019092528281526060939092909183018282801561039d5780601f106103725761010080835404028352916020019161039d565b60006001600160a01b0382166107915760405162461bcd60e51b815260040180806020018281038252602a81526020018061210c602a913960400191505060405180910390fd5b6001600160a01b038216600090815260666020526040902061067690610ddb565b600154610100900460ff16806107cb57506107cb611330565b806107d9575060015460ff16155b6108145760405162461bcd60e51b815260040180806020018281038252602e81526020018061215f602e913960400191505060405180910390fd5b600154610100900460ff1615801561083e576001805460ff1961ff00199091166101001716811790555b61084e63656cb66560e11b611341565b8015610860576001805461ff00191690555b50565b606c8054604080516020601f600260001961010060018816150201909516949094049384018190048102820181019092528281526060939092909183018282801561039d5780601f106103725761010080835404028352916020019161039d565b6108cc610d69565b6001600160a01b0316826001600160a01b03161415610932576040805162461bcd60e51b815260206004820152601960248201527f4552433732313a20617070726f766520746f2063616c6c657200000000000000604482015290519081900360640190fd5b80606a600061093f610d69565b6001600160a01b03908116825260208083019390935260409182016000908120918716808252919093529120805460ff191692151592909217909155610983610d69565b6001600160a01b03167f17307eab39ab6107e8899845ad3d59bd9653f200f220920489ca2b5937696c318360405180821515815260200191505060405180910390a35050565b6109da6109d4610d69565b83610de6565b610a155760405162461bcd60e51b81526004018080602001828103825260318152602001806122546031913960400191505060405180910390fd5b610a21848484846113c5565b50505050565b6060610a3282610d5c565b610a6d5760405162461bcd60e51b815260040180806020018281038252602f815260200180612204602f913960400191505060405180910390fd5b6000828152606d602090815260408083208054825160026001831615610100026000190190921691909104601f810185900485028201850190935282815292909190830182828015610b005780601f10610ad557610100808354040283529160200191610b00565b820191906000526020600020905b815481529060010190602001808311610ae357829003601f168201915b505050505090506000610b116106e9565b9050805160001415610b255750905061030c565b815115610be65780826040516020018083805190602001908083835b60208310610b605780518252601f199092019160209182019101610b41565b51815160209384036101000a600019018019909216911617905285519190930192850191508083835b60208310610ba85780518252601f199092019160209182019101610b89565b6001836020036101000a038019825116818451168082178552505050505050905001925050506040516020818303038152906040529250505061030c565b80610bf085611417565b6040516020018083805190602001908083835b60208310610c225780518252601f199092019160209182019101610c03565b51815160209384036101000a600019018019909216911617905285519190930192850191508083835b60208310610c6a5780518252601f199092019160209182019101610c4b565b6001836020036101000a0380198251168184511680821785525050505050509050019250505060405160208183030381529060405292505050919050565b600081815260208181526040808320805482518185028101850190935280835260609492939192909184015b82821015610d2357600084815260209081902060408051808201909152908401546001600160a01b0381168252600160a01b90046001600160601b031681830152825260019092019101610cd4565b505050509050919050565b6001600160a01b039182166000908152606a6020908152604080832093909416825291909152205460ff1690565b60006106766067836114f2565b3390565b600081815260696020526040902080546001600160a01b0319166001600160a01b0384169081179091558190610da2826106c1565b6001600160a01b03167f8c5be1e5ebec7d5bd14f71427d1e84f3dd0314c0f7b2291e5b200ac8c7c3b92560405160405180910390a45050565b6000610676826114fe565b6000610df182610d5c565b610e2c5760405162461bcd60e51b815260040180806020018281038252602c8152602001806120a8602c913960400191505060405180910390fd5b6000610e37836106c1565b9050806001600160a01b0316846001600160a01b03161480610e725750836001600160a01b0316610e67846103a7565b6001600160a01b0316145b80610e825750610e828185610d2e565b949350505050565b826001600160a01b0316610e9d826106c1565b6001600160a01b031614610ee25760405162461bcd60e51b81526004018080602001828103825260298152602001806121db6029913960400191505060405180910390fd5b6001600160a01b038216610f275760405162461bcd60e51b81526004018080602001828103825260248152602001806120846024913960400191505060405180910390fd5b610f328383836104da565b610f3d600082610d6d565b6001600160a01b0383166000908152606660205260409020610f5f9082611502565b506001600160a01b0382166000908152606660205260409020610f82908261150e565b50610f8f6067828461151a565b5080826001600160a01b0316846001600160a01b03167fddf252ad1be2c89b69c2b068fc378daa952ba7f163c4a11628f55a4df523b3ef60405160405180910390a4505050565b60006106738383611530565b6001600160a01b03821661103d576040805162461bcd60e51b815260206004820181905260248201527f4552433732313a206d696e7420746f20746865207a65726f2061646472657373604482015290519081900360640190fd5b61104681610d5c565b15611098576040805162461bcd60e51b815260206004820152601c60248201527f4552433732313a20746f6b656e20616c7265616479206d696e74656400000000604482015290519081900360640190fd5b6110a4600083836104da565b6001600160a01b03821660009081526066602052604090206110c6908261150e565b506110d36067828461151a565b5060405181906001600160a01b038416906000907fddf252ad1be2c89b69c2b068fc378daa952ba7f163c4a11628f55a4df523b3ef908290a45050565b6000805b82518110156112b25760006001600160a01b031683828151811061113457fe5b6020026020010151600001516001600160a01b0316141561119c576040805162461bcd60e51b815260206004820152601b60248201527f526563697069656e742073686f756c642062652070726573656e740000000000604482015290519081900360640190fd5b8281815181106111a857fe5b6020026020010151602001516001600160601b031660001415611212576040805162461bcd60e51b815260206004820181905260248201527f526f79616c74792076616c75652073686f756c6420626520706f736974697665604482015290519081900360640190fd5b82818151811061121e57fe5b6020026020010151602001516001600160601b03168201915060008085815260200190815260200160002083828151811061125557fe5b60209081029190910181015182546001818101855560009485529383902082519101805492909301516001600160601b0316600160a01b026001600160a01b039182166001600160a01b0319909316929092171617905501611114565b5061271081106112f35760405162461bcd60e51b81526004018080602001828103825260258152602001806122856025913960400191505060405180910390fd5b6104da8383611594565b600080808061130c86866115d1565b9097909650945050505050565b600061132684848461164c565b90505b9392505050565b600061133b30611716565b15905090565b6001600160e01b031980821614156113a0576040805162461bcd60e51b815260206004820152601c60248201527f4552433136353a20696e76616c696420696e7465726661636520696400000000604482015290519081900360640190fd5b6001600160e01b0319166000908152603460205260409020805460ff19166001179055565b6113d0848484610e8a565b6113dc8484848461171c565b610a215760405162461bcd60e51b81526004018080602001828103825260328152602001806120526032913960400191505060405180910390fd5b60608161143c57506040805180820190915260018152600360fc1b602082015261030c565b8160005b811561145457600101600a82049150611440565b60008167ffffffffffffffff8111801561146d57600080fd5b506040519080825280601f01601f191660200182016040528015611498576020820181803683370190505b50859350905060001982015b83156114e957600a840660300160f81b828280600190039350815181106114c757fe5b60200101906001600160f81b031916908160001a905350600a840493506114a4565b50949350505050565b60006106738383611884565b5490565b6000610673838361189c565b60006106738383611962565b600061132684846001600160a01b0385166119ac565b815460009082106115725760405162461bcd60e51b81526004018080602001828103825260228152602001806120306022913960400191505060405180910390fd5b82600001828154811061158157fe5b9060005260206000200154905092915050565b7f3fa96d7b6bcbfe71ef171666d84db3cf52fa2d1c8afdb1cc8e486177f208b7df82826040516115c5929190611fdd565b60405180910390a15050565b8154600090819083106116155760405162461bcd60e51b815260040180806020018281038252602281526020018061218d6022913960400191505060405180910390fd5b600084600001848154811061162657fe5b906000526020600020906002020190508060000154816001015492509250509250929050565b600082815260018401602052604081205482816116e75760405162461bcd60e51b81526004018080602001828103825283818151815260200191508051906020019080838360005b838110156116ac578181015183820152602001611694565b50505050905090810190601f1680156116d95780820380516001836020036101000a031916815260200191505b509250505060405180910390fd5b508460000160018203815481106116fa57fe5b9060005260206000209060020201600101549150509392505050565b3b151590565b6000611730846001600160a01b0316611716565b61173c57506001610e82565b600061184a630a85bd0160e11b611751610d69565b88878760405160240180856001600160a01b03168152602001846001600160a01b0316815260200183815260200180602001828103825283818151815260200191508051906020019080838360005b838110156117b85781810151838201526020016117a0565b50505050905090810190601f1680156117e55780820380516001836020036101000a031916815260200191505b5095505050505050604051602081830303815290604052906001600160e01b0319166020820180516001600160e01b038381831617835250505050604051806060016040528060328152602001612052603291396001600160a01b0388169190611a43565b9050600081806020019051602081101561186357600080fd5b50516001600160e01b031916630a85bd0160e11b1492505050949350505050565b60009081526001919091016020526040902054151590565b6000818152600183016020526040812054801561195857835460001980830191908101906000908790839081106118cf57fe5b90600052602060002001549050808760000184815481106118ec57fe5b60009182526020808320909101929092558281526001898101909252604090209084019055865487908061191c57fe5b60019003818190600052602060002001600090559055866001016000878152602001908152602001600020600090556001945050505050610676565b6000915050610676565b600061196e8383611884565b6119a457508154600181810184556000848152602080822090930184905584548482528286019093526040902091909155610676565b506000610676565b600082815260018401602052604081205480611a11575050604080518082018252838152602080820184815286546001818101895560008981528481209551600290930290950191825591519082015586548684528188019092529290912055611329565b82856000016001830381548110611a2457fe5b9060005260206000209060020201600101819055506000915050611329565b6060611326848460008585611a5785611716565b611aa8576040805162461bcd60e51b815260206004820152601d60248201527f416464726573733a2063616c6c20746f206e6f6e2d636f6e7472616374000000604482015290519081900360640190fd5b600080866001600160a01b031685876040518082805190602001908083835b60208310611ae65780518252601f199092019160209182019101611ac7565b6001836020036101000a03801982511681845116808217855250505050505090500191505060006040518083038185875af1925050503d8060008114611b48576040519150601f19603f3d011682016040523d82523d6000602084013e611b4d565b606091505b5091509150611b5d828286611b68565b979650505050505050565b60608315611b77575081611329565b825115611b875782518084602001fd5b60405162461bcd60e51b81526020600482018181528451602484015284518593919283926044019190850190808383600083156116ac578181015183820152602001611694565b600060208284031215611bdf578081fd5b81356113298161201a565b60008060408385031215611bfc578081fd5b8235611c078161201a565b91506020830135611c178161201a565b809150509250929050565b600080600060608486031215611c36578081fd5b8335611c418161201a565b92506020840135611c518161201a565b929592945050506040919091013590565b60008060008060808587031215611c77578081fd5b8435611c828161201a565b9350602085810135611c938161201a565b935060408601359250606086013567ffffffffffffffff80821115611cb6578384fd5b818801915088601f830112611cc9578384fd5b813581811115611cd557fe5b611ce7601f8201601f19168501611ff6565b91508082528984828501011115611cfc578485fd5b8084840185840137810190920192909252939692955090935050565b60008060408385031215611d2a578182fd5b8235611d358161201a565b915060208301358015158114611c17578182fd5b60008060408385031215611d5b578182fd5b8235611d668161201a565b946020939093013593505050565b600080600060608486031215611d88578283fd5b8335611d938161201a565b9250602084810135925060408086013567ffffffffffffffff80821115611db8578485fd5b818801915088601f830112611dcb578485fd5b813581811115611dd757fe5b611de48586830201611ff6565b81815285810190848701868402860188018d1015611e00578889fd5b8895505b83861015611e6c5786818e031215611e1a578889fd5b86518781018181108782111715611e2d57fe5b88528135611e3a8161201a565b8152818901356001600160601b0381168114611e54578a8bfd5b818a0152835260019590950194918701918601611e04565b50809750505050505050509250925092565b600060208284031215611e8f578081fd5b81356001600160e01b031981168114611329578182fd5b600060208284031215611eb7578081fd5b5035919050565b60008060408385031215611ed0578182fd5b50508035926020909101359150565b6000815180845260208085019450808401835b83811015611f2b57815180516001600160a01b031688528301516001600160601b03168388015260409096019590820190600101611ef2565b509495945050505050565b6001600160a01b0391909116815260200190565b6001600160a01b03929092168252602082015260400190565b6000602082526106736020830184611edf565b901515815260200190565b6000602080835283518082850152825b81811015611fad57858101830151858201604001528201611f91565b81811115611fbe5783604083870101525b50601f01601f1916929092016040019392505050565b90815260200190565b6000838252604060208301526113266040830184611edf565b60405181810167ffffffffffffffff8111828210171561201257fe5b604052919050565b6001600160a01b038116811461086057600080fdfe456e756d657261626c655365743a20696e646578206f7574206f6620626f756e64734552433732313a207472616e7366657220746f206e6f6e20455243373231526563656976657220696d706c656d656e7465724552433732313a207472616e7366657220746f20746865207a65726f20616464726573734552433732313a206f70657261746f7220717565727920666f72206e6f6e6578697374656e7420746f6b656e4552433732313a20617070726f76652063616c6c6572206973206e6f74206f776e6572206e6f7220617070726f76656420666f7220616c6c4552433732313a2062616c616e636520717565727920666f7220746865207a65726f20616464726573734552433732313a206f776e657220717565727920666f72206e6f6e6578697374656e7420746f6b656e496e697469616c697a61626c653a20636f6e747261637420697320616c726561647920696e697469616c697a6564456e756d657261626c654d61703a20696e646578206f7574206f6620626f756e64734552433732313a20617070726f76656420717565727920666f72206e6f6e6578697374656e7420746f6b656e4552433732313a207472616e73666572206f6620746f6b656e2074686174206973206e6f74206f776e4552433732314d657461646174613a2055524920717565727920666f72206e6f6e6578697374656e7420746f6b656e4552433732313a20617070726f76616c20746f2063757272656e74206f776e65724552433732313a207472616e736665722063616c6c6572206973206e6f74206f776e6572206e6f7220617070726f766564526f79616c747920746f74616c2076616c75652073686f756c64206265203c203130303030a2646970667358221220c91dd777514473bfb24563555d3468262901bfcfa005f1279e84669f06255b0964736f6c63430007060033",
  "linkReferences": {},
  "deployedLinkReferences": {}
}