{
  "address": "0x00C74eD067Cea48F1D6F7D00aBABa3C1D5B2598b",
  "abi": [
    {
      "anonymous": false,
      "inputs": [
        {
          "indexed": false,
          "internalType": "uint8",
          "name": "version",
          "type": "uint8"
        }
      ],
      "name": "Initialized",
      "type": "event"
    },
    {
      "anonymous": false,
      "inputs": [
        {
          "indexed": true,
          "internalType": "address",
          "name": "previousOwner",
          "type": "address"
        },
        {
          "indexed": true,
          "internalType": "address",
          "name": "newOwner",
          "type": "address"
        }
      ],
      "name": "OwnershipTransferred",
      "type": "event"
    },
    {
      "inputs": [
        {
          "internalType": "address",
          "name": "_dropERC721",
          "type": "address"
        },
        {
          "internalType": "address",
          "name": "_claimer",
          "type": "address"
        }
      ],
      "name": "getAllData",
      "outputs": [
        {
          "internalType": "uint256",
          "name": "activeClaimConditionIndex",
          "type": "uint256"
        },
        {
          "components": [
            {
              "internalType": "uint256",
              "name": "startTimestamp",
              "type": "uint256"
            },
            {
              "internalType": "uint256",
              "name": "maxClaimableSupply",
              "type": "uint256"
            },
            {
              "internalType": "uint256",
              "name": "supplyClaimed",
              "type": "uint256"
            },
            {
              "internalType": "uint256",
              "name": "quantityLimitPerWallet",
              "type": "uint256"
            },
            {
              "internalType": "bytes32",
              "name": "merkleRoot",
              "type": "bytes32"
            },
            {
              "internalType": "uint256",
              "name": "pricePerToken",
              "type": "uint256"
            },
            {
              "internalType": "address",
              "name": "currency",
              "type": "address"
            },
            {
              "internalType": "string",
              "name": "metadata",
              "type": "string"
            }
          ],
          "internalType": "struct IDropERC721.ClaimCondition[]",
          "name": "conditions",
          "type": "tuple[]"
        },
        {
          "components": [
            {
              "internalType": "uint256",
              "name": "totalMinted",
              "type": "uint256"
            },
            {
              "internalType": "uint256",
              "name": "claimedByUser",
              "type": "uint256"
            },
            {
              "internalType": "uint256",
              "name": "totalSupply",
              "type": "uint256"
            },
            {
              "internalType": "uint256",
              "name": "maxTotalSupply",
              "type": "uint256"
            },
            {
              "internalType": "uint256",
              "name": "nextTokenIdToMint",
              "type": "uint256"
            },
            {
              "internalType": "uint256",
              "name": "nextTokenIdToClaim",
              "type": "uint256"
            },
            {
              "internalType": "string",
              "name": "name",
              "type": "string"
            },
            {
              "internalType": "string",
              "name": "symbol",
              "type": "string"
            },
            {
              "internalType": "string",
              "name": "contractURI",
              "type": "string"
            },
            {
              "internalType": "uint256",
              "name": "baseURICount",
              "type": "uint256"
            },
            {
              "internalType": "uint256",
              "name": "userBalance",
              "type": "uint256"
            },
            {
              "internalType": "uint256",
              "name": "blockTimeStamp",
              "type": "uint256"
            },
            {
              "components": [
                {
                  "internalType": "address",
                  "name": "recipient",
                  "type": "address"
                },
                {
                  "internalType": "uint256",
                  "name": "bps",
                  "type": "uint256"
                }
              ],
              "internalType": "struct DropERC721Reader.FeeData",
              "name": "defaultRoyaltyInfo",
              "type": "tuple"
            },
            {
              "components": [
                {
                  "internalType": "address",
                  "name": "recipient",
                  "type": "address"
                },
                {
                  "internalType": "uint256",
                  "name": "bps",
                  "type": "uint256"
                }
              ],
              "internalType": "struct DropERC721Reader.FeeData",
              "name": "platformFeeInfo",
              "type": "tuple"
            }
          ],
          "internalType": "struct DropERC721Reader.GlobalData",
          "name": "globalData",
          "type": "tuple"
        }
      ],
      "stateMutability": "view",
      "type": "function"
    },
    {
      "inputs": [
        {
          "internalType": "address",
          "name": "_native1",
          "type": "address"
        },
        {
          "internalType": "address",
          "name": "_native2",
          "type": "address"
        },
        {
          "internalType": "address",
          "name": "initialOwner",
          "type": "address"
        }
      ],
      "name": "initialize",
      "outputs": [],
      "stateMutability": "nonpayable",
      "type": "function"
    },
    {
      "inputs": [],
      "name": "native1",
      "outputs": [
        {
          "internalType": "address",
          "name": "",
          "type": "address"
        }
      ],
      "stateMutability": "view",
      "type": "function"
    },
    {
      "inputs": [],
      "name": "native2",
      "outputs": [
        {
          "internalType": "address",
          "name": "",
          "type": "address"
        }
      ],
      "stateMutability": "view",
      "type": "function"
    },
    {
      "inputs": [],
      "name": "owner",
      "outputs": [
        {
          "internalType": "address",
          "name": "",
          "type": "address"
        }
      ],
      "stateMutability": "view",
      "type": "function"
    },
    {
      "inputs": [],
      "name": "renounceOwnership",
      "outputs": [],
      "stateMutability": "nonpayable",
      "type": "function"
    },
    {
      "inputs": [
        {
          "internalType": "address",
          "name": "newOwner",
          "type": "address"
        }
      ],
      "name": "transferOwnership",
      "outputs": [],
      "stateMutability": "nonpayable",
      "type": "function"
    }
  ],
  "transactionHash": "0x4bb813b861b4e90fe0fadbf05a335d7a2d88425609e369fc1998d441401e6740",
  "args": [],
  "numDeployments": 1,
  "solcInputHash": "2bdb5d76d23966dfb9b70ec2522d23dc",
  "bytecode": "0x608060405234801561001057600080fd5b506113ab806100206000396000f3fe608060405234801561001057600080fd5b506004361061007d5760003560e01c8063ab8a4bef1161005b578063ab8a4bef146100cd578063bfa81914146100ef578063c0c53b8b14610102578063f2fde38b1461011557600080fd5b8063715018a6146100825780638bdbe5291461008c5780638da5cb5b146100bc575b600080fd5b61008a610128565b005b60655461009f906001600160a01b031681565b6040516001600160a01b0390911681526020015b60405180910390f35b6033546001600160a01b031661009f565b6100e06100db366004610dd5565b61013c565b6040516100b393929190610f62565b60665461009f906001600160a01b031681565b61008a610110366004611039565b610a39565b61008a610123366004611084565b610b8b565b610130610c04565b61013a6000610c5e565b565b60006060610148610d0a565b6000859050600080826001600160a01b031663d637ed596040518163ffffffff1660e01b81526004016040805180830381865afa15801561018d573d6000803e3d6000fd5b505050506040513d601f19601f820116820180604052508101906101b191906110a8565b9150915060008160001461037b57836001600160a01b031663c68907de6040518163ffffffff1660e01b8152600401602060405180830381865afa925050508015610219575060408051601f3d908101601f19168201909252610216918101906110cc565b60015b6102265760009650610229565b96505b8167ffffffffffffffff811115610242576102426110e5565b6040519080825280602002602001820160405280156102c757816020015b6102b460405180610100016040528060008152602001600081526020016000815260200160008152602001600080191681526020016000815260200160006001600160a01b03168152602001606081525090565b8152602001906001900390816102605790505b50955060005b8281101561037957604051631be24d3d60e21b8152600481018290526000906001600160a01b03871690636f8934f490602401600060405180830381865afa15801561031d573d6000803e3d6000fd5b505050506040513d6000823e601f3d908101601f1916820160405261034591908101906111bd565b90508088838151811061035a5761035a611278565b60200260200101819052505080806103719061128e565b9150506102cd565b505b610383610d0a565b82156105375760405163ad1eefc560e01b8152600481018990526001600160a01b038a8116602483015286169063ad1eefc590604401602060405180830381865afa1580156103d6573d6000803e3d6000fd5b505050506040513d601f19601f820116820180604052508101906103fa91906110cc565b604051631be24d3d60e21b8152600481018a90529092506000906001600160a01b03871690636f8934f490602401600060405180830381865afa158015610445573d6000803e3d6000fd5b505050506040513d6000823e601f3d908101601f1916820160405261046d91908101906111bd565b60655460c08201519192506001600160a01b03918216911614806104a3575060665460c08201516001600160a01b039081169116145b156104be576001600160a01b038a1631610140830152610535565b60c08101516040516370a0823160e01b81526001600160a01b038c81166004830152909116906370a0823190602401602060405180830381865afa15801561050a573d6000803e3d6000fd5b505050506040513d601f19601f8201168201806040525081019061052e91906110cc565b6101408301525b505b846001600160a01b031663a2309ff86040518163ffffffff1660e01b8152600401602060405180830381865afa158015610575573d6000803e3d6000fd5b505050506040513d601f19601f8201168201806040525081019061059991906110cc565b81526020808201839052604080516318160ddd60e01b815290516001600160a01b038816926318160ddd92600480820193918290030181865afa1580156105e4573d6000803e3d6000fd5b505050506040513d601f19601f8201168201806040525081019061060891906110cc565b816040018181525050846001600160a01b0316632ab4d0526040518163ffffffff1660e01b8152600401602060405180830381865afa15801561064f573d6000803e3d6000fd5b505050506040513d601f19601f8201168201806040525081019061067391906110cc565b816060018181525050846001600160a01b0316633b1475a76040518163ffffffff1660e01b8152600401602060405180830381865afa1580156106ba573d6000803e3d6000fd5b505050506040513d601f19601f820116820180604052508101906106de91906110cc565b816080018181525050846001600160a01b031663acd083f86040518163ffffffff1660e01b8152600401602060405180830381865afa158015610725573d6000803e3d6000fd5b505050506040513d601f19601f8201168201806040525081019061074991906110cc565b8160a0018181525050846001600160a01b03166306fdde036040518163ffffffff1660e01b8152600401600060405180830381865afa158015610790573d6000803e3d6000fd5b505050506040513d6000823e601f3d908101601f191682016040526107b891908101906112b7565b8160c00181905250846001600160a01b03166395d89b416040518163ffffffff1660e01b8152600401600060405180830381865afa1580156107fe573d6000803e3d6000fd5b505050506040513d6000823e601f3d908101601f1916820160405261082691908101906112b7565b8160e00181905250846001600160a01b031663e8a3d4856040518163ffffffff1660e01b8152600401600060405180830381865afa15801561086c573d6000803e3d6000fd5b505050506040513d6000823e601f3d908101601f1916820160405261089491908101906112b7565b816101000181905250846001600160a01b03166363b45e2d6040518163ffffffff1660e01b8152600401602060405180830381865afa1580156108db573d6000803e3d6000fd5b505050506040513d601f19601f820116820180604052508101906108ff91906110cc565b610120820152426101608201526040805163b24f2d3960e01b8152815160009283926001600160a01b038a169263b24f2d39926004808401939192918290030181865afa158015610954573d6000803e3d6000fd5b505050506040513d601f19601f8201168201806040525081019061097891906112f4565b610180850180516001600160a01b03808516909152905161ffff831660209091015260408051636a2ab9fb60e11b815281519496509294506000938493928c169263d45573f69260048083019391928290030181865afa1580156109e0573d6000803e3d6000fd5b505050506040513d601f19601f82011682018060405250810190610a0491906112f4565b6101a0870180516001600160a01b03909316909252905161ffff90911660209091015250929750505050505050509250925092565b600054610100900460ff1615808015610a595750600054600160ff909116105b80610a735750303b158015610a73575060005460ff166001145b610adb5760405162461bcd60e51b815260206004820152602e60248201527f496e697469616c697a61626c653a20636f6e747261637420697320616c72656160448201526d191e481a5b9a5d1a585b1a5e995960921b60648201526084015b60405180910390fd5b6000805460ff191660011790558015610afe576000805461ff0019166101001790555b610b06610cb0565b606580546001600160a01b038087166001600160a01b0319928316179092556066805492861692909116919091179055610b3f82610c5e565b8015610b85576000805461ff0019169055604051600181527f7f26b83ff96e1f2b6a682f133852f6798a09c465da95921460cefb38474024989060200160405180910390a15b50505050565b610b93610c04565b6001600160a01b038116610bf85760405162461bcd60e51b815260206004820152602660248201527f4f776e61626c653a206e6577206f776e657220697320746865207a65726f206160448201526564647265737360d01b6064820152608401610ad2565b610c0181610c5e565b50565b6033546001600160a01b0316331461013a5760405162461bcd60e51b815260206004820181905260248201527f4f776e61626c653a2063616c6c6572206973206e6f7420746865206f776e65726044820152606401610ad2565b603380546001600160a01b038381166001600160a01b0319831681179093556040519116919082907f8be0079c531659141344cd1fd0a4f28419497f9722a3daafe3b4186f6b6457e090600090a35050565b600054610100900460ff16610cd75760405162461bcd60e51b8152600401610ad29061132a565b61013a600054610100900460ff16610d015760405162461bcd60e51b8152600401610ad29061132a565b61013a33610c5e565b604051806101c00160405280600081526020016000815260200160008152602001600081526020016000815260200160008152602001606081526020016060815260200160608152602001600081526020016000815260200160008152602001610d90604051806040016040528060006001600160a01b03168152602001600081525090565b8152602001610dbb604051806040016040528060006001600160a01b03168152602001600081525090565b905290565b6001600160a01b0381168114610c0157600080fd5b60008060408385031215610de857600080fd5b8235610df381610dc0565b91506020830135610e0381610dc0565b809150509250929050565b60005b83811015610e29578181015183820152602001610e11565b83811115610b855750506000910152565b60008151808452610e52816020860160208601610e0e565b601f01601f19169290920160200192915050565b6000610200825184526020830151602085015260408301516040850152606083015160608501526080830151608085015260a083015160a085015260c08301518160c0860152610eb882860182610e3a565b91505060e083015184820360e0860152610ed28282610e3a565b9150506101008084015185830382870152610eed8382610e3a565b6101208681015190880152610140808701519088015261016080870151908801526101808087015180516001600160a01b0316828a015260208101516101a08a01529194509250905050506101a083015180516001600160a01b03166101c086015260208101516101e0860152509392505050565b6000606080830186845260208281860152818751808452608093508387019150838160051b880101838a0160005b8381101561101657898303607f190185528151805184528681015187850152604080820151908501528881015189850152878101518885015260a0808201519085015260c0808201516001600160a01b03169085015260e0908101516101009185018290529061100281860183610e3a565b968801969450505090850190600101610f90565b5050878103604089015261102a818a610e66565b9b9a5050505050505050505050565b60008060006060848603121561104e57600080fd5b833561105981610dc0565b9250602084013561106981610dc0565b9150604084013561107981610dc0565b809150509250925092565b60006020828403121561109657600080fd5b81356110a181610dc0565b9392505050565b600080604083850312156110bb57600080fd5b505080516020909101519092909150565b6000602082840312156110de57600080fd5b5051919050565b634e487b7160e01b600052604160045260246000fd5b604051610100810167ffffffffffffffff8111828210171561111f5761111f6110e5565b60405290565b805161113081610dc0565b919050565b600082601f83011261114657600080fd5b815167ffffffffffffffff80821115611161576111616110e5565b604051601f8301601f19908116603f01168101908282118183101715611189576111896110e5565b816040528381528660208588010111156111a257600080fd5b6111b3846020830160208901610e0e565b9695505050505050565b6000602082840312156111cf57600080fd5b815167ffffffffffffffff808211156111e757600080fd5b9083019061010082860312156111fc57600080fd5b6112046110fb565b825181526020830151602082015260408301516040820152606083015160608201526080830151608082015260a083015160a082015261124660c08401611125565b60c082015260e08301518281111561125d57600080fd5b61126987828601611135565b60e08301525095945050505050565b634e487b7160e01b600052603260045260246000fd5b60006000198214156112b057634e487b7160e01b600052601160045260246000fd5b5060010190565b6000602082840312156112c957600080fd5b815167ffffffffffffffff8111156112e057600080fd5b6112ec84828501611135565b949350505050565b6000806040838503121561130757600080fd5b825161131281610dc0565b602084015190925061ffff81168114610e0357600080fd5b6020808252602b908201527f496e697469616c697a61626c653a20636f6e7472616374206973206e6f74206960408201526a6e697469616c697a696e6760a81b60608201526080019056fea264697066735822122048f2fd891b67b5dd9732620b3ee6ad1d948303d9f77c146f67997f293b5cd85564736f6c634300080c0033",
  "devdoc": {
    "kind": "dev",
    "methods": {
      "owner()": {
        "details": "Returns the address of the current owner."
      },
      "renounceOwnership()": {
        "details": "Leaves the contract without owner. It will not be possible to call `onlyOwner` functions anymore. Can only be called by the current owner. NOTE: Renouncing ownership will leave the contract without an owner, thereby removing any functionality that is only available to the owner."
      },
      "transferOwnership(address)": {
        "details": "Transfers ownership of the contract to a new account (`newOwner`). Can only be called by the current owner."
      }
    },
    "version": 1
  },
  "userdoc": {
    "kind": "user",
    "methods": {},
    "version": 1
  },
  "storageLayout": {
    "storage": [
      {
        "astId": 138,
        "contract": "contracts/drop-reader/DropERC721Reader.sol:DropERC721Reader",
        "label": "_initialized",
        "offset": 0,
        "slot": "0",
        "type": "t_uint8"
      },
      {
        "astId": 141,
        "contract": "contracts/drop-reader/DropERC721Reader.sol:DropERC721Reader",
        "label": "_initializing",
        "offset": 1,
        "slot": "0",
        "type": "t_bool"
      },
      {
        "astId": 566,
        "contract": "contracts/drop-reader/DropERC721Reader.sol:DropERC721Reader",
        "label": "__gap",
        "offset": 0,
        "slot": "1",
        "type": "t_array(t_uint256)50_storage"
      },
      {
        "astId": 10,
        "contract": "contracts/drop-reader/DropERC721Reader.sol:DropERC721Reader",
        "label": "_owner",
        "offset": 0,
        "slot": "51",
        "type": "t_address"
      },
      {
        "astId": 130,
        "contract": "contracts/drop-reader/DropERC721Reader.sol:DropERC721Reader",
        "label": "__gap",
        "offset": 0,
        "slot": "52",
        "type": "t_array(t_uint256)49_storage"
      },
      {
        "astId": 685,
        "contract": "contracts/drop-reader/DropERC721Reader.sol:DropERC721Reader",
        "label": "native1",
        "offset": 0,
        "slot": "101",
        "type": "t_address"
      },
      {
        "astId": 687,
        "contract": "contracts/drop-reader/DropERC721Reader.sol:DropERC721Reader",
        "label": "native2",
        "offset": 0,
        "slot": "102",
        "type": "t_address"
      }
    ],
    "types": {
      "t_address": {
        "encoding": "inplace",
        "label": "address",
        "numberOfBytes": "20"
      },
      "t_array(t_uint256)49_storage": {
        "base": "t_uint256",
        "encoding": "inplace",
        "label": "uint256[49]",
        "numberOfBytes": "1568"
      },
      "t_array(t_uint256)50_storage": {
        "base": "t_uint256",
        "encoding": "inplace",
        "label": "uint256[50]",
        "numberOfBytes": "1600"
      },
      "t_bool": {
        "encoding": "inplace",
        "label": "bool",
        "numberOfBytes": "1"
      },
      "t_uint256": {
        "encoding": "inplace",
        "label": "uint256",
        "numberOfBytes": "32"
      },
      "t_uint8": {
        "encoding": "inplace",
        "label": "uint8",
        "numberOfBytes": "1"
      }
    }
  }
}