{
  "address": "0x0aB946e69eb86fF3A1c7225572268Bb0B3281475",
  "abi": [
    {
      "anonymous": false,
      "inputs": [
        {
          "indexed": false,
          "internalType": "uint8",
          "name": "version",
          "type": "uint8"
        }
      ],
      "name": "Initialized",
      "type": "event"
    },
    {
      "anonymous": false,
      "inputs": [
        {
          "indexed": true,
          "internalType": "address",
          "name": "previousOwner",
          "type": "address"
        },
        {
          "indexed": true,
          "internalType": "address",
          "name": "newOwner",
          "type": "address"
        }
      ],
      "name": "OwnershipTransferred",
      "type": "event"
    },
    {
      "inputs": [
        {
          "internalType": "address",
          "name": "_dropERC721",
          "type": "address"
        },
        {
          "internalType": "address",
          "name": "_claimer",
          "type": "address"
        }
      ],
      "name": "getAllData",
      "outputs": [
        {
          "internalType": "uint256",
          "name": "activeClaimConditionIndex",
          "type": "uint256"
        },
        {
          "components": [
            {
              "internalType": "uint256",
              "name": "startTimestamp",
              "type": "uint256"
            },
            {
              "internalType": "uint256",
              "name": "maxClaimableSupply",
              "type": "uint256"
            },
            {
              "internalType": "uint256",
              "name": "supplyClaimed",
              "type": "uint256"
            },
            {
              "internalType": "uint256",
              "name": "quantityLimitPerWallet",
              "type": "uint256"
            },
            {
              "internalType": "bytes32",
              "name": "merkleRoot",
              "type": "bytes32"
            },
            {
              "internalType": "uint256",
              "name": "pricePerToken",
              "type": "uint256"
            },
            {
              "internalType": "address",
              "name": "currency",
              "type": "address"
            },
            {
              "internalType": "string",
              "name": "metadata",
              "type": "string"
            }
          ],
          "internalType": "struct IDropERC721.ClaimCondition[]",
          "name": "conditions",
          "type": "tuple[]"
        },
        {
          "components": [
            {
              "internalType": "uint256",
              "name": "totalMinted",
              "type": "uint256"
            },
            {
              "internalType": "uint256",
              "name": "claimedByUser",
              "type": "uint256"
            },
            {
              "internalType": "uint256",
              "name": "totalSupply",
              "type": "uint256"
            },
            {
              "internalType": "uint256",
              "name": "maxTotalSupply",
              "type": "uint256"
            },
            {
              "internalType": "uint256",
              "name": "nextTokenIdToMint",
              "type": "uint256"
            },
            {
              "internalType": "uint256",
              "name": "nextTokenIdToClaim",
              "type": "uint256"
            },
            {
              "internalType": "string",
              "name": "name",
              "type": "string"
            },
            {
              "internalType": "string",
              "name": "symbol",
              "type": "string"
            },
            {
              "internalType": "string",
              "name": "contractURI",
              "type": "string"
            },
            {
              "internalType": "uint256",
              "name": "baseURICount",
              "type": "uint256"
            },
            {
              "internalType": "uint256",
              "name": "userBalance",
              "type": "uint256"
            },
            {
              "internalType": "uint256",
              "name": "blockTimeStamp",
              "type": "uint256"
            },
            {
              "components": [
                {
                  "internalType": "address",
                  "name": "recipient",
                  "type": "address"
                },
                {
                  "internalType": "uint256",
                  "name": "value",
                  "type": "uint256"
                },
                {
                  "internalType": "enum DropERC721Reader.FeeType",
                  "name": "feeType",
                  "type": "uint8"
                }
              ],
              "internalType": "struct DropERC721Reader.FeeData",
              "name": "defaultRoyaltyInfo",
              "type": "tuple"
            },
            {
              "components": [
                {
                  "internalType": "address",
                  "name": "recipient",
                  "type": "address"
                },
                {
                  "internalType": "uint256",
                  "name": "value",
                  "type": "uint256"
                },
                {
                  "internalType": "enum DropERC721Reader.FeeType",
                  "name": "feeType",
                  "type": "uint8"
                }
              ],
              "internalType": "struct DropERC721Reader.FeeData",
              "name": "platformFeeInfo",
              "type": "tuple"
            }
          ],
          "internalType": "struct DropERC721Reader.GlobalData",
          "name": "globalData",
          "type": "tuple"
        }
      ],
      "stateMutability": "view",
      "type": "function"
    },
    {
      "inputs": [
        {
          "internalType": "address",
          "name": "_native1",
          "type": "address"
        },
        {
          "internalType": "address",
          "name": "_native2",
          "type": "address"
        },
        {
          "internalType": "address",
          "name": "initialOwner",
          "type": "address"
        }
      ],
      "name": "initialize",
      "outputs": [],
      "stateMutability": "nonpayable",
      "type": "function"
    },
    {
      "inputs": [],
      "name": "native1",
      "outputs": [
        {
          "internalType": "address",
          "name": "",
          "type": "address"
        }
      ],
      "stateMutability": "view",
      "type": "function"
    },
    {
      "inputs": [],
      "name": "native2",
      "outputs": [
        {
          "internalType": "address",
          "name": "",
          "type": "address"
        }
      ],
      "stateMutability": "view",
      "type": "function"
    },
    {
      "inputs": [],
      "name": "owner",
      "outputs": [
        {
          "internalType": "address",
          "name": "",
          "type": "address"
        }
      ],
      "stateMutability": "view",
      "type": "function"
    },
    {
      "inputs": [],
      "name": "renounceOwnership",
      "outputs": [],
      "stateMutability": "nonpayable",
      "type": "function"
    },
    {
      "inputs": [
        {
          "internalType": "address",
          "name": "newOwner",
          "type": "address"
        }
      ],
      "name": "transferOwnership",
      "outputs": [],
      "stateMutability": "nonpayable",
      "type": "function"
    }
  ],
  "transactionHash": "0x09c079881eb11dbd88df6ea2e490b2e6c5e7547903fc14b0376d176315f98c95",
  "args": [],
  "numDeployments": 4,
  "solcInputHash": "e91e428fad7f11da8f23baddfcf53d1d",
  "bytecode": "0x608060405234801561001057600080fd5b50611566806100206000396000f3fe608060405234801561001057600080fd5b506004361061007d5760003560e01c8063ab8a4bef1161005b578063ab8a4bef146100cd578063bfa81914146100ef578063c0c53b8b14610102578063f2fde38b1461011557600080fd5b8063715018a6146100825780638bdbe5291461008c5780638da5cb5b146100bc575b600080fd5b61008a610128565b005b60655461009f906001600160a01b031681565b6040516001600160a01b0390911681526020015b60405180910390f35b6033546001600160a01b031661009f565b6100e06100db366004610f02565b61013c565b6040516100b3939291906110ce565b60665461009f906001600160a01b031681565b61008a6101103660046111a5565b610b70565b61008a6101233660046111f0565b610cc2565b610130610d3b565b61013a6000610d95565b565b60006060610148610e41565b6000859050600080826001600160a01b031663d637ed596040518163ffffffff1660e01b81526004016040805180830381865afa15801561018d573d6000803e3d6000fd5b505050506040513d601f19601f820116820180604052508101906101b19190611214565b9150915060008160001461037b57836001600160a01b031663c68907de6040518163ffffffff1660e01b8152600401602060405180830381865afa925050508015610219575060408051601f3d908101601f1916820190925261021691810190611238565b60015b6102265760009650610229565b96505b8167ffffffffffffffff81111561024257610242611251565b6040519080825280602002602001820160405280156102c757816020015b6102b460405180610100016040528060008152602001600081526020016000815260200160008152602001600080191681526020016000815260200160006001600160a01b03168152602001606081525090565b8152602001906001900390816102605790505b50955060005b8281101561037957604051631be24d3d60e21b8152600481018290526000906001600160a01b03871690636f8934f490602401600060405180830381865afa15801561031d573d6000803e3d6000fd5b505050506040513d6000823e601f3d908101601f191682016040526103459190810190611329565b90508088838151811061035a5761035a6113e4565b6020026020010181905250508080610371906113fa565b9150506102cd565b505b610383610e41565b82156105375760405163ad1eefc560e01b8152600481018990526001600160a01b038a8116602483015286169063ad1eefc590604401602060405180830381865afa1580156103d6573d6000803e3d6000fd5b505050506040513d601f19601f820116820180604052508101906103fa9190611238565b604051631be24d3d60e21b8152600481018a90529092506000906001600160a01b03871690636f8934f490602401600060405180830381865afa158015610445573d6000803e3d6000fd5b505050506040513d6000823e601f3d908101601f1916820160405261046d9190810190611329565b60655460c08201519192506001600160a01b03918216911614806104a3575060665460c08201516001600160a01b039081169116145b156104be576001600160a01b038a1631610140830152610535565b60c08101516040516370a0823160e01b81526001600160a01b038c81166004830152909116906370a0823190602401602060405180830381865afa15801561050a573d6000803e3d6000fd5b505050506040513d601f19601f8201168201806040525081019061052e9190611238565b6101408301525b505b846001600160a01b031663a2309ff86040518163ffffffff1660e01b8152600401602060405180830381865afa158015610575573d6000803e3d6000fd5b505050506040513d601f19601f820116820180604052508101906105999190611238565b81526020808201839052604080516318160ddd60e01b815290516001600160a01b038816926318160ddd92600480820193918290030181865afa1580156105e4573d6000803e3d6000fd5b505050506040513d601f19601f820116820180604052508101906106089190611238565b816040018181525050846001600160a01b0316632ab4d0526040518163ffffffff1660e01b8152600401602060405180830381865afa92505050801561066b575060408051601f3d908101601f1916820190925261066891810190611238565b60015b61067b5760006060820152610681565b60608201525b846001600160a01b0316633b1475a76040518163ffffffff1660e01b8152600401602060405180830381865afa1580156106bf573d6000803e3d6000fd5b505050506040513d601f19601f820116820180604052508101906106e39190611238565b816080018181525050846001600160a01b031663acd083f86040518163ffffffff1660e01b8152600401602060405180830381865afa15801561072a573d6000803e3d6000fd5b505050506040513d601f19601f8201168201806040525081019061074e9190611238565b8160a0018181525050846001600160a01b03166306fdde036040518163ffffffff1660e01b8152600401600060405180830381865afa158015610795573d6000803e3d6000fd5b505050506040513d6000823e601f3d908101601f191682016040526107bd9190810190611423565b8160c00181905250846001600160a01b03166395d89b416040518163ffffffff1660e01b8152600401600060405180830381865afa158015610803573d6000803e3d6000fd5b505050506040513d6000823e601f3d908101601f1916820160405261082b9190810190611423565b8160e00181905250846001600160a01b031663e8a3d4856040518163ffffffff1660e01b8152600401600060405180830381865afa158015610871573d6000803e3d6000fd5b505050506040513d6000823e601f3d908101601f191682016040526108999190810190611423565b816101000181905250846001600160a01b03166363b45e2d6040518163ffffffff1660e01b8152600401602060405180830381865afa9250505080156108fc575060408051601f3d908101601f191682019092526108f991810190611238565b60015b61090d576000610120820152610914565b6101208201525b4281610160018181525050600080866001600160a01b031663b24f2d396040518163ffffffff1660e01b81526004016040805180830381865afa15801561095f573d6000803e3d6000fd5b505050506040513d601f19601f820116820180604052508101906109839190611460565b610180850180516001600160a01b0384169052805161ffff831660209091015251919350915060009060400181815250506000876001600160a01b031663f28083c36040518163ffffffff1660e01b8152600401602060405180830381865afa925050508015610a10575060408051601f3d908101601f19168201909252610a0d91810190611496565b60015b610a1c57506000610a1f565b90505b6001816001811115610a3357610a33610f93565b1415610aca57600080896001600160a01b031663e57553da6040518163ffffffff1660e01b81526004016040805180830381865afa158015610a79573d6000803e3d6000fd5b505050506040513d601f19601f82011682018060405250810190610a9d91906114b7565b6101a0880180516001600160a01b039390931690925281516020015251600160409091015250610b5f9050565b600080896001600160a01b031663d45573f66040518163ffffffff1660e01b81526004016040805180830381865afa158015610b0a573d6000803e3d6000fd5b505050506040513d601f19601f82011682018060405250810190610b2e9190611460565b6101a0880180516001600160a01b0393909316909252815161ffff9190911660209091015251600060409091015250505b509196505050505050509250925092565b600054610100900460ff1615808015610b905750600054600160ff909116105b80610baa5750303b158015610baa575060005460ff166001145b610c125760405162461bcd60e51b815260206004820152602e60248201527f496e697469616c697a61626c653a20636f6e747261637420697320616c72656160448201526d191e481a5b9a5d1a585b1a5e995960921b60648201526084015b60405180910390fd5b6000805460ff191660011790558015610c35576000805461ff0019166101001790555b610c3d610de7565b606580546001600160a01b038087166001600160a01b0319928316179092556066805492861692909116919091179055610c7682610d95565b8015610cbc576000805461ff0019169055604051600181527f7f26b83ff96e1f2b6a682f133852f6798a09c465da95921460cefb38474024989060200160405180910390a15b50505050565b610cca610d3b565b6001600160a01b038116610d2f5760405162461bcd60e51b815260206004820152602660248201527f4f776e61626c653a206e6577206f776e657220697320746865207a65726f206160448201526564647265737360d01b6064820152608401610c09565b610d3881610d95565b50565b6033546001600160a01b0316331461013a5760405162461bcd60e51b815260206004820181905260248201527f4f776e61626c653a2063616c6c6572206973206e6f7420746865206f776e65726044820152606401610c09565b603380546001600160a01b038381166001600160a01b0319831681179093556040519116919082907f8be0079c531659141344cd1fd0a4f28419497f9722a3daafe3b4186f6b6457e090600090a35050565b600054610100900460ff16610e0e5760405162461bcd60e51b8152600401610c09906114e5565b61013a600054610100900460ff16610e385760405162461bcd60e51b8152600401610c09906114e5565b61013a33610d95565b604051806101c00160405280600081526020016000815260200160008152602001600081526020016000815260200160008152602001606081526020016060815260200160608152602001600081526020016000815260200160008152602001610ec260408051606081018252600080825260208201819052909182015290565b8152602001610ee860408051606081018252600080825260208201819052909182015290565b905290565b6001600160a01b0381168114610d3857600080fd5b60008060408385031215610f1557600080fd5b8235610f2081610eed565b91506020830135610f3081610eed565b809150509250929050565b60005b83811015610f56578181015183820152602001610f3e565b83811115610cbc5750506000910152565b60008151808452610f7f816020860160208601610f3b565b601f01601f19169290920160200192915050565b634e487b7160e01b600052602160045260246000fd5b80516001600160a01b0316825260208082015190830152604081015160028110610fe357634e487b7160e01b600052602160045260246000fd5b806040840152505050565b6000610240825184526020830151602085015260408301516040850152606083015160608501526080830151608085015260a083015160a085015260c08301518160c086015261104082860182610f67565b91505060e083015184820360e086015261105a8282610f67565b91505061010080840151858303828701526110758382610f67565b92505050610120808401518186015250610140808401518186015250610160808401518186015250610180808401516110b082870182610fa9565b50506101a08301516110c66101e0860182610fa9565b509392505050565b6000606080830186845260208281860152818751808452608093508387019150838160051b880101838a0160005b8381101561118257898303607f190185528151805184528681015187850152604080820151908501528881015189850152878101518885015260a0808201519085015260c0808201516001600160a01b03169085015260e0908101516101009185018290529061116e81860183610f67565b9688019694505050908501906001016110fc565b50508781036040890152611196818a610fee565b9b9a5050505050505050505050565b6000806000606084860312156111ba57600080fd5b83356111c581610eed565b925060208401356111d581610eed565b915060408401356111e581610eed565b809150509250925092565b60006020828403121561120257600080fd5b813561120d81610eed565b9392505050565b6000806040838503121561122757600080fd5b505080516020909101519092909150565b60006020828403121561124a57600080fd5b5051919050565b634e487b7160e01b600052604160045260246000fd5b604051610100810167ffffffffffffffff8111828210171561128b5761128b611251565b60405290565b805161129c81610eed565b919050565b600082601f8301126112b257600080fd5b815167ffffffffffffffff808211156112cd576112cd611251565b604051601f8301601f19908116603f011681019082821181831017156112f5576112f5611251565b8160405283815286602085880101111561130e57600080fd5b61131f846020830160208901610f3b565b9695505050505050565b60006020828403121561133b57600080fd5b815167ffffffffffffffff8082111561135357600080fd5b90830190610100828603121561136857600080fd5b611370611267565b825181526020830151602082015260408301516040820152606083015160608201526080830151608082015260a083015160a08201526113b260c08401611291565b60c082015260e0830151828111156113c957600080fd5b6113d5878286016112a1565b60e08301525095945050505050565b634e487b7160e01b600052603260045260246000fd5b600060001982141561141c57634e487b7160e01b600052601160045260246000fd5b5060010190565b60006020828403121561143557600080fd5b815167ffffffffffffffff81111561144c57600080fd5b611458848285016112a1565b949350505050565b6000806040838503121561147357600080fd5b825161147e81610eed565b602084015190925061ffff81168114610f3057600080fd5b6000602082840312156114a857600080fd5b81516002811061120d57600080fd5b600080604083850312156114ca57600080fd5b82516114d581610eed565b6020939093015192949293505050565b6020808252602b908201527f496e697469616c697a61626c653a20636f6e7472616374206973206e6f74206960408201526a6e697469616c697a696e6760a81b60608201526080019056fea2646970667358221220baf1a28dbc8835916a123c5acd33cdba3b66e67ce684e05283155d8de27348da64736f6c634300080c0033",
  "devdoc": {
    "kind": "dev",
    "methods": {
      "owner()": {
        "details": "Returns the address of the current owner."
      },
      "renounceOwnership()": {
        "details": "Leaves the contract without owner. It will not be possible to call `onlyOwner` functions anymore. Can only be called by the current owner. NOTE: Renouncing ownership will leave the contract without an owner, thereby removing any functionality that is only available to the owner."
      },
      "transferOwnership(address)": {
        "details": "Transfers ownership of the contract to a new account (`newOwner`). Can only be called by the current owner."
      }
    },
    "version": 1
  },
  "userdoc": {
    "kind": "user",
    "methods": {},
    "version": 1
  },
  "storageLayout": {
    "storage": [
      {
        "astId": 138,
        "contract": "contracts/drop-reader/DropERC721Reader.sol:DropERC721Reader",
        "label": "_initialized",
        "offset": 0,
        "slot": "0",
        "type": "t_uint8"
      },
      {
        "astId": 141,
        "contract": "contracts/drop-reader/DropERC721Reader.sol:DropERC721Reader",
        "label": "_initializing",
        "offset": 1,
        "slot": "0",
        "type": "t_bool"
      },
      {
        "astId": 566,
        "contract": "contracts/drop-reader/DropERC721Reader.sol:DropERC721Reader",
        "label": "__gap",
        "offset": 0,
        "slot": "1",
        "type": "t_array(t_uint256)50_storage"
      },
      {
        "astId": 10,
        "contract": "contracts/drop-reader/DropERC721Reader.sol:DropERC721Reader",
        "label": "_owner",
        "offset": 0,
        "slot": "51",
        "type": "t_address"
      },
      {
        "astId": 130,
        "contract": "contracts/drop-reader/DropERC721Reader.sol:DropERC721Reader",
        "label": "__gap",
        "offset": 0,
        "slot": "52",
        "type": "t_array(t_uint256)49_storage"
      },
      {
        "astId": 691,
        "contract": "contracts/drop-reader/DropERC721Reader.sol:DropERC721Reader",
        "label": "native1",
        "offset": 0,
        "slot": "101",
        "type": "t_address"
      },
      {
        "astId": 693,
        "contract": "contracts/drop-reader/DropERC721Reader.sol:DropERC721Reader",
        "label": "native2",
        "offset": 0,
        "slot": "102",
        "type": "t_address"
      }
    ],
    "types": {
      "t_address": {
        "encoding": "inplace",
        "label": "address",
        "numberOfBytes": "20"
      },
      "t_array(t_uint256)49_storage": {
        "base": "t_uint256",
        "encoding": "inplace",
        "label": "uint256[49]",
        "numberOfBytes": "1568"
      },
      "t_array(t_uint256)50_storage": {
        "base": "t_uint256",
        "encoding": "inplace",
        "label": "uint256[50]",
        "numberOfBytes": "1600"
      },
      "t_bool": {
        "encoding": "inplace",
        "label": "bool",
        "numberOfBytes": "1"
      },
      "t_uint256": {
        "encoding": "inplace",
        "label": "uint256",
        "numberOfBytes": "32"
      },
      "t_uint8": {
        "encoding": "inplace",
        "label": "uint8",
        "numberOfBytes": "1"
      }
    }
  }
}