{
  "address": "0x1DbbA5603F80e951314D2d0549cbbAa9D781DbE6",
  "abi": [
    {
      "inputs": [],
      "name": "ProxyDeploymentFailed",
      "type": "error"
    },
    {
      "anonymous": false,
      "inputs": [
        {
          "indexed": true,
          "internalType": "address",
          "name": "implementation",
          "type": "address"
        },
        {
          "indexed": false,
          "internalType": "address",
          "name": "proxy",
          "type": "address"
        },
        {
          "indexed": true,
          "internalType": "address",
          "name": "deployer",
          "type": "address"
        }
      ],
      "name": "ProxyDeployed",
      "type": "event"
    },
    {
      "anonymous": false,
      "inputs": [
        {
          "indexed": true,
          "internalType": "address",
          "name": "implementation",
          "type": "address"
        },
        {
          "indexed": true,
          "internalType": "address",
          "name": "proxy",
          "type": "address"
        },
        {
          "indexed": true,
          "internalType": "address",
          "name": "deployer",
          "type": "address"
        },
        {
          "indexed": false,
          "internalType": "bytes32",
          "name": "inputSalt",
          "type": "bytes32"
        },
        {
          "indexed": false,
          "internalType": "bytes",
          "name": "data",
          "type": "bytes"
        },
        {
          "indexed": false,
          "internalType": "bytes",
          "name": "extraData",
          "type": "bytes"
        }
      ],
      "name": "ProxyDeployedV2",
      "type": "event"
    },
    {
      "inputs": [
        {
          "internalType": "address",
          "name": "_implementation",
          "type": "address"
        },
        {
          "internalType": "bytes",
          "name": "_data",
          "type": "bytes"
        },
        {
          "internalType": "bytes32",
          "name": "_salt",
          "type": "bytes32"
        }
      ],
      "name": "deployProxyByImplementation",
      "outputs": [
        {
          "internalType": "address",
          "name": "deployedProxy",
          "type": "address"
        }
      ],
      "stateMutability": "nonpayable",
      "type": "function"
    },
    {
      "inputs": [
        {
          "internalType": "address",
          "name": "implementation",
          "type": "address"
        },
        {
          "internalType": "bytes",
          "name": "data",
          "type": "bytes"
        },
        {
          "internalType": "bytes32",
          "name": "salt",
          "type": "bytes32"
        },
        {
          "internalType": "bytes",
          "name": "extraData",
          "type": "bytes"
        }
      ],
      "name": "deployProxyByImplementationV2",
      "outputs": [
        {
          "internalType": "address",
          "name": "deployedProxy",
          "type": "address"
        }
      ],
      "stateMutability": "nonpayable",
      "type": "function"
    }
  ],
  "transactionHash": "0xac6f998dc612dc8fb23a5d6598d4587fe9006db9d456eb1c5d06a537e8e2bdea",
  "args": [],
  "numDeployments": 2,
  "solcInputHash": "e772d9969b7f3b2e703f750ffa669962",
  "bytecode": "0x608060405234801561001057600080fd5b506106d7806100206000396000f3fe608060405234801561001057600080fd5b50600436106100365760003560e01c806311b804ab1461003b578063d057c8b114610064575b600080fd5b61004e6100493660046104da565b610077565b60405161005b9190610530565b60405180910390f35b61004e610072366004610544565b61019a565b6040516001600160601b03193360601b1660208201526034810182905260009081906054016040516020818303038152906040528051906020012090506100be858261029e565b9150336001600160a01b0316856001600160a01b03167f9e0862c4ebff2150fbbfd3f8547483f55bdec0c34fd977d3fccaa55d6c4ce784846040516101039190610530565b60405180910390a3835115610192576000826001600160a01b03168560405161012c91906105e5565b6000604051808303816000865af19150503d8060008114610169576040519150601f19603f3d011682016040523d82523d6000602084013e61016e565b606091505b505090508061019057604051631b0a7c4160e31b815260040160405180910390fd5b505b509392505050565b6000806101a784866102b3565b90506101b3868261029e565b9150336001600160a01b0316826001600160a01b0316876001600160a01b03167fce771ab142d4dae572f01bd7e3eb77c8241179ce1a8128451099727badfba64e8789886040516102069392919061062d565b60405180910390a4845115610295576000826001600160a01b03168660405161022f91906105e5565b6000604051808303816000865af19150503d806000811461026c576040519150601f19603f3d011682016040523d82523d6000602084013e610271565b606091505b505090508061029357604051631b0a7c4160e31b815260040160405180910390fd5b505b50949350505050565b60006102ac600084846103c5565b9392505050565b600082811a60f81b600160f81b811615801591600160f91b8116151591600160fa1b909116151590849084906102e65750825b1561031b5786866040516020016102fe929190610658565b604051602081830303815290604052805190602001209050610396565b838015610326575082155b1561033c576040805160208101899052016102fe565b831580156103475750825b15610361578646876040516020016102fe93929190610679565b864660405160200161037d929190918252602082015260400190565b6040516020818303038152906040528051906020012090505b81156103bb576040805160208101839052338183015281518082038301905260600190525b9695505050505050565b60006c5af43d3d93803e602a57fd5bf36021528260145273602c3d8160093d39f33d3d3d3d363d3d37363d73600052816035600c86f59050806104105763301164256000526004601cfd5b60006021529392505050565b80356001600160a01b038116811461043357600080fd5b919050565b634e487b7160e01b600052604160045260246000fd5b600082601f83011261045f57600080fd5b81356001600160401b038082111561047957610479610438565b604051601f8301601f19908116603f011681019082821181831017156104a1576104a1610438565b816040528381528660208588010111156104ba57600080fd5b836020870160208301376000602085830101528094505050505092915050565b6000806000606084860312156104ef57600080fd5b6104f88461041c565b925060208401356001600160401b0381111561051357600080fd5b61051f8682870161044e565b925050604084013590509250925092565b6001600160a01b0391909116815260200190565b6000806000806080858703121561055a57600080fd5b6105638561041c565b935060208501356001600160401b038082111561057f57600080fd5b61058b8883890161044e565b94506040870135935060608701359150808211156105a857600080fd5b506105b58782880161044e565b91505092959194509250565b60005b838110156105dc5781810151838201526020016105c4565b50506000910152565b600082516105f78184602087016105c1565b9190910192915050565b600081518084526106198160208601602086016105c1565b601f01601f19169290920160200192915050565b8381526060602082015260006106466060830185610601565b82810360408401526103bb8185610601565b8281526040602082015260006106716040830184610601565b949350505050565b8381528260208201526060604082015260006106986060830184610601565b9594505050505056fea264697066735822122054737c316e15ca6c1e825eebbd768810a67ab20c326414ffebdc54c286c706c764736f6c63430008170033",
  "devdoc": {
    "events": {
      "ProxyDeployed(address,address,address)": {
        "details": "Emitted when a proxy is deployed."
      },
      "ProxyDeployedV2(address,address,address,bytes32,bytes,bytes)": {
        "details": "Emitted when a proxy is deployed."
      }
    },
    "kind": "dev",
    "methods": {
      "deployProxyByImplementation(address,bytes,bytes32)": {
        "details": "Deploys a proxy that points to the given implementation."
      },
      "deployProxyByImplementationV2(address,bytes,bytes32,bytes)": {
        "details": "Deploys a proxy that points to the given implementation."
      }
    },
    "version": 1
  },
  "userdoc": {
    "events": {
      "ProxyDeployed(address,address,address)": {
        "notice": "Deprecated"
      }
    },
    "kind": "user",
    "methods": {
      "deployProxyByImplementation(address,bytes,bytes32)": {
        "notice": "Deprecated"
      }
    },
    "version": 1
  },
  "storageLayout": {
    "storage": [],
    "types": null
  }
}