{
  "contractName": "AsksCoreEth",
  "abi": [
    {
      "inputs": [
        {
          "internalType": "address",
          "name": "_erc721TransferHelper",
          "type": "address"
        },
        {
          "internalType": "address",
          "name": "_royaltyEngine",
          "type": "address"
        },
        {
          "internalType": "address",
          "name": "_protocolFeeSettings",
          "type": "address"
        },
        {
          "internalType": "address",
          "name": "_weth",
          "type": "address"
        }
      ],
      "stateMutability": "nonpayable",
      "type": "constructor"
    },
    {
      "anonymous": false,
      "inputs": [
        {
          "indexed": true,
          "internalType": "address",
          "name": "tokenContract",
          "type": "address"
        },
        {
          "indexed": true,
          "internalType": "uint256",
          "name": "tokenId",
          "type": "uint256"
        },
        {
          "indexed": false,
          "internalType": "address",
          "name": "seller",
          "type": "address"
        },
        {
          "indexed": false,
          "internalType": "uint256",
          "name": "price",
          "type": "uint256"
        }
      ],
      "name": "AskCanceled",
      "type": "event"
    },
    {
      "anonymous": false,
      "inputs": [
        {
          "indexed": true,
          "internalType": "address",
          "name": "tokenContract",
          "type": "address"
        },
        {
          "indexed": true,
          "internalType": "uint256",
          "name": "tokenId",
          "type": "uint256"
        },
        {
          "indexed": false,
          "internalType": "address",
          "name": "seller",
          "type": "address"
        },
        {
          "indexed": false,
          "internalType": "uint256",
          "name": "price",
          "type": "uint256"
        }
      ],
      "name": "AskCreated",
      "type": "event"
    },
    {
      "anonymous": false,
      "inputs": [
        {
          "indexed": true,
          "internalType": "address",
          "name": "tokenContract",
          "type": "address"
        },
        {
          "indexed": true,
          "internalType": "uint256",
          "name": "tokenId",
          "type": "uint256"
        },
        {
          "indexed": false,
          "internalType": "address",
          "name": "buyer",
          "type": "address"
        },
        {
          "indexed": false,
          "internalType": "address",
          "name": "seller",
          "type": "address"
        },
        {
          "indexed": false,
          "internalType": "uint256",
          "name": "price",
          "type": "uint256"
        }
      ],
      "name": "AskFilled",
      "type": "event"
    },
    {
      "anonymous": false,
      "inputs": [
        {
          "indexed": true,
          "internalType": "address",
          "name": "tokenContract",
          "type": "address"
        },
        {
          "indexed": true,
          "internalType": "uint256",
          "name": "tokenId",
          "type": "uint256"
        },
        {
          "indexed": false,
          "internalType": "address",
          "name": "seller",
          "type": "address"
        },
        {
          "indexed": false,
          "internalType": "uint256",
          "name": "price",
          "type": "uint256"
        }
      ],
      "name": "AskPriceUpdated",
      "type": "event"
    },
    {
      "anonymous": false,
      "inputs": [
        {
          "indexed": true,
          "internalType": "address",
          "name": "tokenContract",
          "type": "address"
        },
        {
          "indexed": true,
          "internalType": "uint256",
          "name": "tokenId",
          "type": "uint256"
        },
        {
          "indexed": false,
          "internalType": "address",
          "name": "recipient",
          "type": "address"
        },
        {
          "indexed": false,
          "internalType": "uint256",
          "name": "amount",
          "type": "uint256"
        }
      ],
      "name": "RoyaltyPayout",
      "type": "event"
    },
    {
      "inputs": [
        {
          "internalType": "address",
          "name": "_tokenContract",
          "type": "address"
        },
        {
          "internalType": "uint256",
          "name": "_tokenId",
          "type": "uint256"
        },
        {
          "internalType": "uint256",
          "name": "_amount",
          "type": "uint256"
        },
        {
          "internalType": "address",
          "name": "_payoutCurrency",
          "type": "address"
        }
      ],
      "name": "_handleRoyaltyEnginePayout",
      "outputs": [
        {
          "internalType": "uint256",
          "name": "",
          "type": "uint256"
        }
      ],
      "stateMutability": "payable",
      "type": "function"
    },
    {
      "inputs": [
        {
          "internalType": "address",
          "name": "",
          "type": "address"
        },
        {
          "internalType": "uint256",
          "name": "",
          "type": "uint256"
        }
      ],
      "name": "askForNFT",
      "outputs": [
        {
          "internalType": "address",
          "name": "seller",
          "type": "address"
        },
        {
          "internalType": "uint96",
          "name": "price",
          "type": "uint96"
        }
      ],
      "stateMutability": "view",
      "type": "function"
    },
    {
      "inputs": [],
      "name": "erc721TransferHelper",
      "outputs": [
        {
          "internalType": "contract ERC721TransferHelper",
          "name": "",
          "type": "address"
        }
      ],
      "stateMutability": "view",
      "type": "function"
    },
    {
      "inputs": [],
      "name": "name",
      "outputs": [
        {
          "internalType": "string",
          "name": "",
          "type": "string"
        }
      ],
      "stateMutability": "view",
      "type": "function"
    },
    {
      "inputs": [],
      "name": "registrar",
      "outputs": [
        {
          "internalType": "address",
          "name": "",
          "type": "address"
        }
      ],
      "stateMutability": "view",
      "type": "function"
    },
    {
      "inputs": [
        {
          "internalType": "address",
          "name": "_royaltyEngine",
          "type": "address"
        }
      ],
      "name": "setRoyaltyEngineAddress",
      "outputs": [],
      "stateMutability": "nonpayable",
      "type": "function"
    },
    {
      "inputs": [
        {
          "internalType": "bytes4",
          "name": "_interfaceId",
          "type": "bytes4"
        }
      ],
      "name": "supportsInterface",
      "outputs": [
        {
          "internalType": "bool",
          "name": "",
          "type": "bool"
        }
      ],
      "stateMutability": "pure",
      "type": "function"
    },
    {
      "inputs": [
        {
          "internalType": "address",
          "name": "_tokenContract",
          "type": "address"
        },
        {
          "internalType": "uint256",
          "name": "_tokenId",
          "type": "uint256"
        },
        {
          "internalType": "uint256",
          "name": "_price",
          "type": "uint256"
        }
      ],
      "name": "createAsk",
      "outputs": [],
      "stateMutability": "nonpayable",
      "type": "function"
    },
    {
      "inputs": [
        {
          "internalType": "address",
          "name": "_tokenContract",
          "type": "address"
        },
        {
          "internalType": "uint256",
          "name": "_tokenId",
          "type": "uint256"
        },
        {
          "internalType": "uint256",
          "name": "_price",
          "type": "uint256"
        }
      ],
      "name": "setAskPrice",
      "outputs": [],
      "stateMutability": "nonpayable",
      "type": "function"
    },
    {
      "inputs": [
        {
          "internalType": "address",
          "name": "_tokenContract",
          "type": "address"
        },
        {
          "internalType": "uint256",
          "name": "_tokenId",
          "type": "uint256"
        }
      ],
      "name": "cancelAsk",
      "outputs": [],
      "stateMutability": "nonpayable",
      "type": "function"
    },
    {
      "inputs": [
        {
          "internalType": "address",
          "name": "_tokenContract",
          "type": "address"
        },
        {
          "internalType": "uint256",
          "name": "_tokenId",
          "type": "uint256"
        }
      ],
      "name": "fillAsk",
      "outputs": [],
      "stateMutability": "payable",
      "type": "function"
    }
  ],
  "bytecode": "0x61010060405260016000553480156200001757600080fd5b5060405162001cce38038062001cce8339810160408190526200003a916200024a565b6040518060400160405280600d81526020016c082e6d6e64086dee4ca408aa89609b1b815250838383876001600160a01b031663e3e606f06040518163ffffffff1660e01b8152600401602060405180830381865afa158015620000a2573d6000803e3d6000fd5b505050506040513d601f19601f82011682018060405250810190620000c89190620002b2565b6001600160a01b0316632b20e3976040518163ffffffff1660e01b8152600401602060405180830381865afa15801562000106573d6000803e3d6000fd5b505050506040513d601f19601f820116820180604052508101906200012c9190620002b2565b6001600160a01b03918216608052600180546001600160a01b0319169483169490941790935590811660c0521660a0528051620001719060029060208401906200018b565b5050506001600160a01b0390921660e05250620003169050565b8280546200019990620002d9565b90600052602060002090601f016020900481019282620001bd576000855562000208565b82601f10620001d857805160ff191683800117855562000208565b8280016001018555821562000208579182015b8281111562000208578251825591602001919060010190620001eb565b50620002169291506200021a565b5090565b5b808211156200021657600081556001016200021b565b6001600160a01b03811681146200024757600080fd5b50565b600080600080608085870312156200026157600080fd5b84516200026e8162000231565b6020860151909450620002818162000231565b6040860151909350620002948162000231565b6060860151909250620002a78162000231565b939692955090935050565b600060208284031215620002c557600080fd5b8151620002d28162000231565b9392505050565b600181811c90821680620002ee57607f821691505b602082108114156200031057634e487b7160e01b600052602260045260246000fd5b50919050565b60805160a05160c05160e0516119626200036c6000396000818161028601526107a4015260008181610e680152610efb01526000818161012c0152610a89015260008181611093015261111101526119626000f3fe60806040526004361061009c5760003560e01c8063418f065611610064578063418f06561461018657806368b5a9a8146102005780639128c22c14610213578063b249bb3014610234578063c4f0ee3614610254578063f7cd1d9b1461027457600080fd5b806301ffc9a7146100a157806306fdde03146100d65780630be48095146100f85780632b20e3971461011a57806340b8074614610166575b600080fd5b3480156100ad57600080fd5b506100c16100bc3660046114d9565b6102a8565b60405190151581526020015b60405180910390f35b3480156100e257600080fd5b506100eb6102df565b6040516100cd919061152f565b34801561010457600080fd5b5061011861011336600461157a565b61036d565b005b34801561012657600080fd5b5061014e7f000000000000000000000000000000000000000000000000000000000000000081565b6040516001600160a01b0390911681526020016100cd565b34801561017257600080fd5b506101186101813660046115af565b61046c565b34801561019257600080fd5b506101d96101a13660046115af565b60036020908152600092835260408084209091529082529020546001600160a01b03811690600160a01b90046001600160601b031682565b604080516001600160a01b0390931683526001600160601b039091166020830152016100cd565b61011861020e3660046115af565b610643565b6102266102213660046115db565b610882565b6040519081526020016100cd565b34801561024057600080fd5b5061011861024f366004611625565b610a7e565b34801561026057600080fd5b5061011861026f36600461157a565b610baa565b34801561028057600080fd5b5061014e7f000000000000000000000000000000000000000000000000000000000000000081565b60006001600160e01b0319821663e719c04d60e01b14806102d957506301ffc9a760e01b6001600160e01b03198316145b92915050565b600280546102ec90611642565b80601f016020809104026020016040519081016040528092919081815260200182805461031890611642565b80156103655780601f1061033a57610100808354040283529160200191610365565b820191906000526020600020905b81548152906001019060200180831161034857829003601f168201915b505050505081565b6000546001146103985760405162461bcd60e51b815260040161038f9061167d565b60405180910390fd5b600260009081556001600160a01b038481168252600360209081526040808420868552909152909120805490911633146104025760405162461bcd60e51b815260206004820152600b60248201526a27a7262cafa9a2a62622a960a91b604482015260640161038f565b80546001600160a01b03908116600160a01b6001600160601b03851602178255604080513381526020810185905285928716917f18c0eece1e729d9b8010f8a94ed680280eb3ccfedaedef0218b6c6a64a2d314391015b60405180910390a3505060016000555050565b60005460011461048e5760405162461bcd60e51b815260040161038f9061167d565b600260009081556001600160a01b038381168252600360209081526040808420858552825292839020835180850190945254918216808452600160a01b9092046001600160601b0316908301523381148061056257506040516331a9108f60e11b8152600481018490526001600160a01b03851690636352211e90602401602060405180830381865afa158015610529573d6000803e3d6000fd5b505050506040513d601f19601f8201168201806040525081019061054d91906116a1565b6001600160a01b0316336001600160a01b0316145b6105ae5760405162461bcd60e51b815260206004820152601a60248201527f4f4e4c595f53454c4c45525f4f525f544f4b454e5f4f574e4552000000000000604482015260640161038f565b82846001600160a01b03167fbe338a95c86a3b9c15c04bcc9498991ef98dc6013ff35a86006784873bf0f9b483856020015160405161060b9291906001600160a01b039290921682526001600160601b0316602082015260400190565b60405180910390a350506001600160a01b03909116600090815260036020908152604080832093835292905290812081905560019055565b6000546001146106655760405162461bcd60e51b815260040161038f9061167d565b600260009081556001600160a01b038381168252600360209081526040808420858552825292839020835180850190945254918216808452600160a01b9092046001600160601b031690830152806106ee5760405162461bcd60e51b815260206004820152600c60248201526b494e4143544956455f41534b60a01b604482015260640161038f565b60208201516001600160601b031634811461073e5760405162461bcd60e51b815260206004820152601060248201526f4d5553545f4d415443485f505249434560801b604482015260640161038f565b60006107518686846000620493e0610d7d565b50905061075f816000610e3f565b90506107708382600061c350610f91565b604051630aed65f560e11b81526001600160a01b0387811660048301528481166024830152336044830152606482018790527f000000000000000000000000000000000000000000000000000000000000000016906315dacbea90608401600060405180830381600087803b1580156107e857600080fd5b505af11580156107fc573d6000803e3d6000fd5b5050604080513381526001600160a01b03878116602083015291810186905288935090891691507fed509339c949cdfdb11c117315bb3f74aa98886204732c065edd38979d7ccf539060600160405180910390a35050506001600160a01b0390921660009081526003602090815260408083209383529290529081208190556001905550565b60003330146108e95760405162461bcd60e51b815260206004820152602d60248201527f5f68616e646c65526f79616c7479456e67696e655061796f7574206f6e6c792060448201526c73656c662063616c6c61626c6560981b606482015260840161038f565b600154604051637a99dc0160e11b81526001600160a01b0387811660048301526024820187905260448201869052600092839291169063f533b802906064016000604051808303816000875af1158015610947573d6000803e3d6000fd5b505050506040513d6000823e601f3d908101601f1916820160405261096f9190810190611794565b815191935091508061098657859350505050610a76565b85600080805b84811015610a6c578681815181106109a6576109a6611859565b602002602001015192508581815181106109c2576109c2611859565b6020026020010151915081841015610a085760405162461bcd60e51b81526020600482015260096024820152681a5b9cdbdb1d995b9d60ba1b604482015260640161038f565b610a1683838b61c350610f91565b604080516001600160a01b038581168252602082018590528d92908f16917f866e6ef8682ddf5f1025e64dfdb45527077f7be70fa9ef680b7ffd8cf4ab9c50910160405180910390a3928190039260010161098c565b5091955050505050505b949350505050565b336001600160a01b037f00000000000000000000000000000000000000000000000000000000000000001614610b055760405162461bcd60e51b815260206004820152602660248201527f736574526f79616c7479456e67696e6541646472657373206f6e6c792072656760448201526534b9ba3930b960d11b606482015260840161038f565b610b1681636591fc0b60e11b61115d565b610b885760405162461bcd60e51b815260206004820152603d60248201527f736574526f79616c7479456e67696e6541646472657373206d757374206d617460448201527f63682049526f79616c7479456e67696e65563120696e74657266616365000000606482015260840161038f565b600180546001600160a01b0319166001600160a01b0392909216919091179055565b600054600114610bcc5760405162461bcd60e51b815260040161038f9061167d565b600260009081556040516331a9108f60e11b8152600481018490526001600160a01b03851690636352211e90602401602060405180830381865afa158015610c18573d6000803e3d6000fd5b505050506040513d601f19601f82011682018060405250810190610c3c91906116a1565b9050336001600160a01b0382161480610cc0575060405163e985e9c560e01b81526001600160a01b03828116600483015233602483015285169063e985e9c590604401602060405180830381865afa158015610c9c573d6000803e3d6000fd5b505050506040513d601f19601f82011682018060405250810190610cc0919061186f565b610d0c5760405162461bcd60e51b815260206004820152601c60248201527f4f4e4c595f544f4b454e5f4f574e45525f4f525f4f50455241544f5200000000604482015260640161038f565b6001600160a01b038481166000818152600360209081526040808320888452825291829020938516600160a01b6001600160601b0388160281179094558151938452830185905285927fb427f2572be967193f84fe4fa05aa3137657735475127a9dffaf978c15f682be9101610459565b60008080831580610d8d57505a84115b610d975783610d99565b5a5b60405163244a308b60e21b81526001600160a01b03808b166004830152602482018a905260448201899052871660648201529091503090639128c22c90839060840160206040518083038160008887f193505050508015610e17575060408051601f3d908101601f19168201909252610e1491810190611891565b60015b610e28578560009250925050610e35565b925060019150610e359050565b9550959350505050565b6040516330da42fb60e11b81523060048201526024810183905260009081906001600160a01b037f000000000000000000000000000000000000000000000000000000000000000016906361b485f690604401602060405180830381865afa158015610eaf573d6000803e3d6000fd5b505050506040513d601f19601f82011682018060405250810190610ed39190611891565b905080610ee357839150506102d9565b6040516386ab6fb960e01b81523060048201526000907f00000000000000000000000000000000000000000000000000000000000000006001600160a01b0316906386ab6fb9906024016040805180830381865afa158015610f49573d6000803e3d6000fd5b505050506040513d601f19601f82011682018060405250810190610f6d91906118aa565b915050610f7e81838661c350610f91565b610f8882866118eb565b95945050505050565b821580610fa557506001600160a01b038416155b15610faf57611157565b6001600160a01b03821661114357824710156110175760405162461bcd60e51b815260206004820152602160248201527f5f68616e646c654f7574676f696e675472616e7366657220696e736f6c76656e6044820152601d60fa1b606482015260840161038f565b600081158061102557505a82115b61102f5781611031565b5a5b90506000856001600160a01b0316858390604051600060405180830381858888f193505050503d8060008114611083576040519150601f19603f3d011682016040523d82523d6000602084013e611088565b606091505b505090508061113c577f00000000000000000000000000000000000000000000000000000000000000006001600160a01b031663d0e30db0866040518263ffffffff1660e01b81526004016000604051808303818588803b1580156110ec57600080fd5b505af1158015611100573d6000803e3d6000fd5b5061113c9350506001600160a01b037f000000000000000000000000000000000000000000000000000000000000000016915088905087611180565b5050611157565b6111576001600160a01b0383168585611180565b50505050565b6000611168836111d7565b80156111795750611179838361120a565b9392505050565b604080516001600160a01b038416602482015260448082018490528251808303909101815260649091019091526020810180516001600160e01b031663a9059cbb60e01b1790526111d29084906112f3565b505050565b60006111ea826301ffc9a760e01b61120a565b80156102d95750611203826001600160e01b031961120a565b1592915050565b604080516001600160e01b0319831660248083019190915282518083039091018152604490910182526020810180516001600160e01b03166301ffc9a760e01b179052905160009190829081906001600160a01b0387169061753090611271908690611910565b6000604051808303818686fa925050503d80600081146112ad576040519150601f19603f3d011682016040523d82523d6000602084013e6112b2565b606091505b50915091506020815110156112cd57600093505050506102d9565b8180156112e95750808060200190518101906112e9919061186f565b9695505050505050565b6000611348826040518060400160405280602081526020017f5361666545524332303a206c6f772d6c6576656c2063616c6c206661696c6564815250856001600160a01b03166113c59092919063ffffffff16565b8051909150156111d25780806020019051810190611366919061186f565b6111d25760405162461bcd60e51b815260206004820152602a60248201527f5361666545524332303a204552433230206f7065726174696f6e20646964206e6044820152691bdd081cdd58d8d9595960b21b606482015260840161038f565b6060610a768484600085856001600160a01b0385163b6114275760405162461bcd60e51b815260206004820152601d60248201527f416464726573733a2063616c6c20746f206e6f6e2d636f6e7472616374000000604482015260640161038f565b600080866001600160a01b031685876040516114439190611910565b60006040518083038185875af1925050503d8060008114611480576040519150601f19603f3d011682016040523d82523d6000602084013e611485565b606091505b50915091506114958282866114a0565b979650505050505050565b606083156114af575081611179565b8251156114bf5782518084602001fd5b8160405162461bcd60e51b815260040161038f919061152f565b6000602082840312156114eb57600080fd5b81356001600160e01b03198116811461117957600080fd5b60005b8381101561151e578181015183820152602001611506565b838111156111575750506000910152565b602081526000825180602084015261154e816040850160208701611503565b601f01601f19169190910160400192915050565b6001600160a01b038116811461157757600080fd5b50565b60008060006060848603121561158f57600080fd5b833561159a81611562565b95602085013595506040909401359392505050565b600080604083850312156115c257600080fd5b82356115cd81611562565b946020939093013593505050565b600080600080608085870312156115f157600080fd5b84356115fc81611562565b93506020850135925060408501359150606085013561161a81611562565b939692955090935050565b60006020828403121561163757600080fd5b813561117981611562565b600181811c9082168061165657607f821691505b6020821081141561167757634e487b7160e01b600052602260045260246000fd5b50919050565b6020808252600a90820152695245454e5452414e435960b01b604082015260600190565b6000602082840312156116b357600080fd5b815161117981611562565b634e487b7160e01b600052604160045260246000fd5b604051601f8201601f1916810167ffffffffffffffff811182821017156116fd576116fd6116be565b604052919050565b600067ffffffffffffffff82111561171f5761171f6116be565b5060051b60200190565b600082601f83011261173a57600080fd5b8151602061174f61174a83611705565b6116d4565b82815260059290921b8401810191818101908684111561176e57600080fd5b8286015b848110156117895780518352918301918301611772565b509695505050505050565b600080604083850312156117a757600080fd5b825167ffffffffffffffff808211156117bf57600080fd5b818501915085601f8301126117d357600080fd5b815160206117e361174a83611705565b82815260059290921b8401810191818101908984111561180257600080fd5b948201945b8386101561182957855161181a81611562565b82529482019490820190611807565b9188015191965090935050508082111561184257600080fd5b5061184f85828601611729565b9150509250929050565b634e487b7160e01b600052603260045260246000fd5b60006020828403121561188157600080fd5b8151801515811461117957600080fd5b6000602082840312156118a357600080fd5b5051919050565b600080604083850312156118bd57600080fd5b825161ffff811681146118cf57600080fd5b60208401519092506118e081611562565b809150509250929050565b60008282101561190b57634e487b7160e01b600052601160045260246000fd5b500390565b60008251611922818460208701611503565b919091019291505056fea2646970667358221220dc3a125a82d5d8f8cd346c6b19413c1da20cb6121ac6a0973bc498ff4e36d57f64736f6c634300080a0033",
  "immutableReferences": {
    "8147": [
      {
        "length": 32,
        "start": 300
      },
      {
        "length": 32,
        "start": 2697
      }
    ],
    "8151": [
      {
        "length": 32,
        "start": 3688
      },
      {
        "length": 32,
        "start": 3835
      }
    ],
    "8607": [
      {
        "length": 32,
        "start": 4243
      },
      {
        "length": 32,
        "start": 4369
      }
    ],
    "9303": [
      {
        "length": 32,
        "start": 646
      },
      {
        "length": 32,
        "start": 1956
      }
    ]
  },
  "source": "// SPDX-License-Identifier: GPL-3.0\npragma solidity 0.8.10;\n\nimport {ReentrancyGuard} from \"@rari-capital/solmate/src/utils/ReentrancyGuard.sol\";\nimport {IERC721} from \"@openzeppelin/contracts/token/ERC721/IERC721.sol\";\n\nimport {ERC721TransferHelper} from \"../../../../transferHelpers/ERC721TransferHelper.sol\";\nimport {FeePayoutSupportV1} from \"../../../../common/FeePayoutSupport/FeePayoutSupportV1.sol\";\nimport {ModuleNamingSupportV1} from \"../../../../common/ModuleNamingSupport/ModuleNamingSupportV1.sol\";\nimport {IAsksCoreEth} from \"./IAsksCoreEth.sol\";\n\n/// @title Asks Core ETH\n/// @author kulkarohan\n/// @notice Module for minimal ETH asks for ERC-721 tokens\ncontract AsksCoreEth is ReentrancyGuard, FeePayoutSupportV1, ModuleNamingSupportV1 {\n    ///                                                          ///\n    ///                        IMMUTABLES                        ///\n    ///                                                          ///\n\n    /// @notice The ZORA ERC-721 Transfer Helper\n    ERC721TransferHelper public immutable erc721TransferHelper;\n\n    /// @param _erc721TransferHelper The ZORA ERC-721 Transfer Helper address\n    /// @param _royaltyEngine The Manifold Royalty Engine address\n    /// @param _protocolFeeSettings The ZORA Protocol Fee Settings address\n    /// @param _weth The WETH token address\n    constructor(\n        address _erc721TransferHelper,\n        address _royaltyEngine,\n        address _protocolFeeSettings,\n        address _weth\n    )\n        FeePayoutSupportV1(_royaltyEngine, _protocolFeeSettings, _weth, ERC721TransferHelper(_erc721TransferHelper).ZMM().registrar())\n        ModuleNamingSupportV1(\"Asks Core ETH\")\n    {\n        erc721TransferHelper = ERC721TransferHelper(_erc721TransferHelper);\n    }\n\n    /// @notice Implements EIP-165 for standard interface detection\n    /// @dev `0x01ffc9a7` is the IERC165 interface id\n    /// @param _interfaceId The identifier of a given interface\n    /// @return If the given interface is supported\n    function supportsInterface(bytes4 _interfaceId) external pure returns (bool) {\n        return _interfaceId == type(IAsksCoreEth).interfaceId || _interfaceId == 0x01ffc9a7;\n    }\n\n    ///                                                          ///\n    ///                        ASK STORAGE                       ///\n    ///                                                          ///\n\n    /// @notice The metadata for a given ask\n    /// @param seller The address of the seller\n    /// @param price The price to fill the ask\n    struct Ask {\n        address seller;\n        uint96 price;\n    }\n\n    /// @notice The ask for a given NFT\n    /// @dev ERC-721 token contract => ERC-721 token id => Ask\n    mapping(address => mapping(uint256 => Ask)) public askForNFT;\n\n    ///                                                          ///\n    ///                        CREATE ASK                        ///\n    ///                                                          ///\n\n    //     ,-.\n    //     `-'\n    //     /|\\\n    //      |             ,-----------.\n    //     / \\            |AsksCoreEth|\n    //   Caller           `-----+-----'\n    //     |    createAsk()     |\n    //     | ------------------>|\n    //     |                    |\n    //     |                    ----.\n    //     |                        | store ask metadata\n    //     |                    <---'\n    //     |                    |\n    //     |                    ----.\n    //     |                        | emit AskCreated()\n    //     |                    <---'\n    //   Caller           ,-----+-----.\n    //     ,-.            |AsksCoreEth|\n    //     `-'            `-----------'\n    //     /|\\\n    //      |\n    //     / \\\n\n    /// @notice Emitted when an ask is created\n    /// @param tokenContract The ERC-721 token address of the created ask\n    /// @param tokenId The ERC-721 token id of the created ask\n    /// @param seller The seller address of the created ask\n    /// @param price The price of the created ask\n    event AskCreated(address indexed tokenContract, uint256 indexed tokenId, address seller, uint256 price);\n\n    /// @notice Creates an ask for a given NFT\n    /// @param _tokenContract The address of the ERC-721 token\n    /// @param _tokenId The id of the ERC-721 token\n    /// @param _price The price to fill the ask\n    function createAsk(\n        address _tokenContract,\n        uint256 _tokenId,\n        uint256 _price\n    ) external nonReentrant {\n        // Get the owner of the specified token\n        address tokenOwner = IERC721(_tokenContract).ownerOf(_tokenId);\n\n        // Ensure the caller is the owner or an approved operator\n        require(msg.sender == tokenOwner || IERC721(_tokenContract).isApprovedForAll(tokenOwner, msg.sender), \"ONLY_TOKEN_OWNER_OR_OPERATOR\");\n\n        // Store the owner as the seller\n        askForNFT[_tokenContract][_tokenId].seller = tokenOwner;\n\n        // Store the ask price\n        // The max value for this module is 2^96 - 1, which is magnitudes higher than the total supply of ETH\n        askForNFT[_tokenContract][_tokenId].price = uint96(_price);\n\n        emit AskCreated(_tokenContract, _tokenId, tokenOwner, _price);\n    }\n\n    ///                                                          ///\n    ///                        UPDATE ASK                        ///\n    ///                                                          ///\n\n    //     ,-.\n    //     `-'\n    //     /|\\\n    //      |             ,-----------.\n    //     / \\            |AsksCoreEth|\n    //   Caller           `-----+-----'\n    //     |   setAskPrice()    |\n    //     | ------------------>|\n    //     |                    |\n    //     |                    ----.\n    //     |                        | update ask price\n    //     |                    <---'\n    //     |                    |\n    //     |                    ----.\n    //     |                        | emit AskPriceUpdated()\n    //     |                    <---'\n    //   Caller           ,-----+-----.\n    //     ,-.            |AsksCoreEth|\n    //     `-'            `-----------'\n    //     /|\\\n    //      |\n    //     / \\\n\n    /// @notice Emitted when an ask is updated\n    /// @param tokenContract The ERC-721 token address of the updated ask\n    /// @param tokenId The ERC-721 token id of the updated ask\n    /// @param seller The user that updated the ask\n    /// @param price The updated price of the ask\n    event AskPriceUpdated(address indexed tokenContract, uint256 indexed tokenId, address seller, uint256 price);\n\n    /// @notice Updates the ask price for a given NFT\n    /// @param _tokenContract The address of the ERC-721 token\n    /// @param _tokenId The id of the ERC-721 token\n    /// @param _price The ask price to set\n    function setAskPrice(\n        address _tokenContract,\n        uint256 _tokenId,\n        uint256 _price\n    ) external nonReentrant {\n        // Get the ask for the specified token\n        Ask storage ask = askForNFT[_tokenContract][_tokenId];\n\n        // Ensure the caller is seller\n        require(msg.sender == ask.seller, \"ONLY_SELLER\");\n\n        // Update the ask price\n        // The max value for this module is 2^96 - 1, which is magnitudes higher than the total supply of ETH\n        ask.price = uint96(_price);\n\n        emit AskPriceUpdated(_tokenContract, _tokenId, msg.sender, _price);\n    }\n\n    ///                                                          ///\n    ///                        CANCEL ASK                        ///\n    ///                                                          ///\n\n    //     ,-.\n    //     `-'\n    //     /|\\\n    //      |             ,-----------.\n    //     / \\            |AsksCoreEth|\n    //   Caller           `-----+-----'\n    //     |    cancelAsk()     |\n    //     | ------------------>|\n    //     |                    |\n    //     |                    ----.\n    //     |                        | emit AskCanceled()\n    //     |                    <---'\n    //     |                    |\n    //     |                    ----.\n    //     |                        | delete ask\n    //     |                    <---'\n    //   Caller           ,-----+-----.\n    //     ,-.            |AsksCoreEth|\n    //     `-'            `-----------'\n    //     /|\\\n    //      |\n    //     / \\\n\n    /// @notice Emitted when an ask is canceled\n    /// @param tokenContract The ERC-721 token address of the canceled ask\n    /// @param tokenId The ERC-721 token id of the canceled ask\n    /// @param seller The user that canceled the ask\n    /// @param price The price of the canceled ask\n    event AskCanceled(address indexed tokenContract, uint256 indexed tokenId, address seller, uint256 price);\n\n    /// @notice Cancels the ask for a given NFT\n    /// @param _tokenContract The address of the ERC-721 token\n    /// @param _tokenId The id of the ERC-721 token\n    function cancelAsk(address _tokenContract, uint256 _tokenId) external nonReentrant {\n        // Get the ask for the specified token\n        Ask memory ask = askForNFT[_tokenContract][_tokenId];\n\n        // Cache the seller address\n        address seller = ask.seller;\n\n        // Ensure the caller is the seller or a new token owner\n        require(msg.sender == seller || msg.sender == IERC721(_tokenContract).ownerOf(_tokenId), \"ONLY_SELLER_OR_TOKEN_OWNER\");\n\n        emit AskCanceled(_tokenContract, _tokenId, seller, ask.price);\n\n        // Remove the ask from storage\n        delete askForNFT[_tokenContract][_tokenId];\n    }\n\n    ///                                                          ///\n    ///                         FILL ASK                         ///\n    ///                                                          ///\n\n    //     ,-.\n    //     `-'\n    //     /|\\\n    //      |             ,-----------.            ,--------------------.\n    //     / \\            |AsksCoreEth|            |ERC721TransferHelper|\n    //   Caller           `-----+-----'            `---------+----------'\n    //     |     fillAsk()      |                            |\n    //     | ------------------>|                            |\n    //     |                    |                            |\n    //     |                    ----.                        |\n    //     |                        | validate received ETH  |\n    //     |                    <---'                        |\n    //     |                    |                            |\n    //     |                    ----.                        |\n    //     |                        | handle royalty payouts |\n    //     |                    <---'                        |\n    //     |                    |                            |\n    //     |                    ----.                        |\n    //     |                        | handle seller payout   |\n    //     |                    <---'                        |\n    //     |                    |                            |\n    //     |                    |       transferFrom()       |\n    //     |                    |---------------------------->\n    //     |                    |                            |\n    //     |                    |                            |----.\n    //     |                    |                            |    | transfer NFT from seller to buyer\n    //     |                    |                            |<---'\n    //     |                    |                            |\n    //     |                    ----.                        |\n    //     |                        | emit AskFilled()       |\n    //     |                    <---'                        |\n    //     |                    |                            |\n    //     |                    ----.\n    //     |                        | delete ask from contract\n    //     |                    <---'\n    //   Caller           ,-----+-----.            ,---------+----------.\n    //     ,-.            |AsksCoreEth|            |ERC721TransferHelper|\n    //     `-'            `-----------'            `--------------------'\n    //     /|\\\n    //      |\n    //     / \\\n\n    /// @notice Emitted when an ask is filled\n    /// @param tokenContract The ERC-721 token address of the filled ask\n    /// @param tokenId The ERC-721 token id of the filled ask\n    /// @param buyer The buyer address of the filled ask\n    /// @param seller The seller address of the filled ask\n    /// @param price The price of the filled ask\n    event AskFilled(address indexed tokenContract, uint256 indexed tokenId, address buyer, address seller, uint256 price);\n\n    /// @notice Fills the ask for a given NFT\n    /// @param _tokenContract The address of the ERC-721 token\n    /// @param _tokenId The id of the ERC-721 token\n    function fillAsk(address _tokenContract, uint256 _tokenId) external payable nonReentrant {\n        // Get the ask for the specified token\n        Ask memory ask = askForNFT[_tokenContract][_tokenId];\n\n        // Cache the seller\n        address seller = ask.seller;\n\n        // Ensure the ask is active\n        require(seller != address(0), \"INACTIVE_ASK\");\n\n        // Cache the price\n        uint256 price = ask.price;\n\n        // Ensure the attached ETH matches the price\n        require(msg.value == price, \"MUST_MATCH_PRICE\");\n\n        // Payout associated token royalties, if any\n        (uint256 remainingProfit, ) = _handleRoyaltyPayout(_tokenContract, _tokenId, price, address(0), 300000);\n\n        // Payout the module fee, if configured\n        remainingProfit = _handleProtocolFeePayout(remainingProfit, address(0));\n\n        // Transfer the remaining profit to the seller\n        _handleOutgoingTransfer(seller, remainingProfit, address(0), 50000);\n\n        // Transfer the NFT to the buyer\n        // Reverts if the seller did not approve the ERC721TransferHelper or no longer owns the token\n        erc721TransferHelper.transferFrom(_tokenContract, seller, msg.sender, _tokenId);\n\n        emit AskFilled(_tokenContract, _tokenId, msg.sender, seller, price);\n\n        // Remove the ask from storage\n        delete askForNFT[_tokenContract][_tokenId];\n    }\n}\n",
  "sourcePath": "/Users/ds/Documents/rarible/scripts/contracts/modules/Asks/Core/ETH/AsksCoreEth.sol",
  "compiler": {
    "name": "solc",
    "version": "0.8.10+commit.fc410830.Emscripten.clang"
  },
  "schemaVersion": "3.4.3",
  "updatedAt": "2022-04-04T14:37:20.156Z",
  "devdoc": {
    "author": "kulkarohan",
    "events": {
      "AskCanceled(address,uint256,address,uint256)": {
        "params": {
          "price": "The price of the canceled ask",
          "seller": "The user that canceled the ask",
          "tokenContract": "The ERC-721 token address of the canceled ask",
          "tokenId": "The ERC-721 token id of the canceled ask"
        }
      },
      "AskCreated(address,uint256,address,uint256)": {
        "params": {
          "price": "The price of the created ask",
          "seller": "The seller address of the created ask",
          "tokenContract": "The ERC-721 token address of the created ask",
          "tokenId": "The ERC-721 token id of the created ask"
        }
      },
      "AskFilled(address,uint256,address,address,uint256)": {
        "params": {
          "buyer": "The buyer address of the filled ask",
          "price": "The price of the filled ask",
          "seller": "The seller address of the filled ask",
          "tokenContract": "The ERC-721 token address of the filled ask",
          "tokenId": "The ERC-721 token id of the filled ask"
        }
      },
      "AskPriceUpdated(address,uint256,address,uint256)": {
        "params": {
          "price": "The updated price of the ask",
          "seller": "The user that updated the ask",
          "tokenContract": "The ERC-721 token address of the updated ask",
          "tokenId": "The ERC-721 token id of the updated ask"
        }
      }
    },
    "kind": "dev",
    "methods": {
      "_handleRoyaltyEnginePayout(address,uint256,uint256,address)": {
        "details": "This method is external to enable setting a gas limit when called - see `_handleRoyaltyPayout`.",
        "params": {
          "_amount": "The total sale amount",
          "_payoutCurrency": "The ERC-20 token address to payout royalties in, or address(0) for ETH",
          "_tokenContract": "The NFT Contract to get royalty information from",
          "_tokenId": ", The Token ID to get royalty information from"
        },
        "returns": {
          "_0": "The remaining funds after paying out royalties"
        }
      },
      "cancelAsk(address,uint256)": {
        "params": {
          "_tokenContract": "The address of the ERC-721 token",
          "_tokenId": "The id of the ERC-721 token"
        }
      },
      "constructor": {
        "params": {
          "_erc721TransferHelper": "The ZORA ERC-721 Transfer Helper address",
          "_protocolFeeSettings": "The ZORA Protocol Fee Settings address",
          "_royaltyEngine": "The Manifold Royalty Engine address",
          "_weth": "The WETH token address"
        }
      },
      "createAsk(address,uint256,uint256)": {
        "params": {
          "_price": "The price to fill the ask",
          "_tokenContract": "The address of the ERC-721 token",
          "_tokenId": "The id of the ERC-721 token"
        }
      },
      "fillAsk(address,uint256)": {
        "params": {
          "_tokenContract": "The address of the ERC-721 token",
          "_tokenId": "The id of the ERC-721 token"
        }
      },
      "setAskPrice(address,uint256,uint256)": {
        "params": {
          "_price": "The ask price to set",
          "_tokenContract": "The address of the ERC-721 token",
          "_tokenId": "The id of the ERC-721 token"
        }
      },
      "setRoyaltyEngineAddress(address)": {
        "details": "emergency use only  requires a frozen RoyaltyEngineV1 at commit 4ae77a73a8a73a79d628352d206fadae7f8e0f74  to be deployed elsewhere, or a contract matching that ABI",
        "params": {
          "_royaltyEngine": "The address for the new royalty engine"
        }
      },
      "supportsInterface(bytes4)": {
        "details": "`0x01ffc9a7` is the IERC165 interface id",
        "params": {
          "_interfaceId": "The identifier of a given interface"
        },
        "returns": {
          "_0": "If the given interface is supported"
        }
      }
    },
    "stateVariables": {
      "askForNFT": {
        "details": "ERC-721 token contract => ERC-721 token id => Ask"
      }
    },
    "title": "Asks Core ETH",
    "version": 1
  },
  "userdoc": {
    "events": {
      "AskCanceled(address,uint256,address,uint256)": {
        "notice": "Emitted when an ask is canceled"
      },
      "AskCreated(address,uint256,address,uint256)": {
        "notice": "Emitted when an ask is created"
      },
      "AskFilled(address,uint256,address,address,uint256)": {
        "notice": "Emitted when an ask is filled"
      },
      "AskPriceUpdated(address,uint256,address,uint256)": {
        "notice": "Emitted when an ask is updated"
      },
      "RoyaltyPayout(address,uint256,address,uint256)": {
        "notice": "Emitted when royalties are paid"
      }
    },
    "kind": "user",
    "methods": {
      "_handleRoyaltyEnginePayout(address,uint256,uint256,address)": {
        "notice": "Pays out royalties for NFTs based on the information returned by the royalty engine"
      },
      "askForNFT(address,uint256)": {
        "notice": "The ask for a given NFT"
      },
      "cancelAsk(address,uint256)": {
        "notice": "Cancels the ask for a given NFT"
      },
      "createAsk(address,uint256,uint256)": {
        "notice": "Creates an ask for a given NFT"
      },
      "erc721TransferHelper()": {
        "notice": "The ZORA ERC-721 Transfer Helper"
      },
      "fillAsk(address,uint256)": {
        "notice": "Fills the ask for a given NFT"
      },
      "name()": {
        "notice": "The module name"
      },
      "registrar()": {
        "notice": "The ZORA Module Registrar"
      },
      "setAskPrice(address,uint256,uint256)": {
        "notice": "Updates the ask price for a given NFT"
      },
      "setRoyaltyEngineAddress(address)": {
        "notice": "Update the address of the Royalty Engine, in case of unexpected update on Manifold's Proxy"
      },
      "supportsInterface(bytes4)": {
        "notice": "Implements EIP-165 for standard interface detection"
      }
    },
    "notice": "Module for minimal ETH asks for ERC-721 tokens",
    "version": 1
  }
}