{
  "contractName": "ERC1155Delegate",
  "abi": [
    {
      "inputs": [],
      "stateMutability": "nonpayable",
      "type": "constructor"
    },
    {
      "anonymous": false,
      "inputs": [
        {
          "indexed": true,
          "internalType": "bytes32",
          "name": "role",
          "type": "bytes32"
        },
        {
          "indexed": true,
          "internalType": "bytes32",
          "name": "previousAdminRole",
          "type": "bytes32"
        },
        {
          "indexed": true,
          "internalType": "bytes32",
          "name": "newAdminRole",
          "type": "bytes32"
        }
      ],
      "name": "RoleAdminChanged",
      "type": "event"
    },
    {
      "anonymous": false,
      "inputs": [
        {
          "indexed": true,
          "internalType": "bytes32",
          "name": "role",
          "type": "bytes32"
        },
        {
          "indexed": true,
          "internalType": "address",
          "name": "account",
          "type": "address"
        },
        {
          "indexed": true,
          "internalType": "address",
          "name": "sender",
          "type": "address"
        }
      ],
      "name": "RoleGranted",
      "type": "event"
    },
    {
      "anonymous": false,
      "inputs": [
        {
          "indexed": true,
          "internalType": "bytes32",
          "name": "role",
          "type": "bytes32"
        },
        {
          "indexed": true,
          "internalType": "address",
          "name": "account",
          "type": "address"
        },
        {
          "indexed": true,
          "internalType": "address",
          "name": "sender",
          "type": "address"
        }
      ],
      "name": "RoleRevoked",
      "type": "event"
    },
    {
      "inputs": [],
      "name": "DEFAULT_ADMIN_ROLE",
      "outputs": [
        {
          "internalType": "bytes32",
          "name": "",
          "type": "bytes32"
        }
      ],
      "stateMutability": "view",
      "type": "function"
    },
    {
      "inputs": [],
      "name": "DELEGATION_CALLER",
      "outputs": [
        {
          "internalType": "bytes32",
          "name": "",
          "type": "bytes32"
        }
      ],
      "stateMutability": "view",
      "type": "function"
    },
    {
      "inputs": [
        {
          "internalType": "bytes32",
          "name": "role",
          "type": "bytes32"
        }
      ],
      "name": "getRoleAdmin",
      "outputs": [
        {
          "internalType": "bytes32",
          "name": "",
          "type": "bytes32"
        }
      ],
      "stateMutability": "view",
      "type": "function"
    },
    {
      "inputs": [
        {
          "internalType": "bytes32",
          "name": "role",
          "type": "bytes32"
        },
        {
          "internalType": "address",
          "name": "account",
          "type": "address"
        }
      ],
      "name": "grantRole",
      "outputs": [],
      "stateMutability": "nonpayable",
      "type": "function"
    },
    {
      "inputs": [
        {
          "internalType": "bytes32",
          "name": "role",
          "type": "bytes32"
        },
        {
          "internalType": "address",
          "name": "account",
          "type": "address"
        }
      ],
      "name": "hasRole",
      "outputs": [
        {
          "internalType": "bool",
          "name": "",
          "type": "bool"
        }
      ],
      "stateMutability": "view",
      "type": "function"
    },
    {
      "inputs": [
        {
          "internalType": "bytes32",
          "name": "role",
          "type": "bytes32"
        },
        {
          "internalType": "address",
          "name": "account",
          "type": "address"
        }
      ],
      "name": "renounceRole",
      "outputs": [],
      "stateMutability": "nonpayable",
      "type": "function"
    },
    {
      "inputs": [
        {
          "internalType": "bytes32",
          "name": "role",
          "type": "bytes32"
        },
        {
          "internalType": "address",
          "name": "account",
          "type": "address"
        }
      ],
      "name": "revokeRole",
      "outputs": [],
      "stateMutability": "nonpayable",
      "type": "function"
    },
    {
      "inputs": [
        {
          "internalType": "bytes4",
          "name": "interfaceId",
          "type": "bytes4"
        }
      ],
      "name": "supportsInterface",
      "outputs": [
        {
          "internalType": "bool",
          "name": "",
          "type": "bool"
        }
      ],
      "stateMutability": "view",
      "type": "function"
    },
    {
      "inputs": [
        {
          "internalType": "address",
          "name": "",
          "type": "address"
        },
        {
          "internalType": "address",
          "name": "",
          "type": "address"
        },
        {
          "internalType": "uint256",
          "name": "",
          "type": "uint256"
        },
        {
          "internalType": "uint256",
          "name": "",
          "type": "uint256"
        },
        {
          "internalType": "bytes",
          "name": "",
          "type": "bytes"
        }
      ],
      "name": "onERC1155Received",
      "outputs": [
        {
          "internalType": "bytes4",
          "name": "",
          "type": "bytes4"
        }
      ],
      "stateMutability": "nonpayable",
      "type": "function"
    },
    {
      "inputs": [
        {
          "internalType": "address",
          "name": "",
          "type": "address"
        },
        {
          "internalType": "address",
          "name": "",
          "type": "address"
        },
        {
          "internalType": "uint256[]",
          "name": "",
          "type": "uint256[]"
        },
        {
          "internalType": "uint256[]",
          "name": "",
          "type": "uint256[]"
        },
        {
          "internalType": "bytes",
          "name": "",
          "type": "bytes"
        }
      ],
      "name": "onERC1155BatchReceived",
      "outputs": [
        {
          "internalType": "bytes4",
          "name": "",
          "type": "bytes4"
        }
      ],
      "stateMutability": "nonpayable",
      "type": "function"
    },
    {
      "inputs": [],
      "name": "delegateType",
      "outputs": [
        {
          "internalType": "uint256",
          "name": "",
          "type": "uint256"
        }
      ],
      "stateMutability": "view",
      "type": "function"
    },
    {
      "inputs": [
        {
          "internalType": "address",
          "name": "seller",
          "type": "address"
        },
        {
          "internalType": "address",
          "name": "buyer",
          "type": "address"
        },
        {
          "internalType": "bytes",
          "name": "data",
          "type": "bytes"
        }
      ],
      "name": "executeSell",
      "outputs": [
        {
          "internalType": "bool",
          "name": "",
          "type": "bool"
        }
      ],
      "stateMutability": "nonpayable",
      "type": "function"
    },
    {
      "inputs": [
        {
          "internalType": "address",
          "name": "seller",
          "type": "address"
        },
        {
          "internalType": "address",
          "name": "buyer",
          "type": "address"
        },
        {
          "internalType": "bytes",
          "name": "data",
          "type": "bytes"
        }
      ],
      "name": "executeBuy",
      "outputs": [
        {
          "internalType": "bool",
          "name": "",
          "type": "bool"
        }
      ],
      "stateMutability": "nonpayable",
      "type": "function"
    },
    {
      "inputs": [
        {
          "internalType": "address",
          "name": "seller",
          "type": "address"
        },
        {
          "internalType": "address",
          "name": "previousBidder",
          "type": "address"
        },
        {
          "internalType": "address",
          "name": "",
          "type": "address"
        },
        {
          "internalType": "bytes",
          "name": "data",
          "type": "bytes"
        }
      ],
      "name": "executeBid",
      "outputs": [
        {
          "internalType": "bool",
          "name": "",
          "type": "bool"
        }
      ],
      "stateMutability": "nonpayable",
      "type": "function"
    },
    {
      "inputs": [
        {
          "internalType": "address",
          "name": "",
          "type": "address"
        },
        {
          "internalType": "address",
          "name": "buyer",
          "type": "address"
        },
        {
          "internalType": "bytes",
          "name": "data",
          "type": "bytes"
        }
      ],
      "name": "executeAuctionComplete",
      "outputs": [
        {
          "internalType": "bool",
          "name": "",
          "type": "bool"
        }
      ],
      "stateMutability": "nonpayable",
      "type": "function"
    },
    {
      "inputs": [
        {
          "internalType": "address",
          "name": "seller",
          "type": "address"
        },
        {
          "internalType": "address",
          "name": "",
          "type": "address"
        },
        {
          "internalType": "bytes",
          "name": "data",
          "type": "bytes"
        }
      ],
      "name": "executeAuctionRefund",
      "outputs": [
        {
          "internalType": "bool",
          "name": "",
          "type": "bool"
        }
      ],
      "stateMutability": "nonpayable",
      "type": "function"
    },
    {
      "inputs": [
        {
          "components": [
            {
              "internalType": "contract IERC1155",
              "name": "token",
              "type": "address"
            },
            {
              "internalType": "uint256",
              "name": "tokenId",
              "type": "uint256"
            },
            {
              "internalType": "uint256",
              "name": "amount",
              "type": "uint256"
            }
          ],
          "internalType": "struct ERC1155Delegate.Pair[]",
          "name": "pairs",
          "type": "tuple[]"
        },
        {
          "internalType": "address",
          "name": "to",
          "type": "address"
        }
      ],
      "name": "transferBatch",
      "outputs": [],
      "stateMutability": "nonpayable",
      "type": "function"
    }
  ],
  "bytecode": "0x608060405234801561001057600080fd5b5061001c600033610021565b6100c0565b6000828152602081815260408083206001600160a01b038516845290915290205460ff166100bc576000828152602081815260408083206001600160a01b03851684529091529020805460ff1916600117905561007b3390565b6001600160a01b0316816001600160a01b0316837f2f8788117e7eff1d82e926ec794901d17c78024a50270940304540a733656f0d60405160405180910390a45b5050565b61133e806100cf6000396000f3fe608060405234801561001057600080fd5b506004361061010b5760003560e01c806391d14854116100a2578063bc553f0f11610071578063bc553f0f1461023c578063c23725f91461024f578063d547741f14610262578063f23a6e6114610275578063f477e4fd1461029557600080fd5b806391d14854146101d3578063a217fddf146101e6578063b8d3e900146101ee578063bc197c811461020157600080fd5b80632f2ff15d116100de5780632f2ff15d1461018357806336568abe146101985780633672c911146101ab5780638e325979146101be57600080fd5b806301ffc9a7146101105780631672162614610138578063248a9ca31461014b5780632c436e5b1461017c575b600080fd5b61012361011e366004610c68565b6102a8565b60405190151581526020015b60405180910390f35b610123610146366004610cf0565b6102df565b61016e610159366004610d55565b60009081526020819052604090206001015490565b60405190815260200161012f565b600261016e565b610196610191366004610d6e565b6103cb565b005b6101966101a6366004610d6e565b6103f5565b6101236101b9366004610cf0565b610478565b61016e6000805160206112e983398151915281565b6101236101e1366004610d6e565b610556565b61016e600081565b6101966101fc366004610ec5565b61057f565b61022361020f366004610f51565b63bc197c8160e01b98975050505050505050565b6040516001600160e01b0319909116815260200161012f565b61012361024a366004610cf0565b610635565b61012361025d366004611010565b610713565b610196610270366004610d6e565b61080f565b61022361028336600461108c565b63f23a6e6160e01b9695505050505050565b6101236102a3366004610cf0565b610834565b60006001600160e01b03198216637965db0b60e01b14806102d957506301ffc9a760e01b6001600160e01b03198316145b92915050565b60006000805160206112e98339815191526102f981610912565b6000610305858561091f565b905060005b81518110156103bd57600082828151811061032757610327611108565b6020026020010151905061033a81610934565b805160208201516040808401519051637921219560e11b81526001600160a01b039093169263f242432a92610377928e928e92919060040161111e565b600060405180830381600087803b15801561039157600080fd5b505af11580156103a5573d6000803e3d6000fd5b505050505080806103b59061116c565b91505061030a565b506001979650505050505050565b6000828152602081905260409020600101546103e681610912565b6103f0838361097f565b505050565b6001600160a01b038116331461046a5760405162461bcd60e51b815260206004820152602f60248201527f416363657373436f6e74726f6c3a2063616e206f6e6c792072656e6f756e636560448201526e103937b632b9903337b91039b2b63360891b60648201526084015b60405180910390fd5b6104748282610a03565b5050565b60006000805160206112e983398151915261049281610912565b600061049e858561091f565b905060005b81518110156103bd5760008282815181106104c0576104c0611108565b602002602001015190506104d381610934565b805160208201516040808401519051637921219560e11b81526001600160a01b039093169263f242432a926105109230928e92919060040161111e565b600060405180830381600087803b15801561052a57600080fd5b505af115801561053e573d6000803e3d6000fd5b5050505050808061054e9061116c565b9150506104a3565b6000918252602082815260408084206001600160a01b0393909316845291905290205460ff1690565b60005b82518110156103f057600083828151811061059f5761059f611108565b602002602001015190506105b281610934565b805160208201516040808401519051637921219560e11b81526001600160a01b039093169263f242432a926105ef9233928992919060040161111e565b600060405180830381600087803b15801561060957600080fd5b505af115801561061d573d6000803e3d6000fd5b5050505050808061062d9061116c565b915050610582565b60006000805160206112e983398151915261064f81610912565b600061065b858561091f565b905060005b81518110156103bd57600082828151811061067d5761067d611108565b6020026020010151905061069081610934565b805160208201516040808401519051637921219560e11b81526001600160a01b039093169263f242432a926106cd928e928e92919060040161111e565b600060405180830381600087803b1580156106e757600080fd5b505af11580156106fb573d6000803e3d6000fd5b5050505050808061070b9061116c565b915050610660565b60006000805160206112e983398151915261072d81610912565b6001600160a01b038616610802576000610747858561091f565b905060005b81518110156107ff57600082828151811061076957610769611108565b6020026020010151905061077c81610934565b805160208201516040808401519051637921219560e11b81526001600160a01b039093169263f242432a926107b9928f923092919060040161111e565b600060405180830381600087803b1580156107d357600080fd5b505af11580156107e7573d6000803e3d6000fd5b505050505080806107f79061116c565b91505061074c565b50505b5060019695505050505050565b60008281526020819052604090206001015461082a81610912565b6103f08383610a03565b60006000805160206112e983398151915261084e81610912565b600061085a858561091f565b905060005b81518110156103bd57600082828151811061087c5761087c611108565b6020026020010151905061088f81610934565b805160208201516040808401519051637921219560e11b81526001600160a01b039093169263f242432a926108cc9230928f92919060040161111e565b600060405180830381600087803b1580156108e657600080fd5b505af11580156108fa573d6000803e3d6000fd5b5050505050808061090a9061116c565b91505061085f565b61091c8133610a68565b50565b606061092d82840184611185565b9392505050565b600081604001511161091c5760405162461bcd60e51b8152602060048201526014602482015273044656c65676174653a20616d6f756e74203e20360641b6044820152606401610461565b6109898282610556565b610474576000828152602081815260408083206001600160a01b03851684529091529020805460ff191660011790556109bf3390565b6001600160a01b0316816001600160a01b0316837f2f8788117e7eff1d82e926ec794901d17c78024a50270940304540a733656f0d60405160405180910390a45050565b610a0d8282610556565b15610474576000828152602081815260408083206001600160a01b0385168085529252808320805460ff1916905551339285917ff6391f5c32d9c69d2a47ea670b442974b53935d1edc7fd64eb21e047a839171b9190a45050565b610a728282610556565b61047457610a8a816001600160a01b03166014610acc565b610a95836020610acc565b604051602001610aa69291906111f2565b60408051601f198184030181529082905262461bcd60e51b825261046191600401611267565b60606000610adb83600261129a565b610ae69060026112b9565b67ffffffffffffffff811115610afe57610afe610d9e565b6040519080825280601f01601f191660200182016040528015610b28576020820181803683370190505b509050600360fc1b81600081518110610b4357610b43611108565b60200101906001600160f81b031916908160001a905350600f60fb1b81600181518110610b7257610b72611108565b60200101906001600160f81b031916908160001a9053506000610b9684600261129a565b610ba19060016112b9565b90505b6001811115610c19576f181899199a1a9b1b9c1cb0b131b232b360811b85600f1660108110610bd557610bd5611108565b1a60f81b828281518110610beb57610beb611108565b60200101906001600160f81b031916908160001a90535060049490941c93610c12816112d1565b9050610ba4565b50831561092d5760405162461bcd60e51b815260206004820181905260248201527f537472696e67733a20686578206c656e67746820696e73756666696369656e746044820152606401610461565b600060208284031215610c7a57600080fd5b81356001600160e01b03198116811461092d57600080fd5b6001600160a01b038116811461091c57600080fd5b60008083601f840112610cb957600080fd5b50813567ffffffffffffffff811115610cd157600080fd5b602083019150836020828501011115610ce957600080fd5b9250929050565b60008060008060608587031215610d0657600080fd5b8435610d1181610c92565b93506020850135610d2181610c92565b9250604085013567ffffffffffffffff811115610d3d57600080fd5b610d4987828801610ca7565b95989497509550505050565b600060208284031215610d6757600080fd5b5035919050565b60008060408385031215610d8157600080fd5b823591506020830135610d9381610c92565b809150509250929050565b634e487b7160e01b600052604160045260246000fd5b6040516060810167ffffffffffffffff81118282101715610dd757610dd7610d9e565b60405290565b604051601f8201601f1916810167ffffffffffffffff81118282101715610e0657610e06610d9e565b604052919050565b600082601f830112610e1f57600080fd5b8135602067ffffffffffffffff821115610e3b57610e3b610d9e565b610e49818360051b01610ddd565b82815260609283028501820192828201919087851115610e6857600080fd5b8387015b85811015610eb85781818a031215610e845760008081fd5b610e8c610db4565b8135610e9781610c92565b81528186013586820152604080830135908201528452928401928101610e6c565b5090979650505050505050565b60008060408385031215610ed857600080fd5b823567ffffffffffffffff811115610eef57600080fd5b610efb85828601610e0e565b9250506020830135610d9381610c92565b60008083601f840112610f1e57600080fd5b50813567ffffffffffffffff811115610f3657600080fd5b6020830191508360208260051b8501011115610ce957600080fd5b60008060008060008060008060a0898b031215610f6d57600080fd5b8835610f7881610c92565b97506020890135610f8881610c92565b9650604089013567ffffffffffffffff80821115610fa557600080fd5b610fb18c838d01610f0c565b909850965060608b0135915080821115610fca57600080fd5b610fd68c838d01610f0c565b909650945060808b0135915080821115610fef57600080fd5b50610ffc8b828c01610ca7565b999c989b5096995094979396929594505050565b60008060008060006080868803121561102857600080fd5b853561103381610c92565b9450602086013561104381610c92565b9350604086013561105381610c92565b9250606086013567ffffffffffffffff81111561106f57600080fd5b61107b88828901610ca7565b969995985093965092949392505050565b60008060008060008060a087890312156110a557600080fd5b86356110b081610c92565b955060208701356110c081610c92565b94506040870135935060608701359250608087013567ffffffffffffffff8111156110ea57600080fd5b6110f689828a01610ca7565b979a9699509497509295939492505050565b634e487b7160e01b600052603260045260246000fd5b6001600160a01b0394851681529290931660208301526040820152606081019190915260a06080820181905260009082015260c00190565b634e487b7160e01b600052601160045260246000fd5b60006001820161117e5761117e611156565b5060010190565b60006020828403121561119757600080fd5b813567ffffffffffffffff8111156111ae57600080fd5b6111ba84828501610e0e565b949350505050565b60005b838110156111dd5781810151838201526020016111c5565b838111156111ec576000848401525b50505050565b7f416363657373436f6e74726f6c3a206163636f756e742000000000000000000081526000835161122a8160178501602088016111c2565b7001034b99036b4b9b9b4b733903937b6329607d1b601791840191820152835161125b8160288401602088016111c2565b01602801949350505050565b60208152600082518060208401526112868160408501602087016111c2565b601f01601f19169190910160400192915050565b60008160001904831182151516156112b4576112b4611156565b500290565b600082198211156112cc576112cc611156565b500190565b6000816112e0576112e0611156565b50600019019056fe7630198b183b603be5df16e380207195f2a065102b113930ccb600feaf615331a264697066735822122095143a0f0749e59a619c1c8dfa80a6eeb8d80f38d2214e448f52cd41778cbb8864736f6c634300080d0033",
  "immutableReferences": {},
  "source": "// SPDX-License-Identifier: Unlicensed\n\npragma solidity ^0.8.0;\npragma abicoder v2;\n\nimport '@openzeppelin/contracts/token/ERC1155/IERC1155.sol';\nimport '@openzeppelin/contracts/token/ERC1155/IERC1155Receiver.sol';\nimport '@openzeppelin/contracts/access/AccessControl.sol';\nimport './MarketConsts.sol';\nimport './IDelegate.sol';\n\ncontract ERC1155Delegate is IDelegate, AccessControl, IERC1155Receiver {\n    bytes32 public constant DELEGATION_CALLER = keccak256('DELEGATION_CALLER');\n\n    struct Pair {\n        IERC1155 token;\n        uint256 tokenId;\n        uint256 amount;\n    }\n\n    constructor() {\n        _grantRole(DEFAULT_ADMIN_ROLE, msg.sender);\n    }\n\n    function onERC1155Received(\n        address, // operator,\n        address, // from,\n        uint256, // id,\n        uint256, // value,\n        bytes calldata // data\n    ) external override returns (bytes4) {\n        return this.onERC1155Received.selector;\n    }\n\n    function onERC1155BatchReceived(\n        address, // operator,\n        address, // from,\n        uint256[] calldata, // ids,\n        uint256[] calldata, // values,\n        bytes calldata // data\n    ) external override returns (bytes4) {\n        return this.onERC1155BatchReceived.selector;\n    }\n\n    function decode(bytes calldata data) internal pure returns (Pair[] memory) {\n        return abi.decode(data, (Pair[]));\n    }\n\n    function delegateType() external view returns (uint256) {\n        // return uint256(Market.DelegationType.ERC1155);\n        return 2;\n    }\n\n    function executeSell(\n        address seller,\n        address buyer,\n        bytes calldata data\n    ) external onlyRole(DELEGATION_CALLER) returns (bool) {\n        Pair[] memory pairs = decode(data);\n        for (uint256 i = 0; i < pairs.length; i++) {\n            Pair memory p = pairs[i];\n            _assertAmount(p);\n            p.token.safeTransferFrom(seller, buyer, p.tokenId, p.amount, '');\n        }\n        return true;\n    }\n\n    function executeBuy(\n        address seller,\n        address buyer,\n        bytes calldata data\n    ) external onlyRole(DELEGATION_CALLER) returns (bool) {\n        Pair[] memory pairs = decode(data);\n        for (uint256 i = 0; i < pairs.length; i++) {\n            Pair memory p = pairs[i];\n            _assertAmount(p);\n            p.token.safeTransferFrom(seller, buyer, p.tokenId, p.amount, '');\n        }\n        return true;\n    }\n\n    function executeBid(\n        address seller,\n        address previousBidder,\n        address, // bidder,\n        bytes calldata data\n    ) external onlyRole(DELEGATION_CALLER) returns (bool) {\n        if (previousBidder == address(0)) {\n            Pair[] memory pairs = decode(data);\n            for (uint256 i = 0; i < pairs.length; i++) {\n                Pair memory p = pairs[i];\n                _assertAmount(p);\n                p.token.safeTransferFrom(seller, address(this), p.tokenId, p.amount, '');\n            }\n        }\n        return true;\n    }\n\n    function executeAuctionComplete(\n        address, // seller,\n        address buyer,\n        bytes calldata data\n    ) external onlyRole(DELEGATION_CALLER) returns (bool) {\n        Pair[] memory pairs = decode(data);\n        for (uint256 i = 0; i < pairs.length; i++) {\n            Pair memory p = pairs[i];\n            _assertAmount(p);\n            p.token.safeTransferFrom(address(this), buyer, p.tokenId, p.amount, '');\n        }\n        return true;\n    }\n\n    function executeAuctionRefund(\n        address seller,\n        address, // lastBidder,\n        bytes calldata data\n    ) external onlyRole(DELEGATION_CALLER) returns (bool) {\n        Pair[] memory pairs = decode(data);\n        for (uint256 i = 0; i < pairs.length; i++) {\n            Pair memory p = pairs[i];\n            _assertAmount(p);\n            p.token.safeTransferFrom(address(this), seller, p.tokenId, p.amount, '');\n        }\n        return true;\n    }\n\n    function transferBatch(Pair[] memory pairs, address to) public {\n        for (uint256 i = 0; i < pairs.length; i++) {\n            Pair memory p = pairs[i];\n            _assertAmount(p);\n            p.token.safeTransferFrom(msg.sender, to, p.tokenId, p.amount, '');\n        }\n    }\n\n    function _assertAmount(Pair memory p) internal {\n        require(p.amount > 0, 'Delegate: amount > 0');\n    }\n}",
  "sourcePath": "/Users/ds/Documents/rarible/scripts/contracts/x2y2/ERC1155Delegate.sol",
  "compiler": {
    "name": "solc",
    "version": "0.8.13+commit.abaa5c0e.Emscripten.clang"
  },
  "schemaVersion": "3.4.3",
  "updatedAt": "2022-10-24T12:50:30.563Z",
  "devdoc": {
    "kind": "dev",
    "methods": {
      "getRoleAdmin(bytes32)": {
        "details": "Returns the admin role that controls `role`. See {grantRole} and {revokeRole}. To change a role's admin, use {_setRoleAdmin}."
      },
      "grantRole(bytes32,address)": {
        "details": "Grants `role` to `account`. If `account` had not been already granted `role`, emits a {RoleGranted} event. Requirements: - the caller must have ``role``'s admin role. May emit a {RoleGranted} event."
      },
      "hasRole(bytes32,address)": {
        "details": "Returns `true` if `account` has been granted `role`."
      },
      "renounceRole(bytes32,address)": {
        "details": "Revokes `role` from the calling account. Roles are often managed via {grantRole} and {revokeRole}: this function's purpose is to provide a mechanism for accounts to lose their privileges if they are compromised (such as when a trusted device is misplaced). If the calling account had been revoked `role`, emits a {RoleRevoked} event. Requirements: - the caller must be `account`. May emit a {RoleRevoked} event."
      },
      "revokeRole(bytes32,address)": {
        "details": "Revokes `role` from `account`. If `account` had been granted `role`, emits a {RoleRevoked} event. Requirements: - the caller must have ``role``'s admin role. May emit a {RoleRevoked} event."
      },
      "supportsInterface(bytes4)": {
        "details": "See {IERC165-supportsInterface}."
      }
    },
    "version": 1
  },
  "userdoc": {
    "kind": "user",
    "methods": {},
    "version": 1
  }
}