{
  "contractName": "ERC721Delegate",
  "abi": [
    {
      "inputs": [],
      "stateMutability": "nonpayable",
      "type": "constructor"
    },
    {
      "anonymous": false,
      "inputs": [
        {
          "indexed": true,
          "internalType": "bytes32",
          "name": "role",
          "type": "bytes32"
        },
        {
          "indexed": true,
          "internalType": "bytes32",
          "name": "previousAdminRole",
          "type": "bytes32"
        },
        {
          "indexed": true,
          "internalType": "bytes32",
          "name": "newAdminRole",
          "type": "bytes32"
        }
      ],
      "name": "RoleAdminChanged",
      "type": "event"
    },
    {
      "anonymous": false,
      "inputs": [
        {
          "indexed": true,
          "internalType": "bytes32",
          "name": "role",
          "type": "bytes32"
        },
        {
          "indexed": true,
          "internalType": "address",
          "name": "account",
          "type": "address"
        },
        {
          "indexed": true,
          "internalType": "address",
          "name": "sender",
          "type": "address"
        }
      ],
      "name": "RoleGranted",
      "type": "event"
    },
    {
      "anonymous": false,
      "inputs": [
        {
          "indexed": true,
          "internalType": "bytes32",
          "name": "role",
          "type": "bytes32"
        },
        {
          "indexed": true,
          "internalType": "address",
          "name": "account",
          "type": "address"
        },
        {
          "indexed": true,
          "internalType": "address",
          "name": "sender",
          "type": "address"
        }
      ],
      "name": "RoleRevoked",
      "type": "event"
    },
    {
      "inputs": [],
      "name": "DEFAULT_ADMIN_ROLE",
      "outputs": [
        {
          "internalType": "bytes32",
          "name": "",
          "type": "bytes32"
        }
      ],
      "stateMutability": "view",
      "type": "function"
    },
    {
      "inputs": [],
      "name": "DELEGATION_CALLER",
      "outputs": [
        {
          "internalType": "bytes32",
          "name": "",
          "type": "bytes32"
        }
      ],
      "stateMutability": "view",
      "type": "function"
    },
    {
      "inputs": [
        {
          "internalType": "bytes32",
          "name": "role",
          "type": "bytes32"
        }
      ],
      "name": "getRoleAdmin",
      "outputs": [
        {
          "internalType": "bytes32",
          "name": "",
          "type": "bytes32"
        }
      ],
      "stateMutability": "view",
      "type": "function"
    },
    {
      "inputs": [
        {
          "internalType": "bytes32",
          "name": "role",
          "type": "bytes32"
        },
        {
          "internalType": "address",
          "name": "account",
          "type": "address"
        }
      ],
      "name": "grantRole",
      "outputs": [],
      "stateMutability": "nonpayable",
      "type": "function"
    },
    {
      "inputs": [
        {
          "internalType": "bytes32",
          "name": "role",
          "type": "bytes32"
        },
        {
          "internalType": "address",
          "name": "account",
          "type": "address"
        }
      ],
      "name": "hasRole",
      "outputs": [
        {
          "internalType": "bool",
          "name": "",
          "type": "bool"
        }
      ],
      "stateMutability": "view",
      "type": "function"
    },
    {
      "inputs": [
        {
          "internalType": "bytes32",
          "name": "role",
          "type": "bytes32"
        },
        {
          "internalType": "address",
          "name": "account",
          "type": "address"
        }
      ],
      "name": "renounceRole",
      "outputs": [],
      "stateMutability": "nonpayable",
      "type": "function"
    },
    {
      "inputs": [
        {
          "internalType": "bytes32",
          "name": "role",
          "type": "bytes32"
        },
        {
          "internalType": "address",
          "name": "account",
          "type": "address"
        }
      ],
      "name": "revokeRole",
      "outputs": [],
      "stateMutability": "nonpayable",
      "type": "function"
    },
    {
      "inputs": [
        {
          "internalType": "bytes4",
          "name": "interfaceId",
          "type": "bytes4"
        }
      ],
      "name": "supportsInterface",
      "outputs": [
        {
          "internalType": "bool",
          "name": "",
          "type": "bool"
        }
      ],
      "stateMutability": "view",
      "type": "function"
    },
    {
      "inputs": [
        {
          "internalType": "address",
          "name": "",
          "type": "address"
        },
        {
          "internalType": "address",
          "name": "",
          "type": "address"
        },
        {
          "internalType": "uint256",
          "name": "",
          "type": "uint256"
        },
        {
          "internalType": "bytes",
          "name": "",
          "type": "bytes"
        }
      ],
      "name": "onERC721Received",
      "outputs": [
        {
          "internalType": "bytes4",
          "name": "",
          "type": "bytes4"
        }
      ],
      "stateMutability": "nonpayable",
      "type": "function"
    },
    {
      "inputs": [],
      "name": "delegateType",
      "outputs": [
        {
          "internalType": "uint256",
          "name": "",
          "type": "uint256"
        }
      ],
      "stateMutability": "view",
      "type": "function"
    },
    {
      "inputs": [
        {
          "internalType": "address",
          "name": "seller",
          "type": "address"
        },
        {
          "internalType": "address",
          "name": "buyer",
          "type": "address"
        },
        {
          "internalType": "bytes",
          "name": "data",
          "type": "bytes"
        }
      ],
      "name": "executeSell",
      "outputs": [
        {
          "internalType": "bool",
          "name": "",
          "type": "bool"
        }
      ],
      "stateMutability": "nonpayable",
      "type": "function"
    },
    {
      "inputs": [
        {
          "internalType": "address",
          "name": "seller",
          "type": "address"
        },
        {
          "internalType": "address",
          "name": "buyer",
          "type": "address"
        },
        {
          "internalType": "bytes",
          "name": "data",
          "type": "bytes"
        }
      ],
      "name": "executeBuy",
      "outputs": [
        {
          "internalType": "bool",
          "name": "",
          "type": "bool"
        }
      ],
      "stateMutability": "nonpayable",
      "type": "function"
    },
    {
      "inputs": [
        {
          "internalType": "address",
          "name": "seller",
          "type": "address"
        },
        {
          "internalType": "address",
          "name": "previousBidder",
          "type": "address"
        },
        {
          "internalType": "address",
          "name": "",
          "type": "address"
        },
        {
          "internalType": "bytes",
          "name": "data",
          "type": "bytes"
        }
      ],
      "name": "executeBid",
      "outputs": [
        {
          "internalType": "bool",
          "name": "",
          "type": "bool"
        }
      ],
      "stateMutability": "nonpayable",
      "type": "function"
    },
    {
      "inputs": [
        {
          "internalType": "address",
          "name": "",
          "type": "address"
        },
        {
          "internalType": "address",
          "name": "buyer",
          "type": "address"
        },
        {
          "internalType": "bytes",
          "name": "data",
          "type": "bytes"
        }
      ],
      "name": "executeAuctionComplete",
      "outputs": [
        {
          "internalType": "bool",
          "name": "",
          "type": "bool"
        }
      ],
      "stateMutability": "nonpayable",
      "type": "function"
    },
    {
      "inputs": [
        {
          "internalType": "address",
          "name": "seller",
          "type": "address"
        },
        {
          "internalType": "address",
          "name": "",
          "type": "address"
        },
        {
          "internalType": "bytes",
          "name": "data",
          "type": "bytes"
        }
      ],
      "name": "executeAuctionRefund",
      "outputs": [
        {
          "internalType": "bool",
          "name": "",
          "type": "bool"
        }
      ],
      "stateMutability": "nonpayable",
      "type": "function"
    },
    {
      "inputs": [
        {
          "components": [
            {
              "internalType": "contract IERC721",
              "name": "token",
              "type": "address"
            },
            {
              "internalType": "uint256",
              "name": "tokenId",
              "type": "uint256"
            }
          ],
          "internalType": "struct ERC721Delegate.Pair[]",
          "name": "pairs",
          "type": "tuple[]"
        },
        {
          "internalType": "address",
          "name": "to",
          "type": "address"
        }
      ],
      "name": "transferBatch",
      "outputs": [],
      "stateMutability": "nonpayable",
      "type": "function"
    }
  ],
  "bytecode": "0x608060405234801561001057600080fd5b5061001c600033610021565b6100c0565b6000828152602081815260408083206001600160a01b038516845290915290205460ff166100bc576000828152602081815260408083206001600160a01b03851684529091529020805460ff1916600117905561007b3390565b6001600160a01b0316816001600160a01b0316837f2f8788117e7eff1d82e926ec794901d17c78024a50270940304540a733656f0d60405160405180910390a45b5050565b611128806100cf6000396000f3fe608060405234801561001057600080fd5b50600436106101005760003560e01c80633cbf4f8a11610097578063bc553f0f11610066578063bc553f0f1461022e578063c23725f914610241578063d547741f14610254578063f477e4fd1461026757600080fd5b80633cbf4f8a146101eb5780638e325979146101fe57806391d1485414610213578063a217fddf1461022657600080fd5b80632c436e5b116100d35780632c436e5b146101a95780632f2ff15d146101b057806336568abe146101c55780633672c911146101d857600080fd5b806301ffc9a714610105578063150b7a021461012d5780631672162614610165578063248a9ca314610178575b600080fd5b610118610113366004610b95565b61027a565b60405190151581526020015b60405180910390f35b61014c61013b366004610c20565b630a85bd0160e11b95945050505050565b6040516001600160e01b03199091168152602001610124565b610118610173366004610c93565b6102b1565b61019b610186366004610cf8565b60009081526020819052604090206001015490565b604051908152602001610124565b600161019b565b6101c36101be366004610d11565b610390565b005b6101c36101d3366004610d11565b6103bb565b6101186101e6366004610c93565b61043e565b6101c36101f9366004610e5e565b61050f565b61019b6000805160206110d383398151915281565b610118610221366004610d11565b6105b7565b61019b600081565b61011861023c366004610c93565b6105e0565b61011861024f366004610ea5565b6106b1565b6101c3610262366004610d11565b6107a0565b610118610275366004610c93565b6107c6565b60006001600160e01b03198216637965db0b60e01b14806102ab57506301ffc9a760e01b6001600160e01b03198316145b92915050565b60006000805160206110d38339815191526102cc8133610897565b60006102d885856108fb565b905060005b81518110156103825760008282815181106102fa576102fa610f04565b6020026020010151905080600001516001600160a01b03166342842e0e8a8a84602001516040518463ffffffff1660e01b815260040161033c93929190610f1a565b600060405180830381600087803b15801561035657600080fd5b505af115801561036a573d6000803e3d6000fd5b5050505050808061037a90610f54565b9150506102dd565b506001979650505050505050565b6000828152602081905260409020600101546103ac8133610897565b6103b68383610910565b505050565b6001600160a01b03811633146104305760405162461bcd60e51b815260206004820152602f60248201527f416363657373436f6e74726f6c3a2063616e206f6e6c792072656e6f756e636560448201526e103937b632b9903337b91039b2b63360891b60648201526084015b60405180910390fd5b61043a8282610994565b5050565b60006000805160206110d38339815191526104598133610897565b600061046585856108fb565b905060005b815181101561038257600082828151811061048757610487610f04565b6020026020010151905080600001516001600160a01b03166342842e0e308a84602001516040518463ffffffff1660e01b81526004016104c993929190610f1a565b600060405180830381600087803b1580156104e357600080fd5b505af11580156104f7573d6000803e3d6000fd5b5050505050808061050790610f54565b91505061046a565b60005b82518110156103b657600083828151811061052f5761052f610f04565b6020026020010151905080600001516001600160a01b03166342842e0e338584602001516040518463ffffffff1660e01b815260040161057193929190610f1a565b600060405180830381600087803b15801561058b57600080fd5b505af115801561059f573d6000803e3d6000fd5b505050505080806105af90610f54565b915050610512565b6000918252602082815260408084206001600160a01b0393909316845291905290205460ff1690565b60006000805160206110d38339815191526105fb8133610897565b600061060785856108fb565b905060005b815181101561038257600082828151811061062957610629610f04565b6020026020010151905080600001516001600160a01b03166342842e0e8a8a84602001516040518463ffffffff1660e01b815260040161066b93929190610f1a565b600060405180830381600087803b15801561068557600080fd5b505af1158015610699573d6000803e3d6000fd5b505050505080806106a990610f54565b91505061060c565b60006000805160206110d38339815191526106cc8133610897565b6001600160a01b0386166107935760006106e685856108fb565b905060005b815181101561079057600082828151811061070857610708610f04565b6020026020010151905080600001516001600160a01b03166342842e0e8b3084602001516040518463ffffffff1660e01b815260040161074a93929190610f1a565b600060405180830381600087803b15801561076457600080fd5b505af1158015610778573d6000803e3d6000fd5b5050505050808061078890610f54565b9150506106eb565b50505b5060019695505050505050565b6000828152602081905260409020600101546107bc8133610897565b6103b68383610994565b60006000805160206110d38339815191526107e18133610897565b60006107ed85856108fb565b905060005b815181101561038257600082828151811061080f5761080f610f04565b6020026020010151905080600001516001600160a01b03166342842e0e308b84602001516040518463ffffffff1660e01b815260040161085193929190610f1a565b600060405180830381600087803b15801561086b57600080fd5b505af115801561087f573d6000803e3d6000fd5b5050505050808061088f90610f54565b9150506107f2565b6108a182826105b7565b61043a576108b9816001600160a01b031660146109f9565b6108c48360206109f9565b6040516020016108d5929190610f9f565b60408051601f198184030181529082905262461bcd60e51b825261042791600401611014565b606061090982840184611047565b9392505050565b61091a82826105b7565b61043a576000828152602081815260408083206001600160a01b03851684529091529020805460ff191660011790556109503390565b6001600160a01b0316816001600160a01b0316837f2f8788117e7eff1d82e926ec794901d17c78024a50270940304540a733656f0d60405160405180910390a45050565b61099e82826105b7565b1561043a576000828152602081815260408083206001600160a01b0385168085529252808320805460ff1916905551339285917ff6391f5c32d9c69d2a47ea670b442974b53935d1edc7fd64eb21e047a839171b9190a45050565b60606000610a08836002611084565b610a139060026110a3565b67ffffffffffffffff811115610a2b57610a2b610d41565b6040519080825280601f01601f191660200182016040528015610a55576020820181803683370190505b509050600360fc1b81600081518110610a7057610a70610f04565b60200101906001600160f81b031916908160001a905350600f60fb1b81600181518110610a9f57610a9f610f04565b60200101906001600160f81b031916908160001a9053506000610ac3846002611084565b610ace9060016110a3565b90505b6001811115610b46576f181899199a1a9b1b9c1cb0b131b232b360811b85600f1660108110610b0257610b02610f04565b1a60f81b828281518110610b1857610b18610f04565b60200101906001600160f81b031916908160001a90535060049490941c93610b3f816110bb565b9050610ad1565b5083156109095760405162461bcd60e51b815260206004820181905260248201527f537472696e67733a20686578206c656e67746820696e73756666696369656e746044820152606401610427565b600060208284031215610ba757600080fd5b81356001600160e01b03198116811461090957600080fd5b6001600160a01b0381168114610bd457600080fd5b50565b60008083601f840112610be957600080fd5b50813567ffffffffffffffff811115610c0157600080fd5b602083019150836020828501011115610c1957600080fd5b9250929050565b600080600080600060808688031215610c3857600080fd5b8535610c4381610bbf565b94506020860135610c5381610bbf565b935060408601359250606086013567ffffffffffffffff811115610c7657600080fd5b610c8288828901610bd7565b969995985093965092949392505050565b60008060008060608587031215610ca957600080fd5b8435610cb481610bbf565b93506020850135610cc481610bbf565b9250604085013567ffffffffffffffff811115610ce057600080fd5b610cec87828801610bd7565b95989497509550505050565b600060208284031215610d0a57600080fd5b5035919050565b60008060408385031215610d2457600080fd5b823591506020830135610d3681610bbf565b809150509250929050565b634e487b7160e01b600052604160045260246000fd5b6040805190810167ffffffffffffffff81118282101715610d7a57610d7a610d41565b60405290565b604051601f8201601f1916810167ffffffffffffffff81118282101715610da957610da9610d41565b604052919050565b600082601f830112610dc257600080fd5b8135602067ffffffffffffffff821115610dde57610dde610d41565b610dec818360051b01610d80565b82815260069290921b84018101918181019086841115610e0b57600080fd5b8286015b84811015610e535760408189031215610e285760008081fd5b610e30610d57565b8135610e3b81610bbf565b81528185013585820152835291830191604001610e0f565b509695505050505050565b60008060408385031215610e7157600080fd5b823567ffffffffffffffff811115610e8857600080fd5b610e9485828601610db1565b9250506020830135610d3681610bbf565b600080600080600060808688031215610ebd57600080fd5b8535610ec881610bbf565b94506020860135610ed881610bbf565b93506040860135610ee881610bbf565b9250606086013567ffffffffffffffff811115610c7657600080fd5b634e487b7160e01b600052603260045260246000fd5b6001600160a01b039384168152919092166020820152604081019190915260600190565b634e487b7160e01b600052601160045260246000fd5b6000600019821415610f6857610f68610f3e565b5060010190565b60005b83811015610f8a578181015183820152602001610f72565b83811115610f99576000848401525b50505050565b7f416363657373436f6e74726f6c3a206163636f756e7420000000000000000000815260008351610fd7816017850160208801610f6f565b7001034b99036b4b9b9b4b733903937b6329607d1b6017918401918201528351611008816028840160208801610f6f565b01602801949350505050565b6020815260008251806020840152611033816040850160208701610f6f565b601f01601f19169190910160400192915050565b60006020828403121561105957600080fd5b813567ffffffffffffffff81111561107057600080fd5b61107c84828501610db1565b949350505050565b600081600019048311821515161561109e5761109e610f3e565b500290565b600082198211156110b6576110b6610f3e565b500190565b6000816110ca576110ca610f3e565b50600019019056fe7630198b183b603be5df16e380207195f2a065102b113930ccb600feaf615331a2646970667358221220e81fc969bae0f193d59ae4f7c0c9ebcfe54d683fd2ddad59adb21d53f716605d64736f6c634300080b0033",
  "immutableReferences": {},
  "source": "// SPDX-License-Identifier: Unlicensed\n\npragma solidity ^0.8.0;\npragma abicoder v2;\n\nimport '@openzeppelin/contracts/token/ERC721/IERC721.sol';\nimport '@openzeppelin/contracts/token/ERC721/IERC721Receiver.sol';\nimport '@openzeppelin/contracts/access/AccessControl.sol';\nimport './MarketConsts.sol';\nimport './IDelegate.sol';\n\ncontract ERC721Delegate is IDelegate, AccessControl, IERC721Receiver {\n    bytes32 public constant DELEGATION_CALLER = keccak256('DELEGATION_CALLER');\n\n    struct Pair {\n        IERC721 token;\n        uint256 tokenId;\n    }\n\n    constructor() {\n        _grantRole(DEFAULT_ADMIN_ROLE, msg.sender);\n    }\n\n    function onERC721Received(\n        address,\n        address,\n        uint256,\n        bytes calldata\n    ) external override returns (bytes4) {\n        return this.onERC721Received.selector;\n    }\n\n    function decode(bytes calldata data) internal pure returns (Pair[] memory) {\n        return abi.decode(data, (Pair[]));\n    }\n\n    function delegateType() external view returns (uint256) {\n        // return uint256(Market.DelegationType.ERC721);\n        return 1;\n    }\n\n    function executeSell(\n        address seller,\n        address buyer,\n        bytes calldata data\n    ) external onlyRole(DELEGATION_CALLER) returns (bool) {\n        Pair[] memory pairs = decode(data);\n        for (uint256 i = 0; i < pairs.length; i++) {\n            Pair memory p = pairs[i];\n            p.token.safeTransferFrom(seller, buyer, p.tokenId);\n        }\n        return true;\n    }\n\n    function executeBuy(\n        address seller,\n        address buyer,\n        bytes calldata data\n    ) external onlyRole(DELEGATION_CALLER) returns (bool) {\n        Pair[] memory pairs = decode(data);\n        for (uint256 i = 0; i < pairs.length; i++) {\n            Pair memory p = pairs[i];\n            p.token.safeTransferFrom(seller, buyer, p.tokenId);\n        }\n        return true;\n    }\n\n    function executeBid(\n        address seller,\n        address previousBidder,\n        address, // bidder,\n        bytes calldata data\n    ) external onlyRole(DELEGATION_CALLER) returns (bool) {\n        if (previousBidder == address(0)) {\n            Pair[] memory pairs = decode(data);\n            for (uint256 i = 0; i < pairs.length; i++) {\n                Pair memory p = pairs[i];\n                p.token.safeTransferFrom(seller, address(this), p.tokenId);\n            }\n        }\n        return true;\n    }\n\n    function executeAuctionComplete(\n        address, // seller,\n        address buyer,\n        bytes calldata data\n    ) external onlyRole(DELEGATION_CALLER) returns (bool) {\n        Pair[] memory pairs = decode(data);\n        for (uint256 i = 0; i < pairs.length; i++) {\n            Pair memory p = pairs[i];\n            p.token.safeTransferFrom(address(this), buyer, p.tokenId);\n        }\n        return true;\n    }\n\n    function executeAuctionRefund(\n        address seller,\n        address, // lastBidder,\n        bytes calldata data\n    ) external onlyRole(DELEGATION_CALLER) returns (bool) {\n        Pair[] memory pairs = decode(data);\n        for (uint256 i = 0; i < pairs.length; i++) {\n            Pair memory p = pairs[i];\n            p.token.safeTransferFrom(address(this), seller, p.tokenId);\n        }\n        return true;\n    }\n\n    function transferBatch(Pair[] memory pairs, address to) public {\n        for (uint256 i = 0; i < pairs.length; i++) {\n            Pair memory p = pairs[i];\n            p.token.safeTransferFrom(msg.sender, to, p.tokenId);\n        }\n    }\n}",
  "sourcePath": "/Users/ds/Documents/rarible/scripts/contracts/x2y2/ERC721Delegate.sol",
  "compiler": {
    "name": "solc",
    "version": "0.8.11+commit.d7f03943.Emscripten.clang"
  },
  "schemaVersion": "3.4.3",
  "updatedAt": "2022-07-23T06:30:44.162Z",
  "devdoc": {
    "kind": "dev",
    "methods": {
      "getRoleAdmin(bytes32)": {
        "details": "Returns the admin role that controls `role`. See {grantRole} and {revokeRole}. To change a role's admin, use {_setRoleAdmin}."
      },
      "grantRole(bytes32,address)": {
        "details": "Grants `role` to `account`. If `account` had not been already granted `role`, emits a {RoleGranted} event. Requirements: - the caller must have ``role``'s admin role."
      },
      "hasRole(bytes32,address)": {
        "details": "Returns `true` if `account` has been granted `role`."
      },
      "renounceRole(bytes32,address)": {
        "details": "Revokes `role` from the calling account. Roles are often managed via {grantRole} and {revokeRole}: this function's purpose is to provide a mechanism for accounts to lose their privileges if they are compromised (such as when a trusted device is misplaced). If the calling account had been revoked `role`, emits a {RoleRevoked} event. Requirements: - the caller must be `account`."
      },
      "revokeRole(bytes32,address)": {
        "details": "Revokes `role` from `account`. If `account` had been granted `role`, emits a {RoleRevoked} event. Requirements: - the caller must have ``role``'s admin role."
      },
      "supportsInterface(bytes4)": {
        "details": "See {IERC165-supportsInterface}."
      }
    },
    "version": 1
  },
  "userdoc": {
    "kind": "user",
    "methods": {},
    "version": 1
  }
}