{
  "contractName": "ERC721TransferHelper",
  "abi": [
    {
      "inputs": [
        {
          "internalType": "address",
          "name": "_approvalsManager",
          "type": "address"
        }
      ],
      "stateMutability": "nonpayable",
      "type": "constructor"
    },
    {
      "inputs": [],
      "name": "ZMM",
      "outputs": [
        {
          "internalType": "contract ZoraModuleManager",
          "name": "",
          "type": "address"
        }
      ],
      "stateMutability": "view",
      "type": "function"
    },
    {
      "inputs": [
        {
          "internalType": "address",
          "name": "_user",
          "type": "address"
        }
      ],
      "name": "isModuleApproved",
      "outputs": [
        {
          "internalType": "bool",
          "name": "",
          "type": "bool"
        }
      ],
      "stateMutability": "view",
      "type": "function"
    },
    {
      "inputs": [
        {
          "internalType": "address",
          "name": "_token",
          "type": "address"
        },
        {
          "internalType": "address",
          "name": "_from",
          "type": "address"
        },
        {
          "internalType": "address",
          "name": "_to",
          "type": "address"
        },
        {
          "internalType": "uint256",
          "name": "_tokenId",
          "type": "uint256"
        }
      ],
      "name": "safeTransferFrom",
      "outputs": [],
      "stateMutability": "nonpayable",
      "type": "function"
    },
    {
      "inputs": [
        {
          "internalType": "address",
          "name": "_token",
          "type": "address"
        },
        {
          "internalType": "address",
          "name": "_from",
          "type": "address"
        },
        {
          "internalType": "address",
          "name": "_to",
          "type": "address"
        },
        {
          "internalType": "uint256",
          "name": "_tokenId",
          "type": "uint256"
        }
      ],
      "name": "transferFrom",
      "outputs": [],
      "stateMutability": "nonpayable",
      "type": "function"
    }
  ],
  "bytecode": "0x60a060405234801561001057600080fd5b506040516104a53803806104a583398101604081905261002f916100b0565b806001600160a01b03811661009e5760405162461bcd60e51b815260206004820152602b60248201527f6d75737420736574206d6f64756c65206d616e6167657220746f206e6f6e2d7a60448201526a65726f206164647265737360a81b606482015260840160405180910390fd5b6001600160a01b0316608052506100e0565b6000602082840312156100c257600080fd5b81516001600160a01b03811681146100d957600080fd5b9392505050565b6080516103a46101016000396000818160a601526101a901526103a46000f3fe608060405234801561001057600080fd5b506004361061004c5760003560e01c806315dacbea1461005157806372d2769214610066578063d9fc4b611461008e578063e3e606f0146100a1575b600080fd5b61006461005f36600461029b565b6100e0565b005b6100796100743660046102e6565b610181565b60405190151581526020015b60405180910390f35b61006461009c36600461029b565b61021c565b6100c87f000000000000000000000000000000000000000000000000000000000000000081565b6040516001600160a01b039091168152602001610085565b826100ea81610181565b61010f5760405162461bcd60e51b815260040161010690610308565b60405180910390fd5b6040516323b872dd60e01b81526001600160a01b0385811660048301528481166024830152604482018490528616906323b872dd906064015b600060405180830381600087803b15801561016257600080fd5b505af1158015610176573d6000803e3d6000fd5b505050505050505050565b6040516306e86d9360e31b81526001600160a01b0382811660048301523360248301526000917f0000000000000000000000000000000000000000000000000000000000000000909116906337436c9890604401602060405180830381865afa1580156101f2573d6000803e3d6000fd5b505050506040513d601f19601f82011682018060405250810190610216919061034c565b92915050565b8261022681610181565b6102425760405162461bcd60e51b815260040161010690610308565b604051632142170760e11b81526001600160a01b0385811660048301528481166024830152604482018490528616906342842e0e90606401610148565b80356001600160a01b038116811461029657600080fd5b919050565b600080600080608085870312156102b157600080fd5b6102ba8561027f565b93506102c86020860161027f565b92506102d66040860161027f565b9396929550929360600135925050565b6000602082840312156102f857600080fd5b6103018261027f565b9392505050565b60208082526024908201527f6d6f64756c6520686173206e6f74206265656e20617070726f766564206279206040820152633ab9b2b960e11b606082015260800190565b60006020828403121561035e57600080fd5b8151801515811461030157600080fdfea26469706673582212208b6eba2006e972989af4c5ac8f8534fa82fdfbdc7a9599c28a996547db797b5664736f6c634300080a0033",
  "immutableReferences": {
    "16083": [
      {
        "length": 32,
        "start": 166
      },
      {
        "length": 32,
        "start": 425
      }
    ]
  },
  "source": "// SPDX-License-Identifier: GPL-3.0\npragma solidity 0.8.10;\n\nimport {IERC721} from \"@openzeppelin/contracts/token/ERC721/IERC721.sol\";\nimport {BaseTransferHelper} from \"./BaseTransferHelper.sol\";\n\n/// @title ERC-721 Transfer Helper\n/// @author tbtstl <t@zora.co>\n/// @notice This contract provides modules the ability to transfer ZORA user ERC-721s with their permission\ncontract ERC721TransferHelper is BaseTransferHelper {\n    constructor(address _approvalsManager) BaseTransferHelper(_approvalsManager) {}\n\n    function safeTransferFrom(\n        address _token,\n        address _from,\n        address _to,\n        uint256 _tokenId\n    ) public onlyApprovedModule(_from) {\n        IERC721(_token).safeTransferFrom(_from, _to, _tokenId);\n    }\n\n    function transferFrom(\n        address _token,\n        address _from,\n        address _to,\n        uint256 _tokenId\n    ) public onlyApprovedModule(_from) {\n        IERC721(_token).transferFrom(_from, _to, _tokenId);\n    }\n}\n",
  "sourcePath": "/Users/ds/Documents/rarible/scripts/contracts/transferHelpers/ERC721TransferHelper.sol",
  "compiler": {
    "name": "solc",
    "version": "0.8.10+commit.fc410830.Emscripten.clang"
  },
  "schemaVersion": "3.4.3",
  "updatedAt": "2022-04-04T14:37:20.296Z",
  "devdoc": {
    "author": "tbtstl <t@zora.co>",
    "kind": "dev",
    "methods": {
      "isModuleApproved(address)": {
        "params": {
          "_user": "The address of the user"
        }
      }
    },
    "title": "ERC-721 Transfer Helper",
    "version": 1
  },
  "userdoc": {
    "kind": "user",
    "methods": {
      "ZMM()": {
        "notice": "The ZORA Module Manager"
      },
      "isModuleApproved(address)": {
        "notice": "If a user has approved the module they're calling"
      }
    },
    "notice": "This contract provides modules the ability to transfer ZORA user ERC-721s with their permission",
    "version": 1
  }
}