{
  "contractName": "LSSVMRouter",
  "abi": [
    {
      "inputs": [
        {
          "internalType": "contract ILSSVMPairFactoryLike",
          "name": "_factory",
          "type": "address"
        }
      ],
      "stateMutability": "nonpayable",
      "type": "constructor"
    },
    {
      "inputs": [],
      "name": "factory",
      "outputs": [
        {
          "internalType": "contract ILSSVMPairFactoryLike",
          "name": "",
          "type": "address"
        }
      ],
      "stateMutability": "view",
      "type": "function"
    },
    {
      "stateMutability": "payable",
      "type": "receive"
    },
    {
      "inputs": [
        {
          "components": [
            {
              "internalType": "contract LSSVMPair",
              "name": "pair",
              "type": "address"
            },
            {
              "internalType": "uint256",
              "name": "numItems",
              "type": "uint256"
            }
          ],
          "internalType": "struct LSSVMRouter.PairSwapAny[]",
          "name": "swapList",
          "type": "tuple[]"
        },
        {
          "internalType": "address payable",
          "name": "ethRecipient",
          "type": "address"
        },
        {
          "internalType": "address",
          "name": "nftRecipient",
          "type": "address"
        },
        {
          "internalType": "uint256",
          "name": "deadline",
          "type": "uint256"
        }
      ],
      "name": "swapETHForAnyNFTs",
      "outputs": [
        {
          "internalType": "uint256",
          "name": "remainingValue",
          "type": "uint256"
        }
      ],
      "stateMutability": "payable",
      "type": "function"
    },
    {
      "inputs": [
        {
          "components": [
            {
              "internalType": "contract LSSVMPair",
              "name": "pair",
              "type": "address"
            },
            {
              "internalType": "uint256[]",
              "name": "nftIds",
              "type": "uint256[]"
            }
          ],
          "internalType": "struct LSSVMRouter.PairSwapSpecific[]",
          "name": "swapList",
          "type": "tuple[]"
        },
        {
          "internalType": "address payable",
          "name": "ethRecipient",
          "type": "address"
        },
        {
          "internalType": "address",
          "name": "nftRecipient",
          "type": "address"
        },
        {
          "internalType": "uint256",
          "name": "deadline",
          "type": "uint256"
        }
      ],
      "name": "swapETHForSpecificNFTs",
      "outputs": [
        {
          "internalType": "uint256",
          "name": "remainingValue",
          "type": "uint256"
        }
      ],
      "stateMutability": "payable",
      "type": "function"
    },
    {
      "inputs": [
        {
          "components": [
            {
              "components": [
                {
                  "internalType": "contract LSSVMPair",
                  "name": "pair",
                  "type": "address"
                },
                {
                  "internalType": "uint256[]",
                  "name": "nftIds",
                  "type": "uint256[]"
                }
              ],
              "internalType": "struct LSSVMRouter.PairSwapSpecific[]",
              "name": "nftToTokenTrades",
              "type": "tuple[]"
            },
            {
              "components": [
                {
                  "internalType": "contract LSSVMPair",
                  "name": "pair",
                  "type": "address"
                },
                {
                  "internalType": "uint256",
                  "name": "numItems",
                  "type": "uint256"
                }
              ],
              "internalType": "struct LSSVMRouter.PairSwapAny[]",
              "name": "tokenToNFTTrades",
              "type": "tuple[]"
            }
          ],
          "internalType": "struct LSSVMRouter.NFTsForAnyNFTsTrade",
          "name": "trade",
          "type": "tuple"
        },
        {
          "internalType": "uint256",
          "name": "minOutput",
          "type": "uint256"
        },
        {
          "internalType": "address payable",
          "name": "ethRecipient",
          "type": "address"
        },
        {
          "internalType": "address",
          "name": "nftRecipient",
          "type": "address"
        },
        {
          "internalType": "uint256",
          "name": "deadline",
          "type": "uint256"
        }
      ],
      "name": "swapNFTsForAnyNFTsThroughETH",
      "outputs": [
        {
          "internalType": "uint256",
          "name": "outputAmount",
          "type": "uint256"
        }
      ],
      "stateMutability": "payable",
      "type": "function"
    },
    {
      "inputs": [
        {
          "components": [
            {
              "components": [
                {
                  "internalType": "contract LSSVMPair",
                  "name": "pair",
                  "type": "address"
                },
                {
                  "internalType": "uint256[]",
                  "name": "nftIds",
                  "type": "uint256[]"
                }
              ],
              "internalType": "struct LSSVMRouter.PairSwapSpecific[]",
              "name": "nftToTokenTrades",
              "type": "tuple[]"
            },
            {
              "components": [
                {
                  "internalType": "contract LSSVMPair",
                  "name": "pair",
                  "type": "address"
                },
                {
                  "internalType": "uint256[]",
                  "name": "nftIds",
                  "type": "uint256[]"
                }
              ],
              "internalType": "struct LSSVMRouter.PairSwapSpecific[]",
              "name": "tokenToNFTTrades",
              "type": "tuple[]"
            }
          ],
          "internalType": "struct LSSVMRouter.NFTsForSpecificNFTsTrade",
          "name": "trade",
          "type": "tuple"
        },
        {
          "internalType": "uint256",
          "name": "minOutput",
          "type": "uint256"
        },
        {
          "internalType": "address payable",
          "name": "ethRecipient",
          "type": "address"
        },
        {
          "internalType": "address",
          "name": "nftRecipient",
          "type": "address"
        },
        {
          "internalType": "uint256",
          "name": "deadline",
          "type": "uint256"
        }
      ],
      "name": "swapNFTsForSpecificNFTsThroughETH",
      "outputs": [
        {
          "internalType": "uint256",
          "name": "outputAmount",
          "type": "uint256"
        }
      ],
      "stateMutability": "payable",
      "type": "function"
    },
    {
      "inputs": [
        {
          "components": [
            {
              "internalType": "contract LSSVMPair",
              "name": "pair",
              "type": "address"
            },
            {
              "internalType": "uint256",
              "name": "numItems",
              "type": "uint256"
            }
          ],
          "internalType": "struct LSSVMRouter.PairSwapAny[]",
          "name": "swapList",
          "type": "tuple[]"
        },
        {
          "internalType": "uint256",
          "name": "inputAmount",
          "type": "uint256"
        },
        {
          "internalType": "address",
          "name": "nftRecipient",
          "type": "address"
        },
        {
          "internalType": "uint256",
          "name": "deadline",
          "type": "uint256"
        }
      ],
      "name": "swapERC20ForAnyNFTs",
      "outputs": [
        {
          "internalType": "uint256",
          "name": "remainingValue",
          "type": "uint256"
        }
      ],
      "stateMutability": "nonpayable",
      "type": "function"
    },
    {
      "inputs": [
        {
          "components": [
            {
              "internalType": "contract LSSVMPair",
              "name": "pair",
              "type": "address"
            },
            {
              "internalType": "uint256[]",
              "name": "nftIds",
              "type": "uint256[]"
            }
          ],
          "internalType": "struct LSSVMRouter.PairSwapSpecific[]",
          "name": "swapList",
          "type": "tuple[]"
        },
        {
          "internalType": "uint256",
          "name": "inputAmount",
          "type": "uint256"
        },
        {
          "internalType": "address",
          "name": "nftRecipient",
          "type": "address"
        },
        {
          "internalType": "uint256",
          "name": "deadline",
          "type": "uint256"
        }
      ],
      "name": "swapERC20ForSpecificNFTs",
      "outputs": [
        {
          "internalType": "uint256",
          "name": "remainingValue",
          "type": "uint256"
        }
      ],
      "stateMutability": "nonpayable",
      "type": "function"
    },
    {
      "inputs": [
        {
          "components": [
            {
              "internalType": "contract LSSVMPair",
              "name": "pair",
              "type": "address"
            },
            {
              "internalType": "uint256[]",
              "name": "nftIds",
              "type": "uint256[]"
            }
          ],
          "internalType": "struct LSSVMRouter.PairSwapSpecific[]",
          "name": "swapList",
          "type": "tuple[]"
        },
        {
          "internalType": "uint256",
          "name": "minOutput",
          "type": "uint256"
        },
        {
          "internalType": "address",
          "name": "tokenRecipient",
          "type": "address"
        },
        {
          "internalType": "uint256",
          "name": "deadline",
          "type": "uint256"
        }
      ],
      "name": "swapNFTsForToken",
      "outputs": [
        {
          "internalType": "uint256",
          "name": "outputAmount",
          "type": "uint256"
        }
      ],
      "stateMutability": "nonpayable",
      "type": "function"
    },
    {
      "inputs": [
        {
          "components": [
            {
              "components": [
                {
                  "internalType": "contract LSSVMPair",
                  "name": "pair",
                  "type": "address"
                },
                {
                  "internalType": "uint256[]",
                  "name": "nftIds",
                  "type": "uint256[]"
                }
              ],
              "internalType": "struct LSSVMRouter.PairSwapSpecific[]",
              "name": "nftToTokenTrades",
              "type": "tuple[]"
            },
            {
              "components": [
                {
                  "internalType": "contract LSSVMPair",
                  "name": "pair",
                  "type": "address"
                },
                {
                  "internalType": "uint256",
                  "name": "numItems",
                  "type": "uint256"
                }
              ],
              "internalType": "struct LSSVMRouter.PairSwapAny[]",
              "name": "tokenToNFTTrades",
              "type": "tuple[]"
            }
          ],
          "internalType": "struct LSSVMRouter.NFTsForAnyNFTsTrade",
          "name": "trade",
          "type": "tuple"
        },
        {
          "internalType": "uint256",
          "name": "inputAmount",
          "type": "uint256"
        },
        {
          "internalType": "uint256",
          "name": "minOutput",
          "type": "uint256"
        },
        {
          "internalType": "address",
          "name": "nftRecipient",
          "type": "address"
        },
        {
          "internalType": "uint256",
          "name": "deadline",
          "type": "uint256"
        }
      ],
      "name": "swapNFTsForAnyNFTsThroughERC20",
      "outputs": [
        {
          "internalType": "uint256",
          "name": "outputAmount",
          "type": "uint256"
        }
      ],
      "stateMutability": "nonpayable",
      "type": "function"
    },
    {
      "inputs": [
        {
          "components": [
            {
              "components": [
                {
                  "internalType": "contract LSSVMPair",
                  "name": "pair",
                  "type": "address"
                },
                {
                  "internalType": "uint256[]",
                  "name": "nftIds",
                  "type": "uint256[]"
                }
              ],
              "internalType": "struct LSSVMRouter.PairSwapSpecific[]",
              "name": "nftToTokenTrades",
              "type": "tuple[]"
            },
            {
              "components": [
                {
                  "internalType": "contract LSSVMPair",
                  "name": "pair",
                  "type": "address"
                },
                {
                  "internalType": "uint256[]",
                  "name": "nftIds",
                  "type": "uint256[]"
                }
              ],
              "internalType": "struct LSSVMRouter.PairSwapSpecific[]",
              "name": "tokenToNFTTrades",
              "type": "tuple[]"
            }
          ],
          "internalType": "struct LSSVMRouter.NFTsForSpecificNFTsTrade",
          "name": "trade",
          "type": "tuple"
        },
        {
          "internalType": "uint256",
          "name": "inputAmount",
          "type": "uint256"
        },
        {
          "internalType": "uint256",
          "name": "minOutput",
          "type": "uint256"
        },
        {
          "internalType": "address",
          "name": "nftRecipient",
          "type": "address"
        },
        {
          "internalType": "uint256",
          "name": "deadline",
          "type": "uint256"
        }
      ],
      "name": "swapNFTsForSpecificNFTsThroughERC20",
      "outputs": [
        {
          "internalType": "uint256",
          "name": "outputAmount",
          "type": "uint256"
        }
      ],
      "stateMutability": "nonpayable",
      "type": "function"
    },
    {
      "inputs": [
        {
          "components": [
            {
              "components": [
                {
                  "internalType": "contract LSSVMPair",
                  "name": "pair",
                  "type": "address"
                },
                {
                  "internalType": "uint256",
                  "name": "numItems",
                  "type": "uint256"
                }
              ],
              "internalType": "struct LSSVMRouter.PairSwapAny",
              "name": "swapInfo",
              "type": "tuple"
            },
            {
              "internalType": "uint256",
              "name": "maxCost",
              "type": "uint256"
            }
          ],
          "internalType": "struct LSSVMRouter.RobustPairSwapAny[]",
          "name": "swapList",
          "type": "tuple[]"
        },
        {
          "internalType": "address payable",
          "name": "ethRecipient",
          "type": "address"
        },
        {
          "internalType": "address",
          "name": "nftRecipient",
          "type": "address"
        },
        {
          "internalType": "uint256",
          "name": "deadline",
          "type": "uint256"
        }
      ],
      "name": "robustSwapETHForAnyNFTs",
      "outputs": [
        {
          "internalType": "uint256",
          "name": "remainingValue",
          "type": "uint256"
        }
      ],
      "stateMutability": "payable",
      "type": "function"
    },
    {
      "inputs": [
        {
          "components": [
            {
              "components": [
                {
                  "internalType": "contract LSSVMPair",
                  "name": "pair",
                  "type": "address"
                },
                {
                  "internalType": "uint256[]",
                  "name": "nftIds",
                  "type": "uint256[]"
                }
              ],
              "internalType": "struct LSSVMRouter.PairSwapSpecific",
              "name": "swapInfo",
              "type": "tuple"
            },
            {
              "internalType": "uint256",
              "name": "maxCost",
              "type": "uint256"
            }
          ],
          "internalType": "struct LSSVMRouter.RobustPairSwapSpecific[]",
          "name": "swapList",
          "type": "tuple[]"
        },
        {
          "internalType": "address payable",
          "name": "ethRecipient",
          "type": "address"
        },
        {
          "internalType": "address",
          "name": "nftRecipient",
          "type": "address"
        },
        {
          "internalType": "uint256",
          "name": "deadline",
          "type": "uint256"
        }
      ],
      "name": "robustSwapETHForSpecificNFTs",
      "outputs": [
        {
          "internalType": "uint256",
          "name": "remainingValue",
          "type": "uint256"
        }
      ],
      "stateMutability": "payable",
      "type": "function"
    },
    {
      "inputs": [
        {
          "components": [
            {
              "components": [
                {
                  "internalType": "contract LSSVMPair",
                  "name": "pair",
                  "type": "address"
                },
                {
                  "internalType": "uint256",
                  "name": "numItems",
                  "type": "uint256"
                }
              ],
              "internalType": "struct LSSVMRouter.PairSwapAny",
              "name": "swapInfo",
              "type": "tuple"
            },
            {
              "internalType": "uint256",
              "name": "maxCost",
              "type": "uint256"
            }
          ],
          "internalType": "struct LSSVMRouter.RobustPairSwapAny[]",
          "name": "swapList",
          "type": "tuple[]"
        },
        {
          "internalType": "uint256",
          "name": "inputAmount",
          "type": "uint256"
        },
        {
          "internalType": "address",
          "name": "nftRecipient",
          "type": "address"
        },
        {
          "internalType": "uint256",
          "name": "deadline",
          "type": "uint256"
        }
      ],
      "name": "robustSwapERC20ForAnyNFTs",
      "outputs": [
        {
          "internalType": "uint256",
          "name": "remainingValue",
          "type": "uint256"
        }
      ],
      "stateMutability": "nonpayable",
      "type": "function"
    },
    {
      "inputs": [
        {
          "components": [
            {
              "components": [
                {
                  "internalType": "contract LSSVMPair",
                  "name": "pair",
                  "type": "address"
                },
                {
                  "internalType": "uint256[]",
                  "name": "nftIds",
                  "type": "uint256[]"
                }
              ],
              "internalType": "struct LSSVMRouter.PairSwapSpecific",
              "name": "swapInfo",
              "type": "tuple"
            },
            {
              "internalType": "uint256",
              "name": "maxCost",
              "type": "uint256"
            }
          ],
          "internalType": "struct LSSVMRouter.RobustPairSwapSpecific[]",
          "name": "swapList",
          "type": "tuple[]"
        },
        {
          "internalType": "uint256",
          "name": "inputAmount",
          "type": "uint256"
        },
        {
          "internalType": "address",
          "name": "nftRecipient",
          "type": "address"
        },
        {
          "internalType": "uint256",
          "name": "deadline",
          "type": "uint256"
        }
      ],
      "name": "robustSwapERC20ForSpecificNFTs",
      "outputs": [
        {
          "internalType": "uint256",
          "name": "remainingValue",
          "type": "uint256"
        }
      ],
      "stateMutability": "nonpayable",
      "type": "function"
    },
    {
      "inputs": [
        {
          "components": [
            {
              "components": [
                {
                  "internalType": "contract LSSVMPair",
                  "name": "pair",
                  "type": "address"
                },
                {
                  "internalType": "uint256[]",
                  "name": "nftIds",
                  "type": "uint256[]"
                }
              ],
              "internalType": "struct LSSVMRouter.PairSwapSpecific",
              "name": "swapInfo",
              "type": "tuple"
            },
            {
              "internalType": "uint256",
              "name": "minOutput",
              "type": "uint256"
            }
          ],
          "internalType": "struct LSSVMRouter.RobustPairSwapSpecificForToken[]",
          "name": "swapList",
          "type": "tuple[]"
        },
        {
          "internalType": "address payable",
          "name": "tokenRecipient",
          "type": "address"
        },
        {
          "internalType": "uint256",
          "name": "deadline",
          "type": "uint256"
        }
      ],
      "name": "robustSwapNFTsForToken",
      "outputs": [
        {
          "internalType": "uint256",
          "name": "outputAmount",
          "type": "uint256"
        }
      ],
      "stateMutability": "nonpayable",
      "type": "function"
    },
    {
      "inputs": [
        {
          "components": [
            {
              "components": [
                {
                  "components": [
                    {
                      "internalType": "contract LSSVMPair",
                      "name": "pair",
                      "type": "address"
                    },
                    {
                      "internalType": "uint256[]",
                      "name": "nftIds",
                      "type": "uint256[]"
                    }
                  ],
                  "internalType": "struct LSSVMRouter.PairSwapSpecific",
                  "name": "swapInfo",
                  "type": "tuple"
                },
                {
                  "internalType": "uint256",
                  "name": "maxCost",
                  "type": "uint256"
                }
              ],
              "internalType": "struct LSSVMRouter.RobustPairSwapSpecific[]",
              "name": "tokenToNFTTrades",
              "type": "tuple[]"
            },
            {
              "components": [
                {
                  "components": [
                    {
                      "internalType": "contract LSSVMPair",
                      "name": "pair",
                      "type": "address"
                    },
                    {
                      "internalType": "uint256[]",
                      "name": "nftIds",
                      "type": "uint256[]"
                    }
                  ],
                  "internalType": "struct LSSVMRouter.PairSwapSpecific",
                  "name": "swapInfo",
                  "type": "tuple"
                },
                {
                  "internalType": "uint256",
                  "name": "minOutput",
                  "type": "uint256"
                }
              ],
              "internalType": "struct LSSVMRouter.RobustPairSwapSpecificForToken[]",
              "name": "nftToTokenTrades",
              "type": "tuple[]"
            },
            {
              "internalType": "uint256",
              "name": "inputAmount",
              "type": "uint256"
            },
            {
              "internalType": "address payable",
              "name": "tokenRecipient",
              "type": "address"
            },
            {
              "internalType": "address",
              "name": "nftRecipient",
              "type": "address"
            }
          ],
          "internalType": "struct LSSVMRouter.RobustPairNFTsFoTokenAndTokenforNFTsTrade",
          "name": "params",
          "type": "tuple"
        }
      ],
      "name": "robustSwapETHForSpecificNFTsAndNFTsToToken",
      "outputs": [
        {
          "internalType": "uint256",
          "name": "remainingValue",
          "type": "uint256"
        },
        {
          "internalType": "uint256",
          "name": "outputAmount",
          "type": "uint256"
        }
      ],
      "stateMutability": "payable",
      "type": "function"
    },
    {
      "inputs": [
        {
          "components": [
            {
              "components": [
                {
                  "components": [
                    {
                      "internalType": "contract LSSVMPair",
                      "name": "pair",
                      "type": "address"
                    },
                    {
                      "internalType": "uint256[]",
                      "name": "nftIds",
                      "type": "uint256[]"
                    }
                  ],
                  "internalType": "struct LSSVMRouter.PairSwapSpecific",
                  "name": "swapInfo",
                  "type": "tuple"
                },
                {
                  "internalType": "uint256",
                  "name": "maxCost",
                  "type": "uint256"
                }
              ],
              "internalType": "struct LSSVMRouter.RobustPairSwapSpecific[]",
              "name": "tokenToNFTTrades",
              "type": "tuple[]"
            },
            {
              "components": [
                {
                  "components": [
                    {
                      "internalType": "contract LSSVMPair",
                      "name": "pair",
                      "type": "address"
                    },
                    {
                      "internalType": "uint256[]",
                      "name": "nftIds",
                      "type": "uint256[]"
                    }
                  ],
                  "internalType": "struct LSSVMRouter.PairSwapSpecific",
                  "name": "swapInfo",
                  "type": "tuple"
                },
                {
                  "internalType": "uint256",
                  "name": "minOutput",
                  "type": "uint256"
                }
              ],
              "internalType": "struct LSSVMRouter.RobustPairSwapSpecificForToken[]",
              "name": "nftToTokenTrades",
              "type": "tuple[]"
            },
            {
              "internalType": "uint256",
              "name": "inputAmount",
              "type": "uint256"
            },
            {
              "internalType": "address payable",
              "name": "tokenRecipient",
              "type": "address"
            },
            {
              "internalType": "address",
              "name": "nftRecipient",
              "type": "address"
            }
          ],
          "internalType": "struct LSSVMRouter.RobustPairNFTsFoTokenAndTokenforNFTsTrade",
          "name": "params",
          "type": "tuple"
        }
      ],
      "name": "robustSwapERC20ForSpecificNFTsAndNFTsToToken",
      "outputs": [
        {
          "internalType": "uint256",
          "name": "remainingValue",
          "type": "uint256"
        },
        {
          "internalType": "uint256",
          "name": "outputAmount",
          "type": "uint256"
        }
      ],
      "stateMutability": "payable",
      "type": "function"
    },
    {
      "inputs": [
        {
          "internalType": "contract ERC20",
          "name": "token",
          "type": "address"
        },
        {
          "internalType": "address",
          "name": "from",
          "type": "address"
        },
        {
          "internalType": "address",
          "name": "to",
          "type": "address"
        },
        {
          "internalType": "uint256",
          "name": "amount",
          "type": "uint256"
        },
        {
          "internalType": "enum ILSSVMPairFactoryLike.PairVariant",
          "name": "variant",
          "type": "uint8"
        }
      ],
      "name": "pairTransferERC20From",
      "outputs": [],
      "stateMutability": "nonpayable",
      "type": "function"
    },
    {
      "inputs": [
        {
          "internalType": "contract IERC721",
          "name": "nft",
          "type": "address"
        },
        {
          "internalType": "address",
          "name": "from",
          "type": "address"
        },
        {
          "internalType": "address",
          "name": "to",
          "type": "address"
        },
        {
          "internalType": "uint256",
          "name": "id",
          "type": "uint256"
        },
        {
          "internalType": "enum ILSSVMPairFactoryLike.PairVariant",
          "name": "variant",
          "type": "uint8"
        }
      ],
      "name": "pairTransferNFTFrom",
      "outputs": [],
      "stateMutability": "nonpayable",
      "type": "function"
    }
  ],
  "bytecode": "0x60a06040523480156200001157600080fd5b5060405162002eb738038062002eb7833981016040819052620000349162000046565b6001600160a01b031660805262000078565b6000602082840312156200005957600080fd5b81516001600160a01b03811681146200007157600080fd5b9392505050565b608051612e15620000a26000396000818161029201528181610ab90152610c0e0152612e156000f3fe6080604052600436106101185760003560e01c8063a833d43a116100a0578063d89bb2b511610064578063d89bb2b5146102ec578063dabf67d7146102ff578063db42312a1461031f578063db6ddb2614610332578063f138513a1461035257600080fd5b8063a833d43a1461023a578063ab5c0da21461024d578063ad13445014610260578063c45a015514610280578063c5cf5704146102cc57600080fd5b80633efd9e71116100e75780633efd9e711461019d5780634b456d0c146101b0578063748ff339146101d257806384a4c8c4146101f25780638c1daa2b1461021257600080fd5b8063111320001461012457806314db37841461014a5780632b997f8e1461016a5780632f9b9d4e1461018a57600080fd5b3661011f57005b600080fd5b610137610132366004612707565b610372565b6040519081526020015b60405180910390f35b34801561015657600080fd5b50610137610165366004612776565b610396565b34801561017657600080fd5b506101376101853660046127cb565b6103ae565b61013761019836600461286b565b610627565b6101376101ab366004612707565b61083d565b3480156101bc57600080fd5b506101d06101cb3660046128b9565b610aa2565b005b3480156101de57600080fd5b506101d06101ed3660046128b9565b610bf7565b3480156101fe57600080fd5b5061013761020d366004612935565b610d2e565b61022561022036600461299f565b610d88565b60408051928352602083019190915201610141565b6101376102483660046129e0565b6112f0565b61022561025b36600461299f565b611341565b34801561026c57600080fd5b5061013761027b366004612a86565b6118c8565b34801561028c57600080fd5b506102b47f000000000000000000000000000000000000000000000000000000000000000081565b6040516001600160a01b039091168152602001610141565b3480156102d857600080fd5b506101376102e7366004612ac0565b6118e0565b6101376102fa3660046129e0565b611adc565b34801561030b57600080fd5b5061013761031a366004612776565b611b25565b61013761032d366004612afa565b611b3d565b34801561033e57600080fd5b5061013761034d366004612776565b611b56565b34801561035e57600080fd5b5061013761036d366004612935565b611dba565b60008161037e81611e02565b61038b8787348888611e47565b979650505050505050565b6000816103a281611e02565b61038b878787876120aa565b6000816103ba81611e02565b8460005b8181101561061c576000808989848181106103db576103db612b34565b90506020028101906103ed9190612b4a565b6103f79080612b4a565b610405906020810190612b6a565b6001600160a01b0316630c295e568b8b8681811061042557610425612b34565b90506020028101906104379190612b4a565b6104419080612b4a565b61044f906020810190612b87565b6040516001600160e01b031960e085901b168152610474925060040190815260200190565b60a060405180830381865afa158015610491573d6000803e3d6000fd5b505050506040513d601f19601f820116820180604052508101906104b59190612bd0565b509450919250600091506104c69050565b8160028111156104d8576104d8612c1d565b146104e75750506001016103be565b508888838181106104fa576104fa612b34565b905060200281019061050c9190612b4a565b6020013581106106135788888381811061052857610528612b34565b905060200281019061053a9190612b4a565b6105449080612b4a565b610552906020810190612b6a565b6001600160a01b031663b1d3f1c18a8a8581811061057257610572612b34565b90506020028101906105849190612b4a565b61058e9080612b4a565b61059c906020810190612b87565b60008b6001336040518763ffffffff1660e01b81526004016105c396959493929190612c69565b6020604051808303816000875af11580156105e2573d6000803e3d6000fd5b505050506040513d601f19601f820116820180604052508101906106069190612cad565b6106109086612cdc565b94505b506001016103be565b505050949350505050565b60008161063381611e02565b34915060008087815b81811015610816578a8a8281811061065657610656612b34565b61066c9260206060909202019081019150612b6a565b6001600160a01b031663a5cb2b918c8c8481811061068c5761068c612b34565b905060600201600001602001356040518263ffffffff1660e01b81526004016106b791815260200190565b60a060405180830381865afa1580156106d4573d6000803e3d6000fd5b505050506040513d601f19601f820116820180604052508101906106f89190612bd0565b5096509194508c91508b90508281811061071457610714612b34565b90506060020160400135841115801561073e5750600083600281111561073c5761073c612c1d565b145b1561080e578a8a8281811061075557610755612b34565b61076b9260206060909202019081019150612b6a565b6001600160a01b03166328b8aee1858d8d8581811061078c5761078c612b34565b90506060020160000160200135878c6001336040518763ffffffff1660e01b81526004016107be959493929190612cf4565b60206040518083038185885af11580156107dc573d6000803e3d6000fd5b50505050506040513d601f19601f820116820180604052508101906108019190612cad565b61080b9087612d22565b95505b60010161063c565b508415610830576108306001600160a01b038916866121b0565b5050505095945050505050565b60008161084981611e02565b34915060008087815b81811015610816578a8a8281811061086c5761086c612b34565b905060200281019061087e9190612b4a565b6108889080612b4a565b610896906020810190612b6a565b6001600160a01b031663a5cb2b918c8c848181106108b6576108b6612b34565b90506020028101906108c89190612b4a565b6108d29080612b4a565b6108e0906020810190612b87565b6040516001600160e01b031960e085901b168152610905925060040190815260200190565b60a060405180830381865afa158015610922573d6000803e3d6000fd5b505050506040513d601f19601f820116820180604052508101906109469190612bd0565b5096509194508c91508b90508281811061096257610962612b34565b90506020028101906109749190612b4a565b6020013584111580156109985750600083600281111561099657610996612c1d565b145b15610a9a578a8a828181106109af576109af612b34565b90506020028101906109c19190612b4a565b6109cb9080612b4a565b6109d9906020810190612b6a565b6001600160a01b0316636d8b99f7858d8d858181106109fa576109fa612b34565b9050602002810190610a0c9190612b4a565b610a169080612b4a565b610a24906020810190612b87565b888d6001336040518863ffffffff1660e01b8152600401610a4a96959493929190612c69565b60206040518083038185885af1158015610a68573d6000803e3d6000fd5b50505050506040513d601f19601f82011682018060405250810190610a8d9190612cad565b610a979087612d22565b95505b600101610852565b6040516308f25a8f60e01b81526001600160a01b037f000000000000000000000000000000000000000000000000000000000000000016906308f25a8f90610af09033908590600401612d39565b602060405180830381865afa158015610b0d573d6000803e3d6000fd5b505050506040513d601f19601f82011682018060405250810190610b319190612d74565b610b6d5760405162461bcd60e51b81526020600482015260086024820152672737ba103830b4b960c11b60448201526064015b60405180910390fd5b6002816003811115610b8157610b81612c1d565b1480610b9e57506003816003811115610b9c57610b9c612c1d565b145b610bdb5760405162461bcd60e51b815260206004820152600e60248201526d2737ba1022a9219918103830b4b960911b6044820152606401610b64565b610bf06001600160a01b038616858585612206565b5050505050565b6040516308f25a8f60e01b81526001600160a01b037f000000000000000000000000000000000000000000000000000000000000000016906308f25a8f90610c459033908590600401612d39565b602060405180830381865afa158015610c62573d6000803e3d6000fd5b505050506040513d601f19601f82011682018060405250810190610c869190612d74565b610cbd5760405162461bcd60e51b81526020600482015260086024820152672737ba103830b4b960c11b6044820152606401610b64565b604051632142170760e11b81526001600160a01b0385811660048301528481166024830152604482018490528616906342842e0e90606401600060405180830381600087803b158015610d0f57600080fd5b505af1158015610d23573d6000803e3d6000fd5b505050505050505050565b600081610d3a81611e02565b610d4f610d478880612b87565b600033612289565b9150610d5b8683612cdc565b915084610d7e610d6e60208a018a612b87565b610d788987612d22565b886120aa565b61038b9190612cdc565b60408101356000808080610d9c8680612b87565b9050905060005b8181101561102957610db58780612b87565b82818110610dc557610dc5612b34565b9050602002810190610dd79190612b4a565b610de19080612b4a565b610def906020810190612b6a565b6001600160a01b031663a5cb2b91610e078980612b87565b84818110610e1757610e17612b34565b9050602002810190610e299190612b4a565b610e339080612b4a565b610e41906020810190612b87565b6040516001600160e01b031960e085901b168152610e66925060040190815260200190565b60a060405180830381865afa158015610e83573d6000803e3d6000fd5b505050506040513d601f19601f82011682018060405250810190610ea79190612bd0565b509650919450610ebb915088905080612b87565b82818110610ecb57610ecb612b34565b9050602002810190610edd9190612b4a565b602001358411158015610f0157506000836002811115610eff57610eff612c1d565b145b1561102157610f108780612b87565b82818110610f2057610f20612b34565b9050602002810190610f329190612b4a565b610f3c9080612b4a565b610f4a906020810190612b6a565b6001600160a01b0316636d8b99f7610f628980612b87565b84818110610f7257610f72612b34565b9050602002810190610f849190612b4a565b610f8e9080612b4a565b610f9c906020810190612b87565b87610fad60a08d0160808e01612b6a565b6001336040518763ffffffff1660e01b8152600401610fd196959493929190612c69565b6020604051808303816000875af1158015610ff0573d6000803e3d6000fd5b505050506040513d601f19601f820116820180604052508101906110149190612cad565b61101e9087612d22565b95505b600101610da3565b506000925061103e9150506020850185612b87565b9050905060005b818110156112e95760008061105d6020880188612b87565b8481811061106d5761106d612b34565b905060200281019061107f9190612b4a565b6110899080612b4a565b611097906020810190612b6a565b6001600160a01b0316630c295e566110b260208a018a612b87565b868181106110c2576110c2612b34565b90506020028101906110d49190612b4a565b6110de9080612b4a565b6110ec906020810190612b87565b6040516001600160e01b031960e085901b168152611111925060040190815260200190565b60a060405180830381865afa15801561112e573d6000803e3d6000fd5b505050506040513d601f19601f820116820180604052508101906111529190612bd0565b509450919250600091506111639050565b81600281111561117557611175612c1d565b14611184575050600101611045565b506111926020870187612b87565b838181106111a2576111a2612b34565b90506020028101906111b49190612b4a565b6020013581106112e0576111cb6020870187612b87565b838181106111db576111db612b34565b90506020028101906111ed9190612b4a565b6111f79080612b4a565b611205906020810190612b6a565b6001600160a01b031663b1d3f1c16112206020890189612b87565b8581811061123057611230612b34565b90506020028101906112429190612b4a565b61124c9080612b4a565b61125a906020810190612b87565b600061126c60808c0160608d01612b6a565b6001336040518763ffffffff1660e01b815260040161129096959493929190612c69565b6020604051808303816000875af11580156112af573d6000803e3d6000fd5b505050506040513d601f19601f820116820180604052508101906112d39190612cad565b6112dd9085612cdc565b93505b50600101611045565b5050915091565b6000816112fc81611e02565b6113116113098880612b87565b600030612289565b915061131d3483612cdc565b915085610d7e61133060208a018a612b87565b61133a8a87612d22565b8989611e47565b3460008080806113518680612b87565b9050905060005b818110156115df5761136a8780612b87565b8281811061137a5761137a612b34565b905060200281019061138c9190612b4a565b6113969080612b4a565b6113a4906020810190612b6a565b6001600160a01b031663a5cb2b916113bc8980612b87565b848181106113cc576113cc612b34565b90506020028101906113de9190612b4a565b6113e89080612b4a565b6113f6906020810190612b87565b6040516001600160e01b031960e085901b16815261141b925060040190815260200190565b60a060405180830381865afa158015611438573d6000803e3d6000fd5b505050506040513d601f19601f8201168201806040525081019061145c9190612bd0565b509650919450611470915088905080612b87565b8281811061148057611480612b34565b90506020028101906114929190612b4a565b6020013584111580156114b6575060008360028111156114b4576114b4612c1d565b145b156115d7576114c58780612b87565b828181106114d5576114d5612b34565b90506020028101906114e79190612b4a565b6114f19080612b4a565b6114ff906020810190612b6a565b6001600160a01b0316636d8b99f7856115188a80612b87565b8581811061152857611528612b34565b905060200281019061153a9190612b4a565b6115449080612b4a565b611552906020810190612b87565b8861156360a08e0160808f01612b6a565b6001336040518863ffffffff1660e01b815260040161158796959493929190612c69565b60206040518083038185885af11580156115a5573d6000803e3d6000fd5b50505050506040513d601f19601f820116820180604052508101906115ca9190612cad565b6115d49087612d22565b95505b600101611358565b50841561160957611609856115fa6080890160608a01612b6a565b6001600160a01b0316906121b0565b506000915061161d90506020850185612b87565b9050905060005b818110156112e95760008061163c6020880188612b87565b8481811061164c5761164c612b34565b905060200281019061165e9190612b4a565b6116689080612b4a565b611676906020810190612b6a565b6001600160a01b0316630c295e5661169160208a018a612b87565b868181106116a1576116a1612b34565b90506020028101906116b39190612b4a565b6116bd9080612b4a565b6116cb906020810190612b87565b6040516001600160e01b031960e085901b1681526116f0925060040190815260200190565b60a060405180830381865afa15801561170d573d6000803e3d6000fd5b505050506040513d601f19601f820116820180604052508101906117319190612bd0565b509450919250600091506117429050565b81600281111561175457611754612c1d565b14611763575050600101611624565b506117716020870187612b87565b8381811061178157611781612b34565b90506020028101906117939190612b4a565b6020013581106118bf576117aa6020870187612b87565b838181106117ba576117ba612b34565b90506020028101906117cc9190612b4a565b6117d69080612b4a565b6117e4906020810190612b6a565b6001600160a01b031663b1d3f1c16117ff6020890189612b87565b8581811061180f5761180f612b34565b90506020028101906118219190612b4a565b61182b9080612b4a565b611839906020810190612b87565b600061184b60808c0160608d01612b6a565b6001336040518763ffffffff1660e01b815260040161186f96959493929190612c69565b6020604051808303816000875af115801561188e573d6000803e3d6000fd5b505050506040513d601f19601f820116820180604052508101906118b29190612cad565b6118bc9085612cdc565b93505b50600101611624565b6000816118d481611e02565b61038b878787876123d7565b6000816118ec81611e02565b84915060008087815b81811015611ace578a8a8281811061190f5761190f612b34565b6119259260206060909202019081019150612b6a565b6001600160a01b031663a5cb2b918c8c8481811061194557611945612b34565b905060600201600001602001356040518263ffffffff1660e01b815260040161197091815260200190565b60a060405180830381865afa15801561198d573d6000803e3d6000fd5b505050506040513d601f19601f820116820180604052508101906119b19190612bd0565b5096509194508c91508b9050828181106119cd576119cd612b34565b9050606002016040013584111580156119f7575060008360028111156119f5576119f5612c1d565b145b15611ac6578a8a82818110611a0e57611a0e612b34565b611a249260206060909202019081019150612b6a565b6001600160a01b03166328b8aee18c8c84818110611a4457611a44612b34565b90506060020160000160200135868b6001336040518663ffffffff1660e01b8152600401611a76959493929190612cf4565b6020604051808303816000875af1158015611a95573d6000803e3d6000fd5b505050506040513d601f19601f82011682018060405250810190611ab99190612cad565b611ac39087612d22565b95505b6001016118f5565b505050505095945050505050565b600081611ae881611e02565b611af56113098880612b87565b9150611b013483612cdc565b915085610d7e611b1460208a018a612d96565b611b1e8a87612d22565b89896124b2565b600081611b3181611e02565b61038b87878787612289565b600081611b4981611e02565b61038b87873488886124b2565b600081611b6281611e02565b84915060008087815b81811015611ace578a8a82818110611b8557611b85612b34565b9050602002810190611b979190612b4a565b611ba19080612b4a565b611baf906020810190612b6a565b6001600160a01b031663a5cb2b918c8c84818110611bcf57611bcf612b34565b9050602002810190611be19190612b4a565b611beb9080612b4a565b611bf9906020810190612b87565b6040516001600160e01b031960e085901b168152611c1e925060040190815260200190565b60a060405180830381865afa158015611c3b573d6000803e3d6000fd5b505050506040513d601f19601f82011682018060405250810190611c5f9190612bd0565b5096509194508c91508b905082818110611c7b57611c7b612b34565b9050602002810190611c8d9190612b4a565b602001358411158015611cb157506000836002811115611caf57611caf612c1d565b145b15611db2578a8a82818110611cc857611cc8612b34565b9050602002810190611cda9190612b4a565b611ce49080612b4a565b611cf2906020810190612b6a565b6001600160a01b0316636d8b99f78c8c84818110611d1257611d12612b34565b9050602002810190611d249190612b4a565b611d2e9080612b4a565b611d3c906020810190612b87565b878c6001336040518763ffffffff1660e01b8152600401611d6296959493929190612c69565b6020604051808303816000875af1158015611d81573d6000803e3d6000fd5b505050506040513d601f19601f82011682018060405250810190611da59190612cad565b611daf9087612d22565b95505b600101611b6b565b600081611dc681611e02565b611dd3610d478880612b87565b9150611ddf8683612cdc565b915084610d7e611df260208a018a612d96565b611dfc8987612d22565b886123d7565b80421115611e445760405162461bcd60e51b815260206004820152600f60248201526e111958591b1a5b99481c185cdcd959608a1b6044820152606401610b64565b50565b8260008086815b8181101561208457898982818110611e6857611e68612b34565b9050602002810190611e7a9190612b4a565b611e88906020810190612b6a565b6001600160a01b031663a5cb2b918b8b84818110611ea857611ea8612b34565b9050602002810190611eba9190612b4a565b611ec8906020810190612b87565b6040516001600160e01b031960e085901b168152611eed925060040190815260200190565b60a060405180830381865afa158015611f0a573d6000803e3d6000fd5b505050506040513d601f19601f82011682018060405250810190611f2e9190612bd0565b50965091945060009150611f3f9050565b836002811115611f5157611f51612c1d565b14611f945760405162461bcd60e51b81526020600482015260136024820152722137b73234b7339031bab93b329032b93937b960691b6044820152606401610b64565b898982818110611fa657611fa6612b34565b9050602002810190611fb89190612b4a565b611fc6906020810190612b6a565b6001600160a01b0316636d8b99f7858c8c85818110611fe757611fe7612b34565b9050602002810190611ff99190612b4a565b612007906020810190612b87565b898b6001336040518863ffffffff1660e01b815260040161202d96959493929190612c69565b60206040518083038185885af115801561204b573d6000803e3d6000fd5b50505050506040513d601f19601f820116820180604052508101906120709190612cad565b61207a9086612d22565b9450600101611e4e565b50831561209e5761209e6001600160a01b038716856121b0565b50505095945050505050565b818360005b818110156121a6578686828181106120c9576120c9612b34565b90506020028101906120db9190612b4a565b6120e9906020810190612b6a565b6001600160a01b0316636d8b99f788888481811061210957612109612b34565b905060200281019061211b9190612b4a565b612129906020810190612b87565b86886001336040518763ffffffff1660e01b815260040161214f96959493929190612c69565b6020604051808303816000875af115801561216e573d6000803e3d6000fd5b505050506040513d601f19601f820116820180604052508101906121929190612cad565b61219c9084612d22565b92506001016120af565b5050949350505050565b600080600080600085875af19050806122015760405162461bcd60e51b815260206004820152601360248201527211551217d514905394d1915497d19052531151606a1b6044820152606401610b64565b505050565b60006040516323b872dd60e01b81528460048201528360248201528260448201526020600060648360008a5af13d15601f3d1160016000511416171691505080610bf05760405162461bcd60e51b81526020600482015260146024820152731514905394d1915497d19493d357d1905253115160621b6044820152606401610b64565b600083815b81811015612386578686828181106122a8576122a8612b34565b90506020028101906122ba9190612b4a565b6122c8906020810190612b6a565b6001600160a01b031663b1d3f1c18888848181106122e8576122e8612b34565b90506020028101906122fa9190612b4a565b612308906020810190612b87565b6000886001336040518763ffffffff1660e01b815260040161232f96959493929190612c69565b6020604051808303816000875af115801561234e573d6000803e3d6000fd5b505050506040513d601f19601f820116820180604052508101906123729190612cad565b61237c9084612cdc565b925060010161228e565b50838210156123ce5760405162461bcd60e51b81526020600482015260146024820152736f7574707574416d6f756e7420746f6f206c6f7760601b6044820152606401610b64565b50949350505050565b818360005b818110156121a6578686828181106123f6576123f6612b34565b61240c9260206040909202019081019150612b6a565b6001600160a01b03166328b8aee188888481811061242c5761242c612b34565b9050604002016020013585876001336040518663ffffffff1660e01b815260040161245b959493929190612cf4565b6020604051808303816000875af115801561247a573d6000803e3d6000fd5b505050506040513d601f19601f8201168201806040525081019061249e9190612cad565b6124a89084612d22565b92506001016123dc565b8260008086815b81811015612084578989828181106124d3576124d3612b34565b6124e99260206040909202019081019150612b6a565b6001600160a01b031663a5cb2b918b8b8481811061250957612509612b34565b905060400201602001356040518263ffffffff1660e01b815260040161253191815260200190565b60a060405180830381865afa15801561254e573d6000803e3d6000fd5b505050506040513d601f19601f820116820180604052508101906125729190612bd0565b509650919450600091506125839050565b83600281111561259557612595612c1d565b146125d85760405162461bcd60e51b81526020600482015260136024820152722137b73234b7339031bab93b329032b93937b960691b6044820152606401610b64565b8989828181106125ea576125ea612b34565b6126009260206040909202019081019150612b6a565b6001600160a01b03166328b8aee1858c8c8581811061262157612621612b34565b90506040020160200135888a6001336040518763ffffffff1660e01b8152600401612650959493929190612cf4565b60206040518083038185885af115801561266e573d6000803e3d6000fd5b50505050506040513d601f19601f820116820180604052508101906126939190612cad565b61269d9086612d22565b94506001016124b9565b60008083601f8401126126b957600080fd5b5081356001600160401b038111156126d057600080fd5b6020830191508360208260051b85010111156126eb57600080fd5b9250929050565b6001600160a01b0381168114611e4457600080fd5b60008060008060006080868803121561271f57600080fd5b85356001600160401b0381111561273557600080fd5b612741888289016126a7565b9096509450506020860135612755816126f2565b92506040860135612765816126f2565b949793965091946060013592915050565b60008060008060006080868803121561278e57600080fd5b85356001600160401b038111156127a457600080fd5b6127b0888289016126a7565b909650945050602086013592506040860135612765816126f2565b600080600080606085870312156127e157600080fd5b84356001600160401b038111156127f757600080fd5b612803878288016126a7565b9095509350506020850135612817816126f2565b9396929550929360400135925050565b60008083601f84011261283957600080fd5b5081356001600160401b0381111561285057600080fd5b6020830191508360206060830285010111156126eb57600080fd5b60008060008060006080868803121561288357600080fd5b85356001600160401b0381111561289957600080fd5b61274188828901612827565b8035600481106128b457600080fd5b919050565b600080600080600060a086880312156128d157600080fd5b85356128dc816126f2565b945060208601356128ec816126f2565b935060408601356128fc816126f2565b925060608601359150612911608087016128a5565b90509295509295909350565b60006040828403121561292f57600080fd5b50919050565b600080600080600060a0868803121561294d57600080fd5b85356001600160401b0381111561296357600080fd5b61296f8882890161291d565b9550506020860135935060408601359250606086013561298e816126f2565b949793965091946080013592915050565b6000602082840312156129b157600080fd5b81356001600160401b038111156129c757600080fd5b820160a081850312156129d957600080fd5b9392505050565b600080600080600060a086880312156129f857600080fd5b85356001600160401b03811115612a0e57600080fd5b612a1a8882890161291d565b955050602086013593506040860135612a32816126f2565b9250606086013561298e816126f2565b60008083601f840112612a5457600080fd5b5081356001600160401b03811115612a6b57600080fd5b6020830191508360208260061b85010111156126eb57600080fd5b600080600080600060808688031215612a9e57600080fd5b85356001600160401b03811115612ab457600080fd5b6127b088828901612a42565b600080600080600060808688031215612ad857600080fd5b85356001600160401b03811115612aee57600080fd5b6127b088828901612827565b600080600080600060808688031215612b1257600080fd5b85356001600160401b03811115612b2857600080fd5b61274188828901612a42565b634e487b7160e01b600052603260045260246000fd5b60008235603e19833603018112612b6057600080fd5b9190910192915050565b600060208284031215612b7c57600080fd5b81356129d9816126f2565b6000808335601e19843603018112612b9e57600080fd5b8301803591506001600160401b03821115612bb857600080fd5b6020019150600581901b36038213156126eb57600080fd5b600080600080600060a08688031215612be857600080fd5b855160038110612bf757600080fd5b602087015160408801516060890151608090990151929a91995097965090945092505050565b634e487b7160e01b600052602160045260246000fd5b81835260006001600160fb1b03831115612c4c57600080fd5b8260051b8083602087013760009401602001938452509192915050565b60a081526000612c7d60a08301888a612c33565b6020830196909652506001600160a01b039384166040820152911515606083015290911660809091015292915050565b600060208284031215612cbf57600080fd5b5051919050565b634e487b7160e01b600052601160045260246000fd5b60008219821115612cef57612cef612cc6565b500190565b94855260208501939093526001600160a01b0391821660408501521515606084015216608082015260a00190565b600082821015612d3457612d34612cc6565b500390565b6001600160a01b03831681526040810160048310612d6757634e487b7160e01b600052602160045260246000fd5b8260208301529392505050565b600060208284031215612d8657600080fd5b815180151581146129d957600080fd5b6000808335601e19843603018112612dad57600080fd5b8301803591506001600160401b03821115612dc757600080fd5b6020019150600681901b36038213156126eb57600080fdfea2646970667358221220029981493dc8fa62f11e9da6ba5c820e4857ecf93b3fd42638277c785194541d64736f6c634300080b0033",
  "immutableReferences": {
    "8405": [
      {
        "length": 32,
        "start": 658
      },
      {
        "length": 32,
        "start": 2745
      },
      {
        "length": 32,
        "start": 3086
      }
    ]
  },
  "source": "// SPDX-License-Identifier: AGPL-3.0\npragma solidity ^0.8.0;\n\nimport {IERC721} from \"@openzeppelin/contracts/token/ERC721/IERC721.sol\";\nimport {ERC20} from \"solmate/src/tokens/ERC20.sol\";\nimport {SafeTransferLib} from \"solmate/src/utils/SafeTransferLib.sol\";\nimport {LSSVMPair} from \"./LSSVMPair.sol\";\nimport {ILSSVMPairFactoryLike} from \"./ILSSVMPairFactoryLike.sol\";\nimport {CurveErrorCodes} from \"./bonding-curves/CurveErrorCodes.sol\";\n\ncontract LSSVMRouter {\n    using SafeTransferLib for address payable;\n    using SafeTransferLib for ERC20;\n\n    struct PairSwapAny {\n        LSSVMPair pair;\n        uint256 numItems;\n    }\n\n    struct PairSwapSpecific {\n        LSSVMPair pair;\n        uint256[] nftIds;\n    }\n\n    struct RobustPairSwapAny {\n        PairSwapAny swapInfo;\n        uint256 maxCost;\n    }\n\n    struct RobustPairSwapSpecific {\n        PairSwapSpecific swapInfo;\n        uint256 maxCost;\n    }\n\n    struct RobustPairSwapSpecificForToken {\n        PairSwapSpecific swapInfo;\n        uint256 minOutput;\n    }\n\n    struct NFTsForAnyNFTsTrade {\n        PairSwapSpecific[] nftToTokenTrades;\n        PairSwapAny[] tokenToNFTTrades;\n    }\n\n    struct NFTsForSpecificNFTsTrade {\n        PairSwapSpecific[] nftToTokenTrades;\n        PairSwapSpecific[] tokenToNFTTrades;\n    }\n\n    struct RobustPairNFTsFoTokenAndTokenforNFTsTrade {\n        RobustPairSwapSpecific[] tokenToNFTTrades;  \n        RobustPairSwapSpecificForToken[] nftToTokenTrades;\n        uint256 inputAmount;\n        address payable tokenRecipient;\n        address nftRecipient;\n    }\n\n    modifier checkDeadline(uint256 deadline) {\n        _checkDeadline(deadline);\n        _;\n    }\n\n    ILSSVMPairFactoryLike public immutable factory;\n\n    constructor(ILSSVMPairFactoryLike _factory) {\n        factory = _factory;\n    }\n\n    /**\n        ETH swaps\n     */\n\n    /**\n        @notice Swaps ETH into NFTs using multiple pairs.\n        @param swapList The list of pairs to trade with and the number of NFTs to buy from each.\n        @param ethRecipient The address that will receive the unspent ETH input\n        @param nftRecipient The address that will receive the NFT output\n        @param deadline The Unix timestamp (in seconds) at/after which the swap will revert\n        @return remainingValue The unspent ETH amount\n     */\n    function swapETHForAnyNFTs(\n        PairSwapAny[] calldata swapList,\n        address payable ethRecipient,\n        address nftRecipient,\n        uint256 deadline\n    )\n        external\n        payable\n        checkDeadline(deadline)\n        returns (uint256 remainingValue)\n    {\n        return\n            _swapETHForAnyNFTs(swapList, msg.value, ethRecipient, nftRecipient);\n    }\n\n    /**\n        @notice Swaps ETH into specific NFTs using multiple pairs.\n        @param swapList The list of pairs to trade with and the IDs of the NFTs to buy from each.\n        @param ethRecipient The address that will receive the unspent ETH input\n        @param nftRecipient The address that will receive the NFT output\n        @param deadline The Unix timestamp (in seconds) at/after which the swap will revert\n        @return remainingValue The unspent ETH amount\n     */\n    function swapETHForSpecificNFTs(\n        PairSwapSpecific[] calldata swapList,\n        address payable ethRecipient,\n        address nftRecipient,\n        uint256 deadline\n    )\n        external\n        payable\n        checkDeadline(deadline)\n        returns (uint256 remainingValue)\n    {\n        return\n            _swapETHForSpecificNFTs(\n                swapList,\n                msg.value,\n                ethRecipient,\n                nftRecipient\n            );\n    }\n\n    /**\n        @notice Swaps one set of NFTs into another set of specific NFTs using multiple pairs, using\n        ETH as the intermediary.\n        @param trade The struct containing all NFT-to-ETH swaps and ETH-to-NFT swaps.\n        @param minOutput The minimum acceptable total excess ETH received\n        @param ethRecipient The address that will receive the ETH output\n        @param nftRecipient The address that will receive the NFT output\n        @param deadline The Unix timestamp (in seconds) at/after which the swap will revert\n        @return outputAmount The total ETH received\n     */\n    function swapNFTsForAnyNFTsThroughETH(\n        NFTsForAnyNFTsTrade calldata trade,\n        uint256 minOutput,\n        address payable ethRecipient,\n        address nftRecipient,\n        uint256 deadline\n    ) external payable checkDeadline(deadline) returns (uint256 outputAmount) {\n        // Swap NFTs for ETH\n        // minOutput of swap set to 0 since we're doing an aggregate slippage check\n        outputAmount = _swapNFTsForToken(\n            trade.nftToTokenTrades,\n            0,\n            payable(address(this))\n        );\n\n        // Add extra value to buy NFTs\n        outputAmount += msg.value;\n\n        // Swap ETH for any NFTs\n        // cost <= inputValue = outputAmount - minOutput, so outputAmount' = (outputAmount - minOutput - cost) + minOutput >= minOutput\n        outputAmount =\n            _swapETHForAnyNFTs(\n                trade.tokenToNFTTrades,\n                outputAmount - minOutput,\n                ethRecipient,\n                nftRecipient\n            ) +\n            minOutput;\n    }\n\n    /**\n        @notice Swaps one set of NFTs into another set of specific NFTs using multiple pairs, using\n        ETH as the intermediary.\n        @param trade The struct containing all NFT-to-ETH swaps and ETH-to-NFT swaps.\n        @param minOutput The minimum acceptable total excess ETH received\n        @param ethRecipient The address that will receive the ETH output\n        @param nftRecipient The address that will receive the NFT output\n        @param deadline The Unix timestamp (in seconds) at/after which the swap will revert\n        @return outputAmount The total ETH received\n     */\n    function swapNFTsForSpecificNFTsThroughETH(\n        NFTsForSpecificNFTsTrade calldata trade,\n        uint256 minOutput,\n        address payable ethRecipient,\n        address nftRecipient,\n        uint256 deadline\n    ) external payable checkDeadline(deadline) returns (uint256 outputAmount) {\n        // Swap NFTs for ETH\n        // minOutput of swap set to 0 since we're doing an aggregate slippage check\n        outputAmount = _swapNFTsForToken(\n            trade.nftToTokenTrades,\n            0,\n            payable(address(this))\n        );\n\n        // Add extra value to buy NFTs\n        outputAmount += msg.value;\n\n        // Swap ETH for specific NFTs\n        // cost <= inputValue = outputAmount - minOutput, so outputAmount' = (outputAmount - minOutput - cost) + minOutput >= minOutput\n        outputAmount =\n            _swapETHForSpecificNFTs(\n                trade.tokenToNFTTrades,\n                outputAmount - minOutput,\n                ethRecipient,\n                nftRecipient\n            ) +\n            minOutput;\n    }\n\n    /**\n        ERC20 swaps\n\n        Note: All ERC20 swaps assume that a single ERC20 token is used for all the pairs involved.\n        Swapping using multiple tokens in the same transaction is possible, but the slippage checks\n        & the return values will be meaningless, and may lead to undefined behavior.\n\n        Note: The sender should ideally grant infinite token approval to the router in order for NFT-to-NFT\n        swaps to work smoothly.\n     */\n\n    /**\n        @notice Swaps ERC20 tokens into NFTs using multiple pairs.\n        @param swapList The list of pairs to trade with and the number of NFTs to buy from each.\n        @param inputAmount The amount of ERC20 tokens to add to the ERC20-to-NFT swaps\n        @param nftRecipient The address that will receive the NFT output\n        @param deadline The Unix timestamp (in seconds) at/after which the swap will revert\n        @return remainingValue The unspent token amount\n     */\n    function swapERC20ForAnyNFTs(\n        PairSwapAny[] calldata swapList,\n        uint256 inputAmount,\n        address nftRecipient,\n        uint256 deadline\n    ) external checkDeadline(deadline) returns (uint256 remainingValue) {\n        return _swapERC20ForAnyNFTs(swapList, inputAmount, nftRecipient);\n    }\n\n    /**\n        @notice Swaps ERC20 tokens into specific NFTs using multiple pairs.\n        @param swapList The list of pairs to trade with and the IDs of the NFTs to buy from each.\n        @param inputAmount The amount of ERC20 tokens to add to the ERC20-to-NFT swaps\n        @param nftRecipient The address that will receive the NFT output\n        @param deadline The Unix timestamp (in seconds) at/after which the swap will revert\n        @return remainingValue The unspent token amount\n     */\n    function swapERC20ForSpecificNFTs(\n        PairSwapSpecific[] calldata swapList,\n        uint256 inputAmount,\n        address nftRecipient,\n        uint256 deadline\n    ) external checkDeadline(deadline) returns (uint256 remainingValue) {\n        return _swapERC20ForSpecificNFTs(swapList, inputAmount, nftRecipient);\n    }\n\n    /**\n        @notice Swaps NFTs into ETH/ERC20 using multiple pairs.\n        @param swapList The list of pairs to trade with and the IDs of the NFTs to sell to each.\n        @param minOutput The minimum acceptable total tokens received\n        @param tokenRecipient The address that will receive the token output\n        @param deadline The Unix timestamp (in seconds) at/after which the swap will revert\n        @return outputAmount The total tokens received\n     */\n    function swapNFTsForToken(\n        PairSwapSpecific[] calldata swapList,\n        uint256 minOutput,\n        address tokenRecipient,\n        uint256 deadline\n    ) external checkDeadline(deadline) returns (uint256 outputAmount) {\n        return _swapNFTsForToken(swapList, minOutput, payable(tokenRecipient));\n    }\n\n    /**\n        @notice Swaps one set of NFTs into another set of specific NFTs using multiple pairs, using\n        an ERC20 token as the intermediary.\n        @param trade The struct containing all NFT-to-ERC20 swaps and ERC20-to-NFT swaps.\n        @param inputAmount The amount of ERC20 tokens to add to the ERC20-to-NFT swaps\n        @param minOutput The minimum acceptable total excess tokens received\n        @param nftRecipient The address that will receive the NFT output\n        @param deadline The Unix timestamp (in seconds) at/after which the swap will revert\n        @return outputAmount The total ERC20 tokens received\n     */\n    function swapNFTsForAnyNFTsThroughERC20(\n        NFTsForAnyNFTsTrade calldata trade,\n        uint256 inputAmount,\n        uint256 minOutput,\n        address nftRecipient,\n        uint256 deadline\n    ) external checkDeadline(deadline) returns (uint256 outputAmount) {\n        // Swap NFTs for ERC20\n        // minOutput of swap set to 0 since we're doing an aggregate slippage check\n        // output tokens are sent to msg.sender\n        outputAmount = _swapNFTsForToken(\n            trade.nftToTokenTrades,\n            0,\n            payable(msg.sender)\n        );\n\n        // Add extra value to buy NFTs\n        outputAmount += inputAmount;\n\n        // Swap ERC20 for any NFTs\n        // cost <= maxCost = outputAmount - minOutput, so outputAmount' = outputAmount - cost >= minOutput\n        // input tokens are taken directly from msg.sender\n        outputAmount =\n            _swapERC20ForAnyNFTs(\n                trade.tokenToNFTTrades,\n                outputAmount - minOutput,\n                nftRecipient\n            ) +\n            minOutput;\n    }\n\n    /**\n        @notice Swaps one set of NFTs into another set of specific NFTs using multiple pairs, using\n        an ERC20 token as the intermediary.\n        @param trade The struct containing all NFT-to-ERC20 swaps and ERC20-to-NFT swaps.\n        @param inputAmount The amount of ERC20 tokens to add to the ERC20-to-NFT swaps\n        @param minOutput The minimum acceptable total excess tokens received\n        @param nftRecipient The address that will receive the NFT output\n        @param deadline The Unix timestamp (in seconds) at/after which the swap will revert\n        @return outputAmount The total ERC20 tokens received\n     */\n    function swapNFTsForSpecificNFTsThroughERC20(\n        NFTsForSpecificNFTsTrade calldata trade,\n        uint256 inputAmount,\n        uint256 minOutput,\n        address nftRecipient,\n        uint256 deadline\n    ) external checkDeadline(deadline) returns (uint256 outputAmount) {\n        // Swap NFTs for ERC20\n        // minOutput of swap set to 0 since we're doing an aggregate slippage check\n        // output tokens are sent to msg.sender\n        outputAmount = _swapNFTsForToken(\n            trade.nftToTokenTrades,\n            0,\n            payable(msg.sender)\n        );\n\n        // Add extra value to buy NFTs\n        outputAmount += inputAmount;\n\n        // Swap ERC20 for specific NFTs\n        // cost <= maxCost = outputAmount - minOutput, so outputAmount' = outputAmount - cost >= minOutput\n        // input tokens are taken directly from msg.sender\n        outputAmount =\n            _swapERC20ForSpecificNFTs(\n                trade.tokenToNFTTrades,\n                outputAmount - minOutput,\n                nftRecipient\n            ) +\n            minOutput;\n    }\n\n    /**\n        Robust Swaps\n        These are \"robust\" versions of the NFT<>Token swap functions which will never revert due to slippage\n        Instead, users specify a per-swap max cost. If the price changes more than the user specifies, no swap is attempted. This allows users to specify a batch of swaps, and execute as many of them as possible.\n     */\n\n    /**\n        @dev We assume msg.value >= sum of values in maxCostPerPair\n        @notice Swaps as much ETH for any NFTs as possible, respecting the per-swap max cost.\n        @param swapList The list of pairs to trade with and the number of NFTs to buy from each.\n        @param ethRecipient The address that will receive the unspent ETH input\n        @param nftRecipient The address that will receive the NFT output\n        @param deadline The Unix timestamp (in seconds) at/after which the swap will revert\n        @return remainingValue The unspent token amount\n     */\n    function robustSwapETHForAnyNFTs(\n        RobustPairSwapAny[] calldata swapList,\n        address payable ethRecipient,\n        address nftRecipient,\n        uint256 deadline\n    )\n        external\n        payable\n        checkDeadline(deadline)\n        returns (uint256 remainingValue)\n    {\n        remainingValue = msg.value;\n\n        // Try doing each swap\n        uint256 pairCost;\n        CurveErrorCodes.Error error;\n        uint256 numSwaps = swapList.length;\n        for (uint256 i; i < numSwaps; ) {\n            // Calculate actual cost per swap\n            (error, , , pairCost, ) = swapList[i].swapInfo.pair.getBuyNFTQuote(\n                swapList[i].swapInfo.numItems\n            );\n\n            // If within our maxCost and no error, proceed\n            if (\n                pairCost <= swapList[i].maxCost &&\n                error == CurveErrorCodes.Error.OK\n            ) {\n                // We know how much ETH to send because we already did the math above\n                // So we just send that much\n                remainingValue -= swapList[i].swapInfo.pair.swapTokenForAnyNFTs{\n                    value: pairCost\n                }(\n                    swapList[i].swapInfo.numItems,\n                    pairCost,\n                    nftRecipient,\n                    true,\n                    msg.sender\n                );\n            }\n\n            unchecked {\n                ++i;\n            }\n        }\n\n        // Return remaining value to sender\n        if (remainingValue > 0) {\n            ethRecipient.safeTransferETH(remainingValue);\n        }\n    }\n\n    /**\n        @dev We assume msg.value >= sum of values in maxCostPerPair\n        @param swapList The list of pairs to trade with and the IDs of the NFTs to buy from each.\n        @param ethRecipient The address that will receive the unspent ETH input\n        @param nftRecipient The address that will receive the NFT output\n        @param deadline The Unix timestamp (in seconds) at/after which the swap will revert\n        @return remainingValue The unspent token amount\n     */\n    function robustSwapETHForSpecificNFTs(\n        RobustPairSwapSpecific[] calldata swapList,\n        address payable ethRecipient,\n        address nftRecipient,\n        uint256 deadline\n    ) public payable checkDeadline(deadline) returns (uint256 remainingValue) {\n        remainingValue = msg.value;\n        uint256 pairCost;\n        CurveErrorCodes.Error error;\n\n        // Try doing each swap\n        uint256 numSwaps = swapList.length;\n        for (uint256 i; i < numSwaps; ) {\n            // Calculate actual cost per swap\n            (error, , , pairCost, ) = swapList[i].swapInfo.pair.getBuyNFTQuote(\n                swapList[i].swapInfo.nftIds.length\n            );\n\n            // If within our maxCost and no error, proceed\n            if (\n                pairCost <= swapList[i].maxCost &&\n                error == CurveErrorCodes.Error.OK\n            ) {\n                // We know how much ETH to send because we already did the math above\n                // So we just send that much\n                remainingValue -= swapList[i]\n                    .swapInfo\n                    .pair\n                    .swapTokenForSpecificNFTs{value: pairCost}(\n                    swapList[i].swapInfo.nftIds,\n                    pairCost,\n                    nftRecipient,\n                    true,\n                    msg.sender\n                );\n            }\n\n            unchecked {\n                ++i;\n            }\n        }\n\n        // Return remaining value to sender\n        if (remainingValue > 0) {\n            ethRecipient.safeTransferETH(remainingValue);\n        }\n    }\n\n    /**\n        @notice Swaps as many ERC20 tokens for any NFTs as possible, respecting the per-swap max cost.\n        @param swapList The list of pairs to trade with and the number of NFTs to buy from each.\n        @param inputAmount The amount of ERC20 tokens to add to the ERC20-to-NFT swaps\n        @param nftRecipient The address that will receive the NFT output\n        @param deadline The Unix timestamp (in seconds) at/after which the swap will revert\n        @return remainingValue The unspent token amount\n        \n     */\n    function robustSwapERC20ForAnyNFTs(\n        RobustPairSwapAny[] calldata swapList,\n        uint256 inputAmount,\n        address nftRecipient,\n        uint256 deadline\n    ) external checkDeadline(deadline) returns (uint256 remainingValue) {\n        remainingValue = inputAmount;\n        uint256 pairCost;\n        CurveErrorCodes.Error error;\n\n        // Try doing each swap\n        uint256 numSwaps = swapList.length;\n        for (uint256 i; i < numSwaps; ) {\n            // Calculate actual cost per swap\n            (error, , , pairCost, ) = swapList[i].swapInfo.pair.getBuyNFTQuote(\n                swapList[i].swapInfo.numItems\n            );\n\n            // If within our maxCost and no error, proceed\n            if (\n                pairCost <= swapList[i].maxCost &&\n                error == CurveErrorCodes.Error.OK\n            ) {\n                remainingValue -= swapList[i].swapInfo.pair.swapTokenForAnyNFTs(\n                        swapList[i].swapInfo.numItems,\n                        pairCost,\n                        nftRecipient,\n                        true,\n                        msg.sender\n                    );\n            }\n\n            unchecked {\n                ++i;\n            }\n        }\n    }\n\n    /**\n        @notice Swaps as many ERC20 tokens for specific NFTs as possible, respecting the per-swap max cost.\n        @param swapList The list of pairs to trade with and the IDs of the NFTs to buy from each.\n        @param inputAmount The amount of ERC20 tokens to add to the ERC20-to-NFT swaps\n\n        @param nftRecipient The address that will receive the NFT output\n        @param deadline The Unix timestamp (in seconds) at/after which the swap will revert\n        @return remainingValue The unspent token amount\n     */\n    function robustSwapERC20ForSpecificNFTs(\n        RobustPairSwapSpecific[] calldata swapList,\n        uint256 inputAmount,\n        address nftRecipient,\n        uint256 deadline\n    ) public checkDeadline(deadline) returns (uint256 remainingValue) {\n        remainingValue = inputAmount;\n        uint256 pairCost;\n        CurveErrorCodes.Error error;\n\n        // Try doing each swap\n        uint256 numSwaps = swapList.length;\n        for (uint256 i; i < numSwaps; ) {\n            // Calculate actual cost per swap\n            (error, , , pairCost, ) = swapList[i].swapInfo.pair.getBuyNFTQuote(\n                swapList[i].swapInfo.nftIds.length\n            );\n\n            // If within our maxCost and no error, proceed\n            if (\n                pairCost <= swapList[i].maxCost &&\n                error == CurveErrorCodes.Error.OK\n            ) {\n                remainingValue -= swapList[i]\n                    .swapInfo\n                    .pair\n                    .swapTokenForSpecificNFTs(\n                        swapList[i].swapInfo.nftIds,\n                        pairCost,\n                        nftRecipient,\n                        true,\n                        msg.sender\n                    );\n            }\n\n            unchecked {\n                ++i;\n            }\n        }\n    }\n\n    /**\n        @notice Swaps as many NFTs for tokens as possible, respecting the per-swap min output\n        @param swapList The list of pairs to trade with and the IDs of the NFTs to sell to each.\n        @param tokenRecipient The address that will receive the token output\n        @param deadline The Unix timestamp (in seconds) at/after which the swap will revert\n        @return outputAmount The total ETH/ERC20 received\n     */\n    function robustSwapNFTsForToken(\n        RobustPairSwapSpecificForToken[] calldata swapList,\n        address payable tokenRecipient,\n        uint256 deadline\n    ) public checkDeadline(deadline) returns (uint256 outputAmount) {\n        // Try doing each swap\n        uint256 numSwaps = swapList.length;\n        for (uint256 i; i < numSwaps; ) {\n            uint256 pairOutput;\n\n            // Locally scoped to avoid stack too deep error\n            {\n                CurveErrorCodes.Error error;\n                (error, , , pairOutput, ) = swapList[i]\n                    .swapInfo\n                    .pair\n                    .getSellNFTQuote(swapList[i].swapInfo.nftIds.length);\n                if (error != CurveErrorCodes.Error.OK) {\n                    unchecked {\n                        ++i;\n                    }\n                    continue;\n                }\n            }\n\n            // If at least equal to our minOutput, proceed\n            if (pairOutput >= swapList[i].minOutput) {\n                // Do the swap and update outputAmount with how many tokens we got\n                outputAmount += swapList[i].swapInfo.pair.swapNFTsForToken(\n                    swapList[i].swapInfo.nftIds,\n                    0,\n                    tokenRecipient,\n                    true,\n                    msg.sender\n                );\n            }\n\n            unchecked {\n                ++i;\n            }\n        }\n    }\n\n    /**\n        @notice Buys NFTs with ETH and sells them for tokens in one transaction\n        @param params All the parameters for the swap (packed in struct to avoid stack too deep), containing:\n        - ethToNFTSwapList The list of NFTs to buy\n        - nftToTokenSwapList The list of NFTs to sell\n        - inputAmount The max amount of tokens to send (if ERC20)\n        - tokenRecipient The address that receives tokens from the NFTs sold\n        - nftRecipient The address that receives NFTs\n        - deadline UNIX timestamp deadline for the swap\n     */\n    function robustSwapETHForSpecificNFTsAndNFTsToToken(\n        RobustPairNFTsFoTokenAndTokenforNFTsTrade calldata params\n    ) external payable returns (uint256 remainingValue, uint256 outputAmount) {\n        {\n            remainingValue = msg.value;\n            uint256 pairCost;\n            CurveErrorCodes.Error error;\n\n            // Try doing each swap\n            uint256 numSwaps = params.tokenToNFTTrades.length;\n            for (uint256 i; i < numSwaps; ) {\n                // Calculate actual cost per swap\n                (error, , , pairCost, ) = params\n                    .tokenToNFTTrades[i]\n                    .swapInfo\n                    .pair\n                    .getBuyNFTQuote(\n                        params.tokenToNFTTrades[i].swapInfo.nftIds.length\n                    );\n\n                // If within our maxCost and no error, proceed\n                if (\n                    pairCost <= params.tokenToNFTTrades[i].maxCost &&\n                    error == CurveErrorCodes.Error.OK\n                ) {\n                    // We know how much ETH to send because we already did the math above\n                    // So we just send that much\n                    remainingValue -= params\n                        .tokenToNFTTrades[i]\n                        .swapInfo\n                        .pair\n                        .swapTokenForSpecificNFTs{value: pairCost}(\n                        params.tokenToNFTTrades[i].swapInfo.nftIds,\n                        pairCost,\n                        params.nftRecipient,\n                        true,\n                        msg.sender\n                    );\n                }\n\n                unchecked {\n                    ++i;\n                }\n            }\n\n            // Return remaining value to sender\n            if (remainingValue > 0) {\n                params.tokenRecipient.safeTransferETH(remainingValue);\n            }\n        }\n        {\n            // Try doing each swap\n            uint256 numSwaps = params.nftToTokenTrades.length;\n            for (uint256 i; i < numSwaps; ) {\n                uint256 pairOutput;\n\n                // Locally scoped to avoid stack too deep error\n                {\n                    CurveErrorCodes.Error error;\n                    (error, , , pairOutput, ) = params\n                        .nftToTokenTrades[i]\n                        .swapInfo\n                        .pair\n                        .getSellNFTQuote(\n                            params.nftToTokenTrades[i].swapInfo.nftIds.length\n                        );\n                    if (error != CurveErrorCodes.Error.OK) {\n                        unchecked {\n                            ++i;\n                        }\n                        continue;\n                    }\n                }\n\n                // If at least equal to our minOutput, proceed\n                if (pairOutput >= params.nftToTokenTrades[i].minOutput) {\n                    // Do the swap and update outputAmount with how many tokens we got\n                    outputAmount += params\n                        .nftToTokenTrades[i]\n                        .swapInfo\n                        .pair\n                        .swapNFTsForToken(\n                            params.nftToTokenTrades[i].swapInfo.nftIds,\n                            0,\n                            params.tokenRecipient,\n                            true,\n                            msg.sender\n                        );\n                }\n\n                unchecked {\n                    ++i;\n                }\n            }\n        }\n    }\n\n    /**\n        @notice Buys NFTs with ERC20, and sells them for tokens in one transaction\n        @param params All the parameters for the swap (packed in struct to avoid stack too deep), containing:\n        - ethToNFTSwapList The list of NFTs to buy\n        - nftToTokenSwapList The list of NFTs to sell\n        - inputAmount The max amount of tokens to send (if ERC20)\n        - tokenRecipient The address that receives tokens from the NFTs sold\n        - nftRecipient The address that receives NFTs\n        - deadline UNIX timestamp deadline for the swap\n     */\n    function robustSwapERC20ForSpecificNFTsAndNFTsToToken(\n        RobustPairNFTsFoTokenAndTokenforNFTsTrade calldata params\n    ) external payable returns (uint256 remainingValue, uint256 outputAmount) {\n        {\n            remainingValue = params.inputAmount;\n            uint256 pairCost;\n            CurveErrorCodes.Error error;\n\n            // Try doing each swap\n            uint256 numSwaps = params.tokenToNFTTrades.length;\n            for (uint256 i; i < numSwaps; ) {\n                // Calculate actual cost per swap\n                (error, , , pairCost, ) = params.tokenToNFTTrades[i]\n                    .swapInfo\n                    .pair\n                    .getBuyNFTQuote(params.tokenToNFTTrades[i].swapInfo.nftIds.length);\n\n                // If within our maxCost and no error, proceed\n                if (\n                    pairCost <= params.tokenToNFTTrades[i].maxCost &&\n                    error == CurveErrorCodes.Error.OK\n                ) {\n                    remainingValue -= params.tokenToNFTTrades[i]\n                        .swapInfo\n                        .pair\n                        .swapTokenForSpecificNFTs(\n                            params.tokenToNFTTrades[i].swapInfo.nftIds,\n                            pairCost,\n                            params.nftRecipient,\n                            true,\n                            msg.sender\n                        );\n                }\n\n                unchecked {\n                    ++i;\n                }\n            }\n        }\n        {\n            // Try doing each swap\n            uint256 numSwaps = params.nftToTokenTrades.length;\n            for (uint256 i; i < numSwaps; ) {\n                uint256 pairOutput;\n\n                // Locally scoped to avoid stack too deep error\n                {\n                    CurveErrorCodes.Error error;\n                    (error, , , pairOutput, ) = params\n                        .nftToTokenTrades[i]\n                        .swapInfo\n                        .pair\n                        .getSellNFTQuote(\n                            params.nftToTokenTrades[i].swapInfo.nftIds.length\n                        );\n                    if (error != CurveErrorCodes.Error.OK) {\n                        unchecked {\n                            ++i;\n                        }\n                        continue;\n                    }\n                }\n\n                // If at least equal to our minOutput, proceed\n                if (pairOutput >= params.nftToTokenTrades[i].minOutput) {\n                    // Do the swap and update outputAmount with how many tokens we got\n                    outputAmount += params\n                        .nftToTokenTrades[i]\n                        .swapInfo\n                        .pair\n                        .swapNFTsForToken(\n                            params.nftToTokenTrades[i].swapInfo.nftIds,\n                            0,\n                            params.tokenRecipient,\n                            true,\n                            msg.sender\n                        );\n                }\n\n                unchecked {\n                    ++i;\n                }\n            }\n        }\n    }\n\n    receive() external payable {}\n\n    /**\n        Restricted functions\n     */\n\n    /**\n        @dev Allows an ERC20 pair contract to transfer ERC20 tokens directly from\n        the sender, in order to minimize the number of token transfers. Only callable by an ERC20 pair.\n        @param token The ERC20 token to transfer\n        @param from The address to transfer tokens from\n        @param to The address to transfer tokens to\n        @param amount The amount of tokens to transfer\n        @param variant The pair variant of the pair contract\n     */\n    function pairTransferERC20From(\n        ERC20 token,\n        address from,\n        address to,\n        uint256 amount,\n        ILSSVMPairFactoryLike.PairVariant variant\n    ) external {\n        // verify caller is a trusted pair contract\n        require(factory.isPair(msg.sender, variant), \"Not pair\");\n\n        // verify caller is an ERC20 pair\n        require(\n            variant == ILSSVMPairFactoryLike.PairVariant.ENUMERABLE_ERC20 ||\n                variant ==\n                ILSSVMPairFactoryLike.PairVariant.MISSING_ENUMERABLE_ERC20,\n            \"Not ERC20 pair\"\n        );\n\n        // transfer tokens to pair\n        token.safeTransferFrom(from, to, amount);\n    }\n\n    /**\n        @dev Allows a pair contract to transfer ERC721 NFTs directly from\n        the sender, in order to minimize the number of token transfers. Only callable by a pair.\n        @param nft The ERC721 NFT to transfer\n        @param from The address to transfer tokens from\n        @param to The address to transfer tokens to\n        @param id The ID of the NFT to transfer\n        @param variant The pair variant of the pair contract\n     */\n    function pairTransferNFTFrom(\n        IERC721 nft,\n        address from,\n        address to,\n        uint256 id,\n        ILSSVMPairFactoryLike.PairVariant variant\n    ) external {\n        // verify caller is a trusted pair contract\n        require(factory.isPair(msg.sender, variant), \"Not pair\");\n\n        // transfer NFTs to pair\n        nft.safeTransferFrom(from, to, id);\n    }\n\n    /**\n        Internal functions\n     */\n\n    /**\n        @param deadline The last valid time for a swap\n     */\n    function _checkDeadline(uint256 deadline) internal view {\n        require(block.timestamp <= deadline, \"Deadline passed\");\n    }\n\n    /**\n        @notice Internal function used to swap ETH for any NFTs\n        @param swapList The list of pairs and swap calldata\n        @param inputAmount The total amount of ETH to send\n        @param ethRecipient The address receiving excess ETH\n        @param nftRecipient The address receiving the NFTs from the pairs\n        @return remainingValue The unspent token amount\n     */\n    function _swapETHForAnyNFTs(\n        PairSwapAny[] calldata swapList,\n        uint256 inputAmount,\n        address payable ethRecipient,\n        address nftRecipient\n    ) internal returns (uint256 remainingValue) {\n        remainingValue = inputAmount;\n\n        uint256 pairCost;\n        CurveErrorCodes.Error error;\n\n        // Do swaps\n        uint256 numSwaps = swapList.length;\n        for (uint256 i; i < numSwaps; ) {\n            // Calculate the cost per swap first to send exact amount of ETH over, saves gas by avoiding the need to send back excess ETH\n            (error, , , pairCost, ) = swapList[i].pair.getBuyNFTQuote(\n                swapList[i].numItems\n            );\n\n            // Require no error\n            require(error == CurveErrorCodes.Error.OK, \"Bonding curve error\");\n\n            // Total ETH taken from sender cannot exceed inputAmount\n            // because otherwise the deduction from remainingValue will fail\n            remainingValue -= swapList[i].pair.swapTokenForAnyNFTs{\n                value: pairCost\n            }(\n                swapList[i].numItems,\n                remainingValue,\n                nftRecipient,\n                true,\n                msg.sender\n            );\n\n            unchecked {\n                ++i;\n            }\n        }\n\n        // Return remaining value to sender\n        if (remainingValue > 0) {\n            ethRecipient.safeTransferETH(remainingValue);\n        }\n    }\n\n    /**\n        @notice Internal function used to swap ETH for a specific set of NFTs\n        @param swapList The list of pairs and swap calldata\n        @param inputAmount The total amount of ETH to send\n        @param ethRecipient The address receiving excess ETH\n        @param nftRecipient The address receiving the NFTs from the pairs\n        @return remainingValue The unspent token amount\n     */\n    function _swapETHForSpecificNFTs(\n        PairSwapSpecific[] calldata swapList,\n        uint256 inputAmount,\n        address payable ethRecipient,\n        address nftRecipient\n    ) internal returns (uint256 remainingValue) {\n        remainingValue = inputAmount;\n\n        uint256 pairCost;\n        CurveErrorCodes.Error error;\n\n        // Do swaps\n        uint256 numSwaps = swapList.length;\n        for (uint256 i; i < numSwaps; ) {\n            // Calculate the cost per swap first to send exact amount of ETH over, saves gas by avoiding the need to send back excess ETH\n            (error, , , pairCost, ) = swapList[i].pair.getBuyNFTQuote(\n                swapList[i].nftIds.length\n            );\n\n            // Require no errors\n            require(error == CurveErrorCodes.Error.OK, \"Bonding curve error\");\n\n            // Total ETH taken from sender cannot exceed inputAmount\n            // because otherwise the deduction from remainingValue will fail\n            remainingValue -= swapList[i].pair.swapTokenForSpecificNFTs{\n                value: pairCost\n            }(\n                swapList[i].nftIds,\n                remainingValue,\n                nftRecipient,\n                true,\n                msg.sender\n            );\n\n            unchecked {\n                ++i;\n            }\n        }\n\n        // Return remaining value to sender\n        if (remainingValue > 0) {\n            ethRecipient.safeTransferETH(remainingValue);\n        }\n    }\n\n    /**\n        @notice Internal function used to swap an ERC20 token for any NFTs\n        @dev Note that we don't need to query the pair's bonding curve first for pricing data because\n        we just calculate and take the required amount from the caller during swap time. \n        However, we can't \"pull\" ETH, which is why for the ETH->NFT swaps, we need to calculate the pricing info\n        to figure out how much the router should send to the pool.\n        @param swapList The list of pairs and swap calldata\n        @param inputAmount The total amount of ERC20 tokens to send\n        @param nftRecipient The address receiving the NFTs from the pairs\n        @return remainingValue The unspent token amount\n     */\n    function _swapERC20ForAnyNFTs(\n        PairSwapAny[] calldata swapList,\n        uint256 inputAmount,\n        address nftRecipient\n    ) internal returns (uint256 remainingValue) {\n        remainingValue = inputAmount;\n\n        // Do swaps\n        uint256 numSwaps = swapList.length;\n        for (uint256 i; i < numSwaps; ) {\n            // Tokens are transferred in by the pair calling router.pairTransferERC20From\n            // Total tokens taken from sender cannot exceed inputAmount\n            // because otherwise the deduction from remainingValue will fail\n            remainingValue -= swapList[i].pair.swapTokenForAnyNFTs(\n                swapList[i].numItems,\n                remainingValue,\n                nftRecipient,\n                true,\n                msg.sender\n            );\n\n            unchecked {\n                ++i;\n            }\n        }\n    }\n\n    /**\n        @notice Internal function used to swap an ERC20 token for specific NFTs\n        @dev Note that we don't need to query the pair's bonding curve first for pricing data because\n        we just calculate and take the required amount from the caller during swap time. \n        However, we can't \"pull\" ETH, which is why for the ETH->NFT swaps, we need to calculate the pricing info\n        to figure out how much the router should send to the pool.\n        @param swapList The list of pairs and swap calldata\n        @param inputAmount The total amount of ERC20 tokens to send\n        @param nftRecipient The address receiving the NFTs from the pairs\n        @return remainingValue The unspent token amount\n     */\n    function _swapERC20ForSpecificNFTs(\n        PairSwapSpecific[] calldata swapList,\n        uint256 inputAmount,\n        address nftRecipient\n    ) internal returns (uint256 remainingValue) {\n        remainingValue = inputAmount;\n\n        // Do swaps\n        uint256 numSwaps = swapList.length;\n        for (uint256 i; i < numSwaps; ) {\n            // Tokens are transferred in by the pair calling router.pairTransferERC20From\n            // Total tokens taken from sender cannot exceed inputAmount\n            // because otherwise the deduction from remainingValue will fail\n            remainingValue -= swapList[i].pair.swapTokenForSpecificNFTs(\n                swapList[i].nftIds,\n                remainingValue,\n                nftRecipient,\n                true,\n                msg.sender\n            );\n\n            unchecked {\n                ++i;\n            }\n        }\n    }\n\n    /**\n        @notice Swaps NFTs for tokens, designed to be used for 1 token at a time\n        @dev Calling with multiple tokens is permitted, BUT minOutput will be \n        far from enough of a safety check because different tokens almost certainly have different unit prices.\n        @param swapList The list of pairs and swap calldata \n        @param minOutput The minimum number of tokens to be receieved frm the swaps \n        @param tokenRecipient The address that receives the tokens\n        @return outputAmount The number of tokens to be received\n     */\n    function _swapNFTsForToken(\n        PairSwapSpecific[] calldata swapList,\n        uint256 minOutput,\n        address payable tokenRecipient\n    ) internal returns (uint256 outputAmount) {\n        // Do swaps\n        uint256 numSwaps = swapList.length;\n        for (uint256 i; i < numSwaps; ) {\n            // Do the swap for token and then update outputAmount\n            // Note: minExpectedTokenOutput is set to 0 since we're doing an aggregate slippage check below\n            outputAmount += swapList[i].pair.swapNFTsForToken(\n                swapList[i].nftIds,\n                0,\n                tokenRecipient,\n                true,\n                msg.sender\n            );\n\n            unchecked {\n                ++i;\n            }\n        }\n\n        // Aggregate slippage check\n        require(outputAmount >= minOutput, \"outputAmount too low\");\n    }\n}\n",
  "sourcePath": "/Users/ds/Documents/rarible/scripts/contracts/lsvm/LSSVMRouter.sol",
  "compiler": {
    "name": "solc",
    "version": "0.8.11+commit.d7f03943.Emscripten.clang"
  },
  "schemaVersion": "3.4.3",
  "updatedAt": "2022-08-27T06:20:42.426Z",
  "devdoc": {
    "kind": "dev",
    "methods": {
      "pairTransferERC20From(address,address,address,uint256,uint8)": {
        "details": "Allows an ERC20 pair contract to transfer ERC20 tokens directly from the sender, in order to minimize the number of token transfers. Only callable by an ERC20 pair.",
        "params": {
          "amount": "The amount of tokens to transfer",
          "from": "The address to transfer tokens from",
          "to": "The address to transfer tokens to",
          "token": "The ERC20 token to transfer",
          "variant": "The pair variant of the pair contract"
        }
      },
      "pairTransferNFTFrom(address,address,address,uint256,uint8)": {
        "details": "Allows a pair contract to transfer ERC721 NFTs directly from the sender, in order to minimize the number of token transfers. Only callable by a pair.",
        "params": {
          "from": "The address to transfer tokens from",
          "id": "The ID of the NFT to transfer",
          "nft": "The ERC721 NFT to transfer",
          "to": "The address to transfer tokens to",
          "variant": "The pair variant of the pair contract"
        }
      },
      "robustSwapERC20ForAnyNFTs(((address,uint256),uint256)[],uint256,address,uint256)": {
        "params": {
          "deadline": "The Unix timestamp (in seconds) at/after which the swap will revert",
          "inputAmount": "The amount of ERC20 tokens to add to the ERC20-to-NFT swaps",
          "nftRecipient": "The address that will receive the NFT output",
          "swapList": "The list of pairs to trade with and the number of NFTs to buy from each."
        },
        "returns": {
          "remainingValue": "The unspent token amount"
        }
      },
      "robustSwapERC20ForSpecificNFTs(((address,uint256[]),uint256)[],uint256,address,uint256)": {
        "params": {
          "deadline": "The Unix timestamp (in seconds) at/after which the swap will revert",
          "inputAmount": "The amount of ERC20 tokens to add to the ERC20-to-NFT swaps",
          "nftRecipient": "The address that will receive the NFT output",
          "swapList": "The list of pairs to trade with and the IDs of the NFTs to buy from each."
        },
        "returns": {
          "remainingValue": "The unspent token amount"
        }
      },
      "robustSwapERC20ForSpecificNFTsAndNFTsToToken((((address,uint256[]),uint256)[],((address,uint256[]),uint256)[],uint256,address,address))": {
        "params": {
          "params": "All the parameters for the swap (packed in struct to avoid stack too deep), containing: - ethToNFTSwapList The list of NFTs to buy - nftToTokenSwapList The list of NFTs to sell - inputAmount The max amount of tokens to send (if ERC20) - tokenRecipient The address that receives tokens from the NFTs sold - nftRecipient The address that receives NFTs - deadline UNIX timestamp deadline for the swap"
        }
      },
      "robustSwapETHForAnyNFTs(((address,uint256),uint256)[],address,address,uint256)": {
        "details": "We assume msg.value >= sum of values in maxCostPerPair",
        "params": {
          "deadline": "The Unix timestamp (in seconds) at/after which the swap will revert",
          "ethRecipient": "The address that will receive the unspent ETH input",
          "nftRecipient": "The address that will receive the NFT output",
          "swapList": "The list of pairs to trade with and the number of NFTs to buy from each."
        },
        "returns": {
          "remainingValue": "The unspent token amount"
        }
      },
      "robustSwapETHForSpecificNFTs(((address,uint256[]),uint256)[],address,address,uint256)": {
        "details": "We assume msg.value >= sum of values in maxCostPerPair",
        "params": {
          "deadline": "The Unix timestamp (in seconds) at/after which the swap will revert",
          "ethRecipient": "The address that will receive the unspent ETH input",
          "nftRecipient": "The address that will receive the NFT output",
          "swapList": "The list of pairs to trade with and the IDs of the NFTs to buy from each."
        },
        "returns": {
          "remainingValue": "The unspent token amount"
        }
      },
      "robustSwapETHForSpecificNFTsAndNFTsToToken((((address,uint256[]),uint256)[],((address,uint256[]),uint256)[],uint256,address,address))": {
        "params": {
          "params": "All the parameters for the swap (packed in struct to avoid stack too deep), containing: - ethToNFTSwapList The list of NFTs to buy - nftToTokenSwapList The list of NFTs to sell - inputAmount The max amount of tokens to send (if ERC20) - tokenRecipient The address that receives tokens from the NFTs sold - nftRecipient The address that receives NFTs - deadline UNIX timestamp deadline for the swap"
        }
      },
      "robustSwapNFTsForToken(((address,uint256[]),uint256)[],address,uint256)": {
        "params": {
          "deadline": "The Unix timestamp (in seconds) at/after which the swap will revert",
          "swapList": "The list of pairs to trade with and the IDs of the NFTs to sell to each.",
          "tokenRecipient": "The address that will receive the token output"
        },
        "returns": {
          "outputAmount": "The total ETH/ERC20 received"
        }
      },
      "swapERC20ForAnyNFTs((address,uint256)[],uint256,address,uint256)": {
        "params": {
          "deadline": "The Unix timestamp (in seconds) at/after which the swap will revert",
          "inputAmount": "The amount of ERC20 tokens to add to the ERC20-to-NFT swaps",
          "nftRecipient": "The address that will receive the NFT output",
          "swapList": "The list of pairs to trade with and the number of NFTs to buy from each."
        },
        "returns": {
          "remainingValue": "The unspent token amount"
        }
      },
      "swapERC20ForSpecificNFTs((address,uint256[])[],uint256,address,uint256)": {
        "params": {
          "deadline": "The Unix timestamp (in seconds) at/after which the swap will revert",
          "inputAmount": "The amount of ERC20 tokens to add to the ERC20-to-NFT swaps",
          "nftRecipient": "The address that will receive the NFT output",
          "swapList": "The list of pairs to trade with and the IDs of the NFTs to buy from each."
        },
        "returns": {
          "remainingValue": "The unspent token amount"
        }
      },
      "swapETHForAnyNFTs((address,uint256)[],address,address,uint256)": {
        "params": {
          "deadline": "The Unix timestamp (in seconds) at/after which the swap will revert",
          "ethRecipient": "The address that will receive the unspent ETH input",
          "nftRecipient": "The address that will receive the NFT output",
          "swapList": "The list of pairs to trade with and the number of NFTs to buy from each."
        },
        "returns": {
          "remainingValue": "The unspent ETH amount"
        }
      },
      "swapETHForSpecificNFTs((address,uint256[])[],address,address,uint256)": {
        "params": {
          "deadline": "The Unix timestamp (in seconds) at/after which the swap will revert",
          "ethRecipient": "The address that will receive the unspent ETH input",
          "nftRecipient": "The address that will receive the NFT output",
          "swapList": "The list of pairs to trade with and the IDs of the NFTs to buy from each."
        },
        "returns": {
          "remainingValue": "The unspent ETH amount"
        }
      },
      "swapNFTsForAnyNFTsThroughERC20(((address,uint256[])[],(address,uint256)[]),uint256,uint256,address,uint256)": {
        "params": {
          "deadline": "The Unix timestamp (in seconds) at/after which the swap will revert",
          "inputAmount": "The amount of ERC20 tokens to add to the ERC20-to-NFT swaps",
          "minOutput": "The minimum acceptable total excess tokens received",
          "nftRecipient": "The address that will receive the NFT output",
          "trade": "The struct containing all NFT-to-ERC20 swaps and ERC20-to-NFT swaps."
        },
        "returns": {
          "outputAmount": "The total ERC20 tokens received"
        }
      },
      "swapNFTsForAnyNFTsThroughETH(((address,uint256[])[],(address,uint256)[]),uint256,address,address,uint256)": {
        "params": {
          "deadline": "The Unix timestamp (in seconds) at/after which the swap will revert",
          "ethRecipient": "The address that will receive the ETH output",
          "minOutput": "The minimum acceptable total excess ETH received",
          "nftRecipient": "The address that will receive the NFT output",
          "trade": "The struct containing all NFT-to-ETH swaps and ETH-to-NFT swaps."
        },
        "returns": {
          "outputAmount": "The total ETH received"
        }
      },
      "swapNFTsForSpecificNFTsThroughERC20(((address,uint256[])[],(address,uint256[])[]),uint256,uint256,address,uint256)": {
        "params": {
          "deadline": "The Unix timestamp (in seconds) at/after which the swap will revert",
          "inputAmount": "The amount of ERC20 tokens to add to the ERC20-to-NFT swaps",
          "minOutput": "The minimum acceptable total excess tokens received",
          "nftRecipient": "The address that will receive the NFT output",
          "trade": "The struct containing all NFT-to-ERC20 swaps and ERC20-to-NFT swaps."
        },
        "returns": {
          "outputAmount": "The total ERC20 tokens received"
        }
      },
      "swapNFTsForSpecificNFTsThroughETH(((address,uint256[])[],(address,uint256[])[]),uint256,address,address,uint256)": {
        "params": {
          "deadline": "The Unix timestamp (in seconds) at/after which the swap will revert",
          "ethRecipient": "The address that will receive the ETH output",
          "minOutput": "The minimum acceptable total excess ETH received",
          "nftRecipient": "The address that will receive the NFT output",
          "trade": "The struct containing all NFT-to-ETH swaps and ETH-to-NFT swaps."
        },
        "returns": {
          "outputAmount": "The total ETH received"
        }
      },
      "swapNFTsForToken((address,uint256[])[],uint256,address,uint256)": {
        "params": {
          "deadline": "The Unix timestamp (in seconds) at/after which the swap will revert",
          "minOutput": "The minimum acceptable total tokens received",
          "swapList": "The list of pairs to trade with and the IDs of the NFTs to sell to each.",
          "tokenRecipient": "The address that will receive the token output"
        },
        "returns": {
          "outputAmount": "The total tokens received"
        }
      }
    },
    "version": 1
  },
  "userdoc": {
    "kind": "user",
    "methods": {
      "robustSwapERC20ForAnyNFTs(((address,uint256),uint256)[],uint256,address,uint256)": {
        "notice": "Swaps as many ERC20 tokens for any NFTs as possible, respecting the per-swap max cost."
      },
      "robustSwapERC20ForSpecificNFTs(((address,uint256[]),uint256)[],uint256,address,uint256)": {
        "notice": "Swaps as many ERC20 tokens for specific NFTs as possible, respecting the per-swap max cost."
      },
      "robustSwapERC20ForSpecificNFTsAndNFTsToToken((((address,uint256[]),uint256)[],((address,uint256[]),uint256)[],uint256,address,address))": {
        "notice": "Buys NFTs with ERC20, and sells them for tokens in one transaction"
      },
      "robustSwapETHForAnyNFTs(((address,uint256),uint256)[],address,address,uint256)": {
        "notice": "Swaps as much ETH for any NFTs as possible, respecting the per-swap max cost."
      },
      "robustSwapETHForSpecificNFTsAndNFTsToToken((((address,uint256[]),uint256)[],((address,uint256[]),uint256)[],uint256,address,address))": {
        "notice": "Buys NFTs with ETH and sells them for tokens in one transaction"
      },
      "robustSwapNFTsForToken(((address,uint256[]),uint256)[],address,uint256)": {
        "notice": "Swaps as many NFTs for tokens as possible, respecting the per-swap min output"
      },
      "swapERC20ForAnyNFTs((address,uint256)[],uint256,address,uint256)": {
        "notice": "Swaps ERC20 tokens into NFTs using multiple pairs."
      },
      "swapERC20ForSpecificNFTs((address,uint256[])[],uint256,address,uint256)": {
        "notice": "Swaps ERC20 tokens into specific NFTs using multiple pairs."
      },
      "swapETHForAnyNFTs((address,uint256)[],address,address,uint256)": {
        "notice": "Swaps ETH into NFTs using multiple pairs."
      },
      "swapETHForSpecificNFTs((address,uint256[])[],address,address,uint256)": {
        "notice": "Swaps ETH into specific NFTs using multiple pairs."
      },
      "swapNFTsForAnyNFTsThroughERC20(((address,uint256[])[],(address,uint256)[]),uint256,uint256,address,uint256)": {
        "notice": "Swaps one set of NFTs into another set of specific NFTs using multiple pairs, using an ERC20 token as the intermediary."
      },
      "swapNFTsForAnyNFTsThroughETH(((address,uint256[])[],(address,uint256)[]),uint256,address,address,uint256)": {
        "notice": "Swaps one set of NFTs into another set of specific NFTs using multiple pairs, using ETH as the intermediary."
      },
      "swapNFTsForSpecificNFTsThroughERC20(((address,uint256[])[],(address,uint256[])[]),uint256,uint256,address,uint256)": {
        "notice": "Swaps one set of NFTs into another set of specific NFTs using multiple pairs, using an ERC20 token as the intermediary."
      },
      "swapNFTsForSpecificNFTsThroughETH(((address,uint256[])[],(address,uint256[])[]),uint256,address,address,uint256)": {
        "notice": "Swaps one set of NFTs into another set of specific NFTs using multiple pairs, using ETH as the intermediary."
      },
      "swapNFTsForToken((address,uint256[])[],uint256,address,uint256)": {
        "notice": "Swaps NFTs into ETH/ERC20 using multiple pairs."
      }
    },
    "version": 1
  }
}