{
  "contractName": "OffersV1",
  "abi": [
    {
      "inputs": [
        {
          "internalType": "address",
          "name": "_erc20TransferHelper",
          "type": "address"
        },
        {
          "internalType": "address",
          "name": "_erc721TransferHelper",
          "type": "address"
        },
        {
          "internalType": "address",
          "name": "_royaltyEngine",
          "type": "address"
        },
        {
          "internalType": "address",
          "name": "_protocolFeeSettings",
          "type": "address"
        },
        {
          "internalType": "address",
          "name": "_wethAddress",
          "type": "address"
        }
      ],
      "stateMutability": "nonpayable",
      "type": "constructor"
    },
    {
      "anonymous": false,
      "inputs": [
        {
          "indexed": true,
          "internalType": "address",
          "name": "userA",
          "type": "address"
        },
        {
          "indexed": true,
          "internalType": "address",
          "name": "userB",
          "type": "address"
        },
        {
          "components": [
            {
              "internalType": "address",
              "name": "tokenContract",
              "type": "address"
            },
            {
              "internalType": "uint256",
              "name": "tokenId",
              "type": "uint256"
            },
            {
              "internalType": "uint256",
              "name": "amount",
              "type": "uint256"
            }
          ],
          "indexed": false,
          "internalType": "struct UniversalExchangeEventV1.ExchangeDetails",
          "name": "a",
          "type": "tuple"
        },
        {
          "components": [
            {
              "internalType": "address",
              "name": "tokenContract",
              "type": "address"
            },
            {
              "internalType": "uint256",
              "name": "tokenId",
              "type": "uint256"
            },
            {
              "internalType": "uint256",
              "name": "amount",
              "type": "uint256"
            }
          ],
          "indexed": false,
          "internalType": "struct UniversalExchangeEventV1.ExchangeDetails",
          "name": "b",
          "type": "tuple"
        }
      ],
      "name": "ExchangeExecuted",
      "type": "event"
    },
    {
      "anonymous": false,
      "inputs": [
        {
          "indexed": true,
          "internalType": "address",
          "name": "tokenContract",
          "type": "address"
        },
        {
          "indexed": true,
          "internalType": "uint256",
          "name": "tokenId",
          "type": "uint256"
        },
        {
          "indexed": true,
          "internalType": "uint256",
          "name": "id",
          "type": "uint256"
        },
        {
          "components": [
            {
              "internalType": "address",
              "name": "maker",
              "type": "address"
            },
            {
              "internalType": "address",
              "name": "currency",
              "type": "address"
            },
            {
              "internalType": "uint16",
              "name": "findersFeeBps",
              "type": "uint16"
            },
            {
              "internalType": "uint256",
              "name": "amount",
              "type": "uint256"
            }
          ],
          "indexed": false,
          "internalType": "struct OffersV1.Offer",
          "name": "offer",
          "type": "tuple"
        }
      ],
      "name": "OfferCanceled",
      "type": "event"
    },
    {
      "anonymous": false,
      "inputs": [
        {
          "indexed": true,
          "internalType": "address",
          "name": "tokenContract",
          "type": "address"
        },
        {
          "indexed": true,
          "internalType": "uint256",
          "name": "tokenId",
          "type": "uint256"
        },
        {
          "indexed": true,
          "internalType": "uint256",
          "name": "id",
          "type": "uint256"
        },
        {
          "components": [
            {
              "internalType": "address",
              "name": "maker",
              "type": "address"
            },
            {
              "internalType": "address",
              "name": "currency",
              "type": "address"
            },
            {
              "internalType": "uint16",
              "name": "findersFeeBps",
              "type": "uint16"
            },
            {
              "internalType": "uint256",
              "name": "amount",
              "type": "uint256"
            }
          ],
          "indexed": false,
          "internalType": "struct OffersV1.Offer",
          "name": "offer",
          "type": "tuple"
        }
      ],
      "name": "OfferCreated",
      "type": "event"
    },
    {
      "anonymous": false,
      "inputs": [
        {
          "indexed": true,
          "internalType": "address",
          "name": "tokenContract",
          "type": "address"
        },
        {
          "indexed": true,
          "internalType": "uint256",
          "name": "tokenId",
          "type": "uint256"
        },
        {
          "indexed": true,
          "internalType": "uint256",
          "name": "id",
          "type": "uint256"
        },
        {
          "indexed": false,
          "internalType": "address",
          "name": "taker",
          "type": "address"
        },
        {
          "indexed": false,
          "internalType": "address",
          "name": "finder",
          "type": "address"
        },
        {
          "components": [
            {
              "internalType": "address",
              "name": "maker",
              "type": "address"
            },
            {
              "internalType": "address",
              "name": "currency",
              "type": "address"
            },
            {
              "internalType": "uint16",
              "name": "findersFeeBps",
              "type": "uint16"
            },
            {
              "internalType": "uint256",
              "name": "amount",
              "type": "uint256"
            }
          ],
          "indexed": false,
          "internalType": "struct OffersV1.Offer",
          "name": "offer",
          "type": "tuple"
        }
      ],
      "name": "OfferFilled",
      "type": "event"
    },
    {
      "anonymous": false,
      "inputs": [
        {
          "indexed": true,
          "internalType": "address",
          "name": "tokenContract",
          "type": "address"
        },
        {
          "indexed": true,
          "internalType": "uint256",
          "name": "tokenId",
          "type": "uint256"
        },
        {
          "indexed": true,
          "internalType": "uint256",
          "name": "id",
          "type": "uint256"
        },
        {
          "components": [
            {
              "internalType": "address",
              "name": "maker",
              "type": "address"
            },
            {
              "internalType": "address",
              "name": "currency",
              "type": "address"
            },
            {
              "internalType": "uint16",
              "name": "findersFeeBps",
              "type": "uint16"
            },
            {
              "internalType": "uint256",
              "name": "amount",
              "type": "uint256"
            }
          ],
          "indexed": false,
          "internalType": "struct OffersV1.Offer",
          "name": "offer",
          "type": "tuple"
        }
      ],
      "name": "OfferUpdated",
      "type": "event"
    },
    {
      "anonymous": false,
      "inputs": [
        {
          "indexed": true,
          "internalType": "address",
          "name": "tokenContract",
          "type": "address"
        },
        {
          "indexed": true,
          "internalType": "uint256",
          "name": "tokenId",
          "type": "uint256"
        },
        {
          "indexed": false,
          "internalType": "address",
          "name": "recipient",
          "type": "address"
        },
        {
          "indexed": false,
          "internalType": "uint256",
          "name": "amount",
          "type": "uint256"
        }
      ],
      "name": "RoyaltyPayout",
      "type": "event"
    },
    {
      "inputs": [
        {
          "internalType": "address",
          "name": "_tokenContract",
          "type": "address"
        },
        {
          "internalType": "uint256",
          "name": "_tokenId",
          "type": "uint256"
        },
        {
          "internalType": "uint256",
          "name": "_amount",
          "type": "uint256"
        },
        {
          "internalType": "address",
          "name": "_payoutCurrency",
          "type": "address"
        }
      ],
      "name": "_handleRoyaltyEnginePayout",
      "outputs": [
        {
          "internalType": "uint256",
          "name": "",
          "type": "uint256"
        }
      ],
      "stateMutability": "payable",
      "type": "function"
    },
    {
      "inputs": [],
      "name": "erc20TransferHelper",
      "outputs": [
        {
          "internalType": "contract ERC20TransferHelper",
          "name": "",
          "type": "address"
        }
      ],
      "stateMutability": "view",
      "type": "function"
    },
    {
      "inputs": [],
      "name": "erc721TransferHelper",
      "outputs": [
        {
          "internalType": "contract ERC721TransferHelper",
          "name": "",
          "type": "address"
        }
      ],
      "stateMutability": "view",
      "type": "function"
    },
    {
      "inputs": [],
      "name": "name",
      "outputs": [
        {
          "internalType": "string",
          "name": "",
          "type": "string"
        }
      ],
      "stateMutability": "view",
      "type": "function"
    },
    {
      "inputs": [],
      "name": "offerCount",
      "outputs": [
        {
          "internalType": "uint256",
          "name": "",
          "type": "uint256"
        }
      ],
      "stateMutability": "view",
      "type": "function"
    },
    {
      "inputs": [
        {
          "internalType": "address",
          "name": "",
          "type": "address"
        },
        {
          "internalType": "uint256",
          "name": "",
          "type": "uint256"
        },
        {
          "internalType": "uint256",
          "name": "",
          "type": "uint256"
        }
      ],
      "name": "offers",
      "outputs": [
        {
          "internalType": "address",
          "name": "maker",
          "type": "address"
        },
        {
          "internalType": "address",
          "name": "currency",
          "type": "address"
        },
        {
          "internalType": "uint16",
          "name": "findersFeeBps",
          "type": "uint16"
        },
        {
          "internalType": "uint256",
          "name": "amount",
          "type": "uint256"
        }
      ],
      "stateMutability": "view",
      "type": "function"
    },
    {
      "inputs": [
        {
          "internalType": "address",
          "name": "",
          "type": "address"
        },
        {
          "internalType": "uint256",
          "name": "",
          "type": "uint256"
        },
        {
          "internalType": "uint256",
          "name": "",
          "type": "uint256"
        }
      ],
      "name": "offersForNFT",
      "outputs": [
        {
          "internalType": "uint256",
          "name": "",
          "type": "uint256"
        }
      ],
      "stateMutability": "view",
      "type": "function"
    },
    {
      "inputs": [],
      "name": "registrar",
      "outputs": [
        {
          "internalType": "address",
          "name": "",
          "type": "address"
        }
      ],
      "stateMutability": "view",
      "type": "function"
    },
    {
      "inputs": [
        {
          "internalType": "address",
          "name": "_royaltyEngine",
          "type": "address"
        }
      ],
      "name": "setRoyaltyEngineAddress",
      "outputs": [],
      "stateMutability": "nonpayable",
      "type": "function"
    },
    {
      "inputs": [
        {
          "internalType": "address",
          "name": "_tokenContract",
          "type": "address"
        },
        {
          "internalType": "uint256",
          "name": "_tokenId",
          "type": "uint256"
        },
        {
          "internalType": "address",
          "name": "_currency",
          "type": "address"
        },
        {
          "internalType": "uint256",
          "name": "_amount",
          "type": "uint256"
        },
        {
          "internalType": "uint16",
          "name": "_findersFeeBps",
          "type": "uint16"
        }
      ],
      "name": "createOffer",
      "outputs": [
        {
          "internalType": "uint256",
          "name": "",
          "type": "uint256"
        }
      ],
      "stateMutability": "payable",
      "type": "function"
    },
    {
      "inputs": [
        {
          "internalType": "address",
          "name": "_tokenContract",
          "type": "address"
        },
        {
          "internalType": "uint256",
          "name": "_tokenId",
          "type": "uint256"
        },
        {
          "internalType": "uint256",
          "name": "_offerId",
          "type": "uint256"
        },
        {
          "internalType": "address",
          "name": "_currency",
          "type": "address"
        },
        {
          "internalType": "uint256",
          "name": "_amount",
          "type": "uint256"
        }
      ],
      "name": "setOfferAmount",
      "outputs": [],
      "stateMutability": "payable",
      "type": "function"
    },
    {
      "inputs": [
        {
          "internalType": "address",
          "name": "_tokenContract",
          "type": "address"
        },
        {
          "internalType": "uint256",
          "name": "_tokenId",
          "type": "uint256"
        },
        {
          "internalType": "uint256",
          "name": "_offerId",
          "type": "uint256"
        }
      ],
      "name": "cancelOffer",
      "outputs": [],
      "stateMutability": "nonpayable",
      "type": "function"
    },
    {
      "inputs": [
        {
          "internalType": "address",
          "name": "_tokenContract",
          "type": "address"
        },
        {
          "internalType": "uint256",
          "name": "_tokenId",
          "type": "uint256"
        },
        {
          "internalType": "uint256",
          "name": "_offerId",
          "type": "uint256"
        },
        {
          "internalType": "address",
          "name": "_currency",
          "type": "address"
        },
        {
          "internalType": "uint256",
          "name": "_amount",
          "type": "uint256"
        },
        {
          "internalType": "address",
          "name": "_finder",
          "type": "address"
        }
      ],
      "name": "fillOffer",
      "outputs": [],
      "stateMutability": "nonpayable",
      "type": "function"
    }
  ],
  "bytecode": "0x61012060405260016000553480156200001757600080fd5b50604051620025b3380380620025b38339810160408190526200003a9162000251565b6040518060400160405280600c81526020016b04f66666572733a2076312e360a41b815250838383876001600160a01b031663e3e606f06040518163ffffffff1660e01b8152600401602060405180830381865afa158015620000a1573d6000803e3d6000fd5b505050506040513d601f19601f82011682018060405250810190620000c79190620002d1565b6001600160a01b0316632b20e3976040518163ffffffff1660e01b8152600401602060405180830381865afa15801562000105573d6000803e3d6000fd5b505050506040513d601f19601f820116820180604052508101906200012b9190620002d1565b6001600160a01b038a811660805291821660a052600180546001600160a01b0319169483169490941790935590811660e0521660c05280516200017690600290602084019062000192565b5050506001600160a01b03909216610100525062000335915050565b828054620001a090620002f8565b90600052602060002090601f016020900481019282620001c457600085556200020f565b82601f10620001df57805160ff19168380011785556200020f565b828001600101855582156200020f579182015b828111156200020f578251825591602001919060010190620001f2565b506200021d92915062000221565b5090565b5b808211156200021d576000815560010162000222565b6001600160a01b03811681146200024e57600080fd5b50565b600080600080600060a086880312156200026a57600080fd5b8551620002778162000238565b60208701519095506200028a8162000238565b60408701519094506200029d8162000238565b6060870151909350620002b08162000238565b6080870151909250620002c38162000238565b809150509295509295909350565b600060208284031215620002e457600080fd5b8151620002f18162000238565b9392505050565b600181811c908216806200030d57607f821691505b602082108114156200032f57634e487b7160e01b600052602260045260246000fd5b50919050565b60805160a05160c05160e051610100516122166200039d600039600081816102fd0152610e43015260008181611682015261171501526000818161014a0152610fdd01526000818161123e01526112bc0152600081816101bc015261143201526122166000f3fe6080604052600436106100c25760003560e01c80638f9d32511161007f578063b249bb3011610059578063b249bb3014610211578063e3b4367714610231578063ebe46344146102cb578063f7cd1d9b146102eb57600080fd5b80638f9d3251146101aa5780639128c22c146101de57806396bd5a88146101f157600080fd5b806306fdde03146100c75780630e030d6a146100f25780631115c24d146101145780632b20e3971461013857806354242338146101845780637157fe1d14610197575b600080fd5b3480156100d357600080fd5b506100dc61031f565b6040516100e99190611b55565b60405180910390f35b3480156100fe57600080fd5b5061011261010d366004611ba0565b6103ad565b005b34801561012057600080fd5b5061012a60035481565b6040519081526020016100e9565b34801561014457600080fd5b5061016c7f000000000000000000000000000000000000000000000000000000000000000081565b6040516001600160a01b0390911681526020016100e9565b610112610192366004611bd5565b61054a565b61012a6101a5366004611c37565b610779565b3480156101b657600080fd5b5061016c7f000000000000000000000000000000000000000000000000000000000000000081565b61012a6101ec366004611c96565b61095c565b3480156101fd57600080fd5b5061011261020c366004611ce0565b610b58565b34801561021d57600080fd5b5061011261022c366004611d47565b610fd2565b34801561023d57600080fd5b5061029761024c366004611ba0565b60046020908152600093845260408085208252928452828420905282529020805460018201546002909201546001600160a01b039182169291821691600160a01b900461ffff169084565b604080516001600160a01b03958616815294909316602085015261ffff9091169183019190915260608201526080016100e9565b3480156102d757600080fd5b5061012a6102e6366004611ba0565b6110fe565b3480156102f757600080fd5b5061016c7f000000000000000000000000000000000000000000000000000000000000000081565b6002805461032c90611d64565b80601f016020809104026020016040519081016040528092919081815260200182805461035890611d64565b80156103a55780601f1061037a576101008083540402835291602001916103a5565b820191906000526020600020905b81548152906001019060200180831161038857829003601f168201915b505050505081565b6000546001146103d85760405162461bcd60e51b81526004016103cf90611d9f565b60405180910390fd5b600260008181556001600160a01b0385811682526004602090815260408084208785528252808420868552825292839020835160808101855281548416808252600183015494851693820193909352600160a01b90930461ffff16938301939093529190920154606083015233146104925760405162461bcd60e51b815260206004820152601960248201527f63616e63656c4f66666572206d757374206265206d616b65720000000000000060448201526064016103cf565b6104ab816000015182606001518360200151600061113c565b8183856001600160a01b03167fcb93d56cb08ecaf9e15d6148b9ed9c4eddcc476cc2ecf8068c32ec1c408443d8846040516104e69190611dc3565b60405180910390a4506001600160a01b03909216600090815260046020908152604080832093835292815282822093825292909252812080546001600160a01b0319168155600180820180546001600160b01b031916905560029091018290559055565b60005460011461056c5760405162461bcd60e51b81526004016103cf90611d9f565b600260009081556001600160a01b0380871682526004602090815260408084208885528252808420878552909152909120805490911633146105f05760405162461bcd60e51b815260206004820152601c60248201527f7365744f66666572416d6f756e74206d757374206265206d616b65720000000060448201526064016103cf565b60018101546001600160a01b03848116911614156106d5576002810154821580159061061c5750808314155b6106685760405162461bcd60e51b815260206004820152601e60248201527f7365744f66666572416d6f756e7420696e76616c6964205f616d6f756e74000060448201526064016103cf565b8083111561069d5760018201548184039061068d9082906001600160a01b0316611308565b60028301805490910190556106cf565b81546001830154848303916106c2916001600160a01b0391821691849116600061113c565b6002830180549190910390555b50610729565b8054600282015460018301546106fa926001600160a01b03908116929116600061113c565b6107048284611308565b6001810180546001600160a01b0319166001600160a01b038516179055600281018290555b8385876001600160a01b03167f78b8e43aa2037c628f2647707ac279be38396d24a1c5084977dd3ee0fc6c0e00846040516107649190611e00565b60405180910390a45050600160005550505050565b6000805460011461079c5760405162461bcd60e51b81526004016103cf90611d9f565b600260005561271061ffff8316111561081d5760405162461bcd60e51b815260206004820152603f60248201527f6372656174654f666665722066696e646572732066656520627073206d75737460448201527f206265206c657373207468616e206f7220657175616c20746f2031303030300060648201526084016103cf565b6108278385611308565b60036000815461083690611e53565b90915550604080516080810182523381526001600160a01b03868116602080840191825261ffff808816858701908152606086018a81528d86166000818152600486528981208f825286528981206003805483528188528b83209a518b54908b166001600160a01b0319909116178b5597516001808c0180549751909816600160a01b026001600160b01b031990971691909a1617949094179094559051600290970196909655858252600583528682208c83528352868220845481549687018255908352838320909501949094559154808352929052839020925190928892917f934b27a1f1b0d83e3e6ed7ecfbec90d5ab9e42ebe9c32a3d03f448305aef6eab9161094291611e00565b60405180910390a450600354600160005595945050505050565b60003330146109c35760405162461bcd60e51b815260206004820152602d60248201527f5f68616e646c65526f79616c7479456e67696e655061796f7574206f6e6c792060448201526c73656c662063616c6c61626c6560981b60648201526084016103cf565b600154604051637a99dc0160e11b81526001600160a01b0387811660048301526024820187905260448201869052600092839291169063f533b802906064016000604051808303816000875af1158015610a21573d6000803e3d6000fd5b505050506040513d6000823e601f3d908101601f19168201604052610a499190810190611f44565b8151919350915080610a6057859350505050610b50565b85600080805b84811015610b4657868181518110610a8057610a80612009565b60200260200101519250858181518110610a9c57610a9c612009565b6020026020010151915081841015610ae25760405162461bcd60e51b81526020600482015260096024820152681a5b9cdbdb1d995b9d60ba1b60448201526064016103cf565b610af083838b61c35061113c565b604080516001600160a01b038581168252602082018590528d92908f16917f866e6ef8682ddf5f1025e64dfdb45527077f7be70fa9ef680b7ffd8cf4ab9c50910160405180910390a39281900392600101610a66565b5091955050505050505b949350505050565b600054600114610b7a5760405162461bcd60e51b81526004016103cf90611d9f565b600260008181556001600160a01b0388811682526004602090815260408084208a85528252808420898552825292839020835160808101855281548416808252600183015494851693820193909352600160a01b90930461ffff169383019390935291909201546060830152610c325760405162461bcd60e51b815260206004820152601e60248201527f66696c6c4f66666572206d75737420626520616374697665206f66666572000060448201526064016103cf565b6040516331a9108f60e11b81526004810187905233906001600160a01b03891690636352211e90602401602060405180830381865afa158015610c79573d6000803e3d6000fd5b505050506040513d601f19601f82011682018060405250810190610c9d919061201f565b6001600160a01b031614610cf35760405162461bcd60e51b815260206004820152601d60248201527f66696c6c4f66666572206d75737420626520746f6b656e206f776e657200000060448201526064016103cf565b836001600160a01b031681602001516001600160a01b0316148015610d1b5750828160600151145b610d7e5760405162461bcd60e51b815260206004820152602e60248201527f66696c6c4f66666572205f63757272656e63792026205f616d6f756e74206d7560448201526d39ba1036b0ba31b41037b33332b960911b60648201526084016103cf565b6000610d968888846060015185602001516000611597565b509050610da7818360200151611659565b90506001600160a01b03831615610dfc576000612710836040015161ffff1683610dd1919061203c565b610ddb919061205b565b9050610dee84828560200151600061113c565b610df8818361207d565b9150505b610e0d33828460200151600061113c565b8151604051630aed65f560e11b81526001600160a01b038a811660048301523360248301529182166044820152606481018990527f0000000000000000000000000000000000000000000000000000000000000000909116906315dacbea90608401600060405180830381600087803b158015610e8957600080fd5b505af1158015610e9d573d6000803e3d6000fd5b505060408051606080820183526020808801516001600160a01b0390811684526000828501528883015184860152845192830185528e811683529082018d905260018285015287519351929550909350339216907f1f432c9454edd444f55492be01e3fa82aa88bfa28e120a039be204253c10c36e90610f209086908690612094565b60405180910390a387898b6001600160a01b03167f8d496f5c680daaaf5bdacfec3235619ed8eb52d6c31419098dfb83010f37ca22338989604051610f67939291906120e2565b60405180910390a45050506001600160a01b0390961660009081526004602090815260408083209783529681528682209582529490945250505090812080546001600160a01b0319168155600180820180546001600160b01b03191690556002909101829055905550565b336001600160a01b037f000000000000000000000000000000000000000000000000000000000000000016146110595760405162461bcd60e51b815260206004820152602660248201527f736574526f79616c7479456e67696e6541646472657373206f6e6c792072656760448201526534b9ba3930b960d11b60648201526084016103cf565b61106a81636591fc0b60e11b6117ad565b6110dc5760405162461bcd60e51b815260206004820152603d60248201527f736574526f79616c7479456e67696e6541646472657373206d757374206d617460448201527f63682049526f79616c7479456e67696e65563120696e7465726661636500000060648201526084016103cf565b600180546001600160a01b0319166001600160a01b0392909216919091179055565b6005602052826000526040600020602052816000526040600020818154811061112657600080fd5b9060005260206000200160009250925050505481565b82158061115057506001600160a01b038416155b1561115a57611302565b6001600160a01b0382166112ee57824710156111c25760405162461bcd60e51b815260206004820152602160248201527f5f68616e646c654f7574676f696e675472616e7366657220696e736f6c76656e6044820152601d60fa1b60648201526084016103cf565b60008115806111d057505a82115b6111da57816111dc565b5a5b90506000856001600160a01b0316858390604051600060405180830381858888f193505050503d806000811461122e576040519150601f19603f3d011682016040523d82523d6000602084013e611233565b606091505b50509050806112e7577f00000000000000000000000000000000000000000000000000000000000000006001600160a01b031663d0e30db0866040518263ffffffff1660e01b81526004016000604051808303818588803b15801561129757600080fd5b505af11580156112ab573d6000803e3d6000fd5b506112e79350506001600160a01b037f0000000000000000000000000000000000000000000000000000000000000000169150889050876117d0565b5050611302565b6113026001600160a01b03831685856117d0565b50505050565b6001600160a01b038116611390578134101561138c5760405162461bcd60e51b815260206004820152603b60248201527f5f68616e646c65496e636f6d696e675472616e73666572206d73672076616c7560448201527f65206c657373207468616e20657870656374656420616d6f756e74000000000060648201526084016103cf565b5050565b6040516370a0823160e01b815230600482015281906000906001600160a01b038316906370a0823190602401602060405180830381865afa1580156113d9573d6000803e3d6000fd5b505050506040513d601f19601f820116820180604052508101906113fd9190612137565b60405163d9fc4b6160e01b81526001600160a01b038581166004830152336024830152306044830152606482018790529192507f00000000000000000000000000000000000000000000000000000000000000009091169063d9fc4b6190608401600060405180830381600087803b15801561147857600080fd5b505af115801561148c573d6000803e3d6000fd5b50506040516370a0823160e01b8152306004820152600092506001600160a01b03851691506370a0823190602401602060405180830381865afa1580156114d7573d6000803e3d6000fd5b505050506040513d601f19601f820116820180604052508101906114fb9190612137565b9050806115088684612150565b146115905760405162461bcd60e51b815260206004820152604c60248201527f5f68616e646c65496e636f6d696e675472616e7366657220746f6b656e20747260448201527f616e736665722063616c6c20646964206e6f74207472616e736665722065787060648201526b1958dd195908185b5bdd5b9d60a21b608482015260a4016103cf565b5050505050565b600080808315806115a757505a84115b6115b157836115b3565b5a5b60405163244a308b60e21b81526001600160a01b03808b166004830152602482018a905260448201899052871660648201529091503090639128c22c90839060840160206040518083038160008887f193505050508015611631575060408051601f3d908101601f1916820190925261162e91810190612137565b60015b61164257856000925092505061164f565b92506001915061164f9050565b9550959350505050565b6040516330da42fb60e11b81523060048201526024810183905260009081906001600160a01b037f000000000000000000000000000000000000000000000000000000000000000016906361b485f690604401602060405180830381865afa1580156116c9573d6000803e3d6000fd5b505050506040513d601f19601f820116820180604052508101906116ed9190612137565b9050806116fd57839150506117a7565b6040516386ab6fb960e01b81523060048201526000907f00000000000000000000000000000000000000000000000000000000000000006001600160a01b0316906386ab6fb9906024016040805180830381865afa158015611763573d6000803e3d6000fd5b505050506040513d601f19601f820116820180604052508101906117879190612168565b91505061179881838661c35061113c565b6117a2828661207d565b925050505b92915050565b60006117b883611827565b80156117c957506117c9838361185a565b9392505050565b604080516001600160a01b038416602482015260448082018490528251808303909101815260649091019091526020810180516001600160e01b031663a9059cbb60e01b179052611822908490611943565b505050565b600061183a826301ffc9a760e01b61185a565b80156117a75750611853826001600160e01b031961185a565b1592915050565b604080516001600160e01b0319831660248083019190915282518083039091018152604490910182526020810180516001600160e01b03166301ffc9a760e01b179052905160009190829081906001600160a01b03871690617530906118c19086906121a2565b6000604051808303818686fa925050503d80600081146118fd576040519150601f19603f3d011682016040523d82523d6000602084013e611902565b606091505b509150915060208151101561191d57600093505050506117a7565b81801561193957508080602001905181019061193991906121be565b9695505050505050565b6000611998826040518060400160405280602081526020017f5361666545524332303a206c6f772d6c6576656c2063616c6c206661696c6564815250856001600160a01b0316611a159092919063ffffffff16565b80519091501561182257808060200190518101906119b691906121be565b6118225760405162461bcd60e51b815260206004820152602a60248201527f5361666545524332303a204552433230206f7065726174696f6e20646964206e6044820152691bdd081cdd58d8d9595960b21b60648201526084016103cf565b6060610b508484600085856001600160a01b0385163b611a775760405162461bcd60e51b815260206004820152601d60248201527f416464726573733a2063616c6c20746f206e6f6e2d636f6e747261637400000060448201526064016103cf565b600080866001600160a01b03168587604051611a9391906121a2565b60006040518083038185875af1925050503d8060008114611ad0576040519150601f19603f3d011682016040523d82523d6000602084013e611ad5565b606091505b5091509150611ae5828286611af0565b979650505050505050565b60608315611aff5750816117c9565b825115611b0f5782518084602001fd5b8160405162461bcd60e51b81526004016103cf9190611b55565b60005b83811015611b44578181015183820152602001611b2c565b838111156113025750506000910152565b6020815260008251806020840152611b74816040850160208701611b29565b601f01601f19169190910160400192915050565b6001600160a01b0381168114611b9d57600080fd5b50565b600080600060608486031215611bb557600080fd5b8335611bc081611b88565b95602085013595506040909401359392505050565b600080600080600060a08688031215611bed57600080fd5b8535611bf881611b88565b945060208601359350604086013592506060860135611c1681611b88565b949793965091946080013592915050565b61ffff81168114611b9d57600080fd5b600080600080600060a08688031215611c4f57600080fd5b8535611c5a81611b88565b9450602086013593506040860135611c7181611b88565b9250606086013591506080860135611c8881611c27565b809150509295509295909350565b60008060008060808587031215611cac57600080fd5b8435611cb781611b88565b935060208501359250604085013591506060850135611cd581611b88565b939692955090935050565b60008060008060008060c08789031215611cf957600080fd5b8635611d0481611b88565b955060208701359450604087013593506060870135611d2281611b88565b92506080870135915060a0870135611d3981611b88565b809150509295509295509295565b600060208284031215611d5957600080fd5b81356117c981611b88565b600181811c90821680611d7857607f821691505b60208210811415611d9957634e487b7160e01b600052602260045260246000fd5b50919050565b6020808252600a90820152695245454e5452414e435960b01b604082015260600190565b81516001600160a01b0390811682526020808401519091169082015260408083015161ffff169082015260608083015190820152608081016117a7565b608081016117a7828480546001600160a01b0390811683526001820154908116602084015260a01c61ffff16604083015260020154606090910152565b634e487b7160e01b600052601160045260246000fd5b6000600019821415611e6757611e67611e3d565b5060010190565b634e487b7160e01b600052604160045260246000fd5b604051601f8201601f1916810167ffffffffffffffff81118282101715611ead57611ead611e6e565b604052919050565b600067ffffffffffffffff821115611ecf57611ecf611e6e565b5060051b60200190565b600082601f830112611eea57600080fd5b81516020611eff611efa83611eb5565b611e84565b82815260059290921b84018101918181019086841115611f1e57600080fd5b8286015b84811015611f395780518352918301918301611f22565b509695505050505050565b60008060408385031215611f5757600080fd5b825167ffffffffffffffff80821115611f6f57600080fd5b818501915085601f830112611f8357600080fd5b81516020611f93611efa83611eb5565b82815260059290921b84018101918181019089841115611fb257600080fd5b948201945b83861015611fd9578551611fca81611b88565b82529482019490820190611fb7565b91880151919650909350505080821115611ff257600080fd5b50611fff85828601611ed9565b9150509250929050565b634e487b7160e01b600052603260045260246000fd5b60006020828403121561203157600080fd5b81516117c981611b88565b600081600019048311821515161561205657612056611e3d565b500290565b60008261207857634e487b7160e01b600052601260045260246000fd5b500490565b60008282101561208f5761208f611e3d565b500390565b82516001600160a01b03168152602080840151908201526040808401519082015260c0810182516001600160a01b0316606083015260208301516080830152604083015160a08301526117c9565b6001600160a01b0384811682528316602082015260c08101610b50604083018480516001600160a01b0390811683526020808301519091169083015260408082015161ffff1690830152606090810151910152565b60006020828403121561214957600080fd5b5051919050565b6000821982111561216357612163611e3d565b500190565b6000806040838503121561217b57600080fd5b825161218681611c27565b602084015190925061219781611b88565b809150509250929050565b600082516121b4818460208701611b29565b9190910192915050565b6000602082840312156121d057600080fd5b815180151581146117c957600080fdfea2646970667358221220c35b2e3fbee3aa55bb7f6b52579df3a9547d828e796fcea2066a636aff05689064736f6c634300080a0033",
  "immutableReferences": {
    "8147": [
      {
        "length": 32,
        "start": 330
      },
      {
        "length": 32,
        "start": 4061
      }
    ],
    "8151": [
      {
        "length": 32,
        "start": 5762
      },
      {
        "length": 32,
        "start": 5909
      }
    ],
    "8470": [
      {
        "length": 32,
        "start": 444
      },
      {
        "length": 32,
        "start": 5170
      }
    ],
    "8607": [
      {
        "length": 32,
        "start": 4670
      },
      {
        "length": 32,
        "start": 4796
      }
    ],
    "10353": [
      {
        "length": 32,
        "start": 765
      },
      {
        "length": 32,
        "start": 3651
      }
    ]
  },
  "source": "// SPDX-License-Identifier: GPL-3.0\npragma solidity 0.8.10;\n\n/// ------------ IMPORTS ------------\n\nimport {ReentrancyGuard} from \"@rari-capital/solmate/src/utils/ReentrancyGuard.sol\";\nimport {IERC721} from \"@openzeppelin/contracts/token/ERC721/IERC721.sol\";\nimport {IERC20} from \"@openzeppelin/contracts/token/ERC20/IERC20.sol\";\nimport {ERC721TransferHelper} from \"../../../transferHelpers/ERC721TransferHelper.sol\";\nimport {UniversalExchangeEventV1} from \"../../../common/UniversalExchangeEvent/V1/UniversalExchangeEventV1.sol\";\nimport {IncomingTransferSupportV1} from \"../../../common/IncomingTransferSupport/V1/IncomingTransferSupportV1.sol\";\nimport {FeePayoutSupportV1} from \"../../../common/FeePayoutSupport/FeePayoutSupportV1.sol\";\nimport {ModuleNamingSupportV1} from \"../../../common/ModuleNamingSupport/ModuleNamingSupportV1.sol\";\n\n/// @title Offers V1\n/// @author kulkarohan <rohan@zora.co>\n/// @notice This module allows users to make ETH/ERC-20 offers for any ERC-721 token\ncontract OffersV1 is ReentrancyGuard, UniversalExchangeEventV1, IncomingTransferSupportV1, FeePayoutSupportV1, ModuleNamingSupportV1 {\n    /// @dev The indicator to pass all remaining gas when paying out royalties\n    uint256 private constant USE_ALL_GAS_FLAG = 0;\n\n    /// @notice The total number of offers made\n    uint256 public offerCount;\n\n    /// @notice The ZORA ERC-721 Transfer Helper\n    ERC721TransferHelper public immutable erc721TransferHelper;\n\n    /// @notice The metadata of an offer\n    /// @param maker The address of the user who made the offer\n    /// @param currency The address of the ERC-20 offered, or address(0) for ETH\n    /// @param findersFeeBps The fee to the referrer of the offer\n    /// @param amount The amount of ETH/ERC-20 tokens offered\n    struct Offer {\n        address maker;\n        address currency;\n        uint16 findersFeeBps;\n        uint256 amount;\n    }\n\n    /// ------------ STORAGE ------------\n\n    /// @notice The metadata for a given offer\n    /// @dev ERC-721 token address => ERC-721 token ID => Offer ID => Offer\n    mapping(address => mapping(uint256 => mapping(uint256 => Offer))) public offers;\n\n    /// @notice The offers for a given NFT\n    /// @dev ERC-721 token address => ERC-721 token ID => Offer IDs\n    mapping(address => mapping(uint256 => uint256[])) public offersForNFT;\n\n    /// ------------ EVENTS ------------\n\n    /// @notice Emitted when an offer is created\n    /// @param tokenContract The ERC-721 token address of the created offer\n    /// @param tokenId The ERC-721 token ID of the created offer\n    /// @param id The ID of the created offer\n    /// @param offer The metadata of the created offer\n    event OfferCreated(address indexed tokenContract, uint256 indexed tokenId, uint256 indexed id, Offer offer);\n\n    /// @notice Emitted when an offer is updated\n    /// @param tokenContract The ERC-721 token address of the updated offer\n    /// @param tokenId The ERC-721 token ID of the updated offer\n    /// @param id The ID of the updated offer\n    /// @param offer The metadata of the updated offer\n    event OfferUpdated(address indexed tokenContract, uint256 indexed tokenId, uint256 indexed id, Offer offer);\n\n    /// @notice Emitted when an offer is canceled\n    /// @param tokenContract The ERC-721 token address of the canceled offer\n    /// @param tokenId The ERC-721 token ID of the canceled offer\n    /// @param id The ID of the canceled offer\n    /// @param offer The metadata of the canceled offer\n    event OfferCanceled(address indexed tokenContract, uint256 indexed tokenId, uint256 indexed id, Offer offer);\n\n    /// @notice Emitted when an offer is filled\n    /// @param tokenContract The ERC-721 token address of the filled offer\n    /// @param tokenId The ERC-721 token ID of the filled offer\n    /// @param id The ID of the filled offer\n    /// @param taker The address of the taker who filled the offer\n    /// @param finder The address of the finder who referred the offer\n    /// @param offer The metadata of the filled offer\n    event OfferFilled(address indexed tokenContract, uint256 indexed tokenId, uint256 indexed id, address taker, address finder, Offer offer);\n\n    /// ------------ CONSTRUCTOR ------------\n\n    /// @param _erc20TransferHelper The ZORA ERC-20 Transfer Helper address\n    /// @param _erc721TransferHelper The ZORA ERC-721 Transfer Helper address\n    /// @param _royaltyEngine The Manifold Royalty Engine address\n    /// @param _protocolFeeSettings The ZoraProtocolFeeSettingsV1 address\n    /// @param _wethAddress The WETH token address\n    constructor(\n        address _erc20TransferHelper,\n        address _erc721TransferHelper,\n        address _royaltyEngine,\n        address _protocolFeeSettings,\n        address _wethAddress\n    )\n        IncomingTransferSupportV1(_erc20TransferHelper)\n        FeePayoutSupportV1(_royaltyEngine, _protocolFeeSettings, _wethAddress, ERC721TransferHelper(_erc721TransferHelper).ZMM().registrar())\n        ModuleNamingSupportV1(\"Offers: v1.0\")\n    {\n        erc721TransferHelper = ERC721TransferHelper(_erc721TransferHelper);\n    }\n\n    /// ------------ MAKER FUNCTIONS ------------\n\n    //     ,-.\n    //     `-'\n    //     /|\\\n    //      |             ,--------.               ,-------------------.\n    //     / \\            |OffersV1|               |ERC20TransferHelper|\n    //   Caller           `---+----'               `---------+---------'\n    //     |   createOffer()  |                              |\n    //     | ----------------->                              |\n    //     |                  |                              |\n    //     |                  |        transferFrom()        |\n    //     |                  | ----------------------------->\n    //     |                  |                              |\n    //     |                  |                              |----.\n    //     |                  |                              |    | transfer tokens into escrow\n    //     |                  |                              |<---'\n    //     |                  |                              |\n    //     |                  |----.                         |\n    //     |                  |    | ++offerCount            |\n    //     |                  |<---'                         |\n    //     |                  |                              |\n    //     |                  |----.                         |\n    //     |                  |    | create offer            |\n    //     |                  |<---'                         |\n    //     |                  |                              |\n    //     |                  |----.\n    //     |                  |    | offersFor[NFT].append(id)\n    //     |                  |<---'\n    //     |                  |                              |\n    //     |                  |----.                         |\n    //     |                  |    | emit OfferCreated()     |\n    //     |                  |<---'                         |\n    //     |                  |                              |\n    //     |        id        |                              |\n    //     | <-----------------                              |\n    //   Caller           ,---+----.               ,---------+---------.\n    //     ,-.            |OffersV1|               |ERC20TransferHelper|\n    //     `-'            `--------'               `-------------------'\n    //     /|\\\n    //      |\n    //     / \\\n    /// @notice Creates an offer for an NFT\n    /// @param _tokenContract The address of the desired ERC-721 token\n    /// @param _tokenId The ID of the desired ERC-721 token\n    /// @param _currency The address of the ERC-20 token offering, or address(0) for ETH\n    /// @param _amount The amount offering\n    /// @param _findersFeeBps The bps of the amount (post-royalties) to send to a referrer of the sale\n    /// @return The ID of the created offer\n    function createOffer(\n        address _tokenContract,\n        uint256 _tokenId,\n        address _currency,\n        uint256 _amount,\n        uint16 _findersFeeBps\n    ) external payable nonReentrant returns (uint256) {\n        require(_findersFeeBps <= 10000, \"createOffer finders fee bps must be less than or equal to 10000\");\n\n        // Validate offer and take custody\n        _handleIncomingTransfer(_amount, _currency);\n\n        // \"the sun will devour the earth before it could ever overflow\" - @transmissions11\n        // offerCount++ --> unchecked { offerCount++ }\n\n        // \"Although the increment part is cheaper with unchecked, the opcodes after become more expensive for some reason\" - @joshieDo\n        // unchecked { offerCount++ } --> offerCount++\n\n        // \"Earlier today while reviewing c4rena findings I learned that doing ++offerCount would save 5 gas per increment here\" - @devtooligan\n        // offerCount++ --> ++offerCount\n\n        // TLDR;           unchecked       checked\n        // non-optimized   130,037 gas  <  130,149 gas\n        // optimized       127,932 gas  >  *127,298 gas*\n\n        ++offerCount;\n\n        offers[_tokenContract][_tokenId][offerCount] = Offer({\n            maker: msg.sender,\n            currency: _currency,\n            findersFeeBps: _findersFeeBps,\n            amount: _amount\n        });\n\n        offersForNFT[_tokenContract][_tokenId].push(offerCount);\n\n        emit OfferCreated(_tokenContract, _tokenId, offerCount, offers[_tokenContract][_tokenId][offerCount]);\n\n        return offerCount;\n    }\n\n    //     ,-.\n    //     `-'\n    //     /|\\\n    //      |             ,--------.                     ,-------------------.\n    //     / \\            |OffersV1|                     |ERC20TransferHelper|\n    //   Caller           `---+----'                     `---------+---------'\n    //     | setOfferAmount() |                                    |\n    //     | ----------------->                                    |\n    //     |                  |                                    |\n    //     |                  |                                    |\n    //     |    _______________________________________________________________________\n    //     |    ! ALT  /  same token?                              |                   !\n    //     |    !_____/       |                                    |                   !\n    //     |    !             | retrieve increase / refund decrease|                   !\n    //     |    !             | ----------------------------------->                   !\n    //     |    !~~~~~~~~~~~~~~~~~~~~~~~~~~~~~~~~~~~~~~~~~~~~~~~~~~~~~~~~~~~~~~~~~~~~~~!\n    //     |    ! [different token]                                |                   !\n    //     |    !             |        refund previous offer       |                   !\n    //     |    !             | ----------------------------------->                   !\n    //     |    !             |                                    |                   !\n    //     |    !             |         retrieve new offer         |                   !\n    //     |    !             | ----------------------------------->                   !\n    //     |    !~~~~~~~~~~~~~~~~~~~~~~~~~~~~~~~~~~~~~~~~~~~~~~~~~~~~~~~~~~~~~~~~~~~~~~!\n    //     |                  |                                    |\n    //     |                  |----.                               |\n    //     |                  |    | emit OfferUpdated()           |\n    //     |                  |<---'                               |\n    //   Caller           ,---+----.                     ,---------+---------.\n    //     ,-.            |OffersV1|                     |ERC20TransferHelper|\n    //     `-'            `--------'                     `-------------------'\n    //     /|\\\n    //      |\n    //     / \\\n    /// @notice Updates the given offer for an NFT\n    /// @param _tokenContract The address of the offer ERC-721 token\n    /// @param _tokenId The ID of the offer ERC-721 token\n    /// @param _offerId The ID of the offer\n    /// @param _currency The address of the ERC-20 token offering, or address(0) for ETH\n    /// @param _amount The new amount offering\n    function setOfferAmount(\n        address _tokenContract,\n        uint256 _tokenId,\n        uint256 _offerId,\n        address _currency,\n        uint256 _amount\n    ) external payable nonReentrant {\n        Offer storage offer = offers[_tokenContract][_tokenId][_offerId];\n\n        require(offer.maker == msg.sender, \"setOfferAmount must be maker\");\n\n        // If same currency --\n        if (_currency == offer.currency) {\n            // Get initial amount\n            uint256 prevAmount = offer.amount;\n            // Ensure valid update\n            require(_amount > 0 && _amount != prevAmount, \"setOfferAmount invalid _amount\");\n\n            // If offer increase --\n            if (_amount > prevAmount) {\n                unchecked {\n                    // Get delta\n                    uint256 increaseAmount = _amount - prevAmount;\n                    // Custody increase\n                    _handleIncomingTransfer(increaseAmount, offer.currency);\n                    // Update storage\n                    offer.amount += increaseAmount;\n                }\n                // Else offer decrease --\n            } else {\n                unchecked {\n                    // Get delta\n                    uint256 decreaseAmount = prevAmount - _amount;\n                    // Refund difference\n                    _handleOutgoingTransfer(offer.maker, decreaseAmount, offer.currency, USE_ALL_GAS_FLAG);\n                    // Update storage\n                    offer.amount -= decreaseAmount;\n                }\n            }\n            // Else other currency --\n        } else {\n            // Refund previous offer\n            _handleOutgoingTransfer(offer.maker, offer.amount, offer.currency, USE_ALL_GAS_FLAG);\n            // Custody new offer\n            _handleIncomingTransfer(_amount, _currency);\n\n            // Update storage\n            offer.currency = _currency;\n            offer.amount = _amount;\n        }\n\n        emit OfferUpdated(_tokenContract, _tokenId, _offerId, offer);\n    }\n\n    //     ,-.\n    //     `-'\n    //     /|\\\n    //      |             ,--------.          ,-------------------.\n    //     / \\            |OffersV1|          |ERC20TransferHelper|\n    //   Caller           `---+----'          `---------+---------'\n    //     |   cancelOffer()  |                         |\n    //     | ----------------->                         |\n    //     |                  |                         |\n    //     |                  |      transferFrom()     |\n    //     |                  | ------------------------>\n    //     |                  |                         |\n    //     |                  |                         |----.\n    //     |                  |                         |    | refund tokens from escrow\n    //     |                  |                         |<---'\n    //     |                  |                         |\n    //     |                  |----.\n    //     |                  |    | emit OfferCanceled()\n    //     |                  |<---'\n    //     |                  |                         |\n    //     |                  |----.                    |\n    //     |                  |    | delete offer       |\n    //     |                  |<---'                    |\n    //   Caller           ,---+----.          ,---------+---------.\n    //     ,-.            |OffersV1|          |ERC20TransferHelper|\n    //     `-'            `--------'          `-------------------'\n    //     /|\\\n    //      |\n    //     / \\\n    /// @notice Cancels and refunds the given offer for an NFT\n    /// @param _tokenContract The ERC-721 token address of the offer\n    /// @param _tokenId The ERC-721 token ID of the offer\n    /// @param _offerId The ID of the offer\n    function cancelOffer(\n        address _tokenContract,\n        uint256 _tokenId,\n        uint256 _offerId\n    ) external nonReentrant {\n        Offer memory offer = offers[_tokenContract][_tokenId][_offerId];\n\n        require(offer.maker == msg.sender, \"cancelOffer must be maker\");\n\n        // Refund offer\n        _handleOutgoingTransfer(offer.maker, offer.amount, offer.currency, USE_ALL_GAS_FLAG);\n\n        emit OfferCanceled(_tokenContract, _tokenId, _offerId, offer);\n\n        delete offers[_tokenContract][_tokenId][_offerId];\n    }\n\n    /// ------------ TAKER FUNCTIONS ------------\n\n    //     ,-.\n    //     `-'\n    //     /|\\\n    //      |             ,--------.                ,--------------------.\n    //     / \\            |OffersV1|                |ERC721TransferHelper|\n    //   Caller           `---+----'                `---------+----------'\n    //     |    fillOffer()   |                               |\n    //     | ----------------->                               |\n    //     |                  |                               |\n    //     |                  |----.                          |\n    //     |                  |    | validate token owner     |\n    //     |                  |<---'                          |\n    //     |                  |                               |\n    //     |                  |----.                          |\n    //     |                  |    | handle royalty payouts   |\n    //     |                  |<---'                          |\n    //     |                  |                               |\n    //     |                  |                               |\n    //     |    __________________________________________________\n    //     |    ! ALT  /  finders fee configured for this offer?  !\n    //     |    !_____/       |                               |   !\n    //     |    !             |----.                          |   !\n    //     |    !             |    | handle finders fee payout|   !\n    //     |    !             |<---'                          |   !\n    //     |    !~~~~~~~~~~~~~~~~~~~~~~~~~~~~~~~~~~~~~~~~~~~~~~~~~!\n    //     |    !~[noop]~~~~~~~~~~~~~~~~~~~~~~~~~~~~~~~~~~~~~~~~~~!\n    //     |                  |                               |\n    //     |                  |         transferFrom()        |\n    //     |                  | ------------------------------>\n    //     |                  |                               |\n    //     |                  |                               |----.\n    //     |                  |                               |    | transfer NFT from taker to maker\n    //     |                  |                               |<---'\n    //     |                  |                               |\n    //     |                  |----.                          |\n    //     |                  |    | emit ExchangeExecuted()  |\n    //     |                  |<---'                          |\n    //     |                  |                               |\n    //     |                  |----.                          |\n    //     |                  |    | emit OfferFilled()       |\n    //     |                  |<---'                          |\n    //     |                  |                               |\n    //     |                  |----.\n    //     |                  |    | delete offer from contract\n    //     |                  |<---'\n    //   Caller           ,---+----.                ,---------+----------.\n    //     ,-.            |OffersV1|                |ERC721TransferHelper|\n    //     `-'            `--------'                `--------------------'\n    //     /|\\\n    //      |\n    //     / \\\n    /// @notice Fills a given offer for an owned NFT, in exchange for ETH/ERC-20 tokens\n    /// @param _tokenContract The address of the ERC-721 token to transfer\n    /// @param _tokenId The ID of the ERC-721 token to transfer\n    /// @param _offerId The ID of the offer to fill\n    /// @param _currency The address of the ERC-20 to take, or address(0) for ETH\n    /// @param _amount The amount to take\n    /// @param _finder The address of the offer referrer\n    function fillOffer(\n        address _tokenContract,\n        uint256 _tokenId,\n        uint256 _offerId,\n        address _currency,\n        uint256 _amount,\n        address _finder\n    ) external nonReentrant {\n        Offer memory offer = offers[_tokenContract][_tokenId][_offerId];\n\n        require(offer.maker != address(0), \"fillOffer must be active offer\");\n        require(IERC721(_tokenContract).ownerOf(_tokenId) == msg.sender, \"fillOffer must be token owner\");\n        require(offer.currency == _currency && offer.amount == _amount, \"fillOffer _currency & _amount must match offer\");\n\n        // Payout respective parties, ensuring royalties are honored\n        (uint256 remainingProfit, ) = _handleRoyaltyPayout(_tokenContract, _tokenId, offer.amount, offer.currency, USE_ALL_GAS_FLAG);\n\n        // Payout optional protocol fee\n        remainingProfit = _handleProtocolFeePayout(remainingProfit, offer.currency);\n\n        // Payout optional finders fee\n        if (_finder != address(0)) {\n            uint256 findersFee = (remainingProfit * offer.findersFeeBps) / 10000;\n            _handleOutgoingTransfer(_finder, findersFee, offer.currency, USE_ALL_GAS_FLAG);\n\n            remainingProfit -= findersFee;\n        }\n\n        // Transfer remaining ETH/ERC-20 tokens to offer taker\n        _handleOutgoingTransfer(msg.sender, remainingProfit, offer.currency, USE_ALL_GAS_FLAG);\n\n        // Transfer NFT to offer maker\n        erc721TransferHelper.transferFrom(_tokenContract, msg.sender, offer.maker, _tokenId);\n\n        ExchangeDetails memory userAExchangeDetails = ExchangeDetails({tokenContract: offer.currency, tokenId: 0, amount: offer.amount});\n        ExchangeDetails memory userBExchangeDetails = ExchangeDetails({tokenContract: _tokenContract, tokenId: _tokenId, amount: 1});\n\n        emit ExchangeExecuted(offer.maker, msg.sender, userAExchangeDetails, userBExchangeDetails);\n        emit OfferFilled(_tokenContract, _tokenId, _offerId, msg.sender, _finder, offer);\n\n        delete offers[_tokenContract][_tokenId][_offerId];\n    }\n}\n",
  "sourcePath": "/Users/ds/Documents/rarible/scripts/contracts/modules/Offers/V1/OffersV1.sol",
  "compiler": {
    "name": "solc",
    "version": "0.8.10+commit.fc410830.Emscripten.clang"
  },
  "schemaVersion": "3.4.3",
  "updatedAt": "2022-04-04T14:37:20.179Z",
  "devdoc": {
    "author": "kulkarohan <rohan@zora.co>",
    "events": {
      "OfferCanceled(address,uint256,uint256,(address,address,uint16,uint256))": {
        "params": {
          "id": "The ID of the canceled offer",
          "offer": "The metadata of the canceled offer",
          "tokenContract": "The ERC-721 token address of the canceled offer",
          "tokenId": "The ERC-721 token ID of the canceled offer"
        }
      },
      "OfferCreated(address,uint256,uint256,(address,address,uint16,uint256))": {
        "params": {
          "id": "The ID of the created offer",
          "offer": "The metadata of the created offer",
          "tokenContract": "The ERC-721 token address of the created offer",
          "tokenId": "The ERC-721 token ID of the created offer"
        }
      },
      "OfferFilled(address,uint256,uint256,address,address,(address,address,uint16,uint256))": {
        "params": {
          "finder": "The address of the finder who referred the offer",
          "id": "The ID of the filled offer",
          "offer": "The metadata of the filled offer",
          "taker": "The address of the taker who filled the offer",
          "tokenContract": "The ERC-721 token address of the filled offer",
          "tokenId": "The ERC-721 token ID of the filled offer"
        }
      },
      "OfferUpdated(address,uint256,uint256,(address,address,uint16,uint256))": {
        "params": {
          "id": "The ID of the updated offer",
          "offer": "The metadata of the updated offer",
          "tokenContract": "The ERC-721 token address of the updated offer",
          "tokenId": "The ERC-721 token ID of the updated offer"
        }
      }
    },
    "kind": "dev",
    "methods": {
      "_handleRoyaltyEnginePayout(address,uint256,uint256,address)": {
        "details": "This method is external to enable setting a gas limit when called - see `_handleRoyaltyPayout`.",
        "params": {
          "_amount": "The total sale amount",
          "_payoutCurrency": "The ERC-20 token address to payout royalties in, or address(0) for ETH",
          "_tokenContract": "The NFT Contract to get royalty information from",
          "_tokenId": ", The Token ID to get royalty information from"
        },
        "returns": {
          "_0": "The remaining funds after paying out royalties"
        }
      },
      "cancelOffer(address,uint256,uint256)": {
        "params": {
          "_offerId": "The ID of the offer",
          "_tokenContract": "The ERC-721 token address of the offer",
          "_tokenId": "The ERC-721 token ID of the offer"
        }
      },
      "constructor": {
        "params": {
          "_erc20TransferHelper": "The ZORA ERC-20 Transfer Helper address",
          "_erc721TransferHelper": "The ZORA ERC-721 Transfer Helper address",
          "_protocolFeeSettings": "The ZoraProtocolFeeSettingsV1 address",
          "_royaltyEngine": "The Manifold Royalty Engine address",
          "_wethAddress": "The WETH token address"
        }
      },
      "createOffer(address,uint256,address,uint256,uint16)": {
        "params": {
          "_amount": "The amount offering",
          "_currency": "The address of the ERC-20 token offering, or address(0) for ETH",
          "_findersFeeBps": "The bps of the amount (post-royalties) to send to a referrer of the sale",
          "_tokenContract": "The address of the desired ERC-721 token",
          "_tokenId": "The ID of the desired ERC-721 token"
        },
        "returns": {
          "_0": "The ID of the created offer"
        }
      },
      "fillOffer(address,uint256,uint256,address,uint256,address)": {
        "params": {
          "_amount": "The amount to take",
          "_currency": "The address of the ERC-20 to take, or address(0) for ETH",
          "_finder": "The address of the offer referrer",
          "_offerId": "The ID of the offer to fill",
          "_tokenContract": "The address of the ERC-721 token to transfer",
          "_tokenId": "The ID of the ERC-721 token to transfer"
        }
      },
      "setOfferAmount(address,uint256,uint256,address,uint256)": {
        "params": {
          "_amount": "The new amount offering",
          "_currency": "The address of the ERC-20 token offering, or address(0) for ETH",
          "_offerId": "The ID of the offer",
          "_tokenContract": "The address of the offer ERC-721 token",
          "_tokenId": "The ID of the offer ERC-721 token"
        }
      },
      "setRoyaltyEngineAddress(address)": {
        "details": "emergency use only  requires a frozen RoyaltyEngineV1 at commit 4ae77a73a8a73a79d628352d206fadae7f8e0f74  to be deployed elsewhere, or a contract matching that ABI",
        "params": {
          "_royaltyEngine": "The address for the new royalty engine"
        }
      }
    },
    "stateVariables": {
      "USE_ALL_GAS_FLAG": {
        "details": "The indicator to pass all remaining gas when paying out royalties"
      },
      "offers": {
        "details": "ERC-721 token address => ERC-721 token ID => Offer ID => Offer"
      },
      "offersForNFT": {
        "details": "ERC-721 token address => ERC-721 token ID => Offer IDs"
      }
    },
    "title": "Offers V1",
    "version": 1
  },
  "userdoc": {
    "events": {
      "ExchangeExecuted(address,address,(address,uint256,uint256),(address,uint256,uint256))": {
        "notice": "Emitted when a token exchange is executed"
      },
      "OfferCanceled(address,uint256,uint256,(address,address,uint16,uint256))": {
        "notice": "Emitted when an offer is canceled"
      },
      "OfferCreated(address,uint256,uint256,(address,address,uint16,uint256))": {
        "notice": "Emitted when an offer is created"
      },
      "OfferFilled(address,uint256,uint256,address,address,(address,address,uint16,uint256))": {
        "notice": "Emitted when an offer is filled"
      },
      "OfferUpdated(address,uint256,uint256,(address,address,uint16,uint256))": {
        "notice": "Emitted when an offer is updated"
      },
      "RoyaltyPayout(address,uint256,address,uint256)": {
        "notice": "Emitted when royalties are paid"
      }
    },
    "kind": "user",
    "methods": {
      "_handleRoyaltyEnginePayout(address,uint256,uint256,address)": {
        "notice": "Pays out royalties for NFTs based on the information returned by the royalty engine"
      },
      "cancelOffer(address,uint256,uint256)": {
        "notice": "Cancels and refunds the given offer for an NFT"
      },
      "createOffer(address,uint256,address,uint256,uint16)": {
        "notice": "Creates an offer for an NFT"
      },
      "erc20TransferHelper()": {
        "notice": "The ZORA ERC-20 Transfer Helper"
      },
      "erc721TransferHelper()": {
        "notice": "The ZORA ERC-721 Transfer Helper"
      },
      "fillOffer(address,uint256,uint256,address,uint256,address)": {
        "notice": "Fills a given offer for an owned NFT, in exchange for ETH/ERC-20 tokens"
      },
      "name()": {
        "notice": "The module name"
      },
      "offerCount()": {
        "notice": "The total number of offers made"
      },
      "offers(address,uint256,uint256)": {
        "notice": "The metadata for a given offer"
      },
      "offersForNFT(address,uint256,uint256)": {
        "notice": "The offers for a given NFT"
      },
      "registrar()": {
        "notice": "The ZORA Module Registrar"
      },
      "setOfferAmount(address,uint256,uint256,address,uint256)": {
        "notice": "Updates the given offer for an NFT"
      },
      "setRoyaltyEngineAddress(address)": {
        "notice": "Update the address of the Royalty Engine, in case of unexpected update on Manifold's Proxy"
      }
    },
    "notice": "This module allows users to make ETH/ERC-20 offers for any ERC-721 token",
    "version": 1
  }
}