{
  "contractName": "ReserveAuctionListingEth",
  "abi": [
    {
      "inputs": [
        {
          "internalType": "address",
          "name": "_erc721TransferHelper",
          "type": "address"
        },
        {
          "internalType": "address",
          "name": "_royaltyEngine",
          "type": "address"
        },
        {
          "internalType": "address",
          "name": "_protocolFeeSettings",
          "type": "address"
        },
        {
          "internalType": "address",
          "name": "_weth",
          "type": "address"
        }
      ],
      "stateMutability": "nonpayable",
      "type": "constructor"
    },
    {
      "anonymous": false,
      "inputs": [
        {
          "indexed": true,
          "internalType": "address",
          "name": "tokenContract",
          "type": "address"
        },
        {
          "indexed": true,
          "internalType": "uint256",
          "name": "tokenId",
          "type": "uint256"
        },
        {
          "indexed": false,
          "internalType": "bool",
          "name": "firstBid",
          "type": "bool"
        },
        {
          "indexed": false,
          "internalType": "bool",
          "name": "extended",
          "type": "bool"
        },
        {
          "components": [
            {
              "internalType": "address",
              "name": "seller",
              "type": "address"
            },
            {
              "internalType": "uint96",
              "name": "reservePrice",
              "type": "uint96"
            },
            {
              "internalType": "address",
              "name": "sellerFundsRecipient",
              "type": "address"
            },
            {
              "internalType": "uint96",
              "name": "highestBid",
              "type": "uint96"
            },
            {
              "internalType": "address",
              "name": "highestBidder",
              "type": "address"
            },
            {
              "internalType": "uint48",
              "name": "duration",
              "type": "uint48"
            },
            {
              "internalType": "uint48",
              "name": "startTime",
              "type": "uint48"
            },
            {
              "internalType": "address",
              "name": "listingFeeRecipient",
              "type": "address"
            },
            {
              "internalType": "uint80",
              "name": "firstBidTime",
              "type": "uint80"
            },
            {
              "internalType": "uint16",
              "name": "listingFeeBps",
              "type": "uint16"
            }
          ],
          "indexed": false,
          "internalType": "struct ReserveAuctionListingEth.Auction",
          "name": "auction",
          "type": "tuple"
        }
      ],
      "name": "AuctionBid",
      "type": "event"
    },
    {
      "anonymous": false,
      "inputs": [
        {
          "indexed": true,
          "internalType": "address",
          "name": "tokenContract",
          "type": "address"
        },
        {
          "indexed": true,
          "internalType": "uint256",
          "name": "tokenId",
          "type": "uint256"
        },
        {
          "components": [
            {
              "internalType": "address",
              "name": "seller",
              "type": "address"
            },
            {
              "internalType": "uint96",
              "name": "reservePrice",
              "type": "uint96"
            },
            {
              "internalType": "address",
              "name": "sellerFundsRecipient",
              "type": "address"
            },
            {
              "internalType": "uint96",
              "name": "highestBid",
              "type": "uint96"
            },
            {
              "internalType": "address",
              "name": "highestBidder",
              "type": "address"
            },
            {
              "internalType": "uint48",
              "name": "duration",
              "type": "uint48"
            },
            {
              "internalType": "uint48",
              "name": "startTime",
              "type": "uint48"
            },
            {
              "internalType": "address",
              "name": "listingFeeRecipient",
              "type": "address"
            },
            {
              "internalType": "uint80",
              "name": "firstBidTime",
              "type": "uint80"
            },
            {
              "internalType": "uint16",
              "name": "listingFeeBps",
              "type": "uint16"
            }
          ],
          "indexed": false,
          "internalType": "struct ReserveAuctionListingEth.Auction",
          "name": "auction",
          "type": "tuple"
        }
      ],
      "name": "AuctionCanceled",
      "type": "event"
    },
    {
      "anonymous": false,
      "inputs": [
        {
          "indexed": true,
          "internalType": "address",
          "name": "tokenContract",
          "type": "address"
        },
        {
          "indexed": true,
          "internalType": "uint256",
          "name": "tokenId",
          "type": "uint256"
        },
        {
          "components": [
            {
              "internalType": "address",
              "name": "seller",
              "type": "address"
            },
            {
              "internalType": "uint96",
              "name": "reservePrice",
              "type": "uint96"
            },
            {
              "internalType": "address",
              "name": "sellerFundsRecipient",
              "type": "address"
            },
            {
              "internalType": "uint96",
              "name": "highestBid",
              "type": "uint96"
            },
            {
              "internalType": "address",
              "name": "highestBidder",
              "type": "address"
            },
            {
              "internalType": "uint48",
              "name": "duration",
              "type": "uint48"
            },
            {
              "internalType": "uint48",
              "name": "startTime",
              "type": "uint48"
            },
            {
              "internalType": "address",
              "name": "listingFeeRecipient",
              "type": "address"
            },
            {
              "internalType": "uint80",
              "name": "firstBidTime",
              "type": "uint80"
            },
            {
              "internalType": "uint16",
              "name": "listingFeeBps",
              "type": "uint16"
            }
          ],
          "indexed": false,
          "internalType": "struct ReserveAuctionListingEth.Auction",
          "name": "auction",
          "type": "tuple"
        }
      ],
      "name": "AuctionCreated",
      "type": "event"
    },
    {
      "anonymous": false,
      "inputs": [
        {
          "indexed": true,
          "internalType": "address",
          "name": "tokenContract",
          "type": "address"
        },
        {
          "indexed": true,
          "internalType": "uint256",
          "name": "tokenId",
          "type": "uint256"
        },
        {
          "components": [
            {
              "internalType": "address",
              "name": "seller",
              "type": "address"
            },
            {
              "internalType": "uint96",
              "name": "reservePrice",
              "type": "uint96"
            },
            {
              "internalType": "address",
              "name": "sellerFundsRecipient",
              "type": "address"
            },
            {
              "internalType": "uint96",
              "name": "highestBid",
              "type": "uint96"
            },
            {
              "internalType": "address",
              "name": "highestBidder",
              "type": "address"
            },
            {
              "internalType": "uint48",
              "name": "duration",
              "type": "uint48"
            },
            {
              "internalType": "uint48",
              "name": "startTime",
              "type": "uint48"
            },
            {
              "internalType": "address",
              "name": "listingFeeRecipient",
              "type": "address"
            },
            {
              "internalType": "uint80",
              "name": "firstBidTime",
              "type": "uint80"
            },
            {
              "internalType": "uint16",
              "name": "listingFeeBps",
              "type": "uint16"
            }
          ],
          "indexed": false,
          "internalType": "struct ReserveAuctionListingEth.Auction",
          "name": "auction",
          "type": "tuple"
        }
      ],
      "name": "AuctionEnded",
      "type": "event"
    },
    {
      "anonymous": false,
      "inputs": [
        {
          "indexed": true,
          "internalType": "address",
          "name": "tokenContract",
          "type": "address"
        },
        {
          "indexed": true,
          "internalType": "uint256",
          "name": "tokenId",
          "type": "uint256"
        },
        {
          "components": [
            {
              "internalType": "address",
              "name": "seller",
              "type": "address"
            },
            {
              "internalType": "uint96",
              "name": "reservePrice",
              "type": "uint96"
            },
            {
              "internalType": "address",
              "name": "sellerFundsRecipient",
              "type": "address"
            },
            {
              "internalType": "uint96",
              "name": "highestBid",
              "type": "uint96"
            },
            {
              "internalType": "address",
              "name": "highestBidder",
              "type": "address"
            },
            {
              "internalType": "uint48",
              "name": "duration",
              "type": "uint48"
            },
            {
              "internalType": "uint48",
              "name": "startTime",
              "type": "uint48"
            },
            {
              "internalType": "address",
              "name": "listingFeeRecipient",
              "type": "address"
            },
            {
              "internalType": "uint80",
              "name": "firstBidTime",
              "type": "uint80"
            },
            {
              "internalType": "uint16",
              "name": "listingFeeBps",
              "type": "uint16"
            }
          ],
          "indexed": false,
          "internalType": "struct ReserveAuctionListingEth.Auction",
          "name": "auction",
          "type": "tuple"
        }
      ],
      "name": "AuctionReservePriceUpdated",
      "type": "event"
    },
    {
      "anonymous": false,
      "inputs": [
        {
          "indexed": true,
          "internalType": "address",
          "name": "tokenContract",
          "type": "address"
        },
        {
          "indexed": true,
          "internalType": "uint256",
          "name": "tokenId",
          "type": "uint256"
        },
        {
          "indexed": false,
          "internalType": "address",
          "name": "recipient",
          "type": "address"
        },
        {
          "indexed": false,
          "internalType": "uint256",
          "name": "amount",
          "type": "uint256"
        }
      ],
      "name": "RoyaltyPayout",
      "type": "event"
    },
    {
      "inputs": [
        {
          "internalType": "address",
          "name": "_tokenContract",
          "type": "address"
        },
        {
          "internalType": "uint256",
          "name": "_tokenId",
          "type": "uint256"
        },
        {
          "internalType": "uint256",
          "name": "_amount",
          "type": "uint256"
        },
        {
          "internalType": "address",
          "name": "_payoutCurrency",
          "type": "address"
        }
      ],
      "name": "_handleRoyaltyEnginePayout",
      "outputs": [
        {
          "internalType": "uint256",
          "name": "",
          "type": "uint256"
        }
      ],
      "stateMutability": "payable",
      "type": "function"
    },
    {
      "inputs": [
        {
          "internalType": "address",
          "name": "",
          "type": "address"
        },
        {
          "internalType": "uint256",
          "name": "",
          "type": "uint256"
        }
      ],
      "name": "auctionForNFT",
      "outputs": [
        {
          "internalType": "address",
          "name": "seller",
          "type": "address"
        },
        {
          "internalType": "uint96",
          "name": "reservePrice",
          "type": "uint96"
        },
        {
          "internalType": "address",
          "name": "sellerFundsRecipient",
          "type": "address"
        },
        {
          "internalType": "uint96",
          "name": "highestBid",
          "type": "uint96"
        },
        {
          "internalType": "address",
          "name": "highestBidder",
          "type": "address"
        },
        {
          "internalType": "uint48",
          "name": "duration",
          "type": "uint48"
        },
        {
          "internalType": "uint48",
          "name": "startTime",
          "type": "uint48"
        },
        {
          "internalType": "address",
          "name": "listingFeeRecipient",
          "type": "address"
        },
        {
          "internalType": "uint80",
          "name": "firstBidTime",
          "type": "uint80"
        },
        {
          "internalType": "uint16",
          "name": "listingFeeBps",
          "type": "uint16"
        }
      ],
      "stateMutability": "view",
      "type": "function"
    },
    {
      "inputs": [],
      "name": "erc721TransferHelper",
      "outputs": [
        {
          "internalType": "contract ERC721TransferHelper",
          "name": "",
          "type": "address"
        }
      ],
      "stateMutability": "view",
      "type": "function"
    },
    {
      "inputs": [],
      "name": "name",
      "outputs": [
        {
          "internalType": "string",
          "name": "",
          "type": "string"
        }
      ],
      "stateMutability": "view",
      "type": "function"
    },
    {
      "inputs": [],
      "name": "registrar",
      "outputs": [
        {
          "internalType": "address",
          "name": "",
          "type": "address"
        }
      ],
      "stateMutability": "view",
      "type": "function"
    },
    {
      "inputs": [
        {
          "internalType": "address",
          "name": "_royaltyEngine",
          "type": "address"
        }
      ],
      "name": "setRoyaltyEngineAddress",
      "outputs": [],
      "stateMutability": "nonpayable",
      "type": "function"
    },
    {
      "inputs": [
        {
          "internalType": "bytes4",
          "name": "_interfaceId",
          "type": "bytes4"
        }
      ],
      "name": "supportsInterface",
      "outputs": [
        {
          "internalType": "bool",
          "name": "",
          "type": "bool"
        }
      ],
      "stateMutability": "pure",
      "type": "function"
    },
    {
      "inputs": [
        {
          "internalType": "address",
          "name": "_tokenContract",
          "type": "address"
        },
        {
          "internalType": "uint256",
          "name": "_tokenId",
          "type": "uint256"
        },
        {
          "internalType": "uint256",
          "name": "_duration",
          "type": "uint256"
        },
        {
          "internalType": "uint256",
          "name": "_reservePrice",
          "type": "uint256"
        },
        {
          "internalType": "address",
          "name": "_sellerFundsRecipient",
          "type": "address"
        },
        {
          "internalType": "uint256",
          "name": "_startTime",
          "type": "uint256"
        },
        {
          "internalType": "uint256",
          "name": "_listingFeeBps",
          "type": "uint256"
        },
        {
          "internalType": "address",
          "name": "_listingFeeRecipient",
          "type": "address"
        }
      ],
      "name": "createAuction",
      "outputs": [],
      "stateMutability": "nonpayable",
      "type": "function"
    },
    {
      "inputs": [
        {
          "internalType": "address",
          "name": "_tokenContract",
          "type": "address"
        },
        {
          "internalType": "uint256",
          "name": "_tokenId",
          "type": "uint256"
        },
        {
          "internalType": "uint256",
          "name": "_reservePrice",
          "type": "uint256"
        }
      ],
      "name": "setAuctionReservePrice",
      "outputs": [],
      "stateMutability": "nonpayable",
      "type": "function"
    },
    {
      "inputs": [
        {
          "internalType": "address",
          "name": "_tokenContract",
          "type": "address"
        },
        {
          "internalType": "uint256",
          "name": "_tokenId",
          "type": "uint256"
        }
      ],
      "name": "cancelAuction",
      "outputs": [],
      "stateMutability": "nonpayable",
      "type": "function"
    },
    {
      "inputs": [
        {
          "internalType": "address",
          "name": "_tokenContract",
          "type": "address"
        },
        {
          "internalType": "uint256",
          "name": "_tokenId",
          "type": "uint256"
        }
      ],
      "name": "createBid",
      "outputs": [],
      "stateMutability": "payable",
      "type": "function"
    },
    {
      "inputs": [
        {
          "internalType": "address",
          "name": "_tokenContract",
          "type": "address"
        },
        {
          "internalType": "uint256",
          "name": "_tokenId",
          "type": "uint256"
        }
      ],
      "name": "settleAuction",
      "outputs": [],
      "stateMutability": "nonpayable",
      "type": "function"
    }
  ],
  "bytecode": "0x61010060405260016000553480156200001757600080fd5b5060405162002916380380620029168339810160408190526200003a916200025a565b6040518060400160405280601b81526020017f526573657276652041756374696f6e204c697374696e67204554480000000000815250838383876001600160a01b031663e3e606f06040518163ffffffff1660e01b8152600401602060405180830381865afa158015620000b2573d6000803e3d6000fd5b505050506040513d601f19601f82011682018060405250810190620000d89190620002c2565b6001600160a01b0316632b20e3976040518163ffffffff1660e01b8152600401602060405180830381865afa15801562000116573d6000803e3d6000fd5b505050506040513d601f19601f820116820180604052508101906200013c9190620002c2565b6001600160a01b03918216608052600180546001600160a01b0319169483169490941790935590811660c0521660a0528051620001819060029060208401906200019b565b5050506001600160a01b0390921660e05250620003269050565b828054620001a990620002e9565b90600052602060002090601f016020900481019282620001cd576000855562000218565b82601f10620001e857805160ff191683800117855562000218565b8280016001018555821562000218579182015b8281111562000218578251825591602001919060010190620001fb565b50620002269291506200022a565b5090565b5b808211156200022657600081556001016200022b565b6001600160a01b03811681146200025757600080fd5b50565b600080600080608085870312156200027157600080fd5b84516200027e8162000241565b6020860151909450620002918162000241565b6040860151909350620002a48162000241565b6060860151909250620002b78162000241565b939692955090935050565b600060208284031215620002d557600080fd5b8151620002e28162000241565b9392505050565b600181811c90821680620002fe57607f821691505b602082108114156200032057634e487b7160e01b600052602260045260246000fd5b50919050565b60805160a05160c05160e05161259a6200037c6000396000818161035f015261093e01526000818161182101526118b401526000818161011501526114c9015260008181611a4c0152611aca015261259a6000f3fe6080604052600436106100a75760003560e01c80639128c22c116100645780639128c22c146101a457806395351f36146101c5578063a90832a1146101e5578063b249bb301461030d578063cbe98dba1461032d578063f7cd1d9b1461034d57600080fd5b806301ffc9a7146100ac57806306fdde03146100e15780632b20e397146101035780635138b08c1461014f57806370a7eba914610171578063859b97fe14610184575b600080fd5b3480156100b857600080fd5b506100cc6100c7366004611e92565b610381565b60405190151581526020015b60405180910390f35b3480156100ed57600080fd5b506100f66103b8565b6040516100d89190611ee8565b34801561010f57600080fd5b506101377f000000000000000000000000000000000000000000000000000000000000000081565b6040516001600160a01b0390911681526020016100d8565b34801561015b57600080fd5b5061016f61016a366004611f33565b610446565b005b61016f61017f366004611f33565b610767565b34801561019057600080fd5b5061016f61019f366004611f33565b610b43565b6101b76101b2366004611f5f565b610dcf565b6040519081526020016100d8565b3480156101d157600080fd5b5061016f6101e0366004611fa9565b610fcb565b3480156101f157600080fd5b50610292610200366004611f33565b6003602081815260009384526040808520909152918352912080546001820154600283015492909301546001600160a01b0380831694600160a01b938490046001600160601b03908116958383169592839004909116938382169383830465ffffffffffff90811694600160d01b9094041692908216919081046001600160501b031690600160f01b900461ffff168a565b604080516001600160a01b039b8c1681526001600160601b039a8b166020820152988b1690890152979095166060870152928716608086015265ffffffffffff91821660a08601521660c08401529390931660e08201526001600160501b0390921661010083015261ffff16610120820152610140016100d8565b34801561031957600080fd5b5061016f610328366004612025565b6114be565b34801561033957600080fd5b5061016f610348366004612042565b6115ea565b34801561035957600080fd5b506101377f000000000000000000000000000000000000000000000000000000000000000081565b60006001600160e01b0319821663fad85e5760e01b14806103b257506301ffc9a760e01b6001600160e01b03198316145b92915050565b600280546103c590612077565b80601f01602080910402602001604051908101604052809291908181526020018280546103f190612077565b801561043e5780601f106104135761010080835404028352916020019161043e565b820191906000526020600020905b81548152906001019060200180831161042157829003601f168201915b505050505081565b6000546001146104715760405162461bcd60e51b8152600401610468906120b2565b60405180910390fd5b600260008181556001600160a01b03848116825260036020818152604080852087865282529384902084516101408101865281548086168252600160a01b908190046001600160601b039081169483019490945260018301548087169783019790975295869004909216606083015294850154808416608083015284810465ffffffffffff90811660a0840152600160d01b9091041660c082015293015490811660e08401529081046001600160501b03166101008301819052600160f01b90910461ffff16610120830152806105805760405162461bcd60e51b8152602060048201526013602482015272105550d51253d397d393d517d4d51054951151606a1b6044820152606401610468565b60a08201516105979065ffffffffffff16826120ec565b4210156105d95760405162461bcd60e51b815260206004820152601060248201526f20aaa1aa24a7a72fa727aa2fa7ab22a960811b6044820152606401610468565b60006105f9858585606001516001600160601b03166000620493e0611736565b5090506106078160006117f8565b60e08401519091506001600160a01b0381161561066157600061271085610120015161ffff16846106389190612104565b6106429190612123565b90506106538282600061c35061194a565b61065d8184612145565b9250505b610674846040015183600061c35061194a565b60808401516040516323b872dd60e01b81523060048201526001600160a01b03918216602482015260448101879052908716906323b872dd90606401600060405180830381600087803b1580156106ca57600080fd5b505af11580156106de573d6000803e3d6000fd5b5050505084866001600160a01b03167f63f2e8137a051fe1c1458eb3c749d1e217f48dee1c1a37eba679273cc635ca428660405161071c919061215c565b60405180910390a35050506001600160a01b03909216600090815260036020818152604080842094845293905291812081815560018082018390556002820183905592018190555550565b6000546001146107895760405162461bcd60e51b8152600401610468906120b2565b600260009081556001600160a01b0380841682526003602090815260408084208585529091529091208054909116806107fd5760405162461bcd60e51b8152602060048201526016602482015275105550d51253d397d113d154d7d393d517d1561254d560521b6044820152606401610468565b6002820154600160d01b900465ffffffffffff164210156108565760405162461bcd60e51b8152602060048201526013602482015272105550d51253d397d393d517d4d51054951151606a1b6044820152606401610468565b600382015460028301546001600160501b03600160a01b92839004169165ffffffffffff9104166000826109a1578454600160a01b90046001600160601b03163410156108dd5760405162461bcd60e51b8152602060048201526015602482015274149154d154959157d4149250d157d393d517d35155605a1b6044820152606401610468565b5060038401805469ffffffffffffffffffff60a01b1916600160a01b426001600160501b031602179055604051630aed65f560e11b81526001600160a01b0387811660048301528481166024830152306044830152606482018790526001917f0000000000000000000000000000000000000000000000000000000000000000909116906315dacbea90608401600060405180830381600087803b15801561098457600080fd5b505af1158015610998573d6000803e3d6000fd5b50505050610a6c565b6109ab82846120ec565b42106109e85760405162461bcd60e51b815260206004820152600c60248201526b20aaa1aa24a7a72fa7ab22a960a11b6044820152606401610468565b6001850154600160a01b90046001600160601b03166064600a820204810134811115610a4c5760405162461bcd60e51b81526020600482015260136024820152721352539253555357d0925117d393d517d35155606a1b6044820152606401610468565b6002870154610a69906001600160a01b031683600061c35061194a565b50505b6001850180546001600160601b033416600160a01b026001600160a01b039091161790556002850180546001600160a01b0319163317905560004284840103610384811015610aed5760028701805465ffffffffffff600160a01b8083048216610384869003019091160265ffffffffffff60a01b19909116179055600191505b87896001600160a01b03167fc82b4e00ded4316af839e6d3e19e6f3cacb51a22c743ef508470d89b7046e7da85858b604051610b2b939291906122d0565b60405180910390a35050600160005550505050505050565b600054600114610b655760405162461bcd60e51b8152600401610468906120b2565b600260008181556001600160a01b03848116825260036020818152604080852087865282529384902084516101408101865281548086168252600160a01b908190046001600160601b039081169483019490945260018301548087169783019790975295869004909216606083015294850154808416608083015284810465ffffffffffff90811660a0840152600160d01b9091041660c082015293015490811660e08401529081046001600160501b03166101008301819052600160f01b90910461ffff1661012083015215610c705760405162461bcd60e51b815260206004820152600f60248201526e105550d51253d397d4d51054951151608a1b6044820152606401610468565b80516001600160a01b0316331480610d0157506040516331a9108f60e11b8152600481018390526001600160a01b03841690636352211e90602401602060405180830381865afa158015610cc8573d6000803e3d6000fd5b505050506040513d601f19601f82011682018060405250810190610cec91906122ef565b6001600160a01b0316336001600160a01b0316145b610d4d5760405162461bcd60e51b815260206004820152601a60248201527f4f4e4c595f53454c4c45525f4f525f544f4b454e5f4f574e45520000000000006044820152606401610468565b81836001600160a01b03167f3cd98da27031b43bc858c944e715af0224d928b768ac872218c3cbc0246199c683604051610d87919061215c565b60405180910390a3506001600160a01b039091166000908152600360208181526040808420948452939052918120818155600180820183905560028201839055920181905555565b6000333014610e365760405162461bcd60e51b815260206004820152602d60248201527f5f68616e646c65526f79616c7479456e67696e655061796f7574206f6e6c792060448201526c73656c662063616c6c61626c6560981b6064820152608401610468565b600154604051637a99dc0160e11b81526001600160a01b0387811660048301526024820187905260448201869052600092839291169063f533b802906064016000604051808303816000875af1158015610e94573d6000803e3d6000fd5b505050506040513d6000823e601f3d908101601f19168201604052610ebc91908101906123e2565b8151919350915080610ed357859350505050610fc3565b85600080805b84811015610fb957868181518110610ef357610ef36124a7565b60200260200101519250858181518110610f0f57610f0f6124a7565b6020026020010151915081841015610f555760405162461bcd60e51b81526020600482015260096024820152681a5b9cdbdb1d995b9d60ba1b6044820152606401610468565b610f6383838b61c35061194a565b604080516001600160a01b038581168252602082018590528d92908f16917f866e6ef8682ddf5f1025e64dfdb45527077f7be70fa9ef680b7ffd8cf4ab9c50910160405180910390a39281900392600101610ed9565b5091955050505050505b949350505050565b600054600114610fed5760405162461bcd60e51b8152600401610468906120b2565b600260009081556040516331a9108f60e11b8152600481018990526001600160a01b038a1690636352211e90602401602060405180830381865afa158015611039573d6000803e3d6000fd5b505050506040513d601f19601f8201168201806040525081019061105d91906122ef565b9050336001600160a01b03821614806110e1575060405163e985e9c560e01b81526001600160a01b0382811660048301523360248301528a169063e985e9c590604401602060405180830381865afa1580156110bd573d6000803e3d6000fd5b505050506040513d601f19601f820116820180604052508101906110e191906124bd565b61112d5760405162461bcd60e51b815260206004820152601c60248201527f4f4e4c595f544f4b454e5f4f574e45525f4f525f4f50455241544f52000000006044820152606401610468565b6001600160a01b0385166111835760405162461bcd60e51b815260206004820152601760248201527f494e56414c49445f46554e44535f524543495049454e540000000000000000006044820152606401610468565b6127108311156111cb5760405162461bcd60e51b8152602060048201526013602482015272494e56414c49445f4c495354494e475f46454560681b6044820152606401610468565b80600360008b6001600160a01b03166001600160a01b0316815260200190815260200160002060008a815260200190815260200160002060000160006101000a8154816001600160a01b0302191690836001600160a01b0316021790555085600360008b6001600160a01b03166001600160a01b0316815260200190815260200160002060008a815260200190815260200160002060000160146101000a8154816001600160601b0302191690836001600160601b0316021790555084600360008b6001600160a01b03166001600160a01b0316815260200190815260200160002060008a815260200190815260200160002060010160006101000a8154816001600160a01b0302191690836001600160a01b0316021790555086600360008b6001600160a01b03166001600160a01b0316815260200190815260200160002060008a815260200190815260200160002060020160146101000a81548165ffffffffffff021916908365ffffffffffff16021790555083600360008b6001600160a01b03166001600160a01b0316815260200190815260200160002060008a8152602001908152602001600020600201601a6101000a81548165ffffffffffff021916908365ffffffffffff16021790555081600360008b6001600160a01b03166001600160a01b0316815260200190815260200160002060008a815260200190815260200160002060030160006101000a8154816001600160a01b0302191690836001600160a01b0316021790555082600360008b6001600160a01b03166001600160a01b0316815260200190815260200160002060008a8152602001908152602001600020600301601e6101000a81548161ffff021916908361ffff16021790555087896001600160a01b03167f8d594ef04d912286e9ef35545765b4942b8c5955a05d2acd1347f5fef31ba101600360008d6001600160a01b03166001600160a01b0316815260200190815260200160002060008c8152602001908152602001600020604051610b2b91906124df565b336001600160a01b037f000000000000000000000000000000000000000000000000000000000000000016146115455760405162461bcd60e51b815260206004820152602660248201527f736574526f79616c7479456e67696e6541646472657373206f6e6c792072656760448201526534b9ba3930b960d11b6064820152608401610468565b61155681636591fc0b60e11b611b16565b6115c85760405162461bcd60e51b815260206004820152603d60248201527f736574526f79616c7479456e67696e6541646472657373206d757374206d617460448201527f63682049526f79616c7479456e67696e65563120696e746572666163650000006064820152608401610468565b600180546001600160a01b0319166001600160a01b0392909216919091179055565b60005460011461160c5760405162461bcd60e51b8152600401610468906120b2565b600260009081556001600160a01b038416815260036020818152604080842086855290915290912090810154600160a01b90046001600160501b0316156116875760405162461bcd60e51b815260206004820152600f60248201526e105550d51253d397d4d51054951151608a1b6044820152606401610468565b80546001600160a01b031633146116ce5760405162461bcd60e51b815260206004820152600b60248201526a27a7262cafa9a2a62622a960a91b6044820152606401610468565b80546001600160601b038316600160a01b026001600160a01b0391821617825560405184918616907f70def19a51ef96d3b2bfacea88d97cc15f04747fd77a4453df24a182734492f8906117239085906124df565b60405180910390a3505060016000555050565b6000808083158061174657505a84115b6117505783611752565b5a5b60405163244a308b60e21b81526001600160a01b03808b166004830152602482018a905260448201899052871660648201529091503090639128c22c90839060840160206040518083038160008887f1935050505080156117d0575060408051601f3d908101601f191682019092526117cd918101906124ee565b60015b6117e15785600092509250506117ee565b9250600191506117ee9050565b9550959350505050565b6040516330da42fb60e11b81523060048201526024810183905260009081906001600160a01b037f000000000000000000000000000000000000000000000000000000000000000016906361b485f690604401602060405180830381865afa158015611868573d6000803e3d6000fd5b505050506040513d601f19601f8201168201806040525081019061188c91906124ee565b90508061189c57839150506103b2565b6040516386ab6fb960e01b81523060048201526000907f00000000000000000000000000000000000000000000000000000000000000006001600160a01b0316906386ab6fb9906024016040805180830381865afa158015611902573d6000803e3d6000fd5b505050506040513d601f19601f820116820180604052508101906119269190612507565b91505061193781838661c35061194a565b6119418286612145565b95945050505050565b82158061195e57506001600160a01b038416155b1561196857611b10565b6001600160a01b038216611afc57824710156119d05760405162461bcd60e51b815260206004820152602160248201527f5f68616e646c654f7574676f696e675472616e7366657220696e736f6c76656e6044820152601d60fa1b6064820152608401610468565b60008115806119de57505a82115b6119e857816119ea565b5a5b90506000856001600160a01b0316858390604051600060405180830381858888f193505050503d8060008114611a3c576040519150601f19603f3d011682016040523d82523d6000602084013e611a41565b606091505b5050905080611af5577f00000000000000000000000000000000000000000000000000000000000000006001600160a01b031663d0e30db0866040518263ffffffff1660e01b81526004016000604051808303818588803b158015611aa557600080fd5b505af1158015611ab9573d6000803e3d6000fd5b50611af59350506001600160a01b037f000000000000000000000000000000000000000000000000000000000000000016915088905087611b39565b5050611b10565b611b106001600160a01b0383168585611b39565b50505050565b6000611b2183611b90565b8015611b325750611b328383611bc3565b9392505050565b604080516001600160a01b038416602482015260448082018490528251808303909101815260649091019091526020810180516001600160e01b031663a9059cbb60e01b179052611b8b908490611cac565b505050565b6000611ba3826301ffc9a760e01b611bc3565b80156103b25750611bbc826001600160e01b0319611bc3565b1592915050565b604080516001600160e01b0319831660248083019190915282518083039091018152604490910182526020810180516001600160e01b03166301ffc9a760e01b179052905160009190829081906001600160a01b0387169061753090611c2a908690612548565b6000604051808303818686fa925050503d8060008114611c66576040519150601f19603f3d011682016040523d82523d6000602084013e611c6b565b606091505b5091509150602081511015611c8657600093505050506103b2565b818015611ca2575080806020019051810190611ca291906124bd565b9695505050505050565b6000611d01826040518060400160405280602081526020017f5361666545524332303a206c6f772d6c6576656c2063616c6c206661696c6564815250856001600160a01b0316611d7e9092919063ffffffff16565b805190915015611b8b5780806020019051810190611d1f91906124bd565b611b8b5760405162461bcd60e51b815260206004820152602a60248201527f5361666545524332303a204552433230206f7065726174696f6e20646964206e6044820152691bdd081cdd58d8d9595960b21b6064820152608401610468565b6060610fc38484600085856001600160a01b0385163b611de05760405162461bcd60e51b815260206004820152601d60248201527f416464726573733a2063616c6c20746f206e6f6e2d636f6e74726163740000006044820152606401610468565b600080866001600160a01b03168587604051611dfc9190612548565b60006040518083038185875af1925050503d8060008114611e39576040519150601f19603f3d011682016040523d82523d6000602084013e611e3e565b606091505b5091509150611e4e828286611e59565b979650505050505050565b60608315611e68575081611b32565b825115611e785782518084602001fd5b8160405162461bcd60e51b81526004016104689190611ee8565b600060208284031215611ea457600080fd5b81356001600160e01b031981168114611b3257600080fd5b60005b83811015611ed7578181015183820152602001611ebf565b83811115611b105750506000910152565b6020815260008251806020840152611f07816040850160208701611ebc565b601f01601f19169190910160400192915050565b6001600160a01b0381168114611f3057600080fd5b50565b60008060408385031215611f4657600080fd5b8235611f5181611f1b565b946020939093013593505050565b60008060008060808587031215611f7557600080fd5b8435611f8081611f1b565b935060208501359250604085013591506060850135611f9e81611f1b565b939692955090935050565b600080600080600080600080610100898b031215611fc657600080fd5b8835611fd181611f1b565b97506020890135965060408901359550606089013594506080890135611ff681611f1b565b935060a0890135925060c0890135915060e089013561201481611f1b565b809150509295985092959890939650565b60006020828403121561203757600080fd5b8135611b3281611f1b565b60008060006060848603121561205757600080fd5b833561206281611f1b565b95602085013595506040909401359392505050565b600181811c9082168061208b57607f821691505b602082108114156120ac57634e487b7160e01b600052602260045260246000fd5b50919050565b6020808252600a90820152695245454e5452414e435960b01b604082015260600190565b634e487b7160e01b600052601160045260246000fd5b600082198211156120ff576120ff6120d6565b500190565b600081600019048311821515161561211e5761211e6120d6565b500290565b60008261214057634e487b7160e01b600052601260045260246000fd5b500490565b600082821015612157576121576120d6565b500390565b81516001600160a01b031681526101408101602083015161218860208401826001600160601b03169052565b5060408301516121a360408401826001600160a01b03169052565b5060608301516121be60608401826001600160601b03169052565b5060808301516121d960808401826001600160a01b03169052565b5060a08301516121f360a084018265ffffffffffff169052565b5060c083015161220d60c084018265ffffffffffff169052565b5060e083015161222860e08401826001600160a01b03169052565b50610100838101516001600160501b0316908301526101209283015161ffff16929091019190915290565b80546001600160a01b03808216845260a091821c602085015260018301548082166040860152821c60608501526002830154808216608086015280831c65ffffffffffff168386015260d01c60c085015260039092015491821660e084015281901c6001600160501b031661010083015260f01c61012090910152565b831515815282151560208201526101808101610fc36040830184612253565b60006020828403121561230157600080fd5b8151611b3281611f1b565b634e487b7160e01b600052604160045260246000fd5b604051601f8201601f1916810167ffffffffffffffff8111828210171561234b5761234b61230c565b604052919050565b600067ffffffffffffffff82111561236d5761236d61230c565b5060051b60200190565b600082601f83011261238857600080fd5b8151602061239d61239883612353565b612322565b82815260059290921b840181019181810190868411156123bc57600080fd5b8286015b848110156123d757805183529183019183016123c0565b509695505050505050565b600080604083850312156123f557600080fd5b825167ffffffffffffffff8082111561240d57600080fd5b818501915085601f83011261242157600080fd5b8151602061243161239883612353565b82815260059290921b8401810191818101908984111561245057600080fd5b948201945b8386101561247757855161246881611f1b565b82529482019490820190612455565b9188015191965090935050508082111561249057600080fd5b5061249d85828601612377565b9150509250929050565b634e487b7160e01b600052603260045260246000fd5b6000602082840312156124cf57600080fd5b81518015158114611b3257600080fd5b61014081016103b28284612253565b60006020828403121561250057600080fd5b5051919050565b6000806040838503121561251a57600080fd5b825161ffff8116811461252c57600080fd5b602084015190925061253d81611f1b565b809150509250929050565b6000825161255a818460208701611ebc565b919091019291505056fea2646970667358221220642ff75fa5a65f149480269ef46fa5a46e23d3ad43fe6019d18d0b89126e3cd264736f6c634300080a0033",
  "immutableReferences": {
    "8147": [
      {
        "length": 32,
        "start": 277
      },
      {
        "length": 32,
        "start": 5321
      }
    ],
    "8151": [
      {
        "length": 32,
        "start": 6177
      },
      {
        "length": 32,
        "start": 6324
      }
    ],
    "8607": [
      {
        "length": 32,
        "start": 6732
      },
      {
        "length": 32,
        "start": 6858
      }
    ],
    "15314": [
      {
        "length": 32,
        "start": 863
      },
      {
        "length": 32,
        "start": 2366
      }
    ]
  },
  "source": "// SPDX-License-Identifier: GPL-3.0\npragma solidity 0.8.10;\n\nimport {ReentrancyGuard} from \"@rari-capital/solmate/src/utils/ReentrancyGuard.sol\";\nimport {IERC721} from \"@openzeppelin/contracts/token/ERC721/IERC721.sol\";\n\nimport {ERC721TransferHelper} from \"../../../../transferHelpers/ERC721TransferHelper.sol\";\nimport {FeePayoutSupportV1} from \"../../../../common/FeePayoutSupport/FeePayoutSupportV1.sol\";\nimport {ModuleNamingSupportV1} from \"../../../../common/ModuleNamingSupport/ModuleNamingSupportV1.sol\";\nimport {IReserveAuctionListingEth} from \"./IReserveAuctionListingEth.sol\";\n\n/// @title Reserve Auction Listing ETH\n/// @author kulkarohan\n/// @notice Module adding Listing Fee to Reserve Auction Core ETH\ncontract ReserveAuctionListingEth is ReentrancyGuard, FeePayoutSupportV1, ModuleNamingSupportV1 {\n    /// @notice The minimum amount of time left in an auction after a new bid is created\n    uint16 constant TIME_BUFFER = 15 minutes;\n\n    /// @notice The minimum percentage difference between two bids\n    uint8 constant MIN_BID_INCREMENT_PERCENTAGE = 10;\n\n    /// @notice The ZORA ERC-721 Transfer Helper\n    ERC721TransferHelper public immutable erc721TransferHelper;\n\n    /// @notice The auction for a given NFT, if one exists\n    /// @dev ERC-721 token contract => ERC-721 token id => Auction\n    mapping(address => mapping(uint256 => Auction)) public auctionForNFT;\n\n    /// @notice The metadata for a given auction\n    /// @param seller The address of the seller\n    /// @param reservePrice The reserve price to start the auction\n    /// @param sellerFundsRecipient The address where funds are sent after the auction\n    /// @param highestBid The highest bid of the auction\n    /// @param highestBidder The address of the highest bidder\n    /// @param duration The length of time that the auction runs after the first bid is placed\n    /// @param startTime The time that the first bid can be placed\n    /// @param listingFeeRecipient The address that listed the auction\n    /// @param firstBidTime The time that the first bid is placed\n    /// @param listingFeeBps The fee that is sent to the lister of the auction\n    struct Auction {\n        address seller;\n        uint96 reservePrice;\n        address sellerFundsRecipient;\n        uint96 highestBid;\n        address highestBidder;\n        uint48 duration;\n        uint48 startTime;\n        address listingFeeRecipient;\n        uint80 firstBidTime;\n        uint16 listingFeeBps;\n    }\n\n    /// @notice Emitted when an auction is created\n    /// @param tokenContract The ERC-721 token address of the created auction\n    /// @param tokenId The ERC-721 token id of the created auction\n    /// @param auction The metadata of the created auction\n    event AuctionCreated(address indexed tokenContract, uint256 indexed tokenId, Auction auction);\n\n    /// @notice Emitted when a reserve price is updated\n    /// @param tokenContract The ERC-721 token address of the updated auction\n    /// @param tokenId The ERC-721 token id of the updated auction\n    /// @param auction The metadata of the updated auction\n    event AuctionReservePriceUpdated(address indexed tokenContract, uint256 indexed tokenId, Auction auction);\n\n    /// @notice Emitted when an auction is canceled\n    /// @param tokenContract The ERC-721 token address of the canceled auction\n    /// @param tokenId The ERC-721 token id of the canceled auction\n    /// @param auction The metadata of the canceled auction\n    event AuctionCanceled(address indexed tokenContract, uint256 indexed tokenId, Auction auction);\n\n    /// @notice Emitted when a bid is placed\n    /// @param tokenContract The ERC-721 token address of the auction\n    /// @param tokenId The ERC-721 token id of the auction\n    /// @param firstBid If the bid started the auction\n    /// @param extended If the bid extended the auction\n    /// @param auction The metadata of the auction\n    event AuctionBid(address indexed tokenContract, uint256 indexed tokenId, bool firstBid, bool extended, Auction auction);\n\n    /// @notice Emitted when an auction has ended\n    /// @param tokenContract The ERC-721 token address of the auction\n    /// @param tokenId The ERC-721 token id of the auction\n    /// @param auction The metadata of the settled auction\n    event AuctionEnded(address indexed tokenContract, uint256 indexed tokenId, Auction auction);\n\n    /// @param _erc721TransferHelper The ZORA ERC-721 Transfer Helper address\n    /// @param _royaltyEngine The Manifold Royalty Engine address\n    /// @param _protocolFeeSettings The ZORA Protocol Fee Settings address\n    /// @param _weth The WETH token address\n    constructor(\n        address _erc721TransferHelper,\n        address _royaltyEngine,\n        address _protocolFeeSettings,\n        address _weth\n    )\n        FeePayoutSupportV1(_royaltyEngine, _protocolFeeSettings, _weth, ERC721TransferHelper(_erc721TransferHelper).ZMM().registrar())\n        ModuleNamingSupportV1(\"Reserve Auction Listing ETH\")\n    {\n        erc721TransferHelper = ERC721TransferHelper(_erc721TransferHelper);\n    }\n\n    /// @notice Implements EIP-165 for standard interface detection\n    /// @dev `0x01ffc9a7` is the IERC165 interface id\n    /// @param _interfaceId The identifier of a given interface\n    /// @return If the given interface is supported\n    function supportsInterface(bytes4 _interfaceId) external pure returns (bool) {\n        return _interfaceId == type(IReserveAuctionListingEth).interfaceId || _interfaceId == 0x01ffc9a7;\n    }\n\n    /// @notice Creates an auction for a given NFT\n    /// @param _tokenContract The address of the ERC-721 token\n    /// @param _tokenId The id of the ERC-721 token\n    /// @param _duration The length of time the auction should run after the first bid\n    /// @param _reservePrice The minimum bid amount to start the auction\n    /// @param _sellerFundsRecipient The address to send funds to once the auction is complete\n    /// @param _startTime The time that users can begin placing bids\n    /// @param _listingFeeBps The fee to send to the lister of the auction\n    /// @param _listingFeeRecipient The address listing the auction\n    function createAuction(\n        address _tokenContract,\n        uint256 _tokenId,\n        uint256 _duration,\n        uint256 _reservePrice,\n        address _sellerFundsRecipient,\n        uint256 _startTime,\n        uint256 _listingFeeBps,\n        address _listingFeeRecipient\n    ) external nonReentrant {\n        // Get the owner of the specified token\n        address tokenOwner = IERC721(_tokenContract).ownerOf(_tokenId);\n\n        // Ensure the caller is the owner or an approved operator\n        require(msg.sender == tokenOwner || IERC721(_tokenContract).isApprovedForAll(tokenOwner, msg.sender), \"ONLY_TOKEN_OWNER_OR_OPERATOR\");\n\n        // Ensure the funds recipient is specified\n        require(_sellerFundsRecipient != address(0), \"INVALID_FUNDS_RECIPIENT\");\n\n        // Ensure the listing fee does not exceed 10,000 basis points\n        require(_listingFeeBps <= 10000, \"INVALID_LISTING_FEE\");\n\n        // Store the auction metadata\n        auctionForNFT[_tokenContract][_tokenId].seller = tokenOwner;\n        auctionForNFT[_tokenContract][_tokenId].reservePrice = uint96(_reservePrice);\n        auctionForNFT[_tokenContract][_tokenId].sellerFundsRecipient = _sellerFundsRecipient;\n        auctionForNFT[_tokenContract][_tokenId].duration = uint48(_duration);\n        auctionForNFT[_tokenContract][_tokenId].startTime = uint48(_startTime);\n        auctionForNFT[_tokenContract][_tokenId].listingFeeRecipient = _listingFeeRecipient;\n        auctionForNFT[_tokenContract][_tokenId].listingFeeBps = uint16(_listingFeeBps);\n\n        emit AuctionCreated(_tokenContract, _tokenId, auctionForNFT[_tokenContract][_tokenId]);\n    }\n\n    /// @notice Updates the reserve price for a given auction\n    /// @param _tokenContract The address of the ERC-721 token\n    /// @param _tokenId The id of the ERC-721 token\n    /// @param _reservePrice The new reserve price\n    function setAuctionReservePrice(\n        address _tokenContract,\n        uint256 _tokenId,\n        uint256 _reservePrice\n    ) external nonReentrant {\n        // Get the auction for the specified token\n        Auction storage auction = auctionForNFT[_tokenContract][_tokenId];\n\n        // Ensure the auction has not started\n        require(auction.firstBidTime == 0, \"AUCTION_STARTED\");\n\n        // Ensure the caller is the seller\n        require(msg.sender == auction.seller, \"ONLY_SELLER\");\n\n        // Update the reserve price\n        auction.reservePrice = uint96(_reservePrice);\n\n        emit AuctionReservePriceUpdated(_tokenContract, _tokenId, auction);\n    }\n\n    /// @notice Cancels the auction for a given NFT\n    /// @param _tokenContract The address of the ERC-721 token\n    /// @param _tokenId The id of the ERC-721 token\n    function cancelAuction(address _tokenContract, uint256 _tokenId) external nonReentrant {\n        // Get the auction for the specified token\n        Auction memory auction = auctionForNFT[_tokenContract][_tokenId];\n\n        // Ensure the auction has not started\n        require(auction.firstBidTime == 0, \"AUCTION_STARTED\");\n\n        // Ensure the caller is the seller or a new owner of the token\n        require(msg.sender == auction.seller || msg.sender == IERC721(_tokenContract).ownerOf(_tokenId), \"ONLY_SELLER_OR_TOKEN_OWNER\");\n\n        emit AuctionCanceled(_tokenContract, _tokenId, auction);\n\n        // Remove the auction from storage\n        delete auctionForNFT[_tokenContract][_tokenId];\n    }\n\n    /// @notice Places a bid on the auction for a given NFT\n    /// @param _tokenContract The address of the ERC-721 token\n    /// @param _tokenId The id of the ERC-721 token\n    function createBid(address _tokenContract, uint256 _tokenId) external payable nonReentrant {\n        // Get the auction for the specified token\n        Auction storage auction = auctionForNFT[_tokenContract][_tokenId];\n\n        // Cache the seller\n        address seller = auction.seller;\n\n        // Ensure the auction exists\n        require(seller != address(0), \"AUCTION_DOES_NOT_EXIST\");\n\n        // Ensure the auction has started or is valid to start\n        require(block.timestamp >= auction.startTime, \"AUCTION_NOT_STARTED\");\n\n        // Cache more auction metadata\n        uint256 firstBidTime = auction.firstBidTime;\n        uint256 duration = auction.duration;\n\n        // Used to emit whether the bid started the auction\n        bool firstBid;\n\n        // If this is the first bid, start the auction\n        if (firstBidTime == 0) {\n            // Ensure the bid meets the reserve price\n            require(msg.value >= auction.reservePrice, \"RESERVE_PRICE_NOT_MET\");\n\n            // Store the current time as the first bid time\n            auction.firstBidTime = uint80(block.timestamp);\n\n            // Mark this bid as the first\n            firstBid = true;\n\n            // Transfer the NFT from the seller into escrow for the duration of the auction\n            // Reverts if the seller did not approve the ERC721TransferHelper or no longer owns the token\n            erc721TransferHelper.transferFrom(_tokenContract, seller, address(this), _tokenId);\n\n            // Else this is a subsequent bid, so refund the previous bidder\n        } else {\n            // Ensure the auction has not ended\n            require(block.timestamp < (firstBidTime + duration), \"AUCTION_OVER\");\n\n            // Cache the highest bid\n            uint256 highestBid = auction.highestBid;\n\n            // Used to store the minimum bid required to outbid the highest bidder\n            uint256 minValidBid;\n\n            // Calculate the minimum bid required (10% higher than the highest bid)\n            // Cannot overflow as the highest bid would have to be magnitudes higher than the total supply of ETH\n            unchecked {\n                minValidBid = highestBid + ((highestBid * MIN_BID_INCREMENT_PERCENTAGE) / 100);\n            }\n\n            // Ensure the incoming bid meets the minimum\n            require(msg.value >= minValidBid, \"MINIMUM_BID_NOT_MET\");\n\n            // Refund the previous bidder\n            _handleOutgoingTransfer(auction.highestBidder, highestBid, address(0), 50000);\n        }\n\n        // Store the attached ETH as the highest bid\n        auction.highestBid = uint96(msg.value);\n\n        // Store the caller as the highest bidder\n        auction.highestBidder = msg.sender;\n\n        // Used to emit whether the bid extended the auction\n        bool extended;\n\n        // Used to store the auction time remaining\n        uint256 timeRemaining;\n\n        // Get the auction time remaining\n        // Cannot underflow as `firstBidTime + duration` is ensured to be greater than `block.timestamp`\n        unchecked {\n            timeRemaining = firstBidTime + duration - block.timestamp;\n        }\n\n        // If the bid is placed within 15 minutes of the auction end, extend the auction\n        if (timeRemaining < TIME_BUFFER) {\n            // Add (15 minutes - remaining time) to the duration so that 15 minutes remain\n            // Cannot underflow as `timeRemaining` is ensured to be less than `TIME_BUFFER`\n            unchecked {\n                auction.duration += uint48(TIME_BUFFER - timeRemaining);\n            }\n\n            // Mark the bid as one that extended the auction\n            extended = true;\n        }\n\n        emit AuctionBid(_tokenContract, _tokenId, firstBid, extended, auction);\n    }\n\n    /// @notice Ends the auction for a given NFT\n    /// @param _tokenContract The address of the ERC-721 token\n    /// @param _tokenId The id of the ERC-721 token\n    function settleAuction(address _tokenContract, uint256 _tokenId) external nonReentrant {\n        // Get the auction for the specified token\n        Auction memory auction = auctionForNFT[_tokenContract][_tokenId];\n\n        // Cache the time of the first bid\n        uint256 firstBidTime = auction.firstBidTime;\n\n        // Ensure the auction had started\n        require(firstBidTime != 0, \"AUCTION_NOT_STARTED\");\n\n        // Ensure the auction has ended\n        require(block.timestamp >= (firstBidTime + auction.duration), \"AUCTION_NOT_OVER\");\n\n        // Payout associated token royalties, if any\n        (uint256 remainingProfit, ) = _handleRoyaltyPayout(_tokenContract, _tokenId, auction.highestBid, address(0), 300000);\n\n        // Payout the module fee, if configured by the owner\n        remainingProfit = _handleProtocolFeePayout(remainingProfit, address(0));\n\n        // Cache the listing fee recipient\n        address listingFeeRecipient = auction.listingFeeRecipient;\n\n        // Payout the listing fee, if a recipient exists\n        if (listingFeeRecipient != address(0)) {\n            // Get the listing fee from the remaining profit\n            uint256 listingFee = (remainingProfit * auction.listingFeeBps) / 10000;\n\n            // Transfer the amount to the listing fee recipient\n            _handleOutgoingTransfer(listingFeeRecipient, listingFee, address(0), 50000);\n\n            // Update the remaining profit\n            remainingProfit -= listingFee;\n        }\n\n        // Transfer the remaining profit to the funds recipient\n        _handleOutgoingTransfer(auction.sellerFundsRecipient, remainingProfit, address(0), 50000);\n\n        // Transfer the NFT to the winning bidder\n        IERC721(_tokenContract).transferFrom(address(this), auction.highestBidder, _tokenId);\n\n        emit AuctionEnded(_tokenContract, _tokenId, auction);\n\n        // Remove the auction from storage\n        delete auctionForNFT[_tokenContract][_tokenId];\n    }\n}\n",
  "sourcePath": "/Users/ds/Documents/rarible/scripts/contracts/modules/ReserveAuction/Listing/ETH/ReserveAuctionListingEth.sol",
  "compiler": {
    "name": "solc",
    "version": "0.8.10+commit.fc410830.Emscripten.clang"
  },
  "schemaVersion": "3.4.3",
  "updatedAt": "2022-04-04T14:37:20.270Z",
  "devdoc": {
    "author": "kulkarohan",
    "events": {
      "AuctionBid(address,uint256,bool,bool,(address,uint96,address,uint96,address,uint48,uint48,address,uint80,uint16))": {
        "params": {
          "auction": "The metadata of the auction",
          "extended": "If the bid extended the auction",
          "firstBid": "If the bid started the auction",
          "tokenContract": "The ERC-721 token address of the auction",
          "tokenId": "The ERC-721 token id of the auction"
        }
      },
      "AuctionCanceled(address,uint256,(address,uint96,address,uint96,address,uint48,uint48,address,uint80,uint16))": {
        "params": {
          "auction": "The metadata of the canceled auction",
          "tokenContract": "The ERC-721 token address of the canceled auction",
          "tokenId": "The ERC-721 token id of the canceled auction"
        }
      },
      "AuctionCreated(address,uint256,(address,uint96,address,uint96,address,uint48,uint48,address,uint80,uint16))": {
        "params": {
          "auction": "The metadata of the created auction",
          "tokenContract": "The ERC-721 token address of the created auction",
          "tokenId": "The ERC-721 token id of the created auction"
        }
      },
      "AuctionEnded(address,uint256,(address,uint96,address,uint96,address,uint48,uint48,address,uint80,uint16))": {
        "params": {
          "auction": "The metadata of the settled auction",
          "tokenContract": "The ERC-721 token address of the auction",
          "tokenId": "The ERC-721 token id of the auction"
        }
      },
      "AuctionReservePriceUpdated(address,uint256,(address,uint96,address,uint96,address,uint48,uint48,address,uint80,uint16))": {
        "params": {
          "auction": "The metadata of the updated auction",
          "tokenContract": "The ERC-721 token address of the updated auction",
          "tokenId": "The ERC-721 token id of the updated auction"
        }
      }
    },
    "kind": "dev",
    "methods": {
      "_handleRoyaltyEnginePayout(address,uint256,uint256,address)": {
        "details": "This method is external to enable setting a gas limit when called - see `_handleRoyaltyPayout`.",
        "params": {
          "_amount": "The total sale amount",
          "_payoutCurrency": "The ERC-20 token address to payout royalties in, or address(0) for ETH",
          "_tokenContract": "The NFT Contract to get royalty information from",
          "_tokenId": ", The Token ID to get royalty information from"
        },
        "returns": {
          "_0": "The remaining funds after paying out royalties"
        }
      },
      "cancelAuction(address,uint256)": {
        "params": {
          "_tokenContract": "The address of the ERC-721 token",
          "_tokenId": "The id of the ERC-721 token"
        }
      },
      "constructor": {
        "params": {
          "_erc721TransferHelper": "The ZORA ERC-721 Transfer Helper address",
          "_protocolFeeSettings": "The ZORA Protocol Fee Settings address",
          "_royaltyEngine": "The Manifold Royalty Engine address",
          "_weth": "The WETH token address"
        }
      },
      "createAuction(address,uint256,uint256,uint256,address,uint256,uint256,address)": {
        "params": {
          "_duration": "The length of time the auction should run after the first bid",
          "_listingFeeBps": "The fee to send to the lister of the auction",
          "_listingFeeRecipient": "The address listing the auction",
          "_reservePrice": "The minimum bid amount to start the auction",
          "_sellerFundsRecipient": "The address to send funds to once the auction is complete",
          "_startTime": "The time that users can begin placing bids",
          "_tokenContract": "The address of the ERC-721 token",
          "_tokenId": "The id of the ERC-721 token"
        }
      },
      "createBid(address,uint256)": {
        "params": {
          "_tokenContract": "The address of the ERC-721 token",
          "_tokenId": "The id of the ERC-721 token"
        }
      },
      "setAuctionReservePrice(address,uint256,uint256)": {
        "params": {
          "_reservePrice": "The new reserve price",
          "_tokenContract": "The address of the ERC-721 token",
          "_tokenId": "The id of the ERC-721 token"
        }
      },
      "setRoyaltyEngineAddress(address)": {
        "details": "emergency use only  requires a frozen RoyaltyEngineV1 at commit 4ae77a73a8a73a79d628352d206fadae7f8e0f74  to be deployed elsewhere, or a contract matching that ABI",
        "params": {
          "_royaltyEngine": "The address for the new royalty engine"
        }
      },
      "settleAuction(address,uint256)": {
        "params": {
          "_tokenContract": "The address of the ERC-721 token",
          "_tokenId": "The id of the ERC-721 token"
        }
      },
      "supportsInterface(bytes4)": {
        "details": "`0x01ffc9a7` is the IERC165 interface id",
        "params": {
          "_interfaceId": "The identifier of a given interface"
        },
        "returns": {
          "_0": "If the given interface is supported"
        }
      }
    },
    "stateVariables": {
      "auctionForNFT": {
        "details": "ERC-721 token contract => ERC-721 token id => Auction"
      }
    },
    "title": "Reserve Auction Listing ETH",
    "version": 1
  },
  "userdoc": {
    "events": {
      "AuctionBid(address,uint256,bool,bool,(address,uint96,address,uint96,address,uint48,uint48,address,uint80,uint16))": {
        "notice": "Emitted when a bid is placed"
      },
      "AuctionCanceled(address,uint256,(address,uint96,address,uint96,address,uint48,uint48,address,uint80,uint16))": {
        "notice": "Emitted when an auction is canceled"
      },
      "AuctionCreated(address,uint256,(address,uint96,address,uint96,address,uint48,uint48,address,uint80,uint16))": {
        "notice": "Emitted when an auction is created"
      },
      "AuctionEnded(address,uint256,(address,uint96,address,uint96,address,uint48,uint48,address,uint80,uint16))": {
        "notice": "Emitted when an auction has ended"
      },
      "AuctionReservePriceUpdated(address,uint256,(address,uint96,address,uint96,address,uint48,uint48,address,uint80,uint16))": {
        "notice": "Emitted when a reserve price is updated"
      },
      "RoyaltyPayout(address,uint256,address,uint256)": {
        "notice": "Emitted when royalties are paid"
      }
    },
    "kind": "user",
    "methods": {
      "_handleRoyaltyEnginePayout(address,uint256,uint256,address)": {
        "notice": "Pays out royalties for NFTs based on the information returned by the royalty engine"
      },
      "auctionForNFT(address,uint256)": {
        "notice": "The auction for a given NFT, if one exists"
      },
      "cancelAuction(address,uint256)": {
        "notice": "Cancels the auction for a given NFT"
      },
      "createAuction(address,uint256,uint256,uint256,address,uint256,uint256,address)": {
        "notice": "Creates an auction for a given NFT"
      },
      "createBid(address,uint256)": {
        "notice": "Places a bid on the auction for a given NFT"
      },
      "erc721TransferHelper()": {
        "notice": "The ZORA ERC-721 Transfer Helper"
      },
      "name()": {
        "notice": "The module name"
      },
      "registrar()": {
        "notice": "The ZORA Module Registrar"
      },
      "setAuctionReservePrice(address,uint256,uint256)": {
        "notice": "Updates the reserve price for a given auction"
      },
      "setRoyaltyEngineAddress(address)": {
        "notice": "Update the address of the Royalty Engine, in case of unexpected update on Manifold's Proxy"
      },
      "settleAuction(address,uint256)": {
        "notice": "Ends the auction for a given NFT"
      },
      "supportsInterface(bytes4)": {
        "notice": "Implements EIP-165 for standard interface detection"
      }
    },
    "notice": "Module adding Listing Fee to Reserve Auction Core ETH",
    "version": 1
  }
}