{
  "contractName": "RoyaltyRegistry",
  "abi": [
    {
      "anonymous": false,
      "inputs": [
        {
          "indexed": true,
          "internalType": "address",
          "name": "previousOwner",
          "type": "address"
        },
        {
          "indexed": true,
          "internalType": "address",
          "name": "newOwner",
          "type": "address"
        }
      ],
      "name": "OwnershipTransferred",
      "type": "event"
    },
    {
      "anonymous": false,
      "inputs": [
        {
          "indexed": false,
          "internalType": "address",
          "name": "owner",
          "type": "address"
        },
        {
          "indexed": false,
          "internalType": "address",
          "name": "tokenAddress",
          "type": "address"
        },
        {
          "indexed": false,
          "internalType": "address",
          "name": "royaltyAddress",
          "type": "address"
        }
      ],
      "name": "RoyaltyOverride",
      "type": "event"
    },
    {
      "inputs": [],
      "name": "owner",
      "outputs": [
        {
          "internalType": "address",
          "name": "",
          "type": "address"
        }
      ],
      "stateMutability": "view",
      "type": "function"
    },
    {
      "inputs": [],
      "name": "renounceOwnership",
      "outputs": [],
      "stateMutability": "nonpayable",
      "type": "function"
    },
    {
      "inputs": [
        {
          "internalType": "address",
          "name": "newOwner",
          "type": "address"
        }
      ],
      "name": "transferOwnership",
      "outputs": [],
      "stateMutability": "nonpayable",
      "type": "function"
    },
    {
      "inputs": [],
      "name": "initialize",
      "outputs": [],
      "stateMutability": "nonpayable",
      "type": "function"
    },
    {
      "inputs": [
        {
          "internalType": "bytes4",
          "name": "interfaceId",
          "type": "bytes4"
        }
      ],
      "name": "supportsInterface",
      "outputs": [
        {
          "internalType": "bool",
          "name": "",
          "type": "bool"
        }
      ],
      "stateMutability": "view",
      "type": "function"
    },
    {
      "inputs": [
        {
          "internalType": "address",
          "name": "tokenAddress",
          "type": "address"
        }
      ],
      "name": "getRoyaltyLookupAddress",
      "outputs": [
        {
          "internalType": "address",
          "name": "",
          "type": "address"
        }
      ],
      "stateMutability": "view",
      "type": "function"
    },
    {
      "inputs": [
        {
          "internalType": "address",
          "name": "tokenAddress",
          "type": "address"
        },
        {
          "internalType": "address",
          "name": "royaltyLookupAddress",
          "type": "address"
        }
      ],
      "name": "setRoyaltyLookupAddress",
      "outputs": [],
      "stateMutability": "nonpayable",
      "type": "function"
    },
    {
      "inputs": [
        {
          "internalType": "address",
          "name": "tokenAddress",
          "type": "address"
        }
      ],
      "name": "overrideAllowed",
      "outputs": [
        {
          "internalType": "bool",
          "name": "",
          "type": "bool"
        }
      ],
      "stateMutability": "view",
      "type": "function"
    }
  ],
  "bytecode": "0x608060405234801561001057600080fd5b50610d0e806100206000396000f3fe608060405234801561001057600080fd5b50600436106100885760003560e01c80638129fc1c1161005b5780638129fc1c146100e55780638da5cb5b146100ed578063de5488af14610112578063f2fde38b1461012557600080fd5b806301ffc9a71461008d57806326bd8982146100b557806370e06281146100ca578063715018a6146100dd575b600080fd5b6100a061009b366004610bc9565b610138565b60405190151581526020015b60405180910390f35b6100c86100c3366004610c08565b61016f565b005b6100a06100d8366004610c41565b6102ab565b6100c86107ac565b6100c8610812565b6033546001600160a01b03165b6040516001600160a01b0390911681526020016100ac565b6100fa610120366004610c41565b6108d3565b6100c8610133366004610c41565b610903565b60006001600160e01b0319821663220258eb60e21b148061016957506301ffc9a760e01b6001600160e01b03198316145b92915050565b6001600160a01b0382163b151580156101a257506001600160a01b0381163b1515806101a257506001600160a01b038116155b6101e35760405162461bcd60e51b815260206004820152600d60248201526c125b9d985b1a59081a5b9c1d5d609a1b60448201526064015b60405180910390fd5b6101ec826102ab565b61022c5760405162461bcd60e51b815260206004820152601160248201527014195c9b5a5cdcda5bdb8819195b9a5959607a1b60448201526064016101da565b6001600160a01b03828116600090815260656020526040902080546001600160a01b0319169183169190911790557f22fb05840ad0d4b2be640c56e11065f26b799d2918d8f81190416f62b154b9c633604080516001600160a01b03928316815282861660208201529184169082015260600160405180910390a15050565b6033546000906001600160a01b03163314156102c957506001919050565b6102da82632a9f3abf60e11b6109cb565b801561035957506001600160a01b0382166324d7806c336040516001600160e01b031960e084901b1681526001600160a01b039091166004820152602401602060405180830381865afa158015610335573d6000803e3d6000fd5b505050506040513d601f19601f820116820180604052508101906103599190610c5e565b1561036657506001919050565b816001600160a01b0316638da5cb5b6040518163ffffffff1660e01b8152600401602060405180830381865afa9250505080156103c0575060408051601f3d908101601f191682019092526103bd91810190610c80565b60015b6103c9576103e5565b6001600160a01b0381163314156103e35750600192915050565b505b6001600160a01b0382166391d148546000336040516001600160e01b031960e085901b16815260048101929092526001600160a01b03166024820152604401602060405180830381865afa92505050801561045d575060408051601f3d908101601f1916820190925261045a91810190610c5e565b60015b61046657610477565b80156104755750600192915050565b505b816001600160a01b031663be772d4c6040518163ffffffff1660e01b8152600401602060405180830381865afa9250505080156104d1575060408051601f3d908101601f191682019092526104ce91810190610c80565b60015b6104da5761055c565b6001600160a01b03811663e37ce6fa336040516001600160e01b031960e084901b1681526001600160a01b039091166004820152602401602060405180830381865afa92505050801561054a575060408051601f3d908101601f1916820190925261054791810190610c5e565b60015b6105535761055a565b9392505050565b505b816001600160a01b031663f7a2da236040518163ffffffff1660e01b8152600401602060405180830381865afa9250505080156105b6575060408051601f3d908101601f191682019092526105b391810190610c80565b60015b6105bf57610635565b6001600160a01b0381166324d7806c336040516001600160e01b031960e084901b1681526001600160a01b039091166004820152602401602060405180830381865afa92505050801561062f575060408051601f3d908101601f1916820190925261062c91810190610c5e565b60015b61055357505b816001600160a01b031663748365ef6040518163ffffffff1660e01b8152600401602060405180830381865afa92505050801561068f575060408051601f3d908101601f1916820190925261068c91810190610c80565b60015b61069857610725565b6001600160a01b03811663c395fcb3336040516001600160e01b031960e084901b1681526001600160a01b039091166004820152602401602060405180830381865afa925050508015610708575060408051601f3d908101601f1916820190925261070591810190610c5e565b60015b61071157610723565b8015610721575060019392505050565b505b505b816001600160a01b031663f851a4406040518163ffffffff1660e01b8152600401602060405180830381865afa92505050801561077f575060408051601f3d908101601f1916820190925261077c91810190610c80565b60015b610788576107a4565b6001600160a01b0381163314156107a25750600192915050565b505b506000919050565b6033546001600160a01b031633146108065760405162461bcd60e51b815260206004820181905260248201527f4f776e61626c653a2063616c6c6572206973206e6f7420746865206f776e657260448201526064016101da565b61081060006109e7565b565b600054610100900460ff1661082d5760005460ff1615610831565b303b155b6108945760405162461bcd60e51b815260206004820152602e60248201527f496e697469616c697a61626c653a20636f6e747261637420697320616c72656160448201526d191e481a5b9a5d1a585b1a5e995960921b60648201526084016101da565b600054610100900460ff161580156108b6576000805461ffff19166101011790555b6108be610a39565b80156108d0576000805461ff00191690555b50565b6001600160a01b0380821660009081526065602052604081205490911680156108fc5792915050565b5090919050565b6033546001600160a01b0316331461095d5760405162461bcd60e51b815260206004820181905260248201527f4f776e61626c653a2063616c6c6572206973206e6f7420746865206f776e657260448201526064016101da565b6001600160a01b0381166109c25760405162461bcd60e51b815260206004820152602660248201527f4f776e61626c653a206e6577206f776e657220697320746865207a65726f206160448201526564647265737360d01b60648201526084016101da565b6108d0816109e7565b60006109d683610aad565b801561055357506105538383610ae0565b603380546001600160a01b038381166001600160a01b0319831681179093556040519116919082907f8be0079c531659141344cd1fd0a4f28419497f9722a3daafe3b4186f6b6457e090600090a35050565b600054610100900460ff16610aa45760405162461bcd60e51b815260206004820152602b60248201527f496e697469616c697a61626c653a20636f6e7472616374206973206e6f74206960448201526a6e697469616c697a696e6760a81b60648201526084016101da565b610810336109e7565b6000610ac0826301ffc9a760e01b610ae0565b80156101695750610ad9826001600160e01b0319610ae0565b1592915050565b604080516001600160e01b0319831660248083019190915282518083039091018152604490910182526020810180516001600160e01b03166301ffc9a760e01b179052905160009190829081906001600160a01b0387169061753090610b47908690610c9d565b6000604051808303818686fa925050503d8060008114610b83576040519150601f19603f3d011682016040523d82523d6000602084013e610b88565b606091505b5091509150602081511015610ba35760009350505050610169565b818015610bbf575080806020019051810190610bbf9190610c5e565b9695505050505050565b600060208284031215610bdb57600080fd5b81356001600160e01b03198116811461055357600080fd5b6001600160a01b03811681146108d057600080fd5b60008060408385031215610c1b57600080fd5b8235610c2681610bf3565b91506020830135610c3681610bf3565b809150509250929050565b600060208284031215610c5357600080fd5b813561055381610bf3565b600060208284031215610c7057600080fd5b8151801515811461055357600080fd5b600060208284031215610c9257600080fd5b815161055381610bf3565b6000825160005b81811015610cbe5760208186018101518583015201610ca4565b81811115610ccd576000828501525b50919091019291505056fea2646970667358221220a6f9ee0a2b644c687e64c6b4a62410782723c7852cce594a7625af0d12e65d0664736f6c634300080a0033",
  "immutableReferences": {},
  "source": "// SPDX-License-Identifier: MIT\n\npragma solidity ^0.8.0;\n\n/// @author: manifold.xyz\n\nimport \"@openzeppelin/contracts/utils/introspection/ERC165.sol\";\nimport \"@openzeppelin/contracts/utils/introspection/ERC165Checker.sol\";\nimport \"@openzeppelin/contracts-upgradeable/access/OwnableUpgradeable.sol\";\nimport \"@openzeppelin/contracts-upgradeable/access/IAccessControlUpgradeable.sol\";\nimport \"@openzeppelin/contracts-upgradeable/utils/AddressUpgradeable.sol\";\nimport \"@manifoldxyz/libraries-solidity/contracts/access/IAdminControl.sol\";\n\nimport \"./IRoyaltyRegistry.sol\";\nimport \"./specs/INiftyGateway.sol\";\nimport \"./specs/IFoundation.sol\";\nimport \"./specs/IDigitalax.sol\";\nimport \"./specs/IArtBlocks.sol\";\n\n/**\n * @dev Registry to lookup royalty configurations\n */\ncontract RoyaltyRegistry is ERC165, OwnableUpgradeable, IRoyaltyRegistry {\n    using AddressUpgradeable for address;\n\n    // Override addresses\n    mapping (address => address) private _overrides;\n\n    function initialize() public initializer {\n        __Ownable_init_unchained();\n    }\n\n    /**\n     * @dev See {IERC165-supportsInterface}.\n     */\n    function supportsInterface(bytes4 interfaceId) public view virtual override(ERC165, IERC165) returns (bool) {\n        return interfaceId == type(IRoyaltyRegistry).interfaceId || super.supportsInterface(interfaceId);\n    }\n\n    /**\n     * @dev See {IRegistry-getRoyaltyLookupAddress}.\n     */\n    function getRoyaltyLookupAddress(address tokenAddress) external view override returns(address) {\n        address override_ = _overrides[tokenAddress];\n        if (override_ != address(0)) return override_;\n        return tokenAddress;\n    }\n\n    /**\n     * @dev See {IRegistry-setRoyaltyLookupAddress}.\n     */\n    function setRoyaltyLookupAddress(address tokenAddress, address royaltyLookupAddress) public override {\n        require(tokenAddress.isContract() && (royaltyLookupAddress.isContract() || royaltyLookupAddress == address(0)), \"Invalid input\");\n        require(overrideAllowed(tokenAddress), \"Permission denied\");\n        _overrides[tokenAddress] = royaltyLookupAddress;\n        emit RoyaltyOverride(_msgSender(), tokenAddress, royaltyLookupAddress);\n    }\n\n    /**\n     * @dev See {IRegistry-overrideAllowed}.\n     */\n    function overrideAllowed(address tokenAddress) public view override returns(bool) {\n        if (owner() == _msgSender()) return true;\n\n        if (ERC165Checker.supportsInterface(tokenAddress, type(IAdminControl).interfaceId)\n            && IAdminControl(tokenAddress).isAdmin(_msgSender())) {\n            return true;\n        }\n\n        try OwnableUpgradeable(tokenAddress).owner() returns (address owner) {\n            if (owner == _msgSender()) return true;\n        } catch {}\n\n        try IAccessControlUpgradeable(tokenAddress).hasRole(0x00, _msgSender()) returns (bool hasRole) {\n            if (hasRole) return true;\n        } catch {}\n\n        // Nifty Gateway overrides\n        try INiftyBuilderInstance(tokenAddress).niftyRegistryContract() returns (address niftyRegistry) {\n            try INiftyRegistry(niftyRegistry).isValidNiftySender(_msgSender()) returns (bool valid) {\n                return valid;\n            } catch {}\n        } catch {}\n\n        // OpenSea overrides\n        // Tokens already support Ownable\n\n        // Foundation overrides\n        try IFoundationTreasuryNode(tokenAddress).getFoundationTreasury() returns (address payable foundationTreasury) {\n            try IFoundationTreasury(foundationTreasury).isAdmin(_msgSender()) returns (bool isAdmin) {\n                return isAdmin;\n            } catch {}\n        } catch {}\n\n        // DIGITALAX overrides\n        try IDigitalax(tokenAddress).accessControls() returns (address externalAccessControls){\n            try IDigitalaxAccessControls(externalAccessControls).hasAdminRole(_msgSender()) returns (bool hasRole) {\n                if (hasRole) return true;\n            } catch {}\n        } catch {}\n\n        // Art Blocks overrides\n        try IArtBlocks(tokenAddress).admin() returns (address admin) {\n            if (admin == _msgSender()) return true;\n        } catch {}\n\n        // Superrare overrides\n        // Tokens and registry already support Ownable\n\n        // Rarible overrides\n        // Tokens already support Ownable\n\n        return false;\n    }\n\n}\n",
  "sourcePath": "@manifoldxyz/royalty-registry-solidity/contracts/RoyaltyRegistry.sol",
  "compiler": {
    "name": "solc",
    "version": "0.8.10+commit.fc410830.Emscripten.clang"
  },
  "schemaVersion": "3.4.3",
  "updatedAt": "2022-04-04T20:24:36.926Z",
  "devdoc": {
    "details": "Registry to lookup royalty configurations",
    "kind": "dev",
    "methods": {
      "getRoyaltyLookupAddress(address)": {
        "details": "See {IRegistry-getRoyaltyLookupAddress}."
      },
      "overrideAllowed(address)": {
        "details": "See {IRegistry-overrideAllowed}."
      },
      "owner()": {
        "details": "Returns the address of the current owner."
      },
      "renounceOwnership()": {
        "details": "Leaves the contract without owner. It will not be possible to call `onlyOwner` functions anymore. Can only be called by the current owner. NOTE: Renouncing ownership will leave the contract without an owner, thereby removing any functionality that is only available to the owner."
      },
      "setRoyaltyLookupAddress(address,address)": {
        "details": "See {IRegistry-setRoyaltyLookupAddress}."
      },
      "supportsInterface(bytes4)": {
        "details": "See {IERC165-supportsInterface}."
      },
      "transferOwnership(address)": {
        "details": "Transfers ownership of the contract to a new account (`newOwner`). Can only be called by the current owner."
      }
    },
    "version": 1
  },
  "userdoc": {
    "kind": "user",
    "methods": {},
    "version": 1
  }
}