{
  "contractName": "RoyaltyEngineV1",
  "abi": [
    {
      "anonymous": false,
      "inputs": [
        {
          "indexed": true,
          "internalType": "address",
          "name": "previousOwner",
          "type": "address"
        },
        {
          "indexed": true,
          "internalType": "address",
          "name": "newOwner",
          "type": "address"
        }
      ],
      "name": "OwnershipTransferred",
      "type": "event"
    },
    {
      "inputs": [],
      "name": "owner",
      "outputs": [
        {
          "internalType": "address",
          "name": "",
          "type": "address"
        }
      ],
      "stateMutability": "view",
      "type": "function"
    },
    {
      "inputs": [],
      "name": "renounceOwnership",
      "outputs": [],
      "stateMutability": "nonpayable",
      "type": "function"
    },
    {
      "inputs": [],
      "name": "royaltyRegistry",
      "outputs": [
        {
          "internalType": "address",
          "name": "",
          "type": "address"
        }
      ],
      "stateMutability": "view",
      "type": "function"
    },
    {
      "inputs": [
        {
          "internalType": "address",
          "name": "newOwner",
          "type": "address"
        }
      ],
      "name": "transferOwnership",
      "outputs": [],
      "stateMutability": "nonpayable",
      "type": "function"
    },
    {
      "inputs": [
        {
          "internalType": "address",
          "name": "royaltyRegistry_",
          "type": "address"
        }
      ],
      "name": "initialize",
      "outputs": [],
      "stateMutability": "nonpayable",
      "type": "function"
    },
    {
      "inputs": [
        {
          "internalType": "bytes4",
          "name": "interfaceId",
          "type": "bytes4"
        }
      ],
      "name": "supportsInterface",
      "outputs": [
        {
          "internalType": "bool",
          "name": "",
          "type": "bool"
        }
      ],
      "stateMutability": "view",
      "type": "function"
    },
    {
      "inputs": [
        {
          "internalType": "address",
          "name": "tokenAddress",
          "type": "address"
        }
      ],
      "name": "invalidateCachedRoyaltySpec",
      "outputs": [],
      "stateMutability": "nonpayable",
      "type": "function"
    },
    {
      "inputs": [
        {
          "internalType": "address",
          "name": "tokenAddress",
          "type": "address"
        }
      ],
      "name": "getCachedRoyaltySpec",
      "outputs": [
        {
          "internalType": "int16",
          "name": "",
          "type": "int16"
        }
      ],
      "stateMutability": "view",
      "type": "function"
    },
    {
      "inputs": [
        {
          "internalType": "address",
          "name": "tokenAddress",
          "type": "address"
        },
        {
          "internalType": "uint256",
          "name": "tokenId",
          "type": "uint256"
        },
        {
          "internalType": "uint256",
          "name": "value",
          "type": "uint256"
        }
      ],
      "name": "getRoyalty",
      "outputs": [
        {
          "internalType": "address payable[]",
          "name": "recipients",
          "type": "address[]"
        },
        {
          "internalType": "uint256[]",
          "name": "amounts",
          "type": "uint256[]"
        }
      ],
      "stateMutability": "nonpayable",
      "type": "function"
    },
    {
      "inputs": [
        {
          "internalType": "address",
          "name": "tokenAddress",
          "type": "address"
        },
        {
          "internalType": "uint256",
          "name": "tokenId",
          "type": "uint256"
        },
        {
          "internalType": "uint256",
          "name": "value",
          "type": "uint256"
        }
      ],
      "name": "getRoyaltyView",
      "outputs": [
        {
          "internalType": "address payable[]",
          "name": "recipients",
          "type": "address[]"
        },
        {
          "internalType": "uint256[]",
          "name": "amounts",
          "type": "uint256[]"
        }
      ],
      "stateMutability": "view",
      "type": "function"
    },
    {
      "inputs": [
        {
          "internalType": "address",
          "name": "tokenAddress",
          "type": "address"
        },
        {
          "internalType": "uint256",
          "name": "tokenId",
          "type": "uint256"
        },
        {
          "internalType": "uint256",
          "name": "value",
          "type": "uint256"
        }
      ],
      "name": "_getRoyaltyAndSpec",
      "outputs": [
        {
          "internalType": "address payable[]",
          "name": "recipients",
          "type": "address[]"
        },
        {
          "internalType": "uint256[]",
          "name": "amounts",
          "type": "uint256[]"
        },
        {
          "internalType": "int16",
          "name": "spec",
          "type": "int16"
        },
        {
          "internalType": "address",
          "name": "royaltyAddress",
          "type": "address"
        },
        {
          "internalType": "bool",
          "name": "addToCache",
          "type": "bool"
        }
      ],
      "stateMutability": "view",
      "type": "function"
    }
  ],
  "bytecode": "0x608060405234801561001057600080fd5b5061221f806100206000396000f3fe608060405234801561001057600080fd5b50600436106100a95760003560e01c80637dec6f2e116100715780637dec6f2e1461014b5780638da5cb5b1461015e578063a11b071214610183578063c4d66de814610196578063f2fde38b146101a9578063f533b802146101bc57600080fd5b806301ffc9a7146100ae5780633e104014146100d657806371100f52146100f7578063715018a61461011b5780637488f12114610125575b600080fd5b6100c16100bc366004611afd565b6101cf565b60405190151581526020015b60405180910390f35b6100e96100e4366004611b3c565b610206565b6040516100cd929190611be5565b61010a610105366004611b3c565b6102b2565b6040516100cd959493929190611c13565b6101236113de565b005b610138610133366004611c64565b611444565b60405160019190910b81526020016100cd565b610123610159366004611c64565b6114d8565b6033546001600160a01b03165b6040516001600160a01b0390911681526020016100cd565b60665461016b906001600160a01b031681565b6101236101a4366004611c64565b61156b565b6101236101b7366004611c64565b611662565b6100e96101ca366004611b3c565b61172d565b60006001600160e01b03198216636591fc0b60e11b148061020057506301ffc9a760e01b6001600160e01b03198316145b92915050565b60405163388807a960e11b8152606090819030906371100f5290620186a09061023790899089908990600401611c81565b6000604051808303818786fa9350505050801561027657506040513d6000823e601f3d908101601f191682016040526102739190810190611e17565b60015b61029b5760405162461bcd60e51b815260040161029290611eb7565b60405180910390fd5b509294509092506102aa915050565b935093915050565b606080600080803330146102f65760405162461bcd60e51b815260206004820152600b60248201526a4f6e6c7920456e67696e6560a81b6044820152606401610292565b60665460405163de5488af60e01b81526001600160a01b038a811660048301529091169063de5488af90602401602060405180830381865afa158015610340573d6000803e3d6000fd5b505050506040513d601f19601f820116820180604052508101906103649190611ee7565b6001600160a01b03811660009081526065602052604081205460010b945090925083138015906103995750600019600184900b135b15610cc3575060016001600160a01b0388167341a322b28d0ff354040e2cbc676f0320d8c8850d14806103e857506001600160a01b03881673b932a70a57673d89f4acffbe830e8ed7f75fb9e0145b1561058f57604051632e17b5f960e21b81526001600160a01b0389166004820152602481018890527317b0c8564e53f22364a6c8de6f7ca5ce9bea4e5d9063b85ed7e490604401602060405180830381865afa925050508015610468575060408051601f3d908101601f1916820190925261046591810190611ee7565b60015b6104715761058f565b60405163860110f560e01b81527317b0c8564e53f22364a6c8de6f7ca5ce9bea4e5d9063860110f5906104ac908c908c908c90600401611c81565b602060405180830381865afa9250505080156104e5575060408051601f3d908101601f191682019092526104e291810190611f04565b60015b6104ee5761058d565b60408051600180825281830190925290602080830190803683375050604080516001808252818301909252929950905060208083019080368337019050509550818760008151811061054257610542611f1d565b60200260200101906001600160a01b031690816001600160a01b031681525050808660008151811061057657610576611f1d565b602090810291909101015250600693506113d39050565b505b60405163152a902d60e11b815260048101889052602481018790526001600160a01b03831690632a55205a906044016040805180830381865afa9250505080156105f6575060408051601f3d908101601f191682019092526105f391810190611f33565b60015b6105ff576106bd565b87811061061e5760405162461bcd60e51b815260040161029290611eb7565b60408051600180825281830190925290602080830190803683375050604080516001808252818301909252929950905060208083019080368337019050509550818760008151811061067257610672611f1d565b60200260200101906001600160a01b031690816001600160a01b03168152505080866000815181106106a6576106a6611f1d565b602090810291909101015250600593506113d39050565b604051635d9dd7eb60e11b8152600481018890526001600160a01b0383169063bb3bafd690602401600060405180830381865afa92505050801561072357506040513d6000823e601f3d908101601f191682016040526107209190810190611f61565b60015b61072c57610754565b805182511461073a57600080fd5b8161074589836117f4565b600196509650965050506113d3565b60405163656cb66560e11b8152600481018890526001600160a01b0383169063cad96cca90602401600060405180830381865afa9250505080156107ba57506040513d6000823e601f3d908101601f191682016040526107b79190810190611fc4565b60015b6107c35761096c565b80516001600160401b038111156107dc576107dc611ca2565b604051908082528060200260200182016040528015610805578160200160208202803683370190505b50955080516001600160401b0381111561082157610821611ca2565b60405190808252806020026020018201604052801561084a578160200160208202803683370190505b5094506000805b82518110156109405782818151811061086c5761086c611f1d565b60200260200101516000015188828151811061088a5761088a611f1d565b60200260200101906001600160a01b031690816001600160a01b0316815250506127108382815181106108bf576108bf611f1d565b6020026020010151602001516001600160601b03168a6108df91906120af565b6108e991906120ce565b8782815181106108fb576108fb611f1d565b60200260200101818152505086818151811061091957610919611f1d565b60200260200101518261092c91906120f0565b91508061093881612108565b915050610851565b508781106109605760405162461bcd60e51b815260040161029290611eb7565b50600393506113d39050565b60405163b9c4d9fb60e01b8152600481018890526001600160a01b0383169063b9c4d9fb90602401600060405180830381865afa9250505080156109d257506040513d6000823e601f3d908101601f191682016040526109cf9190810190612123565b60015b6109db57610ae4565b60405163b9c4d9fb60e01b8152600481018990526001600160a01b0384169063b9c4d9fb90602401600060405180830381865afa158015610a20573d6000803e3d6000fd5b505050506040513d6000823e601f3d908101601f19168201604052610a489190810190612123565b604051630ebd4c7f60e01b8152600481018a90529091506001600160a01b03841690630ebd4c7f90602401600060405180830381865afa925050508015610ab157506040513d6000823e601f3d908101601f19168201604052610aae919081019061215f565b60015b610aba57610ae2565b8051825114610ac857600080fd5b81610ad389836117f4565b600296509650965050506113d3565b505b6040516335681b5360e21b8152600481018890526001600160a01b0383169063d5a06d4c90602401600060405180830381865afa925050508015610b4a57506040513d6000823e601f3d908101601f19168201604052610b479190810190611f61565b60015b610b5357610b7b565b8051825114610b6157600080fd5b81610b6c89836117f4565b600496509650965050506113d3565b604051633d98881d60e21b81526001600160a01b0389811660048301526024820189905283169063f662207490604401600060405180830381865afa925050508015610be957506040513d6000823e601f3d908101601f19168201604052610be69190810190611f61565b60015b610bf257610c1a565b8051825114610c0057600080fd5b81610c0b89836117f4565b600796509650965050506113d3565b604051634e53ee3d60e11b81526001600160a01b03898116600483015260248201899052831690639ca7dc7a90604401600060405180830381865afa925050508015610c8857506040513d6000823e601f3d908101601f19168201604052610c859190810190611f61565b60015b610c9157610cb9565b8051825114610c9f57600080fd5b81610caa89836117f4565b600896509650965050506113d3565b60001992506113d3565b506000600183900b6000191415610cd9576113d3565b600183810b1415610d7e57604051635d9dd7eb60e11b8152600481018890526060906001600160a01b0384169063bb3bafd6906024015b600060405180830381865afa158015610d2d573d6000803e3d6000fd5b505050506040513d6000823e601f3d908101601f19168201604052610d559190810190611f61565b8051825192985090925014610d6957600080fd5b85610d7488836117f4565b95509550506113d3565b600183900b60031415610fa15760405163656cb66560e11b8152600481018890526060906001600160a01b0384169063cad96cca90602401600060405180830381865afa158015610dd3573d6000803e3d6000fd5b505050506040513d6000823e601f3d908101601f19168201604052610dfb9190810190611fc4565b905080516001600160401b03811115610e1657610e16611ca2565b604051908082528060200260200182016040528015610e3f578160200160208202803683370190505b50955080516001600160401b03811115610e5b57610e5b611ca2565b604051908082528060200260200182016040528015610e84578160200160208202803683370190505b5094506000805b8251811015610f7a57828181518110610ea657610ea6611f1d565b602002602001015160000151888281518110610ec457610ec4611f1d565b60200260200101906001600160a01b031690816001600160a01b031681525050612710838281518110610ef957610ef9611f1d565b6020026020010151602001516001600160601b03168a610f1991906120af565b610f2391906120ce565b878281518110610f3557610f35611f1d565b602002602001018181525050868181518110610f5357610f53611f1d565b602002602001015182610f6691906120f0565b915080610f7281612108565b915050610e8b565b50878110610f9a5760405162461bcd60e51b815260040161029290611eb7565b50506113d3565b600183900b6002141561109e5760405163b9c4d9fb60e01b8152600481018890526060906001600160a01b0384169063b9c4d9fb90602401600060405180830381865afa158015610ff6573d6000803e3d6000fd5b505050506040513d6000823e601f3d908101601f1916820160405261101e9190810190612123565b604051630ebd4c7f60e01b8152600481018a90529096506001600160a01b03841690630ebd4c7f90602401600060405180830381865afa158015611066573d6000803e3d6000fd5b505050506040513d6000823e601f3d908101601f1916820160405261108e919081019061215f565b90508051865114610d6957600080fd5b600183900b600414156110db576040516335681b5360e21b8152600481018890526060906001600160a01b0384169063d5a06d4c90602401610d10565b600183900b600514156112295760405163152a902d60e11b8152600481018890526024810187905260009081906001600160a01b03851690632a55205a906044016040805180830381865afa158015611138573d6000803e3d6000fd5b505050506040513d601f19601f8201168201806040525081019061115c9190611f33565b9150915087811061117f5760405162461bcd60e51b815260040161029290611eb7565b60015b6040519080825280602002602001820160405280156111ab578160200160208202803683370190505b506040805160018082528183019092529198506020808301908036833701905050955081876000815181106111e2576111e2611f1d565b60200260200101906001600160a01b031690816001600160a01b031681525050808660008151811061121657611216611f1d565b60200260200101818152505050506113d3565b600183900b6006141561134757604051632e17b5f960e21b81526001600160a01b0389166004820152602481018890526000907317b0c8564e53f22364a6c8de6f7ca5ce9bea4e5d9063b85ed7e490604401602060405180830381865afa158015611298573d6000803e3d6000fd5b505050506040513d601f19601f820116820180604052508101906112bc9190611ee7565b60405163860110f560e01b81529091506000907317b0c8564e53f22364a6c8de6f7ca5ce9bea4e5d9063860110f5906112fd908d908d908d90600401611c81565b602060405180830381865afa15801561131a573d6000803e3d6000fd5b505050506040513d601f19601f8201168201806040525081019061133e9190611f04565b90506001611182565b600183900b6007141561138d57604051633d98881d60e21b81526001600160a01b038981166004830152602482018990526060919084169063f662207490604401610d10565b600183900b600814156113d357604051634e53ee3d60e11b81526001600160a01b0389811660048301526024820189905260609190841690639ca7dc7a90604401610d10565b939792965093509350565b6033546001600160a01b031633146114385760405162461bcd60e51b815260206004820181905260248201527f4f776e61626c653a2063616c6c6572206973206e6f7420746865206f776e65726044820152606401610292565b61144260006118f8565b565b60665460405163de5488af60e01b81526001600160a01b038381166004830152600092839291169063de5488af90602401602060405180830381865afa158015611492573d6000803e3d6000fd5b505050506040513d601f19601f820116820180604052508101906114b69190611ee7565b6001600160a01b031660009081526065602052604090205460010b9392505050565b60665460405163de5488af60e01b81526001600160a01b038381166004830152600092169063de5488af90602401602060405180830381865afa158015611523573d6000803e3d6000fd5b505050506040513d601f19601f820116820180604052508101906115479190611ee7565b6001600160a01b03166000908152606560205260409020805461ffff191690555050565b600054610100900460ff166115865760005460ff161561158a565b303b155b6115ed5760405162461bcd60e51b815260206004820152602e60248201527f496e697469616c697a61626c653a20636f6e747261637420697320616c72656160448201526d191e481a5b9a5d1a585b1a5e995960921b6064820152608401610292565b600054610100900460ff1615801561160f576000805461ffff19166101011790555b61161761194a565b6116288263220258eb60e21b6119be565b61163157600080fd5b606680546001600160a01b0319166001600160a01b038416179055801561165e576000805461ff00191690555b5050565b6033546001600160a01b031633146116bc5760405162461bcd60e51b815260206004820181905260248201527f4f776e61626c653a2063616c6c6572206973206e6f7420746865206f776e65726044820152606401610292565b6001600160a01b0381166117215760405162461bcd60e51b815260206004820152602660248201527f4f776e61626c653a206e6577206f776e657220697320746865207a65726f206160448201526564647265737360d01b6064820152608401610292565b61172a816118f8565b50565b60405163388807a960e11b8152606090819030906371100f529061c3509061175d90899089908990600401611c81565b6000604051808303818786fa9350505050801561179c57506040513d6000823e601f3d908101601f191682016040526117999190810190611e17565b60015b6117b85760405162461bcd60e51b815260040161029290611eb7565b801561029b57506001600160a01b03166000908152606560205260409020805461ffff191661ffff9290921691909117905590925090506102aa565b606081516001600160401b0381111561180f5761180f611ca2565b604051908082528060200260200182016040528015611838578160200160208202803683370190505b5090506000805b83518110156118d15761271084828151811061185d5761185d611f1d565b60200260200101518661187091906120af565b61187a91906120ce565b83828151811061188c5761188c611f1d565b6020026020010181815250508281815181106118aa576118aa611f1d565b6020026020010151826118bd91906120f0565b9150806118c981612108565b91505061183f565b508381106118f15760405162461bcd60e51b815260040161029290611eb7565b5092915050565b603380546001600160a01b038381166001600160a01b0319831681179093556040519116919082907f8be0079c531659141344cd1fd0a4f28419497f9722a3daafe3b4186f6b6457e090600090a35050565b600054610100900460ff166119b55760405162461bcd60e51b815260206004820152602b60248201527f496e697469616c697a61626c653a20636f6e7472616374206973206e6f74206960448201526a6e697469616c697a696e6760a81b6064820152608401610292565b611442336118f8565b60006119c9836119e1565b80156119da57506119da8383611a14565b9392505050565b60006119f4826301ffc9a760e01b611a14565b80156102005750611a0d826001600160e01b0319611a14565b1592915050565b604080516001600160e01b0319831660248083019190915282518083039091018152604490910182526020810180516001600160e01b03166301ffc9a760e01b179052905160009190829081906001600160a01b0387169061753090611a7b908690612193565b6000604051808303818686fa925050503d8060008114611ab7576040519150601f19603f3d011682016040523d82523d6000602084013e611abc565b606091505b5091509150602081511015611ad75760009350505050610200565b818015611af3575080806020019051810190611af391906121ce565b9695505050505050565b600060208284031215611b0f57600080fd5b81356001600160e01b0319811681146119da57600080fd5b6001600160a01b038116811461172a57600080fd5b600080600060608486031215611b5157600080fd5b8335611b5c81611b27565b95602085013595506040909401359392505050565b600081518084526020808501945080840160005b83811015611baa5781516001600160a01b031687529582019590820190600101611b85565b509495945050505050565b600081518084526020808501945080840160005b83811015611baa57815187529582019590820190600101611bc9565b604081526000611bf86040830185611b71565b8281036020840152611c0a8185611bb5565b95945050505050565b60a081526000611c2660a0830188611b71565b8281036020840152611c388188611bb5565b60019690960b604084015250506001600160a01b03929092166060830152151560809091015292915050565b600060208284031215611c7657600080fd5b81356119da81611b27565b6001600160a01b039390931683526020830191909152604082015260600190565b634e487b7160e01b600052604160045260246000fd5b604080519081016001600160401b0381118282101715611cda57611cda611ca2565b60405290565b604051601f8201601f191681016001600160401b0381118282101715611d0857611d08611ca2565b604052919050565b60006001600160401b03821115611d2957611d29611ca2565b5060051b60200190565b600082601f830112611d4457600080fd5b81516020611d59611d5483611d10565b611ce0565b82815260059290921b84018101918181019086841115611d7857600080fd5b8286015b84811015611d9c578051611d8f81611b27565b8352918301918301611d7c565b509695505050505050565b600082601f830112611db857600080fd5b81516020611dc8611d5483611d10565b82815260059290921b84018101918181019086841115611de757600080fd5b8286015b84811015611d9c5780518352918301918301611deb565b80518015158114611e1257600080fd5b919050565b600080600080600060a08688031215611e2f57600080fd5b85516001600160401b0380821115611e4657600080fd5b611e5289838a01611d33565b96506020880151915080821115611e6857600080fd5b50611e7588828901611da7565b94505060408601518060010b8114611e8c57600080fd5b6060870151909350611e9d81611b27565b9150611eab60808701611e02565b90509295509295909350565b602080825260169082015275125b9d985b1a59081c9bde585b1d1e48185b5bdd5b9d60521b604082015260600190565b600060208284031215611ef957600080fd5b81516119da81611b27565b600060208284031215611f1657600080fd5b5051919050565b634e487b7160e01b600052603260045260246000fd5b60008060408385031215611f4657600080fd5b8251611f5181611b27565b6020939093015192949293505050565b60008060408385031215611f7457600080fd5b82516001600160401b0380821115611f8b57600080fd5b611f9786838701611d33565b93506020850151915080821115611fad57600080fd5b50611fba85828601611da7565b9150509250929050565b60006020808385031215611fd757600080fd5b82516001600160401b03811115611fed57600080fd5b8301601f81018513611ffe57600080fd5b805161200c611d5482611d10565b81815260069190911b8201830190838101908783111561202b57600080fd5b928401925b8284101561208e57604084890312156120495760008081fd5b612051611cb8565b845161205c81611b27565b8152848601516001600160601b03811681146120785760008081fd5b8187015282526040939093019290840190612030565b979650505050505050565b634e487b7160e01b600052601160045260246000fd5b60008160001904831182151516156120c9576120c9612099565b500290565b6000826120eb57634e487b7160e01b600052601260045260246000fd5b500490565b6000821982111561210357612103612099565b500190565b600060001982141561211c5761211c612099565b5060010190565b60006020828403121561213557600080fd5b81516001600160401b0381111561214b57600080fd5b61215784828501611d33565b949350505050565b60006020828403121561217157600080fd5b81516001600160401b0381111561218757600080fd5b61215784828501611da7565b6000825160005b818110156121b4576020818601810151858301520161219a565b818111156121c3576000828501525b509190910192915050565b6000602082840312156121e057600080fd5b6119da82611e0256fea26469706673582212202487283b5c97a8f55c21c015454f79ed934f770346c82f5262fff15c202c70d164736f6c634300080a0033",
  "immutableReferences": {},
  "source": "// SPDX-License-Identifier: MIT\n\npragma solidity ^0.8.0;\n\n/// @author: manifold.xyz\n\nimport \"@openzeppelin/contracts/utils/introspection/ERC165.sol\";\nimport \"@openzeppelin/contracts/utils/introspection/ERC165Checker.sol\";\nimport \"@openzeppelin/contracts-upgradeable/access/OwnableUpgradeable.sol\";\nimport \"@openzeppelin/contracts-upgradeable/utils/AddressUpgradeable.sol\";\n\nimport \"./libraries/SuperRareContracts.sol\";\n\nimport \"./specs/IManifold.sol\";\nimport \"./specs/IRarible.sol\";\nimport \"./specs/IFoundation.sol\";\nimport \"./specs/ISuperRare.sol\";\nimport \"./specs/IEIP2981.sol\";\nimport \"./specs/IZoraOverride.sol\";\nimport \"./specs/IArtBlocksOverride.sol\";\nimport \"./IRoyaltyEngineV1.sol\";\nimport \"./IRoyaltyRegistry.sol\";\n\n/**\n * @dev Engine to lookup royalty configurations\n */\ncontract RoyaltyEngineV1 is ERC165, OwnableUpgradeable, IRoyaltyEngineV1 {\n    using AddressUpgradeable for address;\n\n    // Use int16 for specs to support future spec additions\n    // When we add a spec, we also decrement the NONE value\n    // Anything > NONE and <= NOT_CONFIGURED is considered not configured\n    int16 constant private NONE = -1;\n    int16 constant private NOT_CONFIGURED = 0;\n    int16 constant private MANIFOLD = 1;\n    int16 constant private RARIBLEV1 = 2;\n    int16 constant private RARIBLEV2 = 3;\n    int16 constant private FOUNDATION = 4;\n    int16 constant private EIP2981 = 5;\n    int16 constant private SUPERRARE = 6;\n    int16 constant private ZORA = 7;\n    int16 constant private ARTBLOCKS = 8;\n\n    mapping (address => int16) _specCache;\n\n    address public royaltyRegistry;\n\n    function initialize(address royaltyRegistry_) public initializer {\n        __Ownable_init_unchained();\n        require(ERC165Checker.supportsInterface(royaltyRegistry_, type(IRoyaltyRegistry).interfaceId));\n        royaltyRegistry = royaltyRegistry_;\n    }\n\n    /**\n     * @dev See {IERC165-supportsInterface}.\n     */\n    function supportsInterface(bytes4 interfaceId) public view virtual override(ERC165, IERC165) returns (bool) {\n        return interfaceId == type(IRoyaltyEngineV1).interfaceId || super.supportsInterface(interfaceId);\n    }\n\n    /**\n     * @dev Invalidate the cached spec (useful for situations where tooken royalty implementation changes to a different spec)\n     */\n    function invalidateCachedRoyaltySpec(address tokenAddress) public {\n        address royaltyAddress = IRoyaltyRegistry(royaltyRegistry).getRoyaltyLookupAddress(tokenAddress);\n        delete _specCache[royaltyAddress];\n    }\n\n    /**\n     * @dev View function to get the cached spec of a token\n     */\n    function getCachedRoyaltySpec(address tokenAddress) public view returns(int16) {\n        address royaltyAddress = IRoyaltyRegistry(royaltyRegistry).getRoyaltyLookupAddress(tokenAddress);\n        return _specCache[royaltyAddress];    \n    }\n\n    /**\n     * @dev See {IRoyaltyEngineV1-getRoyalty}\n     */\n    function getRoyalty(address tokenAddress, uint256 tokenId, uint256 value) public override returns(address payable[] memory recipients, uint256[] memory amounts) {\n        // External call to limit gas \n        try this._getRoyaltyAndSpec{gas: 50000}(tokenAddress, tokenId, value) returns (address payable[] memory _recipients, uint256[] memory _amounts, int16 spec, address royaltyAddress, bool addToCache) {\n            if (addToCache) _specCache[royaltyAddress] = spec;\n            return (_recipients, _amounts);\n        } catch {\n            revert (\"Invalid royalty amount\");\n        }\n    }\n\n    /**\n     * @dev See {IRoyaltyEngineV1-getRoyaltyView}.\n     */\n    function getRoyaltyView(address tokenAddress, uint256 tokenId, uint256 value) public view override returns(address payable[] memory recipients, uint256[] memory amounts) {\n        // External call to limit gas \n        try this._getRoyaltyAndSpec{gas: 100000}(tokenAddress, tokenId, value) returns (address payable[] memory _recipients, uint256[] memory _amounts, int16, address, bool) {\n            return (_recipients, _amounts);\n        } catch {\n            revert (\"Invalid royalty amount\");\n        }\n    }\n\n    /**\n     * @dev Get the royalty and royalty spec for a given token\n     * \n     * returns recipieints array, amounts array, royalty spec, royalty address, whether or not to add to cache\n     */\n    function _getRoyaltyAndSpec(address tokenAddress, uint256 tokenId, uint256 value) external view returns(address payable[] memory recipients, uint256[] memory amounts, int16 spec, address royaltyAddress, bool addToCache) {\n        require(msg.sender == address(this), \"Only Engine\");\n\n        royaltyAddress = IRoyaltyRegistry(royaltyRegistry).getRoyaltyLookupAddress(tokenAddress);\n        spec = _specCache[royaltyAddress];\n\n        if (spec <= NOT_CONFIGURED && spec > NONE) {\n            // No spec configured yet, so we need to detect the spec\n            addToCache = true;\n\n            // SuperRare handling\n            if (tokenAddress == SuperRareContracts.SUPERRARE_V1 || tokenAddress == SuperRareContracts.SUPERRARE_V2) {\n                try ISuperRareRegistry(SuperRareContracts.SUPERRARE_REGISTRY).tokenCreator(tokenAddress, tokenId) returns(address payable creator) {\n                    try ISuperRareRegistry(SuperRareContracts.SUPERRARE_REGISTRY).calculateRoyaltyFee(tokenAddress, tokenId, value) returns(uint256 amount) {\n                        recipients = new address payable[](1);\n                        amounts = new uint256[](1);\n                        recipients[0] = creator;\n                        amounts[0] = amount;\n                        return (recipients, amounts, SUPERRARE, royaltyAddress, addToCache);                        \n                    } catch {}\n                } catch {}\n            }\n            try IEIP2981(royaltyAddress).royaltyInfo(tokenId, value) returns(address recipient, uint256 amount) {\n                // Supports EIP2981.  Return amounts\n                require(amount < value, \"Invalid royalty amount\");\n                recipients = new address payable[](1);\n                amounts = new uint256[](1);\n                recipients[0] = payable(recipient);\n                amounts[0] = amount;\n                return (recipients, amounts, EIP2981, royaltyAddress, addToCache);\n            } catch {}\n            try IManifold(royaltyAddress).getRoyalties(tokenId) returns(address payable[] memory recipients_, uint256[] memory bps) {\n                // Supports manifold interface.  Compute amounts\n                require(recipients_.length == bps.length);\n                return (recipients_, _computeAmounts(value, bps), MANIFOLD, royaltyAddress, addToCache);\n            } catch {}\n            try IRaribleV2(royaltyAddress).getRaribleV2Royalties(tokenId) returns(IRaribleV2.Part[] memory royalties) {\n                // Supports rarible v2 interface. Compute amounts\n                recipients = new address payable[](royalties.length);\n                amounts = new uint256[](royalties.length);\n                uint256 totalAmount;\n                for (uint i = 0; i < royalties.length; i++) {\n                    recipients[i] = royalties[i].account;\n                    amounts[i] = value*royalties[i].value/10000;\n                    totalAmount += amounts[i];\n                }\n                require(totalAmount < value, \"Invalid royalty amount\");\n                return (recipients, amounts, RARIBLEV2, royaltyAddress, addToCache);\n            } catch {}\n            try IRaribleV1(royaltyAddress).getFeeRecipients(tokenId) returns(address payable[] memory recipients_) {\n                // Supports rarible v1 interface. Compute amounts\n                recipients_ = IRaribleV1(royaltyAddress).getFeeRecipients(tokenId);\n                try IRaribleV1(royaltyAddress).getFeeBps(tokenId) returns (uint256[] memory bps) {\n                    require(recipients_.length == bps.length);\n                    return (recipients_, _computeAmounts(value, bps), RARIBLEV1, royaltyAddress, addToCache);\n                } catch {}\n            } catch {}\n            try IFoundation(royaltyAddress).getFees(tokenId) returns(address payable[] memory recipients_, uint256[] memory bps) {\n                // Supports foundation interface.  Compute amounts\n                require(recipients_.length == bps.length);\n                return (recipients_, _computeAmounts(value, bps), FOUNDATION, royaltyAddress, addToCache);\n            } catch {}\n            try IZoraOverride(royaltyAddress).convertBidShares(tokenAddress, tokenId) returns(address payable[] memory recipients_, uint256[] memory bps) {\n                // Support Zora override\n                require(recipients_.length == bps.length);\n                return (recipients_, _computeAmounts(value, bps), ZORA, royaltyAddress, addToCache);\n            } catch {}\n            try IArtBlocksOverride(royaltyAddress).getRoyalties(tokenAddress, tokenId) returns(address payable[] memory recipients_, uint256[] memory bps) {\n                // Support Art Blocks override\n                require(recipients_.length == bps.length);\n                return (recipients_, _computeAmounts(value, bps), ARTBLOCKS, royaltyAddress, addToCache);\n            } catch {}\n\n            // No supported royalties configured\n            return (recipients, amounts, NONE, royaltyAddress, addToCache);\n        } else {\n            // Spec exists, just execute the appropriate one\n            addToCache = false;\n            if (spec == NONE) {\n                return (recipients, amounts, spec, royaltyAddress, addToCache);\n            } else if (spec == MANIFOLD) {\n                // Manifold spec\n                uint256[] memory bps;\n                (recipients, bps) = IManifold(royaltyAddress).getRoyalties(tokenId);\n                require(recipients.length == bps.length);\n                return (recipients, _computeAmounts(value, bps), spec, royaltyAddress, addToCache);\n            } else if (spec == RARIBLEV2) {\n                // Rarible v2 spec\n                IRaribleV2.Part[] memory royalties;\n                royalties = IRaribleV2(royaltyAddress).getRaribleV2Royalties(tokenId);\n                recipients = new address payable[](royalties.length);\n                amounts = new uint256[](royalties.length);\n                uint256 totalAmount;\n                for (uint i = 0; i < royalties.length; i++) {\n                    recipients[i] = royalties[i].account;\n                    amounts[i] = value*royalties[i].value/10000;\n                    totalAmount += amounts[i];\n                }\n                require(totalAmount < value, \"Invalid royalty amount\");\n                return (recipients, amounts, spec, royaltyAddress, addToCache);\n            } else if (spec == RARIBLEV1) {\n                // Rarible v1 spec\n                uint256[] memory bps;\n                recipients = IRaribleV1(royaltyAddress).getFeeRecipients(tokenId);\n                bps = IRaribleV1(royaltyAddress).getFeeBps(tokenId);\n                require(recipients.length == bps.length);\n                return (recipients, _computeAmounts(value, bps), spec, royaltyAddress, addToCache);\n            } else if (spec == FOUNDATION) {\n                // Foundation spec\n                uint256[] memory bps;\n                (recipients, bps) = IFoundation(royaltyAddress).getFees(tokenId);\n                require(recipients.length == bps.length);\n                return (recipients, _computeAmounts(value, bps), spec, royaltyAddress, addToCache);\n            } else if (spec == EIP2981) {\n                // EIP2981 spec\n                (address recipient, uint256 amount) = IEIP2981(royaltyAddress).royaltyInfo(tokenId, value);\n                require(amount < value, \"Invalid royalty amount\");\n                recipients = new address payable[](1);\n                amounts = new uint256[](1);\n                recipients[0] = payable(recipient);\n                amounts[0] = amount;\n                return (recipients, amounts, spec, royaltyAddress, addToCache);\n            } else if (spec == SUPERRARE) {\n                // SUPERRARE spec\n                address payable creator = ISuperRareRegistry(SuperRareContracts.SUPERRARE_REGISTRY).tokenCreator(tokenAddress, tokenId);\n                uint256 amount = ISuperRareRegistry(SuperRareContracts.SUPERRARE_REGISTRY).calculateRoyaltyFee(tokenAddress, tokenId, value);\n                recipients = new address payable[](1);\n                amounts = new uint256[](1);\n                recipients[0] = creator;\n                amounts[0] = amount;\n                return (recipients, amounts, spec, royaltyAddress, addToCache);            \n            } else if (spec == ZORA) {\n                // Zora spec\n                uint256[] memory bps;\n                (recipients, bps) = IZoraOverride(royaltyAddress).convertBidShares(tokenAddress, tokenId);\n                require(recipients.length == bps.length);\n                return (recipients, _computeAmounts(value, bps), spec, royaltyAddress, addToCache);          \n            } else if (spec == ARTBLOCKS) {\n                // Art Blocks spec\n                uint256[] memory bps;\n                (recipients, bps) = IArtBlocksOverride(royaltyAddress).getRoyalties(tokenAddress, tokenId);\n                require(recipients.length == bps.length);\n                return (recipients, _computeAmounts(value, bps), spec, royaltyAddress, addToCache);\n            }\n        }\n    }\n\n    /**\n     * Compute royalty amounts\n     */\n    function _computeAmounts(uint256 value, uint256[] memory bps) private pure returns(uint256[] memory amounts) {\n        amounts = new uint256[](bps.length);\n        uint256 totalAmount;\n        for (uint i = 0; i < bps.length; i++) {\n            amounts[i] = value*bps[i]/10000;\n            totalAmount += amounts[i];\n        }\n        require(totalAmount < value, \"Invalid royalty amount\");\n        return amounts;\n    }\n\n\n}\n",
  "sourcePath": "@manifoldxyz/royalty-registry-solidity/contracts/RoyaltyEngineV1.sol",
  "compiler": {
    "name": "solc",
    "version": "0.8.10+commit.fc410830.Emscripten.clang"
  },
  "schemaVersion": "3.4.3",
  "updatedAt": "2022-04-04T14:37:19.981Z",
  "devdoc": {
    "details": "Engine to lookup royalty configurations",
    "kind": "dev",
    "methods": {
      "_getRoyaltyAndSpec(address,uint256,uint256)": {
        "details": "Get the royalty and royalty spec for a given token  returns recipieints array, amounts array, royalty spec, royalty address, whether or not to add to cache"
      },
      "getCachedRoyaltySpec(address)": {
        "details": "View function to get the cached spec of a token"
      },
      "getRoyalty(address,uint256,uint256)": {
        "details": "See {IRoyaltyEngineV1-getRoyalty}"
      },
      "getRoyaltyView(address,uint256,uint256)": {
        "details": "See {IRoyaltyEngineV1-getRoyaltyView}."
      },
      "invalidateCachedRoyaltySpec(address)": {
        "details": "Invalidate the cached spec (useful for situations where tooken royalty implementation changes to a different spec)"
      },
      "owner()": {
        "details": "Returns the address of the current owner."
      },
      "renounceOwnership()": {
        "details": "Leaves the contract without owner. It will not be possible to call `onlyOwner` functions anymore. Can only be called by the current owner. NOTE: Renouncing ownership will leave the contract without an owner, thereby removing any functionality that is only available to the owner."
      },
      "supportsInterface(bytes4)": {
        "details": "See {IERC165-supportsInterface}."
      },
      "transferOwnership(address)": {
        "details": "Transfers ownership of the contract to a new account (`newOwner`). Can only be called by the current owner."
      }
    },
    "version": 1
  },
  "userdoc": {
    "kind": "user",
    "methods": {},
    "version": 1
  }
}