{
  "contractName": "SimpleModule",
  "abi": [
    {
      "inputs": [],
      "name": "ok",
      "outputs": [
        {
          "internalType": "uint256",
          "name": "",
          "type": "uint256"
        }
      ],
      "stateMutability": "pure",
      "type": "function"
    }
  ],
  "bytecode": "0x6080604052348015600f57600080fd5b50607780601d6000396000f3fe6080604052348015600f57600080fd5b506004361060285760003560e01c8063d909b40314602d575b600080fd5b600160405190815260200160405180910390f3fea2646970667358221220d6258be7a0fd228a1095913dab7aad1b8a1adee18e1c7d822f113072b74ca46d64736f6c634300080a0033",
  "immutableReferences": {},
  "source": "// SPDX-License-Identifier: GPL-3.0\npragma solidity 0.8.10;\n\n/// @title SimpleModule\n/// @notice FOR TEST PURPOSES ONLY.\ncontract SimpleModule {\n    function ok() public pure returns (uint256) {\n        return 1;\n    }\n}\n",
  "sourcePath": "/Users/ds/Documents/rarible/scripts/contracts/asd/utils/modules/SimpleModule.sol",
  "compiler": {
    "name": "solc",
    "version": "0.8.10+commit.fc410830.Emscripten.clang"
  },
  "schemaVersion": "3.4.3",
  "updatedAt": "2022-04-04T14:37:20.093Z",
  "devdoc": {
    "kind": "dev",
    "methods": {},
    "title": "SimpleModule",
    "version": 1
  },
  "userdoc": {
    "kind": "user",
    "methods": {},
    "notice": "FOR TEST PURPOSES ONLY.",
    "version": 1
  }
}