{
  "contractName": "SuperRareContracts",
  "abi": [
    {
      "inputs": [],
      "name": "SUPERRARE_REGISTRY",
      "outputs": [
        {
          "internalType": "address",
          "name": "",
          "type": "address"
        }
      ],
      "stateMutability": "view",
      "type": "function"
    },
    {
      "inputs": [],
      "name": "SUPERRARE_V1",
      "outputs": [
        {
          "internalType": "address",
          "name": "",
          "type": "address"
        }
      ],
      "stateMutability": "view",
      "type": "function"
    },
    {
      "inputs": [],
      "name": "SUPERRARE_V2",
      "outputs": [
        {
          "internalType": "address",
          "name": "",
          "type": "address"
        }
      ],
      "stateMutability": "view",
      "type": "function"
    }
  ],
  "bytecode": "0x60ec610039600b82828239805160001a60731461002c57634e487b7160e01b600052600060045260246000fd5b30600052607381538281f3fe730000000000000000000000000000000000000000301460806040526004361060475760003560e01c806389f796ba14604c578063d2367823146082578063f19312ff14609c575b600080fd5b606673b932a70a57673d89f4acffbe830e8ed7f75fb9e081565b6040516001600160a01b03909116815260200160405180910390f35b60667317b0c8564e53f22364a6c8de6f7ca5ce9bea4e5d81565b60667341a322b28d0ff354040e2cbc676f0320d8c8850d8156fea2646970667358221220dfec26925aa60542e34831a9408023e056f7bb60c669981d3983c11709974e3564736f6c634300080a0033",
  "immutableReferences": {},
  "source": "// SPDX-License-Identifier: MIT\n\npragma solidity ^0.8.0;\n\nlibrary SuperRareContracts {\n    address public constant SUPERRARE_REGISTRY = 0x17B0C8564E53f22364A6C8de6F7ca5CE9BEa4e5D;\n    address public constant SUPERRARE_V1 = 0x41A322b28D0fF354040e2CbC676F0320d8c8850d;\n    address public constant SUPERRARE_V2 = 0xb932a70A57673d89f4acfFBE830E8ed7f75Fb9e0;\n\n}",
  "sourcePath": "@manifoldxyz/royalty-registry-solidity/contracts/libraries/SuperRareContracts.sol",
  "compiler": {
    "name": "solc",
    "version": "0.8.10+commit.fc410830.Emscripten.clang"
  },
  "schemaVersion": "3.4.3",
  "updatedAt": "2022-04-04T14:37:20.001Z",
  "devdoc": {
    "kind": "dev",
    "methods": {},
    "version": 1
  },
  "userdoc": {
    "kind": "user",
    "methods": {},
    "version": 1
  }
}