{
  "contractName": "TransferModule",
  "abi": [
    {
      "inputs": [
        {
          "internalType": "address",
          "name": "_erc20TransferHelper",
          "type": "address"
        },
        {
          "internalType": "address",
          "name": "_erc721TransferHelper",
          "type": "address"
        },
        {
          "internalType": "address",
          "name": "_erc1155TransferHelper",
          "type": "address"
        }
      ],
      "stateMutability": "nonpayable",
      "type": "constructor"
    },
    {
      "inputs": [
        {
          "internalType": "address",
          "name": "",
          "type": "address"
        },
        {
          "internalType": "address",
          "name": "",
          "type": "address"
        },
        {
          "internalType": "uint256[]",
          "name": "",
          "type": "uint256[]"
        },
        {
          "internalType": "uint256[]",
          "name": "",
          "type": "uint256[]"
        },
        {
          "internalType": "bytes",
          "name": "",
          "type": "bytes"
        }
      ],
      "name": "onERC1155BatchReceived",
      "outputs": [
        {
          "internalType": "bytes4",
          "name": "",
          "type": "bytes4"
        }
      ],
      "stateMutability": "nonpayable",
      "type": "function"
    },
    {
      "inputs": [
        {
          "internalType": "address",
          "name": "",
          "type": "address"
        },
        {
          "internalType": "address",
          "name": "",
          "type": "address"
        },
        {
          "internalType": "uint256",
          "name": "",
          "type": "uint256"
        },
        {
          "internalType": "uint256",
          "name": "",
          "type": "uint256"
        },
        {
          "internalType": "bytes",
          "name": "",
          "type": "bytes"
        }
      ],
      "name": "onERC1155Received",
      "outputs": [
        {
          "internalType": "bytes4",
          "name": "",
          "type": "bytes4"
        }
      ],
      "stateMutability": "nonpayable",
      "type": "function"
    },
    {
      "inputs": [
        {
          "internalType": "bytes4",
          "name": "interfaceId",
          "type": "bytes4"
        }
      ],
      "name": "supportsInterface",
      "outputs": [
        {
          "internalType": "bool",
          "name": "",
          "type": "bool"
        }
      ],
      "stateMutability": "view",
      "type": "function"
    },
    {
      "inputs": [
        {
          "internalType": "address",
          "name": "_tokenContract",
          "type": "address"
        },
        {
          "internalType": "address",
          "name": "_from",
          "type": "address"
        },
        {
          "internalType": "uint256",
          "name": "_amount",
          "type": "uint256"
        }
      ],
      "name": "depositERC20",
      "outputs": [],
      "stateMutability": "nonpayable",
      "type": "function"
    },
    {
      "inputs": [
        {
          "internalType": "address",
          "name": "_tokenContract",
          "type": "address"
        },
        {
          "internalType": "address",
          "name": "_from",
          "type": "address"
        },
        {
          "internalType": "uint256",
          "name": "_tokenId",
          "type": "uint256"
        }
      ],
      "name": "depositERC721",
      "outputs": [],
      "stateMutability": "nonpayable",
      "type": "function"
    },
    {
      "inputs": [
        {
          "internalType": "address",
          "name": "_tokenContract",
          "type": "address"
        },
        {
          "internalType": "address",
          "name": "_from",
          "type": "address"
        },
        {
          "internalType": "uint256",
          "name": "_tokenId",
          "type": "uint256"
        }
      ],
      "name": "safeDepositERC721",
      "outputs": [],
      "stateMutability": "nonpayable",
      "type": "function"
    },
    {
      "inputs": [
        {
          "internalType": "address",
          "name": "_tokenContract",
          "type": "address"
        },
        {
          "internalType": "address",
          "name": "_from",
          "type": "address"
        },
        {
          "internalType": "uint256",
          "name": "_tokenId",
          "type": "uint256"
        },
        {
          "internalType": "uint256",
          "name": "_amount",
          "type": "uint256"
        }
      ],
      "name": "safeDepositERC1155",
      "outputs": [],
      "stateMutability": "nonpayable",
      "type": "function"
    },
    {
      "inputs": [
        {
          "internalType": "address",
          "name": "_tokenContract",
          "type": "address"
        },
        {
          "internalType": "address",
          "name": "_from",
          "type": "address"
        },
        {
          "internalType": "uint256[]",
          "name": "_tokenIds",
          "type": "uint256[]"
        },
        {
          "internalType": "uint256[]",
          "name": "_amounts",
          "type": "uint256[]"
        }
      ],
      "name": "safeBatchDepositERC1155",
      "outputs": [],
      "stateMutability": "nonpayable",
      "type": "function"
    },
    {
      "inputs": [
        {
          "internalType": "address",
          "name": "_tokenContract",
          "type": "address"
        },
        {
          "internalType": "address",
          "name": "_to",
          "type": "address"
        },
        {
          "internalType": "uint256",
          "name": "_amount",
          "type": "uint256"
        }
      ],
      "name": "withdrawERC20",
      "outputs": [],
      "stateMutability": "nonpayable",
      "type": "function"
    },
    {
      "inputs": [
        {
          "internalType": "address",
          "name": "_tokenContract",
          "type": "address"
        },
        {
          "internalType": "address",
          "name": "_to",
          "type": "address"
        },
        {
          "internalType": "uint256",
          "name": "_tokenId",
          "type": "uint256"
        }
      ],
      "name": "withdrawERC721",
      "outputs": [],
      "stateMutability": "nonpayable",
      "type": "function"
    },
    {
      "inputs": [
        {
          "internalType": "address",
          "name": "_tokenContract",
          "type": "address"
        },
        {
          "internalType": "address",
          "name": "_to",
          "type": "address"
        },
        {
          "internalType": "uint256",
          "name": "_tokenId",
          "type": "uint256"
        }
      ],
      "name": "safeWithdrawERC721",
      "outputs": [],
      "stateMutability": "nonpayable",
      "type": "function"
    },
    {
      "inputs": [
        {
          "internalType": "address",
          "name": "_tokenContract",
          "type": "address"
        },
        {
          "internalType": "address",
          "name": "_to",
          "type": "address"
        },
        {
          "internalType": "uint256",
          "name": "_tokenId",
          "type": "uint256"
        },
        {
          "internalType": "uint256",
          "name": "_amount",
          "type": "uint256"
        }
      ],
      "name": "safeWithdrawERC1155",
      "outputs": [],
      "stateMutability": "nonpayable",
      "type": "function"
    },
    {
      "inputs": [
        {
          "internalType": "address",
          "name": "_tokenContract",
          "type": "address"
        },
        {
          "internalType": "address",
          "name": "_to",
          "type": "address"
        },
        {
          "internalType": "uint256[]",
          "name": "_tokenIds",
          "type": "uint256[]"
        },
        {
          "internalType": "uint256[]",
          "name": "_amounts",
          "type": "uint256[]"
        }
      ],
      "name": "safeBatchWithdrawERC1155",
      "outputs": [],
      "stateMutability": "nonpayable",
      "type": "function"
    }
  ],
  "bytecode": "0x608060405234801561001057600080fd5b50604051610a94380380610a9483398101604081905261002f9161008d565b600080546001600160a01b039485166001600160a01b0319918216179091556001805493851693821693909317909255600280549190931691161790556100d0565b80516001600160a01b038116811461008857600080fd5b919050565b6000806000606084860312156100a257600080fd5b6100ab84610071565b92506100b960208501610071565b91506100c760408501610071565b90509250925092565b6109b5806100df6000396000f3fe608060405234801561001057600080fd5b50600436106100cf5760003560e01c806350507f8b1161008c578063bc197c8111610066578063bc197c8114610196578063e988ad91146101ce578063f205e636146101e1578063f23a6e61146101f457600080fd5b806350507f8b1461015d5780635956ab87146101705780638737d9bc1461018357600080fd5b806301ffc9a7146100d45780630fd46e0d146100fc5780631cad5a4014610111578063331ded1a146101245780634025feb21461013757806344004cc11461014a575b600080fd5b6100e76100e23660046104dd565b610213565b60405190151581526020015b60405180910390f35b61010f61010a3660046105f1565b61024a565b005b61010f61011f366004610676565b6102ba565b61010f610132366004610676565b610327565b61010f610145366004610676565b61035d565b61010f610158366004610676565b610393565b61010f61016b3660046106b2565b6103c9565b61010f61017e3660046106b2565b610401565b61010f6101913660046105f1565b610439565b6101b56101a4366004610764565b63bc197c8160e01b95945050505050565b6040516001600160e01b031990911681526020016100f3565b61010f6101dc366004610676565b610471565b61010f6101ef366004610676565b6104a7565b6101b561020236600461080e565b63f23a6e6160e01b95945050505050565b60006001600160e01b03198216630271189760e51b148061024457506301ffc9a760e01b6001600160e01b03198316145b92915050565b600254604051637ee7f69b60e01b81526001600160a01b0390911690637ee7f69b9061028290879087903090889088906004016108ae565b600060405180830381600087803b15801561029c57600080fd5b505af11580156102b0573d6000803e3d6000fd5b5050505050505050565b60005460405163d9fc4b6160e01b81526001600160a01b039091169063d9fc4b61906102f0908690869030908790600401610912565b600060405180830381600087803b15801561030a57600080fd5b505af115801561031e573d6000803e3d6000fd5b50505050505050565b600154604051630aed65f560e11b81526001600160a01b03909116906315dacbea906102f0908690869030908790600401610912565b600154604051630aed65f560e11b81526001600160a01b03909116906315dacbea906102f0908690309087908790600401610912565b60005460405163d9fc4b6160e01b81526001600160a01b039091169063d9fc4b61906102f0908690309087908790600401610912565b60025460405163eb46c45b60e01b81526001600160a01b039091169063eb46c45b90610282908790879030908890889060040161093c565b60025460405163eb46c45b60e01b81526001600160a01b039091169063eb46c45b90610282908790309088908890889060040161093c565b600254604051637ee7f69b60e01b81526001600160a01b0390911690637ee7f69b9061028290879030908890889088906004016108ae565b60015460405163d9fc4b6160e01b81526001600160a01b039091169063d9fc4b61906102f0908690309087908790600401610912565b60015460405163d9fc4b6160e01b81526001600160a01b039091169063d9fc4b61906102f0908690869030908790600401610912565b6000602082840312156104ef57600080fd5b81356001600160e01b03198116811461050757600080fd5b9392505050565b80356001600160a01b038116811461052557600080fd5b919050565b634e487b7160e01b600052604160045260246000fd5b604051601f8201601f1916810167ffffffffffffffff811182821017156105695761056961052a565b604052919050565b600082601f83011261058257600080fd5b8135602067ffffffffffffffff82111561059e5761059e61052a565b8160051b6105ad828201610540565b92835284810182019282810190878511156105c757600080fd5b83870192505b848310156105e6578235825291830191908301906105cd565b979650505050505050565b6000806000806080858703121561060757600080fd5b6106108561050e565b935061061e6020860161050e565b9250604085013567ffffffffffffffff8082111561063b57600080fd5b61064788838901610571565b9350606087013591508082111561065d57600080fd5b5061066a87828801610571565b91505092959194509250565b60008060006060848603121561068b57600080fd5b6106948461050e565b92506106a26020850161050e565b9150604084013590509250925092565b600080600080608085870312156106c857600080fd5b6106d18561050e565b93506106df6020860161050e565b93969395505050506040820135916060013590565b600082601f83011261070557600080fd5b813567ffffffffffffffff81111561071f5761071f61052a565b610732601f8201601f1916602001610540565b81815284602083860101111561074757600080fd5b816020850160208301376000918101602001919091529392505050565b600080600080600060a0868803121561077c57600080fd5b6107858661050e565b94506107936020870161050e565b9350604086013567ffffffffffffffff808211156107b057600080fd5b6107bc89838a01610571565b945060608801359150808211156107d257600080fd5b6107de89838a01610571565b935060808801359150808211156107f457600080fd5b50610801888289016106f4565b9150509295509295909350565b600080600080600060a0868803121561082657600080fd5b61082f8661050e565b945061083d6020870161050e565b93506040860135925060608601359150608086013567ffffffffffffffff81111561086757600080fd5b610801888289016106f4565b600081518084526020808501945080840160005b838110156108a357815187529582019590820190600101610887565b509495945050505050565b6001600160a01b03868116825285811660208301528416604082015260c0606082018190526000906108e290830185610873565b82810360808401526108f48185610873565b83810360a09094019390935250506000815260200195945050505050565b6001600160a01b039485168152928416602084015292166040820152606081019190915260800190565b6001600160a01b03958616815293851660208501529190931660408301526060820192909252608081019190915260c060a0820181905260009082015260e0019056fea2646970667358221220fcea66b5c61c4edabfe568eeda645b80cb41b0c20f20fbf4ed12bb129fe5968064736f6c634300080a0033",
  "immutableReferences": {},
  "source": "// SPDX-License-Identifier: GPL-3.0\npragma solidity 0.8.10;\n\nimport {ERC1155Holder} from \"@openzeppelin/contracts/token/ERC1155/utils/ERC1155Holder.sol\";\nimport {ERC20TransferHelper} from \"../../../transferHelpers/ERC20TransferHelper.sol\";\nimport {ERC721TransferHelper} from \"../../../transferHelpers/ERC721TransferHelper.sol\";\nimport {ERC1155TransferHelper} from \"../../../transferHelpers/ERC1155TransferHelper.sol\";\n\n/// @title TransferModule\n/// @notice FOR TEST PURPOSES ONLY.\ncontract TransferModule is ERC1155Holder {\n    address erc20TransferHelper;\n    address erc721TransferHelper;\n    address erc1155TransferHelper;\n\n    constructor(\n        address _erc20TransferHelper,\n        address _erc721TransferHelper,\n        address _erc1155TransferHelper\n    ) {\n        erc20TransferHelper = _erc20TransferHelper;\n        erc721TransferHelper = _erc721TransferHelper;\n        erc1155TransferHelper = _erc1155TransferHelper;\n    }\n\n    function depositERC20(\n        address _tokenContract,\n        address _from,\n        uint256 _amount\n    ) public {\n        ERC20TransferHelper(erc20TransferHelper).safeTransferFrom(_tokenContract, _from, address(this), _amount);\n    }\n\n    function depositERC721(\n        address _tokenContract,\n        address _from,\n        uint256 _tokenId\n    ) public {\n        ERC721TransferHelper(erc721TransferHelper).transferFrom(_tokenContract, _from, address(this), _tokenId);\n    }\n\n    function safeDepositERC721(\n        address _tokenContract,\n        address _from,\n        uint256 _tokenId\n    ) public {\n        ERC721TransferHelper(erc721TransferHelper).safeTransferFrom(_tokenContract, _from, address(this), _tokenId);\n    }\n\n    function safeDepositERC1155(\n        address _tokenContract,\n        address _from,\n        uint256 _tokenId,\n        uint256 _amount\n    ) public {\n        ERC1155TransferHelper(erc1155TransferHelper).safeTransferFrom(\n            _tokenContract,\n            _from,\n            address(this),\n            _tokenId,\n            _amount,\n            \"\"\n        );\n    }\n\n    function safeBatchDepositERC1155(\n        address _tokenContract,\n        address _from,\n        uint256[] memory _tokenIds,\n        uint256[] memory _amounts\n    ) public {\n        ERC1155TransferHelper(erc1155TransferHelper).safeBatchTransferFrom(\n            _tokenContract,\n            _from,\n            address(this),\n            _tokenIds,\n            _amounts,\n            \"\"\n        );\n    }\n\n    function withdrawERC20(\n        address _tokenContract,\n        address _to,\n        uint256 _amount\n    ) public {\n        ERC20TransferHelper(erc20TransferHelper).safeTransferFrom(_tokenContract, address(this), _to, _amount);\n    }\n\n    function withdrawERC721(\n        address _tokenContract,\n        address _to,\n        uint256 _tokenId\n    ) public {\n        ERC721TransferHelper(erc721TransferHelper).transferFrom(_tokenContract, address(this), _to, _tokenId);\n    }\n\n    function safeWithdrawERC721(\n        address _tokenContract,\n        address _to,\n        uint256 _tokenId\n    ) public {\n        ERC721TransferHelper(erc721TransferHelper).safeTransferFrom(_tokenContract, address(this), _to, _tokenId);\n    }\n\n    function safeWithdrawERC1155(\n        address _tokenContract,\n        address _to,\n        uint256 _tokenId,\n        uint256 _amount\n    ) public {\n        ERC1155TransferHelper(erc1155TransferHelper).safeTransferFrom(\n            _tokenContract,\n            address(this),\n            _to,\n            _tokenId,\n            _amount,\n            \"\"\n        );\n    }\n\n    function safeBatchWithdrawERC1155(\n        address _tokenContract,\n        address _to,\n        uint256[] memory _tokenIds,\n        uint256[] memory _amounts\n    ) public {\n        ERC1155TransferHelper(erc1155TransferHelper).safeBatchTransferFrom(\n            _tokenContract,\n            address(this),\n            _to,\n            _tokenIds,\n            _amounts,\n            \"\"\n        );\n    }\n}\n",
  "sourcePath": "/Users/ds/Documents/rarible/scripts/contracts/asd/utils/modules/TransferModule.sol",
  "compiler": {
    "name": "solc",
    "version": "0.8.10+commit.fc410830.Emscripten.clang"
  },
  "schemaVersion": "3.4.3",
  "updatedAt": "2022-04-04T14:37:20.094Z",
  "devdoc": {
    "kind": "dev",
    "methods": {
      "supportsInterface(bytes4)": {
        "details": "See {IERC165-supportsInterface}."
      }
    },
    "title": "TransferModule",
    "version": 1
  },
  "userdoc": {
    "kind": "user",
    "methods": {},
    "notice": "FOR TEST PURPOSES ONLY.",
    "version": 1
  }
}