{
  "contractName": "X2Y2TestHelper",
  "abi": [
    {
      "inputs": [
        {
          "components": [
            {
              "internalType": "address",
              "name": "token",
              "type": "address"
            },
            {
              "internalType": "uint256",
              "name": "tokenId",
              "type": "uint256"
            }
          ],
          "internalType": "struct X2Y2TestHelper.Pair721[]",
          "name": "data",
          "type": "tuple[]"
        }
      ],
      "name": "encodeData",
      "outputs": [
        {
          "internalType": "bytes",
          "name": "",
          "type": "bytes"
        }
      ],
      "stateMutability": "pure",
      "type": "function"
    },
    {
      "inputs": [
        {
          "components": [
            {
              "internalType": "address",
              "name": "token",
              "type": "address"
            },
            {
              "internalType": "uint256",
              "name": "tokenId",
              "type": "uint256"
            },
            {
              "internalType": "uint256",
              "name": "amount",
              "type": "uint256"
            }
          ],
          "internalType": "struct X2Y2TestHelper.Pair1155[]",
          "name": "data",
          "type": "tuple[]"
        }
      ],
      "name": "encodeData1155",
      "outputs": [
        {
          "internalType": "bytes",
          "name": "",
          "type": "bytes"
        }
      ],
      "stateMutability": "pure",
      "type": "function"
    },
    {
      "inputs": [
        {
          "components": [
            {
              "internalType": "uint256",
              "name": "salt",
              "type": "uint256"
            },
            {
              "internalType": "address",
              "name": "user",
              "type": "address"
            },
            {
              "internalType": "uint256",
              "name": "network",
              "type": "uint256"
            },
            {
              "internalType": "uint256",
              "name": "intent",
              "type": "uint256"
            },
            {
              "internalType": "uint256",
              "name": "delegateType",
              "type": "uint256"
            },
            {
              "internalType": "uint256",
              "name": "deadline",
              "type": "uint256"
            },
            {
              "internalType": "address",
              "name": "currency",
              "type": "address"
            },
            {
              "internalType": "bytes",
              "name": "dataMask",
              "type": "bytes"
            },
            {
              "components": [
                {
                  "internalType": "uint256",
                  "name": "price",
                  "type": "uint256"
                },
                {
                  "internalType": "bytes",
                  "name": "data",
                  "type": "bytes"
                }
              ],
              "internalType": "struct X2Y2TestHelper.OrderItem[]",
              "name": "items",
              "type": "tuple[]"
            },
            {
              "internalType": "bytes32",
              "name": "r",
              "type": "bytes32"
            },
            {
              "internalType": "bytes32",
              "name": "s",
              "type": "bytes32"
            },
            {
              "internalType": "uint8",
              "name": "v",
              "type": "uint8"
            },
            {
              "internalType": "uint8",
              "name": "signVersion",
              "type": "uint8"
            }
          ],
          "internalType": "struct X2Y2TestHelper.Order",
          "name": "order",
          "type": "tuple"
        },
        {
          "components": [
            {
              "internalType": "uint256",
              "name": "price",
              "type": "uint256"
            },
            {
              "internalType": "bytes",
              "name": "data",
              "type": "bytes"
            }
          ],
          "internalType": "struct X2Y2TestHelper.OrderItem",
          "name": "item",
          "type": "tuple"
        }
      ],
      "name": "hashItem",
      "outputs": [
        {
          "internalType": "bytes32",
          "name": "",
          "type": "bytes32"
        }
      ],
      "stateMutability": "pure",
      "type": "function"
    }
  ],
  "bytecode": "0x608060405234801561001057600080fd5b506106ab806100206000396000f3fe608060405234801561001057600080fd5b50600436106100415760003560e01c806332b2f29514610046578063558cbeab1461006f578063d7892e2e14610082575b600080fd5b61005961005436600461031c565b6100a2565b60405161006691906105b4565b60405180910390f35b61005961007d3660046102ac565b6100ce565b61009561009036600461037a565b6100e3565b60405161006691906105ab565b606082826040516020016100b7929190610561565b604051602081830303815290604052905092915050565b606082826040516020016100b792919061050d565b81516020808401516040808601516060870151608088015160a089015160c08a015160e08b0151955160009961011f99909897918c91016105ce565b60405160208183030381529060405280519060200120905092915050565b80356001600160a01b038116811461015457600080fd5b919050565b600082601f830112610169578081fd5b8135602067ffffffffffffffff82111561017f57fe5b61018c8182840201610651565b82815281810190858301855b858110156101c1576101af898684358b0101610233565b84529284019290840190600101610198565b5090979650505050505050565b600082601f8301126101de578081fd5b813567ffffffffffffffff8111156101f257fe5b610205601f8201601f1916602001610651565b818152846020838601011115610219578283fd5b816020850160208301379081016020019190915292915050565b600060408284031215610244578081fd5b6040516040810167ffffffffffffffff828210818311171561026257fe5b8160405282935084358352602085013591508082111561028157600080fd5b5061028e858286016101ce565b6020830152505092915050565b803560ff8116811461015457600080fd5b600080602083850312156102be578182fd5b823567ffffffffffffffff808211156102d5578384fd5b818501915085601f8301126102e8578384fd5b8135818111156102f6578485fd5b86602060608302850101111561030a578485fd5b60209290920196919550909350505050565b6000806020838503121561032e578182fd5b823567ffffffffffffffff80821115610345578384fd5b818501915085601f830112610358578384fd5b813581811115610366578485fd5b86602060408302850101111561030a578485fd5b6000806040838503121561038c578182fd5b823567ffffffffffffffff808211156103a3578384fd5b81850191506101a08083880312156103b9578485fd5b6103c281610651565b9050823581526103d46020840161013d565b602082015260408301356040820152606083013560608201526080830135608082015260a083013560a082015261040d60c0840161013d565b60c082015260e083013582811115610423578586fd5b61042f888286016101ce565b60e0830152506101008084013583811115610448578687fd5b61045489828701610159565b82840152505061012080840135818301525061014080840135818301525061016061048081850161029b565b9082015261018061049284820161029b565b90820152935060208501359150808211156104ab578283fd5b506104b885828601610233565b9150509250929050565b60008151808452815b818110156104e7576020818501810151868301820152016104cb565b818111156104f85782602083870101525b50601f01601f19169290920160200192915050565b6020808252818101839052600090604080840186845b878110156101c1576001600160a01b0361053c8361013d565b1683528185013585840152838201358484015260609283019290910190600101610523565b6020808252818101839052600090604080840186845b878110156101c1576001600160a01b036105908361013d565b16835281850135858401529183019190830190600101610577565b90815260200190565b6000602082526105c760208301846104c2565b9392505050565b60006101208b835260018060a01b03808c1660208501528a60408501528960608501528860808501528760a085015280871660c0850152508060e0840152610618818401866104c2565b90508281036101008401528351815260208401516040602083015261064060408301826104c2565b9d9c50505050505050505050505050565b60405181810167ffffffffffffffff8111828210171561066d57fe5b60405291905056fea264697066735822122053a4ae40122d1f53f328bf2c27446eb9507715866676102c2cc56bd5b0f112c664736f6c63430007060033",
  "immutableReferences": {},
  "source": "// SPDX-License-Identifier: MIT\n\npragma solidity 0.7.6;\npragma abicoder v2;\n\ncontract X2Y2TestHelper {\n\n    struct Pair721 {\n        address token;\n        uint256 tokenId;\n    }\n\n    struct Pair1155 {\n        address token;\n        uint256 tokenId;\n        uint256 amount;\n    }\n\n    struct OrderItem {\n        uint256 price;\n        bytes data;\n    }\n\n    struct Order {\n        uint256 salt;\n        address user;\n        uint256 network;\n        uint256 intent;\n        uint256 delegateType;\n        uint256 deadline;\n        address currency;\n        bytes dataMask;\n        OrderItem[] items;\n        // signature\n        bytes32 r;\n        bytes32 s;\n        uint8 v;\n        uint8 signVersion;\n    }\n\n\n    function encodeData(Pair721[] calldata data) external pure returns(bytes memory){\n        return abi.encode(data);\n    }\n\n    function encodeData1155(Pair1155[] calldata data) external pure returns(bytes memory){\n        return abi.encode(data);\n    }\n\n    function hashItem(Order memory order, OrderItem memory item)\n        external\n        pure\n        returns (bytes32)\n    {\n        return\n            keccak256(\n                abi.encode(\n                    order.salt,\n                    order.user,\n                    order.network,\n                    order.intent,\n                    order.delegateType,\n                    order.deadline,\n                    order.currency,\n                    order.dataMask,\n                    item\n                )\n            );\n    }\n\n    \n}\n",
  "sourcePath": "/Users/gonzaotc/developer/github/rarible/protocol-contracts/projects/gas-usage-tests/test/contracts/X2Y2TestHelper.sol",
  "compiler": {
    "name": "solc",
    "version": "0.7.6+commit.7338295f.Emscripten.clang"
  },
  "schemaVersion": "3.4.16",
  "updatedAt": "2024-07-10T16:25:10.943Z",
  "devdoc": {
    "kind": "dev",
    "methods": {},
    "version": 1
  },
  "userdoc": {
    "kind": "user",
    "methods": {},
    "version": 1
  }
}