{
  "contractName": "ZoraModuleManager",
  "abi": [
    {
      "inputs": [
        {
          "internalType": "address",
          "name": "_registrar",
          "type": "address"
        },
        {
          "internalType": "address",
          "name": "_feeToken",
          "type": "address"
        }
      ],
      "stateMutability": "nonpayable",
      "type": "constructor"
    },
    {
      "anonymous": false,
      "inputs": [
        {
          "indexed": true,
          "internalType": "address",
          "name": "user",
          "type": "address"
        },
        {
          "indexed": true,
          "internalType": "address",
          "name": "module",
          "type": "address"
        },
        {
          "indexed": false,
          "internalType": "bool",
          "name": "approved",
          "type": "bool"
        }
      ],
      "name": "ModuleApprovalSet",
      "type": "event"
    },
    {
      "anonymous": false,
      "inputs": [
        {
          "indexed": true,
          "internalType": "address",
          "name": "module",
          "type": "address"
        }
      ],
      "name": "ModuleRegistered",
      "type": "event"
    },
    {
      "anonymous": false,
      "inputs": [
        {
          "indexed": true,
          "internalType": "address",
          "name": "newRegistrar",
          "type": "address"
        }
      ],
      "name": "RegistrarChanged",
      "type": "event"
    },
    {
      "inputs": [],
      "name": "moduleFeeToken",
      "outputs": [
        {
          "internalType": "contract ZoraProtocolFeeSettings",
          "name": "",
          "type": "address"
        }
      ],
      "stateMutability": "view",
      "type": "function"
    },
    {
      "inputs": [
        {
          "internalType": "address",
          "name": "",
          "type": "address"
        }
      ],
      "name": "moduleRegistered",
      "outputs": [
        {
          "internalType": "bool",
          "name": "",
          "type": "bool"
        }
      ],
      "stateMutability": "view",
      "type": "function"
    },
    {
      "inputs": [],
      "name": "registrar",
      "outputs": [
        {
          "internalType": "address",
          "name": "",
          "type": "address"
        }
      ],
      "stateMutability": "view",
      "type": "function"
    },
    {
      "inputs": [
        {
          "internalType": "address",
          "name": "",
          "type": "address"
        }
      ],
      "name": "sigNonces",
      "outputs": [
        {
          "internalType": "uint256",
          "name": "",
          "type": "uint256"
        }
      ],
      "stateMutability": "view",
      "type": "function"
    },
    {
      "inputs": [
        {
          "internalType": "address",
          "name": "",
          "type": "address"
        },
        {
          "internalType": "address",
          "name": "",
          "type": "address"
        }
      ],
      "name": "userApprovals",
      "outputs": [
        {
          "internalType": "bool",
          "name": "",
          "type": "bool"
        }
      ],
      "stateMutability": "view",
      "type": "function"
    },
    {
      "inputs": [
        {
          "internalType": "address",
          "name": "_user",
          "type": "address"
        },
        {
          "internalType": "address",
          "name": "_module",
          "type": "address"
        }
      ],
      "name": "isModuleApproved",
      "outputs": [
        {
          "internalType": "bool",
          "name": "",
          "type": "bool"
        }
      ],
      "stateMutability": "view",
      "type": "function"
    },
    {
      "inputs": [
        {
          "internalType": "address",
          "name": "_module",
          "type": "address"
        },
        {
          "internalType": "bool",
          "name": "_approved",
          "type": "bool"
        }
      ],
      "name": "setApprovalForModule",
      "outputs": [],
      "stateMutability": "nonpayable",
      "type": "function"
    },
    {
      "inputs": [
        {
          "internalType": "address[]",
          "name": "_modules",
          "type": "address[]"
        },
        {
          "internalType": "bool",
          "name": "_approved",
          "type": "bool"
        }
      ],
      "name": "setBatchApprovalForModules",
      "outputs": [],
      "stateMutability": "nonpayable",
      "type": "function"
    },
    {
      "inputs": [
        {
          "internalType": "address",
          "name": "_module",
          "type": "address"
        },
        {
          "internalType": "address",
          "name": "_user",
          "type": "address"
        },
        {
          "internalType": "bool",
          "name": "_approved",
          "type": "bool"
        },
        {
          "internalType": "uint256",
          "name": "_deadline",
          "type": "uint256"
        },
        {
          "internalType": "uint8",
          "name": "_v",
          "type": "uint8"
        },
        {
          "internalType": "bytes32",
          "name": "_r",
          "type": "bytes32"
        },
        {
          "internalType": "bytes32",
          "name": "_s",
          "type": "bytes32"
        }
      ],
      "name": "setApprovalForModuleBySig",
      "outputs": [],
      "stateMutability": "nonpayable",
      "type": "function"
    },
    {
      "inputs": [
        {
          "internalType": "address",
          "name": "_module",
          "type": "address"
        }
      ],
      "name": "registerModule",
      "outputs": [],
      "stateMutability": "nonpayable",
      "type": "function"
    },
    {
      "inputs": [
        {
          "internalType": "address",
          "name": "_registrar",
          "type": "address"
        }
      ],
      "name": "setRegistrar",
      "outputs": [],
      "stateMutability": "nonpayable",
      "type": "function"
    }
  ],
  "bytecode": "0x600460c052635a4f524160e01b60e052600161010052603360f81b610120527f8b73c3c69bb8fe3d512ecc4cf759cc79239f7b179b0ffacaa9a75d522b39400f6101609081527fce58904c16226b928edd08e5ee91745b8b749acafb24ab016c32bb2f06593481610180527f2a80e1ef1d7842f27f2e6be0972bb708b9a135c38860dbe73c27c3486c34f4de6101a052466101c052306101e05260a061014081905261020060405290206080523480156100b857600080fd5b50604051610d1e380380610d1e8339810160408190526100d791610186565b6001600160a01b0382166101455760405162461bcd60e51b815260206004820152602b60248201527f5a4d4d3a3a6d757374207365742072656769737472617220746f206e6f6e2d7a60448201526a65726f206164647265737360a81b606482015260840160405180910390fd5b600080546001600160a01b0319166001600160a01b039384161790551660a0526101b9565b80516001600160a01b038116811461018157600080fd5b919050565b6000806040838503121561019957600080fd5b6101a28361016a565b91506101b06020840161016a565b90509250929050565b60805160a051610b396101e56000396000818161018501526105aa015260006102d20152610b396000f3fe608060405234801561001057600080fd5b50600436106100a95760003560e01c80639e4a400c116100715780639e4a400c14610180578063ad64ae4b146101a7578063bcb11ad3146101ba578063f990ccd7146101cd578063faab9d39146101fb578063fbef5f521461020e57600080fd5b8063152c1b5b146100ae5780631be50153146100c35780632b20e3971461010657806337436c98146101315780639dbb83a71461016d575b600080fd5b6100c16100bc366004610881565b610231565b005b6100f16100d13660046108b4565b600160209081526000928352604080842090915290825290205460ff1681565b60405190151581526020015b60405180910390f35b600054610119906001600160a01b031681565b6040516001600160a01b0390911681526020016100fd565b6100f161013f3660046108b4565b6001600160a01b03918216600090815260016020908152604080832093909416825291909152205460ff1690565b6100c161017b3660046108de565b610240565b6101197f000000000000000000000000000000000000000000000000000000000000000081565b6100c16101b5366004610958565b6104bc565b6100c16101c8366004610990565b610651565b6101ed6101db366004610958565b60036020526000908152604090205481565b6040519081526020016100fd565b6100c1610209366004610958565b610690565b6100f161021c366004610958565b60026020526000908152604090205460ff1681565b61023c82338361077e565b5050565b83158061024d5750428410155b6102b65760405162461bcd60e51b815260206004820152602f60248201527f5a4d4d3a3a736574417070726f76616c466f724d6f64756c654279536967206460448201526e1958591b1a5b9948195e1c1a5c9959608a1b60648201526084015b60405180910390fd5b6001600160a01b038616600090815260036020526040812080547f0000000000000000000000000000000000000000000000000000000000000000917f8413132cc7aa5bd2ce1a1b142a3f09e2baeda86addf4f9a5dacd4679f56e7cec918b918b918b918b91908861032783610a67565b909155506040805160208101979097526001600160a01b03958616908701529390921660608501521515608084015260a083015260c082015260e001604051602081830303815290604052805190602001206040516020016103a092919061190160f01b81526002810192909252602282015260420190565b60408051601f198184030181528282528051602091820120600080855291840180845281905260ff88169284019290925260608301869052608083018590529092509060019060a0016020604051602081039080840390855afa15801561040b573d6000803e3d6000fd5b5050604051601f1901519150506001600160a01b038116158015906104415750876001600160a01b0316816001600160a01b0316145b6104a65760405162461bcd60e51b815260206004820152603060248201527f5a4d4d3a3a736574417070726f76616c466f724d6f64756c654279536967206960448201526f6e76616c6964207369676e617475726560801b60648201526084016102ad565b6104b189898961077e565b505050505050505050565b6000546001600160a01b031633146104e65760405162461bcd60e51b81526004016102ad90610a90565b6001600160a01b03811660009081526002602052604090205460ff16156105655760405162461bcd60e51b815260206004820152602d60248201527f5a4d4d3a3a72656769737465724d6f64756c65206d6f64756c6520616c72656160448201526c191e481c9959da5cdd195c9959609a1b60648201526084016102ad565b6001600160a01b03818116600081815260026020526040808220805460ff191660011790559054905163ee1fe2ad60e01b8152908316600482015260248101919091527f00000000000000000000000000000000000000000000000000000000000000009091169063ee1fe2ad906044016020604051808303816000875af11580156105f5573d6000803e3d6000fd5b505050506040513d601f19601f820116820180604052508101906106199190610ad4565b506040516001600160a01b038216907f0961fbae397458c42f3f186eaabee4a989aafde93ac5d8d122cff462423a241e90600090a250565b815160005b8181101561068a5761068284828151811061067357610673610aed565b6020026020010151338561077e565b600101610656565b50505050565b6000546001600160a01b031633146106ba5760405162461bcd60e51b81526004016102ad90610a90565b6001600160a01b0381166107365760405162461bcd60e51b815260206004820152603860248201527f5a4d4d3a3a736574526567697374726172206d7573742073657420726567697360448201527f7472617220746f206e6f6e2d7a65726f2061646472657373000000000000000060648201526084016102ad565b600080546001600160a01b0319166001600160a01b038316908117825560405190917f6e4c52923c1e70447ecc72995ce26bf2400d9c26b1a7c21ab433e7caff8d40a291a250565b6001600160a01b03831660009081526002602052604090205460ff166107e65760405162461bcd60e51b815260206004820152601e60248201527f5a4d4d3a3a6d7573742062652072656769737465726564206d6f64756c65000060448201526064016102ad565b6001600160a01b03828116600090815260016020908152604080832093871680845293825291829020805460ff1916851515908117909155915191825233917fae7dcf035464e268e998bd5ac0ac831ce45a68f2c2fbd438d6c1c5965eba79f2910160405180910390a3505050565b80356001600160a01b038116811461086c57600080fd5b919050565b8035801515811461086c57600080fd5b6000806040838503121561089457600080fd5b61089d83610855565b91506108ab60208401610871565b90509250929050565b600080604083850312156108c757600080fd5b6108d083610855565b91506108ab60208401610855565b600080600080600080600060e0888a0312156108f957600080fd5b61090288610855565b965061091060208901610855565b955061091e60408901610871565b945060608801359350608088013560ff8116811461093b57600080fd5b9699959850939692959460a0840135945060c09093013592915050565b60006020828403121561096a57600080fd5b61097382610855565b9392505050565b634e487b7160e01b600052604160045260246000fd5b600080604083850312156109a357600080fd5b823567ffffffffffffffff808211156109bb57600080fd5b818501915085601f8301126109cf57600080fd5b81356020828211156109e3576109e361097a565b8160051b604051601f19603f83011681018181108682111715610a0857610a0861097a565b604052928352818301935084810182019289841115610a2657600080fd5b948201945b83861015610a4b57610a3c86610855565b85529482019493820193610a2b565b9650610a5a9050878201610871565b9450505050509250929050565b6000600019821415610a8957634e487b7160e01b600052601160045260246000fd5b5060010190565b60208082526024908201527f5a4d4d3a3a6f6e6c79526567697374726172206d7573742062652072656769736040820152633a3930b960e11b606082015260800190565b600060208284031215610ae657600080fd5b5051919050565b634e487b7160e01b600052603260045260246000fdfea2646970667358221220234159956706b89bfa7a32ece0d728439b4a3a142347ae247ba764ec14ac9c8064736f6c634300080a0033",
  "immutableReferences": {
    "6365": [
      {
        "length": 32,
        "start": 722
      }
    ],
    "6369": [
      {
        "length": 32,
        "start": 389
      },
      {
        "length": 32,
        "start": 1450
      }
    ]
  },
  "source": "// SPDX-License-Identifier: GPL-3.0\npragma solidity 0.8.10;\n\nimport {ZoraProtocolFeeSettings} from \"./auxiliary/ZoraProtocolFeeSettings/ZoraProtocolFeeSettings.sol\";\n\n/// @title ZoraModuleManager\n/// @author tbtstl <t@zora.co>\n/// @notice This contract allows users to approve registered modules on ZORA V3\ncontract ZoraModuleManager {\n    /// @notice The EIP-712 type for a signed approval\n    /// @dev keccak256(\"SignedApproval(address module,address user,bool approved,uint256 deadline,uint256 nonce)\")\n    bytes32 private constant SIGNED_APPROVAL_TYPEHASH = 0x8413132cc7aa5bd2ce1a1b142a3f09e2baeda86addf4f9a5dacd4679f56e7cec;\n\n    /// @notice The EIP-712 domain separator\n    bytes32 private immutable EIP_712_DOMAIN_SEPARATOR =\n        keccak256(\n            abi.encode(\n                keccak256(\"EIP712Domain(string name,string version,uint256 chainId,address verifyingContract)\"),\n                keccak256(bytes(\"ZORA\")),\n                keccak256(bytes(\"3\")),\n                _chainID(),\n                address(this)\n            )\n        );\n\n    /// @notice The module fee NFT contract to mint from upon module registration\n    ZoraProtocolFeeSettings public immutable moduleFeeToken;\n\n    /// @notice The registrar address that can register modules\n    address public registrar;\n\n    /// @notice Mapping of users and modules to approved status\n    /// @dev User address => Module address => Approved\n    mapping(address => mapping(address => bool)) public userApprovals;\n\n    /// @notice Mapping of modules to registered status\n    /// @dev Module address => Registered\n    mapping(address => bool) public moduleRegistered;\n\n    /// @notice The signature nonces for 3rd party module approvals\n    mapping(address => uint256) public sigNonces;\n\n    /// @notice Ensures only the registrar can register modules\n    modifier onlyRegistrar() {\n        require(msg.sender == registrar, \"ZMM::onlyRegistrar must be registrar\");\n        _;\n    }\n\n    /// @notice Emitted when a user's module approval is updated\n    /// @param user The address of the user\n    /// @param module The address of the module\n    /// @param approved Whether the user added or removed approval\n    event ModuleApprovalSet(address indexed user, address indexed module, bool approved);\n\n    /// @notice Emitted when a module is registered\n    /// @param module The address of the module\n    event ModuleRegistered(address indexed module);\n\n    /// @notice Emitted when the registrar address is updated\n    /// @param newRegistrar The address of the new registrar\n    event RegistrarChanged(address indexed newRegistrar);\n\n    /// @param _registrar The initial registrar for the manager\n    /// @param _feeToken The module fee token contract to mint from upon module registration\n    constructor(address _registrar, address _feeToken) {\n        require(_registrar != address(0), \"ZMM::must set registrar to non-zero address\");\n\n        registrar = _registrar;\n        moduleFeeToken = ZoraProtocolFeeSettings(_feeToken);\n    }\n\n    /// @notice Returns true if the user has approved a given module, false otherwise\n    /// @param _user The user to check approvals for\n    /// @param _module The module to check approvals for\n    /// @return True if the module has been approved by the user, false otherwise\n    function isModuleApproved(address _user, address _module) external view returns (bool) {\n        return userApprovals[_user][_module];\n    }\n\n    //        ,-.\n    //        `-'\n    //        /|\\\n    //         |             ,-----------------.\n    //        / \\            |ZoraModuleManager|\n    //      Caller           `--------+--------'\n    //        | setApprovalForModule()|\n    //        | ---------------------->\n    //        |                       |\n    //        |                       |----.\n    //        |                       |    | set approval for module\n    //        |                       |<---'\n    //        |                       |\n    //        |                       |----.\n    //        |                       |    | emit ModuleApprovalSet()\n    //        |                       |<---'\n    //      Caller           ,--------+--------.\n    //        ,-.            |ZoraModuleManager|\n    //        `-'            `-----------------'\n    //        /|\\\n    //         |\n    //        / \\\n    /// @notice Allows a user to set the approval for a given module\n    /// @param _module The module to approve\n    /// @param _approved A boolean, whether or not to approve a module\n    function setApprovalForModule(address _module, bool _approved) public {\n        _setApprovalForModule(_module, msg.sender, _approved);\n    }\n\n    //        ,-.\n    //        `-'\n    //        /|\\\n    //         |                  ,-----------------.\n    //        / \\                 |ZoraModuleManager|\n    //      Caller                `--------+--------'\n    //        | setBatchApprovalForModule()|\n    //        | --------------------------->\n    //        |                            |\n    //        |                            |\n    //        |         _____________________________________________________\n    //        |         ! LOOP  /  for each module                           !\n    //        |         !______/           |                                 !\n    //        |         !                  |----.                            !\n    //        |         !                  |    | set approval for module    !\n    //        |         !                  |<---'                            !\n    //        |         !                  |                                 !\n    //        |         !                  |----.                            !\n    //        |         !                  |    | emit ModuleApprovalSet()   !\n    //        |         !                  |<---'                            !\n    //        |         !~~~~~~~~~~~~~~~~~~~~~~~~~~~~~~~~~~~~~~~~~~~~~~~~~~~~!\n    //      Caller                ,--------+--------.\n    //        ,-.                 |ZoraModuleManager|\n    //        `-'                 `-----------------'\n    //        /|\\\n    //         |\n    //        / \\\n    /// @notice Sets approvals for multiple modules at once\n    /// @param _modules The list of module addresses to set approvals for\n    /// @param _approved A boolean, whether or not to approve the modules\n    function setBatchApprovalForModules(address[] memory _modules, bool _approved) public {\n        // Store the number of module addresses provided\n        uint256 numModules = _modules.length;\n\n        // Loop through each address\n        for (uint256 i = 0; i < numModules; ) {\n            // Ensure that it's a registered module and set the approval\n            _setApprovalForModule(_modules[i], msg.sender, _approved);\n\n            // Cannot overflow as array length cannot exceed uint256 max\n            unchecked {\n                ++i;\n            }\n        }\n    }\n\n    //        ,-.\n    //        `-'\n    //        /|\\\n    //         |                  ,-----------------.\n    //        / \\                 |ZoraModuleManager|\n    //      Caller                `--------+--------'\n    //        | setApprovalForModuleBySig()|\n    //        | --------------------------->\n    //        |                            |\n    //        |                            |----.\n    //        |                            |    | recover user address from signature\n    //        |                            |<---'\n    //        |                            |\n    //        |                            |----.\n    //        |                            |    | set approval for module\n    //        |                            |<---'\n    //        |                            |\n    //        |                            |----.\n    //        |                            |    | emit ModuleApprovalSet()\n    //        |                            |<---'\n    //      Caller                ,--------+--------.\n    //        ,-.                 |ZoraModuleManager|\n    //        `-'                 `-----------------'\n    //        /|\\\n    //         |\n    //        / \\\n    /// @notice Sets approval for a module given an EIP-712 signature\n    /// @param _module The module to approve\n    /// @param _user The user to approve the module for\n    /// @param _approved A boolean, whether or not to approve a module\n    /// @param _deadline The deadline at which point the given signature expires\n    /// @param _v The 129th byte and chain ID of the signature\n    /// @param _r The first 64 bytes of the signature\n    /// @param _s Bytes 64-128 of the signature\n    function setApprovalForModuleBySig(\n        address _module,\n        address _user,\n        bool _approved,\n        uint256 _deadline,\n        uint8 _v,\n        bytes32 _r,\n        bytes32 _s\n    ) public {\n        require(_deadline == 0 || _deadline >= block.timestamp, \"ZMM::setApprovalForModuleBySig deadline expired\");\n\n        bytes32 digest = keccak256(\n            abi.encodePacked(\n                \"\\x19\\x01\",\n                EIP_712_DOMAIN_SEPARATOR,\n                keccak256(abi.encode(SIGNED_APPROVAL_TYPEHASH, _module, _user, _approved, _deadline, sigNonces[_user]++))\n            )\n        );\n\n        address recoveredAddress = ecrecover(digest, _v, _r, _s);\n\n        require(recoveredAddress != address(0) && recoveredAddress == _user, \"ZMM::setApprovalForModuleBySig invalid signature\");\n\n        _setApprovalForModule(_module, _user, _approved);\n    }\n\n    //         ,-.\n    //         `-'\n    //         /|\\\n    //          |               ,-----------------.          ,-----------------------.\n    //         / \\              |ZoraModuleManager|          |ZoraProtocolFeeSettings|\n    //      Registrar           `--------+--------'          `-----------+-----------'\n    //          |   registerModule()     |                               |\n    //          |----------------------->|                               |\n    //          |                        |                               |\n    //          |                        ----.                           |\n    //          |                            | register module           |\n    //          |                        <---'                           |\n    //          |                        |                               |\n    //          |                        |            mint()             |\n    //          |                        |------------------------------>|\n    //          |                        |                               |\n    //          |                        |                               ----.\n    //          |                        |                                   | mint token to registrar\n    //          |                        |                               <---'\n    //          |                        |                               |\n    //          |                        ----.                           |\n    //          |                            | emit ModuleRegistered()   |\n    //          |                        <---'                           |\n    //      Registrar           ,--------+--------.          ,-----------+-----------.\n    //         ,-.              |ZoraModuleManager|          |ZoraProtocolFeeSettings|\n    //         `-'              `-----------------'          `-----------------------'\n    //         /|\\\n    //          |\n    //         / \\\n    /// @notice Registers a module\n    /// @param _module The address of the module\n    function registerModule(address _module) public onlyRegistrar {\n        require(!moduleRegistered[_module], \"ZMM::registerModule module already registered\");\n\n        moduleRegistered[_module] = true;\n        moduleFeeToken.mint(registrar, _module);\n\n        emit ModuleRegistered(_module);\n    }\n\n    //         ,-.\n    //         `-'\n    //         /|\\\n    //          |               ,-----------------.\n    //         / \\              |ZoraModuleManager|\n    //      Registrar           `--------+--------'\n    //          |    setRegistrar()      |\n    //          |----------------------->|\n    //          |                        |\n    //          |                        ----.\n    //          |                            | set registrar\n    //          |                        <---'\n    //          |                        |\n    //          |                        ----.\n    //          |                            | emit RegistrarChanged()\n    //          |                        <---'\n    //      Registrar           ,--------+--------.\n    //         ,-.              |ZoraModuleManager|\n    //         `-'              `-----------------'\n    //         /|\\\n    //          |\n    //         / \\\n    /// @notice Sets the registrar for the ZORA Module Manager\n    /// @param _registrar the address of the new registrar\n    function setRegistrar(address _registrar) public onlyRegistrar {\n        require(_registrar != address(0), \"ZMM::setRegistrar must set registrar to non-zero address\");\n        registrar = _registrar;\n\n        emit RegistrarChanged(_registrar);\n    }\n\n    /// @notice Updates a module approval for a user\n    /// @param _module The address of the module\n    /// @param _user The address of the user\n    /// @param _approved Whether the user is adding or removing approval\n    function _setApprovalForModule(\n        address _module,\n        address _user,\n        bool _approved\n    ) private {\n        require(moduleRegistered[_module], \"ZMM::must be registered module\");\n\n        userApprovals[_user][_module] = _approved;\n\n        emit ModuleApprovalSet(msg.sender, _module, _approved);\n    }\n\n    /// @notice The EIP-155 chain id\n    function _chainID() private view returns (uint256 id) {\n        assembly {\n            id := chainid()\n        }\n    }\n}\n",
  "sourcePath": "/Users/ds/Documents/rarible/scripts/contracts/ZoraModuleManager.sol",
  "compiler": {
    "name": "solc",
    "version": "0.8.10+commit.fc410830.Emscripten.clang"
  },
  "schemaVersion": "3.4.3",
  "updatedAt": "2022-04-04T14:37:20.082Z",
  "devdoc": {
    "author": "tbtstl <t@zora.co>",
    "events": {
      "ModuleApprovalSet(address,address,bool)": {
        "params": {
          "approved": "Whether the user added or removed approval",
          "module": "The address of the module",
          "user": "The address of the user"
        }
      },
      "ModuleRegistered(address)": {
        "params": {
          "module": "The address of the module"
        }
      },
      "RegistrarChanged(address)": {
        "params": {
          "newRegistrar": "The address of the new registrar"
        }
      }
    },
    "kind": "dev",
    "methods": {
      "constructor": {
        "params": {
          "_feeToken": "The module fee token contract to mint from upon module registration",
          "_registrar": "The initial registrar for the manager"
        }
      },
      "isModuleApproved(address,address)": {
        "params": {
          "_module": "The module to check approvals for",
          "_user": "The user to check approvals for"
        },
        "returns": {
          "_0": "True if the module has been approved by the user, false otherwise"
        }
      },
      "registerModule(address)": {
        "params": {
          "_module": "The address of the module"
        }
      },
      "setApprovalForModule(address,bool)": {
        "params": {
          "_approved": "A boolean, whether or not to approve a module",
          "_module": "The module to approve"
        }
      },
      "setApprovalForModuleBySig(address,address,bool,uint256,uint8,bytes32,bytes32)": {
        "params": {
          "_approved": "A boolean, whether or not to approve a module",
          "_deadline": "The deadline at which point the given signature expires",
          "_module": "The module to approve",
          "_r": "The first 64 bytes of the signature",
          "_s": "Bytes 64-128 of the signature",
          "_user": "The user to approve the module for",
          "_v": "The 129th byte and chain ID of the signature"
        }
      },
      "setBatchApprovalForModules(address[],bool)": {
        "params": {
          "_approved": "A boolean, whether or not to approve the modules",
          "_modules": "The list of module addresses to set approvals for"
        }
      },
      "setRegistrar(address)": {
        "params": {
          "_registrar": "the address of the new registrar"
        }
      }
    },
    "stateVariables": {
      "SIGNED_APPROVAL_TYPEHASH": {
        "details": "keccak256(\"SignedApproval(address module,address user,bool approved,uint256 deadline,uint256 nonce)\")"
      },
      "moduleRegistered": {
        "details": "Module address => Registered"
      },
      "userApprovals": {
        "details": "User address => Module address => Approved"
      }
    },
    "title": "ZoraModuleManager",
    "version": 1
  },
  "userdoc": {
    "events": {
      "ModuleApprovalSet(address,address,bool)": {
        "notice": "Emitted when a user's module approval is updated"
      },
      "ModuleRegistered(address)": {
        "notice": "Emitted when a module is registered"
      },
      "RegistrarChanged(address)": {
        "notice": "Emitted when the registrar address is updated"
      }
    },
    "kind": "user",
    "methods": {
      "isModuleApproved(address,address)": {
        "notice": "Returns true if the user has approved a given module, false otherwise"
      },
      "moduleFeeToken()": {
        "notice": "The module fee NFT contract to mint from upon module registration"
      },
      "moduleRegistered(address)": {
        "notice": "Mapping of modules to registered status"
      },
      "registerModule(address)": {
        "notice": "Registers a module"
      },
      "registrar()": {
        "notice": "The registrar address that can register modules"
      },
      "setApprovalForModule(address,bool)": {
        "notice": "Allows a user to set the approval for a given module"
      },
      "setApprovalForModuleBySig(address,address,bool,uint256,uint8,bytes32,bytes32)": {
        "notice": "Sets approval for a module given an EIP-712 signature"
      },
      "setBatchApprovalForModules(address[],bool)": {
        "notice": "Sets approvals for multiple modules at once"
      },
      "setRegistrar(address)": {
        "notice": "Sets the registrar for the ZORA Module Manager"
      },
      "sigNonces(address)": {
        "notice": "The signature nonces for 3rd party module approvals"
      },
      "userApprovals(address,address)": {
        "notice": "Mapping of users and modules to approved status"
      }
    },
    "notice": "This contract allows users to approve registered modules on ZORA V3",
    "version": 1
  }
}