{
  "contractName": "ZoraProtocolFeeSettings",
  "abi": [
    {
      "inputs": [],
      "stateMutability": "nonpayable",
      "type": "constructor"
    },
    {
      "anonymous": false,
      "inputs": [
        {
          "indexed": true,
          "internalType": "address",
          "name": "owner",
          "type": "address"
        },
        {
          "indexed": true,
          "internalType": "address",
          "name": "approved",
          "type": "address"
        },
        {
          "indexed": true,
          "internalType": "uint256",
          "name": "tokenId",
          "type": "uint256"
        }
      ],
      "name": "Approval",
      "type": "event"
    },
    {
      "anonymous": false,
      "inputs": [
        {
          "indexed": true,
          "internalType": "address",
          "name": "owner",
          "type": "address"
        },
        {
          "indexed": true,
          "internalType": "address",
          "name": "operator",
          "type": "address"
        },
        {
          "indexed": false,
          "internalType": "bool",
          "name": "approved",
          "type": "bool"
        }
      ],
      "name": "ApprovalForAll",
      "type": "event"
    },
    {
      "anonymous": false,
      "inputs": [
        {
          "indexed": true,
          "internalType": "address",
          "name": "newMetadata",
          "type": "address"
        }
      ],
      "name": "MetadataUpdated",
      "type": "event"
    },
    {
      "anonymous": false,
      "inputs": [
        {
          "indexed": true,
          "internalType": "address",
          "name": "newOwner",
          "type": "address"
        }
      ],
      "name": "OwnerUpdated",
      "type": "event"
    },
    {
      "anonymous": false,
      "inputs": [
        {
          "indexed": true,
          "internalType": "address",
          "name": "module",
          "type": "address"
        },
        {
          "indexed": false,
          "internalType": "address",
          "name": "feeRecipient",
          "type": "address"
        },
        {
          "indexed": false,
          "internalType": "uint16",
          "name": "feeBps",
          "type": "uint16"
        }
      ],
      "name": "ProtocolFeeUpdated",
      "type": "event"
    },
    {
      "anonymous": false,
      "inputs": [
        {
          "indexed": true,
          "internalType": "address",
          "name": "from",
          "type": "address"
        },
        {
          "indexed": true,
          "internalType": "address",
          "name": "to",
          "type": "address"
        },
        {
          "indexed": true,
          "internalType": "uint256",
          "name": "tokenId",
          "type": "uint256"
        }
      ],
      "name": "Transfer",
      "type": "event"
    },
    {
      "inputs": [
        {
          "internalType": "address",
          "name": "to",
          "type": "address"
        },
        {
          "internalType": "uint256",
          "name": "tokenId",
          "type": "uint256"
        }
      ],
      "name": "approve",
      "outputs": [],
      "stateMutability": "nonpayable",
      "type": "function"
    },
    {
      "inputs": [
        {
          "internalType": "address",
          "name": "owner",
          "type": "address"
        }
      ],
      "name": "balanceOf",
      "outputs": [
        {
          "internalType": "uint256",
          "name": "",
          "type": "uint256"
        }
      ],
      "stateMutability": "view",
      "type": "function"
    },
    {
      "inputs": [
        {
          "internalType": "uint256",
          "name": "tokenId",
          "type": "uint256"
        }
      ],
      "name": "getApproved",
      "outputs": [
        {
          "internalType": "address",
          "name": "",
          "type": "address"
        }
      ],
      "stateMutability": "view",
      "type": "function"
    },
    {
      "inputs": [
        {
          "internalType": "address",
          "name": "owner",
          "type": "address"
        },
        {
          "internalType": "address",
          "name": "operator",
          "type": "address"
        }
      ],
      "name": "isApprovedForAll",
      "outputs": [
        {
          "internalType": "bool",
          "name": "",
          "type": "bool"
        }
      ],
      "stateMutability": "view",
      "type": "function"
    },
    {
      "inputs": [],
      "name": "metadata",
      "outputs": [
        {
          "internalType": "address",
          "name": "",
          "type": "address"
        }
      ],
      "stateMutability": "view",
      "type": "function"
    },
    {
      "inputs": [],
      "name": "minter",
      "outputs": [
        {
          "internalType": "address",
          "name": "",
          "type": "address"
        }
      ],
      "stateMutability": "view",
      "type": "function"
    },
    {
      "inputs": [
        {
          "internalType": "address",
          "name": "",
          "type": "address"
        }
      ],
      "name": "moduleFeeSetting",
      "outputs": [
        {
          "internalType": "uint16",
          "name": "feeBps",
          "type": "uint16"
        },
        {
          "internalType": "address",
          "name": "feeRecipient",
          "type": "address"
        }
      ],
      "stateMutability": "view",
      "type": "function"
    },
    {
      "inputs": [],
      "name": "name",
      "outputs": [
        {
          "internalType": "string",
          "name": "",
          "type": "string"
        }
      ],
      "stateMutability": "view",
      "type": "function"
    },
    {
      "inputs": [],
      "name": "owner",
      "outputs": [
        {
          "internalType": "address",
          "name": "",
          "type": "address"
        }
      ],
      "stateMutability": "view",
      "type": "function"
    },
    {
      "inputs": [
        {
          "internalType": "uint256",
          "name": "tokenId",
          "type": "uint256"
        }
      ],
      "name": "ownerOf",
      "outputs": [
        {
          "internalType": "address",
          "name": "",
          "type": "address"
        }
      ],
      "stateMutability": "view",
      "type": "function"
    },
    {
      "inputs": [
        {
          "internalType": "address",
          "name": "from",
          "type": "address"
        },
        {
          "internalType": "address",
          "name": "to",
          "type": "address"
        },
        {
          "internalType": "uint256",
          "name": "tokenId",
          "type": "uint256"
        }
      ],
      "name": "safeTransferFrom",
      "outputs": [],
      "stateMutability": "nonpayable",
      "type": "function"
    },
    {
      "inputs": [
        {
          "internalType": "address",
          "name": "from",
          "type": "address"
        },
        {
          "internalType": "address",
          "name": "to",
          "type": "address"
        },
        {
          "internalType": "uint256",
          "name": "tokenId",
          "type": "uint256"
        },
        {
          "internalType": "bytes",
          "name": "_data",
          "type": "bytes"
        }
      ],
      "name": "safeTransferFrom",
      "outputs": [],
      "stateMutability": "nonpayable",
      "type": "function"
    },
    {
      "inputs": [
        {
          "internalType": "address",
          "name": "operator",
          "type": "address"
        },
        {
          "internalType": "bool",
          "name": "approved",
          "type": "bool"
        }
      ],
      "name": "setApprovalForAll",
      "outputs": [],
      "stateMutability": "nonpayable",
      "type": "function"
    },
    {
      "inputs": [
        {
          "internalType": "bytes4",
          "name": "interfaceId",
          "type": "bytes4"
        }
      ],
      "name": "supportsInterface",
      "outputs": [
        {
          "internalType": "bool",
          "name": "",
          "type": "bool"
        }
      ],
      "stateMutability": "view",
      "type": "function"
    },
    {
      "inputs": [],
      "name": "symbol",
      "outputs": [
        {
          "internalType": "string",
          "name": "",
          "type": "string"
        }
      ],
      "stateMutability": "view",
      "type": "function"
    },
    {
      "inputs": [
        {
          "internalType": "address",
          "name": "from",
          "type": "address"
        },
        {
          "internalType": "address",
          "name": "to",
          "type": "address"
        },
        {
          "internalType": "uint256",
          "name": "tokenId",
          "type": "uint256"
        }
      ],
      "name": "transferFrom",
      "outputs": [],
      "stateMutability": "nonpayable",
      "type": "function"
    },
    {
      "inputs": [
        {
          "internalType": "address",
          "name": "_minter",
          "type": "address"
        },
        {
          "internalType": "address",
          "name": "_metadata",
          "type": "address"
        }
      ],
      "name": "init",
      "outputs": [],
      "stateMutability": "nonpayable",
      "type": "function"
    },
    {
      "inputs": [
        {
          "internalType": "address",
          "name": "_to",
          "type": "address"
        },
        {
          "internalType": "address",
          "name": "_module",
          "type": "address"
        }
      ],
      "name": "mint",
      "outputs": [
        {
          "internalType": "uint256",
          "name": "",
          "type": "uint256"
        }
      ],
      "stateMutability": "nonpayable",
      "type": "function"
    },
    {
      "inputs": [
        {
          "internalType": "address",
          "name": "_module",
          "type": "address"
        },
        {
          "internalType": "address",
          "name": "_feeRecipient",
          "type": "address"
        },
        {
          "internalType": "uint16",
          "name": "_feeBps",
          "type": "uint16"
        }
      ],
      "name": "setFeeParams",
      "outputs": [],
      "stateMutability": "nonpayable",
      "type": "function"
    },
    {
      "inputs": [
        {
          "internalType": "address",
          "name": "_owner",
          "type": "address"
        }
      ],
      "name": "setOwner",
      "outputs": [],
      "stateMutability": "nonpayable",
      "type": "function"
    },
    {
      "inputs": [
        {
          "internalType": "address",
          "name": "_metadata",
          "type": "address"
        }
      ],
      "name": "setMetadata",
      "outputs": [],
      "stateMutability": "nonpayable",
      "type": "function"
    },
    {
      "inputs": [
        {
          "internalType": "address",
          "name": "_module",
          "type": "address"
        },
        {
          "internalType": "uint256",
          "name": "_amount",
          "type": "uint256"
        }
      ],
      "name": "getFeeAmount",
      "outputs": [
        {
          "internalType": "uint256",
          "name": "",
          "type": "uint256"
        }
      ],
      "stateMutability": "view",
      "type": "function"
    },
    {
      "inputs": [
        {
          "internalType": "uint256",
          "name": "_tokenId",
          "type": "uint256"
        }
      ],
      "name": "tokenIdToModule",
      "outputs": [
        {
          "internalType": "address",
          "name": "",
          "type": "address"
        }
      ],
      "stateMutability": "pure",
      "type": "function"
    },
    {
      "inputs": [
        {
          "internalType": "address",
          "name": "_module",
          "type": "address"
        }
      ],
      "name": "moduleToTokenId",
      "outputs": [
        {
          "internalType": "uint256",
          "name": "",
          "type": "uint256"
        }
      ],
      "stateMutability": "pure",
      "type": "function"
    },
    {
      "inputs": [
        {
          "internalType": "uint256",
          "name": "_tokenId",
          "type": "uint256"
        }
      ],
      "name": "tokenURI",
      "outputs": [
        {
          "internalType": "string",
          "name": "",
          "type": "string"
        }
      ],
      "stateMutability": "view",
      "type": "function"
    }
  ],
  "bytecode": "0x60806040523480156200001157600080fd5b50604080518082018252601681527f5a4f5241204d6f64756c652046656520537769746368000000000000000000006020808301918252835180850190945260048452632d27a92360e11b9084015281519192916200007391600091620000ed565b50805162000089906001906020840190620000ed565b5050506200009d33620000a360201b60201c565b620001d0565b600780546001600160a01b0319166001600160a01b0383169081179091556040517f4ffd725fc4a22075e9ec71c59edf9c38cdeb588a91b24fc5b61388c5be41282b90600090a250565b828054620000fb9062000193565b90600052602060002090601f0160209004810192826200011f57600085556200016a565b82601f106200013a57805160ff19168380011785556200016a565b828001600101855582156200016a579182015b828111156200016a5782518255916020019190600101906200014d565b50620001789291506200017c565b5090565b5b808211156200017857600081556001016200017d565b600181811c90821680620001a857607f821691505b60208210811415620001ca57634e487b7160e01b600052602260045260246000fd5b50919050565b611a0680620001e06000396000f3fe608060405234801561001057600080fd5b50600436106101735760003560e01c806370a08231116100de578063af066de311610097578063e985e9c511610071578063e985e9c514610384578063ee1fe2ad146103c0578063f09a4016146103d3578063f3cb8385146103e657600080fd5b8063af066de31461034b578063b88d4fde1461035e578063c87b56dd1461037157600080fd5b806370a082311461029957806386ab6fb9146102ac5780638da5cb5b1461030357806395d89b4114610316578063965d21981461031e578063a22cb4651461033857600080fd5b806323b872dd1161013057806323b872dd1461021b578063392f37e91461022e57806342842e0e1461024157806361b485f6146102545780636352211e14610275578063662f03321461028857600080fd5b806301ffc9a71461017857806306fdde03146101a057806307546172146101b5578063081812fc146101e0578063095ea7b3146101f357806313af403514610208575b600080fd5b61018b610186366004611486565b6103f9565b60405190151581526020015b60405180910390f35b6101a861044b565b60405161019791906114fb565b6008546101c8906001600160a01b031681565b6040516001600160a01b039091168152602001610197565b6101c86101ee36600461150e565b6104dd565b610206610201366004611543565b610577565b005b61020661021636600461156d565b61068d565b610206610229366004611588565b6106e8565b6006546101c8906001600160a01b031681565b61020661024f366004611588565b610719565b610267610262366004611543565b610734565b604051908152602001610197565b6101c861028336600461150e565b610770565b6101c861029636600461150e565b90565b6102676102a736600461156d565b6107e7565b6102e16102ba36600461156d565b60096020526000908152604090205461ffff8116906201000090046001600160a01b031682565b6040805161ffff90931683526001600160a01b03909116602083015201610197565b6007546101c8906001600160a01b031681565b6101a861086e565b61026761032c36600461156d565b6001600160a01b031690565b6102066103463660046115c4565b61087d565b610206610359366004611600565b61088c565b61020661036c3660046116bd565b610a7c565b6101a861037f36600461150e565b610ab4565b61018b610392366004611768565b6001600160a01b03918216600090815260056020908152604080832093909416825291909152205460ff1690565b6102676103ce366004611768565b610c08565b6102066103e1366004611768565b610c6b565b6102066103f436600461156d565b610d3e565b60006001600160e01b031982166380ac58cd60e01b148061042a57506001600160e01b03198216635b5e139f60e01b145b8061044557506301ffc9a760e01b6001600160e01b03198316145b92915050565b60606000805461045a9061179b565b80601f01602080910402602001604051908101604052809291908181526020018280546104869061179b565b80156104d35780601f106104a8576101008083540402835291602001916104d3565b820191906000526020600020905b8154815290600101906020018083116104b657829003601f168201915b5050505050905090565b6000818152600260205260408120546001600160a01b031661055b5760405162461bcd60e51b815260206004820152602c60248201527f4552433732313a20617070726f76656420717565727920666f72206e6f6e657860448201526b34b9ba32b73a103a37b5b2b760a11b60648201526084015b60405180910390fd5b506000908152600460205260409020546001600160a01b031690565b600061058282610770565b9050806001600160a01b0316836001600160a01b031614156105f05760405162461bcd60e51b815260206004820152602160248201527f4552433732313a20617070726f76616c20746f2063757272656e74206f776e656044820152603960f91b6064820152608401610552565b336001600160a01b038216148061060c575061060c8133610392565b61067e5760405162461bcd60e51b815260206004820152603860248201527f4552433732313a20617070726f76652063616c6c6572206973206e6f74206f7760448201527f6e6572206e6f7220617070726f76656420666f7220616c6c00000000000000006064820152608401610552565b6106888383610d99565b505050565b6007546001600160a01b031633146106dc5760405162461bcd60e51b815260206004820152601260248201527139b2ba27bbb732b91037b7363ca7bbb732b960711b6044820152606401610552565b6106e581610e07565b50565b6106f23382610e51565b61070e5760405162461bcd60e51b8152600401610552906117d6565b610688838383610f48565b61068883838360405180602001604052806000815250610a7c565b6001600160a01b0382166000908152600960205260408120546127109061075f9061ffff168461183d565b610769919061185c565b9392505050565b6000818152600260205260408120546001600160a01b0316806104455760405162461bcd60e51b815260206004820152602960248201527f4552433732313a206f776e657220717565727920666f72206e6f6e657869737460448201526832b73a103a37b5b2b760b91b6064820152608401610552565b60006001600160a01b0382166108525760405162461bcd60e51b815260206004820152602a60248201527f4552433732313a2062616c616e636520717565727920666f7220746865207a65604482015269726f206164647265737360b01b6064820152608401610552565b506001600160a01b031660009081526003602052604090205490565b60606001805461045a9061179b565b6108883383836110e4565b5050565b826001600160a01b038116336108a182610770565b6001600160a01b0316146108e95760405162461bcd60e51b815260206004820152600f60248201526e37b7363ca6b7b23ab632a7bbb732b960891b6044820152606401610552565b6127108361ffff1611156109495760405162461bcd60e51b815260206004820152602160248201527f736574466565506172616d73206d7573742073657420666565203c3d203130306044820152602560f81b6064820152608401610552565b6001600160a01b038416151580610962575061ffff8316155b6109e45760405162461bcd60e51b815260206004820152604760248201527f736574466565506172616d732066656520726563697069656e742063616e6e6f60448201527f74206265203020616464726573732069662066656520697320677265617465726064820152660207468616e20360cc1b608482015260a401610552565b60408051808201825261ffff8581168083526001600160a01b0388811660208086018281528c841660008181526009845289902097518854925190951662010000026001600160b01b03199092169490961693909317929092179094558451938452830152917f13a20b316cfe128c34302b82770e84718519ea467fbd984b426aaae5513c79c1910160405180910390a25050505050565b610a863383610e51565b610aa25760405162461bcd60e51b8152600401610552906117d6565b610aae848484846111b3565b50505050565b6000818152600260205260409020546060906001600160a01b0316610b335760405162461bcd60e51b815260206004820152602f60248201527f4552433732314d657461646174613a2055524920717565727920666f72206e6f60448201526e3732bc34b9ba32b73a103a37b5b2b760891b6064820152608401610552565b6006546001600160a01b0316610b975760405162461bcd60e51b815260206004820152602360248201527f4552433732314d657461646174613a206e6f206d65746164617461206164647260448201526265737360e81b6064820152608401610552565b60065460405163c87b56dd60e01b8152600481018490526001600160a01b039091169063c87b56dd90602401600060405180830381865afa158015610be0573d6000803e3d6000fd5b505050506040513d6000823e601f3d908101601f19168201604052610445919081019061187e565b6008546000906001600160a01b03163314610c575760405162461bcd60e51b815260206004820152600f60248201526e36b4b73a1037b7363ca6b4b73a32b960891b6044820152606401610552565b6001600160a01b03821661076984826111e6565b6007546001600160a01b03163314610cb75760405162461bcd60e51b815260206004820152600f60248201526e34b734ba1037b7363c9037bbb732b960891b6044820152606401610552565b6008546001600160a01b031615610d105760405162461bcd60e51b815260206004820152601860248201527f696e697420616c726561647920696e697469616c697a656400000000000000006044820152606401610552565b600880546001600160a01b039384166001600160a01b03199182161790915560068054929093169116179055565b6007546001600160a01b03163314610d905760405162461bcd60e51b815260206004820152601560248201527439b2ba26b2ba30b230ba309037b7363ca7bbb732b960591b6044820152606401610552565b6106e581611328565b600081815260046020526040902080546001600160a01b0319166001600160a01b0384169081179091558190610dce82610770565b6001600160a01b03167f8c5be1e5ebec7d5bd14f71427d1e84f3dd0314c0f7b2291e5b200ac8c7c3b92560405160405180910390a45050565b600780546001600160a01b0319166001600160a01b0383169081179091556040517f4ffd725fc4a22075e9ec71c59edf9c38cdeb588a91b24fc5b61388c5be41282b90600090a250565b6000818152600260205260408120546001600160a01b0316610eca5760405162461bcd60e51b815260206004820152602c60248201527f4552433732313a206f70657261746f7220717565727920666f72206e6f6e657860448201526b34b9ba32b73a103a37b5b2b760a11b6064820152608401610552565b6000610ed583610770565b9050806001600160a01b0316846001600160a01b03161480610f105750836001600160a01b0316610f05846104dd565b6001600160a01b0316145b80610f4057506001600160a01b0380821660009081526005602090815260408083209388168352929052205460ff165b949350505050565b826001600160a01b0316610f5b82610770565b6001600160a01b031614610fbf5760405162461bcd60e51b815260206004820152602560248201527f4552433732313a207472616e736665722066726f6d20696e636f72726563742060448201526437bbb732b960d91b6064820152608401610552565b6001600160a01b0382166110215760405162461bcd60e51b8152602060048201526024808201527f4552433732313a207472616e7366657220746f20746865207a65726f206164646044820152637265737360e01b6064820152608401610552565b61102c600082610d99565b6001600160a01b03831660009081526003602052604081208054600192906110559084906118f5565b90915550506001600160a01b038216600090815260036020526040812080546001929061108390849061190c565b909155505060008181526002602052604080822080546001600160a01b0319166001600160a01b0386811691821790925591518493918716917fddf252ad1be2c89b69c2b068fc378daa952ba7f163c4a11628f55a4df523b3ef91a4505050565b816001600160a01b0316836001600160a01b031614156111465760405162461bcd60e51b815260206004820152601960248201527f4552433732313a20617070726f766520746f2063616c6c6572000000000000006044820152606401610552565b6001600160a01b03838116600081815260056020908152604080832094871680845294825291829020805460ff191686151590811790915591519182527f17307eab39ab6107e8899845ad3d59bd9653f200f220920489ca2b5937696c31910160405180910390a3505050565b6111be848484610f48565b6111ca84848484611372565b610aae5760405162461bcd60e51b815260040161055290611924565b6001600160a01b03821661123c5760405162461bcd60e51b815260206004820181905260248201527f4552433732313a206d696e7420746f20746865207a65726f20616464726573736044820152606401610552565b6000818152600260205260409020546001600160a01b0316156112a15760405162461bcd60e51b815260206004820152601c60248201527f4552433732313a20746f6b656e20616c7265616479206d696e746564000000006044820152606401610552565b6001600160a01b03821660009081526003602052604081208054600192906112ca90849061190c565b909155505060008181526002602052604080822080546001600160a01b0319166001600160a01b03861690811790915590518392907fddf252ad1be2c89b69c2b068fc378daa952ba7f163c4a11628f55a4df523b3ef908290a45050565b600680546001600160a01b0319166001600160a01b0383169081179091556040517fe08224dc11618a1e23016c28d3fb80e30630f4df34d9f95890fe9ce89a85d07e90600090a250565b60006001600160a01b0384163b1561146557604051630a85bd0160e11b81526001600160a01b0385169063150b7a02906113b6903390899088908890600401611976565b6020604051808303816000875af19250505080156113f1575060408051601f3d908101601f191682019092526113ee918101906119b3565b60015b61144b573d80801561141f576040519150601f19603f3d011682016040523d82523d6000602084013e611424565b606091505b5080516114435760405162461bcd60e51b815260040161055290611924565b805181602001fd5b6001600160e01b031916630a85bd0160e11b149050610f40565b506001949350505050565b6001600160e01b0319811681146106e557600080fd5b60006020828403121561149857600080fd5b813561076981611470565b60005b838110156114be5781810151838201526020016114a6565b83811115610aae5750506000910152565b600081518084526114e78160208601602086016114a3565b601f01601f19169290920160200192915050565b60208152600061076960208301846114cf565b60006020828403121561152057600080fd5b5035919050565b80356001600160a01b038116811461153e57600080fd5b919050565b6000806040838503121561155657600080fd5b61155f83611527565b946020939093013593505050565b60006020828403121561157f57600080fd5b61076982611527565b60008060006060848603121561159d57600080fd5b6115a684611527565b92506115b460208501611527565b9150604084013590509250925092565b600080604083850312156115d757600080fd5b6115e083611527565b9150602083013580151581146115f557600080fd5b809150509250929050565b60008060006060848603121561161557600080fd5b61161e84611527565b925061162c60208501611527565b9150604084013561ffff8116811461164357600080fd5b809150509250925092565b634e487b7160e01b600052604160045260246000fd5b604051601f8201601f1916810167ffffffffffffffff8111828210171561168d5761168d61164e565b604052919050565b600067ffffffffffffffff8211156116af576116af61164e565b50601f01601f191660200190565b600080600080608085870312156116d357600080fd5b6116dc85611527565b93506116ea60208601611527565b925060408501359150606085013567ffffffffffffffff81111561170d57600080fd5b8501601f8101871361171e57600080fd5b803561173161172c82611695565b611664565b81815288602083850101111561174657600080fd5b8160208401602083013760006020838301015280935050505092959194509250565b6000806040838503121561177b57600080fd5b61178483611527565b915061179260208401611527565b90509250929050565b600181811c908216806117af57607f821691505b602082108114156117d057634e487b7160e01b600052602260045260246000fd5b50919050565b60208082526031908201527f4552433732313a207472616e736665722063616c6c6572206973206e6f74206f6040820152701ddb995c881b9bdc88185c1c1c9bdd9959607a1b606082015260800190565b634e487b7160e01b600052601160045260246000fd5b600081600019048311821515161561185757611857611827565b500290565b60008261187957634e487b7160e01b600052601260045260246000fd5b500490565b60006020828403121561189057600080fd5b815167ffffffffffffffff8111156118a757600080fd5b8201601f810184136118b857600080fd5b80516118c661172c82611695565b8181528560208385010111156118db57600080fd5b6118ec8260208301602086016114a3565b95945050505050565b60008282101561190757611907611827565b500390565b6000821982111561191f5761191f611827565b500190565b60208082526032908201527f4552433732313a207472616e7366657220746f206e6f6e20455243373231526560408201527131b2b4bb32b91034b6b83632b6b2b73a32b960711b606082015260800190565b6001600160a01b03858116825284166020820152604081018390526080606082018190526000906119a9908301846114cf565b9695505050505050565b6000602082840312156119c557600080fd5b81516107698161147056fea2646970667358221220fc688907958cd68e97a0723695e8e76f7d71bd90ce65839f7577dcee052a181564736f6c634300080a0033",
  "immutableReferences": {},
  "source": "// SPDX-License-Identifier: GPL-3.0\npragma solidity 0.8.10;\n\nimport {ERC721} from \"@openzeppelin/contracts/token/ERC721/ERC721.sol\";\n\ninterface IERC721TokenURI {\n    function tokenURI(uint256 tokenId) external view returns (string memory);\n}\n\n/// @title ZoraProtocolFeeSettings\n/// @author tbtstl <t@zora.co>\n/// @notice This contract allows an optional fee percentage and recipient to be set for individual ZORA modules\ncontract ZoraProtocolFeeSettings is ERC721 {\n    /// @notice The address of the contract metadata\n    address public metadata;\n    /// @notice The address of the contract owner\n    address public owner;\n    /// @notice The address of the ZORA Module Manager\n    address public minter;\n\n    /// @notice The metadata of a module fee setting\n    /// @param feeBps The basis points fee\n    /// @param feeRecipient The recipient of the fee\n    struct FeeSetting {\n        uint16 feeBps;\n        address feeRecipient;\n    }\n\n    /// @notice Mapping of modules to fee settings\n    /// @dev Module address => FeeSetting\n    mapping(address => FeeSetting) public moduleFeeSetting;\n\n    /// @notice Ensures only the owner of a module fee NFT can set its fee\n    /// @param _module The address of the module\n    modifier onlyModuleOwner(address _module) {\n        uint256 tokenId = moduleToTokenId(_module);\n        require(ownerOf(tokenId) == msg.sender, \"onlyModuleOwner\");\n        _;\n    }\n\n    /// @notice Emitted when the fee for a module is updated\n    /// @param module The address of the module\n    /// @param feeRecipient The address of the fee recipient\n    /// @param feeBps The basis points of the fee\n    event ProtocolFeeUpdated(address indexed module, address feeRecipient, uint16 feeBps);\n\n    /// @notice Emitted when the contract metadata is updated\n    /// @param newMetadata The address of the new metadata\n    event MetadataUpdated(address indexed newMetadata);\n\n    /// @notice Emitted when the contract owner is updated\n    /// @param newOwner The address of the new owner\n    event OwnerUpdated(address indexed newOwner);\n\n    constructor() ERC721(\"ZORA Module Fee Switch\", \"ZORF\") {\n        _setOwner(msg.sender);\n    }\n\n    /// @notice Initialize the Protocol Fee Settings\n    /// @param _minter The address that can mint new NFTs (expected ZoraModuleManager address)\n    function init(address _minter, address _metadata) external {\n        require(msg.sender == owner, \"init only owner\");\n        require(minter == address(0), \"init already initialized\");\n\n        minter = _minter;\n        metadata = _metadata;\n    }\n\n    //        ,-.\n    //        `-'\n    //        /|\\\n    //         |             ,-----------------------.\n    //        / \\            |ZoraProtocolFeeSettings|\n    //      Minter           `-----------+-----------'\n    //        |          mint()          |\n    //        | ------------------------>|\n    //        |                          |\n    //        |                          ----.\n    //        |                              | derive token ID from module address\n    //        |                          <---'\n    //        |                          |\n    //        |                          ----.\n    //        |                              | mint token to given address\n    //        |                          <---'\n    //        |                          |\n    //        |     return token ID      |\n    //        | <------------------------|\n    //      Minter           ,-----------+-----------.\n    //        ,-.            |ZoraProtocolFeeSettings|\n    //        `-'            `-----------------------'\n    //        /|\\\n    //         |\n    //        / \\\n    /// @notice Mint a new protocol fee setting for a module\n    /// @param _to The address to send the protocol fee setting token to\n    /// @param _module The module for which the minted token will represent\n    function mint(address _to, address _module) external returns (uint256) {\n        require(msg.sender == minter, \"mint onlyMinter\");\n        uint256 tokenId = moduleToTokenId(_module);\n        _mint(_to, tokenId);\n\n        return tokenId;\n    }\n\n    //          ,-.\n    //          `-'\n    //          /|\\\n    //           |                ,-----------------------.\n    //          / \\               |ZoraProtocolFeeSettings|\n    //      ModuleOwner           `-----------+-----------'\n    //           |      setFeeParams()        |\n    //           |--------------------------->|\n    //           |                            |\n    //           |                            ----.\n    //           |                                | set fee parameters\n    //           |                            <---'\n    //           |                            |\n    //           |                            ----.\n    //           |                                | emit ProtocolFeeUpdated()\n    //           |                            <---'\n    //      ModuleOwner           ,-----------+-----------.\n    //          ,-.               |ZoraProtocolFeeSettings|\n    //          `-'               `-----------------------'\n    //          /|\\\n    //           |\n    //          / \\\n    /// @notice Sets fee parameters for a module fee NFT\n    /// @param _module The module to apply the fee settings to\n    /// @param _feeRecipient The fee recipient address to send fees to\n    /// @param _feeBps The bps of transaction value to send to the fee recipient\n    function setFeeParams(\n        address _module,\n        address _feeRecipient,\n        uint16 _feeBps\n    ) external onlyModuleOwner(_module) {\n        require(_feeBps <= 10000, \"setFeeParams must set fee <= 100%\");\n        require(_feeRecipient != address(0) || _feeBps == 0, \"setFeeParams fee recipient cannot be 0 address if fee is greater than 0\");\n\n        moduleFeeSetting[_module] = FeeSetting(_feeBps, _feeRecipient);\n\n        emit ProtocolFeeUpdated(_module, _feeRecipient, _feeBps);\n    }\n\n    //       ,-.\n    //       `-'\n    //       /|\\\n    //        |             ,-----------------------.\n    //       / \\            |ZoraProtocolFeeSettings|\n    //      Owner           `-----------+-----------'\n    //        |       setOwner()        |\n    //        |------------------------>|\n    //        |                         |\n    //        |                         ----.\n    //        |                             | set owner\n    //        |                         <---'\n    //        |                         |\n    //        |                         ----.\n    //        |                             | emit OwnerUpdated()\n    //        |                         <---'\n    //      Owner           ,-----------+-----------.\n    //       ,-.            |ZoraProtocolFeeSettings|\n    //       `-'            `-----------------------'\n    //       /|\\\n    //        |\n    //       / \\\n    /// @notice Sets the owner of the contract\n    /// @param _owner The address of the owner\n    function setOwner(address _owner) external {\n        require(msg.sender == owner, \"setOwner onlyOwner\");\n        _setOwner(_owner);\n    }\n\n    //       ,-.\n    //       `-'\n    //       /|\\\n    //        |             ,-----------------------.\n    //       / \\            |ZoraProtocolFeeSettings|\n    //      Owner           `-----------+-----------'\n    //        |     setMetadata()       |\n    //        |------------------------>|\n    //        |                         |\n    //        |                         ----.\n    //        |                             | set metadata\n    //        |                         <---'\n    //        |                         |\n    //        |                         ----.\n    //        |                             | emit MetadataUpdated()\n    //        |                         <---'\n    //      Owner           ,-----------+-----------.\n    //       ,-.            |ZoraProtocolFeeSettings|\n    //       `-'            `-----------------------'\n    //       /|\\\n    //        |\n    //       / \\\n    /// @notice Sets the metadata of the contract\n    /// @param _metadata The address of the metadata\n    function setMetadata(address _metadata) external {\n        require(msg.sender == owner, \"setMetadata onlyOwner\");\n        _setMetadata(_metadata);\n    }\n\n    /// @notice Computes the fee for a given uint256 amount\n    /// @param _module The module to compute the fee for\n    /// @param _amount The amount to compute the fee for\n    /// @return The amount to be paid out to the fee recipient\n    function getFeeAmount(address _module, uint256 _amount) external view returns (uint256) {\n        return (_amount * moduleFeeSetting[_module].feeBps) / 10000;\n    }\n\n    /// @notice Returns the module address for a given token ID\n    /// @param _tokenId The token ID\n    /// @return The module address\n    function tokenIdToModule(uint256 _tokenId) public pure returns (address) {\n        return address(uint160(_tokenId));\n    }\n\n    /// @notice Returns the token ID for a given module\n    /// @dev We don't worry about losing the top 20 bytes when going from uint256 -> uint160 since we know token ID must have derived from an address\n    /// @param _module The module address\n    /// @return The token ID\n    function moduleToTokenId(address _module) public pure returns (uint256) {\n        return uint256(uint160(_module));\n    }\n\n    /// @notice Returns the token URI for a given token ID\n    /// @param _tokenId The token ID\n    /// @return The token URI\n    function tokenURI(uint256 _tokenId) public view override returns (string memory) {\n        require(_exists(_tokenId), \"ERC721Metadata: URI query for nonexistent token\");\n        require(metadata != address(0), \"ERC721Metadata: no metadata address\");\n\n        return IERC721TokenURI(metadata).tokenURI(_tokenId);\n    }\n\n    /// @notice Sets the contract metadata in `setMetadata`\n    /// @param _metadata The address of the metadata\n    function _setMetadata(address _metadata) private {\n        metadata = _metadata;\n\n        emit MetadataUpdated(_metadata);\n    }\n\n    /// @notice Sets the contract owner in `setOwner`\n    /// @param _owner The address of the owner\n    function _setOwner(address _owner) private {\n        owner = _owner;\n\n        emit OwnerUpdated(_owner);\n    }\n}\n",
  "sourcePath": "/Users/ds/Documents/rarible/scripts/contracts/auxiliary/ZoraProtocolFeeSettings/ZoraProtocolFeeSettings.sol",
  "compiler": {
    "name": "solc",
    "version": "0.8.10+commit.fc410830.Emscripten.clang"
  },
  "schemaVersion": "3.4.3",
  "updatedAt": "2022-04-04T14:37:20.126Z",
  "devdoc": {
    "author": "tbtstl <t@zora.co>",
    "events": {
      "MetadataUpdated(address)": {
        "params": {
          "newMetadata": "The address of the new metadata"
        }
      },
      "OwnerUpdated(address)": {
        "params": {
          "newOwner": "The address of the new owner"
        }
      },
      "ProtocolFeeUpdated(address,address,uint16)": {
        "params": {
          "feeBps": "The basis points of the fee",
          "feeRecipient": "The address of the fee recipient",
          "module": "The address of the module"
        }
      }
    },
    "kind": "dev",
    "methods": {
      "approve(address,uint256)": {
        "details": "See {IERC721-approve}."
      },
      "balanceOf(address)": {
        "details": "See {IERC721-balanceOf}."
      },
      "getApproved(uint256)": {
        "details": "See {IERC721-getApproved}."
      },
      "getFeeAmount(address,uint256)": {
        "params": {
          "_amount": "The amount to compute the fee for",
          "_module": "The module to compute the fee for"
        },
        "returns": {
          "_0": "The amount to be paid out to the fee recipient"
        }
      },
      "init(address,address)": {
        "params": {
          "_minter": "The address that can mint new NFTs (expected ZoraModuleManager address)"
        }
      },
      "isApprovedForAll(address,address)": {
        "details": "See {IERC721-isApprovedForAll}."
      },
      "mint(address,address)": {
        "params": {
          "_module": "The module for which the minted token will represent",
          "_to": "The address to send the protocol fee setting token to"
        }
      },
      "moduleToTokenId(address)": {
        "details": "We don't worry about losing the top 20 bytes when going from uint256 -> uint160 since we know token ID must have derived from an address",
        "params": {
          "_module": "The module address"
        },
        "returns": {
          "_0": "The token ID"
        }
      },
      "name()": {
        "details": "See {IERC721Metadata-name}."
      },
      "ownerOf(uint256)": {
        "details": "See {IERC721-ownerOf}."
      },
      "safeTransferFrom(address,address,uint256)": {
        "details": "See {IERC721-safeTransferFrom}."
      },
      "safeTransferFrom(address,address,uint256,bytes)": {
        "details": "See {IERC721-safeTransferFrom}."
      },
      "setApprovalForAll(address,bool)": {
        "details": "See {IERC721-setApprovalForAll}."
      },
      "setFeeParams(address,address,uint16)": {
        "params": {
          "_feeBps": "The bps of transaction value to send to the fee recipient",
          "_feeRecipient": "The fee recipient address to send fees to",
          "_module": "The module to apply the fee settings to"
        }
      },
      "setMetadata(address)": {
        "params": {
          "_metadata": "The address of the metadata"
        }
      },
      "setOwner(address)": {
        "params": {
          "_owner": "The address of the owner"
        }
      },
      "supportsInterface(bytes4)": {
        "details": "See {IERC165-supportsInterface}."
      },
      "symbol()": {
        "details": "See {IERC721Metadata-symbol}."
      },
      "tokenIdToModule(uint256)": {
        "params": {
          "_tokenId": "The token ID"
        },
        "returns": {
          "_0": "The module address"
        }
      },
      "tokenURI(uint256)": {
        "params": {
          "_tokenId": "The token ID"
        },
        "returns": {
          "_0": "The token URI"
        }
      },
      "transferFrom(address,address,uint256)": {
        "details": "See {IERC721-transferFrom}."
      }
    },
    "stateVariables": {
      "moduleFeeSetting": {
        "details": "Module address => FeeSetting"
      }
    },
    "title": "ZoraProtocolFeeSettings",
    "version": 1
  },
  "userdoc": {
    "events": {
      "MetadataUpdated(address)": {
        "notice": "Emitted when the contract metadata is updated"
      },
      "OwnerUpdated(address)": {
        "notice": "Emitted when the contract owner is updated"
      },
      "ProtocolFeeUpdated(address,address,uint16)": {
        "notice": "Emitted when the fee for a module is updated"
      }
    },
    "kind": "user",
    "methods": {
      "getFeeAmount(address,uint256)": {
        "notice": "Computes the fee for a given uint256 amount"
      },
      "init(address,address)": {
        "notice": "Initialize the Protocol Fee Settings"
      },
      "metadata()": {
        "notice": "The address of the contract metadata"
      },
      "mint(address,address)": {
        "notice": "Mint a new protocol fee setting for a module"
      },
      "minter()": {
        "notice": "The address of the ZORA Module Manager"
      },
      "moduleFeeSetting(address)": {
        "notice": "Mapping of modules to fee settings"
      },
      "moduleToTokenId(address)": {
        "notice": "Returns the token ID for a given module"
      },
      "owner()": {
        "notice": "The address of the contract owner"
      },
      "setFeeParams(address,address,uint16)": {
        "notice": "Sets fee parameters for a module fee NFT"
      },
      "setMetadata(address)": {
        "notice": "Sets the metadata of the contract"
      },
      "setOwner(address)": {
        "notice": "Sets the owner of the contract"
      },
      "tokenIdToModule(uint256)": {
        "notice": "Returns the module address for a given token ID"
      },
      "tokenURI(uint256)": {
        "notice": "Returns the token URI for a given token ID"
      }
    },
    "notice": "This contract allows an optional fee percentage and recipient to be set for individual ZORA modules",
    "version": 1
  }
}