{
  "address": "0x750392da88F1a48D93f76F5d552c87FCB6dDeF72",
  "abi": [
    {
      "inputs": [
        {
          "internalType": "address",
          "name": "_initialOwner",
          "type": "address"
        }
      ],
      "stateMutability": "nonpayable",
      "type": "constructor"
    },
    {
      "anonymous": false,
      "inputs": [
        {
          "indexed": true,
          "internalType": "address",
          "name": "collection",
          "type": "address"
        },
        {
          "indexed": true,
          "internalType": "address",
          "name": "creator",
          "type": "address"
        },
        {
          "indexed": false,
          "internalType": "uint256",
          "name": "lockedAmount",
          "type": "uint256"
        },
        {
          "indexed": false,
          "internalType": "uint256",
          "name": "chainId",
          "type": "uint256"
        }
      ],
      "name": "CollectionAdded",
      "type": "event"
    },
    {
      "anonymous": false,
      "inputs": [
        {
          "indexed": true,
          "internalType": "address",
          "name": "collection",
          "type": "address"
        },
        {
          "indexed": true,
          "internalType": "address",
          "name": "creator",
          "type": "address"
        },
        {
          "indexed": false,
          "internalType": "uint256",
          "name": "unlockedAmount",
          "type": "uint256"
        },
        {
          "indexed": false,
          "internalType": "uint256",
          "name": "chainId",
          "type": "uint256"
        }
      ],
      "name": "CollectionRemoved",
      "type": "event"
    },
    {
      "anonymous": false,
      "inputs": [
        {
          "indexed": true,
          "internalType": "address",
          "name": "token",
          "type": "address"
        },
        {
          "indexed": false,
          "internalType": "uint256",
          "name": "amount",
          "type": "uint256"
        }
      ],
      "name": "EmergencyWithdraw",
      "type": "event"
    },
    {
      "anonymous": false,
      "inputs": [
        {
          "indexed": true,
          "internalType": "address",
          "name": "previousOwner",
          "type": "address"
        },
        {
          "indexed": true,
          "internalType": "address",
          "name": "newOwner",
          "type": "address"
        }
      ],
      "name": "OwnershipTransferred",
      "type": "event"
    },
    {
      "anonymous": false,
      "inputs": [
        {
          "indexed": true,
          "internalType": "bytes32",
          "name": "role",
          "type": "bytes32"
        },
        {
          "indexed": true,
          "internalType": "bytes32",
          "name": "previousAdminRole",
          "type": "bytes32"
        },
        {
          "indexed": true,
          "internalType": "bytes32",
          "name": "newAdminRole",
          "type": "bytes32"
        }
      ],
      "name": "RoleAdminChanged",
      "type": "event"
    },
    {
      "anonymous": false,
      "inputs": [
        {
          "indexed": true,
          "internalType": "bytes32",
          "name": "role",
          "type": "bytes32"
        },
        {
          "indexed": true,
          "internalType": "address",
          "name": "account",
          "type": "address"
        },
        {
          "indexed": true,
          "internalType": "address",
          "name": "sender",
          "type": "address"
        }
      ],
      "name": "RoleGranted",
      "type": "event"
    },
    {
      "anonymous": false,
      "inputs": [
        {
          "indexed": true,
          "internalType": "bytes32",
          "name": "role",
          "type": "bytes32"
        },
        {
          "indexed": true,
          "internalType": "address",
          "name": "account",
          "type": "address"
        },
        {
          "indexed": true,
          "internalType": "address",
          "name": "sender",
          "type": "address"
        }
      ],
      "name": "RoleRevoked",
      "type": "event"
    },
    {
      "anonymous": false,
      "inputs": [
        {
          "indexed": false,
          "internalType": "uint256",
          "name": "oldPrice",
          "type": "uint256"
        },
        {
          "indexed": false,
          "internalType": "uint256",
          "name": "newPrice",
          "type": "uint256"
        }
      ],
      "name": "WLPriceSet",
      "type": "event"
    },
    {
      "anonymous": false,
      "inputs": [
        {
          "indexed": true,
          "internalType": "address",
          "name": "oldToken",
          "type": "address"
        },
        {
          "indexed": true,
          "internalType": "address",
          "name": "newToken",
          "type": "address"
        }
      ],
      "name": "WLTokenSet",
      "type": "event"
    },
    {
      "inputs": [],
      "name": "DEFAULT_ADMIN_ROLE",
      "outputs": [
        {
          "internalType": "bytes32",
          "name": "",
          "type": "bytes32"
        }
      ],
      "stateMutability": "view",
      "type": "function"
    },
    {
      "inputs": [],
      "name": "WL_ADMIN_ROLE",
      "outputs": [
        {
          "internalType": "bytes32",
          "name": "",
          "type": "bytes32"
        }
      ],
      "stateMutability": "view",
      "type": "function"
    },
    {
      "inputs": [
        {
          "internalType": "address",
          "name": "collection",
          "type": "address"
        },
        {
          "internalType": "uint256",
          "name": "chainId",
          "type": "uint256"
        }
      ],
      "name": "addToWL",
      "outputs": [],
      "stateMutability": "nonpayable",
      "type": "function"
    },
    {
      "inputs": [
        {
          "internalType": "address",
          "name": "",
          "type": "address"
        }
      ],
      "name": "collections",
      "outputs": [
        {
          "internalType": "address",
          "name": "creator",
          "type": "address"
        },
        {
          "internalType": "address",
          "name": "collection",
          "type": "address"
        },
        {
          "internalType": "uint256",
          "name": "chainId",
          "type": "uint256"
        },
        {
          "internalType": "uint256",
          "name": "lockedAmount",
          "type": "uint256"
        }
      ],
      "stateMutability": "view",
      "type": "function"
    },
    {
      "inputs": [
        {
          "internalType": "address",
          "name": "token",
          "type": "address"
        },
        {
          "internalType": "address",
          "name": "to",
          "type": "address"
        },
        {
          "internalType": "uint256",
          "name": "amount",
          "type": "uint256"
        }
      ],
      "name": "emergencyWithdraw",
      "outputs": [],
      "stateMutability": "nonpayable",
      "type": "function"
    },
    {
      "inputs": [],
      "name": "getAvailableBalance",
      "outputs": [
        {
          "internalType": "uint256",
          "name": "",
          "type": "uint256"
        }
      ],
      "stateMutability": "view",
      "type": "function"
    },
    {
      "inputs": [
        {
          "internalType": "address",
          "name": "collection",
          "type": "address"
        }
      ],
      "name": "getCollection",
      "outputs": [
        {
          "internalType": "address",
          "name": "creator",
          "type": "address"
        },
        {
          "internalType": "uint256",
          "name": "chainId",
          "type": "uint256"
        },
        {
          "internalType": "uint256",
          "name": "lockedAmount",
          "type": "uint256"
        }
      ],
      "stateMutability": "view",
      "type": "function"
    },
    {
      "inputs": [
        {
          "internalType": "bytes32",
          "name": "role",
          "type": "bytes32"
        }
      ],
      "name": "getRoleAdmin",
      "outputs": [
        {
          "internalType": "bytes32",
          "name": "",
          "type": "bytes32"
        }
      ],
      "stateMutability": "view",
      "type": "function"
    },
    {
      "inputs": [
        {
          "internalType": "bytes32",
          "name": "role",
          "type": "bytes32"
        },
        {
          "internalType": "address",
          "name": "account",
          "type": "address"
        }
      ],
      "name": "grantRole",
      "outputs": [],
      "stateMutability": "nonpayable",
      "type": "function"
    },
    {
      "inputs": [
        {
          "internalType": "bytes32",
          "name": "role",
          "type": "bytes32"
        },
        {
          "internalType": "address",
          "name": "account",
          "type": "address"
        }
      ],
      "name": "hasRole",
      "outputs": [
        {
          "internalType": "bool",
          "name": "",
          "type": "bool"
        }
      ],
      "stateMutability": "view",
      "type": "function"
    },
    {
      "inputs": [],
      "name": "owner",
      "outputs": [
        {
          "internalType": "address",
          "name": "",
          "type": "address"
        }
      ],
      "stateMutability": "view",
      "type": "function"
    },
    {
      "inputs": [
        {
          "internalType": "address",
          "name": "collection",
          "type": "address"
        }
      ],
      "name": "removeFromWL",
      "outputs": [],
      "stateMutability": "nonpayable",
      "type": "function"
    },
    {
      "inputs": [],
      "name": "renounceOwnership",
      "outputs": [],
      "stateMutability": "nonpayable",
      "type": "function"
    },
    {
      "inputs": [
        {
          "internalType": "bytes32",
          "name": "role",
          "type": "bytes32"
        },
        {
          "internalType": "address",
          "name": "account",
          "type": "address"
        }
      ],
      "name": "renounceRole",
      "outputs": [],
      "stateMutability": "nonpayable",
      "type": "function"
    },
    {
      "inputs": [
        {
          "internalType": "bytes32",
          "name": "role",
          "type": "bytes32"
        },
        {
          "internalType": "address",
          "name": "account",
          "type": "address"
        }
      ],
      "name": "revokeRole",
      "outputs": [],
      "stateMutability": "nonpayable",
      "type": "function"
    },
    {
      "inputs": [
        {
          "internalType": "uint256",
          "name": "_price",
          "type": "uint256"
        }
      ],
      "name": "setWLPrice",
      "outputs": [],
      "stateMutability": "nonpayable",
      "type": "function"
    },
    {
      "inputs": [
        {
          "internalType": "address",
          "name": "_wlToken",
          "type": "address"
        }
      ],
      "name": "setWLToken",
      "outputs": [],
      "stateMutability": "nonpayable",
      "type": "function"
    },
    {
      "inputs": [
        {
          "internalType": "bytes4",
          "name": "interfaceId",
          "type": "bytes4"
        }
      ],
      "name": "supportsInterface",
      "outputs": [
        {
          "internalType": "bool",
          "name": "",
          "type": "bool"
        }
      ],
      "stateMutability": "view",
      "type": "function"
    },
    {
      "inputs": [
        {
          "internalType": "address",
          "name": "newOwner",
          "type": "address"
        }
      ],
      "name": "transferOwnership",
      "outputs": [],
      "stateMutability": "nonpayable",
      "type": "function"
    },
    {
      "inputs": [],
      "name": "wlPrice",
      "outputs": [
        {
          "internalType": "uint256",
          "name": "",
          "type": "uint256"
        }
      ],
      "stateMutability": "view",
      "type": "function"
    },
    {
      "inputs": [],
      "name": "wlToken",
      "outputs": [
        {
          "internalType": "contract IERC20",
          "name": "",
          "type": "address"
        }
      ],
      "stateMutability": "view",
      "type": "function"
    }
  ],
  "transactionHash": "0x0efa485e39fdac3b91608d9792b6b05c99b547313cfb3b4d533e5890c04b8e65",
  "args": [
    "0xe223825497c435BAeaf318F03d33Ec704954028A"
  ],
  "numDeployments": 1,
  "solcInputHash": "bd54235e913ba127a33394b07623f800",
  "bytecode": "0x6080604052670de0b6b3a76400006004553480156200001d57600080fd5b506040516200182c3803806200182c8339810160408190526200004091620001ce565b6200004b33620000e6565b60016002556001600160a01b0381166200009b5760405162461bcd60e51b815260206004820152600d60248201526c24b73b30b634b21037bbb732b960991b604482015260640160405180910390fd5b620000a681620000e6565b620000b360008262000136565b620000df7f890890e02be6a0b8e1b70730bcef8a1c3cf7e7736f24f1faf9db9c6c31b693178262000136565b5062000200565b600080546001600160a01b038381166001600160a01b0319831681178455604051919092169283917f8be0079c531659141344cd1fd0a4f28419497f9722a3daafe3b4186f6b6457e09190a35050565b62000142828262000146565b5050565b60008281526001602090815260408083206001600160a01b038516845290915290205460ff16620001425760008281526001602081815260408084206001600160a01b0386168086529252808420805460ff19169093179092559051339285917f2f8788117e7eff1d82e926ec794901d17c78024a50270940304540a733656f0d9190a45050565b600060208284031215620001e157600080fd5b81516001600160a01b0381168114620001f957600080fd5b9392505050565b61161c80620002106000396000f3fe608060405234801561001057600080fd5b50600436106101075760003560e01c806301ffc9a71461010c5780631560ad2814610134578063248a9ca3146101695780632f2ff15d1461017c57806336568abe1461019157806343add2e6146101a45780636054859214610211578063715018a614610224578063809dab6a1461022c5780638da5cb5b1461023457806391d1485414610249578063a217fddf1461025c578063c7f8d01a14610264578063cdec95231461026d578063d547741f14610280578063e124f97a14610293578063e40de887146102a6578063e63ea40814610332578063f2fde38b14610345578063f6a5b8e614610358578063ffa237cb1461036b575b600080fd5b61011f61011a3660046112fc565b61037e565b60405190151581526020015b60405180910390f35b61015b7f890890e02be6a0b8e1b70730bcef8a1c3cf7e7736f24f1faf9db9c6c31b6931781565b60405190815260200161012b565b61015b610177366004611326565b6103b5565b61018f61018a36600461135b565b6103cb565b005b61018f61019f36600461135b565b6103ec565b6101e66101b2366004611387565b60056020526000908152604090208054600182015460028301546003909301546001600160a01b0392831693919092169184565b604080516001600160a01b03958616815294909316602085015291830152606082015260800161012b565b61018f61021f3660046113a2565b61046f565b61018f6106a2565b61015b6106b6565b61023c61072d565b60405161012b91906113cc565b61011f61025736600461135b565b61073c565b61015b600081565b61015b60045481565b61018f61027b366004611387565b610767565b61018f61028e36600461135b565b610971565b60035461023c906001600160a01b031681565b61030d6102b4366004611387565b6001600160a01b0380821660009081526005602090815260409182902082516080810184528154851680825260018301549095169281019290925260028101549282018390526003015460609091018190529193909250565b604080516001600160a01b03909416845260208401929092529082015260600161012b565b61018f6103403660046113e0565b61098d565b61018f610353366004611387565b610a48565b61018f610366366004611326565b610abe565b61018f610379366004611387565b610b5a565b60006001600160e01b03198216637965db0b60e01b14806103af57506301ffc9a760e01b6001600160e01b03198316145b92915050565b6000908152600160208190526040909120015490565b6103d4826103b5565b6103dd81610c06565b6103e78383610c10565b505050565b6001600160a01b03811633146104615760405162461bcd60e51b815260206004820152602f60248201527f416363657373436f6e74726f6c3a2063616e206f6e6c792072656e6f756e636560448201526e103937b632b9903337b91039b2b63360891b60648201526084015b60405180910390fd5b61046b8282610c7b565b5050565b610477610ce2565b6001600160a01b0382166104ca5760405162461bcd60e51b815260206004820152601a602482015279496e76616c696420636f6c6c656374696f6e206164647265737360301b6044820152606401610458565b6001600160a01b0382811660009081526005602052604090205416156105325760405162461bcd60e51b815260206004820152601e60248201527f436f6c6c656374696f6e20616c72656164792077686974656c697374656400006044820152606401610458565b6003546001600160a01b031661055a5760405162461bcd60e51b81526004016104589061141c565b8060000361059c5760405162461bcd60e51b815260206004820152600f60248201526e125b9d985b1a590818da185a5b9259608a1b6044820152606401610458565b60006105c87f890890e02be6a0b8e1b70730bcef8a1c3cf7e7736f24f1faf9db9c6c31b693173361073c565b6105e857506004546003546105e8906001600160a01b0316333084610d39565b60408051608081018252338082526001600160a01b03868116602080850182815285870189815260608701898152600085815260058552899020975188549087166001600160a01b0319918216178955925160018901805491909716931692909217909455925160028601559151600390940193909355835185815290810186905290927ff420cc95aab43813152326455d7e355e48c3f7d375b8c8c31cc785b2eef9f4dc910160405180910390a35061046b6001600255565b6106aa610daa565b6106b46000610e09565b565b6003546040516370a0823160e01b81526000916001600160a01b0316906370a08231906106e79030906004016113cc565b602060405180830381865afa158015610704573d6000803e3d6000fd5b505050506040513d601f19601f820116820180604052508101906107289190611446565b905090565b6000546001600160a01b031690565b60009182526001602090815260408084206001600160a01b0393909316845291905290205460ff1690565b61076f610ce2565b6001600160a01b03818116600090815260056020526040902054166107d35760405162461bcd60e51b815260206004820152601a60248201527910dbdb1b1958dd1a5bdb881b9bdd081dda1a5d195b1a5cdd195960321b6044820152606401610458565b6001600160a01b038181166000908152600560205260409020541633146108355760405162461bcd60e51b81526020600482015260166024820152752737ba1031b7b63632b1ba34b7b71031b932b0ba37b960511b6044820152606401610458565b6003546001600160a01b031661085d5760405162461bcd60e51b81526004016104589061141c565b6001600160a01b0380821660009081526005602090815260409182902082516080810184528154851681526001820154909416918401919091526002810154918301919091526003015460608201819052156108d257805160608201516003546108d2926001600160a01b0390911691610e59565b6001600160a01b0380831660008181526005602052604080822080546001600160a01b03199081168255600182018054909116905560028101839055600301919091558351606085015185830151925191909416937f0ca9832f4ad5da468f9fbc41dc3d55d0f2d91888ed21ee60dbb1e5f84acb70a49261095b92918252602082015260400190565b60405180910390a35061096e6001600255565b50565b61097a826103b5565b61098381610c06565b6103e78383610c7b565b610995610daa565b61099d610ce2565b6001600160a01b0382166109e75760405162461bcd60e51b8152602060048201526011602482015270125b9d985b1a59081c9958da5c1a595b9d607a1b6044820152606401610458565b6109fb6001600160a01b0384168383610e59565b826001600160a01b03167f5fafa99d0643513820be26656b45130b01e1c03062e1266bf36f88cbd3bd969582604051610a3691815260200190565b60405180910390a26103e76001600255565b610a50610daa565b6001600160a01b038116610ab55760405162461bcd60e51b815260206004820152602660248201527f4f776e61626c653a206e6577206f776e657220697320746865207a65726f206160448201526564647265737360d01b6064820152608401610458565b61096e81610e09565b610ac6610daa565b60008111610b155760405162461bcd60e51b815260206004820152601c60248201527b05072696365206d7573742062652067726561746572207468616e20360241b6044820152606401610458565b600480549082905560408051828152602081018490527f63af036375ff9c560a1b987e40b5862268f62427961c3b74626605690b0c15ff910160405180910390a15050565b6000610b6581610c06565b6001600160a01b038216610bb35760405162461bcd60e51b8152602060048201526015602482015274496e76616c696420746f6b656e206164647265737360581b6044820152606401610458565b600380546001600160a01b038481166001600160a01b0319831681179093556040519116919082907f468a1beedf8641f81b81a11f4664a92ce3a2227092abd659679bb99ae395d2b790600090a3505050565b61096e8133610e89565b610c1a828261073c565b61046b5760008281526001602081815260408084206001600160a01b0386168086529252808420805460ff19169093179092559051339285917f2f8788117e7eff1d82e926ec794901d17c78024a50270940304540a733656f0d9190a45050565b610c85828261073c565b1561046b5760008281526001602090815260408083206001600160a01b0385168085529252808320805460ff1916905551339285917ff6391f5c32d9c69d2a47ea670b442974b53935d1edc7fd64eb21e047a839171b9190a45050565b6002805403610d335760405162461bcd60e51b815260206004820152601f60248201527f5265656e7472616e637947756172643a207265656e7472616e742063616c6c006044820152606401610458565b60028055565b6040516001600160a01b0380851660248301528316604482015260648101829052610da49085906323b872dd60e01b906084015b60408051601f198184030181529190526020810180516001600160e01b03166001600160e01b031990931692909217909152610ee2565b50505050565b33610db361072d565b6001600160a01b0316146106b45760405162461bcd60e51b815260206004820181905260248201527f4f776e61626c653a2063616c6c6572206973206e6f7420746865206f776e65726044820152606401610458565b600080546001600160a01b038381166001600160a01b0319831681178455604051919092169283917f8be0079c531659141344cd1fd0a4f28419497f9722a3daafe3b4186f6b6457e09190a35050565b6040516001600160a01b0383166024820152604481018290526103e790849063a9059cbb60e01b90606401610d6d565b610e93828261073c565b61046b57610ea081610fb7565b610eab836020610fc9565b604051602001610ebc929190611483565b60408051601f198184030181529082905262461bcd60e51b8252610458916004016114f2565b6000610f37826040518060400160405280602081526020017f5361666545524332303a206c6f772d6c6576656c2063616c6c206661696c6564815250856001600160a01b031661116c9092919063ffffffff16565b9050805160001480610f58575080806020019051810190610f589190611525565b6103e75760405162461bcd60e51b815260206004820152602a60248201527f5361666545524332303a204552433230206f7065726174696f6e20646964206e6044820152691bdd081cdd58d8d9595960b21b6064820152608401610458565b60606103af6001600160a01b03831660145b60606000610fd883600261155d565b610fe3906002611574565b67ffffffffffffffff811115610ffb57610ffb611587565b6040519080825280601f01601f191660200182016040528015611025576020820181803683370190505b509050600360fc1b816000815181106110405761104061159d565b60200101906001600160f81b031916908160001a905350600f60fb1b8160018151811061106f5761106f61159d565b60200101906001600160f81b031916908160001a905350600061109384600261155d565b61109e906001611574565b90505b6001811115611116576f181899199a1a9b1b9c1cb0b131b232b360811b85600f16601081106110d2576110d261159d565b1a60f81b8282815181106110e8576110e861159d565b60200101906001600160f81b031916908160001a90535060049490941c9361110f816115b3565b90506110a1565b5083156111655760405162461bcd60e51b815260206004820181905260248201527f537472696e67733a20686578206c656e67746820696e73756666696369656e746044820152606401610458565b9392505050565b606061117b8484600085611183565b949350505050565b6060824710156111e45760405162461bcd60e51b815260206004820152602660248201527f416464726573733a20696e73756666696369656e742062616c616e636520666f6044820152651c8818d85b1b60d21b6064820152608401610458565b600080866001600160a01b0316858760405161120091906115ca565b60006040518083038185875af1925050503d806000811461123d576040519150601f19603f3d011682016040523d82523d6000602084013e611242565b606091505b50915091506112538783838761125e565b979650505050505050565b606083156112cd5782516000036112c6576001600160a01b0385163b6112c65760405162461bcd60e51b815260206004820152601d60248201527f416464726573733a2063616c6c20746f206e6f6e2d636f6e74726163740000006044820152606401610458565b508161117b565b61117b83838151156112e25781518083602001fd5b8060405162461bcd60e51b815260040161045891906114f2565b60006020828403121561130e57600080fd5b81356001600160e01b03198116811461116557600080fd5b60006020828403121561133857600080fd5b5035919050565b80356001600160a01b038116811461135657600080fd5b919050565b6000806040838503121561136e57600080fd5b8235915061137e6020840161133f565b90509250929050565b60006020828403121561139957600080fd5b6111658261133f565b600080604083850312156113b557600080fd5b6113be8361133f565b946020939093013593505050565b6001600160a01b0391909116815260200190565b6000806000606084860312156113f557600080fd5b6113fe8461133f565b925061140c6020850161133f565b9150604084013590509250925092565b60208082526010908201526f15d3081d1bdad95b881b9bdd081cd95d60821b604082015260600190565b60006020828403121561145857600080fd5b5051919050565b60005b8381101561147a578181015183820152602001611462565b50506000910152565b76020b1b1b2b9b9a1b7b73a3937b61d1030b1b1b7bab73a1604d1b8152600083516114b581601785016020880161145f565b7001034b99036b4b9b9b4b733903937b6329607d1b60179184019182015283516114e681602884016020880161145f565b01602801949350505050565b602081526000825180602084015261151181604085016020870161145f565b601f01601f19169190910160400192915050565b60006020828403121561153757600080fd5b8151801515811461116557600080fd5b634e487b7160e01b600052601160045260246000fd5b80820281158282048414176103af576103af611547565b808201808211156103af576103af611547565b634e487b7160e01b600052604160045260246000fd5b634e487b7160e01b600052603260045260246000fd5b6000816115c2576115c2611547565b506000190190565b600082516115dc81846020870161145f565b919091019291505056fea26469706673582212208f6034aa263b061b0933cdc5ef3b3a32e9d1c25df7735b91db47f6e97207825b64736f6c63430008170033",
  "devdoc": {
    "events": {
      "RoleAdminChanged(bytes32,bytes32,bytes32)": {
        "details": "Emitted when `newAdminRole` is set as ``role``'s admin role, replacing `previousAdminRole` `DEFAULT_ADMIN_ROLE` is the starting admin for all roles, despite {RoleAdminChanged} not being emitted signaling this. _Available since v3.1._"
      },
      "RoleGranted(bytes32,address,address)": {
        "details": "Emitted when `account` is granted `role`. `sender` is the account that originated the contract call, an admin role bearer except when using {AccessControl-_setupRole}."
      },
      "RoleRevoked(bytes32,address,address)": {
        "details": "Emitted when `account` is revoked `role`. `sender` is the account that originated the contract call:   - if using `revokeRole`, it is the admin role bearer   - if using `renounceRole`, it is the role bearer (i.e. `account`)"
      }
    },
    "kind": "dev",
    "methods": {
      "addToWL(address,uint256)": {
        "params": {
          "chainId": "The chainId associated with the collection (supplied by caller).",
          "collection": "The collection address."
        }
      },
      "getRoleAdmin(bytes32)": {
        "details": "Returns the admin role that controls `role`. See {grantRole} and {revokeRole}. To change a role's admin, use {_setRoleAdmin}."
      },
      "grantRole(bytes32,address)": {
        "details": "Grants `role` to `account`. If `account` had not been already granted `role`, emits a {RoleGranted} event. Requirements: - the caller must have ``role``'s admin role. May emit a {RoleGranted} event."
      },
      "hasRole(bytes32,address)": {
        "details": "Returns `true` if `account` has been granted `role`."
      },
      "owner()": {
        "details": "Returns the address of the current owner."
      },
      "renounceOwnership()": {
        "details": "Leaves the contract without owner. It will not be possible to call `onlyOwner` functions. Can only be called by the current owner. NOTE: Renouncing ownership will leave the contract without an owner, thereby disabling any functionality that is only available to the owner."
      },
      "renounceRole(bytes32,address)": {
        "details": "Revokes `role` from the calling account. Roles are often managed via {grantRole} and {revokeRole}: this function's purpose is to provide a mechanism for accounts to lose their privileges if they are compromised (such as when a trusted device is misplaced). If the calling account had been revoked `role`, emits a {RoleRevoked} event. Requirements: - the caller must be `account`. May emit a {RoleRevoked} event."
      },
      "revokeRole(bytes32,address)": {
        "details": "Revokes `role` from `account`. If `account` had been granted `role`, emits a {RoleRevoked} event. Requirements: - the caller must have ``role``'s admin role. May emit a {RoleRevoked} event."
      },
      "supportsInterface(bytes4)": {
        "details": "See {IERC165-supportsInterface}."
      },
      "transferOwnership(address)": {
        "details": "Transfers ownership of the contract to a new account (`newOwner`). Can only be called by the current owner."
      }
    },
    "version": 1
  },
  "userdoc": {
    "kind": "user",
    "methods": {
      "addToWL(address,uint256)": {
        "notice": "Adds a collection to the whitelist."
      },
      "emergencyWithdraw(address,address,uint256)": {
        "notice": "Owner can withdraw ERC20 tokens in emergency."
      },
      "getAvailableBalance()": {
        "notice": "Returns available ERC20 token balance (locked + unclaimed)."
      },
      "getCollection(address)": {
        "notice": "Returns info about a collection."
      },
      "removeFromWL(address)": {
        "notice": "Removes a collection from the whitelist. Only WL_ADMIN_ROLE can call this. Returns locked tokens to the creator if any."
      }
    },
    "version": 1
  },
  "storageLayout": {
    "storage": [
      {
        "astId": 3807,
        "contract": "src/WLCollectionRegistry.sol:WLCollectionRegistry",
        "label": "_owner",
        "offset": 0,
        "slot": "0",
        "type": "t_address"
      },
      {
        "astId": 3435,
        "contract": "src/WLCollectionRegistry.sol:WLCollectionRegistry",
        "label": "_roles",
        "offset": 0,
        "slot": "1",
        "type": "t_mapping(t_bytes32,t_struct(RoleData)3430_storage)"
      },
      {
        "astId": 3923,
        "contract": "src/WLCollectionRegistry.sol:WLCollectionRegistry",
        "label": "_status",
        "offset": 0,
        "slot": "2",
        "type": "t_uint256"
      },
      {
        "astId": 19528,
        "contract": "src/WLCollectionRegistry.sol:WLCollectionRegistry",
        "label": "wlToken",
        "offset": 0,
        "slot": "3",
        "type": "t_contract(IERC20)4642"
      },
      {
        "astId": 19531,
        "contract": "src/WLCollectionRegistry.sol:WLCollectionRegistry",
        "label": "wlPrice",
        "offset": 0,
        "slot": "4",
        "type": "t_uint256"
      },
      {
        "astId": 19545,
        "contract": "src/WLCollectionRegistry.sol:WLCollectionRegistry",
        "label": "collections",
        "offset": 0,
        "slot": "5",
        "type": "t_mapping(t_address,t_struct(Collection)19540_storage)"
      }
    ],
    "types": {
      "t_address": {
        "encoding": "inplace",
        "label": "address",
        "numberOfBytes": "20"
      },
      "t_bool": {
        "encoding": "inplace",
        "label": "bool",
        "numberOfBytes": "1"
      },
      "t_bytes32": {
        "encoding": "inplace",
        "label": "bytes32",
        "numberOfBytes": "32"
      },
      "t_contract(IERC20)4642": {
        "encoding": "inplace",
        "label": "contract IERC20",
        "numberOfBytes": "20"
      },
      "t_mapping(t_address,t_bool)": {
        "encoding": "mapping",
        "key": "t_address",
        "label": "mapping(address => bool)",
        "numberOfBytes": "32",
        "value": "t_bool"
      },
      "t_mapping(t_address,t_struct(Collection)19540_storage)": {
        "encoding": "mapping",
        "key": "t_address",
        "label": "mapping(address => struct WLCollectionRegistry.Collection)",
        "numberOfBytes": "32",
        "value": "t_struct(Collection)19540_storage"
      },
      "t_mapping(t_bytes32,t_struct(RoleData)3430_storage)": {
        "encoding": "mapping",
        "key": "t_bytes32",
        "label": "mapping(bytes32 => struct AccessControl.RoleData)",
        "numberOfBytes": "32",
        "value": "t_struct(RoleData)3430_storage"
      },
      "t_struct(Collection)19540_storage": {
        "encoding": "inplace",
        "label": "struct WLCollectionRegistry.Collection",
        "members": [
          {
            "astId": 19533,
            "contract": "src/WLCollectionRegistry.sol:WLCollectionRegistry",
            "label": "creator",
            "offset": 0,
            "slot": "0",
            "type": "t_address"
          },
          {
            "astId": 19535,
            "contract": "src/WLCollectionRegistry.sol:WLCollectionRegistry",
            "label": "collection",
            "offset": 0,
            "slot": "1",
            "type": "t_address"
          },
          {
            "astId": 19537,
            "contract": "src/WLCollectionRegistry.sol:WLCollectionRegistry",
            "label": "chainId",
            "offset": 0,
            "slot": "2",
            "type": "t_uint256"
          },
          {
            "astId": 19539,
            "contract": "src/WLCollectionRegistry.sol:WLCollectionRegistry",
            "label": "lockedAmount",
            "offset": 0,
            "slot": "3",
            "type": "t_uint256"
          }
        ],
        "numberOfBytes": "128"
      },
      "t_struct(RoleData)3430_storage": {
        "encoding": "inplace",
        "label": "struct AccessControl.RoleData",
        "members": [
          {
            "astId": 3427,
            "contract": "src/WLCollectionRegistry.sol:WLCollectionRegistry",
            "label": "members",
            "offset": 0,
            "slot": "0",
            "type": "t_mapping(t_address,t_bool)"
          },
          {
            "astId": 3429,
            "contract": "src/WLCollectionRegistry.sol:WLCollectionRegistry",
            "label": "adminRole",
            "offset": 0,
            "slot": "1",
            "type": "t_bytes32"
          }
        ],
        "numberOfBytes": "64"
      },
      "t_uint256": {
        "encoding": "inplace",
        "label": "uint256",
        "numberOfBytes": "32"
      }
    }
  }
}