{
  "contractName": "ERC1155RaribleUser",
  "abi": [
    {
      "anonymous": false,
      "inputs": [
        {
          "indexed": true,
          "internalType": "address",
          "name": "account",
          "type": "address"
        },
        {
          "indexed": true,
          "internalType": "address",
          "name": "operator",
          "type": "address"
        },
        {
          "indexed": false,
          "internalType": "bool",
          "name": "approved",
          "type": "bool"
        }
      ],
      "name": "ApprovalForAll",
      "type": "event"
    },
    {
      "anonymous": false,
      "inputs": [
        {
          "indexed": false,
          "internalType": "uint256",
          "name": "tokenId",
          "type": "uint256"
        },
        {
          "indexed": false,
          "internalType": "address[]",
          "name": "creators",
          "type": "address[]"
        }
      ],
      "name": "Creators",
      "type": "event"
    },
    {
      "anonymous": false,
      "inputs": [
        {
          "indexed": true,
          "internalType": "address",
          "name": "operator",
          "type": "address"
        },
        {
          "indexed": false,
          "internalType": "bool",
          "name": "hasApproval",
          "type": "bool"
        }
      ],
      "name": "DefaultApproval",
      "type": "event"
    },
    {
      "anonymous": false,
      "inputs": [
        {
          "indexed": true,
          "internalType": "address",
          "name": "previousOwner",
          "type": "address"
        },
        {
          "indexed": true,
          "internalType": "address",
          "name": "newOwner",
          "type": "address"
        }
      ],
      "name": "OwnershipTransferred",
      "type": "event"
    },
    {
      "anonymous": false,
      "inputs": [
        {
          "indexed": false,
          "internalType": "uint256",
          "name": "tokenId",
          "type": "uint256"
        },
        {
          "components": [
            {
              "internalType": "address payable",
              "name": "account",
              "type": "address"
            },
            {
              "internalType": "uint256",
              "name": "value",
              "type": "uint256"
            }
          ],
          "indexed": false,
          "internalType": "struct LibPart.Part[]",
          "name": "fees",
          "type": "tuple[]"
        }
      ],
      "name": "RoyaltiesSet",
      "type": "event"
    },
    {
      "anonymous": false,
      "inputs": [
        {
          "indexed": false,
          "internalType": "uint256",
          "name": "tokenId",
          "type": "uint256"
        },
        {
          "indexed": false,
          "internalType": "uint256",
          "name": "value",
          "type": "uint256"
        }
      ],
      "name": "Supply",
      "type": "event"
    },
    {
      "anonymous": false,
      "inputs": [
        {
          "indexed": true,
          "internalType": "address",
          "name": "operator",
          "type": "address"
        },
        {
          "indexed": true,
          "internalType": "address",
          "name": "from",
          "type": "address"
        },
        {
          "indexed": true,
          "internalType": "address",
          "name": "to",
          "type": "address"
        },
        {
          "indexed": false,
          "internalType": "uint256[]",
          "name": "ids",
          "type": "uint256[]"
        },
        {
          "indexed": false,
          "internalType": "uint256[]",
          "name": "values",
          "type": "uint256[]"
        }
      ],
      "name": "TransferBatch",
      "type": "event"
    },
    {
      "anonymous": false,
      "inputs": [
        {
          "indexed": true,
          "internalType": "address",
          "name": "operator",
          "type": "address"
        },
        {
          "indexed": true,
          "internalType": "address",
          "name": "from",
          "type": "address"
        },
        {
          "indexed": true,
          "internalType": "address",
          "name": "to",
          "type": "address"
        },
        {
          "indexed": false,
          "internalType": "uint256",
          "name": "id",
          "type": "uint256"
        },
        {
          "indexed": false,
          "internalType": "uint256",
          "name": "value",
          "type": "uint256"
        }
      ],
      "name": "TransferSingle",
      "type": "event"
    },
    {
      "anonymous": false,
      "inputs": [
        {
          "indexed": false,
          "internalType": "string",
          "name": "value",
          "type": "string"
        },
        {
          "indexed": true,
          "internalType": "uint256",
          "name": "id",
          "type": "uint256"
        }
      ],
      "name": "URI",
      "type": "event"
    },
    {
      "inputs": [
        {
          "internalType": "address",
          "name": "account",
          "type": "address"
        },
        {
          "internalType": "uint256",
          "name": "id",
          "type": "uint256"
        }
      ],
      "name": "balanceOf",
      "outputs": [
        {
          "internalType": "uint256",
          "name": "",
          "type": "uint256"
        }
      ],
      "stateMutability": "view",
      "type": "function"
    },
    {
      "inputs": [
        {
          "internalType": "address[]",
          "name": "accounts",
          "type": "address[]"
        },
        {
          "internalType": "uint256[]",
          "name": "ids",
          "type": "uint256[]"
        }
      ],
      "name": "balanceOfBatch",
      "outputs": [
        {
          "internalType": "uint256[]",
          "name": "",
          "type": "uint256[]"
        }
      ],
      "stateMutability": "view",
      "type": "function"
    },
    {
      "inputs": [],
      "name": "baseURI",
      "outputs": [
        {
          "internalType": "string",
          "name": "",
          "type": "string"
        }
      ],
      "stateMutability": "view",
      "type": "function"
    },
    {
      "inputs": [
        {
          "internalType": "address",
          "name": "account",
          "type": "address"
        },
        {
          "internalType": "uint256",
          "name": "id",
          "type": "uint256"
        },
        {
          "internalType": "uint256",
          "name": "value",
          "type": "uint256"
        }
      ],
      "name": "burn",
      "outputs": [],
      "stateMutability": "nonpayable",
      "type": "function"
    },
    {
      "inputs": [
        {
          "internalType": "address",
          "name": "account",
          "type": "address"
        },
        {
          "internalType": "uint256[]",
          "name": "ids",
          "type": "uint256[]"
        },
        {
          "internalType": "uint256[]",
          "name": "values",
          "type": "uint256[]"
        }
      ],
      "name": "burnBatch",
      "outputs": [],
      "stateMutability": "nonpayable",
      "type": "function"
    },
    {
      "inputs": [],
      "name": "contractURI",
      "outputs": [
        {
          "internalType": "string",
          "name": "",
          "type": "string"
        }
      ],
      "stateMutability": "view",
      "type": "function"
    },
    {
      "inputs": [
        {
          "internalType": "uint256",
          "name": "",
          "type": "uint256"
        },
        {
          "internalType": "uint256",
          "name": "",
          "type": "uint256"
        }
      ],
      "name": "creators",
      "outputs": [
        {
          "internalType": "address",
          "name": "",
          "type": "address"
        }
      ],
      "stateMutability": "view",
      "type": "function"
    },
    {
      "inputs": [
        {
          "internalType": "uint256",
          "name": "",
          "type": "uint256"
        },
        {
          "internalType": "uint256",
          "name": "",
          "type": "uint256"
        }
      ],
      "name": "fees",
      "outputs": [
        {
          "internalType": "address payable",
          "name": "account",
          "type": "address"
        },
        {
          "internalType": "uint256",
          "name": "value",
          "type": "uint256"
        }
      ],
      "stateMutability": "view",
      "type": "function"
    },
    {
      "inputs": [
        {
          "internalType": "uint256",
          "name": "_id",
          "type": "uint256"
        }
      ],
      "name": "getCreators",
      "outputs": [
        {
          "internalType": "address[]",
          "name": "",
          "type": "address[]"
        }
      ],
      "stateMutability": "view",
      "type": "function"
    },
    {
      "inputs": [
        {
          "internalType": "uint256",
          "name": "id",
          "type": "uint256"
        }
      ],
      "name": "getRoyalties",
      "outputs": [
        {
          "components": [
            {
              "internalType": "address payable",
              "name": "account",
              "type": "address"
            },
            {
              "internalType": "uint256",
              "name": "value",
              "type": "uint256"
            }
          ],
          "internalType": "struct LibPart.Part[]",
          "name": "",
          "type": "tuple[]"
        }
      ],
      "stateMutability": "view",
      "type": "function"
    },
    {
      "inputs": [
        {
          "internalType": "address",
          "name": "_owner",
          "type": "address"
        },
        {
          "internalType": "address",
          "name": "_operator",
          "type": "address"
        }
      ],
      "name": "isApprovedForAll",
      "outputs": [
        {
          "internalType": "bool",
          "name": "",
          "type": "bool"
        }
      ],
      "stateMutability": "view",
      "type": "function"
    },
    {
      "inputs": [],
      "name": "name",
      "outputs": [
        {
          "internalType": "string",
          "name": "",
          "type": "string"
        }
      ],
      "stateMutability": "view",
      "type": "function"
    },
    {
      "inputs": [],
      "name": "owner",
      "outputs": [
        {
          "internalType": "address",
          "name": "",
          "type": "address"
        }
      ],
      "stateMutability": "view",
      "type": "function"
    },
    {
      "inputs": [],
      "name": "renounceOwnership",
      "outputs": [],
      "stateMutability": "nonpayable",
      "type": "function"
    },
    {
      "inputs": [
        {
          "internalType": "address",
          "name": "from",
          "type": "address"
        },
        {
          "internalType": "address",
          "name": "to",
          "type": "address"
        },
        {
          "internalType": "uint256[]",
          "name": "ids",
          "type": "uint256[]"
        },
        {
          "internalType": "uint256[]",
          "name": "amounts",
          "type": "uint256[]"
        },
        {
          "internalType": "bytes",
          "name": "data",
          "type": "bytes"
        }
      ],
      "name": "safeBatchTransferFrom",
      "outputs": [],
      "stateMutability": "nonpayable",
      "type": "function"
    },
    {
      "inputs": [
        {
          "internalType": "address",
          "name": "from",
          "type": "address"
        },
        {
          "internalType": "address",
          "name": "to",
          "type": "address"
        },
        {
          "internalType": "uint256",
          "name": "id",
          "type": "uint256"
        },
        {
          "internalType": "uint256",
          "name": "amount",
          "type": "uint256"
        },
        {
          "internalType": "bytes",
          "name": "data",
          "type": "bytes"
        }
      ],
      "name": "safeTransferFrom",
      "outputs": [],
      "stateMutability": "nonpayable",
      "type": "function"
    },
    {
      "inputs": [
        {
          "internalType": "address",
          "name": "operator",
          "type": "address"
        },
        {
          "internalType": "bool",
          "name": "approved",
          "type": "bool"
        }
      ],
      "name": "setApprovalForAll",
      "outputs": [],
      "stateMutability": "nonpayable",
      "type": "function"
    },
    {
      "inputs": [
        {
          "internalType": "address",
          "name": "operator",
          "type": "address"
        },
        {
          "internalType": "bool",
          "name": "hasApproval",
          "type": "bool"
        }
      ],
      "name": "setDefaultApproval",
      "outputs": [],
      "stateMutability": "nonpayable",
      "type": "function"
    },
    {
      "inputs": [
        {
          "internalType": "bytes4",
          "name": "interfaceId",
          "type": "bytes4"
        }
      ],
      "name": "supportsInterface",
      "outputs": [
        {
          "internalType": "bool",
          "name": "",
          "type": "bool"
        }
      ],
      "stateMutability": "view",
      "type": "function"
    },
    {
      "inputs": [],
      "name": "symbol",
      "outputs": [
        {
          "internalType": "string",
          "name": "",
          "type": "string"
        }
      ],
      "stateMutability": "view",
      "type": "function"
    },
    {
      "inputs": [
        {
          "internalType": "address",
          "name": "newOwner",
          "type": "address"
        }
      ],
      "name": "transferOwnership",
      "outputs": [],
      "stateMutability": "nonpayable",
      "type": "function"
    },
    {
      "inputs": [
        {
          "internalType": "uint256",
          "name": "id",
          "type": "uint256"
        }
      ],
      "name": "uri",
      "outputs": [
        {
          "internalType": "string",
          "name": "",
          "type": "string"
        }
      ],
      "stateMutability": "view",
      "type": "function"
    },
    {
      "inputs": [
        {
          "internalType": "string",
          "name": "_name",
          "type": "string"
        },
        {
          "internalType": "string",
          "name": "_symbol",
          "type": "string"
        },
        {
          "internalType": "string",
          "name": "baseURI",
          "type": "string"
        },
        {
          "internalType": "string",
          "name": "contractURI",
          "type": "string"
        }
      ],
      "name": "__ERC1155RaribleUser_init",
      "outputs": [],
      "stateMutability": "nonpayable",
      "type": "function"
    },
    {
      "inputs": [
        {
          "components": [
            {
              "internalType": "uint256",
              "name": "tokenId",
              "type": "uint256"
            },
            {
              "internalType": "string",
              "name": "uri",
              "type": "string"
            },
            {
              "internalType": "uint256",
              "name": "supply",
              "type": "uint256"
            },
            {
              "internalType": "address[]",
              "name": "creators",
              "type": "address[]"
            },
            {
              "components": [
                {
                  "internalType": "address payable",
                  "name": "account",
                  "type": "address"
                },
                {
                  "internalType": "uint256",
                  "name": "value",
                  "type": "uint256"
                }
              ],
              "internalType": "struct LibPart.Part[]",
              "name": "royalties",
              "type": "tuple[]"
            },
            {
              "internalType": "bytes[]",
              "name": "signatures",
              "type": "bytes[]"
            }
          ],
          "internalType": "struct LibERC1155LazyMint.Mint1155Data",
          "name": "data",
          "type": "tuple"
        },
        {
          "internalType": "address",
          "name": "to",
          "type": "address"
        },
        {
          "internalType": "uint256",
          "name": "_amount",
          "type": "uint256"
        }
      ],
      "name": "mintAndTransfer",
      "outputs": [],
      "stateMutability": "nonpayable",
      "type": "function"
    }
  ],
  "bytecode": "0x608060405234801561001057600080fd5b50614504806100206000396000f3fe608060405234801561001057600080fd5b50600436106101575760003560e01c8063891be974116100c3578063e8a3d4851161007c578063e8a3d485146102ef578063e985e9c5146102f7578063f242432a1461030a578063f2fde38b1461031d578063f5298aca14610330578063f6cd41e11461034357610157565b8063891be9741461026c5780638da5cb5b1461028c57806395d89b41146102a157806398d0b4fb146102a9578063a22cb465146102bc578063bb3bafd6146102cf57610157565b80633cf90e2b116101155780633cf90e2b146101f55780634e1273f4146102085780636308f1cd146102285780636b20c454146102495780636c0360eb1461025c578063715018a61461026457610157565b8062fdd58e1461015c57806301ffc9a71461018557806306fdde03146101a55780630e89341c146101ba57806318054c37146101cd5780632eb2c2d6146101e2575b600080fd5b61016f61016a366004613b53565b610356565b60405161017c91906140ec565b60405180910390f35b610198610193366004613c12565b6103c5565b60405161017c9190613f3b565b6101ad6103e8565b60405161017c9190613f46565b6101ad6101c8366004613de3565b610477565b6101e06101db366004613b22565b610488565b005b6101e06101f03660046139a1565b61050a565b6101e0610203366004613c3a565b610808565b61021b610216366004613bb2565b61091a565b60405161017c9190613ef7565b61023b610236366004613dfb565b610a05565b60405161017c929190613e73565b6101e0610257366004613ab0565b610a4c565b6101ad610ac5565b6101e0610b5d565b61027f61027a366004613de3565b610c1b565b60405161017c9190613e8c565b610294610c88565b60405161017c9190613e5f565b6101ad610c97565b6102946102b7366004613dfb565b610cf3565b6101e06102ca366004613b22565b610d2c565b6102e26102dd366004613de3565b610e1b565b60405161017c9190613e9f565b6101ad610ea4565b610198610305366004613969565b610f00565b6101e0610318366004613a4a565b610f13565b6101e061032b36600461394d565b6110de565b6101e061033e366004613b7e565b6111f3565b6101e0610351366004613ce1565b611267565b60006001600160a01b03831661039d5760405162461bcd60e51b815260040180806020018281038252602b815260200180614280602b913960400191505060405180910390fd5b5060009081526097602090815260408083206001600160a01b03949094168352929052205490565b6001600160e01b0319811660009081526065602052604090205460ff165b919050565b610262805460408051602060026001851615610100026000190190941693909304601f8101849004840282018401909252818152929183018282801561046f5780601f106104445761010080835404028352916020019161046f565b820191906000526020600020905b81548152906001019060200180831161045257829003601f168201915b505050505081565b6060610482826112cb565b92915050565b610490611508565b6001600160a01b03166104a1610c88565b6001600160a01b0316146104fc576040805162461bcd60e51b815260206004820181905260248201527f4f776e61626c653a2063616c6c6572206973206e6f7420746865206f776e6572604482015290519081900360640190fd5b610506828261150c565b5050565b815183511461054a5760405162461bcd60e51b81526004018080602001828103825260288152602001806144866028913960400191505060405180910390fd5b6001600160a01b03841661058f5760405162461bcd60e51b81526004018080602001828103825260258152602001806143406025913960400191505060405180910390fd5b610597611508565b6001600160a01b0316856001600160a01b031614806105bd57506105bd85610305611508565b6105f85760405162461bcd60e51b81526004018080602001828103825260328152602001806143656032913960400191505060405180910390fd5b6000610602611508565b9050610612818787878787610800565b60005b845181101561071857600085828151811061062c57fe5b60200260200101519050600085838151811061064457fe5b602002602001015190506106b1816040518060600160405280602a815260200161440a602a91396097600086815260200190815260200160002060008d6001600160a01b03166001600160a01b031681526020019081526020016000205461156c9092919063ffffffff16565b60008381526097602090815260408083206001600160a01b038e811685529252808320939093558a16815220546106e89082611603565b60009283526097602090815260408085206001600160a01b038c1686529091529092209190915550600101610615565b50846001600160a01b0316866001600160a01b0316826001600160a01b03167f4a39dc06d4c0dbc64b70af90fd698a233a518aa5d07e595d983b8c0526c8f7fb8787604051808060200180602001838103835285818151815260200191508051906020019060200280838360005b8381101561079e578181015183820152602001610786565b50505050905001838103825284818151815260200191508051906020019060200280838360005b838110156107dd5781810151838201526020016107c5565b5050505090500194505050505060405180910390a461080081878787878761165d565b505050505050565b600054610100900460ff168061082157506108216118dc565b8061082f575060005460ff16155b61086a5760405162461bcd60e51b815260040180806020018281038252602e815260200180614397602e913960400191505060405180910390fd5b600054610100900460ff16158015610895576000805460ff1961ff0019909116610100171660011790555b61089d6118ed565b6108a56119e7565b6108ad611a98565b6108b5611b35565b6108bd611bd5565b6108d560405180602001604052806000815250611ca5565b6108de82611d70565b6108e6611b35565b6108ee611e22565b6108f88585611ebf565b61090183611f8c565b8015610913576000805461ff00191690555b5050505050565b6060815183511461095c5760405162461bcd60e51b815260040180806020018281038252602981526020018061445d6029913960400191505060405180910390fd5b600083516001600160401b038111801561097557600080fd5b5060405190808252806020026020018201604052801561099f578160200160208202803683370190505b50905060005b84518110156109fd576109de8582815181106109bd57fe5b60200260200101518583815181106109d157fe5b6020026020010151610356565b8282815181106109ea57fe5b60209081029190910101526001016109a5565b509392505050565b6101fa6020528160005260406000208181548110610a2257600080fd5b6000918252602090912060029091020180546001909101546001600160a01b039091169250905082565b610a54611508565b6001600160a01b0316836001600160a01b03161480610a7a5750610a7a83610305611508565b610ab55760405162461bcd60e51b81526004018080602001828103825260298152602001806142f56029913960400191505060405180910390fd5b610ac0838383611fa0565b505050565b61012f8054604080516020601f6002600019610100600188161502019095169490940493840181900481028201810190925282815260609390929091830182828015610b525780601f10610b2757610100808354040283529160200191610b52565b820191906000526020600020905b815481529060010190602001808311610b3557829003601f168201915b505050505090505b90565b610b65611508565b6001600160a01b0316610b76610c88565b6001600160a01b031614610bd1576040805162461bcd60e51b815260206004820181905260248201527f4f776e61626c653a2063616c6c6572206973206e6f7420746865206f776e6572604482015290519081900360640190fd5b6033546040516000916001600160a01b0316907f8be0079c531659141344cd1fd0a4f28419497f9722a3daafe3b4186f6b6457e0908390a3603380546001600160a01b0319169055565b60008181526101fb6020908152604091829020805483518184028101840190945280845260609392830182828015610c7c57602002820191906000526020600020905b81546001600160a01b03168152600190910190602001808311610c5e575b50505050509050919050565b6033546001600160a01b031690565b610263805460408051602060026001851615610100026000190190941693909304601f8101849004840282018401909252818152929183018282801561046f5780601f106104445761010080835404028352916020019161046f565b6101fb6020528160005260406000208181548110610d1057600080fd5b6000918252602090912001546001600160a01b03169150829050565b816001600160a01b0316610d3e611508565b6001600160a01b03161415610d845760405162461bcd60e51b81526004018080602001828103825260298152602001806144346029913960400191505060405180910390fd5b8060986000610d91611508565b6001600160a01b03908116825260208083019390935260409182016000908120918716808252919093529120805460ff191692151592909217909155610dd5611508565b6001600160a01b03167f17307eab39ab6107e8899845ad3d59bd9653f200f220920489ca2b5937696c318360405180821515815260200191505060405180910390a35050565b60606101fa6000838152602001908152602001600020805480602002602001604051908101604052809291908181526020016000905b82821015610e99576000848152602090819020604080518082019091526002850290910180546001600160a01b03168252600190810154828401529083529092019101610e51565b505050509050919050565b610230805460408051602060026001851615610100026000190190941693909304601f8101849004840282018401909252818152929183018282801561046f5780601f106104445761010080835404028352916020019161046f565b6000610f0c838361220e565b9392505050565b6001600160a01b038416610f585760405162461bcd60e51b81526004018080602001828103825260258152602001806143406025913960400191505060405180910390fd5b610f60611508565b6001600160a01b0316856001600160a01b03161480610f865750610f8685610305611508565b610fc15760405162461bcd60e51b81526004018080602001828103825260298152602001806142f56029913960400191505060405180910390fd5b6000610fcb611508565b9050610feb818787610fdc8861223a565b610fe58861223a565b87610800565b611032836040518060600160405280602a815260200161440a602a913960008781526097602090815260408083206001600160a01b038d168452909152902054919061156c565b60008581526097602090815260408083206001600160a01b038b811685529252808320939093558716815220546110699084611603565b60008581526097602090815260408083206001600160a01b03808b168086529184529382902094909455805188815291820187905280518a8416938616927fc3d58168c5ae7397731d063d5bbf3d657854427343f4c083240f7aacaa2d0f6292908290030190a461080081878787878761227f565b6110e6611508565b6001600160a01b03166110f7610c88565b6001600160a01b031614611152576040805162461bcd60e51b815260206004820181905260248201527f4f776e61626c653a2063616c6c6572206973206e6f7420746865206f776e6572604482015290519081900360640190fd5b6001600160a01b0381166111975760405162461bcd60e51b81526004018080602001828103825260268152602001806142ab6026913960400191505060405180910390fd5b6033546040516001600160a01b038084169216907f8be0079c531659141344cd1fd0a4f28419497f9722a3daafe3b4186f6b6457e090600090a3603380546001600160a01b0319166001600160a01b0392909216919091179055565b6111fb611508565b6001600160a01b0316836001600160a01b03161480611221575061122183610305611508565b61125c5760405162461bcd60e51b81526004018080602001828103825260298152602001806142f56029913960400191505060405180910390fd5b610ac08383836123f0565b826060015160008151811061127857fe5b60200260200101516001600160a01b0316611291610c88565b6001600160a01b0316146112c05760405162461bcd60e51b81526004016112b790613f99565b60405180910390fd5b610ac0838383612523565b600081815261012e6020908152604080832080548251601f60026000196101006001861615020190931692909204918201859004850281018501909352808352606094938301828280156113605780601f1061133557610100808354040283529160200191611360565b820191906000526020600020905b81548152906001019060200180831161134357829003601f168201915b505050505090506000611371610ac5565b9050805160001415611385575090506103e3565b8151156114465780826040516020018083805190602001908083835b602083106113c05780518252601f1990920191602091820191016113a1565b51815160209384036101000a600019018019909216911617905285519190930192850191508083835b602083106114085780518252601f1990920191602091820191016113e9565b6001836020036101000a03801982511681845116808217855250505050505090500192505050604051602081830303815290604052925050506103e3565b80611450856126de565b6040516020018083805190602001908083835b602083106114825780518252601f199092019160209182019101611463565b51815160209384036101000a600019018019909216911617905285519190930192850191508083835b602083106114ca5780518252601f1990920191602091820191016114ab565b6001836020036101000a0380198251168184511680821785525050505050509050019250505060405160208183030381529060405292505050919050565b3390565b6001600160a01b038216600081815260c96020908152604091829020805460ff1916851515908117909155825190815291517f270dbb8ba4292910ae92862466486be25c355c837270a3d8824b36a8bc7c653b9281900390910190a25050565b600081848411156115fb5760405162461bcd60e51b81526004018080602001828103825283818151815260200191508051906020019080838360005b838110156115c05781810151838201526020016115a8565b50505050905090810190601f1680156115ed5780820380516001836020036101000a031916815260200191505b509250505060405180910390fd5b505050900390565b600082820183811015610f0c576040805162461bcd60e51b815260206004820152601b60248201527f536166654d6174683a206164646974696f6e206f766572666c6f770000000000604482015290519081900360640190fd5b61166f846001600160a01b03166127b8565b1561080057836001600160a01b031663bc197c8187878686866040518663ffffffff1660e01b815260040180866001600160a01b03168152602001856001600160a01b03168152602001806020018060200180602001848103845287818151815260200191508051906020019060200280838360005b838110156116fd5781810151838201526020016116e5565b50505050905001848103835286818151815260200191508051906020019060200280838360005b8381101561173c578181015183820152602001611724565b50505050905001848103825285818151815260200191508051906020019080838360005b83811015611778578181015183820152602001611760565b50505050905090810190601f1680156117a55780820380516001836020036101000a031916815260200191505b5098505050505050505050602060405180830381600087803b1580156117ca57600080fd5b505af19250505080156117ef57506040513d60208110156117ea57600080fd5b505160015b611884576117fb61416a565b80611806575061184d565b60405162461bcd60e51b81526020600482018181528351602484015283518493919283926044019190850190808383600083156115c05781810151838201526020016115a8565b60405162461bcd60e51b81526004018080602001828103825260348152602001806142246034913960400191505060405180910390fd5b6001600160e01b0319811663bc197c8160e01b146118d35760405162461bcd60e51b81526004018080602001828103825260288152602001806142586028913960400191505060405180910390fd5b50505050505050565b60006118e7306127b8565b15905090565b600054610100900460ff168061190657506119066118dc565b80611914575060005460ff16155b61194f5760405162461bcd60e51b815260040180806020018281038252602e815260200180614397602e913960400191505060405180910390fd5b600054610100900460ff1615801561197a576000805460ff1961ff0019909116610100171660011790555b6000611984611508565b603380546001600160a01b0319166001600160a01b038316908117909155604051919250906000907f8be0079c531659141344cd1fd0a4f28419497f9722a3daafe3b4186f6b6457e0908290a35080156119e4576000805461ff00191690555b50565b600054610100900460ff1680611a005750611a006118dc565b80611a0e575060005460ff16155b611a495760405162461bcd60e51b815260040180806020018281038252602e815260200180614397602e913960400191505060405180910390fd5b600054610100900460ff16158015611a74576000805460ff1961ff0019909116610100171660011790555b611a84636db15a0f60e01b6127be565b80156119e4576000805461ff001916905550565b600054610100900460ff1680611ab15750611ab16118dc565b80611abf575060005460ff16155b611afa5760405162461bcd60e51b815260040180806020018281038252602e815260200180614397602e913960400191505060405180910390fd5b600054610100900460ff16158015611b25576000805460ff1961ff0019909116610100171660011790555b611a846301ffc9a760e01b6127be565b600054610100900460ff1680611b4e5750611b4e6118dc565b80611b5c575060005460ff16155b611b975760405162461bcd60e51b815260040180806020018281038252602e815260200180614397602e913960400191505060405180910390fd5b600054610100900460ff16158015611a84576000805460ff1961ff00199091166101001716600117905580156119e4576000805461ff001916905550565b600054610100900460ff1680611bee5750611bee6118dc565b80611bfc575060005460ff16155b611c375760405162461bcd60e51b815260040180806020018281038252602e815260200180614397602e913960400191505060405180910390fd5b600054610100900460ff16158015611c62576000805460ff1961ff0019909116610100171660011790555b611a84604051806040016040528060088152602001674d696e743131353560c01b815250604051806040016040528060018152602001603160f81b815250612842565b600054610100900460ff1680611cbe5750611cbe6118dc565b80611ccc575060005460ff16155b611d075760405162461bcd60e51b815260040180806020018281038252602e815260200180614397602e913960400191505060405180910390fd5b600054610100900460ff16158015611d32576000805460ff1961ff0019909116610100171660011790555b611d3b82612904565b611d4b636cdb3d1360e11b6127be565b611d5b6303a24d0760e21b6127be565b8015610506576000805461ff00191690555050565b600054610100900460ff1680611d895750611d896118dc565b80611d97575060005460ff16155b611dd25760405162461bcd60e51b815260040180806020018281038252602e815260200180614397602e913960400191505060405180910390fd5b600054610100900460ff16158015611dfd576000805460ff1961ff0019909116610100171660011790555b8151611e119061023090602085019061361d565b50611d5b63e8a3d48560e01b6127be565b600054610100900460ff1680611e3b5750611e3b6118dc565b80611e49575060005460ff16155b611e845760405162461bcd60e51b815260040180806020018281038252602e815260200180614397602e913960400191505060405180910390fd5b600054610100900460ff16158015611eaf576000805460ff1961ff0019909116610100171660011790555b611a84631131d2f360e21b6127be565b600054610100900460ff1680611ed85750611ed86118dc565b80611ee6575060005460ff16155b611f215760405162461bcd60e51b815260040180806020018281038252602e815260200180614397602e913960400191505060405180910390fd5b600054610100900460ff16158015611f4c576000805460ff1961ff0019909116610100171660011790555b8251611f609061026290602086019061361d565b508151611f759061026390602085019061361d565b508015610ac0576000805461ff0019169055505050565b80516105069061012f90602084019061361d565b6001600160a01b038316611fe55760405162461bcd60e51b81526004018080602001828103825260238152602001806143e76023913960400191505060405180910390fd5b80518251146120255760405162461bcd60e51b81526004018080602001828103825260288152602001806144866028913960400191505060405180910390fd5b600061202f611508565b905061204f81856000868660405180602001604052806000815250610800565b60005b835181101561212d576120e483828151811061206a57fe5b60200260200101516040518060600160405280602481526020016142d1602491396097600088868151811061209b57fe5b602002602001015181526020019081526020016000206000896001600160a01b03166001600160a01b031681526020019081526020016000205461156c9092919063ffffffff16565b609760008684815181106120f457fe5b602090810291909101810151825281810192909252604090810160009081206001600160a01b038a168252909252902055600101612052565b5060006001600160a01b0316846001600160a01b0316826001600160a01b03167f4a39dc06d4c0dbc64b70af90fd698a233a518aa5d07e595d983b8c0526c8f7fb8686604051808060200180602001838103835285818151815260200191508051906020019060200280838360005b838110156121b457818101518382015260200161219c565b50505050905001838103825284818151815260200191508051906020019060200280838360005b838110156121f35781810151838201526020016121db565b5050505090500194505050505060405180910390a450505050565b6001600160a01b038116600090815260c9602052604081205460ff1680610f0c5750610f0c8383612917565b6040805160018082528183019092526060916000919060208083019080368337019050509050828160008151811061226e57fe5b602090810291909101015292915050565b612291846001600160a01b03166127b8565b1561080057836001600160a01b031663f23a6e6187878686866040518663ffffffff1660e01b815260040180866001600160a01b03168152602001856001600160a01b0316815260200184815260200183815260200180602001828103825283818151815260200191508051906020019080838360005b83811015612320578181015183820152602001612308565b50505050905090810190601f16801561234d5780820380516001836020036101000a031916815260200191505b509650505050505050602060405180830381600087803b15801561237057600080fd5b505af192505050801561239557506040513d602081101561239057600080fd5b505160015b6123a1576117fb61416a565b6001600160e01b0319811663f23a6e6160e01b146118d35760405162461bcd60e51b81526004018080602001828103825260288152602001806142586028913960400191505060405180910390fd5b6001600160a01b0383166124355760405162461bcd60e51b81526004018080602001828103825260238152602001806143e76023913960400191505060405180910390fd5b600061243f611508565b905061246f818560006124518761223a565b61245a8761223a565b60405180602001604052806000815250610800565b6124b6826040518060600160405280602481526020016142d16024913960008681526097602090815260408083206001600160a01b038b168452909152902054919061156c565b60008481526097602090815260408083206001600160a01b03808a16808652918452828520959095558151888152928301879052815193949093908616927fc3d58168c5ae7397731d063d5bbf3d657854427343f4c083240f7aacaa2d0f6292908290030190a450505050565b825160601c6000612532611508565b9050846060015160008151811061254557fe5b60200260200101516001600160a01b0316826001600160a01b03161461257d5760405162461bcd60e51b81526004016112b790613ffa565b8460a00151518560600151511461259357600080fd5b806001600160a01b0316826001600160a01b031614806125b857506125b88282610f00565b6125d45760405162461bcd60e51b81526004016112b79061404f565b60008560400151116125f85760405162461bcd60e51b81526004016112b790613fd0565b600083116126185760405162461bcd60e51b81526004016112b790614025565b60008560200151511161263d5760405162461bcd60e51b81526004016112b7906140c1565b845160009081526101fc60205260409020546126bf5760005b8560600151518110156126765761266e828783612945565b600101612656565b50612689856000015186604001516129c1565b61269b85600001518660800151612a2b565b6126ad85600001518660600151612b90565b6126bf85600001518660200151612be2565b6109138486600001518560405180602001604052806000815250612ca6565b60608161270357506040805180820190915260018152600360fc1b60208201526103e3565b8160005b811561271b57600101600a82049150612707565b6000816001600160401b038111801561273357600080fd5b506040519080825280601f01601f19166020018201604052801561275e576020820181803683370190505b50859350905060001982015b83156127af57600a840660300160f81b8282806001900393508151811061278d57fe5b60200101906001600160f81b031916908160001a905350600a8404935061276a565b50949350505050565b3b151590565b6001600160e01b0319808216141561281d576040805162461bcd60e51b815260206004820152601c60248201527f4552433136353a20696e76616c696420696e7465726661636520696400000000604482015290519081900360640190fd5b6001600160e01b0319166000908152606560205260409020805460ff19166001179055565b600054610100900460ff168061285b575061285b6118dc565b80612869575060005460ff16155b6128a45760405162461bcd60e51b815260040180806020018281038252602e815260200180614397602e913960400191505060405180910390fd5b600054610100900460ff161580156128cf576000805460ff1961ff0019909116610100171660011790555b825160208085019190912083519184019190912061016291909155610163558015610ac0576000805461ff0019169055505050565b805161050690609990602084019061361d565b6001600160a01b03918216600090815260986020908152604080832093909416825291909152205460ff1690565b60008260600151828151811061295757fe5b60200260200101519050806001600160a01b0316846001600160a01b0316146129bb576129bb8360600151838151811061298d57fe5b602002602001015161299e85612cb2565b8560a0015185815181106129ae57fe5b6020026020010151612f16565b50505050565b60008281526101fc6020526040902054156129db57600080fd5b60008281526101fc602052604090819020829055517f5e2aa66efd74cce82b21852e317e5490d9ecc9e6bb953ae24d90851258cc2f5c90612a1f9084908490614116565b60405180910390a15050565b60005b8151811015610ac05760006001600160a01b0316828281518110612a4e57fe5b6020026020010151600001516001600160a01b03161415612ab6576040805162461bcd60e51b815260206004820152601b60248201527f526563697069656e742073686f756c642062652070726573656e740000000000604482015290519081900360640190fd5b818181518110612ac257fe5b60200260200101516020015160001415612b23576040805162461bcd60e51b815260206004820152601c60248201527f4665652076616c75652073686f756c6420626520706f73697469766500000000604482015290519081900360640190fd5b60008381526101fa602052604090208251839083908110612b4057fe5b602090810291909101810151825460018082018555600094855293839020825160029092020180546001600160a01b0319166001600160a01b039092169190911781559101519082015501612a2e565b60008281526101fb602090815260409091208251612bb0928401906136a9565b507f127e19f7745fe6feba13a6ef245e82c2512cb09256921c9d30656ac10a57bade8282604051612a1f9291906140f5565b600082815261012e602090815260409091208251612c029284019061361d565b50817f6bb7ff708619ba0610cba295a58592e0451dee2622938c8755667688daf3529b612c2e846112cb565b6040805160208082528351818301528351919283929083019185019080838360005b83811015612c68578181015183820152602001612c50565b50505050905090810190601f168015612c955780820380516001836020036101000a031916815260200191505b509250505060405180910390a25050565b6129bb84848484613150565b6000808260800151516001600160401b0381118015612cd057600080fd5b50604051908082528060200260200182016040528015612cfa578160200160208202803683370190505b50905060005b836080015151811015612d4c57612d2d84608001518281518110612d2057fe5b60200260200101516131bb565b828281518110612d3957fe5b6020908102919091010152600101612d00565b5060008360600151516001600160401b0381118015612d6a57600080fd5b50604051908082528060200260200182016040528015612d94578160200160208202803683370190505b50905060005b846060015151811015612dea5784606001518181518110612db757fe5b60200260200101516001600160a01b031660001b828281518110612dd757fe5b6020908102919091010152600101612d9a565b507fa08664f7916519ae3cc26fc8a25931cddec38cce362a88eeace5102a3f1fa956846000015185604001518660200151805190602001208460405160200180828051906020019060200280838360005b83811015612e53578181015183820152602001612e3b565b50505050905001915050604051602081830303815290604052805190602001208660405160200180828051906020019060200280838360005b83811015612ea4578181015183820152602001612e8c565b50505050905001915050604051602081830303815290604052805190602001206040516020018087815260200186815260200185815260200184815260200183815260200182815260200196505050505050506040516020818303038152906040528051906020012092505050919050565b6000612f218361321e565b9050612f35846001600160a01b03166127b8565b156130b05760408051630b135d3f60e11b815260048101838152602482019283528451604483015284516320c13b0b60e01b936001600160a01b03891693631626ba7e9387938993919260640190602085019080838360005b83811015612fa6578181015183820152602001612f8e565b50505050905090810190601f168015612fd35780820380516001836020036101000a031916815260200191505b50935050505060206040518083038186803b158015612ff157600080fd5b505afa158015613005573d6000803e3d6000fd5b505050506040513d602081101561301b57600080fd5b505160408051808201909152601c81527f7369676e617475726520766572696669636174696f6e206572726f72000000006020820152916001600160e01b0319909116146130aa5760405162461bcd60e51b81526020600482018181528351602484015283519092839260449091019190850190808383600083156115c05781810151838201526020016115a8565b506129bb565b6001600160a01b0384166130c4828461326a565b6001600160a01b0316146040518060400160405280601c81526020017f7369676e617475726520766572696669636174696f6e206572726f7200000000815250906109135760405162461bcd60e51b81526020600482018181528351602484015283519092839260449091019190850190808383600083156115c05781810151838201526020016115a8565b60008381526101fd602052604081205461316b908490611603565b60008581526101fc602052604090205490915081111561319d5760405162461bcd60e51b81526004016112b790614097565b60008481526101fd60205260409020819055610913858585856132ea565b8051602091820151604080517fde9f867c8c0082f67cb8553d1312c639b9fd36e285659afb024b603c39ade546818601526001600160a01b0390931683820152606080840192909252805180840390920182526080909201909152805191012090565b60006132286133eb565b82604051602001808061190160f01b81525060020183815260200182815260200192505050604051602081830303815290604052805190602001209050919050565b600081516041146132c2576040805162461bcd60e51b815260206004820152601f60248201527f45434453413a20696e76616c6964207369676e6174757265206c656e67746800604482015290519081900360640190fd5b60208201516040830151606084015160001a6132e08682858561342b565b9695505050505050565b6001600160a01b03841661332f5760405162461bcd60e51b81526004018080602001828103825260218152602001806144ae6021913960400191505060405180910390fd5b6000613339611508565b905061334b81600087610fdc8861223a565b60008481526097602090815260408083206001600160a01b03891684529091529020546133789084611603565b60008581526097602090815260408083206001600160a01b03808b16808652918452828520959095558151898152928301889052815190948616927fc3d58168c5ae7397731d063d5bbf3d657854427343f4c083240f7aacaa2d0f6292908290030190a46109138160008787878761227f565b60006134267f8b73c3c69bb8fe3d512ecc4cf759cc79239f7b179b0ffacaa9a75d522b39400f6134196135a9565b6134216135b0565b6135b7565b905090565b60007f7fffffffffffffffffffffffffffffff5d576e7357a4501ddfe92f46681b20a082111561348c5760405162461bcd60e51b815260040180806020018281038252602281526020018061431e6022913960400191505060405180910390fd5b8360ff16601b14806134a157508360ff16601c145b6134dc5760405162461bcd60e51b81526004018080602001828103825260228152602001806143c56022913960400191505060405180910390fd5b600060018686868660405160008152602001604052604051808581526020018460ff1681526020018381526020018281526020019450505050506020604051602081039080840390855afa158015613538573d6000803e3d6000fd5b5050604051601f1901519150506001600160a01b0381166135a0576040805162461bcd60e51b815260206004820152601860248201527f45434453413a20696e76616c6964207369676e61747572650000000000000000604482015290519081900360640190fd5b95945050505050565b6101625490565b6101635490565b60008383836135c4613619565b3060405160200180868152602001858152602001848152602001838152602001826001600160a01b03168152602001955050505050506040516020818303038152906040528051906020012090509392505050565b4690565b828054600181600116156101000203166002900490600052602060002090601f0160209004810192826136535760008555613699565b82601f1061366c57805160ff1916838001178555613699565b82800160010185558215613699579182015b8281111561369957825182559160200191906001019061367e565b506136a59291506136fe565b5090565b828054828255906000526020600020908101928215613699579160200282015b8281111561369957825182546001600160a01b0319166001600160a01b039091161782556020909201916001909101906136c9565b5b808211156136a557600081556001016136ff565b80356103e38161420e565b600082601f83011261372e578081fd5b8135602061374361373e83614147565b614124565b828152818101908583018385028701840188101561375f578586fd5b855b858110156137865781356137748161420e565b84529284019290840190600101613761565b5090979650505050505050565b600082601f8301126137a3578081fd5b813560206137b361373e83614147565b82815281810190858301855b85811015613786576137d6898684358b01016138e9565b845292840192908401906001016137bf565b600082601f8301126137f8578081fd5b8135602061380861373e83614147565b82815281810190858301604080860288018501891015613826578687fd5b865b868110156138815781838b03121561383e578788fd5b81518281018181106001600160401b038211171561385857fe5b835283356138658161420e565b8152838701358782015285529385019391810191600101613828565b509198975050505050505050565b600082601f83011261389f578081fd5b813560206138af61373e83614147565b82815281810190858301838502870184018810156138cb578586fd5b855b85811015613786578135845292840192908401906001016138cd565b600082601f8301126138f9578081fd5b81356001600160401b0381111561390c57fe5b61391f601f8201601f1916602001614124565b818152846020838601011115613933578283fd5b816020850160208301379081016020019190915292915050565b60006020828403121561395e578081fd5b8135610f0c8161420e565b6000806040838503121561397b578081fd5b82356139868161420e565b915060208301356139968161420e565b809150509250929050565b600080600080600060a086880312156139b8578081fd5b85356139c38161420e565b945060208601356139d38161420e565b935060408601356001600160401b03808211156139ee578283fd5b6139fa89838a0161388f565b94506060880135915080821115613a0f578283fd5b613a1b89838a0161388f565b93506080880135915080821115613a30578283fd5b50613a3d888289016138e9565b9150509295509295909350565b600080600080600060a08688031215613a61578283fd5b8535613a6c8161420e565b94506020860135613a7c8161420e565b9350604086013592506060860135915060808601356001600160401b03811115613aa4578182fd5b613a3d888289016138e9565b600080600060608486031215613ac4578081fd5b8335613acf8161420e565b925060208401356001600160401b0380821115613aea578283fd5b613af68783880161388f565b93506040860135915080821115613b0b578283fd5b50613b188682870161388f565b9150509250925092565b60008060408385031215613b34578182fd5b8235613b3f8161420e565b915060208301358015158114613996578182fd5b60008060408385031215613b65578182fd5b8235613b708161420e565b946020939093013593505050565b600080600060608486031215613b92578081fd5b8335613b9d8161420e565b95602085013595506040909401359392505050565b60008060408385031215613bc4578182fd5b82356001600160401b0380821115613bda578384fd5b613be68683870161371e565b93506020850135915080821115613bfb578283fd5b50613c088582860161388f565b9150509250929050565b600060208284031215613c23578081fd5b81356001600160e01b031981168114610f0c578182fd5b60008060008060808587031215613c4f578182fd5b84356001600160401b0380821115613c65578384fd5b613c71888389016138e9565b95506020870135915080821115613c86578384fd5b613c92888389016138e9565b94506040870135915080821115613ca7578384fd5b613cb3888389016138e9565b93506060870135915080821115613cc8578283fd5b50613cd5878288016138e9565b91505092959194509250565b600080600060608486031215613cf5578081fd5b83356001600160401b0380821115613d0b578283fd5b9085019060c08288031215613d1e578283fd5b613d2860c0614124565b82358152602083013582811115613d3d578485fd5b613d49898286016138e9565b60208301525060408301356040820152606083013582811115613d6a578485fd5b613d768982860161371e565b606083015250608083013582811115613d8d578485fd5b613d99898286016137e8565b60808301525060a083013582811115613db0578485fd5b613dbc89828601613793565b60a0830152509450613dd391505060208501613713565b9150604084013590509250925092565b600060208284031215613df4578081fd5b5035919050565b60008060408385031215613e0d578182fd5b50508035926020909101359150565b6000815180845260208085019450808401835b83811015613e545781516001600160a01b031687529582019590820190600101613e2f565b509495945050505050565b6001600160a01b0391909116815260200190565b6001600160a01b03929092168252602082015260400190565b600060208252610f0c6020830184613e1c565b602080825282518282018190526000919060409081850190868401855b82811015613eea57815180516001600160a01b03168552860151868501529284019290850190600101613ebc565b5091979650505050505050565b6020808252825182820181905260009190848201906040850190845b81811015613f2f57835183529284019291840191600101613f13565b50909695505050505050565b901515815260200190565b6000602080835283518082850152825b81811015613f7257858101830151858201604001528201613f56565b81811115613f835783604083870101525b50601f01601f1916929092016040019392505050565b60208082526017908201527f6d696e746572206973206e6f7420746865206f776e6572000000000000000000604082015260600190565b60208082526010908201526f1cdd5c1c1b1e481a5b98dbdc9c9958dd60821b604082015260600190565b6020808252601190820152701d1bdad95b9259081a5b98dbdc9c9958dd607a1b604082015260600190565b60208082526010908201526f185b5bdd5b9d081a5b98dbdc9c9958dd60821b604082015260600190565b60208082526028908201527f455243313135353a207472616e736665722063616c6c6572206973206e6f7420604082015267185c1c1c9bdd995960c21b606082015260800190565b60208082526010908201526f6d6f7265207468616e20737570706c7960801b604082015260600190565b6020808252601190820152701d5c9a481cda1bdd5b19081899481cd95d607a1b604082015260600190565b90815260200190565b60008382526040602083015261410e6040830184613e1c565b949350505050565b918252602082015260400190565b6040518181016001600160401b038111828210171561413f57fe5b604052919050565b60006001600160401b0382111561415a57fe5b5060209081020190565b60e01c90565b600060443d101561417a57610b5a565b600481823e6308c379a061418e8251614164565b1461419857610b5a565b6040513d600319016004823e80513d6001600160401b0381602484011181841117156141c75750505050610b5a565b828401925082519150808211156141e15750505050610b5a565b503d830160208284010111156141f957505050610b5a565b601f01601f1916810160200160405291505090565b6001600160a01b03811681146119e457600080fdfe455243313135353a207472616e7366657220746f206e6f6e2045524331313535526563656976657220696d706c656d656e746572455243313135353a204552433131353552656365697665722072656a656374656420746f6b656e73455243313135353a2062616c616e636520717565727920666f7220746865207a65726f20616464726573734f776e61626c653a206e6577206f776e657220697320746865207a65726f2061646472657373455243313135353a206275726e20616d6f756e7420657863656564732062616c616e6365455243313135353a2063616c6c6572206973206e6f74206f776e6572206e6f7220617070726f76656445434453413a20696e76616c6964207369676e6174757265202773272076616c7565455243313135353a207472616e7366657220746f20746865207a65726f2061646472657373455243313135353a207472616e736665722063616c6c6572206973206e6f74206f776e6572206e6f7220617070726f766564496e697469616c697a61626c653a20636f6e747261637420697320616c726561647920696e697469616c697a656445434453413a20696e76616c6964207369676e6174757265202776272076616c7565455243313135353a206275726e2066726f6d20746865207a65726f2061646472657373455243313135353a20696e73756666696369656e742062616c616e636520666f72207472616e73666572455243313135353a2073657474696e6720617070726f76616c2073746174757320666f722073656c66455243313135353a206163636f756e747320616e6420696473206c656e677468206d69736d61746368455243313135353a2069647320616e6420616d6f756e7473206c656e677468206d69736d61746368455243313135353a206d696e7420746f20746865207a65726f2061646472657373a2646970667358221220e449de3cf7082b0699aa590dfc4b8e1ba54fb9f11c65855ac0086793f3a1978a64736f6c63430007060033",
  "immutableReferences": {},
  "source": "// SPDX-License-Identifier: MIT\n\npragma solidity >=0.6.2 <0.8.0;\npragma abicoder v2;\n\nimport \"./ERC1155Base.sol\";\n\ncontract ERC1155RaribleUser is ERC1155Base {\n    function __ERC1155RaribleUser_init(string memory _name, string memory _symbol, string memory baseURI, string memory contractURI) external initializer {\n        __Ownable_init_unchained();\n        __ERC1155Lazy_init_unchained();\n        __ERC165_init_unchained();\n        __Context_init_unchained();\n        __Mint1155Validator_init_unchained();\n        __ERC1155_init_unchained(\"\");\n        __HasContractURI_init_unchained(contractURI);\n        __ERC1155Burnable_init_unchained();\n        __RoyaltiesV2Upgradeable_init_unchained();\n        __ERC1155Base_init_unchained(_name, _symbol);\n        _setBaseURI(baseURI);\n    }\n\n    function mintAndTransfer(LibERC1155LazyMint.Mint1155Data memory data, address to, uint256 _amount) public override {\n        require(owner() == data.creators[0], \"minter is not the owner\");\n        super.mintAndTransfer(data, to, _amount);\n    }\n    uint256[50] private __gap;\n}\n",
  "sourcePath": "/home/quadro/Projects/tokenplace/interfaces/tokens/contracts/erc-1155/ERC1155RaribleUser.sol",
  "compiler": {
    "name": "solc",
    "version": "0.7.6+commit.7338295f.Emscripten.clang"
  },
  "schemaVersion": "3.3.2",
  "updatedAt": "2021-03-17T14:38:52.006Z",
  "devdoc": {
    "kind": "dev",
    "methods": {
      "balanceOf(address,uint256)": {
        "details": "See {IERC1155-balanceOf}. Requirements: - `account` cannot be the zero address."
      },
      "balanceOfBatch(address[],uint256[])": {
        "details": "See {IERC1155-balanceOfBatch}. Requirements: - `accounts` and `ids` must have the same length."
      },
      "baseURI()": {
        "details": "Returns the base URI set via {_setBaseURI}. This will be automatically added as a prefix in {tokenURI} to each token's URI, or to the token ID if no specific URI is set for that token ID."
      },
      "owner()": {
        "details": "Returns the address of the current owner."
      },
      "renounceOwnership()": {
        "details": "Leaves the contract without owner. It will not be possible to call `onlyOwner` functions anymore. Can only be called by the current owner. NOTE: Renouncing ownership will leave the contract without an owner, thereby removing any functionality that is only available to the owner."
      },
      "safeBatchTransferFrom(address,address,uint256[],uint256[],bytes)": {
        "details": "See {IERC1155-safeBatchTransferFrom}."
      },
      "safeTransferFrom(address,address,uint256,uint256,bytes)": {
        "details": "See {IERC1155-safeTransferFrom}."
      },
      "setApprovalForAll(address,bool)": {
        "details": "See {IERC1155-setApprovalForAll}."
      },
      "supportsInterface(bytes4)": {
        "details": "See {IERC165-supportsInterface}. Time complexity O(1), guaranteed to always use less than 30 000 gas."
      },
      "transferOwnership(address)": {
        "details": "Transfers ownership of the contract to a new account (`newOwner`). Can only be called by the current owner."
      }
    },
    "version": 1
  },
  "userdoc": {
    "kind": "user",
    "methods": {},
    "version": 1
  }
}