{
  "contractName": "ERC1155Rarible",
  "abi": [
    {
      "anonymous": false,
      "inputs": [
        {
          "indexed": true,
          "internalType": "address",
          "name": "account",
          "type": "address"
        },
        {
          "indexed": true,
          "internalType": "address",
          "name": "operator",
          "type": "address"
        },
        {
          "indexed": false,
          "internalType": "bool",
          "name": "approved",
          "type": "bool"
        }
      ],
      "name": "ApprovalForAll",
      "type": "event"
    },
    {
      "anonymous": false,
      "inputs": [
        {
          "indexed": false,
          "internalType": "address",
          "name": "owner",
          "type": "address"
        },
        {
          "indexed": false,
          "internalType": "string",
          "name": "name",
          "type": "string"
        },
        {
          "indexed": false,
          "internalType": "string",
          "name": "symbol",
          "type": "string"
        }
      ],
      "name": "CreateERC1155Rarible",
      "type": "event"
    },
    {
      "anonymous": false,
      "inputs": [
        {
          "indexed": true,
          "internalType": "uint256",
          "name": "tokenId",
          "type": "uint256"
        },
        {
          "components": [
            {
              "internalType": "address payable",
              "name": "account",
              "type": "address"
            },
            {
              "internalType": "uint96",
              "name": "value",
              "type": "uint96"
            }
          ],
          "indexed": false,
          "internalType": "struct LibPart.Part[]",
          "name": "creators",
          "type": "tuple[]"
        }
      ],
      "name": "Creators",
      "type": "event"
    },
    {
      "anonymous": false,
      "inputs": [
        {
          "indexed": true,
          "internalType": "address",
          "name": "operator",
          "type": "address"
        },
        {
          "indexed": false,
          "internalType": "bool",
          "name": "hasApproval",
          "type": "bool"
        }
      ],
      "name": "DefaultApproval",
      "type": "event"
    },
    {
      "anonymous": false,
      "inputs": [
        {
          "indexed": true,
          "internalType": "address",
          "name": "previousOwner",
          "type": "address"
        },
        {
          "indexed": true,
          "internalType": "address",
          "name": "newOwner",
          "type": "address"
        }
      ],
      "name": "OwnershipTransferred",
      "type": "event"
    },
    {
      "anonymous": false,
      "inputs": [
        {
          "indexed": false,
          "internalType": "uint256",
          "name": "tokenId",
          "type": "uint256"
        },
        {
          "components": [
            {
              "internalType": "address payable",
              "name": "account",
              "type": "address"
            },
            {
              "internalType": "uint96",
              "name": "value",
              "type": "uint96"
            }
          ],
          "indexed": false,
          "internalType": "struct LibPart.Part[]",
          "name": "royalties",
          "type": "tuple[]"
        }
      ],
      "name": "RoyaltiesSet",
      "type": "event"
    },
    {
      "anonymous": false,
      "inputs": [
        {
          "indexed": true,
          "internalType": "uint256",
          "name": "tokenId",
          "type": "uint256"
        },
        {
          "indexed": false,
          "internalType": "uint256",
          "name": "value",
          "type": "uint256"
        }
      ],
      "name": "Supply",
      "type": "event"
    },
    {
      "anonymous": false,
      "inputs": [
        {
          "indexed": true,
          "internalType": "address",
          "name": "operator",
          "type": "address"
        },
        {
          "indexed": true,
          "internalType": "address",
          "name": "from",
          "type": "address"
        },
        {
          "indexed": true,
          "internalType": "address",
          "name": "to",
          "type": "address"
        },
        {
          "indexed": false,
          "internalType": "uint256[]",
          "name": "ids",
          "type": "uint256[]"
        },
        {
          "indexed": false,
          "internalType": "uint256[]",
          "name": "values",
          "type": "uint256[]"
        }
      ],
      "name": "TransferBatch",
      "type": "event"
    },
    {
      "anonymous": false,
      "inputs": [
        {
          "indexed": true,
          "internalType": "address",
          "name": "operator",
          "type": "address"
        },
        {
          "indexed": true,
          "internalType": "address",
          "name": "from",
          "type": "address"
        },
        {
          "indexed": true,
          "internalType": "address",
          "name": "to",
          "type": "address"
        },
        {
          "indexed": false,
          "internalType": "uint256",
          "name": "id",
          "type": "uint256"
        },
        {
          "indexed": false,
          "internalType": "uint256",
          "name": "value",
          "type": "uint256"
        }
      ],
      "name": "TransferSingle",
      "type": "event"
    },
    {
      "anonymous": false,
      "inputs": [
        {
          "indexed": false,
          "internalType": "string",
          "name": "value",
          "type": "string"
        },
        {
          "indexed": true,
          "internalType": "uint256",
          "name": "id",
          "type": "uint256"
        }
      ],
      "name": "URI",
      "type": "event"
    },
    {
      "inputs": [
        {
          "internalType": "address",
          "name": "account",
          "type": "address"
        },
        {
          "internalType": "uint256",
          "name": "id",
          "type": "uint256"
        }
      ],
      "name": "balanceOf",
      "outputs": [
        {
          "internalType": "uint256",
          "name": "",
          "type": "uint256"
        }
      ],
      "stateMutability": "view",
      "type": "function"
    },
    {
      "inputs": [
        {
          "internalType": "address[]",
          "name": "accounts",
          "type": "address[]"
        },
        {
          "internalType": "uint256[]",
          "name": "ids",
          "type": "uint256[]"
        }
      ],
      "name": "balanceOfBatch",
      "outputs": [
        {
          "internalType": "uint256[]",
          "name": "",
          "type": "uint256[]"
        }
      ],
      "stateMutability": "view",
      "type": "function"
    },
    {
      "inputs": [],
      "name": "baseURI",
      "outputs": [
        {
          "internalType": "string",
          "name": "",
          "type": "string"
        }
      ],
      "stateMutability": "view",
      "type": "function"
    },
    {
      "inputs": [
        {
          "internalType": "address",
          "name": "account",
          "type": "address"
        },
        {
          "internalType": "uint256",
          "name": "id",
          "type": "uint256"
        },
        {
          "internalType": "uint256",
          "name": "value",
          "type": "uint256"
        }
      ],
      "name": "burn",
      "outputs": [],
      "stateMutability": "nonpayable",
      "type": "function"
    },
    {
      "inputs": [
        {
          "internalType": "address",
          "name": "account",
          "type": "address"
        },
        {
          "internalType": "uint256[]",
          "name": "ids",
          "type": "uint256[]"
        },
        {
          "internalType": "uint256[]",
          "name": "values",
          "type": "uint256[]"
        }
      ],
      "name": "burnBatch",
      "outputs": [],
      "stateMutability": "nonpayable",
      "type": "function"
    },
    {
      "inputs": [],
      "name": "contractURI",
      "outputs": [
        {
          "internalType": "string",
          "name": "",
          "type": "string"
        }
      ],
      "stateMutability": "view",
      "type": "function"
    },
    {
      "inputs": [
        {
          "internalType": "uint256",
          "name": "",
          "type": "uint256"
        },
        {
          "internalType": "uint256",
          "name": "",
          "type": "uint256"
        }
      ],
      "name": "creators",
      "outputs": [
        {
          "internalType": "address payable",
          "name": "account",
          "type": "address"
        },
        {
          "internalType": "uint96",
          "name": "value",
          "type": "uint96"
        }
      ],
      "stateMutability": "view",
      "type": "function"
    },
    {
      "inputs": [
        {
          "internalType": "uint256",
          "name": "_id",
          "type": "uint256"
        }
      ],
      "name": "getCreators",
      "outputs": [
        {
          "components": [
            {
              "internalType": "address payable",
              "name": "account",
              "type": "address"
            },
            {
              "internalType": "uint96",
              "name": "value",
              "type": "uint96"
            }
          ],
          "internalType": "struct LibPart.Part[]",
          "name": "",
          "type": "tuple[]"
        }
      ],
      "stateMutability": "view",
      "type": "function"
    },
    {
      "inputs": [
        {
          "internalType": "uint256",
          "name": "id",
          "type": "uint256"
        }
      ],
      "name": "getRaribleV2Royalties",
      "outputs": [
        {
          "components": [
            {
              "internalType": "address payable",
              "name": "account",
              "type": "address"
            },
            {
              "internalType": "uint96",
              "name": "value",
              "type": "uint96"
            }
          ],
          "internalType": "struct LibPart.Part[]",
          "name": "",
          "type": "tuple[]"
        }
      ],
      "stateMutability": "view",
      "type": "function"
    },
    {
      "inputs": [
        {
          "internalType": "address",
          "name": "_owner",
          "type": "address"
        },
        {
          "internalType": "address",
          "name": "_operator",
          "type": "address"
        }
      ],
      "name": "isApprovedForAll",
      "outputs": [
        {
          "internalType": "bool",
          "name": "",
          "type": "bool"
        }
      ],
      "stateMutability": "view",
      "type": "function"
    },
    {
      "inputs": [
        {
          "components": [
            {
              "internalType": "uint256",
              "name": "tokenId",
              "type": "uint256"
            },
            {
              "internalType": "string",
              "name": "tokenURI",
              "type": "string"
            },
            {
              "internalType": "uint256",
              "name": "supply",
              "type": "uint256"
            },
            {
              "components": [
                {
                  "internalType": "address payable",
                  "name": "account",
                  "type": "address"
                },
                {
                  "internalType": "uint96",
                  "name": "value",
                  "type": "uint96"
                }
              ],
              "internalType": "struct LibPart.Part[]",
              "name": "creators",
              "type": "tuple[]"
            },
            {
              "components": [
                {
                  "internalType": "address payable",
                  "name": "account",
                  "type": "address"
                },
                {
                  "internalType": "uint96",
                  "name": "value",
                  "type": "uint96"
                }
              ],
              "internalType": "struct LibPart.Part[]",
              "name": "royalties",
              "type": "tuple[]"
            },
            {
              "internalType": "bytes[]",
              "name": "signatures",
              "type": "bytes[]"
            }
          ],
          "internalType": "struct LibERC1155LazyMint.Mint1155Data",
          "name": "data",
          "type": "tuple"
        },
        {
          "internalType": "address",
          "name": "to",
          "type": "address"
        },
        {
          "internalType": "uint256",
          "name": "_amount",
          "type": "uint256"
        }
      ],
      "name": "mintAndTransfer",
      "outputs": [],
      "stateMutability": "nonpayable",
      "type": "function"
    },
    {
      "inputs": [],
      "name": "name",
      "outputs": [
        {
          "internalType": "string",
          "name": "",
          "type": "string"
        }
      ],
      "stateMutability": "view",
      "type": "function"
    },
    {
      "inputs": [],
      "name": "owner",
      "outputs": [
        {
          "internalType": "address",
          "name": "",
          "type": "address"
        }
      ],
      "stateMutability": "view",
      "type": "function"
    },
    {
      "inputs": [],
      "name": "renounceOwnership",
      "outputs": [],
      "stateMutability": "nonpayable",
      "type": "function"
    },
    {
      "inputs": [
        {
          "internalType": "address",
          "name": "from",
          "type": "address"
        },
        {
          "internalType": "address",
          "name": "to",
          "type": "address"
        },
        {
          "internalType": "uint256[]",
          "name": "ids",
          "type": "uint256[]"
        },
        {
          "internalType": "uint256[]",
          "name": "amounts",
          "type": "uint256[]"
        },
        {
          "internalType": "bytes",
          "name": "data",
          "type": "bytes"
        }
      ],
      "name": "safeBatchTransferFrom",
      "outputs": [],
      "stateMutability": "nonpayable",
      "type": "function"
    },
    {
      "inputs": [
        {
          "internalType": "address",
          "name": "from",
          "type": "address"
        },
        {
          "internalType": "address",
          "name": "to",
          "type": "address"
        },
        {
          "internalType": "uint256",
          "name": "id",
          "type": "uint256"
        },
        {
          "internalType": "uint256",
          "name": "amount",
          "type": "uint256"
        },
        {
          "internalType": "bytes",
          "name": "data",
          "type": "bytes"
        }
      ],
      "name": "safeTransferFrom",
      "outputs": [],
      "stateMutability": "nonpayable",
      "type": "function"
    },
    {
      "inputs": [
        {
          "internalType": "address",
          "name": "operator",
          "type": "address"
        },
        {
          "internalType": "bool",
          "name": "approved",
          "type": "bool"
        }
      ],
      "name": "setApprovalForAll",
      "outputs": [],
      "stateMutability": "nonpayable",
      "type": "function"
    },
    {
      "inputs": [
        {
          "internalType": "address",
          "name": "operator",
          "type": "address"
        },
        {
          "internalType": "bool",
          "name": "hasApproval",
          "type": "bool"
        }
      ],
      "name": "setDefaultApproval",
      "outputs": [],
      "stateMutability": "nonpayable",
      "type": "function"
    },
    {
      "inputs": [
        {
          "internalType": "bytes4",
          "name": "interfaceId",
          "type": "bytes4"
        }
      ],
      "name": "supportsInterface",
      "outputs": [
        {
          "internalType": "bool",
          "name": "",
          "type": "bool"
        }
      ],
      "stateMutability": "view",
      "type": "function"
    },
    {
      "inputs": [],
      "name": "symbol",
      "outputs": [
        {
          "internalType": "string",
          "name": "",
          "type": "string"
        }
      ],
      "stateMutability": "view",
      "type": "function"
    },
    {
      "inputs": [
        {
          "components": [
            {
              "internalType": "uint256",
              "name": "tokenId",
              "type": "uint256"
            },
            {
              "internalType": "string",
              "name": "tokenURI",
              "type": "string"
            },
            {
              "internalType": "uint256",
              "name": "supply",
              "type": "uint256"
            },
            {
              "components": [
                {
                  "internalType": "address payable",
                  "name": "account",
                  "type": "address"
                },
                {
                  "internalType": "uint96",
                  "name": "value",
                  "type": "uint96"
                }
              ],
              "internalType": "struct LibPart.Part[]",
              "name": "creators",
              "type": "tuple[]"
            },
            {
              "components": [
                {
                  "internalType": "address payable",
                  "name": "account",
                  "type": "address"
                },
                {
                  "internalType": "uint96",
                  "name": "value",
                  "type": "uint96"
                }
              ],
              "internalType": "struct LibPart.Part[]",
              "name": "royalties",
              "type": "tuple[]"
            },
            {
              "internalType": "bytes[]",
              "name": "signatures",
              "type": "bytes[]"
            }
          ],
          "internalType": "struct LibERC1155LazyMint.Mint1155Data",
          "name": "data",
          "type": "tuple"
        },
        {
          "internalType": "address",
          "name": "from",
          "type": "address"
        },
        {
          "internalType": "address",
          "name": "to",
          "type": "address"
        },
        {
          "internalType": "uint256",
          "name": "amount",
          "type": "uint256"
        }
      ],
      "name": "transferFromOrMint",
      "outputs": [],
      "stateMutability": "nonpayable",
      "type": "function"
    },
    {
      "inputs": [
        {
          "internalType": "address",
          "name": "newOwner",
          "type": "address"
        }
      ],
      "name": "transferOwnership",
      "outputs": [],
      "stateMutability": "nonpayable",
      "type": "function"
    },
    {
      "inputs": [
        {
          "internalType": "uint256",
          "name": "_id",
          "type": "uint256"
        },
        {
          "internalType": "address",
          "name": "_from",
          "type": "address"
        },
        {
          "internalType": "address",
          "name": "_to",
          "type": "address"
        }
      ],
      "name": "updateAccount",
      "outputs": [],
      "stateMutability": "nonpayable",
      "type": "function"
    },
    {
      "inputs": [
        {
          "internalType": "uint256",
          "name": "id",
          "type": "uint256"
        }
      ],
      "name": "uri",
      "outputs": [
        {
          "internalType": "string",
          "name": "",
          "type": "string"
        }
      ],
      "stateMutability": "view",
      "type": "function"
    },
    {
      "inputs": [
        {
          "internalType": "string",
          "name": "_name",
          "type": "string"
        },
        {
          "internalType": "string",
          "name": "_symbol",
          "type": "string"
        },
        {
          "internalType": "string",
          "name": "baseURI",
          "type": "string"
        },
        {
          "internalType": "string",
          "name": "contractURI",
          "type": "string"
        }
      ],
      "name": "__ERC1155Rarible_init",
      "outputs": [],
      "stateMutability": "nonpayable",
      "type": "function"
    }
  ],
  "bytecode": "0x608060405234801561001057600080fd5b5061493d806100206000396000f3fe608060405234801561001057600080fd5b50600436106101725760003560e01c8063891be974116100de578063e07f231911610097578063f242432a11610071578063f242432a1461032b578063f2fde38b1461033e578063f5298aca14610351578063ffc4e0a71461036457610172565b8063e07f2319146102fd578063e8a3d48514610310578063e985e9c51461031857610172565b8063891be974146102795780638da5cb5b1461029957806395d89b41146102ae57806398d0b4fb146102b6578063a22cb465146102d7578063cad96cca146102ea57610172565b806318054c371161013057806318054c37146102105780632eb2c2d6146102235780634e1273f4146102365780636b20c454146102565780636c0360eb14610269578063715018a61461027157610172565b8062fdd58e1461017757806301ffc9a7146101a057806306fdde03146101c05780630e89341c146101d55780630eaead67146101e8578063148dbc4f146101fd575b600080fd5b61018a610185366004613e96565b610377565b604051610197919061450e565b60405180910390f35b6101b36101ae366004613fb4565b6103e6565b6040516101979190614320565b6101c8610409565b604051610197919061432b565b6101c86101e3366004614141565b610498565b6101fb6101f63660046140ea565b6104a9565b005b6101fb61020b366004613fdc565b6106b3565b6101fb61021e366004613e65565b610806565b6101fb610231366004613ce4565b610888565b610249610244366004613ef5565b610b86565b60405161019791906142dc565b6101fb610264366004613df3565b610c71565b6101c8610cea565b6101fb610d82565b61028c610287366004614141565b610e40565b60405161019791906142c9565b6102a1610ed0565b604051610197919061425d565b6101c8610edf565b6102c96102c436600461419a565b610f3b565b6040516101979291906142a7565b6101fb6102e5366004613e65565b610f85565b61028c6102f8366004614141565b611074565b6101fb61030b366004614159565b6110ef565b6101c8611132565b6101b3610326366004613cac565b61118e565b6101fb610339366004613d8d565b6111a1565b6101fb61034c366004613c90565b61136c565b6101fb61035f366004613ec1565b611481565b6101fb610372366004614083565b6114f5565b60006001600160a01b0383166103be5760405162461bcd60e51b815260040180806020018281038252602b815260200180614694602b913960400191505060405180910390fd5b5060009081526097602090815260408083206001600160a01b03949094168352929052205490565b6001600160e01b0319811660009081526065602052604090205460ff165b919050565b610262805460408051602060026001851615610100026000190190941693909304601f810184900484028201840190925281815292918301828280156104905780601f1061046557610100808354040283529160200191610490565b820191906000526020600020905b81548152906001019060200180831161047357829003601f168201915b505050505081565b60606104a382611550565b92915050565b825160601c60006104b861178d565b9050806001600160a01b0316826001600160a01b031614806104df57506104df828261118e565b6105045760405162461bcd60e51b81526004016104fb90614417565b60405180910390fd5b600083116105245760405162461bcd60e51b81526004016104fb906143ed565b845160009081526101fc602052604090205461068d57846060015160008151811061054b57fe5b6020026020010151600001516001600160a01b0316826001600160a01b0316146105875760405162461bcd60e51b81526004016104fb9061439d565b60008560400151116105ab5760405162461bcd60e51b81526004016104fb9061433e565b8460a0015151856060015151146105c157600080fd5b60006105cc86611791565b905060005b866060015151811015610642576000876060015182815181106105f057fe5b6020026020010151600001519050836001600160a01b0316816001600160a01b0316146106395761063981848a60a00151858151811061062c57fe5b60200260200101516119e4565b506001016105d1565b50610655866000015187604001516119ef565b61066786600001518760800151611a59565b61067986600001518760600151611c48565b61068b86600001518760200151611df6565b505b6106ac8486600001518560405180602001604052806000815250611eba565b5050505050565b600054610100900460ff16806106cc57506106cc611ecc565b806106da575060005460ff16155b6107155760405162461bcd60e51b815260040180806020018281038252602e8152602001806147ab602e913960400191505060405180910390fd5b600054610100900460ff16158015610740576000805460ff1961ff0019909116610100171660011790555b610748611edd565b610750611fd7565b610758612088565b610760612125565b6107686121c5565b61078060405180602001604052806000815250612295565b61078982612360565b610791612125565b610799612412565b6107a385856124af565b6107ac8361257c565b7fcc215b7682459c30faa0e854780165d503a7d62d22a9aaaad6334585dc63343e6107d561178d565b86866040516107e693929190614271565b60405180910390a180156106ac576000805461ff00191690555050505050565b61080e61178d565b6001600160a01b031661081f610ed0565b6001600160a01b03161461087a576040805162461bcd60e51b815260206004820181905260248201527f4f776e61626c653a2063616c6c6572206973206e6f7420746865206f776e6572604482015290519081900360640190fd5b6108848282612590565b5050565b81518351146108c85760405162461bcd60e51b81526004018080602001828103825260288152602001806148bf6028913960400191505060405180910390fd5b6001600160a01b03841661090d5760405162461bcd60e51b81526004018080602001828103825260258152602001806147546025913960400191505060405180910390fd5b61091561178d565b6001600160a01b0316856001600160a01b0316148061093b575061093b8561032661178d565b6109765760405162461bcd60e51b81526004018080602001828103825260328152602001806147796032913960400191505060405180910390fd5b600061098061178d565b9050610990818787878787610b7e565b60005b8451811015610a965760008582815181106109aa57fe5b6020026020010151905060008583815181106109c257fe5b60200260200101519050610a2f816040518060600160405280602a815260200161481e602a91396097600086815260200190815260200160002060008d6001600160a01b03166001600160a01b03168152602001908152602001600020546125f09092919063ffffffff16565b60008381526097602090815260408083206001600160a01b038e811685529252808320939093558a1681522054610a669082612687565b60009283526097602090815260408085206001600160a01b038c1686529091529092209190915550600101610993565b50846001600160a01b0316866001600160a01b0316826001600160a01b03167f4a39dc06d4c0dbc64b70af90fd698a233a518aa5d07e595d983b8c0526c8f7fb8787604051808060200180602001838103835285818151815260200191508051906020019060200280838360005b83811015610b1c578181015183820152602001610b04565b50505050905001838103825284818151815260200191508051906020019060200280838360005b83811015610b5b578181015183820152602001610b43565b5050505090500194505050505060405180910390a4610b7e8187878787876126e1565b505050505050565b60608151835114610bc85760405162461bcd60e51b81526004018080602001828103825260298152602001806148966029913960400191505060405180910390fd5b600083516001600160401b0381118015610be157600080fd5b50604051908082528060200260200182016040528015610c0b578160200160208202803683370190505b50905060005b8451811015610c6957610c4a858281518110610c2957fe5b6020026020010151858381518110610c3d57fe5b6020026020010151610377565b828281518110610c5657fe5b6020908102919091010152600101610c11565b509392505050565b610c7961178d565b6001600160a01b0316836001600160a01b03161480610c9f5750610c9f8361032661178d565b610cda5760405162461bcd60e51b81526004018080602001828103825260298152602001806147096029913960400191505060405180910390fd5b610ce5838383612960565b505050565b61012f8054604080516020601f6002600019610100600188161502019095169490940493840181900481028201810190925282815260609390929091830182828015610d775780601f10610d4c57610100808354040283529160200191610d77565b820191906000526020600020905b815481529060010190602001808311610d5a57829003601f168201915b505050505090505b90565b610d8a61178d565b6001600160a01b0316610d9b610ed0565b6001600160a01b031614610df6576040805162461bcd60e51b815260206004820181905260248201527f4f776e61626c653a2063616c6c6572206973206e6f7420746865206f776e6572604482015290519081900360640190fd5b6033546040516000916001600160a01b0316907f8be0079c531659141344cd1fd0a4f28419497f9722a3daafe3b4186f6b6457e0908390a3603380546001600160a01b0319169055565b60606101fb6000838152602001908152602001600020805480602002602001604051908101604052809291908181526020016000905b82821015610ec557600084815260209081902060408051808201909152908401546001600160a01b0381168252600160a01b90046001600160601b031681830152825260019092019101610e76565b505050509050919050565b6033546001600160a01b031690565b610263805460408051602060026001851615610100026000190190941693909304601f810184900484028201840190925281815292918301828280156104905780601f1061046557610100808354040283529160200191610490565b6101fb6020528160005260406000208181548110610f5857600080fd5b6000918252602090912001546001600160a01b0381169250600160a01b90046001600160601b0316905082565b816001600160a01b0316610f9761178d565b6001600160a01b03161415610fdd5760405162461bcd60e51b815260040180806020018281038252602981526020018061486d6029913960400191505060405180910390fd5b8060986000610fea61178d565b6001600160a01b03908116825260208083019390935260409182016000908120918716808252919093529120805460ff19169215159290921790915561102e61178d565b6001600160a01b03167f17307eab39ab6107e8899845ad3d59bd9653f200f220920489ca2b5937696c318360405180821515815260200191505060405180910390a35050565b60008181526101fa60209081526040808320805482518185028101850190935280835260609492939192909184018215610ec557600084815260209081902060408051808201909152908401546001600160a01b0381168252600160a01b90046001600160601b031681830152825260019092019101610e76565b816001600160a01b031661110161178d565b6001600160a01b0316146111275760405162461bcd60e51b81526004016104fb906143c8565b610ce5838383612bce565b610230805460408051602060026001851615610100026000190190941693909304601f810184900484028201840190925281815292918301828280156104905780601f1061046557610100808354040283529160200191610490565b600061119a8383612c7a565b9392505050565b6001600160a01b0384166111e65760405162461bcd60e51b81526004018080602001828103825260258152602001806147546025913960400191505060405180910390fd5b6111ee61178d565b6001600160a01b0316856001600160a01b0316148061121457506112148561032661178d565b61124f5760405162461bcd60e51b81526004018080602001828103825260298152602001806147096029913960400191505060405180910390fd5b600061125961178d565b905061127981878761126a88612ca6565b61127388612ca6565b87610b7e565b6112c0836040518060600160405280602a815260200161481e602a913960008781526097602090815260408083206001600160a01b038d16845290915290205491906125f0565b60008581526097602090815260408083206001600160a01b038b811685529252808320939093558716815220546112f79084612687565b60008581526097602090815260408083206001600160a01b03808b168086529184529382902094909455805188815291820187905280518a8416938616927fc3d58168c5ae7397731d063d5bbf3d657854427343f4c083240f7aacaa2d0f6292908290030190a4610b7e818787878787612ceb565b61137461178d565b6001600160a01b0316611385610ed0565b6001600160a01b0316146113e0576040805162461bcd60e51b815260206004820181905260248201527f4f776e61626c653a2063616c6c6572206973206e6f7420746865206f776e6572604482015290519081900360640190fd5b6001600160a01b0381166114255760405162461bcd60e51b81526004018080602001828103825260268152602001806146bf6026913960400191505060405180910390fd5b6033546040516001600160a01b038084169216907f8be0079c531659141344cd1fd0a4f28419497f9722a3daafe3b4186f6b6457e090600090a3603380546001600160a01b0319166001600160a01b0392909216919091179055565b61148961178d565b6001600160a01b0316836001600160a01b031614806114af57506114af8361032661178d565b6114ea5760405162461bcd60e51b81526004018080602001828103825260298152602001806147096029913960400191505060405180910390fd5b610ce5838383612e5c565b6000611505848660000151610377565b905081811561153f57828083101561151a5750815b61153a8686896000015184604051806020016040528060008152506111a1565b830390505b8015610b7e57610b7e8685836104a9565b600081815261012e6020908152604080832080548251601f60026000196101006001861615020190931692909204918201859004850281018501909352808352606094938301828280156115e55780601f106115ba576101008083540402835291602001916115e5565b820191906000526020600020905b8154815290600101906020018083116115c857829003601f168201915b5050505050905060006115f6610cea565b905080516000141561160a57509050610404565b8151156116cb5780826040516020018083805190602001908083835b602083106116455780518252601f199092019160209182019101611626565b51815160209384036101000a600019018019909216911617905285519190930192850191508083835b6020831061168d5780518252601f19909201916020918201910161166e565b6001836020036101000a0380198251168184511680821785525050505050509050019250505060405160208183030381529060405292505050610404565b806116d585612f8f565b6040516020018083805190602001908083835b602083106117075780518252601f1990920191602091820191016116e8565b51815160209384036101000a600019018019909216911617905285519190930192850191508083835b6020831061174f5780518252601f199092019160209182019101611730565b6001836020036101000a0380198251168184511680821785525050505050509050019250505060405160208183030381529060405292505050919050565b3390565b6000808260800151516001600160401b03811180156117af57600080fd5b506040519080825280602002602001820160405280156117d9578160200160208202803683370190505b50905060005b83608001515181101561182b5761180c846080015182815181106117ff57fe5b6020026020010151613069565b82828151811061181857fe5b60209081029190910101526001016117df565b5060008360600151516001600160401b038111801561184957600080fd5b50604051908082528060200260200182016040528015611873578160200160208202803683370190505b50905060005b8460600151518110156118b857611899856060015182815181106117ff57fe5b8282815181106118a557fe5b6020908102919091010152600101611879565b507ffb988707ebb338694f318760b0fd5cfe756d00a2ade251fda110b80c336a3c7f846000015185604001518660200151805190602001208460405160200180828051906020019060200280838360005b83811015611921578181015183820152602001611909565b50505050905001915050604051602081830303815290604052805190602001208660405160200180828051906020019060200280838360005b8381101561197257818101518382015260200161195a565b50505050905001915050604051602081830303815290604052805190602001206040516020018087815260200186815260200185815260200184815260200183815260200182815260200196505050505050506040516020818303038152906040528051906020012092505050919050565b610ce58383836130d6565b60008281526101fc602052604090205415611a0957600080fd5b60008281526101fc6020526040908190208290555182907f5e2aa66efd74cce82b21852e317e5490d9ecc9e6bb953ae24d90851258cc2f5c90611a4d90849061450e565b60405180910390a25050565b6000805b8251811015611bfd5760006001600160a01b0316838281518110611a7d57fe5b6020026020010151600001516001600160a01b03161415611ae5576040805162461bcd60e51b815260206004820152601b60248201527f526563697069656e742073686f756c642062652070726573656e740000000000604482015290519081900360640190fd5b828181518110611af157fe5b6020026020010151602001516001600160601b031660001415611b5b576040805162461bcd60e51b815260206004820181905260248201527f526f79616c74792076616c75652073686f756c6420626520706f736974697665604482015290519081900360640190fd5b828181518110611b6757fe5b6020026020010151602001516001600160601b0316820191506101fa6000858152602001908152602001600020838281518110611ba057fe5b60209081029190910181015182546001818101855560009485529383902082519101805492909301516001600160601b0316600160a01b026001600160a01b039182166001600160a01b0319909316929092171617905501611a5d565b506127108110611c3e5760405162461bcd60e51b81526004018080602001828103825260258152602001806148486025913960400191505060405180910390fd5b610ce5838361330e565b60008281526101fb6020526040812090805b8351811015611d965760006001600160a01b0316848281518110611c7a57fe5b6020026020010151600001516001600160a01b03161415611cad5760405162461bcd60e51b81526004016104fb90614489565b838181518110611cb957fe5b6020026020010151602001516001600160601b031660001415611cee5760405162461bcd60e51b81526004016104fb90614368565b82848281518110611cfb57fe5b602090810291909101810151825460018101845560009384529282902081519301805491909201516001600160601b0316600160a01b026001600160a01b039384166001600160a01b0319909216919091179092169190911790558351611d8c90859083908110611d6857fe5b6020026020010151602001516001600160601b03168361268790919063ffffffff16565b9150600101611c5a565b508061271014611db85760405162461bcd60e51b81526004016104fb906144c0565b837f841ffb90d4cabdd1f16034f3fa831d79060febbb8167bdd54a49269365bdf78f84604051611de891906142c9565b60405180910390a250505050565b600082815261012e602090815260409091208251611e1692840190613942565b50817f6bb7ff708619ba0610cba295a58592e0451dee2622938c8755667688daf3529b611e4284611550565b6040805160208082528351818301528351919283929083019185019080838360005b83811015611e7c578181015183820152602001611e64565b50505050905090810190601f168015611ea95780820380516001836020036101000a031916815260200191505b509250505060405180910390a25050565b611ec68484848461334b565b50505050565b6000611ed7306133b6565b15905090565b600054610100900460ff1680611ef65750611ef6611ecc565b80611f04575060005460ff16155b611f3f5760405162461bcd60e51b815260040180806020018281038252602e8152602001806147ab602e913960400191505060405180910390fd5b600054610100900460ff16158015611f6a576000805460ff1961ff0019909116610100171660011790555b6000611f7461178d565b603380546001600160a01b0319166001600160a01b038316908117909155604051919250906000907f8be0079c531659141344cd1fd0a4f28419497f9722a3daafe3b4186f6b6457e0908290a3508015611fd4576000805461ff00191690555b50565b600054610100900460ff1680611ff05750611ff0611ecc565b80611ffe575060005460ff16155b6120395760405162461bcd60e51b815260040180806020018281038252602e8152602001806147ab602e913960400191505060405180910390fd5b600054610100900460ff16158015612064576000805460ff1961ff0019909116610100171660011790555b612074636db15a0f60e01b6133bc565b8015611fd4576000805461ff001916905550565b600054610100900460ff16806120a157506120a1611ecc565b806120af575060005460ff16155b6120ea5760405162461bcd60e51b815260040180806020018281038252602e8152602001806147ab602e913960400191505060405180910390fd5b600054610100900460ff16158015612115576000805460ff1961ff0019909116610100171660011790555b6120746301ffc9a760e01b6133bc565b600054610100900460ff168061213e575061213e611ecc565b8061214c575060005460ff16155b6121875760405162461bcd60e51b815260040180806020018281038252602e8152602001806147ab602e913960400191505060405180910390fd5b600054610100900460ff16158015612074576000805460ff1961ff0019909116610100171660011790558015611fd4576000805461ff001916905550565b600054610100900460ff16806121de57506121de611ecc565b806121ec575060005460ff16155b6122275760405162461bcd60e51b815260040180806020018281038252602e8152602001806147ab602e913960400191505060405180910390fd5b600054610100900460ff16158015612252576000805460ff1961ff0019909116610100171660011790555b612074604051806040016040528060088152602001674d696e743131353560c01b815250604051806040016040528060018152602001603160f81b815250613440565b600054610100900460ff16806122ae57506122ae611ecc565b806122bc575060005460ff16155b6122f75760405162461bcd60e51b815260040180806020018281038252602e8152602001806147ab602e913960400191505060405180910390fd5b600054610100900460ff16158015612322576000805460ff1961ff0019909116610100171660011790555b61232b82613502565b61233b636cdb3d1360e11b6133bc565b61234b6303a24d0760e21b6133bc565b8015610884576000805461ff00191690555050565b600054610100900460ff16806123795750612379611ecc565b80612387575060005460ff16155b6123c25760405162461bcd60e51b815260040180806020018281038252602e8152602001806147ab602e913960400191505060405180910390fd5b600054610100900460ff161580156123ed576000805460ff1961ff0019909116610100171660011790555b815161240190610230906020850190613942565b5061234b63e8a3d48560e01b6133bc565b600054610100900460ff168061242b575061242b611ecc565b80612439575060005460ff16155b6124745760405162461bcd60e51b815260040180806020018281038252602e8152602001806147ab602e913960400191505060405180910390fd5b600054610100900460ff1615801561249f576000805460ff1961ff0019909116610100171660011790555b61207463656cb66560e11b6133bc565b600054610100900460ff16806124c857506124c8611ecc565b806124d6575060005460ff16155b6125115760405162461bcd60e51b815260040180806020018281038252602e8152602001806147ab602e913960400191505060405180910390fd5b600054610100900460ff1615801561253c576000805460ff1961ff0019909116610100171660011790555b825161255090610262906020860190613942565b50815161256590610263906020850190613942565b508015610ce5576000805461ff0019169055505050565b80516108849061012f906020840190613942565b6001600160a01b038216600081815260c96020908152604091829020805460ff1916851515908117909155825190815291517f270dbb8ba4292910ae92862466486be25c355c837270a3d8824b36a8bc7c653b9281900390910190a25050565b6000818484111561267f5760405162461bcd60e51b81526004018080602001828103825283818151815260200191508051906020019080838360005b8381101561264457818101518382015260200161262c565b50505050905090810190601f1680156126715780820380516001836020036101000a031916815260200191505b509250505060405180910390fd5b505050900390565b60008282018381101561119a576040805162461bcd60e51b815260206004820152601b60248201527f536166654d6174683a206164646974696f6e206f766572666c6f770000000000604482015290519081900360640190fd5b6126f3846001600160a01b03166133b6565b15610b7e57836001600160a01b031663bc197c8187878686866040518663ffffffff1660e01b815260040180866001600160a01b03168152602001856001600160a01b03168152602001806020018060200180602001848103845287818151815260200191508051906020019060200280838360005b83811015612781578181015183820152602001612769565b50505050905001848103835286818151815260200191508051906020019060200280838360005b838110156127c05781810151838201526020016127a8565b50505050905001848103825285818151815260200191508051906020019080838360005b838110156127fc5781810151838201526020016127e4565b50505050905090810190601f1680156128295780820380516001836020036101000a031916815260200191505b5098505050505050505050602060405180830381600087803b15801561284e57600080fd5b505af192505050801561287357506040513d602081101561286e57600080fd5b505160015b6129085761287f61457e565b8061288a57506128d1565b60405162461bcd60e51b815260206004820181815283516024840152835184939192839260440191908501908083836000831561264457818101518382015260200161262c565b60405162461bcd60e51b81526004018080602001828103825260348152602001806146386034913960400191505060405180910390fd5b6001600160e01b0319811663bc197c8160e01b146129575760405162461bcd60e51b815260040180806020018281038252602881526020018061466c6028913960400191505060405180910390fd5b50505050505050565b6001600160a01b0383166129a55760405162461bcd60e51b81526004018080602001828103825260238152602001806147fb6023913960400191505060405180910390fd5b80518251146129e55760405162461bcd60e51b81526004018080602001828103825260288152602001806148bf6028913960400191505060405180910390fd5b60006129ef61178d565b9050612a0f81856000868660405180602001604052806000815250610b7e565b60005b8351811015612aed57612aa4838281518110612a2a57fe5b60200260200101516040518060600160405280602481526020016146e56024913960976000888681518110612a5b57fe5b602002602001015181526020019081526020016000206000896001600160a01b03166001600160a01b03168152602001908152602001600020546125f09092919063ffffffff16565b60976000868481518110612ab457fe5b602090810291909101810151825281810192909252604090810160009081206001600160a01b038a168252909252902055600101612a12565b5060006001600160a01b0316846001600160a01b0316826001600160a01b03167f4a39dc06d4c0dbc64b70af90fd698a233a518aa5d07e595d983b8c0526c8f7fb8686604051808060200180602001838103835285818151815260200191508051906020019060200280838360005b83811015612b74578181015183820152602001612b5c565b50505050905001838103825284818151815260200191508051906020019060200280838360005b83811015612bb3578181015183820152602001612b9b565b5050505090500194505050505060405180910390a450505050565b60008381526101fa6020526040812054905b818110156106ac5760008581526101fa6020526040902080546001600160a01b038616919083908110612c0f57fe5b6000918252602090912001546001600160a01b03161415612c725760008581526101fa60205260409020805484919083908110612c4857fe5b600091825260209091200180546001600160a01b0319166001600160a01b03929092169190911790555b600101612be0565b6001600160a01b038116600090815260c9602052604081205460ff168061119a575061119a8383613515565b60408051600180825281830190925260609160009190602080830190803683370190505090508281600081518110612cda57fe5b602090810291909101015292915050565b612cfd846001600160a01b03166133b6565b15610b7e57836001600160a01b031663f23a6e6187878686866040518663ffffffff1660e01b815260040180866001600160a01b03168152602001856001600160a01b0316815260200184815260200183815260200180602001828103825283818151815260200191508051906020019080838360005b83811015612d8c578181015183820152602001612d74565b50505050905090810190601f168015612db95780820380516001836020036101000a031916815260200191505b509650505050505050602060405180830381600087803b158015612ddc57600080fd5b505af1925050508015612e0157506040513d6020811015612dfc57600080fd5b505160015b612e0d5761287f61457e565b6001600160e01b0319811663f23a6e6160e01b146129575760405162461bcd60e51b815260040180806020018281038252602881526020018061466c6028913960400191505060405180910390fd5b6001600160a01b038316612ea15760405162461bcd60e51b81526004018080602001828103825260238152602001806147fb6023913960400191505060405180910390fd5b6000612eab61178d565b9050612edb81856000612ebd87612ca6565b612ec687612ca6565b60405180602001604052806000815250610b7e565b612f22826040518060600160405280602481526020016146e56024913960008681526097602090815260408083206001600160a01b038b16845290915290205491906125f0565b60008481526097602090815260408083206001600160a01b03808a16808652918452828520959095558151888152928301879052815193949093908616927fc3d58168c5ae7397731d063d5bbf3d657854427343f4c083240f7aacaa2d0f6292908290030190a450505050565b606081612fb457506040805180820190915260018152600360fc1b6020820152610404565b8160005b8115612fcc57600101600a82049150612fb8565b6000816001600160401b0381118015612fe457600080fd5b506040519080825280601f01601f19166020018201604052801561300f576020820181803683370190505b50859350905060001982015b831561306057600a840660300160f81b8282806001900393508151811061303e57fe5b60200101906001600160f81b031916908160001a905350600a8404935061301b565b50949350505050565b8051602091820151604080517f397e04204c1e1a60ee8724b71f8244e10ab5f2e9009854d80f602bda21b59ebb818601526001600160a01b03909316838201526001600160601b039091166060808401919091528151808403909101815260809092019052805191012090565b60006130e183613543565b90506130f5846001600160a01b03166133b6565b1561326e5760408051630b135d3f60e11b808252600482018481526024830193845285516044840152855191936001600160a01b03891693631626ba7e938793899390929091606490910190602085019080838360005b8381101561316457818101518382015260200161314c565b50505050905090810190601f1680156131915780820380516001836020036101000a031916815260200191505b50935050505060206040518083038186803b1580156131af57600080fd5b505afa1580156131c3573d6000803e3d6000fd5b505050506040513d60208110156131d957600080fd5b505160408051808201909152601c81527f7369676e617475726520766572696669636174696f6e206572726f72000000006020820152916001600160e01b0319909116146132685760405162461bcd60e51b815260206004820181815283516024840152835190928392604490910191908501908083836000831561264457818101518382015260200161262c565b50611ec6565b6001600160a01b038416613282828461358f565b6001600160a01b0316146040518060400160405280601c81526020017f7369676e617475726520766572696669636174696f6e206572726f7200000000815250906106ac5760405162461bcd60e51b815260206004820181815283516024840152835190928392604490910191908501908083836000831561264457818101518382015260200161262c565b7f3fa96d7b6bcbfe71ef171666d84db3cf52fa2d1c8afdb1cc8e486177f208b7df828260405161333f929190614517565b60405180910390a15050565b60008381526101fd6020526040812054613366908490612687565b60008581526101fc60205260409020549091508111156133985760405162461bcd60e51b81526004016104fb9061445f565b60008481526101fd602052604090208190556106ac8585858561360f565b3b151590565b6001600160e01b0319808216141561341b576040805162461bcd60e51b815260206004820152601c60248201527f4552433136353a20696e76616c696420696e7465726661636520696400000000604482015290519081900360640190fd5b6001600160e01b0319166000908152606560205260409020805460ff19166001179055565b600054610100900460ff16806134595750613459611ecc565b80613467575060005460ff16155b6134a25760405162461bcd60e51b815260040180806020018281038252602e8152602001806147ab602e913960400191505060405180910390fd5b600054610100900460ff161580156134cd576000805460ff1961ff0019909116610100171660011790555b825160208085019190912083519184019190912061016291909155610163558015610ce5576000805461ff0019169055505050565b8051610884906099906020840190613942565b6001600160a01b03918216600090815260986020908152604080832093909416825291909152205460ff1690565b600061354d613710565b82604051602001808061190160f01b81525060020183815260200182815260200192505050604051602081830303815290604052805190602001209050919050565b600081516041146135e7576040805162461bcd60e51b815260206004820152601f60248201527f45434453413a20696e76616c6964207369676e6174757265206c656e67746800604482015290519081900360640190fd5b60208201516040830151606084015160001a61360586828585613750565b9695505050505050565b6001600160a01b0384166136545760405162461bcd60e51b81526004018080602001828103825260218152602001806148e76021913960400191505060405180910390fd5b600061365e61178d565b90506136708160008761126a88612ca6565b60008481526097602090815260408083206001600160a01b038916845290915290205461369d9084612687565b60008581526097602090815260408083206001600160a01b03808b16808652918452828520959095558151898152928301889052815190948616927fc3d58168c5ae7397731d063d5bbf3d657854427343f4c083240f7aacaa2d0f6292908290030190a46106ac81600087878787612ceb565b600061374b7f8b73c3c69bb8fe3d512ecc4cf759cc79239f7b179b0ffacaa9a75d522b39400f61373e6138ce565b6137466138d5565b6138dc565b905090565b60007f7fffffffffffffffffffffffffffffff5d576e7357a4501ddfe92f46681b20a08211156137b15760405162461bcd60e51b81526004018080602001828103825260228152602001806147326022913960400191505060405180910390fd5b8360ff16601b14806137c657508360ff16601c145b6138015760405162461bcd60e51b81526004018080602001828103825260228152602001806147d96022913960400191505060405180910390fd5b600060018686868660405160008152602001604052604051808581526020018460ff1681526020018381526020018281526020019450505050506020604051602081039080840390855afa15801561385d573d6000803e3d6000fd5b5050604051601f1901519150506001600160a01b0381166138c5576040805162461bcd60e51b815260206004820152601860248201527f45434453413a20696e76616c6964207369676e61747572650000000000000000604482015290519081900360640190fd5b95945050505050565b6101625490565b6101635490565b60008383836138e961393e565b3060405160200180868152602001858152602001848152602001838152602001826001600160a01b03168152602001955050505050506040516020818303038152906040528051906020012090509392505050565b4690565b828054600181600116156101000203166002900490600052602060002090601f01602090048101928261397857600085556139be565b82601f1061399157805160ff19168380011785556139be565b828001600101855582156139be579182015b828111156139be5782518255916020019190600101906139a3565b506139ca9291506139ce565b5090565b5b808211156139ca57600081556001016139cf565b600082601f8301126139f3578081fd5b81356020613a08613a038361455b565b614538565b82815281810190858301855b85811015613a3d57613a2b898684358b0101613b5f565b84529284019290840190600101613a14565b5090979650505050505050565b600082601f830112613a5a578081fd5b81356020613a6a613a038361455b565b82815281810190858301604080860288018501891015613a88578687fd5b865b86811015613af75781838b031215613aa0578788fd5b81518281018181106001600160401b0382111715613aba57fe5b83528335613ac781614622565b8152838701356001600160601b0381168114613ae157898afd5b8188015285529385019391810191600101613a8a565b509198975050505050505050565b600082601f830112613b15578081fd5b81356020613b25613a038361455b565b8281528181019085830183850287018401881015613b41578586fd5b855b85811015613a3d57813584529284019290840190600101613b43565b600082601f830112613b6f578081fd5b81356001600160401b03811115613b8257fe5b613b95601f8201601f1916602001614538565b818152846020838601011115613ba9578283fd5b816020850160208301379081016020019190915292915050565b600060c08284031215613bd4578081fd5b613bde60c0614538565b90508135815260208201356001600160401b0380821115613bfe57600080fd5b613c0a85838601613b5f565b6020840152604084013560408401526060840135915080821115613c2d57600080fd5b613c3985838601613a4a565b60608401526080840135915080821115613c5257600080fd5b613c5e85838601613a4a565b608084015260a0840135915080821115613c7757600080fd5b50613c84848285016139e3565b60a08301525092915050565b600060208284031215613ca1578081fd5b813561119a81614622565b60008060408385031215613cbe578081fd5b8235613cc981614622565b91506020830135613cd981614622565b809150509250929050565b600080600080600060a08688031215613cfb578081fd5b8535613d0681614622565b94506020860135613d1681614622565b935060408601356001600160401b0380821115613d31578283fd5b613d3d89838a01613b05565b94506060880135915080821115613d52578283fd5b613d5e89838a01613b05565b93506080880135915080821115613d73578283fd5b50613d8088828901613b5f565b9150509295509295909350565b600080600080600060a08688031215613da4578283fd5b8535613daf81614622565b94506020860135613dbf81614622565b9350604086013592506060860135915060808601356001600160401b03811115613de7578182fd5b613d8088828901613b5f565b600080600060608486031215613e07578081fd5b8335613e1281614622565b925060208401356001600160401b0380821115613e2d578283fd5b613e3987838801613b05565b93506040860135915080821115613e4e578283fd5b50613e5b86828701613b05565b9150509250925092565b60008060408385031215613e77578182fd5b8235613e8281614622565b915060208301358015158114613cd9578182fd5b60008060408385031215613ea8578182fd5b8235613eb381614622565b946020939093013593505050565b600080600060608486031215613ed5578081fd5b8335613ee081614622565b95602085013595506040909401359392505050565b60008060408385031215613f07578182fd5b82356001600160401b0380821115613f1d578384fd5b818501915085601f830112613f30578384fd5b81356020613f40613a038361455b565b82815281810190858301838502870184018b1015613f5c578889fd5b8896505b84871015613f87578035613f7381614622565b835260019690960195918301918301613f60565b5096505086013592505080821115613f9d578283fd5b50613faa85828601613b05565b9150509250929050565b600060208284031215613fc5578081fd5b81356001600160e01b03198116811461119a578182fd5b60008060008060808587031215613ff1578182fd5b84356001600160401b0380821115614007578384fd5b61401388838901613b5f565b95506020870135915080821115614028578384fd5b61403488838901613b5f565b94506040870135915080821115614049578384fd5b61405588838901613b5f565b9350606087013591508082111561406a578283fd5b5061407787828801613b5f565b91505092959194509250565b60008060008060808587031215614098578182fd5b84356001600160401b038111156140ad578283fd5b6140b987828801613bc3565b94505060208501356140ca81614622565b925060408501356140da81614622565b9396929550929360600135925050565b6000806000606084860312156140fe578081fd5b83356001600160401b03811115614113578182fd5b61411f86828701613bc3565b935050602084013561413081614622565b929592945050506040919091013590565b600060208284031215614152578081fd5b5035919050565b60008060006060848603121561416d578081fd5b83359250602084013561417f81614622565b9150604084013561418f81614622565b809150509250925092565b600080604083850312156141ac578182fd5b50508035926020909101359150565b6000815180845260208085019450808401835b8381101561420757815180516001600160a01b031688528301516001600160601b031683880152604090960195908201906001016141ce565b509495945050505050565b60008151808452815b818110156142375760208185018101518683018201520161421b565b818111156142485782602083870101525b50601f01601f19169290920160200192915050565b6001600160a01b0391909116815260200190565b6001600160a01b038416815260606020820181905260009061429590830185614212565b82810360408401526136058185614212565b6001600160a01b039290921682526001600160601b0316602082015260400190565b60006020825261119a60208301846141bb565b6020808252825182820181905260009190848201906040850190845b81811015614314578351835292840192918401916001016142f8565b50909695505050505050565b901515815260200190565b60006020825261119a6020830184614212565b60208082526010908201526f1cdd5c1c1b1e481a5b98dbdc9c9958dd60821b604082015260600190565b6020808252818101527f43726561746f722073686172652073686f756c6420626520706f736974697665604082015260600190565b6020808252601190820152701d1bdad95b9259081a5b98dbdc9c9958dd607a1b604082015260600190565b6020808252600b908201526a1b9bdd08185b1b1bddd95960aa1b604082015260600190565b60208082526010908201526f185b5bdd5b9d081a5b98dbdc9c9958dd60821b604082015260600190565b60208082526028908201527f455243313135353a207472616e736665722063616c6c6572206973206e6f7420604082015267185c1c1c9bdd995960c21b606082015260800190565b60208082526010908201526f6d6f7265207468616e20737570706c7960801b604082015260600190565b60208082526019908201527f4163636f756e742073686f756c642062652070726573656e7400000000000000604082015260600190565b6020808252602e908201527f746f74616c20616d6f756e74206f662063726561746f7273207368617265207360408201526d0686f756c642062652031303030360941b606082015260800190565b90815260200190565b60008382526040602083015261453060408301846141bb565b949350505050565b6040518181016001600160401b038111828210171561455357fe5b604052919050565b60006001600160401b0382111561456e57fe5b5060209081020190565b60e01c90565b600060443d101561458e57610d7f565b600481823e6308c379a06145a28251614578565b146145ac57610d7f565b6040513d600319016004823e80513d6001600160401b0381602484011181841117156145db5750505050610d7f565b828401925082519150808211156145f55750505050610d7f565b503d8301602082840101111561460d57505050610d7f565b601f01601f1916810160200160405291505090565b6001600160a01b0381168114611fd457600080fdfe455243313135353a207472616e7366657220746f206e6f6e2045524331313535526563656976657220696d706c656d656e746572455243313135353a204552433131353552656365697665722072656a656374656420746f6b656e73455243313135353a2062616c616e636520717565727920666f7220746865207a65726f20616464726573734f776e61626c653a206e6577206f776e657220697320746865207a65726f2061646472657373455243313135353a206275726e20616d6f756e7420657863656564732062616c616e6365455243313135353a2063616c6c6572206973206e6f74206f776e6572206e6f7220617070726f76656445434453413a20696e76616c6964207369676e6174757265202773272076616c7565455243313135353a207472616e7366657220746f20746865207a65726f2061646472657373455243313135353a207472616e736665722063616c6c6572206973206e6f74206f776e6572206e6f7220617070726f766564496e697469616c697a61626c653a20636f6e747261637420697320616c726561647920696e697469616c697a656445434453413a20696e76616c6964207369676e6174757265202776272076616c7565455243313135353a206275726e2066726f6d20746865207a65726f2061646472657373455243313135353a20696e73756666696369656e742062616c616e636520666f72207472616e73666572526f79616c747920746f74616c2076616c75652073686f756c64206265203c203130303030455243313135353a2073657474696e6720617070726f76616c2073746174757320666f722073656c66455243313135353a206163636f756e747320616e6420696473206c656e677468206d69736d61746368455243313135353a2069647320616e6420616d6f756e7473206c656e677468206d69736d61746368455243313135353a206d696e7420746f20746865207a65726f2061646472657373a2646970667358221220c7729534aed79082dd9908a86b53e1e388db1448e401132fb0a4cf4db2aa04eb64736f6c63430007060033",
  "immutableReferences": {},
  "source": "// SPDX-License-Identifier: MIT\n\npragma solidity 0.7.6;\npragma abicoder v2;\n\nimport \"./ERC1155Base.sol\";\n\ncontract ERC1155Rarible is ERC1155Base {\n    event CreateERC1155Rarible(address owner, string name, string symbol);\n\n    function __ERC1155Rarible_init(string memory _name, string memory _symbol, string memory baseURI, string memory contractURI) external initializer {\n        __Ownable_init_unchained();\n        __ERC1155Lazy_init_unchained();\n        __ERC165_init_unchained();\n        __Context_init_unchained();\n        __Mint1155Validator_init_unchained();\n        __ERC1155_init_unchained(\"\");\n        __HasContractURI_init_unchained(contractURI);\n        __ERC1155Burnable_init_unchained();\n        __RoyaltiesV2Upgradeable_init_unchained();\n        __ERC1155Base_init_unchained(_name, _symbol);\n        _setBaseURI(baseURI);\n        emit CreateERC1155Rarible(_msgSender(), _name, _symbol);\n    }\n    uint256[50] private __gap;\n}\n",
  "sourcePath": "/Users/chung/git/manifoldxyz/protocol-contracts/tokens/contracts/erc-1155/ERC1155Rarible.sol",
  "compiler": {
    "name": "solc",
    "version": "0.7.6+commit.7338295f.Emscripten.clang"
  },
  "schemaVersion": "3.3.4",
  "updatedAt": "2021-07-27T13:02:27.877Z",
  "devdoc": {
    "kind": "dev",
    "methods": {
      "balanceOf(address,uint256)": {
        "details": "See {IERC1155-balanceOf}. Requirements: - `account` cannot be the zero address."
      },
      "balanceOfBatch(address[],uint256[])": {
        "details": "See {IERC1155-balanceOfBatch}. Requirements: - `accounts` and `ids` must have the same length."
      },
      "baseURI()": {
        "details": "Returns the base URI set via {_setBaseURI}. This will be automatically added as a prefix in {tokenURI} to each token's URI, or to the token ID if no specific URI is set for that token ID."
      },
      "owner()": {
        "details": "Returns the address of the current owner."
      },
      "renounceOwnership()": {
        "details": "Leaves the contract without owner. It will not be possible to call `onlyOwner` functions anymore. Can only be called by the current owner. NOTE: Renouncing ownership will leave the contract without an owner, thereby removing any functionality that is only available to the owner."
      },
      "safeBatchTransferFrom(address,address,uint256[],uint256[],bytes)": {
        "details": "See {IERC1155-safeBatchTransferFrom}."
      },
      "safeTransferFrom(address,address,uint256,uint256,bytes)": {
        "details": "See {IERC1155-safeTransferFrom}."
      },
      "setApprovalForAll(address,bool)": {
        "details": "See {IERC1155-setApprovalForAll}."
      },
      "supportsInterface(bytes4)": {
        "details": "See {IERC165-supportsInterface}. Time complexity O(1), guaranteed to always use less than 30 000 gas."
      },
      "transferOwnership(address)": {
        "details": "Transfers ownership of the contract to a new account (`newOwner`). Can only be called by the current owner."
      }
    },
    "version": 1
  },
  "userdoc": {
    "kind": "user",
    "methods": {},
    "version": 1
  }
}