{
  "contractName": "ERC1155RaribleUser",
  "abi": [
    {
      "anonymous": false,
      "inputs": [
        {
          "indexed": true,
          "internalType": "address",
          "name": "account",
          "type": "address"
        },
        {
          "indexed": true,
          "internalType": "address",
          "name": "operator",
          "type": "address"
        },
        {
          "indexed": false,
          "internalType": "bool",
          "name": "approved",
          "type": "bool"
        }
      ],
      "name": "ApprovalForAll",
      "type": "event"
    },
    {
      "anonymous": false,
      "inputs": [
        {
          "indexed": false,
          "internalType": "address",
          "name": "owner",
          "type": "address"
        },
        {
          "indexed": false,
          "internalType": "string",
          "name": "name",
          "type": "string"
        },
        {
          "indexed": false,
          "internalType": "string",
          "name": "symbol",
          "type": "string"
        }
      ],
      "name": "CreateERC1155RaribleUser",
      "type": "event"
    },
    {
      "anonymous": false,
      "inputs": [
        {
          "indexed": false,
          "internalType": "uint256",
          "name": "tokenId",
          "type": "uint256"
        },
        {
          "components": [
            {
              "internalType": "address payable",
              "name": "account",
              "type": "address"
            },
            {
              "internalType": "uint96",
              "name": "value",
              "type": "uint96"
            }
          ],
          "indexed": false,
          "internalType": "struct LibPart.Part[]",
          "name": "creators",
          "type": "tuple[]"
        }
      ],
      "name": "Creators",
      "type": "event"
    },
    {
      "anonymous": false,
      "inputs": [
        {
          "indexed": true,
          "internalType": "address",
          "name": "previousOwner",
          "type": "address"
        },
        {
          "indexed": true,
          "internalType": "address",
          "name": "newOwner",
          "type": "address"
        }
      ],
      "name": "OwnershipTransferred",
      "type": "event"
    },
    {
      "anonymous": false,
      "inputs": [
        {
          "indexed": false,
          "internalType": "uint256",
          "name": "tokenId",
          "type": "uint256"
        },
        {
          "components": [
            {
              "internalType": "address payable",
              "name": "account",
              "type": "address"
            },
            {
              "internalType": "uint96",
              "name": "value",
              "type": "uint96"
            }
          ],
          "indexed": false,
          "internalType": "struct LibPart.Part[]",
          "name": "royalties",
          "type": "tuple[]"
        }
      ],
      "name": "RoyaltiesSet",
      "type": "event"
    },
    {
      "anonymous": false,
      "inputs": [
        {
          "indexed": false,
          "internalType": "uint256",
          "name": "tokenId",
          "type": "uint256"
        },
        {
          "indexed": false,
          "internalType": "uint256",
          "name": "value",
          "type": "uint256"
        }
      ],
      "name": "Supply",
      "type": "event"
    },
    {
      "anonymous": false,
      "inputs": [
        {
          "indexed": true,
          "internalType": "address",
          "name": "operator",
          "type": "address"
        },
        {
          "indexed": true,
          "internalType": "address",
          "name": "from",
          "type": "address"
        },
        {
          "indexed": true,
          "internalType": "address",
          "name": "to",
          "type": "address"
        },
        {
          "indexed": false,
          "internalType": "uint256[]",
          "name": "ids",
          "type": "uint256[]"
        },
        {
          "indexed": false,
          "internalType": "uint256[]",
          "name": "values",
          "type": "uint256[]"
        }
      ],
      "name": "TransferBatch",
      "type": "event"
    },
    {
      "anonymous": false,
      "inputs": [
        {
          "indexed": true,
          "internalType": "address",
          "name": "operator",
          "type": "address"
        },
        {
          "indexed": true,
          "internalType": "address",
          "name": "from",
          "type": "address"
        },
        {
          "indexed": true,
          "internalType": "address",
          "name": "to",
          "type": "address"
        },
        {
          "indexed": false,
          "internalType": "uint256",
          "name": "id",
          "type": "uint256"
        },
        {
          "indexed": false,
          "internalType": "uint256",
          "name": "value",
          "type": "uint256"
        }
      ],
      "name": "TransferSingle",
      "type": "event"
    },
    {
      "anonymous": false,
      "inputs": [
        {
          "indexed": false,
          "internalType": "string",
          "name": "value",
          "type": "string"
        },
        {
          "indexed": true,
          "internalType": "uint256",
          "name": "id",
          "type": "uint256"
        }
      ],
      "name": "URI",
      "type": "event"
    },
    {
      "inputs": [
        {
          "internalType": "address",
          "name": "account",
          "type": "address"
        },
        {
          "internalType": "uint256",
          "name": "id",
          "type": "uint256"
        }
      ],
      "name": "balanceOf",
      "outputs": [
        {
          "internalType": "uint256",
          "name": "",
          "type": "uint256"
        }
      ],
      "stateMutability": "view",
      "type": "function"
    },
    {
      "inputs": [
        {
          "internalType": "address[]",
          "name": "accounts",
          "type": "address[]"
        },
        {
          "internalType": "uint256[]",
          "name": "ids",
          "type": "uint256[]"
        }
      ],
      "name": "balanceOfBatch",
      "outputs": [
        {
          "internalType": "uint256[]",
          "name": "",
          "type": "uint256[]"
        }
      ],
      "stateMutability": "view",
      "type": "function"
    },
    {
      "inputs": [],
      "name": "baseURI",
      "outputs": [
        {
          "internalType": "string",
          "name": "",
          "type": "string"
        }
      ],
      "stateMutability": "view",
      "type": "function"
    },
    {
      "inputs": [
        {
          "internalType": "address",
          "name": "account",
          "type": "address"
        },
        {
          "internalType": "uint256",
          "name": "id",
          "type": "uint256"
        },
        {
          "internalType": "uint256",
          "name": "value",
          "type": "uint256"
        }
      ],
      "name": "burn",
      "outputs": [],
      "stateMutability": "nonpayable",
      "type": "function"
    },
    {
      "inputs": [
        {
          "internalType": "address",
          "name": "account",
          "type": "address"
        },
        {
          "internalType": "uint256[]",
          "name": "ids",
          "type": "uint256[]"
        },
        {
          "internalType": "uint256[]",
          "name": "values",
          "type": "uint256[]"
        }
      ],
      "name": "burnBatch",
      "outputs": [],
      "stateMutability": "nonpayable",
      "type": "function"
    },
    {
      "inputs": [],
      "name": "contractURI",
      "outputs": [
        {
          "internalType": "string",
          "name": "",
          "type": "string"
        }
      ],
      "stateMutability": "view",
      "type": "function"
    },
    {
      "inputs": [
        {
          "internalType": "uint256",
          "name": "",
          "type": "uint256"
        },
        {
          "internalType": "uint256",
          "name": "",
          "type": "uint256"
        }
      ],
      "name": "creators",
      "outputs": [
        {
          "internalType": "address payable",
          "name": "account",
          "type": "address"
        },
        {
          "internalType": "uint96",
          "name": "value",
          "type": "uint96"
        }
      ],
      "stateMutability": "view",
      "type": "function"
    },
    {
      "inputs": [
        {
          "internalType": "uint256",
          "name": "_id",
          "type": "uint256"
        }
      ],
      "name": "getCreators",
      "outputs": [
        {
          "components": [
            {
              "internalType": "address payable",
              "name": "account",
              "type": "address"
            },
            {
              "internalType": "uint96",
              "name": "value",
              "type": "uint96"
            }
          ],
          "internalType": "struct LibPart.Part[]",
          "name": "",
          "type": "tuple[]"
        }
      ],
      "stateMutability": "view",
      "type": "function"
    },
    {
      "inputs": [
        {
          "internalType": "uint256",
          "name": "id",
          "type": "uint256"
        }
      ],
      "name": "getRoyalties",
      "outputs": [
        {
          "components": [
            {
              "internalType": "address payable",
              "name": "account",
              "type": "address"
            },
            {
              "internalType": "uint96",
              "name": "value",
              "type": "uint96"
            }
          ],
          "internalType": "struct LibPart.Part[]",
          "name": "",
          "type": "tuple[]"
        }
      ],
      "stateMutability": "view",
      "type": "function"
    },
    {
      "inputs": [
        {
          "internalType": "address",
          "name": "account",
          "type": "address"
        },
        {
          "internalType": "address",
          "name": "operator",
          "type": "address"
        }
      ],
      "name": "isApprovedForAll",
      "outputs": [
        {
          "internalType": "bool",
          "name": "",
          "type": "bool"
        }
      ],
      "stateMutability": "view",
      "type": "function"
    },
    {
      "inputs": [],
      "name": "name",
      "outputs": [
        {
          "internalType": "string",
          "name": "",
          "type": "string"
        }
      ],
      "stateMutability": "view",
      "type": "function"
    },
    {
      "inputs": [],
      "name": "owner",
      "outputs": [
        {
          "internalType": "address",
          "name": "",
          "type": "address"
        }
      ],
      "stateMutability": "view",
      "type": "function"
    },
    {
      "inputs": [],
      "name": "renounceOwnership",
      "outputs": [],
      "stateMutability": "nonpayable",
      "type": "function"
    },
    {
      "inputs": [
        {
          "internalType": "uint256",
          "name": "",
          "type": "uint256"
        },
        {
          "internalType": "uint256",
          "name": "",
          "type": "uint256"
        }
      ],
      "name": "royalties",
      "outputs": [
        {
          "internalType": "address payable",
          "name": "account",
          "type": "address"
        },
        {
          "internalType": "uint96",
          "name": "value",
          "type": "uint96"
        }
      ],
      "stateMutability": "view",
      "type": "function"
    },
    {
      "inputs": [
        {
          "internalType": "address",
          "name": "from",
          "type": "address"
        },
        {
          "internalType": "address",
          "name": "to",
          "type": "address"
        },
        {
          "internalType": "uint256[]",
          "name": "ids",
          "type": "uint256[]"
        },
        {
          "internalType": "uint256[]",
          "name": "amounts",
          "type": "uint256[]"
        },
        {
          "internalType": "bytes",
          "name": "data",
          "type": "bytes"
        }
      ],
      "name": "safeBatchTransferFrom",
      "outputs": [],
      "stateMutability": "nonpayable",
      "type": "function"
    },
    {
      "inputs": [
        {
          "internalType": "address",
          "name": "from",
          "type": "address"
        },
        {
          "internalType": "address",
          "name": "to",
          "type": "address"
        },
        {
          "internalType": "uint256",
          "name": "id",
          "type": "uint256"
        },
        {
          "internalType": "uint256",
          "name": "amount",
          "type": "uint256"
        },
        {
          "internalType": "bytes",
          "name": "data",
          "type": "bytes"
        }
      ],
      "name": "safeTransferFrom",
      "outputs": [],
      "stateMutability": "nonpayable",
      "type": "function"
    },
    {
      "inputs": [
        {
          "internalType": "address",
          "name": "operator",
          "type": "address"
        },
        {
          "internalType": "bool",
          "name": "approved",
          "type": "bool"
        }
      ],
      "name": "setApprovalForAll",
      "outputs": [],
      "stateMutability": "nonpayable",
      "type": "function"
    },
    {
      "inputs": [
        {
          "internalType": "bytes4",
          "name": "interfaceId",
          "type": "bytes4"
        }
      ],
      "name": "supportsInterface",
      "outputs": [
        {
          "internalType": "bool",
          "name": "",
          "type": "bool"
        }
      ],
      "stateMutability": "view",
      "type": "function"
    },
    {
      "inputs": [],
      "name": "symbol",
      "outputs": [
        {
          "internalType": "string",
          "name": "",
          "type": "string"
        }
      ],
      "stateMutability": "view",
      "type": "function"
    },
    {
      "inputs": [
        {
          "components": [
            {
              "internalType": "uint256",
              "name": "tokenId",
              "type": "uint256"
            },
            {
              "internalType": "string",
              "name": "uri",
              "type": "string"
            },
            {
              "internalType": "uint256",
              "name": "supply",
              "type": "uint256"
            },
            {
              "components": [
                {
                  "internalType": "address payable",
                  "name": "account",
                  "type": "address"
                },
                {
                  "internalType": "uint96",
                  "name": "value",
                  "type": "uint96"
                }
              ],
              "internalType": "struct LibPart.Part[]",
              "name": "creators",
              "type": "tuple[]"
            },
            {
              "components": [
                {
                  "internalType": "address payable",
                  "name": "account",
                  "type": "address"
                },
                {
                  "internalType": "uint96",
                  "name": "value",
                  "type": "uint96"
                }
              ],
              "internalType": "struct LibPart.Part[]",
              "name": "royalties",
              "type": "tuple[]"
            },
            {
              "internalType": "bytes[]",
              "name": "signatures",
              "type": "bytes[]"
            }
          ],
          "internalType": "struct LibERC1155LazyMint.Mint1155Data",
          "name": "data",
          "type": "tuple"
        },
        {
          "internalType": "address",
          "name": "from",
          "type": "address"
        },
        {
          "internalType": "address",
          "name": "to",
          "type": "address"
        },
        {
          "internalType": "uint256",
          "name": "amount",
          "type": "uint256"
        }
      ],
      "name": "transferFromOrMint",
      "outputs": [],
      "stateMutability": "nonpayable",
      "type": "function"
    },
    {
      "inputs": [
        {
          "internalType": "address",
          "name": "newOwner",
          "type": "address"
        }
      ],
      "name": "transferOwnership",
      "outputs": [],
      "stateMutability": "nonpayable",
      "type": "function"
    },
    {
      "inputs": [
        {
          "internalType": "string",
          "name": "_name",
          "type": "string"
        },
        {
          "internalType": "string",
          "name": "_symbol",
          "type": "string"
        },
        {
          "internalType": "string",
          "name": "baseURI",
          "type": "string"
        },
        {
          "internalType": "string",
          "name": "contractURI",
          "type": "string"
        },
        {
          "internalType": "address[]",
          "name": "operators",
          "type": "address[]"
        }
      ],
      "name": "__ERC1155RaribleUser_init",
      "outputs": [],
      "stateMutability": "nonpayable",
      "type": "function"
    },
    {
      "inputs": [
        {
          "internalType": "uint256",
          "name": "tokenId",
          "type": "uint256"
        }
      ],
      "name": "uri",
      "outputs": [
        {
          "internalType": "string",
          "name": "",
          "type": "string"
        }
      ],
      "stateMutability": "view",
      "type": "function"
    },
    {
      "inputs": [
        {
          "components": [
            {
              "internalType": "uint256",
              "name": "tokenId",
              "type": "uint256"
            },
            {
              "internalType": "string",
              "name": "uri",
              "type": "string"
            },
            {
              "internalType": "uint256",
              "name": "supply",
              "type": "uint256"
            },
            {
              "components": [
                {
                  "internalType": "address payable",
                  "name": "account",
                  "type": "address"
                },
                {
                  "internalType": "uint96",
                  "name": "value",
                  "type": "uint96"
                }
              ],
              "internalType": "struct LibPart.Part[]",
              "name": "creators",
              "type": "tuple[]"
            },
            {
              "components": [
                {
                  "internalType": "address payable",
                  "name": "account",
                  "type": "address"
                },
                {
                  "internalType": "uint96",
                  "name": "value",
                  "type": "uint96"
                }
              ],
              "internalType": "struct LibPart.Part[]",
              "name": "royalties",
              "type": "tuple[]"
            },
            {
              "internalType": "bytes[]",
              "name": "signatures",
              "type": "bytes[]"
            }
          ],
          "internalType": "struct LibERC1155LazyMint.Mint1155Data",
          "name": "data",
          "type": "tuple"
        },
        {
          "internalType": "address",
          "name": "to",
          "type": "address"
        },
        {
          "internalType": "uint256",
          "name": "_amount",
          "type": "uint256"
        }
      ],
      "name": "mintAndTransfer",
      "outputs": [],
      "stateMutability": "nonpayable",
      "type": "function"
    }
  ],
  "bytecode": "0x608060405234801561001057600080fd5b50614714806100206000396000f3fe608060405234801561001057600080fd5b50600436106101575760003560e01c80638924af74116100c3578063e8a3d4851161007c578063e8a3d485146102e2578063e985e9c5146102ea578063f242432a146102fd578063f2fde38b14610310578063f5298aca14610323578063ffc4e0a71461033657610157565b80638924af741461026b5780638da5cb5b1461028c57806395d89b41146102a157806398d0b4fb146102a9578063a22cb465146102bc578063bb3bafd6146102cf57610157565b80634e1273f4116101155780634e1273f4146101f5578063650e5ad7146102155780636b20c454146102285780636c0360eb1461023b578063715018a614610243578063891be9741461024b57610157565b8062fdd58e1461015c57806301ffc9a71461018557806306fdde03146101a55780630e89341c146101ba5780630eaead67146101cd5780632eb2c2d6146101e2575b600080fd5b61016f61016a366004613cfb565b610349565b60405161017c91906142fc565b60405180910390f35b610198610193366004613dba565b6103b8565b60405161017c91906140fc565b6101ad6103db565b60405161017c9190614107565b6101ad6101c8366004613f5e565b61046a565b6101e06101db366004613f07565b61047b565b005b6101e06101f0366004613b49565b6104e8565b610208610203366004613d5a565b6107e6565b60405161017c91906140b8565b6101e0610223366004613de2565b6108d1565b6101e0610236366004613c58565b610a58565b6101ad610acc565b6101e0610b63565b61025e610259366004613f5e565b610c21565b60405161017c91906140a5565b61027e610279366004613f76565b610cb1565b60405161017c929190614083565b610294610cfb565b60405161017c9190614039565b6101ad610d0a565b61027e6102b7366004613f76565b610d66565b6101e06102ca366004613cca565b610d83565b61025e6102dd366004613f5e565b610e72565b6101ad610eed565b6101986102f8366004613b11565b610f49565b6101e061030b366004613bf2565b610f77565b6101e061031e366004613af5565b611142565b6101e0610331366004613d26565b611257565b6101e0610344366004613ea0565b6112cb565b60006001600160a01b0383166103905760405162461bcd60e51b815260040180806020018281038252602b815260200180614490602b913960400191505060405180910390fd5b5060009081526097602090815260408083206001600160a01b03949094168352929052205490565b6001600160e01b0319811660009081526065602052604090205460ff165b919050565b61022f805460408051602060026001851615610100026000190190941693909304601f810184900484028201840190925281815292918301828280156104625780601f1061043757610100808354040283529160200191610462565b820191906000526020600020905b81548152906001019060200180831161044557829003601f168201915b505050505081565b606061047582611326565b92915050565b826060015160008151811061048c57fe5b6020026020010151600001516001600160a01b03166104a9610cfb565b6001600160a01b0316146104d85760405162461bcd60e51b81526004016104cf9061411a565b60405180910390fd5b6104e3838383611562565b505050565b81518351146105285760405162461bcd60e51b81526004018080602001828103825260288152602001806146966028913960400191505060405180910390fd5b6001600160a01b03841661056d5760405162461bcd60e51b81526004018080602001828103825260258152602001806145506025913960400191505060405180910390fd5b610575611763565b6001600160a01b0316856001600160a01b0316148061059b575061059b856102f8611763565b6105d65760405162461bcd60e51b81526004018080602001828103825260328152602001806145756032913960400191505060405180910390fd5b60006105e0611763565b90506105f08187878787876107de565b60005b84518110156106f657600085828151811061060a57fe5b60200260200101519050600085838151811061062257fe5b6020026020010151905061068f816040518060600160405280602a815260200161461a602a91396097600086815260200190815260200160002060008d6001600160a01b03166001600160a01b03168152602001908152602001600020546117679092919063ffffffff16565b60008381526097602090815260408083206001600160a01b038e811685529252808320939093558a16815220546106c690826117fe565b60009283526097602090815260408085206001600160a01b038c16865290915290922091909155506001016105f3565b50846001600160a01b0316866001600160a01b0316826001600160a01b03167f4a39dc06d4c0dbc64b70af90fd698a233a518aa5d07e595d983b8c0526c8f7fb8787604051808060200180602001838103835285818151815260200191508051906020019060200280838360005b8381101561077c578181015183820152602001610764565b50505050905001838103825284818151815260200191508051906020019060200280838360005b838110156107bb5781810151838201526020016107a3565b5050505090500194505050505060405180910390a46107de81878787878761185f565b505050505050565b606081518351146108285760405162461bcd60e51b815260040180806020018281038252602981526020018061466d6029913960400191505060405180910390fd5b600083516001600160401b038111801561084157600080fd5b5060405190808252806020026020018201604052801561086b578160200160208202803683370190505b50905060005b84518110156108c9576108aa85828151811061088957fe5b602002602001015185838151811061089d57fe5b6020026020010151610349565b8282815181106108b657fe5b6020908102919091010152600101610871565b509392505050565b600054610100900460ff16806108ea57506108ea611ade565b806108f8575060005460ff16155b6109335760405162461bcd60e51b815260040180806020018281038252602e8152602001806145a7602e913960400191505060405180910390fd5b600054610100900460ff1615801561095e576000805460ff1961ff0019909116610100171660011790555b610966611aef565b61096e611be9565b610976611c9a565b61097e611d37565b610986611dd7565b61099e60405180602001604052806000815250611ea7565b6109a783611f73565b6109af611d37565b6109b7612025565b6109c186866120c2565b6109ca8461218f565b60005b82518110156109fc576109f48382815181106109e557fe5b60200260200101516001610d83565b6001016109cd565b507f7da6bc204c8c4856a6aff786a6cb81c59477c782191dc51837d644a8ad50f2cc610a26611763565b8787604051610a379392919061404d565b60405180910390a180156107de576000805461ff0019169055505050505050565b610a60611763565b6001600160a01b0316836001600160a01b03161480610a865750610a86836102f8611763565b610ac15760405162461bcd60e51b81526004018080602001828103825260298152602001806145056029913960400191505060405180910390fd5b6104e38383836121a2565b60fc8054604080516020601f6002600019610100600188161502019095169490940493840181900481028201810190925282815260609390929091830182828015610b585780601f10610b2d57610100808354040283529160200191610b58565b820191906000526020600020905b815481529060010190602001808311610b3b57829003601f168201915b505050505090505b90565b610b6b611763565b6001600160a01b0316610b7c610cfb565b6001600160a01b031614610bd7576040805162461bcd60e51b815260206004820181905260248201527f4f776e61626c653a2063616c6c6572206973206e6f7420746865206f776e6572604482015290519081900360640190fd5b6033546040516000916001600160a01b0316907f8be0079c531659141344cd1fd0a4f28419497f9722a3daafe3b4186f6b6457e0908390a3603380546001600160a01b0319169055565b60606101c86000838152602001908152602001600020805480602002602001604051908101604052809291908181526020016000905b82821015610ca657600084815260209081902060408051808201909152908401546001600160a01b0381168252600160a01b90046001600160601b031681830152825260019092019101610c57565b505050509050919050565b6101c76020528160005260406000208181548110610cce57600080fd5b6000918252602090912001546001600160a01b0381169250600160a01b90046001600160601b0316905082565b6033546001600160a01b031690565b610230805460408051602060026001851615610100026000190190941693909304601f810184900484028201840190925281815292918301828280156104625780601f1061043757610100808354040283529160200191610462565b6101c86020528160005260406000208181548110610cce57600080fd5b816001600160a01b0316610d95611763565b6001600160a01b03161415610ddb5760405162461bcd60e51b81526004018080602001828103825260298152602001806146446029913960400191505060405180910390fd5b8060986000610de8611763565b6001600160a01b03908116825260208083019390935260409182016000908120918716808252919093529120805460ff191692151592909217909155610e2c611763565b6001600160a01b03167f17307eab39ab6107e8899845ad3d59bd9653f200f220920489ca2b5937696c318360405180821515815260200191505060405180910390a35050565b60008181526101c760209081526040808320805482518185028101850190935280835260609492939192909184018215610ca657600084815260209081902060408051808201909152908401546001600160a01b0381168252600160a01b90046001600160601b031681830152825260019092019101610c57565b6101fd805460408051602060026001851615610100026000190190941693909304601f810184900484028201840190925281815292918301828280156104625780601f1061043757610100808354040283529160200191610462565b6001600160a01b03918216600090815260986020908152604080832093909416825291909152205460ff1690565b6001600160a01b038416610fbc5760405162461bcd60e51b81526004018080602001828103825260258152602001806145506025913960400191505060405180910390fd5b610fc4611763565b6001600160a01b0316856001600160a01b03161480610fea5750610fea856102f8611763565b6110255760405162461bcd60e51b81526004018080602001828103825260298152602001806145056029913960400191505060405180910390fd5b600061102f611763565b905061104f81878761104088612410565b61104988612410565b876107de565b611096836040518060600160405280602a815260200161461a602a913960008781526097602090815260408083206001600160a01b038d1684529091529020549190611767565b60008581526097602090815260408083206001600160a01b038b811685529252808320939093558716815220546110cd90846117fe565b60008581526097602090815260408083206001600160a01b03808b168086529184529382902094909455805188815291820187905280518a8416938616927fc3d58168c5ae7397731d063d5bbf3d657854427343f4c083240f7aacaa2d0f6292908290030190a46107de818787878787612455565b61114a611763565b6001600160a01b031661115b610cfb565b6001600160a01b0316146111b6576040805162461bcd60e51b815260206004820181905260248201527f4f776e61626c653a2063616c6c6572206973206e6f7420746865206f776e6572604482015290519081900360640190fd5b6001600160a01b0381166111fb5760405162461bcd60e51b81526004018080602001828103825260268152602001806144bb6026913960400191505060405180910390fd5b6033546040516001600160a01b038084169216907f8be0079c531659141344cd1fd0a4f28419497f9722a3daafe3b4186f6b6457e090600090a3603380546001600160a01b0319166001600160a01b0392909216919091179055565b61125f611763565b6001600160a01b0316836001600160a01b031614806112855750611285836102f8611763565b6112c05760405162461bcd60e51b81526004018080602001828103825260298152602001806145056029913960400191505060405180910390fd5b6104e38383836125c6565b60006112db848660000151610349565b90508181156113155782808310156112f05750815b611310868689600001518460405180602001604052806000815250610f77565b830390505b80156107de576107de86858361047b565b600081815260fb6020908152604080832080548251601f60026000196101006001861615020190931692909204918201859004850281018501909352808352606094938301828280156113ba5780601f1061138f576101008083540402835291602001916113ba565b820191906000526020600020905b81548152906001019060200180831161139d57829003601f168201915b5050505050905060006113cb610acc565b90508051600014156113df575090506103d6565b8151156114a05780826040516020018083805190602001908083835b6020831061141a5780518252601f1990920191602091820191016113fb565b51815160209384036101000a600019018019909216911617905285519190930192850191508083835b602083106114625780518252601f199092019160209182019101611443565b6001836020036101000a03801982511681845116808217855250505050505090500192505050604051602081830303815290604052925050506103d6565b806114aa856126f9565b6040516020018083805190602001908083835b602083106114dc5780518252601f1990920191602091820191016114bd565b51815160209384036101000a600019018019909216911617905285519190930192850191508083835b602083106115245780518252601f199092019160209182019101611505565b6001836020036101000a0380198251168184511680821785525050505050509050019250505060405160208183030381529060405292505050919050565b825160601c6000611571611763565b9050806001600160a01b0316826001600160a01b0316148061159857506115988282610f49565b6115b45760405162461bcd60e51b81526004016104cf90614205565b600083116115d45760405162461bcd60e51b81526004016104cf906141db565b845160009081526101c9602052604090205461173d5784606001516000815181106115fb57fe5b6020026020010151600001516001600160a01b0316826001600160a01b0316146116375760405162461bcd60e51b81526004016104cf906141b0565b600085604001511161165b5760405162461bcd60e51b81526004016104cf90614151565b8460a00151518560600151511461167157600080fd5b600061167c866127d3565b905060005b8660600151518110156116f2576000876060015182815181106116a057fe5b6020026020010151600001519050836001600160a01b0316816001600160a01b0316146116e9576116e981848a60a0015185815181106116dc57fe5b6020026020010151612a26565b50600101611681565b5061170586600001518760400151612a31565b61171786600001518760800151612a9b565b61172986600001518760600151612c21565b61173b86600001518760200151612dd0565b505b61175c8486600001518560405180602001604052806000815250612e93565b5050505050565b3390565b600081848411156117f65760405162461bcd60e51b81526004018080602001828103825283818151815260200191508051906020019080838360005b838110156117bb5781810151838201526020016117a3565b50505050905090810190601f1680156117e85780820380516001836020036101000a031916815260200191505b509250505060405180910390fd5b505050900390565b600082820183811015611858576040805162461bcd60e51b815260206004820152601b60248201527f536166654d6174683a206164646974696f6e206f766572666c6f770000000000604482015290519081900360640190fd5b9392505050565b611871846001600160a01b0316612ea5565b156107de57836001600160a01b031663bc197c8187878686866040518663ffffffff1660e01b815260040180866001600160a01b03168152602001856001600160a01b03168152602001806020018060200180602001848103845287818151815260200191508051906020019060200280838360005b838110156118ff5781810151838201526020016118e7565b50505050905001848103835286818151815260200191508051906020019060200280838360005b8381101561193e578181015183820152602001611926565b50505050905001848103825285818151815260200191508051906020019080838360005b8381101561197a578181015183820152602001611962565b50505050905090810190601f1680156119a75780820380516001836020036101000a031916815260200191505b5098505050505050505050602060405180830381600087803b1580156119cc57600080fd5b505af19250505080156119f157506040513d60208110156119ec57600080fd5b505160015b611a86576119fd61437a565b80611a085750611a4f565b60405162461bcd60e51b81526020600482018181528351602484015283518493919283926044019190850190808383600083156117bb5781810151838201526020016117a3565b60405162461bcd60e51b81526004018080602001828103825260348152602001806144346034913960400191505060405180910390fd5b6001600160e01b0319811663bc197c8160e01b14611ad55760405162461bcd60e51b81526004018080602001828103825260288152602001806144686028913960400191505060405180910390fd5b50505050505050565b6000611ae930612ea5565b15905090565b600054610100900460ff1680611b085750611b08611ade565b80611b16575060005460ff16155b611b515760405162461bcd60e51b815260040180806020018281038252602e8152602001806145a7602e913960400191505060405180910390fd5b600054610100900460ff16158015611b7c576000805460ff1961ff0019909116610100171660011790555b6000611b86611763565b603380546001600160a01b0319166001600160a01b038316908117909155604051919250906000907f8be0079c531659141344cd1fd0a4f28419497f9722a3daafe3b4186f6b6457e0908290a3508015611be6576000805461ff00191690555b50565b600054610100900460ff1680611c025750611c02611ade565b80611c10575060005460ff16155b611c4b5760405162461bcd60e51b815260040180806020018281038252602e8152602001806145a7602e913960400191505060405180910390fd5b600054610100900460ff16158015611c76576000805460ff1961ff0019909116610100171660011790555b611c86636db15a0f60e01b612eab565b8015611be6576000805461ff001916905550565b600054610100900460ff1680611cb35750611cb3611ade565b80611cc1575060005460ff16155b611cfc5760405162461bcd60e51b815260040180806020018281038252602e8152602001806145a7602e913960400191505060405180910390fd5b600054610100900460ff16158015611d27576000805460ff1961ff0019909116610100171660011790555b611c866301ffc9a760e01b612eab565b600054610100900460ff1680611d505750611d50611ade565b80611d5e575060005460ff16155b611d995760405162461bcd60e51b815260040180806020018281038252602e8152602001806145a7602e913960400191505060405180910390fd5b600054610100900460ff16158015611c86576000805460ff1961ff0019909116610100171660011790558015611be6576000805461ff001916905550565b600054610100900460ff1680611df05750611df0611ade565b80611dfe575060005460ff16155b611e395760405162461bcd60e51b815260040180806020018281038252602e8152602001806145a7602e913960400191505060405180910390fd5b600054610100900460ff16158015611e64576000805460ff1961ff0019909116610100171660011790555b611c86604051806040016040528060088152602001674d696e743131353560c01b815250604051806040016040528060018152602001603160f81b815250612f2f565b600054610100900460ff1680611ec05750611ec0611ade565b80611ece575060005460ff16155b611f095760405162461bcd60e51b815260040180806020018281038252602e8152602001806145a7602e913960400191505060405180910390fd5b600054610100900460ff16158015611f34576000805460ff1961ff0019909116610100171660011790555b611f3d82612ff1565b611f4d636cdb3d1360e11b612eab565b611f5d6303a24d0760e21b612eab565b8015611f6f576000805461ff00191690555b5050565b600054610100900460ff1680611f8c5750611f8c611ade565b80611f9a575060005460ff16155b611fd55760405162461bcd60e51b815260040180806020018281038252602e8152602001806145a7602e913960400191505060405180910390fd5b600054610100900460ff16158015612000576000805460ff1961ff0019909116610100171660011790555b8151612014906101fd906020850190613744565b50611f5d63e8a3d48560e01b612eab565b600054610100900460ff168061203e575061203e611ade565b8061204c575060005460ff16155b6120875760405162461bcd60e51b815260040180806020018281038252602e8152602001806145a7602e913960400191505060405180910390fd5b600054610100900460ff161580156120b2576000805460ff1961ff0019909116610100171660011790555b611c86631131d2f360e21b612eab565b600054610100900460ff16806120db57506120db611ade565b806120e9575060005460ff16155b6121245760405162461bcd60e51b815260040180806020018281038252602e8152602001806145a7602e913960400191505060405180910390fd5b600054610100900460ff1615801561214f576000805460ff1961ff0019909116610100171660011790555b82516121639061022f906020860190613744565b50815161217890610230906020850190613744565b5080156104e3576000805461ff0019169055505050565b8051611f6f9060fc906020840190613744565b6001600160a01b0383166121e75760405162461bcd60e51b81526004018080602001828103825260238152602001806145f76023913960400191505060405180910390fd5b80518251146122275760405162461bcd60e51b81526004018080602001828103825260288152602001806146966028913960400191505060405180910390fd5b6000612231611763565b9050612251818560008686604051806020016040528060008152506107de565b60005b835181101561232f576122e683828151811061226c57fe5b60200260200101516040518060600160405280602481526020016144e1602491396097600088868151811061229d57fe5b602002602001015181526020019081526020016000206000896001600160a01b03166001600160a01b03168152602001908152602001600020546117679092919063ffffffff16565b609760008684815181106122f657fe5b602090810291909101810151825281810192909252604090810160009081206001600160a01b038a168252909252902055600101612254565b5060006001600160a01b0316846001600160a01b0316826001600160a01b03167f4a39dc06d4c0dbc64b70af90fd698a233a518aa5d07e595d983b8c0526c8f7fb8686604051808060200180602001838103835285818151815260200191508051906020019060200280838360005b838110156123b657818101518382015260200161239e565b50505050905001838103825284818151815260200191508051906020019060200280838360005b838110156123f55781810151838201526020016123dd565b5050505090500194505050505060405180910390a450505050565b6040805160018082528183019092526060916000919060208083019080368337019050509050828160008151811061244457fe5b602090810291909101015292915050565b612467846001600160a01b0316612ea5565b156107de57836001600160a01b031663f23a6e6187878686866040518663ffffffff1660e01b815260040180866001600160a01b03168152602001856001600160a01b0316815260200184815260200183815260200180602001828103825283818151815260200191508051906020019080838360005b838110156124f65781810151838201526020016124de565b50505050905090810190601f1680156125235780820380516001836020036101000a031916815260200191505b509650505050505050602060405180830381600087803b15801561254657600080fd5b505af192505050801561256b57506040513d602081101561256657600080fd5b505160015b612577576119fd61437a565b6001600160e01b0319811663f23a6e6160e01b14611ad55760405162461bcd60e51b81526004018080602001828103825260288152602001806144686028913960400191505060405180910390fd5b6001600160a01b03831661260b5760405162461bcd60e51b81526004018080602001828103825260238152602001806145f76023913960400191505060405180910390fd5b6000612615611763565b90506126458185600061262787612410565b61263087612410565b604051806020016040528060008152506107de565b61268c826040518060600160405280602481526020016144e16024913960008681526097602090815260408083206001600160a01b038b1684529091529020549190611767565b60008481526097602090815260408083206001600160a01b03808a16808652918452828520959095558151888152928301879052815193949093908616927fc3d58168c5ae7397731d063d5bbf3d657854427343f4c083240f7aacaa2d0f6292908290030190a450505050565b60608161271e57506040805180820190915260018152600360fc1b60208201526103d6565b8160005b811561273657600101600a82049150612722565b6000816001600160401b038111801561274e57600080fd5b506040519080825280601f01601f191660200182016040528015612779576020820181803683370190505b50859350905060001982015b83156127ca57600a840660300160f81b828280600190039350815181106127a857fe5b60200101906001600160f81b031916908160001a905350600a84049350612785565b50949350505050565b6000808260800151516001600160401b03811180156127f157600080fd5b5060405190808252806020026020018201604052801561281b578160200160208202803683370190505b50905060005b83608001515181101561286d5761284e8460800151828151811061284157fe5b6020026020010151613004565b82828151811061285a57fe5b6020908102919091010152600101612821565b5060008360600151516001600160401b038111801561288b57600080fd5b506040519080825280602002602001820160405280156128b5578160200160208202803683370190505b50905060005b8460600151518110156128fa576128db8560600151828151811061284157fe5b8282815181106128e757fe5b60209081029190910101526001016128bb565b507ffb988707ebb338694f318760b0fd5cfe756d00a2ade251fda110b80c336a3c7f846000015185604001518660200151805190602001208460405160200180828051906020019060200280838360005b8381101561296357818101518382015260200161294b565b50505050905001915050604051602081830303815290604052805190602001208660405160200180828051906020019060200280838360005b838110156129b457818101518382015260200161299c565b50505050905001915050604051602081830303815290604052805190602001206040516020018087815260200186815260200185815260200184815260200183815260200182815260200196505050505050506040516020818303038152906040528051906020012092505050919050565b6104e3838383613071565b60008281526101c9602052604090205415612a4b57600080fd5b60008281526101c9602052604090819020829055517f5e2aa66efd74cce82b21852e317e5490d9ecc9e6bb953ae24d90851258cc2f5c90612a8f9084908490614326565b60405180910390a15050565b60005b8151811015612c165760006001600160a01b0316828281518110612abe57fe5b6020026020010151600001516001600160a01b03161415612b26576040805162461bcd60e51b815260206004820152601b60248201527f526563697069656e742073686f756c642062652070726573656e740000000000604482015290519081900360640190fd5b818181518110612b3257fe5b6020026020010151602001516001600160601b031660001415612b9c576040805162461bcd60e51b815260206004820181905260248201527f526f79616c74792076616c75652073686f756c6420626520706f736974697665604482015290519081900360640190fd5b60008381526101c7602052604090208251839083908110612bb957fe5b60209081029190910181015182546001818101855560009485529383902082519101805492909301516001600160601b0316600160a01b026001600160a01b039182166001600160a01b0319909316929092171617905501612a9e565b50611f6f82826132a9565b60008281526101c86020526040812090805b8351811015612d6f5760006001600160a01b0316848281518110612c5357fe5b6020026020010151600001516001600160a01b03161415612c865760405162461bcd60e51b81526004016104cf90614277565b838181518110612c9257fe5b6020026020010151602001516001600160601b031660001415612cc75760405162461bcd60e51b81526004016104cf9061417b565b82848281518110612cd457fe5b602090810291909101810151825460018101845560009384529282902081519301805491909201516001600160601b0316600160a01b026001600160a01b039384166001600160a01b0319909216919091179092169190911790558351612d6590859083908110612d4157fe5b6020026020010151602001516001600160601b0316836117fe90919063ffffffff16565b9150600101612c33565b508061271014612d915760405162461bcd60e51b81526004016104cf906142ae565b7f841ffb90d4cabdd1f16034f3fa831d79060febbb8167bdd54a49269365bdf78f8484604051612dc2929190614305565b60405180910390a150505050565b600082815260fb602090815260409091208251612def92840190613744565b50817f6bb7ff708619ba0610cba295a58592e0451dee2622938c8755667688daf3529b612e1b84611326565b6040805160208082528351818301528351919283929083019185019080838360005b83811015612e55578181015183820152602001612e3d565b50505050905090810190601f168015612e825780820380516001836020036101000a031916815260200191505b509250505060405180910390a25050565b612e9f848484846132da565b50505050565b3b151590565b6001600160e01b03198082161415612f0a576040805162461bcd60e51b815260206004820152601c60248201527f4552433136353a20696e76616c696420696e7465726661636520696400000000604482015290519081900360640190fd5b6001600160e01b0319166000908152606560205260409020805460ff19166001179055565b600054610100900460ff1680612f485750612f48611ade565b80612f56575060005460ff16155b612f915760405162461bcd60e51b815260040180806020018281038252602e8152602001806145a7602e913960400191505060405180910390fd5b600054610100900460ff16158015612fbc576000805460ff1961ff0019909116610100171660011790555b825160208085019190912083519184019190912061012f919091556101305580156104e3576000805461ff0019169055505050565b8051611f6f906099906020840190613744565b8051602091820151604080517f397e04204c1e1a60ee8724b71f8244e10ab5f2e9009854d80f602bda21b59ebb818601526001600160a01b03909316838201526001600160601b039091166060808401919091528151808403909101815260809092019052805191012090565b600061307c83613345565b9050613090846001600160a01b0316612ea5565b156132095760408051630b135d3f60e11b808252600482018481526024830193845285516044840152855191936001600160a01b03891693631626ba7e938793899390929091606490910190602085019080838360005b838110156130ff5781810151838201526020016130e7565b50505050905090810190601f16801561312c5780820380516001836020036101000a031916815260200191505b50935050505060206040518083038186803b15801561314a57600080fd5b505afa15801561315e573d6000803e3d6000fd5b505050506040513d602081101561317457600080fd5b505160408051808201909152601c81527f7369676e617475726520766572696669636174696f6e206572726f72000000006020820152916001600160e01b0319909116146132035760405162461bcd60e51b81526020600482018181528351602484015283519092839260449091019190850190808383600083156117bb5781810151838201526020016117a3565b50612e9f565b6001600160a01b03841661321d8284613391565b6001600160a01b0316146040518060400160405280601c81526020017f7369676e617475726520766572696669636174696f6e206572726f72000000008152509061175c5760405162461bcd60e51b81526020600482018181528351602484015283519092839260449091019190850190808383600083156117bb5781810151838201526020016117a3565b7f3fa96d7b6bcbfe71ef171666d84db3cf52fa2d1c8afdb1cc8e486177f208b7df8282604051612a8f929190614305565b60008381526101ca60205260408120546132f59084906117fe565b60008581526101c960205260409020549091508111156133275760405162461bcd60e51b81526004016104cf9061424d565b60008481526101ca6020526040902081905561175c85858585613411565b600061334f613512565b82604051602001808061190160f01b81525060020183815260200182815260200192505050604051602081830303815290604052805190602001209050919050565b600081516041146133e9576040805162461bcd60e51b815260206004820152601f60248201527f45434453413a20696e76616c6964207369676e6174757265206c656e67746800604482015290519081900360640190fd5b60208201516040830151606084015160001a61340786828585613552565b9695505050505050565b6001600160a01b0384166134565760405162461bcd60e51b81526004018080602001828103825260218152602001806146be6021913960400191505060405180910390fd5b6000613460611763565b90506134728160008761104088612410565b60008481526097602090815260408083206001600160a01b038916845290915290205461349f90846117fe565b60008581526097602090815260408083206001600160a01b03808b16808652918452828520959095558151898152928301889052815190948616927fc3d58168c5ae7397731d063d5bbf3d657854427343f4c083240f7aacaa2d0f6292908290030190a461175c81600087878787612455565b600061354d7f8b73c3c69bb8fe3d512ecc4cf759cc79239f7b179b0ffacaa9a75d522b39400f6135406136d0565b6135486136d7565b6136de565b905090565b60007f7fffffffffffffffffffffffffffffff5d576e7357a4501ddfe92f46681b20a08211156135b35760405162461bcd60e51b815260040180806020018281038252602281526020018061452e6022913960400191505060405180910390fd5b8360ff16601b14806135c857508360ff16601c145b6136035760405162461bcd60e51b81526004018080602001828103825260228152602001806145d56022913960400191505060405180910390fd5b600060018686868660405160008152602001604052604051808581526020018460ff1681526020018381526020018281526020019450505050506020604051602081039080840390855afa15801561365f573d6000803e3d6000fd5b5050604051601f1901519150506001600160a01b0381166136c7576040805162461bcd60e51b815260206004820152601860248201527f45434453413a20696e76616c6964207369676e61747572650000000000000000604482015290519081900360640190fd5b95945050505050565b61012f5490565b6101305490565b60008383836136eb613740565b3060405160200180868152602001858152602001848152602001838152602001826001600160a01b03168152602001955050505050506040516020818303038152906040528051906020012090509392505050565b4690565b828054600181600116156101000203166002900490600052602060002090601f01602090048101928261377a57600085556137c0565b82601f1061379357805160ff19168380011785556137c0565b828001600101855582156137c0579182015b828111156137c05782518255916020019190600101906137a5565b506137cc9291506137d0565b5090565b5b808211156137cc57600081556001016137d1565b600082601f8301126137f5578081fd5b8135602061380a61380583614357565b614334565b8281528181019085830183850287018401881015613826578586fd5b855b8581101561384d57813561383b8161441e565b84529284019290840190600101613828565b5090979650505050505050565b600082601f83011261386a578081fd5b8135602061387a61380583614357565b82815281810190858301855b8581101561384d5761389d898684358b01016139c4565b84529284019290840190600101613886565b600082601f8301126138bf578081fd5b813560206138cf61380583614357565b828152818101908583016040808602880185018910156138ed578687fd5b865b8681101561395c5781838b031215613905578788fd5b81518281018181106001600160401b038211171561391f57fe5b8352833561392c8161441e565b8152838701356001600160601b038116811461394657898afd5b81880152855293850193918101916001016138ef565b509198975050505050505050565b600082601f83011261397a578081fd5b8135602061398a61380583614357565b82815281810190858301838502870184018810156139a6578586fd5b855b8581101561384d578135845292840192908401906001016139a8565b600082601f8301126139d4578081fd5b81356001600160401b038111156139e757fe5b6139fa601f8201601f1916602001614334565b818152846020838601011115613a0e578283fd5b816020850160208301379081016020019190915292915050565b600060c08284031215613a39578081fd5b613a4360c0614334565b90508135815260208201356001600160401b0380821115613a6357600080fd5b613a6f858386016139c4565b6020840152604084013560408401526060840135915080821115613a9257600080fd5b613a9e858386016138af565b60608401526080840135915080821115613ab757600080fd5b613ac3858386016138af565b608084015260a0840135915080821115613adc57600080fd5b50613ae98482850161385a565b60a08301525092915050565b600060208284031215613b06578081fd5b81356118588161441e565b60008060408385031215613b23578081fd5b8235613b2e8161441e565b91506020830135613b3e8161441e565b809150509250929050565b600080600080600060a08688031215613b60578081fd5b8535613b6b8161441e565b94506020860135613b7b8161441e565b935060408601356001600160401b0380821115613b96578283fd5b613ba289838a0161396a565b94506060880135915080821115613bb7578283fd5b613bc389838a0161396a565b93506080880135915080821115613bd8578283fd5b50613be5888289016139c4565b9150509295509295909350565b600080600080600060a08688031215613c09578283fd5b8535613c148161441e565b94506020860135613c248161441e565b9350604086013592506060860135915060808601356001600160401b03811115613c4c578182fd5b613be5888289016139c4565b600080600060608486031215613c6c578081fd5b8335613c778161441e565b925060208401356001600160401b0380821115613c92578283fd5b613c9e8783880161396a565b93506040860135915080821115613cb3578283fd5b50613cc08682870161396a565b9150509250925092565b60008060408385031215613cdc578182fd5b8235613ce78161441e565b915060208301358015158114613b3e578182fd5b60008060408385031215613d0d578182fd5b8235613d188161441e565b946020939093013593505050565b600080600060608486031215613d3a578081fd5b8335613d458161441e565b95602085013595506040909401359392505050565b60008060408385031215613d6c578182fd5b82356001600160401b0380821115613d82578384fd5b613d8e868387016137e5565b93506020850135915080821115613da3578283fd5b50613db08582860161396a565b9150509250929050565b600060208284031215613dcb578081fd5b81356001600160e01b031981168114611858578182fd5b600080600080600060a08688031215613df9578283fd5b85356001600160401b0380821115613e0f578485fd5b613e1b89838a016139c4565b96506020880135915080821115613e30578485fd5b613e3c89838a016139c4565b95506040880135915080821115613e51578485fd5b613e5d89838a016139c4565b94506060880135915080821115613e72578283fd5b613e7e89838a016139c4565b93506080880135915080821115613e93578283fd5b50613be5888289016137e5565b60008060008060808587031215613eb5578182fd5b84356001600160401b03811115613eca578283fd5b613ed687828801613a28565b9450506020850135613ee78161441e565b92506040850135613ef78161441e565b9396929550929360600135925050565b600080600060608486031215613f1b578081fd5b83356001600160401b03811115613f30578182fd5b613f3c86828701613a28565b9350506020840135613f4d8161441e565b929592945050506040919091013590565b600060208284031215613f6f578081fd5b5035919050565b60008060408385031215613f88578182fd5b50508035926020909101359150565b6000815180845260208085019450808401835b83811015613fe357815180516001600160a01b031688528301516001600160601b03168388015260409096019590820190600101613faa565b509495945050505050565b60008151808452815b8181101561401357602081850181015186830182015201613ff7565b818111156140245782602083870101525b50601f01601f19169290920160200192915050565b6001600160a01b0391909116815260200190565b6001600160a01b038416815260606020820181905260009061407190830185613fee565b82810360408401526134078185613fee565b6001600160a01b039290921682526001600160601b0316602082015260400190565b6000602082526118586020830184613f97565b6020808252825182820181905260009190848201906040850190845b818110156140f0578351835292840192918401916001016140d4565b50909695505050505050565b901515815260200190565b6000602082526118586020830184613fee565b60208082526017908201527f6d696e746572206973206e6f7420746865206f776e6572000000000000000000604082015260600190565b60208082526010908201526f1cdd5c1c1b1e481a5b98dbdc9c9958dd60821b604082015260600190565b6020808252818101527f43726561746f722073686172652073686f756c6420626520706f736974697665604082015260600190565b6020808252601190820152701d1bdad95b9259081a5b98dbdc9c9958dd607a1b604082015260600190565b60208082526010908201526f185b5bdd5b9d081a5b98dbdc9c9958dd60821b604082015260600190565b60208082526028908201527f455243313135353a207472616e736665722063616c6c6572206973206e6f7420604082015267185c1c1c9bdd995960c21b606082015260800190565b60208082526010908201526f6d6f7265207468616e20737570706c7960801b604082015260600190565b60208082526019908201527f4163636f756e742073686f756c642062652070726573656e7400000000000000604082015260600190565b6020808252602e908201527f746f74616c20616d6f756e74206f662063726561746f7273207368617265207360408201526d0686f756c642062652031303030360941b606082015260800190565b90815260200190565b60008382526040602083015261431e6040830184613f97565b949350505050565b918252602082015260400190565b6040518181016001600160401b038111828210171561434f57fe5b604052919050565b60006001600160401b0382111561436a57fe5b5060209081020190565b60e01c90565b600060443d101561438a57610b60565b600481823e6308c379a061439e8251614374565b146143a857610b60565b6040513d600319016004823e80513d6001600160401b0381602484011181841117156143d75750505050610b60565b828401925082519150808211156143f15750505050610b60565b503d8301602082840101111561440957505050610b60565b601f01601f1916810160200160405291505090565b6001600160a01b0381168114611be657600080fdfe455243313135353a207472616e7366657220746f206e6f6e2045524331313535526563656976657220696d706c656d656e746572455243313135353a204552433131353552656365697665722072656a656374656420746f6b656e73455243313135353a2062616c616e636520717565727920666f7220746865207a65726f20616464726573734f776e61626c653a206e6577206f776e657220697320746865207a65726f2061646472657373455243313135353a206275726e20616d6f756e7420657863656564732062616c616e6365455243313135353a2063616c6c6572206973206e6f74206f776e6572206e6f7220617070726f76656445434453413a20696e76616c6964207369676e6174757265202773272076616c7565455243313135353a207472616e7366657220746f20746865207a65726f2061646472657373455243313135353a207472616e736665722063616c6c6572206973206e6f74206f776e6572206e6f7220617070726f766564496e697469616c697a61626c653a20636f6e747261637420697320616c726561647920696e697469616c697a656445434453413a20696e76616c6964207369676e6174757265202776272076616c7565455243313135353a206275726e2066726f6d20746865207a65726f2061646472657373455243313135353a20696e73756666696369656e742062616c616e636520666f72207472616e73666572455243313135353a2073657474696e6720617070726f76616c2073746174757320666f722073656c66455243313135353a206163636f756e747320616e6420696473206c656e677468206d69736d61746368455243313135353a2069647320616e6420616d6f756e7473206c656e677468206d69736d61746368455243313135353a206d696e7420746f20746865207a65726f2061646472657373a2646970667358221220a4d197b12c88e1b0714b4cddd6bb16598dee98f70394a6650a221891927034d164736f6c63430007060033",
  "immutableReferences": {},
  "source": "// SPDX-License-Identifier: MIT\n\npragma solidity >=0.6.2 <0.8.0;\npragma abicoder v2;\n\nimport \"@openzeppelin/contracts-upgradeable/access/OwnableUpgradeable.sol\";\nimport \"@openzeppelin/contracts-upgradeable/token/ERC1155/ERC1155BurnableUpgradeable.sol\";\nimport \"./ERC1155Lazy.sol\";\nimport \"../HasContractURI.sol\";\n\ncontract ERC1155RaribleUser is OwnableUpgradeable, ERC1155BurnableUpgradeable, ERC1155Lazy, HasContractURI {\n\n    event CreateERC1155RaribleUser(address owner, string name, string symbol);\n\n    string public name;\n    string public symbol;\n\n    function __ERC1155RaribleUser_init(string memory _name, string memory _symbol, string memory baseURI, string memory contractURI, address[] memory operators) external initializer {\n        __Ownable_init_unchained();\n        __ERC1155Lazy_init_unchained();\n        __ERC165_init_unchained();\n        __Context_init_unchained();\n        __Mint1155Validator_init_unchained();\n        __ERC1155_init_unchained(\"\");\n        __HasContractURI_init_unchained(contractURI);\n        __ERC1155Burnable_init_unchained();\n        __RoyaltiesV2Upgradeable_init_unchained();\n        __ERC1155RaribleUser_init_unchained(_name, _symbol);\n        _setBaseURI(baseURI);\n        for(uint i = 0; i < operators.length; i++) {\n            setApprovalForAll(operators[i], true);\n        }\n        emit CreateERC1155RaribleUser(_msgSender(), _name, _symbol);\n    }\n\n    function __ERC1155RaribleUser_init_unchained(string memory _name, string memory _symbol) internal initializer {\n        name = _name;\n        symbol = _symbol;\n    }\n\n    function _mint(address account, uint256 tokenId, uint256 amount, bytes memory data) internal virtual override(ERC1155Upgradeable, ERC1155Lazy) {\n        ERC1155Lazy._mint(account, tokenId, amount, data);\n    }\n\n    function uri(uint tokenId) external view override(ERC1155BaseURI, ERC1155Upgradeable) virtual returns (string memory) {\n        return _tokenURI(tokenId);\n    }\n\n    function mintAndTransfer(LibERC1155LazyMint.Mint1155Data memory data, address to, uint256 _amount) public override {\n        require(owner() == data.creators[0].account, \"minter is not the owner\");\n        super.mintAndTransfer(data, to, _amount);\n    }\n    uint256[50] private __gap;\n}\n",
  "sourcePath": "/home/quadro/Projects/rarible/protocol-contracts/tokens/contracts/erc-1155/ERC1155RaribleUser.sol",
  "compiler": {
    "name": "solc",
    "version": "0.7.6+commit.7338295f.Emscripten.clang"
  },
  "schemaVersion": "3.4.0",
  "updatedAt": "2021-06-12T05:16:00.219Z",
  "devdoc": {
    "kind": "dev",
    "methods": {
      "balanceOf(address,uint256)": {
        "details": "See {IERC1155-balanceOf}. Requirements: - `account` cannot be the zero address."
      },
      "balanceOfBatch(address[],uint256[])": {
        "details": "See {IERC1155-balanceOfBatch}. Requirements: - `accounts` and `ids` must have the same length."
      },
      "baseURI()": {
        "details": "Returns the base URI set via {_setBaseURI}. This will be automatically added as a prefix in {tokenURI} to each token's URI, or to the token ID if no specific URI is set for that token ID."
      },
      "isApprovedForAll(address,address)": {
        "details": "See {IERC1155-isApprovedForAll}."
      },
      "owner()": {
        "details": "Returns the address of the current owner."
      },
      "renounceOwnership()": {
        "details": "Leaves the contract without owner. It will not be possible to call `onlyOwner` functions anymore. Can only be called by the current owner. NOTE: Renouncing ownership will leave the contract without an owner, thereby removing any functionality that is only available to the owner."
      },
      "safeBatchTransferFrom(address,address,uint256[],uint256[],bytes)": {
        "details": "See {IERC1155-safeBatchTransferFrom}."
      },
      "safeTransferFrom(address,address,uint256,uint256,bytes)": {
        "details": "See {IERC1155-safeTransferFrom}."
      },
      "setApprovalForAll(address,bool)": {
        "details": "See {IERC1155-setApprovalForAll}."
      },
      "supportsInterface(bytes4)": {
        "details": "See {IERC165-supportsInterface}. Time complexity O(1), guaranteed to always use less than 30 000 gas."
      },
      "transferOwnership(address)": {
        "details": "Transfers ownership of the contract to a new account (`newOwner`). Can only be called by the current owner."
      }
    },
    "version": 1
  },
  "userdoc": {
    "kind": "user",
    "methods": {},
    "version": 1
  }
}