{
  "contractName": "ERC1155RaribleUser",
  "abi": [
    {
      "anonymous": false,
      "inputs": [
        {
          "indexed": true,
          "internalType": "address",
          "name": "account",
          "type": "address"
        },
        {
          "indexed": true,
          "internalType": "address",
          "name": "operator",
          "type": "address"
        },
        {
          "indexed": false,
          "internalType": "bool",
          "name": "approved",
          "type": "bool"
        }
      ],
      "name": "ApprovalForAll",
      "type": "event"
    },
    {
      "anonymous": false,
      "inputs": [
        {
          "indexed": false,
          "internalType": "uint256",
          "name": "tokenId",
          "type": "uint256"
        },
        {
          "components": [
            {
              "internalType": "address payable",
              "name": "account",
              "type": "address"
            },
            {
              "internalType": "uint96",
              "name": "value",
              "type": "uint96"
            }
          ],
          "indexed": false,
          "internalType": "struct LibPart.Part[]",
          "name": "creators",
          "type": "tuple[]"
        }
      ],
      "name": "Creators",
      "type": "event"
    },
    {
      "anonymous": false,
      "inputs": [
        {
          "indexed": true,
          "internalType": "address",
          "name": "operator",
          "type": "address"
        },
        {
          "indexed": false,
          "internalType": "bool",
          "name": "hasApproval",
          "type": "bool"
        }
      ],
      "name": "DefaultApproval",
      "type": "event"
    },
    {
      "anonymous": false,
      "inputs": [
        {
          "indexed": true,
          "internalType": "address",
          "name": "previousOwner",
          "type": "address"
        },
        {
          "indexed": true,
          "internalType": "address",
          "name": "newOwner",
          "type": "address"
        }
      ],
      "name": "OwnershipTransferred",
      "type": "event"
    },
    {
      "anonymous": false,
      "inputs": [
        {
          "indexed": false,
          "internalType": "uint256",
          "name": "tokenId",
          "type": "uint256"
        },
        {
          "components": [
            {
              "internalType": "address payable",
              "name": "account",
              "type": "address"
            },
            {
              "internalType": "uint96",
              "name": "value",
              "type": "uint96"
            }
          ],
          "indexed": false,
          "internalType": "struct LibPart.Part[]",
          "name": "fees",
          "type": "tuple[]"
        }
      ],
      "name": "RoyaltiesSet",
      "type": "event"
    },
    {
      "anonymous": false,
      "inputs": [
        {
          "indexed": false,
          "internalType": "uint256",
          "name": "tokenId",
          "type": "uint256"
        },
        {
          "indexed": false,
          "internalType": "uint256",
          "name": "value",
          "type": "uint256"
        }
      ],
      "name": "Supply",
      "type": "event"
    },
    {
      "anonymous": false,
      "inputs": [
        {
          "indexed": true,
          "internalType": "address",
          "name": "operator",
          "type": "address"
        },
        {
          "indexed": true,
          "internalType": "address",
          "name": "from",
          "type": "address"
        },
        {
          "indexed": true,
          "internalType": "address",
          "name": "to",
          "type": "address"
        },
        {
          "indexed": false,
          "internalType": "uint256[]",
          "name": "ids",
          "type": "uint256[]"
        },
        {
          "indexed": false,
          "internalType": "uint256[]",
          "name": "values",
          "type": "uint256[]"
        }
      ],
      "name": "TransferBatch",
      "type": "event"
    },
    {
      "anonymous": false,
      "inputs": [
        {
          "indexed": true,
          "internalType": "address",
          "name": "operator",
          "type": "address"
        },
        {
          "indexed": true,
          "internalType": "address",
          "name": "from",
          "type": "address"
        },
        {
          "indexed": true,
          "internalType": "address",
          "name": "to",
          "type": "address"
        },
        {
          "indexed": false,
          "internalType": "uint256",
          "name": "id",
          "type": "uint256"
        },
        {
          "indexed": false,
          "internalType": "uint256",
          "name": "value",
          "type": "uint256"
        }
      ],
      "name": "TransferSingle",
      "type": "event"
    },
    {
      "anonymous": false,
      "inputs": [
        {
          "indexed": false,
          "internalType": "string",
          "name": "value",
          "type": "string"
        },
        {
          "indexed": true,
          "internalType": "uint256",
          "name": "id",
          "type": "uint256"
        }
      ],
      "name": "URI",
      "type": "event"
    },
    {
      "inputs": [
        {
          "internalType": "address",
          "name": "account",
          "type": "address"
        },
        {
          "internalType": "uint256",
          "name": "id",
          "type": "uint256"
        }
      ],
      "name": "balanceOf",
      "outputs": [
        {
          "internalType": "uint256",
          "name": "",
          "type": "uint256"
        }
      ],
      "stateMutability": "view",
      "type": "function"
    },
    {
      "inputs": [
        {
          "internalType": "address[]",
          "name": "accounts",
          "type": "address[]"
        },
        {
          "internalType": "uint256[]",
          "name": "ids",
          "type": "uint256[]"
        }
      ],
      "name": "balanceOfBatch",
      "outputs": [
        {
          "internalType": "uint256[]",
          "name": "",
          "type": "uint256[]"
        }
      ],
      "stateMutability": "view",
      "type": "function"
    },
    {
      "inputs": [],
      "name": "baseURI",
      "outputs": [
        {
          "internalType": "string",
          "name": "",
          "type": "string"
        }
      ],
      "stateMutability": "view",
      "type": "function"
    },
    {
      "inputs": [
        {
          "internalType": "address",
          "name": "account",
          "type": "address"
        },
        {
          "internalType": "uint256",
          "name": "id",
          "type": "uint256"
        },
        {
          "internalType": "uint256",
          "name": "value",
          "type": "uint256"
        }
      ],
      "name": "burn",
      "outputs": [],
      "stateMutability": "nonpayable",
      "type": "function"
    },
    {
      "inputs": [
        {
          "internalType": "address",
          "name": "account",
          "type": "address"
        },
        {
          "internalType": "uint256[]",
          "name": "ids",
          "type": "uint256[]"
        },
        {
          "internalType": "uint256[]",
          "name": "values",
          "type": "uint256[]"
        }
      ],
      "name": "burnBatch",
      "outputs": [],
      "stateMutability": "nonpayable",
      "type": "function"
    },
    {
      "inputs": [],
      "name": "contractURI",
      "outputs": [
        {
          "internalType": "string",
          "name": "",
          "type": "string"
        }
      ],
      "stateMutability": "view",
      "type": "function"
    },
    {
      "inputs": [
        {
          "internalType": "uint256",
          "name": "",
          "type": "uint256"
        },
        {
          "internalType": "uint256",
          "name": "",
          "type": "uint256"
        }
      ],
      "name": "creators",
      "outputs": [
        {
          "internalType": "address payable",
          "name": "account",
          "type": "address"
        },
        {
          "internalType": "uint96",
          "name": "value",
          "type": "uint96"
        }
      ],
      "stateMutability": "view",
      "type": "function"
    },
    {
      "inputs": [
        {
          "internalType": "uint256",
          "name": "",
          "type": "uint256"
        },
        {
          "internalType": "uint256",
          "name": "",
          "type": "uint256"
        }
      ],
      "name": "fees",
      "outputs": [
        {
          "internalType": "address payable",
          "name": "account",
          "type": "address"
        },
        {
          "internalType": "uint96",
          "name": "value",
          "type": "uint96"
        }
      ],
      "stateMutability": "view",
      "type": "function"
    },
    {
      "inputs": [
        {
          "internalType": "uint256",
          "name": "_id",
          "type": "uint256"
        }
      ],
      "name": "getCreators",
      "outputs": [
        {
          "components": [
            {
              "internalType": "address payable",
              "name": "account",
              "type": "address"
            },
            {
              "internalType": "uint96",
              "name": "value",
              "type": "uint96"
            }
          ],
          "internalType": "struct LibPart.Part[]",
          "name": "",
          "type": "tuple[]"
        }
      ],
      "stateMutability": "view",
      "type": "function"
    },
    {
      "inputs": [
        {
          "internalType": "uint256",
          "name": "id",
          "type": "uint256"
        }
      ],
      "name": "getRoyalties",
      "outputs": [
        {
          "components": [
            {
              "internalType": "address payable",
              "name": "account",
              "type": "address"
            },
            {
              "internalType": "uint96",
              "name": "value",
              "type": "uint96"
            }
          ],
          "internalType": "struct LibPart.Part[]",
          "name": "",
          "type": "tuple[]"
        }
      ],
      "stateMutability": "view",
      "type": "function"
    },
    {
      "inputs": [
        {
          "internalType": "address",
          "name": "_owner",
          "type": "address"
        },
        {
          "internalType": "address",
          "name": "_operator",
          "type": "address"
        }
      ],
      "name": "isApprovedForAll",
      "outputs": [
        {
          "internalType": "bool",
          "name": "",
          "type": "bool"
        }
      ],
      "stateMutability": "view",
      "type": "function"
    },
    {
      "inputs": [],
      "name": "name",
      "outputs": [
        {
          "internalType": "string",
          "name": "",
          "type": "string"
        }
      ],
      "stateMutability": "view",
      "type": "function"
    },
    {
      "inputs": [],
      "name": "owner",
      "outputs": [
        {
          "internalType": "address",
          "name": "",
          "type": "address"
        }
      ],
      "stateMutability": "view",
      "type": "function"
    },
    {
      "inputs": [],
      "name": "renounceOwnership",
      "outputs": [],
      "stateMutability": "nonpayable",
      "type": "function"
    },
    {
      "inputs": [
        {
          "internalType": "address",
          "name": "from",
          "type": "address"
        },
        {
          "internalType": "address",
          "name": "to",
          "type": "address"
        },
        {
          "internalType": "uint256[]",
          "name": "ids",
          "type": "uint256[]"
        },
        {
          "internalType": "uint256[]",
          "name": "amounts",
          "type": "uint256[]"
        },
        {
          "internalType": "bytes",
          "name": "data",
          "type": "bytes"
        }
      ],
      "name": "safeBatchTransferFrom",
      "outputs": [],
      "stateMutability": "nonpayable",
      "type": "function"
    },
    {
      "inputs": [
        {
          "internalType": "address",
          "name": "from",
          "type": "address"
        },
        {
          "internalType": "address",
          "name": "to",
          "type": "address"
        },
        {
          "internalType": "uint256",
          "name": "id",
          "type": "uint256"
        },
        {
          "internalType": "uint256",
          "name": "amount",
          "type": "uint256"
        },
        {
          "internalType": "bytes",
          "name": "data",
          "type": "bytes"
        }
      ],
      "name": "safeTransferFrom",
      "outputs": [],
      "stateMutability": "nonpayable",
      "type": "function"
    },
    {
      "inputs": [
        {
          "internalType": "address",
          "name": "operator",
          "type": "address"
        },
        {
          "internalType": "bool",
          "name": "approved",
          "type": "bool"
        }
      ],
      "name": "setApprovalForAll",
      "outputs": [],
      "stateMutability": "nonpayable",
      "type": "function"
    },
    {
      "inputs": [
        {
          "internalType": "address",
          "name": "operator",
          "type": "address"
        },
        {
          "internalType": "bool",
          "name": "hasApproval",
          "type": "bool"
        }
      ],
      "name": "setDefaultApproval",
      "outputs": [],
      "stateMutability": "nonpayable",
      "type": "function"
    },
    {
      "inputs": [
        {
          "internalType": "bytes4",
          "name": "interfaceId",
          "type": "bytes4"
        }
      ],
      "name": "supportsInterface",
      "outputs": [
        {
          "internalType": "bool",
          "name": "",
          "type": "bool"
        }
      ],
      "stateMutability": "view",
      "type": "function"
    },
    {
      "inputs": [],
      "name": "symbol",
      "outputs": [
        {
          "internalType": "string",
          "name": "",
          "type": "string"
        }
      ],
      "stateMutability": "view",
      "type": "function"
    },
    {
      "inputs": [
        {
          "internalType": "address",
          "name": "newOwner",
          "type": "address"
        }
      ],
      "name": "transferOwnership",
      "outputs": [],
      "stateMutability": "nonpayable",
      "type": "function"
    },
    {
      "inputs": [
        {
          "internalType": "uint256",
          "name": "id",
          "type": "uint256"
        }
      ],
      "name": "uri",
      "outputs": [
        {
          "internalType": "string",
          "name": "",
          "type": "string"
        }
      ],
      "stateMutability": "view",
      "type": "function"
    },
    {
      "inputs": [
        {
          "internalType": "string",
          "name": "_name",
          "type": "string"
        },
        {
          "internalType": "string",
          "name": "_symbol",
          "type": "string"
        },
        {
          "internalType": "string",
          "name": "baseURI",
          "type": "string"
        },
        {
          "internalType": "string",
          "name": "contractURI",
          "type": "string"
        }
      ],
      "name": "__ERC1155RaribleUser_init",
      "outputs": [],
      "stateMutability": "nonpayable",
      "type": "function"
    },
    {
      "inputs": [
        {
          "components": [
            {
              "internalType": "uint256",
              "name": "tokenId",
              "type": "uint256"
            },
            {
              "internalType": "string",
              "name": "uri",
              "type": "string"
            },
            {
              "internalType": "uint256",
              "name": "supply",
              "type": "uint256"
            },
            {
              "components": [
                {
                  "internalType": "address payable",
                  "name": "account",
                  "type": "address"
                },
                {
                  "internalType": "uint96",
                  "name": "value",
                  "type": "uint96"
                }
              ],
              "internalType": "struct LibPart.Part[]",
              "name": "creators",
              "type": "tuple[]"
            },
            {
              "components": [
                {
                  "internalType": "address payable",
                  "name": "account",
                  "type": "address"
                },
                {
                  "internalType": "uint96",
                  "name": "value",
                  "type": "uint96"
                }
              ],
              "internalType": "struct LibPart.Part[]",
              "name": "royalties",
              "type": "tuple[]"
            },
            {
              "internalType": "bytes[]",
              "name": "signatures",
              "type": "bytes[]"
            }
          ],
          "internalType": "struct LibERC1155LazyMint.Mint1155Data",
          "name": "data",
          "type": "tuple"
        },
        {
          "internalType": "address",
          "name": "to",
          "type": "address"
        },
        {
          "internalType": "uint256",
          "name": "_amount",
          "type": "uint256"
        }
      ],
      "name": "mintAndTransfer",
      "outputs": [],
      "stateMutability": "nonpayable",
      "type": "function"
    }
  ],
  "bytecode": "0x608060405234801561001057600080fd5b50614501806100206000396000f3fe608060405234801561001057600080fd5b50600436106101575760003560e01c8063715018a6116100c3578063bb3bafd61161007c578063bb3bafd6146102e2578063e8a3d485146102f5578063e985e9c5146102fd578063f242432a14610310578063f2fde38b14610323578063f5298aca1461033657610157565b8063715018a614610277578063891be9741461027f5780638da5cb5b1461029f57806395d89b41146102b457806398d0b4fb146102bc578063a22cb465146102cf57610157565b80632eb2c2d6116101155780632eb2c2d6146101f55780633cf90e2b146102085780634e1273f41461021b5780636308f1cd1461023b5780636b20c4541461025c5780636c0360eb1461026f57610157565b8062fdd58e1461015c57806301ffc9a71461018557806306fdde03146101a55780630e89341c146101ba5780630eaead67146101cd57806318054c37146101e2575b600080fd5b61016f61016a366004613b2c565b610349565b60405161017c91906140e9565b60405180910390f35b610198610193366004613c4a565b6103b8565b60405161017c9190613f38565b6101ad6103db565b60405161017c9190613f43565b6101ad6101c8366004613e1b565b61046a565b6101e06101db366004613d19565b61047b565b005b6101e06101f0366004613afb565b6104e8565b6101e061020336600461397a565b61056a565b6101e0610216366004613c72565b610868565b61022e610229366004613b8b565b61097a565b60405161017c9190613ef4565b61024e610249366004613e33565b610a65565b60405161017c929190613ebf565b6101e061026a366004613a89565b610aaf565b6101ad610b23565b6101e0610bbb565b61029261028d366004613e1b565b610c79565b60405161017c9190613ee1565b6102a7610d09565b60405161017c9190613eab565b6101ad610d18565b61024e6102ca366004613e33565b610d74565b6101e06102dd366004613afb565b610d91565b6102926102f0366004613e1b565b610e80565b6101ad610efb565b61019861030b366004613942565b610f57565b6101e061031e366004613a23565b610f6a565b6101e0610331366004613926565b611135565b6101e0610344366004613b57565b61124a565b60006001600160a01b0383166103905760405162461bcd60e51b815260040180806020018281038252602b81526020018061427d602b913960400191505060405180910390fd5b5060009081526097602090815260408083206001600160a01b03949094168352929052205490565b6001600160e01b0319811660009081526065602052604090205460ff165b919050565b610262805460408051602060026001851615610100026000190190941693909304601f810184900484028201840190925281815292918301828280156104625780601f1061043757610100808354040283529160200191610462565b820191906000526020600020905b81548152906001019060200180831161044557829003601f168201915b505050505081565b6060610475826112be565b92915050565b826060015160008151811061048c57fe5b6020026020010151600001516001600160a01b03166104a9610d09565b6001600160a01b0316146104d85760405162461bcd60e51b81526004016104cf90613f96565b60405180910390fd5b6104e38383836114fb565b505050565b6104f06116ba565b6001600160a01b0316610501610d09565b6001600160a01b03161461055c576040805162461bcd60e51b815260206004820181905260248201527f4f776e61626c653a2063616c6c6572206973206e6f7420746865206f776e6572604482015290519081900360640190fd5b61056682826116be565b5050565b81518351146105aa5760405162461bcd60e51b81526004018080602001828103825260288152602001806144836028913960400191505060405180910390fd5b6001600160a01b0384166105ef5760405162461bcd60e51b815260040180806020018281038252602581526020018061433d6025913960400191505060405180910390fd5b6105f76116ba565b6001600160a01b0316856001600160a01b0316148061061d575061061d8561030b6116ba565b6106585760405162461bcd60e51b81526004018080602001828103825260328152602001806143626032913960400191505060405180910390fd5b60006106626116ba565b9050610672818787878787610860565b60005b845181101561077857600085828151811061068c57fe5b6020026020010151905060008583815181106106a457fe5b60200260200101519050610711816040518060600160405280602a8152602001614407602a91396097600086815260200190815260200160002060008d6001600160a01b03166001600160a01b031681526020019081526020016000205461171e9092919063ffffffff16565b60008381526097602090815260408083206001600160a01b038e811685529252808320939093558a168152205461074890826117b5565b60009283526097602090815260408085206001600160a01b038c1686529091529092209190915550600101610675565b50846001600160a01b0316866001600160a01b0316826001600160a01b03167f4a39dc06d4c0dbc64b70af90fd698a233a518aa5d07e595d983b8c0526c8f7fb8787604051808060200180602001838103835285818151815260200191508051906020019060200280838360005b838110156107fe5781810151838201526020016107e6565b50505050905001838103825284818151815260200191508051906020019060200280838360005b8381101561083d578181015183820152602001610825565b5050505090500194505050505060405180910390a461086081878787878761180f565b505050505050565b600054610100900460ff16806108815750610881611a8e565b8061088f575060005460ff16155b6108ca5760405162461bcd60e51b815260040180806020018281038252602e815260200180614394602e913960400191505060405180910390fd5b600054610100900460ff161580156108f5576000805460ff1961ff0019909116610100171660011790555b6108fd611a9f565b610905611b99565b61090d611c4a565b610915611ce7565b61091d611d87565b61093560405180602001604052806000815250611e57565b61093e82611f22565b610946611ce7565b61094e611fd4565b6109588585612071565b6109618361213e565b8015610973576000805461ff00191690555b5050505050565b606081518351146109bc5760405162461bcd60e51b815260040180806020018281038252602981526020018061445a6029913960400191505060405180910390fd5b600083516001600160401b03811180156109d557600080fd5b506040519080825280602002602001820160405280156109ff578160200160208202803683370190505b50905060005b8451811015610a5d57610a3e858281518110610a1d57fe5b6020026020010151858381518110610a3157fe5b6020026020010151610349565b828281518110610a4a57fe5b6020908102919091010152600101610a05565b509392505050565b6101fa6020528160005260406000208181548110610a8257600080fd5b6000918252602090912001546001600160a01b0381169250600160a01b90046001600160601b0316905082565b610ab76116ba565b6001600160a01b0316836001600160a01b03161480610add5750610add8361030b6116ba565b610b185760405162461bcd60e51b81526004018080602001828103825260298152602001806142f26029913960400191505060405180910390fd5b6104e3838383612152565b61012f8054604080516020601f6002600019610100600188161502019095169490940493840181900481028201810190925282815260609390929091830182828015610bb05780601f10610b8557610100808354040283529160200191610bb0565b820191906000526020600020905b815481529060010190602001808311610b9357829003601f168201915b505050505090505b90565b610bc36116ba565b6001600160a01b0316610bd4610d09565b6001600160a01b031614610c2f576040805162461bcd60e51b815260206004820181905260248201527f4f776e61626c653a2063616c6c6572206973206e6f7420746865206f776e6572604482015290519081900360640190fd5b6033546040516000916001600160a01b0316907f8be0079c531659141344cd1fd0a4f28419497f9722a3daafe3b4186f6b6457e0908390a3603380546001600160a01b0319169055565b60606101fb6000838152602001908152602001600020805480602002602001604051908101604052809291908181526020016000905b82821015610cfe57600084815260209081902060408051808201909152908401546001600160a01b0381168252600160a01b90046001600160601b031681830152825260019092019101610caf565b505050509050919050565b6033546001600160a01b031690565b610263805460408051602060026001851615610100026000190190941693909304601f810184900484028201840190925281815292918301828280156104625780601f1061043757610100808354040283529160200191610462565b6101fb6020528160005260406000208181548110610a8257600080fd5b816001600160a01b0316610da36116ba565b6001600160a01b03161415610de95760405162461bcd60e51b81526004018080602001828103825260298152602001806144316029913960400191505060405180910390fd5b8060986000610df66116ba565b6001600160a01b03908116825260208083019390935260409182016000908120918716808252919093529120805460ff191692151592909217909155610e3a6116ba565b6001600160a01b03167f17307eab39ab6107e8899845ad3d59bd9653f200f220920489ca2b5937696c318360405180821515815260200191505060405180910390a35050565b60008181526101fa60209081526040808320805482518185028101850190935280835260609492939192909184018215610cfe57600084815260209081902060408051808201909152908401546001600160a01b0381168252600160a01b90046001600160601b031681830152825260019092019101610caf565b610230805460408051602060026001851615610100026000190190941693909304601f810184900484028201840190925281815292918301828280156104625780601f1061043757610100808354040283529160200191610462565b6000610f6383836123c0565b9392505050565b6001600160a01b038416610faf5760405162461bcd60e51b815260040180806020018281038252602581526020018061433d6025913960400191505060405180910390fd5b610fb76116ba565b6001600160a01b0316856001600160a01b03161480610fdd5750610fdd8561030b6116ba565b6110185760405162461bcd60e51b81526004018080602001828103825260298152602001806142f26029913960400191505060405180910390fd5b60006110226116ba565b9050611042818787611033886123ec565b61103c886123ec565b87610860565b611089836040518060600160405280602a8152602001614407602a913960008781526097602090815260408083206001600160a01b038d168452909152902054919061171e565b60008581526097602090815260408083206001600160a01b038b811685529252808320939093558716815220546110c090846117b5565b60008581526097602090815260408083206001600160a01b03808b168086529184529382902094909455805188815291820187905280518a8416938616927fc3d58168c5ae7397731d063d5bbf3d657854427343f4c083240f7aacaa2d0f6292908290030190a4610860818787878787612431565b61113d6116ba565b6001600160a01b031661114e610d09565b6001600160a01b0316146111a9576040805162461bcd60e51b815260206004820181905260248201527f4f776e61626c653a2063616c6c6572206973206e6f7420746865206f776e6572604482015290519081900360640190fd5b6001600160a01b0381166111ee5760405162461bcd60e51b81526004018080602001828103825260268152602001806142a86026913960400191505060405180910390fd5b6033546040516001600160a01b038084169216907f8be0079c531659141344cd1fd0a4f28419497f9722a3daafe3b4186f6b6457e090600090a3603380546001600160a01b0319166001600160a01b0392909216919091179055565b6112526116ba565b6001600160a01b0316836001600160a01b0316148061127857506112788361030b6116ba565b6112b35760405162461bcd60e51b81526004018080602001828103825260298152602001806142f26029913960400191505060405180910390fd5b6104e38383836125a2565b600081815261012e6020908152604080832080548251601f60026000196101006001861615020190931692909204918201859004850281018501909352808352606094938301828280156113535780601f1061132857610100808354040283529160200191611353565b820191906000526020600020905b81548152906001019060200180831161133657829003601f168201915b505050505090506000611364610b23565b9050805160001415611378575090506103d6565b8151156114395780826040516020018083805190602001908083835b602083106113b35780518252601f199092019160209182019101611394565b51815160209384036101000a600019018019909216911617905285519190930192850191508083835b602083106113fb5780518252601f1990920191602091820191016113dc565b6001836020036101000a03801982511681845116808217855250505050505090500192505050604051602081830303815290604052925050506103d6565b80611443856126d5565b6040516020018083805190602001908083835b602083106114755780518252601f199092019160209182019101611456565b51815160209384036101000a600019018019909216911617905285519190930192850191508083835b602083106114bd5780518252601f19909201916020918201910161149e565b6001836020036101000a0380198251168184511680821785525050505050509050019250505060405160208183030381529060405292505050919050565b825160601c600061150a6116ba565b9050846060015160008151811061151d57fe5b6020026020010151600001516001600160a01b0316826001600160a01b0316146115595760405162461bcd60e51b81526004016104cf90613ff7565b8460a00151518560600151511461156f57600080fd5b806001600160a01b0316826001600160a01b0316148061159457506115948282610f57565b6115b05760405162461bcd60e51b81526004016104cf9061404c565b60008560400151116115d45760405162461bcd60e51b81526004016104cf90613fcd565b600083116115f45760405162461bcd60e51b81526004016104cf90614022565b6000856020015151116116195760405162461bcd60e51b81526004016104cf906140be565b845160009081526101fc602052604090205461169b5760005b8560600151518110156116525761164a8287836127af565b600101611632565b5061166585600001518660400151612833565b6116778560000151866080015161289d565b61168985600001518660600151612a18565b61169b85600001518660200151612adb565b6109738486600001518560405180602001604052806000815250612b9f565b3390565b6001600160a01b038216600081815260c96020908152604091829020805460ff1916851515908117909155825190815291517f270dbb8ba4292910ae92862466486be25c355c837270a3d8824b36a8bc7c653b9281900390910190a25050565b600081848411156117ad5760405162461bcd60e51b81526004018080602001828103825283818151815260200191508051906020019080838360005b8381101561177257818101518382015260200161175a565b50505050905090810190601f16801561179f5780820380516001836020036101000a031916815260200191505b509250505060405180910390fd5b505050900390565b600082820183811015610f63576040805162461bcd60e51b815260206004820152601b60248201527f536166654d6174683a206164646974696f6e206f766572666c6f770000000000604482015290519081900360640190fd5b611821846001600160a01b0316612bab565b1561086057836001600160a01b031663bc197c8187878686866040518663ffffffff1660e01b815260040180866001600160a01b03168152602001856001600160a01b03168152602001806020018060200180602001848103845287818151815260200191508051906020019060200280838360005b838110156118af578181015183820152602001611897565b50505050905001848103835286818151815260200191508051906020019060200280838360005b838110156118ee5781810151838201526020016118d6565b50505050905001848103825285818151815260200191508051906020019080838360005b8381101561192a578181015183820152602001611912565b50505050905090810190601f1680156119575780820380516001836020036101000a031916815260200191505b5098505050505050505050602060405180830381600087803b15801561197c57600080fd5b505af19250505080156119a157506040513d602081101561199c57600080fd5b505160015b611a36576119ad614167565b806119b857506119ff565b60405162461bcd60e51b815260206004820181815283516024840152835184939192839260440191908501908083836000831561177257818101518382015260200161175a565b60405162461bcd60e51b81526004018080602001828103825260348152602001806142216034913960400191505060405180910390fd5b6001600160e01b0319811663bc197c8160e01b14611a855760405162461bcd60e51b81526004018080602001828103825260288152602001806142556028913960400191505060405180910390fd5b50505050505050565b6000611a9930612bab565b15905090565b600054610100900460ff1680611ab85750611ab8611a8e565b80611ac6575060005460ff16155b611b015760405162461bcd60e51b815260040180806020018281038252602e815260200180614394602e913960400191505060405180910390fd5b600054610100900460ff16158015611b2c576000805460ff1961ff0019909116610100171660011790555b6000611b366116ba565b603380546001600160a01b0319166001600160a01b038316908117909155604051919250906000907f8be0079c531659141344cd1fd0a4f28419497f9722a3daafe3b4186f6b6457e0908290a3508015611b96576000805461ff00191690555b50565b600054610100900460ff1680611bb25750611bb2611a8e565b80611bc0575060005460ff16155b611bfb5760405162461bcd60e51b815260040180806020018281038252602e815260200180614394602e913960400191505060405180910390fd5b600054610100900460ff16158015611c26576000805460ff1961ff0019909116610100171660011790555b611c36636db15a0f60e01b612bb1565b8015611b96576000805461ff001916905550565b600054610100900460ff1680611c635750611c63611a8e565b80611c71575060005460ff16155b611cac5760405162461bcd60e51b815260040180806020018281038252602e815260200180614394602e913960400191505060405180910390fd5b600054610100900460ff16158015611cd7576000805460ff1961ff0019909116610100171660011790555b611c366301ffc9a760e01b612bb1565b600054610100900460ff1680611d005750611d00611a8e565b80611d0e575060005460ff16155b611d495760405162461bcd60e51b815260040180806020018281038252602e815260200180614394602e913960400191505060405180910390fd5b600054610100900460ff16158015611c36576000805460ff1961ff0019909116610100171660011790558015611b96576000805461ff001916905550565b600054610100900460ff1680611da05750611da0611a8e565b80611dae575060005460ff16155b611de95760405162461bcd60e51b815260040180806020018281038252602e815260200180614394602e913960400191505060405180910390fd5b600054610100900460ff16158015611e14576000805460ff1961ff0019909116610100171660011790555b611c36604051806040016040528060088152602001674d696e743131353560c01b815250604051806040016040528060018152602001603160f81b815250612c35565b600054610100900460ff1680611e705750611e70611a8e565b80611e7e575060005460ff16155b611eb95760405162461bcd60e51b815260040180806020018281038252602e815260200180614394602e913960400191505060405180910390fd5b600054610100900460ff16158015611ee4576000805460ff1961ff0019909116610100171660011790555b611eed82612cf7565b611efd636cdb3d1360e11b612bb1565b611f0d6303a24d0760e21b612bb1565b8015610566576000805461ff00191690555050565b600054610100900460ff1680611f3b5750611f3b611a8e565b80611f49575060005460ff16155b611f845760405162461bcd60e51b815260040180806020018281038252602e815260200180614394602e913960400191505060405180910390fd5b600054610100900460ff16158015611faf576000805460ff1961ff0019909116610100171660011790555b8151611fc39061023090602085019061369a565b50611f0d63e8a3d48560e01b612bb1565b600054610100900460ff1680611fed5750611fed611a8e565b80611ffb575060005460ff16155b6120365760405162461bcd60e51b815260040180806020018281038252602e815260200180614394602e913960400191505060405180910390fd5b600054610100900460ff16158015612061576000805460ff1961ff0019909116610100171660011790555b611c36631131d2f360e21b612bb1565b600054610100900460ff168061208a575061208a611a8e565b80612098575060005460ff16155b6120d35760405162461bcd60e51b815260040180806020018281038252602e815260200180614394602e913960400191505060405180910390fd5b600054610100900460ff161580156120fe576000805460ff1961ff0019909116610100171660011790555b82516121129061026290602086019061369a565b5081516121279061026390602085019061369a565b5080156104e3576000805461ff0019169055505050565b80516105669061012f90602084019061369a565b6001600160a01b0383166121975760405162461bcd60e51b81526004018080602001828103825260238152602001806143e46023913960400191505060405180910390fd5b80518251146121d75760405162461bcd60e51b81526004018080602001828103825260288152602001806144836028913960400191505060405180910390fd5b60006121e16116ba565b905061220181856000868660405180602001604052806000815250610860565b60005b83518110156122df5761229683828151811061221c57fe5b60200260200101516040518060600160405280602481526020016142ce602491396097600088868151811061224d57fe5b602002602001015181526020019081526020016000206000896001600160a01b03166001600160a01b031681526020019081526020016000205461171e9092919063ffffffff16565b609760008684815181106122a657fe5b602090810291909101810151825281810192909252604090810160009081206001600160a01b038a168252909252902055600101612204565b5060006001600160a01b0316846001600160a01b0316826001600160a01b03167f4a39dc06d4c0dbc64b70af90fd698a233a518aa5d07e595d983b8c0526c8f7fb8686604051808060200180602001838103835285818151815260200191508051906020019060200280838360005b8381101561236657818101518382015260200161234e565b50505050905001838103825284818151815260200191508051906020019060200280838360005b838110156123a557818101518382015260200161238d565b5050505090500194505050505060405180910390a450505050565b6001600160a01b038116600090815260c9602052604081205460ff1680610f635750610f638383612d0a565b6040805160018082528183019092526060916000919060208083019080368337019050509050828160008151811061242057fe5b602090810291909101015292915050565b612443846001600160a01b0316612bab565b1561086057836001600160a01b031663f23a6e6187878686866040518663ffffffff1660e01b815260040180866001600160a01b03168152602001856001600160a01b0316815260200184815260200183815260200180602001828103825283818151815260200191508051906020019080838360005b838110156124d25781810151838201526020016124ba565b50505050905090810190601f1680156124ff5780820380516001836020036101000a031916815260200191505b509650505050505050602060405180830381600087803b15801561252257600080fd5b505af192505050801561254757506040513d602081101561254257600080fd5b505160015b612553576119ad614167565b6001600160e01b0319811663f23a6e6160e01b14611a855760405162461bcd60e51b81526004018080602001828103825260288152602001806142556028913960400191505060405180910390fd5b6001600160a01b0383166125e75760405162461bcd60e51b81526004018080602001828103825260238152602001806143e46023913960400191505060405180910390fd5b60006125f16116ba565b905061262181856000612603876123ec565b61260c876123ec565b60405180602001604052806000815250610860565b612668826040518060600160405280602481526020016142ce6024913960008681526097602090815260408083206001600160a01b038b168452909152902054919061171e565b60008481526097602090815260408083206001600160a01b03808a16808652918452828520959095558151888152928301879052815193949093908616927fc3d58168c5ae7397731d063d5bbf3d657854427343f4c083240f7aacaa2d0f6292908290030190a450505050565b6060816126fa57506040805180820190915260018152600360fc1b60208201526103d6565b8160005b811561271257600101600a820491506126fe565b6000816001600160401b038111801561272a57600080fd5b506040519080825280601f01601f191660200182016040528015612755576020820181803683370190505b50859350905060001982015b83156127a657600a840660300160f81b8282806001900393508151811061278457fe5b60200101906001600160f81b031916908160001a905350600a84049350612761565b50949350505050565b6000826060015182815181106127c157fe5b6020026020010151600001519050806001600160a01b0316846001600160a01b03161461282d5761282d836060015183815181106127fb57fe5b60200260200101516000015161281085612d38565b8560a00151858151811061282057fe5b6020026020010151612f8b565b50505050565b60008281526101fc60205260409020541561284d57600080fd5b60008281526101fc602052604090819020829055517f5e2aa66efd74cce82b21852e317e5490d9ecc9e6bb953ae24d90851258cc2f5c906128919084908490614113565b60405180910390a15050565b60005b81518110156104e35760006001600160a01b03168282815181106128c057fe5b6020026020010151600001516001600160a01b03161415612928576040805162461bcd60e51b815260206004820152601b60248201527f526563697069656e742073686f756c642062652070726573656e740000000000604482015290519081900360640190fd5b81818151811061293457fe5b6020026020010151602001516001600160601b03166000141561299e576040805162461bcd60e51b815260206004820152601c60248201527f4665652076616c75652073686f756c6420626520706f73697469766500000000604482015290519081900360640190fd5b60008381526101fa6020526040902082518390839081106129bb57fe5b60209081029190910181015182546001818101855560009485529383902082519101805492909301516001600160601b0316600160a01b026001600160a01b039182166001600160a01b03199093169290921716179055016128a0565b60008281526101fb60205260408120905b8251811015612a9c5781838281518110612a3f57fe5b60209081029190910181015182546001818101855560009485529383902082519101805492909301516001600160601b0316600160a01b026001600160a01b039182166001600160a01b0319909316929092171617905501612a29565b507f841ffb90d4cabdd1f16034f3fa831d79060febbb8167bdd54a49269365bdf78f8383604051612ace9291906140f2565b60405180910390a1505050565b600082815261012e602090815260409091208251612afb9284019061369a565b50817f6bb7ff708619ba0610cba295a58592e0451dee2622938c8755667688daf3529b612b27846112be565b6040805160208082528351818301528351919283929083019185019080838360005b83811015612b61578181015183820152602001612b49565b50505050905090810190601f168015612b8e5780820380516001836020036101000a031916815260200191505b509250505060405180910390a25050565b61282d848484846131c3565b3b151590565b6001600160e01b03198082161415612c10576040805162461bcd60e51b815260206004820152601c60248201527f4552433136353a20696e76616c696420696e7465726661636520696400000000604482015290519081900360640190fd5b6001600160e01b0319166000908152606560205260409020805460ff19166001179055565b600054610100900460ff1680612c4e5750612c4e611a8e565b80612c5c575060005460ff16155b612c975760405162461bcd60e51b815260040180806020018281038252602e815260200180614394602e913960400191505060405180910390fd5b600054610100900460ff16158015612cc2576000805460ff1961ff0019909116610100171660011790555b8251602080850191909120835191840191909120610162919091556101635580156104e3576000805461ff0019169055505050565b805161056690609990602084019061369a565b6001600160a01b03918216600090815260986020908152604080832093909416825291909152205460ff1690565b6000808260800151516001600160401b0381118015612d5657600080fd5b50604051908082528060200260200182016040528015612d80578160200160208202803683370190505b50905060005b836080015151811015612dd257612db384608001518281518110612da657fe5b602002602001015161322e565b828281518110612dbf57fe5b6020908102919091010152600101612d86565b5060008360600151516001600160401b0381118015612df057600080fd5b50604051908082528060200260200182016040528015612e1a578160200160208202803683370190505b50905060005b846060015151811015612e5f57612e4085606001518281518110612da657fe5b828281518110612e4c57fe5b6020908102919091010152600101612e20565b507ffb988707ebb338694f318760b0fd5cfe756d00a2ade251fda110b80c336a3c7f846000015185604001518660200151805190602001208460405160200180828051906020019060200280838360005b83811015612ec8578181015183820152602001612eb0565b50505050905001915050604051602081830303815290604052805190602001208660405160200180828051906020019060200280838360005b83811015612f19578181015183820152602001612f01565b50505050905001915050604051602081830303815290604052805190602001206040516020018087815260200186815260200185815260200184815260200183815260200182815260200196505050505050506040516020818303038152906040528051906020012092505050919050565b6000612f968361329b565b9050612faa846001600160a01b0316612bab565b156131235760408051630b135d3f60e11b808252600482018481526024830193845285516044840152855191936001600160a01b03891693631626ba7e938793899390929091606490910190602085019080838360005b83811015613019578181015183820152602001613001565b50505050905090810190601f1680156130465780820380516001836020036101000a031916815260200191505b50935050505060206040518083038186803b15801561306457600080fd5b505afa158015613078573d6000803e3d6000fd5b505050506040513d602081101561308e57600080fd5b505160408051808201909152601c81527f7369676e617475726520766572696669636174696f6e206572726f72000000006020820152916001600160e01b03199091161461311d5760405162461bcd60e51b815260206004820181815283516024840152835190928392604490910191908501908083836000831561177257818101518382015260200161175a565b5061282d565b6001600160a01b03841661313782846132e7565b6001600160a01b0316146040518060400160405280601c81526020017f7369676e617475726520766572696669636174696f6e206572726f7200000000815250906109735760405162461bcd60e51b815260206004820181815283516024840152835190928392604490910191908501908083836000831561177257818101518382015260200161175a565b60008381526101fd60205260408120546131de9084906117b5565b60008581526101fc60205260409020549091508111156132105760405162461bcd60e51b81526004016104cf90614094565b60008481526101fd6020526040902081905561097385858585613367565b8051602091820151604080517f397e04204c1e1a60ee8724b71f8244e10ab5f2e9009854d80f602bda21b59ebb818601526001600160a01b03909316838201526001600160601b039091166060808401919091528151808403909101815260809092019052805191012090565b60006132a5613468565b82604051602001808061190160f01b81525060020183815260200182815260200192505050604051602081830303815290604052805190602001209050919050565b6000815160411461333f576040805162461bcd60e51b815260206004820152601f60248201527f45434453413a20696e76616c6964207369676e6174757265206c656e67746800604482015290519081900360640190fd5b60208201516040830151606084015160001a61335d868285856134a8565b9695505050505050565b6001600160a01b0384166133ac5760405162461bcd60e51b81526004018080602001828103825260218152602001806144ab6021913960400191505060405180910390fd5b60006133b66116ba565b90506133c881600087611033886123ec565b60008481526097602090815260408083206001600160a01b03891684529091529020546133f590846117b5565b60008581526097602090815260408083206001600160a01b03808b16808652918452828520959095558151898152928301889052815190948616927fc3d58168c5ae7397731d063d5bbf3d657854427343f4c083240f7aacaa2d0f6292908290030190a461097381600087878787612431565b60006134a37f8b73c3c69bb8fe3d512ecc4cf759cc79239f7b179b0ffacaa9a75d522b39400f613496613626565b61349e61362d565b613634565b905090565b60007f7fffffffffffffffffffffffffffffff5d576e7357a4501ddfe92f46681b20a08211156135095760405162461bcd60e51b815260040180806020018281038252602281526020018061431b6022913960400191505060405180910390fd5b8360ff16601b148061351e57508360ff16601c145b6135595760405162461bcd60e51b81526004018080602001828103825260228152602001806143c26022913960400191505060405180910390fd5b600060018686868660405160008152602001604052604051808581526020018460ff1681526020018381526020018281526020019450505050506020604051602081039080840390855afa1580156135b5573d6000803e3d6000fd5b5050604051601f1901519150506001600160a01b03811661361d576040805162461bcd60e51b815260206004820152601860248201527f45434453413a20696e76616c6964207369676e61747572650000000000000000604482015290519081900360640190fd5b95945050505050565b6101625490565b6101635490565b6000838383613641613696565b3060405160200180868152602001858152602001848152602001838152602001826001600160a01b03168152602001955050505050506040516020818303038152906040528051906020012090509392505050565b4690565b828054600181600116156101000203166002900490600052602060002090601f0160209004810192826136d05760008555613716565b82601f106136e957805160ff1916838001178555613716565b82800160010185558215613716579182015b828111156137165782518255916020019190600101906136fb565b50613722929150613726565b5090565b5b808211156137225760008155600101613727565b80356103d68161420b565b600082601f830112613756578081fd5b8135602061376b61376683614144565b614121565b82815281810190858301855b858110156137a05761378e898684358b01016138c2565b84529284019290840190600101613777565b5090979650505050505050565b600082601f8301126137bd578081fd5b813560206137cd61376683614144565b828152818101908583016040808602880185018910156137eb578687fd5b865b8681101561385a5781838b031215613803578788fd5b81518281018181106001600160401b038211171561381d57fe5b8352833561382a8161420b565b8152838701356001600160601b038116811461384457898afd5b81880152855293850193918101916001016137ed565b509198975050505050505050565b600082601f830112613878578081fd5b8135602061388861376683614144565b82815281810190858301838502870184018810156138a4578586fd5b855b858110156137a0578135845292840192908401906001016138a6565b600082601f8301126138d2578081fd5b81356001600160401b038111156138e557fe5b6138f8601f8201601f1916602001614121565b81815284602083860101111561390c578283fd5b816020850160208301379081016020019190915292915050565b600060208284031215613937578081fd5b8135610f638161420b565b60008060408385031215613954578081fd5b823561395f8161420b565b9150602083013561396f8161420b565b809150509250929050565b600080600080600060a08688031215613991578081fd5b853561399c8161420b565b945060208601356139ac8161420b565b935060408601356001600160401b03808211156139c7578283fd5b6139d389838a01613868565b945060608801359150808211156139e8578283fd5b6139f489838a01613868565b93506080880135915080821115613a09578283fd5b50613a16888289016138c2565b9150509295509295909350565b600080600080600060a08688031215613a3a578283fd5b8535613a458161420b565b94506020860135613a558161420b565b9350604086013592506060860135915060808601356001600160401b03811115613a7d578182fd5b613a16888289016138c2565b600080600060608486031215613a9d578081fd5b8335613aa88161420b565b925060208401356001600160401b0380821115613ac3578283fd5b613acf87838801613868565b93506040860135915080821115613ae4578283fd5b50613af186828701613868565b9150509250925092565b60008060408385031215613b0d578182fd5b8235613b188161420b565b91506020830135801515811461396f578182fd5b60008060408385031215613b3e578182fd5b8235613b498161420b565b946020939093013593505050565b600080600060608486031215613b6b578081fd5b8335613b768161420b565b95602085013595506040909401359392505050565b60008060408385031215613b9d578182fd5b82356001600160401b0380821115613bb3578384fd5b818501915085601f830112613bc6578384fd5b81356020613bd661376683614144565b82815281810190858301838502870184018b1015613bf2578889fd5b8896505b84871015613c1d578035613c098161420b565b835260019690960195918301918301613bf6565b5096505086013592505080821115613c33578283fd5b50613c4085828601613868565b9150509250929050565b600060208284031215613c5b578081fd5b81356001600160e01b031981168114610f63578182fd5b60008060008060808587031215613c87578182fd5b84356001600160401b0380821115613c9d578384fd5b613ca9888389016138c2565b95506020870135915080821115613cbe578384fd5b613cca888389016138c2565b94506040870135915080821115613cdf578384fd5b613ceb888389016138c2565b93506060870135915080821115613d00578283fd5b50613d0d878288016138c2565b91505092959194509250565b600080600060608486031215613d2d578081fd5b83356001600160401b0380821115613d43578283fd5b9085019060c08288031215613d56578283fd5b613d6060c0614121565b82358152602083013582811115613d75578485fd5b613d81898286016138c2565b60208301525060408301356040820152606083013582811115613da2578485fd5b613dae898286016137ad565b606083015250608083013582811115613dc5578485fd5b613dd1898286016137ad565b60808301525060a083013582811115613de8578485fd5b613df489828601613746565b60a0830152509450613e0b9150506020850161373b565b9150604084013590509250925092565b600060208284031215613e2c578081fd5b5035919050565b60008060408385031215613e45578182fd5b50508035926020909101359150565b6000815180845260208085019450808401835b83811015613ea057815180516001600160a01b031688528301516001600160601b03168388015260409096019590820190600101613e67565b509495945050505050565b6001600160a01b0391909116815260200190565b6001600160a01b039290921682526001600160601b0316602082015260400190565b600060208252610f636020830184613e54565b6020808252825182820181905260009190848201906040850190845b81811015613f2c57835183529284019291840191600101613f10565b50909695505050505050565b901515815260200190565b6000602080835283518082850152825b81811015613f6f57858101830151858201604001528201613f53565b81811115613f805783604083870101525b50601f01601f1916929092016040019392505050565b60208082526017908201527f6d696e746572206973206e6f7420746865206f776e6572000000000000000000604082015260600190565b60208082526010908201526f1cdd5c1c1b1e481a5b98dbdc9c9958dd60821b604082015260600190565b6020808252601190820152701d1bdad95b9259081a5b98dbdc9c9958dd607a1b604082015260600190565b60208082526010908201526f185b5bdd5b9d081a5b98dbdc9c9958dd60821b604082015260600190565b60208082526028908201527f455243313135353a207472616e736665722063616c6c6572206973206e6f7420604082015267185c1c1c9bdd995960c21b606082015260800190565b60208082526010908201526f6d6f7265207468616e20737570706c7960801b604082015260600190565b6020808252601190820152701d5c9a481cda1bdd5b19081899481cd95d607a1b604082015260600190565b90815260200190565b60008382526040602083015261410b6040830184613e54565b949350505050565b918252602082015260400190565b6040518181016001600160401b038111828210171561413c57fe5b604052919050565b60006001600160401b0382111561415757fe5b5060209081020190565b60e01c90565b600060443d101561417757610bb8565b600481823e6308c379a061418b8251614161565b1461419557610bb8565b6040513d600319016004823e80513d6001600160401b0381602484011181841117156141c45750505050610bb8565b828401925082519150808211156141de5750505050610bb8565b503d830160208284010111156141f657505050610bb8565b601f01601f1916810160200160405291505090565b6001600160a01b0381168114611b9657600080fdfe455243313135353a207472616e7366657220746f206e6f6e2045524331313535526563656976657220696d706c656d656e746572455243313135353a204552433131353552656365697665722072656a656374656420746f6b656e73455243313135353a2062616c616e636520717565727920666f7220746865207a65726f20616464726573734f776e61626c653a206e6577206f776e657220697320746865207a65726f2061646472657373455243313135353a206275726e20616d6f756e7420657863656564732062616c616e6365455243313135353a2063616c6c6572206973206e6f74206f776e6572206e6f7220617070726f76656445434453413a20696e76616c6964207369676e6174757265202773272076616c7565455243313135353a207472616e7366657220746f20746865207a65726f2061646472657373455243313135353a207472616e736665722063616c6c6572206973206e6f74206f776e6572206e6f7220617070726f766564496e697469616c697a61626c653a20636f6e747261637420697320616c726561647920696e697469616c697a656445434453413a20696e76616c6964207369676e6174757265202776272076616c7565455243313135353a206275726e2066726f6d20746865207a65726f2061646472657373455243313135353a20696e73756666696369656e742062616c616e636520666f72207472616e73666572455243313135353a2073657474696e6720617070726f76616c2073746174757320666f722073656c66455243313135353a206163636f756e747320616e6420696473206c656e677468206d69736d61746368455243313135353a2069647320616e6420616d6f756e7473206c656e677468206d69736d61746368455243313135353a206d696e7420746f20746865207a65726f2061646472657373a26469706673582212203f65cb0cf2e74a74bc5a0b8a47e97bae70dfcd4f7285ab7edc612a0181e9875a64736f6c63430007060033",
  "immutableReferences": {},
  "source": "// SPDX-License-Identifier: MIT\n\npragma solidity >=0.6.2 <0.8.0;\npragma abicoder v2;\n\nimport \"./ERC1155Base.sol\";\n\ncontract ERC1155RaribleUser is ERC1155Base {\n    function __ERC1155RaribleUser_init(string memory _name, string memory _symbol, string memory baseURI, string memory contractURI) external initializer {\n        __Ownable_init_unchained();\n        __ERC1155Lazy_init_unchained();\n        __ERC165_init_unchained();\n        __Context_init_unchained();\n        __Mint1155Validator_init_unchained();\n        __ERC1155_init_unchained(\"\");\n        __HasContractURI_init_unchained(contractURI);\n        __ERC1155Burnable_init_unchained();\n        __RoyaltiesV2Upgradeable_init_unchained();\n        __ERC1155Base_init_unchained(_name, _symbol);\n        _setBaseURI(baseURI);\n    }\n\n    function mintAndTransfer(LibERC1155LazyMint.Mint1155Data memory data, address to, uint256 _amount) public override {\n        require(owner() == data.creators[0].account, \"minter is not the owner\");\n        super.mintAndTransfer(data, to, _amount);\n    }\n    uint256[50] private __gap;\n}\n",
  "sourcePath": "/home/quadro/Projects/tokenplace/interfaces/tokens/contracts/erc-1155/ERC1155RaribleUser.sol",
  "compiler": {
    "name": "solc",
    "version": "0.7.6+commit.7338295f.Emscripten.clang"
  },
  "schemaVersion": "3.3.4",
  "updatedAt": "2021-04-09T13:41:44.919Z",
  "devdoc": {
    "kind": "dev",
    "methods": {
      "balanceOf(address,uint256)": {
        "details": "See {IERC1155-balanceOf}. Requirements: - `account` cannot be the zero address."
      },
      "balanceOfBatch(address[],uint256[])": {
        "details": "See {IERC1155-balanceOfBatch}. Requirements: - `accounts` and `ids` must have the same length."
      },
      "baseURI()": {
        "details": "Returns the base URI set via {_setBaseURI}. This will be automatically added as a prefix in {tokenURI} to each token's URI, or to the token ID if no specific URI is set for that token ID."
      },
      "owner()": {
        "details": "Returns the address of the current owner."
      },
      "renounceOwnership()": {
        "details": "Leaves the contract without owner. It will not be possible to call `onlyOwner` functions anymore. Can only be called by the current owner. NOTE: Renouncing ownership will leave the contract without an owner, thereby removing any functionality that is only available to the owner."
      },
      "safeBatchTransferFrom(address,address,uint256[],uint256[],bytes)": {
        "details": "See {IERC1155-safeBatchTransferFrom}."
      },
      "safeTransferFrom(address,address,uint256,uint256,bytes)": {
        "details": "See {IERC1155-safeTransferFrom}."
      },
      "setApprovalForAll(address,bool)": {
        "details": "See {IERC1155-setApprovalForAll}."
      },
      "supportsInterface(bytes4)": {
        "details": "See {IERC165-supportsInterface}. Time complexity O(1), guaranteed to always use less than 30 000 gas."
      },
      "transferOwnership(address)": {
        "details": "Transfers ownership of the contract to a new account (`newOwner`). Can only be called by the current owner."
      }
    },
    "version": 1
  },
  "userdoc": {
    "kind": "user",
    "methods": {},
    "version": 1
  }
}