{
  "contractName": "ERC1155RaribleFactory",
  "abi": [
    {
      "inputs": [
        {
          "internalType": "contract IBeacon",
          "name": "_beacon",
          "type": "address"
        },
        {
          "internalType": "address",
          "name": "_transferProxy",
          "type": "address"
        },
        {
          "internalType": "address",
          "name": "_lazyTransferProxy",
          "type": "address"
        }
      ],
      "stateMutability": "nonpayable",
      "type": "constructor"
    },
    {
      "anonymous": false,
      "inputs": [
        {
          "indexed": false,
          "internalType": "contract BeaconProxy",
          "name": "proxy",
          "type": "address"
        }
      ],
      "name": "Create1155RaribleProxy",
      "type": "event"
    },
    {
      "anonymous": false,
      "inputs": [
        {
          "indexed": true,
          "internalType": "address",
          "name": "previousOwner",
          "type": "address"
        },
        {
          "indexed": true,
          "internalType": "address",
          "name": "newOwner",
          "type": "address"
        }
      ],
      "name": "OwnershipTransferred",
      "type": "event"
    },
    {
      "inputs": [],
      "name": "beacon",
      "outputs": [
        {
          "internalType": "contract IBeacon",
          "name": "",
          "type": "address"
        }
      ],
      "stateMutability": "view",
      "type": "function",
      "constant": true
    },
    {
      "inputs": [],
      "name": "owner",
      "outputs": [
        {
          "internalType": "address",
          "name": "",
          "type": "address"
        }
      ],
      "stateMutability": "view",
      "type": "function",
      "constant": true
    },
    {
      "inputs": [],
      "name": "renounceOwnership",
      "outputs": [],
      "stateMutability": "nonpayable",
      "type": "function"
    },
    {
      "inputs": [
        {
          "internalType": "address",
          "name": "newOwner",
          "type": "address"
        }
      ],
      "name": "transferOwnership",
      "outputs": [],
      "stateMutability": "nonpayable",
      "type": "function"
    },
    {
      "inputs": [
        {
          "internalType": "string",
          "name": "_name",
          "type": "string"
        },
        {
          "internalType": "string",
          "name": "_symbol",
          "type": "string"
        },
        {
          "internalType": "string",
          "name": "baseURI",
          "type": "string"
        },
        {
          "internalType": "string",
          "name": "contractURI",
          "type": "string"
        }
      ],
      "name": "createToken",
      "outputs": [],
      "stateMutability": "nonpayable",
      "type": "function"
    }
  ],
  "bytecode": "0x608060405234801561001057600080fd5b5060405161114438038061114483398101604081905261002f916100c9565b60006100396100c5565b600080546001600160a01b0319166001600160a01b0383169081178255604051929350917f8be0079c531659141344cd1fd0a4f28419497f9722a3daafe3b4186f6b6457e0908290a350600180546001600160a01b039485166001600160a01b03199182161790915560028054938516938216939093179092556003805491909316911617905561012d565b3390565b6000806000606084860312156100dd578283fd5b83516100e881610115565b60208501519093506100f981610115565b604085015190925061010a81610115565b809150509250925092565b6001600160a01b038116811461012a57600080fd5b50565b6110088061013c6000396000f3fe60806040523480156200001157600080fd5b50600436106200005e5760003560e01c806359659e901462000063578063715018a614620000855780638da5cb5b1462000091578063a0769659146200009b578063f2fde38b14620000b2575b600080fd5b6200006d620000c9565b6040516200007c9190620006ab565b60405180910390f35b6200008f620000d8565b005b6200006d6200019b565b6200008f620000ac366004620005a8565b620001aa565b6200008f620000c336600462000578565b620003d2565b6001546001600160a01b031681565b620000e2620004ed565b6001600160a01b0316620000f56200019b565b6001600160a01b03161462000151576040805162461bcd60e51b815260206004820181905260248201527f4f776e61626c653a2063616c6c6572206973206e6f7420746865206f776e6572604482015290519081900360640190fd5b600080546040516001600160a01b03909116907f8be0079c531659141344cd1fd0a4f28419497f9722a3daafe3b4186f6b6457e0908390a3600080546001600160a01b0319169055565b6000546001600160a01b031690565b600063148dbc4f60e01b85858585604051602401620001cd949392919062000708565b60408051601f198184030181529181526020820180516001600160e01b03166001600160e01b03199094169390931790925260015491519092506000916001600160a01b03169083906200022190620004f1565b6200022e929190620006da565b604051809103906000f0801580156200024b573d6000803e3d6000fd5b506002546040516318054c3760e01b815291925082916001600160a01b03808416926318054c3792620002889290911690600190600401620006bf565b600060405180830381600087803b158015620002a357600080fd5b505af1158015620002b8573d6000803e3d6000fd5b50506003546040516318054c3760e01b81526001600160a01b0380861694506318054c379350620002f1921690600190600401620006bf565b600060405180830381600087803b1580156200030c57600080fd5b505af115801562000321573d6000803e3d6000fd5b50505050806001600160a01b031663f2fde38b6200033e620004ed565b6040518263ffffffff1660e01b81526004016200035c9190620006ab565b600060405180830381600087803b1580156200037757600080fd5b505af11580156200038c573d6000803e3d6000fd5b505050507f7d676ffa0eb839c909c4588fca6dd0076b4036f58e821b53b7d754c0e4b9a4d082604051620003c19190620006ab565b60405180910390a150505050505050565b620003dc620004ed565b6001600160a01b0316620003ef6200019b565b6001600160a01b0316146200044b576040805162461bcd60e51b815260206004820181905260248201527f4f776e61626c653a2063616c6c6572206973206e6f7420746865206f776e6572604482015290519081900360640190fd5b6001600160a01b038116620004925760405162461bcd60e51b815260040180806020018281038252602681526020018062000fad6026913960400191505060405180910390fd5b600080546040516001600160a01b03808516939216917f8be0079c531659141344cd1fd0a4f28419497f9722a3daafe3b4186f6b6457e091a3600080546001600160a01b0319166001600160a01b0392909216919091179055565b3390565b610844806200076983390190565b600082601f83011262000510578081fd5b813567ffffffffffffffff808211156200052657fe5b604051601f8301601f1916810160200182811182821017156200054557fe5b6040528281528483016020018610156200055d578384fd5b82602086016020830137918201602001929092529392505050565b6000602082840312156200058a578081fd5b81356001600160a01b0381168114620005a1578182fd5b9392505050565b60008060008060808587031215620005be578283fd5b843567ffffffffffffffff80821115620005d6578485fd5b620005e488838901620004ff565b95506020870135915080821115620005fa578485fd5b6200060888838901620004ff565b945060408701359150808211156200061e578384fd5b6200062c88838901620004ff565b9350606087013591508082111562000642578283fd5b506200065187828801620004ff565b91505092959194509250565b60008151808452815b81811015620006845760208185018101518683018201520162000666565b81811115620006965782602083870101525b50601f01601f19169290920160200192915050565b6001600160a01b0391909116815260200190565b6001600160a01b039290921682521515602082015260400190565b6001600160a01b038316815260406020820181905260009062000700908301846200065d565b949350505050565b6000608082526200071d60808301876200065d565b82810360208401526200073181876200065d565b905082810360408401526200074781866200065d565b905082810360608401526200075d81856200065d565b97965050505050505056fe60806040526040516108443803806108448339818101604052604081101561002657600080fd5b81516020830180516040519294929383019291908464010000000082111561004d57600080fd5b90830190602082018581111561006257600080fd5b825164010000000081118282018810171561007c57600080fd5b82525081516020918201929091019080838360005b838110156100a9578181015183820152602001610091565b50505050905090810190601f1680156100d65780820380516001836020036101000a031916815260200191505b50604052506100e3915050565b6100ed82826100f4565b505061047e565b6101078261024960201b6100311760201c565b6101425760405162461bcd60e51b81526004018080602001828103825260258152602001806107c56025913960400191505060405180910390fd5b6101ba826001600160a01b0316635c60da1b6040518163ffffffff1660e01b815260040160206040518083038186803b15801561017e57600080fd5b505afa158015610192573d6000803e3d6000fd5b505050506040513d60208110156101a857600080fd5b5051610249602090811b61003117901c565b6101f55760405162461bcd60e51b81526004018080602001828103825260348152602001806108106034913960400191505060405180910390fd5b6000805160206107848339815191528281558151156102445761024261021961024f565b836040518060600160405280602181526020016107a4602191396102c260201b6100371760201c565b505b505050565b3b151590565b60006102596103c7565b6001600160a01b0316635c60da1b6040518163ffffffff1660e01b815260040160206040518083038186803b15801561029157600080fd5b505afa1580156102a5573d6000803e3d6000fd5b505050506040513d60208110156102bb57600080fd5b5051905090565b60606102cd84610249565b6103085760405162461bcd60e51b81526004018080602001828103825260268152602001806107ea6026913960400191505060405180910390fd5b600080856001600160a01b0316856040518082805190602001908083835b602083106103455780518252601f199092019160209182019101610326565b6001836020036101000a038019825116818451168082178552505050505050905001915050600060405180830381855af49150503d80600081146103a5576040519150601f19603f3d011682016040523d82523d6000602084013e6103aa565b606091505b5090925090506103bb8282866103da565b925050505b9392505050565b6000805160206107848339815191525490565b606083156103e95750816103c0565b8251156103f95782518084602001fd5b8160405162461bcd60e51b81526004018080602001828103825283818151815260200191508051906020019080838360005b8381101561044357818101518382015260200161042b565b50505050905090810190601f1680156104705780820380516001836020036101000a031916815260200191505b509250505060405180910390fd5b6102f78061048d6000396000f3fe60806040523661001357610011610017565b005b6100115b61001f61002f565b61002f61002a61013b565b6101ae565b565b3b151590565b606061004284610031565b61007d5760405162461bcd60e51b815260040180806020018281038252602681526020018061029c6026913960400191505060405180910390fd5b600080856001600160a01b0316856040518082805190602001908083835b602083106100ba5780518252601f19909201916020918201910161009b565b6001836020036101000a038019825116818451168082178552505050505050905001915050600060405180830381855af49150503d806000811461011a576040519150601f19603f3d011682016040523d82523d6000602084013e61011f565b606091505b509150915061012f8282866101d2565b925050505b9392505050565b6000610145610276565b6001600160a01b0316635c60da1b6040518163ffffffff1660e01b815260040160206040518083038186803b15801561017d57600080fd5b505afa158015610191573d6000803e3d6000fd5b505050506040513d60208110156101a757600080fd5b5051905090565b3660008037600080366000845af43d6000803e8080156101cd573d6000f35b3d6000fd5b606083156101e1575081610134565b8251156101f15782518084602001fd5b8160405162461bcd60e51b81526004018080602001828103825283818151815260200191508051906020019080838360005b8381101561023b578181015183820152602001610223565b50505050905090810190601f1680156102685780820380516001836020036101000a031916815260200191505b509250505060405180910390fd5b7fa3f0ad74e5423aebfd80d3ef4346578335a9a72aeaee59ff6cb3582b35133d50549056fe416464726573733a2064656c65676174652063616c6c20746f206e6f6e2d636f6e7472616374a26469706673582212208d876f4df9e95fb28cbac2f32a1bbbb4e7f39f9d7bb110fc7b5628d98879c2ba64736f6c63430007060033a3f0ad74e5423aebfd80d3ef4346578335a9a72aeaee59ff6cb3582b35133d50426561636f6e50726f78793a2066756e6374696f6e2063616c6c206661696c6564426561636f6e50726f78793a20626561636f6e206973206e6f74206120636f6e7472616374416464726573733a2064656c65676174652063616c6c20746f206e6f6e2d636f6e7472616374426561636f6e50726f78793a20626561636f6e20696d706c656d656e746174696f6e206973206e6f74206120636f6e74726163744f776e61626c653a206e6577206f776e657220697320746865207a65726f2061646472657373a2646970667358221220893b177ac763213a8ea651f7c793e2ca49b497c64db253369389e91064d5fe9e64736f6c63430007060033",
  "immutableReferences": {},
  "source": "// SPDX-License-Identifier: MIT\n\npragma solidity >=0.6.2 <0.8.0;\npragma abicoder v2;\n\nimport \"./ERC1155Rarible.sol\";\nimport \"@openzeppelin/contracts/proxy/IBeacon.sol\";\nimport \"@openzeppelin/contracts/proxy/BeaconProxy.sol\";\nimport \"@openzeppelin/contracts/access/Ownable.sol\";\n\n/**\n * @dev This contract is for creating proxy to access ERC1155Rarible token.\n *\n * The beacon should be initialized before call ERC1155RaribleFactory constructor.\n *\n */\ncontract ERC1155RaribleFactory is Ownable {\n    IBeacon public beacon;\n    address transferProxy;\n    address lazyTransferProxy;\n\n    event Create1155RaribleProxy(BeaconProxy proxy);\n\n    constructor(IBeacon _beacon, address _transferProxy, address _lazyTransferProxy) {\n        beacon = _beacon;\n        transferProxy = _transferProxy;\n        lazyTransferProxy = _lazyTransferProxy;\n    }\n\n    function createToken(string memory _name, string memory _symbol, string memory baseURI, string memory contractURI) external {\n        bytes memory data = abi.encodeWithSelector(ERC1155Rarible(0).__ERC1155Rarible_init.selector, _name, _symbol, baseURI, contractURI);\n        BeaconProxy beaconProxy = new BeaconProxy(address(beacon), data);\n        ERC1155Rarible token = ERC1155Rarible(address(beaconProxy));\n        token.setDefaultApproval(transferProxy, true);\n        token.setDefaultApproval(lazyTransferProxy, true);\n        token.transferOwnership(_msgSender());\n        emit Create1155RaribleProxy(beaconProxy);\n    }\n}\n",
  "sourcePath": "/home/quadro/Projects/rarible/protocol-contracts/tokens/contracts/erc-1155/ERC1155RaribleFactory.sol",
  "compiler": {
    "name": "solc",
    "version": "0.7.6+commit.7338295f.Emscripten.clang"
  },
  "schemaVersion": "3.4.0",
  "updatedAt": "2021-08-05T06:08:25.153Z",
  "networkType": "ethereum",
  "devdoc": {
    "details": "This contract is for creating proxy to access ERC1155Rarible token. The beacon should be initialized before call ERC1155RaribleFactory constructor.",
    "kind": "dev",
    "methods": {
      "owner()": {
        "details": "Returns the address of the current owner."
      },
      "renounceOwnership()": {
        "details": "Leaves the contract without owner. It will not be possible to call `onlyOwner` functions anymore. Can only be called by the current owner. NOTE: Renouncing ownership will leave the contract without an owner, thereby removing any functionality that is only available to the owner."
      },
      "transferOwnership(address)": {
        "details": "Transfers ownership of the contract to a new account (`newOwner`). Can only be called by the current owner."
      }
    },
    "version": 1
  },
  "userdoc": {
    "kind": "user",
    "methods": {},
    "version": 1
  }
}