{
  "contractName": "ERC1155RaribleUserFactory",
  "abi": [
    {
      "inputs": [
        {
          "internalType": "contract IBeacon",
          "name": "_beacon",
          "type": "address"
        }
      ],
      "stateMutability": "nonpayable",
      "type": "constructor"
    },
    {
      "anonymous": false,
      "inputs": [
        {
          "indexed": false,
          "internalType": "contract BeaconProxy",
          "name": "proxy",
          "type": "address"
        }
      ],
      "name": "Create1155RaribleUserProxy",
      "type": "event"
    },
    {
      "anonymous": false,
      "inputs": [
        {
          "indexed": true,
          "internalType": "address",
          "name": "previousOwner",
          "type": "address"
        },
        {
          "indexed": true,
          "internalType": "address",
          "name": "newOwner",
          "type": "address"
        }
      ],
      "name": "OwnershipTransferred",
      "type": "event"
    },
    {
      "inputs": [],
      "name": "beacon",
      "outputs": [
        {
          "internalType": "contract IBeacon",
          "name": "",
          "type": "address"
        }
      ],
      "stateMutability": "view",
      "type": "function"
    },
    {
      "inputs": [],
      "name": "owner",
      "outputs": [
        {
          "internalType": "address",
          "name": "",
          "type": "address"
        }
      ],
      "stateMutability": "view",
      "type": "function"
    },
    {
      "inputs": [],
      "name": "renounceOwnership",
      "outputs": [],
      "stateMutability": "nonpayable",
      "type": "function"
    },
    {
      "inputs": [
        {
          "internalType": "address",
          "name": "newOwner",
          "type": "address"
        }
      ],
      "name": "transferOwnership",
      "outputs": [],
      "stateMutability": "nonpayable",
      "type": "function"
    },
    {
      "inputs": [
        {
          "internalType": "string",
          "name": "_name",
          "type": "string"
        },
        {
          "internalType": "string",
          "name": "_symbol",
          "type": "string"
        },
        {
          "internalType": "string",
          "name": "baseURI",
          "type": "string"
        },
        {
          "internalType": "string",
          "name": "contractURI",
          "type": "string"
        },
        {
          "internalType": "address[]",
          "name": "operators",
          "type": "address[]"
        }
      ],
      "name": "createToken",
      "outputs": [],
      "stateMutability": "nonpayable",
      "type": "function"
    }
  ],
  "bytecode": "0x608060405234801561001057600080fd5b5060405161112238038061112283398101604081905261002f916100ac565b60006100396100a8565b600080546001600160a01b0319166001600160a01b0383169081178255604051929350917f8be0079c531659141344cd1fd0a4f28419497f9722a3daafe3b4186f6b6457e0908290a350600180546001600160a01b0319166001600160a01b03929092169190911790556100da565b3390565b6000602082840312156100bd578081fd5b81516001600160a01b03811681146100d3578182fd5b9392505050565b611039806100e96000396000f3fe60806040523480156200001157600080fd5b50600436106200005e5760003560e01c806359659e901462000063578063715018a614620000855780638da5cb5b14620000915780639befc206146200009b578063f2fde38b14620000b2575b600080fd5b6200006d620000c9565b6040516200007c91906200068d565b60405180910390f35b6200008f620000d8565b005b6200006d6200019b565b6200008f620000ac36600462000563565b620001aa565b6200008f620000c33660046200053f565b620002ff565b6001546001600160a01b031681565b620000e26200041a565b6001600160a01b0316620000f56200019b565b6001600160a01b03161462000151576040805162461bcd60e51b815260206004820181905260248201527f4f776e61626c653a2063616c6c6572206973206e6f7420746865206f776e6572604482015290519081900360640190fd5b600080546040516001600160a01b03909116907f8be0079c531659141344cd1fd0a4f28419497f9722a3daafe3b4186f6b6457e0908390a3600080546001600160a01b0319169055565b6000546001600160a01b031690565b600063650e5ad760e01b8686868686604051602401620001cf959493929190620006cf565b60408051601f198184030181529181526020820180516001600160e01b03166001600160e01b03199094169390931790925260015491519092506000916001600160a01b031690839062000223906200041e565b62000230929190620006a1565b604051809103906000f0801580156200024d573d6000803e3d6000fd5b509050806001600160a01b03811663f2fde38b6200026a6200041a565b6040518263ffffffff1660e01b81526004016200028891906200068d565b600060405180830381600087803b158015620002a357600080fd5b505af1158015620002b8573d6000803e3d6000fd5b505050507f5b961e37212df9fe72e2c84d894099793a4569a883f97d6413c4362e68c644b582604051620002ed91906200068d565b60405180910390a15050505050505050565b620003096200041a565b6001600160a01b03166200031c6200019b565b6001600160a01b03161462000378576040805162461bcd60e51b815260206004820181905260248201527f4f776e61626c653a2063616c6c6572206973206e6f7420746865206f776e6572604482015290519081900360640190fd5b6001600160a01b038116620003bf5760405162461bcd60e51b815260040180806020018281038252602681526020018062000fde6026913960400191505060405180910390fd5b600080546040516001600160a01b03808516939216917f8be0079c531659141344cd1fd0a4f28419497f9722a3daafe3b4186f6b6457e091a3600080546001600160a01b0319166001600160a01b0392909216919091179055565b3390565b610844806200079a83390190565b80356001600160a01b03811681146200044457600080fd5b919050565b600082601f8301126200045a578081fd5b8135602067ffffffffffffffff8211156200047157fe5b8082026200048182820162000774565b8381528281019086840183880185018910156200049c578687fd5b8693505b85841015620004c957620004b4816200042c565b835260019390930192918401918401620004a0565b50979650505050505050565b600082601f830112620004e6578081fd5b813567ffffffffffffffff811115620004fb57fe5b62000510601f8201601f191660200162000774565b81815284602083860101111562000525578283fd5b816020850160208301379081016020019190915292915050565b60006020828403121562000551578081fd5b6200055c826200042c565b9392505050565b600080600080600060a086880312156200057b578081fd5b853567ffffffffffffffff8082111562000593578283fd5b620005a189838a01620004d5565b96506020880135915080821115620005b7578283fd5b620005c589838a01620004d5565b95506040880135915080821115620005db578283fd5b620005e989838a01620004d5565b94506060880135915080821115620005ff578283fd5b6200060d89838a01620004d5565b9350608088013591508082111562000623578283fd5b50620006328882890162000449565b9150509295509295909350565b60008151808452815b81811015620006665760208185018101518683018201520162000648565b81811115620006785782602083870101525b50601f01601f19169290920160200192915050565b6001600160a01b0391909116815260200190565b6001600160a01b0383168152604060208201819052600090620006c7908301846200063f565b949350505050565b600060a08252620006e460a08301886200063f565b602083820381850152620006f982896200063f565b915083820360408501526200070f82886200063f565b915083820360608501526200072582876200063f565b84810360808601528551808252828701935090820190845b81811015620007645784516001600160a01b0316835293830193918301916001016200073d565b50909a9950505050505050505050565b60405181810167ffffffffffffffff811182821017156200079157fe5b60405291905056fe60806040526040516108443803806108448339818101604052604081101561002657600080fd5b81516020830180516040519294929383019291908464010000000082111561004d57600080fd5b90830190602082018581111561006257600080fd5b825164010000000081118282018810171561007c57600080fd5b82525081516020918201929091019080838360005b838110156100a9578181015183820152602001610091565b50505050905090810190601f1680156100d65780820380516001836020036101000a031916815260200191505b50604052506100e3915050565b6100ed82826100f4565b505061047e565b6101078261024960201b6100311760201c565b6101425760405162461bcd60e51b81526004018080602001828103825260258152602001806107c56025913960400191505060405180910390fd5b6101ba826001600160a01b0316635c60da1b6040518163ffffffff1660e01b815260040160206040518083038186803b15801561017e57600080fd5b505afa158015610192573d6000803e3d6000fd5b505050506040513d60208110156101a857600080fd5b5051610249602090811b61003117901c565b6101f55760405162461bcd60e51b81526004018080602001828103825260348152602001806108106034913960400191505060405180910390fd5b6000805160206107848339815191528281558151156102445761024261021961024f565b836040518060600160405280602181526020016107a4602191396102c260201b6100371760201c565b505b505050565b3b151590565b60006102596103c7565b6001600160a01b0316635c60da1b6040518163ffffffff1660e01b815260040160206040518083038186803b15801561029157600080fd5b505afa1580156102a5573d6000803e3d6000fd5b505050506040513d60208110156102bb57600080fd5b5051905090565b60606102cd84610249565b6103085760405162461bcd60e51b81526004018080602001828103825260268152602001806107ea6026913960400191505060405180910390fd5b600080856001600160a01b0316856040518082805190602001908083835b602083106103455780518252601f199092019160209182019101610326565b6001836020036101000a038019825116818451168082178552505050505050905001915050600060405180830381855af49150503d80600081146103a5576040519150601f19603f3d011682016040523d82523d6000602084013e6103aa565b606091505b5090925090506103bb8282866103da565b925050505b9392505050565b6000805160206107848339815191525490565b606083156103e95750816103c0565b8251156103f95782518084602001fd5b8160405162461bcd60e51b81526004018080602001828103825283818151815260200191508051906020019080838360005b8381101561044357818101518382015260200161042b565b50505050905090810190601f1680156104705780820380516001836020036101000a031916815260200191505b509250505060405180910390fd5b6102f78061048d6000396000f3fe60806040523661001357610011610017565b005b6100115b61001f61002f565b61002f61002a61013b565b6101ae565b565b3b151590565b606061004284610031565b61007d5760405162461bcd60e51b815260040180806020018281038252602681526020018061029c6026913960400191505060405180910390fd5b600080856001600160a01b0316856040518082805190602001908083835b602083106100ba5780518252601f19909201916020918201910161009b565b6001836020036101000a038019825116818451168082178552505050505050905001915050600060405180830381855af49150503d806000811461011a576040519150601f19603f3d011682016040523d82523d6000602084013e61011f565b606091505b509150915061012f8282866101d2565b925050505b9392505050565b6000610145610276565b6001600160a01b0316635c60da1b6040518163ffffffff1660e01b815260040160206040518083038186803b15801561017d57600080fd5b505afa158015610191573d6000803e3d6000fd5b505050506040513d60208110156101a757600080fd5b5051905090565b3660008037600080366000845af43d6000803e8080156101cd573d6000f35b3d6000fd5b606083156101e1575081610134565b8251156101f15782518084602001fd5b8160405162461bcd60e51b81526004018080602001828103825283818151815260200191508051906020019080838360005b8381101561023b578181015183820152602001610223565b50505050905090810190601f1680156102685780820380516001836020036101000a031916815260200191505b509250505060405180910390fd5b7fa3f0ad74e5423aebfd80d3ef4346578335a9a72aeaee59ff6cb3582b35133d50549056fe416464726573733a2064656c65676174652063616c6c20746f206e6f6e2d636f6e7472616374a26469706673582212208d876f4df9e95fb28cbac2f32a1bbbb4e7f39f9d7bb110fc7b5628d98879c2ba64736f6c63430007060033a3f0ad74e5423aebfd80d3ef4346578335a9a72aeaee59ff6cb3582b35133d50426561636f6e50726f78793a2066756e6374696f6e2063616c6c206661696c6564426561636f6e50726f78793a20626561636f6e206973206e6f74206120636f6e7472616374416464726573733a2064656c65676174652063616c6c20746f206e6f6e2d636f6e7472616374426561636f6e50726f78793a20626561636f6e20696d706c656d656e746174696f6e206973206e6f74206120636f6e74726163744f776e61626c653a206e6577206f776e657220697320746865207a65726f2061646472657373a2646970667358221220dbcf24e4dfcecdac20962a6230455e0552f5f969e86d1fea6ec696d63622199c64736f6c63430007060033",
  "immutableReferences": {},
  "source": "// SPDX-License-Identifier: MIT\n\npragma solidity >=0.6.2 <0.8.0;\npragma abicoder v2;\n\nimport \"./ERC1155RaribleUser.sol\";\nimport \"@openzeppelin/contracts/proxy/IBeacon.sol\";\nimport \"@openzeppelin/contracts/proxy/BeaconProxy.sol\";\nimport \"@openzeppelin/contracts/access/Ownable.sol\";\n\n/**\n * @dev This contract is for creating proxy to access ERC1155UserRarible token.\n *\n * The beacon should be initialized before call ERC1155RaribleUserFactory constructor.\n *\n */\ncontract ERC1155RaribleUserFactory is Ownable {\n    IBeacon public beacon;\n\n    event Create1155RaribleUserProxy(BeaconProxy proxy);\n\n    constructor(IBeacon _beacon) {\n        beacon = _beacon;\n    }\n\n    function createToken(string memory _name, string memory _symbol, string memory baseURI, string memory contractURI, address[] memory operators) external {\n        bytes memory data = abi.encodeWithSelector(ERC1155RaribleUser(0).__ERC1155RaribleUser_init.selector, _name, _symbol, baseURI, contractURI, operators);\n        BeaconProxy beaconProxy = new BeaconProxy(address(beacon), data);\n        ERC1155RaribleUser token = ERC1155RaribleUser(address(beaconProxy));\n        token.transferOwnership(_msgSender());\n        emit Create1155RaribleUserProxy(beaconProxy);\n    }\n}\n",
  "sourcePath": "/home/quadro/Projects/rarible/protocol-contracts/tokens/contracts/erc-1155/ERC1155RaribleUserFactory.sol",
  "compiler": {
    "name": "solc",
    "version": "0.7.6+commit.7338295f.Emscripten.clang"
  },
  "schemaVersion": "3.4.0",
  "updatedAt": "2021-08-05T06:24:03.520Z",
  "devdoc": {
    "details": "This contract is for creating proxy to access ERC1155UserRarible token. The beacon should be initialized before call ERC1155RaribleUserFactory constructor.",
    "kind": "dev",
    "methods": {
      "owner()": {
        "details": "Returns the address of the current owner."
      },
      "renounceOwnership()": {
        "details": "Leaves the contract without owner. It will not be possible to call `onlyOwner` functions anymore. Can only be called by the current owner. NOTE: Renouncing ownership will leave the contract without an owner, thereby removing any functionality that is only available to the owner."
      },
      "transferOwnership(address)": {
        "details": "Transfers ownership of the contract to a new account (`newOwner`). Can only be called by the current owner."
      }
    },
    "version": 1
  },
  "userdoc": {
    "kind": "user",
    "methods": {},
    "version": 1
  }
}