{
  "contractName": "ERC1155RaribleUser",
  "abi": [
    {
      "anonymous": false,
      "inputs": [
        {
          "indexed": true,
          "internalType": "address",
          "name": "account",
          "type": "address"
        },
        {
          "indexed": true,
          "internalType": "address",
          "name": "operator",
          "type": "address"
        },
        {
          "indexed": false,
          "internalType": "bool",
          "name": "approved",
          "type": "bool"
        }
      ],
      "name": "ApprovalForAll",
      "type": "event"
    },
    {
      "anonymous": false,
      "inputs": [
        {
          "indexed": false,
          "internalType": "address",
          "name": "owner",
          "type": "address"
        },
        {
          "indexed": false,
          "internalType": "string",
          "name": "name",
          "type": "string"
        },
        {
          "indexed": false,
          "internalType": "string",
          "name": "symbol",
          "type": "string"
        }
      ],
      "name": "CreateERC1155RaribleUser",
      "type": "event"
    },
    {
      "anonymous": false,
      "inputs": [
        {
          "indexed": false,
          "internalType": "uint256",
          "name": "tokenId",
          "type": "uint256"
        },
        {
          "components": [
            {
              "internalType": "address payable",
              "name": "account",
              "type": "address"
            },
            {
              "internalType": "uint96",
              "name": "value",
              "type": "uint96"
            }
          ],
          "indexed": false,
          "internalType": "struct LibPart.Part[]",
          "name": "creators",
          "type": "tuple[]"
        }
      ],
      "name": "Creators",
      "type": "event"
    },
    {
      "anonymous": false,
      "inputs": [
        {
          "indexed": false,
          "internalType": "uint256",
          "name": "tokenId",
          "type": "uint256"
        },
        {
          "indexed": false,
          "internalType": "string",
          "name": "uri",
          "type": "string"
        },
        {
          "components": [
            {
              "internalType": "address payable",
              "name": "account",
              "type": "address"
            },
            {
              "internalType": "uint96",
              "name": "value",
              "type": "uint96"
            }
          ],
          "indexed": false,
          "internalType": "struct LibPart.Part[]",
          "name": "creators",
          "type": "tuple[]"
        },
        {
          "indexed": false,
          "internalType": "uint256",
          "name": "value",
          "type": "uint256"
        }
      ],
      "name": "Mint",
      "type": "event"
    },
    {
      "anonymous": false,
      "inputs": [
        {
          "indexed": true,
          "internalType": "address",
          "name": "previousOwner",
          "type": "address"
        },
        {
          "indexed": true,
          "internalType": "address",
          "name": "newOwner",
          "type": "address"
        }
      ],
      "name": "OwnershipTransferred",
      "type": "event"
    },
    {
      "anonymous": false,
      "inputs": [
        {
          "indexed": false,
          "internalType": "uint256",
          "name": "tokenId",
          "type": "uint256"
        },
        {
          "components": [
            {
              "internalType": "address payable",
              "name": "account",
              "type": "address"
            },
            {
              "internalType": "uint96",
              "name": "value",
              "type": "uint96"
            }
          ],
          "indexed": false,
          "internalType": "struct LibPart.Part[]",
          "name": "royalties",
          "type": "tuple[]"
        }
      ],
      "name": "RoyaltiesSet",
      "type": "event"
    },
    {
      "anonymous": false,
      "inputs": [
        {
          "indexed": false,
          "internalType": "uint256",
          "name": "tokenId",
          "type": "uint256"
        },
        {
          "indexed": false,
          "internalType": "uint256",
          "name": "value",
          "type": "uint256"
        }
      ],
      "name": "Supply",
      "type": "event"
    },
    {
      "anonymous": false,
      "inputs": [
        {
          "indexed": true,
          "internalType": "address",
          "name": "operator",
          "type": "address"
        },
        {
          "indexed": true,
          "internalType": "address",
          "name": "from",
          "type": "address"
        },
        {
          "indexed": true,
          "internalType": "address",
          "name": "to",
          "type": "address"
        },
        {
          "indexed": false,
          "internalType": "uint256[]",
          "name": "ids",
          "type": "uint256[]"
        },
        {
          "indexed": false,
          "internalType": "uint256[]",
          "name": "values",
          "type": "uint256[]"
        }
      ],
      "name": "TransferBatch",
      "type": "event"
    },
    {
      "anonymous": false,
      "inputs": [
        {
          "indexed": true,
          "internalType": "address",
          "name": "operator",
          "type": "address"
        },
        {
          "indexed": true,
          "internalType": "address",
          "name": "from",
          "type": "address"
        },
        {
          "indexed": true,
          "internalType": "address",
          "name": "to",
          "type": "address"
        },
        {
          "indexed": false,
          "internalType": "uint256",
          "name": "id",
          "type": "uint256"
        },
        {
          "indexed": false,
          "internalType": "uint256",
          "name": "value",
          "type": "uint256"
        }
      ],
      "name": "TransferSingle",
      "type": "event"
    },
    {
      "anonymous": false,
      "inputs": [
        {
          "indexed": false,
          "internalType": "string",
          "name": "value",
          "type": "string"
        },
        {
          "indexed": true,
          "internalType": "uint256",
          "name": "id",
          "type": "uint256"
        }
      ],
      "name": "URI",
      "type": "event"
    },
    {
      "inputs": [
        {
          "internalType": "address",
          "name": "account",
          "type": "address"
        },
        {
          "internalType": "uint256",
          "name": "id",
          "type": "uint256"
        }
      ],
      "name": "balanceOf",
      "outputs": [
        {
          "internalType": "uint256",
          "name": "",
          "type": "uint256"
        }
      ],
      "stateMutability": "view",
      "type": "function"
    },
    {
      "inputs": [
        {
          "internalType": "address[]",
          "name": "accounts",
          "type": "address[]"
        },
        {
          "internalType": "uint256[]",
          "name": "ids",
          "type": "uint256[]"
        }
      ],
      "name": "balanceOfBatch",
      "outputs": [
        {
          "internalType": "uint256[]",
          "name": "",
          "type": "uint256[]"
        }
      ],
      "stateMutability": "view",
      "type": "function"
    },
    {
      "inputs": [],
      "name": "baseURI",
      "outputs": [
        {
          "internalType": "string",
          "name": "",
          "type": "string"
        }
      ],
      "stateMutability": "view",
      "type": "function"
    },
    {
      "inputs": [
        {
          "internalType": "address",
          "name": "account",
          "type": "address"
        },
        {
          "internalType": "uint256",
          "name": "id",
          "type": "uint256"
        },
        {
          "internalType": "uint256",
          "name": "value",
          "type": "uint256"
        }
      ],
      "name": "burn",
      "outputs": [],
      "stateMutability": "nonpayable",
      "type": "function"
    },
    {
      "inputs": [
        {
          "internalType": "address",
          "name": "account",
          "type": "address"
        },
        {
          "internalType": "uint256[]",
          "name": "ids",
          "type": "uint256[]"
        },
        {
          "internalType": "uint256[]",
          "name": "values",
          "type": "uint256[]"
        }
      ],
      "name": "burnBatch",
      "outputs": [],
      "stateMutability": "nonpayable",
      "type": "function"
    },
    {
      "inputs": [],
      "name": "contractURI",
      "outputs": [
        {
          "internalType": "string",
          "name": "",
          "type": "string"
        }
      ],
      "stateMutability": "view",
      "type": "function"
    },
    {
      "inputs": [
        {
          "internalType": "uint256",
          "name": "",
          "type": "uint256"
        },
        {
          "internalType": "uint256",
          "name": "",
          "type": "uint256"
        }
      ],
      "name": "creators",
      "outputs": [
        {
          "internalType": "address payable",
          "name": "account",
          "type": "address"
        },
        {
          "internalType": "uint96",
          "name": "value",
          "type": "uint96"
        }
      ],
      "stateMutability": "view",
      "type": "function"
    },
    {
      "inputs": [
        {
          "internalType": "uint256",
          "name": "_id",
          "type": "uint256"
        }
      ],
      "name": "getCreators",
      "outputs": [
        {
          "components": [
            {
              "internalType": "address payable",
              "name": "account",
              "type": "address"
            },
            {
              "internalType": "uint96",
              "name": "value",
              "type": "uint96"
            }
          ],
          "internalType": "struct LibPart.Part[]",
          "name": "",
          "type": "tuple[]"
        }
      ],
      "stateMutability": "view",
      "type": "function"
    },
    {
      "inputs": [
        {
          "internalType": "uint256",
          "name": "id",
          "type": "uint256"
        }
      ],
      "name": "getRoyalties",
      "outputs": [
        {
          "components": [
            {
              "internalType": "address payable",
              "name": "account",
              "type": "address"
            },
            {
              "internalType": "uint96",
              "name": "value",
              "type": "uint96"
            }
          ],
          "internalType": "struct LibPart.Part[]",
          "name": "",
          "type": "tuple[]"
        }
      ],
      "stateMutability": "view",
      "type": "function"
    },
    {
      "inputs": [
        {
          "internalType": "address",
          "name": "account",
          "type": "address"
        },
        {
          "internalType": "address",
          "name": "operator",
          "type": "address"
        }
      ],
      "name": "isApprovedForAll",
      "outputs": [
        {
          "internalType": "bool",
          "name": "",
          "type": "bool"
        }
      ],
      "stateMutability": "view",
      "type": "function"
    },
    {
      "inputs": [],
      "name": "name",
      "outputs": [
        {
          "internalType": "string",
          "name": "",
          "type": "string"
        }
      ],
      "stateMutability": "view",
      "type": "function"
    },
    {
      "inputs": [],
      "name": "owner",
      "outputs": [
        {
          "internalType": "address",
          "name": "",
          "type": "address"
        }
      ],
      "stateMutability": "view",
      "type": "function"
    },
    {
      "inputs": [],
      "name": "renounceOwnership",
      "outputs": [],
      "stateMutability": "nonpayable",
      "type": "function"
    },
    {
      "inputs": [
        {
          "internalType": "uint256",
          "name": "",
          "type": "uint256"
        },
        {
          "internalType": "uint256",
          "name": "",
          "type": "uint256"
        }
      ],
      "name": "royalties",
      "outputs": [
        {
          "internalType": "address payable",
          "name": "account",
          "type": "address"
        },
        {
          "internalType": "uint96",
          "name": "value",
          "type": "uint96"
        }
      ],
      "stateMutability": "view",
      "type": "function"
    },
    {
      "inputs": [
        {
          "internalType": "address",
          "name": "from",
          "type": "address"
        },
        {
          "internalType": "address",
          "name": "to",
          "type": "address"
        },
        {
          "internalType": "uint256[]",
          "name": "ids",
          "type": "uint256[]"
        },
        {
          "internalType": "uint256[]",
          "name": "amounts",
          "type": "uint256[]"
        },
        {
          "internalType": "bytes",
          "name": "data",
          "type": "bytes"
        }
      ],
      "name": "safeBatchTransferFrom",
      "outputs": [],
      "stateMutability": "nonpayable",
      "type": "function"
    },
    {
      "inputs": [
        {
          "internalType": "address",
          "name": "from",
          "type": "address"
        },
        {
          "internalType": "address",
          "name": "to",
          "type": "address"
        },
        {
          "internalType": "uint256",
          "name": "id",
          "type": "uint256"
        },
        {
          "internalType": "uint256",
          "name": "amount",
          "type": "uint256"
        },
        {
          "internalType": "bytes",
          "name": "data",
          "type": "bytes"
        }
      ],
      "name": "safeTransferFrom",
      "outputs": [],
      "stateMutability": "nonpayable",
      "type": "function"
    },
    {
      "inputs": [
        {
          "internalType": "address",
          "name": "operator",
          "type": "address"
        },
        {
          "internalType": "bool",
          "name": "approved",
          "type": "bool"
        }
      ],
      "name": "setApprovalForAll",
      "outputs": [],
      "stateMutability": "nonpayable",
      "type": "function"
    },
    {
      "inputs": [
        {
          "internalType": "bytes4",
          "name": "interfaceId",
          "type": "bytes4"
        }
      ],
      "name": "supportsInterface",
      "outputs": [
        {
          "internalType": "bool",
          "name": "",
          "type": "bool"
        }
      ],
      "stateMutability": "view",
      "type": "function"
    },
    {
      "inputs": [],
      "name": "symbol",
      "outputs": [
        {
          "internalType": "string",
          "name": "",
          "type": "string"
        }
      ],
      "stateMutability": "view",
      "type": "function"
    },
    {
      "inputs": [
        {
          "components": [
            {
              "internalType": "uint256",
              "name": "tokenId",
              "type": "uint256"
            },
            {
              "internalType": "string",
              "name": "uri",
              "type": "string"
            },
            {
              "internalType": "uint256",
              "name": "supply",
              "type": "uint256"
            },
            {
              "components": [
                {
                  "internalType": "address payable",
                  "name": "account",
                  "type": "address"
                },
                {
                  "internalType": "uint96",
                  "name": "value",
                  "type": "uint96"
                }
              ],
              "internalType": "struct LibPart.Part[]",
              "name": "creators",
              "type": "tuple[]"
            },
            {
              "components": [
                {
                  "internalType": "address payable",
                  "name": "account",
                  "type": "address"
                },
                {
                  "internalType": "uint96",
                  "name": "value",
                  "type": "uint96"
                }
              ],
              "internalType": "struct LibPart.Part[]",
              "name": "royalties",
              "type": "tuple[]"
            },
            {
              "internalType": "bytes[]",
              "name": "signatures",
              "type": "bytes[]"
            }
          ],
          "internalType": "struct LibERC1155LazyMint.Mint1155Data",
          "name": "data",
          "type": "tuple"
        },
        {
          "internalType": "address",
          "name": "from",
          "type": "address"
        },
        {
          "internalType": "address",
          "name": "to",
          "type": "address"
        },
        {
          "internalType": "uint256",
          "name": "amount",
          "type": "uint256"
        }
      ],
      "name": "transferFromOrMint",
      "outputs": [],
      "stateMutability": "nonpayable",
      "type": "function"
    },
    {
      "inputs": [
        {
          "internalType": "address",
          "name": "newOwner",
          "type": "address"
        }
      ],
      "name": "transferOwnership",
      "outputs": [],
      "stateMutability": "nonpayable",
      "type": "function"
    },
    {
      "inputs": [
        {
          "internalType": "string",
          "name": "_name",
          "type": "string"
        },
        {
          "internalType": "string",
          "name": "_symbol",
          "type": "string"
        },
        {
          "internalType": "string",
          "name": "baseURI",
          "type": "string"
        },
        {
          "internalType": "string",
          "name": "contractURI",
          "type": "string"
        },
        {
          "internalType": "address[]",
          "name": "operators",
          "type": "address[]"
        }
      ],
      "name": "__ERC1155RaribleUser_init",
      "outputs": [],
      "stateMutability": "nonpayable",
      "type": "function"
    },
    {
      "inputs": [
        {
          "internalType": "uint256",
          "name": "tokenId",
          "type": "uint256"
        }
      ],
      "name": "uri",
      "outputs": [
        {
          "internalType": "string",
          "name": "",
          "type": "string"
        }
      ],
      "stateMutability": "view",
      "type": "function"
    },
    {
      "inputs": [
        {
          "components": [
            {
              "internalType": "uint256",
              "name": "tokenId",
              "type": "uint256"
            },
            {
              "internalType": "string",
              "name": "uri",
              "type": "string"
            },
            {
              "internalType": "uint256",
              "name": "supply",
              "type": "uint256"
            },
            {
              "components": [
                {
                  "internalType": "address payable",
                  "name": "account",
                  "type": "address"
                },
                {
                  "internalType": "uint96",
                  "name": "value",
                  "type": "uint96"
                }
              ],
              "internalType": "struct LibPart.Part[]",
              "name": "creators",
              "type": "tuple[]"
            },
            {
              "components": [
                {
                  "internalType": "address payable",
                  "name": "account",
                  "type": "address"
                },
                {
                  "internalType": "uint96",
                  "name": "value",
                  "type": "uint96"
                }
              ],
              "internalType": "struct LibPart.Part[]",
              "name": "royalties",
              "type": "tuple[]"
            },
            {
              "internalType": "bytes[]",
              "name": "signatures",
              "type": "bytes[]"
            }
          ],
          "internalType": "struct LibERC1155LazyMint.Mint1155Data",
          "name": "data",
          "type": "tuple"
        },
        {
          "internalType": "address",
          "name": "to",
          "type": "address"
        },
        {
          "internalType": "uint256",
          "name": "_amount",
          "type": "uint256"
        }
      ],
      "name": "mintAndTransfer",
      "outputs": [],
      "stateMutability": "nonpayable",
      "type": "function"
    }
  ],
  "bytecode": "0x608060405234801561001057600080fd5b5061465e806100206000396000f3fe608060405234801561001057600080fd5b50600436106101575760003560e01c80638924af74116100c3578063e8a3d4851161007c578063e8a3d485146102e2578063e985e9c5146102ea578063f242432a146102fd578063f2fde38b14610310578063f5298aca14610323578063ffc4e0a71461033657610157565b80638924af741461026b5780638da5cb5b1461028c57806395d89b41146102a157806398d0b4fb146102a9578063a22cb465146102bc578063bb3bafd6146102cf57610157565b80634e1273f4116101155780634e1273f4146101f5578063650e5ad7146102155780636b20c454146102285780636c0360eb1461023b578063715018a614610243578063891be9741461024b57610157565b8062fdd58e1461015c57806301ffc9a71461018557806306fdde03146101a55780630e89341c146101ba5780630eaead67146101cd5780632eb2c2d6146101e2575b600080fd5b61016f61016a366004613c97565b610349565b60405161017c9190614209565b60405180910390f35b610198610193366004613d56565b6103b8565b60405161017c9190614098565b6101ad6103db565b60405161017c91906140a3565b6101ad6101c8366004613efa565b61046a565b6101e06101db366004613ea3565b61047b565b005b6101e06101f0366004613ae5565b6104e8565b610208610203366004613cf6565b6107e6565b60405161017c9190614054565b6101e0610223366004613d7e565b6108d1565b6101e0610236366004613bf4565b610a58565b6101ad610acc565b6101e0610b63565b61025e610259366004613efa565b610c21565b60405161017c9190614041565b61027e610279366004613f12565b610cb1565b60405161017c92919061401f565b610294610cfb565b60405161017c9190613fd5565b6101ad610d0a565b61027e6102b7366004613f12565b610d66565b6101e06102ca366004613c66565b610d83565b61025e6102dd366004613efa565b610e72565b6101ad610eed565b6101986102f8366004613aad565b610f49565b6101e061030b366004613b8e565b610f77565b6101e061031e366004613a91565b611142565b6101e0610331366004613cc2565b611257565b6101e0610344366004613e3c565b6112cb565b60006001600160a01b0383166103905760405162461bcd60e51b815260040180806020018281038252602b8152602001806143da602b913960400191505060405180910390fd5b5060009081526097602090815260408083206001600160a01b03949094168352929052205490565b6001600160e01b0319811660009081526065602052604090205460ff165b919050565b61022f805460408051602060026001851615610100026000190190941693909304601f810184900484028201840190925281815292918301828280156104625780601f1061043757610100808354040283529160200191610462565b820191906000526020600020905b81548152906001019060200180831161044557829003601f168201915b505050505081565b606061047582611326565b92915050565b826060015160008151811061048c57fe5b6020026020010151600001516001600160a01b03166104a9610cfb565b6001600160a01b0316146104d85760405162461bcd60e51b81526004016104cf906140b6565b60405180910390fd5b6104e3838383611562565b505050565b81518351146105285760405162461bcd60e51b81526004018080602001828103825260288152602001806145e06028913960400191505060405180910390fd5b6001600160a01b03841661056d5760405162461bcd60e51b815260040180806020018281038252602581526020018061449a6025913960400191505060405180910390fd5b610575611771565b6001600160a01b0316856001600160a01b0316148061059b575061059b856102f8611771565b6105d65760405162461bcd60e51b81526004018080602001828103825260328152602001806144bf6032913960400191505060405180910390fd5b60006105e0611771565b90506105f08187878787876107de565b60005b84518110156106f657600085828151811061060a57fe5b60200260200101519050600085838151811061062257fe5b6020026020010151905061068f816040518060600160405280602a8152602001614564602a91396097600086815260200190815260200160002060008d6001600160a01b03166001600160a01b03168152602001908152602001600020546117759092919063ffffffff16565b60008381526097602090815260408083206001600160a01b038e811685529252808320939093558a16815220546106c6908261180c565b60009283526097602090815260408085206001600160a01b038c16865290915290922091909155506001016105f3565b50846001600160a01b0316866001600160a01b0316826001600160a01b03167f4a39dc06d4c0dbc64b70af90fd698a233a518aa5d07e595d983b8c0526c8f7fb8787604051808060200180602001838103835285818151815260200191508051906020019060200280838360005b8381101561077c578181015183820152602001610764565b50505050905001838103825284818151815260200191508051906020019060200280838360005b838110156107bb5781810151838201526020016107a3565b5050505090500194505050505060405180910390a46107de81878787878761186d565b505050505050565b606081518351146108285760405162461bcd60e51b81526004018080602001828103825260298152602001806145b76029913960400191505060405180910390fd5b600083516001600160401b038111801561084157600080fd5b5060405190808252806020026020018201604052801561086b578160200160208202803683370190505b50905060005b84518110156108c9576108aa85828151811061088957fe5b602002602001015185838151811061089d57fe5b6020026020010151610349565b8282815181106108b657fe5b6020908102919091010152600101610871565b509392505050565b600054610100900460ff16806108ea57506108ea611aec565b806108f8575060005460ff16155b6109335760405162461bcd60e51b815260040180806020018281038252602e8152602001806144f1602e913960400191505060405180910390fd5b600054610100900460ff1615801561095e576000805460ff1961ff0019909116610100171660011790555b610966611afd565b61096e611bf7565b610976611ca8565b61097e611d45565b610986611de5565b61099e60405180602001604052806000815250611eb5565b6109a783611f81565b6109af611d45565b6109b7612033565b6109c186866120d0565b6109ca8461219d565b60005b82518110156109fc576109f48382815181106109e557fe5b60200260200101516001610d83565b6001016109cd565b507f7da6bc204c8c4856a6aff786a6cb81c59477c782191dc51837d644a8ad50f2cc610a26611771565b8787604051610a3793929190613fe9565b60405180910390a180156107de576000805461ff0019169055505050505050565b610a60611771565b6001600160a01b0316836001600160a01b03161480610a865750610a86836102f8611771565b610ac15760405162461bcd60e51b815260040180806020018281038252602981526020018061444f6029913960400191505060405180910390fd5b6104e38383836121b0565b60fc8054604080516020601f6002600019610100600188161502019095169490940493840181900481028201810190925282815260609390929091830182828015610b585780601f10610b2d57610100808354040283529160200191610b58565b820191906000526020600020905b815481529060010190602001808311610b3b57829003601f168201915b505050505090505b90565b610b6b611771565b6001600160a01b0316610b7c610cfb565b6001600160a01b031614610bd7576040805162461bcd60e51b815260206004820181905260248201527f4f776e61626c653a2063616c6c6572206973206e6f7420746865206f776e6572604482015290519081900360640190fd5b6033546040516000916001600160a01b0316907f8be0079c531659141344cd1fd0a4f28419497f9722a3daafe3b4186f6b6457e0908390a3603380546001600160a01b0319169055565b60606101c86000838152602001908152602001600020805480602002602001604051908101604052809291908181526020016000905b82821015610ca657600084815260209081902060408051808201909152908401546001600160a01b0381168252600160a01b90046001600160601b031681830152825260019092019101610c57565b505050509050919050565b6101c76020528160005260406000208181548110610cce57600080fd5b6000918252602090912001546001600160a01b0381169250600160a01b90046001600160601b0316905082565b6033546001600160a01b031690565b610230805460408051602060026001851615610100026000190190941693909304601f810184900484028201840190925281815292918301828280156104625780601f1061043757610100808354040283529160200191610462565b6101c86020528160005260406000208181548110610cce57600080fd5b816001600160a01b0316610d95611771565b6001600160a01b03161415610ddb5760405162461bcd60e51b815260040180806020018281038252602981526020018061458e6029913960400191505060405180910390fd5b8060986000610de8611771565b6001600160a01b03908116825260208083019390935260409182016000908120918716808252919093529120805460ff191692151592909217909155610e2c611771565b6001600160a01b03167f17307eab39ab6107e8899845ad3d59bd9653f200f220920489ca2b5937696c318360405180821515815260200191505060405180910390a35050565b60008181526101c760209081526040808320805482518185028101850190935280835260609492939192909184018215610ca657600084815260209081902060408051808201909152908401546001600160a01b0381168252600160a01b90046001600160601b031681830152825260019092019101610c57565b6101fd805460408051602060026001851615610100026000190190941693909304601f810184900484028201840190925281815292918301828280156104625780601f1061043757610100808354040283529160200191610462565b6001600160a01b03918216600090815260986020908152604080832093909416825291909152205460ff1690565b6001600160a01b038416610fbc5760405162461bcd60e51b815260040180806020018281038252602581526020018061449a6025913960400191505060405180910390fd5b610fc4611771565b6001600160a01b0316856001600160a01b03161480610fea5750610fea856102f8611771565b6110255760405162461bcd60e51b815260040180806020018281038252602981526020018061444f6029913960400191505060405180910390fd5b600061102f611771565b905061104f8187876110408861241e565b6110498861241e565b876107de565b611096836040518060600160405280602a8152602001614564602a913960008781526097602090815260408083206001600160a01b038d1684529091529020549190611775565b60008581526097602090815260408083206001600160a01b038b811685529252808320939093558716815220546110cd908461180c565b60008581526097602090815260408083206001600160a01b03808b168086529184529382902094909455805188815291820187905280518a8416938616927fc3d58168c5ae7397731d063d5bbf3d657854427343f4c083240f7aacaa2d0f6292908290030190a46107de818787878787612463565b61114a611771565b6001600160a01b031661115b610cfb565b6001600160a01b0316146111b6576040805162461bcd60e51b815260206004820181905260248201527f4f776e61626c653a2063616c6c6572206973206e6f7420746865206f776e6572604482015290519081900360640190fd5b6001600160a01b0381166111fb5760405162461bcd60e51b81526004018080602001828103825260268152602001806144056026913960400191505060405180910390fd5b6033546040516001600160a01b038084169216907f8be0079c531659141344cd1fd0a4f28419497f9722a3daafe3b4186f6b6457e090600090a3603380546001600160a01b0319166001600160a01b0392909216919091179055565b61125f611771565b6001600160a01b0316836001600160a01b031614806112855750611285836102f8611771565b6112c05760405162461bcd60e51b815260040180806020018281038252602981526020018061444f6029913960400191505060405180910390fd5b6104e38383836125d4565b60006112db848660000151610349565b90508181156113155782808310156112f05750815b611310868689600001518460405180602001604052806000815250610f77565b830390505b80156107de576107de86858361047b565b600081815260fb6020908152604080832080548251601f60026000196101006001861615020190931692909204918201859004850281018501909352808352606094938301828280156113ba5780601f1061138f576101008083540402835291602001916113ba565b820191906000526020600020905b81548152906001019060200180831161139d57829003601f168201915b5050505050905060006113cb610acc565b90508051600014156113df575090506103d6565b8151156114a05780826040516020018083805190602001908083835b6020831061141a5780518252601f1990920191602091820191016113fb565b51815160209384036101000a600019018019909216911617905285519190930192850191508083835b602083106114625780518252601f199092019160209182019101611443565b6001836020036101000a03801982511681845116808217855250505050505090500192505050604051602081830303815290604052925050506103d6565b806114aa85612707565b6040516020018083805190602001908083835b602083106114dc5780518252601f1990920191602091820191016114bd565b51815160209384036101000a600019018019909216911617905285519190930192850191508083835b602083106115245780518252601f199092019160209182019101611505565b6001836020036101000a0380198251168184511680821785525050505050509050019250505060405160208183030381529060405292505050919050565b825160601c6000611571611771565b9050846060015160008151811061158457fe5b6020026020010151600001516001600160a01b0316826001600160a01b0316146115c05760405162461bcd60e51b81526004016104cf90614117565b8460a0015151856060015151146115d657600080fd5b806001600160a01b0316826001600160a01b031614806115fb57506115fb8282610f49565b6116175760405162461bcd60e51b81526004016104cf9061416c565b600085604001511161163b5760405162461bcd60e51b81526004016104cf906140ed565b6000831161165b5760405162461bcd60e51b81526004016104cf90614142565b6000856020015151116116805760405162461bcd60e51b81526004016104cf906141de565b845160009081526101c960205260409020546117025760005b8560600151518110156116b9576116b18287836127e1565b600101611699565b506116cc85600001518660400151612865565b6116de856000015186608001516128cf565b6116f085600001518660600151612a55565b61170285600001518660200151612b18565b6117218486600001518560405180602001604052806000815250612bdb565b7f851c5980a7b8fcd5bf7ddb5b7283750bd2166e89ba570778f92867d15eb4a645856000015186602001518760600151866040516117629493929190614233565b60405180910390a15050505050565b3390565b600081848411156118045760405162461bcd60e51b81526004018080602001828103825283818151815260200191508051906020019080838360005b838110156117c95781810151838201526020016117b1565b50505050905090810190601f1680156117f65780820380516001836020036101000a031916815260200191505b509250505060405180910390fd5b505050900390565b600082820183811015611866576040805162461bcd60e51b815260206004820152601b60248201527f536166654d6174683a206164646974696f6e206f766572666c6f770000000000604482015290519081900360640190fd5b9392505050565b61187f846001600160a01b0316612be7565b156107de57836001600160a01b031663bc197c8187878686866040518663ffffffff1660e01b815260040180866001600160a01b03168152602001856001600160a01b03168152602001806020018060200180602001848103845287818151815260200191508051906020019060200280838360005b8381101561190d5781810151838201526020016118f5565b50505050905001848103835286818151815260200191508051906020019060200280838360005b8381101561194c578181015183820152602001611934565b50505050905001848103825285818151815260200191508051906020019080838360005b83811015611988578181015183820152602001611970565b50505050905090810190601f1680156119b55780820380516001836020036101000a031916815260200191505b5098505050505050505050602060405180830381600087803b1580156119da57600080fd5b505af19250505080156119ff57506040513d60208110156119fa57600080fd5b505160015b611a9457611a0b6142c4565b80611a165750611a5d565b60405162461bcd60e51b81526020600482018181528351602484015283518493919283926044019190850190808383600083156117c95781810151838201526020016117b1565b60405162461bcd60e51b815260040180806020018281038252603481526020018061437e6034913960400191505060405180910390fd5b6001600160e01b0319811663bc197c8160e01b14611ae35760405162461bcd60e51b81526004018080602001828103825260288152602001806143b26028913960400191505060405180910390fd5b50505050505050565b6000611af730612be7565b15905090565b600054610100900460ff1680611b165750611b16611aec565b80611b24575060005460ff16155b611b5f5760405162461bcd60e51b815260040180806020018281038252602e8152602001806144f1602e913960400191505060405180910390fd5b600054610100900460ff16158015611b8a576000805460ff1961ff0019909116610100171660011790555b6000611b94611771565b603380546001600160a01b0319166001600160a01b038316908117909155604051919250906000907f8be0079c531659141344cd1fd0a4f28419497f9722a3daafe3b4186f6b6457e0908290a3508015611bf4576000805461ff00191690555b50565b600054610100900460ff1680611c105750611c10611aec565b80611c1e575060005460ff16155b611c595760405162461bcd60e51b815260040180806020018281038252602e8152602001806144f1602e913960400191505060405180910390fd5b600054610100900460ff16158015611c84576000805460ff1961ff0019909116610100171660011790555b611c94636db15a0f60e01b612bed565b8015611bf4576000805461ff001916905550565b600054610100900460ff1680611cc15750611cc1611aec565b80611ccf575060005460ff16155b611d0a5760405162461bcd60e51b815260040180806020018281038252602e8152602001806144f1602e913960400191505060405180910390fd5b600054610100900460ff16158015611d35576000805460ff1961ff0019909116610100171660011790555b611c946301ffc9a760e01b612bed565b600054610100900460ff1680611d5e5750611d5e611aec565b80611d6c575060005460ff16155b611da75760405162461bcd60e51b815260040180806020018281038252602e8152602001806144f1602e913960400191505060405180910390fd5b600054610100900460ff16158015611c94576000805460ff1961ff0019909116610100171660011790558015611bf4576000805461ff001916905550565b600054610100900460ff1680611dfe5750611dfe611aec565b80611e0c575060005460ff16155b611e475760405162461bcd60e51b815260040180806020018281038252602e8152602001806144f1602e913960400191505060405180910390fd5b600054610100900460ff16158015611e72576000805460ff1961ff0019909116610100171660011790555b611c94604051806040016040528060088152602001674d696e743131353560c01b815250604051806040016040528060018152602001603160f81b815250612c71565b600054610100900460ff1680611ece5750611ece611aec565b80611edc575060005460ff16155b611f175760405162461bcd60e51b815260040180806020018281038252602e8152602001806144f1602e913960400191505060405180910390fd5b600054610100900460ff16158015611f42576000805460ff1961ff0019909116610100171660011790555b611f4b82612d33565b611f5b636cdb3d1360e11b612bed565b611f6b6303a24d0760e21b612bed565b8015611f7d576000805461ff00191690555b5050565b600054610100900460ff1680611f9a5750611f9a611aec565b80611fa8575060005460ff16155b611fe35760405162461bcd60e51b815260040180806020018281038252602e8152602001806144f1602e913960400191505060405180910390fd5b600054610100900460ff1615801561200e576000805460ff1961ff0019909116610100171660011790555b8151612022906101fd9060208501906136e0565b50611f6b63e8a3d48560e01b612bed565b600054610100900460ff168061204c575061204c611aec565b8061205a575060005460ff16155b6120955760405162461bcd60e51b815260040180806020018281038252602e8152602001806144f1602e913960400191505060405180910390fd5b600054610100900460ff161580156120c0576000805460ff1961ff0019909116610100171660011790555b611c94631131d2f360e21b612bed565b600054610100900460ff16806120e957506120e9611aec565b806120f7575060005460ff16155b6121325760405162461bcd60e51b815260040180806020018281038252602e8152602001806144f1602e913960400191505060405180910390fd5b600054610100900460ff1615801561215d576000805460ff1961ff0019909116610100171660011790555b82516121719061022f9060208601906136e0565b508151612186906102309060208501906136e0565b5080156104e3576000805461ff0019169055505050565b8051611f7d9060fc9060208401906136e0565b6001600160a01b0383166121f55760405162461bcd60e51b81526004018080602001828103825260238152602001806145416023913960400191505060405180910390fd5b80518251146122355760405162461bcd60e51b81526004018080602001828103825260288152602001806145e06028913960400191505060405180910390fd5b600061223f611771565b905061225f818560008686604051806020016040528060008152506107de565b60005b835181101561233d576122f483828151811061227a57fe5b602002602001015160405180606001604052806024815260200161442b60249139609760008886815181106122ab57fe5b602002602001015181526020019081526020016000206000896001600160a01b03166001600160a01b03168152602001908152602001600020546117759092919063ffffffff16565b6097600086848151811061230457fe5b602090810291909101810151825281810192909252604090810160009081206001600160a01b038a168252909252902055600101612262565b5060006001600160a01b0316846001600160a01b0316826001600160a01b03167f4a39dc06d4c0dbc64b70af90fd698a233a518aa5d07e595d983b8c0526c8f7fb8686604051808060200180602001838103835285818151815260200191508051906020019060200280838360005b838110156123c45781810151838201526020016123ac565b50505050905001838103825284818151815260200191508051906020019060200280838360005b838110156124035781810151838201526020016123eb565b5050505090500194505050505060405180910390a450505050565b6040805160018082528183019092526060916000919060208083019080368337019050509050828160008151811061245257fe5b602090810291909101015292915050565b612475846001600160a01b0316612be7565b156107de57836001600160a01b031663f23a6e6187878686866040518663ffffffff1660e01b815260040180866001600160a01b03168152602001856001600160a01b0316815260200184815260200183815260200180602001828103825283818151815260200191508051906020019080838360005b838110156125045781810151838201526020016124ec565b50505050905090810190601f1680156125315780820380516001836020036101000a031916815260200191505b509650505050505050602060405180830381600087803b15801561255457600080fd5b505af192505050801561257957506040513d602081101561257457600080fd5b505160015b61258557611a0b6142c4565b6001600160e01b0319811663f23a6e6160e01b14611ae35760405162461bcd60e51b81526004018080602001828103825260288152602001806143b26028913960400191505060405180910390fd5b6001600160a01b0383166126195760405162461bcd60e51b81526004018080602001828103825260238152602001806145416023913960400191505060405180910390fd5b6000612623611771565b9050612653818560006126358761241e565b61263e8761241e565b604051806020016040528060008152506107de565b61269a8260405180606001604052806024815260200161442b6024913960008681526097602090815260408083206001600160a01b038b1684529091529020549190611775565b60008481526097602090815260408083206001600160a01b03808a16808652918452828520959095558151888152928301879052815193949093908616927fc3d58168c5ae7397731d063d5bbf3d657854427343f4c083240f7aacaa2d0f6292908290030190a450505050565b60608161272c57506040805180820190915260018152600360fc1b60208201526103d6565b8160005b811561274457600101600a82049150612730565b6000816001600160401b038111801561275c57600080fd5b506040519080825280601f01601f191660200182016040528015612787576020820181803683370190505b50859350905060001982015b83156127d857600a840660300160f81b828280600190039350815181106127b657fe5b60200101906001600160f81b031916908160001a905350600a84049350612793565b50949350505050565b6000826060015182815181106127f357fe5b6020026020010151600001519050806001600160a01b0316846001600160a01b03161461285f5761285f8360600151838151811061282d57fe5b60200260200101516000015161284285612d46565b8560a00151858151811061285257fe5b6020026020010151612f99565b50505050565b60008281526101c960205260409020541561287f57600080fd5b60008281526101c9602052604090819020829055517f5e2aa66efd74cce82b21852e317e5490d9ecc9e6bb953ae24d90851258cc2f5c906128c39084908490614270565b60405180910390a15050565b60005b8151811015612a4a5760006001600160a01b03168282815181106128f257fe5b6020026020010151600001516001600160a01b0316141561295a576040805162461bcd60e51b815260206004820152601b60248201527f526563697069656e742073686f756c642062652070726573656e740000000000604482015290519081900360640190fd5b81818151811061296657fe5b6020026020010151602001516001600160601b0316600014156129d0576040805162461bcd60e51b815260206004820181905260248201527f526f79616c74792076616c75652073686f756c6420626520706f736974697665604482015290519081900360640190fd5b60008381526101c76020526040902082518390839081106129ed57fe5b60209081029190910181015182546001818101855560009485529383902082519101805492909301516001600160601b0316600160a01b026001600160a01b039182166001600160a01b03199093169290921716179055016128d2565b50611f7d82826131d8565b60008281526101c860205260408120905b8251811015612ad95781838281518110612a7c57fe5b60209081029190910181015182546001818101855560009485529383902082519101805492909301516001600160601b0316600160a01b026001600160a01b039182166001600160a01b0319909316929092171617905501612a66565b507f841ffb90d4cabdd1f16034f3fa831d79060febbb8167bdd54a49269365bdf78f8383604051612b0b929190614212565b60405180910390a1505050565b600082815260fb602090815260409091208251612b37928401906136e0565b50817f6bb7ff708619ba0610cba295a58592e0451dee2622938c8755667688daf3529b612b6384611326565b6040805160208082528351818301528351919283929083019185019080838360005b83811015612b9d578181015183820152602001612b85565b50505050905090810190601f168015612bca5780820380516001836020036101000a031916815260200191505b509250505060405180910390a25050565b61285f84848484613209565b3b151590565b6001600160e01b03198082161415612c4c576040805162461bcd60e51b815260206004820152601c60248201527f4552433136353a20696e76616c696420696e7465726661636520696400000000604482015290519081900360640190fd5b6001600160e01b0319166000908152606560205260409020805460ff19166001179055565b600054610100900460ff1680612c8a5750612c8a611aec565b80612c98575060005460ff16155b612cd35760405162461bcd60e51b815260040180806020018281038252602e8152602001806144f1602e913960400191505060405180910390fd5b600054610100900460ff16158015612cfe576000805460ff1961ff0019909116610100171660011790555b825160208085019190912083519184019190912061012f919091556101305580156104e3576000805461ff0019169055505050565b8051611f7d9060999060208401906136e0565b6000808260800151516001600160401b0381118015612d6457600080fd5b50604051908082528060200260200182016040528015612d8e578160200160208202803683370190505b50905060005b836080015151811015612de057612dc184608001518281518110612db457fe5b6020026020010151613274565b828281518110612dcd57fe5b6020908102919091010152600101612d94565b5060008360600151516001600160401b0381118015612dfe57600080fd5b50604051908082528060200260200182016040528015612e28578160200160208202803683370190505b50905060005b846060015151811015612e6d57612e4e85606001518281518110612db457fe5b828281518110612e5a57fe5b6020908102919091010152600101612e2e565b507ffb988707ebb338694f318760b0fd5cfe756d00a2ade251fda110b80c336a3c7f846000015185604001518660200151805190602001208460405160200180828051906020019060200280838360005b83811015612ed6578181015183820152602001612ebe565b50505050905001915050604051602081830303815290604052805190602001208660405160200180828051906020019060200280838360005b83811015612f27578181015183820152602001612f0f565b50505050905001915050604051602081830303815290604052805190602001206040516020018087815260200186815260200185815260200184815260200183815260200182815260200196505050505050506040516020818303038152906040528051906020012092505050919050565b6000612fa4836132e1565b9050612fb8846001600160a01b0316612be7565b156131315760408051630b135d3f60e11b808252600482018481526024830193845285516044840152855191936001600160a01b03891693631626ba7e938793899390929091606490910190602085019080838360005b8381101561302757818101518382015260200161300f565b50505050905090810190601f1680156130545780820380516001836020036101000a031916815260200191505b50935050505060206040518083038186803b15801561307257600080fd5b505afa158015613086573d6000803e3d6000fd5b505050506040513d602081101561309c57600080fd5b505160408051808201909152601c81527f7369676e617475726520766572696669636174696f6e206572726f72000000006020820152916001600160e01b03199091161461312b5760405162461bcd60e51b81526020600482018181528351602484015283519092839260449091019190850190808383600083156117c95781810151838201526020016117b1565b5061285f565b6001600160a01b038416613145828461332d565b6001600160a01b0316146040518060400160405280601c81526020017f7369676e617475726520766572696669636174696f6e206572726f7200000000815250906131d15760405162461bcd60e51b81526020600482018181528351602484015283519092839260449091019190850190808383600083156117c95781810151838201526020016117b1565b5050505050565b7f3fa96d7b6bcbfe71ef171666d84db3cf52fa2d1c8afdb1cc8e486177f208b7df82826040516128c3929190614212565b60008381526101ca602052604081205461322490849061180c565b60008581526101c960205260409020549091508111156132565760405162461bcd60e51b81526004016104cf906141b4565b60008481526101ca602052604090208190556131d1858585856133ad565b8051602091820151604080517f397e04204c1e1a60ee8724b71f8244e10ab5f2e9009854d80f602bda21b59ebb818601526001600160a01b03909316838201526001600160601b039091166060808401919091528151808403909101815260809092019052805191012090565b60006132eb6134ae565b82604051602001808061190160f01b81525060020183815260200182815260200192505050604051602081830303815290604052805190602001209050919050565b60008151604114613385576040805162461bcd60e51b815260206004820152601f60248201527f45434453413a20696e76616c6964207369676e6174757265206c656e67746800604482015290519081900360640190fd5b60208201516040830151606084015160001a6133a3868285856134ee565b9695505050505050565b6001600160a01b0384166133f25760405162461bcd60e51b81526004018080602001828103825260218152602001806146086021913960400191505060405180910390fd5b60006133fc611771565b905061340e816000876110408861241e565b60008481526097602090815260408083206001600160a01b038916845290915290205461343b908461180c565b60008581526097602090815260408083206001600160a01b03808b16808652918452828520959095558151898152928301889052815190948616927fc3d58168c5ae7397731d063d5bbf3d657854427343f4c083240f7aacaa2d0f6292908290030190a46131d181600087878787612463565b60006134e97f8b73c3c69bb8fe3d512ecc4cf759cc79239f7b179b0ffacaa9a75d522b39400f6134dc61366c565b6134e4613673565b61367a565b905090565b60007f7fffffffffffffffffffffffffffffff5d576e7357a4501ddfe92f46681b20a082111561354f5760405162461bcd60e51b81526004018080602001828103825260228152602001806144786022913960400191505060405180910390fd5b8360ff16601b148061356457508360ff16601c145b61359f5760405162461bcd60e51b815260040180806020018281038252602281526020018061451f6022913960400191505060405180910390fd5b600060018686868660405160008152602001604052604051808581526020018460ff1681526020018381526020018281526020019450505050506020604051602081039080840390855afa1580156135fb573d6000803e3d6000fd5b5050604051601f1901519150506001600160a01b038116613663576040805162461bcd60e51b815260206004820152601860248201527f45434453413a20696e76616c6964207369676e61747572650000000000000000604482015290519081900360640190fd5b95945050505050565b61012f5490565b6101305490565b60008383836136876136dc565b3060405160200180868152602001858152602001848152602001838152602001826001600160a01b03168152602001955050505050506040516020818303038152906040528051906020012090509392505050565b4690565b828054600181600116156101000203166002900490600052602060002090601f016020900481019282613716576000855561375c565b82601f1061372f57805160ff191683800117855561375c565b8280016001018555821561375c579182015b8281111561375c578251825591602001919060010190613741565b5061376892915061376c565b5090565b5b80821115613768576000815560010161376d565b600082601f830112613791578081fd5b813560206137a66137a1836142a1565b61427e565b82815281810190858301838502870184018810156137c2578586fd5b855b858110156137e95781356137d781614368565b845292840192908401906001016137c4565b5090979650505050505050565b600082601f830112613806578081fd5b813560206138166137a1836142a1565b82815281810190858301855b858110156137e957613839898684358b0101613960565b84529284019290840190600101613822565b600082601f83011261385b578081fd5b8135602061386b6137a1836142a1565b82815281810190858301604080860288018501891015613889578687fd5b865b868110156138f85781838b0312156138a1578788fd5b81518281018181106001600160401b03821117156138bb57fe5b835283356138c881614368565b8152838701356001600160601b03811681146138e257898afd5b818801528552938501939181019160010161388b565b509198975050505050505050565b600082601f830112613916578081fd5b813560206139266137a1836142a1565b8281528181019085830183850287018401881015613942578586fd5b855b858110156137e957813584529284019290840190600101613944565b600082601f830112613970578081fd5b81356001600160401b0381111561398357fe5b613996601f8201601f191660200161427e565b8181528460208386010111156139aa578283fd5b816020850160208301379081016020019190915292915050565b600060c082840312156139d5578081fd5b6139df60c061427e565b90508135815260208201356001600160401b03808211156139ff57600080fd5b613a0b85838601613960565b6020840152604084013560408401526060840135915080821115613a2e57600080fd5b613a3a8583860161384b565b60608401526080840135915080821115613a5357600080fd5b613a5f8583860161384b565b608084015260a0840135915080821115613a7857600080fd5b50613a85848285016137f6565b60a08301525092915050565b600060208284031215613aa2578081fd5b813561186681614368565b60008060408385031215613abf578081fd5b8235613aca81614368565b91506020830135613ada81614368565b809150509250929050565b600080600080600060a08688031215613afc578081fd5b8535613b0781614368565b94506020860135613b1781614368565b935060408601356001600160401b0380821115613b32578283fd5b613b3e89838a01613906565b94506060880135915080821115613b53578283fd5b613b5f89838a01613906565b93506080880135915080821115613b74578283fd5b50613b8188828901613960565b9150509295509295909350565b600080600080600060a08688031215613ba5578283fd5b8535613bb081614368565b94506020860135613bc081614368565b9350604086013592506060860135915060808601356001600160401b03811115613be8578182fd5b613b8188828901613960565b600080600060608486031215613c08578081fd5b8335613c1381614368565b925060208401356001600160401b0380821115613c2e578283fd5b613c3a87838801613906565b93506040860135915080821115613c4f578283fd5b50613c5c86828701613906565b9150509250925092565b60008060408385031215613c78578182fd5b8235613c8381614368565b915060208301358015158114613ada578182fd5b60008060408385031215613ca9578182fd5b8235613cb481614368565b946020939093013593505050565b600080600060608486031215613cd6578081fd5b8335613ce181614368565b95602085013595506040909401359392505050565b60008060408385031215613d08578182fd5b82356001600160401b0380821115613d1e578384fd5b613d2a86838701613781565b93506020850135915080821115613d3f578283fd5b50613d4c85828601613906565b9150509250929050565b600060208284031215613d67578081fd5b81356001600160e01b031981168114611866578182fd5b600080600080600060a08688031215613d95578283fd5b85356001600160401b0380821115613dab578485fd5b613db789838a01613960565b96506020880135915080821115613dcc578485fd5b613dd889838a01613960565b95506040880135915080821115613ded578485fd5b613df989838a01613960565b94506060880135915080821115613e0e578283fd5b613e1a89838a01613960565b93506080880135915080821115613e2f578283fd5b50613b8188828901613781565b60008060008060808587031215613e51578182fd5b84356001600160401b03811115613e66578283fd5b613e72878288016139c4565b9450506020850135613e8381614368565b92506040850135613e9381614368565b9396929550929360600135925050565b600080600060608486031215613eb7578081fd5b83356001600160401b03811115613ecc578182fd5b613ed8868287016139c4565b9350506020840135613ee981614368565b929592945050506040919091013590565b600060208284031215613f0b578081fd5b5035919050565b60008060408385031215613f24578182fd5b50508035926020909101359150565b6000815180845260208085019450808401835b83811015613f7f57815180516001600160a01b031688528301516001600160601b03168388015260409096019590820190600101613f46565b509495945050505050565b60008151808452815b81811015613faf57602081850181015186830182015201613f93565b81811115613fc05782602083870101525b50601f01601f19169290920160200192915050565b6001600160a01b0391909116815260200190565b6001600160a01b038416815260606020820181905260009061400d90830185613f8a565b82810360408401526133a38185613f8a565b6001600160a01b039290921682526001600160601b0316602082015260400190565b6000602082526118666020830184613f33565b6020808252825182820181905260009190848201906040850190845b8181101561408c57835183529284019291840191600101614070565b50909695505050505050565b901515815260200190565b6000602082526118666020830184613f8a565b60208082526017908201527f6d696e746572206973206e6f7420746865206f776e6572000000000000000000604082015260600190565b60208082526010908201526f1cdd5c1c1b1e481a5b98dbdc9c9958dd60821b604082015260600190565b6020808252601190820152701d1bdad95b9259081a5b98dbdc9c9958dd607a1b604082015260600190565b60208082526010908201526f185b5bdd5b9d081a5b98dbdc9c9958dd60821b604082015260600190565b60208082526028908201527f455243313135353a207472616e736665722063616c6c6572206973206e6f7420604082015267185c1c1c9bdd995960c21b606082015260800190565b60208082526010908201526f6d6f7265207468616e20737570706c7960801b604082015260600190565b6020808252601190820152701d5c9a481cda1bdd5b19081899481cd95d607a1b604082015260600190565b90815260200190565b60008382526040602083015261422b6040830184613f33565b949350505050565b60008582526080602083015261424c6080830186613f8a565b828103604084015261425e8186613f33565b91505082606083015295945050505050565b918252602082015260400190565b6040518181016001600160401b038111828210171561429957fe5b604052919050565b60006001600160401b038211156142b457fe5b5060209081020190565b60e01c90565b600060443d10156142d457610b60565b600481823e6308c379a06142e882516142be565b146142f257610b60565b6040513d600319016004823e80513d6001600160401b0381602484011181841117156143215750505050610b60565b8284019250825191508082111561433b5750505050610b60565b503d8301602082840101111561435357505050610b60565b601f01601f1916810160200160405291505090565b6001600160a01b0381168114611bf457600080fdfe455243313135353a207472616e7366657220746f206e6f6e2045524331313535526563656976657220696d706c656d656e746572455243313135353a204552433131353552656365697665722072656a656374656420746f6b656e73455243313135353a2062616c616e636520717565727920666f7220746865207a65726f20616464726573734f776e61626c653a206e6577206f776e657220697320746865207a65726f2061646472657373455243313135353a206275726e20616d6f756e7420657863656564732062616c616e6365455243313135353a2063616c6c6572206973206e6f74206f776e6572206e6f7220617070726f76656445434453413a20696e76616c6964207369676e6174757265202773272076616c7565455243313135353a207472616e7366657220746f20746865207a65726f2061646472657373455243313135353a207472616e736665722063616c6c6572206973206e6f74206f776e6572206e6f7220617070726f766564496e697469616c697a61626c653a20636f6e747261637420697320616c726561647920696e697469616c697a656445434453413a20696e76616c6964207369676e6174757265202776272076616c7565455243313135353a206275726e2066726f6d20746865207a65726f2061646472657373455243313135353a20696e73756666696369656e742062616c616e636520666f72207472616e73666572455243313135353a2073657474696e6720617070726f76616c2073746174757320666f722073656c66455243313135353a206163636f756e747320616e6420696473206c656e677468206d69736d61746368455243313135353a2069647320616e6420616d6f756e7473206c656e677468206d69736d61746368455243313135353a206d696e7420746f20746865207a65726f2061646472657373a2646970667358221220e67bbca88dca265110642df63f686c2aadd02f7f3780c85084cdf1e6646fc1a564736f6c63430007060033",
  "immutableReferences": {},
  "source": "// SPDX-License-Identifier: MIT\n\npragma solidity >=0.6.2 <0.8.0;\npragma abicoder v2;\n\nimport \"@openzeppelin/contracts-upgradeable/access/OwnableUpgradeable.sol\";\nimport \"@openzeppelin/contracts-upgradeable/token/ERC1155/ERC1155BurnableUpgradeable.sol\";\nimport \"./ERC1155Lazy.sol\";\nimport \"../HasContractURI.sol\";\n\ncontract ERC1155RaribleUser is OwnableUpgradeable, ERC1155BurnableUpgradeable, ERC1155Lazy, HasContractURI {\n\n    event CreateERC1155RaribleUser(address owner, string name, string symbol);\n\n    string public name;\n    string public symbol;\n\n    function __ERC1155RaribleUser_init(string memory _name, string memory _symbol, string memory baseURI, string memory contractURI, address[] memory operators) external initializer {\n        __Ownable_init_unchained();\n        __ERC1155Lazy_init_unchained();\n        __ERC165_init_unchained();\n        __Context_init_unchained();\n        __Mint1155Validator_init_unchained();\n        __ERC1155_init_unchained(\"\");\n        __HasContractURI_init_unchained(contractURI);\n        __ERC1155Burnable_init_unchained();\n        __RoyaltiesV2Upgradeable_init_unchained();\n        __ERC1155RaribleUser_init_unchained(_name, _symbol);\n        _setBaseURI(baseURI);\n        for(uint i = 0; i < operators.length; i++) {\n            setApprovalForAll(operators[i], true);\n        }\n        emit CreateERC1155RaribleUser(_msgSender(), _name, _symbol);\n    }\n\n    function __ERC1155RaribleUser_init_unchained(string memory _name, string memory _symbol) internal initializer {\n        name = _name;\n        symbol = _symbol;\n    }\n\n    function _mint(address account, uint256 tokenId, uint256 amount, bytes memory data) internal virtual override(ERC1155Upgradeable, ERC1155Lazy) {\n        ERC1155Lazy._mint(account, tokenId, amount, data);\n    }\n\n    function uri(uint tokenId) external view override(ERC1155BaseURI, ERC1155Upgradeable) virtual returns (string memory) {\n        return _tokenURI(tokenId);\n    }\n\n    function mintAndTransfer(LibERC1155LazyMint.Mint1155Data memory data, address to, uint256 _amount) public override {\n        require(owner() == data.creators[0].account, \"minter is not the owner\");\n        super.mintAndTransfer(data, to, _amount);\n    }\n    uint256[50] private __gap;\n}\n",
  "sourcePath": "/home/quadro/Projects/rarible/protocol-contracts/tokens/contracts/erc-1155/ERC1155RaribleUser.sol",
  "compiler": {
    "name": "solc",
    "version": "0.7.6+commit.7338295f.Emscripten.clang"
  },
  "schemaVersion": "3.4.0",
  "updatedAt": "2021-04-30T17:19:00.783Z",
  "devdoc": {
    "kind": "dev",
    "methods": {
      "balanceOf(address,uint256)": {
        "details": "See {IERC1155-balanceOf}. Requirements: - `account` cannot be the zero address."
      },
      "balanceOfBatch(address[],uint256[])": {
        "details": "See {IERC1155-balanceOfBatch}. Requirements: - `accounts` and `ids` must have the same length."
      },
      "baseURI()": {
        "details": "Returns the base URI set via {_setBaseURI}. This will be automatically added as a prefix in {tokenURI} to each token's URI, or to the token ID if no specific URI is set for that token ID."
      },
      "isApprovedForAll(address,address)": {
        "details": "See {IERC1155-isApprovedForAll}."
      },
      "owner()": {
        "details": "Returns the address of the current owner."
      },
      "renounceOwnership()": {
        "details": "Leaves the contract without owner. It will not be possible to call `onlyOwner` functions anymore. Can only be called by the current owner. NOTE: Renouncing ownership will leave the contract without an owner, thereby removing any functionality that is only available to the owner."
      },
      "safeBatchTransferFrom(address,address,uint256[],uint256[],bytes)": {
        "details": "See {IERC1155-safeBatchTransferFrom}."
      },
      "safeTransferFrom(address,address,uint256,uint256,bytes)": {
        "details": "See {IERC1155-safeTransferFrom}."
      },
      "setApprovalForAll(address,bool)": {
        "details": "See {IERC1155-setApprovalForAll}."
      },
      "supportsInterface(bytes4)": {
        "details": "See {IERC165-supportsInterface}. Time complexity O(1), guaranteed to always use less than 30 000 gas."
      },
      "transferOwnership(address)": {
        "details": "Transfers ownership of the contract to a new account (`newOwner`). Can only be called by the current owner."
      }
    },
    "version": 1
  },
  "userdoc": {
    "kind": "user",
    "methods": {},
    "version": 1
  }
}