{
  "contractName": "ERC1155Rarible",
  "abi": [
    {
      "anonymous": false,
      "inputs": [
        {
          "indexed": true,
          "internalType": "address",
          "name": "account",
          "type": "address"
        },
        {
          "indexed": true,
          "internalType": "address",
          "name": "operator",
          "type": "address"
        },
        {
          "indexed": false,
          "internalType": "bool",
          "name": "approved",
          "type": "bool"
        }
      ],
      "name": "ApprovalForAll",
      "type": "event"
    },
    {
      "anonymous": false,
      "inputs": [
        {
          "indexed": false,
          "internalType": "string",
          "name": "newBaseURI",
          "type": "string"
        }
      ],
      "name": "BaseUriChanged",
      "type": "event"
    },
    {
      "anonymous": false,
      "inputs": [
        {
          "indexed": true,
          "internalType": "address",
          "name": "operator",
          "type": "address"
        },
        {
          "indexed": true,
          "internalType": "address",
          "name": "account",
          "type": "address"
        },
        {
          "indexed": false,
          "internalType": "uint256",
          "name": "id",
          "type": "uint256"
        },
        {
          "indexed": false,
          "internalType": "uint256",
          "name": "amount",
          "type": "uint256"
        }
      ],
      "name": "BurnLazy",
      "type": "event"
    },
    {
      "anonymous": false,
      "inputs": [
        {
          "indexed": true,
          "internalType": "address",
          "name": "operator",
          "type": "address"
        },
        {
          "indexed": true,
          "internalType": "address",
          "name": "account",
          "type": "address"
        },
        {
          "indexed": false,
          "internalType": "uint256[]",
          "name": "ids",
          "type": "uint256[]"
        },
        {
          "indexed": false,
          "internalType": "uint256[]",
          "name": "amounts",
          "type": "uint256[]"
        }
      ],
      "name": "BurnLazyBatch",
      "type": "event"
    },
    {
      "anonymous": false,
      "inputs": [
        {
          "indexed": false,
          "internalType": "address",
          "name": "owner",
          "type": "address"
        },
        {
          "indexed": false,
          "internalType": "string",
          "name": "name",
          "type": "string"
        },
        {
          "indexed": false,
          "internalType": "string",
          "name": "symbol",
          "type": "string"
        }
      ],
      "name": "CreateERC1155Rarible",
      "type": "event"
    },
    {
      "anonymous": false,
      "inputs": [
        {
          "indexed": false,
          "internalType": "address",
          "name": "owner",
          "type": "address"
        },
        {
          "indexed": false,
          "internalType": "string",
          "name": "name",
          "type": "string"
        },
        {
          "indexed": false,
          "internalType": "string",
          "name": "symbol",
          "type": "string"
        }
      ],
      "name": "CreateERC1155RaribleUser",
      "type": "event"
    },
    {
      "anonymous": false,
      "inputs": [
        {
          "indexed": false,
          "internalType": "uint256",
          "name": "tokenId",
          "type": "uint256"
        },
        {
          "components": [
            {
              "internalType": "address payable",
              "name": "account",
              "type": "address"
            },
            {
              "internalType": "uint96",
              "name": "value",
              "type": "uint96"
            }
          ],
          "indexed": false,
          "internalType": "struct LibPart.Part[]",
          "name": "creators",
          "type": "tuple[]"
        }
      ],
      "name": "Creators",
      "type": "event"
    },
    {
      "anonymous": false,
      "inputs": [
        {
          "indexed": true,
          "internalType": "address",
          "name": "operator",
          "type": "address"
        },
        {
          "indexed": false,
          "internalType": "bool",
          "name": "hasApproval",
          "type": "bool"
        }
      ],
      "name": "DefaultApproval",
      "type": "event"
    },
    {
      "anonymous": false,
      "inputs": [
        {
          "indexed": false,
          "internalType": "uint8",
          "name": "version",
          "type": "uint8"
        }
      ],
      "name": "Initialized",
      "type": "event"
    },
    {
      "anonymous": false,
      "inputs": [
        {
          "indexed": true,
          "internalType": "address",
          "name": "minter",
          "type": "address"
        },
        {
          "indexed": true,
          "internalType": "bool",
          "name": "status",
          "type": "bool"
        }
      ],
      "name": "MinterStatusChanged",
      "type": "event"
    },
    {
      "anonymous": false,
      "inputs": [
        {
          "indexed": true,
          "internalType": "address",
          "name": "previousOwner",
          "type": "address"
        },
        {
          "indexed": true,
          "internalType": "address",
          "name": "newOwner",
          "type": "address"
        }
      ],
      "name": "OwnershipTransferred",
      "type": "event"
    },
    {
      "anonymous": false,
      "inputs": [
        {
          "indexed": false,
          "internalType": "uint256",
          "name": "tokenId",
          "type": "uint256"
        },
        {
          "components": [
            {
              "internalType": "address payable",
              "name": "account",
              "type": "address"
            },
            {
              "internalType": "uint96",
              "name": "value",
              "type": "uint96"
            }
          ],
          "indexed": false,
          "internalType": "struct LibPart.Part[]",
          "name": "royalties",
          "type": "tuple[]"
        }
      ],
      "name": "RoyaltiesSet",
      "type": "event"
    },
    {
      "anonymous": false,
      "inputs": [
        {
          "indexed": false,
          "internalType": "uint256",
          "name": "tokenId",
          "type": "uint256"
        },
        {
          "indexed": false,
          "internalType": "uint256",
          "name": "value",
          "type": "uint256"
        }
      ],
      "name": "Supply",
      "type": "event"
    },
    {
      "anonymous": false,
      "inputs": [
        {
          "indexed": true,
          "internalType": "address",
          "name": "operator",
          "type": "address"
        },
        {
          "indexed": true,
          "internalType": "address",
          "name": "from",
          "type": "address"
        },
        {
          "indexed": true,
          "internalType": "address",
          "name": "to",
          "type": "address"
        },
        {
          "indexed": false,
          "internalType": "uint256[]",
          "name": "ids",
          "type": "uint256[]"
        },
        {
          "indexed": false,
          "internalType": "uint256[]",
          "name": "values",
          "type": "uint256[]"
        }
      ],
      "name": "TransferBatch",
      "type": "event"
    },
    {
      "anonymous": false,
      "inputs": [
        {
          "indexed": true,
          "internalType": "address",
          "name": "operator",
          "type": "address"
        },
        {
          "indexed": true,
          "internalType": "address",
          "name": "from",
          "type": "address"
        },
        {
          "indexed": true,
          "internalType": "address",
          "name": "to",
          "type": "address"
        },
        {
          "indexed": false,
          "internalType": "uint256",
          "name": "id",
          "type": "uint256"
        },
        {
          "indexed": false,
          "internalType": "uint256",
          "name": "value",
          "type": "uint256"
        }
      ],
      "name": "TransferSingle",
      "type": "event"
    },
    {
      "anonymous": false,
      "inputs": [
        {
          "indexed": false,
          "internalType": "string",
          "name": "value",
          "type": "string"
        },
        {
          "indexed": true,
          "internalType": "uint256",
          "name": "id",
          "type": "uint256"
        }
      ],
      "name": "URI",
      "type": "event"
    },
    {
      "inputs": [
        {
          "internalType": "address",
          "name": "_minter",
          "type": "address"
        }
      ],
      "name": "addMinter",
      "outputs": [],
      "stateMutability": "nonpayable",
      "type": "function"
    },
    {
      "inputs": [
        {
          "internalType": "address",
          "name": "account",
          "type": "address"
        },
        {
          "internalType": "uint256",
          "name": "id",
          "type": "uint256"
        }
      ],
      "name": "balanceOf",
      "outputs": [
        {
          "internalType": "uint256",
          "name": "",
          "type": "uint256"
        }
      ],
      "stateMutability": "view",
      "type": "function"
    },
    {
      "inputs": [
        {
          "internalType": "address[]",
          "name": "accounts",
          "type": "address[]"
        },
        {
          "internalType": "uint256[]",
          "name": "ids",
          "type": "uint256[]"
        }
      ],
      "name": "balanceOfBatch",
      "outputs": [
        {
          "internalType": "uint256[]",
          "name": "",
          "type": "uint256[]"
        }
      ],
      "stateMutability": "view",
      "type": "function"
    },
    {
      "inputs": [],
      "name": "baseURI",
      "outputs": [
        {
          "internalType": "string",
          "name": "",
          "type": "string"
        }
      ],
      "stateMutability": "view",
      "type": "function"
    },
    {
      "inputs": [
        {
          "internalType": "address",
          "name": "account",
          "type": "address"
        },
        {
          "internalType": "uint256",
          "name": "id",
          "type": "uint256"
        },
        {
          "internalType": "uint256",
          "name": "amount",
          "type": "uint256"
        }
      ],
      "name": "burn",
      "outputs": [],
      "stateMutability": "nonpayable",
      "type": "function"
    },
    {
      "inputs": [
        {
          "internalType": "address",
          "name": "account",
          "type": "address"
        },
        {
          "internalType": "uint256[]",
          "name": "ids",
          "type": "uint256[]"
        },
        {
          "internalType": "uint256[]",
          "name": "amounts",
          "type": "uint256[]"
        }
      ],
      "name": "burnBatch",
      "outputs": [],
      "stateMutability": "nonpayable",
      "type": "function"
    },
    {
      "inputs": [],
      "name": "contractURI",
      "outputs": [
        {
          "internalType": "string",
          "name": "",
          "type": "string"
        }
      ],
      "stateMutability": "view",
      "type": "function"
    },
    {
      "inputs": [
        {
          "internalType": "uint256",
          "name": "_id",
          "type": "uint256"
        }
      ],
      "name": "getCreators",
      "outputs": [
        {
          "components": [
            {
              "internalType": "address payable",
              "name": "account",
              "type": "address"
            },
            {
              "internalType": "uint96",
              "name": "value",
              "type": "uint96"
            }
          ],
          "internalType": "struct LibPart.Part[]",
          "name": "",
          "type": "tuple[]"
        }
      ],
      "stateMutability": "view",
      "type": "function"
    },
    {
      "inputs": [
        {
          "internalType": "uint256",
          "name": "id",
          "type": "uint256"
        }
      ],
      "name": "getRaribleV2Royalties",
      "outputs": [
        {
          "components": [
            {
              "internalType": "address payable",
              "name": "account",
              "type": "address"
            },
            {
              "internalType": "uint96",
              "name": "value",
              "type": "uint96"
            }
          ],
          "internalType": "struct LibPart.Part[]",
          "name": "",
          "type": "tuple[]"
        }
      ],
      "stateMutability": "view",
      "type": "function"
    },
    {
      "inputs": [
        {
          "internalType": "address",
          "name": "_owner",
          "type": "address"
        },
        {
          "internalType": "address",
          "name": "_operator",
          "type": "address"
        }
      ],
      "name": "isApprovedForAll",
      "outputs": [
        {
          "internalType": "bool",
          "name": "",
          "type": "bool"
        }
      ],
      "stateMutability": "view",
      "type": "function"
    },
    {
      "inputs": [
        {
          "internalType": "address",
          "name": "account",
          "type": "address"
        }
      ],
      "name": "isMinter",
      "outputs": [
        {
          "internalType": "bool",
          "name": "",
          "type": "bool"
        }
      ],
      "stateMutability": "view",
      "type": "function"
    },
    {
      "inputs": [],
      "name": "name",
      "outputs": [
        {
          "internalType": "string",
          "name": "",
          "type": "string"
        }
      ],
      "stateMutability": "view",
      "type": "function"
    },
    {
      "inputs": [],
      "name": "owner",
      "outputs": [
        {
          "internalType": "address",
          "name": "",
          "type": "address"
        }
      ],
      "stateMutability": "view",
      "type": "function"
    },
    {
      "inputs": [
        {
          "internalType": "address",
          "name": "_minter",
          "type": "address"
        }
      ],
      "name": "removeMinter",
      "outputs": [],
      "stateMutability": "nonpayable",
      "type": "function"
    },
    {
      "inputs": [],
      "name": "renounceOwnership",
      "outputs": [],
      "stateMutability": "nonpayable",
      "type": "function"
    },
    {
      "inputs": [
        {
          "internalType": "uint256",
          "name": "id",
          "type": "uint256"
        },
        {
          "internalType": "uint256",
          "name": "_salePrice",
          "type": "uint256"
        }
      ],
      "name": "royaltyInfo",
      "outputs": [
        {
          "internalType": "address",
          "name": "receiver",
          "type": "address"
        },
        {
          "internalType": "uint256",
          "name": "royaltyAmount",
          "type": "uint256"
        }
      ],
      "stateMutability": "view",
      "type": "function"
    },
    {
      "inputs": [
        {
          "internalType": "address",
          "name": "from",
          "type": "address"
        },
        {
          "internalType": "address",
          "name": "to",
          "type": "address"
        },
        {
          "internalType": "uint256[]",
          "name": "ids",
          "type": "uint256[]"
        },
        {
          "internalType": "uint256[]",
          "name": "amounts",
          "type": "uint256[]"
        },
        {
          "internalType": "bytes",
          "name": "data",
          "type": "bytes"
        }
      ],
      "name": "safeBatchTransferFrom",
      "outputs": [],
      "stateMutability": "nonpayable",
      "type": "function"
    },
    {
      "inputs": [
        {
          "internalType": "address",
          "name": "from",
          "type": "address"
        },
        {
          "internalType": "address",
          "name": "to",
          "type": "address"
        },
        {
          "internalType": "uint256",
          "name": "id",
          "type": "uint256"
        },
        {
          "internalType": "uint256",
          "name": "amount",
          "type": "uint256"
        },
        {
          "internalType": "bytes",
          "name": "data",
          "type": "bytes"
        }
      ],
      "name": "safeTransferFrom",
      "outputs": [],
      "stateMutability": "nonpayable",
      "type": "function"
    },
    {
      "inputs": [
        {
          "internalType": "address",
          "name": "operator",
          "type": "address"
        },
        {
          "internalType": "bool",
          "name": "approved",
          "type": "bool"
        }
      ],
      "name": "setApprovalForAll",
      "outputs": [],
      "stateMutability": "nonpayable",
      "type": "function"
    },
    {
      "inputs": [
        {
          "internalType": "string",
          "name": "newBaseURI",
          "type": "string"
        }
      ],
      "name": "setBaseURI",
      "outputs": [],
      "stateMutability": "nonpayable",
      "type": "function"
    },
    {
      "inputs": [
        {
          "internalType": "bytes4",
          "name": "interfaceId",
          "type": "bytes4"
        }
      ],
      "name": "supportsInterface",
      "outputs": [
        {
          "internalType": "bool",
          "name": "",
          "type": "bool"
        }
      ],
      "stateMutability": "view",
      "type": "function"
    },
    {
      "inputs": [],
      "name": "symbol",
      "outputs": [
        {
          "internalType": "string",
          "name": "",
          "type": "string"
        }
      ],
      "stateMutability": "view",
      "type": "function"
    },
    {
      "inputs": [
        {
          "components": [
            {
              "internalType": "uint256",
              "name": "tokenId",
              "type": "uint256"
            },
            {
              "internalType": "string",
              "name": "tokenURI",
              "type": "string"
            },
            {
              "internalType": "uint256",
              "name": "supply",
              "type": "uint256"
            },
            {
              "components": [
                {
                  "internalType": "address payable",
                  "name": "account",
                  "type": "address"
                },
                {
                  "internalType": "uint96",
                  "name": "value",
                  "type": "uint96"
                }
              ],
              "internalType": "struct LibPart.Part[]",
              "name": "creators",
              "type": "tuple[]"
            },
            {
              "components": [
                {
                  "internalType": "address payable",
                  "name": "account",
                  "type": "address"
                },
                {
                  "internalType": "uint96",
                  "name": "value",
                  "type": "uint96"
                }
              ],
              "internalType": "struct LibPart.Part[]",
              "name": "royalties",
              "type": "tuple[]"
            },
            {
              "internalType": "bytes[]",
              "name": "signatures",
              "type": "bytes[]"
            }
          ],
          "internalType": "struct LibERC1155LazyMint.Mint1155Data",
          "name": "data",
          "type": "tuple"
        },
        {
          "internalType": "address",
          "name": "from",
          "type": "address"
        },
        {
          "internalType": "address",
          "name": "to",
          "type": "address"
        },
        {
          "internalType": "uint256",
          "name": "amount",
          "type": "uint256"
        }
      ],
      "name": "transferFromOrMint",
      "outputs": [],
      "stateMutability": "nonpayable",
      "type": "function"
    },
    {
      "inputs": [
        {
          "internalType": "address",
          "name": "newOwner",
          "type": "address"
        }
      ],
      "name": "transferOwnership",
      "outputs": [],
      "stateMutability": "nonpayable",
      "type": "function"
    },
    {
      "inputs": [
        {
          "internalType": "uint256",
          "name": "_id",
          "type": "uint256"
        },
        {
          "internalType": "address",
          "name": "_from",
          "type": "address"
        },
        {
          "internalType": "address",
          "name": "_to",
          "type": "address"
        }
      ],
      "name": "updateAccount",
      "outputs": [],
      "stateMutability": "nonpayable",
      "type": "function"
    },
    {
      "inputs": [
        {
          "internalType": "uint256",
          "name": "id",
          "type": "uint256"
        }
      ],
      "name": "uri",
      "outputs": [
        {
          "internalType": "string",
          "name": "",
          "type": "string"
        }
      ],
      "stateMutability": "view",
      "type": "function"
    },
    {
      "inputs": [
        {
          "internalType": "string",
          "name": "_name",
          "type": "string"
        },
        {
          "internalType": "string",
          "name": "_symbol",
          "type": "string"
        },
        {
          "internalType": "string",
          "name": "baseURI",
          "type": "string"
        },
        {
          "internalType": "string",
          "name": "contractURI",
          "type": "string"
        },
        {
          "internalType": "address[]",
          "name": "operators",
          "type": "address[]"
        },
        {
          "internalType": "address",
          "name": "transferProxy",
          "type": "address"
        },
        {
          "internalType": "address",
          "name": "lazyTransferProxy",
          "type": "address"
        }
      ],
      "name": "__ERC1155RaribleUser_init",
      "outputs": [],
      "stateMutability": "nonpayable",
      "type": "function"
    },
    {
      "inputs": [
        {
          "internalType": "string",
          "name": "_name",
          "type": "string"
        },
        {
          "internalType": "string",
          "name": "_symbol",
          "type": "string"
        },
        {
          "internalType": "string",
          "name": "baseURI",
          "type": "string"
        },
        {
          "internalType": "string",
          "name": "contractURI",
          "type": "string"
        },
        {
          "internalType": "address",
          "name": "transferProxy",
          "type": "address"
        },
        {
          "internalType": "address",
          "name": "lazyTransferProxy",
          "type": "address"
        }
      ],
      "name": "__ERC1155Rarible_init",
      "outputs": [],
      "stateMutability": "nonpayable",
      "type": "function"
    },
    {
      "inputs": [
        {
          "components": [
            {
              "internalType": "uint256",
              "name": "tokenId",
              "type": "uint256"
            },
            {
              "internalType": "string",
              "name": "tokenURI",
              "type": "string"
            },
            {
              "internalType": "uint256",
              "name": "supply",
              "type": "uint256"
            },
            {
              "components": [
                {
                  "internalType": "address payable",
                  "name": "account",
                  "type": "address"
                },
                {
                  "internalType": "uint96",
                  "name": "value",
                  "type": "uint96"
                }
              ],
              "internalType": "struct LibPart.Part[]",
              "name": "creators",
              "type": "tuple[]"
            },
            {
              "components": [
                {
                  "internalType": "address payable",
                  "name": "account",
                  "type": "address"
                },
                {
                  "internalType": "uint96",
                  "name": "value",
                  "type": "uint96"
                }
              ],
              "internalType": "struct LibPart.Part[]",
              "name": "royalties",
              "type": "tuple[]"
            },
            {
              "internalType": "bytes[]",
              "name": "signatures",
              "type": "bytes[]"
            }
          ],
          "internalType": "struct LibERC1155LazyMint.Mint1155Data",
          "name": "data",
          "type": "tuple"
        },
        {
          "internalType": "address",
          "name": "to",
          "type": "address"
        },
        {
          "internalType": "uint256",
          "name": "_amount",
          "type": "uint256"
        }
      ],
      "name": "mintAndTransfer",
      "outputs": [],
      "stateMutability": "nonpayable",
      "type": "function"
    }
  ],
  "bytecode": "0x608060405234801561001057600080fd5b50614bc4806100206000396000f3fe608060405234801561001057600080fd5b50600436106101ce5760003560e01c8063715018a611610104578063cad96cca116100a2578063f242432a11610071578063f242432a14610404578063f2fde38b14610417578063f5298aca1461042a578063ffc4e0a71461043d57600080fd5b8063cad96cca146103c3578063e07f2319146103d6578063e8a3d485146103e9578063e985e9c5146103f157600080fd5b806395d89b41116100de57806395d89b4114610368578063983b2d5614610370578063a22cb46514610383578063aa271e1a1461039657600080fd5b8063715018a614610325578063891be9741461032d5780638da5cb5b1461034d57600080fd5b80632eb2c2d61161017157806355f804b31161014b57806355f804b3146102e457806361e05459146102f75780636b20c4541461030a5780636c0360eb1461031d57600080fd5b80632eb2c2d61461029e5780633092afd5146102b15780634e1273f4146102c457600080fd5b80630e89341c116101ad5780630e89341c146102315780630eaead6714610244578063173c43d2146102595780632a55205a1461026c57600080fd5b8062fdd58e146101d357806301ffc9a7146101f957806306fdde031461021c575b600080fd5b6101e66101e13660046138d4565b610450565b6040519081526020015b60405180910390f35b61020c610207366004613916565b6104ec565b60405190151581526020016101f0565b6102246104f7565b6040516101f0919061398b565b61022461023f36600461399e565b610586565b610257610252366004613cf4565b610591565b005b610257610267366004613d4d565b610682565b61027f61027a366004613e19565b6106de565b604080516001600160a01b0390931683526020830191909152016101f0565b6102576102ac366004613ea1565b61081b565b6102576102bf366004613f4e565b610a6e565b6102d76102d2366004613fda565b610ac4565b6040516101f09190614078565b6102576102f236600461408b565b610bed565b6102576103053660046140bf565b610c38565b6102576103183660046141b1565b610ce1565b610224610ea5565b610257610f38565b61034061033b36600461399e565b610f4c565b6040516101f09190614273565b6033546040516001600160a01b0390911681526020016101f0565b610224610fdc565b61025761037e366004613f4e565b610fea565b610257610391366004614286565b611045565b61020c6103a4366004613f4e565b6001600160a01b031660009081526102c8602052604090205460ff1690565b6103406103d136600461399e565b61111b565b6102576103e43660046142c4565b611196565b6102246111e7565b61020c6103ff366004614306565b6111f5565b610257610412366004614334565b611208565b610257610425366004613f4e565b611367565b61025761043836600461439c565b6113e0565b61025761044b3660046143d1565b61144c565b60006001600160a01b0383166104c15760405162461bcd60e51b815260206004820152602b60248201527f455243313135353a2062616c616e636520717565727920666f7220746865207a60448201526a65726f206164647265737360a81b60648201526084015b60405180910390fd5b5060008181526097602090815260408083206001600160a01b03861684529091529020545b92915050565b60006104e6826114b0565b61026280546105059061443a565b80601f01602080910402602001604051908101604052809291908181526020018280546105319061443a565b801561057e5780601f106105535761010080835404028352916020019161057e565b820191906000526020600020905b81548152906001019060200180831161056157829003601f168201915b505050505081565b60606104e6826114d5565b6102965460ff16156106725782606001516000815181106105b4576105b4614474565b6020026020010151600001516001600160a01b03166105db6033546001600160a01b031690565b6001600160a01b031614806106305750610630836060015160008151811061060557610605614474565b6020026020010151600001516001600160a01b031660009081526102c8602052604090205460ff1690565b6106725760405162461bcd60e51b81526020600482015260136024820152723737ba1037bbb732b91037b91036b4b73a32b960691b60448201526064016104b8565b61067d8383836115dc565b505050565b610690868686868686611971565b610296805460ff191690557fcc215b7682459c30faa0e854780165d503a7d62d22a9aaaad6334585dc63343e3387876040516106ce9392919061448a565b60405180910390a1505050505050565b60008281526101fa60205260408120548190810361070157506000905080610814565b60008481526101fa6020908152604080832080548251818502810185019093528083529192909190849084015b8282101561077d57600084815260209081902060408051808201909152908401546001600160a01b0381168252600160a01b90046001600160601b03168183015282526001909201910161072e565b5050505090508060008151811061079657610796614474565b60209081029190910101515192506000805b82518110156107f7578281815181106107c3576107c3614474565b6020026020010151602001516001600160601b0316826107e391906144d6565b9150806107ef816144ee565b9150506107a8565b506127106108058683614507565b61080f919061453c565b925050505b9250929050565b815183511461083c5760405162461bcd60e51b81526004016104b890614550565b6001600160a01b0384166108625760405162461bcd60e51b81526004016104b890614598565b6001600160a01b03851633148061087e575061087e85336111f5565b6108e55760405162461bcd60e51b815260206004820152603260248201527f455243313135353a207472616e736665722063616c6c6572206973206e6f74206044820152711bdddb995c881b9bdc88185c1c1c9bdd995960721b60648201526084016104b8565b3360005b8451811015610a0057600085828151811061090657610906614474565b60200260200101519050600085838151811061092457610924614474565b60200260200101519050610991816040518060600160405280602a8152602001614b45602a91396097600086815260200190815260200160002060008d6001600160a01b03166001600160a01b0316815260200190815260200160002054611aad9092919063ffffffff16565b60008381526097602090815260408083206001600160a01b038e811685529252808320939093558a16815220546109c89082611ad9565b60009283526097602090815260408085206001600160a01b038c16865290915290922091909155506109f9816144ee565b90506108e9565b50846001600160a01b0316866001600160a01b0316826001600160a01b03167f4a39dc06d4c0dbc64b70af90fd698a233a518aa5d07e595d983b8c0526c8f7fb8787604051610a509291906145dd565b60405180910390a4610a66818787878787611ae5565b505050505050565b610a76611c40565b6001600160a01b03811660008181526102c86020526040808220805460ff19169055519091907f3042b80e435ae46c334b2cfec51a66d64c9a8a8af4cd0c279a124c35a09e91dd908390a350565b60608151835114610b295760405162461bcd60e51b815260206004820152602960248201527f455243313135353a206163636f756e747320616e6420696473206c656e677468604482015268040dad2e6dac2e8c6d60bb1b60648201526084016104b8565b600083516001600160401b03811115610b4457610b446139b7565b604051908082528060200260200182016040528015610b6d578160200160208202803683370190505b50905060005b8451811015610be557610bb8858281518110610b9157610b91614474565b6020026020010151858381518110610bab57610bab614474565b6020026020010151610450565b828281518110610bca57610bca614474565b6020908102919091010152610bde816144ee565b9050610b73565b509392505050565b610bf5611c40565b610bfe81611c9a565b7f87cdeaffd8e70903d6ce7cc983fac3b09ca79e83818124c98e47a1d70f8027d681604051610c2d919061398b565b60405180910390a150565b610c46878787878686611971565b60005b8351811015610c8857610c76848281518110610c6757610c67614474565b60200260200101516001611045565b80610c80816144ee565b915050610c49565b50610296805460ff191660011790557f7da6bc204c8c4856a6aff786a6cb81c59477c782191dc51837d644a8ad50f2cc610cbf3390565b8888604051610cd09392919061448a565b60405180910390a150505050505050565b8051825114610d235760405162461bcd60e51b815260206004820152600e60248201526d69647320213d20616d6f756e747360901b60448201526064016104b8565b600082516001600160401b03811115610d3e57610d3e6139b7565b604051908082528060200260200182016040528015610d67578160200160208202803683370190505b509050600083516001600160401b03811115610d8557610d856139b7565b604051908082528060200260200182016040528015610dae578160200160208202803683370190505b50905060005b8451811015610e4557610df9858281518110610dd257610dd2614474565b6020026020010151858381518110610dec57610dec614474565b6020026020010151611cab565b848381518110610e0b57610e0b614474565b60200260200101848481518110610e2457610e24614474565b60209081029190910101919091525280610e3d816144ee565b915050610db4565b50610e51858584611d1d565b6001600160a01b038516336001600160a01b03167fcf3391513e21a9d4a0348f8e890080170eba18dc62db35b60d8a518b7088eb3a8684604051610e969291906145dd565b60405180910390a35050505050565b606061012f8054610eb59061443a565b80601f0160208091040260200160405190810160405280929190818152602001828054610ee19061443a565b8015610f2e5780601f10610f0357610100808354040283529160200191610f2e565b820191906000526020600020905b815481529060010190602001808311610f1157829003601f168201915b5050505050905090565b610f40611c40565b610f4a6000611d60565b565b60606101fb6000838152602001908152602001600020805480602002602001604051908101604052809291908181526020016000905b82821015610fd157600084815260209081902060408051808201909152908401546001600160a01b0381168252600160a01b90046001600160601b031681830152825260019092019101610f82565b505050509050919050565b61026380546105059061443a565b610ff2611c40565b6001600160a01b03811660008181526102c86020526040808220805460ff1916600190811790915590519092917f3042b80e435ae46c334b2cfec51a66d64c9a8a8af4cd0c279a124c35a09e91dd91a350565b6001600160a01b03821633036110af5760405162461bcd60e51b815260206004820152602960248201527f455243313135353a2073657474696e6720617070726f76616c20737461747573604482015268103337b91039b2b63360b91b60648201526084016104b8565b3360008181526098602090815260408083206001600160a01b03871680855290835292819020805460ff191686151590811790915590519081529192917f17307eab39ab6107e8899845ad3d59bd9653f200f220920489ca2b5937696c31910160405180910390a35050565b60008181526101fa60209081526040808320805482518185028101850190935280835260609492939192909184018215610fd157600084815260209081902060408051808201909152908401546001600160a01b0381168252600160a01b90046001600160601b031681830152825260019092019101610f82565b336001600160a01b038316146111dc5760405162461bcd60e51b815260206004820152600b60248201526a1b9bdd08185b1b1bddd95960aa1b60448201526064016104b8565b61067d838383611db2565b61023080546105059061443a565b60006112018383611e73565b9392505050565b6001600160a01b03841661122e5760405162461bcd60e51b81526004016104b890614598565b6001600160a01b03851633148061124a575061124a85336111f5565b6112665760405162461bcd60e51b81526004016104b890614602565b3361128681878761127688611ec3565b61127f88611ec3565b5050505050565b6112cd836040518060600160405280602a8152602001614b45602a913960008781526097602090815260408083206001600160a01b038d1684529091529020549190611aad565b60008581526097602090815260408083206001600160a01b038b811685529252808320939093558716815220546113049084611ad9565b60008581526097602090815260408083206001600160a01b038a81168086529184529382902094909455805188815291820187905289831692851691600080516020614b01833981519152910160405180910390a4610a66818787878787611f0e565b61136f611c40565b6001600160a01b0381166113d45760405162461bcd60e51b815260206004820152602660248201527f4f776e61626c653a206e6577206f776e657220697320746865207a65726f206160448201526564647265737360d01b60648201526084016104b8565b6113dd81611d60565b50565b6000806113ed8484611cab565b9092509050811561140357611403858584611fc9565b801561127f5760408051858152602081018390526001600160a01b0387169133917f5110a21391aa55386de41fe7a3e3dffb40132d38d629a113a7f4afff251b1a019101610e96565b600061145c848660000151610450565b905081811561149f5782808310156114715750815b611491868689600001518460405180602001604052806000815250611208565b61149b818561464b565b9150505b8015610a6657610a66868583610591565b60006001600160e01b0319821663e8a3d48560e01b14806104e657506104e68261200c565b600081815261012e60205260408120805460609291906114f49061443a565b80601f01602080910402602001604051908101604052809291908181526020018280546115209061443a565b801561156d5780601f106115425761010080835404028352916020019161156d565b820191906000526020600020905b81548152906001019060200180831161155057829003601f168201915b50505050509050600061157e610ea5565b90508051600003611590575092915050565b8151156115a9576115a181836120ae565b949350505050565b806115b38561218b565b6040516020016115c4929190614662565b60405160208183030381529060405292505050919050565b825160601c33808214806115f557506115f582826111f5565b6116525760405162461bcd60e51b815260206004820152602860248201527f455243313135353a207472616e736665722063616c6c6572206973206e6f7420604482015267185c1c1c9bdd995960c21b60648201526084016104b8565b600083116116955760405162461bcd60e51b815260206004820152601060248201526f185b5bdd5b9d081a5b98dbdc9c9958dd60821b60448201526064016104b8565b845160009081526101fc602052604081205490036118635784606001516000815181106116c4576116c4614474565b6020026020010151600001516001600160a01b0316826001600160a01b0316146117245760405162461bcd60e51b81526020600482015260116024820152701d1bdad95b9259081a5b98dbdc9c9958dd607a1b60448201526064016104b8565b600085604001511161176b5760405162461bcd60e51b815260206004820152601060248201526f1cdd5c1c1b1e481a5b98dbdc9c9958dd60821b60448201526064016104b8565b8460a00151518560600151511461178157600080fd5b600061178c8661228b565b905060005b866060015151811015611818576000876060015182815181106117b6576117b6614474565b6020026020010151600001519050836001600160a01b0316816001600160a01b0316146118055761180581848a60a0015185815181106117f8576117f8614474565b60200260200101516124b1565b5080611810816144ee565b915050611791565b5061182b866000015187604001516124bc565b61183d86600001518760800151612527565b61184f86600001518760600151612741565b6118618660000151876020015161299e565b505b61188284866000015185604051806020016040528060008152506129fc565b836001600160a01b0316826001600160a01b03161461192e57845160408051918252602082018590526001600160a01b038085169260009291851691600080516020614b01833981519152910160405180910390a4836001600160a01b0316826001600160a01b0316826001600160a01b0316600080516020614b01833981519152886000015187604051611921929190918252602082015260400190565b60405180910390a461127f565b845160408051918252602082018590526001600160a01b038087169260009291851691600080516020614b01833981519152910160405180910390a45050505050565b600054610100900460ff16158080156119915750600054600160ff909116105b806119ab5750303b1580156119ab575060005460ff166001145b6119c75760405162461bcd60e51b81526004016104b890614691565b6000805460ff1916600117905580156119ea576000805461ff0019166101001790555b6119f2612a0e565b6119fa612a3e565b611a02612ae7565b611a0a612ae7565b611a12612b0e565b611a2a60405180602001604052806000815250612bca565b611a3384612c7c565b611a3b612a3e565b611a43612a3e565b611a4d8787612d33565b611a55612a3e565b611a5e85611c9a565b611a69836001612e00565b611a74826001612e00565b8015611aa4576000805461ff001916905560405160018152600080516020614b6f83398151915290602001610cd0565b50505050505050565b60008184841115611ad15760405162461bcd60e51b81526004016104b8919061398b565b505050900390565b600061120182846144d6565b6001600160a01b0384163b15610a665760405163bc197c8160e01b81526001600160a01b0385169063bc197c8190611b2990899089908890889088906004016146df565b6020604051808303816000875af1925050508015611b64575060408051601f3d908101601f19168201909252611b619181019061473d565b60015b611c1057611b7061475a565b806308c379a003611ba95750611b84614776565b80611b8f5750611bab565b8060405162461bcd60e51b81526004016104b8919061398b565b505b60405162461bcd60e51b815260206004820152603460248201527f455243313135353a207472616e7366657220746f206e6f6e20455243313135356044820152732932b1b2b4bb32b91034b6b83632b6b2b73a32b960611b60648201526084016104b8565b6001600160e01b0319811663bc197c8160e01b14611aa45760405162461bcd60e51b81526004016104b8906147ff565b6033546001600160a01b03163314610f4a5760405162461bcd60e51b815260206004820181905260248201527f4f776e61626c653a2063616c6c6572206973206e6f7420746865206f776e657260448201526064016104b8565b61012f611ca7828261488d565b5050565b806000606084901c338103611d155760008581526101fc60205260409020548492508015611cfd5760008681526101fd6020526040812054611ced908361464b565b905080861115611cfb578093505b505b611d078684612e58565b611d11838661464b565b9350505b509250929050565b6001600160a01b038316331480611d395750611d3983336111f5565b611d555760405162461bcd60e51b81526004016104b890614602565b61067d838383612e80565b603380546001600160a01b038381166001600160a01b0319831681179093556040519116919082907f8be0079c531659141344cd1fd0a4f28419497f9722a3daafe3b4186f6b6457e090600090a35050565b60008381526101fa6020526040812054905b8181101561127f5760008581526101fa6020526040902080546001600160a01b038616919083908110611df957611df9614474565b6000918252602090912001546001600160a01b031603611e615760008581526101fa60205260409020805484919083908110611e3757611e37614474565b600091825260209091200180546001600160a01b0319166001600160a01b03929092169190911790555b80611e6b816144ee565b915050611dc4565b6001600160a01b038116600090815260c9602052604081205460ff168061120157506001600160a01b0380841660009081526098602090815260408083209386168352929052205460ff16611201565b60408051600180825281830190925260609160009190602080830190803683370190505090508281600081518110611efd57611efd614474565b602090810291909101015292915050565b6001600160a01b0384163b15610a665760405163f23a6e6160e01b81526001600160a01b0385169063f23a6e6190611f52908990899088908890889060040161494c565b6020604051808303816000875af1925050508015611f8d575060408051601f3d908101601f19168201909252611f8a9181019061473d565b60015b611f9957611b7061475a565b6001600160e01b0319811663f23a6e6160e01b14611aa45760405162461bcd60e51b81526004016104b8906147ff565b6001600160a01b038316331480611fe55750611fe583336111f5565b6120015760405162461bcd60e51b81526004016104b890614602565b61067d83838361303e565b60006001600160e01b03198216636db15a0f60e01b148061203d57506001600160e01b0319821663656cb66560e11b145b8061205857506001600160e01b0319821663152a902d60e11b145b8061207357506001600160e01b031982166301ffc9a760e01b145b8061208e57506001600160e01b03198216636cdb3d1360e11b145b806104e657506001600160e01b031982166303a24d0760e21b1492915050565b805182516060918491849110156120ea5784846040516020016120d2929190614662565b604051602081830303815290604052925050506104e6565b60005b82518110156121815782818151811061210857612108614474565b602001015160f81c60f81b6001600160f81b03191682828151811061212f5761212f614474565b01602001516001600160f81b0319161461216f578585604051602001612156929190614662565b60405160208183030381529060405293505050506104e6565b80612179816144ee565b9150506120ed565b5092949350505050565b6060816000036121b25750506040805180820190915260018152600360fc1b602082015290565b8160005b81156121dc57806121c6816144ee565b91506121d59050600a8361453c565b91506121b6565b6000816001600160401b038111156121f6576121f66139b7565b6040519080825280601f01601f191660200182016040528015612220576020820181803683370190505b5090505b84156115a15761223560018361464b565b9150612242600a86614991565b61224d9060306144d6565b60f81b81838151811061226257612262614474565b60200101906001600160f81b031916908160001a905350612284600a8661453c565b9450612224565b6000808260800151516001600160401b038111156122ab576122ab6139b7565b6040519080825280602002602001820160405280156122d4578160200160208202803683370190505b50905060005b83608001515181101561233c5761230d8460800151828151811061230057612300614474565b602002602001015161312a565b82828151811061231f5761231f614474565b602090810291909101015280612334816144ee565b9150506122da565b5060008360600151516001600160401b0381111561235c5761235c6139b7565b604051908082528060200260200182016040528015612385578160200160208202803683370190505b50905060005b8460600151518110156123e0576123b18560600151828151811061230057612300614474565b8282815181106123c3576123c3614474565b6020908102919091010152806123d8816144ee565b91505061238b565b507ffb988707ebb338694f318760b0fd5cfe756d00a2ade251fda110b80c336a3c7f846000015185604001518660200151805190602001208460405160200161242991906149a5565b604051602081830303815290604052805190602001208660405160200161245091906149a5565b60408051601f198184030181528282528051602091820120908301979097528101949094526060840192909252608083015260a082015260c081019190915260e0016040516020818303038152906040528051906020012092505050919050565b61067d8383836131a6565b60008281526101fc6020526040902054156124d657600080fd5b60008281526101fc602090815260409182902083905581518481529081018390527f5e2aa66efd74cce82b21852e317e5490d9ecc9e6bb953ae24d90851258cc2f5c91015b60405180910390a15050565b6000805b82518110156126d75760006001600160a01b031683828151811061255157612551614474565b6020026020010151600001516001600160a01b0316036125b35760405162461bcd60e51b815260206004820152601b60248201527f526563697069656e742073686f756c642062652070726573656e74000000000060448201526064016104b8565b8281815181106125c5576125c5614474565b6020026020010151602001516001600160601b03166000036126295760405162461bcd60e51b815260206004820181905260248201527f526f79616c74792076616c75652073686f756c6420626520706f73697469766560448201526064016104b8565b82818151811061263b5761263b614474565b6020026020010151602001516001600160601b03168261265b91906144d6565b91506101fa600085815260200190815260200160002083828151811061268357612683614474565b6020908102919091018101518254600181018455600093845292829020815191909201516001600160601b0316600160a01b026001600160a01b0390911617910155806126cf816144ee565b91505061252b565b5061271081106127375760405162461bcd60e51b815260206004820152602560248201527f526f79616c747920746f74616c2076616c75652073686f756c64206265203c20604482015264031303030360dc1b60648201526084016104b8565b61067d8383613315565b60008281526101fb6020526040812090805b83518110156128f65760006001600160a01b031684828151811061277957612779614474565b6020026020010151600001516001600160a01b0316036127db5760405162461bcd60e51b815260206004820152601960248201527f4163636f756e742073686f756c642062652070726573656e740000000000000060448201526064016104b8565b8381815181106127ed576127ed614474565b6020026020010151602001516001600160601b03166000036128515760405162461bcd60e51b815260206004820181905260248201527f43726561746f722073686172652073686f756c6420626520706f73697469766560448201526064016104b8565b8284828151811061286457612864614474565b6020908102919091018101518254600181018455600093845292829020815191909201516001600160601b0316600160a01b026001600160a01b039091161791015583516128e2908590839081106128be576128be614474565b6020026020010151602001516001600160601b031683611ad990919063ffffffff16565b9150806128ee816144ee565b915050612753565b50806127101461295f5760405162461bcd60e51b815260206004820152602e60248201527f746f74616c20616d6f756e74206f662063726561746f7273207368617265207360448201526d0686f756c642062652031303030360941b60648201526084016104b8565b7f841ffb90d4cabdd1f16034f3fa831d79060febbb8167bdd54a49269365bdf78f84846040516129909291906149db565b60405180910390a150505050565b600082815261012e602052604090206129b7828261488d565b50817f6bb7ff708619ba0610cba295a58592e0451dee2622938c8755667688daf3529b6129e3846114d5565b6040516129f0919061398b565b60405180910390a25050565b612a0884848484613346565b50505050565b600054610100900460ff16612a355760405162461bcd60e51b81526004016104b8906149f4565b610f4a33611d60565b600054610100900460ff1615808015612a5e5750600054600160ff909116105b80612a785750303b158015612a78575060005460ff166001145b612a945760405162461bcd60e51b81526004016104b890614691565b6000805460ff191660011790558015612ab7576000805461ff0019166101001790555b80156113dd576000805461ff001916905560405160018152600080516020614b6f83398151915290602001610c2d565b600054610100900460ff16610f4a5760405162461bcd60e51b81526004016104b8906149f4565b600054610100900460ff1615808015612b2e5750600054600160ff909116105b80612b485750303b158015612b48575060005460ff166001145b612b645760405162461bcd60e51b81526004016104b890614691565b6000805460ff191660011790558015612b87576000805461ff0019166101001790555b612ab7604051806040016040528060088152602001674d696e743131353560c01b815250604051806040016040528060018152602001603160f81b8152506134a4565b600054610100900460ff1615808015612bea5750600054600160ff909116105b80612c045750303b158015612c04575060005460ff166001145b612c205760405162461bcd60e51b81526004016104b890614691565b6000805460ff191660011790558015612c43576000805461ff0019166101001790555b612c4c826134e7565b8015611ca7576000805461ff001916905560405160018152600080516020614b6f8339815191529060200161251b565b600054610100900460ff1615808015612c9c5750600054600160ff909116105b80612cb65750303b158015612cb6575060005460ff166001145b612cd25760405162461bcd60e51b81526004016104b890614691565b6000805460ff191660011790558015612cf5576000805461ff0019166101001790555b610230612d02838261488d565b508015611ca7576000805461ff001916905560405160018152600080516020614b6f8339815191529060200161251b565b600054610100900460ff1615808015612d535750600054600160ff909116105b80612d6d5750303b158015612d6d575060005460ff166001145b612d895760405162461bcd60e51b81526004016104b890614691565b6000805460ff191660011790558015612dac576000805461ff0019166101001790555b610262612db9848261488d565b50610263612dc7838261488d565b50801561067d576000805461ff001916905560405160018152600080516020614b6f8339815191529060200160405180910390a1505050565b6001600160a01b038216600081815260c96020908152604091829020805460ff191685151590811790915591519182527f270dbb8ba4292910ae92862466486be25c355c837270a3d8824b36a8bc7c653b91016129f0565b60008281526101fd602052604081208054839290612e779084906144d6565b90915550505050565b6001600160a01b038316612ea65760405162461bcd60e51b81526004016104b890614a3f565b8051825114612ec75760405162461bcd60e51b81526004016104b890614550565b604080516020810190915260009081905233905b8351811015612fdf57612f79838281518110612ef957612ef9614474565b6020026020010151604051806060016040528060248152602001614b216024913960976000888681518110612f3057612f30614474565b602002602001015181526020019081526020016000206000896001600160a01b03166001600160a01b0316815260200190815260200160002054611aad9092919063ffffffff16565b60976000868481518110612f8f57612f8f614474565b602002602001015181526020019081526020016000206000876001600160a01b03166001600160a01b03168152602001908152602001600020819055508080612fd7906144ee565b915050612edb565b5060006001600160a01b0316846001600160a01b0316826001600160a01b03167f4a39dc06d4c0dbc64b70af90fd698a233a518aa5d07e595d983b8c0526c8f7fb86866040516130309291906145dd565b60405180910390a450505050565b6001600160a01b0383166130645760405162461bcd60e51b81526004016104b890614a3f565b336130948185600061307587611ec3565b61307e87611ec3565b5050604080516020810190915260009052505050565b6130db82604051806060016040528060248152602001614b216024913960008681526097602090815260408083206001600160a01b038b1684529091529020549190611aad565b60008481526097602090815260408083206001600160a01b038981168086529184528285209590955581518881529283018790529293851691600080516020614b018339815191529101613030565b8051602080830151604051600093613189937f397e04204c1e1a60ee8724b71f8244e10ab5f2e9009854d80f602bda21b59ebb939192019283526001600160a01b039190911660208301526001600160601b0316604082015260600190565b604051602081830303815290604052805190602001209050919050565b60006131b1836134f3565b9050600082516041036131cb576131c88284613541565b90505b846001600160a01b0316816001600160a01b03161461127f576001600160a01b0385163b156132ca57604051630b135d3f60e11b808252906001600160a01b03871690631626ba7e906132249086908890600401614a82565b602060405180830381865afa158015613241573d6000803e3d6000fd5b505050506040513d601f19601f82011682018060405250810190613265919061473d565b6001600160e01b031916146040518060400160405280601c81526020017f7369676e617475726520766572696669636174696f6e206572726f7200000000815250906132c45760405162461bcd60e51b81526004016104b8919061398b565b5061127f565b604080518082018252601c81527f7369676e617475726520766572696669636174696f6e206572726f72000000006020820152905162461bcd60e51b81526104b8919060040161398b565b7f3fa96d7b6bcbfe71ef171666d84db3cf52fa2d1c8afdb1cc8e486177f208b7df828260405161251b9291906149db565b60008381526101fd6020526040812054613361908490611ad9565b60008581526101fc60205260409020549091508111156133b65760405162461bcd60e51b815260206004820152601060248201526f6d6f7265207468616e20737570706c7960801b60448201526064016104b8565b60008481526101fd602052604090208190556001600160a01b0385166134285760405162461bcd60e51b815260206004820152602160248201527f455243313135353a206d696e7420746f20746865207a65726f206164647265736044820152607360f81b60648201526084016104b8565b336134428160008861343989611ec3565b61127f89611ec3565b60008581526097602090815260408083206001600160a01b038a16845290915290205461346f9085611ad9565b60008681526097602090815260408083206001600160a01b038b168452909152812091909155610a6690829088888888611f0e565b600054610100900460ff166134cb5760405162461bcd60e51b81526004016104b8906149f4565b8151602092830120815191909201206101629190915561016355565b6099611ca7828261488d565b60006104e66135006135bc565b8360405161190160f01b6020820152602281018390526042810182905260009060620160405160208183030381529060405280519060200120905092915050565b600081516041146135945760405162461bcd60e51b815260206004820152601f60248201527f45434453413a20696e76616c6964207369676e6174757265206c656e6774680060448201526064016104b8565b60208201516040830151606084015160001a6135b28682858561363e565b9695505050505050565b60006136397f8b73c3c69bb8fe3d512ecc4cf759cc79239f7b179b0ffacaa9a75d522b39400f6135ec6101625490565b610163546040805160208101859052908101839052606081018290524660808201523060a082015260009060c0016040516020818303038152906040528051906020012090509392505050565b905090565b60007f7fffffffffffffffffffffffffffffff5d576e7357a4501ddfe92f46681b20a08211156136bb5760405162461bcd60e51b815260206004820152602260248201527f45434453413a20696e76616c6964207369676e6174757265202773272076616c604482015261756560f01b60648201526084016104b8565b6000601e8560ff161115613784576136d4600486614a9b565b60ff16601b14806136f257506136eb600486614a9b565b60ff16601c145b61370e5760405162461bcd60e51b81526004016104b890614abe565b600161371987613874565b613724600488614a9b565b6040805160008152602081018083529390935260ff90911690820152606081018690526080810185905260a0016020604051602081039080840390855afa158015613773573d6000803e3d6000fd5b505050602060405103519050613815565b8460ff16601b148061379957508460ff16601c145b6137b55760405162461bcd60e51b81526004016104b890614abe565b60408051600081526020810180835288905260ff871691810191909152606081018590526080810184905260019060a0016020604051602081039080840390855afa158015613808573d6000803e3d6000fd5b5050506020604051035190505b6001600160a01b03811661386b5760405162461bcd60e51b815260206004820152601860248201527f45434453413a20696e76616c6964207369676e6174757265000000000000000060448201526064016104b8565b95945050505050565b6040517f19457468657265756d205369676e6564204d6573736167653a0a3332000000006020820152603c8101829052600090605c01613189565b6001600160a01b03811681146113dd57600080fd5b80356138cf816138af565b919050565b600080604083850312156138e757600080fd5b82356138f2816138af565b946020939093013593505050565b6001600160e01b0319811681146113dd57600080fd5b60006020828403121561392857600080fd5b813561120181613900565b60005b8381101561394e578181015183820152602001613936565b83811115612a085750506000910152565b60008151808452613977816020860160208601613933565b601f01601f19169290920160200192915050565b602081526000611201602083018461395f565b6000602082840312156139b057600080fd5b5035919050565b634e487b7160e01b600052604160045260246000fd5b604081018181106001600160401b03821117156139ec576139ec6139b7565b60405250565b601f8201601f191681016001600160401b0381118282101715613a1757613a176139b7565b6040525050565b60405160c081016001600160401b0381118282101715613a4057613a406139b7565b60405290565b600082601f830112613a5757600080fd5b81356001600160401b03811115613a7057613a706139b7565b604051613a87601f8301601f1916602001826139f2565b818152846020838601011115613a9c57600080fd5b816020850160208301376000918101602001919091529392505050565b60006001600160401b03821115613ad257613ad26139b7565b5060051b60200190565b600082601f830112613aed57600080fd5b81356020613afa82613ab9565b60408051613b0883826139f2565b84815260069490941b8601830193838101925087851115613b2857600080fd5b8387015b85811015613b875782818a031215613b445760008081fd5b8251613b4f816139cd565b8135613b5a816138af565b8152818601356001600160601b0381168114613b765760008081fd5b818701528452928401928201613b2c565b50979650505050505050565b600082601f830112613ba457600080fd5b81356020613bb182613ab9565b604051613bbe82826139f2565b83815260059390931b8501820192828101915086841115613bde57600080fd5b8286015b84811015613c1d5780356001600160401b03811115613c015760008081fd5b613c0f8986838b0101613a46565b845250918301918301613be2565b509695505050505050565b600060c08284031215613c3a57600080fd5b613c42613a1e565b90508135815260208201356001600160401b0380821115613c6257600080fd5b613c6e85838601613a46565b6020840152604084013560408401526060840135915080821115613c9157600080fd5b613c9d85838601613adc565b60608401526080840135915080821115613cb657600080fd5b613cc285838601613adc565b608084015260a0840135915080821115613cdb57600080fd5b50613ce884828501613b93565b60a08301525092915050565b600080600060608486031215613d0957600080fd5b83356001600160401b03811115613d1f57600080fd5b613d2b86828701613c28565b9350506020840135613d3c816138af565b929592945050506040919091013590565b60008060008060008060c08789031215613d6657600080fd5b86356001600160401b0380821115613d7d57600080fd5b613d898a838b01613a46565b97506020890135915080821115613d9f57600080fd5b613dab8a838b01613a46565b96506040890135915080821115613dc157600080fd5b613dcd8a838b01613a46565b95506060890135915080821115613de357600080fd5b50613df089828a01613a46565b935050613dff608088016138c4565b9150613e0d60a088016138c4565b90509295509295509295565b60008060408385031215613e2c57600080fd5b50508035926020909101359150565b600082601f830112613e4c57600080fd5b81356020613e5982613ab9565b604051613e6682826139f2565b83815260059390931b8501820192828101915086841115613e8657600080fd5b8286015b84811015613c1d5780358352918301918301613e8a565b600080600080600060a08688031215613eb957600080fd5b8535613ec4816138af565b94506020860135613ed4816138af565b935060408601356001600160401b0380821115613ef057600080fd5b613efc89838a01613e3b565b94506060880135915080821115613f1257600080fd5b613f1e89838a01613e3b565b93506080880135915080821115613f3457600080fd5b50613f4188828901613a46565b9150509295509295909350565b600060208284031215613f6057600080fd5b8135611201816138af565b600082601f830112613f7c57600080fd5b81356020613f8982613ab9565b604051613f9682826139f2565b83815260059390931b8501820192828101915086841115613fb657600080fd5b8286015b84811015613c1d578035613fcd816138af565b8352918301918301613fba565b60008060408385031215613fed57600080fd5b82356001600160401b038082111561400457600080fd5b61401086838701613f6b565b9350602085013591508082111561402657600080fd5b5061403385828601613e3b565b9150509250929050565b600081518084526020808501945080840160005b8381101561406d57815187529582019590820190600101614051565b509495945050505050565b602081526000611201602083018461403d565b60006020828403121561409d57600080fd5b81356001600160401b038111156140b357600080fd5b6115a184828501613a46565b600080600080600080600060e0888a0312156140da57600080fd5b87356001600160401b03808211156140f157600080fd5b6140fd8b838c01613a46565b985060208a013591508082111561411357600080fd5b61411f8b838c01613a46565b975060408a013591508082111561413557600080fd5b6141418b838c01613a46565b965060608a013591508082111561415757600080fd5b6141638b838c01613a46565b955060808a013591508082111561417957600080fd5b506141868a828b01613f6b565b93505061419560a089016138c4565b91506141a360c089016138c4565b905092959891949750929550565b6000806000606084860312156141c657600080fd5b83356141d1816138af565b925060208401356001600160401b03808211156141ed57600080fd5b6141f987838801613e3b565b9350604086013591508082111561420f57600080fd5b5061421c86828701613e3b565b9150509250925092565b600081518084526020808501945080840160005b8381101561406d57815180516001600160a01b031688528301516001600160601b0316838801526040909601959082019060010161423a565b6020815260006112016020830184614226565b6000806040838503121561429957600080fd5b82356142a4816138af565b9150602083013580151581146142b957600080fd5b809150509250929050565b6000806000606084860312156142d957600080fd5b8335925060208401356142eb816138af565b915060408401356142fb816138af565b809150509250925092565b6000806040838503121561431957600080fd5b8235614324816138af565b915060208301356142b9816138af565b600080600080600060a0868803121561434c57600080fd5b8535614357816138af565b94506020860135614367816138af565b9350604086013592506060860135915060808601356001600160401b0381111561439057600080fd5b613f4188828901613a46565b6000806000606084860312156143b157600080fd5b83356143bc816138af565b95602085013595506040909401359392505050565b600080600080608085870312156143e757600080fd5b84356001600160401b038111156143fd57600080fd5b61440987828801613c28565b945050602085013561441a816138af565b9250604085013561442a816138af565b9396929550929360600135925050565b600181811c9082168061444e57607f821691505b60208210810361446e57634e487b7160e01b600052602260045260246000fd5b50919050565b634e487b7160e01b600052603260045260246000fd5b6001600160a01b03841681526060602082018190526000906144ae9083018561395f565b82810360408401526135b2818561395f565b634e487b7160e01b600052601160045260246000fd5b600082198211156144e9576144e96144c0565b500190565b600060018201614500576145006144c0565b5060010190565b6000816000190483118215151615614521576145216144c0565b500290565b634e487b7160e01b600052601260045260246000fd5b60008261454b5761454b614526565b500490565b60208082526028908201527f455243313135353a2069647320616e6420616d6f756e7473206c656e677468206040820152670dad2e6dac2e8c6d60c31b606082015260800190565b60208082526025908201527f455243313135353a207472616e7366657220746f20746865207a65726f206164604082015264647265737360d81b606082015260800190565b6040815260006145f0604083018561403d565b828103602084015261386b818561403d565b60208082526029908201527f455243313135353a2063616c6c6572206973206e6f74206f776e6572206e6f7260408201526808185c1c1c9bdd995960ba1b606082015260800190565b60008282101561465d5761465d6144c0565b500390565b60008351614674818460208801613933565b835190830190614688818360208801613933565b01949350505050565b6020808252602e908201527f496e697469616c697a61626c653a20636f6e747261637420697320616c72656160408201526d191e481a5b9a5d1a585b1a5e995960921b606082015260800190565b6001600160a01b0386811682528516602082015260a06040820181905260009061470b9083018661403d565b828103606084015261471d818661403d565b90508281036080840152614731818561395f565b98975050505050505050565b60006020828403121561474f57600080fd5b815161120181613900565b600060033d11156147735760046000803e5060005160e01c5b90565b600060443d10156147845790565b6040516003193d81016004833e81513d6001600160401b0381602484011181841117156147b357505050505090565b82850191508151818111156147cb5750505050505090565b843d87010160208285010111156147e55750505050505090565b6147f4602082860101876139f2565b509095945050505050565b60208082526028908201527f455243313135353a204552433131353552656365697665722072656a656374656040820152676420746f6b656e7360c01b606082015260800190565b601f82111561067d57600081815260208120601f850160051c8101602086101561486e5750805b601f850160051c820191505b81811015610a665782815560010161487a565b81516001600160401b038111156148a6576148a66139b7565b6148ba816148b4845461443a565b84614847565b602080601f8311600181146148ef57600084156148d75750858301515b600019600386901b1c1916600185901b178555610a66565b600085815260208120601f198616915b8281101561491e578886015182559484019460019091019084016148ff565b508582101561493c5787850151600019600388901b60f8161c191681555b5050505050600190811b01905550565b6001600160a01b03868116825285166020820152604081018490526060810183905260a0608082018190526000906149869083018461395f565b979650505050505050565b6000826149a0576149a0614526565b500690565b815160009082906020808601845b838110156149cf578151855293820193908201906001016149b3565b50929695505050505050565b8281526040602082015260006115a16040830184614226565b6020808252602b908201527f496e697469616c697a61626c653a20636f6e7472616374206973206e6f74206960408201526a6e697469616c697a696e6760a81b606082015260800190565b60208082526023908201527f455243313135353a206275726e2066726f6d20746865207a65726f206164647260408201526265737360e81b606082015260800190565b8281526040602082015260006115a1604083018461395f565b600060ff821660ff841680821015614ab557614ab56144c0565b90039392505050565b60208082526022908201527f45434453413a20696e76616c6964207369676e6174757265202776272076616c604082015261756560f01b60608201526080019056fec3d58168c5ae7397731d063d5bbf3d657854427343f4c083240f7aacaa2d0f62455243313135353a206275726e20616d6f756e7420657863656564732062616c616e6365455243313135353a20696e73756666696369656e742062616c616e636520666f72207472616e736665727f26b83ff96e1f2b6a682f133852f6798a09c465da95921460cefb3847402498a2646970667358221220733ed663014165d67b86ce5bc0fe74336a31da475cb7fe260dc6eb8014b067a864736f6c634300080f0033",
  "immutableReferences": {},
  "source": "// SPDX-License-Identifier: MIT\r\n\r\npragma solidity ^0.8.0;\r\npragma abicoder v2;\r\n\r\nimport \"./ERC1155Base.sol\";\r\nimport \"../IsPrivateCollection.sol\";\r\nimport \"../access/MinterAccessControl.sol\";\r\n\r\ncontract ERC1155Rarible is ERC1155Base, IsPrivateCollection, MinterAccessControl {\r\n    event CreateERC1155Rarible(address owner, string name, string symbol);\r\n    event CreateERC1155RaribleUser(address owner, string name, string symbol);\r\n\r\n    function __ERC1155RaribleUser_init(string memory _name, string memory _symbol, string memory baseURI, string memory contractURI, address[] memory operators, address transferProxy, address lazyTransferProxy) external virtual {\r\n        __ERC1155Rarible_init_unchained(_name, _symbol, baseURI, contractURI, transferProxy, lazyTransferProxy);\r\n        for(uint i = 0; i < operators.length; i++) {\r\n            setApprovalForAll(operators[i], true);\r\n        }\r\n\r\n        isPrivate = true;\r\n        emit CreateERC1155RaribleUser(_msgSender(), _name, _symbol);\r\n    }\r\n    \r\n    function __ERC1155Rarible_init(string memory _name, string memory _symbol, string memory baseURI, string memory contractURI, address transferProxy, address lazyTransferProxy) external virtual {\r\n        __ERC1155Rarible_init_unchained(_name, _symbol, baseURI, contractURI, transferProxy, lazyTransferProxy);\r\n\r\n        isPrivate = false;\r\n        emit CreateERC1155Rarible(_msgSender(), _name, _symbol);\r\n    }\r\n\r\n    function __ERC1155Rarible_init_unchained(string memory _name, string memory _symbol, string memory baseURI, string memory contractURI, address transferProxy, address lazyTransferProxy) internal initializer {\r\n        __Ownable_init_unchained();\r\n        __ERC1155Lazy_init_unchained();\r\n        __ERC165_init_unchained();\r\n        __Context_init_unchained();\r\n        __Mint1155Validator_init_unchained();\r\n        __ERC1155_init_unchained(\"\");\r\n        __HasContractURI_init_unchained(contractURI);\r\n        __ERC1155Burnable_init_unchained();\r\n        __RoyaltiesV2Upgradeable_init_unchained();\r\n        __ERC1155Base_init_unchained(_name, _symbol);\r\n        __MinterAccessControl_init_unchained();\r\n        _setBaseURI(baseURI);\r\n\r\n        //setting default approver for transferProxies\r\n        _setDefaultApproval(transferProxy, true);\r\n        _setDefaultApproval(lazyTransferProxy, true);\r\n    }\r\n\r\n    function mintAndTransfer(LibERC1155LazyMint.Mint1155Data memory data, address to, uint256 _amount) public override {\r\n        if (isPrivate){\r\n          require(owner() == data.creators[0].account || isMinter(data.creators[0].account), \"not owner or minter\");\r\n        }\r\n        super.mintAndTransfer(data, to, _amount);\r\n    }\r\n}\r\n",
  "sourcePath": "D:\\work\\vizualize\\code\\rarible\\protocol-contracts\\tokens\\contracts\\erc-1155\\ERC1155Rarible.sol",
  "compiler": {
    "name": "solc",
    "version": "0.8.15+commit.e14f2714.Emscripten.clang"
  },
  "schemaVersion": "3.4.8",
  "updatedAt": "2022-07-18T14:43:50.406Z",
  "devdoc": {
    "kind": "dev",
    "methods": {
      "addMinter(address)": {
        "details": "Add `_minter` to the list of allowed minters."
      },
      "balanceOf(address,uint256)": {
        "details": "See {IERC1155-balanceOf}. Requirements: - `account` cannot be the zero address."
      },
      "balanceOfBatch(address[],uint256[])": {
        "details": "See {IERC1155-balanceOfBatch}. Requirements: - `accounts` and `ids` must have the same length."
      },
      "baseURI()": {
        "details": "Returns the base URI set via {_setBaseURI}. This will be automatically added as a prefix in {tokenURI} to each token's URI, or to the token ID if no specific URI is set for that token ID."
      },
      "isMinter(address)": {
        "details": "Returns `true` if `account` has been granted to minters."
      },
      "owner()": {
        "details": "Returns the address of the current owner."
      },
      "removeMinter(address)": {
        "details": "Revoke `_minter` from the list of allowed minters."
      },
      "renounceOwnership()": {
        "details": "Leaves the contract without owner. It will not be possible to call `onlyOwner` functions anymore. Can only be called by the current owner. NOTE: Renouncing ownership will leave the contract without an owner, thereby removing any functionality that is only available to the owner."
      },
      "safeBatchTransferFrom(address,address,uint256[],uint256[],bytes)": {
        "details": "See {IERC1155-safeBatchTransferFrom}."
      },
      "safeTransferFrom(address,address,uint256,uint256,bytes)": {
        "details": "See {IERC1155-safeTransferFrom}."
      },
      "setApprovalForAll(address,bool)": {
        "details": "See {IERC1155-setApprovalForAll}."
      },
      "transferOwnership(address)": {
        "details": "Transfers ownership of the contract to a new account (`newOwner`). Can only be called by the current owner."
      }
    },
    "version": 1
  },
  "userdoc": {
    "kind": "user",
    "methods": {},
    "version": 1
  }
}