{
  "contractName": "ERC721RaribleUser",
  "abi": [
    {
      "anonymous": false,
      "inputs": [
        {
          "indexed": true,
          "internalType": "address",
          "name": "owner",
          "type": "address"
        },
        {
          "indexed": true,
          "internalType": "address",
          "name": "approved",
          "type": "address"
        },
        {
          "indexed": true,
          "internalType": "uint256",
          "name": "tokenId",
          "type": "uint256"
        }
      ],
      "name": "Approval",
      "type": "event"
    },
    {
      "anonymous": false,
      "inputs": [
        {
          "indexed": true,
          "internalType": "address",
          "name": "owner",
          "type": "address"
        },
        {
          "indexed": true,
          "internalType": "address",
          "name": "operator",
          "type": "address"
        },
        {
          "indexed": false,
          "internalType": "bool",
          "name": "approved",
          "type": "bool"
        }
      ],
      "name": "ApprovalForAll",
      "type": "event"
    },
    {
      "anonymous": false,
      "inputs": [
        {
          "indexed": false,
          "internalType": "address",
          "name": "owner",
          "type": "address"
        },
        {
          "indexed": false,
          "internalType": "string",
          "name": "name",
          "type": "string"
        },
        {
          "indexed": false,
          "internalType": "string",
          "name": "symbol",
          "type": "string"
        }
      ],
      "name": "CreateERC721RaribleUser",
      "type": "event"
    },
    {
      "anonymous": false,
      "inputs": [
        {
          "indexed": true,
          "internalType": "uint256",
          "name": "tokenId",
          "type": "uint256"
        },
        {
          "components": [
            {
              "internalType": "address payable",
              "name": "account",
              "type": "address"
            },
            {
              "internalType": "uint96",
              "name": "value",
              "type": "uint96"
            }
          ],
          "indexed": false,
          "internalType": "struct LibPart.Part[]",
          "name": "creators",
          "type": "tuple[]"
        }
      ],
      "name": "Creators",
      "type": "event"
    },
    {
      "anonymous": false,
      "inputs": [
        {
          "indexed": true,
          "internalType": "address",
          "name": "previousOwner",
          "type": "address"
        },
        {
          "indexed": true,
          "internalType": "address",
          "name": "newOwner",
          "type": "address"
        }
      ],
      "name": "OwnershipTransferred",
      "type": "event"
    },
    {
      "anonymous": false,
      "inputs": [
        {
          "indexed": false,
          "internalType": "uint256",
          "name": "tokenId",
          "type": "uint256"
        },
        {
          "components": [
            {
              "internalType": "address payable",
              "name": "account",
              "type": "address"
            },
            {
              "internalType": "uint96",
              "name": "value",
              "type": "uint96"
            }
          ],
          "indexed": false,
          "internalType": "struct LibPart.Part[]",
          "name": "royalties",
          "type": "tuple[]"
        }
      ],
      "name": "RoyaltiesSet",
      "type": "event"
    },
    {
      "anonymous": false,
      "inputs": [
        {
          "indexed": true,
          "internalType": "address",
          "name": "from",
          "type": "address"
        },
        {
          "indexed": true,
          "internalType": "address",
          "name": "to",
          "type": "address"
        },
        {
          "indexed": true,
          "internalType": "uint256",
          "name": "tokenId",
          "type": "uint256"
        }
      ],
      "name": "Transfer",
      "type": "event"
    },
    {
      "inputs": [
        {
          "internalType": "address",
          "name": "to",
          "type": "address"
        },
        {
          "internalType": "uint256",
          "name": "tokenId",
          "type": "uint256"
        }
      ],
      "name": "approve",
      "outputs": [],
      "stateMutability": "nonpayable",
      "type": "function"
    },
    {
      "inputs": [
        {
          "internalType": "address",
          "name": "owner",
          "type": "address"
        }
      ],
      "name": "balanceOf",
      "outputs": [
        {
          "internalType": "uint256",
          "name": "",
          "type": "uint256"
        }
      ],
      "stateMutability": "view",
      "type": "function"
    },
    {
      "inputs": [],
      "name": "baseURI",
      "outputs": [
        {
          "internalType": "string",
          "name": "",
          "type": "string"
        }
      ],
      "stateMutability": "view",
      "type": "function"
    },
    {
      "inputs": [
        {
          "internalType": "uint256",
          "name": "tokenId",
          "type": "uint256"
        }
      ],
      "name": "burn",
      "outputs": [],
      "stateMutability": "nonpayable",
      "type": "function"
    },
    {
      "inputs": [],
      "name": "contractURI",
      "outputs": [
        {
          "internalType": "string",
          "name": "",
          "type": "string"
        }
      ],
      "stateMutability": "view",
      "type": "function"
    },
    {
      "inputs": [
        {
          "internalType": "uint256",
          "name": "tokenId",
          "type": "uint256"
        }
      ],
      "name": "getApproved",
      "outputs": [
        {
          "internalType": "address",
          "name": "",
          "type": "address"
        }
      ],
      "stateMutability": "view",
      "type": "function"
    },
    {
      "inputs": [
        {
          "internalType": "uint256",
          "name": "_id",
          "type": "uint256"
        }
      ],
      "name": "getCreators",
      "outputs": [
        {
          "components": [
            {
              "internalType": "address payable",
              "name": "account",
              "type": "address"
            },
            {
              "internalType": "uint96",
              "name": "value",
              "type": "uint96"
            }
          ],
          "internalType": "struct LibPart.Part[]",
          "name": "",
          "type": "tuple[]"
        }
      ],
      "stateMutability": "view",
      "type": "function"
    },
    {
      "inputs": [
        {
          "internalType": "uint256",
          "name": "id",
          "type": "uint256"
        }
      ],
      "name": "getRaribleV2Royalties",
      "outputs": [
        {
          "components": [
            {
              "internalType": "address payable",
              "name": "account",
              "type": "address"
            },
            {
              "internalType": "uint96",
              "name": "value",
              "type": "uint96"
            }
          ],
          "internalType": "struct LibPart.Part[]",
          "name": "",
          "type": "tuple[]"
        }
      ],
      "stateMutability": "view",
      "type": "function"
    },
    {
      "inputs": [
        {
          "internalType": "address",
          "name": "owner",
          "type": "address"
        },
        {
          "internalType": "address",
          "name": "operator",
          "type": "address"
        }
      ],
      "name": "isApprovedForAll",
      "outputs": [
        {
          "internalType": "bool",
          "name": "",
          "type": "bool"
        }
      ],
      "stateMutability": "view",
      "type": "function"
    },
    {
      "inputs": [],
      "name": "name",
      "outputs": [
        {
          "internalType": "string",
          "name": "",
          "type": "string"
        }
      ],
      "stateMutability": "view",
      "type": "function"
    },
    {
      "inputs": [],
      "name": "owner",
      "outputs": [
        {
          "internalType": "address",
          "name": "",
          "type": "address"
        }
      ],
      "stateMutability": "view",
      "type": "function"
    },
    {
      "inputs": [
        {
          "internalType": "uint256",
          "name": "tokenId",
          "type": "uint256"
        }
      ],
      "name": "ownerOf",
      "outputs": [
        {
          "internalType": "address",
          "name": "",
          "type": "address"
        }
      ],
      "stateMutability": "view",
      "type": "function"
    },
    {
      "inputs": [],
      "name": "renounceOwnership",
      "outputs": [],
      "stateMutability": "nonpayable",
      "type": "function"
    },
    {
      "inputs": [
        {
          "internalType": "address",
          "name": "from",
          "type": "address"
        },
        {
          "internalType": "address",
          "name": "to",
          "type": "address"
        },
        {
          "internalType": "uint256",
          "name": "tokenId",
          "type": "uint256"
        }
      ],
      "name": "safeTransferFrom",
      "outputs": [],
      "stateMutability": "nonpayable",
      "type": "function"
    },
    {
      "inputs": [
        {
          "internalType": "address",
          "name": "from",
          "type": "address"
        },
        {
          "internalType": "address",
          "name": "to",
          "type": "address"
        },
        {
          "internalType": "uint256",
          "name": "tokenId",
          "type": "uint256"
        },
        {
          "internalType": "bytes",
          "name": "_data",
          "type": "bytes"
        }
      ],
      "name": "safeTransferFrom",
      "outputs": [],
      "stateMutability": "nonpayable",
      "type": "function"
    },
    {
      "inputs": [
        {
          "internalType": "address",
          "name": "operator",
          "type": "address"
        },
        {
          "internalType": "bool",
          "name": "approved",
          "type": "bool"
        }
      ],
      "name": "setApprovalForAll",
      "outputs": [],
      "stateMutability": "nonpayable",
      "type": "function"
    },
    {
      "inputs": [
        {
          "internalType": "bytes4",
          "name": "interfaceId",
          "type": "bytes4"
        }
      ],
      "name": "supportsInterface",
      "outputs": [
        {
          "internalType": "bool",
          "name": "",
          "type": "bool"
        }
      ],
      "stateMutability": "view",
      "type": "function"
    },
    {
      "inputs": [],
      "name": "symbol",
      "outputs": [
        {
          "internalType": "string",
          "name": "",
          "type": "string"
        }
      ],
      "stateMutability": "view",
      "type": "function"
    },
    {
      "inputs": [
        {
          "internalType": "uint256",
          "name": "index",
          "type": "uint256"
        }
      ],
      "name": "tokenByIndex",
      "outputs": [
        {
          "internalType": "uint256",
          "name": "",
          "type": "uint256"
        }
      ],
      "stateMutability": "view",
      "type": "function"
    },
    {
      "inputs": [
        {
          "internalType": "address",
          "name": "owner",
          "type": "address"
        },
        {
          "internalType": "uint256",
          "name": "index",
          "type": "uint256"
        }
      ],
      "name": "tokenOfOwnerByIndex",
      "outputs": [
        {
          "internalType": "uint256",
          "name": "",
          "type": "uint256"
        }
      ],
      "stateMutability": "view",
      "type": "function"
    },
    {
      "inputs": [
        {
          "internalType": "uint256",
          "name": "tokenId",
          "type": "uint256"
        }
      ],
      "name": "tokenURI",
      "outputs": [
        {
          "internalType": "string",
          "name": "",
          "type": "string"
        }
      ],
      "stateMutability": "view",
      "type": "function"
    },
    {
      "inputs": [],
      "name": "totalSupply",
      "outputs": [
        {
          "internalType": "uint256",
          "name": "",
          "type": "uint256"
        }
      ],
      "stateMutability": "view",
      "type": "function"
    },
    {
      "inputs": [
        {
          "internalType": "address",
          "name": "from",
          "type": "address"
        },
        {
          "internalType": "address",
          "name": "to",
          "type": "address"
        },
        {
          "internalType": "uint256",
          "name": "tokenId",
          "type": "uint256"
        }
      ],
      "name": "transferFrom",
      "outputs": [],
      "stateMutability": "nonpayable",
      "type": "function"
    },
    {
      "inputs": [
        {
          "components": [
            {
              "internalType": "uint256",
              "name": "tokenId",
              "type": "uint256"
            },
            {
              "internalType": "string",
              "name": "tokenURI",
              "type": "string"
            },
            {
              "components": [
                {
                  "internalType": "address payable",
                  "name": "account",
                  "type": "address"
                },
                {
                  "internalType": "uint96",
                  "name": "value",
                  "type": "uint96"
                }
              ],
              "internalType": "struct LibPart.Part[]",
              "name": "creators",
              "type": "tuple[]"
            },
            {
              "components": [
                {
                  "internalType": "address payable",
                  "name": "account",
                  "type": "address"
                },
                {
                  "internalType": "uint96",
                  "name": "value",
                  "type": "uint96"
                }
              ],
              "internalType": "struct LibPart.Part[]",
              "name": "royalties",
              "type": "tuple[]"
            },
            {
              "internalType": "bytes[]",
              "name": "signatures",
              "type": "bytes[]"
            }
          ],
          "internalType": "struct LibERC721LazyMint.Mint721Data",
          "name": "data",
          "type": "tuple"
        },
        {
          "internalType": "address",
          "name": "from",
          "type": "address"
        },
        {
          "internalType": "address",
          "name": "to",
          "type": "address"
        }
      ],
      "name": "transferFromOrMint",
      "outputs": [],
      "stateMutability": "nonpayable",
      "type": "function"
    },
    {
      "inputs": [
        {
          "internalType": "address",
          "name": "newOwner",
          "type": "address"
        }
      ],
      "name": "transferOwnership",
      "outputs": [],
      "stateMutability": "nonpayable",
      "type": "function"
    },
    {
      "inputs": [
        {
          "internalType": "uint256",
          "name": "_id",
          "type": "uint256"
        },
        {
          "internalType": "address",
          "name": "_from",
          "type": "address"
        },
        {
          "internalType": "address",
          "name": "_to",
          "type": "address"
        }
      ],
      "name": "updateAccount",
      "outputs": [],
      "stateMutability": "nonpayable",
      "type": "function"
    },
    {
      "inputs": [
        {
          "internalType": "string",
          "name": "_name",
          "type": "string"
        },
        {
          "internalType": "string",
          "name": "_symbol",
          "type": "string"
        },
        {
          "internalType": "string",
          "name": "baseURI",
          "type": "string"
        },
        {
          "internalType": "string",
          "name": "contractURI",
          "type": "string"
        },
        {
          "internalType": "address[]",
          "name": "operators",
          "type": "address[]"
        }
      ],
      "name": "__ERC721RaribleUser_init",
      "outputs": [],
      "stateMutability": "nonpayable",
      "type": "function"
    },
    {
      "inputs": [
        {
          "components": [
            {
              "internalType": "uint256",
              "name": "tokenId",
              "type": "uint256"
            },
            {
              "internalType": "string",
              "name": "tokenURI",
              "type": "string"
            },
            {
              "components": [
                {
                  "internalType": "address payable",
                  "name": "account",
                  "type": "address"
                },
                {
                  "internalType": "uint96",
                  "name": "value",
                  "type": "uint96"
                }
              ],
              "internalType": "struct LibPart.Part[]",
              "name": "creators",
              "type": "tuple[]"
            },
            {
              "components": [
                {
                  "internalType": "address payable",
                  "name": "account",
                  "type": "address"
                },
                {
                  "internalType": "uint96",
                  "name": "value",
                  "type": "uint96"
                }
              ],
              "internalType": "struct LibPart.Part[]",
              "name": "royalties",
              "type": "tuple[]"
            },
            {
              "internalType": "bytes[]",
              "name": "signatures",
              "type": "bytes[]"
            }
          ],
          "internalType": "struct LibERC721LazyMint.Mint721Data",
          "name": "data",
          "type": "tuple"
        },
        {
          "internalType": "address",
          "name": "to",
          "type": "address"
        }
      ],
      "name": "mintAndTransfer",
      "outputs": [],
      "stateMutability": "nonpayable",
      "type": "function"
    }
  ],
  "bytecode": "0x608060405234801561001057600080fd5b506143dd806100206000396000f3fe608060405234801561001057600080fd5b50600436106101c45760003560e01c8063715018a6116100f9578063c4552e2411610097578063e07f231911610071578063e07f23191461039b578063e8a3d485146103ae578063e985e9c5146103b6578063f2fde38b146103c9576101c4565b8063c4552e2414610362578063c87b56dd14610375578063cad96cca14610388576101c4565b80638da5cb5b116100d35780638da5cb5b1461032c57806395d89b4114610334578063a22cb4651461033c578063b88d4fde1461034f576101c4565b8063715018a6146102f1578063832fbb29146102f9578063891be9741461030c576101c4565b80632f745c59116101665780634f6ccce7116101405780634f6ccce7146102b05780636352211e146102c35780636c0360eb146102d657806370a08231146102de576101c4565b80632f745c591461027757806342842e0e1461028a57806342966c681461029d576101c4565b8063095ea7b3116101a2578063095ea7b31461022757806318160ddd1461023c57806322a775b61461025157806323b872dd14610264576101c4565b806301ffc9a7146101c957806306fdde03146101f2578063081812fc14610207575b600080fd5b6101dc6101d7366004613b40565b6103dc565b6040516101e99190613e18565b60405180910390f35b6101fa6103ff565b6040516101e99190613e23565b61021a610215366004613cdb565b610495565b6040516101e99190613dbb565b61023a610235366004613b15565b6104f7565b005b6102446105cd565b6040516101e99190613fc8565b61023a61025f366004613c34565b6105de565b61023a610272366004613a3a565b610649565b610244610285366004613b15565b6106a0565b61023a610298366004613a3a565b6106cb565b61023a6102ab366004613cdb565b6106e6565b6102446102be366004613cdb565b610738565b61021a6102d1366004613cdb565b61074e565b6101fa610776565b6102446102ec3660046139e6565b6107d7565b61023a61083f565b61023a610307366004613c79565b6108fd565b61031f61031a366004613cdb565b61092b565b6040516101e99190613e05565b61021a6109bb565b6101fa6109ca565b61023a61034a366004613ae4565b610a2b565b61023a61035d366004613a7a565b610b30565b61023a610370366004613b68565b610b8e565b6101fa610383366004613cdb565b610cfe565b61031f610396366004613cdb565b610f7f565b61023a6103a9366004613cf3565b610ffa565b6101fa61103d565b6101dc6103c4366004613a02565b6110cc565b61023a6103d73660046139e6565b6110fa565b6001600160e01b0319811660009081526065602052604090205460ff165b919050565b609c8054604080516020601f600260001961010060018816150201909516949094049384018190048102820181019092528281526060939092909183018282801561048b5780601f106104605761010080835404028352916020019161048b565b820191906000526020600020905b81548152906001019060200180831161046e57829003601f168201915b5050505050905090565b60006104a08261120f565b6104db5760405162461bcd60e51b815260040180806020018281038252602c815260200180614251602c913960400191505060405180910390fd5b506000908152609a60205260409020546001600160a01b031690565b60006105028261074e565b9050806001600160a01b0316836001600160a01b031614156105555760405162461bcd60e51b81526004018080602001828103825260218152602001806143016021913960400191505060405180910390fd5b806001600160a01b031661056761121c565b6001600160a01b031614806105835750610583816103c461121c565b6105be5760405162461bcd60e51b81526004018080602001828103825260388152602001806141546038913960400191505060405180910390fd5b6105c88383611220565b505050565b60006105d9609861128e565b905090565b81604001516000815181106105ef57fe5b6020026020010151600001516001600160a01b031661060c6109bb565b6001600160a01b03161461063b5760405162461bcd60e51b815260040161063290613e36565b60405180910390fd5b6106458282611299565b5050565b61065a61065461121c565b8261141b565b6106955760405162461bcd60e51b81526004018080602001828103825260318152602001806143226031913960400191505060405180910390fd5b6105c88383836114bf565b6001600160a01b03821660009081526097602052604081206106c2908361160b565b90505b92915050565b6105c883838360405180602001604052806000815250610b30565b6106f161065461121c565b61072c5760405162461bcd60e51b81526004018080602001828103825260308152602001806143786030913960400191505060405180910390fd5b61073581611617565b50565b6000806107466098846116e4565b509392505050565b60006106c5826040518060600160405280602981526020016141b66029913960989190611700565b609f8054604080516020601f600260001961010060018816150201909516949094049384018190048102820181019092528281526060939092909183018282801561048b5780601f106104605761010080835404028352916020019161048b565b60006001600160a01b03821661081e5760405162461bcd60e51b815260040180806020018281038252602a81526020018061418c602a913960400191505060405180910390fd5b6001600160a01b03821660009081526097602052604090206106c59061128e565b61084761121c565b6001600160a01b03166108586109bb565b6001600160a01b0316146108b3576040805162461bcd60e51b815260206004820181905260248201527f4f776e61626c653a2063616c6c6572206973206e6f7420746865206f776e6572604482015290519081900360640190fd5b6033546040516000916001600160a01b0316907f8be0079c531659141344cd1fd0a4f28419497f9722a3daafe3b4186f6b6457e0908390a3603380546001600160a01b0319169055565b82516109089061120f565b156109215761091c828285600001516106cb565b6105c8565b6105c883826105de565b60606101946000838152602001908152602001600020805480602002602001604051908101604052809291908181526020016000905b828210156109b057600084815260209081902060408051808201909152908401546001600160a01b0381168252600160a01b90046001600160601b031681830152825260019092019101610961565b505050509050919050565b6033546001600160a01b031690565b609d8054604080516020601f600260001961010060018816150201909516949094049384018190048102820181019092528281526060939092909183018282801561048b5780601f106104605761010080835404028352916020019161048b565b610a3361121c565b6001600160a01b0316826001600160a01b03161415610a99576040805162461bcd60e51b815260206004820152601960248201527f4552433732313a20617070726f766520746f2063616c6c657200000000000000604482015290519081900360640190fd5b80609b6000610aa661121c565b6001600160a01b03908116825260208083019390935260409182016000908120918716808252919093529120805460ff191692151592909217909155610aea61121c565b6001600160a01b03167f17307eab39ab6107e8899845ad3d59bd9653f200f220920489ca2b5937696c318360405180821515815260200191505060405180910390a35050565b610b41610b3b61121c565b8361141b565b610b7c5760405162461bcd60e51b81526004018080602001828103825260318152602001806143226031913960400191505060405180910390fd5b610b8884848484611717565b50505050565b600054610100900460ff1680610ba75750610ba7611769565b80610bb5575060005460ff16155b610bf05760405162461bcd60e51b815260040180806020018281038252602e8152602001806141df602e913960400191505060405180910390fd5b600054610100900460ff16158015610c1b576000805460ff1961ff0019909116610100171660011790555b610c248461177a565b610c2c61178d565b610c3461183e565b610c3c6118de565b610c4461197b565b610c4c61183e565b610c54611a74565b610c5d83611b43565b610c65611c0a565b610c6f8686611ca7565b60005b8251811015610ca157610c99838281518110610c8a57fe5b60200260200101516001610a2b565b600101610c72565b507fd901a467fa419f379a67636a1de44cc2ed772beb43a0c05fa1ddcad5d59e9913610ccb61121c565b8787604051610cdc93929190613dcf565b60405180910390a18015610cf6576000805461ff00191690555b505050505050565b6060610d098261120f565b610d445760405162461bcd60e51b815260040180806020018281038252602f8152602001806142d2602f913960400191505060405180910390fd5b6000828152609e602090815260408083208054825160026001831615610100026000190190921691909104601f810185900485028201850190935282815292909190830182828015610dd75780601f10610dac57610100808354040283529160200191610dd7565b820191906000526020600020905b815481529060010190602001808311610dba57829003601f168201915b505050505090506000610de8610776565b9050805160001415610dfc575090506103fa565b815115610ebd5780826040516020018083805190602001908083835b60208310610e375780518252601f199092019160209182019101610e18565b51815160209384036101000a600019018019909216911617905285519190930192850191508083835b60208310610e7f5780518252601f199092019160209182019101610e60565b6001836020036101000a03801982511681845116808217855250505050505090500192505050604051602081830303815290604052925050506103fa565b80610ec785611da2565b6040516020018083805190602001908083835b60208310610ef95780518252601f199092019160209182019101610eda565b51815160209384036101000a600019018019909216911617905285519190930192850191508083835b60208310610f415780518252601f199092019160209182019101610f22565b6001836020036101000a0380198251168184511680821785525050505050509050019250505060405160208183030381529060405292505050919050565b6000818152610193602090815260408083208054825181850281018501909352808352606094929391929091840182156109b057600084815260209081902060408051808201909152908401546001600160a01b0381168252600160a01b90046001600160601b031681830152825260019092019101610961565b816001600160a01b031661100c61121c565b6001600160a01b0316146110325760405162461bcd60e51b815260040161063290613ecd565b6105c8838383611e7d565b6101c7805460408051602060026001851615610100026000190190941693909304601f810184900484028201840190925281815292918301828280156110c45780601f10611099576101008083540402835291602001916110c4565b820191906000526020600020905b8154815290600101906020018083116110a757829003601f168201915b505050505081565b6001600160a01b039182166000908152609b6020908152604080832093909416825291909152205460ff1690565b61110261121c565b6001600160a01b03166111136109bb565b6001600160a01b03161461116e576040805162461bcd60e51b815260206004820181905260248201527f4f776e61626c653a2063616c6c6572206973206e6f7420746865206f776e6572604482015290519081900360640190fd5b6001600160a01b0381166111b35760405162461bcd60e51b81526004018080602001828103825260268152602001806140966026913960400191505060405180910390fd5b6033546040516001600160a01b038084169216907f8be0079c531659141344cd1fd0a4f28419497f9722a3daafe3b4186f6b6457e090600090a3603380546001600160a01b0319166001600160a01b0392909216919091179055565b60006106c5609883611f29565b3390565b6000818152609a6020526040902080546001600160a01b0319166001600160a01b03841690811790915581906112558261074e565b6001600160a01b03167f8c5be1e5ebec7d5bd14f71427d1e84f3dd0314c0f7b2291e5b200ac8c7c3b92560405160405180910390a45050565b60006106c582611f35565b815160601c60006112a861121c565b905083604001516000815181106112bb57fe5b6020026020010151600001516001600160a01b0316826001600160a01b0316146112f75760405162461bcd60e51b815260040161063290613ea2565b8360800151518460400151511461130d57600080fd5b806001600160a01b0316826001600160a01b03161480611332575061133282826110cc565b61134e5760405162461bcd60e51b815260040161063290613f29565b600061135985611f39565b905060005b8560400151518110156113cf5760008660400151828151811061137d57fe5b6020026020010151600001519050836001600160a01b0316816001600160a01b0316146113c6576113c68184896080015185815181106113b957fe5b6020026020010151612182565b5060010161135e565b506113de84866000015161218d565b6113f0856000015186606001516121a7565b61140285600001518660400151612396565b61141485600001518660200151612544565b5050505050565b60006114268261120f565b6114615760405162461bcd60e51b815260040180806020018281038252602c815260200180614128602c913960400191505060405180910390fd5b600061146c8361074e565b9050806001600160a01b0316846001600160a01b031614806114a75750836001600160a01b031661149c84610495565b6001600160a01b0316145b806114b757506114b781856110cc565b949350505050565b826001600160a01b03166114d28261074e565b6001600160a01b0316146115175760405162461bcd60e51b81526004018080602001828103825260298152602001806142a96029913960400191505060405180910390fd5b6001600160a01b03821661155c5760405162461bcd60e51b81526004018080602001828103825260248152602001806140bc6024913960400191505060405180910390fd5b6115678383836105c8565b611572600082611220565b6001600160a01b038316600090815260976020526040902061159490826125a7565b506001600160a01b03821660009081526097602052604090206115b790826125b3565b506115c4609882846125bf565b5080826001600160a01b0316846001600160a01b03167fddf252ad1be2c89b69c2b068fc378daa952ba7f163c4a11628f55a4df523b3ef60405160405180910390a4505050565b60006106c283836125d5565b60006116228261074e565b9050611630816000846105c8565b61163b600083611220565b6000828152609e60205260409020546002600019610100600184161502019091160415611679576000828152609e6020526040812061167991613652565b6001600160a01b038116600090815260976020526040902061169b90836125a7565b506116a7609883612639565b5060405182906000906001600160a01b038416907fddf252ad1be2c89b69c2b068fc378daa952ba7f163c4a11628f55a4df523b3ef908390a45050565b60008080806116f38686612645565b9097909650945050505050565b600061170d8484846126c0565b90505b9392505050565b6117228484846114bf565b61172e8484848461278a565b610b885760405162461bcd60e51b81526004018080602001828103825260328152602001806140646032913960400191505060405180910390fd5b6000611774306128f2565b15905090565b805161064590609f906020840190613696565b600054610100900460ff16806117a657506117a6611769565b806117b4575060005460ff16155b6117ef5760405162461bcd60e51b815260040180806020018281038252602e8152602001806141df602e913960400191505060405180910390fd5b600054610100900460ff1615801561181a576000805460ff1961ff0019909116610100171660011790555b61182a638486f69f60e01b6128f8565b8015610735576000805461ff001916905550565b600054610100900460ff16806118575750611857611769565b80611865575060005460ff16155b6118a05760405162461bcd60e51b815260040180806020018281038252602e8152602001806141df602e913960400191505060405180910390fd5b600054610100900460ff1615801561182a576000805460ff1961ff0019909116610100171660011790558015610735576000805461ff001916905550565b600054610100900460ff16806118f757506118f7611769565b80611905575060005460ff16155b6119405760405162461bcd60e51b815260040180806020018281038252602e8152602001806141df602e913960400191505060405180910390fd5b600054610100900460ff1615801561196b576000805460ff1961ff0019909116610100171660011790555b61182a6301ffc9a760e01b6128f8565b600054610100900460ff16806119945750611994611769565b806119a2575060005460ff16155b6119dd5760405162461bcd60e51b815260040180806020018281038252602e8152602001806141df602e913960400191505060405180910390fd5b600054610100900460ff16158015611a08576000805460ff1961ff0019909116610100171660011790555b6000611a1261121c565b603380546001600160a01b0319166001600160a01b038316908117909155604051919250906000907f8be0079c531659141344cd1fd0a4f28419497f9722a3daafe3b4186f6b6457e0908290a3508015610735576000805461ff001916905550565b600054610100900460ff1680611a8d5750611a8d611769565b80611a9b575060005460ff16155b611ad65760405162461bcd60e51b815260040180806020018281038252602e8152602001806141df602e913960400191505060405180910390fd5b600054610100900460ff16158015611b01576000805460ff1961ff0019909116610100171660011790555b61182a604051806040016040528060078152602001664d696e7437323160c81b815250604051806040016040528060018152602001603160f81b81525061297c565b600054610100900460ff1680611b5c5750611b5c611769565b80611b6a575060005460ff16155b611ba55760405162461bcd60e51b815260040180806020018281038252602e8152602001806141df602e913960400191505060405180910390fd5b600054610100900460ff16158015611bd0576000805460ff1961ff0019909116610100171660011790555b8151611be4906101c7906020850190613696565b50611bf563e8a3d48560e01b6128f8565b8015610645576000805461ff00191690555050565b600054610100900460ff1680611c235750611c23611769565b80611c31575060005460ff16155b611c6c5760405162461bcd60e51b815260040180806020018281038252602e8152602001806141df602e913960400191505060405180910390fd5b600054610100900460ff16158015611c97576000805460ff1961ff0019909116610100171660011790555b61182a63656cb66560e11b6128f8565b600054610100900460ff1680611cc05750611cc0611769565b80611cce575060005460ff16155b611d095760405162461bcd60e51b815260040180806020018281038252602e8152602001806141df602e913960400191505060405180910390fd5b600054610100900460ff16158015611d34576000805460ff1961ff0019909116610100171660011790555b8251611d4790609c906020860190613696565b508151611d5b90609d906020850190613696565b50611d6c6380ac58cd60e01b6128f8565b611d7c635b5e139f60e01b6128f8565b611d8c63780e9d6360e01b6128f8565b80156105c8576000805461ff0019169055505050565b606081611dc757506040805180820190915260018152600360fc1b60208201526103fa565b8160005b8115611ddf57600101600a82049150611dcb565b60008167ffffffffffffffff81118015611df857600080fd5b506040519080825280601f01601f191660200182016040528015611e23576020820181803683370190505b50859350905060001982015b8315611e7457600a840660300160f81b82828060019003935081518110611e5257fe5b60200101906001600160f81b031916908160001a905350600a84049350611e2f565b50949350505050565b60008381526101936020526040812054905b818110156114145760008581526101936020526040902080546001600160a01b038616919083908110611ebe57fe5b6000918252602090912001546001600160a01b03161415611f2157600085815261019360205260409020805484919083908110611ef757fe5b600091825260209091200180546001600160a01b0319166001600160a01b03929092169190911790555b600101611e8f565b60006106c28383612a3c565b5490565b60008082606001515167ffffffffffffffff81118015611f5857600080fd5b50604051908082528060200260200182016040528015611f82578160200160208202803683370190505b50905060005b836060015151811015611fd457611fb584606001518281518110611fa857fe5b6020026020010151612a54565b828281518110611fc157fe5b6020908102919091010152600101611f88565b50600083604001515167ffffffffffffffff81118015611ff357600080fd5b5060405190808252806020026020018201604052801561201d578160200160208202803683370190505b50905060005b8460400151518110156120625761204385604001518281518110611fa857fe5b82828151811061204f57fe5b6020908102919091010152600101612023565b507ff64326045af5fd7e15297ba939f85b550474d3899daa47d2bc1ffbdb9ced344e84600001518560200151805190602001208360405160200180828051906020019060200280838360005b838110156120c65781810151838201526020016120ae565b50505050905001915050604051602081830303815290604052805190602001208560405160200180828051906020019060200280838360005b838110156121175781810151838201526020016120ff565b505050509050019150506040516020818303038152906040528051906020012060405160200180868152602001858152602001848152602001838152602001828152602001955050505050506040516020818303038152906040528051906020012092505050919050565b6105c8838383612ac1565b610645828260405180602001604052806000815250612cf9565b6000805b825181101561234b5760006001600160a01b03168382815181106121cb57fe5b6020026020010151600001516001600160a01b03161415612233576040805162461bcd60e51b815260206004820152601b60248201527f526563697069656e742073686f756c642062652070726573656e740000000000604482015290519081900360640190fd5b82818151811061223f57fe5b6020026020010151602001516001600160601b0316600014156122a9576040805162461bcd60e51b815260206004820181905260248201527f526f79616c74792076616c75652073686f756c6420626520706f736974697665604482015290519081900360640190fd5b8281815181106122b557fe5b6020026020010151602001516001600160601b03168201915061019360008581526020019081526020016000208382815181106122ee57fe5b60209081029190910181015182546001818101855560009485529383902082519101805492909301516001600160601b0316600160a01b026001600160a01b039182166001600160a01b03199093169290921716179055016121ab565b50612710811061238c5760405162461bcd60e51b81526004018080602001828103825260258152602001806143536025913960400191505060405180910390fd5b6105c88383612d4b565b60008281526101946020526040812090805b83518110156124e45760006001600160a01b03168482815181106123c857fe5b6020026020010151600001516001600160a01b031614156123fb5760405162461bcd60e51b815260040161063290613ef2565b83818151811061240757fe5b6020026020010151602001516001600160601b03166000141561243c5760405162461bcd60e51b815260040161063290613e6d565b8284828151811061244957fe5b602090810291909101810151825460018101845560009384529282902081519301805491909201516001600160601b0316600160a01b026001600160a01b039384166001600160a01b03199092169190911790921691909117905583516124da908590839081106124b657fe5b6020026020010151602001516001600160601b031683612d8890919063ffffffff16565b91506001016123a8565b5080612710146125065760405162461bcd60e51b815260040161063290613f7a565b837f841ffb90d4cabdd1f16034f3fa831d79060febbb8167bdd54a49269365bdf78f846040516125369190613e05565b60405180910390a250505050565b61254d8261120f565b6125885760405162461bcd60e51b815260040180806020018281038252602c81526020018061427d602c913960400191505060405180910390fd5b6000828152609e6020908152604090912082516105c892840190613696565b60006106c28383612de2565b60006106c28383612ea8565b600061170d84846001600160a01b038516612ef2565b815460009082106126175760405162461bcd60e51b81526004018080602001828103825260228152602001806140426022913960400191505060405180910390fd5b82600001828154811061262657fe5b9060005260206000200154905092915050565b60006106c28383612f89565b8154600090819083106126895760405162461bcd60e51b815260040180806020018281038252602281526020018061422f6022913960400191505060405180910390fd5b600084600001848154811061269a57fe5b906000526020600020906002020190508060000154816001015492509250509250929050565b6000828152600184016020526040812054828161275b5760405162461bcd60e51b81526004018080602001828103825283818151815260200191508051906020019080838360005b83811015612720578181015183820152602001612708565b50505050905090810190601f16801561274d5780820380516001836020036101000a031916815260200191505b509250505060405180910390fd5b5084600001600182038154811061276e57fe5b9060005260206000209060020201600101549150509392505050565b600061279e846001600160a01b03166128f2565b6127aa575060016114b7565b60006128b8630a85bd0160e11b6127bf61121c565b88878760405160240180856001600160a01b03168152602001846001600160a01b0316815260200183815260200180602001828103825283818151815260200191508051906020019080838360005b8381101561282657818101518382015260200161280e565b50505050905090810190601f1680156128535780820380516001836020036101000a031916815260200191505b5095505050505050604051602081830303815290604052906001600160e01b0319166020820180516001600160e01b038381831617835250505050604051806060016040528060328152602001614064603291396001600160a01b038816919061305d565b905060008180602001905160208110156128d157600080fd5b50516001600160e01b031916630a85bd0160e11b1492505050949350505050565b3b151590565b6001600160e01b03198082161415612957576040805162461bcd60e51b815260206004820152601c60248201527f4552433136353a20696e76616c696420696e7465726661636520696400000000604482015290519081900360640190fd5b6001600160e01b0319166000908152606560205260409020805460ff19166001179055565b600054610100900460ff16806129955750612995611769565b806129a3575060005460ff16155b6129de5760405162461bcd60e51b815260040180806020018281038252602e8152602001806141df602e913960400191505060405180910390fd5b600054610100900460ff16158015612a09576000805460ff1961ff0019909116610100171660011790555b825160208085019190912083519184019190912060fb9190915560fc5580156105c8576000805461ff0019169055505050565b60009081526001919091016020526040902054151590565b8051602091820151604080517f397e04204c1e1a60ee8724b71f8244e10ab5f2e9009854d80f602bda21b59ebb818601526001600160a01b03909316838201526001600160601b039091166060808401919091528151808403909101815260809092019052805191012090565b6000612acc8361306c565b9050612ae0846001600160a01b03166128f2565b15612c595760408051630b135d3f60e11b808252600482018481526024830193845285516044840152855191936001600160a01b03891693631626ba7e938793899390929091606490910190602085019080838360005b83811015612b4f578181015183820152602001612b37565b50505050905090810190601f168015612b7c5780820380516001836020036101000a031916815260200191505b50935050505060206040518083038186803b158015612b9a57600080fd5b505afa158015612bae573d6000803e3d6000fd5b505050506040513d6020811015612bc457600080fd5b505160408051808201909152601c81527f7369676e617475726520766572696669636174696f6e206572726f72000000006020820152916001600160e01b031990911614612c535760405162461bcd60e51b8152602060048201818152835160248401528351909283926044909101919085019080838360008315612720578181015183820152602001612708565b50610b88565b6001600160a01b038416612c6d82846130b8565b6001600160a01b0316146040518060400160405280601c81526020017f7369676e617475726520766572696669636174696f6e206572726f7200000000815250906114145760405162461bcd60e51b8152602060048201818152835160248401528351909283926044909101919085019080838360008315612720578181015183820152602001612708565b612d038383613138565b612d10600084848461278a565b6105c85760405162461bcd60e51b81526004018080602001828103825260328152602001806140646032913960400191505060405180910390fd5b7f3fa96d7b6bcbfe71ef171666d84db3cf52fa2d1c8afdb1cc8e486177f208b7df8282604051612d7c929190613fd1565b60405180910390a15050565b6000828201838110156106c2576040805162461bcd60e51b815260206004820152601b60248201527f536166654d6174683a206164646974696f6e206f766572666c6f770000000000604482015290519081900360640190fd5b60008181526001830160205260408120548015612e9e5783546000198083019190810190600090879083908110612e1557fe5b9060005260206000200154905080876000018481548110612e3257fe5b600091825260208083209091019290925582815260018981019092526040902090840190558654879080612e6257fe5b600190038181906000526020600020016000905590558660010160008781526020019081526020016000206000905560019450505050506106c5565b60009150506106c5565b6000612eb48383612a3c565b612eea575081546001818101845560008481526020808220909301849055845484825282860190935260409020919091556106c5565b5060006106c5565b600082815260018401602052604081205480612f57575050604080518082018252838152602080820184815286546001818101895560008981528481209551600290930290950191825591519082015586548684528188019092529290912055611710565b82856000016001830381548110612f6a57fe5b9060005260206000209060020201600101819055506000915050611710565b60008181526001830160205260408120548015612e9e5783546000198083019190810190600090879083908110612fbc57fe5b9060005260206000209060020201905080876000018481548110612fdc57fe5b60009182526020808320845460029093020191825560019384015491840191909155835482528983019052604090209084019055865487908061301b57fe5b60008281526020808220600260001990940193840201828155600190810183905592909355888152898201909252604082209190915594506106c59350505050565b606061170d8484600085613266565b60006130766133c1565b82604051602001808061190160f01b81525060020183815260200182815260200192505050604051602081830303815290604052805190602001209050919050565b60008151604114613110576040805162461bcd60e51b815260206004820152601f60248201527f45434453413a20696e76616c6964207369676e6174757265206c656e67746800604482015290519081900360640190fd5b60208201516040830151606084015160001a61312e868285856133fc565b9695505050505050565b6001600160a01b038216613193576040805162461bcd60e51b815260206004820181905260248201527f4552433732313a206d696e7420746f20746865207a65726f2061646472657373604482015290519081900360640190fd5b61319c8161120f565b156131ee576040805162461bcd60e51b815260206004820152601c60248201527f4552433732313a20746f6b656e20616c7265616479206d696e74656400000000604482015290519081900360640190fd5b6131fa600083836105c8565b6001600160a01b038216600090815260976020526040902061321c90826125b3565b50613229609882846125bf565b5060405181906001600160a01b038416906000907fddf252ad1be2c89b69c2b068fc378daa952ba7f163c4a11628f55a4df523b3ef908290a45050565b6060824710156132a75760405162461bcd60e51b81526004018080602001828103825260268152602001806141026026913960400191505060405180910390fd5b6132b0856128f2565b613301576040805162461bcd60e51b815260206004820152601d60248201527f416464726573733a2063616c6c20746f206e6f6e2d636f6e7472616374000000604482015290519081900360640190fd5b600080866001600160a01b031685876040518082805190602001908083835b6020831061333f5780518252601f199092019160209182019101613320565b6001836020036101000a03801982511681845116808217855250505050505090500191505060006040518083038185875af1925050503d80600081146133a1576040519150601f19603f3d011682016040523d82523d6000602084013e6133a6565b606091505b50915091506133b682828661357a565b979650505050505050565b60006105d97f8b73c3c69bb8fe3d512ecc4cf759cc79239f7b179b0ffacaa9a75d522b39400f6133ef6135e0565b6133f76135e6565b6135ec565b60007f7fffffffffffffffffffffffffffffff5d576e7357a4501ddfe92f46681b20a082111561345d5760405162461bcd60e51b81526004018080602001828103825260228152602001806140e06022913960400191505060405180910390fd5b8360ff16601b148061347257508360ff16601c145b6134ad5760405162461bcd60e51b815260040180806020018281038252602281526020018061420d6022913960400191505060405180910390fd5b600060018686868660405160008152602001604052604051808581526020018460ff1681526020018381526020018281526020019450505050506020604051602081039080840390855afa158015613509573d6000803e3d6000fd5b5050604051601f1901519150506001600160a01b038116613571576040805162461bcd60e51b815260206004820152601860248201527f45434453413a20696e76616c6964207369676e61747572650000000000000000604482015290519081900360640190fd5b95945050505050565b60608315613589575081611710565b8251156135995782518084602001fd5b60405162461bcd60e51b8152602060048201818152845160248401528451859391928392604401919085019080838360008315612720578181015183820152602001612708565b60fb5490565b60fc5490565b60008383836135f961364e565b3060405160200180868152602001858152602001848152602001838152602001826001600160a01b03168152602001955050505050506040516020818303038152906040528051906020012090509392505050565b4690565b50805460018160011615610100020316600290046000825580601f106136785750610735565b601f0160209004906000526020600020908101906107359190613722565b828054600181600116156101000203166002900490600052602060002090601f0160209004810192826136cc5760008555613712565b82601f106136e557805160ff1916838001178555613712565b82800160010185558215613712579182015b828111156137125782518255916020019190600101906136f7565b5061371e929150613722565b5090565b5b8082111561371e5760008155600101613723565b600082601f830112613747578081fd5b8135602061375c6137578361400e565b613fea565b8281528181019085830183850287018401881015613778578586fd5b855b8581101561379f57813561378d8161402c565b8452928401929084019060010161377a565b5090979650505050505050565b600082601f8301126137bc578081fd5b813560206137cc6137578361400e565b82815281810190858301855b8581101561379f576137ef898684358b01016138bd565b845292840192908401906001016137d8565b600082601f830112613811578081fd5b813560206138216137578361400e565b8281528181019085830160408086028801850189101561383f578687fd5b865b868110156138af5781838b031215613857578788fd5b815182810181811067ffffffffffffffff8211171561387257fe5b8352833561387f8161402c565b8152838701356001600160601b038116811461389957898afd5b8188015285529385019391810191600101613841565b509198975050505050505050565b600082601f8301126138cd578081fd5b813567ffffffffffffffff8111156138e157fe5b6138f4601f8201601f1916602001613fea565b818152846020838601011115613908578283fd5b816020850160208301379081016020019190915292915050565b600060a08284031215613933578081fd5b61393d60a0613fea565b905081358152602082013567ffffffffffffffff8082111561395e57600080fd5b61396a858386016138bd565b6020840152604084013591508082111561398357600080fd5b61398f85838601613801565b604084015260608401359150808211156139a857600080fd5b6139b485838601613801565b606084015260808401359150808211156139cd57600080fd5b506139da848285016137ac565b60808301525092915050565b6000602082840312156139f7578081fd5b81356106c28161402c565b60008060408385031215613a14578081fd5b8235613a1f8161402c565b91506020830135613a2f8161402c565b809150509250929050565b600080600060608486031215613a4e578081fd5b8335613a598161402c565b92506020840135613a698161402c565b929592945050506040919091013590565b60008060008060808587031215613a8f578081fd5b8435613a9a8161402c565b93506020850135613aaa8161402c565b925060408501359150606085013567ffffffffffffffff811115613acc578182fd5b613ad8878288016138bd565b91505092959194509250565b60008060408385031215613af6578182fd5b8235613b018161402c565b915060208301358015158114613a2f578182fd5b60008060408385031215613b27578182fd5b8235613b328161402c565b946020939093013593505050565b600060208284031215613b51578081fd5b81356001600160e01b0319811681146106c2578182fd5b600080600080600060a08688031215613b7f578283fd5b853567ffffffffffffffff80821115613b96578485fd5b613ba289838a016138bd565b96506020880135915080821115613bb7578485fd5b613bc389838a016138bd565b95506040880135915080821115613bd8578485fd5b613be489838a016138bd565b94506060880135915080821115613bf9578283fd5b613c0589838a016138bd565b93506080880135915080821115613c1a578283fd5b50613c2788828901613737565b9150509295509295909350565b60008060408385031215613c46578182fd5b823567ffffffffffffffff811115613c5c578283fd5b613c6885828601613922565b9250506020830135613a2f8161402c565b600080600060608486031215613c8d578081fd5b833567ffffffffffffffff811115613ca3578182fd5b613caf86828701613922565b9350506020840135613cc08161402c565b91506040840135613cd08161402c565b809150509250925092565b600060208284031215613cec578081fd5b5035919050565b600080600060608486031215613d07578081fd5b833592506020840135613cc08161402c565b6000815180845260208085019450808401835b83811015613d6557815180516001600160a01b031688528301516001600160601b03168388015260409096019590820190600101613d2c565b509495945050505050565b60008151808452815b81811015613d9557602081850181015186830182015201613d79565b81811115613da65782602083870101525b50601f01601f19169290920160200192915050565b6001600160a01b0391909116815260200190565b6001600160a01b0384168152606060208201819052600090613df390830185613d70565b828103604084015261312e8185613d70565b6000602082526106c26020830184613d19565b901515815260200190565b6000602082526106c26020830184613d70565b60208082526017908201527f6d696e746572206973206e6f7420746865206f776e6572000000000000000000604082015260600190565b6020808252818101527f43726561746f722073686172652073686f756c6420626520706f736974697665604082015260600190565b6020808252601190820152701d1bdad95b9259081a5b98dbdc9c9958dd607a1b604082015260600190565b6020808252600b908201526a1b9bdd08185b1b1bddd95960aa1b604082015260600190565b60208082526019908201527f4163636f756e742073686f756c642062652070726573656e7400000000000000604082015260600190565b60208082526031908201527f4552433732313a207472616e736665722063616c6c6572206973206e6f74206f6040820152701ddb995c881b9bdc88185c1c1c9bdd9959607a1b606082015260800190565b6020808252602e908201527f746f74616c20616d6f756e74206f662063726561746f7273207368617265207360408201526d0686f756c642062652031303030360941b606082015260800190565b90815260200190565b60008382526040602083015261170d6040830184613d19565b60405181810167ffffffffffffffff8111828210171561400657fe5b604052919050565b600067ffffffffffffffff82111561402257fe5b5060209081020190565b6001600160a01b038116811461073557600080fdfe456e756d657261626c655365743a20696e646578206f7574206f6620626f756e64734552433732313a207472616e7366657220746f206e6f6e20455243373231526563656976657220696d706c656d656e7465724f776e61626c653a206e6577206f776e657220697320746865207a65726f20616464726573734552433732313a207472616e7366657220746f20746865207a65726f206164647265737345434453413a20696e76616c6964207369676e6174757265202773272076616c7565416464726573733a20696e73756666696369656e742062616c616e636520666f722063616c6c4552433732313a206f70657261746f7220717565727920666f72206e6f6e6578697374656e7420746f6b656e4552433732313a20617070726f76652063616c6c6572206973206e6f74206f776e6572206e6f7220617070726f76656420666f7220616c6c4552433732313a2062616c616e636520717565727920666f7220746865207a65726f20616464726573734552433732313a206f776e657220717565727920666f72206e6f6e6578697374656e7420746f6b656e496e697469616c697a61626c653a20636f6e747261637420697320616c726561647920696e697469616c697a656445434453413a20696e76616c6964207369676e6174757265202776272076616c7565456e756d657261626c654d61703a20696e646578206f7574206f6620626f756e64734552433732313a20617070726f76656420717565727920666f72206e6f6e6578697374656e7420746f6b656e4552433732314d657461646174613a2055524920736574206f66206e6f6e6578697374656e7420746f6b656e4552433732313a207472616e73666572206f6620746f6b656e2074686174206973206e6f74206f776e4552433732314d657461646174613a2055524920717565727920666f72206e6f6e6578697374656e7420746f6b656e4552433732313a20617070726f76616c20746f2063757272656e74206f776e65724552433732313a207472616e736665722063616c6c6572206973206e6f74206f776e6572206e6f7220617070726f766564526f79616c747920746f74616c2076616c75652073686f756c64206265203c2031303030304552433732314275726e61626c653a2063616c6c6572206973206e6f74206f776e6572206e6f7220617070726f766564a2646970667358221220a71710323dbc5b967507b1e05f31f1fafd60dbc29574195b91d6f66fe66758ce64736f6c63430007060033",
  "immutableReferences": {},
  "source": "// SPDX-License-Identifier: MIT\n\npragma solidity 0.7.6;\npragma abicoder v2;\n\nimport \"@openzeppelin/contracts-upgradeable/access/OwnableUpgradeable.sol\";\nimport \"@openzeppelin/contracts-upgradeable/token/ERC721/ERC721BurnableUpgradeable.sol\";\nimport \"./ERC721Lazy.sol\";\nimport \"../HasContractURI.sol\";\n\ncontract ERC721RaribleUser is OwnableUpgradeable, ERC721BurnableUpgradeable, ERC721Lazy, HasContractURI {\n\n    event CreateERC721RaribleUser(address owner, string name, string symbol);\n\n    function __ERC721RaribleUser_init(string memory _name, string memory _symbol, string memory baseURI, string memory contractURI, address[] memory operators) external initializer {\n        _setBaseURI(baseURI);\n        __ERC721Lazy_init_unchained();\n        __Context_init_unchained();\n        __ERC165_init_unchained();\n        __Ownable_init_unchained();\n        __ERC721Burnable_init_unchained();\n        __Mint721Validator_init_unchained();\n        __HasContractURI_init_unchained(contractURI);\n        __RoyaltiesV2Upgradeable_init_unchained();\n        __ERC721_init_unchained(_name, _symbol);\n        for(uint i = 0; i < operators.length; i++) {\n            setApprovalForAll(operators[i], true);\n        }\n        emit CreateERC721RaribleUser(_msgSender(), _name, _symbol);\n    }\n\n    function mintAndTransfer(LibERC721LazyMint.Mint721Data memory data, address to) public override virtual {\n        require(owner() == data.creators[0].account, \"minter is not the owner\");\n        super.mintAndTransfer(data, to);\n    }\n    uint256[50] private __gap;\n}\n",
  "sourcePath": "/Users/chung/git/manifoldxyz/protocol-contracts/tokens/contracts/erc-721/ERC721RaribleUser.sol",
  "compiler": {
    "name": "solc",
    "version": "0.7.6+commit.7338295f.Emscripten.clang"
  },
  "schemaVersion": "3.3.4",
  "updatedAt": "2021-07-23T16:59:45.120Z",
  "devdoc": {
    "kind": "dev",
    "methods": {
      "approve(address,uint256)": {
        "details": "See {IERC721-approve}."
      },
      "balanceOf(address)": {
        "details": "See {IERC721-balanceOf}."
      },
      "baseURI()": {
        "details": "Returns the base URI set via {_setBaseURI}. This will be automatically added as a prefix in {tokenURI} to each token's URI, or to the token ID if no specific URI is set for that token ID."
      },
      "burn(uint256)": {
        "details": "Burns `tokenId`. See {ERC721-_burn}. Requirements: - The caller must own `tokenId` or be an approved operator."
      },
      "getApproved(uint256)": {
        "details": "See {IERC721-getApproved}."
      },
      "isApprovedForAll(address,address)": {
        "details": "See {IERC721-isApprovedForAll}."
      },
      "name()": {
        "details": "See {IERC721Metadata-name}."
      },
      "owner()": {
        "details": "Returns the address of the current owner."
      },
      "ownerOf(uint256)": {
        "details": "See {IERC721-ownerOf}."
      },
      "renounceOwnership()": {
        "details": "Leaves the contract without owner. It will not be possible to call `onlyOwner` functions anymore. Can only be called by the current owner. NOTE: Renouncing ownership will leave the contract without an owner, thereby removing any functionality that is only available to the owner."
      },
      "safeTransferFrom(address,address,uint256)": {
        "details": "See {IERC721-safeTransferFrom}."
      },
      "safeTransferFrom(address,address,uint256,bytes)": {
        "details": "See {IERC721-safeTransferFrom}."
      },
      "setApprovalForAll(address,bool)": {
        "details": "See {IERC721-setApprovalForAll}."
      },
      "supportsInterface(bytes4)": {
        "details": "See {IERC165-supportsInterface}. Time complexity O(1), guaranteed to always use less than 30 000 gas."
      },
      "symbol()": {
        "details": "See {IERC721Metadata-symbol}."
      },
      "tokenByIndex(uint256)": {
        "details": "See {IERC721Enumerable-tokenByIndex}."
      },
      "tokenOfOwnerByIndex(address,uint256)": {
        "details": "See {IERC721Enumerable-tokenOfOwnerByIndex}."
      },
      "tokenURI(uint256)": {
        "details": "See {IERC721Metadata-tokenURI}."
      },
      "totalSupply()": {
        "details": "See {IERC721Enumerable-totalSupply}."
      },
      "transferFrom(address,address,uint256)": {
        "details": "See {IERC721-transferFrom}."
      },
      "transferOwnership(address)": {
        "details": "Transfers ownership of the contract to a new account (`newOwner`). Can only be called by the current owner."
      }
    },
    "version": 1
  },
  "userdoc": {
    "kind": "user",
    "methods": {},
    "version": 1
  }
}