{
  "contractName": "ERC721RaribleUser",
  "abi": [
    {
      "anonymous": false,
      "inputs": [
        {
          "indexed": true,
          "internalType": "address",
          "name": "owner",
          "type": "address"
        },
        {
          "indexed": true,
          "internalType": "address",
          "name": "approved",
          "type": "address"
        },
        {
          "indexed": true,
          "internalType": "uint256",
          "name": "tokenId",
          "type": "uint256"
        }
      ],
      "name": "Approval",
      "type": "event"
    },
    {
      "anonymous": false,
      "inputs": [
        {
          "indexed": true,
          "internalType": "address",
          "name": "owner",
          "type": "address"
        },
        {
          "indexed": true,
          "internalType": "address",
          "name": "operator",
          "type": "address"
        },
        {
          "indexed": false,
          "internalType": "bool",
          "name": "approved",
          "type": "bool"
        }
      ],
      "name": "ApprovalForAll",
      "type": "event"
    },
    {
      "anonymous": false,
      "inputs": [
        {
          "indexed": true,
          "internalType": "address",
          "name": "operator",
          "type": "address"
        },
        {
          "indexed": false,
          "internalType": "bool",
          "name": "hasApproval",
          "type": "bool"
        }
      ],
      "name": "DefaultApproval",
      "type": "event"
    },
    {
      "anonymous": false,
      "inputs": [
        {
          "indexed": true,
          "internalType": "address",
          "name": "previousOwner",
          "type": "address"
        },
        {
          "indexed": true,
          "internalType": "address",
          "name": "newOwner",
          "type": "address"
        }
      ],
      "name": "OwnershipTransferred",
      "type": "event"
    },
    {
      "anonymous": false,
      "inputs": [
        {
          "indexed": false,
          "internalType": "uint256",
          "name": "tokenId",
          "type": "uint256"
        },
        {
          "components": [
            {
              "internalType": "address payable",
              "name": "account",
              "type": "address"
            },
            {
              "internalType": "uint96",
              "name": "value",
              "type": "uint96"
            }
          ],
          "indexed": false,
          "internalType": "struct LibPart.Part[]",
          "name": "fees",
          "type": "tuple[]"
        }
      ],
      "name": "RoyaltiesSet",
      "type": "event"
    },
    {
      "anonymous": false,
      "inputs": [
        {
          "indexed": true,
          "internalType": "address",
          "name": "from",
          "type": "address"
        },
        {
          "indexed": true,
          "internalType": "address",
          "name": "to",
          "type": "address"
        },
        {
          "indexed": true,
          "internalType": "uint256",
          "name": "tokenId",
          "type": "uint256"
        }
      ],
      "name": "Transfer",
      "type": "event"
    },
    {
      "inputs": [
        {
          "internalType": "address",
          "name": "to",
          "type": "address"
        },
        {
          "internalType": "uint256",
          "name": "tokenId",
          "type": "uint256"
        }
      ],
      "name": "approve",
      "outputs": [],
      "stateMutability": "nonpayable",
      "type": "function"
    },
    {
      "inputs": [
        {
          "internalType": "address",
          "name": "owner",
          "type": "address"
        }
      ],
      "name": "balanceOf",
      "outputs": [
        {
          "internalType": "uint256",
          "name": "",
          "type": "uint256"
        }
      ],
      "stateMutability": "view",
      "type": "function"
    },
    {
      "inputs": [],
      "name": "baseURI",
      "outputs": [
        {
          "internalType": "string",
          "name": "",
          "type": "string"
        }
      ],
      "stateMutability": "view",
      "type": "function"
    },
    {
      "inputs": [
        {
          "internalType": "uint256",
          "name": "tokenId",
          "type": "uint256"
        }
      ],
      "name": "burn",
      "outputs": [],
      "stateMutability": "nonpayable",
      "type": "function"
    },
    {
      "inputs": [],
      "name": "contractURI",
      "outputs": [
        {
          "internalType": "string",
          "name": "",
          "type": "string"
        }
      ],
      "stateMutability": "view",
      "type": "function"
    },
    {
      "inputs": [
        {
          "internalType": "uint256",
          "name": "",
          "type": "uint256"
        },
        {
          "internalType": "uint256",
          "name": "",
          "type": "uint256"
        }
      ],
      "name": "fees",
      "outputs": [
        {
          "internalType": "address payable",
          "name": "account",
          "type": "address"
        },
        {
          "internalType": "uint96",
          "name": "value",
          "type": "uint96"
        }
      ],
      "stateMutability": "view",
      "type": "function"
    },
    {
      "inputs": [
        {
          "internalType": "uint256",
          "name": "tokenId",
          "type": "uint256"
        }
      ],
      "name": "getApproved",
      "outputs": [
        {
          "internalType": "address",
          "name": "",
          "type": "address"
        }
      ],
      "stateMutability": "view",
      "type": "function"
    },
    {
      "inputs": [
        {
          "internalType": "uint256",
          "name": "_id",
          "type": "uint256"
        }
      ],
      "name": "getCreators",
      "outputs": [
        {
          "components": [
            {
              "internalType": "address payable",
              "name": "account",
              "type": "address"
            },
            {
              "internalType": "uint96",
              "name": "value",
              "type": "uint96"
            }
          ],
          "internalType": "struct LibPart.Part[]",
          "name": "",
          "type": "tuple[]"
        }
      ],
      "stateMutability": "view",
      "type": "function"
    },
    {
      "inputs": [
        {
          "internalType": "uint256",
          "name": "id",
          "type": "uint256"
        }
      ],
      "name": "getRoyalties",
      "outputs": [
        {
          "components": [
            {
              "internalType": "address payable",
              "name": "account",
              "type": "address"
            },
            {
              "internalType": "uint96",
              "name": "value",
              "type": "uint96"
            }
          ],
          "internalType": "struct LibPart.Part[]",
          "name": "",
          "type": "tuple[]"
        }
      ],
      "stateMutability": "view",
      "type": "function"
    },
    {
      "inputs": [
        {
          "internalType": "address",
          "name": "owner",
          "type": "address"
        },
        {
          "internalType": "address",
          "name": "operator",
          "type": "address"
        }
      ],
      "name": "isApprovedForAll",
      "outputs": [
        {
          "internalType": "bool",
          "name": "",
          "type": "bool"
        }
      ],
      "stateMutability": "view",
      "type": "function"
    },
    {
      "inputs": [],
      "name": "name",
      "outputs": [
        {
          "internalType": "string",
          "name": "",
          "type": "string"
        }
      ],
      "stateMutability": "view",
      "type": "function"
    },
    {
      "inputs": [],
      "name": "owner",
      "outputs": [
        {
          "internalType": "address",
          "name": "",
          "type": "address"
        }
      ],
      "stateMutability": "view",
      "type": "function"
    },
    {
      "inputs": [
        {
          "internalType": "uint256",
          "name": "tokenId",
          "type": "uint256"
        }
      ],
      "name": "ownerOf",
      "outputs": [
        {
          "internalType": "address",
          "name": "",
          "type": "address"
        }
      ],
      "stateMutability": "view",
      "type": "function"
    },
    {
      "inputs": [],
      "name": "renounceOwnership",
      "outputs": [],
      "stateMutability": "nonpayable",
      "type": "function"
    },
    {
      "inputs": [
        {
          "internalType": "address",
          "name": "from",
          "type": "address"
        },
        {
          "internalType": "address",
          "name": "to",
          "type": "address"
        },
        {
          "internalType": "uint256",
          "name": "tokenId",
          "type": "uint256"
        }
      ],
      "name": "safeTransferFrom",
      "outputs": [],
      "stateMutability": "nonpayable",
      "type": "function"
    },
    {
      "inputs": [
        {
          "internalType": "address",
          "name": "from",
          "type": "address"
        },
        {
          "internalType": "address",
          "name": "to",
          "type": "address"
        },
        {
          "internalType": "uint256",
          "name": "tokenId",
          "type": "uint256"
        },
        {
          "internalType": "bytes",
          "name": "_data",
          "type": "bytes"
        }
      ],
      "name": "safeTransferFrom",
      "outputs": [],
      "stateMutability": "nonpayable",
      "type": "function"
    },
    {
      "inputs": [
        {
          "internalType": "address",
          "name": "operator",
          "type": "address"
        },
        {
          "internalType": "bool",
          "name": "approved",
          "type": "bool"
        }
      ],
      "name": "setApprovalForAll",
      "outputs": [],
      "stateMutability": "nonpayable",
      "type": "function"
    },
    {
      "inputs": [
        {
          "internalType": "address",
          "name": "operator",
          "type": "address"
        },
        {
          "internalType": "bool",
          "name": "hasApproval",
          "type": "bool"
        }
      ],
      "name": "setDefaultApproval",
      "outputs": [],
      "stateMutability": "nonpayable",
      "type": "function"
    },
    {
      "inputs": [
        {
          "internalType": "bytes4",
          "name": "interfaceId",
          "type": "bytes4"
        }
      ],
      "name": "supportsInterface",
      "outputs": [
        {
          "internalType": "bool",
          "name": "",
          "type": "bool"
        }
      ],
      "stateMutability": "view",
      "type": "function"
    },
    {
      "inputs": [],
      "name": "symbol",
      "outputs": [
        {
          "internalType": "string",
          "name": "",
          "type": "string"
        }
      ],
      "stateMutability": "view",
      "type": "function"
    },
    {
      "inputs": [
        {
          "internalType": "uint256",
          "name": "index",
          "type": "uint256"
        }
      ],
      "name": "tokenByIndex",
      "outputs": [
        {
          "internalType": "uint256",
          "name": "",
          "type": "uint256"
        }
      ],
      "stateMutability": "view",
      "type": "function"
    },
    {
      "inputs": [
        {
          "internalType": "address",
          "name": "owner",
          "type": "address"
        },
        {
          "internalType": "uint256",
          "name": "index",
          "type": "uint256"
        }
      ],
      "name": "tokenOfOwnerByIndex",
      "outputs": [
        {
          "internalType": "uint256",
          "name": "",
          "type": "uint256"
        }
      ],
      "stateMutability": "view",
      "type": "function"
    },
    {
      "inputs": [
        {
          "internalType": "uint256",
          "name": "tokenId",
          "type": "uint256"
        }
      ],
      "name": "tokenURI",
      "outputs": [
        {
          "internalType": "string",
          "name": "",
          "type": "string"
        }
      ],
      "stateMutability": "view",
      "type": "function"
    },
    {
      "inputs": [],
      "name": "totalSupply",
      "outputs": [
        {
          "internalType": "uint256",
          "name": "",
          "type": "uint256"
        }
      ],
      "stateMutability": "view",
      "type": "function"
    },
    {
      "inputs": [
        {
          "internalType": "address",
          "name": "from",
          "type": "address"
        },
        {
          "internalType": "address",
          "name": "to",
          "type": "address"
        },
        {
          "internalType": "uint256",
          "name": "tokenId",
          "type": "uint256"
        }
      ],
      "name": "transferFrom",
      "outputs": [],
      "stateMutability": "nonpayable",
      "type": "function"
    },
    {
      "inputs": [
        {
          "internalType": "address",
          "name": "newOwner",
          "type": "address"
        }
      ],
      "name": "transferOwnership",
      "outputs": [],
      "stateMutability": "nonpayable",
      "type": "function"
    },
    {
      "inputs": [
        {
          "internalType": "uint256",
          "name": "_id",
          "type": "uint256"
        },
        {
          "internalType": "address",
          "name": "_from",
          "type": "address"
        },
        {
          "internalType": "address",
          "name": "_to",
          "type": "address"
        }
      ],
      "name": "updateAccount",
      "outputs": [],
      "stateMutability": "nonpayable",
      "type": "function"
    },
    {
      "inputs": [
        {
          "internalType": "string",
          "name": "_name",
          "type": "string"
        },
        {
          "internalType": "string",
          "name": "_symbol",
          "type": "string"
        },
        {
          "internalType": "string",
          "name": "baseURI",
          "type": "string"
        },
        {
          "internalType": "string",
          "name": "contractURI",
          "type": "string"
        }
      ],
      "name": "__ERC721RaribleUser_init",
      "outputs": [],
      "stateMutability": "nonpayable",
      "type": "function"
    },
    {
      "inputs": [
        {
          "components": [
            {
              "internalType": "uint256",
              "name": "tokenId",
              "type": "uint256"
            },
            {
              "internalType": "string",
              "name": "uri",
              "type": "string"
            },
            {
              "components": [
                {
                  "internalType": "address payable",
                  "name": "account",
                  "type": "address"
                },
                {
                  "internalType": "uint96",
                  "name": "value",
                  "type": "uint96"
                }
              ],
              "internalType": "struct LibPart.Part[]",
              "name": "creators",
              "type": "tuple[]"
            },
            {
              "components": [
                {
                  "internalType": "address payable",
                  "name": "account",
                  "type": "address"
                },
                {
                  "internalType": "uint96",
                  "name": "value",
                  "type": "uint96"
                }
              ],
              "internalType": "struct LibPart.Part[]",
              "name": "royalties",
              "type": "tuple[]"
            },
            {
              "internalType": "bytes[]",
              "name": "signatures",
              "type": "bytes[]"
            }
          ],
          "internalType": "struct LibERC721LazyMint.Mint721Data",
          "name": "data",
          "type": "tuple"
        },
        {
          "internalType": "address",
          "name": "to",
          "type": "address"
        }
      ],
      "name": "mintAndTransfer",
      "outputs": [],
      "stateMutability": "nonpayable",
      "type": "function"
    }
  ],
  "bytecode": "0x608060405234801561001057600080fd5b50614118806100206000396000f3fe608060405234801561001057600080fd5b50600436106101cf5760003560e01c80636352211e11610104578063a22cb465116100a2578063e07f231911610071578063e07f2319146103c7578063e8a3d485146103da578063e985e9c5146103e2578063f2fde38b146103f5576101cf565b8063a22cb4651461037b578063b88d4fde1461038e578063bb3bafd6146103a1578063c87b56dd146103b4576101cf565b8063715018a6116100de578063715018a614610343578063891be9741461034b5780638da5cb5b1461036b57806395d89b4114610373576101cf565b80636352211e146103155780636c0360eb1461032857806370a0823114610330576101cf565b806323b872dd1161017157806342842e0e1161014b57806342842e0e146102bb57806342966c68146102ce5780634f6ccce7146102e15780636308f1cd146102f4576101cf565b806323b872dd146102825780632f745c59146102955780633b1c6be9146102a8576101cf565b8063095ea7b3116101ad578063095ea7b31461023257806318054c371461024757806318160ddd1461025a57806322a775b61461026f576101cf565b806301ffc9a7146101d457806306fdde03146101fd578063081812fc14610212575b600080fd5b6101e76101e2366004613946565b610408565b6040516101f49190613c0b565b60405180910390f35b61020561042b565b6040516101f49190613c16565b610225610220366004613afa565b6104c1565b6040516101f49190613b74565b61024561024036600461391b565b610523565b005b6102456102553660046138ea565b6105fe565b610262610680565b6040516101f49190613d41565b61024561027d366004613a0a565b610691565b610245610290366004613840565b6106f8565b6102626102a336600461391b565b61074f565b6102456102b636600461396e565b61077a565b6102456102c9366004613840565b610874565b6102456102dc366004613afa565b61088f565b6102626102ef366004613afa565b6108e1565b610307610302366004613b53565b6108f7565b6040516101f4929190613b88565b610225610323366004613afa565b610941565b610205610969565b61026261033e3660046137ec565b6109ca565b610245610a32565b61035e610359366004613afa565b610af0565b6040516101f49190613baa565b610225610b80565b610205610b8f565b6102456103893660046138ea565b610bf0565b61024561039c366004613880565b610cf5565b61035e6103af366004613afa565b610d53565b6102056103c2366004613afa565b610dce565b6102456103d5366004613b12565b61104f565b610205611092565b6101e76103f0366004613808565b611121565b6102456104033660046137ec565b61112d565b6001600160e01b0319811660009081526065602052604090205460ff165b919050565b609c8054604080516020601f60026000196101006001881615020190951694909404938401819004810282018101909252828152606093909290918301828280156104b75780601f1061048c576101008083540402835291602001916104b7565b820191906000526020600020905b81548152906001019060200180831161049a57829003601f168201915b5050505050905090565b60006104cc82611242565b6105075760405162461bcd60e51b815260040180806020018281038252602c815260200180613fb1602c913960400191505060405180910390fd5b506000908152609a60205260409020546001600160a01b031690565b600061052e82610941565b9050806001600160a01b0316836001600160a01b031614156105815760405162461bcd60e51b81526004018080602001828103825260218152602001806140616021913960400191505060405180910390fd5b806001600160a01b031661059361124f565b6001600160a01b031614806105b457506105b4816105af61124f565b611253565b6105ef5760405162461bcd60e51b8152600401808060200182810382526038815260200180613eb46038913960400191505060405180910390fd5b6105f98383611281565b505050565b61060661124f565b6001600160a01b0316610617610b80565b6001600160a01b031614610672576040805162461bcd60e51b815260206004820181905260248201527f4f776e61626c653a2063616c6c6572206973206e6f7420746865206f776e6572604482015290519081900360640190fd5b61067c82826112ef565b5050565b600061068c609861134f565b905090565b81604001516000815181106106a257fe5b6020026020010151600001516001600160a01b03166106bf610b80565b6001600160a01b0316146106ee5760405162461bcd60e51b81526004016106e590613c69565b60405180910390fd5b61067c828261135a565b61070961070361124f565b82611534565b6107445760405162461bcd60e51b81526004018080602001828103825260318152602001806140826031913960400191505060405180910390fd5b6105f9838383611540565b6001600160a01b0382166000908152609760205260408120610771908361168c565b90505b92915050565b600054610100900460ff16806107935750610793611698565b806107a1575060005460ff16155b6107dc5760405162461bcd60e51b815260040180806020018281038252602e815260200180613f3f602e913960400191505060405180910390fd5b600054610100900460ff16158015610807576000805460ff1961ff0019909116610100171660011790555b610810836116a9565b6108186116bc565b61082061176d565b61082861180d565b6108306118aa565b61083861176d565b6108406119a3565b61084982611a72565b610851611b39565b61085b8585611bd6565b801561086d576000805461ff00191690555b5050505050565b6105f983838360405180602001604052806000815250610cf5565b61089a61070361124f565b6108d55760405162461bcd60e51b81526004018080602001828103825260308152602001806140b36030913960400191505060405180910390fd5b6108de81611cd1565b50565b6000806108ef609884611d9e565b509392505050565b6101c6602052816000526040600020818154811061091457600080fd5b6000918252602090912001546001600160a01b0381169250600160a01b90046001600160601b0316905082565b600061077482604051806060016040528060298152602001613f166029913960989190611dba565b609f8054604080516020601f60026000196101006001881615020190951694909404938401819004810282018101909252828152606093909290918301828280156104b75780601f1061048c576101008083540402835291602001916104b7565b60006001600160a01b038216610a115760405162461bcd60e51b815260040180806020018281038252602a815260200180613eec602a913960400191505060405180910390fd5b6001600160a01b03821660009081526097602052604090206107749061134f565b610a3a61124f565b6001600160a01b0316610a4b610b80565b6001600160a01b031614610aa6576040805162461bcd60e51b815260206004820181905260248201527f4f776e61626c653a2063616c6c6572206973206e6f7420746865206f776e6572604482015290519081900360640190fd5b6033546040516000916001600160a01b0316907f8be0079c531659141344cd1fd0a4f28419497f9722a3daafe3b4186f6b6457e0908390a3603380546001600160a01b0319169055565b60606101c76000838152602001908152602001600020805480602002602001604051908101604052809291908181526020016000905b82821015610b7557600084815260209081902060408051808201909152908401546001600160a01b0381168252600160a01b90046001600160601b031681830152825260019092019101610b26565b505050509050919050565b6033546001600160a01b031690565b609d8054604080516020601f60026000196101006001881615020190951694909404938401819004810282018101909252828152606093909290918301828280156104b75780601f1061048c576101008083540402835291602001916104b7565b610bf861124f565b6001600160a01b0316826001600160a01b03161415610c5e576040805162461bcd60e51b815260206004820152601960248201527f4552433732313a20617070726f766520746f2063616c6c657200000000000000604482015290519081900360640190fd5b80609b6000610c6b61124f565b6001600160a01b03908116825260208083019390935260409182016000908120918716808252919093529120805460ff191692151592909217909155610caf61124f565b6001600160a01b03167f17307eab39ab6107e8899845ad3d59bd9653f200f220920489ca2b5937696c318360405180821515815260200191505060405180910390a35050565b610d06610d0061124f565b83611534565b610d415760405162461bcd60e51b81526004018080602001828103825260318152602001806140826031913960400191505060405180910390fd5b610d4d84848484611dd1565b50505050565b60008181526101c660209081526040808320805482518185028101850190935280835260609492939192909184018215610b7557600084815260209081902060408051808201909152908401546001600160a01b0381168252600160a01b90046001600160601b031681830152825260019092019101610b26565b6060610dd982611242565b610e145760405162461bcd60e51b815260040180806020018281038252602f815260200180614032602f913960400191505060405180910390fd5b6000828152609e602090815260408083208054825160026001831615610100026000190190921691909104601f810185900485028201850190935282815292909190830182828015610ea75780601f10610e7c57610100808354040283529160200191610ea7565b820191906000526020600020905b815481529060010190602001808311610e8a57829003601f168201915b505050505090506000610eb8610969565b9050805160001415610ecc57509050610426565b815115610f8d5780826040516020018083805190602001908083835b60208310610f075780518252601f199092019160209182019101610ee8565b51815160209384036101000a600019018019909216911617905285519190930192850191508083835b60208310610f4f5780518252601f199092019160209182019101610f30565b6001836020036101000a0380198251168184511680821785525050505050509050019250505060405160208183030381529060405292505050610426565b80610f9785611e23565b6040516020018083805190602001908083835b60208310610fc95780518252601f199092019160209182019101610faa565b51815160209384036101000a600019018019909216911617905285519190930192850191508083835b602083106110115780518252601f199092019160209182019101610ff2565b6001836020036101000a0380198251168184511680821785525050505050509050019250505060405160208183030381529060405292505050919050565b816001600160a01b031661106161124f565b6001600160a01b0316146110875760405162461bcd60e51b81526004016106e590613ccb565b6105f9838383611efe565b6101fa805460408051602060026001851615610100026000190190941693909304601f810184900484028201840190925281815292918301828280156111195780601f106110ee57610100808354040283529160200191611119565b820191906000526020600020905b8154815290600101906020018083116110fc57829003601f168201915b505050505081565b60006107718383611faa565b61113561124f565b6001600160a01b0316611146610b80565b6001600160a01b0316146111a1576040805162461bcd60e51b815260206004820181905260248201527f4f776e61626c653a2063616c6c6572206973206e6f7420746865206f776e6572604482015290519081900360640190fd5b6001600160a01b0381166111e65760405162461bcd60e51b8152600401808060200182810382526026815260200180613df66026913960400191505060405180910390fd5b6033546040516001600160a01b038084169216907f8be0079c531659141344cd1fd0a4f28419497f9722a3daafe3b4186f6b6457e090600090a3603380546001600160a01b0319166001600160a01b0392909216919091179055565b6000610774609883611fd6565b3390565b6001600160a01b039182166000908152609b6020908152604080832093909416825291909152205460ff1690565b6000818152609a6020526040902080546001600160a01b0319166001600160a01b03841690811790915581906112b682610941565b6001600160a01b03167f8c5be1e5ebec7d5bd14f71427d1e84f3dd0314c0f7b2291e5b200ac8c7c3b92560405160405180910390a45050565b6001600160a01b038216600081815260c96020908152604091829020805460ff1916851515908117909155825190815291517f270dbb8ba4292910ae92862466486be25c355c837270a3d8824b36a8bc7c653b9281900390910190a25050565b600061077482611fe2565b815160601c600061136961124f565b9050836040015160008151811061137c57fe5b6020026020010151600001516001600160a01b0316826001600160a01b0316146113b85760405162461bcd60e51b81526004016106e590613ca0565b836080015151846040015151146113ce57600080fd5b806001600160a01b0316826001600160a01b031614806113f357506113f38282611121565b61140f5760405162461bcd60e51b81526004016106e590613cf0565b60005b84604001515181101561146b5760008560400151828151811061143157fe5b6020026020010151600001519050826001600160a01b0316816001600160a01b031614611462576114628683611fe6565b50600101611412565b5061147a83856000015161202b565b61148c84600001518560200151612159565b61149e846000015185606001516121bc565b835160009081526101c760205260408120905b85604001515181101561152c5781866040015182815181106114cf57fe5b60209081029190910181015182546001818101855560009485529383902082519101805492909301516001600160601b0316600160a01b026001600160a01b039182166001600160a01b03199093169290921716179055016114b1565b505050505050565b60006107718383612337565b826001600160a01b031661155382610941565b6001600160a01b0316146115985760405162461bcd60e51b81526004018080602001828103825260298152602001806140096029913960400191505060405180910390fd5b6001600160a01b0382166115dd5760405162461bcd60e51b8152600401808060200182810382526024815260200180613e1c6024913960400191505060405180910390fd5b6115e88383836105f9565b6115f3600082611281565b6001600160a01b03831660009081526097602052604090206116159082612363565b506001600160a01b0382166000908152609760205260409020611638908261236f565b506116456098828461237b565b5080826001600160a01b0316846001600160a01b03167fddf252ad1be2c89b69c2b068fc378daa952ba7f163c4a11628f55a4df523b3ef60405160405180910390a4505050565b60006107718383612391565b60006116a3306123f5565b15905090565b805161067c90609f906020840190613578565b600054610100900460ff16806116d557506116d5611698565b806116e3575060005460ff16155b61171e5760405162461bcd60e51b815260040180806020018281038252602e815260200180613f3f602e913960400191505060405180910390fd5b600054610100900460ff16158015611749576000805460ff1961ff0019909116610100171660011790555b611759638486f69f60e01b6123fb565b80156108de576000805461ff001916905550565b600054610100900460ff16806117865750611786611698565b80611794575060005460ff16155b6117cf5760405162461bcd60e51b815260040180806020018281038252602e815260200180613f3f602e913960400191505060405180910390fd5b600054610100900460ff16158015611759576000805460ff1961ff00199091166101001716600117905580156108de576000805461ff001916905550565b600054610100900460ff16806118265750611826611698565b80611834575060005460ff16155b61186f5760405162461bcd60e51b815260040180806020018281038252602e815260200180613f3f602e913960400191505060405180910390fd5b600054610100900460ff1615801561189a576000805460ff1961ff0019909116610100171660011790555b6117596301ffc9a760e01b6123fb565b600054610100900460ff16806118c357506118c3611698565b806118d1575060005460ff16155b61190c5760405162461bcd60e51b815260040180806020018281038252602e815260200180613f3f602e913960400191505060405180910390fd5b600054610100900460ff16158015611937576000805460ff1961ff0019909116610100171660011790555b600061194161124f565b603380546001600160a01b0319166001600160a01b038316908117909155604051919250906000907f8be0079c531659141344cd1fd0a4f28419497f9722a3daafe3b4186f6b6457e0908290a35080156108de576000805461ff001916905550565b600054610100900460ff16806119bc57506119bc611698565b806119ca575060005460ff16155b611a055760405162461bcd60e51b815260040180806020018281038252602e815260200180613f3f602e913960400191505060405180910390fd5b600054610100900460ff16158015611a30576000805460ff1961ff0019909116610100171660011790555b611759604051806040016040528060078152602001664d696e7437323160c81b815250604051806040016040528060018152602001603160f81b81525061247f565b600054610100900460ff1680611a8b5750611a8b611698565b80611a99575060005460ff16155b611ad45760405162461bcd60e51b815260040180806020018281038252602e815260200180613f3f602e913960400191505060405180910390fd5b600054610100900460ff16158015611aff576000805460ff1961ff0019909116610100171660011790555b8151611b13906101fa906020850190613578565b50611b2463e8a3d48560e01b6123fb565b801561067c576000805461ff00191690555050565b600054610100900460ff1680611b525750611b52611698565b80611b60575060005460ff16155b611b9b5760405162461bcd60e51b815260040180806020018281038252602e815260200180613f3f602e913960400191505060405180910390fd5b600054610100900460ff16158015611bc6576000805460ff1961ff0019909116610100171660011790555b611759631131d2f360e21b6123fb565b600054610100900460ff1680611bef5750611bef611698565b80611bfd575060005460ff16155b611c385760405162461bcd60e51b815260040180806020018281038252602e815260200180613f3f602e913960400191505060405180910390fd5b600054610100900460ff16158015611c63576000805460ff1961ff0019909116610100171660011790555b8251611c7690609c906020860190613578565b508151611c8a90609d906020850190613578565b50611c9b6380ac58cd60e01b6123fb565b611cab635b5e139f60e01b6123fb565b611cbb63780e9d6360e01b6123fb565b80156105f9576000805461ff0019169055505050565b6000611cdc82610941565b9050611cea816000846105f9565b611cf5600083611281565b6000828152609e60205260409020546002600019610100600184161502019091160415611d33576000828152609e60205260408120611d3391613604565b6001600160a01b0381166000908152609760205260409020611d559083612363565b50611d61609883612516565b5060405182906000906001600160a01b038416907fddf252ad1be2c89b69c2b068fc378daa952ba7f163c4a11628f55a4df523b3ef908390a45050565b6000808080611dad8686612522565b9097909650945050505050565b6000611dc784848461259d565b90505b9392505050565b611ddc848484611540565b611de884848484612667565b610d4d5760405162461bcd60e51b8152600401808060200182810382526032815260200180613dc46032913960400191505060405180910390fd5b606081611e4857506040805180820190915260018152600360fc1b6020820152610426565b8160005b8115611e6057600101600a82049150611e4c565b60008167ffffffffffffffff81118015611e7957600080fd5b506040519080825280601f01601f191660200182016040528015611ea4576020820181803683370190505b50859350905060001982015b8315611ef557600a840660300160f81b82828060019003935081518110611ed357fe5b60200101906001600160f81b031916908160001a905350600a84049350611eb0565b50949350505050565b60008381526101c66020526040812054905b8181101561086d5760008581526101c66020526040902080546001600160a01b038616919083908110611f3f57fe5b6000918252602090912001546001600160a01b03161415611fa25760008581526101c660205260409020805484919083908110611f7857fe5b600091825260209091200180546001600160a01b0319166001600160a01b03929092169190911790555b600101611f10565b6001600160a01b038116600090815260c9602052604081205460ff168061077157506107718383611253565b600061077183836127d0565b5490565b61067c82604001518281518110611ff957fe5b60200260200101516000015161200e846127e8565b8460800151848151811061201e57fe5b6020026020010151612a31565b6001600160a01b038216612086576040805162461bcd60e51b815260206004820181905260248201527f4552433732313a206d696e7420746f20746865207a65726f2061646472657373604482015290519081900360640190fd5b61208f81611242565b156120e1576040805162461bcd60e51b815260206004820152601c60248201527f4552433732313a20746f6b656e20616c7265616479206d696e74656400000000604482015290519081900360640190fd5b6120ed600083836105f9565b6001600160a01b038216600090815260976020526040902061210f908261236f565b5061211c6098828461237b565b5060405181906001600160a01b038416906000907fddf252ad1be2c89b69c2b068fc378daa952ba7f163c4a11628f55a4df523b3ef908290a45050565b61216282611242565b61219d5760405162461bcd60e51b815260040180806020018281038252602c815260200180613fdd602c913960400191505060405180910390fd5b6000828152609e6020908152604090912082516105f992840190613578565b60005b81518110156105f95760006001600160a01b03168282815181106121df57fe5b6020026020010151600001516001600160a01b03161415612247576040805162461bcd60e51b815260206004820152601b60248201527f526563697069656e742073686f756c642062652070726573656e740000000000604482015290519081900360640190fd5b81818151811061225357fe5b6020026020010151602001516001600160601b0316600014156122bd576040805162461bcd60e51b815260206004820152601c60248201527f4665652076616c75652073686f756c6420626520706f73697469766500000000604482015290519081900360640190fd5b60008381526101c66020526040902082518390839081106122da57fe5b60209081029190910181015182546001818101855560009485529383902082519101805492909301516001600160601b0316600160a01b026001600160a01b039182166001600160a01b03199093169290921716179055016121bf565b6001600160a01b038216600090815260c9602052604081205460ff168061077157506107718383612c69565b60006107718383612d05565b60006107718383612dcb565b6000611dc784846001600160a01b038516612e15565b815460009082106123d35760405162461bcd60e51b8152600401808060200182810382526022815260200180613da26022913960400191505060405180910390fd5b8260000182815481106123e257fe5b9060005260206000200154905092915050565b3b151590565b6001600160e01b0319808216141561245a576040805162461bcd60e51b815260206004820152601c60248201527f4552433136353a20696e76616c696420696e7465726661636520696400000000604482015290519081900360640190fd5b6001600160e01b0319166000908152606560205260409020805460ff19166001179055565b600054610100900460ff16806124985750612498611698565b806124a6575060005460ff16155b6124e15760405162461bcd60e51b815260040180806020018281038252602e815260200180613f3f602e913960400191505060405180910390fd5b600054610100900460ff1615801561250c576000805460ff1961ff0019909116610100171660011790555b611cbb8383612eac565b60006107718383612f6e565b8154600090819083106125665760405162461bcd60e51b8152600401808060200182810382526022815260200180613f8f6022913960400191505060405180910390fd5b600084600001848154811061257757fe5b906000526020600020906002020190508060000154816001015492509250509250929050565b600082815260018401602052604081205482816126385760405162461bcd60e51b81526004018080602001828103825283818151815260200191508051906020019080838360005b838110156125fd5781810151838201526020016125e5565b50505050905090810190601f16801561262a5780820380516001836020036101000a031916815260200191505b509250505060405180910390fd5b5084600001600182038154811061264b57fe5b9060005260206000209060020201600101549150509392505050565b600061267b846001600160a01b03166123f5565b612687575060016127c8565b6000612795630a85bd0160e11b61269c61124f565b88878760405160240180856001600160a01b03168152602001846001600160a01b0316815260200183815260200180602001828103825283818151815260200191508051906020019080838360005b838110156127035781810151838201526020016126eb565b50505050905090810190601f1680156127305780820380516001836020036101000a031916815260200191505b5095505050505050604051602081830303815290604052906001600160e01b0319166020820180516001600160e01b038381831617835250505050604051806060016040528060328152602001613dc4603291396001600160a01b0388169190613042565b905060008180602001905160208110156127ae57600080fd5b50516001600160e01b031916630a85bd0160e11b14925050505b949350505050565b60009081526001919091016020526040902054151590565b60008082606001515167ffffffffffffffff8111801561280757600080fd5b50604051908082528060200260200182016040528015612831578160200160208202803683370190505b50905060005b836060015151811015612883576128648460600151828151811061285757fe5b6020026020010151613051565b82828151811061287057fe5b6020908102919091010152600101612837565b50600083604001515167ffffffffffffffff811180156128a257600080fd5b506040519080825280602002602001820160405280156128cc578160200160208202803683370190505b50905060005b846040015151811015612911576128f28560400151828151811061285757fe5b8282815181106128fe57fe5b60209081029190910101526001016128d2565b507ff64326045af5fd7e15297ba939f85b550474d3899daa47d2bc1ffbdb9ced344e84600001518560200151805190602001208360405160200180828051906020019060200280838360005b8381101561297557818101518382015260200161295d565b50505050905001915050604051602081830303815290604052805190602001208560405160200180828051906020019060200280838360005b838110156129c65781810151838201526020016129ae565b505050509050019150506040516020818303038152906040528051906020012060405160200180868152602001858152602001848152602001838152602001828152602001955050505050506040516020818303038152906040528051906020012092505050919050565b6000612a3c836130be565b9050612a50846001600160a01b03166123f5565b15612bc95760408051630b135d3f60e11b808252600482018481526024830193845285516044840152855191936001600160a01b03891693631626ba7e938793899390929091606490910190602085019080838360005b83811015612abf578181015183820152602001612aa7565b50505050905090810190601f168015612aec5780820380516001836020036101000a031916815260200191505b50935050505060206040518083038186803b158015612b0a57600080fd5b505afa158015612b1e573d6000803e3d6000fd5b505050506040513d6020811015612b3457600080fd5b505160408051808201909152601c81527f7369676e617475726520766572696669636174696f6e206572726f72000000006020820152916001600160e01b031990911614612bc35760405162461bcd60e51b81526020600482018181528351602484015283519092839260449091019190850190808383600083156125fd5781810151838201526020016125e5565b50610d4d565b6001600160a01b038416612bdd828461310a565b6001600160a01b0316146040518060400160405280601c81526020017f7369676e617475726520766572696669636174696f6e206572726f72000000008152509061086d5760405162461bcd60e51b81526020600482018181528351602484015283519092839260449091019190850190808383600083156125fd5781810151838201526020016125e5565b6000612c7482611242565b612caf5760405162461bcd60e51b815260040180806020018281038252602c815260200180613e88602c913960400191505060405180910390fd5b6000612cba83610941565b9050806001600160a01b0316846001600160a01b03161480612cf55750836001600160a01b0316612cea846104c1565b6001600160a01b0316145b806127c857506127c88185611253565b60008181526001830160205260408120548015612dc15783546000198083019190810190600090879083908110612d3857fe5b9060005260206000200154905080876000018481548110612d5557fe5b600091825260208083209091019290925582815260018981019092526040902090840190558654879080612d8557fe5b60019003818190600052602060002001600090559055866001016000878152602001908152602001600020600090556001945050505050610774565b6000915050610774565b6000612dd783836127d0565b612e0d57508154600181810184556000848152602080822090930184905584548482528286019093526040902091909155610774565b506000610774565b600082815260018401602052604081205480612e7a575050604080518082018252838152602080820184815286546001818101895560008981528481209551600290930290950191825591519082015586548684528188019092529290912055611dca565b82856000016001830381548110612e8d57fe5b9060005260206000209060020201600101819055506000915050611dca565b600054610100900460ff1680612ec55750612ec5611698565b80612ed3575060005460ff16155b612f0e5760405162461bcd60e51b815260040180806020018281038252602e815260200180613f3f602e913960400191505060405180910390fd5b600054610100900460ff16158015612f39576000805460ff1961ff0019909116610100171660011790555b825160208085019190912083519184019190912061012e9190915561012f5580156105f9576000805461ff0019169055505050565b60008181526001830160205260408120548015612dc15783546000198083019190810190600090879083908110612fa157fe5b9060005260206000209060020201905080876000018481548110612fc157fe5b60009182526020808320845460029093020191825560019384015491840191909155835482528983019052604090209084019055865487908061300057fe5b60008281526020808220600260001990940193840201828155600190810183905592909355888152898201909252604082209190915594506107749350505050565b6060611dc7848460008561318a565b8051602091820151604080517f397e04204c1e1a60ee8724b71f8244e10ab5f2e9009854d80f602bda21b59ebb818601526001600160a01b03909316838201526001600160601b039091166060808401919091528151808403909101815260809092019052805191012090565b60006130c86132e5565b82604051602001808061190160f01b81525060020183815260200182815260200192505050604051602081830303815290604052805190602001209050919050565b60008151604114613162576040805162461bcd60e51b815260206004820152601f60248201527f45434453413a20696e76616c6964207369676e6174757265206c656e67746800604482015290519081900360640190fd5b60208201516040830151606084015160001a61318086828585613320565b9695505050505050565b6060824710156131cb5760405162461bcd60e51b8152600401808060200182810382526026815260200180613e626026913960400191505060405180910390fd5b6131d4856123f5565b613225576040805162461bcd60e51b815260206004820152601d60248201527f416464726573733a2063616c6c20746f206e6f6e2d636f6e7472616374000000604482015290519081900360640190fd5b600080866001600160a01b031685876040518082805190602001908083835b602083106132635780518252601f199092019160209182019101613244565b6001836020036101000a03801982511681845116808217855250505050505090500191505060006040518083038185875af1925050503d80600081146132c5576040519150601f19603f3d011682016040523d82523d6000602084013e6132ca565b606091505b50915091506132da82828661349e565b979650505050505050565b600061068c7f8b73c3c69bb8fe3d512ecc4cf759cc79239f7b179b0ffacaa9a75d522b39400f613313613504565b61331b61350b565b613512565b60007f7fffffffffffffffffffffffffffffff5d576e7357a4501ddfe92f46681b20a08211156133815760405162461bcd60e51b8152600401808060200182810382526022815260200180613e406022913960400191505060405180910390fd5b8360ff16601b148061339657508360ff16601c145b6133d15760405162461bcd60e51b8152600401808060200182810382526022815260200180613f6d6022913960400191505060405180910390fd5b600060018686868660405160008152602001604052604051808581526020018460ff1681526020018381526020018281526020019450505050506020604051602081039080840390855afa15801561342d573d6000803e3d6000fd5b5050604051601f1901519150506001600160a01b038116613495576040805162461bcd60e51b815260206004820152601860248201527f45434453413a20696e76616c6964207369676e61747572650000000000000000604482015290519081900360640190fd5b95945050505050565b606083156134ad575081611dca565b8251156134bd5782518084602001fd5b60405162461bcd60e51b81526020600482018181528451602484015284518593919283926044019190850190808383600083156125fd5781810151838201526020016125e5565b61012e5490565b61012f5490565b600083838361351f613574565b3060405160200180868152602001858152602001848152602001838152602001826001600160a01b03168152602001955050505050506040516020818303038152906040528051906020012090509392505050565b4690565b828054600181600116156101000203166002900490600052602060002090601f0160209004810192826135ae57600085556135f4565b82601f106135c757805160ff19168380011785556135f4565b828001600101855582156135f4579182015b828111156135f45782518255916020019190600101906135d9565b50613600929150613644565b5090565b50805460018160011615610100020316600290046000825580601f1061362a57506108de565b601f0160209004906000526020600020908101906108de91905b5b808211156136005760008155600101613645565b803561042681613d8c565b600082601f830112613674578081fd5b8135602061368961368483613d6e565b613d4a565b82815281810190858301855b858110156136be576136ac898684358b0101613787565b84529284019290840190600101613695565b5090979650505050505050565b600082601f8301126136db578081fd5b813560206136eb61368483613d6e565b82815281810190858301604080860288018501891015613709578687fd5b865b868110156137795781838b031215613721578788fd5b815182810181811067ffffffffffffffff8211171561373c57fe5b8352833561374981613d8c565b8152838701356001600160601b038116811461376357898afd5b818801528552938501939181019160010161370b565b509198975050505050505050565b600082601f830112613797578081fd5b813567ffffffffffffffff8111156137ab57fe5b6137be601f8201601f1916602001613d4a565b8181528460208386010111156137d2578283fd5b816020850160208301379081016020019190915292915050565b6000602082840312156137fd578081fd5b8135611dca81613d8c565b6000806040838503121561381a578081fd5b823561382581613d8c565b9150602083013561383581613d8c565b809150509250929050565b600080600060608486031215613854578081fd5b833561385f81613d8c565b9250602084013561386f81613d8c565b929592945050506040919091013590565b60008060008060808587031215613895578081fd5b84356138a081613d8c565b935060208501356138b081613d8c565b925060408501359150606085013567ffffffffffffffff8111156138d2578182fd5b6138de87828801613787565b91505092959194509250565b600080604083850312156138fc578182fd5b823561390781613d8c565b915060208301358015158114613835578182fd5b6000806040838503121561392d578182fd5b823561393881613d8c565b946020939093013593505050565b600060208284031215613957578081fd5b81356001600160e01b031981168114611dca578182fd5b60008060008060808587031215613983578182fd5b843567ffffffffffffffff8082111561399a578384fd5b6139a688838901613787565b955060208701359150808211156139bb578384fd5b6139c788838901613787565b945060408701359150808211156139dc578384fd5b6139e888838901613787565b935060608701359150808211156139fd578283fd5b506138de87828801613787565b60008060408385031215613a1c578182fd5b823567ffffffffffffffff80821115613a33578384fd5b9084019060a08287031215613a46578384fd5b613a5060a0613d4a565b82358152602083013582811115613a65578586fd5b613a7188828601613787565b602083015250604083013582811115613a88578586fd5b613a94888286016136cb565b604083015250606083013582811115613aab578586fd5b613ab7888286016136cb565b606083015250608083013582811115613ace578586fd5b613ada88828601613664565b6080830152509350613af191505060208401613659565b90509250929050565b600060208284031215613b0b578081fd5b5035919050565b600080600060608486031215613b26578081fd5b833592506020840135613b3881613d8c565b91506040840135613b4881613d8c565b809150509250925092565b60008060408385031215613b65578182fd5b50508035926020909101359150565b6001600160a01b0391909116815260200190565b6001600160a01b039290921682526001600160601b0316602082015260400190565b602080825282518282018190526000919060409081850190868401855b82811015613bfe57815180516001600160a01b031685528601516001600160601b0316868501529284019290850190600101613bc7565b5091979650505050505050565b901515815260200190565b6000602080835283518082850152825b81811015613c4257858101830151858201604001528201613c26565b81811115613c535783604083870101525b50601f01601f1916929092016040019392505050565b60208082526017908201527f6d696e746572206973206e6f7420746865206f776e6572000000000000000000604082015260600190565b6020808252601190820152701d1bdad95b9259081a5b98dbdc9c9958dd607a1b604082015260600190565b6020808252600b908201526a1b9bdd08185b1b1bddd95960aa1b604082015260600190565b60208082526031908201527f4552433732313a207472616e736665722063616c6c6572206973206e6f74206f6040820152701ddb995c881b9bdc88185c1c1c9bdd9959607a1b606082015260800190565b90815260200190565b60405181810167ffffffffffffffff81118282101715613d6657fe5b604052919050565b600067ffffffffffffffff821115613d8257fe5b5060209081020190565b6001600160a01b03811681146108de57600080fdfe456e756d657261626c655365743a20696e646578206f7574206f6620626f756e64734552433732313a207472616e7366657220746f206e6f6e20455243373231526563656976657220696d706c656d656e7465724f776e61626c653a206e6577206f776e657220697320746865207a65726f20616464726573734552433732313a207472616e7366657220746f20746865207a65726f206164647265737345434453413a20696e76616c6964207369676e6174757265202773272076616c7565416464726573733a20696e73756666696369656e742062616c616e636520666f722063616c6c4552433732313a206f70657261746f7220717565727920666f72206e6f6e6578697374656e7420746f6b656e4552433732313a20617070726f76652063616c6c6572206973206e6f74206f776e6572206e6f7220617070726f76656420666f7220616c6c4552433732313a2062616c616e636520717565727920666f7220746865207a65726f20616464726573734552433732313a206f776e657220717565727920666f72206e6f6e6578697374656e7420746f6b656e496e697469616c697a61626c653a20636f6e747261637420697320616c726561647920696e697469616c697a656445434453413a20696e76616c6964207369676e6174757265202776272076616c7565456e756d657261626c654d61703a20696e646578206f7574206f6620626f756e64734552433732313a20617070726f76656420717565727920666f72206e6f6e6578697374656e7420746f6b656e4552433732314d657461646174613a2055524920736574206f66206e6f6e6578697374656e7420746f6b656e4552433732313a207472616e73666572206f6620746f6b656e2074686174206973206e6f74206f776e4552433732314d657461646174613a2055524920717565727920666f72206e6f6e6578697374656e7420746f6b656e4552433732313a20617070726f76616c20746f2063757272656e74206f776e65724552433732313a207472616e736665722063616c6c6572206973206e6f74206f776e6572206e6f7220617070726f7665644552433732314275726e61626c653a2063616c6c6572206973206e6f74206f776e6572206e6f7220617070726f766564a2646970667358221220a66e4291890fa0a560ebcb77745fb1ca402f820b03701951d723fa40a3fe2baf64736f6c63430007060033",
  "immutableReferences": {},
  "source": "// SPDX-License-Identifier: MIT\n\npragma solidity >=0.6.2 <0.8.0;\npragma abicoder v2;\n\nimport \"./ERC721Base.sol\";\n\ncontract ERC721RaribleUser is ERC721Base {\n    function __ERC721RaribleUser_init(string memory _name, string memory _symbol, string memory baseURI, string memory contractURI) external initializer {\n        _setBaseURI(baseURI);\n        __ERC721Lazy_init_unchained();\n        __Context_init_unchained();\n        __ERC165_init_unchained();\n        __Ownable_init_unchained();\n        __ERC721Burnable_init_unchained();\n        __Mint721Validator_init_unchained();\n        __HasContractURI_init_unchained(contractURI);\n        __RoyaltiesV2Upgradeable_init_unchained();\n        __ERC721_init_unchained(_name, _symbol);\n    }\n\n    function mintAndTransfer(LibERC721LazyMint.Mint721Data memory data, address to) public override virtual {\n        require(owner() == data.creators[0].account, \"minter is not the owner\");\n        super.mintAndTransfer(data, to);\n    }\n    uint256[50] private __gap;\n}\n",
  "sourcePath": "/home/quadro/Projects/tokenplace/interfaces/tokens/contracts/erc-721/ERC721RaribleUser.sol",
  "compiler": {
    "name": "solc",
    "version": "0.7.6+commit.7338295f.Emscripten.clang"
  },
  "schemaVersion": "3.3.4",
  "updatedAt": "2021-04-09T13:41:44.943Z",
  "devdoc": {
    "kind": "dev",
    "methods": {
      "approve(address,uint256)": {
        "details": "See {IERC721-approve}."
      },
      "balanceOf(address)": {
        "details": "See {IERC721-balanceOf}."
      },
      "baseURI()": {
        "details": "Returns the base URI set via {_setBaseURI}. This will be automatically added as a prefix in {tokenURI} to each token's URI, or to the token ID if no specific URI is set for that token ID."
      },
      "burn(uint256)": {
        "details": "Burns `tokenId`. See {ERC721-_burn}. Requirements: - The caller must own `tokenId` or be an approved operator."
      },
      "getApproved(uint256)": {
        "details": "See {IERC721-getApproved}."
      },
      "name()": {
        "details": "See {IERC721Metadata-name}."
      },
      "owner()": {
        "details": "Returns the address of the current owner."
      },
      "ownerOf(uint256)": {
        "details": "See {IERC721-ownerOf}."
      },
      "renounceOwnership()": {
        "details": "Leaves the contract without owner. It will not be possible to call `onlyOwner` functions anymore. Can only be called by the current owner. NOTE: Renouncing ownership will leave the contract without an owner, thereby removing any functionality that is only available to the owner."
      },
      "safeTransferFrom(address,address,uint256)": {
        "details": "See {IERC721-safeTransferFrom}."
      },
      "safeTransferFrom(address,address,uint256,bytes)": {
        "details": "See {IERC721-safeTransferFrom}."
      },
      "setApprovalForAll(address,bool)": {
        "details": "See {IERC721-setApprovalForAll}."
      },
      "supportsInterface(bytes4)": {
        "details": "See {IERC165-supportsInterface}. Time complexity O(1), guaranteed to always use less than 30 000 gas."
      },
      "symbol()": {
        "details": "See {IERC721Metadata-symbol}."
      },
      "tokenByIndex(uint256)": {
        "details": "See {IERC721Enumerable-tokenByIndex}."
      },
      "tokenOfOwnerByIndex(address,uint256)": {
        "details": "See {IERC721Enumerable-tokenOfOwnerByIndex}."
      },
      "tokenURI(uint256)": {
        "details": "See {IERC721Metadata-tokenURI}."
      },
      "totalSupply()": {
        "details": "See {IERC721Enumerable-totalSupply}."
      },
      "transferFrom(address,address,uint256)": {
        "details": "See {IERC721-transferFrom}."
      },
      "transferOwnership(address)": {
        "details": "Transfers ownership of the contract to a new account (`newOwner`). Can only be called by the current owner."
      }
    },
    "version": 1
  },
  "userdoc": {
    "kind": "user",
    "methods": {},
    "version": 1
  }
}