{
  "contractName": "ERC721Rarible",
  "abi": [
    {
      "anonymous": false,
      "inputs": [
        {
          "indexed": true,
          "internalType": "address",
          "name": "owner",
          "type": "address"
        },
        {
          "indexed": true,
          "internalType": "address",
          "name": "approved",
          "type": "address"
        },
        {
          "indexed": true,
          "internalType": "uint256",
          "name": "tokenId",
          "type": "uint256"
        }
      ],
      "name": "Approval",
      "type": "event"
    },
    {
      "anonymous": false,
      "inputs": [
        {
          "indexed": true,
          "internalType": "address",
          "name": "owner",
          "type": "address"
        },
        {
          "indexed": true,
          "internalType": "address",
          "name": "operator",
          "type": "address"
        },
        {
          "indexed": false,
          "internalType": "bool",
          "name": "approved",
          "type": "bool"
        }
      ],
      "name": "ApprovalForAll",
      "type": "event"
    },
    {
      "anonymous": false,
      "inputs": [
        {
          "indexed": false,
          "internalType": "string",
          "name": "newBaseURI",
          "type": "string"
        }
      ],
      "name": "BaseUriChanged",
      "type": "event"
    },
    {
      "anonymous": false,
      "inputs": [
        {
          "indexed": false,
          "internalType": "address",
          "name": "owner",
          "type": "address"
        },
        {
          "indexed": false,
          "internalType": "string",
          "name": "name",
          "type": "string"
        },
        {
          "indexed": false,
          "internalType": "string",
          "name": "symbol",
          "type": "string"
        }
      ],
      "name": "CreateERC721Rarible",
      "type": "event"
    },
    {
      "anonymous": false,
      "inputs": [
        {
          "indexed": false,
          "internalType": "uint256",
          "name": "tokenId",
          "type": "uint256"
        },
        {
          "components": [
            {
              "internalType": "address payable",
              "name": "account",
              "type": "address"
            },
            {
              "internalType": "uint96",
              "name": "value",
              "type": "uint96"
            }
          ],
          "indexed": false,
          "internalType": "struct LibPart.Part[]",
          "name": "creators",
          "type": "tuple[]"
        }
      ],
      "name": "Creators",
      "type": "event"
    },
    {
      "anonymous": false,
      "inputs": [
        {
          "indexed": true,
          "internalType": "address",
          "name": "operator",
          "type": "address"
        },
        {
          "indexed": false,
          "internalType": "bool",
          "name": "hasApproval",
          "type": "bool"
        }
      ],
      "name": "DefaultApproval",
      "type": "event"
    },
    {
      "anonymous": false,
      "inputs": [
        {
          "indexed": false,
          "internalType": "uint8",
          "name": "version",
          "type": "uint8"
        }
      ],
      "name": "Initialized",
      "type": "event"
    },
    {
      "anonymous": false,
      "inputs": [
        {
          "indexed": true,
          "internalType": "address",
          "name": "previousOwner",
          "type": "address"
        },
        {
          "indexed": true,
          "internalType": "address",
          "name": "newOwner",
          "type": "address"
        }
      ],
      "name": "OwnershipTransferred",
      "type": "event"
    },
    {
      "anonymous": false,
      "inputs": [
        {
          "indexed": false,
          "internalType": "uint256",
          "name": "tokenId",
          "type": "uint256"
        },
        {
          "components": [
            {
              "internalType": "address payable",
              "name": "account",
              "type": "address"
            },
            {
              "internalType": "uint96",
              "name": "value",
              "type": "uint96"
            }
          ],
          "indexed": false,
          "internalType": "struct LibPart.Part[]",
          "name": "royalties",
          "type": "tuple[]"
        }
      ],
      "name": "RoyaltiesSet",
      "type": "event"
    },
    {
      "anonymous": false,
      "inputs": [
        {
          "indexed": true,
          "internalType": "address",
          "name": "from",
          "type": "address"
        },
        {
          "indexed": true,
          "internalType": "address",
          "name": "to",
          "type": "address"
        },
        {
          "indexed": true,
          "internalType": "uint256",
          "name": "tokenId",
          "type": "uint256"
        }
      ],
      "name": "Transfer",
      "type": "event"
    },
    {
      "inputs": [
        {
          "internalType": "address",
          "name": "to",
          "type": "address"
        },
        {
          "internalType": "uint256",
          "name": "tokenId",
          "type": "uint256"
        }
      ],
      "name": "approve",
      "outputs": [],
      "stateMutability": "nonpayable",
      "type": "function"
    },
    {
      "inputs": [
        {
          "internalType": "address",
          "name": "owner",
          "type": "address"
        }
      ],
      "name": "balanceOf",
      "outputs": [
        {
          "internalType": "uint256",
          "name": "",
          "type": "uint256"
        }
      ],
      "stateMutability": "view",
      "type": "function"
    },
    {
      "inputs": [],
      "name": "baseURI",
      "outputs": [
        {
          "internalType": "string",
          "name": "",
          "type": "string"
        }
      ],
      "stateMutability": "view",
      "type": "function"
    },
    {
      "inputs": [
        {
          "internalType": "uint256",
          "name": "tokenId",
          "type": "uint256"
        }
      ],
      "name": "burn",
      "outputs": [],
      "stateMutability": "nonpayable",
      "type": "function"
    },
    {
      "inputs": [],
      "name": "contractURI",
      "outputs": [
        {
          "internalType": "string",
          "name": "",
          "type": "string"
        }
      ],
      "stateMutability": "view",
      "type": "function"
    },
    {
      "inputs": [
        {
          "internalType": "uint256",
          "name": "tokenId",
          "type": "uint256"
        }
      ],
      "name": "getApproved",
      "outputs": [
        {
          "internalType": "address",
          "name": "",
          "type": "address"
        }
      ],
      "stateMutability": "view",
      "type": "function"
    },
    {
      "inputs": [
        {
          "internalType": "uint256",
          "name": "_id",
          "type": "uint256"
        }
      ],
      "name": "getCreators",
      "outputs": [
        {
          "components": [
            {
              "internalType": "address payable",
              "name": "account",
              "type": "address"
            },
            {
              "internalType": "uint96",
              "name": "value",
              "type": "uint96"
            }
          ],
          "internalType": "struct LibPart.Part[]",
          "name": "",
          "type": "tuple[]"
        }
      ],
      "stateMutability": "view",
      "type": "function"
    },
    {
      "inputs": [
        {
          "internalType": "uint256",
          "name": "id",
          "type": "uint256"
        }
      ],
      "name": "getRaribleV2Royalties",
      "outputs": [
        {
          "components": [
            {
              "internalType": "address payable",
              "name": "account",
              "type": "address"
            },
            {
              "internalType": "uint96",
              "name": "value",
              "type": "uint96"
            }
          ],
          "internalType": "struct LibPart.Part[]",
          "name": "",
          "type": "tuple[]"
        }
      ],
      "stateMutability": "view",
      "type": "function"
    },
    {
      "inputs": [
        {
          "internalType": "address",
          "name": "owner",
          "type": "address"
        },
        {
          "internalType": "address",
          "name": "operator",
          "type": "address"
        }
      ],
      "name": "isApprovedForAll",
      "outputs": [
        {
          "internalType": "bool",
          "name": "",
          "type": "bool"
        }
      ],
      "stateMutability": "view",
      "type": "function"
    },
    {
      "inputs": [
        {
          "components": [
            {
              "internalType": "uint256",
              "name": "tokenId",
              "type": "uint256"
            },
            {
              "internalType": "string",
              "name": "tokenURI",
              "type": "string"
            },
            {
              "components": [
                {
                  "internalType": "address payable",
                  "name": "account",
                  "type": "address"
                },
                {
                  "internalType": "uint96",
                  "name": "value",
                  "type": "uint96"
                }
              ],
              "internalType": "struct LibPart.Part[]",
              "name": "creators",
              "type": "tuple[]"
            },
            {
              "components": [
                {
                  "internalType": "address payable",
                  "name": "account",
                  "type": "address"
                },
                {
                  "internalType": "uint96",
                  "name": "value",
                  "type": "uint96"
                }
              ],
              "internalType": "struct LibPart.Part[]",
              "name": "royalties",
              "type": "tuple[]"
            },
            {
              "internalType": "bytes[]",
              "name": "signatures",
              "type": "bytes[]"
            }
          ],
          "internalType": "struct LibERC721LazyMint.Mint721Data",
          "name": "data",
          "type": "tuple"
        },
        {
          "internalType": "address",
          "name": "to",
          "type": "address"
        }
      ],
      "name": "mintAndTransfer",
      "outputs": [],
      "stateMutability": "nonpayable",
      "type": "function"
    },
    {
      "inputs": [],
      "name": "name",
      "outputs": [
        {
          "internalType": "string",
          "name": "",
          "type": "string"
        }
      ],
      "stateMutability": "view",
      "type": "function"
    },
    {
      "inputs": [],
      "name": "owner",
      "outputs": [
        {
          "internalType": "address",
          "name": "",
          "type": "address"
        }
      ],
      "stateMutability": "view",
      "type": "function"
    },
    {
      "inputs": [
        {
          "internalType": "uint256",
          "name": "tokenId",
          "type": "uint256"
        }
      ],
      "name": "ownerOf",
      "outputs": [
        {
          "internalType": "address",
          "name": "",
          "type": "address"
        }
      ],
      "stateMutability": "view",
      "type": "function"
    },
    {
      "inputs": [],
      "name": "renounceOwnership",
      "outputs": [],
      "stateMutability": "nonpayable",
      "type": "function"
    },
    {
      "inputs": [
        {
          "internalType": "uint256",
          "name": "id",
          "type": "uint256"
        },
        {
          "internalType": "uint256",
          "name": "_salePrice",
          "type": "uint256"
        }
      ],
      "name": "royaltyInfo",
      "outputs": [
        {
          "internalType": "address",
          "name": "receiver",
          "type": "address"
        },
        {
          "internalType": "uint256",
          "name": "royaltyAmount",
          "type": "uint256"
        }
      ],
      "stateMutability": "view",
      "type": "function"
    },
    {
      "inputs": [
        {
          "internalType": "address",
          "name": "from",
          "type": "address"
        },
        {
          "internalType": "address",
          "name": "to",
          "type": "address"
        },
        {
          "internalType": "uint256",
          "name": "tokenId",
          "type": "uint256"
        }
      ],
      "name": "safeTransferFrom",
      "outputs": [],
      "stateMutability": "nonpayable",
      "type": "function"
    },
    {
      "inputs": [
        {
          "internalType": "address",
          "name": "from",
          "type": "address"
        },
        {
          "internalType": "address",
          "name": "to",
          "type": "address"
        },
        {
          "internalType": "uint256",
          "name": "tokenId",
          "type": "uint256"
        },
        {
          "internalType": "bytes",
          "name": "_data",
          "type": "bytes"
        }
      ],
      "name": "safeTransferFrom",
      "outputs": [],
      "stateMutability": "nonpayable",
      "type": "function"
    },
    {
      "inputs": [
        {
          "internalType": "address",
          "name": "operator",
          "type": "address"
        },
        {
          "internalType": "bool",
          "name": "approved",
          "type": "bool"
        }
      ],
      "name": "setApprovalForAll",
      "outputs": [],
      "stateMutability": "nonpayable",
      "type": "function"
    },
    {
      "inputs": [
        {
          "internalType": "string",
          "name": "newBaseURI",
          "type": "string"
        }
      ],
      "name": "setBaseURI",
      "outputs": [],
      "stateMutability": "nonpayable",
      "type": "function"
    },
    {
      "inputs": [
        {
          "internalType": "bytes4",
          "name": "interfaceId",
          "type": "bytes4"
        }
      ],
      "name": "supportsInterface",
      "outputs": [
        {
          "internalType": "bool",
          "name": "",
          "type": "bool"
        }
      ],
      "stateMutability": "view",
      "type": "function"
    },
    {
      "inputs": [],
      "name": "symbol",
      "outputs": [
        {
          "internalType": "string",
          "name": "",
          "type": "string"
        }
      ],
      "stateMutability": "view",
      "type": "function"
    },
    {
      "inputs": [
        {
          "internalType": "uint256",
          "name": "index",
          "type": "uint256"
        }
      ],
      "name": "tokenByIndex",
      "outputs": [
        {
          "internalType": "uint256",
          "name": "",
          "type": "uint256"
        }
      ],
      "stateMutability": "view",
      "type": "function"
    },
    {
      "inputs": [
        {
          "internalType": "address",
          "name": "owner",
          "type": "address"
        },
        {
          "internalType": "uint256",
          "name": "index",
          "type": "uint256"
        }
      ],
      "name": "tokenOfOwnerByIndex",
      "outputs": [
        {
          "internalType": "uint256",
          "name": "",
          "type": "uint256"
        }
      ],
      "stateMutability": "view",
      "type": "function"
    },
    {
      "inputs": [
        {
          "internalType": "uint256",
          "name": "tokenId",
          "type": "uint256"
        }
      ],
      "name": "tokenURI",
      "outputs": [
        {
          "internalType": "string",
          "name": "",
          "type": "string"
        }
      ],
      "stateMutability": "view",
      "type": "function"
    },
    {
      "inputs": [],
      "name": "totalSupply",
      "outputs": [
        {
          "internalType": "uint256",
          "name": "",
          "type": "uint256"
        }
      ],
      "stateMutability": "view",
      "type": "function"
    },
    {
      "inputs": [
        {
          "internalType": "address",
          "name": "from",
          "type": "address"
        },
        {
          "internalType": "address",
          "name": "to",
          "type": "address"
        },
        {
          "internalType": "uint256",
          "name": "tokenId",
          "type": "uint256"
        }
      ],
      "name": "transferFrom",
      "outputs": [],
      "stateMutability": "nonpayable",
      "type": "function"
    },
    {
      "inputs": [
        {
          "components": [
            {
              "internalType": "uint256",
              "name": "tokenId",
              "type": "uint256"
            },
            {
              "internalType": "string",
              "name": "tokenURI",
              "type": "string"
            },
            {
              "components": [
                {
                  "internalType": "address payable",
                  "name": "account",
                  "type": "address"
                },
                {
                  "internalType": "uint96",
                  "name": "value",
                  "type": "uint96"
                }
              ],
              "internalType": "struct LibPart.Part[]",
              "name": "creators",
              "type": "tuple[]"
            },
            {
              "components": [
                {
                  "internalType": "address payable",
                  "name": "account",
                  "type": "address"
                },
                {
                  "internalType": "uint96",
                  "name": "value",
                  "type": "uint96"
                }
              ],
              "internalType": "struct LibPart.Part[]",
              "name": "royalties",
              "type": "tuple[]"
            },
            {
              "internalType": "bytes[]",
              "name": "signatures",
              "type": "bytes[]"
            }
          ],
          "internalType": "struct LibERC721LazyMint.Mint721Data",
          "name": "data",
          "type": "tuple"
        },
        {
          "internalType": "address",
          "name": "from",
          "type": "address"
        },
        {
          "internalType": "address",
          "name": "to",
          "type": "address"
        }
      ],
      "name": "transferFromOrMint",
      "outputs": [],
      "stateMutability": "nonpayable",
      "type": "function"
    },
    {
      "inputs": [
        {
          "internalType": "address",
          "name": "newOwner",
          "type": "address"
        }
      ],
      "name": "transferOwnership",
      "outputs": [],
      "stateMutability": "nonpayable",
      "type": "function"
    },
    {
      "inputs": [
        {
          "internalType": "uint256",
          "name": "_id",
          "type": "uint256"
        },
        {
          "internalType": "address",
          "name": "_from",
          "type": "address"
        },
        {
          "internalType": "address",
          "name": "_to",
          "type": "address"
        }
      ],
      "name": "updateAccount",
      "outputs": [],
      "stateMutability": "nonpayable",
      "type": "function"
    },
    {
      "inputs": [
        {
          "internalType": "string",
          "name": "_name",
          "type": "string"
        },
        {
          "internalType": "string",
          "name": "_symbol",
          "type": "string"
        },
        {
          "internalType": "string",
          "name": "baseURI",
          "type": "string"
        },
        {
          "internalType": "string",
          "name": "contractURI",
          "type": "string"
        },
        {
          "internalType": "address",
          "name": "transferProxy",
          "type": "address"
        },
        {
          "internalType": "address",
          "name": "lazyTransferProxy",
          "type": "address"
        }
      ],
      "name": "__ERC721Rarible_init",
      "outputs": [],
      "stateMutability": "nonpayable",
      "type": "function"
    }
  ],
  "bytecode": "0x608060405234801561001057600080fd5b5061414a806100206000396000f3fe608060405234801561001057600080fd5b50600436106101da5760003560e01c80636c0360eb11610104578063a22cb465116100a2578063e07f231911610071578063e07f23191461040a578063e8a3d4851461041d578063e985e9c514610425578063f2fde38b1461043857600080fd5b8063a22cb465146103be578063b88d4fde146103d1578063c87b56dd146103e4578063cad96cca146103f757600080fd5b8063832fbb29116100de578063832fbb2914610372578063891be974146103855780638da5cb5b146103a557806395d89b41146103b657600080fd5b80636c0360eb1461034f57806370a0823114610357578063715018a61461036a57600080fd5b80632a55205a1161017c57806342966c681161014b57806342966c68146103035780634f6ccce71461031657806355f804b3146103295780636352211e1461033c57600080fd5b80632a55205a146102985780632f745c59146102ca5780633db397c6146102dd57806342842e0e146102f057600080fd5b8063095ea7b3116101b8578063095ea7b31461024757806318160ddd1461025c57806322a775b61461027257806323b872dd1461028557600080fd5b806301ffc9a7146101df57806306fdde0314610207578063081812fc1461021c575b600080fd5b6101f26101ed3660046133e4565b61044b565b60405190151581526020015b60405180910390f35b61020f61045c565b6040516101fe9190613459565b61022f61022a36600461346c565b6104ee565b6040516001600160a01b0390911681526020016101fe565b61025a6102553660046134aa565b61057b565b005b610264610690565b6040519081526020016101fe565b61025a6102803660046137e7565b6106a1565b61025a610293366004613838565b61085c565b6102ab6102a6366004613879565b61088e565b604080516001600160a01b0390931683526020830191909152016101fe565b6102646102d83660046134aa565b6109cb565b61025a6102eb36600461389b565b6109f4565b61025a6102fe366004613838565b610af3565b61025a61031136600461346c565b610b0e565b61026461032436600461346c565b610c22565b61025a610337366004613967565b610c38565b61022f61034a36600461346c565b610c83565b61020f610cab565b61026461036536600461399b565b610cba565b61025a610d46565b61025a6103803660046139b8565b610d5a565b61039861039336600461346c565b610d83565b6040516101fe9190613a73565b6033546001600160a01b031661022f565b61020f610e13565b61025a6103cc366004613a86565b610e22565b61025a6103df366004613ab9565b610ee6565b61020f6103f236600461346c565b610f1e565b61039861040536600461346c565b61108e565b61025a610418366004613b24565b611109565b61020f61115a565b6101f2610433366004613b4b565b6111e9565b61025a61044636600461399b565b6111f5565b60006104568261126b565b92915050565b6060609d805461046b90613b79565b80601f016020809104026020016040519081016040528092919081815260200182805461049790613b79565b80156104e45780601f106104b9576101008083540402835291602001916104e4565b820191906000526020600020905b8154815290600101906020018083116104c757829003601f168201915b5050505050905090565b60006104f982611290565b61055f5760405162461bcd60e51b815260206004820152602c60248201527f4552433732313a20617070726f76656420717565727920666f72206e6f6e657860448201526b34b9ba32b73a103a37b5b2b760a11b60648201526084015b60405180910390fd5b506000908152609b60205260409020546001600160a01b031690565b600061058682610c83565b9050806001600160a01b0316836001600160a01b0316036105f35760405162461bcd60e51b815260206004820152602160248201527f4552433732313a20617070726f76616c20746f2063757272656e74206f776e656044820152603960f91b6064820152608401610556565b336001600160a01b038216148061060f575061060f813361129d565b6106815760405162461bcd60e51b815260206004820152603860248201527f4552433732313a20617070726f76652063616c6c6572206973206e6f74206f7760448201527f6e6572206e6f7220617070726f76656420666f7220616c6c00000000000000006064820152608401610556565b61068b83836112cb565b505050565b600061069c6098611339565b905090565b815160601c600033905083604001516000815181106106c2576106c2613bb3565b6020026020010151600001516001600160a01b0316826001600160a01b0316146107225760405162461bcd60e51b81526020600482015260116024820152701d1bdad95b9259081a5b98dbdc9c9958dd607a1b6044820152606401610556565b8360800151518460400151511461073857600080fd5b806001600160a01b0316826001600160a01b0316148061075d575061075d82826111e9565b6107795760405162461bcd60e51b815260040161055690613bc9565b600061078485611344565b905060005b856040015151811015610810576000866040015182815181106107ae576107ae613bb3565b6020026020010151600001519050836001600160a01b0316816001600160a01b0316146107fd576107fd8184896080015185815181106107f0576107f0613bb3565b6020026020010151611560565b508061080881613c30565b915050610789565b5061081f84866000015161156b565b61083185600001518660600151611585565b6108438560000151866040015161179f565b610855856000015186602001516119fc565b5050505050565b610867335b82611a7e565b6108835760405162461bcd60e51b815260040161055690613bc9565b61068b838383611a8a565b60008281526101c76020526040812054819081036108b1575060009050806109c4565b60008481526101c76020908152604080832080548251818502810185019093528083529192909190849084015b8282101561092d57600084815260209081902060408051808201909152908401546001600160a01b0381168252600160a01b90046001600160601b0316818301528252600190920191016108de565b5050505090508060008151811061094657610946613bb3565b60209081029190910101515192506000805b82518110156109a75782818151811061097357610973613bb3565b6020026020010151602001516001600160601b0316826109939190613c49565b91508061099f81613c30565b915050610958565b506127106109b58683613c61565b6109bf9190613c96565b925050505b9250929050565b6001600160a01b03821660009081526097602052604081206109ed9083611bf9565b9392505050565b600054610100900460ff1615808015610a145750600054600160ff909116105b80610a2e5750303b158015610a2e575060005460ff166001145b610a4a5760405162461bcd60e51b815260040161055690613caa565b6000805460ff191660011790558015610a6d576000805461ff0019166101001790555b610a7b878787878787611c05565b7ff05e55f0a9d205977ca8cc02236338b6a361376f404cf0b3019b2111964a01fd338888604051610aae93929190613cf8565b60405180910390a18015610aea576000805461ff0019169055604051600181526000805160206140d58339815191529060200160405180910390a15b50505050505050565b61068b83838360405180602001604052806000815250610ee6565b610b1781611290565b610ba857606081901c338114610b855760405162461bcd60e51b815260206004820152602d60248201527f4552433732314275726e61626c653a2063616c6c6572206973206e6f74206f7760448201526c3732b916103737ba10313ab93760991b6064820152608401610556565b610ba482600090815260a160205260409020805460ff19166001179055565b5050565b610bb133610861565b610c165760405162461bcd60e51b815260206004820152603060248201527f4552433732314275726e61626c653a2063616c6c6572206973206e6f74206f7760448201526f1b995c881b9bdc88185c1c1c9bdd995960821b6064820152608401610556565b610c1f81611c77565b50565b600080610c30609884611d3e565b509392505050565b610c40611d5a565b610c4981611db4565b7f87cdeaffd8e70903d6ce7cc983fac3b09ca79e83818124c98e47a1d70f8027d681604051610c789190613459565b60405180910390a150565b6000610456826040518060600160405280602981526020016140ac6029913960989190611dc0565b606060a0805461046b90613b79565b60006001600160a01b038216610d255760405162461bcd60e51b815260206004820152602a60248201527f4552433732313a2062616c616e636520717565727920666f7220746865207a65604482015269726f206164647265737360b01b6064820152608401610556565b6001600160a01b038216600090815260976020526040902061045690611dcd565b610d4e611d5a565b610d586000611dd7565b565b8251610d6590611290565b15610d795761068b82828560000151610af3565b61068b83826106a1565b60606101c86000838152602001908152602001600020805480602002602001604051908101604052809291908181526020016000905b82821015610e0857600084815260209081902060408051808201909152908401546001600160a01b0381168252600160a01b90046001600160601b031681830152825260019092019101610db9565b505050509050919050565b6060609e805461046b90613b79565b336001600160a01b03831603610e7a5760405162461bcd60e51b815260206004820152601960248201527f4552433732313a20617070726f766520746f2063616c6c6572000000000000006044820152606401610556565b336000818152609c602090815260408083206001600160a01b03871680855290835292819020805460ff191686151590811790915590519081529192917f17307eab39ab6107e8899845ad3d59bd9653f200f220920489ca2b5937696c31910160405180910390a35050565b610ef03383611a7e565b610f0c5760405162461bcd60e51b815260040161055690613bc9565b610f1884848484611e29565b50505050565b6060610f2982611290565b610f8d5760405162461bcd60e51b815260206004820152602f60248201527f4552433732314d657461646174613a2055524920717565727920666f72206e6f60448201526e3732bc34b9ba32b73a103a37b5b2b760891b6064820152608401610556565b6000828152609f602052604081208054610fa690613b79565b80601f0160208091040260200160405190810160405280929190818152602001828054610fd290613b79565b801561101f5780601f10610ff45761010080835404028352916020019161101f565b820191906000526020600020905b81548152906001019060200180831161100257829003601f168201915b505050505090506000611030610cab565b90508051600003611042575092915050565b81511561105b576110538183611e5c565b949350505050565b8061106585611f39565b604051602001611076929190613d2e565b60405160208183030381529060405292505050919050565b60008181526101c760209081526040808320805482518185028101850190935280835260609492939192909184018215610e0857600084815260209081902060408051808201909152908401546001600160a01b0381168252600160a01b90046001600160601b031681830152825260019092019101610db9565b336001600160a01b0383161461114f5760405162461bcd60e51b815260206004820152600b60248201526a1b9bdd08185b1b1bddd95960aa1b6044820152606401610556565b61068b838383612039565b6101fb805461116890613b79565b80601f016020809104026020016040519081016040528092919081815260200182805461119490613b79565b80156111e15780601f106111b6576101008083540402835291602001916111e1565b820191906000526020600020905b8154815290600101906020018083116111c457829003601f168201915b505050505081565b60006109ed83836120fa565b6111fd611d5a565b6001600160a01b0381166112625760405162461bcd60e51b815260206004820152602660248201527f4f776e61626c653a206e6577206f776e657220697320746865207a65726f206160448201526564647265737360d01b6064820152608401610556565b610c1f81611dd7565b60006001600160e01b0319821663e8a3d48560e01b1480610456575061045682612126565b60006104566098836121e3565b6001600160a01b039182166000908152609c6020908152604080832093909416825291909152205460ff1690565b6000818152609b6020526040902080546001600160a01b0319166001600160a01b038416908117909155819061130082610c83565b6001600160a01b03167f8c5be1e5ebec7d5bd14f71427d1e84f3dd0314c0f7b2291e5b200ac8c7c3b92560405160405180910390a45050565b6000610456826121ef565b6000808260600151516001600160401b03811115611364576113646134d6565b60405190808252806020026020018201604052801561138d578160200160208202803683370190505b50905060005b8360600151518110156113f5576113c6846060015182815181106113b9576113b9613bb3565b60200260200101516121fa565b8282815181106113d8576113d8613bb3565b6020908102919091010152806113ed81613c30565b915050611393565b5060008360400151516001600160401b03811115611415576114156134d6565b60405190808252806020026020018201604052801561143e578160200160208202803683370190505b50905060005b8460400151518110156114995761146a856040015182815181106113b9576113b9613bb3565b82828151811061147c5761147c613bb3565b60209081029190910101528061149181613c30565b915050611444565b507ff64326045af5fd7e15297ba939f85b550474d3899daa47d2bc1ffbdb9ced344e8460000151856020015180519060200120836040516020016114dd9190613d5d565b60405160208183030381529060405280519060200120856040516020016115049190613d5d565b60408051601f198184030181528282528051602091820120908301969096528101939093526060830191909152608082015260a081019190915260c0016040516020818303038152906040528051906020012092505050919050565b61068b838383612276565b610ba48282604051806020016040528060008152506123e5565b6000805b82518110156117355760006001600160a01b03168382815181106115af576115af613bb3565b6020026020010151600001516001600160a01b0316036116115760405162461bcd60e51b815260206004820152601b60248201527f526563697069656e742073686f756c642062652070726573656e7400000000006044820152606401610556565b82818151811061162357611623613bb3565b6020026020010151602001516001600160601b03166000036116875760405162461bcd60e51b815260206004820181905260248201527f526f79616c74792076616c75652073686f756c6420626520706f7369746976656044820152606401610556565b82818151811061169957611699613bb3565b6020026020010151602001516001600160601b0316826116b99190613c49565b91506101c760008581526020019081526020016000208382815181106116e1576116e1613bb3565b6020908102919091018101518254600181018455600093845292829020815191909201516001600160601b0316600160a01b026001600160a01b03909116179101558061172d81613c30565b915050611589565b5061271081106117955760405162461bcd60e51b815260206004820152602560248201527f526f79616c747920746f74616c2076616c75652073686f756c64206265203c20604482015264031303030360dc1b6064820152608401610556565b61068b8383612418565b60008281526101c86020526040812090805b83518110156119545760006001600160a01b03168482815181106117d7576117d7613bb3565b6020026020010151600001516001600160a01b0316036118395760405162461bcd60e51b815260206004820152601960248201527f4163636f756e742073686f756c642062652070726573656e74000000000000006044820152606401610556565b83818151811061184b5761184b613bb3565b6020026020010151602001516001600160601b03166000036118af5760405162461bcd60e51b815260206004820181905260248201527f43726561746f722073686172652073686f756c6420626520706f7369746976656044820152606401610556565b828482815181106118c2576118c2613bb3565b6020908102919091018101518254600181018455600093845292829020815191909201516001600160601b0316600160a01b026001600160a01b039091161791015583516119409085908390811061191c5761191c613bb3565b6020026020010151602001516001600160601b03168361245590919063ffffffff16565b91508061194c81613c30565b9150506117b1565b5080612710146119bd5760405162461bcd60e51b815260206004820152602e60248201527f746f74616c20616d6f756e74206f662063726561746f7273207368617265207360448201526d0686f756c642062652031303030360941b6064820152608401610556565b7f841ffb90d4cabdd1f16034f3fa831d79060febbb8167bdd54a49269365bdf78f84846040516119ee929190613d93565b60405180910390a150505050565b611a0582611290565b611a665760405162461bcd60e51b815260206004820152602c60248201527f4552433732314d657461646174613a2055524920736574206f66206e6f6e657860448201526b34b9ba32b73a103a37b5b2b760a11b6064820152608401610556565b6000828152609f6020526040902061068b8282613df2565b60006109ed8383612461565b826001600160a01b0316611a9d82610c83565b6001600160a01b031614611b055760405162461bcd60e51b815260206004820152602960248201527f4552433732313a207472616e73666572206f6620746f6b656e2074686174206960448201526839903737ba1037bbb760b91b6064820152608401610556565b6001600160a01b038216611b675760405162461bcd60e51b8152602060048201526024808201527f4552433732313a207472616e7366657220746f20746865207a65726f206164646044820152637265737360e01b6064820152608401610556565b611b726000826112cb565b6001600160a01b0383166000908152609760205260409020611b94908261248d565b506001600160a01b0382166000908152609760205260409020611bb79082612499565b50611bc4609882846124a5565b5080826001600160a01b0316846001600160a01b03166000805160206140f583398151915260405160405180910390a4505050565b60006109ed83836124bb565b611c0e84611db4565b611c166124e5565b611c1e6124e5565b611c2661258e565b611c2e61258e565b611c366125b5565b611c3e6124e5565b611c466125e5565b611c4f836126a0565b611c598686612757565b611c64826001612822565b611c6f816001612822565b505050505050565b6000611c8282610c83565b9050611c8f6000836112cb565b6000828152609f602052604090208054611ca890613b79565b159050611cc6576000828152609f60205260408120611cc691613380565b6001600160a01b0381166000908152609760205260409020611ce8908361248d565b50611cf4609883612881565b50611d1482600090815260a160205260409020805460ff19166001179055565b60405182906000906001600160a01b038416906000805160206140f5833981519152908390a45050565b6000808080611d4d868661288d565b9097909650945050505050565b6033546001600160a01b03163314610d585760405162461bcd60e51b815260206004820181905260248201527f4f776e61626c653a2063616c6c6572206973206e6f7420746865206f776e65726044820152606401610556565b60a0610ba48282613df2565b60006110538484846128b8565b6000610456825490565b603380546001600160a01b038381166001600160a01b0319831681179093556040519116919082907f8be0079c531659141344cd1fd0a4f28419497f9722a3daafe3b4186f6b6457e090600090a35050565b611e34848484611a8a565b611e4084848484612904565b610f185760405162461bcd60e51b815260040161055690613eb1565b80518251606091849184911015611e98578484604051602001611e80929190613d2e565b60405160208183030381529060405292505050610456565b60005b8251811015611f2f57828181518110611eb657611eb6613bb3565b602001015160f81c60f81b6001600160f81b031916828281518110611edd57611edd613bb3565b01602001516001600160f81b03191614611f1d578585604051602001611f04929190613d2e565b6040516020818303038152906040529350505050610456565b80611f2781613c30565b915050611e9b565b5092949350505050565b606081600003611f605750506040805180820190915260018152600360fc1b602082015290565b8160005b8115611f8a5780611f7481613c30565b9150611f839050600a83613c96565b9150611f64565b6000816001600160401b03811115611fa457611fa46134d6565b6040519080825280601f01601f191660200182016040528015611fce576020820181803683370190505b5090505b841561105357611fe3600183613f03565b9150611ff0600a86613f1a565b611ffb906030613c49565b60f81b81838151811061201057612010613bb3565b60200101906001600160f81b031916908160001a905350612032600a86613c96565b9450611fd2565b60008381526101c76020526040812054905b818110156108555760008581526101c76020526040902080546001600160a01b03861691908390811061208057612080613bb3565b6000918252602090912001546001600160a01b0316036120e85760008581526101c7602052604090208054849190839081106120be576120be613bb3565b600091825260209091200180546001600160a01b0319166001600160a01b03929092169190911790555b806120f281613c30565b91505061204b565b6001600160a01b038116600090815260ca602052604081205460ff16806109ed57506109ed838361129d565b60006001600160e01b03198216638486f69f60e01b148061215757506001600160e01b0319821663656cb66560e11b145b8061217257506001600160e01b0319821663152a902d60e11b145b8061218d57506001600160e01b031982166301ffc9a760e01b145b806121a857506001600160e01b031982166380ac58cd60e01b145b806121c357506001600160e01b03198216635b5e139f60e01b145b8061045657506001600160e01b0319821663780e9d6360e01b1492915050565b60006109ed83836129d5565b600061045682611dcd565b8051602080830151604051600093612259937f397e04204c1e1a60ee8724b71f8244e10ab5f2e9009854d80f602bda21b59ebb939192019283526001600160a01b039190911660208301526001600160601b0316604082015260600190565b604051602081830303815290604052805190602001209050919050565b6000612281836129e1565b90506000825160410361229b576122988284612a2f565b90505b846001600160a01b0316816001600160a01b031614610855576001600160a01b0385163b1561239a57604051630b135d3f60e11b808252906001600160a01b03871690631626ba7e906122f49086908890600401613f2e565b602060405180830381865afa158015612311573d6000803e3d6000fd5b505050506040513d601f19601f820116820180604052508101906123359190613f47565b6001600160e01b031916146040518060400160405280601c81526020017f7369676e617475726520766572696669636174696f6e206572726f7200000000815250906123945760405162461bcd60e51b81526004016105569190613459565b50610855565b604080518082018252601c81527f7369676e617475726520766572696669636174696f6e206572726f72000000006020820152905162461bcd60e51b81526105569190600401613459565b6123ef8383612aaa565b6123fc6000848484612904565b61068b5760405162461bcd60e51b815260040161055690613eb1565b7f3fa96d7b6bcbfe71ef171666d84db3cf52fa2d1c8afdb1cc8e486177f208b7df8282604051612449929190613d93565b60405180910390a15050565b60006109ed8284613c49565b6001600160a01b038216600090815260ca602052604081205460ff16806109ed57506109ed8383612ab4565b60006109ed8383612b76565b60006109ed8383612c69565b600061105384846001600160a01b038516612cb8565b60008260000182815481106124d2576124d2613bb3565b9060005260206000200154905092915050565b600054610100900460ff16158080156125055750600054600160ff909116105b8061251f5750303b15801561251f575060005460ff166001145b61253b5760405162461bcd60e51b815260040161055690613caa565b6000805460ff19166001179055801561255e576000805461ff0019166101001790555b8015610c1f576000805461ff0019169055604051600181526000805160206140d583398151915290602001610c78565b600054610100900460ff16610d585760405162461bcd60e51b815260040161055690613f64565b600054610100900460ff166125dc5760405162461bcd60e51b815260040161055690613f64565b610d5833611dd7565b600054610100900460ff16158080156126055750600054600160ff909116105b8061261f5750303b15801561261f575060005460ff166001145b61263b5760405162461bcd60e51b815260040161055690613caa565b6000805460ff19166001179055801561265e576000805461ff0019166101001790555b61255e604051806040016040528060078152602001664d696e7437323160c81b815250604051806040016040528060018152602001603160f81b815250612cd5565b600054610100900460ff16158080156126c05750600054600160ff909116105b806126da5750303b1580156126da575060005460ff166001145b6126f65760405162461bcd60e51b815260040161055690613caa565b6000805460ff191660011790558015612719576000805461ff0019166101001790555b6101fb6127268382613df2565b508015610ba4576000805461ff0019169055604051600181526000805160206140d583398151915290602001612449565b600054610100900460ff16158080156127775750600054600160ff909116105b806127915750303b158015612791575060005460ff166001145b6127ad5760405162461bcd60e51b815260040161055690613caa565b6000805460ff1916600117905580156127d0576000805461ff0019166101001790555b609d6127dc8482613df2565b50609e6127e98382613df2565b50801561068b576000805461ff0019169055604051600181526000805160206140d58339815191529060200160405180910390a1505050565b6001600160a01b038216600081815260ca6020908152604091829020805460ff191685151590811790915591519182527f270dbb8ba4292910ae92862466486be25c355c837270a3d8824b36a8bc7c653b910160405180910390a25050565b60006109ed8383612d18565b6000808061289b8585611bf9565b600081815260029690960160205260409095205494959350505050565b6000828152600284016020526040812054801515806128dc57506128dc85856129d5565b83906128fb5760405162461bcd60e51b81526004016105569190613459565b50949350505050565b60006001600160a01b0384163b61291d57506001611053565b600061299e630a85bd0160e11b338887876040516024016129419493929190613faf565b604051602081830303815290604052906001600160e01b0319166020820180516001600160e01b03838183161783525050505060405180606001604052806032815260200161407a603291396001600160a01b0388169190612d35565b90506000818060200190518101906129b69190613f47565b6001600160e01b031916630a85bd0160e11b1492505050949350505050565b60006109ed8383612d44565b60006104566129ee612d5c565b8360405161190160f01b6020820152602281018390526042810182905260009060620160405160208183030381529060405280519060200120905092915050565b60008151604114612a825760405162461bcd60e51b815260206004820152601f60248201527f45434453413a20696e76616c6964207369676e6174757265206c656e677468006044820152606401610556565b60208201516040830151606084015160001a612aa086828585612dd9565b9695505050505050565b610ba4828261300f565b6000612abf82611290565b612b205760405162461bcd60e51b815260206004820152602c60248201527f4552433732313a206f70657261746f7220717565727920666f72206e6f6e657860448201526b34b9ba32b73a103a37b5b2b760a11b6064820152608401610556565b6000612b2b83610c83565b9050806001600160a01b0316846001600160a01b03161480612b665750836001600160a01b0316612b5b846104ee565b6001600160a01b0316145b806110535750611053818561129d565b60008181526001830160205260408120548015612c5f576000612b9a600183613f03565b8554909150600090612bae90600190613f03565b9050818114612c13576000866000018281548110612bce57612bce613bb3565b9060005260206000200154905080876000018481548110612bf157612bf1613bb3565b6000918252602080832090910192909255918252600188019052604090208390555b8554869080612c2457612c24613fe2565b600190038181906000526020600020016000905590558560010160008681526020019081526020016000206000905560019350505050610456565b6000915050610456565b6000818152600183016020526040812054612cb057508154600181810184556000848152602080822090930184905584548482528286019093526040902091909155610456565b506000610456565b600082815260028401602052604081208290556110538484612499565b600054610100900460ff16612cfc5760405162461bcd60e51b815260040161055690613f64565b81516020928301208151919092012061012f9190915561013055565b600081815260028301602052604081208190556109ed838361248d565b606061105384846000856131db565b600081815260018301602052604081205415156109ed565b600061069c7f8b73c3c69bb8fe3d512ecc4cf759cc79239f7b179b0ffacaa9a75d522b39400f612d8c61012f5490565b610130546040805160208101859052908101839052606081018290524660808201523060a082015260009060c0016040516020818303038152906040528051906020012090509392505050565b60007f7fffffffffffffffffffffffffffffff5d576e7357a4501ddfe92f46681b20a0821115612e565760405162461bcd60e51b815260206004820152602260248201527f45434453413a20696e76616c6964207369676e6174757265202773272076616c604482015261756560f01b6064820152608401610556565b6000601e8560ff161115612f1f57612e6f600486613ff8565b60ff16601b1480612e8d5750612e86600486613ff8565b60ff16601c145b612ea95760405162461bcd60e51b81526004016105569061401b565b6001612eb48761330c565b612ebf600488613ff8565b6040805160008152602081018083529390935260ff90911690820152606081018690526080810185905260a0016020604051602081039080840390855afa158015612f0e573d6000803e3d6000fd5b505050602060405103519050612fb0565b8460ff16601b1480612f3457508460ff16601c145b612f505760405162461bcd60e51b81526004016105569061401b565b60408051600081526020810180835288905260ff871691810191909152606081018590526080810184905260019060a0016020604051602081039080840390855afa158015612fa3573d6000803e3d6000fd5b5050506020604051035190505b6001600160a01b0381166130065760405162461bcd60e51b815260206004820152601860248201527f45434453413a20696e76616c6964207369676e617475726500000000000000006044820152606401610556565b95945050505050565b6001600160a01b0382166130655760405162461bcd60e51b815260206004820181905260248201527f4552433732313a206d696e7420746f20746865207a65726f20616464726573736044820152606401610556565b600081815260a1602052604090205460ff16156130bb5760405162461bcd60e51b81526020600482015260146024820152731d1bdad95b88185b1c9958591e48189d5c9b995960621b6044820152606401610556565b6130c481611290565b156131115760405162461bcd60e51b815260206004820152601c60248201527f4552433732313a20746f6b656e20616c7265616479206d696e746564000000006044820152606401610556565b6001600160a01b03821660009081526097602052604090206131339082612499565b50613140609882846124a5565b50606081901c6001600160a01b03831681146131b05760405182906001600160a01b038316906000906000805160206140f5833981519152908290a481836001600160a01b0316826001600160a01b03166000805160206140f583398151915260405160405180910390a4505050565b60405182906001600160a01b038516906000906000805160206140f5833981519152908290a4505050565b60608247101561323c5760405162461bcd60e51b815260206004820152602660248201527f416464726573733a20696e73756666696369656e742062616c616e636520666f6044820152651c8818d85b1b60d21b6064820152608401610556565b6001600160a01b0385163b6132935760405162461bcd60e51b815260206004820152601d60248201527f416464726573733a2063616c6c20746f206e6f6e2d636f6e74726163740000006044820152606401610556565b600080866001600160a01b031685876040516132af919061405d565b60006040518083038185875af1925050503d80600081146132ec576040519150601f19603f3d011682016040523d82523d6000602084013e6132f1565b606091505b5091509150613301828286613347565b979650505050505050565b6040517f19457468657265756d205369676e6564204d6573736167653a0a3332000000006020820152603c8101829052600090605c01612259565b606083156133565750816109ed565b8251156133665782518084602001fd5b8160405162461bcd60e51b81526004016105569190613459565b50805461338c90613b79565b6000825580601f1061339c575050565b601f016020900490600052602060002090810190610c1f91905b808211156133ca57600081556001016133b6565b5090565b6001600160e01b031981168114610c1f57600080fd5b6000602082840312156133f657600080fd5b81356109ed816133ce565b60005b8381101561341c578181015183820152602001613404565b83811115610f185750506000910152565b60008151808452613445816020860160208601613401565b601f01601f19169290920160200192915050565b6020815260006109ed602083018461342d565b60006020828403121561347e57600080fd5b5035919050565b6001600160a01b0381168114610c1f57600080fd5b80356134a581613485565b919050565b600080604083850312156134bd57600080fd5b82356134c881613485565b946020939093013593505050565b634e487b7160e01b600052604160045260246000fd5b604080519081016001600160401b038111828210171561350e5761350e6134d6565b60405290565b60405160a081016001600160401b038111828210171561350e5761350e6134d6565b604051601f8201601f191681016001600160401b038111828210171561355e5761355e6134d6565b604052919050565b600082601f83011261357757600080fd5b81356001600160401b03811115613590576135906134d6565b6135a3601f8201601f1916602001613536565b8181528460208386010111156135b857600080fd5b816020850160208301376000918101602001919091529392505050565b60006001600160401b038211156135ee576135ee6134d6565b5060051b60200190565b600082601f83011261360957600080fd5b8135602061361e613619836135d5565b613536565b82815260069290921b8401810191818101908684111561363d57600080fd5b8286015b8481101561369b576040818903121561365a5760008081fd5b6136626134ec565b813561366d81613485565b8152818501356001600160601b03811681146136895760008081fd5b81860152835291830191604001613641565b509695505050505050565b600082601f8301126136b757600080fd5b813560206136c7613619836135d5565b82815260059290921b840181019181810190868411156136e657600080fd5b8286015b8481101561369b5780356001600160401b038111156137095760008081fd5b6137178986838b0101613566565b8452509183019183016136ea565b600060a0828403121561373757600080fd5b61373f613514565b90508135815260208201356001600160401b038082111561375f57600080fd5b61376b85838601613566565b6020840152604084013591508082111561378457600080fd5b613790858386016135f8565b604084015260608401359150808211156137a957600080fd5b6137b5858386016135f8565b606084015260808401359150808211156137ce57600080fd5b506137db848285016136a6565b60808301525092915050565b600080604083850312156137fa57600080fd5b82356001600160401b0381111561381057600080fd5b61381c85828601613725565b925050602083013561382d81613485565b809150509250929050565b60008060006060848603121561384d57600080fd5b833561385881613485565b9250602084013561386881613485565b929592945050506040919091013590565b6000806040838503121561388c57600080fd5b50508035926020909101359150565b60008060008060008060c087890312156138b457600080fd5b86356001600160401b03808211156138cb57600080fd5b6138d78a838b01613566565b975060208901359150808211156138ed57600080fd5b6138f98a838b01613566565b9650604089013591508082111561390f57600080fd5b61391b8a838b01613566565b9550606089013591508082111561393157600080fd5b5061393e89828a01613566565b93505061394d6080880161349a565b915061395b60a0880161349a565b90509295509295509295565b60006020828403121561397957600080fd5b81356001600160401b0381111561398f57600080fd5b61105384828501613566565b6000602082840312156139ad57600080fd5b81356109ed81613485565b6000806000606084860312156139cd57600080fd5b83356001600160401b038111156139e357600080fd5b6139ef86828701613725565b9350506020840135613a0081613485565b91506040840135613a1081613485565b809150509250925092565b600081518084526020808501945080840160005b83811015613a6857815180516001600160a01b031688528301516001600160601b03168388015260409096019590820190600101613a2f565b509495945050505050565b6020815260006109ed6020830184613a1b565b60008060408385031215613a9957600080fd5b8235613aa481613485565b91506020830135801515811461382d57600080fd5b60008060008060808587031215613acf57600080fd5b8435613ada81613485565b93506020850135613aea81613485565b92506040850135915060608501356001600160401b03811115613b0c57600080fd5b613b1887828801613566565b91505092959194509250565b600080600060608486031215613b3957600080fd5b833592506020840135613a0081613485565b60008060408385031215613b5e57600080fd5b8235613b6981613485565b9150602083013561382d81613485565b600181811c90821680613b8d57607f821691505b602082108103613bad57634e487b7160e01b600052602260045260246000fd5b50919050565b634e487b7160e01b600052603260045260246000fd5b60208082526031908201527f4552433732313a207472616e736665722063616c6c6572206973206e6f74206f6040820152701ddb995c881b9bdc88185c1c1c9bdd9959607a1b606082015260800190565b634e487b7160e01b600052601160045260246000fd5b600060018201613c4257613c42613c1a565b5060010190565b60008219821115613c5c57613c5c613c1a565b500190565b6000816000190483118215151615613c7b57613c7b613c1a565b500290565b634e487b7160e01b600052601260045260246000fd5b600082613ca557613ca5613c80565b500490565b6020808252602e908201527f496e697469616c697a61626c653a20636f6e747261637420697320616c72656160408201526d191e481a5b9a5d1a585b1a5e995960921b606082015260800190565b6001600160a01b0384168152606060208201819052600090613d1c9083018561342d565b8281036040840152612aa0818561342d565b60008351613d40818460208801613401565b835190830190613d54818360208801613401565b01949350505050565b815160009082906020808601845b83811015613d8757815185529382019390820190600101613d6b565b50929695505050505050565b8281526040602082015260006110536040830184613a1b565b601f82111561068b57600081815260208120601f850160051c81016020861015613dd35750805b601f850160051c820191505b81811015611c6f57828155600101613ddf565b81516001600160401b03811115613e0b57613e0b6134d6565b613e1f81613e198454613b79565b84613dac565b602080601f831160018114613e545760008415613e3c5750858301515b600019600386901b1c1916600185901b178555611c6f565b600085815260208120601f198616915b82811015613e8357888601518255948401946001909101908401613e64565b5085821015613ea15787850151600019600388901b60f8161c191681555b5050505050600190811b01905550565b60208082526032908201527f4552433732313a207472616e7366657220746f206e6f6e20455243373231526560408201527131b2b4bb32b91034b6b83632b6b2b73a32b960711b606082015260800190565b600082821015613f1557613f15613c1a565b500390565b600082613f2957613f29613c80565b500690565b828152604060208201526000611053604083018461342d565b600060208284031215613f5957600080fd5b81516109ed816133ce565b6020808252602b908201527f496e697469616c697a61626c653a20636f6e7472616374206973206e6f74206960408201526a6e697469616c697a696e6760a81b606082015260800190565b6001600160a01b0385811682528416602082015260408101839052608060608201819052600090612aa09083018461342d565b634e487b7160e01b600052603160045260246000fd5b600060ff821660ff84168082101561401257614012613c1a565b90039392505050565b60208082526022908201527f45434453413a20696e76616c6964207369676e6174757265202776272076616c604082015261756560f01b606082015260800190565b6000825161406f818460208701613401565b919091019291505056fe4552433732313a207472616e7366657220746f206e6f6e20455243373231526563656976657220696d706c656d656e7465724552433732313a206f776e657220717565727920666f72206e6f6e6578697374656e7420746f6b656e7f26b83ff96e1f2b6a682f133852f6798a09c465da95921460cefb3847402498ddf252ad1be2c89b69c2b068fc378daa952ba7f163c4a11628f55a4df523b3efa2646970667358221220377e090afc879d92993403ff04a7637c8330a1a3346cfbb1a777293c73c95c5b64736f6c634300080f0033",
  "immutableReferences": {},
  "source": "// SPDX-License-Identifier: MIT\r\n\r\npragma solidity ^0.8.0;\r\npragma abicoder v2;\r\n\r\nimport \"./ERC721Base.sol\";\r\n\r\ncontract ERC721Rarible is ERC721Base {\r\n\r\n    event CreateERC721Rarible(address owner, string name, string symbol);\r\n\r\n    function __ERC721Rarible_init(string memory _name, string memory _symbol, string memory baseURI, string memory contractURI, address transferProxy, address lazyTransferProxy) external initializer {\r\n        __ERC721Rarible_init_unchained(_name, _symbol, baseURI, contractURI, transferProxy, lazyTransferProxy);\r\n        emit CreateERC721Rarible(_msgSender(), _name, _symbol);\r\n    }\r\n\r\n    function __ERC721Rarible_init_unchained(string memory _name, string memory _symbol, string memory baseURI, string memory contractURI, address transferProxy, address lazyTransferProxy) internal {\r\n        _setBaseURI(baseURI);\r\n        __ERC721Lazy_init_unchained();\r\n        __RoyaltiesV2Upgradeable_init_unchained();\r\n        __Context_init_unchained();\r\n        __ERC165_init_unchained();\r\n        __Ownable_init_unchained();\r\n        __ERC721Burnable_init_unchained();\r\n        __Mint721Validator_init_unchained();\r\n        __HasContractURI_init_unchained(contractURI);\r\n        __ERC721_init_unchained(_name, _symbol);\r\n\r\n        //setting default approver for transferProxies\r\n        _setDefaultApproval(transferProxy, true);\r\n        _setDefaultApproval(lazyTransferProxy, true);\r\n    }\r\n\r\n    uint256[50] private __gap;\r\n}\r\n",
  "sourcePath": "D:\\work\\vizualize\\code\\rarible\\protocol-contracts\\tokens\\contracts\\erc-721\\ERC721Rarible.sol",
  "compiler": {
    "name": "solc",
    "version": "0.8.15+commit.e14f2714.Emscripten.clang"
  },
  "schemaVersion": "3.4.8",
  "updatedAt": "2022-07-18T14:43:50.537Z",
  "devdoc": {
    "kind": "dev",
    "methods": {
      "approve(address,uint256)": {
        "details": "See {IERC721-approve}."
      },
      "balanceOf(address)": {
        "details": "See {IERC721-balanceOf}."
      },
      "baseURI()": {
        "details": "Returns the base URI set via {_setBaseURI}. This will be automatically added as a prefix in {tokenURI} to each token's URI, or to the token ID if no specific URI is set for that token ID."
      },
      "burn(uint256)": {
        "details": "Burns `tokenId`. See {ERC721-_burn}. Requirements: - The caller must own `tokenId` or be an approved operator."
      },
      "getApproved(uint256)": {
        "details": "See {IERC721-getApproved}."
      },
      "name()": {
        "details": "See {IERC721Metadata-name}."
      },
      "owner()": {
        "details": "Returns the address of the current owner."
      },
      "ownerOf(uint256)": {
        "details": "See {IERC721-ownerOf}."
      },
      "renounceOwnership()": {
        "details": "Leaves the contract without owner. It will not be possible to call `onlyOwner` functions anymore. Can only be called by the current owner. NOTE: Renouncing ownership will leave the contract without an owner, thereby removing any functionality that is only available to the owner."
      },
      "safeTransferFrom(address,address,uint256)": {
        "details": "See {IERC721-safeTransferFrom}."
      },
      "safeTransferFrom(address,address,uint256,bytes)": {
        "details": "See {IERC721-safeTransferFrom}."
      },
      "setApprovalForAll(address,bool)": {
        "details": "See {IERC721-setApprovalForAll}."
      },
      "symbol()": {
        "details": "See {IERC721Metadata-symbol}."
      },
      "tokenByIndex(uint256)": {
        "details": "See {IERC721Enumerable-tokenByIndex}."
      },
      "tokenOfOwnerByIndex(address,uint256)": {
        "details": "See {IERC721Enumerable-tokenOfOwnerByIndex}."
      },
      "tokenURI(uint256)": {
        "details": "See {IERC721Metadata-tokenURI}."
      },
      "totalSupply()": {
        "details": "See {IERC721Enumerable-totalSupply}."
      },
      "transferFrom(address,address,uint256)": {
        "details": "See {IERC721-transferFrom}."
      },
      "transferOwnership(address)": {
        "details": "Transfers ownership of the contract to a new account (`newOwner`). Can only be called by the current owner."
      }
    },
    "version": 1
  },
  "userdoc": {
    "kind": "user",
    "methods": {},
    "version": 1
  }
}