{
  "contractName": "ERC721Rarible",
  "abi": [
    {
      "anonymous": false,
      "inputs": [
        {
          "indexed": true,
          "internalType": "address",
          "name": "owner",
          "type": "address"
        },
        {
          "indexed": true,
          "internalType": "address",
          "name": "approved",
          "type": "address"
        },
        {
          "indexed": true,
          "internalType": "uint256",
          "name": "tokenId",
          "type": "uint256"
        }
      ],
      "name": "Approval",
      "type": "event"
    },
    {
      "anonymous": false,
      "inputs": [
        {
          "indexed": true,
          "internalType": "address",
          "name": "owner",
          "type": "address"
        },
        {
          "indexed": true,
          "internalType": "address",
          "name": "operator",
          "type": "address"
        },
        {
          "indexed": false,
          "internalType": "bool",
          "name": "approved",
          "type": "bool"
        }
      ],
      "name": "ApprovalForAll",
      "type": "event"
    },
    {
      "anonymous": false,
      "inputs": [
        {
          "indexed": false,
          "internalType": "address",
          "name": "owner",
          "type": "address"
        },
        {
          "indexed": false,
          "internalType": "string",
          "name": "name",
          "type": "string"
        },
        {
          "indexed": false,
          "internalType": "string",
          "name": "symbol",
          "type": "string"
        }
      ],
      "name": "CreateERC721Rarible",
      "type": "event"
    },
    {
      "anonymous": false,
      "inputs": [
        {
          "indexed": true,
          "internalType": "uint256",
          "name": "tokenId",
          "type": "uint256"
        },
        {
          "components": [
            {
              "internalType": "address payable",
              "name": "account",
              "type": "address"
            },
            {
              "internalType": "uint96",
              "name": "value",
              "type": "uint96"
            }
          ],
          "indexed": false,
          "internalType": "struct LibPart.Part[]",
          "name": "creators",
          "type": "tuple[]"
        }
      ],
      "name": "Creators",
      "type": "event"
    },
    {
      "anonymous": false,
      "inputs": [
        {
          "indexed": true,
          "internalType": "address",
          "name": "operator",
          "type": "address"
        },
        {
          "indexed": false,
          "internalType": "bool",
          "name": "hasApproval",
          "type": "bool"
        }
      ],
      "name": "DefaultApproval",
      "type": "event"
    },
    {
      "anonymous": false,
      "inputs": [
        {
          "indexed": true,
          "internalType": "address",
          "name": "previousOwner",
          "type": "address"
        },
        {
          "indexed": true,
          "internalType": "address",
          "name": "newOwner",
          "type": "address"
        }
      ],
      "name": "OwnershipTransferred",
      "type": "event"
    },
    {
      "anonymous": false,
      "inputs": [
        {
          "indexed": false,
          "internalType": "uint256",
          "name": "tokenId",
          "type": "uint256"
        },
        {
          "components": [
            {
              "internalType": "address payable",
              "name": "account",
              "type": "address"
            },
            {
              "internalType": "uint96",
              "name": "value",
              "type": "uint96"
            }
          ],
          "indexed": false,
          "internalType": "struct LibPart.Part[]",
          "name": "royalties",
          "type": "tuple[]"
        }
      ],
      "name": "RoyaltiesSet",
      "type": "event"
    },
    {
      "anonymous": false,
      "inputs": [
        {
          "indexed": true,
          "internalType": "address",
          "name": "from",
          "type": "address"
        },
        {
          "indexed": true,
          "internalType": "address",
          "name": "to",
          "type": "address"
        },
        {
          "indexed": true,
          "internalType": "uint256",
          "name": "tokenId",
          "type": "uint256"
        }
      ],
      "name": "Transfer",
      "type": "event"
    },
    {
      "inputs": [
        {
          "internalType": "address",
          "name": "to",
          "type": "address"
        },
        {
          "internalType": "uint256",
          "name": "tokenId",
          "type": "uint256"
        }
      ],
      "name": "approve",
      "outputs": [],
      "stateMutability": "nonpayable",
      "type": "function"
    },
    {
      "inputs": [
        {
          "internalType": "address",
          "name": "owner",
          "type": "address"
        }
      ],
      "name": "balanceOf",
      "outputs": [
        {
          "internalType": "uint256",
          "name": "",
          "type": "uint256"
        }
      ],
      "stateMutability": "view",
      "type": "function"
    },
    {
      "inputs": [],
      "name": "baseURI",
      "outputs": [
        {
          "internalType": "string",
          "name": "",
          "type": "string"
        }
      ],
      "stateMutability": "view",
      "type": "function"
    },
    {
      "inputs": [
        {
          "internalType": "uint256",
          "name": "tokenId",
          "type": "uint256"
        }
      ],
      "name": "burn",
      "outputs": [],
      "stateMutability": "nonpayable",
      "type": "function"
    },
    {
      "inputs": [],
      "name": "contractURI",
      "outputs": [
        {
          "internalType": "string",
          "name": "",
          "type": "string"
        }
      ],
      "stateMutability": "view",
      "type": "function"
    },
    {
      "inputs": [
        {
          "internalType": "uint256",
          "name": "tokenId",
          "type": "uint256"
        }
      ],
      "name": "getApproved",
      "outputs": [
        {
          "internalType": "address",
          "name": "",
          "type": "address"
        }
      ],
      "stateMutability": "view",
      "type": "function"
    },
    {
      "inputs": [
        {
          "internalType": "uint256",
          "name": "_id",
          "type": "uint256"
        }
      ],
      "name": "getCreators",
      "outputs": [
        {
          "components": [
            {
              "internalType": "address payable",
              "name": "account",
              "type": "address"
            },
            {
              "internalType": "uint96",
              "name": "value",
              "type": "uint96"
            }
          ],
          "internalType": "struct LibPart.Part[]",
          "name": "",
          "type": "tuple[]"
        }
      ],
      "stateMutability": "view",
      "type": "function"
    },
    {
      "inputs": [
        {
          "internalType": "uint256",
          "name": "id",
          "type": "uint256"
        }
      ],
      "name": "getRaribleV2Royalties",
      "outputs": [
        {
          "components": [
            {
              "internalType": "address payable",
              "name": "account",
              "type": "address"
            },
            {
              "internalType": "uint96",
              "name": "value",
              "type": "uint96"
            }
          ],
          "internalType": "struct LibPart.Part[]",
          "name": "",
          "type": "tuple[]"
        }
      ],
      "stateMutability": "view",
      "type": "function"
    },
    {
      "inputs": [
        {
          "internalType": "address",
          "name": "owner",
          "type": "address"
        },
        {
          "internalType": "address",
          "name": "operator",
          "type": "address"
        }
      ],
      "name": "isApprovedForAll",
      "outputs": [
        {
          "internalType": "bool",
          "name": "",
          "type": "bool"
        }
      ],
      "stateMutability": "view",
      "type": "function"
    },
    {
      "inputs": [
        {
          "components": [
            {
              "internalType": "uint256",
              "name": "tokenId",
              "type": "uint256"
            },
            {
              "internalType": "string",
              "name": "tokenURI",
              "type": "string"
            },
            {
              "components": [
                {
                  "internalType": "address payable",
                  "name": "account",
                  "type": "address"
                },
                {
                  "internalType": "uint96",
                  "name": "value",
                  "type": "uint96"
                }
              ],
              "internalType": "struct LibPart.Part[]",
              "name": "creators",
              "type": "tuple[]"
            },
            {
              "components": [
                {
                  "internalType": "address payable",
                  "name": "account",
                  "type": "address"
                },
                {
                  "internalType": "uint96",
                  "name": "value",
                  "type": "uint96"
                }
              ],
              "internalType": "struct LibPart.Part[]",
              "name": "royalties",
              "type": "tuple[]"
            },
            {
              "internalType": "bytes[]",
              "name": "signatures",
              "type": "bytes[]"
            }
          ],
          "internalType": "struct LibERC721LazyMint.Mint721Data",
          "name": "data",
          "type": "tuple"
        },
        {
          "internalType": "address",
          "name": "to",
          "type": "address"
        }
      ],
      "name": "mintAndTransfer",
      "outputs": [],
      "stateMutability": "nonpayable",
      "type": "function"
    },
    {
      "inputs": [],
      "name": "name",
      "outputs": [
        {
          "internalType": "string",
          "name": "",
          "type": "string"
        }
      ],
      "stateMutability": "view",
      "type": "function"
    },
    {
      "inputs": [],
      "name": "owner",
      "outputs": [
        {
          "internalType": "address",
          "name": "",
          "type": "address"
        }
      ],
      "stateMutability": "view",
      "type": "function"
    },
    {
      "inputs": [
        {
          "internalType": "uint256",
          "name": "tokenId",
          "type": "uint256"
        }
      ],
      "name": "ownerOf",
      "outputs": [
        {
          "internalType": "address",
          "name": "",
          "type": "address"
        }
      ],
      "stateMutability": "view",
      "type": "function"
    },
    {
      "inputs": [],
      "name": "renounceOwnership",
      "outputs": [],
      "stateMutability": "nonpayable",
      "type": "function"
    },
    {
      "inputs": [
        {
          "internalType": "address",
          "name": "from",
          "type": "address"
        },
        {
          "internalType": "address",
          "name": "to",
          "type": "address"
        },
        {
          "internalType": "uint256",
          "name": "tokenId",
          "type": "uint256"
        }
      ],
      "name": "safeTransferFrom",
      "outputs": [],
      "stateMutability": "nonpayable",
      "type": "function"
    },
    {
      "inputs": [
        {
          "internalType": "address",
          "name": "from",
          "type": "address"
        },
        {
          "internalType": "address",
          "name": "to",
          "type": "address"
        },
        {
          "internalType": "uint256",
          "name": "tokenId",
          "type": "uint256"
        },
        {
          "internalType": "bytes",
          "name": "_data",
          "type": "bytes"
        }
      ],
      "name": "safeTransferFrom",
      "outputs": [],
      "stateMutability": "nonpayable",
      "type": "function"
    },
    {
      "inputs": [
        {
          "internalType": "address",
          "name": "operator",
          "type": "address"
        },
        {
          "internalType": "bool",
          "name": "approved",
          "type": "bool"
        }
      ],
      "name": "setApprovalForAll",
      "outputs": [],
      "stateMutability": "nonpayable",
      "type": "function"
    },
    {
      "inputs": [
        {
          "internalType": "address",
          "name": "operator",
          "type": "address"
        },
        {
          "internalType": "bool",
          "name": "hasApproval",
          "type": "bool"
        }
      ],
      "name": "setDefaultApproval",
      "outputs": [],
      "stateMutability": "nonpayable",
      "type": "function"
    },
    {
      "inputs": [
        {
          "internalType": "bytes4",
          "name": "interfaceId",
          "type": "bytes4"
        }
      ],
      "name": "supportsInterface",
      "outputs": [
        {
          "internalType": "bool",
          "name": "",
          "type": "bool"
        }
      ],
      "stateMutability": "view",
      "type": "function"
    },
    {
      "inputs": [],
      "name": "symbol",
      "outputs": [
        {
          "internalType": "string",
          "name": "",
          "type": "string"
        }
      ],
      "stateMutability": "view",
      "type": "function"
    },
    {
      "inputs": [
        {
          "internalType": "uint256",
          "name": "index",
          "type": "uint256"
        }
      ],
      "name": "tokenByIndex",
      "outputs": [
        {
          "internalType": "uint256",
          "name": "",
          "type": "uint256"
        }
      ],
      "stateMutability": "view",
      "type": "function"
    },
    {
      "inputs": [
        {
          "internalType": "address",
          "name": "owner",
          "type": "address"
        },
        {
          "internalType": "uint256",
          "name": "index",
          "type": "uint256"
        }
      ],
      "name": "tokenOfOwnerByIndex",
      "outputs": [
        {
          "internalType": "uint256",
          "name": "",
          "type": "uint256"
        }
      ],
      "stateMutability": "view",
      "type": "function"
    },
    {
      "inputs": [
        {
          "internalType": "uint256",
          "name": "tokenId",
          "type": "uint256"
        }
      ],
      "name": "tokenURI",
      "outputs": [
        {
          "internalType": "string",
          "name": "",
          "type": "string"
        }
      ],
      "stateMutability": "view",
      "type": "function"
    },
    {
      "inputs": [],
      "name": "totalSupply",
      "outputs": [
        {
          "internalType": "uint256",
          "name": "",
          "type": "uint256"
        }
      ],
      "stateMutability": "view",
      "type": "function"
    },
    {
      "inputs": [
        {
          "internalType": "address",
          "name": "from",
          "type": "address"
        },
        {
          "internalType": "address",
          "name": "to",
          "type": "address"
        },
        {
          "internalType": "uint256",
          "name": "tokenId",
          "type": "uint256"
        }
      ],
      "name": "transferFrom",
      "outputs": [],
      "stateMutability": "nonpayable",
      "type": "function"
    },
    {
      "inputs": [
        {
          "components": [
            {
              "internalType": "uint256",
              "name": "tokenId",
              "type": "uint256"
            },
            {
              "internalType": "string",
              "name": "tokenURI",
              "type": "string"
            },
            {
              "components": [
                {
                  "internalType": "address payable",
                  "name": "account",
                  "type": "address"
                },
                {
                  "internalType": "uint96",
                  "name": "value",
                  "type": "uint96"
                }
              ],
              "internalType": "struct LibPart.Part[]",
              "name": "creators",
              "type": "tuple[]"
            },
            {
              "components": [
                {
                  "internalType": "address payable",
                  "name": "account",
                  "type": "address"
                },
                {
                  "internalType": "uint96",
                  "name": "value",
                  "type": "uint96"
                }
              ],
              "internalType": "struct LibPart.Part[]",
              "name": "royalties",
              "type": "tuple[]"
            },
            {
              "internalType": "bytes[]",
              "name": "signatures",
              "type": "bytes[]"
            }
          ],
          "internalType": "struct LibERC721LazyMint.Mint721Data",
          "name": "data",
          "type": "tuple"
        },
        {
          "internalType": "address",
          "name": "from",
          "type": "address"
        },
        {
          "internalType": "address",
          "name": "to",
          "type": "address"
        }
      ],
      "name": "transferFromOrMint",
      "outputs": [],
      "stateMutability": "nonpayable",
      "type": "function"
    },
    {
      "inputs": [
        {
          "internalType": "address",
          "name": "newOwner",
          "type": "address"
        }
      ],
      "name": "transferOwnership",
      "outputs": [],
      "stateMutability": "nonpayable",
      "type": "function"
    },
    {
      "inputs": [
        {
          "internalType": "uint256",
          "name": "_id",
          "type": "uint256"
        },
        {
          "internalType": "address",
          "name": "_from",
          "type": "address"
        },
        {
          "internalType": "address",
          "name": "_to",
          "type": "address"
        }
      ],
      "name": "updateAccount",
      "outputs": [],
      "stateMutability": "nonpayable",
      "type": "function"
    },
    {
      "inputs": [
        {
          "internalType": "string",
          "name": "_name",
          "type": "string"
        },
        {
          "internalType": "string",
          "name": "_symbol",
          "type": "string"
        },
        {
          "internalType": "string",
          "name": "baseURI",
          "type": "string"
        },
        {
          "internalType": "string",
          "name": "contractURI",
          "type": "string"
        }
      ],
      "name": "__ERC721Rarible_init",
      "outputs": [],
      "stateMutability": "nonpayable",
      "type": "function"
    }
  ],
  "bytecode": "0x608060405234801561001057600080fd5b506143ea806100206000396000f3fe608060405234801561001057600080fd5b50600436106101cf5760003560e01c80636c0360eb11610104578063a22cb465116100a2578063e07f231911610071578063e07f2319146103b9578063e8a3d485146103cc578063e985e9c5146103d4578063f2fde38b146103e7576101cf565b8063a22cb4651461036d578063b88d4fde14610380578063c87b56dd14610393578063cad96cca146103a6576101cf565b8063832fbb29116100de578063832fbb291461032a578063891be9741461033d5780638da5cb5b1461035d57806395d89b4114610365576101cf565b80636c0360eb1461030757806370a082311461030f578063715018a614610322576101cf565b806323b872dd1161017157806342842e0e1161014b57806342842e0e146102bb57806342966c68146102ce5780634f6ccce7146102e15780636352211e146102f4576101cf565b806323b872dd146102825780632a839963146102955780632f745c59146102a8576101cf565b8063095ea7b3116101ad578063095ea7b31461023257806318054c371461024757806318160ddd1461025a57806322a775b61461026f576101cf565b806301ffc9a7146101d457806306fdde03146101fd578063081812fc14610212575b600080fd5b6101e76101e2366004613bb4565b6103fa565b6040516101f49190613e5c565b60405180910390f35b61020561041d565b6040516101f49190613e67565b610225610220366004613d1f565b6104b3565b6040516101f49190613dff565b610245610240366004613b89565b610515565b005b610245610255366004613b58565b6105f0565b610262610672565b6040516101f49190613fd5565b61024561027d366004613c78565b610683565b610245610290366004613aae565b61080e565b6102456102a3366004613bdc565b610865565b6102626102b6366004613b89565b6109a0565b6102456102c9366004613aae565b6109cb565b6102456102dc366004613d1f565b6109e6565b6102626102ef366004613d1f565b610a38565b610225610302366004613d1f565b610a4e565b610205610a76565b61026261031d366004613a5a565b610ad7565b610245610b3f565b610245610338366004613cbd565b610bfd565b61035061034b366004613d1f565b610c2b565b6040516101f49190613e49565b610225610cbb565b610205610cca565b61024561037b366004613b58565b610d2b565b61024561038e366004613aee565b610e30565b6102056103a1366004613d1f565b610e8e565b6103506103b4366004613d1f565b61110f565b6102456103c7366004613d37565b61118a565b6102056111cd565b6101e76103e2366004613a76565b61125c565b6102456103f5366004613a5a565b611268565b6001600160e01b0319811660009081526065602052604090205460ff165b919050565b609c8054604080516020601f60026000196101006001881615020190951694909404938401819004810282018101909252828152606093909290918301828280156104a95780601f1061047e576101008083540402835291602001916104a9565b820191906000526020600020905b81548152906001019060200180831161048c57829003601f168201915b5050505050905090565b60006104be8261137d565b6104f95760405162461bcd60e51b815260040180806020018281038252602c81526020018061425e602c913960400191505060405180910390fd5b506000908152609a60205260409020546001600160a01b031690565b600061052082610a4e565b9050806001600160a01b0316836001600160a01b031614156105735760405162461bcd60e51b815260040180806020018281038252602181526020018061430e6021913960400191505060405180910390fd5b806001600160a01b031661058561138a565b6001600160a01b031614806105a657506105a6816105a161138a565b61138e565b6105e15760405162461bcd60e51b81526004018080602001828103825260388152602001806141616038913960400191505060405180910390fd5b6105eb83836113bc565b505050565b6105f861138a565b6001600160a01b0316610609610cbb565b6001600160a01b031614610664576040805162461bcd60e51b815260206004820181905260248201527f4f776e61626c653a2063616c6c6572206973206e6f7420746865206f776e6572604482015290519081900360640190fd5b61066e828261142a565b5050565b600061067e609861148a565b905090565b815160601c600061069261138a565b905083604001516000815181106106a557fe5b6020026020010151600001516001600160a01b0316826001600160a01b0316146106ea5760405162461bcd60e51b81526004016106e190613eaf565b60405180910390fd5b8360800151518460400151511461070057600080fd5b806001600160a01b0316826001600160a01b031614806107255750610725828261125c565b6107415760405162461bcd60e51b81526004016106e190613f36565b600061074c85611495565b905060005b8560400151518110156107c25760008660400151828151811061077057fe5b6020026020010151600001519050836001600160a01b0316816001600160a01b0316146107b9576107b98184896080015185815181106107ac57fe5b60200260200101516116de565b50600101610751565b506107d18486600001516116e9565b6107e385600001518660600151611703565b6107f5856000015186604001516118f2565b61080785600001518660200151611aa0565b5050505050565b61081f61081961138a565b82611b03565b61085a5760405162461bcd60e51b815260040180806020018281038252603181526020018061432f6031913960400191505060405180910390fd5b6105eb838383611b0f565b600054610100900460ff168061087e575061087e611c5b565b8061088c575060005460ff16155b6108c75760405162461bcd60e51b815260040180806020018281038252602e8152602001806141ec602e913960400191505060405180910390fd5b600054610100900460ff161580156108f2576000805460ff1961ff0019909116610100171660011790555b6108fb83611c6c565b610903611c7f565b61090b611d30565b610913611dcd565b61091b611e6d565b610923611f0a565b61092b611dcd565b610933612003565b61093c826120d2565b6109468585612199565b7ff05e55f0a9d205977ca8cc02236338b6a361376f404cf0b3019b2111964a01fd61096f61138a565b868660405161098093929190613e13565b60405180910390a18015610807576000805461ff00191690555050505050565b6001600160a01b03821660009081526097602052604081206109c29083612294565b90505b92915050565b6105eb83838360405180602001604052806000815250610e30565b6109f161081961138a565b610a2c5760405162461bcd60e51b81526004018080602001828103825260308152602001806143856030913960400191505060405180910390fd5b610a35816122a0565b50565b600080610a4660988461236d565b509392505050565b60006109c5826040518060600160405280602981526020016141c36029913960989190612389565b609f8054604080516020601f60026000196101006001881615020190951694909404938401819004810282018101909252828152606093909290918301828280156104a95780601f1061047e576101008083540402835291602001916104a9565b60006001600160a01b038216610b1e5760405162461bcd60e51b815260040180806020018281038252602a815260200180614199602a913960400191505060405180910390fd5b6001600160a01b03821660009081526097602052604090206109c59061148a565b610b4761138a565b6001600160a01b0316610b58610cbb565b6001600160a01b031614610bb3576040805162461bcd60e51b815260206004820181905260248201527f4f776e61626c653a2063616c6c6572206973206e6f7420746865206f776e6572604482015290519081900360640190fd5b6033546040516000916001600160a01b0316907f8be0079c531659141344cd1fd0a4f28419497f9722a3daafe3b4186f6b6457e0908390a3603380546001600160a01b0319169055565b8251610c089061137d565b15610c2157610c1c828285600001516109cb565b6105eb565b6105eb8382610683565b60606101c76000838152602001908152602001600020805480602002602001604051908101604052809291908181526020016000905b82821015610cb057600084815260209081902060408051808201909152908401546001600160a01b0381168252600160a01b90046001600160601b031681830152825260019092019101610c61565b505050509050919050565b6033546001600160a01b031690565b609d8054604080516020601f60026000196101006001881615020190951694909404938401819004810282018101909252828152606093909290918301828280156104a95780601f1061047e576101008083540402835291602001916104a9565b610d3361138a565b6001600160a01b0316826001600160a01b03161415610d99576040805162461bcd60e51b815260206004820152601960248201527f4552433732313a20617070726f766520746f2063616c6c657200000000000000604482015290519081900360640190fd5b80609b6000610da661138a565b6001600160a01b03908116825260208083019390935260409182016000908120918716808252919093529120805460ff191692151592909217909155610dea61138a565b6001600160a01b03167f17307eab39ab6107e8899845ad3d59bd9653f200f220920489ca2b5937696c318360405180821515815260200191505060405180910390a35050565b610e41610e3b61138a565b83611b03565b610e7c5760405162461bcd60e51b815260040180806020018281038252603181526020018061432f6031913960400191505060405180910390fd5b610e88848484846123a0565b50505050565b6060610e998261137d565b610ed45760405162461bcd60e51b815260040180806020018281038252602f8152602001806142df602f913960400191505060405180910390fd5b6000828152609e602090815260408083208054825160026001831615610100026000190190921691909104601f810185900485028201850190935282815292909190830182828015610f675780601f10610f3c57610100808354040283529160200191610f67565b820191906000526020600020905b815481529060010190602001808311610f4a57829003601f168201915b505050505090506000610f78610a76565b9050805160001415610f8c57509050610418565b81511561104d5780826040516020018083805190602001908083835b60208310610fc75780518252601f199092019160209182019101610fa8565b51815160209384036101000a600019018019909216911617905285519190930192850191508083835b6020831061100f5780518252601f199092019160209182019101610ff0565b6001836020036101000a0380198251168184511680821785525050505050509050019250505060405160208183030381529060405292505050610418565b80611057856123f2565b6040516020018083805190602001908083835b602083106110895780518252601f19909201916020918201910161106a565b51815160209384036101000a600019018019909216911617905285519190930192850191508083835b602083106110d15780518252601f1990920191602091820191016110b2565b6001836020036101000a0380198251168184511680821785525050505050509050019250505060405160208183030381529060405292505050919050565b60008181526101c660209081526040808320805482518185028101850190935280835260609492939192909184018215610cb057600084815260209081902060408051808201909152908401546001600160a01b0381168252600160a01b90046001600160601b031681830152825260019092019101610c61565b816001600160a01b031661119c61138a565b6001600160a01b0316146111c25760405162461bcd60e51b81526004016106e190613eda565b6105eb8383836124cd565b6101fa805460408051602060026001851615610100026000190190941693909304601f810184900484028201840190925281815292918301828280156112545780601f1061122957610100808354040283529160200191611254565b820191906000526020600020905b81548152906001019060200180831161123757829003601f168201915b505050505081565b60006109c28383612579565b61127061138a565b6001600160a01b0316611281610cbb565b6001600160a01b0316146112dc576040805162461bcd60e51b815260206004820181905260248201527f4f776e61626c653a2063616c6c6572206973206e6f7420746865206f776e6572604482015290519081900360640190fd5b6001600160a01b0381166113215760405162461bcd60e51b81526004018080602001828103825260268152602001806140a36026913960400191505060405180910390fd5b6033546040516001600160a01b038084169216907f8be0079c531659141344cd1fd0a4f28419497f9722a3daafe3b4186f6b6457e090600090a3603380546001600160a01b0319166001600160a01b0392909216919091179055565b60006109c56098836125a5565b3390565b6001600160a01b039182166000908152609b6020908152604080832093909416825291909152205460ff1690565b6000818152609a6020526040902080546001600160a01b0319166001600160a01b03841690811790915581906113f182610a4e565b6001600160a01b03167f8c5be1e5ebec7d5bd14f71427d1e84f3dd0314c0f7b2291e5b200ac8c7c3b92560405160405180910390a45050565b6001600160a01b038216600081815260c96020908152604091829020805460ff1916851515908117909155825190815291517f270dbb8ba4292910ae92862466486be25c355c837270a3d8824b36a8bc7c653b9281900390910190a25050565b60006109c5826125b1565b60008082606001515167ffffffffffffffff811180156114b457600080fd5b506040519080825280602002602001820160405280156114de578160200160208202803683370190505b50905060005b836060015151811015611530576115118460600151828151811061150457fe5b60200260200101516125b5565b82828151811061151d57fe5b60209081029190910101526001016114e4565b50600083604001515167ffffffffffffffff8111801561154f57600080fd5b50604051908082528060200260200182016040528015611579578160200160208202803683370190505b50905060005b8460400151518110156115be5761159f8560400151828151811061150457fe5b8282815181106115ab57fe5b602090810291909101015260010161157f565b507ff64326045af5fd7e15297ba939f85b550474d3899daa47d2bc1ffbdb9ced344e84600001518560200151805190602001208360405160200180828051906020019060200280838360005b8381101561162257818101518382015260200161160a565b50505050905001915050604051602081830303815290604052805190602001208560405160200180828051906020019060200280838360005b8381101561167357818101518382015260200161165b565b505050509050019150506040516020818303038152906040528051906020012060405160200180868152602001858152602001848152602001838152602001828152602001955050505050506040516020818303038152906040528051906020012092505050919050565b6105eb838383612622565b61066e828260405180602001604052806000815250612897565b6000805b82518110156118a75760006001600160a01b031683828151811061172757fe5b6020026020010151600001516001600160a01b0316141561178f576040805162461bcd60e51b815260206004820152601b60248201527f526563697069656e742073686f756c642062652070726573656e740000000000604482015290519081900360640190fd5b82818151811061179b57fe5b6020026020010151602001516001600160601b031660001415611805576040805162461bcd60e51b815260206004820181905260248201527f526f79616c74792076616c75652073686f756c6420626520706f736974697665604482015290519081900360640190fd5b82818151811061181157fe5b6020026020010151602001516001600160601b0316820191506101c6600085815260200190815260200160002083828151811061184a57fe5b60209081029190910181015182546001818101855560009485529383902082519101805492909301516001600160601b0316600160a01b026001600160a01b039182166001600160a01b0319909316929092171617905501611707565b5061271081106118e85760405162461bcd60e51b81526004018080602001828103825260258152602001806143606025913960400191505060405180910390fd5b6105eb83836128e9565b60008281526101c76020526040812090805b8351811015611a405760006001600160a01b031684828151811061192457fe5b6020026020010151600001516001600160a01b031614156119575760405162461bcd60e51b81526004016106e190613eff565b83818151811061196357fe5b6020026020010151602001516001600160601b0316600014156119985760405162461bcd60e51b81526004016106e190613e7a565b828482815181106119a557fe5b602090810291909101810151825460018101845560009384529282902081519301805491909201516001600160601b0316600160a01b026001600160a01b039384166001600160a01b0319909216919091179092169190911790558351611a3690859083908110611a1257fe5b6020026020010151602001516001600160601b03168361292690919063ffffffff16565b9150600101611904565b508061271014611a625760405162461bcd60e51b81526004016106e190613f87565b837f841ffb90d4cabdd1f16034f3fa831d79060febbb8167bdd54a49269365bdf78f84604051611a929190613e49565b60405180910390a250505050565b611aa98261137d565b611ae45760405162461bcd60e51b815260040180806020018281038252602c81526020018061428a602c913960400191505060405180910390fd5b6000828152609e6020908152604090912082516105eb9284019061372d565b60006109c28383612980565b826001600160a01b0316611b2282610a4e565b6001600160a01b031614611b675760405162461bcd60e51b81526004018080602001828103825260298152602001806142b66029913960400191505060405180910390fd5b6001600160a01b038216611bac5760405162461bcd60e51b81526004018080602001828103825260248152602001806140c96024913960400191505060405180910390fd5b611bb78383836105eb565b611bc26000826113bc565b6001600160a01b0383166000908152609760205260409020611be490826129ac565b506001600160a01b0382166000908152609760205260409020611c0790826129b8565b50611c14609882846129c4565b5080826001600160a01b0316846001600160a01b03167fddf252ad1be2c89b69c2b068fc378daa952ba7f163c4a11628f55a4df523b3ef60405160405180910390a4505050565b6000611c66306129da565b15905090565b805161066e90609f90602084019061372d565b600054610100900460ff1680611c985750611c98611c5b565b80611ca6575060005460ff16155b611ce15760405162461bcd60e51b815260040180806020018281038252602e8152602001806141ec602e913960400191505060405180910390fd5b600054610100900460ff16158015611d0c576000805460ff1961ff0019909116610100171660011790555b611d1c638486f69f60e01b6129e0565b8015610a35576000805461ff001916905550565b600054610100900460ff1680611d495750611d49611c5b565b80611d57575060005460ff16155b611d925760405162461bcd60e51b815260040180806020018281038252602e8152602001806141ec602e913960400191505060405180910390fd5b600054610100900460ff16158015611dbd576000805460ff1961ff0019909116610100171660011790555b611d1c63656cb66560e11b6129e0565b600054610100900460ff1680611de65750611de6611c5b565b80611df4575060005460ff16155b611e2f5760405162461bcd60e51b815260040180806020018281038252602e8152602001806141ec602e913960400191505060405180910390fd5b600054610100900460ff16158015611d1c576000805460ff1961ff0019909116610100171660011790558015610a35576000805461ff001916905550565b600054610100900460ff1680611e865750611e86611c5b565b80611e94575060005460ff16155b611ecf5760405162461bcd60e51b815260040180806020018281038252602e8152602001806141ec602e913960400191505060405180910390fd5b600054610100900460ff16158015611efa576000805460ff1961ff0019909116610100171660011790555b611d1c6301ffc9a760e01b6129e0565b600054610100900460ff1680611f235750611f23611c5b565b80611f31575060005460ff16155b611f6c5760405162461bcd60e51b815260040180806020018281038252602e8152602001806141ec602e913960400191505060405180910390fd5b600054610100900460ff16158015611f97576000805460ff1961ff0019909116610100171660011790555b6000611fa161138a565b603380546001600160a01b0319166001600160a01b038316908117909155604051919250906000907f8be0079c531659141344cd1fd0a4f28419497f9722a3daafe3b4186f6b6457e0908290a3508015610a35576000805461ff001916905550565b600054610100900460ff168061201c575061201c611c5b565b8061202a575060005460ff16155b6120655760405162461bcd60e51b815260040180806020018281038252602e8152602001806141ec602e913960400191505060405180910390fd5b600054610100900460ff16158015612090576000805460ff1961ff0019909116610100171660011790555b611d1c604051806040016040528060078152602001664d696e7437323160c81b815250604051806040016040528060018152602001603160f81b815250612a64565b600054610100900460ff16806120eb57506120eb611c5b565b806120f9575060005460ff16155b6121345760405162461bcd60e51b815260040180806020018281038252602e8152602001806141ec602e913960400191505060405180910390fd5b600054610100900460ff1615801561215f576000805460ff1961ff0019909116610100171660011790555b8151612173906101fa90602085019061372d565b5061218463e8a3d48560e01b6129e0565b801561066e576000805461ff00191690555050565b600054610100900460ff16806121b257506121b2611c5b565b806121c0575060005460ff16155b6121fb5760405162461bcd60e51b815260040180806020018281038252602e8152602001806141ec602e913960400191505060405180910390fd5b600054610100900460ff16158015612226576000805460ff1961ff0019909116610100171660011790555b825161223990609c90602086019061372d565b50815161224d90609d90602085019061372d565b5061225e6380ac58cd60e01b6129e0565b61226e635b5e139f60e01b6129e0565b61227e63780e9d6360e01b6129e0565b80156105eb576000805461ff0019169055505050565b60006109c28383612b26565b60006122ab82610a4e565b90506122b9816000846105eb565b6122c46000836113bc565b6000828152609e60205260409020546002600019610100600184161502019091160415612302576000828152609e60205260408120612302916137b9565b6001600160a01b038116600090815260976020526040902061232490836129ac565b50612330609883612b8a565b5060405182906000906001600160a01b038416907fddf252ad1be2c89b69c2b068fc378daa952ba7f163c4a11628f55a4df523b3ef908390a45050565b600080808061237c8686612b96565b9097909650945050505050565b6000612396848484612c11565b90505b9392505050565b6123ab848484611b0f565b6123b784848484612c9e565b610e885760405162461bcd60e51b81526004018080602001828103825260328152602001806140716032913960400191505060405180910390fd5b60608161241757506040805180820190915260018152600360fc1b6020820152610418565b8160005b811561242f57600101600a8204915061241b565b60008167ffffffffffffffff8111801561244857600080fd5b506040519080825280601f01601f191660200182016040528015612473576020820181803683370190505b50859350905060001982015b83156124c457600a840660300160f81b828280600190039350815181106124a257fe5b60200101906001600160f81b031916908160001a905350600a8404935061247f565b50949350505050565b60008381526101c66020526040812054905b818110156108075760008581526101c66020526040902080546001600160a01b03861691908390811061250e57fe5b6000918252602090912001546001600160a01b031614156125715760008581526101c66020526040902080548491908390811061254757fe5b600091825260209091200180546001600160a01b0319166001600160a01b03929092169190911790555b6001016124df565b6001600160a01b038116600090815260c9602052604081205460ff16806109c257506109c2838361138e565b60006109c28383612e07565b5490565b8051602091820151604080517f397e04204c1e1a60ee8724b71f8244e10ab5f2e9009854d80f602bda21b59ebb818601526001600160a01b03909316838201526001600160601b039091166060808401919091528151808403909101815260809092019052805191012090565b600061262d83612e1f565b9050612641846001600160a01b03166129da565b156127f75760408051630b135d3f60e11b808252600482018481526024830193845285516044840152855191936001600160a01b03891693631626ba7e938793899390929091606490910190602085019080838360005b838110156126b0578181015183820152602001612698565b50505050905090810190601f1680156126dd5780820380516001836020036101000a031916815260200191505b50935050505060206040518083038186803b1580156126fb57600080fd5b505afa15801561270f573d6000803e3d6000fd5b505050506040513d602081101561272557600080fd5b505160408051808201909152601c81527f7369676e617475726520766572696669636174696f6e206572726f72000000006020820152916001600160e01b0319909116146127f15760405162461bcd60e51b81526004018080602001828103825283818151815260200191508051906020019080838360005b838110156127b657818101518382015260200161279e565b50505050905090810190601f1680156127e35780820380516001836020036101000a031916815260200191505b509250505060405180910390fd5b50610e88565b6001600160a01b03841661280b8284612e6b565b6001600160a01b0316146040518060400160405280601c81526020017f7369676e617475726520766572696669636174696f6e206572726f7200000000815250906108075760405162461bcd60e51b81526020600482018181528351602484015283519092839260449091019190850190808383600083156127b657818101518382015260200161279e565b6128a18383612eeb565b6128ae6000848484612c9e565b6105eb5760405162461bcd60e51b81526004018080602001828103825260328152602001806140716032913960400191505060405180910390fd5b7f3fa96d7b6bcbfe71ef171666d84db3cf52fa2d1c8afdb1cc8e486177f208b7df828260405161291a929190613fde565b60405180910390a15050565b6000828201838110156109c2576040805162461bcd60e51b815260206004820152601b60248201527f536166654d6174683a206164646974696f6e206f766572666c6f770000000000604482015290519081900360640190fd5b6001600160a01b038216600090815260c9602052604081205460ff16806109c257506109c28383613019565b60006109c283836130b5565b60006109c2838361317b565b600061239684846001600160a01b0385166131c5565b3b151590565b6001600160e01b03198082161415612a3f576040805162461bcd60e51b815260206004820152601c60248201527f4552433136353a20696e76616c696420696e7465726661636520696400000000604482015290519081900360640190fd5b6001600160e01b0319166000908152606560205260409020805460ff19166001179055565b600054610100900460ff1680612a7d5750612a7d611c5b565b80612a8b575060005460ff16155b612ac65760405162461bcd60e51b815260040180806020018281038252602e8152602001806141ec602e913960400191505060405180910390fd5b600054610100900460ff16158015612af1576000805460ff1961ff0019909116610100171660011790555b825160208085019190912083519184019190912061012e9190915561012f5580156105eb576000805461ff0019169055505050565b81546000908210612b685760405162461bcd60e51b815260040180806020018281038252602281526020018061404f6022913960400191505060405180910390fd5b826000018281548110612b7757fe5b9060005260206000200154905092915050565b60006109c2838361325c565b815460009081908310612bda5760405162461bcd60e51b815260040180806020018281038252602281526020018061423c6022913960400191505060405180910390fd5b6000846000018481548110612beb57fe5b906000526020600020906002020190508060000154816001015492509250509250929050565b60008281526001840160205260408120548281612c6f5760405162461bcd60e51b81526020600482018181528351602484015283519092839260449091019190850190808383600083156127b657818101518382015260200161279e565b50846000016001820381548110612c8257fe5b9060005260206000209060020201600101549150509392505050565b6000612cb2846001600160a01b03166129da565b612cbe57506001612dff565b6000612dcc630a85bd0160e11b612cd361138a565b88878760405160240180856001600160a01b03168152602001846001600160a01b0316815260200183815260200180602001828103825283818151815260200191508051906020019080838360005b83811015612d3a578181015183820152602001612d22565b50505050905090810190601f168015612d675780820380516001836020036101000a031916815260200191505b5095505050505050604051602081830303815290604052906001600160e01b0319166020820180516001600160e01b038381831617835250505050604051806060016040528060328152602001614071603291396001600160a01b0388169190613330565b90506000818060200190516020811015612de557600080fd5b50516001600160e01b031916630a85bd0160e11b14925050505b949350505050565b60009081526001919091016020526040902054151590565b6000612e2961333f565b82604051602001808061190160f01b81525060020183815260200182815260200192505050604051602081830303815290604052805190602001209050919050565b60008151604114612ec3576040805162461bcd60e51b815260206004820152601f60248201527f45434453413a20696e76616c6964207369676e6174757265206c656e67746800604482015290519081900360640190fd5b60208201516040830151606084015160001a612ee18682858561337a565b9695505050505050565b6001600160a01b038216612f46576040805162461bcd60e51b815260206004820181905260248201527f4552433732313a206d696e7420746f20746865207a65726f2061646472657373604482015290519081900360640190fd5b612f4f8161137d565b15612fa1576040805162461bcd60e51b815260206004820152601c60248201527f4552433732313a20746f6b656e20616c7265616479206d696e74656400000000604482015290519081900360640190fd5b612fad600083836105eb565b6001600160a01b0382166000908152609760205260409020612fcf90826129b8565b50612fdc609882846129c4565b5060405181906001600160a01b038416906000907fddf252ad1be2c89b69c2b068fc378daa952ba7f163c4a11628f55a4df523b3ef908290a45050565b60006130248261137d565b61305f5760405162461bcd60e51b815260040180806020018281038252602c815260200180614135602c913960400191505060405180910390fd5b600061306a83610a4e565b9050806001600160a01b0316846001600160a01b031614806130a55750836001600160a01b031661309a846104b3565b6001600160a01b0316145b80612dff5750612dff818561138e565b6000818152600183016020526040812054801561317157835460001980830191908101906000908790839081106130e857fe5b906000526020600020015490508087600001848154811061310557fe5b60009182526020808320909101929092558281526001898101909252604090209084019055865487908061313557fe5b600190038181906000526020600020016000905590558660010160008781526020019081526020016000206000905560019450505050506109c5565b60009150506109c5565b60006131878383612e07565b6131bd575081546001818101845560008481526020808220909301849055845484825282860190935260409020919091556109c5565b5060006109c5565b60008281526001840160205260408120548061322a575050604080518082018252838152602080820184815286546001818101895560008981528481209551600290930290950191825591519082015586548684528188019092529290912055612399565b8285600001600183038154811061323d57fe5b9060005260206000209060020201600101819055506000915050612399565b60008181526001830160205260408120548015613171578354600019808301919081019060009087908390811061328f57fe5b90600052602060002090600202019050808760000184815481106132af57fe5b6000918252602080832084546002909302019182556001938401549184019190915583548252898301905260409020908401905586548790806132ee57fe5b60008281526020808220600260001990940193840201828155600190810183905592909355888152898201909252604082209190915594506109c59350505050565b606061239684846000856134f8565b600061067e7f8b73c3c69bb8fe3d512ecc4cf759cc79239f7b179b0ffacaa9a75d522b39400f61336d613653565b61337561365a565b613661565b60007f7fffffffffffffffffffffffffffffff5d576e7357a4501ddfe92f46681b20a08211156133db5760405162461bcd60e51b81526004018080602001828103825260228152602001806140ed6022913960400191505060405180910390fd5b8360ff16601b14806133f057508360ff16601c145b61342b5760405162461bcd60e51b815260040180806020018281038252602281526020018061421a6022913960400191505060405180910390fd5b600060018686868660405160008152602001604052604051808581526020018460ff1681526020018381526020018281526020019450505050506020604051602081039080840390855afa158015613487573d6000803e3d6000fd5b5050604051601f1901519150506001600160a01b0381166134ef576040805162461bcd60e51b815260206004820152601860248201527f45434453413a20696e76616c6964207369676e61747572650000000000000000604482015290519081900360640190fd5b95945050505050565b6060824710156135395760405162461bcd60e51b815260040180806020018281038252602681526020018061410f6026913960400191505060405180910390fd5b613542856129da565b613593576040805162461bcd60e51b815260206004820152601d60248201527f416464726573733a2063616c6c20746f206e6f6e2d636f6e7472616374000000604482015290519081900360640190fd5b600080866001600160a01b031685876040518082805190602001908083835b602083106135d15780518252601f1990920191602091820191016135b2565b6001836020036101000a03801982511681845116808217855250505050505090500191505060006040518083038185875af1925050503d8060008114613633576040519150601f19603f3d011682016040523d82523d6000602084013e613638565b606091505b50915091506136488282866136c3565b979650505050505050565b61012e5490565b61012f5490565b600083838361366e613729565b3060405160200180868152602001858152602001848152602001838152602001826001600160a01b03168152602001955050505050506040516020818303038152906040528051906020012090509392505050565b606083156136d2575081612399565b8251156136e25782518084602001fd5b60405162461bcd60e51b81526020600482018181528451602484015284518593919283926044019190850190808383600083156127b657818101518382015260200161279e565b4690565b828054600181600116156101000203166002900490600052602060002090601f01602090048101928261376357600085556137a9565b82601f1061377c57805160ff19168380011785556137a9565b828001600101855582156137a9579182015b828111156137a957825182559160200191906001019061378e565b506137b59291506137f9565b5090565b50805460018160011615610100020316600290046000825580601f106137df5750610a35565b601f016020900490600052602060002090810190610a3591905b5b808211156137b557600081556001016137fa565b600082601f83011261381e578081fd5b8135602061383361382e8361401b565b613ff7565b82815281810190858301855b8581101561386857613856898684358b0101613931565b8452928401929084019060010161383f565b5090979650505050505050565b600082601f830112613885578081fd5b8135602061389561382e8361401b565b828152818101908583016040808602880185018910156138b3578687fd5b865b868110156139235781838b0312156138cb578788fd5b815182810181811067ffffffffffffffff821117156138e657fe5b835283356138f381614039565b8152838701356001600160601b038116811461390d57898afd5b81880152855293850193918101916001016138b5565b509198975050505050505050565b600082601f830112613941578081fd5b813567ffffffffffffffff81111561395557fe5b613968601f8201601f1916602001613ff7565b81815284602083860101111561397c578283fd5b816020850160208301379081016020019190915292915050565b600060a082840312156139a7578081fd5b6139b160a0613ff7565b905081358152602082013567ffffffffffffffff808211156139d257600080fd5b6139de85838601613931565b602084015260408401359150808211156139f757600080fd5b613a0385838601613875565b60408401526060840135915080821115613a1c57600080fd5b613a2885838601613875565b60608401526080840135915080821115613a4157600080fd5b50613a4e8482850161380e565b60808301525092915050565b600060208284031215613a6b578081fd5b81356109c281614039565b60008060408385031215613a88578081fd5b8235613a9381614039565b91506020830135613aa381614039565b809150509250929050565b600080600060608486031215613ac2578081fd5b8335613acd81614039565b92506020840135613add81614039565b929592945050506040919091013590565b60008060008060808587031215613b03578081fd5b8435613b0e81614039565b93506020850135613b1e81614039565b925060408501359150606085013567ffffffffffffffff811115613b40578182fd5b613b4c87828801613931565b91505092959194509250565b60008060408385031215613b6a578182fd5b8235613b7581614039565b915060208301358015158114613aa3578182fd5b60008060408385031215613b9b578182fd5b8235613ba681614039565b946020939093013593505050565b600060208284031215613bc5578081fd5b81356001600160e01b0319811681146109c2578182fd5b60008060008060808587031215613bf1578182fd5b843567ffffffffffffffff80821115613c08578384fd5b613c1488838901613931565b95506020870135915080821115613c29578384fd5b613c3588838901613931565b94506040870135915080821115613c4a578384fd5b613c5688838901613931565b93506060870135915080821115613c6b578283fd5b50613b4c87828801613931565b60008060408385031215613c8a578182fd5b823567ffffffffffffffff811115613ca0578283fd5b613cac85828601613996565b9250506020830135613aa381614039565b600080600060608486031215613cd1578081fd5b833567ffffffffffffffff811115613ce7578182fd5b613cf386828701613996565b9350506020840135613d0481614039565b91506040840135613d1481614039565b809150509250925092565b600060208284031215613d30578081fd5b5035919050565b600080600060608486031215613d4b578081fd5b833592506020840135613d0481614039565b6000815180845260208085019450808401835b83811015613da957815180516001600160a01b031688528301516001600160601b03168388015260409096019590820190600101613d70565b509495945050505050565b60008151808452815b81811015613dd957602081850181015186830182015201613dbd565b81811115613dea5782602083870101525b50601f01601f19169290920160200192915050565b6001600160a01b0391909116815260200190565b6001600160a01b0384168152606060208201819052600090613e3790830185613db4565b8281036040840152612ee18185613db4565b6000602082526109c26020830184613d5d565b901515815260200190565b6000602082526109c26020830184613db4565b6020808252818101527f43726561746f722073686172652073686f756c6420626520706f736974697665604082015260600190565b6020808252601190820152701d1bdad95b9259081a5b98dbdc9c9958dd607a1b604082015260600190565b6020808252600b908201526a1b9bdd08185b1b1bddd95960aa1b604082015260600190565b60208082526019908201527f4163636f756e742073686f756c642062652070726573656e7400000000000000604082015260600190565b60208082526031908201527f4552433732313a207472616e736665722063616c6c6572206973206e6f74206f6040820152701ddb995c881b9bdc88185c1c1c9bdd9959607a1b606082015260800190565b6020808252602e908201527f746f74616c20616d6f756e74206f662063726561746f7273207368617265207360408201526d0686f756c642062652031303030360941b606082015260800190565b90815260200190565b6000838252604060208301526123966040830184613d5d565b60405181810167ffffffffffffffff8111828210171561401357fe5b604052919050565b600067ffffffffffffffff82111561402f57fe5b5060209081020190565b6001600160a01b0381168114610a3557600080fdfe456e756d657261626c655365743a20696e646578206f7574206f6620626f756e64734552433732313a207472616e7366657220746f206e6f6e20455243373231526563656976657220696d706c656d656e7465724f776e61626c653a206e6577206f776e657220697320746865207a65726f20616464726573734552433732313a207472616e7366657220746f20746865207a65726f206164647265737345434453413a20696e76616c6964207369676e6174757265202773272076616c7565416464726573733a20696e73756666696369656e742062616c616e636520666f722063616c6c4552433732313a206f70657261746f7220717565727920666f72206e6f6e6578697374656e7420746f6b656e4552433732313a20617070726f76652063616c6c6572206973206e6f74206f776e6572206e6f7220617070726f76656420666f7220616c6c4552433732313a2062616c616e636520717565727920666f7220746865207a65726f20616464726573734552433732313a206f776e657220717565727920666f72206e6f6e6578697374656e7420746f6b656e496e697469616c697a61626c653a20636f6e747261637420697320616c726561647920696e697469616c697a656445434453413a20696e76616c6964207369676e6174757265202776272076616c7565456e756d657261626c654d61703a20696e646578206f7574206f6620626f756e64734552433732313a20617070726f76656420717565727920666f72206e6f6e6578697374656e7420746f6b656e4552433732314d657461646174613a2055524920736574206f66206e6f6e6578697374656e7420746f6b656e4552433732313a207472616e73666572206f6620746f6b656e2074686174206973206e6f74206f776e4552433732314d657461646174613a2055524920717565727920666f72206e6f6e6578697374656e7420746f6b656e4552433732313a20617070726f76616c20746f2063757272656e74206f776e65724552433732313a207472616e736665722063616c6c6572206973206e6f74206f776e6572206e6f7220617070726f766564526f79616c747920746f74616c2076616c75652073686f756c64206265203c2031303030304552433732314275726e61626c653a2063616c6c6572206973206e6f74206f776e6572206e6f7220617070726f766564a26469706673582212201498cc3d0cb4cc2c7cf7e931c3751138d3bf22568a86d25b9df8999446f5245564736f6c63430007060033",
  "immutableReferences": {},
  "source": "// SPDX-License-Identifier: MIT\n\npragma solidity 0.7.6;\npragma abicoder v2;\n\nimport \"./ERC721Base.sol\";\n\ncontract ERC721Rarible is ERC721Base {\n\n    event CreateERC721Rarible(address owner, string name, string symbol);\n\n    function __ERC721Rarible_init(string memory _name, string memory _symbol, string memory baseURI, string memory contractURI) external initializer {\n        _setBaseURI(baseURI);\n        __ERC721Lazy_init_unchained();\n        __RoyaltiesV2Upgradeable_init_unchained();\n        __Context_init_unchained();\n        __ERC165_init_unchained();\n        __Ownable_init_unchained();\n        __ERC721Burnable_init_unchained();\n        __Mint721Validator_init_unchained();\n        __HasContractURI_init_unchained(contractURI);\n        __ERC721_init_unchained(_name, _symbol);\n        emit CreateERC721Rarible(_msgSender(), _name, _symbol);\n    }\n    uint256[50] private __gap;\n}\n",
  "sourcePath": "/Users/chung/git/manifoldxyz/protocol-contracts/tokens/contracts/erc-721/ERC721Rarible.sol",
  "compiler": {
    "name": "solc",
    "version": "0.7.6+commit.7338295f.Emscripten.clang"
  },
  "schemaVersion": "3.3.4",
  "updatedAt": "2021-07-23T16:59:45.106Z",
  "devdoc": {
    "kind": "dev",
    "methods": {
      "approve(address,uint256)": {
        "details": "See {IERC721-approve}."
      },
      "balanceOf(address)": {
        "details": "See {IERC721-balanceOf}."
      },
      "baseURI()": {
        "details": "Returns the base URI set via {_setBaseURI}. This will be automatically added as a prefix in {tokenURI} to each token's URI, or to the token ID if no specific URI is set for that token ID."
      },
      "burn(uint256)": {
        "details": "Burns `tokenId`. See {ERC721-_burn}. Requirements: - The caller must own `tokenId` or be an approved operator."
      },
      "getApproved(uint256)": {
        "details": "See {IERC721-getApproved}."
      },
      "name()": {
        "details": "See {IERC721Metadata-name}."
      },
      "owner()": {
        "details": "Returns the address of the current owner."
      },
      "ownerOf(uint256)": {
        "details": "See {IERC721-ownerOf}."
      },
      "renounceOwnership()": {
        "details": "Leaves the contract without owner. It will not be possible to call `onlyOwner` functions anymore. Can only be called by the current owner. NOTE: Renouncing ownership will leave the contract without an owner, thereby removing any functionality that is only available to the owner."
      },
      "safeTransferFrom(address,address,uint256)": {
        "details": "See {IERC721-safeTransferFrom}."
      },
      "safeTransferFrom(address,address,uint256,bytes)": {
        "details": "See {IERC721-safeTransferFrom}."
      },
      "setApprovalForAll(address,bool)": {
        "details": "See {IERC721-setApprovalForAll}."
      },
      "supportsInterface(bytes4)": {
        "details": "See {IERC165-supportsInterface}. Time complexity O(1), guaranteed to always use less than 30 000 gas."
      },
      "symbol()": {
        "details": "See {IERC721Metadata-symbol}."
      },
      "tokenByIndex(uint256)": {
        "details": "See {IERC721Enumerable-tokenByIndex}."
      },
      "tokenOfOwnerByIndex(address,uint256)": {
        "details": "See {IERC721Enumerable-tokenOfOwnerByIndex}."
      },
      "tokenURI(uint256)": {
        "details": "See {IERC721Metadata-tokenURI}."
      },
      "totalSupply()": {
        "details": "See {IERC721Enumerable-totalSupply}."
      },
      "transferFrom(address,address,uint256)": {
        "details": "See {IERC721-transferFrom}."
      },
      "transferOwnership(address)": {
        "details": "Transfers ownership of the contract to a new account (`newOwner`). Can only be called by the current owner."
      }
    },
    "version": 1
  },
  "userdoc": {
    "kind": "user",
    "methods": {},
    "version": 1
  }
}