{
  "contractName": "ERC721Rarible",
  "abi": [
    {
      "anonymous": false,
      "inputs": [
        {
          "indexed": true,
          "internalType": "address",
          "name": "owner",
          "type": "address"
        },
        {
          "indexed": true,
          "internalType": "address",
          "name": "approved",
          "type": "address"
        },
        {
          "indexed": true,
          "internalType": "uint256",
          "name": "tokenId",
          "type": "uint256"
        }
      ],
      "name": "Approval",
      "type": "event"
    },
    {
      "anonymous": false,
      "inputs": [
        {
          "indexed": true,
          "internalType": "address",
          "name": "owner",
          "type": "address"
        },
        {
          "indexed": true,
          "internalType": "address",
          "name": "operator",
          "type": "address"
        },
        {
          "indexed": false,
          "internalType": "bool",
          "name": "approved",
          "type": "bool"
        }
      ],
      "name": "ApprovalForAll",
      "type": "event"
    },
    {
      "anonymous": false,
      "inputs": [
        {
          "indexed": false,
          "internalType": "address",
          "name": "owner",
          "type": "address"
        },
        {
          "indexed": false,
          "internalType": "string",
          "name": "name",
          "type": "string"
        },
        {
          "indexed": false,
          "internalType": "string",
          "name": "symbol",
          "type": "string"
        }
      ],
      "name": "CreateERC721Rarible",
      "type": "event"
    },
    {
      "anonymous": false,
      "inputs": [
        {
          "indexed": false,
          "internalType": "uint256",
          "name": "tokenId",
          "type": "uint256"
        },
        {
          "components": [
            {
              "internalType": "address payable",
              "name": "account",
              "type": "address"
            },
            {
              "internalType": "uint96",
              "name": "value",
              "type": "uint96"
            }
          ],
          "indexed": false,
          "internalType": "struct LibPart.Part[]",
          "name": "creators",
          "type": "tuple[]"
        }
      ],
      "name": "Creators",
      "type": "event"
    },
    {
      "anonymous": false,
      "inputs": [
        {
          "indexed": true,
          "internalType": "address",
          "name": "operator",
          "type": "address"
        },
        {
          "indexed": false,
          "internalType": "bool",
          "name": "hasApproval",
          "type": "bool"
        }
      ],
      "name": "DefaultApproval",
      "type": "event"
    },
    {
      "anonymous": false,
      "inputs": [
        {
          "indexed": true,
          "internalType": "address",
          "name": "previousOwner",
          "type": "address"
        },
        {
          "indexed": true,
          "internalType": "address",
          "name": "newOwner",
          "type": "address"
        }
      ],
      "name": "OwnershipTransferred",
      "type": "event"
    },
    {
      "anonymous": false,
      "inputs": [
        {
          "indexed": false,
          "internalType": "uint256",
          "name": "tokenId",
          "type": "uint256"
        },
        {
          "components": [
            {
              "internalType": "address payable",
              "name": "account",
              "type": "address"
            },
            {
              "internalType": "uint96",
              "name": "value",
              "type": "uint96"
            }
          ],
          "indexed": false,
          "internalType": "struct LibPart.Part[]",
          "name": "royalties",
          "type": "tuple[]"
        }
      ],
      "name": "RoyaltiesSet",
      "type": "event"
    },
    {
      "anonymous": false,
      "inputs": [
        {
          "indexed": true,
          "internalType": "address",
          "name": "from",
          "type": "address"
        },
        {
          "indexed": true,
          "internalType": "address",
          "name": "to",
          "type": "address"
        },
        {
          "indexed": true,
          "internalType": "uint256",
          "name": "tokenId",
          "type": "uint256"
        }
      ],
      "name": "Transfer",
      "type": "event"
    },
    {
      "inputs": [
        {
          "internalType": "address",
          "name": "to",
          "type": "address"
        },
        {
          "internalType": "uint256",
          "name": "tokenId",
          "type": "uint256"
        }
      ],
      "name": "approve",
      "outputs": [],
      "stateMutability": "nonpayable",
      "type": "function"
    },
    {
      "inputs": [
        {
          "internalType": "address",
          "name": "owner",
          "type": "address"
        }
      ],
      "name": "balanceOf",
      "outputs": [
        {
          "internalType": "uint256",
          "name": "",
          "type": "uint256"
        }
      ],
      "stateMutability": "view",
      "type": "function",
      "constant": true
    },
    {
      "inputs": [],
      "name": "baseURI",
      "outputs": [
        {
          "internalType": "string",
          "name": "",
          "type": "string"
        }
      ],
      "stateMutability": "view",
      "type": "function",
      "constant": true
    },
    {
      "inputs": [
        {
          "internalType": "uint256",
          "name": "tokenId",
          "type": "uint256"
        }
      ],
      "name": "burn",
      "outputs": [],
      "stateMutability": "nonpayable",
      "type": "function"
    },
    {
      "inputs": [],
      "name": "contractURI",
      "outputs": [
        {
          "internalType": "string",
          "name": "",
          "type": "string"
        }
      ],
      "stateMutability": "view",
      "type": "function",
      "constant": true
    },
    {
      "inputs": [
        {
          "internalType": "uint256",
          "name": "tokenId",
          "type": "uint256"
        }
      ],
      "name": "getApproved",
      "outputs": [
        {
          "internalType": "address",
          "name": "",
          "type": "address"
        }
      ],
      "stateMutability": "view",
      "type": "function",
      "constant": true
    },
    {
      "inputs": [
        {
          "internalType": "uint256",
          "name": "_id",
          "type": "uint256"
        }
      ],
      "name": "getCreators",
      "outputs": [
        {
          "components": [
            {
              "internalType": "address payable",
              "name": "account",
              "type": "address"
            },
            {
              "internalType": "uint96",
              "name": "value",
              "type": "uint96"
            }
          ],
          "internalType": "struct LibPart.Part[]",
          "name": "",
          "type": "tuple[]"
        }
      ],
      "stateMutability": "view",
      "type": "function",
      "constant": true
    },
    {
      "inputs": [
        {
          "internalType": "uint256",
          "name": "id",
          "type": "uint256"
        }
      ],
      "name": "getRoyalties",
      "outputs": [
        {
          "components": [
            {
              "internalType": "address payable",
              "name": "account",
              "type": "address"
            },
            {
              "internalType": "uint96",
              "name": "value",
              "type": "uint96"
            }
          ],
          "internalType": "struct LibPart.Part[]",
          "name": "",
          "type": "tuple[]"
        }
      ],
      "stateMutability": "view",
      "type": "function",
      "constant": true
    },
    {
      "inputs": [
        {
          "internalType": "address",
          "name": "owner",
          "type": "address"
        },
        {
          "internalType": "address",
          "name": "operator",
          "type": "address"
        }
      ],
      "name": "isApprovedForAll",
      "outputs": [
        {
          "internalType": "bool",
          "name": "",
          "type": "bool"
        }
      ],
      "stateMutability": "view",
      "type": "function",
      "constant": true
    },
    {
      "inputs": [
        {
          "components": [
            {
              "internalType": "uint256",
              "name": "tokenId",
              "type": "uint256"
            },
            {
              "internalType": "string",
              "name": "uri",
              "type": "string"
            },
            {
              "components": [
                {
                  "internalType": "address payable",
                  "name": "account",
                  "type": "address"
                },
                {
                  "internalType": "uint96",
                  "name": "value",
                  "type": "uint96"
                }
              ],
              "internalType": "struct LibPart.Part[]",
              "name": "creators",
              "type": "tuple[]"
            },
            {
              "components": [
                {
                  "internalType": "address payable",
                  "name": "account",
                  "type": "address"
                },
                {
                  "internalType": "uint96",
                  "name": "value",
                  "type": "uint96"
                }
              ],
              "internalType": "struct LibPart.Part[]",
              "name": "royalties",
              "type": "tuple[]"
            },
            {
              "internalType": "bytes[]",
              "name": "signatures",
              "type": "bytes[]"
            }
          ],
          "internalType": "struct LibERC721LazyMint.Mint721Data",
          "name": "data",
          "type": "tuple"
        },
        {
          "internalType": "address",
          "name": "to",
          "type": "address"
        }
      ],
      "name": "mintAndTransfer",
      "outputs": [],
      "stateMutability": "nonpayable",
      "type": "function"
    },
    {
      "inputs": [],
      "name": "name",
      "outputs": [
        {
          "internalType": "string",
          "name": "",
          "type": "string"
        }
      ],
      "stateMutability": "view",
      "type": "function",
      "constant": true
    },
    {
      "inputs": [],
      "name": "owner",
      "outputs": [
        {
          "internalType": "address",
          "name": "",
          "type": "address"
        }
      ],
      "stateMutability": "view",
      "type": "function",
      "constant": true
    },
    {
      "inputs": [
        {
          "internalType": "uint256",
          "name": "tokenId",
          "type": "uint256"
        }
      ],
      "name": "ownerOf",
      "outputs": [
        {
          "internalType": "address",
          "name": "",
          "type": "address"
        }
      ],
      "stateMutability": "view",
      "type": "function",
      "constant": true
    },
    {
      "inputs": [],
      "name": "renounceOwnership",
      "outputs": [],
      "stateMutability": "nonpayable",
      "type": "function"
    },
    {
      "inputs": [
        {
          "internalType": "uint256",
          "name": "",
          "type": "uint256"
        },
        {
          "internalType": "uint256",
          "name": "",
          "type": "uint256"
        }
      ],
      "name": "royalties",
      "outputs": [
        {
          "internalType": "address payable",
          "name": "account",
          "type": "address"
        },
        {
          "internalType": "uint96",
          "name": "value",
          "type": "uint96"
        }
      ],
      "stateMutability": "view",
      "type": "function",
      "constant": true
    },
    {
      "inputs": [
        {
          "internalType": "address",
          "name": "from",
          "type": "address"
        },
        {
          "internalType": "address",
          "name": "to",
          "type": "address"
        },
        {
          "internalType": "uint256",
          "name": "tokenId",
          "type": "uint256"
        }
      ],
      "name": "safeTransferFrom",
      "outputs": [],
      "stateMutability": "nonpayable",
      "type": "function"
    },
    {
      "inputs": [
        {
          "internalType": "address",
          "name": "from",
          "type": "address"
        },
        {
          "internalType": "address",
          "name": "to",
          "type": "address"
        },
        {
          "internalType": "uint256",
          "name": "tokenId",
          "type": "uint256"
        },
        {
          "internalType": "bytes",
          "name": "_data",
          "type": "bytes"
        }
      ],
      "name": "safeTransferFrom",
      "outputs": [],
      "stateMutability": "nonpayable",
      "type": "function"
    },
    {
      "inputs": [
        {
          "internalType": "address",
          "name": "operator",
          "type": "address"
        },
        {
          "internalType": "bool",
          "name": "approved",
          "type": "bool"
        }
      ],
      "name": "setApprovalForAll",
      "outputs": [],
      "stateMutability": "nonpayable",
      "type": "function"
    },
    {
      "inputs": [
        {
          "internalType": "address",
          "name": "operator",
          "type": "address"
        },
        {
          "internalType": "bool",
          "name": "hasApproval",
          "type": "bool"
        }
      ],
      "name": "setDefaultApproval",
      "outputs": [],
      "stateMutability": "nonpayable",
      "type": "function"
    },
    {
      "inputs": [
        {
          "internalType": "bytes4",
          "name": "interfaceId",
          "type": "bytes4"
        }
      ],
      "name": "supportsInterface",
      "outputs": [
        {
          "internalType": "bool",
          "name": "",
          "type": "bool"
        }
      ],
      "stateMutability": "view",
      "type": "function",
      "constant": true
    },
    {
      "inputs": [],
      "name": "symbol",
      "outputs": [
        {
          "internalType": "string",
          "name": "",
          "type": "string"
        }
      ],
      "stateMutability": "view",
      "type": "function",
      "constant": true
    },
    {
      "inputs": [
        {
          "internalType": "uint256",
          "name": "index",
          "type": "uint256"
        }
      ],
      "name": "tokenByIndex",
      "outputs": [
        {
          "internalType": "uint256",
          "name": "",
          "type": "uint256"
        }
      ],
      "stateMutability": "view",
      "type": "function",
      "constant": true
    },
    {
      "inputs": [
        {
          "internalType": "address",
          "name": "owner",
          "type": "address"
        },
        {
          "internalType": "uint256",
          "name": "index",
          "type": "uint256"
        }
      ],
      "name": "tokenOfOwnerByIndex",
      "outputs": [
        {
          "internalType": "uint256",
          "name": "",
          "type": "uint256"
        }
      ],
      "stateMutability": "view",
      "type": "function",
      "constant": true
    },
    {
      "inputs": [
        {
          "internalType": "uint256",
          "name": "tokenId",
          "type": "uint256"
        }
      ],
      "name": "tokenURI",
      "outputs": [
        {
          "internalType": "string",
          "name": "",
          "type": "string"
        }
      ],
      "stateMutability": "view",
      "type": "function",
      "constant": true
    },
    {
      "inputs": [],
      "name": "totalSupply",
      "outputs": [
        {
          "internalType": "uint256",
          "name": "",
          "type": "uint256"
        }
      ],
      "stateMutability": "view",
      "type": "function",
      "constant": true
    },
    {
      "inputs": [
        {
          "internalType": "address",
          "name": "from",
          "type": "address"
        },
        {
          "internalType": "address",
          "name": "to",
          "type": "address"
        },
        {
          "internalType": "uint256",
          "name": "tokenId",
          "type": "uint256"
        }
      ],
      "name": "transferFrom",
      "outputs": [],
      "stateMutability": "nonpayable",
      "type": "function"
    },
    {
      "inputs": [
        {
          "components": [
            {
              "internalType": "uint256",
              "name": "tokenId",
              "type": "uint256"
            },
            {
              "internalType": "string",
              "name": "uri",
              "type": "string"
            },
            {
              "components": [
                {
                  "internalType": "address payable",
                  "name": "account",
                  "type": "address"
                },
                {
                  "internalType": "uint96",
                  "name": "value",
                  "type": "uint96"
                }
              ],
              "internalType": "struct LibPart.Part[]",
              "name": "creators",
              "type": "tuple[]"
            },
            {
              "components": [
                {
                  "internalType": "address payable",
                  "name": "account",
                  "type": "address"
                },
                {
                  "internalType": "uint96",
                  "name": "value",
                  "type": "uint96"
                }
              ],
              "internalType": "struct LibPart.Part[]",
              "name": "royalties",
              "type": "tuple[]"
            },
            {
              "internalType": "bytes[]",
              "name": "signatures",
              "type": "bytes[]"
            }
          ],
          "internalType": "struct LibERC721LazyMint.Mint721Data",
          "name": "data",
          "type": "tuple"
        },
        {
          "internalType": "address",
          "name": "from",
          "type": "address"
        },
        {
          "internalType": "address",
          "name": "to",
          "type": "address"
        }
      ],
      "name": "transferFromOrMint",
      "outputs": [],
      "stateMutability": "nonpayable",
      "type": "function"
    },
    {
      "inputs": [
        {
          "internalType": "address",
          "name": "newOwner",
          "type": "address"
        }
      ],
      "name": "transferOwnership",
      "outputs": [],
      "stateMutability": "nonpayable",
      "type": "function"
    },
    {
      "inputs": [
        {
          "internalType": "uint256",
          "name": "_id",
          "type": "uint256"
        },
        {
          "internalType": "address",
          "name": "_from",
          "type": "address"
        },
        {
          "internalType": "address",
          "name": "_to",
          "type": "address"
        }
      ],
      "name": "updateAccount",
      "outputs": [],
      "stateMutability": "nonpayable",
      "type": "function"
    },
    {
      "inputs": [
        {
          "internalType": "string",
          "name": "_name",
          "type": "string"
        },
        {
          "internalType": "string",
          "name": "_symbol",
          "type": "string"
        },
        {
          "internalType": "string",
          "name": "baseURI",
          "type": "string"
        },
        {
          "internalType": "string",
          "name": "contractURI",
          "type": "string"
        }
      ],
      "name": "__ERC721Rarible_init",
      "outputs": [],
      "stateMutability": "nonpayable",
      "type": "function"
    }
  ],
  "bytecode": "0x608060405234801561001057600080fd5b50614441806100206000396000f3fe608060405234801561001057600080fd5b50600436106101da5760003560e01c806370a0823111610104578063a22cb465116100a2578063e07f231911610071578063e07f2319146103e5578063e8a3d485146103f8578063e985e9c514610400578063f2fde38b14610413576101da565b8063a22cb46514610399578063b88d4fde146103ac578063bb3bafd6146103bf578063c87b56dd146103d2576101da565b8063891be974116100de578063891be974146103485780638924af74146103685780638da5cb5b1461038957806395d89b4114610391576101da565b806370a082311461031a578063715018a61461032d578063832fbb2914610335576101da565b806323b872dd1161017c57806342966c681161014b57806342966c68146102d95780634f6ccce7146102ec5780636352211e146102ff5780636c0360eb14610312576101da565b806323b872dd1461028d5780632a839963146102a05780632f745c59146102b357806342842e0e146102c6576101da565b8063095ea7b3116101b8578063095ea7b31461023d57806318054c371461025257806318160ddd1461026557806322a775b61461027a576101da565b806301ffc9a7146101df57806306fdde0314610208578063081812fc1461021d575b600080fd5b6101f26101ed366004613bed565b610426565b6040516101ff9190613ed8565b60405180910390f35b610210610449565b6040516101ff9190613ee3565b61023061022b366004613d58565b6104df565b6040516101ff9190613e59565b61025061024b366004613bc2565b610541565b005b610250610260366004613b91565b61061c565b61026d61069e565b6040516101ff9190614051565b610250610288366004613cb1565b6106af565b61025061029b366004613ae7565b61083a565b6102506102ae366004613c15565b610891565b61026d6102c1366004613bc2565b6109cc565b6102506102d4366004613ae7565b6109f7565b6102506102e7366004613d58565b610a12565b61026d6102fa366004613d58565b610a64565b61023061030d366004613d58565b610a7a565b610210610aa2565b61026d610328366004613a93565b610b03565b610250610b6b565b610250610343366004613cf6565b610c29565b61035b610356366004613d58565b610c57565b6040516101ff9190613ec5565b61037b610376366004613d96565b610ce7565b6040516101ff929190613ea3565b610230610d31565b610210610d40565b6102506103a7366004613b91565b610da1565b6102506103ba366004613b27565b610ea6565b61035b6103cd366004613d58565b610f04565b6102106103e0366004613d58565b610f7f565b6102506103f3366004613d70565b611200565b610210611243565b6101f261040e366004613aaf565b6112d2565b610250610421366004613a93565b6112de565b6001600160e01b0319811660009081526065602052604090205460ff165b919050565b609c8054604080516020601f60026000196101006001881615020190951694909404938401819004810282018101909252828152606093909290918301828280156104d55780601f106104aa576101008083540402835291602001916104d5565b820191906000526020600020905b8154815290600101906020018083116104b857829003601f168201915b5050505050905090565b60006104ea826113f3565b6105255760405162461bcd60e51b815260040180806020018281038252602c8152602001806142da602c913960400191505060405180910390fd5b506000908152609a60205260409020546001600160a01b031690565b600061054c82610a7a565b9050806001600160a01b0316836001600160a01b0316141561059f5760405162461bcd60e51b815260040180806020018281038252602181526020018061438a6021913960400191505060405180910390fd5b806001600160a01b03166105b1611400565b6001600160a01b031614806105d257506105d2816105cd611400565b611404565b61060d5760405162461bcd60e51b81526004018080602001828103825260388152602001806141dd6038913960400191505060405180910390fd5b6106178383611432565b505050565b610624611400565b6001600160a01b0316610635610d31565b6001600160a01b031614610690576040805162461bcd60e51b815260206004820181905260248201527f4f776e61626c653a2063616c6c6572206973206e6f7420746865206f776e6572604482015290519081900360640190fd5b61069a82826114a0565b5050565b60006106aa6098611500565b905090565b815160601c60006106be611400565b905083604001516000815181106106d157fe5b6020026020010151600001516001600160a01b0316826001600160a01b0316146107165760405162461bcd60e51b815260040161070d90613f2b565b60405180910390fd5b8360800151518460400151511461072c57600080fd5b806001600160a01b0316826001600160a01b03161480610751575061075182826112d2565b61076d5760405162461bcd60e51b815260040161070d90613fb2565b60006107788561150b565b905060005b8560400151518110156107ee5760008660400151828151811061079c57fe5b6020026020010151600001519050836001600160a01b0316816001600160a01b0316146107e5576107e58184896080015185815181106107d857fe5b6020026020010151611754565b5060010161077d565b506107fd84866000015161175f565b61080f8560000151866060015161188d565b61082185600001518660400151611a13565b61083385600001518660200151611bc2565b5050505050565b61084b610845611400565b82611c25565b6108865760405162461bcd60e51b81526004018080602001828103825260318152602001806143ab6031913960400191505060405180910390fd5b610617838383611c31565b600054610100900460ff16806108aa57506108aa611d7d565b806108b8575060005460ff16155b6108f35760405162461bcd60e51b815260040180806020018281038252602e815260200180614268602e913960400191505060405180910390fd5b600054610100900460ff1615801561091e576000805460ff1961ff0019909116610100171660011790555b61092783611d8e565b61092f611da1565b610937611e52565b61093f611eef565b610947611f8f565b61094f61202c565b610957611eef565b61095f612125565b610968826121f4565b61097285856122bb565b7ff05e55f0a9d205977ca8cc02236338b6a361376f404cf0b3019b2111964a01fd61099b611400565b86866040516109ac93929190613e6d565b60405180910390a18015610833576000805461ff00191690555050505050565b6001600160a01b03821660009081526097602052604081206109ee90836123b6565b90505b92915050565b61061783838360405180602001604052806000815250610ea6565b610a1d610845611400565b610a585760405162461bcd60e51b81526004018080602001828103825260308152602001806143dc6030913960400191505060405180910390fd5b610a61816123c2565b50565b600080610a7260988461248f565b509392505050565b60006109f18260405180606001604052806029815260200161423f60299139609891906124ab565b609f8054604080516020601f60026000196101006001881615020190951694909404938401819004810282018101909252828152606093909290918301828280156104d55780601f106104aa576101008083540402835291602001916104d5565b60006001600160a01b038216610b4a5760405162461bcd60e51b815260040180806020018281038252602a815260200180614215602a913960400191505060405180910390fd5b6001600160a01b03821660009081526097602052604090206109f190611500565b610b73611400565b6001600160a01b0316610b84610d31565b6001600160a01b031614610bdf576040805162461bcd60e51b815260206004820181905260248201527f4f776e61626c653a2063616c6c6572206973206e6f7420746865206f776e6572604482015290519081900360640190fd5b6033546040516000916001600160a01b0316907f8be0079c531659141344cd1fd0a4f28419497f9722a3daafe3b4186f6b6457e0908390a3603380546001600160a01b0319169055565b8251610c34906113f3565b15610c4d57610c48828285600001516109f7565b610617565b61061783826106af565b60606101c76000838152602001908152602001600020805480602002602001604051908101604052809291908181526020016000905b82821015610cdc57600084815260209081902060408051808201909152908401546001600160a01b0381168252600160a01b90046001600160601b031681830152825260019092019101610c8d565b505050509050919050565b6101c66020528160005260406000208181548110610d0457600080fd5b6000918252602090912001546001600160a01b0381169250600160a01b90046001600160601b0316905082565b6033546001600160a01b031690565b609d8054604080516020601f60026000196101006001881615020190951694909404938401819004810282018101909252828152606093909290918301828280156104d55780601f106104aa576101008083540402835291602001916104d5565b610da9611400565b6001600160a01b0316826001600160a01b03161415610e0f576040805162461bcd60e51b815260206004820152601960248201527f4552433732313a20617070726f766520746f2063616c6c657200000000000000604482015290519081900360640190fd5b80609b6000610e1c611400565b6001600160a01b03908116825260208083019390935260409182016000908120918716808252919093529120805460ff191692151592909217909155610e60611400565b6001600160a01b03167f17307eab39ab6107e8899845ad3d59bd9653f200f220920489ca2b5937696c318360405180821515815260200191505060405180910390a35050565b610eb7610eb1611400565b83611c25565b610ef25760405162461bcd60e51b81526004018080602001828103825260318152602001806143ab6031913960400191505060405180910390fd5b610efe848484846124c2565b50505050565b60008181526101c660209081526040808320805482518185028101850190935280835260609492939192909184018215610cdc57600084815260209081902060408051808201909152908401546001600160a01b0381168252600160a01b90046001600160601b031681830152825260019092019101610c8d565b6060610f8a826113f3565b610fc55760405162461bcd60e51b815260040180806020018281038252602f81526020018061435b602f913960400191505060405180910390fd5b6000828152609e602090815260408083208054825160026001831615610100026000190190921691909104601f8101859004850282018501909352828152929091908301828280156110585780601f1061102d57610100808354040283529160200191611058565b820191906000526020600020905b81548152906001019060200180831161103b57829003601f168201915b505050505090506000611069610aa2565b905080516000141561107d57509050610444565b81511561113e5780826040516020018083805190602001908083835b602083106110b85780518252601f199092019160209182019101611099565b51815160209384036101000a600019018019909216911617905285519190930192850191508083835b602083106111005780518252601f1990920191602091820191016110e1565b6001836020036101000a0380198251168184511680821785525050505050509050019250505060405160208183030381529060405292505050610444565b8061114885612514565b6040516020018083805190602001908083835b6020831061117a5780518252601f19909201916020918201910161115b565b51815160209384036101000a600019018019909216911617905285519190930192850191508083835b602083106111c25780518252601f1990920191602091820191016111a3565b6001836020036101000a0380198251168184511680821785525050505050509050019250505060405160208183030381529060405292505050919050565b816001600160a01b0316611212611400565b6001600160a01b0316146112385760405162461bcd60e51b815260040161070d90613f56565b6106178383836125ef565b6101fa805460408051602060026001851615610100026000190190941693909304601f810184900484028201840190925281815292918301828280156112ca5780601f1061129f576101008083540402835291602001916112ca565b820191906000526020600020905b8154815290600101906020018083116112ad57829003601f168201915b505050505081565b60006109ee838361269b565b6112e6611400565b6001600160a01b03166112f7610d31565b6001600160a01b031614611352576040805162461bcd60e51b815260206004820181905260248201527f4f776e61626c653a2063616c6c6572206973206e6f7420746865206f776e6572604482015290519081900360640190fd5b6001600160a01b0381166113975760405162461bcd60e51b815260040180806020018281038252602681526020018061411f6026913960400191505060405180910390fd5b6033546040516001600160a01b038084169216907f8be0079c531659141344cd1fd0a4f28419497f9722a3daafe3b4186f6b6457e090600090a3603380546001600160a01b0319166001600160a01b0392909216919091179055565b60006109f16098836126c7565b3390565b6001600160a01b039182166000908152609b6020908152604080832093909416825291909152205460ff1690565b6000818152609a6020526040902080546001600160a01b0319166001600160a01b038416908117909155819061146782610a7a565b6001600160a01b03167f8c5be1e5ebec7d5bd14f71427d1e84f3dd0314c0f7b2291e5b200ac8c7c3b92560405160405180910390a45050565b6001600160a01b038216600081815260c96020908152604091829020805460ff1916851515908117909155825190815291517f270dbb8ba4292910ae92862466486be25c355c837270a3d8824b36a8bc7c653b9281900390910190a25050565b60006109f1826126d3565b60008082606001515167ffffffffffffffff8111801561152a57600080fd5b50604051908082528060200260200182016040528015611554578160200160208202803683370190505b50905060005b8360600151518110156115a6576115878460600151828151811061157a57fe5b60200260200101516126d7565b82828151811061159357fe5b602090810291909101015260010161155a565b50600083604001515167ffffffffffffffff811180156115c557600080fd5b506040519080825280602002602001820160405280156115ef578160200160208202803683370190505b50905060005b846040015151811015611634576116158560400151828151811061157a57fe5b82828151811061162157fe5b60209081029190910101526001016115f5565b507ff64326045af5fd7e15297ba939f85b550474d3899daa47d2bc1ffbdb9ced344e84600001518560200151805190602001208360405160200180828051906020019060200280838360005b83811015611698578181015183820152602001611680565b50505050905001915050604051602081830303815290604052805190602001208560405160200180828051906020019060200280838360005b838110156116e95781810151838201526020016116d1565b505050509050019150506040516020818303038152906040528051906020012060405160200180868152602001858152602001848152602001838152602001828152602001955050505050506040516020818303038152906040528051906020012092505050919050565b610617838383612744565b6001600160a01b0382166117ba576040805162461bcd60e51b815260206004820181905260248201527f4552433732313a206d696e7420746f20746865207a65726f2061646472657373604482015290519081900360640190fd5b6117c3816113f3565b15611815576040805162461bcd60e51b815260206004820152601c60248201527f4552433732313a20746f6b656e20616c7265616479206d696e74656400000000604482015290519081900360640190fd5b61182160008383610617565b6001600160a01b038216600090815260976020526040902061184390826129b9565b50611850609882846129c5565b5060405181906001600160a01b038416906000907fddf252ad1be2c89b69c2b068fc378daa952ba7f163c4a11628f55a4df523b3ef908290a45050565b60005b8151811015611a085760006001600160a01b03168282815181106118b057fe5b6020026020010151600001516001600160a01b03161415611918576040805162461bcd60e51b815260206004820152601b60248201527f526563697069656e742073686f756c642062652070726573656e740000000000604482015290519081900360640190fd5b81818151811061192457fe5b6020026020010151602001516001600160601b03166000141561198e576040805162461bcd60e51b815260206004820181905260248201527f526f79616c74792076616c75652073686f756c6420626520706f736974697665604482015290519081900360640190fd5b60008381526101c66020526040902082518390839081106119ab57fe5b60209081029190910181015182546001818101855560009485529383902082519101805492909301516001600160601b0316600160a01b026001600160a01b039182166001600160a01b0319909316929092171617905501611890565b5061069a82826129db565b60008281526101c76020526040812090805b8351811015611b615760006001600160a01b0316848281518110611a4557fe5b6020026020010151600001516001600160a01b03161415611a785760405162461bcd60e51b815260040161070d90613f7b565b838181518110611a8457fe5b6020026020010151602001516001600160601b031660001415611ab95760405162461bcd60e51b815260040161070d90613ef6565b82848281518110611ac657fe5b602090810291909101810151825460018101845560009384529282902081519301805491909201516001600160601b0316600160a01b026001600160a01b039384166001600160a01b0319909216919091179092169190911790558351611b5790859083908110611b3357fe5b6020026020010151602001516001600160601b031683612a1890919063ffffffff16565b9150600101611a25565b508061271014611b835760405162461bcd60e51b815260040161070d90614003565b7f841ffb90d4cabdd1f16034f3fa831d79060febbb8167bdd54a49269365bdf78f8484604051611bb492919061405a565b60405180910390a150505050565b611bcb826113f3565b611c065760405162461bcd60e51b815260040180806020018281038252602c815260200180614306602c913960400191505060405180910390fd5b6000828152609e60209081526040909120825161061792840190613766565b60006109ee8383612a72565b826001600160a01b0316611c4482610a7a565b6001600160a01b031614611c895760405162461bcd60e51b81526004018080602001828103825260298152602001806143326029913960400191505060405180910390fd5b6001600160a01b038216611cce5760405162461bcd60e51b81526004018080602001828103825260248152602001806141456024913960400191505060405180910390fd5b611cd9838383610617565b611ce4600082611432565b6001600160a01b0383166000908152609760205260409020611d069082612a9e565b506001600160a01b0382166000908152609760205260409020611d2990826129b9565b50611d36609882846129c5565b5080826001600160a01b0316846001600160a01b03167fddf252ad1be2c89b69c2b068fc378daa952ba7f163c4a11628f55a4df523b3ef60405160405180910390a4505050565b6000611d8830612aaa565b15905090565b805161069a90609f906020840190613766565b600054610100900460ff1680611dba5750611dba611d7d565b80611dc8575060005460ff16155b611e035760405162461bcd60e51b815260040180806020018281038252602e815260200180614268602e913960400191505060405180910390fd5b600054610100900460ff16158015611e2e576000805460ff1961ff0019909116610100171660011790555b611e3e638486f69f60e01b612ab0565b8015610a61576000805461ff001916905550565b600054610100900460ff1680611e6b5750611e6b611d7d565b80611e79575060005460ff16155b611eb45760405162461bcd60e51b815260040180806020018281038252602e815260200180614268602e913960400191505060405180910390fd5b600054610100900460ff16158015611edf576000805460ff1961ff0019909116610100171660011790555b611e3e631131d2f360e21b612ab0565b600054610100900460ff1680611f085750611f08611d7d565b80611f16575060005460ff16155b611f515760405162461bcd60e51b815260040180806020018281038252602e815260200180614268602e913960400191505060405180910390fd5b600054610100900460ff16158015611e3e576000805460ff1961ff0019909116610100171660011790558015610a61576000805461ff001916905550565b600054610100900460ff1680611fa85750611fa8611d7d565b80611fb6575060005460ff16155b611ff15760405162461bcd60e51b815260040180806020018281038252602e815260200180614268602e913960400191505060405180910390fd5b600054610100900460ff1615801561201c576000805460ff1961ff0019909116610100171660011790555b611e3e6301ffc9a760e01b612ab0565b600054610100900460ff16806120455750612045611d7d565b80612053575060005460ff16155b61208e5760405162461bcd60e51b815260040180806020018281038252602e815260200180614268602e913960400191505060405180910390fd5b600054610100900460ff161580156120b9576000805460ff1961ff0019909116610100171660011790555b60006120c3611400565b603380546001600160a01b0319166001600160a01b038316908117909155604051919250906000907f8be0079c531659141344cd1fd0a4f28419497f9722a3daafe3b4186f6b6457e0908290a3508015610a61576000805461ff001916905550565b600054610100900460ff168061213e575061213e611d7d565b8061214c575060005460ff16155b6121875760405162461bcd60e51b815260040180806020018281038252602e815260200180614268602e913960400191505060405180910390fd5b600054610100900460ff161580156121b2576000805460ff1961ff0019909116610100171660011790555b611e3e604051806040016040528060078152602001664d696e7437323160c81b815250604051806040016040528060018152602001603160f81b815250612b34565b600054610100900460ff168061220d575061220d611d7d565b8061221b575060005460ff16155b6122565760405162461bcd60e51b815260040180806020018281038252602e815260200180614268602e913960400191505060405180910390fd5b600054610100900460ff16158015612281576000805460ff1961ff0019909116610100171660011790555b8151612295906101fa906020850190613766565b506122a663e8a3d48560e01b612ab0565b801561069a576000805461ff00191690555050565b600054610100900460ff16806122d457506122d4611d7d565b806122e2575060005460ff16155b61231d5760405162461bcd60e51b815260040180806020018281038252602e815260200180614268602e913960400191505060405180910390fd5b600054610100900460ff16158015612348576000805460ff1961ff0019909116610100171660011790555b825161235b90609c906020860190613766565b50815161236f90609d906020850190613766565b506123806380ac58cd60e01b612ab0565b612390635b5e139f60e01b612ab0565b6123a063780e9d6360e01b612ab0565b8015610617576000805461ff0019169055505050565b60006109ee8383612bcb565b60006123cd82610a7a565b90506123db81600084610617565b6123e6600083611432565b6000828152609e60205260409020546002600019610100600184161502019091160415612424576000828152609e60205260408120612424916137f2565b6001600160a01b03811660009081526097602052604090206124469083612a9e565b50612452609883612c2f565b5060405182906000906001600160a01b038416907fddf252ad1be2c89b69c2b068fc378daa952ba7f163c4a11628f55a4df523b3ef908390a45050565b600080808061249e8686612c3b565b9097909650945050505050565b60006124b8848484612cb6565b90505b9392505050565b6124cd848484611c31565b6124d984848484612d43565b610efe5760405162461bcd60e51b81526004018080602001828103825260328152602001806140ed6032913960400191505060405180910390fd5b60608161253957506040805180820190915260018152600360fc1b6020820152610444565b8160005b811561255157600101600a8204915061253d565b60008167ffffffffffffffff8111801561256a57600080fd5b506040519080825280601f01601f191660200182016040528015612595576020820181803683370190505b50859350905060001982015b83156125e657600a840660300160f81b828280600190039350815181106125c457fe5b60200101906001600160f81b031916908160001a905350600a840493506125a1565b50949350505050565b60008381526101c66020526040812054905b818110156108335760008581526101c66020526040902080546001600160a01b03861691908390811061263057fe5b6000918252602090912001546001600160a01b031614156126935760008581526101c66020526040902080548491908390811061266957fe5b600091825260209091200180546001600160a01b0319166001600160a01b03929092169190911790555b600101612601565b6001600160a01b038116600090815260c9602052604081205460ff16806109ee57506109ee8383611404565b60006109ee8383612eac565b5490565b8051602091820151604080517f397e04204c1e1a60ee8724b71f8244e10ab5f2e9009854d80f602bda21b59ebb818601526001600160a01b03909316838201526001600160601b039091166060808401919091528151808403909101815260809092019052805191012090565b600061274f83612ec4565b9050612763846001600160a01b0316612aaa565b156129195760408051630b135d3f60e11b808252600482018481526024830193845285516044840152855191936001600160a01b03891693631626ba7e938793899390929091606490910190602085019080838360005b838110156127d25781810151838201526020016127ba565b50505050905090810190601f1680156127ff5780820380516001836020036101000a031916815260200191505b50935050505060206040518083038186803b15801561281d57600080fd5b505afa158015612831573d6000803e3d6000fd5b505050506040513d602081101561284757600080fd5b505160408051808201909152601c81527f7369676e617475726520766572696669636174696f6e206572726f72000000006020820152916001600160e01b0319909116146129135760405162461bcd60e51b81526004018080602001828103825283818151815260200191508051906020019080838360005b838110156128d85781810151838201526020016128c0565b50505050905090810190601f1680156129055780820380516001836020036101000a031916815260200191505b509250505060405180910390fd5b50610efe565b6001600160a01b03841661292d8284612f10565b6001600160a01b0316146040518060400160405280601c81526020017f7369676e617475726520766572696669636174696f6e206572726f7200000000815250906108335760405162461bcd60e51b81526020600482018181528351602484015283519092839260449091019190850190808383600083156128d85781810151838201526020016128c0565b60006109ee8383612f90565b60006124b884846001600160a01b038516612fda565b7f3fa96d7b6bcbfe71ef171666d84db3cf52fa2d1c8afdb1cc8e486177f208b7df8282604051612a0c92919061405a565b60405180910390a15050565b6000828201838110156109ee576040805162461bcd60e51b815260206004820152601b60248201527f536166654d6174683a206164646974696f6e206f766572666c6f770000000000604482015290519081900360640190fd5b6001600160a01b038216600090815260c9602052604081205460ff16806109ee57506109ee8383613071565b60006109ee838361310d565b3b151590565b6001600160e01b03198082161415612b0f576040805162461bcd60e51b815260206004820152601c60248201527f4552433136353a20696e76616c696420696e7465726661636520696400000000604482015290519081900360640190fd5b6001600160e01b0319166000908152606560205260409020805460ff19166001179055565b600054610100900460ff1680612b4d5750612b4d611d7d565b80612b5b575060005460ff16155b612b965760405162461bcd60e51b815260040180806020018281038252602e815260200180614268602e913960400191505060405180910390fd5b600054610100900460ff16158015612bc1576000805460ff1961ff0019909116610100171660011790555b6123a083836131d3565b81546000908210612c0d5760405162461bcd60e51b81526004018080602001828103825260228152602001806140cb6022913960400191505060405180910390fd5b826000018281548110612c1c57fe5b9060005260206000200154905092915050565b60006109ee8383613295565b815460009081908310612c7f5760405162461bcd60e51b81526004018080602001828103825260228152602001806142b86022913960400191505060405180910390fd5b6000846000018481548110612c9057fe5b906000526020600020906002020190508060000154816001015492509250509250929050565b60008281526001840160205260408120548281612d145760405162461bcd60e51b81526020600482018181528351602484015283519092839260449091019190850190808383600083156128d85781810151838201526020016128c0565b50846000016001820381548110612d2757fe5b9060005260206000209060020201600101549150509392505050565b6000612d57846001600160a01b0316612aaa565b612d6357506001612ea4565b6000612e71630a85bd0160e11b612d78611400565b88878760405160240180856001600160a01b03168152602001846001600160a01b0316815260200183815260200180602001828103825283818151815260200191508051906020019080838360005b83811015612ddf578181015183820152602001612dc7565b50505050905090810190601f168015612e0c5780820380516001836020036101000a031916815260200191505b5095505050505050604051602081830303815290604052906001600160e01b0319166020820180516001600160e01b0383818316178352505050506040518060600160405280603281526020016140ed603291396001600160a01b0388169190613369565b90506000818060200190516020811015612e8a57600080fd5b50516001600160e01b031916630a85bd0160e11b14925050505b949350505050565b60009081526001919091016020526040902054151590565b6000612ece613378565b82604051602001808061190160f01b81525060020183815260200182815260200192505050604051602081830303815290604052805190602001209050919050565b60008151604114612f68576040805162461bcd60e51b815260206004820152601f60248201527f45434453413a20696e76616c6964207369676e6174757265206c656e67746800604482015290519081900360640190fd5b60208201516040830151606084015160001a612f86868285856133b3565b9695505050505050565b6000612f9c8383612eac565b612fd2575081546001818101845560008481526020808220909301849055845484825282860190935260409020919091556109f1565b5060006109f1565b60008281526001840160205260408120548061303f5750506040805180820182528381526020808201848152865460018181018955600089815284812095516002909302909501918255915190820155865486845281880190925292909120556124bb565b8285600001600183038154811061305257fe5b90600052602060002090600202016001018190555060009150506124bb565b600061307c826113f3565b6130b75760405162461bcd60e51b815260040180806020018281038252602c8152602001806141b1602c913960400191505060405180910390fd5b60006130c283610a7a565b9050806001600160a01b0316846001600160a01b031614806130fd5750836001600160a01b03166130f2846104df565b6001600160a01b0316145b80612ea45750612ea48185611404565b600081815260018301602052604081205480156131c9578354600019808301919081019060009087908390811061314057fe5b906000526020600020015490508087600001848154811061315d57fe5b60009182526020808320909101929092558281526001898101909252604090209084019055865487908061318d57fe5b600190038181906000526020600020016000905590558660010160008781526020019081526020016000206000905560019450505050506109f1565b60009150506109f1565b600054610100900460ff16806131ec57506131ec611d7d565b806131fa575060005460ff16155b6132355760405162461bcd60e51b815260040180806020018281038252602e815260200180614268602e913960400191505060405180910390fd5b600054610100900460ff16158015613260576000805460ff1961ff0019909116610100171660011790555b825160208085019190912083519184019190912061012e9190915561012f558015610617576000805461ff0019169055505050565b600081815260018301602052604081205480156131c957835460001980830191908101906000908790839081106132c857fe5b90600052602060002090600202019050808760000184815481106132e857fe5b60009182526020808320845460029093020191825560019384015491840191909155835482528983019052604090209084019055865487908061332757fe5b60008281526020808220600260001990940193840201828155600190810183905592909355888152898201909252604082209190915594506109f19350505050565b60606124b88484600085613531565b60006106aa7f8b73c3c69bb8fe3d512ecc4cf759cc79239f7b179b0ffacaa9a75d522b39400f6133a661368c565b6133ae613693565b61369a565b60007f7fffffffffffffffffffffffffffffff5d576e7357a4501ddfe92f46681b20a08211156134145760405162461bcd60e51b81526004018080602001828103825260228152602001806141696022913960400191505060405180910390fd5b8360ff16601b148061342957508360ff16601c145b6134645760405162461bcd60e51b81526004018080602001828103825260228152602001806142966022913960400191505060405180910390fd5b600060018686868660405160008152602001604052604051808581526020018460ff1681526020018381526020018281526020019450505050506020604051602081039080840390855afa1580156134c0573d6000803e3d6000fd5b5050604051601f1901519150506001600160a01b038116613528576040805162461bcd60e51b815260206004820152601860248201527f45434453413a20696e76616c6964207369676e61747572650000000000000000604482015290519081900360640190fd5b95945050505050565b6060824710156135725760405162461bcd60e51b815260040180806020018281038252602681526020018061418b6026913960400191505060405180910390fd5b61357b85612aaa565b6135cc576040805162461bcd60e51b815260206004820152601d60248201527f416464726573733a2063616c6c20746f206e6f6e2d636f6e7472616374000000604482015290519081900360640190fd5b600080866001600160a01b031685876040518082805190602001908083835b6020831061360a5780518252601f1990920191602091820191016135eb565b6001836020036101000a03801982511681845116808217855250505050505090500191505060006040518083038185875af1925050503d806000811461366c576040519150601f19603f3d011682016040523d82523d6000602084013e613671565b606091505b50915091506136818282866136fc565b979650505050505050565b61012e5490565b61012f5490565b60008383836136a7613762565b3060405160200180868152602001858152602001848152602001838152602001826001600160a01b03168152602001955050505050506040516020818303038152906040528051906020012090509392505050565b6060831561370b5750816124bb565b82511561371b5782518084602001fd5b60405162461bcd60e51b81526020600482018181528451602484015284518593919283926044019190850190808383600083156128d85781810151838201526020016128c0565b4690565b828054600181600116156101000203166002900490600052602060002090601f01602090048101928261379c57600085556137e2565b82601f106137b557805160ff19168380011785556137e2565b828001600101855582156137e2579182015b828111156137e25782518255916020019190600101906137c7565b506137ee929150613832565b5090565b50805460018160011615610100020316600290046000825580601f106138185750610a61565b601f016020900490600052602060002090810190610a6191905b5b808211156137ee5760008155600101613833565b600082601f830112613857578081fd5b8135602061386c61386783614097565b614073565b82815281810190858301855b858110156138a15761388f898684358b010161396a565b84529284019290840190600101613878565b5090979650505050505050565b600082601f8301126138be578081fd5b813560206138ce61386783614097565b828152818101908583016040808602880185018910156138ec578687fd5b865b8681101561395c5781838b031215613904578788fd5b815182810181811067ffffffffffffffff8211171561391f57fe5b8352833561392c816140b5565b8152838701356001600160601b038116811461394657898afd5b81880152855293850193918101916001016138ee565b509198975050505050505050565b600082601f83011261397a578081fd5b813567ffffffffffffffff81111561398e57fe5b6139a1601f8201601f1916602001614073565b8181528460208386010111156139b5578283fd5b816020850160208301379081016020019190915292915050565b600060a082840312156139e0578081fd5b6139ea60a0614073565b905081358152602082013567ffffffffffffffff80821115613a0b57600080fd5b613a178583860161396a565b60208401526040840135915080821115613a3057600080fd5b613a3c858386016138ae565b60408401526060840135915080821115613a5557600080fd5b613a61858386016138ae565b60608401526080840135915080821115613a7a57600080fd5b50613a8784828501613847565b60808301525092915050565b600060208284031215613aa4578081fd5b81356109ee816140b5565b60008060408385031215613ac1578081fd5b8235613acc816140b5565b91506020830135613adc816140b5565b809150509250929050565b600080600060608486031215613afb578081fd5b8335613b06816140b5565b92506020840135613b16816140b5565b929592945050506040919091013590565b60008060008060808587031215613b3c578081fd5b8435613b47816140b5565b93506020850135613b57816140b5565b925060408501359150606085013567ffffffffffffffff811115613b79578182fd5b613b858782880161396a565b91505092959194509250565b60008060408385031215613ba3578182fd5b8235613bae816140b5565b915060208301358015158114613adc578182fd5b60008060408385031215613bd4578182fd5b8235613bdf816140b5565b946020939093013593505050565b600060208284031215613bfe578081fd5b81356001600160e01b0319811681146109ee578182fd5b60008060008060808587031215613c2a578182fd5b843567ffffffffffffffff80821115613c41578384fd5b613c4d8883890161396a565b95506020870135915080821115613c62578384fd5b613c6e8883890161396a565b94506040870135915080821115613c83578384fd5b613c8f8883890161396a565b93506060870135915080821115613ca4578283fd5b50613b858782880161396a565b60008060408385031215613cc3578182fd5b823567ffffffffffffffff811115613cd9578283fd5b613ce5858286016139cf565b9250506020830135613adc816140b5565b600080600060608486031215613d0a578081fd5b833567ffffffffffffffff811115613d20578182fd5b613d2c868287016139cf565b9350506020840135613d3d816140b5565b91506040840135613d4d816140b5565b809150509250925092565b600060208284031215613d69578081fd5b5035919050565b600080600060608486031215613d84578081fd5b833592506020840135613d3d816140b5565b60008060408385031215613da8578182fd5b50508035926020909101359150565b6000815180845260208085019450808401835b83811015613e0357815180516001600160a01b031688528301516001600160601b03168388015260409096019590820190600101613dca565b509495945050505050565b60008151808452815b81811015613e3357602081850181015186830182015201613e17565b81811115613e445782602083870101525b50601f01601f19169290920160200192915050565b6001600160a01b0391909116815260200190565b6001600160a01b0384168152606060208201819052600090613e9190830185613e0e565b8281036040840152612f868185613e0e565b6001600160a01b039290921682526001600160601b0316602082015260400190565b6000602082526109ee6020830184613db7565b901515815260200190565b6000602082526109ee6020830184613e0e565b6020808252818101527f43726561746f722073686172652073686f756c6420626520706f736974697665604082015260600190565b6020808252601190820152701d1bdad95b9259081a5b98dbdc9c9958dd607a1b604082015260600190565b6020808252600b908201526a1b9bdd08185b1b1bddd95960aa1b604082015260600190565b60208082526019908201527f4163636f756e742073686f756c642062652070726573656e7400000000000000604082015260600190565b60208082526031908201527f4552433732313a207472616e736665722063616c6c6572206973206e6f74206f6040820152701ddb995c881b9bdc88185c1c1c9bdd9959607a1b606082015260800190565b6020808252602e908201527f746f74616c20616d6f756e74206f662063726561746f7273207368617265207360408201526d0686f756c642062652031303030360941b606082015260800190565b90815260200190565b6000838252604060208301526124b86040830184613db7565b60405181810167ffffffffffffffff8111828210171561408f57fe5b604052919050565b600067ffffffffffffffff8211156140ab57fe5b5060209081020190565b6001600160a01b0381168114610a6157600080fdfe456e756d657261626c655365743a20696e646578206f7574206f6620626f756e64734552433732313a207472616e7366657220746f206e6f6e20455243373231526563656976657220696d706c656d656e7465724f776e61626c653a206e6577206f776e657220697320746865207a65726f20616464726573734552433732313a207472616e7366657220746f20746865207a65726f206164647265737345434453413a20696e76616c6964207369676e6174757265202773272076616c7565416464726573733a20696e73756666696369656e742062616c616e636520666f722063616c6c4552433732313a206f70657261746f7220717565727920666f72206e6f6e6578697374656e7420746f6b656e4552433732313a20617070726f76652063616c6c6572206973206e6f74206f776e6572206e6f7220617070726f76656420666f7220616c6c4552433732313a2062616c616e636520717565727920666f7220746865207a65726f20616464726573734552433732313a206f776e657220717565727920666f72206e6f6e6578697374656e7420746f6b656e496e697469616c697a61626c653a20636f6e747261637420697320616c726561647920696e697469616c697a656445434453413a20696e76616c6964207369676e6174757265202776272076616c7565456e756d657261626c654d61703a20696e646578206f7574206f6620626f756e64734552433732313a20617070726f76656420717565727920666f72206e6f6e6578697374656e7420746f6b656e4552433732314d657461646174613a2055524920736574206f66206e6f6e6578697374656e7420746f6b656e4552433732313a207472616e73666572206f6620746f6b656e2074686174206973206e6f74206f776e4552433732314d657461646174613a2055524920717565727920666f72206e6f6e6578697374656e7420746f6b656e4552433732313a20617070726f76616c20746f2063757272656e74206f776e65724552433732313a207472616e736665722063616c6c6572206973206e6f74206f776e6572206e6f7220617070726f7665644552433732314275726e61626c653a2063616c6c6572206973206e6f74206f776e6572206e6f7220617070726f766564a2646970667358221220f6bc1984aba849a4ccb385a8d4adefb8c970902b08857ff518ad5c33711fe25064736f6c63430007060033",
  "immutableReferences": {},
  "source": "// SPDX-License-Identifier: MIT\n\npragma solidity >=0.6.2 <0.8.0;\npragma abicoder v2;\n\nimport \"./ERC721Base.sol\";\n\ncontract ERC721Rarible is ERC721Base {\n\n    event CreateERC721Rarible(address owner, string name, string symbol);\n\n    function __ERC721Rarible_init(string memory _name, string memory _symbol, string memory baseURI, string memory contractURI) external initializer {\n        _setBaseURI(baseURI);\n        __ERC721Lazy_init_unchained();\n        __RoyaltiesV2Upgradeable_init_unchained();\n        __Context_init_unchained();\n        __ERC165_init_unchained();\n        __Ownable_init_unchained();\n        __ERC721Burnable_init_unchained();\n        __Mint721Validator_init_unchained();\n        __HasContractURI_init_unchained(contractURI);\n        __ERC721_init_unchained(_name, _symbol);\n        emit CreateERC721Rarible(_msgSender(), _name, _symbol);\n    }\n    uint256[50] private __gap;\n}\n",
  "sourcePath": "/home/quadro/Projects/rarible/protocol-contracts/tokens/contracts/erc-721/ERC721Rarible.sol",
  "compiler": {
    "name": "solc",
    "version": "0.7.6+commit.7338295f.Emscripten.clang"
  },
  "schemaVersion": "3.4.0",
  "updatedAt": "2021-06-12T05:18:47.439Z",
  "networkType": "ethereum",
  "devdoc": {
    "kind": "dev",
    "methods": {
      "approve(address,uint256)": {
        "details": "See {IERC721-approve}."
      },
      "balanceOf(address)": {
        "details": "See {IERC721-balanceOf}."
      },
      "baseURI()": {
        "details": "Returns the base URI set via {_setBaseURI}. This will be automatically added as a prefix in {tokenURI} to each token's URI, or to the token ID if no specific URI is set for that token ID."
      },
      "burn(uint256)": {
        "details": "Burns `tokenId`. See {ERC721-_burn}. Requirements: - The caller must own `tokenId` or be an approved operator."
      },
      "getApproved(uint256)": {
        "details": "See {IERC721-getApproved}."
      },
      "name()": {
        "details": "See {IERC721Metadata-name}."
      },
      "owner()": {
        "details": "Returns the address of the current owner."
      },
      "ownerOf(uint256)": {
        "details": "See {IERC721-ownerOf}."
      },
      "renounceOwnership()": {
        "details": "Leaves the contract without owner. It will not be possible to call `onlyOwner` functions anymore. Can only be called by the current owner. NOTE: Renouncing ownership will leave the contract without an owner, thereby removing any functionality that is only available to the owner."
      },
      "safeTransferFrom(address,address,uint256)": {
        "details": "See {IERC721-safeTransferFrom}."
      },
      "safeTransferFrom(address,address,uint256,bytes)": {
        "details": "See {IERC721-safeTransferFrom}."
      },
      "setApprovalForAll(address,bool)": {
        "details": "See {IERC721-setApprovalForAll}."
      },
      "supportsInterface(bytes4)": {
        "details": "See {IERC165-supportsInterface}. Time complexity O(1), guaranteed to always use less than 30 000 gas."
      },
      "symbol()": {
        "details": "See {IERC721Metadata-symbol}."
      },
      "tokenByIndex(uint256)": {
        "details": "See {IERC721Enumerable-tokenByIndex}."
      },
      "tokenOfOwnerByIndex(address,uint256)": {
        "details": "See {IERC721Enumerable-tokenOfOwnerByIndex}."
      },
      "tokenURI(uint256)": {
        "details": "See {IERC721Metadata-tokenURI}."
      },
      "totalSupply()": {
        "details": "See {IERC721Enumerable-totalSupply}."
      },
      "transferFrom(address,address,uint256)": {
        "details": "See {IERC721-transferFrom}."
      },
      "transferOwnership(address)": {
        "details": "Transfers ownership of the contract to a new account (`newOwner`). Can only be called by the current owner."
      }
    },
    "version": 1
  },
  "userdoc": {
    "kind": "user",
    "methods": {},
    "version": 1
  }
}