{
  "contractName": "ERC721RaribleUser",
  "abi": [
    {
      "anonymous": false,
      "inputs": [
        {
          "indexed": true,
          "internalType": "address",
          "name": "owner",
          "type": "address"
        },
        {
          "indexed": true,
          "internalType": "address",
          "name": "approved",
          "type": "address"
        },
        {
          "indexed": true,
          "internalType": "uint256",
          "name": "tokenId",
          "type": "uint256"
        }
      ],
      "name": "Approval",
      "type": "event"
    },
    {
      "anonymous": false,
      "inputs": [
        {
          "indexed": true,
          "internalType": "address",
          "name": "owner",
          "type": "address"
        },
        {
          "indexed": true,
          "internalType": "address",
          "name": "operator",
          "type": "address"
        },
        {
          "indexed": false,
          "internalType": "bool",
          "name": "approved",
          "type": "bool"
        }
      ],
      "name": "ApprovalForAll",
      "type": "event"
    },
    {
      "anonymous": false,
      "inputs": [
        {
          "indexed": false,
          "internalType": "address",
          "name": "owner",
          "type": "address"
        },
        {
          "indexed": false,
          "internalType": "string",
          "name": "name",
          "type": "string"
        },
        {
          "indexed": false,
          "internalType": "string",
          "name": "symbol",
          "type": "string"
        }
      ],
      "name": "CreateERC721RaribleUser",
      "type": "event"
    },
    {
      "anonymous": false,
      "inputs": [
        {
          "indexed": false,
          "internalType": "uint256",
          "name": "tokenId",
          "type": "uint256"
        },
        {
          "indexed": false,
          "internalType": "string",
          "name": "uri",
          "type": "string"
        },
        {
          "components": [
            {
              "internalType": "address payable",
              "name": "account",
              "type": "address"
            },
            {
              "internalType": "uint96",
              "name": "value",
              "type": "uint96"
            }
          ],
          "indexed": false,
          "internalType": "struct LibPart.Part[]",
          "name": "creators",
          "type": "tuple[]"
        }
      ],
      "name": "Mint",
      "type": "event"
    },
    {
      "anonymous": false,
      "inputs": [
        {
          "indexed": true,
          "internalType": "address",
          "name": "previousOwner",
          "type": "address"
        },
        {
          "indexed": true,
          "internalType": "address",
          "name": "newOwner",
          "type": "address"
        }
      ],
      "name": "OwnershipTransferred",
      "type": "event"
    },
    {
      "anonymous": false,
      "inputs": [
        {
          "indexed": false,
          "internalType": "uint256",
          "name": "tokenId",
          "type": "uint256"
        },
        {
          "components": [
            {
              "internalType": "address payable",
              "name": "account",
              "type": "address"
            },
            {
              "internalType": "uint96",
              "name": "value",
              "type": "uint96"
            }
          ],
          "indexed": false,
          "internalType": "struct LibPart.Part[]",
          "name": "royalties",
          "type": "tuple[]"
        }
      ],
      "name": "RoyaltiesSet",
      "type": "event"
    },
    {
      "anonymous": false,
      "inputs": [
        {
          "indexed": true,
          "internalType": "address",
          "name": "from",
          "type": "address"
        },
        {
          "indexed": true,
          "internalType": "address",
          "name": "to",
          "type": "address"
        },
        {
          "indexed": true,
          "internalType": "uint256",
          "name": "tokenId",
          "type": "uint256"
        }
      ],
      "name": "Transfer",
      "type": "event"
    },
    {
      "inputs": [
        {
          "internalType": "address",
          "name": "to",
          "type": "address"
        },
        {
          "internalType": "uint256",
          "name": "tokenId",
          "type": "uint256"
        }
      ],
      "name": "approve",
      "outputs": [],
      "stateMutability": "nonpayable",
      "type": "function"
    },
    {
      "inputs": [
        {
          "internalType": "address",
          "name": "owner",
          "type": "address"
        }
      ],
      "name": "balanceOf",
      "outputs": [
        {
          "internalType": "uint256",
          "name": "",
          "type": "uint256"
        }
      ],
      "stateMutability": "view",
      "type": "function",
      "constant": true
    },
    {
      "inputs": [],
      "name": "baseURI",
      "outputs": [
        {
          "internalType": "string",
          "name": "",
          "type": "string"
        }
      ],
      "stateMutability": "view",
      "type": "function",
      "constant": true
    },
    {
      "inputs": [
        {
          "internalType": "uint256",
          "name": "tokenId",
          "type": "uint256"
        }
      ],
      "name": "burn",
      "outputs": [],
      "stateMutability": "nonpayable",
      "type": "function"
    },
    {
      "inputs": [],
      "name": "contractURI",
      "outputs": [
        {
          "internalType": "string",
          "name": "",
          "type": "string"
        }
      ],
      "stateMutability": "view",
      "type": "function",
      "constant": true
    },
    {
      "inputs": [
        {
          "internalType": "uint256",
          "name": "tokenId",
          "type": "uint256"
        }
      ],
      "name": "getApproved",
      "outputs": [
        {
          "internalType": "address",
          "name": "",
          "type": "address"
        }
      ],
      "stateMutability": "view",
      "type": "function",
      "constant": true
    },
    {
      "inputs": [
        {
          "internalType": "uint256",
          "name": "_id",
          "type": "uint256"
        }
      ],
      "name": "getCreators",
      "outputs": [
        {
          "components": [
            {
              "internalType": "address payable",
              "name": "account",
              "type": "address"
            },
            {
              "internalType": "uint96",
              "name": "value",
              "type": "uint96"
            }
          ],
          "internalType": "struct LibPart.Part[]",
          "name": "",
          "type": "tuple[]"
        }
      ],
      "stateMutability": "view",
      "type": "function",
      "constant": true
    },
    {
      "inputs": [
        {
          "internalType": "uint256",
          "name": "id",
          "type": "uint256"
        }
      ],
      "name": "getRoyalties",
      "outputs": [
        {
          "components": [
            {
              "internalType": "address payable",
              "name": "account",
              "type": "address"
            },
            {
              "internalType": "uint96",
              "name": "value",
              "type": "uint96"
            }
          ],
          "internalType": "struct LibPart.Part[]",
          "name": "",
          "type": "tuple[]"
        }
      ],
      "stateMutability": "view",
      "type": "function",
      "constant": true
    },
    {
      "inputs": [
        {
          "internalType": "address",
          "name": "owner",
          "type": "address"
        },
        {
          "internalType": "address",
          "name": "operator",
          "type": "address"
        }
      ],
      "name": "isApprovedForAll",
      "outputs": [
        {
          "internalType": "bool",
          "name": "",
          "type": "bool"
        }
      ],
      "stateMutability": "view",
      "type": "function",
      "constant": true
    },
    {
      "inputs": [],
      "name": "name",
      "outputs": [
        {
          "internalType": "string",
          "name": "",
          "type": "string"
        }
      ],
      "stateMutability": "view",
      "type": "function",
      "constant": true
    },
    {
      "inputs": [],
      "name": "owner",
      "outputs": [
        {
          "internalType": "address",
          "name": "",
          "type": "address"
        }
      ],
      "stateMutability": "view",
      "type": "function",
      "constant": true
    },
    {
      "inputs": [
        {
          "internalType": "uint256",
          "name": "tokenId",
          "type": "uint256"
        }
      ],
      "name": "ownerOf",
      "outputs": [
        {
          "internalType": "address",
          "name": "",
          "type": "address"
        }
      ],
      "stateMutability": "view",
      "type": "function",
      "constant": true
    },
    {
      "inputs": [],
      "name": "renounceOwnership",
      "outputs": [],
      "stateMutability": "nonpayable",
      "type": "function"
    },
    {
      "inputs": [
        {
          "internalType": "uint256",
          "name": "",
          "type": "uint256"
        },
        {
          "internalType": "uint256",
          "name": "",
          "type": "uint256"
        }
      ],
      "name": "royalties",
      "outputs": [
        {
          "internalType": "address payable",
          "name": "account",
          "type": "address"
        },
        {
          "internalType": "uint96",
          "name": "value",
          "type": "uint96"
        }
      ],
      "stateMutability": "view",
      "type": "function",
      "constant": true
    },
    {
      "inputs": [
        {
          "internalType": "address",
          "name": "from",
          "type": "address"
        },
        {
          "internalType": "address",
          "name": "to",
          "type": "address"
        },
        {
          "internalType": "uint256",
          "name": "tokenId",
          "type": "uint256"
        }
      ],
      "name": "safeTransferFrom",
      "outputs": [],
      "stateMutability": "nonpayable",
      "type": "function"
    },
    {
      "inputs": [
        {
          "internalType": "address",
          "name": "from",
          "type": "address"
        },
        {
          "internalType": "address",
          "name": "to",
          "type": "address"
        },
        {
          "internalType": "uint256",
          "name": "tokenId",
          "type": "uint256"
        },
        {
          "internalType": "bytes",
          "name": "_data",
          "type": "bytes"
        }
      ],
      "name": "safeTransferFrom",
      "outputs": [],
      "stateMutability": "nonpayable",
      "type": "function"
    },
    {
      "inputs": [
        {
          "internalType": "address",
          "name": "operator",
          "type": "address"
        },
        {
          "internalType": "bool",
          "name": "approved",
          "type": "bool"
        }
      ],
      "name": "setApprovalForAll",
      "outputs": [],
      "stateMutability": "nonpayable",
      "type": "function"
    },
    {
      "inputs": [
        {
          "internalType": "bytes4",
          "name": "interfaceId",
          "type": "bytes4"
        }
      ],
      "name": "supportsInterface",
      "outputs": [
        {
          "internalType": "bool",
          "name": "",
          "type": "bool"
        }
      ],
      "stateMutability": "view",
      "type": "function",
      "constant": true
    },
    {
      "inputs": [],
      "name": "symbol",
      "outputs": [
        {
          "internalType": "string",
          "name": "",
          "type": "string"
        }
      ],
      "stateMutability": "view",
      "type": "function",
      "constant": true
    },
    {
      "inputs": [
        {
          "internalType": "uint256",
          "name": "index",
          "type": "uint256"
        }
      ],
      "name": "tokenByIndex",
      "outputs": [
        {
          "internalType": "uint256",
          "name": "",
          "type": "uint256"
        }
      ],
      "stateMutability": "view",
      "type": "function",
      "constant": true
    },
    {
      "inputs": [
        {
          "internalType": "address",
          "name": "owner",
          "type": "address"
        },
        {
          "internalType": "uint256",
          "name": "index",
          "type": "uint256"
        }
      ],
      "name": "tokenOfOwnerByIndex",
      "outputs": [
        {
          "internalType": "uint256",
          "name": "",
          "type": "uint256"
        }
      ],
      "stateMutability": "view",
      "type": "function",
      "constant": true
    },
    {
      "inputs": [
        {
          "internalType": "uint256",
          "name": "tokenId",
          "type": "uint256"
        }
      ],
      "name": "tokenURI",
      "outputs": [
        {
          "internalType": "string",
          "name": "",
          "type": "string"
        }
      ],
      "stateMutability": "view",
      "type": "function",
      "constant": true
    },
    {
      "inputs": [],
      "name": "totalSupply",
      "outputs": [
        {
          "internalType": "uint256",
          "name": "",
          "type": "uint256"
        }
      ],
      "stateMutability": "view",
      "type": "function",
      "constant": true
    },
    {
      "inputs": [
        {
          "internalType": "address",
          "name": "from",
          "type": "address"
        },
        {
          "internalType": "address",
          "name": "to",
          "type": "address"
        },
        {
          "internalType": "uint256",
          "name": "tokenId",
          "type": "uint256"
        }
      ],
      "name": "transferFrom",
      "outputs": [],
      "stateMutability": "nonpayable",
      "type": "function"
    },
    {
      "inputs": [
        {
          "components": [
            {
              "internalType": "uint256",
              "name": "tokenId",
              "type": "uint256"
            },
            {
              "internalType": "string",
              "name": "uri",
              "type": "string"
            },
            {
              "components": [
                {
                  "internalType": "address payable",
                  "name": "account",
                  "type": "address"
                },
                {
                  "internalType": "uint96",
                  "name": "value",
                  "type": "uint96"
                }
              ],
              "internalType": "struct LibPart.Part[]",
              "name": "creators",
              "type": "tuple[]"
            },
            {
              "components": [
                {
                  "internalType": "address payable",
                  "name": "account",
                  "type": "address"
                },
                {
                  "internalType": "uint96",
                  "name": "value",
                  "type": "uint96"
                }
              ],
              "internalType": "struct LibPart.Part[]",
              "name": "royalties",
              "type": "tuple[]"
            },
            {
              "internalType": "bytes[]",
              "name": "signatures",
              "type": "bytes[]"
            }
          ],
          "internalType": "struct LibERC721LazyMint.Mint721Data",
          "name": "data",
          "type": "tuple"
        },
        {
          "internalType": "address",
          "name": "from",
          "type": "address"
        },
        {
          "internalType": "address",
          "name": "to",
          "type": "address"
        }
      ],
      "name": "transferFromOrMint",
      "outputs": [],
      "stateMutability": "nonpayable",
      "type": "function"
    },
    {
      "inputs": [
        {
          "internalType": "address",
          "name": "newOwner",
          "type": "address"
        }
      ],
      "name": "transferOwnership",
      "outputs": [],
      "stateMutability": "nonpayable",
      "type": "function"
    },
    {
      "inputs": [
        {
          "internalType": "uint256",
          "name": "_id",
          "type": "uint256"
        },
        {
          "internalType": "address",
          "name": "_from",
          "type": "address"
        },
        {
          "internalType": "address",
          "name": "_to",
          "type": "address"
        }
      ],
      "name": "updateAccount",
      "outputs": [],
      "stateMutability": "nonpayable",
      "type": "function"
    },
    {
      "inputs": [
        {
          "internalType": "string",
          "name": "_name",
          "type": "string"
        },
        {
          "internalType": "string",
          "name": "_symbol",
          "type": "string"
        },
        {
          "internalType": "string",
          "name": "baseURI",
          "type": "string"
        },
        {
          "internalType": "string",
          "name": "contractURI",
          "type": "string"
        },
        {
          "internalType": "address",
          "name": "operator",
          "type": "address"
        }
      ],
      "name": "__ERC721RaribleUser_init",
      "outputs": [],
      "stateMutability": "nonpayable",
      "type": "function"
    },
    {
      "inputs": [
        {
          "components": [
            {
              "internalType": "uint256",
              "name": "tokenId",
              "type": "uint256"
            },
            {
              "internalType": "string",
              "name": "uri",
              "type": "string"
            },
            {
              "components": [
                {
                  "internalType": "address payable",
                  "name": "account",
                  "type": "address"
                },
                {
                  "internalType": "uint96",
                  "name": "value",
                  "type": "uint96"
                }
              ],
              "internalType": "struct LibPart.Part[]",
              "name": "creators",
              "type": "tuple[]"
            },
            {
              "components": [
                {
                  "internalType": "address payable",
                  "name": "account",
                  "type": "address"
                },
                {
                  "internalType": "uint96",
                  "name": "value",
                  "type": "uint96"
                }
              ],
              "internalType": "struct LibPart.Part[]",
              "name": "royalties",
              "type": "tuple[]"
            },
            {
              "internalType": "bytes[]",
              "name": "signatures",
              "type": "bytes[]"
            }
          ],
          "internalType": "struct LibERC721LazyMint.Mint721Data",
          "name": "data",
          "type": "tuple"
        },
        {
          "internalType": "address",
          "name": "to",
          "type": "address"
        }
      ],
      "name": "mintAndTransfer",
      "outputs": [],
      "stateMutability": "nonpayable",
      "type": "function"
    }
  ],
  "bytecode": "0x608060405234801561001057600080fd5b50614233806100206000396000f3fe608060405234801561001057600080fd5b50600436106101cf5760003560e01c806370a0823111610104578063a22cb465116100a2578063e07f231911610071578063e07f2319146103c7578063e8a3d485146103da578063e985e9c5146103e2578063f2fde38b146103f5576101cf565b8063a22cb4651461037b578063b88d4fde1461038e578063bb3bafd6146103a1578063c87b56dd146103b4576101cf565b8063891be974116100de578063891be9741461032a5780638924af741461034a5780638da5cb5b1461036b57806395d89b4114610373576101cf565b806370a08231146102fc578063715018a61461030f578063832fbb2914610317576101cf565b80632f745c59116101715780634f6ccce71161014b5780634f6ccce7146102bb5780636352211e146102ce5780636c0360eb146102e15780636fad9deb146102e9576101cf565b80632f745c591461028257806342842e0e1461029557806342966c68146102a8576101cf565b8063095ea7b3116101ad578063095ea7b31461023257806318160ddd1461024757806322a775b61461025c57806323b872dd1461026f576101cf565b806301ffc9a7146101d457806306fdde03146101fd578063081812fc14610212575b600080fd5b6101e76101e23660046139ce565b610408565b6040516101f49190613cda565b60405180910390f35b61020561042b565b6040516101f49190613ce5565b610225610220366004613b5a565b6104c1565b6040516101f49190613c5b565b6102456102403660046139a3565b610523565b005b61024f6105f9565b6040516101f49190613dd0565b61024561026a366004613ab3565b61060a565b61024561027d3660046138c8565b610675565b61024f6102903660046139a3565b6106cc565b6102456102a33660046138c8565b6106f7565b6102456102b6366004613b5a565b610712565b61024f6102c9366004613b5a565b610764565b6102256102dc366004613b5a565b61077a565b6102056107a2565b6102456102f73660046139f6565b610803565b61024f61030a366004613874565b61095a565b6102456109c2565b610245610325366004613af8565b610a80565b61033d610338366004613b5a565b610aae565b6040516101f49190613cc7565b61035d610358366004613b98565b610b3e565b6040516101f4929190613ca5565b610225610b88565b610205610b97565b610245610389366004613972565b610bf8565b61024561039c366004613908565b610cfd565b61033d6103af366004613b5a565b610d5b565b6102056103c2366004613b5a565b610dd6565b6102456103d5366004613b72565b611057565b61020561109a565b6101e76103f0366004613890565b611129565b610245610403366004613874565b611157565b6001600160e01b0319811660009081526065602052604090205460ff165b919050565b609c8054604080516020601f60026000196101006001881615020190951694909404938401819004810282018101909252828152606093909290918301828280156104b75780601f1061048c576101008083540402835291602001916104b7565b820191906000526020600020905b81548152906001019060200180831161049a57829003601f168201915b5050505050905090565b60006104cc8261126c565b6105075760405162461bcd60e51b815260040180806020018281038252602c8152602001806140cc602c913960400191505060405180910390fd5b506000908152609a60205260409020546001600160a01b031690565b600061052e8261077a565b9050806001600160a01b0316836001600160a01b031614156105815760405162461bcd60e51b815260040180806020018281038252602181526020018061417c6021913960400191505060405180910390fd5b806001600160a01b0316610593611279565b6001600160a01b031614806105af57506105af816103f0611279565b6105ea5760405162461bcd60e51b8152600401808060200182810382526038815260200180613fcf6038913960400191505060405180910390fd5b6105f4838361127d565b505050565b600061060560986112eb565b905090565b816040015160008151811061061b57fe5b6020026020010151600001516001600160a01b0316610638610b88565b6001600160a01b0316146106675760405162461bcd60e51b815260040161065e90613cf8565b60405180910390fd5b61067182826112f6565b5050565b610686610680611279565b82611511565b6106c15760405162461bcd60e51b815260040180806020018281038252603181526020018061419d6031913960400191505060405180910390fd5b6105f48383836115b5565b6001600160a01b03821660009081526097602052604081206106ee9083611701565b90505b92915050565b6105f483838360405180602001604052806000815250610cfd565b61071d610680611279565b6107585760405162461bcd60e51b81526004018080602001828103825260308152602001806141ce6030913960400191505060405180910390fd5b6107618161170d565b50565b6000806107726098846117da565b509392505050565b60006106f18260405180606001604052806029815260200161403160299139609891906117f6565b609f8054604080516020601f60026000196101006001881615020190951694909404938401819004810282018101909252828152606093909290918301828280156104b75780601f1061048c576101008083540402835291602001916104b7565b600054610100900460ff168061081c575061081c61180d565b8061082a575060005460ff16155b6108655760405162461bcd60e51b815260040180806020018281038252602e81526020018061405a602e913960400191505060405180910390fd5b600054610100900460ff16158015610890576000805460ff1961ff0019909116610100171660011790555b6108998461181e565b6108a1611831565b6108a96118e2565b6108b1611982565b6108b9611a1f565b6108c16118e2565b6108c9611b18565b6108d283611be7565b6108da611cae565b6108e48686611d4b565b6001600160a01b038216156108fe576108fe826001610bf8565b7fd901a467fa419f379a67636a1de44cc2ed772beb43a0c05fa1ddcad5d59e9913610927611279565b878760405161093893929190613c6f565b60405180910390a18015610952576000805461ff00191690555b505050505050565b60006001600160a01b0382166109a15760405162461bcd60e51b815260040180806020018281038252602a815260200180614007602a913960400191505060405180910390fd5b6001600160a01b03821660009081526097602052604090206106f1906112eb565b6109ca611279565b6001600160a01b03166109db610b88565b6001600160a01b031614610a36576040805162461bcd60e51b815260206004820181905260248201527f4f776e61626c653a2063616c6c6572206973206e6f7420746865206f776e6572604482015290519081900360640190fd5b6033546040516000916001600160a01b0316907f8be0079c531659141344cd1fd0a4f28419497f9722a3daafe3b4186f6b6457e0908390a3603380546001600160a01b0319169055565b8251610a8b9061126c565b15610aa457610a9f828285600001516106f7565b6105f4565b6105f4838261060a565b60606101946000838152602001908152602001600020805480602002602001604051908101604052809291908181526020016000905b82821015610b3357600084815260209081902060408051808201909152908401546001600160a01b0381168252600160a01b90046001600160601b031681830152825260019092019101610ae4565b505050509050919050565b6101936020528160005260406000208181548110610b5b57600080fd5b6000918252602090912001546001600160a01b0381169250600160a01b90046001600160601b0316905082565b6033546001600160a01b031690565b609d8054604080516020601f60026000196101006001881615020190951694909404938401819004810282018101909252828152606093909290918301828280156104b75780601f1061048c576101008083540402835291602001916104b7565b610c00611279565b6001600160a01b0316826001600160a01b03161415610c66576040805162461bcd60e51b815260206004820152601960248201527f4552433732313a20617070726f766520746f2063616c6c657200000000000000604482015290519081900360640190fd5b80609b6000610c73611279565b6001600160a01b03908116825260208083019390935260409182016000908120918716808252919093529120805460ff191692151592909217909155610cb7611279565b6001600160a01b03167f17307eab39ab6107e8899845ad3d59bd9653f200f220920489ca2b5937696c318360405180821515815260200191505060405180910390a35050565b610d0e610d08611279565b83611511565b610d495760405162461bcd60e51b815260040180806020018281038252603181526020018061419d6031913960400191505060405180910390fd5b610d5584848484611e46565b50505050565b600081815261019360209081526040808320805482518185028101850190935280835260609492939192909184018215610b3357600084815260209081902060408051808201909152908401546001600160a01b0381168252600160a01b90046001600160601b031681830152825260019092019101610ae4565b6060610de18261126c565b610e1c5760405162461bcd60e51b815260040180806020018281038252602f81526020018061414d602f913960400191505060405180910390fd5b6000828152609e602090815260408083208054825160026001831615610100026000190190921691909104601f810185900485028201850190935282815292909190830182828015610eaf5780601f10610e8457610100808354040283529160200191610eaf565b820191906000526020600020905b815481529060010190602001808311610e9257829003601f168201915b505050505090506000610ec06107a2565b9050805160001415610ed457509050610426565b815115610f955780826040516020018083805190602001908083835b60208310610f0f5780518252601f199092019160209182019101610ef0565b51815160209384036101000a600019018019909216911617905285519190930192850191508083835b60208310610f575780518252601f199092019160209182019101610f38565b6001836020036101000a0380198251168184511680821785525050505050509050019250505060405160208183030381529060405292505050610426565b80610f9f85611e98565b6040516020018083805190602001908083835b60208310610fd15780518252601f199092019160209182019101610fb2565b51815160209384036101000a600019018019909216911617905285519190930192850191508083835b602083106110195780518252601f199092019160209182019101610ffa565b6001836020036101000a0380198251168184511680821785525050505050509050019250505060405160208183030381529060405292505050919050565b816001600160a01b0316611069611279565b6001600160a01b03161461108f5760405162461bcd60e51b815260040161065e90613d5a565b6105f4838383611f73565b6101c7805460408051602060026001851615610100026000190190941693909304601f810184900484028201840190925281815292918301828280156111215780601f106110f657610100808354040283529160200191611121565b820191906000526020600020905b81548152906001019060200180831161110457829003601f168201915b505050505081565b6001600160a01b039182166000908152609b6020908152604080832093909416825291909152205460ff1690565b61115f611279565b6001600160a01b0316611170610b88565b6001600160a01b0316146111cb576040805162461bcd60e51b815260206004820181905260248201527f4f776e61626c653a2063616c6c6572206973206e6f7420746865206f776e6572604482015290519081900360640190fd5b6001600160a01b0381166112105760405162461bcd60e51b8152600401808060200182810382526026815260200180613f116026913960400191505060405180910390fd5b6033546040516001600160a01b038084169216907f8be0079c531659141344cd1fd0a4f28419497f9722a3daafe3b4186f6b6457e090600090a3603380546001600160a01b0319166001600160a01b0392909216919091179055565b60006106f1609883612026565b3390565b6000818152609a6020526040902080546001600160a01b0319166001600160a01b03841690811790915581906112b28261077a565b6001600160a01b03167f8c5be1e5ebec7d5bd14f71427d1e84f3dd0314c0f7b2291e5b200ac8c7c3b92560405160405180910390a45050565b60006106f182612032565b815160601c6000611305611279565b9050836040015160008151811061131857fe5b6020026020010151600001516001600160a01b0316826001600160a01b0316146113545760405162461bcd60e51b815260040161065e90613d2f565b8360800151518460400151511461136a57600080fd5b806001600160a01b0316826001600160a01b0316148061138f575061138f8282611129565b6113ab5760405162461bcd60e51b815260040161065e90613d7f565b60005b846040015151811015611407576000856040015182815181106113cd57fe5b6020026020010151600001519050826001600160a01b0316816001600160a01b0316146113fe576113fe8683612036565b506001016113ae565b5061141683856000015161207b565b611428846000015185602001516121a9565b61143a8460000151856060015161220c565b8351600090815261019460205260408120905b8560400151518110156114c857818660400151828151811061146b57fe5b60209081029190910181015182546001818101855560009485529383902082519101805492909301516001600160601b0316600160a01b026001600160a01b039182166001600160a01b031990931692909217161790550161144d565b50845160208601516040517fcb10f3b697f9095d6743bc3598a9bb59bf489e1bc755aa78ab0483fae5776db0926115029290918590613df2565b60405180910390a15050505050565b600061151c8261126c565b6115575760405162461bcd60e51b815260040180806020018281038252602c815260200180613fa3602c913960400191505060405180910390fd5b60006115628361077a565b9050806001600160a01b0316846001600160a01b0316148061159d5750836001600160a01b0316611592846104c1565b6001600160a01b0316145b806115ad57506115ad8185611129565b949350505050565b826001600160a01b03166115c88261077a565b6001600160a01b03161461160d5760405162461bcd60e51b81526004018080602001828103825260298152602001806141246029913960400191505060405180910390fd5b6001600160a01b0382166116525760405162461bcd60e51b8152600401808060200182810382526024815260200180613f376024913960400191505060405180910390fd5b61165d8383836105f4565b61166860008261127d565b6001600160a01b038316600090815260976020526040902061168a9082612392565b506001600160a01b03821660009081526097602052604090206116ad908261239e565b506116ba609882846123aa565b5080826001600160a01b0316846001600160a01b03167fddf252ad1be2c89b69c2b068fc378daa952ba7f163c4a11628f55a4df523b3ef60405160405180910390a4505050565b60006106ee83836123c0565b60006117188261077a565b9050611726816000846105f4565b61173160008361127d565b6000828152609e6020526040902054600260001961010060018416150201909116041561176f576000828152609e6020526040812061176f91613543565b6001600160a01b03811660009081526097602052604090206117919083612392565b5061179d609883612424565b5060405182906000906001600160a01b038416907fddf252ad1be2c89b69c2b068fc378daa952ba7f163c4a11628f55a4df523b3ef908390a45050565b60008080806117e98686612430565b9097909650945050505050565b60006118038484846124ab565b90505b9392505050565b600061181830612575565b15905090565b805161067190609f906020840190613587565b600054610100900460ff168061184a575061184a61180d565b80611858575060005460ff16155b6118935760405162461bcd60e51b815260040180806020018281038252602e81526020018061405a602e913960400191505060405180910390fd5b600054610100900460ff161580156118be576000805460ff1961ff0019909116610100171660011790555b6118ce638486f69f60e01b61257b565b8015610761576000805461ff001916905550565b600054610100900460ff16806118fb57506118fb61180d565b80611909575060005460ff16155b6119445760405162461bcd60e51b815260040180806020018281038252602e81526020018061405a602e913960400191505060405180910390fd5b600054610100900460ff161580156118ce576000805460ff1961ff0019909116610100171660011790558015610761576000805461ff001916905550565b600054610100900460ff168061199b575061199b61180d565b806119a9575060005460ff16155b6119e45760405162461bcd60e51b815260040180806020018281038252602e81526020018061405a602e913960400191505060405180910390fd5b600054610100900460ff16158015611a0f576000805460ff1961ff0019909116610100171660011790555b6118ce6301ffc9a760e01b61257b565b600054610100900460ff1680611a385750611a3861180d565b80611a46575060005460ff16155b611a815760405162461bcd60e51b815260040180806020018281038252602e81526020018061405a602e913960400191505060405180910390fd5b600054610100900460ff16158015611aac576000805460ff1961ff0019909116610100171660011790555b6000611ab6611279565b603380546001600160a01b0319166001600160a01b038316908117909155604051919250906000907f8be0079c531659141344cd1fd0a4f28419497f9722a3daafe3b4186f6b6457e0908290a3508015610761576000805461ff001916905550565b600054610100900460ff1680611b315750611b3161180d565b80611b3f575060005460ff16155b611b7a5760405162461bcd60e51b815260040180806020018281038252602e81526020018061405a602e913960400191505060405180910390fd5b600054610100900460ff16158015611ba5576000805460ff1961ff0019909116610100171660011790555b6118ce604051806040016040528060078152602001664d696e7437323160c81b815250604051806040016040528060018152602001603160f81b8152506125ff565b600054610100900460ff1680611c005750611c0061180d565b80611c0e575060005460ff16155b611c495760405162461bcd60e51b815260040180806020018281038252602e81526020018061405a602e913960400191505060405180910390fd5b600054610100900460ff16158015611c74576000805460ff1961ff0019909116610100171660011790555b8151611c88906101c7906020850190613587565b50611c9963e8a3d48560e01b61257b565b8015610671576000805461ff00191690555050565b600054610100900460ff1680611cc75750611cc761180d565b80611cd5575060005460ff16155b611d105760405162461bcd60e51b815260040180806020018281038252602e81526020018061405a602e913960400191505060405180910390fd5b600054610100900460ff16158015611d3b576000805460ff1961ff0019909116610100171660011790555b6118ce631131d2f360e21b61257b565b600054610100900460ff1680611d645750611d6461180d565b80611d72575060005460ff16155b611dad5760405162461bcd60e51b815260040180806020018281038252602e81526020018061405a602e913960400191505060405180910390fd5b600054610100900460ff16158015611dd8576000805460ff1961ff0019909116610100171660011790555b8251611deb90609c906020860190613587565b508151611dff90609d906020850190613587565b50611e106380ac58cd60e01b61257b565b611e20635b5e139f60e01b61257b565b611e3063780e9d6360e01b61257b565b80156105f4576000805461ff0019169055505050565b611e518484846115b5565b611e5d84848484612696565b610d555760405162461bcd60e51b8152600401808060200182810382526032815260200180613edf6032913960400191505060405180910390fd5b606081611ebd57506040805180820190915260018152600360fc1b6020820152610426565b8160005b8115611ed557600101600a82049150611ec1565b60008167ffffffffffffffff81118015611eee57600080fd5b506040519080825280601f01601f191660200182016040528015611f19576020820181803683370190505b50859350905060001982015b8315611f6a57600a840660300160f81b82828060019003935081518110611f4857fe5b60200101906001600160f81b031916908160001a905350600a84049350611f25565b50949350505050565b60008381526101936020526040812054905b8181101561201f5760008581526101936020526040902080546001600160a01b038616919083908110611fb457fe5b6000918252602090912001546001600160a01b0316141561201757600085815261019360205260409020805484919083908110611fed57fe5b600091825260209091200180546001600160a01b0319166001600160a01b03929092169190911790555b600101611f85565b5050505050565b60006106ee83836127fe565b5490565b6106718260400151828151811061204957fe5b60200260200101516000015161205e84612816565b8460800151848151811061206e57fe5b6020026020010151612a5f565b6001600160a01b0382166120d6576040805162461bcd60e51b815260206004820181905260248201527f4552433732313a206d696e7420746f20746865207a65726f2061646472657373604482015290519081900360640190fd5b6120df8161126c565b15612131576040805162461bcd60e51b815260206004820152601c60248201527f4552433732313a20746f6b656e20616c7265616479206d696e74656400000000604482015290519081900360640190fd5b61213d600083836105f4565b6001600160a01b038216600090815260976020526040902061215f908261239e565b5061216c609882846123aa565b5060405181906001600160a01b038416906000907fddf252ad1be2c89b69c2b068fc378daa952ba7f163c4a11628f55a4df523b3ef908290a45050565b6121b28261126c565b6121ed5760405162461bcd60e51b815260040180806020018281038252602c8152602001806140f8602c913960400191505060405180910390fd5b6000828152609e6020908152604090912082516105f492840190613587565b60005b81518110156123875760006001600160a01b031682828151811061222f57fe5b6020026020010151600001516001600160a01b03161415612297576040805162461bcd60e51b815260206004820152601b60248201527f526563697069656e742073686f756c642062652070726573656e740000000000604482015290519081900360640190fd5b8181815181106122a357fe5b6020026020010151602001516001600160601b03166000141561230d576040805162461bcd60e51b815260206004820181905260248201527f526f79616c74792076616c75652073686f756c6420626520706f736974697665604482015290519081900360640190fd5b600083815261019360205260409020825183908390811061232a57fe5b60209081029190910181015182546001818101855560009485529383902082519101805492909301516001600160601b0316600160a01b026001600160a01b039182166001600160a01b031990931692909217161790550161220f565b506106718282612c97565b60006106ee8383612cd4565b60006106ee8383612d9a565b600061180384846001600160a01b038516612de4565b815460009082106124025760405162461bcd60e51b8152600401808060200182810382526022815260200180613ebd6022913960400191505060405180910390fd5b82600001828154811061241157fe5b9060005260206000200154905092915050565b60006106ee8383612e7b565b8154600090819083106124745760405162461bcd60e51b81526004018080602001828103825260228152602001806140aa6022913960400191505060405180910390fd5b600084600001848154811061248557fe5b906000526020600020906002020190508060000154816001015492509250509250929050565b600082815260018401602052604081205482816125465760405162461bcd60e51b81526004018080602001828103825283818151815260200191508051906020019080838360005b8381101561250b5781810151838201526020016124f3565b50505050905090810190601f1680156125385780820380516001836020036101000a031916815260200191505b509250505060405180910390fd5b5084600001600182038154811061255957fe5b9060005260206000209060020201600101549150509392505050565b3b151590565b6001600160e01b031980821614156125da576040805162461bcd60e51b815260206004820152601c60248201527f4552433136353a20696e76616c696420696e7465726661636520696400000000604482015290519081900360640190fd5b6001600160e01b0319166000908152606560205260409020805460ff19166001179055565b600054610100900460ff1680612618575061261861180d565b80612626575060005460ff16155b6126615760405162461bcd60e51b815260040180806020018281038252602e81526020018061405a602e913960400191505060405180910390fd5b600054610100900460ff1615801561268c576000805460ff1961ff0019909116610100171660011790555b611e308383612f4f565b60006126aa846001600160a01b0316612575565b6126b6575060016115ad565b60006127c4630a85bd0160e11b6126cb611279565b88878760405160240180856001600160a01b03168152602001846001600160a01b0316815260200183815260200180602001828103825283818151815260200191508051906020019080838360005b8381101561273257818101518382015260200161271a565b50505050905090810190601f16801561275f5780820380516001836020036101000a031916815260200191505b5095505050505050604051602081830303815290604052906001600160e01b0319166020820180516001600160e01b038381831617835250505050604051806060016040528060328152602001613edf603291396001600160a01b038816919061300f565b905060008180602001905160208110156127dd57600080fd5b50516001600160e01b031916630a85bd0160e11b1492505050949350505050565b60009081526001919091016020526040902054151590565b60008082606001515167ffffffffffffffff8111801561283557600080fd5b5060405190808252806020026020018201604052801561285f578160200160208202803683370190505b50905060005b8360600151518110156128b1576128928460600151828151811061288557fe5b602002602001015161301e565b82828151811061289e57fe5b6020908102919091010152600101612865565b50600083604001515167ffffffffffffffff811180156128d057600080fd5b506040519080825280602002602001820160405280156128fa578160200160208202803683370190505b50905060005b84604001515181101561293f576129208560400151828151811061288557fe5b82828151811061292c57fe5b6020908102919091010152600101612900565b507ff64326045af5fd7e15297ba939f85b550474d3899daa47d2bc1ffbdb9ced344e84600001518560200151805190602001208360405160200180828051906020019060200280838360005b838110156129a357818101518382015260200161298b565b50505050905001915050604051602081830303815290604052805190602001208560405160200180828051906020019060200280838360005b838110156129f45781810151838201526020016129dc565b505050509050019150506040516020818303038152906040528051906020012060405160200180868152602001858152602001848152602001838152602001828152602001955050505050506040516020818303038152906040528051906020012092505050919050565b6000612a6a8361308b565b9050612a7e846001600160a01b0316612575565b15612bf75760408051630b135d3f60e11b808252600482018481526024830193845285516044840152855191936001600160a01b03891693631626ba7e938793899390929091606490910190602085019080838360005b83811015612aed578181015183820152602001612ad5565b50505050905090810190601f168015612b1a5780820380516001836020036101000a031916815260200191505b50935050505060206040518083038186803b158015612b3857600080fd5b505afa158015612b4c573d6000803e3d6000fd5b505050506040513d6020811015612b6257600080fd5b505160408051808201909152601c81527f7369676e617475726520766572696669636174696f6e206572726f72000000006020820152916001600160e01b031990911614612bf15760405162461bcd60e51b815260206004820181815283516024840152835190928392604490910191908501908083836000831561250b5781810151838201526020016124f3565b50610d55565b6001600160a01b038416612c0b82846130d7565b6001600160a01b0316146040518060400160405280601c81526020017f7369676e617475726520766572696669636174696f6e206572726f72000000008152509061201f5760405162461bcd60e51b815260206004820181815283516024840152835190928392604490910191908501908083836000831561250b5781810151838201526020016124f3565b7f3fa96d7b6bcbfe71ef171666d84db3cf52fa2d1c8afdb1cc8e486177f208b7df8282604051612cc8929190613dd9565b60405180910390a15050565b60008181526001830160205260408120548015612d905783546000198083019190810190600090879083908110612d0757fe5b9060005260206000200154905080876000018481548110612d2457fe5b600091825260208083209091019290925582815260018981019092526040902090840190558654879080612d5457fe5b600190038181906000526020600020016000905590558660010160008781526020019081526020016000206000905560019450505050506106f1565b60009150506106f1565b6000612da683836127fe565b612ddc575081546001818101845560008481526020808220909301849055845484825282860190935260409020919091556106f1565b5060006106f1565b600082815260018401602052604081205480612e49575050604080518082018252838152602080820184815286546001818101895560008981528481209551600290930290950191825591519082015586548684528188019092529290912055611806565b82856000016001830381548110612e5c57fe5b9060005260206000209060020201600101819055506000915050611806565b60008181526001830160205260408120548015612d905783546000198083019190810190600090879083908110612eae57fe5b9060005260206000209060020201905080876000018481548110612ece57fe5b600091825260208083208454600290930201918255600193840154918401919091558354825289830190526040902090840190558654879080612f0d57fe5b60008281526020808220600260001990940193840201828155600190810183905592909355888152898201909252604082209190915594506106f19350505050565b600054610100900460ff1680612f685750612f6861180d565b80612f76575060005460ff16155b612fb15760405162461bcd60e51b815260040180806020018281038252602e81526020018061405a602e913960400191505060405180910390fd5b600054610100900460ff16158015612fdc576000805460ff1961ff0019909116610100171660011790555b825160208085019190912083519184019190912060fb9190915560fc5580156105f4576000805461ff0019169055505050565b60606118038484600085613157565b8051602091820151604080517f397e04204c1e1a60ee8724b71f8244e10ab5f2e9009854d80f602bda21b59ebb818601526001600160a01b03909316838201526001600160601b039091166060808401919091528151808403909101815260809092019052805191012090565b60006130956132b2565b82604051602001808061190160f01b81525060020183815260200182815260200192505050604051602081830303815290604052805190602001209050919050565b6000815160411461312f576040805162461bcd60e51b815260206004820152601f60248201527f45434453413a20696e76616c6964207369676e6174757265206c656e67746800604482015290519081900360640190fd5b60208201516040830151606084015160001a61314d868285856132ed565b9695505050505050565b6060824710156131985760405162461bcd60e51b8152600401808060200182810382526026815260200180613f7d6026913960400191505060405180910390fd5b6131a185612575565b6131f2576040805162461bcd60e51b815260206004820152601d60248201527f416464726573733a2063616c6c20746f206e6f6e2d636f6e7472616374000000604482015290519081900360640190fd5b600080866001600160a01b031685876040518082805190602001908083835b602083106132305780518252601f199092019160209182019101613211565b6001836020036101000a03801982511681845116808217855250505050505090500191505060006040518083038185875af1925050503d8060008114613292576040519150601f19603f3d011682016040523d82523d6000602084013e613297565b606091505b50915091506132a782828661346b565b979650505050505050565b60006106057f8b73c3c69bb8fe3d512ecc4cf759cc79239f7b179b0ffacaa9a75d522b39400f6132e06134d1565b6132e86134d7565b6134dd565b60007f7fffffffffffffffffffffffffffffff5d576e7357a4501ddfe92f46681b20a082111561334e5760405162461bcd60e51b8152600401808060200182810382526022815260200180613f5b6022913960400191505060405180910390fd5b8360ff16601b148061336357508360ff16601c145b61339e5760405162461bcd60e51b81526004018080602001828103825260228152602001806140886022913960400191505060405180910390fd5b600060018686868660405160008152602001604052604051808581526020018460ff1681526020018381526020018281526020019450505050506020604051602081039080840390855afa1580156133fa573d6000803e3d6000fd5b5050604051601f1901519150506001600160a01b038116613462576040805162461bcd60e51b815260206004820152601860248201527f45434453413a20696e76616c6964207369676e61747572650000000000000000604482015290519081900360640190fd5b95945050505050565b6060831561347a575081611806565b82511561348a5782518084602001fd5b60405162461bcd60e51b815260206004820181815284516024840152845185939192839260440191908501908083836000831561250b5781810151838201526020016124f3565b60fb5490565b60fc5490565b60008383836134ea61353f565b3060405160200180868152602001858152602001848152602001838152602001826001600160a01b03168152602001955050505050506040516020818303038152906040528051906020012090509392505050565b4690565b50805460018160011615610100020316600290046000825580601f106135695750610761565b601f0160209004906000526020600020908101906107619190613613565b828054600181600116156101000203166002900490600052602060002090601f0160209004810192826135bd5760008555613603565b82601f106135d657805160ff1916838001178555613603565b82800160010185558215613603579182015b828111156136035782518255916020019190600101906135e8565b5061360f929150613613565b5090565b5b8082111561360f5760008155600101613614565b600082601f830112613638578081fd5b8135602061364d61364883613e89565b613e65565b82815281810190858301855b8581101561368257613670898684358b010161374b565b84529284019290840190600101613659565b5090979650505050505050565b600082601f83011261369f578081fd5b813560206136af61364883613e89565b828152818101908583016040808602880185018910156136cd578687fd5b865b8681101561373d5781838b0312156136e5578788fd5b815182810181811067ffffffffffffffff8211171561370057fe5b8352833561370d81613ea7565b8152838701356001600160601b038116811461372757898afd5b81880152855293850193918101916001016136cf565b509198975050505050505050565b600082601f83011261375b578081fd5b813567ffffffffffffffff81111561376f57fe5b613782601f8201601f1916602001613e65565b818152846020838601011115613796578283fd5b816020850160208301379081016020019190915292915050565b600060a082840312156137c1578081fd5b6137cb60a0613e65565b905081358152602082013567ffffffffffffffff808211156137ec57600080fd5b6137f88583860161374b565b6020840152604084013591508082111561381157600080fd5b61381d8583860161368f565b6040840152606084013591508082111561383657600080fd5b6138428583860161368f565b6060840152608084013591508082111561385b57600080fd5b5061386884828501613628565b60808301525092915050565b600060208284031215613885578081fd5b813561180681613ea7565b600080604083850312156138a2578081fd5b82356138ad81613ea7565b915060208301356138bd81613ea7565b809150509250929050565b6000806000606084860312156138dc578081fd5b83356138e781613ea7565b925060208401356138f781613ea7565b929592945050506040919091013590565b6000806000806080858703121561391d578081fd5b843561392881613ea7565b9350602085013561393881613ea7565b925060408501359150606085013567ffffffffffffffff81111561395a578182fd5b6139668782880161374b565b91505092959194509250565b60008060408385031215613984578182fd5b823561398f81613ea7565b9150602083013580151581146138bd578182fd5b600080604083850312156139b5578182fd5b82356139c081613ea7565b946020939093013593505050565b6000602082840312156139df578081fd5b81356001600160e01b031981168114611806578182fd5b600080600080600060a08688031215613a0d578283fd5b853567ffffffffffffffff80821115613a24578485fd5b613a3089838a0161374b565b96506020880135915080821115613a45578485fd5b613a5189838a0161374b565b95506040880135915080821115613a66578485fd5b613a7289838a0161374b565b94506060880135915080821115613a87578283fd5b50613a948882890161374b565b9250506080860135613aa581613ea7565b809150509295509295909350565b60008060408385031215613ac5578182fd5b823567ffffffffffffffff811115613adb578283fd5b613ae7858286016137b0565b92505060208301356138bd81613ea7565b600080600060608486031215613b0c578081fd5b833567ffffffffffffffff811115613b22578182fd5b613b2e868287016137b0565b9350506020840135613b3f81613ea7565b91506040840135613b4f81613ea7565b809150509250925092565b600060208284031215613b6b578081fd5b5035919050565b600080600060608486031215613b86578081fd5b833592506020840135613b3f81613ea7565b60008060408385031215613baa578182fd5b50508035926020909101359150565b6000815180845260208085019450808401835b83811015613c0557815180516001600160a01b031688528301516001600160601b03168388015260409096019590820190600101613bcc565b509495945050505050565b60008151808452815b81811015613c3557602081850181015186830182015201613c19565b81811115613c465782602083870101525b50601f01601f19169290920160200192915050565b6001600160a01b0391909116815260200190565b6001600160a01b0384168152606060208201819052600090613c9390830185613c10565b828103604084015261314d8185613c10565b6001600160a01b039290921682526001600160601b0316602082015260400190565b6000602082526106ee6020830184613bb9565b901515815260200190565b6000602082526106ee6020830184613c10565b60208082526017908201527f6d696e746572206973206e6f7420746865206f776e6572000000000000000000604082015260600190565b6020808252601190820152701d1bdad95b9259081a5b98dbdc9c9958dd607a1b604082015260600190565b6020808252600b908201526a1b9bdd08185b1b1bddd95960aa1b604082015260600190565b60208082526031908201527f4552433732313a207472616e736665722063616c6c6572206973206e6f74206f6040820152701ddb995c881b9bdc88185c1c1c9bdd9959607a1b606082015260800190565b90815260200190565b6000838252604060208301526118036040830184613bb9565b60008482526020606081840152613e0c6060840186613c10565b838103604085810191909152855480835286855283852092840190855b81811015613e565784546001600160a01b038116845260a01c868401526001948501949284019201613e29565b50909998505050505050505050565b60405181810167ffffffffffffffff81118282101715613e8157fe5b604052919050565b600067ffffffffffffffff821115613e9d57fe5b5060209081020190565b6001600160a01b038116811461076157600080fdfe456e756d657261626c655365743a20696e646578206f7574206f6620626f756e64734552433732313a207472616e7366657220746f206e6f6e20455243373231526563656976657220696d706c656d656e7465724f776e61626c653a206e6577206f776e657220697320746865207a65726f20616464726573734552433732313a207472616e7366657220746f20746865207a65726f206164647265737345434453413a20696e76616c6964207369676e6174757265202773272076616c7565416464726573733a20696e73756666696369656e742062616c616e636520666f722063616c6c4552433732313a206f70657261746f7220717565727920666f72206e6f6e6578697374656e7420746f6b656e4552433732313a20617070726f76652063616c6c6572206973206e6f74206f776e6572206e6f7220617070726f76656420666f7220616c6c4552433732313a2062616c616e636520717565727920666f7220746865207a65726f20616464726573734552433732313a206f776e657220717565727920666f72206e6f6e6578697374656e7420746f6b656e496e697469616c697a61626c653a20636f6e747261637420697320616c726561647920696e697469616c697a656445434453413a20696e76616c6964207369676e6174757265202776272076616c7565456e756d657261626c654d61703a20696e646578206f7574206f6620626f756e64734552433732313a20617070726f76656420717565727920666f72206e6f6e6578697374656e7420746f6b656e4552433732314d657461646174613a2055524920736574206f66206e6f6e6578697374656e7420746f6b656e4552433732313a207472616e73666572206f6620746f6b656e2074686174206973206e6f74206f776e4552433732314d657461646174613a2055524920717565727920666f72206e6f6e6578697374656e7420746f6b656e4552433732313a20617070726f76616c20746f2063757272656e74206f776e65724552433732313a207472616e736665722063616c6c6572206973206e6f74206f776e6572206e6f7220617070726f7665644552433732314275726e61626c653a2063616c6c6572206973206e6f74206f776e6572206e6f7220617070726f766564a2646970667358221220931e979ef12a4140a237072bb48c4dccb4416c957209d73e9e5ba27423c5018c64736f6c63430007060033",
  "immutableReferences": {},
  "source": "// SPDX-License-Identifier: MIT\n\npragma solidity >=0.6.2 <0.8.0;\npragma abicoder v2;\n\nimport \"@openzeppelin/contracts-upgradeable/access/OwnableUpgradeable.sol\";\nimport \"@openzeppelin/contracts-upgradeable/token/ERC721/ERC721BurnableUpgradeable.sol\";\nimport \"./ERC721Lazy.sol\";\nimport \"../HasContractURI.sol\";\n\ncontract ERC721RaribleUser is OwnableUpgradeable, ERC721BurnableUpgradeable, ERC721Lazy, HasContractURI {\n\n    event CreateERC721RaribleUser(address owner, string name, string symbol);\n\n    function __ERC721RaribleUser_init(string memory _name, string memory _symbol, string memory baseURI, string memory contractURI, address operator) external initializer {\n        _setBaseURI(baseURI);\n        __ERC721Lazy_init_unchained();\n        __Context_init_unchained();\n        __ERC165_init_unchained();\n        __Ownable_init_unchained();\n        __ERC721Burnable_init_unchained();\n        __Mint721Validator_init_unchained();\n        __HasContractURI_init_unchained(contractURI);\n        __RoyaltiesV2Upgradeable_init_unchained();\n        __ERC721_init_unchained(_name, _symbol);\n        if (operator != address(0)) {\n            setApprovalForAll(operator, true);\n        }\n        emit CreateERC721RaribleUser(_msgSender(), _name, _symbol);\n    }\n\n    function mintAndTransfer(LibERC721LazyMint.Mint721Data memory data, address to) public override virtual {\n        require(owner() == data.creators[0].account, \"minter is not the owner\");\n        super.mintAndTransfer(data, to);\n    }\n    uint256[50] private __gap;\n}\n",
  "sourcePath": "/home/quadro/Projects/rarible/protocol-contracts/tokens/contracts/erc-721/ERC721RaribleUser.sol",
  "compiler": {
    "name": "solc",
    "version": "0.7.6+commit.7338295f.Emscripten.clang"
  },
  "schemaVersion": "3.4.0",
  "updatedAt": "2021-04-30T11:47:58.196Z",
  "networkType": "ethereum",
  "devdoc": {
    "kind": "dev",
    "methods": {
      "approve(address,uint256)": {
        "details": "See {IERC721-approve}."
      },
      "balanceOf(address)": {
        "details": "See {IERC721-balanceOf}."
      },
      "baseURI()": {
        "details": "Returns the base URI set via {_setBaseURI}. This will be automatically added as a prefix in {tokenURI} to each token's URI, or to the token ID if no specific URI is set for that token ID."
      },
      "burn(uint256)": {
        "details": "Burns `tokenId`. See {ERC721-_burn}. Requirements: - The caller must own `tokenId` or be an approved operator."
      },
      "getApproved(uint256)": {
        "details": "See {IERC721-getApproved}."
      },
      "isApprovedForAll(address,address)": {
        "details": "See {IERC721-isApprovedForAll}."
      },
      "name()": {
        "details": "See {IERC721Metadata-name}."
      },
      "owner()": {
        "details": "Returns the address of the current owner."
      },
      "ownerOf(uint256)": {
        "details": "See {IERC721-ownerOf}."
      },
      "renounceOwnership()": {
        "details": "Leaves the contract without owner. It will not be possible to call `onlyOwner` functions anymore. Can only be called by the current owner. NOTE: Renouncing ownership will leave the contract without an owner, thereby removing any functionality that is only available to the owner."
      },
      "safeTransferFrom(address,address,uint256)": {
        "details": "See {IERC721-safeTransferFrom}."
      },
      "safeTransferFrom(address,address,uint256,bytes)": {
        "details": "See {IERC721-safeTransferFrom}."
      },
      "setApprovalForAll(address,bool)": {
        "details": "See {IERC721-setApprovalForAll}."
      },
      "supportsInterface(bytes4)": {
        "details": "See {IERC165-supportsInterface}. Time complexity O(1), guaranteed to always use less than 30 000 gas."
      },
      "symbol()": {
        "details": "See {IERC721Metadata-symbol}."
      },
      "tokenByIndex(uint256)": {
        "details": "See {IERC721Enumerable-tokenByIndex}."
      },
      "tokenOfOwnerByIndex(address,uint256)": {
        "details": "See {IERC721Enumerable-tokenOfOwnerByIndex}."
      },
      "tokenURI(uint256)": {
        "details": "See {IERC721Metadata-tokenURI}."
      },
      "totalSupply()": {
        "details": "See {IERC721Enumerable-totalSupply}."
      },
      "transferFrom(address,address,uint256)": {
        "details": "See {IERC721-transferFrom}."
      },
      "transferOwnership(address)": {
        "details": "Transfers ownership of the contract to a new account (`newOwner`). Can only be called by the current owner."
      }
    },
    "version": 1
  },
  "userdoc": {
    "kind": "user",
    "methods": {},
    "version": 1
  }
}