{
  "contractName": "ERC721Rarible",
  "abi": [
    {
      "anonymous": false,
      "inputs": [
        {
          "indexed": true,
          "internalType": "address",
          "name": "owner",
          "type": "address"
        },
        {
          "indexed": true,
          "internalType": "address",
          "name": "approved",
          "type": "address"
        },
        {
          "indexed": true,
          "internalType": "uint256",
          "name": "tokenId",
          "type": "uint256"
        }
      ],
      "name": "Approval",
      "type": "event"
    },
    {
      "anonymous": false,
      "inputs": [
        {
          "indexed": true,
          "internalType": "address",
          "name": "owner",
          "type": "address"
        },
        {
          "indexed": true,
          "internalType": "address",
          "name": "operator",
          "type": "address"
        },
        {
          "indexed": false,
          "internalType": "bool",
          "name": "approved",
          "type": "bool"
        }
      ],
      "name": "ApprovalForAll",
      "type": "event"
    },
    {
      "anonymous": false,
      "inputs": [
        {
          "indexed": false,
          "internalType": "address",
          "name": "owner",
          "type": "address"
        },
        {
          "indexed": false,
          "internalType": "string",
          "name": "name",
          "type": "string"
        },
        {
          "indexed": false,
          "internalType": "string",
          "name": "symbol",
          "type": "string"
        }
      ],
      "name": "CreateERC721Rarible",
      "type": "event"
    },
    {
      "anonymous": false,
      "inputs": [
        {
          "indexed": false,
          "internalType": "uint256",
          "name": "tokenId",
          "type": "uint256"
        },
        {
          "components": [
            {
              "internalType": "address payable",
              "name": "account",
              "type": "address"
            },
            {
              "internalType": "uint96",
              "name": "value",
              "type": "uint96"
            }
          ],
          "indexed": false,
          "internalType": "struct LibPart.Part[]",
          "name": "creators",
          "type": "tuple[]"
        }
      ],
      "name": "Creators",
      "type": "event"
    },
    {
      "anonymous": false,
      "inputs": [
        {
          "indexed": true,
          "internalType": "address",
          "name": "operator",
          "type": "address"
        },
        {
          "indexed": false,
          "internalType": "bool",
          "name": "hasApproval",
          "type": "bool"
        }
      ],
      "name": "DefaultApproval",
      "type": "event"
    },
    {
      "anonymous": false,
      "inputs": [
        {
          "indexed": true,
          "internalType": "address",
          "name": "previousOwner",
          "type": "address"
        },
        {
          "indexed": true,
          "internalType": "address",
          "name": "newOwner",
          "type": "address"
        }
      ],
      "name": "OwnershipTransferred",
      "type": "event"
    },
    {
      "anonymous": false,
      "inputs": [
        {
          "indexed": false,
          "internalType": "uint256",
          "name": "tokenId",
          "type": "uint256"
        },
        {
          "components": [
            {
              "internalType": "address payable",
              "name": "account",
              "type": "address"
            },
            {
              "internalType": "uint96",
              "name": "value",
              "type": "uint96"
            }
          ],
          "indexed": false,
          "internalType": "struct LibPart.Part[]",
          "name": "royalties",
          "type": "tuple[]"
        }
      ],
      "name": "RoyaltiesSet",
      "type": "event"
    },
    {
      "anonymous": false,
      "inputs": [
        {
          "indexed": true,
          "internalType": "address",
          "name": "from",
          "type": "address"
        },
        {
          "indexed": true,
          "internalType": "address",
          "name": "to",
          "type": "address"
        },
        {
          "indexed": true,
          "internalType": "uint256",
          "name": "tokenId",
          "type": "uint256"
        }
      ],
      "name": "Transfer",
      "type": "event"
    },
    {
      "inputs": [
        {
          "internalType": "address",
          "name": "to",
          "type": "address"
        },
        {
          "internalType": "uint256",
          "name": "tokenId",
          "type": "uint256"
        }
      ],
      "name": "approve",
      "outputs": [],
      "stateMutability": "nonpayable",
      "type": "function"
    },
    {
      "inputs": [
        {
          "internalType": "address",
          "name": "owner",
          "type": "address"
        }
      ],
      "name": "balanceOf",
      "outputs": [
        {
          "internalType": "uint256",
          "name": "",
          "type": "uint256"
        }
      ],
      "stateMutability": "view",
      "type": "function"
    },
    {
      "inputs": [],
      "name": "baseURI",
      "outputs": [
        {
          "internalType": "string",
          "name": "",
          "type": "string"
        }
      ],
      "stateMutability": "view",
      "type": "function"
    },
    {
      "inputs": [
        {
          "internalType": "uint256",
          "name": "tokenId",
          "type": "uint256"
        }
      ],
      "name": "burn",
      "outputs": [],
      "stateMutability": "nonpayable",
      "type": "function"
    },
    {
      "inputs": [],
      "name": "contractURI",
      "outputs": [
        {
          "internalType": "string",
          "name": "",
          "type": "string"
        }
      ],
      "stateMutability": "view",
      "type": "function"
    },
    {
      "inputs": [
        {
          "internalType": "uint256",
          "name": "tokenId",
          "type": "uint256"
        }
      ],
      "name": "getApproved",
      "outputs": [
        {
          "internalType": "address",
          "name": "",
          "type": "address"
        }
      ],
      "stateMutability": "view",
      "type": "function"
    },
    {
      "inputs": [
        {
          "internalType": "uint256",
          "name": "_id",
          "type": "uint256"
        }
      ],
      "name": "getCreators",
      "outputs": [
        {
          "components": [
            {
              "internalType": "address payable",
              "name": "account",
              "type": "address"
            },
            {
              "internalType": "uint96",
              "name": "value",
              "type": "uint96"
            }
          ],
          "internalType": "struct LibPart.Part[]",
          "name": "",
          "type": "tuple[]"
        }
      ],
      "stateMutability": "view",
      "type": "function"
    },
    {
      "inputs": [
        {
          "internalType": "uint256",
          "name": "id",
          "type": "uint256"
        }
      ],
      "name": "getRaribleV2Royalties",
      "outputs": [
        {
          "components": [
            {
              "internalType": "address payable",
              "name": "account",
              "type": "address"
            },
            {
              "internalType": "uint96",
              "name": "value",
              "type": "uint96"
            }
          ],
          "internalType": "struct LibPart.Part[]",
          "name": "",
          "type": "tuple[]"
        }
      ],
      "stateMutability": "view",
      "type": "function"
    },
    {
      "inputs": [
        {
          "internalType": "address",
          "name": "owner",
          "type": "address"
        },
        {
          "internalType": "address",
          "name": "operator",
          "type": "address"
        }
      ],
      "name": "isApprovedForAll",
      "outputs": [
        {
          "internalType": "bool",
          "name": "",
          "type": "bool"
        }
      ],
      "stateMutability": "view",
      "type": "function"
    },
    {
      "inputs": [
        {
          "components": [
            {
              "internalType": "uint256",
              "name": "tokenId",
              "type": "uint256"
            },
            {
              "internalType": "string",
              "name": "tokenURI",
              "type": "string"
            },
            {
              "components": [
                {
                  "internalType": "address payable",
                  "name": "account",
                  "type": "address"
                },
                {
                  "internalType": "uint96",
                  "name": "value",
                  "type": "uint96"
                }
              ],
              "internalType": "struct LibPart.Part[]",
              "name": "creators",
              "type": "tuple[]"
            },
            {
              "components": [
                {
                  "internalType": "address payable",
                  "name": "account",
                  "type": "address"
                },
                {
                  "internalType": "uint96",
                  "name": "value",
                  "type": "uint96"
                }
              ],
              "internalType": "struct LibPart.Part[]",
              "name": "royalties",
              "type": "tuple[]"
            },
            {
              "internalType": "bytes[]",
              "name": "signatures",
              "type": "bytes[]"
            }
          ],
          "internalType": "struct LibERC721LazyMint.Mint721Data",
          "name": "data",
          "type": "tuple"
        },
        {
          "internalType": "address",
          "name": "to",
          "type": "address"
        }
      ],
      "name": "mintAndTransfer",
      "outputs": [],
      "stateMutability": "nonpayable",
      "type": "function"
    },
    {
      "inputs": [],
      "name": "name",
      "outputs": [
        {
          "internalType": "string",
          "name": "",
          "type": "string"
        }
      ],
      "stateMutability": "view",
      "type": "function"
    },
    {
      "inputs": [],
      "name": "owner",
      "outputs": [
        {
          "internalType": "address",
          "name": "",
          "type": "address"
        }
      ],
      "stateMutability": "view",
      "type": "function"
    },
    {
      "inputs": [
        {
          "internalType": "uint256",
          "name": "tokenId",
          "type": "uint256"
        }
      ],
      "name": "ownerOf",
      "outputs": [
        {
          "internalType": "address",
          "name": "",
          "type": "address"
        }
      ],
      "stateMutability": "view",
      "type": "function"
    },
    {
      "inputs": [],
      "name": "renounceOwnership",
      "outputs": [],
      "stateMutability": "nonpayable",
      "type": "function"
    },
    {
      "inputs": [
        {
          "internalType": "address",
          "name": "from",
          "type": "address"
        },
        {
          "internalType": "address",
          "name": "to",
          "type": "address"
        },
        {
          "internalType": "uint256",
          "name": "tokenId",
          "type": "uint256"
        }
      ],
      "name": "safeTransferFrom",
      "outputs": [],
      "stateMutability": "nonpayable",
      "type": "function"
    },
    {
      "inputs": [
        {
          "internalType": "address",
          "name": "from",
          "type": "address"
        },
        {
          "internalType": "address",
          "name": "to",
          "type": "address"
        },
        {
          "internalType": "uint256",
          "name": "tokenId",
          "type": "uint256"
        },
        {
          "internalType": "bytes",
          "name": "_data",
          "type": "bytes"
        }
      ],
      "name": "safeTransferFrom",
      "outputs": [],
      "stateMutability": "nonpayable",
      "type": "function"
    },
    {
      "inputs": [
        {
          "internalType": "address",
          "name": "operator",
          "type": "address"
        },
        {
          "internalType": "bool",
          "name": "approved",
          "type": "bool"
        }
      ],
      "name": "setApprovalForAll",
      "outputs": [],
      "stateMutability": "nonpayable",
      "type": "function"
    },
    {
      "inputs": [
        {
          "internalType": "bytes4",
          "name": "interfaceId",
          "type": "bytes4"
        }
      ],
      "name": "supportsInterface",
      "outputs": [
        {
          "internalType": "bool",
          "name": "",
          "type": "bool"
        }
      ],
      "stateMutability": "view",
      "type": "function"
    },
    {
      "inputs": [],
      "name": "symbol",
      "outputs": [
        {
          "internalType": "string",
          "name": "",
          "type": "string"
        }
      ],
      "stateMutability": "view",
      "type": "function"
    },
    {
      "inputs": [
        {
          "internalType": "uint256",
          "name": "index",
          "type": "uint256"
        }
      ],
      "name": "tokenByIndex",
      "outputs": [
        {
          "internalType": "uint256",
          "name": "",
          "type": "uint256"
        }
      ],
      "stateMutability": "view",
      "type": "function"
    },
    {
      "inputs": [
        {
          "internalType": "address",
          "name": "owner",
          "type": "address"
        },
        {
          "internalType": "uint256",
          "name": "index",
          "type": "uint256"
        }
      ],
      "name": "tokenOfOwnerByIndex",
      "outputs": [
        {
          "internalType": "uint256",
          "name": "",
          "type": "uint256"
        }
      ],
      "stateMutability": "view",
      "type": "function"
    },
    {
      "inputs": [
        {
          "internalType": "uint256",
          "name": "tokenId",
          "type": "uint256"
        }
      ],
      "name": "tokenURI",
      "outputs": [
        {
          "internalType": "string",
          "name": "",
          "type": "string"
        }
      ],
      "stateMutability": "view",
      "type": "function"
    },
    {
      "inputs": [],
      "name": "totalSupply",
      "outputs": [
        {
          "internalType": "uint256",
          "name": "",
          "type": "uint256"
        }
      ],
      "stateMutability": "view",
      "type": "function"
    },
    {
      "inputs": [
        {
          "internalType": "address",
          "name": "from",
          "type": "address"
        },
        {
          "internalType": "address",
          "name": "to",
          "type": "address"
        },
        {
          "internalType": "uint256",
          "name": "tokenId",
          "type": "uint256"
        }
      ],
      "name": "transferFrom",
      "outputs": [],
      "stateMutability": "nonpayable",
      "type": "function"
    },
    {
      "inputs": [
        {
          "components": [
            {
              "internalType": "uint256",
              "name": "tokenId",
              "type": "uint256"
            },
            {
              "internalType": "string",
              "name": "tokenURI",
              "type": "string"
            },
            {
              "components": [
                {
                  "internalType": "address payable",
                  "name": "account",
                  "type": "address"
                },
                {
                  "internalType": "uint96",
                  "name": "value",
                  "type": "uint96"
                }
              ],
              "internalType": "struct LibPart.Part[]",
              "name": "creators",
              "type": "tuple[]"
            },
            {
              "components": [
                {
                  "internalType": "address payable",
                  "name": "account",
                  "type": "address"
                },
                {
                  "internalType": "uint96",
                  "name": "value",
                  "type": "uint96"
                }
              ],
              "internalType": "struct LibPart.Part[]",
              "name": "royalties",
              "type": "tuple[]"
            },
            {
              "internalType": "bytes[]",
              "name": "signatures",
              "type": "bytes[]"
            }
          ],
          "internalType": "struct LibERC721LazyMint.Mint721Data",
          "name": "data",
          "type": "tuple"
        },
        {
          "internalType": "address",
          "name": "from",
          "type": "address"
        },
        {
          "internalType": "address",
          "name": "to",
          "type": "address"
        }
      ],
      "name": "transferFromOrMint",
      "outputs": [],
      "stateMutability": "nonpayable",
      "type": "function"
    },
    {
      "inputs": [
        {
          "internalType": "address",
          "name": "newOwner",
          "type": "address"
        }
      ],
      "name": "transferOwnership",
      "outputs": [],
      "stateMutability": "nonpayable",
      "type": "function"
    },
    {
      "inputs": [
        {
          "internalType": "uint256",
          "name": "_id",
          "type": "uint256"
        },
        {
          "internalType": "address",
          "name": "_from",
          "type": "address"
        },
        {
          "internalType": "address",
          "name": "_to",
          "type": "address"
        }
      ],
      "name": "updateAccount",
      "outputs": [],
      "stateMutability": "nonpayable",
      "type": "function"
    },
    {
      "inputs": [
        {
          "internalType": "string",
          "name": "_name",
          "type": "string"
        },
        {
          "internalType": "string",
          "name": "_symbol",
          "type": "string"
        },
        {
          "internalType": "string",
          "name": "baseURI",
          "type": "string"
        },
        {
          "internalType": "string",
          "name": "contractURI",
          "type": "string"
        },
        {
          "internalType": "address",
          "name": "transferProxy",
          "type": "address"
        },
        {
          "internalType": "address",
          "name": "lazyTransferProxy",
          "type": "address"
        }
      ],
      "name": "__ERC721Rarible_init",
      "outputs": [],
      "stateMutability": "nonpayable",
      "type": "function"
    }
  ],
  "bytecode": "0x608060405234801561001057600080fd5b506143fa806100206000396000f3fe608060405234801561001057600080fd5b50600436106101c45760003560e01c806370a08231116100f9578063b88d4fde11610097578063e07f231911610071578063e07f23191461039b578063e8a3d485146103ae578063e985e9c5146103b6578063f2fde38b146103c9576101c4565b8063b88d4fde14610362578063c87b56dd14610375578063cad96cca14610388576101c4565b8063891be974116100d3578063891be9741461031f5780638da5cb5b1461033f57806395d89b4114610347578063a22cb4651461034f576101c4565b806370a08231146102f1578063715018a614610304578063832fbb291461030c576101c4565b80632f745c591161016657806342966c681161014057806342966c68146102b05780634f6ccce7146102c35780636352211e146102d65780636c0360eb146102e9576101c4565b80632f745c59146102775780633db397c61461028a57806342842e0e1461029d576101c4565b8063095ea7b3116101a2578063095ea7b31461022757806318160ddd1461023c57806322a775b61461025157806323b872dd14610264576101c4565b806301ffc9a7146101c957806306fdde03146101f2578063081812fc14610207575b600080fd5b6101dc6101d7366004613b0c565b6103dc565b6040516101e99190613de0565b60405180910390f35b6101fa6103ef565b6040516101e99190613deb565b61021a610215366004613ca3565b610485565b6040516101e99190613d83565b61023a610235366004613ae1565b6104e7565b005b6102446105c2565b6040516101e99190613fc5565b61023a61025f366004613bfc565b6105d3565b61023a610272366004613a06565b61075e565b610244610285366004613ae1565b6107b5565b61023a610298366004613b34565b6107e0565b61023a6102ab366004613a06565b6108d8565b61023a6102be366004613ca3565b6108f3565b6102446102d1366004613ca3565b610945565b61021a6102e4366004613ca3565b61095b565b6101fa610983565b6102446102ff3660046139b2565b6109e4565b61023a610a4c565b61023a61031a366004613c41565b610b0a565b61033261032d366004613ca3565b610b38565b6040516101e99190613dcd565b61021a610bc8565b6101fa610bd7565b61023a61035d366004613ab0565b610c38565b61023a610370366004613a46565b610d3d565b6101fa610383366004613ca3565b610d9b565b610332610396366004613ca3565b61101c565b61023a6103a9366004613cbb565b611097565b6101fa6110da565b6101dc6103c43660046139ce565b611169565b61023a6103d73660046139b2565b611175565b60006103e78261128a565b90505b919050565b609c8054604080516020601f600260001961010060018816150201909516949094049384018190048102820181019092528281526060939092909183018282801561047b5780601f106104505761010080835404028352916020019161047b565b820191906000526020600020905b81548152906001019060200180831161045e57829003601f168201915b5050505050905090565b600061049082611329565b6104cb5760405162461bcd60e51b815260040180806020018281038252602c81526020018061424e602c913960400191505060405180910390fd5b506000908152609a60205260409020546001600160a01b031690565b60006104f28261095b565b9050806001600160a01b0316836001600160a01b031614156105455760405162461bcd60e51b815260040180806020018281038252602181526020018061431e6021913960400191505060405180910390fd5b806001600160a01b0316610557611336565b6001600160a01b03161480610578575061057881610573611336565b61133a565b6105b35760405162461bcd60e51b81526004018080602001828103825260388152602001806141516038913960400191505060405180910390fd5b6105bd8383611368565b505050565b60006105ce60986113d6565b905090565b815160601c60006105e2611336565b905083604001516000815181106105f557fe5b6020026020010151600001516001600160a01b0316826001600160a01b03161461063a5760405162461bcd60e51b815260040161063190613e6a565b60405180910390fd5b8360800151518460400151511461065057600080fd5b806001600160a01b0316826001600160a01b0316148061067557506106758282611169565b6106915760405162461bcd60e51b815260040161063190613f26565b600061069c856113e1565b905060005b856040015151811015610712576000866040015182815181106106c057fe5b6020026020010151600001519050836001600160a01b0316816001600160a01b031614610709576107098184896080015185815181106106fc57fe5b602002602001015161162a565b506001016106a1565b50610721848660000151611635565b61073385600001518660600151611653565b61074585600001518660400151611842565b610757856000015186602001516119f1565b5050505050565b61076f610769611336565b82611a54565b6107aa5760405162461bcd60e51b815260040180806020018281038252603181526020018061433f6031913960400191505060405180910390fd5b6105bd838383611a60565b6001600160a01b03821660009081526097602052604081206107d79083611b9a565b90505b92915050565b600054610100900460ff16806107f957506107f9611ba6565b80610807575060005460ff16155b6108425760405162461bcd60e51b815260040180806020018281038252602e8152602001806141dc602e913960400191505060405180910390fd5b600054610100900460ff1615801561086d576000805460ff1961ff0019909116610100171660011790555b61087b878787878787611bb7565b7ff05e55f0a9d205977ca8cc02236338b6a361376f404cf0b3019b2111964a01fd6108a4611336565b88886040516108b593929190613d97565b60405180910390a180156108cf576000805461ff00191690555b50505050505050565b6105bd83838360405180602001604052806000815250610d3d565b6108fe610769611336565b6109395760405162461bcd60e51b81526004018080602001828103825260308152602001806143956030913960400191505060405180910390fd5b61094281611c29565b50565b600080610953609884611ce4565b509392505050565b60006103e7826040518060600160405280602981526020016141b36029913960989190611d00565b609f8054604080516020601f600260001961010060018816150201909516949094049384018190048102820181019092528281526060939092909183018282801561047b5780601f106104505761010080835404028352916020019161047b565b60006001600160a01b038216610a2b5760405162461bcd60e51b815260040180806020018281038252602a815260200180614189602a913960400191505060405180910390fd5b6001600160a01b03821660009081526097602052604090206103e7906113d6565b610a54611336565b6001600160a01b0316610a65610bc8565b6001600160a01b031614610ac0576040805162461bcd60e51b815260206004820181905260248201527f4f776e61626c653a2063616c6c6572206973206e6f7420746865206f776e6572604482015290519081900360640190fd5b6033546040516000916001600160a01b0316907f8be0079c531659141344cd1fd0a4f28419497f9722a3daafe3b4186f6b6457e0908390a3603380546001600160a01b0319169055565b8251610b1590611329565b15610b2e57610b29828285600001516108d8565b6105bd565b6105bd83826105d3565b60606101c76000838152602001908152602001600020805480602002602001604051908101604052809291908181526020016000905b82821015610bbd57600084815260209081902060408051808201909152908401546001600160a01b0381168252600160a01b90046001600160601b031681830152825260019092019101610b6e565b505050509050919050565b6033546001600160a01b031690565b609d8054604080516020601f600260001961010060018816150201909516949094049384018190048102820181019092528281526060939092909183018282801561047b5780601f106104505761010080835404028352916020019161047b565b610c40611336565b6001600160a01b0316826001600160a01b03161415610ca6576040805162461bcd60e51b815260206004820152601960248201527f4552433732313a20617070726f766520746f2063616c6c657200000000000000604482015290519081900360640190fd5b80609b6000610cb3611336565b6001600160a01b03908116825260208083019390935260409182016000908120918716808252919093529120805460ff191692151592909217909155610cf7611336565b6001600160a01b03167f17307eab39ab6107e8899845ad3d59bd9653f200f220920489ca2b5937696c318360405180821515815260200191505060405180910390a35050565b610d4e610d48611336565b83611a54565b610d895760405162461bcd60e51b815260040180806020018281038252603181526020018061433f6031913960400191505060405180910390fd5b610d9584848484611d17565b50505050565b6060610da682611329565b610de15760405162461bcd60e51b815260040180806020018281038252602f8152602001806142cf602f913960400191505060405180910390fd5b6000828152609e602090815260408083208054825160026001831615610100026000190190921691909104601f810185900485028201850190935282815292909190830182828015610e745780601f10610e4957610100808354040283529160200191610e74565b820191906000526020600020905b815481529060010190602001808311610e5757829003601f168201915b505050505090506000610e85610983565b9050805160001415610e99575090506103ea565b815115610f5a5780826040516020018083805190602001908083835b60208310610ed45780518252601f199092019160209182019101610eb5565b51815160209384036101000a600019018019909216911617905285519190930192850191508083835b60208310610f1c5780518252601f199092019160209182019101610efd565b6001836020036101000a03801982511681845116808217855250505050505090500192505050604051602081830303815290604052925050506103ea565b80610f6485611d69565b6040516020018083805190602001908083835b60208310610f965780518252601f199092019160209182019101610f77565b51815160209384036101000a600019018019909216911617905285519190930192850191508083835b60208310610fde5780518252601f199092019160209182019101610fbf565b6001836020036101000a0380198251168184511680821785525050505050509050019250505060405160208183030381529060405292505050919050565b60008181526101c660209081526040808320805482518185028101850190935280835260609492939192909184018215610bbd57600084815260209081902060408051808201909152908401546001600160a01b0381168252600160a01b90046001600160601b031681830152825260019092019101610b6e565b816001600160a01b03166110a9611336565b6001600160a01b0316146110cf5760405162461bcd60e51b815260040161063190613e95565b6105bd838383611e44565b6101fa805460408051602060026001851615610100026000190190941693909304601f810184900484028201840190925281815292918301828280156111615780601f1061113657610100808354040283529160200191611161565b820191906000526020600020905b81548152906001019060200180831161114457829003601f168201915b505050505081565b60006107d78383611ef0565b61117d611336565b6001600160a01b031661118e610bc8565b6001600160a01b0316146111e9576040805162461bcd60e51b815260206004820181905260248201527f4f776e61626c653a2063616c6c6572206973206e6f7420746865206f776e6572604482015290519081900360640190fd5b6001600160a01b03811661122e5760405162461bcd60e51b81526004018080602001828103825260268152602001806140936026913960400191505060405180910390fd5b6033546040516001600160a01b038084169216907f8be0079c531659141344cd1fd0a4f28419497f9722a3daafe3b4186f6b6457e090600090a3603380546001600160a01b0319166001600160a01b0392909216919091179055565b60006001600160e01b03198216638486f69f60e01b14806112bb57506001600160e01b0319821663656cb66560e11b145b806112d657506001600160e01b031982166301ffc9a760e01b145b806112f157506001600160e01b031982166380ac58cd60e01b145b8061130c57506001600160e01b03198216635b5e139f60e01b145b806103e75750506001600160e01b03191663780e9d6360e01b1490565b60006103e7609883611f1c565b3390565b6001600160a01b039182166000908152609b6020908152604080832093909416825291909152205460ff1690565b6000818152609a6020526040902080546001600160a01b0319166001600160a01b038416908117909155819061139d8261095b565b6001600160a01b03167f8c5be1e5ebec7d5bd14f71427d1e84f3dd0314c0f7b2291e5b200ac8c7c3b92560405160405180910390a45050565b60006103e782611f28565b60008082606001515167ffffffffffffffff8111801561140057600080fd5b5060405190808252806020026020018201604052801561142a578160200160208202803683370190505b50905060005b83606001515181101561147c5761145d8460600151828151811061145057fe5b6020026020010151611f2c565b82828151811061146957fe5b6020908102919091010152600101611430565b50600083604001515167ffffffffffffffff8111801561149b57600080fd5b506040519080825280602002602001820160405280156114c5578160200160208202803683370190505b50905060005b84604001515181101561150a576114eb8560400151828151811061145057fe5b8282815181106114f757fe5b60209081029190910101526001016114cb565b507ff64326045af5fd7e15297ba939f85b550474d3899daa47d2bc1ffbdb9ced344e84600001518560200151805190602001208360405160200180828051906020019060200280838360005b8381101561156e578181015183820152602001611556565b50505050905001915050604051602081830303815290604052805190602001208560405160200180828051906020019060200280838360005b838110156115bf5781810151838201526020016115a7565b505050509050019150506040516020818303038152906040528051906020012060405160200180868152602001858152602001848152602001838152602001828152602001955050505050506040516020818303038152906040528051906020012092505050919050565b6105bd838383611f99565b61164f82826040518060200160405280600081525061220e565b5050565b6000805b82518110156117f75760006001600160a01b031683828151811061167757fe5b6020026020010151600001516001600160a01b031614156116df576040805162461bcd60e51b815260206004820152601b60248201527f526563697069656e742073686f756c642062652070726573656e740000000000604482015290519081900360640190fd5b8281815181106116eb57fe5b6020026020010151602001516001600160601b031660001415611755576040805162461bcd60e51b815260206004820181905260248201527f526f79616c74792076616c75652073686f756c6420626520706f736974697665604482015290519081900360640190fd5b82818151811061176157fe5b6020026020010151602001516001600160601b0316820191506101c6600085815260200190815260200160002083828151811061179a57fe5b60209081029190910181015182546001818101855560009485529383902082519101805492909301516001600160601b0316600160a01b026001600160a01b039182166001600160a01b0319909316929092171617905501611657565b5061271081106118385760405162461bcd60e51b81526004018080602001828103825260258152602001806143706025913960400191505060405180910390fd5b6105bd8383612260565b60008281526101c76020526040812090805b83518110156119905760006001600160a01b031684828151811061187457fe5b6020026020010151600001516001600160a01b031614156118a75760405162461bcd60e51b815260040161063190613eef565b8381815181106118b357fe5b6020026020010151602001516001600160601b0316600014156118e85760405162461bcd60e51b815260040161063190613e35565b828482815181106118f557fe5b602090810291909101810151825460018101845560009384529282902081519301805491909201516001600160601b0316600160a01b026001600160a01b039384166001600160a01b03199092169190911790921691909117905583516119869085908390811061196257fe5b6020026020010151602001516001600160601b03168361229d90919063ffffffff16565b9150600101611854565b5080612710146119b25760405162461bcd60e51b815260040161063190613f77565b7f841ffb90d4cabdd1f16034f3fa831d79060febbb8167bdd54a49269365bdf78f84846040516119e3929190613fce565b60405180910390a150505050565b6119fa82611329565b611a355760405162461bcd60e51b815260040180806020018281038252602c81526020018061427a602c913960400191505060405180910390fd5b6000828152609e6020908152604090912082516105bd9284019061367a565b60006107d783836122f7565b826001600160a01b0316611a738261095b565b6001600160a01b031614611ab85760405162461bcd60e51b81526004018080602001828103825260298152602001806142a66029913960400191505060405180910390fd5b6001600160a01b038216611afd5760405162461bcd60e51b81526004018080602001828103825260248152602001806140b96024913960400191505060405180910390fd5b611b088383836105bd565b611b13600082611368565b6001600160a01b0383166000908152609760205260409020611b359082612323565b506001600160a01b0382166000908152609760205260409020611b58908261232f565b50611b656098828461233b565b5080826001600160a01b0316846001600160a01b03166000805160206142fe83398151915260405160405180910390a4505050565b60006107d78383612351565b6000611bb1306123b5565b15905090565b611bc0846123bb565b611bc86123ce565b611bd061246f565b611bd86123ce565b611be061250c565b611be86125a9565b611bf06123ce565b611bf86126a2565b611c0183612771565b611c0b8686612838565b611c16826001612933565b611c21816001612933565b505050505050565b6000611c348261095b565b9050611c42816000846105bd565b611c4d600083611368565b6000828152609e60205260409020546002600019610100600184161502019091160415611c8b576000828152609e60205260408120611c8b91613706565b6001600160a01b0381166000908152609760205260409020611cad9083612323565b50611cb9609883612993565b5060405182906000906001600160a01b038416906000805160206142fe833981519152908390a45050565b6000808080611cf3868661299f565b9097909650945050505050565b6000611d0d848484612a1a565b90505b9392505050565b611d22848484611a60565b611d2e84848484612aa7565b610d955760405162461bcd60e51b81526004018080602001828103825260328152602001806140616032913960400191505060405180910390fd5b606081611d8e57506040805180820190915260018152600360fc1b60208201526103ea565b8160005b8115611da657600101600a82049150611d92565b60008167ffffffffffffffff81118015611dbf57600080fd5b506040519080825280601f01601f191660200182016040528015611dea576020820181803683370190505b50859350905060001982015b8315611e3b57600a840660300160f81b82828060019003935081518110611e1957fe5b60200101906001600160f81b031916908160001a905350600a84049350611df6565b50949350505050565b60008381526101c66020526040812054905b818110156107575760008581526101c66020526040902080546001600160a01b038616919083908110611e8557fe5b6000918252602090912001546001600160a01b03161415611ee85760008581526101c660205260409020805484919083908110611ebe57fe5b600091825260209091200180546001600160a01b0319166001600160a01b03929092169190911790555b600101611e56565b6001600160a01b038116600090815260c9602052604081205460ff16806107d757506107d7838361133a565b60006107d78383612c10565b5490565b8051602091820151604080517f397e04204c1e1a60ee8724b71f8244e10ab5f2e9009854d80f602bda21b59ebb818601526001600160a01b03909316838201526001600160601b039091166060808401919091528151808403909101815260809092019052805191012090565b6000611fa483612c28565b9050611fb8846001600160a01b03166123b5565b1561216e5760408051630b135d3f60e11b808252600482018481526024830193845285516044840152855191936001600160a01b03891693631626ba7e938793899390929091606490910190602085019080838360005b8381101561202757818101518382015260200161200f565b50505050905090810190601f1680156120545780820380516001836020036101000a031916815260200191505b50935050505060206040518083038186803b15801561207257600080fd5b505afa158015612086573d6000803e3d6000fd5b505050506040513d602081101561209c57600080fd5b505160408051808201909152601c81527f7369676e617475726520766572696669636174696f6e206572726f72000000006020820152916001600160e01b0319909116146121685760405162461bcd60e51b81526004018080602001828103825283818151815260200191508051906020019080838360005b8381101561212d578181015183820152602001612115565b50505050905090810190601f16801561215a5780820380516001836020036101000a031916815260200191505b509250505060405180910390fd5b50610d95565b6001600160a01b0384166121828284612c74565b6001600160a01b0316146040518060400160405280601c81526020017f7369676e617475726520766572696669636174696f6e206572726f7200000000815250906107575760405162461bcd60e51b815260206004820181815283516024840152835190928392604490910191908501908083836000831561212d578181015183820152602001612115565b6122188383612cf4565b6122256000848484612aa7565b6105bd5760405162461bcd60e51b81526004018080602001828103825260328152602001806140616032913960400191505060405180910390fd5b7f3fa96d7b6bcbfe71ef171666d84db3cf52fa2d1c8afdb1cc8e486177f208b7df8282604051612291929190613fce565b60405180910390a15050565b6000828201838110156107d7576040805162461bcd60e51b815260206004820152601b60248201527f536166654d6174683a206164646974696f6e206f766572666c6f770000000000604482015290519081900360640190fd5b6001600160a01b038216600090815260c9602052604081205460ff16806107d757506107d78383612cfe565b60006107d78383612d9a565b60006107d78383612e60565b6000611d0d84846001600160a01b038516612eaa565b815460009082106123935760405162461bcd60e51b815260040180806020018281038252602281526020018061403f6022913960400191505060405180910390fd5b8260000182815481106123a257fe5b9060005260206000200154905092915050565b3b151590565b805161164f90609f90602084019061367a565b600054610100900460ff16806123e757506123e7611ba6565b806123f5575060005460ff16155b6124305760405162461bcd60e51b815260040180806020018281038252602e8152602001806141dc602e913960400191505060405180910390fd5b600054610100900460ff1615801561245b576000805460ff1961ff0019909116610100171660011790555b8015610942576000805461ff001916905550565b600054610100900460ff16806124885750612488611ba6565b80612496575060005460ff16155b6124d15760405162461bcd60e51b815260040180806020018281038252602e8152602001806141dc602e913960400191505060405180910390fd5b600054610100900460ff161580156124fc576000805460ff1961ff0019909116610100171660011790555b61245b63656cb66560e11b612f41565b600054610100900460ff16806125255750612525611ba6565b80612533575060005460ff16155b61256e5760405162461bcd60e51b815260040180806020018281038252602e8152602001806141dc602e913960400191505060405180910390fd5b600054610100900460ff16158015612599576000805460ff1961ff0019909116610100171660011790555b61245b6301ffc9a760e01b612f41565b600054610100900460ff16806125c257506125c2611ba6565b806125d0575060005460ff16155b61260b5760405162461bcd60e51b815260040180806020018281038252602e8152602001806141dc602e913960400191505060405180910390fd5b600054610100900460ff16158015612636576000805460ff1961ff0019909116610100171660011790555b6000612640611336565b603380546001600160a01b0319166001600160a01b038316908117909155604051919250906000907f8be0079c531659141344cd1fd0a4f28419497f9722a3daafe3b4186f6b6457e0908290a3508015610942576000805461ff001916905550565b600054610100900460ff16806126bb57506126bb611ba6565b806126c9575060005460ff16155b6127045760405162461bcd60e51b815260040180806020018281038252602e8152602001806141dc602e913960400191505060405180910390fd5b600054610100900460ff1615801561272f576000805460ff1961ff0019909116610100171660011790555b61245b604051806040016040528060078152602001664d696e7437323160c81b815250604051806040016040528060018152602001603160f81b815250612fc5565b600054610100900460ff168061278a575061278a611ba6565b80612798575060005460ff16155b6127d35760405162461bcd60e51b815260040180806020018281038252602e8152602001806141dc602e913960400191505060405180910390fd5b600054610100900460ff161580156127fe576000805460ff1961ff0019909116610100171660011790555b8151612812906101fa90602085019061367a565b5061282363e8a3d48560e01b612f41565b801561164f576000805461ff00191690555050565b600054610100900460ff16806128515750612851611ba6565b8061285f575060005460ff16155b61289a5760405162461bcd60e51b815260040180806020018281038252602e8152602001806141dc602e913960400191505060405180910390fd5b600054610100900460ff161580156128c5576000805460ff1961ff0019909116610100171660011790555b82516128d890609c90602086019061367a565b5081516128ec90609d90602085019061367a565b506128fd6380ac58cd60e01b612f41565b61290d635b5e139f60e01b612f41565b61291d63780e9d6360e01b612f41565b80156105bd576000805461ff0019169055505050565b6001600160a01b038216600081815260c96020908152604091829020805460ff1916851515908117909155825190815291517f270dbb8ba4292910ae92862466486be25c355c837270a3d8824b36a8bc7c653b9281900390910190a25050565b60006107d78383613087565b8154600090819083106129e35760405162461bcd60e51b815260040180806020018281038252602281526020018061422c6022913960400191505060405180910390fd5b60008460000184815481106129f457fe5b906000526020600020906002020190508060000154816001015492509250509250929050565b60008281526001840160205260408120548281612a785760405162461bcd60e51b815260206004820181815283516024840152835190928392604490910191908501908083836000831561212d578181015183820152602001612115565b50846000016001820381548110612a8b57fe5b9060005260206000209060020201600101549150509392505050565b6000612abb846001600160a01b03166123b5565b612ac757506001612c08565b6000612bd5630a85bd0160e11b612adc611336565b88878760405160240180856001600160a01b03168152602001846001600160a01b0316815260200183815260200180602001828103825283818151815260200191508051906020019080838360005b83811015612b43578181015183820152602001612b2b565b50505050905090810190601f168015612b705780820380516001836020036101000a031916815260200191505b5095505050505050604051602081830303815290604052906001600160e01b0319166020820180516001600160e01b038381831617835250505050604051806060016040528060328152602001614061603291396001600160a01b038816919061315b565b90506000818060200190516020811015612bee57600080fd5b50516001600160e01b031916630a85bd0160e11b14925050505b949350505050565b60009081526001919091016020526040902054151590565b6000612c3261316a565b82604051602001808061190160f01b81525060020183815260200182815260200192505050604051602081830303815290604052805190602001209050919050565b60008151604114612ccc576040805162461bcd60e51b815260206004820152601f60248201527f45434453413a20696e76616c6964207369676e6174757265206c656e67746800604482015290519081900360640190fd5b60208201516040830151606084015160001a612cea868285856131a5565b9695505050505050565b61164f8282613323565b6000612d0982611329565b612d445760405162461bcd60e51b815260040180806020018281038252602c815260200180614125602c913960400191505060405180910390fd5b6000612d4f8361095b565b9050806001600160a01b0316846001600160a01b03161480612d8a5750836001600160a01b0316612d7f84610485565b6001600160a01b0316145b80612c085750612c08818561133a565b60008181526001830160205260408120548015612e565783546000198083019190810190600090879083908110612dcd57fe5b9060005260206000200154905080876000018481548110612dea57fe5b600091825260208083209091019290925582815260018981019092526040902090840190558654879080612e1a57fe5b600190038181906000526020600020016000905590558660010160008781526020019081526020016000206000905560019450505050506107da565b60009150506107da565b6000612e6c8383612c10565b612ea2575081546001818101845560008481526020808220909301849055845484825282860190935260409020919091556107da565b5060006107da565b600082815260018401602052604081205480612f0f575050604080518082018252838152602080820184815286546001818101895560008981528481209551600290930290950191825591519082015586548684528188019092529290912055611d10565b82856000016001830381548110612f2257fe5b9060005260206000209060020201600101819055506000915050611d10565b6001600160e01b03198082161415612fa0576040805162461bcd60e51b815260206004820152601c60248201527f4552433136353a20696e76616c696420696e7465726661636520696400000000604482015290519081900360640190fd5b6001600160e01b0319166000908152606560205260409020805460ff19166001179055565b600054610100900460ff1680612fde5750612fde611ba6565b80612fec575060005460ff16155b6130275760405162461bcd60e51b815260040180806020018281038252602e8152602001806141dc602e913960400191505060405180910390fd5b600054610100900460ff16158015613052576000805460ff1961ff0019909116610100171660011790555b825160208085019190912083519184019190912061012e9190915561012f5580156105bd576000805461ff0019169055505050565b60008181526001830160205260408120548015612e5657835460001980830191908101906000908790839081106130ba57fe5b90600052602060002090600202019050808760000184815481106130da57fe5b60009182526020808320845460029093020191825560019384015491840191909155835482528983019052604090209084019055865487908061311957fe5b60008281526020808220600260001990940193840201828155600190810183905592909355888152898201909252604082209190915594506107da9350505050565b6060611d0d8484600085613445565b60006105ce7f8b73c3c69bb8fe3d512ecc4cf759cc79239f7b179b0ffacaa9a75d522b39400f6131986135a0565b6131a06135a7565b6135ae565b60007f7fffffffffffffffffffffffffffffff5d576e7357a4501ddfe92f46681b20a08211156132065760405162461bcd60e51b81526004018080602001828103825260228152602001806140dd6022913960400191505060405180910390fd5b8360ff16601b148061321b57508360ff16601c145b6132565760405162461bcd60e51b815260040180806020018281038252602281526020018061420a6022913960400191505060405180910390fd5b600060018686868660405160008152602001604052604051808581526020018460ff1681526020018381526020018281526020019450505050506020604051602081039080840390855afa1580156132b2573d6000803e3d6000fd5b5050604051601f1901519150506001600160a01b03811661331a576040805162461bcd60e51b815260206004820152601860248201527f45434453413a20696e76616c6964207369676e61747572650000000000000000604482015290519081900360640190fd5b95945050505050565b6001600160a01b0382166133495760405162461bcd60e51b815260040161063190613eba565b61335281611329565b1561336f5760405162461bcd60e51b815260040161063190613dfe565b61337b600083836105bd565b6001600160a01b038216600090815260976020526040902061339d908261232f565b506133aa6098828461233b565b50606081901c6001600160a01b038316811461341a5760405182906001600160a01b038316906000906000805160206142fe833981519152908290a481836001600160a01b0316826001600160a01b03166000805160206142fe83398151915260405160405180910390a46105bd565b60405182906001600160a01b038516906000906000805160206142fe833981519152908290a4505050565b6060824710156134865760405162461bcd60e51b81526004018080602001828103825260268152602001806140ff6026913960400191505060405180910390fd5b61348f856123b5565b6134e0576040805162461bcd60e51b815260206004820152601d60248201527f416464726573733a2063616c6c20746f206e6f6e2d636f6e7472616374000000604482015290519081900360640190fd5b600080866001600160a01b031685876040518082805190602001908083835b6020831061351e5780518252601f1990920191602091820191016134ff565b6001836020036101000a03801982511681845116808217855250505050505090500191505060006040518083038185875af1925050503d8060008114613580576040519150601f19603f3d011682016040523d82523d6000602084013e613585565b606091505b5091509150613595828286613610565b979650505050505050565b61012e5490565b61012f5490565b60008383836135bb613676565b3060405160200180868152602001858152602001848152602001838152602001826001600160a01b03168152602001955050505050506040516020818303038152906040528051906020012090509392505050565b6060831561361f575081611d10565b82511561362f5782518084602001fd5b60405162461bcd60e51b815260206004820181815284516024840152845185939192839260440191908501908083836000831561212d578181015183820152602001612115565b4690565b828054600181600116156101000203166002900490600052602060002090601f0160209004810192826136b057600085556136f6565b82601f106136c957805160ff19168380011785556136f6565b828001600101855582156136f6579182015b828111156136f65782518255916020019190600101906136db565b50613702929150613746565b5090565b50805460018160011615610100020316600290046000825580601f1061372c5750610942565b601f01602090049060005260206000209081019061094291905b5b808211156137025760008155600101613747565b80356103ea81614029565b600082601f830112613776578081fd5b8135602061378b6137868361400b565b613fe7565b82815281810190858301855b858110156137c0576137ae898684358b0101613889565b84529284019290840190600101613797565b5090979650505050505050565b600082601f8301126137dd578081fd5b813560206137ed6137868361400b565b8281528181019085830160408086028801850189101561380b578687fd5b865b8681101561387b5781838b031215613823578788fd5b815182810181811067ffffffffffffffff8211171561383e57fe5b8352833561384b81614029565b8152838701356001600160601b038116811461386557898afd5b818801528552938501939181019160010161380d565b509198975050505050505050565b600082601f830112613899578081fd5b813567ffffffffffffffff8111156138ad57fe5b6138c0601f8201601f1916602001613fe7565b8181528460208386010111156138d4578283fd5b816020850160208301379081016020019190915292915050565b600060a082840312156138ff578081fd5b61390960a0613fe7565b905081358152602082013567ffffffffffffffff8082111561392a57600080fd5b61393685838601613889565b6020840152604084013591508082111561394f57600080fd5b61395b858386016137cd565b6040840152606084013591508082111561397457600080fd5b613980858386016137cd565b6060840152608084013591508082111561399957600080fd5b506139a684828501613766565b60808301525092915050565b6000602082840312156139c3578081fd5b81356107d781614029565b600080604083850312156139e0578081fd5b82356139eb81614029565b915060208301356139fb81614029565b809150509250929050565b600080600060608486031215613a1a578081fd5b8335613a2581614029565b92506020840135613a3581614029565b929592945050506040919091013590565b60008060008060808587031215613a5b578081fd5b8435613a6681614029565b93506020850135613a7681614029565b925060408501359150606085013567ffffffffffffffff811115613a98578182fd5b613aa487828801613889565b91505092959194509250565b60008060408385031215613ac2578182fd5b8235613acd81614029565b9150602083013580151581146139fb578182fd5b60008060408385031215613af3578182fd5b8235613afe81614029565b946020939093013593505050565b600060208284031215613b1d578081fd5b81356001600160e01b0319811681146107d7578182fd5b60008060008060008060c08789031215613b4c578384fd5b863567ffffffffffffffff80821115613b63578586fd5b613b6f8a838b01613889565b97506020890135915080821115613b84578586fd5b613b908a838b01613889565b96506040890135915080821115613ba5578586fd5b613bb18a838b01613889565b95506060890135915080821115613bc6578384fd5b50613bd389828a01613889565b935050613be26080880161375b565b9150613bf060a0880161375b565b90509295509295509295565b60008060408385031215613c0e578182fd5b823567ffffffffffffffff811115613c24578283fd5b613c30858286016138ee565b92505060208301356139fb81614029565b600080600060608486031215613c55578081fd5b833567ffffffffffffffff811115613c6b578182fd5b613c77868287016138ee565b9350506020840135613c8881614029565b91506040840135613c9881614029565b809150509250925092565b600060208284031215613cb4578081fd5b5035919050565b600080600060608486031215613ccf578081fd5b833592506020840135613c8881614029565b6000815180845260208085019450808401835b83811015613d2d57815180516001600160a01b031688528301516001600160601b03168388015260409096019590820190600101613cf4565b509495945050505050565b60008151808452815b81811015613d5d57602081850181015186830182015201613d41565b81811115613d6e5782602083870101525b50601f01601f19169290920160200192915050565b6001600160a01b0391909116815260200190565b6001600160a01b0384168152606060208201819052600090613dbb90830185613d38565b8281036040840152612cea8185613d38565b6000602082526107d76020830184613ce1565b901515815260200190565b6000602082526107d76020830184613d38565b6020808252601c908201527f4552433732313a20746f6b656e20616c7265616479206d696e74656400000000604082015260600190565b6020808252818101527f43726561746f722073686172652073686f756c6420626520706f736974697665604082015260600190565b6020808252601190820152701d1bdad95b9259081a5b98dbdc9c9958dd607a1b604082015260600190565b6020808252600b908201526a1b9bdd08185b1b1bddd95960aa1b604082015260600190565b6020808252818101527f4552433732313a206d696e7420746f20746865207a65726f2061646472657373604082015260600190565b60208082526019908201527f4163636f756e742073686f756c642062652070726573656e7400000000000000604082015260600190565b60208082526031908201527f4552433732313a207472616e736665722063616c6c6572206973206e6f74206f6040820152701ddb995c881b9bdc88185c1c1c9bdd9959607a1b606082015260800190565b6020808252602e908201527f746f74616c20616d6f756e74206f662063726561746f7273207368617265207360408201526d0686f756c642062652031303030360941b606082015260800190565b90815260200190565b600083825260406020830152611d0d6040830184613ce1565b60405181810167ffffffffffffffff8111828210171561400357fe5b604052919050565b600067ffffffffffffffff82111561401f57fe5b5060209081020190565b6001600160a01b038116811461094257600080fdfe456e756d657261626c655365743a20696e646578206f7574206f6620626f756e64734552433732313a207472616e7366657220746f206e6f6e20455243373231526563656976657220696d706c656d656e7465724f776e61626c653a206e6577206f776e657220697320746865207a65726f20616464726573734552433732313a207472616e7366657220746f20746865207a65726f206164647265737345434453413a20696e76616c6964207369676e6174757265202773272076616c7565416464726573733a20696e73756666696369656e742062616c616e636520666f722063616c6c4552433732313a206f70657261746f7220717565727920666f72206e6f6e6578697374656e7420746f6b656e4552433732313a20617070726f76652063616c6c6572206973206e6f74206f776e6572206e6f7220617070726f76656420666f7220616c6c4552433732313a2062616c616e636520717565727920666f7220746865207a65726f20616464726573734552433732313a206f776e657220717565727920666f72206e6f6e6578697374656e7420746f6b656e496e697469616c697a61626c653a20636f6e747261637420697320616c726561647920696e697469616c697a656445434453413a20696e76616c6964207369676e6174757265202776272076616c7565456e756d657261626c654d61703a20696e646578206f7574206f6620626f756e64734552433732313a20617070726f76656420717565727920666f72206e6f6e6578697374656e7420746f6b656e4552433732314d657461646174613a2055524920736574206f66206e6f6e6578697374656e7420746f6b656e4552433732313a207472616e73666572206f6620746f6b656e2074686174206973206e6f74206f776e4552433732314d657461646174613a2055524920717565727920666f72206e6f6e6578697374656e7420746f6b656eddf252ad1be2c89b69c2b068fc378daa952ba7f163c4a11628f55a4df523b3ef4552433732313a20617070726f76616c20746f2063757272656e74206f776e65724552433732313a207472616e736665722063616c6c6572206973206e6f74206f776e6572206e6f7220617070726f766564526f79616c747920746f74616c2076616c75652073686f756c64206265203c2031303030304552433732314275726e61626c653a2063616c6c6572206973206e6f74206f776e6572206e6f7220617070726f766564a26469706673582212205d6ea7522eb5cbce698370fb3784970ebe9a8b311774cc90e2718064e7f0c02164736f6c63430007060033",
  "immutableReferences": {},
  "source": "// SPDX-License-Identifier: MIT\n\npragma solidity 0.7.6;\npragma abicoder v2;\n\nimport \"./ERC721Base.sol\";\n\ncontract ERC721Rarible is ERC721Base {\n\n    event CreateERC721Rarible(address owner, string name, string symbol);\n\n    function __ERC721Rarible_init(string memory _name, string memory _symbol, string memory baseURI, string memory contractURI, address transferProxy, address lazyTransferProxy) external initializer {\n        __ERC721Rarible_init_unchained(_name, _symbol, baseURI, contractURI, transferProxy, lazyTransferProxy);\n        emit CreateERC721Rarible(_msgSender(), _name, _symbol);\n    }\n\n    function __ERC721Rarible_init_unchained(string memory _name, string memory _symbol, string memory baseURI, string memory contractURI, address transferProxy, address lazyTransferProxy) internal {\n        _setBaseURI(baseURI);\n        __ERC721Lazy_init_unchained();\n        __RoyaltiesV2Upgradeable_init_unchained();\n        __Context_init_unchained();\n        __ERC165_init_unchained();\n        __Ownable_init_unchained();\n        __ERC721Burnable_init_unchained();\n        __Mint721Validator_init_unchained();\n        __HasContractURI_init_unchained(contractURI);\n        __ERC721_init_unchained(_name, _symbol);\n\n        //setting default approver for transferProxies\n        _setDefaultApproval(transferProxy, true);\n        _setDefaultApproval(lazyTransferProxy, true);\n    }\n\n    uint256[50] private __gap;\n}\n",
  "sourcePath": "/Users/ds/Documents/rarible/protocol-contracts/tokens/contracts/erc-721/ERC721Rarible.sol",
  "compiler": {
    "name": "solc",
    "version": "0.7.6+commit.7338295f.Emscripten.clang"
  },
  "schemaVersion": "3.4.3",
  "updatedAt": "2021-11-12T15:30:15.112Z",
  "devdoc": {
    "kind": "dev",
    "methods": {
      "approve(address,uint256)": {
        "details": "See {IERC721-approve}."
      },
      "balanceOf(address)": {
        "details": "See {IERC721-balanceOf}."
      },
      "baseURI()": {
        "details": "Returns the base URI set via {_setBaseURI}. This will be automatically added as a prefix in {tokenURI} to each token's URI, or to the token ID if no specific URI is set for that token ID."
      },
      "burn(uint256)": {
        "details": "Burns `tokenId`. See {ERC721-_burn}. Requirements: - The caller must own `tokenId` or be an approved operator."
      },
      "getApproved(uint256)": {
        "details": "See {IERC721-getApproved}."
      },
      "name()": {
        "details": "See {IERC721Metadata-name}."
      },
      "owner()": {
        "details": "Returns the address of the current owner."
      },
      "ownerOf(uint256)": {
        "details": "See {IERC721-ownerOf}."
      },
      "renounceOwnership()": {
        "details": "Leaves the contract without owner. It will not be possible to call `onlyOwner` functions anymore. Can only be called by the current owner. NOTE: Renouncing ownership will leave the contract without an owner, thereby removing any functionality that is only available to the owner."
      },
      "safeTransferFrom(address,address,uint256)": {
        "details": "See {IERC721-safeTransferFrom}."
      },
      "safeTransferFrom(address,address,uint256,bytes)": {
        "details": "See {IERC721-safeTransferFrom}."
      },
      "setApprovalForAll(address,bool)": {
        "details": "See {IERC721-setApprovalForAll}."
      },
      "symbol()": {
        "details": "See {IERC721Metadata-symbol}."
      },
      "tokenByIndex(uint256)": {
        "details": "See {IERC721Enumerable-tokenByIndex}."
      },
      "tokenOfOwnerByIndex(address,uint256)": {
        "details": "See {IERC721Enumerable-tokenOfOwnerByIndex}."
      },
      "tokenURI(uint256)": {
        "details": "See {IERC721Metadata-tokenURI}."
      },
      "totalSupply()": {
        "details": "See {IERC721Enumerable-totalSupply}."
      },
      "transferFrom(address,address,uint256)": {
        "details": "See {IERC721-transferFrom}."
      },
      "transferOwnership(address)": {
        "details": "Transfers ownership of the contract to a new account (`newOwner`). Can only be called by the current owner."
      }
    },
    "version": 1
  },
  "userdoc": {
    "kind": "user",
    "methods": {},
    "version": 1
  }
}