{
  "contractName": "LibERC1155LazyMint",
  "abi": [
    {
      "inputs": [],
      "name": "ERC1155_LAZY_ASSET_CLASS",
      "outputs": [
        {
          "internalType": "bytes4",
          "name": "",
          "type": "bytes4"
        }
      ],
      "stateMutability": "view",
      "type": "function"
    },
    {
      "inputs": [],
      "name": "MINT_AND_TRANSFER_TYPEHASH",
      "outputs": [
        {
          "internalType": "bytes32",
          "name": "",
          "type": "bytes32"
        }
      ],
      "stateMutability": "view",
      "type": "function"
    }
  ],
  "bytecode": "0x60ef610039600b82828239805160001a60731461002c57634e487b7160e01b600052600060045260246000fd5b30600052607381538281f3fe7300000000000000000000000000000000000000003014608060405260043610603d5760003560e01c80637987105f14604257806390c20c4314607b575b600080fd5b60687ffb988707ebb338694f318760b0fd5cfe756d00a2ade251fda110b80c336a3c7f81565b6040519081526020015b60405180910390f35b60a17f1cdfaa400bc064c91b5cc20e571cfcc92103980be96e01fb36dda1962d8d78cb81565b6040516001600160e01b03199091168152602001607256fea26469706673582212204739aba81e076a2d29bf5f59dab614817670d102d22d21a658d7dc9d19526d7564736f6c634300080f0033",
  "immutableReferences": {},
  "source": "// SPDX-License-Identifier: MIT\r\n\r\npragma solidity >=0.6.2 <0.9.0;\r\n\r\nimport \"@rarible/lib-part/contracts/LibPart.sol\";\r\n\r\nlibrary LibERC1155LazyMint {\r\n    bytes4 constant public ERC1155_LAZY_ASSET_CLASS = bytes4(keccak256(\"ERC1155_LAZY\"));\r\n    bytes4 constant _INTERFACE_ID_MINT_AND_TRANSFER = 0x6db15a0f;\r\n\r\n    struct Mint1155Data {\r\n        uint tokenId;\r\n        string tokenURI;\r\n        uint supply;\r\n        LibPart.Part[] creators;\r\n        LibPart.Part[] royalties;\r\n        bytes[] signatures;\r\n    }\r\n\r\n    bytes32 public constant MINT_AND_TRANSFER_TYPEHASH = keccak256(\"Mint1155(uint256 tokenId,uint256 supply,string tokenURI,Part[] creators,Part[] royalties)Part(address account,uint96 value)\");\r\n\r\n    function hash(Mint1155Data memory data) internal pure returns (bytes32) {\r\n        bytes32[] memory royaltiesBytes = new bytes32[](data.royalties.length);\r\n        for (uint i = 0; i < data.royalties.length; i++) {\r\n            royaltiesBytes[i] = LibPart.hash(data.royalties[i]);\r\n        }\r\n        bytes32[] memory creatorsBytes = new bytes32[](data.creators.length);\r\n        for (uint i = 0; i < data.creators.length; i++) {\r\n            creatorsBytes[i] = LibPart.hash(data.creators[i]);\r\n        }\r\n        return keccak256(abi.encode(\r\n                MINT_AND_TRANSFER_TYPEHASH,\r\n                data.tokenId,\r\n                data.supply,\r\n                keccak256(bytes(data.tokenURI)),\r\n                keccak256(abi.encodePacked(creatorsBytes)),\r\n                keccak256(abi.encodePacked(royaltiesBytes))\r\n            ));\r\n    }\r\n}\r\n",
  "sourcePath": "@rarible\\lazy-mint\\contracts\\erc-1155\\LibERC1155LazyMint.sol",
  "compiler": {
    "name": "solc",
    "version": "0.8.15+commit.e14f2714.Emscripten.clang"
  },
  "schemaVersion": "3.4.8",
  "updatedAt": "2022-07-18T14:43:50.323Z",
  "devdoc": {
    "kind": "dev",
    "methods": {},
    "version": 1
  },
  "userdoc": {
    "kind": "user",
    "methods": {},
    "version": 1
  }
}