{
  "contractName": "LibMint1155",
  "abi": [
    {
      "inputs": [],
      "name": "MINT_AND_TRANSFER_TYPEHASH",
      "outputs": [
        {
          "internalType": "bytes32",
          "name": "",
          "type": "bytes32"
        }
      ],
      "stateMutability": "view",
      "type": "function"
    }
  ],
  "bytecode": "0x60aa610024600b82828239805160001a607314601757fe5b30600052607381538281f3fe730000000000000000000000000000000000000000301460806040526004361060335760003560e01c80637987105f146038575b600080fd5b603e6050565b60408051918252519081900360200190f35b7fa08664f7916519ae3cc26fc8a25931cddec38cce362a88eeace5102a3f1fa9568156fea2646970667358221220bdd0d29917c7b5443ec5a8c12a372dcc6f9de5e5644cf913b9dfb64d3679f91964736f6c63430007060033",
  "immutableReferences": {},
  "source": "// SPDX-License-Identifier: MIT\n\npragma solidity >=0.6.2 <0.8.0;\n\nimport \"@rarible/royalties/contracts/LibPart.sol\";\nimport \"@rarible/lazy-mint/contracts/erc-1155/LibERC1155LazyMint.sol\";\n\nlibrary LibMint1155 {\n    bytes32 public constant MINT_AND_TRANSFER_TYPEHASH = keccak256(\"Mint1155(uint256 tokenId,uint256 supply,string tokenURI,address[] creators,Part[] royalties)Part(address account,uint256 value)\");\n\n    function hash(LibERC1155LazyMint.Mint1155Data memory data) internal pure returns (bytes32) {\n        bytes32[] memory feesBytes = new bytes32[](data.royalties.length);\n        for (uint i = 0; i < data.royalties.length; i++) {\n            feesBytes[i] = LibPart.hash(data.royalties[i]);\n        }\n        bytes32[] memory creatorsBytes = new bytes32[](data.creators.length);\n        for (uint i = 0; i < data.creators.length; i++) {\n            creatorsBytes[i] = bytes32(uint256(data.creators[i]));\n        }\n        return keccak256(abi.encode(\n                MINT_AND_TRANSFER_TYPEHASH,\n                data.tokenId,\n                data.supply,\n                keccak256(bytes(data.uri)),\n                keccak256(abi.encodePacked(creatorsBytes)),\n                keccak256(abi.encodePacked(feesBytes))\n            ));\n    }\n}\n",
  "sourcePath": "/home/quadro/Projects/tokenplace/interfaces/tokens/contracts/erc-1155/LibMint1155.sol",
  "compiler": {
    "name": "solc",
    "version": "0.7.6+commit.7338295f.Emscripten.clang"
  },
  "schemaVersion": "3.3.2",
  "updatedAt": "2021-03-17T14:38:52.014Z",
  "devdoc": {
    "kind": "dev",
    "methods": {},
    "version": 1
  },
  "userdoc": {
    "kind": "user",
    "methods": {},
    "version": 1
  }
}