{
  "contractName": "AssetMatcherCollection",
  "abi": [
    {
      "anonymous": false,
      "inputs": [
        {
          "indexed": true,
          "internalType": "address",
          "name": "previousOwner",
          "type": "address"
        },
        {
          "indexed": true,
          "internalType": "address",
          "name": "newOwner",
          "type": "address"
        }
      ],
      "name": "OwnershipTransferred",
      "type": "event"
    },
    {
      "inputs": [],
      "name": "__OperatorRole_init",
      "outputs": [],
      "stateMutability": "nonpayable",
      "type": "function"
    },
    {
      "inputs": [
        {
          "internalType": "address",
          "name": "operator",
          "type": "address"
        }
      ],
      "name": "addOperator",
      "outputs": [],
      "stateMutability": "nonpayable",
      "type": "function"
    },
    {
      "inputs": [],
      "name": "owner",
      "outputs": [
        {
          "internalType": "address",
          "name": "",
          "type": "address"
        }
      ],
      "stateMutability": "view",
      "type": "function",
      "constant": true
    },
    {
      "inputs": [
        {
          "internalType": "address",
          "name": "operator",
          "type": "address"
        }
      ],
      "name": "removeOperator",
      "outputs": [],
      "stateMutability": "nonpayable",
      "type": "function"
    },
    {
      "inputs": [],
      "name": "renounceOwnership",
      "outputs": [],
      "stateMutability": "nonpayable",
      "type": "function"
    },
    {
      "inputs": [
        {
          "internalType": "address",
          "name": "newOwner",
          "type": "address"
        }
      ],
      "name": "transferOwnership",
      "outputs": [],
      "stateMutability": "nonpayable",
      "type": "function"
    },
    {
      "inputs": [],
      "name": "__AssetMatcherCollection_init",
      "outputs": [],
      "stateMutability": "nonpayable",
      "type": "function"
    },
    {
      "inputs": [
        {
          "components": [
            {
              "internalType": "bytes4",
              "name": "assetClass",
              "type": "bytes4"
            },
            {
              "internalType": "bytes",
              "name": "data",
              "type": "bytes"
            }
          ],
          "internalType": "struct LibAsset.AssetType",
          "name": "leftAssetType",
          "type": "tuple"
        },
        {
          "components": [
            {
              "internalType": "bytes4",
              "name": "assetClass",
              "type": "bytes4"
            },
            {
              "internalType": "bytes",
              "name": "data",
              "type": "bytes"
            }
          ],
          "internalType": "struct LibAsset.AssetType",
          "name": "rightAssetType",
          "type": "tuple"
        }
      ],
      "name": "matchAssets",
      "outputs": [
        {
          "components": [
            {
              "internalType": "bytes4",
              "name": "assetClass",
              "type": "bytes4"
            },
            {
              "internalType": "bytes",
              "name": "data",
              "type": "bytes"
            }
          ],
          "internalType": "struct LibAsset.AssetType",
          "name": "",
          "type": "tuple"
        }
      ],
      "stateMutability": "view",
      "type": "function",
      "constant": true
    }
  ],
  "bytecode": "0x608060405234801561001057600080fd5b50610bb7806100206000396000f3fe608060405234801561001057600080fd5b50600436106100885760003560e01c80638da5cb5b1161005b5780638da5cb5b146100d05780639870d7fe146100e5578063ac8a584a146100f8578063f2fde38b1461010b57610088565b806324d926941461008d5780632ff26a0a146100975780636d3f7cb01461009f578063715018a6146100c8575b600080fd5b61009561011e565b005b6100956101c8565b6100b26100ad3660046109c9565b610265565b6040516100bf9190610a3e565b60405180910390f35b610095610405565b6100d86104b1565b6040516100bf9190610a2a565b6100956100f336600461095d565b6104c0565b61009561010636600461095d565b610546565b61009561011936600461095d565b6105c9565b600054610100900460ff168061013757506101376106cc565b80610145575060005460ff16155b6101805760405162461bcd60e51b815260040180806020018281038252602e815260200180610b0c602e913960400191505060405180910390fd5b600054610100900460ff161580156101ab576000805460ff1961ff0019909116610100171660011790555b6101b36101c8565b80156101c5576000805461ff00191690555b50565b600054610100900460ff16806101e157506101e16106cc565b806101ef575060005460ff16155b61022a5760405162461bcd60e51b815260040180806020018281038252602e815260200180610b0c602e913960400191505060405180910390fd5b600054610100900460ff16158015610255576000805460ff1961ff0019909116610100171660011790555b61025d6106dd565b6101b361077d565b61026d610880565b60656000610279610876565b6001600160a01b0316815260208101919091526040016000205460ff166102d15760405162461bcd60e51b8152600401808060200182810382526028815260200180610b5a6028913960400191505060405180910390fd5b81516001600160e01b0319166339d690a360e11b1480610302575081516001600160e01b03191663d8f960c160e01b145b8061031e575081516001600160e01b03191663025ceed960e61b145b80610339575081516001600160e01b03191662737ea960e61b145b80610355575081516001600160e01b031916630f9ae27560e21b145b156103db57600083602001518060200190518101906103749190610980565b905060008360200151806020019051810190610390919061099c565b509050806001600160a01b0316826001600160a01b031614156103d85750506040805180820190915282516001600160e01b03191681526020808401519082015290506103ff565b50505b50604080518082018252600080825282516020818101909452908152918101919091525b92915050565b61040d610876565b6001600160a01b031661041e6104b1565b6001600160a01b031614610467576040805162461bcd60e51b81526020600482018190526024820152600080516020610b3a833981519152604482015290519081900360640190fd5b6033546040516000916001600160a01b0316907f8be0079c531659141344cd1fd0a4f28419497f9722a3daafe3b4186f6b6457e0908390a3603380546001600160a01b0319169055565b6033546001600160a01b031690565b6104c8610876565b6001600160a01b03166104d96104b1565b6001600160a01b031614610522576040805162461bcd60e51b81526020600482018190526024820152600080516020610b3a833981519152604482015290519081900360640190fd5b6001600160a01b03166000908152606560205260409020805460ff19166001179055565b61054e610876565b6001600160a01b031661055f6104b1565b6001600160a01b0316146105a8576040805162461bcd60e51b81526020600482018190526024820152600080516020610b3a833981519152604482015290519081900360640190fd5b6001600160a01b03166000908152606560205260409020805460ff19169055565b6105d1610876565b6001600160a01b03166105e26104b1565b6001600160a01b03161461062b576040805162461bcd60e51b81526020600482018190526024820152600080516020610b3a833981519152604482015290519081900360640190fd5b6001600160a01b0381166106705760405162461bcd60e51b8152600401808060200182810382526026815260200180610ae66026913960400191505060405180910390fd5b6033546040516001600160a01b038084169216907f8be0079c531659141344cd1fd0a4f28419497f9722a3daafe3b4186f6b6457e090600090a3603380546001600160a01b0319166001600160a01b0392909216919091179055565b60006106d73061087a565b15905090565b600054610100900460ff16806106f657506106f66106cc565b80610704575060005460ff16155b61073f5760405162461bcd60e51b815260040180806020018281038252602e815260200180610b0c602e913960400191505060405180910390fd5b600054610100900460ff161580156101b3576000805460ff1961ff00199091166101001716600117905580156101c5576000805461ff001916905550565b600054610100900460ff168061079657506107966106cc565b806107a4575060005460ff16155b6107df5760405162461bcd60e51b815260040180806020018281038252602e815260200180610b0c602e913960400191505060405180910390fd5b600054610100900460ff1615801561080a576000805460ff1961ff0019909116610100171660011790555b6000610814610876565b603380546001600160a01b0319166001600160a01b038316908117909155604051919250906000907f8be0079c531659141344cd1fd0a4f28419497f9722a3daafe3b4186f6b6457e0908290a35080156101c5576000805461ff001916905550565b3390565b3b151590565b60408051808201909152600081526060602082015290565b6000604082840312156108a9578081fd5b6040516040810167ffffffffffffffff82821081831117156108c757fe5b816040528293508435915063ffffffff60e01b821682146108e757600080fd5b90825260209084820135818111156108fe57600080fd5b8501601f8101871361090f57600080fd5b80358281111561091b57fe5b61092d601f8201601f19168501610aac565b9250808352878482840101111561094357600080fd5b808483018585013760009083018401525091015292915050565b60006020828403121561096e578081fd5b813561097981610ad0565b9392505050565b600060208284031215610991578081fd5b815161097981610ad0565b600080604083850312156109ae578081fd5b82516109b981610ad0565b6020939093015192949293505050565b600080604083850312156109db578182fd5b823567ffffffffffffffff808211156109f2578384fd5b6109fe86838701610898565b93506020850135915080821115610a13578283fd5b50610a2085828601610898565b9150509250929050565b6001600160a01b0391909116815260200190565b6000602080835263ffffffff60e01b84511681840152808401516040808501528051806060860152835b81811015610a8457828101840151868201608001528301610a68565b81811115610a955784608083880101525b50601f01601f191693909301608001949350505050565b60405181810167ffffffffffffffff81118282101715610ac857fe5b604052919050565b6001600160a01b03811681146101c557600080fdfe4f776e61626c653a206e6577206f776e657220697320746865207a65726f2061646472657373496e697469616c697a61626c653a20636f6e747261637420697320616c726561647920696e697469616c697a65644f776e61626c653a2063616c6c6572206973206e6f7420746865206f776e65724f70657261746f72526f6c653a2063616c6c6572206973206e6f7420746865206f70657261746f72a2646970667358221220f3a97092d547a8d360688915ffea5d4e68c28cecf5620b09074f72adcc5b909b64736f6c63430007060033",
  "immutableReferences": {},
  "source": "// SPDX-License-Identifier: MIT\n\npragma solidity 0.7.6;\npragma abicoder v2;\n\nimport \"@rarible/exchange-interfaces/contracts/IAssetMatcher.sol\";\nimport \"@rarible/lazy-mint/contracts/erc-721/LibERC721LazyMint.sol\";\nimport \"@rarible/lazy-mint/contracts/erc-1155/LibERC1155LazyMint.sol\";\nimport \"@rarible/transfer-proxy/contracts/roles/OperatorRole.sol\";\n\n/*\n * Custom matcher for collection (assetClass, that need any/all elements from collection)\n */\ncontract AssetMatcherCollection is IAssetMatcher, Initializable, OperatorRole {\n\n    bytes constant EMPTY = \"\";\n\n    function __AssetMatcherCollection_init() initializer external {\n        __Ownable_init();\n    }\n\n    function matchAssets(LibAsset.AssetType memory leftAssetType, LibAsset.AssetType memory rightAssetType) onlyOperator public view override returns (LibAsset.AssetType memory) {\n        if (\n            (rightAssetType.assetClass == LibAsset.ERC721_ASSET_CLASS) || \n            (rightAssetType.assetClass == LibERC721LazyMint.ERC721_LAZY_ASSET_CLASS) ||\n            (rightAssetType.assetClass == LibAsset.ERC1155_ASSET_CLASS) || \n            (rightAssetType.assetClass == LibERC1155LazyMint.ERC1155_LAZY_ASSET_CLASS) ||\n            (rightAssetType.assetClass == LibAsset.CRYPTO_PUNKS)\n        ) {\n          (address leftToken) = abi.decode(leftAssetType.data, (address));\n          (address rightToken,) = abi.decode(rightAssetType.data, (address, uint));\n          if (leftToken == rightToken) {\n              return LibAsset.AssetType(rightAssetType.assetClass, rightAssetType.data);\n          }\n        }\n        return LibAsset.AssetType(0, EMPTY);\n    }\n}",
  "sourcePath": "@rarible/custom-matchers/contracts/AssetMatcherCollection.sol",
  "compiler": {
    "name": "solc",
    "version": "0.7.6+commit.7338295f.Emscripten.clang"
  },
  "schemaVersion": "3.4.4",
  "updatedAt": "2021-12-28T13:59:32.564Z",
  "networkType": "ethereum",
  "devdoc": {
    "kind": "dev",
    "methods": {
      "owner()": {
        "details": "Returns the address of the current owner."
      },
      "renounceOwnership()": {
        "details": "Leaves the contract without owner. It will not be possible to call `onlyOwner` functions anymore. Can only be called by the current owner. NOTE: Renouncing ownership will leave the contract without an owner, thereby removing any functionality that is only available to the owner."
      },
      "transferOwnership(address)": {
        "details": "Transfers ownership of the contract to a new account (`newOwner`). Can only be called by the current owner."
      }
    },
    "version": 1
  },
  "userdoc": {
    "kind": "user",
    "methods": {},
    "version": 1
  }
}