{
  "contractName": "AssetMatcherCollection",
  "abi": [
    {
      "inputs": [
        {
          "components": [
            {
              "internalType": "bytes4",
              "name": "assetClass",
              "type": "bytes4"
            },
            {
              "internalType": "bytes",
              "name": "data",
              "type": "bytes"
            }
          ],
          "internalType": "struct LibAsset.AssetType",
          "name": "leftAssetType",
          "type": "tuple"
        },
        {
          "components": [
            {
              "internalType": "bytes4",
              "name": "assetClass",
              "type": "bytes4"
            },
            {
              "internalType": "bytes",
              "name": "data",
              "type": "bytes"
            }
          ],
          "internalType": "struct LibAsset.AssetType",
          "name": "rightAssetType",
          "type": "tuple"
        }
      ],
      "name": "matchAssets",
      "outputs": [
        {
          "components": [
            {
              "internalType": "bytes4",
              "name": "assetClass",
              "type": "bytes4"
            },
            {
              "internalType": "bytes",
              "name": "data",
              "type": "bytes"
            }
          ],
          "internalType": "struct LibAsset.AssetType",
          "name": "",
          "type": "tuple"
        }
      ],
      "stateMutability": "view",
      "type": "function"
    }
  ],
  "bytecode": "0x608060405234801561001057600080fd5b50610403806100206000396000f3fe608060405234801561001057600080fd5b506004361061002b5760003560e01c80636d3f7cb014610030575b600080fd5b61004361003e3660046102da565b610059565b604051610050919061033b565b60405180910390f35b610061610195565b81516001600160e01b0319166339d690a360e11b1480610092575081516001600160e01b03191663d8f960c160e01b145b806100ae575081516001600160e01b03191663025ceed960e61b145b806100c9575081516001600160e01b03191662737ea960e61b145b806100e5575081516001600160e01b031916630f9ae27560e21b145b1561016b5760008360200151806020019051810190610104919061028e565b90506000836020015180602001905181019061012091906102af565b509050806001600160a01b0316826001600160a01b031614156101685750506040805180820190915282516001600160e01b031916815260208084015190820152905061018f565b50505b50604080518082018252600080825282516020818101909452908152918101919091525b92915050565b60408051808201909152600081526060602082015290565b80516001600160a01b03811681146101c457600080fd5b919050565b6000604082840312156101da578081fd5b6040516040810167ffffffffffffffff82821081831117156101f857fe5b816040528293508435915063ffffffff60e01b8216821461021857600080fd5b908252602090848201358181111561022f57600080fd5b8501601f8101871361024057600080fd5b80358281111561024c57fe5b61025e601f8201601f191685016103a9565b9250808352878482840101111561027457600080fd5b808483018585013760009083018401525091015292915050565b60006020828403121561029f578081fd5b6102a8826101ad565b9392505050565b600080604083850312156102c1578081fd5b6102ca836101ad565b9150602083015190509250929050565b600080604083850312156102ec578182fd5b823567ffffffffffffffff80821115610303578384fd5b61030f868387016101c9565b93506020850135915080821115610324578283fd5b50610331858286016101c9565b9150509250929050565b6000602080835263ffffffff60e01b84511681840152808401516040808501528051806060860152835b8181101561038157828101840151868201608001528301610365565b818111156103925784608083880101525b50601f01601f191693909301608001949350505050565b60405181810167ffffffffffffffff811182821017156103c557fe5b60405291905056fea264697066735822122087d49eb90191b0e356d8abeec9783e3ea7a7f0c7fba665699cb55bbd576cd98b64736f6c63430007060033",
  "immutableReferences": {},
  "source": "// SPDX-License-Identifier: MIT\n\npragma solidity 0.7.6;\npragma abicoder v2;\n\nimport \"@rarible/exchange-interfaces/contracts/IAssetMatcher.sol\";\nimport \"@rarible/lazy-mint/contracts/erc-721/LibERC721LazyMint.sol\";\nimport \"@rarible/lazy-mint/contracts/erc-1155/LibERC1155LazyMint.sol\";\n\n/*\n * Custom matcher for collection (assetClass, that need any/all elements from collection)\n */\ncontract AssetMatcherCollection is IAssetMatcher {\n\n    bytes constant EMPTY = \"\";\n\n    function matchAssets(LibAsset.AssetType memory leftAssetType, LibAsset.AssetType memory rightAssetType) public view override returns (LibAsset.AssetType memory) {\n        if (\n            (rightAssetType.assetClass == LibAsset.ERC721_ASSET_CLASS) || \n            (rightAssetType.assetClass == LibERC721LazyMint.ERC721_LAZY_ASSET_CLASS) ||\n            (rightAssetType.assetClass == LibAsset.ERC1155_ASSET_CLASS) || \n            (rightAssetType.assetClass == LibERC1155LazyMint.ERC1155_LAZY_ASSET_CLASS) ||\n            (rightAssetType.assetClass == LibAsset.CRYPTO_PUNKS)\n        ) {\n          (address leftToken) = abi.decode(leftAssetType.data, (address));\n          (address rightToken,) = abi.decode(rightAssetType.data, (address, uint));\n          if (leftToken == rightToken) {\n              return LibAsset.AssetType(rightAssetType.assetClass, rightAssetType.data);\n          }\n        }\n        return LibAsset.AssetType(0, EMPTY);\n    }\n}",
  "sourcePath": "@rarible/custom-matchers/contracts/AssetMatcherCollection.sol",
  "compiler": {
    "name": "solc",
    "version": "0.7.6+commit.7338295f.Emscripten.clang"
  },
  "schemaVersion": "3.4.3",
  "updatedAt": "2022-02-03T19:39:46.851Z",
  "devdoc": {
    "kind": "dev",
    "methods": {},
    "version": 1
  },
  "userdoc": {
    "kind": "user",
    "methods": {},
    "version": 1
  }
}