{
  "contractName": "ERC1155BaseURI",
  "abi": [
    {
      "anonymous": false,
      "inputs": [
        {
          "indexed": true,
          "internalType": "address",
          "name": "account",
          "type": "address"
        },
        {
          "indexed": true,
          "internalType": "address",
          "name": "operator",
          "type": "address"
        },
        {
          "indexed": false,
          "internalType": "bool",
          "name": "approved",
          "type": "bool"
        }
      ],
      "name": "ApprovalForAll",
      "type": "event"
    },
    {
      "anonymous": false,
      "inputs": [
        {
          "indexed": true,
          "internalType": "address",
          "name": "operator",
          "type": "address"
        },
        {
          "indexed": true,
          "internalType": "address",
          "name": "from",
          "type": "address"
        },
        {
          "indexed": true,
          "internalType": "address",
          "name": "to",
          "type": "address"
        },
        {
          "indexed": false,
          "internalType": "uint256[]",
          "name": "ids",
          "type": "uint256[]"
        },
        {
          "indexed": false,
          "internalType": "uint256[]",
          "name": "values",
          "type": "uint256[]"
        }
      ],
      "name": "TransferBatch",
      "type": "event"
    },
    {
      "anonymous": false,
      "inputs": [
        {
          "indexed": true,
          "internalType": "address",
          "name": "operator",
          "type": "address"
        },
        {
          "indexed": true,
          "internalType": "address",
          "name": "from",
          "type": "address"
        },
        {
          "indexed": true,
          "internalType": "address",
          "name": "to",
          "type": "address"
        },
        {
          "indexed": false,
          "internalType": "uint256",
          "name": "id",
          "type": "uint256"
        },
        {
          "indexed": false,
          "internalType": "uint256",
          "name": "value",
          "type": "uint256"
        }
      ],
      "name": "TransferSingle",
      "type": "event"
    },
    {
      "anonymous": false,
      "inputs": [
        {
          "indexed": false,
          "internalType": "string",
          "name": "value",
          "type": "string"
        },
        {
          "indexed": true,
          "internalType": "uint256",
          "name": "id",
          "type": "uint256"
        }
      ],
      "name": "URI",
      "type": "event"
    },
    {
      "inputs": [
        {
          "internalType": "address",
          "name": "account",
          "type": "address"
        },
        {
          "internalType": "uint256",
          "name": "id",
          "type": "uint256"
        }
      ],
      "name": "balanceOf",
      "outputs": [
        {
          "internalType": "uint256",
          "name": "",
          "type": "uint256"
        }
      ],
      "stateMutability": "view",
      "type": "function"
    },
    {
      "inputs": [
        {
          "internalType": "address[]",
          "name": "accounts",
          "type": "address[]"
        },
        {
          "internalType": "uint256[]",
          "name": "ids",
          "type": "uint256[]"
        }
      ],
      "name": "balanceOfBatch",
      "outputs": [
        {
          "internalType": "uint256[]",
          "name": "",
          "type": "uint256[]"
        }
      ],
      "stateMutability": "view",
      "type": "function"
    },
    {
      "inputs": [
        {
          "internalType": "address",
          "name": "account",
          "type": "address"
        },
        {
          "internalType": "address",
          "name": "operator",
          "type": "address"
        }
      ],
      "name": "isApprovedForAll",
      "outputs": [
        {
          "internalType": "bool",
          "name": "",
          "type": "bool"
        }
      ],
      "stateMutability": "view",
      "type": "function"
    },
    {
      "inputs": [
        {
          "internalType": "address",
          "name": "from",
          "type": "address"
        },
        {
          "internalType": "address",
          "name": "to",
          "type": "address"
        },
        {
          "internalType": "uint256[]",
          "name": "ids",
          "type": "uint256[]"
        },
        {
          "internalType": "uint256[]",
          "name": "amounts",
          "type": "uint256[]"
        },
        {
          "internalType": "bytes",
          "name": "data",
          "type": "bytes"
        }
      ],
      "name": "safeBatchTransferFrom",
      "outputs": [],
      "stateMutability": "nonpayable",
      "type": "function"
    },
    {
      "inputs": [
        {
          "internalType": "address",
          "name": "from",
          "type": "address"
        },
        {
          "internalType": "address",
          "name": "to",
          "type": "address"
        },
        {
          "internalType": "uint256",
          "name": "id",
          "type": "uint256"
        },
        {
          "internalType": "uint256",
          "name": "amount",
          "type": "uint256"
        },
        {
          "internalType": "bytes",
          "name": "data",
          "type": "bytes"
        }
      ],
      "name": "safeTransferFrom",
      "outputs": [],
      "stateMutability": "nonpayable",
      "type": "function"
    },
    {
      "inputs": [
        {
          "internalType": "address",
          "name": "operator",
          "type": "address"
        },
        {
          "internalType": "bool",
          "name": "approved",
          "type": "bool"
        }
      ],
      "name": "setApprovalForAll",
      "outputs": [],
      "stateMutability": "nonpayable",
      "type": "function"
    },
    {
      "inputs": [
        {
          "internalType": "bytes4",
          "name": "interfaceId",
          "type": "bytes4"
        }
      ],
      "name": "supportsInterface",
      "outputs": [
        {
          "internalType": "bool",
          "name": "",
          "type": "bool"
        }
      ],
      "stateMutability": "view",
      "type": "function"
    },
    {
      "inputs": [],
      "name": "baseURI",
      "outputs": [
        {
          "internalType": "string",
          "name": "",
          "type": "string"
        }
      ],
      "stateMutability": "view",
      "type": "function"
    },
    {
      "inputs": [
        {
          "internalType": "uint256",
          "name": "id",
          "type": "uint256"
        }
      ],
      "name": "uri",
      "outputs": [
        {
          "internalType": "string",
          "name": "",
          "type": "string"
        }
      ],
      "stateMutability": "view",
      "type": "function"
    }
  ],
  "bytecode": "0x608060405234801561001057600080fd5b506118f0806100206000396000f3fe608060405234801561001057600080fd5b50600436106100925760003560e01c80634e1273f4116100665780634e1273f4146103655780636c0360eb146104d8578063a22cb465146104e0578063e985e9c51461050e578063f242432a1461053c57610092565b8062fdd58e1461009757806301ffc9a7146100d55780630e89341c146101105780632eb2c2d6146101a2575b600080fd5b6100c3600480360360408110156100ad57600080fd5b506001600160a01b038135169060200135610605565b60408051918252519081900360200190f35b6100fc600480360360208110156100eb57600080fd5b50356001600160e01b031916610674565b604080519115158252519081900360200190f35b61012d6004803603602081101561012657600080fd5b5035610697565b6040805160208082528351818301528351919283929083019185019080838360005b8381101561016757818101518382015260200161014f565b50505050905090810190601f1680156101945780820380516001836020036101000a031916815260200191505b509250505060405180910390f35b610363600480360360a08110156101b857600080fd5b6001600160a01b038235811692602081013590911691810190606081016040820135600160201b8111156101eb57600080fd5b8201836020820111156101fd57600080fd5b803590602001918460208302840111600160201b8311171561021e57600080fd5b9190808060200260200160405190810160405280939291908181526020018383602002808284376000920191909152509295949360208101935035915050600160201b81111561026d57600080fd5b82018360208201111561027f57600080fd5b803590602001918460208302840111600160201b831117156102a057600080fd5b9190808060200260200160405190810160405280939291908181526020018383602002808284376000920191909152509295949360208101935035915050600160201b8111156102ef57600080fd5b82018360208201111561030157600080fd5b803590602001918460018302840111600160201b8311171561032257600080fd5b91908080601f0160208091040260200160405190810160405280939291908181526020018383808284376000920191909152509295506106a8945050505050565b005b6104886004803603604081101561037b57600080fd5b810190602081018135600160201b81111561039557600080fd5b8201836020820111156103a757600080fd5b803590602001918460208302840111600160201b831117156103c857600080fd5b9190808060200260200160405190810160405280939291908181526020018383602002808284376000920191909152509295949360208101935035915050600160201b81111561041757600080fd5b82018360208201111561042957600080fd5b803590602001918460208302840111600160201b8311171561044a57600080fd5b9190808060200260200160405190810160405280939291908181526020018383602002808284376000920191909152509295506109ab945050505050565b60408051602080825283518183015283519192839290830191858101910280838360005b838110156104c45781810151838201526020016104ac565b505050509050019250505060405180910390f35b61012d610a97565b610363600480360360408110156104f657600080fd5b506001600160a01b0381351690602001351515610b2e565b6100fc6004803603604081101561052457600080fd5b506001600160a01b0381358116916020013516610c1d565b610363600480360360a081101561055257600080fd5b6001600160a01b03823581169260208101359091169160408201359160608101359181019060a081016080820135600160201b81111561059157600080fd5b8201836020820111156105a357600080fd5b803590602001918460018302840111600160201b831117156105c457600080fd5b91908080601f016020809104026020016040519081016040528093929190818152602001838380828437600092019190915250929550610c4b945050505050565b60006001600160a01b03831661064c5760405162461bcd60e51b815260040180806020018281038252602b81526020018061176c602b913960400191505060405180910390fd5b5060009081526065602090815260408083206001600160a01b03949094168352929052205490565b6001600160e01b0319811660009081526033602052604090205460ff165b919050565b60606106a282610e16565b92915050565b81518351146106e85760405162461bcd60e51b81526004018080602001828103825260288152602001806118936028913960400191505060405180910390fd5b6001600160a01b03841661072d5760405162461bcd60e51b81526004018080602001828103825260258152602001806117c06025913960400191505060405180910390fd5b610735611052565b6001600160a01b0316856001600160a01b0316148061076057506107608561075b611052565b610c1d565b61079b5760405162461bcd60e51b81526004018080602001828103825260328152602001806117e56032913960400191505060405180910390fd5b60006107a5611052565b90506107b58187878787876109a3565b60005b84518110156108bb5760008582815181106107cf57fe5b6020026020010151905060008583815181106107e757fe5b60200260200101519050610854816040518060600160405280602a8152602001611817602a91396065600086815260200190815260200160002060008d6001600160a01b03166001600160a01b03168152602001908152602001600020546110569092919063ffffffff16565b60008381526065602090815260408083206001600160a01b038e811685529252808320939093558a168152205461088b90826110ed565b60009283526065602090815260408085206001600160a01b038c16865290915290922091909155506001016107b8565b50846001600160a01b0316866001600160a01b0316826001600160a01b03167f4a39dc06d4c0dbc64b70af90fd698a233a518aa5d07e595d983b8c0526c8f7fb8787604051808060200180602001838103835285818151815260200191508051906020019060200280838360005b83811015610941578181015183820152602001610929565b50505050905001838103825284818151815260200191508051906020019060200280838360005b83811015610980578181015183820152602001610968565b5050505090500194505050505060405180910390a46109a381878787878761114e565b505050505050565b606081518351146109ed5760405162461bcd60e51b815260040180806020018281038252602981526020018061186a6029913960400191505060405180910390fd5b6000835167ffffffffffffffff81118015610a0757600080fd5b50604051908082528060200260200182016040528015610a31578160200160208202803683370190505b50905060005b8451811015610a8f57610a70858281518110610a4f57fe5b6020026020010151858381518110610a6357fe5b6020026020010151610605565b828281518110610a7c57fe5b6020908102919091010152600101610a37565b509392505050565b60988054604080516020601f6002600019610100600188161502019095169490940493840181900481028201810190925282815260609390929091830182828015610b235780601f10610af857610100808354040283529160200191610b23565b820191906000526020600020905b815481529060010190602001808311610b0657829003601f168201915b505050505090505b90565b816001600160a01b0316610b40611052565b6001600160a01b03161415610b865760405162461bcd60e51b81526004018080602001828103825260298152602001806118416029913960400191505060405180910390fd5b8060666000610b93611052565b6001600160a01b03908116825260208083019390935260409182016000908120918716808252919093529120805460ff191692151592909217909155610bd7611052565b6001600160a01b03167f17307eab39ab6107e8899845ad3d59bd9653f200f220920489ca2b5937696c318360405180821515815260200191505060405180910390a35050565b6001600160a01b03918216600090815260666020908152604080832093909416825291909152205460ff1690565b6001600160a01b038416610c905760405162461bcd60e51b81526004018080602001828103825260258152602001806117c06025913960400191505060405180910390fd5b610c98611052565b6001600160a01b0316856001600160a01b03161480610cbe5750610cbe8561075b611052565b610cf95760405162461bcd60e51b81526004018080602001828103825260298152602001806117976029913960400191505060405180910390fd5b6000610d03611052565b9050610d23818787610d14886113cd565b610d1d886113cd565b876109a3565b610d6a836040518060600160405280602a8152602001611817602a913960008781526065602090815260408083206001600160a01b038d1684529091529020549190611056565b60008581526065602090815260408083206001600160a01b038b81168552925280832093909355871681522054610da190846110ed565b60008581526065602090815260408083206001600160a01b03808b168086529184529382902094909455805188815291820187905280518a8416938616927fc3d58168c5ae7397731d063d5bbf3d657854427343f4c083240f7aacaa2d0f6292908290030190a46109a3818787878787611412565b600081815260976020908152604080832080548251601f6002600019610100600186161502019093169290920491820185900485028101850190935280835260609493830182828015610eaa5780601f10610e7f57610100808354040283529160200191610eaa565b820191906000526020600020905b815481529060010190602001808311610e8d57829003601f168201915b505050505090506000610ebb610a97565b9050805160001415610ecf57509050610692565b815115610f905780826040516020018083805190602001908083835b60208310610f0a5780518252601f199092019160209182019101610eeb565b51815160209384036101000a600019018019909216911617905285519190930192850191508083835b60208310610f525780518252601f199092019160209182019101610f33565b6001836020036101000a0380198251168184511680821785525050505050509050019250505060405160208183030381529060405292505050610692565b80610f9a85611583565b6040516020018083805190602001908083835b60208310610fcc5780518252601f199092019160209182019101610fad565b51815160209384036101000a600019018019909216911617905285519190930192850191508083835b602083106110145780518252601f199092019160209182019101610ff5565b6001836020036101000a0380198251168184511680821785525050505050509050019250505060405160208183030381529060405292505050919050565b3390565b600081848411156110e55760405162461bcd60e51b81526004018080602001828103825283818151815260200191508051906020019080838360005b838110156110aa578181015183820152602001611092565b50505050905090810190601f1680156110d75780820380516001836020036101000a031916815260200191505b509250505060405180910390fd5b505050900390565b600082820183811015611147576040805162461bcd60e51b815260206004820152601b60248201527f536166654d6174683a206164646974696f6e206f766572666c6f770000000000604482015290519081900360640190fd5b9392505050565b611160846001600160a01b031661165e565b156109a357836001600160a01b031663bc197c8187878686866040518663ffffffff1660e01b815260040180866001600160a01b03168152602001856001600160a01b03168152602001806020018060200180602001848103845287818151815260200191508051906020019060200280838360005b838110156111ee5781810151838201526020016111d6565b50505050905001848103835286818151815260200191508051906020019060200280838360005b8381101561122d578181015183820152602001611215565b50505050905001848103825285818151815260200191508051906020019080838360005b83811015611269578181015183820152602001611251565b50505050905090810190601f1680156112965780820380516001836020036101000a031916815260200191505b5098505050505050505050602060405180830381600087803b1580156112bb57600080fd5b505af19250505080156112e057506040513d60208110156112db57600080fd5b505160015b611375576112ec61166a565b806112f7575061133e565b60405162461bcd60e51b81526020600482018181528351602484015283518493919283926044019190850190808383600083156110aa578181015183820152602001611092565b60405162461bcd60e51b81526004018080602001828103825260348152602001806117106034913960400191505060405180910390fd5b6001600160e01b0319811663bc197c8160e01b146113c45760405162461bcd60e51b81526004018080602001828103825260288152602001806117446028913960400191505060405180910390fd5b50505050505050565b6040805160018082528183019092526060916000919060208083019080368337019050509050828160008151811061140157fe5b602090810291909101015292915050565b611424846001600160a01b031661165e565b156109a357836001600160a01b031663f23a6e6187878686866040518663ffffffff1660e01b815260040180866001600160a01b03168152602001856001600160a01b0316815260200184815260200183815260200180602001828103825283818151815260200191508051906020019080838360005b838110156114b357818101518382015260200161149b565b50505050905090810190601f1680156114e05780820380516001836020036101000a031916815260200191505b509650505050505050602060405180830381600087803b15801561150357600080fd5b505af192505050801561152857506040513d602081101561152357600080fd5b505160015b611534576112ec61166a565b6001600160e01b0319811663f23a6e6160e01b146113c45760405162461bcd60e51b81526004018080602001828103825260288152602001806117446028913960400191505060405180910390fd5b6060816115a857506040805180820190915260018152600360fc1b6020820152610692565b8160005b81156115c057600101600a820491506115ac565b60008167ffffffffffffffff811180156115d957600080fd5b506040519080825280601f01601f191660200182016040528015611604576020820181803683370190505b50859350905060001982015b831561165557600a840660300160f81b8282806001900393508151811061163357fe5b60200101906001600160f81b031916908160001a905350600a84049350611610565b50949350505050565b3b151590565b60e01c90565b600060443d101561167a57610b2b565b600481823e6308c379a061168e8251611664565b1461169857610b2b565b6040513d600319016004823e80513d67ffffffffffffffff81602484011181841117156116c85750505050610b2b565b828401925082519150808211156116e25750505050610b2b565b503d830160208284010111156116fa57505050610b2b565b601f01601f191681016020016040529150509056fe455243313135353a207472616e7366657220746f206e6f6e2045524331313535526563656976657220696d706c656d656e746572455243313135353a204552433131353552656365697665722072656a656374656420746f6b656e73455243313135353a2062616c616e636520717565727920666f7220746865207a65726f2061646472657373455243313135353a2063616c6c6572206973206e6f74206f776e6572206e6f7220617070726f766564455243313135353a207472616e7366657220746f20746865207a65726f2061646472657373455243313135353a207472616e736665722063616c6c6572206973206e6f74206f776e6572206e6f7220617070726f766564455243313135353a20696e73756666696369656e742062616c616e636520666f72207472616e73666572455243313135353a2073657474696e6720617070726f76616c2073746174757320666f722073656c66455243313135353a206163636f756e747320616e6420696473206c656e677468206d69736d61746368455243313135353a2069647320616e6420616d6f756e7473206c656e677468206d69736d61746368a26469706673582212202a1a9d22e5e589ac5cc18481662969a6df45721c957059dc6051150ce2cd070164736f6c63430007060033",
  "immutableReferences": {},
  "source": "// SPDX-License-Identifier: MIT\n\npragma solidity 0.7.6;\n\nimport \"@openzeppelin/contracts-upgradeable/utils/StringsUpgradeable.sol\";\nimport \"./ERC1155Upgradeable.sol\";\n\ncontract ERC1155BaseURI is ERC1155Upgradeable {\n    using StringsUpgradeable for uint;\n\n    // Optional mapping for token URIs\n    mapping (uint256 => string) private _tokenURIs;\n\n    // Base URI\n    string private _baseURI;\n\n    /**\n    * @dev Returns the base URI set via {_setBaseURI}. This will be\n    * automatically added as a prefix in {tokenURI} to each token's URI, or\n    * to the token ID if no specific URI is set for that token ID.\n    */\n    function baseURI() public view virtual returns (string memory) {\n        return _baseURI;\n    }\n\n    function uri(uint id) external view override virtual returns (string memory) {\n        return _tokenURI(id);\n    }\n\n    function _tokenURI(uint256 tokenId) internal view virtual returns (string memory) {\n        string memory _tokenURI = _tokenURIs[tokenId];\n        string memory base = baseURI();\n\n        // If there is no base URI, return the token URI.\n        if (bytes(base).length == 0) {\n            return _tokenURI;\n        }\n        // If both are set, concatenate the baseURI and tokenURI (via abi.encodePacked).\n        if (bytes(_tokenURI).length > 0) {\n            return string(abi.encodePacked(base, _tokenURI));\n        }\n        // If there is a baseURI but no tokenURI, concatenate the tokenID to the baseURI.\n        return string(abi.encodePacked(base, tokenId.toString()));\n    }\n\n    /**\n     * @dev Sets `_tokenURI` as the tokenURI of `tokenId`.\n     *\n     * Requirements:\n     *\n     * - `tokenId` must exist.\n     */\n    function _setTokenURI(uint256 tokenId, string memory _uri) internal virtual {\n        _tokenURIs[tokenId] = _uri;\n        emit URI(_tokenURI(tokenId), tokenId);\n    }\n\n    /**\n     * @dev Internal function to set the base URI for all token IDs. It is\n     * automatically added as a prefix to the value returned in {tokenURI},\n     * or to the token ID if {tokenURI} is empty.\n     */\n    function _setBaseURI(string memory baseURI_) internal virtual {\n        _baseURI = baseURI_;\n    }\n\n    uint256[50] private __gap;\n}\n",
  "sourcePath": "@rarible/tokens/contracts/erc-1155/ERC1155BaseURI.sol",
  "compiler": {
    "name": "solc",
    "version": "0.7.6+commit.7338295f.Emscripten.clang"
  },
  "schemaVersion": "3.4.3",
  "updatedAt": "2021-11-12T15:33:11.929Z",
  "devdoc": {
    "kind": "dev",
    "methods": {
      "balanceOf(address,uint256)": {
        "details": "See {IERC1155-balanceOf}. Requirements: - `account` cannot be the zero address."
      },
      "balanceOfBatch(address[],uint256[])": {
        "details": "See {IERC1155-balanceOfBatch}. Requirements: - `accounts` and `ids` must have the same length."
      },
      "baseURI()": {
        "details": "Returns the base URI set via {_setBaseURI}. This will be automatically added as a prefix in {tokenURI} to each token's URI, or to the token ID if no specific URI is set for that token ID."
      },
      "isApprovedForAll(address,address)": {
        "details": "See {IERC1155-isApprovedForAll}."
      },
      "safeBatchTransferFrom(address,address,uint256[],uint256[],bytes)": {
        "details": "See {IERC1155-safeBatchTransferFrom}."
      },
      "safeTransferFrom(address,address,uint256,uint256,bytes)": {
        "details": "See {IERC1155-safeTransferFrom}."
      },
      "setApprovalForAll(address,bool)": {
        "details": "See {IERC1155-setApprovalForAll}."
      },
      "supportsInterface(bytes4)": {
        "details": "See {IERC165-supportsInterface}. Time complexity O(1), guaranteed to always use less than 30 000 gas."
      }
    },
    "version": 1
  },
  "userdoc": {
    "kind": "user",
    "methods": {},
    "version": 1
  }
}