{
  "contractName": "ERC1155Rarible",
  "abi": [
    {
      "anonymous": false,
      "inputs": [
        {
          "indexed": true,
          "internalType": "address",
          "name": "account",
          "type": "address"
        },
        {
          "indexed": true,
          "internalType": "address",
          "name": "operator",
          "type": "address"
        },
        {
          "indexed": false,
          "internalType": "bool",
          "name": "approved",
          "type": "bool"
        }
      ],
      "name": "ApprovalForAll",
      "type": "event"
    },
    {
      "anonymous": false,
      "inputs": [
        {
          "indexed": false,
          "internalType": "string",
          "name": "newBaseURI",
          "type": "string"
        }
      ],
      "name": "BaseUriChanged",
      "type": "event"
    },
    {
      "anonymous": false,
      "inputs": [
        {
          "indexed": true,
          "internalType": "address",
          "name": "operator",
          "type": "address"
        },
        {
          "indexed": true,
          "internalType": "address",
          "name": "account",
          "type": "address"
        },
        {
          "indexed": false,
          "internalType": "uint256",
          "name": "id",
          "type": "uint256"
        },
        {
          "indexed": false,
          "internalType": "uint256",
          "name": "amount",
          "type": "uint256"
        }
      ],
      "name": "BurnLazy",
      "type": "event"
    },
    {
      "anonymous": false,
      "inputs": [
        {
          "indexed": true,
          "internalType": "address",
          "name": "operator",
          "type": "address"
        },
        {
          "indexed": true,
          "internalType": "address",
          "name": "account",
          "type": "address"
        },
        {
          "indexed": false,
          "internalType": "uint256[]",
          "name": "ids",
          "type": "uint256[]"
        },
        {
          "indexed": false,
          "internalType": "uint256[]",
          "name": "amounts",
          "type": "uint256[]"
        }
      ],
      "name": "BurnLazyBatch",
      "type": "event"
    },
    {
      "anonymous": false,
      "inputs": [
        {
          "indexed": false,
          "internalType": "address",
          "name": "owner",
          "type": "address"
        },
        {
          "indexed": false,
          "internalType": "string",
          "name": "name",
          "type": "string"
        },
        {
          "indexed": false,
          "internalType": "string",
          "name": "symbol",
          "type": "string"
        }
      ],
      "name": "CreateERC1155Rarible",
      "type": "event"
    },
    {
      "anonymous": false,
      "inputs": [
        {
          "indexed": false,
          "internalType": "address",
          "name": "owner",
          "type": "address"
        },
        {
          "indexed": false,
          "internalType": "string",
          "name": "name",
          "type": "string"
        },
        {
          "indexed": false,
          "internalType": "string",
          "name": "symbol",
          "type": "string"
        }
      ],
      "name": "CreateERC1155RaribleUser",
      "type": "event"
    },
    {
      "anonymous": false,
      "inputs": [
        {
          "indexed": false,
          "internalType": "uint256",
          "name": "tokenId",
          "type": "uint256"
        },
        {
          "components": [
            {
              "internalType": "address payable",
              "name": "account",
              "type": "address"
            },
            {
              "internalType": "uint96",
              "name": "value",
              "type": "uint96"
            }
          ],
          "indexed": false,
          "internalType": "struct LibPart.Part[]",
          "name": "creators",
          "type": "tuple[]"
        }
      ],
      "name": "Creators",
      "type": "event"
    },
    {
      "anonymous": false,
      "inputs": [
        {
          "indexed": true,
          "internalType": "address",
          "name": "operator",
          "type": "address"
        },
        {
          "indexed": false,
          "internalType": "bool",
          "name": "hasApproval",
          "type": "bool"
        }
      ],
      "name": "DefaultApproval",
      "type": "event"
    },
    {
      "anonymous": false,
      "inputs": [
        {
          "indexed": true,
          "internalType": "address",
          "name": "minter",
          "type": "address"
        },
        {
          "indexed": true,
          "internalType": "bool",
          "name": "status",
          "type": "bool"
        }
      ],
      "name": "MinterStatusChanged",
      "type": "event"
    },
    {
      "anonymous": false,
      "inputs": [
        {
          "indexed": true,
          "internalType": "address",
          "name": "previousOwner",
          "type": "address"
        },
        {
          "indexed": true,
          "internalType": "address",
          "name": "newOwner",
          "type": "address"
        }
      ],
      "name": "OwnershipTransferred",
      "type": "event"
    },
    {
      "anonymous": false,
      "inputs": [
        {
          "indexed": false,
          "internalType": "uint256",
          "name": "tokenId",
          "type": "uint256"
        },
        {
          "components": [
            {
              "internalType": "address payable",
              "name": "account",
              "type": "address"
            },
            {
              "internalType": "uint96",
              "name": "value",
              "type": "uint96"
            }
          ],
          "indexed": false,
          "internalType": "struct LibPart.Part[]",
          "name": "royalties",
          "type": "tuple[]"
        }
      ],
      "name": "RoyaltiesSet",
      "type": "event"
    },
    {
      "anonymous": false,
      "inputs": [
        {
          "indexed": false,
          "internalType": "uint256",
          "name": "tokenId",
          "type": "uint256"
        },
        {
          "indexed": false,
          "internalType": "uint256",
          "name": "value",
          "type": "uint256"
        }
      ],
      "name": "Supply",
      "type": "event"
    },
    {
      "anonymous": false,
      "inputs": [
        {
          "indexed": true,
          "internalType": "address",
          "name": "operator",
          "type": "address"
        },
        {
          "indexed": true,
          "internalType": "address",
          "name": "from",
          "type": "address"
        },
        {
          "indexed": true,
          "internalType": "address",
          "name": "to",
          "type": "address"
        },
        {
          "indexed": false,
          "internalType": "uint256[]",
          "name": "ids",
          "type": "uint256[]"
        },
        {
          "indexed": false,
          "internalType": "uint256[]",
          "name": "values",
          "type": "uint256[]"
        }
      ],
      "name": "TransferBatch",
      "type": "event"
    },
    {
      "anonymous": false,
      "inputs": [
        {
          "indexed": true,
          "internalType": "address",
          "name": "operator",
          "type": "address"
        },
        {
          "indexed": true,
          "internalType": "address",
          "name": "from",
          "type": "address"
        },
        {
          "indexed": true,
          "internalType": "address",
          "name": "to",
          "type": "address"
        },
        {
          "indexed": false,
          "internalType": "uint256",
          "name": "id",
          "type": "uint256"
        },
        {
          "indexed": false,
          "internalType": "uint256",
          "name": "value",
          "type": "uint256"
        }
      ],
      "name": "TransferSingle",
      "type": "event"
    },
    {
      "anonymous": false,
      "inputs": [
        {
          "indexed": false,
          "internalType": "string",
          "name": "value",
          "type": "string"
        },
        {
          "indexed": true,
          "internalType": "uint256",
          "name": "id",
          "type": "uint256"
        }
      ],
      "name": "URI",
      "type": "event"
    },
    {
      "inputs": [
        {
          "internalType": "address",
          "name": "_minter",
          "type": "address"
        }
      ],
      "name": "addMinter",
      "outputs": [],
      "stateMutability": "nonpayable",
      "type": "function"
    },
    {
      "inputs": [
        {
          "internalType": "address",
          "name": "account",
          "type": "address"
        },
        {
          "internalType": "uint256",
          "name": "id",
          "type": "uint256"
        }
      ],
      "name": "balanceOf",
      "outputs": [
        {
          "internalType": "uint256",
          "name": "",
          "type": "uint256"
        }
      ],
      "stateMutability": "view",
      "type": "function"
    },
    {
      "inputs": [
        {
          "internalType": "address[]",
          "name": "accounts",
          "type": "address[]"
        },
        {
          "internalType": "uint256[]",
          "name": "ids",
          "type": "uint256[]"
        }
      ],
      "name": "balanceOfBatch",
      "outputs": [
        {
          "internalType": "uint256[]",
          "name": "",
          "type": "uint256[]"
        }
      ],
      "stateMutability": "view",
      "type": "function"
    },
    {
      "inputs": [],
      "name": "baseURI",
      "outputs": [
        {
          "internalType": "string",
          "name": "",
          "type": "string"
        }
      ],
      "stateMutability": "view",
      "type": "function"
    },
    {
      "inputs": [
        {
          "internalType": "address",
          "name": "account",
          "type": "address"
        },
        {
          "internalType": "uint256",
          "name": "id",
          "type": "uint256"
        },
        {
          "internalType": "uint256",
          "name": "amount",
          "type": "uint256"
        }
      ],
      "name": "burn",
      "outputs": [],
      "stateMutability": "nonpayable",
      "type": "function"
    },
    {
      "inputs": [
        {
          "internalType": "address",
          "name": "account",
          "type": "address"
        },
        {
          "internalType": "uint256[]",
          "name": "ids",
          "type": "uint256[]"
        },
        {
          "internalType": "uint256[]",
          "name": "amounts",
          "type": "uint256[]"
        }
      ],
      "name": "burnBatch",
      "outputs": [],
      "stateMutability": "nonpayable",
      "type": "function"
    },
    {
      "inputs": [],
      "name": "contractURI",
      "outputs": [
        {
          "internalType": "string",
          "name": "",
          "type": "string"
        }
      ],
      "stateMutability": "view",
      "type": "function"
    },
    {
      "inputs": [
        {
          "internalType": "uint256",
          "name": "",
          "type": "uint256"
        },
        {
          "internalType": "uint256",
          "name": "",
          "type": "uint256"
        }
      ],
      "name": "creators",
      "outputs": [
        {
          "internalType": "address payable",
          "name": "account",
          "type": "address"
        },
        {
          "internalType": "uint96",
          "name": "value",
          "type": "uint96"
        }
      ],
      "stateMutability": "view",
      "type": "function"
    },
    {
      "inputs": [
        {
          "internalType": "uint256",
          "name": "_id",
          "type": "uint256"
        }
      ],
      "name": "getCreators",
      "outputs": [
        {
          "components": [
            {
              "internalType": "address payable",
              "name": "account",
              "type": "address"
            },
            {
              "internalType": "uint96",
              "name": "value",
              "type": "uint96"
            }
          ],
          "internalType": "struct LibPart.Part[]",
          "name": "",
          "type": "tuple[]"
        }
      ],
      "stateMutability": "view",
      "type": "function"
    },
    {
      "inputs": [
        {
          "internalType": "uint256",
          "name": "id",
          "type": "uint256"
        }
      ],
      "name": "getRaribleV2Royalties",
      "outputs": [
        {
          "components": [
            {
              "internalType": "address payable",
              "name": "account",
              "type": "address"
            },
            {
              "internalType": "uint96",
              "name": "value",
              "type": "uint96"
            }
          ],
          "internalType": "struct LibPart.Part[]",
          "name": "",
          "type": "tuple[]"
        }
      ],
      "stateMutability": "view",
      "type": "function"
    },
    {
      "inputs": [
        {
          "internalType": "address",
          "name": "_owner",
          "type": "address"
        },
        {
          "internalType": "address",
          "name": "_operator",
          "type": "address"
        }
      ],
      "name": "isApprovedForAll",
      "outputs": [
        {
          "internalType": "bool",
          "name": "",
          "type": "bool"
        }
      ],
      "stateMutability": "view",
      "type": "function"
    },
    {
      "inputs": [
        {
          "internalType": "address",
          "name": "account",
          "type": "address"
        }
      ],
      "name": "isMinter",
      "outputs": [
        {
          "internalType": "bool",
          "name": "",
          "type": "bool"
        }
      ],
      "stateMutability": "view",
      "type": "function"
    },
    {
      "inputs": [],
      "name": "name",
      "outputs": [
        {
          "internalType": "string",
          "name": "",
          "type": "string"
        }
      ],
      "stateMutability": "view",
      "type": "function"
    },
    {
      "inputs": [],
      "name": "owner",
      "outputs": [
        {
          "internalType": "address",
          "name": "",
          "type": "address"
        }
      ],
      "stateMutability": "view",
      "type": "function"
    },
    {
      "inputs": [
        {
          "internalType": "address",
          "name": "_minter",
          "type": "address"
        }
      ],
      "name": "removeMinter",
      "outputs": [],
      "stateMutability": "nonpayable",
      "type": "function"
    },
    {
      "inputs": [],
      "name": "renounceOwnership",
      "outputs": [],
      "stateMutability": "nonpayable",
      "type": "function"
    },
    {
      "inputs": [
        {
          "internalType": "uint256",
          "name": "id",
          "type": "uint256"
        },
        {
          "internalType": "uint256",
          "name": "_salePrice",
          "type": "uint256"
        }
      ],
      "name": "royaltyInfo",
      "outputs": [
        {
          "internalType": "address",
          "name": "receiver",
          "type": "address"
        },
        {
          "internalType": "uint256",
          "name": "royaltyAmount",
          "type": "uint256"
        }
      ],
      "stateMutability": "view",
      "type": "function"
    },
    {
      "inputs": [
        {
          "internalType": "address",
          "name": "from",
          "type": "address"
        },
        {
          "internalType": "address",
          "name": "to",
          "type": "address"
        },
        {
          "internalType": "uint256[]",
          "name": "ids",
          "type": "uint256[]"
        },
        {
          "internalType": "uint256[]",
          "name": "amounts",
          "type": "uint256[]"
        },
        {
          "internalType": "bytes",
          "name": "data",
          "type": "bytes"
        }
      ],
      "name": "safeBatchTransferFrom",
      "outputs": [],
      "stateMutability": "nonpayable",
      "type": "function"
    },
    {
      "inputs": [
        {
          "internalType": "address",
          "name": "from",
          "type": "address"
        },
        {
          "internalType": "address",
          "name": "to",
          "type": "address"
        },
        {
          "internalType": "uint256",
          "name": "id",
          "type": "uint256"
        },
        {
          "internalType": "uint256",
          "name": "amount",
          "type": "uint256"
        },
        {
          "internalType": "bytes",
          "name": "data",
          "type": "bytes"
        }
      ],
      "name": "safeTransferFrom",
      "outputs": [],
      "stateMutability": "nonpayable",
      "type": "function"
    },
    {
      "inputs": [
        {
          "internalType": "address",
          "name": "operator",
          "type": "address"
        },
        {
          "internalType": "bool",
          "name": "approved",
          "type": "bool"
        }
      ],
      "name": "setApprovalForAll",
      "outputs": [],
      "stateMutability": "nonpayable",
      "type": "function"
    },
    {
      "inputs": [
        {
          "internalType": "string",
          "name": "newBaseURI",
          "type": "string"
        }
      ],
      "name": "setBaseURI",
      "outputs": [],
      "stateMutability": "nonpayable",
      "type": "function"
    },
    {
      "inputs": [
        {
          "internalType": "bytes4",
          "name": "interfaceId",
          "type": "bytes4"
        }
      ],
      "name": "supportsInterface",
      "outputs": [
        {
          "internalType": "bool",
          "name": "",
          "type": "bool"
        }
      ],
      "stateMutability": "view",
      "type": "function"
    },
    {
      "inputs": [],
      "name": "symbol",
      "outputs": [
        {
          "internalType": "string",
          "name": "",
          "type": "string"
        }
      ],
      "stateMutability": "view",
      "type": "function"
    },
    {
      "inputs": [
        {
          "components": [
            {
              "internalType": "uint256",
              "name": "tokenId",
              "type": "uint256"
            },
            {
              "internalType": "string",
              "name": "tokenURI",
              "type": "string"
            },
            {
              "internalType": "uint256",
              "name": "supply",
              "type": "uint256"
            },
            {
              "components": [
                {
                  "internalType": "address payable",
                  "name": "account",
                  "type": "address"
                },
                {
                  "internalType": "uint96",
                  "name": "value",
                  "type": "uint96"
                }
              ],
              "internalType": "struct LibPart.Part[]",
              "name": "creators",
              "type": "tuple[]"
            },
            {
              "components": [
                {
                  "internalType": "address payable",
                  "name": "account",
                  "type": "address"
                },
                {
                  "internalType": "uint96",
                  "name": "value",
                  "type": "uint96"
                }
              ],
              "internalType": "struct LibPart.Part[]",
              "name": "royalties",
              "type": "tuple[]"
            },
            {
              "internalType": "bytes[]",
              "name": "signatures",
              "type": "bytes[]"
            }
          ],
          "internalType": "struct LibERC1155LazyMint.Mint1155Data",
          "name": "data",
          "type": "tuple"
        },
        {
          "internalType": "address",
          "name": "from",
          "type": "address"
        },
        {
          "internalType": "address",
          "name": "to",
          "type": "address"
        },
        {
          "internalType": "uint256",
          "name": "amount",
          "type": "uint256"
        }
      ],
      "name": "transferFromOrMint",
      "outputs": [],
      "stateMutability": "nonpayable",
      "type": "function"
    },
    {
      "inputs": [
        {
          "internalType": "address",
          "name": "newOwner",
          "type": "address"
        }
      ],
      "name": "transferOwnership",
      "outputs": [],
      "stateMutability": "nonpayable",
      "type": "function"
    },
    {
      "inputs": [
        {
          "internalType": "uint256",
          "name": "_id",
          "type": "uint256"
        },
        {
          "internalType": "address",
          "name": "_from",
          "type": "address"
        },
        {
          "internalType": "address",
          "name": "_to",
          "type": "address"
        }
      ],
      "name": "updateAccount",
      "outputs": [],
      "stateMutability": "nonpayable",
      "type": "function"
    },
    {
      "inputs": [
        {
          "internalType": "uint256",
          "name": "id",
          "type": "uint256"
        }
      ],
      "name": "uri",
      "outputs": [
        {
          "internalType": "string",
          "name": "",
          "type": "string"
        }
      ],
      "stateMutability": "view",
      "type": "function"
    },
    {
      "inputs": [
        {
          "internalType": "string",
          "name": "_name",
          "type": "string"
        },
        {
          "internalType": "string",
          "name": "_symbol",
          "type": "string"
        },
        {
          "internalType": "string",
          "name": "baseURI",
          "type": "string"
        },
        {
          "internalType": "string",
          "name": "contractURI",
          "type": "string"
        },
        {
          "internalType": "address[]",
          "name": "operators",
          "type": "address[]"
        },
        {
          "internalType": "address",
          "name": "transferProxy",
          "type": "address"
        },
        {
          "internalType": "address",
          "name": "lazyTransferProxy",
          "type": "address"
        }
      ],
      "name": "__ERC1155RaribleUser_init",
      "outputs": [],
      "stateMutability": "nonpayable",
      "type": "function"
    },
    {
      "inputs": [
        {
          "internalType": "string",
          "name": "_name",
          "type": "string"
        },
        {
          "internalType": "string",
          "name": "_symbol",
          "type": "string"
        },
        {
          "internalType": "string",
          "name": "baseURI",
          "type": "string"
        },
        {
          "internalType": "string",
          "name": "contractURI",
          "type": "string"
        },
        {
          "internalType": "address",
          "name": "transferProxy",
          "type": "address"
        },
        {
          "internalType": "address",
          "name": "lazyTransferProxy",
          "type": "address"
        }
      ],
      "name": "__ERC1155Rarible_init",
      "outputs": [],
      "stateMutability": "nonpayable",
      "type": "function"
    },
    {
      "inputs": [
        {
          "components": [
            {
              "internalType": "uint256",
              "name": "tokenId",
              "type": "uint256"
            },
            {
              "internalType": "string",
              "name": "tokenURI",
              "type": "string"
            },
            {
              "internalType": "uint256",
              "name": "supply",
              "type": "uint256"
            },
            {
              "components": [
                {
                  "internalType": "address payable",
                  "name": "account",
                  "type": "address"
                },
                {
                  "internalType": "uint96",
                  "name": "value",
                  "type": "uint96"
                }
              ],
              "internalType": "struct LibPart.Part[]",
              "name": "creators",
              "type": "tuple[]"
            },
            {
              "components": [
                {
                  "internalType": "address payable",
                  "name": "account",
                  "type": "address"
                },
                {
                  "internalType": "uint96",
                  "name": "value",
                  "type": "uint96"
                }
              ],
              "internalType": "struct LibPart.Part[]",
              "name": "royalties",
              "type": "tuple[]"
            },
            {
              "internalType": "bytes[]",
              "name": "signatures",
              "type": "bytes[]"
            }
          ],
          "internalType": "struct LibERC1155LazyMint.Mint1155Data",
          "name": "data",
          "type": "tuple"
        },
        {
          "internalType": "address",
          "name": "to",
          "type": "address"
        },
        {
          "internalType": "uint256",
          "name": "_amount",
          "type": "uint256"
        }
      ],
      "name": "mintAndTransfer",
      "outputs": [],
      "stateMutability": "nonpayable",
      "type": "function"
    }
  ],
  "bytecode": "0x608060405234801561001057600080fd5b506155d2806100206000396000f3fe608060405234801561001057600080fd5b50600436106101d95760003560e01c8063891be97411610104578063cad96cca116100a2578063f242432a11610071578063f242432a146103ff578063f2fde38b14610412578063f5298aca14610425578063ffc4e0a714610438576101d9565b8063cad96cca146103be578063e07f2319146103d1578063e8a3d485146103e4578063e985e9c5146103ec576101d9565b8063983b2d56116100de578063983b2d561461036457806398d0b4fb14610377578063a22cb46514610398578063aa271e1a146103ab576101d9565b8063891be974146103275780638da5cb5b1461034757806395d89b411461035c576101d9565b80632eb2c2d61161017c57806361e054591161014b57806361e05459146102f15780636b20c454146103045780636c0360eb14610317578063715018a61461031f576101d9565b80632eb2c2d6146102985780633092afd5146102ab5780634e1273f4146102be57806355f804b3146102de576101d9565b80630e89341c116101b85780630e89341c1461023c5780630eaead671461024f578063173c43d2146102645780632a55205a14610277576101d9565b8062fdd58e146101de57806301ffc9a71461020757806306fdde0314610227575b600080fd5b6101f16101ec36600461494d565b61044b565b6040516101fe919061517e565b60405180910390f35b61021a610215366004614a0c565b6104bd565b6040516101fe9190614efa565b61022f6104d0565b6040516101fe9190614f05565b61022f61024a366004614cdf565b61055f565b61026261025d366004614c88565b61056a565b005b610262610272366004614a6e565b61060e565b61028a610285366004614d38565b610671565b6040516101fe929190614e96565b6102626102a636600461479b565b610781565b6102626102b9366004614747565b610a7f565b6102d16102cc3660046149ac565b610b2f565b6040516101fe9190614ec2565b6102626102ec366004614a34565b610c1a565b6102626102ff366004614b35565b610cbf565b6102626103123660046148aa565b610d59565b61022f610edf565b610262610f77565b61033a610335366004614cdf565b611023565b6040516101fe9190614eaf565b61034f6110b3565b6040516101fe9190614e2a565b61022f6110c2565b610262610372366004614747565b61111e565b61038a610385366004614d38565b6111d3565b6040516101fe929190614e74565b6102626103a636600461491c565b61121d565b61021a6103b9366004614747565b61130c565b61033a6103cc366004614cdf565b61132b565b6102626103df366004614cf7565b6113a6565b61022f6113e9565b61021a6103fa366004614763565b611445565b61026261040d366004614844565b611458565b610262610420366004614747565b611611565b610262610433366004614978565b611714565b610262610446366004614c21565b611790565b60006001600160a01b0383166104925760405162461bcd60e51b815260040180806020018281038252602b81526020018061532a602b913960400191505060405180910390fd5b5060008181526097602090815260408083206001600160a01b03861684529091529020545b92915050565b60006104c8826117eb565b90505b919050565b610262805460408051602060026001851615610100026000190190941693909304601f810184900484028201840190925281815292918301828280156105575780601f1061052c57610100808354040283529160200191610557565b820191906000526020600020905b81548152906001019060200180831161053a57829003601f168201915b505050505081565b60606104c88261188a565b6102965460ff16156105fe57826060015160008151811061058757fe5b6020026020010151600001516001600160a01b03166105a46110b3565b6001600160a01b031614806105d957506105d983606001516000815181106105c857fe5b60200260200101516000015161130c565b6105fe5760405162461bcd60e51b81526004016105f590614f18565b60405180910390fd5b610609838383611a20565b505050565b61061c868686868686611d1c565b610296805460ff191690557fcc215b7682459c30faa0e854780165d503a7d62d22a9aaaad6334585dc63343e610650611e4e565b878760405161066193929190614e3e565b60405180910390a1505050505050565b60008281526101fa602052604081205481906106925750600090508061077a565b60008481526101fa6020908152604080832080548251818502810185019093528083529192909190849084015b8282101561070e57600084815260209081902060408051808201909152908401546001600160a01b0381168252600160a01b90046001600160601b0316818301528252600190920191016106bf565b5050505090508060008151811061072157fe5b60209081029190910101515192506000805b825181101561076e5782818151811061074857fe5b6020026020010151602001516001600160601b0316820191508080600101915050610733565b50612710908502049150505b9250929050565b81518351146107c15760405162461bcd60e51b81526004018080602001828103825260288152602001806155756028913960400191505060405180910390fd5b6001600160a01b0384166108065760405162461bcd60e51b81526004018080602001828103825260258152602001806153ea6025913960400191505060405180910390fd5b61080e611e4e565b6001600160a01b0316856001600160a01b031614806108345750610834856103fa611e4e565b61086f5760405162461bcd60e51b815260040180806020018281038252603281526020018061540f6032913960400191505060405180910390fd5b6000610879611e4e565b9050610889818787878787610a77565b60005b845181101561098f5760008582815181106108a357fe5b6020026020010151905060008583815181106108bb57fe5b60200260200101519050610928816040518060600160405280602a81526020016154b4602a91396097600086815260200190815260200160002060008d6001600160a01b03166001600160a01b0316815260200190815260200160002054611e529092919063ffffffff16565b60008381526097602090815260408083206001600160a01b038e811685529252808320939093558a168152205461095f9082611ee9565b60009283526097602090815260408085206001600160a01b038c168652909152909220919091555060010161088c565b50846001600160a01b0316866001600160a01b0316826001600160a01b03167f4a39dc06d4c0dbc64b70af90fd698a233a518aa5d07e595d983b8c0526c8f7fb8787604051808060200180602001838103835285818151815260200191508051906020019060200280838360005b83811015610a155781810151838201526020016109fd565b50505050905001838103825284818151815260200191508051906020019060200280838360005b83811015610a54578181015183820152602001610a3c565b5050505090500194505050505060405180910390a4610a77818787878787611f43565b505050505050565b610a87611e4e565b6001600160a01b0316610a986110b3565b6001600160a01b031614610ae1576040805162461bcd60e51b815260206004820181905260248201526000805160206154de833981519152604482015290519081900360640190fd5b6001600160a01b03811660008181526102c86020526040808220805460ff19169055519091907f3042b80e435ae46c334b2cfec51a66d64c9a8a8af4cd0c279a124c35a09e91dd908390a350565b60608151835114610b715760405162461bcd60e51b815260040180806020018281038252602981526020018061554c6029913960400191505060405180910390fd5b600083516001600160401b0381118015610b8a57600080fd5b50604051908082528060200260200182016040528015610bb4578160200160208202803683370190505b50905060005b8451811015610c1257610bf3858281518110610bd257fe5b6020026020010151858381518110610be657fe5b602002602001015161044b565b828281518110610bff57fe5b6020908102919091010152600101610bba565b509392505050565b610c22611e4e565b6001600160a01b0316610c336110b3565b6001600160a01b031614610c7c576040805162461bcd60e51b815260206004820181905260248201526000805160206154de833981519152604482015290519081900360640190fd5b610c85816121b9565b7f87cdeaffd8e70903d6ce7cc983fac3b09ca79e83818124c98e47a1d70f8027d681604051610cb49190614f05565b60405180910390a150565b610ccd878787878686611d1c565b60005b8351811015610cff57610cf7848281518110610ce857fe5b6020026020010151600161121d565b600101610cd0565b50610296805460ff191660011790557f7da6bc204c8c4856a6aff786a6cb81c59477c782191dc51837d644a8ad50f2cc610d37611e4e565b8888604051610d4893929190614e3e565b60405180910390a150505050505050565b8051825114610d7a5760405162461bcd60e51b81526004016105f5906150c7565b600082516001600160401b0381118015610d9357600080fd5b50604051908082528060200260200182016040528015610dbd578160200160208202803683370190505b509050600083516001600160401b0381118015610dd957600080fd5b50604051908082528060200260200182016040528015610e03578160200160208202803683370190505b50905060005b8451811015610e7857610e42858281518110610e2157fe5b6020026020010151858381518110610e3557fe5b60200260200101516121d1565b848381518110610e4e57fe5b60200260200101848481518110610e6157fe5b602090810291909101019190915252600101610e09565b50610e84858584612246565b846001600160a01b0316610e96611e4e565b6001600160a01b03167fcf3391513e21a9d4a0348f8e890080170eba18dc62db35b60d8a518b7088eb3a8684604051610ed0929190614ed5565b60405180910390a35050505050565b61012f8054604080516020601f6002600019610100600188161502019095169490940493840181900481028201810190925282815260609390929091830182828015610f6c5780601f10610f4157610100808354040283529160200191610f6c565b820191906000526020600020905b815481529060010190602001808311610f4f57829003601f168201915b505050505090505b90565b610f7f611e4e565b6001600160a01b0316610f906110b3565b6001600160a01b031614610fd9576040805162461bcd60e51b815260206004820181905260248201526000805160206154de833981519152604482015290519081900360640190fd5b6033546040516000916001600160a01b0316907f8be0079c531659141344cd1fd0a4f28419497f9722a3daafe3b4186f6b6457e0908390a3603380546001600160a01b0319169055565b60606101fb6000838152602001908152602001600020805480602002602001604051908101604052809291908181526020016000905b828210156110a857600084815260209081902060408051808201909152908401546001600160a01b0381168252600160a01b90046001600160601b031681830152825260019092019101611059565b505050509050919050565b6033546001600160a01b031690565b610263805460408051602060026001851615610100026000190190941693909304601f810184900484028201840190925281815292918301828280156105575780601f1061052c57610100808354040283529160200191610557565b611126611e4e565b6001600160a01b03166111376110b3565b6001600160a01b031614611180576040805162461bcd60e51b815260206004820181905260248201526000805160206154de833981519152604482015290519081900360640190fd5b6001600160a01b03811660008181526102c86020526040808220805460ff1916600190811790915590519092917f3042b80e435ae46c334b2cfec51a66d64c9a8a8af4cd0c279a124c35a09e91dd91a350565b6101fb60205281600052604060002081815481106111f057600080fd5b6000918252602090912001546001600160a01b0381169250600160a01b90046001600160601b0316905082565b816001600160a01b031661122f611e4e565b6001600160a01b031614156112755760405162461bcd60e51b81526004018080602001828103825260298152602001806155236029913960400191505060405180910390fd5b8060986000611282611e4e565b6001600160a01b03908116825260208083019390935260409182016000908120918716808252919093529120805460ff1916921515929092179091556112c6611e4e565b6001600160a01b03167f17307eab39ab6107e8899845ad3d59bd9653f200f220920489ca2b5937696c318360405180821515815260200191505060405180910390a35050565b6001600160a01b031660009081526102c8602052604090205460ff1690565b60008181526101fa602090815260408083208054825181850281018501909352808352606094929391929091840182156110a857600084815260209081902060408051808201909152908401546001600160a01b0381168252600160a01b90046001600160601b031681830152825260019092019101611059565b816001600160a01b03166113b8611e4e565b6001600160a01b0316146113de5760405162461bcd60e51b81526004016105f590614fcf565b6106098383836122ba565b610230805460408051602060026001851615610100026000190190941693909304601f810184900484028201840190925281815292918301828280156105575780601f1061052c57610100808354040283529160200191610557565b60006114518383612366565b9392505050565b6001600160a01b03841661149d5760405162461bcd60e51b81526004018080602001828103825260258152602001806153ea6025913960400191505060405180910390fd5b6114a5611e4e565b6001600160a01b0316856001600160a01b031614806114cb57506114cb856103fa611e4e565b6115065760405162461bcd60e51b815260040180806020018281038252602981526020018061539f6029913960400191505060405180910390fd5b6000611510611e4e565b905061153081878761152188612392565b61152a88612392565b87610a77565b611577836040518060600160405280602a81526020016154b4602a913960008781526097602090815260408083206001600160a01b038d1684529091529020549190611e52565b60008581526097602090815260408083206001600160a01b038b811685529252808320939093558716815220546115ae9084611ee9565b60008581526097602090815260408083206001600160a01b03808b168086529184529382902094909455805188815291820187905280518a84169386169260008051602061530a83398151915292908290030190a4610a778187878787876123d7565b611619611e4e565b6001600160a01b031661162a6110b3565b6001600160a01b031614611673576040805162461bcd60e51b815260206004820181905260248201526000805160206154de833981519152604482015290519081900360640190fd5b6001600160a01b0381166116b85760405162461bcd60e51b81526004018080602001828103825260268152602001806153556026913960400191505060405180910390fd5b6033546040516001600160a01b038084169216907f8be0079c531659141344cd1fd0a4f28419497f9722a3daafe3b4186f6b6457e090600090a3603380546001600160a01b0319166001600160a01b0392909216919091179055565b60008061172184846121d1565b9092509050811561173757611737858584612548565b801561178957846001600160a01b031661174f611e4e565b6001600160a01b03167f5110a21391aa55386de41fe7a3e3dffb40132d38d629a113a7f4afff251b1a018684604051610ed09291906151a0565b5050505050565b60006117a084866000015161044b565b90508181156117da5782808310156117b55750815b6117d5868689600001518460405180602001604052806000815250611458565b830390505b8015610a7757610a7786858361056a565b60006001600160e01b03198216636db15a0f60e01b148061181c57506001600160e01b0319821663656cb66560e11b145b8061183757506001600160e01b0319821663152a902d60e11b145b8061185257506001600160e01b031982166301ffc9a760e01b145b8061186d57506001600160e01b03198216636cdb3d1360e11b145b806104c85750506001600160e01b0319166303a24d0760e21b1490565b600081815261012e6020908152604080832080548251601f600260001961010060018616150201909316929092049182018590048502810185019093528083526060949383018282801561191f5780601f106118f45761010080835404028352916020019161191f565b820191906000526020600020905b81548152906001019060200180831161190257829003601f168201915b505050505090506000611930610edf565b9050805160001415611944575090506104cb565b81511561195e5761195581836125bc565b925050506104cb565b80611968856127a1565b6040516020018083805190602001908083835b6020831061199a5780518252601f19909201916020918201910161197b565b51815160209384036101000a600019018019909216911617905285519190930192850191508083835b602083106119e25780518252601f1990920191602091820191016119c3565b6001836020036101000a0380198251168184511680821785525050505050509050019250505060405160208183030381529060405292505050919050565b825160601c6000611a2f611e4e565b9050806001600160a01b0316826001600160a01b03161480611a565750611a568282611445565b611a725760405162461bcd60e51b81526004016105f59061501e565b60008311611a925760405162461bcd60e51b81526004016105f590614ff4565b845160009081526101fc6020526040902054611bfb578460600151600081518110611ab957fe5b6020026020010151600001516001600160a01b0316826001600160a01b031614611af55760405162461bcd60e51b81526004016105f590614fa4565b6000856040015111611b195760405162461bcd60e51b81526004016105f590614f45565b8460a001515185606001515114611b2f57600080fd5b6000611b3a8661287b565b905060005b866060015151811015611bb057600087606001518281518110611b5e57fe5b6020026020010151600001519050836001600160a01b0316816001600160a01b031614611ba757611ba781848a60a001518581518110611b9a57fe5b6020026020010151612ace565b50600101611b3f565b50611bc386600001518760400151612ad9565b611bd586600001518760800151612b43565b611be786600001518760600151612d32565b611bf986600001518760200151612ee1565b505b611c1a8486600001518560405180602001604052806000815250612fa5565b836001600160a01b0316826001600160a01b031614611ccb57816001600160a01b031660006001600160a01b0316826001600160a01b031660008051602061530a833981519152886000015187604051611c759291906151a0565b60405180910390a4836001600160a01b0316826001600160a01b0316826001600160a01b031660008051602061530a833981519152886000015187604051611cbe9291906151a0565b60405180910390a4611789565b836001600160a01b031660006001600160a01b0316826001600160a01b031660008051602061530a833981519152886000015187604051611d0d9291906151a0565b60405180910390a45050505050565b600054610100900460ff1680611d355750611d35612fb7565b80611d43575060005460ff16155b611d7e5760405162461bcd60e51b815260040180806020018281038252602e815260200180615441602e913960400191505060405180910390fd5b600054610100900460ff16158015611da9576000805460ff1961ff0019909116610100171660011790555b611db1612fc8565b611db96130c2565b611dc1613163565b611dc96130c2565b611dd1613200565b611de9604051806020016040528060008152506132d0565b611df28461339b565b611dfa6130c2565b611e0261344d565b611e0c87876134ea565b611e146130c2565b611e1d856121b9565b611e288360016135b7565b611e338260016135b7565b8015611e45576000805461ff00191690555b50505050505050565b3390565b60008184841115611ee15760405162461bcd60e51b81526004018080602001828103825283818151815260200191508051906020019080838360005b83811015611ea6578181015183820152602001611e8e565b50505050905090810190601f168015611ed35780820380516001836020036101000a031916815260200191505b509250505060405180910390fd5b505050900390565b600082820183811015611451576040805162461bcd60e51b815260206004820152601b60248201527f536166654d6174683a206164646974696f6e206f766572666c6f770000000000604482015290519081900360640190fd5b611f55846001600160a01b0316613617565b15610a7757836001600160a01b031663bc197c8187878686866040518663ffffffff1660e01b815260040180866001600160a01b03168152602001856001600160a01b03168152602001806020018060200180602001848103845287818151815260200191508051906020019060200280838360005b83811015611fe3578181015183820152602001611fcb565b50505050905001848103835286818151815260200191508051906020019060200280838360005b8381101561202257818101518382015260200161200a565b50505050905001848103825285818151815260200191508051906020019080838360005b8381101561205e578181015183820152602001612046565b50505050905090810190601f16801561208b5780820380516001836020036101000a031916815260200191505b5098505050505050505050602060405180830381600087803b1580156120b057600080fd5b505af19250505080156120d557506040513d60208110156120d057600080fd5b505160015b61216a576120e16151f4565b806120ec5750612133565b60405162461bcd60e51b8152602060048201818152835160248401528351849391928392604401919085019080838360008315611ea6578181015183820152602001611e8e565b60405162461bcd60e51b81526004018080602001828103825260348152602001806152ae6034913960400191505060405180910390fd5b6001600160e01b0319811663bc197c8160e01b14611e455760405162461bcd60e51b81526004018080602001828103825260288152602001806152e26028913960400191505060405180910390fd5b80516121cd9061012f90602084019061438b565b5050565b806000606084901c6121e1611e4e565b6001600160a01b0316816001600160a01b0316141561223e5783915060006122088661361d565b9050801561222d57600061221b87613630565b820390508086111561222b578093505b505b6122378684613643565b8285039350505b509250929050565b61224e611e4e565b6001600160a01b0316836001600160a01b031614806122745750612274836103fa611e4e565b6122af5760405162461bcd60e51b815260040180806020018281038252602981526020018061539f6029913960400191505060405180910390fd5b61060983838361365c565b60008381526101fa6020526040812054905b818110156117895760008581526101fa6020526040902080546001600160a01b0386169190839081106122fb57fe5b6000918252602090912001546001600160a01b0316141561235e5760008581526101fa6020526040902080548491908390811061233457fe5b600091825260209091200180546001600160a01b0319166001600160a01b03929092169190911790555b6001016122cc565b6001600160a01b038116600090815260c9602052604081205460ff1680611451575061145183836138ca565b604080516001808252818301909252606091600091906020808301908036833701905050905082816000815181106123c657fe5b602090810291909101015292915050565b6123e9846001600160a01b0316613617565b15610a7757836001600160a01b031663f23a6e6187878686866040518663ffffffff1660e01b815260040180866001600160a01b03168152602001856001600160a01b0316815260200184815260200183815260200180602001828103825283818151815260200191508051906020019080838360005b83811015612478578181015183820152602001612460565b50505050905090810190601f1680156124a55780820380516001836020036101000a031916815260200191505b509650505050505050602060405180830381600087803b1580156124c857600080fd5b505af19250505080156124ed57506040513d60208110156124e857600080fd5b505160015b6124f9576120e16151f4565b6001600160e01b0319811663f23a6e6160e01b14611e455760405162461bcd60e51b81526004018080602001828103825260288152602001806152e26028913960400191505060405180910390fd5b612550611e4e565b6001600160a01b0316836001600160a01b031614806125765750612576836103fa611e4e565b6125b15760405162461bcd60e51b815260040180806020018281038252602981526020018061539f6029913960400191505060405180910390fd5b6106098383836138f8565b805182516060918491849110156126875784846040516020018083805190602001908083835b602083106126015780518252601f1990920191602091820191016125e2565b51815160209384036101000a600019018019909216911617905285519190930192850191508083835b602083106126495780518252601f19909201916020918201910161262a565b6001836020036101000a03801982511681845116808217855250505050505090500192505050604051602081830303815290604052925050506104b7565b60005b82518110156127975782818151811061269f57fe5b602001015160f81c60f81b6001600160f81b0319168282815181106126c057fe5b01602001516001600160f81b0319161461278f5785856040516020018083805190602001908083835b602083106127085780518252601f1990920191602091820191016126e9565b51815160209384036101000a600019018019909216911617905285519190930192850191508083835b602083106127505780518252601f199092019160209182019101612731565b6001836020036101000a0380198251168184511680821785525050505050509050019250505060405160208183030381529060405293505050506104b7565b60010161268a565b5092949350505050565b6060816127c657506040805180820190915260018152600360fc1b60208201526104cb565b8160005b81156127de57600101600a820491506127ca565b6000816001600160401b03811180156127f657600080fd5b506040519080825280601f01601f191660200182016040528015612821576020820181803683370190505b50859350905060001982015b831561287257600a840660300160f81b8282806001900393508151811061285057fe5b60200101906001600160f81b031916908160001a905350600a8404935061282d565b50949350505050565b6000808260800151516001600160401b038111801561289957600080fd5b506040519080825280602002602001820160405280156128c3578160200160208202803683370190505b50905060005b836080015151811015612915576128f6846080015182815181106128e957fe5b6020026020010151613a19565b82828151811061290257fe5b60209081029190910101526001016128c9565b5060008360600151516001600160401b038111801561293357600080fd5b5060405190808252806020026020018201604052801561295d578160200160208202803683370190505b50905060005b8460600151518110156129a257612983856060015182815181106128e957fe5b82828151811061298f57fe5b6020908102919091010152600101612963565b507ffb988707ebb338694f318760b0fd5cfe756d00a2ade251fda110b80c336a3c7f846000015185604001518660200151805190602001208460405160200180828051906020019060200280838360005b83811015612a0b5781810151838201526020016129f3565b50505050905001915050604051602081830303815290604052805190602001208660405160200180828051906020019060200280838360005b83811015612a5c578181015183820152602001612a44565b50505050905001915050604051602081830303815290604052805190602001206040516020018087815260200186815260200185815260200184815260200183815260200182815260200196505050505050506040516020818303038152906040528051906020012092505050919050565b610609838383613a86565b60008281526101fc602052604090205415612af357600080fd5b60008281526101fc602052604090819020829055517f5e2aa66efd74cce82b21852e317e5490d9ecc9e6bb953ae24d90851258cc2f5c90612b3790849084906151a0565b60405180910390a15050565b6000805b8251811015612ce75760006001600160a01b0316838281518110612b6757fe5b6020026020010151600001516001600160a01b03161415612bcf576040805162461bcd60e51b815260206004820152601b60248201527f526563697069656e742073686f756c642062652070726573656e740000000000604482015290519081900360640190fd5b828181518110612bdb57fe5b6020026020010151602001516001600160601b031660001415612c45576040805162461bcd60e51b815260206004820181905260248201527f526f79616c74792076616c75652073686f756c6420626520706f736974697665604482015290519081900360640190fd5b828181518110612c5157fe5b6020026020010151602001516001600160601b0316820191506101fa6000858152602001908152602001600020838281518110612c8a57fe5b60209081029190910181015182546001818101855560009485529383902082519101805492909301516001600160601b0316600160a01b026001600160a01b039182166001600160a01b0319909316929092171617905501612b47565b506127108110612d285760405162461bcd60e51b81526004018080602001828103825260258152602001806154fe6025913960400191505060405180910390fd5b6106098383613cc8565b60008281526101fb6020526040812090805b8351811015612e805760006001600160a01b0316848281518110612d6457fe5b6020026020010151600001516001600160a01b03161415612d975760405162461bcd60e51b81526004016105f590615090565b838181518110612da357fe5b6020026020010151602001516001600160601b031660001415612dd85760405162461bcd60e51b81526004016105f590614f6f565b82848281518110612de557fe5b602090810291909101810151825460018101845560009384529282902081519301805491909201516001600160601b0316600160a01b026001600160a01b039384166001600160a01b0319909216919091179092169190911790558351612e7690859083908110612e5257fe5b6020026020010151602001516001600160601b031683611ee990919063ffffffff16565b9150600101612d44565b508061271014612ea25760405162461bcd60e51b81526004016105f590615130565b7f841ffb90d4cabdd1f16034f3fa831d79060febbb8167bdd54a49269365bdf78f8484604051612ed3929190615187565b60405180910390a150505050565b600082815261012e602090815260409091208251612f019284019061438b565b50817f6bb7ff708619ba0610cba295a58592e0451dee2622938c8755667688daf3529b612f2d8461188a565b6040805160208082528351818301528351919283929083019185019080838360005b83811015612f67578181015183820152602001612f4f565b50505050905090810190601f168015612f945780820380516001836020036101000a031916815260200191505b509250505060405180910390a25050565b612fb184848484613cf9565b50505050565b6000612fc230613617565b15905090565b600054610100900460ff1680612fe15750612fe1612fb7565b80612fef575060005460ff16155b61302a5760405162461bcd60e51b815260040180806020018281038252602e815260200180615441602e913960400191505060405180910390fd5b600054610100900460ff16158015613055576000805460ff1961ff0019909116610100171660011790555b600061305f611e4e565b603380546001600160a01b0319166001600160a01b038316908117909155604051919250906000907f8be0079c531659141344cd1fd0a4f28419497f9722a3daafe3b4186f6b6457e0908290a35080156130bf576000805461ff00191690555b50565b600054610100900460ff16806130db57506130db612fb7565b806130e9575060005460ff16155b6131245760405162461bcd60e51b815260040180806020018281038252602e815260200180615441602e913960400191505060405180910390fd5b600054610100900460ff1615801561314f576000805460ff1961ff0019909116610100171660011790555b80156130bf576000805461ff001916905550565b600054610100900460ff168061317c575061317c612fb7565b8061318a575060005460ff16155b6131c55760405162461bcd60e51b815260040180806020018281038252602e815260200180615441602e913960400191505060405180910390fd5b600054610100900460ff161580156131f0576000805460ff1961ff0019909116610100171660011790555b61314f6301ffc9a760e01b613e0b565b600054610100900460ff16806132195750613219612fb7565b80613227575060005460ff16155b6132625760405162461bcd60e51b815260040180806020018281038252602e815260200180615441602e913960400191505060405180910390fd5b600054610100900460ff1615801561328d576000805460ff1961ff0019909116610100171660011790555b61314f604051806040016040528060088152602001674d696e743131353560c01b815250604051806040016040528060018152602001603160f81b815250613e8f565b600054610100900460ff16806132e957506132e9612fb7565b806132f7575060005460ff16155b6133325760405162461bcd60e51b815260040180806020018281038252602e815260200180615441602e913960400191505060405180910390fd5b600054610100900460ff1615801561335d576000805460ff1961ff0019909116610100171660011790555b61336682613f51565b613376636cdb3d1360e11b613e0b565b6133866303a24d0760e21b613e0b565b80156121cd576000805461ff00191690555050565b600054610100900460ff16806133b457506133b4612fb7565b806133c2575060005460ff16155b6133fd5760405162461bcd60e51b815260040180806020018281038252602e815260200180615441602e913960400191505060405180910390fd5b600054610100900460ff16158015613428576000805460ff1961ff0019909116610100171660011790555b815161343c9061023090602085019061438b565b5061338663e8a3d48560e01b613e0b565b600054610100900460ff16806134665750613466612fb7565b80613474575060005460ff16155b6134af5760405162461bcd60e51b815260040180806020018281038252602e815260200180615441602e913960400191505060405180910390fd5b600054610100900460ff161580156134da576000805460ff1961ff0019909116610100171660011790555b61314f63656cb66560e11b613e0b565b600054610100900460ff16806135035750613503612fb7565b80613511575060005460ff16155b61354c5760405162461bcd60e51b815260040180806020018281038252602e815260200180615441602e913960400191505060405180910390fd5b600054610100900460ff16158015613577576000805460ff1961ff0019909116610100171660011790555b825161358b9061026290602086019061438b565b5081516135a09061026390602085019061438b565b508015610609576000805461ff0019169055505050565b6001600160a01b038216600081815260c96020908152604091829020805460ff1916851515908117909155825190815291517f270dbb8ba4292910ae92862466486be25c355c837270a3d8824b36a8bc7c653b9281900390910190a25050565b3b151590565b60009081526101fc602052604090205490565b60009081526101fd602052604090205490565b60009182526101fd602052604090912080549091019055565b6001600160a01b0383166136a15760405162461bcd60e51b81526004018080602001828103825260238152602001806154916023913960400191505060405180910390fd5b80518251146136e15760405162461bcd60e51b81526004018080602001828103825260288152602001806155756028913960400191505060405180910390fd5b60006136eb611e4e565b905061370b81856000868660405180602001604052806000815250610a77565b60005b83518110156137e9576137a083828151811061372657fe5b602002602001015160405180606001604052806024815260200161537b602491396097600088868151811061375757fe5b602002602001015181526020019081526020016000206000896001600160a01b03166001600160a01b0316815260200190815260200160002054611e529092919063ffffffff16565b609760008684815181106137b057fe5b602090810291909101810151825281810192909252604090810160009081206001600160a01b038a16825290925290205560010161370e565b5060006001600160a01b0316846001600160a01b0316826001600160a01b03167f4a39dc06d4c0dbc64b70af90fd698a233a518aa5d07e595d983b8c0526c8f7fb8686604051808060200180602001838103835285818151815260200191508051906020019060200280838360005b83811015613870578181015183820152602001613858565b50505050905001838103825284818151815260200191508051906020019060200280838360005b838110156138af578181015183820152602001613897565b5050505090500194505050505060405180910390a450505050565b6001600160a01b03918216600090815260986020908152604080832093909416825291909152205460ff1690565b6001600160a01b03831661393d5760405162461bcd60e51b81526004018080602001828103825260238152602001806154916023913960400191505060405180910390fd5b6000613947611e4e565b90506139778185600061395987612392565b61396287612392565b60405180602001604052806000815250610a77565b6139be8260405180606001604052806024815260200161537b6024913960008681526097602090815260408083206001600160a01b038b1684529091529020549190611e52565b60008481526097602090815260408083206001600160a01b03808a168086529184528285209590955581518881529283018790528151939490939086169260008051602061530a83398151915292908290030190a450505050565b8051602091820151604080517f397e04204c1e1a60ee8724b71f8244e10ab5f2e9009854d80f602bda21b59ebb818601526001600160a01b03909316838201526001600160601b039091166060808401919091528151808403909101815260809092019052805191012090565b6000613a9183613f64565b90506000825160411415613aac57613aa98284613fb0565b90505b846001600160a01b0316816001600160a01b03161461178957613ad7856001600160a01b0316613617565b15613c505760408051630b135d3f60e11b808252600482018581526024830193845286516044840152865191936001600160a01b038a1693631626ba7e9388938a9390929091606490910190602085019080838360005b83811015613b46578181015183820152602001613b2e565b50505050905090810190601f168015613b735780820380516001836020036101000a031916815260200191505b50935050505060206040518083038186803b158015613b9157600080fd5b505afa158015613ba5573d6000803e3d6000fd5b505050506040513d6020811015613bbb57600080fd5b505160408051808201909152601c81527f7369676e617475726520766572696669636174696f6e206572726f72000000006020820152916001600160e01b031990911614613c4a5760405162461bcd60e51b8152602060048201818152835160248401528351909283926044909101919085019080838360008315611ea6578181015183820152602001611e8e565b50611789565b604080518082018252601c81527f7369676e617475726520766572696669636174696f6e206572726f72000000006020808301918252925162461bcd60e51b81526004810193845282516024820152825192939283926044909201919080838360008315611ea6578181015183820152602001611e8e565b7f3fa96d7b6bcbfe71ef171666d84db3cf52fa2d1c8afdb1cc8e486177f208b7df8282604051612b37929190615187565b60008381526101fd6020526040812054613d14908490611ee9565b60008581526101fc6020526040902054909150811115613d465760405162461bcd60e51b81526004016105f590615066565b60008481526101fd602052604090208190556001600160a01b038516613d7e5760405162461bcd60e51b81526004016105f5906150ef565b6000613d88611e4e565b9050613da981600088613d9a89612392565b613da389612392565b88610a77565b60008581526097602090815260408083206001600160a01b038a168452909152902054613dd69085611ee9565b60008681526097602090815260408083206001600160a01b038b168452909152812091909155610a77908290888888886123d7565b6001600160e01b03198082161415613e6a576040805162461bcd60e51b815260206004820152601c60248201527f4552433136353a20696e76616c696420696e7465726661636520696400000000604482015290519081900360640190fd5b6001600160e01b0319166000908152606560205260409020805460ff19166001179055565b600054610100900460ff1680613ea85750613ea8612fb7565b80613eb6575060005460ff16155b613ef15760405162461bcd60e51b815260040180806020018281038252602e815260200180615441602e913960400191505060405180910390fd5b600054610100900460ff16158015613f1c576000805460ff1961ff0019909116610100171660011790555b825160208085019190912083519184019190912061016291909155610163558015610609576000805461ff0019169055505050565b80516121cd90609990602084019061438b565b6000613f6e614030565b82604051602001808061190160f01b81525060020183815260200182815260200192505050604051602081830303815290604052805190602001209050919050565b60008151604114614008576040805162461bcd60e51b815260206004820152601f60248201527f45434453413a20696e76616c6964207369676e6174757265206c656e67746800604482015290519081900360640190fd5b60208201516040830151606084015160001a61402686828585614070565b9695505050505050565b600061406b7f8b73c3c69bb8fe3d512ecc4cf759cc79239f7b179b0ffacaa9a75d522b39400f61405e6142c6565b6140666142cd565b6142d4565b905090565b60007f7fffffffffffffffffffffffffffffff5d576e7357a4501ddfe92f46681b20a08211156140d15760405162461bcd60e51b81526004018080602001828103825260228152602001806153c86022913960400191505060405180910390fd5b6000601e8560ff1611156141ab576004850360ff16601b14806140fa57506004850360ff16601c145b6141355760405162461bcd60e51b815260040180806020018281038252602281526020018061546f6022913960400191505060405180910390fd5b600161414087614336565b60048703868660405160008152602001604052604051808581526020018460ff1681526020018381526020018281526020019450505050506020604051602081039080840390855afa15801561419a573d6000803e3d6000fd5b505050602060405103519050614262565b8460ff16601b14806141c057508460ff16601c145b6141fb5760405162461bcd60e51b815260040180806020018281038252602281526020018061546f6022913960400191505060405180910390fd5b60018686868660405160008152602001604052604051808581526020018460ff1681526020018381526020018281526020019450505050506020604051602081039080840390855afa158015614255573d6000803e3d6000fd5b5050506020604051035190505b6001600160a01b0381166142bd576040805162461bcd60e51b815260206004820152601860248201527f45434453413a20696e76616c6964207369676e61747572650000000000000000604482015290519081900360640190fd5b95945050505050565b6101625490565b6101635490565b60008383836142e1614387565b3060405160200180868152602001858152602001848152602001838152602001826001600160a01b03168152602001955050505050506040516020818303038152906040528051906020012090509392505050565b604080517f19457468657265756d205369676e6564204d6573736167653a0a333200000000602080830191909152603c8083019490945282518083039094018452605c909101909152815191012090565b4690565b828054600181600116156101000203166002900490600052602060002090601f0160209004810192826143c15760008555614407565b82601f106143da57805160ff1916838001178555614407565b82800160010185558215614407579182015b828111156144075782518255916020019190600101906143ec565b50614413929150614417565b5090565b5b808211156144135760008155600101614418565b80356104cb81615298565b600082601f830112614447578081fd5b8135602061445c614457836151d1565b6151ae565b8281528181019085830183850287018401881015614478578586fd5b855b8581101561449f57813561448d81615298565b8452928401929084019060010161447a565b5090979650505050505050565b600082601f8301126144bc578081fd5b813560206144cc614457836151d1565b82815281810190858301855b8581101561449f576144ef898684358b0101614616565b845292840192908401906001016144d8565b600082601f830112614511578081fd5b81356020614521614457836151d1565b8281528181019085830160408086028801850189101561453f578687fd5b865b868110156145ae5781838b031215614557578788fd5b81518281018181106001600160401b038211171561457157fe5b8352833561457e81615298565b8152838701356001600160601b038116811461459857898afd5b8188015285529385019391810191600101614541565b509198975050505050505050565b600082601f8301126145cc578081fd5b813560206145dc614457836151d1565b82815281810190858301838502870184018810156145f8578586fd5b855b8581101561449f578135845292840192908401906001016145fa565b600082601f830112614626578081fd5b81356001600160401b0381111561463957fe5b61464c601f8201601f19166020016151ae565b818152846020838601011115614660578283fd5b816020850160208301379081016020019190915292915050565b600060c0828403121561468b578081fd5b61469560c06151ae565b90508135815260208201356001600160401b03808211156146b557600080fd5b6146c185838601614616565b60208401526040840135604084015260608401359150808211156146e457600080fd5b6146f085838601614501565b6060840152608084013591508082111561470957600080fd5b61471585838601614501565b608084015260a084013591508082111561472e57600080fd5b5061473b848285016144ac565b60a08301525092915050565b600060208284031215614758578081fd5b813561145181615298565b60008060408385031215614775578081fd5b823561478081615298565b9150602083013561479081615298565b809150509250929050565b600080600080600060a086880312156147b2578081fd5b85356147bd81615298565b945060208601356147cd81615298565b935060408601356001600160401b03808211156147e8578283fd5b6147f489838a016145bc565b94506060880135915080821115614809578283fd5b61481589838a016145bc565b9350608088013591508082111561482a578283fd5b5061483788828901614616565b9150509295509295909350565b600080600080600060a0868803121561485b578283fd5b853561486681615298565b9450602086013561487681615298565b9350604086013592506060860135915060808601356001600160401b0381111561489e578182fd5b61483788828901614616565b6000806000606084860312156148be578081fd5b83356148c981615298565b925060208401356001600160401b03808211156148e4578283fd5b6148f0878388016145bc565b93506040860135915080821115614905578283fd5b50614912868287016145bc565b9150509250925092565b6000806040838503121561492e578182fd5b823561493981615298565b915060208301358015158114614790578182fd5b6000806040838503121561495f578182fd5b823561496a81615298565b946020939093013593505050565b60008060006060848603121561498c578081fd5b833561499781615298565b95602085013595506040909401359392505050565b600080604083850312156149be578182fd5b82356001600160401b03808211156149d4578384fd5b6149e086838701614437565b935060208501359150808211156149f5578283fd5b50614a02858286016145bc565b9150509250929050565b600060208284031215614a1d578081fd5b81356001600160e01b031981168114611451578182fd5b600060208284031215614a45578081fd5b81356001600160401b03811115614a5a578182fd5b614a6684828501614616565b949350505050565b60008060008060008060c08789031215614a86578384fd5b86356001600160401b0380821115614a9c578586fd5b614aa88a838b01614616565b97506020890135915080821115614abd578586fd5b614ac98a838b01614616565b96506040890135915080821115614ade578586fd5b614aea8a838b01614616565b95506060890135915080821115614aff578283fd5b50614b0c89828a01614616565b935050614b1b6080880161442c565b9150614b2960a0880161442c565b90509295509295509295565b600080600080600080600060e0888a031215614b4f578485fd5b87356001600160401b0380821115614b65578687fd5b614b718b838c01614616565b985060208a0135915080821115614b86578687fd5b614b928b838c01614616565b975060408a0135915080821115614ba7578687fd5b614bb38b838c01614616565b965060608a0135915080821115614bc8578283fd5b614bd48b838c01614616565b955060808a0135915080821115614be9578283fd5b50614bf68a828b01614437565b935050614c0560a0890161442c565b9150614c1360c0890161442c565b905092959891949750929550565b60008060008060808587031215614c36578182fd5b84356001600160401b03811115614c4b578283fd5b614c578782880161467a565b9450506020850135614c6881615298565b92506040850135614c7881615298565b9396929550929360600135925050565b600080600060608486031215614c9c578081fd5b83356001600160401b03811115614cb1578182fd5b614cbd8682870161467a565b9350506020840135614cce81615298565b929592945050506040919091013590565b600060208284031215614cf0578081fd5b5035919050565b600080600060608486031215614d0b578081fd5b833592506020840135614d1d81615298565b91506040840135614d2d81615298565b809150509250925092565b60008060408385031215614d4a578182fd5b50508035926020909101359150565b6000815180845260208085019450808401835b83811015614da557815180516001600160a01b031688528301516001600160601b03168388015260409096019590820190600101614d6c565b509495945050505050565b6000815180845260208085019450808401835b83811015614da557815187529582019590820190600101614dc3565b60008151808452815b81811015614e0457602081850181015186830182015201614de8565b81811115614e155782602083870101525b50601f01601f19169290920160200192915050565b6001600160a01b0391909116815260200190565b6001600160a01b0384168152606060208201819052600090614e6290830185614ddf565b82810360408401526140268185614ddf565b6001600160a01b039290921682526001600160601b0316602082015260400190565b6001600160a01b03929092168252602082015260400190565b6000602082526114516020830184614d59565b6000602082526114516020830184614db0565b600060408252614ee86040830185614db0565b82810360208401526142bd8185614db0565b901515815260200190565b6000602082526114516020830184614ddf565b6020808252601390820152723737ba1037bbb732b91037b91036b4b73a32b960691b604082015260600190565b60208082526010908201526f1cdd5c1c1b1e481a5b98dbdc9c9958dd60821b604082015260600190565b6020808252818101527f43726561746f722073686172652073686f756c6420626520706f736974697665604082015260600190565b6020808252601190820152701d1bdad95b9259081a5b98dbdc9c9958dd607a1b604082015260600190565b6020808252600b908201526a1b9bdd08185b1b1bddd95960aa1b604082015260600190565b60208082526010908201526f185b5bdd5b9d081a5b98dbdc9c9958dd60821b604082015260600190565b60208082526028908201527f455243313135353a207472616e736665722063616c6c6572206973206e6f7420604082015267185c1c1c9bdd995960c21b606082015260800190565b60208082526010908201526f6d6f7265207468616e20737570706c7960801b604082015260600190565b60208082526019908201527f4163636f756e742073686f756c642062652070726573656e7400000000000000604082015260600190565b6020808252600e908201526d69647320213d20616d6f756e747360901b604082015260600190565b60208082526021908201527f455243313135353a206d696e7420746f20746865207a65726f206164647265736040820152607360f81b606082015260800190565b6020808252602e908201527f746f74616c20616d6f756e74206f662063726561746f7273207368617265207360408201526d0686f756c642062652031303030360941b606082015260800190565b90815260200190565b600083825260406020830152614a666040830184614d59565b918252602082015260400190565b6040518181016001600160401b03811182821017156151c957fe5b604052919050565b60006001600160401b038211156151e457fe5b5060209081020190565b60e01c90565b600060443d101561520457610f74565b600481823e6308c379a061521882516151ee565b1461522257610f74565b6040513d600319016004823e80513d6001600160401b0381602484011181841117156152515750505050610f74565b8284019250825191508082111561526b5750505050610f74565b503d8301602082840101111561528357505050610f74565b601f01601f1916810160200160405291505090565b6001600160a01b03811681146130bf57600080fdfe455243313135353a207472616e7366657220746f206e6f6e2045524331313535526563656976657220696d706c656d656e746572455243313135353a204552433131353552656365697665722072656a656374656420746f6b656e73c3d58168c5ae7397731d063d5bbf3d657854427343f4c083240f7aacaa2d0f62455243313135353a2062616c616e636520717565727920666f7220746865207a65726f20616464726573734f776e61626c653a206e6577206f776e657220697320746865207a65726f2061646472657373455243313135353a206275726e20616d6f756e7420657863656564732062616c616e6365455243313135353a2063616c6c6572206973206e6f74206f776e6572206e6f7220617070726f76656445434453413a20696e76616c6964207369676e6174757265202773272076616c7565455243313135353a207472616e7366657220746f20746865207a65726f2061646472657373455243313135353a207472616e736665722063616c6c6572206973206e6f74206f776e6572206e6f7220617070726f766564496e697469616c697a61626c653a20636f6e747261637420697320616c726561647920696e697469616c697a656445434453413a20696e76616c6964207369676e6174757265202776272076616c7565455243313135353a206275726e2066726f6d20746865207a65726f2061646472657373455243313135353a20696e73756666696369656e742062616c616e636520666f72207472616e736665724f776e61626c653a2063616c6c6572206973206e6f7420746865206f776e6572526f79616c747920746f74616c2076616c75652073686f756c64206265203c203130303030455243313135353a2073657474696e6720617070726f76616c2073746174757320666f722073656c66455243313135353a206163636f756e747320616e6420696473206c656e677468206d69736d61746368455243313135353a2069647320616e6420616d6f756e7473206c656e677468206d69736d61746368a2646970667358221220ba8c2f908084e0e3ad26b242ad651cb861689c4b3c95782b6f7089fa831669b664736f6c63430007060033",
  "immutableReferences": {},
  "source": "// SPDX-License-Identifier: MIT\n\npragma solidity 0.7.6;\npragma abicoder v2;\n\nimport \"./ERC1155Base.sol\";\nimport \"../IsPrivateCollection.sol\";\nimport \"../access/MinterAccessControl.sol\";\n\ncontract ERC1155Rarible is ERC1155Base, IsPrivateCollection, MinterAccessControl {\n    event CreateERC1155Rarible(address owner, string name, string symbol);\n    event CreateERC1155RaribleUser(address owner, string name, string symbol);\n\n    function __ERC1155RaribleUser_init(string memory _name, string memory _symbol, string memory baseURI, string memory contractURI, address[] memory operators, address transferProxy, address lazyTransferProxy) external virtual {\n        __ERC1155Rarible_init_unchained(_name, _symbol, baseURI, contractURI, transferProxy, lazyTransferProxy);\n        for(uint i = 0; i < operators.length; i++) {\n            setApprovalForAll(operators[i], true);\n        }\n\n        isPrivate = true;\n        emit CreateERC1155RaribleUser(_msgSender(), _name, _symbol);\n    }\n    \n    function __ERC1155Rarible_init(string memory _name, string memory _symbol, string memory baseURI, string memory contractURI, address transferProxy, address lazyTransferProxy) external virtual {\n        __ERC1155Rarible_init_unchained(_name, _symbol, baseURI, contractURI, transferProxy, lazyTransferProxy);\n\n        isPrivate = false;\n        emit CreateERC1155Rarible(_msgSender(), _name, _symbol);\n    }\n\n    function __ERC1155Rarible_init_unchained(string memory _name, string memory _symbol, string memory baseURI, string memory contractURI, address transferProxy, address lazyTransferProxy) internal initializer {\n        __Ownable_init_unchained();\n        __ERC1155Lazy_init_unchained();\n        __ERC165_init_unchained();\n        __Context_init_unchained();\n        __Mint1155Validator_init_unchained();\n        __ERC1155_init_unchained(\"\");\n        __HasContractURI_init_unchained(contractURI);\n        __ERC1155Burnable_init_unchained();\n        __RoyaltiesV2Upgradeable_init_unchained();\n        __ERC1155Base_init_unchained(_name, _symbol);\n        __MinterAccessControl_init_unchained();\n        _setBaseURI(baseURI);\n\n        //setting default approver for transferProxies\n        _setDefaultApproval(transferProxy, true);\n        _setDefaultApproval(lazyTransferProxy, true);\n    }\n\n    function mintAndTransfer(LibERC1155LazyMint.Mint1155Data memory data, address to, uint256 _amount) public override {\n        if (isPrivate){\n          require(owner() == data.creators[0].account || isMinter(data.creators[0].account), \"not owner or minter\");\n        }\n        super.mintAndTransfer(data, to, _amount);\n    }\n}\n",
  "sourcePath": "@rarible/tokens/contracts/erc-1155/ERC1155Rarible.sol",
  "compiler": {
    "name": "solc",
    "version": "0.7.6+commit.7338295f.Emscripten.clang"
  },
  "schemaVersion": "3.4.5",
  "updatedAt": "2022-02-21T14:37:16.031Z",
  "devdoc": {
    "kind": "dev",
    "methods": {
      "addMinter(address)": {
        "details": "Add `_minter` to the list of allowed minters."
      },
      "balanceOf(address,uint256)": {
        "details": "See {IERC1155-balanceOf}. Requirements: - `account` cannot be the zero address."
      },
      "balanceOfBatch(address[],uint256[])": {
        "details": "See {IERC1155-balanceOfBatch}. Requirements: - `accounts` and `ids` must have the same length."
      },
      "baseURI()": {
        "details": "Returns the base URI set via {_setBaseURI}. This will be automatically added as a prefix in {tokenURI} to each token's URI, or to the token ID if no specific URI is set for that token ID."
      },
      "isMinter(address)": {
        "details": "Returns `true` if `account` has been granted to minters."
      },
      "owner()": {
        "details": "Returns the address of the current owner."
      },
      "removeMinter(address)": {
        "details": "Revoke `_minter` from the list of allowed minters."
      },
      "renounceOwnership()": {
        "details": "Leaves the contract without owner. It will not be possible to call `onlyOwner` functions anymore. Can only be called by the current owner. NOTE: Renouncing ownership will leave the contract without an owner, thereby removing any functionality that is only available to the owner."
      },
      "safeBatchTransferFrom(address,address,uint256[],uint256[],bytes)": {
        "details": "See {IERC1155-safeBatchTransferFrom}."
      },
      "safeTransferFrom(address,address,uint256,uint256,bytes)": {
        "details": "See {IERC1155-safeTransferFrom}."
      },
      "setApprovalForAll(address,bool)": {
        "details": "See {IERC1155-setApprovalForAll}."
      },
      "transferOwnership(address)": {
        "details": "Transfers ownership of the contract to a new account (`newOwner`). Can only be called by the current owner."
      }
    },
    "version": 1
  },
  "userdoc": {
    "kind": "user",
    "methods": {},
    "version": 1
  }
}