{
  "contractName": "ERC1155Rarible",
  "abi": [
    {
      "anonymous": false,
      "inputs": [
        {
          "indexed": true,
          "internalType": "address",
          "name": "account",
          "type": "address"
        },
        {
          "indexed": true,
          "internalType": "address",
          "name": "operator",
          "type": "address"
        },
        {
          "indexed": false,
          "internalType": "bool",
          "name": "approved",
          "type": "bool"
        }
      ],
      "name": "ApprovalForAll",
      "type": "event"
    },
    {
      "anonymous": false,
      "inputs": [
        {
          "indexed": true,
          "internalType": "address",
          "name": "operator",
          "type": "address"
        },
        {
          "indexed": true,
          "internalType": "address",
          "name": "account",
          "type": "address"
        },
        {
          "indexed": false,
          "internalType": "uint256",
          "name": "id",
          "type": "uint256"
        },
        {
          "indexed": false,
          "internalType": "uint256",
          "name": "amount",
          "type": "uint256"
        }
      ],
      "name": "BurnLazy",
      "type": "event"
    },
    {
      "anonymous": false,
      "inputs": [
        {
          "indexed": true,
          "internalType": "address",
          "name": "operator",
          "type": "address"
        },
        {
          "indexed": true,
          "internalType": "address",
          "name": "account",
          "type": "address"
        },
        {
          "indexed": false,
          "internalType": "uint256[]",
          "name": "ids",
          "type": "uint256[]"
        },
        {
          "indexed": false,
          "internalType": "uint256[]",
          "name": "amounts",
          "type": "uint256[]"
        }
      ],
      "name": "BurnLazyBatch",
      "type": "event"
    },
    {
      "anonymous": false,
      "inputs": [
        {
          "indexed": false,
          "internalType": "address",
          "name": "owner",
          "type": "address"
        },
        {
          "indexed": false,
          "internalType": "string",
          "name": "name",
          "type": "string"
        },
        {
          "indexed": false,
          "internalType": "string",
          "name": "symbol",
          "type": "string"
        }
      ],
      "name": "CreateERC1155Rarible",
      "type": "event"
    },
    {
      "anonymous": false,
      "inputs": [
        {
          "indexed": false,
          "internalType": "address",
          "name": "owner",
          "type": "address"
        },
        {
          "indexed": false,
          "internalType": "string",
          "name": "name",
          "type": "string"
        },
        {
          "indexed": false,
          "internalType": "string",
          "name": "symbol",
          "type": "string"
        }
      ],
      "name": "CreateERC1155RaribleUser",
      "type": "event"
    },
    {
      "anonymous": false,
      "inputs": [
        {
          "indexed": false,
          "internalType": "uint256",
          "name": "tokenId",
          "type": "uint256"
        },
        {
          "components": [
            {
              "internalType": "address payable",
              "name": "account",
              "type": "address"
            },
            {
              "internalType": "uint96",
              "name": "value",
              "type": "uint96"
            }
          ],
          "indexed": false,
          "internalType": "struct LibPart.Part[]",
          "name": "creators",
          "type": "tuple[]"
        }
      ],
      "name": "Creators",
      "type": "event"
    },
    {
      "anonymous": false,
      "inputs": [
        {
          "indexed": true,
          "internalType": "address",
          "name": "operator",
          "type": "address"
        },
        {
          "indexed": false,
          "internalType": "bool",
          "name": "hasApproval",
          "type": "bool"
        }
      ],
      "name": "DefaultApproval",
      "type": "event"
    },
    {
      "anonymous": false,
      "inputs": [
        {
          "indexed": true,
          "internalType": "address",
          "name": "operator",
          "type": "address"
        },
        {
          "indexed": true,
          "internalType": "address",
          "name": "minter",
          "type": "address"
        }
      ],
      "name": "MinterAdded",
      "type": "event"
    },
    {
      "anonymous": false,
      "inputs": [
        {
          "indexed": true,
          "internalType": "address",
          "name": "operator",
          "type": "address"
        },
        {
          "indexed": true,
          "internalType": "address",
          "name": "minter",
          "type": "address"
        }
      ],
      "name": "MinterRemoved",
      "type": "event"
    },
    {
      "anonymous": false,
      "inputs": [
        {
          "indexed": true,
          "internalType": "address",
          "name": "previousOwner",
          "type": "address"
        },
        {
          "indexed": true,
          "internalType": "address",
          "name": "newOwner",
          "type": "address"
        }
      ],
      "name": "OwnershipTransferred",
      "type": "event"
    },
    {
      "anonymous": false,
      "inputs": [
        {
          "indexed": false,
          "internalType": "uint256",
          "name": "tokenId",
          "type": "uint256"
        },
        {
          "components": [
            {
              "internalType": "address payable",
              "name": "account",
              "type": "address"
            },
            {
              "internalType": "uint96",
              "name": "value",
              "type": "uint96"
            }
          ],
          "indexed": false,
          "internalType": "struct LibPart.Part[]",
          "name": "royalties",
          "type": "tuple[]"
        }
      ],
      "name": "RoyaltiesSet",
      "type": "event"
    },
    {
      "anonymous": false,
      "inputs": [
        {
          "indexed": false,
          "internalType": "uint256",
          "name": "tokenId",
          "type": "uint256"
        },
        {
          "indexed": false,
          "internalType": "uint256",
          "name": "value",
          "type": "uint256"
        }
      ],
      "name": "Supply",
      "type": "event"
    },
    {
      "anonymous": false,
      "inputs": [
        {
          "indexed": true,
          "internalType": "address",
          "name": "operator",
          "type": "address"
        },
        {
          "indexed": true,
          "internalType": "address",
          "name": "from",
          "type": "address"
        },
        {
          "indexed": true,
          "internalType": "address",
          "name": "to",
          "type": "address"
        },
        {
          "indexed": false,
          "internalType": "uint256[]",
          "name": "ids",
          "type": "uint256[]"
        },
        {
          "indexed": false,
          "internalType": "uint256[]",
          "name": "values",
          "type": "uint256[]"
        }
      ],
      "name": "TransferBatch",
      "type": "event"
    },
    {
      "anonymous": false,
      "inputs": [
        {
          "indexed": true,
          "internalType": "address",
          "name": "operator",
          "type": "address"
        },
        {
          "indexed": true,
          "internalType": "address",
          "name": "from",
          "type": "address"
        },
        {
          "indexed": true,
          "internalType": "address",
          "name": "to",
          "type": "address"
        },
        {
          "indexed": false,
          "internalType": "uint256",
          "name": "id",
          "type": "uint256"
        },
        {
          "indexed": false,
          "internalType": "uint256",
          "name": "value",
          "type": "uint256"
        }
      ],
      "name": "TransferSingle",
      "type": "event"
    },
    {
      "anonymous": false,
      "inputs": [
        {
          "indexed": false,
          "internalType": "string",
          "name": "value",
          "type": "string"
        },
        {
          "indexed": true,
          "internalType": "uint256",
          "name": "id",
          "type": "uint256"
        }
      ],
      "name": "URI",
      "type": "event"
    },
    {
      "inputs": [
        {
          "internalType": "address",
          "name": "_minter",
          "type": "address"
        }
      ],
      "name": "addMinter",
      "outputs": [],
      "stateMutability": "nonpayable",
      "type": "function"
    },
    {
      "inputs": [
        {
          "internalType": "address",
          "name": "account",
          "type": "address"
        },
        {
          "internalType": "uint256",
          "name": "id",
          "type": "uint256"
        }
      ],
      "name": "balanceOf",
      "outputs": [
        {
          "internalType": "uint256",
          "name": "",
          "type": "uint256"
        }
      ],
      "stateMutability": "view",
      "type": "function",
      "constant": true
    },
    {
      "inputs": [
        {
          "internalType": "address[]",
          "name": "accounts",
          "type": "address[]"
        },
        {
          "internalType": "uint256[]",
          "name": "ids",
          "type": "uint256[]"
        }
      ],
      "name": "balanceOfBatch",
      "outputs": [
        {
          "internalType": "uint256[]",
          "name": "",
          "type": "uint256[]"
        }
      ],
      "stateMutability": "view",
      "type": "function",
      "constant": true
    },
    {
      "inputs": [],
      "name": "baseURI",
      "outputs": [
        {
          "internalType": "string",
          "name": "",
          "type": "string"
        }
      ],
      "stateMutability": "view",
      "type": "function",
      "constant": true
    },
    {
      "inputs": [
        {
          "internalType": "address",
          "name": "account",
          "type": "address"
        },
        {
          "internalType": "uint256",
          "name": "id",
          "type": "uint256"
        },
        {
          "internalType": "uint256",
          "name": "amount",
          "type": "uint256"
        }
      ],
      "name": "burn",
      "outputs": [],
      "stateMutability": "nonpayable",
      "type": "function"
    },
    {
      "inputs": [
        {
          "internalType": "address",
          "name": "account",
          "type": "address"
        },
        {
          "internalType": "uint256[]",
          "name": "ids",
          "type": "uint256[]"
        },
        {
          "internalType": "uint256[]",
          "name": "amounts",
          "type": "uint256[]"
        }
      ],
      "name": "burnBatch",
      "outputs": [],
      "stateMutability": "nonpayable",
      "type": "function"
    },
    {
      "inputs": [],
      "name": "contractURI",
      "outputs": [
        {
          "internalType": "string",
          "name": "",
          "type": "string"
        }
      ],
      "stateMutability": "view",
      "type": "function",
      "constant": true
    },
    {
      "inputs": [
        {
          "internalType": "uint256",
          "name": "",
          "type": "uint256"
        },
        {
          "internalType": "uint256",
          "name": "",
          "type": "uint256"
        }
      ],
      "name": "creators",
      "outputs": [
        {
          "internalType": "address payable",
          "name": "account",
          "type": "address"
        },
        {
          "internalType": "uint96",
          "name": "value",
          "type": "uint96"
        }
      ],
      "stateMutability": "view",
      "type": "function",
      "constant": true
    },
    {
      "inputs": [
        {
          "internalType": "uint256",
          "name": "_id",
          "type": "uint256"
        }
      ],
      "name": "getCreators",
      "outputs": [
        {
          "components": [
            {
              "internalType": "address payable",
              "name": "account",
              "type": "address"
            },
            {
              "internalType": "uint96",
              "name": "value",
              "type": "uint96"
            }
          ],
          "internalType": "struct LibPart.Part[]",
          "name": "",
          "type": "tuple[]"
        }
      ],
      "stateMutability": "view",
      "type": "function",
      "constant": true
    },
    {
      "inputs": [
        {
          "internalType": "uint256",
          "name": "id",
          "type": "uint256"
        }
      ],
      "name": "getRaribleV2Royalties",
      "outputs": [
        {
          "components": [
            {
              "internalType": "address payable",
              "name": "account",
              "type": "address"
            },
            {
              "internalType": "uint96",
              "name": "value",
              "type": "uint96"
            }
          ],
          "internalType": "struct LibPart.Part[]",
          "name": "",
          "type": "tuple[]"
        }
      ],
      "stateMutability": "view",
      "type": "function",
      "constant": true
    },
    {
      "inputs": [
        {
          "internalType": "address",
          "name": "_owner",
          "type": "address"
        },
        {
          "internalType": "address",
          "name": "_operator",
          "type": "address"
        }
      ],
      "name": "isApprovedForAll",
      "outputs": [
        {
          "internalType": "bool",
          "name": "",
          "type": "bool"
        }
      ],
      "stateMutability": "view",
      "type": "function",
      "constant": true
    },
    {
      "inputs": [
        {
          "internalType": "address",
          "name": "account",
          "type": "address"
        }
      ],
      "name": "isMinter",
      "outputs": [
        {
          "internalType": "bool",
          "name": "",
          "type": "bool"
        }
      ],
      "stateMutability": "view",
      "type": "function",
      "constant": true
    },
    {
      "inputs": [],
      "name": "name",
      "outputs": [
        {
          "internalType": "string",
          "name": "",
          "type": "string"
        }
      ],
      "stateMutability": "view",
      "type": "function",
      "constant": true
    },
    {
      "inputs": [],
      "name": "owner",
      "outputs": [
        {
          "internalType": "address",
          "name": "",
          "type": "address"
        }
      ],
      "stateMutability": "view",
      "type": "function",
      "constant": true
    },
    {
      "inputs": [
        {
          "internalType": "address",
          "name": "_minter",
          "type": "address"
        }
      ],
      "name": "removeMinter",
      "outputs": [],
      "stateMutability": "nonpayable",
      "type": "function"
    },
    {
      "inputs": [],
      "name": "renounceOwnership",
      "outputs": [],
      "stateMutability": "nonpayable",
      "type": "function"
    },
    {
      "inputs": [
        {
          "internalType": "uint256",
          "name": "id",
          "type": "uint256"
        },
        {
          "internalType": "uint256",
          "name": "_salePrice",
          "type": "uint256"
        }
      ],
      "name": "royaltyInfo",
      "outputs": [
        {
          "internalType": "address",
          "name": "receiver",
          "type": "address"
        },
        {
          "internalType": "uint256",
          "name": "royaltyAmount",
          "type": "uint256"
        }
      ],
      "stateMutability": "view",
      "type": "function",
      "constant": true
    },
    {
      "inputs": [
        {
          "internalType": "address",
          "name": "from",
          "type": "address"
        },
        {
          "internalType": "address",
          "name": "to",
          "type": "address"
        },
        {
          "internalType": "uint256[]",
          "name": "ids",
          "type": "uint256[]"
        },
        {
          "internalType": "uint256[]",
          "name": "amounts",
          "type": "uint256[]"
        },
        {
          "internalType": "bytes",
          "name": "data",
          "type": "bytes"
        }
      ],
      "name": "safeBatchTransferFrom",
      "outputs": [],
      "stateMutability": "nonpayable",
      "type": "function"
    },
    {
      "inputs": [
        {
          "internalType": "address",
          "name": "from",
          "type": "address"
        },
        {
          "internalType": "address",
          "name": "to",
          "type": "address"
        },
        {
          "internalType": "uint256",
          "name": "id",
          "type": "uint256"
        },
        {
          "internalType": "uint256",
          "name": "amount",
          "type": "uint256"
        },
        {
          "internalType": "bytes",
          "name": "data",
          "type": "bytes"
        }
      ],
      "name": "safeTransferFrom",
      "outputs": [],
      "stateMutability": "nonpayable",
      "type": "function"
    },
    {
      "inputs": [
        {
          "internalType": "address",
          "name": "operator",
          "type": "address"
        },
        {
          "internalType": "bool",
          "name": "approved",
          "type": "bool"
        }
      ],
      "name": "setApprovalForAll",
      "outputs": [],
      "stateMutability": "nonpayable",
      "type": "function"
    },
    {
      "inputs": [
        {
          "internalType": "bytes4",
          "name": "interfaceId",
          "type": "bytes4"
        }
      ],
      "name": "supportsInterface",
      "outputs": [
        {
          "internalType": "bool",
          "name": "",
          "type": "bool"
        }
      ],
      "stateMutability": "view",
      "type": "function",
      "constant": true
    },
    {
      "inputs": [],
      "name": "symbol",
      "outputs": [
        {
          "internalType": "string",
          "name": "",
          "type": "string"
        }
      ],
      "stateMutability": "view",
      "type": "function",
      "constant": true
    },
    {
      "inputs": [
        {
          "components": [
            {
              "internalType": "uint256",
              "name": "tokenId",
              "type": "uint256"
            },
            {
              "internalType": "string",
              "name": "tokenURI",
              "type": "string"
            },
            {
              "internalType": "uint256",
              "name": "supply",
              "type": "uint256"
            },
            {
              "components": [
                {
                  "internalType": "address payable",
                  "name": "account",
                  "type": "address"
                },
                {
                  "internalType": "uint96",
                  "name": "value",
                  "type": "uint96"
                }
              ],
              "internalType": "struct LibPart.Part[]",
              "name": "creators",
              "type": "tuple[]"
            },
            {
              "components": [
                {
                  "internalType": "address payable",
                  "name": "account",
                  "type": "address"
                },
                {
                  "internalType": "uint96",
                  "name": "value",
                  "type": "uint96"
                }
              ],
              "internalType": "struct LibPart.Part[]",
              "name": "royalties",
              "type": "tuple[]"
            },
            {
              "internalType": "bytes[]",
              "name": "signatures",
              "type": "bytes[]"
            }
          ],
          "internalType": "struct LibERC1155LazyMint.Mint1155Data",
          "name": "data",
          "type": "tuple"
        },
        {
          "internalType": "address",
          "name": "from",
          "type": "address"
        },
        {
          "internalType": "address",
          "name": "to",
          "type": "address"
        },
        {
          "internalType": "uint256",
          "name": "amount",
          "type": "uint256"
        }
      ],
      "name": "transferFromOrMint",
      "outputs": [],
      "stateMutability": "nonpayable",
      "type": "function"
    },
    {
      "inputs": [
        {
          "internalType": "address",
          "name": "newOwner",
          "type": "address"
        }
      ],
      "name": "transferOwnership",
      "outputs": [],
      "stateMutability": "nonpayable",
      "type": "function"
    },
    {
      "inputs": [
        {
          "internalType": "uint256",
          "name": "_id",
          "type": "uint256"
        },
        {
          "internalType": "address",
          "name": "_from",
          "type": "address"
        },
        {
          "internalType": "address",
          "name": "_to",
          "type": "address"
        }
      ],
      "name": "updateAccount",
      "outputs": [],
      "stateMutability": "nonpayable",
      "type": "function"
    },
    {
      "inputs": [
        {
          "internalType": "uint256",
          "name": "id",
          "type": "uint256"
        }
      ],
      "name": "uri",
      "outputs": [
        {
          "internalType": "string",
          "name": "",
          "type": "string"
        }
      ],
      "stateMutability": "view",
      "type": "function",
      "constant": true
    },
    {
      "inputs": [
        {
          "internalType": "string",
          "name": "_name",
          "type": "string"
        },
        {
          "internalType": "string",
          "name": "_symbol",
          "type": "string"
        },
        {
          "internalType": "string",
          "name": "baseURI",
          "type": "string"
        },
        {
          "internalType": "string",
          "name": "contractURI",
          "type": "string"
        },
        {
          "internalType": "address[]",
          "name": "operators",
          "type": "address[]"
        },
        {
          "internalType": "address",
          "name": "transferProxy",
          "type": "address"
        },
        {
          "internalType": "address",
          "name": "lazyTransferProxy",
          "type": "address"
        }
      ],
      "name": "__ERC1155RaribleUser_init",
      "outputs": [],
      "stateMutability": "nonpayable",
      "type": "function"
    },
    {
      "inputs": [
        {
          "internalType": "string",
          "name": "_name",
          "type": "string"
        },
        {
          "internalType": "string",
          "name": "_symbol",
          "type": "string"
        },
        {
          "internalType": "string",
          "name": "baseURI",
          "type": "string"
        },
        {
          "internalType": "string",
          "name": "contractURI",
          "type": "string"
        },
        {
          "internalType": "address",
          "name": "transferProxy",
          "type": "address"
        },
        {
          "internalType": "address",
          "name": "lazyTransferProxy",
          "type": "address"
        }
      ],
      "name": "__ERC1155Rarible_init",
      "outputs": [],
      "stateMutability": "nonpayable",
      "type": "function"
    },
    {
      "inputs": [
        {
          "components": [
            {
              "internalType": "uint256",
              "name": "tokenId",
              "type": "uint256"
            },
            {
              "internalType": "string",
              "name": "tokenURI",
              "type": "string"
            },
            {
              "internalType": "uint256",
              "name": "supply",
              "type": "uint256"
            },
            {
              "components": [
                {
                  "internalType": "address payable",
                  "name": "account",
                  "type": "address"
                },
                {
                  "internalType": "uint96",
                  "name": "value",
                  "type": "uint96"
                }
              ],
              "internalType": "struct LibPart.Part[]",
              "name": "creators",
              "type": "tuple[]"
            },
            {
              "components": [
                {
                  "internalType": "address payable",
                  "name": "account",
                  "type": "address"
                },
                {
                  "internalType": "uint96",
                  "name": "value",
                  "type": "uint96"
                }
              ],
              "internalType": "struct LibPart.Part[]",
              "name": "royalties",
              "type": "tuple[]"
            },
            {
              "internalType": "bytes[]",
              "name": "signatures",
              "type": "bytes[]"
            }
          ],
          "internalType": "struct LibERC1155LazyMint.Mint1155Data",
          "name": "data",
          "type": "tuple"
        },
        {
          "internalType": "address",
          "name": "to",
          "type": "address"
        },
        {
          "internalType": "uint256",
          "name": "_amount",
          "type": "uint256"
        }
      ],
      "name": "mintAndTransfer",
      "outputs": [],
      "stateMutability": "nonpayable",
      "type": "function"
    }
  ],
  "bytecode": "0x608060405234801561001057600080fd5b5061566c806100206000396000f3fe608060405234801561001057600080fd5b50600436106101ce5760003560e01c8063891be97411610104578063cad96cca116100a2578063f242432a11610071578063f242432a146103e1578063f2fde38b146103f4578063f5298aca14610407578063ffc4e0a71461041a576101ce565b8063cad96cca146103a0578063e07f2319146103b3578063e8a3d485146103c6578063e985e9c5146103ce576101ce565b8063983b2d56116100de578063983b2d561461034657806398d0b4fb14610359578063a22cb4651461037a578063aa271e1a1461038d576101ce565b8063891be974146103095780638da5cb5b1461032957806395d89b411461033e576101ce565b80632eb2c2d61161017157806361e054591161014b57806361e05459146102d35780636b20c454146102e65780636c0360eb146102f9578063715018a614610301576101ce565b80632eb2c2d61461028d5780633092afd5146102a05780634e1273f4146102b3576101ce565b80630e89341c116101ad5780630e89341c146102315780630eaead6714610244578063173c43d2146102595780632a55205a1461026c576101ce565b8062fdd58e146101d357806301ffc9a7146101fc57806306fdde031461021c575b600080fd5b6101e66101e13660046149f9565b61042d565b6040516101f39190615210565b60405180910390f35b61020f61020a366004614ab8565b61049f565b6040516101f39190614f6c565b6102246104b2565b6040516101f39190614f77565b61022461023f366004614d51565b610541565b610257610252366004614cfa565b61054c565b005b610257610267366004614ae0565b6105f0565b61027f61027a366004614daa565b6106f3565b6040516101f3929190614f08565b61025761029b366004614847565b610803565b6102576102ae3660046147f3565b610b01565b6102c66102c1366004614a58565b610c1d565b6040516101f39190614f34565b6102576102e1366004614ba7565b610d08565b6102576102f4366004614956565b610e42565b610224610fc8565b610257611060565b61031c610317366004614d51565b61110c565b6040516101f39190614f21565b61033161119c565b6040516101f39190614e9c565b6102246111ab565b6102576103543660046147f3565b611207565b61036c610367366004614daa565b61132b565b6040516101f3929190614ee6565b6102576103883660046149c8565b611375565b61020f61039b3660046147f3565b611464565b61031c6103ae366004614d51565b611482565b6102576103c1366004614d69565b6114fd565b610224611540565b61020f6103dc36600461480f565b61159c565b6102576103ef3660046148f0565b6115af565b6102576104023660046147f3565b611768565b610257610415366004614a24565b61186b565b610257610428366004614c93565b6118e7565b60006001600160a01b0383166104745760405162461bcd60e51b815260040180806020018281038252602b8152602001806153c4602b913960400191505060405180910390fd5b5060008181526065602090815260408083206001600160a01b03861684529091529020545b92915050565b60006104aa82611942565b90505b919050565b610262805460408051602060026001851615610100026000190190941693909304601f810184900484028201840190925281815292918301828280156105395780601f1061050e57610100808354040283529160200191610539565b820191906000526020600020905b81548152906001019060200180831161051c57829003601f168201915b505050505081565b60606104aa826119e1565b6102965460ff16156105e057826060015160008151811061056957fe5b6020026020010151600001516001600160a01b031661058661119c565b6001600160a01b031614806105bb57506105bb83606001516000815181106105aa57fe5b602002602001015160000151611464565b6105e05760405162461bcd60e51b81526004016105d790614f8a565b60405180910390fd5b6105eb838383611b77565b505050565b600054610100900460ff16806106095750610609611e73565b80610617575060005460ff16155b6106525760405162461bcd60e51b815260040180806020018281038252602e8152602001806154db602e913960400191505060405180910390fd5b600054610100900460ff1615801561067d576000805460ff1961ff0019909116610100171660011790555b61068b878787878787611e84565b610296805460ff191690557fcc215b7682459c30faa0e854780165d503a7d62d22a9aaaad6334585dc63343e6106bf611f0e565b88886040516106d093929190614eb0565b60405180910390a180156106ea576000805461ff00191690555b50505050505050565b60008281526101fa60205260408120548190610714575060009050806107fc565b60008481526101fa6020908152604080832080548251818502810185019093528083529192909190849084015b8282101561079057600084815260209081902060408051808201909152908401546001600160a01b0381168252600160a01b90046001600160601b031681830152825260019092019101610741565b505050509050806000815181106107a357fe5b60209081029190910101515192506000805b82518110156107f0578281815181106107ca57fe5b6020026020010151602001516001600160601b03168201915080806001019150506107b5565b50612710908502049150505b9250929050565b81518351146108435760405162461bcd60e51b815260040180806020018281038252602881526020018061560f6028913960400191505060405180910390fd5b6001600160a01b0384166108885760405162461bcd60e51b81526004018080602001828103825260258152602001806154846025913960400191505060405180910390fd5b610890611f0e565b6001600160a01b0316856001600160a01b031614806108b657506108b6856103dc611f0e565b6108f15760405162461bcd60e51b81526004018080602001828103825260328152602001806154a96032913960400191505060405180910390fd5b60006108fb611f0e565b905061090b818787878787610af9565b60005b8451811015610a1157600085828151811061092557fe5b60200260200101519050600085838151811061093d57fe5b602002602001015190506109aa816040518060600160405280602a815260200161554e602a91396065600086815260200190815260200160002060008d6001600160a01b03166001600160a01b0316815260200190815260200160002054611f129092919063ffffffff16565b60008381526065602090815260408083206001600160a01b038e811685529252808320939093558a16815220546109e19082611fa9565b60009283526065602090815260408085206001600160a01b038c168652909152909220919091555060010161090e565b50846001600160a01b0316866001600160a01b0316826001600160a01b03167f4a39dc06d4c0dbc64b70af90fd698a233a518aa5d07e595d983b8c0526c8f7fb8787604051808060200180602001838103835285818151815260200191508051906020019060200280838360005b83811015610a97578181015183820152602001610a7f565b50505050905001838103825284818151815260200191508051906020019060200280838360005b83811015610ad6578181015183820152602001610abe565b5050505090500194505050505060405180910390a4610af9818787878787612003565b505050505050565b610b09611f0e565b6001600160a01b0316610b1a61119c565b6001600160a01b031614610b63576040805162461bcd60e51b81526020600482018190526024820152600080516020615578833981519152604482015290519081900360640190fd5b6001600160a01b038116600090815260fc602052604090205460ff16610bbd576040805162461bcd60e51b815260206004820152600a6024820152692737ba1036b4b73a32b960b11b604482015290519081900360640190fd5b6001600160a01b038116600081815260fc60205260409020805460ff19169055610be5611f0e565b6001600160a01b03167f4b5ef9a786cf64a7d82ebcf2d5132667edc9faef4ac36260d9a9e52c526b623260405160405180910390a350565b60608151835114610c5f5760405162461bcd60e51b81526004018080602001828103825260298152602001806155e66029913960400191505060405180910390fd5b600083516001600160401b0381118015610c7857600080fd5b50604051908082528060200260200182016040528015610ca2578160200160208202803683370190505b50905060005b8451811015610d0057610ce1858281518110610cc057fe5b6020026020010151858381518110610cd457fe5b602002602001015161042d565b828281518110610ced57fe5b6020908102919091010152600101610ca8565b509392505050565b600054610100900460ff1680610d215750610d21611e73565b80610d2f575060005460ff16155b610d6a5760405162461bcd60e51b815260040180806020018281038252602e8152602001806154db602e913960400191505060405180910390fd5b600054610100900460ff16158015610d95576000805460ff1961ff0019909116610100171660011790555b610da3888888888787611e84565b60005b8451811015610dd557610dcd858281518110610dbe57fe5b60200260200101516001611375565b600101610da6565b50610296805460ff191660011790557f7da6bc204c8c4856a6aff786a6cb81c59477c782191dc51837d644a8ad50f2cc610e0d611f0e565b8989604051610e1e93929190614eb0565b60405180910390a18015610e38576000805461ff00191690555b5050505050505050565b8051825114610e635760405162461bcd60e51b81526004016105d790615139565b600082516001600160401b0381118015610e7c57600080fd5b50604051908082528060200260200182016040528015610ea6578160200160208202803683370190505b509050600083516001600160401b0381118015610ec257600080fd5b50604051908082528060200260200182016040528015610eec578160200160208202803683370190505b50905060005b8451811015610f6157610f2b858281518110610f0a57fe5b6020026020010151858381518110610f1e57fe5b6020026020010151612279565b848381518110610f3757fe5b60200260200101848481518110610f4a57fe5b602090810291909101019190915252600101610ef2565b50610f6d8585846122ee565b846001600160a01b0316610f7f611f0e565b6001600160a01b03167fcf3391513e21a9d4a0348f8e890080170eba18dc62db35b60d8a518b7088eb3a8684604051610fb9929190614f47565b60405180910390a35050505050565b61012f8054604080516020601f60026000196101006001881615020190951694909404938401819004810282018101909252828152606093909290918301828280156110555780601f1061102a57610100808354040283529160200191611055565b820191906000526020600020905b81548152906001019060200180831161103857829003601f168201915b505050505090505b90565b611068611f0e565b6001600160a01b031661107961119c565b6001600160a01b0316146110c2576040805162461bcd60e51b81526020600482018190526024820152600080516020615578833981519152604482015290519081900360640190fd5b6097546040516000916001600160a01b0316907f8be0079c531659141344cd1fd0a4f28419497f9722a3daafe3b4186f6b6457e0908390a3609780546001600160a01b0319169055565b60606101fb6000838152602001908152602001600020805480602002602001604051908101604052809291908181526020016000905b8282101561119157600084815260209081902060408051808201909152908401546001600160a01b0381168252600160a01b90046001600160601b031681830152825260019092019101611142565b505050509050919050565b6097546001600160a01b031690565b610263805460408051602060026001851615610100026000190190941693909304601f810184900484028201840190925281815292918301828280156105395780601f1061050e57610100808354040283529160200191610539565b61120f611f0e565b6001600160a01b031661122061119c565b6001600160a01b031614611269576040805162461bcd60e51b81526020600482018190526024820152600080516020615578833981519152604482015290519081900360640190fd5b6001600160a01b038116600090815260fc602052604090205460ff16156112c8576040805162461bcd60e51b815260206004820152600e60248201526d20b63932b0b23c9036b4b73a32b960911b604482015290519081900360640190fd5b6001600160a01b038116600081815260fc60205260409020805460ff191660011790556112f3611f0e565b6001600160a01b03167f3c091dafb1d99e4a4c333024492eac3b2cd8bf921a3dd547c937db33be307bb860405160405180910390a350565b6101fb602052816000526040600020818154811061134857600080fd5b6000918252602090912001546001600160a01b0381169250600160a01b90046001600160601b0316905082565b816001600160a01b0316611387611f0e565b6001600160a01b031614156113cd5760405162461bcd60e51b81526004018080602001828103825260298152602001806155bd6029913960400191505060405180910390fd5b80606660006113da611f0e565b6001600160a01b03908116825260208083019390935260409182016000908120918716808252919093529120805460ff19169215159290921790915561141e611f0e565b6001600160a01b03167f17307eab39ab6107e8899845ad3d59bd9653f200f220920489ca2b5937696c318360405180821515815260200191505060405180910390a35050565b6001600160a01b0316600090815260fc602052604090205460ff1690565b60008181526101fa6020908152604080832080548251818502810185019093528083526060949293919290918401821561119157600084815260209081902060408051808201909152908401546001600160a01b0381168252600160a01b90046001600160601b031681830152825260019092019101611142565b816001600160a01b031661150f611f0e565b6001600160a01b0316146115355760405162461bcd60e51b81526004016105d790615041565b6105eb838383612362565b610230805460408051602060026001851615610100026000190190941693909304601f810184900484028201840190925281815292918301828280156105395780601f1061050e57610100808354040283529160200191610539565b60006115a8838361240e565b9392505050565b6001600160a01b0384166115f45760405162461bcd60e51b81526004018080602001828103825260258152602001806154846025913960400191505060405180910390fd5b6115fc611f0e565b6001600160a01b0316856001600160a01b031614806116225750611622856103dc611f0e565b61165d5760405162461bcd60e51b81526004018080602001828103825260298152602001806154396029913960400191505060405180910390fd5b6000611667611f0e565b90506116878187876116788861243a565b6116818861243a565b87610af9565b6116ce836040518060600160405280602a815260200161554e602a913960008781526065602090815260408083206001600160a01b038d1684529091529020549190611f12565b60008581526065602090815260408083206001600160a01b038b811685529252808320939093558716815220546117059084611fa9565b60008581526065602090815260408083206001600160a01b03808b168086529184529382902094909455805188815291820187905280518a8416938616926000805160206153a483398151915292908290030190a4610af981878787878761247f565b611770611f0e565b6001600160a01b031661178161119c565b6001600160a01b0316146117ca576040805162461bcd60e51b81526020600482018190526024820152600080516020615578833981519152604482015290519081900360640190fd5b6001600160a01b03811661180f5760405162461bcd60e51b81526004018080602001828103825260268152602001806153ef6026913960400191505060405180910390fd5b6097546040516001600160a01b038084169216907f8be0079c531659141344cd1fd0a4f28419497f9722a3daafe3b4186f6b6457e090600090a3609780546001600160a01b0319166001600160a01b0392909216919091179055565b6000806118788484612279565b9092509050811561188e5761188e8585846125f0565b80156118e057846001600160a01b03166118a6611f0e565b6001600160a01b03167f5110a21391aa55386de41fe7a3e3dffb40132d38d629a113a7f4afff251b1a018684604051610fb992919061523a565b5050505050565b60006118f784866000015161042d565b905081811561193157828083101561190c5750815b61192c8686896000015184604051806020016040528060008152506115af565b830390505b8015610af957610af986858361054c565b60006001600160e01b03198216636db15a0f60e01b148061197357506001600160e01b0319821663656cb66560e11b145b8061198e57506001600160e01b0319821663152a902d60e11b145b806119a957506001600160e01b031982166301ffc9a760e01b145b806119c457506001600160e01b03198216636cdb3d1360e11b145b806104aa5750506001600160e01b0319166303a24d0760e21b1490565b600081815261012e6020908152604080832080548251601f6002600019610100600186161502019093169290920491820185900485028101850190935280835260609493830182828015611a765780601f10611a4b57610100808354040283529160200191611a76565b820191906000526020600020905b815481529060010190602001808311611a5957829003601f168201915b505050505090506000611a87610fc8565b9050805160001415611a9b575090506104ad565b815115611ab557611aac8183612664565b925050506104ad565b80611abf85612849565b6040516020018083805190602001908083835b60208310611af15780518252601f199092019160209182019101611ad2565b51815160209384036101000a600019018019909216911617905285519190930192850191508083835b60208310611b395780518252601f199092019160209182019101611b1a565b6001836020036101000a0380198251168184511680821785525050505050509050019250505060405160208183030381529060405292505050919050565b825160601c6000611b86611f0e565b9050806001600160a01b0316826001600160a01b03161480611bad5750611bad828261159c565b611bc95760405162461bcd60e51b81526004016105d790615090565b60008311611be95760405162461bcd60e51b81526004016105d790615066565b845160009081526101fc6020526040902054611d52578460600151600081518110611c1057fe5b6020026020010151600001516001600160a01b0316826001600160a01b031614611c4c5760405162461bcd60e51b81526004016105d790615016565b6000856040015111611c705760405162461bcd60e51b81526004016105d790614fb7565b8460a001515185606001515114611c8657600080fd5b6000611c9186612923565b905060005b866060015151811015611d0757600087606001518281518110611cb557fe5b6020026020010151600001519050836001600160a01b0316816001600160a01b031614611cfe57611cfe81848a60a001518581518110611cf157fe5b6020026020010151612b76565b50600101611c96565b50611d1a86600001518760400151612b81565b611d2c86600001518760800151612beb565b611d3e86600001518760600151612dda565b611d5086600001518760200151612f89565b505b611d71848660000151856040518060200160405280600081525061304d565b836001600160a01b0316826001600160a01b031614611e2257816001600160a01b031660006001600160a01b0316826001600160a01b03166000805160206153a4833981519152886000015187604051611dcc92919061523a565b60405180910390a4836001600160a01b0316826001600160a01b0316826001600160a01b03166000805160206153a4833981519152886000015187604051611e1592919061523a565b60405180910390a46118e0565b836001600160a01b031660006001600160a01b0316826001600160a01b03166000805160206153a4833981519152886000015187604051611e6492919061523a565b60405180910390a45050505050565b6000611e7e3061305f565b15905090565b611e8c613065565b611e9461315f565b611e9c613200565b611ea461315f565b611eac61329d565b611ec46040518060200160405280600081525061336d565b611ecd83613439565b611ed561315f565b611edd6134eb565b611ee78686613588565b611eef61315f565b611ef884613655565b611f03826001613669565b610af9816001613669565b3390565b60008184841115611fa15760405162461bcd60e51b81526004018080602001828103825283818151815260200191508051906020019080838360005b83811015611f66578181015183820152602001611f4e565b50505050905090810190601f168015611f935780820380516001836020036101000a031916815260200191505b509250505060405180910390fd5b505050900390565b6000828201838110156115a8576040805162461bcd60e51b815260206004820152601b60248201527f536166654d6174683a206164646974696f6e206f766572666c6f770000000000604482015290519081900360640190fd5b612015846001600160a01b031661305f565b15610af957836001600160a01b031663bc197c8187878686866040518663ffffffff1660e01b815260040180866001600160a01b03168152602001856001600160a01b03168152602001806020018060200180602001848103845287818151815260200191508051906020019060200280838360005b838110156120a357818101518382015260200161208b565b50505050905001848103835286818151815260200191508051906020019060200280838360005b838110156120e25781810151838201526020016120ca565b50505050905001848103825285818151815260200191508051906020019080838360005b8381101561211e578181015183820152602001612106565b50505050905090810190601f16801561214b5780820380516001836020036101000a031916815260200191505b5098505050505050505050602060405180830381600087803b15801561217057600080fd5b505af192505050801561219557506040513d602081101561219057600080fd5b505160015b61222a576121a161528e565b806121ac57506121f3565b60405162461bcd60e51b8152602060048201818152835160248401528351849391928392604401919085019080838360008315611f66578181015183820152602001611f4e565b60405162461bcd60e51b81526004018080602001828103825260348152602001806153486034913960400191505060405180910390fd5b6001600160e01b0319811663bc197c8160e01b146106ea5760405162461bcd60e51b815260040180806020018281038252602881526020018061537c6028913960400191505060405180910390fd5b806000606084901c612289611f0e565b6001600160a01b0316816001600160a01b031614156122e65783915060006122b0866136c9565b905080156122d55760006122c3876136dc565b82039050808611156122d3578093505b505b6122df86846136ef565b8285039350505b509250929050565b6122f6611f0e565b6001600160a01b0316836001600160a01b0316148061231c575061231c836103dc611f0e565b6123575760405162461bcd60e51b81526004018080602001828103825260298152602001806154396029913960400191505060405180910390fd5b6105eb838383613708565b60008381526101fa6020526040812054905b818110156118e05760008581526101fa6020526040902080546001600160a01b0386169190839081106123a357fe5b6000918252602090912001546001600160a01b031614156124065760008581526101fa602052604090208054849190839081106123dc57fe5b600091825260209091200180546001600160a01b0319166001600160a01b03929092169190911790555b600101612374565b6001600160a01b038116600090815260c9602052604081205460ff16806115a857506115a88383613976565b6040805160018082528183019092526060916000919060208083019080368337019050509050828160008151811061246e57fe5b602090810291909101015292915050565b612491846001600160a01b031661305f565b15610af957836001600160a01b031663f23a6e6187878686866040518663ffffffff1660e01b815260040180866001600160a01b03168152602001856001600160a01b0316815260200184815260200183815260200180602001828103825283818151815260200191508051906020019080838360005b83811015612520578181015183820152602001612508565b50505050905090810190601f16801561254d5780820380516001836020036101000a031916815260200191505b509650505050505050602060405180830381600087803b15801561257057600080fd5b505af192505050801561259557506040513d602081101561259057600080fd5b505160015b6125a1576121a161528e565b6001600160e01b0319811663f23a6e6160e01b146106ea5760405162461bcd60e51b815260040180806020018281038252602881526020018061537c6028913960400191505060405180910390fd5b6125f8611f0e565b6001600160a01b0316836001600160a01b0316148061261e575061261e836103dc611f0e565b6126595760405162461bcd60e51b81526004018080602001828103825260298152602001806154396029913960400191505060405180910390fd5b6105eb8383836139a4565b8051825160609184918491101561272f5784846040516020018083805190602001908083835b602083106126a95780518252601f19909201916020918201910161268a565b51815160209384036101000a600019018019909216911617905285519190930192850191508083835b602083106126f15780518252601f1990920191602091820191016126d2565b6001836020036101000a0380198251168184511680821785525050505050509050019250505060405160208183030381529060405292505050610499565b60005b825181101561283f5782818151811061274757fe5b602001015160f81c60f81b6001600160f81b03191682828151811061276857fe5b01602001516001600160f81b031916146128375785856040516020018083805190602001908083835b602083106127b05780518252601f199092019160209182019101612791565b51815160209384036101000a600019018019909216911617905285519190930192850191508083835b602083106127f85780518252601f1990920191602091820191016127d9565b6001836020036101000a038019825116818451168082178552505050505050905001925050506040516020818303038152906040529350505050610499565b600101612732565b5092949350505050565b60608161286e57506040805180820190915260018152600360fc1b60208201526104ad565b8160005b811561288657600101600a82049150612872565b6000816001600160401b038111801561289e57600080fd5b506040519080825280601f01601f1916602001820160405280156128c9576020820181803683370190505b50859350905060001982015b831561291a57600a840660300160f81b828280600190039350815181106128f857fe5b60200101906001600160f81b031916908160001a905350600a840493506128d5565b50949350505050565b6000808260800151516001600160401b038111801561294157600080fd5b5060405190808252806020026020018201604052801561296b578160200160208202803683370190505b50905060005b8360800151518110156129bd5761299e8460800151828151811061299157fe5b6020026020010151613ac5565b8282815181106129aa57fe5b6020908102919091010152600101612971565b5060008360600151516001600160401b03811180156129db57600080fd5b50604051908082528060200260200182016040528015612a05578160200160208202803683370190505b50905060005b846060015151811015612a4a57612a2b8560600151828151811061299157fe5b828281518110612a3757fe5b6020908102919091010152600101612a0b565b507ffb988707ebb338694f318760b0fd5cfe756d00a2ade251fda110b80c336a3c7f846000015185604001518660200151805190602001208460405160200180828051906020019060200280838360005b83811015612ab3578181015183820152602001612a9b565b50505050905001915050604051602081830303815290604052805190602001208660405160200180828051906020019060200280838360005b83811015612b04578181015183820152602001612aec565b50505050905001915050604051602081830303815290604052805190602001206040516020018087815260200186815260200185815260200184815260200183815260200182815260200196505050505050506040516020818303038152906040528051906020012092505050919050565b6105eb838383613b32565b60008281526101fc602052604090205415612b9b57600080fd5b60008281526101fc602052604090819020829055517f5e2aa66efd74cce82b21852e317e5490d9ecc9e6bb953ae24d90851258cc2f5c90612bdf908490849061523a565b60405180910390a15050565b6000805b8251811015612d8f5760006001600160a01b0316838281518110612c0f57fe5b6020026020010151600001516001600160a01b03161415612c77576040805162461bcd60e51b815260206004820152601b60248201527f526563697069656e742073686f756c642062652070726573656e740000000000604482015290519081900360640190fd5b828181518110612c8357fe5b6020026020010151602001516001600160601b031660001415612ced576040805162461bcd60e51b815260206004820181905260248201527f526f79616c74792076616c75652073686f756c6420626520706f736974697665604482015290519081900360640190fd5b828181518110612cf957fe5b6020026020010151602001516001600160601b0316820191506101fa6000858152602001908152602001600020838281518110612d3257fe5b60209081029190910181015182546001818101855560009485529383902082519101805492909301516001600160601b0316600160a01b026001600160a01b039182166001600160a01b0319909316929092171617905501612bef565b506127108110612dd05760405162461bcd60e51b81526004018080602001828103825260258152602001806155986025913960400191505060405180910390fd5b6105eb8383613d74565b60008281526101fb6020526040812090805b8351811015612f285760006001600160a01b0316848281518110612e0c57fe5b6020026020010151600001516001600160a01b03161415612e3f5760405162461bcd60e51b81526004016105d790615102565b838181518110612e4b57fe5b6020026020010151602001516001600160601b031660001415612e805760405162461bcd60e51b81526004016105d790614fe1565b82848281518110612e8d57fe5b602090810291909101810151825460018101845560009384529282902081519301805491909201516001600160601b0316600160a01b026001600160a01b039384166001600160a01b0319909216919091179092169190911790558351612f1e90859083908110612efa57fe5b6020026020010151602001516001600160601b031683611fa990919063ffffffff16565b9150600101612dec565b508061271014612f4a5760405162461bcd60e51b81526004016105d7906151c2565b7f841ffb90d4cabdd1f16034f3fa831d79060febbb8167bdd54a49269365bdf78f8484604051612f7b929190615219565b60405180910390a150505050565b600082815261012e602090815260409091208251612fa992840190614437565b50817f6bb7ff708619ba0610cba295a58592e0451dee2622938c8755667688daf3529b612fd5846119e1565b6040805160208082528351818301528351919283929083019185019080838360005b8381101561300f578181015183820152602001612ff7565b50505050905090810190601f16801561303c5780820380516001836020036101000a031916815260200191505b509250505060405180910390a25050565b61305984848484613da5565b50505050565b3b151590565b600054610100900460ff168061307e575061307e611e73565b8061308c575060005460ff16155b6130c75760405162461bcd60e51b815260040180806020018281038252602e8152602001806154db602e913960400191505060405180910390fd5b600054610100900460ff161580156130f2576000805460ff1961ff0019909116610100171660011790555b60006130fc611f0e565b609780546001600160a01b0319166001600160a01b038316908117909155604051919250906000907f8be0079c531659141344cd1fd0a4f28419497f9722a3daafe3b4186f6b6457e0908290a350801561315c576000805461ff00191690555b50565b600054610100900460ff16806131785750613178611e73565b80613186575060005460ff16155b6131c15760405162461bcd60e51b815260040180806020018281038252602e8152602001806154db602e913960400191505060405180910390fd5b600054610100900460ff161580156131ec576000805460ff1961ff0019909116610100171660011790555b801561315c576000805461ff001916905550565b600054610100900460ff16806132195750613219611e73565b80613227575060005460ff16155b6132625760405162461bcd60e51b815260040180806020018281038252602e8152602001806154db602e913960400191505060405180910390fd5b600054610100900460ff1615801561328d576000805460ff1961ff0019909116610100171660011790555b6131ec6301ffc9a760e01b613eb7565b600054610100900460ff16806132b657506132b6611e73565b806132c4575060005460ff16155b6132ff5760405162461bcd60e51b815260040180806020018281038252602e8152602001806154db602e913960400191505060405180910390fd5b600054610100900460ff1615801561332a576000805460ff1961ff0019909116610100171660011790555b6131ec604051806040016040528060088152602001674d696e743131353560c01b815250604051806040016040528060018152602001603160f81b815250613f3b565b600054610100900460ff16806133865750613386611e73565b80613394575060005460ff16155b6133cf5760405162461bcd60e51b815260040180806020018281038252602e8152602001806154db602e913960400191505060405180910390fd5b600054610100900460ff161580156133fa576000805460ff1961ff0019909116610100171660011790555b61340382613ffd565b613413636cdb3d1360e11b613eb7565b6134236303a24d0760e21b613eb7565b8015613435576000805461ff00191690555b5050565b600054610100900460ff16806134525750613452611e73565b80613460575060005460ff16155b61349b5760405162461bcd60e51b815260040180806020018281038252602e8152602001806154db602e913960400191505060405180910390fd5b600054610100900460ff161580156134c6576000805460ff1961ff0019909116610100171660011790555b81516134da90610230906020850190614437565b5061342363e8a3d48560e01b613eb7565b600054610100900460ff16806135045750613504611e73565b80613512575060005460ff16155b61354d5760405162461bcd60e51b815260040180806020018281038252602e8152602001806154db602e913960400191505060405180910390fd5b600054610100900460ff16158015613578576000805460ff1961ff0019909116610100171660011790555b6131ec63656cb66560e11b613eb7565b600054610100900460ff16806135a157506135a1611e73565b806135af575060005460ff16155b6135ea5760405162461bcd60e51b815260040180806020018281038252602e8152602001806154db602e913960400191505060405180910390fd5b600054610100900460ff16158015613615576000805460ff1961ff0019909116610100171660011790555b825161362990610262906020860190614437565b50815161363e90610263906020850190614437565b5080156105eb576000805461ff0019169055505050565b80516134359061012f906020840190614437565b6001600160a01b038216600081815260c96020908152604091829020805460ff1916851515908117909155825190815291517f270dbb8ba4292910ae92862466486be25c355c837270a3d8824b36a8bc7c653b9281900390910190a25050565b60009081526101fc602052604090205490565b60009081526101fd602052604090205490565b60009182526101fd602052604090912080549091019055565b6001600160a01b03831661374d5760405162461bcd60e51b815260040180806020018281038252602381526020018061552b6023913960400191505060405180910390fd5b805182511461378d5760405162461bcd60e51b815260040180806020018281038252602881526020018061560f6028913960400191505060405180910390fd5b6000613797611f0e565b90506137b781856000868660405180602001604052806000815250610af9565b60005b83518110156138955761384c8382815181106137d257fe5b6020026020010151604051806060016040528060248152602001615415602491396065600088868151811061380357fe5b602002602001015181526020019081526020016000206000896001600160a01b03166001600160a01b0316815260200190815260200160002054611f129092919063ffffffff16565b6065600086848151811061385c57fe5b602090810291909101810151825281810192909252604090810160009081206001600160a01b038a1682529092529020556001016137ba565b5060006001600160a01b0316846001600160a01b0316826001600160a01b03167f4a39dc06d4c0dbc64b70af90fd698a233a518aa5d07e595d983b8c0526c8f7fb8686604051808060200180602001838103835285818151815260200191508051906020019060200280838360005b8381101561391c578181015183820152602001613904565b50505050905001838103825284818151815260200191508051906020019060200280838360005b8381101561395b578181015183820152602001613943565b5050505090500194505050505060405180910390a450505050565b6001600160a01b03918216600090815260666020908152604080832093909416825291909152205460ff1690565b6001600160a01b0383166139e95760405162461bcd60e51b815260040180806020018281038252602381526020018061552b6023913960400191505060405180910390fd5b60006139f3611f0e565b9050613a2381856000613a058761243a565b613a0e8761243a565b60405180602001604052806000815250610af9565b613a6a826040518060600160405280602481526020016154156024913960008681526065602090815260408083206001600160a01b038b1684529091529020549190611f12565b60008481526065602090815260408083206001600160a01b03808a16808652918452828520959095558151888152928301879052815193949093908616926000805160206153a483398151915292908290030190a450505050565b8051602091820151604080517f397e04204c1e1a60ee8724b71f8244e10ab5f2e9009854d80f602bda21b59ebb818601526001600160a01b03909316838201526001600160601b039091166060808401919091528151808403909101815260809092019052805191012090565b6000613b3d83614010565b90506000825160411415613b5857613b55828461405c565b90505b846001600160a01b0316816001600160a01b0316146118e057613b83856001600160a01b031661305f565b15613cfc5760408051630b135d3f60e11b808252600482018581526024830193845286516044840152865191936001600160a01b038a1693631626ba7e9388938a9390929091606490910190602085019080838360005b83811015613bf2578181015183820152602001613bda565b50505050905090810190601f168015613c1f5780820380516001836020036101000a031916815260200191505b50935050505060206040518083038186803b158015613c3d57600080fd5b505afa158015613c51573d6000803e3d6000fd5b505050506040513d6020811015613c6757600080fd5b505160408051808201909152601c81527f7369676e617475726520766572696669636174696f6e206572726f72000000006020820152916001600160e01b031990911614613cf65760405162461bcd60e51b8152602060048201818152835160248401528351909283926044909101919085019080838360008315611f66578181015183820152602001611f4e565b506118e0565b604080518082018252601c81527f7369676e617475726520766572696669636174696f6e206572726f72000000006020808301918252925162461bcd60e51b81526004810193845282516024820152825192939283926044909201919080838360008315611f66578181015183820152602001611f4e565b7f3fa96d7b6bcbfe71ef171666d84db3cf52fa2d1c8afdb1cc8e486177f208b7df8282604051612bdf929190615219565b60008381526101fd6020526040812054613dc0908490611fa9565b60008581526101fc6020526040902054909150811115613df25760405162461bcd60e51b81526004016105d7906150d8565b60008481526101fd602052604090208190556001600160a01b038516613e2a5760405162461bcd60e51b81526004016105d790615181565b6000613e34611f0e565b9050613e5581600088613e468961243a565b613e4f8961243a565b88610af9565b60008581526065602090815260408083206001600160a01b038a168452909152902054613e829085611fa9565b60008681526065602090815260408083206001600160a01b038b168452909152812091909155610af99082908888888861247f565b6001600160e01b03198082161415613f16576040805162461bcd60e51b815260206004820152601c60248201527f4552433136353a20696e76616c696420696e7465726661636520696400000000604482015290519081900360640190fd5b6001600160e01b0319166000908152603360205260409020805460ff19166001179055565b600054610100900460ff1680613f545750613f54611e73565b80613f62575060005460ff16155b613f9d5760405162461bcd60e51b815260040180806020018281038252602e8152602001806154db602e913960400191505060405180910390fd5b600054610100900460ff16158015613fc8576000805460ff1961ff0019909116610100171660011790555b8251602080850191909120835191840191909120610162919091556101635580156105eb576000805461ff0019169055505050565b8051613435906067906020840190614437565b600061401a6140dc565b82604051602001808061190160f01b81525060020183815260200182815260200192505050604051602081830303815290604052805190602001209050919050565b600081516041146140b4576040805162461bcd60e51b815260206004820152601f60248201527f45434453413a20696e76616c6964207369676e6174757265206c656e67746800604482015290519081900360640190fd5b60208201516040830151606084015160001a6140d28682858561411c565b9695505050505050565b60006141177f8b73c3c69bb8fe3d512ecc4cf759cc79239f7b179b0ffacaa9a75d522b39400f61410a614372565b614112614379565b614380565b905090565b60007f7fffffffffffffffffffffffffffffff5d576e7357a4501ddfe92f46681b20a082111561417d5760405162461bcd60e51b81526004018080602001828103825260228152602001806154626022913960400191505060405180910390fd5b6000601e8560ff161115614257576004850360ff16601b14806141a657506004850360ff16601c145b6141e15760405162461bcd60e51b81526004018080602001828103825260228152602001806155096022913960400191505060405180910390fd5b60016141ec876143e2565b60048703868660405160008152602001604052604051808581526020018460ff1681526020018381526020018281526020019450505050506020604051602081039080840390855afa158015614246573d6000803e3d6000fd5b50505060206040510351905061430e565b8460ff16601b148061426c57508460ff16601c145b6142a75760405162461bcd60e51b81526004018080602001828103825260228152602001806155096022913960400191505060405180910390fd5b60018686868660405160008152602001604052604051808581526020018460ff1681526020018381526020018281526020019450505050506020604051602081039080840390855afa158015614301573d6000803e3d6000fd5b5050506020604051035190505b6001600160a01b038116614369576040805162461bcd60e51b815260206004820152601860248201527f45434453413a20696e76616c6964207369676e61747572650000000000000000604482015290519081900360640190fd5b95945050505050565b6101625490565b6101635490565b600083838361438d614433565b3060405160200180868152602001858152602001848152602001838152602001826001600160a01b03168152602001955050505050506040516020818303038152906040528051906020012090509392505050565b604080517f19457468657265756d205369676e6564204d6573736167653a0a333200000000602080830191909152603c8083019490945282518083039094018452605c909101909152815191012090565b4690565b828054600181600116156101000203166002900490600052602060002090601f01602090048101928261446d57600085556144b3565b82601f1061448657805160ff19168380011785556144b3565b828001600101855582156144b3579182015b828111156144b3578251825591602001919060010190614498565b506144bf9291506144c3565b5090565b5b808211156144bf57600081556001016144c4565b80356104ad81615332565b600082601f8301126144f3578081fd5b813560206145086145038361526b565b615248565b8281528181019085830183850287018401881015614524578586fd5b855b8581101561454b57813561453981615332565b84529284019290840190600101614526565b5090979650505050505050565b600082601f830112614568578081fd5b813560206145786145038361526b565b82815281810190858301855b8581101561454b5761459b898684358b01016146c2565b84529284019290840190600101614584565b600082601f8301126145bd578081fd5b813560206145cd6145038361526b565b828152818101908583016040808602880185018910156145eb578687fd5b865b8681101561465a5781838b031215614603578788fd5b81518281018181106001600160401b038211171561461d57fe5b8352833561462a81615332565b8152838701356001600160601b038116811461464457898afd5b81880152855293850193918101916001016145ed565b509198975050505050505050565b600082601f830112614678578081fd5b813560206146886145038361526b565b82815281810190858301838502870184018810156146a4578586fd5b855b8581101561454b578135845292840192908401906001016146a6565b600082601f8301126146d2578081fd5b81356001600160401b038111156146e557fe5b6146f8601f8201601f1916602001615248565b81815284602083860101111561470c578283fd5b816020850160208301379081016020019190915292915050565b600060c08284031215614737578081fd5b61474160c0615248565b90508135815260208201356001600160401b038082111561476157600080fd5b61476d858386016146c2565b602084015260408401356040840152606084013591508082111561479057600080fd5b61479c858386016145ad565b606084015260808401359150808211156147b557600080fd5b6147c1858386016145ad565b608084015260a08401359150808211156147da57600080fd5b506147e784828501614558565b60a08301525092915050565b600060208284031215614804578081fd5b81356115a881615332565b60008060408385031215614821578081fd5b823561482c81615332565b9150602083013561483c81615332565b809150509250929050565b600080600080600060a0868803121561485e578081fd5b853561486981615332565b9450602086013561487981615332565b935060408601356001600160401b0380821115614894578283fd5b6148a089838a01614668565b945060608801359150808211156148b5578283fd5b6148c189838a01614668565b935060808801359150808211156148d6578283fd5b506148e3888289016146c2565b9150509295509295909350565b600080600080600060a08688031215614907578283fd5b853561491281615332565b9450602086013561492281615332565b9350604086013592506060860135915060808601356001600160401b0381111561494a578182fd5b6148e3888289016146c2565b60008060006060848603121561496a578081fd5b833561497581615332565b925060208401356001600160401b0380821115614990578283fd5b61499c87838801614668565b935060408601359150808211156149b1578283fd5b506149be86828701614668565b9150509250925092565b600080604083850312156149da578182fd5b82356149e581615332565b91506020830135801515811461483c578182fd5b60008060408385031215614a0b578182fd5b8235614a1681615332565b946020939093013593505050565b600080600060608486031215614a38578081fd5b8335614a4381615332565b95602085013595506040909401359392505050565b60008060408385031215614a6a578182fd5b82356001600160401b0380821115614a80578384fd5b614a8c868387016144e3565b93506020850135915080821115614aa1578283fd5b50614aae85828601614668565b9150509250929050565b600060208284031215614ac9578081fd5b81356001600160e01b0319811681146115a8578182fd5b60008060008060008060c08789031215614af8578384fd5b86356001600160401b0380821115614b0e578586fd5b614b1a8a838b016146c2565b97506020890135915080821115614b2f578586fd5b614b3b8a838b016146c2565b96506040890135915080821115614b50578586fd5b614b5c8a838b016146c2565b95506060890135915080821115614b71578283fd5b50614b7e89828a016146c2565b935050614b8d608088016144d8565b9150614b9b60a088016144d8565b90509295509295509295565b600080600080600080600060e0888a031215614bc1578485fd5b87356001600160401b0380821115614bd7578687fd5b614be38b838c016146c2565b985060208a0135915080821115614bf8578687fd5b614c048b838c016146c2565b975060408a0135915080821115614c19578687fd5b614c258b838c016146c2565b965060608a0135915080821115614c3a578283fd5b614c468b838c016146c2565b955060808a0135915080821115614c5b578283fd5b50614c688a828b016144e3565b935050614c7760a089016144d8565b9150614c8560c089016144d8565b905092959891949750929550565b60008060008060808587031215614ca8578182fd5b84356001600160401b03811115614cbd578283fd5b614cc987828801614726565b9450506020850135614cda81615332565b92506040850135614cea81615332565b9396929550929360600135925050565b600080600060608486031215614d0e578081fd5b83356001600160401b03811115614d23578182fd5b614d2f86828701614726565b9350506020840135614d4081615332565b929592945050506040919091013590565b600060208284031215614d62578081fd5b5035919050565b600080600060608486031215614d7d578081fd5b833592506020840135614d8f81615332565b91506040840135614d9f81615332565b809150509250925092565b60008060408385031215614dbc578182fd5b50508035926020909101359150565b6000815180845260208085019450808401835b83811015614e1757815180516001600160a01b031688528301516001600160601b03168388015260409096019590820190600101614dde565b509495945050505050565b6000815180845260208085019450808401835b83811015614e1757815187529582019590820190600101614e35565b60008151808452815b81811015614e7657602081850181015186830182015201614e5a565b81811115614e875782602083870101525b50601f01601f19169290920160200192915050565b6001600160a01b0391909116815260200190565b6001600160a01b0384168152606060208201819052600090614ed490830185614e51565b82810360408401526140d28185614e51565b6001600160a01b039290921682526001600160601b0316602082015260400190565b6001600160a01b03929092168252602082015260400190565b6000602082526115a86020830184614dcb565b6000602082526115a86020830184614e22565b600060408252614f5a6040830185614e22565b82810360208401526143698185614e22565b901515815260200190565b6000602082526115a86020830184614e51565b6020808252601390820152723737ba1037bbb732b91037b91036b4b73a32b960691b604082015260600190565b60208082526010908201526f1cdd5c1c1b1e481a5b98dbdc9c9958dd60821b604082015260600190565b6020808252818101527f43726561746f722073686172652073686f756c6420626520706f736974697665604082015260600190565b6020808252601190820152701d1bdad95b9259081a5b98dbdc9c9958dd607a1b604082015260600190565b6020808252600b908201526a1b9bdd08185b1b1bddd95960aa1b604082015260600190565b60208082526010908201526f185b5bdd5b9d081a5b98dbdc9c9958dd60821b604082015260600190565b60208082526028908201527f455243313135353a207472616e736665722063616c6c6572206973206e6f7420604082015267185c1c1c9bdd995960c21b606082015260800190565b60208082526010908201526f6d6f7265207468616e20737570706c7960801b604082015260600190565b60208082526019908201527f4163636f756e742073686f756c642062652070726573656e7400000000000000604082015260600190565b60208082526028908201527f455243313135353a2069647320616e6420616d6f756e7473206c656e677468206040820152670dad2e6dac2e8c6d60c31b606082015260800190565b60208082526021908201527f455243313135353a206d696e7420746f20746865207a65726f206164647265736040820152607360f81b606082015260800190565b6020808252602e908201527f746f74616c20616d6f756e74206f662063726561746f7273207368617265207360408201526d0686f756c642062652031303030360941b606082015260800190565b90815260200190565b6000838252604060208301526152326040830184614dcb565b949350505050565b918252602082015260400190565b6040518181016001600160401b038111828210171561526357fe5b604052919050565b60006001600160401b0382111561527e57fe5b5060209081020190565b60e01c90565b600060443d101561529e5761105d565b600481823e6308c379a06152b28251615288565b146152bc5761105d565b6040513d600319016004823e80513d6001600160401b0381602484011181841117156152eb575050505061105d565b82840192508251915080821115615305575050505061105d565b503d8301602082840101111561531d5750505061105d565b601f01601f1916810160200160405291505090565b6001600160a01b038116811461315c57600080fdfe455243313135353a207472616e7366657220746f206e6f6e2045524331313535526563656976657220696d706c656d656e746572455243313135353a204552433131353552656365697665722072656a656374656420746f6b656e73c3d58168c5ae7397731d063d5bbf3d657854427343f4c083240f7aacaa2d0f62455243313135353a2062616c616e636520717565727920666f7220746865207a65726f20616464726573734f776e61626c653a206e6577206f776e657220697320746865207a65726f2061646472657373455243313135353a206275726e20616d6f756e7420657863656564732062616c616e6365455243313135353a2063616c6c6572206973206e6f74206f776e6572206e6f7220617070726f76656445434453413a20696e76616c6964207369676e6174757265202773272076616c7565455243313135353a207472616e7366657220746f20746865207a65726f2061646472657373455243313135353a207472616e736665722063616c6c6572206973206e6f74206f776e6572206e6f7220617070726f766564496e697469616c697a61626c653a20636f6e747261637420697320616c726561647920696e697469616c697a656445434453413a20696e76616c6964207369676e6174757265202776272076616c7565455243313135353a206275726e2066726f6d20746865207a65726f2061646472657373455243313135353a20696e73756666696369656e742062616c616e636520666f72207472616e736665724f776e61626c653a2063616c6c6572206973206e6f7420746865206f776e6572526f79616c747920746f74616c2076616c75652073686f756c64206265203c203130303030455243313135353a2073657474696e6720617070726f76616c2073746174757320666f722073656c66455243313135353a206163636f756e747320616e6420696473206c656e677468206d69736d61746368455243313135353a2069647320616e6420616d6f756e7473206c656e677468206d69736d61746368a26469706673582212201dc2e11e8f41093909ae5862ee9273eeb7d9f48d4c59da52894acf9888c1ff0e64736f6c63430007060033",
  "immutableReferences": {},
  "source": "// SPDX-License-Identifier: MIT\n\npragma solidity 0.7.6;\npragma abicoder v2;\n\nimport \"./ERC1155Base.sol\";\n\ncontract ERC1155Rarible is ERC1155Base {\n    /// @dev true if collection is private, false if public\n    bool isPrivate;\n\n    event CreateERC1155Rarible(address owner, string name, string symbol);\n    event CreateERC1155RaribleUser(address owner, string name, string symbol);\n\n    function __ERC1155RaribleUser_init(string memory _name, string memory _symbol, string memory baseURI, string memory contractURI, address[] memory operators, address transferProxy, address lazyTransferProxy) external virtual initializer {\n        __ERC1155Rarible_init_unchained(_name, _symbol, baseURI, contractURI, transferProxy, lazyTransferProxy);\n        for(uint i = 0; i < operators.length; i++) {\n            setApprovalForAll(operators[i], true);\n        }\n\n        isPrivate = true;\n        emit CreateERC1155RaribleUser(_msgSender(), _name, _symbol);\n    }\n    \n    function __ERC1155Rarible_init(string memory _name, string memory _symbol, string memory baseURI, string memory contractURI, address transferProxy, address lazyTransferProxy) external virtual initializer {\n        __ERC1155Rarible_init_unchained(_name, _symbol, baseURI, contractURI, transferProxy, lazyTransferProxy);\n\n        isPrivate = false;\n        emit CreateERC1155Rarible(_msgSender(), _name, _symbol);\n    }\n\n    function __ERC1155Rarible_init_unchained(string memory _name, string memory _symbol, string memory baseURI, string memory contractURI, address transferProxy, address lazyTransferProxy) internal {\n        __Ownable_init_unchained();\n        __ERC1155Lazy_init_unchained();\n        __ERC165_init_unchained();\n        __Context_init_unchained();\n        __Mint1155Validator_init_unchained();\n        __ERC1155_init_unchained(\"\");\n        __HasContractURI_init_unchained(contractURI);\n        __ERC1155Burnable_init_unchained();\n        __RoyaltiesV2Upgradeable_init_unchained();\n        __ERC1155Base_init_unchained(_name, _symbol);\n        __MinterAccessControl_init_unchained();\n        _setBaseURI(baseURI);\n\n        //setting default approver for transferProxies\n        _setDefaultApproval(transferProxy, true);\n        _setDefaultApproval(lazyTransferProxy, true);\n    }\n\n    function mintAndTransfer(LibERC1155LazyMint.Mint1155Data memory data, address to, uint256 _amount) public override {\n        if (isPrivate){\n          require(owner() == data.creators[0].account || isMinter(data.creators[0].account), \"not owner or minter\");\n        }\n        super.mintAndTransfer(data, to, _amount);\n    }\n\n    uint256[49] private __gap;\n}\n",
  "sourcePath": "@rarible/tokens/contracts/erc-1155/ERC1155Rarible.sol",
  "compiler": {
    "name": "solc",
    "version": "0.7.6+commit.7338295f.Emscripten.clang"
  },
  "schemaVersion": "3.4.3",
  "updatedAt": "2022-02-02T14:17:29.855Z",
  "networkType": "ethereum",
  "devdoc": {
    "kind": "dev",
    "methods": {
      "addMinter(address)": {
        "details": "Add `_minter` to the list of allowed minters."
      },
      "balanceOf(address,uint256)": {
        "details": "See {IERC1155-balanceOf}. Requirements: - `account` cannot be the zero address."
      },
      "balanceOfBatch(address[],uint256[])": {
        "details": "See {IERC1155-balanceOfBatch}. Requirements: - `accounts` and `ids` must have the same length."
      },
      "baseURI()": {
        "details": "Returns the base URI set via {_setBaseURI}. This will be automatically added as a prefix in {tokenURI} to each token's URI, or to the token ID if no specific URI is set for that token ID."
      },
      "isMinter(address)": {
        "details": "Returns `true` if `account` has been granted to minters."
      },
      "owner()": {
        "details": "Returns the address of the current owner."
      },
      "removeMinter(address)": {
        "details": "Revoke `_minter` from the list of allowed minters."
      },
      "renounceOwnership()": {
        "details": "Leaves the contract without owner. It will not be possible to call `onlyOwner` functions anymore. Can only be called by the current owner. NOTE: Renouncing ownership will leave the contract without an owner, thereby removing any functionality that is only available to the owner."
      },
      "safeBatchTransferFrom(address,address,uint256[],uint256[],bytes)": {
        "details": "See {IERC1155-safeBatchTransferFrom}."
      },
      "safeTransferFrom(address,address,uint256,uint256,bytes)": {
        "details": "See {IERC1155-safeTransferFrom}."
      },
      "setApprovalForAll(address,bool)": {
        "details": "See {IERC1155-setApprovalForAll}."
      },
      "transferOwnership(address)": {
        "details": "Transfers ownership of the contract to a new account (`newOwner`). Can only be called by the current owner."
      }
    },
    "stateVariables": {
      "isPrivate": {
        "details": "true if collection is private, false if public"
      }
    },
    "version": 1
  },
  "userdoc": {
    "kind": "user",
    "methods": {},
    "version": 1
  }
}