{
  "contractName": "ERC1155RaribleUser",
  "abi": [
    {
      "anonymous": false,
      "inputs": [
        {
          "indexed": true,
          "internalType": "address",
          "name": "account",
          "type": "address"
        },
        {
          "indexed": true,
          "internalType": "address",
          "name": "operator",
          "type": "address"
        },
        {
          "indexed": false,
          "internalType": "bool",
          "name": "approved",
          "type": "bool"
        }
      ],
      "name": "ApprovalForAll",
      "type": "event"
    },
    {
      "anonymous": false,
      "inputs": [
        {
          "indexed": false,
          "internalType": "address",
          "name": "owner",
          "type": "address"
        },
        {
          "indexed": false,
          "internalType": "string",
          "name": "name",
          "type": "string"
        },
        {
          "indexed": false,
          "internalType": "string",
          "name": "symbol",
          "type": "string"
        }
      ],
      "name": "CreateERC1155RaribleUser",
      "type": "event"
    },
    {
      "anonymous": false,
      "inputs": [
        {
          "indexed": false,
          "internalType": "uint256",
          "name": "tokenId",
          "type": "uint256"
        },
        {
          "components": [
            {
              "internalType": "address payable",
              "name": "account",
              "type": "address"
            },
            {
              "internalType": "uint96",
              "name": "value",
              "type": "uint96"
            }
          ],
          "indexed": false,
          "internalType": "struct LibPart.Part[]",
          "name": "creators",
          "type": "tuple[]"
        }
      ],
      "name": "Creators",
      "type": "event"
    },
    {
      "anonymous": false,
      "inputs": [
        {
          "indexed": true,
          "internalType": "address",
          "name": "previousOwner",
          "type": "address"
        },
        {
          "indexed": true,
          "internalType": "address",
          "name": "newOwner",
          "type": "address"
        }
      ],
      "name": "OwnershipTransferred",
      "type": "event"
    },
    {
      "anonymous": false,
      "inputs": [
        {
          "indexed": false,
          "internalType": "uint256",
          "name": "tokenId",
          "type": "uint256"
        },
        {
          "components": [
            {
              "internalType": "address payable",
              "name": "account",
              "type": "address"
            },
            {
              "internalType": "uint96",
              "name": "value",
              "type": "uint96"
            }
          ],
          "indexed": false,
          "internalType": "struct LibPart.Part[]",
          "name": "royalties",
          "type": "tuple[]"
        }
      ],
      "name": "RoyaltiesSet",
      "type": "event"
    },
    {
      "anonymous": false,
      "inputs": [
        {
          "indexed": false,
          "internalType": "uint256",
          "name": "tokenId",
          "type": "uint256"
        },
        {
          "indexed": false,
          "internalType": "uint256",
          "name": "value",
          "type": "uint256"
        }
      ],
      "name": "Supply",
      "type": "event"
    },
    {
      "anonymous": false,
      "inputs": [
        {
          "indexed": true,
          "internalType": "address",
          "name": "operator",
          "type": "address"
        },
        {
          "indexed": true,
          "internalType": "address",
          "name": "from",
          "type": "address"
        },
        {
          "indexed": true,
          "internalType": "address",
          "name": "to",
          "type": "address"
        },
        {
          "indexed": false,
          "internalType": "uint256[]",
          "name": "ids",
          "type": "uint256[]"
        },
        {
          "indexed": false,
          "internalType": "uint256[]",
          "name": "values",
          "type": "uint256[]"
        }
      ],
      "name": "TransferBatch",
      "type": "event"
    },
    {
      "anonymous": false,
      "inputs": [
        {
          "indexed": true,
          "internalType": "address",
          "name": "operator",
          "type": "address"
        },
        {
          "indexed": true,
          "internalType": "address",
          "name": "from",
          "type": "address"
        },
        {
          "indexed": true,
          "internalType": "address",
          "name": "to",
          "type": "address"
        },
        {
          "indexed": false,
          "internalType": "uint256",
          "name": "id",
          "type": "uint256"
        },
        {
          "indexed": false,
          "internalType": "uint256",
          "name": "value",
          "type": "uint256"
        }
      ],
      "name": "TransferSingle",
      "type": "event"
    },
    {
      "anonymous": false,
      "inputs": [
        {
          "indexed": false,
          "internalType": "string",
          "name": "value",
          "type": "string"
        },
        {
          "indexed": true,
          "internalType": "uint256",
          "name": "id",
          "type": "uint256"
        }
      ],
      "name": "URI",
      "type": "event"
    },
    {
      "inputs": [
        {
          "internalType": "address",
          "name": "account",
          "type": "address"
        },
        {
          "internalType": "uint256",
          "name": "id",
          "type": "uint256"
        }
      ],
      "name": "balanceOf",
      "outputs": [
        {
          "internalType": "uint256",
          "name": "",
          "type": "uint256"
        }
      ],
      "stateMutability": "view",
      "type": "function",
      "constant": true
    },
    {
      "inputs": [
        {
          "internalType": "address[]",
          "name": "accounts",
          "type": "address[]"
        },
        {
          "internalType": "uint256[]",
          "name": "ids",
          "type": "uint256[]"
        }
      ],
      "name": "balanceOfBatch",
      "outputs": [
        {
          "internalType": "uint256[]",
          "name": "",
          "type": "uint256[]"
        }
      ],
      "stateMutability": "view",
      "type": "function",
      "constant": true
    },
    {
      "inputs": [],
      "name": "baseURI",
      "outputs": [
        {
          "internalType": "string",
          "name": "",
          "type": "string"
        }
      ],
      "stateMutability": "view",
      "type": "function",
      "constant": true
    },
    {
      "inputs": [
        {
          "internalType": "address",
          "name": "account",
          "type": "address"
        },
        {
          "internalType": "uint256",
          "name": "id",
          "type": "uint256"
        },
        {
          "internalType": "uint256",
          "name": "value",
          "type": "uint256"
        }
      ],
      "name": "burn",
      "outputs": [],
      "stateMutability": "nonpayable",
      "type": "function"
    },
    {
      "inputs": [
        {
          "internalType": "address",
          "name": "account",
          "type": "address"
        },
        {
          "internalType": "uint256[]",
          "name": "ids",
          "type": "uint256[]"
        },
        {
          "internalType": "uint256[]",
          "name": "values",
          "type": "uint256[]"
        }
      ],
      "name": "burnBatch",
      "outputs": [],
      "stateMutability": "nonpayable",
      "type": "function"
    },
    {
      "inputs": [],
      "name": "contractURI",
      "outputs": [
        {
          "internalType": "string",
          "name": "",
          "type": "string"
        }
      ],
      "stateMutability": "view",
      "type": "function",
      "constant": true
    },
    {
      "inputs": [
        {
          "internalType": "uint256",
          "name": "",
          "type": "uint256"
        },
        {
          "internalType": "uint256",
          "name": "",
          "type": "uint256"
        }
      ],
      "name": "creators",
      "outputs": [
        {
          "internalType": "address payable",
          "name": "account",
          "type": "address"
        },
        {
          "internalType": "uint96",
          "name": "value",
          "type": "uint96"
        }
      ],
      "stateMutability": "view",
      "type": "function",
      "constant": true
    },
    {
      "inputs": [
        {
          "internalType": "uint256",
          "name": "_id",
          "type": "uint256"
        }
      ],
      "name": "getCreators",
      "outputs": [
        {
          "components": [
            {
              "internalType": "address payable",
              "name": "account",
              "type": "address"
            },
            {
              "internalType": "uint96",
              "name": "value",
              "type": "uint96"
            }
          ],
          "internalType": "struct LibPart.Part[]",
          "name": "",
          "type": "tuple[]"
        }
      ],
      "stateMutability": "view",
      "type": "function",
      "constant": true
    },
    {
      "inputs": [
        {
          "internalType": "uint256",
          "name": "id",
          "type": "uint256"
        }
      ],
      "name": "getRaribleV2Royalties",
      "outputs": [
        {
          "components": [
            {
              "internalType": "address payable",
              "name": "account",
              "type": "address"
            },
            {
              "internalType": "uint96",
              "name": "value",
              "type": "uint96"
            }
          ],
          "internalType": "struct LibPart.Part[]",
          "name": "",
          "type": "tuple[]"
        }
      ],
      "stateMutability": "view",
      "type": "function",
      "constant": true
    },
    {
      "inputs": [
        {
          "internalType": "address",
          "name": "account",
          "type": "address"
        },
        {
          "internalType": "address",
          "name": "operator",
          "type": "address"
        }
      ],
      "name": "isApprovedForAll",
      "outputs": [
        {
          "internalType": "bool",
          "name": "",
          "type": "bool"
        }
      ],
      "stateMutability": "view",
      "type": "function",
      "constant": true
    },
    {
      "inputs": [],
      "name": "name",
      "outputs": [
        {
          "internalType": "string",
          "name": "",
          "type": "string"
        }
      ],
      "stateMutability": "view",
      "type": "function",
      "constant": true
    },
    {
      "inputs": [],
      "name": "owner",
      "outputs": [
        {
          "internalType": "address",
          "name": "",
          "type": "address"
        }
      ],
      "stateMutability": "view",
      "type": "function",
      "constant": true
    },
    {
      "inputs": [],
      "name": "renounceOwnership",
      "outputs": [],
      "stateMutability": "nonpayable",
      "type": "function"
    },
    {
      "inputs": [
        {
          "internalType": "address",
          "name": "from",
          "type": "address"
        },
        {
          "internalType": "address",
          "name": "to",
          "type": "address"
        },
        {
          "internalType": "uint256[]",
          "name": "ids",
          "type": "uint256[]"
        },
        {
          "internalType": "uint256[]",
          "name": "amounts",
          "type": "uint256[]"
        },
        {
          "internalType": "bytes",
          "name": "data",
          "type": "bytes"
        }
      ],
      "name": "safeBatchTransferFrom",
      "outputs": [],
      "stateMutability": "nonpayable",
      "type": "function"
    },
    {
      "inputs": [
        {
          "internalType": "address",
          "name": "from",
          "type": "address"
        },
        {
          "internalType": "address",
          "name": "to",
          "type": "address"
        },
        {
          "internalType": "uint256",
          "name": "id",
          "type": "uint256"
        },
        {
          "internalType": "uint256",
          "name": "amount",
          "type": "uint256"
        },
        {
          "internalType": "bytes",
          "name": "data",
          "type": "bytes"
        }
      ],
      "name": "safeTransferFrom",
      "outputs": [],
      "stateMutability": "nonpayable",
      "type": "function"
    },
    {
      "inputs": [
        {
          "internalType": "address",
          "name": "operator",
          "type": "address"
        },
        {
          "internalType": "bool",
          "name": "approved",
          "type": "bool"
        }
      ],
      "name": "setApprovalForAll",
      "outputs": [],
      "stateMutability": "nonpayable",
      "type": "function"
    },
    {
      "inputs": [],
      "name": "symbol",
      "outputs": [
        {
          "internalType": "string",
          "name": "",
          "type": "string"
        }
      ],
      "stateMutability": "view",
      "type": "function",
      "constant": true
    },
    {
      "inputs": [
        {
          "components": [
            {
              "internalType": "uint256",
              "name": "tokenId",
              "type": "uint256"
            },
            {
              "internalType": "string",
              "name": "tokenURI",
              "type": "string"
            },
            {
              "internalType": "uint256",
              "name": "supply",
              "type": "uint256"
            },
            {
              "components": [
                {
                  "internalType": "address payable",
                  "name": "account",
                  "type": "address"
                },
                {
                  "internalType": "uint96",
                  "name": "value",
                  "type": "uint96"
                }
              ],
              "internalType": "struct LibPart.Part[]",
              "name": "creators",
              "type": "tuple[]"
            },
            {
              "components": [
                {
                  "internalType": "address payable",
                  "name": "account",
                  "type": "address"
                },
                {
                  "internalType": "uint96",
                  "name": "value",
                  "type": "uint96"
                }
              ],
              "internalType": "struct LibPart.Part[]",
              "name": "royalties",
              "type": "tuple[]"
            },
            {
              "internalType": "bytes[]",
              "name": "signatures",
              "type": "bytes[]"
            }
          ],
          "internalType": "struct LibERC1155LazyMint.Mint1155Data",
          "name": "data",
          "type": "tuple"
        },
        {
          "internalType": "address",
          "name": "from",
          "type": "address"
        },
        {
          "internalType": "address",
          "name": "to",
          "type": "address"
        },
        {
          "internalType": "uint256",
          "name": "amount",
          "type": "uint256"
        }
      ],
      "name": "transferFromOrMint",
      "outputs": [],
      "stateMutability": "nonpayable",
      "type": "function"
    },
    {
      "inputs": [
        {
          "internalType": "address",
          "name": "newOwner",
          "type": "address"
        }
      ],
      "name": "transferOwnership",
      "outputs": [],
      "stateMutability": "nonpayable",
      "type": "function"
    },
    {
      "inputs": [
        {
          "internalType": "uint256",
          "name": "_id",
          "type": "uint256"
        },
        {
          "internalType": "address",
          "name": "_from",
          "type": "address"
        },
        {
          "internalType": "address",
          "name": "_to",
          "type": "address"
        }
      ],
      "name": "updateAccount",
      "outputs": [],
      "stateMutability": "nonpayable",
      "type": "function"
    },
    {
      "inputs": [
        {
          "internalType": "string",
          "name": "_name",
          "type": "string"
        },
        {
          "internalType": "string",
          "name": "_symbol",
          "type": "string"
        },
        {
          "internalType": "string",
          "name": "baseURI",
          "type": "string"
        },
        {
          "internalType": "string",
          "name": "contractURI",
          "type": "string"
        },
        {
          "internalType": "address[]",
          "name": "operators",
          "type": "address[]"
        }
      ],
      "name": "__ERC1155RaribleUser_init",
      "outputs": [],
      "stateMutability": "nonpayable",
      "type": "function"
    },
    {
      "inputs": [
        {
          "internalType": "uint256",
          "name": "tokenId",
          "type": "uint256"
        }
      ],
      "name": "uri",
      "outputs": [
        {
          "internalType": "string",
          "name": "",
          "type": "string"
        }
      ],
      "stateMutability": "view",
      "type": "function",
      "constant": true
    },
    {
      "inputs": [
        {
          "components": [
            {
              "internalType": "uint256",
              "name": "tokenId",
              "type": "uint256"
            },
            {
              "internalType": "string",
              "name": "tokenURI",
              "type": "string"
            },
            {
              "internalType": "uint256",
              "name": "supply",
              "type": "uint256"
            },
            {
              "components": [
                {
                  "internalType": "address payable",
                  "name": "account",
                  "type": "address"
                },
                {
                  "internalType": "uint96",
                  "name": "value",
                  "type": "uint96"
                }
              ],
              "internalType": "struct LibPart.Part[]",
              "name": "creators",
              "type": "tuple[]"
            },
            {
              "components": [
                {
                  "internalType": "address payable",
                  "name": "account",
                  "type": "address"
                },
                {
                  "internalType": "uint96",
                  "name": "value",
                  "type": "uint96"
                }
              ],
              "internalType": "struct LibPart.Part[]",
              "name": "royalties",
              "type": "tuple[]"
            },
            {
              "internalType": "bytes[]",
              "name": "signatures",
              "type": "bytes[]"
            }
          ],
          "internalType": "struct LibERC1155LazyMint.Mint1155Data",
          "name": "data",
          "type": "tuple"
        },
        {
          "internalType": "address",
          "name": "to",
          "type": "address"
        },
        {
          "internalType": "uint256",
          "name": "_amount",
          "type": "uint256"
        }
      ],
      "name": "mintAndTransfer",
      "outputs": [],
      "stateMutability": "nonpayable",
      "type": "function"
    },
    {
      "inputs": [
        {
          "internalType": "bytes4",
          "name": "interfaceId",
          "type": "bytes4"
        }
      ],
      "name": "supportsInterface",
      "outputs": [
        {
          "internalType": "bool",
          "name": "",
          "type": "bool"
        }
      ],
      "stateMutability": "view",
      "type": "function",
      "constant": true
    }
  ],
  "bytecode": "0x608060405234801561001057600080fd5b50614962806100206000396000f3fe608060405234801561001057600080fd5b50600436106101575760003560e01c80638da5cb5b116100c3578063e8a3d4851161007c578063e8a3d485146102e2578063e985e9c5146102ea578063f242432a146102fd578063f2fde38b14610310578063f5298aca14610323578063ffc4e0a71461033657610157565b80638da5cb5b1461026b57806395d89b411461028057806398d0b4fb14610288578063a22cb465146102a9578063cad96cca146102bc578063e07f2319146102cf57610157565b80634e1273f4116101155780634e1273f4146101f5578063650e5ad7146102155780636b20c454146102285780636c0360eb1461023b578063715018a614610243578063891be9741461024b57610157565b8062fdd58e1461015c57806301ffc9a71461018557806306fdde03146101a55780630e89341c146101ba5780630eaead67146101cd5780632eb2c2d6146101e2575b600080fd5b61016f61016a366004613e7e565b610349565b60405161017c9190614526565b60405180910390f35b610198610193366004613f3d565b6103b8565b60405161017c91906142c0565b6101ad6103cb565b60405161017c91906142cb565b6101ad6101c83660046140e1565b61045a565b6101e06101db36600461408a565b610465565b005b6101e06101f0366004613ccc565b6104d2565b610208610203366004613edd565b6107d0565b60405161017c919061427c565b6101e0610223366004613f65565b6108bb565b6101e0610236366004613ddb565b6109b0565b6101ad610a24565b6101e0610abb565b61025e6102593660046140e1565b610b79565b60405161017c9190614269565b610273610c09565b60405161017c91906141fd565b6101ad610c18565b61029b61029636600461413a565b610c74565b60405161017c929190614247565b6101e06102b7366004613e4d565b610cbe565b61025e6102ca3660046140e1565b610dad565b6101e06102dd3660046140f9565b610e28565b6101ad610e6b565b6101986102f8366004613c94565b610ec7565b6101e061030b366004613d75565b610ef5565b6101e061031e366004613c78565b6110ae565b6101e0610331366004613ea9565b6111c3565b6101e0610344366004614023565b611237565b60006001600160a01b0383166103905760405162461bcd60e51b815260040180806020018281038252602b8152602001806146da602b913960400191505060405180910390fd5b5060009081526097602090815260408083206001600160a01b03949094168352929052205490565b60006103c382611292565b90505b919050565b61022f805460408051602060026001851615610100026000190190941693909304601f810184900484028201840190925281815292918301828280156104525780601f1061042757610100808354040283529160200191610452565b820191906000526020600020905b81548152906001019060200180831161043557829003601f168201915b505050505081565b60606103c382611316565b826060015160008151811061047657fe5b6020026020010151600001516001600160a01b0316610493610c09565b6001600160a01b0316146104c25760405162461bcd60e51b81526004016104b9906142de565b60405180910390fd5b6104cd838383611552565b505050565b81518351146105125760405162461bcd60e51b81526004018080602001828103825260288152602001806149056028913960400191505060405180910390fd5b6001600160a01b0384166105575760405162461bcd60e51b815260040180806020018281038252602581526020018061479a6025913960400191505060405180910390fd5b61055f61184f565b6001600160a01b0316856001600160a01b031614806105855750610585856102f861184f565b6105c05760405162461bcd60e51b81526004018080602001828103825260328152602001806147bf6032913960400191505060405180910390fd5b60006105ca61184f565b90506105da8187878787876107c8565b60005b84518110156106e05760008582815181106105f457fe5b60200260200101519050600085838151811061060c57fe5b60200260200101519050610679816040518060600160405280602a8152602001614864602a91396097600086815260200190815260200160002060008d6001600160a01b03166001600160a01b03168152602001908152602001600020546118539092919063ffffffff16565b60008381526097602090815260408083206001600160a01b038e811685529252808320939093558a16815220546106b090826118ea565b60009283526097602090815260408085206001600160a01b038c16865290915290922091909155506001016105dd565b50846001600160a01b0316866001600160a01b0316826001600160a01b03167f4a39dc06d4c0dbc64b70af90fd698a233a518aa5d07e595d983b8c0526c8f7fb8787604051808060200180602001838103835285818151815260200191508051906020019060200280838360005b8381101561076657818101518382015260200161074e565b50505050905001838103825284818151815260200191508051906020019060200280838360005b838110156107a557818101518382015260200161078d565b5050505090500194505050505060405180910390a46107c881878787878761194b565b505050505050565b606081518351146108125760405162461bcd60e51b81526004018080602001828103825260298152602001806148dc6029913960400191505060405180910390fd5b600083516001600160401b038111801561082b57600080fd5b50604051908082528060200260200182016040528015610855578160200160208202803683370190505b50905060005b84518110156108b35761089485828151811061087357fe5b602002602001015185838151811061088757fe5b6020026020010151610349565b8282815181106108a057fe5b602090810291909101015260010161085b565b509392505050565b600054610100900460ff16806108d457506108d4611bca565b806108e2575060005460ff16155b61091d5760405162461bcd60e51b815260040180806020018281038252602e8152602001806147f1602e913960400191505060405180910390fd5b600054610100900460ff16158015610948576000805460ff1961ff0019909116610100171660011790555b6109558686868686611bdb565b7f7da6bc204c8c4856a6aff786a6cb81c59477c782191dc51837d644a8ad50f2cc61097e61184f565b878760405161098f93929190614211565b60405180910390a180156107c8576000805461ff0019169055505050505050565b6109b861184f565b6001600160a01b0316836001600160a01b031614806109de57506109de836102f861184f565b610a195760405162461bcd60e51b815260040180806020018281038252602981526020018061474f6029913960400191505060405180910390fd5b6104cd838383611c79565b60fc8054604080516020601f6002600019610100600188161502019095169490940493840181900481028201810190925282815260609390929091830182828015610ab05780601f10610a8557610100808354040283529160200191610ab0565b820191906000526020600020905b815481529060010190602001808311610a9357829003601f168201915b505050505090505b90565b610ac361184f565b6001600160a01b0316610ad4610c09565b6001600160a01b031614610b2f576040805162461bcd60e51b815260206004820181905260248201527f4f776e61626c653a2063616c6c6572206973206e6f7420746865206f776e6572604482015290519081900360640190fd5b6033546040516000916001600160a01b0316907f8be0079c531659141344cd1fd0a4f28419497f9722a3daafe3b4186f6b6457e0908390a3603380546001600160a01b0319169055565b60606101c86000838152602001908152602001600020805480602002602001604051908101604052809291908181526020016000905b82821015610bfe57600084815260209081902060408051808201909152908401546001600160a01b0381168252600160a01b90046001600160601b031681830152825260019092019101610baf565b505050509050919050565b6033546001600160a01b031690565b610230805460408051602060026001851615610100026000190190941693909304601f810184900484028201840190925281815292918301828280156104525780601f1061042757610100808354040283529160200191610452565b6101c86020528160005260406000208181548110610c9157600080fd5b6000918252602090912001546001600160a01b0381169250600160a01b90046001600160601b0316905082565b816001600160a01b0316610cd061184f565b6001600160a01b03161415610d165760405162461bcd60e51b81526004018080602001828103825260298152602001806148b36029913960400191505060405180910390fd5b8060986000610d2361184f565b6001600160a01b03908116825260208083019390935260409182016000908120918716808252919093529120805460ff191692151592909217909155610d6761184f565b6001600160a01b03167f17307eab39ab6107e8899845ad3d59bd9653f200f220920489ca2b5937696c318360405180821515815260200191505060405180910390a35050565b60008181526101c760209081526040808320805482518185028101850190935280835260609492939192909184018215610bfe57600084815260209081902060408051808201909152908401546001600160a01b0381168252600160a01b90046001600160601b031681830152825260019092019101610baf565b816001600160a01b0316610e3a61184f565b6001600160a01b031614610e605760405162461bcd60e51b81526004016104b99061439f565b6104cd838383611ee7565b6101fd805460408051602060026001851615610100026000190190941693909304601f810184900484028201840190925281815292918301828280156104525780601f1061042757610100808354040283529160200191610452565b6001600160a01b03918216600090815260986020908152604080832093909416825291909152205460ff1690565b6001600160a01b038416610f3a5760405162461bcd60e51b815260040180806020018281038252602581526020018061479a6025913960400191505060405180910390fd5b610f4261184f565b6001600160a01b0316856001600160a01b03161480610f685750610f68856102f861184f565b610fa35760405162461bcd60e51b815260040180806020018281038252602981526020018061474f6029913960400191505060405180910390fd5b6000610fad61184f565b9050610fcd818787610fbe88611f93565b610fc788611f93565b876107c8565b611014836040518060600160405280602a8152602001614864602a913960008781526097602090815260408083206001600160a01b038d1684529091529020549190611853565b60008581526097602090815260408083206001600160a01b038b8116855292528083209390935587168152205461104b90846118ea565b60008581526097602090815260408083206001600160a01b03808b168086529184529382902094909455805188815291820187905280518a8416938616926000805160206146ba83398151915292908290030190a46107c8818787878787611fd8565b6110b661184f565b6001600160a01b03166110c7610c09565b6001600160a01b031614611122576040805162461bcd60e51b815260206004820181905260248201527f4f776e61626c653a2063616c6c6572206973206e6f7420746865206f776e6572604482015290519081900360640190fd5b6001600160a01b0381166111675760405162461bcd60e51b81526004018080602001828103825260268152602001806147056026913960400191505060405180910390fd5b6033546040516001600160a01b038084169216907f8be0079c531659141344cd1fd0a4f28419497f9722a3daafe3b4186f6b6457e090600090a3603380546001600160a01b0319166001600160a01b0392909216919091179055565b6111cb61184f565b6001600160a01b0316836001600160a01b031614806111f157506111f1836102f861184f565b61122c5760405162461bcd60e51b815260040180806020018281038252602981526020018061474f6029913960400191505060405180910390fd5b6104cd838383612149565b6000611247848660000151610349565b905081811561128157828083101561125c5750815b61127c868689600001518460405180602001604052806000815250610ef5565b830390505b80156107c8576107c8868583610465565b60006001600160e01b03198216636db15a0f60e01b14806112c357506001600160e01b0319821663656cb66560e11b145b806112de57506001600160e01b031982166301ffc9a760e01b145b806112f957506001600160e01b03198216636cdb3d1360e11b145b806103c35750506001600160e01b0319166303a24d0760e21b1490565b600081815260fb6020908152604080832080548251601f60026000196101006001861615020190931692909204918201859004850281018501909352808352606094938301828280156113aa5780601f1061137f576101008083540402835291602001916113aa565b820191906000526020600020905b81548152906001019060200180831161138d57829003601f168201915b5050505050905060006113bb610a24565b90508051600014156113cf575090506103c6565b8151156114905780826040516020018083805190602001908083835b6020831061140a5780518252601f1990920191602091820191016113eb565b51815160209384036101000a600019018019909216911617905285519190930192850191508083835b602083106114525780518252601f199092019160209182019101611433565b6001836020036101000a03801982511681845116808217855250505050505090500192505050604051602081830303815290604052925050506103c6565b8061149a8561226a565b6040516020018083805190602001908083835b602083106114cc5780518252601f1990920191602091820191016114ad565b51815160209384036101000a600019018019909216911617905285519190930192850191508083835b602083106115145780518252601f1990920191602091820191016114f5565b6001836020036101000a0380198251168184511680821785525050505050509050019250505060405160208183030381529060405292505050919050565b825160601c600061156161184f565b9050806001600160a01b0316826001600160a01b0316148061158857506115888282610ec7565b6115a45760405162461bcd60e51b81526004016104b9906143ee565b600083116115c45760405162461bcd60e51b81526004016104b9906143c4565b845160009081526101c9602052604090205461172d5784606001516000815181106115eb57fe5b6020026020010151600001516001600160a01b0316826001600160a01b0316146116275760405162461bcd60e51b81526004016104b990614374565b600085604001511161164b5760405162461bcd60e51b81526004016104b990614315565b8460a00151518560600151511461166157600080fd5b600061166c86612344565b905060005b8660600151518110156116e25760008760600151828151811061169057fe5b6020026020010151600001519050836001600160a01b0316816001600160a01b0316146116d9576116d981848a60a0015185815181106116cc57fe5b6020026020010151612597565b50600101611671565b506116f5866000015187604001516125a2565b6117078660000151876080015161260c565b611719866000015187606001516127fb565b61172b866000015187602001516129aa565b505b61174c8486600001518560405180602001604052806000815250612a6d565b836001600160a01b0316826001600160a01b0316146117fd57816001600160a01b031660006001600160a01b0316826001600160a01b03166000805160206146ba8339815191528860000151876040516117a7929190614550565b60405180910390a4836001600160a01b0316826001600160a01b0316826001600160a01b03166000805160206146ba8339815191528860000151876040516117f0929190614550565b60405180910390a4611848565b836001600160a01b031660006001600160a01b0316826001600160a01b03166000805160206146ba83398151915288600001518760405161183f929190614550565b60405180910390a45b5050505050565b3390565b600081848411156118e25760405162461bcd60e51b81526004018080602001828103825283818151815260200191508051906020019080838360005b838110156118a757818101518382015260200161188f565b50505050905090810190601f1680156118d45780820380516001836020036101000a031916815260200191505b509250505060405180910390fd5b505050900390565b600082820183811015611944576040805162461bcd60e51b815260206004820152601b60248201527f536166654d6174683a206164646974696f6e206f766572666c6f770000000000604482015290519081900360640190fd5b9392505050565b61195d846001600160a01b0316612a7f565b156107c857836001600160a01b031663bc197c8187878686866040518663ffffffff1660e01b815260040180866001600160a01b03168152602001856001600160a01b03168152602001806020018060200180602001848103845287818151815260200191508051906020019060200280838360005b838110156119eb5781810151838201526020016119d3565b50505050905001848103835286818151815260200191508051906020019060200280838360005b83811015611a2a578181015183820152602001611a12565b50505050905001848103825285818151815260200191508051906020019080838360005b83811015611a66578181015183820152602001611a4e565b50505050905090810190601f168015611a935780820380516001836020036101000a031916815260200191505b5098505050505050505050602060405180830381600087803b158015611ab857600080fd5b505af1925050508015611add57506040513d6020811015611ad857600080fd5b505160015b611b7257611ae96145a4565b80611af45750611b3b565b60405162461bcd60e51b81526020600482018181528351602484015283518493919283926044019190850190808383600083156118a757818101518382015260200161188f565b60405162461bcd60e51b815260040180806020018281038252603481526020018061465e6034913960400191505060405180910390fd5b6001600160e01b0319811663bc197c8160e01b14611bc15760405162461bcd60e51b81526004018080602001828103825260288152602001806146926028913960400191505060405180910390fd5b50505050505050565b6000611bd530612a7f565b15905090565b611be3612a85565b611beb612b7f565b611bf3612c20565b611bfb612b7f565b611c03612cbd565b611c1b60405180602001604052806000815250612d8d565b611c2482612e59565b611c2c612b7f565b611c34612f0b565b611c3e8585612fa8565b611c4783613075565b60005b81518110156107c857611c71828281518110611c6257fe5b60200260200101516001610cbe565b600101611c4a565b6001600160a01b038316611cbe5760405162461bcd60e51b81526004018080602001828103825260238152602001806148416023913960400191505060405180910390fd5b8051825114611cfe5760405162461bcd60e51b81526004018080602001828103825260288152602001806149056028913960400191505060405180910390fd5b6000611d0861184f565b9050611d28818560008686604051806020016040528060008152506107c8565b60005b8351811015611e0657611dbd838281518110611d4357fe5b602002602001015160405180606001604052806024815260200161472b6024913960976000888681518110611d7457fe5b602002602001015181526020019081526020016000206000896001600160a01b03166001600160a01b03168152602001908152602001600020546118539092919063ffffffff16565b60976000868481518110611dcd57fe5b602090810291909101810151825281810192909252604090810160009081206001600160a01b038a168252909252902055600101611d2b565b5060006001600160a01b0316846001600160a01b0316826001600160a01b03167f4a39dc06d4c0dbc64b70af90fd698a233a518aa5d07e595d983b8c0526c8f7fb8686604051808060200180602001838103835285818151815260200191508051906020019060200280838360005b83811015611e8d578181015183820152602001611e75565b50505050905001838103825284818151815260200191508051906020019060200280838360005b83811015611ecc578181015183820152602001611eb4565b5050505090500194505050505060405180910390a450505050565b60008381526101c76020526040812054905b818110156118485760008581526101c76020526040902080546001600160a01b038616919083908110611f2857fe5b6000918252602090912001546001600160a01b03161415611f8b5760008581526101c760205260409020805484919083908110611f6157fe5b600091825260209091200180546001600160a01b0319166001600160a01b03929092169190911790555b600101611ef9565b60408051600180825281830190925260609160009190602080830190803683370190505090508281600081518110611fc757fe5b602090810291909101015292915050565b611fea846001600160a01b0316612a7f565b156107c857836001600160a01b031663f23a6e6187878686866040518663ffffffff1660e01b815260040180866001600160a01b03168152602001856001600160a01b0316815260200184815260200183815260200180602001828103825283818151815260200191508051906020019080838360005b83811015612079578181015183820152602001612061565b50505050905090810190601f1680156120a65780820380516001836020036101000a031916815260200191505b509650505050505050602060405180830381600087803b1580156120c957600080fd5b505af19250505080156120ee57506040513d60208110156120e957600080fd5b505160015b6120fa57611ae96145a4565b6001600160e01b0319811663f23a6e6160e01b14611bc15760405162461bcd60e51b81526004018080602001828103825260288152602001806146926028913960400191505060405180910390fd5b6001600160a01b03831661218e5760405162461bcd60e51b81526004018080602001828103825260238152602001806148416023913960400191505060405180910390fd5b600061219861184f565b90506121c8818560006121aa87611f93565b6121b387611f93565b604051806020016040528060008152506107c8565b61220f8260405180606001604052806024815260200161472b6024913960008681526097602090815260408083206001600160a01b038b1684529091529020549190611853565b60008481526097602090815260408083206001600160a01b03808a16808652918452828520959095558151888152928301879052815193949093908616926000805160206146ba83398151915292908290030190a450505050565b60608161228f57506040805180820190915260018152600360fc1b60208201526103c6565b8160005b81156122a757600101600a82049150612293565b6000816001600160401b03811180156122bf57600080fd5b506040519080825280601f01601f1916602001820160405280156122ea576020820181803683370190505b50859350905060001982015b831561233b57600a840660300160f81b8282806001900393508151811061231957fe5b60200101906001600160f81b031916908160001a905350600a840493506122f6565b50949350505050565b6000808260800151516001600160401b038111801561236257600080fd5b5060405190808252806020026020018201604052801561238c578160200160208202803683370190505b50905060005b8360800151518110156123de576123bf846080015182815181106123b257fe5b6020026020010151613088565b8282815181106123cb57fe5b6020908102919091010152600101612392565b5060008360600151516001600160401b03811180156123fc57600080fd5b50604051908082528060200260200182016040528015612426578160200160208202803683370190505b50905060005b84606001515181101561246b5761244c856060015182815181106123b257fe5b82828151811061245857fe5b602090810291909101015260010161242c565b507ffb988707ebb338694f318760b0fd5cfe756d00a2ade251fda110b80c336a3c7f846000015185604001518660200151805190602001208460405160200180828051906020019060200280838360005b838110156124d45781810151838201526020016124bc565b50505050905001915050604051602081830303815290604052805190602001208660405160200180828051906020019060200280838360005b8381101561252557818101518382015260200161250d565b50505050905001915050604051602081830303815290604052805190602001206040516020018087815260200186815260200185815260200184815260200183815260200182815260200196505050505050506040516020818303038152906040528051906020012092505050919050565b6104cd8383836130f5565b60008281526101c96020526040902054156125bc57600080fd5b60008281526101c9602052604090819020829055517f5e2aa66efd74cce82b21852e317e5490d9ecc9e6bb953ae24d90851258cc2f5c906126009084908490614550565b60405180910390a15050565b6000805b82518110156127b05760006001600160a01b031683828151811061263057fe5b6020026020010151600001516001600160a01b03161415612698576040805162461bcd60e51b815260206004820152601b60248201527f526563697069656e742073686f756c642062652070726573656e740000000000604482015290519081900360640190fd5b8281815181106126a457fe5b6020026020010151602001516001600160601b03166000141561270e576040805162461bcd60e51b815260206004820181905260248201527f526f79616c74792076616c75652073686f756c6420626520706f736974697665604482015290519081900360640190fd5b82818151811061271a57fe5b6020026020010151602001516001600160601b0316820191506101c7600085815260200190815260200160002083828151811061275357fe5b60209081029190910181015182546001818101855560009485529383902082519101805492909301516001600160601b0316600160a01b026001600160a01b039182166001600160a01b0319909316929092171617905501612610565b5061271081106127f15760405162461bcd60e51b815260040180806020018281038252602581526020018061488e6025913960400191505060405180910390fd5b6104cd838361332d565b60008281526101c86020526040812090805b83518110156129495760006001600160a01b031684828151811061282d57fe5b6020026020010151600001516001600160a01b031614156128605760405162461bcd60e51b81526004016104b990614460565b83818151811061286c57fe5b6020026020010151602001516001600160601b0316600014156128a15760405162461bcd60e51b81526004016104b99061433f565b828482815181106128ae57fe5b602090810291909101810151825460018101845560009384529282902081519301805491909201516001600160601b0316600160a01b026001600160a01b039384166001600160a01b031990921691909117909216919091179055835161293f9085908390811061291b57fe5b6020026020010151602001516001600160601b0316836118ea90919063ffffffff16565b915060010161280d565b50806127101461296b5760405162461bcd60e51b81526004016104b9906144d8565b7f841ffb90d4cabdd1f16034f3fa831d79060febbb8167bdd54a49269365bdf78f848460405161299c92919061452f565b60405180910390a150505050565b600082815260fb6020908152604090912082516129c9928401906138c7565b50817f6bb7ff708619ba0610cba295a58592e0451dee2622938c8755667688daf3529b6129f584611316565b6040805160208082528351818301528351919283929083019185019080838360005b83811015612a2f578181015183820152602001612a17565b50505050905090810190601f168015612a5c5780820380516001836020036101000a031916815260200191505b509250505060405180910390a25050565b612a798484848461335e565b50505050565b3b151590565b600054610100900460ff1680612a9e5750612a9e611bca565b80612aac575060005460ff16155b612ae75760405162461bcd60e51b815260040180806020018281038252602e8152602001806147f1602e913960400191505060405180910390fd5b600054610100900460ff16158015612b12576000805460ff1961ff0019909116610100171660011790555b6000612b1c61184f565b603380546001600160a01b0319166001600160a01b038316908117909155604051919250906000907f8be0079c531659141344cd1fd0a4f28419497f9722a3daafe3b4186f6b6457e0908290a3508015612b7c576000805461ff00191690555b50565b600054610100900460ff1680612b985750612b98611bca565b80612ba6575060005460ff16155b612be15760405162461bcd60e51b815260040180806020018281038252602e8152602001806147f1602e913960400191505060405180910390fd5b600054610100900460ff16158015612c0c576000805460ff1961ff0019909116610100171660011790555b8015612b7c576000805461ff001916905550565b600054610100900460ff1680612c395750612c39611bca565b80612c47575060005460ff16155b612c825760405162461bcd60e51b815260040180806020018281038252602e8152602001806147f1602e913960400191505060405180910390fd5b600054610100900460ff16158015612cad576000805460ff1961ff0019909116610100171660011790555b612c0c6301ffc9a760e01b613470565b600054610100900460ff1680612cd65750612cd6611bca565b80612ce4575060005460ff16155b612d1f5760405162461bcd60e51b815260040180806020018281038252602e8152602001806147f1602e913960400191505060405180910390fd5b600054610100900460ff16158015612d4a576000805460ff1961ff0019909116610100171660011790555b612c0c604051806040016040528060088152602001674d696e743131353560c01b815250604051806040016040528060018152602001603160f81b8152506134f4565b600054610100900460ff1680612da65750612da6611bca565b80612db4575060005460ff16155b612def5760405162461bcd60e51b815260040180806020018281038252602e8152602001806147f1602e913960400191505060405180910390fd5b600054610100900460ff16158015612e1a576000805460ff1961ff0019909116610100171660011790555b612e23826135b6565b612e33636cdb3d1360e11b613470565b612e436303a24d0760e21b613470565b8015612e55576000805461ff00191690555b5050565b600054610100900460ff1680612e725750612e72611bca565b80612e80575060005460ff16155b612ebb5760405162461bcd60e51b815260040180806020018281038252602e8152602001806147f1602e913960400191505060405180910390fd5b600054610100900460ff16158015612ee6576000805460ff1961ff0019909116610100171660011790555b8151612efa906101fd9060208501906138c7565b50612e4363e8a3d48560e01b613470565b600054610100900460ff1680612f245750612f24611bca565b80612f32575060005460ff16155b612f6d5760405162461bcd60e51b815260040180806020018281038252602e8152602001806147f1602e913960400191505060405180910390fd5b600054610100900460ff16158015612f98576000805460ff1961ff0019909116610100171660011790555b612c0c63656cb66560e11b613470565b600054610100900460ff1680612fc15750612fc1611bca565b80612fcf575060005460ff16155b61300a5760405162461bcd60e51b815260040180806020018281038252602e8152602001806147f1602e913960400191505060405180910390fd5b600054610100900460ff16158015613035576000805460ff1961ff0019909116610100171660011790555b82516130499061022f9060208601906138c7565b50815161305e906102309060208501906138c7565b5080156104cd576000805461ff0019169055505050565b8051612e559060fc9060208401906138c7565b8051602091820151604080517f397e04204c1e1a60ee8724b71f8244e10ab5f2e9009854d80f602bda21b59ebb818601526001600160a01b03909316838201526001600160601b039091166060808401919091528151808403909101815260809092019052805191012090565b6000613100836135c9565b9050613114846001600160a01b0316612a7f565b1561328d5760408051630b135d3f60e11b808252600482018481526024830193845285516044840152855191936001600160a01b03891693631626ba7e938793899390929091606490910190602085019080838360005b8381101561318357818101518382015260200161316b565b50505050905090810190601f1680156131b05780820380516001836020036101000a031916815260200191505b50935050505060206040518083038186803b1580156131ce57600080fd5b505afa1580156131e2573d6000803e3d6000fd5b505050506040513d60208110156131f857600080fd5b505160408051808201909152601c81527f7369676e617475726520766572696669636174696f6e206572726f72000000006020820152916001600160e01b0319909116146132875760405162461bcd60e51b81526020600482018181528351602484015283519092839260449091019190850190808383600083156118a757818101518382015260200161188f565b50612a79565b6001600160a01b0384166132a18284613615565b6001600160a01b0316146040518060400160405280601c81526020017f7369676e617475726520766572696669636174696f6e206572726f7200000000815250906118485760405162461bcd60e51b81526020600482018181528351602484015283519092839260449091019190850190808383600083156118a757818101518382015260200161188f565b7f3fa96d7b6bcbfe71ef171666d84db3cf52fa2d1c8afdb1cc8e486177f208b7df828260405161260092919061452f565b60008381526101ca60205260408120546133799084906118ea565b60008581526101c960205260409020549091508111156133ab5760405162461bcd60e51b81526004016104b990614436565b60008481526101ca602052604090208190556001600160a01b0385166133e35760405162461bcd60e51b81526004016104b990614497565b60006133ed61184f565b905061340e816000886133ff89611f93565b61340889611f93565b886107c8565b60008581526097602090815260408083206001600160a01b038a16845290915290205461343b90856118ea565b60008681526097602090815260408083206001600160a01b038b1684529091528120919091556107c890829088888888611fd8565b6001600160e01b031980821614156134cf576040805162461bcd60e51b815260206004820152601c60248201527f4552433136353a20696e76616c696420696e7465726661636520696400000000604482015290519081900360640190fd5b6001600160e01b0319166000908152606560205260409020805460ff19166001179055565b600054610100900460ff168061350d575061350d611bca565b8061351b575060005460ff16155b6135565760405162461bcd60e51b815260040180806020018281038252602e8152602001806147f1602e913960400191505060405180910390fd5b600054610100900460ff16158015613581576000805460ff1961ff0019909116610100171660011790555b825160208085019190912083519184019190912061012f919091556101305580156104cd576000805461ff0019169055505050565b8051612e559060999060208401906138c7565b60006135d3613695565b82604051602001808061190160f01b81525060020183815260200182815260200192505050604051602081830303815290604052805190602001209050919050565b6000815160411461366d576040805162461bcd60e51b815260206004820152601f60248201527f45434453413a20696e76616c6964207369676e6174757265206c656e67746800604482015290519081900360640190fd5b60208201516040830151606084015160001a61368b868285856136d5565b9695505050505050565b60006136d07f8b73c3c69bb8fe3d512ecc4cf759cc79239f7b179b0ffacaa9a75d522b39400f6136c3613853565b6136cb61385a565b613861565b905090565b60007f7fffffffffffffffffffffffffffffff5d576e7357a4501ddfe92f46681b20a08211156137365760405162461bcd60e51b81526004018080602001828103825260228152602001806147786022913960400191505060405180910390fd5b8360ff16601b148061374b57508360ff16601c145b6137865760405162461bcd60e51b815260040180806020018281038252602281526020018061481f6022913960400191505060405180910390fd5b600060018686868660405160008152602001604052604051808581526020018460ff1681526020018381526020018281526020019450505050506020604051602081039080840390855afa1580156137e2573d6000803e3d6000fd5b5050604051601f1901519150506001600160a01b03811661384a576040805162461bcd60e51b815260206004820152601860248201527f45434453413a20696e76616c6964207369676e61747572650000000000000000604482015290519081900360640190fd5b95945050505050565b61012f5490565b6101305490565b600083838361386e6138c3565b3060405160200180868152602001858152602001848152602001838152602001826001600160a01b03168152602001955050505050506040516020818303038152906040528051906020012090509392505050565b4690565b828054600181600116156101000203166002900490600052602060002090601f0160209004810192826138fd5760008555613943565b82601f1061391657805160ff1916838001178555613943565b82800160010185558215613943579182015b82811115613943578251825591602001919060010190613928565b5061394f929150613953565b5090565b5b8082111561394f5760008155600101613954565b600082601f830112613978578081fd5b8135602061398d61398883614581565b61455e565b82815281810190858301838502870184018810156139a9578586fd5b855b858110156139d05781356139be81614648565b845292840192908401906001016139ab565b5090979650505050505050565b600082601f8301126139ed578081fd5b813560206139fd61398883614581565b82815281810190858301855b858110156139d057613a20898684358b0101613b47565b84529284019290840190600101613a09565b600082601f830112613a42578081fd5b81356020613a5261398883614581565b82815281810190858301604080860288018501891015613a70578687fd5b865b86811015613adf5781838b031215613a88578788fd5b81518281018181106001600160401b0382111715613aa257fe5b83528335613aaf81614648565b8152838701356001600160601b0381168114613ac957898afd5b8188015285529385019391810191600101613a72565b509198975050505050505050565b600082601f830112613afd578081fd5b81356020613b0d61398883614581565b8281528181019085830183850287018401881015613b29578586fd5b855b858110156139d057813584529284019290840190600101613b2b565b600082601f830112613b57578081fd5b81356001600160401b03811115613b6a57fe5b613b7d601f8201601f191660200161455e565b818152846020838601011115613b91578283fd5b816020850160208301379081016020019190915292915050565b600060c08284031215613bbc578081fd5b613bc660c061455e565b90508135815260208201356001600160401b0380821115613be657600080fd5b613bf285838601613b47565b6020840152604084013560408401526060840135915080821115613c1557600080fd5b613c2185838601613a32565b60608401526080840135915080821115613c3a57600080fd5b613c4685838601613a32565b608084015260a0840135915080821115613c5f57600080fd5b50613c6c848285016139dd565b60a08301525092915050565b600060208284031215613c89578081fd5b813561194481614648565b60008060408385031215613ca6578081fd5b8235613cb181614648565b91506020830135613cc181614648565b809150509250929050565b600080600080600060a08688031215613ce3578081fd5b8535613cee81614648565b94506020860135613cfe81614648565b935060408601356001600160401b0380821115613d19578283fd5b613d2589838a01613aed565b94506060880135915080821115613d3a578283fd5b613d4689838a01613aed565b93506080880135915080821115613d5b578283fd5b50613d6888828901613b47565b9150509295509295909350565b600080600080600060a08688031215613d8c578283fd5b8535613d9781614648565b94506020860135613da781614648565b9350604086013592506060860135915060808601356001600160401b03811115613dcf578182fd5b613d6888828901613b47565b600080600060608486031215613def578081fd5b8335613dfa81614648565b925060208401356001600160401b0380821115613e15578283fd5b613e2187838801613aed565b93506040860135915080821115613e36578283fd5b50613e4386828701613aed565b9150509250925092565b60008060408385031215613e5f578182fd5b8235613e6a81614648565b915060208301358015158114613cc1578182fd5b60008060408385031215613e90578182fd5b8235613e9b81614648565b946020939093013593505050565b600080600060608486031215613ebd578081fd5b8335613ec881614648565b95602085013595506040909401359392505050565b60008060408385031215613eef578182fd5b82356001600160401b0380821115613f05578384fd5b613f1186838701613968565b93506020850135915080821115613f26578283fd5b50613f3385828601613aed565b9150509250929050565b600060208284031215613f4e578081fd5b81356001600160e01b031981168114611944578182fd5b600080600080600060a08688031215613f7c578283fd5b85356001600160401b0380821115613f92578485fd5b613f9e89838a01613b47565b96506020880135915080821115613fb3578485fd5b613fbf89838a01613b47565b95506040880135915080821115613fd4578485fd5b613fe089838a01613b47565b94506060880135915080821115613ff5578283fd5b61400189838a01613b47565b93506080880135915080821115614016578283fd5b50613d6888828901613968565b60008060008060808587031215614038578182fd5b84356001600160401b0381111561404d578283fd5b61405987828801613bab565b945050602085013561406a81614648565b9250604085013561407a81614648565b9396929550929360600135925050565b60008060006060848603121561409e578081fd5b83356001600160401b038111156140b3578182fd5b6140bf86828701613bab565b93505060208401356140d081614648565b929592945050506040919091013590565b6000602082840312156140f2578081fd5b5035919050565b60008060006060848603121561410d578081fd5b83359250602084013561411f81614648565b9150604084013561412f81614648565b809150509250925092565b6000806040838503121561414c578182fd5b50508035926020909101359150565b6000815180845260208085019450808401835b838110156141a757815180516001600160a01b031688528301516001600160601b0316838801526040909601959082019060010161416e565b509495945050505050565b60008151808452815b818110156141d7576020818501810151868301820152016141bb565b818111156141e85782602083870101525b50601f01601f19169290920160200192915050565b6001600160a01b0391909116815260200190565b6001600160a01b0384168152606060208201819052600090614235908301856141b2565b828103604084015261368b81856141b2565b6001600160a01b039290921682526001600160601b0316602082015260400190565b600060208252611944602083018461415b565b6020808252825182820181905260009190848201906040850190845b818110156142b457835183529284019291840191600101614298565b50909695505050505050565b901515815260200190565b60006020825261194460208301846141b2565b60208082526017908201527f6d696e746572206973206e6f7420746865206f776e6572000000000000000000604082015260600190565b60208082526010908201526f1cdd5c1c1b1e481a5b98dbdc9c9958dd60821b604082015260600190565b6020808252818101527f43726561746f722073686172652073686f756c6420626520706f736974697665604082015260600190565b6020808252601190820152701d1bdad95b9259081a5b98dbdc9c9958dd607a1b604082015260600190565b6020808252600b908201526a1b9bdd08185b1b1bddd95960aa1b604082015260600190565b60208082526010908201526f185b5bdd5b9d081a5b98dbdc9c9958dd60821b604082015260600190565b60208082526028908201527f455243313135353a207472616e736665722063616c6c6572206973206e6f7420604082015267185c1c1c9bdd995960c21b606082015260800190565b60208082526010908201526f6d6f7265207468616e20737570706c7960801b604082015260600190565b60208082526019908201527f4163636f756e742073686f756c642062652070726573656e7400000000000000604082015260600190565b60208082526021908201527f455243313135353a206d696e7420746f20746865207a65726f206164647265736040820152607360f81b606082015260800190565b6020808252602e908201527f746f74616c20616d6f756e74206f662063726561746f7273207368617265207360408201526d0686f756c642062652031303030360941b606082015260800190565b90815260200190565b600083825260406020830152614548604083018461415b565b949350505050565b918252602082015260400190565b6040518181016001600160401b038111828210171561457957fe5b604052919050565b60006001600160401b0382111561459457fe5b5060209081020190565b60e01c90565b600060443d10156145b457610ab8565b600481823e6308c379a06145c8825161459e565b146145d257610ab8565b6040513d600319016004823e80513d6001600160401b0381602484011181841117156146015750505050610ab8565b8284019250825191508082111561461b5750505050610ab8565b503d8301602082840101111561463357505050610ab8565b601f01601f1916810160200160405291505090565b6001600160a01b0381168114612b7c57600080fdfe455243313135353a207472616e7366657220746f206e6f6e2045524331313535526563656976657220696d706c656d656e746572455243313135353a204552433131353552656365697665722072656a656374656420746f6b656e73c3d58168c5ae7397731d063d5bbf3d657854427343f4c083240f7aacaa2d0f62455243313135353a2062616c616e636520717565727920666f7220746865207a65726f20616464726573734f776e61626c653a206e6577206f776e657220697320746865207a65726f2061646472657373455243313135353a206275726e20616d6f756e7420657863656564732062616c616e6365455243313135353a2063616c6c6572206973206e6f74206f776e6572206e6f7220617070726f76656445434453413a20696e76616c6964207369676e6174757265202773272076616c7565455243313135353a207472616e7366657220746f20746865207a65726f2061646472657373455243313135353a207472616e736665722063616c6c6572206973206e6f74206f776e6572206e6f7220617070726f766564496e697469616c697a61626c653a20636f6e747261637420697320616c726561647920696e697469616c697a656445434453413a20696e76616c6964207369676e6174757265202776272076616c7565455243313135353a206275726e2066726f6d20746865207a65726f2061646472657373455243313135353a20696e73756666696369656e742062616c616e636520666f72207472616e73666572526f79616c747920746f74616c2076616c75652073686f756c64206265203c203130303030455243313135353a2073657474696e6720617070726f76616c2073746174757320666f722073656c66455243313135353a206163636f756e747320616e6420696473206c656e677468206d69736d61746368455243313135353a2069647320616e6420616d6f756e7473206c656e677468206d69736d61746368a26469706673582212207bf4d3afdcaa0b6ee50156bb25902c41eed16f3c6b126c134f690bcfd04e55a864736f6c63430007060033",
  "immutableReferences": {},
  "source": "// SPDX-License-Identifier: MIT\n\npragma solidity 0.7.6;\npragma abicoder v2;\n\nimport \"@openzeppelin/contracts-upgradeable/access/OwnableUpgradeable.sol\";\nimport \"./ERC1155BurnableUpgradeable.sol\";\nimport \"./ERC1155Lazy.sol\";\nimport \"../HasContractURI.sol\";\n\ncontract ERC1155RaribleUser is OwnableUpgradeable, ERC1155BurnableUpgradeable, ERC1155Lazy, HasContractURI {\n\n    event CreateERC1155RaribleUser(address owner, string name, string symbol);\n\n    string public name;\n    string public symbol;\n\n    function __ERC1155RaribleUser_init(string memory _name, string memory _symbol, string memory baseURI, string memory contractURI, address[] memory operators) external initializer {\n        __ERC1155RaribleUser_init_unchained(_name, _symbol, baseURI, contractURI, operators);\n        emit CreateERC1155RaribleUser(_msgSender(), _name, _symbol);\n    }\n\n    function __ERC1155RaribleUser_init_unchained(string memory _name, string memory _symbol, string memory baseURI, string memory contractURI, address[] memory operators) internal {\n        __Ownable_init_unchained();\n        __ERC1155Lazy_init_unchained();\n        __ERC165_init_unchained();\n        __Context_init_unchained();\n        __Mint1155Validator_init_unchained();\n        __ERC1155_init_unchained(\"\");\n        __HasContractURI_init_unchained(contractURI);\n        __ERC1155Burnable_init_unchained();\n        __RoyaltiesV2Upgradeable_init_unchained();\n        __ERC1155RaribleUser_init_unchained(_name, _symbol);\n        _setBaseURI(baseURI);\n        for(uint i = 0; i < operators.length; i++) {\n            setApprovalForAll(operators[i], true);\n        }\n    }\n\n    function __ERC1155RaribleUser_init_unchained(string memory _name, string memory _symbol) internal initializer {\n        name = _name;\n        symbol = _symbol;\n    }\n\n    function _mint(address account, uint256 tokenId, uint256 amount, bytes memory data) internal virtual override(ERC1155Upgradeable, ERC1155Lazy) {\n        ERC1155Lazy._mint(account, tokenId, amount, data);\n    }\n\n    function uri(uint tokenId) external view override(ERC1155BaseURI, ERC1155Upgradeable) virtual returns (string memory) {\n        return _tokenURI(tokenId);\n    }\n\n    function mintAndTransfer(LibERC1155LazyMint.Mint1155Data memory data, address to, uint256 _amount) public override {\n        require(owner() == data.creators[0].account, \"minter is not the owner\");\n        super.mintAndTransfer(data, to, _amount);\n    }\n\n    function supportsInterface(bytes4 interfaceId) public view virtual override(ERC1155Lazy, ERC165Upgradeable) returns (bool) {\n        return super.supportsInterface(interfaceId);\n    }\n\n    uint256[50] private __gap;\n}\n",
  "sourcePath": "@rarible/tokens/contracts/erc-1155/ERC1155RaribleUser.sol",
  "compiler": {
    "name": "solc",
    "version": "0.7.6+commit.7338295f.Emscripten.clang"
  },
  "schemaVersion": "3.4.3",
  "updatedAt": "2021-10-25T09:05:55.333Z",
  "networkType": "ethereum",
  "devdoc": {
    "kind": "dev",
    "methods": {
      "balanceOf(address,uint256)": {
        "details": "See {IERC1155-balanceOf}. Requirements: - `account` cannot be the zero address."
      },
      "balanceOfBatch(address[],uint256[])": {
        "details": "See {IERC1155-balanceOfBatch}. Requirements: - `accounts` and `ids` must have the same length."
      },
      "baseURI()": {
        "details": "Returns the base URI set via {_setBaseURI}. This will be automatically added as a prefix in {tokenURI} to each token's URI, or to the token ID if no specific URI is set for that token ID."
      },
      "isApprovedForAll(address,address)": {
        "details": "See {IERC1155-isApprovedForAll}."
      },
      "owner()": {
        "details": "Returns the address of the current owner."
      },
      "renounceOwnership()": {
        "details": "Leaves the contract without owner. It will not be possible to call `onlyOwner` functions anymore. Can only be called by the current owner. NOTE: Renouncing ownership will leave the contract without an owner, thereby removing any functionality that is only available to the owner."
      },
      "safeBatchTransferFrom(address,address,uint256[],uint256[],bytes)": {
        "details": "See {IERC1155-safeBatchTransferFrom}."
      },
      "safeTransferFrom(address,address,uint256,uint256,bytes)": {
        "details": "See {IERC1155-safeTransferFrom}."
      },
      "setApprovalForAll(address,bool)": {
        "details": "See {IERC1155-setApprovalForAll}."
      },
      "transferOwnership(address)": {
        "details": "Transfers ownership of the contract to a new account (`newOwner`). Can only be called by the current owner."
      }
    },
    "version": 1
  },
  "userdoc": {
    "kind": "user",
    "methods": {},
    "version": 1
  }
}