{
  "contractName": "ERC1155RaribleFactoryC2",
  "abi": [
    {
      "inputs": [
        {
          "internalType": "address",
          "name": "_beacon",
          "type": "address"
        },
        {
          "internalType": "address",
          "name": "_transferProxy",
          "type": "address"
        },
        {
          "internalType": "address",
          "name": "_lazyTransferProxy",
          "type": "address"
        },
        {
          "internalType": "address",
          "name": "_operatorFilterRegistrySubscriptionAddress",
          "type": "address"
        }
      ],
      "stateMutability": "nonpayable",
      "type": "constructor"
    },
    {
      "anonymous": false,
      "inputs": [
        {
          "indexed": false,
          "internalType": "address",
          "name": "proxy",
          "type": "address"
        }
      ],
      "name": "Create1155RaribleProxy",
      "type": "event"
    },
    {
      "anonymous": false,
      "inputs": [
        {
          "indexed": false,
          "internalType": "address",
          "name": "proxy",
          "type": "address"
        }
      ],
      "name": "Create1155RaribleUserProxy",
      "type": "event"
    },
    {
      "anonymous": false,
      "inputs": [
        {
          "indexed": true,
          "internalType": "address",
          "name": "previousOwner",
          "type": "address"
        },
        {
          "indexed": true,
          "internalType": "address",
          "name": "newOwner",
          "type": "address"
        }
      ],
      "name": "OwnershipTransferred",
      "type": "event"
    },
    {
      "inputs": [],
      "name": "beacon",
      "outputs": [
        {
          "internalType": "address",
          "name": "",
          "type": "address"
        }
      ],
      "stateMutability": "view",
      "type": "function"
    },
    {
      "inputs": [],
      "name": "operatorFilterRegistrySubscriptionAddress",
      "outputs": [
        {
          "internalType": "address",
          "name": "",
          "type": "address"
        }
      ],
      "stateMutability": "view",
      "type": "function"
    },
    {
      "inputs": [],
      "name": "owner",
      "outputs": [
        {
          "internalType": "address",
          "name": "",
          "type": "address"
        }
      ],
      "stateMutability": "view",
      "type": "function"
    },
    {
      "inputs": [],
      "name": "renounceOwnership",
      "outputs": [],
      "stateMutability": "nonpayable",
      "type": "function"
    },
    {
      "inputs": [
        {
          "internalType": "address",
          "name": "newOwner",
          "type": "address"
        }
      ],
      "name": "transferOwnership",
      "outputs": [],
      "stateMutability": "nonpayable",
      "type": "function"
    },
    {
      "inputs": [
        {
          "internalType": "string",
          "name": "_name",
          "type": "string"
        },
        {
          "internalType": "string",
          "name": "_symbol",
          "type": "string"
        },
        {
          "internalType": "string",
          "name": "baseURI",
          "type": "string"
        },
        {
          "internalType": "string",
          "name": "contractURI",
          "type": "string"
        },
        {
          "internalType": "address[]",
          "name": "operators",
          "type": "address[]"
        },
        {
          "internalType": "uint256",
          "name": "salt",
          "type": "uint256"
        }
      ],
      "name": "createToken",
      "outputs": [],
      "stateMutability": "nonpayable",
      "type": "function"
    },
    {
      "inputs": [
        {
          "internalType": "string",
          "name": "_name",
          "type": "string"
        },
        {
          "internalType": "string",
          "name": "_symbol",
          "type": "string"
        },
        {
          "internalType": "string",
          "name": "baseURI",
          "type": "string"
        },
        {
          "internalType": "string",
          "name": "contractURI",
          "type": "string"
        },
        {
          "internalType": "uint256",
          "name": "salt",
          "type": "uint256"
        }
      ],
      "name": "createToken",
      "outputs": [],
      "stateMutability": "nonpayable",
      "type": "function"
    },
    {
      "inputs": [
        {
          "internalType": "string",
          "name": "_name",
          "type": "string"
        },
        {
          "internalType": "string",
          "name": "_symbol",
          "type": "string"
        },
        {
          "internalType": "string",
          "name": "baseURI",
          "type": "string"
        },
        {
          "internalType": "string",
          "name": "contractURI",
          "type": "string"
        },
        {
          "internalType": "address[]",
          "name": "operators",
          "type": "address[]"
        },
        {
          "internalType": "uint256",
          "name": "_salt",
          "type": "uint256"
        }
      ],
      "name": "getAddress",
      "outputs": [
        {
          "internalType": "address",
          "name": "",
          "type": "address"
        }
      ],
      "stateMutability": "view",
      "type": "function"
    },
    {
      "inputs": [
        {
          "internalType": "string",
          "name": "_name",
          "type": "string"
        },
        {
          "internalType": "string",
          "name": "_symbol",
          "type": "string"
        },
        {
          "internalType": "string",
          "name": "baseURI",
          "type": "string"
        },
        {
          "internalType": "string",
          "name": "contractURI",
          "type": "string"
        },
        {
          "internalType": "uint256",
          "name": "_salt",
          "type": "uint256"
        }
      ],
      "name": "getAddress",
      "outputs": [
        {
          "internalType": "address",
          "name": "",
          "type": "address"
        }
      ],
      "stateMutability": "view",
      "type": "function"
    }
  ],
  "bytecode": "0x61010060405234801561001157600080fd5b50604051620017dc380380620017dc833981016040819052610032916100d5565b600061003c6100b5565b600080546001600160a01b0319166001600160a01b0383169081178255604051929350917f8be0079c531659141344cd1fd0a4f28419497f9722a3daafe3b4186f6b6457e0908290a3506001600160601b0319606094851b811660805292841b831660a05290831b821660c05290911b1660e052610128565b3390565b80516001600160a01b03811681146100d057600080fd5b919050565b600080600080608085870312156100ea578384fd5b6100f3856100b9565b9350610101602086016100b9565b925061010f604086016100b9565b915061011d606086016100b9565b905092959194509250565b60805160601c60a05160601c60c05160601c60e05160601c611659620001836000398061043d528061063c52806107c852508061061b52806107a75250806105fa5280610786525080610292528061071452506116596000f3fe60806040523480156200001157600080fd5b5060043610620000a05760003560e01c806372397ad5116200006f57806372397ad514620001015780638d6f30d214620001185780638da5cb5b14620001225780639cf3178b146200012c578063f2fde38b146200014357620000a0565b806327050d1f14620000a55780633928069514620000be57806359659e9014620000ed578063715018a614620000f7575b600080fd5b620000bc620000b63660046200097b565b6200015a565b005b620000d5620000cf3660046200097b565b62000227565b604051620000e4919062000bc3565b60405180910390f35b620000d562000290565b620000bc620002b4565b620000bc6200011236600462000a5f565b62000377565b620000d56200043b565b620000d56200045f565b620000d56200013d36600462000a5f565b6200046e565b620000bc6200015436600462000957565b620004cf565b6000620001766200016f8888888888620005ea565b83620006b1565b9050806001600160a01b03811663f2fde38b62000192620006e0565b6040518263ffffffff1660e01b8152600401620001b0919062000bc3565b600060405180830381600087803b158015620001cb57600080fd5b505af1158015620001e0573d6000803e3d6000fd5b505050507f5b961e37212df9fe72e2c84d894099793a4569a883f97d6413c4362e68c644b58260405162000215919062000bc3565b60405180910390a15050505050505050565b600080620002436200023d8989898989620005ea565b620006e4565b9050600060ff60f81b308584805190602001206040516020016200026b949392919062000b57565b60408051808303601f1901815291905280516020909101209998505050505050505050565b7f000000000000000000000000000000000000000000000000000000000000000081565b620002be620006e0565b6001600160a01b0316620002d16200045f565b6001600160a01b0316146200032d576040805162461bcd60e51b815260206004820181905260248201527f4f776e61626c653a2063616c6c6572206973206e6f7420746865206f776e6572604482015290519081900360640190fd5b600080546040516001600160a01b03909116907f8be0079c531659141344cd1fd0a4f28419497f9722a3daafe3b4186f6b6457e0908390a3600080546001600160a01b0319169055565b60006200038b6200016f8787878762000776565b9050806001600160a01b03811663f2fde38b620003a7620006e0565b6040518263ffffffff1660e01b8152600401620003c5919062000bc3565b600060405180830381600087803b158015620003e057600080fd5b505af1158015620003f5573d6000803e3d6000fd5b505050507f7d676ffa0eb839c909c4588fca6dd0076b4036f58e821b53b7d754c0e4b9a4d0826040516200042a919062000bc3565b60405180910390a150505050505050565b7f000000000000000000000000000000000000000000000000000000000000000081565b6000546001600160a01b031690565b600080620004836200023d8888888862000776565b9050600060ff60f81b30858480519060200120604051602001620004ab949392919062000b57565b60408051808303601f19018152919052805160209091012098975050505050505050565b620004d9620006e0565b6001600160a01b0316620004ec6200045f565b6001600160a01b03161462000548576040805162461bcd60e51b815260206004820181905260248201527f4f776e61626c653a2063616c6c6572206973206e6f7420746865206f776e6572604482015290519081900360640190fd5b6001600160a01b0381166200058f5760405162461bcd60e51b8152600401808060200182810382526026815260200180620015fe6026913960400191505060405180910390fd5b600080546040516001600160a01b03808516939216917f8be0079c531659141344cd1fd0a4f28419497f9722a3daafe3b4186f6b6457e091a3600080546001600160a01b0319166001600160a01b0392909216919091179055565b606062e8597960e01b86868686867f00000000000000000000000000000000000000000000000000000000000000007f00000000000000000000000000000000000000000000000000000000000000007f00000000000000000000000000000000000000000000000000000000000000006040516024016200067498979695949392919062000c87565b60408051601f198184030181529190526020810180516001600160e01b03166001600160e01b031990931692909217909152905095945050505050565b600080620006bf84620006e4565b9050828151602083016000f59150813b620006d957600080fd5b5092915050565b3390565b606060405180602001620006f8906200083b565b601f1982820381018352601f9091011660408190526200073f907f000000000000000000000000000000000000000000000000000000000000000090859060200162000bd7565b60408051601f19818403018152908290526200075f929160200162000b90565b60405160208183030381529060405290505b919050565b606063c67b435f60e01b858585857f00000000000000000000000000000000000000000000000000000000000000007f00000000000000000000000000000000000000000000000000000000000000007f0000000000000000000000000000000000000000000000000000000000000000604051602401620007ff979695949392919062000c05565b60408051601f198184030181529190526020810180516001600160e01b03166001600160e01b0319909316929092179091529050949350505050565b6108448062000dba83390190565b80356001600160a01b03811681146200077157600080fd5b600082601f83011262000872578081fd5b8135602067ffffffffffffffff8211156200088957fe5b8082026200089982820162000d61565b838152828101908684018388018501891015620008b4578687fd5b8693505b85841015620008e157620008cc8162000849565b835260019390930192918401918401620008b8565b50979650505050505050565b600082601f830112620008fe578081fd5b813567ffffffffffffffff8111156200091357fe5b62000928601f8201601f191660200162000d61565b8181528460208386010111156200093d578283fd5b816020850160208301379081016020019190915292915050565b60006020828403121562000969578081fd5b620009748262000849565b9392505050565b60008060008060008060c0878903121562000994578182fd5b863567ffffffffffffffff80821115620009ac578384fd5b620009ba8a838b01620008ed565b97506020890135915080821115620009d0578384fd5b620009de8a838b01620008ed565b96506040890135915080821115620009f4578384fd5b62000a028a838b01620008ed565b9550606089013591508082111562000a18578384fd5b62000a268a838b01620008ed565b9450608089013591508082111562000a3c578384fd5b5062000a4b89828a0162000861565b92505060a087013590509295509295509295565b600080600080600060a0868803121562000a77578081fd5b853567ffffffffffffffff8082111562000a8f578283fd5b62000a9d89838a01620008ed565b9650602088013591508082111562000ab3578283fd5b62000ac189838a01620008ed565b9550604088013591508082111562000ad7578283fd5b62000ae589838a01620008ed565b9450606088013591508082111562000afb578283fd5b5062000b0a88828901620008ed565b95989497509295608001359392505050565b6001600160a01b03169052565b6000815180845262000b4381602086016020860162000d86565b601f01601f19169290920160200192915050565b6001600160f81b031994909416845260609290921b6bffffffffffffffffffffffff191660018401526015830152603582015260550190565b6000835162000ba481846020880162000d86565b83519083019062000bba81836020880162000d86565b01949350505050565b6001600160a01b0391909116815260200190565b6001600160a01b038316815260406020820181905260009062000bfd9083018462000b29565b949350505050565b600060e0825262000c1a60e083018a62000b29565b828103602084015262000c2e818a62000b29565b9050828103604084015262000c44818962000b29565b9050828103606084015262000c5a818862000b29565b6001600160a01b03968716608085015294861660a08401525050921660c090920191909152949350505050565b600061010080835262000c9d8184018c62000b29565b905060208382038185015262000cb4828c62000b29565b9150838203604085015262000cca828b62000b29565b9150838203606085015262000ce0828a62000b29565b84810360808601528851808252828a01935090820190845b8181101562000d1f5784516001600160a01b03168352938301939183019160010162000cf8565b505080935050505062000d3660a083018662000b1c565b62000d4560c083018562000b1c565b62000d5460e083018462000b1c565b9998505050505050505050565b60405181810167ffffffffffffffff8111828210171562000d7e57fe5b604052919050565b60005b8381101562000da357818101518382015260200162000d89565b8381111562000db3576000848401525b5050505056fe60806040526040516108443803806108448339818101604052604081101561002657600080fd5b81516020830180516040519294929383019291908464010000000082111561004d57600080fd5b90830190602082018581111561006257600080fd5b825164010000000081118282018810171561007c57600080fd5b82525081516020918201929091019080838360005b838110156100a9578181015183820152602001610091565b50505050905090810190601f1680156100d65780820380516001836020036101000a031916815260200191505b50604052506100e3915050565b6100ed82826100f4565b505061047e565b6101078261024960201b6100311760201c565b6101425760405162461bcd60e51b81526004018080602001828103825260258152602001806107c56025913960400191505060405180910390fd5b6101ba826001600160a01b0316635c60da1b6040518163ffffffff1660e01b815260040160206040518083038186803b15801561017e57600080fd5b505afa158015610192573d6000803e3d6000fd5b505050506040513d60208110156101a857600080fd5b5051610249602090811b61003117901c565b6101f55760405162461bcd60e51b81526004018080602001828103825260348152602001806108106034913960400191505060405180910390fd5b6000805160206107848339815191528281558151156102445761024261021961024f565b836040518060600160405280602181526020016107a4602191396102c260201b6100371760201c565b505b505050565b3b151590565b60006102596103c7565b6001600160a01b0316635c60da1b6040518163ffffffff1660e01b815260040160206040518083038186803b15801561029157600080fd5b505afa1580156102a5573d6000803e3d6000fd5b505050506040513d60208110156102bb57600080fd5b5051905090565b60606102cd84610249565b6103085760405162461bcd60e51b81526004018080602001828103825260268152602001806107ea6026913960400191505060405180910390fd5b600080856001600160a01b0316856040518082805190602001908083835b602083106103455780518252601f199092019160209182019101610326565b6001836020036101000a038019825116818451168082178552505050505050905001915050600060405180830381855af49150503d80600081146103a5576040519150601f19603f3d011682016040523d82523d6000602084013e6103aa565b606091505b5090925090506103bb8282866103da565b925050505b9392505050565b6000805160206107848339815191525490565b606083156103e95750816103c0565b8251156103f95782518084602001fd5b8160405162461bcd60e51b81526004018080602001828103825283818151815260200191508051906020019080838360005b8381101561044357818101518382015260200161042b565b50505050905090810190601f1680156104705780820380516001836020036101000a031916815260200191505b509250505060405180910390fd5b6102f78061048d6000396000f3fe60806040523661001357610011610017565b005b6100115b61001f61002f565b61002f61002a61013b565b6101ae565b565b3b151590565b606061004284610031565b61007d5760405162461bcd60e51b815260040180806020018281038252602681526020018061029c6026913960400191505060405180910390fd5b600080856001600160a01b0316856040518082805190602001908083835b602083106100ba5780518252601f19909201916020918201910161009b565b6001836020036101000a038019825116818451168082178552505050505050905001915050600060405180830381855af49150503d806000811461011a576040519150601f19603f3d011682016040523d82523d6000602084013e61011f565b606091505b509150915061012f8282866101d2565b925050505b9392505050565b6000610145610276565b6001600160a01b0316635c60da1b6040518163ffffffff1660e01b815260040160206040518083038186803b15801561017d57600080fd5b505afa158015610191573d6000803e3d6000fd5b505050506040513d60208110156101a757600080fd5b5051905090565b3660008037600080366000845af43d6000803e8080156101cd573d6000f35b3d6000fd5b606083156101e1575081610134565b8251156101f15782518084602001fd5b8160405162461bcd60e51b81526004018080602001828103825283818151815260200191508051906020019080838360005b8381101561023b578181015183820152602001610223565b50505050905090810190601f1680156102685780820380516001836020036101000a031916815260200191505b509250505060405180910390fd5b7fa3f0ad74e5423aebfd80d3ef4346578335a9a72aeaee59ff6cb3582b35133d50549056fe416464726573733a2064656c65676174652063616c6c20746f206e6f6e2d636f6e7472616374a26469706673582212208d876f4df9e95fb28cbac2f32a1bbbb4e7f39f9d7bb110fc7b5628d98879c2ba64736f6c63430007060033a3f0ad74e5423aebfd80d3ef4346578335a9a72aeaee59ff6cb3582b35133d50426561636f6e50726f78793a2066756e6374696f6e2063616c6c206661696c6564426561636f6e50726f78793a20626561636f6e206973206e6f74206120636f6e7472616374416464726573733a2064656c65676174652063616c6c20746f206e6f6e2d636f6e7472616374426561636f6e50726f78793a20626561636f6e20696d706c656d656e746174696f6e206973206e6f74206120636f6e74726163744f776e61626c653a206e6577206f776e657220697320746865207a65726f2061646472657373a264697066735822122001b3d82198eda2ca48133063ebc3cd30bf5976dd21c1dbc09217a3d4e5dec28564736f6c63430007060033",
  "immutableReferences": {
    "17418": [
      {
        "length": 32,
        "start": 658
      },
      {
        "length": 32,
        "start": 1812
      }
    ],
    "17420": [
      {
        "length": 32,
        "start": 1530
      },
      {
        "length": 32,
        "start": 1926
      }
    ],
    "17422": [
      {
        "length": 32,
        "start": 1563
      },
      {
        "length": 32,
        "start": 1959
      }
    ],
    "17424": [
      {
        "length": 32,
        "start": 1085
      },
      {
        "length": 32,
        "start": 1596
      },
      {
        "length": 32,
        "start": 1992
      }
    ]
  },
  "source": "// SPDX-License-Identifier: MIT\n\npragma solidity >=0.6.2 <0.8.0;\npragma abicoder v2;\n\nimport \"../erc-1155/ERC1155Rarible.sol\";\nimport \"@openzeppelin/contracts/proxy/BeaconProxy.sol\";\nimport \"@openzeppelin/contracts/access/Ownable.sol\";\n\n/**\n * @dev This contract is for creating proxy to access ERC1155Rarible token.\n *\n * The beacon should be initialized before call ERC1155RaribleFactoryC2 constructor.\n *\n */\ncontract ERC1155RaribleFactoryC2 is Ownable{\n    address public immutable beacon;\n    address immutable transferProxy;\n    address immutable lazyTransferProxy;\n    address public immutable operatorFilterRegistrySubscriptionAddress;\n\n    event Create1155RaribleProxy(address proxy);\n    event Create1155RaribleUserProxy(address proxy);\n\n    constructor(address _beacon, address _transferProxy, address _lazyTransferProxy, address _operatorFilterRegistrySubscriptionAddress) {\n        beacon = _beacon;\n        transferProxy = _transferProxy;\n        lazyTransferProxy = _lazyTransferProxy;\n        operatorFilterRegistrySubscriptionAddress = _operatorFilterRegistrySubscriptionAddress;\n    }\n\n    function createToken(string memory _name, string memory _symbol, string memory baseURI, string memory contractURI, uint salt) external {        \n        address beaconProxy = deployProxy(getData(_name, _symbol, baseURI, contractURI), salt);\n\n        ERC1155Rarible token = ERC1155Rarible(beaconProxy);\n        token.transferOwnership(_msgSender());\n        emit Create1155RaribleProxy(beaconProxy);\n    }\n    \n    function createToken(string memory _name, string memory _symbol, string memory baseURI, string memory contractURI, address[] memory operators, uint salt) external {\n        address beaconProxy = deployProxy(getData(_name, _symbol, baseURI, contractURI, operators), salt);\n\n        ERC1155Rarible token = ERC1155Rarible(address(beaconProxy));\n        token.transferOwnership(_msgSender());\n        emit Create1155RaribleUserProxy(beaconProxy);\n    }\n\n    //deploying BeaconProxy contract with create2\n    function deployProxy(bytes memory data, uint salt) internal returns(address proxy){\n        bytes memory bytecode = getCreationBytecode(data);\n        assembly {\n            proxy := create2(0, add(bytecode, 0x20), mload(bytecode), salt)\n            if iszero(extcodesize(proxy)) {\n                revert(0, 0)\n            }\n        }\n    }\n\n    //adding constructor arguments to BeaconProxy bytecode\n    function getCreationBytecode(bytes memory _data) internal view returns (bytes memory) {\n        return abi.encodePacked(type(BeaconProxy).creationCode, abi.encode(beacon, _data));\n    }\n\n    //returns address that contract with such arguments will be deployed on\n    function getAddress(string memory _name, string memory _symbol, string memory baseURI, string memory contractURI, uint _salt)\n        public\n        view\n        returns (address)\n    {   \n        bytes memory bytecode = getCreationBytecode(getData(_name, _symbol, baseURI, contractURI));\n\n        bytes32 hash = keccak256(\n            abi.encodePacked(bytes1(0xff), address(this), _salt, keccak256(bytecode))\n        );\n\n        return address(uint160(uint(hash)));\n    }\n\n    function getData(string memory _name, string memory _symbol, string memory baseURI, string memory contractURI) view internal returns(bytes memory){\n        return abi.encodeWithSelector(ERC1155Rarible(0).__ERC1155Rarible_init.selector, _name, _symbol, baseURI, contractURI, transferProxy, lazyTransferProxy, operatorFilterRegistrySubscriptionAddress);\n    }\n\n    //returns address that contract with such arguments will be deployed on\n    function getAddress(string memory _name, string memory _symbol, string memory baseURI, string memory contractURI, address[] memory operators, uint _salt)\n        public\n        view\n        returns (address)\n    {   \n        bytes memory bytecode = getCreationBytecode(getData(_name, _symbol, baseURI, contractURI, operators));\n\n        bytes32 hash = keccak256(\n            abi.encodePacked(bytes1(0xff), address(this), _salt, keccak256(bytecode))\n        );\n\n        return address(uint160(uint(hash)));\n    }\n\n    function getData(string memory _name, string memory _symbol, string memory baseURI, string memory contractURI, address[] memory operators) view internal returns(bytes memory){\n        return abi.encodeWithSelector(ERC1155Rarible(0).__ERC1155RaribleUser_init.selector, _name, _symbol, baseURI, contractURI, operators, transferProxy, lazyTransferProxy, operatorFilterRegistrySubscriptionAddress);\n    }\n\n}\n",
  "sourcePath": "@rarible/tokens/contracts/create-2/ERC1155RaribleFactoryC2.sol",
  "compiler": {
    "name": "solc",
    "version": "0.7.6+commit.7338295f.Emscripten.clang"
  },
  "schemaVersion": "3.4.13",
  "updatedAt": "2023-10-06T09:47:43.674Z",
  "devdoc": {
    "details": "This contract is for creating proxy to access ERC1155Rarible token. The beacon should be initialized before call ERC1155RaribleFactoryC2 constructor.",
    "kind": "dev",
    "methods": {
      "owner()": {
        "details": "Returns the address of the current owner."
      },
      "renounceOwnership()": {
        "details": "Leaves the contract without owner. It will not be possible to call `onlyOwner` functions anymore. Can only be called by the current owner. NOTE: Renouncing ownership will leave the contract without an owner, thereby removing any functionality that is only available to the owner."
      },
      "transferOwnership(address)": {
        "details": "Transfers ownership of the contract to a new account (`newOwner`). Can only be called by the current owner."
      }
    },
    "version": 1
  },
  "userdoc": {
    "kind": "user",
    "methods": {},
    "version": 1
  }
}