{
  "contractName": "ERC1155Rarible",
  "abi": [
    {
      "anonymous": false,
      "inputs": [
        {
          "indexed": true,
          "internalType": "address",
          "name": "account",
          "type": "address"
        },
        {
          "indexed": true,
          "internalType": "address",
          "name": "operator",
          "type": "address"
        },
        {
          "indexed": false,
          "internalType": "bool",
          "name": "approved",
          "type": "bool"
        }
      ],
      "name": "ApprovalForAll",
      "type": "event"
    },
    {
      "anonymous": false,
      "inputs": [
        {
          "indexed": false,
          "internalType": "address",
          "name": "owner",
          "type": "address"
        },
        {
          "indexed": false,
          "internalType": "string",
          "name": "name",
          "type": "string"
        },
        {
          "indexed": false,
          "internalType": "string",
          "name": "symbol",
          "type": "string"
        }
      ],
      "name": "CreateERC1155Rarible",
      "type": "event"
    },
    {
      "anonymous": false,
      "inputs": [
        {
          "indexed": false,
          "internalType": "address",
          "name": "owner",
          "type": "address"
        },
        {
          "indexed": false,
          "internalType": "string",
          "name": "name",
          "type": "string"
        },
        {
          "indexed": false,
          "internalType": "string",
          "name": "symbol",
          "type": "string"
        }
      ],
      "name": "CreateERC1155RaribleUser",
      "type": "event"
    },
    {
      "anonymous": false,
      "inputs": [
        {
          "indexed": false,
          "internalType": "uint256",
          "name": "tokenId",
          "type": "uint256"
        },
        {
          "components": [
            {
              "internalType": "address payable",
              "name": "account",
              "type": "address"
            },
            {
              "internalType": "uint96",
              "name": "value",
              "type": "uint96"
            }
          ],
          "indexed": false,
          "internalType": "struct LibPart.Part[]",
          "name": "creators",
          "type": "tuple[]"
        }
      ],
      "name": "Creators",
      "type": "event"
    },
    {
      "anonymous": false,
      "inputs": [
        {
          "indexed": true,
          "internalType": "address",
          "name": "operator",
          "type": "address"
        },
        {
          "indexed": false,
          "internalType": "bool",
          "name": "hasApproval",
          "type": "bool"
        }
      ],
      "name": "DefaultApproval",
      "type": "event"
    },
    {
      "anonymous": false,
      "inputs": [
        {
          "indexed": true,
          "internalType": "address",
          "name": "previousOwner",
          "type": "address"
        },
        {
          "indexed": true,
          "internalType": "address",
          "name": "newOwner",
          "type": "address"
        }
      ],
      "name": "OwnershipTransferred",
      "type": "event"
    },
    {
      "anonymous": false,
      "inputs": [
        {
          "indexed": false,
          "internalType": "uint256",
          "name": "tokenId",
          "type": "uint256"
        },
        {
          "components": [
            {
              "internalType": "address payable",
              "name": "account",
              "type": "address"
            },
            {
              "internalType": "uint96",
              "name": "value",
              "type": "uint96"
            }
          ],
          "indexed": false,
          "internalType": "struct LibPart.Part[]",
          "name": "royalties",
          "type": "tuple[]"
        }
      ],
      "name": "RoyaltiesSet",
      "type": "event"
    },
    {
      "anonymous": false,
      "inputs": [
        {
          "indexed": false,
          "internalType": "uint256",
          "name": "tokenId",
          "type": "uint256"
        },
        {
          "indexed": false,
          "internalType": "uint256",
          "name": "value",
          "type": "uint256"
        }
      ],
      "name": "Supply",
      "type": "event"
    },
    {
      "anonymous": false,
      "inputs": [
        {
          "indexed": true,
          "internalType": "address",
          "name": "operator",
          "type": "address"
        },
        {
          "indexed": true,
          "internalType": "address",
          "name": "from",
          "type": "address"
        },
        {
          "indexed": true,
          "internalType": "address",
          "name": "to",
          "type": "address"
        },
        {
          "indexed": false,
          "internalType": "uint256[]",
          "name": "ids",
          "type": "uint256[]"
        },
        {
          "indexed": false,
          "internalType": "uint256[]",
          "name": "values",
          "type": "uint256[]"
        }
      ],
      "name": "TransferBatch",
      "type": "event"
    },
    {
      "anonymous": false,
      "inputs": [
        {
          "indexed": true,
          "internalType": "address",
          "name": "operator",
          "type": "address"
        },
        {
          "indexed": true,
          "internalType": "address",
          "name": "from",
          "type": "address"
        },
        {
          "indexed": true,
          "internalType": "address",
          "name": "to",
          "type": "address"
        },
        {
          "indexed": false,
          "internalType": "uint256",
          "name": "id",
          "type": "uint256"
        },
        {
          "indexed": false,
          "internalType": "uint256",
          "name": "value",
          "type": "uint256"
        }
      ],
      "name": "TransferSingle",
      "type": "event"
    },
    {
      "anonymous": false,
      "inputs": [
        {
          "indexed": false,
          "internalType": "string",
          "name": "value",
          "type": "string"
        },
        {
          "indexed": true,
          "internalType": "uint256",
          "name": "id",
          "type": "uint256"
        }
      ],
      "name": "URI",
      "type": "event"
    },
    {
      "inputs": [
        {
          "internalType": "address",
          "name": "account",
          "type": "address"
        },
        {
          "internalType": "uint256",
          "name": "id",
          "type": "uint256"
        }
      ],
      "name": "balanceOf",
      "outputs": [
        {
          "internalType": "uint256",
          "name": "",
          "type": "uint256"
        }
      ],
      "stateMutability": "view",
      "type": "function"
    },
    {
      "inputs": [
        {
          "internalType": "address[]",
          "name": "accounts",
          "type": "address[]"
        },
        {
          "internalType": "uint256[]",
          "name": "ids",
          "type": "uint256[]"
        }
      ],
      "name": "balanceOfBatch",
      "outputs": [
        {
          "internalType": "uint256[]",
          "name": "",
          "type": "uint256[]"
        }
      ],
      "stateMutability": "view",
      "type": "function"
    },
    {
      "inputs": [],
      "name": "baseURI",
      "outputs": [
        {
          "internalType": "string",
          "name": "",
          "type": "string"
        }
      ],
      "stateMutability": "view",
      "type": "function"
    },
    {
      "inputs": [
        {
          "internalType": "address",
          "name": "account",
          "type": "address"
        },
        {
          "internalType": "uint256",
          "name": "id",
          "type": "uint256"
        },
        {
          "internalType": "uint256",
          "name": "value",
          "type": "uint256"
        }
      ],
      "name": "burn",
      "outputs": [],
      "stateMutability": "nonpayable",
      "type": "function"
    },
    {
      "inputs": [
        {
          "internalType": "address",
          "name": "account",
          "type": "address"
        },
        {
          "internalType": "uint256[]",
          "name": "ids",
          "type": "uint256[]"
        },
        {
          "internalType": "uint256[]",
          "name": "values",
          "type": "uint256[]"
        }
      ],
      "name": "burnBatch",
      "outputs": [],
      "stateMutability": "nonpayable",
      "type": "function"
    },
    {
      "inputs": [],
      "name": "contractURI",
      "outputs": [
        {
          "internalType": "string",
          "name": "",
          "type": "string"
        }
      ],
      "stateMutability": "view",
      "type": "function"
    },
    {
      "inputs": [
        {
          "internalType": "uint256",
          "name": "",
          "type": "uint256"
        },
        {
          "internalType": "uint256",
          "name": "",
          "type": "uint256"
        }
      ],
      "name": "creators",
      "outputs": [
        {
          "internalType": "address payable",
          "name": "account",
          "type": "address"
        },
        {
          "internalType": "uint96",
          "name": "value",
          "type": "uint96"
        }
      ],
      "stateMutability": "view",
      "type": "function"
    },
    {
      "inputs": [
        {
          "internalType": "uint256",
          "name": "_id",
          "type": "uint256"
        }
      ],
      "name": "getCreators",
      "outputs": [
        {
          "components": [
            {
              "internalType": "address payable",
              "name": "account",
              "type": "address"
            },
            {
              "internalType": "uint96",
              "name": "value",
              "type": "uint96"
            }
          ],
          "internalType": "struct LibPart.Part[]",
          "name": "",
          "type": "tuple[]"
        }
      ],
      "stateMutability": "view",
      "type": "function"
    },
    {
      "inputs": [
        {
          "internalType": "uint256",
          "name": "id",
          "type": "uint256"
        }
      ],
      "name": "getRaribleV2Royalties",
      "outputs": [
        {
          "components": [
            {
              "internalType": "address payable",
              "name": "account",
              "type": "address"
            },
            {
              "internalType": "uint96",
              "name": "value",
              "type": "uint96"
            }
          ],
          "internalType": "struct LibPart.Part[]",
          "name": "",
          "type": "tuple[]"
        }
      ],
      "stateMutability": "view",
      "type": "function"
    },
    {
      "inputs": [
        {
          "internalType": "address",
          "name": "_owner",
          "type": "address"
        },
        {
          "internalType": "address",
          "name": "_operator",
          "type": "address"
        }
      ],
      "name": "isApprovedForAll",
      "outputs": [
        {
          "internalType": "bool",
          "name": "",
          "type": "bool"
        }
      ],
      "stateMutability": "view",
      "type": "function"
    },
    {
      "inputs": [],
      "name": "name",
      "outputs": [
        {
          "internalType": "string",
          "name": "",
          "type": "string"
        }
      ],
      "stateMutability": "view",
      "type": "function"
    },
    {
      "inputs": [],
      "name": "owner",
      "outputs": [
        {
          "internalType": "address",
          "name": "",
          "type": "address"
        }
      ],
      "stateMutability": "view",
      "type": "function"
    },
    {
      "inputs": [],
      "name": "renounceOwnership",
      "outputs": [],
      "stateMutability": "nonpayable",
      "type": "function"
    },
    {
      "inputs": [
        {
          "internalType": "address",
          "name": "from",
          "type": "address"
        },
        {
          "internalType": "address",
          "name": "to",
          "type": "address"
        },
        {
          "internalType": "uint256[]",
          "name": "ids",
          "type": "uint256[]"
        },
        {
          "internalType": "uint256[]",
          "name": "amounts",
          "type": "uint256[]"
        },
        {
          "internalType": "bytes",
          "name": "data",
          "type": "bytes"
        }
      ],
      "name": "safeBatchTransferFrom",
      "outputs": [],
      "stateMutability": "nonpayable",
      "type": "function"
    },
    {
      "inputs": [
        {
          "internalType": "address",
          "name": "from",
          "type": "address"
        },
        {
          "internalType": "address",
          "name": "to",
          "type": "address"
        },
        {
          "internalType": "uint256",
          "name": "id",
          "type": "uint256"
        },
        {
          "internalType": "uint256",
          "name": "amount",
          "type": "uint256"
        },
        {
          "internalType": "bytes",
          "name": "data",
          "type": "bytes"
        }
      ],
      "name": "safeTransferFrom",
      "outputs": [],
      "stateMutability": "nonpayable",
      "type": "function"
    },
    {
      "inputs": [
        {
          "internalType": "address",
          "name": "operator",
          "type": "address"
        },
        {
          "internalType": "bool",
          "name": "approved",
          "type": "bool"
        }
      ],
      "name": "setApprovalForAll",
      "outputs": [],
      "stateMutability": "nonpayable",
      "type": "function"
    },
    {
      "inputs": [
        {
          "internalType": "bytes4",
          "name": "interfaceId",
          "type": "bytes4"
        }
      ],
      "name": "supportsInterface",
      "outputs": [
        {
          "internalType": "bool",
          "name": "",
          "type": "bool"
        }
      ],
      "stateMutability": "view",
      "type": "function"
    },
    {
      "inputs": [],
      "name": "symbol",
      "outputs": [
        {
          "internalType": "string",
          "name": "",
          "type": "string"
        }
      ],
      "stateMutability": "view",
      "type": "function"
    },
    {
      "inputs": [
        {
          "components": [
            {
              "internalType": "uint256",
              "name": "tokenId",
              "type": "uint256"
            },
            {
              "internalType": "string",
              "name": "tokenURI",
              "type": "string"
            },
            {
              "internalType": "uint256",
              "name": "supply",
              "type": "uint256"
            },
            {
              "components": [
                {
                  "internalType": "address payable",
                  "name": "account",
                  "type": "address"
                },
                {
                  "internalType": "uint96",
                  "name": "value",
                  "type": "uint96"
                }
              ],
              "internalType": "struct LibPart.Part[]",
              "name": "creators",
              "type": "tuple[]"
            },
            {
              "components": [
                {
                  "internalType": "address payable",
                  "name": "account",
                  "type": "address"
                },
                {
                  "internalType": "uint96",
                  "name": "value",
                  "type": "uint96"
                }
              ],
              "internalType": "struct LibPart.Part[]",
              "name": "royalties",
              "type": "tuple[]"
            },
            {
              "internalType": "bytes[]",
              "name": "signatures",
              "type": "bytes[]"
            }
          ],
          "internalType": "struct LibERC1155LazyMint.Mint1155Data",
          "name": "data",
          "type": "tuple"
        },
        {
          "internalType": "address",
          "name": "from",
          "type": "address"
        },
        {
          "internalType": "address",
          "name": "to",
          "type": "address"
        },
        {
          "internalType": "uint256",
          "name": "amount",
          "type": "uint256"
        }
      ],
      "name": "transferFromOrMint",
      "outputs": [],
      "stateMutability": "nonpayable",
      "type": "function"
    },
    {
      "inputs": [
        {
          "internalType": "address",
          "name": "newOwner",
          "type": "address"
        }
      ],
      "name": "transferOwnership",
      "outputs": [],
      "stateMutability": "nonpayable",
      "type": "function"
    },
    {
      "inputs": [
        {
          "internalType": "uint256",
          "name": "_id",
          "type": "uint256"
        },
        {
          "internalType": "address",
          "name": "_from",
          "type": "address"
        },
        {
          "internalType": "address",
          "name": "_to",
          "type": "address"
        }
      ],
      "name": "updateAccount",
      "outputs": [],
      "stateMutability": "nonpayable",
      "type": "function"
    },
    {
      "inputs": [
        {
          "internalType": "uint256",
          "name": "id",
          "type": "uint256"
        }
      ],
      "name": "uri",
      "outputs": [
        {
          "internalType": "string",
          "name": "",
          "type": "string"
        }
      ],
      "stateMutability": "view",
      "type": "function"
    },
    {
      "inputs": [
        {
          "internalType": "string",
          "name": "_name",
          "type": "string"
        },
        {
          "internalType": "string",
          "name": "_symbol",
          "type": "string"
        },
        {
          "internalType": "string",
          "name": "baseURI",
          "type": "string"
        },
        {
          "internalType": "string",
          "name": "contractURI",
          "type": "string"
        },
        {
          "internalType": "address[]",
          "name": "operators",
          "type": "address[]"
        }
      ],
      "name": "__ERC1155RaribleUser_init",
      "outputs": [],
      "stateMutability": "nonpayable",
      "type": "function"
    },
    {
      "inputs": [
        {
          "internalType": "string",
          "name": "_name",
          "type": "string"
        },
        {
          "internalType": "string",
          "name": "_symbol",
          "type": "string"
        },
        {
          "internalType": "string",
          "name": "baseURI",
          "type": "string"
        },
        {
          "internalType": "string",
          "name": "contractURI",
          "type": "string"
        },
        {
          "internalType": "address",
          "name": "transferProxy",
          "type": "address"
        },
        {
          "internalType": "address",
          "name": "lazyTransferProxy",
          "type": "address"
        }
      ],
      "name": "__ERC1155Rarible_init",
      "outputs": [],
      "stateMutability": "nonpayable",
      "type": "function"
    },
    {
      "inputs": [
        {
          "components": [
            {
              "internalType": "uint256",
              "name": "tokenId",
              "type": "uint256"
            },
            {
              "internalType": "string",
              "name": "tokenURI",
              "type": "string"
            },
            {
              "internalType": "uint256",
              "name": "supply",
              "type": "uint256"
            },
            {
              "components": [
                {
                  "internalType": "address payable",
                  "name": "account",
                  "type": "address"
                },
                {
                  "internalType": "uint96",
                  "name": "value",
                  "type": "uint96"
                }
              ],
              "internalType": "struct LibPart.Part[]",
              "name": "creators",
              "type": "tuple[]"
            },
            {
              "components": [
                {
                  "internalType": "address payable",
                  "name": "account",
                  "type": "address"
                },
                {
                  "internalType": "uint96",
                  "name": "value",
                  "type": "uint96"
                }
              ],
              "internalType": "struct LibPart.Part[]",
              "name": "royalties",
              "type": "tuple[]"
            },
            {
              "internalType": "bytes[]",
              "name": "signatures",
              "type": "bytes[]"
            }
          ],
          "internalType": "struct LibERC1155LazyMint.Mint1155Data",
          "name": "data",
          "type": "tuple"
        },
        {
          "internalType": "address",
          "name": "to",
          "type": "address"
        },
        {
          "internalType": "uint256",
          "name": "_amount",
          "type": "uint256"
        }
      ],
      "name": "mintAndTransfer",
      "outputs": [],
      "stateMutability": "nonpayable",
      "type": "function"
    }
  ],
  "bytecode": "0x608060405234801561001057600080fd5b50614c26806100206000396000f3fe608060405234801561001057600080fd5b50600436106101725760003560e01c8063891be974116100de578063e07f231911610097578063f242432a11610071578063f242432a1461032b578063f2fde38b1461033e578063f5298aca14610351578063ffc4e0a71461036457610172565b8063e07f2319146102fd578063e8a3d48514610310578063e985e9c51461031857610172565b8063891be974146102795780638da5cb5b1461029957806395d89b41146102ae57806398d0b4fb146102b6578063a22cb465146102d7578063cad96cca146102ea57610172565b80632eb2c2d6116101305780632eb2c2d6146102105780634e1273f414610223578063650e5ad7146102435780636b20c454146102565780636c0360eb14610269578063715018a61461027157610172565b8062fdd58e1461017757806301ffc9a7146101a057806306fdde03146101c05780630e89341c146101d55780630eaead67146101e8578063173c43d2146101fd575b600080fd5b61018a61018536600461407b565b610377565b60405161019791906147ea565b60405180910390f35b6101b36101ae36600461413a565b6103e6565b6040516101979190614584565b6101c86103f9565b604051610197919061458f565b6101c86101e33660046143a5565b610488565b6101fb6101f636600461434e565b610493565b005b6101fb61020b366004614162565b61050c565b6101fb61021e366004613ec9565b610623565b6102366102313660046140da565b610921565b6040516101979190614540565b6101fb610251366004614229565b610a0c565b6101fb610264366004613fd8565b610b41565b6101c8610bb5565b6101fb610c4d565b61028c6102873660046143a5565b610d0b565b604051610197919061452d565b6102a1610d9b565b60405161019791906144c1565b6101c8610daa565b6102c96102c43660046143fe565b610e06565b60405161019792919061450b565b6101fb6102e536600461404a565b610e50565b61028c6102f83660046143a5565b610f3f565b6101fb61030b3660046143bd565b610fba565b6101c8610ffd565b6101b3610326366004613e91565b611059565b6101fb610339366004613f72565b61106c565b6101fb61034c366004613e75565b611225565b6101fb61035f3660046140a6565b61133a565b6101fb6103723660046142e7565b6113ae565b60006001600160a01b0383166103be5760405162461bcd60e51b815260040180806020018281038252602b81526020018061499e602b913960400191505060405180910390fd5b5060009081526097602090815260408083206001600160a01b03949094168352929052205490565b60006103f182611409565b90505b919050565b610262805460408051602060026001851615610100026000190190941693909304601f810184900484028201840190925281815292918301828280156104805780601f1061045557610100808354040283529160200191610480565b820191906000526020600020905b81548152906001019060200180831161046357829003601f168201915b505050505081565b60606103f18261148d565b6102965460ff16156104fc5782606001516000815181106104b057fe5b6020026020010151600001516001600160a01b03166104cd610d9b565b6001600160a01b0316146104fc5760405162461bcd60e51b81526004016104f3906145a2565b60405180910390fd5b6105078383836116ca565b505050565b600054610100900460ff168061052557506105256119c7565b80610533575060005460ff16155b61056e5760405162461bcd60e51b815260040180806020018281038252602e815260200180614ab5602e913960400191505060405180910390fd5b600054610100900460ff16158015610599576000805460ff1961ff0019909116610100171660011790555b6105a5878787876119d8565b6105b0836001611a4a565b6105bb826001611a4a565b610296805460ff191690557fcc215b7682459c30faa0e854780165d503a7d62d22a9aaaad6334585dc63343e6105ef611aaa565b8888604051610600939291906144d5565b60405180910390a1801561061a576000805461ff00191690555b50505050505050565b81518351146106635760405162461bcd60e51b8152600401808060200182810382526028815260200180614bc96028913960400191505060405180910390fd5b6001600160a01b0384166106a85760405162461bcd60e51b8152600401808060200182810382526025815260200180614a5e6025913960400191505060405180910390fd5b6106b0611aaa565b6001600160a01b0316856001600160a01b031614806106d657506106d685610326611aaa565b6107115760405162461bcd60e51b8152600401808060200182810382526032815260200180614a836032913960400191505060405180910390fd5b600061071b611aaa565b905061072b818787878787610919565b60005b845181101561083157600085828151811061074557fe5b60200260200101519050600085838151811061075d57fe5b602002602001015190506107ca816040518060600160405280602a8152602001614b28602a91396097600086815260200190815260200160002060008d6001600160a01b03166001600160a01b0316815260200190815260200160002054611aae9092919063ffffffff16565b60008381526097602090815260408083206001600160a01b038e811685529252808320939093558a16815220546108019082611b45565b60009283526097602090815260408085206001600160a01b038c168652909152909220919091555060010161072e565b50846001600160a01b0316866001600160a01b0316826001600160a01b03167f4a39dc06d4c0dbc64b70af90fd698a233a518aa5d07e595d983b8c0526c8f7fb8787604051808060200180602001838103835285818151815260200191508051906020019060200280838360005b838110156108b757818101518382015260200161089f565b50505050905001838103825284818151815260200191508051906020019060200280838360005b838110156108f65781810151838201526020016108de565b5050505090500194505050505060405180910390a4610919818787878787611b9f565b505050505050565b606081518351146109635760405162461bcd60e51b8152600401808060200182810382526029815260200180614ba06029913960400191505060405180910390fd5b600083516001600160401b038111801561097c57600080fd5b506040519080825280602002602001820160405280156109a6578160200160208202803683370190505b50905060005b8451811015610a04576109e58582815181106109c457fe5b60200260200101518583815181106109d857fe5b6020026020010151610377565b8282815181106109f157fe5b60209081029190910101526001016109ac565b509392505050565b600054610100900460ff1680610a255750610a256119c7565b80610a33575060005460ff16155b610a6e5760405162461bcd60e51b815260040180806020018281038252602e815260200180614ab5602e913960400191505060405180910390fd5b600054610100900460ff16158015610a99576000805460ff1961ff0019909116610100171660011790555b610aa5868686866119d8565b60005b8251811015610ad757610acf838281518110610ac057fe5b60200260200101516001610e50565b600101610aa8565b50610296805460ff191660011790557f7da6bc204c8c4856a6aff786a6cb81c59477c782191dc51837d644a8ad50f2cc610b0f611aaa565b8787604051610b20939291906144d5565b60405180910390a18015610919576000805461ff0019169055505050505050565b610b49611aaa565b6001600160a01b0316836001600160a01b03161480610b6f5750610b6f83610326611aaa565b610baa5760405162461bcd60e51b8152600401808060200182810382526029815260200180614a136029913960400191505060405180910390fd5b610507838383611e15565b61012f8054604080516020601f6002600019610100600188161502019095169490940493840181900481028201810190925282815260609390929091830182828015610c425780601f10610c1757610100808354040283529160200191610c42565b820191906000526020600020905b815481529060010190602001808311610c2557829003601f168201915b505050505090505b90565b610c55611aaa565b6001600160a01b0316610c66610d9b565b6001600160a01b031614610cc1576040805162461bcd60e51b815260206004820181905260248201527f4f776e61626c653a2063616c6c6572206973206e6f7420746865206f776e6572604482015290519081900360640190fd5b6033546040516000916001600160a01b0316907f8be0079c531659141344cd1fd0a4f28419497f9722a3daafe3b4186f6b6457e0908390a3603380546001600160a01b0319169055565b60606101fb6000838152602001908152602001600020805480602002602001604051908101604052809291908181526020016000905b82821015610d9057600084815260209081902060408051808201909152908401546001600160a01b0381168252600160a01b90046001600160601b031681830152825260019092019101610d41565b505050509050919050565b6033546001600160a01b031690565b610263805460408051602060026001851615610100026000190190941693909304601f810184900484028201840190925281815292918301828280156104805780601f1061045557610100808354040283529160200191610480565b6101fb6020528160005260406000208181548110610e2357600080fd5b6000918252602090912001546001600160a01b0381169250600160a01b90046001600160601b0316905082565b816001600160a01b0316610e62611aaa565b6001600160a01b03161415610ea85760405162461bcd60e51b8152600401808060200182810382526029815260200180614b776029913960400191505060405180910390fd5b8060986000610eb5611aaa565b6001600160a01b03908116825260208083019390935260409182016000908120918716808252919093529120805460ff191692151592909217909155610ef9611aaa565b6001600160a01b03167f17307eab39ab6107e8899845ad3d59bd9653f200f220920489ca2b5937696c318360405180821515815260200191505060405180910390a35050565b60008181526101fa60209081526040808320805482518185028101850190935280835260609492939192909184018215610d9057600084815260209081902060408051808201909152908401546001600160a01b0381168252600160a01b90046001600160601b031681830152825260019092019101610d41565b816001600160a01b0316610fcc611aaa565b6001600160a01b031614610ff25760405162461bcd60e51b81526004016104f390614663565b610507838383612083565b610230805460408051602060026001851615610100026000190190941693909304601f810184900484028201840190925281815292918301828280156104805780601f1061045557610100808354040283529160200191610480565b6000611065838361212f565b9392505050565b6001600160a01b0384166110b15760405162461bcd60e51b8152600401808060200182810382526025815260200180614a5e6025913960400191505060405180910390fd5b6110b9611aaa565b6001600160a01b0316856001600160a01b031614806110df57506110df85610326611aaa565b61111a5760405162461bcd60e51b8152600401808060200182810382526029815260200180614a136029913960400191505060405180910390fd5b6000611124611aaa565b90506111448187876111358861215b565b61113e8861215b565b87610919565b61118b836040518060600160405280602a8152602001614b28602a913960008781526097602090815260408083206001600160a01b038d1684529091529020549190611aae565b60008581526097602090815260408083206001600160a01b038b811685529252808320939093558716815220546111c29084611b45565b60008581526097602090815260408083206001600160a01b03808b168086529184529382902094909455805188815291820187905280518a84169386169260008051602061497e83398151915292908290030190a46109198187878787876121a0565b61122d611aaa565b6001600160a01b031661123e610d9b565b6001600160a01b031614611299576040805162461bcd60e51b815260206004820181905260248201527f4f776e61626c653a2063616c6c6572206973206e6f7420746865206f776e6572604482015290519081900360640190fd5b6001600160a01b0381166112de5760405162461bcd60e51b81526004018080602001828103825260268152602001806149c96026913960400191505060405180910390fd5b6033546040516001600160a01b038084169216907f8be0079c531659141344cd1fd0a4f28419497f9722a3daafe3b4186f6b6457e090600090a3603380546001600160a01b0319166001600160a01b0392909216919091179055565b611342611aaa565b6001600160a01b0316836001600160a01b03161480611368575061136883610326611aaa565b6113a35760405162461bcd60e51b8152600401808060200182810382526029815260200180614a136029913960400191505060405180910390fd5b610507838383612311565b60006113be848660000151610377565b90508181156113f85782808310156113d35750815b6113f386868960000151846040518060200160405280600081525061106c565b830390505b801561091957610919868583610493565b60006001600160e01b03198216636db15a0f60e01b148061143a57506001600160e01b0319821663656cb66560e11b145b8061145557506001600160e01b031982166301ffc9a760e01b145b8061147057506001600160e01b03198216636cdb3d1360e11b145b806103f15750506001600160e01b0319166303a24d0760e21b1490565b600081815261012e6020908152604080832080548251601f60026000196101006001861615020190931692909204918201859004850281018501909352808352606094938301828280156115225780601f106114f757610100808354040283529160200191611522565b820191906000526020600020905b81548152906001019060200180831161150557829003601f168201915b505050505090506000611533610bb5565b9050805160001415611547575090506103f4565b8151156116085780826040516020018083805190602001908083835b602083106115825780518252601f199092019160209182019101611563565b51815160209384036101000a600019018019909216911617905285519190930192850191508083835b602083106115ca5780518252601f1990920191602091820191016115ab565b6001836020036101000a03801982511681845116808217855250505050505090500192505050604051602081830303815290604052925050506103f4565b8061161285612432565b6040516020018083805190602001908083835b602083106116445780518252601f199092019160209182019101611625565b51815160209384036101000a600019018019909216911617905285519190930192850191508083835b6020831061168c5780518252601f19909201916020918201910161166d565b6001836020036101000a0380198251168184511680821785525050505050509050019250505060405160208183030381529060405292505050919050565b825160601c60006116d9611aaa565b9050806001600160a01b0316826001600160a01b0316148061170057506117008282611059565b61171c5760405162461bcd60e51b81526004016104f3906146b2565b6000831161173c5760405162461bcd60e51b81526004016104f390614688565b845160009081526101fc60205260409020546118a557846060015160008151811061176357fe5b6020026020010151600001516001600160a01b0316826001600160a01b03161461179f5760405162461bcd60e51b81526004016104f390614638565b60008560400151116117c35760405162461bcd60e51b81526004016104f3906145d9565b8460a0015151856060015151146117d957600080fd5b60006117e48661250c565b905060005b86606001515181101561185a5760008760600151828151811061180857fe5b6020026020010151600001519050836001600160a01b0316816001600160a01b0316146118515761185181848a60a00151858151811061184457fe5b602002602001015161275f565b506001016117e9565b5061186d8660000151876040015161276a565b61187f866000015187608001516127d4565b611891866000015187606001516129c3565b6118a386600001518760200151612b72565b505b6118c48486600001518560405180602001604052806000815250612c36565b836001600160a01b0316826001600160a01b03161461197557816001600160a01b031660006001600160a01b0316826001600160a01b031660008051602061497e83398151915288600001518760405161191f929190614814565b60405180910390a4836001600160a01b0316826001600160a01b0316826001600160a01b031660008051602061497e833981519152886000015187604051611968929190614814565b60405180910390a46119c0565b836001600160a01b031660006001600160a01b0316826001600160a01b031660008051602061497e8339815191528860000151876040516119b7929190614814565b60405180910390a45b5050505050565b60006119d230612c42565b15905090565b6119e0612c48565b6119e8612d42565b6119f0612de3565b6119f8612d42565b611a00612e80565b611a1860405180602001604052806000815250612f50565b611a218161301c565b611a29612d42565b611a316130ce565b611a3b848461316b565b611a4482613238565b50505050565b6001600160a01b038216600081815260c96020908152604091829020805460ff1916851515908117909155825190815291517f270dbb8ba4292910ae92862466486be25c355c837270a3d8824b36a8bc7c653b9281900390910190a25050565b3390565b60008184841115611b3d5760405162461bcd60e51b81526004018080602001828103825283818151815260200191508051906020019080838360005b83811015611b02578181015183820152602001611aea565b50505050905090810190601f168015611b2f5780820380516001836020036101000a031916815260200191505b509250505060405180910390fd5b505050900390565b600082820183811015611065576040805162461bcd60e51b815260206004820152601b60248201527f536166654d6174683a206164646974696f6e206f766572666c6f770000000000604482015290519081900360640190fd5b611bb1846001600160a01b0316612c42565b1561091957836001600160a01b031663bc197c8187878686866040518663ffffffff1660e01b815260040180866001600160a01b03168152602001856001600160a01b03168152602001806020018060200180602001848103845287818151815260200191508051906020019060200280838360005b83811015611c3f578181015183820152602001611c27565b50505050905001848103835286818151815260200191508051906020019060200280838360005b83811015611c7e578181015183820152602001611c66565b50505050905001848103825285818151815260200191508051906020019080838360005b83811015611cba578181015183820152602001611ca2565b50505050905090810190601f168015611ce75780820380516001836020036101000a031916815260200191505b5098505050505050505050602060405180830381600087803b158015611d0c57600080fd5b505af1925050508015611d3157506040513d6020811015611d2c57600080fd5b505160015b611dc657611d3d614868565b80611d485750611d8f565b60405162461bcd60e51b8152602060048201818152835160248401528351849391928392604401919085019080838360008315611b02578181015183820152602001611aea565b60405162461bcd60e51b81526004018080602001828103825260348152602001806149226034913960400191505060405180910390fd5b6001600160e01b0319811663bc197c8160e01b1461061a5760405162461bcd60e51b81526004018080602001828103825260288152602001806149566028913960400191505060405180910390fd5b6001600160a01b038316611e5a5760405162461bcd60e51b8152600401808060200182810382526023815260200180614b056023913960400191505060405180910390fd5b8051825114611e9a5760405162461bcd60e51b8152600401808060200182810382526028815260200180614bc96028913960400191505060405180910390fd5b6000611ea4611aaa565b9050611ec481856000868660405180602001604052806000815250610919565b60005b8351811015611fa257611f59838281518110611edf57fe5b60200260200101516040518060600160405280602481526020016149ef6024913960976000888681518110611f1057fe5b602002602001015181526020019081526020016000206000896001600160a01b03166001600160a01b0316815260200190815260200160002054611aae9092919063ffffffff16565b60976000868481518110611f6957fe5b602090810291909101810151825281810192909252604090810160009081206001600160a01b038a168252909252902055600101611ec7565b5060006001600160a01b0316846001600160a01b0316826001600160a01b03167f4a39dc06d4c0dbc64b70af90fd698a233a518aa5d07e595d983b8c0526c8f7fb8686604051808060200180602001838103835285818151815260200191508051906020019060200280838360005b83811015612029578181015183820152602001612011565b50505050905001838103825284818151815260200191508051906020019060200280838360005b83811015612068578181015183820152602001612050565b5050505090500194505050505060405180910390a450505050565b60008381526101fa6020526040812054905b818110156119c05760008581526101fa6020526040902080546001600160a01b0386169190839081106120c457fe5b6000918252602090912001546001600160a01b031614156121275760008581526101fa602052604090208054849190839081106120fd57fe5b600091825260209091200180546001600160a01b0319166001600160a01b03929092169190911790555b600101612095565b6001600160a01b038116600090815260c9602052604081205460ff16806110655750611065838361324c565b6040805160018082528183019092526060916000919060208083019080368337019050509050828160008151811061218f57fe5b602090810291909101015292915050565b6121b2846001600160a01b0316612c42565b1561091957836001600160a01b031663f23a6e6187878686866040518663ffffffff1660e01b815260040180866001600160a01b03168152602001856001600160a01b0316815260200184815260200183815260200180602001828103825283818151815260200191508051906020019080838360005b83811015612241578181015183820152602001612229565b50505050905090810190601f16801561226e5780820380516001836020036101000a031916815260200191505b509650505050505050602060405180830381600087803b15801561229157600080fd5b505af19250505080156122b657506040513d60208110156122b157600080fd5b505160015b6122c257611d3d614868565b6001600160e01b0319811663f23a6e6160e01b1461061a5760405162461bcd60e51b81526004018080602001828103825260288152602001806149566028913960400191505060405180910390fd5b6001600160a01b0383166123565760405162461bcd60e51b8152600401808060200182810382526023815260200180614b056023913960400191505060405180910390fd5b6000612360611aaa565b9050612390818560006123728761215b565b61237b8761215b565b60405180602001604052806000815250610919565b6123d7826040518060600160405280602481526020016149ef6024913960008681526097602090815260408083206001600160a01b038b1684529091529020549190611aae565b60008481526097602090815260408083206001600160a01b03808a168086529184528285209590955581518881529283018790528151939490939086169260008051602061497e83398151915292908290030190a450505050565b60608161245757506040805180820190915260018152600360fc1b60208201526103f4565b8160005b811561246f57600101600a8204915061245b565b6000816001600160401b038111801561248757600080fd5b506040519080825280601f01601f1916602001820160405280156124b2576020820181803683370190505b50859350905060001982015b831561250357600a840660300160f81b828280600190039350815181106124e157fe5b60200101906001600160f81b031916908160001a905350600a840493506124be565b50949350505050565b6000808260800151516001600160401b038111801561252a57600080fd5b50604051908082528060200260200182016040528015612554578160200160208202803683370190505b50905060005b8360800151518110156125a6576125878460800151828151811061257a57fe5b602002602001015161327a565b82828151811061259357fe5b602090810291909101015260010161255a565b5060008360600151516001600160401b03811180156125c457600080fd5b506040519080825280602002602001820160405280156125ee578160200160208202803683370190505b50905060005b846060015151811015612633576126148560600151828151811061257a57fe5b82828151811061262057fe5b60209081029190910101526001016125f4565b507ffb988707ebb338694f318760b0fd5cfe756d00a2ade251fda110b80c336a3c7f846000015185604001518660200151805190602001208460405160200180828051906020019060200280838360005b8381101561269c578181015183820152602001612684565b50505050905001915050604051602081830303815290604052805190602001208660405160200180828051906020019060200280838360005b838110156126ed5781810151838201526020016126d5565b50505050905001915050604051602081830303815290604052805190602001206040516020018087815260200186815260200185815260200184815260200183815260200182815260200196505050505050506040516020818303038152906040528051906020012092505050919050565b6105078383836132e7565b60008281526101fc60205260409020541561278457600080fd5b60008281526101fc602052604090819020829055517f5e2aa66efd74cce82b21852e317e5490d9ecc9e6bb953ae24d90851258cc2f5c906127c89084908490614814565b60405180910390a15050565b6000805b82518110156129785760006001600160a01b03168382815181106127f857fe5b6020026020010151600001516001600160a01b03161415612860576040805162461bcd60e51b815260206004820152601b60248201527f526563697069656e742073686f756c642062652070726573656e740000000000604482015290519081900360640190fd5b82818151811061286c57fe5b6020026020010151602001516001600160601b0316600014156128d6576040805162461bcd60e51b815260206004820181905260248201527f526f79616c74792076616c75652073686f756c6420626520706f736974697665604482015290519081900360640190fd5b8281815181106128e257fe5b6020026020010151602001516001600160601b0316820191506101fa600085815260200190815260200160002083828151811061291b57fe5b60209081029190910181015182546001818101855560009485529383902082519101805492909301516001600160601b0316600160a01b026001600160a01b039182166001600160a01b03199093169290921716179055016127d8565b5061271081106129b95760405162461bcd60e51b8152600401808060200182810382526025815260200180614b526025913960400191505060405180910390fd5b610507838361351f565b60008281526101fb6020526040812090805b8351811015612b115760006001600160a01b03168482815181106129f557fe5b6020026020010151600001516001600160a01b03161415612a285760405162461bcd60e51b81526004016104f390614724565b838181518110612a3457fe5b6020026020010151602001516001600160601b031660001415612a695760405162461bcd60e51b81526004016104f390614603565b82848281518110612a7657fe5b602090810291909101810151825460018101845560009384529282902081519301805491909201516001600160601b0316600160a01b026001600160a01b039384166001600160a01b0319909216919091179092169190911790558351612b0790859083908110612ae357fe5b6020026020010151602001516001600160601b031683611b4590919063ffffffff16565b91506001016129d5565b508061271014612b335760405162461bcd60e51b81526004016104f39061479c565b7f841ffb90d4cabdd1f16034f3fa831d79060febbb8167bdd54a49269365bdf78f8484604051612b649291906147f3565b60405180910390a150505050565b600082815261012e602090815260409091208251612b9292840190613ab9565b50817f6bb7ff708619ba0610cba295a58592e0451dee2622938c8755667688daf3529b612bbe8461148d565b6040805160208082528351818301528351919283929083019185019080838360005b83811015612bf8578181015183820152602001612be0565b50505050905090810190601f168015612c255780820380516001836020036101000a031916815260200191505b509250505060405180910390a25050565b611a4484848484613550565b3b151590565b600054610100900460ff1680612c615750612c616119c7565b80612c6f575060005460ff16155b612caa5760405162461bcd60e51b815260040180806020018281038252602e815260200180614ab5602e913960400191505060405180910390fd5b600054610100900460ff16158015612cd5576000805460ff1961ff0019909116610100171660011790555b6000612cdf611aaa565b603380546001600160a01b0319166001600160a01b038316908117909155604051919250906000907f8be0079c531659141344cd1fd0a4f28419497f9722a3daafe3b4186f6b6457e0908290a3508015612d3f576000805461ff00191690555b50565b600054610100900460ff1680612d5b5750612d5b6119c7565b80612d69575060005460ff16155b612da45760405162461bcd60e51b815260040180806020018281038252602e815260200180614ab5602e913960400191505060405180910390fd5b600054610100900460ff16158015612dcf576000805460ff1961ff0019909116610100171660011790555b8015612d3f576000805461ff001916905550565b600054610100900460ff1680612dfc5750612dfc6119c7565b80612e0a575060005460ff16155b612e455760405162461bcd60e51b815260040180806020018281038252602e815260200180614ab5602e913960400191505060405180910390fd5b600054610100900460ff16158015612e70576000805460ff1961ff0019909116610100171660011790555b612dcf6301ffc9a760e01b613662565b600054610100900460ff1680612e995750612e996119c7565b80612ea7575060005460ff16155b612ee25760405162461bcd60e51b815260040180806020018281038252602e815260200180614ab5602e913960400191505060405180910390fd5b600054610100900460ff16158015612f0d576000805460ff1961ff0019909116610100171660011790555b612dcf604051806040016040528060088152602001674d696e743131353560c01b815250604051806040016040528060018152602001603160f81b8152506136e6565b600054610100900460ff1680612f695750612f696119c7565b80612f77575060005460ff16155b612fb25760405162461bcd60e51b815260040180806020018281038252602e815260200180614ab5602e913960400191505060405180910390fd5b600054610100900460ff16158015612fdd576000805460ff1961ff0019909116610100171660011790555b612fe6826137a8565b612ff6636cdb3d1360e11b613662565b6130066303a24d0760e21b613662565b8015613018576000805461ff00191690555b5050565b600054610100900460ff168061303557506130356119c7565b80613043575060005460ff16155b61307e5760405162461bcd60e51b815260040180806020018281038252602e815260200180614ab5602e913960400191505060405180910390fd5b600054610100900460ff161580156130a9576000805460ff1961ff0019909116610100171660011790555b81516130bd90610230906020850190613ab9565b5061300663e8a3d48560e01b613662565b600054610100900460ff16806130e757506130e76119c7565b806130f5575060005460ff16155b6131305760405162461bcd60e51b815260040180806020018281038252602e815260200180614ab5602e913960400191505060405180910390fd5b600054610100900460ff1615801561315b576000805460ff1961ff0019909116610100171660011790555b612dcf63656cb66560e11b613662565b600054610100900460ff168061318457506131846119c7565b80613192575060005460ff16155b6131cd5760405162461bcd60e51b815260040180806020018281038252602e815260200180614ab5602e913960400191505060405180910390fd5b600054610100900460ff161580156131f8576000805460ff1961ff0019909116610100171660011790555b825161320c90610262906020860190613ab9565b50815161322190610263906020850190613ab9565b508015610507576000805461ff0019169055505050565b80516130189061012f906020840190613ab9565b6001600160a01b03918216600090815260986020908152604080832093909416825291909152205460ff1690565b8051602091820151604080517f397e04204c1e1a60ee8724b71f8244e10ab5f2e9009854d80f602bda21b59ebb818601526001600160a01b03909316838201526001600160601b039091166060808401919091528151808403909101815260809092019052805191012090565b60006132f2836137bb565b9050613306846001600160a01b0316612c42565b1561347f5760408051630b135d3f60e11b808252600482018481526024830193845285516044840152855191936001600160a01b03891693631626ba7e938793899390929091606490910190602085019080838360005b8381101561337557818101518382015260200161335d565b50505050905090810190601f1680156133a25780820380516001836020036101000a031916815260200191505b50935050505060206040518083038186803b1580156133c057600080fd5b505afa1580156133d4573d6000803e3d6000fd5b505050506040513d60208110156133ea57600080fd5b505160408051808201909152601c81527f7369676e617475726520766572696669636174696f6e206572726f72000000006020820152916001600160e01b0319909116146134795760405162461bcd60e51b8152602060048201818152835160248401528351909283926044909101919085019080838360008315611b02578181015183820152602001611aea565b50611a44565b6001600160a01b0384166134938284613807565b6001600160a01b0316146040518060400160405280601c81526020017f7369676e617475726520766572696669636174696f6e206572726f7200000000815250906119c05760405162461bcd60e51b8152602060048201818152835160248401528351909283926044909101919085019080838360008315611b02578181015183820152602001611aea565b7f3fa96d7b6bcbfe71ef171666d84db3cf52fa2d1c8afdb1cc8e486177f208b7df82826040516127c89291906147f3565b60008381526101fd602052604081205461356b908490611b45565b60008581526101fc602052604090205490915081111561359d5760405162461bcd60e51b81526004016104f3906146fa565b60008481526101fd602052604090208190556001600160a01b0385166135d55760405162461bcd60e51b81526004016104f39061475b565b60006135df611aaa565b9050613600816000886135f18961215b565b6135fa8961215b565b88610919565b60008581526097602090815260408083206001600160a01b038a16845290915290205461362d9085611b45565b60008681526097602090815260408083206001600160a01b038b168452909152812091909155610919908290888888886121a0565b6001600160e01b031980821614156136c1576040805162461bcd60e51b815260206004820152601c60248201527f4552433136353a20696e76616c696420696e7465726661636520696400000000604482015290519081900360640190fd5b6001600160e01b0319166000908152606560205260409020805460ff19166001179055565b600054610100900460ff16806136ff57506136ff6119c7565b8061370d575060005460ff16155b6137485760405162461bcd60e51b815260040180806020018281038252602e815260200180614ab5602e913960400191505060405180910390fd5b600054610100900460ff16158015613773576000805460ff1961ff0019909116610100171660011790555b825160208085019190912083519184019190912061016291909155610163558015610507576000805461ff0019169055505050565b8051613018906099906020840190613ab9565b60006137c5613887565b82604051602001808061190160f01b81525060020183815260200182815260200192505050604051602081830303815290604052805190602001209050919050565b6000815160411461385f576040805162461bcd60e51b815260206004820152601f60248201527f45434453413a20696e76616c6964207369676e6174757265206c656e67746800604482015290519081900360640190fd5b60208201516040830151606084015160001a61387d868285856138c7565b9695505050505050565b60006138c27f8b73c3c69bb8fe3d512ecc4cf759cc79239f7b179b0ffacaa9a75d522b39400f6138b5613a45565b6138bd613a4c565b613a53565b905090565b60007f7fffffffffffffffffffffffffffffff5d576e7357a4501ddfe92f46681b20a08211156139285760405162461bcd60e51b8152600401808060200182810382526022815260200180614a3c6022913960400191505060405180910390fd5b8360ff16601b148061393d57508360ff16601c145b6139785760405162461bcd60e51b8152600401808060200182810382526022815260200180614ae36022913960400191505060405180910390fd5b600060018686868660405160008152602001604052604051808581526020018460ff1681526020018381526020018281526020019450505050506020604051602081039080840390855afa1580156139d4573d6000803e3d6000fd5b5050604051601f1901519150506001600160a01b038116613a3c576040805162461bcd60e51b815260206004820152601860248201527f45434453413a20696e76616c6964207369676e61747572650000000000000000604482015290519081900360640190fd5b95945050505050565b6101625490565b6101635490565b6000838383613a60613ab5565b3060405160200180868152602001858152602001848152602001838152602001826001600160a01b03168152602001955050505050506040516020818303038152906040528051906020012090509392505050565b4690565b828054600181600116156101000203166002900490600052602060002090601f016020900481019282613aef5760008555613b35565b82601f10613b0857805160ff1916838001178555613b35565b82800160010185558215613b35579182015b82811115613b35578251825591602001919060010190613b1a565b50613b41929150613b45565b5090565b5b80821115613b415760008155600101613b46565b80356103f48161490c565b600082601f830112613b75578081fd5b81356020613b8a613b8583614845565b614822565b8281528181019085830183850287018401881015613ba6578586fd5b855b85811015613bcd578135613bbb8161490c565b84529284019290840190600101613ba8565b5090979650505050505050565b600082601f830112613bea578081fd5b81356020613bfa613b8583614845565b82815281810190858301855b85811015613bcd57613c1d898684358b0101613d44565b84529284019290840190600101613c06565b600082601f830112613c3f578081fd5b81356020613c4f613b8583614845565b82815281810190858301604080860288018501891015613c6d578687fd5b865b86811015613cdc5781838b031215613c85578788fd5b81518281018181106001600160401b0382111715613c9f57fe5b83528335613cac8161490c565b8152838701356001600160601b0381168114613cc657898afd5b8188015285529385019391810191600101613c6f565b509198975050505050505050565b600082601f830112613cfa578081fd5b81356020613d0a613b8583614845565b8281528181019085830183850287018401881015613d26578586fd5b855b85811015613bcd57813584529284019290840190600101613d28565b600082601f830112613d54578081fd5b81356001600160401b03811115613d6757fe5b613d7a601f8201601f1916602001614822565b818152846020838601011115613d8e578283fd5b816020850160208301379081016020019190915292915050565b600060c08284031215613db9578081fd5b613dc360c0614822565b90508135815260208201356001600160401b0380821115613de357600080fd5b613def85838601613d44565b6020840152604084013560408401526060840135915080821115613e1257600080fd5b613e1e85838601613c2f565b60608401526080840135915080821115613e3757600080fd5b613e4385838601613c2f565b608084015260a0840135915080821115613e5c57600080fd5b50613e6984828501613bda565b60a08301525092915050565b600060208284031215613e86578081fd5b81356110658161490c565b60008060408385031215613ea3578081fd5b8235613eae8161490c565b91506020830135613ebe8161490c565b809150509250929050565b600080600080600060a08688031215613ee0578081fd5b8535613eeb8161490c565b94506020860135613efb8161490c565b935060408601356001600160401b0380821115613f16578283fd5b613f2289838a01613cea565b94506060880135915080821115613f37578283fd5b613f4389838a01613cea565b93506080880135915080821115613f58578283fd5b50613f6588828901613d44565b9150509295509295909350565b600080600080600060a08688031215613f89578283fd5b8535613f948161490c565b94506020860135613fa48161490c565b9350604086013592506060860135915060808601356001600160401b03811115613fcc578182fd5b613f6588828901613d44565b600080600060608486031215613fec578081fd5b8335613ff78161490c565b925060208401356001600160401b0380821115614012578283fd5b61401e87838801613cea565b93506040860135915080821115614033578283fd5b5061404086828701613cea565b9150509250925092565b6000806040838503121561405c578182fd5b82356140678161490c565b915060208301358015158114613ebe578182fd5b6000806040838503121561408d578182fd5b82356140988161490c565b946020939093013593505050565b6000806000606084860312156140ba578081fd5b83356140c58161490c565b95602085013595506040909401359392505050565b600080604083850312156140ec578182fd5b82356001600160401b0380821115614102578384fd5b61410e86838701613b65565b93506020850135915080821115614123578283fd5b5061413085828601613cea565b9150509250929050565b60006020828403121561414b578081fd5b81356001600160e01b031981168114611065578182fd5b60008060008060008060c0878903121561417a578384fd5b86356001600160401b0380821115614190578586fd5b61419c8a838b01613d44565b975060208901359150808211156141b1578586fd5b6141bd8a838b01613d44565b965060408901359150808211156141d2578586fd5b6141de8a838b01613d44565b955060608901359150808211156141f3578283fd5b5061420089828a01613d44565b93505061420f60808801613b5a565b915061421d60a08801613b5a565b90509295509295509295565b600080600080600060a08688031215614240578283fd5b85356001600160401b0380821115614256578485fd5b61426289838a01613d44565b96506020880135915080821115614277578485fd5b61428389838a01613d44565b95506040880135915080821115614298578485fd5b6142a489838a01613d44565b945060608801359150808211156142b9578283fd5b6142c589838a01613d44565b935060808801359150808211156142da578283fd5b50613f6588828901613b65565b600080600080608085870312156142fc578182fd5b84356001600160401b03811115614311578283fd5b61431d87828801613da8565b945050602085013561432e8161490c565b9250604085013561433e8161490c565b9396929550929360600135925050565b600080600060608486031215614362578081fd5b83356001600160401b03811115614377578182fd5b61438386828701613da8565b93505060208401356143948161490c565b929592945050506040919091013590565b6000602082840312156143b6578081fd5b5035919050565b6000806000606084860312156143d1578081fd5b8335925060208401356143e38161490c565b915060408401356143f38161490c565b809150509250925092565b60008060408385031215614410578182fd5b50508035926020909101359150565b6000815180845260208085019450808401835b8381101561446b57815180516001600160a01b031688528301516001600160601b03168388015260409096019590820190600101614432565b509495945050505050565b60008151808452815b8181101561449b5760208185018101518683018201520161447f565b818111156144ac5782602083870101525b50601f01601f19169290920160200192915050565b6001600160a01b0391909116815260200190565b6001600160a01b03841681526060602082018190526000906144f990830185614476565b828103604084015261387d8185614476565b6001600160a01b039290921682526001600160601b0316602082015260400190565b600060208252611065602083018461441f565b6020808252825182820181905260009190848201906040850190845b818110156145785783518352928401929184019160010161455c565b50909695505050505050565b901515815260200190565b6000602082526110656020830184614476565b60208082526017908201527f6d696e746572206973206e6f7420746865206f776e6572000000000000000000604082015260600190565b60208082526010908201526f1cdd5c1c1b1e481a5b98dbdc9c9958dd60821b604082015260600190565b6020808252818101527f43726561746f722073686172652073686f756c6420626520706f736974697665604082015260600190565b6020808252601190820152701d1bdad95b9259081a5b98dbdc9c9958dd607a1b604082015260600190565b6020808252600b908201526a1b9bdd08185b1b1bddd95960aa1b604082015260600190565b60208082526010908201526f185b5bdd5b9d081a5b98dbdc9c9958dd60821b604082015260600190565b60208082526028908201527f455243313135353a207472616e736665722063616c6c6572206973206e6f7420604082015267185c1c1c9bdd995960c21b606082015260800190565b60208082526010908201526f6d6f7265207468616e20737570706c7960801b604082015260600190565b60208082526019908201527f4163636f756e742073686f756c642062652070726573656e7400000000000000604082015260600190565b60208082526021908201527f455243313135353a206d696e7420746f20746865207a65726f206164647265736040820152607360f81b606082015260800190565b6020808252602e908201527f746f74616c20616d6f756e74206f662063726561746f7273207368617265207360408201526d0686f756c642062652031303030360941b606082015260800190565b90815260200190565b60008382526040602083015261480c604083018461441f565b949350505050565b918252602082015260400190565b6040518181016001600160401b038111828210171561483d57fe5b604052919050565b60006001600160401b0382111561485857fe5b5060209081020190565b60e01c90565b600060443d101561487857610c4a565b600481823e6308c379a061488c8251614862565b1461489657610c4a565b6040513d600319016004823e80513d6001600160401b0381602484011181841117156148c55750505050610c4a565b828401925082519150808211156148df5750505050610c4a565b503d830160208284010111156148f757505050610c4a565b601f01601f1916810160200160405291505090565b6001600160a01b0381168114612d3f57600080fdfe455243313135353a207472616e7366657220746f206e6f6e2045524331313535526563656976657220696d706c656d656e746572455243313135353a204552433131353552656365697665722072656a656374656420746f6b656e73c3d58168c5ae7397731d063d5bbf3d657854427343f4c083240f7aacaa2d0f62455243313135353a2062616c616e636520717565727920666f7220746865207a65726f20616464726573734f776e61626c653a206e6577206f776e657220697320746865207a65726f2061646472657373455243313135353a206275726e20616d6f756e7420657863656564732062616c616e6365455243313135353a2063616c6c6572206973206e6f74206f776e6572206e6f7220617070726f76656445434453413a20696e76616c6964207369676e6174757265202773272076616c7565455243313135353a207472616e7366657220746f20746865207a65726f2061646472657373455243313135353a207472616e736665722063616c6c6572206973206e6f74206f776e6572206e6f7220617070726f766564496e697469616c697a61626c653a20636f6e747261637420697320616c726561647920696e697469616c697a656445434453413a20696e76616c6964207369676e6174757265202776272076616c7565455243313135353a206275726e2066726f6d20746865207a65726f2061646472657373455243313135353a20696e73756666696369656e742062616c616e636520666f72207472616e73666572526f79616c747920746f74616c2076616c75652073686f756c64206265203c203130303030455243313135353a2073657474696e6720617070726f76616c2073746174757320666f722073656c66455243313135353a206163636f756e747320616e6420696473206c656e677468206d69736d61746368455243313135353a2069647320616e6420616d6f756e7473206c656e677468206d69736d61746368a26469706673582212203d2915b5bc17d831bedc8aba09efbd08bace4606c58dde83473140e7ff21dee364736f6c63430007060033",
  "immutableReferences": {},
  "source": "// SPDX-License-Identifier: MIT\n\npragma solidity 0.7.6;\npragma abicoder v2;\n\nimport \"./ERC1155Base.sol\";\n\ncontract ERC1155Rarible is ERC1155Base {\n    /// @dev true if collection is private, false if public\n    bool isPrivate;\n\n    event CreateERC1155Rarible(address owner, string name, string symbol);\n    event CreateERC1155RaribleUser(address owner, string name, string symbol);\n\n    function __ERC1155RaribleUser_init(string memory _name, string memory _symbol, string memory baseURI, string memory contractURI, address[] memory operators) external initializer {\n        __ERC1155Rarible_init_unchained(_name, _symbol, baseURI, contractURI);\n        for(uint i = 0; i < operators.length; i++) {\n            setApprovalForAll(operators[i], true);\n        }\n\n        isPrivate = true;\n        emit CreateERC1155RaribleUser(_msgSender(), _name, _symbol);\n    }\n    \n    function __ERC1155Rarible_init(string memory _name, string memory _symbol, string memory baseURI, string memory contractURI, address transferProxy, address lazyTransferProxy) external initializer {\n        __ERC1155Rarible_init_unchained(_name, _symbol, baseURI, contractURI);\n\n        //setting default approver for transferProxies\n        _setDefaultApproval(transferProxy, true);\n        _setDefaultApproval(lazyTransferProxy, true);\n\n        isPrivate = false;\n        emit CreateERC1155Rarible(_msgSender(), _name, _symbol);\n    }\n\n    function __ERC1155Rarible_init_unchained(string memory _name, string memory _symbol, string memory baseURI, string memory contractURI) internal {\n        __Ownable_init_unchained();\n        __ERC1155Lazy_init_unchained();\n        __ERC165_init_unchained();\n        __Context_init_unchained();\n        __Mint1155Validator_init_unchained();\n        __ERC1155_init_unchained(\"\");\n        __HasContractURI_init_unchained(contractURI);\n        __ERC1155Burnable_init_unchained();\n        __RoyaltiesV2Upgradeable_init_unchained();\n        __ERC1155Base_init_unchained(_name, _symbol);\n        _setBaseURI(baseURI);\n    }\n\n    function mintAndTransfer(LibERC1155LazyMint.Mint1155Data memory data, address to, uint256 _amount) public override {\n        if (isPrivate){\n          require(owner() == data.creators[0].account, \"minter is not the owner\");\n        }\n        super.mintAndTransfer(data, to, _amount);\n    }\n\n    uint256[49] private __gap;\n}\n",
  "sourcePath": "@rarible/tokens/contracts/erc-1155/ERC1155Rarible.sol",
  "compiler": {
    "name": "solc",
    "version": "0.7.6+commit.7338295f.Emscripten.clang"
  },
  "schemaVersion": "3.4.3",
  "updatedAt": "2021-11-10T21:01:58.992Z",
  "devdoc": {
    "kind": "dev",
    "methods": {
      "balanceOf(address,uint256)": {
        "details": "See {IERC1155-balanceOf}. Requirements: - `account` cannot be the zero address."
      },
      "balanceOfBatch(address[],uint256[])": {
        "details": "See {IERC1155-balanceOfBatch}. Requirements: - `accounts` and `ids` must have the same length."
      },
      "baseURI()": {
        "details": "Returns the base URI set via {_setBaseURI}. This will be automatically added as a prefix in {tokenURI} to each token's URI, or to the token ID if no specific URI is set for that token ID."
      },
      "owner()": {
        "details": "Returns the address of the current owner."
      },
      "renounceOwnership()": {
        "details": "Leaves the contract without owner. It will not be possible to call `onlyOwner` functions anymore. Can only be called by the current owner. NOTE: Renouncing ownership will leave the contract without an owner, thereby removing any functionality that is only available to the owner."
      },
      "safeBatchTransferFrom(address,address,uint256[],uint256[],bytes)": {
        "details": "See {IERC1155-safeBatchTransferFrom}."
      },
      "safeTransferFrom(address,address,uint256,uint256,bytes)": {
        "details": "See {IERC1155-safeTransferFrom}."
      },
      "setApprovalForAll(address,bool)": {
        "details": "See {IERC1155-setApprovalForAll}."
      },
      "transferOwnership(address)": {
        "details": "Transfers ownership of the contract to a new account (`newOwner`). Can only be called by the current owner."
      }
    },
    "stateVariables": {
      "isPrivate": {
        "details": "true if collection is private, false if public"
      }
    },
    "version": 1
  },
  "userdoc": {
    "kind": "user",
    "methods": {},
    "version": 1
  }
}