{
  "contractName": "ERC1155Rarible",
  "abi": [
    {
      "anonymous": false,
      "inputs": [
        {
          "indexed": true,
          "internalType": "address",
          "name": "account",
          "type": "address"
        },
        {
          "indexed": true,
          "internalType": "address",
          "name": "operator",
          "type": "address"
        },
        {
          "indexed": false,
          "internalType": "bool",
          "name": "approved",
          "type": "bool"
        }
      ],
      "name": "ApprovalForAll",
      "type": "event"
    },
    {
      "anonymous": false,
      "inputs": [
        {
          "indexed": false,
          "internalType": "string",
          "name": "newBaseURI",
          "type": "string"
        }
      ],
      "name": "BaseUriChanged",
      "type": "event"
    },
    {
      "anonymous": false,
      "inputs": [
        {
          "indexed": true,
          "internalType": "address",
          "name": "operator",
          "type": "address"
        },
        {
          "indexed": true,
          "internalType": "address",
          "name": "account",
          "type": "address"
        },
        {
          "indexed": false,
          "internalType": "uint256",
          "name": "id",
          "type": "uint256"
        },
        {
          "indexed": false,
          "internalType": "uint256",
          "name": "amount",
          "type": "uint256"
        }
      ],
      "name": "BurnLazy",
      "type": "event"
    },
    {
      "anonymous": false,
      "inputs": [
        {
          "indexed": true,
          "internalType": "address",
          "name": "operator",
          "type": "address"
        },
        {
          "indexed": true,
          "internalType": "address",
          "name": "account",
          "type": "address"
        },
        {
          "indexed": false,
          "internalType": "uint256[]",
          "name": "ids",
          "type": "uint256[]"
        },
        {
          "indexed": false,
          "internalType": "uint256[]",
          "name": "amounts",
          "type": "uint256[]"
        }
      ],
      "name": "BurnLazyBatch",
      "type": "event"
    },
    {
      "anonymous": false,
      "inputs": [
        {
          "indexed": false,
          "internalType": "address",
          "name": "owner",
          "type": "address"
        },
        {
          "indexed": false,
          "internalType": "string",
          "name": "name",
          "type": "string"
        },
        {
          "indexed": false,
          "internalType": "string",
          "name": "symbol",
          "type": "string"
        }
      ],
      "name": "CreateERC1155Rarible",
      "type": "event"
    },
    {
      "anonymous": false,
      "inputs": [
        {
          "indexed": false,
          "internalType": "address",
          "name": "owner",
          "type": "address"
        },
        {
          "indexed": false,
          "internalType": "string",
          "name": "name",
          "type": "string"
        },
        {
          "indexed": false,
          "internalType": "string",
          "name": "symbol",
          "type": "string"
        }
      ],
      "name": "CreateERC1155RaribleUser",
      "type": "event"
    },
    {
      "anonymous": false,
      "inputs": [
        {
          "indexed": false,
          "internalType": "uint256",
          "name": "tokenId",
          "type": "uint256"
        },
        {
          "components": [
            {
              "internalType": "address payable",
              "name": "account",
              "type": "address"
            },
            {
              "internalType": "uint96",
              "name": "value",
              "type": "uint96"
            }
          ],
          "indexed": false,
          "internalType": "struct LibPart.Part[]",
          "name": "creators",
          "type": "tuple[]"
        }
      ],
      "name": "Creators",
      "type": "event"
    },
    {
      "anonymous": false,
      "inputs": [
        {
          "indexed": true,
          "internalType": "address",
          "name": "operator",
          "type": "address"
        },
        {
          "indexed": false,
          "internalType": "bool",
          "name": "hasApproval",
          "type": "bool"
        }
      ],
      "name": "DefaultApproval",
      "type": "event"
    },
    {
      "anonymous": false,
      "inputs": [
        {
          "indexed": true,
          "internalType": "address",
          "name": "minter",
          "type": "address"
        },
        {
          "indexed": true,
          "internalType": "bool",
          "name": "status",
          "type": "bool"
        }
      ],
      "name": "MinterStatusChanged",
      "type": "event"
    },
    {
      "anonymous": false,
      "inputs": [
        {
          "indexed": true,
          "internalType": "address",
          "name": "previousOwner",
          "type": "address"
        },
        {
          "indexed": true,
          "internalType": "address",
          "name": "newOwner",
          "type": "address"
        }
      ],
      "name": "OwnershipTransferred",
      "type": "event"
    },
    {
      "anonymous": false,
      "inputs": [
        {
          "indexed": false,
          "internalType": "uint256",
          "name": "tokenId",
          "type": "uint256"
        },
        {
          "components": [
            {
              "internalType": "address payable",
              "name": "account",
              "type": "address"
            },
            {
              "internalType": "uint96",
              "name": "value",
              "type": "uint96"
            }
          ],
          "indexed": false,
          "internalType": "struct LibPart.Part[]",
          "name": "royalties",
          "type": "tuple[]"
        }
      ],
      "name": "RoyaltiesSet",
      "type": "event"
    },
    {
      "anonymous": false,
      "inputs": [
        {
          "indexed": false,
          "internalType": "uint256",
          "name": "tokenId",
          "type": "uint256"
        },
        {
          "indexed": false,
          "internalType": "uint256",
          "name": "value",
          "type": "uint256"
        }
      ],
      "name": "Supply",
      "type": "event"
    },
    {
      "anonymous": false,
      "inputs": [
        {
          "indexed": true,
          "internalType": "address",
          "name": "operator",
          "type": "address"
        },
        {
          "indexed": true,
          "internalType": "address",
          "name": "from",
          "type": "address"
        },
        {
          "indexed": true,
          "internalType": "address",
          "name": "to",
          "type": "address"
        },
        {
          "indexed": false,
          "internalType": "uint256[]",
          "name": "ids",
          "type": "uint256[]"
        },
        {
          "indexed": false,
          "internalType": "uint256[]",
          "name": "values",
          "type": "uint256[]"
        }
      ],
      "name": "TransferBatch",
      "type": "event"
    },
    {
      "anonymous": false,
      "inputs": [
        {
          "indexed": true,
          "internalType": "address",
          "name": "operator",
          "type": "address"
        },
        {
          "indexed": true,
          "internalType": "address",
          "name": "from",
          "type": "address"
        },
        {
          "indexed": true,
          "internalType": "address",
          "name": "to",
          "type": "address"
        },
        {
          "indexed": false,
          "internalType": "uint256",
          "name": "id",
          "type": "uint256"
        },
        {
          "indexed": false,
          "internalType": "uint256",
          "name": "value",
          "type": "uint256"
        }
      ],
      "name": "TransferSingle",
      "type": "event"
    },
    {
      "anonymous": false,
      "inputs": [
        {
          "indexed": false,
          "internalType": "string",
          "name": "value",
          "type": "string"
        },
        {
          "indexed": true,
          "internalType": "uint256",
          "name": "id",
          "type": "uint256"
        }
      ],
      "name": "URI",
      "type": "event"
    },
    {
      "inputs": [],
      "name": "OPERATOR_FILTER_REGISTRY",
      "outputs": [
        {
          "internalType": "address",
          "name": "",
          "type": "address"
        }
      ],
      "stateMutability": "view",
      "type": "function",
      "constant": true
    },
    {
      "inputs": [
        {
          "internalType": "address",
          "name": "minter",
          "type": "address"
        }
      ],
      "name": "addMinter",
      "outputs": [],
      "stateMutability": "nonpayable",
      "type": "function"
    },
    {
      "inputs": [
        {
          "internalType": "address[]",
          "name": "minters",
          "type": "address[]"
        }
      ],
      "name": "addMinters",
      "outputs": [],
      "stateMutability": "nonpayable",
      "type": "function"
    },
    {
      "inputs": [
        {
          "internalType": "address",
          "name": "account",
          "type": "address"
        },
        {
          "internalType": "uint256",
          "name": "id",
          "type": "uint256"
        }
      ],
      "name": "balanceOf",
      "outputs": [
        {
          "internalType": "uint256",
          "name": "",
          "type": "uint256"
        }
      ],
      "stateMutability": "view",
      "type": "function",
      "constant": true
    },
    {
      "inputs": [
        {
          "internalType": "address[]",
          "name": "accounts",
          "type": "address[]"
        },
        {
          "internalType": "uint256[]",
          "name": "ids",
          "type": "uint256[]"
        }
      ],
      "name": "balanceOfBatch",
      "outputs": [
        {
          "internalType": "uint256[]",
          "name": "",
          "type": "uint256[]"
        }
      ],
      "stateMutability": "view",
      "type": "function",
      "constant": true
    },
    {
      "inputs": [],
      "name": "baseURI",
      "outputs": [
        {
          "internalType": "string",
          "name": "",
          "type": "string"
        }
      ],
      "stateMutability": "view",
      "type": "function",
      "constant": true
    },
    {
      "inputs": [
        {
          "internalType": "address",
          "name": "account",
          "type": "address"
        },
        {
          "internalType": "uint256",
          "name": "id",
          "type": "uint256"
        },
        {
          "internalType": "uint256",
          "name": "amount",
          "type": "uint256"
        }
      ],
      "name": "burn",
      "outputs": [],
      "stateMutability": "nonpayable",
      "type": "function"
    },
    {
      "inputs": [
        {
          "internalType": "address",
          "name": "account",
          "type": "address"
        },
        {
          "internalType": "uint256[]",
          "name": "ids",
          "type": "uint256[]"
        },
        {
          "internalType": "uint256[]",
          "name": "amounts",
          "type": "uint256[]"
        }
      ],
      "name": "burnBatch",
      "outputs": [],
      "stateMutability": "nonpayable",
      "type": "function"
    },
    {
      "inputs": [],
      "name": "contractURI",
      "outputs": [
        {
          "internalType": "string",
          "name": "",
          "type": "string"
        }
      ],
      "stateMutability": "view",
      "type": "function",
      "constant": true
    },
    {
      "inputs": [
        {
          "internalType": "uint256",
          "name": "_id",
          "type": "uint256"
        }
      ],
      "name": "getCreators",
      "outputs": [
        {
          "components": [
            {
              "internalType": "address payable",
              "name": "account",
              "type": "address"
            },
            {
              "internalType": "uint96",
              "name": "value",
              "type": "uint96"
            }
          ],
          "internalType": "struct LibPart.Part[]",
          "name": "",
          "type": "tuple[]"
        }
      ],
      "stateMutability": "view",
      "type": "function",
      "constant": true
    },
    {
      "inputs": [
        {
          "internalType": "uint256",
          "name": "id",
          "type": "uint256"
        }
      ],
      "name": "getRaribleV2Royalties",
      "outputs": [
        {
          "components": [
            {
              "internalType": "address payable",
              "name": "account",
              "type": "address"
            },
            {
              "internalType": "uint96",
              "name": "value",
              "type": "uint96"
            }
          ],
          "internalType": "struct LibPart.Part[]",
          "name": "",
          "type": "tuple[]"
        }
      ],
      "stateMutability": "view",
      "type": "function",
      "constant": true
    },
    {
      "inputs": [
        {
          "internalType": "address",
          "name": "_owner",
          "type": "address"
        },
        {
          "internalType": "address",
          "name": "_operator",
          "type": "address"
        }
      ],
      "name": "isApprovedForAll",
      "outputs": [
        {
          "internalType": "bool",
          "name": "",
          "type": "bool"
        }
      ],
      "stateMutability": "view",
      "type": "function",
      "constant": true
    },
    {
      "inputs": [
        {
          "internalType": "address",
          "name": "account",
          "type": "address"
        }
      ],
      "name": "isMinter",
      "outputs": [
        {
          "internalType": "bool",
          "name": "",
          "type": "bool"
        }
      ],
      "stateMutability": "view",
      "type": "function",
      "constant": true
    },
    {
      "inputs": [],
      "name": "name",
      "outputs": [
        {
          "internalType": "string",
          "name": "",
          "type": "string"
        }
      ],
      "stateMutability": "view",
      "type": "function",
      "constant": true
    },
    {
      "inputs": [],
      "name": "owner",
      "outputs": [
        {
          "internalType": "address",
          "name": "",
          "type": "address"
        }
      ],
      "stateMutability": "view",
      "type": "function",
      "constant": true
    },
    {
      "inputs": [
        {
          "internalType": "address",
          "name": "_minter",
          "type": "address"
        }
      ],
      "name": "removeMinter",
      "outputs": [],
      "stateMutability": "nonpayable",
      "type": "function"
    },
    {
      "inputs": [],
      "name": "renounceOwnership",
      "outputs": [],
      "stateMutability": "nonpayable",
      "type": "function"
    },
    {
      "inputs": [
        {
          "internalType": "uint256",
          "name": "id",
          "type": "uint256"
        },
        {
          "internalType": "uint256",
          "name": "_salePrice",
          "type": "uint256"
        }
      ],
      "name": "royaltyInfo",
      "outputs": [
        {
          "internalType": "address",
          "name": "receiver",
          "type": "address"
        },
        {
          "internalType": "uint256",
          "name": "royaltyAmount",
          "type": "uint256"
        }
      ],
      "stateMutability": "view",
      "type": "function",
      "constant": true
    },
    {
      "inputs": [
        {
          "internalType": "address",
          "name": "from",
          "type": "address"
        },
        {
          "internalType": "address",
          "name": "to",
          "type": "address"
        },
        {
          "internalType": "uint256[]",
          "name": "ids",
          "type": "uint256[]"
        },
        {
          "internalType": "uint256[]",
          "name": "amounts",
          "type": "uint256[]"
        },
        {
          "internalType": "bytes",
          "name": "data",
          "type": "bytes"
        }
      ],
      "name": "safeBatchTransferFrom",
      "outputs": [],
      "stateMutability": "nonpayable",
      "type": "function"
    },
    {
      "inputs": [
        {
          "internalType": "address",
          "name": "from",
          "type": "address"
        },
        {
          "internalType": "address",
          "name": "to",
          "type": "address"
        },
        {
          "internalType": "uint256",
          "name": "tokenId",
          "type": "uint256"
        },
        {
          "internalType": "uint256",
          "name": "amount",
          "type": "uint256"
        },
        {
          "internalType": "bytes",
          "name": "data",
          "type": "bytes"
        }
      ],
      "name": "safeTransferFrom",
      "outputs": [],
      "stateMutability": "nonpayable",
      "type": "function"
    },
    {
      "inputs": [
        {
          "internalType": "address",
          "name": "operator",
          "type": "address"
        },
        {
          "internalType": "bool",
          "name": "approved",
          "type": "bool"
        }
      ],
      "name": "setApprovalForAll",
      "outputs": [],
      "stateMutability": "nonpayable",
      "type": "function"
    },
    {
      "inputs": [
        {
          "internalType": "string",
          "name": "newBaseURI",
          "type": "string"
        }
      ],
      "name": "setBaseURI",
      "outputs": [],
      "stateMutability": "nonpayable",
      "type": "function"
    },
    {
      "inputs": [
        {
          "internalType": "bytes4",
          "name": "interfaceId",
          "type": "bytes4"
        }
      ],
      "name": "supportsInterface",
      "outputs": [
        {
          "internalType": "bool",
          "name": "",
          "type": "bool"
        }
      ],
      "stateMutability": "view",
      "type": "function",
      "constant": true
    },
    {
      "inputs": [],
      "name": "symbol",
      "outputs": [
        {
          "internalType": "string",
          "name": "",
          "type": "string"
        }
      ],
      "stateMutability": "view",
      "type": "function",
      "constant": true
    },
    {
      "inputs": [
        {
          "components": [
            {
              "internalType": "uint256",
              "name": "tokenId",
              "type": "uint256"
            },
            {
              "internalType": "string",
              "name": "tokenURI",
              "type": "string"
            },
            {
              "internalType": "uint256",
              "name": "supply",
              "type": "uint256"
            },
            {
              "components": [
                {
                  "internalType": "address payable",
                  "name": "account",
                  "type": "address"
                },
                {
                  "internalType": "uint96",
                  "name": "value",
                  "type": "uint96"
                }
              ],
              "internalType": "struct LibPart.Part[]",
              "name": "creators",
              "type": "tuple[]"
            },
            {
              "components": [
                {
                  "internalType": "address payable",
                  "name": "account",
                  "type": "address"
                },
                {
                  "internalType": "uint96",
                  "name": "value",
                  "type": "uint96"
                }
              ],
              "internalType": "struct LibPart.Part[]",
              "name": "royalties",
              "type": "tuple[]"
            },
            {
              "internalType": "bytes[]",
              "name": "signatures",
              "type": "bytes[]"
            }
          ],
          "internalType": "struct LibERC1155LazyMint.Mint1155Data",
          "name": "data",
          "type": "tuple"
        },
        {
          "internalType": "address",
          "name": "from",
          "type": "address"
        },
        {
          "internalType": "address",
          "name": "to",
          "type": "address"
        },
        {
          "internalType": "uint256",
          "name": "amount",
          "type": "uint256"
        }
      ],
      "name": "transferFromOrMint",
      "outputs": [],
      "stateMutability": "nonpayable",
      "type": "function"
    },
    {
      "inputs": [
        {
          "internalType": "address",
          "name": "newOwner",
          "type": "address"
        }
      ],
      "name": "transferOwnership",
      "outputs": [],
      "stateMutability": "nonpayable",
      "type": "function"
    },
    {
      "inputs": [
        {
          "internalType": "uint256",
          "name": "_id",
          "type": "uint256"
        },
        {
          "internalType": "address",
          "name": "_from",
          "type": "address"
        },
        {
          "internalType": "address",
          "name": "_to",
          "type": "address"
        }
      ],
      "name": "updateAccount",
      "outputs": [],
      "stateMutability": "nonpayable",
      "type": "function"
    },
    {
      "inputs": [
        {
          "internalType": "uint256",
          "name": "id",
          "type": "uint256"
        }
      ],
      "name": "uri",
      "outputs": [
        {
          "internalType": "string",
          "name": "",
          "type": "string"
        }
      ],
      "stateMutability": "view",
      "type": "function",
      "constant": true
    },
    {
      "inputs": [
        {
          "internalType": "string",
          "name": "_name",
          "type": "string"
        },
        {
          "internalType": "string",
          "name": "_symbol",
          "type": "string"
        },
        {
          "internalType": "string",
          "name": "baseURI",
          "type": "string"
        },
        {
          "internalType": "string",
          "name": "contractURI",
          "type": "string"
        },
        {
          "internalType": "address[]",
          "name": "operators",
          "type": "address[]"
        },
        {
          "internalType": "address",
          "name": "transferProxy",
          "type": "address"
        },
        {
          "internalType": "address",
          "name": "lazyTransferProxy",
          "type": "address"
        },
        {
          "internalType": "address",
          "name": "subscribeTo",
          "type": "address"
        }
      ],
      "name": "__ERC1155RaribleUser_init",
      "outputs": [],
      "stateMutability": "nonpayable",
      "type": "function"
    },
    {
      "inputs": [
        {
          "internalType": "string",
          "name": "_name",
          "type": "string"
        },
        {
          "internalType": "string",
          "name": "_symbol",
          "type": "string"
        },
        {
          "internalType": "string",
          "name": "baseURI",
          "type": "string"
        },
        {
          "internalType": "string",
          "name": "contractURI",
          "type": "string"
        },
        {
          "internalType": "address",
          "name": "transferProxy",
          "type": "address"
        },
        {
          "internalType": "address",
          "name": "lazyTransferProxy",
          "type": "address"
        },
        {
          "internalType": "address",
          "name": "subscribeTo",
          "type": "address"
        }
      ],
      "name": "__ERC1155Rarible_init",
      "outputs": [],
      "stateMutability": "nonpayable",
      "type": "function"
    },
    {
      "inputs": [
        {
          "components": [
            {
              "internalType": "uint256",
              "name": "tokenId",
              "type": "uint256"
            },
            {
              "internalType": "string",
              "name": "tokenURI",
              "type": "string"
            },
            {
              "internalType": "uint256",
              "name": "supply",
              "type": "uint256"
            },
            {
              "components": [
                {
                  "internalType": "address payable",
                  "name": "account",
                  "type": "address"
                },
                {
                  "internalType": "uint96",
                  "name": "value",
                  "type": "uint96"
                }
              ],
              "internalType": "struct LibPart.Part[]",
              "name": "creators",
              "type": "tuple[]"
            },
            {
              "components": [
                {
                  "internalType": "address payable",
                  "name": "account",
                  "type": "address"
                },
                {
                  "internalType": "uint96",
                  "name": "value",
                  "type": "uint96"
                }
              ],
              "internalType": "struct LibPart.Part[]",
              "name": "royalties",
              "type": "tuple[]"
            },
            {
              "internalType": "bytes[]",
              "name": "signatures",
              "type": "bytes[]"
            }
          ],
          "internalType": "struct LibERC1155LazyMint.Mint1155Data",
          "name": "data",
          "type": "tuple"
        },
        {
          "internalType": "address",
          "name": "to",
          "type": "address"
        },
        {
          "internalType": "uint256",
          "name": "_amount",
          "type": "uint256"
        }
      ],
      "name": "mintAndTransfer",
      "outputs": [],
      "stateMutability": "nonpayable",
      "type": "function"
    }
  ],
  "bytecode": "0x608060405234801561001057600080fd5b50615636806100206000396000f3fe608060405234801561001057600080fd5b50600436106101e35760003560e01c806371e2a6571161010f578063cad96cca116100a2578063f242432a11610071578063f242432a14610403578063f2fde38b14610416578063f5298aca14610429578063ffc4e0a71461043c576101e3565b8063cad96cca146103c2578063e07f2319146103d5578063e8a3d485146103e8578063e985e9c5146103f0576101e3565b8063983b2d56116100de578063983b2d5614610376578063a22cb46514610389578063aa271e1a1461039c578063c67b435f146103af576101e3565b806371e2a65714610333578063891be974146103465780638da5cb5b1461036657806395d89b411461036e576101e3565b80632eb2c2d61161018757806355f804b31161015657806355f804b3146102fd5780636b20c454146103105780636c0360eb14610323578063715018a61461032b576101e3565b80632eb2c2d6146102a25780633092afd5146102b557806341f43434146102c85780634e1273f4146102dd576101e3565b806306fdde03116101c357806306fdde03146102465780630e89341c1461025b5780630eaead671461026e5780632a55205a14610281576101e3565b8062e85979146101e8578062fdd58e146101fd57806301ffc9a714610226575b600080fd5b6101fb6101f6366004614b7f565b61044f565b005b61021061020b366004614953565b6104b8565b60405161021d91906151e2565b60405180910390f35b610239610234366004614a4c565b61052a565b60405161021d9190614f33565b61024e61053d565b60405161021d9190614f3e565b61024e610269366004614d3a565b6105cc565b6101fb61027c366004614ce3565b6105d7565b61029461028f366004614d93565b61067b565b60405161021d929190614ecf565b6101fb6102b03660046147a1565b610789565b6101fb6102c336600461474d565b6107b8565b6102d0610868565b60405161021d9190614e85565b6102f06102eb3660046149ec565b610881565b60405161021d9190614efb565b6101fb61030b366004614a74565b61096c565b6101fb61031e3660046148b0565b610a11565b61024e610b97565b6101fb610c2e565b6101fb6103413660046149b2565b610cda565b610359610354366004614d3a565b610dc3565b60405161021d9190614ee8565b6102d0610e53565b61024e610e62565b6101fb61038436600461474d565b610ebe565b6101fb610397366004614922565b610f73565b6102396103aa36600461474d565b610f87565b6101fb6103bd366004614aa6565b610fa6565b6103596103d0366004614d3a565b61100b565b6101fb6103e3366004614d52565b611086565b61024e6110c9565b6102396103fe366004614769565b611125565b6101fb61041136600461484a565b611138565b6101fb61042436600461474d565b61115f565b6101fb61043736600461497e565b611262565b6101fb61044a366004614c7c565b6112de565b61045e88888888878787611386565b610296805460ff191660011790557f7da6bc204c8c4856a6aff786a6cb81c59477c782191dc51837d644a8ad50f2cc6104956114c2565b89896040516104a693929190614e99565b60405180910390a15050505050505050565b60006001600160a01b0383166104ff5760405162461bcd60e51b815260040180806020018281038252602b81526020018061538e602b913960400191505060405180910390fd5b5060008181526097602090815260408083206001600160a01b03861684529091529020545b92915050565b6000610535826114c6565b90505b919050565b610262805460408051602060026001851615610100026000190190941693909304601f810184900484028201840190925281815292918301828280156105c45780601f10610599576101008083540402835291602001916105c4565b820191906000526020600020905b8154815290600101906020018083116105a757829003601f168201915b505050505081565b606061053582611565565b6102965460ff161561066b5782606001516000815181106105f457fe5b6020026020010151600001516001600160a01b0316610611610e53565b6001600160a01b031614806106465750610646836060015160008151811061063557fe5b602002602001015160000151610f87565b61066b5760405162461bcd60e51b815260040161066290614f7c565b60405180910390fd5b6106768383836116fb565b505050565b60008281526101fa6020526040812054819061069c57506000905080610782565b60008481526101fa6020908152604080832080548251818502810185019093528083529192909190849084015b8282101561071857600084815260209081902060408051808201909152908401546001600160a01b0381168252600160a01b90046001600160601b0316818301528252600190920191016106c9565b5050505090508060008151811061072b57fe5b60209081029190910101515192506000805b82518110156107765782818151811061075257fe5b6020026020010151602001516001600160601b03168201915080600101905061073d565b50612710908502049150505b9250929050565b846001600160a01b03811633146107a3576107a3336119f7565b6107b08686868686611aef565b505050505050565b6107c06114c2565b6001600160a01b03166107d1610e53565b6001600160a01b03161461081a576040805162461bcd60e51b81526020600482018190526024820152600080516020615542833981519152604482015290519081900360640190fd5b6001600160a01b03811660008181526102c86020526040808220805460ff19169055519091907f3042b80e435ae46c334b2cfec51a66d64c9a8a8af4cd0c279a124c35a09e91dd908390a350565b73d76f01af5f73563c103a11ab2f52099833d0252c5b90565b606081518351146108c35760405162461bcd60e51b81526004018080602001828103825260298152602001806155b06029913960400191505060405180910390fd5b600083516001600160401b03811180156108dc57600080fd5b50604051908082528060200260200182016040528015610906578160200160208202803683370190505b50905060005b84518110156109645761094585828151811061092457fe5b602002602001015185838151811061093857fe5b60200260200101516104b8565b82828151811061095157fe5b602090810291909101015260010161090c565b509392505050565b6109746114c2565b6001600160a01b0316610985610e53565b6001600160a01b0316146109ce576040805162461bcd60e51b81526020600482018190526024820152600080516020615542833981519152604482015290519081900360640190fd5b6109d781611de5565b7f87cdeaffd8e70903d6ce7cc983fac3b09ca79e83818124c98e47a1d70f8027d681604051610a069190614f3e565b60405180910390a150565b8051825114610a325760405162461bcd60e51b81526004016106629061512b565b600082516001600160401b0381118015610a4b57600080fd5b50604051908082528060200260200182016040528015610a75578160200160208202803683370190505b509050600083516001600160401b0381118015610a9157600080fd5b50604051908082528060200260200182016040528015610abb578160200160208202803683370190505b50905060005b8451811015610b3057610afa858281518110610ad957fe5b6020026020010151858381518110610aed57fe5b6020026020010151611df9565b848381518110610b0657fe5b60200260200101848481518110610b1957fe5b602090810291909101019190915252600101610ac1565b50610b3c858584611e6e565b846001600160a01b0316610b4e6114c2565b6001600160a01b03167fcf3391513e21a9d4a0348f8e890080170eba18dc62db35b60d8a518b7088eb3a8684604051610b88929190614f0e565b60405180910390a35050505050565b61012f8054604080516020601f6002600019610100600188161502019095169490940493840181900481028201810190925282815260609390929091830182828015610c245780601f10610bf957610100808354040283529160200191610c24565b820191906000526020600020905b815481529060010190602001808311610c0757829003601f168201915b5050505050905090565b610c366114c2565b6001600160a01b0316610c47610e53565b6001600160a01b031614610c90576040805162461bcd60e51b81526020600482018190526024820152600080516020615542833981519152604482015290519081900360640190fd5b6033546040516000916001600160a01b0316907f8be0079c531659141344cd1fd0a4f28419497f9722a3daafe3b4186f6b6457e0908390a3603380546001600160a01b0319169055565b610ce26114c2565b6001600160a01b0316610cf3610e53565b6001600160a01b031614610d3c576040805162461bcd60e51b81526020600482018190526024820152600080516020615542833981519152604482015290519081900360640190fd5b60005b8151811015610dbf576000828281518110610d5657fe5b6020908102919091018101516001600160a01b03811660008181526102c89093526040808420805460ff1916600190811790915590519294509290917f3042b80e435ae46c334b2cfec51a66d64c9a8a8af4cd0c279a124c35a09e91dd9190a350600101610d3f565b5050565b60606101fb6000838152602001908152602001600020805480602002602001604051908101604052809291908181526020016000905b82821015610e4857600084815260209081902060408051808201909152908401546001600160a01b0381168252600160a01b90046001600160601b031681830152825260019092019101610df9565b505050509050919050565b6033546001600160a01b031690565b610263805460408051602060026001851615610100026000190190941693909304601f810184900484028201840190925281815292918301828280156105c45780601f10610599576101008083540402835291602001916105c4565b610ec66114c2565b6001600160a01b0316610ed7610e53565b6001600160a01b031614610f20576040805162461bcd60e51b81526020600482018190526024820152600080516020615542833981519152604482015290519081900360640190fd5b6001600160a01b03811660008181526102c86020526040808220805460ff1916600190811790915590519092917f3042b80e435ae46c334b2cfec51a66d64c9a8a8af4cd0c279a124c35a09e91dd91a350565b81610f7d816119f7565b6106768383611ee2565b6001600160a01b031660009081526102c8602052604090205460ff1690565b610fb587878787878787611386565b610296805460ff191690557fcc215b7682459c30faa0e854780165d503a7d62d22a9aaaad6334585dc63343e610fe96114c2565b8888604051610ffa93929190614e99565b60405180910390a150505050505050565b60008181526101fa60209081526040808320805482518185028101850190935280835260609492939192909184018215610e4857600084815260209081902060408051808201909152908401546001600160a01b0381168252600160a01b90046001600160601b031681830152825260019092019101610df9565b816001600160a01b03166110986114c2565b6001600160a01b0316146110be5760405162461bcd60e51b815260040161066290615033565b610676838383611fd1565b610230805460408051602060026001851615610100026000190190941693909304601f810184900484028201840190925281815292918301828280156105c45780601f10610599576101008083540402835291602001916105c4565b6000611131838361207d565b9392505050565b846001600160a01b038116331461115257611152336119f7565b6107b086868686866120a9565b6111676114c2565b6001600160a01b0316611178610e53565b6001600160a01b0316146111c1576040805162461bcd60e51b81526020600482018190526024820152600080516020615542833981519152604482015290519081900360640190fd5b6001600160a01b0381166112065760405162461bcd60e51b81526004018080602001828103825260268152602001806153b96026913960400191505060405180910390fd5b6033546040516001600160a01b038084169216907f8be0079c531659141344cd1fd0a4f28419497f9722a3daafe3b4186f6b6457e090600090a3603380546001600160a01b0319166001600160a01b0392909216919091179055565b60008061126f8484611df9565b9092509050811561128557611285858584612262565b80156112d757846001600160a01b031661129d6114c2565b6001600160a01b03167f5110a21391aa55386de41fe7a3e3dffb40132d38d629a113a7f4afff251b1a018684604051610b88929190615204565b5050505050565b60006112ee8486600001516104b8565b90508181156113285782808310156113035750815b611323868689600001518460405180602001604052806000815250611138565b830390505b80156107b057856060015160008151811061133f57fe5b6020026020010151600001516001600160a01b0316856001600160a01b03161461137b5760405162461bcd60e51b815260040161066290614f51565b6107b08685836105d7565b600054610100900460ff168061139f575061139f6122d6565b806113ad575060005460ff16155b6113e85760405162461bcd60e51b815260040180806020018281038252602e8152602001806154a5602e913960400191505060405180910390fd5b600054610100900460ff16158015611413576000805460ff1961ff0019909116610100171660011790555b61141b6122e7565b6114236123e0565b61142b6123e2565b611433612493565b61143b612533565b61145360405180602001604052806000815250612576565b61145c8561259f565b6114646123e0565b61146c6125c4565b61147688886125d4565b61147e612493565b61148786611de5565b611490826125fd565b61149b84600161269c565b6114a683600161269c565b80156114b8576000805461ff00191690555b5050505050505050565b3390565b60006001600160e01b03198216636db15a0f60e01b14806114f757506001600160e01b0319821663656cb66560e11b145b8061151257506001600160e01b0319821663152a902d60e11b145b8061152d57506001600160e01b031982166301ffc9a760e01b145b8061154857506001600160e01b03198216636cdb3d1360e11b145b806105355750506001600160e01b0319166303a24d0760e21b1490565b600081815261012e6020908152604080832080548251601f60026000196101006001861615020190931692909204918201859004850281018501909352808352606094938301828280156115fa5780601f106115cf576101008083540402835291602001916115fa565b820191906000526020600020905b8154815290600101906020018083116115dd57829003601f168201915b50505050509050600061160b610b97565b905080516000141561161f57509050610538565b8151156116395761163081836126fc565b92505050610538565b80611643856128e1565b6040516020018083805190602001908083835b602083106116755780518252601f199092019160209182019101611656565b51815160209384036101000a600019018019909216911617905285519190930192850191508083835b602083106116bd5780518252601f19909201916020918201910161169e565b6001836020036101000a0380198251168184511680821785525050505050509050019250505060405160208183030381529060405292505050919050565b825160601c600061170a6114c2565b9050806001600160a01b0316826001600160a01b0316148061173157506117318282611125565b61174d5760405162461bcd60e51b815260040161066290615082565b6000831161176d5760405162461bcd60e51b815260040161066290615058565b845160009081526101fc60205260409020546118d657846060015160008151811061179457fe5b6020026020010151600001516001600160a01b0316826001600160a01b0316146117d05760405162461bcd60e51b815260040161066290615008565b60008560400151116117f45760405162461bcd60e51b815260040161066290614fa9565b8460a00151518560600151511461180a57600080fd5b6000611815866129bb565b905060005b86606001515181101561188b5760008760600151828151811061183957fe5b6020026020010151600001519050836001600160a01b0316816001600160a01b0316146118825761188281848a60a00151858151811061187557fe5b6020026020010151612c0e565b5060010161181a565b5061189e86600001518760400151612c19565b6118b086600001518760800151612c83565b6118c286600001518760600151612e72565b6118d486600001518760200151613021565b505b6118f584866000015185604051806020016040528060008152506130e5565b836001600160a01b0316826001600160a01b0316146119a657816001600160a01b031660006001600160a01b0316826001600160a01b031660008051602061536e833981519152886000015187604051611950929190615204565b60405180910390a4836001600160a01b0316826001600160a01b0316826001600160a01b031660008051602061536e833981519152886000015187604051611999929190615204565b60405180910390a46112d7565b836001600160a01b031660006001600160a01b0316826001600160a01b031660008051602061536e8339815191528860000151876040516119e8929190615204565b60405180910390a45050505050565b611a10611a02610868565b6001600160a01b03166130f7565b15611aec57611a1d610868565b6001600160a01b031663c617113430836040518363ffffffff1660e01b815260040180836001600160a01b03168152602001826001600160a01b031681526020019250505060206040518083038186803b158015611a7a57600080fd5b505afa158015611a8e573d6000803e3d6000fd5b505050506040513d6020811015611aa457600080fd5b5051611aec576040805162461bcd60e51b815260206004820152601260248201527113dc195c985d1bdc939bdd105b1b1bddd95960721b604482015290519081900360640190fd5b50565b8151835114611b2f5760405162461bcd60e51b81526004018080602001828103825260288152602001806155d96028913960400191505060405180910390fd5b6001600160a01b038416611b745760405162461bcd60e51b815260040180806020018281038252602581526020018061544e6025913960400191505060405180910390fd5b611b7c6114c2565b6001600160a01b0316856001600160a01b03161480611ba25750611ba2856103fe6114c2565b611bdd5760405162461bcd60e51b81526004018080602001828103825260328152602001806154736032913960400191505060405180910390fd5b6000611be76114c2565b9050611bf78187878787876107b0565b60005b8451811015611cfd576000858281518110611c1157fe5b602002602001015190506000858381518110611c2957fe5b60200260200101519050611c96816040518060600160405280602a8152602001615518602a91396097600086815260200190815260200160002060008d6001600160a01b03166001600160a01b03168152602001908152602001600020546130fd9092919063ffffffff16565b60008381526097602090815260408083206001600160a01b038e811685529252808320939093558a1681522054611ccd9082613194565b60009283526097602090815260408085206001600160a01b038c1686529091529092209190915550600101611bfa565b50846001600160a01b0316866001600160a01b0316826001600160a01b03167f4a39dc06d4c0dbc64b70af90fd698a233a518aa5d07e595d983b8c0526c8f7fb8787604051808060200180602001838103835285818151815260200191508051906020019060200280838360005b83811015611d83578181015183820152602001611d6b565b50505050905001838103825284818151815260200191508051906020019060200280838360005b83811015611dc2578181015183820152602001611daa565b5050505090500194505050505060405180910390a46107b08187878787876131ee565b8051610dbf9061012f906020840190614391565b806000606084901c611e096114c2565b6001600160a01b0316816001600160a01b03161415611e66578391506000611e308661346d565b90508015611e55576000611e4387613480565b8203905080861115611e53578093505b505b611e5f8684613493565b8285039350505b509250929050565b611e766114c2565b6001600160a01b0316836001600160a01b03161480611e9c5750611e9c836103fe6114c2565b611ed75760405162461bcd60e51b81526004018080602001828103825260298152602001806154036029913960400191505060405180910390fd5b6106768383836134ac565b816001600160a01b0316611ef46114c2565b6001600160a01b03161415611f3a5760405162461bcd60e51b81526004018080602001828103825260298152602001806155876029913960400191505060405180910390fd5b8060986000611f476114c2565b6001600160a01b03908116825260208083019390935260409182016000908120918716808252919093529120805460ff191692151592909217909155611f8b6114c2565b6001600160a01b03167f17307eab39ab6107e8899845ad3d59bd9653f200f220920489ca2b5937696c318360405180821515815260200191505060405180910390a35050565b60008381526101fa6020526040812054905b818110156112d75760008581526101fa6020526040902080546001600160a01b03861691908390811061201257fe5b6000918252602090912001546001600160a01b031614156120755760008581526101fa6020526040902080548491908390811061204b57fe5b600091825260209091200180546001600160a01b0319166001600160a01b03929092169190911790555b600101611fe3565b6001600160a01b038116600090815260c9602052604081205460ff16806111315750611131838361371a565b6001600160a01b0384166120ee5760405162461bcd60e51b815260040180806020018281038252602581526020018061544e6025913960400191505060405180910390fd5b6120f66114c2565b6001600160a01b0316856001600160a01b0316148061211c575061211c856103fe6114c2565b6121575760405162461bcd60e51b81526004018080602001828103825260298152602001806154036029913960400191505060405180910390fd5b60006121616114c2565b905061218181878761217288613748565b61217b88613748565b876107b0565b6121c8836040518060600160405280602a8152602001615518602a913960008781526097602090815260408083206001600160a01b038d16845290915290205491906130fd565b60008581526097602090815260408083206001600160a01b038b811685529252808320939093558716815220546121ff9084613194565b60008581526097602090815260408083206001600160a01b03808b168086529184529382902094909455805188815291820187905280518a84169386169260008051602061536e83398151915292908290030190a46107b081878787878761378d565b61226a6114c2565b6001600160a01b0316836001600160a01b031614806122905750612290836103fe6114c2565b6122cb5760405162461bcd60e51b81526004018080602001828103825260298152602001806154036029913960400191505060405180910390fd5b6106768383836138fe565b60006122e1306130f7565b15905090565b600054610100900460ff168061230057506123006122d6565b8061230e575060005460ff16155b6123495760405162461bcd60e51b815260040180806020018281038252602e8152602001806154a5602e913960400191505060405180910390fd5b600054610100900460ff16158015612374576000805460ff1961ff0019909116610100171660011790555b600061237e6114c2565b603380546001600160a01b0319166001600160a01b038316908117909155604051919250906000907f8be0079c531659141344cd1fd0a4f28419497f9722a3daafe3b4186f6b6457e0908290a3508015611aec576000805461ff001916905550565b565b600054610100900460ff16806123fb57506123fb6122d6565b80612409575060005460ff16155b6124445760405162461bcd60e51b815260040180806020018281038252602e8152602001806154a5602e913960400191505060405180910390fd5b600054610100900460ff1615801561246f576000805460ff1961ff0019909116610100171660011790555b61247f6301ffc9a760e01b613a1f565b8015611aec576000805461ff001916905550565b600054610100900460ff16806124ac57506124ac6122d6565b806124ba575060005460ff16155b6124f55760405162461bcd60e51b815260040180806020018281038252602e8152602001806154a5602e913960400191505060405180910390fd5b600054610100900460ff1615801561247f576000805460ff1961ff0019909116610100171660011790558015611aec576000805461ff001916905550565b6123e0604051806040016040528060088152602001674d696e743131353560c01b815250604051806040016040528060018152602001603160f81b815250613aa3565b61257f81613b65565b61258f636cdb3d1360e11b613a1f565b611aec6303a24d0760e21b613a1f565b80516125b390610230906020840190614391565b50611aec63e8a3d48560e01b613a1f565b6123e063656cb66560e11b613a1f565b81516125e890610262906020850190614391565b50805161067690610263906020840190614391565b612608611a02610868565b801561261c57506001600160a01b03811615155b15611aec57612629610868565b6001600160a01b0316637d3e3dbe30836040518363ffffffff1660e01b815260040180836001600160a01b03168152602001826001600160a01b0316815260200192505050600060405180830381600087803b15801561268857600080fd5b505af11580156112d7573d6000803e3d6000fd5b6001600160a01b038216600081815260c96020908152604091829020805460ff1916851515908117909155825190815291517f270dbb8ba4292910ae92862466486be25c355c837270a3d8824b36a8bc7c653b9281900390910190a25050565b805182516060918491849110156127c75784846040516020018083805190602001908083835b602083106127415780518252601f199092019160209182019101612722565b51815160209384036101000a600019018019909216911617905285519190930192850191508083835b602083106127895780518252601f19909201916020918201910161276a565b6001836020036101000a0380198251168184511680821785525050505050509050019250505060405160208183030381529060405292505050610524565b60005b82518110156128d7578281815181106127df57fe5b602001015160f81c60f81b6001600160f81b03191682828151811061280057fe5b01602001516001600160f81b031916146128cf5785856040516020018083805190602001908083835b602083106128485780518252601f199092019160209182019101612829565b51815160209384036101000a600019018019909216911617905285519190930192850191508083835b602083106128905780518252601f199092019160209182019101612871565b6001836020036101000a038019825116818451168082178552505050505050905001925050506040516020818303038152906040529350505050610524565b6001016127ca565b5092949350505050565b60608161290657506040805180820190915260018152600360fc1b6020820152610538565b8160005b811561291e57600101600a8204915061290a565b6000816001600160401b038111801561293657600080fd5b506040519080825280601f01601f191660200182016040528015612961576020820181803683370190505b50859350905060001982015b83156129b257600a840660300160f81b8282806001900393508151811061299057fe5b60200101906001600160f81b031916908160001a905350600a8404935061296d565b50949350505050565b6000808260800151516001600160401b03811180156129d957600080fd5b50604051908082528060200260200182016040528015612a03578160200160208202803683370190505b50905060005b836080015151811015612a5557612a3684608001518281518110612a2957fe5b6020026020010151613b78565b828281518110612a4257fe5b6020908102919091010152600101612a09565b5060008360600151516001600160401b0381118015612a7357600080fd5b50604051908082528060200260200182016040528015612a9d578160200160208202803683370190505b50905060005b846060015151811015612ae257612ac385606001518281518110612a2957fe5b828281518110612acf57fe5b6020908102919091010152600101612aa3565b507ffb988707ebb338694f318760b0fd5cfe756d00a2ade251fda110b80c336a3c7f846000015185604001518660200151805190602001208460405160200180828051906020019060200280838360005b83811015612b4b578181015183820152602001612b33565b50505050905001915050604051602081830303815290604052805190602001208660405160200180828051906020019060200280838360005b83811015612b9c578181015183820152602001612b84565b50505050905001915050604051602081830303815290604052805190602001206040516020018087815260200186815260200185815260200184815260200183815260200182815260200196505050505050506040516020818303038152906040528051906020012092505050919050565b610676838383613be5565b60008281526101fc602052604090205415612c3357600080fd5b60008281526101fc602052604090819020829055517f5e2aa66efd74cce82b21852e317e5490d9ecc9e6bb953ae24d90851258cc2f5c90612c779084908490615204565b60405180910390a15050565b6000805b8251811015612e275760006001600160a01b0316838281518110612ca757fe5b6020026020010151600001516001600160a01b03161415612d0f576040805162461bcd60e51b815260206004820152601b60248201527f526563697069656e742073686f756c642062652070726573656e740000000000604482015290519081900360640190fd5b828181518110612d1b57fe5b6020026020010151602001516001600160601b031660001415612d85576040805162461bcd60e51b815260206004820181905260248201527f526f79616c74792076616c75652073686f756c6420626520706f736974697665604482015290519081900360640190fd5b828181518110612d9157fe5b6020026020010151602001516001600160601b0316820191506101fa6000858152602001908152602001600020838281518110612dca57fe5b60209081029190910181015182546001818101855560009485529383902082519101805492909301516001600160601b0316600160a01b026001600160a01b039182166001600160a01b0319909316929092171617905501612c87565b506127108110612e685760405162461bcd60e51b81526004018080602001828103825260258152602001806155626025913960400191505060405180910390fd5b6106768383613e27565b60008281526101fb6020526040812090805b8351811015612fc05760006001600160a01b0316848281518110612ea457fe5b6020026020010151600001516001600160a01b03161415612ed75760405162461bcd60e51b8152600401610662906150f4565b838181518110612ee357fe5b6020026020010151602001516001600160601b031660001415612f185760405162461bcd60e51b815260040161066290614fd3565b82848281518110612f2557fe5b602090810291909101810151825460018101845560009384529282902081519301805491909201516001600160601b0316600160a01b026001600160a01b039384166001600160a01b0319909216919091179092169190911790558351612fb690859083908110612f9257fe5b6020026020010151602001516001600160601b03168361319490919063ffffffff16565b9150600101612e84565b508061271014612fe25760405162461bcd60e51b815260040161066290615194565b7f841ffb90d4cabdd1f16034f3fa831d79060febbb8167bdd54a49269365bdf78f84846040516130139291906151eb565b60405180910390a150505050565b600082815261012e60209081526040909120825161304192840190614391565b50817f6bb7ff708619ba0610cba295a58592e0451dee2622938c8755667688daf3529b61306d84611565565b6040805160208082528351818301528351919283929083019185019080838360005b838110156130a757818101518382015260200161308f565b50505050905090810190601f1680156130d45780820380516001836020036101000a031916815260200191505b509250505060405180910390a25050565b6130f184848484613e58565b50505050565b3b151590565b6000818484111561318c5760405162461bcd60e51b81526004018080602001828103825283818151815260200191508051906020019080838360005b83811015613151578181015183820152602001613139565b50505050905090810190601f16801561317e5780820380516001836020036101000a031916815260200191505b509250505060405180910390fd5b505050900390565b600082820183811015611131576040805162461bcd60e51b815260206004820152601b60248201527f536166654d6174683a206164646974696f6e206f766572666c6f770000000000604482015290519081900360640190fd5b613200846001600160a01b03166130f7565b156107b057836001600160a01b031663bc197c8187878686866040518663ffffffff1660e01b815260040180866001600160a01b03168152602001856001600160a01b03168152602001806020018060200180602001848103845287818151815260200191508051906020019060200280838360005b8381101561328e578181015183820152602001613276565b50505050905001848103835286818151815260200191508051906020019060200280838360005b838110156132cd5781810151838201526020016132b5565b50505050905001848103825285818151815260200191508051906020019080838360005b838110156133095781810151838201526020016132f1565b50505050905090810190601f1680156133365780820380516001836020036101000a031916815260200191505b5098505050505050505050602060405180830381600087803b15801561335b57600080fd5b505af192505050801561338057506040513d602081101561337b57600080fd5b505160015b6134155761338c615258565b8061339757506133de565b60405162461bcd60e51b8152602060048201818152835160248401528351849391928392604401919085019080838360008315613151578181015183820152602001613139565b60405162461bcd60e51b81526004018080602001828103825260348152602001806153126034913960400191505060405180910390fd5b6001600160e01b0319811663bc197c8160e01b146134645760405162461bcd60e51b81526004018080602001828103825260288152602001806153466028913960400191505060405180910390fd5b50505050505050565b60009081526101fc602052604090205490565b60009081526101fd602052604090205490565b60009182526101fd602052604090912080549091019055565b6001600160a01b0383166134f15760405162461bcd60e51b81526004018080602001828103825260238152602001806154f56023913960400191505060405180910390fd5b80518251146135315760405162461bcd60e51b81526004018080602001828103825260288152602001806155d96028913960400191505060405180910390fd5b600061353b6114c2565b905061355b818560008686604051806020016040528060008152506107b0565b60005b8351811015613639576135f083828151811061357657fe5b60200260200101516040518060600160405280602481526020016153df60249139609760008886815181106135a757fe5b602002602001015181526020019081526020016000206000896001600160a01b03166001600160a01b03168152602001908152602001600020546130fd9092919063ffffffff16565b6097600086848151811061360057fe5b602090810291909101810151825281810192909252604090810160009081206001600160a01b038a16825290925290205560010161355e565b5060006001600160a01b0316846001600160a01b0316826001600160a01b03167f4a39dc06d4c0dbc64b70af90fd698a233a518aa5d07e595d983b8c0526c8f7fb8686604051808060200180602001838103835285818151815260200191508051906020019060200280838360005b838110156136c05781810151838201526020016136a8565b50505050905001838103825284818151815260200191508051906020019060200280838360005b838110156136ff5781810151838201526020016136e7565b5050505090500194505050505060405180910390a450505050565b6001600160a01b03918216600090815260986020908152604080832093909416825291909152205460ff1690565b6040805160018082528183019092526060916000919060208083019080368337019050509050828160008151811061377c57fe5b602090810291909101015292915050565b61379f846001600160a01b03166130f7565b156107b057836001600160a01b031663f23a6e6187878686866040518663ffffffff1660e01b815260040180866001600160a01b03168152602001856001600160a01b0316815260200184815260200183815260200180602001828103825283818151815260200191508051906020019080838360005b8381101561382e578181015183820152602001613816565b50505050905090810190601f16801561385b5780820380516001836020036101000a031916815260200191505b509650505050505050602060405180830381600087803b15801561387e57600080fd5b505af19250505080156138a357506040513d602081101561389e57600080fd5b505160015b6138af5761338c615258565b6001600160e01b0319811663f23a6e6160e01b146134645760405162461bcd60e51b81526004018080602001828103825260288152602001806153466028913960400191505060405180910390fd5b6001600160a01b0383166139435760405162461bcd60e51b81526004018080602001828103825260238152602001806154f56023913960400191505060405180910390fd5b600061394d6114c2565b905061397d8185600061395f87613748565b61396887613748565b604051806020016040528060008152506107b0565b6139c4826040518060600160405280602481526020016153df6024913960008681526097602090815260408083206001600160a01b038b16845290915290205491906130fd565b60008481526097602090815260408083206001600160a01b03808a168086529184528285209590955581518881529283018790528151939490939086169260008051602061536e83398151915292908290030190a450505050565b6001600160e01b03198082161415613a7e576040805162461bcd60e51b815260206004820152601c60248201527f4552433136353a20696e76616c696420696e7465726661636520696400000000604482015290519081900360640190fd5b6001600160e01b0319166000908152606560205260409020805460ff19166001179055565b600054610100900460ff1680613abc5750613abc6122d6565b80613aca575060005460ff16155b613b055760405162461bcd60e51b815260040180806020018281038252602e8152602001806154a5602e913960400191505060405180910390fd5b600054610100900460ff16158015613b30576000805460ff1961ff0019909116610100171660011790555b825160208085019190912083519184019190912061016291909155610163558015610676576000805461ff0019169055505050565b8051610dbf906099906020840190614391565b8051602091820151604080517f397e04204c1e1a60ee8724b71f8244e10ab5f2e9009854d80f602bda21b59ebb818601526001600160a01b03909316838201526001600160601b039091166060808401919091528151808403909101815260809092019052805191012090565b6000613bf083613f6a565b90506000825160411415613c0b57613c088284613fb6565b90505b846001600160a01b0316816001600160a01b0316146112d757613c36856001600160a01b03166130f7565b15613daf5760408051630b135d3f60e11b808252600482018581526024830193845286516044840152865191936001600160a01b038a1693631626ba7e9388938a9390929091606490910190602085019080838360005b83811015613ca5578181015183820152602001613c8d565b50505050905090810190601f168015613cd25780820380516001836020036101000a031916815260200191505b50935050505060206040518083038186803b158015613cf057600080fd5b505afa158015613d04573d6000803e3d6000fd5b505050506040513d6020811015613d1a57600080fd5b505160408051808201909152601c81527f7369676e617475726520766572696669636174696f6e206572726f72000000006020820152916001600160e01b031990911614613da95760405162461bcd60e51b8152602060048201818152835160248401528351909283926044909101919085019080838360008315613151578181015183820152602001613139565b506112d7565b604080518082018252601c81527f7369676e617475726520766572696669636174696f6e206572726f72000000006020808301918252925162461bcd60e51b81526004810193845282516024820152825192939283926044909201919080838360008315613151578181015183820152602001613139565b7f3fa96d7b6bcbfe71ef171666d84db3cf52fa2d1c8afdb1cc8e486177f208b7df8282604051612c779291906151eb565b60008381526101fd6020526040812054613e73908490613194565b60008581526101fc6020526040902054909150811115613ea55760405162461bcd60e51b8152600401610662906150ca565b60008481526101fd602052604090208190556001600160a01b038516613edd5760405162461bcd60e51b815260040161066290615153565b6000613ee76114c2565b9050613f0881600088613ef989613748565b613f0289613748565b886107b0565b60008581526097602090815260408083206001600160a01b038a168452909152902054613f359085613194565b60008681526097602090815260408083206001600160a01b038b1684529091528120919091556107b09082908888888861378d565b6000613f74614036565b82604051602001808061190160f01b81525060020183815260200182815260200192505050604051602081830303815290604052805190602001209050919050565b6000815160411461400e576040805162461bcd60e51b815260206004820152601f60248201527f45434453413a20696e76616c6964207369676e6174757265206c656e67746800604482015290519081900360640190fd5b60208201516040830151606084015160001a61402c86828585614076565b9695505050505050565b60006140717f8b73c3c69bb8fe3d512ecc4cf759cc79239f7b179b0ffacaa9a75d522b39400f6140646142cc565b61406c6142d3565b6142da565b905090565b60007f7fffffffffffffffffffffffffffffff5d576e7357a4501ddfe92f46681b20a08211156140d75760405162461bcd60e51b815260040180806020018281038252602281526020018061542c6022913960400191505060405180910390fd5b6000601e8560ff1611156141b1576004850360ff16601b148061410057506004850360ff16601c145b61413b5760405162461bcd60e51b81526004018080602001828103825260228152602001806154d36022913960400191505060405180910390fd5b60016141468761433c565b60048703868660405160008152602001604052604051808581526020018460ff1681526020018381526020018281526020019450505050506020604051602081039080840390855afa1580156141a0573d6000803e3d6000fd5b505050602060405103519050614268565b8460ff16601b14806141c657508460ff16601c145b6142015760405162461bcd60e51b81526004018080602001828103825260228152602001806154d36022913960400191505060405180910390fd5b60018686868660405160008152602001604052604051808581526020018460ff1681526020018381526020018281526020019450505050506020604051602081039080840390855afa15801561425b573d6000803e3d6000fd5b5050506020604051035190505b6001600160a01b0381166142c3576040805162461bcd60e51b815260206004820152601860248201527f45434453413a20696e76616c6964207369676e61747572650000000000000000604482015290519081900360640190fd5b95945050505050565b6101625490565b6101635490565b60008383836142e761438d565b3060405160200180868152602001858152602001848152602001838152602001826001600160a01b03168152602001955050505050506040516020818303038152906040528051906020012090509392505050565b604080517f19457468657265756d205369676e6564204d6573736167653a0a333200000000602080830191909152603c8083019490945282518083039094018452605c909101909152815191012090565b4690565b828054600181600116156101000203166002900490600052602060002090601f0160209004810192826143c7576000855561440d565b82601f106143e057805160ff191683800117855561440d565b8280016001018555821561440d579182015b8281111561440d5782518255916020019190600101906143f2565b5061441992915061441d565b5090565b5b80821115614419576000815560010161441e565b8035610538816152fc565b600082601f83011261444d578081fd5b8135602061446261445d83615235565b615212565b828152818101908583018385028701840188101561447e578586fd5b855b858110156144a5578135614493816152fc565b84529284019290840190600101614480565b5090979650505050505050565b600082601f8301126144c2578081fd5b813560206144d261445d83615235565b82815281810190858301855b858110156144a5576144f5898684358b010161461c565b845292840192908401906001016144de565b600082601f830112614517578081fd5b8135602061452761445d83615235565b82815281810190858301604080860288018501891015614545578687fd5b865b868110156145b45781838b03121561455d578788fd5b81518281018181106001600160401b038211171561457757fe5b83528335614584816152fc565b8152838701356001600160601b038116811461459e57898afd5b8188015285529385019391810191600101614547565b509198975050505050505050565b600082601f8301126145d2578081fd5b813560206145e261445d83615235565b82815281810190858301838502870184018810156145fe578586fd5b855b858110156144a557813584529284019290840190600101614600565b600082601f83011261462c578081fd5b81356001600160401b0381111561463f57fe5b614652601f8201601f1916602001615212565b818152846020838601011115614666578283fd5b816020850160208301379081016020019190915292915050565b600060c08284031215614691578081fd5b61469b60c0615212565b90508135815260208201356001600160401b03808211156146bb57600080fd5b6146c78583860161461c565b60208401526040840135604084015260608401359150808211156146ea57600080fd5b6146f685838601614507565b6060840152608084013591508082111561470f57600080fd5b61471b85838601614507565b608084015260a084013591508082111561473457600080fd5b50614741848285016144b2565b60a08301525092915050565b60006020828403121561475e578081fd5b8135611131816152fc565b6000806040838503121561477b578081fd5b8235614786816152fc565b91506020830135614796816152fc565b809150509250929050565b600080600080600060a086880312156147b8578081fd5b85356147c3816152fc565b945060208601356147d3816152fc565b935060408601356001600160401b03808211156147ee578283fd5b6147fa89838a016145c2565b9450606088013591508082111561480f578283fd5b61481b89838a016145c2565b93506080880135915080821115614830578283fd5b5061483d8882890161461c565b9150509295509295909350565b600080600080600060a08688031215614861578283fd5b853561486c816152fc565b9450602086013561487c816152fc565b9350604086013592506060860135915060808601356001600160401b038111156148a4578182fd5b61483d8882890161461c565b6000806000606084860312156148c4578081fd5b83356148cf816152fc565b925060208401356001600160401b03808211156148ea578283fd5b6148f6878388016145c2565b9350604086013591508082111561490b578283fd5b50614918868287016145c2565b9150509250925092565b60008060408385031215614934578182fd5b823561493f816152fc565b915060208301358015158114614796578182fd5b60008060408385031215614965578182fd5b8235614970816152fc565b946020939093013593505050565b600080600060608486031215614992578081fd5b833561499d816152fc565b95602085013595506040909401359392505050565b6000602082840312156149c3578081fd5b81356001600160401b038111156149d8578182fd5b6149e48482850161443d565b949350505050565b600080604083850312156149fe578182fd5b82356001600160401b0380821115614a14578384fd5b614a208683870161443d565b93506020850135915080821115614a35578283fd5b50614a42858286016145c2565b9150509250929050565b600060208284031215614a5d578081fd5b81356001600160e01b031981168114611131578182fd5b600060208284031215614a85578081fd5b81356001600160401b03811115614a9a578182fd5b6149e48482850161461c565b600080600080600080600060e0888a031215614ac0578485fd5b87356001600160401b0380821115614ad6578687fd5b614ae28b838c0161461c565b985060208a0135915080821115614af7578687fd5b614b038b838c0161461c565b975060408a0135915080821115614b18578687fd5b614b248b838c0161461c565b965060608a0135915080821115614b39578384fd5b50614b468a828b0161461c565b945050614b5560808901614432565b9250614b6360a08901614432565b9150614b7160c08901614432565b905092959891949750929550565b600080600080600080600080610100898b031215614b9b578182fd5b88356001600160401b0380821115614bb1578384fd5b614bbd8c838d0161461c565b995060208b0135915080821115614bd2578384fd5b614bde8c838d0161461c565b985060408b0135915080821115614bf3578384fd5b614bff8c838d0161461c565b975060608b0135915080821115614c14578384fd5b614c208c838d0161461c565b965060808b0135915080821115614c35578384fd5b50614c428b828c0161443d565b945050614c5160a08a01614432565b9250614c5f60c08a01614432565b9150614c6d60e08a01614432565b90509295985092959890939650565b60008060008060808587031215614c91578182fd5b84356001600160401b03811115614ca6578283fd5b614cb287828801614680565b9450506020850135614cc3816152fc565b92506040850135614cd3816152fc565b9396929550929360600135925050565b600080600060608486031215614cf7578081fd5b83356001600160401b03811115614d0c578182fd5b614d1886828701614680565b9350506020840135614d29816152fc565b929592945050506040919091013590565b600060208284031215614d4b578081fd5b5035919050565b600080600060608486031215614d66578081fd5b833592506020840135614d78816152fc565b91506040840135614d88816152fc565b809150509250925092565b60008060408385031215614da5578182fd5b50508035926020909101359150565b6000815180845260208085019450808401835b83811015614e0057815180516001600160a01b031688528301516001600160601b03168388015260409096019590820190600101614dc7565b509495945050505050565b6000815180845260208085019450808401835b83811015614e0057815187529582019590820190600101614e1e565b60008151808452815b81811015614e5f57602081850181015186830182015201614e43565b81811115614e705782602083870101525b50601f01601f19169290920160200192915050565b6001600160a01b0391909116815260200190565b6001600160a01b0384168152606060208201819052600090614ebd90830185614e3a565b828103604084015261402c8185614e3a565b6001600160a01b03929092168252602082015260400190565b6000602082526111316020830184614db4565b6000602082526111316020830184614e0b565b600060408252614f216040830185614e0b565b82810360208401526142c38185614e0b565b901515815260200190565b6000602082526111316020830184614e3a565b6020808252601190820152703bb937b7339037b93232b91036b0b5b2b960791b604082015260600190565b6020808252601390820152723737ba1037bbb732b91037b91036b4b73a32b960691b604082015260600190565b60208082526010908201526f1cdd5c1c1b1e481a5b98dbdc9c9958dd60821b604082015260600190565b6020808252818101527f43726561746f722073686172652073686f756c6420626520706f736974697665604082015260600190565b6020808252601190820152701d1bdad95b9259081a5b98dbdc9c9958dd607a1b604082015260600190565b6020808252600b908201526a1b9bdd08185b1b1bddd95960aa1b604082015260600190565b60208082526010908201526f185b5bdd5b9d081a5b98dbdc9c9958dd60821b604082015260600190565b60208082526028908201527f455243313135353a207472616e736665722063616c6c6572206973206e6f7420604082015267185c1c1c9bdd995960c21b606082015260800190565b60208082526010908201526f6d6f7265207468616e20737570706c7960801b604082015260600190565b60208082526019908201527f4163636f756e742073686f756c642062652070726573656e7400000000000000604082015260600190565b6020808252600e908201526d69647320213d20616d6f756e747360901b604082015260600190565b60208082526021908201527f455243313135353a206d696e7420746f20746865207a65726f206164647265736040820152607360f81b606082015260800190565b6020808252602e908201527f746f74616c20616d6f756e74206f662063726561746f7273207368617265207360408201526d0686f756c642062652031303030360941b606082015260800190565b90815260200190565b6000838252604060208301526149e46040830184614db4565b918252602082015260400190565b6040518181016001600160401b038111828210171561522d57fe5b604052919050565b60006001600160401b0382111561524857fe5b5060209081020190565b60e01c90565b600060443d10156152685761087e565b600481823e6308c379a061527c8251615252565b146152865761087e565b6040513d600319016004823e80513d6001600160401b0381602484011181841117156152b5575050505061087e565b828401925082519150808211156152cf575050505061087e565b503d830160208284010111156152e75750505061087e565b601f01601f1916810160200160405291505090565b6001600160a01b0381168114611aec57600080fdfe455243313135353a207472616e7366657220746f206e6f6e2045524331313535526563656976657220696d706c656d656e746572455243313135353a204552433131353552656365697665722072656a656374656420746f6b656e73c3d58168c5ae7397731d063d5bbf3d657854427343f4c083240f7aacaa2d0f62455243313135353a2062616c616e636520717565727920666f7220746865207a65726f20616464726573734f776e61626c653a206e6577206f776e657220697320746865207a65726f2061646472657373455243313135353a206275726e20616d6f756e7420657863656564732062616c616e6365455243313135353a2063616c6c6572206973206e6f74206f776e6572206e6f7220617070726f76656445434453413a20696e76616c6964207369676e6174757265202773272076616c7565455243313135353a207472616e7366657220746f20746865207a65726f2061646472657373455243313135353a207472616e736665722063616c6c6572206973206e6f74206f776e6572206e6f7220617070726f766564496e697469616c697a61626c653a20636f6e747261637420697320616c726561647920696e697469616c697a656445434453413a20696e76616c6964207369676e6174757265202776272076616c7565455243313135353a206275726e2066726f6d20746865207a65726f2061646472657373455243313135353a20696e73756666696369656e742062616c616e636520666f72207472616e736665724f776e61626c653a2063616c6c6572206973206e6f7420746865206f776e6572526f79616c747920746f74616c2076616c75652073686f756c64206265203c203130303030455243313135353a2073657474696e6720617070726f76616c2073746174757320666f722073656c66455243313135353a206163636f756e747320616e6420696473206c656e677468206d69736d61746368455243313135353a2069647320616e6420616d6f756e7473206c656e677468206d69736d61746368a2646970667358221220a49364eff189a452b46e3f5d20ddfaedee43e79a08e072b614effc0b7b00ec6c64736f6c63430007060033",
  "immutableReferences": {},
  "source": "// SPDX-License-Identifier: MIT\n\npragma solidity 0.7.6;\npragma abicoder v2;\n\nimport \"./ERC1155Base.sol\";\nimport \"../IsPrivateCollection.sol\";\nimport \"../access/MinterAccessControl.sol\";\n\ncontract ERC1155Rarible is ERC1155Base, IsPrivateCollection, MinterAccessControl {\n    event CreateERC1155Rarible(address owner, string name, string symbol);\n    event CreateERC1155RaribleUser(address owner, string name, string symbol);\n\n    function __ERC1155RaribleUser_init(string memory _name, string memory _symbol, string memory baseURI, string memory contractURI, address[] memory operators, address transferProxy, address lazyTransferProxy, address subscribeTo) external virtual {\n        __ERC1155Rarible_init_unchained(_name, _symbol, baseURI, contractURI, transferProxy, lazyTransferProxy, subscribeTo);\n        \n        isPrivate = true;\n        emit CreateERC1155RaribleUser(_msgSender(), _name, _symbol);\n    }\n    \n    function __ERC1155Rarible_init(string memory _name, string memory _symbol, string memory baseURI, string memory contractURI, address transferProxy, address lazyTransferProxy, address subscribeTo) external virtual {\n        __ERC1155Rarible_init_unchained(_name, _symbol, baseURI, contractURI, transferProxy, lazyTransferProxy, subscribeTo);\n\n        isPrivate = false;\n        emit CreateERC1155Rarible(_msgSender(), _name, _symbol);\n    }\n\n    function __ERC1155Rarible_init_unchained(string memory _name, string memory _symbol, string memory baseURI, string memory contractURI, address transferProxy, address lazyTransferProxy, address subscribeTo) internal initializer {\n        __Ownable_init_unchained();\n        __ERC1155Lazy_init_unchained();\n        __ERC165_init_unchained();\n        __Context_init_unchained();\n        __Mint1155Validator_init_unchained();\n        __ERC1155_init_unchained(\"\");\n        __HasContractURI_init_unchained(contractURI);\n        __ERC1155Burnable_init_unchained();\n        __RoyaltiesV2Upgradeable_init_unchained();\n        __ERC1155Base_init_unchained(_name, _symbol);\n        __MinterAccessControl_init_unchained();\n        _setBaseURI(baseURI);\n        __OperatorFilterer_init_unchained(subscribeTo);\n\n        //setting default approver for transferProxies\n        _setDefaultApproval(transferProxy, true);\n        _setDefaultApproval(lazyTransferProxy, true);\n    }\n\n    function mintAndTransfer(LibERC1155LazyMint.Mint1155Data memory data, address to, uint256 _amount) public override {\n        if (isPrivate){\n          require(owner() == data.creators[0].account || isMinter(data.creators[0].account), \"not owner or minter\");\n        }\n        super.mintAndTransfer(data, to, _amount);\n    }\n}\n",
  "sourcePath": "@rarible/tokens/contracts/erc-1155/ERC1155Rarible.sol",
  "compiler": {
    "name": "solc",
    "version": "0.7.6+commit.7338295f.Emscripten.clang"
  },
  "schemaVersion": "3.4.3",
  "updatedAt": "2023-09-14T13:22:37.667Z",
  "networkType": "ethereum",
  "devdoc": {
    "kind": "dev",
    "methods": {
      "addMinter(address)": {
        "details": "Add `minter` to the list of allowed minters."
      },
      "addMinters(address[])": {
        "details": "Add `minters` to the list of allowed minters."
      },
      "balanceOf(address,uint256)": {
        "details": "See {IERC1155-balanceOf}. Requirements: - `account` cannot be the zero address."
      },
      "balanceOfBatch(address[],uint256[])": {
        "details": "See {IERC1155-balanceOfBatch}. Requirements: - `accounts` and `ids` must have the same length."
      },
      "baseURI()": {
        "details": "Returns the base URI set via {_setBaseURI}. This will be automatically added as a prefix in {tokenURI} to each token's URI, or to the token ID if no specific URI is set for that token ID."
      },
      "isMinter(address)": {
        "details": "Returns `true` if `account` has been granted to minters."
      },
      "owner()": {
        "details": "Returns the address of the current owner."
      },
      "removeMinter(address)": {
        "details": "Revoke `_minter` from the list of allowed minters."
      },
      "renounceOwnership()": {
        "details": "Leaves the contract without owner. It will not be possible to call `onlyOwner` functions anymore. Can only be called by the current owner. NOTE: Renouncing ownership will leave the contract without an owner, thereby removing any functionality that is only available to the owner."
      },
      "safeBatchTransferFrom(address,address,uint256[],uint256[],bytes)": {
        "details": "See {IERC1155-safeBatchTransferFrom}.      In this example the added modifier ensures that the operator is allowed by the OperatorFilterRegistry."
      },
      "safeTransferFrom(address,address,uint256,uint256,bytes)": {
        "details": "See {IERC1155-safeTransferFrom}.      In this example the added modifier ensures that the operator is allowed by the OperatorFilterRegistry."
      },
      "setApprovalForAll(address,bool)": {
        "details": "See {IERC1155-setApprovalForAll}.      In this example the added modifier ensures that the operator is allowed by the OperatorFilterRegistry."
      },
      "transferOwnership(address)": {
        "details": "Transfers ownership of the contract to a new account (`newOwner`). Can only be called by the current owner."
      }
    },
    "version": 1
  },
  "userdoc": {
    "kind": "user",
    "methods": {},
    "version": 1
  }
}