{
  "contractName": "ERC1155Rarible",
  "abi": [
    {
      "anonymous": false,
      "inputs": [
        {
          "indexed": true,
          "internalType": "address",
          "name": "account",
          "type": "address"
        },
        {
          "indexed": true,
          "internalType": "address",
          "name": "operator",
          "type": "address"
        },
        {
          "indexed": false,
          "internalType": "bool",
          "name": "approved",
          "type": "bool"
        }
      ],
      "name": "ApprovalForAll",
      "type": "event"
    },
    {
      "anonymous": false,
      "inputs": [
        {
          "indexed": false,
          "internalType": "address",
          "name": "owner",
          "type": "address"
        },
        {
          "indexed": false,
          "internalType": "string",
          "name": "name",
          "type": "string"
        },
        {
          "indexed": false,
          "internalType": "string",
          "name": "symbol",
          "type": "string"
        }
      ],
      "name": "CreateERC1155Rarible",
      "type": "event"
    },
    {
      "anonymous": false,
      "inputs": [
        {
          "indexed": false,
          "internalType": "address",
          "name": "owner",
          "type": "address"
        },
        {
          "indexed": false,
          "internalType": "string",
          "name": "name",
          "type": "string"
        },
        {
          "indexed": false,
          "internalType": "string",
          "name": "symbol",
          "type": "string"
        }
      ],
      "name": "CreateERC1155RaribleUser",
      "type": "event"
    },
    {
      "anonymous": false,
      "inputs": [
        {
          "indexed": false,
          "internalType": "uint256",
          "name": "tokenId",
          "type": "uint256"
        },
        {
          "components": [
            {
              "internalType": "address payable",
              "name": "account",
              "type": "address"
            },
            {
              "internalType": "uint96",
              "name": "value",
              "type": "uint96"
            }
          ],
          "indexed": false,
          "internalType": "struct LibPart.Part[]",
          "name": "creators",
          "type": "tuple[]"
        }
      ],
      "name": "Creators",
      "type": "event"
    },
    {
      "anonymous": false,
      "inputs": [
        {
          "indexed": true,
          "internalType": "address",
          "name": "operator",
          "type": "address"
        },
        {
          "indexed": false,
          "internalType": "bool",
          "name": "hasApproval",
          "type": "bool"
        }
      ],
      "name": "DefaultApproval",
      "type": "event"
    },
    {
      "anonymous": false,
      "inputs": [
        {
          "indexed": true,
          "internalType": "address",
          "name": "previousOwner",
          "type": "address"
        },
        {
          "indexed": true,
          "internalType": "address",
          "name": "newOwner",
          "type": "address"
        }
      ],
      "name": "OwnershipTransferred",
      "type": "event"
    },
    {
      "anonymous": false,
      "inputs": [
        {
          "indexed": false,
          "internalType": "uint256",
          "name": "tokenId",
          "type": "uint256"
        },
        {
          "components": [
            {
              "internalType": "address payable",
              "name": "account",
              "type": "address"
            },
            {
              "internalType": "uint96",
              "name": "value",
              "type": "uint96"
            }
          ],
          "indexed": false,
          "internalType": "struct LibPart.Part[]",
          "name": "royalties",
          "type": "tuple[]"
        }
      ],
      "name": "RoyaltiesSet",
      "type": "event"
    },
    {
      "anonymous": false,
      "inputs": [
        {
          "indexed": false,
          "internalType": "uint256",
          "name": "tokenId",
          "type": "uint256"
        },
        {
          "indexed": false,
          "internalType": "uint256",
          "name": "value",
          "type": "uint256"
        }
      ],
      "name": "Supply",
      "type": "event"
    },
    {
      "anonymous": false,
      "inputs": [
        {
          "indexed": true,
          "internalType": "address",
          "name": "operator",
          "type": "address"
        },
        {
          "indexed": true,
          "internalType": "address",
          "name": "from",
          "type": "address"
        },
        {
          "indexed": true,
          "internalType": "address",
          "name": "to",
          "type": "address"
        },
        {
          "indexed": false,
          "internalType": "uint256[]",
          "name": "ids",
          "type": "uint256[]"
        },
        {
          "indexed": false,
          "internalType": "uint256[]",
          "name": "values",
          "type": "uint256[]"
        }
      ],
      "name": "TransferBatch",
      "type": "event"
    },
    {
      "anonymous": false,
      "inputs": [
        {
          "indexed": true,
          "internalType": "address",
          "name": "operator",
          "type": "address"
        },
        {
          "indexed": true,
          "internalType": "address",
          "name": "from",
          "type": "address"
        },
        {
          "indexed": true,
          "internalType": "address",
          "name": "to",
          "type": "address"
        },
        {
          "indexed": false,
          "internalType": "uint256",
          "name": "id",
          "type": "uint256"
        },
        {
          "indexed": false,
          "internalType": "uint256",
          "name": "value",
          "type": "uint256"
        }
      ],
      "name": "TransferSingle",
      "type": "event"
    },
    {
      "anonymous": false,
      "inputs": [
        {
          "indexed": false,
          "internalType": "string",
          "name": "value",
          "type": "string"
        },
        {
          "indexed": true,
          "internalType": "uint256",
          "name": "id",
          "type": "uint256"
        }
      ],
      "name": "URI",
      "type": "event"
    },
    {
      "inputs": [
        {
          "internalType": "address",
          "name": "account",
          "type": "address"
        },
        {
          "internalType": "uint256",
          "name": "id",
          "type": "uint256"
        }
      ],
      "name": "balanceOf",
      "outputs": [
        {
          "internalType": "uint256",
          "name": "",
          "type": "uint256"
        }
      ],
      "stateMutability": "view",
      "type": "function"
    },
    {
      "inputs": [
        {
          "internalType": "address[]",
          "name": "accounts",
          "type": "address[]"
        },
        {
          "internalType": "uint256[]",
          "name": "ids",
          "type": "uint256[]"
        }
      ],
      "name": "balanceOfBatch",
      "outputs": [
        {
          "internalType": "uint256[]",
          "name": "",
          "type": "uint256[]"
        }
      ],
      "stateMutability": "view",
      "type": "function"
    },
    {
      "inputs": [],
      "name": "baseURI",
      "outputs": [
        {
          "internalType": "string",
          "name": "",
          "type": "string"
        }
      ],
      "stateMutability": "view",
      "type": "function"
    },
    {
      "inputs": [
        {
          "internalType": "address",
          "name": "account",
          "type": "address"
        },
        {
          "internalType": "uint256",
          "name": "id",
          "type": "uint256"
        },
        {
          "internalType": "uint256",
          "name": "value",
          "type": "uint256"
        }
      ],
      "name": "burn",
      "outputs": [],
      "stateMutability": "nonpayable",
      "type": "function"
    },
    {
      "inputs": [
        {
          "internalType": "address",
          "name": "account",
          "type": "address"
        },
        {
          "internalType": "uint256[]",
          "name": "ids",
          "type": "uint256[]"
        },
        {
          "internalType": "uint256[]",
          "name": "values",
          "type": "uint256[]"
        }
      ],
      "name": "burnBatch",
      "outputs": [],
      "stateMutability": "nonpayable",
      "type": "function"
    },
    {
      "inputs": [],
      "name": "contractURI",
      "outputs": [
        {
          "internalType": "string",
          "name": "",
          "type": "string"
        }
      ],
      "stateMutability": "view",
      "type": "function"
    },
    {
      "inputs": [
        {
          "internalType": "uint256",
          "name": "",
          "type": "uint256"
        },
        {
          "internalType": "uint256",
          "name": "",
          "type": "uint256"
        }
      ],
      "name": "creators",
      "outputs": [
        {
          "internalType": "address payable",
          "name": "account",
          "type": "address"
        },
        {
          "internalType": "uint96",
          "name": "value",
          "type": "uint96"
        }
      ],
      "stateMutability": "view",
      "type": "function"
    },
    {
      "inputs": [
        {
          "internalType": "uint256",
          "name": "_id",
          "type": "uint256"
        }
      ],
      "name": "getCreators",
      "outputs": [
        {
          "components": [
            {
              "internalType": "address payable",
              "name": "account",
              "type": "address"
            },
            {
              "internalType": "uint96",
              "name": "value",
              "type": "uint96"
            }
          ],
          "internalType": "struct LibPart.Part[]",
          "name": "",
          "type": "tuple[]"
        }
      ],
      "stateMutability": "view",
      "type": "function"
    },
    {
      "inputs": [
        {
          "internalType": "uint256",
          "name": "id",
          "type": "uint256"
        }
      ],
      "name": "getRaribleV2Royalties",
      "outputs": [
        {
          "components": [
            {
              "internalType": "address payable",
              "name": "account",
              "type": "address"
            },
            {
              "internalType": "uint96",
              "name": "value",
              "type": "uint96"
            }
          ],
          "internalType": "struct LibPart.Part[]",
          "name": "",
          "type": "tuple[]"
        }
      ],
      "stateMutability": "view",
      "type": "function"
    },
    {
      "inputs": [
        {
          "internalType": "address",
          "name": "_owner",
          "type": "address"
        },
        {
          "internalType": "address",
          "name": "_operator",
          "type": "address"
        }
      ],
      "name": "isApprovedForAll",
      "outputs": [
        {
          "internalType": "bool",
          "name": "",
          "type": "bool"
        }
      ],
      "stateMutability": "view",
      "type": "function"
    },
    {
      "inputs": [],
      "name": "name",
      "outputs": [
        {
          "internalType": "string",
          "name": "",
          "type": "string"
        }
      ],
      "stateMutability": "view",
      "type": "function"
    },
    {
      "inputs": [],
      "name": "owner",
      "outputs": [
        {
          "internalType": "address",
          "name": "",
          "type": "address"
        }
      ],
      "stateMutability": "view",
      "type": "function"
    },
    {
      "inputs": [],
      "name": "renounceOwnership",
      "outputs": [],
      "stateMutability": "nonpayable",
      "type": "function"
    },
    {
      "inputs": [
        {
          "internalType": "address",
          "name": "from",
          "type": "address"
        },
        {
          "internalType": "address",
          "name": "to",
          "type": "address"
        },
        {
          "internalType": "uint256[]",
          "name": "ids",
          "type": "uint256[]"
        },
        {
          "internalType": "uint256[]",
          "name": "amounts",
          "type": "uint256[]"
        },
        {
          "internalType": "bytes",
          "name": "data",
          "type": "bytes"
        }
      ],
      "name": "safeBatchTransferFrom",
      "outputs": [],
      "stateMutability": "nonpayable",
      "type": "function"
    },
    {
      "inputs": [
        {
          "internalType": "address",
          "name": "from",
          "type": "address"
        },
        {
          "internalType": "address",
          "name": "to",
          "type": "address"
        },
        {
          "internalType": "uint256",
          "name": "id",
          "type": "uint256"
        },
        {
          "internalType": "uint256",
          "name": "amount",
          "type": "uint256"
        },
        {
          "internalType": "bytes",
          "name": "data",
          "type": "bytes"
        }
      ],
      "name": "safeTransferFrom",
      "outputs": [],
      "stateMutability": "nonpayable",
      "type": "function"
    },
    {
      "inputs": [
        {
          "internalType": "address",
          "name": "operator",
          "type": "address"
        },
        {
          "internalType": "bool",
          "name": "approved",
          "type": "bool"
        }
      ],
      "name": "setApprovalForAll",
      "outputs": [],
      "stateMutability": "nonpayable",
      "type": "function"
    },
    {
      "inputs": [
        {
          "internalType": "bytes4",
          "name": "interfaceId",
          "type": "bytes4"
        }
      ],
      "name": "supportsInterface",
      "outputs": [
        {
          "internalType": "bool",
          "name": "",
          "type": "bool"
        }
      ],
      "stateMutability": "view",
      "type": "function"
    },
    {
      "inputs": [],
      "name": "symbol",
      "outputs": [
        {
          "internalType": "string",
          "name": "",
          "type": "string"
        }
      ],
      "stateMutability": "view",
      "type": "function"
    },
    {
      "inputs": [
        {
          "components": [
            {
              "internalType": "uint256",
              "name": "tokenId",
              "type": "uint256"
            },
            {
              "internalType": "string",
              "name": "tokenURI",
              "type": "string"
            },
            {
              "internalType": "uint256",
              "name": "supply",
              "type": "uint256"
            },
            {
              "components": [
                {
                  "internalType": "address payable",
                  "name": "account",
                  "type": "address"
                },
                {
                  "internalType": "uint96",
                  "name": "value",
                  "type": "uint96"
                }
              ],
              "internalType": "struct LibPart.Part[]",
              "name": "creators",
              "type": "tuple[]"
            },
            {
              "components": [
                {
                  "internalType": "address payable",
                  "name": "account",
                  "type": "address"
                },
                {
                  "internalType": "uint96",
                  "name": "value",
                  "type": "uint96"
                }
              ],
              "internalType": "struct LibPart.Part[]",
              "name": "royalties",
              "type": "tuple[]"
            },
            {
              "internalType": "bytes[]",
              "name": "signatures",
              "type": "bytes[]"
            }
          ],
          "internalType": "struct LibERC1155LazyMint.Mint1155Data",
          "name": "data",
          "type": "tuple"
        },
        {
          "internalType": "address",
          "name": "from",
          "type": "address"
        },
        {
          "internalType": "address",
          "name": "to",
          "type": "address"
        },
        {
          "internalType": "uint256",
          "name": "amount",
          "type": "uint256"
        }
      ],
      "name": "transferFromOrMint",
      "outputs": [],
      "stateMutability": "nonpayable",
      "type": "function"
    },
    {
      "inputs": [
        {
          "internalType": "address",
          "name": "newOwner",
          "type": "address"
        }
      ],
      "name": "transferOwnership",
      "outputs": [],
      "stateMutability": "nonpayable",
      "type": "function"
    },
    {
      "inputs": [
        {
          "internalType": "uint256",
          "name": "_id",
          "type": "uint256"
        },
        {
          "internalType": "address",
          "name": "_from",
          "type": "address"
        },
        {
          "internalType": "address",
          "name": "_to",
          "type": "address"
        }
      ],
      "name": "updateAccount",
      "outputs": [],
      "stateMutability": "nonpayable",
      "type": "function"
    },
    {
      "inputs": [
        {
          "internalType": "uint256",
          "name": "id",
          "type": "uint256"
        }
      ],
      "name": "uri",
      "outputs": [
        {
          "internalType": "string",
          "name": "",
          "type": "string"
        }
      ],
      "stateMutability": "view",
      "type": "function"
    },
    {
      "inputs": [
        {
          "internalType": "string",
          "name": "_name",
          "type": "string"
        },
        {
          "internalType": "string",
          "name": "_symbol",
          "type": "string"
        },
        {
          "internalType": "string",
          "name": "baseURI",
          "type": "string"
        },
        {
          "internalType": "string",
          "name": "contractURI",
          "type": "string"
        },
        {
          "internalType": "address[]",
          "name": "operators",
          "type": "address[]"
        },
        {
          "internalType": "address",
          "name": "transferProxy",
          "type": "address"
        },
        {
          "internalType": "address",
          "name": "lazyTransferProxy",
          "type": "address"
        }
      ],
      "name": "__ERC1155RaribleUser_init",
      "outputs": [],
      "stateMutability": "nonpayable",
      "type": "function"
    },
    {
      "inputs": [
        {
          "internalType": "string",
          "name": "_name",
          "type": "string"
        },
        {
          "internalType": "string",
          "name": "_symbol",
          "type": "string"
        },
        {
          "internalType": "string",
          "name": "baseURI",
          "type": "string"
        },
        {
          "internalType": "string",
          "name": "contractURI",
          "type": "string"
        },
        {
          "internalType": "address",
          "name": "transferProxy",
          "type": "address"
        },
        {
          "internalType": "address",
          "name": "lazyTransferProxy",
          "type": "address"
        }
      ],
      "name": "__ERC1155Rarible_init",
      "outputs": [],
      "stateMutability": "nonpayable",
      "type": "function"
    },
    {
      "inputs": [
        {
          "components": [
            {
              "internalType": "uint256",
              "name": "tokenId",
              "type": "uint256"
            },
            {
              "internalType": "string",
              "name": "tokenURI",
              "type": "string"
            },
            {
              "internalType": "uint256",
              "name": "supply",
              "type": "uint256"
            },
            {
              "components": [
                {
                  "internalType": "address payable",
                  "name": "account",
                  "type": "address"
                },
                {
                  "internalType": "uint96",
                  "name": "value",
                  "type": "uint96"
                }
              ],
              "internalType": "struct LibPart.Part[]",
              "name": "creators",
              "type": "tuple[]"
            },
            {
              "components": [
                {
                  "internalType": "address payable",
                  "name": "account",
                  "type": "address"
                },
                {
                  "internalType": "uint96",
                  "name": "value",
                  "type": "uint96"
                }
              ],
              "internalType": "struct LibPart.Part[]",
              "name": "royalties",
              "type": "tuple[]"
            },
            {
              "internalType": "bytes[]",
              "name": "signatures",
              "type": "bytes[]"
            }
          ],
          "internalType": "struct LibERC1155LazyMint.Mint1155Data",
          "name": "data",
          "type": "tuple"
        },
        {
          "internalType": "address",
          "name": "to",
          "type": "address"
        },
        {
          "internalType": "uint256",
          "name": "_amount",
          "type": "uint256"
        }
      ],
      "name": "mintAndTransfer",
      "outputs": [],
      "stateMutability": "nonpayable",
      "type": "function"
    }
  ],
  "bytecode": "0x608060405234801561001057600080fd5b50614ecf806100206000396000f3fe608060405234801561001057600080fd5b50600436106101725760003560e01c8063891be974116100de578063e07f231911610097578063f242432a11610071578063f242432a1461032b578063f2fde38b1461033e578063f5298aca14610351578063ffc4e0a71461036457610172565b8063e07f2319146102fd578063e8a3d48514610310578063e985e9c51461031857610172565b8063891be974146102795780638da5cb5b1461029957806395d89b41146102ae57806398d0b4fb146102b6578063a22cb465146102d7578063cad96cca146102ea57610172565b80632eb2c2d6116101305780632eb2c2d6146102105780634e1273f41461022357806361e05459146102435780636b20c454146102565780636c0360eb14610269578063715018a61461027157610172565b8062fdd58e1461017757806301ffc9a7146101a057806306fdde03146101c05780630e89341c146101d55780630eaead67146101e8578063173c43d2146101fd575b600080fd5b61018a6101853660046142f6565b610377565b6040516101979190614a93565b60405180910390f35b6101b36101ae3660046143b5565b6103e9565b604051610197919061482d565b6101c86103fc565b6040516101979190614838565b6101c86101e336600461464e565b61048b565b6101fb6101f63660046145f7565b610496565b005b6101fb61020b3660046143dd565b61050f565b6101fb61021e366004614144565b610612565b610236610231366004614355565b610910565b60405161019791906147e9565b6101fb6102513660046144a4565b6109fb565b6101fb610264366004614253565b610b35565b6101c8610ba9565b6101fb610c41565b61028c61028736600461464e565b610cff565b60405161019791906147d6565b6102a1610d8f565b604051610197919061476a565b6101c8610d9e565b6102c96102c43660046146a7565b610dfa565b6040516101979291906147b4565b6101fb6102e53660046142c5565b610e44565b61028c6102f836600461464e565b610f33565b6101fb61030b366004614666565b610fae565b6101c8610ff1565b6101b361032636600461410c565b61104d565b6101fb6103393660046141ed565b611060565b6101fb61034c3660046140f0565b611219565b6101fb61035f366004614321565b61132e565b6101fb610372366004614590565b6113a2565b60006001600160a01b0383166103be5760405162461bcd60e51b815260040180806020018281038252602b815260200180614c47602b913960400191505060405180910390fd5b5060008181526097602090815260408083206001600160a01b03861684529091529020545b92915050565b60006103f4826113fd565b90505b919050565b610262805460408051602060026001851615610100026000190190941693909304601f810184900484028201840190925281815292918301828280156104835780601f1061045857610100808354040283529160200191610483565b820191906000526020600020905b81548152906001019060200180831161046657829003601f168201915b505050505081565b60606103f482611481565b6102965460ff16156104ff5782606001516000815181106104b357fe5b6020026020010151600001516001600160a01b03166104d0610d8f565b6001600160a01b0316146104ff5760405162461bcd60e51b81526004016104f69061484b565b60405180910390fd5b61050a838383611617565b505050565b600054610100900460ff16806105285750610528611914565b80610536575060005460ff16155b6105715760405162461bcd60e51b815260040180806020018281038252602e815260200180614d5e602e913960400191505060405180910390fd5b600054610100900460ff1615801561059c576000805460ff1961ff0019909116610100171660011790555b6105aa878787878787611925565b610296805460ff191690557fcc215b7682459c30faa0e854780165d503a7d62d22a9aaaad6334585dc63343e6105de6119a7565b88886040516105ef9392919061477e565b60405180910390a18015610609576000805461ff00191690555b50505050505050565b81518351146106525760405162461bcd60e51b8152600401808060200182810382526028815260200180614e726028913960400191505060405180910390fd5b6001600160a01b0384166106975760405162461bcd60e51b8152600401808060200182810382526025815260200180614d076025913960400191505060405180910390fd5b61069f6119a7565b6001600160a01b0316856001600160a01b031614806106c557506106c5856103266119a7565b6107005760405162461bcd60e51b8152600401808060200182810382526032815260200180614d2c6032913960400191505060405180910390fd5b600061070a6119a7565b905061071a818787878787610908565b60005b845181101561082057600085828151811061073457fe5b60200260200101519050600085838151811061074c57fe5b602002602001015190506107b9816040518060600160405280602a8152602001614dd1602a91396097600086815260200190815260200160002060008d6001600160a01b03166001600160a01b03168152602001908152602001600020546119ab9092919063ffffffff16565b60008381526097602090815260408083206001600160a01b038e811685529252808320939093558a16815220546107f09082611a42565b60009283526097602090815260408085206001600160a01b038c168652909152909220919091555060010161071d565b50846001600160a01b0316866001600160a01b0316826001600160a01b03167f4a39dc06d4c0dbc64b70af90fd698a233a518aa5d07e595d983b8c0526c8f7fb8787604051808060200180602001838103835285818151815260200191508051906020019060200280838360005b838110156108a657818101518382015260200161088e565b50505050905001838103825284818151815260200191508051906020019060200280838360005b838110156108e55781810151838201526020016108cd565b5050505090500194505050505060405180910390a4610908818787878787611a9c565b505050505050565b606081518351146109525760405162461bcd60e51b8152600401808060200182810382526029815260200180614e496029913960400191505060405180910390fd5b600083516001600160401b038111801561096b57600080fd5b50604051908082528060200260200182016040528015610995578160200160208202803683370190505b50905060005b84518110156109f3576109d48582815181106109b357fe5b60200260200101518583815181106109c757fe5b6020026020010151610377565b8282815181106109e057fe5b602090810291909101015260010161099b565b509392505050565b600054610100900460ff1680610a145750610a14611914565b80610a22575060005460ff16155b610a5d5760405162461bcd60e51b815260040180806020018281038252602e815260200180614d5e602e913960400191505060405180910390fd5b600054610100900460ff16158015610a88576000805460ff1961ff0019909116610100171660011790555b610a96888888888787611925565b60005b8451811015610ac857610ac0858281518110610ab157fe5b60200260200101516001610e44565b600101610a99565b50610296805460ff191660011790557f7da6bc204c8c4856a6aff786a6cb81c59477c782191dc51837d644a8ad50f2cc610b006119a7565b8989604051610b119392919061477e565b60405180910390a18015610b2b576000805461ff00191690555b5050505050505050565b610b3d6119a7565b6001600160a01b0316836001600160a01b03161480610b635750610b63836103266119a7565b610b9e5760405162461bcd60e51b8152600401808060200182810382526029815260200180614cbc6029913960400191505060405180910390fd5b61050a838383611d12565b61012f8054604080516020601f6002600019610100600188161502019095169490940493840181900481028201810190925282815260609390929091830182828015610c365780601f10610c0b57610100808354040283529160200191610c36565b820191906000526020600020905b815481529060010190602001808311610c1957829003601f168201915b505050505090505b90565b610c496119a7565b6001600160a01b0316610c5a610d8f565b6001600160a01b031614610cb5576040805162461bcd60e51b815260206004820181905260248201527f4f776e61626c653a2063616c6c6572206973206e6f7420746865206f776e6572604482015290519081900360640190fd5b6033546040516000916001600160a01b0316907f8be0079c531659141344cd1fd0a4f28419497f9722a3daafe3b4186f6b6457e0908390a3603380546001600160a01b0319169055565b60606101fb6000838152602001908152602001600020805480602002602001604051908101604052809291908181526020016000905b82821015610d8457600084815260209081902060408051808201909152908401546001600160a01b0381168252600160a01b90046001600160601b031681830152825260019092019101610d35565b505050509050919050565b6033546001600160a01b031690565b610263805460408051602060026001851615610100026000190190941693909304601f810184900484028201840190925281815292918301828280156104835780601f1061045857610100808354040283529160200191610483565b6101fb6020528160005260406000208181548110610e1757600080fd5b6000918252602090912001546001600160a01b0381169250600160a01b90046001600160601b0316905082565b816001600160a01b0316610e566119a7565b6001600160a01b03161415610e9c5760405162461bcd60e51b8152600401808060200182810382526029815260200180614e206029913960400191505060405180910390fd5b8060986000610ea96119a7565b6001600160a01b03908116825260208083019390935260409182016000908120918716808252919093529120805460ff191692151592909217909155610eed6119a7565b6001600160a01b03167f17307eab39ab6107e8899845ad3d59bd9653f200f220920489ca2b5937696c318360405180821515815260200191505060405180910390a35050565b60008181526101fa60209081526040808320805482518185028101850190935280835260609492939192909184018215610d8457600084815260209081902060408051808201909152908401546001600160a01b0381168252600160a01b90046001600160601b031681830152825260019092019101610d35565b816001600160a01b0316610fc06119a7565b6001600160a01b031614610fe65760405162461bcd60e51b81526004016104f69061490c565b61050a838383611f80565b610230805460408051602060026001851615610100026000190190941693909304601f810184900484028201840190925281815292918301828280156104835780601f1061045857610100808354040283529160200191610483565b6000611059838361202c565b9392505050565b6001600160a01b0384166110a55760405162461bcd60e51b8152600401808060200182810382526025815260200180614d076025913960400191505060405180910390fd5b6110ad6119a7565b6001600160a01b0316856001600160a01b031614806110d357506110d3856103266119a7565b61110e5760405162461bcd60e51b8152600401808060200182810382526029815260200180614cbc6029913960400191505060405180910390fd5b60006111186119a7565b905061113881878761112988612058565b61113288612058565b87610908565b61117f836040518060600160405280602a8152602001614dd1602a913960008781526097602090815260408083206001600160a01b038d16845290915290205491906119ab565b60008581526097602090815260408083206001600160a01b038b811685529252808320939093558716815220546111b69084611a42565b60008581526097602090815260408083206001600160a01b03808b168086529184529382902094909455805188815291820187905280518a841693861692600080516020614c2783398151915292908290030190a461090881878787878761209d565b6112216119a7565b6001600160a01b0316611232610d8f565b6001600160a01b03161461128d576040805162461bcd60e51b815260206004820181905260248201527f4f776e61626c653a2063616c6c6572206973206e6f7420746865206f776e6572604482015290519081900360640190fd5b6001600160a01b0381166112d25760405162461bcd60e51b8152600401808060200182810382526026815260200180614c726026913960400191505060405180910390fd5b6033546040516001600160a01b038084169216907f8be0079c531659141344cd1fd0a4f28419497f9722a3daafe3b4186f6b6457e090600090a3603380546001600160a01b0319166001600160a01b0392909216919091179055565b6113366119a7565b6001600160a01b0316836001600160a01b0316148061135c575061135c836103266119a7565b6113975760405162461bcd60e51b8152600401808060200182810382526029815260200180614cbc6029913960400191505060405180910390fd5b61050a83838361220e565b60006113b2848660000151610377565b90508181156113ec5782808310156113c75750815b6113e7868689600001518460405180602001604052806000815250611060565b830390505b801561090857610908868583610496565b60006001600160e01b03198216636db15a0f60e01b148061142e57506001600160e01b0319821663656cb66560e11b145b8061144957506001600160e01b031982166301ffc9a760e01b145b8061146457506001600160e01b03198216636cdb3d1360e11b145b806103f45750506001600160e01b0319166303a24d0760e21b1490565b600081815261012e6020908152604080832080548251601f60026000196101006001861615020190931692909204918201859004850281018501909352808352606094938301828280156115165780601f106114eb57610100808354040283529160200191611516565b820191906000526020600020905b8154815290600101906020018083116114f957829003601f168201915b505050505090506000611527610ba9565b905080516000141561153b575090506103f7565b8151156115555761154c818361232f565b925050506103f7565b8061155f85612514565b6040516020018083805190602001908083835b602083106115915780518252601f199092019160209182019101611572565b51815160209384036101000a600019018019909216911617905285519190930192850191508083835b602083106115d95780518252601f1990920191602091820191016115ba565b6001836020036101000a0380198251168184511680821785525050505050509050019250505060405160208183030381529060405292505050919050565b825160601c60006116266119a7565b9050806001600160a01b0316826001600160a01b0316148061164d575061164d828261104d565b6116695760405162461bcd60e51b81526004016104f69061495b565b600083116116895760405162461bcd60e51b81526004016104f690614931565b845160009081526101fc60205260409020546117f25784606001516000815181106116b057fe5b6020026020010151600001516001600160a01b0316826001600160a01b0316146116ec5760405162461bcd60e51b81526004016104f6906148e1565b60008560400151116117105760405162461bcd60e51b81526004016104f690614882565b8460a00151518560600151511461172657600080fd5b6000611731866125ee565b905060005b8660600151518110156117a75760008760600151828151811061175557fe5b6020026020010151600001519050836001600160a01b0316816001600160a01b03161461179e5761179e81848a60a00151858151811061179157fe5b6020026020010151612841565b50600101611736565b506117ba8660000151876040015161284c565b6117cc866000015187608001516128b6565b6117de86600001518760600151612aa5565b6117f086600001518760200151612c54565b505b6118118486600001518560405180602001604052806000815250612d18565b836001600160a01b0316826001600160a01b0316146118c257816001600160a01b031660006001600160a01b0316826001600160a01b0316600080516020614c2783398151915288600001518760405161186c929190614abd565b60405180910390a4836001600160a01b0316826001600160a01b0316826001600160a01b0316600080516020614c278339815191528860000151876040516118b5929190614abd565b60405180910390a461190d565b836001600160a01b031660006001600160a01b0316826001600160a01b0316600080516020614c27833981519152886000015187604051611904929190614abd565b60405180910390a45b5050505050565b600061191f30612d2a565b15905090565b61192d612d30565b611935612e2a565b61193d612ecb565b611945612e2a565b61194d612f68565b61196560405180602001604052806000815250613038565b61196e83613104565b611976612e2a565b61197e6131b6565b6119888686613253565b61199184613320565b61199c826001613334565b610908816001613334565b3390565b60008184841115611a3a5760405162461bcd60e51b81526004018080602001828103825283818151815260200191508051906020019080838360005b838110156119ff5781810151838201526020016119e7565b50505050905090810190601f168015611a2c5780820380516001836020036101000a031916815260200191505b509250505060405180910390fd5b505050900390565b600082820183811015611059576040805162461bcd60e51b815260206004820152601b60248201527f536166654d6174683a206164646974696f6e206f766572666c6f770000000000604482015290519081900360640190fd5b611aae846001600160a01b0316612d2a565b1561090857836001600160a01b031663bc197c8187878686866040518663ffffffff1660e01b815260040180866001600160a01b03168152602001856001600160a01b03168152602001806020018060200180602001848103845287818151815260200191508051906020019060200280838360005b83811015611b3c578181015183820152602001611b24565b50505050905001848103835286818151815260200191508051906020019060200280838360005b83811015611b7b578181015183820152602001611b63565b50505050905001848103825285818151815260200191508051906020019080838360005b83811015611bb7578181015183820152602001611b9f565b50505050905090810190601f168015611be45780820380516001836020036101000a031916815260200191505b5098505050505050505050602060405180830381600087803b158015611c0957600080fd5b505af1925050508015611c2e57506040513d6020811015611c2957600080fd5b505160015b611cc357611c3a614b11565b80611c455750611c8c565b60405162461bcd60e51b81526020600482018181528351602484015283518493919283926044019190850190808383600083156119ff5781810151838201526020016119e7565b60405162461bcd60e51b8152600401808060200182810382526034815260200180614bcb6034913960400191505060405180910390fd5b6001600160e01b0319811663bc197c8160e01b146106095760405162461bcd60e51b8152600401808060200182810382526028815260200180614bff6028913960400191505060405180910390fd5b6001600160a01b038316611d575760405162461bcd60e51b8152600401808060200182810382526023815260200180614dae6023913960400191505060405180910390fd5b8051825114611d975760405162461bcd60e51b8152600401808060200182810382526028815260200180614e726028913960400191505060405180910390fd5b6000611da16119a7565b9050611dc181856000868660405180602001604052806000815250610908565b60005b8351811015611e9f57611e56838281518110611ddc57fe5b6020026020010151604051806060016040528060248152602001614c986024913960976000888681518110611e0d57fe5b602002602001015181526020019081526020016000206000896001600160a01b03166001600160a01b03168152602001908152602001600020546119ab9092919063ffffffff16565b60976000868481518110611e6657fe5b602090810291909101810151825281810192909252604090810160009081206001600160a01b038a168252909252902055600101611dc4565b5060006001600160a01b0316846001600160a01b0316826001600160a01b03167f4a39dc06d4c0dbc64b70af90fd698a233a518aa5d07e595d983b8c0526c8f7fb8686604051808060200180602001838103835285818151815260200191508051906020019060200280838360005b83811015611f26578181015183820152602001611f0e565b50505050905001838103825284818151815260200191508051906020019060200280838360005b83811015611f65578181015183820152602001611f4d565b5050505090500194505050505060405180910390a450505050565b60008381526101fa6020526040812054905b8181101561190d5760008581526101fa6020526040902080546001600160a01b038616919083908110611fc157fe5b6000918252602090912001546001600160a01b031614156120245760008581526101fa60205260409020805484919083908110611ffa57fe5b600091825260209091200180546001600160a01b0319166001600160a01b03929092169190911790555b600101611f92565b6001600160a01b038116600090815260c9602052604081205460ff168061105957506110598383613394565b6040805160018082528183019092526060916000919060208083019080368337019050509050828160008151811061208c57fe5b602090810291909101015292915050565b6120af846001600160a01b0316612d2a565b1561090857836001600160a01b031663f23a6e6187878686866040518663ffffffff1660e01b815260040180866001600160a01b03168152602001856001600160a01b0316815260200184815260200183815260200180602001828103825283818151815260200191508051906020019080838360005b8381101561213e578181015183820152602001612126565b50505050905090810190601f16801561216b5780820380516001836020036101000a031916815260200191505b509650505050505050602060405180830381600087803b15801561218e57600080fd5b505af19250505080156121b357506040513d60208110156121ae57600080fd5b505160015b6121bf57611c3a614b11565b6001600160e01b0319811663f23a6e6160e01b146106095760405162461bcd60e51b8152600401808060200182810382526028815260200180614bff6028913960400191505060405180910390fd5b6001600160a01b0383166122535760405162461bcd60e51b8152600401808060200182810382526023815260200180614dae6023913960400191505060405180910390fd5b600061225d6119a7565b905061228d8185600061226f87612058565b61227887612058565b60405180602001604052806000815250610908565b6122d482604051806060016040528060248152602001614c986024913960008681526097602090815260408083206001600160a01b038b16845290915290205491906119ab565b60008481526097602090815260408083206001600160a01b03808a1680865291845282852095909555815188815292830187905281519394909390861692600080516020614c2783398151915292908290030190a450505050565b805182516060918491849110156123fa5784846040516020018083805190602001908083835b602083106123745780518252601f199092019160209182019101612355565b51815160209384036101000a600019018019909216911617905285519190930192850191508083835b602083106123bc5780518252601f19909201916020918201910161239d565b6001836020036101000a03801982511681845116808217855250505050505090500192505050604051602081830303815290604052925050506103e3565b60005b825181101561250a5782818151811061241257fe5b602001015160f81c60f81b6001600160f81b03191682828151811061243357fe5b01602001516001600160f81b031916146125025785856040516020018083805190602001908083835b6020831061247b5780518252601f19909201916020918201910161245c565b51815160209384036101000a600019018019909216911617905285519190930192850191508083835b602083106124c35780518252601f1990920191602091820191016124a4565b6001836020036101000a0380198251168184511680821785525050505050509050019250505060405160208183030381529060405293505050506103e3565b6001016123fd565b5092949350505050565b60608161253957506040805180820190915260018152600360fc1b60208201526103f7565b8160005b811561255157600101600a8204915061253d565b6000816001600160401b038111801561256957600080fd5b506040519080825280601f01601f191660200182016040528015612594576020820181803683370190505b50859350905060001982015b83156125e557600a840660300160f81b828280600190039350815181106125c357fe5b60200101906001600160f81b031916908160001a905350600a840493506125a0565b50949350505050565b6000808260800151516001600160401b038111801561260c57600080fd5b50604051908082528060200260200182016040528015612636578160200160208202803683370190505b50905060005b836080015151811015612688576126698460800151828151811061265c57fe5b60200260200101516133c2565b82828151811061267557fe5b602090810291909101015260010161263c565b5060008360600151516001600160401b03811180156126a657600080fd5b506040519080825280602002602001820160405280156126d0578160200160208202803683370190505b50905060005b846060015151811015612715576126f68560600151828151811061265c57fe5b82828151811061270257fe5b60209081029190910101526001016126d6565b507ffb988707ebb338694f318760b0fd5cfe756d00a2ade251fda110b80c336a3c7f846000015185604001518660200151805190602001208460405160200180828051906020019060200280838360005b8381101561277e578181015183820152602001612766565b50505050905001915050604051602081830303815290604052805190602001208660405160200180828051906020019060200280838360005b838110156127cf5781810151838201526020016127b7565b50505050905001915050604051602081830303815290604052805190602001206040516020018087815260200186815260200185815260200184815260200183815260200182815260200196505050505050506040516020818303038152906040528051906020012092505050919050565b61050a83838361342f565b60008281526101fc60205260409020541561286657600080fd5b60008281526101fc602052604090819020829055517f5e2aa66efd74cce82b21852e317e5490d9ecc9e6bb953ae24d90851258cc2f5c906128aa9084908490614abd565b60405180910390a15050565b6000805b8251811015612a5a5760006001600160a01b03168382815181106128da57fe5b6020026020010151600001516001600160a01b03161415612942576040805162461bcd60e51b815260206004820152601b60248201527f526563697069656e742073686f756c642062652070726573656e740000000000604482015290519081900360640190fd5b82818151811061294e57fe5b6020026020010151602001516001600160601b0316600014156129b8576040805162461bcd60e51b815260206004820181905260248201527f526f79616c74792076616c75652073686f756c6420626520706f736974697665604482015290519081900360640190fd5b8281815181106129c457fe5b6020026020010151602001516001600160601b0316820191506101fa60008581526020019081526020016000208382815181106129fd57fe5b60209081029190910181015182546001818101855560009485529383902082519101805492909301516001600160601b0316600160a01b026001600160a01b039182166001600160a01b03199093169290921716179055016128ba565b506127108110612a9b5760405162461bcd60e51b8152600401808060200182810382526025815260200180614dfb6025913960400191505060405180910390fd5b61050a8383613671565b60008281526101fb6020526040812090805b8351811015612bf35760006001600160a01b0316848281518110612ad757fe5b6020026020010151600001516001600160a01b03161415612b0a5760405162461bcd60e51b81526004016104f6906149cd565b838181518110612b1657fe5b6020026020010151602001516001600160601b031660001415612b4b5760405162461bcd60e51b81526004016104f6906148ac565b82848281518110612b5857fe5b602090810291909101810151825460018101845560009384529282902081519301805491909201516001600160601b0316600160a01b026001600160a01b039384166001600160a01b0319909216919091179092169190911790558351612be990859083908110612bc557fe5b6020026020010151602001516001600160601b031683611a4290919063ffffffff16565b9150600101612ab7565b508061271014612c155760405162461bcd60e51b81526004016104f690614a45565b7f841ffb90d4cabdd1f16034f3fa831d79060febbb8167bdd54a49269365bdf78f8484604051612c46929190614a9c565b60405180910390a150505050565b600082815261012e602090815260409091208251612c7492840190613d34565b50817f6bb7ff708619ba0610cba295a58592e0451dee2622938c8755667688daf3529b612ca084611481565b6040805160208082528351818301528351919283929083019185019080838360005b83811015612cda578181015183820152602001612cc2565b50505050905090810190601f168015612d075780820380516001836020036101000a031916815260200191505b509250505060405180910390a25050565b612d24848484846136a2565b50505050565b3b151590565b600054610100900460ff1680612d495750612d49611914565b80612d57575060005460ff16155b612d925760405162461bcd60e51b815260040180806020018281038252602e815260200180614d5e602e913960400191505060405180910390fd5b600054610100900460ff16158015612dbd576000805460ff1961ff0019909116610100171660011790555b6000612dc76119a7565b603380546001600160a01b0319166001600160a01b038316908117909155604051919250906000907f8be0079c531659141344cd1fd0a4f28419497f9722a3daafe3b4186f6b6457e0908290a3508015612e27576000805461ff00191690555b50565b600054610100900460ff1680612e435750612e43611914565b80612e51575060005460ff16155b612e8c5760405162461bcd60e51b815260040180806020018281038252602e815260200180614d5e602e913960400191505060405180910390fd5b600054610100900460ff16158015612eb7576000805460ff1961ff0019909116610100171660011790555b8015612e27576000805461ff001916905550565b600054610100900460ff1680612ee45750612ee4611914565b80612ef2575060005460ff16155b612f2d5760405162461bcd60e51b815260040180806020018281038252602e815260200180614d5e602e913960400191505060405180910390fd5b600054610100900460ff16158015612f58576000805460ff1961ff0019909116610100171660011790555b612eb76301ffc9a760e01b6137b4565b600054610100900460ff1680612f815750612f81611914565b80612f8f575060005460ff16155b612fca5760405162461bcd60e51b815260040180806020018281038252602e815260200180614d5e602e913960400191505060405180910390fd5b600054610100900460ff16158015612ff5576000805460ff1961ff0019909116610100171660011790555b612eb7604051806040016040528060088152602001674d696e743131353560c01b815250604051806040016040528060018152602001603160f81b815250613838565b600054610100900460ff16806130515750613051611914565b8061305f575060005460ff16155b61309a5760405162461bcd60e51b815260040180806020018281038252602e815260200180614d5e602e913960400191505060405180910390fd5b600054610100900460ff161580156130c5576000805460ff1961ff0019909116610100171660011790555b6130ce826138fa565b6130de636cdb3d1360e11b6137b4565b6130ee6303a24d0760e21b6137b4565b8015613100576000805461ff00191690555b5050565b600054610100900460ff168061311d575061311d611914565b8061312b575060005460ff16155b6131665760405162461bcd60e51b815260040180806020018281038252602e815260200180614d5e602e913960400191505060405180910390fd5b600054610100900460ff16158015613191576000805460ff1961ff0019909116610100171660011790555b81516131a590610230906020850190613d34565b506130ee63e8a3d48560e01b6137b4565b600054610100900460ff16806131cf57506131cf611914565b806131dd575060005460ff16155b6132185760405162461bcd60e51b815260040180806020018281038252602e815260200180614d5e602e913960400191505060405180910390fd5b600054610100900460ff16158015613243576000805460ff1961ff0019909116610100171660011790555b612eb763656cb66560e11b6137b4565b600054610100900460ff168061326c575061326c611914565b8061327a575060005460ff16155b6132b55760405162461bcd60e51b815260040180806020018281038252602e815260200180614d5e602e913960400191505060405180910390fd5b600054610100900460ff161580156132e0576000805460ff1961ff0019909116610100171660011790555b82516132f490610262906020860190613d34565b50815161330990610263906020850190613d34565b50801561050a576000805461ff0019169055505050565b80516131009061012f906020840190613d34565b6001600160a01b038216600081815260c96020908152604091829020805460ff1916851515908117909155825190815291517f270dbb8ba4292910ae92862466486be25c355c837270a3d8824b36a8bc7c653b9281900390910190a25050565b6001600160a01b03918216600090815260986020908152604080832093909416825291909152205460ff1690565b8051602091820151604080517f397e04204c1e1a60ee8724b71f8244e10ab5f2e9009854d80f602bda21b59ebb818601526001600160a01b03909316838201526001600160601b039091166060808401919091528151808403909101815260809092019052805191012090565b600061343a8361390d565b90506000825160411415613455576134528284613959565b90505b846001600160a01b0316816001600160a01b03161461190d57613480856001600160a01b0316612d2a565b156135f95760408051630b135d3f60e11b808252600482018581526024830193845286516044840152865191936001600160a01b038a1693631626ba7e9388938a9390929091606490910190602085019080838360005b838110156134ef5781810151838201526020016134d7565b50505050905090810190601f16801561351c5780820380516001836020036101000a031916815260200191505b50935050505060206040518083038186803b15801561353a57600080fd5b505afa15801561354e573d6000803e3d6000fd5b505050506040513d602081101561356457600080fd5b505160408051808201909152601c81527f7369676e617475726520766572696669636174696f6e206572726f72000000006020820152916001600160e01b0319909116146135f35760405162461bcd60e51b81526020600482018181528351602484015283519092839260449091019190850190808383600083156119ff5781810151838201526020016119e7565b5061190d565b604080518082018252601c81527f7369676e617475726520766572696669636174696f6e206572726f72000000006020808301918252925162461bcd60e51b815260048101938452825160248201528251929392839260449092019190808383600083156119ff5781810151838201526020016119e7565b7f3fa96d7b6bcbfe71ef171666d84db3cf52fa2d1c8afdb1cc8e486177f208b7df82826040516128aa929190614a9c565b60008381526101fd60205260408120546136bd908490611a42565b60008581526101fc60205260409020549091508111156136ef5760405162461bcd60e51b81526004016104f6906149a3565b60008481526101fd602052604090208190556001600160a01b0385166137275760405162461bcd60e51b81526004016104f690614a04565b60006137316119a7565b90506137528160008861374389612058565b61374c89612058565b88610908565b60008581526097602090815260408083206001600160a01b038a16845290915290205461377f9085611a42565b60008681526097602090815260408083206001600160a01b038b1684529091528120919091556109089082908888888861209d565b6001600160e01b03198082161415613813576040805162461bcd60e51b815260206004820152601c60248201527f4552433136353a20696e76616c696420696e7465726661636520696400000000604482015290519081900360640190fd5b6001600160e01b0319166000908152606560205260409020805460ff19166001179055565b600054610100900460ff16806138515750613851611914565b8061385f575060005460ff16155b61389a5760405162461bcd60e51b815260040180806020018281038252602e815260200180614d5e602e913960400191505060405180910390fd5b600054610100900460ff161580156138c5576000805460ff1961ff0019909116610100171660011790555b82516020808501919091208351918401919091206101629190915561016355801561050a576000805461ff0019169055505050565b8051613100906099906020840190613d34565b60006139176139d9565b82604051602001808061190160f01b81525060020183815260200182815260200192505050604051602081830303815290604052805190602001209050919050565b600081516041146139b1576040805162461bcd60e51b815260206004820152601f60248201527f45434453413a20696e76616c6964207369676e6174757265206c656e67746800604482015290519081900360640190fd5b60208201516040830151606084015160001a6139cf86828585613a19565b9695505050505050565b6000613a147f8b73c3c69bb8fe3d512ecc4cf759cc79239f7b179b0ffacaa9a75d522b39400f613a07613c6f565b613a0f613c76565b613c7d565b905090565b60007f7fffffffffffffffffffffffffffffff5d576e7357a4501ddfe92f46681b20a0821115613a7a5760405162461bcd60e51b8152600401808060200182810382526022815260200180614ce56022913960400191505060405180910390fd5b6000601e8560ff161115613b54576004850360ff16601b1480613aa357506004850360ff16601c145b613ade5760405162461bcd60e51b8152600401808060200182810382526022815260200180614d8c6022913960400191505060405180910390fd5b6001613ae987613cdf565b60048703868660405160008152602001604052604051808581526020018460ff1681526020018381526020018281526020019450505050506020604051602081039080840390855afa158015613b43573d6000803e3d6000fd5b505050602060405103519050613c0b565b8460ff16601b1480613b6957508460ff16601c145b613ba45760405162461bcd60e51b8152600401808060200182810382526022815260200180614d8c6022913960400191505060405180910390fd5b60018686868660405160008152602001604052604051808581526020018460ff1681526020018381526020018281526020019450505050506020604051602081039080840390855afa158015613bfe573d6000803e3d6000fd5b5050506020604051035190505b6001600160a01b038116613c66576040805162461bcd60e51b815260206004820152601860248201527f45434453413a20696e76616c6964207369676e61747572650000000000000000604482015290519081900360640190fd5b95945050505050565b6101625490565b6101635490565b6000838383613c8a613d30565b3060405160200180868152602001858152602001848152602001838152602001826001600160a01b03168152602001955050505050506040516020818303038152906040528051906020012090509392505050565b604080517f19457468657265756d205369676e6564204d6573736167653a0a333200000000602080830191909152603c8083019490945282518083039094018452605c909101909152815191012090565b4690565b828054600181600116156101000203166002900490600052602060002090601f016020900481019282613d6a5760008555613db0565b82601f10613d8357805160ff1916838001178555613db0565b82800160010185558215613db0579182015b82811115613db0578251825591602001919060010190613d95565b50613dbc929150613dc0565b5090565b5b80821115613dbc5760008155600101613dc1565b80356103f781614bb5565b600082601f830112613df0578081fd5b81356020613e05613e0083614aee565b614acb565b8281528181019085830183850287018401881015613e21578586fd5b855b85811015613e48578135613e3681614bb5565b84529284019290840190600101613e23565b5090979650505050505050565b600082601f830112613e65578081fd5b81356020613e75613e0083614aee565b82815281810190858301855b85811015613e4857613e98898684358b0101613fbf565b84529284019290840190600101613e81565b600082601f830112613eba578081fd5b81356020613eca613e0083614aee565b82815281810190858301604080860288018501891015613ee8578687fd5b865b86811015613f575781838b031215613f00578788fd5b81518281018181106001600160401b0382111715613f1a57fe5b83528335613f2781614bb5565b8152838701356001600160601b0381168114613f4157898afd5b8188015285529385019391810191600101613eea565b509198975050505050505050565b600082601f830112613f75578081fd5b81356020613f85613e0083614aee565b8281528181019085830183850287018401881015613fa1578586fd5b855b85811015613e4857813584529284019290840190600101613fa3565b600082601f830112613fcf578081fd5b81356001600160401b03811115613fe257fe5b613ff5601f8201601f1916602001614acb565b818152846020838601011115614009578283fd5b816020850160208301379081016020019190915292915050565b600060c08284031215614034578081fd5b61403e60c0614acb565b90508135815260208201356001600160401b038082111561405e57600080fd5b61406a85838601613fbf565b602084015260408401356040840152606084013591508082111561408d57600080fd5b61409985838601613eaa565b606084015260808401359150808211156140b257600080fd5b6140be85838601613eaa565b608084015260a08401359150808211156140d757600080fd5b506140e484828501613e55565b60a08301525092915050565b600060208284031215614101578081fd5b813561105981614bb5565b6000806040838503121561411e578081fd5b823561412981614bb5565b9150602083013561413981614bb5565b809150509250929050565b600080600080600060a0868803121561415b578081fd5b853561416681614bb5565b9450602086013561417681614bb5565b935060408601356001600160401b0380821115614191578283fd5b61419d89838a01613f65565b945060608801359150808211156141b2578283fd5b6141be89838a01613f65565b935060808801359150808211156141d3578283fd5b506141e088828901613fbf565b9150509295509295909350565b600080600080600060a08688031215614204578283fd5b853561420f81614bb5565b9450602086013561421f81614bb5565b9350604086013592506060860135915060808601356001600160401b03811115614247578182fd5b6141e088828901613fbf565b600080600060608486031215614267578081fd5b833561427281614bb5565b925060208401356001600160401b038082111561428d578283fd5b61429987838801613f65565b935060408601359150808211156142ae578283fd5b506142bb86828701613f65565b9150509250925092565b600080604083850312156142d7578182fd5b82356142e281614bb5565b915060208301358015158114614139578182fd5b60008060408385031215614308578182fd5b823561431381614bb5565b946020939093013593505050565b600080600060608486031215614335578081fd5b833561434081614bb5565b95602085013595506040909401359392505050565b60008060408385031215614367578182fd5b82356001600160401b038082111561437d578384fd5b61438986838701613de0565b9350602085013591508082111561439e578283fd5b506143ab85828601613f65565b9150509250929050565b6000602082840312156143c6578081fd5b81356001600160e01b031981168114611059578182fd5b60008060008060008060c087890312156143f5578384fd5b86356001600160401b038082111561440b578586fd5b6144178a838b01613fbf565b9750602089013591508082111561442c578586fd5b6144388a838b01613fbf565b9650604089013591508082111561444d578586fd5b6144598a838b01613fbf565b9550606089013591508082111561446e578283fd5b5061447b89828a01613fbf565b93505061448a60808801613dd5565b915061449860a08801613dd5565b90509295509295509295565b600080600080600080600060e0888a0312156144be578485fd5b87356001600160401b03808211156144d4578687fd5b6144e08b838c01613fbf565b985060208a01359150808211156144f5578687fd5b6145018b838c01613fbf565b975060408a0135915080821115614516578687fd5b6145228b838c01613fbf565b965060608a0135915080821115614537578283fd5b6145438b838c01613fbf565b955060808a0135915080821115614558578283fd5b506145658a828b01613de0565b93505061457460a08901613dd5565b915061458260c08901613dd5565b905092959891949750929550565b600080600080608085870312156145a5578182fd5b84356001600160401b038111156145ba578283fd5b6145c687828801614023565b94505060208501356145d781614bb5565b925060408501356145e781614bb5565b9396929550929360600135925050565b60008060006060848603121561460b578081fd5b83356001600160401b03811115614620578182fd5b61462c86828701614023565b935050602084013561463d81614bb5565b929592945050506040919091013590565b60006020828403121561465f578081fd5b5035919050565b60008060006060848603121561467a578081fd5b83359250602084013561468c81614bb5565b9150604084013561469c81614bb5565b809150509250925092565b600080604083850312156146b9578182fd5b50508035926020909101359150565b6000815180845260208085019450808401835b8381101561471457815180516001600160a01b031688528301516001600160601b031683880152604090960195908201906001016146db565b509495945050505050565b60008151808452815b8181101561474457602081850181015186830182015201614728565b818111156147555782602083870101525b50601f01601f19169290920160200192915050565b6001600160a01b0391909116815260200190565b6001600160a01b03841681526060602082018190526000906147a29083018561471f565b82810360408401526139cf818561471f565b6001600160a01b039290921682526001600160601b0316602082015260400190565b60006020825261105960208301846146c8565b6020808252825182820181905260009190848201906040850190845b8181101561482157835183529284019291840191600101614805565b50909695505050505050565b901515815260200190565b600060208252611059602083018461471f565b60208082526017908201527f6d696e746572206973206e6f7420746865206f776e6572000000000000000000604082015260600190565b60208082526010908201526f1cdd5c1c1b1e481a5b98dbdc9c9958dd60821b604082015260600190565b6020808252818101527f43726561746f722073686172652073686f756c6420626520706f736974697665604082015260600190565b6020808252601190820152701d1bdad95b9259081a5b98dbdc9c9958dd607a1b604082015260600190565b6020808252600b908201526a1b9bdd08185b1b1bddd95960aa1b604082015260600190565b60208082526010908201526f185b5bdd5b9d081a5b98dbdc9c9958dd60821b604082015260600190565b60208082526028908201527f455243313135353a207472616e736665722063616c6c6572206973206e6f7420604082015267185c1c1c9bdd995960c21b606082015260800190565b60208082526010908201526f6d6f7265207468616e20737570706c7960801b604082015260600190565b60208082526019908201527f4163636f756e742073686f756c642062652070726573656e7400000000000000604082015260600190565b60208082526021908201527f455243313135353a206d696e7420746f20746865207a65726f206164647265736040820152607360f81b606082015260800190565b6020808252602e908201527f746f74616c20616d6f756e74206f662063726561746f7273207368617265207360408201526d0686f756c642062652031303030360941b606082015260800190565b90815260200190565b600083825260406020830152614ab560408301846146c8565b949350505050565b918252602082015260400190565b6040518181016001600160401b0381118282101715614ae657fe5b604052919050565b60006001600160401b03821115614b0157fe5b5060209081020190565b60e01c90565b600060443d1015614b2157610c3e565b600481823e6308c379a0614b358251614b0b565b14614b3f57610c3e565b6040513d600319016004823e80513d6001600160401b038160248401118184111715614b6e5750505050610c3e565b82840192508251915080821115614b885750505050610c3e565b503d83016020828401011115614ba057505050610c3e565b601f01601f1916810160200160405291505090565b6001600160a01b0381168114612e2757600080fdfe455243313135353a207472616e7366657220746f206e6f6e2045524331313535526563656976657220696d706c656d656e746572455243313135353a204552433131353552656365697665722072656a656374656420746f6b656e73c3d58168c5ae7397731d063d5bbf3d657854427343f4c083240f7aacaa2d0f62455243313135353a2062616c616e636520717565727920666f7220746865207a65726f20616464726573734f776e61626c653a206e6577206f776e657220697320746865207a65726f2061646472657373455243313135353a206275726e20616d6f756e7420657863656564732062616c616e6365455243313135353a2063616c6c6572206973206e6f74206f776e6572206e6f7220617070726f76656445434453413a20696e76616c6964207369676e6174757265202773272076616c7565455243313135353a207472616e7366657220746f20746865207a65726f2061646472657373455243313135353a207472616e736665722063616c6c6572206973206e6f74206f776e6572206e6f7220617070726f766564496e697469616c697a61626c653a20636f6e747261637420697320616c726561647920696e697469616c697a656445434453413a20696e76616c6964207369676e6174757265202776272076616c7565455243313135353a206275726e2066726f6d20746865207a65726f2061646472657373455243313135353a20696e73756666696369656e742062616c616e636520666f72207472616e73666572526f79616c747920746f74616c2076616c75652073686f756c64206265203c203130303030455243313135353a2073657474696e6720617070726f76616c2073746174757320666f722073656c66455243313135353a206163636f756e747320616e6420696473206c656e677468206d69736d61746368455243313135353a2069647320616e6420616d6f756e7473206c656e677468206d69736d61746368a2646970667358221220000d8798e770daa3acc374d9788de954392bf50bafdf3a5ecbc50554c5b8d97f64736f6c63430007060033",
  "immutableReferences": {},
  "source": "// SPDX-License-Identifier: MIT\n\npragma solidity 0.7.6;\npragma abicoder v2;\n\nimport \"./ERC1155Base.sol\";\n\ncontract ERC1155Rarible is ERC1155Base {\n    /// @dev true if collection is private, false if public\n    bool isPrivate;\n\n    event CreateERC1155Rarible(address owner, string name, string symbol);\n    event CreateERC1155RaribleUser(address owner, string name, string symbol);\n\n    function __ERC1155RaribleUser_init(string memory _name, string memory _symbol, string memory baseURI, string memory contractURI, address[] memory operators, address transferProxy, address lazyTransferProxy) external initializer {\n        __ERC1155Rarible_init_unchained(_name, _symbol, baseURI, contractURI, transferProxy, lazyTransferProxy);\n        for(uint i = 0; i < operators.length; i++) {\n            setApprovalForAll(operators[i], true);\n        }\n\n        isPrivate = true;\n        emit CreateERC1155RaribleUser(_msgSender(), _name, _symbol);\n    }\n    \n    function __ERC1155Rarible_init(string memory _name, string memory _symbol, string memory baseURI, string memory contractURI, address transferProxy, address lazyTransferProxy) external initializer {\n        __ERC1155Rarible_init_unchained(_name, _symbol, baseURI, contractURI, transferProxy, lazyTransferProxy);\n\n        isPrivate = false;\n        emit CreateERC1155Rarible(_msgSender(), _name, _symbol);\n    }\n\n    function __ERC1155Rarible_init_unchained(string memory _name, string memory _symbol, string memory baseURI, string memory contractURI, address transferProxy, address lazyTransferProxy) internal {\n        __Ownable_init_unchained();\n        __ERC1155Lazy_init_unchained();\n        __ERC165_init_unchained();\n        __Context_init_unchained();\n        __Mint1155Validator_init_unchained();\n        __ERC1155_init_unchained(\"\");\n        __HasContractURI_init_unchained(contractURI);\n        __ERC1155Burnable_init_unchained();\n        __RoyaltiesV2Upgradeable_init_unchained();\n        __ERC1155Base_init_unchained(_name, _symbol);\n        _setBaseURI(baseURI);\n\n        //setting default approver for transferProxies\n        _setDefaultApproval(transferProxy, true);\n        _setDefaultApproval(lazyTransferProxy, true);\n    }\n\n    function mintAndTransfer(LibERC1155LazyMint.Mint1155Data memory data, address to, uint256 _amount) public override {\n        if (isPrivate){\n          require(owner() == data.creators[0].account, \"minter is not the owner\");\n        }\n        super.mintAndTransfer(data, to, _amount);\n    }\n\n    uint256[49] private __gap;\n}\n",
  "sourcePath": "@rarible/tokens/contracts/erc-1155/ERC1155Rarible.sol",
  "compiler": {
    "name": "solc",
    "version": "0.7.6+commit.7338295f.Emscripten.clang"
  },
  "schemaVersion": "3.4.3",
  "updatedAt": "2021-12-02T16:41:33.859Z",
  "devdoc": {
    "kind": "dev",
    "methods": {
      "balanceOf(address,uint256)": {
        "details": "See {IERC1155-balanceOf}. Requirements: - `account` cannot be the zero address."
      },
      "balanceOfBatch(address[],uint256[])": {
        "details": "See {IERC1155-balanceOfBatch}. Requirements: - `accounts` and `ids` must have the same length."
      },
      "baseURI()": {
        "details": "Returns the base URI set via {_setBaseURI}. This will be automatically added as a prefix in {tokenURI} to each token's URI, or to the token ID if no specific URI is set for that token ID."
      },
      "owner()": {
        "details": "Returns the address of the current owner."
      },
      "renounceOwnership()": {
        "details": "Leaves the contract without owner. It will not be possible to call `onlyOwner` functions anymore. Can only be called by the current owner. NOTE: Renouncing ownership will leave the contract without an owner, thereby removing any functionality that is only available to the owner."
      },
      "safeBatchTransferFrom(address,address,uint256[],uint256[],bytes)": {
        "details": "See {IERC1155-safeBatchTransferFrom}."
      },
      "safeTransferFrom(address,address,uint256,uint256,bytes)": {
        "details": "See {IERC1155-safeTransferFrom}."
      },
      "setApprovalForAll(address,bool)": {
        "details": "See {IERC1155-setApprovalForAll}."
      },
      "transferOwnership(address)": {
        "details": "Transfers ownership of the contract to a new account (`newOwner`). Can only be called by the current owner."
      }
    },
    "stateVariables": {
      "isPrivate": {
        "details": "true if collection is private, false if public"
      }
    },
    "version": 1
  },
  "userdoc": {
    "kind": "user",
    "methods": {},
    "version": 1
  }
}