{
  "contractName": "ERC1155Rarible",
  "abi": [
    {
      "anonymous": false,
      "inputs": [
        {
          "indexed": true,
          "internalType": "address",
          "name": "account",
          "type": "address"
        },
        {
          "indexed": true,
          "internalType": "address",
          "name": "operator",
          "type": "address"
        },
        {
          "indexed": false,
          "internalType": "bool",
          "name": "approved",
          "type": "bool"
        }
      ],
      "name": "ApprovalForAll",
      "type": "event"
    },
    {
      "anonymous": false,
      "inputs": [
        {
          "indexed": false,
          "internalType": "string",
          "name": "newBaseURI",
          "type": "string"
        }
      ],
      "name": "BaseUriChanged",
      "type": "event"
    },
    {
      "anonymous": false,
      "inputs": [
        {
          "indexed": true,
          "internalType": "address",
          "name": "operator",
          "type": "address"
        },
        {
          "indexed": true,
          "internalType": "address",
          "name": "account",
          "type": "address"
        },
        {
          "indexed": false,
          "internalType": "uint256",
          "name": "id",
          "type": "uint256"
        },
        {
          "indexed": false,
          "internalType": "uint256",
          "name": "amount",
          "type": "uint256"
        }
      ],
      "name": "BurnLazy",
      "type": "event"
    },
    {
      "anonymous": false,
      "inputs": [
        {
          "indexed": true,
          "internalType": "address",
          "name": "operator",
          "type": "address"
        },
        {
          "indexed": true,
          "internalType": "address",
          "name": "account",
          "type": "address"
        },
        {
          "indexed": false,
          "internalType": "uint256[]",
          "name": "ids",
          "type": "uint256[]"
        },
        {
          "indexed": false,
          "internalType": "uint256[]",
          "name": "amounts",
          "type": "uint256[]"
        }
      ],
      "name": "BurnLazyBatch",
      "type": "event"
    },
    {
      "anonymous": false,
      "inputs": [
        {
          "indexed": false,
          "internalType": "address",
          "name": "owner",
          "type": "address"
        },
        {
          "indexed": false,
          "internalType": "string",
          "name": "name",
          "type": "string"
        },
        {
          "indexed": false,
          "internalType": "string",
          "name": "symbol",
          "type": "string"
        }
      ],
      "name": "CreateERC1155Rarible",
      "type": "event"
    },
    {
      "anonymous": false,
      "inputs": [
        {
          "indexed": false,
          "internalType": "address",
          "name": "owner",
          "type": "address"
        },
        {
          "indexed": false,
          "internalType": "string",
          "name": "name",
          "type": "string"
        },
        {
          "indexed": false,
          "internalType": "string",
          "name": "symbol",
          "type": "string"
        }
      ],
      "name": "CreateERC1155RaribleUser",
      "type": "event"
    },
    {
      "anonymous": false,
      "inputs": [
        {
          "indexed": false,
          "internalType": "uint256",
          "name": "tokenId",
          "type": "uint256"
        },
        {
          "components": [
            {
              "internalType": "address payable",
              "name": "account",
              "type": "address"
            },
            {
              "internalType": "uint96",
              "name": "value",
              "type": "uint96"
            }
          ],
          "indexed": false,
          "internalType": "struct LibPart.Part[]",
          "name": "creators",
          "type": "tuple[]"
        }
      ],
      "name": "Creators",
      "type": "event"
    },
    {
      "anonymous": false,
      "inputs": [
        {
          "indexed": true,
          "internalType": "address",
          "name": "operator",
          "type": "address"
        },
        {
          "indexed": false,
          "internalType": "bool",
          "name": "hasApproval",
          "type": "bool"
        }
      ],
      "name": "DefaultApproval",
      "type": "event"
    },
    {
      "anonymous": false,
      "inputs": [
        {
          "indexed": true,
          "internalType": "address",
          "name": "minter",
          "type": "address"
        },
        {
          "indexed": true,
          "internalType": "bool",
          "name": "status",
          "type": "bool"
        }
      ],
      "name": "MinterStatusChanged",
      "type": "event"
    },
    {
      "anonymous": false,
      "inputs": [
        {
          "indexed": true,
          "internalType": "address",
          "name": "previousOwner",
          "type": "address"
        },
        {
          "indexed": true,
          "internalType": "address",
          "name": "newOwner",
          "type": "address"
        }
      ],
      "name": "OwnershipTransferred",
      "type": "event"
    },
    {
      "anonymous": false,
      "inputs": [
        {
          "indexed": false,
          "internalType": "uint256",
          "name": "tokenId",
          "type": "uint256"
        },
        {
          "components": [
            {
              "internalType": "address payable",
              "name": "account",
              "type": "address"
            },
            {
              "internalType": "uint96",
              "name": "value",
              "type": "uint96"
            }
          ],
          "indexed": false,
          "internalType": "struct LibPart.Part[]",
          "name": "royalties",
          "type": "tuple[]"
        }
      ],
      "name": "RoyaltiesSet",
      "type": "event"
    },
    {
      "anonymous": false,
      "inputs": [
        {
          "indexed": false,
          "internalType": "uint256",
          "name": "tokenId",
          "type": "uint256"
        },
        {
          "indexed": false,
          "internalType": "uint256",
          "name": "value",
          "type": "uint256"
        }
      ],
      "name": "Supply",
      "type": "event"
    },
    {
      "anonymous": false,
      "inputs": [
        {
          "indexed": true,
          "internalType": "address",
          "name": "operator",
          "type": "address"
        },
        {
          "indexed": true,
          "internalType": "address",
          "name": "from",
          "type": "address"
        },
        {
          "indexed": true,
          "internalType": "address",
          "name": "to",
          "type": "address"
        },
        {
          "indexed": false,
          "internalType": "uint256[]",
          "name": "ids",
          "type": "uint256[]"
        },
        {
          "indexed": false,
          "internalType": "uint256[]",
          "name": "values",
          "type": "uint256[]"
        }
      ],
      "name": "TransferBatch",
      "type": "event"
    },
    {
      "anonymous": false,
      "inputs": [
        {
          "indexed": true,
          "internalType": "address",
          "name": "operator",
          "type": "address"
        },
        {
          "indexed": true,
          "internalType": "address",
          "name": "from",
          "type": "address"
        },
        {
          "indexed": true,
          "internalType": "address",
          "name": "to",
          "type": "address"
        },
        {
          "indexed": false,
          "internalType": "uint256",
          "name": "id",
          "type": "uint256"
        },
        {
          "indexed": false,
          "internalType": "uint256",
          "name": "value",
          "type": "uint256"
        }
      ],
      "name": "TransferSingle",
      "type": "event"
    },
    {
      "anonymous": false,
      "inputs": [
        {
          "indexed": false,
          "internalType": "string",
          "name": "value",
          "type": "string"
        },
        {
          "indexed": true,
          "internalType": "uint256",
          "name": "id",
          "type": "uint256"
        }
      ],
      "name": "URI",
      "type": "event"
    },
    {
      "inputs": [
        {
          "internalType": "address",
          "name": "minter",
          "type": "address"
        }
      ],
      "name": "addMinter",
      "outputs": [],
      "stateMutability": "nonpayable",
      "type": "function"
    },
    {
      "inputs": [
        {
          "internalType": "address[]",
          "name": "minters",
          "type": "address[]"
        }
      ],
      "name": "addMinters",
      "outputs": [],
      "stateMutability": "nonpayable",
      "type": "function"
    },
    {
      "inputs": [
        {
          "internalType": "address",
          "name": "account",
          "type": "address"
        },
        {
          "internalType": "uint256",
          "name": "id",
          "type": "uint256"
        }
      ],
      "name": "balanceOf",
      "outputs": [
        {
          "internalType": "uint256",
          "name": "",
          "type": "uint256"
        }
      ],
      "stateMutability": "view",
      "type": "function"
    },
    {
      "inputs": [
        {
          "internalType": "address[]",
          "name": "accounts",
          "type": "address[]"
        },
        {
          "internalType": "uint256[]",
          "name": "ids",
          "type": "uint256[]"
        }
      ],
      "name": "balanceOfBatch",
      "outputs": [
        {
          "internalType": "uint256[]",
          "name": "",
          "type": "uint256[]"
        }
      ],
      "stateMutability": "view",
      "type": "function"
    },
    {
      "inputs": [],
      "name": "baseURI",
      "outputs": [
        {
          "internalType": "string",
          "name": "",
          "type": "string"
        }
      ],
      "stateMutability": "view",
      "type": "function"
    },
    {
      "inputs": [
        {
          "internalType": "address",
          "name": "account",
          "type": "address"
        },
        {
          "internalType": "uint256",
          "name": "id",
          "type": "uint256"
        },
        {
          "internalType": "uint256",
          "name": "amount",
          "type": "uint256"
        }
      ],
      "name": "burn",
      "outputs": [],
      "stateMutability": "nonpayable",
      "type": "function"
    },
    {
      "inputs": [
        {
          "internalType": "address",
          "name": "account",
          "type": "address"
        },
        {
          "internalType": "uint256[]",
          "name": "ids",
          "type": "uint256[]"
        },
        {
          "internalType": "uint256[]",
          "name": "amounts",
          "type": "uint256[]"
        }
      ],
      "name": "burnBatch",
      "outputs": [],
      "stateMutability": "nonpayable",
      "type": "function"
    },
    {
      "inputs": [],
      "name": "contractURI",
      "outputs": [
        {
          "internalType": "string",
          "name": "",
          "type": "string"
        }
      ],
      "stateMutability": "view",
      "type": "function"
    },
    {
      "inputs": [
        {
          "internalType": "uint256",
          "name": "_id",
          "type": "uint256"
        }
      ],
      "name": "getCreators",
      "outputs": [
        {
          "components": [
            {
              "internalType": "address payable",
              "name": "account",
              "type": "address"
            },
            {
              "internalType": "uint96",
              "name": "value",
              "type": "uint96"
            }
          ],
          "internalType": "struct LibPart.Part[]",
          "name": "",
          "type": "tuple[]"
        }
      ],
      "stateMutability": "view",
      "type": "function"
    },
    {
      "inputs": [
        {
          "internalType": "uint256",
          "name": "id",
          "type": "uint256"
        }
      ],
      "name": "getRaribleV2Royalties",
      "outputs": [
        {
          "components": [
            {
              "internalType": "address payable",
              "name": "account",
              "type": "address"
            },
            {
              "internalType": "uint96",
              "name": "value",
              "type": "uint96"
            }
          ],
          "internalType": "struct LibPart.Part[]",
          "name": "",
          "type": "tuple[]"
        }
      ],
      "stateMutability": "view",
      "type": "function"
    },
    {
      "inputs": [
        {
          "internalType": "address",
          "name": "_owner",
          "type": "address"
        },
        {
          "internalType": "address",
          "name": "_operator",
          "type": "address"
        }
      ],
      "name": "isApprovedForAll",
      "outputs": [
        {
          "internalType": "bool",
          "name": "",
          "type": "bool"
        }
      ],
      "stateMutability": "view",
      "type": "function"
    },
    {
      "inputs": [
        {
          "internalType": "address",
          "name": "account",
          "type": "address"
        }
      ],
      "name": "isMinter",
      "outputs": [
        {
          "internalType": "bool",
          "name": "",
          "type": "bool"
        }
      ],
      "stateMutability": "view",
      "type": "function"
    },
    {
      "inputs": [],
      "name": "name",
      "outputs": [
        {
          "internalType": "string",
          "name": "",
          "type": "string"
        }
      ],
      "stateMutability": "view",
      "type": "function"
    },
    {
      "inputs": [],
      "name": "owner",
      "outputs": [
        {
          "internalType": "address",
          "name": "",
          "type": "address"
        }
      ],
      "stateMutability": "view",
      "type": "function"
    },
    {
      "inputs": [
        {
          "internalType": "address",
          "name": "_minter",
          "type": "address"
        }
      ],
      "name": "removeMinter",
      "outputs": [],
      "stateMutability": "nonpayable",
      "type": "function"
    },
    {
      "inputs": [],
      "name": "renounceOwnership",
      "outputs": [],
      "stateMutability": "nonpayable",
      "type": "function"
    },
    {
      "inputs": [
        {
          "internalType": "uint256",
          "name": "id",
          "type": "uint256"
        },
        {
          "internalType": "uint256",
          "name": "_salePrice",
          "type": "uint256"
        }
      ],
      "name": "royaltyInfo",
      "outputs": [
        {
          "internalType": "address",
          "name": "receiver",
          "type": "address"
        },
        {
          "internalType": "uint256",
          "name": "royaltyAmount",
          "type": "uint256"
        }
      ],
      "stateMutability": "view",
      "type": "function"
    },
    {
      "inputs": [
        {
          "internalType": "address",
          "name": "from",
          "type": "address"
        },
        {
          "internalType": "address",
          "name": "to",
          "type": "address"
        },
        {
          "internalType": "uint256[]",
          "name": "ids",
          "type": "uint256[]"
        },
        {
          "internalType": "uint256[]",
          "name": "amounts",
          "type": "uint256[]"
        },
        {
          "internalType": "bytes",
          "name": "data",
          "type": "bytes"
        }
      ],
      "name": "safeBatchTransferFrom",
      "outputs": [],
      "stateMutability": "nonpayable",
      "type": "function"
    },
    {
      "inputs": [
        {
          "internalType": "address",
          "name": "from",
          "type": "address"
        },
        {
          "internalType": "address",
          "name": "to",
          "type": "address"
        },
        {
          "internalType": "uint256",
          "name": "id",
          "type": "uint256"
        },
        {
          "internalType": "uint256",
          "name": "amount",
          "type": "uint256"
        },
        {
          "internalType": "bytes",
          "name": "data",
          "type": "bytes"
        }
      ],
      "name": "safeTransferFrom",
      "outputs": [],
      "stateMutability": "nonpayable",
      "type": "function"
    },
    {
      "inputs": [
        {
          "internalType": "address",
          "name": "operator",
          "type": "address"
        },
        {
          "internalType": "bool",
          "name": "approved",
          "type": "bool"
        }
      ],
      "name": "setApprovalForAll",
      "outputs": [],
      "stateMutability": "nonpayable",
      "type": "function"
    },
    {
      "inputs": [
        {
          "internalType": "string",
          "name": "newBaseURI",
          "type": "string"
        }
      ],
      "name": "setBaseURI",
      "outputs": [],
      "stateMutability": "nonpayable",
      "type": "function"
    },
    {
      "inputs": [
        {
          "internalType": "bytes4",
          "name": "interfaceId",
          "type": "bytes4"
        }
      ],
      "name": "supportsInterface",
      "outputs": [
        {
          "internalType": "bool",
          "name": "",
          "type": "bool"
        }
      ],
      "stateMutability": "view",
      "type": "function"
    },
    {
      "inputs": [],
      "name": "symbol",
      "outputs": [
        {
          "internalType": "string",
          "name": "",
          "type": "string"
        }
      ],
      "stateMutability": "view",
      "type": "function"
    },
    {
      "inputs": [
        {
          "components": [
            {
              "internalType": "uint256",
              "name": "tokenId",
              "type": "uint256"
            },
            {
              "internalType": "string",
              "name": "tokenURI",
              "type": "string"
            },
            {
              "internalType": "uint256",
              "name": "supply",
              "type": "uint256"
            },
            {
              "components": [
                {
                  "internalType": "address payable",
                  "name": "account",
                  "type": "address"
                },
                {
                  "internalType": "uint96",
                  "name": "value",
                  "type": "uint96"
                }
              ],
              "internalType": "struct LibPart.Part[]",
              "name": "creators",
              "type": "tuple[]"
            },
            {
              "components": [
                {
                  "internalType": "address payable",
                  "name": "account",
                  "type": "address"
                },
                {
                  "internalType": "uint96",
                  "name": "value",
                  "type": "uint96"
                }
              ],
              "internalType": "struct LibPart.Part[]",
              "name": "royalties",
              "type": "tuple[]"
            },
            {
              "internalType": "bytes[]",
              "name": "signatures",
              "type": "bytes[]"
            }
          ],
          "internalType": "struct LibERC1155LazyMint.Mint1155Data",
          "name": "data",
          "type": "tuple"
        },
        {
          "internalType": "address",
          "name": "from",
          "type": "address"
        },
        {
          "internalType": "address",
          "name": "to",
          "type": "address"
        },
        {
          "internalType": "uint256",
          "name": "amount",
          "type": "uint256"
        }
      ],
      "name": "transferFromOrMint",
      "outputs": [],
      "stateMutability": "nonpayable",
      "type": "function"
    },
    {
      "inputs": [
        {
          "internalType": "address",
          "name": "newOwner",
          "type": "address"
        }
      ],
      "name": "transferOwnership",
      "outputs": [],
      "stateMutability": "nonpayable",
      "type": "function"
    },
    {
      "inputs": [
        {
          "internalType": "uint256",
          "name": "_id",
          "type": "uint256"
        },
        {
          "internalType": "address",
          "name": "_from",
          "type": "address"
        },
        {
          "internalType": "address",
          "name": "_to",
          "type": "address"
        }
      ],
      "name": "updateAccount",
      "outputs": [],
      "stateMutability": "nonpayable",
      "type": "function"
    },
    {
      "inputs": [
        {
          "internalType": "uint256",
          "name": "id",
          "type": "uint256"
        }
      ],
      "name": "uri",
      "outputs": [
        {
          "internalType": "string",
          "name": "",
          "type": "string"
        }
      ],
      "stateMutability": "view",
      "type": "function"
    },
    {
      "inputs": [
        {
          "internalType": "string",
          "name": "_name",
          "type": "string"
        },
        {
          "internalType": "string",
          "name": "_symbol",
          "type": "string"
        },
        {
          "internalType": "string",
          "name": "baseURI",
          "type": "string"
        },
        {
          "internalType": "string",
          "name": "contractURI",
          "type": "string"
        },
        {
          "internalType": "address[]",
          "name": "operators",
          "type": "address[]"
        },
        {
          "internalType": "address",
          "name": "transferProxy",
          "type": "address"
        },
        {
          "internalType": "address",
          "name": "lazyTransferProxy",
          "type": "address"
        }
      ],
      "name": "__ERC1155RaribleUser_init",
      "outputs": [],
      "stateMutability": "nonpayable",
      "type": "function"
    },
    {
      "inputs": [
        {
          "internalType": "string",
          "name": "_name",
          "type": "string"
        },
        {
          "internalType": "string",
          "name": "_symbol",
          "type": "string"
        },
        {
          "internalType": "string",
          "name": "baseURI",
          "type": "string"
        },
        {
          "internalType": "string",
          "name": "contractURI",
          "type": "string"
        },
        {
          "internalType": "address",
          "name": "transferProxy",
          "type": "address"
        },
        {
          "internalType": "address",
          "name": "lazyTransferProxy",
          "type": "address"
        }
      ],
      "name": "__ERC1155Rarible_init",
      "outputs": [],
      "stateMutability": "nonpayable",
      "type": "function"
    },
    {
      "inputs": [
        {
          "components": [
            {
              "internalType": "uint256",
              "name": "tokenId",
              "type": "uint256"
            },
            {
              "internalType": "string",
              "name": "tokenURI",
              "type": "string"
            },
            {
              "internalType": "uint256",
              "name": "supply",
              "type": "uint256"
            },
            {
              "components": [
                {
                  "internalType": "address payable",
                  "name": "account",
                  "type": "address"
                },
                {
                  "internalType": "uint96",
                  "name": "value",
                  "type": "uint96"
                }
              ],
              "internalType": "struct LibPart.Part[]",
              "name": "creators",
              "type": "tuple[]"
            },
            {
              "components": [
                {
                  "internalType": "address payable",
                  "name": "account",
                  "type": "address"
                },
                {
                  "internalType": "uint96",
                  "name": "value",
                  "type": "uint96"
                }
              ],
              "internalType": "struct LibPart.Part[]",
              "name": "royalties",
              "type": "tuple[]"
            },
            {
              "internalType": "bytes[]",
              "name": "signatures",
              "type": "bytes[]"
            }
          ],
          "internalType": "struct LibERC1155LazyMint.Mint1155Data",
          "name": "data",
          "type": "tuple"
        },
        {
          "internalType": "address",
          "name": "to",
          "type": "address"
        },
        {
          "internalType": "uint256",
          "name": "_amount",
          "type": "uint256"
        }
      ],
      "name": "mintAndTransfer",
      "outputs": [],
      "stateMutability": "nonpayable",
      "type": "function"
    }
  ],
  "bytecode": "0x608060405234801561001057600080fd5b5061563c806100206000396000f3fe608060405234801561001057600080fd5b50600436106101d95760003560e01c806371e2a65711610104578063cad96cca116100a2578063f242432a11610071578063f242432a146103f1578063f2fde38b14610404578063f5298aca14610417578063ffc4e0a71461042a576101d9565b8063cad96cca146103b0578063e07f2319146103c3578063e8a3d485146103d6578063e985e9c5146103de576101d9565b806395d89b41116100de57806395d89b411461036f578063983b2d5614610377578063a22cb4651461038a578063aa271e1a1461039d576101d9565b806371e2a65714610327578063891be9741461033a5780638da5cb5b1461035a576101d9565b80632eb2c2d61161017c57806361e054591161014b57806361e05459146102f15780636b20c454146103045780636c0360eb14610317578063715018a61461031f576101d9565b80632eb2c2d6146102985780633092afd5146102ab5780634e1273f4146102be57806355f804b3146102de576101d9565b80630e89341c116101b85780630e89341c1461023c5780630eaead671461024f578063173c43d2146102645780632a55205a14610277576101d9565b8062fdd58e146101de57806301ffc9a71461020757806306fdde0314610227575b600080fd5b6101f16101ec3660046149a7565b61043d565b6040516101fe91906151e8565b60405180910390f35b61021a610215366004614aa0565b6104af565b6040516101fe9190614f64565b61022f6104c2565b6040516101fe9190614f6f565b61022f61024a366004614d6b565b610551565b61026261025d366004614d14565b61055c565b005b610262610272366004614afa565b610600565b61028a610285366004614dc4565b610663565b6040516101fe929190614f00565b6102626102a63660046147f5565b610773565b6102626102b93660046147a1565b610a71565b6102d16102cc366004614a40565b610b21565b6040516101fe9190614f2c565b6102626102ec366004614ac8565b610c0c565b6102626102ff366004614bc1565b610cb1565b610262610312366004614904565b610d18565b61022f610e9e565b610262610f36565b610262610335366004614a06565b610fe2565b61034d610348366004614d6b565b6110cb565b6040516101fe9190614f19565b61036261115b565b6040516101fe9190614eb6565b61022f61116a565b6102626103853660046147a1565b6111c6565b610262610398366004614976565b61127b565b61021a6103ab3660046147a1565b61136a565b61034d6103be366004614d6b565b611389565b6102626103d1366004614d83565b611404565b61022f611447565b61021a6103ec3660046147bd565b6114a3565b6102626103ff36600461489e565b6114b6565b6102626104123660046147a1565b61166f565b6102626104253660046149d2565b611772565b610262610438366004614cad565b6117ee565b60006001600160a01b0383166104845760405162461bcd60e51b815260040180806020018281038252602b815260200180615394602b913960400191505060405180910390fd5b5060008181526097602090815260408083206001600160a01b03861684529091529020545b92915050565b60006104ba82611849565b90505b919050565b610262805460408051602060026001851615610100026000190190941693909304601f810184900484028201840190925281815292918301828280156105495780601f1061051e57610100808354040283529160200191610549565b820191906000526020600020905b81548152906001019060200180831161052c57829003601f168201915b505050505081565b60606104ba826118e8565b6102965460ff16156105f057826060015160008151811061057957fe5b6020026020010151600001516001600160a01b031661059661115b565b6001600160a01b031614806105cb57506105cb83606001516000815181106105ba57fe5b60200260200101516000015161136a565b6105f05760405162461bcd60e51b81526004016105e790614f82565b60405180910390fd5b6105fb838383611a7e565b505050565b61060e868686868686611d7a565b610296805460ff191690557fcc215b7682459c30faa0e854780165d503a7d62d22a9aaaad6334585dc63343e610642611eac565b878760405161065393929190614eca565b60405180910390a1505050505050565b60008281526101fa602052604081205481906106845750600090508061076c565b60008481526101fa6020908152604080832080548251818502810185019093528083529192909190849084015b8282101561070057600084815260209081902060408051808201909152908401546001600160a01b0381168252600160a01b90046001600160601b0316818301528252600190920191016106b1565b5050505090508060008151811061071357fe5b60209081029190910101515192506000805b82518110156107605782818151811061073a57fe5b6020026020010151602001516001600160601b0316820191508080600101915050610725565b50612710908502049150505b9250929050565b81518351146107b35760405162461bcd60e51b81526004018080602001828103825260288152602001806155df6028913960400191505060405180910390fd5b6001600160a01b0384166107f85760405162461bcd60e51b81526004018080602001828103825260258152602001806154546025913960400191505060405180910390fd5b610800611eac565b6001600160a01b0316856001600160a01b031614806108265750610826856103ec611eac565b6108615760405162461bcd60e51b81526004018080602001828103825260328152602001806154796032913960400191505060405180910390fd5b600061086b611eac565b905061087b818787878787610a69565b60005b845181101561098157600085828151811061089557fe5b6020026020010151905060008583815181106108ad57fe5b6020026020010151905061091a816040518060600160405280602a815260200161551e602a91396097600086815260200190815260200160002060008d6001600160a01b03166001600160a01b0316815260200190815260200160002054611eb09092919063ffffffff16565b60008381526097602090815260408083206001600160a01b038e811685529252808320939093558a16815220546109519082611f47565b60009283526097602090815260408085206001600160a01b038c168652909152909220919091555060010161087e565b50846001600160a01b0316866001600160a01b0316826001600160a01b03167f4a39dc06d4c0dbc64b70af90fd698a233a518aa5d07e595d983b8c0526c8f7fb8787604051808060200180602001838103835285818151815260200191508051906020019060200280838360005b83811015610a075781810151838201526020016109ef565b50505050905001838103825284818151815260200191508051906020019060200280838360005b83811015610a46578181015183820152602001610a2e565b5050505090500194505050505060405180910390a4610a69818787878787611fa1565b505050505050565b610a79611eac565b6001600160a01b0316610a8a61115b565b6001600160a01b031614610ad3576040805162461bcd60e51b81526020600482018190526024820152600080516020615548833981519152604482015290519081900360640190fd5b6001600160a01b03811660008181526102c86020526040808220805460ff19169055519091907f3042b80e435ae46c334b2cfec51a66d64c9a8a8af4cd0c279a124c35a09e91dd908390a350565b60608151835114610b635760405162461bcd60e51b81526004018080602001828103825260298152602001806155b66029913960400191505060405180910390fd5b600083516001600160401b0381118015610b7c57600080fd5b50604051908082528060200260200182016040528015610ba6578160200160208202803683370190505b50905060005b8451811015610c0457610be5858281518110610bc457fe5b6020026020010151858381518110610bd857fe5b602002602001015161043d565b828281518110610bf157fe5b6020908102919091010152600101610bac565b509392505050565b610c14611eac565b6001600160a01b0316610c2561115b565b6001600160a01b031614610c6e576040805162461bcd60e51b81526020600482018190526024820152600080516020615548833981519152604482015290519081900360640190fd5b610c7781612217565b7f87cdeaffd8e70903d6ce7cc983fac3b09ca79e83818124c98e47a1d70f8027d681604051610ca69190614f6f565b60405180910390a150565b610cbf878787878686611d7a565b610296805460ff191660011790557f7da6bc204c8c4856a6aff786a6cb81c59477c782191dc51837d644a8ad50f2cc610cf6611eac565b8888604051610d0793929190614eca565b60405180910390a150505050505050565b8051825114610d395760405162461bcd60e51b81526004016105e790615131565b600082516001600160401b0381118015610d5257600080fd5b50604051908082528060200260200182016040528015610d7c578160200160208202803683370190505b509050600083516001600160401b0381118015610d9857600080fd5b50604051908082528060200260200182016040528015610dc2578160200160208202803683370190505b50905060005b8451811015610e3757610e01858281518110610de057fe5b6020026020010151858381518110610df457fe5b602002602001015161222b565b848381518110610e0d57fe5b60200260200101848481518110610e2057fe5b602090810291909101019190915252600101610dc8565b50610e438585846122a0565b846001600160a01b0316610e55611eac565b6001600160a01b03167fcf3391513e21a9d4a0348f8e890080170eba18dc62db35b60d8a518b7088eb3a8684604051610e8f929190614f3f565b60405180910390a35050505050565b61012f8054604080516020601f6002600019610100600188161502019095169490940493840181900481028201810190925282815260609390929091830182828015610f2b5780601f10610f0057610100808354040283529160200191610f2b565b820191906000526020600020905b815481529060010190602001808311610f0e57829003601f168201915b505050505090505b90565b610f3e611eac565b6001600160a01b0316610f4f61115b565b6001600160a01b031614610f98576040805162461bcd60e51b81526020600482018190526024820152600080516020615548833981519152604482015290519081900360640190fd5b6033546040516000916001600160a01b0316907f8be0079c531659141344cd1fd0a4f28419497f9722a3daafe3b4186f6b6457e0908390a3603380546001600160a01b0319169055565b610fea611eac565b6001600160a01b0316610ffb61115b565b6001600160a01b031614611044576040805162461bcd60e51b81526020600482018190526024820152600080516020615548833981519152604482015290519081900360640190fd5b60005b81518110156110c757600082828151811061105e57fe5b6020908102919091018101516001600160a01b03811660008181526102c89093526040808420805460ff1916600190811790915590519294509290917f3042b80e435ae46c334b2cfec51a66d64c9a8a8af4cd0c279a124c35a09e91dd9190a350600101611047565b5050565b60606101fb6000838152602001908152602001600020805480602002602001604051908101604052809291908181526020016000905b8282101561115057600084815260209081902060408051808201909152908401546001600160a01b0381168252600160a01b90046001600160601b031681830152825260019092019101611101565b505050509050919050565b6033546001600160a01b031690565b610263805460408051602060026001851615610100026000190190941693909304601f810184900484028201840190925281815292918301828280156105495780601f1061051e57610100808354040283529160200191610549565b6111ce611eac565b6001600160a01b03166111df61115b565b6001600160a01b031614611228576040805162461bcd60e51b81526020600482018190526024820152600080516020615548833981519152604482015290519081900360640190fd5b6001600160a01b03811660008181526102c86020526040808220805460ff1916600190811790915590519092917f3042b80e435ae46c334b2cfec51a66d64c9a8a8af4cd0c279a124c35a09e91dd91a350565b816001600160a01b031661128d611eac565b6001600160a01b031614156112d35760405162461bcd60e51b815260040180806020018281038252602981526020018061558d6029913960400191505060405180910390fd5b80609860006112e0611eac565b6001600160a01b03908116825260208083019390935260409182016000908120918716808252919093529120805460ff191692151592909217909155611324611eac565b6001600160a01b03167f17307eab39ab6107e8899845ad3d59bd9653f200f220920489ca2b5937696c318360405180821515815260200191505060405180910390a35050565b6001600160a01b031660009081526102c8602052604090205460ff1690565b60008181526101fa6020908152604080832080548251818502810185019093528083526060949293919290918401821561115057600084815260209081902060408051808201909152908401546001600160a01b0381168252600160a01b90046001600160601b031681830152825260019092019101611101565b816001600160a01b0316611416611eac565b6001600160a01b03161461143c5760405162461bcd60e51b81526004016105e790615039565b6105fb838383612314565b610230805460408051602060026001851615610100026000190190941693909304601f810184900484028201840190925281815292918301828280156105495780601f1061051e57610100808354040283529160200191610549565b60006114af83836123c0565b9392505050565b6001600160a01b0384166114fb5760405162461bcd60e51b81526004018080602001828103825260258152602001806154546025913960400191505060405180910390fd5b611503611eac565b6001600160a01b0316856001600160a01b031614806115295750611529856103ec611eac565b6115645760405162461bcd60e51b81526004018080602001828103825260298152602001806154096029913960400191505060405180910390fd5b600061156e611eac565b905061158e81878761157f886123ec565b611588886123ec565b87610a69565b6115d5836040518060600160405280602a815260200161551e602a913960008781526097602090815260408083206001600160a01b038d1684529091529020549190611eb0565b60008581526097602090815260408083206001600160a01b038b8116855292528083209390935587168152205461160c9084611f47565b60008581526097602090815260408083206001600160a01b03808b168086529184529382902094909455805188815291820187905280518a84169386169260008051602061537483398151915292908290030190a4610a69818787878787612431565b611677611eac565b6001600160a01b031661168861115b565b6001600160a01b0316146116d1576040805162461bcd60e51b81526020600482018190526024820152600080516020615548833981519152604482015290519081900360640190fd5b6001600160a01b0381166117165760405162461bcd60e51b81526004018080602001828103825260268152602001806153bf6026913960400191505060405180910390fd5b6033546040516001600160a01b038084169216907f8be0079c531659141344cd1fd0a4f28419497f9722a3daafe3b4186f6b6457e090600090a3603380546001600160a01b0319166001600160a01b0392909216919091179055565b60008061177f848461222b565b90925090508115611795576117958585846125a2565b80156117e757846001600160a01b03166117ad611eac565b6001600160a01b03167f5110a21391aa55386de41fe7a3e3dffb40132d38d629a113a7f4afff251b1a018684604051610e8f92919061520a565b5050505050565b60006117fe84866000015161043d565b90508181156118385782808310156118135750815b6118338686896000015184604051806020016040528060008152506114b6565b830390505b8015610a6957610a6986858361055c565b60006001600160e01b03198216636db15a0f60e01b148061187a57506001600160e01b0319821663656cb66560e11b145b8061189557506001600160e01b0319821663152a902d60e11b145b806118b057506001600160e01b031982166301ffc9a760e01b145b806118cb57506001600160e01b03198216636cdb3d1360e11b145b806104ba5750506001600160e01b0319166303a24d0760e21b1490565b600081815261012e6020908152604080832080548251601f600260001961010060018616150201909316929092049182018590048502810185019093528083526060949383018282801561197d5780601f106119525761010080835404028352916020019161197d565b820191906000526020600020905b81548152906001019060200180831161196057829003601f168201915b50505050509050600061198e610e9e565b90508051600014156119a2575090506104bd565b8151156119bc576119b38183612616565b925050506104bd565b806119c6856127fb565b6040516020018083805190602001908083835b602083106119f85780518252601f1990920191602091820191016119d9565b51815160209384036101000a600019018019909216911617905285519190930192850191508083835b60208310611a405780518252601f199092019160209182019101611a21565b6001836020036101000a0380198251168184511680821785525050505050509050019250505060405160208183030381529060405292505050919050565b825160601c6000611a8d611eac565b9050806001600160a01b0316826001600160a01b03161480611ab45750611ab482826114a3565b611ad05760405162461bcd60e51b81526004016105e790615088565b60008311611af05760405162461bcd60e51b81526004016105e79061505e565b845160009081526101fc6020526040902054611c59578460600151600081518110611b1757fe5b6020026020010151600001516001600160a01b0316826001600160a01b031614611b535760405162461bcd60e51b81526004016105e79061500e565b6000856040015111611b775760405162461bcd60e51b81526004016105e790614faf565b8460a001515185606001515114611b8d57600080fd5b6000611b98866128d5565b905060005b866060015151811015611c0e57600087606001518281518110611bbc57fe5b6020026020010151600001519050836001600160a01b0316816001600160a01b031614611c0557611c0581848a60a001518581518110611bf857fe5b6020026020010151612b28565b50600101611b9d565b50611c2186600001518760400151612b33565b611c3386600001518760800151612b9d565b611c4586600001518760600151612d8c565b611c5786600001518760200151612f3b565b505b611c788486600001518560405180602001604052806000815250612fff565b836001600160a01b0316826001600160a01b031614611d2957816001600160a01b031660006001600160a01b0316826001600160a01b0316600080516020615374833981519152886000015187604051611cd392919061520a565b60405180910390a4836001600160a01b0316826001600160a01b0316826001600160a01b0316600080516020615374833981519152886000015187604051611d1c92919061520a565b60405180910390a46117e7565b836001600160a01b031660006001600160a01b0316826001600160a01b0316600080516020615374833981519152886000015187604051611d6b92919061520a565b60405180910390a45050505050565b600054610100900460ff1680611d935750611d93613011565b80611da1575060005460ff16155b611ddc5760405162461bcd60e51b815260040180806020018281038252602e8152602001806154ab602e913960400191505060405180910390fd5b600054610100900460ff16158015611e07576000805460ff1961ff0019909116610100171660011790555b611e0f613022565b611e1761311c565b611e1f6131bd565b611e2761311c565b611e2f61325a565b611e476040518060200160405280600081525061332a565b611e50846133f5565b611e5861311c565b611e606134a7565b611e6a8787613544565b611e7261311c565b611e7b85612217565b611e86836001613611565b611e91826001613611565b8015611ea3576000805461ff00191690555b50505050505050565b3390565b60008184841115611f3f5760405162461bcd60e51b81526004018080602001828103825283818151815260200191508051906020019080838360005b83811015611f04578181015183820152602001611eec565b50505050905090810190601f168015611f315780820380516001836020036101000a031916815260200191505b509250505060405180910390fd5b505050900390565b6000828201838110156114af576040805162461bcd60e51b815260206004820152601b60248201527f536166654d6174683a206164646974696f6e206f766572666c6f770000000000604482015290519081900360640190fd5b611fb3846001600160a01b0316613671565b15610a6957836001600160a01b031663bc197c8187878686866040518663ffffffff1660e01b815260040180866001600160a01b03168152602001856001600160a01b03168152602001806020018060200180602001848103845287818151815260200191508051906020019060200280838360005b83811015612041578181015183820152602001612029565b50505050905001848103835286818151815260200191508051906020019060200280838360005b83811015612080578181015183820152602001612068565b50505050905001848103825285818151815260200191508051906020019080838360005b838110156120bc5781810151838201526020016120a4565b50505050905090810190601f1680156120e95780820380516001836020036101000a031916815260200191505b5098505050505050505050602060405180830381600087803b15801561210e57600080fd5b505af192505050801561213357506040513d602081101561212e57600080fd5b505160015b6121c85761213f61525e565b8061214a5750612191565b60405162461bcd60e51b8152602060048201818152835160248401528351849391928392604401919085019080838360008315611f04578181015183820152602001611eec565b60405162461bcd60e51b81526004018080602001828103825260348152602001806153186034913960400191505060405180910390fd5b6001600160e01b0319811663bc197c8160e01b14611ea35760405162461bcd60e51b815260040180806020018281038252602881526020018061534c6028913960400191505060405180910390fd5b80516110c79061012f9060208401906143e5565b806000606084901c61223b611eac565b6001600160a01b0316816001600160a01b0316141561229857839150600061226286613677565b905080156122875760006122758761368a565b8203905080861115612285578093505b505b612291868461369d565b8285039350505b509250929050565b6122a8611eac565b6001600160a01b0316836001600160a01b031614806122ce57506122ce836103ec611eac565b6123095760405162461bcd60e51b81526004018080602001828103825260298152602001806154096029913960400191505060405180910390fd5b6105fb8383836136b6565b60008381526101fa6020526040812054905b818110156117e75760008581526101fa6020526040902080546001600160a01b03861691908390811061235557fe5b6000918252602090912001546001600160a01b031614156123b85760008581526101fa6020526040902080548491908390811061238e57fe5b600091825260209091200180546001600160a01b0319166001600160a01b03929092169190911790555b600101612326565b6001600160a01b038116600090815260c9602052604081205460ff16806114af57506114af8383613924565b6040805160018082528183019092526060916000919060208083019080368337019050509050828160008151811061242057fe5b602090810291909101015292915050565b612443846001600160a01b0316613671565b15610a6957836001600160a01b031663f23a6e6187878686866040518663ffffffff1660e01b815260040180866001600160a01b03168152602001856001600160a01b0316815260200184815260200183815260200180602001828103825283818151815260200191508051906020019080838360005b838110156124d25781810151838201526020016124ba565b50505050905090810190601f1680156124ff5780820380516001836020036101000a031916815260200191505b509650505050505050602060405180830381600087803b15801561252257600080fd5b505af192505050801561254757506040513d602081101561254257600080fd5b505160015b6125535761213f61525e565b6001600160e01b0319811663f23a6e6160e01b14611ea35760405162461bcd60e51b815260040180806020018281038252602881526020018061534c6028913960400191505060405180910390fd5b6125aa611eac565b6001600160a01b0316836001600160a01b031614806125d057506125d0836103ec611eac565b61260b5760405162461bcd60e51b81526004018080602001828103825260298152602001806154096029913960400191505060405180910390fd5b6105fb838383613952565b805182516060918491849110156126e15784846040516020018083805190602001908083835b6020831061265b5780518252601f19909201916020918201910161263c565b51815160209384036101000a600019018019909216911617905285519190930192850191508083835b602083106126a35780518252601f199092019160209182019101612684565b6001836020036101000a03801982511681845116808217855250505050505090500192505050604051602081830303815290604052925050506104a9565b60005b82518110156127f1578281815181106126f957fe5b602001015160f81c60f81b6001600160f81b03191682828151811061271a57fe5b01602001516001600160f81b031916146127e95785856040516020018083805190602001908083835b602083106127625780518252601f199092019160209182019101612743565b51815160209384036101000a600019018019909216911617905285519190930192850191508083835b602083106127aa5780518252601f19909201916020918201910161278b565b6001836020036101000a0380198251168184511680821785525050505050509050019250505060405160208183030381529060405293505050506104a9565b6001016126e4565b5092949350505050565b60608161282057506040805180820190915260018152600360fc1b60208201526104bd565b8160005b811561283857600101600a82049150612824565b6000816001600160401b038111801561285057600080fd5b506040519080825280601f01601f19166020018201604052801561287b576020820181803683370190505b50859350905060001982015b83156128cc57600a840660300160f81b828280600190039350815181106128aa57fe5b60200101906001600160f81b031916908160001a905350600a84049350612887565b50949350505050565b6000808260800151516001600160401b03811180156128f357600080fd5b5060405190808252806020026020018201604052801561291d578160200160208202803683370190505b50905060005b83608001515181101561296f576129508460800151828151811061294357fe5b6020026020010151613a73565b82828151811061295c57fe5b6020908102919091010152600101612923565b5060008360600151516001600160401b038111801561298d57600080fd5b506040519080825280602002602001820160405280156129b7578160200160208202803683370190505b50905060005b8460600151518110156129fc576129dd8560600151828151811061294357fe5b8282815181106129e957fe5b60209081029190910101526001016129bd565b507ffb988707ebb338694f318760b0fd5cfe756d00a2ade251fda110b80c336a3c7f846000015185604001518660200151805190602001208460405160200180828051906020019060200280838360005b83811015612a65578181015183820152602001612a4d565b50505050905001915050604051602081830303815290604052805190602001208660405160200180828051906020019060200280838360005b83811015612ab6578181015183820152602001612a9e565b50505050905001915050604051602081830303815290604052805190602001206040516020018087815260200186815260200185815260200184815260200183815260200182815260200196505050505050506040516020818303038152906040528051906020012092505050919050565b6105fb838383613ae0565b60008281526101fc602052604090205415612b4d57600080fd5b60008281526101fc602052604090819020829055517f5e2aa66efd74cce82b21852e317e5490d9ecc9e6bb953ae24d90851258cc2f5c90612b91908490849061520a565b60405180910390a15050565b6000805b8251811015612d415760006001600160a01b0316838281518110612bc157fe5b6020026020010151600001516001600160a01b03161415612c29576040805162461bcd60e51b815260206004820152601b60248201527f526563697069656e742073686f756c642062652070726573656e740000000000604482015290519081900360640190fd5b828181518110612c3557fe5b6020026020010151602001516001600160601b031660001415612c9f576040805162461bcd60e51b815260206004820181905260248201527f526f79616c74792076616c75652073686f756c6420626520706f736974697665604482015290519081900360640190fd5b828181518110612cab57fe5b6020026020010151602001516001600160601b0316820191506101fa6000858152602001908152602001600020838281518110612ce457fe5b60209081029190910181015182546001818101855560009485529383902082519101805492909301516001600160601b0316600160a01b026001600160a01b039182166001600160a01b0319909316929092171617905501612ba1565b506127108110612d825760405162461bcd60e51b81526004018080602001828103825260258152602001806155686025913960400191505060405180910390fd5b6105fb8383613d22565b60008281526101fb6020526040812090805b8351811015612eda5760006001600160a01b0316848281518110612dbe57fe5b6020026020010151600001516001600160a01b03161415612df15760405162461bcd60e51b81526004016105e7906150fa565b838181518110612dfd57fe5b6020026020010151602001516001600160601b031660001415612e325760405162461bcd60e51b81526004016105e790614fd9565b82848281518110612e3f57fe5b602090810291909101810151825460018101845560009384529282902081519301805491909201516001600160601b0316600160a01b026001600160a01b039384166001600160a01b0319909216919091179092169190911790558351612ed090859083908110612eac57fe5b6020026020010151602001516001600160601b031683611f4790919063ffffffff16565b9150600101612d9e565b508061271014612efc5760405162461bcd60e51b81526004016105e79061519a565b7f841ffb90d4cabdd1f16034f3fa831d79060febbb8167bdd54a49269365bdf78f8484604051612f2d9291906151f1565b60405180910390a150505050565b600082815261012e602090815260409091208251612f5b928401906143e5565b50817f6bb7ff708619ba0610cba295a58592e0451dee2622938c8755667688daf3529b612f87846118e8565b6040805160208082528351818301528351919283929083019185019080838360005b83811015612fc1578181015183820152602001612fa9565b50505050905090810190601f168015612fee5780820380516001836020036101000a031916815260200191505b509250505060405180910390a25050565b61300b84848484613d53565b50505050565b600061301c30613671565b15905090565b600054610100900460ff168061303b575061303b613011565b80613049575060005460ff16155b6130845760405162461bcd60e51b815260040180806020018281038252602e8152602001806154ab602e913960400191505060405180910390fd5b600054610100900460ff161580156130af576000805460ff1961ff0019909116610100171660011790555b60006130b9611eac565b603380546001600160a01b0319166001600160a01b038316908117909155604051919250906000907f8be0079c531659141344cd1fd0a4f28419497f9722a3daafe3b4186f6b6457e0908290a3508015613119576000805461ff00191690555b50565b600054610100900460ff16806131355750613135613011565b80613143575060005460ff16155b61317e5760405162461bcd60e51b815260040180806020018281038252602e8152602001806154ab602e913960400191505060405180910390fd5b600054610100900460ff161580156131a9576000805460ff1961ff0019909116610100171660011790555b8015613119576000805461ff001916905550565b600054610100900460ff16806131d657506131d6613011565b806131e4575060005460ff16155b61321f5760405162461bcd60e51b815260040180806020018281038252602e8152602001806154ab602e913960400191505060405180910390fd5b600054610100900460ff1615801561324a576000805460ff1961ff0019909116610100171660011790555b6131a96301ffc9a760e01b613e65565b600054610100900460ff16806132735750613273613011565b80613281575060005460ff16155b6132bc5760405162461bcd60e51b815260040180806020018281038252602e8152602001806154ab602e913960400191505060405180910390fd5b600054610100900460ff161580156132e7576000805460ff1961ff0019909116610100171660011790555b6131a9604051806040016040528060088152602001674d696e743131353560c01b815250604051806040016040528060018152602001603160f81b815250613ee9565b600054610100900460ff16806133435750613343613011565b80613351575060005460ff16155b61338c5760405162461bcd60e51b815260040180806020018281038252602e8152602001806154ab602e913960400191505060405180910390fd5b600054610100900460ff161580156133b7576000805460ff1961ff0019909116610100171660011790555b6133c082613fab565b6133d0636cdb3d1360e11b613e65565b6133e06303a24d0760e21b613e65565b80156110c7576000805461ff00191690555050565b600054610100900460ff168061340e575061340e613011565b8061341c575060005460ff16155b6134575760405162461bcd60e51b815260040180806020018281038252602e8152602001806154ab602e913960400191505060405180910390fd5b600054610100900460ff16158015613482576000805460ff1961ff0019909116610100171660011790555b8151613496906102309060208501906143e5565b506133e063e8a3d48560e01b613e65565b600054610100900460ff16806134c057506134c0613011565b806134ce575060005460ff16155b6135095760405162461bcd60e51b815260040180806020018281038252602e8152602001806154ab602e913960400191505060405180910390fd5b600054610100900460ff16158015613534576000805460ff1961ff0019909116610100171660011790555b6131a963656cb66560e11b613e65565b600054610100900460ff168061355d575061355d613011565b8061356b575060005460ff16155b6135a65760405162461bcd60e51b815260040180806020018281038252602e8152602001806154ab602e913960400191505060405180910390fd5b600054610100900460ff161580156135d1576000805460ff1961ff0019909116610100171660011790555b82516135e5906102629060208601906143e5565b5081516135fa906102639060208501906143e5565b5080156105fb576000805461ff0019169055505050565b6001600160a01b038216600081815260c96020908152604091829020805460ff1916851515908117909155825190815291517f270dbb8ba4292910ae92862466486be25c355c837270a3d8824b36a8bc7c653b9281900390910190a25050565b3b151590565b60009081526101fc602052604090205490565b60009081526101fd602052604090205490565b60009182526101fd602052604090912080549091019055565b6001600160a01b0383166136fb5760405162461bcd60e51b81526004018080602001828103825260238152602001806154fb6023913960400191505060405180910390fd5b805182511461373b5760405162461bcd60e51b81526004018080602001828103825260288152602001806155df6028913960400191505060405180910390fd5b6000613745611eac565b905061376581856000868660405180602001604052806000815250610a69565b60005b8351811015613843576137fa83828151811061378057fe5b60200260200101516040518060600160405280602481526020016153e560249139609760008886815181106137b157fe5b602002602001015181526020019081526020016000206000896001600160a01b03166001600160a01b0316815260200190815260200160002054611eb09092919063ffffffff16565b6097600086848151811061380a57fe5b602090810291909101810151825281810192909252604090810160009081206001600160a01b038a168252909252902055600101613768565b5060006001600160a01b0316846001600160a01b0316826001600160a01b03167f4a39dc06d4c0dbc64b70af90fd698a233a518aa5d07e595d983b8c0526c8f7fb8686604051808060200180602001838103835285818151815260200191508051906020019060200280838360005b838110156138ca5781810151838201526020016138b2565b50505050905001838103825284818151815260200191508051906020019060200280838360005b838110156139095781810151838201526020016138f1565b5050505090500194505050505060405180910390a450505050565b6001600160a01b03918216600090815260986020908152604080832093909416825291909152205460ff1690565b6001600160a01b0383166139975760405162461bcd60e51b81526004018080602001828103825260238152602001806154fb6023913960400191505060405180910390fd5b60006139a1611eac565b90506139d1818560006139b3876123ec565b6139bc876123ec565b60405180602001604052806000815250610a69565b613a18826040518060600160405280602481526020016153e56024913960008681526097602090815260408083206001600160a01b038b1684529091529020549190611eb0565b60008481526097602090815260408083206001600160a01b03808a168086529184528285209590955581518881529283018790528151939490939086169260008051602061537483398151915292908290030190a450505050565b8051602091820151604080517f397e04204c1e1a60ee8724b71f8244e10ab5f2e9009854d80f602bda21b59ebb818601526001600160a01b03909316838201526001600160601b039091166060808401919091528151808403909101815260809092019052805191012090565b6000613aeb83613fbe565b90506000825160411415613b0657613b03828461400a565b90505b846001600160a01b0316816001600160a01b0316146117e757613b31856001600160a01b0316613671565b15613caa5760408051630b135d3f60e11b808252600482018581526024830193845286516044840152865191936001600160a01b038a1693631626ba7e9388938a9390929091606490910190602085019080838360005b83811015613ba0578181015183820152602001613b88565b50505050905090810190601f168015613bcd5780820380516001836020036101000a031916815260200191505b50935050505060206040518083038186803b158015613beb57600080fd5b505afa158015613bff573d6000803e3d6000fd5b505050506040513d6020811015613c1557600080fd5b505160408051808201909152601c81527f7369676e617475726520766572696669636174696f6e206572726f72000000006020820152916001600160e01b031990911614613ca45760405162461bcd60e51b8152602060048201818152835160248401528351909283926044909101919085019080838360008315611f04578181015183820152602001611eec565b506117e7565b604080518082018252601c81527f7369676e617475726520766572696669636174696f6e206572726f72000000006020808301918252925162461bcd60e51b81526004810193845282516024820152825192939283926044909201919080838360008315611f04578181015183820152602001611eec565b7f3fa96d7b6bcbfe71ef171666d84db3cf52fa2d1c8afdb1cc8e486177f208b7df8282604051612b919291906151f1565b60008381526101fd6020526040812054613d6e908490611f47565b60008581526101fc6020526040902054909150811115613da05760405162461bcd60e51b81526004016105e7906150d0565b60008481526101fd602052604090208190556001600160a01b038516613dd85760405162461bcd60e51b81526004016105e790615159565b6000613de2611eac565b9050613e0381600088613df4896123ec565b613dfd896123ec565b88610a69565b60008581526097602090815260408083206001600160a01b038a168452909152902054613e309085611f47565b60008681526097602090815260408083206001600160a01b038b168452909152812091909155610a6990829088888888612431565b6001600160e01b03198082161415613ec4576040805162461bcd60e51b815260206004820152601c60248201527f4552433136353a20696e76616c696420696e7465726661636520696400000000604482015290519081900360640190fd5b6001600160e01b0319166000908152606560205260409020805460ff19166001179055565b600054610100900460ff1680613f025750613f02613011565b80613f10575060005460ff16155b613f4b5760405162461bcd60e51b815260040180806020018281038252602e8152602001806154ab602e913960400191505060405180910390fd5b600054610100900460ff16158015613f76576000805460ff1961ff0019909116610100171660011790555b8251602080850191909120835191840191909120610162919091556101635580156105fb576000805461ff0019169055505050565b80516110c79060999060208401906143e5565b6000613fc861408a565b82604051602001808061190160f01b81525060020183815260200182815260200192505050604051602081830303815290604052805190602001209050919050565b60008151604114614062576040805162461bcd60e51b815260206004820152601f60248201527f45434453413a20696e76616c6964207369676e6174757265206c656e67746800604482015290519081900360640190fd5b60208201516040830151606084015160001a614080868285856140ca565b9695505050505050565b60006140c57f8b73c3c69bb8fe3d512ecc4cf759cc79239f7b179b0ffacaa9a75d522b39400f6140b8614320565b6140c0614327565b61432e565b905090565b60007f7fffffffffffffffffffffffffffffff5d576e7357a4501ddfe92f46681b20a082111561412b5760405162461bcd60e51b81526004018080602001828103825260228152602001806154326022913960400191505060405180910390fd5b6000601e8560ff161115614205576004850360ff16601b148061415457506004850360ff16601c145b61418f5760405162461bcd60e51b81526004018080602001828103825260228152602001806154d96022913960400191505060405180910390fd5b600161419a87614390565b60048703868660405160008152602001604052604051808581526020018460ff1681526020018381526020018281526020019450505050506020604051602081039080840390855afa1580156141f4573d6000803e3d6000fd5b5050506020604051035190506142bc565b8460ff16601b148061421a57508460ff16601c145b6142555760405162461bcd60e51b81526004018080602001828103825260228152602001806154d96022913960400191505060405180910390fd5b60018686868660405160008152602001604052604051808581526020018460ff1681526020018381526020018281526020019450505050506020604051602081039080840390855afa1580156142af573d6000803e3d6000fd5b5050506020604051035190505b6001600160a01b038116614317576040805162461bcd60e51b815260206004820152601860248201527f45434453413a20696e76616c6964207369676e61747572650000000000000000604482015290519081900360640190fd5b95945050505050565b6101625490565b6101635490565b600083838361433b6143e1565b3060405160200180868152602001858152602001848152602001838152602001826001600160a01b03168152602001955050505050506040516020818303038152906040528051906020012090509392505050565b604080517f19457468657265756d205369676e6564204d6573736167653a0a333200000000602080830191909152603c8083019490945282518083039094018452605c909101909152815191012090565b4690565b828054600181600116156101000203166002900490600052602060002090601f01602090048101928261441b5760008555614461565b82601f1061443457805160ff1916838001178555614461565b82800160010185558215614461579182015b82811115614461578251825591602001919060010190614446565b5061446d929150614471565b5090565b5b8082111561446d5760008155600101614472565b80356104bd81615302565b600082601f8301126144a1578081fd5b813560206144b66144b18361523b565b615218565b82815281810190858301838502870184018810156144d2578586fd5b855b858110156144f95781356144e781615302565b845292840192908401906001016144d4565b5090979650505050505050565b600082601f830112614516578081fd5b813560206145266144b18361523b565b82815281810190858301855b858110156144f957614549898684358b0101614670565b84529284019290840190600101614532565b600082601f83011261456b578081fd5b8135602061457b6144b18361523b565b82815281810190858301604080860288018501891015614599578687fd5b865b868110156146085781838b0312156145b1578788fd5b81518281018181106001600160401b03821117156145cb57fe5b835283356145d881615302565b8152838701356001600160601b03811681146145f257898afd5b818801528552938501939181019160010161459b565b509198975050505050505050565b600082601f830112614626578081fd5b813560206146366144b18361523b565b8281528181019085830183850287018401881015614652578586fd5b855b858110156144f957813584529284019290840190600101614654565b600082601f830112614680578081fd5b81356001600160401b0381111561469357fe5b6146a6601f8201601f1916602001615218565b8181528460208386010111156146ba578283fd5b816020850160208301379081016020019190915292915050565b600060c082840312156146e5578081fd5b6146ef60c0615218565b90508135815260208201356001600160401b038082111561470f57600080fd5b61471b85838601614670565b602084015260408401356040840152606084013591508082111561473e57600080fd5b61474a8583860161455b565b6060840152608084013591508082111561476357600080fd5b61476f8583860161455b565b608084015260a084013591508082111561478857600080fd5b5061479584828501614506565b60a08301525092915050565b6000602082840312156147b2578081fd5b81356114af81615302565b600080604083850312156147cf578081fd5b82356147da81615302565b915060208301356147ea81615302565b809150509250929050565b600080600080600060a0868803121561480c578081fd5b853561481781615302565b9450602086013561482781615302565b935060408601356001600160401b0380821115614842578283fd5b61484e89838a01614616565b94506060880135915080821115614863578283fd5b61486f89838a01614616565b93506080880135915080821115614884578283fd5b5061489188828901614670565b9150509295509295909350565b600080600080600060a086880312156148b5578283fd5b85356148c081615302565b945060208601356148d081615302565b9350604086013592506060860135915060808601356001600160401b038111156148f8578182fd5b61489188828901614670565b600080600060608486031215614918578081fd5b833561492381615302565b925060208401356001600160401b038082111561493e578283fd5b61494a87838801614616565b9350604086013591508082111561495f578283fd5b5061496c86828701614616565b9150509250925092565b60008060408385031215614988578182fd5b823561499381615302565b9150602083013580151581146147ea578182fd5b600080604083850312156149b9578182fd5b82356149c481615302565b946020939093013593505050565b6000806000606084860312156149e6578081fd5b83356149f181615302565b95602085013595506040909401359392505050565b600060208284031215614a17578081fd5b81356001600160401b03811115614a2c578182fd5b614a3884828501614491565b949350505050565b60008060408385031215614a52578182fd5b82356001600160401b0380821115614a68578384fd5b614a7486838701614491565b93506020850135915080821115614a89578283fd5b50614a9685828601614616565b9150509250929050565b600060208284031215614ab1578081fd5b81356001600160e01b0319811681146114af578182fd5b600060208284031215614ad9578081fd5b81356001600160401b03811115614aee578182fd5b614a3884828501614670565b60008060008060008060c08789031215614b12578384fd5b86356001600160401b0380821115614b28578586fd5b614b348a838b01614670565b97506020890135915080821115614b49578586fd5b614b558a838b01614670565b96506040890135915080821115614b6a578586fd5b614b768a838b01614670565b95506060890135915080821115614b8b578283fd5b50614b9889828a01614670565b935050614ba760808801614486565b9150614bb560a08801614486565b90509295509295509295565b600080600080600080600060e0888a031215614bdb578485fd5b87356001600160401b0380821115614bf1578687fd5b614bfd8b838c01614670565b985060208a0135915080821115614c12578687fd5b614c1e8b838c01614670565b975060408a0135915080821115614c33578687fd5b614c3f8b838c01614670565b965060608a0135915080821115614c54578283fd5b614c608b838c01614670565b955060808a0135915080821115614c75578283fd5b50614c828a828b01614491565b935050614c9160a08901614486565b9150614c9f60c08901614486565b905092959891949750929550565b60008060008060808587031215614cc2578182fd5b84356001600160401b03811115614cd7578283fd5b614ce3878288016146d4565b9450506020850135614cf481615302565b92506040850135614d0481615302565b9396929550929360600135925050565b600080600060608486031215614d28578081fd5b83356001600160401b03811115614d3d578182fd5b614d49868287016146d4565b9350506020840135614d5a81615302565b929592945050506040919091013590565b600060208284031215614d7c578081fd5b5035919050565b600080600060608486031215614d97578081fd5b833592506020840135614da981615302565b91506040840135614db981615302565b809150509250925092565b60008060408385031215614dd6578182fd5b50508035926020909101359150565b6000815180845260208085019450808401835b83811015614e3157815180516001600160a01b031688528301516001600160601b03168388015260409096019590820190600101614df8565b509495945050505050565b6000815180845260208085019450808401835b83811015614e3157815187529582019590820190600101614e4f565b60008151808452815b81811015614e9057602081850181015186830182015201614e74565b81811115614ea15782602083870101525b50601f01601f19169290920160200192915050565b6001600160a01b0391909116815260200190565b6001600160a01b0384168152606060208201819052600090614eee90830185614e6b565b82810360408401526140808185614e6b565b6001600160a01b03929092168252602082015260400190565b6000602082526114af6020830184614de5565b6000602082526114af6020830184614e3c565b600060408252614f526040830185614e3c565b82810360208401526143178185614e3c565b901515815260200190565b6000602082526114af6020830184614e6b565b6020808252601390820152723737ba1037bbb732b91037b91036b4b73a32b960691b604082015260600190565b60208082526010908201526f1cdd5c1c1b1e481a5b98dbdc9c9958dd60821b604082015260600190565b6020808252818101527f43726561746f722073686172652073686f756c6420626520706f736974697665604082015260600190565b6020808252601190820152701d1bdad95b9259081a5b98dbdc9c9958dd607a1b604082015260600190565b6020808252600b908201526a1b9bdd08185b1b1bddd95960aa1b604082015260600190565b60208082526010908201526f185b5bdd5b9d081a5b98dbdc9c9958dd60821b604082015260600190565b60208082526028908201527f455243313135353a207472616e736665722063616c6c6572206973206e6f7420604082015267185c1c1c9bdd995960c21b606082015260800190565b60208082526010908201526f6d6f7265207468616e20737570706c7960801b604082015260600190565b60208082526019908201527f4163636f756e742073686f756c642062652070726573656e7400000000000000604082015260600190565b6020808252600e908201526d69647320213d20616d6f756e747360901b604082015260600190565b60208082526021908201527f455243313135353a206d696e7420746f20746865207a65726f206164647265736040820152607360f81b606082015260800190565b6020808252602e908201527f746f74616c20616d6f756e74206f662063726561746f7273207368617265207360408201526d0686f756c642062652031303030360941b606082015260800190565b90815260200190565b600083825260406020830152614a386040830184614de5565b918252602082015260400190565b6040518181016001600160401b038111828210171561523357fe5b604052919050565b60006001600160401b0382111561524e57fe5b5060209081020190565b60e01c90565b600060443d101561526e57610f33565b600481823e6308c379a06152828251615258565b1461528c57610f33565b6040513d600319016004823e80513d6001600160401b0381602484011181841117156152bb5750505050610f33565b828401925082519150808211156152d55750505050610f33565b503d830160208284010111156152ed57505050610f33565b601f01601f1916810160200160405291505090565b6001600160a01b038116811461311957600080fdfe455243313135353a207472616e7366657220746f206e6f6e2045524331313535526563656976657220696d706c656d656e746572455243313135353a204552433131353552656365697665722072656a656374656420746f6b656e73c3d58168c5ae7397731d063d5bbf3d657854427343f4c083240f7aacaa2d0f62455243313135353a2062616c616e636520717565727920666f7220746865207a65726f20616464726573734f776e61626c653a206e6577206f776e657220697320746865207a65726f2061646472657373455243313135353a206275726e20616d6f756e7420657863656564732062616c616e6365455243313135353a2063616c6c6572206973206e6f74206f776e6572206e6f7220617070726f76656445434453413a20696e76616c6964207369676e6174757265202773272076616c7565455243313135353a207472616e7366657220746f20746865207a65726f2061646472657373455243313135353a207472616e736665722063616c6c6572206973206e6f74206f776e6572206e6f7220617070726f766564496e697469616c697a61626c653a20636f6e747261637420697320616c726561647920696e697469616c697a656445434453413a20696e76616c6964207369676e6174757265202776272076616c7565455243313135353a206275726e2066726f6d20746865207a65726f2061646472657373455243313135353a20696e73756666696369656e742062616c616e636520666f72207472616e736665724f776e61626c653a2063616c6c6572206973206e6f7420746865206f776e6572526f79616c747920746f74616c2076616c75652073686f756c64206265203c203130303030455243313135353a2073657474696e6720617070726f76616c2073746174757320666f722073656c66455243313135353a206163636f756e747320616e6420696473206c656e677468206d69736d61746368455243313135353a2069647320616e6420616d6f756e7473206c656e677468206d69736d61746368a2646970667358221220ae797c59fedc2b400b3bf0014d619dcdb93c789ea67bdaaa9bacc1958c1d896e64736f6c63430007060033",
  "immutableReferences": {},
  "source": "// SPDX-License-Identifier: MIT\n\npragma solidity 0.7.6;\npragma abicoder v2;\n\nimport \"./ERC1155Base.sol\";\nimport \"../IsPrivateCollection.sol\";\nimport \"../access/MinterAccessControl.sol\";\n\ncontract ERC1155Rarible is ERC1155Base, IsPrivateCollection, MinterAccessControl {\n    event CreateERC1155Rarible(address owner, string name, string symbol);\n    event CreateERC1155RaribleUser(address owner, string name, string symbol);\n\n    function __ERC1155RaribleUser_init(string memory _name, string memory _symbol, string memory baseURI, string memory contractURI, address[] memory operators, address transferProxy, address lazyTransferProxy) external virtual {\n        __ERC1155Rarible_init_unchained(_name, _symbol, baseURI, contractURI, transferProxy, lazyTransferProxy);\n        \n        isPrivate = true;\n        emit CreateERC1155RaribleUser(_msgSender(), _name, _symbol);\n    }\n    \n    function __ERC1155Rarible_init(string memory _name, string memory _symbol, string memory baseURI, string memory contractURI, address transferProxy, address lazyTransferProxy) external virtual {\n        __ERC1155Rarible_init_unchained(_name, _symbol, baseURI, contractURI, transferProxy, lazyTransferProxy);\n\n        isPrivate = false;\n        emit CreateERC1155Rarible(_msgSender(), _name, _symbol);\n    }\n\n    function __ERC1155Rarible_init_unchained(string memory _name, string memory _symbol, string memory baseURI, string memory contractURI, address transferProxy, address lazyTransferProxy) internal initializer {\n        __Ownable_init_unchained();\n        __ERC1155Lazy_init_unchained();\n        __ERC165_init_unchained();\n        __Context_init_unchained();\n        __Mint1155Validator_init_unchained();\n        __ERC1155_init_unchained(\"\");\n        __HasContractURI_init_unchained(contractURI);\n        __ERC1155Burnable_init_unchained();\n        __RoyaltiesV2Upgradeable_init_unchained();\n        __ERC1155Base_init_unchained(_name, _symbol);\n        __MinterAccessControl_init_unchained();\n        _setBaseURI(baseURI);\n\n        //setting default approver for transferProxies\n        _setDefaultApproval(transferProxy, true);\n        _setDefaultApproval(lazyTransferProxy, true);\n    }\n\n    function mintAndTransfer(LibERC1155LazyMint.Mint1155Data memory data, address to, uint256 _amount) public override {\n        if (isPrivate){\n          require(owner() == data.creators[0].account || isMinter(data.creators[0].account), \"not owner or minter\");\n        }\n        super.mintAndTransfer(data, to, _amount);\n    }\n}\n",
  "sourcePath": "@rarible/tokens/contracts/erc-1155/ERC1155Rarible.sol",
  "compiler": {
    "name": "solc",
    "version": "0.7.6+commit.7338295f.Emscripten.clang"
  },
  "schemaVersion": "3.4.5",
  "updatedAt": "2022-10-25T13:07:07.801Z",
  "devdoc": {
    "kind": "dev",
    "methods": {
      "addMinter(address)": {
        "details": "Add `minter` to the list of allowed minters."
      },
      "addMinters(address[])": {
        "details": "Add `minters` to the list of allowed minters."
      },
      "balanceOf(address,uint256)": {
        "details": "See {IERC1155-balanceOf}. Requirements: - `account` cannot be the zero address."
      },
      "balanceOfBatch(address[],uint256[])": {
        "details": "See {IERC1155-balanceOfBatch}. Requirements: - `accounts` and `ids` must have the same length."
      },
      "baseURI()": {
        "details": "Returns the base URI set via {_setBaseURI}. This will be automatically added as a prefix in {tokenURI} to each token's URI, or to the token ID if no specific URI is set for that token ID."
      },
      "isMinter(address)": {
        "details": "Returns `true` if `account` has been granted to minters."
      },
      "owner()": {
        "details": "Returns the address of the current owner."
      },
      "removeMinter(address)": {
        "details": "Revoke `_minter` from the list of allowed minters."
      },
      "renounceOwnership()": {
        "details": "Leaves the contract without owner. It will not be possible to call `onlyOwner` functions anymore. Can only be called by the current owner. NOTE: Renouncing ownership will leave the contract without an owner, thereby removing any functionality that is only available to the owner."
      },
      "safeBatchTransferFrom(address,address,uint256[],uint256[],bytes)": {
        "details": "See {IERC1155-safeBatchTransferFrom}."
      },
      "safeTransferFrom(address,address,uint256,uint256,bytes)": {
        "details": "See {IERC1155-safeTransferFrom}."
      },
      "setApprovalForAll(address,bool)": {
        "details": "See {IERC1155-setApprovalForAll}."
      },
      "transferOwnership(address)": {
        "details": "Transfers ownership of the contract to a new account (`newOwner`). Can only be called by the current owner."
      }
    },
    "version": 1
  },
  "userdoc": {
    "kind": "user",
    "methods": {},
    "version": 1
  }
}