{
  "contractName": "ERC1155RaribleMeta",
  "abi": [
    {
      "anonymous": false,
      "inputs": [
        {
          "indexed": true,
          "internalType": "address",
          "name": "account",
          "type": "address"
        },
        {
          "indexed": true,
          "internalType": "address",
          "name": "operator",
          "type": "address"
        },
        {
          "indexed": false,
          "internalType": "bool",
          "name": "approved",
          "type": "bool"
        }
      ],
      "name": "ApprovalForAll",
      "type": "event"
    },
    {
      "anonymous": false,
      "inputs": [
        {
          "indexed": false,
          "internalType": "string",
          "name": "newBaseURI",
          "type": "string"
        }
      ],
      "name": "BaseUriChanged",
      "type": "event"
    },
    {
      "anonymous": false,
      "inputs": [
        {
          "indexed": true,
          "internalType": "address",
          "name": "operator",
          "type": "address"
        },
        {
          "indexed": true,
          "internalType": "address",
          "name": "account",
          "type": "address"
        },
        {
          "indexed": false,
          "internalType": "uint256",
          "name": "id",
          "type": "uint256"
        },
        {
          "indexed": false,
          "internalType": "uint256",
          "name": "amount",
          "type": "uint256"
        }
      ],
      "name": "BurnLazy",
      "type": "event"
    },
    {
      "anonymous": false,
      "inputs": [
        {
          "indexed": true,
          "internalType": "address",
          "name": "operator",
          "type": "address"
        },
        {
          "indexed": true,
          "internalType": "address",
          "name": "account",
          "type": "address"
        },
        {
          "indexed": false,
          "internalType": "uint256[]",
          "name": "ids",
          "type": "uint256[]"
        },
        {
          "indexed": false,
          "internalType": "uint256[]",
          "name": "amounts",
          "type": "uint256[]"
        }
      ],
      "name": "BurnLazyBatch",
      "type": "event"
    },
    {
      "anonymous": false,
      "inputs": [
        {
          "indexed": false,
          "internalType": "address",
          "name": "owner",
          "type": "address"
        },
        {
          "indexed": false,
          "internalType": "string",
          "name": "name",
          "type": "string"
        },
        {
          "indexed": false,
          "internalType": "string",
          "name": "symbol",
          "type": "string"
        }
      ],
      "name": "CreateERC1155Rarible",
      "type": "event"
    },
    {
      "anonymous": false,
      "inputs": [
        {
          "indexed": false,
          "internalType": "address",
          "name": "owner",
          "type": "address"
        },
        {
          "indexed": false,
          "internalType": "string",
          "name": "name",
          "type": "string"
        },
        {
          "indexed": false,
          "internalType": "string",
          "name": "symbol",
          "type": "string"
        }
      ],
      "name": "CreateERC1155RaribleUser",
      "type": "event"
    },
    {
      "anonymous": false,
      "inputs": [
        {
          "indexed": false,
          "internalType": "uint256",
          "name": "tokenId",
          "type": "uint256"
        },
        {
          "components": [
            {
              "internalType": "address payable",
              "name": "account",
              "type": "address"
            },
            {
              "internalType": "uint96",
              "name": "value",
              "type": "uint96"
            }
          ],
          "indexed": false,
          "internalType": "struct LibPart.Part[]",
          "name": "creators",
          "type": "tuple[]"
        }
      ],
      "name": "Creators",
      "type": "event"
    },
    {
      "anonymous": false,
      "inputs": [
        {
          "indexed": true,
          "internalType": "address",
          "name": "operator",
          "type": "address"
        },
        {
          "indexed": false,
          "internalType": "bool",
          "name": "hasApproval",
          "type": "bool"
        }
      ],
      "name": "DefaultApproval",
      "type": "event"
    },
    {
      "anonymous": false,
      "inputs": [
        {
          "indexed": false,
          "internalType": "address",
          "name": "userAddress",
          "type": "address"
        },
        {
          "indexed": false,
          "internalType": "address payable",
          "name": "relayerAddress",
          "type": "address"
        },
        {
          "indexed": false,
          "internalType": "bytes",
          "name": "functionSignature",
          "type": "bytes"
        }
      ],
      "name": "MetaTransactionExecuted",
      "type": "event"
    },
    {
      "anonymous": false,
      "inputs": [
        {
          "indexed": true,
          "internalType": "address",
          "name": "minter",
          "type": "address"
        },
        {
          "indexed": true,
          "internalType": "bool",
          "name": "status",
          "type": "bool"
        }
      ],
      "name": "MinterStatusChanged",
      "type": "event"
    },
    {
      "anonymous": false,
      "inputs": [
        {
          "indexed": true,
          "internalType": "address",
          "name": "previousOwner",
          "type": "address"
        },
        {
          "indexed": true,
          "internalType": "address",
          "name": "newOwner",
          "type": "address"
        }
      ],
      "name": "OwnershipTransferred",
      "type": "event"
    },
    {
      "anonymous": false,
      "inputs": [
        {
          "indexed": false,
          "internalType": "uint256",
          "name": "tokenId",
          "type": "uint256"
        },
        {
          "components": [
            {
              "internalType": "address payable",
              "name": "account",
              "type": "address"
            },
            {
              "internalType": "uint96",
              "name": "value",
              "type": "uint96"
            }
          ],
          "indexed": false,
          "internalType": "struct LibPart.Part[]",
          "name": "royalties",
          "type": "tuple[]"
        }
      ],
      "name": "RoyaltiesSet",
      "type": "event"
    },
    {
      "anonymous": false,
      "inputs": [
        {
          "indexed": false,
          "internalType": "uint256",
          "name": "tokenId",
          "type": "uint256"
        },
        {
          "indexed": false,
          "internalType": "uint256",
          "name": "value",
          "type": "uint256"
        }
      ],
      "name": "Supply",
      "type": "event"
    },
    {
      "anonymous": false,
      "inputs": [
        {
          "indexed": true,
          "internalType": "address",
          "name": "operator",
          "type": "address"
        },
        {
          "indexed": true,
          "internalType": "address",
          "name": "from",
          "type": "address"
        },
        {
          "indexed": true,
          "internalType": "address",
          "name": "to",
          "type": "address"
        },
        {
          "indexed": false,
          "internalType": "uint256[]",
          "name": "ids",
          "type": "uint256[]"
        },
        {
          "indexed": false,
          "internalType": "uint256[]",
          "name": "values",
          "type": "uint256[]"
        }
      ],
      "name": "TransferBatch",
      "type": "event"
    },
    {
      "anonymous": false,
      "inputs": [
        {
          "indexed": true,
          "internalType": "address",
          "name": "operator",
          "type": "address"
        },
        {
          "indexed": true,
          "internalType": "address",
          "name": "from",
          "type": "address"
        },
        {
          "indexed": true,
          "internalType": "address",
          "name": "to",
          "type": "address"
        },
        {
          "indexed": false,
          "internalType": "uint256",
          "name": "id",
          "type": "uint256"
        },
        {
          "indexed": false,
          "internalType": "uint256",
          "name": "value",
          "type": "uint256"
        }
      ],
      "name": "TransferSingle",
      "type": "event"
    },
    {
      "anonymous": false,
      "inputs": [
        {
          "indexed": false,
          "internalType": "string",
          "name": "value",
          "type": "string"
        },
        {
          "indexed": true,
          "internalType": "uint256",
          "name": "id",
          "type": "uint256"
        }
      ],
      "name": "URI",
      "type": "event"
    },
    {
      "inputs": [
        {
          "internalType": "address",
          "name": "minter",
          "type": "address"
        }
      ],
      "name": "addMinter",
      "outputs": [],
      "stateMutability": "nonpayable",
      "type": "function"
    },
    {
      "inputs": [
        {
          "internalType": "address[]",
          "name": "minters",
          "type": "address[]"
        }
      ],
      "name": "addMinters",
      "outputs": [],
      "stateMutability": "nonpayable",
      "type": "function"
    },
    {
      "inputs": [
        {
          "internalType": "address",
          "name": "account",
          "type": "address"
        },
        {
          "internalType": "uint256",
          "name": "id",
          "type": "uint256"
        }
      ],
      "name": "balanceOf",
      "outputs": [
        {
          "internalType": "uint256",
          "name": "",
          "type": "uint256"
        }
      ],
      "stateMutability": "view",
      "type": "function"
    },
    {
      "inputs": [
        {
          "internalType": "address[]",
          "name": "accounts",
          "type": "address[]"
        },
        {
          "internalType": "uint256[]",
          "name": "ids",
          "type": "uint256[]"
        }
      ],
      "name": "balanceOfBatch",
      "outputs": [
        {
          "internalType": "uint256[]",
          "name": "",
          "type": "uint256[]"
        }
      ],
      "stateMutability": "view",
      "type": "function"
    },
    {
      "inputs": [],
      "name": "baseURI",
      "outputs": [
        {
          "internalType": "string",
          "name": "",
          "type": "string"
        }
      ],
      "stateMutability": "view",
      "type": "function"
    },
    {
      "inputs": [
        {
          "internalType": "address",
          "name": "account",
          "type": "address"
        },
        {
          "internalType": "uint256",
          "name": "id",
          "type": "uint256"
        },
        {
          "internalType": "uint256",
          "name": "amount",
          "type": "uint256"
        }
      ],
      "name": "burn",
      "outputs": [],
      "stateMutability": "nonpayable",
      "type": "function"
    },
    {
      "inputs": [
        {
          "internalType": "address",
          "name": "account",
          "type": "address"
        },
        {
          "internalType": "uint256[]",
          "name": "ids",
          "type": "uint256[]"
        },
        {
          "internalType": "uint256[]",
          "name": "amounts",
          "type": "uint256[]"
        }
      ],
      "name": "burnBatch",
      "outputs": [],
      "stateMutability": "nonpayable",
      "type": "function"
    },
    {
      "inputs": [],
      "name": "contractURI",
      "outputs": [
        {
          "internalType": "string",
          "name": "",
          "type": "string"
        }
      ],
      "stateMutability": "view",
      "type": "function"
    },
    {
      "inputs": [
        {
          "internalType": "address",
          "name": "userAddress",
          "type": "address"
        },
        {
          "internalType": "bytes",
          "name": "functionSignature",
          "type": "bytes"
        },
        {
          "internalType": "bytes32",
          "name": "sigR",
          "type": "bytes32"
        },
        {
          "internalType": "bytes32",
          "name": "sigS",
          "type": "bytes32"
        },
        {
          "internalType": "uint8",
          "name": "sigV",
          "type": "uint8"
        }
      ],
      "name": "executeMetaTransaction",
      "outputs": [
        {
          "internalType": "bytes",
          "name": "",
          "type": "bytes"
        }
      ],
      "stateMutability": "payable",
      "type": "function"
    },
    {
      "inputs": [
        {
          "internalType": "uint256",
          "name": "_id",
          "type": "uint256"
        }
      ],
      "name": "getCreators",
      "outputs": [
        {
          "components": [
            {
              "internalType": "address payable",
              "name": "account",
              "type": "address"
            },
            {
              "internalType": "uint96",
              "name": "value",
              "type": "uint96"
            }
          ],
          "internalType": "struct LibPart.Part[]",
          "name": "",
          "type": "tuple[]"
        }
      ],
      "stateMutability": "view",
      "type": "function"
    },
    {
      "inputs": [
        {
          "internalType": "address",
          "name": "user",
          "type": "address"
        }
      ],
      "name": "getNonce",
      "outputs": [
        {
          "internalType": "uint256",
          "name": "nonce",
          "type": "uint256"
        }
      ],
      "stateMutability": "view",
      "type": "function"
    },
    {
      "inputs": [
        {
          "internalType": "uint256",
          "name": "id",
          "type": "uint256"
        }
      ],
      "name": "getRaribleV2Royalties",
      "outputs": [
        {
          "components": [
            {
              "internalType": "address payable",
              "name": "account",
              "type": "address"
            },
            {
              "internalType": "uint96",
              "name": "value",
              "type": "uint96"
            }
          ],
          "internalType": "struct LibPart.Part[]",
          "name": "",
          "type": "tuple[]"
        }
      ],
      "stateMutability": "view",
      "type": "function"
    },
    {
      "inputs": [
        {
          "internalType": "address",
          "name": "_owner",
          "type": "address"
        },
        {
          "internalType": "address",
          "name": "_operator",
          "type": "address"
        }
      ],
      "name": "isApprovedForAll",
      "outputs": [
        {
          "internalType": "bool",
          "name": "",
          "type": "bool"
        }
      ],
      "stateMutability": "view",
      "type": "function"
    },
    {
      "inputs": [
        {
          "internalType": "address",
          "name": "account",
          "type": "address"
        }
      ],
      "name": "isMinter",
      "outputs": [
        {
          "internalType": "bool",
          "name": "",
          "type": "bool"
        }
      ],
      "stateMutability": "view",
      "type": "function"
    },
    {
      "inputs": [],
      "name": "name",
      "outputs": [
        {
          "internalType": "string",
          "name": "",
          "type": "string"
        }
      ],
      "stateMutability": "view",
      "type": "function"
    },
    {
      "inputs": [],
      "name": "owner",
      "outputs": [
        {
          "internalType": "address",
          "name": "",
          "type": "address"
        }
      ],
      "stateMutability": "view",
      "type": "function"
    },
    {
      "inputs": [
        {
          "internalType": "address",
          "name": "_minter",
          "type": "address"
        }
      ],
      "name": "removeMinter",
      "outputs": [],
      "stateMutability": "nonpayable",
      "type": "function"
    },
    {
      "inputs": [],
      "name": "renounceOwnership",
      "outputs": [],
      "stateMutability": "nonpayable",
      "type": "function"
    },
    {
      "inputs": [
        {
          "internalType": "uint256",
          "name": "id",
          "type": "uint256"
        },
        {
          "internalType": "uint256",
          "name": "_salePrice",
          "type": "uint256"
        }
      ],
      "name": "royaltyInfo",
      "outputs": [
        {
          "internalType": "address",
          "name": "receiver",
          "type": "address"
        },
        {
          "internalType": "uint256",
          "name": "royaltyAmount",
          "type": "uint256"
        }
      ],
      "stateMutability": "view",
      "type": "function"
    },
    {
      "inputs": [
        {
          "internalType": "address",
          "name": "from",
          "type": "address"
        },
        {
          "internalType": "address",
          "name": "to",
          "type": "address"
        },
        {
          "internalType": "uint256[]",
          "name": "ids",
          "type": "uint256[]"
        },
        {
          "internalType": "uint256[]",
          "name": "amounts",
          "type": "uint256[]"
        },
        {
          "internalType": "bytes",
          "name": "data",
          "type": "bytes"
        }
      ],
      "name": "safeBatchTransferFrom",
      "outputs": [],
      "stateMutability": "nonpayable",
      "type": "function"
    },
    {
      "inputs": [
        {
          "internalType": "address",
          "name": "from",
          "type": "address"
        },
        {
          "internalType": "address",
          "name": "to",
          "type": "address"
        },
        {
          "internalType": "uint256",
          "name": "id",
          "type": "uint256"
        },
        {
          "internalType": "uint256",
          "name": "amount",
          "type": "uint256"
        },
        {
          "internalType": "bytes",
          "name": "data",
          "type": "bytes"
        }
      ],
      "name": "safeTransferFrom",
      "outputs": [],
      "stateMutability": "nonpayable",
      "type": "function"
    },
    {
      "inputs": [
        {
          "internalType": "address",
          "name": "operator",
          "type": "address"
        },
        {
          "internalType": "bool",
          "name": "approved",
          "type": "bool"
        }
      ],
      "name": "setApprovalForAll",
      "outputs": [],
      "stateMutability": "nonpayable",
      "type": "function"
    },
    {
      "inputs": [
        {
          "internalType": "string",
          "name": "newBaseURI",
          "type": "string"
        }
      ],
      "name": "setBaseURI",
      "outputs": [],
      "stateMutability": "nonpayable",
      "type": "function"
    },
    {
      "inputs": [
        {
          "internalType": "bytes4",
          "name": "interfaceId",
          "type": "bytes4"
        }
      ],
      "name": "supportsInterface",
      "outputs": [
        {
          "internalType": "bool",
          "name": "",
          "type": "bool"
        }
      ],
      "stateMutability": "view",
      "type": "function"
    },
    {
      "inputs": [],
      "name": "symbol",
      "outputs": [
        {
          "internalType": "string",
          "name": "",
          "type": "string"
        }
      ],
      "stateMutability": "view",
      "type": "function"
    },
    {
      "inputs": [
        {
          "components": [
            {
              "internalType": "uint256",
              "name": "tokenId",
              "type": "uint256"
            },
            {
              "internalType": "string",
              "name": "tokenURI",
              "type": "string"
            },
            {
              "internalType": "uint256",
              "name": "supply",
              "type": "uint256"
            },
            {
              "components": [
                {
                  "internalType": "address payable",
                  "name": "account",
                  "type": "address"
                },
                {
                  "internalType": "uint96",
                  "name": "value",
                  "type": "uint96"
                }
              ],
              "internalType": "struct LibPart.Part[]",
              "name": "creators",
              "type": "tuple[]"
            },
            {
              "components": [
                {
                  "internalType": "address payable",
                  "name": "account",
                  "type": "address"
                },
                {
                  "internalType": "uint96",
                  "name": "value",
                  "type": "uint96"
                }
              ],
              "internalType": "struct LibPart.Part[]",
              "name": "royalties",
              "type": "tuple[]"
            },
            {
              "internalType": "bytes[]",
              "name": "signatures",
              "type": "bytes[]"
            }
          ],
          "internalType": "struct LibERC1155LazyMint.Mint1155Data",
          "name": "data",
          "type": "tuple"
        },
        {
          "internalType": "address",
          "name": "from",
          "type": "address"
        },
        {
          "internalType": "address",
          "name": "to",
          "type": "address"
        },
        {
          "internalType": "uint256",
          "name": "amount",
          "type": "uint256"
        }
      ],
      "name": "transferFromOrMint",
      "outputs": [],
      "stateMutability": "nonpayable",
      "type": "function"
    },
    {
      "inputs": [
        {
          "internalType": "address",
          "name": "newOwner",
          "type": "address"
        }
      ],
      "name": "transferOwnership",
      "outputs": [],
      "stateMutability": "nonpayable",
      "type": "function"
    },
    {
      "inputs": [
        {
          "internalType": "uint256",
          "name": "_id",
          "type": "uint256"
        },
        {
          "internalType": "address",
          "name": "_from",
          "type": "address"
        },
        {
          "internalType": "address",
          "name": "_to",
          "type": "address"
        }
      ],
      "name": "updateAccount",
      "outputs": [],
      "stateMutability": "nonpayable",
      "type": "function"
    },
    {
      "inputs": [
        {
          "internalType": "uint256",
          "name": "id",
          "type": "uint256"
        }
      ],
      "name": "uri",
      "outputs": [
        {
          "internalType": "string",
          "name": "",
          "type": "string"
        }
      ],
      "stateMutability": "view",
      "type": "function"
    },
    {
      "inputs": [
        {
          "internalType": "string",
          "name": "_name",
          "type": "string"
        },
        {
          "internalType": "string",
          "name": "_symbol",
          "type": "string"
        },
        {
          "internalType": "string",
          "name": "baseURI",
          "type": "string"
        },
        {
          "internalType": "string",
          "name": "contractURI",
          "type": "string"
        },
        {
          "internalType": "address[]",
          "name": "operators",
          "type": "address[]"
        },
        {
          "internalType": "address",
          "name": "transferProxy",
          "type": "address"
        },
        {
          "internalType": "address",
          "name": "lazyTransferProxy",
          "type": "address"
        }
      ],
      "name": "__ERC1155RaribleUser_init",
      "outputs": [],
      "stateMutability": "nonpayable",
      "type": "function"
    },
    {
      "inputs": [
        {
          "internalType": "string",
          "name": "_name",
          "type": "string"
        },
        {
          "internalType": "string",
          "name": "_symbol",
          "type": "string"
        },
        {
          "internalType": "string",
          "name": "baseURI",
          "type": "string"
        },
        {
          "internalType": "string",
          "name": "contractURI",
          "type": "string"
        },
        {
          "internalType": "address",
          "name": "transferProxy",
          "type": "address"
        },
        {
          "internalType": "address",
          "name": "lazyTransferProxy",
          "type": "address"
        }
      ],
      "name": "__ERC1155Rarible_init",
      "outputs": [],
      "stateMutability": "nonpayable",
      "type": "function"
    },
    {
      "inputs": [
        {
          "components": [
            {
              "internalType": "uint256",
              "name": "tokenId",
              "type": "uint256"
            },
            {
              "internalType": "string",
              "name": "tokenURI",
              "type": "string"
            },
            {
              "internalType": "uint256",
              "name": "supply",
              "type": "uint256"
            },
            {
              "components": [
                {
                  "internalType": "address payable",
                  "name": "account",
                  "type": "address"
                },
                {
                  "internalType": "uint96",
                  "name": "value",
                  "type": "uint96"
                }
              ],
              "internalType": "struct LibPart.Part[]",
              "name": "creators",
              "type": "tuple[]"
            },
            {
              "components": [
                {
                  "internalType": "address payable",
                  "name": "account",
                  "type": "address"
                },
                {
                  "internalType": "uint96",
                  "name": "value",
                  "type": "uint96"
                }
              ],
              "internalType": "struct LibPart.Part[]",
              "name": "royalties",
              "type": "tuple[]"
            },
            {
              "internalType": "bytes[]",
              "name": "signatures",
              "type": "bytes[]"
            }
          ],
          "internalType": "struct LibERC1155LazyMint.Mint1155Data",
          "name": "data",
          "type": "tuple"
        },
        {
          "internalType": "address",
          "name": "to",
          "type": "address"
        },
        {
          "internalType": "uint256",
          "name": "_amount",
          "type": "uint256"
        }
      ],
      "name": "mintAndTransfer",
      "outputs": [],
      "stateMutability": "nonpayable",
      "type": "function"
    }
  ],
  "bytecode": "0x608060405234801561001057600080fd5b50615fa380620000216000396000f3fe6080604052600436106101e25760003560e01c8063715018a611610102578063cad96cca11610095578063f242432a11610064578063f242432a1461057f578063f2fde38b1461059f578063f5298aca146105bf578063ffc4e0a7146105df576101e2565b8063cad96cca1461050a578063e07f23191461052a578063e8a3d4851461054a578063e985e9c51461055f576101e2565b806395d89b41116100d157806395d89b4114610495578063983b2d56146104aa578063a22cb465146104ca578063aa271e1a146104ea576101e2565b8063715018a61461041157806371e2a65714610426578063891be974146104465780638da5cb5b14610473576101e2565b80632d0335ab1161017a57806355f804b31161014957806355f804b31461039c57806361e05459146103bc5780636b20c454146103dc5780636c0360eb146103fc576101e2565b80632d0335ab1461030f5780632eb2c2d61461032f5780633092afd51461034f5780634e1273f41461036f576101e2565b80630e89341c116101b65780630e89341c1461027f5780630eaead671461029f578063173c43d2146102c15780632a55205a146102e1576101e2565b8062fdd58e146101e757806301ffc9a71461021d57806306fdde031461024a5780630c53c51c1461026c575b600080fd5b3480156101f357600080fd5b506102076102023660046152aa565b6105ff565b6040516102149190615aeb565b60405180910390f35b34801561022957600080fd5b5061023d6102383660046153a3565b610671565b6040516102149190615867565b34801561025657600080fd5b5061025f610684565b6040516102149190615872565b61025f61027a366004615230565b610713565b34801561028b57600080fd5b5061025f61029a36600461566e565b610a8c565b3480156102ab57600080fd5b506102bf6102ba366004615617565b610a97565b005b3480156102cd57600080fd5b506102bf6102dc3660046153fd565b610b3b565b3480156102ed57600080fd5b506103016102fc3660046156c7565b610beb565b604051610214929190615803565b34801561031b57600080fd5b5061020761032a36600461502a565b610cf9565b34801561033b57600080fd5b506102bf61034a36600461507e565b610d15565b34801561035b57600080fd5b506102bf61036a36600461502a565b611013565b34801561037b57600080fd5b5061038f61038a366004615343565b6110c3565b604051610214919061582f565b3480156103a857600080fd5b506102bf6103b73660046153cb565b6111ae565b3480156103c857600080fd5b506102bf6103d73660046154c4565b611253565b3480156103e857600080fd5b506102bf6103f736600461518d565b61130b565b34801561040857600080fd5b5061025f611491565b34801561041d57600080fd5b506102bf611529565b34801561043257600080fd5b506102bf610441366004615309565b6115d5565b34801561045257600080fd5b5061046661046136600461566e565b6116be565b604051610214919061581c565b34801561047f57600080fd5b5061048861174e565b60405161021491906157b9565b3480156104a157600080fd5b5061025f61175d565b3480156104b657600080fd5b506102bf6104c536600461502a565b6117b9565b3480156104d657600080fd5b506102bf6104e53660046151ff565b61186e565b3480156104f657600080fd5b5061023d61050536600461502a565b61195d565b34801561051657600080fd5b5061046661052536600461566e565b61197c565b34801561053657600080fd5b506102bf610545366004615686565b6119f7565b34801561055657600080fd5b5061025f611a3a565b34801561056b57600080fd5b5061023d61057a366004615046565b611a96565b34801561058b57600080fd5b506102bf61059a366004615127565b611aa9565b3480156105ab57600080fd5b506102bf6105ba36600461502a565b611c62565b3480156105cb57600080fd5b506102bf6105da3660046152d5565b611d65565b3480156105eb57600080fd5b506102bf6105fa3660046155b0565b611de1565b60006001600160a01b0383166106465760405162461bcd60e51b815260040180806020018281038252602b815260200180615c97602b913960400191505060405180910390fd5b5060008181526097602090815260408083206001600160a01b03861684529091529020545b92915050565b600061067c82611e3c565b90505b919050565b610262805460408051602060026001851615610100026000190190941693909304601f8101849004840282018401909252818152929183018282801561070b5780601f106106e05761010080835404028352916020019161070b565b820191906000526020600020905b8154815290600101906020018083116106ee57829003601f168201915b505050505081565b6060600061072086611edb565b90506000356001600160e01b03199081169082161415610787576040805162461bcd60e51b815260206004820152601760248201527f57726f6e672066756e6374696f6e5369676e6174757265000000000000000000604482015290519081900360640190fd5b604080516060810182526001600160a01b03891660008181526102fb6020908152908490205483528201529081018790526107c58882888888611ef7565b6108005760405162461bcd60e51b8152600401808060200182810382526021815260200180615eae6021913960400191505060405180910390fd5b6001600160a01b03881660009081526102fb6020526040902054610825906001611fe1565b6102fb60008a6001600160a01b03166001600160a01b0316815260200190815260200160002081905550600080306001600160a01b0316898b6040516020018083805190602001908083835b602083106108905780518252601f199092019160209182019101610871565b6001836020036101000a038019825116818451168082178552505050505050905001826001600160a01b031660601b8152601401925050506040516020818303038152906040526040518082805190602001908083835b602083106109065780518252601f1990920191602091820191016108e7565b6001836020036101000a0380198251168184511680821785525050505050509050019150506000604051808303816000865af19150503d8060008114610968576040519150601f19603f3d011682016040523d82523d6000602084013e61096d565b606091505b5091509150816109c4576040805162461bcd60e51b815260206004820152601c60248201527f46756e6374696f6e2063616c6c206e6f74207375636365737366756c00000000604482015290519081900360640190fd5b7f5845892132946850460bff5a0083f71031bc5bf9aadcd40f1de79423eac9b10b8a338b60405180846001600160a01b03168152602001836001600160a01b0316815260200180602001828103825283818151815260200191508051906020019080838360005b83811015610a43578181015183820152602001610a2b565b50505050905090810190601f168015610a705780820380516001836020036101000a031916815260200191505b5094505050505060405180910390a19998505050505050505050565b606061067c8261203b565b6102965460ff1615610b2b578260600151600081518110610ab457fe5b6020026020010151600001516001600160a01b0316610ad161174e565b6001600160a01b03161480610b065750610b068360600151600081518110610af557fe5b60200260200101516000015161195d565b610b2b5760405162461bcd60e51b8152600401610b2290615885565b60405180910390fd5b610b368383836121d1565b505050565b610b498686868686866124cd565b610b96604051806040016040528060128152602001714552433131353552617269626c654d65746160701b815250604051806040016040528060018152602001603160f81b8152506125ff565b610296805460ff191690557fcc215b7682459c30faa0e854780165d503a7d62d22a9aaaad6334585dc63343e610bca61268f565b8787604051610bdb939291906157cd565b60405180910390a1505050505050565b60008281526101fa60205260408120548190610c0c57506000905080610cf2565b60008481526101fa6020908152604080832080548251818502810185019093528083529192909190849084015b82821015610c8857600084815260209081902060408051808201909152908401546001600160a01b0381168252600160a01b90046001600160601b031681830152825260019092019101610c39565b50505050905080600081518110610c9b57fe5b60209081029190910101515192506000805b8251811015610ce657828181518110610cc257fe5b6020026020010151602001516001600160601b031682019150806001019050610cad565b50612710908502049150505b9250929050565b6001600160a01b031660009081526102fb602052604090205490565b8151835114610d555760405162461bcd60e51b8152600401808060200182810382526028815260200180615f466028913960400191505060405180910390fd5b6001600160a01b038416610d9a5760405162461bcd60e51b8152600401808060200182810382526025815260200180615d9a6025913960400191505060405180910390fd5b610da261268f565b6001600160a01b0316856001600160a01b03161480610dc85750610dc88561057a61268f565b610e035760405162461bcd60e51b8152600401808060200182810382526032815260200180615dbf6032913960400191505060405180910390fd5b6000610e0d61268f565b9050610e1d81878787878761100b565b60005b8451811015610f23576000858281518110610e3757fe5b602002602001015190506000858381518110610e4f57fe5b60200260200101519050610ebc816040518060600160405280602a8152602001615e64602a91396097600086815260200190815260200160002060008d6001600160a01b03166001600160a01b031681526020019081526020016000205461269e9092919063ffffffff16565b60008381526097602090815260408083206001600160a01b038e811685529252808320939093558a1681522054610ef39082611fe1565b60009283526097602090815260408085206001600160a01b038c1686529091529092209190915550600101610e20565b50846001600160a01b0316866001600160a01b0316826001600160a01b03167f4a39dc06d4c0dbc64b70af90fd698a233a518aa5d07e595d983b8c0526c8f7fb8787604051808060200180602001838103835285818151815260200191508051906020019060200280838360005b83811015610fa9578181015183820152602001610f91565b50505050905001838103825284818151815260200191508051906020019060200280838360005b83811015610fe8578181015183820152602001610fd0565b5050505090500194505050505060405180910390a461100b818787878787612735565b505050505050565b61101b61268f565b6001600160a01b031661102c61174e565b6001600160a01b031614611075576040805162461bcd60e51b81526020600482018190526024820152600080516020615e8e833981519152604482015290519081900360640190fd5b6001600160a01b03811660008181526102c86020526040808220805460ff19169055519091907f3042b80e435ae46c334b2cfec51a66d64c9a8a8af4cd0c279a124c35a09e91dd908390a350565b606081518351146111055760405162461bcd60e51b8152600401808060200182810382526029815260200180615f1d6029913960400191505060405180910390fd5b600083516001600160401b038111801561111e57600080fd5b50604051908082528060200260200182016040528015611148578160200160208202803683370190505b50905060005b84518110156111a65761118785828151811061116657fe5b602002602001015185838151811061117a57fe5b60200260200101516105ff565b82828151811061119357fe5b602090810291909101015260010161114e565b509392505050565b6111b661268f565b6001600160a01b03166111c761174e565b6001600160a01b031614611210576040805162461bcd60e51b81526020600482018190526024820152600080516020615e8e833981519152604482015290519081900360640190fd5b611219816129ab565b7f87cdeaffd8e70903d6ce7cc983fac3b09ca79e83818124c98e47a1d70f8027d6816040516112489190615872565b60405180910390a150565b6112618787878786866124cd565b6112b2604051806040016040528060168152602001754552433131353552617269626c65557365724d65746160501b815250604051806040016040528060018152602001603160f81b8152506125ff565b610296805460ff191660011790557f7da6bc204c8c4856a6aff786a6cb81c59477c782191dc51837d644a8ad50f2cc6112e961268f565b88886040516112fa939291906157cd565b60405180910390a150505050505050565b805182511461132c5760405162461bcd60e51b8152600401610b2290615a34565b600082516001600160401b038111801561134557600080fd5b5060405190808252806020026020018201604052801561136f578160200160208202803683370190505b509050600083516001600160401b038111801561138b57600080fd5b506040519080825280602002602001820160405280156113b5578160200160208202803683370190505b50905060005b845181101561142a576113f48582815181106113d357fe5b60200260200101518583815181106113e757fe5b60200260200101516129bf565b84838151811061140057fe5b6020026020010184848151811061141357fe5b6020908102919091010191909152526001016113bb565b50611436858584612a34565b846001600160a01b031661144861268f565b6001600160a01b03167fcf3391513e21a9d4a0348f8e890080170eba18dc62db35b60d8a518b7088eb3a8684604051611482929190615842565b60405180910390a35050505050565b61012f8054604080516020601f600260001961010060018816150201909516949094049384018190048102820181019092528281526060939092909183018282801561151e5780601f106114f35761010080835404028352916020019161151e565b820191906000526020600020905b81548152906001019060200180831161150157829003601f168201915b505050505090505b90565b61153161268f565b6001600160a01b031661154261174e565b6001600160a01b03161461158b576040805162461bcd60e51b81526020600482018190526024820152600080516020615e8e833981519152604482015290519081900360640190fd5b6033546040516000916001600160a01b0316907f8be0079c531659141344cd1fd0a4f28419497f9722a3daafe3b4186f6b6457e0908390a3603380546001600160a01b0319169055565b6115dd61268f565b6001600160a01b03166115ee61174e565b6001600160a01b031614611637576040805162461bcd60e51b81526020600482018190526024820152600080516020615e8e833981519152604482015290519081900360640190fd5b60005b81518110156116ba57600082828151811061165157fe5b6020908102919091018101516001600160a01b03811660008181526102c89093526040808420805460ff1916600190811790915590519294509290917f3042b80e435ae46c334b2cfec51a66d64c9a8a8af4cd0c279a124c35a09e91dd9190a35060010161163a565b5050565b60606101fb6000838152602001908152602001600020805480602002602001604051908101604052809291908181526020016000905b8282101561174357600084815260209081902060408051808201909152908401546001600160a01b0381168252600160a01b90046001600160601b0316818301528252600190920191016116f4565b505050509050919050565b6033546001600160a01b031690565b610263805460408051602060026001851615610100026000190190941693909304601f8101849004840282018401909252818152929183018282801561070b5780601f106106e05761010080835404028352916020019161070b565b6117c161268f565b6001600160a01b03166117d261174e565b6001600160a01b03161461181b576040805162461bcd60e51b81526020600482018190526024820152600080516020615e8e833981519152604482015290519081900360640190fd5b6001600160a01b03811660008181526102c86020526040808220805460ff1916600190811790915590519092917f3042b80e435ae46c334b2cfec51a66d64c9a8a8af4cd0c279a124c35a09e91dd91a350565b816001600160a01b031661188061268f565b6001600160a01b031614156118c65760405162461bcd60e51b8152600401808060200182810382526029815260200180615ef46029913960400191505060405180910390fd5b80609860006118d361268f565b6001600160a01b03908116825260208083019390935260409182016000908120918716808252919093529120805460ff19169215159290921790915561191761268f565b6001600160a01b03167f17307eab39ab6107e8899845ad3d59bd9653f200f220920489ca2b5937696c318360405180821515815260200191505060405180910390a35050565b6001600160a01b031660009081526102c8602052604090205460ff1690565b60008181526101fa6020908152604080832080548251818502810185019093528083526060949293919290918401821561174357600084815260209081902060408051808201909152908401546001600160a01b0381168252600160a01b90046001600160601b0316818301528252600190920191016116f4565b816001600160a01b0316611a0961268f565b6001600160a01b031614611a2f5760405162461bcd60e51b8152600401610b229061593c565b610b36838383612aa8565b610230805460408051602060026001851615610100026000190190941693909304601f8101849004840282018401909252818152929183018282801561070b5780601f106106e05761010080835404028352916020019161070b565b6000611aa28383612b54565b9392505050565b6001600160a01b038416611aee5760405162461bcd60e51b8152600401808060200182810382526025815260200180615d9a6025913960400191505060405180910390fd5b611af661268f565b6001600160a01b0316856001600160a01b03161480611b1c5750611b1c8561057a61268f565b611b575760405162461bcd60e51b8152600401808060200182810382526029815260200180615d4f6029913960400191505060405180910390fd5b6000611b6161268f565b9050611b81818787611b7288612b80565b611b7b88612b80565b8761100b565b611bc8836040518060600160405280602a8152602001615e64602a913960008781526097602090815260408083206001600160a01b038d168452909152902054919061269e565b60008581526097602090815260408083206001600160a01b038b81168552925280832093909355871681522054611bff9084611fe1565b60008581526097602090815260408083206001600160a01b03808b168086529184529382902094909455805188815291820187905280518a841693861692600080516020615c7783398151915292908290030190a461100b818787878787612bc5565b611c6a61268f565b6001600160a01b0316611c7b61174e565b6001600160a01b031614611cc4576040805162461bcd60e51b81526020600482018190526024820152600080516020615e8e833981519152604482015290519081900360640190fd5b6001600160a01b038116611d095760405162461bcd60e51b8152600401808060200182810382526026815260200180615d056026913960400191505060405180910390fd5b6033546040516001600160a01b038084169216907f8be0079c531659141344cd1fd0a4f28419497f9722a3daafe3b4186f6b6457e090600090a3603380546001600160a01b0319166001600160a01b0392909216919091179055565b600080611d7284846129bf565b90925090508115611d8857611d88858584612d36565b8015611dda57846001600160a01b0316611da061268f565b6001600160a01b03167f5110a21391aa55386de41fe7a3e3dffb40132d38d629a113a7f4afff251b1a018684604051611482929190615b0d565b5050505050565b6000611df18486600001516105ff565b9050818115611e2b578280831015611e065750815b611e26868689600001518460405180602001604052806000815250611aa9565b830390505b801561100b5761100b868583610a97565b60006001600160e01b03198216636db15a0f60e01b1480611e6d57506001600160e01b0319821663656cb66560e11b145b80611e8857506001600160e01b0319821663152a902d60e11b145b80611ea357506001600160e01b031982166301ffc9a760e01b145b80611ebe57506001600160e01b03198216636cdb3d1360e11b145b8061067c5750506001600160e01b0319166303a24d0760e21b1490565b6000815160001415611eef5750600061067f565b506020015190565b6000806001611f0d611f0888612daa565b612e2d565b84878760405160008152602001604052604051808581526020018460ff1681526020018381526020018281526020019450505050506020604051602081039080840390855afa158015611f64573d6000803e3d6000fd5b5050604051601f1901519150506001600160a01b038116611fc0576040805162461bcd60e51b8152602060048201526011602482015270496e76616c6964207369676e617475726560781b604482015290519081900360640190fd5b866001600160a01b0316816001600160a01b03161491505095945050505050565b600082820183811015611aa2576040805162461bcd60e51b815260206004820152601b60248201527f536166654d6174683a206164646974696f6e206f766572666c6f770000000000604482015290519081900360640190fd5b600081815261012e6020908152604080832080548251601f60026000196101006001861615020190931692909204918201859004850281018501909352808352606094938301828280156120d05780601f106120a5576101008083540402835291602001916120d0565b820191906000526020600020905b8154815290600101906020018083116120b357829003601f168201915b5050505050905060006120e1611491565b90508051600014156120f55750905061067f565b81511561210f576121068183612e79565b9250505061067f565b806121198561305e565b6040516020018083805190602001908083835b6020831061214b5780518252601f19909201916020918201910161212c565b51815160209384036101000a600019018019909216911617905285519190930192850191508083835b602083106121935780518252601f199092019160209182019101612174565b6001836020036101000a0380198251168184511680821785525050505050509050019250505060405160208183030381529060405292505050919050565b825160601c60006121e061268f565b9050806001600160a01b0316826001600160a01b0316148061220757506122078282611a96565b6122235760405162461bcd60e51b8152600401610b229061598b565b600083116122435760405162461bcd60e51b8152600401610b2290615961565b845160009081526101fc60205260409020546123ac57846060015160008151811061226a57fe5b6020026020010151600001516001600160a01b0316826001600160a01b0316146122a65760405162461bcd60e51b8152600401610b2290615911565b60008560400151116122ca5760405162461bcd60e51b8152600401610b22906158b2565b8460a0015151856060015151146122e057600080fd5b60006122eb86613138565b905060005b8660600151518110156123615760008760600151828151811061230f57fe5b6020026020010151600001519050836001600160a01b0316816001600160a01b0316146123585761235881848a60a00151858151811061234b57fe5b602002602001015161338b565b506001016122f0565b5061237486600001518760400151613396565b61238686600001518760800151613400565b612398866000015187606001516135ef565b6123aa8660000151876020015161379e565b505b6123cb8486600001518560405180602001604052806000815250613862565b836001600160a01b0316826001600160a01b03161461247c57816001600160a01b031660006001600160a01b0316826001600160a01b0316600080516020615c77833981519152886000015187604051612426929190615b0d565b60405180910390a4836001600160a01b0316826001600160a01b0316826001600160a01b0316600080516020615c7783398151915288600001518760405161246f929190615b0d565b60405180910390a4611dda565b836001600160a01b031660006001600160a01b0316826001600160a01b0316600080516020615c778339815191528860000151876040516124be929190615b0d565b60405180910390a45050505050565b600054610100900460ff16806124e657506124e6613874565b806124f4575060005460ff16155b61252f5760405162461bcd60e51b815260040180806020018281038252602e815260200180615df1602e913960400191505060405180910390fd5b600054610100900460ff1615801561255a576000805460ff1961ff0019909116610100171660011790555b612562613885565b61256a61397f565b612572613a20565b61257a61397f565b612582613abd565b61259a60405180602001604052806000815250613b8d565b6125a384613c58565b6125ab61397f565b6125b3613d0a565b6125bd8787613da7565b6125c561397f565b6125ce856129ab565b6125d9836001613e74565b6125e4826001613e74565b80156125f6576000805461ff00191690555b50505050505050565b7f36c25de3e541d5d970f66e4210d728721220fff5c077cc6cd008b3a0c62adab78280519060200120828051906020012030612639613ed4565b60405160200180868152602001858152602001848152602001836001600160a01b0316815260200182815260200195505050505050604051602081830303815290604052805190602001206102fc819055505050565b6000612699613ede565b905090565b6000818484111561272d5760405162461bcd60e51b81526004018080602001828103825283818151815260200191508051906020019080838360005b838110156126f25781810151838201526020016126da565b50505050905090810190601f16801561271f5780820380516001836020036101000a031916815260200191505b509250505060405180910390fd5b505050900390565b612747846001600160a01b0316613f3a565b1561100b57836001600160a01b031663bc197c8187878686866040518663ffffffff1660e01b815260040180866001600160a01b03168152602001856001600160a01b03168152602001806020018060200180602001848103845287818151815260200191508051906020019060200280838360005b838110156127d55781810151838201526020016127bd565b50505050905001848103835286818151815260200191508051906020019060200280838360005b838110156128145781810151838201526020016127fc565b50505050905001848103825285818151815260200191508051906020019080838360005b83811015612850578181015183820152602001612838565b50505050905090810190601f16801561287d5780820380516001836020036101000a031916815260200191505b5098505050505050505050602060405180830381600087803b1580156128a257600080fd5b505af19250505080156128c757506040513d60208110156128c257600080fd5b505160015b61295c576128d3615b61565b806128de5750612925565b60405162461bcd60e51b81526020600482018181528351602484015283518493919283926044019190850190808383600083156126f25781810151838201526020016126da565b60405162461bcd60e51b8152600401808060200182810382526034815260200180615c1b6034913960400191505060405180910390fd5b6001600160e01b0319811663bc197c8160e01b146125f65760405162461bcd60e51b8152600401808060200182810382526028815260200180615c4f6028913960400191505060405180910390fd5b80516116ba9061012f906020840190614c6e565b806000606084901c6129cf61268f565b6001600160a01b0316816001600160a01b03161415612a2c5783915060006129f686613f40565b90508015612a1b576000612a0987613f53565b8203905080861115612a19578093505b505b612a258684613f66565b8285039350505b509250929050565b612a3c61268f565b6001600160a01b0316836001600160a01b03161480612a625750612a628361057a61268f565b612a9d5760405162461bcd60e51b8152600401808060200182810382526029815260200180615d4f6029913960400191505060405180910390fd5b610b36838383613f7f565b60008381526101fa6020526040812054905b81811015611dda5760008581526101fa6020526040902080546001600160a01b038616919083908110612ae957fe5b6000918252602090912001546001600160a01b03161415612b4c5760008581526101fa60205260409020805484919083908110612b2257fe5b600091825260209091200180546001600160a01b0319166001600160a01b03929092169190911790555b600101612aba565b6001600160a01b038116600090815260c9602052604081205460ff1680611aa25750611aa283836141ed565b60408051600180825281830190925260609160009190602080830190803683370190505090508281600081518110612bb457fe5b602090810291909101015292915050565b612bd7846001600160a01b0316613f3a565b1561100b57836001600160a01b031663f23a6e6187878686866040518663ffffffff1660e01b815260040180866001600160a01b03168152602001856001600160a01b0316815260200184815260200183815260200180602001828103825283818151815260200191508051906020019080838360005b83811015612c66578181015183820152602001612c4e565b50505050905090810190601f168015612c935780820380516001836020036101000a031916815260200191505b509650505050505050602060405180830381600087803b158015612cb657600080fd5b505af1925050508015612cdb57506040513d6020811015612cd657600080fd5b505160015b612ce7576128d3615b61565b6001600160e01b0319811663f23a6e6160e01b146125f65760405162461bcd60e51b8152600401808060200182810382526028815260200180615c4f6028913960400191505060405180910390fd5b612d3e61268f565b6001600160a01b0316836001600160a01b03161480612d645750612d648361057a61268f565b612d9f5760405162461bcd60e51b8152600401808060200182810382526029815260200180615d4f6029913960400191505060405180910390fd5b610b3683838361421b565b6000604051806080016040528060438152602001615cc260439139805190602001208260000151836020015184604001518051906020012060405160200180858152602001848152602001836001600160a01b03168152602001828152602001945050505050604051602081830303815290604052805190602001209050919050565b6000612e3761433c565b82604051602001808061190160f01b81525060020183815260200182815260200192505050604051602081830303815290604052805190602001209050919050565b80518251606091849184911015612f445784846040516020018083805190602001908083835b60208310612ebe5780518252601f199092019160209182019101612e9f565b51815160209384036101000a600019018019909216911617905285519190930192850191508083835b60208310612f065780518252601f199092019160209182019101612ee7565b6001836020036101000a038019825116818451168082178552505050505050905001925050506040516020818303038152906040529250505061066b565b60005b825181101561305457828181518110612f5c57fe5b602001015160f81c60f81b6001600160f81b031916828281518110612f7d57fe5b01602001516001600160f81b0319161461304c5785856040516020018083805190602001908083835b60208310612fc55780518252601f199092019160209182019101612fa6565b51815160209384036101000a600019018019909216911617905285519190930192850191508083835b6020831061300d5780518252601f199092019160209182019101612fee565b6001836020036101000a03801982511681845116808217855250505050505090500192505050604051602081830303815290604052935050505061066b565b600101612f47565b5092949350505050565b60608161308357506040805180820190915260018152600360fc1b602082015261067f565b8160005b811561309b57600101600a82049150613087565b6000816001600160401b03811180156130b357600080fd5b506040519080825280601f01601f1916602001820160405280156130de576020820181803683370190505b50859350905060001982015b831561312f57600a840660300160f81b8282806001900393508151811061310d57fe5b60200101906001600160f81b031916908160001a905350600a840493506130ea565b50949350505050565b6000808260800151516001600160401b038111801561315657600080fd5b50604051908082528060200260200182016040528015613180578160200160208202803683370190505b50905060005b8360800151518110156131d2576131b3846080015182815181106131a657fe5b6020026020010151614343565b8282815181106131bf57fe5b6020908102919091010152600101613186565b5060008360600151516001600160401b03811180156131f057600080fd5b5060405190808252806020026020018201604052801561321a578160200160208202803683370190505b50905060005b84606001515181101561325f57613240856060015182815181106131a657fe5b82828151811061324c57fe5b6020908102919091010152600101613220565b507ffb988707ebb338694f318760b0fd5cfe756d00a2ade251fda110b80c336a3c7f846000015185604001518660200151805190602001208460405160200180828051906020019060200280838360005b838110156132c85781810151838201526020016132b0565b50505050905001915050604051602081830303815290604052805190602001208660405160200180828051906020019060200280838360005b83811015613319578181015183820152602001613301565b50505050905001915050604051602081830303815290604052805190602001206040516020018087815260200186815260200185815260200184815260200183815260200182815260200196505050505050506040516020818303038152906040528051906020012092505050919050565b610b368383836143b0565b60008281526101fc6020526040902054156133b057600080fd5b60008281526101fc602052604090819020829055517f5e2aa66efd74cce82b21852e317e5490d9ecc9e6bb953ae24d90851258cc2f5c906133f49084908490615b0d565b60405180910390a15050565b6000805b82518110156135a45760006001600160a01b031683828151811061342457fe5b6020026020010151600001516001600160a01b0316141561348c576040805162461bcd60e51b815260206004820152601b60248201527f526563697069656e742073686f756c642062652070726573656e740000000000604482015290519081900360640190fd5b82818151811061349857fe5b6020026020010151602001516001600160601b031660001415613502576040805162461bcd60e51b815260206004820181905260248201527f526f79616c74792076616c75652073686f756c6420626520706f736974697665604482015290519081900360640190fd5b82818151811061350e57fe5b6020026020010151602001516001600160601b0316820191506101fa600085815260200190815260200160002083828151811061354757fe5b60209081029190910181015182546001818101855560009485529383902082519101805492909301516001600160601b0316600160a01b026001600160a01b039182166001600160a01b0319909316929092171617905501613404565b5061271081106135e55760405162461bcd60e51b8152600401808060200182810382526025815260200180615ecf6025913960400191505060405180910390fd5b610b3683836145f2565b60008281526101fb6020526040812090805b835181101561373d5760006001600160a01b031684828151811061362157fe5b6020026020010151600001516001600160a01b031614156136545760405162461bcd60e51b8152600401610b22906159fd565b83818151811061366057fe5b6020026020010151602001516001600160601b0316600014156136955760405162461bcd60e51b8152600401610b22906158dc565b828482815181106136a257fe5b602090810291909101810151825460018101845560009384529282902081519301805491909201516001600160601b0316600160a01b026001600160a01b039384166001600160a01b03199092169190911790921691909117905583516137339085908390811061370f57fe5b6020026020010151602001516001600160601b031683611fe190919063ffffffff16565b9150600101613601565b50806127101461375f5760405162461bcd60e51b8152600401610b2290615a9d565b7f841ffb90d4cabdd1f16034f3fa831d79060febbb8167bdd54a49269365bdf78f8484604051613790929190615af4565b60405180910390a150505050565b600082815261012e6020908152604090912082516137be92840190614c6e565b50817f6bb7ff708619ba0610cba295a58592e0451dee2622938c8755667688daf3529b6137ea8461203b565b6040805160208082528351818301528351919283929083019185019080838360005b8381101561382457818101518382015260200161380c565b50505050905090810190601f1680156138515780820380516001836020036101000a031916815260200191505b509250505060405180910390a25050565b61386e84848484614623565b50505050565b600061387f30613f3a565b15905090565b600054610100900460ff168061389e575061389e613874565b806138ac575060005460ff16155b6138e75760405162461bcd60e51b815260040180806020018281038252602e815260200180615df1602e913960400191505060405180910390fd5b600054610100900460ff16158015613912576000805460ff1961ff0019909116610100171660011790555b600061391c61268f565b603380546001600160a01b0319166001600160a01b038316908117909155604051919250906000907f8be0079c531659141344cd1fd0a4f28419497f9722a3daafe3b4186f6b6457e0908290a350801561397c576000805461ff00191690555b50565b600054610100900460ff16806139985750613998613874565b806139a6575060005460ff16155b6139e15760405162461bcd60e51b815260040180806020018281038252602e815260200180615df1602e913960400191505060405180910390fd5b600054610100900460ff16158015613a0c576000805460ff1961ff0019909116610100171660011790555b801561397c576000805461ff001916905550565b600054610100900460ff1680613a395750613a39613874565b80613a47575060005460ff16155b613a825760405162461bcd60e51b815260040180806020018281038252602e815260200180615df1602e913960400191505060405180910390fd5b600054610100900460ff16158015613aad576000805460ff1961ff0019909116610100171660011790555b613a0c6301ffc9a760e01b614735565b600054610100900460ff1680613ad65750613ad6613874565b80613ae4575060005460ff16155b613b1f5760405162461bcd60e51b815260040180806020018281038252602e815260200180615df1602e913960400191505060405180910390fd5b600054610100900460ff16158015613b4a576000805460ff1961ff0019909116610100171660011790555b613a0c604051806040016040528060088152602001674d696e743131353560c01b815250604051806040016040528060018152602001603160f81b8152506147b9565b600054610100900460ff1680613ba65750613ba6613874565b80613bb4575060005460ff16155b613bef5760405162461bcd60e51b815260040180806020018281038252602e815260200180615df1602e913960400191505060405180910390fd5b600054610100900460ff16158015613c1a576000805460ff1961ff0019909116610100171660011790555b613c238261487b565b613c33636cdb3d1360e11b614735565b613c436303a24d0760e21b614735565b80156116ba576000805461ff00191690555050565b600054610100900460ff1680613c715750613c71613874565b80613c7f575060005460ff16155b613cba5760405162461bcd60e51b815260040180806020018281038252602e815260200180615df1602e913960400191505060405180910390fd5b600054610100900460ff16158015613ce5576000805460ff1961ff0019909116610100171660011790555b8151613cf990610230906020850190614c6e565b50613c4363e8a3d48560e01b614735565b600054610100900460ff1680613d235750613d23613874565b80613d31575060005460ff16155b613d6c5760405162461bcd60e51b815260040180806020018281038252602e815260200180615df1602e913960400191505060405180910390fd5b600054610100900460ff16158015613d97576000805460ff1961ff0019909116610100171660011790555b613a0c63656cb66560e11b614735565b600054610100900460ff1680613dc05750613dc0613874565b80613dce575060005460ff16155b613e095760405162461bcd60e51b815260040180806020018281038252602e815260200180615df1602e913960400191505060405180910390fd5b600054610100900460ff16158015613e34576000805460ff1961ff0019909116610100171660011790555b8251613e4890610262906020860190614c6e565b508151613e5d90610263906020850190614c6e565b508015610b36576000805461ff0019169055505050565b6001600160a01b038216600081815260c96020908152604091829020805460ff1916851515908117909155825190815291517f270dbb8ba4292910ae92862466486be25c355c837270a3d8824b36a8bc7c653b9281900390910190a25050565b600061269961488e565b600033301415613f3557600080368080601f0160208091040260200160405190810160405280939291908181526020018383808284376000920191909152505050503601516001600160a01b031691506115269050565b503390565b3b151590565b60009081526101fc602052604090205490565b60009081526101fd602052604090205490565b60009182526101fd602052604090912080549091019055565b6001600160a01b038316613fc45760405162461bcd60e51b8152600401808060200182810382526023815260200180615e416023913960400191505060405180910390fd5b80518251146140045760405162461bcd60e51b8152600401808060200182810382526028815260200180615f466028913960400191505060405180910390fd5b600061400e61268f565b905061402e8185600086866040518060200160405280600081525061100b565b60005b835181101561410c576140c383828151811061404957fe5b6020026020010151604051806060016040528060248152602001615d2b602491396097600088868151811061407a57fe5b602002602001015181526020019081526020016000206000896001600160a01b03166001600160a01b031681526020019081526020016000205461269e9092919063ffffffff16565b609760008684815181106140d357fe5b602090810291909101810151825281810192909252604090810160009081206001600160a01b038a168252909252902055600101614031565b5060006001600160a01b0316846001600160a01b0316826001600160a01b03167f4a39dc06d4c0dbc64b70af90fd698a233a518aa5d07e595d983b8c0526c8f7fb8686604051808060200180602001838103835285818151815260200191508051906020019060200280838360005b8381101561419357818101518382015260200161417b565b50505050905001838103825284818151815260200191508051906020019060200280838360005b838110156141d25781810151838201526020016141ba565b5050505090500194505050505060405180910390a450505050565b6001600160a01b03918216600090815260986020908152604080832093909416825291909152205460ff1690565b6001600160a01b0383166142605760405162461bcd60e51b8152600401808060200182810382526023815260200180615e416023913960400191505060405180910390fd5b600061426a61268f565b905061429a8185600061427c87612b80565b61428587612b80565b6040518060200160405280600081525061100b565b6142e182604051806060016040528060248152602001615d2b6024913960008681526097602090815260408083206001600160a01b038b168452909152902054919061269e565b60008481526097602090815260408083206001600160a01b03808a1680865291845282852095909555815188815292830187905281519394909390861692600080516020615c7783398151915292908290030190a450505050565b6102fc5490565b8051602091820151604080517f397e04204c1e1a60ee8724b71f8244e10ab5f2e9009854d80f602bda21b59ebb818601526001600160a01b03909316838201526001600160601b039091166060808401919091528151808403909101815260809092019052805191012090565b60006143bb83614892565b905060008251604114156143d6576143d3828461489c565b90505b846001600160a01b0316816001600160a01b031614611dda57614401856001600160a01b0316613f3a565b1561457a5760408051630b135d3f60e11b808252600482018581526024830193845286516044840152865191936001600160a01b038a1693631626ba7e9388938a9390929091606490910190602085019080838360005b83811015614470578181015183820152602001614458565b50505050905090810190601f16801561449d5780820380516001836020036101000a031916815260200191505b50935050505060206040518083038186803b1580156144bb57600080fd5b505afa1580156144cf573d6000803e3d6000fd5b505050506040513d60208110156144e557600080fd5b505160408051808201909152601c81527f7369676e617475726520766572696669636174696f6e206572726f72000000006020820152916001600160e01b0319909116146145745760405162461bcd60e51b81526020600482018181528351602484015283519092839260449091019190850190808383600083156126f25781810151838201526020016126da565b50611dda565b604080518082018252601c81527f7369676e617475726520766572696669636174696f6e206572726f72000000006020808301918252925162461bcd60e51b815260048101938452825160248201528251929392839260449092019190808383600083156126f25781810151838201526020016126da565b7f3fa96d7b6bcbfe71ef171666d84db3cf52fa2d1c8afdb1cc8e486177f208b7df82826040516133f4929190615af4565b60008381526101fd602052604081205461463e908490611fe1565b60008581526101fc60205260409020549091508111156146705760405162461bcd60e51b8152600401610b22906159d3565b60008481526101fd602052604090208190556001600160a01b0385166146a85760405162461bcd60e51b8152600401610b2290615a5c565b60006146b261268f565b90506146d3816000886146c489612b80565b6146cd89612b80565b8861100b565b60008581526097602090815260408083206001600160a01b038a1684529091529020546147009085611fe1565b60008681526097602090815260408083206001600160a01b038b16845290915281209190915561100b90829088888888612bc5565b6001600160e01b03198082161415614794576040805162461bcd60e51b815260206004820152601c60248201527f4552433136353a20696e76616c696420696e7465726661636520696400000000604482015290519081900360640190fd5b6001600160e01b0319166000908152606560205260409020805460ff19166001179055565b600054610100900460ff16806147d257506147d2613874565b806147e0575060005460ff16155b61481b5760405162461bcd60e51b815260040180806020018281038252602e815260200180615df1602e913960400191505060405180910390fd5b600054610100900460ff16158015614846576000805460ff1961ff0019909116610100171660011790555b825160208085019190912083519184019190912061016291909155610163558015610b36576000805461ff0019169055505050565b80516116ba906099906020840190614c6e565b4690565b6000612e3761491c565b600081516041146148f4576040805162461bcd60e51b815260206004820152601f60248201527f45434453413a20696e76616c6964207369676e6174757265206c656e67746800604482015290519081900360640190fd5b60208201516040830151606084015160001a61491286828585614957565b9695505050505050565b60006126997f8b73c3c69bb8fe3d512ecc4cf759cc79239f7b179b0ffacaa9a75d522b39400f61494a614bad565b614952614bb4565b614bbb565b60007f7fffffffffffffffffffffffffffffff5d576e7357a4501ddfe92f46681b20a08211156149b85760405162461bcd60e51b8152600401808060200182810382526022815260200180615d786022913960400191505060405180910390fd5b6000601e8560ff161115614a92576004850360ff16601b14806149e157506004850360ff16601c145b614a1c5760405162461bcd60e51b8152600401808060200182810382526022815260200180615e1f6022913960400191505060405180910390fd5b6001614a2787614c1d565b60048703868660405160008152602001604052604051808581526020018460ff1681526020018381526020018281526020019450505050506020604051602081039080840390855afa158015614a81573d6000803e3d6000fd5b505050602060405103519050614b49565b8460ff16601b1480614aa757508460ff16601c145b614ae25760405162461bcd60e51b8152600401808060200182810382526022815260200180615e1f6022913960400191505060405180910390fd5b60018686868660405160008152602001604052604051808581526020018460ff1681526020018381526020018281526020019450505050506020604051602081039080840390855afa158015614b3c573d6000803e3d6000fd5b5050506020604051035190505b6001600160a01b038116614ba4576040805162461bcd60e51b815260206004820152601860248201527f45434453413a20696e76616c6964207369676e61747572650000000000000000604482015290519081900360640190fd5b95945050505050565b6101625490565b6101635490565b6000838383614bc861488e565b3060405160200180868152602001858152602001848152602001838152602001826001600160a01b03168152602001955050505050506040516020818303038152906040528051906020012090509392505050565b604080517f19457468657265756d205369676e6564204d6573736167653a0a333200000000602080830191909152603c8083019490945282518083039094018452605c909101909152815191012090565b828054600181600116156101000203166002900490600052602060002090601f016020900481019282614ca45760008555614cea565b82601f10614cbd57805160ff1916838001178555614cea565b82800160010185558215614cea579182015b82811115614cea578251825591602001919060010190614ccf565b50614cf6929150614cfa565b5090565b5b80821115614cf65760008155600101614cfb565b803561067f81615c05565b600082601f830112614d2a578081fd5b81356020614d3f614d3a83615b3e565b615b1b565b8281528181019085830183850287018401881015614d5b578586fd5b855b85811015614d82578135614d7081615c05565b84529284019290840190600101614d5d565b5090979650505050505050565b600082601f830112614d9f578081fd5b81356020614daf614d3a83615b3e565b82815281810190858301855b85811015614d8257614dd2898684358b0101614ef9565b84529284019290840190600101614dbb565b600082601f830112614df4578081fd5b81356020614e04614d3a83615b3e565b82815281810190858301604080860288018501891015614e22578687fd5b865b86811015614e915781838b031215614e3a578788fd5b81518281018181106001600160401b0382111715614e5457fe5b83528335614e6181615c05565b8152838701356001600160601b0381168114614e7b57898afd5b8188015285529385019391810191600101614e24565b509198975050505050505050565b600082601f830112614eaf578081fd5b81356020614ebf614d3a83615b3e565b8281528181019085830183850287018401881015614edb578586fd5b855b85811015614d8257813584529284019290840190600101614edd565b600082601f830112614f09578081fd5b81356001600160401b03811115614f1c57fe5b614f2f601f8201601f1916602001615b1b565b818152846020838601011115614f43578283fd5b816020850160208301379081016020019190915292915050565b600060c08284031215614f6e578081fd5b614f7860c0615b1b565b90508135815260208201356001600160401b0380821115614f9857600080fd5b614fa485838601614ef9565b6020840152604084013560408401526060840135915080821115614fc757600080fd5b614fd385838601614de4565b60608401526080840135915080821115614fec57600080fd5b614ff885838601614de4565b608084015260a084013591508082111561501157600080fd5b5061501e84828501614d8f565b60a08301525092915050565b60006020828403121561503b578081fd5b8135611aa281615c05565b60008060408385031215615058578081fd5b823561506381615c05565b9150602083013561507381615c05565b809150509250929050565b600080600080600060a08688031215615095578081fd5b85356150a081615c05565b945060208601356150b081615c05565b935060408601356001600160401b03808211156150cb578283fd5b6150d789838a01614e9f565b945060608801359150808211156150ec578283fd5b6150f889838a01614e9f565b9350608088013591508082111561510d578283fd5b5061511a88828901614ef9565b9150509295509295909350565b600080600080600060a0868803121561513e578283fd5b853561514981615c05565b9450602086013561515981615c05565b9350604086013592506060860135915060808601356001600160401b03811115615181578182fd5b61511a88828901614ef9565b6000806000606084860312156151a1578081fd5b83356151ac81615c05565b925060208401356001600160401b03808211156151c7578283fd5b6151d387838801614e9f565b935060408601359150808211156151e8578283fd5b506151f586828701614e9f565b9150509250925092565b60008060408385031215615211578182fd5b823561521c81615c05565b915060208301358015158114615073578182fd5b600080600080600060a08688031215615247578283fd5b853561525281615c05565b945060208601356001600160401b0381111561526c578384fd5b61527888828901614ef9565b9450506040860135925060608601359150608086013560ff8116811461529c578182fd5b809150509295509295909350565b600080604083850312156152bc578182fd5b82356152c781615c05565b946020939093013593505050565b6000806000606084860312156152e9578081fd5b83356152f481615c05565b95602085013595506040909401359392505050565b60006020828403121561531a578081fd5b81356001600160401b0381111561532f578182fd5b61533b84828501614d1a565b949350505050565b60008060408385031215615355578182fd5b82356001600160401b038082111561536b578384fd5b61537786838701614d1a565b9350602085013591508082111561538c578283fd5b5061539985828601614e9f565b9150509250929050565b6000602082840312156153b4578081fd5b81356001600160e01b031981168114611aa2578182fd5b6000602082840312156153dc578081fd5b81356001600160401b038111156153f1578182fd5b61533b84828501614ef9565b60008060008060008060c08789031215615415578384fd5b86356001600160401b038082111561542b578586fd5b6154378a838b01614ef9565b9750602089013591508082111561544c578586fd5b6154588a838b01614ef9565b9650604089013591508082111561546d578586fd5b6154798a838b01614ef9565b9550606089013591508082111561548e578283fd5b5061549b89828a01614ef9565b9350506154aa60808801614d0f565b91506154b860a08801614d0f565b90509295509295509295565b600080600080600080600060e0888a0312156154de578485fd5b87356001600160401b03808211156154f4578687fd5b6155008b838c01614ef9565b985060208a0135915080821115615515578687fd5b6155218b838c01614ef9565b975060408a0135915080821115615536578687fd5b6155428b838c01614ef9565b965060608a0135915080821115615557578283fd5b6155638b838c01614ef9565b955060808a0135915080821115615578578283fd5b506155858a828b01614d1a565b93505061559460a08901614d0f565b91506155a260c08901614d0f565b905092959891949750929550565b600080600080608085870312156155c5578182fd5b84356001600160401b038111156155da578283fd5b6155e687828801614f5d565b94505060208501356155f781615c05565b9250604085013561560781615c05565b9396929550929360600135925050565b60008060006060848603121561562b578081fd5b83356001600160401b03811115615640578182fd5b61564c86828701614f5d565b935050602084013561565d81615c05565b929592945050506040919091013590565b60006020828403121561567f578081fd5b5035919050565b60008060006060848603121561569a578081fd5b8335925060208401356156ac81615c05565b915060408401356156bc81615c05565b809150509250925092565b600080604083850312156156d9578182fd5b50508035926020909101359150565b6000815180845260208085019450808401835b8381101561573457815180516001600160a01b031688528301516001600160601b031683880152604090960195908201906001016156fb565b509495945050505050565b6000815180845260208085019450808401835b8381101561573457815187529582019590820190600101615752565b60008151808452815b8181101561579357602081850181015186830182015201615777565b818111156157a45782602083870101525b50601f01601f19169290920160200192915050565b6001600160a01b0391909116815260200190565b6001600160a01b03841681526060602082018190526000906157f19083018561576e565b8281036040840152614912818561576e565b6001600160a01b03929092168252602082015260400190565b600060208252611aa260208301846156e8565b600060208252611aa2602083018461573f565b600060408252615855604083018561573f565b8281036020840152614ba4818561573f565b901515815260200190565b600060208252611aa2602083018461576e565b6020808252601390820152723737ba1037bbb732b91037b91036b4b73a32b960691b604082015260600190565b60208082526010908201526f1cdd5c1c1b1e481a5b98dbdc9c9958dd60821b604082015260600190565b6020808252818101527f43726561746f722073686172652073686f756c6420626520706f736974697665604082015260600190565b6020808252601190820152701d1bdad95b9259081a5b98dbdc9c9958dd607a1b604082015260600190565b6020808252600b908201526a1b9bdd08185b1b1bddd95960aa1b604082015260600190565b60208082526010908201526f185b5bdd5b9d081a5b98dbdc9c9958dd60821b604082015260600190565b60208082526028908201527f455243313135353a207472616e736665722063616c6c6572206973206e6f7420604082015267185c1c1c9bdd995960c21b606082015260800190565b60208082526010908201526f6d6f7265207468616e20737570706c7960801b604082015260600190565b60208082526019908201527f4163636f756e742073686f756c642062652070726573656e7400000000000000604082015260600190565b6020808252600e908201526d69647320213d20616d6f756e747360901b604082015260600190565b60208082526021908201527f455243313135353a206d696e7420746f20746865207a65726f206164647265736040820152607360f81b606082015260800190565b6020808252602e908201527f746f74616c20616d6f756e74206f662063726561746f7273207368617265207360408201526d0686f756c642062652031303030360941b606082015260800190565b90815260200190565b60008382526040602083015261533b60408301846156e8565b918252602082015260400190565b6040518181016001600160401b0381118282101715615b3657fe5b604052919050565b60006001600160401b03821115615b5157fe5b5060209081020190565b60e01c90565b600060443d1015615b7157611526565b600481823e6308c379a0615b858251615b5b565b14615b8f57611526565b6040513d600319016004823e80513d6001600160401b038160248401118184111715615bbe5750505050611526565b82840192508251915080821115615bd85750505050611526565b503d83016020828401011115615bf057505050611526565b601f01601f1916810160200160405291505090565b6001600160a01b038116811461397c57600080fdfe455243313135353a207472616e7366657220746f206e6f6e2045524331313535526563656976657220696d706c656d656e746572455243313135353a204552433131353552656365697665722072656a656374656420746f6b656e73c3d58168c5ae7397731d063d5bbf3d657854427343f4c083240f7aacaa2d0f62455243313135353a2062616c616e636520717565727920666f7220746865207a65726f20616464726573734d6574615472616e73616374696f6e2875696e74323536206e6f6e63652c616464726573732066726f6d2c62797465732066756e6374696f6e5369676e6174757265294f776e61626c653a206e6577206f776e657220697320746865207a65726f2061646472657373455243313135353a206275726e20616d6f756e7420657863656564732062616c616e6365455243313135353a2063616c6c6572206973206e6f74206f776e6572206e6f7220617070726f76656445434453413a20696e76616c6964207369676e6174757265202773272076616c7565455243313135353a207472616e7366657220746f20746865207a65726f2061646472657373455243313135353a207472616e736665722063616c6c6572206973206e6f74206f776e6572206e6f7220617070726f766564496e697469616c697a61626c653a20636f6e747261637420697320616c726561647920696e697469616c697a656445434453413a20696e76616c6964207369676e6174757265202776272076616c7565455243313135353a206275726e2066726f6d20746865207a65726f2061646472657373455243313135353a20696e73756666696369656e742062616c616e636520666f72207472616e736665724f776e61626c653a2063616c6c6572206973206e6f7420746865206f776e65725369676e657220616e64207369676e617475726520646f206e6f74206d61746368526f79616c747920746f74616c2076616c75652073686f756c64206265203c203130303030455243313135353a2073657474696e6720617070726f76616c2073746174757320666f722073656c66455243313135353a206163636f756e747320616e6420696473206c656e677468206d69736d61746368455243313135353a2069647320616e6420616d6f756e7473206c656e677468206d69736d61746368a26469706673582212202c52dbd49d8848c50dbce1e35cf0633fd556d0552ed3a7ebb9539e6ceba3c0c164736f6c63430007060033",
  "immutableReferences": {},
  "source": "// SPDX-License-Identifier: MIT\n\npragma solidity 0.7.6;\npragma abicoder v2;\n\nimport \"@rarible/meta-tx/contracts/EIP712MetaTransaction.sol\";\nimport \"../ERC1155Base.sol\";\nimport \"../../IsPrivateCollection.sol\";\nimport \"../../access/MinterAccessControl.sol\";\n\ncontract ERC1155RaribleMeta is ERC1155Base, IsPrivateCollection, MinterAccessControl, EIP712MetaTransaction {\n    event CreateERC1155Rarible(address owner, string name, string symbol);\n    event CreateERC1155RaribleUser(address owner, string name, string symbol);\n\n    function __ERC1155RaribleUser_init(string memory _name, string memory _symbol, string memory baseURI, string memory contractURI, address[] memory operators, address transferProxy, address lazyTransferProxy) external {\n        __ERC1155Rarible_init_unchained(_name, _symbol, baseURI, contractURI, transferProxy, lazyTransferProxy);\n\n        __MetaTransaction_init_unchained(\"ERC1155RaribleUserMeta\", \"1\");\n        \n        isPrivate = true;\n\n        emit CreateERC1155RaribleUser(_msgSender(), _name, _symbol);\n    }\n    \n    function __ERC1155Rarible_init(string memory _name, string memory _symbol, string memory baseURI, string memory contractURI, address transferProxy, address lazyTransferProxy) external {\n        __ERC1155Rarible_init_unchained(_name, _symbol, baseURI, contractURI, transferProxy, lazyTransferProxy);\n\n        __MetaTransaction_init_unchained(\"ERC1155RaribleMeta\", \"1\");\n\n        isPrivate = false;\n\n        emit CreateERC1155Rarible(_msgSender(), _name, _symbol);\n    }\n\n    function _msgSender() internal view virtual override(ContextUpgradeable, EIP712MetaTransaction) returns (address payable) {\n        return super._msgSender();\n    }\n\n    function __ERC1155Rarible_init_unchained(string memory _name, string memory _symbol, string memory baseURI, string memory contractURI, address transferProxy, address lazyTransferProxy) internal initializer {\n        __Ownable_init_unchained();\n        __ERC1155Lazy_init_unchained();\n        __ERC165_init_unchained();\n        __Context_init_unchained();\n        __Mint1155Validator_init_unchained();\n        __ERC1155_init_unchained(\"\");\n        __HasContractURI_init_unchained(contractURI);\n        __ERC1155Burnable_init_unchained();\n        __RoyaltiesV2Upgradeable_init_unchained();\n        __ERC1155Base_init_unchained(_name, _symbol);\n        __MinterAccessControl_init_unchained();\n        _setBaseURI(baseURI);\n\n        //setting default approver for transferProxies\n        _setDefaultApproval(transferProxy, true);\n        _setDefaultApproval(lazyTransferProxy, true);\n    }\n\n    function mintAndTransfer(LibERC1155LazyMint.Mint1155Data memory data, address to, uint256 _amount) public override {\n        if (isPrivate){\n          require(owner() == data.creators[0].account || isMinter(data.creators[0].account), \"not owner or minter\");\n        }\n        super.mintAndTransfer(data, to, _amount);\n    }\n}\n",
  "sourcePath": "@rarible/tokens/contracts/erc-1155/erc-1155-meta/ERC1155RaribleMeta.sol",
  "compiler": {
    "name": "solc",
    "version": "0.7.6+commit.7338295f.Emscripten.clang"
  },
  "schemaVersion": "3.4.5",
  "updatedAt": "2022-11-11T09:19:43.992Z",
  "devdoc": {
    "kind": "dev",
    "methods": {
      "addMinter(address)": {
        "details": "Add `minter` to the list of allowed minters."
      },
      "addMinters(address[])": {
        "details": "Add `minters` to the list of allowed minters."
      },
      "balanceOf(address,uint256)": {
        "details": "See {IERC1155-balanceOf}. Requirements: - `account` cannot be the zero address."
      },
      "balanceOfBatch(address[],uint256[])": {
        "details": "See {IERC1155-balanceOfBatch}. Requirements: - `accounts` and `ids` must have the same length."
      },
      "baseURI()": {
        "details": "Returns the base URI set via {_setBaseURI}. This will be automatically added as a prefix in {tokenURI} to each token's URI, or to the token ID if no specific URI is set for that token ID."
      },
      "isMinter(address)": {
        "details": "Returns `true` if `account` has been granted to minters."
      },
      "owner()": {
        "details": "Returns the address of the current owner."
      },
      "removeMinter(address)": {
        "details": "Revoke `_minter` from the list of allowed minters."
      },
      "renounceOwnership()": {
        "details": "Leaves the contract without owner. It will not be possible to call `onlyOwner` functions anymore. Can only be called by the current owner. NOTE: Renouncing ownership will leave the contract without an owner, thereby removing any functionality that is only available to the owner."
      },
      "safeBatchTransferFrom(address,address,uint256[],uint256[],bytes)": {
        "details": "See {IERC1155-safeBatchTransferFrom}."
      },
      "safeTransferFrom(address,address,uint256,uint256,bytes)": {
        "details": "See {IERC1155-safeTransferFrom}."
      },
      "setApprovalForAll(address,bool)": {
        "details": "See {IERC1155-setApprovalForAll}."
      },
      "transferOwnership(address)": {
        "details": "Transfers ownership of the contract to a new account (`newOwner`). Can only be called by the current owner."
      }
    },
    "version": 1
  },
  "userdoc": {
    "kind": "user",
    "methods": {},
    "version": 1
  }
}