{
  "contractName": "ERC1155RaribleMeta",
  "abi": [
    {
      "anonymous": false,
      "inputs": [
        {
          "indexed": true,
          "internalType": "address",
          "name": "account",
          "type": "address"
        },
        {
          "indexed": true,
          "internalType": "address",
          "name": "operator",
          "type": "address"
        },
        {
          "indexed": false,
          "internalType": "bool",
          "name": "approved",
          "type": "bool"
        }
      ],
      "name": "ApprovalForAll",
      "type": "event"
    },
    {
      "anonymous": false,
      "inputs": [
        {
          "indexed": false,
          "internalType": "string",
          "name": "newBaseURI",
          "type": "string"
        }
      ],
      "name": "BaseUriChanged",
      "type": "event"
    },
    {
      "anonymous": false,
      "inputs": [
        {
          "indexed": true,
          "internalType": "address",
          "name": "operator",
          "type": "address"
        },
        {
          "indexed": true,
          "internalType": "address",
          "name": "account",
          "type": "address"
        },
        {
          "indexed": false,
          "internalType": "uint256",
          "name": "id",
          "type": "uint256"
        },
        {
          "indexed": false,
          "internalType": "uint256",
          "name": "amount",
          "type": "uint256"
        }
      ],
      "name": "BurnLazy",
      "type": "event"
    },
    {
      "anonymous": false,
      "inputs": [
        {
          "indexed": true,
          "internalType": "address",
          "name": "operator",
          "type": "address"
        },
        {
          "indexed": true,
          "internalType": "address",
          "name": "account",
          "type": "address"
        },
        {
          "indexed": false,
          "internalType": "uint256[]",
          "name": "ids",
          "type": "uint256[]"
        },
        {
          "indexed": false,
          "internalType": "uint256[]",
          "name": "amounts",
          "type": "uint256[]"
        }
      ],
      "name": "BurnLazyBatch",
      "type": "event"
    },
    {
      "anonymous": false,
      "inputs": [
        {
          "indexed": false,
          "internalType": "address",
          "name": "owner",
          "type": "address"
        },
        {
          "indexed": false,
          "internalType": "string",
          "name": "name",
          "type": "string"
        },
        {
          "indexed": false,
          "internalType": "string",
          "name": "symbol",
          "type": "string"
        }
      ],
      "name": "CreateERC1155Rarible",
      "type": "event"
    },
    {
      "anonymous": false,
      "inputs": [
        {
          "indexed": false,
          "internalType": "address",
          "name": "owner",
          "type": "address"
        },
        {
          "indexed": false,
          "internalType": "string",
          "name": "name",
          "type": "string"
        },
        {
          "indexed": false,
          "internalType": "string",
          "name": "symbol",
          "type": "string"
        }
      ],
      "name": "CreateERC1155RaribleUser",
      "type": "event"
    },
    {
      "anonymous": false,
      "inputs": [
        {
          "indexed": false,
          "internalType": "uint256",
          "name": "tokenId",
          "type": "uint256"
        },
        {
          "components": [
            {
              "internalType": "address payable",
              "name": "account",
              "type": "address"
            },
            {
              "internalType": "uint96",
              "name": "value",
              "type": "uint96"
            }
          ],
          "indexed": false,
          "internalType": "struct LibPart.Part[]",
          "name": "creators",
          "type": "tuple[]"
        }
      ],
      "name": "Creators",
      "type": "event"
    },
    {
      "anonymous": false,
      "inputs": [
        {
          "indexed": true,
          "internalType": "address",
          "name": "operator",
          "type": "address"
        },
        {
          "indexed": false,
          "internalType": "bool",
          "name": "hasApproval",
          "type": "bool"
        }
      ],
      "name": "DefaultApproval",
      "type": "event"
    },
    {
      "anonymous": false,
      "inputs": [
        {
          "indexed": false,
          "internalType": "address",
          "name": "userAddress",
          "type": "address"
        },
        {
          "indexed": false,
          "internalType": "address payable",
          "name": "relayerAddress",
          "type": "address"
        },
        {
          "indexed": false,
          "internalType": "bytes",
          "name": "functionSignature",
          "type": "bytes"
        }
      ],
      "name": "MetaTransactionExecuted",
      "type": "event"
    },
    {
      "anonymous": false,
      "inputs": [
        {
          "indexed": true,
          "internalType": "address",
          "name": "minter",
          "type": "address"
        },
        {
          "indexed": true,
          "internalType": "bool",
          "name": "status",
          "type": "bool"
        }
      ],
      "name": "MinterStatusChanged",
      "type": "event"
    },
    {
      "anonymous": false,
      "inputs": [
        {
          "indexed": true,
          "internalType": "address",
          "name": "previousOwner",
          "type": "address"
        },
        {
          "indexed": true,
          "internalType": "address",
          "name": "newOwner",
          "type": "address"
        }
      ],
      "name": "OwnershipTransferred",
      "type": "event"
    },
    {
      "anonymous": false,
      "inputs": [
        {
          "indexed": false,
          "internalType": "uint256",
          "name": "tokenId",
          "type": "uint256"
        },
        {
          "components": [
            {
              "internalType": "address payable",
              "name": "account",
              "type": "address"
            },
            {
              "internalType": "uint96",
              "name": "value",
              "type": "uint96"
            }
          ],
          "indexed": false,
          "internalType": "struct LibPart.Part[]",
          "name": "royalties",
          "type": "tuple[]"
        }
      ],
      "name": "RoyaltiesSet",
      "type": "event"
    },
    {
      "anonymous": false,
      "inputs": [
        {
          "indexed": false,
          "internalType": "uint256",
          "name": "tokenId",
          "type": "uint256"
        },
        {
          "indexed": false,
          "internalType": "uint256",
          "name": "value",
          "type": "uint256"
        }
      ],
      "name": "Supply",
      "type": "event"
    },
    {
      "anonymous": false,
      "inputs": [
        {
          "indexed": true,
          "internalType": "address",
          "name": "operator",
          "type": "address"
        },
        {
          "indexed": true,
          "internalType": "address",
          "name": "from",
          "type": "address"
        },
        {
          "indexed": true,
          "internalType": "address",
          "name": "to",
          "type": "address"
        },
        {
          "indexed": false,
          "internalType": "uint256[]",
          "name": "ids",
          "type": "uint256[]"
        },
        {
          "indexed": false,
          "internalType": "uint256[]",
          "name": "values",
          "type": "uint256[]"
        }
      ],
      "name": "TransferBatch",
      "type": "event"
    },
    {
      "anonymous": false,
      "inputs": [
        {
          "indexed": true,
          "internalType": "address",
          "name": "operator",
          "type": "address"
        },
        {
          "indexed": true,
          "internalType": "address",
          "name": "from",
          "type": "address"
        },
        {
          "indexed": true,
          "internalType": "address",
          "name": "to",
          "type": "address"
        },
        {
          "indexed": false,
          "internalType": "uint256",
          "name": "id",
          "type": "uint256"
        },
        {
          "indexed": false,
          "internalType": "uint256",
          "name": "value",
          "type": "uint256"
        }
      ],
      "name": "TransferSingle",
      "type": "event"
    },
    {
      "anonymous": false,
      "inputs": [
        {
          "indexed": false,
          "internalType": "string",
          "name": "value",
          "type": "string"
        },
        {
          "indexed": true,
          "internalType": "uint256",
          "name": "id",
          "type": "uint256"
        }
      ],
      "name": "URI",
      "type": "event"
    },
    {
      "inputs": [
        {
          "internalType": "address",
          "name": "_minter",
          "type": "address"
        }
      ],
      "name": "addMinter",
      "outputs": [],
      "stateMutability": "nonpayable",
      "type": "function"
    },
    {
      "inputs": [
        {
          "internalType": "address",
          "name": "account",
          "type": "address"
        },
        {
          "internalType": "uint256",
          "name": "id",
          "type": "uint256"
        }
      ],
      "name": "balanceOf",
      "outputs": [
        {
          "internalType": "uint256",
          "name": "",
          "type": "uint256"
        }
      ],
      "stateMutability": "view",
      "type": "function",
      "constant": true
    },
    {
      "inputs": [
        {
          "internalType": "address[]",
          "name": "accounts",
          "type": "address[]"
        },
        {
          "internalType": "uint256[]",
          "name": "ids",
          "type": "uint256[]"
        }
      ],
      "name": "balanceOfBatch",
      "outputs": [
        {
          "internalType": "uint256[]",
          "name": "",
          "type": "uint256[]"
        }
      ],
      "stateMutability": "view",
      "type": "function",
      "constant": true
    },
    {
      "inputs": [],
      "name": "baseURI",
      "outputs": [
        {
          "internalType": "string",
          "name": "",
          "type": "string"
        }
      ],
      "stateMutability": "view",
      "type": "function",
      "constant": true
    },
    {
      "inputs": [
        {
          "internalType": "address",
          "name": "account",
          "type": "address"
        },
        {
          "internalType": "uint256",
          "name": "id",
          "type": "uint256"
        },
        {
          "internalType": "uint256",
          "name": "amount",
          "type": "uint256"
        }
      ],
      "name": "burn",
      "outputs": [],
      "stateMutability": "nonpayable",
      "type": "function"
    },
    {
      "inputs": [
        {
          "internalType": "address",
          "name": "account",
          "type": "address"
        },
        {
          "internalType": "uint256[]",
          "name": "ids",
          "type": "uint256[]"
        },
        {
          "internalType": "uint256[]",
          "name": "amounts",
          "type": "uint256[]"
        }
      ],
      "name": "burnBatch",
      "outputs": [],
      "stateMutability": "nonpayable",
      "type": "function"
    },
    {
      "inputs": [],
      "name": "contractURI",
      "outputs": [
        {
          "internalType": "string",
          "name": "",
          "type": "string"
        }
      ],
      "stateMutability": "view",
      "type": "function",
      "constant": true
    },
    {
      "inputs": [
        {
          "internalType": "uint256",
          "name": "",
          "type": "uint256"
        },
        {
          "internalType": "uint256",
          "name": "",
          "type": "uint256"
        }
      ],
      "name": "creators",
      "outputs": [
        {
          "internalType": "address payable",
          "name": "account",
          "type": "address"
        },
        {
          "internalType": "uint96",
          "name": "value",
          "type": "uint96"
        }
      ],
      "stateMutability": "view",
      "type": "function",
      "constant": true
    },
    {
      "inputs": [
        {
          "internalType": "address",
          "name": "userAddress",
          "type": "address"
        },
        {
          "internalType": "bytes",
          "name": "functionSignature",
          "type": "bytes"
        },
        {
          "internalType": "bytes32",
          "name": "sigR",
          "type": "bytes32"
        },
        {
          "internalType": "bytes32",
          "name": "sigS",
          "type": "bytes32"
        },
        {
          "internalType": "uint8",
          "name": "sigV",
          "type": "uint8"
        }
      ],
      "name": "executeMetaTransaction",
      "outputs": [
        {
          "internalType": "bytes",
          "name": "",
          "type": "bytes"
        }
      ],
      "stateMutability": "payable",
      "type": "function",
      "payable": true
    },
    {
      "inputs": [
        {
          "internalType": "uint256",
          "name": "_id",
          "type": "uint256"
        }
      ],
      "name": "getCreators",
      "outputs": [
        {
          "components": [
            {
              "internalType": "address payable",
              "name": "account",
              "type": "address"
            },
            {
              "internalType": "uint96",
              "name": "value",
              "type": "uint96"
            }
          ],
          "internalType": "struct LibPart.Part[]",
          "name": "",
          "type": "tuple[]"
        }
      ],
      "stateMutability": "view",
      "type": "function",
      "constant": true
    },
    {
      "inputs": [
        {
          "internalType": "address",
          "name": "user",
          "type": "address"
        }
      ],
      "name": "getNonce",
      "outputs": [
        {
          "internalType": "uint256",
          "name": "nonce",
          "type": "uint256"
        }
      ],
      "stateMutability": "view",
      "type": "function",
      "constant": true
    },
    {
      "inputs": [
        {
          "internalType": "uint256",
          "name": "id",
          "type": "uint256"
        }
      ],
      "name": "getRaribleV2Royalties",
      "outputs": [
        {
          "components": [
            {
              "internalType": "address payable",
              "name": "account",
              "type": "address"
            },
            {
              "internalType": "uint96",
              "name": "value",
              "type": "uint96"
            }
          ],
          "internalType": "struct LibPart.Part[]",
          "name": "",
          "type": "tuple[]"
        }
      ],
      "stateMutability": "view",
      "type": "function",
      "constant": true
    },
    {
      "inputs": [
        {
          "internalType": "address",
          "name": "_owner",
          "type": "address"
        },
        {
          "internalType": "address",
          "name": "_operator",
          "type": "address"
        }
      ],
      "name": "isApprovedForAll",
      "outputs": [
        {
          "internalType": "bool",
          "name": "",
          "type": "bool"
        }
      ],
      "stateMutability": "view",
      "type": "function",
      "constant": true
    },
    {
      "inputs": [
        {
          "internalType": "address",
          "name": "account",
          "type": "address"
        }
      ],
      "name": "isMinter",
      "outputs": [
        {
          "internalType": "bool",
          "name": "",
          "type": "bool"
        }
      ],
      "stateMutability": "view",
      "type": "function",
      "constant": true
    },
    {
      "inputs": [],
      "name": "name",
      "outputs": [
        {
          "internalType": "string",
          "name": "",
          "type": "string"
        }
      ],
      "stateMutability": "view",
      "type": "function",
      "constant": true
    },
    {
      "inputs": [],
      "name": "owner",
      "outputs": [
        {
          "internalType": "address",
          "name": "",
          "type": "address"
        }
      ],
      "stateMutability": "view",
      "type": "function",
      "constant": true
    },
    {
      "inputs": [
        {
          "internalType": "address",
          "name": "_minter",
          "type": "address"
        }
      ],
      "name": "removeMinter",
      "outputs": [],
      "stateMutability": "nonpayable",
      "type": "function"
    },
    {
      "inputs": [],
      "name": "renounceOwnership",
      "outputs": [],
      "stateMutability": "nonpayable",
      "type": "function"
    },
    {
      "inputs": [
        {
          "internalType": "uint256",
          "name": "id",
          "type": "uint256"
        },
        {
          "internalType": "uint256",
          "name": "_salePrice",
          "type": "uint256"
        }
      ],
      "name": "royaltyInfo",
      "outputs": [
        {
          "internalType": "address",
          "name": "receiver",
          "type": "address"
        },
        {
          "internalType": "uint256",
          "name": "royaltyAmount",
          "type": "uint256"
        }
      ],
      "stateMutability": "view",
      "type": "function",
      "constant": true
    },
    {
      "inputs": [
        {
          "internalType": "address",
          "name": "from",
          "type": "address"
        },
        {
          "internalType": "address",
          "name": "to",
          "type": "address"
        },
        {
          "internalType": "uint256[]",
          "name": "ids",
          "type": "uint256[]"
        },
        {
          "internalType": "uint256[]",
          "name": "amounts",
          "type": "uint256[]"
        },
        {
          "internalType": "bytes",
          "name": "data",
          "type": "bytes"
        }
      ],
      "name": "safeBatchTransferFrom",
      "outputs": [],
      "stateMutability": "nonpayable",
      "type": "function"
    },
    {
      "inputs": [
        {
          "internalType": "address",
          "name": "from",
          "type": "address"
        },
        {
          "internalType": "address",
          "name": "to",
          "type": "address"
        },
        {
          "internalType": "uint256",
          "name": "id",
          "type": "uint256"
        },
        {
          "internalType": "uint256",
          "name": "amount",
          "type": "uint256"
        },
        {
          "internalType": "bytes",
          "name": "data",
          "type": "bytes"
        }
      ],
      "name": "safeTransferFrom",
      "outputs": [],
      "stateMutability": "nonpayable",
      "type": "function"
    },
    {
      "inputs": [
        {
          "internalType": "address",
          "name": "operator",
          "type": "address"
        },
        {
          "internalType": "bool",
          "name": "approved",
          "type": "bool"
        }
      ],
      "name": "setApprovalForAll",
      "outputs": [],
      "stateMutability": "nonpayable",
      "type": "function"
    },
    {
      "inputs": [
        {
          "internalType": "string",
          "name": "newBaseURI",
          "type": "string"
        }
      ],
      "name": "setBaseURI",
      "outputs": [],
      "stateMutability": "nonpayable",
      "type": "function"
    },
    {
      "inputs": [
        {
          "internalType": "bytes4",
          "name": "interfaceId",
          "type": "bytes4"
        }
      ],
      "name": "supportsInterface",
      "outputs": [
        {
          "internalType": "bool",
          "name": "",
          "type": "bool"
        }
      ],
      "stateMutability": "view",
      "type": "function",
      "constant": true
    },
    {
      "inputs": [],
      "name": "symbol",
      "outputs": [
        {
          "internalType": "string",
          "name": "",
          "type": "string"
        }
      ],
      "stateMutability": "view",
      "type": "function",
      "constant": true
    },
    {
      "inputs": [
        {
          "components": [
            {
              "internalType": "uint256",
              "name": "tokenId",
              "type": "uint256"
            },
            {
              "internalType": "string",
              "name": "tokenURI",
              "type": "string"
            },
            {
              "internalType": "uint256",
              "name": "supply",
              "type": "uint256"
            },
            {
              "components": [
                {
                  "internalType": "address payable",
                  "name": "account",
                  "type": "address"
                },
                {
                  "internalType": "uint96",
                  "name": "value",
                  "type": "uint96"
                }
              ],
              "internalType": "struct LibPart.Part[]",
              "name": "creators",
              "type": "tuple[]"
            },
            {
              "components": [
                {
                  "internalType": "address payable",
                  "name": "account",
                  "type": "address"
                },
                {
                  "internalType": "uint96",
                  "name": "value",
                  "type": "uint96"
                }
              ],
              "internalType": "struct LibPart.Part[]",
              "name": "royalties",
              "type": "tuple[]"
            },
            {
              "internalType": "bytes[]",
              "name": "signatures",
              "type": "bytes[]"
            }
          ],
          "internalType": "struct LibERC1155LazyMint.Mint1155Data",
          "name": "data",
          "type": "tuple"
        },
        {
          "internalType": "address",
          "name": "from",
          "type": "address"
        },
        {
          "internalType": "address",
          "name": "to",
          "type": "address"
        },
        {
          "internalType": "uint256",
          "name": "amount",
          "type": "uint256"
        }
      ],
      "name": "transferFromOrMint",
      "outputs": [],
      "stateMutability": "nonpayable",
      "type": "function"
    },
    {
      "inputs": [
        {
          "internalType": "address",
          "name": "newOwner",
          "type": "address"
        }
      ],
      "name": "transferOwnership",
      "outputs": [],
      "stateMutability": "nonpayable",
      "type": "function"
    },
    {
      "inputs": [
        {
          "internalType": "uint256",
          "name": "_id",
          "type": "uint256"
        },
        {
          "internalType": "address",
          "name": "_from",
          "type": "address"
        },
        {
          "internalType": "address",
          "name": "_to",
          "type": "address"
        }
      ],
      "name": "updateAccount",
      "outputs": [],
      "stateMutability": "nonpayable",
      "type": "function"
    },
    {
      "inputs": [
        {
          "internalType": "uint256",
          "name": "id",
          "type": "uint256"
        }
      ],
      "name": "uri",
      "outputs": [
        {
          "internalType": "string",
          "name": "",
          "type": "string"
        }
      ],
      "stateMutability": "view",
      "type": "function",
      "constant": true
    },
    {
      "inputs": [
        {
          "internalType": "string",
          "name": "_name",
          "type": "string"
        },
        {
          "internalType": "string",
          "name": "_symbol",
          "type": "string"
        },
        {
          "internalType": "string",
          "name": "baseURI",
          "type": "string"
        },
        {
          "internalType": "string",
          "name": "contractURI",
          "type": "string"
        },
        {
          "internalType": "address[]",
          "name": "operators",
          "type": "address[]"
        },
        {
          "internalType": "address",
          "name": "transferProxy",
          "type": "address"
        },
        {
          "internalType": "address",
          "name": "lazyTransferProxy",
          "type": "address"
        }
      ],
      "name": "__ERC1155RaribleUser_init",
      "outputs": [],
      "stateMutability": "nonpayable",
      "type": "function"
    },
    {
      "inputs": [
        {
          "internalType": "string",
          "name": "_name",
          "type": "string"
        },
        {
          "internalType": "string",
          "name": "_symbol",
          "type": "string"
        },
        {
          "internalType": "string",
          "name": "baseURI",
          "type": "string"
        },
        {
          "internalType": "string",
          "name": "contractURI",
          "type": "string"
        },
        {
          "internalType": "address",
          "name": "transferProxy",
          "type": "address"
        },
        {
          "internalType": "address",
          "name": "lazyTransferProxy",
          "type": "address"
        }
      ],
      "name": "__ERC1155Rarible_init",
      "outputs": [],
      "stateMutability": "nonpayable",
      "type": "function"
    },
    {
      "inputs": [],
      "name": "initMeta",
      "outputs": [],
      "stateMutability": "nonpayable",
      "type": "function"
    },
    {
      "inputs": [
        {
          "components": [
            {
              "internalType": "uint256",
              "name": "tokenId",
              "type": "uint256"
            },
            {
              "internalType": "string",
              "name": "tokenURI",
              "type": "string"
            },
            {
              "internalType": "uint256",
              "name": "supply",
              "type": "uint256"
            },
            {
              "components": [
                {
                  "internalType": "address payable",
                  "name": "account",
                  "type": "address"
                },
                {
                  "internalType": "uint96",
                  "name": "value",
                  "type": "uint96"
                }
              ],
              "internalType": "struct LibPart.Part[]",
              "name": "creators",
              "type": "tuple[]"
            },
            {
              "components": [
                {
                  "internalType": "address payable",
                  "name": "account",
                  "type": "address"
                },
                {
                  "internalType": "uint96",
                  "name": "value",
                  "type": "uint96"
                }
              ],
              "internalType": "struct LibPart.Part[]",
              "name": "royalties",
              "type": "tuple[]"
            },
            {
              "internalType": "bytes[]",
              "name": "signatures",
              "type": "bytes[]"
            }
          ],
          "internalType": "struct LibERC1155LazyMint.Mint1155Data",
          "name": "data",
          "type": "tuple"
        },
        {
          "internalType": "address",
          "name": "to",
          "type": "address"
        },
        {
          "internalType": "uint256",
          "name": "_amount",
          "type": "uint256"
        }
      ],
      "name": "mintAndTransfer",
      "outputs": [],
      "stateMutability": "nonpayable",
      "type": "function"
    }
  ],
  "bytecode": "0x608060405234801561001057600080fd5b50615faa80620000216000396000f3fe6080604052600436106101ed5760003560e01c8063715018a61161010d578063cad96cca116100a0578063f242432a1161006f578063f242432a14610598578063f2fde38b146105b8578063f397e523146105d8578063f5298aca146105ed578063ffc4e0a71461060d576101ed565b8063cad96cca14610523578063e07f231914610543578063e8a3d48514610563578063e985e9c514610578576101ed565b8063983b2d56116100dc578063983b2d561461049557806398d0b4fb146104b5578063a22cb465146104e3578063aa271e1a14610503576101ed565b8063715018a61461041c578063891be974146104315780638da5cb5b1461045e57806395d89b4114610480576101ed565b80632d0335ab1161018557806355f804b31161015457806355f804b3146103a757806361e05459146103c75780636b20c454146103e75780636c0360eb14610407576101ed565b80632d0335ab1461031a5780632eb2c2d61461033a5780633092afd51461035a5780634e1273f41461037a576101ed565b80630e89341c116101c15780630e89341c1461028a5780630eaead67146102aa578063173c43d2146102cc5780632a55205a146102ec576101ed565b8062fdd58e146101f257806301ffc9a71461022857806306fdde03146102555780630c53c51c14610277575b600080fd5b3480156101fe57600080fd5b5061021261020d3660046152c1565b61062d565b60405161021f9190615af2565b60405180910390f35b34801561023457600080fd5b50610248610243366004615380565b61069f565b60405161021f919061586e565b34801561026157600080fd5b5061026a6106b2565b60405161021f9190615879565b61026a610285366004615247565b610741565b34801561029657600080fd5b5061026a6102a5366004615653565b610aba565b3480156102b657600080fd5b506102ca6102c53660046155fc565b610ac5565b005b3480156102d857600080fd5b506102ca6102e73660046153e2565b610b69565b3480156102f857600080fd5b5061030c6103073660046156ac565b610c19565b60405161021f92919061580a565b34801561032657600080fd5b50610212610335366004615041565b610d29565b34801561034657600080fd5b506102ca610355366004615095565b610d45565b34801561036657600080fd5b506102ca610375366004615041565b611043565b34801561038657600080fd5b5061039a610395366004615320565b6110f3565b60405161021f9190615836565b3480156103b357600080fd5b506102ca6103c23660046153a8565b6111de565b3480156103d357600080fd5b506102ca6103e23660046154a9565b611283565b3480156103f357600080fd5b506102ca6104023660046151a4565b61136e565b34801561041357600080fd5b5061026a6114f4565b34801561042857600080fd5b506102ca61158c565b34801561043d57600080fd5b5061045161044c366004615653565b611638565b60405161021f9190615823565b34801561046a57600080fd5b506104736116c8565b60405161021f919061579e565b34801561048c57600080fd5b5061026a6116d7565b3480156104a157600080fd5b506102ca6104b0366004615041565b611733565b3480156104c157600080fd5b506104d56104d03660046156ac565b6117e8565b60405161021f9291906157e8565b3480156104ef57600080fd5b506102ca6104fe366004615216565b611832565b34801561050f57600080fd5b5061024861051e366004615041565b611921565b34801561052f57600080fd5b5061045161053e366004615653565b611940565b34801561054f57600080fd5b506102ca61055e36600461566b565b6119bb565b34801561056f57600080fd5b5061026a6119fe565b34801561058457600080fd5b5061024861059336600461505d565b611a5a565b3480156105a457600080fd5b506102ca6105b336600461513e565b611a6d565b3480156105c457600080fd5b506102ca6105d3366004615041565b611c26565b3480156105e457600080fd5b506102ca611d29565b3480156105f957600080fd5b506102ca6106083660046152ec565b611d78565b34801561061957600080fd5b506102ca610628366004615595565b611df4565b60006001600160a01b0383166106745760405162461bcd60e51b815260040180806020018281038252602b815260200180615c9e602b913960400191505060405180910390fd5b5060008181526097602090815260408083206001600160a01b03861684529091529020545b92915050565b60006106aa82611e4f565b90505b919050565b610262805460408051602060026001851615610100026000190190941693909304601f810184900484028201840190925281815292918301828280156107395780601f1061070e57610100808354040283529160200191610739565b820191906000526020600020905b81548152906001019060200180831161071c57829003601f168201915b505050505081565b6060600061074e86611eee565b90506000356001600160e01b031990811690821614156107b5576040805162461bcd60e51b815260206004820152601760248201527f57726f6e672066756e6374696f6e5369676e6174757265000000000000000000604482015290519081900360640190fd5b604080516060810182526001600160a01b03891660008181526102fb6020908152908490205483528201529081018790526107f38882888888611f0a565b61082e5760405162461bcd60e51b8152600401808060200182810382526021815260200180615eb56021913960400191505060405180910390fd5b6001600160a01b03881660009081526102fb6020526040902054610853906001611ff4565b6102fb60008a6001600160a01b03166001600160a01b0316815260200190815260200160002081905550600080306001600160a01b0316898b6040516020018083805190602001908083835b602083106108be5780518252601f19909201916020918201910161089f565b6001836020036101000a038019825116818451168082178552505050505050905001826001600160a01b031660601b8152601401925050506040516020818303038152906040526040518082805190602001908083835b602083106109345780518252601f199092019160209182019101610915565b6001836020036101000a0380198251168184511680821785525050505050509050019150506000604051808303816000865af19150503d8060008114610996576040519150601f19603f3d011682016040523d82523d6000602084013e61099b565b606091505b5091509150816109f2576040805162461bcd60e51b815260206004820152601c60248201527f46756e6374696f6e2063616c6c206e6f74207375636365737366756c00000000604482015290519081900360640190fd5b7f5845892132946850460bff5a0083f71031bc5bf9aadcd40f1de79423eac9b10b8a338b60405180846001600160a01b03168152602001836001600160a01b0316815260200180602001828103825283818151815260200191508051906020019080838360005b83811015610a71578181015183820152602001610a59565b50505050905090810190601f168015610a9e5780820380516001836020036101000a031916815260200191505b5094505050505060405180910390a19998505050505050505050565b60606106aa8261204e565b6102965460ff1615610b59578260600151600081518110610ae257fe5b6020026020010151600001516001600160a01b0316610aff6116c8565b6001600160a01b03161480610b345750610b348360600151600081518110610b2357fe5b602002602001015160000151611921565b610b595760405162461bcd60e51b8152600401610b509061588c565b60405180910390fd5b610b648383836121e4565b505050565b610b778686868686866124e0565b610bc4604051806040016040528060128152602001714552433131353552617269626c654d65746160701b815250604051806040016040528060018152602001603160f81b815250612612565b610296805460ff191690557fcc215b7682459c30faa0e854780165d503a7d62d22a9aaaad6334585dc63343e610bf86126a2565b8787604051610c09939291906157b2565b60405180910390a1505050505050565b60008281526101fa60205260408120548190610c3a57506000905080610d22565b60008481526101fa6020908152604080832080548251818502810185019093528083529192909190849084015b82821015610cb657600084815260209081902060408051808201909152908401546001600160a01b0381168252600160a01b90046001600160601b031681830152825260019092019101610c67565b50505050905080600081518110610cc957fe5b60209081029190910101515192506000805b8251811015610d1657828181518110610cf057fe5b6020026020010151602001516001600160601b0316820191508080600101915050610cdb565b50612710908502049150505b9250929050565b6001600160a01b031660009081526102fb602052604090205490565b8151835114610d855760405162461bcd60e51b8152600401808060200182810382526028815260200180615f4d6028913960400191505060405180910390fd5b6001600160a01b038416610dca5760405162461bcd60e51b8152600401808060200182810382526025815260200180615da16025913960400191505060405180910390fd5b610dd26126a2565b6001600160a01b0316856001600160a01b03161480610df85750610df8856105936126a2565b610e335760405162461bcd60e51b8152600401808060200182810382526032815260200180615dc66032913960400191505060405180910390fd5b6000610e3d6126a2565b9050610e4d81878787878761103b565b60005b8451811015610f53576000858281518110610e6757fe5b602002602001015190506000858381518110610e7f57fe5b60200260200101519050610eec816040518060600160405280602a8152602001615e6b602a91396097600086815260200190815260200160002060008d6001600160a01b03166001600160a01b03168152602001908152602001600020546126b19092919063ffffffff16565b60008381526097602090815260408083206001600160a01b038e811685529252808320939093558a1681522054610f239082611ff4565b60009283526097602090815260408085206001600160a01b038c1686529091529092209190915550600101610e50565b50846001600160a01b0316866001600160a01b0316826001600160a01b03167f4a39dc06d4c0dbc64b70af90fd698a233a518aa5d07e595d983b8c0526c8f7fb8787604051808060200180602001838103835285818151815260200191508051906020019060200280838360005b83811015610fd9578181015183820152602001610fc1565b50505050905001838103825284818151815260200191508051906020019060200280838360005b83811015611018578181015183820152602001611000565b5050505090500194505050505060405180910390a461103b818787878787612748565b505050505050565b61104b6126a2565b6001600160a01b031661105c6116c8565b6001600160a01b0316146110a5576040805162461bcd60e51b81526020600482018190526024820152600080516020615e95833981519152604482015290519081900360640190fd5b6001600160a01b03811660008181526102c86020526040808220805460ff19169055519091907f3042b80e435ae46c334b2cfec51a66d64c9a8a8af4cd0c279a124c35a09e91dd908390a350565b606081518351146111355760405162461bcd60e51b8152600401808060200182810382526029815260200180615f246029913960400191505060405180910390fd5b600083516001600160401b038111801561114e57600080fd5b50604051908082528060200260200182016040528015611178578160200160208202803683370190505b50905060005b84518110156111d6576111b785828151811061119657fe5b60200260200101518583815181106111aa57fe5b602002602001015161062d565b8282815181106111c357fe5b602090810291909101015260010161117e565b509392505050565b6111e66126a2565b6001600160a01b03166111f76116c8565b6001600160a01b031614611240576040805162461bcd60e51b81526020600482018190526024820152600080516020615e95833981519152604482015290519081900360640190fd5b611249816129be565b7f87cdeaffd8e70903d6ce7cc983fac3b09ca79e83818124c98e47a1d70f8027d6816040516112789190615879565b60405180910390a150565b6112918787878786866124e0565b60005b83518110156112c3576112bb8482815181106112ac57fe5b60200260200101516001611832565b600101611294565b50611315604051806040016040528060168152602001754552433131353552617269626c65557365724d65746160501b815250604051806040016040528060018152602001603160f81b815250612612565b610296805460ff191660011790557f7da6bc204c8c4856a6aff786a6cb81c59477c782191dc51837d644a8ad50f2cc61134c6126a2565b888860405161135d939291906157b2565b60405180910390a150505050505050565b805182511461138f5760405162461bcd60e51b8152600401610b5090615a3b565b600082516001600160401b03811180156113a857600080fd5b506040519080825280602002602001820160405280156113d2578160200160208202803683370190505b509050600083516001600160401b03811180156113ee57600080fd5b50604051908082528060200260200182016040528015611418578160200160208202803683370190505b50905060005b845181101561148d5761145785828151811061143657fe5b602002602001015185838151811061144a57fe5b60200260200101516129d6565b84838151811061146357fe5b6020026020010184848151811061147657fe5b60209081029190910101919091525260010161141e565b50611499858584612a4b565b846001600160a01b03166114ab6126a2565b6001600160a01b03167fcf3391513e21a9d4a0348f8e890080170eba18dc62db35b60d8a518b7088eb3a86846040516114e5929190615849565b60405180910390a35050505050565b61012f8054604080516020601f60026000196101006001881615020190951694909404938401819004810282018101909252828152606093909290918301828280156115815780601f1061155657610100808354040283529160200191611581565b820191906000526020600020905b81548152906001019060200180831161156457829003601f168201915b505050505090505b90565b6115946126a2565b6001600160a01b03166115a56116c8565b6001600160a01b0316146115ee576040805162461bcd60e51b81526020600482018190526024820152600080516020615e95833981519152604482015290519081900360640190fd5b6033546040516000916001600160a01b0316907f8be0079c531659141344cd1fd0a4f28419497f9722a3daafe3b4186f6b6457e0908390a3603380546001600160a01b0319169055565b60606101fb6000838152602001908152602001600020805480602002602001604051908101604052809291908181526020016000905b828210156116bd57600084815260209081902060408051808201909152908401546001600160a01b0381168252600160a01b90046001600160601b03168183015282526001909201910161166e565b505050509050919050565b6033546001600160a01b031690565b610263805460408051602060026001851615610100026000190190941693909304601f810184900484028201840190925281815292918301828280156107395780601f1061070e57610100808354040283529160200191610739565b61173b6126a2565b6001600160a01b031661174c6116c8565b6001600160a01b031614611795576040805162461bcd60e51b81526020600482018190526024820152600080516020615e95833981519152604482015290519081900360640190fd5b6001600160a01b03811660008181526102c86020526040808220805460ff1916600190811790915590519092917f3042b80e435ae46c334b2cfec51a66d64c9a8a8af4cd0c279a124c35a09e91dd91a350565b6101fb602052816000526040600020818154811061180557600080fd5b6000918252602090912001546001600160a01b0381169250600160a01b90046001600160601b0316905082565b816001600160a01b03166118446126a2565b6001600160a01b0316141561188a5760405162461bcd60e51b8152600401808060200182810382526029815260200180615efb6029913960400191505060405180910390fd5b80609860006118976126a2565b6001600160a01b03908116825260208083019390935260409182016000908120918716808252919093529120805460ff1916921515929092179091556118db6126a2565b6001600160a01b03167f17307eab39ab6107e8899845ad3d59bd9653f200f220920489ca2b5937696c318360405180821515815260200191505060405180910390a35050565b6001600160a01b031660009081526102c8602052604090205460ff1690565b60008181526101fa602090815260408083208054825181850281018501909352808352606094929391929091840182156116bd57600084815260209081902060408051808201909152908401546001600160a01b0381168252600160a01b90046001600160601b03168183015282526001909201910161166e565b816001600160a01b03166119cd6126a2565b6001600160a01b0316146119f35760405162461bcd60e51b8152600401610b5090615943565b610b64838383612abf565b610230805460408051602060026001851615610100026000190190941693909304601f810184900484028201840190925281815292918301828280156107395780601f1061070e57610100808354040283529160200191610739565b6000611a668383612b6b565b9392505050565b6001600160a01b038416611ab25760405162461bcd60e51b8152600401808060200182810382526025815260200180615da16025913960400191505060405180910390fd5b611aba6126a2565b6001600160a01b0316856001600160a01b03161480611ae05750611ae0856105936126a2565b611b1b5760405162461bcd60e51b8152600401808060200182810382526029815260200180615d566029913960400191505060405180910390fd5b6000611b256126a2565b9050611b45818787611b3688612b97565b611b3f88612b97565b8761103b565b611b8c836040518060600160405280602a8152602001615e6b602a913960008781526097602090815260408083206001600160a01b038d16845290915290205491906126b1565b60008581526097602090815260408083206001600160a01b038b81168552925280832093909355871681522054611bc39084611ff4565b60008581526097602090815260408083206001600160a01b03808b168086529184529382902094909455805188815291820187905280518a841693861692600080516020615c7e83398151915292908290030190a461103b818787878787612bdc565b611c2e6126a2565b6001600160a01b0316611c3f6116c8565b6001600160a01b031614611c88576040805162461bcd60e51b81526020600482018190526024820152600080516020615e95833981519152604482015290519081900360640190fd5b6001600160a01b038116611ccd5760405162461bcd60e51b8152600401808060200182810382526026815260200180615d0c6026913960400191505060405180910390fd5b6033546040516001600160a01b038084169216907f8be0079c531659141344cd1fd0a4f28419497f9722a3daafe3b4186f6b6457e090600090a3603380546001600160a01b0319166001600160a01b0392909216919091179055565b611d76604051806040016040528060128152602001714552433131353552617269626c654d65746160701b815250604051806040016040528060018152602001603160f81b815250612612565b565b600080611d8584846129d6565b90925090508115611d9b57611d9b858584612d4d565b8015611ded57846001600160a01b0316611db36126a2565b6001600160a01b03167f5110a21391aa55386de41fe7a3e3dffb40132d38d629a113a7f4afff251b1a0186846040516114e5929190615b14565b5050505050565b6000611e0484866000015161062d565b9050818115611e3e578280831015611e195750815b611e39868689600001518460405180602001604052806000815250611a6d565b830390505b801561103b5761103b868583610ac5565b60006001600160e01b03198216636db15a0f60e01b1480611e8057506001600160e01b0319821663656cb66560e11b145b80611e9b57506001600160e01b0319821663152a902d60e11b145b80611eb657506001600160e01b031982166301ffc9a760e01b145b80611ed157506001600160e01b03198216636cdb3d1360e11b145b806106aa5750506001600160e01b0319166303a24d0760e21b1490565b6000815160001415611f02575060006106ad565b506020015190565b6000806001611f20611f1b88612dc1565b612e44565b84878760405160008152602001604052604051808581526020018460ff1681526020018381526020018281526020019450505050506020604051602081039080840390855afa158015611f77573d6000803e3d6000fd5b5050604051601f1901519150506001600160a01b038116611fd3576040805162461bcd60e51b8152602060048201526011602482015270496e76616c6964207369676e617475726560781b604482015290519081900360640190fd5b866001600160a01b0316816001600160a01b03161491505095945050505050565b600082820183811015611a66576040805162461bcd60e51b815260206004820152601b60248201527f536166654d6174683a206164646974696f6e206f766572666c6f770000000000604482015290519081900360640190fd5b600081815261012e6020908152604080832080548251601f60026000196101006001861615020190931692909204918201859004850281018501909352808352606094938301828280156120e35780601f106120b8576101008083540402835291602001916120e3565b820191906000526020600020905b8154815290600101906020018083116120c657829003601f168201915b5050505050905060006120f46114f4565b9050805160001415612108575090506106ad565b815115612122576121198183612e90565b925050506106ad565b8061212c85613075565b6040516020018083805190602001908083835b6020831061215e5780518252601f19909201916020918201910161213f565b51815160209384036101000a600019018019909216911617905285519190930192850191508083835b602083106121a65780518252601f199092019160209182019101612187565b6001836020036101000a0380198251168184511680821785525050505050509050019250505060405160208183030381529060405292505050919050565b825160601c60006121f36126a2565b9050806001600160a01b0316826001600160a01b0316148061221a575061221a8282611a5a565b6122365760405162461bcd60e51b8152600401610b5090615992565b600083116122565760405162461bcd60e51b8152600401610b5090615968565b845160009081526101fc60205260409020546123bf57846060015160008151811061227d57fe5b6020026020010151600001516001600160a01b0316826001600160a01b0316146122b95760405162461bcd60e51b8152600401610b5090615918565b60008560400151116122dd5760405162461bcd60e51b8152600401610b50906158b9565b8460a0015151856060015151146122f357600080fd5b60006122fe8661314f565b905060005b8660600151518110156123745760008760600151828151811061232257fe5b6020026020010151600001519050836001600160a01b0316816001600160a01b03161461236b5761236b81848a60a00151858151811061235e57fe5b60200260200101516133a2565b50600101612303565b50612387866000015187604001516133ad565b61239986600001518760800151613417565b6123ab86600001518760600151613606565b6123bd866000015187602001516137b5565b505b6123de8486600001518560405180602001604052806000815250613879565b836001600160a01b0316826001600160a01b03161461248f57816001600160a01b031660006001600160a01b0316826001600160a01b0316600080516020615c7e833981519152886000015187604051612439929190615b14565b60405180910390a4836001600160a01b0316826001600160a01b0316826001600160a01b0316600080516020615c7e833981519152886000015187604051612482929190615b14565b60405180910390a4611ded565b836001600160a01b031660006001600160a01b0316826001600160a01b0316600080516020615c7e8339815191528860000151876040516124d1929190615b14565b60405180910390a45050505050565b600054610100900460ff16806124f957506124f961388b565b80612507575060005460ff16155b6125425760405162461bcd60e51b815260040180806020018281038252602e815260200180615df8602e913960400191505060405180910390fd5b600054610100900460ff1615801561256d576000805460ff1961ff0019909116610100171660011790555b61257561389c565b61257d613996565b612585613a37565b61258d613996565b612595613ad4565b6125ad60405180602001604052806000815250613ba4565b6125b684613c6f565b6125be613996565b6125c6613d21565b6125d08787613dbe565b6125d8613996565b6125e1856129be565b6125ec836001613e8b565b6125f7826001613e8b565b8015612609576000805461ff00191690555b50505050505050565b7f36c25de3e541d5d970f66e4210d728721220fff5c077cc6cd008b3a0c62adab7828051906020012082805190602001203061264c613eeb565b60405160200180868152602001858152602001848152602001836001600160a01b0316815260200182815260200195505050505050604051602081830303815290604052805190602001206102fc819055505050565b60006126ac613ef5565b905090565b600081848411156127405760405162461bcd60e51b81526004018080602001828103825283818151815260200191508051906020019080838360005b838110156127055781810151838201526020016126ed565b50505050905090810190601f1680156127325780820380516001836020036101000a031916815260200191505b509250505060405180910390fd5b505050900390565b61275a846001600160a01b0316613f51565b1561103b57836001600160a01b031663bc197c8187878686866040518663ffffffff1660e01b815260040180866001600160a01b03168152602001856001600160a01b03168152602001806020018060200180602001848103845287818151815260200191508051906020019060200280838360005b838110156127e85781810151838201526020016127d0565b50505050905001848103835286818151815260200191508051906020019060200280838360005b8381101561282757818101518382015260200161280f565b50505050905001848103825285818151815260200191508051906020019080838360005b8381101561286357818101518382015260200161284b565b50505050905090810190601f1680156128905780820380516001836020036101000a031916815260200191505b5098505050505050505050602060405180830381600087803b1580156128b557600080fd5b505af19250505080156128da57506040513d60208110156128d557600080fd5b505160015b61296f576128e6615b68565b806128f15750612938565b60405162461bcd60e51b81526020600482018181528351602484015283518493919283926044019190850190808383600083156127055781810151838201526020016126ed565b60405162461bcd60e51b8152600401808060200182810382526034815260200180615c226034913960400191505060405180910390fd5b6001600160e01b0319811663bc197c8160e01b146126095760405162461bcd60e51b8152600401808060200182810382526028815260200180615c566028913960400191505060405180910390fd5b80516129d29061012f906020840190614c85565b5050565b806000606084901c6129e66126a2565b6001600160a01b0316816001600160a01b03161415612a43578391506000612a0d86613f57565b90508015612a32576000612a2087613f6a565b8203905080861115612a30578093505b505b612a3c8684613f7d565b8285039350505b509250929050565b612a536126a2565b6001600160a01b0316836001600160a01b03161480612a795750612a79836105936126a2565b612ab45760405162461bcd60e51b8152600401808060200182810382526029815260200180615d566029913960400191505060405180910390fd5b610b64838383613f96565b60008381526101fa6020526040812054905b81811015611ded5760008581526101fa6020526040902080546001600160a01b038616919083908110612b0057fe5b6000918252602090912001546001600160a01b03161415612b635760008581526101fa60205260409020805484919083908110612b3957fe5b600091825260209091200180546001600160a01b0319166001600160a01b03929092169190911790555b600101612ad1565b6001600160a01b038116600090815260c9602052604081205460ff1680611a665750611a668383614204565b60408051600180825281830190925260609160009190602080830190803683370190505090508281600081518110612bcb57fe5b602090810291909101015292915050565b612bee846001600160a01b0316613f51565b1561103b57836001600160a01b031663f23a6e6187878686866040518663ffffffff1660e01b815260040180866001600160a01b03168152602001856001600160a01b0316815260200184815260200183815260200180602001828103825283818151815260200191508051906020019080838360005b83811015612c7d578181015183820152602001612c65565b50505050905090810190601f168015612caa5780820380516001836020036101000a031916815260200191505b509650505050505050602060405180830381600087803b158015612ccd57600080fd5b505af1925050508015612cf257506040513d6020811015612ced57600080fd5b505160015b612cfe576128e6615b68565b6001600160e01b0319811663f23a6e6160e01b146126095760405162461bcd60e51b8152600401808060200182810382526028815260200180615c566028913960400191505060405180910390fd5b612d556126a2565b6001600160a01b0316836001600160a01b03161480612d7b5750612d7b836105936126a2565b612db65760405162461bcd60e51b8152600401808060200182810382526029815260200180615d566029913960400191505060405180910390fd5b610b64838383614232565b6000604051806080016040528060438152602001615cc960439139805190602001208260000151836020015184604001518051906020012060405160200180858152602001848152602001836001600160a01b03168152602001828152602001945050505050604051602081830303815290604052805190602001209050919050565b6000612e4e614353565b82604051602001808061190160f01b81525060020183815260200182815260200192505050604051602081830303815290604052805190602001209050919050565b80518251606091849184911015612f5b5784846040516020018083805190602001908083835b60208310612ed55780518252601f199092019160209182019101612eb6565b51815160209384036101000a600019018019909216911617905285519190930192850191508083835b60208310612f1d5780518252601f199092019160209182019101612efe565b6001836020036101000a0380198251168184511680821785525050505050509050019250505060405160208183030381529060405292505050610699565b60005b825181101561306b57828181518110612f7357fe5b602001015160f81c60f81b6001600160f81b031916828281518110612f9457fe5b01602001516001600160f81b031916146130635785856040516020018083805190602001908083835b60208310612fdc5780518252601f199092019160209182019101612fbd565b51815160209384036101000a600019018019909216911617905285519190930192850191508083835b602083106130245780518252601f199092019160209182019101613005565b6001836020036101000a038019825116818451168082178552505050505050905001925050506040516020818303038152906040529350505050610699565b600101612f5e565b5092949350505050565b60608161309a57506040805180820190915260018152600360fc1b60208201526106ad565b8160005b81156130b257600101600a8204915061309e565b6000816001600160401b03811180156130ca57600080fd5b506040519080825280601f01601f1916602001820160405280156130f5576020820181803683370190505b50859350905060001982015b831561314657600a840660300160f81b8282806001900393508151811061312457fe5b60200101906001600160f81b031916908160001a905350600a84049350613101565b50949350505050565b6000808260800151516001600160401b038111801561316d57600080fd5b50604051908082528060200260200182016040528015613197578160200160208202803683370190505b50905060005b8360800151518110156131e9576131ca846080015182815181106131bd57fe5b602002602001015161435a565b8282815181106131d657fe5b602090810291909101015260010161319d565b5060008360600151516001600160401b038111801561320757600080fd5b50604051908082528060200260200182016040528015613231578160200160208202803683370190505b50905060005b84606001515181101561327657613257856060015182815181106131bd57fe5b82828151811061326357fe5b6020908102919091010152600101613237565b507ffb988707ebb338694f318760b0fd5cfe756d00a2ade251fda110b80c336a3c7f846000015185604001518660200151805190602001208460405160200180828051906020019060200280838360005b838110156132df5781810151838201526020016132c7565b50505050905001915050604051602081830303815290604052805190602001208660405160200180828051906020019060200280838360005b83811015613330578181015183820152602001613318565b50505050905001915050604051602081830303815290604052805190602001206040516020018087815260200186815260200185815260200184815260200183815260200182815260200196505050505050506040516020818303038152906040528051906020012092505050919050565b610b648383836143c7565b60008281526101fc6020526040902054156133c757600080fd5b60008281526101fc602052604090819020829055517f5e2aa66efd74cce82b21852e317e5490d9ecc9e6bb953ae24d90851258cc2f5c9061340b9084908490615b14565b60405180910390a15050565b6000805b82518110156135bb5760006001600160a01b031683828151811061343b57fe5b6020026020010151600001516001600160a01b031614156134a3576040805162461bcd60e51b815260206004820152601b60248201527f526563697069656e742073686f756c642062652070726573656e740000000000604482015290519081900360640190fd5b8281815181106134af57fe5b6020026020010151602001516001600160601b031660001415613519576040805162461bcd60e51b815260206004820181905260248201527f526f79616c74792076616c75652073686f756c6420626520706f736974697665604482015290519081900360640190fd5b82818151811061352557fe5b6020026020010151602001516001600160601b0316820191506101fa600085815260200190815260200160002083828151811061355e57fe5b60209081029190910181015182546001818101855560009485529383902082519101805492909301516001600160601b0316600160a01b026001600160a01b039182166001600160a01b031990931692909217161790550161341b565b5061271081106135fc5760405162461bcd60e51b8152600401808060200182810382526025815260200180615ed66025913960400191505060405180910390fd5b610b648383614609565b60008281526101fb6020526040812090805b83518110156137545760006001600160a01b031684828151811061363857fe5b6020026020010151600001516001600160a01b0316141561366b5760405162461bcd60e51b8152600401610b5090615a04565b83818151811061367757fe5b6020026020010151602001516001600160601b0316600014156136ac5760405162461bcd60e51b8152600401610b50906158e3565b828482815181106136b957fe5b602090810291909101810151825460018101845560009384529282902081519301805491909201516001600160601b0316600160a01b026001600160a01b039384166001600160a01b031990921691909117909216919091179055835161374a9085908390811061372657fe5b6020026020010151602001516001600160601b031683611ff490919063ffffffff16565b9150600101613618565b5080612710146137765760405162461bcd60e51b8152600401610b5090615aa4565b7f841ffb90d4cabdd1f16034f3fa831d79060febbb8167bdd54a49269365bdf78f84846040516137a7929190615afb565b60405180910390a150505050565b600082815261012e6020908152604090912082516137d592840190614c85565b50817f6bb7ff708619ba0610cba295a58592e0451dee2622938c8755667688daf3529b6138018461204e565b6040805160208082528351818301528351919283929083019185019080838360005b8381101561383b578181015183820152602001613823565b50505050905090810190601f1680156138685780820380516001836020036101000a031916815260200191505b509250505060405180910390a25050565b6138858484848461463a565b50505050565b600061389630613f51565b15905090565b600054610100900460ff16806138b557506138b561388b565b806138c3575060005460ff16155b6138fe5760405162461bcd60e51b815260040180806020018281038252602e815260200180615df8602e913960400191505060405180910390fd5b600054610100900460ff16158015613929576000805460ff1961ff0019909116610100171660011790555b60006139336126a2565b603380546001600160a01b0319166001600160a01b038316908117909155604051919250906000907f8be0079c531659141344cd1fd0a4f28419497f9722a3daafe3b4186f6b6457e0908290a3508015613993576000805461ff00191690555b50565b600054610100900460ff16806139af57506139af61388b565b806139bd575060005460ff16155b6139f85760405162461bcd60e51b815260040180806020018281038252602e815260200180615df8602e913960400191505060405180910390fd5b600054610100900460ff16158015613a23576000805460ff1961ff0019909116610100171660011790555b8015613993576000805461ff001916905550565b600054610100900460ff1680613a505750613a5061388b565b80613a5e575060005460ff16155b613a995760405162461bcd60e51b815260040180806020018281038252602e815260200180615df8602e913960400191505060405180910390fd5b600054610100900460ff16158015613ac4576000805460ff1961ff0019909116610100171660011790555b613a236301ffc9a760e01b61474c565b600054610100900460ff1680613aed5750613aed61388b565b80613afb575060005460ff16155b613b365760405162461bcd60e51b815260040180806020018281038252602e815260200180615df8602e913960400191505060405180910390fd5b600054610100900460ff16158015613b61576000805460ff1961ff0019909116610100171660011790555b613a23604051806040016040528060088152602001674d696e743131353560c01b815250604051806040016040528060018152602001603160f81b8152506147d0565b600054610100900460ff1680613bbd5750613bbd61388b565b80613bcb575060005460ff16155b613c065760405162461bcd60e51b815260040180806020018281038252602e815260200180615df8602e913960400191505060405180910390fd5b600054610100900460ff16158015613c31576000805460ff1961ff0019909116610100171660011790555b613c3a82614892565b613c4a636cdb3d1360e11b61474c565b613c5a6303a24d0760e21b61474c565b80156129d2576000805461ff00191690555050565b600054610100900460ff1680613c885750613c8861388b565b80613c96575060005460ff16155b613cd15760405162461bcd60e51b815260040180806020018281038252602e815260200180615df8602e913960400191505060405180910390fd5b600054610100900460ff16158015613cfc576000805460ff1961ff0019909116610100171660011790555b8151613d1090610230906020850190614c85565b50613c5a63e8a3d48560e01b61474c565b600054610100900460ff1680613d3a5750613d3a61388b565b80613d48575060005460ff16155b613d835760405162461bcd60e51b815260040180806020018281038252602e815260200180615df8602e913960400191505060405180910390fd5b600054610100900460ff16158015613dae576000805460ff1961ff0019909116610100171660011790555b613a2363656cb66560e11b61474c565b600054610100900460ff1680613dd75750613dd761388b565b80613de5575060005460ff16155b613e205760405162461bcd60e51b815260040180806020018281038252602e815260200180615df8602e913960400191505060405180910390fd5b600054610100900460ff16158015613e4b576000805460ff1961ff0019909116610100171660011790555b8251613e5f90610262906020860190614c85565b508151613e7490610263906020850190614c85565b508015610b64576000805461ff0019169055505050565b6001600160a01b038216600081815260c96020908152604091829020805460ff1916851515908117909155825190815291517f270dbb8ba4292910ae92862466486be25c355c837270a3d8824b36a8bc7c653b9281900390910190a25050565b60006126ac6148a5565b600033301415613f4c57600080368080601f0160208091040260200160405190810160405280939291908181526020018383808284376000920191909152505050503601516001600160a01b031691506115899050565b503390565b3b151590565b60009081526101fc602052604090205490565b60009081526101fd602052604090205490565b60009182526101fd602052604090912080549091019055565b6001600160a01b038316613fdb5760405162461bcd60e51b8152600401808060200182810382526023815260200180615e486023913960400191505060405180910390fd5b805182511461401b5760405162461bcd60e51b8152600401808060200182810382526028815260200180615f4d6028913960400191505060405180910390fd5b60006140256126a2565b90506140458185600086866040518060200160405280600081525061103b565b60005b8351811015614123576140da83828151811061406057fe5b6020026020010151604051806060016040528060248152602001615d32602491396097600088868151811061409157fe5b602002602001015181526020019081526020016000206000896001600160a01b03166001600160a01b03168152602001908152602001600020546126b19092919063ffffffff16565b609760008684815181106140ea57fe5b602090810291909101810151825281810192909252604090810160009081206001600160a01b038a168252909252902055600101614048565b5060006001600160a01b0316846001600160a01b0316826001600160a01b03167f4a39dc06d4c0dbc64b70af90fd698a233a518aa5d07e595d983b8c0526c8f7fb8686604051808060200180602001838103835285818151815260200191508051906020019060200280838360005b838110156141aa578181015183820152602001614192565b50505050905001838103825284818151815260200191508051906020019060200280838360005b838110156141e95781810151838201526020016141d1565b5050505090500194505050505060405180910390a450505050565b6001600160a01b03918216600090815260986020908152604080832093909416825291909152205460ff1690565b6001600160a01b0383166142775760405162461bcd60e51b8152600401808060200182810382526023815260200180615e486023913960400191505060405180910390fd5b60006142816126a2565b90506142b18185600061429387612b97565b61429c87612b97565b6040518060200160405280600081525061103b565b6142f882604051806060016040528060248152602001615d326024913960008681526097602090815260408083206001600160a01b038b16845290915290205491906126b1565b60008481526097602090815260408083206001600160a01b03808a1680865291845282852095909555815188815292830187905281519394909390861692600080516020615c7e83398151915292908290030190a450505050565b6102fc5490565b8051602091820151604080517f397e04204c1e1a60ee8724b71f8244e10ab5f2e9009854d80f602bda21b59ebb818601526001600160a01b03909316838201526001600160601b039091166060808401919091528151808403909101815260809092019052805191012090565b60006143d2836148a9565b905060008251604114156143ed576143ea82846148b3565b90505b846001600160a01b0316816001600160a01b031614611ded57614418856001600160a01b0316613f51565b156145915760408051630b135d3f60e11b808252600482018581526024830193845286516044840152865191936001600160a01b038a1693631626ba7e9388938a9390929091606490910190602085019080838360005b8381101561448757818101518382015260200161446f565b50505050905090810190601f1680156144b45780820380516001836020036101000a031916815260200191505b50935050505060206040518083038186803b1580156144d257600080fd5b505afa1580156144e6573d6000803e3d6000fd5b505050506040513d60208110156144fc57600080fd5b505160408051808201909152601c81527f7369676e617475726520766572696669636174696f6e206572726f72000000006020820152916001600160e01b03199091161461458b5760405162461bcd60e51b81526020600482018181528351602484015283519092839260449091019190850190808383600083156127055781810151838201526020016126ed565b50611ded565b604080518082018252601c81527f7369676e617475726520766572696669636174696f6e206572726f72000000006020808301918252925162461bcd60e51b815260048101938452825160248201528251929392839260449092019190808383600083156127055781810151838201526020016126ed565b7f3fa96d7b6bcbfe71ef171666d84db3cf52fa2d1c8afdb1cc8e486177f208b7df828260405161340b929190615afb565b60008381526101fd6020526040812054614655908490611ff4565b60008581526101fc60205260409020549091508111156146875760405162461bcd60e51b8152600401610b50906159da565b60008481526101fd602052604090208190556001600160a01b0385166146bf5760405162461bcd60e51b8152600401610b5090615a63565b60006146c96126a2565b90506146ea816000886146db89612b97565b6146e489612b97565b8861103b565b60008581526097602090815260408083206001600160a01b038a1684529091529020546147179085611ff4565b60008681526097602090815260408083206001600160a01b038b16845290915281209190915561103b90829088888888612bdc565b6001600160e01b031980821614156147ab576040805162461bcd60e51b815260206004820152601c60248201527f4552433136353a20696e76616c696420696e7465726661636520696400000000604482015290519081900360640190fd5b6001600160e01b0319166000908152606560205260409020805460ff19166001179055565b600054610100900460ff16806147e957506147e961388b565b806147f7575060005460ff16155b6148325760405162461bcd60e51b815260040180806020018281038252602e815260200180615df8602e913960400191505060405180910390fd5b600054610100900460ff1615801561485d576000805460ff1961ff0019909116610100171660011790555b825160208085019190912083519184019190912061016291909155610163558015610b64576000805461ff0019169055505050565b80516129d2906099906020840190614c85565b4690565b6000612e4e614933565b6000815160411461490b576040805162461bcd60e51b815260206004820152601f60248201527f45434453413a20696e76616c6964207369676e6174757265206c656e67746800604482015290519081900360640190fd5b60208201516040830151606084015160001a6149298682858561496e565b9695505050505050565b60006126ac7f8b73c3c69bb8fe3d512ecc4cf759cc79239f7b179b0ffacaa9a75d522b39400f614961614bc4565b614969614bcb565b614bd2565b60007f7fffffffffffffffffffffffffffffff5d576e7357a4501ddfe92f46681b20a08211156149cf5760405162461bcd60e51b8152600401808060200182810382526022815260200180615d7f6022913960400191505060405180910390fd5b6000601e8560ff161115614aa9576004850360ff16601b14806149f857506004850360ff16601c145b614a335760405162461bcd60e51b8152600401808060200182810382526022815260200180615e266022913960400191505060405180910390fd5b6001614a3e87614c34565b60048703868660405160008152602001604052604051808581526020018460ff1681526020018381526020018281526020019450505050506020604051602081039080840390855afa158015614a98573d6000803e3d6000fd5b505050602060405103519050614b60565b8460ff16601b1480614abe57508460ff16601c145b614af95760405162461bcd60e51b8152600401808060200182810382526022815260200180615e266022913960400191505060405180910390fd5b60018686868660405160008152602001604052604051808581526020018460ff1681526020018381526020018281526020019450505050506020604051602081039080840390855afa158015614b53573d6000803e3d6000fd5b5050506020604051035190505b6001600160a01b038116614bbb576040805162461bcd60e51b815260206004820152601860248201527f45434453413a20696e76616c6964207369676e61747572650000000000000000604482015290519081900360640190fd5b95945050505050565b6101625490565b6101635490565b6000838383614bdf6148a5565b3060405160200180868152602001858152602001848152602001838152602001826001600160a01b03168152602001955050505050506040516020818303038152906040528051906020012090509392505050565b604080517f19457468657265756d205369676e6564204d6573736167653a0a333200000000602080830191909152603c8083019490945282518083039094018452605c909101909152815191012090565b828054600181600116156101000203166002900490600052602060002090601f016020900481019282614cbb5760008555614d01565b82601f10614cd457805160ff1916838001178555614d01565b82800160010185558215614d01579182015b82811115614d01578251825591602001919060010190614ce6565b50614d0d929150614d11565b5090565b5b80821115614d0d5760008155600101614d12565b80356106ad81615c0c565b600082601f830112614d41578081fd5b81356020614d56614d5183615b45565b615b22565b8281528181019085830183850287018401881015614d72578586fd5b855b85811015614d99578135614d8781615c0c565b84529284019290840190600101614d74565b5090979650505050505050565b600082601f830112614db6578081fd5b81356020614dc6614d5183615b45565b82815281810190858301855b85811015614d9957614de9898684358b0101614f10565b84529284019290840190600101614dd2565b600082601f830112614e0b578081fd5b81356020614e1b614d5183615b45565b82815281810190858301604080860288018501891015614e39578687fd5b865b86811015614ea85781838b031215614e51578788fd5b81518281018181106001600160401b0382111715614e6b57fe5b83528335614e7881615c0c565b8152838701356001600160601b0381168114614e9257898afd5b8188015285529385019391810191600101614e3b565b509198975050505050505050565b600082601f830112614ec6578081fd5b81356020614ed6614d5183615b45565b8281528181019085830183850287018401881015614ef2578586fd5b855b85811015614d9957813584529284019290840190600101614ef4565b600082601f830112614f20578081fd5b81356001600160401b03811115614f3357fe5b614f46601f8201601f1916602001615b22565b818152846020838601011115614f5a578283fd5b816020850160208301379081016020019190915292915050565b600060c08284031215614f85578081fd5b614f8f60c0615b22565b90508135815260208201356001600160401b0380821115614faf57600080fd5b614fbb85838601614f10565b6020840152604084013560408401526060840135915080821115614fde57600080fd5b614fea85838601614dfb565b6060840152608084013591508082111561500357600080fd5b61500f85838601614dfb565b608084015260a084013591508082111561502857600080fd5b5061503584828501614da6565b60a08301525092915050565b600060208284031215615052578081fd5b8135611a6681615c0c565b6000806040838503121561506f578081fd5b823561507a81615c0c565b9150602083013561508a81615c0c565b809150509250929050565b600080600080600060a086880312156150ac578081fd5b85356150b781615c0c565b945060208601356150c781615c0c565b935060408601356001600160401b03808211156150e2578283fd5b6150ee89838a01614eb6565b94506060880135915080821115615103578283fd5b61510f89838a01614eb6565b93506080880135915080821115615124578283fd5b5061513188828901614f10565b9150509295509295909350565b600080600080600060a08688031215615155578283fd5b853561516081615c0c565b9450602086013561517081615c0c565b9350604086013592506060860135915060808601356001600160401b03811115615198578182fd5b61513188828901614f10565b6000806000606084860312156151b8578081fd5b83356151c381615c0c565b925060208401356001600160401b03808211156151de578283fd5b6151ea87838801614eb6565b935060408601359150808211156151ff578283fd5b5061520c86828701614eb6565b9150509250925092565b60008060408385031215615228578182fd5b823561523381615c0c565b91506020830135801515811461508a578182fd5b600080600080600060a0868803121561525e578283fd5b853561526981615c0c565b945060208601356001600160401b03811115615283578384fd5b61528f88828901614f10565b9450506040860135925060608601359150608086013560ff811681146152b3578182fd5b809150509295509295909350565b600080604083850312156152d3578182fd5b82356152de81615c0c565b946020939093013593505050565b600080600060608486031215615300578081fd5b833561530b81615c0c565b95602085013595506040909401359392505050565b60008060408385031215615332578182fd5b82356001600160401b0380821115615348578384fd5b61535486838701614d31565b93506020850135915080821115615369578283fd5b5061537685828601614eb6565b9150509250929050565b600060208284031215615391578081fd5b81356001600160e01b031981168114611a66578182fd5b6000602082840312156153b9578081fd5b81356001600160401b038111156153ce578182fd5b6153da84828501614f10565b949350505050565b60008060008060008060c087890312156153fa578384fd5b86356001600160401b0380821115615410578586fd5b61541c8a838b01614f10565b97506020890135915080821115615431578586fd5b61543d8a838b01614f10565b96506040890135915080821115615452578586fd5b61545e8a838b01614f10565b95506060890135915080821115615473578283fd5b5061548089828a01614f10565b93505061548f60808801614d26565b915061549d60a08801614d26565b90509295509295509295565b600080600080600080600060e0888a0312156154c3578485fd5b87356001600160401b03808211156154d9578687fd5b6154e58b838c01614f10565b985060208a01359150808211156154fa578687fd5b6155068b838c01614f10565b975060408a013591508082111561551b578687fd5b6155278b838c01614f10565b965060608a013591508082111561553c578283fd5b6155488b838c01614f10565b955060808a013591508082111561555d578283fd5b5061556a8a828b01614d31565b93505061557960a08901614d26565b915061558760c08901614d26565b905092959891949750929550565b600080600080608085870312156155aa578182fd5b84356001600160401b038111156155bf578283fd5b6155cb87828801614f74565b94505060208501356155dc81615c0c565b925060408501356155ec81615c0c565b9396929550929360600135925050565b600080600060608486031215615610578081fd5b83356001600160401b03811115615625578182fd5b61563186828701614f74565b935050602084013561564281615c0c565b929592945050506040919091013590565b600060208284031215615664578081fd5b5035919050565b60008060006060848603121561567f578081fd5b83359250602084013561569181615c0c565b915060408401356156a181615c0c565b809150509250925092565b600080604083850312156156be578182fd5b50508035926020909101359150565b6000815180845260208085019450808401835b8381101561571957815180516001600160a01b031688528301516001600160601b031683880152604090960195908201906001016156e0565b509495945050505050565b6000815180845260208085019450808401835b8381101561571957815187529582019590820190600101615737565b60008151808452815b818110156157785760208185018101518683018201520161575c565b818111156157895782602083870101525b50601f01601f19169290920160200192915050565b6001600160a01b0391909116815260200190565b6001600160a01b03841681526060602082018190526000906157d690830185615753565b82810360408401526149298185615753565b6001600160a01b039290921682526001600160601b0316602082015260400190565b6001600160a01b03929092168252602082015260400190565b600060208252611a6660208301846156cd565b600060208252611a666020830184615724565b60006040825261585c6040830185615724565b8281036020840152614bbb8185615724565b901515815260200190565b600060208252611a666020830184615753565b6020808252601390820152723737ba1037bbb732b91037b91036b4b73a32b960691b604082015260600190565b60208082526010908201526f1cdd5c1c1b1e481a5b98dbdc9c9958dd60821b604082015260600190565b6020808252818101527f43726561746f722073686172652073686f756c6420626520706f736974697665604082015260600190565b6020808252601190820152701d1bdad95b9259081a5b98dbdc9c9958dd607a1b604082015260600190565b6020808252600b908201526a1b9bdd08185b1b1bddd95960aa1b604082015260600190565b60208082526010908201526f185b5bdd5b9d081a5b98dbdc9c9958dd60821b604082015260600190565b60208082526028908201527f455243313135353a207472616e736665722063616c6c6572206973206e6f7420604082015267185c1c1c9bdd995960c21b606082015260800190565b60208082526010908201526f6d6f7265207468616e20737570706c7960801b604082015260600190565b60208082526019908201527f4163636f756e742073686f756c642062652070726573656e7400000000000000604082015260600190565b6020808252600e908201526d69647320213d20616d6f756e747360901b604082015260600190565b60208082526021908201527f455243313135353a206d696e7420746f20746865207a65726f206164647265736040820152607360f81b606082015260800190565b6020808252602e908201527f746f74616c20616d6f756e74206f662063726561746f7273207368617265207360408201526d0686f756c642062652031303030360941b606082015260800190565b90815260200190565b6000838252604060208301526153da60408301846156cd565b918252602082015260400190565b6040518181016001600160401b0381118282101715615b3d57fe5b604052919050565b60006001600160401b03821115615b5857fe5b5060209081020190565b60e01c90565b600060443d1015615b7857611589565b600481823e6308c379a0615b8c8251615b62565b14615b9657611589565b6040513d600319016004823e80513d6001600160401b038160248401118184111715615bc55750505050611589565b82840192508251915080821115615bdf5750505050611589565b503d83016020828401011115615bf757505050611589565b601f01601f1916810160200160405291505090565b6001600160a01b038116811461399357600080fdfe455243313135353a207472616e7366657220746f206e6f6e2045524331313535526563656976657220696d706c656d656e746572455243313135353a204552433131353552656365697665722072656a656374656420746f6b656e73c3d58168c5ae7397731d063d5bbf3d657854427343f4c083240f7aacaa2d0f62455243313135353a2062616c616e636520717565727920666f7220746865207a65726f20616464726573734d6574615472616e73616374696f6e2875696e74323536206e6f6e63652c616464726573732066726f6d2c62797465732066756e6374696f6e5369676e6174757265294f776e61626c653a206e6577206f776e657220697320746865207a65726f2061646472657373455243313135353a206275726e20616d6f756e7420657863656564732062616c616e6365455243313135353a2063616c6c6572206973206e6f74206f776e6572206e6f7220617070726f76656445434453413a20696e76616c6964207369676e6174757265202773272076616c7565455243313135353a207472616e7366657220746f20746865207a65726f2061646472657373455243313135353a207472616e736665722063616c6c6572206973206e6f74206f776e6572206e6f7220617070726f766564496e697469616c697a61626c653a20636f6e747261637420697320616c726561647920696e697469616c697a656445434453413a20696e76616c6964207369676e6174757265202776272076616c7565455243313135353a206275726e2066726f6d20746865207a65726f2061646472657373455243313135353a20696e73756666696369656e742062616c616e636520666f72207472616e736665724f776e61626c653a2063616c6c6572206973206e6f7420746865206f776e65725369676e657220616e64207369676e617475726520646f206e6f74206d61746368526f79616c747920746f74616c2076616c75652073686f756c64206265203c203130303030455243313135353a2073657474696e6720617070726f76616c2073746174757320666f722073656c66455243313135353a206163636f756e747320616e6420696473206c656e677468206d69736d61746368455243313135353a2069647320616e6420616d6f756e7473206c656e677468206d69736d61746368a264697066735822122050fdc6dabe00bc18d82400b7308c4197e93384a43035e04d041ff7c4731a1e0064736f6c63430007060033",
  "immutableReferences": {},
  "source": "// SPDX-License-Identifier: MIT\n\npragma solidity 0.7.6;\npragma abicoder v2;\n\nimport \"@rarible/meta-tx/contracts/EIP712MetaTransaction.sol\";\nimport \"../ERC1155Base.sol\";\nimport \"../../IsPrivateCollection.sol\";\nimport \"../../access/MinterAccessControl.sol\";\n\ncontract ERC1155RaribleMeta is ERC1155Base, IsPrivateCollection, MinterAccessControl, EIP712MetaTransaction {\n    event CreateERC1155Rarible(address owner, string name, string symbol);\n    event CreateERC1155RaribleUser(address owner, string name, string symbol);\n\n    function __ERC1155RaribleUser_init(string memory _name, string memory _symbol, string memory baseURI, string memory contractURI, address[] memory operators, address transferProxy, address lazyTransferProxy) external {\n        __ERC1155Rarible_init_unchained(_name, _symbol, baseURI, contractURI, transferProxy, lazyTransferProxy);\n\n        for(uint i = 0; i < operators.length; i++) {\n            setApprovalForAll(operators[i], true);\n        }\n        __MetaTransaction_init_unchained(\"ERC1155RaribleUserMeta\", \"1\");\n        \n        isPrivate = true;\n\n        emit CreateERC1155RaribleUser(_msgSender(), _name, _symbol);\n    }\n    \n    function __ERC1155Rarible_init(string memory _name, string memory _symbol, string memory baseURI, string memory contractURI, address transferProxy, address lazyTransferProxy) external {\n        __ERC1155Rarible_init_unchained(_name, _symbol, baseURI, contractURI, transferProxy, lazyTransferProxy);\n\n        __MetaTransaction_init_unchained(\"ERC1155RaribleMeta\", \"1\");\n\n        isPrivate = false;\n\n        emit CreateERC1155Rarible(_msgSender(), _name, _symbol);\n    }\n\n    function initMeta() external {\n        __MetaTransaction_init_unchained(\"ERC1155RaribleMeta\", \"1\");\n    }\n\n    function _msgSender() internal view virtual override(ContextUpgradeable, EIP712MetaTransaction) returns (address payable) {\n        return super._msgSender();\n    }\n\n    function __ERC1155Rarible_init_unchained(string memory _name, string memory _symbol, string memory baseURI, string memory contractURI, address transferProxy, address lazyTransferProxy) internal initializer {\n        __Ownable_init_unchained();\n        __ERC1155Lazy_init_unchained();\n        __ERC165_init_unchained();\n        __Context_init_unchained();\n        __Mint1155Validator_init_unchained();\n        __ERC1155_init_unchained(\"\");\n        __HasContractURI_init_unchained(contractURI);\n        __ERC1155Burnable_init_unchained();\n        __RoyaltiesV2Upgradeable_init_unchained();\n        __ERC1155Base_init_unchained(_name, _symbol);\n        __MinterAccessControl_init_unchained();\n        _setBaseURI(baseURI);\n\n        //setting default approver for transferProxies\n        _setDefaultApproval(transferProxy, true);\n        _setDefaultApproval(lazyTransferProxy, true);\n    }\n\n    function mintAndTransfer(LibERC1155LazyMint.Mint1155Data memory data, address to, uint256 _amount) public override {\n        if (isPrivate){\n          require(owner() == data.creators[0].account || isMinter(data.creators[0].account), \"not owner or minter\");\n        }\n        super.mintAndTransfer(data, to, _amount);\n    }\n}\n",
  "sourcePath": "@rarible/tokens/contracts/erc-1155/erc-1155-meta/ERC1155RaribleMeta.sol",
  "compiler": {
    "name": "solc",
    "version": "0.7.6+commit.7338295f.Emscripten.clang"
  },
  "schemaVersion": "3.4.3",
  "updatedAt": "2022-03-30T18:24:36.847Z",
  "networkType": "ethereum",
  "devdoc": {
    "kind": "dev",
    "methods": {
      "addMinter(address)": {
        "details": "Add `_minter` to the list of allowed minters."
      },
      "balanceOf(address,uint256)": {
        "details": "See {IERC1155-balanceOf}. Requirements: - `account` cannot be the zero address."
      },
      "balanceOfBatch(address[],uint256[])": {
        "details": "See {IERC1155-balanceOfBatch}. Requirements: - `accounts` and `ids` must have the same length."
      },
      "baseURI()": {
        "details": "Returns the base URI set via {_setBaseURI}. This will be automatically added as a prefix in {tokenURI} to each token's URI, or to the token ID if no specific URI is set for that token ID."
      },
      "isMinter(address)": {
        "details": "Returns `true` if `account` has been granted to minters."
      },
      "owner()": {
        "details": "Returns the address of the current owner."
      },
      "removeMinter(address)": {
        "details": "Revoke `_minter` from the list of allowed minters."
      },
      "renounceOwnership()": {
        "details": "Leaves the contract without owner. It will not be possible to call `onlyOwner` functions anymore. Can only be called by the current owner. NOTE: Renouncing ownership will leave the contract without an owner, thereby removing any functionality that is only available to the owner."
      },
      "safeBatchTransferFrom(address,address,uint256[],uint256[],bytes)": {
        "details": "See {IERC1155-safeBatchTransferFrom}."
      },
      "safeTransferFrom(address,address,uint256,uint256,bytes)": {
        "details": "See {IERC1155-safeTransferFrom}."
      },
      "setApprovalForAll(address,bool)": {
        "details": "See {IERC1155-setApprovalForAll}."
      },
      "transferOwnership(address)": {
        "details": "Transfers ownership of the contract to a new account (`newOwner`). Can only be called by the current owner."
      }
    },
    "version": 1
  },
  "userdoc": {
    "kind": "user",
    "methods": {},
    "version": 1
  }
}