{
  "contractName": "ERC1155Rarible",
  "abi": [
    {
      "anonymous": false,
      "inputs": [
        {
          "indexed": true,
          "internalType": "address",
          "name": "account",
          "type": "address"
        },
        {
          "indexed": true,
          "internalType": "address",
          "name": "operator",
          "type": "address"
        },
        {
          "indexed": false,
          "internalType": "bool",
          "name": "approved",
          "type": "bool"
        }
      ],
      "name": "ApprovalForAll",
      "type": "event"
    },
    {
      "anonymous": false,
      "inputs": [
        {
          "indexed": false,
          "internalType": "string",
          "name": "newBaseURI",
          "type": "string"
        }
      ],
      "name": "BaseUriChanged",
      "type": "event"
    },
    {
      "anonymous": false,
      "inputs": [
        {
          "indexed": true,
          "internalType": "address",
          "name": "operator",
          "type": "address"
        },
        {
          "indexed": true,
          "internalType": "address",
          "name": "account",
          "type": "address"
        },
        {
          "indexed": false,
          "internalType": "uint256",
          "name": "id",
          "type": "uint256"
        },
        {
          "indexed": false,
          "internalType": "uint256",
          "name": "amount",
          "type": "uint256"
        }
      ],
      "name": "BurnLazy",
      "type": "event"
    },
    {
      "anonymous": false,
      "inputs": [
        {
          "indexed": true,
          "internalType": "address",
          "name": "operator",
          "type": "address"
        },
        {
          "indexed": true,
          "internalType": "address",
          "name": "account",
          "type": "address"
        },
        {
          "indexed": false,
          "internalType": "uint256[]",
          "name": "ids",
          "type": "uint256[]"
        },
        {
          "indexed": false,
          "internalType": "uint256[]",
          "name": "amounts",
          "type": "uint256[]"
        }
      ],
      "name": "BurnLazyBatch",
      "type": "event"
    },
    {
      "anonymous": false,
      "inputs": [
        {
          "indexed": false,
          "internalType": "address",
          "name": "owner",
          "type": "address"
        },
        {
          "indexed": false,
          "internalType": "string",
          "name": "name",
          "type": "string"
        },
        {
          "indexed": false,
          "internalType": "string",
          "name": "symbol",
          "type": "string"
        }
      ],
      "name": "CreateERC1155Rarible",
      "type": "event"
    },
    {
      "anonymous": false,
      "inputs": [
        {
          "indexed": false,
          "internalType": "address",
          "name": "owner",
          "type": "address"
        },
        {
          "indexed": false,
          "internalType": "string",
          "name": "name",
          "type": "string"
        },
        {
          "indexed": false,
          "internalType": "string",
          "name": "symbol",
          "type": "string"
        }
      ],
      "name": "CreateERC1155RaribleUser",
      "type": "event"
    },
    {
      "anonymous": false,
      "inputs": [
        {
          "indexed": false,
          "internalType": "uint256",
          "name": "tokenId",
          "type": "uint256"
        },
        {
          "components": [
            {
              "internalType": "address payable",
              "name": "account",
              "type": "address"
            },
            {
              "internalType": "uint96",
              "name": "value",
              "type": "uint96"
            }
          ],
          "indexed": false,
          "internalType": "struct LibPart.Part[]",
          "name": "creators",
          "type": "tuple[]"
        }
      ],
      "name": "Creators",
      "type": "event"
    },
    {
      "anonymous": false,
      "inputs": [
        {
          "indexed": true,
          "internalType": "address",
          "name": "operator",
          "type": "address"
        },
        {
          "indexed": false,
          "internalType": "bool",
          "name": "hasApproval",
          "type": "bool"
        }
      ],
      "name": "DefaultApproval",
      "type": "event"
    },
    {
      "anonymous": false,
      "inputs": [
        {
          "indexed": true,
          "internalType": "address",
          "name": "minter",
          "type": "address"
        },
        {
          "indexed": true,
          "internalType": "bool",
          "name": "status",
          "type": "bool"
        }
      ],
      "name": "MinterStatusChanged",
      "type": "event"
    },
    {
      "anonymous": false,
      "inputs": [
        {
          "indexed": true,
          "internalType": "address",
          "name": "previousOwner",
          "type": "address"
        },
        {
          "indexed": true,
          "internalType": "address",
          "name": "newOwner",
          "type": "address"
        }
      ],
      "name": "OwnershipTransferred",
      "type": "event"
    },
    {
      "anonymous": false,
      "inputs": [
        {
          "indexed": false,
          "internalType": "uint256",
          "name": "tokenId",
          "type": "uint256"
        },
        {
          "components": [
            {
              "internalType": "address payable",
              "name": "account",
              "type": "address"
            },
            {
              "internalType": "uint96",
              "name": "value",
              "type": "uint96"
            }
          ],
          "indexed": false,
          "internalType": "struct LibPart.Part[]",
          "name": "royalties",
          "type": "tuple[]"
        }
      ],
      "name": "RoyaltiesSet",
      "type": "event"
    },
    {
      "anonymous": false,
      "inputs": [
        {
          "indexed": false,
          "internalType": "uint256",
          "name": "tokenId",
          "type": "uint256"
        },
        {
          "indexed": false,
          "internalType": "uint256",
          "name": "value",
          "type": "uint256"
        }
      ],
      "name": "Supply",
      "type": "event"
    },
    {
      "anonymous": false,
      "inputs": [
        {
          "indexed": true,
          "internalType": "address",
          "name": "operator",
          "type": "address"
        },
        {
          "indexed": true,
          "internalType": "address",
          "name": "from",
          "type": "address"
        },
        {
          "indexed": true,
          "internalType": "address",
          "name": "to",
          "type": "address"
        },
        {
          "indexed": false,
          "internalType": "uint256[]",
          "name": "ids",
          "type": "uint256[]"
        },
        {
          "indexed": false,
          "internalType": "uint256[]",
          "name": "values",
          "type": "uint256[]"
        }
      ],
      "name": "TransferBatch",
      "type": "event"
    },
    {
      "anonymous": false,
      "inputs": [
        {
          "indexed": true,
          "internalType": "address",
          "name": "operator",
          "type": "address"
        },
        {
          "indexed": true,
          "internalType": "address",
          "name": "from",
          "type": "address"
        },
        {
          "indexed": true,
          "internalType": "address",
          "name": "to",
          "type": "address"
        },
        {
          "indexed": false,
          "internalType": "uint256",
          "name": "id",
          "type": "uint256"
        },
        {
          "indexed": false,
          "internalType": "uint256",
          "name": "value",
          "type": "uint256"
        }
      ],
      "name": "TransferSingle",
      "type": "event"
    },
    {
      "anonymous": false,
      "inputs": [
        {
          "indexed": false,
          "internalType": "string",
          "name": "value",
          "type": "string"
        },
        {
          "indexed": true,
          "internalType": "uint256",
          "name": "id",
          "type": "uint256"
        }
      ],
      "name": "URI",
      "type": "event"
    },
    {
      "inputs": [
        {
          "internalType": "address",
          "name": "_minter",
          "type": "address"
        }
      ],
      "name": "addMinter",
      "outputs": [],
      "stateMutability": "nonpayable",
      "type": "function"
    },
    {
      "inputs": [
        {
          "internalType": "address",
          "name": "account",
          "type": "address"
        },
        {
          "internalType": "uint256",
          "name": "id",
          "type": "uint256"
        }
      ],
      "name": "balanceOf",
      "outputs": [
        {
          "internalType": "uint256",
          "name": "",
          "type": "uint256"
        }
      ],
      "stateMutability": "view",
      "type": "function"
    },
    {
      "inputs": [
        {
          "internalType": "address[]",
          "name": "accounts",
          "type": "address[]"
        },
        {
          "internalType": "uint256[]",
          "name": "ids",
          "type": "uint256[]"
        }
      ],
      "name": "balanceOfBatch",
      "outputs": [
        {
          "internalType": "uint256[]",
          "name": "",
          "type": "uint256[]"
        }
      ],
      "stateMutability": "view",
      "type": "function"
    },
    {
      "inputs": [],
      "name": "baseURI",
      "outputs": [
        {
          "internalType": "string",
          "name": "",
          "type": "string"
        }
      ],
      "stateMutability": "view",
      "type": "function"
    },
    {
      "inputs": [
        {
          "internalType": "address",
          "name": "account",
          "type": "address"
        },
        {
          "internalType": "uint256",
          "name": "id",
          "type": "uint256"
        },
        {
          "internalType": "uint256",
          "name": "amount",
          "type": "uint256"
        }
      ],
      "name": "burn",
      "outputs": [],
      "stateMutability": "nonpayable",
      "type": "function"
    },
    {
      "inputs": [
        {
          "internalType": "address",
          "name": "account",
          "type": "address"
        },
        {
          "internalType": "uint256[]",
          "name": "ids",
          "type": "uint256[]"
        },
        {
          "internalType": "uint256[]",
          "name": "amounts",
          "type": "uint256[]"
        }
      ],
      "name": "burnBatch",
      "outputs": [],
      "stateMutability": "nonpayable",
      "type": "function"
    },
    {
      "inputs": [],
      "name": "contractURI",
      "outputs": [
        {
          "internalType": "string",
          "name": "",
          "type": "string"
        }
      ],
      "stateMutability": "view",
      "type": "function"
    },
    {
      "inputs": [
        {
          "internalType": "uint256",
          "name": "_id",
          "type": "uint256"
        }
      ],
      "name": "getCreators",
      "outputs": [
        {
          "components": [
            {
              "internalType": "address payable",
              "name": "account",
              "type": "address"
            },
            {
              "internalType": "uint96",
              "name": "value",
              "type": "uint96"
            }
          ],
          "internalType": "struct LibPart.Part[]",
          "name": "",
          "type": "tuple[]"
        }
      ],
      "stateMutability": "view",
      "type": "function"
    },
    {
      "inputs": [
        {
          "internalType": "uint256",
          "name": "id",
          "type": "uint256"
        }
      ],
      "name": "getRaribleV2Royalties",
      "outputs": [
        {
          "components": [
            {
              "internalType": "address payable",
              "name": "account",
              "type": "address"
            },
            {
              "internalType": "uint96",
              "name": "value",
              "type": "uint96"
            }
          ],
          "internalType": "struct LibPart.Part[]",
          "name": "",
          "type": "tuple[]"
        }
      ],
      "stateMutability": "view",
      "type": "function"
    },
    {
      "inputs": [
        {
          "internalType": "address",
          "name": "_owner",
          "type": "address"
        },
        {
          "internalType": "address",
          "name": "_operator",
          "type": "address"
        }
      ],
      "name": "isApprovedForAll",
      "outputs": [
        {
          "internalType": "bool",
          "name": "",
          "type": "bool"
        }
      ],
      "stateMutability": "view",
      "type": "function"
    },
    {
      "inputs": [
        {
          "internalType": "address",
          "name": "account",
          "type": "address"
        }
      ],
      "name": "isMinter",
      "outputs": [
        {
          "internalType": "bool",
          "name": "",
          "type": "bool"
        }
      ],
      "stateMutability": "view",
      "type": "function"
    },
    {
      "inputs": [],
      "name": "name",
      "outputs": [
        {
          "internalType": "string",
          "name": "",
          "type": "string"
        }
      ],
      "stateMutability": "view",
      "type": "function"
    },
    {
      "inputs": [],
      "name": "owner",
      "outputs": [
        {
          "internalType": "address",
          "name": "",
          "type": "address"
        }
      ],
      "stateMutability": "view",
      "type": "function"
    },
    {
      "inputs": [
        {
          "internalType": "address",
          "name": "_minter",
          "type": "address"
        }
      ],
      "name": "removeMinter",
      "outputs": [],
      "stateMutability": "nonpayable",
      "type": "function"
    },
    {
      "inputs": [],
      "name": "renounceOwnership",
      "outputs": [],
      "stateMutability": "nonpayable",
      "type": "function"
    },
    {
      "inputs": [
        {
          "internalType": "uint256",
          "name": "id",
          "type": "uint256"
        },
        {
          "internalType": "uint256",
          "name": "_salePrice",
          "type": "uint256"
        }
      ],
      "name": "royaltyInfo",
      "outputs": [
        {
          "internalType": "address",
          "name": "receiver",
          "type": "address"
        },
        {
          "internalType": "uint256",
          "name": "royaltyAmount",
          "type": "uint256"
        }
      ],
      "stateMutability": "view",
      "type": "function"
    },
    {
      "inputs": [
        {
          "internalType": "address",
          "name": "from",
          "type": "address"
        },
        {
          "internalType": "address",
          "name": "to",
          "type": "address"
        },
        {
          "internalType": "uint256[]",
          "name": "ids",
          "type": "uint256[]"
        },
        {
          "internalType": "uint256[]",
          "name": "amounts",
          "type": "uint256[]"
        },
        {
          "internalType": "bytes",
          "name": "data",
          "type": "bytes"
        }
      ],
      "name": "safeBatchTransferFrom",
      "outputs": [],
      "stateMutability": "nonpayable",
      "type": "function"
    },
    {
      "inputs": [
        {
          "internalType": "address",
          "name": "from",
          "type": "address"
        },
        {
          "internalType": "address",
          "name": "to",
          "type": "address"
        },
        {
          "internalType": "uint256",
          "name": "id",
          "type": "uint256"
        },
        {
          "internalType": "uint256",
          "name": "amount",
          "type": "uint256"
        },
        {
          "internalType": "bytes",
          "name": "data",
          "type": "bytes"
        }
      ],
      "name": "safeTransferFrom",
      "outputs": [],
      "stateMutability": "nonpayable",
      "type": "function"
    },
    {
      "inputs": [
        {
          "internalType": "address",
          "name": "operator",
          "type": "address"
        },
        {
          "internalType": "bool",
          "name": "approved",
          "type": "bool"
        }
      ],
      "name": "setApprovalForAll",
      "outputs": [],
      "stateMutability": "nonpayable",
      "type": "function"
    },
    {
      "inputs": [
        {
          "internalType": "string",
          "name": "newBaseURI",
          "type": "string"
        }
      ],
      "name": "setBaseURI",
      "outputs": [],
      "stateMutability": "nonpayable",
      "type": "function"
    },
    {
      "inputs": [
        {
          "internalType": "bytes4",
          "name": "interfaceId",
          "type": "bytes4"
        }
      ],
      "name": "supportsInterface",
      "outputs": [
        {
          "internalType": "bool",
          "name": "",
          "type": "bool"
        }
      ],
      "stateMutability": "view",
      "type": "function"
    },
    {
      "inputs": [],
      "name": "symbol",
      "outputs": [
        {
          "internalType": "string",
          "name": "",
          "type": "string"
        }
      ],
      "stateMutability": "view",
      "type": "function"
    },
    {
      "inputs": [
        {
          "components": [
            {
              "internalType": "uint256",
              "name": "tokenId",
              "type": "uint256"
            },
            {
              "internalType": "string",
              "name": "tokenURI",
              "type": "string"
            },
            {
              "internalType": "uint256",
              "name": "supply",
              "type": "uint256"
            },
            {
              "components": [
                {
                  "internalType": "address payable",
                  "name": "account",
                  "type": "address"
                },
                {
                  "internalType": "uint96",
                  "name": "value",
                  "type": "uint96"
                }
              ],
              "internalType": "struct LibPart.Part[]",
              "name": "creators",
              "type": "tuple[]"
            },
            {
              "components": [
                {
                  "internalType": "address payable",
                  "name": "account",
                  "type": "address"
                },
                {
                  "internalType": "uint96",
                  "name": "value",
                  "type": "uint96"
                }
              ],
              "internalType": "struct LibPart.Part[]",
              "name": "royalties",
              "type": "tuple[]"
            },
            {
              "internalType": "bytes[]",
              "name": "signatures",
              "type": "bytes[]"
            }
          ],
          "internalType": "struct LibERC1155LazyMint.Mint1155Data",
          "name": "data",
          "type": "tuple"
        },
        {
          "internalType": "address",
          "name": "from",
          "type": "address"
        },
        {
          "internalType": "address",
          "name": "to",
          "type": "address"
        },
        {
          "internalType": "uint256",
          "name": "amount",
          "type": "uint256"
        }
      ],
      "name": "transferFromOrMint",
      "outputs": [],
      "stateMutability": "nonpayable",
      "type": "function"
    },
    {
      "inputs": [
        {
          "internalType": "address",
          "name": "newOwner",
          "type": "address"
        }
      ],
      "name": "transferOwnership",
      "outputs": [],
      "stateMutability": "nonpayable",
      "type": "function"
    },
    {
      "inputs": [
        {
          "internalType": "uint256",
          "name": "_id",
          "type": "uint256"
        },
        {
          "internalType": "address",
          "name": "_from",
          "type": "address"
        },
        {
          "internalType": "address",
          "name": "_to",
          "type": "address"
        }
      ],
      "name": "updateAccount",
      "outputs": [],
      "stateMutability": "nonpayable",
      "type": "function"
    },
    {
      "inputs": [
        {
          "internalType": "uint256",
          "name": "id",
          "type": "uint256"
        }
      ],
      "name": "uri",
      "outputs": [
        {
          "internalType": "string",
          "name": "",
          "type": "string"
        }
      ],
      "stateMutability": "view",
      "type": "function"
    },
    {
      "inputs": [
        {
          "internalType": "string",
          "name": "_name",
          "type": "string"
        },
        {
          "internalType": "string",
          "name": "_symbol",
          "type": "string"
        },
        {
          "internalType": "string",
          "name": "baseURI",
          "type": "string"
        },
        {
          "internalType": "string",
          "name": "contractURI",
          "type": "string"
        },
        {
          "internalType": "address[]",
          "name": "operators",
          "type": "address[]"
        },
        {
          "internalType": "address",
          "name": "transferProxy",
          "type": "address"
        },
        {
          "internalType": "address",
          "name": "lazyTransferProxy",
          "type": "address"
        }
      ],
      "name": "__ERC1155RaribleUser_init",
      "outputs": [],
      "stateMutability": "nonpayable",
      "type": "function"
    },
    {
      "inputs": [
        {
          "internalType": "string",
          "name": "_name",
          "type": "string"
        },
        {
          "internalType": "string",
          "name": "_symbol",
          "type": "string"
        },
        {
          "internalType": "string",
          "name": "baseURI",
          "type": "string"
        },
        {
          "internalType": "string",
          "name": "contractURI",
          "type": "string"
        },
        {
          "internalType": "address",
          "name": "transferProxy",
          "type": "address"
        },
        {
          "internalType": "address",
          "name": "lazyTransferProxy",
          "type": "address"
        }
      ],
      "name": "__ERC1155Rarible_init",
      "outputs": [],
      "stateMutability": "nonpayable",
      "type": "function"
    },
    {
      "inputs": [
        {
          "components": [
            {
              "internalType": "uint256",
              "name": "tokenId",
              "type": "uint256"
            },
            {
              "internalType": "string",
              "name": "tokenURI",
              "type": "string"
            },
            {
              "internalType": "uint256",
              "name": "supply",
              "type": "uint256"
            },
            {
              "components": [
                {
                  "internalType": "address payable",
                  "name": "account",
                  "type": "address"
                },
                {
                  "internalType": "uint96",
                  "name": "value",
                  "type": "uint96"
                }
              ],
              "internalType": "struct LibPart.Part[]",
              "name": "creators",
              "type": "tuple[]"
            },
            {
              "components": [
                {
                  "internalType": "address payable",
                  "name": "account",
                  "type": "address"
                },
                {
                  "internalType": "uint96",
                  "name": "value",
                  "type": "uint96"
                }
              ],
              "internalType": "struct LibPart.Part[]",
              "name": "royalties",
              "type": "tuple[]"
            },
            {
              "internalType": "bytes[]",
              "name": "signatures",
              "type": "bytes[]"
            }
          ],
          "internalType": "struct LibERC1155LazyMint.Mint1155Data",
          "name": "data",
          "type": "tuple"
        },
        {
          "internalType": "address",
          "name": "to",
          "type": "address"
        },
        {
          "internalType": "uint256",
          "name": "_amount",
          "type": "uint256"
        }
      ],
      "name": "mintAndTransfer",
      "outputs": [],
      "stateMutability": "nonpayable",
      "type": "function"
    }
  ],
  "bytecode": "0x608060405234801561001057600080fd5b5061553a806100206000396000f3fe608060405234801561001057600080fd5b50600436106101ce5760003560e01c8063715018a611610104578063cad96cca116100a2578063f242432a11610071578063f242432a146103d3578063f2fde38b146103e6578063f5298aca146103f9578063ffc4e0a71461040c576101ce565b8063cad96cca14610392578063e07f2319146103a5578063e8a3d485146103b8578063e985e9c5146103c0576101ce565b806395d89b41116100de57806395d89b4114610351578063983b2d5614610359578063a22cb4651461036c578063aa271e1a1461037f576101ce565b8063715018a614610314578063891be9741461031c5780638da5cb5b1461033c576101ce565b80632eb2c2d61161017157806355f804b31161014b57806355f804b3146102d357806361e05459146102e65780636b20c454146102f95780636c0360eb1461030c576101ce565b80632eb2c2d61461028d5780633092afd5146102a05780634e1273f4146102b3576101ce565b80630e89341c116101ad5780630e89341c146102315780630eaead6714610244578063173c43d2146102595780632a55205a1461026c576101ce565b8062fdd58e146101d357806301ffc9a7146101fc57806306fdde031461021c575b600080fd5b6101e66101e13660046148d7565b61041f565b6040516101f391906150e6565b60405180910390f35b61020f61020a366004614996565b610491565b6040516101f39190614e62565b6102246104a4565b6040516101f39190614e6d565b61022461023f366004614c69565b610533565b610257610252366004614c12565b61053e565b005b6102576102673660046149f8565b6105e2565b61027f61027a366004614cc2565b610645565b6040516101f3929190614dfe565b61025761029b366004614725565b610755565b6102576102ae3660046146d1565b610a53565b6102c66102c1366004614936565b610b03565b6040516101f39190614e2a565b6102576102e13660046149be565b610bee565b6102576102f4366004614abf565b610c93565b610257610307366004614834565b610d2d565b610224610eb3565b610257610f4b565b61032f61032a366004614c69565b610ff7565b6040516101f39190614e17565b610344611087565b6040516101f39190614db4565b610224611096565b6102576103673660046146d1565b6110f2565b61025761037a3660046148a6565b6111a7565b61020f61038d3660046146d1565b611296565b61032f6103a0366004614c69565b6112b5565b6102576103b3366004614c81565b611330565b610224611373565b61020f6103ce3660046146ed565b6113cf565b6102576103e13660046147ce565b6113e2565b6102576103f43660046146d1565b61159b565b610257610407366004614902565b61169e565b61025761041a366004614bab565b61171a565b60006001600160a01b0383166104665760405162461bcd60e51b815260040180806020018281038252602b815260200180615292602b913960400191505060405180910390fd5b5060008181526097602090815260408083206001600160a01b03861684529091529020545b92915050565b600061049c82611775565b90505b919050565b610262805460408051602060026001851615610100026000190190941693909304601f8101849004840282018401909252818152929183018282801561052b5780601f106105005761010080835404028352916020019161052b565b820191906000526020600020905b81548152906001019060200180831161050e57829003601f168201915b505050505081565b606061049c82611814565b6102965460ff16156105d257826060015160008151811061055b57fe5b6020026020010151600001516001600160a01b0316610578611087565b6001600160a01b031614806105ad57506105ad836060015160008151811061059c57fe5b602002602001015160000151611296565b6105d25760405162461bcd60e51b81526004016105c990614e80565b60405180910390fd5b6105dd8383836119aa565b505050565b6105f0868686868686611ca6565b610296805460ff191690557fcc215b7682459c30faa0e854780165d503a7d62d22a9aaaad6334585dc63343e610624611dd8565b878760405161063593929190614dc8565b60405180910390a1505050505050565b60008281526101fa602052604081205481906106665750600090508061074e565b60008481526101fa6020908152604080832080548251818502810185019093528083529192909190849084015b828210156106e257600084815260209081902060408051808201909152908401546001600160a01b0381168252600160a01b90046001600160601b031681830152825260019092019101610693565b505050509050806000815181106106f557fe5b60209081029190910101515192506000805b82518110156107425782818151811061071c57fe5b6020026020010151602001516001600160601b0316820191508080600101915050610707565b50612710908502049150505b9250929050565b81518351146107955760405162461bcd60e51b81526004018080602001828103825260288152602001806154dd6028913960400191505060405180910390fd5b6001600160a01b0384166107da5760405162461bcd60e51b81526004018080602001828103825260258152602001806153526025913960400191505060405180910390fd5b6107e2611dd8565b6001600160a01b0316856001600160a01b031614806108085750610808856103ce611dd8565b6108435760405162461bcd60e51b81526004018080602001828103825260328152602001806153776032913960400191505060405180910390fd5b600061084d611dd8565b905061085d818787878787610a4b565b60005b845181101561096357600085828151811061087757fe5b60200260200101519050600085838151811061088f57fe5b602002602001015190506108fc816040518060600160405280602a815260200161541c602a91396097600086815260200190815260200160002060008d6001600160a01b03166001600160a01b0316815260200190815260200160002054611ddc9092919063ffffffff16565b60008381526097602090815260408083206001600160a01b038e811685529252808320939093558a16815220546109339082611e73565b60009283526097602090815260408085206001600160a01b038c1686529091529092209190915550600101610860565b50846001600160a01b0316866001600160a01b0316826001600160a01b03167f4a39dc06d4c0dbc64b70af90fd698a233a518aa5d07e595d983b8c0526c8f7fb8787604051808060200180602001838103835285818151815260200191508051906020019060200280838360005b838110156109e95781810151838201526020016109d1565b50505050905001838103825284818151815260200191508051906020019060200280838360005b83811015610a28578181015183820152602001610a10565b5050505090500194505050505060405180910390a4610a4b818787878787611ecd565b505050505050565b610a5b611dd8565b6001600160a01b0316610a6c611087565b6001600160a01b031614610ab5576040805162461bcd60e51b81526020600482018190526024820152600080516020615446833981519152604482015290519081900360640190fd5b6001600160a01b03811660008181526102c86020526040808220805460ff19169055519091907f3042b80e435ae46c334b2cfec51a66d64c9a8a8af4cd0c279a124c35a09e91dd908390a350565b60608151835114610b455760405162461bcd60e51b81526004018080602001828103825260298152602001806154b46029913960400191505060405180910390fd5b600083516001600160401b0381118015610b5e57600080fd5b50604051908082528060200260200182016040528015610b88578160200160208202803683370190505b50905060005b8451811015610be657610bc7858281518110610ba657fe5b6020026020010151858381518110610bba57fe5b602002602001015161041f565b828281518110610bd357fe5b6020908102919091010152600101610b8e565b509392505050565b610bf6611dd8565b6001600160a01b0316610c07611087565b6001600160a01b031614610c50576040805162461bcd60e51b81526020600482018190526024820152600080516020615446833981519152604482015290519081900360640190fd5b610c5981612143565b7f87cdeaffd8e70903d6ce7cc983fac3b09ca79e83818124c98e47a1d70f8027d681604051610c889190614e6d565b60405180910390a150565b610ca1878787878686611ca6565b60005b8351811015610cd357610ccb848281518110610cbc57fe5b602002602001015160016111a7565b600101610ca4565b50610296805460ff191660011790557f7da6bc204c8c4856a6aff786a6cb81c59477c782191dc51837d644a8ad50f2cc610d0b611dd8565b8888604051610d1c93929190614dc8565b60405180910390a150505050505050565b8051825114610d4e5760405162461bcd60e51b81526004016105c99061502f565b600082516001600160401b0381118015610d6757600080fd5b50604051908082528060200260200182016040528015610d91578160200160208202803683370190505b509050600083516001600160401b0381118015610dad57600080fd5b50604051908082528060200260200182016040528015610dd7578160200160208202803683370190505b50905060005b8451811015610e4c57610e16858281518110610df557fe5b6020026020010151858381518110610e0957fe5b602002602001015161215b565b848381518110610e2257fe5b60200260200101848481518110610e3557fe5b602090810291909101019190915252600101610ddd565b50610e588585846121d0565b846001600160a01b0316610e6a611dd8565b6001600160a01b03167fcf3391513e21a9d4a0348f8e890080170eba18dc62db35b60d8a518b7088eb3a8684604051610ea4929190614e3d565b60405180910390a35050505050565b61012f8054604080516020601f6002600019610100600188161502019095169490940493840181900481028201810190925282815260609390929091830182828015610f405780601f10610f1557610100808354040283529160200191610f40565b820191906000526020600020905b815481529060010190602001808311610f2357829003601f168201915b505050505090505b90565b610f53611dd8565b6001600160a01b0316610f64611087565b6001600160a01b031614610fad576040805162461bcd60e51b81526020600482018190526024820152600080516020615446833981519152604482015290519081900360640190fd5b6033546040516000916001600160a01b0316907f8be0079c531659141344cd1fd0a4f28419497f9722a3daafe3b4186f6b6457e0908390a3603380546001600160a01b0319169055565b60606101fb6000838152602001908152602001600020805480602002602001604051908101604052809291908181526020016000905b8282101561107c57600084815260209081902060408051808201909152908401546001600160a01b0381168252600160a01b90046001600160601b03168183015282526001909201910161102d565b505050509050919050565b6033546001600160a01b031690565b610263805460408051602060026001851615610100026000190190941693909304601f8101849004840282018401909252818152929183018282801561052b5780601f106105005761010080835404028352916020019161052b565b6110fa611dd8565b6001600160a01b031661110b611087565b6001600160a01b031614611154576040805162461bcd60e51b81526020600482018190526024820152600080516020615446833981519152604482015290519081900360640190fd5b6001600160a01b03811660008181526102c86020526040808220805460ff1916600190811790915590519092917f3042b80e435ae46c334b2cfec51a66d64c9a8a8af4cd0c279a124c35a09e91dd91a350565b816001600160a01b03166111b9611dd8565b6001600160a01b031614156111ff5760405162461bcd60e51b815260040180806020018281038252602981526020018061548b6029913960400191505060405180910390fd5b806098600061120c611dd8565b6001600160a01b03908116825260208083019390935260409182016000908120918716808252919093529120805460ff191692151592909217909155611250611dd8565b6001600160a01b03167f17307eab39ab6107e8899845ad3d59bd9653f200f220920489ca2b5937696c318360405180821515815260200191505060405180910390a35050565b6001600160a01b031660009081526102c8602052604090205460ff1690565b60008181526101fa6020908152604080832080548251818502810185019093528083526060949293919290918401821561107c57600084815260209081902060408051808201909152908401546001600160a01b0381168252600160a01b90046001600160601b03168183015282526001909201910161102d565b816001600160a01b0316611342611dd8565b6001600160a01b0316146113685760405162461bcd60e51b81526004016105c990614f37565b6105dd838383612244565b610230805460408051602060026001851615610100026000190190941693909304601f8101849004840282018401909252818152929183018282801561052b5780601f106105005761010080835404028352916020019161052b565b60006113db83836122f0565b9392505050565b6001600160a01b0384166114275760405162461bcd60e51b81526004018080602001828103825260258152602001806153526025913960400191505060405180910390fd5b61142f611dd8565b6001600160a01b0316856001600160a01b031614806114555750611455856103ce611dd8565b6114905760405162461bcd60e51b81526004018080602001828103825260298152602001806153076029913960400191505060405180910390fd5b600061149a611dd8565b90506114ba8187876114ab8861231c565b6114b48861231c565b87610a4b565b611501836040518060600160405280602a815260200161541c602a913960008781526097602090815260408083206001600160a01b038d1684529091529020549190611ddc565b60008581526097602090815260408083206001600160a01b038b811685529252808320939093558716815220546115389084611e73565b60008581526097602090815260408083206001600160a01b03808b168086529184529382902094909455805188815291820187905280518a84169386169260008051602061527283398151915292908290030190a4610a4b818787878787612361565b6115a3611dd8565b6001600160a01b03166115b4611087565b6001600160a01b0316146115fd576040805162461bcd60e51b81526020600482018190526024820152600080516020615446833981519152604482015290519081900360640190fd5b6001600160a01b0381166116425760405162461bcd60e51b81526004018080602001828103825260268152602001806152bd6026913960400191505060405180910390fd5b6033546040516001600160a01b038084169216907f8be0079c531659141344cd1fd0a4f28419497f9722a3daafe3b4186f6b6457e090600090a3603380546001600160a01b0319166001600160a01b0392909216919091179055565b6000806116ab848461215b565b909250905081156116c1576116c18585846124d2565b801561171357846001600160a01b03166116d9611dd8565b6001600160a01b03167f5110a21391aa55386de41fe7a3e3dffb40132d38d629a113a7f4afff251b1a018684604051610ea4929190615108565b5050505050565b600061172a84866000015161041f565b905081811561176457828083101561173f5750815b61175f8686896000015184604051806020016040528060008152506113e2565b830390505b8015610a4b57610a4b86858361053e565b60006001600160e01b03198216636db15a0f60e01b14806117a657506001600160e01b0319821663656cb66560e11b145b806117c157506001600160e01b0319821663152a902d60e11b145b806117dc57506001600160e01b031982166301ffc9a760e01b145b806117f757506001600160e01b03198216636cdb3d1360e11b145b8061049c5750506001600160e01b0319166303a24d0760e21b1490565b600081815261012e6020908152604080832080548251601f60026000196101006001861615020190931692909204918201859004850281018501909352808352606094938301828280156118a95780601f1061187e576101008083540402835291602001916118a9565b820191906000526020600020905b81548152906001019060200180831161188c57829003601f168201915b5050505050905060006118ba610eb3565b90508051600014156118ce5750905061049f565b8151156118e8576118df8183612546565b9250505061049f565b806118f28561272b565b6040516020018083805190602001908083835b602083106119245780518252601f199092019160209182019101611905565b51815160209384036101000a600019018019909216911617905285519190930192850191508083835b6020831061196c5780518252601f19909201916020918201910161194d565b6001836020036101000a0380198251168184511680821785525050505050509050019250505060405160208183030381529060405292505050919050565b825160601c60006119b9611dd8565b9050806001600160a01b0316826001600160a01b031614806119e057506119e082826113cf565b6119fc5760405162461bcd60e51b81526004016105c990614f86565b60008311611a1c5760405162461bcd60e51b81526004016105c990614f5c565b845160009081526101fc6020526040902054611b85578460600151600081518110611a4357fe5b6020026020010151600001516001600160a01b0316826001600160a01b031614611a7f5760405162461bcd60e51b81526004016105c990614f0c565b6000856040015111611aa35760405162461bcd60e51b81526004016105c990614ead565b8460a001515185606001515114611ab957600080fd5b6000611ac486612805565b905060005b866060015151811015611b3a57600087606001518281518110611ae857fe5b6020026020010151600001519050836001600160a01b0316816001600160a01b031614611b3157611b3181848a60a001518581518110611b2457fe5b6020026020010151612a58565b50600101611ac9565b50611b4d86600001518760400151612a63565b611b5f86600001518760800151612acd565b611b7186600001518760600151612cbc565b611b8386600001518760200151612e6b565b505b611ba48486600001518560405180602001604052806000815250612f2f565b836001600160a01b0316826001600160a01b031614611c5557816001600160a01b031660006001600160a01b0316826001600160a01b0316600080516020615272833981519152886000015187604051611bff929190615108565b60405180910390a4836001600160a01b0316826001600160a01b0316826001600160a01b0316600080516020615272833981519152886000015187604051611c48929190615108565b60405180910390a4611713565b836001600160a01b031660006001600160a01b0316826001600160a01b0316600080516020615272833981519152886000015187604051611c97929190615108565b60405180910390a45050505050565b600054610100900460ff1680611cbf5750611cbf612f41565b80611ccd575060005460ff16155b611d085760405162461bcd60e51b815260040180806020018281038252602e8152602001806153a9602e913960400191505060405180910390fd5b600054610100900460ff16158015611d33576000805460ff1961ff0019909116610100171660011790555b611d3b612f52565b611d4361304c565b611d4b6130ed565b611d5361304c565b611d5b61318a565b611d736040518060200160405280600081525061325a565b611d7c84613325565b611d8461304c565b611d8c6133d7565b611d968787613474565b611d9e61304c565b611da785612143565b611db2836001613541565b611dbd826001613541565b8015611dcf576000805461ff00191690555b50505050505050565b3390565b60008184841115611e6b5760405162461bcd60e51b81526004018080602001828103825283818151815260200191508051906020019080838360005b83811015611e30578181015183820152602001611e18565b50505050905090810190601f168015611e5d5780820380516001836020036101000a031916815260200191505b509250505060405180910390fd5b505050900390565b6000828201838110156113db576040805162461bcd60e51b815260206004820152601b60248201527f536166654d6174683a206164646974696f6e206f766572666c6f770000000000604482015290519081900360640190fd5b611edf846001600160a01b03166135a1565b15610a4b57836001600160a01b031663bc197c8187878686866040518663ffffffff1660e01b815260040180866001600160a01b03168152602001856001600160a01b03168152602001806020018060200180602001848103845287818151815260200191508051906020019060200280838360005b83811015611f6d578181015183820152602001611f55565b50505050905001848103835286818151815260200191508051906020019060200280838360005b83811015611fac578181015183820152602001611f94565b50505050905001848103825285818151815260200191508051906020019080838360005b83811015611fe8578181015183820152602001611fd0565b50505050905090810190601f1680156120155780820380516001836020036101000a031916815260200191505b5098505050505050505050602060405180830381600087803b15801561203a57600080fd5b505af192505050801561205f57506040513d602081101561205a57600080fd5b505160015b6120f45761206b61515c565b8061207657506120bd565b60405162461bcd60e51b8152602060048201818152835160248401528351849391928392604401919085019080838360008315611e30578181015183820152602001611e18565b60405162461bcd60e51b81526004018080602001828103825260348152602001806152166034913960400191505060405180910390fd5b6001600160e01b0319811663bc197c8160e01b14611dcf5760405162461bcd60e51b815260040180806020018281038252602881526020018061524a6028913960400191505060405180910390fd5b80516121579061012f906020840190614315565b5050565b806000606084901c61216b611dd8565b6001600160a01b0316816001600160a01b031614156121c8578391506000612192866135a7565b905080156121b75760006121a5876135ba565b82039050808611156121b5578093505b505b6121c186846135cd565b8285039350505b509250929050565b6121d8611dd8565b6001600160a01b0316836001600160a01b031614806121fe57506121fe836103ce611dd8565b6122395760405162461bcd60e51b81526004018080602001828103825260298152602001806153076029913960400191505060405180910390fd5b6105dd8383836135e6565b60008381526101fa6020526040812054905b818110156117135760008581526101fa6020526040902080546001600160a01b03861691908390811061228557fe5b6000918252602090912001546001600160a01b031614156122e85760008581526101fa602052604090208054849190839081106122be57fe5b600091825260209091200180546001600160a01b0319166001600160a01b03929092169190911790555b600101612256565b6001600160a01b038116600090815260c9602052604081205460ff16806113db57506113db8383613854565b6040805160018082528183019092526060916000919060208083019080368337019050509050828160008151811061235057fe5b602090810291909101015292915050565b612373846001600160a01b03166135a1565b15610a4b57836001600160a01b031663f23a6e6187878686866040518663ffffffff1660e01b815260040180866001600160a01b03168152602001856001600160a01b0316815260200184815260200183815260200180602001828103825283818151815260200191508051906020019080838360005b838110156124025781810151838201526020016123ea565b50505050905090810190601f16801561242f5780820380516001836020036101000a031916815260200191505b509650505050505050602060405180830381600087803b15801561245257600080fd5b505af192505050801561247757506040513d602081101561247257600080fd5b505160015b6124835761206b61515c565b6001600160e01b0319811663f23a6e6160e01b14611dcf5760405162461bcd60e51b815260040180806020018281038252602881526020018061524a6028913960400191505060405180910390fd5b6124da611dd8565b6001600160a01b0316836001600160a01b031614806125005750612500836103ce611dd8565b61253b5760405162461bcd60e51b81526004018080602001828103825260298152602001806153076029913960400191505060405180910390fd5b6105dd838383613882565b805182516060918491849110156126115784846040516020018083805190602001908083835b6020831061258b5780518252601f19909201916020918201910161256c565b51815160209384036101000a600019018019909216911617905285519190930192850191508083835b602083106125d35780518252601f1990920191602091820191016125b4565b6001836020036101000a038019825116818451168082178552505050505050905001925050506040516020818303038152906040529250505061048b565b60005b82518110156127215782818151811061262957fe5b602001015160f81c60f81b6001600160f81b03191682828151811061264a57fe5b01602001516001600160f81b031916146127195785856040516020018083805190602001908083835b602083106126925780518252601f199092019160209182019101612673565b51815160209384036101000a600019018019909216911617905285519190930192850191508083835b602083106126da5780518252601f1990920191602091820191016126bb565b6001836020036101000a03801982511681845116808217855250505050505090500192505050604051602081830303815290604052935050505061048b565b600101612614565b5092949350505050565b60608161275057506040805180820190915260018152600360fc1b602082015261049f565b8160005b811561276857600101600a82049150612754565b6000816001600160401b038111801561278057600080fd5b506040519080825280601f01601f1916602001820160405280156127ab576020820181803683370190505b50859350905060001982015b83156127fc57600a840660300160f81b828280600190039350815181106127da57fe5b60200101906001600160f81b031916908160001a905350600a840493506127b7565b50949350505050565b6000808260800151516001600160401b038111801561282357600080fd5b5060405190808252806020026020018201604052801561284d578160200160208202803683370190505b50905060005b83608001515181101561289f576128808460800151828151811061287357fe5b60200260200101516139a3565b82828151811061288c57fe5b6020908102919091010152600101612853565b5060008360600151516001600160401b03811180156128bd57600080fd5b506040519080825280602002602001820160405280156128e7578160200160208202803683370190505b50905060005b84606001515181101561292c5761290d8560600151828151811061287357fe5b82828151811061291957fe5b60209081029190910101526001016128ed565b507ffb988707ebb338694f318760b0fd5cfe756d00a2ade251fda110b80c336a3c7f846000015185604001518660200151805190602001208460405160200180828051906020019060200280838360005b8381101561299557818101518382015260200161297d565b50505050905001915050604051602081830303815290604052805190602001208660405160200180828051906020019060200280838360005b838110156129e65781810151838201526020016129ce565b50505050905001915050604051602081830303815290604052805190602001206040516020018087815260200186815260200185815260200184815260200183815260200182815260200196505050505050506040516020818303038152906040528051906020012092505050919050565b6105dd838383613a10565b60008281526101fc602052604090205415612a7d57600080fd5b60008281526101fc602052604090819020829055517f5e2aa66efd74cce82b21852e317e5490d9ecc9e6bb953ae24d90851258cc2f5c90612ac19084908490615108565b60405180910390a15050565b6000805b8251811015612c715760006001600160a01b0316838281518110612af157fe5b6020026020010151600001516001600160a01b03161415612b59576040805162461bcd60e51b815260206004820152601b60248201527f526563697069656e742073686f756c642062652070726573656e740000000000604482015290519081900360640190fd5b828181518110612b6557fe5b6020026020010151602001516001600160601b031660001415612bcf576040805162461bcd60e51b815260206004820181905260248201527f526f79616c74792076616c75652073686f756c6420626520706f736974697665604482015290519081900360640190fd5b828181518110612bdb57fe5b6020026020010151602001516001600160601b0316820191506101fa6000858152602001908152602001600020838281518110612c1457fe5b60209081029190910181015182546001818101855560009485529383902082519101805492909301516001600160601b0316600160a01b026001600160a01b039182166001600160a01b0319909316929092171617905501612ad1565b506127108110612cb25760405162461bcd60e51b81526004018080602001828103825260258152602001806154666025913960400191505060405180910390fd5b6105dd8383613c52565b60008281526101fb6020526040812090805b8351811015612e0a5760006001600160a01b0316848281518110612cee57fe5b6020026020010151600001516001600160a01b03161415612d215760405162461bcd60e51b81526004016105c990614ff8565b838181518110612d2d57fe5b6020026020010151602001516001600160601b031660001415612d625760405162461bcd60e51b81526004016105c990614ed7565b82848281518110612d6f57fe5b602090810291909101810151825460018101845560009384529282902081519301805491909201516001600160601b0316600160a01b026001600160a01b039384166001600160a01b0319909216919091179092169190911790558351612e0090859083908110612ddc57fe5b6020026020010151602001516001600160601b031683611e7390919063ffffffff16565b9150600101612cce565b508061271014612e2c5760405162461bcd60e51b81526004016105c990615098565b7f841ffb90d4cabdd1f16034f3fa831d79060febbb8167bdd54a49269365bdf78f8484604051612e5d9291906150ef565b60405180910390a150505050565b600082815261012e602090815260409091208251612e8b92840190614315565b50817f6bb7ff708619ba0610cba295a58592e0451dee2622938c8755667688daf3529b612eb784611814565b6040805160208082528351818301528351919283929083019185019080838360005b83811015612ef1578181015183820152602001612ed9565b50505050905090810190601f168015612f1e5780820380516001836020036101000a031916815260200191505b509250505060405180910390a25050565b612f3b84848484613c83565b50505050565b6000612f4c306135a1565b15905090565b600054610100900460ff1680612f6b5750612f6b612f41565b80612f79575060005460ff16155b612fb45760405162461bcd60e51b815260040180806020018281038252602e8152602001806153a9602e913960400191505060405180910390fd5b600054610100900460ff16158015612fdf576000805460ff1961ff0019909116610100171660011790555b6000612fe9611dd8565b603380546001600160a01b0319166001600160a01b038316908117909155604051919250906000907f8be0079c531659141344cd1fd0a4f28419497f9722a3daafe3b4186f6b6457e0908290a3508015613049576000805461ff00191690555b50565b600054610100900460ff16806130655750613065612f41565b80613073575060005460ff16155b6130ae5760405162461bcd60e51b815260040180806020018281038252602e8152602001806153a9602e913960400191505060405180910390fd5b600054610100900460ff161580156130d9576000805460ff1961ff0019909116610100171660011790555b8015613049576000805461ff001916905550565b600054610100900460ff16806131065750613106612f41565b80613114575060005460ff16155b61314f5760405162461bcd60e51b815260040180806020018281038252602e8152602001806153a9602e913960400191505060405180910390fd5b600054610100900460ff1615801561317a576000805460ff1961ff0019909116610100171660011790555b6130d96301ffc9a760e01b613d95565b600054610100900460ff16806131a357506131a3612f41565b806131b1575060005460ff16155b6131ec5760405162461bcd60e51b815260040180806020018281038252602e8152602001806153a9602e913960400191505060405180910390fd5b600054610100900460ff16158015613217576000805460ff1961ff0019909116610100171660011790555b6130d9604051806040016040528060088152602001674d696e743131353560c01b815250604051806040016040528060018152602001603160f81b815250613e19565b600054610100900460ff16806132735750613273612f41565b80613281575060005460ff16155b6132bc5760405162461bcd60e51b815260040180806020018281038252602e8152602001806153a9602e913960400191505060405180910390fd5b600054610100900460ff161580156132e7576000805460ff1961ff0019909116610100171660011790555b6132f082613edb565b613300636cdb3d1360e11b613d95565b6133106303a24d0760e21b613d95565b8015612157576000805461ff00191690555050565b600054610100900460ff168061333e575061333e612f41565b8061334c575060005460ff16155b6133875760405162461bcd60e51b815260040180806020018281038252602e8152602001806153a9602e913960400191505060405180910390fd5b600054610100900460ff161580156133b2576000805460ff1961ff0019909116610100171660011790555b81516133c690610230906020850190614315565b5061331063e8a3d48560e01b613d95565b600054610100900460ff16806133f057506133f0612f41565b806133fe575060005460ff16155b6134395760405162461bcd60e51b815260040180806020018281038252602e8152602001806153a9602e913960400191505060405180910390fd5b600054610100900460ff16158015613464576000805460ff1961ff0019909116610100171660011790555b6130d963656cb66560e11b613d95565b600054610100900460ff168061348d575061348d612f41565b8061349b575060005460ff16155b6134d65760405162461bcd60e51b815260040180806020018281038252602e8152602001806153a9602e913960400191505060405180910390fd5b600054610100900460ff16158015613501576000805460ff1961ff0019909116610100171660011790555b825161351590610262906020860190614315565b50815161352a90610263906020850190614315565b5080156105dd576000805461ff0019169055505050565b6001600160a01b038216600081815260c96020908152604091829020805460ff1916851515908117909155825190815291517f270dbb8ba4292910ae92862466486be25c355c837270a3d8824b36a8bc7c653b9281900390910190a25050565b3b151590565b60009081526101fc602052604090205490565b60009081526101fd602052604090205490565b60009182526101fd602052604090912080549091019055565b6001600160a01b03831661362b5760405162461bcd60e51b81526004018080602001828103825260238152602001806153f96023913960400191505060405180910390fd5b805182511461366b5760405162461bcd60e51b81526004018080602001828103825260288152602001806154dd6028913960400191505060405180910390fd5b6000613675611dd8565b905061369581856000868660405180602001604052806000815250610a4b565b60005b83518110156137735761372a8382815181106136b057fe5b60200260200101516040518060600160405280602481526020016152e360249139609760008886815181106136e157fe5b602002602001015181526020019081526020016000206000896001600160a01b03166001600160a01b0316815260200190815260200160002054611ddc9092919063ffffffff16565b6097600086848151811061373a57fe5b602090810291909101810151825281810192909252604090810160009081206001600160a01b038a168252909252902055600101613698565b5060006001600160a01b0316846001600160a01b0316826001600160a01b03167f4a39dc06d4c0dbc64b70af90fd698a233a518aa5d07e595d983b8c0526c8f7fb8686604051808060200180602001838103835285818151815260200191508051906020019060200280838360005b838110156137fa5781810151838201526020016137e2565b50505050905001838103825284818151815260200191508051906020019060200280838360005b83811015613839578181015183820152602001613821565b5050505090500194505050505060405180910390a450505050565b6001600160a01b03918216600090815260986020908152604080832093909416825291909152205460ff1690565b6001600160a01b0383166138c75760405162461bcd60e51b81526004018080602001828103825260238152602001806153f96023913960400191505060405180910390fd5b60006138d1611dd8565b9050613901818560006138e38761231c565b6138ec8761231c565b60405180602001604052806000815250610a4b565b613948826040518060600160405280602481526020016152e36024913960008681526097602090815260408083206001600160a01b038b1684529091529020549190611ddc565b60008481526097602090815260408083206001600160a01b03808a168086529184528285209590955581518881529283018790528151939490939086169260008051602061527283398151915292908290030190a450505050565b8051602091820151604080517f397e04204c1e1a60ee8724b71f8244e10ab5f2e9009854d80f602bda21b59ebb818601526001600160a01b03909316838201526001600160601b039091166060808401919091528151808403909101815260809092019052805191012090565b6000613a1b83613eee565b90506000825160411415613a3657613a338284613f3a565b90505b846001600160a01b0316816001600160a01b03161461171357613a61856001600160a01b03166135a1565b15613bda5760408051630b135d3f60e11b808252600482018581526024830193845286516044840152865191936001600160a01b038a1693631626ba7e9388938a9390929091606490910190602085019080838360005b83811015613ad0578181015183820152602001613ab8565b50505050905090810190601f168015613afd5780820380516001836020036101000a031916815260200191505b50935050505060206040518083038186803b158015613b1b57600080fd5b505afa158015613b2f573d6000803e3d6000fd5b505050506040513d6020811015613b4557600080fd5b505160408051808201909152601c81527f7369676e617475726520766572696669636174696f6e206572726f72000000006020820152916001600160e01b031990911614613bd45760405162461bcd60e51b8152602060048201818152835160248401528351909283926044909101919085019080838360008315611e30578181015183820152602001611e18565b50611713565b604080518082018252601c81527f7369676e617475726520766572696669636174696f6e206572726f72000000006020808301918252925162461bcd60e51b81526004810193845282516024820152825192939283926044909201919080838360008315611e30578181015183820152602001611e18565b7f3fa96d7b6bcbfe71ef171666d84db3cf52fa2d1c8afdb1cc8e486177f208b7df8282604051612ac19291906150ef565b60008381526101fd6020526040812054613c9e908490611e73565b60008581526101fc6020526040902054909150811115613cd05760405162461bcd60e51b81526004016105c990614fce565b60008481526101fd602052604090208190556001600160a01b038516613d085760405162461bcd60e51b81526004016105c990615057565b6000613d12611dd8565b9050613d3381600088613d248961231c565b613d2d8961231c565b88610a4b565b60008581526097602090815260408083206001600160a01b038a168452909152902054613d609085611e73565b60008681526097602090815260408083206001600160a01b038b168452909152812091909155610a4b90829088888888612361565b6001600160e01b03198082161415613df4576040805162461bcd60e51b815260206004820152601c60248201527f4552433136353a20696e76616c696420696e7465726661636520696400000000604482015290519081900360640190fd5b6001600160e01b0319166000908152606560205260409020805460ff19166001179055565b600054610100900460ff1680613e325750613e32612f41565b80613e40575060005460ff16155b613e7b5760405162461bcd60e51b815260040180806020018281038252602e8152602001806153a9602e913960400191505060405180910390fd5b600054610100900460ff16158015613ea6576000805460ff1961ff0019909116610100171660011790555b8251602080850191909120835191840191909120610162919091556101635580156105dd576000805461ff0019169055505050565b8051612157906099906020840190614315565b6000613ef8613fba565b82604051602001808061190160f01b81525060020183815260200182815260200192505050604051602081830303815290604052805190602001209050919050565b60008151604114613f92576040805162461bcd60e51b815260206004820152601f60248201527f45434453413a20696e76616c6964207369676e6174757265206c656e67746800604482015290519081900360640190fd5b60208201516040830151606084015160001a613fb086828585613ffa565b9695505050505050565b6000613ff57f8b73c3c69bb8fe3d512ecc4cf759cc79239f7b179b0ffacaa9a75d522b39400f613fe8614250565b613ff0614257565b61425e565b905090565b60007f7fffffffffffffffffffffffffffffff5d576e7357a4501ddfe92f46681b20a082111561405b5760405162461bcd60e51b81526004018080602001828103825260228152602001806153306022913960400191505060405180910390fd5b6000601e8560ff161115614135576004850360ff16601b148061408457506004850360ff16601c145b6140bf5760405162461bcd60e51b81526004018080602001828103825260228152602001806153d76022913960400191505060405180910390fd5b60016140ca876142c0565b60048703868660405160008152602001604052604051808581526020018460ff1681526020018381526020018281526020019450505050506020604051602081039080840390855afa158015614124573d6000803e3d6000fd5b5050506020604051035190506141ec565b8460ff16601b148061414a57508460ff16601c145b6141855760405162461bcd60e51b81526004018080602001828103825260228152602001806153d76022913960400191505060405180910390fd5b60018686868660405160008152602001604052604051808581526020018460ff1681526020018381526020018281526020019450505050506020604051602081039080840390855afa1580156141df573d6000803e3d6000fd5b5050506020604051035190505b6001600160a01b038116614247576040805162461bcd60e51b815260206004820152601860248201527f45434453413a20696e76616c6964207369676e61747572650000000000000000604482015290519081900360640190fd5b95945050505050565b6101625490565b6101635490565b600083838361426b614311565b3060405160200180868152602001858152602001848152602001838152602001826001600160a01b03168152602001955050505050506040516020818303038152906040528051906020012090509392505050565b604080517f19457468657265756d205369676e6564204d6573736167653a0a333200000000602080830191909152603c8083019490945282518083039094018452605c909101909152815191012090565b4690565b828054600181600116156101000203166002900490600052602060002090601f01602090048101928261434b5760008555614391565b82601f1061436457805160ff1916838001178555614391565b82800160010185558215614391579182015b82811115614391578251825591602001919060010190614376565b5061439d9291506143a1565b5090565b5b8082111561439d57600081556001016143a2565b803561049f81615200565b600082601f8301126143d1578081fd5b813560206143e66143e183615139565b615116565b8281528181019085830183850287018401881015614402578586fd5b855b8581101561442957813561441781615200565b84529284019290840190600101614404565b5090979650505050505050565b600082601f830112614446578081fd5b813560206144566143e183615139565b82815281810190858301855b8581101561442957614479898684358b01016145a0565b84529284019290840190600101614462565b600082601f83011261449b578081fd5b813560206144ab6143e183615139565b828152818101908583016040808602880185018910156144c9578687fd5b865b868110156145385781838b0312156144e1578788fd5b81518281018181106001600160401b03821117156144fb57fe5b8352833561450881615200565b8152838701356001600160601b038116811461452257898afd5b81880152855293850193918101916001016144cb565b509198975050505050505050565b600082601f830112614556578081fd5b813560206145666143e183615139565b8281528181019085830183850287018401881015614582578586fd5b855b8581101561442957813584529284019290840190600101614584565b600082601f8301126145b0578081fd5b81356001600160401b038111156145c357fe5b6145d6601f8201601f1916602001615116565b8181528460208386010111156145ea578283fd5b816020850160208301379081016020019190915292915050565b600060c08284031215614615578081fd5b61461f60c0615116565b90508135815260208201356001600160401b038082111561463f57600080fd5b61464b858386016145a0565b602084015260408401356040840152606084013591508082111561466e57600080fd5b61467a8583860161448b565b6060840152608084013591508082111561469357600080fd5b61469f8583860161448b565b608084015260a08401359150808211156146b857600080fd5b506146c584828501614436565b60a08301525092915050565b6000602082840312156146e2578081fd5b81356113db81615200565b600080604083850312156146ff578081fd5b823561470a81615200565b9150602083013561471a81615200565b809150509250929050565b600080600080600060a0868803121561473c578081fd5b853561474781615200565b9450602086013561475781615200565b935060408601356001600160401b0380821115614772578283fd5b61477e89838a01614546565b94506060880135915080821115614793578283fd5b61479f89838a01614546565b935060808801359150808211156147b4578283fd5b506147c1888289016145a0565b9150509295509295909350565b600080600080600060a086880312156147e5578283fd5b85356147f081615200565b9450602086013561480081615200565b9350604086013592506060860135915060808601356001600160401b03811115614828578182fd5b6147c1888289016145a0565b600080600060608486031215614848578081fd5b833561485381615200565b925060208401356001600160401b038082111561486e578283fd5b61487a87838801614546565b9350604086013591508082111561488f578283fd5b5061489c86828701614546565b9150509250925092565b600080604083850312156148b8578182fd5b82356148c381615200565b91506020830135801515811461471a578182fd5b600080604083850312156148e9578182fd5b82356148f481615200565b946020939093013593505050565b600080600060608486031215614916578081fd5b833561492181615200565b95602085013595506040909401359392505050565b60008060408385031215614948578182fd5b82356001600160401b038082111561495e578384fd5b61496a868387016143c1565b9350602085013591508082111561497f578283fd5b5061498c85828601614546565b9150509250929050565b6000602082840312156149a7578081fd5b81356001600160e01b0319811681146113db578182fd5b6000602082840312156149cf578081fd5b81356001600160401b038111156149e4578182fd5b6149f0848285016145a0565b949350505050565b60008060008060008060c08789031215614a10578384fd5b86356001600160401b0380821115614a26578586fd5b614a328a838b016145a0565b97506020890135915080821115614a47578586fd5b614a538a838b016145a0565b96506040890135915080821115614a68578586fd5b614a748a838b016145a0565b95506060890135915080821115614a89578283fd5b50614a9689828a016145a0565b935050614aa5608088016143b6565b9150614ab360a088016143b6565b90509295509295509295565b600080600080600080600060e0888a031215614ad9578485fd5b87356001600160401b0380821115614aef578687fd5b614afb8b838c016145a0565b985060208a0135915080821115614b10578687fd5b614b1c8b838c016145a0565b975060408a0135915080821115614b31578687fd5b614b3d8b838c016145a0565b965060608a0135915080821115614b52578283fd5b614b5e8b838c016145a0565b955060808a0135915080821115614b73578283fd5b50614b808a828b016143c1565b935050614b8f60a089016143b6565b9150614b9d60c089016143b6565b905092959891949750929550565b60008060008060808587031215614bc0578182fd5b84356001600160401b03811115614bd5578283fd5b614be187828801614604565b9450506020850135614bf281615200565b92506040850135614c0281615200565b9396929550929360600135925050565b600080600060608486031215614c26578081fd5b83356001600160401b03811115614c3b578182fd5b614c4786828701614604565b9350506020840135614c5881615200565b929592945050506040919091013590565b600060208284031215614c7a578081fd5b5035919050565b600080600060608486031215614c95578081fd5b833592506020840135614ca781615200565b91506040840135614cb781615200565b809150509250925092565b60008060408385031215614cd4578182fd5b50508035926020909101359150565b6000815180845260208085019450808401835b83811015614d2f57815180516001600160a01b031688528301516001600160601b03168388015260409096019590820190600101614cf6565b509495945050505050565b6000815180845260208085019450808401835b83811015614d2f57815187529582019590820190600101614d4d565b60008151808452815b81811015614d8e57602081850181015186830182015201614d72565b81811115614d9f5782602083870101525b50601f01601f19169290920160200192915050565b6001600160a01b0391909116815260200190565b6001600160a01b0384168152606060208201819052600090614dec90830185614d69565b8281036040840152613fb08185614d69565b6001600160a01b03929092168252602082015260400190565b6000602082526113db6020830184614ce3565b6000602082526113db6020830184614d3a565b600060408252614e506040830185614d3a565b82810360208401526142478185614d3a565b901515815260200190565b6000602082526113db6020830184614d69565b6020808252601390820152723737ba1037bbb732b91037b91036b4b73a32b960691b604082015260600190565b60208082526010908201526f1cdd5c1c1b1e481a5b98dbdc9c9958dd60821b604082015260600190565b6020808252818101527f43726561746f722073686172652073686f756c6420626520706f736974697665604082015260600190565b6020808252601190820152701d1bdad95b9259081a5b98dbdc9c9958dd607a1b604082015260600190565b6020808252600b908201526a1b9bdd08185b1b1bddd95960aa1b604082015260600190565b60208082526010908201526f185b5bdd5b9d081a5b98dbdc9c9958dd60821b604082015260600190565b60208082526028908201527f455243313135353a207472616e736665722063616c6c6572206973206e6f7420604082015267185c1c1c9bdd995960c21b606082015260800190565b60208082526010908201526f6d6f7265207468616e20737570706c7960801b604082015260600190565b60208082526019908201527f4163636f756e742073686f756c642062652070726573656e7400000000000000604082015260600190565b6020808252600e908201526d69647320213d20616d6f756e747360901b604082015260600190565b60208082526021908201527f455243313135353a206d696e7420746f20746865207a65726f206164647265736040820152607360f81b606082015260800190565b6020808252602e908201527f746f74616c20616d6f756e74206f662063726561746f7273207368617265207360408201526d0686f756c642062652031303030360941b606082015260800190565b90815260200190565b6000838252604060208301526149f06040830184614ce3565b918252602082015260400190565b6040518181016001600160401b038111828210171561513157fe5b604052919050565b60006001600160401b0382111561514c57fe5b5060209081020190565b60e01c90565b600060443d101561516c57610f48565b600481823e6308c379a06151808251615156565b1461518a57610f48565b6040513d600319016004823e80513d6001600160401b0381602484011181841117156151b95750505050610f48565b828401925082519150808211156151d35750505050610f48565b503d830160208284010111156151eb57505050610f48565b601f01601f1916810160200160405291505090565b6001600160a01b038116811461304957600080fdfe455243313135353a207472616e7366657220746f206e6f6e2045524331313535526563656976657220696d706c656d656e746572455243313135353a204552433131353552656365697665722072656a656374656420746f6b656e73c3d58168c5ae7397731d063d5bbf3d657854427343f4c083240f7aacaa2d0f62455243313135353a2062616c616e636520717565727920666f7220746865207a65726f20616464726573734f776e61626c653a206e6577206f776e657220697320746865207a65726f2061646472657373455243313135353a206275726e20616d6f756e7420657863656564732062616c616e6365455243313135353a2063616c6c6572206973206e6f74206f776e6572206e6f7220617070726f76656445434453413a20696e76616c6964207369676e6174757265202773272076616c7565455243313135353a207472616e7366657220746f20746865207a65726f2061646472657373455243313135353a207472616e736665722063616c6c6572206973206e6f74206f776e6572206e6f7220617070726f766564496e697469616c697a61626c653a20636f6e747261637420697320616c726561647920696e697469616c697a656445434453413a20696e76616c6964207369676e6174757265202776272076616c7565455243313135353a206275726e2066726f6d20746865207a65726f2061646472657373455243313135353a20696e73756666696369656e742062616c616e636520666f72207472616e736665724f776e61626c653a2063616c6c6572206973206e6f7420746865206f776e6572526f79616c747920746f74616c2076616c75652073686f756c64206265203c203130303030455243313135353a2073657474696e6720617070726f76616c2073746174757320666f722073656c66455243313135353a206163636f756e747320616e6420696473206c656e677468206d69736d61746368455243313135353a2069647320616e6420616d6f756e7473206c656e677468206d69736d61746368a26469706673582212208f80c28798b21377424d17f81450064c2aa386fc27bacc5c0adc6daf0655855b64736f6c63430007060033",
  "immutableReferences": {},
  "source": "// SPDX-License-Identifier: MIT\n\npragma solidity 0.7.6;\npragma abicoder v2;\n\nimport \"./ERC1155Base.sol\";\nimport \"../IsPrivateCollection.sol\";\nimport \"../access/MinterAccessControl.sol\";\n\ncontract ERC1155Rarible is ERC1155Base, IsPrivateCollection, MinterAccessControl {\n    event CreateERC1155Rarible(address owner, string name, string symbol);\n    event CreateERC1155RaribleUser(address owner, string name, string symbol);\n\n    function __ERC1155RaribleUser_init(string memory _name, string memory _symbol, string memory baseURI, string memory contractURI, address[] memory operators, address transferProxy, address lazyTransferProxy) external virtual {\n        __ERC1155Rarible_init_unchained(_name, _symbol, baseURI, contractURI, transferProxy, lazyTransferProxy);\n        for(uint i = 0; i < operators.length; i++) {\n            setApprovalForAll(operators[i], true);\n        }\n\n        isPrivate = true;\n        emit CreateERC1155RaribleUser(_msgSender(), _name, _symbol);\n    }\n    \n    function __ERC1155Rarible_init(string memory _name, string memory _symbol, string memory baseURI, string memory contractURI, address transferProxy, address lazyTransferProxy) external virtual {\n        __ERC1155Rarible_init_unchained(_name, _symbol, baseURI, contractURI, transferProxy, lazyTransferProxy);\n\n        isPrivate = false;\n        emit CreateERC1155Rarible(_msgSender(), _name, _symbol);\n    }\n\n    function __ERC1155Rarible_init_unchained(string memory _name, string memory _symbol, string memory baseURI, string memory contractURI, address transferProxy, address lazyTransferProxy) internal initializer {\n        __Ownable_init_unchained();\n        __ERC1155Lazy_init_unchained();\n        __ERC165_init_unchained();\n        __Context_init_unchained();\n        __Mint1155Validator_init_unchained();\n        __ERC1155_init_unchained(\"\");\n        __HasContractURI_init_unchained(contractURI);\n        __ERC1155Burnable_init_unchained();\n        __RoyaltiesV2Upgradeable_init_unchained();\n        __ERC1155Base_init_unchained(_name, _symbol);\n        __MinterAccessControl_init_unchained();\n        _setBaseURI(baseURI);\n\n        //setting default approver for transferProxies\n        _setDefaultApproval(transferProxy, true);\n        _setDefaultApproval(lazyTransferProxy, true);\n    }\n\n    function mintAndTransfer(LibERC1155LazyMint.Mint1155Data memory data, address to, uint256 _amount) public override {\n        if (isPrivate){\n          require(owner() == data.creators[0].account || isMinter(data.creators[0].account), \"not owner or minter\");\n        }\n        super.mintAndTransfer(data, to, _amount);\n    }\n}\n",
  "sourcePath": "@rarible/tokens/contracts/erc-1155/ERC1155Rarible.sol",
  "compiler": {
    "name": "solc",
    "version": "0.7.6+commit.7338295f.Emscripten.clang"
  },
  "schemaVersion": "3.4.5",
  "updatedAt": "2022-05-05T10:16:17.575Z",
  "devdoc": {
    "kind": "dev",
    "methods": {
      "addMinter(address)": {
        "details": "Add `_minter` to the list of allowed minters."
      },
      "balanceOf(address,uint256)": {
        "details": "See {IERC1155-balanceOf}. Requirements: - `account` cannot be the zero address."
      },
      "balanceOfBatch(address[],uint256[])": {
        "details": "See {IERC1155-balanceOfBatch}. Requirements: - `accounts` and `ids` must have the same length."
      },
      "baseURI()": {
        "details": "Returns the base URI set via {_setBaseURI}. This will be automatically added as a prefix in {tokenURI} to each token's URI, or to the token ID if no specific URI is set for that token ID."
      },
      "isMinter(address)": {
        "details": "Returns `true` if `account` has been granted to minters."
      },
      "owner()": {
        "details": "Returns the address of the current owner."
      },
      "removeMinter(address)": {
        "details": "Revoke `_minter` from the list of allowed minters."
      },
      "renounceOwnership()": {
        "details": "Leaves the contract without owner. It will not be possible to call `onlyOwner` functions anymore. Can only be called by the current owner. NOTE: Renouncing ownership will leave the contract without an owner, thereby removing any functionality that is only available to the owner."
      },
      "safeBatchTransferFrom(address,address,uint256[],uint256[],bytes)": {
        "details": "See {IERC1155-safeBatchTransferFrom}."
      },
      "safeTransferFrom(address,address,uint256,uint256,bytes)": {
        "details": "See {IERC1155-safeTransferFrom}."
      },
      "setApprovalForAll(address,bool)": {
        "details": "See {IERC1155-setApprovalForAll}."
      },
      "transferOwnership(address)": {
        "details": "Transfers ownership of the contract to a new account (`newOwner`). Can only be called by the current owner."
      }
    },
    "version": 1
  },
  "userdoc": {
    "kind": "user",
    "methods": {},
    "version": 1
  }
}