{
  "contractName": "ERC1155RaribleMeta",
  "abi": [
    {
      "anonymous": false,
      "inputs": [
        {
          "indexed": true,
          "internalType": "address",
          "name": "account",
          "type": "address"
        },
        {
          "indexed": true,
          "internalType": "address",
          "name": "operator",
          "type": "address"
        },
        {
          "indexed": false,
          "internalType": "bool",
          "name": "approved",
          "type": "bool"
        }
      ],
      "name": "ApprovalForAll",
      "type": "event"
    },
    {
      "anonymous": false,
      "inputs": [
        {
          "indexed": false,
          "internalType": "string",
          "name": "newBaseURI",
          "type": "string"
        }
      ],
      "name": "BaseUriChanged",
      "type": "event"
    },
    {
      "anonymous": false,
      "inputs": [
        {
          "indexed": true,
          "internalType": "address",
          "name": "operator",
          "type": "address"
        },
        {
          "indexed": true,
          "internalType": "address",
          "name": "account",
          "type": "address"
        },
        {
          "indexed": false,
          "internalType": "uint256",
          "name": "id",
          "type": "uint256"
        },
        {
          "indexed": false,
          "internalType": "uint256",
          "name": "amount",
          "type": "uint256"
        }
      ],
      "name": "BurnLazy",
      "type": "event"
    },
    {
      "anonymous": false,
      "inputs": [
        {
          "indexed": true,
          "internalType": "address",
          "name": "operator",
          "type": "address"
        },
        {
          "indexed": true,
          "internalType": "address",
          "name": "account",
          "type": "address"
        },
        {
          "indexed": false,
          "internalType": "uint256[]",
          "name": "ids",
          "type": "uint256[]"
        },
        {
          "indexed": false,
          "internalType": "uint256[]",
          "name": "amounts",
          "type": "uint256[]"
        }
      ],
      "name": "BurnLazyBatch",
      "type": "event"
    },
    {
      "anonymous": false,
      "inputs": [
        {
          "indexed": false,
          "internalType": "address",
          "name": "owner",
          "type": "address"
        },
        {
          "indexed": false,
          "internalType": "string",
          "name": "name",
          "type": "string"
        },
        {
          "indexed": false,
          "internalType": "string",
          "name": "symbol",
          "type": "string"
        }
      ],
      "name": "CreateERC1155Rarible",
      "type": "event"
    },
    {
      "anonymous": false,
      "inputs": [
        {
          "indexed": false,
          "internalType": "address",
          "name": "owner",
          "type": "address"
        },
        {
          "indexed": false,
          "internalType": "string",
          "name": "name",
          "type": "string"
        },
        {
          "indexed": false,
          "internalType": "string",
          "name": "symbol",
          "type": "string"
        }
      ],
      "name": "CreateERC1155RaribleUser",
      "type": "event"
    },
    {
      "anonymous": false,
      "inputs": [
        {
          "indexed": false,
          "internalType": "uint256",
          "name": "tokenId",
          "type": "uint256"
        },
        {
          "components": [
            {
              "internalType": "address payable",
              "name": "account",
              "type": "address"
            },
            {
              "internalType": "uint96",
              "name": "value",
              "type": "uint96"
            }
          ],
          "indexed": false,
          "internalType": "struct LibPart.Part[]",
          "name": "creators",
          "type": "tuple[]"
        }
      ],
      "name": "Creators",
      "type": "event"
    },
    {
      "anonymous": false,
      "inputs": [
        {
          "indexed": true,
          "internalType": "address",
          "name": "operator",
          "type": "address"
        },
        {
          "indexed": false,
          "internalType": "bool",
          "name": "hasApproval",
          "type": "bool"
        }
      ],
      "name": "DefaultApproval",
      "type": "event"
    },
    {
      "anonymous": false,
      "inputs": [
        {
          "indexed": false,
          "internalType": "address",
          "name": "userAddress",
          "type": "address"
        },
        {
          "indexed": false,
          "internalType": "address payable",
          "name": "relayerAddress",
          "type": "address"
        },
        {
          "indexed": false,
          "internalType": "bytes",
          "name": "functionSignature",
          "type": "bytes"
        }
      ],
      "name": "MetaTransactionExecuted",
      "type": "event"
    },
    {
      "anonymous": false,
      "inputs": [
        {
          "indexed": true,
          "internalType": "address",
          "name": "minter",
          "type": "address"
        },
        {
          "indexed": true,
          "internalType": "bool",
          "name": "status",
          "type": "bool"
        }
      ],
      "name": "MinterStatusChanged",
      "type": "event"
    },
    {
      "anonymous": false,
      "inputs": [
        {
          "indexed": true,
          "internalType": "address",
          "name": "previousOwner",
          "type": "address"
        },
        {
          "indexed": true,
          "internalType": "address",
          "name": "newOwner",
          "type": "address"
        }
      ],
      "name": "OwnershipTransferred",
      "type": "event"
    },
    {
      "anonymous": false,
      "inputs": [
        {
          "indexed": false,
          "internalType": "uint256",
          "name": "tokenId",
          "type": "uint256"
        },
        {
          "components": [
            {
              "internalType": "address payable",
              "name": "account",
              "type": "address"
            },
            {
              "internalType": "uint96",
              "name": "value",
              "type": "uint96"
            }
          ],
          "indexed": false,
          "internalType": "struct LibPart.Part[]",
          "name": "royalties",
          "type": "tuple[]"
        }
      ],
      "name": "RoyaltiesSet",
      "type": "event"
    },
    {
      "anonymous": false,
      "inputs": [
        {
          "indexed": false,
          "internalType": "uint256",
          "name": "tokenId",
          "type": "uint256"
        },
        {
          "indexed": false,
          "internalType": "uint256",
          "name": "value",
          "type": "uint256"
        }
      ],
      "name": "Supply",
      "type": "event"
    },
    {
      "anonymous": false,
      "inputs": [
        {
          "indexed": true,
          "internalType": "address",
          "name": "operator",
          "type": "address"
        },
        {
          "indexed": true,
          "internalType": "address",
          "name": "from",
          "type": "address"
        },
        {
          "indexed": true,
          "internalType": "address",
          "name": "to",
          "type": "address"
        },
        {
          "indexed": false,
          "internalType": "uint256[]",
          "name": "ids",
          "type": "uint256[]"
        },
        {
          "indexed": false,
          "internalType": "uint256[]",
          "name": "values",
          "type": "uint256[]"
        }
      ],
      "name": "TransferBatch",
      "type": "event"
    },
    {
      "anonymous": false,
      "inputs": [
        {
          "indexed": true,
          "internalType": "address",
          "name": "operator",
          "type": "address"
        },
        {
          "indexed": true,
          "internalType": "address",
          "name": "from",
          "type": "address"
        },
        {
          "indexed": true,
          "internalType": "address",
          "name": "to",
          "type": "address"
        },
        {
          "indexed": false,
          "internalType": "uint256",
          "name": "id",
          "type": "uint256"
        },
        {
          "indexed": false,
          "internalType": "uint256",
          "name": "value",
          "type": "uint256"
        }
      ],
      "name": "TransferSingle",
      "type": "event"
    },
    {
      "anonymous": false,
      "inputs": [
        {
          "indexed": false,
          "internalType": "string",
          "name": "value",
          "type": "string"
        },
        {
          "indexed": true,
          "internalType": "uint256",
          "name": "id",
          "type": "uint256"
        }
      ],
      "name": "URI",
      "type": "event"
    },
    {
      "inputs": [],
      "name": "OPERATOR_FILTER_REGISTRY",
      "outputs": [
        {
          "internalType": "address",
          "name": "",
          "type": "address"
        }
      ],
      "stateMutability": "view",
      "type": "function"
    },
    {
      "inputs": [
        {
          "internalType": "address",
          "name": "minter",
          "type": "address"
        }
      ],
      "name": "addMinter",
      "outputs": [],
      "stateMutability": "nonpayable",
      "type": "function"
    },
    {
      "inputs": [
        {
          "internalType": "address[]",
          "name": "minters",
          "type": "address[]"
        }
      ],
      "name": "addMinters",
      "outputs": [],
      "stateMutability": "nonpayable",
      "type": "function"
    },
    {
      "inputs": [
        {
          "internalType": "address",
          "name": "account",
          "type": "address"
        },
        {
          "internalType": "uint256",
          "name": "id",
          "type": "uint256"
        }
      ],
      "name": "balanceOf",
      "outputs": [
        {
          "internalType": "uint256",
          "name": "",
          "type": "uint256"
        }
      ],
      "stateMutability": "view",
      "type": "function"
    },
    {
      "inputs": [
        {
          "internalType": "address[]",
          "name": "accounts",
          "type": "address[]"
        },
        {
          "internalType": "uint256[]",
          "name": "ids",
          "type": "uint256[]"
        }
      ],
      "name": "balanceOfBatch",
      "outputs": [
        {
          "internalType": "uint256[]",
          "name": "",
          "type": "uint256[]"
        }
      ],
      "stateMutability": "view",
      "type": "function"
    },
    {
      "inputs": [],
      "name": "baseURI",
      "outputs": [
        {
          "internalType": "string",
          "name": "",
          "type": "string"
        }
      ],
      "stateMutability": "view",
      "type": "function"
    },
    {
      "inputs": [
        {
          "internalType": "address",
          "name": "account",
          "type": "address"
        },
        {
          "internalType": "uint256",
          "name": "id",
          "type": "uint256"
        },
        {
          "internalType": "uint256",
          "name": "amount",
          "type": "uint256"
        }
      ],
      "name": "burn",
      "outputs": [],
      "stateMutability": "nonpayable",
      "type": "function"
    },
    {
      "inputs": [
        {
          "internalType": "address",
          "name": "account",
          "type": "address"
        },
        {
          "internalType": "uint256[]",
          "name": "ids",
          "type": "uint256[]"
        },
        {
          "internalType": "uint256[]",
          "name": "amounts",
          "type": "uint256[]"
        }
      ],
      "name": "burnBatch",
      "outputs": [],
      "stateMutability": "nonpayable",
      "type": "function"
    },
    {
      "inputs": [],
      "name": "contractURI",
      "outputs": [
        {
          "internalType": "string",
          "name": "",
          "type": "string"
        }
      ],
      "stateMutability": "view",
      "type": "function"
    },
    {
      "inputs": [
        {
          "internalType": "address",
          "name": "userAddress",
          "type": "address"
        },
        {
          "internalType": "bytes",
          "name": "functionSignature",
          "type": "bytes"
        },
        {
          "internalType": "bytes32",
          "name": "sigR",
          "type": "bytes32"
        },
        {
          "internalType": "bytes32",
          "name": "sigS",
          "type": "bytes32"
        },
        {
          "internalType": "uint8",
          "name": "sigV",
          "type": "uint8"
        }
      ],
      "name": "executeMetaTransaction",
      "outputs": [
        {
          "internalType": "bytes",
          "name": "",
          "type": "bytes"
        }
      ],
      "stateMutability": "payable",
      "type": "function"
    },
    {
      "inputs": [
        {
          "internalType": "uint256",
          "name": "_id",
          "type": "uint256"
        }
      ],
      "name": "getCreators",
      "outputs": [
        {
          "components": [
            {
              "internalType": "address payable",
              "name": "account",
              "type": "address"
            },
            {
              "internalType": "uint96",
              "name": "value",
              "type": "uint96"
            }
          ],
          "internalType": "struct LibPart.Part[]",
          "name": "",
          "type": "tuple[]"
        }
      ],
      "stateMutability": "view",
      "type": "function"
    },
    {
      "inputs": [
        {
          "internalType": "address",
          "name": "user",
          "type": "address"
        }
      ],
      "name": "getNonce",
      "outputs": [
        {
          "internalType": "uint256",
          "name": "nonce",
          "type": "uint256"
        }
      ],
      "stateMutability": "view",
      "type": "function"
    },
    {
      "inputs": [
        {
          "internalType": "uint256",
          "name": "id",
          "type": "uint256"
        }
      ],
      "name": "getRaribleV2Royalties",
      "outputs": [
        {
          "components": [
            {
              "internalType": "address payable",
              "name": "account",
              "type": "address"
            },
            {
              "internalType": "uint96",
              "name": "value",
              "type": "uint96"
            }
          ],
          "internalType": "struct LibPart.Part[]",
          "name": "",
          "type": "tuple[]"
        }
      ],
      "stateMutability": "view",
      "type": "function"
    },
    {
      "inputs": [
        {
          "internalType": "address",
          "name": "_owner",
          "type": "address"
        },
        {
          "internalType": "address",
          "name": "_operator",
          "type": "address"
        }
      ],
      "name": "isApprovedForAll",
      "outputs": [
        {
          "internalType": "bool",
          "name": "",
          "type": "bool"
        }
      ],
      "stateMutability": "view",
      "type": "function"
    },
    {
      "inputs": [
        {
          "internalType": "address",
          "name": "account",
          "type": "address"
        }
      ],
      "name": "isMinter",
      "outputs": [
        {
          "internalType": "bool",
          "name": "",
          "type": "bool"
        }
      ],
      "stateMutability": "view",
      "type": "function"
    },
    {
      "inputs": [],
      "name": "name",
      "outputs": [
        {
          "internalType": "string",
          "name": "",
          "type": "string"
        }
      ],
      "stateMutability": "view",
      "type": "function"
    },
    {
      "inputs": [],
      "name": "owner",
      "outputs": [
        {
          "internalType": "address",
          "name": "",
          "type": "address"
        }
      ],
      "stateMutability": "view",
      "type": "function"
    },
    {
      "inputs": [
        {
          "internalType": "address",
          "name": "_minter",
          "type": "address"
        }
      ],
      "name": "removeMinter",
      "outputs": [],
      "stateMutability": "nonpayable",
      "type": "function"
    },
    {
      "inputs": [],
      "name": "renounceOwnership",
      "outputs": [],
      "stateMutability": "nonpayable",
      "type": "function"
    },
    {
      "inputs": [
        {
          "internalType": "uint256",
          "name": "id",
          "type": "uint256"
        },
        {
          "internalType": "uint256",
          "name": "_salePrice",
          "type": "uint256"
        }
      ],
      "name": "royaltyInfo",
      "outputs": [
        {
          "internalType": "address",
          "name": "receiver",
          "type": "address"
        },
        {
          "internalType": "uint256",
          "name": "royaltyAmount",
          "type": "uint256"
        }
      ],
      "stateMutability": "view",
      "type": "function"
    },
    {
      "inputs": [
        {
          "internalType": "address",
          "name": "from",
          "type": "address"
        },
        {
          "internalType": "address",
          "name": "to",
          "type": "address"
        },
        {
          "internalType": "uint256[]",
          "name": "ids",
          "type": "uint256[]"
        },
        {
          "internalType": "uint256[]",
          "name": "amounts",
          "type": "uint256[]"
        },
        {
          "internalType": "bytes",
          "name": "data",
          "type": "bytes"
        }
      ],
      "name": "safeBatchTransferFrom",
      "outputs": [],
      "stateMutability": "nonpayable",
      "type": "function"
    },
    {
      "inputs": [
        {
          "internalType": "address",
          "name": "from",
          "type": "address"
        },
        {
          "internalType": "address",
          "name": "to",
          "type": "address"
        },
        {
          "internalType": "uint256",
          "name": "tokenId",
          "type": "uint256"
        },
        {
          "internalType": "uint256",
          "name": "amount",
          "type": "uint256"
        },
        {
          "internalType": "bytes",
          "name": "data",
          "type": "bytes"
        }
      ],
      "name": "safeTransferFrom",
      "outputs": [],
      "stateMutability": "nonpayable",
      "type": "function"
    },
    {
      "inputs": [
        {
          "internalType": "address",
          "name": "operator",
          "type": "address"
        },
        {
          "internalType": "bool",
          "name": "approved",
          "type": "bool"
        }
      ],
      "name": "setApprovalForAll",
      "outputs": [],
      "stateMutability": "nonpayable",
      "type": "function"
    },
    {
      "inputs": [
        {
          "internalType": "string",
          "name": "newBaseURI",
          "type": "string"
        }
      ],
      "name": "setBaseURI",
      "outputs": [],
      "stateMutability": "nonpayable",
      "type": "function"
    },
    {
      "inputs": [
        {
          "internalType": "bytes4",
          "name": "interfaceId",
          "type": "bytes4"
        }
      ],
      "name": "supportsInterface",
      "outputs": [
        {
          "internalType": "bool",
          "name": "",
          "type": "bool"
        }
      ],
      "stateMutability": "view",
      "type": "function"
    },
    {
      "inputs": [],
      "name": "symbol",
      "outputs": [
        {
          "internalType": "string",
          "name": "",
          "type": "string"
        }
      ],
      "stateMutability": "view",
      "type": "function"
    },
    {
      "inputs": [
        {
          "components": [
            {
              "internalType": "uint256",
              "name": "tokenId",
              "type": "uint256"
            },
            {
              "internalType": "string",
              "name": "tokenURI",
              "type": "string"
            },
            {
              "internalType": "uint256",
              "name": "supply",
              "type": "uint256"
            },
            {
              "components": [
                {
                  "internalType": "address payable",
                  "name": "account",
                  "type": "address"
                },
                {
                  "internalType": "uint96",
                  "name": "value",
                  "type": "uint96"
                }
              ],
              "internalType": "struct LibPart.Part[]",
              "name": "creators",
              "type": "tuple[]"
            },
            {
              "components": [
                {
                  "internalType": "address payable",
                  "name": "account",
                  "type": "address"
                },
                {
                  "internalType": "uint96",
                  "name": "value",
                  "type": "uint96"
                }
              ],
              "internalType": "struct LibPart.Part[]",
              "name": "royalties",
              "type": "tuple[]"
            },
            {
              "internalType": "bytes[]",
              "name": "signatures",
              "type": "bytes[]"
            }
          ],
          "internalType": "struct LibERC1155LazyMint.Mint1155Data",
          "name": "data",
          "type": "tuple"
        },
        {
          "internalType": "address",
          "name": "from",
          "type": "address"
        },
        {
          "internalType": "address",
          "name": "to",
          "type": "address"
        },
        {
          "internalType": "uint256",
          "name": "amount",
          "type": "uint256"
        }
      ],
      "name": "transferFromOrMint",
      "outputs": [],
      "stateMutability": "nonpayable",
      "type": "function"
    },
    {
      "inputs": [
        {
          "internalType": "address",
          "name": "newOwner",
          "type": "address"
        }
      ],
      "name": "transferOwnership",
      "outputs": [],
      "stateMutability": "nonpayable",
      "type": "function"
    },
    {
      "inputs": [
        {
          "internalType": "uint256",
          "name": "_id",
          "type": "uint256"
        },
        {
          "internalType": "address",
          "name": "_from",
          "type": "address"
        },
        {
          "internalType": "address",
          "name": "_to",
          "type": "address"
        }
      ],
      "name": "updateAccount",
      "outputs": [],
      "stateMutability": "nonpayable",
      "type": "function"
    },
    {
      "inputs": [
        {
          "internalType": "uint256",
          "name": "id",
          "type": "uint256"
        }
      ],
      "name": "uri",
      "outputs": [
        {
          "internalType": "string",
          "name": "",
          "type": "string"
        }
      ],
      "stateMutability": "view",
      "type": "function"
    },
    {
      "inputs": [
        {
          "internalType": "string",
          "name": "_name",
          "type": "string"
        },
        {
          "internalType": "string",
          "name": "_symbol",
          "type": "string"
        },
        {
          "internalType": "string",
          "name": "baseURI",
          "type": "string"
        },
        {
          "internalType": "string",
          "name": "contractURI",
          "type": "string"
        },
        {
          "internalType": "address[]",
          "name": "operators",
          "type": "address[]"
        },
        {
          "internalType": "address",
          "name": "transferProxy",
          "type": "address"
        },
        {
          "internalType": "address",
          "name": "lazyTransferProxy",
          "type": "address"
        },
        {
          "internalType": "address",
          "name": "subscribeTo",
          "type": "address"
        }
      ],
      "name": "__ERC1155RaribleUser_init",
      "outputs": [],
      "stateMutability": "nonpayable",
      "type": "function"
    },
    {
      "inputs": [
        {
          "internalType": "string",
          "name": "_name",
          "type": "string"
        },
        {
          "internalType": "string",
          "name": "_symbol",
          "type": "string"
        },
        {
          "internalType": "string",
          "name": "baseURI",
          "type": "string"
        },
        {
          "internalType": "string",
          "name": "contractURI",
          "type": "string"
        },
        {
          "internalType": "address",
          "name": "transferProxy",
          "type": "address"
        },
        {
          "internalType": "address",
          "name": "lazyTransferProxy",
          "type": "address"
        },
        {
          "internalType": "address",
          "name": "subscribeTo",
          "type": "address"
        }
      ],
      "name": "__ERC1155Rarible_init",
      "outputs": [],
      "stateMutability": "nonpayable",
      "type": "function"
    },
    {
      "inputs": [
        {
          "components": [
            {
              "internalType": "uint256",
              "name": "tokenId",
              "type": "uint256"
            },
            {
              "internalType": "string",
              "name": "tokenURI",
              "type": "string"
            },
            {
              "internalType": "uint256",
              "name": "supply",
              "type": "uint256"
            },
            {
              "components": [
                {
                  "internalType": "address payable",
                  "name": "account",
                  "type": "address"
                },
                {
                  "internalType": "uint96",
                  "name": "value",
                  "type": "uint96"
                }
              ],
              "internalType": "struct LibPart.Part[]",
              "name": "creators",
              "type": "tuple[]"
            },
            {
              "components": [
                {
                  "internalType": "address payable",
                  "name": "account",
                  "type": "address"
                },
                {
                  "internalType": "uint96",
                  "name": "value",
                  "type": "uint96"
                }
              ],
              "internalType": "struct LibPart.Part[]",
              "name": "royalties",
              "type": "tuple[]"
            },
            {
              "internalType": "bytes[]",
              "name": "signatures",
              "type": "bytes[]"
            }
          ],
          "internalType": "struct LibERC1155LazyMint.Mint1155Data",
          "name": "data",
          "type": "tuple"
        },
        {
          "internalType": "address",
          "name": "to",
          "type": "address"
        },
        {
          "internalType": "uint256",
          "name": "_amount",
          "type": "uint256"
        }
      ],
      "name": "mintAndTransfer",
      "outputs": [],
      "stateMutability": "nonpayable",
      "type": "function"
    }
  ],
  "bytecode": "0x608060405234801561001057600080fd5b50615fac80620000216000396000f3fe6080604052600436106101ec5760003560e01c8063715018a61161010d578063c67b435f116100a0578063e985e9c51161006f578063e985e9c51461057e578063f242432a1461059e578063f2fde38b146105be578063f5298aca146105de578063ffc4e0a7146105fe576101ec565b8063c67b435f14610509578063cad96cca14610529578063e07f231914610549578063e8a3d48514610569576101ec565b806395d89b41116100dc57806395d89b4114610494578063983b2d56146104a9578063a22cb465146104c9578063aa271e1a146104e9576101ec565b8063715018a61461041d57806371e2a65714610432578063891be974146104525780638da5cb5b1461047f576101ec565b80632d0335ab116101855780634e1273f4116101545780634e1273f41461039b57806355f804b3146103c85780636b20c454146103e85780636c0360eb14610408576101ec565b80632d0335ab146103195780632eb2c2d6146103395780633092afd51461035957806341f4343414610379576101ec565b80630c53c51c116101c15780630c53c51c146102985780630e89341c146102ab5780630eaead67146102cb5780632a55205a146102eb576101ec565b8062e85979146101f1578062fdd58e1461021357806301ffc9a71461024957806306fdde0314610276575b600080fd5b3480156101fd57600080fd5b5061021161020c366004615491565b61061e565b005b34801561021f57600080fd5b5061023361022e366004615265565b6106d8565b6040516102409190615af4565b60405180910390f35b34801561025557600080fd5b5061026961026436600461535e565b61074a565b6040516102409190615845565b34801561028257600080fd5b5061028b61075d565b6040516102409190615850565b61028b6102a63660046151eb565b6107ec565b3480156102b757600080fd5b5061028b6102c636600461564c565b610b65565b3480156102d757600080fd5b506102116102e63660046155f5565b610b70565b3480156102f757600080fd5b5061030b6103063660046156a5565b610c14565b6040516102409291906157e1565b34801561032557600080fd5b50610233610334366004614fe5565b610d22565b34801561034557600080fd5b50610211610354366004615039565b610d3e565b34801561036557600080fd5b50610211610374366004614fe5565b610d6d565b34801561038557600080fd5b5061038e610e1d565b6040516102409190615797565b3480156103a757600080fd5b506103bb6103b63660046152fe565b610e36565b604051610240919061580d565b3480156103d457600080fd5b506102116103e3366004615386565b610f21565b3480156103f457600080fd5b50610211610403366004615148565b610fc6565b34801561041457600080fd5b5061028b61114c565b34801561042957600080fd5b506102116111e3565b34801561043e57600080fd5b5061021161044d3660046152c4565b61128f565b34801561045e57600080fd5b5061047261046d36600461564c565b611378565b60405161024091906157fa565b34801561048b57600080fd5b5061038e611408565b3480156104a057600080fd5b5061028b611417565b3480156104b557600080fd5b506102116104c4366004614fe5565b611473565b3480156104d557600080fd5b506102116104e43660046151ba565b611528565b3480156104f557600080fd5b50610269610504366004614fe5565b61153c565b34801561051557600080fd5b506102116105243660046153b8565b61155b565b34801561053557600080fd5b5061047261054436600461564c565b61160d565b34801561055557600080fd5b50610211610564366004615664565b611688565b34801561057557600080fd5b5061028b6116cb565b34801561058a57600080fd5b50610269610599366004615001565b611727565b3480156105aa57600080fd5b506102116105b93660046150e2565b61173a565b3480156105ca57600080fd5b506102116105d9366004614fe5565b611761565b3480156105ea57600080fd5b506102116105f9366004615290565b611864565b34801561060a57600080fd5b5061021161061936600461558e565b6118e0565b61062d88888888878787611988565b61067e604051806040016040528060168152602001754552433131353552617269626c65557365724d65746160501b815250604051806040016040528060018152602001603160f81b815250611ac4565b610296805460ff191660011790557f7da6bc204c8c4856a6aff786a6cb81c59477c782191dc51837d644a8ad50f2cc6106b5611b54565b89896040516106c6939291906157ab565b60405180910390a15050505050505050565b60006001600160a01b03831661071f5760405162461bcd60e51b815260040180806020018281038252602b815260200180615ca0602b913960400191505060405180910390fd5b5060008181526097602090815260408083206001600160a01b03861684529091529020545b92915050565b600061075582611b63565b90505b919050565b610262805460408051602060026001851615610100026000190190941693909304601f810184900484028201840190925281815292918301828280156107e45780601f106107b9576101008083540402835291602001916107e4565b820191906000526020600020905b8154815290600101906020018083116107c757829003601f168201915b505050505081565b606060006107f986611c02565b90506000356001600160e01b03199081169082161415610860576040805162461bcd60e51b815260206004820152601760248201527f57726f6e672066756e6374696f6e5369676e6174757265000000000000000000604482015290519081900360640190fd5b604080516060810182526001600160a01b03891660008181526102fb60209081529084902054835282015290810187905261089e8882888888611c1e565b6108d95760405162461bcd60e51b8152600401808060200182810382526021815260200180615eb76021913960400191505060405180910390fd5b6001600160a01b03881660009081526102fb60205260409020546108fe906001611d08565b6102fb60008a6001600160a01b03166001600160a01b0316815260200190815260200160002081905550600080306001600160a01b0316898b6040516020018083805190602001908083835b602083106109695780518252601f19909201916020918201910161094a565b6001836020036101000a038019825116818451168082178552505050505050905001826001600160a01b031660601b8152601401925050506040516020818303038152906040526040518082805190602001908083835b602083106109df5780518252601f1990920191602091820191016109c0565b6001836020036101000a0380198251168184511680821785525050505050509050019150506000604051808303816000865af19150503d8060008114610a41576040519150601f19603f3d011682016040523d82523d6000602084013e610a46565b606091505b509150915081610a9d576040805162461bcd60e51b815260206004820152601c60248201527f46756e6374696f6e2063616c6c206e6f74207375636365737366756c00000000604482015290519081900360640190fd5b7f5845892132946850460bff5a0083f71031bc5bf9aadcd40f1de79423eac9b10b8a338b60405180846001600160a01b03168152602001836001600160a01b0316815260200180602001828103825283818151815260200191508051906020019080838360005b83811015610b1c578181015183820152602001610b04565b50505050905090810190601f168015610b495780820380516001836020036101000a031916815260200191505b5094505050505060405180910390a19998505050505050505050565b606061075582611d62565b6102965460ff1615610c04578260600151600081518110610b8d57fe5b6020026020010151600001516001600160a01b0316610baa611408565b6001600160a01b03161480610bdf5750610bdf8360600151600081518110610bce57fe5b60200260200101516000015161153c565b610c045760405162461bcd60e51b8152600401610bfb9061588e565b60405180910390fd5b610c0f838383611ef8565b505050565b60008281526101fa60205260408120548190610c3557506000905080610d1b565b60008481526101fa6020908152604080832080548251818502810185019093528083529192909190849084015b82821015610cb157600084815260209081902060408051808201909152908401546001600160a01b0381168252600160a01b90046001600160601b031681830152825260019092019101610c62565b50505050905080600081518110610cc457fe5b60209081029190910101515192506000805b8251811015610d0f57828181518110610ceb57fe5b6020026020010151602001516001600160601b031682019150806001019050610cd6565b50612710908502049150505b9250929050565b6001600160a01b031660009081526102fb602052604090205490565b846001600160a01b0381163314610d5857610d58336121f4565b610d6586868686866122ec565b505050505050565b610d75611b54565b6001600160a01b0316610d86611408565b6001600160a01b031614610dcf576040805162461bcd60e51b81526020600482018190526024820152600080516020615e97833981519152604482015290519081900360640190fd5b6001600160a01b03811660008181526102c86020526040808220805460ff19169055519091907f3042b80e435ae46c334b2cfec51a66d64c9a8a8af4cd0c279a124c35a09e91dd908390a350565b73d76f01af5f73563c103a11ab2f52099833d0252c5b90565b60608151835114610e785760405162461bcd60e51b8152600401808060200182810382526029815260200180615f266029913960400191505060405180910390fd5b600083516001600160401b0381118015610e9157600080fd5b50604051908082528060200260200182016040528015610ebb578160200160208202803683370190505b50905060005b8451811015610f1957610efa858281518110610ed957fe5b6020026020010151858381518110610eed57fe5b60200260200101516106d8565b828281518110610f0657fe5b6020908102919091010152600101610ec1565b509392505050565b610f29611b54565b6001600160a01b0316610f3a611408565b6001600160a01b031614610f83576040805162461bcd60e51b81526020600482018190526024820152600080516020615e97833981519152604482015290519081900360640190fd5b610f8c816125e2565b7f87cdeaffd8e70903d6ce7cc983fac3b09ca79e83818124c98e47a1d70f8027d681604051610fbb9190615850565b60405180910390a150565b8051825114610fe75760405162461bcd60e51b8152600401610bfb90615a3d565b600082516001600160401b038111801561100057600080fd5b5060405190808252806020026020018201604052801561102a578160200160208202803683370190505b509050600083516001600160401b038111801561104657600080fd5b50604051908082528060200260200182016040528015611070578160200160208202803683370190505b50905060005b84518110156110e5576110af85828151811061108e57fe5b60200260200101518583815181106110a257fe5b60200260200101516125f6565b8483815181106110bb57fe5b602002602001018484815181106110ce57fe5b602090810291909101019190915252600101611076565b506110f185858461266b565b846001600160a01b0316611103611b54565b6001600160a01b03167fcf3391513e21a9d4a0348f8e890080170eba18dc62db35b60d8a518b7088eb3a868460405161113d929190615820565b60405180910390a35050505050565b61012f8054604080516020601f60026000196101006001881615020190951694909404938401819004810282018101909252828152606093909290918301828280156111d95780601f106111ae576101008083540402835291602001916111d9565b820191906000526020600020905b8154815290600101906020018083116111bc57829003601f168201915b5050505050905090565b6111eb611b54565b6001600160a01b03166111fc611408565b6001600160a01b031614611245576040805162461bcd60e51b81526020600482018190526024820152600080516020615e97833981519152604482015290519081900360640190fd5b6033546040516000916001600160a01b0316907f8be0079c531659141344cd1fd0a4f28419497f9722a3daafe3b4186f6b6457e0908390a3603380546001600160a01b0319169055565b611297611b54565b6001600160a01b03166112a8611408565b6001600160a01b0316146112f1576040805162461bcd60e51b81526020600482018190526024820152600080516020615e97833981519152604482015290519081900360640190fd5b60005b815181101561137457600082828151811061130b57fe5b6020908102919091018101516001600160a01b03811660008181526102c89093526040808420805460ff1916600190811790915590519294509290917f3042b80e435ae46c334b2cfec51a66d64c9a8a8af4cd0c279a124c35a09e91dd9190a3506001016112f4565b5050565b60606101fb6000838152602001908152602001600020805480602002602001604051908101604052809291908181526020016000905b828210156113fd57600084815260209081902060408051808201909152908401546001600160a01b0381168252600160a01b90046001600160601b0316818301528252600190920191016113ae565b505050509050919050565b6033546001600160a01b031690565b610263805460408051602060026001851615610100026000190190941693909304601f810184900484028201840190925281815292918301828280156107e45780601f106107b9576101008083540402835291602001916107e4565b61147b611b54565b6001600160a01b031661148c611408565b6001600160a01b0316146114d5576040805162461bcd60e51b81526020600482018190526024820152600080516020615e97833981519152604482015290519081900360640190fd5b6001600160a01b03811660008181526102c86020526040808220805460ff1916600190811790915590519092917f3042b80e435ae46c334b2cfec51a66d64c9a8a8af4cd0c279a124c35a09e91dd91a350565b81611532816121f4565b610c0f83836126df565b6001600160a01b031660009081526102c8602052604090205460ff1690565b61156a87878787878787611988565b6115b7604051806040016040528060128152602001714552433131353552617269626c654d65746160701b815250604051806040016040528060018152602001603160f81b815250611ac4565b610296805460ff191690557fcc215b7682459c30faa0e854780165d503a7d62d22a9aaaad6334585dc63343e6115eb611b54565b88886040516115fc939291906157ab565b60405180910390a150505050505050565b60008181526101fa602090815260408083208054825181850281018501909352808352606094929391929091840182156113fd57600084815260209081902060408051808201909152908401546001600160a01b0381168252600160a01b90046001600160601b0316818301528252600190920191016113ae565b816001600160a01b031661169a611b54565b6001600160a01b0316146116c05760405162461bcd60e51b8152600401610bfb90615945565b610c0f8383836127ce565b610230805460408051602060026001851615610100026000190190941693909304601f810184900484028201840190925281815292918301828280156107e45780601f106107b9576101008083540402835291602001916107e4565b6000611733838361287a565b9392505050565b846001600160a01b038116331461175457611754336121f4565b610d6586868686866128a6565b611769611b54565b6001600160a01b031661177a611408565b6001600160a01b0316146117c3576040805162461bcd60e51b81526020600482018190526024820152600080516020615e97833981519152604482015290519081900360640190fd5b6001600160a01b0381166118085760405162461bcd60e51b8152600401808060200182810382526026815260200180615d0e6026913960400191505060405180910390fd5b6033546040516001600160a01b038084169216907f8be0079c531659141344cd1fd0a4f28419497f9722a3daafe3b4186f6b6457e090600090a3603380546001600160a01b0319166001600160a01b0392909216919091179055565b60008061187184846125f6565b9092509050811561188757611887858584612a5f565b80156118d957846001600160a01b031661189f611b54565b6001600160a01b03167f5110a21391aa55386de41fe7a3e3dffb40132d38d629a113a7f4afff251b1a01868460405161113d929190615b16565b5050505050565b60006118f08486600001516106d8565b905081811561192a5782808310156119055750815b61192586868960000151846040518060200160405280600081525061173a565b830390505b8015610d6557856060015160008151811061194157fe5b6020026020010151600001516001600160a01b0316856001600160a01b03161461197d5760405162461bcd60e51b8152600401610bfb90615863565b610d65868583610b70565b600054610100900460ff16806119a157506119a1612ad3565b806119af575060005460ff16155b6119ea5760405162461bcd60e51b815260040180806020018281038252602e815260200180615dfa602e913960400191505060405180910390fd5b600054610100900460ff16158015611a15576000805460ff1961ff0019909116610100171660011790555b611a1d612ae4565b611a25612bdd565b611a2d612bdf565b611a35612c90565b611a3d612d30565b611a5560405180602001604052806000815250612d73565b611a5e85612d9c565b611a66612bdd565b611a6e612dc1565b611a788888612dd1565b611a80612c90565b611a89866125e2565b611a9282612dfa565b611a9d846001612e99565b611aa8836001612e99565b8015611aba576000805461ff00191690555b5050505050505050565b7f36c25de3e541d5d970f66e4210d728721220fff5c077cc6cd008b3a0c62adab78280519060200120828051906020012030611afe612ef9565b60405160200180868152602001858152602001848152602001836001600160a01b0316815260200182815260200195505050505050604051602081830303815290604052805190602001206102fc819055505050565b6000611b5e612f03565b905090565b60006001600160e01b03198216636db15a0f60e01b1480611b9457506001600160e01b0319821663656cb66560e11b145b80611baf57506001600160e01b0319821663152a902d60e11b145b80611bca57506001600160e01b031982166301ffc9a760e01b145b80611be557506001600160e01b03198216636cdb3d1360e11b145b806107555750506001600160e01b0319166303a24d0760e21b1490565b6000815160001415611c1657506000610758565b506020015190565b6000806001611c34611c2f88612f5f565b612fe2565b84878760405160008152602001604052604051808581526020018460ff1681526020018381526020018281526020019450505050506020604051602081039080840390855afa158015611c8b573d6000803e3d6000fd5b5050604051601f1901519150506001600160a01b038116611ce7576040805162461bcd60e51b8152602060048201526011602482015270496e76616c6964207369676e617475726560781b604482015290519081900360640190fd5b866001600160a01b0316816001600160a01b03161491505095945050505050565b600082820183811015611733576040805162461bcd60e51b815260206004820152601b60248201527f536166654d6174683a206164646974696f6e206f766572666c6f770000000000604482015290519081900360640190fd5b600081815261012e6020908152604080832080548251601f6002600019610100600186161502019093169290920491820185900485028101850190935280835260609493830182828015611df75780601f10611dcc57610100808354040283529160200191611df7565b820191906000526020600020905b815481529060010190602001808311611dda57829003601f168201915b505050505090506000611e0861114c565b9050805160001415611e1c57509050610758565b815115611e3657611e2d818361302e565b92505050610758565b80611e4085613213565b6040516020018083805190602001908083835b60208310611e725780518252601f199092019160209182019101611e53565b51815160209384036101000a600019018019909216911617905285519190930192850191508083835b60208310611eba5780518252601f199092019160209182019101611e9b565b6001836020036101000a0380198251168184511680821785525050505050509050019250505060405160208183030381529060405292505050919050565b825160601c6000611f07611b54565b9050806001600160a01b0316826001600160a01b03161480611f2e5750611f2e8282611727565b611f4a5760405162461bcd60e51b8152600401610bfb90615994565b60008311611f6a5760405162461bcd60e51b8152600401610bfb9061596a565b845160009081526101fc60205260409020546120d3578460600151600081518110611f9157fe5b6020026020010151600001516001600160a01b0316826001600160a01b031614611fcd5760405162461bcd60e51b8152600401610bfb9061591a565b6000856040015111611ff15760405162461bcd60e51b8152600401610bfb906158bb565b8460a00151518560600151511461200757600080fd5b6000612012866132ed565b905060005b8660600151518110156120885760008760600151828151811061203657fe5b6020026020010151600001519050836001600160a01b0316816001600160a01b03161461207f5761207f81848a60a00151858151811061207257fe5b6020026020010151613540565b50600101612017565b5061209b8660000151876040015161354b565b6120ad866000015187608001516135b5565b6120bf866000015187606001516137a4565b6120d186600001518760200151613953565b505b6120f28486600001518560405180602001604052806000815250613a17565b836001600160a01b0316826001600160a01b0316146121a357816001600160a01b031660006001600160a01b0316826001600160a01b0316600080516020615c8083398151915288600001518760405161214d929190615b16565b60405180910390a4836001600160a01b0316826001600160a01b0316826001600160a01b0316600080516020615c80833981519152886000015187604051612196929190615b16565b60405180910390a46118d9565b836001600160a01b031660006001600160a01b0316826001600160a01b0316600080516020615c808339815191528860000151876040516121e5929190615b16565b60405180910390a45050505050565b61220d6121ff610e1d565b6001600160a01b0316613a29565b156122e95761221a610e1d565b6001600160a01b031663c617113430836040518363ffffffff1660e01b815260040180836001600160a01b03168152602001826001600160a01b031681526020019250505060206040518083038186803b15801561227757600080fd5b505afa15801561228b573d6000803e3d6000fd5b505050506040513d60208110156122a157600080fd5b50516122e9576040805162461bcd60e51b815260206004820152601260248201527113dc195c985d1bdc939bdd105b1b1bddd95960721b604482015290519081900360640190fd5b50565b815183511461232c5760405162461bcd60e51b8152600401808060200182810382526028815260200180615f4f6028913960400191505060405180910390fd5b6001600160a01b0384166123715760405162461bcd60e51b8152600401808060200182810382526025815260200180615da36025913960400191505060405180910390fd5b612379611b54565b6001600160a01b0316856001600160a01b0316148061239f575061239f85610599611b54565b6123da5760405162461bcd60e51b8152600401808060200182810382526032815260200180615dc86032913960400191505060405180910390fd5b60006123e4611b54565b90506123f4818787878787610d65565b60005b84518110156124fa57600085828151811061240e57fe5b60200260200101519050600085838151811061242657fe5b60200260200101519050612493816040518060600160405280602a8152602001615e6d602a91396097600086815260200190815260200160002060008d6001600160a01b03166001600160a01b0316815260200190815260200160002054613a2f9092919063ffffffff16565b60008381526097602090815260408083206001600160a01b038e811685529252808320939093558a16815220546124ca9082611d08565b60009283526097602090815260408085206001600160a01b038c16865290915290922091909155506001016123f7565b50846001600160a01b0316866001600160a01b0316826001600160a01b03167f4a39dc06d4c0dbc64b70af90fd698a233a518aa5d07e595d983b8c0526c8f7fb8787604051808060200180602001838103835285818151815260200191508051906020019060200280838360005b83811015612580578181015183820152602001612568565b50505050905001838103825284818151815260200191508051906020019060200280838360005b838110156125bf5781810151838201526020016125a7565b5050505090500194505050505060405180910390a4610d65818787878787613ac6565b80516113749061012f906020840190614c29565b806000606084901c612606611b54565b6001600160a01b0316816001600160a01b0316141561266357839150600061262d86613d45565b9050801561265257600061264087613d58565b8203905080861115612650578093505b505b61265c8684613d6b565b8285039350505b509250929050565b612673611b54565b6001600160a01b0316836001600160a01b03161480612699575061269983610599611b54565b6126d45760405162461bcd60e51b8152600401808060200182810382526029815260200180615d586029913960400191505060405180910390fd5b610c0f838383613d84565b816001600160a01b03166126f1611b54565b6001600160a01b031614156127375760405162461bcd60e51b8152600401808060200182810382526029815260200180615efd6029913960400191505060405180910390fd5b8060986000612744611b54565b6001600160a01b03908116825260208083019390935260409182016000908120918716808252919093529120805460ff191692151592909217909155612788611b54565b6001600160a01b03167f17307eab39ab6107e8899845ad3d59bd9653f200f220920489ca2b5937696c318360405180821515815260200191505060405180910390a35050565b60008381526101fa6020526040812054905b818110156118d95760008581526101fa6020526040902080546001600160a01b03861691908390811061280f57fe5b6000918252602090912001546001600160a01b031614156128725760008581526101fa6020526040902080548491908390811061284857fe5b600091825260209091200180546001600160a01b0319166001600160a01b03929092169190911790555b6001016127e0565b6001600160a01b038116600090815260c9602052604081205460ff168061173357506117338383613ff2565b6001600160a01b0384166128eb5760405162461bcd60e51b8152600401808060200182810382526025815260200180615da36025913960400191505060405180910390fd5b6128f3611b54565b6001600160a01b0316856001600160a01b03161480612919575061291985610599611b54565b6129545760405162461bcd60e51b8152600401808060200182810382526029815260200180615d586029913960400191505060405180910390fd5b600061295e611b54565b905061297e81878761296f88614020565b61297888614020565b87610d65565b6129c5836040518060600160405280602a8152602001615e6d602a913960008781526097602090815260408083206001600160a01b038d1684529091529020549190613a2f565b60008581526097602090815260408083206001600160a01b038b811685529252808320939093558716815220546129fc9084611d08565b60008581526097602090815260408083206001600160a01b03808b168086529184529382902094909455805188815291820187905280518a841693861692600080516020615c8083398151915292908290030190a4610d65818787878787614065565b612a67611b54565b6001600160a01b0316836001600160a01b03161480612a8d5750612a8d83610599611b54565b612ac85760405162461bcd60e51b8152600401808060200182810382526029815260200180615d586029913960400191505060405180910390fd5b610c0f8383836141d6565b6000612ade30613a29565b15905090565b600054610100900460ff1680612afd5750612afd612ad3565b80612b0b575060005460ff16155b612b465760405162461bcd60e51b815260040180806020018281038252602e815260200180615dfa602e913960400191505060405180910390fd5b600054610100900460ff16158015612b71576000805460ff1961ff0019909116610100171660011790555b6000612b7b611b54565b603380546001600160a01b0319166001600160a01b038316908117909155604051919250906000907f8be0079c531659141344cd1fd0a4f28419497f9722a3daafe3b4186f6b6457e0908290a35080156122e9576000805461ff001916905550565b565b600054610100900460ff1680612bf85750612bf8612ad3565b80612c06575060005460ff16155b612c415760405162461bcd60e51b815260040180806020018281038252602e815260200180615dfa602e913960400191505060405180910390fd5b600054610100900460ff16158015612c6c576000805460ff1961ff0019909116610100171660011790555b612c7c6301ffc9a760e01b6142f7565b80156122e9576000805461ff001916905550565b600054610100900460ff1680612ca95750612ca9612ad3565b80612cb7575060005460ff16155b612cf25760405162461bcd60e51b815260040180806020018281038252602e815260200180615dfa602e913960400191505060405180910390fd5b600054610100900460ff16158015612c7c576000805460ff1961ff00199091166101001716600117905580156122e9576000805461ff001916905550565b612bdd604051806040016040528060088152602001674d696e743131353560c01b815250604051806040016040528060018152602001603160f81b81525061437b565b612d7c8161443d565b612d8c636cdb3d1360e11b6142f7565b6122e96303a24d0760e21b6142f7565b8051612db090610230906020840190614c29565b506122e963e8a3d48560e01b6142f7565b612bdd63656cb66560e11b6142f7565b8151612de590610262906020850190614c29565b508051610c0f90610263906020840190614c29565b612e056121ff610e1d565b8015612e1957506001600160a01b03811615155b156122e957612e26610e1d565b6001600160a01b0316637d3e3dbe30836040518363ffffffff1660e01b815260040180836001600160a01b03168152602001826001600160a01b0316815260200192505050600060405180830381600087803b158015612e8557600080fd5b505af11580156118d9573d6000803e3d6000fd5b6001600160a01b038216600081815260c96020908152604091829020805460ff1916851515908117909155825190815291517f270dbb8ba4292910ae92862466486be25c355c837270a3d8824b36a8bc7c653b9281900390910190a25050565b6000611b5e614450565b600033301415612f5a57600080368080601f0160208091040260200160405190810160405280939291908181526020018383808284376000920191909152505050503601516001600160a01b03169150610e339050565b503390565b6000604051806080016040528060438152602001615ccb60439139805190602001208260000151836020015184604001518051906020012060405160200180858152602001848152602001836001600160a01b03168152602001828152602001945050505050604051602081830303815290604052805190602001209050919050565b6000612fec614454565b82604051602001808061190160f01b81525060020183815260200182815260200192505050604051602081830303815290604052805190602001209050919050565b805182516060918491849110156130f95784846040516020018083805190602001908083835b602083106130735780518252601f199092019160209182019101613054565b51815160209384036101000a600019018019909216911617905285519190930192850191508083835b602083106130bb5780518252601f19909201916020918201910161309c565b6001836020036101000a0380198251168184511680821785525050505050509050019250505060405160208183030381529060405292505050610744565b60005b82518110156132095782818151811061311157fe5b602001015160f81c60f81b6001600160f81b03191682828151811061313257fe5b01602001516001600160f81b031916146132015785856040516020018083805190602001908083835b6020831061317a5780518252601f19909201916020918201910161315b565b51815160209384036101000a600019018019909216911617905285519190930192850191508083835b602083106131c25780518252601f1990920191602091820191016131a3565b6001836020036101000a038019825116818451168082178552505050505050905001925050506040516020818303038152906040529350505050610744565b6001016130fc565b5092949350505050565b60608161323857506040805180820190915260018152600360fc1b6020820152610758565b8160005b811561325057600101600a8204915061323c565b6000816001600160401b038111801561326857600080fd5b506040519080825280601f01601f191660200182016040528015613293576020820181803683370190505b50859350905060001982015b83156132e457600a840660300160f81b828280600190039350815181106132c257fe5b60200101906001600160f81b031916908160001a905350600a8404935061329f565b50949350505050565b6000808260800151516001600160401b038111801561330b57600080fd5b50604051908082528060200260200182016040528015613335578160200160208202803683370190505b50905060005b836080015151811015613387576133688460800151828151811061335b57fe5b602002602001015161445b565b82828151811061337457fe5b602090810291909101015260010161333b565b5060008360600151516001600160401b03811180156133a557600080fd5b506040519080825280602002602001820160405280156133cf578160200160208202803683370190505b50905060005b846060015151811015613414576133f58560600151828151811061335b57fe5b82828151811061340157fe5b60209081029190910101526001016133d5565b507ffb988707ebb338694f318760b0fd5cfe756d00a2ade251fda110b80c336a3c7f846000015185604001518660200151805190602001208460405160200180828051906020019060200280838360005b8381101561347d578181015183820152602001613465565b50505050905001915050604051602081830303815290604052805190602001208660405160200180828051906020019060200280838360005b838110156134ce5781810151838201526020016134b6565b50505050905001915050604051602081830303815290604052805190602001206040516020018087815260200186815260200185815260200184815260200183815260200182815260200196505050505050506040516020818303038152906040528051906020012092505050919050565b610c0f8383836144c8565b60008281526101fc60205260409020541561356557600080fd5b60008281526101fc602052604090819020829055517f5e2aa66efd74cce82b21852e317e5490d9ecc9e6bb953ae24d90851258cc2f5c906135a99084908490615b16565b60405180910390a15050565b6000805b82518110156137595760006001600160a01b03168382815181106135d957fe5b6020026020010151600001516001600160a01b03161415613641576040805162461bcd60e51b815260206004820152601b60248201527f526563697069656e742073686f756c642062652070726573656e740000000000604482015290519081900360640190fd5b82818151811061364d57fe5b6020026020010151602001516001600160601b0316600014156136b7576040805162461bcd60e51b815260206004820181905260248201527f526f79616c74792076616c75652073686f756c6420626520706f736974697665604482015290519081900360640190fd5b8281815181106136c357fe5b6020026020010151602001516001600160601b0316820191506101fa60008581526020019081526020016000208382815181106136fc57fe5b60209081029190910181015182546001818101855560009485529383902082519101805492909301516001600160601b0316600160a01b026001600160a01b039182166001600160a01b03199093169290921716179055016135b9565b50612710811061379a5760405162461bcd60e51b8152600401808060200182810382526025815260200180615ed86025913960400191505060405180910390fd5b610c0f838361470a565b60008281526101fb6020526040812090805b83518110156138f25760006001600160a01b03168482815181106137d657fe5b6020026020010151600001516001600160a01b031614156138095760405162461bcd60e51b8152600401610bfb90615a06565b83818151811061381557fe5b6020026020010151602001516001600160601b03166000141561384a5760405162461bcd60e51b8152600401610bfb906158e5565b8284828151811061385757fe5b602090810291909101810151825460018101845560009384529282902081519301805491909201516001600160601b0316600160a01b026001600160a01b039384166001600160a01b03199092169190911790921691909117905583516138e8908590839081106138c457fe5b6020026020010151602001516001600160601b031683611d0890919063ffffffff16565b91506001016137b6565b5080612710146139145760405162461bcd60e51b8152600401610bfb90615aa6565b7f841ffb90d4cabdd1f16034f3fa831d79060febbb8167bdd54a49269365bdf78f8484604051613945929190615afd565b60405180910390a150505050565b600082815261012e60209081526040909120825161397392840190614c29565b50817f6bb7ff708619ba0610cba295a58592e0451dee2622938c8755667688daf3529b61399f84611d62565b6040805160208082528351818301528351919283929083019185019080838360005b838110156139d95781810151838201526020016139c1565b50505050905090810190601f168015613a065780820380516001836020036101000a031916815260200191505b509250505060405180910390a25050565b613a238484848461473b565b50505050565b3b151590565b60008184841115613abe5760405162461bcd60e51b81526004018080602001828103825283818151815260200191508051906020019080838360005b83811015613a83578181015183820152602001613a6b565b50505050905090810190601f168015613ab05780820380516001836020036101000a031916815260200191505b509250505060405180910390fd5b505050900390565b613ad8846001600160a01b0316613a29565b15610d6557836001600160a01b031663bc197c8187878686866040518663ffffffff1660e01b815260040180866001600160a01b03168152602001856001600160a01b03168152602001806020018060200180602001848103845287818151815260200191508051906020019060200280838360005b83811015613b66578181015183820152602001613b4e565b50505050905001848103835286818151815260200191508051906020019060200280838360005b83811015613ba5578181015183820152602001613b8d565b50505050905001848103825285818151815260200191508051906020019080838360005b83811015613be1578181015183820152602001613bc9565b50505050905090810190601f168015613c0e5780820380516001836020036101000a031916815260200191505b5098505050505050505050602060405180830381600087803b158015613c3357600080fd5b505af1925050508015613c5857506040513d6020811015613c5357600080fd5b505160015b613ced57613c64615b6a565b80613c6f5750613cb6565b60405162461bcd60e51b8152602060048201818152835160248401528351849391928392604401919085019080838360008315613a83578181015183820152602001613a6b565b60405162461bcd60e51b8152600401808060200182810382526034815260200180615c246034913960400191505060405180910390fd5b6001600160e01b0319811663bc197c8160e01b14613d3c5760405162461bcd60e51b8152600401808060200182810382526028815260200180615c586028913960400191505060405180910390fd5b50505050505050565b60009081526101fc602052604090205490565b60009081526101fd602052604090205490565b60009182526101fd602052604090912080549091019055565b6001600160a01b038316613dc95760405162461bcd60e51b8152600401808060200182810382526023815260200180615e4a6023913960400191505060405180910390fd5b8051825114613e095760405162461bcd60e51b8152600401808060200182810382526028815260200180615f4f6028913960400191505060405180910390fd5b6000613e13611b54565b9050613e3381856000868660405180602001604052806000815250610d65565b60005b8351811015613f1157613ec8838281518110613e4e57fe5b6020026020010151604051806060016040528060248152602001615d346024913960976000888681518110613e7f57fe5b602002602001015181526020019081526020016000206000896001600160a01b03166001600160a01b0316815260200190815260200160002054613a2f9092919063ffffffff16565b60976000868481518110613ed857fe5b602090810291909101810151825281810192909252604090810160009081206001600160a01b038a168252909252902055600101613e36565b5060006001600160a01b0316846001600160a01b0316826001600160a01b03167f4a39dc06d4c0dbc64b70af90fd698a233a518aa5d07e595d983b8c0526c8f7fb8686604051808060200180602001838103835285818151815260200191508051906020019060200280838360005b83811015613f98578181015183820152602001613f80565b50505050905001838103825284818151815260200191508051906020019060200280838360005b83811015613fd7578181015183820152602001613fbf565b5050505090500194505050505060405180910390a450505050565b6001600160a01b03918216600090815260986020908152604080832093909416825291909152205460ff1690565b6040805160018082528183019092526060916000919060208083019080368337019050509050828160008151811061405457fe5b602090810291909101015292915050565b614077846001600160a01b0316613a29565b15610d6557836001600160a01b031663f23a6e6187878686866040518663ffffffff1660e01b815260040180866001600160a01b03168152602001856001600160a01b0316815260200184815260200183815260200180602001828103825283818151815260200191508051906020019080838360005b838110156141065781810151838201526020016140ee565b50505050905090810190601f1680156141335780820380516001836020036101000a031916815260200191505b509650505050505050602060405180830381600087803b15801561415657600080fd5b505af192505050801561417b57506040513d602081101561417657600080fd5b505160015b61418757613c64615b6a565b6001600160e01b0319811663f23a6e6160e01b14613d3c5760405162461bcd60e51b8152600401808060200182810382526028815260200180615c586028913960400191505060405180910390fd5b6001600160a01b03831661421b5760405162461bcd60e51b8152600401808060200182810382526023815260200180615e4a6023913960400191505060405180910390fd5b6000614225611b54565b90506142558185600061423787614020565b61424087614020565b60405180602001604052806000815250610d65565b61429c82604051806060016040528060248152602001615d346024913960008681526097602090815260408083206001600160a01b038b1684529091529020549190613a2f565b60008481526097602090815260408083206001600160a01b03808a1680865291845282852095909555815188815292830187905281519394909390861692600080516020615c8083398151915292908290030190a450505050565b6001600160e01b03198082161415614356576040805162461bcd60e51b815260206004820152601c60248201527f4552433136353a20696e76616c696420696e7465726661636520696400000000604482015290519081900360640190fd5b6001600160e01b0319166000908152606560205260409020805460ff19166001179055565b600054610100900460ff16806143945750614394612ad3565b806143a2575060005460ff16155b6143dd5760405162461bcd60e51b815260040180806020018281038252602e815260200180615dfa602e913960400191505060405180910390fd5b600054610100900460ff16158015614408576000805460ff1961ff0019909116610100171660011790555b825160208085019190912083519184019190912061016291909155610163558015610c0f576000805461ff0019169055505050565b8051611374906099906020840190614c29565b4690565b6102fc5490565b8051602091820151604080517f397e04204c1e1a60ee8724b71f8244e10ab5f2e9009854d80f602bda21b59ebb818601526001600160a01b03909316838201526001600160601b039091166060808401919091528151808403909101815260809092019052805191012090565b60006144d38361484d565b905060008251604114156144ee576144eb8284614857565b90505b846001600160a01b0316816001600160a01b0316146118d957614519856001600160a01b0316613a29565b156146925760408051630b135d3f60e11b808252600482018581526024830193845286516044840152865191936001600160a01b038a1693631626ba7e9388938a9390929091606490910190602085019080838360005b83811015614588578181015183820152602001614570565b50505050905090810190601f1680156145b55780820380516001836020036101000a031916815260200191505b50935050505060206040518083038186803b1580156145d357600080fd5b505afa1580156145e7573d6000803e3d6000fd5b505050506040513d60208110156145fd57600080fd5b505160408051808201909152601c81527f7369676e617475726520766572696669636174696f6e206572726f72000000006020820152916001600160e01b03199091161461468c5760405162461bcd60e51b8152602060048201818152835160248401528351909283926044909101919085019080838360008315613a83578181015183820152602001613a6b565b506118d9565b604080518082018252601c81527f7369676e617475726520766572696669636174696f6e206572726f72000000006020808301918252925162461bcd60e51b81526004810193845282516024820152825192939283926044909201919080838360008315613a83578181015183820152602001613a6b565b7f3fa96d7b6bcbfe71ef171666d84db3cf52fa2d1c8afdb1cc8e486177f208b7df82826040516135a9929190615afd565b60008381526101fd6020526040812054614756908490611d08565b60008581526101fc60205260409020549091508111156147885760405162461bcd60e51b8152600401610bfb906159dc565b60008481526101fd602052604090208190556001600160a01b0385166147c05760405162461bcd60e51b8152600401610bfb90615a65565b60006147ca611b54565b90506147eb816000886147dc89614020565b6147e589614020565b88610d65565b60008581526097602090815260408083206001600160a01b038a1684529091529020546148189085611d08565b60008681526097602090815260408083206001600160a01b038b168452909152812091909155610d6590829088888888614065565b6000612fec6148d7565b600081516041146148af576040805162461bcd60e51b815260206004820152601f60248201527f45434453413a20696e76616c6964207369676e6174757265206c656e67746800604482015290519081900360640190fd5b60208201516040830151606084015160001a6148cd86828585614912565b9695505050505050565b6000611b5e7f8b73c3c69bb8fe3d512ecc4cf759cc79239f7b179b0ffacaa9a75d522b39400f614905614b68565b61490d614b6f565b614b76565b60007f7fffffffffffffffffffffffffffffff5d576e7357a4501ddfe92f46681b20a08211156149735760405162461bcd60e51b8152600401808060200182810382526022815260200180615d816022913960400191505060405180910390fd5b6000601e8560ff161115614a4d576004850360ff16601b148061499c57506004850360ff16601c145b6149d75760405162461bcd60e51b8152600401808060200182810382526022815260200180615e286022913960400191505060405180910390fd5b60016149e287614bd8565b60048703868660405160008152602001604052604051808581526020018460ff1681526020018381526020018281526020019450505050506020604051602081039080840390855afa158015614a3c573d6000803e3d6000fd5b505050602060405103519050614b04565b8460ff16601b1480614a6257508460ff16601c145b614a9d5760405162461bcd60e51b8152600401808060200182810382526022815260200180615e286022913960400191505060405180910390fd5b60018686868660405160008152602001604052604051808581526020018460ff1681526020018381526020018281526020019450505050506020604051602081039080840390855afa158015614af7573d6000803e3d6000fd5b5050506020604051035190505b6001600160a01b038116614b5f576040805162461bcd60e51b815260206004820152601860248201527f45434453413a20696e76616c6964207369676e61747572650000000000000000604482015290519081900360640190fd5b95945050505050565b6101625490565b6101635490565b6000838383614b83614450565b3060405160200180868152602001858152602001848152602001838152602001826001600160a01b03168152602001955050505050506040516020818303038152906040528051906020012090509392505050565b604080517f19457468657265756d205369676e6564204d6573736167653a0a333200000000602080830191909152603c8083019490945282518083039094018452605c909101909152815191012090565b828054600181600116156101000203166002900490600052602060002090601f016020900481019282614c5f5760008555614ca5565b82601f10614c7857805160ff1916838001178555614ca5565b82800160010185558215614ca5579182015b82811115614ca5578251825591602001919060010190614c8a565b50614cb1929150614cb5565b5090565b5b80821115614cb15760008155600101614cb6565b803561075881615c0e565b600082601f830112614ce5578081fd5b81356020614cfa614cf583615b47565b615b24565b8281528181019085830183850287018401881015614d16578586fd5b855b85811015614d3d578135614d2b81615c0e565b84529284019290840190600101614d18565b5090979650505050505050565b600082601f830112614d5a578081fd5b81356020614d6a614cf583615b47565b82815281810190858301855b85811015614d3d57614d8d898684358b0101614eb4565b84529284019290840190600101614d76565b600082601f830112614daf578081fd5b81356020614dbf614cf583615b47565b82815281810190858301604080860288018501891015614ddd578687fd5b865b86811015614e4c5781838b031215614df5578788fd5b81518281018181106001600160401b0382111715614e0f57fe5b83528335614e1c81615c0e565b8152838701356001600160601b0381168114614e3657898afd5b8188015285529385019391810191600101614ddf565b509198975050505050505050565b600082601f830112614e6a578081fd5b81356020614e7a614cf583615b47565b8281528181019085830183850287018401881015614e96578586fd5b855b85811015614d3d57813584529284019290840190600101614e98565b600082601f830112614ec4578081fd5b81356001600160401b03811115614ed757fe5b614eea601f8201601f1916602001615b24565b818152846020838601011115614efe578283fd5b816020850160208301379081016020019190915292915050565b600060c08284031215614f29578081fd5b614f3360c0615b24565b90508135815260208201356001600160401b0380821115614f5357600080fd5b614f5f85838601614eb4565b6020840152604084013560408401526060840135915080821115614f8257600080fd5b614f8e85838601614d9f565b60608401526080840135915080821115614fa757600080fd5b614fb385838601614d9f565b608084015260a0840135915080821115614fcc57600080fd5b50614fd984828501614d4a565b60a08301525092915050565b600060208284031215614ff6578081fd5b813561173381615c0e565b60008060408385031215615013578081fd5b823561501e81615c0e565b9150602083013561502e81615c0e565b809150509250929050565b600080600080600060a08688031215615050578081fd5b853561505b81615c0e565b9450602086013561506b81615c0e565b935060408601356001600160401b0380821115615086578283fd5b61509289838a01614e5a565b945060608801359150808211156150a7578283fd5b6150b389838a01614e5a565b935060808801359150808211156150c8578283fd5b506150d588828901614eb4565b9150509295509295909350565b600080600080600060a086880312156150f9578283fd5b853561510481615c0e565b9450602086013561511481615c0e565b9350604086013592506060860135915060808601356001600160401b0381111561513c578182fd5b6150d588828901614eb4565b60008060006060848603121561515c578081fd5b833561516781615c0e565b925060208401356001600160401b0380821115615182578283fd5b61518e87838801614e5a565b935060408601359150808211156151a3578283fd5b506151b086828701614e5a565b9150509250925092565b600080604083850312156151cc578182fd5b82356151d781615c0e565b91506020830135801515811461502e578182fd5b600080600080600060a08688031215615202578283fd5b853561520d81615c0e565b945060208601356001600160401b03811115615227578384fd5b61523388828901614eb4565b9450506040860135925060608601359150608086013560ff81168114615257578182fd5b809150509295509295909350565b60008060408385031215615277578182fd5b823561528281615c0e565b946020939093013593505050565b6000806000606084860312156152a4578081fd5b83356152af81615c0e565b95602085013595506040909401359392505050565b6000602082840312156152d5578081fd5b81356001600160401b038111156152ea578182fd5b6152f684828501614cd5565b949350505050565b60008060408385031215615310578182fd5b82356001600160401b0380821115615326578384fd5b61533286838701614cd5565b93506020850135915080821115615347578283fd5b5061535485828601614e5a565b9150509250929050565b60006020828403121561536f578081fd5b81356001600160e01b031981168114611733578182fd5b600060208284031215615397578081fd5b81356001600160401b038111156153ac578182fd5b6152f684828501614eb4565b600080600080600080600060e0888a0312156153d2578485fd5b87356001600160401b03808211156153e8578687fd5b6153f48b838c01614eb4565b985060208a0135915080821115615409578687fd5b6154158b838c01614eb4565b975060408a013591508082111561542a578687fd5b6154368b838c01614eb4565b965060608a013591508082111561544b578384fd5b506154588a828b01614eb4565b94505061546760808901614cca565b925061547560a08901614cca565b915061548360c08901614cca565b905092959891949750929550565b600080600080600080600080610100898b0312156154ad578182fd5b88356001600160401b03808211156154c3578384fd5b6154cf8c838d01614eb4565b995060208b01359150808211156154e4578384fd5b6154f08c838d01614eb4565b985060408b0135915080821115615505578384fd5b6155118c838d01614eb4565b975060608b0135915080821115615526578384fd5b6155328c838d01614eb4565b965060808b0135915080821115615547578384fd5b506155548b828c01614cd5565b94505061556360a08a01614cca565b925061557160c08a01614cca565b915061557f60e08a01614cca565b90509295985092959890939650565b600080600080608085870312156155a3578182fd5b84356001600160401b038111156155b8578283fd5b6155c487828801614f18565b94505060208501356155d581615c0e565b925060408501356155e581615c0e565b9396929550929360600135925050565b600080600060608486031215615609578081fd5b83356001600160401b0381111561561e578182fd5b61562a86828701614f18565b935050602084013561563b81615c0e565b929592945050506040919091013590565b60006020828403121561565d578081fd5b5035919050565b600080600060608486031215615678578081fd5b83359250602084013561568a81615c0e565b9150604084013561569a81615c0e565b809150509250925092565b600080604083850312156156b7578182fd5b50508035926020909101359150565b6000815180845260208085019450808401835b8381101561571257815180516001600160a01b031688528301516001600160601b031683880152604090960195908201906001016156d9565b509495945050505050565b6000815180845260208085019450808401835b8381101561571257815187529582019590820190600101615730565b60008151808452815b8181101561577157602081850181015186830182015201615755565b818111156157825782602083870101525b50601f01601f19169290920160200192915050565b6001600160a01b0391909116815260200190565b6001600160a01b03841681526060602082018190526000906157cf9083018561574c565b82810360408401526148cd818561574c565b6001600160a01b03929092168252602082015260400190565b60006020825261173360208301846156c6565b600060208252611733602083018461571d565b600060408252615833604083018561571d565b8281036020840152614b5f818561571d565b901515815260200190565b600060208252611733602083018461574c565b6020808252601190820152703bb937b7339037b93232b91036b0b5b2b960791b604082015260600190565b6020808252601390820152723737ba1037bbb732b91037b91036b4b73a32b960691b604082015260600190565b60208082526010908201526f1cdd5c1c1b1e481a5b98dbdc9c9958dd60821b604082015260600190565b6020808252818101527f43726561746f722073686172652073686f756c6420626520706f736974697665604082015260600190565b6020808252601190820152701d1bdad95b9259081a5b98dbdc9c9958dd607a1b604082015260600190565b6020808252600b908201526a1b9bdd08185b1b1bddd95960aa1b604082015260600190565b60208082526010908201526f185b5bdd5b9d081a5b98dbdc9c9958dd60821b604082015260600190565b60208082526028908201527f455243313135353a207472616e736665722063616c6c6572206973206e6f7420604082015267185c1c1c9bdd995960c21b606082015260800190565b60208082526010908201526f6d6f7265207468616e20737570706c7960801b604082015260600190565b60208082526019908201527f4163636f756e742073686f756c642062652070726573656e7400000000000000604082015260600190565b6020808252600e908201526d69647320213d20616d6f756e747360901b604082015260600190565b60208082526021908201527f455243313135353a206d696e7420746f20746865207a65726f206164647265736040820152607360f81b606082015260800190565b6020808252602e908201527f746f74616c20616d6f756e74206f662063726561746f7273207368617265207360408201526d0686f756c642062652031303030360941b606082015260800190565b90815260200190565b6000838252604060208301526152f660408301846156c6565b918252602082015260400190565b6040518181016001600160401b0381118282101715615b3f57fe5b604052919050565b60006001600160401b03821115615b5a57fe5b5060209081020190565b60e01c90565b600060443d1015615b7a57610e33565b600481823e6308c379a0615b8e8251615b64565b14615b9857610e33565b6040513d600319016004823e80513d6001600160401b038160248401118184111715615bc75750505050610e33565b82840192508251915080821115615be15750505050610e33565b503d83016020828401011115615bf957505050610e33565b601f01601f1916810160200160405291505090565b6001600160a01b03811681146122e957600080fdfe455243313135353a207472616e7366657220746f206e6f6e2045524331313535526563656976657220696d706c656d656e746572455243313135353a204552433131353552656365697665722072656a656374656420746f6b656e73c3d58168c5ae7397731d063d5bbf3d657854427343f4c083240f7aacaa2d0f62455243313135353a2062616c616e636520717565727920666f7220746865207a65726f20616464726573734d6574615472616e73616374696f6e2875696e74323536206e6f6e63652c616464726573732066726f6d2c62797465732066756e6374696f6e5369676e6174757265294f776e61626c653a206e6577206f776e657220697320746865207a65726f2061646472657373455243313135353a206275726e20616d6f756e7420657863656564732062616c616e6365455243313135353a2063616c6c6572206973206e6f74206f776e6572206e6f7220617070726f76656445434453413a20696e76616c6964207369676e6174757265202773272076616c7565455243313135353a207472616e7366657220746f20746865207a65726f2061646472657373455243313135353a207472616e736665722063616c6c6572206973206e6f74206f776e6572206e6f7220617070726f766564496e697469616c697a61626c653a20636f6e747261637420697320616c726561647920696e697469616c697a656445434453413a20696e76616c6964207369676e6174757265202776272076616c7565455243313135353a206275726e2066726f6d20746865207a65726f2061646472657373455243313135353a20696e73756666696369656e742062616c616e636520666f72207472616e736665724f776e61626c653a2063616c6c6572206973206e6f7420746865206f776e65725369676e657220616e64207369676e617475726520646f206e6f74206d61746368526f79616c747920746f74616c2076616c75652073686f756c64206265203c203130303030455243313135353a2073657474696e6720617070726f76616c2073746174757320666f722073656c66455243313135353a206163636f756e747320616e6420696473206c656e677468206d69736d61746368455243313135353a2069647320616e6420616d6f756e7473206c656e677468206d69736d61746368a26469706673582212203ea2ed74219eacadc15cf67b8cca43763f7969a34beac4f79ad0fa2e201d022c64736f6c63430007060033",
  "immutableReferences": {},
  "source": "// SPDX-License-Identifier: MIT\n\npragma solidity 0.7.6;\npragma abicoder v2;\n\nimport \"@rarible/meta-tx/contracts/EIP712MetaTransaction.sol\";\nimport \"../ERC1155Base.sol\";\nimport \"../../IsPrivateCollection.sol\";\nimport \"../../access/MinterAccessControl.sol\";\n\ncontract ERC1155RaribleMeta is ERC1155Base, IsPrivateCollection, MinterAccessControl, EIP712MetaTransaction {\n    event CreateERC1155Rarible(address owner, string name, string symbol);\n    event CreateERC1155RaribleUser(address owner, string name, string symbol);\n\n    function __ERC1155RaribleUser_init(string memory _name, string memory _symbol, string memory baseURI, string memory contractURI, address[] memory operators, address transferProxy, address lazyTransferProxy, address subscribeTo) external {\n        __ERC1155Rarible_init_unchained(_name, _symbol, baseURI, contractURI, transferProxy, lazyTransferProxy, subscribeTo);\n\n        __MetaTransaction_init_unchained(\"ERC1155RaribleUserMeta\", \"1\");\n        \n        isPrivate = true;\n\n        emit CreateERC1155RaribleUser(_msgSender(), _name, _symbol);\n    }\n    \n    function __ERC1155Rarible_init(string memory _name, string memory _symbol, string memory baseURI, string memory contractURI, address transferProxy, address lazyTransferProxy, address subscribeTo) external {\n        __ERC1155Rarible_init_unchained(_name, _symbol, baseURI, contractURI, transferProxy, lazyTransferProxy, subscribeTo);\n\n        __MetaTransaction_init_unchained(\"ERC1155RaribleMeta\", \"1\");\n\n        isPrivate = false;\n\n        emit CreateERC1155Rarible(_msgSender(), _name, _symbol);\n    }\n\n    function _msgSender() internal view virtual override(ContextUpgradeable, EIP712MetaTransaction) returns (address payable) {\n        return super._msgSender();\n    }\n\n    function __ERC1155Rarible_init_unchained(string memory _name, string memory _symbol, string memory baseURI, string memory contractURI, address transferProxy, address lazyTransferProxy, address subscribeTo) internal initializer {\n        __Ownable_init_unchained();\n        __ERC1155Lazy_init_unchained();\n        __ERC165_init_unchained();\n        __Context_init_unchained();\n        __Mint1155Validator_init_unchained();\n        __ERC1155_init_unchained(\"\");\n        __HasContractURI_init_unchained(contractURI);\n        __ERC1155Burnable_init_unchained();\n        __RoyaltiesV2Upgradeable_init_unchained();\n        __ERC1155Base_init_unchained(_name, _symbol);\n        __MinterAccessControl_init_unchained();\n        _setBaseURI(baseURI);\n        __OperatorFilterer_init_unchained(subscribeTo);\n\n        //setting default approver for transferProxies\n        _setDefaultApproval(transferProxy, true);\n        _setDefaultApproval(lazyTransferProxy, true);\n    }\n\n    function mintAndTransfer(LibERC1155LazyMint.Mint1155Data memory data, address to, uint256 _amount) public override {\n        if (isPrivate){\n          require(owner() == data.creators[0].account || isMinter(data.creators[0].account), \"not owner or minter\");\n        }\n        super.mintAndTransfer(data, to, _amount);\n    }\n}\n",
  "sourcePath": "@rarible/tokens/contracts/erc-1155/erc-1155-meta/ERC1155RaribleMeta.sol",
  "compiler": {
    "name": "solc",
    "version": "0.7.6+commit.7338295f.Emscripten.clang"
  },
  "schemaVersion": "3.4.3",
  "updatedAt": "2023-09-14T13:22:37.688Z",
  "networkType": "ethereum",
  "devdoc": {
    "kind": "dev",
    "methods": {
      "addMinter(address)": {
        "details": "Add `minter` to the list of allowed minters."
      },
      "addMinters(address[])": {
        "details": "Add `minters` to the list of allowed minters."
      },
      "balanceOf(address,uint256)": {
        "details": "See {IERC1155-balanceOf}. Requirements: - `account` cannot be the zero address."
      },
      "balanceOfBatch(address[],uint256[])": {
        "details": "See {IERC1155-balanceOfBatch}. Requirements: - `accounts` and `ids` must have the same length."
      },
      "baseURI()": {
        "details": "Returns the base URI set via {_setBaseURI}. This will be automatically added as a prefix in {tokenURI} to each token's URI, or to the token ID if no specific URI is set for that token ID."
      },
      "isMinter(address)": {
        "details": "Returns `true` if `account` has been granted to minters."
      },
      "owner()": {
        "details": "Returns the address of the current owner."
      },
      "removeMinter(address)": {
        "details": "Revoke `_minter` from the list of allowed minters."
      },
      "renounceOwnership()": {
        "details": "Leaves the contract without owner. It will not be possible to call `onlyOwner` functions anymore. Can only be called by the current owner. NOTE: Renouncing ownership will leave the contract without an owner, thereby removing any functionality that is only available to the owner."
      },
      "safeBatchTransferFrom(address,address,uint256[],uint256[],bytes)": {
        "details": "See {IERC1155-safeBatchTransferFrom}.      In this example the added modifier ensures that the operator is allowed by the OperatorFilterRegistry."
      },
      "safeTransferFrom(address,address,uint256,uint256,bytes)": {
        "details": "See {IERC1155-safeTransferFrom}.      In this example the added modifier ensures that the operator is allowed by the OperatorFilterRegistry."
      },
      "setApprovalForAll(address,bool)": {
        "details": "See {IERC1155-setApprovalForAll}.      In this example the added modifier ensures that the operator is allowed by the OperatorFilterRegistry."
      },
      "transferOwnership(address)": {
        "details": "Transfers ownership of the contract to a new account (`newOwner`). Can only be called by the current owner."
      }
    },
    "version": 1
  },
  "userdoc": {
    "kind": "user",
    "methods": {},
    "version": 1
  }
}