{
  "contractName": "ERC721RaribleMinimal",
  "abi": [
    {
      "anonymous": false,
      "inputs": [
        {
          "indexed": true,
          "internalType": "address",
          "name": "owner",
          "type": "address"
        },
        {
          "indexed": true,
          "internalType": "address",
          "name": "approved",
          "type": "address"
        },
        {
          "indexed": true,
          "internalType": "uint256",
          "name": "tokenId",
          "type": "uint256"
        }
      ],
      "name": "Approval",
      "type": "event"
    },
    {
      "anonymous": false,
      "inputs": [
        {
          "indexed": true,
          "internalType": "address",
          "name": "owner",
          "type": "address"
        },
        {
          "indexed": true,
          "internalType": "address",
          "name": "operator",
          "type": "address"
        },
        {
          "indexed": false,
          "internalType": "bool",
          "name": "approved",
          "type": "bool"
        }
      ],
      "name": "ApprovalForAll",
      "type": "event"
    },
    {
      "anonymous": false,
      "inputs": [
        {
          "indexed": false,
          "internalType": "string",
          "name": "newBaseURI",
          "type": "string"
        }
      ],
      "name": "BaseUriChanged",
      "type": "event"
    },
    {
      "anonymous": false,
      "inputs": [
        {
          "indexed": false,
          "internalType": "address",
          "name": "owner",
          "type": "address"
        },
        {
          "indexed": false,
          "internalType": "string",
          "name": "name",
          "type": "string"
        },
        {
          "indexed": false,
          "internalType": "string",
          "name": "symbol",
          "type": "string"
        }
      ],
      "name": "CreateERC721Rarible",
      "type": "event"
    },
    {
      "anonymous": false,
      "inputs": [
        {
          "indexed": false,
          "internalType": "address",
          "name": "owner",
          "type": "address"
        },
        {
          "indexed": false,
          "internalType": "string",
          "name": "name",
          "type": "string"
        },
        {
          "indexed": false,
          "internalType": "string",
          "name": "symbol",
          "type": "string"
        }
      ],
      "name": "CreateERC721RaribleUser",
      "type": "event"
    },
    {
      "anonymous": false,
      "inputs": [
        {
          "indexed": false,
          "internalType": "uint256",
          "name": "tokenId",
          "type": "uint256"
        },
        {
          "components": [
            {
              "internalType": "address payable",
              "name": "account",
              "type": "address"
            },
            {
              "internalType": "uint96",
              "name": "value",
              "type": "uint96"
            }
          ],
          "indexed": false,
          "internalType": "struct LibPart.Part[]",
          "name": "creators",
          "type": "tuple[]"
        }
      ],
      "name": "Creators",
      "type": "event"
    },
    {
      "anonymous": false,
      "inputs": [
        {
          "indexed": true,
          "internalType": "address",
          "name": "operator",
          "type": "address"
        },
        {
          "indexed": false,
          "internalType": "bool",
          "name": "hasApproval",
          "type": "bool"
        }
      ],
      "name": "DefaultApproval",
      "type": "event"
    },
    {
      "anonymous": false,
      "inputs": [
        {
          "indexed": true,
          "internalType": "address",
          "name": "minter",
          "type": "address"
        },
        {
          "indexed": true,
          "internalType": "bool",
          "name": "status",
          "type": "bool"
        }
      ],
      "name": "MinterStatusChanged",
      "type": "event"
    },
    {
      "anonymous": false,
      "inputs": [
        {
          "indexed": true,
          "internalType": "address",
          "name": "previousOwner",
          "type": "address"
        },
        {
          "indexed": true,
          "internalType": "address",
          "name": "newOwner",
          "type": "address"
        }
      ],
      "name": "OwnershipTransferred",
      "type": "event"
    },
    {
      "anonymous": false,
      "inputs": [
        {
          "indexed": false,
          "internalType": "uint256",
          "name": "tokenId",
          "type": "uint256"
        },
        {
          "components": [
            {
              "internalType": "address payable",
              "name": "account",
              "type": "address"
            },
            {
              "internalType": "uint96",
              "name": "value",
              "type": "uint96"
            }
          ],
          "indexed": false,
          "internalType": "struct LibPart.Part[]",
          "name": "royalties",
          "type": "tuple[]"
        }
      ],
      "name": "RoyaltiesSet",
      "type": "event"
    },
    {
      "anonymous": false,
      "inputs": [
        {
          "indexed": true,
          "internalType": "address",
          "name": "from",
          "type": "address"
        },
        {
          "indexed": true,
          "internalType": "address",
          "name": "to",
          "type": "address"
        },
        {
          "indexed": true,
          "internalType": "uint256",
          "name": "tokenId",
          "type": "uint256"
        }
      ],
      "name": "Transfer",
      "type": "event"
    },
    {
      "inputs": [
        {
          "internalType": "address",
          "name": "_minter",
          "type": "address"
        }
      ],
      "name": "addMinter",
      "outputs": [],
      "stateMutability": "nonpayable",
      "type": "function"
    },
    {
      "inputs": [
        {
          "internalType": "address",
          "name": "to",
          "type": "address"
        },
        {
          "internalType": "uint256",
          "name": "tokenId",
          "type": "uint256"
        }
      ],
      "name": "approve",
      "outputs": [],
      "stateMutability": "nonpayable",
      "type": "function"
    },
    {
      "inputs": [
        {
          "internalType": "address",
          "name": "owner",
          "type": "address"
        }
      ],
      "name": "balanceOf",
      "outputs": [
        {
          "internalType": "uint256",
          "name": "",
          "type": "uint256"
        }
      ],
      "stateMutability": "view",
      "type": "function",
      "constant": true
    },
    {
      "inputs": [],
      "name": "baseURI",
      "outputs": [
        {
          "internalType": "string",
          "name": "",
          "type": "string"
        }
      ],
      "stateMutability": "view",
      "type": "function",
      "constant": true
    },
    {
      "inputs": [
        {
          "internalType": "uint256",
          "name": "tokenId",
          "type": "uint256"
        }
      ],
      "name": "burn",
      "outputs": [],
      "stateMutability": "nonpayable",
      "type": "function"
    },
    {
      "inputs": [],
      "name": "contractURI",
      "outputs": [
        {
          "internalType": "string",
          "name": "",
          "type": "string"
        }
      ],
      "stateMutability": "view",
      "type": "function",
      "constant": true
    },
    {
      "inputs": [
        {
          "internalType": "uint256",
          "name": "tokenId",
          "type": "uint256"
        }
      ],
      "name": "getApproved",
      "outputs": [
        {
          "internalType": "address",
          "name": "",
          "type": "address"
        }
      ],
      "stateMutability": "view",
      "type": "function",
      "constant": true
    },
    {
      "inputs": [
        {
          "internalType": "uint256",
          "name": "_id",
          "type": "uint256"
        }
      ],
      "name": "getCreators",
      "outputs": [
        {
          "components": [
            {
              "internalType": "address payable",
              "name": "account",
              "type": "address"
            },
            {
              "internalType": "uint96",
              "name": "value",
              "type": "uint96"
            }
          ],
          "internalType": "struct LibPart.Part[]",
          "name": "",
          "type": "tuple[]"
        }
      ],
      "stateMutability": "view",
      "type": "function",
      "constant": true
    },
    {
      "inputs": [
        {
          "internalType": "uint256",
          "name": "id",
          "type": "uint256"
        }
      ],
      "name": "getRaribleV2Royalties",
      "outputs": [
        {
          "components": [
            {
              "internalType": "address payable",
              "name": "account",
              "type": "address"
            },
            {
              "internalType": "uint96",
              "name": "value",
              "type": "uint96"
            }
          ],
          "internalType": "struct LibPart.Part[]",
          "name": "",
          "type": "tuple[]"
        }
      ],
      "stateMutability": "view",
      "type": "function",
      "constant": true
    },
    {
      "inputs": [
        {
          "internalType": "address",
          "name": "owner",
          "type": "address"
        },
        {
          "internalType": "address",
          "name": "operator",
          "type": "address"
        }
      ],
      "name": "isApprovedForAll",
      "outputs": [
        {
          "internalType": "bool",
          "name": "",
          "type": "bool"
        }
      ],
      "stateMutability": "view",
      "type": "function",
      "constant": true
    },
    {
      "inputs": [
        {
          "internalType": "address",
          "name": "account",
          "type": "address"
        }
      ],
      "name": "isMinter",
      "outputs": [
        {
          "internalType": "bool",
          "name": "",
          "type": "bool"
        }
      ],
      "stateMutability": "view",
      "type": "function",
      "constant": true
    },
    {
      "inputs": [],
      "name": "name",
      "outputs": [
        {
          "internalType": "string",
          "name": "",
          "type": "string"
        }
      ],
      "stateMutability": "view",
      "type": "function",
      "constant": true
    },
    {
      "inputs": [],
      "name": "owner",
      "outputs": [
        {
          "internalType": "address",
          "name": "",
          "type": "address"
        }
      ],
      "stateMutability": "view",
      "type": "function",
      "constant": true
    },
    {
      "inputs": [
        {
          "internalType": "uint256",
          "name": "tokenId",
          "type": "uint256"
        }
      ],
      "name": "ownerOf",
      "outputs": [
        {
          "internalType": "address",
          "name": "",
          "type": "address"
        }
      ],
      "stateMutability": "view",
      "type": "function",
      "constant": true
    },
    {
      "inputs": [
        {
          "internalType": "address",
          "name": "_minter",
          "type": "address"
        }
      ],
      "name": "removeMinter",
      "outputs": [],
      "stateMutability": "nonpayable",
      "type": "function"
    },
    {
      "inputs": [],
      "name": "renounceOwnership",
      "outputs": [],
      "stateMutability": "nonpayable",
      "type": "function"
    },
    {
      "inputs": [
        {
          "internalType": "uint256",
          "name": "id",
          "type": "uint256"
        },
        {
          "internalType": "uint256",
          "name": "_salePrice",
          "type": "uint256"
        }
      ],
      "name": "royaltyInfo",
      "outputs": [
        {
          "internalType": "address",
          "name": "receiver",
          "type": "address"
        },
        {
          "internalType": "uint256",
          "name": "royaltyAmount",
          "type": "uint256"
        }
      ],
      "stateMutability": "view",
      "type": "function",
      "constant": true
    },
    {
      "inputs": [
        {
          "internalType": "address",
          "name": "from",
          "type": "address"
        },
        {
          "internalType": "address",
          "name": "to",
          "type": "address"
        },
        {
          "internalType": "uint256",
          "name": "tokenId",
          "type": "uint256"
        }
      ],
      "name": "safeTransferFrom",
      "outputs": [],
      "stateMutability": "nonpayable",
      "type": "function"
    },
    {
      "inputs": [
        {
          "internalType": "address",
          "name": "from",
          "type": "address"
        },
        {
          "internalType": "address",
          "name": "to",
          "type": "address"
        },
        {
          "internalType": "uint256",
          "name": "tokenId",
          "type": "uint256"
        },
        {
          "internalType": "bytes",
          "name": "_data",
          "type": "bytes"
        }
      ],
      "name": "safeTransferFrom",
      "outputs": [],
      "stateMutability": "nonpayable",
      "type": "function"
    },
    {
      "inputs": [
        {
          "internalType": "address",
          "name": "operator",
          "type": "address"
        },
        {
          "internalType": "bool",
          "name": "approved",
          "type": "bool"
        }
      ],
      "name": "setApprovalForAll",
      "outputs": [],
      "stateMutability": "nonpayable",
      "type": "function"
    },
    {
      "inputs": [
        {
          "internalType": "string",
          "name": "newBaseURI",
          "type": "string"
        }
      ],
      "name": "setBaseURI",
      "outputs": [],
      "stateMutability": "nonpayable",
      "type": "function"
    },
    {
      "inputs": [
        {
          "internalType": "bytes4",
          "name": "interfaceId",
          "type": "bytes4"
        }
      ],
      "name": "supportsInterface",
      "outputs": [
        {
          "internalType": "bool",
          "name": "",
          "type": "bool"
        }
      ],
      "stateMutability": "view",
      "type": "function",
      "constant": true
    },
    {
      "inputs": [],
      "name": "symbol",
      "outputs": [
        {
          "internalType": "string",
          "name": "",
          "type": "string"
        }
      ],
      "stateMutability": "view",
      "type": "function",
      "constant": true
    },
    {
      "inputs": [
        {
          "internalType": "uint256",
          "name": "tokenId",
          "type": "uint256"
        }
      ],
      "name": "tokenURI",
      "outputs": [
        {
          "internalType": "string",
          "name": "",
          "type": "string"
        }
      ],
      "stateMutability": "view",
      "type": "function",
      "constant": true
    },
    {
      "inputs": [
        {
          "internalType": "address",
          "name": "from",
          "type": "address"
        },
        {
          "internalType": "address",
          "name": "to",
          "type": "address"
        },
        {
          "internalType": "uint256",
          "name": "tokenId",
          "type": "uint256"
        }
      ],
      "name": "transferFrom",
      "outputs": [],
      "stateMutability": "nonpayable",
      "type": "function"
    },
    {
      "inputs": [
        {
          "components": [
            {
              "internalType": "uint256",
              "name": "tokenId",
              "type": "uint256"
            },
            {
              "internalType": "string",
              "name": "tokenURI",
              "type": "string"
            },
            {
              "components": [
                {
                  "internalType": "address payable",
                  "name": "account",
                  "type": "address"
                },
                {
                  "internalType": "uint96",
                  "name": "value",
                  "type": "uint96"
                }
              ],
              "internalType": "struct LibPart.Part[]",
              "name": "creators",
              "type": "tuple[]"
            },
            {
              "components": [
                {
                  "internalType": "address payable",
                  "name": "account",
                  "type": "address"
                },
                {
                  "internalType": "uint96",
                  "name": "value",
                  "type": "uint96"
                }
              ],
              "internalType": "struct LibPart.Part[]",
              "name": "royalties",
              "type": "tuple[]"
            },
            {
              "internalType": "bytes[]",
              "name": "signatures",
              "type": "bytes[]"
            }
          ],
          "internalType": "struct LibERC721LazyMint.Mint721Data",
          "name": "data",
          "type": "tuple"
        },
        {
          "internalType": "address",
          "name": "from",
          "type": "address"
        },
        {
          "internalType": "address",
          "name": "to",
          "type": "address"
        }
      ],
      "name": "transferFromOrMint",
      "outputs": [],
      "stateMutability": "nonpayable",
      "type": "function"
    },
    {
      "inputs": [
        {
          "internalType": "address",
          "name": "newOwner",
          "type": "address"
        }
      ],
      "name": "transferOwnership",
      "outputs": [],
      "stateMutability": "nonpayable",
      "type": "function"
    },
    {
      "inputs": [
        {
          "internalType": "uint256",
          "name": "_id",
          "type": "uint256"
        },
        {
          "internalType": "address",
          "name": "_from",
          "type": "address"
        },
        {
          "internalType": "address",
          "name": "_to",
          "type": "address"
        }
      ],
      "name": "updateAccount",
      "outputs": [],
      "stateMutability": "nonpayable",
      "type": "function"
    },
    {
      "inputs": [
        {
          "internalType": "string",
          "name": "_name",
          "type": "string"
        },
        {
          "internalType": "string",
          "name": "_symbol",
          "type": "string"
        },
        {
          "internalType": "string",
          "name": "baseURI",
          "type": "string"
        },
        {
          "internalType": "string",
          "name": "contractURI",
          "type": "string"
        },
        {
          "internalType": "address[]",
          "name": "operators",
          "type": "address[]"
        },
        {
          "internalType": "address",
          "name": "transferProxy",
          "type": "address"
        },
        {
          "internalType": "address",
          "name": "lazyTransferProxy",
          "type": "address"
        }
      ],
      "name": "__ERC721RaribleUser_init",
      "outputs": [],
      "stateMutability": "nonpayable",
      "type": "function"
    },
    {
      "inputs": [
        {
          "internalType": "string",
          "name": "_name",
          "type": "string"
        },
        {
          "internalType": "string",
          "name": "_symbol",
          "type": "string"
        },
        {
          "internalType": "string",
          "name": "baseURI",
          "type": "string"
        },
        {
          "internalType": "string",
          "name": "contractURI",
          "type": "string"
        },
        {
          "internalType": "address",
          "name": "transferProxy",
          "type": "address"
        },
        {
          "internalType": "address",
          "name": "lazyTransferProxy",
          "type": "address"
        }
      ],
      "name": "__ERC721Rarible_init",
      "outputs": [],
      "stateMutability": "nonpayable",
      "type": "function"
    },
    {
      "inputs": [
        {
          "components": [
            {
              "internalType": "uint256",
              "name": "tokenId",
              "type": "uint256"
            },
            {
              "internalType": "string",
              "name": "tokenURI",
              "type": "string"
            },
            {
              "components": [
                {
                  "internalType": "address payable",
                  "name": "account",
                  "type": "address"
                },
                {
                  "internalType": "uint96",
                  "name": "value",
                  "type": "uint96"
                }
              ],
              "internalType": "struct LibPart.Part[]",
              "name": "creators",
              "type": "tuple[]"
            },
            {
              "components": [
                {
                  "internalType": "address payable",
                  "name": "account",
                  "type": "address"
                },
                {
                  "internalType": "uint96",
                  "name": "value",
                  "type": "uint96"
                }
              ],
              "internalType": "struct LibPart.Part[]",
              "name": "royalties",
              "type": "tuple[]"
            },
            {
              "internalType": "bytes[]",
              "name": "signatures",
              "type": "bytes[]"
            }
          ],
          "internalType": "struct LibERC721LazyMint.Mint721Data",
          "name": "data",
          "type": "tuple"
        },
        {
          "internalType": "address",
          "name": "to",
          "type": "address"
        }
      ],
      "name": "mintAndTransfer",
      "outputs": [],
      "stateMutability": "nonpayable",
      "type": "function"
    }
  ],
  "bytecode": "0x608060405234801561001057600080fd5b50614813806100206000396000f3fe608060405234801561001057600080fd5b50600436106101e55760003560e01c806370a082311161010f578063aa271e1a116100a2578063e07f231911610071578063e07f23191461040e578063e8a3d48514610421578063e985e9c514610429578063f2fde38b1461043c576101e5565b8063aa271e1a146103c2578063b88d4fde146103d5578063c87b56dd146103e8578063cad96cca146103fb576101e5565b80638da5cb5b116100de5780638da5cb5b1461038c57806395d89b4114610394578063983b2d561461039c578063a22cb465146103af576101e5565b806370a0823114610331578063715018a614610351578063832fbb2914610359578063891be9741461036c576101e5565b80633092afd5116101875780634648eb9d116101565780634648eb9d146102f057806355f804b3146103035780636352211e146103165780636c0360eb14610329576101e5565b80633092afd5146102a45780633db397c6146102b757806342842e0e146102ca57806342966c68146102dd576101e5565b8063095ea7b3116101c3578063095ea7b31461024857806322a775b61461025d57806323b872dd146102705780632a55205a14610283576101e5565b806301ffc9a7146101ea57806306fdde0314610213578063081812fc14610228575b600080fd5b6101fd6101f8366004613e2e565b61044f565b60405161020a9190614257565b60405180910390f35b61021b610462565b60405161020a9190614262565b61023b6102363660046140e0565b6104f8565b60405161020a91906141e1565b61025b610256366004613e03565b61055b565b005b61025b61026b36600461403b565b610631565b61025b61027e366004613d29565b6106d3565b61029661029136600461411e565b61072a565b60405161020a92919061422b565b61025b6102b2366004613cd5565b61083a565b61025b6102c5366004613e88565b6108ea565b61025b6102d8366004613d29565b61094d565b61025b6102eb3660046140e0565b610968565b61025b6102fe366004613f4f565b610a32565b61025b610311366004613e56565b610acc565b61023b6103243660046140e0565b610b71565b61021b610bc5565b61034461033f366004613cd5565b610c27565b60405161020a91906143fd565b61025b610c8b565b61025b61036736600461407f565b610d37565b61037f61037a3660046140e0565b610d65565b60405161020a9190614244565b61023b610df5565b61021b610e04565b61025b6103aa366004613cd5565b610e65565b61025b6103bd366004613dd2565b610f1a565b6101fd6103d0366004613cd5565b611020565b61025b6103e3366004613d69565b61103f565b61021b6103f63660046140e0565b61109d565b61037f6104093660046140e0565b6110a8565b61025b61041c3660046140f8565b611123565b61021b611166565b6101fd610437366004613cf1565b6111f5565b61025b61044a366004613cd5565b61120a565b600061045a8261130d565b90505b919050565b60fd8054604080516020601f60026000196101006001881615020190951694909404938401819004810282018101909252828152606093909290918301828280156104ee5780601f106104c3576101008083540402835291602001916104ee565b820191906000526020600020905b8154815290600101906020018083116104d157829003601f168201915b5050505050905090565b6000610503826113c7565b61053e5760405162461bcd60e51b815260040180806020018281038252602c815260200180614647602c913960400191505060405180910390fd5b50600090815261010160205260409020546001600160a01b031690565b600061056682610b71565b9050806001600160a01b0316836001600160a01b031614156105b95760405162461bcd60e51b81526004018080602001828103825260218152602001806147376021913960400191505060405180910390fd5b806001600160a01b03166105cb6113e4565b6001600160a01b031614806105e757506105e7816104376113e4565b6106225760405162461bcd60e51b815260040180806020018281038252603881526020018061453f6038913960400191505060405180910390fd5b61062c83836113e8565b505050565b6102925460ff16156106c557816040015160008151811061064e57fe5b6020026020010151600001516001600160a01b031661066b610df5565b6001600160a01b031614806106a057506106a0826040015160008151811061068f57fe5b602002602001015160000151611020565b6106c55760405162461bcd60e51b81526004016106bc90614275565b60405180910390fd5b6106cf8282611457565b5050565b6106e46106de6113e4565b826115d9565b61071f5760405162461bcd60e51b81526004018080602001828103825260318152602001806147586031913960400191505060405180910390fd5b61062c8383836115e5565b60008281526101c66020526040812054819061074b57506000905080610833565b60008481526101c66020908152604080832080548251818502810185019093528083529192909190849084015b828210156107c757600084815260209081902060408051808201909152908401546001600160a01b0381168252600160a01b90046001600160601b031681830152825260019092019101610778565b505050509050806000815181106107da57fe5b60209081029190910101515192506000805b82518110156108275782818151811061080157fe5b6020026020010151602001516001600160601b03168201915080806001019150506107ec565b50612710908502049150505b9250929050565b6108426113e4565b6001600160a01b0316610853610df5565b6001600160a01b03161461089c576040805162461bcd60e51b8152602060048201819052602482015260008051602061469f833981519152604482015290519081900360640190fd5b6001600160a01b03811660008181526102c46020526040808220805460ff19169055519091907f3042b80e435ae46c334b2cfec51a66d64c9a8a8af4cd0c279a124c35a09e91dd908390a350565b6108f8868686868686611704565b610292805460ff191690557ff05e55f0a9d205977ca8cc02236338b6a361376f404cf0b3019b2111964a01fd61092c6113e4565b878760405161093d939291906141f5565b60405180910390a1505050505050565b61062c8383836040518060200160405280600081525061103f565b610971816113c7565b6109e057606081901c6109826113e4565b6001600160a01b0316816001600160a01b0316146109d15760405162461bcd60e51b815260040180806020018281038252602d81526020018061461a602d913960400191505060405180910390fd5b6109da8261181e565b50610a2f565b6109eb6106de6113e4565b610a265760405162461bcd60e51b81526004018080602001828103825260308152602001806147ae6030913960400191505060405180910390fd5b610a2f8161183a565b50565b610a40878787878686611704565b60005b8351811015610a7257610a6a848281518110610a5b57fe5b60200260200101516001610f1a565b600101610a43565b50610292805460ff191660011790557fd901a467fa419f379a67636a1de44cc2ed772beb43a0c05fa1ddcad5d59e9913610aaa6113e4565b8888604051610abb939291906141f5565b60405180910390a150505050505050565b610ad46113e4565b6001600160a01b0316610ae5610df5565b6001600160a01b031614610b2e576040805162461bcd60e51b8152602060048201819052602482015260008051602061469f833981519152604482015290519081900360640190fd5b610b37816118d6565b7f87cdeaffd8e70903d6ce7cc983fac3b09ca79e83818124c98e47a1d70f8027d681604051610b669190614262565b60405180910390a150565b600081815260ff60205260408120546001600160a01b03168061045a5760405162461bcd60e51b81526004018080602001828103825260298152602001806145a16029913960400191505060405180910390fd5b6101c88054604080516020601f60026000196101006001881615020190951694909404938401819004810282018101909252828152606093909290918301828280156104ee5780601f106104c3576101008083540402835291602001916104ee565b60006001600160a01b038216610c6e5760405162461bcd60e51b815260040180806020018281038252602a815260200180614577602a913960400191505060405180910390fd5b506001600160a01b03166000908152610100602052604090205490565b610c936113e4565b6001600160a01b0316610ca4610df5565b6001600160a01b031614610ced576040805162461bcd60e51b8152602060048201819052602482015260008051602061469f833981519152604482015290519081900360640190fd5b6033546040516000916001600160a01b0316907f8be0079c531659141344cd1fd0a4f28419497f9722a3daafe3b4186f6b6457e0908390a3603380546001600160a01b0319169055565b8251610d42906113c7565b15610d5b57610d568282856000015161094d565b61062c565b61062c8382610631565b60606101fb6000838152602001908152602001600020805480602002602001604051908101604052809291908181526020016000905b82821015610dea57600084815260209081902060408051808201909152908401546001600160a01b0381168252600160a01b90046001600160601b031681830152825260019092019101610d9b565b505050509050919050565b6033546001600160a01b031690565b60fe8054604080516020601f60026000196101006001881615020190951694909404938401819004810282018101909252828152606093909290918301828280156104ee5780601f106104c3576101008083540402835291602001916104ee565b610e6d6113e4565b6001600160a01b0316610e7e610df5565b6001600160a01b031614610ec7576040805162461bcd60e51b8152602060048201819052602482015260008051602061469f833981519152604482015290519081900360640190fd5b6001600160a01b03811660008181526102c46020526040808220805460ff1916600190811790915590519092917f3042b80e435ae46c334b2cfec51a66d64c9a8a8af4cd0c279a124c35a09e91dd91a350565b610f226113e4565b6001600160a01b0316826001600160a01b03161415610f88576040805162461bcd60e51b815260206004820152601960248201527f4552433732313a20617070726f766520746f2063616c6c657200000000000000604482015290519081900360640190fd5b806101026000610f966113e4565b6001600160a01b03908116825260208083019390935260409182016000908120918716808252919093529120805460ff191692151592909217909155610fda6113e4565b6001600160a01b03167f17307eab39ab6107e8899845ad3d59bd9653f200f220920489ca2b5937696c318360405180821515815260200191505060405180910390a35050565b6001600160a01b031660009081526102c4602052604090205460ff1690565b61105061104a6113e4565b836115d9565b61108b5760405162461bcd60e51b81526004018080602001828103825260318152602001806147586031913960400191505060405180910390fd5b611097848484846118ea565b50505050565b606061045a8261193c565b60008181526101c660209081526040808320805482518185028101850190935280835260609492939192909184018215610dea57600084815260209081902060408051808201909152908401546001600160a01b0381168252600160a01b90046001600160601b031681830152825260019092019101610d9b565b816001600160a01b03166111356113e4565b6001600160a01b03161461115b5760405162461bcd60e51b81526004016106bc90614302565b61062c838383611947565b61022e805460408051602060026001851615610100026000190190941693909304601f810184900484028201840190925281815292918301828280156111ed5780601f106111c2576101008083540402835291602001916111ed565b820191906000526020600020905b8154815290600101906020018083116111d057829003601f168201915b505050505081565b600061120183836119f3565b90505b92915050565b6112126113e4565b6001600160a01b0316611223610df5565b6001600160a01b03161461126c576040805162461bcd60e51b8152602060048201819052602482015260008051602061469f833981519152604482015290519081900360640190fd5b6001600160a01b0381166112b15760405162461bcd60e51b81526004018080602001828103825260268152602001806144a76026913960400191505060405180910390fd5b6033546040516001600160a01b038084169216907f8be0079c531659141344cd1fd0a4f28419497f9722a3daafe3b4186f6b6457e090600090a3603380546001600160a01b0319166001600160a01b0392909216919091179055565b60006001600160e01b03198216638486f69f60e01b148061133e57506001600160e01b0319821663656cb66560e11b145b8061135957506001600160e01b0319821663152a902d60e11b145b8061137457506001600160e01b031982166301ffc9a760e01b145b8061138f57506001600160e01b031982166380ac58cd60e01b145b806113aa57506001600160e01b03198216635b5e139f60e01b145b8061045a5750506001600160e01b03191663780e9d6360e01b1490565b600090815260ff60205260409020546001600160a01b0316151590565b3390565b60008181526101016020526040902080546001600160a01b0319166001600160a01b038416908117909155819061141e82610b71565b6001600160a01b03167f8c5be1e5ebec7d5bd14f71427d1e84f3dd0314c0f7b2291e5b200ac8c7c3b92560405160405180910390a45050565b815160601c60006114666113e4565b9050836040015160008151811061147957fe5b6020026020010151600001516001600160a01b0316826001600160a01b0316146114b55760405162461bcd60e51b81526004016106bc906142d7565b836080015151846040015151146114cb57600080fd5b806001600160a01b0316826001600160a01b031614806114f057506114f082826111f5565b61150c5760405162461bcd60e51b81526004016106bc9061435e565b600061151785611a20565b905060005b85604001515181101561158d5760008660400151828151811061153b57fe5b6020026020010151600001519050836001600160a01b0316816001600160a01b0316146115845761158481848960800151858151811061157757fe5b6020026020010151611c67565b5060010161151c565b5061159c848660000151611c72565b6115ae85600001518660600151611c8c565b6115c085600001518660400151611e7b565b6115d28560000151866020015161202a565b5050505050565b6000611201838361208e565b826001600160a01b03166115f882610b71565b6001600160a01b03161461163d5760405162461bcd60e51b81526004018080602001828103825260298152602001806146bf6029913960400191505060405180910390fd5b6001600160a01b0382166116825760405162461bcd60e51b81526004018080602001828103825260248152602001806144cd6024913960400191505060405180910390fd5b61168d83838361062c565b6116986000826113e8565b6001600160a01b0380841660008181526101006020908152604080832080546000190190559386168083528483208054600101905585835260ff90915283822080546001600160a01b0319168217905592518493929160008051602061471783398151915291a4505050565b600054610100900460ff168061171d575061171d6120bb565b8061172b575060005460ff16155b6117665760405162461bcd60e51b815260040180806020018281038252602e8152602001806145ca602e913960400191505060405180910390fd5b600054610100900460ff16158015611791576000805460ff1961ff0019909116610100171660011790555b61179a856118d6565b6117a26120cc565b6117aa61216d565b6117b26120cc565b6117ba61220a565b6117c26122a7565b6117ca6120cc565b6117d26123a0565b6117da6120cc565b6117e38461246f565b6117ed8787612536565b6117f8836001612621565b611803826001612621565b8015611815576000805461ff00191690555b50505050505050565b600090815261010360205260409020805460ff19166001179055565b600061184582610b71565b90506118538160008461062c565b61185e6000836113e8565b61186782612682565b6001600160a01b038116600090815261010060209081526040808320805460001901905584835260ff909152902080546001600160a01b03191690556118ac8261181e565b60405182906000906001600160a01b03841690600080516020614717833981519152908390a45050565b80516106cf906101c890602084019061393d565b6118f58484846115e5565b6119018484848461268b565b6110975760405162461bcd60e51b81526004018080602001828103825260328152602001806144756032913960400191505060405180910390fd5b606061045a82612841565b60008381526101c66020526040812054905b818110156115d25760008581526101c66020526040902080546001600160a01b03861691908390811061198857fe5b6000918252602090912001546001600160a01b031614156119eb5760008581526101c6602052604090208054849190839081106119c157fe5b600091825260209091200180546001600160a01b0319166001600160a01b03929092169190911790555b600101611959565b6001600160a01b038116600090815261012f602052604081205460ff168061120157506112018383612a1c565b6000808260600151516001600160401b0381118015611a3e57600080fd5b50604051908082528060200260200182016040528015611a68578160200160208202803683370190505b50905060005b836060015151811015611aba57611a9b84606001518281518110611a8e57fe5b6020026020010151612a4b565b828281518110611aa757fe5b6020908102919091010152600101611a6e565b5060008360400151516001600160401b0381118015611ad857600080fd5b50604051908082528060200260200182016040528015611b02578160200160208202803683370190505b50905060005b846040015151811015611b4757611b2885604001518281518110611a8e57fe5b828281518110611b3457fe5b6020908102919091010152600101611b08565b507ff64326045af5fd7e15297ba939f85b550474d3899daa47d2bc1ffbdb9ced344e84600001518560200151805190602001208360405160200180828051906020019060200280838360005b83811015611bab578181015183820152602001611b93565b50505050905001915050604051602081830303815290604052805190602001208560405160200180828051906020019060200280838360005b83811015611bfc578181015183820152602001611be4565b505050509050019150506040516020818303038152906040528051906020012060405160200180868152602001858152602001848152602001838152602001828152602001955050505050506040516020818303038152906040528051906020012092505050919050565b61062c838383612ab8565b6106cf828260405180602001604052806000815250612d37565b6000805b8251811015611e305760006001600160a01b0316838281518110611cb057fe5b6020026020010151600001516001600160a01b03161415611d18576040805162461bcd60e51b815260206004820152601b60248201527f526563697069656e742073686f756c642062652070726573656e740000000000604482015290519081900360640190fd5b828181518110611d2457fe5b6020026020010151602001516001600160601b031660001415611d8e576040805162461bcd60e51b815260206004820181905260248201527f526f79616c74792076616c75652073686f756c6420626520706f736974697665604482015290519081900360640190fd5b828181518110611d9a57fe5b6020026020010151602001516001600160601b0316820191506101c66000858152602001908152602001600020838281518110611dd357fe5b60209081029190910181015182546001818101855560009485529383902082519101805492909301516001600160601b0316600160a01b026001600160a01b039182166001600160a01b0319909316929092171617905501611c90565b506127108110611e715760405162461bcd60e51b81526004018080602001828103825260258152602001806147896025913960400191505060405180910390fd5b61062c8383612d89565b60008281526101fb6020526040812090805b8351811015611fc95760006001600160a01b0316848281518110611ead57fe5b6020026020010151600001516001600160a01b03161415611ee05760405162461bcd60e51b81526004016106bc90614327565b838181518110611eec57fe5b6020026020010151602001516001600160601b031660001415611f215760405162461bcd60e51b81526004016106bc906142a2565b82848281518110611f2e57fe5b602090810291909101810151825460018101845560009384529282902081519301805491909201516001600160601b0316600160a01b026001600160a01b039384166001600160a01b0319909216919091179092169190911790558351611fbf90859083908110611f9b57fe5b6020026020010151602001516001600160601b031683612dc690919063ffffffff16565b9150600101611e8d565b508061271014611feb5760405162461bcd60e51b81526004016106bc906143af565b7f841ffb90d4cabdd1f16034f3fa831d79060febbb8167bdd54a49269365bdf78f848460405161201c929190614406565b60405180910390a150505050565b612033826113c7565b61206e5760405162461bcd60e51b815260040180806020018281038252602c815260200180614673602c913960400191505060405180910390fd5b60008281526101c760209081526040909120825161062c9284019061393d565b6001600160a01b038216600090815261012f602052604081205460ff168061120157506112018383612e20565b60006120c630612ebc565b15905090565b600054610100900460ff16806120e557506120e56120bb565b806120f3575060005460ff16155b61212e5760405162461bcd60e51b815260040180806020018281038252602e8152602001806145ca602e913960400191505060405180910390fd5b600054610100900460ff16158015612159576000805460ff1961ff0019909116610100171660011790555b8015610a2f576000805461ff001916905550565b600054610100900460ff168061218657506121866120bb565b80612194575060005460ff16155b6121cf5760405162461bcd60e51b815260040180806020018281038252602e8152602001806145ca602e913960400191505060405180910390fd5b600054610100900460ff161580156121fa576000805460ff1961ff0019909116610100171660011790555b61215963656cb66560e11b612ec2565b600054610100900460ff168061222357506122236120bb565b80612231575060005460ff16155b61226c5760405162461bcd60e51b815260040180806020018281038252602e8152602001806145ca602e913960400191505060405180910390fd5b600054610100900460ff16158015612297576000805460ff1961ff0019909116610100171660011790555b6121596301ffc9a760e01b612ec2565b600054610100900460ff16806122c057506122c06120bb565b806122ce575060005460ff16155b6123095760405162461bcd60e51b815260040180806020018281038252602e8152602001806145ca602e913960400191505060405180910390fd5b600054610100900460ff16158015612334576000805460ff1961ff0019909116610100171660011790555b600061233e6113e4565b603380546001600160a01b0319166001600160a01b038316908117909155604051919250906000907f8be0079c531659141344cd1fd0a4f28419497f9722a3daafe3b4186f6b6457e0908290a3508015610a2f576000805461ff001916905550565b600054610100900460ff16806123b957506123b96120bb565b806123c7575060005460ff16155b6124025760405162461bcd60e51b815260040180806020018281038252602e8152602001806145ca602e913960400191505060405180910390fd5b600054610100900460ff1615801561242d576000805460ff1961ff0019909116610100171660011790555b612159604051806040016040528060078152602001664d696e7437323160c81b815250604051806040016040528060018152602001603160f81b815250612f46565b600054610100900460ff168061248857506124886120bb565b80612496575060005460ff16155b6124d15760405162461bcd60e51b815260040180806020018281038252602e8152602001806145ca602e913960400191505060405180910390fd5b600054610100900460ff161580156124fc576000805460ff1961ff0019909116610100171660011790555b81516125109061022e90602085019061393d565b5061252163e8a3d48560e01b612ec2565b80156106cf576000805461ff00191690555050565b600054610100900460ff168061254f575061254f6120bb565b8061255d575060005460ff16155b6125985760405162461bcd60e51b815260040180806020018281038252602e8152602001806145ca602e913960400191505060405180910390fd5b600054610100900460ff161580156125c3576000805460ff1961ff0019909116610100171660011790555b82516125d69060fd90602086019061393d565b5081516125ea9060fe90602085019061393d565b506125fb6380ac58cd60e01b612ec2565b61260b635b5e139f60e01b612ec2565b801561062c576000805461ff0019169055505050565b6001600160a01b038216600081815261012f6020908152604091829020805460ff1916851515908117909155825190815291517f270dbb8ba4292910ae92862466486be25c355c837270a3d8824b36a8bc7c653b9281900390910190a25050565b610a2f81613006565b600061269f846001600160a01b0316612ebc565b1561283557836001600160a01b031663150b7a026126bb6113e4565b8786866040518563ffffffff1660e01b815260040180856001600160a01b03168152602001846001600160a01b0316815260200183815260200180602001828103825283818151815260200191508051906020019080838360005b8381101561272e578181015183820152602001612716565b50505050905090810190601f16801561275b5780820380516001836020036101000a031916815260200191505b5095505050505050602060405180830381600087803b15801561277d57600080fd5b505af19250505080156127a257506040513d602081101561279d57600080fd5b505160015b61281b573d8080156127d0576040519150601f19603f3d011682016040523d82523d6000602084013e6127d5565b606091505b5080516128135760405162461bcd60e51b81526004018080602001828103825260328152602001806144756032913960400191505060405180910390fd5b805181602001fd5b6001600160e01b031916630a85bd0160e11b149050612839565b5060015b949350505050565b606061284c826113c7565b6128875760405162461bcd60e51b815260040180806020018281038252602f8152602001806146e8602f913960400191505060405180910390fd5b60008281526101c7602090815260408083208054825160026001831615610100026000190190921691909104601f81018590048502820185019093528281529290919083018282801561291b5780601f106128f05761010080835404028352916020019161291b565b820191906000526020600020905b8154815290600101906020018083116128fe57829003601f168201915b50505050509050600061292c610bc5565b90508051600014156129405750905061045d565b81511561295a57612951818361300f565b9250505061045d565b80612964856131f4565b6040516020018083805190602001908083835b602083106129965780518252601f199092019160209182019101612977565b51815160209384036101000a600019018019909216911617905285519190930192850191508083835b602083106129de5780518252601f1990920191602091820191016129bf565b6001836020036101000a0380198251168184511680821785525050505050509050019250505060405160208183030381529060405292505050919050565b6001600160a01b0391821660009081526101026020908152604080832093909416825291909152205460ff1690565b8051602091820151604080517f397e04204c1e1a60ee8724b71f8244e10ab5f2e9009854d80f602bda21b59ebb818601526001600160a01b03909316838201526001600160601b039091166060808401919091528151808403909101815260809092019052805191012090565b6000612ac3836132ce565b90506000825160411415612ade57612adb828461331a565b90505b846001600160a01b0316816001600160a01b0316146115d257612b09856001600160a01b0316612ebc565b15612cbf5760408051630b135d3f60e11b808252600482018581526024830193845286516044840152865191936001600160a01b038a1693631626ba7e9388938a9390929091606490910190602085019080838360005b83811015612b78578181015183820152602001612b60565b50505050905090810190601f168015612ba55780820380516001836020036101000a031916815260200191505b50935050505060206040518083038186803b158015612bc357600080fd5b505afa158015612bd7573d6000803e3d6000fd5b505050506040513d6020811015612bed57600080fd5b505160408051808201909152601c81527f7369676e617475726520766572696669636174696f6e206572726f72000000006020820152916001600160e01b031990911614612cb95760405162461bcd60e51b81526004018080602001828103825283818151815260200191508051906020019080838360005b83811015612c7e578181015183820152602001612c66565b50505050905090810190601f168015612cab5780820380516001836020036101000a031916815260200191505b509250505060405180910390fd5b506115d2565b604080518082018252601c81527f7369676e617475726520766572696669636174696f6e206572726f72000000006020808301918252925162461bcd60e51b81526004810193845282516024820152825192939283926044909201919080838360008315612c7e578181015183820152602001612c66565b612d41838361339a565b612d4e600084848461268b565b61062c5760405162461bcd60e51b81526004018080602001828103825260328152602001806144756032913960400191505060405180910390fd5b7f3fa96d7b6bcbfe71ef171666d84db3cf52fa2d1c8afdb1cc8e486177f208b7df8282604051612dba929190614406565b60405180910390a15050565b600082820183811015611201576040805162461bcd60e51b815260206004820152601b60248201527f536166654d6174683a206164646974696f6e206f766572666c6f770000000000604482015290519081900360640190fd5b6000612e2b826113c7565b612e665760405162461bcd60e51b815260040180806020018281038252602c815260200180614513602c913960400191505060405180910390fd5b6000612e7183610b71565b9050806001600160a01b0316846001600160a01b03161480612eac5750836001600160a01b0316612ea1846104f8565b6001600160a01b0316145b80612839575061283981856111f5565b3b151590565b6001600160e01b03198082161415612f21576040805162461bcd60e51b815260206004820152601c60248201527f4552433136353a20696e76616c696420696e7465726661636520696400000000604482015290519081900360640190fd5b6001600160e01b0319166000908152606560205260409020805460ff19166001179055565b600054610100900460ff1680612f5f5750612f5f6120bb565b80612f6d575060005460ff16155b612fa85760405162461bcd60e51b815260040180806020018281038252602e8152602001806145ca602e913960400191505060405180910390fd5b600054610100900460ff16158015612fd3576000805460ff1961ff0019909116610100171660011790555b8251602080850191909120835191840191909120609791909155609855801561062c576000805461ff0019169055505050565b610a2f81613500565b805182516060918491849110156130da5784846040516020018083805190602001908083835b602083106130545780518252601f199092019160209182019101613035565b51815160209384036101000a600019018019909216911617905285519190930192850191508083835b6020831061309c5780518252601f19909201916020918201910161307d565b6001836020036101000a0380198251168184511680821785525050505050509050019250505060405160208183030381529060405292505050611204565b60005b82518110156131ea578281815181106130f257fe5b602001015160f81c60f81b6001600160f81b03191682828151811061311357fe5b01602001516001600160f81b031916146131e25785856040516020018083805190602001908083835b6020831061315b5780518252601f19909201916020918201910161313c565b51815160209384036101000a600019018019909216911617905285519190930192850191508083835b602083106131a35780518252601f199092019160209182019101613184565b6001836020036101000a038019825116818451168082178552505050505050905001925050506040516020818303038152906040529350505050611204565b6001016130dd565b5092949350505050565b60608161321957506040805180820190915260018152600360fc1b602082015261045d565b8160005b811561323157600101600a8204915061321d565b6000816001600160401b038111801561324957600080fd5b506040519080825280601f01601f191660200182016040528015613274576020820181803683370190505b50859350905060001982015b83156132c557600a840660300160f81b828280600190039350815181106132a357fe5b60200101906001600160f81b031916908160001a905350600a84049350613280565b50949350505050565b60006132d8613540565b82604051602001808061190160f01b81525060020183815260200182815260200192505050604051602081830303815290604052805190602001209050919050565b60008151604114613372576040805162461bcd60e51b815260206004820152601f60248201527f45434453413a20696e76616c6964207369676e6174757265206c656e67746800604482015290519081900360640190fd5b60208201516040830151606084015160001a61339086828585613580565b9695505050505050565b6001600160a01b0382166133f5576040805162461bcd60e51b815260206004820181905260248201527f4552433732313a206d696e7420746f20746865207a65726f2061646472657373604482015290519081900360640190fd5b6000818152610103602052604090205460ff1615613451576040805162461bcd60e51b81526020600482015260146024820152731d1bdad95b88185b1c9958591e48189d5c9b995960621b604482015290519081900360640190fd5b61345a816113c7565b156134ac576040805162461bcd60e51b815260206004820152601c60248201527f4552433732313a20746f6b656e20616c7265616479206d696e74656400000000604482015290519081900360640190fd5b6134b86000838361062c565b6001600160a01b0382166000818152610100602090815260408083208054600101905584835260ff909152902080546001600160a01b03191690911790556106cf82826137d6565b60008181526101c760205260409020546002600019610100600184161502019091160415610a2f5760008181526101c760205260408120610a2f916139c9565b600061357b7f8b73c3c69bb8fe3d512ecc4cf759cc79239f7b179b0ffacaa9a75d522b39400f61356e6137e0565b6135766137e6565b6137ec565b905090565b60007f7fffffffffffffffffffffffffffffff5d576e7357a4501ddfe92f46681b20a08211156135e15760405162461bcd60e51b81526004018080602001828103825260228152602001806144f16022913960400191505060405180910390fd5b6000601e8560ff1611156136bb576004850360ff16601b148061360a57506004850360ff16601c145b6136455760405162461bcd60e51b81526004018080602001828103825260228152602001806145f86022913960400191505060405180910390fd5b60016136508761384e565b60048703868660405160008152602001604052604051808581526020018460ff1681526020018381526020018281526020019450505050506020604051602081039080840390855afa1580156136aa573d6000803e3d6000fd5b505050602060405103519050613772565b8460ff16601b14806136d057508460ff16601c145b61370b5760405162461bcd60e51b81526004018080602001828103825260228152602001806145f86022913960400191505060405180910390fd5b60018686868660405160008152602001604052604051808581526020018460ff1681526020018381526020018281526020019450505050506020604051602081039080840390855afa158015613765573d6000803e3d6000fd5b5050506020604051035190505b6001600160a01b0381166137cd576040805162461bcd60e51b815260206004820152601860248201527f45434453413a20696e76616c6964207369676e61747572650000000000000000604482015290519081900360640190fd5b95945050505050565b6106cf828261389f565b60975490565b60985490565b60008383836137f9613939565b3060405160200180868152602001858152602001848152602001838152602001826001600160a01b03168152602001955050505050506040516020818303038152906040528051906020012090509392505050565b604080517f19457468657265756d205369676e6564204d6573736167653a0a333200000000602080830191909152603c8083019490945282518083039094018452605c909101909152815191012090565b606081901c6001600160a01b038316811461390e5760405182906001600160a01b03831690600090600080516020614717833981519152908290a481836001600160a01b0316826001600160a01b031660008051602061471783398151915260405160405180910390a461062c565b60405182906001600160a01b03851690600090600080516020614717833981519152908290a4505050565b4690565b828054600181600116156101000203166002900490600052602060002090601f01602090048101928261397357600085556139b9565b82601f1061398c57805160ff19168380011785556139b9565b828001600101855582156139b9579182015b828111156139b957825182559160200191906001019061399e565b506139c5929150613a09565b5090565b50805460018160011615610100020316600290046000825580601f106139ef5750610a2f565b601f016020900490600052602060002090810190610a2f91905b5b808211156139c55760008155600101613a0a565b803561045d8161445f565b600082601f830112613a39578081fd5b81356020613a4e613a4983614442565b61441f565b8281528181019085830183850287018401881015613a6a578586fd5b855b85811015613a91578135613a7f8161445f565b84529284019290840190600101613a6c565b5090979650505050505050565b600082601f830112613aae578081fd5b81356020613abe613a4983614442565b82815281810190858301855b85811015613a9157613ae1898684358b0101613bae565b84529284019290840190600101613aca565b600082601f830112613b03578081fd5b81356020613b13613a4983614442565b82815281810190858301604080860288018501891015613b31578687fd5b865b86811015613ba05781838b031215613b49578788fd5b81518281018181106001600160401b0382111715613b6357fe5b83528335613b708161445f565b8152838701356001600160601b0381168114613b8a57898afd5b8188015285529385019391810191600101613b33565b509198975050505050505050565b600082601f830112613bbe578081fd5b81356001600160401b03811115613bd157fe5b613be4601f8201601f191660200161441f565b818152846020838601011115613bf8578283fd5b816020850160208301379081016020019190915292915050565b600060a08284031215613c23578081fd5b613c2d60a061441f565b90508135815260208201356001600160401b0380821115613c4d57600080fd5b613c5985838601613bae565b60208401526040840135915080821115613c7257600080fd5b613c7e85838601613af3565b60408401526060840135915080821115613c9757600080fd5b613ca385838601613af3565b60608401526080840135915080821115613cbc57600080fd5b50613cc984828501613a9e565b60808301525092915050565b600060208284031215613ce6578081fd5b81356112018161445f565b60008060408385031215613d03578081fd5b8235613d0e8161445f565b91506020830135613d1e8161445f565b809150509250929050565b600080600060608486031215613d3d578081fd5b8335613d488161445f565b92506020840135613d588161445f565b929592945050506040919091013590565b60008060008060808587031215613d7e578081fd5b8435613d898161445f565b93506020850135613d998161445f565b92506040850135915060608501356001600160401b03811115613dba578182fd5b613dc687828801613bae565b91505092959194509250565b60008060408385031215613de4578182fd5b8235613def8161445f565b915060208301358015158114613d1e578182fd5b60008060408385031215613e15578182fd5b8235613e208161445f565b946020939093013593505050565b600060208284031215613e3f578081fd5b81356001600160e01b031981168114611201578182fd5b600060208284031215613e67578081fd5b81356001600160401b03811115613e7c578182fd5b61283984828501613bae565b60008060008060008060c08789031215613ea0578384fd5b86356001600160401b0380821115613eb6578586fd5b613ec28a838b01613bae565b97506020890135915080821115613ed7578586fd5b613ee38a838b01613bae565b96506040890135915080821115613ef8578586fd5b613f048a838b01613bae565b95506060890135915080821115613f19578384fd5b50613f2689828a01613bae565b935050613f3560808801613a1e565b9150613f4360a08801613a1e565b90509295509295509295565b600080600080600080600060e0888a031215613f69578485fd5b87356001600160401b0380821115613f7f578687fd5b613f8b8b838c01613bae565b985060208a0135915080821115613fa0578687fd5b613fac8b838c01613bae565b975060408a0135915080821115613fc1578687fd5b613fcd8b838c01613bae565b965060608a0135915080821115613fe2578283fd5b613fee8b838c01613bae565b955060808a0135915080821115614003578283fd5b506140108a828b01613a29565b93505061401f60a08901613a1e565b915061402d60c08901613a1e565b905092959891949750929550565b6000806040838503121561404d578182fd5b82356001600160401b03811115614062578283fd5b61406e85828601613c12565b9250506020830135613d1e8161445f565b600080600060608486031215614093578081fd5b83356001600160401b038111156140a8578182fd5b6140b486828701613c12565b93505060208401356140c58161445f565b915060408401356140d58161445f565b809150509250925092565b6000602082840312156140f1578081fd5b5035919050565b60008060006060848603121561410c578081fd5b8335925060208401356140c58161445f565b60008060408385031215614130578182fd5b50508035926020909101359150565b6000815180845260208085019450808401835b8381101561418b57815180516001600160a01b031688528301516001600160601b03168388015260409096019590820190600101614152565b509495945050505050565b60008151808452815b818110156141bb5760208185018101518683018201520161419f565b818111156141cc5782602083870101525b50601f01601f19169290920160200192915050565b6001600160a01b0391909116815260200190565b6001600160a01b038416815260606020820181905260009061421990830185614196565b82810360408401526133908185614196565b6001600160a01b03929092168252602082015260400190565b600060208252611201602083018461413f565b901515815260200190565b6000602082526112016020830184614196565b6020808252601390820152723737ba1037bbb732b91037b91036b4b73a32b960691b604082015260600190565b6020808252818101527f43726561746f722073686172652073686f756c6420626520706f736974697665604082015260600190565b6020808252601190820152701d1bdad95b9259081a5b98dbdc9c9958dd607a1b604082015260600190565b6020808252600b908201526a1b9bdd08185b1b1bddd95960aa1b604082015260600190565b60208082526019908201527f4163636f756e742073686f756c642062652070726573656e7400000000000000604082015260600190565b60208082526031908201527f4552433732313a207472616e736665722063616c6c6572206973206e6f74206f6040820152701ddb995c881b9bdc88185c1c1c9bdd9959607a1b606082015260800190565b6020808252602e908201527f746f74616c20616d6f756e74206f662063726561746f7273207368617265207360408201526d0686f756c642062652031303030360941b606082015260800190565b90815260200190565b600083825260406020830152612839604083018461413f565b6040518181016001600160401b038111828210171561443a57fe5b604052919050565b60006001600160401b0382111561445557fe5b5060209081020190565b6001600160a01b0381168114610a2f57600080fdfe4552433732313a207472616e7366657220746f206e6f6e20455243373231526563656976657220696d706c656d656e7465724f776e61626c653a206e6577206f776e657220697320746865207a65726f20616464726573734552433732313a207472616e7366657220746f20746865207a65726f206164647265737345434453413a20696e76616c6964207369676e6174757265202773272076616c75654552433732313a206f70657261746f7220717565727920666f72206e6f6e6578697374656e7420746f6b656e4552433732313a20617070726f76652063616c6c6572206973206e6f74206f776e6572206e6f7220617070726f76656420666f7220616c6c4552433732313a2062616c616e636520717565727920666f7220746865207a65726f20616464726573734552433732313a206f776e657220717565727920666f72206e6f6e6578697374656e7420746f6b656e496e697469616c697a61626c653a20636f6e747261637420697320616c726561647920696e697469616c697a656445434453413a20696e76616c6964207369676e6174757265202776272076616c75654552433732314275726e61626c653a2063616c6c6572206973206e6f74206f776e65722c206e6f74206275726e4552433732313a20617070726f76656420717565727920666f72206e6f6e6578697374656e7420746f6b656e4552433732314d657461646174613a2055524920736574206f66206e6f6e6578697374656e7420746f6b656e4f776e61626c653a2063616c6c6572206973206e6f7420746865206f776e65724552433732313a207472616e73666572206f6620746f6b656e2074686174206973206e6f74206f776e4552433732314d657461646174613a2055524920717565727920666f72206e6f6e6578697374656e7420746f6b656eddf252ad1be2c89b69c2b068fc378daa952ba7f163c4a11628f55a4df523b3ef4552433732313a20617070726f76616c20746f2063757272656e74206f776e65724552433732313a207472616e736665722063616c6c6572206973206e6f74206f776e6572206e6f7220617070726f766564526f79616c747920746f74616c2076616c75652073686f756c64206265203c2031303030304552433732314275726e61626c653a2063616c6c6572206973206e6f74206f776e6572206e6f7220617070726f766564a26469706673582212205604b6f6f6b65676c2d99ef7981b836f302dd58ed55a10ba27db429681f060ee64736f6c63430007060033",
  "immutableReferences": {},
  "source": "// SPDX-License-Identifier: MIT\n\npragma solidity 0.7.6;\npragma abicoder v2;\n\nimport \"./ERC721BaseMinimal.sol\";\nimport \"../IsPrivateCollection.sol\";\nimport \"../access/MinterAccessControl.sol\";\n\ncontract ERC721RaribleMinimal is ERC721BaseMinimal, IsPrivateCollection, MinterAccessControl {\n    event CreateERC721Rarible(address owner, string name, string symbol);\n    event CreateERC721RaribleUser(address owner, string name, string symbol);\n\n    function __ERC721RaribleUser_init(string memory _name, string memory _symbol, string memory baseURI, string memory contractURI, address[] memory operators, address transferProxy, address lazyTransferProxy) external virtual {\n        __ERC721Rarible_init_unchained(_name, _symbol, baseURI, contractURI, transferProxy, lazyTransferProxy);\n\n        for(uint i = 0; i < operators.length; i++) {\n            setApprovalForAll(operators[i], true);\n        }\n\n        isPrivate = true;\n        emit CreateERC721RaribleUser(_msgSender(), _name, _symbol);\n    }\n\n    function __ERC721Rarible_init(string memory _name, string memory _symbol, string memory baseURI, string memory contractURI, address transferProxy, address lazyTransferProxy) external virtual {\n        __ERC721Rarible_init_unchained(_name, _symbol, baseURI, contractURI, transferProxy, lazyTransferProxy);\n\n        isPrivate = false;\n        emit CreateERC721Rarible(_msgSender(), _name, _symbol);\n    }\n\n    function __ERC721Rarible_init_unchained(string memory _name, string memory _symbol, string memory baseURI, string memory contractURI, address transferProxy, address lazyTransferProxy) internal initializer {\n        _setBaseURI(baseURI);\n        __ERC721Lazy_init_unchained();\n        __RoyaltiesV2Upgradeable_init_unchained();\n        __Context_init_unchained();\n        __ERC165_init_unchained();\n        __Ownable_init_unchained();\n        __ERC721Burnable_init_unchained();\n        __Mint721Validator_init_unchained();\n        __MinterAccessControl_init_unchained();\n        __HasContractURI_init_unchained(contractURI);\n        __ERC721_init_unchained(_name, _symbol);\n\n        //setting default approver for transferProxies\n        _setDefaultApproval(transferProxy, true);\n        _setDefaultApproval(lazyTransferProxy, true);\n    }\n\n    function mintAndTransfer(LibERC721LazyMint.Mint721Data memory data, address to) public override virtual {\n        if (isPrivate){\n            require(owner() == data.creators[0].account || isMinter(data.creators[0].account), \"not owner or minter\");\n        }\n        super.mintAndTransfer(data, to);\n    }\n}\n",
  "sourcePath": "@rarible/tokens/contracts/erc-721-minimal/ERC721RaribleMinimal.sol",
  "compiler": {
    "name": "solc",
    "version": "0.7.6+commit.7338295f.Emscripten.clang"
  },
  "schemaVersion": "3.4.3",
  "updatedAt": "2022-02-03T19:53:34.357Z",
  "networkType": "ethereum",
  "devdoc": {
    "kind": "dev",
    "methods": {
      "addMinter(address)": {
        "details": "Add `_minter` to the list of allowed minters."
      },
      "approve(address,uint256)": {
        "details": "See {IERC721-approve}."
      },
      "balanceOf(address)": {
        "details": "See {IERC721-balanceOf}."
      },
      "baseURI()": {
        "details": "Returns the base URI set via {_setBaseURI}. This will be automatically added as a prefix in {tokenURI} to each token's URI, or to the token ID if no specific URI is set for that token ID."
      },
      "burn(uint256)": {
        "details": "Burns `tokenId`. See {ERC721-_burn}. Requirements: - The caller must own `tokenId` or be an approved operator."
      },
      "getApproved(uint256)": {
        "details": "See {IERC721-getApproved}."
      },
      "isMinter(address)": {
        "details": "Returns `true` if `account` has been granted to minters."
      },
      "name()": {
        "details": "See {IERC721Metadata-name}."
      },
      "owner()": {
        "details": "Returns the address of the current owner."
      },
      "ownerOf(uint256)": {
        "details": "See {IERC721-ownerOf}."
      },
      "removeMinter(address)": {
        "details": "Revoke `_minter` from the list of allowed minters."
      },
      "renounceOwnership()": {
        "details": "Leaves the contract without owner. It will not be possible to call `onlyOwner` functions anymore. Can only be called by the current owner. NOTE: Renouncing ownership will leave the contract without an owner, thereby removing any functionality that is only available to the owner."
      },
      "safeTransferFrom(address,address,uint256)": {
        "details": "See {IERC721-safeTransferFrom}."
      },
      "safeTransferFrom(address,address,uint256,bytes)": {
        "details": "See {IERC721-safeTransferFrom}."
      },
      "setApprovalForAll(address,bool)": {
        "details": "See {IERC721-setApprovalForAll}."
      },
      "symbol()": {
        "details": "See {IERC721Metadata-symbol}."
      },
      "transferFrom(address,address,uint256)": {
        "details": "See {IERC721-transferFrom}."
      },
      "transferOwnership(address)": {
        "details": "Transfers ownership of the contract to a new account (`newOwner`). Can only be called by the current owner."
      }
    },
    "version": 1
  },
  "userdoc": {
    "kind": "user",
    "methods": {},
    "version": 1
  }
}