{
  "contractName": "ERC721Rarible",
  "abi": [
    {
      "anonymous": false,
      "inputs": [
        {
          "indexed": true,
          "internalType": "address",
          "name": "owner",
          "type": "address"
        },
        {
          "indexed": true,
          "internalType": "address",
          "name": "approved",
          "type": "address"
        },
        {
          "indexed": true,
          "internalType": "uint256",
          "name": "tokenId",
          "type": "uint256"
        }
      ],
      "name": "Approval",
      "type": "event"
    },
    {
      "anonymous": false,
      "inputs": [
        {
          "indexed": true,
          "internalType": "address",
          "name": "owner",
          "type": "address"
        },
        {
          "indexed": true,
          "internalType": "address",
          "name": "operator",
          "type": "address"
        },
        {
          "indexed": false,
          "internalType": "bool",
          "name": "approved",
          "type": "bool"
        }
      ],
      "name": "ApprovalForAll",
      "type": "event"
    },
    {
      "anonymous": false,
      "inputs": [
        {
          "indexed": false,
          "internalType": "address",
          "name": "owner",
          "type": "address"
        },
        {
          "indexed": false,
          "internalType": "string",
          "name": "name",
          "type": "string"
        },
        {
          "indexed": false,
          "internalType": "string",
          "name": "symbol",
          "type": "string"
        }
      ],
      "name": "CreateERC721Rarible",
      "type": "event"
    },
    {
      "anonymous": false,
      "inputs": [
        {
          "indexed": false,
          "internalType": "uint256",
          "name": "tokenId",
          "type": "uint256"
        },
        {
          "components": [
            {
              "internalType": "address payable",
              "name": "account",
              "type": "address"
            },
            {
              "internalType": "uint96",
              "name": "value",
              "type": "uint96"
            }
          ],
          "indexed": false,
          "internalType": "struct LibPart.Part[]",
          "name": "creators",
          "type": "tuple[]"
        }
      ],
      "name": "Creators",
      "type": "event"
    },
    {
      "anonymous": false,
      "inputs": [
        {
          "indexed": true,
          "internalType": "address",
          "name": "operator",
          "type": "address"
        },
        {
          "indexed": false,
          "internalType": "bool",
          "name": "hasApproval",
          "type": "bool"
        }
      ],
      "name": "DefaultApproval",
      "type": "event"
    },
    {
      "anonymous": false,
      "inputs": [
        {
          "indexed": true,
          "internalType": "address",
          "name": "previousOwner",
          "type": "address"
        },
        {
          "indexed": true,
          "internalType": "address",
          "name": "newOwner",
          "type": "address"
        }
      ],
      "name": "OwnershipTransferred",
      "type": "event"
    },
    {
      "anonymous": false,
      "inputs": [
        {
          "indexed": false,
          "internalType": "uint256",
          "name": "tokenId",
          "type": "uint256"
        },
        {
          "components": [
            {
              "internalType": "address payable",
              "name": "account",
              "type": "address"
            },
            {
              "internalType": "uint96",
              "name": "value",
              "type": "uint96"
            }
          ],
          "indexed": false,
          "internalType": "struct LibPart.Part[]",
          "name": "royalties",
          "type": "tuple[]"
        }
      ],
      "name": "RoyaltiesSet",
      "type": "event"
    },
    {
      "anonymous": false,
      "inputs": [
        {
          "indexed": true,
          "internalType": "address",
          "name": "from",
          "type": "address"
        },
        {
          "indexed": true,
          "internalType": "address",
          "name": "to",
          "type": "address"
        },
        {
          "indexed": true,
          "internalType": "uint256",
          "name": "tokenId",
          "type": "uint256"
        }
      ],
      "name": "Transfer",
      "type": "event"
    },
    {
      "inputs": [
        {
          "internalType": "address",
          "name": "to",
          "type": "address"
        },
        {
          "internalType": "uint256",
          "name": "tokenId",
          "type": "uint256"
        }
      ],
      "name": "approve",
      "outputs": [],
      "stateMutability": "nonpayable",
      "type": "function"
    },
    {
      "inputs": [
        {
          "internalType": "address",
          "name": "owner",
          "type": "address"
        }
      ],
      "name": "balanceOf",
      "outputs": [
        {
          "internalType": "uint256",
          "name": "",
          "type": "uint256"
        }
      ],
      "stateMutability": "view",
      "type": "function",
      "constant": true
    },
    {
      "inputs": [],
      "name": "baseURI",
      "outputs": [
        {
          "internalType": "string",
          "name": "",
          "type": "string"
        }
      ],
      "stateMutability": "view",
      "type": "function",
      "constant": true
    },
    {
      "inputs": [
        {
          "internalType": "uint256",
          "name": "tokenId",
          "type": "uint256"
        }
      ],
      "name": "burn",
      "outputs": [],
      "stateMutability": "nonpayable",
      "type": "function"
    },
    {
      "inputs": [],
      "name": "contractURI",
      "outputs": [
        {
          "internalType": "string",
          "name": "",
          "type": "string"
        }
      ],
      "stateMutability": "view",
      "type": "function",
      "constant": true
    },
    {
      "inputs": [
        {
          "internalType": "uint256",
          "name": "tokenId",
          "type": "uint256"
        }
      ],
      "name": "getApproved",
      "outputs": [
        {
          "internalType": "address",
          "name": "",
          "type": "address"
        }
      ],
      "stateMutability": "view",
      "type": "function",
      "constant": true
    },
    {
      "inputs": [
        {
          "internalType": "uint256",
          "name": "_id",
          "type": "uint256"
        }
      ],
      "name": "getCreators",
      "outputs": [
        {
          "components": [
            {
              "internalType": "address payable",
              "name": "account",
              "type": "address"
            },
            {
              "internalType": "uint96",
              "name": "value",
              "type": "uint96"
            }
          ],
          "internalType": "struct LibPart.Part[]",
          "name": "",
          "type": "tuple[]"
        }
      ],
      "stateMutability": "view",
      "type": "function",
      "constant": true
    },
    {
      "inputs": [
        {
          "internalType": "uint256",
          "name": "id",
          "type": "uint256"
        }
      ],
      "name": "getRaribleV2Royalties",
      "outputs": [
        {
          "components": [
            {
              "internalType": "address payable",
              "name": "account",
              "type": "address"
            },
            {
              "internalType": "uint96",
              "name": "value",
              "type": "uint96"
            }
          ],
          "internalType": "struct LibPart.Part[]",
          "name": "",
          "type": "tuple[]"
        }
      ],
      "stateMutability": "view",
      "type": "function",
      "constant": true
    },
    {
      "inputs": [
        {
          "internalType": "address",
          "name": "owner",
          "type": "address"
        },
        {
          "internalType": "address",
          "name": "operator",
          "type": "address"
        }
      ],
      "name": "isApprovedForAll",
      "outputs": [
        {
          "internalType": "bool",
          "name": "",
          "type": "bool"
        }
      ],
      "stateMutability": "view",
      "type": "function",
      "constant": true
    },
    {
      "inputs": [
        {
          "components": [
            {
              "internalType": "uint256",
              "name": "tokenId",
              "type": "uint256"
            },
            {
              "internalType": "string",
              "name": "tokenURI",
              "type": "string"
            },
            {
              "components": [
                {
                  "internalType": "address payable",
                  "name": "account",
                  "type": "address"
                },
                {
                  "internalType": "uint96",
                  "name": "value",
                  "type": "uint96"
                }
              ],
              "internalType": "struct LibPart.Part[]",
              "name": "creators",
              "type": "tuple[]"
            },
            {
              "components": [
                {
                  "internalType": "address payable",
                  "name": "account",
                  "type": "address"
                },
                {
                  "internalType": "uint96",
                  "name": "value",
                  "type": "uint96"
                }
              ],
              "internalType": "struct LibPart.Part[]",
              "name": "royalties",
              "type": "tuple[]"
            },
            {
              "internalType": "bytes[]",
              "name": "signatures",
              "type": "bytes[]"
            }
          ],
          "internalType": "struct LibERC721LazyMint.Mint721Data",
          "name": "data",
          "type": "tuple"
        },
        {
          "internalType": "address",
          "name": "to",
          "type": "address"
        }
      ],
      "name": "mintAndTransfer",
      "outputs": [],
      "stateMutability": "nonpayable",
      "type": "function"
    },
    {
      "inputs": [],
      "name": "name",
      "outputs": [
        {
          "internalType": "string",
          "name": "",
          "type": "string"
        }
      ],
      "stateMutability": "view",
      "type": "function",
      "constant": true
    },
    {
      "inputs": [],
      "name": "owner",
      "outputs": [
        {
          "internalType": "address",
          "name": "",
          "type": "address"
        }
      ],
      "stateMutability": "view",
      "type": "function",
      "constant": true
    },
    {
      "inputs": [
        {
          "internalType": "uint256",
          "name": "tokenId",
          "type": "uint256"
        }
      ],
      "name": "ownerOf",
      "outputs": [
        {
          "internalType": "address",
          "name": "",
          "type": "address"
        }
      ],
      "stateMutability": "view",
      "type": "function",
      "constant": true
    },
    {
      "inputs": [],
      "name": "renounceOwnership",
      "outputs": [],
      "stateMutability": "nonpayable",
      "type": "function"
    },
    {
      "inputs": [
        {
          "internalType": "address",
          "name": "from",
          "type": "address"
        },
        {
          "internalType": "address",
          "name": "to",
          "type": "address"
        },
        {
          "internalType": "uint256",
          "name": "tokenId",
          "type": "uint256"
        }
      ],
      "name": "safeTransferFrom",
      "outputs": [],
      "stateMutability": "nonpayable",
      "type": "function"
    },
    {
      "inputs": [
        {
          "internalType": "address",
          "name": "from",
          "type": "address"
        },
        {
          "internalType": "address",
          "name": "to",
          "type": "address"
        },
        {
          "internalType": "uint256",
          "name": "tokenId",
          "type": "uint256"
        },
        {
          "internalType": "bytes",
          "name": "_data",
          "type": "bytes"
        }
      ],
      "name": "safeTransferFrom",
      "outputs": [],
      "stateMutability": "nonpayable",
      "type": "function"
    },
    {
      "inputs": [
        {
          "internalType": "address",
          "name": "operator",
          "type": "address"
        },
        {
          "internalType": "bool",
          "name": "approved",
          "type": "bool"
        }
      ],
      "name": "setApprovalForAll",
      "outputs": [],
      "stateMutability": "nonpayable",
      "type": "function"
    },
    {
      "inputs": [
        {
          "internalType": "bytes4",
          "name": "interfaceId",
          "type": "bytes4"
        }
      ],
      "name": "supportsInterface",
      "outputs": [
        {
          "internalType": "bool",
          "name": "",
          "type": "bool"
        }
      ],
      "stateMutability": "view",
      "type": "function",
      "constant": true
    },
    {
      "inputs": [],
      "name": "symbol",
      "outputs": [
        {
          "internalType": "string",
          "name": "",
          "type": "string"
        }
      ],
      "stateMutability": "view",
      "type": "function",
      "constant": true
    },
    {
      "inputs": [
        {
          "internalType": "uint256",
          "name": "index",
          "type": "uint256"
        }
      ],
      "name": "tokenByIndex",
      "outputs": [
        {
          "internalType": "uint256",
          "name": "",
          "type": "uint256"
        }
      ],
      "stateMutability": "view",
      "type": "function",
      "constant": true
    },
    {
      "inputs": [
        {
          "internalType": "address",
          "name": "owner",
          "type": "address"
        },
        {
          "internalType": "uint256",
          "name": "index",
          "type": "uint256"
        }
      ],
      "name": "tokenOfOwnerByIndex",
      "outputs": [
        {
          "internalType": "uint256",
          "name": "",
          "type": "uint256"
        }
      ],
      "stateMutability": "view",
      "type": "function",
      "constant": true
    },
    {
      "inputs": [
        {
          "internalType": "uint256",
          "name": "tokenId",
          "type": "uint256"
        }
      ],
      "name": "tokenURI",
      "outputs": [
        {
          "internalType": "string",
          "name": "",
          "type": "string"
        }
      ],
      "stateMutability": "view",
      "type": "function",
      "constant": true
    },
    {
      "inputs": [],
      "name": "totalSupply",
      "outputs": [
        {
          "internalType": "uint256",
          "name": "",
          "type": "uint256"
        }
      ],
      "stateMutability": "view",
      "type": "function",
      "constant": true
    },
    {
      "inputs": [
        {
          "internalType": "address",
          "name": "from",
          "type": "address"
        },
        {
          "internalType": "address",
          "name": "to",
          "type": "address"
        },
        {
          "internalType": "uint256",
          "name": "tokenId",
          "type": "uint256"
        }
      ],
      "name": "transferFrom",
      "outputs": [],
      "stateMutability": "nonpayable",
      "type": "function"
    },
    {
      "inputs": [
        {
          "components": [
            {
              "internalType": "uint256",
              "name": "tokenId",
              "type": "uint256"
            },
            {
              "internalType": "string",
              "name": "tokenURI",
              "type": "string"
            },
            {
              "components": [
                {
                  "internalType": "address payable",
                  "name": "account",
                  "type": "address"
                },
                {
                  "internalType": "uint96",
                  "name": "value",
                  "type": "uint96"
                }
              ],
              "internalType": "struct LibPart.Part[]",
              "name": "creators",
              "type": "tuple[]"
            },
            {
              "components": [
                {
                  "internalType": "address payable",
                  "name": "account",
                  "type": "address"
                },
                {
                  "internalType": "uint96",
                  "name": "value",
                  "type": "uint96"
                }
              ],
              "internalType": "struct LibPart.Part[]",
              "name": "royalties",
              "type": "tuple[]"
            },
            {
              "internalType": "bytes[]",
              "name": "signatures",
              "type": "bytes[]"
            }
          ],
          "internalType": "struct LibERC721LazyMint.Mint721Data",
          "name": "data",
          "type": "tuple"
        },
        {
          "internalType": "address",
          "name": "from",
          "type": "address"
        },
        {
          "internalType": "address",
          "name": "to",
          "type": "address"
        }
      ],
      "name": "transferFromOrMint",
      "outputs": [],
      "stateMutability": "nonpayable",
      "type": "function"
    },
    {
      "inputs": [
        {
          "internalType": "address",
          "name": "newOwner",
          "type": "address"
        }
      ],
      "name": "transferOwnership",
      "outputs": [],
      "stateMutability": "nonpayable",
      "type": "function"
    },
    {
      "inputs": [
        {
          "internalType": "uint256",
          "name": "_id",
          "type": "uint256"
        },
        {
          "internalType": "address",
          "name": "_from",
          "type": "address"
        },
        {
          "internalType": "address",
          "name": "_to",
          "type": "address"
        }
      ],
      "name": "updateAccount",
      "outputs": [],
      "stateMutability": "nonpayable",
      "type": "function"
    },
    {
      "inputs": [
        {
          "internalType": "string",
          "name": "_name",
          "type": "string"
        },
        {
          "internalType": "string",
          "name": "_symbol",
          "type": "string"
        },
        {
          "internalType": "string",
          "name": "baseURI",
          "type": "string"
        },
        {
          "internalType": "string",
          "name": "contractURI",
          "type": "string"
        },
        {
          "internalType": "address",
          "name": "transferProxy",
          "type": "address"
        },
        {
          "internalType": "address",
          "name": "lazyTransferProxy",
          "type": "address"
        }
      ],
      "name": "__ERC721Rarible_init",
      "outputs": [],
      "stateMutability": "nonpayable",
      "type": "function"
    }
  ],
  "bytecode": "0x608060405234801561001057600080fd5b50614538806100206000396000f3fe608060405234801561001057600080fd5b50600436106101c45760003560e01c806370a08231116100f9578063b88d4fde11610097578063e07f231911610071578063e07f23191461039b578063e8a3d485146103ae578063e985e9c5146103b6578063f2fde38b146103c9576101c4565b8063b88d4fde14610362578063c87b56dd14610375578063cad96cca14610388576101c4565b8063891be974116100d3578063891be9741461031f5780638da5cb5b1461033f57806395d89b4114610347578063a22cb4651461034f576101c4565b806370a08231146102f1578063715018a614610304578063832fbb291461030c576101c4565b80632f745c591161016657806342966c681161014057806342966c68146102b05780634f6ccce7146102c35780636352211e146102d65780636c0360eb146102e9576101c4565b80632f745c59146102775780633db397c61461028a57806342842e0e1461029d576101c4565b8063095ea7b3116101a2578063095ea7b31461022757806318160ddd1461023c57806322a775b61461025157806323b872dd14610264576101c4565b806301ffc9a7146101c957806306fdde03146101f2578063081812fc14610207575b600080fd5b6101dc6101d7366004613c4a565b6103dc565b6040516101e99190613f1e565b60405180910390f35b6101fa6103ef565b6040516101e99190613f29565b61021a610215366004613de1565b610485565b6040516101e99190613ec1565b61023a610235366004613c1f565b6104e7565b005b6102446105c2565b6040516101e99190614103565b61023a61025f366004613d3a565b6105d3565b61023a610272366004613b44565b61075e565b610244610285366004613c1f565b6107b5565b61023a610298366004613c72565b6107e0565b61023a6102ab366004613b44565b6108d8565b61023a6102be366004613de1565b6108f3565b6102446102d1366004613de1565b610945565b61021a6102e4366004613de1565b61095b565b6101fa610983565b6102446102ff366004613af0565b6109e4565b61023a610a4c565b61023a61031a366004613d7f565b610b0a565b61033261032d366004613de1565b610b38565b6040516101e99190613f0b565b61021a610bc8565b6101fa610bd7565b61023a61035d366004613bee565b610c38565b61023a610370366004613b84565b610d3d565b6101fa610383366004613de1565b610d9b565b610332610396366004613de1565b610f75565b61023a6103a9366004613df9565b610ff0565b6101fa611033565b6101dc6103c4366004613b0c565b6110c2565b61023a6103d7366004613af0565b6110ce565b60006103e7826111e3565b90505b919050565b609c8054604080516020601f600260001961010060018816150201909516949094049384018190048102820181019092528281526060939092909183018282801561047b5780601f106104505761010080835404028352916020019161047b565b820191906000526020600020905b81548152906001019060200180831161045e57829003601f168201915b5050505050905090565b600061049082611282565b6104cb5760405162461bcd60e51b815260040180806020018281038252602c81526020018061438c602c913960400191505060405180910390fd5b506000908152609a60205260409020546001600160a01b031690565b60006104f28261095b565b9050806001600160a01b0316836001600160a01b031614156105455760405162461bcd60e51b815260040180806020018281038252602181526020018061445c6021913960400191505060405180910390fd5b806001600160a01b031661055761128f565b6001600160a01b0316148061057857506105788161057361128f565b611293565b6105b35760405162461bcd60e51b815260040180806020018281038252603881526020018061428f6038913960400191505060405180910390fd5b6105bd83836112c1565b505050565b60006105ce609861132f565b905090565b815160601c60006105e261128f565b905083604001516000815181106105f557fe5b6020026020010151600001516001600160a01b0316826001600160a01b03161461063a5760405162461bcd60e51b815260040161063190613fa8565b60405180910390fd5b8360800151518460400151511461065057600080fd5b806001600160a01b0316826001600160a01b03161480610675575061067582826110c2565b6106915760405162461bcd60e51b815260040161063190614064565b600061069c8561133a565b905060005b856040015151811015610712576000866040015182815181106106c057fe5b6020026020010151600001519050836001600160a01b0316816001600160a01b031614610709576107098184896080015185815181106106fc57fe5b6020026020010151611583565b506001016106a1565b5061072184866000015161158e565b610733856000015186606001516115ac565b6107458560000151866040015161179b565b6107578560000151866020015161194a565b5050505050565b61076f61076961128f565b826119ad565b6107aa5760405162461bcd60e51b815260040180806020018281038252603181526020018061447d6031913960400191505060405180910390fd5b6105bd8383836119b9565b6001600160a01b03821660009081526097602052604081206107d79083611af3565b90505b92915050565b600054610100900460ff16806107f957506107f9611aff565b80610807575060005460ff16155b6108425760405162461bcd60e51b815260040180806020018281038252602e81526020018061431a602e913960400191505060405180910390fd5b600054610100900460ff1615801561086d576000805460ff1961ff0019909116610100171660011790555b61087b878787878787611b10565b7ff05e55f0a9d205977ca8cc02236338b6a361376f404cf0b3019b2111964a01fd6108a461128f565b88886040516108b593929190613ed5565b60405180910390a180156108cf576000805461ff00191690555b50505050505050565b6105bd83838360405180602001604052806000815250610d3d565b6108fe61076961128f565b6109395760405162461bcd60e51b81526004018080602001828103825260308152602001806144d36030913960400191505060405180910390fd5b61094281611b82565b50565b600080610953609884611c3d565b509392505050565b60006103e7826040518060600160405280602981526020016142f16029913960989190611c59565b609f8054604080516020601f600260001961010060018816150201909516949094049384018190048102820181019092528281526060939092909183018282801561047b5780601f106104505761010080835404028352916020019161047b565b60006001600160a01b038216610a2b5760405162461bcd60e51b815260040180806020018281038252602a8152602001806142c7602a913960400191505060405180910390fd5b6001600160a01b03821660009081526097602052604090206103e79061132f565b610a5461128f565b6001600160a01b0316610a65610bc8565b6001600160a01b031614610ac0576040805162461bcd60e51b815260206004820181905260248201527f4f776e61626c653a2063616c6c6572206973206e6f7420746865206f776e6572604482015290519081900360640190fd5b6033546040516000916001600160a01b0316907f8be0079c531659141344cd1fd0a4f28419497f9722a3daafe3b4186f6b6457e0908390a3603380546001600160a01b0319169055565b8251610b1590611282565b15610b2e57610b29828285600001516108d8565b6105bd565b6105bd83826105d3565b60606101c76000838152602001908152602001600020805480602002602001604051908101604052809291908181526020016000905b82821015610bbd57600084815260209081902060408051808201909152908401546001600160a01b0381168252600160a01b90046001600160601b031681830152825260019092019101610b6e565b505050509050919050565b6033546001600160a01b031690565b609d8054604080516020601f600260001961010060018816150201909516949094049384018190048102820181019092528281526060939092909183018282801561047b5780601f106104505761010080835404028352916020019161047b565b610c4061128f565b6001600160a01b0316826001600160a01b03161415610ca6576040805162461bcd60e51b815260206004820152601960248201527f4552433732313a20617070726f766520746f2063616c6c657200000000000000604482015290519081900360640190fd5b80609b6000610cb361128f565b6001600160a01b03908116825260208083019390935260409182016000908120918716808252919093529120805460ff191692151592909217909155610cf761128f565b6001600160a01b03167f17307eab39ab6107e8899845ad3d59bd9653f200f220920489ca2b5937696c318360405180821515815260200191505060405180910390a35050565b610d4e610d4861128f565b836119ad565b610d895760405162461bcd60e51b815260040180806020018281038252603181526020018061447d6031913960400191505060405180910390fd5b610d9584848484611c70565b50505050565b6060610da682611282565b610de15760405162461bcd60e51b815260040180806020018281038252602f81526020018061440d602f913960400191505060405180910390fd5b6000828152609e602090815260408083208054825160026001831615610100026000190190921691909104601f810185900485028201850190935282815292909190830182828015610e745780601f10610e4957610100808354040283529160200191610e74565b820191906000526020600020905b815481529060010190602001808311610e5757829003601f168201915b505050505090506000610e85610983565b9050805160001415610e99575090506103ea565b815115610eb357610eaa8183611cc2565b925050506103ea565b80610ebd85611ea7565b6040516020018083805190602001908083835b60208310610eef5780518252601f199092019160209182019101610ed0565b51815160209384036101000a600019018019909216911617905285519190930192850191508083835b60208310610f375780518252601f199092019160209182019101610f18565b6001836020036101000a0380198251168184511680821785525050505050509050019250505060405160208183030381529060405292505050919050565b60008181526101c660209081526040808320805482518185028101850190935280835260609492939192909184018215610bbd57600084815260209081902060408051808201909152908401546001600160a01b0381168252600160a01b90046001600160601b031681830152825260019092019101610b6e565b816001600160a01b031661100261128f565b6001600160a01b0316146110285760405162461bcd60e51b815260040161063190613fd3565b6105bd838383611f82565b6101fa805460408051602060026001851615610100026000190190941693909304601f810184900484028201840190925281815292918301828280156110ba5780601f1061108f576101008083540402835291602001916110ba565b820191906000526020600020905b81548152906001019060200180831161109d57829003601f168201915b505050505081565b60006107d7838361202e565b6110d661128f565b6001600160a01b03166110e7610bc8565b6001600160a01b031614611142576040805162461bcd60e51b815260206004820181905260248201527f4f776e61626c653a2063616c6c6572206973206e6f7420746865206f776e6572604482015290519081900360640190fd5b6001600160a01b0381166111875760405162461bcd60e51b81526004018080602001828103825260268152602001806141d16026913960400191505060405180910390fd5b6033546040516001600160a01b038084169216907f8be0079c531659141344cd1fd0a4f28419497f9722a3daafe3b4186f6b6457e090600090a3603380546001600160a01b0319166001600160a01b0392909216919091179055565b60006001600160e01b03198216638486f69f60e01b148061121457506001600160e01b0319821663656cb66560e11b145b8061122f57506001600160e01b031982166301ffc9a760e01b145b8061124a57506001600160e01b031982166380ac58cd60e01b145b8061126557506001600160e01b03198216635b5e139f60e01b145b806103e75750506001600160e01b03191663780e9d6360e01b1490565b60006103e760988361205a565b3390565b6001600160a01b039182166000908152609b6020908152604080832093909416825291909152205460ff1690565b6000818152609a6020526040902080546001600160a01b0319166001600160a01b03841690811790915581906112f68261095b565b6001600160a01b03167f8c5be1e5ebec7d5bd14f71427d1e84f3dd0314c0f7b2291e5b200ac8c7c3b92560405160405180910390a45050565b60006103e782612066565b60008082606001515167ffffffffffffffff8111801561135957600080fd5b50604051908082528060200260200182016040528015611383578160200160208202803683370190505b50905060005b8360600151518110156113d5576113b6846060015182815181106113a957fe5b602002602001015161206a565b8282815181106113c257fe5b6020908102919091010152600101611389565b50600083604001515167ffffffffffffffff811180156113f457600080fd5b5060405190808252806020026020018201604052801561141e578160200160208202803683370190505b50905060005b84604001515181101561146357611444856040015182815181106113a957fe5b82828151811061145057fe5b6020908102919091010152600101611424565b507ff64326045af5fd7e15297ba939f85b550474d3899daa47d2bc1ffbdb9ced344e84600001518560200151805190602001208360405160200180828051906020019060200280838360005b838110156114c75781810151838201526020016114af565b50505050905001915050604051602081830303815290604052805190602001208560405160200180828051906020019060200280838360005b83811015611518578181015183820152602001611500565b505050509050019150506040516020818303038152906040528051906020012060405160200180868152602001858152602001848152602001838152602001828152602001955050505050506040516020818303038152906040528051906020012092505050919050565b6105bd8383836120d7565b6115a882826040518060200160405280600081525061234c565b5050565b6000805b82518110156117505760006001600160a01b03168382815181106115d057fe5b6020026020010151600001516001600160a01b03161415611638576040805162461bcd60e51b815260206004820152601b60248201527f526563697069656e742073686f756c642062652070726573656e740000000000604482015290519081900360640190fd5b82818151811061164457fe5b6020026020010151602001516001600160601b0316600014156116ae576040805162461bcd60e51b815260206004820181905260248201527f526f79616c74792076616c75652073686f756c6420626520706f736974697665604482015290519081900360640190fd5b8281815181106116ba57fe5b6020026020010151602001516001600160601b0316820191506101c660008581526020019081526020016000208382815181106116f357fe5b60209081029190910181015182546001818101855560009485529383902082519101805492909301516001600160601b0316600160a01b026001600160a01b039182166001600160a01b03199093169290921716179055016115b0565b5061271081106117915760405162461bcd60e51b81526004018080602001828103825260258152602001806144ae6025913960400191505060405180910390fd5b6105bd838361239e565b60008281526101c76020526040812090805b83518110156118e95760006001600160a01b03168482815181106117cd57fe5b6020026020010151600001516001600160a01b031614156118005760405162461bcd60e51b81526004016106319061402d565b83818151811061180c57fe5b6020026020010151602001516001600160601b0316600014156118415760405162461bcd60e51b815260040161063190613f73565b8284828151811061184e57fe5b602090810291909101810151825460018101845560009384529282902081519301805491909201516001600160601b0316600160a01b026001600160a01b039384166001600160a01b03199092169190911790921691909117905583516118df908590839081106118bb57fe5b6020026020010151602001516001600160601b0316836123db90919063ffffffff16565b91506001016117ad565b50806127101461190b5760405162461bcd60e51b8152600401610631906140b5565b7f841ffb90d4cabdd1f16034f3fa831d79060febbb8167bdd54a49269365bdf78f848460405161193c92919061410c565b60405180910390a150505050565b61195382611282565b61198e5760405162461bcd60e51b815260040180806020018281038252602c8152602001806143b8602c913960400191505060405180910390fd5b6000828152609e6020908152604090912082516105bd928401906137b8565b60006107d78383612435565b826001600160a01b03166119cc8261095b565b6001600160a01b031614611a115760405162461bcd60e51b81526004018080602001828103825260298152602001806143e46029913960400191505060405180910390fd5b6001600160a01b038216611a565760405162461bcd60e51b81526004018080602001828103825260248152602001806141f76024913960400191505060405180910390fd5b611a618383836105bd565b611a6c6000826112c1565b6001600160a01b0383166000908152609760205260409020611a8e9082612461565b506001600160a01b0382166000908152609760205260409020611ab1908261246d565b50611abe60988284612479565b5080826001600160a01b0316846001600160a01b031660008051602061443c83398151915260405160405180910390a4505050565b60006107d7838361248f565b6000611b0a306124f3565b15905090565b611b19846124f9565b611b2161250c565b611b296125ad565b611b3161250c565b611b3961264a565b611b416126e7565b611b4961250c565b611b516127e0565b611b5a836128af565b611b648686612976565b611b6f826001612a71565b611b7a816001612a71565b505050505050565b6000611b8d8261095b565b9050611b9b816000846105bd565b611ba66000836112c1565b6000828152609e60205260409020546002600019610100600184161502019091160415611be4576000828152609e60205260408120611be491613844565b6001600160a01b0381166000908152609760205260409020611c069083612461565b50611c12609883612ad1565b5060405182906000906001600160a01b0384169060008051602061443c833981519152908390a45050565b6000808080611c4c8686612add565b9097909650945050505050565b6000611c66848484612b58565b90505b9392505050565b611c7b8484846119b9565b611c8784848484612be5565b610d955760405162461bcd60e51b815260040180806020018281038252603281526020018061419f6032913960400191505060405180910390fd5b80518251606091849184911015611d8d5784846040516020018083805190602001908083835b60208310611d075780518252601f199092019160209182019101611ce8565b51815160209384036101000a600019018019909216911617905285519190930192850191508083835b60208310611d4f5780518252601f199092019160209182019101611d30565b6001836020036101000a03801982511681845116808217855250505050505090500192505050604051602081830303815290604052925050506107da565b60005b8251811015611e9d57828181518110611da557fe5b602001015160f81c60f81b6001600160f81b031916828281518110611dc657fe5b01602001516001600160f81b03191614611e955785856040516020018083805190602001908083835b60208310611e0e5780518252601f199092019160209182019101611def565b51815160209384036101000a600019018019909216911617905285519190930192850191508083835b60208310611e565780518252601f199092019160209182019101611e37565b6001836020036101000a0380198251168184511680821785525050505050509050019250505060405160208183030381529060405293505050506107da565b600101611d90565b5092949350505050565b606081611ecc57506040805180820190915260018152600360fc1b60208201526103ea565b8160005b8115611ee457600101600a82049150611ed0565b60008167ffffffffffffffff81118015611efd57600080fd5b506040519080825280601f01601f191660200182016040528015611f28576020820181803683370190505b50859350905060001982015b8315611f7957600a840660300160f81b82828060019003935081518110611f5757fe5b60200101906001600160f81b031916908160001a905350600a84049350611f34565b50949350505050565b60008381526101c66020526040812054905b818110156107575760008581526101c66020526040902080546001600160a01b038616919083908110611fc357fe5b6000918252602090912001546001600160a01b031614156120265760008581526101c660205260409020805484919083908110611ffc57fe5b600091825260209091200180546001600160a01b0319166001600160a01b03929092169190911790555b600101611f94565b6001600160a01b038116600090815260c9602052604081205460ff16806107d757506107d78383611293565b60006107d78383612d4e565b5490565b8051602091820151604080517f397e04204c1e1a60ee8724b71f8244e10ab5f2e9009854d80f602bda21b59ebb818601526001600160a01b03909316838201526001600160601b039091166060808401919091528151808403909101815260809092019052805191012090565b60006120e283612d66565b90506120f6846001600160a01b03166124f3565b156122ac5760408051630b135d3f60e11b808252600482018481526024830193845285516044840152855191936001600160a01b03891693631626ba7e938793899390929091606490910190602085019080838360005b8381101561216557818101518382015260200161214d565b50505050905090810190601f1680156121925780820380516001836020036101000a031916815260200191505b50935050505060206040518083038186803b1580156121b057600080fd5b505afa1580156121c4573d6000803e3d6000fd5b505050506040513d60208110156121da57600080fd5b505160408051808201909152601c81527f7369676e617475726520766572696669636174696f6e206572726f72000000006020820152916001600160e01b0319909116146122a65760405162461bcd60e51b81526004018080602001828103825283818151815260200191508051906020019080838360005b8381101561226b578181015183820152602001612253565b50505050905090810190601f1680156122985780820380516001836020036101000a031916815260200191505b509250505060405180910390fd5b50610d95565b6001600160a01b0384166122c08284612db2565b6001600160a01b0316146040518060400160405280601c81526020017f7369676e617475726520766572696669636174696f6e206572726f7200000000815250906107575760405162461bcd60e51b815260206004820181815283516024840152835190928392604490910191908501908083836000831561226b578181015183820152602001612253565b6123568383612e32565b6123636000848484612be5565b6105bd5760405162461bcd60e51b815260040180806020018281038252603281526020018061419f6032913960400191505060405180910390fd5b7f3fa96d7b6bcbfe71ef171666d84db3cf52fa2d1c8afdb1cc8e486177f208b7df82826040516123cf92919061410c565b60405180910390a15050565b6000828201838110156107d7576040805162461bcd60e51b815260206004820152601b60248201527f536166654d6174683a206164646974696f6e206f766572666c6f770000000000604482015290519081900360640190fd5b6001600160a01b038216600090815260c9602052604081205460ff16806107d757506107d78383612e3c565b60006107d78383612ed8565b60006107d78383612f9e565b6000611c6684846001600160a01b038516612fe8565b815460009082106124d15760405162461bcd60e51b815260040180806020018281038252602281526020018061417d6022913960400191505060405180910390fd5b8260000182815481106124e057fe5b9060005260206000200154905092915050565b3b151590565b80516115a890609f9060208401906137b8565b600054610100900460ff16806125255750612525611aff565b80612533575060005460ff16155b61256e5760405162461bcd60e51b815260040180806020018281038252602e81526020018061431a602e913960400191505060405180910390fd5b600054610100900460ff16158015612599576000805460ff1961ff0019909116610100171660011790555b8015610942576000805461ff001916905550565b600054610100900460ff16806125c657506125c6611aff565b806125d4575060005460ff16155b61260f5760405162461bcd60e51b815260040180806020018281038252602e81526020018061431a602e913960400191505060405180910390fd5b600054610100900460ff1615801561263a576000805460ff1961ff0019909116610100171660011790555b61259963656cb66560e11b61307f565b600054610100900460ff16806126635750612663611aff565b80612671575060005460ff16155b6126ac5760405162461bcd60e51b815260040180806020018281038252602e81526020018061431a602e913960400191505060405180910390fd5b600054610100900460ff161580156126d7576000805460ff1961ff0019909116610100171660011790555b6125996301ffc9a760e01b61307f565b600054610100900460ff16806127005750612700611aff565b8061270e575060005460ff16155b6127495760405162461bcd60e51b815260040180806020018281038252602e81526020018061431a602e913960400191505060405180910390fd5b600054610100900460ff16158015612774576000805460ff1961ff0019909116610100171660011790555b600061277e61128f565b603380546001600160a01b0319166001600160a01b038316908117909155604051919250906000907f8be0079c531659141344cd1fd0a4f28419497f9722a3daafe3b4186f6b6457e0908290a3508015610942576000805461ff001916905550565b600054610100900460ff16806127f957506127f9611aff565b80612807575060005460ff16155b6128425760405162461bcd60e51b815260040180806020018281038252602e81526020018061431a602e913960400191505060405180910390fd5b600054610100900460ff1615801561286d576000805460ff1961ff0019909116610100171660011790555b612599604051806040016040528060078152602001664d696e7437323160c81b815250604051806040016040528060018152602001603160f81b815250613103565b600054610100900460ff16806128c857506128c8611aff565b806128d6575060005460ff16155b6129115760405162461bcd60e51b815260040180806020018281038252602e81526020018061431a602e913960400191505060405180910390fd5b600054610100900460ff1615801561293c576000805460ff1961ff0019909116610100171660011790555b8151612950906101fa9060208501906137b8565b5061296163e8a3d48560e01b61307f565b80156115a8576000805461ff00191690555050565b600054610100900460ff168061298f575061298f611aff565b8061299d575060005460ff16155b6129d85760405162461bcd60e51b815260040180806020018281038252602e81526020018061431a602e913960400191505060405180910390fd5b600054610100900460ff16158015612a03576000805460ff1961ff0019909116610100171660011790555b8251612a1690609c9060208601906137b8565b508151612a2a90609d9060208501906137b8565b50612a3b6380ac58cd60e01b61307f565b612a4b635b5e139f60e01b61307f565b612a5b63780e9d6360e01b61307f565b80156105bd576000805461ff0019169055505050565b6001600160a01b038216600081815260c96020908152604091829020805460ff1916851515908117909155825190815291517f270dbb8ba4292910ae92862466486be25c355c837270a3d8824b36a8bc7c653b9281900390910190a25050565b60006107d783836131c5565b815460009081908310612b215760405162461bcd60e51b815260040180806020018281038252602281526020018061436a6022913960400191505060405180910390fd5b6000846000018481548110612b3257fe5b906000526020600020906002020190508060000154816001015492509250509250929050565b60008281526001840160205260408120548281612bb65760405162461bcd60e51b815260206004820181815283516024840152835190928392604490910191908501908083836000831561226b578181015183820152602001612253565b50846000016001820381548110612bc957fe5b9060005260206000209060020201600101549150509392505050565b6000612bf9846001600160a01b03166124f3565b612c0557506001612d46565b6000612d13630a85bd0160e11b612c1a61128f565b88878760405160240180856001600160a01b03168152602001846001600160a01b0316815260200183815260200180602001828103825283818151815260200191508051906020019080838360005b83811015612c81578181015183820152602001612c69565b50505050905090810190601f168015612cae5780820380516001836020036101000a031916815260200191505b5095505050505050604051602081830303815290604052906001600160e01b0319166020820180516001600160e01b03838183161783525050505060405180606001604052806032815260200161419f603291396001600160a01b0388169190613299565b90506000818060200190516020811015612d2c57600080fd5b50516001600160e01b031916630a85bd0160e11b14925050505b949350505050565b60009081526001919091016020526040902054151590565b6000612d706132a8565b82604051602001808061190160f01b81525060020183815260200182815260200192505050604051602081830303815290604052805190602001209050919050565b60008151604114612e0a576040805162461bcd60e51b815260206004820152601f60248201527f45434453413a20696e76616c6964207369676e6174757265206c656e67746800604482015290519081900360640190fd5b60208201516040830151606084015160001a612e28868285856132e3565b9695505050505050565b6115a88282613461565b6000612e4782611282565b612e825760405162461bcd60e51b815260040180806020018281038252602c815260200180614263602c913960400191505060405180910390fd5b6000612e8d8361095b565b9050806001600160a01b0316846001600160a01b03161480612ec85750836001600160a01b0316612ebd84610485565b6001600160a01b0316145b80612d465750612d468185611293565b60008181526001830160205260408120548015612f945783546000198083019190810190600090879083908110612f0b57fe5b9060005260206000200154905080876000018481548110612f2857fe5b600091825260208083209091019290925582815260018981019092526040902090840190558654879080612f5857fe5b600190038181906000526020600020016000905590558660010160008781526020019081526020016000206000905560019450505050506107da565b60009150506107da565b6000612faa8383612d4e565b612fe0575081546001818101845560008481526020808220909301849055845484825282860190935260409020919091556107da565b5060006107da565b60008281526001840160205260408120548061304d575050604080518082018252838152602080820184815286546001818101895560008981528481209551600290930290950191825591519082015586548684528188019092529290912055611c69565b8285600001600183038154811061306057fe5b9060005260206000209060020201600101819055506000915050611c69565b6001600160e01b031980821614156130de576040805162461bcd60e51b815260206004820152601c60248201527f4552433136353a20696e76616c696420696e7465726661636520696400000000604482015290519081900360640190fd5b6001600160e01b0319166000908152606560205260409020805460ff19166001179055565b600054610100900460ff168061311c575061311c611aff565b8061312a575060005460ff16155b6131655760405162461bcd60e51b815260040180806020018281038252602e81526020018061431a602e913960400191505060405180910390fd5b600054610100900460ff16158015613190576000805460ff1961ff0019909116610100171660011790555b825160208085019190912083519184019190912061012e9190915561012f5580156105bd576000805461ff0019169055505050565b60008181526001830160205260408120548015612f9457835460001980830191908101906000908790839081106131f857fe5b906000526020600020906002020190508087600001848154811061321857fe5b60009182526020808320845460029093020191825560019384015491840191909155835482528983019052604090209084019055865487908061325757fe5b60008281526020808220600260001990940193840201828155600190810183905592909355888152898201909252604082209190915594506107da9350505050565b6060611c668484600085613583565b60006105ce7f8b73c3c69bb8fe3d512ecc4cf759cc79239f7b179b0ffacaa9a75d522b39400f6132d66136de565b6132de6136e5565b6136ec565b60007f7fffffffffffffffffffffffffffffff5d576e7357a4501ddfe92f46681b20a08211156133445760405162461bcd60e51b815260040180806020018281038252602281526020018061421b6022913960400191505060405180910390fd5b8360ff16601b148061335957508360ff16601c145b6133945760405162461bcd60e51b81526004018080602001828103825260228152602001806143486022913960400191505060405180910390fd5b600060018686868660405160008152602001604052604051808581526020018460ff1681526020018381526020018281526020019450505050506020604051602081039080840390855afa1580156133f0573d6000803e3d6000fd5b5050604051601f1901519150506001600160a01b038116613458576040805162461bcd60e51b815260206004820152601860248201527f45434453413a20696e76616c6964207369676e61747572650000000000000000604482015290519081900360640190fd5b95945050505050565b6001600160a01b0382166134875760405162461bcd60e51b815260040161063190613ff8565b61349081611282565b156134ad5760405162461bcd60e51b815260040161063190613f3c565b6134b9600083836105bd565b6001600160a01b03821660009081526097602052604090206134db908261246d565b506134e860988284612479565b50606081901c6001600160a01b03831681146135585760405182906001600160a01b0383169060009060008051602061443c833981519152908290a481836001600160a01b0316826001600160a01b031660008051602061443c83398151915260405160405180910390a46105bd565b60405182906001600160a01b0385169060009060008051602061443c833981519152908290a4505050565b6060824710156135c45760405162461bcd60e51b815260040180806020018281038252602681526020018061423d6026913960400191505060405180910390fd5b6135cd856124f3565b61361e576040805162461bcd60e51b815260206004820152601d60248201527f416464726573733a2063616c6c20746f206e6f6e2d636f6e7472616374000000604482015290519081900360640190fd5b600080866001600160a01b031685876040518082805190602001908083835b6020831061365c5780518252601f19909201916020918201910161363d565b6001836020036101000a03801982511681845116808217855250505050505090500191505060006040518083038185875af1925050503d80600081146136be576040519150601f19603f3d011682016040523d82523d6000602084013e6136c3565b606091505b50915091506136d382828661374e565b979650505050505050565b61012e5490565b61012f5490565b60008383836136f96137b4565b3060405160200180868152602001858152602001848152602001838152602001826001600160a01b03168152602001955050505050506040516020818303038152906040528051906020012090509392505050565b6060831561375d575081611c69565b82511561376d5782518084602001fd5b60405162461bcd60e51b815260206004820181815284516024840152845185939192839260440191908501908083836000831561226b578181015183820152602001612253565b4690565b828054600181600116156101000203166002900490600052602060002090601f0160209004810192826137ee5760008555613834565b82601f1061380757805160ff1916838001178555613834565b82800160010185558215613834579182015b82811115613834578251825591602001919060010190613819565b50613840929150613884565b5090565b50805460018160011615610100020316600290046000825580601f1061386a5750610942565b601f01602090049060005260206000209081019061094291905b5b808211156138405760008155600101613885565b80356103ea81614167565b600082601f8301126138b4578081fd5b813560206138c96138c483614149565b614125565b82815281810190858301855b858110156138fe576138ec898684358b01016139c7565b845292840192908401906001016138d5565b5090979650505050505050565b600082601f83011261391b578081fd5b8135602061392b6138c483614149565b82815281810190858301604080860288018501891015613949578687fd5b865b868110156139b95781838b031215613961578788fd5b815182810181811067ffffffffffffffff8211171561397c57fe5b8352833561398981614167565b8152838701356001600160601b03811681146139a357898afd5b818801528552938501939181019160010161394b565b509198975050505050505050565b600082601f8301126139d7578081fd5b813567ffffffffffffffff8111156139eb57fe5b6139fe601f8201601f1916602001614125565b818152846020838601011115613a12578283fd5b816020850160208301379081016020019190915292915050565b600060a08284031215613a3d578081fd5b613a4760a0614125565b905081358152602082013567ffffffffffffffff80821115613a6857600080fd5b613a74858386016139c7565b60208401526040840135915080821115613a8d57600080fd5b613a998583860161390b565b60408401526060840135915080821115613ab257600080fd5b613abe8583860161390b565b60608401526080840135915080821115613ad757600080fd5b50613ae4848285016138a4565b60808301525092915050565b600060208284031215613b01578081fd5b81356107d781614167565b60008060408385031215613b1e578081fd5b8235613b2981614167565b91506020830135613b3981614167565b809150509250929050565b600080600060608486031215613b58578081fd5b8335613b6381614167565b92506020840135613b7381614167565b929592945050506040919091013590565b60008060008060808587031215613b99578081fd5b8435613ba481614167565b93506020850135613bb481614167565b925060408501359150606085013567ffffffffffffffff811115613bd6578182fd5b613be2878288016139c7565b91505092959194509250565b60008060408385031215613c00578182fd5b8235613c0b81614167565b915060208301358015158114613b39578182fd5b60008060408385031215613c31578182fd5b8235613c3c81614167565b946020939093013593505050565b600060208284031215613c5b578081fd5b81356001600160e01b0319811681146107d7578182fd5b60008060008060008060c08789031215613c8a578384fd5b863567ffffffffffffffff80821115613ca1578586fd5b613cad8a838b016139c7565b97506020890135915080821115613cc2578586fd5b613cce8a838b016139c7565b96506040890135915080821115613ce3578586fd5b613cef8a838b016139c7565b95506060890135915080821115613d04578384fd5b50613d1189828a016139c7565b935050613d2060808801613899565b9150613d2e60a08801613899565b90509295509295509295565b60008060408385031215613d4c578182fd5b823567ffffffffffffffff811115613d62578283fd5b613d6e85828601613a2c565b9250506020830135613b3981614167565b600080600060608486031215613d93578081fd5b833567ffffffffffffffff811115613da9578182fd5b613db586828701613a2c565b9350506020840135613dc681614167565b91506040840135613dd681614167565b809150509250925092565b600060208284031215613df2578081fd5b5035919050565b600080600060608486031215613e0d578081fd5b833592506020840135613dc681614167565b6000815180845260208085019450808401835b83811015613e6b57815180516001600160a01b031688528301516001600160601b03168388015260409096019590820190600101613e32565b509495945050505050565b60008151808452815b81811015613e9b57602081850181015186830182015201613e7f565b81811115613eac5782602083870101525b50601f01601f19169290920160200192915050565b6001600160a01b0391909116815260200190565b6001600160a01b0384168152606060208201819052600090613ef990830185613e76565b8281036040840152612e288185613e76565b6000602082526107d76020830184613e1f565b901515815260200190565b6000602082526107d76020830184613e76565b6020808252601c908201527f4552433732313a20746f6b656e20616c7265616479206d696e74656400000000604082015260600190565b6020808252818101527f43726561746f722073686172652073686f756c6420626520706f736974697665604082015260600190565b6020808252601190820152701d1bdad95b9259081a5b98dbdc9c9958dd607a1b604082015260600190565b6020808252600b908201526a1b9bdd08185b1b1bddd95960aa1b604082015260600190565b6020808252818101527f4552433732313a206d696e7420746f20746865207a65726f2061646472657373604082015260600190565b60208082526019908201527f4163636f756e742073686f756c642062652070726573656e7400000000000000604082015260600190565b60208082526031908201527f4552433732313a207472616e736665722063616c6c6572206973206e6f74206f6040820152701ddb995c881b9bdc88185c1c1c9bdd9959607a1b606082015260800190565b6020808252602e908201527f746f74616c20616d6f756e74206f662063726561746f7273207368617265207360408201526d0686f756c642062652031303030360941b606082015260800190565b90815260200190565b600083825260406020830152611c666040830184613e1f565b60405181810167ffffffffffffffff8111828210171561414157fe5b604052919050565b600067ffffffffffffffff82111561415d57fe5b5060209081020190565b6001600160a01b038116811461094257600080fdfe456e756d657261626c655365743a20696e646578206f7574206f6620626f756e64734552433732313a207472616e7366657220746f206e6f6e20455243373231526563656976657220696d706c656d656e7465724f776e61626c653a206e6577206f776e657220697320746865207a65726f20616464726573734552433732313a207472616e7366657220746f20746865207a65726f206164647265737345434453413a20696e76616c6964207369676e6174757265202773272076616c7565416464726573733a20696e73756666696369656e742062616c616e636520666f722063616c6c4552433732313a206f70657261746f7220717565727920666f72206e6f6e6578697374656e7420746f6b656e4552433732313a20617070726f76652063616c6c6572206973206e6f74206f776e6572206e6f7220617070726f76656420666f7220616c6c4552433732313a2062616c616e636520717565727920666f7220746865207a65726f20616464726573734552433732313a206f776e657220717565727920666f72206e6f6e6578697374656e7420746f6b656e496e697469616c697a61626c653a20636f6e747261637420697320616c726561647920696e697469616c697a656445434453413a20696e76616c6964207369676e6174757265202776272076616c7565456e756d657261626c654d61703a20696e646578206f7574206f6620626f756e64734552433732313a20617070726f76656420717565727920666f72206e6f6e6578697374656e7420746f6b656e4552433732314d657461646174613a2055524920736574206f66206e6f6e6578697374656e7420746f6b656e4552433732313a207472616e73666572206f6620746f6b656e2074686174206973206e6f74206f776e4552433732314d657461646174613a2055524920717565727920666f72206e6f6e6578697374656e7420746f6b656eddf252ad1be2c89b69c2b068fc378daa952ba7f163c4a11628f55a4df523b3ef4552433732313a20617070726f76616c20746f2063757272656e74206f776e65724552433732313a207472616e736665722063616c6c6572206973206e6f74206f776e6572206e6f7220617070726f766564526f79616c747920746f74616c2076616c75652073686f756c64206265203c2031303030304552433732314275726e61626c653a2063616c6c6572206973206e6f74206f776e6572206e6f7220617070726f766564a26469706673582212202f522d3b00e85a46a6f9c40b2c44696144a763cec2180896c408abd3c663fe2764736f6c63430007060033",
  "immutableReferences": {},
  "source": "// SPDX-License-Identifier: MIT\n\npragma solidity 0.7.6;\npragma abicoder v2;\n\nimport \"./ERC721Base.sol\";\n\ncontract ERC721Rarible is ERC721Base {\n\n    event CreateERC721Rarible(address owner, string name, string symbol);\n\n    function __ERC721Rarible_init(string memory _name, string memory _symbol, string memory baseURI, string memory contractURI, address transferProxy, address lazyTransferProxy) external initializer {\n        __ERC721Rarible_init_unchained(_name, _symbol, baseURI, contractURI, transferProxy, lazyTransferProxy);\n        emit CreateERC721Rarible(_msgSender(), _name, _symbol);\n    }\n\n    function __ERC721Rarible_init_unchained(string memory _name, string memory _symbol, string memory baseURI, string memory contractURI, address transferProxy, address lazyTransferProxy) internal {\n        _setBaseURI(baseURI);\n        __ERC721Lazy_init_unchained();\n        __RoyaltiesV2Upgradeable_init_unchained();\n        __Context_init_unchained();\n        __ERC165_init_unchained();\n        __Ownable_init_unchained();\n        __ERC721Burnable_init_unchained();\n        __Mint721Validator_init_unchained();\n        __HasContractURI_init_unchained(contractURI);\n        __ERC721_init_unchained(_name, _symbol);\n\n        //setting default approver for transferProxies\n        _setDefaultApproval(transferProxy, true);\n        _setDefaultApproval(lazyTransferProxy, true);\n    }\n\n    uint256[50] private __gap;\n}\n",
  "sourcePath": "@rarible/tokens/contracts/erc-721/ERC721Rarible.sol",
  "compiler": {
    "name": "solc",
    "version": "0.7.6+commit.7338295f.Emscripten.clang"
  },
  "schemaVersion": "3.4.3",
  "updatedAt": "2021-11-15T13:55:35.158Z",
  "networkType": "ethereum",
  "devdoc": {
    "kind": "dev",
    "methods": {
      "approve(address,uint256)": {
        "details": "See {IERC721-approve}."
      },
      "balanceOf(address)": {
        "details": "See {IERC721-balanceOf}."
      },
      "baseURI()": {
        "details": "Returns the base URI set via {_setBaseURI}. This will be automatically added as a prefix in {tokenURI} to each token's URI, or to the token ID if no specific URI is set for that token ID."
      },
      "burn(uint256)": {
        "details": "Burns `tokenId`. See {ERC721-_burn}. Requirements: - The caller must own `tokenId` or be an approved operator."
      },
      "getApproved(uint256)": {
        "details": "See {IERC721-getApproved}."
      },
      "name()": {
        "details": "See {IERC721Metadata-name}."
      },
      "owner()": {
        "details": "Returns the address of the current owner."
      },
      "ownerOf(uint256)": {
        "details": "See {IERC721-ownerOf}."
      },
      "renounceOwnership()": {
        "details": "Leaves the contract without owner. It will not be possible to call `onlyOwner` functions anymore. Can only be called by the current owner. NOTE: Renouncing ownership will leave the contract without an owner, thereby removing any functionality that is only available to the owner."
      },
      "safeTransferFrom(address,address,uint256)": {
        "details": "See {IERC721-safeTransferFrom}."
      },
      "safeTransferFrom(address,address,uint256,bytes)": {
        "details": "See {IERC721-safeTransferFrom}."
      },
      "setApprovalForAll(address,bool)": {
        "details": "See {IERC721-setApprovalForAll}."
      },
      "symbol()": {
        "details": "See {IERC721Metadata-symbol}."
      },
      "tokenByIndex(uint256)": {
        "details": "See {IERC721Enumerable-tokenByIndex}."
      },
      "tokenOfOwnerByIndex(address,uint256)": {
        "details": "See {IERC721Enumerable-tokenOfOwnerByIndex}."
      },
      "tokenURI(uint256)": {
        "details": "See {IERC721Metadata-tokenURI}."
      },
      "totalSupply()": {
        "details": "See {IERC721Enumerable-totalSupply}."
      },
      "transferFrom(address,address,uint256)": {
        "details": "See {IERC721-transferFrom}."
      },
      "transferOwnership(address)": {
        "details": "Transfers ownership of the contract to a new account (`newOwner`). Can only be called by the current owner."
      }
    },
    "version": 1
  },
  "userdoc": {
    "kind": "user",
    "methods": {},
    "version": 1
  }
}