{
  "contractName": "ERC721RaribleMinimal",
  "abi": [
    {
      "anonymous": false,
      "inputs": [
        {
          "indexed": true,
          "internalType": "address",
          "name": "owner",
          "type": "address"
        },
        {
          "indexed": true,
          "internalType": "address",
          "name": "approved",
          "type": "address"
        },
        {
          "indexed": true,
          "internalType": "uint256",
          "name": "tokenId",
          "type": "uint256"
        }
      ],
      "name": "Approval",
      "type": "event"
    },
    {
      "anonymous": false,
      "inputs": [
        {
          "indexed": true,
          "internalType": "address",
          "name": "owner",
          "type": "address"
        },
        {
          "indexed": true,
          "internalType": "address",
          "name": "operator",
          "type": "address"
        },
        {
          "indexed": false,
          "internalType": "bool",
          "name": "approved",
          "type": "bool"
        }
      ],
      "name": "ApprovalForAll",
      "type": "event"
    },
    {
      "anonymous": false,
      "inputs": [
        {
          "indexed": false,
          "internalType": "string",
          "name": "newBaseURI",
          "type": "string"
        }
      ],
      "name": "BaseUriChanged",
      "type": "event"
    },
    {
      "anonymous": false,
      "inputs": [
        {
          "indexed": false,
          "internalType": "address",
          "name": "owner",
          "type": "address"
        },
        {
          "indexed": false,
          "internalType": "string",
          "name": "name",
          "type": "string"
        },
        {
          "indexed": false,
          "internalType": "string",
          "name": "symbol",
          "type": "string"
        }
      ],
      "name": "CreateERC721Rarible",
      "type": "event"
    },
    {
      "anonymous": false,
      "inputs": [
        {
          "indexed": false,
          "internalType": "address",
          "name": "owner",
          "type": "address"
        },
        {
          "indexed": false,
          "internalType": "string",
          "name": "name",
          "type": "string"
        },
        {
          "indexed": false,
          "internalType": "string",
          "name": "symbol",
          "type": "string"
        }
      ],
      "name": "CreateERC721RaribleUser",
      "type": "event"
    },
    {
      "anonymous": false,
      "inputs": [
        {
          "indexed": false,
          "internalType": "uint256",
          "name": "tokenId",
          "type": "uint256"
        },
        {
          "components": [
            {
              "internalType": "address payable",
              "name": "account",
              "type": "address"
            },
            {
              "internalType": "uint96",
              "name": "value",
              "type": "uint96"
            }
          ],
          "indexed": false,
          "internalType": "struct LibPart.Part[]",
          "name": "creators",
          "type": "tuple[]"
        }
      ],
      "name": "Creators",
      "type": "event"
    },
    {
      "anonymous": false,
      "inputs": [
        {
          "indexed": true,
          "internalType": "address",
          "name": "operator",
          "type": "address"
        },
        {
          "indexed": false,
          "internalType": "bool",
          "name": "hasApproval",
          "type": "bool"
        }
      ],
      "name": "DefaultApproval",
      "type": "event"
    },
    {
      "anonymous": false,
      "inputs": [
        {
          "indexed": true,
          "internalType": "address",
          "name": "minter",
          "type": "address"
        },
        {
          "indexed": true,
          "internalType": "bool",
          "name": "status",
          "type": "bool"
        }
      ],
      "name": "MinterStatusChanged",
      "type": "event"
    },
    {
      "anonymous": false,
      "inputs": [
        {
          "indexed": true,
          "internalType": "address",
          "name": "previousOwner",
          "type": "address"
        },
        {
          "indexed": true,
          "internalType": "address",
          "name": "newOwner",
          "type": "address"
        }
      ],
      "name": "OwnershipTransferred",
      "type": "event"
    },
    {
      "anonymous": false,
      "inputs": [
        {
          "indexed": false,
          "internalType": "uint256",
          "name": "tokenId",
          "type": "uint256"
        },
        {
          "components": [
            {
              "internalType": "address payable",
              "name": "account",
              "type": "address"
            },
            {
              "internalType": "uint96",
              "name": "value",
              "type": "uint96"
            }
          ],
          "indexed": false,
          "internalType": "struct LibPart.Part[]",
          "name": "royalties",
          "type": "tuple[]"
        }
      ],
      "name": "RoyaltiesSet",
      "type": "event"
    },
    {
      "anonymous": false,
      "inputs": [
        {
          "indexed": true,
          "internalType": "address",
          "name": "from",
          "type": "address"
        },
        {
          "indexed": true,
          "internalType": "address",
          "name": "to",
          "type": "address"
        },
        {
          "indexed": true,
          "internalType": "uint256",
          "name": "tokenId",
          "type": "uint256"
        }
      ],
      "name": "Transfer",
      "type": "event"
    },
    {
      "inputs": [
        {
          "internalType": "address",
          "name": "minter",
          "type": "address"
        }
      ],
      "name": "addMinter",
      "outputs": [],
      "stateMutability": "nonpayable",
      "type": "function"
    },
    {
      "inputs": [
        {
          "internalType": "address[]",
          "name": "minters",
          "type": "address[]"
        }
      ],
      "name": "addMinters",
      "outputs": [],
      "stateMutability": "nonpayable",
      "type": "function"
    },
    {
      "inputs": [
        {
          "internalType": "address",
          "name": "to",
          "type": "address"
        },
        {
          "internalType": "uint256",
          "name": "tokenId",
          "type": "uint256"
        }
      ],
      "name": "approve",
      "outputs": [],
      "stateMutability": "nonpayable",
      "type": "function"
    },
    {
      "inputs": [
        {
          "internalType": "address",
          "name": "owner",
          "type": "address"
        }
      ],
      "name": "balanceOf",
      "outputs": [
        {
          "internalType": "uint256",
          "name": "",
          "type": "uint256"
        }
      ],
      "stateMutability": "view",
      "type": "function"
    },
    {
      "inputs": [],
      "name": "baseURI",
      "outputs": [
        {
          "internalType": "string",
          "name": "",
          "type": "string"
        }
      ],
      "stateMutability": "view",
      "type": "function"
    },
    {
      "inputs": [
        {
          "internalType": "uint256",
          "name": "tokenId",
          "type": "uint256"
        }
      ],
      "name": "burn",
      "outputs": [],
      "stateMutability": "nonpayable",
      "type": "function"
    },
    {
      "inputs": [],
      "name": "contractURI",
      "outputs": [
        {
          "internalType": "string",
          "name": "",
          "type": "string"
        }
      ],
      "stateMutability": "view",
      "type": "function"
    },
    {
      "inputs": [
        {
          "internalType": "uint256",
          "name": "tokenId",
          "type": "uint256"
        }
      ],
      "name": "getApproved",
      "outputs": [
        {
          "internalType": "address",
          "name": "",
          "type": "address"
        }
      ],
      "stateMutability": "view",
      "type": "function"
    },
    {
      "inputs": [
        {
          "internalType": "uint256",
          "name": "_id",
          "type": "uint256"
        }
      ],
      "name": "getCreators",
      "outputs": [
        {
          "components": [
            {
              "internalType": "address payable",
              "name": "account",
              "type": "address"
            },
            {
              "internalType": "uint96",
              "name": "value",
              "type": "uint96"
            }
          ],
          "internalType": "struct LibPart.Part[]",
          "name": "",
          "type": "tuple[]"
        }
      ],
      "stateMutability": "view",
      "type": "function"
    },
    {
      "inputs": [
        {
          "internalType": "uint256",
          "name": "id",
          "type": "uint256"
        }
      ],
      "name": "getRaribleV2Royalties",
      "outputs": [
        {
          "components": [
            {
              "internalType": "address payable",
              "name": "account",
              "type": "address"
            },
            {
              "internalType": "uint96",
              "name": "value",
              "type": "uint96"
            }
          ],
          "internalType": "struct LibPart.Part[]",
          "name": "",
          "type": "tuple[]"
        }
      ],
      "stateMutability": "view",
      "type": "function"
    },
    {
      "inputs": [
        {
          "internalType": "address",
          "name": "owner",
          "type": "address"
        },
        {
          "internalType": "address",
          "name": "operator",
          "type": "address"
        }
      ],
      "name": "isApprovedForAll",
      "outputs": [
        {
          "internalType": "bool",
          "name": "",
          "type": "bool"
        }
      ],
      "stateMutability": "view",
      "type": "function"
    },
    {
      "inputs": [
        {
          "internalType": "address",
          "name": "account",
          "type": "address"
        }
      ],
      "name": "isMinter",
      "outputs": [
        {
          "internalType": "bool",
          "name": "",
          "type": "bool"
        }
      ],
      "stateMutability": "view",
      "type": "function"
    },
    {
      "inputs": [],
      "name": "name",
      "outputs": [
        {
          "internalType": "string",
          "name": "",
          "type": "string"
        }
      ],
      "stateMutability": "view",
      "type": "function"
    },
    {
      "inputs": [],
      "name": "owner",
      "outputs": [
        {
          "internalType": "address",
          "name": "",
          "type": "address"
        }
      ],
      "stateMutability": "view",
      "type": "function"
    },
    {
      "inputs": [
        {
          "internalType": "uint256",
          "name": "tokenId",
          "type": "uint256"
        }
      ],
      "name": "ownerOf",
      "outputs": [
        {
          "internalType": "address",
          "name": "",
          "type": "address"
        }
      ],
      "stateMutability": "view",
      "type": "function"
    },
    {
      "inputs": [
        {
          "internalType": "address",
          "name": "_minter",
          "type": "address"
        }
      ],
      "name": "removeMinter",
      "outputs": [],
      "stateMutability": "nonpayable",
      "type": "function"
    },
    {
      "inputs": [],
      "name": "renounceOwnership",
      "outputs": [],
      "stateMutability": "nonpayable",
      "type": "function"
    },
    {
      "inputs": [
        {
          "internalType": "uint256",
          "name": "id",
          "type": "uint256"
        },
        {
          "internalType": "uint256",
          "name": "_salePrice",
          "type": "uint256"
        }
      ],
      "name": "royaltyInfo",
      "outputs": [
        {
          "internalType": "address",
          "name": "receiver",
          "type": "address"
        },
        {
          "internalType": "uint256",
          "name": "royaltyAmount",
          "type": "uint256"
        }
      ],
      "stateMutability": "view",
      "type": "function"
    },
    {
      "inputs": [
        {
          "internalType": "address",
          "name": "from",
          "type": "address"
        },
        {
          "internalType": "address",
          "name": "to",
          "type": "address"
        },
        {
          "internalType": "uint256",
          "name": "tokenId",
          "type": "uint256"
        }
      ],
      "name": "safeTransferFrom",
      "outputs": [],
      "stateMutability": "nonpayable",
      "type": "function"
    },
    {
      "inputs": [
        {
          "internalType": "address",
          "name": "from",
          "type": "address"
        },
        {
          "internalType": "address",
          "name": "to",
          "type": "address"
        },
        {
          "internalType": "uint256",
          "name": "tokenId",
          "type": "uint256"
        },
        {
          "internalType": "bytes",
          "name": "_data",
          "type": "bytes"
        }
      ],
      "name": "safeTransferFrom",
      "outputs": [],
      "stateMutability": "nonpayable",
      "type": "function"
    },
    {
      "inputs": [
        {
          "internalType": "address",
          "name": "operator",
          "type": "address"
        },
        {
          "internalType": "bool",
          "name": "approved",
          "type": "bool"
        }
      ],
      "name": "setApprovalForAll",
      "outputs": [],
      "stateMutability": "nonpayable",
      "type": "function"
    },
    {
      "inputs": [
        {
          "internalType": "string",
          "name": "newBaseURI",
          "type": "string"
        }
      ],
      "name": "setBaseURI",
      "outputs": [],
      "stateMutability": "nonpayable",
      "type": "function"
    },
    {
      "inputs": [
        {
          "internalType": "bytes4",
          "name": "interfaceId",
          "type": "bytes4"
        }
      ],
      "name": "supportsInterface",
      "outputs": [
        {
          "internalType": "bool",
          "name": "",
          "type": "bool"
        }
      ],
      "stateMutability": "view",
      "type": "function"
    },
    {
      "inputs": [],
      "name": "symbol",
      "outputs": [
        {
          "internalType": "string",
          "name": "",
          "type": "string"
        }
      ],
      "stateMutability": "view",
      "type": "function"
    },
    {
      "inputs": [
        {
          "internalType": "uint256",
          "name": "tokenId",
          "type": "uint256"
        }
      ],
      "name": "tokenURI",
      "outputs": [
        {
          "internalType": "string",
          "name": "",
          "type": "string"
        }
      ],
      "stateMutability": "view",
      "type": "function"
    },
    {
      "inputs": [
        {
          "internalType": "address",
          "name": "from",
          "type": "address"
        },
        {
          "internalType": "address",
          "name": "to",
          "type": "address"
        },
        {
          "internalType": "uint256",
          "name": "tokenId",
          "type": "uint256"
        }
      ],
      "name": "transferFrom",
      "outputs": [],
      "stateMutability": "nonpayable",
      "type": "function"
    },
    {
      "inputs": [
        {
          "components": [
            {
              "internalType": "uint256",
              "name": "tokenId",
              "type": "uint256"
            },
            {
              "internalType": "string",
              "name": "tokenURI",
              "type": "string"
            },
            {
              "components": [
                {
                  "internalType": "address payable",
                  "name": "account",
                  "type": "address"
                },
                {
                  "internalType": "uint96",
                  "name": "value",
                  "type": "uint96"
                }
              ],
              "internalType": "struct LibPart.Part[]",
              "name": "creators",
              "type": "tuple[]"
            },
            {
              "components": [
                {
                  "internalType": "address payable",
                  "name": "account",
                  "type": "address"
                },
                {
                  "internalType": "uint96",
                  "name": "value",
                  "type": "uint96"
                }
              ],
              "internalType": "struct LibPart.Part[]",
              "name": "royalties",
              "type": "tuple[]"
            },
            {
              "internalType": "bytes[]",
              "name": "signatures",
              "type": "bytes[]"
            }
          ],
          "internalType": "struct LibERC721LazyMint.Mint721Data",
          "name": "data",
          "type": "tuple"
        },
        {
          "internalType": "address",
          "name": "from",
          "type": "address"
        },
        {
          "internalType": "address",
          "name": "to",
          "type": "address"
        }
      ],
      "name": "transferFromOrMint",
      "outputs": [],
      "stateMutability": "nonpayable",
      "type": "function"
    },
    {
      "inputs": [
        {
          "internalType": "address",
          "name": "newOwner",
          "type": "address"
        }
      ],
      "name": "transferOwnership",
      "outputs": [],
      "stateMutability": "nonpayable",
      "type": "function"
    },
    {
      "inputs": [
        {
          "internalType": "uint256",
          "name": "_id",
          "type": "uint256"
        },
        {
          "internalType": "address",
          "name": "_from",
          "type": "address"
        },
        {
          "internalType": "address",
          "name": "_to",
          "type": "address"
        }
      ],
      "name": "updateAccount",
      "outputs": [],
      "stateMutability": "nonpayable",
      "type": "function"
    },
    {
      "inputs": [
        {
          "internalType": "string",
          "name": "_name",
          "type": "string"
        },
        {
          "internalType": "string",
          "name": "_symbol",
          "type": "string"
        },
        {
          "internalType": "string",
          "name": "baseURI",
          "type": "string"
        },
        {
          "internalType": "string",
          "name": "contractURI",
          "type": "string"
        },
        {
          "internalType": "address[]",
          "name": "operators",
          "type": "address[]"
        },
        {
          "internalType": "address",
          "name": "transferProxy",
          "type": "address"
        },
        {
          "internalType": "address",
          "name": "lazyTransferProxy",
          "type": "address"
        }
      ],
      "name": "__ERC721RaribleUser_init",
      "outputs": [],
      "stateMutability": "nonpayable",
      "type": "function"
    },
    {
      "inputs": [
        {
          "internalType": "string",
          "name": "_name",
          "type": "string"
        },
        {
          "internalType": "string",
          "name": "_symbol",
          "type": "string"
        },
        {
          "internalType": "string",
          "name": "baseURI",
          "type": "string"
        },
        {
          "internalType": "string",
          "name": "contractURI",
          "type": "string"
        },
        {
          "internalType": "address",
          "name": "transferProxy",
          "type": "address"
        },
        {
          "internalType": "address",
          "name": "lazyTransferProxy",
          "type": "address"
        }
      ],
      "name": "__ERC721Rarible_init",
      "outputs": [],
      "stateMutability": "nonpayable",
      "type": "function"
    },
    {
      "inputs": [
        {
          "components": [
            {
              "internalType": "uint256",
              "name": "tokenId",
              "type": "uint256"
            },
            {
              "internalType": "string",
              "name": "tokenURI",
              "type": "string"
            },
            {
              "components": [
                {
                  "internalType": "address payable",
                  "name": "account",
                  "type": "address"
                },
                {
                  "internalType": "uint96",
                  "name": "value",
                  "type": "uint96"
                }
              ],
              "internalType": "struct LibPart.Part[]",
              "name": "creators",
              "type": "tuple[]"
            },
            {
              "components": [
                {
                  "internalType": "address payable",
                  "name": "account",
                  "type": "address"
                },
                {
                  "internalType": "uint96",
                  "name": "value",
                  "type": "uint96"
                }
              ],
              "internalType": "struct LibPart.Part[]",
              "name": "royalties",
              "type": "tuple[]"
            },
            {
              "internalType": "bytes[]",
              "name": "signatures",
              "type": "bytes[]"
            }
          ],
          "internalType": "struct LibERC721LazyMint.Mint721Data",
          "name": "data",
          "type": "tuple"
        },
        {
          "internalType": "address",
          "name": "to",
          "type": "address"
        }
      ],
      "name": "mintAndTransfer",
      "outputs": [],
      "stateMutability": "nonpayable",
      "type": "function"
    }
  ],
  "bytecode": "0x608060405234801561001057600080fd5b50614913806100206000396000f3fe608060405234801561001057600080fd5b50600436106101f05760003560e01c8063715018a61161010f578063aa271e1a116100a2578063e07f231911610071578063e07f23191461042c578063e8a3d4851461043f578063e985e9c514610447578063f2fde38b1461045a576101f0565b8063aa271e1a146103e0578063b88d4fde146103f3578063c87b56dd14610406578063cad96cca14610419576101f0565b80638da5cb5b116100de5780638da5cb5b146103aa57806395d89b41146103b2578063983b2d56146103ba578063a22cb465146103cd576101f0565b8063715018a61461035c57806371e2a65714610364578063832fbb2914610377578063891be9741461038a576101f0565b80633db397c61161018757806355f804b31161015657806355f804b31461030e5780636352211e146103215780636c0360eb1461033457806370a082311461033c576101f0565b80633db397c6146102c257806342842e0e146102d557806342966c68146102e85780634648eb9d146102fb576101f0565b806322a775b6116101c357806322a775b61461026857806323b872dd1461027b5780632a55205a1461028e5780633092afd5146102af576101f0565b806301ffc9a7146101f557806306fdde031461021e578063081812fc14610233578063095ea7b314610253575b600080fd5b610208610203366004613f2e565b61046d565b6040516102159190614357565b60405180910390f35b610226610480565b6040516102159190614362565b6102466102413660046141e0565b610516565b60405161021591906142e1565b610266610261366004613ed1565b610579565b005b61026661027636600461413b565b61064f565b610266610289366004613df7565b6106f1565b6102a161029c36600461421e565b610748565b60405161021592919061432b565b6102666102bd366004613da3565b610856565b6102666102d0366004613f88565b610906565b6102666102e3366004613df7565b610969565b6102666102f63660046141e0565b610984565b61026661030936600461404f565b610a4e565b61026661031c366004613f56565b610ab5565b61024661032f3660046141e0565b610b5a565b610226610bae565b61034f61034a366004613da3565b610c10565b60405161021591906144fd565b610266610c74565b610266610372366004613efc565b610d20565b61026661038536600461417f565b610e05565b61039d6103983660046141e0565b610e33565b6040516102159190614344565b610246610ec3565b610226610ed2565b6102666103c8366004613da3565b610f33565b6102666103db366004613ea0565b610fe8565b6102086103ee366004613da3565b6110ee565b610266610401366004613e37565b61110d565b6102266104143660046141e0565b61116b565b61039d6104273660046141e0565b611176565b61026661043a3660046141f8565b6111f1565b610226611234565b610208610455366004613dbf565b6112c3565b610266610468366004613da3565b6112d8565b6000610478826113db565b90505b919050565b60fd8054604080516020601f600260001961010060018816150201909516949094049384018190048102820181019092528281526060939092909183018282801561050c5780601f106104e15761010080835404028352916020019161050c565b820191906000526020600020905b8154815290600101906020018083116104ef57829003601f168201915b5050505050905090565b600061052182611495565b61055c5760405162461bcd60e51b815260040180806020018281038252602c815260200180614747602c913960400191505060405180910390fd5b50600090815261010160205260409020546001600160a01b031690565b600061058482610b5a565b9050806001600160a01b0316836001600160a01b031614156105d75760405162461bcd60e51b81526004018080602001828103825260218152602001806148376021913960400191505060405180910390fd5b806001600160a01b03166105e96114b2565b6001600160a01b031614806106055750610605816104556114b2565b6106405760405162461bcd60e51b815260040180806020018281038252603881526020018061463f6038913960400191505060405180910390fd5b61064a83836114b6565b505050565b6102925460ff16156106e357816040015160008151811061066c57fe5b6020026020010151600001516001600160a01b0316610689610ec3565b6001600160a01b031614806106be57506106be82604001516000815181106106ad57fe5b6020026020010151600001516110ee565b6106e35760405162461bcd60e51b81526004016106da90614375565b60405180910390fd5b6106ed8282611525565b5050565b6107026106fc6114b2565b826116a7565b61073d5760405162461bcd60e51b81526004018080602001828103825260318152602001806148586031913960400191505060405180910390fd5b61064a8383836116b3565b60008281526101c6602052604081205481906107695750600090508061084f565b60008481526101c66020908152604080832080548251818502810185019093528083529192909190849084015b828210156107e557600084815260209081902060408051808201909152908401546001600160a01b0381168252600160a01b90046001600160601b031681830152825260019092019101610796565b505050509050806000815181106107f857fe5b60209081029190910101515192506000805b82518110156108435782818151811061081f57fe5b6020026020010151602001516001600160601b03168201915080600101905061080a565b50612710908502049150505b9250929050565b61085e6114b2565b6001600160a01b031661086f610ec3565b6001600160a01b0316146108b8576040805162461bcd60e51b8152602060048201819052602482015260008051602061479f833981519152604482015290519081900360640190fd5b6001600160a01b03811660008181526102c46020526040808220805460ff19169055519091907f3042b80e435ae46c334b2cfec51a66d64c9a8a8af4cd0c279a124c35a09e91dd908390a350565b6109148686868686866117d2565b610292805460ff191690557ff05e55f0a9d205977ca8cc02236338b6a361376f404cf0b3019b2111964a01fd6109486114b2565b8787604051610959939291906142f5565b60405180910390a1505050505050565b61064a8383836040518060200160405280600081525061110d565b61098d81611495565b6109fc57606081901c61099e6114b2565b6001600160a01b0316816001600160a01b0316146109ed5760405162461bcd60e51b815260040180806020018281038252602d81526020018061471a602d913960400191505060405180910390fd5b6109f6826118ec565b50610a4b565b610a076106fc6114b2565b610a425760405162461bcd60e51b81526004018080602001828103825260308152602001806148ae6030913960400191505060405180910390fd5b610a4b81611908565b50565b610a5c8787878786866117d2565b610292805460ff191660011790557fd901a467fa419f379a67636a1de44cc2ed772beb43a0c05fa1ddcad5d59e9913610a936114b2565b8888604051610aa4939291906142f5565b60405180910390a150505050505050565b610abd6114b2565b6001600160a01b0316610ace610ec3565b6001600160a01b031614610b17576040805162461bcd60e51b8152602060048201819052602482015260008051602061479f833981519152604482015290519081900360640190fd5b610b20816119a4565b7f87cdeaffd8e70903d6ce7cc983fac3b09ca79e83818124c98e47a1d70f8027d681604051610b4f9190614362565b60405180910390a150565b600081815260ff60205260408120546001600160a01b0316806104785760405162461bcd60e51b81526004018080602001828103825260298152602001806146a16029913960400191505060405180910390fd5b6101c88054604080516020601f600260001961010060018816150201909516949094049384018190048102820181019092528281526060939092909183018282801561050c5780601f106104e15761010080835404028352916020019161050c565b60006001600160a01b038216610c575760405162461bcd60e51b815260040180806020018281038252602a815260200180614677602a913960400191505060405180910390fd5b506001600160a01b03166000908152610100602052604090205490565b610c7c6114b2565b6001600160a01b0316610c8d610ec3565b6001600160a01b031614610cd6576040805162461bcd60e51b8152602060048201819052602482015260008051602061479f833981519152604482015290519081900360640190fd5b6033546040516000916001600160a01b0316907f8be0079c531659141344cd1fd0a4f28419497f9722a3daafe3b4186f6b6457e0908390a3603380546001600160a01b0319169055565b610d286114b2565b6001600160a01b0316610d39610ec3565b6001600160a01b031614610d82576040805162461bcd60e51b8152602060048201819052602482015260008051602061479f833981519152604482015290519081900360640190fd5b60005b81518110156106ed576000828281518110610d9c57fe5b6020908102919091018101516001600160a01b03811660008181526102c49093526040808420805460ff1916600190811790915590519294509290917f3042b80e435ae46c334b2cfec51a66d64c9a8a8af4cd0c279a124c35a09e91dd9190a350600101610d85565b8251610e1090611495565b15610e2957610e2482828560000151610969565b61064a565b61064a838261064f565b60606101fb6000838152602001908152602001600020805480602002602001604051908101604052809291908181526020016000905b82821015610eb857600084815260209081902060408051808201909152908401546001600160a01b0381168252600160a01b90046001600160601b031681830152825260019092019101610e69565b505050509050919050565b6033546001600160a01b031690565b60fe8054604080516020601f600260001961010060018816150201909516949094049384018190048102820181019092528281526060939092909183018282801561050c5780601f106104e15761010080835404028352916020019161050c565b610f3b6114b2565b6001600160a01b0316610f4c610ec3565b6001600160a01b031614610f95576040805162461bcd60e51b8152602060048201819052602482015260008051602061479f833981519152604482015290519081900360640190fd5b6001600160a01b03811660008181526102c46020526040808220805460ff1916600190811790915590519092917f3042b80e435ae46c334b2cfec51a66d64c9a8a8af4cd0c279a124c35a09e91dd91a350565b610ff06114b2565b6001600160a01b0316826001600160a01b03161415611056576040805162461bcd60e51b815260206004820152601960248201527f4552433732313a20617070726f766520746f2063616c6c657200000000000000604482015290519081900360640190fd5b8061010260006110646114b2565b6001600160a01b03908116825260208083019390935260409182016000908120918716808252919093529120805460ff1916921515929092179091556110a86114b2565b6001600160a01b03167f17307eab39ab6107e8899845ad3d59bd9653f200f220920489ca2b5937696c318360405180821515815260200191505060405180910390a35050565b6001600160a01b031660009081526102c4602052604090205460ff1690565b61111e6111186114b2565b836116a7565b6111595760405162461bcd60e51b81526004018080602001828103825260318152602001806148586031913960400191505060405180910390fd5b611165848484846119b8565b50505050565b606061047882611a0a565b60008181526101c660209081526040808320805482518185028101850190935280835260609492939192909184018215610eb857600084815260209081902060408051808201909152908401546001600160a01b0381168252600160a01b90046001600160601b031681830152825260019092019101610e69565b816001600160a01b03166112036114b2565b6001600160a01b0316146112295760405162461bcd60e51b81526004016106da90614402565b61064a838383611a15565b61022e805460408051602060026001851615610100026000190190941693909304601f810184900484028201840190925281815292918301828280156112bb5780601f10611290576101008083540402835291602001916112bb565b820191906000526020600020905b81548152906001019060200180831161129e57829003601f168201915b505050505081565b60006112cf8383611ac1565b90505b92915050565b6112e06114b2565b6001600160a01b03166112f1610ec3565b6001600160a01b03161461133a576040805162461bcd60e51b8152602060048201819052602482015260008051602061479f833981519152604482015290519081900360640190fd5b6001600160a01b03811661137f5760405162461bcd60e51b81526004018080602001828103825260268152602001806145a76026913960400191505060405180910390fd5b6033546040516001600160a01b038084169216907f8be0079c531659141344cd1fd0a4f28419497f9722a3daafe3b4186f6b6457e090600090a3603380546001600160a01b0319166001600160a01b0392909216919091179055565b60006001600160e01b03198216638486f69f60e01b148061140c57506001600160e01b0319821663656cb66560e11b145b8061142757506001600160e01b0319821663152a902d60e11b145b8061144257506001600160e01b031982166301ffc9a760e01b145b8061145d57506001600160e01b031982166380ac58cd60e01b145b8061147857506001600160e01b03198216635b5e139f60e01b145b806104785750506001600160e01b03191663780e9d6360e01b1490565b600090815260ff60205260409020546001600160a01b0316151590565b3390565b60008181526101016020526040902080546001600160a01b0319166001600160a01b03841690811790915581906114ec82610b5a565b6001600160a01b03167f8c5be1e5ebec7d5bd14f71427d1e84f3dd0314c0f7b2291e5b200ac8c7c3b92560405160405180910390a45050565b815160601c60006115346114b2565b9050836040015160008151811061154757fe5b6020026020010151600001516001600160a01b0316826001600160a01b0316146115835760405162461bcd60e51b81526004016106da906143d7565b8360800151518460400151511461159957600080fd5b806001600160a01b0316826001600160a01b031614806115be57506115be82826112c3565b6115da5760405162461bcd60e51b81526004016106da9061445e565b60006115e585611aee565b905060005b85604001515181101561165b5760008660400151828151811061160957fe5b6020026020010151600001519050836001600160a01b0316816001600160a01b0316146116525761165281848960800151858151811061164557fe5b6020026020010151611d35565b506001016115ea565b5061166a848660000151611d40565b61167c85600001518660600151611d5a565b61168e85600001518660400151611f49565b6116a0856000015186602001516120f8565b5050505050565b60006112cf838361215c565b826001600160a01b03166116c682610b5a565b6001600160a01b03161461170b5760405162461bcd60e51b81526004018080602001828103825260298152602001806147bf6029913960400191505060405180910390fd5b6001600160a01b0382166117505760405162461bcd60e51b81526004018080602001828103825260248152602001806145cd6024913960400191505060405180910390fd5b61175b83838361064a565b6117666000826114b6565b6001600160a01b0380841660008181526101006020908152604080832080546000190190559386168083528483208054600101905585835260ff90915283822080546001600160a01b0319168217905592518493929160008051602061481783398151915291a4505050565b600054610100900460ff16806117eb57506117eb612189565b806117f9575060005460ff16155b6118345760405162461bcd60e51b815260040180806020018281038252602e8152602001806146ca602e913960400191505060405180910390fd5b600054610100900460ff1615801561185f576000805460ff1961ff0019909116610100171660011790555b611868856119a4565b61187061219a565b61187861223b565b61188061219a565b6118886122d8565b611890612375565b61189861219a565b6118a061246e565b6118a861219a565b6118b18461253d565b6118bb8787612604565b6118c68360016126ef565b6118d18260016126ef565b80156118e3576000805461ff00191690555b50505050505050565b600090815261010360205260409020805460ff19166001179055565b600061191382610b5a565b90506119218160008461064a565b61192c6000836114b6565b61193582612750565b6001600160a01b038116600090815261010060209081526040808320805460001901905584835260ff909152902080546001600160a01b031916905561197a826118ec565b60405182906000906001600160a01b03841690600080516020614817833981519152908390a45050565b80516106ed906101c8906020840190613a0b565b6119c38484846116b3565b6119cf84848484612759565b6111655760405162461bcd60e51b81526004018080602001828103825260328152602001806145756032913960400191505060405180910390fd5b60606104788261290f565b60008381526101c66020526040812054905b818110156116a05760008581526101c66020526040902080546001600160a01b038616919083908110611a5657fe5b6000918252602090912001546001600160a01b03161415611ab95760008581526101c660205260409020805484919083908110611a8f57fe5b600091825260209091200180546001600160a01b0319166001600160a01b03929092169190911790555b600101611a27565b6001600160a01b038116600090815261012f602052604081205460ff16806112cf57506112cf8383612aea565b6000808260600151516001600160401b0381118015611b0c57600080fd5b50604051908082528060200260200182016040528015611b36578160200160208202803683370190505b50905060005b836060015151811015611b8857611b6984606001518281518110611b5c57fe5b6020026020010151612b19565b828281518110611b7557fe5b6020908102919091010152600101611b3c565b5060008360400151516001600160401b0381118015611ba657600080fd5b50604051908082528060200260200182016040528015611bd0578160200160208202803683370190505b50905060005b846040015151811015611c1557611bf685604001518281518110611b5c57fe5b828281518110611c0257fe5b6020908102919091010152600101611bd6565b507ff64326045af5fd7e15297ba939f85b550474d3899daa47d2bc1ffbdb9ced344e84600001518560200151805190602001208360405160200180828051906020019060200280838360005b83811015611c79578181015183820152602001611c61565b50505050905001915050604051602081830303815290604052805190602001208560405160200180828051906020019060200280838360005b83811015611cca578181015183820152602001611cb2565b505050509050019150506040516020818303038152906040528051906020012060405160200180868152602001858152602001848152602001838152602001828152602001955050505050506040516020818303038152906040528051906020012092505050919050565b61064a838383612b86565b6106ed828260405180602001604052806000815250612e05565b6000805b8251811015611efe5760006001600160a01b0316838281518110611d7e57fe5b6020026020010151600001516001600160a01b03161415611de6576040805162461bcd60e51b815260206004820152601b60248201527f526563697069656e742073686f756c642062652070726573656e740000000000604482015290519081900360640190fd5b828181518110611df257fe5b6020026020010151602001516001600160601b031660001415611e5c576040805162461bcd60e51b815260206004820181905260248201527f526f79616c74792076616c75652073686f756c6420626520706f736974697665604482015290519081900360640190fd5b828181518110611e6857fe5b6020026020010151602001516001600160601b0316820191506101c66000858152602001908152602001600020838281518110611ea157fe5b60209081029190910181015182546001818101855560009485529383902082519101805492909301516001600160601b0316600160a01b026001600160a01b039182166001600160a01b0319909316929092171617905501611d5e565b506127108110611f3f5760405162461bcd60e51b81526004018080602001828103825260258152602001806148896025913960400191505060405180910390fd5b61064a8383612e57565b60008281526101fb6020526040812090805b83518110156120975760006001600160a01b0316848281518110611f7b57fe5b6020026020010151600001516001600160a01b03161415611fae5760405162461bcd60e51b81526004016106da90614427565b838181518110611fba57fe5b6020026020010151602001516001600160601b031660001415611fef5760405162461bcd60e51b81526004016106da906143a2565b82848281518110611ffc57fe5b602090810291909101810151825460018101845560009384529282902081519301805491909201516001600160601b0316600160a01b026001600160a01b039384166001600160a01b031990921691909117909216919091179055835161208d9085908390811061206957fe5b6020026020010151602001516001600160601b031683612e9490919063ffffffff16565b9150600101611f5b565b5080612710146120b95760405162461bcd60e51b81526004016106da906144af565b7f841ffb90d4cabdd1f16034f3fa831d79060febbb8167bdd54a49269365bdf78f84846040516120ea929190614506565b60405180910390a150505050565b61210182611495565b61213c5760405162461bcd60e51b815260040180806020018281038252602c815260200180614773602c913960400191505060405180910390fd5b60008281526101c760209081526040909120825161064a92840190613a0b565b6001600160a01b038216600090815261012f602052604081205460ff16806112cf57506112cf8383612eee565b600061219430612f8a565b15905090565b600054610100900460ff16806121b357506121b3612189565b806121c1575060005460ff16155b6121fc5760405162461bcd60e51b815260040180806020018281038252602e8152602001806146ca602e913960400191505060405180910390fd5b600054610100900460ff16158015612227576000805460ff1961ff0019909116610100171660011790555b8015610a4b576000805461ff001916905550565b600054610100900460ff16806122545750612254612189565b80612262575060005460ff16155b61229d5760405162461bcd60e51b815260040180806020018281038252602e8152602001806146ca602e913960400191505060405180910390fd5b600054610100900460ff161580156122c8576000805460ff1961ff0019909116610100171660011790555b61222763656cb66560e11b612f90565b600054610100900460ff16806122f157506122f1612189565b806122ff575060005460ff16155b61233a5760405162461bcd60e51b815260040180806020018281038252602e8152602001806146ca602e913960400191505060405180910390fd5b600054610100900460ff16158015612365576000805460ff1961ff0019909116610100171660011790555b6122276301ffc9a760e01b612f90565b600054610100900460ff168061238e575061238e612189565b8061239c575060005460ff16155b6123d75760405162461bcd60e51b815260040180806020018281038252602e8152602001806146ca602e913960400191505060405180910390fd5b600054610100900460ff16158015612402576000805460ff1961ff0019909116610100171660011790555b600061240c6114b2565b603380546001600160a01b0319166001600160a01b038316908117909155604051919250906000907f8be0079c531659141344cd1fd0a4f28419497f9722a3daafe3b4186f6b6457e0908290a3508015610a4b576000805461ff001916905550565b600054610100900460ff16806124875750612487612189565b80612495575060005460ff16155b6124d05760405162461bcd60e51b815260040180806020018281038252602e8152602001806146ca602e913960400191505060405180910390fd5b600054610100900460ff161580156124fb576000805460ff1961ff0019909116610100171660011790555b612227604051806040016040528060078152602001664d696e7437323160c81b815250604051806040016040528060018152602001603160f81b815250613014565b600054610100900460ff16806125565750612556612189565b80612564575060005460ff16155b61259f5760405162461bcd60e51b815260040180806020018281038252602e8152602001806146ca602e913960400191505060405180910390fd5b600054610100900460ff161580156125ca576000805460ff1961ff0019909116610100171660011790555b81516125de9061022e906020850190613a0b565b506125ef63e8a3d48560e01b612f90565b80156106ed576000805461ff00191690555050565b600054610100900460ff168061261d575061261d612189565b8061262b575060005460ff16155b6126665760405162461bcd60e51b815260040180806020018281038252602e8152602001806146ca602e913960400191505060405180910390fd5b600054610100900460ff16158015612691576000805460ff1961ff0019909116610100171660011790555b82516126a49060fd906020860190613a0b565b5081516126b89060fe906020850190613a0b565b506126c96380ac58cd60e01b612f90565b6126d9635b5e139f60e01b612f90565b801561064a576000805461ff0019169055505050565b6001600160a01b038216600081815261012f6020908152604091829020805460ff1916851515908117909155825190815291517f270dbb8ba4292910ae92862466486be25c355c837270a3d8824b36a8bc7c653b9281900390910190a25050565b610a4b816130d4565b600061276d846001600160a01b0316612f8a565b1561290357836001600160a01b031663150b7a026127896114b2565b8786866040518563ffffffff1660e01b815260040180856001600160a01b03168152602001846001600160a01b0316815260200183815260200180602001828103825283818151815260200191508051906020019080838360005b838110156127fc5781810151838201526020016127e4565b50505050905090810190601f1680156128295780820380516001836020036101000a031916815260200191505b5095505050505050602060405180830381600087803b15801561284b57600080fd5b505af192505050801561287057506040513d602081101561286b57600080fd5b505160015b6128e9573d80801561289e576040519150601f19603f3d011682016040523d82523d6000602084013e6128a3565b606091505b5080516128e15760405162461bcd60e51b81526004018080602001828103825260328152602001806145756032913960400191505060405180910390fd5b805181602001fd5b6001600160e01b031916630a85bd0160e11b149050612907565b5060015b949350505050565b606061291a82611495565b6129555760405162461bcd60e51b815260040180806020018281038252602f8152602001806147e8602f913960400191505060405180910390fd5b60008281526101c7602090815260408083208054825160026001831615610100026000190190921691909104601f8101859004850282018501909352828152929091908301828280156129e95780601f106129be576101008083540402835291602001916129e9565b820191906000526020600020905b8154815290600101906020018083116129cc57829003601f168201915b5050505050905060006129fa610bae565b9050805160001415612a0e5750905061047b565b815115612a2857612a1f81836130dd565b9250505061047b565b80612a32856132c2565b6040516020018083805190602001908083835b60208310612a645780518252601f199092019160209182019101612a45565b51815160209384036101000a600019018019909216911617905285519190930192850191508083835b60208310612aac5780518252601f199092019160209182019101612a8d565b6001836020036101000a0380198251168184511680821785525050505050509050019250505060405160208183030381529060405292505050919050565b6001600160a01b0391821660009081526101026020908152604080832093909416825291909152205460ff1690565b8051602091820151604080517f397e04204c1e1a60ee8724b71f8244e10ab5f2e9009854d80f602bda21b59ebb818601526001600160a01b03909316838201526001600160601b039091166060808401919091528151808403909101815260809092019052805191012090565b6000612b918361339c565b90506000825160411415612bac57612ba982846133e8565b90505b846001600160a01b0316816001600160a01b0316146116a057612bd7856001600160a01b0316612f8a565b15612d8d5760408051630b135d3f60e11b808252600482018581526024830193845286516044840152865191936001600160a01b038a1693631626ba7e9388938a9390929091606490910190602085019080838360005b83811015612c46578181015183820152602001612c2e565b50505050905090810190601f168015612c735780820380516001836020036101000a031916815260200191505b50935050505060206040518083038186803b158015612c9157600080fd5b505afa158015612ca5573d6000803e3d6000fd5b505050506040513d6020811015612cbb57600080fd5b505160408051808201909152601c81527f7369676e617475726520766572696669636174696f6e206572726f72000000006020820152916001600160e01b031990911614612d875760405162461bcd60e51b81526004018080602001828103825283818151815260200191508051906020019080838360005b83811015612d4c578181015183820152602001612d34565b50505050905090810190601f168015612d795780820380516001836020036101000a031916815260200191505b509250505060405180910390fd5b506116a0565b604080518082018252601c81527f7369676e617475726520766572696669636174696f6e206572726f72000000006020808301918252925162461bcd60e51b81526004810193845282516024820152825192939283926044909201919080838360008315612d4c578181015183820152602001612d34565b612e0f8383613468565b612e1c6000848484612759565b61064a5760405162461bcd60e51b81526004018080602001828103825260328152602001806145756032913960400191505060405180910390fd5b7f3fa96d7b6bcbfe71ef171666d84db3cf52fa2d1c8afdb1cc8e486177f208b7df8282604051612e88929190614506565b60405180910390a15050565b6000828201838110156112cf576040805162461bcd60e51b815260206004820152601b60248201527f536166654d6174683a206164646974696f6e206f766572666c6f770000000000604482015290519081900360640190fd5b6000612ef982611495565b612f345760405162461bcd60e51b815260040180806020018281038252602c815260200180614613602c913960400191505060405180910390fd5b6000612f3f83610b5a565b9050806001600160a01b0316846001600160a01b03161480612f7a5750836001600160a01b0316612f6f84610516565b6001600160a01b0316145b80612907575061290781856112c3565b3b151590565b6001600160e01b03198082161415612fef576040805162461bcd60e51b815260206004820152601c60248201527f4552433136353a20696e76616c696420696e7465726661636520696400000000604482015290519081900360640190fd5b6001600160e01b0319166000908152606560205260409020805460ff19166001179055565b600054610100900460ff168061302d575061302d612189565b8061303b575060005460ff16155b6130765760405162461bcd60e51b815260040180806020018281038252602e8152602001806146ca602e913960400191505060405180910390fd5b600054610100900460ff161580156130a1576000805460ff1961ff0019909116610100171660011790555b8251602080850191909120835191840191909120609791909155609855801561064a576000805461ff0019169055505050565b610a4b816135ce565b805182516060918491849110156131a85784846040516020018083805190602001908083835b602083106131225780518252601f199092019160209182019101613103565b51815160209384036101000a600019018019909216911617905285519190930192850191508083835b6020831061316a5780518252601f19909201916020918201910161314b565b6001836020036101000a03801982511681845116808217855250505050505090500192505050604051602081830303815290604052925050506112d2565b60005b82518110156132b8578281815181106131c057fe5b602001015160f81c60f81b6001600160f81b0319168282815181106131e157fe5b01602001516001600160f81b031916146132b05785856040516020018083805190602001908083835b602083106132295780518252601f19909201916020918201910161320a565b51815160209384036101000a600019018019909216911617905285519190930192850191508083835b602083106132715780518252601f199092019160209182019101613252565b6001836020036101000a0380198251168184511680821785525050505050509050019250505060405160208183030381529060405293505050506112d2565b6001016131ab565b5092949350505050565b6060816132e757506040805180820190915260018152600360fc1b602082015261047b565b8160005b81156132ff57600101600a820491506132eb565b6000816001600160401b038111801561331757600080fd5b506040519080825280601f01601f191660200182016040528015613342576020820181803683370190505b50859350905060001982015b831561339357600a840660300160f81b8282806001900393508151811061337157fe5b60200101906001600160f81b031916908160001a905350600a8404935061334e565b50949350505050565b60006133a661360e565b82604051602001808061190160f01b81525060020183815260200182815260200192505050604051602081830303815290604052805190602001209050919050565b60008151604114613440576040805162461bcd60e51b815260206004820152601f60248201527f45434453413a20696e76616c6964207369676e6174757265206c656e67746800604482015290519081900360640190fd5b60208201516040830151606084015160001a61345e8682858561364e565b9695505050505050565b6001600160a01b0382166134c3576040805162461bcd60e51b815260206004820181905260248201527f4552433732313a206d696e7420746f20746865207a65726f2061646472657373604482015290519081900360640190fd5b6000818152610103602052604090205460ff161561351f576040805162461bcd60e51b81526020600482015260146024820152731d1bdad95b88185b1c9958591e48189d5c9b995960621b604482015290519081900360640190fd5b61352881611495565b1561357a576040805162461bcd60e51b815260206004820152601c60248201527f4552433732313a20746f6b656e20616c7265616479206d696e74656400000000604482015290519081900360640190fd5b6135866000838361064a565b6001600160a01b0382166000818152610100602090815260408083208054600101905584835260ff909152902080546001600160a01b03191690911790556106ed82826138a4565b60008181526101c760205260409020546002600019610100600184161502019091160415610a4b5760008181526101c760205260408120610a4b91613a97565b60006136497f8b73c3c69bb8fe3d512ecc4cf759cc79239f7b179b0ffacaa9a75d522b39400f61363c6138ae565b6136446138b4565b6138ba565b905090565b60007f7fffffffffffffffffffffffffffffff5d576e7357a4501ddfe92f46681b20a08211156136af5760405162461bcd60e51b81526004018080602001828103825260228152602001806145f16022913960400191505060405180910390fd5b6000601e8560ff161115613789576004850360ff16601b14806136d857506004850360ff16601c145b6137135760405162461bcd60e51b81526004018080602001828103825260228152602001806146f86022913960400191505060405180910390fd5b600161371e8761391c565b60048703868660405160008152602001604052604051808581526020018460ff1681526020018381526020018281526020019450505050506020604051602081039080840390855afa158015613778573d6000803e3d6000fd5b505050602060405103519050613840565b8460ff16601b148061379e57508460ff16601c145b6137d95760405162461bcd60e51b81526004018080602001828103825260228152602001806146f86022913960400191505060405180910390fd5b60018686868660405160008152602001604052604051808581526020018460ff1681526020018381526020018281526020019450505050506020604051602081039080840390855afa158015613833573d6000803e3d6000fd5b5050506020604051035190505b6001600160a01b03811661389b576040805162461bcd60e51b815260206004820152601860248201527f45434453413a20696e76616c6964207369676e61747572650000000000000000604482015290519081900360640190fd5b95945050505050565b6106ed828261396d565b60975490565b60985490565b60008383836138c7613a07565b3060405160200180868152602001858152602001848152602001838152602001826001600160a01b03168152602001955050505050506040516020818303038152906040528051906020012090509392505050565b604080517f19457468657265756d205369676e6564204d6573736167653a0a333200000000602080830191909152603c8083019490945282518083039094018452605c909101909152815191012090565b606081901c6001600160a01b03831681146139dc5760405182906001600160a01b03831690600090600080516020614817833981519152908290a481836001600160a01b0316826001600160a01b031660008051602061481783398151915260405160405180910390a461064a565b60405182906001600160a01b03851690600090600080516020614817833981519152908290a4505050565b4690565b828054600181600116156101000203166002900490600052602060002090601f016020900481019282613a415760008555613a87565b82601f10613a5a57805160ff1916838001178555613a87565b82800160010185558215613a87579182015b82811115613a87578251825591602001919060010190613a6c565b50613a93929150613ad7565b5090565b50805460018160011615610100020316600290046000825580601f10613abd5750610a4b565b601f016020900490600052602060002090810190610a4b91905b5b80821115613a935760008155600101613ad8565b803561047b8161455f565b600082601f830112613b07578081fd5b81356020613b1c613b1783614542565b61451f565b8281528181019085830183850287018401881015613b38578586fd5b855b85811015613b5f578135613b4d8161455f565b84529284019290840190600101613b3a565b5090979650505050505050565b600082601f830112613b7c578081fd5b81356020613b8c613b1783614542565b82815281810190858301855b85811015613b5f57613baf898684358b0101613c7c565b84529284019290840190600101613b98565b600082601f830112613bd1578081fd5b81356020613be1613b1783614542565b82815281810190858301604080860288018501891015613bff578687fd5b865b86811015613c6e5781838b031215613c17578788fd5b81518281018181106001600160401b0382111715613c3157fe5b83528335613c3e8161455f565b8152838701356001600160601b0381168114613c5857898afd5b8188015285529385019391810191600101613c01565b509198975050505050505050565b600082601f830112613c8c578081fd5b81356001600160401b03811115613c9f57fe5b613cb2601f8201601f191660200161451f565b818152846020838601011115613cc6578283fd5b816020850160208301379081016020019190915292915050565b600060a08284031215613cf1578081fd5b613cfb60a061451f565b90508135815260208201356001600160401b0380821115613d1b57600080fd5b613d2785838601613c7c565b60208401526040840135915080821115613d4057600080fd5b613d4c85838601613bc1565b60408401526060840135915080821115613d6557600080fd5b613d7185838601613bc1565b60608401526080840135915080821115613d8a57600080fd5b50613d9784828501613b6c565b60808301525092915050565b600060208284031215613db4578081fd5b81356112cf8161455f565b60008060408385031215613dd1578081fd5b8235613ddc8161455f565b91506020830135613dec8161455f565b809150509250929050565b600080600060608486031215613e0b578081fd5b8335613e168161455f565b92506020840135613e268161455f565b929592945050506040919091013590565b60008060008060808587031215613e4c578081fd5b8435613e578161455f565b93506020850135613e678161455f565b92506040850135915060608501356001600160401b03811115613e88578182fd5b613e9487828801613c7c565b91505092959194509250565b60008060408385031215613eb2578182fd5b8235613ebd8161455f565b915060208301358015158114613dec578182fd5b60008060408385031215613ee3578182fd5b8235613eee8161455f565b946020939093013593505050565b600060208284031215613f0d578081fd5b81356001600160401b03811115613f22578182fd5b61290784828501613af7565b600060208284031215613f3f578081fd5b81356001600160e01b0319811681146112cf578182fd5b600060208284031215613f67578081fd5b81356001600160401b03811115613f7c578182fd5b61290784828501613c7c565b60008060008060008060c08789031215613fa0578384fd5b86356001600160401b0380821115613fb6578586fd5b613fc28a838b01613c7c565b97506020890135915080821115613fd7578586fd5b613fe38a838b01613c7c565b96506040890135915080821115613ff8578586fd5b6140048a838b01613c7c565b95506060890135915080821115614019578384fd5b5061402689828a01613c7c565b93505061403560808801613aec565b915061404360a08801613aec565b90509295509295509295565b600080600080600080600060e0888a031215614069578485fd5b87356001600160401b038082111561407f578687fd5b61408b8b838c01613c7c565b985060208a01359150808211156140a0578687fd5b6140ac8b838c01613c7c565b975060408a01359150808211156140c1578687fd5b6140cd8b838c01613c7c565b965060608a01359150808211156140e2578283fd5b6140ee8b838c01613c7c565b955060808a0135915080821115614103578283fd5b506141108a828b01613af7565b93505061411f60a08901613aec565b915061412d60c08901613aec565b905092959891949750929550565b6000806040838503121561414d578182fd5b82356001600160401b03811115614162578283fd5b61416e85828601613ce0565b9250506020830135613dec8161455f565b600080600060608486031215614193578081fd5b83356001600160401b038111156141a8578182fd5b6141b486828701613ce0565b93505060208401356141c58161455f565b915060408401356141d58161455f565b809150509250925092565b6000602082840312156141f1578081fd5b5035919050565b60008060006060848603121561420c578081fd5b8335925060208401356141c58161455f565b60008060408385031215614230578182fd5b50508035926020909101359150565b6000815180845260208085019450808401835b8381101561428b57815180516001600160a01b031688528301516001600160601b03168388015260409096019590820190600101614252565b509495945050505050565b60008151808452815b818110156142bb5760208185018101518683018201520161429f565b818111156142cc5782602083870101525b50601f01601f19169290920160200192915050565b6001600160a01b0391909116815260200190565b6001600160a01b038416815260606020820181905260009061431990830185614296565b828103604084015261345e8185614296565b6001600160a01b03929092168252602082015260400190565b6000602082526112cf602083018461423f565b901515815260200190565b6000602082526112cf6020830184614296565b6020808252601390820152723737ba1037bbb732b91037b91036b4b73a32b960691b604082015260600190565b6020808252818101527f43726561746f722073686172652073686f756c6420626520706f736974697665604082015260600190565b6020808252601190820152701d1bdad95b9259081a5b98dbdc9c9958dd607a1b604082015260600190565b6020808252600b908201526a1b9bdd08185b1b1bddd95960aa1b604082015260600190565b60208082526019908201527f4163636f756e742073686f756c642062652070726573656e7400000000000000604082015260600190565b60208082526031908201527f4552433732313a207472616e736665722063616c6c6572206973206e6f74206f6040820152701ddb995c881b9bdc88185c1c1c9bdd9959607a1b606082015260800190565b6020808252602e908201527f746f74616c20616d6f756e74206f662063726561746f7273207368617265207360408201526d0686f756c642062652031303030360941b606082015260800190565b90815260200190565b600083825260406020830152612907604083018461423f565b6040518181016001600160401b038111828210171561453a57fe5b604052919050565b60006001600160401b0382111561455557fe5b5060209081020190565b6001600160a01b0381168114610a4b57600080fdfe4552433732313a207472616e7366657220746f206e6f6e20455243373231526563656976657220696d706c656d656e7465724f776e61626c653a206e6577206f776e657220697320746865207a65726f20616464726573734552433732313a207472616e7366657220746f20746865207a65726f206164647265737345434453413a20696e76616c6964207369676e6174757265202773272076616c75654552433732313a206f70657261746f7220717565727920666f72206e6f6e6578697374656e7420746f6b656e4552433732313a20617070726f76652063616c6c6572206973206e6f74206f776e6572206e6f7220617070726f76656420666f7220616c6c4552433732313a2062616c616e636520717565727920666f7220746865207a65726f20616464726573734552433732313a206f776e657220717565727920666f72206e6f6e6578697374656e7420746f6b656e496e697469616c697a61626c653a20636f6e747261637420697320616c726561647920696e697469616c697a656445434453413a20696e76616c6964207369676e6174757265202776272076616c75654552433732314275726e61626c653a2063616c6c6572206973206e6f74206f776e65722c206e6f74206275726e4552433732313a20617070726f76656420717565727920666f72206e6f6e6578697374656e7420746f6b656e4552433732314d657461646174613a2055524920736574206f66206e6f6e6578697374656e7420746f6b656e4f776e61626c653a2063616c6c6572206973206e6f7420746865206f776e65724552433732313a207472616e73666572206f6620746f6b656e2074686174206973206e6f74206f776e4552433732314d657461646174613a2055524920717565727920666f72206e6f6e6578697374656e7420746f6b656eddf252ad1be2c89b69c2b068fc378daa952ba7f163c4a11628f55a4df523b3ef4552433732313a20617070726f76616c20746f2063757272656e74206f776e65724552433732313a207472616e736665722063616c6c6572206973206e6f74206f776e6572206e6f7220617070726f766564526f79616c747920746f74616c2076616c75652073686f756c64206265203c2031303030304552433732314275726e61626c653a2063616c6c6572206973206e6f74206f776e6572206e6f7220617070726f766564a26469706673582212207069f8caf505610ca38d0fd65e427a160f549ba3c2207c116d4d8bc76fc1534464736f6c63430007060033",
  "immutableReferences": {},
  "source": "// SPDX-License-Identifier: MIT\n\npragma solidity 0.7.6;\npragma abicoder v2;\n\nimport \"./ERC721BaseMinimal.sol\";\nimport \"../IsPrivateCollection.sol\";\nimport \"../access/MinterAccessControl.sol\";\n\ncontract ERC721RaribleMinimal is ERC721BaseMinimal, IsPrivateCollection, MinterAccessControl {\n    event CreateERC721Rarible(address owner, string name, string symbol);\n    event CreateERC721RaribleUser(address owner, string name, string symbol);\n\n    function __ERC721RaribleUser_init(string memory _name, string memory _symbol, string memory baseURI, string memory contractURI, address[] memory operators, address transferProxy, address lazyTransferProxy) external virtual {\n        __ERC721Rarible_init_unchained(_name, _symbol, baseURI, contractURI, transferProxy, lazyTransferProxy);\n\n        isPrivate = true;\n        emit CreateERC721RaribleUser(_msgSender(), _name, _symbol);\n    }\n\n    function __ERC721Rarible_init(string memory _name, string memory _symbol, string memory baseURI, string memory contractURI, address transferProxy, address lazyTransferProxy) external virtual {\n        __ERC721Rarible_init_unchained(_name, _symbol, baseURI, contractURI, transferProxy, lazyTransferProxy);\n\n        isPrivate = false;\n        emit CreateERC721Rarible(_msgSender(), _name, _symbol);\n    }\n\n    function __ERC721Rarible_init_unchained(string memory _name, string memory _symbol, string memory baseURI, string memory contractURI, address transferProxy, address lazyTransferProxy) internal initializer {\n        _setBaseURI(baseURI);\n        __ERC721Lazy_init_unchained();\n        __RoyaltiesV2Upgradeable_init_unchained();\n        __Context_init_unchained();\n        __ERC165_init_unchained();\n        __Ownable_init_unchained();\n        __ERC721Burnable_init_unchained();\n        __Mint721Validator_init_unchained();\n        __MinterAccessControl_init_unchained();\n        __HasContractURI_init_unchained(contractURI);\n        __ERC721_init_unchained(_name, _symbol);\n\n        //setting default approver for transferProxies\n        _setDefaultApproval(transferProxy, true);\n        _setDefaultApproval(lazyTransferProxy, true);\n    }\n\n    function mintAndTransfer(LibERC721LazyMint.Mint721Data memory data, address to) public override virtual {\n        if (isPrivate){\n            require(owner() == data.creators[0].account || isMinter(data.creators[0].account), \"not owner or minter\");\n        }\n        super.mintAndTransfer(data, to);\n    }\n}\n",
  "sourcePath": "@rarible/tokens/contracts/erc-721-minimal/ERC721RaribleMinimal.sol",
  "compiler": {
    "name": "solc",
    "version": "0.7.6+commit.7338295f.Emscripten.clang"
  },
  "schemaVersion": "3.4.5",
  "updatedAt": "2022-11-11T09:19:44.012Z",
  "devdoc": {
    "kind": "dev",
    "methods": {
      "addMinter(address)": {
        "details": "Add `minter` to the list of allowed minters."
      },
      "addMinters(address[])": {
        "details": "Add `minters` to the list of allowed minters."
      },
      "approve(address,uint256)": {
        "details": "See {IERC721-approve}."
      },
      "balanceOf(address)": {
        "details": "See {IERC721-balanceOf}."
      },
      "baseURI()": {
        "details": "Returns the base URI set via {_setBaseURI}. This will be automatically added as a prefix in {tokenURI} to each token's URI, or to the token ID if no specific URI is set for that token ID."
      },
      "burn(uint256)": {
        "details": "Burns `tokenId`. See {ERC721-_burn}. Requirements: - The caller must own `tokenId` or be an approved operator."
      },
      "getApproved(uint256)": {
        "details": "See {IERC721-getApproved}."
      },
      "isMinter(address)": {
        "details": "Returns `true` if `account` has been granted to minters."
      },
      "name()": {
        "details": "See {IERC721Metadata-name}."
      },
      "owner()": {
        "details": "Returns the address of the current owner."
      },
      "ownerOf(uint256)": {
        "details": "See {IERC721-ownerOf}."
      },
      "removeMinter(address)": {
        "details": "Revoke `_minter` from the list of allowed minters."
      },
      "renounceOwnership()": {
        "details": "Leaves the contract without owner. It will not be possible to call `onlyOwner` functions anymore. Can only be called by the current owner. NOTE: Renouncing ownership will leave the contract without an owner, thereby removing any functionality that is only available to the owner."
      },
      "safeTransferFrom(address,address,uint256)": {
        "details": "See {IERC721-safeTransferFrom}."
      },
      "safeTransferFrom(address,address,uint256,bytes)": {
        "details": "See {IERC721-safeTransferFrom}."
      },
      "setApprovalForAll(address,bool)": {
        "details": "See {IERC721-setApprovalForAll}."
      },
      "symbol()": {
        "details": "See {IERC721Metadata-symbol}."
      },
      "transferFrom(address,address,uint256)": {
        "details": "See {IERC721-transferFrom}."
      },
      "transferOwnership(address)": {
        "details": "Transfers ownership of the contract to a new account (`newOwner`). Can only be called by the current owner."
      }
    },
    "version": 1
  },
  "userdoc": {
    "kind": "user",
    "methods": {},
    "version": 1
  }
}