{
  "contractName": "ERC721RaribleMeta",
  "abi": [
    {
      "anonymous": false,
      "inputs": [
        {
          "indexed": true,
          "internalType": "address",
          "name": "owner",
          "type": "address"
        },
        {
          "indexed": true,
          "internalType": "address",
          "name": "approved",
          "type": "address"
        },
        {
          "indexed": true,
          "internalType": "uint256",
          "name": "tokenId",
          "type": "uint256"
        }
      ],
      "name": "Approval",
      "type": "event"
    },
    {
      "anonymous": false,
      "inputs": [
        {
          "indexed": true,
          "internalType": "address",
          "name": "owner",
          "type": "address"
        },
        {
          "indexed": true,
          "internalType": "address",
          "name": "operator",
          "type": "address"
        },
        {
          "indexed": false,
          "internalType": "bool",
          "name": "approved",
          "type": "bool"
        }
      ],
      "name": "ApprovalForAll",
      "type": "event"
    },
    {
      "anonymous": false,
      "inputs": [
        {
          "indexed": false,
          "internalType": "string",
          "name": "newBaseURI",
          "type": "string"
        }
      ],
      "name": "BaseUriChanged",
      "type": "event"
    },
    {
      "anonymous": false,
      "inputs": [
        {
          "indexed": false,
          "internalType": "address",
          "name": "owner",
          "type": "address"
        },
        {
          "indexed": false,
          "internalType": "string",
          "name": "name",
          "type": "string"
        },
        {
          "indexed": false,
          "internalType": "string",
          "name": "symbol",
          "type": "string"
        }
      ],
      "name": "CreateERC721Rarible",
      "type": "event"
    },
    {
      "anonymous": false,
      "inputs": [
        {
          "indexed": false,
          "internalType": "address",
          "name": "owner",
          "type": "address"
        },
        {
          "indexed": false,
          "internalType": "string",
          "name": "name",
          "type": "string"
        },
        {
          "indexed": false,
          "internalType": "string",
          "name": "symbol",
          "type": "string"
        }
      ],
      "name": "CreateERC721RaribleUser",
      "type": "event"
    },
    {
      "anonymous": false,
      "inputs": [
        {
          "indexed": false,
          "internalType": "uint256",
          "name": "tokenId",
          "type": "uint256"
        },
        {
          "components": [
            {
              "internalType": "address payable",
              "name": "account",
              "type": "address"
            },
            {
              "internalType": "uint96",
              "name": "value",
              "type": "uint96"
            }
          ],
          "indexed": false,
          "internalType": "struct LibPart.Part[]",
          "name": "creators",
          "type": "tuple[]"
        }
      ],
      "name": "Creators",
      "type": "event"
    },
    {
      "anonymous": false,
      "inputs": [
        {
          "indexed": true,
          "internalType": "address",
          "name": "operator",
          "type": "address"
        },
        {
          "indexed": false,
          "internalType": "bool",
          "name": "hasApproval",
          "type": "bool"
        }
      ],
      "name": "DefaultApproval",
      "type": "event"
    },
    {
      "anonymous": false,
      "inputs": [
        {
          "indexed": false,
          "internalType": "address",
          "name": "userAddress",
          "type": "address"
        },
        {
          "indexed": false,
          "internalType": "address payable",
          "name": "relayerAddress",
          "type": "address"
        },
        {
          "indexed": false,
          "internalType": "bytes",
          "name": "functionSignature",
          "type": "bytes"
        }
      ],
      "name": "MetaTransactionExecuted",
      "type": "event"
    },
    {
      "anonymous": false,
      "inputs": [
        {
          "indexed": true,
          "internalType": "address",
          "name": "minter",
          "type": "address"
        },
        {
          "indexed": true,
          "internalType": "bool",
          "name": "status",
          "type": "bool"
        }
      ],
      "name": "MinterStatusChanged",
      "type": "event"
    },
    {
      "anonymous": false,
      "inputs": [
        {
          "indexed": true,
          "internalType": "address",
          "name": "previousOwner",
          "type": "address"
        },
        {
          "indexed": true,
          "internalType": "address",
          "name": "newOwner",
          "type": "address"
        }
      ],
      "name": "OwnershipTransferred",
      "type": "event"
    },
    {
      "anonymous": false,
      "inputs": [
        {
          "indexed": false,
          "internalType": "uint256",
          "name": "tokenId",
          "type": "uint256"
        },
        {
          "components": [
            {
              "internalType": "address payable",
              "name": "account",
              "type": "address"
            },
            {
              "internalType": "uint96",
              "name": "value",
              "type": "uint96"
            }
          ],
          "indexed": false,
          "internalType": "struct LibPart.Part[]",
          "name": "royalties",
          "type": "tuple[]"
        }
      ],
      "name": "RoyaltiesSet",
      "type": "event"
    },
    {
      "anonymous": false,
      "inputs": [
        {
          "indexed": true,
          "internalType": "address",
          "name": "from",
          "type": "address"
        },
        {
          "indexed": true,
          "internalType": "address",
          "name": "to",
          "type": "address"
        },
        {
          "indexed": true,
          "internalType": "uint256",
          "name": "tokenId",
          "type": "uint256"
        }
      ],
      "name": "Transfer",
      "type": "event"
    },
    {
      "inputs": [
        {
          "internalType": "address",
          "name": "_minter",
          "type": "address"
        }
      ],
      "name": "addMinter",
      "outputs": [],
      "stateMutability": "nonpayable",
      "type": "function"
    },
    {
      "inputs": [
        {
          "internalType": "address",
          "name": "to",
          "type": "address"
        },
        {
          "internalType": "uint256",
          "name": "tokenId",
          "type": "uint256"
        }
      ],
      "name": "approve",
      "outputs": [],
      "stateMutability": "nonpayable",
      "type": "function"
    },
    {
      "inputs": [
        {
          "internalType": "address",
          "name": "owner",
          "type": "address"
        }
      ],
      "name": "balanceOf",
      "outputs": [
        {
          "internalType": "uint256",
          "name": "",
          "type": "uint256"
        }
      ],
      "stateMutability": "view",
      "type": "function"
    },
    {
      "inputs": [],
      "name": "baseURI",
      "outputs": [
        {
          "internalType": "string",
          "name": "",
          "type": "string"
        }
      ],
      "stateMutability": "view",
      "type": "function"
    },
    {
      "inputs": [
        {
          "internalType": "uint256",
          "name": "tokenId",
          "type": "uint256"
        }
      ],
      "name": "burn",
      "outputs": [],
      "stateMutability": "nonpayable",
      "type": "function"
    },
    {
      "inputs": [],
      "name": "contractURI",
      "outputs": [
        {
          "internalType": "string",
          "name": "",
          "type": "string"
        }
      ],
      "stateMutability": "view",
      "type": "function"
    },
    {
      "inputs": [
        {
          "internalType": "address",
          "name": "userAddress",
          "type": "address"
        },
        {
          "internalType": "bytes",
          "name": "functionSignature",
          "type": "bytes"
        },
        {
          "internalType": "bytes32",
          "name": "sigR",
          "type": "bytes32"
        },
        {
          "internalType": "bytes32",
          "name": "sigS",
          "type": "bytes32"
        },
        {
          "internalType": "uint8",
          "name": "sigV",
          "type": "uint8"
        }
      ],
      "name": "executeMetaTransaction",
      "outputs": [
        {
          "internalType": "bytes",
          "name": "",
          "type": "bytes"
        }
      ],
      "stateMutability": "payable",
      "type": "function"
    },
    {
      "inputs": [
        {
          "internalType": "uint256",
          "name": "tokenId",
          "type": "uint256"
        }
      ],
      "name": "getApproved",
      "outputs": [
        {
          "internalType": "address",
          "name": "",
          "type": "address"
        }
      ],
      "stateMutability": "view",
      "type": "function"
    },
    {
      "inputs": [
        {
          "internalType": "uint256",
          "name": "_id",
          "type": "uint256"
        }
      ],
      "name": "getCreators",
      "outputs": [
        {
          "components": [
            {
              "internalType": "address payable",
              "name": "account",
              "type": "address"
            },
            {
              "internalType": "uint96",
              "name": "value",
              "type": "uint96"
            }
          ],
          "internalType": "struct LibPart.Part[]",
          "name": "",
          "type": "tuple[]"
        }
      ],
      "stateMutability": "view",
      "type": "function"
    },
    {
      "inputs": [
        {
          "internalType": "address",
          "name": "user",
          "type": "address"
        }
      ],
      "name": "getNonce",
      "outputs": [
        {
          "internalType": "uint256",
          "name": "nonce",
          "type": "uint256"
        }
      ],
      "stateMutability": "view",
      "type": "function"
    },
    {
      "inputs": [
        {
          "internalType": "uint256",
          "name": "id",
          "type": "uint256"
        }
      ],
      "name": "getRaribleV2Royalties",
      "outputs": [
        {
          "components": [
            {
              "internalType": "address payable",
              "name": "account",
              "type": "address"
            },
            {
              "internalType": "uint96",
              "name": "value",
              "type": "uint96"
            }
          ],
          "internalType": "struct LibPart.Part[]",
          "name": "",
          "type": "tuple[]"
        }
      ],
      "stateMutability": "view",
      "type": "function"
    },
    {
      "inputs": [
        {
          "internalType": "address",
          "name": "owner",
          "type": "address"
        },
        {
          "internalType": "address",
          "name": "operator",
          "type": "address"
        }
      ],
      "name": "isApprovedForAll",
      "outputs": [
        {
          "internalType": "bool",
          "name": "",
          "type": "bool"
        }
      ],
      "stateMutability": "view",
      "type": "function"
    },
    {
      "inputs": [
        {
          "internalType": "address",
          "name": "account",
          "type": "address"
        }
      ],
      "name": "isMinter",
      "outputs": [
        {
          "internalType": "bool",
          "name": "",
          "type": "bool"
        }
      ],
      "stateMutability": "view",
      "type": "function"
    },
    {
      "inputs": [],
      "name": "name",
      "outputs": [
        {
          "internalType": "string",
          "name": "",
          "type": "string"
        }
      ],
      "stateMutability": "view",
      "type": "function"
    },
    {
      "inputs": [],
      "name": "owner",
      "outputs": [
        {
          "internalType": "address",
          "name": "",
          "type": "address"
        }
      ],
      "stateMutability": "view",
      "type": "function"
    },
    {
      "inputs": [
        {
          "internalType": "uint256",
          "name": "tokenId",
          "type": "uint256"
        }
      ],
      "name": "ownerOf",
      "outputs": [
        {
          "internalType": "address",
          "name": "",
          "type": "address"
        }
      ],
      "stateMutability": "view",
      "type": "function"
    },
    {
      "inputs": [
        {
          "internalType": "address",
          "name": "_minter",
          "type": "address"
        }
      ],
      "name": "removeMinter",
      "outputs": [],
      "stateMutability": "nonpayable",
      "type": "function"
    },
    {
      "inputs": [],
      "name": "renounceOwnership",
      "outputs": [],
      "stateMutability": "nonpayable",
      "type": "function"
    },
    {
      "inputs": [
        {
          "internalType": "uint256",
          "name": "id",
          "type": "uint256"
        },
        {
          "internalType": "uint256",
          "name": "_salePrice",
          "type": "uint256"
        }
      ],
      "name": "royaltyInfo",
      "outputs": [
        {
          "internalType": "address",
          "name": "receiver",
          "type": "address"
        },
        {
          "internalType": "uint256",
          "name": "royaltyAmount",
          "type": "uint256"
        }
      ],
      "stateMutability": "view",
      "type": "function"
    },
    {
      "inputs": [
        {
          "internalType": "address",
          "name": "from",
          "type": "address"
        },
        {
          "internalType": "address",
          "name": "to",
          "type": "address"
        },
        {
          "internalType": "uint256",
          "name": "tokenId",
          "type": "uint256"
        }
      ],
      "name": "safeTransferFrom",
      "outputs": [],
      "stateMutability": "nonpayable",
      "type": "function"
    },
    {
      "inputs": [
        {
          "internalType": "address",
          "name": "from",
          "type": "address"
        },
        {
          "internalType": "address",
          "name": "to",
          "type": "address"
        },
        {
          "internalType": "uint256",
          "name": "tokenId",
          "type": "uint256"
        },
        {
          "internalType": "bytes",
          "name": "_data",
          "type": "bytes"
        }
      ],
      "name": "safeTransferFrom",
      "outputs": [],
      "stateMutability": "nonpayable",
      "type": "function"
    },
    {
      "inputs": [
        {
          "internalType": "address",
          "name": "operator",
          "type": "address"
        },
        {
          "internalType": "bool",
          "name": "approved",
          "type": "bool"
        }
      ],
      "name": "setApprovalForAll",
      "outputs": [],
      "stateMutability": "nonpayable",
      "type": "function"
    },
    {
      "inputs": [
        {
          "internalType": "string",
          "name": "newBaseURI",
          "type": "string"
        }
      ],
      "name": "setBaseURI",
      "outputs": [],
      "stateMutability": "nonpayable",
      "type": "function"
    },
    {
      "inputs": [
        {
          "internalType": "bytes4",
          "name": "interfaceId",
          "type": "bytes4"
        }
      ],
      "name": "supportsInterface",
      "outputs": [
        {
          "internalType": "bool",
          "name": "",
          "type": "bool"
        }
      ],
      "stateMutability": "view",
      "type": "function"
    },
    {
      "inputs": [],
      "name": "symbol",
      "outputs": [
        {
          "internalType": "string",
          "name": "",
          "type": "string"
        }
      ],
      "stateMutability": "view",
      "type": "function"
    },
    {
      "inputs": [
        {
          "internalType": "uint256",
          "name": "tokenId",
          "type": "uint256"
        }
      ],
      "name": "tokenURI",
      "outputs": [
        {
          "internalType": "string",
          "name": "",
          "type": "string"
        }
      ],
      "stateMutability": "view",
      "type": "function"
    },
    {
      "inputs": [
        {
          "internalType": "address",
          "name": "from",
          "type": "address"
        },
        {
          "internalType": "address",
          "name": "to",
          "type": "address"
        },
        {
          "internalType": "uint256",
          "name": "tokenId",
          "type": "uint256"
        }
      ],
      "name": "transferFrom",
      "outputs": [],
      "stateMutability": "nonpayable",
      "type": "function"
    },
    {
      "inputs": [
        {
          "components": [
            {
              "internalType": "uint256",
              "name": "tokenId",
              "type": "uint256"
            },
            {
              "internalType": "string",
              "name": "tokenURI",
              "type": "string"
            },
            {
              "components": [
                {
                  "internalType": "address payable",
                  "name": "account",
                  "type": "address"
                },
                {
                  "internalType": "uint96",
                  "name": "value",
                  "type": "uint96"
                }
              ],
              "internalType": "struct LibPart.Part[]",
              "name": "creators",
              "type": "tuple[]"
            },
            {
              "components": [
                {
                  "internalType": "address payable",
                  "name": "account",
                  "type": "address"
                },
                {
                  "internalType": "uint96",
                  "name": "value",
                  "type": "uint96"
                }
              ],
              "internalType": "struct LibPart.Part[]",
              "name": "royalties",
              "type": "tuple[]"
            },
            {
              "internalType": "bytes[]",
              "name": "signatures",
              "type": "bytes[]"
            }
          ],
          "internalType": "struct LibERC721LazyMint.Mint721Data",
          "name": "data",
          "type": "tuple"
        },
        {
          "internalType": "address",
          "name": "from",
          "type": "address"
        },
        {
          "internalType": "address",
          "name": "to",
          "type": "address"
        }
      ],
      "name": "transferFromOrMint",
      "outputs": [],
      "stateMutability": "nonpayable",
      "type": "function"
    },
    {
      "inputs": [
        {
          "internalType": "address",
          "name": "newOwner",
          "type": "address"
        }
      ],
      "name": "transferOwnership",
      "outputs": [],
      "stateMutability": "nonpayable",
      "type": "function"
    },
    {
      "inputs": [
        {
          "internalType": "uint256",
          "name": "_id",
          "type": "uint256"
        },
        {
          "internalType": "address",
          "name": "_from",
          "type": "address"
        },
        {
          "internalType": "address",
          "name": "_to",
          "type": "address"
        }
      ],
      "name": "updateAccount",
      "outputs": [],
      "stateMutability": "nonpayable",
      "type": "function"
    },
    {
      "inputs": [
        {
          "internalType": "string",
          "name": "_name",
          "type": "string"
        },
        {
          "internalType": "string",
          "name": "_symbol",
          "type": "string"
        },
        {
          "internalType": "string",
          "name": "baseURI",
          "type": "string"
        },
        {
          "internalType": "string",
          "name": "contractURI",
          "type": "string"
        },
        {
          "internalType": "address[]",
          "name": "operators",
          "type": "address[]"
        },
        {
          "internalType": "address",
          "name": "transferProxy",
          "type": "address"
        },
        {
          "internalType": "address",
          "name": "lazyTransferProxy",
          "type": "address"
        }
      ],
      "name": "__ERC721RaribleUser_init",
      "outputs": [],
      "stateMutability": "nonpayable",
      "type": "function"
    },
    {
      "inputs": [
        {
          "internalType": "string",
          "name": "_name",
          "type": "string"
        },
        {
          "internalType": "string",
          "name": "_symbol",
          "type": "string"
        },
        {
          "internalType": "string",
          "name": "baseURI",
          "type": "string"
        },
        {
          "internalType": "string",
          "name": "contractURI",
          "type": "string"
        },
        {
          "internalType": "address",
          "name": "transferProxy",
          "type": "address"
        },
        {
          "internalType": "address",
          "name": "lazyTransferProxy",
          "type": "address"
        }
      ],
      "name": "__ERC721Rarible_init",
      "outputs": [],
      "stateMutability": "nonpayable",
      "type": "function"
    },
    {
      "inputs": [
        {
          "components": [
            {
              "internalType": "uint256",
              "name": "tokenId",
              "type": "uint256"
            },
            {
              "internalType": "string",
              "name": "tokenURI",
              "type": "string"
            },
            {
              "components": [
                {
                  "internalType": "address payable",
                  "name": "account",
                  "type": "address"
                },
                {
                  "internalType": "uint96",
                  "name": "value",
                  "type": "uint96"
                }
              ],
              "internalType": "struct LibPart.Part[]",
              "name": "creators",
              "type": "tuple[]"
            },
            {
              "components": [
                {
                  "internalType": "address payable",
                  "name": "account",
                  "type": "address"
                },
                {
                  "internalType": "uint96",
                  "name": "value",
                  "type": "uint96"
                }
              ],
              "internalType": "struct LibPart.Part[]",
              "name": "royalties",
              "type": "tuple[]"
            },
            {
              "internalType": "bytes[]",
              "name": "signatures",
              "type": "bytes[]"
            }
          ],
          "internalType": "struct LibERC721LazyMint.Mint721Data",
          "name": "data",
          "type": "tuple"
        },
        {
          "internalType": "address",
          "name": "to",
          "type": "address"
        }
      ],
      "name": "mintAndTransfer",
      "outputs": [],
      "stateMutability": "nonpayable",
      "type": "function"
    }
  ],
  "bytecode": "0x608060405234801561001057600080fd5b50615188806100206000396000f3fe6080604052600436106101ee5760003560e01c80636c0360eb1161010d578063a22cb465116100a0578063cad96cca1161006f578063cad96cca14610589578063e07f2319146105a9578063e8a3d485146105c9578063e985e9c5146105de578063f2fde38b146105fe576101ee565b8063a22cb46514610509578063aa271e1a14610529578063b88d4fde14610549578063c87b56dd14610569576101ee565b8063891be974116100dc578063891be974146104925780638da5cb5b146104bf57806395d89b41146104d4578063983b2d56146104e9576101ee565b80636c0360eb1461042857806370a082311461043d578063715018a61461045d578063832fbb2914610472576101ee565b80632d0335ab1161018557806342966c681161015457806342966c68146103a85780634648eb9d146103c857806355f804b3146103e85780636352211e14610408576101ee565b80632d0335ab1461031b5780633092afd5146103485780633db397c61461036857806342842e0e14610388576101ee565b80630c53c51c116101c15780630c53c51c1461029a57806322a775b6146102ad57806323b872dd146102cd5780632a55205a146102ed576101ee565b806301ffc9a7146101f357806306fdde0314610229578063081812fc1461024b578063095ea7b314610278575b600080fd5b3480156101ff57600080fd5b5061021361020e36600461473f565b61061e565b6040516102209190614b68565b60405180910390f35b34801561023557600080fd5b5061023e610631565b6040516102209190614b73565b34801561025757600080fd5b5061026b6102663660046149f1565b6106c8565b6040516102209190614af2565b34801561028457600080fd5b50610298610293366004614714565b61072b565b005b61023e6102a836600461469a565b610801565b3480156102b957600080fd5b506102986102c836600461494c565b610b7a565b3480156102d957600080fd5b506102986102e83660046145c0565b610c1c565b3480156102f957600080fd5b5061030d610308366004614a2f565b610c73565b604051610220929190614b3c565b34801561032757600080fd5b5061033b61033636600461456c565b610d83565b6040516102209190614d0e565b34801561035457600080fd5b5061029861036336600461456c565b610d9f565b34801561037457600080fd5b50610298610383366004614799565b610e4f565b34801561039457600080fd5b506102986103a33660046145c0565b610efe565b3480156103b457600080fd5b506102986103c33660046149f1565b610f19565b3480156103d457600080fd5b506102986103e3366004614860565b610fe3565b3480156103f457600080fd5b50610298610403366004614767565b6110cd565b34801561041457600080fd5b5061026b6104233660046149f1565b611172565b34801561043457600080fd5b5061023e6111c6565b34801561044957600080fd5b5061033b61045836600461456c565b611228565b34801561046957600080fd5b5061029861128c565b34801561047e57600080fd5b5061029861048d366004614990565b611338565b34801561049e57600080fd5b506104b26104ad3660046149f1565b611366565b6040516102209190614b55565b3480156104cb57600080fd5b5061026b6113f6565b3480156104e057600080fd5b5061023e611405565b3480156104f557600080fd5b5061029861050436600461456c565b611466565b34801561051557600080fd5b50610298610524366004614669565b61151b565b34801561053557600080fd5b5061021361054436600461456c565b611621565b34801561055557600080fd5b50610298610564366004614600565b611640565b34801561057557600080fd5b5061023e6105843660046149f1565b61169e565b34801561059557600080fd5b506104b26105a43660046149f1565b6116a9565b3480156105b557600080fd5b506102986105c4366004614a09565b611724565b3480156105d557600080fd5b5061023e611767565b3480156105ea57600080fd5b506102136105f9366004614588565b6117f6565b34801561060a57600080fd5b5061029861061936600461456c565b61180b565b60006106298261190e565b90505b919050565b60fd8054604080516020601f60026000196101006001881615020190951694909404938401819004810282018101909252828152606093909290918301828280156106bd5780601f10610692576101008083540402835291602001916106bd565b820191906000526020600020905b8154815290600101906020018083116106a057829003601f168201915b505050505090505b90565b60006106d3826119c8565b61070e5760405162461bcd60e51b815260040180806020018281038252602c815260200180614f9b602c913960400191505060405180910390fd5b50600090815261010160205260409020546001600160a01b031690565b600061073682611172565b9050806001600160a01b0316836001600160a01b031614156107895760405162461bcd60e51b81526004018080602001828103825260218152602001806150ac6021913960400191505060405180910390fd5b806001600160a01b031661079b6119e5565b6001600160a01b031614806107b757506107b7816105f96119e5565b6107f25760405162461bcd60e51b8152600401808060200182810382526038815260200180614e936038913960400191505060405180910390fd5b6107fc83836119f4565b505050565b6060600061080e86611a63565b90506000356001600160e01b03199081169082161415610875576040805162461bcd60e51b815260206004820152601760248201527f57726f6e672066756e6374696f6e5369676e6174757265000000000000000000604482015290519081900360640190fd5b604080516060810182526001600160a01b03891660008181526102f76020908152908490205483528201529081018790526108b38882888888611a7f565b6108ee5760405162461bcd60e51b815260040180806020018281038252602181526020018061503c6021913960400191505060405180910390fd5b6001600160a01b03881660009081526102f76020526040902054610913906001611b69565b6102f760008a6001600160a01b03166001600160a01b0316815260200190815260200160002081905550600080306001600160a01b0316898b6040516020018083805190602001908083835b6020831061097e5780518252601f19909201916020918201910161095f565b6001836020036101000a038019825116818451168082178552505050505050905001826001600160a01b031660601b8152601401925050506040516020818303038152906040526040518082805190602001908083835b602083106109f45780518252601f1990920191602091820191016109d5565b6001836020036101000a0380198251168184511680821785525050505050509050019150506000604051808303816000865af19150503d8060008114610a56576040519150601f19603f3d011682016040523d82523d6000602084013e610a5b565b606091505b509150915081610ab2576040805162461bcd60e51b815260206004820152601c60248201527f46756e6374696f6e2063616c6c206e6f74207375636365737366756c00000000604482015290519081900360640190fd5b7f5845892132946850460bff5a0083f71031bc5bf9aadcd40f1de79423eac9b10b8a338b60405180846001600160a01b03168152602001836001600160a01b0316815260200180602001828103825283818151815260200191508051906020019080838360005b83811015610b31578181015183820152602001610b19565b50505050905090810190601f168015610b5e5780820380516001836020036101000a031916815260200191505b5094505050505060405180910390a19998505050505050505050565b6102925460ff1615610c0e578160400151600081518110610b9757fe5b6020026020010151600001516001600160a01b0316610bb46113f6565b6001600160a01b03161480610be95750610be98260400151600081518110610bd857fe5b602002602001015160000151611621565b610c0e5760405162461bcd60e51b8152600401610c0590614b86565b60405180910390fd5b610c188282611bc3565b5050565b610c2d610c276119e5565b82611d45565b610c685760405162461bcd60e51b81526004018080602001828103825260318152602001806150cd6031913960400191505060405180910390fd5b6107fc838383611d51565b60008281526101c660205260408120548190610c9457506000905080610d7c565b60008481526101c66020908152604080832080548251818502810185019093528083529192909190849084015b82821015610d1057600084815260209081902060408051808201909152908401546001600160a01b0381168252600160a01b90046001600160601b031681830152825260019092019101610cc1565b50505050905080600081518110610d2357fe5b60209081029190910101515192506000805b8251811015610d7057828181518110610d4a57fe5b6020026020010151602001516001600160601b0316820191508080600101915050610d35565b50612710908502049150505b9250929050565b6001600160a01b031660009081526102f7602052604090205490565b610da76119e5565b6001600160a01b0316610db86113f6565b6001600160a01b031614610e01576040805162461bcd60e51b81526020600482018190526024820152600080516020614ff3833981519152604482015290519081900360640190fd5b6001600160a01b03811660008181526102c46020526040808220805460ff19169055519091907f3042b80e435ae46c334b2cfec51a66d64c9a8a8af4cd0c279a124c35a09e91dd908390a350565b610e5d868686868686611e70565b610ea96040518060400160405280601181526020017045524337323152617269626c654d65746160781b815250604051806040016040528060018152602001603160f81b815250611f8a565b610292805460ff191690557ff05e55f0a9d205977ca8cc02236338b6a361376f404cf0b3019b2111964a01fd610edd6119e5565b8787604051610eee93929190614b06565b60405180910390a1505050505050565b6107fc83838360405180602001604052806000815250611640565b610f22816119c8565b610f9157606081901c610f336119e5565b6001600160a01b0316816001600160a01b031614610f825760405162461bcd60e51b815260040180806020018281038252602d815260200180614f6e602d913960400191505060405180910390fd5b610f8b8261201a565b50610fe0565b610f9c610c276119e5565b610fd75760405162461bcd60e51b81526004018080602001828103825260308152602001806151236030913960400191505060405180910390fd5b610fe081612036565b50565b610ff1878787878686611e70565b60005b83518110156110235761101b84828151811061100c57fe5b6020026020010151600161151b565b600101610ff4565b506110746040518060400160405280601581526020017445524337323152617269626c65557365724d65746160581b815250604051806040016040528060018152602001603160f81b815250611f8a565b610292805460ff191660011790557fd901a467fa419f379a67636a1de44cc2ed772beb43a0c05fa1ddcad5d59e99136110ab6119e5565b88886040516110bc93929190614b06565b60405180910390a150505050505050565b6110d56119e5565b6001600160a01b03166110e66113f6565b6001600160a01b03161461112f576040805162461bcd60e51b81526020600482018190526024820152600080516020614ff3833981519152604482015290519081900360640190fd5b611138816120d2565b7f87cdeaffd8e70903d6ce7cc983fac3b09ca79e83818124c98e47a1d70f8027d6816040516111679190614b73565b60405180910390a150565b600081815260ff60205260408120546001600160a01b0316806106295760405162461bcd60e51b8152600401808060200182810382526029815260200180614ef56029913960400191505060405180910390fd5b6101c88054604080516020601f60026000196101006001881615020190951694909404938401819004810282018101909252828152606093909290918301828280156106bd5780601f10610692576101008083540402835291602001916106bd565b60006001600160a01b03821661126f5760405162461bcd60e51b815260040180806020018281038252602a815260200180614ecb602a913960400191505060405180910390fd5b506001600160a01b03166000908152610100602052604090205490565b6112946119e5565b6001600160a01b03166112a56113f6565b6001600160a01b0316146112ee576040805162461bcd60e51b81526020600482018190526024820152600080516020614ff3833981519152604482015290519081900360640190fd5b6033546040516000916001600160a01b0316907f8be0079c531659141344cd1fd0a4f28419497f9722a3daafe3b4186f6b6457e0908390a3603380546001600160a01b0319169055565b8251611343906119c8565b1561135c5761135782828560000151610efe565b6107fc565b6107fc8382610b7a565b60606101fb6000838152602001908152602001600020805480602002602001604051908101604052809291908181526020016000905b828210156113eb57600084815260209081902060408051808201909152908401546001600160a01b0381168252600160a01b90046001600160601b03168183015282526001909201910161139c565b505050509050919050565b6033546001600160a01b031690565b60fe8054604080516020601f60026000196101006001881615020190951694909404938401819004810282018101909252828152606093909290918301828280156106bd5780601f10610692576101008083540402835291602001916106bd565b61146e6119e5565b6001600160a01b031661147f6113f6565b6001600160a01b0316146114c8576040805162461bcd60e51b81526020600482018190526024820152600080516020614ff3833981519152604482015290519081900360640190fd5b6001600160a01b03811660008181526102c46020526040808220805460ff1916600190811790915590519092917f3042b80e435ae46c334b2cfec51a66d64c9a8a8af4cd0c279a124c35a09e91dd91a350565b6115236119e5565b6001600160a01b0316826001600160a01b03161415611589576040805162461bcd60e51b815260206004820152601960248201527f4552433732313a20617070726f766520746f2063616c6c657200000000000000604482015290519081900360640190fd5b8061010260006115976119e5565b6001600160a01b03908116825260208083019390935260409182016000908120918716808252919093529120805460ff1916921515929092179091556115db6119e5565b6001600160a01b03167f17307eab39ab6107e8899845ad3d59bd9653f200f220920489ca2b5937696c318360405180821515815260200191505060405180910390a35050565b6001600160a01b031660009081526102c4602052604090205460ff1690565b61165161164b6119e5565b83611d45565b61168c5760405162461bcd60e51b81526004018080602001828103825260318152602001806150cd6031913960400191505060405180910390fd5b611698848484846120e6565b50505050565b606061062982612138565b60008181526101c6602090815260408083208054825181850281018501909352808352606094929391929091840182156113eb57600084815260209081902060408051808201909152908401546001600160a01b0381168252600160a01b90046001600160601b03168183015282526001909201910161139c565b816001600160a01b03166117366119e5565b6001600160a01b03161461175c5760405162461bcd60e51b8152600401610c0590614c13565b6107fc838383612143565b61022e805460408051602060026001851615610100026000190190941693909304601f810184900484028201840190925281815292918301828280156117ee5780601f106117c3576101008083540402835291602001916117ee565b820191906000526020600020905b8154815290600101906020018083116117d157829003601f168201915b505050505081565b600061180283836121ef565b90505b92915050565b6118136119e5565b6001600160a01b03166118246113f6565b6001600160a01b03161461186d576040805162461bcd60e51b81526020600482018190526024820152600080516020614ff3833981519152604482015290519081900360640190fd5b6001600160a01b0381166118b25760405162461bcd60e51b8152600401808060200182810382526026815260200180614dfb6026913960400191505060405180910390fd5b6033546040516001600160a01b038084169216907f8be0079c531659141344cd1fd0a4f28419497f9722a3daafe3b4186f6b6457e090600090a3603380546001600160a01b0319166001600160a01b0392909216919091179055565b60006001600160e01b03198216638486f69f60e01b148061193f57506001600160e01b0319821663656cb66560e11b145b8061195a57506001600160e01b0319821663152a902d60e11b145b8061197557506001600160e01b031982166301ffc9a760e01b145b8061199057506001600160e01b031982166380ac58cd60e01b145b806119ab57506001600160e01b03198216635b5e139f60e01b145b806106295750506001600160e01b03191663780e9d6360e01b1490565b600090815260ff60205260409020546001600160a01b0316151590565b60006119ef61221c565b905090565b60008181526101016020526040902080546001600160a01b0319166001600160a01b0384169081179091558190611a2a82611172565b6001600160a01b03167f8c5be1e5ebec7d5bd14f71427d1e84f3dd0314c0f7b2291e5b200ac8c7c3b92560405160405180910390a45050565b6000815160001415611a775750600061062c565b506020015190565b6000806001611a95611a9088612278565b6122fb565b84878760405160008152602001604052604051808581526020018460ff1681526020018381526020018281526020019450505050506020604051602081039080840390855afa158015611aec573d6000803e3d6000fd5b5050604051601f1901519150506001600160a01b038116611b48576040805162461bcd60e51b8152602060048201526011602482015270496e76616c6964207369676e617475726560781b604482015290519081900360640190fd5b866001600160a01b0316816001600160a01b03161491505095945050505050565b600082820183811015611802576040805162461bcd60e51b815260206004820152601b60248201527f536166654d6174683a206164646974696f6e206f766572666c6f770000000000604482015290519081900360640190fd5b815160601c6000611bd26119e5565b90508360400151600081518110611be557fe5b6020026020010151600001516001600160a01b0316826001600160a01b031614611c215760405162461bcd60e51b8152600401610c0590614be8565b83608001515184604001515114611c3757600080fd5b806001600160a01b0316826001600160a01b03161480611c5c5750611c5c82826117f6565b611c785760405162461bcd60e51b8152600401610c0590614c6f565b6000611c8385612347565b905060005b856040015151811015611cf957600086604001518281518110611ca757fe5b6020026020010151600001519050836001600160a01b0316816001600160a01b031614611cf057611cf0818489608001518581518110611ce357fe5b602002602001015161258e565b50600101611c88565b50611d08848660000151612599565b611d1a856000015186606001516125b3565b611d2c856000015186604001516127a2565b611d3e85600001518660200151612951565b5050505050565b600061180283836129b5565b826001600160a01b0316611d6482611172565b6001600160a01b031614611da95760405162461bcd60e51b81526004018080602001828103825260298152602001806150136029913960400191505060405180910390fd5b6001600160a01b038216611dee5760405162461bcd60e51b8152600401808060200182810382526024815260200180614e216024913960400191505060405180910390fd5b611df98383836107fc565b611e046000826119f4565b6001600160a01b0380841660008181526101006020908152604080832080546000190190559386168083528483208054600101905585835260ff90915283822080546001600160a01b0319168217905592518493929160008051602061508c83398151915291a4505050565b600054610100900460ff1680611e895750611e896129e2565b80611e97575060005460ff16155b611ed25760405162461bcd60e51b815260040180806020018281038252602e815260200180614f1e602e913960400191505060405180910390fd5b600054610100900460ff16158015611efd576000805460ff1961ff0019909116610100171660011790555b611f06856120d2565b611f0e6129f3565b611f16612a94565b611f1e6129f3565b611f26612b31565b611f2e612bce565b611f366129f3565b611f3e612cc7565b611f466129f3565b611f4f84612d96565b611f598787612e5d565b611f64836001612f48565b611f6f826001612f48565b8015611f81576000805461ff00191690555b50505050505050565b7f36c25de3e541d5d970f66e4210d728721220fff5c077cc6cd008b3a0c62adab78280519060200120828051906020012030611fc4612fa9565b60405160200180868152602001858152602001848152602001836001600160a01b0316815260200182815260200195505050505050604051602081830303815290604052805190602001206102f8819055505050565b600090815261010360205260409020805460ff19166001179055565b600061204182611172565b905061204f816000846107fc565b61205a6000836119f4565b61206382612fb3565b6001600160a01b038116600090815261010060209081526040808320805460001901905584835260ff909152902080546001600160a01b03191690556120a88261201a565b60405182906000906001600160a01b0384169060008051602061508c833981519152908390a45050565b8051610c18906101c89060208401906141d4565b6120f1848484611d51565b6120fd84848484612fbc565b6116985760405162461bcd60e51b8152600401808060200182810382526032815260200180614d866032913960400191505060405180910390fd5b606061062982613172565b60008381526101c66020526040812054905b81811015611d3e5760008581526101c66020526040902080546001600160a01b03861691908390811061218457fe5b6000918252602090912001546001600160a01b031614156121e75760008581526101c6602052604090208054849190839081106121bd57fe5b600091825260209091200180546001600160a01b0319166001600160a01b03929092169190911790555b600101612155565b6001600160a01b038116600090815261012f602052604081205460ff16806118025750611802838361334d565b60003330141561227357600080368080601f0160208091040260200160405190810160405280939291908181526020018383808284376000920191909152505050503601516001600160a01b031691506106c59050565b503390565b6000604051806080016040528060438152602001614db860439139805190602001208260000151836020015184604001518051906020012060405160200180858152602001848152602001836001600160a01b03168152602001828152602001945050505050604051602081830303815290604052805190602001209050919050565b600061230561337c565b82604051602001808061190160f01b81525060020183815260200182815260200192505050604051602081830303815290604052805190602001209050919050565b6000808260600151516001600160401b038111801561236557600080fd5b5060405190808252806020026020018201604052801561238f578160200160208202803683370190505b50905060005b8360600151518110156123e1576123c2846060015182815181106123b557fe5b6020026020010151613383565b8282815181106123ce57fe5b6020908102919091010152600101612395565b5060008360400151516001600160401b03811180156123ff57600080fd5b50604051908082528060200260200182016040528015612429578160200160208202803683370190505b50905060005b84604001515181101561246e5761244f856040015182815181106123b557fe5b82828151811061245b57fe5b602090810291909101015260010161242f565b507ff64326045af5fd7e15297ba939f85b550474d3899daa47d2bc1ffbdb9ced344e84600001518560200151805190602001208360405160200180828051906020019060200280838360005b838110156124d25781810151838201526020016124ba565b50505050905001915050604051602081830303815290604052805190602001208560405160200180828051906020019060200280838360005b8381101561252357818101518382015260200161250b565b505050509050019150506040516020818303038152906040528051906020012060405160200180868152602001858152602001848152602001838152602001828152602001955050505050506040516020818303038152906040528051906020012092505050919050565b6107fc8383836133f0565b610c1882826040518060200160405280600081525061366f565b6000805b82518110156127575760006001600160a01b03168382815181106125d757fe5b6020026020010151600001516001600160a01b0316141561263f576040805162461bcd60e51b815260206004820152601b60248201527f526563697069656e742073686f756c642062652070726573656e740000000000604482015290519081900360640190fd5b82818151811061264b57fe5b6020026020010151602001516001600160601b0316600014156126b5576040805162461bcd60e51b815260206004820181905260248201527f526f79616c74792076616c75652073686f756c6420626520706f736974697665604482015290519081900360640190fd5b8281815181106126c157fe5b6020026020010151602001516001600160601b0316820191506101c660008581526020019081526020016000208382815181106126fa57fe5b60209081029190910181015182546001818101855560009485529383902082519101805492909301516001600160601b0316600160a01b026001600160a01b039182166001600160a01b03199093169290921716179055016125b7565b5061271081106127985760405162461bcd60e51b81526004018080602001828103825260258152602001806150fe6025913960400191505060405180910390fd5b6107fc83836136c1565b60008281526101fb6020526040812090805b83518110156128f05760006001600160a01b03168482815181106127d457fe5b6020026020010151600001516001600160a01b031614156128075760405162461bcd60e51b8152600401610c0590614c38565b83818151811061281357fe5b6020026020010151602001516001600160601b0316600014156128485760405162461bcd60e51b8152600401610c0590614bb3565b8284828151811061285557fe5b602090810291909101810151825460018101845560009384529282902081519301805491909201516001600160601b0316600160a01b026001600160a01b039384166001600160a01b03199092169190911790921691909117905583516128e6908590839081106128c257fe5b6020026020010151602001516001600160601b031683611b6990919063ffffffff16565b91506001016127b4565b5080612710146129125760405162461bcd60e51b8152600401610c0590614cc0565b7f841ffb90d4cabdd1f16034f3fa831d79060febbb8167bdd54a49269365bdf78f8484604051612943929190614d17565b60405180910390a150505050565b61295a826119c8565b6129955760405162461bcd60e51b815260040180806020018281038252602c815260200180614fc7602c913960400191505060405180910390fd5b60008281526101c76020908152604090912082516107fc928401906141d4565b6001600160a01b038216600090815261012f602052604081205460ff1680611802575061180283836136fe565b60006129ed3061379a565b15905090565b600054610100900460ff1680612a0c5750612a0c6129e2565b80612a1a575060005460ff16155b612a555760405162461bcd60e51b815260040180806020018281038252602e815260200180614f1e602e913960400191505060405180910390fd5b600054610100900460ff16158015612a80576000805460ff1961ff0019909116610100171660011790555b8015610fe0576000805461ff001916905550565b600054610100900460ff1680612aad5750612aad6129e2565b80612abb575060005460ff16155b612af65760405162461bcd60e51b815260040180806020018281038252602e815260200180614f1e602e913960400191505060405180910390fd5b600054610100900460ff16158015612b21576000805460ff1961ff0019909116610100171660011790555b612a8063656cb66560e11b6137a0565b600054610100900460ff1680612b4a5750612b4a6129e2565b80612b58575060005460ff16155b612b935760405162461bcd60e51b815260040180806020018281038252602e815260200180614f1e602e913960400191505060405180910390fd5b600054610100900460ff16158015612bbe576000805460ff1961ff0019909116610100171660011790555b612a806301ffc9a760e01b6137a0565b600054610100900460ff1680612be75750612be76129e2565b80612bf5575060005460ff16155b612c305760405162461bcd60e51b815260040180806020018281038252602e815260200180614f1e602e913960400191505060405180910390fd5b600054610100900460ff16158015612c5b576000805460ff1961ff0019909116610100171660011790555b6000612c656119e5565b603380546001600160a01b0319166001600160a01b038316908117909155604051919250906000907f8be0079c531659141344cd1fd0a4f28419497f9722a3daafe3b4186f6b6457e0908290a3508015610fe0576000805461ff001916905550565b600054610100900460ff1680612ce05750612ce06129e2565b80612cee575060005460ff16155b612d295760405162461bcd60e51b815260040180806020018281038252602e815260200180614f1e602e913960400191505060405180910390fd5b600054610100900460ff16158015612d54576000805460ff1961ff0019909116610100171660011790555b612a80604051806040016040528060078152602001664d696e7437323160c81b815250604051806040016040528060018152602001603160f81b815250613824565b600054610100900460ff1680612daf5750612daf6129e2565b80612dbd575060005460ff16155b612df85760405162461bcd60e51b815260040180806020018281038252602e815260200180614f1e602e913960400191505060405180910390fd5b600054610100900460ff16158015612e23576000805460ff1961ff0019909116610100171660011790555b8151612e379061022e9060208501906141d4565b50612e4863e8a3d48560e01b6137a0565b8015610c18576000805461ff00191690555050565b600054610100900460ff1680612e765750612e766129e2565b80612e84575060005460ff16155b612ebf5760405162461bcd60e51b815260040180806020018281038252602e815260200180614f1e602e913960400191505060405180910390fd5b600054610100900460ff16158015612eea576000805460ff1961ff0019909116610100171660011790555b8251612efd9060fd9060208601906141d4565b508151612f119060fe9060208501906141d4565b50612f226380ac58cd60e01b6137a0565b612f32635b5e139f60e01b6137a0565b80156107fc576000805461ff0019169055505050565b6001600160a01b038216600081815261012f6020908152604091829020805460ff1916851515908117909155825190815291517f270dbb8ba4292910ae92862466486be25c355c837270a3d8824b36a8bc7c653b9281900390910190a25050565b60006119ef6138e4565b610fe0816138e8565b6000612fd0846001600160a01b031661379a565b1561316657836001600160a01b031663150b7a02612fec6119e5565b8786866040518563ffffffff1660e01b815260040180856001600160a01b03168152602001846001600160a01b0316815260200183815260200180602001828103825283818151815260200191508051906020019080838360005b8381101561305f578181015183820152602001613047565b50505050905090810190601f16801561308c5780820380516001836020036101000a031916815260200191505b5095505050505050602060405180830381600087803b1580156130ae57600080fd5b505af19250505080156130d357506040513d60208110156130ce57600080fd5b505160015b61314c573d808015613101576040519150601f19603f3d011682016040523d82523d6000602084013e613106565b606091505b5080516131445760405162461bcd60e51b8152600401808060200182810382526032815260200180614d866032913960400191505060405180910390fd5b805181602001fd5b6001600160e01b031916630a85bd0160e11b14905061316a565b5060015b949350505050565b606061317d826119c8565b6131b85760405162461bcd60e51b815260040180806020018281038252602f81526020018061505d602f913960400191505060405180910390fd5b60008281526101c7602090815260408083208054825160026001831615610100026000190190921691909104601f81018590048502820185019093528281529290919083018282801561324c5780601f106132215761010080835404028352916020019161324c565b820191906000526020600020905b81548152906001019060200180831161322f57829003601f168201915b50505050509050600061325d6111c6565b90508051600014156132715750905061062c565b81511561328b5761328281836138f1565b9250505061062c565b8061329585613ad6565b6040516020018083805190602001908083835b602083106132c75780518252601f1990920191602091820191016132a8565b51815160209384036101000a600019018019909216911617905285519190930192850191508083835b6020831061330f5780518252601f1990920191602091820191016132f0565b6001836020036101000a0380198251168184511680821785525050505050509050019250505060405160208183030381529060405292505050919050565b6001600160a01b0391821660009081526101026020908152604080832093909416825291909152205460ff1690565b6102f85490565b8051602091820151604080517f397e04204c1e1a60ee8724b71f8244e10ab5f2e9009854d80f602bda21b59ebb818601526001600160a01b03909316838201526001600160601b039091166060808401919091528151808403909101815260809092019052805191012090565b60006133fb83613bb0565b90506000825160411415613416576134138284613bba565b90505b846001600160a01b0316816001600160a01b031614611d3e57613441856001600160a01b031661379a565b156135f75760408051630b135d3f60e11b808252600482018581526024830193845286516044840152865191936001600160a01b038a1693631626ba7e9388938a9390929091606490910190602085019080838360005b838110156134b0578181015183820152602001613498565b50505050905090810190601f1680156134dd5780820380516001836020036101000a031916815260200191505b50935050505060206040518083038186803b1580156134fb57600080fd5b505afa15801561350f573d6000803e3d6000fd5b505050506040513d602081101561352557600080fd5b505160408051808201909152601c81527f7369676e617475726520766572696669636174696f6e206572726f72000000006020820152916001600160e01b0319909116146135f15760405162461bcd60e51b81526004018080602001828103825283818151815260200191508051906020019080838360005b838110156135b657818101518382015260200161359e565b50505050905090810190601f1680156135e35780820380516001836020036101000a031916815260200191505b509250505060405180910390fd5b50611d3e565b604080518082018252601c81527f7369676e617475726520766572696669636174696f6e206572726f72000000006020808301918252925162461bcd60e51b815260048101938452825160248201528251929392839260449092019190808383600083156135b657818101518382015260200161359e565b6136798383613c3a565b6136866000848484612fbc565b6107fc5760405162461bcd60e51b8152600401808060200182810382526032815260200180614d866032913960400191505060405180910390fd5b7f3fa96d7b6bcbfe71ef171666d84db3cf52fa2d1c8afdb1cc8e486177f208b7df82826040516136f2929190614d17565b60405180910390a15050565b6000613709826119c8565b6137445760405162461bcd60e51b815260040180806020018281038252602c815260200180614e67602c913960400191505060405180910390fd5b600061374f83611172565b9050806001600160a01b0316846001600160a01b0316148061378a5750836001600160a01b031661377f846106c8565b6001600160a01b0316145b8061316a575061316a81856117f6565b3b151590565b6001600160e01b031980821614156137ff576040805162461bcd60e51b815260206004820152601c60248201527f4552433136353a20696e76616c696420696e7465726661636520696400000000604482015290519081900360640190fd5b6001600160e01b0319166000908152606560205260409020805460ff19166001179055565b600054610100900460ff168061383d575061383d6129e2565b8061384b575060005460ff16155b6138865760405162461bcd60e51b815260040180806020018281038252602e815260200180614f1e602e913960400191505060405180910390fd5b600054610100900460ff161580156138b1576000805460ff1961ff0019909116610100171660011790555b825160208085019190912083519184019190912060979190915560985580156107fc576000805461ff0019169055505050565b4690565b610fe081613da0565b805182516060918491849110156139bc5784846040516020018083805190602001908083835b602083106139365780518252601f199092019160209182019101613917565b51815160209384036101000a600019018019909216911617905285519190930192850191508083835b6020831061397e5780518252601f19909201916020918201910161395f565b6001836020036101000a0380198251168184511680821785525050505050509050019250505060405160208183030381529060405292505050611805565b60005b8251811015613acc578281815181106139d457fe5b602001015160f81c60f81b6001600160f81b0319168282815181106139f557fe5b01602001516001600160f81b03191614613ac45785856040516020018083805190602001908083835b60208310613a3d5780518252601f199092019160209182019101613a1e565b51815160209384036101000a600019018019909216911617905285519190930192850191508083835b60208310613a855780518252601f199092019160209182019101613a66565b6001836020036101000a038019825116818451168082178552505050505050905001925050506040516020818303038152906040529350505050611805565b6001016139bf565b5092949350505050565b606081613afb57506040805180820190915260018152600360fc1b602082015261062c565b8160005b8115613b1357600101600a82049150613aff565b6000816001600160401b0381118015613b2b57600080fd5b506040519080825280601f01601f191660200182016040528015613b56576020820181803683370190505b50859350905060001982015b8315613ba757600a840660300160f81b82828060019003935081518110613b8557fe5b60200101906001600160f81b031916908160001a905350600a84049350613b62565b50949350505050565b6000612305613de0565b60008151604114613c12576040805162461bcd60e51b815260206004820152601f60248201527f45434453413a20696e76616c6964207369676e6174757265206c656e67746800604482015290519081900360640190fd5b60208201516040830151606084015160001a613c3086828585613e1b565b9695505050505050565b6001600160a01b038216613c95576040805162461bcd60e51b815260206004820181905260248201527f4552433732313a206d696e7420746f20746865207a65726f2061646472657373604482015290519081900360640190fd5b6000818152610103602052604090205460ff1615613cf1576040805162461bcd60e51b81526020600482015260146024820152731d1bdad95b88185b1c9958591e48189d5c9b995960621b604482015290519081900360640190fd5b613cfa816119c8565b15613d4c576040805162461bcd60e51b815260206004820152601c60248201527f4552433732313a20746f6b656e20616c7265616479206d696e74656400000000604482015290519081900360640190fd5b613d58600083836107fc565b6001600160a01b0382166000818152610100602090815260408083208054600101905584835260ff909152902080546001600160a01b0319169091179055610c188282614071565b60008181526101c760205260409020546002600019610100600184161502019091160415610fe05760008181526101c760205260408120610fe091614260565b60006119ef7f8b73c3c69bb8fe3d512ecc4cf759cc79239f7b179b0ffacaa9a75d522b39400f613e0e61407b565b613e16614081565b614087565b60007f7fffffffffffffffffffffffffffffff5d576e7357a4501ddfe92f46681b20a0821115613e7c5760405162461bcd60e51b8152600401808060200182810382526022815260200180614e456022913960400191505060405180910390fd5b6000601e8560ff161115613f56576004850360ff16601b1480613ea557506004850360ff16601c145b613ee05760405162461bcd60e51b8152600401808060200182810382526022815260200180614f4c6022913960400191505060405180910390fd5b6001613eeb876140e9565b60048703868660405160008152602001604052604051808581526020018460ff1681526020018381526020018281526020019450505050506020604051602081039080840390855afa158015613f45573d6000803e3d6000fd5b50505060206040510351905061400d565b8460ff16601b1480613f6b57508460ff16601c145b613fa65760405162461bcd60e51b8152600401808060200182810382526022815260200180614f4c6022913960400191505060405180910390fd5b60018686868660405160008152602001604052604051808581526020018460ff1681526020018381526020018281526020019450505050506020604051602081039080840390855afa158015614000573d6000803e3d6000fd5b5050506020604051035190505b6001600160a01b038116614068576040805162461bcd60e51b815260206004820152601860248201527f45434453413a20696e76616c6964207369676e61747572650000000000000000604482015290519081900360640190fd5b95945050505050565b610c18828261413a565b60975490565b60985490565b60008383836140946138e4565b3060405160200180868152602001858152602001848152602001838152602001826001600160a01b03168152602001955050505050506040516020818303038152906040528051906020012090509392505050565b604080517f19457468657265756d205369676e6564204d6573736167653a0a333200000000602080830191909152603c8083019490945282518083039094018452605c909101909152815191012090565b606081901c6001600160a01b03831681146141a95760405182906001600160a01b0383169060009060008051602061508c833981519152908290a481836001600160a01b0316826001600160a01b031660008051602061508c83398151915260405160405180910390a46107fc565b60405182906001600160a01b0385169060009060008051602061508c833981519152908290a4505050565b828054600181600116156101000203166002900490600052602060002090601f01602090048101928261420a5760008555614250565b82601f1061422357805160ff1916838001178555614250565b82800160010185558215614250579182015b82811115614250578251825591602001919060010190614235565b5061425c9291506142a0565b5090565b50805460018160011615610100020316600290046000825580601f106142865750610fe0565b601f016020900490600052602060002090810190610fe091905b5b8082111561425c57600081556001016142a1565b803561062c81614d70565b600082601f8301126142d0578081fd5b813560206142e56142e083614d53565b614d30565b8281528181019085830183850287018401881015614301578586fd5b855b8581101561432857813561431681614d70565b84529284019290840190600101614303565b5090979650505050505050565b600082601f830112614345578081fd5b813560206143556142e083614d53565b82815281810190858301855b8581101561432857614378898684358b0101614445565b84529284019290840190600101614361565b600082601f83011261439a578081fd5b813560206143aa6142e083614d53565b828152818101908583016040808602880185018910156143c8578687fd5b865b868110156144375781838b0312156143e0578788fd5b81518281018181106001600160401b03821117156143fa57fe5b8352833561440781614d70565b8152838701356001600160601b038116811461442157898afd5b81880152855293850193918101916001016143ca565b509198975050505050505050565b600082601f830112614455578081fd5b81356001600160401b0381111561446857fe5b61447b601f8201601f1916602001614d30565b81815284602083860101111561448f578283fd5b816020850160208301379081016020019190915292915050565b600060a082840312156144ba578081fd5b6144c460a0614d30565b90508135815260208201356001600160401b03808211156144e457600080fd5b6144f085838601614445565b6020840152604084013591508082111561450957600080fd5b6145158583860161438a565b6040840152606084013591508082111561452e57600080fd5b61453a8583860161438a565b6060840152608084013591508082111561455357600080fd5b5061456084828501614335565b60808301525092915050565b60006020828403121561457d578081fd5b813561180281614d70565b6000806040838503121561459a578081fd5b82356145a581614d70565b915060208301356145b581614d70565b809150509250929050565b6000806000606084860312156145d4578081fd5b83356145df81614d70565b925060208401356145ef81614d70565b929592945050506040919091013590565b60008060008060808587031215614615578182fd5b843561462081614d70565b9350602085013561463081614d70565b92506040850135915060608501356001600160401b03811115614651578182fd5b61465d87828801614445565b91505092959194509250565b6000806040838503121561467b578182fd5b823561468681614d70565b9150602083013580151581146145b5578182fd5b600080600080600060a086880312156146b1578283fd5b85356146bc81614d70565b945060208601356001600160401b038111156146d6578384fd5b6146e288828901614445565b9450506040860135925060608601359150608086013560ff81168114614706578182fd5b809150509295509295909350565b60008060408385031215614726578182fd5b823561473181614d70565b946020939093013593505050565b600060208284031215614750578081fd5b81356001600160e01b031981168114611802578182fd5b600060208284031215614778578081fd5b81356001600160401b0381111561478d578182fd5b61316a84828501614445565b60008060008060008060c087890312156147b1578384fd5b86356001600160401b03808211156147c7578586fd5b6147d38a838b01614445565b975060208901359150808211156147e8578586fd5b6147f48a838b01614445565b96506040890135915080821115614809578586fd5b6148158a838b01614445565b9550606089013591508082111561482a578283fd5b5061483789828a01614445565b935050614846608088016142b5565b915061485460a088016142b5565b90509295509295509295565b600080600080600080600060e0888a03121561487a578485fd5b87356001600160401b0380821115614890578687fd5b61489c8b838c01614445565b985060208a01359150808211156148b1578687fd5b6148bd8b838c01614445565b975060408a01359150808211156148d2578687fd5b6148de8b838c01614445565b965060608a01359150808211156148f3578283fd5b6148ff8b838c01614445565b955060808a0135915080821115614914578283fd5b506149218a828b016142c0565b93505061493060a089016142b5565b915061493e60c089016142b5565b905092959891949750929550565b6000806040838503121561495e578182fd5b82356001600160401b03811115614973578283fd5b61497f858286016144a9565b92505060208301356145b581614d70565b6000806000606084860312156149a4578081fd5b83356001600160401b038111156149b9578182fd5b6149c5868287016144a9565b93505060208401356149d681614d70565b915060408401356149e681614d70565b809150509250925092565b600060208284031215614a02578081fd5b5035919050565b600080600060608486031215614a1d578081fd5b8335925060208401356149d681614d70565b60008060408385031215614a41578182fd5b50508035926020909101359150565b6000815180845260208085019450808401835b83811015614a9c57815180516001600160a01b031688528301516001600160601b03168388015260409096019590820190600101614a63565b509495945050505050565b60008151808452815b81811015614acc57602081850181015186830182015201614ab0565b81811115614add5782602083870101525b50601f01601f19169290920160200192915050565b6001600160a01b0391909116815260200190565b6001600160a01b0384168152606060208201819052600090614b2a90830185614aa7565b8281036040840152613c308185614aa7565b6001600160a01b03929092168252602082015260400190565b6000602082526118026020830184614a50565b901515815260200190565b6000602082526118026020830184614aa7565b6020808252601390820152723737ba1037bbb732b91037b91036b4b73a32b960691b604082015260600190565b6020808252818101527f43726561746f722073686172652073686f756c6420626520706f736974697665604082015260600190565b6020808252601190820152701d1bdad95b9259081a5b98dbdc9c9958dd607a1b604082015260600190565b6020808252600b908201526a1b9bdd08185b1b1bddd95960aa1b604082015260600190565b60208082526019908201527f4163636f756e742073686f756c642062652070726573656e7400000000000000604082015260600190565b60208082526031908201527f4552433732313a207472616e736665722063616c6c6572206973206e6f74206f6040820152701ddb995c881b9bdc88185c1c1c9bdd9959607a1b606082015260800190565b6020808252602e908201527f746f74616c20616d6f756e74206f662063726561746f7273207368617265207360408201526d0686f756c642062652031303030360941b606082015260800190565b90815260200190565b60008382526040602083015261316a6040830184614a50565b6040518181016001600160401b0381118282101715614d4b57fe5b604052919050565b60006001600160401b03821115614d6657fe5b5060209081020190565b6001600160a01b0381168114610fe057600080fdfe4552433732313a207472616e7366657220746f206e6f6e20455243373231526563656976657220696d706c656d656e7465724d6574615472616e73616374696f6e2875696e74323536206e6f6e63652c616464726573732066726f6d2c62797465732066756e6374696f6e5369676e6174757265294f776e61626c653a206e6577206f776e657220697320746865207a65726f20616464726573734552433732313a207472616e7366657220746f20746865207a65726f206164647265737345434453413a20696e76616c6964207369676e6174757265202773272076616c75654552433732313a206f70657261746f7220717565727920666f72206e6f6e6578697374656e7420746f6b656e4552433732313a20617070726f76652063616c6c6572206973206e6f74206f776e6572206e6f7220617070726f76656420666f7220616c6c4552433732313a2062616c616e636520717565727920666f7220746865207a65726f20616464726573734552433732313a206f776e657220717565727920666f72206e6f6e6578697374656e7420746f6b656e496e697469616c697a61626c653a20636f6e747261637420697320616c726561647920696e697469616c697a656445434453413a20696e76616c6964207369676e6174757265202776272076616c75654552433732314275726e61626c653a2063616c6c6572206973206e6f74206f776e65722c206e6f74206275726e4552433732313a20617070726f76656420717565727920666f72206e6f6e6578697374656e7420746f6b656e4552433732314d657461646174613a2055524920736574206f66206e6f6e6578697374656e7420746f6b656e4f776e61626c653a2063616c6c6572206973206e6f7420746865206f776e65724552433732313a207472616e73666572206f6620746f6b656e2074686174206973206e6f74206f776e5369676e657220616e64207369676e617475726520646f206e6f74206d617463684552433732314d657461646174613a2055524920717565727920666f72206e6f6e6578697374656e7420746f6b656eddf252ad1be2c89b69c2b068fc378daa952ba7f163c4a11628f55a4df523b3ef4552433732313a20617070726f76616c20746f2063757272656e74206f776e65724552433732313a207472616e736665722063616c6c6572206973206e6f74206f776e6572206e6f7220617070726f766564526f79616c747920746f74616c2076616c75652073686f756c64206265203c2031303030304552433732314275726e61626c653a2063616c6c6572206973206e6f74206f776e6572206e6f7220617070726f766564a2646970667358221220a551cef0d49767ff9a20e691e15a23d109a88dbef6cbeeae80cef7fe7d31407764736f6c63430007060033",
  "immutableReferences": {},
  "source": "// SPDX-License-Identifier: MIT\n\npragma solidity 0.7.6;\npragma abicoder v2;\n\nimport \"@rarible/meta-tx/contracts/EIP712MetaTransaction.sol\";\nimport \"../ERC721BaseMinimal.sol\";\nimport \"../../IsPrivateCollection.sol\";\nimport \"../../access/MinterAccessControl.sol\";\n\ncontract ERC721RaribleMeta is ERC721BaseMinimal, IsPrivateCollection, MinterAccessControl, EIP712MetaTransaction {\n    event CreateERC721Rarible(address owner, string name, string symbol);\n    event CreateERC721RaribleUser(address owner, string name, string symbol);\n\n    function __ERC721RaribleUser_init(string memory _name, string memory _symbol, string memory baseURI, string memory contractURI, address[] memory operators, address transferProxy, address lazyTransferProxy) external {\n        __ERC721Rarible_init_unchained(_name, _symbol, baseURI, contractURI, transferProxy, lazyTransferProxy);\n\n        for(uint i = 0; i < operators.length; i++) {\n            setApprovalForAll(operators[i], true);\n        }\n\n        __MetaTransaction_init_unchained(\"ERC721RaribleUserMeta\", \"1\");\n\n        isPrivate = true;\n\n        emit CreateERC721RaribleUser(_msgSender(), _name, _symbol);\n    }\n\n    function __ERC721Rarible_init(string memory _name, string memory _symbol, string memory baseURI, string memory contractURI, address transferProxy, address lazyTransferProxy) external {\n        __ERC721Rarible_init_unchained(_name, _symbol, baseURI, contractURI, transferProxy, lazyTransferProxy);\n\n        __MetaTransaction_init_unchained(\"ERC721RaribleMeta\", \"1\");\n\n        isPrivate = false;\n\n        emit CreateERC721Rarible(_msgSender(), _name, _symbol);\n    }\n\n    function _msgSender() internal view virtual override(ContextUpgradeable, EIP712MetaTransaction) returns (address payable) {\n        return super._msgSender();\n    }\n\n    function __ERC721Rarible_init_unchained(string memory _name, string memory _symbol, string memory baseURI, string memory contractURI, address transferProxy, address lazyTransferProxy) internal initializer {\n        _setBaseURI(baseURI);\n        __ERC721Lazy_init_unchained();\n        __RoyaltiesV2Upgradeable_init_unchained();\n        __Context_init_unchained();\n        __ERC165_init_unchained();\n        __Ownable_init_unchained();\n        __ERC721Burnable_init_unchained();\n        __Mint721Validator_init_unchained();\n        __MinterAccessControl_init_unchained();\n        __HasContractURI_init_unchained(contractURI);\n        __ERC721_init_unchained(_name, _symbol);\n\n        //setting default approver for transferProxies\n        _setDefaultApproval(transferProxy, true);\n        _setDefaultApproval(lazyTransferProxy, true);\n    }\n\n    function mintAndTransfer(LibERC721LazyMint.Mint721Data memory data, address to) public override virtual {\n        if (isPrivate){\n            require(owner() == data.creators[0].account || isMinter(data.creators[0].account), \"not owner or minter\");\n        }\n        super.mintAndTransfer(data, to);\n    }\n}\n",
  "sourcePath": "@rarible/tokens/contracts/erc-721-minimal/erc-721-minimal-meta/ERC721RaribleMeta.sol",
  "compiler": {
    "name": "solc",
    "version": "0.7.6+commit.7338295f.Emscripten.clang"
  },
  "schemaVersion": "3.4.3",
  "updatedAt": "2022-07-26T06:48:00.113Z",
  "devdoc": {
    "kind": "dev",
    "methods": {
      "addMinter(address)": {
        "details": "Add `_minter` to the list of allowed minters."
      },
      "approve(address,uint256)": {
        "details": "See {IERC721-approve}."
      },
      "balanceOf(address)": {
        "details": "See {IERC721-balanceOf}."
      },
      "baseURI()": {
        "details": "Returns the base URI set via {_setBaseURI}. This will be automatically added as a prefix in {tokenURI} to each token's URI, or to the token ID if no specific URI is set for that token ID."
      },
      "burn(uint256)": {
        "details": "Burns `tokenId`. See {ERC721-_burn}. Requirements: - The caller must own `tokenId` or be an approved operator."
      },
      "getApproved(uint256)": {
        "details": "See {IERC721-getApproved}."
      },
      "isMinter(address)": {
        "details": "Returns `true` if `account` has been granted to minters."
      },
      "name()": {
        "details": "See {IERC721Metadata-name}."
      },
      "owner()": {
        "details": "Returns the address of the current owner."
      },
      "ownerOf(uint256)": {
        "details": "See {IERC721-ownerOf}."
      },
      "removeMinter(address)": {
        "details": "Revoke `_minter` from the list of allowed minters."
      },
      "renounceOwnership()": {
        "details": "Leaves the contract without owner. It will not be possible to call `onlyOwner` functions anymore. Can only be called by the current owner. NOTE: Renouncing ownership will leave the contract without an owner, thereby removing any functionality that is only available to the owner."
      },
      "safeTransferFrom(address,address,uint256)": {
        "details": "See {IERC721-safeTransferFrom}."
      },
      "safeTransferFrom(address,address,uint256,bytes)": {
        "details": "See {IERC721-safeTransferFrom}."
      },
      "setApprovalForAll(address,bool)": {
        "details": "See {IERC721-setApprovalForAll}."
      },
      "symbol()": {
        "details": "See {IERC721Metadata-symbol}."
      },
      "transferFrom(address,address,uint256)": {
        "details": "See {IERC721-transferFrom}."
      },
      "transferOwnership(address)": {
        "details": "Transfers ownership of the contract to a new account (`newOwner`). Can only be called by the current owner."
      }
    },
    "version": 1
  },
  "userdoc": {
    "kind": "user",
    "methods": {},
    "version": 1
  }
}