{
  "contractName": "ERC721RaribleMinimal",
  "abi": [
    {
      "anonymous": false,
      "inputs": [
        {
          "indexed": true,
          "internalType": "address",
          "name": "owner",
          "type": "address"
        },
        {
          "indexed": true,
          "internalType": "address",
          "name": "approved",
          "type": "address"
        },
        {
          "indexed": true,
          "internalType": "uint256",
          "name": "tokenId",
          "type": "uint256"
        }
      ],
      "name": "Approval",
      "type": "event"
    },
    {
      "anonymous": false,
      "inputs": [
        {
          "indexed": true,
          "internalType": "address",
          "name": "owner",
          "type": "address"
        },
        {
          "indexed": true,
          "internalType": "address",
          "name": "operator",
          "type": "address"
        },
        {
          "indexed": false,
          "internalType": "bool",
          "name": "approved",
          "type": "bool"
        }
      ],
      "name": "ApprovalForAll",
      "type": "event"
    },
    {
      "anonymous": false,
      "inputs": [
        {
          "indexed": false,
          "internalType": "string",
          "name": "newBaseURI",
          "type": "string"
        }
      ],
      "name": "BaseUriChanged",
      "type": "event"
    },
    {
      "anonymous": false,
      "inputs": [
        {
          "indexed": false,
          "internalType": "address",
          "name": "owner",
          "type": "address"
        },
        {
          "indexed": false,
          "internalType": "string",
          "name": "name",
          "type": "string"
        },
        {
          "indexed": false,
          "internalType": "string",
          "name": "symbol",
          "type": "string"
        }
      ],
      "name": "CreateERC721Rarible",
      "type": "event"
    },
    {
      "anonymous": false,
      "inputs": [
        {
          "indexed": false,
          "internalType": "address",
          "name": "owner",
          "type": "address"
        },
        {
          "indexed": false,
          "internalType": "string",
          "name": "name",
          "type": "string"
        },
        {
          "indexed": false,
          "internalType": "string",
          "name": "symbol",
          "type": "string"
        }
      ],
      "name": "CreateERC721RaribleUser",
      "type": "event"
    },
    {
      "anonymous": false,
      "inputs": [
        {
          "indexed": false,
          "internalType": "uint256",
          "name": "tokenId",
          "type": "uint256"
        },
        {
          "components": [
            {
              "internalType": "address payable",
              "name": "account",
              "type": "address"
            },
            {
              "internalType": "uint96",
              "name": "value",
              "type": "uint96"
            }
          ],
          "indexed": false,
          "internalType": "struct LibPart.Part[]",
          "name": "creators",
          "type": "tuple[]"
        }
      ],
      "name": "Creators",
      "type": "event"
    },
    {
      "anonymous": false,
      "inputs": [
        {
          "indexed": true,
          "internalType": "address",
          "name": "operator",
          "type": "address"
        },
        {
          "indexed": false,
          "internalType": "bool",
          "name": "hasApproval",
          "type": "bool"
        }
      ],
      "name": "DefaultApproval",
      "type": "event"
    },
    {
      "anonymous": false,
      "inputs": [
        {
          "indexed": true,
          "internalType": "address",
          "name": "minter",
          "type": "address"
        },
        {
          "indexed": true,
          "internalType": "bool",
          "name": "status",
          "type": "bool"
        }
      ],
      "name": "MinterStatusChanged",
      "type": "event"
    },
    {
      "anonymous": false,
      "inputs": [
        {
          "indexed": true,
          "internalType": "address",
          "name": "previousOwner",
          "type": "address"
        },
        {
          "indexed": true,
          "internalType": "address",
          "name": "newOwner",
          "type": "address"
        }
      ],
      "name": "OwnershipTransferred",
      "type": "event"
    },
    {
      "anonymous": false,
      "inputs": [
        {
          "indexed": false,
          "internalType": "uint256",
          "name": "tokenId",
          "type": "uint256"
        },
        {
          "components": [
            {
              "internalType": "address payable",
              "name": "account",
              "type": "address"
            },
            {
              "internalType": "uint96",
              "name": "value",
              "type": "uint96"
            }
          ],
          "indexed": false,
          "internalType": "struct LibPart.Part[]",
          "name": "royalties",
          "type": "tuple[]"
        }
      ],
      "name": "RoyaltiesSet",
      "type": "event"
    },
    {
      "anonymous": false,
      "inputs": [
        {
          "indexed": true,
          "internalType": "address",
          "name": "from",
          "type": "address"
        },
        {
          "indexed": true,
          "internalType": "address",
          "name": "to",
          "type": "address"
        },
        {
          "indexed": true,
          "internalType": "uint256",
          "name": "tokenId",
          "type": "uint256"
        }
      ],
      "name": "Transfer",
      "type": "event"
    },
    {
      "inputs": [],
      "name": "OPERATOR_FILTER_REGISTRY",
      "outputs": [
        {
          "internalType": "address",
          "name": "",
          "type": "address"
        }
      ],
      "stateMutability": "view",
      "type": "function",
      "constant": true
    },
    {
      "inputs": [
        {
          "internalType": "address",
          "name": "minter",
          "type": "address"
        }
      ],
      "name": "addMinter",
      "outputs": [],
      "stateMutability": "nonpayable",
      "type": "function"
    },
    {
      "inputs": [
        {
          "internalType": "address[]",
          "name": "minters",
          "type": "address[]"
        }
      ],
      "name": "addMinters",
      "outputs": [],
      "stateMutability": "nonpayable",
      "type": "function"
    },
    {
      "inputs": [
        {
          "internalType": "address",
          "name": "operator",
          "type": "address"
        },
        {
          "internalType": "uint256",
          "name": "tokenId",
          "type": "uint256"
        }
      ],
      "name": "approve",
      "outputs": [],
      "stateMutability": "nonpayable",
      "type": "function"
    },
    {
      "inputs": [
        {
          "internalType": "address",
          "name": "owner",
          "type": "address"
        }
      ],
      "name": "balanceOf",
      "outputs": [
        {
          "internalType": "uint256",
          "name": "",
          "type": "uint256"
        }
      ],
      "stateMutability": "view",
      "type": "function",
      "constant": true
    },
    {
      "inputs": [],
      "name": "baseURI",
      "outputs": [
        {
          "internalType": "string",
          "name": "",
          "type": "string"
        }
      ],
      "stateMutability": "view",
      "type": "function",
      "constant": true
    },
    {
      "inputs": [
        {
          "internalType": "uint256",
          "name": "tokenId",
          "type": "uint256"
        }
      ],
      "name": "burn",
      "outputs": [],
      "stateMutability": "nonpayable",
      "type": "function"
    },
    {
      "inputs": [],
      "name": "contractURI",
      "outputs": [
        {
          "internalType": "string",
          "name": "",
          "type": "string"
        }
      ],
      "stateMutability": "view",
      "type": "function",
      "constant": true
    },
    {
      "inputs": [
        {
          "internalType": "uint256",
          "name": "tokenId",
          "type": "uint256"
        }
      ],
      "name": "getApproved",
      "outputs": [
        {
          "internalType": "address",
          "name": "",
          "type": "address"
        }
      ],
      "stateMutability": "view",
      "type": "function",
      "constant": true
    },
    {
      "inputs": [
        {
          "internalType": "uint256",
          "name": "_id",
          "type": "uint256"
        }
      ],
      "name": "getCreators",
      "outputs": [
        {
          "components": [
            {
              "internalType": "address payable",
              "name": "account",
              "type": "address"
            },
            {
              "internalType": "uint96",
              "name": "value",
              "type": "uint96"
            }
          ],
          "internalType": "struct LibPart.Part[]",
          "name": "",
          "type": "tuple[]"
        }
      ],
      "stateMutability": "view",
      "type": "function",
      "constant": true
    },
    {
      "inputs": [
        {
          "internalType": "uint256",
          "name": "id",
          "type": "uint256"
        }
      ],
      "name": "getRaribleV2Royalties",
      "outputs": [
        {
          "components": [
            {
              "internalType": "address payable",
              "name": "account",
              "type": "address"
            },
            {
              "internalType": "uint96",
              "name": "value",
              "type": "uint96"
            }
          ],
          "internalType": "struct LibPart.Part[]",
          "name": "",
          "type": "tuple[]"
        }
      ],
      "stateMutability": "view",
      "type": "function",
      "constant": true
    },
    {
      "inputs": [
        {
          "internalType": "address",
          "name": "owner",
          "type": "address"
        },
        {
          "internalType": "address",
          "name": "operator",
          "type": "address"
        }
      ],
      "name": "isApprovedForAll",
      "outputs": [
        {
          "internalType": "bool",
          "name": "",
          "type": "bool"
        }
      ],
      "stateMutability": "view",
      "type": "function",
      "constant": true
    },
    {
      "inputs": [
        {
          "internalType": "address",
          "name": "account",
          "type": "address"
        }
      ],
      "name": "isMinter",
      "outputs": [
        {
          "internalType": "bool",
          "name": "",
          "type": "bool"
        }
      ],
      "stateMutability": "view",
      "type": "function",
      "constant": true
    },
    {
      "inputs": [],
      "name": "name",
      "outputs": [
        {
          "internalType": "string",
          "name": "",
          "type": "string"
        }
      ],
      "stateMutability": "view",
      "type": "function",
      "constant": true
    },
    {
      "inputs": [],
      "name": "owner",
      "outputs": [
        {
          "internalType": "address",
          "name": "",
          "type": "address"
        }
      ],
      "stateMutability": "view",
      "type": "function",
      "constant": true
    },
    {
      "inputs": [
        {
          "internalType": "uint256",
          "name": "tokenId",
          "type": "uint256"
        }
      ],
      "name": "ownerOf",
      "outputs": [
        {
          "internalType": "address",
          "name": "",
          "type": "address"
        }
      ],
      "stateMutability": "view",
      "type": "function",
      "constant": true
    },
    {
      "inputs": [
        {
          "internalType": "address",
          "name": "_minter",
          "type": "address"
        }
      ],
      "name": "removeMinter",
      "outputs": [],
      "stateMutability": "nonpayable",
      "type": "function"
    },
    {
      "inputs": [],
      "name": "renounceOwnership",
      "outputs": [],
      "stateMutability": "nonpayable",
      "type": "function"
    },
    {
      "inputs": [
        {
          "internalType": "uint256",
          "name": "id",
          "type": "uint256"
        },
        {
          "internalType": "uint256",
          "name": "_salePrice",
          "type": "uint256"
        }
      ],
      "name": "royaltyInfo",
      "outputs": [
        {
          "internalType": "address",
          "name": "receiver",
          "type": "address"
        },
        {
          "internalType": "uint256",
          "name": "royaltyAmount",
          "type": "uint256"
        }
      ],
      "stateMutability": "view",
      "type": "function",
      "constant": true
    },
    {
      "inputs": [
        {
          "internalType": "address",
          "name": "from",
          "type": "address"
        },
        {
          "internalType": "address",
          "name": "to",
          "type": "address"
        },
        {
          "internalType": "uint256",
          "name": "tokenId",
          "type": "uint256"
        }
      ],
      "name": "safeTransferFrom",
      "outputs": [],
      "stateMutability": "nonpayable",
      "type": "function"
    },
    {
      "inputs": [
        {
          "internalType": "address",
          "name": "from",
          "type": "address"
        },
        {
          "internalType": "address",
          "name": "to",
          "type": "address"
        },
        {
          "internalType": "uint256",
          "name": "tokenId",
          "type": "uint256"
        },
        {
          "internalType": "bytes",
          "name": "data",
          "type": "bytes"
        }
      ],
      "name": "safeTransferFrom",
      "outputs": [],
      "stateMutability": "nonpayable",
      "type": "function"
    },
    {
      "inputs": [
        {
          "internalType": "address",
          "name": "operator",
          "type": "address"
        },
        {
          "internalType": "bool",
          "name": "approved",
          "type": "bool"
        }
      ],
      "name": "setApprovalForAll",
      "outputs": [],
      "stateMutability": "nonpayable",
      "type": "function"
    },
    {
      "inputs": [
        {
          "internalType": "string",
          "name": "newBaseURI",
          "type": "string"
        }
      ],
      "name": "setBaseURI",
      "outputs": [],
      "stateMutability": "nonpayable",
      "type": "function"
    },
    {
      "inputs": [
        {
          "internalType": "bytes4",
          "name": "interfaceId",
          "type": "bytes4"
        }
      ],
      "name": "supportsInterface",
      "outputs": [
        {
          "internalType": "bool",
          "name": "",
          "type": "bool"
        }
      ],
      "stateMutability": "view",
      "type": "function",
      "constant": true
    },
    {
      "inputs": [],
      "name": "symbol",
      "outputs": [
        {
          "internalType": "string",
          "name": "",
          "type": "string"
        }
      ],
      "stateMutability": "view",
      "type": "function",
      "constant": true
    },
    {
      "inputs": [
        {
          "internalType": "uint256",
          "name": "tokenId",
          "type": "uint256"
        }
      ],
      "name": "tokenURI",
      "outputs": [
        {
          "internalType": "string",
          "name": "",
          "type": "string"
        }
      ],
      "stateMutability": "view",
      "type": "function",
      "constant": true
    },
    {
      "inputs": [
        {
          "internalType": "address",
          "name": "from",
          "type": "address"
        },
        {
          "internalType": "address",
          "name": "to",
          "type": "address"
        },
        {
          "internalType": "uint256",
          "name": "tokenId",
          "type": "uint256"
        }
      ],
      "name": "transferFrom",
      "outputs": [],
      "stateMutability": "nonpayable",
      "type": "function"
    },
    {
      "inputs": [
        {
          "components": [
            {
              "internalType": "uint256",
              "name": "tokenId",
              "type": "uint256"
            },
            {
              "internalType": "string",
              "name": "tokenURI",
              "type": "string"
            },
            {
              "components": [
                {
                  "internalType": "address payable",
                  "name": "account",
                  "type": "address"
                },
                {
                  "internalType": "uint96",
                  "name": "value",
                  "type": "uint96"
                }
              ],
              "internalType": "struct LibPart.Part[]",
              "name": "creators",
              "type": "tuple[]"
            },
            {
              "components": [
                {
                  "internalType": "address payable",
                  "name": "account",
                  "type": "address"
                },
                {
                  "internalType": "uint96",
                  "name": "value",
                  "type": "uint96"
                }
              ],
              "internalType": "struct LibPart.Part[]",
              "name": "royalties",
              "type": "tuple[]"
            },
            {
              "internalType": "bytes[]",
              "name": "signatures",
              "type": "bytes[]"
            }
          ],
          "internalType": "struct LibERC721LazyMint.Mint721Data",
          "name": "data",
          "type": "tuple"
        },
        {
          "internalType": "address",
          "name": "from",
          "type": "address"
        },
        {
          "internalType": "address",
          "name": "to",
          "type": "address"
        }
      ],
      "name": "transferFromOrMint",
      "outputs": [],
      "stateMutability": "nonpayable",
      "type": "function"
    },
    {
      "inputs": [
        {
          "internalType": "address",
          "name": "newOwner",
          "type": "address"
        }
      ],
      "name": "transferOwnership",
      "outputs": [],
      "stateMutability": "nonpayable",
      "type": "function"
    },
    {
      "inputs": [
        {
          "internalType": "uint256",
          "name": "_id",
          "type": "uint256"
        },
        {
          "internalType": "address",
          "name": "_from",
          "type": "address"
        },
        {
          "internalType": "address",
          "name": "_to",
          "type": "address"
        }
      ],
      "name": "updateAccount",
      "outputs": [],
      "stateMutability": "nonpayable",
      "type": "function"
    },
    {
      "inputs": [
        {
          "internalType": "string",
          "name": "_name",
          "type": "string"
        },
        {
          "internalType": "string",
          "name": "_symbol",
          "type": "string"
        },
        {
          "internalType": "string",
          "name": "baseURI",
          "type": "string"
        },
        {
          "internalType": "string",
          "name": "contractURI",
          "type": "string"
        },
        {
          "internalType": "address[]",
          "name": "operators",
          "type": "address[]"
        },
        {
          "internalType": "address",
          "name": "transferProxy",
          "type": "address"
        },
        {
          "internalType": "address",
          "name": "lazyTransferProxy",
          "type": "address"
        },
        {
          "internalType": "address",
          "name": "subscribeTo",
          "type": "address"
        }
      ],
      "name": "__ERC721RaribleUser_init",
      "outputs": [],
      "stateMutability": "nonpayable",
      "type": "function"
    },
    {
      "inputs": [
        {
          "internalType": "string",
          "name": "_name",
          "type": "string"
        },
        {
          "internalType": "string",
          "name": "_symbol",
          "type": "string"
        },
        {
          "internalType": "string",
          "name": "baseURI",
          "type": "string"
        },
        {
          "internalType": "string",
          "name": "contractURI",
          "type": "string"
        },
        {
          "internalType": "address",
          "name": "transferProxy",
          "type": "address"
        },
        {
          "internalType": "address",
          "name": "lazyTransferProxy",
          "type": "address"
        },
        {
          "internalType": "address",
          "name": "subscribeTo",
          "type": "address"
        }
      ],
      "name": "__ERC721Rarible_init",
      "outputs": [],
      "stateMutability": "nonpayable",
      "type": "function"
    },
    {
      "inputs": [
        {
          "components": [
            {
              "internalType": "uint256",
              "name": "tokenId",
              "type": "uint256"
            },
            {
              "internalType": "string",
              "name": "tokenURI",
              "type": "string"
            },
            {
              "components": [
                {
                  "internalType": "address payable",
                  "name": "account",
                  "type": "address"
                },
                {
                  "internalType": "uint96",
                  "name": "value",
                  "type": "uint96"
                }
              ],
              "internalType": "struct LibPart.Part[]",
              "name": "creators",
              "type": "tuple[]"
            },
            {
              "components": [
                {
                  "internalType": "address payable",
                  "name": "account",
                  "type": "address"
                },
                {
                  "internalType": "uint96",
                  "name": "value",
                  "type": "uint96"
                }
              ],
              "internalType": "struct LibPart.Part[]",
              "name": "royalties",
              "type": "tuple[]"
            },
            {
              "internalType": "bytes[]",
              "name": "signatures",
              "type": "bytes[]"
            }
          ],
          "internalType": "struct LibERC721LazyMint.Mint721Data",
          "name": "data",
          "type": "tuple"
        },
        {
          "internalType": "address",
          "name": "to",
          "type": "address"
        }
      ],
      "name": "mintAndTransfer",
      "outputs": [],
      "stateMutability": "nonpayable",
      "type": "function"
    }
  ],
  "bytecode": "0x608060405234801561001057600080fd5b50614aed806100206000396000f3fe608060405234801561001057600080fd5b50600436106101fb5760003560e01c8063715018a61161011a578063a60c434e116100ad578063cad96cca1161007c578063cad96cca1461042c578063e07f23191461043f578063e8a3d48514610452578063e985e9c51461045a578063f2fde38b1461046d576101fb565b8063a60c434e146103e0578063aa271e1a146103f3578063b88d4fde14610406578063c87b56dd14610419576101fb565b80638da5cb5b116100e95780638da5cb5b146103aa57806395d89b41146103b2578063983b2d56146103ba578063a22cb465146103cd576101fb565b8063715018a61461035c57806371e2a65714610364578063832fbb2914610377578063891be9741461038a576101fb565b80633092afd51161019257806355f804b31161016157806355f804b31461030e5780636352211e146103215780636c0360eb1461033457806370a082311461033c576101fb565b80633092afd5146102cd57806341f43434146102e057806342842e0e146102e857806342966c68146102fb576101fb565b80630a6d8989116101ce5780630a6d89891461027357806322a775b61461028657806323b872dd146102995780632a55205a146102ac576101fb565b806301ffc9a71461020057806306fdde0314610229578063081812fc1461023e578063095ea7b31461025e575b600080fd5b61021361020e3660046140ba565b610480565b6040516102209190614506565b60405180910390f35b610231610493565b6040516102209190614511565b61025161024c36600461438f565b610529565b6040516102209190614490565b61027161026c36600461405d565b61058c565b005b6102716102813660046141ed565b6105a5565b6102716102943660046142ea565b61060e565b6102716102a7366004613f83565b6106b0565b6102bf6102ba3660046143cd565b6106db565b6040516102209291906144da565b6102716102db366004613f2f565b6107e9565b610251610899565b6102716102f6366004613f83565b6108b1565b61027161030936600461438f565b6108d6565b61027161031c3660046140e2565b6109a6565b61025161032f36600461438f565b610a4b565b610231610a9f565b61034f61034a366004613f2f565b610b01565b60405161022091906146d7565b610271610b65565b610271610372366004614088565b610c11565b61027161038536600461432e565b610cf6565b61039d61039836600461438f565b610d71565b60405161022091906144f3565b610251610e01565b610231610e10565b6102716103c8366004613f2f565b610e71565b6102716103db36600461402c565b610f26565b6102716103ee366004614114565b610f3a565b610213610401366004613f2f565b610f9f565b610271610414366004613fc3565b610fbe565b61023161042736600461438f565b610feb565b61039d61043a36600461438f565b610ff6565b61027161044d3660046143a7565b611071565b6102316110b4565b610213610468366004613f4b565b611143565b61027161047b366004613f2f565b611158565b600061048b8261125b565b90505b919050565b60fd8054604080516020601f600260001961010060018816150201909516949094049384018190048102820181019092528281526060939092909183018282801561051f5780601f106104f45761010080835404028352916020019161051f565b820191906000526020600020905b81548152906001019060200180831161050257829003601f168201915b5050505050905090565b600061053482611315565b61056f5760405162461bcd60e51b815260040180806020018281038252602c815260200180614921602c913960400191505060405180910390fd5b50600090815261010160205260409020546001600160a01b031690565b8161059681611332565b6105a08383611427565b505050565b6105b4888888888787876114f8565b610292805460ff191660011790557fd901a467fa419f379a67636a1de44cc2ed772beb43a0c05fa1ddcad5d59e99136105eb61161c565b89896040516105fc939291906144a4565b60405180910390a15050505050505050565b6102925460ff16156106a257816040015160008151811061062b57fe5b6020026020010151600001516001600160a01b0316610648610e01565b6001600160a01b0316148061067d575061067d826040015160008151811061066c57fe5b602002602001015160000151610f9f565b6106a25760405162461bcd60e51b81526004016106999061454f565b60405180910390fd5b6106ac8282611620565b5050565b826001600160a01b03811633146106ca576106ca33611332565b6106d584848461179b565b50505050565b60008281526101c6602052604081205481906106fc575060009050806107e2565b60008481526101c66020908152604080832080548251818502810185019093528083529192909190849084015b8282101561077857600084815260209081902060408051808201909152908401546001600160a01b0381168252600160a01b90046001600160601b031681830152825260019092019101610729565b5050505090508060008151811061078b57fe5b60209081029190910101515192506000805b82518110156107d6578281815181106107b257fe5b6020026020010151602001516001600160601b03168201915080600101905061079d565b50612710908502049150505b9250929050565b6107f161161c565b6001600160a01b0316610802610e01565b6001600160a01b03161461084b576040805162461bcd60e51b81526020600482018190526024820152600080516020614979833981519152604482015290519081900360640190fd5b6001600160a01b03811660008181526102c46020526040808220805460ff19169055519091907f3042b80e435ae46c334b2cfec51a66d64c9a8a8af4cd0c279a124c35a09e91dd908390a350565b73d76f01af5f73563c103a11ab2f52099833d0252c90565b826001600160a01b03811633146108cb576108cb33611332565b6106d58484846117ec565b6108df81611315565b61094e57606081901c6108f061161c565b6001600160a01b0316816001600160a01b03161461093f5760405162461bcd60e51b815260040180806020018281038252602d8152602001806148f4602d913960400191505060405180910390fd5b61094882611807565b506109a3565b61095f61095961161c565b82611823565b61099a5760405162461bcd60e51b8152600401808060200182810382526030815260200180614a886030913960400191505060405180910390fd5b6109a38161182f565b50565b6109ae61161c565b6001600160a01b03166109bf610e01565b6001600160a01b031614610a08576040805162461bcd60e51b81526020600482018190526024820152600080516020614979833981519152604482015290519081900360640190fd5b610a11816118cb565b7f87cdeaffd8e70903d6ce7cc983fac3b09ca79e83818124c98e47a1d70f8027d681604051610a409190614511565b60405180910390a150565b600081815260ff60205260408120546001600160a01b03168061048b5760405162461bcd60e51b815260040180806020018281038252602981526020018061487b6029913960400191505060405180910390fd5b6101c88054604080516020601f600260001961010060018816150201909516949094049384018190048102820181019092528281526060939092909183018282801561051f5780601f106104f45761010080835404028352916020019161051f565b60006001600160a01b038216610b485760405162461bcd60e51b815260040180806020018281038252602a815260200180614851602a913960400191505060405180910390fd5b506001600160a01b03166000908152610100602052604090205490565b610b6d61161c565b6001600160a01b0316610b7e610e01565b6001600160a01b031614610bc7576040805162461bcd60e51b81526020600482018190526024820152600080516020614979833981519152604482015290519081900360640190fd5b6033546040516000916001600160a01b0316907f8be0079c531659141344cd1fd0a4f28419497f9722a3daafe3b4186f6b6457e0908390a3603380546001600160a01b0319169055565b610c1961161c565b6001600160a01b0316610c2a610e01565b6001600160a01b031614610c73576040805162461bcd60e51b81526020600482018190526024820152600080516020614979833981519152604482015290519081900360640190fd5b60005b81518110156106ac576000828281518110610c8d57fe5b6020908102919091018101516001600160a01b03811660008181526102c49093526040808420805460ff1916600190811790915590519294509290917f3042b80e435ae46c334b2cfec51a66d64c9a8a8af4cd0c279a124c35a09e91dd9190a350600101610c76565b8251610d0190611315565b15610d1a57610d15828285600001516108b1565b6105a0565b8260400151600081518110610d2b57fe5b6020026020010151600001516001600160a01b0316826001600160a01b031614610d675760405162461bcd60e51b815260040161069990614524565b6105a0838261060e565b60606101fb6000838152602001908152602001600020805480602002602001604051908101604052809291908181526020016000905b82821015610df657600084815260209081902060408051808201909152908401546001600160a01b0381168252600160a01b90046001600160601b031681830152825260019092019101610da7565b505050509050919050565b6033546001600160a01b031690565b60fe8054604080516020601f600260001961010060018816150201909516949094049384018190048102820181019092528281526060939092909183018282801561051f5780601f106104f45761010080835404028352916020019161051f565b610e7961161c565b6001600160a01b0316610e8a610e01565b6001600160a01b031614610ed3576040805162461bcd60e51b81526020600482018190526024820152600080516020614979833981519152604482015290519081900360640190fd5b6001600160a01b03811660008181526102c46020526040808220805460ff1916600190811790915590519092917f3042b80e435ae46c334b2cfec51a66d64c9a8a8af4cd0c279a124c35a09e91dd91a350565b81610f3081611332565b6105a083836118df565b610f49878787878787876114f8565b610292805460ff191690557ff05e55f0a9d205977ca8cc02236338b6a361376f404cf0b3019b2111964a01fd610f7d61161c565b8888604051610f8e939291906144a4565b60405180910390a150505050505050565b6001600160a01b031660009081526102c4602052604090205460ff1690565b836001600160a01b0381163314610fd857610fd833611332565b610fe4858585856119e5565b5050505050565b606061048b82611a3d565b60008181526101c660209081526040808320805482518185028101850190935280835260609492939192909184018215610df657600084815260209081902060408051808201909152908401546001600160a01b0381168252600160a01b90046001600160601b031681830152825260019092019101610da7565b816001600160a01b031661108361161c565b6001600160a01b0316146110a95760405162461bcd60e51b8152600401610699906145dc565b6105a0838383611a48565b61022e805460408051602060026001851615610100026000190190941693909304601f8101849004840282018401909252818152929183018282801561113b5780601f106111105761010080835404028352916020019161113b565b820191906000526020600020905b81548152906001019060200180831161111e57829003601f168201915b505050505081565b600061114f8383611af4565b90505b92915050565b61116061161c565b6001600160a01b0316611171610e01565b6001600160a01b0316146111ba576040805162461bcd60e51b81526020600482018190526024820152600080516020614979833981519152604482015290519081900360640190fd5b6001600160a01b0381166111ff5760405162461bcd60e51b81526004018080602001828103825260268152602001806147816026913960400191505060405180910390fd5b6033546040516001600160a01b038084169216907f8be0079c531659141344cd1fd0a4f28419497f9722a3daafe3b4186f6b6457e090600090a3603380546001600160a01b0319166001600160a01b0392909216919091179055565b60006001600160e01b03198216638486f69f60e01b148061128c57506001600160e01b0319821663656cb66560e11b145b806112a757506001600160e01b0319821663152a902d60e11b145b806112c257506001600160e01b031982166301ffc9a760e01b145b806112dd57506001600160e01b031982166380ac58cd60e01b145b806112f857506001600160e01b03198216635b5e139f60e01b145b8061048b5750506001600160e01b03191663780e9d6360e01b1490565b600090815260ff60205260409020546001600160a01b0316151590565b61134b61133d610899565b6001600160a01b0316611b21565b156109a357611358610899565b6001600160a01b031663c617113430836040518363ffffffff1660e01b815260040180836001600160a01b03168152602001826001600160a01b031681526020019250505060206040518083038186803b1580156113b557600080fd5b505afa1580156113c9573d6000803e3d6000fd5b505050506040513d60208110156113df57600080fd5b50516109a3576040805162461bcd60e51b815260206004820152601260248201527113dc195c985d1bdc939bdd105b1b1bddd95960721b604482015290519081900360640190fd5b600061143282610a4b565b9050806001600160a01b0316836001600160a01b031614156114855760405162461bcd60e51b8152600401808060200182810382526021815260200180614a116021913960400191505060405180910390fd5b806001600160a01b031661149761161c565b6001600160a01b031614806114b357506114b38161046861161c565b6114ee5760405162461bcd60e51b81526004018080602001828103825260388152602001806148196038913960400191505060405180910390fd5b6105a08383611b27565b600054610100900460ff16806115115750611511611b96565b8061151f575060005460ff16155b61155a5760405162461bcd60e51b815260040180806020018281038252602e8152602001806148a4602e913960400191505060405180910390fd5b600054610100900460ff16158015611585576000805460ff1961ff0019909116610100171660011790555b61158e866118cb565b611596611ba7565b61159e611c48565b6115a6611ba7565b6115ae611c5a565b6115b6611cf7565b6115be611ba7565b6115c6611df0565b6115ce611ba7565b6115d785611ebf565b6115e18888611ee4565b6115ea82611fcf565b6115f584600161206e565b61160083600161206e565b8015611612576000805461ff00191690555b5050505050505050565b3390565b815160601c600061162f61161c565b9050836040015160008151811061164257fe5b6020026020010151600001516001600160a01b0316826001600160a01b03161461167e5760405162461bcd60e51b8152600401610699906145b1565b8360800151518460400151511461169457600080fd5b806001600160a01b0316826001600160a01b031614806116b957506116b98282611143565b6116d55760405162461bcd60e51b815260040161069990614638565b60006116e0856120cf565b905060005b8560400151518110156117565760008660400151828151811061170457fe5b6020026020010151600001519050836001600160a01b0316816001600160a01b03161461174d5761174d81848960800151858151811061174057fe5b6020026020010151612316565b506001016116e5565b50611765848660000151612321565b6117778560000151866060015161233b565b6117898560000151866040015161252a565b610fe4856000015186602001516126d9565b6117a661095961161c565b6117e15760405162461bcd60e51b8152600401808060200182810382526031815260200180614a326031913960400191505060405180910390fd5b6105a083838361273d565b6105a083838360405180602001604052806000815250610fbe565b600090815261010360205260409020805460ff19166001179055565b600061114f838361285c565b600061183a82610a4b565b9050611848816000846105a0565b611853600083611b27565b61185c82612889565b6001600160a01b038116600090815261010060209081526040808320805460001901905584835260ff909152902080546001600160a01b03191690556118a182611807565b60405182906000906001600160a01b038416906000805160206149f1833981519152908390a45050565b80516106ac906101c8906020840190613b97565b6118e761161c565b6001600160a01b0316826001600160a01b0316141561194d576040805162461bcd60e51b815260206004820152601960248201527f4552433732313a20617070726f766520746f2063616c6c657200000000000000604482015290519081900360640190fd5b80610102600061195b61161c565b6001600160a01b03908116825260208083019390935260409182016000908120918716808252919093529120805460ff19169215159290921790915561199f61161c565b6001600160a01b03167f17307eab39ab6107e8899845ad3d59bd9653f200f220920489ca2b5937696c318360405180821515815260200191505060405180910390a35050565b6119f66119f061161c565b83611823565b611a315760405162461bcd60e51b8152600401808060200182810382526031815260200180614a326031913960400191505060405180910390fd5b6106d584848484612892565b606061048b826128e4565b60008381526101c66020526040812054905b81811015610fe45760008581526101c66020526040902080546001600160a01b038616919083908110611a8957fe5b6000918252602090912001546001600160a01b03161415611aec5760008581526101c660205260409020805484919083908110611ac257fe5b600091825260209091200180546001600160a01b0319166001600160a01b03929092169190911790555b600101611a5a565b6001600160a01b038116600090815261012f602052604081205460ff168061114f575061114f8383612abf565b3b151590565b60008181526101016020526040902080546001600160a01b0319166001600160a01b0384169081179091558190611b5d82610a4b565b6001600160a01b03167f8c5be1e5ebec7d5bd14f71427d1e84f3dd0314c0f7b2291e5b200ac8c7c3b92560405160405180910390a45050565b6000611ba130611b21565b15905090565b600054610100900460ff1680611bc05750611bc0611b96565b80611bce575060005460ff16155b611c095760405162461bcd60e51b815260040180806020018281038252602e8152602001806148a4602e913960400191505060405180910390fd5b600054610100900460ff16158015611c34576000805460ff1961ff0019909116610100171660011790555b80156109a3576000805461ff001916905550565b611c5863656cb66560e11b612aee565b565b600054610100900460ff1680611c735750611c73611b96565b80611c81575060005460ff16155b611cbc5760405162461bcd60e51b815260040180806020018281038252602e8152602001806148a4602e913960400191505060405180910390fd5b600054610100900460ff16158015611ce7576000805460ff1961ff0019909116610100171660011790555b611c346301ffc9a760e01b612aee565b600054610100900460ff1680611d105750611d10611b96565b80611d1e575060005460ff16155b611d595760405162461bcd60e51b815260040180806020018281038252602e8152602001806148a4602e913960400191505060405180910390fd5b600054610100900460ff16158015611d84576000805460ff1961ff0019909116610100171660011790555b6000611d8e61161c565b603380546001600160a01b0319166001600160a01b038316908117909155604051919250906000907f8be0079c531659141344cd1fd0a4f28419497f9722a3daafe3b4186f6b6457e0908290a35080156109a3576000805461ff001916905550565b600054610100900460ff1680611e095750611e09611b96565b80611e17575060005460ff16155b611e525760405162461bcd60e51b815260040180806020018281038252602e8152602001806148a4602e913960400191505060405180910390fd5b600054610100900460ff16158015611e7d576000805460ff1961ff0019909116610100171660011790555b611c34604051806040016040528060078152602001664d696e7437323160c81b815250604051806040016040528060018152602001603160f81b815250612b72565b8051611ed39061022e906020840190613b97565b506109a363e8a3d48560e01b612aee565b600054610100900460ff1680611efd5750611efd611b96565b80611f0b575060005460ff16155b611f465760405162461bcd60e51b815260040180806020018281038252602e8152602001806148a4602e913960400191505060405180910390fd5b600054610100900460ff16158015611f71576000805460ff1961ff0019909116610100171660011790555b8251611f849060fd906020860190613b97565b508151611f989060fe906020850190613b97565b50611fa96380ac58cd60e01b612aee565b611fb9635b5e139f60e01b612aee565b80156105a0576000805461ff0019169055505050565b611fda61133d610899565b8015611fee57506001600160a01b03811615155b156109a357611ffb610899565b6001600160a01b0316637d3e3dbe30836040518363ffffffff1660e01b815260040180836001600160a01b03168152602001826001600160a01b0316815260200192505050600060405180830381600087803b15801561205a57600080fd5b505af1158015610fe4573d6000803e3d6000fd5b6001600160a01b038216600081815261012f6020908152604091829020805460ff1916851515908117909155825190815291517f270dbb8ba4292910ae92862466486be25c355c837270a3d8824b36a8bc7c653b9281900390910190a25050565b6000808260600151516001600160401b03811180156120ed57600080fd5b50604051908082528060200260200182016040528015612117578160200160208202803683370190505b50905060005b8360600151518110156121695761214a8460600151828151811061213d57fe5b6020026020010151612c32565b82828151811061215657fe5b602090810291909101015260010161211d565b5060008360400151516001600160401b038111801561218757600080fd5b506040519080825280602002602001820160405280156121b1578160200160208202803683370190505b50905060005b8460400151518110156121f6576121d78560400151828151811061213d57fe5b8282815181106121e357fe5b60209081029190910101526001016121b7565b507ff64326045af5fd7e15297ba939f85b550474d3899daa47d2bc1ffbdb9ced344e84600001518560200151805190602001208360405160200180828051906020019060200280838360005b8381101561225a578181015183820152602001612242565b50505050905001915050604051602081830303815290604052805190602001208560405160200180828051906020019060200280838360005b838110156122ab578181015183820152602001612293565b505050509050019150506040516020818303038152906040528051906020012060405160200180868152602001858152602001848152602001838152602001828152602001955050505050506040516020818303038152906040528051906020012092505050919050565b6105a0838383612c9f565b6106ac828260405180602001604052806000815250612f1e565b6000805b82518110156124df5760006001600160a01b031683828151811061235f57fe5b6020026020010151600001516001600160a01b031614156123c7576040805162461bcd60e51b815260206004820152601b60248201527f526563697069656e742073686f756c642062652070726573656e740000000000604482015290519081900360640190fd5b8281815181106123d357fe5b6020026020010151602001516001600160601b03166000141561243d576040805162461bcd60e51b815260206004820181905260248201527f526f79616c74792076616c75652073686f756c6420626520706f736974697665604482015290519081900360640190fd5b82818151811061244957fe5b6020026020010151602001516001600160601b0316820191506101c6600085815260200190815260200160002083828151811061248257fe5b60209081029190910181015182546001818101855560009485529383902082519101805492909301516001600160601b0316600160a01b026001600160a01b039182166001600160a01b031990931692909217161790550161233f565b5061271081106125205760405162461bcd60e51b8152600401808060200182810382526025815260200180614a636025913960400191505060405180910390fd5b6105a08383612f70565b60008281526101fb6020526040812090805b83518110156126785760006001600160a01b031684828151811061255c57fe5b6020026020010151600001516001600160a01b0316141561258f5760405162461bcd60e51b815260040161069990614601565b83818151811061259b57fe5b6020026020010151602001516001600160601b0316600014156125d05760405162461bcd60e51b81526004016106999061457c565b828482815181106125dd57fe5b602090810291909101810151825460018101845560009384529282902081519301805491909201516001600160601b0316600160a01b026001600160a01b039384166001600160a01b031990921691909117909216919091179055835161266e9085908390811061264a57fe5b6020026020010151602001516001600160601b031683612fad90919063ffffffff16565b915060010161253c565b50806127101461269a5760405162461bcd60e51b815260040161069990614689565b7f841ffb90d4cabdd1f16034f3fa831d79060febbb8167bdd54a49269365bdf78f84846040516126cb9291906146e0565b60405180910390a150505050565b6126e282611315565b61271d5760405162461bcd60e51b815260040180806020018281038252602c81526020018061494d602c913960400191505060405180910390fd5b60008281526101c76020908152604090912082516105a092840190613b97565b826001600160a01b031661275082610a4b565b6001600160a01b0316146127955760405162461bcd60e51b81526004018080602001828103825260298152602001806149996029913960400191505060405180910390fd5b6001600160a01b0382166127da5760405162461bcd60e51b81526004018080602001828103825260248152602001806147a76024913960400191505060405180910390fd5b6127e58383836105a0565b6127f0600082611b27565b6001600160a01b0380841660008181526101006020908152604080832080546000190190559386168083528483208054600101905585835260ff90915283822080546001600160a01b031916821790559251849392916000805160206149f183398151915291a4505050565b6001600160a01b038216600090815261012f602052604081205460ff168061114f575061114f8383613007565b6109a3816130ab565b61289d84848461273d565b6128a9848484846130b4565b6106d55760405162461bcd60e51b815260040180806020018281038252603281526020018061474f6032913960400191505060405180910390fd5b60606128ef82611315565b61292a5760405162461bcd60e51b815260040180806020018281038252602f8152602001806149c2602f913960400191505060405180910390fd5b60008281526101c7602090815260408083208054825160026001831615610100026000190190921691909104601f8101859004850282018501909352828152929091908301828280156129be5780601f10612993576101008083540402835291602001916129be565b820191906000526020600020905b8154815290600101906020018083116129a157829003601f168201915b5050505050905060006129cf610a9f565b90508051600014156129e35750905061048e565b8151156129fd576129f48183613269565b9250505061048e565b80612a078561344e565b6040516020018083805190602001908083835b60208310612a395780518252601f199092019160209182019101612a1a565b51815160209384036101000a600019018019909216911617905285519190930192850191508083835b60208310612a815780518252601f199092019160209182019101612a62565b6001836020036101000a0380198251168184511680821785525050505050509050019250505060405160208183030381529060405292505050919050565b6001600160a01b0391821660009081526101026020908152604080832093909416825291909152205460ff1690565b6001600160e01b03198082161415612b4d576040805162461bcd60e51b815260206004820152601c60248201527f4552433136353a20696e76616c696420696e7465726661636520696400000000604482015290519081900360640190fd5b6001600160e01b0319166000908152606560205260409020805460ff19166001179055565b600054610100900460ff1680612b8b5750612b8b611b96565b80612b99575060005460ff16155b612bd45760405162461bcd60e51b815260040180806020018281038252602e8152602001806148a4602e913960400191505060405180910390fd5b600054610100900460ff16158015612bff576000805460ff1961ff0019909116610100171660011790555b825160208085019190912083519184019190912060979190915560985580156105a0576000805461ff0019169055505050565b8051602091820151604080517f397e04204c1e1a60ee8724b71f8244e10ab5f2e9009854d80f602bda21b59ebb818601526001600160a01b03909316838201526001600160601b039091166060808401919091528151808403909101815260809092019052805191012090565b6000612caa83613528565b90506000825160411415612cc557612cc28284613574565b90505b846001600160a01b0316816001600160a01b031614610fe457612cf0856001600160a01b0316611b21565b15612ea65760408051630b135d3f60e11b808252600482018581526024830193845286516044840152865191936001600160a01b038a1693631626ba7e9388938a9390929091606490910190602085019080838360005b83811015612d5f578181015183820152602001612d47565b50505050905090810190601f168015612d8c5780820380516001836020036101000a031916815260200191505b50935050505060206040518083038186803b158015612daa57600080fd5b505afa158015612dbe573d6000803e3d6000fd5b505050506040513d6020811015612dd457600080fd5b505160408051808201909152601c81527f7369676e617475726520766572696669636174696f6e206572726f72000000006020820152916001600160e01b031990911614612ea05760405162461bcd60e51b81526004018080602001828103825283818151815260200191508051906020019080838360005b83811015612e65578181015183820152602001612e4d565b50505050905090810190601f168015612e925780820380516001836020036101000a031916815260200191505b509250505060405180910390fd5b50610fe4565b604080518082018252601c81527f7369676e617475726520766572696669636174696f6e206572726f72000000006020808301918252925162461bcd60e51b81526004810193845282516024820152825192939283926044909201919080838360008315612e65578181015183820152602001612e4d565b612f2883836135f4565b612f3560008484846130b4565b6105a05760405162461bcd60e51b815260040180806020018281038252603281526020018061474f6032913960400191505060405180910390fd5b7f3fa96d7b6bcbfe71ef171666d84db3cf52fa2d1c8afdb1cc8e486177f208b7df8282604051612fa19291906146e0565b60405180910390a15050565b60008282018381101561114f576040805162461bcd60e51b815260206004820152601b60248201527f536166654d6174683a206164646974696f6e206f766572666c6f770000000000604482015290519081900360640190fd5b600061301282611315565b61304d5760405162461bcd60e51b815260040180806020018281038252602c8152602001806147ed602c913960400191505060405180910390fd5b600061305883610a4b565b9050806001600160a01b0316846001600160a01b031614806130935750836001600160a01b031661308884610529565b6001600160a01b0316145b806130a357506130a38185611143565b949350505050565b6109a38161375a565b60006130c8846001600160a01b0316611b21565b1561325e57836001600160a01b031663150b7a026130e461161c565b8786866040518563ffffffff1660e01b815260040180856001600160a01b03168152602001846001600160a01b0316815260200183815260200180602001828103825283818151815260200191508051906020019080838360005b8381101561315757818101518382015260200161313f565b50505050905090810190601f1680156131845780820380516001836020036101000a031916815260200191505b5095505050505050602060405180830381600087803b1580156131a657600080fd5b505af19250505080156131cb57506040513d60208110156131c657600080fd5b505160015b613244573d8080156131f9576040519150601f19603f3d011682016040523d82523d6000602084013e6131fe565b606091505b50805161323c5760405162461bcd60e51b815260040180806020018281038252603281526020018061474f6032913960400191505060405180910390fd5b805181602001fd5b6001600160e01b031916630a85bd0160e11b1490506130a3565b506001949350505050565b805182516060918491849110156133345784846040516020018083805190602001908083835b602083106132ae5780518252601f19909201916020918201910161328f565b51815160209384036101000a600019018019909216911617905285519190930192850191508083835b602083106132f65780518252601f1990920191602091820191016132d7565b6001836020036101000a0380198251168184511680821785525050505050509050019250505060405160208183030381529060405292505050611152565b60005b82518110156134445782818151811061334c57fe5b602001015160f81c60f81b6001600160f81b03191682828151811061336d57fe5b01602001516001600160f81b0319161461343c5785856040516020018083805190602001908083835b602083106133b55780518252601f199092019160209182019101613396565b51815160209384036101000a600019018019909216911617905285519190930192850191508083835b602083106133fd5780518252601f1990920191602091820191016133de565b6001836020036101000a038019825116818451168082178552505050505050905001925050506040516020818303038152906040529350505050611152565b600101613337565b5092949350505050565b60608161347357506040805180820190915260018152600360fc1b602082015261048e565b8160005b811561348b57600101600a82049150613477565b6000816001600160401b03811180156134a357600080fd5b506040519080825280601f01601f1916602001820160405280156134ce576020820181803683370190505b50859350905060001982015b831561351f57600a840660300160f81b828280600190039350815181106134fd57fe5b60200101906001600160f81b031916908160001a905350600a840493506134da565b50949350505050565b600061353261379a565b82604051602001808061190160f01b81525060020183815260200182815260200192505050604051602081830303815290604052805190602001209050919050565b600081516041146135cc576040805162461bcd60e51b815260206004820152601f60248201527f45434453413a20696e76616c6964207369676e6174757265206c656e67746800604482015290519081900360640190fd5b60208201516040830151606084015160001a6135ea868285856137da565b9695505050505050565b6001600160a01b03821661364f576040805162461bcd60e51b815260206004820181905260248201527f4552433732313a206d696e7420746f20746865207a65726f2061646472657373604482015290519081900360640190fd5b6000818152610103602052604090205460ff16156136ab576040805162461bcd60e51b81526020600482015260146024820152731d1bdad95b88185b1c9958591e48189d5c9b995960621b604482015290519081900360640190fd5b6136b481611315565b15613706576040805162461bcd60e51b815260206004820152601c60248201527f4552433732313a20746f6b656e20616c7265616479206d696e74656400000000604482015290519081900360640190fd5b613712600083836105a0565b6001600160a01b0382166000818152610100602090815260408083208054600101905584835260ff909152902080546001600160a01b03191690911790556106ac8282613a30565b60008181526101c7602052604090205460026000196101006001841615020190911604156109a35760008181526101c7602052604081206109a391613c23565b60006137d57f8b73c3c69bb8fe3d512ecc4cf759cc79239f7b179b0ffacaa9a75d522b39400f6137c8613a3a565b6137d0613a40565b613a46565b905090565b60007f7fffffffffffffffffffffffffffffff5d576e7357a4501ddfe92f46681b20a082111561383b5760405162461bcd60e51b81526004018080602001828103825260228152602001806147cb6022913960400191505060405180910390fd5b6000601e8560ff161115613915576004850360ff16601b148061386457506004850360ff16601c145b61389f5760405162461bcd60e51b81526004018080602001828103825260228152602001806148d26022913960400191505060405180910390fd5b60016138aa87613aa8565b60048703868660405160008152602001604052604051808581526020018460ff1681526020018381526020018281526020019450505050506020604051602081039080840390855afa158015613904573d6000803e3d6000fd5b5050506020604051035190506139cc565b8460ff16601b148061392a57508460ff16601c145b6139655760405162461bcd60e51b81526004018080602001828103825260228152602001806148d26022913960400191505060405180910390fd5b60018686868660405160008152602001604052604051808581526020018460ff1681526020018381526020018281526020019450505050506020604051602081039080840390855afa1580156139bf573d6000803e3d6000fd5b5050506020604051035190505b6001600160a01b038116613a27576040805162461bcd60e51b815260206004820152601860248201527f45434453413a20696e76616c6964207369676e61747572650000000000000000604482015290519081900360640190fd5b95945050505050565b6106ac8282613af9565b60975490565b60985490565b6000838383613a53613b93565b3060405160200180868152602001858152602001848152602001838152602001826001600160a01b03168152602001955050505050506040516020818303038152906040528051906020012090509392505050565b604080517f19457468657265756d205369676e6564204d6573736167653a0a333200000000602080830191909152603c8083019490945282518083039094018452605c909101909152815191012090565b606081901c6001600160a01b0383168114613b685760405182906001600160a01b038316906000906000805160206149f1833981519152908290a481836001600160a01b0316826001600160a01b03166000805160206149f183398151915260405160405180910390a46105a0565b60405182906001600160a01b038516906000906000805160206149f1833981519152908290a4505050565b4690565b828054600181600116156101000203166002900490600052602060002090601f016020900481019282613bcd5760008555613c13565b82601f10613be657805160ff1916838001178555613c13565b82800160010185558215613c13579182015b82811115613c13578251825591602001919060010190613bf8565b50613c1f929150613c63565b5090565b50805460018160011615610100020316600290046000825580601f10613c4957506109a3565b601f0160209004906000526020600020908101906109a391905b5b80821115613c1f5760008155600101613c64565b803561048e81614739565b600082601f830112613c93578081fd5b81356020613ca8613ca38361471c565b6146f9565b8281528181019085830183850287018401881015613cc4578586fd5b855b85811015613ceb578135613cd981614739565b84529284019290840190600101613cc6565b5090979650505050505050565b600082601f830112613d08578081fd5b81356020613d18613ca38361471c565b82815281810190858301855b85811015613ceb57613d3b898684358b0101613e08565b84529284019290840190600101613d24565b600082601f830112613d5d578081fd5b81356020613d6d613ca38361471c565b82815281810190858301604080860288018501891015613d8b578687fd5b865b86811015613dfa5781838b031215613da3578788fd5b81518281018181106001600160401b0382111715613dbd57fe5b83528335613dca81614739565b8152838701356001600160601b0381168114613de457898afd5b8188015285529385019391810191600101613d8d565b509198975050505050505050565b600082601f830112613e18578081fd5b81356001600160401b03811115613e2b57fe5b613e3e601f8201601f19166020016146f9565b818152846020838601011115613e52578283fd5b816020850160208301379081016020019190915292915050565b600060a08284031215613e7d578081fd5b613e8760a06146f9565b90508135815260208201356001600160401b0380821115613ea757600080fd5b613eb385838601613e08565b60208401526040840135915080821115613ecc57600080fd5b613ed885838601613d4d565b60408401526060840135915080821115613ef157600080fd5b613efd85838601613d4d565b60608401526080840135915080821115613f1657600080fd5b50613f2384828501613cf8565b60808301525092915050565b600060208284031215613f40578081fd5b813561114f81614739565b60008060408385031215613f5d578081fd5b8235613f6881614739565b91506020830135613f7881614739565b809150509250929050565b600080600060608486031215613f97578081fd5b8335613fa281614739565b92506020840135613fb281614739565b929592945050506040919091013590565b60008060008060808587031215613fd8578081fd5b8435613fe381614739565b93506020850135613ff381614739565b92506040850135915060608501356001600160401b03811115614014578182fd5b61402087828801613e08565b91505092959194509250565b6000806040838503121561403e578182fd5b823561404981614739565b915060208301358015158114613f78578182fd5b6000806040838503121561406f578182fd5b823561407a81614739565b946020939093013593505050565b600060208284031215614099578081fd5b81356001600160401b038111156140ae578182fd5b6130a384828501613c83565b6000602082840312156140cb578081fd5b81356001600160e01b03198116811461114f578182fd5b6000602082840312156140f3578081fd5b81356001600160401b03811115614108578182fd5b6130a384828501613e08565b600080600080600080600060e0888a03121561412e578485fd5b87356001600160401b0380821115614144578687fd5b6141508b838c01613e08565b985060208a0135915080821115614165578687fd5b6141718b838c01613e08565b975060408a0135915080821115614186578687fd5b6141928b838c01613e08565b965060608a01359150808211156141a7578485fd5b506141b48a828b01613e08565b9450506141c360808901613c78565b92506141d160a08901613c78565b91506141df60c08901613c78565b905092959891949750929550565b600080600080600080600080610100898b031215614209578182fd5b88356001600160401b038082111561421f578384fd5b61422b8c838d01613e08565b995060208b0135915080821115614240578384fd5b61424c8c838d01613e08565b985060408b0135915080821115614261578384fd5b61426d8c838d01613e08565b975060608b0135915080821115614282578384fd5b61428e8c838d01613e08565b965060808b01359150808211156142a3578384fd5b506142b08b828c01613c83565b9450506142bf60a08a01613c78565b92506142cd60c08a01613c78565b91506142db60e08a01613c78565b90509295985092959890939650565b600080604083850312156142fc578182fd5b82356001600160401b03811115614311578283fd5b61431d85828601613e6c565b9250506020830135613f7881614739565b600080600060608486031215614342578081fd5b83356001600160401b03811115614357578182fd5b61436386828701613e6c565b935050602084013561437481614739565b9150604084013561438481614739565b809150509250925092565b6000602082840312156143a0578081fd5b5035919050565b6000806000606084860312156143bb578081fd5b83359250602084013561437481614739565b600080604083850312156143df578182fd5b50508035926020909101359150565b6000815180845260208085019450808401835b8381101561443a57815180516001600160a01b031688528301516001600160601b03168388015260409096019590820190600101614401565b509495945050505050565b60008151808452815b8181101561446a5760208185018101518683018201520161444e565b8181111561447b5782602083870101525b50601f01601f19169290920160200192915050565b6001600160a01b0391909116815260200190565b6001600160a01b03841681526060602082018190526000906144c890830185614445565b82810360408401526135ea8185614445565b6001600160a01b03929092168252602082015260400190565b60006020825261114f60208301846143ee565b901515815260200190565b60006020825261114f6020830184614445565b6020808252601190820152703bb937b7339037b93232b91036b0b5b2b960791b604082015260600190565b6020808252601390820152723737ba1037bbb732b91037b91036b4b73a32b960691b604082015260600190565b6020808252818101527f43726561746f722073686172652073686f756c6420626520706f736974697665604082015260600190565b6020808252601190820152701d1bdad95b9259081a5b98dbdc9c9958dd607a1b604082015260600190565b6020808252600b908201526a1b9bdd08185b1b1bddd95960aa1b604082015260600190565b60208082526019908201527f4163636f756e742073686f756c642062652070726573656e7400000000000000604082015260600190565b60208082526031908201527f4552433732313a207472616e736665722063616c6c6572206973206e6f74206f6040820152701ddb995c881b9bdc88185c1c1c9bdd9959607a1b606082015260800190565b6020808252602e908201527f746f74616c20616d6f756e74206f662063726561746f7273207368617265207360408201526d0686f756c642062652031303030360941b606082015260800190565b90815260200190565b6000838252604060208301526130a360408301846143ee565b6040518181016001600160401b038111828210171561471457fe5b604052919050565b60006001600160401b0382111561472f57fe5b5060209081020190565b6001600160a01b03811681146109a357600080fdfe4552433732313a207472616e7366657220746f206e6f6e20455243373231526563656976657220696d706c656d656e7465724f776e61626c653a206e6577206f776e657220697320746865207a65726f20616464726573734552433732313a207472616e7366657220746f20746865207a65726f206164647265737345434453413a20696e76616c6964207369676e6174757265202773272076616c75654552433732313a206f70657261746f7220717565727920666f72206e6f6e6578697374656e7420746f6b656e4552433732313a20617070726f76652063616c6c6572206973206e6f74206f776e6572206e6f7220617070726f76656420666f7220616c6c4552433732313a2062616c616e636520717565727920666f7220746865207a65726f20616464726573734552433732313a206f776e657220717565727920666f72206e6f6e6578697374656e7420746f6b656e496e697469616c697a61626c653a20636f6e747261637420697320616c726561647920696e697469616c697a656445434453413a20696e76616c6964207369676e6174757265202776272076616c75654552433732314275726e61626c653a2063616c6c6572206973206e6f74206f776e65722c206e6f74206275726e4552433732313a20617070726f76656420717565727920666f72206e6f6e6578697374656e7420746f6b656e4552433732314d657461646174613a2055524920736574206f66206e6f6e6578697374656e7420746f6b656e4f776e61626c653a2063616c6c6572206973206e6f7420746865206f776e65724552433732313a207472616e73666572206f6620746f6b656e2074686174206973206e6f74206f776e4552433732314d657461646174613a2055524920717565727920666f72206e6f6e6578697374656e7420746f6b656eddf252ad1be2c89b69c2b068fc378daa952ba7f163c4a11628f55a4df523b3ef4552433732313a20617070726f76616c20746f2063757272656e74206f776e65724552433732313a207472616e736665722063616c6c6572206973206e6f74206f776e6572206e6f7220617070726f766564526f79616c747920746f74616c2076616c75652073686f756c64206265203c2031303030304552433732314275726e61626c653a2063616c6c6572206973206e6f74206f776e6572206e6f7220617070726f766564a26469706673582212204bc9cec18b0382b8b39301acf1e10a66d14f0ce6e2279fa48d18f8a1aa476faa64736f6c63430007060033",
  "immutableReferences": {},
  "source": "// SPDX-License-Identifier: MIT\n\npragma solidity 0.7.6;\npragma abicoder v2;\n\nimport \"./ERC721BaseMinimal.sol\";\nimport \"../IsPrivateCollection.sol\";\nimport \"../access/MinterAccessControl.sol\";\n\ncontract ERC721RaribleMinimal is ERC721BaseMinimal, IsPrivateCollection, MinterAccessControl {\n    event CreateERC721Rarible(address owner, string name, string symbol);\n    event CreateERC721RaribleUser(address owner, string name, string symbol);\n\n    function __ERC721RaribleUser_init(string memory _name, string memory _symbol, string memory baseURI, string memory contractURI, address[] memory operators, address transferProxy, address lazyTransferProxy, address subscribeTo) external virtual {\n        __ERC721Rarible_init_unchained(_name, _symbol, baseURI, contractURI, transferProxy, lazyTransferProxy, subscribeTo);\n\n        isPrivate = true;\n        emit CreateERC721RaribleUser(_msgSender(), _name, _symbol);\n    }\n\n    function __ERC721Rarible_init(string memory _name, string memory _symbol, string memory baseURI, string memory contractURI, address transferProxy, address lazyTransferProxy, address subscribeTo) external virtual {\n        __ERC721Rarible_init_unchained(_name, _symbol, baseURI, contractURI, transferProxy, lazyTransferProxy, subscribeTo);\n\n        isPrivate = false;\n        emit CreateERC721Rarible(_msgSender(), _name, _symbol);\n    }\n\n    function __ERC721Rarible_init_unchained(string memory _name, string memory _symbol, string memory baseURI, string memory contractURI, address transferProxy, address lazyTransferProxy, address subscribeTo) internal initializer {\n        _setBaseURI(baseURI);\n        __ERC721Lazy_init_unchained();\n        __RoyaltiesV2Upgradeable_init_unchained();\n        __Context_init_unchained();\n        __ERC165_init_unchained();\n        __Ownable_init_unchained();\n        __ERC721Burnable_init_unchained();\n        __Mint721Validator_init_unchained();\n        __MinterAccessControl_init_unchained();\n        __HasContractURI_init_unchained(contractURI);\n        __ERC721_init_unchained(_name, _symbol);\n        __OperatorFilterer_init_unchained(subscribeTo);\n\n        //setting default approver for transferProxies\n        _setDefaultApproval(transferProxy, true);\n        _setDefaultApproval(lazyTransferProxy, true);\n    }\n\n    function mintAndTransfer(LibERC721LazyMint.Mint721Data memory data, address to) public override virtual {\n        if (isPrivate){\n            require(owner() == data.creators[0].account || isMinter(data.creators[0].account), \"not owner or minter\");\n        }\n        super.mintAndTransfer(data, to);\n    }\n}\n",
  "sourcePath": "@rarible/tokens/contracts/erc-721-minimal/ERC721RaribleMinimal.sol",
  "compiler": {
    "name": "solc",
    "version": "0.7.6+commit.7338295f.Emscripten.clang"
  },
  "schemaVersion": "3.4.3",
  "updatedAt": "2023-09-14T13:22:37.720Z",
  "networkType": "ethereum",
  "devdoc": {
    "kind": "dev",
    "methods": {
      "addMinter(address)": {
        "details": "Add `minter` to the list of allowed minters."
      },
      "addMinters(address[])": {
        "details": "Add `minters` to the list of allowed minters."
      },
      "approve(address,uint256)": {
        "details": "See {IERC721-approve}.      Added modifier ensures that the operator is allowed by the OperatorFilterRegistry."
      },
      "balanceOf(address)": {
        "details": "See {IERC721-balanceOf}."
      },
      "baseURI()": {
        "details": "Returns the base URI set via {_setBaseURI}. This will be automatically added as a prefix in {tokenURI} to each token's URI, or to the token ID if no specific URI is set for that token ID."
      },
      "burn(uint256)": {
        "details": "Burns `tokenId`. See {ERC721-_burn}. Requirements: - The caller must own `tokenId` or be an approved operator."
      },
      "getApproved(uint256)": {
        "details": "See {IERC721-getApproved}."
      },
      "isMinter(address)": {
        "details": "Returns `true` if `account` has been granted to minters."
      },
      "name()": {
        "details": "See {IERC721Metadata-name}."
      },
      "owner()": {
        "details": "Returns the address of the current owner."
      },
      "ownerOf(uint256)": {
        "details": "See {IERC721-ownerOf}."
      },
      "removeMinter(address)": {
        "details": "Revoke `_minter` from the list of allowed minters."
      },
      "renounceOwnership()": {
        "details": "Leaves the contract without owner. It will not be possible to call `onlyOwner` functions anymore. Can only be called by the current owner. NOTE: Renouncing ownership will leave the contract without an owner, thereby removing any functionality that is only available to the owner."
      },
      "safeTransferFrom(address,address,uint256)": {
        "details": "See {IERC721-safeTransferFrom}.      Added modifier ensures that the operator is allowed by the OperatorFilterRegistry."
      },
      "safeTransferFrom(address,address,uint256,bytes)": {
        "details": "See {IERC721-safeTransferFrom}.      Added modifier ensures that the operator is allowed by the OperatorFilterRegistry."
      },
      "setApprovalForAll(address,bool)": {
        "details": "See {IERC721-setApprovalForAll}.      Added modifier ensures that the operator is allowed by the OperatorFilterRegistry."
      },
      "symbol()": {
        "details": "See {IERC721Metadata-symbol}."
      },
      "transferFrom(address,address,uint256)": {
        "details": "See {IERC721-transferFrom}.      Added modifier ensures that the operator is allowed by the OperatorFilterRegistry."
      },
      "transferOwnership(address)": {
        "details": "Transfers ownership of the contract to a new account (`newOwner`). Can only be called by the current owner."
      }
    },
    "version": 1
  },
  "userdoc": {
    "kind": "user",
    "methods": {},
    "version": 1
  }
}