{
  "contractName": "ERC721RaribleMinimal",
  "abi": [
    {
      "anonymous": false,
      "inputs": [
        {
          "indexed": true,
          "internalType": "address",
          "name": "owner",
          "type": "address"
        },
        {
          "indexed": true,
          "internalType": "address",
          "name": "approved",
          "type": "address"
        },
        {
          "indexed": true,
          "internalType": "uint256",
          "name": "tokenId",
          "type": "uint256"
        }
      ],
      "name": "Approval",
      "type": "event"
    },
    {
      "anonymous": false,
      "inputs": [
        {
          "indexed": true,
          "internalType": "address",
          "name": "owner",
          "type": "address"
        },
        {
          "indexed": true,
          "internalType": "address",
          "name": "operator",
          "type": "address"
        },
        {
          "indexed": false,
          "internalType": "bool",
          "name": "approved",
          "type": "bool"
        }
      ],
      "name": "ApprovalForAll",
      "type": "event"
    },
    {
      "anonymous": false,
      "inputs": [
        {
          "indexed": false,
          "internalType": "string",
          "name": "newBaseURI",
          "type": "string"
        }
      ],
      "name": "BaseUriChanged",
      "type": "event"
    },
    {
      "anonymous": false,
      "inputs": [
        {
          "indexed": false,
          "internalType": "address",
          "name": "owner",
          "type": "address"
        },
        {
          "indexed": false,
          "internalType": "string",
          "name": "name",
          "type": "string"
        },
        {
          "indexed": false,
          "internalType": "string",
          "name": "symbol",
          "type": "string"
        }
      ],
      "name": "CreateERC721Rarible",
      "type": "event"
    },
    {
      "anonymous": false,
      "inputs": [
        {
          "indexed": false,
          "internalType": "address",
          "name": "owner",
          "type": "address"
        },
        {
          "indexed": false,
          "internalType": "string",
          "name": "name",
          "type": "string"
        },
        {
          "indexed": false,
          "internalType": "string",
          "name": "symbol",
          "type": "string"
        }
      ],
      "name": "CreateERC721RaribleUser",
      "type": "event"
    },
    {
      "anonymous": false,
      "inputs": [
        {
          "indexed": false,
          "internalType": "uint256",
          "name": "tokenId",
          "type": "uint256"
        },
        {
          "components": [
            {
              "internalType": "address payable",
              "name": "account",
              "type": "address"
            },
            {
              "internalType": "uint96",
              "name": "value",
              "type": "uint96"
            }
          ],
          "indexed": false,
          "internalType": "struct LibPart.Part[]",
          "name": "creators",
          "type": "tuple[]"
        }
      ],
      "name": "Creators",
      "type": "event"
    },
    {
      "anonymous": false,
      "inputs": [
        {
          "indexed": true,
          "internalType": "address",
          "name": "operator",
          "type": "address"
        },
        {
          "indexed": false,
          "internalType": "bool",
          "name": "hasApproval",
          "type": "bool"
        }
      ],
      "name": "DefaultApproval",
      "type": "event"
    },
    {
      "anonymous": false,
      "inputs": [
        {
          "indexed": true,
          "internalType": "address",
          "name": "minter",
          "type": "address"
        },
        {
          "indexed": true,
          "internalType": "bool",
          "name": "status",
          "type": "bool"
        }
      ],
      "name": "MinterStatusChanged",
      "type": "event"
    },
    {
      "anonymous": false,
      "inputs": [
        {
          "indexed": true,
          "internalType": "address",
          "name": "previousOwner",
          "type": "address"
        },
        {
          "indexed": true,
          "internalType": "address",
          "name": "newOwner",
          "type": "address"
        }
      ],
      "name": "OwnershipTransferred",
      "type": "event"
    },
    {
      "anonymous": false,
      "inputs": [
        {
          "indexed": false,
          "internalType": "uint256",
          "name": "tokenId",
          "type": "uint256"
        },
        {
          "components": [
            {
              "internalType": "address payable",
              "name": "account",
              "type": "address"
            },
            {
              "internalType": "uint96",
              "name": "value",
              "type": "uint96"
            }
          ],
          "indexed": false,
          "internalType": "struct LibPart.Part[]",
          "name": "royalties",
          "type": "tuple[]"
        }
      ],
      "name": "RoyaltiesSet",
      "type": "event"
    },
    {
      "anonymous": false,
      "inputs": [
        {
          "indexed": true,
          "internalType": "address",
          "name": "from",
          "type": "address"
        },
        {
          "indexed": true,
          "internalType": "address",
          "name": "to",
          "type": "address"
        },
        {
          "indexed": true,
          "internalType": "uint256",
          "name": "tokenId",
          "type": "uint256"
        }
      ],
      "name": "Transfer",
      "type": "event"
    },
    {
      "inputs": [
        {
          "internalType": "address",
          "name": "minter",
          "type": "address"
        }
      ],
      "name": "addMinter",
      "outputs": [],
      "stateMutability": "nonpayable",
      "type": "function"
    },
    {
      "inputs": [
        {
          "internalType": "address[]",
          "name": "minters",
          "type": "address[]"
        }
      ],
      "name": "addMinters",
      "outputs": [],
      "stateMutability": "nonpayable",
      "type": "function"
    },
    {
      "inputs": [
        {
          "internalType": "address",
          "name": "to",
          "type": "address"
        },
        {
          "internalType": "uint256",
          "name": "tokenId",
          "type": "uint256"
        }
      ],
      "name": "approve",
      "outputs": [],
      "stateMutability": "nonpayable",
      "type": "function"
    },
    {
      "inputs": [
        {
          "internalType": "address",
          "name": "owner",
          "type": "address"
        }
      ],
      "name": "balanceOf",
      "outputs": [
        {
          "internalType": "uint256",
          "name": "",
          "type": "uint256"
        }
      ],
      "stateMutability": "view",
      "type": "function"
    },
    {
      "inputs": [],
      "name": "baseURI",
      "outputs": [
        {
          "internalType": "string",
          "name": "",
          "type": "string"
        }
      ],
      "stateMutability": "view",
      "type": "function"
    },
    {
      "inputs": [
        {
          "internalType": "uint256",
          "name": "tokenId",
          "type": "uint256"
        }
      ],
      "name": "burn",
      "outputs": [],
      "stateMutability": "nonpayable",
      "type": "function"
    },
    {
      "inputs": [],
      "name": "contractURI",
      "outputs": [
        {
          "internalType": "string",
          "name": "",
          "type": "string"
        }
      ],
      "stateMutability": "view",
      "type": "function"
    },
    {
      "inputs": [
        {
          "internalType": "uint256",
          "name": "tokenId",
          "type": "uint256"
        }
      ],
      "name": "getApproved",
      "outputs": [
        {
          "internalType": "address",
          "name": "",
          "type": "address"
        }
      ],
      "stateMutability": "view",
      "type": "function"
    },
    {
      "inputs": [
        {
          "internalType": "uint256",
          "name": "_id",
          "type": "uint256"
        }
      ],
      "name": "getCreators",
      "outputs": [
        {
          "components": [
            {
              "internalType": "address payable",
              "name": "account",
              "type": "address"
            },
            {
              "internalType": "uint96",
              "name": "value",
              "type": "uint96"
            }
          ],
          "internalType": "struct LibPart.Part[]",
          "name": "",
          "type": "tuple[]"
        }
      ],
      "stateMutability": "view",
      "type": "function"
    },
    {
      "inputs": [
        {
          "internalType": "uint256",
          "name": "id",
          "type": "uint256"
        }
      ],
      "name": "getRaribleV2Royalties",
      "outputs": [
        {
          "components": [
            {
              "internalType": "address payable",
              "name": "account",
              "type": "address"
            },
            {
              "internalType": "uint96",
              "name": "value",
              "type": "uint96"
            }
          ],
          "internalType": "struct LibPart.Part[]",
          "name": "",
          "type": "tuple[]"
        }
      ],
      "stateMutability": "view",
      "type": "function"
    },
    {
      "inputs": [
        {
          "internalType": "address",
          "name": "owner",
          "type": "address"
        },
        {
          "internalType": "address",
          "name": "operator",
          "type": "address"
        }
      ],
      "name": "isApprovedForAll",
      "outputs": [
        {
          "internalType": "bool",
          "name": "",
          "type": "bool"
        }
      ],
      "stateMutability": "view",
      "type": "function"
    },
    {
      "inputs": [
        {
          "internalType": "address",
          "name": "account",
          "type": "address"
        }
      ],
      "name": "isMinter",
      "outputs": [
        {
          "internalType": "bool",
          "name": "",
          "type": "bool"
        }
      ],
      "stateMutability": "view",
      "type": "function"
    },
    {
      "inputs": [],
      "name": "name",
      "outputs": [
        {
          "internalType": "string",
          "name": "",
          "type": "string"
        }
      ],
      "stateMutability": "view",
      "type": "function"
    },
    {
      "inputs": [],
      "name": "owner",
      "outputs": [
        {
          "internalType": "address",
          "name": "",
          "type": "address"
        }
      ],
      "stateMutability": "view",
      "type": "function"
    },
    {
      "inputs": [
        {
          "internalType": "uint256",
          "name": "tokenId",
          "type": "uint256"
        }
      ],
      "name": "ownerOf",
      "outputs": [
        {
          "internalType": "address",
          "name": "",
          "type": "address"
        }
      ],
      "stateMutability": "view",
      "type": "function"
    },
    {
      "inputs": [
        {
          "internalType": "address",
          "name": "_minter",
          "type": "address"
        }
      ],
      "name": "removeMinter",
      "outputs": [],
      "stateMutability": "nonpayable",
      "type": "function"
    },
    {
      "inputs": [],
      "name": "renounceOwnership",
      "outputs": [],
      "stateMutability": "nonpayable",
      "type": "function"
    },
    {
      "inputs": [
        {
          "internalType": "uint256",
          "name": "id",
          "type": "uint256"
        },
        {
          "internalType": "uint256",
          "name": "_salePrice",
          "type": "uint256"
        }
      ],
      "name": "royaltyInfo",
      "outputs": [
        {
          "internalType": "address",
          "name": "receiver",
          "type": "address"
        },
        {
          "internalType": "uint256",
          "name": "royaltyAmount",
          "type": "uint256"
        }
      ],
      "stateMutability": "view",
      "type": "function"
    },
    {
      "inputs": [
        {
          "internalType": "address",
          "name": "from",
          "type": "address"
        },
        {
          "internalType": "address",
          "name": "to",
          "type": "address"
        },
        {
          "internalType": "uint256",
          "name": "tokenId",
          "type": "uint256"
        }
      ],
      "name": "safeTransferFrom",
      "outputs": [],
      "stateMutability": "nonpayable",
      "type": "function"
    },
    {
      "inputs": [
        {
          "internalType": "address",
          "name": "from",
          "type": "address"
        },
        {
          "internalType": "address",
          "name": "to",
          "type": "address"
        },
        {
          "internalType": "uint256",
          "name": "tokenId",
          "type": "uint256"
        },
        {
          "internalType": "bytes",
          "name": "_data",
          "type": "bytes"
        }
      ],
      "name": "safeTransferFrom",
      "outputs": [],
      "stateMutability": "nonpayable",
      "type": "function"
    },
    {
      "inputs": [
        {
          "internalType": "address",
          "name": "operator",
          "type": "address"
        },
        {
          "internalType": "bool",
          "name": "approved",
          "type": "bool"
        }
      ],
      "name": "setApprovalForAll",
      "outputs": [],
      "stateMutability": "nonpayable",
      "type": "function"
    },
    {
      "inputs": [
        {
          "internalType": "string",
          "name": "newBaseURI",
          "type": "string"
        }
      ],
      "name": "setBaseURI",
      "outputs": [],
      "stateMutability": "nonpayable",
      "type": "function"
    },
    {
      "inputs": [
        {
          "internalType": "bytes4",
          "name": "interfaceId",
          "type": "bytes4"
        }
      ],
      "name": "supportsInterface",
      "outputs": [
        {
          "internalType": "bool",
          "name": "",
          "type": "bool"
        }
      ],
      "stateMutability": "view",
      "type": "function"
    },
    {
      "inputs": [],
      "name": "symbol",
      "outputs": [
        {
          "internalType": "string",
          "name": "",
          "type": "string"
        }
      ],
      "stateMutability": "view",
      "type": "function"
    },
    {
      "inputs": [
        {
          "internalType": "uint256",
          "name": "tokenId",
          "type": "uint256"
        }
      ],
      "name": "tokenURI",
      "outputs": [
        {
          "internalType": "string",
          "name": "",
          "type": "string"
        }
      ],
      "stateMutability": "view",
      "type": "function"
    },
    {
      "inputs": [
        {
          "internalType": "address",
          "name": "from",
          "type": "address"
        },
        {
          "internalType": "address",
          "name": "to",
          "type": "address"
        },
        {
          "internalType": "uint256",
          "name": "tokenId",
          "type": "uint256"
        }
      ],
      "name": "transferFrom",
      "outputs": [],
      "stateMutability": "nonpayable",
      "type": "function"
    },
    {
      "inputs": [
        {
          "components": [
            {
              "internalType": "uint256",
              "name": "tokenId",
              "type": "uint256"
            },
            {
              "internalType": "string",
              "name": "tokenURI",
              "type": "string"
            },
            {
              "components": [
                {
                  "internalType": "address payable",
                  "name": "account",
                  "type": "address"
                },
                {
                  "internalType": "uint96",
                  "name": "value",
                  "type": "uint96"
                }
              ],
              "internalType": "struct LibPart.Part[]",
              "name": "creators",
              "type": "tuple[]"
            },
            {
              "components": [
                {
                  "internalType": "address payable",
                  "name": "account",
                  "type": "address"
                },
                {
                  "internalType": "uint96",
                  "name": "value",
                  "type": "uint96"
                }
              ],
              "internalType": "struct LibPart.Part[]",
              "name": "royalties",
              "type": "tuple[]"
            },
            {
              "internalType": "bytes[]",
              "name": "signatures",
              "type": "bytes[]"
            }
          ],
          "internalType": "struct LibERC721LazyMint.Mint721Data",
          "name": "data",
          "type": "tuple"
        },
        {
          "internalType": "address",
          "name": "from",
          "type": "address"
        },
        {
          "internalType": "address",
          "name": "to",
          "type": "address"
        }
      ],
      "name": "transferFromOrMint",
      "outputs": [],
      "stateMutability": "nonpayable",
      "type": "function"
    },
    {
      "inputs": [
        {
          "internalType": "address",
          "name": "newOwner",
          "type": "address"
        }
      ],
      "name": "transferOwnership",
      "outputs": [],
      "stateMutability": "nonpayable",
      "type": "function"
    },
    {
      "inputs": [
        {
          "internalType": "uint256",
          "name": "_id",
          "type": "uint256"
        },
        {
          "internalType": "address",
          "name": "_from",
          "type": "address"
        },
        {
          "internalType": "address",
          "name": "_to",
          "type": "address"
        }
      ],
      "name": "updateAccount",
      "outputs": [],
      "stateMutability": "nonpayable",
      "type": "function"
    },
    {
      "inputs": [
        {
          "internalType": "string",
          "name": "_name",
          "type": "string"
        },
        {
          "internalType": "string",
          "name": "_symbol",
          "type": "string"
        },
        {
          "internalType": "string",
          "name": "baseURI",
          "type": "string"
        },
        {
          "internalType": "string",
          "name": "contractURI",
          "type": "string"
        },
        {
          "internalType": "address[]",
          "name": "operators",
          "type": "address[]"
        },
        {
          "internalType": "address",
          "name": "transferProxy",
          "type": "address"
        },
        {
          "internalType": "address",
          "name": "lazyTransferProxy",
          "type": "address"
        }
      ],
      "name": "__ERC721RaribleUser_init",
      "outputs": [],
      "stateMutability": "nonpayable",
      "type": "function"
    },
    {
      "inputs": [
        {
          "internalType": "string",
          "name": "_name",
          "type": "string"
        },
        {
          "internalType": "string",
          "name": "_symbol",
          "type": "string"
        },
        {
          "internalType": "string",
          "name": "baseURI",
          "type": "string"
        },
        {
          "internalType": "string",
          "name": "contractURI",
          "type": "string"
        },
        {
          "internalType": "address",
          "name": "transferProxy",
          "type": "address"
        },
        {
          "internalType": "address",
          "name": "lazyTransferProxy",
          "type": "address"
        }
      ],
      "name": "__ERC721Rarible_init",
      "outputs": [],
      "stateMutability": "nonpayable",
      "type": "function"
    },
    {
      "inputs": [
        {
          "components": [
            {
              "internalType": "uint256",
              "name": "tokenId",
              "type": "uint256"
            },
            {
              "internalType": "string",
              "name": "tokenURI",
              "type": "string"
            },
            {
              "components": [
                {
                  "internalType": "address payable",
                  "name": "account",
                  "type": "address"
                },
                {
                  "internalType": "uint96",
                  "name": "value",
                  "type": "uint96"
                }
              ],
              "internalType": "struct LibPart.Part[]",
              "name": "creators",
              "type": "tuple[]"
            },
            {
              "components": [
                {
                  "internalType": "address payable",
                  "name": "account",
                  "type": "address"
                },
                {
                  "internalType": "uint96",
                  "name": "value",
                  "type": "uint96"
                }
              ],
              "internalType": "struct LibPart.Part[]",
              "name": "royalties",
              "type": "tuple[]"
            },
            {
              "internalType": "bytes[]",
              "name": "signatures",
              "type": "bytes[]"
            }
          ],
          "internalType": "struct LibERC721LazyMint.Mint721Data",
          "name": "data",
          "type": "tuple"
        },
        {
          "internalType": "address",
          "name": "to",
          "type": "address"
        }
      ],
      "name": "mintAndTransfer",
      "outputs": [],
      "stateMutability": "nonpayable",
      "type": "function"
    }
  ],
  "bytecode": "0x608060405234801561001057600080fd5b5061498b806100206000396000f3fe608060405234801561001057600080fd5b50600436106101f05760003560e01c8063715018a61161010f578063aa271e1a116100a2578063e07f231911610071578063e07f23191461042c578063e8a3d4851461043f578063e985e9c514610447578063f2fde38b1461045a576101f0565b8063aa271e1a146103e0578063b88d4fde146103f3578063c87b56dd14610406578063cad96cca14610419576101f0565b80638da5cb5b116100de5780638da5cb5b146103aa57806395d89b41146103b2578063983b2d56146103ba578063a22cb465146103cd576101f0565b8063715018a61461035c57806371e2a65714610364578063832fbb2914610377578063891be9741461038a576101f0565b80633db397c61161018757806355f804b31161015657806355f804b31461030e5780636352211e146103215780636c0360eb1461033457806370a082311461033c576101f0565b80633db397c6146102c257806342842e0e146102d557806342966c68146102e85780634648eb9d146102fb576101f0565b806322a775b6116101c357806322a775b61461026857806323b872dd1461027b5780632a55205a1461028e5780633092afd5146102af576101f0565b806301ffc9a7146101f557806306fdde031461021e578063081812fc14610233578063095ea7b314610253575b600080fd5b610208610203366004613f7b565b61046d565b60405161021591906143a4565b60405180910390f35b610226610480565b60405161021591906143af565b61024661024136600461422d565b610516565b604051610215919061432e565b610266610261366004613f1e565b610579565b005b610266610276366004614188565b61064f565b610266610289366004613e44565b6106f1565b6102a161029c36600461426b565b610748565b604051610215929190614378565b6102666102bd366004613df0565b610856565b6102666102d0366004613fd5565b610906565b6102666102e3366004613e44565b610969565b6102666102f636600461422d565b610984565b61026661030936600461409c565b610a4e565b61026661031c366004613fa3565b610ab5565b61024661032f36600461422d565b610b5a565b610226610bae565b61034f61034a366004613df0565b610c10565b6040516102159190614575565b610266610c74565b610266610372366004613f49565b610d20565b6102666103853660046141cc565b610e05565b61039d61039836600461422d565b610e80565b6040516102159190614391565b610246610f10565b610226610f1f565b6102666103c8366004613df0565b610f80565b6102666103db366004613eed565b611035565b6102086103ee366004613df0565b61113b565b610266610401366004613e84565b61115a565b61022661041436600461422d565b6111b8565b61039d61042736600461422d565b6111c3565b61026661043a366004614245565b61123e565b610226611281565b610208610455366004613e0c565b611310565b610266610468366004613df0565b611325565b600061047882611428565b90505b919050565b60fd8054604080516020601f600260001961010060018816150201909516949094049384018190048102820181019092528281526060939092909183018282801561050c5780601f106104e15761010080835404028352916020019161050c565b820191906000526020600020905b8154815290600101906020018083116104ef57829003601f168201915b5050505050905090565b6000610521826114e2565b61055c5760405162461bcd60e51b815260040180806020018281038252602c8152602001806147bf602c913960400191505060405180910390fd5b50600090815261010160205260409020546001600160a01b031690565b600061058482610b5a565b9050806001600160a01b0316836001600160a01b031614156105d75760405162461bcd60e51b81526004018080602001828103825260218152602001806148af6021913960400191505060405180910390fd5b806001600160a01b03166105e96114ff565b6001600160a01b031614806106055750610605816104556114ff565b6106405760405162461bcd60e51b81526004018080602001828103825260388152602001806146b76038913960400191505060405180910390fd5b61064a8383611503565b505050565b6102925460ff16156106e357816040015160008151811061066c57fe5b6020026020010151600001516001600160a01b0316610689610f10565b6001600160a01b031614806106be57506106be82604001516000815181106106ad57fe5b60200260200101516000015161113b565b6106e35760405162461bcd60e51b81526004016106da906143ed565b60405180910390fd5b6106ed8282611572565b5050565b6107026106fc6114ff565b826116f4565b61073d5760405162461bcd60e51b81526004018080602001828103825260318152602001806148d06031913960400191505060405180910390fd5b61064a838383611700565b60008281526101c6602052604081205481906107695750600090508061084f565b60008481526101c66020908152604080832080548251818502810185019093528083529192909190849084015b828210156107e557600084815260209081902060408051808201909152908401546001600160a01b0381168252600160a01b90046001600160601b031681830152825260019092019101610796565b505050509050806000815181106107f857fe5b60209081029190910101515192506000805b82518110156108435782818151811061081f57fe5b6020026020010151602001516001600160601b03168201915080600101905061080a565b50612710908502049150505b9250929050565b61085e6114ff565b6001600160a01b031661086f610f10565b6001600160a01b0316146108b8576040805162461bcd60e51b81526020600482018190526024820152600080516020614817833981519152604482015290519081900360640190fd5b6001600160a01b03811660008181526102c46020526040808220805460ff19169055519091907f3042b80e435ae46c334b2cfec51a66d64c9a8a8af4cd0c279a124c35a09e91dd908390a350565b61091486868686868661181f565b610292805460ff191690557ff05e55f0a9d205977ca8cc02236338b6a361376f404cf0b3019b2111964a01fd6109486114ff565b878760405161095993929190614342565b60405180910390a1505050505050565b61064a8383836040518060200160405280600081525061115a565b61098d816114e2565b6109fc57606081901c61099e6114ff565b6001600160a01b0316816001600160a01b0316146109ed5760405162461bcd60e51b815260040180806020018281038252602d815260200180614792602d913960400191505060405180910390fd5b6109f682611939565b50610a4b565b610a076106fc6114ff565b610a425760405162461bcd60e51b81526004018080602001828103825260308152602001806149266030913960400191505060405180910390fd5b610a4b81611955565b50565b610a5c87878787868661181f565b610292805460ff191660011790557fd901a467fa419f379a67636a1de44cc2ed772beb43a0c05fa1ddcad5d59e9913610a936114ff565b8888604051610aa493929190614342565b60405180910390a150505050505050565b610abd6114ff565b6001600160a01b0316610ace610f10565b6001600160a01b031614610b17576040805162461bcd60e51b81526020600482018190526024820152600080516020614817833981519152604482015290519081900360640190fd5b610b20816119f1565b7f87cdeaffd8e70903d6ce7cc983fac3b09ca79e83818124c98e47a1d70f8027d681604051610b4f91906143af565b60405180910390a150565b600081815260ff60205260408120546001600160a01b0316806104785760405162461bcd60e51b81526004018080602001828103825260298152602001806147196029913960400191505060405180910390fd5b6101c88054604080516020601f600260001961010060018816150201909516949094049384018190048102820181019092528281526060939092909183018282801561050c5780601f106104e15761010080835404028352916020019161050c565b60006001600160a01b038216610c575760405162461bcd60e51b815260040180806020018281038252602a8152602001806146ef602a913960400191505060405180910390fd5b506001600160a01b03166000908152610100602052604090205490565b610c7c6114ff565b6001600160a01b0316610c8d610f10565b6001600160a01b031614610cd6576040805162461bcd60e51b81526020600482018190526024820152600080516020614817833981519152604482015290519081900360640190fd5b6033546040516000916001600160a01b0316907f8be0079c531659141344cd1fd0a4f28419497f9722a3daafe3b4186f6b6457e0908390a3603380546001600160a01b0319169055565b610d286114ff565b6001600160a01b0316610d39610f10565b6001600160a01b031614610d82576040805162461bcd60e51b81526020600482018190526024820152600080516020614817833981519152604482015290519081900360640190fd5b60005b81518110156106ed576000828281518110610d9c57fe5b6020908102919091018101516001600160a01b03811660008181526102c49093526040808420805460ff1916600190811790915590519294509290917f3042b80e435ae46c334b2cfec51a66d64c9a8a8af4cd0c279a124c35a09e91dd9190a350600101610d85565b8251610e10906114e2565b15610e2957610e2482828560000151610969565b61064a565b8260400151600081518110610e3a57fe5b6020026020010151600001516001600160a01b0316826001600160a01b031614610e765760405162461bcd60e51b81526004016106da906143c2565b61064a838261064f565b60606101fb6000838152602001908152602001600020805480602002602001604051908101604052809291908181526020016000905b82821015610f0557600084815260209081902060408051808201909152908401546001600160a01b0381168252600160a01b90046001600160601b031681830152825260019092019101610eb6565b505050509050919050565b6033546001600160a01b031690565b60fe8054604080516020601f600260001961010060018816150201909516949094049384018190048102820181019092528281526060939092909183018282801561050c5780601f106104e15761010080835404028352916020019161050c565b610f886114ff565b6001600160a01b0316610f99610f10565b6001600160a01b031614610fe2576040805162461bcd60e51b81526020600482018190526024820152600080516020614817833981519152604482015290519081900360640190fd5b6001600160a01b03811660008181526102c46020526040808220805460ff1916600190811790915590519092917f3042b80e435ae46c334b2cfec51a66d64c9a8a8af4cd0c279a124c35a09e91dd91a350565b61103d6114ff565b6001600160a01b0316826001600160a01b031614156110a3576040805162461bcd60e51b815260206004820152601960248201527f4552433732313a20617070726f766520746f2063616c6c657200000000000000604482015290519081900360640190fd5b8061010260006110b16114ff565b6001600160a01b03908116825260208083019390935260409182016000908120918716808252919093529120805460ff1916921515929092179091556110f56114ff565b6001600160a01b03167f17307eab39ab6107e8899845ad3d59bd9653f200f220920489ca2b5937696c318360405180821515815260200191505060405180910390a35050565b6001600160a01b031660009081526102c4602052604090205460ff1690565b61116b6111656114ff565b836116f4565b6111a65760405162461bcd60e51b81526004018080602001828103825260318152602001806148d06031913960400191505060405180910390fd5b6111b284848484611a05565b50505050565b606061047882611a57565b60008181526101c660209081526040808320805482518185028101850190935280835260609492939192909184018215610f0557600084815260209081902060408051808201909152908401546001600160a01b0381168252600160a01b90046001600160601b031681830152825260019092019101610eb6565b816001600160a01b03166112506114ff565b6001600160a01b0316146112765760405162461bcd60e51b81526004016106da9061447a565b61064a838383611a62565b61022e805460408051602060026001851615610100026000190190941693909304601f810184900484028201840190925281815292918301828280156113085780601f106112dd57610100808354040283529160200191611308565b820191906000526020600020905b8154815290600101906020018083116112eb57829003601f168201915b505050505081565b600061131c8383611b0e565b90505b92915050565b61132d6114ff565b6001600160a01b031661133e610f10565b6001600160a01b031614611387576040805162461bcd60e51b81526020600482018190526024820152600080516020614817833981519152604482015290519081900360640190fd5b6001600160a01b0381166113cc5760405162461bcd60e51b815260040180806020018281038252602681526020018061461f6026913960400191505060405180910390fd5b6033546040516001600160a01b038084169216907f8be0079c531659141344cd1fd0a4f28419497f9722a3daafe3b4186f6b6457e090600090a3603380546001600160a01b0319166001600160a01b0392909216919091179055565b60006001600160e01b03198216638486f69f60e01b148061145957506001600160e01b0319821663656cb66560e11b145b8061147457506001600160e01b0319821663152a902d60e11b145b8061148f57506001600160e01b031982166301ffc9a760e01b145b806114aa57506001600160e01b031982166380ac58cd60e01b145b806114c557506001600160e01b03198216635b5e139f60e01b145b806104785750506001600160e01b03191663780e9d6360e01b1490565b600090815260ff60205260409020546001600160a01b0316151590565b3390565b60008181526101016020526040902080546001600160a01b0319166001600160a01b038416908117909155819061153982610b5a565b6001600160a01b03167f8c5be1e5ebec7d5bd14f71427d1e84f3dd0314c0f7b2291e5b200ac8c7c3b92560405160405180910390a45050565b815160601c60006115816114ff565b9050836040015160008151811061159457fe5b6020026020010151600001516001600160a01b0316826001600160a01b0316146115d05760405162461bcd60e51b81526004016106da9061444f565b836080015151846040015151146115e657600080fd5b806001600160a01b0316826001600160a01b0316148061160b575061160b8282611310565b6116275760405162461bcd60e51b81526004016106da906144d6565b600061163285611b3b565b905060005b8560400151518110156116a85760008660400151828151811061165657fe5b6020026020010151600001519050836001600160a01b0316816001600160a01b03161461169f5761169f81848960800151858151811061169257fe5b6020026020010151611d82565b50600101611637565b506116b7848660000151611d8d565b6116c985600001518660600151611da7565b6116db85600001518660400151611f96565b6116ed85600001518660200151612145565b5050505050565b600061131c83836121a9565b826001600160a01b031661171382610b5a565b6001600160a01b0316146117585760405162461bcd60e51b81526004018080602001828103825260298152602001806148376029913960400191505060405180910390fd5b6001600160a01b03821661179d5760405162461bcd60e51b81526004018080602001828103825260248152602001806146456024913960400191505060405180910390fd5b6117a883838361064a565b6117b3600082611503565b6001600160a01b0380841660008181526101006020908152604080832080546000190190559386168083528483208054600101905585835260ff90915283822080546001600160a01b0319168217905592518493929160008051602061488f83398151915291a4505050565b600054610100900460ff168061183857506118386121d6565b80611846575060005460ff16155b6118815760405162461bcd60e51b815260040180806020018281038252602e815260200180614742602e913960400191505060405180910390fd5b600054610100900460ff161580156118ac576000805460ff1961ff0019909116610100171660011790555b6118b5856119f1565b6118bd6121e7565b6118c5612288565b6118cd6121e7565b6118d5612325565b6118dd6123c2565b6118e56121e7565b6118ed6124bb565b6118f56121e7565b6118fe8461258a565b6119088787612651565b61191383600161273c565b61191e82600161273c565b8015611930576000805461ff00191690555b50505050505050565b600090815261010360205260409020805460ff19166001179055565b600061196082610b5a565b905061196e8160008461064a565b611979600083611503565b6119828261279d565b6001600160a01b038116600090815261010060209081526040808320805460001901905584835260ff909152902080546001600160a01b03191690556119c782611939565b60405182906000906001600160a01b0384169060008051602061488f833981519152908390a45050565b80516106ed906101c8906020840190613a58565b611a10848484611700565b611a1c848484846127a6565b6111b25760405162461bcd60e51b81526004018080602001828103825260328152602001806145ed6032913960400191505060405180910390fd5b60606104788261295c565b60008381526101c66020526040812054905b818110156116ed5760008581526101c66020526040902080546001600160a01b038616919083908110611aa357fe5b6000918252602090912001546001600160a01b03161415611b065760008581526101c660205260409020805484919083908110611adc57fe5b600091825260209091200180546001600160a01b0319166001600160a01b03929092169190911790555b600101611a74565b6001600160a01b038116600090815261012f602052604081205460ff168061131c575061131c8383612b37565b6000808260600151516001600160401b0381118015611b5957600080fd5b50604051908082528060200260200182016040528015611b83578160200160208202803683370190505b50905060005b836060015151811015611bd557611bb684606001518281518110611ba957fe5b6020026020010151612b66565b828281518110611bc257fe5b6020908102919091010152600101611b89565b5060008360400151516001600160401b0381118015611bf357600080fd5b50604051908082528060200260200182016040528015611c1d578160200160208202803683370190505b50905060005b846040015151811015611c6257611c4385604001518281518110611ba957fe5b828281518110611c4f57fe5b6020908102919091010152600101611c23565b507ff64326045af5fd7e15297ba939f85b550474d3899daa47d2bc1ffbdb9ced344e84600001518560200151805190602001208360405160200180828051906020019060200280838360005b83811015611cc6578181015183820152602001611cae565b50505050905001915050604051602081830303815290604052805190602001208560405160200180828051906020019060200280838360005b83811015611d17578181015183820152602001611cff565b505050509050019150506040516020818303038152906040528051906020012060405160200180868152602001858152602001848152602001838152602001828152602001955050505050506040516020818303038152906040528051906020012092505050919050565b61064a838383612bd3565b6106ed828260405180602001604052806000815250612e52565b6000805b8251811015611f4b5760006001600160a01b0316838281518110611dcb57fe5b6020026020010151600001516001600160a01b03161415611e33576040805162461bcd60e51b815260206004820152601b60248201527f526563697069656e742073686f756c642062652070726573656e740000000000604482015290519081900360640190fd5b828181518110611e3f57fe5b6020026020010151602001516001600160601b031660001415611ea9576040805162461bcd60e51b815260206004820181905260248201527f526f79616c74792076616c75652073686f756c6420626520706f736974697665604482015290519081900360640190fd5b828181518110611eb557fe5b6020026020010151602001516001600160601b0316820191506101c66000858152602001908152602001600020838281518110611eee57fe5b60209081029190910181015182546001818101855560009485529383902082519101805492909301516001600160601b0316600160a01b026001600160a01b039182166001600160a01b0319909316929092171617905501611dab565b506127108110611f8c5760405162461bcd60e51b81526004018080602001828103825260258152602001806149016025913960400191505060405180910390fd5b61064a8383612ea4565b60008281526101fb6020526040812090805b83518110156120e45760006001600160a01b0316848281518110611fc857fe5b6020026020010151600001516001600160a01b03161415611ffb5760405162461bcd60e51b81526004016106da9061449f565b83818151811061200757fe5b6020026020010151602001516001600160601b03166000141561203c5760405162461bcd60e51b81526004016106da9061441a565b8284828151811061204957fe5b602090810291909101810151825460018101845560009384529282902081519301805491909201516001600160601b0316600160a01b026001600160a01b039384166001600160a01b03199092169190911790921691909117905583516120da908590839081106120b657fe5b6020026020010151602001516001600160601b031683612ee190919063ffffffff16565b9150600101611fa8565b5080612710146121065760405162461bcd60e51b81526004016106da90614527565b7f841ffb90d4cabdd1f16034f3fa831d79060febbb8167bdd54a49269365bdf78f848460405161213792919061457e565b60405180910390a150505050565b61214e826114e2565b6121895760405162461bcd60e51b815260040180806020018281038252602c8152602001806147eb602c913960400191505060405180910390fd5b60008281526101c760209081526040909120825161064a92840190613a58565b6001600160a01b038216600090815261012f602052604081205460ff168061131c575061131c8383612f3b565b60006121e130612fd7565b15905090565b600054610100900460ff168061220057506122006121d6565b8061220e575060005460ff16155b6122495760405162461bcd60e51b815260040180806020018281038252602e815260200180614742602e913960400191505060405180910390fd5b600054610100900460ff16158015612274576000805460ff1961ff0019909116610100171660011790555b8015610a4b576000805461ff001916905550565b600054610100900460ff16806122a157506122a16121d6565b806122af575060005460ff16155b6122ea5760405162461bcd60e51b815260040180806020018281038252602e815260200180614742602e913960400191505060405180910390fd5b600054610100900460ff16158015612315576000805460ff1961ff0019909116610100171660011790555b61227463656cb66560e11b612fdd565b600054610100900460ff168061233e575061233e6121d6565b8061234c575060005460ff16155b6123875760405162461bcd60e51b815260040180806020018281038252602e815260200180614742602e913960400191505060405180910390fd5b600054610100900460ff161580156123b2576000805460ff1961ff0019909116610100171660011790555b6122746301ffc9a760e01b612fdd565b600054610100900460ff16806123db57506123db6121d6565b806123e9575060005460ff16155b6124245760405162461bcd60e51b815260040180806020018281038252602e815260200180614742602e913960400191505060405180910390fd5b600054610100900460ff1615801561244f576000805460ff1961ff0019909116610100171660011790555b60006124596114ff565b603380546001600160a01b0319166001600160a01b038316908117909155604051919250906000907f8be0079c531659141344cd1fd0a4f28419497f9722a3daafe3b4186f6b6457e0908290a3508015610a4b576000805461ff001916905550565b600054610100900460ff16806124d457506124d46121d6565b806124e2575060005460ff16155b61251d5760405162461bcd60e51b815260040180806020018281038252602e815260200180614742602e913960400191505060405180910390fd5b600054610100900460ff16158015612548576000805460ff1961ff0019909116610100171660011790555b612274604051806040016040528060078152602001664d696e7437323160c81b815250604051806040016040528060018152602001603160f81b815250613061565b600054610100900460ff16806125a357506125a36121d6565b806125b1575060005460ff16155b6125ec5760405162461bcd60e51b815260040180806020018281038252602e815260200180614742602e913960400191505060405180910390fd5b600054610100900460ff16158015612617576000805460ff1961ff0019909116610100171660011790555b815161262b9061022e906020850190613a58565b5061263c63e8a3d48560e01b612fdd565b80156106ed576000805461ff00191690555050565b600054610100900460ff168061266a575061266a6121d6565b80612678575060005460ff16155b6126b35760405162461bcd60e51b815260040180806020018281038252602e815260200180614742602e913960400191505060405180910390fd5b600054610100900460ff161580156126de576000805460ff1961ff0019909116610100171660011790555b82516126f19060fd906020860190613a58565b5081516127059060fe906020850190613a58565b506127166380ac58cd60e01b612fdd565b612726635b5e139f60e01b612fdd565b801561064a576000805461ff0019169055505050565b6001600160a01b038216600081815261012f6020908152604091829020805460ff1916851515908117909155825190815291517f270dbb8ba4292910ae92862466486be25c355c837270a3d8824b36a8bc7c653b9281900390910190a25050565b610a4b81613121565b60006127ba846001600160a01b0316612fd7565b1561295057836001600160a01b031663150b7a026127d66114ff565b8786866040518563ffffffff1660e01b815260040180856001600160a01b03168152602001846001600160a01b0316815260200183815260200180602001828103825283818151815260200191508051906020019080838360005b83811015612849578181015183820152602001612831565b50505050905090810190601f1680156128765780820380516001836020036101000a031916815260200191505b5095505050505050602060405180830381600087803b15801561289857600080fd5b505af19250505080156128bd57506040513d60208110156128b857600080fd5b505160015b612936573d8080156128eb576040519150601f19603f3d011682016040523d82523d6000602084013e6128f0565b606091505b50805161292e5760405162461bcd60e51b81526004018080602001828103825260328152602001806145ed6032913960400191505060405180910390fd5b805181602001fd5b6001600160e01b031916630a85bd0160e11b149050612954565b5060015b949350505050565b6060612967826114e2565b6129a25760405162461bcd60e51b815260040180806020018281038252602f815260200180614860602f913960400191505060405180910390fd5b60008281526101c7602090815260408083208054825160026001831615610100026000190190921691909104601f810185900485028201850190935282815292909190830182828015612a365780601f10612a0b57610100808354040283529160200191612a36565b820191906000526020600020905b815481529060010190602001808311612a1957829003601f168201915b505050505090506000612a47610bae565b9050805160001415612a5b5750905061047b565b815115612a7557612a6c818361312a565b9250505061047b565b80612a7f8561330f565b6040516020018083805190602001908083835b60208310612ab15780518252601f199092019160209182019101612a92565b51815160209384036101000a600019018019909216911617905285519190930192850191508083835b60208310612af95780518252601f199092019160209182019101612ada565b6001836020036101000a0380198251168184511680821785525050505050509050019250505060405160208183030381529060405292505050919050565b6001600160a01b0391821660009081526101026020908152604080832093909416825291909152205460ff1690565b8051602091820151604080517f397e04204c1e1a60ee8724b71f8244e10ab5f2e9009854d80f602bda21b59ebb818601526001600160a01b03909316838201526001600160601b039091166060808401919091528151808403909101815260809092019052805191012090565b6000612bde836133e9565b90506000825160411415612bf957612bf68284613435565b90505b846001600160a01b0316816001600160a01b0316146116ed57612c24856001600160a01b0316612fd7565b15612dda5760408051630b135d3f60e11b808252600482018581526024830193845286516044840152865191936001600160a01b038a1693631626ba7e9388938a9390929091606490910190602085019080838360005b83811015612c93578181015183820152602001612c7b565b50505050905090810190601f168015612cc05780820380516001836020036101000a031916815260200191505b50935050505060206040518083038186803b158015612cde57600080fd5b505afa158015612cf2573d6000803e3d6000fd5b505050506040513d6020811015612d0857600080fd5b505160408051808201909152601c81527f7369676e617475726520766572696669636174696f6e206572726f72000000006020820152916001600160e01b031990911614612dd45760405162461bcd60e51b81526004018080602001828103825283818151815260200191508051906020019080838360005b83811015612d99578181015183820152602001612d81565b50505050905090810190601f168015612dc65780820380516001836020036101000a031916815260200191505b509250505060405180910390fd5b506116ed565b604080518082018252601c81527f7369676e617475726520766572696669636174696f6e206572726f72000000006020808301918252925162461bcd60e51b81526004810193845282516024820152825192939283926044909201919080838360008315612d99578181015183820152602001612d81565b612e5c83836134b5565b612e6960008484846127a6565b61064a5760405162461bcd60e51b81526004018080602001828103825260328152602001806145ed6032913960400191505060405180910390fd5b7f3fa96d7b6bcbfe71ef171666d84db3cf52fa2d1c8afdb1cc8e486177f208b7df8282604051612ed592919061457e565b60405180910390a15050565b60008282018381101561131c576040805162461bcd60e51b815260206004820152601b60248201527f536166654d6174683a206164646974696f6e206f766572666c6f770000000000604482015290519081900360640190fd5b6000612f46826114e2565b612f815760405162461bcd60e51b815260040180806020018281038252602c81526020018061468b602c913960400191505060405180910390fd5b6000612f8c83610b5a565b9050806001600160a01b0316846001600160a01b03161480612fc75750836001600160a01b0316612fbc84610516565b6001600160a01b0316145b8061295457506129548185611310565b3b151590565b6001600160e01b0319808216141561303c576040805162461bcd60e51b815260206004820152601c60248201527f4552433136353a20696e76616c696420696e7465726661636520696400000000604482015290519081900360640190fd5b6001600160e01b0319166000908152606560205260409020805460ff19166001179055565b600054610100900460ff168061307a575061307a6121d6565b80613088575060005460ff16155b6130c35760405162461bcd60e51b815260040180806020018281038252602e815260200180614742602e913960400191505060405180910390fd5b600054610100900460ff161580156130ee576000805460ff1961ff0019909116610100171660011790555b8251602080850191909120835191840191909120609791909155609855801561064a576000805461ff0019169055505050565b610a4b8161361b565b805182516060918491849110156131f55784846040516020018083805190602001908083835b6020831061316f5780518252601f199092019160209182019101613150565b51815160209384036101000a600019018019909216911617905285519190930192850191508083835b602083106131b75780518252601f199092019160209182019101613198565b6001836020036101000a038019825116818451168082178552505050505050905001925050506040516020818303038152906040529250505061131f565b60005b82518110156133055782818151811061320d57fe5b602001015160f81c60f81b6001600160f81b03191682828151811061322e57fe5b01602001516001600160f81b031916146132fd5785856040516020018083805190602001908083835b602083106132765780518252601f199092019160209182019101613257565b51815160209384036101000a600019018019909216911617905285519190930192850191508083835b602083106132be5780518252601f19909201916020918201910161329f565b6001836020036101000a03801982511681845116808217855250505050505090500192505050604051602081830303815290604052935050505061131f565b6001016131f8565b5092949350505050565b60608161333457506040805180820190915260018152600360fc1b602082015261047b565b8160005b811561334c57600101600a82049150613338565b6000816001600160401b038111801561336457600080fd5b506040519080825280601f01601f19166020018201604052801561338f576020820181803683370190505b50859350905060001982015b83156133e057600a840660300160f81b828280600190039350815181106133be57fe5b60200101906001600160f81b031916908160001a905350600a8404935061339b565b50949350505050565b60006133f361365b565b82604051602001808061190160f01b81525060020183815260200182815260200192505050604051602081830303815290604052805190602001209050919050565b6000815160411461348d576040805162461bcd60e51b815260206004820152601f60248201527f45434453413a20696e76616c6964207369676e6174757265206c656e67746800604482015290519081900360640190fd5b60208201516040830151606084015160001a6134ab8682858561369b565b9695505050505050565b6001600160a01b038216613510576040805162461bcd60e51b815260206004820181905260248201527f4552433732313a206d696e7420746f20746865207a65726f2061646472657373604482015290519081900360640190fd5b6000818152610103602052604090205460ff161561356c576040805162461bcd60e51b81526020600482015260146024820152731d1bdad95b88185b1c9958591e48189d5c9b995960621b604482015290519081900360640190fd5b613575816114e2565b156135c7576040805162461bcd60e51b815260206004820152601c60248201527f4552433732313a20746f6b656e20616c7265616479206d696e74656400000000604482015290519081900360640190fd5b6135d36000838361064a565b6001600160a01b0382166000818152610100602090815260408083208054600101905584835260ff909152902080546001600160a01b03191690911790556106ed82826138f1565b60008181526101c760205260409020546002600019610100600184161502019091160415610a4b5760008181526101c760205260408120610a4b91613ae4565b60006136967f8b73c3c69bb8fe3d512ecc4cf759cc79239f7b179b0ffacaa9a75d522b39400f6136896138fb565b613691613901565b613907565b905090565b60007f7fffffffffffffffffffffffffffffff5d576e7357a4501ddfe92f46681b20a08211156136fc5760405162461bcd60e51b81526004018080602001828103825260228152602001806146696022913960400191505060405180910390fd5b6000601e8560ff1611156137d6576004850360ff16601b148061372557506004850360ff16601c145b6137605760405162461bcd60e51b81526004018080602001828103825260228152602001806147706022913960400191505060405180910390fd5b600161376b87613969565b60048703868660405160008152602001604052604051808581526020018460ff1681526020018381526020018281526020019450505050506020604051602081039080840390855afa1580156137c5573d6000803e3d6000fd5b50505060206040510351905061388d565b8460ff16601b14806137eb57508460ff16601c145b6138265760405162461bcd60e51b81526004018080602001828103825260228152602001806147706022913960400191505060405180910390fd5b60018686868660405160008152602001604052604051808581526020018460ff1681526020018381526020018281526020019450505050506020604051602081039080840390855afa158015613880573d6000803e3d6000fd5b5050506020604051035190505b6001600160a01b0381166138e8576040805162461bcd60e51b815260206004820152601860248201527f45434453413a20696e76616c6964207369676e61747572650000000000000000604482015290519081900360640190fd5b95945050505050565b6106ed82826139ba565b60975490565b60985490565b6000838383613914613a54565b3060405160200180868152602001858152602001848152602001838152602001826001600160a01b03168152602001955050505050506040516020818303038152906040528051906020012090509392505050565b604080517f19457468657265756d205369676e6564204d6573736167653a0a333200000000602080830191909152603c8083019490945282518083039094018452605c909101909152815191012090565b606081901c6001600160a01b0383168114613a295760405182906001600160a01b0383169060009060008051602061488f833981519152908290a481836001600160a01b0316826001600160a01b031660008051602061488f83398151915260405160405180910390a461064a565b60405182906001600160a01b0385169060009060008051602061488f833981519152908290a4505050565b4690565b828054600181600116156101000203166002900490600052602060002090601f016020900481019282613a8e5760008555613ad4565b82601f10613aa757805160ff1916838001178555613ad4565b82800160010185558215613ad4579182015b82811115613ad4578251825591602001919060010190613ab9565b50613ae0929150613b24565b5090565b50805460018160011615610100020316600290046000825580601f10613b0a5750610a4b565b601f016020900490600052602060002090810190610a4b91905b5b80821115613ae05760008155600101613b25565b803561047b816145d7565b600082601f830112613b54578081fd5b81356020613b69613b64836145ba565b614597565b8281528181019085830183850287018401881015613b85578586fd5b855b85811015613bac578135613b9a816145d7565b84529284019290840190600101613b87565b5090979650505050505050565b600082601f830112613bc9578081fd5b81356020613bd9613b64836145ba565b82815281810190858301855b85811015613bac57613bfc898684358b0101613cc9565b84529284019290840190600101613be5565b600082601f830112613c1e578081fd5b81356020613c2e613b64836145ba565b82815281810190858301604080860288018501891015613c4c578687fd5b865b86811015613cbb5781838b031215613c64578788fd5b81518281018181106001600160401b0382111715613c7e57fe5b83528335613c8b816145d7565b8152838701356001600160601b0381168114613ca557898afd5b8188015285529385019391810191600101613c4e565b509198975050505050505050565b600082601f830112613cd9578081fd5b81356001600160401b03811115613cec57fe5b613cff601f8201601f1916602001614597565b818152846020838601011115613d13578283fd5b816020850160208301379081016020019190915292915050565b600060a08284031215613d3e578081fd5b613d4860a0614597565b90508135815260208201356001600160401b0380821115613d6857600080fd5b613d7485838601613cc9565b60208401526040840135915080821115613d8d57600080fd5b613d9985838601613c0e565b60408401526060840135915080821115613db257600080fd5b613dbe85838601613c0e565b60608401526080840135915080821115613dd757600080fd5b50613de484828501613bb9565b60808301525092915050565b600060208284031215613e01578081fd5b813561131c816145d7565b60008060408385031215613e1e578081fd5b8235613e29816145d7565b91506020830135613e39816145d7565b809150509250929050565b600080600060608486031215613e58578081fd5b8335613e63816145d7565b92506020840135613e73816145d7565b929592945050506040919091013590565b60008060008060808587031215613e99578081fd5b8435613ea4816145d7565b93506020850135613eb4816145d7565b92506040850135915060608501356001600160401b03811115613ed5578182fd5b613ee187828801613cc9565b91505092959194509250565b60008060408385031215613eff578182fd5b8235613f0a816145d7565b915060208301358015158114613e39578182fd5b60008060408385031215613f30578182fd5b8235613f3b816145d7565b946020939093013593505050565b600060208284031215613f5a578081fd5b81356001600160401b03811115613f6f578182fd5b61295484828501613b44565b600060208284031215613f8c578081fd5b81356001600160e01b03198116811461131c578182fd5b600060208284031215613fb4578081fd5b81356001600160401b03811115613fc9578182fd5b61295484828501613cc9565b60008060008060008060c08789031215613fed578384fd5b86356001600160401b0380821115614003578586fd5b61400f8a838b01613cc9565b97506020890135915080821115614024578586fd5b6140308a838b01613cc9565b96506040890135915080821115614045578586fd5b6140518a838b01613cc9565b95506060890135915080821115614066578384fd5b5061407389828a01613cc9565b93505061408260808801613b39565b915061409060a08801613b39565b90509295509295509295565b600080600080600080600060e0888a0312156140b6578485fd5b87356001600160401b03808211156140cc578687fd5b6140d88b838c01613cc9565b985060208a01359150808211156140ed578687fd5b6140f98b838c01613cc9565b975060408a013591508082111561410e578687fd5b61411a8b838c01613cc9565b965060608a013591508082111561412f578283fd5b61413b8b838c01613cc9565b955060808a0135915080821115614150578283fd5b5061415d8a828b01613b44565b93505061416c60a08901613b39565b915061417a60c08901613b39565b905092959891949750929550565b6000806040838503121561419a578182fd5b82356001600160401b038111156141af578283fd5b6141bb85828601613d2d565b9250506020830135613e39816145d7565b6000806000606084860312156141e0578081fd5b83356001600160401b038111156141f5578182fd5b61420186828701613d2d565b9350506020840135614212816145d7565b91506040840135614222816145d7565b809150509250925092565b60006020828403121561423e578081fd5b5035919050565b600080600060608486031215614259578081fd5b833592506020840135614212816145d7565b6000806040838503121561427d578182fd5b50508035926020909101359150565b6000815180845260208085019450808401835b838110156142d857815180516001600160a01b031688528301516001600160601b0316838801526040909601959082019060010161429f565b509495945050505050565b60008151808452815b81811015614308576020818501810151868301820152016142ec565b818111156143195782602083870101525b50601f01601f19169290920160200192915050565b6001600160a01b0391909116815260200190565b6001600160a01b0384168152606060208201819052600090614366908301856142e3565b82810360408401526134ab81856142e3565b6001600160a01b03929092168252602082015260400190565b60006020825261131c602083018461428c565b901515815260200190565b60006020825261131c60208301846142e3565b6020808252601190820152703bb937b7339037b93232b91036b0b5b2b960791b604082015260600190565b6020808252601390820152723737ba1037bbb732b91037b91036b4b73a32b960691b604082015260600190565b6020808252818101527f43726561746f722073686172652073686f756c6420626520706f736974697665604082015260600190565b6020808252601190820152701d1bdad95b9259081a5b98dbdc9c9958dd607a1b604082015260600190565b6020808252600b908201526a1b9bdd08185b1b1bddd95960aa1b604082015260600190565b60208082526019908201527f4163636f756e742073686f756c642062652070726573656e7400000000000000604082015260600190565b60208082526031908201527f4552433732313a207472616e736665722063616c6c6572206973206e6f74206f6040820152701ddb995c881b9bdc88185c1c1c9bdd9959607a1b606082015260800190565b6020808252602e908201527f746f74616c20616d6f756e74206f662063726561746f7273207368617265207360408201526d0686f756c642062652031303030360941b606082015260800190565b90815260200190565b600083825260406020830152612954604083018461428c565b6040518181016001600160401b03811182821017156145b257fe5b604052919050565b60006001600160401b038211156145cd57fe5b5060209081020190565b6001600160a01b0381168114610a4b57600080fdfe4552433732313a207472616e7366657220746f206e6f6e20455243373231526563656976657220696d706c656d656e7465724f776e61626c653a206e6577206f776e657220697320746865207a65726f20616464726573734552433732313a207472616e7366657220746f20746865207a65726f206164647265737345434453413a20696e76616c6964207369676e6174757265202773272076616c75654552433732313a206f70657261746f7220717565727920666f72206e6f6e6578697374656e7420746f6b656e4552433732313a20617070726f76652063616c6c6572206973206e6f74206f776e6572206e6f7220617070726f76656420666f7220616c6c4552433732313a2062616c616e636520717565727920666f7220746865207a65726f20616464726573734552433732313a206f776e657220717565727920666f72206e6f6e6578697374656e7420746f6b656e496e697469616c697a61626c653a20636f6e747261637420697320616c726561647920696e697469616c697a656445434453413a20696e76616c6964207369676e6174757265202776272076616c75654552433732314275726e61626c653a2063616c6c6572206973206e6f74206f776e65722c206e6f74206275726e4552433732313a20617070726f76656420717565727920666f72206e6f6e6578697374656e7420746f6b656e4552433732314d657461646174613a2055524920736574206f66206e6f6e6578697374656e7420746f6b656e4f776e61626c653a2063616c6c6572206973206e6f7420746865206f776e65724552433732313a207472616e73666572206f6620746f6b656e2074686174206973206e6f74206f776e4552433732314d657461646174613a2055524920717565727920666f72206e6f6e6578697374656e7420746f6b656eddf252ad1be2c89b69c2b068fc378daa952ba7f163c4a11628f55a4df523b3ef4552433732313a20617070726f76616c20746f2063757272656e74206f776e65724552433732313a207472616e736665722063616c6c6572206973206e6f74206f776e6572206e6f7220617070726f766564526f79616c747920746f74616c2076616c75652073686f756c64206265203c2031303030304552433732314275726e61626c653a2063616c6c6572206973206e6f74206f776e6572206e6f7220617070726f766564a26469706673582212206ea709dd630fa711afe0431f6ac1426d2151d36873b712067cce2ba55c11cd2464736f6c63430007060033",
  "immutableReferences": {},
  "source": "// SPDX-License-Identifier: MIT\n\npragma solidity 0.7.6;\npragma abicoder v2;\n\nimport \"./ERC721BaseMinimal.sol\";\nimport \"../IsPrivateCollection.sol\";\nimport \"../access/MinterAccessControl.sol\";\n\ncontract ERC721RaribleMinimal is ERC721BaseMinimal, IsPrivateCollection, MinterAccessControl {\n    event CreateERC721Rarible(address owner, string name, string symbol);\n    event CreateERC721RaribleUser(address owner, string name, string symbol);\n\n    function __ERC721RaribleUser_init(string memory _name, string memory _symbol, string memory baseURI, string memory contractURI, address[] memory operators, address transferProxy, address lazyTransferProxy) external virtual {\n        __ERC721Rarible_init_unchained(_name, _symbol, baseURI, contractURI, transferProxy, lazyTransferProxy);\n\n        isPrivate = true;\n        emit CreateERC721RaribleUser(_msgSender(), _name, _symbol);\n    }\n\n    function __ERC721Rarible_init(string memory _name, string memory _symbol, string memory baseURI, string memory contractURI, address transferProxy, address lazyTransferProxy) external virtual {\n        __ERC721Rarible_init_unchained(_name, _symbol, baseURI, contractURI, transferProxy, lazyTransferProxy);\n\n        isPrivate = false;\n        emit CreateERC721Rarible(_msgSender(), _name, _symbol);\n    }\n\n    function __ERC721Rarible_init_unchained(string memory _name, string memory _symbol, string memory baseURI, string memory contractURI, address transferProxy, address lazyTransferProxy) internal initializer {\n        _setBaseURI(baseURI);\n        __ERC721Lazy_init_unchained();\n        __RoyaltiesV2Upgradeable_init_unchained();\n        __Context_init_unchained();\n        __ERC165_init_unchained();\n        __Ownable_init_unchained();\n        __ERC721Burnable_init_unchained();\n        __Mint721Validator_init_unchained();\n        __MinterAccessControl_init_unchained();\n        __HasContractURI_init_unchained(contractURI);\n        __ERC721_init_unchained(_name, _symbol);\n\n        //setting default approver for transferProxies\n        _setDefaultApproval(transferProxy, true);\n        _setDefaultApproval(lazyTransferProxy, true);\n    }\n\n    function mintAndTransfer(LibERC721LazyMint.Mint721Data memory data, address to) public override virtual {\n        if (isPrivate){\n            require(owner() == data.creators[0].account || isMinter(data.creators[0].account), \"not owner or minter\");\n        }\n        super.mintAndTransfer(data, to);\n    }\n}\n",
  "sourcePath": "@rarible/tokens/contracts/erc-721-minimal/ERC721RaribleMinimal.sol",
  "compiler": {
    "name": "solc",
    "version": "0.7.6+commit.7338295f.Emscripten.clang"
  },
  "schemaVersion": "3.4.3",
  "updatedAt": "2023-10-09T16:25:10.909Z",
  "devdoc": {
    "kind": "dev",
    "methods": {
      "addMinter(address)": {
        "details": "Add `minter` to the list of allowed minters."
      },
      "addMinters(address[])": {
        "details": "Add `minters` to the list of allowed minters."
      },
      "approve(address,uint256)": {
        "details": "See {IERC721-approve}."
      },
      "balanceOf(address)": {
        "details": "See {IERC721-balanceOf}."
      },
      "baseURI()": {
        "details": "Returns the base URI set via {_setBaseURI}. This will be automatically added as a prefix in {tokenURI} to each token's URI, or to the token ID if no specific URI is set for that token ID."
      },
      "burn(uint256)": {
        "details": "Burns `tokenId`. See {ERC721-_burn}. Requirements: - The caller must own `tokenId` or be an approved operator."
      },
      "getApproved(uint256)": {
        "details": "See {IERC721-getApproved}."
      },
      "isMinter(address)": {
        "details": "Returns `true` if `account` has been granted to minters."
      },
      "name()": {
        "details": "See {IERC721Metadata-name}."
      },
      "owner()": {
        "details": "Returns the address of the current owner."
      },
      "ownerOf(uint256)": {
        "details": "See {IERC721-ownerOf}."
      },
      "removeMinter(address)": {
        "details": "Revoke `_minter` from the list of allowed minters."
      },
      "renounceOwnership()": {
        "details": "Leaves the contract without owner. It will not be possible to call `onlyOwner` functions anymore. Can only be called by the current owner. NOTE: Renouncing ownership will leave the contract without an owner, thereby removing any functionality that is only available to the owner."
      },
      "safeTransferFrom(address,address,uint256)": {
        "details": "See {IERC721-safeTransferFrom}."
      },
      "safeTransferFrom(address,address,uint256,bytes)": {
        "details": "See {IERC721-safeTransferFrom}."
      },
      "setApprovalForAll(address,bool)": {
        "details": "See {IERC721-setApprovalForAll}."
      },
      "symbol()": {
        "details": "See {IERC721Metadata-symbol}."
      },
      "transferFrom(address,address,uint256)": {
        "details": "See {IERC721-transferFrom}."
      },
      "transferOwnership(address)": {
        "details": "Transfers ownership of the contract to a new account (`newOwner`). Can only be called by the current owner."
      }
    },
    "version": 1
  },
  "userdoc": {
    "kind": "user",
    "methods": {},
    "version": 1
  }
}