{
  "contractName": "ERC721RaribleUserMinimal",
  "abi": [
    {
      "anonymous": false,
      "inputs": [
        {
          "indexed": true,
          "internalType": "address",
          "name": "owner",
          "type": "address"
        },
        {
          "indexed": true,
          "internalType": "address",
          "name": "approved",
          "type": "address"
        },
        {
          "indexed": true,
          "internalType": "uint256",
          "name": "tokenId",
          "type": "uint256"
        }
      ],
      "name": "Approval",
      "type": "event"
    },
    {
      "anonymous": false,
      "inputs": [
        {
          "indexed": true,
          "internalType": "address",
          "name": "owner",
          "type": "address"
        },
        {
          "indexed": true,
          "internalType": "address",
          "name": "operator",
          "type": "address"
        },
        {
          "indexed": false,
          "internalType": "bool",
          "name": "approved",
          "type": "bool"
        }
      ],
      "name": "ApprovalForAll",
      "type": "event"
    },
    {
      "anonymous": false,
      "inputs": [
        {
          "indexed": false,
          "internalType": "address",
          "name": "owner",
          "type": "address"
        },
        {
          "indexed": false,
          "internalType": "string",
          "name": "name",
          "type": "string"
        },
        {
          "indexed": false,
          "internalType": "string",
          "name": "symbol",
          "type": "string"
        }
      ],
      "name": "CreateERC721RaribleUser",
      "type": "event"
    },
    {
      "anonymous": false,
      "inputs": [
        {
          "indexed": false,
          "internalType": "uint256",
          "name": "tokenId",
          "type": "uint256"
        },
        {
          "components": [
            {
              "internalType": "address payable",
              "name": "account",
              "type": "address"
            },
            {
              "internalType": "uint96",
              "name": "value",
              "type": "uint96"
            }
          ],
          "indexed": false,
          "internalType": "struct LibPart.Part[]",
          "name": "creators",
          "type": "tuple[]"
        }
      ],
      "name": "Creators",
      "type": "event"
    },
    {
      "anonymous": false,
      "inputs": [
        {
          "indexed": true,
          "internalType": "address",
          "name": "previousOwner",
          "type": "address"
        },
        {
          "indexed": true,
          "internalType": "address",
          "name": "newOwner",
          "type": "address"
        }
      ],
      "name": "OwnershipTransferred",
      "type": "event"
    },
    {
      "anonymous": false,
      "inputs": [
        {
          "indexed": false,
          "internalType": "uint256",
          "name": "tokenId",
          "type": "uint256"
        },
        {
          "components": [
            {
              "internalType": "address payable",
              "name": "account",
              "type": "address"
            },
            {
              "internalType": "uint96",
              "name": "value",
              "type": "uint96"
            }
          ],
          "indexed": false,
          "internalType": "struct LibPart.Part[]",
          "name": "royalties",
          "type": "tuple[]"
        }
      ],
      "name": "RoyaltiesSet",
      "type": "event"
    },
    {
      "anonymous": false,
      "inputs": [
        {
          "indexed": true,
          "internalType": "address",
          "name": "from",
          "type": "address"
        },
        {
          "indexed": true,
          "internalType": "address",
          "name": "to",
          "type": "address"
        },
        {
          "indexed": true,
          "internalType": "uint256",
          "name": "tokenId",
          "type": "uint256"
        }
      ],
      "name": "Transfer",
      "type": "event"
    },
    {
      "inputs": [
        {
          "internalType": "address",
          "name": "to",
          "type": "address"
        },
        {
          "internalType": "uint256",
          "name": "tokenId",
          "type": "uint256"
        }
      ],
      "name": "approve",
      "outputs": [],
      "stateMutability": "nonpayable",
      "type": "function"
    },
    {
      "inputs": [
        {
          "internalType": "address",
          "name": "owner",
          "type": "address"
        }
      ],
      "name": "balanceOf",
      "outputs": [
        {
          "internalType": "uint256",
          "name": "",
          "type": "uint256"
        }
      ],
      "stateMutability": "view",
      "type": "function"
    },
    {
      "inputs": [],
      "name": "baseURI",
      "outputs": [
        {
          "internalType": "string",
          "name": "",
          "type": "string"
        }
      ],
      "stateMutability": "view",
      "type": "function"
    },
    {
      "inputs": [
        {
          "internalType": "uint256",
          "name": "tokenId",
          "type": "uint256"
        }
      ],
      "name": "burn",
      "outputs": [],
      "stateMutability": "nonpayable",
      "type": "function"
    },
    {
      "inputs": [],
      "name": "contractURI",
      "outputs": [
        {
          "internalType": "string",
          "name": "",
          "type": "string"
        }
      ],
      "stateMutability": "view",
      "type": "function"
    },
    {
      "inputs": [
        {
          "internalType": "uint256",
          "name": "tokenId",
          "type": "uint256"
        }
      ],
      "name": "getApproved",
      "outputs": [
        {
          "internalType": "address",
          "name": "",
          "type": "address"
        }
      ],
      "stateMutability": "view",
      "type": "function"
    },
    {
      "inputs": [
        {
          "internalType": "uint256",
          "name": "_id",
          "type": "uint256"
        }
      ],
      "name": "getCreators",
      "outputs": [
        {
          "components": [
            {
              "internalType": "address payable",
              "name": "account",
              "type": "address"
            },
            {
              "internalType": "uint96",
              "name": "value",
              "type": "uint96"
            }
          ],
          "internalType": "struct LibPart.Part[]",
          "name": "",
          "type": "tuple[]"
        }
      ],
      "stateMutability": "view",
      "type": "function"
    },
    {
      "inputs": [
        {
          "internalType": "uint256",
          "name": "id",
          "type": "uint256"
        }
      ],
      "name": "getRaribleV2Royalties",
      "outputs": [
        {
          "components": [
            {
              "internalType": "address payable",
              "name": "account",
              "type": "address"
            },
            {
              "internalType": "uint96",
              "name": "value",
              "type": "uint96"
            }
          ],
          "internalType": "struct LibPart.Part[]",
          "name": "",
          "type": "tuple[]"
        }
      ],
      "stateMutability": "view",
      "type": "function"
    },
    {
      "inputs": [
        {
          "internalType": "address",
          "name": "owner",
          "type": "address"
        },
        {
          "internalType": "address",
          "name": "operator",
          "type": "address"
        }
      ],
      "name": "isApprovedForAll",
      "outputs": [
        {
          "internalType": "bool",
          "name": "",
          "type": "bool"
        }
      ],
      "stateMutability": "view",
      "type": "function"
    },
    {
      "inputs": [],
      "name": "name",
      "outputs": [
        {
          "internalType": "string",
          "name": "",
          "type": "string"
        }
      ],
      "stateMutability": "view",
      "type": "function"
    },
    {
      "inputs": [],
      "name": "owner",
      "outputs": [
        {
          "internalType": "address",
          "name": "",
          "type": "address"
        }
      ],
      "stateMutability": "view",
      "type": "function"
    },
    {
      "inputs": [
        {
          "internalType": "uint256",
          "name": "tokenId",
          "type": "uint256"
        }
      ],
      "name": "ownerOf",
      "outputs": [
        {
          "internalType": "address",
          "name": "",
          "type": "address"
        }
      ],
      "stateMutability": "view",
      "type": "function"
    },
    {
      "inputs": [],
      "name": "renounceOwnership",
      "outputs": [],
      "stateMutability": "nonpayable",
      "type": "function"
    },
    {
      "inputs": [
        {
          "internalType": "address",
          "name": "from",
          "type": "address"
        },
        {
          "internalType": "address",
          "name": "to",
          "type": "address"
        },
        {
          "internalType": "uint256",
          "name": "tokenId",
          "type": "uint256"
        }
      ],
      "name": "safeTransferFrom",
      "outputs": [],
      "stateMutability": "nonpayable",
      "type": "function"
    },
    {
      "inputs": [
        {
          "internalType": "address",
          "name": "from",
          "type": "address"
        },
        {
          "internalType": "address",
          "name": "to",
          "type": "address"
        },
        {
          "internalType": "uint256",
          "name": "tokenId",
          "type": "uint256"
        },
        {
          "internalType": "bytes",
          "name": "_data",
          "type": "bytes"
        }
      ],
      "name": "safeTransferFrom",
      "outputs": [],
      "stateMutability": "nonpayable",
      "type": "function"
    },
    {
      "inputs": [
        {
          "internalType": "address",
          "name": "operator",
          "type": "address"
        },
        {
          "internalType": "bool",
          "name": "approved",
          "type": "bool"
        }
      ],
      "name": "setApprovalForAll",
      "outputs": [],
      "stateMutability": "nonpayable",
      "type": "function"
    },
    {
      "inputs": [],
      "name": "symbol",
      "outputs": [
        {
          "internalType": "string",
          "name": "",
          "type": "string"
        }
      ],
      "stateMutability": "view",
      "type": "function"
    },
    {
      "inputs": [
        {
          "internalType": "address",
          "name": "from",
          "type": "address"
        },
        {
          "internalType": "address",
          "name": "to",
          "type": "address"
        },
        {
          "internalType": "uint256",
          "name": "tokenId",
          "type": "uint256"
        }
      ],
      "name": "transferFrom",
      "outputs": [],
      "stateMutability": "nonpayable",
      "type": "function"
    },
    {
      "inputs": [
        {
          "components": [
            {
              "internalType": "uint256",
              "name": "tokenId",
              "type": "uint256"
            },
            {
              "internalType": "string",
              "name": "tokenURI",
              "type": "string"
            },
            {
              "components": [
                {
                  "internalType": "address payable",
                  "name": "account",
                  "type": "address"
                },
                {
                  "internalType": "uint96",
                  "name": "value",
                  "type": "uint96"
                }
              ],
              "internalType": "struct LibPart.Part[]",
              "name": "creators",
              "type": "tuple[]"
            },
            {
              "components": [
                {
                  "internalType": "address payable",
                  "name": "account",
                  "type": "address"
                },
                {
                  "internalType": "uint96",
                  "name": "value",
                  "type": "uint96"
                }
              ],
              "internalType": "struct LibPart.Part[]",
              "name": "royalties",
              "type": "tuple[]"
            },
            {
              "internalType": "bytes[]",
              "name": "signatures",
              "type": "bytes[]"
            }
          ],
          "internalType": "struct LibERC721LazyMint.Mint721Data",
          "name": "data",
          "type": "tuple"
        },
        {
          "internalType": "address",
          "name": "from",
          "type": "address"
        },
        {
          "internalType": "address",
          "name": "to",
          "type": "address"
        }
      ],
      "name": "transferFromOrMint",
      "outputs": [],
      "stateMutability": "nonpayable",
      "type": "function"
    },
    {
      "inputs": [
        {
          "internalType": "address",
          "name": "newOwner",
          "type": "address"
        }
      ],
      "name": "transferOwnership",
      "outputs": [],
      "stateMutability": "nonpayable",
      "type": "function"
    },
    {
      "inputs": [
        {
          "internalType": "uint256",
          "name": "_id",
          "type": "uint256"
        },
        {
          "internalType": "address",
          "name": "_from",
          "type": "address"
        },
        {
          "internalType": "address",
          "name": "_to",
          "type": "address"
        }
      ],
      "name": "updateAccount",
      "outputs": [],
      "stateMutability": "nonpayable",
      "type": "function"
    },
    {
      "inputs": [
        {
          "internalType": "string",
          "name": "_name",
          "type": "string"
        },
        {
          "internalType": "string",
          "name": "_symbol",
          "type": "string"
        },
        {
          "internalType": "string",
          "name": "baseURI",
          "type": "string"
        },
        {
          "internalType": "string",
          "name": "contractURI",
          "type": "string"
        },
        {
          "internalType": "address[]",
          "name": "operators",
          "type": "address[]"
        }
      ],
      "name": "__ERC721RaribleUser_init",
      "outputs": [],
      "stateMutability": "nonpayable",
      "type": "function"
    },
    {
      "inputs": [
        {
          "internalType": "bytes4",
          "name": "interfaceId",
          "type": "bytes4"
        }
      ],
      "name": "supportsInterface",
      "outputs": [
        {
          "internalType": "bool",
          "name": "",
          "type": "bool"
        }
      ],
      "stateMutability": "view",
      "type": "function"
    },
    {
      "inputs": [
        {
          "components": [
            {
              "internalType": "uint256",
              "name": "tokenId",
              "type": "uint256"
            },
            {
              "internalType": "string",
              "name": "tokenURI",
              "type": "string"
            },
            {
              "components": [
                {
                  "internalType": "address payable",
                  "name": "account",
                  "type": "address"
                },
                {
                  "internalType": "uint96",
                  "name": "value",
                  "type": "uint96"
                }
              ],
              "internalType": "struct LibPart.Part[]",
              "name": "creators",
              "type": "tuple[]"
            },
            {
              "components": [
                {
                  "internalType": "address payable",
                  "name": "account",
                  "type": "address"
                },
                {
                  "internalType": "uint96",
                  "name": "value",
                  "type": "uint96"
                }
              ],
              "internalType": "struct LibPart.Part[]",
              "name": "royalties",
              "type": "tuple[]"
            },
            {
              "internalType": "bytes[]",
              "name": "signatures",
              "type": "bytes[]"
            }
          ],
          "internalType": "struct LibERC721LazyMint.Mint721Data",
          "name": "data",
          "type": "tuple"
        },
        {
          "internalType": "address",
          "name": "to",
          "type": "address"
        }
      ],
      "name": "mintAndTransfer",
      "outputs": [],
      "stateMutability": "nonpayable",
      "type": "function"
    },
    {
      "inputs": [
        {
          "internalType": "uint256",
          "name": "tokenId",
          "type": "uint256"
        }
      ],
      "name": "tokenURI",
      "outputs": [
        {
          "internalType": "string",
          "name": "",
          "type": "string"
        }
      ],
      "stateMutability": "view",
      "type": "function"
    }
  ],
  "bytecode": "0x608060405234801561001057600080fd5b50613d37806100206000396000f3fe608060405234801561001057600080fd5b50600436106101735760003560e01c8063832fbb29116100de578063c4552e2411610097578063e07f231911610071578063e07f23191461031c578063e8a3d4851461032f578063e985e9c514610337578063f2fde38b1461034a57610173565b8063c4552e24146102e3578063c87b56dd146102f6578063cad96cca1461030957610173565b8063832fbb291461027a578063891be9741461028d5780638da5cb5b146102ad57806395d89b41146102b5578063a22cb465146102bd578063b88d4fde146102d057610173565b806342842e0e1161013057806342842e0e1461021157806342966c68146102245780636352211e146102375780636c0360eb1461024a57806370a0823114610252578063715018a61461027257610173565b806301ffc9a71461017857806306fdde03146101a1578063081812fc146101b6578063095ea7b3146101d657806322a775b6146101eb57806323b872dd146101fe575b600080fd5b61018b6101863660046134e4565b61035d565b60405161019891906137bc565b60405180910390f35b6101a9610370565b60405161019891906137c7565b6101c96101c436600461367f565b610406565b604051610198919061375f565b6101e96101e43660046134b9565b610469565b005b6101e96101f93660046135d8565b61053f565b6101e961020c3660046133de565b6105aa565b6101e961021f3660046133de565b610601565b6101e961023236600461367f565b61061c565b6101c961024536600461367f565b61066e565b6101a96106c2565b61026561026036600461338a565b610724565b604051610198919061396c565b6101e9610788565b6101e961028836600461361d565b610846565b6102a061029b36600461367f565b610874565b60405161019891906137a9565b6101c9610904565b6101a9610913565b6101e96102cb366004613488565b610974565b6101e96102de36600461341e565b610a7a565b6101e96102f136600461350c565b610ad8565b6101a961030436600461367f565b610c48565b6102a061031736600461367f565b610c53565b6101e961032a366004613697565b610cce565b6101a9610d11565b61018b6103453660046133a6565b610da0565b6101e961035836600461338a565b610dcf565b600061036882610ee4565b90505b919050565b60fd8054604080516020601f60026000196101006001881615020190951694909404938401819004810282018101909252828152606093909290918301828280156103fc5780601f106103d1576101008083540402835291602001916103fc565b820191906000526020600020905b8154815290600101906020018083116103df57829003601f168201915b5050505050905090565b600061041182610f83565b61044c5760405162461bcd60e51b815260040180806020018281038252602c815260200180613b8b602c913960400191505060405180910390fd5b50600090815261010160205260409020546001600160a01b031690565b60006104748261066e565b9050806001600160a01b0316836001600160a01b031614156104c75760405162461bcd60e51b8152600401808060200182810382526021815260200180613c5b6021913960400191505060405180910390fd5b806001600160a01b03166104d9610fa0565b6001600160a01b031614806104f557506104f581610345610fa0565b6105305760405162461bcd60e51b8152600401808060200182810382526038815260200180613ab06038913960400191505060405180910390fd5b61053a8383610fa4565b505050565b816040015160008151811061055057fe5b6020026020010151600001516001600160a01b031661056d610904565b6001600160a01b03161461059c5760405162461bcd60e51b8152600401610593906137da565b60405180910390fd5b6105a68282611013565b5050565b6105bb6105b5610fa0565b82611195565b6105f65760405162461bcd60e51b8152600401808060200182810382526031815260200180613c7c6031913960400191505060405180910390fd5b61053a838383611239565b61053a83838360405180602001604052806000815250610a7a565b6106276105b5610fa0565b6106625760405162461bcd60e51b8152600401808060200182810382526030815260200180613cd26030913960400191505060405180910390fd5b61066b81611358565b50565b600081815260ff60205260408120546001600160a01b0316806103685760405162461bcd60e51b8152600401808060200182810382526029815260200180613b126029913960400191505060405180910390fd5b6101958054604080516020601f60026000196101006001881615020190951694909404938401819004810282018101909252828152606093909290918301828280156103fc5780601f106103d1576101008083540402835291602001916103fc565b60006001600160a01b03821661076b5760405162461bcd60e51b815260040180806020018281038252602a815260200180613ae8602a913960400191505060405180910390fd5b506001600160a01b03166000908152610100602052604090205490565b610790610fa0565b6001600160a01b03166107a1610904565b6001600160a01b0316146107fc576040805162461bcd60e51b815260206004820181905260248201527f4f776e61626c653a2063616c6c6572206973206e6f7420746865206f776e6572604482015290519081900360640190fd5b6033546040516000916001600160a01b0316907f8be0079c531659141344cd1fd0a4f28419497f9722a3daafe3b4186f6b6457e0908390a3603380546001600160a01b0319169055565b825161085190610f83565b1561086a5761086582828560000151610601565b61053a565b61053a838261053f565b60606101c86000838152602001908152602001600020805480602002602001604051908101604052809291908181526020016000905b828210156108f957600084815260209081902060408051808201909152908401546001600160a01b0381168252600160a01b90046001600160601b0316818301528252600190920191016108aa565b505050509050919050565b6033546001600160a01b031690565b60fe8054604080516020601f60026000196101006001881615020190951694909404938401819004810282018101909252828152606093909290918301828280156103fc5780601f106103d1576101008083540402835291602001916103fc565b61097c610fa0565b6001600160a01b0316826001600160a01b031614156109e2576040805162461bcd60e51b815260206004820152601960248201527f4552433732313a20617070726f766520746f2063616c6c657200000000000000604482015290519081900360640190fd5b8061010260006109f0610fa0565b6001600160a01b03908116825260208083019390935260409182016000908120918716808252919093529120805460ff191692151592909217909155610a34610fa0565b6001600160a01b03167f17307eab39ab6107e8899845ad3d59bd9653f200f220920489ca2b5937696c318360405180821515815260200191505060405180910390a35050565b610a8b610a85610fa0565b83611195565b610ac65760405162461bcd60e51b8152600401808060200182810382526031815260200180613c7c6031913960400191505060405180910390fd5b610ad2848484846113dd565b50505050565b600054610100900460ff1680610af15750610af161142f565b80610aff575060005460ff16155b610b3a5760405162461bcd60e51b815260040180806020018281038252602e815260200180613b3b602e913960400191505060405180910390fd5b600054610100900460ff16158015610b65576000805460ff1961ff0019909116610100171660011790555b610b6e84611440565b610b76611454565b610b7e611454565b610b866114f5565b610b8e611592565b610b96611454565b610b9e61168b565b610ba78361175a565b610baf611821565b610bb986866118be565b60005b8251811015610beb57610be3838281518110610bd457fe5b60200260200101516001610974565b600101610bbc565b507fd901a467fa419f379a67636a1de44cc2ed772beb43a0c05fa1ddcad5d59e9913610c15610fa0565b8787604051610c2693929190613773565b60405180910390a18015610c40576000805461ff00191690555b505050505050565b6060610368826119a9565b6000818152610193602090815260408083208054825181850281018501909352808352606094929391929091840182156108f957600084815260209081902060408051808201909152908401546001600160a01b0381168252600160a01b90046001600160601b0316818301528252600190920191016108aa565b816001600160a01b0316610ce0610fa0565b6001600160a01b031614610d065760405162461bcd60e51b815260040161059390613871565b61053a8383836119b4565b6101fb805460408051602060026001851615610100026000190190941693909304601f81018490048402820184019092528181529291830182828015610d985780601f10610d6d57610100808354040283529160200191610d98565b820191906000526020600020905b815481529060010190602001808311610d7b57829003601f168201915b505050505081565b6001600160a01b0391821660009081526101026020908152604080832093909416825291909152205460ff1690565b610dd7610fa0565b6001600160a01b0316610de8610904565b6001600160a01b031614610e43576040805162461bcd60e51b815260206004820181905260248201527f4f776e61626c653a2063616c6c6572206973206e6f7420746865206f776e6572604482015290519081900360640190fd5b6001600160a01b038116610e885760405162461bcd60e51b8152600401808060200182810382526026815260200180613a186026913960400191505060405180910390fd5b6033546040516001600160a01b038084169216907f8be0079c531659141344cd1fd0a4f28419497f9722a3daafe3b4186f6b6457e090600090a3603380546001600160a01b0319166001600160a01b0392909216919091179055565b60006001600160e01b03198216638486f69f60e01b1480610f1557506001600160e01b0319821663656cb66560e11b145b80610f3057506001600160e01b031982166301ffc9a760e01b145b80610f4b57506001600160e01b031982166380ac58cd60e01b145b80610f6657506001600160e01b03198216635b5e139f60e01b145b806103685750506001600160e01b03191663780e9d6360e01b1490565b600090815260ff60205260409020546001600160a01b0316151590565b3390565b60008181526101016020526040902080546001600160a01b0319166001600160a01b0384169081179091558190610fda8261066e565b6001600160a01b03167f8c5be1e5ebec7d5bd14f71427d1e84f3dd0314c0f7b2291e5b200ac8c7c3b92560405160405180910390a45050565b815160601c6000611022610fa0565b9050836040015160008151811061103557fe5b6020026020010151600001516001600160a01b0316826001600160a01b0316146110715760405162461bcd60e51b815260040161059390613846565b8360800151518460400151511461108757600080fd5b806001600160a01b0316826001600160a01b031614806110ac57506110ac8282610da0565b6110c85760405162461bcd60e51b8152600401610593906138cd565b60006110d385611a60565b905060005b856040015151811015611149576000866040015182815181106110f757fe5b6020026020010151600001519050836001600160a01b0316816001600160a01b0316146111405761114081848960800151858151811061113357fe5b6020026020010151611ca9565b506001016110d8565b50611158848660000151611cb4565b61116a85600001518660600151611cce565b61117c85600001518660400151611ebd565b61118e8560000151866020015161206c565b5050505050565b60006111a082610f83565b6111db5760405162461bcd60e51b815260040180806020018281038252602c815260200180613a84602c913960400191505060405180910390fd5b60006111e68361066e565b9050806001600160a01b0316846001600160a01b031614806112215750836001600160a01b031661121684610406565b6001600160a01b0316145b8061123157506112318185610da0565b949350505050565b826001600160a01b031661124c8261066e565b6001600160a01b0316146112915760405162461bcd60e51b8152600401808060200182810382526029815260200180613be36029913960400191505060405180910390fd5b6001600160a01b0382166112d65760405162461bcd60e51b8152600401808060200182810382526024815260200180613a3e6024913960400191505060405180910390fd5b6112e183838361053a565b6112ec600082610fa4565b6001600160a01b0380841660008181526101006020908152604080832080546000190190559386168083528483208054600101905585835260ff90915283822080546001600160a01b03191682179055925184939291600080516020613c3b83398151915291a4505050565b60006113638261066e565b90506113718160008461053a565b61137c600083610fa4565b611385826120d0565b6001600160a01b038116600081815261010060209081526040808320805460001901905585835260ff90915280822080546001600160a01b031916905551849290600080516020613c3b833981519152908390a45050565b6113e8848484611239565b6113f4848484846120d9565b610ad25760405162461bcd60e51b81526004018080602001828103825260328152602001806139e66032913960400191505060405180910390fd5b600061143a3061228e565b15905090565b80516105a690610195906020840190612ffa565b600054610100900460ff168061146d575061146d61142f565b8061147b575060005460ff16155b6114b65760405162461bcd60e51b815260040180806020018281038252602e815260200180613b3b602e913960400191505060405180910390fd5b600054610100900460ff161580156114e1576000805460ff1961ff0019909116610100171660011790555b801561066b576000805461ff001916905550565b600054610100900460ff168061150e575061150e61142f565b8061151c575060005460ff16155b6115575760405162461bcd60e51b815260040180806020018281038252602e815260200180613b3b602e913960400191505060405180910390fd5b600054610100900460ff16158015611582576000805460ff1961ff0019909116610100171660011790555b6114e16301ffc9a760e01b612294565b600054610100900460ff16806115ab57506115ab61142f565b806115b9575060005460ff16155b6115f45760405162461bcd60e51b815260040180806020018281038252602e815260200180613b3b602e913960400191505060405180910390fd5b600054610100900460ff1615801561161f576000805460ff1961ff0019909116610100171660011790555b6000611629610fa0565b603380546001600160a01b0319166001600160a01b038316908117909155604051919250906000907f8be0079c531659141344cd1fd0a4f28419497f9722a3daafe3b4186f6b6457e0908290a350801561066b576000805461ff001916905550565b600054610100900460ff16806116a457506116a461142f565b806116b2575060005460ff16155b6116ed5760405162461bcd60e51b815260040180806020018281038252602e815260200180613b3b602e913960400191505060405180910390fd5b600054610100900460ff16158015611718576000805460ff1961ff0019909116610100171660011790555b6114e1604051806040016040528060078152602001664d696e7437323160c81b815250604051806040016040528060018152602001603160f81b815250612318565b600054610100900460ff1680611773575061177361142f565b80611781575060005460ff16155b6117bc5760405162461bcd60e51b815260040180806020018281038252602e815260200180613b3b602e913960400191505060405180910390fd5b600054610100900460ff161580156117e7576000805460ff1961ff0019909116610100171660011790555b81516117fb906101fb906020850190612ffa565b5061180c63e8a3d48560e01b612294565b80156105a6576000805461ff00191690555050565b600054610100900460ff168061183a575061183a61142f565b80611848575060005460ff16155b6118835760405162461bcd60e51b815260040180806020018281038252602e815260200180613b3b602e913960400191505060405180910390fd5b600054610100900460ff161580156118ae576000805460ff1961ff0019909116610100171660011790555b6114e163656cb66560e11b612294565b600054610100900460ff16806118d757506118d761142f565b806118e5575060005460ff16155b6119205760405162461bcd60e51b815260040180806020018281038252602e815260200180613b3b602e913960400191505060405180910390fd5b600054610100900460ff1615801561194b576000805460ff1961ff0019909116610100171660011790555b825161195e9060fd906020860190612ffa565b5081516119729060fe906020850190612ffa565b506119836380ac58cd60e01b612294565b611993635b5e139f60e01b612294565b801561053a576000805461ff0019169055505050565b6060610368826123d8565b60008381526101936020526040812054905b8181101561118e5760008581526101936020526040902080546001600160a01b0386169190839081106119f557fe5b6000918252602090912001546001600160a01b03161415611a5857600085815261019360205260409020805484919083908110611a2e57fe5b600091825260209091200180546001600160a01b0319166001600160a01b03929092169190911790555b6001016119c6565b60008082606001515167ffffffffffffffff81118015611a7f57600080fd5b50604051908082528060200260200182016040528015611aa9578160200160208202803683370190505b50905060005b836060015151811015611afb57611adc84606001518281518110611acf57fe5b602002602001015161265a565b828281518110611ae857fe5b6020908102919091010152600101611aaf565b50600083604001515167ffffffffffffffff81118015611b1a57600080fd5b50604051908082528060200260200182016040528015611b44578160200160208202803683370190505b50905060005b846040015151811015611b8957611b6a85604001518281518110611acf57fe5b828281518110611b7657fe5b6020908102919091010152600101611b4a565b507ff64326045af5fd7e15297ba939f85b550474d3899daa47d2bc1ffbdb9ced344e84600001518560200151805190602001208360405160200180828051906020019060200280838360005b83811015611bed578181015183820152602001611bd5565b50505050905001915050604051602081830303815290604052805190602001208560405160200180828051906020019060200280838360005b83811015611c3e578181015183820152602001611c26565b505050509050019150506040516020818303038152906040528051906020012060405160200180868152602001858152602001848152602001838152602001828152602001955050505050506040516020818303038152906040528051906020012092505050919050565b61053a8383836126c7565b6105a682826040518060200160405280600081525061293c565b6000805b8251811015611e725760006001600160a01b0316838281518110611cf257fe5b6020026020010151600001516001600160a01b03161415611d5a576040805162461bcd60e51b815260206004820152601b60248201527f526563697069656e742073686f756c642062652070726573656e740000000000604482015290519081900360640190fd5b828181518110611d6657fe5b6020026020010151602001516001600160601b031660001415611dd0576040805162461bcd60e51b815260206004820181905260248201527f526f79616c74792076616c75652073686f756c6420626520706f736974697665604482015290519081900360640190fd5b828181518110611ddc57fe5b6020026020010151602001516001600160601b0316820191506101936000858152602001908152602001600020838281518110611e1557fe5b60209081029190910181015182546001818101855560009485529383902082519101805492909301516001600160601b0316600160a01b026001600160a01b039182166001600160a01b0319909316929092171617905501611cd2565b506127108110611eb35760405162461bcd60e51b8152600401808060200182810382526025815260200180613cad6025913960400191505060405180910390fd5b61053a838361298e565b60008281526101c86020526040812090805b835181101561200b5760006001600160a01b0316848281518110611eef57fe5b6020026020010151600001516001600160a01b03161415611f225760405162461bcd60e51b815260040161059390613896565b838181518110611f2e57fe5b6020026020010151602001516001600160601b031660001415611f635760405162461bcd60e51b815260040161059390613811565b82848281518110611f7057fe5b602090810291909101810151825460018101845560009384529282902081519301805491909201516001600160601b0316600160a01b026001600160a01b039384166001600160a01b031990921691909117909216919091179055835161200190859083908110611fdd57fe5b6020026020010151602001516001600160601b0316836129cb90919063ffffffff16565b9150600101611ecf565b50806127101461202d5760405162461bcd60e51b81526004016105939061391e565b7f841ffb90d4cabdd1f16034f3fa831d79060febbb8167bdd54a49269365bdf78f848460405161205e929190613975565b60405180910390a150505050565b61207582610f83565b6120b05760405162461bcd60e51b815260040180806020018281038252602c815260200180613bb7602c913960400191505060405180910390fd5b600082815261019460209081526040909120825161053a92840190612ffa565b61066b81612a2c565b60006120ed846001600160a01b031661228e565b1561228357836001600160a01b031663150b7a02612109610fa0565b8786866040518563ffffffff1660e01b815260040180856001600160a01b03168152602001846001600160a01b0316815260200183815260200180602001828103825283818151815260200191508051906020019080838360005b8381101561217c578181015183820152602001612164565b50505050905090810190601f1680156121a95780820380516001836020036101000a031916815260200191505b5095505050505050602060405180830381600087803b1580156121cb57600080fd5b505af19250505080156121f057506040513d60208110156121eb57600080fd5b505160015b612269573d80801561221e576040519150601f19603f3d011682016040523d82523d6000602084013e612223565b606091505b5080516122615760405162461bcd60e51b81526004018080602001828103825260328152602001806139e66032913960400191505060405180910390fd5b805181602001fd5b6001600160e01b031916630a85bd0160e11b149050611231565b506001949350505050565b3b151590565b6001600160e01b031980821614156122f3576040805162461bcd60e51b815260206004820152601c60248201527f4552433136353a20696e76616c696420696e7465726661636520696400000000604482015290519081900360640190fd5b6001600160e01b0319166000908152606560205260409020805460ff19166001179055565b600054610100900460ff1680612331575061233161142f565b8061233f575060005460ff16155b61237a5760405162461bcd60e51b815260040180806020018281038252602e815260200180613b3b602e913960400191505060405180910390fd5b600054610100900460ff161580156123a5576000805460ff1961ff0019909116610100171660011790555b8251602080850191909120835191840191909120609791909155609855801561053a576000805461ff0019169055505050565b60606123e382610f83565b61241e5760405162461bcd60e51b815260040180806020018281038252602f815260200180613c0c602f913960400191505060405180910390fd5b6000828152610194602090815260408083208054825160026001831615610100026000190190921691909104601f8101859004850282018501909352828152929091908301828280156124b25780601f10612487576101008083540402835291602001916124b2565b820191906000526020600020905b81548152906001019060200180831161249557829003601f168201915b5050505050905060006124c36106c2565b90508051600014156124d75750905061036b565b8151156125985780826040516020018083805190602001908083835b602083106125125780518252601f1990920191602091820191016124f3565b51815160209384036101000a600019018019909216911617905285519190930192850191508083835b6020831061255a5780518252601f19909201916020918201910161253b565b6001836020036101000a038019825116818451168082178552505050505050905001925050506040516020818303038152906040529250505061036b565b806125a285612a35565b6040516020018083805190602001908083835b602083106125d45780518252601f1990920191602091820191016125b5565b51815160209384036101000a600019018019909216911617905285519190930192850191508083835b6020831061261c5780518252601f1990920191602091820191016125fd565b6001836020036101000a0380198251168184511680821785525050505050509050019250505060405160208183030381529060405292505050919050565b8051602091820151604080517f397e04204c1e1a60ee8724b71f8244e10ab5f2e9009854d80f602bda21b59ebb818601526001600160a01b03909316838201526001600160601b039091166060808401919091528151808403909101815260809092019052805191012090565b60006126d283612b10565b90506126e6846001600160a01b031661228e565b1561289c5760408051630b135d3f60e11b808252600482018481526024830193845285516044840152855191936001600160a01b03891693631626ba7e938793899390929091606490910190602085019080838360005b8381101561275557818101518382015260200161273d565b50505050905090810190601f1680156127825780820380516001836020036101000a031916815260200191505b50935050505060206040518083038186803b1580156127a057600080fd5b505afa1580156127b4573d6000803e3d6000fd5b505050506040513d60208110156127ca57600080fd5b505160408051808201909152601c81527f7369676e617475726520766572696669636174696f6e206572726f72000000006020820152916001600160e01b0319909116146128965760405162461bcd60e51b81526004018080602001828103825283818151815260200191508051906020019080838360005b8381101561285b578181015183820152602001612843565b50505050905090810190601f1680156128885780820380516001836020036101000a031916815260200191505b509250505060405180910390fd5b50610ad2565b6001600160a01b0384166128b08284612b5c565b6001600160a01b0316146040518060400160405280601c81526020017f7369676e617475726520766572696669636174696f6e206572726f72000000008152509061118e5760405162461bcd60e51b815260206004820181815283516024840152835190928392604490910191908501908083836000831561285b578181015183820152602001612843565b6129468383612bdc565b61295360008484846120d9565b61053a5760405162461bcd60e51b81526004018080602001828103825260328152602001806139e66032913960400191505060405180910390fd5b7f3fa96d7b6bcbfe71ef171666d84db3cf52fa2d1c8afdb1cc8e486177f208b7df82826040516129bf929190613975565b60405180910390a15050565b600082820183811015612a25576040805162461bcd60e51b815260206004820152601b60248201527f536166654d6174683a206164646974696f6e206f766572666c6f770000000000604482015290519081900360640190fd5b9392505050565b61066b81612ce6565b606081612a5a57506040805180820190915260018152600360fc1b602082015261036b565b8160005b8115612a7257600101600a82049150612a5e565b60008167ffffffffffffffff81118015612a8b57600080fd5b506040519080825280601f01601f191660200182016040528015612ab6576020820181803683370190505b50859350905060001982015b8315612b0757600a840660300160f81b82828060019003935081518110612ae557fe5b60200101906001600160f81b031916908160001a905350600a84049350612ac2565b50949350505050565b6000612b1a612d26565b82604051602001808061190160f01b81525060020183815260200182815260200192505050604051602081830303815290604052805190602001209050919050565b60008151604114612bb4576040805162461bcd60e51b815260206004820152601f60248201527f45434453413a20696e76616c6964207369676e6174757265206c656e67746800604482015290519081900360640190fd5b60208201516040830151606084015160001a612bd286828585612d66565b9695505050505050565b6001600160a01b038216612c37576040805162461bcd60e51b815260206004820181905260248201527f4552433732313a206d696e7420746f20746865207a65726f2061646472657373604482015290519081900360640190fd5b612c4081610f83565b15612c92576040805162461bcd60e51b815260206004820152601c60248201527f4552433732313a20746f6b656e20616c7265616479206d696e74656400000000604482015290519081900360640190fd5b612c9e6000838361053a565b6001600160a01b0382166000818152610100602090815260408083208054600101905584835260ff909152902080546001600160a01b03191690911790556105a68282612ee4565b60008181526101946020526040902054600260001961010060018416150201909116041561066b5760008181526101946020526040812061066b91613086565b6000612d617f8b73c3c69bb8fe3d512ecc4cf759cc79239f7b179b0ffacaa9a75d522b39400f612d54612eee565b612d5c612ef4565b612efa565b905090565b60007f7fffffffffffffffffffffffffffffff5d576e7357a4501ddfe92f46681b20a0821115612dc75760405162461bcd60e51b8152600401808060200182810382526022815260200180613a626022913960400191505060405180910390fd5b8360ff16601b1480612ddc57508360ff16601c145b612e175760405162461bcd60e51b8152600401808060200182810382526022815260200180613b696022913960400191505060405180910390fd5b600060018686868660405160008152602001604052604051808581526020018460ff1681526020018381526020018281526020019450505050506020604051602081039080840390855afa158015612e73573d6000803e3d6000fd5b5050604051601f1901519150506001600160a01b038116612edb576040805162461bcd60e51b815260206004820152601860248201527f45434453413a20696e76616c6964207369676e61747572650000000000000000604482015290519081900360640190fd5b95945050505050565b6105a68282612f5c565b60975490565b60985490565b6000838383612f07612ff6565b3060405160200180868152602001858152602001848152602001838152602001826001600160a01b03168152602001955050505050506040516020818303038152906040528051906020012090509392505050565b606081901c6001600160a01b0383168114612fcb5760405182906001600160a01b03831690600090600080516020613c3b833981519152908290a481836001600160a01b0316826001600160a01b0316600080516020613c3b83398151915260405160405180910390a461053a565b60405182906001600160a01b03851690600090600080516020613c3b833981519152908290a4505050565b4690565b828054600181600116156101000203166002900490600052602060002090601f0160209004810192826130305760008555613076565b82601f1061304957805160ff1916838001178555613076565b82800160010185558215613076579182015b8281111561307657825182559160200191906001019061305b565b506130829291506130c6565b5090565b50805460018160011615610100020316600290046000825580601f106130ac575061066b565b601f01602090049060005260206000209081019061066b91905b5b8082111561308257600081556001016130c7565b600082601f8301126130eb578081fd5b813560206131006130fb836139b2565b61398e565b828152818101908583018385028701840188101561311c578586fd5b855b85811015613143578135613131816139d0565b8452928401929084019060010161311e565b5090979650505050505050565b600082601f830112613160578081fd5b813560206131706130fb836139b2565b82815281810190858301855b8581101561314357613193898684358b0101613261565b8452928401929084019060010161317c565b600082601f8301126131b5578081fd5b813560206131c56130fb836139b2565b828152818101908583016040808602880185018910156131e3578687fd5b865b868110156132535781838b0312156131fb578788fd5b815182810181811067ffffffffffffffff8211171561321657fe5b83528335613223816139d0565b8152838701356001600160601b038116811461323d57898afd5b81880152855293850193918101916001016131e5565b509198975050505050505050565b600082601f830112613271578081fd5b813567ffffffffffffffff81111561328557fe5b613298601f8201601f191660200161398e565b8181528460208386010111156132ac578283fd5b816020850160208301379081016020019190915292915050565b600060a082840312156132d7578081fd5b6132e160a061398e565b905081358152602082013567ffffffffffffffff8082111561330257600080fd5b61330e85838601613261565b6020840152604084013591508082111561332757600080fd5b613333858386016131a5565b6040840152606084013591508082111561334c57600080fd5b613358858386016131a5565b6060840152608084013591508082111561337157600080fd5b5061337e84828501613150565b60808301525092915050565b60006020828403121561339b578081fd5b8135612a25816139d0565b600080604083850312156133b8578081fd5b82356133c3816139d0565b915060208301356133d3816139d0565b809150509250929050565b6000806000606084860312156133f2578081fd5b83356133fd816139d0565b9250602084013561340d816139d0565b929592945050506040919091013590565b60008060008060808587031215613433578081fd5b843561343e816139d0565b9350602085013561344e816139d0565b925060408501359150606085013567ffffffffffffffff811115613470578182fd5b61347c87828801613261565b91505092959194509250565b6000806040838503121561349a578182fd5b82356134a5816139d0565b9150602083013580151581146133d3578182fd5b600080604083850312156134cb578182fd5b82356134d6816139d0565b946020939093013593505050565b6000602082840312156134f5578081fd5b81356001600160e01b031981168114612a25578182fd5b600080600080600060a08688031215613523578283fd5b853567ffffffffffffffff8082111561353a578485fd5b61354689838a01613261565b9650602088013591508082111561355b578485fd5b61356789838a01613261565b9550604088013591508082111561357c578485fd5b61358889838a01613261565b9450606088013591508082111561359d578283fd5b6135a989838a01613261565b935060808801359150808211156135be578283fd5b506135cb888289016130db565b9150509295509295909350565b600080604083850312156135ea578182fd5b823567ffffffffffffffff811115613600578283fd5b61360c858286016132c6565b92505060208301356133d3816139d0565b600080600060608486031215613631578081fd5b833567ffffffffffffffff811115613647578182fd5b613653868287016132c6565b9350506020840135613664816139d0565b91506040840135613674816139d0565b809150509250925092565b600060208284031215613690578081fd5b5035919050565b6000806000606084860312156136ab578081fd5b833592506020840135613664816139d0565b6000815180845260208085019450808401835b8381101561370957815180516001600160a01b031688528301516001600160601b031683880152604090960195908201906001016136d0565b509495945050505050565b60008151808452815b818110156137395760208185018101518683018201520161371d565b8181111561374a5782602083870101525b50601f01601f19169290920160200192915050565b6001600160a01b0391909116815260200190565b6001600160a01b038416815260606020820181905260009061379790830185613714565b8281036040840152612bd28185613714565b600060208252612a2560208301846136bd565b901515815260200190565b600060208252612a256020830184613714565b60208082526017908201527f6d696e746572206973206e6f7420746865206f776e6572000000000000000000604082015260600190565b6020808252818101527f43726561746f722073686172652073686f756c6420626520706f736974697665604082015260600190565b6020808252601190820152701d1bdad95b9259081a5b98dbdc9c9958dd607a1b604082015260600190565b6020808252600b908201526a1b9bdd08185b1b1bddd95960aa1b604082015260600190565b60208082526019908201527f4163636f756e742073686f756c642062652070726573656e7400000000000000604082015260600190565b60208082526031908201527f4552433732313a207472616e736665722063616c6c6572206973206e6f74206f6040820152701ddb995c881b9bdc88185c1c1c9bdd9959607a1b606082015260800190565b6020808252602e908201527f746f74616c20616d6f756e74206f662063726561746f7273207368617265207360408201526d0686f756c642062652031303030360941b606082015260800190565b90815260200190565b60008382526040602083015261123160408301846136bd565b60405181810167ffffffffffffffff811182821017156139aa57fe5b604052919050565b600067ffffffffffffffff8211156139c657fe5b5060209081020190565b6001600160a01b038116811461066b57600080fdfe4552433732313a207472616e7366657220746f206e6f6e20455243373231526563656976657220696d706c656d656e7465724f776e61626c653a206e6577206f776e657220697320746865207a65726f20616464726573734552433732313a207472616e7366657220746f20746865207a65726f206164647265737345434453413a20696e76616c6964207369676e6174757265202773272076616c75654552433732313a206f70657261746f7220717565727920666f72206e6f6e6578697374656e7420746f6b656e4552433732313a20617070726f76652063616c6c6572206973206e6f74206f776e6572206e6f7220617070726f76656420666f7220616c6c4552433732313a2062616c616e636520717565727920666f7220746865207a65726f20616464726573734552433732313a206f776e657220717565727920666f72206e6f6e6578697374656e7420746f6b656e496e697469616c697a61626c653a20636f6e747261637420697320616c726561647920696e697469616c697a656445434453413a20696e76616c6964207369676e6174757265202776272076616c75654552433732313a20617070726f76656420717565727920666f72206e6f6e6578697374656e7420746f6b656e4552433732314d657461646174613a2055524920736574206f66206e6f6e6578697374656e7420746f6b656e4552433732313a207472616e73666572206f6620746f6b656e2074686174206973206e6f74206f776e4552433732314d657461646174613a2055524920717565727920666f72206e6f6e6578697374656e7420746f6b656eddf252ad1be2c89b69c2b068fc378daa952ba7f163c4a11628f55a4df523b3ef4552433732313a20617070726f76616c20746f2063757272656e74206f776e65724552433732313a207472616e736665722063616c6c6572206973206e6f74206f776e6572206e6f7220617070726f766564526f79616c747920746f74616c2076616c75652073686f756c64206265203c2031303030304552433732314275726e61626c653a2063616c6c6572206973206e6f74206f776e6572206e6f7220617070726f766564a2646970667358221220ff21a8ddc864469df356fded34b352adaa203c6ff8474af846c309950cb2376c64736f6c63430007060033",
  "immutableReferences": {},
  "source": "// SPDX-License-Identifier: MIT\n\npragma solidity 0.7.6;\npragma abicoder v2;\n\nimport \"@openzeppelin/contracts-upgradeable/access/OwnableUpgradeable.sol\";\nimport \"./ERC721BurnableUpgradeableMinimal.sol\";\nimport \"./ERC721LazyMinimal.sol\";\nimport \"../HasContractURI.sol\";\n\ncontract ERC721RaribleUserMinimal is OwnableUpgradeable, ERC721BurnableUpgradeableMinimal, ERC721LazyMinimal, HasContractURI {\n\n    event CreateERC721RaribleUser(address owner, string name, string symbol);\n\n    function __ERC721RaribleUser_init(string memory _name, string memory _symbol, string memory baseURI, string memory contractURI, address[] memory operators) external initializer {\n        _setBaseURI(baseURI);\n        __ERC721Lazy_init_unchained();\n        __Context_init_unchained();\n        __ERC165_init_unchained();\n        __Ownable_init_unchained();\n        __ERC721Burnable_init_unchained();\n        __Mint721Validator_init_unchained();\n        __HasContractURI_init_unchained(contractURI);\n        __RoyaltiesV2Upgradeable_init_unchained();\n        __ERC721_init_unchained(_name, _symbol);\n        for(uint i = 0; i < operators.length; i++) {\n            setApprovalForAll(operators[i], true);\n        }\n        emit CreateERC721RaribleUser(_msgSender(), _name, _symbol);\n    }\n\n    function supportsInterface(bytes4 interfaceId) public view virtual override(ERC165Upgradeable, ERC721LazyMinimal) returns (bool) {\n        return super.supportsInterface(interfaceId);\n    }\n\n    function mintAndTransfer(LibERC721LazyMint.Mint721Data memory data, address to) public override virtual {\n        require(owner() == data.creators[0].account, \"minter is not the owner\");\n        super.mintAndTransfer(data, to);\n    }\n\n    function tokenURI(uint256 tokenId) public view virtual override(ERC721UpgradeableMinimal, ERC721LazyMinimal) returns (string memory) {\n        return ERC721LazyMinimal.tokenURI(tokenId);\n    }\n\n    function _clearMetadata(uint256 tokenId) internal override(ERC721UpgradeableMinimal, ERC721LazyMinimal) virtual {\n        return ERC721LazyMinimal._clearMetadata(tokenId);\n    }\n\n    function _emitMintEvent(address to, uint tokenId) internal override(ERC721UpgradeableMinimal, ERC721LazyMinimal) virtual {\n        return ERC721LazyMinimal._emitMintEvent(to, tokenId);\n    }\n    \n    uint256[50] private __gap;\n}\n",
  "sourcePath": "@rarible/tokens/contracts/erc-721-minimal/ERC721RaribleUserMinimal.sol",
  "compiler": {
    "name": "solc",
    "version": "0.7.6+commit.7338295f.Emscripten.clang"
  },
  "schemaVersion": "3.4.3",
  "updatedAt": "2021-11-08T13:12:29.070Z",
  "devdoc": {
    "kind": "dev",
    "methods": {
      "approve(address,uint256)": {
        "details": "See {IERC721-approve}."
      },
      "balanceOf(address)": {
        "details": "See {IERC721-balanceOf}."
      },
      "baseURI()": {
        "details": "Returns the base URI set via {_setBaseURI}. This will be automatically added as a prefix in {tokenURI} to each token's URI, or to the token ID if no specific URI is set for that token ID."
      },
      "burn(uint256)": {
        "details": "Burns `tokenId`. See {ERC721-_burn}. Requirements: - The caller must own `tokenId` or be an approved operator."
      },
      "getApproved(uint256)": {
        "details": "See {IERC721-getApproved}."
      },
      "isApprovedForAll(address,address)": {
        "details": "See {IERC721-isApprovedForAll}."
      },
      "name()": {
        "details": "See {IERC721Metadata-name}."
      },
      "owner()": {
        "details": "Returns the address of the current owner."
      },
      "ownerOf(uint256)": {
        "details": "See {IERC721-ownerOf}."
      },
      "renounceOwnership()": {
        "details": "Leaves the contract without owner. It will not be possible to call `onlyOwner` functions anymore. Can only be called by the current owner. NOTE: Renouncing ownership will leave the contract without an owner, thereby removing any functionality that is only available to the owner."
      },
      "safeTransferFrom(address,address,uint256)": {
        "details": "See {IERC721-safeTransferFrom}."
      },
      "safeTransferFrom(address,address,uint256,bytes)": {
        "details": "See {IERC721-safeTransferFrom}."
      },
      "setApprovalForAll(address,bool)": {
        "details": "See {IERC721-setApprovalForAll}."
      },
      "symbol()": {
        "details": "See {IERC721Metadata-symbol}."
      },
      "transferFrom(address,address,uint256)": {
        "details": "See {IERC721-transferFrom}."
      },
      "transferOwnership(address)": {
        "details": "Transfers ownership of the contract to a new account (`newOwner`). Can only be called by the current owner."
      }
    },
    "version": 1
  },
  "userdoc": {
    "kind": "user",
    "methods": {},
    "version": 1
  }
}