{
  "contractName": "ERC721RaribleMinimal",
  "abi": [
    {
      "anonymous": false,
      "inputs": [
        {
          "indexed": true,
          "internalType": "address",
          "name": "owner",
          "type": "address"
        },
        {
          "indexed": true,
          "internalType": "address",
          "name": "approved",
          "type": "address"
        },
        {
          "indexed": true,
          "internalType": "uint256",
          "name": "tokenId",
          "type": "uint256"
        }
      ],
      "name": "Approval",
      "type": "event"
    },
    {
      "anonymous": false,
      "inputs": [
        {
          "indexed": true,
          "internalType": "address",
          "name": "owner",
          "type": "address"
        },
        {
          "indexed": true,
          "internalType": "address",
          "name": "operator",
          "type": "address"
        },
        {
          "indexed": false,
          "internalType": "bool",
          "name": "approved",
          "type": "bool"
        }
      ],
      "name": "ApprovalForAll",
      "type": "event"
    },
    {
      "anonymous": false,
      "inputs": [
        {
          "indexed": false,
          "internalType": "address",
          "name": "owner",
          "type": "address"
        },
        {
          "indexed": false,
          "internalType": "string",
          "name": "name",
          "type": "string"
        },
        {
          "indexed": false,
          "internalType": "string",
          "name": "symbol",
          "type": "string"
        }
      ],
      "name": "CreateERC721Rarible",
      "type": "event"
    },
    {
      "anonymous": false,
      "inputs": [
        {
          "indexed": false,
          "internalType": "uint256",
          "name": "tokenId",
          "type": "uint256"
        },
        {
          "components": [
            {
              "internalType": "address payable",
              "name": "account",
              "type": "address"
            },
            {
              "internalType": "uint96",
              "name": "value",
              "type": "uint96"
            }
          ],
          "indexed": false,
          "internalType": "struct LibPart.Part[]",
          "name": "creators",
          "type": "tuple[]"
        }
      ],
      "name": "Creators",
      "type": "event"
    },
    {
      "anonymous": false,
      "inputs": [
        {
          "indexed": true,
          "internalType": "address",
          "name": "operator",
          "type": "address"
        },
        {
          "indexed": false,
          "internalType": "bool",
          "name": "hasApproval",
          "type": "bool"
        }
      ],
      "name": "DefaultApproval",
      "type": "event"
    },
    {
      "anonymous": false,
      "inputs": [
        {
          "indexed": true,
          "internalType": "address",
          "name": "previousOwner",
          "type": "address"
        },
        {
          "indexed": true,
          "internalType": "address",
          "name": "newOwner",
          "type": "address"
        }
      ],
      "name": "OwnershipTransferred",
      "type": "event"
    },
    {
      "anonymous": false,
      "inputs": [
        {
          "indexed": false,
          "internalType": "uint256",
          "name": "tokenId",
          "type": "uint256"
        },
        {
          "components": [
            {
              "internalType": "address payable",
              "name": "account",
              "type": "address"
            },
            {
              "internalType": "uint96",
              "name": "value",
              "type": "uint96"
            }
          ],
          "indexed": false,
          "internalType": "struct LibPart.Part[]",
          "name": "royalties",
          "type": "tuple[]"
        }
      ],
      "name": "RoyaltiesSet",
      "type": "event"
    },
    {
      "anonymous": false,
      "inputs": [
        {
          "indexed": true,
          "internalType": "address",
          "name": "from",
          "type": "address"
        },
        {
          "indexed": true,
          "internalType": "address",
          "name": "to",
          "type": "address"
        },
        {
          "indexed": true,
          "internalType": "uint256",
          "name": "tokenId",
          "type": "uint256"
        }
      ],
      "name": "Transfer",
      "type": "event"
    },
    {
      "inputs": [
        {
          "internalType": "address",
          "name": "to",
          "type": "address"
        },
        {
          "internalType": "uint256",
          "name": "tokenId",
          "type": "uint256"
        }
      ],
      "name": "approve",
      "outputs": [],
      "stateMutability": "nonpayable",
      "type": "function"
    },
    {
      "inputs": [
        {
          "internalType": "address",
          "name": "owner",
          "type": "address"
        }
      ],
      "name": "balanceOf",
      "outputs": [
        {
          "internalType": "uint256",
          "name": "",
          "type": "uint256"
        }
      ],
      "stateMutability": "view",
      "type": "function"
    },
    {
      "inputs": [],
      "name": "baseURI",
      "outputs": [
        {
          "internalType": "string",
          "name": "",
          "type": "string"
        }
      ],
      "stateMutability": "view",
      "type": "function"
    },
    {
      "inputs": [
        {
          "internalType": "uint256",
          "name": "tokenId",
          "type": "uint256"
        }
      ],
      "name": "burn",
      "outputs": [],
      "stateMutability": "nonpayable",
      "type": "function"
    },
    {
      "inputs": [],
      "name": "contractURI",
      "outputs": [
        {
          "internalType": "string",
          "name": "",
          "type": "string"
        }
      ],
      "stateMutability": "view",
      "type": "function"
    },
    {
      "inputs": [
        {
          "internalType": "uint256",
          "name": "tokenId",
          "type": "uint256"
        }
      ],
      "name": "getApproved",
      "outputs": [
        {
          "internalType": "address",
          "name": "",
          "type": "address"
        }
      ],
      "stateMutability": "view",
      "type": "function"
    },
    {
      "inputs": [
        {
          "internalType": "uint256",
          "name": "_id",
          "type": "uint256"
        }
      ],
      "name": "getCreators",
      "outputs": [
        {
          "components": [
            {
              "internalType": "address payable",
              "name": "account",
              "type": "address"
            },
            {
              "internalType": "uint96",
              "name": "value",
              "type": "uint96"
            }
          ],
          "internalType": "struct LibPart.Part[]",
          "name": "",
          "type": "tuple[]"
        }
      ],
      "stateMutability": "view",
      "type": "function"
    },
    {
      "inputs": [
        {
          "internalType": "uint256",
          "name": "id",
          "type": "uint256"
        }
      ],
      "name": "getRaribleV2Royalties",
      "outputs": [
        {
          "components": [
            {
              "internalType": "address payable",
              "name": "account",
              "type": "address"
            },
            {
              "internalType": "uint96",
              "name": "value",
              "type": "uint96"
            }
          ],
          "internalType": "struct LibPart.Part[]",
          "name": "",
          "type": "tuple[]"
        }
      ],
      "stateMutability": "view",
      "type": "function"
    },
    {
      "inputs": [
        {
          "internalType": "address",
          "name": "owner",
          "type": "address"
        },
        {
          "internalType": "address",
          "name": "operator",
          "type": "address"
        }
      ],
      "name": "isApprovedForAll",
      "outputs": [
        {
          "internalType": "bool",
          "name": "",
          "type": "bool"
        }
      ],
      "stateMutability": "view",
      "type": "function"
    },
    {
      "inputs": [
        {
          "components": [
            {
              "internalType": "uint256",
              "name": "tokenId",
              "type": "uint256"
            },
            {
              "internalType": "string",
              "name": "tokenURI",
              "type": "string"
            },
            {
              "components": [
                {
                  "internalType": "address payable",
                  "name": "account",
                  "type": "address"
                },
                {
                  "internalType": "uint96",
                  "name": "value",
                  "type": "uint96"
                }
              ],
              "internalType": "struct LibPart.Part[]",
              "name": "creators",
              "type": "tuple[]"
            },
            {
              "components": [
                {
                  "internalType": "address payable",
                  "name": "account",
                  "type": "address"
                },
                {
                  "internalType": "uint96",
                  "name": "value",
                  "type": "uint96"
                }
              ],
              "internalType": "struct LibPart.Part[]",
              "name": "royalties",
              "type": "tuple[]"
            },
            {
              "internalType": "bytes[]",
              "name": "signatures",
              "type": "bytes[]"
            }
          ],
          "internalType": "struct LibERC721LazyMint.Mint721Data",
          "name": "data",
          "type": "tuple"
        },
        {
          "internalType": "address",
          "name": "to",
          "type": "address"
        }
      ],
      "name": "mintAndTransfer",
      "outputs": [],
      "stateMutability": "nonpayable",
      "type": "function"
    },
    {
      "inputs": [],
      "name": "name",
      "outputs": [
        {
          "internalType": "string",
          "name": "",
          "type": "string"
        }
      ],
      "stateMutability": "view",
      "type": "function"
    },
    {
      "inputs": [],
      "name": "owner",
      "outputs": [
        {
          "internalType": "address",
          "name": "",
          "type": "address"
        }
      ],
      "stateMutability": "view",
      "type": "function"
    },
    {
      "inputs": [
        {
          "internalType": "uint256",
          "name": "tokenId",
          "type": "uint256"
        }
      ],
      "name": "ownerOf",
      "outputs": [
        {
          "internalType": "address",
          "name": "",
          "type": "address"
        }
      ],
      "stateMutability": "view",
      "type": "function"
    },
    {
      "inputs": [],
      "name": "renounceOwnership",
      "outputs": [],
      "stateMutability": "nonpayable",
      "type": "function"
    },
    {
      "inputs": [
        {
          "internalType": "address",
          "name": "from",
          "type": "address"
        },
        {
          "internalType": "address",
          "name": "to",
          "type": "address"
        },
        {
          "internalType": "uint256",
          "name": "tokenId",
          "type": "uint256"
        }
      ],
      "name": "safeTransferFrom",
      "outputs": [],
      "stateMutability": "nonpayable",
      "type": "function"
    },
    {
      "inputs": [
        {
          "internalType": "address",
          "name": "from",
          "type": "address"
        },
        {
          "internalType": "address",
          "name": "to",
          "type": "address"
        },
        {
          "internalType": "uint256",
          "name": "tokenId",
          "type": "uint256"
        },
        {
          "internalType": "bytes",
          "name": "_data",
          "type": "bytes"
        }
      ],
      "name": "safeTransferFrom",
      "outputs": [],
      "stateMutability": "nonpayable",
      "type": "function"
    },
    {
      "inputs": [
        {
          "internalType": "address",
          "name": "operator",
          "type": "address"
        },
        {
          "internalType": "bool",
          "name": "approved",
          "type": "bool"
        }
      ],
      "name": "setApprovalForAll",
      "outputs": [],
      "stateMutability": "nonpayable",
      "type": "function"
    },
    {
      "inputs": [
        {
          "internalType": "address",
          "name": "operator",
          "type": "address"
        },
        {
          "internalType": "bool",
          "name": "hasApproval",
          "type": "bool"
        }
      ],
      "name": "setDefaultApproval",
      "outputs": [],
      "stateMutability": "nonpayable",
      "type": "function"
    },
    {
      "inputs": [
        {
          "internalType": "bytes4",
          "name": "interfaceId",
          "type": "bytes4"
        }
      ],
      "name": "supportsInterface",
      "outputs": [
        {
          "internalType": "bool",
          "name": "",
          "type": "bool"
        }
      ],
      "stateMutability": "view",
      "type": "function"
    },
    {
      "inputs": [],
      "name": "symbol",
      "outputs": [
        {
          "internalType": "string",
          "name": "",
          "type": "string"
        }
      ],
      "stateMutability": "view",
      "type": "function"
    },
    {
      "inputs": [
        {
          "internalType": "uint256",
          "name": "tokenId",
          "type": "uint256"
        }
      ],
      "name": "tokenURI",
      "outputs": [
        {
          "internalType": "string",
          "name": "",
          "type": "string"
        }
      ],
      "stateMutability": "view",
      "type": "function"
    },
    {
      "inputs": [
        {
          "internalType": "address",
          "name": "from",
          "type": "address"
        },
        {
          "internalType": "address",
          "name": "to",
          "type": "address"
        },
        {
          "internalType": "uint256",
          "name": "tokenId",
          "type": "uint256"
        }
      ],
      "name": "transferFrom",
      "outputs": [],
      "stateMutability": "nonpayable",
      "type": "function"
    },
    {
      "inputs": [
        {
          "components": [
            {
              "internalType": "uint256",
              "name": "tokenId",
              "type": "uint256"
            },
            {
              "internalType": "string",
              "name": "tokenURI",
              "type": "string"
            },
            {
              "components": [
                {
                  "internalType": "address payable",
                  "name": "account",
                  "type": "address"
                },
                {
                  "internalType": "uint96",
                  "name": "value",
                  "type": "uint96"
                }
              ],
              "internalType": "struct LibPart.Part[]",
              "name": "creators",
              "type": "tuple[]"
            },
            {
              "components": [
                {
                  "internalType": "address payable",
                  "name": "account",
                  "type": "address"
                },
                {
                  "internalType": "uint96",
                  "name": "value",
                  "type": "uint96"
                }
              ],
              "internalType": "struct LibPart.Part[]",
              "name": "royalties",
              "type": "tuple[]"
            },
            {
              "internalType": "bytes[]",
              "name": "signatures",
              "type": "bytes[]"
            }
          ],
          "internalType": "struct LibERC721LazyMint.Mint721Data",
          "name": "data",
          "type": "tuple"
        },
        {
          "internalType": "address",
          "name": "from",
          "type": "address"
        },
        {
          "internalType": "address",
          "name": "to",
          "type": "address"
        }
      ],
      "name": "transferFromOrMint",
      "outputs": [],
      "stateMutability": "nonpayable",
      "type": "function"
    },
    {
      "inputs": [
        {
          "internalType": "address",
          "name": "newOwner",
          "type": "address"
        }
      ],
      "name": "transferOwnership",
      "outputs": [],
      "stateMutability": "nonpayable",
      "type": "function"
    },
    {
      "inputs": [
        {
          "internalType": "uint256",
          "name": "_id",
          "type": "uint256"
        },
        {
          "internalType": "address",
          "name": "_from",
          "type": "address"
        },
        {
          "internalType": "address",
          "name": "_to",
          "type": "address"
        }
      ],
      "name": "updateAccount",
      "outputs": [],
      "stateMutability": "nonpayable",
      "type": "function"
    },
    {
      "inputs": [
        {
          "internalType": "string",
          "name": "_name",
          "type": "string"
        },
        {
          "internalType": "string",
          "name": "_symbol",
          "type": "string"
        },
        {
          "internalType": "string",
          "name": "baseURI",
          "type": "string"
        },
        {
          "internalType": "string",
          "name": "contractURI",
          "type": "string"
        }
      ],
      "name": "__ERC721Rarible_init",
      "outputs": [],
      "stateMutability": "nonpayable",
      "type": "function"
    }
  ],
  "bytecode": "0x608060405234801561001057600080fd5b50613d52806100206000396000f3fe608060405234801561001057600080fd5b506004361061018e5760003560e01c8063715018a6116100de578063b88d4fde11610097578063e07f231911610071578063e07f23191461034a578063e8a3d4851461035d578063e985e9c514610365578063f2fde38b146103785761018e565b8063b88d4fde14610311578063c87b56dd14610324578063cad96cca146103375761018e565b8063715018a6146102b3578063832fbb29146102bb578063891be974146102ce5780638da5cb5b146102ee57806395d89b41146102f6578063a22cb465146102fe5761018e565b806323b872dd1161014b57806342966c681161012557806342966c68146102655780636352211e146102785780636c0360eb1461028b57806370a08231146102935761018e565b806323b872dd1461022c5780632a8399631461023f57806342842e0e146102525761018e565b806301ffc9a71461019357806306fdde03146101bc578063081812fc146101d1578063095ea7b3146101f157806318054c371461020657806322a775b614610219575b600080fd5b6101a66101a1366004613566565b61038b565b6040516101b3919061380e565b60405180910390f35b6101c461039e565b6040516101b39190613819565b6101e46101df3660046136d1565b610434565b6040516101b391906137b1565b6102046101ff36600461353b565b610497565b005b61020461021436600461350a565b61056d565b61020461022736600461362a565b6105ef565b61020461023a366004613460565b61077a565b61020461024d36600461358e565b6107d1565b610204610260366004613460565b61090c565b6102046102733660046136d1565b610927565b6101e46102863660046136d1565b610979565b6101c46109cd565b6102a66102a136600461340c565b610a2f565b6040516101b39190613987565b610204610a93565b6102046102c936600461366f565b610b51565b6102e16102dc3660046136d1565b610b7f565b6040516101b391906137fb565b6101e4610c0f565b6101c4610c1e565b61020461030c36600461350a565b610c7f565b61020461031f3660046134a0565b610d85565b6101c46103323660046136d1565b610de3565b6102e16103453660046136d1565b610dee565b6102046103583660046136e9565b610e69565b6101c4610eac565b6101a6610373366004613428565b610f3b565b61020461038636600461340c565b610f4e565b600061039682611063565b90505b919050565b60fd8054604080516020601f600260001961010060018816150201909516949094049384018190048102820181019092528281526060939092909183018282801561042a5780601f106103ff5761010080835404028352916020019161042a565b820191906000526020600020905b81548152906001019060200180831161040d57829003601f168201915b5050505050905090565b600061043f82611102565b61047a5760405162461bcd60e51b815260040180806020018281038252602c815260200180613ba6602c913960400191505060405180910390fd5b50600090815261010160205260409020546001600160a01b031690565b60006104a282610979565b9050806001600160a01b0316836001600160a01b031614156104f55760405162461bcd60e51b8152600401808060200182810382526021815260200180613c766021913960400191505060405180910390fd5b806001600160a01b031661050761111f565b6001600160a01b0316148061052357506105238161037361111f565b61055e5760405162461bcd60e51b8152600401808060200182810382526038815260200180613acb6038913960400191505060405180910390fd5b6105688383611123565b505050565b61057561111f565b6001600160a01b0316610586610c0f565b6001600160a01b0316146105e1576040805162461bcd60e51b815260206004820181905260248201527f4f776e61626c653a2063616c6c6572206973206e6f7420746865206f776e6572604482015290519081900360640190fd5b6105eb8282611192565b5050565b815160601c60006105fe61111f565b9050836040015160008151811061061157fe5b6020026020010151600001516001600160a01b0316826001600160a01b0316146106565760405162461bcd60e51b815260040161064d90613861565b60405180910390fd5b8360800151518460400151511461066c57600080fd5b806001600160a01b0316826001600160a01b0316148061069157506106918282610f3b565b6106ad5760405162461bcd60e51b815260040161064d906138e8565b60006106b8856111f3565b905060005b85604001515181101561072e576000866040015182815181106106dc57fe5b6020026020010151600001519050836001600160a01b0316816001600160a01b0316146107255761072581848960800151858151811061071857fe5b602002602001015161143c565b506001016106bd565b5061073d848660000151611447565b61074f85600001518660600151611461565b61076185600001518660400151611650565b610773856000015186602001516117ff565b5050505050565b61078b61078561111f565b82611863565b6107c65760405162461bcd60e51b8152600401808060200182810382526031815260200180613c976031913960400191505060405180910390fd5b61056883838361186f565b600054610100900460ff16806107ea57506107ea61198e565b806107f8575060005460ff16155b6108335760405162461bcd60e51b815260040180806020018281038252602e815260200180613b56602e913960400191505060405180910390fd5b600054610100900460ff1615801561085e576000805460ff1961ff0019909116610100171660011790555b6108678361199f565b61086f6119b3565b610877611a54565b61087f6119b3565b610887611af1565b61088f611b8e565b6108976119b3565b61089f611c87565b6108a882611d56565b6108b28585611e1d565b7ff05e55f0a9d205977ca8cc02236338b6a361376f404cf0b3019b2111964a01fd6108db61111f565b86866040516108ec939291906137c5565b60405180910390a18015610773576000805461ff00191690555050505050565b61056883838360405180602001604052806000815250610d85565b61093261078561111f565b61096d5760405162461bcd60e51b8152600401808060200182810382526030815260200180613ced6030913960400191505060405180910390fd5b61097681611f08565b50565b600081815260ff60205260408120546001600160a01b0316806103965760405162461bcd60e51b8152600401808060200182810382526029815260200180613b2d6029913960400191505060405180910390fd5b6101c88054604080516020601f600260001961010060018816150201909516949094049384018190048102820181019092528281526060939092909183018282801561042a5780601f106103ff5761010080835404028352916020019161042a565b60006001600160a01b038216610a765760405162461bcd60e51b815260040180806020018281038252602a815260200180613b03602a913960400191505060405180910390fd5b506001600160a01b03166000908152610100602052604090205490565b610a9b61111f565b6001600160a01b0316610aac610c0f565b6001600160a01b031614610b07576040805162461bcd60e51b815260206004820181905260248201527f4f776e61626c653a2063616c6c6572206973206e6f7420746865206f776e6572604482015290519081900360640190fd5b6033546040516000916001600160a01b0316907f8be0079c531659141344cd1fd0a4f28419497f9722a3daafe3b4186f6b6457e0908390a3603380546001600160a01b0319169055565b8251610b5c90611102565b15610b7557610b708282856000015161090c565b610568565b61056883826105ef565b60606101fb6000838152602001908152602001600020805480602002602001604051908101604052809291908181526020016000905b82821015610c0457600084815260209081902060408051808201909152908401546001600160a01b0381168252600160a01b90046001600160601b031681830152825260019092019101610bb5565b505050509050919050565b6033546001600160a01b031690565b60fe8054604080516020601f600260001961010060018816150201909516949094049384018190048102820181019092528281526060939092909183018282801561042a5780601f106103ff5761010080835404028352916020019161042a565b610c8761111f565b6001600160a01b0316826001600160a01b03161415610ced576040805162461bcd60e51b815260206004820152601960248201527f4552433732313a20617070726f766520746f2063616c6c657200000000000000604482015290519081900360640190fd5b806101026000610cfb61111f565b6001600160a01b03908116825260208083019390935260409182016000908120918716808252919093529120805460ff191692151592909217909155610d3f61111f565b6001600160a01b03167f17307eab39ab6107e8899845ad3d59bd9653f200f220920489ca2b5937696c318360405180821515815260200191505060405180910390a35050565b610d96610d9061111f565b83611863565b610dd15760405162461bcd60e51b8152600401808060200182810382526031815260200180613c976031913960400191505060405180910390fd5b610ddd84848484611f8d565b50505050565b606061039682611fdf565b60008181526101c660209081526040808320805482518185028101850190935280835260609492939192909184018215610c0457600084815260209081902060408051808201909152908401546001600160a01b0381168252600160a01b90046001600160601b031681830152825260019092019101610bb5565b816001600160a01b0316610e7b61111f565b6001600160a01b031614610ea15760405162461bcd60e51b815260040161064d9061388c565b610568838383611fea565b61022e805460408051602060026001851615610100026000190190941693909304601f81018490048402820184019092528181529291830182828015610f335780601f10610f0857610100808354040283529160200191610f33565b820191906000526020600020905b815481529060010190602001808311610f1657829003601f168201915b505050505081565b6000610f478383612096565b9392505050565b610f5661111f565b6001600160a01b0316610f67610c0f565b6001600160a01b031614610fc2576040805162461bcd60e51b815260206004820181905260248201527f4f776e61626c653a2063616c6c6572206973206e6f7420746865206f776e6572604482015290519081900360640190fd5b6001600160a01b0381166110075760405162461bcd60e51b8152600401808060200182810382526026815260200180613a336026913960400191505060405180910390fd5b6033546040516001600160a01b038084169216907f8be0079c531659141344cd1fd0a4f28419497f9722a3daafe3b4186f6b6457e090600090a3603380546001600160a01b0319166001600160a01b0392909216919091179055565b60006001600160e01b03198216638486f69f60e01b148061109457506001600160e01b0319821663656cb66560e11b145b806110af57506001600160e01b031982166301ffc9a760e01b145b806110ca57506001600160e01b031982166380ac58cd60e01b145b806110e557506001600160e01b03198216635b5e139f60e01b145b806103965750506001600160e01b03191663780e9d6360e01b1490565b600090815260ff60205260409020546001600160a01b0316151590565b3390565b60008181526101016020526040902080546001600160a01b0319166001600160a01b038416908117909155819061115982610979565b6001600160a01b03167f8c5be1e5ebec7d5bd14f71427d1e84f3dd0314c0f7b2291e5b200ac8c7c3b92560405160405180910390a45050565b6001600160a01b038216600081815261012f6020908152604091829020805460ff1916851515908117909155825190815291517f270dbb8ba4292910ae92862466486be25c355c837270a3d8824b36a8bc7c653b9281900390910190a25050565b60008082606001515167ffffffffffffffff8111801561121257600080fd5b5060405190808252806020026020018201604052801561123c578160200160208202803683370190505b50905060005b83606001515181101561128e5761126f8460600151828151811061126257fe5b60200260200101516120c3565b82828151811061127b57fe5b6020908102919091010152600101611242565b50600083604001515167ffffffffffffffff811180156112ad57600080fd5b506040519080825280602002602001820160405280156112d7578160200160208202803683370190505b50905060005b84604001515181101561131c576112fd8560400151828151811061126257fe5b82828151811061130957fe5b60209081029190910101526001016112dd565b507ff64326045af5fd7e15297ba939f85b550474d3899daa47d2bc1ffbdb9ced344e84600001518560200151805190602001208360405160200180828051906020019060200280838360005b83811015611380578181015183820152602001611368565b50505050905001915050604051602081830303815290604052805190602001208560405160200180828051906020019060200280838360005b838110156113d15781810151838201526020016113b9565b505050509050019150506040516020818303038152906040528051906020012060405160200180868152602001858152602001848152602001838152602001828152602001955050505050506040516020818303038152906040528051906020012092505050919050565b610568838383612130565b6105eb8282604051806020016040528060008152506123a5565b6000805b82518110156116055760006001600160a01b031683828151811061148557fe5b6020026020010151600001516001600160a01b031614156114ed576040805162461bcd60e51b815260206004820152601b60248201527f526563697069656e742073686f756c642062652070726573656e740000000000604482015290519081900360640190fd5b8281815181106114f957fe5b6020026020010151602001516001600160601b031660001415611563576040805162461bcd60e51b815260206004820181905260248201527f526f79616c74792076616c75652073686f756c6420626520706f736974697665604482015290519081900360640190fd5b82818151811061156f57fe5b6020026020010151602001516001600160601b0316820191506101c660008581526020019081526020016000208382815181106115a857fe5b60209081029190910181015182546001818101855560009485529383902082519101805492909301516001600160601b0316600160a01b026001600160a01b039182166001600160a01b0319909316929092171617905501611465565b5061271081106116465760405162461bcd60e51b8152600401808060200182810382526025815260200180613cc86025913960400191505060405180910390fd5b61056883836123f7565b60008281526101fb6020526040812090805b835181101561179e5760006001600160a01b031684828151811061168257fe5b6020026020010151600001516001600160a01b031614156116b55760405162461bcd60e51b815260040161064d906138b1565b8381815181106116c157fe5b6020026020010151602001516001600160601b0316600014156116f65760405162461bcd60e51b815260040161064d9061382c565b8284828151811061170357fe5b602090810291909101810151825460018101845560009384529282902081519301805491909201516001600160601b0316600160a01b026001600160a01b039384166001600160a01b03199092169190911790921691909117905583516117949085908390811061177057fe5b6020026020010151602001516001600160601b03168361243490919063ffffffff16565b9150600101611662565b5080612710146117c05760405162461bcd60e51b815260040161064d90613939565b7f841ffb90d4cabdd1f16034f3fa831d79060febbb8167bdd54a49269365bdf78f84846040516117f1929190613990565b60405180910390a150505050565b61180882611102565b6118435760405162461bcd60e51b815260040180806020018281038252602c815260200180613bd2602c913960400191505060405180910390fd5b60008281526101c7602090815260409091208251610568928401906130df565b6000610f47838361248e565b826001600160a01b031661188282610979565b6001600160a01b0316146118c75760405162461bcd60e51b8152600401808060200182810382526029815260200180613bfe6029913960400191505060405180910390fd5b6001600160a01b03821661190c5760405162461bcd60e51b8152600401808060200182810382526024815260200180613a596024913960400191505060405180910390fd5b611917838383610568565b611922600082611123565b6001600160a01b0380841660008181526101006020908152604080832080546000190190559386168083528483208054600101905585835260ff90915283822080546001600160a01b03191682179055925184939291600080516020613c5683398151915291a4505050565b6000611999306124bb565b15905090565b80516105eb906101c89060208401906130df565b600054610100900460ff16806119cc57506119cc61198e565b806119da575060005460ff16155b611a155760405162461bcd60e51b815260040180806020018281038252602e815260200180613b56602e913960400191505060405180910390fd5b600054610100900460ff16158015611a40576000805460ff1961ff0019909116610100171660011790555b8015610976576000805461ff001916905550565b600054610100900460ff1680611a6d5750611a6d61198e565b80611a7b575060005460ff16155b611ab65760405162461bcd60e51b815260040180806020018281038252602e815260200180613b56602e913960400191505060405180910390fd5b600054610100900460ff16158015611ae1576000805460ff1961ff0019909116610100171660011790555b611a4063656cb66560e11b6124c1565b600054610100900460ff1680611b0a5750611b0a61198e565b80611b18575060005460ff16155b611b535760405162461bcd60e51b815260040180806020018281038252602e815260200180613b56602e913960400191505060405180910390fd5b600054610100900460ff16158015611b7e576000805460ff1961ff0019909116610100171660011790555b611a406301ffc9a760e01b6124c1565b600054610100900460ff1680611ba75750611ba761198e565b80611bb5575060005460ff16155b611bf05760405162461bcd60e51b815260040180806020018281038252602e815260200180613b56602e913960400191505060405180910390fd5b600054610100900460ff16158015611c1b576000805460ff1961ff0019909116610100171660011790555b6000611c2561111f565b603380546001600160a01b0319166001600160a01b038316908117909155604051919250906000907f8be0079c531659141344cd1fd0a4f28419497f9722a3daafe3b4186f6b6457e0908290a3508015610976576000805461ff001916905550565b600054610100900460ff1680611ca05750611ca061198e565b80611cae575060005460ff16155b611ce95760405162461bcd60e51b815260040180806020018281038252602e815260200180613b56602e913960400191505060405180910390fd5b600054610100900460ff16158015611d14576000805460ff1961ff0019909116610100171660011790555b611a40604051806040016040528060078152602001664d696e7437323160c81b815250604051806040016040528060018152602001603160f81b815250612545565b600054610100900460ff1680611d6f5750611d6f61198e565b80611d7d575060005460ff16155b611db85760405162461bcd60e51b815260040180806020018281038252602e815260200180613b56602e913960400191505060405180910390fd5b600054610100900460ff16158015611de3576000805460ff1961ff0019909116610100171660011790555b8151611df79061022e9060208501906130df565b50611e0863e8a3d48560e01b6124c1565b80156105eb576000805461ff00191690555050565b600054610100900460ff1680611e365750611e3661198e565b80611e44575060005460ff16155b611e7f5760405162461bcd60e51b815260040180806020018281038252602e815260200180613b56602e913960400191505060405180910390fd5b600054610100900460ff16158015611eaa576000805460ff1961ff0019909116610100171660011790555b8251611ebd9060fd9060208601906130df565b508151611ed19060fe9060208501906130df565b50611ee26380ac58cd60e01b6124c1565b611ef2635b5e139f60e01b6124c1565b8015610568576000805461ff0019169055505050565b6000611f1382610979565b9050611f2181600084610568565b611f2c600083611123565b611f3582612605565b6001600160a01b038116600081815261010060209081526040808320805460001901905585835260ff90915280822080546001600160a01b031916905551849290600080516020613c56833981519152908390a45050565b611f9884848461186f565b611fa48484848461260e565b610ddd5760405162461bcd60e51b8152600401808060200182810382526032815260200180613a016032913960400191505060405180910390fd5b6060610396826127c4565b60008381526101c66020526040812054905b818110156107735760008581526101c66020526040902080546001600160a01b03861691908390811061202b57fe5b6000918252602090912001546001600160a01b0316141561208e5760008581526101c66020526040902080548491908390811061206457fe5b600091825260209091200180546001600160a01b0319166001600160a01b03929092169190911790555b600101611ffc565b6001600160a01b038116600090815261012f602052604081205460ff1680610f475750610f478383612a46565b8051602091820151604080517f397e04204c1e1a60ee8724b71f8244e10ab5f2e9009854d80f602bda21b59ebb818601526001600160a01b03909316838201526001600160601b039091166060808401919091528151808403909101815260809092019052805191012090565b600061213b83612a75565b905061214f846001600160a01b03166124bb565b156123055760408051630b135d3f60e11b808252600482018481526024830193845285516044840152855191936001600160a01b03891693631626ba7e938793899390929091606490910190602085019080838360005b838110156121be5781810151838201526020016121a6565b50505050905090810190601f1680156121eb5780820380516001836020036101000a031916815260200191505b50935050505060206040518083038186803b15801561220957600080fd5b505afa15801561221d573d6000803e3d6000fd5b505050506040513d602081101561223357600080fd5b505160408051808201909152601c81527f7369676e617475726520766572696669636174696f6e206572726f72000000006020820152916001600160e01b0319909116146122ff5760405162461bcd60e51b81526004018080602001828103825283818151815260200191508051906020019080838360005b838110156122c45781810151838201526020016122ac565b50505050905090810190601f1680156122f15780820380516001836020036101000a031916815260200191505b509250505060405180910390fd5b50610ddd565b6001600160a01b0384166123198284612ac1565b6001600160a01b0316146040518060400160405280601c81526020017f7369676e617475726520766572696669636174696f6e206572726f7200000000815250906107735760405162461bcd60e51b81526020600482018181528351602484015283519092839260449091019190850190808383600083156122c45781810151838201526020016122ac565b6123af8383612b41565b6123bc600084848461260e565b6105685760405162461bcd60e51b8152600401808060200182810382526032815260200180613a016032913960400191505060405180910390fd5b7f3fa96d7b6bcbfe71ef171666d84db3cf52fa2d1c8afdb1cc8e486177f208b7df8282604051612428929190613990565b60405180910390a15050565b600082820183811015610f47576040805162461bcd60e51b815260206004820152601b60248201527f536166654d6174683a206164646974696f6e206f766572666c6f770000000000604482015290519081900360640190fd5b6001600160a01b038216600090815261012f602052604081205460ff1680610f475750610f478383612c4b565b3b151590565b6001600160e01b03198082161415612520576040805162461bcd60e51b815260206004820152601c60248201527f4552433136353a20696e76616c696420696e7465726661636520696400000000604482015290519081900360640190fd5b6001600160e01b0319166000908152606560205260409020805460ff19166001179055565b600054610100900460ff168061255e575061255e61198e565b8061256c575060005460ff16155b6125a75760405162461bcd60e51b815260040180806020018281038252602e815260200180613b56602e913960400191505060405180910390fd5b600054610100900460ff161580156125d2576000805460ff1961ff0019909116610100171660011790555b82516020808501919091208351918401919091206097919091556098558015610568576000805461ff0019169055505050565b61097681612ce7565b6000612622846001600160a01b03166124bb565b156127b857836001600160a01b031663150b7a0261263e61111f565b8786866040518563ffffffff1660e01b815260040180856001600160a01b03168152602001846001600160a01b0316815260200183815260200180602001828103825283818151815260200191508051906020019080838360005b838110156126b1578181015183820152602001612699565b50505050905090810190601f1680156126de5780820380516001836020036101000a031916815260200191505b5095505050505050602060405180830381600087803b15801561270057600080fd5b505af192505050801561272557506040513d602081101561272057600080fd5b505160015b61279e573d808015612753576040519150601f19603f3d011682016040523d82523d6000602084013e612758565b606091505b5080516127965760405162461bcd60e51b8152600401808060200182810382526032815260200180613a016032913960400191505060405180910390fd5b805181602001fd5b6001600160e01b031916630a85bd0160e11b1490506127bc565b5060015b949350505050565b60606127cf82611102565b61280a5760405162461bcd60e51b815260040180806020018281038252602f815260200180613c27602f913960400191505060405180910390fd5b60008281526101c7602090815260408083208054825160026001831615610100026000190190921691909104601f81018590048502820185019093528281529290919083018282801561289e5780601f106128735761010080835404028352916020019161289e565b820191906000526020600020905b81548152906001019060200180831161288157829003601f168201915b5050505050905060006128af6109cd565b90508051600014156128c357509050610399565b8151156129845780826040516020018083805190602001908083835b602083106128fe5780518252601f1990920191602091820191016128df565b51815160209384036101000a600019018019909216911617905285519190930192850191508083835b602083106129465780518252601f199092019160209182019101612927565b6001836020036101000a0380198251168184511680821785525050505050509050019250505060405160208183030381529060405292505050610399565b8061298e85612cf0565b6040516020018083805190602001908083835b602083106129c05780518252601f1990920191602091820191016129a1565b51815160209384036101000a600019018019909216911617905285519190930192850191508083835b60208310612a085780518252601f1990920191602091820191016129e9565b6001836020036101000a0380198251168184511680821785525050505050509050019250505060405160208183030381529060405292505050919050565b6001600160a01b0391821660009081526101026020908152604080832093909416825291909152205460ff1690565b6000612a7f612dcb565b82604051602001808061190160f01b81525060020183815260200182815260200192505050604051602081830303815290604052805190602001209050919050565b60008151604114612b19576040805162461bcd60e51b815260206004820152601f60248201527f45434453413a20696e76616c6964207369676e6174757265206c656e67746800604482015290519081900360640190fd5b60208201516040830151606084015160001a612b3786828585612e0b565b9695505050505050565b6001600160a01b038216612b9c576040805162461bcd60e51b815260206004820181905260248201527f4552433732313a206d696e7420746f20746865207a65726f2061646472657373604482015290519081900360640190fd5b612ba581611102565b15612bf7576040805162461bcd60e51b815260206004820152601c60248201527f4552433732313a20746f6b656e20616c7265616479206d696e74656400000000604482015290519081900360640190fd5b612c0360008383610568565b6001600160a01b0382166000818152610100602090815260408083208054600101905584835260ff909152902080546001600160a01b03191690911790556105eb8282612f89565b6000612c5682611102565b612c915760405162461bcd60e51b815260040180806020018281038252602c815260200180613a9f602c913960400191505060405180910390fd5b6000612c9c83610979565b9050806001600160a01b0316846001600160a01b03161480612cd75750836001600160a01b0316612ccc84610434565b6001600160a01b0316145b806127bc57506127bc8185610f3b565b61097681612f93565b606081612d1557506040805180820190915260018152600360fc1b6020820152610399565b8160005b8115612d2d57600101600a82049150612d19565b60008167ffffffffffffffff81118015612d4657600080fd5b506040519080825280601f01601f191660200182016040528015612d71576020820181803683370190505b50859350905060001982015b8315612dc257600a840660300160f81b82828060019003935081518110612da057fe5b60200101906001600160f81b031916908160001a905350600a84049350612d7d565b50949350505050565b6000612e067f8b73c3c69bb8fe3d512ecc4cf759cc79239f7b179b0ffacaa9a75d522b39400f612df9612fd3565b612e01612fd9565b612fdf565b905090565b60007f7fffffffffffffffffffffffffffffff5d576e7357a4501ddfe92f46681b20a0821115612e6c5760405162461bcd60e51b8152600401808060200182810382526022815260200180613a7d6022913960400191505060405180910390fd5b8360ff16601b1480612e8157508360ff16601c145b612ebc5760405162461bcd60e51b8152600401808060200182810382526022815260200180613b846022913960400191505060405180910390fd5b600060018686868660405160008152602001604052604051808581526020018460ff1681526020018381526020018281526020019450505050506020604051602081039080840390855afa158015612f18573d6000803e3d6000fd5b5050604051601f1901519150506001600160a01b038116612f80576040805162461bcd60e51b815260206004820152601860248201527f45434453413a20696e76616c6964207369676e61747572650000000000000000604482015290519081900360640190fd5b95945050505050565b6105eb8282613041565b60008181526101c7602052604090205460026000196101006001841615020190911604156109765760008181526101c7602052604081206109769161316b565b60975490565b60985490565b6000838383612fec6130db565b3060405160200180868152602001858152602001848152602001838152602001826001600160a01b03168152602001955050505050506040516020818303038152906040528051906020012090509392505050565b606081901c6001600160a01b03831681146130b05760405182906001600160a01b03831690600090600080516020613c56833981519152908290a481836001600160a01b0316826001600160a01b0316600080516020613c5683398151915260405160405180910390a4610568565b60405182906001600160a01b03851690600090600080516020613c56833981519152908290a4505050565b4690565b828054600181600116156101000203166002900490600052602060002090601f016020900481019282613115576000855561315b565b82601f1061312e57805160ff191683800117855561315b565b8280016001018555821561315b579182015b8281111561315b578251825591602001919060010190613140565b506131679291506131ab565b5090565b50805460018160011615610100020316600290046000825580601f106131915750610976565b601f01602090049060005260206000209081019061097691905b5b8082111561316757600081556001016131ac565b600082601f8301126131d0578081fd5b813560206131e56131e0836139cd565b6139a9565b82815281810190858301855b8581101561321a57613208898684358b01016132e3565b845292840192908401906001016131f1565b5090979650505050505050565b600082601f830112613237578081fd5b813560206132476131e0836139cd565b82815281810190858301604080860288018501891015613265578687fd5b865b868110156132d55781838b03121561327d578788fd5b815182810181811067ffffffffffffffff8211171561329857fe5b835283356132a5816139eb565b8152838701356001600160601b03811681146132bf57898afd5b8188015285529385019391810191600101613267565b509198975050505050505050565b600082601f8301126132f3578081fd5b813567ffffffffffffffff81111561330757fe5b61331a601f8201601f19166020016139a9565b81815284602083860101111561332e578283fd5b816020850160208301379081016020019190915292915050565b600060a08284031215613359578081fd5b61336360a06139a9565b905081358152602082013567ffffffffffffffff8082111561338457600080fd5b613390858386016132e3565b602084015260408401359150808211156133a957600080fd5b6133b585838601613227565b604084015260608401359150808211156133ce57600080fd5b6133da85838601613227565b606084015260808401359150808211156133f357600080fd5b50613400848285016131c0565b60808301525092915050565b60006020828403121561341d578081fd5b8135610f47816139eb565b6000806040838503121561343a578081fd5b8235613445816139eb565b91506020830135613455816139eb565b809150509250929050565b600080600060608486031215613474578081fd5b833561347f816139eb565b9250602084013561348f816139eb565b929592945050506040919091013590565b600080600080608085870312156134b5578081fd5b84356134c0816139eb565b935060208501356134d0816139eb565b925060408501359150606085013567ffffffffffffffff8111156134f2578182fd5b6134fe878288016132e3565b91505092959194509250565b6000806040838503121561351c578182fd5b8235613527816139eb565b915060208301358015158114613455578182fd5b6000806040838503121561354d578182fd5b8235613558816139eb565b946020939093013593505050565b600060208284031215613577578081fd5b81356001600160e01b031981168114610f47578182fd5b600080600080608085870312156135a3578182fd5b843567ffffffffffffffff808211156135ba578384fd5b6135c6888389016132e3565b955060208701359150808211156135db578384fd5b6135e7888389016132e3565b945060408701359150808211156135fc578384fd5b613608888389016132e3565b9350606087013591508082111561361d578283fd5b506134fe878288016132e3565b6000806040838503121561363c578182fd5b823567ffffffffffffffff811115613652578283fd5b61365e85828601613348565b9250506020830135613455816139eb565b600080600060608486031215613683578081fd5b833567ffffffffffffffff811115613699578182fd5b6136a586828701613348565b93505060208401356136b6816139eb565b915060408401356136c6816139eb565b809150509250925092565b6000602082840312156136e2578081fd5b5035919050565b6000806000606084860312156136fd578081fd5b8335925060208401356136b6816139eb565b6000815180845260208085019450808401835b8381101561375b57815180516001600160a01b031688528301516001600160601b03168388015260409096019590820190600101613722565b509495945050505050565b60008151808452815b8181101561378b5760208185018101518683018201520161376f565b8181111561379c5782602083870101525b50601f01601f19169290920160200192915050565b6001600160a01b0391909116815260200190565b6001600160a01b03841681526060602082018190526000906137e990830185613766565b8281036040840152612b378185613766565b600060208252610f47602083018461370f565b901515815260200190565b600060208252610f476020830184613766565b6020808252818101527f43726561746f722073686172652073686f756c6420626520706f736974697665604082015260600190565b6020808252601190820152701d1bdad95b9259081a5b98dbdc9c9958dd607a1b604082015260600190565b6020808252600b908201526a1b9bdd08185b1b1bddd95960aa1b604082015260600190565b60208082526019908201527f4163636f756e742073686f756c642062652070726573656e7400000000000000604082015260600190565b60208082526031908201527f4552433732313a207472616e736665722063616c6c6572206973206e6f74206f6040820152701ddb995c881b9bdc88185c1c1c9bdd9959607a1b606082015260800190565b6020808252602e908201527f746f74616c20616d6f756e74206f662063726561746f7273207368617265207360408201526d0686f756c642062652031303030360941b606082015260800190565b90815260200190565b6000838252604060208301526127bc604083018461370f565b60405181810167ffffffffffffffff811182821017156139c557fe5b604052919050565b600067ffffffffffffffff8211156139e157fe5b5060209081020190565b6001600160a01b038116811461097657600080fdfe4552433732313a207472616e7366657220746f206e6f6e20455243373231526563656976657220696d706c656d656e7465724f776e61626c653a206e6577206f776e657220697320746865207a65726f20616464726573734552433732313a207472616e7366657220746f20746865207a65726f206164647265737345434453413a20696e76616c6964207369676e6174757265202773272076616c75654552433732313a206f70657261746f7220717565727920666f72206e6f6e6578697374656e7420746f6b656e4552433732313a20617070726f76652063616c6c6572206973206e6f74206f776e6572206e6f7220617070726f76656420666f7220616c6c4552433732313a2062616c616e636520717565727920666f7220746865207a65726f20616464726573734552433732313a206f776e657220717565727920666f72206e6f6e6578697374656e7420746f6b656e496e697469616c697a61626c653a20636f6e747261637420697320616c726561647920696e697469616c697a656445434453413a20696e76616c6964207369676e6174757265202776272076616c75654552433732313a20617070726f76656420717565727920666f72206e6f6e6578697374656e7420746f6b656e4552433732314d657461646174613a2055524920736574206f66206e6f6e6578697374656e7420746f6b656e4552433732313a207472616e73666572206f6620746f6b656e2074686174206973206e6f74206f776e4552433732314d657461646174613a2055524920717565727920666f72206e6f6e6578697374656e7420746f6b656eddf252ad1be2c89b69c2b068fc378daa952ba7f163c4a11628f55a4df523b3ef4552433732313a20617070726f76616c20746f2063757272656e74206f776e65724552433732313a207472616e736665722063616c6c6572206973206e6f74206f776e6572206e6f7220617070726f766564526f79616c747920746f74616c2076616c75652073686f756c64206265203c2031303030304552433732314275726e61626c653a2063616c6c6572206973206e6f74206f776e6572206e6f7220617070726f766564a2646970667358221220d7addb20f95a7db9ee620522f3a6ffb785eec97e158d4a10b53ab430fe12c6a564736f6c63430007060033",
  "immutableReferences": {},
  "source": "// SPDX-License-Identifier: MIT\n\npragma solidity 0.7.6;\npragma abicoder v2;\n\nimport \"./ERC721BaseMinimal.sol\";\n\ncontract ERC721RaribleMinimal is ERC721BaseMinimal {\n\n    event CreateERC721Rarible(address owner, string name, string symbol);\n\n    function __ERC721Rarible_init(string memory _name, string memory _symbol, string memory baseURI, string memory contractURI) external initializer {\n        _setBaseURI(baseURI);\n        __ERC721Lazy_init_unchained();\n        __RoyaltiesV2Upgradeable_init_unchained();\n        __Context_init_unchained();\n        __ERC165_init_unchained();\n        __Ownable_init_unchained();\n        __ERC721Burnable_init_unchained();\n        __Mint721Validator_init_unchained();\n        __HasContractURI_init_unchained(contractURI);\n        __ERC721_init_unchained(_name, _symbol);\n        emit CreateERC721Rarible(_msgSender(), _name, _symbol);\n    }\n    uint256[50] private __gap;\n}\n",
  "sourcePath": "@rarible/tokens/contracts/erc-721-minimal/ERC721RaribleMinimal.sol",
  "compiler": {
    "name": "solc",
    "version": "0.7.6+commit.7338295f.Emscripten.clang"
  },
  "schemaVersion": "3.4.3",
  "updatedAt": "2021-11-08T13:12:29.060Z",
  "devdoc": {
    "kind": "dev",
    "methods": {
      "approve(address,uint256)": {
        "details": "See {IERC721-approve}."
      },
      "balanceOf(address)": {
        "details": "See {IERC721-balanceOf}."
      },
      "baseURI()": {
        "details": "Returns the base URI set via {_setBaseURI}. This will be automatically added as a prefix in {tokenURI} to each token's URI, or to the token ID if no specific URI is set for that token ID."
      },
      "burn(uint256)": {
        "details": "Burns `tokenId`. See {ERC721-_burn}. Requirements: - The caller must own `tokenId` or be an approved operator."
      },
      "getApproved(uint256)": {
        "details": "See {IERC721-getApproved}."
      },
      "name()": {
        "details": "See {IERC721Metadata-name}."
      },
      "owner()": {
        "details": "Returns the address of the current owner."
      },
      "ownerOf(uint256)": {
        "details": "See {IERC721-ownerOf}."
      },
      "renounceOwnership()": {
        "details": "Leaves the contract without owner. It will not be possible to call `onlyOwner` functions anymore. Can only be called by the current owner. NOTE: Renouncing ownership will leave the contract without an owner, thereby removing any functionality that is only available to the owner."
      },
      "safeTransferFrom(address,address,uint256)": {
        "details": "See {IERC721-safeTransferFrom}."
      },
      "safeTransferFrom(address,address,uint256,bytes)": {
        "details": "See {IERC721-safeTransferFrom}."
      },
      "setApprovalForAll(address,bool)": {
        "details": "See {IERC721-setApprovalForAll}."
      },
      "symbol()": {
        "details": "See {IERC721Metadata-symbol}."
      },
      "transferFrom(address,address,uint256)": {
        "details": "See {IERC721-transferFrom}."
      },
      "transferOwnership(address)": {
        "details": "Transfers ownership of the contract to a new account (`newOwner`). Can only be called by the current owner."
      }
    },
    "version": 1
  },
  "userdoc": {
    "kind": "user",
    "methods": {},
    "version": 1
  }
}