{
  "contractName": "ERC721RaribleMeta",
  "abi": [
    {
      "anonymous": false,
      "inputs": [
        {
          "indexed": true,
          "internalType": "address",
          "name": "owner",
          "type": "address"
        },
        {
          "indexed": true,
          "internalType": "address",
          "name": "approved",
          "type": "address"
        },
        {
          "indexed": true,
          "internalType": "uint256",
          "name": "tokenId",
          "type": "uint256"
        }
      ],
      "name": "Approval",
      "type": "event"
    },
    {
      "anonymous": false,
      "inputs": [
        {
          "indexed": true,
          "internalType": "address",
          "name": "owner",
          "type": "address"
        },
        {
          "indexed": true,
          "internalType": "address",
          "name": "operator",
          "type": "address"
        },
        {
          "indexed": false,
          "internalType": "bool",
          "name": "approved",
          "type": "bool"
        }
      ],
      "name": "ApprovalForAll",
      "type": "event"
    },
    {
      "anonymous": false,
      "inputs": [
        {
          "indexed": false,
          "internalType": "string",
          "name": "newBaseURI",
          "type": "string"
        }
      ],
      "name": "BaseUriChanged",
      "type": "event"
    },
    {
      "anonymous": false,
      "inputs": [
        {
          "indexed": false,
          "internalType": "address",
          "name": "owner",
          "type": "address"
        },
        {
          "indexed": false,
          "internalType": "string",
          "name": "name",
          "type": "string"
        },
        {
          "indexed": false,
          "internalType": "string",
          "name": "symbol",
          "type": "string"
        }
      ],
      "name": "CreateERC721Rarible",
      "type": "event"
    },
    {
      "anonymous": false,
      "inputs": [
        {
          "indexed": false,
          "internalType": "address",
          "name": "owner",
          "type": "address"
        },
        {
          "indexed": false,
          "internalType": "string",
          "name": "name",
          "type": "string"
        },
        {
          "indexed": false,
          "internalType": "string",
          "name": "symbol",
          "type": "string"
        }
      ],
      "name": "CreateERC721RaribleUser",
      "type": "event"
    },
    {
      "anonymous": false,
      "inputs": [
        {
          "indexed": false,
          "internalType": "uint256",
          "name": "tokenId",
          "type": "uint256"
        },
        {
          "components": [
            {
              "internalType": "address payable",
              "name": "account",
              "type": "address"
            },
            {
              "internalType": "uint96",
              "name": "value",
              "type": "uint96"
            }
          ],
          "indexed": false,
          "internalType": "struct LibPart.Part[]",
          "name": "creators",
          "type": "tuple[]"
        }
      ],
      "name": "Creators",
      "type": "event"
    },
    {
      "anonymous": false,
      "inputs": [
        {
          "indexed": true,
          "internalType": "address",
          "name": "operator",
          "type": "address"
        },
        {
          "indexed": false,
          "internalType": "bool",
          "name": "hasApproval",
          "type": "bool"
        }
      ],
      "name": "DefaultApproval",
      "type": "event"
    },
    {
      "anonymous": false,
      "inputs": [
        {
          "indexed": false,
          "internalType": "address",
          "name": "userAddress",
          "type": "address"
        },
        {
          "indexed": false,
          "internalType": "address payable",
          "name": "relayerAddress",
          "type": "address"
        },
        {
          "indexed": false,
          "internalType": "bytes",
          "name": "functionSignature",
          "type": "bytes"
        }
      ],
      "name": "MetaTransactionExecuted",
      "type": "event"
    },
    {
      "anonymous": false,
      "inputs": [
        {
          "indexed": true,
          "internalType": "address",
          "name": "minter",
          "type": "address"
        },
        {
          "indexed": true,
          "internalType": "bool",
          "name": "status",
          "type": "bool"
        }
      ],
      "name": "MinterStatusChanged",
      "type": "event"
    },
    {
      "anonymous": false,
      "inputs": [
        {
          "indexed": true,
          "internalType": "address",
          "name": "previousOwner",
          "type": "address"
        },
        {
          "indexed": true,
          "internalType": "address",
          "name": "newOwner",
          "type": "address"
        }
      ],
      "name": "OwnershipTransferred",
      "type": "event"
    },
    {
      "anonymous": false,
      "inputs": [
        {
          "indexed": false,
          "internalType": "uint256",
          "name": "tokenId",
          "type": "uint256"
        },
        {
          "components": [
            {
              "internalType": "address payable",
              "name": "account",
              "type": "address"
            },
            {
              "internalType": "uint96",
              "name": "value",
              "type": "uint96"
            }
          ],
          "indexed": false,
          "internalType": "struct LibPart.Part[]",
          "name": "royalties",
          "type": "tuple[]"
        }
      ],
      "name": "RoyaltiesSet",
      "type": "event"
    },
    {
      "anonymous": false,
      "inputs": [
        {
          "indexed": true,
          "internalType": "address",
          "name": "from",
          "type": "address"
        },
        {
          "indexed": true,
          "internalType": "address",
          "name": "to",
          "type": "address"
        },
        {
          "indexed": true,
          "internalType": "uint256",
          "name": "tokenId",
          "type": "uint256"
        }
      ],
      "name": "Transfer",
      "type": "event"
    },
    {
      "inputs": [],
      "name": "OPERATOR_FILTER_REGISTRY",
      "outputs": [
        {
          "internalType": "address",
          "name": "",
          "type": "address"
        }
      ],
      "stateMutability": "view",
      "type": "function"
    },
    {
      "inputs": [
        {
          "internalType": "address",
          "name": "minter",
          "type": "address"
        }
      ],
      "name": "addMinter",
      "outputs": [],
      "stateMutability": "nonpayable",
      "type": "function"
    },
    {
      "inputs": [
        {
          "internalType": "address[]",
          "name": "minters",
          "type": "address[]"
        }
      ],
      "name": "addMinters",
      "outputs": [],
      "stateMutability": "nonpayable",
      "type": "function"
    },
    {
      "inputs": [
        {
          "internalType": "address",
          "name": "operator",
          "type": "address"
        },
        {
          "internalType": "uint256",
          "name": "tokenId",
          "type": "uint256"
        }
      ],
      "name": "approve",
      "outputs": [],
      "stateMutability": "nonpayable",
      "type": "function"
    },
    {
      "inputs": [
        {
          "internalType": "address",
          "name": "owner",
          "type": "address"
        }
      ],
      "name": "balanceOf",
      "outputs": [
        {
          "internalType": "uint256",
          "name": "",
          "type": "uint256"
        }
      ],
      "stateMutability": "view",
      "type": "function"
    },
    {
      "inputs": [],
      "name": "baseURI",
      "outputs": [
        {
          "internalType": "string",
          "name": "",
          "type": "string"
        }
      ],
      "stateMutability": "view",
      "type": "function"
    },
    {
      "inputs": [
        {
          "internalType": "uint256",
          "name": "tokenId",
          "type": "uint256"
        }
      ],
      "name": "burn",
      "outputs": [],
      "stateMutability": "nonpayable",
      "type": "function"
    },
    {
      "inputs": [],
      "name": "contractURI",
      "outputs": [
        {
          "internalType": "string",
          "name": "",
          "type": "string"
        }
      ],
      "stateMutability": "view",
      "type": "function"
    },
    {
      "inputs": [
        {
          "internalType": "address",
          "name": "userAddress",
          "type": "address"
        },
        {
          "internalType": "bytes",
          "name": "functionSignature",
          "type": "bytes"
        },
        {
          "internalType": "bytes32",
          "name": "sigR",
          "type": "bytes32"
        },
        {
          "internalType": "bytes32",
          "name": "sigS",
          "type": "bytes32"
        },
        {
          "internalType": "uint8",
          "name": "sigV",
          "type": "uint8"
        }
      ],
      "name": "executeMetaTransaction",
      "outputs": [
        {
          "internalType": "bytes",
          "name": "",
          "type": "bytes"
        }
      ],
      "stateMutability": "payable",
      "type": "function"
    },
    {
      "inputs": [
        {
          "internalType": "uint256",
          "name": "tokenId",
          "type": "uint256"
        }
      ],
      "name": "getApproved",
      "outputs": [
        {
          "internalType": "address",
          "name": "",
          "type": "address"
        }
      ],
      "stateMutability": "view",
      "type": "function"
    },
    {
      "inputs": [
        {
          "internalType": "uint256",
          "name": "_id",
          "type": "uint256"
        }
      ],
      "name": "getCreators",
      "outputs": [
        {
          "components": [
            {
              "internalType": "address payable",
              "name": "account",
              "type": "address"
            },
            {
              "internalType": "uint96",
              "name": "value",
              "type": "uint96"
            }
          ],
          "internalType": "struct LibPart.Part[]",
          "name": "",
          "type": "tuple[]"
        }
      ],
      "stateMutability": "view",
      "type": "function"
    },
    {
      "inputs": [
        {
          "internalType": "address",
          "name": "user",
          "type": "address"
        }
      ],
      "name": "getNonce",
      "outputs": [
        {
          "internalType": "uint256",
          "name": "nonce",
          "type": "uint256"
        }
      ],
      "stateMutability": "view",
      "type": "function"
    },
    {
      "inputs": [
        {
          "internalType": "uint256",
          "name": "id",
          "type": "uint256"
        }
      ],
      "name": "getRaribleV2Royalties",
      "outputs": [
        {
          "components": [
            {
              "internalType": "address payable",
              "name": "account",
              "type": "address"
            },
            {
              "internalType": "uint96",
              "name": "value",
              "type": "uint96"
            }
          ],
          "internalType": "struct LibPart.Part[]",
          "name": "",
          "type": "tuple[]"
        }
      ],
      "stateMutability": "view",
      "type": "function"
    },
    {
      "inputs": [
        {
          "internalType": "address",
          "name": "owner",
          "type": "address"
        },
        {
          "internalType": "address",
          "name": "operator",
          "type": "address"
        }
      ],
      "name": "isApprovedForAll",
      "outputs": [
        {
          "internalType": "bool",
          "name": "",
          "type": "bool"
        }
      ],
      "stateMutability": "view",
      "type": "function"
    },
    {
      "inputs": [
        {
          "internalType": "address",
          "name": "account",
          "type": "address"
        }
      ],
      "name": "isMinter",
      "outputs": [
        {
          "internalType": "bool",
          "name": "",
          "type": "bool"
        }
      ],
      "stateMutability": "view",
      "type": "function"
    },
    {
      "inputs": [],
      "name": "name",
      "outputs": [
        {
          "internalType": "string",
          "name": "",
          "type": "string"
        }
      ],
      "stateMutability": "view",
      "type": "function"
    },
    {
      "inputs": [],
      "name": "owner",
      "outputs": [
        {
          "internalType": "address",
          "name": "",
          "type": "address"
        }
      ],
      "stateMutability": "view",
      "type": "function"
    },
    {
      "inputs": [
        {
          "internalType": "uint256",
          "name": "tokenId",
          "type": "uint256"
        }
      ],
      "name": "ownerOf",
      "outputs": [
        {
          "internalType": "address",
          "name": "",
          "type": "address"
        }
      ],
      "stateMutability": "view",
      "type": "function"
    },
    {
      "inputs": [
        {
          "internalType": "address",
          "name": "_minter",
          "type": "address"
        }
      ],
      "name": "removeMinter",
      "outputs": [],
      "stateMutability": "nonpayable",
      "type": "function"
    },
    {
      "inputs": [],
      "name": "renounceOwnership",
      "outputs": [],
      "stateMutability": "nonpayable",
      "type": "function"
    },
    {
      "inputs": [
        {
          "internalType": "uint256",
          "name": "id",
          "type": "uint256"
        },
        {
          "internalType": "uint256",
          "name": "_salePrice",
          "type": "uint256"
        }
      ],
      "name": "royaltyInfo",
      "outputs": [
        {
          "internalType": "address",
          "name": "receiver",
          "type": "address"
        },
        {
          "internalType": "uint256",
          "name": "royaltyAmount",
          "type": "uint256"
        }
      ],
      "stateMutability": "view",
      "type": "function"
    },
    {
      "inputs": [
        {
          "internalType": "address",
          "name": "from",
          "type": "address"
        },
        {
          "internalType": "address",
          "name": "to",
          "type": "address"
        },
        {
          "internalType": "uint256",
          "name": "tokenId",
          "type": "uint256"
        }
      ],
      "name": "safeTransferFrom",
      "outputs": [],
      "stateMutability": "nonpayable",
      "type": "function"
    },
    {
      "inputs": [
        {
          "internalType": "address",
          "name": "from",
          "type": "address"
        },
        {
          "internalType": "address",
          "name": "to",
          "type": "address"
        },
        {
          "internalType": "uint256",
          "name": "tokenId",
          "type": "uint256"
        },
        {
          "internalType": "bytes",
          "name": "data",
          "type": "bytes"
        }
      ],
      "name": "safeTransferFrom",
      "outputs": [],
      "stateMutability": "nonpayable",
      "type": "function"
    },
    {
      "inputs": [
        {
          "internalType": "address",
          "name": "operator",
          "type": "address"
        },
        {
          "internalType": "bool",
          "name": "approved",
          "type": "bool"
        }
      ],
      "name": "setApprovalForAll",
      "outputs": [],
      "stateMutability": "nonpayable",
      "type": "function"
    },
    {
      "inputs": [
        {
          "internalType": "string",
          "name": "newBaseURI",
          "type": "string"
        }
      ],
      "name": "setBaseURI",
      "outputs": [],
      "stateMutability": "nonpayable",
      "type": "function"
    },
    {
      "inputs": [
        {
          "internalType": "bytes4",
          "name": "interfaceId",
          "type": "bytes4"
        }
      ],
      "name": "supportsInterface",
      "outputs": [
        {
          "internalType": "bool",
          "name": "",
          "type": "bool"
        }
      ],
      "stateMutability": "view",
      "type": "function"
    },
    {
      "inputs": [],
      "name": "symbol",
      "outputs": [
        {
          "internalType": "string",
          "name": "",
          "type": "string"
        }
      ],
      "stateMutability": "view",
      "type": "function"
    },
    {
      "inputs": [
        {
          "internalType": "uint256",
          "name": "tokenId",
          "type": "uint256"
        }
      ],
      "name": "tokenURI",
      "outputs": [
        {
          "internalType": "string",
          "name": "",
          "type": "string"
        }
      ],
      "stateMutability": "view",
      "type": "function"
    },
    {
      "inputs": [
        {
          "internalType": "address",
          "name": "from",
          "type": "address"
        },
        {
          "internalType": "address",
          "name": "to",
          "type": "address"
        },
        {
          "internalType": "uint256",
          "name": "tokenId",
          "type": "uint256"
        }
      ],
      "name": "transferFrom",
      "outputs": [],
      "stateMutability": "nonpayable",
      "type": "function"
    },
    {
      "inputs": [
        {
          "components": [
            {
              "internalType": "uint256",
              "name": "tokenId",
              "type": "uint256"
            },
            {
              "internalType": "string",
              "name": "tokenURI",
              "type": "string"
            },
            {
              "components": [
                {
                  "internalType": "address payable",
                  "name": "account",
                  "type": "address"
                },
                {
                  "internalType": "uint96",
                  "name": "value",
                  "type": "uint96"
                }
              ],
              "internalType": "struct LibPart.Part[]",
              "name": "creators",
              "type": "tuple[]"
            },
            {
              "components": [
                {
                  "internalType": "address payable",
                  "name": "account",
                  "type": "address"
                },
                {
                  "internalType": "uint96",
                  "name": "value",
                  "type": "uint96"
                }
              ],
              "internalType": "struct LibPart.Part[]",
              "name": "royalties",
              "type": "tuple[]"
            },
            {
              "internalType": "bytes[]",
              "name": "signatures",
              "type": "bytes[]"
            }
          ],
          "internalType": "struct LibERC721LazyMint.Mint721Data",
          "name": "data",
          "type": "tuple"
        },
        {
          "internalType": "address",
          "name": "from",
          "type": "address"
        },
        {
          "internalType": "address",
          "name": "to",
          "type": "address"
        }
      ],
      "name": "transferFromOrMint",
      "outputs": [],
      "stateMutability": "nonpayable",
      "type": "function"
    },
    {
      "inputs": [
        {
          "internalType": "address",
          "name": "newOwner",
          "type": "address"
        }
      ],
      "name": "transferOwnership",
      "outputs": [],
      "stateMutability": "nonpayable",
      "type": "function"
    },
    {
      "inputs": [
        {
          "internalType": "uint256",
          "name": "_id",
          "type": "uint256"
        },
        {
          "internalType": "address",
          "name": "_from",
          "type": "address"
        },
        {
          "internalType": "address",
          "name": "_to",
          "type": "address"
        }
      ],
      "name": "updateAccount",
      "outputs": [],
      "stateMutability": "nonpayable",
      "type": "function"
    },
    {
      "inputs": [
        {
          "internalType": "string",
          "name": "_name",
          "type": "string"
        },
        {
          "internalType": "string",
          "name": "_symbol",
          "type": "string"
        },
        {
          "internalType": "string",
          "name": "baseURI",
          "type": "string"
        },
        {
          "internalType": "string",
          "name": "contractURI",
          "type": "string"
        },
        {
          "internalType": "address[]",
          "name": "operators",
          "type": "address[]"
        },
        {
          "internalType": "address",
          "name": "transferProxy",
          "type": "address"
        },
        {
          "internalType": "address",
          "name": "lazyTransferProxy",
          "type": "address"
        },
        {
          "internalType": "address",
          "name": "subscribeTo",
          "type": "address"
        }
      ],
      "name": "__ERC721RaribleUser_init",
      "outputs": [],
      "stateMutability": "nonpayable",
      "type": "function"
    },
    {
      "inputs": [
        {
          "internalType": "string",
          "name": "_name",
          "type": "string"
        },
        {
          "internalType": "string",
          "name": "_symbol",
          "type": "string"
        },
        {
          "internalType": "string",
          "name": "baseURI",
          "type": "string"
        },
        {
          "internalType": "string",
          "name": "contractURI",
          "type": "string"
        },
        {
          "internalType": "address",
          "name": "transferProxy",
          "type": "address"
        },
        {
          "internalType": "address",
          "name": "lazyTransferProxy",
          "type": "address"
        },
        {
          "internalType": "address",
          "name": "subscribeTo",
          "type": "address"
        }
      ],
      "name": "__ERC721Rarible_init",
      "outputs": [],
      "stateMutability": "nonpayable",
      "type": "function"
    },
    {
      "inputs": [
        {
          "components": [
            {
              "internalType": "uint256",
              "name": "tokenId",
              "type": "uint256"
            },
            {
              "internalType": "string",
              "name": "tokenURI",
              "type": "string"
            },
            {
              "components": [
                {
                  "internalType": "address payable",
                  "name": "account",
                  "type": "address"
                },
                {
                  "internalType": "uint96",
                  "name": "value",
                  "type": "uint96"
                }
              ],
              "internalType": "struct LibPart.Part[]",
              "name": "creators",
              "type": "tuple[]"
            },
            {
              "components": [
                {
                  "internalType": "address payable",
                  "name": "account",
                  "type": "address"
                },
                {
                  "internalType": "uint96",
                  "name": "value",
                  "type": "uint96"
                }
              ],
              "internalType": "struct LibPart.Part[]",
              "name": "royalties",
              "type": "tuple[]"
            },
            {
              "internalType": "bytes[]",
              "name": "signatures",
              "type": "bytes[]"
            }
          ],
          "internalType": "struct LibERC721LazyMint.Mint721Data",
          "name": "data",
          "type": "tuple"
        },
        {
          "internalType": "address",
          "name": "to",
          "type": "address"
        }
      ],
      "name": "mintAndTransfer",
      "outputs": [],
      "stateMutability": "nonpayable",
      "type": "function"
    }
  ],
  "bytecode": "0x608060405234801561001057600080fd5b5061547c806100206000396000f3fe6080604052600436106102045760003560e01c806370a0823111610118578063a60c434e116100a0578063cad96cca1161006f578063cad96cca146105d4578063e07f2319146105f4578063e8a3d48514610614578063e985e9c514610629578063f2fde38b1461064957610204565b8063a60c434e14610554578063aa271e1a14610574578063b88d4fde14610594578063c87b56dd146105b457610204565b8063891be974116100e7578063891be974146104bd5780638da5cb5b146104ea57806395d89b41146104ff578063983b2d5614610514578063a22cb4651461053457610204565b806370a0823114610448578063715018a61461046857806371e2a6571461047d578063832fbb291461049d57610204565b80632a55205a1161019b57806342842e0e1161016a57806342842e0e146103b357806342966c68146103d357806355f804b3146103f35780636352211e146104135780636c0360eb1461043357610204565b80632a55205a146103235780632d0335ab146103515780633092afd51461037e57806341f434341461039e57610204565b80630a6d8989116101d75780630a6d8989146102b05780630c53c51c146102d057806322a775b6146102e357806323b872dd1461030357610204565b806301ffc9a71461020957806306fdde031461023f578063081812fc14610261578063095ea7b31461028e575b600080fd5b34801561021557600080fd5b506102296102243660046149e5565b610669565b6040516102369190614e31565b60405180910390f35b34801561024b57600080fd5b5061025461067c565b6040516102369190614e3c565b34801561026d57600080fd5b5061028161027c366004614cba565b610713565b6040516102369190614dbb565b34801561029a57600080fd5b506102ae6102a9366004614988565b610776565b005b3480156102bc57600080fd5b506102ae6102cb366004614b18565b61078f565b6102546102de36600461490e565b610848565b3480156102ef57600080fd5b506102ae6102fe366004614c15565b610bc1565b34801561030f57600080fd5b506102ae61031e366004614834565b610c63565b34801561032f57600080fd5b5061034361033e366004614cf8565b610c8e565b604051610236929190614e05565b34801561035d57600080fd5b5061037161036c3660046147e0565b610d9c565b6040516102369190615002565b34801561038a57600080fd5b506102ae6103993660046147e0565b610db8565b3480156103aa57600080fd5b50610281610e68565b3480156103bf57600080fd5b506102ae6103ce366004614834565b610e80565b3480156103df57600080fd5b506102ae6103ee366004614cba565b610ea5565b3480156103ff57600080fd5b506102ae61040e366004614a0d565b610f75565b34801561041f57600080fd5b5061028161042e366004614cba565b61101a565b34801561043f57600080fd5b5061025461106e565b34801561045457600080fd5b506103716104633660046147e0565b6110d0565b34801561047457600080fd5b506102ae611134565b34801561048957600080fd5b506102ae6104983660046149b3565b6111e0565b3480156104a957600080fd5b506102ae6104b8366004614c59565b6112c5565b3480156104c957600080fd5b506104dd6104d8366004614cba565b611340565b6040516102369190614e1e565b3480156104f657600080fd5b506102816113d0565b34801561050b57600080fd5b506102546113df565b34801561052057600080fd5b506102ae61052f3660046147e0565b611440565b34801561054057600080fd5b506102ae61054f3660046148dd565b6114f5565b34801561056057600080fd5b506102ae61056f366004614a3f565b611509565b34801561058057600080fd5b5061022961058f3660046147e0565b6115ba565b3480156105a057600080fd5b506102ae6105af366004614874565b6115d9565b3480156105c057600080fd5b506102546105cf366004614cba565b611606565b3480156105e057600080fd5b506104dd6105ef366004614cba565b611611565b34801561060057600080fd5b506102ae61060f366004614cd2565b61168c565b34801561062057600080fd5b506102546116cf565b34801561063557600080fd5b506102296106443660046147fc565b61175e565b34801561065557600080fd5b506102ae6106643660046147e0565b611773565b600061067482611876565b90505b919050565b60fd8054604080516020601f60026000196101006001881615020190951694909404938401819004810282018101909252828152606093909290918301828280156107085780601f106106dd57610100808354040283529160200191610708565b820191906000526020600020905b8154815290600101906020018083116106eb57829003601f168201915b505050505090505b90565b600061071e82611930565b6107595760405162461bcd60e51b815260040180806020018281038252602c81526020018061528f602c913960400191505060405180910390fd5b50600090815261010160205260409020546001600160a01b031690565b816107808161194d565b61078a8383611a42565b505050565b61079e88888888878787611b13565b6107ee6040518060400160405280601581526020017445524337323152617269626c65557365724d65746160581b815250604051806040016040528060018152602001603160f81b815250611c37565b610292805460ff191660011790557fd901a467fa419f379a67636a1de44cc2ed772beb43a0c05fa1ddcad5d59e9913610825611cc7565b898960405161083693929190614dcf565b60405180910390a15050505050505050565b6060600061085586611cd6565b90506000356001600160e01b031990811690821614156108bc576040805162461bcd60e51b815260206004820152601760248201527f57726f6e672066756e6374696f6e5369676e6174757265000000000000000000604482015290519081900360640190fd5b604080516060810182526001600160a01b03891660008181526102f76020908152908490205483528201529081018790526108fa8882888888611cf2565b6109355760405162461bcd60e51b81526004018080602001828103825260218152602001806153306021913960400191505060405180910390fd5b6001600160a01b03881660009081526102f7602052604090205461095a906001611ddc565b6102f760008a6001600160a01b03166001600160a01b0316815260200190815260200160002081905550600080306001600160a01b0316898b6040516020018083805190602001908083835b602083106109c55780518252601f1990920191602091820191016109a6565b6001836020036101000a038019825116818451168082178552505050505050905001826001600160a01b031660601b8152601401925050506040516020818303038152906040526040518082805190602001908083835b60208310610a3b5780518252601f199092019160209182019101610a1c565b6001836020036101000a0380198251168184511680821785525050505050509050019150506000604051808303816000865af19150503d8060008114610a9d576040519150601f19603f3d011682016040523d82523d6000602084013e610aa2565b606091505b509150915081610af9576040805162461bcd60e51b815260206004820152601c60248201527f46756e6374696f6e2063616c6c206e6f74207375636365737366756c00000000604482015290519081900360640190fd5b7f5845892132946850460bff5a0083f71031bc5bf9aadcd40f1de79423eac9b10b8a338b60405180846001600160a01b03168152602001836001600160a01b0316815260200180602001828103825283818151815260200191508051906020019080838360005b83811015610b78578181015183820152602001610b60565b50505050905090810190601f168015610ba55780820380516001836020036101000a031916815260200191505b5094505050505060405180910390a19998505050505050505050565b6102925460ff1615610c55578160400151600081518110610bde57fe5b6020026020010151600001516001600160a01b0316610bfb6113d0565b6001600160a01b03161480610c305750610c308260400151600081518110610c1f57fe5b6020026020010151600001516115ba565b610c555760405162461bcd60e51b8152600401610c4c90614e7a565b60405180910390fd5b610c5f8282611e36565b5050565b826001600160a01b0381163314610c7d57610c7d3361194d565b610c88848484611fb1565b50505050565b60008281526101c660205260408120548190610caf57506000905080610d95565b60008481526101c66020908152604080832080548251818502810185019093528083529192909190849084015b82821015610d2b57600084815260209081902060408051808201909152908401546001600160a01b0381168252600160a01b90046001600160601b031681830152825260019092019101610cdc565b50505050905080600081518110610d3e57fe5b60209081029190910101515192506000805b8251811015610d8957828181518110610d6557fe5b6020026020010151602001516001600160601b031682019150806001019050610d50565b50612710908502049150505b9250929050565b6001600160a01b031660009081526102f7602052604090205490565b610dc0611cc7565b6001600160a01b0316610dd16113d0565b6001600160a01b031614610e1a576040805162461bcd60e51b815260206004820181905260248201526000805160206152e7833981519152604482015290519081900360640190fd5b6001600160a01b03811660008181526102c46020526040808220805460ff19169055519091907f3042b80e435ae46c334b2cfec51a66d64c9a8a8af4cd0c279a124c35a09e91dd908390a350565b73d76f01af5f73563c103a11ab2f52099833d0252c90565b826001600160a01b0381163314610e9a57610e9a3361194d565b610c88848484612002565b610eae81611930565b610f1d57606081901c610ebf611cc7565b6001600160a01b0316816001600160a01b031614610f0e5760405162461bcd60e51b815260040180806020018281038252602d815260200180615262602d913960400191505060405180910390fd5b610f178261201d565b50610f72565b610f2e610f28611cc7565b82612039565b610f695760405162461bcd60e51b81526004018080602001828103825260308152602001806154176030913960400191505060405180910390fd5b610f7281612045565b50565b610f7d611cc7565b6001600160a01b0316610f8e6113d0565b6001600160a01b031614610fd7576040805162461bcd60e51b815260206004820181905260248201526000805160206152e7833981519152604482015290519081900360640190fd5b610fe0816120e1565b7f87cdeaffd8e70903d6ce7cc983fac3b09ca79e83818124c98e47a1d70f8027d68160405161100f9190614e3c565b60405180910390a150565b600081815260ff60205260408120546001600160a01b0316806106745760405162461bcd60e51b81526004018080602001828103825260298152602001806151e96029913960400191505060405180910390fd5b6101c88054604080516020601f60026000196101006001881615020190951694909404938401819004810282018101909252828152606093909290918301828280156107085780601f106106dd57610100808354040283529160200191610708565b60006001600160a01b0382166111175760405162461bcd60e51b815260040180806020018281038252602a8152602001806151bf602a913960400191505060405180910390fd5b506001600160a01b03166000908152610100602052604090205490565b61113c611cc7565b6001600160a01b031661114d6113d0565b6001600160a01b031614611196576040805162461bcd60e51b815260206004820181905260248201526000805160206152e7833981519152604482015290519081900360640190fd5b6033546040516000916001600160a01b0316907f8be0079c531659141344cd1fd0a4f28419497f9722a3daafe3b4186f6b6457e0908390a3603380546001600160a01b0319169055565b6111e8611cc7565b6001600160a01b03166111f96113d0565b6001600160a01b031614611242576040805162461bcd60e51b815260206004820181905260248201526000805160206152e7833981519152604482015290519081900360640190fd5b60005b8151811015610c5f57600082828151811061125c57fe5b6020908102919091018101516001600160a01b03811660008181526102c49093526040808420805460ff1916600190811790915590519294509290917f3042b80e435ae46c334b2cfec51a66d64c9a8a8af4cd0c279a124c35a09e91dd9190a350600101611245565b82516112d090611930565b156112e9576112e482828560000151610e80565b61078a565b82604001516000815181106112fa57fe5b6020026020010151600001516001600160a01b0316826001600160a01b0316146113365760405162461bcd60e51b8152600401610c4c90614e4f565b61078a8382610bc1565b60606101fb6000838152602001908152602001600020805480602002602001604051908101604052809291908181526020016000905b828210156113c557600084815260209081902060408051808201909152908401546001600160a01b0381168252600160a01b90046001600160601b031681830152825260019092019101611376565b505050509050919050565b6033546001600160a01b031690565b60fe8054604080516020601f60026000196101006001881615020190951694909404938401819004810282018101909252828152606093909290918301828280156107085780601f106106dd57610100808354040283529160200191610708565b611448611cc7565b6001600160a01b03166114596113d0565b6001600160a01b0316146114a2576040805162461bcd60e51b815260206004820181905260248201526000805160206152e7833981519152604482015290519081900360640190fd5b6001600160a01b03811660008181526102c46020526040808220805460ff1916600190811790915590519092917f3042b80e435ae46c334b2cfec51a66d64c9a8a8af4cd0c279a124c35a09e91dd91a350565b816114ff8161194d565b61078a83836120f5565b61151887878787878787611b13565b6115646040518060400160405280601181526020017045524337323152617269626c654d65746160781b815250604051806040016040528060018152602001603160f81b815250611c37565b610292805460ff191690557ff05e55f0a9d205977ca8cc02236338b6a361376f404cf0b3019b2111964a01fd611598611cc7565b88886040516115a993929190614dcf565b60405180910390a150505050505050565b6001600160a01b031660009081526102c4602052604090205460ff1690565b836001600160a01b03811633146115f3576115f33361194d565b6115ff858585856121fb565b5050505050565b606061067482612253565b60008181526101c6602090815260408083208054825181850281018501909352808352606094929391929091840182156113c557600084815260209081902060408051808201909152908401546001600160a01b0381168252600160a01b90046001600160601b031681830152825260019092019101611376565b816001600160a01b031661169e611cc7565b6001600160a01b0316146116c45760405162461bcd60e51b8152600401610c4c90614f07565b61078a83838361225e565b61022e805460408051602060026001851615610100026000190190941693909304601f810184900484028201840190925281815292918301828280156117565780601f1061172b57610100808354040283529160200191611756565b820191906000526020600020905b81548152906001019060200180831161173957829003601f168201915b505050505081565b600061176a838361230a565b90505b92915050565b61177b611cc7565b6001600160a01b031661178c6113d0565b6001600160a01b0316146117d5576040805162461bcd60e51b815260206004820181905260248201526000805160206152e7833981519152604482015290519081900360640190fd5b6001600160a01b03811661181a5760405162461bcd60e51b81526004018080602001828103825260268152602001806150ef6026913960400191505060405180910390fd5b6033546040516001600160a01b038084169216907f8be0079c531659141344cd1fd0a4f28419497f9722a3daafe3b4186f6b6457e090600090a3603380546001600160a01b0319166001600160a01b0392909216919091179055565b60006001600160e01b03198216638486f69f60e01b14806118a757506001600160e01b0319821663656cb66560e11b145b806118c257506001600160e01b0319821663152a902d60e11b145b806118dd57506001600160e01b031982166301ffc9a760e01b145b806118f857506001600160e01b031982166380ac58cd60e01b145b8061191357506001600160e01b03198216635b5e139f60e01b145b806106745750506001600160e01b03191663780e9d6360e01b1490565b600090815260ff60205260409020546001600160a01b0316151590565b611966611958610e68565b6001600160a01b0316612337565b15610f7257611973610e68565b6001600160a01b031663c617113430836040518363ffffffff1660e01b815260040180836001600160a01b03168152602001826001600160a01b031681526020019250505060206040518083038186803b1580156119d057600080fd5b505afa1580156119e4573d6000803e3d6000fd5b505050506040513d60208110156119fa57600080fd5b5051610f72576040805162461bcd60e51b815260206004820152601260248201527113dc195c985d1bdc939bdd105b1b1bddd95960721b604482015290519081900360640190fd5b6000611a4d8261101a565b9050806001600160a01b0316836001600160a01b03161415611aa05760405162461bcd60e51b81526004018080602001828103825260218152602001806153a06021913960400191505060405180910390fd5b806001600160a01b0316611ab2611cc7565b6001600160a01b03161480611ace5750611ace81610644611cc7565b611b095760405162461bcd60e51b81526004018080602001828103825260388152602001806151876038913960400191505060405180910390fd5b61078a838361233d565b600054610100900460ff1680611b2c5750611b2c6123ac565b80611b3a575060005460ff16155b611b755760405162461bcd60e51b815260040180806020018281038252602e815260200180615212602e913960400191505060405180910390fd5b600054610100900460ff16158015611ba0576000805460ff1961ff0019909116610100171660011790555b611ba9866120e1565b611bb16123bd565b611bb961245e565b611bc16123bd565b611bc9612470565b611bd161250d565b611bd96123bd565b611be1612606565b611be96123bd565b611bf2856126d5565b611bfc88886126fa565b611c05826127e5565b611c10846001612884565b611c1b836001612884565b8015611c2d576000805461ff00191690555b5050505050505050565b7f36c25de3e541d5d970f66e4210d728721220fff5c077cc6cd008b3a0c62adab78280519060200120828051906020012030611c716128e5565b60405160200180868152602001858152602001848152602001836001600160a01b0316815260200182815260200195505050505050604051602081830303815290604052805190602001206102f8819055505050565b6000611cd16128ef565b905090565b6000815160001415611cea57506000610677565b506020015190565b6000806001611d08611d038861294b565b6129ce565b84878760405160008152602001604052604051808581526020018460ff1681526020018381526020018281526020019450505050506020604051602081039080840390855afa158015611d5f573d6000803e3d6000fd5b5050604051601f1901519150506001600160a01b038116611dbb576040805162461bcd60e51b8152602060048201526011602482015270496e76616c6964207369676e617475726560781b604482015290519081900360640190fd5b866001600160a01b0316816001600160a01b03161491505095945050505050565b60008282018381101561176a576040805162461bcd60e51b815260206004820152601b60248201527f536166654d6174683a206164646974696f6e206f766572666c6f770000000000604482015290519081900360640190fd5b815160601c6000611e45611cc7565b90508360400151600081518110611e5857fe5b6020026020010151600001516001600160a01b0316826001600160a01b031614611e945760405162461bcd60e51b8152600401610c4c90614edc565b83608001515184604001515114611eaa57600080fd5b806001600160a01b0316826001600160a01b03161480611ecf5750611ecf828261175e565b611eeb5760405162461bcd60e51b8152600401610c4c90614f63565b6000611ef685612a1a565b905060005b856040015151811015611f6c57600086604001518281518110611f1a57fe5b6020026020010151600001519050836001600160a01b0316816001600160a01b031614611f6357611f63818489608001518581518110611f5657fe5b6020026020010151612c61565b50600101611efb565b50611f7b848660000151612c6c565b611f8d85600001518660600151612c86565b611f9f85600001518660400151612e75565b6115ff85600001518660200151613024565b611fbc610f28611cc7565b611ff75760405162461bcd60e51b81526004018080602001828103825260318152602001806153c16031913960400191505060405180910390fd5b61078a838383613088565b61078a838383604051806020016040528060008152506115d9565b600090815261010360205260409020805460ff19166001179055565b600061176a83836131a7565b60006120508261101a565b905061205e8160008461078a565b61206960008361233d565b612072826131d4565b6001600160a01b038116600090815261010060209081526040808320805460001901905584835260ff909152902080546001600160a01b03191690556120b78261201d565b60405182906000906001600160a01b03841690600080516020615380833981519152908390a45050565b8051610c5f906101c8906020840190614448565b6120fd611cc7565b6001600160a01b0316826001600160a01b03161415612163576040805162461bcd60e51b815260206004820152601960248201527f4552433732313a20617070726f766520746f2063616c6c657200000000000000604482015290519081900360640190fd5b806101026000612171611cc7565b6001600160a01b03908116825260208083019390935260409182016000908120918716808252919093529120805460ff1916921515929092179091556121b5611cc7565b6001600160a01b03167f17307eab39ab6107e8899845ad3d59bd9653f200f220920489ca2b5937696c318360405180821515815260200191505060405180910390a35050565b61220c612206611cc7565b83612039565b6122475760405162461bcd60e51b81526004018080602001828103825260318152602001806153c16031913960400191505060405180910390fd5b610c88848484846131dd565b60606106748261322f565b60008381526101c66020526040812054905b818110156115ff5760008581526101c66020526040902080546001600160a01b03861691908390811061229f57fe5b6000918252602090912001546001600160a01b031614156123025760008581526101c6602052604090208054849190839081106122d857fe5b600091825260209091200180546001600160a01b0319166001600160a01b03929092169190911790555b600101612270565b6001600160a01b038116600090815261012f602052604081205460ff168061176a575061176a838361340a565b3b151590565b60008181526101016020526040902080546001600160a01b0319166001600160a01b03841690811790915581906123738261101a565b6001600160a01b03167f8c5be1e5ebec7d5bd14f71427d1e84f3dd0314c0f7b2291e5b200ac8c7c3b92560405160405180910390a45050565b60006123b730612337565b15905090565b600054610100900460ff16806123d657506123d66123ac565b806123e4575060005460ff16155b61241f5760405162461bcd60e51b815260040180806020018281038252602e815260200180615212602e913960400191505060405180910390fd5b600054610100900460ff1615801561244a576000805460ff1961ff0019909116610100171660011790555b8015610f72576000805461ff001916905550565b61246e63656cb66560e11b613439565b565b600054610100900460ff168061248957506124896123ac565b80612497575060005460ff16155b6124d25760405162461bcd60e51b815260040180806020018281038252602e815260200180615212602e913960400191505060405180910390fd5b600054610100900460ff161580156124fd576000805460ff1961ff0019909116610100171660011790555b61244a6301ffc9a760e01b613439565b600054610100900460ff168061252657506125266123ac565b80612534575060005460ff16155b61256f5760405162461bcd60e51b815260040180806020018281038252602e815260200180615212602e913960400191505060405180910390fd5b600054610100900460ff1615801561259a576000805460ff1961ff0019909116610100171660011790555b60006125a4611cc7565b603380546001600160a01b0319166001600160a01b038316908117909155604051919250906000907f8be0079c531659141344cd1fd0a4f28419497f9722a3daafe3b4186f6b6457e0908290a3508015610f72576000805461ff001916905550565b600054610100900460ff168061261f575061261f6123ac565b8061262d575060005460ff16155b6126685760405162461bcd60e51b815260040180806020018281038252602e815260200180615212602e913960400191505060405180910390fd5b600054610100900460ff16158015612693576000805460ff1961ff0019909116610100171660011790555b61244a604051806040016040528060078152602001664d696e7437323160c81b815250604051806040016040528060018152602001603160f81b8152506134bd565b80516126e99061022e906020840190614448565b50610f7263e8a3d48560e01b613439565b600054610100900460ff168061271357506127136123ac565b80612721575060005460ff16155b61275c5760405162461bcd60e51b815260040180806020018281038252602e815260200180615212602e913960400191505060405180910390fd5b600054610100900460ff16158015612787576000805460ff1961ff0019909116610100171660011790555b825161279a9060fd906020860190614448565b5081516127ae9060fe906020850190614448565b506127bf6380ac58cd60e01b613439565b6127cf635b5e139f60e01b613439565b801561078a576000805461ff0019169055505050565b6127f0611958610e68565b801561280457506001600160a01b03811615155b15610f7257612811610e68565b6001600160a01b0316637d3e3dbe30836040518363ffffffff1660e01b815260040180836001600160a01b03168152602001826001600160a01b0316815260200192505050600060405180830381600087803b15801561287057600080fd5b505af11580156115ff573d6000803e3d6000fd5b6001600160a01b038216600081815261012f6020908152604091829020805460ff1916851515908117909155825190815291517f270dbb8ba4292910ae92862466486be25c355c837270a3d8824b36a8bc7c653b9281900390910190a25050565b6000611cd161357d565b60003330141561294657600080368080601f0160208091040260200160405190810160405280939291908181526020018383808284376000920191909152505050503601516001600160a01b031691506107109050565b503390565b60006040518060800160405280604381526020016150ac60439139805190602001208260000151836020015184604001518051906020012060405160200180858152602001848152602001836001600160a01b03168152602001828152602001945050505050604051602081830303815290604052805190602001209050919050565b60006129d8613581565b82604051602001808061190160f01b81525060020183815260200182815260200192505050604051602081830303815290604052805190602001209050919050565b6000808260600151516001600160401b0381118015612a3857600080fd5b50604051908082528060200260200182016040528015612a62578160200160208202803683370190505b50905060005b836060015151811015612ab457612a9584606001518281518110612a8857fe5b6020026020010151613588565b828281518110612aa157fe5b6020908102919091010152600101612a68565b5060008360400151516001600160401b0381118015612ad257600080fd5b50604051908082528060200260200182016040528015612afc578160200160208202803683370190505b50905060005b846040015151811015612b4157612b2285604001518281518110612a8857fe5b828281518110612b2e57fe5b6020908102919091010152600101612b02565b507ff64326045af5fd7e15297ba939f85b550474d3899daa47d2bc1ffbdb9ced344e84600001518560200151805190602001208360405160200180828051906020019060200280838360005b83811015612ba5578181015183820152602001612b8d565b50505050905001915050604051602081830303815290604052805190602001208560405160200180828051906020019060200280838360005b83811015612bf6578181015183820152602001612bde565b505050509050019150506040516020818303038152906040528051906020012060405160200180868152602001858152602001848152602001838152602001828152602001955050505050506040516020818303038152906040528051906020012092505050919050565b61078a8383836135f5565b610c5f828260405180602001604052806000815250613874565b6000805b8251811015612e2a5760006001600160a01b0316838281518110612caa57fe5b6020026020010151600001516001600160a01b03161415612d12576040805162461bcd60e51b815260206004820152601b60248201527f526563697069656e742073686f756c642062652070726573656e740000000000604482015290519081900360640190fd5b828181518110612d1e57fe5b6020026020010151602001516001600160601b031660001415612d88576040805162461bcd60e51b815260206004820181905260248201527f526f79616c74792076616c75652073686f756c6420626520706f736974697665604482015290519081900360640190fd5b828181518110612d9457fe5b6020026020010151602001516001600160601b0316820191506101c66000858152602001908152602001600020838281518110612dcd57fe5b60209081029190910181015182546001818101855560009485529383902082519101805492909301516001600160601b0316600160a01b026001600160a01b039182166001600160a01b0319909316929092171617905501612c8a565b506127108110612e6b5760405162461bcd60e51b81526004018080602001828103825260258152602001806153f26025913960400191505060405180910390fd5b61078a83836138c6565b60008281526101fb6020526040812090805b8351811015612fc35760006001600160a01b0316848281518110612ea757fe5b6020026020010151600001516001600160a01b03161415612eda5760405162461bcd60e51b8152600401610c4c90614f2c565b838181518110612ee657fe5b6020026020010151602001516001600160601b031660001415612f1b5760405162461bcd60e51b8152600401610c4c90614ea7565b82848281518110612f2857fe5b602090810291909101810151825460018101845560009384529282902081519301805491909201516001600160601b0316600160a01b026001600160a01b039384166001600160a01b0319909216919091179092169190911790558351612fb990859083908110612f9557fe5b6020026020010151602001516001600160601b031683611ddc90919063ffffffff16565b9150600101612e87565b508061271014612fe55760405162461bcd60e51b8152600401610c4c90614fb4565b7f841ffb90d4cabdd1f16034f3fa831d79060febbb8167bdd54a49269365bdf78f848460405161301692919061500b565b60405180910390a150505050565b61302d82611930565b6130685760405162461bcd60e51b815260040180806020018281038252602c8152602001806152bb602c913960400191505060405180910390fd5b60008281526101c760209081526040909120825161078a92840190614448565b826001600160a01b031661309b8261101a565b6001600160a01b0316146130e05760405162461bcd60e51b81526004018080602001828103825260298152602001806153076029913960400191505060405180910390fd5b6001600160a01b0382166131255760405162461bcd60e51b81526004018080602001828103825260248152602001806151156024913960400191505060405180910390fd5b61313083838361078a565b61313b60008261233d565b6001600160a01b0380841660008181526101006020908152604080832080546000190190559386168083528483208054600101905585835260ff90915283822080546001600160a01b0319168217905592518493929160008051602061538083398151915291a4505050565b6001600160a01b038216600090815261012f602052604081205460ff168061176a575061176a8383613903565b610f72816139a7565b6131e8848484613088565b6131f4848484846139b0565b610c885760405162461bcd60e51b815260040180806020018281038252603281526020018061507a6032913960400191505060405180910390fd5b606061323a82611930565b6132755760405162461bcd60e51b815260040180806020018281038252602f815260200180615351602f913960400191505060405180910390fd5b60008281526101c7602090815260408083208054825160026001831615610100026000190190921691909104601f8101859004850282018501909352828152929091908301828280156133095780601f106132de57610100808354040283529160200191613309565b820191906000526020600020905b8154815290600101906020018083116132ec57829003601f168201915b50505050509050600061331a61106e565b905080516000141561332e57509050610677565b8151156133485761333f8183613b65565b92505050610677565b8061335285613d4a565b6040516020018083805190602001908083835b602083106133845780518252601f199092019160209182019101613365565b51815160209384036101000a600019018019909216911617905285519190930192850191508083835b602083106133cc5780518252601f1990920191602091820191016133ad565b6001836020036101000a0380198251168184511680821785525050505050509050019250505060405160208183030381529060405292505050919050565b6001600160a01b0391821660009081526101026020908152604080832093909416825291909152205460ff1690565b6001600160e01b03198082161415613498576040805162461bcd60e51b815260206004820152601c60248201527f4552433136353a20696e76616c696420696e7465726661636520696400000000604482015290519081900360640190fd5b6001600160e01b0319166000908152606560205260409020805460ff19166001179055565b600054610100900460ff16806134d657506134d66123ac565b806134e4575060005460ff16155b61351f5760405162461bcd60e51b815260040180806020018281038252602e815260200180615212602e913960400191505060405180910390fd5b600054610100900460ff1615801561354a576000805460ff1961ff0019909116610100171660011790555b8251602080850191909120835191840191909120609791909155609855801561078a576000805461ff0019169055505050565b4690565b6102f85490565b8051602091820151604080517f397e04204c1e1a60ee8724b71f8244e10ab5f2e9009854d80f602bda21b59ebb818601526001600160a01b03909316838201526001600160601b039091166060808401919091528151808403909101815260809092019052805191012090565b600061360083613e24565b9050600082516041141561361b576136188284613e2e565b90505b846001600160a01b0316816001600160a01b0316146115ff57613646856001600160a01b0316612337565b156137fc5760408051630b135d3f60e11b808252600482018581526024830193845286516044840152865191936001600160a01b038a1693631626ba7e9388938a9390929091606490910190602085019080838360005b838110156136b557818101518382015260200161369d565b50505050905090810190601f1680156136e25780820380516001836020036101000a031916815260200191505b50935050505060206040518083038186803b15801561370057600080fd5b505afa158015613714573d6000803e3d6000fd5b505050506040513d602081101561372a57600080fd5b505160408051808201909152601c81527f7369676e617475726520766572696669636174696f6e206572726f72000000006020820152916001600160e01b0319909116146137f65760405162461bcd60e51b81526004018080602001828103825283818151815260200191508051906020019080838360005b838110156137bb5781810151838201526020016137a3565b50505050905090810190601f1680156137e85780820380516001836020036101000a031916815260200191505b509250505060405180910390fd5b506115ff565b604080518082018252601c81527f7369676e617475726520766572696669636174696f6e206572726f72000000006020808301918252925162461bcd60e51b815260048101938452825160248201528251929392839260449092019190808383600083156137bb5781810151838201526020016137a3565b61387e8383613eae565b61388b60008484846139b0565b61078a5760405162461bcd60e51b815260040180806020018281038252603281526020018061507a6032913960400191505060405180910390fd5b7f3fa96d7b6bcbfe71ef171666d84db3cf52fa2d1c8afdb1cc8e486177f208b7df82826040516138f792919061500b565b60405180910390a15050565b600061390e82611930565b6139495760405162461bcd60e51b815260040180806020018281038252602c81526020018061515b602c913960400191505060405180910390fd5b60006139548361101a565b9050806001600160a01b0316846001600160a01b0316148061398f5750836001600160a01b031661398484610713565b6001600160a01b0316145b8061399f575061399f818561175e565b949350505050565b610f7281614014565b60006139c4846001600160a01b0316612337565b15613b5a57836001600160a01b031663150b7a026139e0611cc7565b8786866040518563ffffffff1660e01b815260040180856001600160a01b03168152602001846001600160a01b0316815260200183815260200180602001828103825283818151815260200191508051906020019080838360005b83811015613a53578181015183820152602001613a3b565b50505050905090810190601f168015613a805780820380516001836020036101000a031916815260200191505b5095505050505050602060405180830381600087803b158015613aa257600080fd5b505af1925050508015613ac757506040513d6020811015613ac257600080fd5b505160015b613b40573d808015613af5576040519150601f19603f3d011682016040523d82523d6000602084013e613afa565b606091505b508051613b385760405162461bcd60e51b815260040180806020018281038252603281526020018061507a6032913960400191505060405180910390fd5b805181602001fd5b6001600160e01b031916630a85bd0160e11b14905061399f565b506001949350505050565b80518251606091849184911015613c305784846040516020018083805190602001908083835b60208310613baa5780518252601f199092019160209182019101613b8b565b51815160209384036101000a600019018019909216911617905285519190930192850191508083835b60208310613bf25780518252601f199092019160209182019101613bd3565b6001836020036101000a038019825116818451168082178552505050505050905001925050506040516020818303038152906040529250505061176d565b60005b8251811015613d4057828181518110613c4857fe5b602001015160f81c60f81b6001600160f81b031916828281518110613c6957fe5b01602001516001600160f81b03191614613d385785856040516020018083805190602001908083835b60208310613cb15780518252601f199092019160209182019101613c92565b51815160209384036101000a600019018019909216911617905285519190930192850191508083835b60208310613cf95780518252601f199092019160209182019101613cda565b6001836020036101000a03801982511681845116808217855250505050505090500192505050604051602081830303815290604052935050505061176d565b600101613c33565b5092949350505050565b606081613d6f57506040805180820190915260018152600360fc1b6020820152610677565b8160005b8115613d8757600101600a82049150613d73565b6000816001600160401b0381118015613d9f57600080fd5b506040519080825280601f01601f191660200182016040528015613dca576020820181803683370190505b50859350905060001982015b8315613e1b57600a840660300160f81b82828060019003935081518110613df957fe5b60200101906001600160f81b031916908160001a905350600a84049350613dd6565b50949350505050565b60006129d8614054565b60008151604114613e86576040805162461bcd60e51b815260206004820152601f60248201527f45434453413a20696e76616c6964207369676e6174757265206c656e67746800604482015290519081900360640190fd5b60208201516040830151606084015160001a613ea48682858561408f565b9695505050505050565b6001600160a01b038216613f09576040805162461bcd60e51b815260206004820181905260248201527f4552433732313a206d696e7420746f20746865207a65726f2061646472657373604482015290519081900360640190fd5b6000818152610103602052604090205460ff1615613f65576040805162461bcd60e51b81526020600482015260146024820152731d1bdad95b88185b1c9958591e48189d5c9b995960621b604482015290519081900360640190fd5b613f6e81611930565b15613fc0576040805162461bcd60e51b815260206004820152601c60248201527f4552433732313a20746f6b656e20616c7265616479206d696e74656400000000604482015290519081900360640190fd5b613fcc6000838361078a565b6001600160a01b0382166000818152610100602090815260408083208054600101905584835260ff909152902080546001600160a01b0319169091179055610c5f82826142e5565b60008181526101c760205260409020546002600019610100600184161502019091160415610f725760008181526101c760205260408120610f72916144d4565b6000611cd17f8b73c3c69bb8fe3d512ecc4cf759cc79239f7b179b0ffacaa9a75d522b39400f6140826142ef565b61408a6142f5565b6142fb565b60007f7fffffffffffffffffffffffffffffff5d576e7357a4501ddfe92f46681b20a08211156140f05760405162461bcd60e51b81526004018080602001828103825260228152602001806151396022913960400191505060405180910390fd5b6000601e8560ff1611156141ca576004850360ff16601b148061411957506004850360ff16601c145b6141545760405162461bcd60e51b81526004018080602001828103825260228152602001806152406022913960400191505060405180910390fd5b600161415f8761435d565b60048703868660405160008152602001604052604051808581526020018460ff1681526020018381526020018281526020019450505050506020604051602081039080840390855afa1580156141b9573d6000803e3d6000fd5b505050602060405103519050614281565b8460ff16601b14806141df57508460ff16601c145b61421a5760405162461bcd60e51b81526004018080602001828103825260228152602001806152406022913960400191505060405180910390fd5b60018686868660405160008152602001604052604051808581526020018460ff1681526020018381526020018281526020019450505050506020604051602081039080840390855afa158015614274573d6000803e3d6000fd5b5050506020604051035190505b6001600160a01b0381166142dc576040805162461bcd60e51b815260206004820152601860248201527f45434453413a20696e76616c6964207369676e61747572650000000000000000604482015290519081900360640190fd5b95945050505050565b610c5f82826143ae565b60975490565b60985490565b600083838361430861357d565b3060405160200180868152602001858152602001848152602001838152602001826001600160a01b03168152602001955050505050506040516020818303038152906040528051906020012090509392505050565b604080517f19457468657265756d205369676e6564204d6573736167653a0a333200000000602080830191909152603c8083019490945282518083039094018452605c909101909152815191012090565b606081901c6001600160a01b038316811461441d5760405182906001600160a01b03831690600090600080516020615380833981519152908290a481836001600160a01b0316826001600160a01b031660008051602061538083398151915260405160405180910390a461078a565b60405182906001600160a01b03851690600090600080516020615380833981519152908290a4505050565b828054600181600116156101000203166002900490600052602060002090601f01602090048101928261447e57600085556144c4565b82601f1061449757805160ff19168380011785556144c4565b828001600101855582156144c4579182015b828111156144c45782518255916020019190600101906144a9565b506144d0929150614514565b5090565b50805460018160011615610100020316600290046000825580601f106144fa5750610f72565b601f016020900490600052602060002090810190610f7291905b5b808211156144d05760008155600101614515565b803561067781615064565b600082601f830112614544578081fd5b8135602061455961455483615047565b615024565b8281528181019085830183850287018401881015614575578586fd5b855b8581101561459c57813561458a81615064565b84529284019290840190600101614577565b5090979650505050505050565b600082601f8301126145b9578081fd5b813560206145c961455483615047565b82815281810190858301855b8581101561459c576145ec898684358b01016146b9565b845292840192908401906001016145d5565b600082601f83011261460e578081fd5b8135602061461e61455483615047565b8281528181019085830160408086028801850189101561463c578687fd5b865b868110156146ab5781838b031215614654578788fd5b81518281018181106001600160401b038211171561466e57fe5b8352833561467b81615064565b8152838701356001600160601b038116811461469557898afd5b818801528552938501939181019160010161463e565b509198975050505050505050565b600082601f8301126146c9578081fd5b81356001600160401b038111156146dc57fe5b6146ef601f8201601f1916602001615024565b818152846020838601011115614703578283fd5b816020850160208301379081016020019190915292915050565b600060a0828403121561472e578081fd5b61473860a0615024565b90508135815260208201356001600160401b038082111561475857600080fd5b614764858386016146b9565b6020840152604084013591508082111561477d57600080fd5b614789858386016145fe565b604084015260608401359150808211156147a257600080fd5b6147ae858386016145fe565b606084015260808401359150808211156147c757600080fd5b506147d4848285016145a9565b60808301525092915050565b6000602082840312156147f1578081fd5b813561176a81615064565b6000806040838503121561480e578081fd5b823561481981615064565b9150602083013561482981615064565b809150509250929050565b600080600060608486031215614848578081fd5b833561485381615064565b9250602084013561486381615064565b929592945050506040919091013590565b60008060008060808587031215614889578182fd5b843561489481615064565b935060208501356148a481615064565b92506040850135915060608501356001600160401b038111156148c5578182fd5b6148d1878288016146b9565b91505092959194509250565b600080604083850312156148ef578182fd5b82356148fa81615064565b915060208301358015158114614829578182fd5b600080600080600060a08688031215614925578283fd5b853561493081615064565b945060208601356001600160401b0381111561494a578384fd5b614956888289016146b9565b9450506040860135925060608601359150608086013560ff8116811461497a578182fd5b809150509295509295909350565b6000806040838503121561499a578182fd5b82356149a581615064565b946020939093013593505050565b6000602082840312156149c4578081fd5b81356001600160401b038111156149d9578182fd5b61399f84828501614534565b6000602082840312156149f6578081fd5b81356001600160e01b03198116811461176a578182fd5b600060208284031215614a1e578081fd5b81356001600160401b03811115614a33578182fd5b61399f848285016146b9565b600080600080600080600060e0888a031215614a59578485fd5b87356001600160401b0380821115614a6f578687fd5b614a7b8b838c016146b9565b985060208a0135915080821115614a90578687fd5b614a9c8b838c016146b9565b975060408a0135915080821115614ab1578687fd5b614abd8b838c016146b9565b965060608a0135915080821115614ad2578384fd5b50614adf8a828b016146b9565b945050614aee60808901614529565b9250614afc60a08901614529565b9150614b0a60c08901614529565b905092959891949750929550565b600080600080600080600080610100898b031215614b34578182fd5b88356001600160401b0380821115614b4a578384fd5b614b568c838d016146b9565b995060208b0135915080821115614b6b578384fd5b614b778c838d016146b9565b985060408b0135915080821115614b8c578384fd5b614b988c838d016146b9565b975060608b0135915080821115614bad578384fd5b614bb98c838d016146b9565b965060808b0135915080821115614bce578384fd5b50614bdb8b828c01614534565b945050614bea60a08a01614529565b9250614bf860c08a01614529565b9150614c0660e08a01614529565b90509295985092959890939650565b60008060408385031215614c27578182fd5b82356001600160401b03811115614c3c578283fd5b614c488582860161471d565b925050602083013561482981615064565b600080600060608486031215614c6d578081fd5b83356001600160401b03811115614c82578182fd5b614c8e8682870161471d565b9350506020840135614c9f81615064565b91506040840135614caf81615064565b809150509250925092565b600060208284031215614ccb578081fd5b5035919050565b600080600060608486031215614ce6578081fd5b833592506020840135614c9f81615064565b60008060408385031215614d0a578182fd5b50508035926020909101359150565b6000815180845260208085019450808401835b83811015614d6557815180516001600160a01b031688528301516001600160601b03168388015260409096019590820190600101614d2c565b509495945050505050565b60008151808452815b81811015614d9557602081850181015186830182015201614d79565b81811115614da65782602083870101525b50601f01601f19169290920160200192915050565b6001600160a01b0391909116815260200190565b6001600160a01b0384168152606060208201819052600090614df390830185614d70565b8281036040840152613ea48185614d70565b6001600160a01b03929092168252602082015260400190565b60006020825261176a6020830184614d19565b901515815260200190565b60006020825261176a6020830184614d70565b6020808252601190820152703bb937b7339037b93232b91036b0b5b2b960791b604082015260600190565b6020808252601390820152723737ba1037bbb732b91037b91036b4b73a32b960691b604082015260600190565b6020808252818101527f43726561746f722073686172652073686f756c6420626520706f736974697665604082015260600190565b6020808252601190820152701d1bdad95b9259081a5b98dbdc9c9958dd607a1b604082015260600190565b6020808252600b908201526a1b9bdd08185b1b1bddd95960aa1b604082015260600190565b60208082526019908201527f4163636f756e742073686f756c642062652070726573656e7400000000000000604082015260600190565b60208082526031908201527f4552433732313a207472616e736665722063616c6c6572206973206e6f74206f6040820152701ddb995c881b9bdc88185c1c1c9bdd9959607a1b606082015260800190565b6020808252602e908201527f746f74616c20616d6f756e74206f662063726561746f7273207368617265207360408201526d0686f756c642062652031303030360941b606082015260800190565b90815260200190565b60008382526040602083015261399f6040830184614d19565b6040518181016001600160401b038111828210171561503f57fe5b604052919050565b60006001600160401b0382111561505a57fe5b5060209081020190565b6001600160a01b0381168114610f7257600080fdfe4552433732313a207472616e7366657220746f206e6f6e20455243373231526563656976657220696d706c656d656e7465724d6574615472616e73616374696f6e2875696e74323536206e6f6e63652c616464726573732066726f6d2c62797465732066756e6374696f6e5369676e6174757265294f776e61626c653a206e6577206f776e657220697320746865207a65726f20616464726573734552433732313a207472616e7366657220746f20746865207a65726f206164647265737345434453413a20696e76616c6964207369676e6174757265202773272076616c75654552433732313a206f70657261746f7220717565727920666f72206e6f6e6578697374656e7420746f6b656e4552433732313a20617070726f76652063616c6c6572206973206e6f74206f776e6572206e6f7220617070726f76656420666f7220616c6c4552433732313a2062616c616e636520717565727920666f7220746865207a65726f20616464726573734552433732313a206f776e657220717565727920666f72206e6f6e6578697374656e7420746f6b656e496e697469616c697a61626c653a20636f6e747261637420697320616c726561647920696e697469616c697a656445434453413a20696e76616c6964207369676e6174757265202776272076616c75654552433732314275726e61626c653a2063616c6c6572206973206e6f74206f776e65722c206e6f74206275726e4552433732313a20617070726f76656420717565727920666f72206e6f6e6578697374656e7420746f6b656e4552433732314d657461646174613a2055524920736574206f66206e6f6e6578697374656e7420746f6b656e4f776e61626c653a2063616c6c6572206973206e6f7420746865206f776e65724552433732313a207472616e73666572206f6620746f6b656e2074686174206973206e6f74206f776e5369676e657220616e64207369676e617475726520646f206e6f74206d617463684552433732314d657461646174613a2055524920717565727920666f72206e6f6e6578697374656e7420746f6b656eddf252ad1be2c89b69c2b068fc378daa952ba7f163c4a11628f55a4df523b3ef4552433732313a20617070726f76616c20746f2063757272656e74206f776e65724552433732313a207472616e736665722063616c6c6572206973206e6f74206f776e6572206e6f7220617070726f766564526f79616c747920746f74616c2076616c75652073686f756c64206265203c2031303030304552433732314275726e61626c653a2063616c6c6572206973206e6f74206f776e6572206e6f7220617070726f766564a2646970667358221220709ae763376ff0d7033590972fc0dd32eba63a6e8b2dc69cce2799de7b71b56264736f6c63430007060033",
  "immutableReferences": {},
  "source": "// SPDX-License-Identifier: MIT\n\npragma solidity 0.7.6;\npragma abicoder v2;\n\nimport \"@rarible/meta-tx/contracts/EIP712MetaTransaction.sol\";\nimport \"../ERC721BaseMinimal.sol\";\nimport \"../../IsPrivateCollection.sol\";\nimport \"../../access/MinterAccessControl.sol\";\n\ncontract ERC721RaribleMeta is ERC721BaseMinimal, IsPrivateCollection, MinterAccessControl, EIP712MetaTransaction {\n    event CreateERC721Rarible(address owner, string name, string symbol);\n    event CreateERC721RaribleUser(address owner, string name, string symbol);\n\n    function __ERC721RaribleUser_init(string memory _name, string memory _symbol, string memory baseURI, string memory contractURI, address[] memory operators, address transferProxy, address lazyTransferProxy, address subscribeTo) external {\n        __ERC721Rarible_init_unchained(_name, _symbol, baseURI, contractURI, transferProxy, lazyTransferProxy, subscribeTo);\n\n        __MetaTransaction_init_unchained(\"ERC721RaribleUserMeta\", \"1\");\n\n        isPrivate = true;\n\n        emit CreateERC721RaribleUser(_msgSender(), _name, _symbol);\n    }\n\n    function __ERC721Rarible_init(string memory _name, string memory _symbol, string memory baseURI, string memory contractURI, address transferProxy, address lazyTransferProxy, address subscribeTo) external {\n        __ERC721Rarible_init_unchained(_name, _symbol, baseURI, contractURI, transferProxy, lazyTransferProxy, subscribeTo);\n\n        __MetaTransaction_init_unchained(\"ERC721RaribleMeta\", \"1\");\n\n        isPrivate = false;\n\n        emit CreateERC721Rarible(_msgSender(), _name, _symbol);\n    }\n\n    function _msgSender() internal view virtual override(ContextUpgradeable, EIP712MetaTransaction) returns (address payable) {\n        return super._msgSender();\n    }\n\n    function __ERC721Rarible_init_unchained(string memory _name, string memory _symbol, string memory baseURI, string memory contractURI, address transferProxy, address lazyTransferProxy, address subscribeTo) internal initializer {\n        _setBaseURI(baseURI);\n        __ERC721Lazy_init_unchained();\n        __RoyaltiesV2Upgradeable_init_unchained();\n        __Context_init_unchained();\n        __ERC165_init_unchained();\n        __Ownable_init_unchained();\n        __ERC721Burnable_init_unchained();\n        __Mint721Validator_init_unchained();\n        __MinterAccessControl_init_unchained();\n        __HasContractURI_init_unchained(contractURI);\n        __ERC721_init_unchained(_name, _symbol);\n        __OperatorFilterer_init_unchained(subscribeTo);\n\n        //setting default approver for transferProxies\n        _setDefaultApproval(transferProxy, true);\n        _setDefaultApproval(lazyTransferProxy, true);\n    }\n\n    function mintAndTransfer(LibERC721LazyMint.Mint721Data memory data, address to) public override virtual {\n        if (isPrivate){\n            require(owner() == data.creators[0].account || isMinter(data.creators[0].account), \"not owner or minter\");\n        }\n        super.mintAndTransfer(data, to);\n    }\n}\n",
  "sourcePath": "@rarible/tokens/contracts/erc-721-minimal/erc-721-minimal-meta/ERC721RaribleMeta.sol",
  "compiler": {
    "name": "solc",
    "version": "0.7.6+commit.7338295f.Emscripten.clang"
  },
  "schemaVersion": "3.4.3",
  "updatedAt": "2023-09-14T13:22:37.734Z",
  "networkType": "ethereum",
  "devdoc": {
    "kind": "dev",
    "methods": {
      "addMinter(address)": {
        "details": "Add `minter` to the list of allowed minters."
      },
      "addMinters(address[])": {
        "details": "Add `minters` to the list of allowed minters."
      },
      "approve(address,uint256)": {
        "details": "See {IERC721-approve}.      Added modifier ensures that the operator is allowed by the OperatorFilterRegistry."
      },
      "balanceOf(address)": {
        "details": "See {IERC721-balanceOf}."
      },
      "baseURI()": {
        "details": "Returns the base URI set via {_setBaseURI}. This will be automatically added as a prefix in {tokenURI} to each token's URI, or to the token ID if no specific URI is set for that token ID."
      },
      "burn(uint256)": {
        "details": "Burns `tokenId`. See {ERC721-_burn}. Requirements: - The caller must own `tokenId` or be an approved operator."
      },
      "getApproved(uint256)": {
        "details": "See {IERC721-getApproved}."
      },
      "isMinter(address)": {
        "details": "Returns `true` if `account` has been granted to minters."
      },
      "name()": {
        "details": "See {IERC721Metadata-name}."
      },
      "owner()": {
        "details": "Returns the address of the current owner."
      },
      "ownerOf(uint256)": {
        "details": "See {IERC721-ownerOf}."
      },
      "removeMinter(address)": {
        "details": "Revoke `_minter` from the list of allowed minters."
      },
      "renounceOwnership()": {
        "details": "Leaves the contract without owner. It will not be possible to call `onlyOwner` functions anymore. Can only be called by the current owner. NOTE: Renouncing ownership will leave the contract without an owner, thereby removing any functionality that is only available to the owner."
      },
      "safeTransferFrom(address,address,uint256)": {
        "details": "See {IERC721-safeTransferFrom}.      Added modifier ensures that the operator is allowed by the OperatorFilterRegistry."
      },
      "safeTransferFrom(address,address,uint256,bytes)": {
        "details": "See {IERC721-safeTransferFrom}.      Added modifier ensures that the operator is allowed by the OperatorFilterRegistry."
      },
      "setApprovalForAll(address,bool)": {
        "details": "See {IERC721-setApprovalForAll}.      Added modifier ensures that the operator is allowed by the OperatorFilterRegistry."
      },
      "symbol()": {
        "details": "See {IERC721Metadata-symbol}."
      },
      "transferFrom(address,address,uint256)": {
        "details": "See {IERC721-transferFrom}.      Added modifier ensures that the operator is allowed by the OperatorFilterRegistry."
      },
      "transferOwnership(address)": {
        "details": "Transfers ownership of the contract to a new account (`newOwner`). Can only be called by the current owner."
      }
    },
    "version": 1
  },
  "userdoc": {
    "kind": "user",
    "methods": {},
    "version": 1
  }
}