{
  "contractName": "ERC721RaribleFactory",
  "abi": [
    {
      "inputs": [
        {
          "internalType": "contract IBeacon",
          "name": "_beacon",
          "type": "address"
        },
        {
          "internalType": "address",
          "name": "_transferProxy",
          "type": "address"
        },
        {
          "internalType": "address",
          "name": "_lazyTransferProxy",
          "type": "address"
        }
      ],
      "stateMutability": "nonpayable",
      "type": "constructor"
    },
    {
      "anonymous": false,
      "inputs": [
        {
          "indexed": false,
          "internalType": "contract BeaconProxy",
          "name": "proxy",
          "type": "address"
        }
      ],
      "name": "Create721RaribleProxy",
      "type": "event"
    },
    {
      "anonymous": false,
      "inputs": [
        {
          "indexed": false,
          "internalType": "contract BeaconProxy",
          "name": "proxy",
          "type": "address"
        }
      ],
      "name": "Create721RaribleUserProxy",
      "type": "event"
    },
    {
      "anonymous": false,
      "inputs": [
        {
          "indexed": true,
          "internalType": "address",
          "name": "previousOwner",
          "type": "address"
        },
        {
          "indexed": true,
          "internalType": "address",
          "name": "newOwner",
          "type": "address"
        }
      ],
      "name": "OwnershipTransferred",
      "type": "event"
    },
    {
      "inputs": [],
      "name": "beacon",
      "outputs": [
        {
          "internalType": "contract IBeacon",
          "name": "",
          "type": "address"
        }
      ],
      "stateMutability": "view",
      "type": "function"
    },
    {
      "inputs": [],
      "name": "owner",
      "outputs": [
        {
          "internalType": "address",
          "name": "",
          "type": "address"
        }
      ],
      "stateMutability": "view",
      "type": "function"
    },
    {
      "inputs": [],
      "name": "renounceOwnership",
      "outputs": [],
      "stateMutability": "nonpayable",
      "type": "function"
    },
    {
      "inputs": [
        {
          "internalType": "address",
          "name": "newOwner",
          "type": "address"
        }
      ],
      "name": "transferOwnership",
      "outputs": [],
      "stateMutability": "nonpayable",
      "type": "function"
    },
    {
      "inputs": [
        {
          "internalType": "string",
          "name": "_name",
          "type": "string"
        },
        {
          "internalType": "string",
          "name": "_symbol",
          "type": "string"
        },
        {
          "internalType": "string",
          "name": "baseURI",
          "type": "string"
        },
        {
          "internalType": "string",
          "name": "contractURI",
          "type": "string"
        }
      ],
      "name": "createPublicToken",
      "outputs": [],
      "stateMutability": "nonpayable",
      "type": "function"
    },
    {
      "inputs": [
        {
          "internalType": "string",
          "name": "_name",
          "type": "string"
        },
        {
          "internalType": "string",
          "name": "_symbol",
          "type": "string"
        },
        {
          "internalType": "string",
          "name": "baseURI",
          "type": "string"
        },
        {
          "internalType": "string",
          "name": "contractURI",
          "type": "string"
        },
        {
          "internalType": "address[]",
          "name": "operators",
          "type": "address[]"
        }
      ],
      "name": "createPrivateToken",
      "outputs": [],
      "stateMutability": "nonpayable",
      "type": "function"
    }
  ],
  "bytecode": "0x608060405234801561001057600080fd5b5060405161142d38038061142d83398101604081905261002f916100c9565b60006100396100c5565b600080546001600160a01b0319166001600160a01b0383169081178255604051929350917f8be0079c531659141344cd1fd0a4f28419497f9722a3daafe3b4186f6b6457e0908290a350600180546001600160a01b039485166001600160a01b03199182161790915560028054938516938216939093179092556003805491909316911617905561012d565b3390565b6000806000606084860312156100dd578283fd5b83516100e881610115565b60208501519093506100f981610115565b604085015190925061010a81610115565b809150509250925092565b6001600160a01b038116811461012a57600080fd5b50565b6112f18061013c6000396000f3fe60806040523480156200001157600080fd5b50600436106200006a5760003560e01c806329b1c705146200006f57806359659e901462000088578063715018a614620000aa5780638da5cb5b14620000b4578063b96453a814620000be578063f2fde38b14620000d5575b600080fd5b6200008662000080366004620006ea565b620000ec565b005b6200009262000252565b604051620000a19190620008c9565b60405180910390f35b6200008662000261565b6200009262000324565b62000086620000cf3660046200079f565b62000333565b62000086620000e6366004620006c6565b62000486565b600254600354604051600092631ed9cbe360e11b92620001259289928992899289926001600160a01b039081169216906024016200090b565b60408051601f198184030181529181526020820180516001600160e01b03166001600160e01b03199094169390931790925260015491519092506000916001600160a01b03169083906200017990620005a5565b62000186929190620008dd565b604051809103906000f080158015620001a3573d6000803e3d6000fd5b509050806001600160a01b031663f2fde38b620001bf620005a1565b6040518263ffffffff1660e01b8152600401620001dd9190620008c9565b600060405180830381600087803b158015620001f857600080fd5b505af11580156200020d573d6000803e3d6000fd5b505050507fcc1a02f08b4aa92a7d307d9c65aec395a00ed50d5575adbd7447a85dfefdaf9281604051620002429190620008c9565b60405180910390a1505050505050565b6001546001600160a01b031681565b6200026b620005a1565b6001600160a01b03166200027e62000324565b6001600160a01b031614620002da576040805162461bcd60e51b815260206004820181905260248201527f4f776e61626c653a2063616c6c6572206973206e6f7420746865206f776e6572604482015290519081900360640190fd5b600080546040516001600160a01b03909116907f8be0079c531659141344cd1fd0a4f28419497f9722a3daafe3b4186f6b6457e0908390a3600080546001600160a01b0319169055565b6000546001600160a01b031690565b600063c4552e2460e01b86868686866040516024016200035895949392919062000987565b60408051601f198184030181529181526020820180516001600160e01b03166001600160e01b03199094169390931790925260015491519092506000916001600160a01b0316908390620003ac90620005a5565b620003b9929190620008dd565b604051809103906000f080158015620003d6573d6000803e3d6000fd5b509050806001600160a01b031663f2fde38b620003f2620005a1565b6040518263ffffffff1660e01b8152600401620004109190620008c9565b600060405180830381600087803b1580156200042b57600080fd5b505af115801562000440573d6000803e3d6000fd5b505050507f4768a3e06654c109507892e111851106a07f51f57cc0cfc3374a141e03c3f08f81604051620004759190620008c9565b60405180910390a150505050505050565b62000490620005a1565b6001600160a01b0316620004a362000324565b6001600160a01b031614620004ff576040805162461bcd60e51b815260206004820181905260248201527f4f776e61626c653a2063616c6c6572206973206e6f7420746865206f776e6572604482015290519081900360640190fd5b6001600160a01b038116620005465760405162461bcd60e51b8152600401808060200182810382526026815260200180620012966026913960400191505060405180910390fd5b600080546040516001600160a01b03808516939216917f8be0079c531659141344cd1fd0a4f28419497f9722a3daafe3b4186f6b6457e091a3600080546001600160a01b0319166001600160a01b0392909216919091179055565b3390565b6108448062000a5283390190565b80356001600160a01b0381168114620005cb57600080fd5b919050565b600082601f830112620005e1578081fd5b8135602067ffffffffffffffff821115620005f857fe5b8082026200060882820162000a2c565b83815282810190868401838801850189101562000623578687fd5b8693505b8584101562000650576200063b81620005b3565b83526001939093019291840191840162000627565b50979650505050505050565b600082601f8301126200066d578081fd5b813567ffffffffffffffff8111156200068257fe5b62000697601f8201601f191660200162000a2c565b818152846020838601011115620006ac578283fd5b816020850160208301379081016020019190915292915050565b600060208284031215620006d8578081fd5b620006e382620005b3565b9392505050565b6000806000806080858703121562000700578283fd5b843567ffffffffffffffff8082111562000718578485fd5b62000726888389016200065c565b955060208701359150808211156200073c578485fd5b6200074a888389016200065c565b9450604087013591508082111562000760578384fd5b6200076e888389016200065c565b9350606087013591508082111562000784578283fd5b5062000793878288016200065c565b91505092959194509250565b600080600080600060a08688031215620007b7578081fd5b853567ffffffffffffffff80821115620007cf578283fd5b620007dd89838a016200065c565b96506020880135915080821115620007f3578283fd5b6200080189838a016200065c565b9550604088013591508082111562000817578283fd5b6200082589838a016200065c565b945060608801359150808211156200083b578283fd5b6200084989838a016200065c565b935060808801359150808211156200085f578283fd5b506200086e88828901620005d0565b9150509295509295909350565b60008151808452815b81811015620008a25760208185018101518683018201520162000884565b81811115620008b45782602083870101525b50601f01601f19169290920160200192915050565b6001600160a01b0391909116815260200190565b6001600160a01b038316815260406020820181905260009062000903908301846200087b565b949350505050565b600060c082526200092060c08301896200087b565b82810360208401526200093481896200087b565b905082810360408401526200094a81886200087b565b905082810360608401526200096081876200087b565b6001600160a01b0395861660808501529390941660a0909201919091525095945050505050565b600060a082526200099c60a08301886200087b565b602083820381850152620009b182896200087b565b91508382036040850152620009c782886200087b565b91508382036060850152620009dd82876200087b565b84810360808601528551808252828701935090820190845b8181101562000a1c5784516001600160a01b031683529383019391830191600101620009f5565b50909a9950505050505050505050565b60405181810167ffffffffffffffff8111828210171562000a4957fe5b60405291905056fe60806040526040516108443803806108448339818101604052604081101561002657600080fd5b81516020830180516040519294929383019291908464010000000082111561004d57600080fd5b90830190602082018581111561006257600080fd5b825164010000000081118282018810171561007c57600080fd5b82525081516020918201929091019080838360005b838110156100a9578181015183820152602001610091565b50505050905090810190601f1680156100d65780820380516001836020036101000a031916815260200191505b50604052506100e3915050565b6100ed82826100f4565b505061047e565b6101078261024960201b6100311760201c565b6101425760405162461bcd60e51b81526004018080602001828103825260258152602001806107c56025913960400191505060405180910390fd5b6101ba826001600160a01b0316635c60da1b6040518163ffffffff1660e01b815260040160206040518083038186803b15801561017e57600080fd5b505afa158015610192573d6000803e3d6000fd5b505050506040513d60208110156101a857600080fd5b5051610249602090811b61003117901c565b6101f55760405162461bcd60e51b81526004018080602001828103825260348152602001806108106034913960400191505060405180910390fd5b6000805160206107848339815191528281558151156102445761024261021961024f565b836040518060600160405280602181526020016107a4602191396102c260201b6100371760201c565b505b505050565b3b151590565b60006102596103c7565b6001600160a01b0316635c60da1b6040518163ffffffff1660e01b815260040160206040518083038186803b15801561029157600080fd5b505afa1580156102a5573d6000803e3d6000fd5b505050506040513d60208110156102bb57600080fd5b5051905090565b60606102cd84610249565b6103085760405162461bcd60e51b81526004018080602001828103825260268152602001806107ea6026913960400191505060405180910390fd5b600080856001600160a01b0316856040518082805190602001908083835b602083106103455780518252601f199092019160209182019101610326565b6001836020036101000a038019825116818451168082178552505050505050905001915050600060405180830381855af49150503d80600081146103a5576040519150601f19603f3d011682016040523d82523d6000602084013e6103aa565b606091505b5090925090506103bb8282866103da565b925050505b9392505050565b6000805160206107848339815191525490565b606083156103e95750816103c0565b8251156103f95782518084602001fd5b8160405162461bcd60e51b81526004018080602001828103825283818151815260200191508051906020019080838360005b8381101561044357818101518382015260200161042b565b50505050905090810190601f1680156104705780820380516001836020036101000a031916815260200191505b509250505060405180910390fd5b6102f78061048d6000396000f3fe60806040523661001357610011610017565b005b6100115b61001f61002f565b61002f61002a61013b565b6101ae565b565b3b151590565b606061004284610031565b61007d5760405162461bcd60e51b815260040180806020018281038252602681526020018061029c6026913960400191505060405180910390fd5b600080856001600160a01b0316856040518082805190602001908083835b602083106100ba5780518252601f19909201916020918201910161009b565b6001836020036101000a038019825116818451168082178552505050505050905001915050600060405180830381855af49150503d806000811461011a576040519150601f19603f3d011682016040523d82523d6000602084013e61011f565b606091505b509150915061012f8282866101d2565b925050505b9392505050565b6000610145610276565b6001600160a01b0316635c60da1b6040518163ffffffff1660e01b815260040160206040518083038186803b15801561017d57600080fd5b505afa158015610191573d6000803e3d6000fd5b505050506040513d60208110156101a757600080fd5b5051905090565b3660008037600080366000845af43d6000803e8080156101cd573d6000f35b3d6000fd5b606083156101e1575081610134565b8251156101f15782518084602001fd5b8160405162461bcd60e51b81526004018080602001828103825283818151815260200191508051906020019080838360005b8381101561023b578181015183820152602001610223565b50505050905090810190601f1680156102685780820380516001836020036101000a031916815260200191505b509250505060405180910390fd5b7fa3f0ad74e5423aebfd80d3ef4346578335a9a72aeaee59ff6cb3582b35133d50549056fe416464726573733a2064656c65676174652063616c6c20746f206e6f6e2d636f6e7472616374a26469706673582212208d876f4df9e95fb28cbac2f32a1bbbb4e7f39f9d7bb110fc7b5628d98879c2ba64736f6c63430007060033a3f0ad74e5423aebfd80d3ef4346578335a9a72aeaee59ff6cb3582b35133d50426561636f6e50726f78793a2066756e6374696f6e2063616c6c206661696c6564426561636f6e50726f78793a20626561636f6e206973206e6f74206120636f6e7472616374416464726573733a2064656c65676174652063616c6c20746f206e6f6e2d636f6e7472616374426561636f6e50726f78793a20626561636f6e20696d706c656d656e746174696f6e206973206e6f74206120636f6e74726163744f776e61626c653a206e6577206f776e657220697320746865207a65726f2061646472657373a264697066735822122019a249c851dea1f766e2125065eee6d6993d7147ee5a0a1a101ddf4de8850f2764736f6c63430007060033",
  "immutableReferences": {},
  "source": "// SPDX-License-Identifier: MIT\n\npragma solidity >=0.6.2 <0.8.0;\npragma abicoder v2;\n\nimport \"./ERC721Rarible.sol\";\nimport \"@openzeppelin/contracts/proxy/IBeacon.sol\";\nimport \"@openzeppelin/contracts/proxy/BeaconProxy.sol\";\nimport \"@openzeppelin/contracts/access/Ownable.sol\";\n\n/**\n * @dev This contract is for creating proxy to access ERC721Rarible token.\n *\n * The beacon should be initialized before call ERC721RaribleFactory constructor.\n *\n */\ncontract ERC721RaribleFactory is Ownable {\n    IBeacon public beacon;\n    address transferProxy;\n    address lazyTransferProxy;\n\n    event Create721RaribleProxy(BeaconProxy proxy);\n    event Create721RaribleUserProxy(BeaconProxy proxy);\n\n    constructor(IBeacon _beacon, address _transferProxy, address _lazyTransferProxy) {\n        beacon = _beacon;\n        transferProxy = _transferProxy;\n        lazyTransferProxy = _lazyTransferProxy;\n    }\n\n    function createPublicToken(string memory _name, string memory _symbol, string memory baseURI, string memory contractURI) external {\n        bytes memory data = abi.encodeWithSelector(ERC721Rarible(0).__ERC721Rarible_init.selector, _name, _symbol, baseURI, contractURI, transferProxy, lazyTransferProxy);\n        BeaconProxy beaconProxy = new BeaconProxy(address(beacon), data);\n        ERC721Rarible(address(beaconProxy)).transferOwnership(_msgSender());\n        emit Create721RaribleProxy(beaconProxy);\n    }\n\n    function createPrivateToken(string memory _name, string memory _symbol, string memory baseURI, string memory contractURI, address[] memory operators) external {\n        bytes memory data = abi.encodeWithSelector(ERC721Rarible(0).__ERC721RaribleUser_init.selector, _name, _symbol, baseURI, contractURI, operators);\n        BeaconProxy beaconProxy = new BeaconProxy(address(beacon), data);\n        ERC721Rarible(address(beaconProxy)).transferOwnership(_msgSender());\n        emit Create721RaribleUserProxy(beaconProxy);\n    }\n}\n",
  "sourcePath": "@rarible/tokens/contracts/erc-721/ERC721RaribleFactory.sol",
  "compiler": {
    "name": "solc",
    "version": "0.7.6+commit.7338295f.Emscripten.clang"
  },
  "schemaVersion": "3.4.3",
  "updatedAt": "2021-11-10T21:01:59.179Z",
  "devdoc": {
    "details": "This contract is for creating proxy to access ERC721Rarible token. The beacon should be initialized before call ERC721RaribleFactory constructor.",
    "kind": "dev",
    "methods": {
      "owner()": {
        "details": "Returns the address of the current owner."
      },
      "renounceOwnership()": {
        "details": "Leaves the contract without owner. It will not be possible to call `onlyOwner` functions anymore. Can only be called by the current owner. NOTE: Renouncing ownership will leave the contract without an owner, thereby removing any functionality that is only available to the owner."
      },
      "transferOwnership(address)": {
        "details": "Transfers ownership of the contract to a new account (`newOwner`). Can only be called by the current owner."
      }
    },
    "version": 1
  },
  "userdoc": {
    "kind": "user",
    "methods": {},
    "version": 1
  }
}