{
  "contractName": "ExchangeMetaV2",
  "abi": [
    {
      "anonymous": false,
      "inputs": [
        {
          "indexed": false,
          "internalType": "bytes32",
          "name": "hash",
          "type": "bytes32"
        }
      ],
      "name": "Cancel",
      "type": "event"
    },
    {
      "anonymous": false,
      "inputs": [
        {
          "indexed": false,
          "internalType": "bytes32",
          "name": "leftHash",
          "type": "bytes32"
        },
        {
          "indexed": false,
          "internalType": "bytes32",
          "name": "rightHash",
          "type": "bytes32"
        },
        {
          "indexed": false,
          "internalType": "uint256",
          "name": "newLeftFill",
          "type": "uint256"
        },
        {
          "indexed": false,
          "internalType": "uint256",
          "name": "newRightFill",
          "type": "uint256"
        }
      ],
      "name": "Match",
      "type": "event"
    },
    {
      "anonymous": false,
      "inputs": [
        {
          "indexed": true,
          "internalType": "bytes4",
          "name": "assetType",
          "type": "bytes4"
        },
        {
          "indexed": false,
          "internalType": "address",
          "name": "matcher",
          "type": "address"
        }
      ],
      "name": "MatcherChange",
      "type": "event"
    },
    {
      "anonymous": false,
      "inputs": [
        {
          "indexed": false,
          "internalType": "address",
          "name": "userAddress",
          "type": "address"
        },
        {
          "indexed": false,
          "internalType": "address payable",
          "name": "relayerAddress",
          "type": "address"
        },
        {
          "indexed": false,
          "internalType": "bytes",
          "name": "functionSignature",
          "type": "bytes"
        }
      ],
      "name": "MetaTransactionExecuted",
      "type": "event"
    },
    {
      "anonymous": false,
      "inputs": [
        {
          "indexed": true,
          "internalType": "address",
          "name": "previousOwner",
          "type": "address"
        },
        {
          "indexed": true,
          "internalType": "address",
          "name": "newOwner",
          "type": "address"
        }
      ],
      "name": "OwnershipTransferred",
      "type": "event"
    },
    {
      "anonymous": false,
      "inputs": [
        {
          "indexed": false,
          "internalType": "uint256",
          "name": "oldValue",
          "type": "uint256"
        },
        {
          "indexed": false,
          "internalType": "uint256",
          "name": "newValue",
          "type": "uint256"
        }
      ],
      "name": "ProtocolFeeChanged",
      "type": "event"
    },
    {
      "anonymous": false,
      "inputs": [
        {
          "indexed": true,
          "internalType": "bytes4",
          "name": "assetType",
          "type": "bytes4"
        },
        {
          "indexed": false,
          "internalType": "address",
          "name": "proxy",
          "type": "address"
        }
      ],
      "name": "ProxyChange",
      "type": "event"
    },
    {
      "inputs": [
        {
          "components": [
            {
              "internalType": "address",
              "name": "maker",
              "type": "address"
            },
            {
              "components": [
                {
                  "components": [
                    {
                      "internalType": "bytes4",
                      "name": "assetClass",
                      "type": "bytes4"
                    },
                    {
                      "internalType": "bytes",
                      "name": "data",
                      "type": "bytes"
                    }
                  ],
                  "internalType": "struct LibAsset.AssetType",
                  "name": "assetType",
                  "type": "tuple"
                },
                {
                  "internalType": "uint256",
                  "name": "value",
                  "type": "uint256"
                }
              ],
              "internalType": "struct LibAsset.Asset",
              "name": "makeAsset",
              "type": "tuple"
            },
            {
              "internalType": "address",
              "name": "taker",
              "type": "address"
            },
            {
              "components": [
                {
                  "components": [
                    {
                      "internalType": "bytes4",
                      "name": "assetClass",
                      "type": "bytes4"
                    },
                    {
                      "internalType": "bytes",
                      "name": "data",
                      "type": "bytes"
                    }
                  ],
                  "internalType": "struct LibAsset.AssetType",
                  "name": "assetType",
                  "type": "tuple"
                },
                {
                  "internalType": "uint256",
                  "name": "value",
                  "type": "uint256"
                }
              ],
              "internalType": "struct LibAsset.Asset",
              "name": "takeAsset",
              "type": "tuple"
            },
            {
              "internalType": "uint256",
              "name": "salt",
              "type": "uint256"
            },
            {
              "internalType": "uint256",
              "name": "start",
              "type": "uint256"
            },
            {
              "internalType": "uint256",
              "name": "end",
              "type": "uint256"
            },
            {
              "internalType": "bytes4",
              "name": "dataType",
              "type": "bytes4"
            },
            {
              "internalType": "bytes",
              "name": "data",
              "type": "bytes"
            }
          ],
          "internalType": "struct LibOrder.Order",
          "name": "order",
          "type": "tuple"
        }
      ],
      "name": "cancel",
      "outputs": [],
      "stateMutability": "nonpayable",
      "type": "function"
    },
    {
      "inputs": [],
      "name": "defaultFeeReceiver",
      "outputs": [
        {
          "internalType": "address",
          "name": "",
          "type": "address"
        }
      ],
      "stateMutability": "view",
      "type": "function"
    },
    {
      "inputs": [
        {
          "components": [
            {
              "internalType": "uint256",
              "name": "tokenBidAmount",
              "type": "uint256"
            },
            {
              "internalType": "uint256",
              "name": "tokenAcceptAmount",
              "type": "uint256"
            },
            {
              "internalType": "uint256",
              "name": "priceBid",
              "type": "uint256"
            },
            {
              "internalType": "uint256",
              "name": "priceAccept",
              "type": "uint256"
            },
            {
              "internalType": "uint256",
              "name": "salt",
              "type": "uint256"
            },
            {
              "internalType": "address",
              "name": "buyer",
              "type": "address"
            },
            {
              "internalType": "bytes4",
              "name": "nftClass",
              "type": "bytes4"
            },
            {
              "internalType": "bytes",
              "name": "nftData",
              "type": "bytes"
            },
            {
              "internalType": "bytes",
              "name": "paymentData",
              "type": "bytes"
            },
            {
              "internalType": "bytes",
              "name": "bidOrderData",
              "type": "bytes"
            },
            {
              "internalType": "bytes",
              "name": "acceptOrderData",
              "type": "bytes"
            },
            {
              "internalType": "bytes",
              "name": "signature",
              "type": "bytes"
            }
          ],
          "internalType": "struct LibDirectTransfer.AcceptBid",
          "name": "direct",
          "type": "tuple"
        }
      ],
      "name": "directAcceptBid",
      "outputs": [],
      "stateMutability": "payable",
      "type": "function"
    },
    {
      "inputs": [
        {
          "components": [
            {
              "internalType": "uint256",
              "name": "tokenSellAmount",
              "type": "uint256"
            },
            {
              "internalType": "uint256",
              "name": "tokenPurchaseAmount",
              "type": "uint256"
            },
            {
              "internalType": "uint256",
              "name": "priceSell",
              "type": "uint256"
            },
            {
              "internalType": "uint256",
              "name": "pricePurchase",
              "type": "uint256"
            },
            {
              "internalType": "uint256",
              "name": "salt",
              "type": "uint256"
            },
            {
              "internalType": "address",
              "name": "seller",
              "type": "address"
            },
            {
              "internalType": "bytes4",
              "name": "nftClass",
              "type": "bytes4"
            },
            {
              "internalType": "bytes4",
              "name": "paymentClass",
              "type": "bytes4"
            },
            {
              "internalType": "bytes",
              "name": "nftData",
              "type": "bytes"
            },
            {
              "internalType": "bytes",
              "name": "paymentData",
              "type": "bytes"
            },
            {
              "internalType": "bytes",
              "name": "sellOrderData",
              "type": "bytes"
            },
            {
              "internalType": "bytes",
              "name": "purchaseOrderData",
              "type": "bytes"
            },
            {
              "internalType": "bytes",
              "name": "signature",
              "type": "bytes"
            }
          ],
          "internalType": "struct LibDirectTransfer.Purchase",
          "name": "direct",
          "type": "tuple"
        }
      ],
      "name": "directPurchase",
      "outputs": [],
      "stateMutability": "payable",
      "type": "function"
    },
    {
      "inputs": [
        {
          "internalType": "address",
          "name": "userAddress",
          "type": "address"
        },
        {
          "internalType": "bytes",
          "name": "functionSignature",
          "type": "bytes"
        },
        {
          "internalType": "bytes32",
          "name": "sigR",
          "type": "bytes32"
        },
        {
          "internalType": "bytes32",
          "name": "sigS",
          "type": "bytes32"
        },
        {
          "internalType": "uint8",
          "name": "sigV",
          "type": "uint8"
        }
      ],
      "name": "executeMetaTransaction",
      "outputs": [
        {
          "internalType": "bytes",
          "name": "",
          "type": "bytes"
        }
      ],
      "stateMutability": "payable",
      "type": "function"
    },
    {
      "inputs": [
        {
          "internalType": "address",
          "name": "",
          "type": "address"
        }
      ],
      "name": "feeReceivers",
      "outputs": [
        {
          "internalType": "address",
          "name": "",
          "type": "address"
        }
      ],
      "stateMutability": "view",
      "type": "function"
    },
    {
      "inputs": [
        {
          "internalType": "bytes32",
          "name": "",
          "type": "bytes32"
        }
      ],
      "name": "fills",
      "outputs": [
        {
          "internalType": "uint256",
          "name": "",
          "type": "uint256"
        }
      ],
      "stateMutability": "view",
      "type": "function"
    },
    {
      "inputs": [
        {
          "internalType": "address",
          "name": "user",
          "type": "address"
        }
      ],
      "name": "getNonce",
      "outputs": [
        {
          "internalType": "uint256",
          "name": "nonce",
          "type": "uint256"
        }
      ],
      "stateMutability": "view",
      "type": "function"
    },
    {
      "inputs": [
        {
          "components": [
            {
              "internalType": "address",
              "name": "maker",
              "type": "address"
            },
            {
              "components": [
                {
                  "components": [
                    {
                      "internalType": "bytes4",
                      "name": "assetClass",
                      "type": "bytes4"
                    },
                    {
                      "internalType": "bytes",
                      "name": "data",
                      "type": "bytes"
                    }
                  ],
                  "internalType": "struct LibAsset.AssetType",
                  "name": "assetType",
                  "type": "tuple"
                },
                {
                  "internalType": "uint256",
                  "name": "value",
                  "type": "uint256"
                }
              ],
              "internalType": "struct LibAsset.Asset",
              "name": "makeAsset",
              "type": "tuple"
            },
            {
              "internalType": "address",
              "name": "taker",
              "type": "address"
            },
            {
              "components": [
                {
                  "components": [
                    {
                      "internalType": "bytes4",
                      "name": "assetClass",
                      "type": "bytes4"
                    },
                    {
                      "internalType": "bytes",
                      "name": "data",
                      "type": "bytes"
                    }
                  ],
                  "internalType": "struct LibAsset.AssetType",
                  "name": "assetType",
                  "type": "tuple"
                },
                {
                  "internalType": "uint256",
                  "name": "value",
                  "type": "uint256"
                }
              ],
              "internalType": "struct LibAsset.Asset",
              "name": "takeAsset",
              "type": "tuple"
            },
            {
              "internalType": "uint256",
              "name": "salt",
              "type": "uint256"
            },
            {
              "internalType": "uint256",
              "name": "start",
              "type": "uint256"
            },
            {
              "internalType": "uint256",
              "name": "end",
              "type": "uint256"
            },
            {
              "internalType": "bytes4",
              "name": "dataType",
              "type": "bytes4"
            },
            {
              "internalType": "bytes",
              "name": "data",
              "type": "bytes"
            }
          ],
          "internalType": "struct LibOrder.Order",
          "name": "orderLeft",
          "type": "tuple"
        },
        {
          "internalType": "bytes",
          "name": "signatureLeft",
          "type": "bytes"
        },
        {
          "components": [
            {
              "internalType": "address",
              "name": "maker",
              "type": "address"
            },
            {
              "components": [
                {
                  "components": [
                    {
                      "internalType": "bytes4",
                      "name": "assetClass",
                      "type": "bytes4"
                    },
                    {
                      "internalType": "bytes",
                      "name": "data",
                      "type": "bytes"
                    }
                  ],
                  "internalType": "struct LibAsset.AssetType",
                  "name": "assetType",
                  "type": "tuple"
                },
                {
                  "internalType": "uint256",
                  "name": "value",
                  "type": "uint256"
                }
              ],
              "internalType": "struct LibAsset.Asset",
              "name": "makeAsset",
              "type": "tuple"
            },
            {
              "internalType": "address",
              "name": "taker",
              "type": "address"
            },
            {
              "components": [
                {
                  "components": [
                    {
                      "internalType": "bytes4",
                      "name": "assetClass",
                      "type": "bytes4"
                    },
                    {
                      "internalType": "bytes",
                      "name": "data",
                      "type": "bytes"
                    }
                  ],
                  "internalType": "struct LibAsset.AssetType",
                  "name": "assetType",
                  "type": "tuple"
                },
                {
                  "internalType": "uint256",
                  "name": "value",
                  "type": "uint256"
                }
              ],
              "internalType": "struct LibAsset.Asset",
              "name": "takeAsset",
              "type": "tuple"
            },
            {
              "internalType": "uint256",
              "name": "salt",
              "type": "uint256"
            },
            {
              "internalType": "uint256",
              "name": "start",
              "type": "uint256"
            },
            {
              "internalType": "uint256",
              "name": "end",
              "type": "uint256"
            },
            {
              "internalType": "bytes4",
              "name": "dataType",
              "type": "bytes4"
            },
            {
              "internalType": "bytes",
              "name": "data",
              "type": "bytes"
            }
          ],
          "internalType": "struct LibOrder.Order",
          "name": "orderRight",
          "type": "tuple"
        },
        {
          "internalType": "bytes",
          "name": "signatureRight",
          "type": "bytes"
        }
      ],
      "name": "matchOrders",
      "outputs": [],
      "stateMutability": "payable",
      "type": "function"
    },
    {
      "inputs": [],
      "name": "owner",
      "outputs": [
        {
          "internalType": "address",
          "name": "",
          "type": "address"
        }
      ],
      "stateMutability": "view",
      "type": "function"
    },
    {
      "inputs": [],
      "name": "protocolFee",
      "outputs": [
        {
          "internalType": "uint256",
          "name": "",
          "type": "uint256"
        }
      ],
      "stateMutability": "view",
      "type": "function"
    },
    {
      "inputs": [],
      "name": "renounceOwnership",
      "outputs": [],
      "stateMutability": "nonpayable",
      "type": "function"
    },
    {
      "inputs": [],
      "name": "royaltiesRegistry",
      "outputs": [
        {
          "internalType": "contract IRoyaltiesProvider",
          "name": "",
          "type": "address"
        }
      ],
      "stateMutability": "view",
      "type": "function"
    },
    {
      "inputs": [
        {
          "internalType": "bytes4",
          "name": "assetType",
          "type": "bytes4"
        },
        {
          "internalType": "address",
          "name": "matcher",
          "type": "address"
        }
      ],
      "name": "setAssetMatcher",
      "outputs": [],
      "stateMutability": "nonpayable",
      "type": "function"
    },
    {
      "inputs": [
        {
          "internalType": "address payable",
          "name": "newDefaultFeeReceiver",
          "type": "address"
        }
      ],
      "name": "setDefaultFeeReceiver",
      "outputs": [],
      "stateMutability": "nonpayable",
      "type": "function"
    },
    {
      "inputs": [
        {
          "internalType": "address",
          "name": "token",
          "type": "address"
        },
        {
          "internalType": "address",
          "name": "wallet",
          "type": "address"
        }
      ],
      "name": "setFeeReceiver",
      "outputs": [],
      "stateMutability": "nonpayable",
      "type": "function"
    },
    {
      "inputs": [
        {
          "internalType": "uint64",
          "name": "_protocolFee",
          "type": "uint64"
        }
      ],
      "name": "setProtocolFee",
      "outputs": [],
      "stateMutability": "nonpayable",
      "type": "function"
    },
    {
      "inputs": [
        {
          "internalType": "contract IRoyaltiesProvider",
          "name": "newRoyaltiesRegistry",
          "type": "address"
        }
      ],
      "name": "setRoyaltiesRegistry",
      "outputs": [],
      "stateMutability": "nonpayable",
      "type": "function"
    },
    {
      "inputs": [
        {
          "internalType": "bytes4",
          "name": "assetType",
          "type": "bytes4"
        },
        {
          "internalType": "address",
          "name": "proxy",
          "type": "address"
        }
      ],
      "name": "setTransferProxy",
      "outputs": [],
      "stateMutability": "nonpayable",
      "type": "function"
    },
    {
      "inputs": [
        {
          "internalType": "address",
          "name": "newOwner",
          "type": "address"
        }
      ],
      "name": "transferOwnership",
      "outputs": [],
      "stateMutability": "nonpayable",
      "type": "function"
    },
    {
      "inputs": [
        {
          "internalType": "address",
          "name": "_transferProxy",
          "type": "address"
        },
        {
          "internalType": "address",
          "name": "_erc20TransferProxy",
          "type": "address"
        },
        {
          "internalType": "uint256",
          "name": "newProtocolFee",
          "type": "uint256"
        },
        {
          "internalType": "address",
          "name": "newDefaultFeeReceiver",
          "type": "address"
        },
        {
          "internalType": "contract IRoyaltiesProvider",
          "name": "newRoyaltiesProvider",
          "type": "address"
        }
      ],
      "name": "__ExchangeV2_init",
      "outputs": [],
      "stateMutability": "nonpayable",
      "type": "function"
    }
  ],
  "bytecode": "0x608060405234801561001057600080fd5b50615f3180620000216000396000f3fe60806040526004361061012a5760003560e01c806343bc42d3116100ab578063b39deb461161006f578063b39deb46146102f0578063e2864fe314610310578063e66db25e14610330578063e92b100414610350578063e99a3f8014610363578063f2fde38b146103765761012a565b806343bc42d31461027c5780636d8f06941461029c578063715018a6146102b15780638da5cb5b146102c6578063b0e21e8a146102db5761012a565b80632d0335ab116100f25780632d0335ab146101f457806330c642f1146102145780633abf6fd4146102345780633be89922146102495780634271d47d146102695761012a565b806302097ab11461012f5780630c53c51c146101655780631372a625146101855780631cdfe3d8146101a757806320158c44146101c7575b600080fd5b34801561013b57600080fd5b5061014f61014a366004614f9a565b610396565b60405161015c91906157e4565b60405180910390f35b61017861017336600461528e565b6103b2565b60405161015c9190615891565b34801561019157600080fd5b506101a56101a0366004615227565b61072b565b005b3480156101b357600080fd5b506101a56101c2366004614f9a565b610848565b3480156101d357600080fd5b506101e76101e2366004615346565b6108cd565b60405161015c919061586d565b34801561020057600080fd5b506101e761020f366004614f9a565b6108e0565b34801561022057600080fd5b506101a561022f36600461537a565b6108fc565b34801561024057600080fd5b5061014f6109cc565b34801561025557600080fd5b506101a5610264366004614f9a565b6109dc565b6101a5610277366004615397565b610a61565b34801561028857600080fd5b506101a5610297366004615769565b610d52565b3480156102a857600080fd5b5061014f610dff565b3480156102bd57600080fd5b506101a5610e0f565b3480156102d257600080fd5b5061014f610ebb565b3480156102e757600080fd5b506101e7610ecb565b3480156102fc57600080fd5b506101a561030b36600461537a565b610ed2565b34801561031c57600080fd5b506101a561032b366004615658565b610f96565b34801561033c57600080fd5b506101a561034b3660046151ef565b611057565b6101a561035e366004615731565b6110e8565b6101a561037136600461568a565b61138e565b34801561038257600080fd5b506101a5610391366004614f9a565b6113aa565b610164602052600090815260409020546001600160a01b031681565b606060006103bf866114ad565b90506000356001600160e01b03199081169082161415610426576040805162461bcd60e51b815260206004820152601760248201527f57726f6e672066756e6374696f6e5369676e6174757265000000000000000000604482015290519081900360640190fd5b604080516060810182526001600160a01b038916600081815261019360209081529084902054835282015290810187905261046488828888886114cd565b61049f5760405162461bcd60e51b8152600401808060200182810382526021815260200180615edb6021913960400191505060405180910390fd5b6001600160a01b038816600090815261019360205260409020546104c49060016115b7565b61019360008a6001600160a01b03166001600160a01b0316815260200190815260200160002081905550600080306001600160a01b0316898b6040516020018083805190602001908083835b6020831061052f5780518252601f199092019160209182019101610510565b6001836020036101000a038019825116818451168082178552505050505050905001826001600160a01b031660601b8152601401925050506040516020818303038152906040526040518082805190602001908083835b602083106105a55780518252601f199092019160209182019101610586565b6001836020036101000a0380198251168184511680821785525050505050509050019150506000604051808303816000865af19150503d8060008114610607576040519150601f19603f3d011682016040523d82523d6000602084013e61060c565b606091505b509150915081610663576040805162461bcd60e51b815260206004820152601c60248201527f46756e6374696f6e2063616c6c206e6f74207375636365737366756c00000000604482015290519081900360640190fd5b7f5845892132946850460bff5a0083f71031bc5bf9aadcd40f1de79423eac9b10b8a338b60405180846001600160a01b03168152602001836001600160a01b0316815260200180602001828103825283818151815260200191508051906020019080838360005b838110156106e25781810151838201526020016106ca565b50505050905090810190601f16801561070f5780820380516001836020036101000a031916815260200191505b5094505050505060405180910390a19998505050505050505050565b600054610100900460ff1680610744575061074461161a565b80610752575060005460ff16155b61078d5760405162461bcd60e51b815260040180806020018281038252602e815260200180615e4a602e913960400191505060405180910390fd5b600054610100900460ff161580156107b8576000805460ff1961ff0019909116610100171660011790555b6107c061162b565b6107c86116cd565b6107d06117c6565b6108196040518060400160405280600e81526020016d22bc31b430b733b2a6b2ba30ab1960911b815250604051806040016040528060018152602001603160f81b815250611896565b6108238686611926565b61082e8484846119d0565b8015610840576000805461ff00191690555b505050505050565b610850611aac565b6001600160a01b0316610861610ebb565b6001600160a01b0316146108aa576040805162461bcd60e51b81526020600482018190526024820152600080516020615ebb833981519152604482015290519081900360640190fd5b61016380546001600160a01b0319166001600160a01b0392909216919091179055565b61012f6020526000908152604090205481565b6001600160a01b03166000908152610193602052604090205490565b610904611aac565b6001600160a01b0316610915610ebb565b6001600160a01b03161461095e576040805162461bcd60e51b81526020600482018190526024820152600080516020615ebb833981519152604482015290519081900360640190fd5b6001600160e01b031982166000818152609760205260409081902080546001600160a01b0319166001600160a01b038516179055517f4b5aced933c0c9a88aeac3f0b3b72c5aaf75df8ebaf53225773248c4c3153593906109c09084906157e4565b60405180910390a25050565b610163546001600160a01b031681565b6109e4611aac565b6001600160a01b03166109f5610ebb565b6001600160a01b031614610a3e576040805162461bcd60e51b81526020600482018190526024820152600080516020615ebb833981519152604482015290519081900360640190fd5b61016280546001600160a01b0319166001600160a01b0392909216919091179055565b600060405180604001604052808360c0016020810190610a81919061535e565b6001600160e01b0319168152602001610a9d60e0850185615c75565b8080601f0160208091040260200160405190810160405280939291908181526020018383808284376000920182905250939094525050604080518082019091526322ba176160e21b815292935091905060208101610aff610100860186615c75565b8080601f01602080910402602001604051908101604052809392919081815260200183838082843760009201829052509390945250506040805180820182528681528735602080830191909152825180840184528881528982013581830152835180850185528781528a850135818401528451808601865288815260608c0135938101939093528451610120810190955296975091959194509092909180610bad60c08b0160a08c01614f9a565b6001600160a01b03168152602081018590526000604082018190526060820188905260808b8101359083015260a0820181905260c0820152630d8c66fb60e11b60e082015261010001610c046101208b018b615c75565b8080601f016020809104026020016040519081016040528093929190818152602001838380828437600092018290525093909452505060408051610120810190915292935091905080610c55611aac565b6001600160a01b0316815260208101879052600060408201819052606082018690526080820181905260a0820181905260c0820152632fa3cfd360e01b60e082015261010001610ca96101408c018c615c75565b8080601f01602080910402602001604051908101604052809392919081815260200183838082843760009201919091525050509152509050610d3d82610cf36101608c018c615c75565b8080601f016020809104026020016040519081016040528093929190818152602001838380828437600092018290525060408051602081019091529081528793509150611abb9050565b610d478282611b67565b505050505050505050565b610d5a611aac565b6001600160a01b0316610d6b610ebb565b6001600160a01b031614610db4576040805162461bcd60e51b81526020600482018190526024820152600080516020615ebb833981519152604482015290519081900360640190fd5b7fb51bef650ff5ad43303dbe2e500a74d4fd1bdc9ae05f046bece330e82ae0ba876101615482604051610de8929190615c5e565b60405180910390a16001600160401b031661016155565b610162546001600160a01b031681565b610e17611aac565b6001600160a01b0316610e28610ebb565b6001600160a01b031614610e71576040805162461bcd60e51b81526020600482018190526024820152600080516020615ebb833981519152604482015290519081900360640190fd5b6033546040516000916001600160a01b0316907f8be0079c531659141344cd1fd0a4f28419497f9722a3daafe3b4186f6b6457e0908390a3603380546001600160a01b0319169055565b6033546001600160a01b03165b90565b6101615481565b610eda611aac565b6001600160a01b0316610eeb610ebb565b6001600160a01b031614610f34576040805162461bcd60e51b81526020600482018190526024820152600080516020615ebb833981519152604482015290519081900360640190fd5b6001600160e01b031982166000818152606560205260409081902080546001600160a01b0319166001600160a01b038516179055517fd2bf91075f105d0fd80328da28e20ebdad1c1261839711183bc29a44cbe6c72f906109c09084906157e4565b80516001600160a01b0316610fa9611aac565b6001600160a01b031614610fd85760405162461bcd60e51b8152600401610fcf90615bce565b60405180910390fd5b6080810151610ff95760405162461bcd60e51b8152600401610fcf9061597f565b600061100482611dd7565b600081815261012f6020526040908190206000199055519091507fe8d9861dbc9c663ed3accd261bbe2fe01e0d3d9e5f51fa38523b265c7757a93a9061104b90839061586d565b60405180910390a15050565b61105f611aac565b6001600160a01b0316611070610ebb565b6001600160a01b0316146110b9576040805162461bcd60e51b81526020600482018190526024820152600080516020615ebb833981519152604482015290519081900360640190fd5b6001600160a01b0391821660009081526101646020526040902080546001600160a01b03191691909216179055565b600060405180604001604052808360c0016020810190611108919061535e565b6001600160e01b0319168152602001611125610100850185615c75565b8080601f0160208091040260200160405190810160405280939291908181526020018383808284376000920182905250939094525050604080518082019091529293509190508061117d610100860160e0870161535e565b6001600160e01b031916815260200161119a610120860186615c75565b8080601f01602080910402602001604051908101604052809392919081815260200183838082843760009201829052509390945250506040805180820182528681528735602080830191909152825180840184528881528982013581830152835180850185528781528a850135818401528451808601865288815260608c013593810193909352845161012081019095529697509195919450909290918061124860c08b0160a08c01614f9a565b6001600160a01b03168152602081018790526000604082018190526060820186905260808b8101359083015260a0820181905260c0820152632fa3cfd360e01b60e08201526101000161129f6101408b018b615c75565b8080601f0160208091040260200160405190810160405280939291908181526020018383808284376000920182905250939094525050604080516101208101909152929350919050806112f0611aac565b6001600160a01b0316815260208101859052600060408201819052606082018890526080820181905260a0820181905260c0820152630d8c66fb60e11b60e0820152610100016113446101608c018c615c75565b8080601f01602080910402602001604051908101604052809392919081815260200183838082843760009201919091525050509152509050610d3d82610cf36101808c018c615c75565b61139a84848484611abb565b6113a48483611b67565b50505050565b6113b2611aac565b6001600160a01b03166113c3610ebb565b6001600160a01b03161461140c576040805162461bcd60e51b81526020600482018190526024820152600080516020615ebb833981519152604482015290519081900360640190fd5b6001600160a01b0381166114515760405162461bcd60e51b8152600401808060200182810382526026815260200180615db56026913960400191505060405180910390fd5b6033546040516001600160a01b038084169216907f8be0079c531659141344cd1fd0a4f28419497f9722a3daafe3b4186f6b6457e090600090a3603380546001600160a01b0319166001600160a01b0392909216919091179055565b60008151600014156114c1575060006114c8565b5060208101515b919050565b60008060016114e36114de88611f5f565b611fe2565b84878760405160008152602001604052604051808581526020018460ff1681526020018381526020018281526020019450505050506020604051602081039080840390855afa15801561153a573d6000803e3d6000fd5b5050604051601f1901519150506001600160a01b038116611596576040805162461bcd60e51b8152602060048201526011602482015270496e76616c6964207369676e617475726560781b604482015290519081900360640190fd5b866001600160a01b0316816001600160a01b03161491505095945050505050565b600082820183811015611611576040805162461bcd60e51b815260206004820152601b60248201527f536166654d6174683a206164646974696f6e206f766572666c6f770000000000604482015290519081900360640190fd5b90505b92915050565b60006116253061202e565b15905090565b600054610100900460ff1680611644575061164461161a565b80611652575060005460ff16155b61168d5760405162461bcd60e51b815260040180806020018281038252602e815260200180615e4a602e913960400191505060405180910390fd5b600054610100900460ff161580156116b8576000805460ff1961ff0019909116610100171660011790555b80156116ca576000805461ff00191690555b50565b600054610100900460ff16806116e657506116e661161a565b806116f4575060005460ff16155b61172f5760405162461bcd60e51b815260040180806020018281038252602e815260200180615e4a602e913960400191505060405180910390fd5b600054610100900460ff1615801561175a576000805460ff1961ff0019909116610100171660011790555b6000611764611aac565b603380546001600160a01b0319166001600160a01b038316908117909155604051919250906000907f8be0079c531659141344cd1fd0a4f28419497f9722a3daafe3b4186f6b6457e0908290a35080156116ca576000805461ff001916905550565b600054610100900460ff16806117df57506117df61161a565b806117ed575060005460ff16155b6118285760405162461bcd60e51b815260040180806020018281038252602e815260200180615e4a602e913960400191505060405180910390fd5b600054610100900460ff16158015611853576000805460ff1961ff0019909116610100171660011790555b6116b86040518060400160405280600881526020016745786368616e676560c01b815250604051806040016040528060018152602001601960f91b815250612034565b7f36c25de3e541d5d970f66e4210d728721220fff5c077cc6cd008b3a0c62adab782805190602001208280519060200120306118d06120f5565b60405160200180868152602001858152602001848152602001836001600160a01b031681526020018281526020019550505050505060405160208183030381529060405280519060200120610194819055505050565b60976020527f4532fa16f071d6234e30e1a1e69b9806f04095edf37a1ca7a25c8d6af7861cc080546001600160a01b039283166001600160a01b0319918216179091557f30a684095c937b5aa064dcf94f9903a7d808e3efb22d8389dbd43080ad4ed3d5805493909216928116831790915563025ceed960e61b6000527f4b5822151ea34b7c8d9e37c3e466bcecb631efe6a9f26a4a4054110a93dd316f80549091169091179055565b600054610100900460ff16806119e957506119e961161a565b806119f7575060005460ff16155b611a325760405162461bcd60e51b815260040180806020018281038252602e815260200180615e4a602e913960400191505060405180910390fd5b600054610100900460ff16158015611a5d576000805460ff1961ff0019909116610100171660011790555b61016184905561016380546001600160a01b038086166001600160a01b03199283161790925561016280549285169290911691909117905580156113a4576000805461ff001916905550505050565b6000611ab66120ff565b905090565b611ac5848461215b565b611acf828261215b565b60408401516001600160a01b031615611b1b5783604001516001600160a01b031682600001516001600160a01b031614611b1b5760405162461bcd60e51b8152600401610fcf90615b63565b60408201516001600160a01b0316156113a45783600001516001600160a01b031682604001516001600160a01b0316146113a45760405162461bcd60e51b8152600401610fcf90615a67565b600080611b748484612172565b915091506000611b838561220b565b90506000611b908561220b565b90506000611ba88787856040015185604001516123f4565b9050600080611d096040518060a0016040528060405180604001604052808b8152602001876000015181525081526020018760000151815260200187602001518152602001609760008b600001516001600160e01b0319166001600160e01b031916815260200190815260200160002060009054906101000a90046001600160a01b03166001600160a01b031681526020018b600001516001600160a01b03168152506040518060a0016040528060405180604001604052808b8152602001886020015181525081526020018760000151815260200187602001518152602001609760008b600001516001600160e01b0319166001600160e01b031916815260200190815260200160002060009054906101000a90046001600160a01b03166001600160a01b031681526020018b600001516001600160a01b0316815250611d048a600001518a600001518e60e001518e60e001518c8c612574565b6125d7565b885191935091506001600160e01b0319166355575f5d60e11b1415611d885785516001600160e01b0319166355575f5d60e11b1415611d4757600080fd5b81341015611d675760405162461bcd60e51b8152600401610fcf90615ba6565b81341115611d8357611d83611d7c34846126e6565b3390612743565b610d47565b85516001600160e01b0319166355575f5d60e11b1415610d475780341015611dc25760405162461bcd60e51b8152600401610fcf90615ba6565b80341115610d4757610d47611d7c34836126e6565b60e08101516000906001600160e01b031916632611a13360e11b1480611e0b575060e08201516001600160e01b0319908116145b15611e80578151602083015151611e21906127db565b606084015151611e30906127db565b846080015160405160200180856001600160a01b031681526020018481526020018381526020018281526020019450505050506040516020818303038152906040528051906020012090506114c8565b8151602083015151611e91906127db565b606084015151611ea0906127db565b846080015185610100015160405160200180866001600160a01b0316815260200185815260200184815260200183815260200180602001828103825283818151815260200191508051906020019080838360005b83811015611f0c578181015183820152602001611ef4565b50505050905090810190601f168015611f395780820380516001836020036101000a031916815260200191505b5096505050505050506040516020818303038152906040528051906020012090506114c8565b6000604051806080016040528060438152602001615d7260439139805190602001208260000151836020015184604001518051906020012060405160200180858152602001848152602001836001600160a01b03168152602001828152602001945050505050604051602081830303815290604052805190602001209050919050565b6000611fec612845565b82604051602001808061190160f01b81525060020183815260200182815260200192505050604051602081830303815290604052805190602001209050919050565b3b151590565b600054610100900460ff168061204d575061204d61161a565b8061205b575060005460ff16155b6120965760405162461bcd60e51b815260040180806020018281038252602e815260200180615e4a602e913960400191505060405180910390fd5b600054610100900460ff161580156120c1576000805460ff1961ff0019909116610100171660011790555b825160208085019190912083519184019190912060c99190915560ca5580156120f0576000805461ff00191690555b505050565b6000611ab661284c565b60003330141561215657600080368080601f0160208091040260200160405190810160405280939291908181526020018383808284376000920191909152505050503601516001600160a01b03169150610ec89050565b503390565b61216482612850565b61216e828261291a565b5050565b61217a614af1565b612182614af1565b6020840151516060840151516121989190612bef565b80519092506001600160e01b0319166121c35760405162461bcd60e51b8152600401610fcf90615b37565b6060840151516020840151516121d99190612bef565b80519091506001600160e01b0319166122045760405162461bcd60e51b8152600401610fcf90615b37565b9250929050565b612213614b09565b60e08201516001600160e01b031916632611a13360e11b1415612254576000612240836101000151612c2f565b8051835260209081015190830152506123db565b60e08201516001600160e01b0319166323d235ef60e01b14156122a1576000612281836101000151612c4b565b8051835260208082015190840152604090810151151590830152506123db565b60e08201516001600160e01b031916632fa3cfd360e01b141561230e5760006122ce836101000151612c67565b90506122dd8160000151612c83565b8252602081015160408201516122f39190612ce5565b602083015260016040830152606090810151908201526123db565b60e08201516001600160e01b031916630d8c66fb60e11b141561237257600061233b836101000151612e48565b905061234a8160000151612c83565b8252602081015160408201516123609190612ce5565b602083015250600060408201526123db565b60e08201516001600160e01b0319908116141561238e576123db565b6040805162461bcd60e51b815260206004820152601760248201527f556e6b6e6f776e204f7264657220646174612074797065000000000000000000604482015290519081900360640190fd5b8051516114c85781516123ed90612e64565b8152919050565b6123fc614b33565b600061240786611dd7565b9050600061241486611dd7565b90506000612426886080015184612eff565b90506000612438886080015184612eff565b9050600061244a8a8a85858c8c612f24565b9050600081602001511180156124605750805115155b61247c5760405162461bcd60e51b8152600401610fcf90615ad7565b60808a0151156124cf5787156124ae5780516124999084906115b7565b600086815261012f60205260409020556124cf565b60208101516124be9084906115b7565b600086815261012f60205260409020555b6080890151156125225786156125045760208101516124ef9083906115b7565b600085815261012f6020526040902055612522565b80516125119083906115b7565b600085815261012f60205260409020555b602081015181516040517f956cd63ee4cdcd81fda5f0ec7c6c36dceda99e1b412f4a650a5d26055dc3c4509261255d92899289929190615876565b60405180910390a19450505050505b949350505050565b61257c614b4d565b61258585612fac565b81526125918787612ff9565b816040019060028111156125a157fe5b908160028111156125ae57fe5b815250506125c885858585856040015186600001516130ca565b60208201529695505050505050565b82516020908101518351909101516001836040015160028111156125f757fe5b141561264157612611858585600001518660200151613280565b915061263c8460000151600001518560000151602001518660800151886020015188606001516134fc565b6126de565b60028360400151600281111561265357fe5b14156126985761266d848685600001518660200151613280565b905061263c8560000151600001518660000151602001518760800151876020015189606001516134fc565b8451805160209182015160808801519287015160608901516126bb9491906134fc565b8351805160209182015160808701519288015160608801516126de9491906134fc565b935093915050565b60008282111561273d576040805162461bcd60e51b815260206004820152601e60248201527f536166654d6174683a207375627472616374696f6e206f766572666c6f770000604482015290519081900360640190fd5b50900390565b6040516000906001600160a01b0384169083908381818185875af1925050503d806000811461278e576040519150601f19603f3d011682016040523d82523d6000602084013e612793565b606091505b50509050806120f0576040805162461bcd60e51b815260206004820152600f60248201526e1d1c985b9cd9995c8819985a5b1959608a1b604482015290519081900360640190fd5b8051602091820151805190830120604080517f452a0dc408cb0d27ffc3b3caff933a5208040a53a9dbecd8d89cad2c0d40e00c818601526001600160e01b031990931683820152606080840192909252805180840390920182526080909201909152805191012090565b6101945490565b4690565b60a081015115806128645750428160a00151105b6128b5576040805162461bcd60e51b815260206004820152601d60248201527f4f726465722073746172742076616c69646174696f6e206661696c6564000000604482015290519081900360640190fd5b60c081015115806128c95750428160c00151115b6116ca576040805162461bcd60e51b815260206004820152601b60248201527f4f7264657220656e642076616c69646174696f6e206661696c65640000000000604482015290519081900360640190fd5b60808201516129b85781516001600160a01b03161561299f5781516001600160a01b0316612946611aac565b6001600160a01b03161461299a576040805162461bcd60e51b815260206004820152601660248201527536b0b5b2b91034b9903737ba103a3c1039b2b73232b960511b604482015290519081900360640190fd5b6129b3565b6129a7611aac565b6001600160a01b031682525b61216e565b81516001600160a01b03166129cb611aac565b6001600160a01b03161461216e5760006129e483613680565b90506000825160411415612a0857612a05836129ff84613770565b9061377a565b90505b83516001600160a01b03828116911614612ba8578351612a30906001600160a01b031661202e565b15612b6c578351630b135d3f60e11b906001600160a01b0316631626ba7e612a5785613770565b866040518363ffffffff1660e01b81526004018083815260200180602001828103825283818151815260200191508051906020019080838360005b83811015612aaa578181015183820152602001612a92565b50505050905090810190601f168015612ad75780820380516001836020036101000a031916815260200191505b50935050505060206040518083038186803b158015612af557600080fd5b505afa158015612b09573d6000803e3d6000fd5b505050506040513d6020811015612b1f57600080fd5b50516001600160e01b03191614612b675760405162461bcd60e51b815260040180806020018281038252602b815260200180615e1f602b913960400191505060405180910390fd5b612ba3565b60405162461bcd60e51b8152600401808060200182810382526022815260200180615dfd6022913960400191505060405180910390fd5b6113a4565b83516001600160a01b03166113a4576040805162461bcd60e51b815260206004820152600860248201526737379036b0b5b2b960c11b604482015290519081900360640190fd5b612bf7614af1565b6000612c0384846137f0565b80519091506001600160e01b031916612c2857612c2083856137f0565b915050611614565b9050611614565b612c37614b78565b81806020019051810190611614919061545a565b612c53614b92565b8180602001905181019061161491906154e6565b612c6f614bb5565b8180602001905181019061161491906155f0565b60608082156116145760408051600180825281830190925290816020015b612ca9614be7565b815260200190600190039081612ca1579050509050612cc783613a0c565b81600081518110612cd457fe5b602002602001018190525092915050565b606080600084118015612cf85750600083115b15612d73576040805160028082526060820190925290816020015b612d1b614be7565b815260200190600190039081612d13579050509050612d3984613a0c565b81600081518110612d4657fe5b6020026020010181905250612d5a83613a0c565b81600181518110612d6757fe5b60200260200101819052505b600084118015612d81575082155b15612dda5760408051600180825281830190925290816020015b612da3614be7565b815260200190600190039081612d9b579050509050612dc184613a0c565b81600081518110612dce57fe5b60200260200101819052505b83158015612de85750600083115b156116115760408051600180825281830190925290816020015b612e0a614be7565b815260200190600190039081612e02579050509050612e2883613a0c565b81600081518110612e3557fe5b6020026020010181905250905092915050565b612e50614bfe565b818060200190518101906116149190615592565b60408051600180825281830190925260609160009190816020015b612e87614be7565b815260200190600190039081612e7f5790505090508281600081518110612eaa57fe5b6020026020010151600001906001600160a01b031690816001600160a01b03168152505061271081600081518110612ede57fe5b6020908102919091018101516001600160601b039092169101529050919050565b600082612f0e57506000611614565b50600090815261012f6020526040902054919050565b612f2c614b33565b600080612f3a898887613a34565b91509150600080612f4c8a8988613a34565b9150915083811115612f7f57612f7484848c60200151602001518d6060015160200151613aad565b945050505050612fa2565b612f9b8b60200151602001518c60600151602001518484613b32565b9450505050505b9695505050505050565b60006001600160e01b03198216632fa3cfd360e01b1480612fdd57506001600160e01b03198216630d8c66fb60e11b145b15612ff157612fea613bb8565b90506114c8565b506000919050565b60006001600160e01b031983166355575f5d60e11b141561301c57506001611614565b6001600160e01b031982166355575f5d60e11b141561303d57506002611614565b6001600160e01b031983166322ba176160e21b141561305e57506001611614565b6001600160e01b031982166322ba176160e21b141561307f57506002611614565b6001600160e01b0319831663025ceed960e61b14156130a057506001611614565b6001600160e01b0319821663025ceed960e61b14156130c157506002611614565b50600092915050565b60006001600160e01b03198716632fa3cfd360e01b148015906130fe57506001600160e01b03198616632fa3cfd360e01b14155b801561311b57506001600160e01b03198716630d8c66fb60e11b14155b801561313857506001600160e01b03198616630d8c66fb60e11b14155b1561314557506000612fa2565b600061315a8387602001518760200151613bbf565b90506000600185600281111561316c57fe5b14156131c9575060608501516001600160e01b03198916630d8c66fb60e11b1480156131a857506001600160e01b03198816632fa3cfd360e01b145b6131c45760405162461bcd60e51b8152600401610fcf906159ad565b61323a565b60028560028111156131d757fe5b141561322f575060608601516001600160e01b03198816630d8c66fb60e11b14801561321357506001600160e01b03198916632fa3cfd360e01b145b6131c45760405162461bcd60e51b8152600401610fcf90615a3f565b600092505050612fa2565b60008111801561324a5750818110155b801561325857506103e88111155b6132745760405162461bcd60e51b8152600401610fcf90615a19565b98975050505050505050565b600061329a85600001516020015184876040015185613c49565b905060006132c4828760000151602001518860800151878a60000151600001518b60600151613ca9565b865180518751516020808a015193015160808b015160608c01519596506132f2959394929387929190613d6f565b9050856040015151600114801561330e57508460400151516001145b80156133635750856040015160008151811061332657fe5b6020026020010151600001516001600160a01b0316856040015160008151811061334c57fe5b6020026020010151600001516001600160a01b0316145b1561347957604080516001808252818301909252600091816020015b613387614be7565b81526020019060019003908161337f57905050905085604001516000815181106133ad57fe5b602002602001015160000151816000815181106133c657fe5b60209081029190910101516001600160a01b039091169052604087015180516000906133ee57fe5b602002602001015160200151866040015160008151811061340b57fe5b602002602001015160200151018160008151811061342557fe5b6020026020010151602001906001600160601b031690816001600160601b03168152505061346f87600001516000015183896000015160200151848b608001518c60600151613e74565b5091506134d29050565b6134a38660000151600001518288600001516020015189604001518a608001518b60600151613e74565b5086518051602090910151604088015160808a015160608b01519495506134ce948693929190613e74565b5090505b6134f386600001516000015182886080015188602001518a606001516134fc565b50949350505050565b600082511161351d5760405162461bcd60e51b8152600401610fcf906159d5565b600084815b60018551038110156135ec57600061356386838151811061353f57fe5b6020026020010151602001516001600160601b031689613f2990919063ffffffff16565b905061359886838151811061357457fe5b6020026020010151602001516001600160601b0316856115b790919063ffffffff16565b935080156135e3576135aa83826126e6565b92506135e360405180604001604052808b815260200183815250888885815181106135d157fe5b60200260200101516000015188613f41565b50600101613522565b506000846001865103815181106135ff57fe5b6020026020010151905061362981602001516001600160601b0316846115b790919063ffffffff16565b9250826127101461364c5760405162461bcd60e51b8152600401610fcf90615b00565b81156136765761367660405180604001604052808a81526020018481525087836000015187613f41565b5050505050505050565b60007f477ed43b8020849b755512278536c3766a3b4ab547519949a75f483372493f8d82600001516136b58460200151614329565b84604001516136c78660600151614329565b86608001518760a001518860c001518960e001518a610100015180519060200120604051602001808b81526020018a6001600160a01b03168152602001898152602001886001600160a01b03168152602001878152602001868152602001858152602001848152602001836001600160e01b03191681526020018281526020019a5050505050505050505050604051602081830303815290604052805190602001209050919050565b6000611fec614399565b600081516041146137d2576040805162461bcd60e51b815260206004820152601f60248201527f45434453413a20696e76616c6964207369676e6174757265206c656e67746800604482015290519081900360640190fd5b60208201516040830151606084015160001a612fa2868285856143d4565b6137f8614af1565b825182516001600160e01b031982166355575f5d60e11b1415613863576001600160e01b031981166355575f5d60e11b1415613838578492505050611614565b5050604080518082018252600080825282516020818101909452908152918101919091529050611614565b6001600160e01b031982166322ba176160e21b14156138a8576001600160e01b031981166322ba176160e21b14156138385761389f858561462a565b92505050611614565b6001600160e01b031982166339d690a360e11b14156138e4576001600160e01b031981166339d690a360e11b14156138385761389f858561462a565b6001600160e01b0319821663025ceed960e61b1415613920576001600160e01b0319811663025ceed960e61b14156138385761389f858561462a565b6001600160e01b031982166000908152606560205260409020546001600160a01b031680156139d5576040516306d3f7cb60e41b81526001600160a01b03821690636d3f7cb0906139779089908990600401615bf3565b60006040518083038186803b15801561398f57600080fd5b505afa1580156139a3573d6000803e3d6000fd5b505050506040513d6000823e601f3d908101601f191682016040526139cb91908101906153cf565b9350505050611614565b6001600160e01b031983811690831614156139f4576139cb868661462a565b60405162461bcd60e51b8152600401610fcf90615911565b613a14614be7565b81156114c8576001600160a01b038216815260a09190911c602082015290565b6000808215613a73576020808601510151613a4f90856126e6565b9150613a6c85606001516020015186602001516020015184614687565b90506126de565b606085015160200151613a8690856126e6565b9050613aa385602001516020015186606001516020015183614687565b9150935093915050565b613ab5614b33565b6000613ac2858585614687565b905085811115613b19576040805162461bcd60e51b815260206004820152601860248201527f66696c6c4c6566743a20756e61626c6520746f2066696c6c0000000000000000604482015290519081900360640190fd5b5050604080518082019091529384525050602082015290565b613b3a614b33565b6000613b47838787614687565b905083811115613b9e576040805162461bcd60e51b815260206004820152601960248201527f66696c6c52696768743a20756e61626c6520746f2066696c6c00000000000000604482015290519081900360640190fd5b604080518082019091529283526020830152509392505050565b6101615490565b600083815b8451811015613bff57848181518110613bd957fe5b6020026020010151602001516001600160601b0316820191508080600101915050613bc4565b5060005b8351811015613c3e57838181518110613c1857fe5b6020026020010151602001516001600160601b0316820191508080600101915050613c03565b5090505b9392505050565b60008115613c5857508361256c565b6000613c6e613c678787613f29565b87906115b7565b905060005b8451811015613c9f57613c95613c8e86838151811061353f57fe5b83906115b7565b9150600101613c73565b5095945050505050565b6000806000613cb98989886146e5565b90925090508015613d635784516000906001600160e01b0319166322ba176160e21b1415613d00578560200151806020019051810190613cf99190614fb6565b9050613d39565b85516001600160e01b03191663025ceed960e61b1415613d395760008660200151806020019051810190613d3491906151c2565b509150505b613d6160405180604001604052808881526020018481525089613d5b84614707565b88613f41565b505b50979650505050505050565b600080613d7b88614746565b905080516001148015613d8f575086516001145b8015613ddc575086600081518110613da357fe5b6020026020010151600001516001600160a01b031681600081518110613dc557fe5b6020026020010151600001516001600160a01b0316145b15613e2d5761138881600081518110613df157fe5b6020026020010151602001516001600160601b03161115613e245760405162461bcd60e51b8152600401610fcf90615948565b85915050613e69565b600080613e3e8b8989868a8a613e74565b91509150611388811115613e645760405162461bcd60e51b8152600401610fcf90615948565b509150505b979650505050505050565b846000805b8551811015613f1d57613eb5868281518110613e9157fe5b6020026020010151602001516001600160601b0316836115b790919063ffffffff16565b91506000613ee48489898581518110613eca57fe5b6020026020010151602001516001600160601b03166146e5565b90945090508015613f1457613f1460405180604001604052808c815260200183815250878985815181106135d157fe5b50600101613e79565b50965096945050505050565b6000611611612710613f3b85856148bb565b90614914565b8351516001600160e01b0319166339d690a360e11b141561408757600080856000015160200151806020019051810190613f7b91906151c2565b915091508560200151600114613fa35760405162461bcd60e51b8152600401610fcf90615aab565b6001600160a01b03851630141561401b57604051632142170760e11b81526001600160a01b038316906342842e0e90613fe4903090889086906004016157f8565b600060405180830381600087803b158015613ffe57600080fd5b505af1158015614012573d6000803e3d6000fd5b50505050614080565b604051637b84dc8360e11b81526001600160a01b0384169063f709b9069061404d9085908990899087906004016158e7565b600060405180830381600087803b15801561406757600080fd5b505af115801561407b573d6000803e3d6000fd5b505050505b50506113a4565b8351516001600160e01b0319166322ba176160e21b14156141ca5760008460000151602001518060200190518101906140c09190614fb6565b90506001600160a01b03841630141561415c57602085015160405163a9059cbb60e01b81526001600160a01b0383169163a9059cbb91614104918791600401615854565b602060405180830381600087803b15801561411e57600080fd5b505af1158015614132573d6000803e3d6000fd5b505050506040513d601f19601f82011682018060405250810190614156919061532c565b506141c4565b602085015160405163776062c360e01b81526001600160a01b0384169163776062c391614191918591899189916004016158e7565b600060405180830381600087803b1580156141ab57600080fd5b505af11580156141bf573d6000803e3d6000fd5b505050505b506113a4565b8351516001600160e01b03191663025ceed960e61b14156142875760008085600001516020015180602001905181019061420491906151c2565b90925090506001600160a01b03851630141561424f576020860151604051637921219560e11b81526001600160a01b0384169163f242432a91613fe49130918991879160040161581c565b6020860151604051639c1c2ee960e01b81526001600160a01b03851691639c1c2ee99161404d9186918a918a918891906004016158a4565b8351516001600160e01b0319166355575f5d60e11b14156142cb576001600160a01b0382163014612ba3576020840151612ba3906001600160a01b03841690612743565b6040516354bc0cf160e01b81526001600160a01b038216906354bc0cf1906142fb90879087908790600401615c18565b600060405180830381600087803b15801561431557600080fd5b505af1158015613676573d6000803e3d6000fd5b60007fdb6f72e915676cfc289da13bc4ece054fd17b1df6d77ffc4a60510718c236b0861435983600001516127db565b8360200151604051602001808481526020018381526020018281526020019350505050604051602081830303815290604052805190602001209050919050565b6000611ab67f8b73c3c69bb8fe3d512ecc4cf759cc79239f7b179b0ffacaa9a75d522b39400f6143c761497b565b6143cf614981565b614987565b60007f7fffffffffffffffffffffffffffffff5d576e7357a4501ddfe92f46681b20a08211156144355760405162461bcd60e51b8152600401808060200182810382526022815260200180615ddb6022913960400191505060405180910390fd5b6000601e8560ff16111561450f576004850360ff16601b148061445e57506004850360ff16601c145b6144995760405162461bcd60e51b8152600401808060200182810382526022815260200180615e786022913960400191505060405180910390fd5b60016144a4876149e9565b60048703868660405160008152602001604052604051808581526020018460ff1681526020018381526020018281526020019450505050506020604051602081039080840390855afa1580156144fe573d6000803e3d6000fd5b5050506020604051035190506145c6565b8460ff16601b148061452457508460ff16601c145b61455f5760405162461bcd60e51b8152600401808060200182810382526022815260200180615e786022913960400191505060405180910390fd5b60018686868660405160008152602001604052604051808581526020018460ff1681526020018381526020018281526020019450505050506020604051602081039080840390855afa1580156145b9573d6000803e3d6000fd5b5050506020604051035190505b6001600160a01b038116614621576040805162461bcd60e51b815260206004820152601860248201527f45434453413a20696e76616c6964207369676e61747572650000000000000000604482015290519081900360640190fd5b95945050505050565b614632614af1565b6020808401518051908201208382015180519201919091208082141561465c578492505050611614565b5050604080518082018252600080825282516020808201909452908152918101919091529392505050565b6000614694848484614a3a565b156146d7576040805162461bcd60e51b815260206004820152600e60248201526d3937bab73234b7339032b93937b960911b604482015290519081900360640190fd5b61256c83613f3b86856148bb565b6000806146fb856146f68686613f29565b614ac9565b91509150935093915050565b6001600160a01b038082166000908152610164602052604081205490911680156147325790506114c8565b5050610163546001600160a01b0316919050565b80516060906001600160e01b03191663025ceed960e61b148061477a575081516001600160e01b0319166339d690a360e11b145b1561483057600080836020015180602001905181019061479a91906151c2565b61016254604051634e53ee3d60e11b81529294509092506001600160a01b031690639ca7dc7a906147d19085908590600401615854565b600060405180830381600087803b1580156147eb57600080fd5b505af11580156147ff573d6000803e3d6000fd5b505050506040513d6000823e601f3d908101601f1916820160405261482791908101906152fa565b925050506114c8565b81516001600160e01b03191662737ea960e61b141561487157600082602001518060200190518101906148639190614fd2565b6080015192506114c8915050565b81516001600160e01b03191663d8f960c160e01b14156148b357600082602001518060200190518101906148a591906150cf565b6060015192506114c8915050565b506060919050565b6000826148ca57506000611614565b828202828482816148d757fe5b04146116115760405162461bcd60e51b8152600401808060200182810382526021815260200180615e9a6021913960400191505060405180910390fd5b600080821161496a576040805162461bcd60e51b815260206004820152601a60248201527f536166654d6174683a206469766973696f6e206279207a65726f000000000000604482015290519081900360640190fd5b81838161497357fe5b049392505050565b60c95490565b60ca5490565b600083838361499461284c565b3060405160200180868152602001858152602001848152602001838152602001826001600160a01b03168152602001955050505050506040516020818303038152906040528051906020012090509392505050565b604080517f19457468657265756d205369676e6564204d6573736167653a0a333200000000602080830191909152603c8083019490945282518083039094018452605c909101909152815191012090565b600082614a81576040805162461bcd60e51b815260206004820152601060248201526f6469766973696f6e206279207a65726f60801b604482015290519081900360640190fd5b811580614a8c575083155b15614a9957506000613c42565b60008380614aa357fe5b8584099050614ab285846148bb565b614abe826103e86148bb565b101595945050505050565b60008082841115614ae857614ade84846126e6565b9150829050612204565b50600093915050565b60408051808201909152600081526060602082015290565b60405180608001604052806060815260200160608152602001600015158152602001600081525090565b604051806040016040528060008152602001600081525090565b6040518060600160405280600081526020016000815260200160006002811115614b7357fe5b905290565b604051806040016040528060608152602001606081525090565b604051806060016040528060608152602001606081526020016000151581525090565b6040518060a0016040528060008152602001600081526020016000815260200160008152602001600080191681525090565b604080518082019091526000808252602082015290565b6040518060800160405280600081526020016000815260200160008152602001600080191681525090565b80356114c881615d46565b600082601f830112614c44578081fd5b81516020614c59614c5483615cdc565b615cb9565b82815281810190858301855b85811015614c8e57614c7c898684518b0101614dbd565b84529284019290840190600101614c65565b5090979650505050505050565b600082601f830112614cab578081fd5b81516020614cbb614c5483615cdc565b82815281810190858301604080860288018501891015614cd9578687fd5b865b86811015614d485781838b031215614cf1578788fd5b81518281018181106001600160401b0382111715614d0b57fe5b83528351614d1881615d46565b8152838701516001600160601b0381168114614d3257898afd5b8188015285529385019391810191600101614cdb565b509198975050505050505050565b805180151581146114c857600080fd5b80356114c881615d5b565b600082601f830112614d81578081fd5b8135614d8f614c5482615cf9565b818152846020838601011115614da3578283fd5b816020850160208301379081016020019190915292915050565b600082601f830112614dcd578081fd5b8151614ddb614c5482615cf9565b818152846020838601011115614def578283fd5b61256c826020830160208701615d1a565b60006040808385031215614e12578182fd5b80518181016001600160401b038282108183111715614e2d57fe5b818452829450853581811115614e4257600080fd5b8601808803851315614e5357600080fd5b608084018381108382111715614e6557fe5b909452833593614e7485615d5b565b93825260208401359381851115614e8a57600080fd5b614e9688868301614d71565b60608501525050815260209384013593019290925292915050565b6000610120808385031215614ec4578182fd5b614ecd81615cb9565b915050614ed982614c29565b815260208201356001600160401b0380821115614ef557600080fd5b614f0185838601614e00565b6020840152614f1260408501614c29565b60408401526060840135915080821115614f2b57600080fd5b614f3785838601614e00565b60608401526080840135608084015260a084013560a084015260c084013560c0840152614f6660e08501614d66565b60e084015261010091508184013581811115614f8157600080fd5b614f8d86828701614d71565b8385015250505092915050565b600060208284031215614fab578081fd5b813561161181615d46565b600060208284031215614fc7578081fd5b815161161181615d46565b60008060408385031215614fe4578081fd5b8251614fef81615d46565b60208401519092506001600160401b038082111561500b578283fd5b9084019060c0828703121561501e578283fd5b61502860c0615cb9565b8251815260208301518281111561503d578485fd5b61504988828601614dbd565b6020830152506040830151604082015260608301518281111561506a578485fd5b61507688828601614c9b565b60608301525060808301518281111561508d578485fd5b61509988828601614c9b565b60808301525060a0830151828111156150b0578485fd5b6150bc88828601614c34565b60a0830152508093505050509250929050565b600080604083850312156150e1578182fd5b82516150ec81615d46565b60208401519092506001600160401b0380821115615108578283fd5b9084019060a0828703121561511b578283fd5b61512560a0615cb9565b8251815260208301518281111561513a578485fd5b61514688828601614dbd565b60208301525060408301518281111561515d578485fd5b61516988828601614c9b565b604083015250606083015182811115615180578485fd5b61518c88828601614c9b565b6060830152506080830151828111156151a3578485fd5b6151af88828601614c34565b6080830152508093505050509250929050565b600080604083850312156151d4578182fd5b82516151df81615d46565b6020939093015192949293505050565b60008060408385031215615201578182fd5b823561520c81615d46565b9150602083013561521c81615d46565b809150509250929050565b600080600080600060a0868803121561523e578081fd5b853561524981615d46565b9450602086013561525981615d46565b935060408601359250606086013561527081615d46565b9150608086013561528081615d46565b809150509295509295909350565b600080600080600060a086880312156152a5578283fd5b85356152b081615d46565b945060208601356001600160401b038111156152ca578384fd5b6152d688828901614d71565b9450506040860135925060608601359150608086013560ff81168114615280578182fd5b60006020828403121561530b578081fd5b81516001600160401b03811115615320578182fd5b61256c84828501614c9b565b60006020828403121561533d578081fd5b61161182614d56565b600060208284031215615357578081fd5b5035919050565b60006020828403121561536f578081fd5b813561161181615d5b565b6000806040838503121561538c578182fd5b823561520c81615d5b565b6000602082840312156153a8578081fd5b81356001600160401b038111156153bd578182fd5b82016101808185031215611611578182fd5b6000602082840312156153e0578081fd5b81516001600160401b03808211156153f6578283fd5b9083019060408286031215615409578283fd5b60405160408101818110838211171561541e57fe5b604052825161542c81615d5b565b815260208301518281111561543f578485fd5b61544b87828601614dbd565b60208301525095945050505050565b60006020828403121561546b578081fd5b81516001600160401b0380821115615481578283fd5b9083019060408286031215615494578283fd5b6040516040810181811083821117156154a957fe5b6040528251828111156154ba578485fd5b6154c687828601614c9b565b8252506020830151828111156154da578485fd5b61544b87828601614c9b565b6000602082840312156154f7578081fd5b81516001600160401b038082111561550d578283fd5b9083019060608286031215615520578283fd5b60405160608101818110838211171561553557fe5b604052825182811115615546578485fd5b61555287828601614c9b565b825250602083015182811115615566578485fd5b61557287828601614c9b565b60208301525061558460408401614d56565b604082015295945050505050565b6000608082840312156155a3578081fd5b604051608081018181106001600160401b03821117156155bf57fe5b8060405250825181526020830151602082015260408301516040820152606083015160608201528091505092915050565b600060a08284031215615601578081fd5b60405160a081018181106001600160401b038211171561561d57fe5b806040525082518152602083015160208201526040830151604082015260608301516060820152608083015160808201528091505092915050565b600060208284031215615669578081fd5b81356001600160401b0381111561567e578182fd5b61256c84828501614eb1565b6000806000806080858703121561569f578182fd5b84356001600160401b03808211156156b5578384fd5b6156c188838901614eb1565b955060208701359150808211156156d6578384fd5b6156e288838901614d71565b945060408701359150808211156156f7578384fd5b61570388838901614eb1565b93506060870135915080821115615718578283fd5b5061572587828801614d71565b91505092959194509250565b600060208284031215615742578081fd5b81356001600160401b03811115615757578182fd5b82016101a08185031215611611578182fd5b60006020828403121561577a578081fd5b81356001600160401b0381168114611611578182fd5b600081518084526157a8816020860160208601615d1a565b601f01601f19169290920160200192915050565b600063ffffffff60e01b825116835260208201516040602085015261256c6040850182615790565b6001600160a01b0391909116815260200190565b6001600160a01b039384168152919092166020820152604081019190915260600190565b6001600160a01b0394851681529290931660208301526040820152606081019190915260a06080820181905260009082015260c00190565b6001600160a01b03929092168252602082015260400190565b90815260200190565b93845260208401929092526040830152606082015260800190565b6000602082526116116020830184615790565b6001600160a01b03958616815293851660208501529190931660408301526060820192909252608081019190915260c060a0820181905260009082015260e00190565b6001600160a01b039485168152928416602084015292166040820152606081019190915260800190565b60208082526017908201527f6e6f7420666f756e64204941737365744d617463686572000000000000000000604082015260600190565b6020808252601d908201527f526f79616c746965732061726520746f6f206869676820283e35302529000000604082015260600190565b6020808252601490820152730c081cd85b1d0818d85b89dd081899481d5cd95960621b604082015260600190565b6020808252600e908201526d77726f6e6720563320747970653160901b604082015260600190565b60208082526024908201527f7472616e736665725061796f7574733a206e6f7468696e6720746f207472616e60408201526339b332b960e11b606082015260800190565b6020808252600c908201526b77726f6e67206d617846656560a01b604082015260600190565b6020808252600e908201526d3bb937b733902b19903a3cb8329960911b604082015260600190565b60208082526024908201527f72696768744f726465722e74616b657220766572696669636174696f6e2066616040820152631a5b195960e21b606082015260800190565b60208082526012908201527132b9319b9918903b30b63ab29032b93937b960711b604082015260600190565b6020808252600f908201526e1b9bdd1a1a5b99c81d1bc8199a5b1b608a1b604082015260600190565b6020808252601e908201527f53756d207061796f75747320427073206e6f7420657175616c20313030250000604082015260600190565b6020808252601290820152710c2e6e6cae8e640c8dedc4ee840dac2e8c6d60731b604082015260600190565b60208082526023908201527f6c6566744f726465722e74616b657220766572696669636174696f6e206661696040820152621b195960ea1b606082015260800190565b6020808252600e908201526d0dcdee840cadcdeeaced040cae8d60931b604082015260600190565b6020808252600b908201526a3737ba10309036b0b5b2b960a91b604082015260600190565b600060408252615c0660408301856157bc565b828103602084015261462181856157bc565b600060608252845160406060840152615c3460a08401826157bc565b60209687015160808501526001600160a01b03958616968401969096525050911660409091015290565b9182526001600160401b0316602082015260400190565b6000808335601e19843603018112615c8b578283fd5b8301803591506001600160401b03821115615ca4578283fd5b60200191503681900382131561220457600080fd5b6040518181016001600160401b0381118282101715615cd457fe5b604052919050565b60006001600160401b03821115615cef57fe5b5060209081020190565b60006001600160401b03821115615d0c57fe5b50601f01601f191660200190565b60005b83811015615d35578181015183820152602001615d1d565b838111156113a45750506000910152565b6001600160a01b03811681146116ca57600080fd5b6001600160e01b0319811681146116ca57600080fdfe4d6574615472616e73616374696f6e2875696e74323536206e6f6e63652c616464726573732066726f6d2c62797465732066756e6374696f6e5369676e6174757265294f776e61626c653a206e6577206f776e657220697320746865207a65726f206164647265737345434453413a20696e76616c6964207369676e6174757265202773272076616c75656f72646572207369676e617475726520766572696669636174696f6e206572726f72636f6e7472616374206f72646572207369676e617475726520766572696669636174696f6e206572726f72496e697469616c697a61626c653a20636f6e747261637420697320616c726561647920696e697469616c697a656445434453413a20696e76616c6964207369676e6174757265202776272076616c7565536166654d6174683a206d756c7469706c69636174696f6e206f766572666c6f774f776e61626c653a2063616c6c6572206973206e6f7420746865206f776e65725369676e657220616e64207369676e617475726520646f206e6f74206d61746368a2646970667358221220922a0be418f646e7226d25d343e18966a7e2ca46dd20ab0e2ea401f24f85f7c064736f6c63430007060033",
  "immutableReferences": {},
  "source": "// SPDX-License-Identifier: MIT\n\npragma solidity 0.7.6;\npragma abicoder v2;\n\nimport \"./ExchangeV2Core.sol\";\nimport \"@rarible/meta-tx/contracts/EIP712MetaTransaction.sol\";\nimport \"@rarible/transfer-manager/contracts/RaribleTransferManager.sol\";\n\ncontract ExchangeMetaV2 is ExchangeV2Core, RaribleTransferManager, EIP712MetaTransaction {\n    function __ExchangeV2_init(\n        address _transferProxy,\n        address _erc20TransferProxy,\n        uint newProtocolFee,\n        address newDefaultFeeReceiver,\n        IRoyaltiesProvider newRoyaltiesProvider\n    ) external initializer {\n        __Context_init_unchained();\n        __Ownable_init_unchained();\n        __OrderValidator_init_unchained();\n        __MetaTransaction_init_unchained(\"ExchangeMetaV2\", \"1\");\n        __TransferExecutor_init_unchained(_transferProxy, _erc20TransferProxy);\n        __RaribleTransferManager_init_unchained(newProtocolFee, newDefaultFeeReceiver, newRoyaltiesProvider);\n    }\n\n    function _msgSender() internal view virtual override(ContextUpgradeable, EIP712MetaTransaction) returns (address payable) {\n        return super._msgSender();\n    }\n\n    function getProtocolFee() internal override view returns(uint) {\n        return protocolFee;\n    }\n\n}\n",
  "sourcePath": "@rarible/exchange-v2/contracts/ExchangeMetaV2.sol",
  "compiler": {
    "name": "solc",
    "version": "0.7.6+commit.7338295f.Emscripten.clang"
  },
  "schemaVersion": "3.4.3",
  "updatedAt": "2022-08-04T12:17:18.697Z",
  "networkType": "ethereum",
  "devdoc": {
    "kind": "dev",
    "methods": {
      "directAcceptBid((uint256,uint256,uint256,uint256,uint256,address,bytes4,bytes,bytes,bytes,bytes,bytes))": {
        "details": "function, generate sellOrder and buyOrder from parameters and call validateAndMatch() for accept bid transaction",
        "params": {
          "direct": "struct with parameters for accept bid operation"
        }
      },
      "directPurchase((uint256,uint256,uint256,uint256,uint256,address,bytes4,bytes4,bytes,bytes,bytes,bytes,bytes))": {
        "details": "function, generate sellOrder and buyOrder from parameters and call validateAndMatch() for purchase transaction",
        "params": {
          "direct": "struct with parameters for purchase operation"
        }
      },
      "owner()": {
        "details": "Returns the address of the current owner."
      },
      "renounceOwnership()": {
        "details": "Leaves the contract without owner. It will not be possible to call `onlyOwner` functions anymore. Can only be called by the current owner. NOTE: Renouncing ownership will leave the contract without an owner, thereby removing any functionality that is only available to the owner."
      },
      "transferOwnership(address)": {
        "details": "Transfers ownership of the contract to a new account (`newOwner`). Can only be called by the current owner."
      }
    },
    "version": 1
  },
  "userdoc": {
    "kind": "user",
    "methods": {},
    "version": 1
  }
}