{
  "contractName": "ExchangeMetaV2",
  "abi": [
    {
      "anonymous": false,
      "inputs": [
        {
          "indexed": false,
          "internalType": "bytes32",
          "name": "hash",
          "type": "bytes32"
        }
      ],
      "name": "Cancel",
      "type": "event"
    },
    {
      "anonymous": false,
      "inputs": [
        {
          "indexed": false,
          "internalType": "uint256",
          "name": "newLeftFill",
          "type": "uint256"
        },
        {
          "indexed": false,
          "internalType": "uint256",
          "name": "newRightFill",
          "type": "uint256"
        }
      ],
      "name": "Match",
      "type": "event"
    },
    {
      "anonymous": false,
      "inputs": [
        {
          "indexed": true,
          "internalType": "bytes4",
          "name": "assetType",
          "type": "bytes4"
        },
        {
          "indexed": false,
          "internalType": "address",
          "name": "matcher",
          "type": "address"
        }
      ],
      "name": "MatcherChange",
      "type": "event"
    },
    {
      "anonymous": false,
      "inputs": [
        {
          "indexed": false,
          "internalType": "address",
          "name": "userAddress",
          "type": "address"
        },
        {
          "indexed": false,
          "internalType": "address payable",
          "name": "relayerAddress",
          "type": "address"
        },
        {
          "indexed": false,
          "internalType": "bytes",
          "name": "functionSignature",
          "type": "bytes"
        }
      ],
      "name": "MetaTransactionExecuted",
      "type": "event"
    },
    {
      "anonymous": false,
      "inputs": [
        {
          "indexed": true,
          "internalType": "address",
          "name": "previousOwner",
          "type": "address"
        },
        {
          "indexed": true,
          "internalType": "address",
          "name": "newOwner",
          "type": "address"
        }
      ],
      "name": "OwnershipTransferred",
      "type": "event"
    },
    {
      "anonymous": false,
      "inputs": [
        {
          "indexed": false,
          "internalType": "uint256",
          "name": "oldValue",
          "type": "uint256"
        },
        {
          "indexed": false,
          "internalType": "uint256",
          "name": "newValue",
          "type": "uint256"
        }
      ],
      "name": "ProtocolFeeChanged",
      "type": "event"
    },
    {
      "anonymous": false,
      "inputs": [
        {
          "indexed": true,
          "internalType": "bytes4",
          "name": "assetType",
          "type": "bytes4"
        },
        {
          "indexed": false,
          "internalType": "address",
          "name": "proxy",
          "type": "address"
        }
      ],
      "name": "ProxyChange",
      "type": "event"
    },
    {
      "inputs": [
        {
          "components": [
            {
              "internalType": "address",
              "name": "maker",
              "type": "address"
            },
            {
              "components": [
                {
                  "components": [
                    {
                      "internalType": "bytes4",
                      "name": "assetClass",
                      "type": "bytes4"
                    },
                    {
                      "internalType": "bytes",
                      "name": "data",
                      "type": "bytes"
                    }
                  ],
                  "internalType": "struct LibAsset.AssetType",
                  "name": "assetType",
                  "type": "tuple"
                },
                {
                  "internalType": "uint256",
                  "name": "value",
                  "type": "uint256"
                }
              ],
              "internalType": "struct LibAsset.Asset",
              "name": "makeAsset",
              "type": "tuple"
            },
            {
              "internalType": "address",
              "name": "taker",
              "type": "address"
            },
            {
              "components": [
                {
                  "components": [
                    {
                      "internalType": "bytes4",
                      "name": "assetClass",
                      "type": "bytes4"
                    },
                    {
                      "internalType": "bytes",
                      "name": "data",
                      "type": "bytes"
                    }
                  ],
                  "internalType": "struct LibAsset.AssetType",
                  "name": "assetType",
                  "type": "tuple"
                },
                {
                  "internalType": "uint256",
                  "name": "value",
                  "type": "uint256"
                }
              ],
              "internalType": "struct LibAsset.Asset",
              "name": "takeAsset",
              "type": "tuple"
            },
            {
              "internalType": "uint256",
              "name": "salt",
              "type": "uint256"
            },
            {
              "internalType": "uint256",
              "name": "start",
              "type": "uint256"
            },
            {
              "internalType": "uint256",
              "name": "end",
              "type": "uint256"
            },
            {
              "internalType": "bytes4",
              "name": "dataType",
              "type": "bytes4"
            },
            {
              "internalType": "bytes",
              "name": "data",
              "type": "bytes"
            }
          ],
          "internalType": "struct LibOrder.Order",
          "name": "order",
          "type": "tuple"
        }
      ],
      "name": "cancel",
      "outputs": [],
      "stateMutability": "nonpayable",
      "type": "function"
    },
    {
      "inputs": [],
      "name": "defaultFeeReceiver",
      "outputs": [
        {
          "internalType": "address",
          "name": "",
          "type": "address"
        }
      ],
      "stateMutability": "view",
      "type": "function"
    },
    {
      "inputs": [
        {
          "internalType": "address",
          "name": "userAddress",
          "type": "address"
        },
        {
          "internalType": "bytes",
          "name": "functionSignature",
          "type": "bytes"
        },
        {
          "internalType": "bytes32",
          "name": "sigR",
          "type": "bytes32"
        },
        {
          "internalType": "bytes32",
          "name": "sigS",
          "type": "bytes32"
        },
        {
          "internalType": "uint8",
          "name": "sigV",
          "type": "uint8"
        }
      ],
      "name": "executeMetaTransaction",
      "outputs": [
        {
          "internalType": "bytes",
          "name": "",
          "type": "bytes"
        }
      ],
      "stateMutability": "payable",
      "type": "function"
    },
    {
      "inputs": [
        {
          "internalType": "address",
          "name": "",
          "type": "address"
        }
      ],
      "name": "feeReceivers",
      "outputs": [
        {
          "internalType": "address",
          "name": "",
          "type": "address"
        }
      ],
      "stateMutability": "view",
      "type": "function"
    },
    {
      "inputs": [
        {
          "internalType": "bytes32",
          "name": "",
          "type": "bytes32"
        }
      ],
      "name": "fills",
      "outputs": [
        {
          "internalType": "uint256",
          "name": "",
          "type": "uint256"
        }
      ],
      "stateMutability": "view",
      "type": "function"
    },
    {
      "inputs": [
        {
          "internalType": "address",
          "name": "user",
          "type": "address"
        }
      ],
      "name": "getNonce",
      "outputs": [
        {
          "internalType": "uint256",
          "name": "nonce",
          "type": "uint256"
        }
      ],
      "stateMutability": "view",
      "type": "function"
    },
    {
      "inputs": [
        {
          "components": [
            {
              "internalType": "address",
              "name": "maker",
              "type": "address"
            },
            {
              "components": [
                {
                  "components": [
                    {
                      "internalType": "bytes4",
                      "name": "assetClass",
                      "type": "bytes4"
                    },
                    {
                      "internalType": "bytes",
                      "name": "data",
                      "type": "bytes"
                    }
                  ],
                  "internalType": "struct LibAsset.AssetType",
                  "name": "assetType",
                  "type": "tuple"
                },
                {
                  "internalType": "uint256",
                  "name": "value",
                  "type": "uint256"
                }
              ],
              "internalType": "struct LibAsset.Asset",
              "name": "makeAsset",
              "type": "tuple"
            },
            {
              "internalType": "address",
              "name": "taker",
              "type": "address"
            },
            {
              "components": [
                {
                  "components": [
                    {
                      "internalType": "bytes4",
                      "name": "assetClass",
                      "type": "bytes4"
                    },
                    {
                      "internalType": "bytes",
                      "name": "data",
                      "type": "bytes"
                    }
                  ],
                  "internalType": "struct LibAsset.AssetType",
                  "name": "assetType",
                  "type": "tuple"
                },
                {
                  "internalType": "uint256",
                  "name": "value",
                  "type": "uint256"
                }
              ],
              "internalType": "struct LibAsset.Asset",
              "name": "takeAsset",
              "type": "tuple"
            },
            {
              "internalType": "uint256",
              "name": "salt",
              "type": "uint256"
            },
            {
              "internalType": "uint256",
              "name": "start",
              "type": "uint256"
            },
            {
              "internalType": "uint256",
              "name": "end",
              "type": "uint256"
            },
            {
              "internalType": "bytes4",
              "name": "dataType",
              "type": "bytes4"
            },
            {
              "internalType": "bytes",
              "name": "data",
              "type": "bytes"
            }
          ],
          "internalType": "struct LibOrder.Order",
          "name": "orderLeft",
          "type": "tuple"
        },
        {
          "internalType": "bytes",
          "name": "signatureLeft",
          "type": "bytes"
        },
        {
          "components": [
            {
              "internalType": "address",
              "name": "maker",
              "type": "address"
            },
            {
              "components": [
                {
                  "components": [
                    {
                      "internalType": "bytes4",
                      "name": "assetClass",
                      "type": "bytes4"
                    },
                    {
                      "internalType": "bytes",
                      "name": "data",
                      "type": "bytes"
                    }
                  ],
                  "internalType": "struct LibAsset.AssetType",
                  "name": "assetType",
                  "type": "tuple"
                },
                {
                  "internalType": "uint256",
                  "name": "value",
                  "type": "uint256"
                }
              ],
              "internalType": "struct LibAsset.Asset",
              "name": "makeAsset",
              "type": "tuple"
            },
            {
              "internalType": "address",
              "name": "taker",
              "type": "address"
            },
            {
              "components": [
                {
                  "components": [
                    {
                      "internalType": "bytes4",
                      "name": "assetClass",
                      "type": "bytes4"
                    },
                    {
                      "internalType": "bytes",
                      "name": "data",
                      "type": "bytes"
                    }
                  ],
                  "internalType": "struct LibAsset.AssetType",
                  "name": "assetType",
                  "type": "tuple"
                },
                {
                  "internalType": "uint256",
                  "name": "value",
                  "type": "uint256"
                }
              ],
              "internalType": "struct LibAsset.Asset",
              "name": "takeAsset",
              "type": "tuple"
            },
            {
              "internalType": "uint256",
              "name": "salt",
              "type": "uint256"
            },
            {
              "internalType": "uint256",
              "name": "start",
              "type": "uint256"
            },
            {
              "internalType": "uint256",
              "name": "end",
              "type": "uint256"
            },
            {
              "internalType": "bytes4",
              "name": "dataType",
              "type": "bytes4"
            },
            {
              "internalType": "bytes",
              "name": "data",
              "type": "bytes"
            }
          ],
          "internalType": "struct LibOrder.Order",
          "name": "orderRight",
          "type": "tuple"
        },
        {
          "internalType": "bytes",
          "name": "signatureRight",
          "type": "bytes"
        }
      ],
      "name": "matchOrders",
      "outputs": [],
      "stateMutability": "payable",
      "type": "function"
    },
    {
      "inputs": [],
      "name": "owner",
      "outputs": [
        {
          "internalType": "address",
          "name": "",
          "type": "address"
        }
      ],
      "stateMutability": "view",
      "type": "function"
    },
    {
      "inputs": [],
      "name": "protocolFee",
      "outputs": [
        {
          "internalType": "uint256",
          "name": "",
          "type": "uint256"
        }
      ],
      "stateMutability": "view",
      "type": "function"
    },
    {
      "inputs": [],
      "name": "renounceOwnership",
      "outputs": [],
      "stateMutability": "nonpayable",
      "type": "function"
    },
    {
      "inputs": [],
      "name": "royaltiesRegistry",
      "outputs": [
        {
          "internalType": "contract IRoyaltiesProvider",
          "name": "",
          "type": "address"
        }
      ],
      "stateMutability": "view",
      "type": "function"
    },
    {
      "inputs": [
        {
          "internalType": "bytes4",
          "name": "assetType",
          "type": "bytes4"
        },
        {
          "internalType": "address",
          "name": "matcher",
          "type": "address"
        }
      ],
      "name": "setAssetMatcher",
      "outputs": [],
      "stateMutability": "nonpayable",
      "type": "function"
    },
    {
      "inputs": [
        {
          "internalType": "address payable",
          "name": "newDefaultFeeReceiver",
          "type": "address"
        }
      ],
      "name": "setDefaultFeeReceiver",
      "outputs": [],
      "stateMutability": "nonpayable",
      "type": "function"
    },
    {
      "inputs": [
        {
          "internalType": "address",
          "name": "token",
          "type": "address"
        },
        {
          "internalType": "address",
          "name": "wallet",
          "type": "address"
        }
      ],
      "name": "setFeeReceiver",
      "outputs": [],
      "stateMutability": "nonpayable",
      "type": "function"
    },
    {
      "inputs": [
        {
          "internalType": "uint64",
          "name": "_protocolFee",
          "type": "uint64"
        }
      ],
      "name": "setProtocolFee",
      "outputs": [],
      "stateMutability": "nonpayable",
      "type": "function"
    },
    {
      "inputs": [
        {
          "internalType": "contract IRoyaltiesProvider",
          "name": "newRoyaltiesRegistry",
          "type": "address"
        }
      ],
      "name": "setRoyaltiesRegistry",
      "outputs": [],
      "stateMutability": "nonpayable",
      "type": "function"
    },
    {
      "inputs": [
        {
          "internalType": "bytes4",
          "name": "assetType",
          "type": "bytes4"
        },
        {
          "internalType": "address",
          "name": "proxy",
          "type": "address"
        }
      ],
      "name": "setTransferProxy",
      "outputs": [],
      "stateMutability": "nonpayable",
      "type": "function"
    },
    {
      "inputs": [
        {
          "internalType": "address",
          "name": "newOwner",
          "type": "address"
        }
      ],
      "name": "transferOwnership",
      "outputs": [],
      "stateMutability": "nonpayable",
      "type": "function"
    },
    {
      "inputs": [
        {
          "internalType": "address",
          "name": "_transferProxy",
          "type": "address"
        },
        {
          "internalType": "address",
          "name": "_erc20TransferProxy",
          "type": "address"
        },
        {
          "internalType": "uint256",
          "name": "newProtocolFee",
          "type": "uint256"
        },
        {
          "internalType": "address",
          "name": "newDefaultFeeReceiver",
          "type": "address"
        },
        {
          "internalType": "contract IRoyaltiesProvider",
          "name": "newRoyaltiesProvider",
          "type": "address"
        }
      ],
      "name": "__ExchangeV2_init",
      "outputs": [],
      "stateMutability": "nonpayable",
      "type": "function"
    }
  ],
  "bytecode": "0x608060405234801561001057600080fd5b5061587380620000216000396000f3fe6080604052600436106101145760003560e01c806343bc42d3116100a0578063b39deb4611610064578063b39deb46146102c7578063e2864fe3146102e7578063e66db25e14610307578063e99a3f8014610327578063f2fde38b1461033a57610114565b806343bc42d3146102535780636d8f069414610273578063715018a6146102885780638da5cb5b1461029d578063b0e21e8a146102b257610114565b806320158c44116100e757806320158c44146101b15780632d0335ab146101de57806330c642f1146101fe5780633abf6fd41461021e5780633be899221461023357610114565b806302097ab1146101195780630c53c51c1461014f5780631372a6251461016f5780631cdfe3d814610191575b600080fd5b34801561012557600080fd5b506101396101343660046149cd565b61035a565b6040516101469190615177565b60405180910390f35b61016261015d366004614cc1565b610376565b6040516101469190615209565b34801561017b57600080fd5b5061018f61018a366004614c5a565b6106ef565b005b34801561019d57600080fd5b5061018f6101ac3660046149cd565b61080c565b3480156101bd57600080fd5b506101d16101cc366004614d79565b610891565b6040516101469190615200565b3480156101ea57600080fd5b506101d16101f93660046149cd565b6108a4565b34801561020a57600080fd5b5061018f610219366004614d91565b6108c0565b34801561022a57600080fd5b50610139610990565b34801561023f57600080fd5b5061018f61024e3660046149cd565b6109a0565b34801561025f57600080fd5b5061018f61026e3660046150fc565b610a25565b34801561027f57600080fd5b50610139610ad2565b34801561029457600080fd5b5061018f610ae2565b3480156102a957600080fd5b50610139610b8e565b3480156102be57600080fd5b506101d1610b9e565b3480156102d357600080fd5b5061018f6102e2366004614d91565b610ba5565b3480156102f357600080fd5b5061018f610302366004615023565b610c69565b34801561031357600080fd5b5061018f610322366004614c22565b610d2a565b61018f610335366004615055565b610dbb565b34801561034657600080fd5b5061018f6103553660046149cd565b610e77565b610162602052600090815260409020546001600160a01b031681565b6060600061038386610f7a565b90506000356001600160e01b031990811690821614156103ea576040805162461bcd60e51b815260206004820152601760248201527f57726f6e672066756e6374696f6e5369676e6174757265000000000000000000604482015290519081900360640190fd5b604080516060810182526001600160a01b03891660008181526101916020908152908490205483528201529081018790526104288882888888610f9a565b6104635760405162461bcd60e51b815260040180806020018281038252602181526020018061581d6021913960400191505060405180910390fd5b6001600160a01b03881660009081526101916020526040902054610488906001611084565b61019160008a6001600160a01b03166001600160a01b0316815260200190815260200160002081905550600080306001600160a01b0316898b6040516020018083805190602001908083835b602083106104f35780518252601f1990920191602091820191016104d4565b6001836020036101000a038019825116818451168082178552505050505050905001826001600160a01b031660601b8152601401925050506040516020818303038152906040526040518082805190602001908083835b602083106105695780518252601f19909201916020918201910161054a565b6001836020036101000a0380198251168184511680821785525050505050509050019150506000604051808303816000865af19150503d80600081146105cb576040519150601f19603f3d011682016040523d82523d6000602084013e6105d0565b606091505b509150915081610627576040805162461bcd60e51b815260206004820152601c60248201527f46756e6374696f6e2063616c6c206e6f74207375636365737366756c00000000604482015290519081900360640190fd5b7f5845892132946850460bff5a0083f71031bc5bf9aadcd40f1de79423eac9b10b8a338b60405180846001600160a01b03168152602001836001600160a01b0316815260200180602001828103825283818151815260200191508051906020019080838360005b838110156106a657818101518382015260200161068e565b50505050905090810190601f1680156106d35780820380516001836020036101000a031916815260200191505b5094505050505060405180910390a19998505050505050505050565b600054610100900460ff168061070857506107086110e7565b80610716575060005460ff16155b6107515760405162461bcd60e51b815260040180806020018281038252602e81526020018061578c602e913960400191505060405180910390fd5b600054610100900460ff1615801561077c576000805460ff1961ff0019909116610100171660011790555b6107846110f8565b61078c61119a565b610794611293565b6107dd6040518060400160405280600e81526020016d22bc31b430b733b2a6b2ba30ab1960911b815250604051806040016040528060018152602001603160f81b815250611363565b6107e786866113f3565b6107f284848461149d565b8015610804576000805461ff00191690555b505050505050565b610814611579565b6001600160a01b0316610825610b8e565b6001600160a01b03161461086e576040805162461bcd60e51b815260206004820181905260248201526000805160206157fd833981519152604482015290519081900360640190fd5b61016180546001600160a01b0319166001600160a01b0392909216919091179055565b61012f6020526000908152604090205481565b6001600160a01b03166000908152610191602052604090205490565b6108c8611579565b6001600160a01b03166108d9610b8e565b6001600160a01b031614610922576040805162461bcd60e51b815260206004820181905260248201526000805160206157fd833981519152604482015290519081900360640190fd5b6001600160e01b031982166000818152609760205260409081902080546001600160a01b0319166001600160a01b038516179055517f4b5aced933c0c9a88aeac3f0b3b72c5aaf75df8ebaf53225773248c4c315359390610984908490615177565b60405180910390a25050565b610161546001600160a01b031681565b6109a8611579565b6001600160a01b03166109b9610b8e565b6001600160a01b031614610a02576040805162461bcd60e51b815260206004820181905260248201526000805160206157fd833981519152604482015290519081900360640190fd5b61016080546001600160a01b0319166001600160a01b0392909216919091179055565b610a2d611579565b6001600160a01b0316610a3e610b8e565b6001600160a01b031614610a87576040805162461bcd60e51b815260206004820181905260248201526000805160206157fd833981519152604482015290519081900360640190fd5b7fb51bef650ff5ad43303dbe2e500a74d4fd1bdc9ae05f046bece330e82ae0ba8761015f5482604051610abb9291906155e4565b60405180910390a16001600160401b031661015f55565b610160546001600160a01b031681565b610aea611579565b6001600160a01b0316610afb610b8e565b6001600160a01b031614610b44576040805162461bcd60e51b815260206004820181905260248201526000805160206157fd833981519152604482015290519081900360640190fd5b6033546040516000916001600160a01b0316907f8be0079c531659141344cd1fd0a4f28419497f9722a3daafe3b4186f6b6457e0908390a3603380546001600160a01b0319169055565b6033546001600160a01b03165b90565b61015f5481565b610bad611579565b6001600160a01b0316610bbe610b8e565b6001600160a01b031614610c07576040805162461bcd60e51b815260206004820181905260248201526000805160206157fd833981519152604482015290519081900360640190fd5b6001600160e01b031982166000818152606560205260409081902080546001600160a01b0319166001600160a01b038516179055517fd2bf91075f105d0fd80328da28e20ebdad1c1261839711183bc29a44cbe6c72f90610984908490615177565b80516001600160a01b0316610c7c611579565b6001600160a01b031614610cab5760405162461bcd60e51b8152600401610ca290615546565b60405180910390fd5b6080810151610ccc5760405162461bcd60e51b8152600401610ca2906152f7565b6000610cd782611588565b600081815261012f6020526040908190206000199055519091507fe8d9861dbc9c663ed3accd261bbe2fe01e0d3d9e5f51fa38523b265c7757a93a90610d1e908390615200565b60405180910390a15050565b610d32611579565b6001600160a01b0316610d43610b8e565b6001600160a01b031614610d8c576040805162461bcd60e51b815260206004820181905260248201526000805160206157fd833981519152604482015290519081900360640190fd5b6001600160a01b0391821660009081526101626020526040902080546001600160a01b03191691909216179055565b610dc58484611710565b610dcf8282611710565b60408401516001600160a01b031615610e1b5783604001516001600160a01b031682600001516001600160a01b031614610e1b5760405162461bcd60e51b8152600401610ca2906154db565b60408201516001600160a01b031615610e675783600001516001600160a01b031682604001516001600160a01b031614610e675760405162461bcd60e51b8152600401610ca2906153df565b610e718483611727565b50505050565b610e7f611579565b6001600160a01b0316610e90610b8e565b6001600160a01b031614610ed9576040805162461bcd60e51b815260206004820181905260248201526000805160206157fd833981519152604482015290519081900360640190fd5b6001600160a01b038116610f1e5760405162461bcd60e51b81526004018080602001828103825260268152602001806156f76026913960400191505060405180910390fd5b6033546040516001600160a01b038084169216907f8be0079c531659141344cd1fd0a4f28419497f9722a3daafe3b4186f6b6457e090600090a3603380546001600160a01b0319166001600160a01b0392909216919091179055565b6000815160001415610f8e57506000610f95565b5060208101515b919050565b6000806001610fb0610fab886119e1565b611a64565b84878760405160008152602001604052604051808581526020018460ff1681526020018381526020018281526020019450505050506020604051602081039080840390855afa158015611007573d6000803e3d6000fd5b5050604051601f1901519150506001600160a01b038116611063576040805162461bcd60e51b8152602060048201526011602482015270496e76616c6964207369676e617475726560781b604482015290519081900360640190fd5b866001600160a01b0316816001600160a01b03161491505095945050505050565b6000828201838110156110de576040805162461bcd60e51b815260206004820152601b60248201527f536166654d6174683a206164646974696f6e206f766572666c6f770000000000604482015290519081900360640190fd5b90505b92915050565b60006110f230611ab0565b15905090565b600054610100900460ff168061111157506111116110e7565b8061111f575060005460ff16155b61115a5760405162461bcd60e51b815260040180806020018281038252602e81526020018061578c602e913960400191505060405180910390fd5b600054610100900460ff16158015611185576000805460ff1961ff0019909116610100171660011790555b8015611197576000805461ff00191690555b50565b600054610100900460ff16806111b357506111b36110e7565b806111c1575060005460ff16155b6111fc5760405162461bcd60e51b815260040180806020018281038252602e81526020018061578c602e913960400191505060405180910390fd5b600054610100900460ff16158015611227576000805460ff1961ff0019909116610100171660011790555b6000611231611579565b603380546001600160a01b0319166001600160a01b038316908117909155604051919250906000907f8be0079c531659141344cd1fd0a4f28419497f9722a3daafe3b4186f6b6457e0908290a3508015611197576000805461ff001916905550565b600054610100900460ff16806112ac57506112ac6110e7565b806112ba575060005460ff16155b6112f55760405162461bcd60e51b815260040180806020018281038252602e81526020018061578c602e913960400191505060405180910390fd5b600054610100900460ff16158015611320576000805460ff1961ff0019909116610100171660011790555b6111856040518060400160405280600881526020016745786368616e676560c01b815250604051806040016040528060018152602001601960f91b815250611ab6565b7f36c25de3e541d5d970f66e4210d728721220fff5c077cc6cd008b3a0c62adab7828051906020012082805190602001203061139d611b77565b60405160200180868152602001858152602001848152602001836001600160a01b031681526020018281526020019550505050505060405160208183030381529060405280519060200120610192819055505050565b60976020527f4532fa16f071d6234e30e1a1e69b9806f04095edf37a1ca7a25c8d6af7861cc080546001600160a01b039283166001600160a01b0319918216179091557f30a684095c937b5aa064dcf94f9903a7d808e3efb22d8389dbd43080ad4ed3d5805493909216928116831790915563025ceed960e61b6000527f4b5822151ea34b7c8d9e37c3e466bcecb631efe6a9f26a4a4054110a93dd316f80549091169091179055565b600054610100900460ff16806114b657506114b66110e7565b806114c4575060005460ff16155b6114ff5760405162461bcd60e51b815260040180806020018281038252602e81526020018061578c602e913960400191505060405180910390fd5b600054610100900460ff1615801561152a576000805460ff1961ff0019909116610100171660011790555b61015f84905561016180546001600160a01b038086166001600160a01b0319928316179092556101608054928516929091169190911790558015610e71576000805461ff001916905550505050565b6000611583611b81565b905090565b60e08101516000906001600160e01b031916632611a13360e11b14806115bc575060e08201516001600160e01b0319908116145b156116315781516020830151516115d290611bdd565b6060840151516115e190611bdd565b846080015160405160200180856001600160a01b03168152602001848152602001838152602001828152602001945050505050604051602081830303815290604052805190602001209050610f95565b815160208301515161164290611bdd565b60608401515161165190611bdd565b846080015185610100015160405160200180866001600160a01b0316815260200185815260200184815260200183815260200180602001828103825283818151815260200191508051906020019080838360005b838110156116bd5781810151838201526020016116a5565b50505050905090810190601f1680156116ea5780820380516001836020036101000a031916815260200191505b509650505050505050604051602081830303815290604052805190602001209050610f95565b61171982611c47565b6117238282611d11565b5050565b6000806117348484611fe6565b9150915060006117438561207f565b905060006117508561207f565b90506000611768878785604001518560400151612268565b90506000806118c96040518060a0016040528060405180604001604052808b8152602001876000015181525081526020018760000151815260200187602001518152602001609760008b600001516001600160e01b0319166001600160e01b031916815260200190815260200160002060009054906101000a90046001600160a01b03166001600160a01b031681526020018b600001516001600160a01b03168152506040518060a0016040528060405180604001604052808b8152602001886020015181525081526020018760000151815260200187602001518152602001609760008b600001516001600160e01b0319166001600160e01b031916815260200190815260200160002060009054906101000a90046001600160a01b03166001600160a01b031681526020018b600001516001600160a01b03168152506118c48a600001518a600001518e60e001518e60e001518c8c6123a5565b612408565b885191935091506001600160e01b0319166355575f5d60e11b14156119485785516001600160e01b0319166355575f5d60e11b141561190757600080fd5b813410156119275760405162461bcd60e51b8152600401610ca29061551e565b813411156119435761194361193c3484612517565b3390612574565b611997565b85516001600160e01b0319166355575f5d60e11b141561199757803410156119825760405162461bcd60e51b8152600401610ca29061551e565b803411156119975761199761193c3483612517565b602083015183516040517ff7f3111fa896b22b4c2b4d808aba59e9fab4e40a697881d951f4ba91011b9df6926119ce9290916155d6565b60405180910390a1505050505050505050565b60006040518060800160405280604381526020016156b460439139805190602001208260000151836020015184604001518051906020012060405160200180858152602001848152602001836001600160a01b03168152602001828152602001945050505050604051602081830303815290604052805190602001209050919050565b6000611a6e61260c565b82604051602001808061190160f01b81525060020183815260200182815260200192505050604051602081830303815290604052805190602001209050919050565b3b151590565b600054610100900460ff1680611acf5750611acf6110e7565b80611add575060005460ff16155b611b185760405162461bcd60e51b815260040180806020018281038252602e81526020018061578c602e913960400191505060405180910390fd5b600054610100900460ff16158015611b43576000805460ff1961ff0019909116610100171660011790555b825160208085019190912083519184019190912060c99190915560ca558015611b72576000805461ff00191690555b505050565b6000611583612613565b600033301415611bd857600080368080601f0160208091040260200160405190810160405280939291908181526020018383808284376000920191909152505050503601516001600160a01b03169150610b9b9050565b503390565b8051602091820151805190830120604080517f452a0dc408cb0d27ffc3b3caff933a5208040a53a9dbecd8d89cad2c0d40e00c818601526001600160e01b031990931683820152606080840192909252805180840390920182526080909201909152805191012090565b60a08101511580611c5b5750428160a00151105b611cac576040805162461bcd60e51b815260206004820152601d60248201527f4f726465722073746172742076616c69646174696f6e206661696c6564000000604482015290519081900360640190fd5b60c08101511580611cc05750428160c00151115b611197576040805162461bcd60e51b815260206004820152601b60248201527f4f7264657220656e642076616c69646174696f6e206661696c65640000000000604482015290519081900360640190fd5b6080820151611daf5781516001600160a01b031615611d965781516001600160a01b0316611d3d611579565b6001600160a01b031614611d91576040805162461bcd60e51b815260206004820152601660248201527536b0b5b2b91034b9903737ba103a3c1039b2b73232b960511b604482015290519081900360640190fd5b611daa565b611d9e611579565b6001600160a01b031682525b611723565b81516001600160a01b0316611dc2611579565b6001600160a01b031614611723576000611ddb83612617565b90506000825160411415611dff57611dfc83611df684612707565b90612711565b90505b83516001600160a01b03828116911614611f9f578351611e27906001600160a01b0316611ab0565b15611f63578351630b135d3f60e11b906001600160a01b0316631626ba7e611e4e85612707565b866040518363ffffffff1660e01b81526004018083815260200180602001828103825283818151815260200191508051906020019080838360005b83811015611ea1578181015183820152602001611e89565b50505050905090810190601f168015611ece5780820380516001836020036101000a031916815260200191505b50935050505060206040518083038186803b158015611eec57600080fd5b505afa158015611f00573d6000803e3d6000fd5b505050506040513d6020811015611f1657600080fd5b50516001600160e01b03191614611f5e5760405162461bcd60e51b815260040180806020018281038252602b815260200180615761602b913960400191505060405180910390fd5b611f9a565b60405162461bcd60e51b815260040180806020018281038252602281526020018061573f6022913960400191505060405180910390fd5b610e71565b83516001600160a01b0316610e71576040805162461bcd60e51b815260206004820152600860248201526737379036b0b5b2b960c11b604482015290519081900360640190fd5b611fee614538565b611ff6614538565b60208401515160608401515161200c9190612791565b80519092506001600160e01b0319166120375760405162461bcd60e51b8152600401610ca2906154af565b60608401515160208401515161204d9190612791565b80519091506001600160e01b0319166120785760405162461bcd60e51b8152600401610ca2906154af565b9250929050565b612087614550565b60e08201516001600160e01b031916632611a13360e11b14156120c85760006120b48361010001516127d1565b80518352602090810151908301525061224f565b60e08201516001600160e01b0319166323d235ef60e01b14156121155760006120f58361010001516127ed565b80518352602080820151908401526040908101511515908301525061224f565b60e08201516001600160e01b031916632fa3cfd360e01b1415612182576000612142836101000151612809565b90506121518160000151612825565b8252602081015160408201516121679190612887565b6020830152600160408301526060908101519082015261224f565b60e08201516001600160e01b031916630d8c66fb60e11b14156121e65760006121af8361010001516129ea565b90506121be8160000151612825565b8252602081015160408201516121d49190612887565b6020830152506000604082015261224f565b60e08201516001600160e01b031990811614156122025761224f565b6040805162461bcd60e51b815260206004820152601760248201527f556e6b6e6f776e204f7264657220646174612074797065000000000000000000604482015290519081900360640190fd5b805151610f9557815161226190612a06565b8152919050565b61227061457a565b600061227b86611588565b9050600061228886611588565b9050600061229a886080015184612aa1565b905060006122ac886080015184612aa1565b905060006122be8a8a85858c8c612ac6565b9050600081602001511180156122d45750805115155b6122f05760405162461bcd60e51b8152600401610ca29061544f565b60808a01511561234357871561232257805161230d908490611084565b600086815261012f6020526040902055612343565b6020810151612332908490611084565b600086815261012f60205260409020555b608089015115612396578615612378576020810151612363908390611084565b600085815261012f6020526040902055612396565b8051612385908390611084565b600085815261012f60205260409020555b9450505050505b949350505050565b6123ad614594565b6123b685612b4c565b81526123c28787612b99565b816040019060028111156123d257fe5b908160028111156123df57fe5b815250506123f98585858585604001518660000151612c6a565b60208201529695505050505050565b825160209081015183519091015160018360400151600281111561242857fe5b141561247257612442858585600001518660200151612e20565b915061246d84600001516000015185600001516020015186608001518860200151886060015161309c565b61250f565b60028360400151600281111561248457fe5b14156124c95761249e848685600001518660200151612e20565b905061246d85600001516000015186600001516020015187608001518760200151896060015161309c565b8451805160209182015160808801519287015160608901516124ec94919061309c565b83518051602091820151608087015192880151606088015161250f94919061309c565b935093915050565b60008282111561256e576040805162461bcd60e51b815260206004820152601e60248201527f536166654d6174683a207375627472616374696f6e206f766572666c6f770000604482015290519081900360640190fd5b50900390565b6040516000906001600160a01b0384169083908381818185875af1925050503d80600081146125bf576040519150601f19603f3d011682016040523d82523d6000602084013e6125c4565b606091505b5050905080611b72576040805162461bcd60e51b815260206004820152600f60248201526e1d1c985b9cd9995c8819985a5b1959608a1b604482015290519081900360640190fd5b6101925490565b4690565b60007f477ed43b8020849b755512278536c3766a3b4ab547519949a75f483372493f8d826000015161264c8460200151613220565b846040015161265e8660600151613220565b86608001518760a001518860c001518960e001518a610100015180519060200120604051602001808b81526020018a6001600160a01b03168152602001898152602001886001600160a01b03168152602001878152602001868152602001858152602001848152602001836001600160e01b03191681526020018281526020019a5050505050505050505050604051602081830303815290604052805190602001209050919050565b6000611a6e613290565b60008151604114612769576040805162461bcd60e51b815260206004820152601f60248201527f45434453413a20696e76616c6964207369676e6174757265206c656e67746800604482015290519081900360640190fd5b60208201516040830151606084015160001a612787868285856132cb565b9695505050505050565b612799614538565b60006127a58484613521565b80519091506001600160e01b0319166127ca576127c28385613521565b9150506110e1565b90506110e1565b6127d96145bf565b818060200190518101906110e19190614e39565b6127f56145d9565b818060200190518101906110e19190614ec5565b6128116145fc565b818060200190518101906110e19190614fc5565b60608082156110e15760408051600180825281830190925290816020015b61284b614624565b8152602001906001900390816128435790505090506128698361373d565b8160008151811061287657fe5b602002602001018190525092915050565b60608060008411801561289a5750600083115b15612915576040805160028082526060820190925290816020015b6128bd614624565b8152602001906001900390816128b55790505090506128db8461373d565b816000815181106128e857fe5b60200260200101819052506128fc8361373d565b8160018151811061290957fe5b60200260200101819052505b600084118015612923575082155b1561297c5760408051600180825281830190925290816020015b612945614624565b81526020019060019003908161293d5790505090506129638461373d565b8160008151811061297057fe5b60200260200101819052505b8315801561298a5750600083115b156110de5760408051600180825281830190925290816020015b6129ac614624565b8152602001906001900390816129a45790505090506129ca8361373d565b816000815181106129d757fe5b6020026020010181905250905092915050565b6129f261463b565b818060200190518101906110e19190614f71565b60408051600180825281830190925260609160009190816020015b612a29614624565b815260200190600190039081612a215790505090508281600081518110612a4c57fe5b6020026020010151600001906001600160a01b031690816001600160a01b03168152505061271081600081518110612a8057fe5b6020908102919091018101516001600160601b039092169101529050919050565b600082612ab0575060006110e1565b50600090815261012f6020526040902054919050565b612ace61457a565b600080612adc898887613765565b91509150600080612aee8a8988613765565b9150915083811115612b2157612b1684848c60200151602001518d60600151602001516137de565b945050505050612787565b612b3d8b60200151602001518c60600151602001518484613863565b9b9a5050505050505050505050565b60006001600160e01b03198216632fa3cfd360e01b1480612b7d57506001600160e01b03198216630d8c66fb60e11b145b15612b9157612b8a6138e9565b9050610f95565b506000919050565b60006001600160e01b031983166355575f5d60e11b1415612bbc575060016110e1565b6001600160e01b031982166355575f5d60e11b1415612bdd575060026110e1565b6001600160e01b031983166322ba176160e21b1415612bfe575060016110e1565b6001600160e01b031982166322ba176160e21b1415612c1f575060026110e1565b6001600160e01b0319831663025ceed960e61b1415612c40575060016110e1565b6001600160e01b0319821663025ceed960e61b1415612c61575060026110e1565b50600092915050565b60006001600160e01b03198716632fa3cfd360e01b14801590612c9e57506001600160e01b03198616632fa3cfd360e01b14155b8015612cbb57506001600160e01b03198716630d8c66fb60e11b14155b8015612cd857506001600160e01b03198616630d8c66fb60e11b14155b15612ce557506000612787565b6000612cfa83876020015187602001516138f0565b905060006001856002811115612d0c57fe5b1415612d69575060608501516001600160e01b03198916630d8c66fb60e11b148015612d4857506001600160e01b03198816632fa3cfd360e01b145b612d645760405162461bcd60e51b8152600401610ca290615325565b612dda565b6002856002811115612d7757fe5b1415612dcf575060608601516001600160e01b03198816630d8c66fb60e11b148015612db357506001600160e01b03198916632fa3cfd360e01b145b612d645760405162461bcd60e51b8152600401610ca2906153b7565b600092505050612787565b600081118015612dea5750818110155b8015612df857506103e88111155b612e145760405162461bcd60e51b8152600401610ca290615391565b98975050505050505050565b6000612e3a8560000151602001518487604001518561397a565b90506000612e64828760000151602001518860800151878a60000151600001518b606001516139da565b865180518751516020808a015193015160808b015160608c0151959650612e92959394929387929190613aa0565b90508560400151516001148015612eae57508460400151516001145b8015612f0357508560400151600081518110612ec657fe5b6020026020010151600001516001600160a01b03168560400151600081518110612eec57fe5b6020026020010151600001516001600160a01b0316145b1561301957604080516001808252818301909252600091816020015b612f27614624565b815260200190600190039081612f1f5790505090508560400151600081518110612f4d57fe5b60200260200101516000015181600081518110612f6657fe5b60209081029190910101516001600160a01b03909116905260408701518051600090612f8e57fe5b6020026020010151602001518660400151600081518110612fab57fe5b6020026020010151602001510181600081518110612fc557fe5b6020026020010151602001906001600160601b031690816001600160601b03168152505061300f87600001516000015183896000015160200151848b608001518c60600151613ba5565b5091506130729050565b6130438660000151600001518288600001516020015189604001518a608001518b60600151613ba5565b5086518051602090910151604088015160808a015160608b015194955061306e948693929190613ba5565b5090505b61309386600001516000015182886080015188602001518a6060015161309c565b50949350505050565b60008251116130bd5760405162461bcd60e51b8152600401610ca29061534d565b600084815b600185510381101561318c5760006131038683815181106130df57fe5b6020026020010151602001516001600160601b031689613c7190919063ffffffff16565b905061313886838151811061311457fe5b6020026020010151602001516001600160601b03168561108490919063ffffffff16565b935080156131835761314a8382612517565b925061318360405180604001604052808b8152602001838152508888858151811061317157fe5b60200260200101516000015188613c89565b506001016130c2565b5060008460018651038151811061319f57fe5b602002602001015190506131c981602001516001600160601b03168461108490919063ffffffff16565b925082612710146131ec5760405162461bcd60e51b8152600401610ca290615478565b81156132165761321660405180604001604052808a81526020018481525087836000015187613c89565b5050505050505050565b60007fdb6f72e915676cfc289da13bc4ece054fd17b1df6d77ffc4a60510718c236b086132508360000151611bdd565b8360200151604051602001808481526020018381526020018281526020019350505050604051602081830303815290604052805190602001209050919050565b60006115837f8b73c3c69bb8fe3d512ecc4cf759cc79239f7b179b0ffacaa9a75d522b39400f6132be614071565b6132c6614077565b61407d565b60007f7fffffffffffffffffffffffffffffff5d576e7357a4501ddfe92f46681b20a082111561332c5760405162461bcd60e51b815260040180806020018281038252602281526020018061571d6022913960400191505060405180910390fd5b6000601e8560ff161115613406576004850360ff16601b148061335557506004850360ff16601c145b6133905760405162461bcd60e51b81526004018080602001828103825260228152602001806157ba6022913960400191505060405180910390fd5b600161339b876140df565b60048703868660405160008152602001604052604051808581526020018460ff1681526020018381526020018281526020019450505050506020604051602081039080840390855afa1580156133f5573d6000803e3d6000fd5b5050506020604051035190506134bd565b8460ff16601b148061341b57508460ff16601c145b6134565760405162461bcd60e51b81526004018080602001828103825260228152602001806157ba6022913960400191505060405180910390fd5b60018686868660405160008152602001604052604051808581526020018460ff1681526020018381526020018281526020019450505050506020604051602081039080840390855afa1580156134b0573d6000803e3d6000fd5b5050506020604051035190505b6001600160a01b038116613518576040805162461bcd60e51b815260206004820152601860248201527f45434453413a20696e76616c6964207369676e61747572650000000000000000604482015290519081900360640190fd5b95945050505050565b613529614538565b825182516001600160e01b031982166355575f5d60e11b1415613594576001600160e01b031981166355575f5d60e11b14156135695784925050506110e1565b50506040805180820182526000808252825160208181019094529081529181019190915290506110e1565b6001600160e01b031982166322ba176160e21b14156135d9576001600160e01b031981166322ba176160e21b1415613569576135d08585614130565b925050506110e1565b6001600160e01b031982166339d690a360e11b1415613615576001600160e01b031981166339d690a360e11b1415613569576135d08585614130565b6001600160e01b0319821663025ceed960e61b1415613651576001600160e01b0319811663025ceed960e61b1415613569576135d08585614130565b6001600160e01b031982166000908152606560205260409020546001600160a01b03168015613706576040516306d3f7cb60e41b81526001600160a01b03821690636d3f7cb0906136a8908990899060040161556b565b60006040518083038186803b1580156136c057600080fd5b505afa1580156136d4573d6000803e3d6000fd5b505050506040513d6000823e601f3d908101601f191682016040526136fc9190810190614dae565b93505050506110e1565b6001600160e01b03198381169083161415613725576136fc8686614130565b60405162461bcd60e51b8152600401610ca290615289565b613745614624565b8115610f95576001600160a01b038216815260a09190911c602082015290565b60008082156137a45760208086015101516137809085612517565b915061379d8560600151602001518660200151602001518461418d565b905061250f565b6060850151602001516137b79085612517565b90506137d48560200151602001518660600151602001518361418d565b9150935093915050565b6137e661457a565b60006137f385858561418d565b90508581111561384a576040805162461bcd60e51b815260206004820152601860248201527f66696c6c4c6566743a20756e61626c6520746f2066696c6c0000000000000000604482015290519081900360640190fd5b5050604080518082019091529384525050602082015290565b61386b61457a565b600061387883878761418d565b9050838111156138cf576040805162461bcd60e51b815260206004820152601960248201527f66696c6c52696768743a20756e61626c6520746f2066696c6c00000000000000604482015290519081900360640190fd5b604080518082019091529283526020830152509392505050565b61015f5490565b600083815b84518110156139305784818151811061390a57fe5b6020026020010151602001516001600160601b03168201915080806001019150506138f5565b5060005b835181101561396f5783818151811061394957fe5b6020026020010151602001516001600160601b0316820191508080600101915050613934565b5090505b9392505050565b6000811561398957508361239d565b600061399f6139988787613c71565b8790611084565b905060005b84518110156139d0576139c66139bf8683815181106130df57fe5b8390611084565b91506001016139a4565b5095945050505050565b60008060006139ea8989886141eb565b90925090508015613a945784516000906001600160e01b0319166322ba176160e21b1415613a31578560200151806020019051810190613a2a91906149e9565b9050613a6a565b85516001600160e01b03191663025ceed960e61b1415613a6a5760008660200151806020019051810190613a659190614bf5565b509150505b613a9260405180604001604052808881526020018481525089613a8c8461420d565b88613c89565b505b50979650505050505050565b600080613aac8861424c565b905080516001148015613ac0575086516001145b8015613b0d575086600081518110613ad457fe5b6020026020010151600001516001600160a01b031681600081518110613af657fe5b6020026020010151600001516001600160a01b0316145b15613b5e5761138881600081518110613b2257fe5b6020026020010151602001516001600160601b03161115613b555760405162461bcd60e51b8152600401610ca2906152c0565b85915050613b9a565b600080613b6f8b8989868a8a613ba5565b91509150611388811115613b955760405162461bcd60e51b8152600401610ca2906152c0565b509150505b979650505050505050565b846000805b8551811015613c6557613be6868281518110613bc257fe5b6020026020010151602001516001600160601b03168361108490919063ffffffff16565b9150600080613c16858a8a8681518110613bfc57fe5b6020026020010151602001516001600160601b03166141eb565b90955085925090508015613c5b57613c5b60405180604001604052808d815260200183815250888a8681518110613c4957fe5b60200260200101516000015189613c89565b5050600101613baa565b50965096945050505050565b60006110de612710613c8385856143c1565b9061441a565b8351516001600160e01b0319166339d690a360e11b1415613dcf57600080856000015160200151806020019051810190613cc39190614bf5565b915091508560200151600114613ceb5760405162461bcd60e51b8152600401610ca290615423565b6001600160a01b038516301415613d6357604051632142170760e11b81526001600160a01b038316906342842e0e90613d2c9030908890869060040161518b565b600060405180830381600087803b158015613d4657600080fd5b505af1158015613d5a573d6000803e3d6000fd5b50505050613dc8565b604051637b84dc8360e11b81526001600160a01b0384169063f709b90690613d9590859089908990879060040161525f565b600060405180830381600087803b158015613daf57600080fd5b505af1158015613dc3573d6000803e3d6000fd5b505050505b5050610e71565b8351516001600160e01b0319166322ba176160e21b1415613f12576000846000015160200151806020019051810190613e0891906149e9565b90506001600160a01b038416301415613ea457602085015160405163a9059cbb60e01b81526001600160a01b0383169163a9059cbb91613e4c9187916004016151e7565b602060405180830381600087803b158015613e6657600080fd5b505af1158015613e7a573d6000803e3d6000fd5b505050506040513d601f19601f82011682018060405250810190613e9e9190614d5f565b50613f0c565b602085015160405163776062c360e01b81526001600160a01b0384169163776062c391613ed99185918991899160040161525f565b600060405180830381600087803b158015613ef357600080fd5b505af1158015613f07573d6000803e3d6000fd5b505050505b50610e71565b8351516001600160e01b03191663025ceed960e61b1415613fcf57600080856000015160200151806020019051810190613f4c9190614bf5565b90925090506001600160a01b038516301415613f97576020860151604051637921219560e11b81526001600160a01b0384169163f242432a91613d2c913091899187916004016151af565b6020860151604051639c1c2ee960e01b81526001600160a01b03851691639c1c2ee991613d959186918a918a9188919060040161521c565b8351516001600160e01b0319166355575f5d60e11b1415614013576001600160a01b0382163014611f9a576020840151611f9a906001600160a01b03841690612574565b6040516354bc0cf160e01b81526001600160a01b038216906354bc0cf19061404390879087908790600401615590565b600060405180830381600087803b15801561405d57600080fd5b505af1158015613216573d6000803e3d6000fd5b60c95490565b60ca5490565b600083838361408a612613565b3060405160200180868152602001858152602001848152602001838152602001826001600160a01b03168152602001955050505050506040516020818303038152906040528051906020012090509392505050565b604080517f19457468657265756d205369676e6564204d6573736167653a0a333200000000602080830191909152603c8083019490945282518083039094018452605c909101909152815191012090565b614138614538565b602080840151805190820120838201518051920191909120808214156141625784925050506110e1565b5050604080518082018252600080825282516020808201909452908152918101919091529392505050565b600061419a848484614481565b156141dd576040805162461bcd60e51b815260206004820152600e60248201526d3937bab73234b7339032b93937b960911b604482015290519081900360640190fd5b61239d83613c8386856143c1565b600080614201856141fc8686613c71565b614510565b91509150935093915050565b6001600160a01b03808216600090815261016260205260408120549091168015614238579050610f95565b5050610161546001600160a01b0316919050565b80516060906001600160e01b03191663025ceed960e61b1480614280575081516001600160e01b0319166339d690a360e11b145b156143365760008083602001518060200190518101906142a09190614bf5565b61016054604051634e53ee3d60e11b81529294509092506001600160a01b031690639ca7dc7a906142d790859085906004016151e7565b600060405180830381600087803b1580156142f157600080fd5b505af1158015614305573d6000803e3d6000fd5b505050506040513d6000823e601f3d908101601f1916820160405261432d9190810190614d2d565b92505050610f95565b81516001600160e01b03191662737ea960e61b141561437757600082602001518060200190518101906143699190614a05565b608001519250610f95915050565b81516001600160e01b03191663d8f960c160e01b14156143b957600082602001518060200190518101906143ab9190614b02565b606001519250610f95915050565b506060919050565b6000826143d0575060006110e1565b828202828482816143dd57fe5b04146110de5760405162461bcd60e51b81526004018080602001828103825260218152602001806157dc6021913960400191505060405180910390fd5b6000808211614470576040805162461bcd60e51b815260206004820152601a60248201527f536166654d6174683a206469766973696f6e206279207a65726f000000000000604482015290519081900360640190fd5b81838161447957fe5b049392505050565b6000826144c8576040805162461bcd60e51b815260206004820152601060248201526f6469766973696f6e206279207a65726f60801b604482015290519081900360640190fd5b8115806144d3575083155b156144e057506000613973565b600083806144ea57fe5b85840990506144f985846143c1565b614505826103e86143c1565b101595945050505050565b6000808284111561452f576145258484612517565b9150829050612078565b50600093915050565b60408051808201909152600081526060602082015290565b60405180608001604052806060815260200160608152602001600015158152602001600081525090565b604051806040016040528060008152602001600081525090565b60405180606001604052806000815260200160008152602001600060028111156145ba57fe5b905290565b604051806040016040528060608152602001606081525090565b604051806060016040528060608152602001606081526020016000151581525090565b6040518060800160405280600081526020016000815260200160008152602001600081525090565b604080518082019091526000808252602082015290565b60405180606001604052806000815260200160008152602001600081525090565b8035610f9581615688565b600082601f830112614677578081fd5b8151602061468c6146878361561e565b6155fb565b82815281810190858301855b858110156146c1576146af898684518b01016147f0565b84529284019290840190600101614698565b5090979650505050505050565b600082601f8301126146de578081fd5b815160206146ee6146878361561e565b8281528181019085830160408086028801850189101561470c578687fd5b865b8681101561477b5781838b031215614724578788fd5b81518281018181106001600160401b038211171561473e57fe5b8352835161474b81615688565b8152838701516001600160601b038116811461476557898afd5b818801528552938501939181019160010161470e565b509198975050505050505050565b80518015158114610f9557600080fd5b8035610f958161569d565b600082601f8301126147b4578081fd5b81356147c26146878261563b565b8181528460208386010111156147d6578283fd5b816020850160208301379081016020019190915292915050565b600082601f830112614800578081fd5b815161480e6146878261563b565b818152846020838601011115614822578283fd5b61239d82602083016020870161565c565b60006040808385031215614845578182fd5b80518181016001600160401b03828210818311171561486057fe5b81845282945085358181111561487557600080fd5b860180880385131561488657600080fd5b60808401838110838211171561489857fe5b9094528335936148a78561569d565b938252602084013593818511156148bd57600080fd5b6148c9888683016147a4565b60608501525050815260209384013593019290925292915050565b60006101208083850312156148f7578182fd5b614900816155fb565b91505061490c8261465c565b815260208201356001600160401b038082111561492857600080fd5b61493485838601614833565b60208401526149456040850161465c565b6040840152606084013591508082111561495e57600080fd5b61496a85838601614833565b60608401526080840135608084015260a084013560a084015260c084013560c084015261499960e08501614799565b60e0840152610100915081840135818111156149b457600080fd5b6149c0868287016147a4565b8385015250505092915050565b6000602082840312156149de578081fd5b81356110de81615688565b6000602082840312156149fa578081fd5b81516110de81615688565b60008060408385031215614a17578081fd5b8251614a2281615688565b60208401519092506001600160401b0380821115614a3e578283fd5b9084019060c08287031215614a51578283fd5b614a5b60c06155fb565b82518152602083015182811115614a70578485fd5b614a7c888286016147f0565b60208301525060408301516040820152606083015182811115614a9d578485fd5b614aa9888286016146ce565b606083015250608083015182811115614ac0578485fd5b614acc888286016146ce565b60808301525060a083015182811115614ae3578485fd5b614aef88828601614667565b60a0830152508093505050509250929050565b60008060408385031215614b14578182fd5b8251614b1f81615688565b60208401519092506001600160401b0380821115614b3b578283fd5b9084019060a08287031215614b4e578283fd5b614b5860a06155fb565b82518152602083015182811115614b6d578485fd5b614b79888286016147f0565b602083015250604083015182811115614b90578485fd5b614b9c888286016146ce565b604083015250606083015182811115614bb3578485fd5b614bbf888286016146ce565b606083015250608083015182811115614bd6578485fd5b614be288828601614667565b6080830152508093505050509250929050565b60008060408385031215614c07578182fd5b8251614c1281615688565b6020939093015192949293505050565b60008060408385031215614c34578182fd5b8235614c3f81615688565b91506020830135614c4f81615688565b809150509250929050565b600080600080600060a08688031215614c71578081fd5b8535614c7c81615688565b94506020860135614c8c81615688565b9350604086013592506060860135614ca381615688565b91506080860135614cb381615688565b809150509295509295909350565b600080600080600060a08688031215614cd8578283fd5b8535614ce381615688565b945060208601356001600160401b03811115614cfd578384fd5b614d09888289016147a4565b9450506040860135925060608601359150608086013560ff81168114614cb3578182fd5b600060208284031215614d3e578081fd5b81516001600160401b03811115614d53578182fd5b61239d848285016146ce565b600060208284031215614d70578081fd5b6110de82614789565b600060208284031215614d8a578081fd5b5035919050565b60008060408385031215614da3578182fd5b8235614c3f8161569d565b600060208284031215614dbf578081fd5b81516001600160401b0380821115614dd5578283fd5b9083019060408286031215614de8578283fd5b604051604081018181108382111715614dfd57fe5b6040528251614e0b8161569d565b8152602083015182811115614e1e578485fd5b614e2a878286016147f0565b60208301525095945050505050565b600060208284031215614e4a578081fd5b81516001600160401b0380821115614e60578283fd5b9083019060408286031215614e73578283fd5b604051604081018181108382111715614e8857fe5b604052825182811115614e99578485fd5b614ea5878286016146ce565b825250602083015182811115614eb9578485fd5b614e2a878286016146ce565b600060208284031215614ed6578081fd5b81516001600160401b0380821115614eec578283fd5b9083019060608286031215614eff578283fd5b604051606081018181108382111715614f1457fe5b604052825182811115614f25578485fd5b614f31878286016146ce565b825250602083015182811115614f45578485fd5b614f51878286016146ce565b602083015250614f6360408401614789565b604082015295945050505050565b600060608284031215614f82578081fd5b604051606081018181106001600160401b0382111715614f9e57fe5b80604052508251815260208301516020820152604083015160408201528091505092915050565b600060808284031215614fd6578081fd5b604051608081018181106001600160401b0382111715614ff257fe5b8060405250825181526020830151602082015260408301516040820152606083015160608201528091505092915050565b600060208284031215615034578081fd5b81356001600160401b03811115615049578182fd5b61239d848285016148e4565b6000806000806080858703121561506a578182fd5b84356001600160401b0380821115615080578384fd5b61508c888389016148e4565b955060208701359150808211156150a1578384fd5b6150ad888389016147a4565b945060408701359150808211156150c2578384fd5b6150ce888389016148e4565b935060608701359150808211156150e3578283fd5b506150f0878288016147a4565b91505092959194509250565b60006020828403121561510d578081fd5b81356001600160401b03811681146110de578182fd5b6000815180845261513b81602086016020860161565c565b601f01601f19169290920160200192915050565b600063ffffffff60e01b825116835260208201516040602085015261239d6040850182615123565b6001600160a01b0391909116815260200190565b6001600160a01b039384168152919092166020820152604081019190915260600190565b6001600160a01b0394851681529290931660208301526040820152606081019190915260a06080820181905260009082015260c00190565b6001600160a01b03929092168252602082015260400190565b90815260200190565b6000602082526110de6020830184615123565b6001600160a01b03958616815293851660208501529190931660408301526060820192909252608081019190915260c060a0820181905260009082015260e00190565b6001600160a01b039485168152928416602084015292166040820152606081019190915260800190565b60208082526017908201527f6e6f7420666f756e64204941737365744d617463686572000000000000000000604082015260600190565b6020808252601d908201527f526f79616c746965732061726520746f6f206869676820283e35302529000000604082015260600190565b6020808252601490820152730c081cd85b1d0818d85b89dd081899481d5cd95960621b604082015260600190565b6020808252600e908201526d77726f6e6720563320747970653160901b604082015260600190565b60208082526024908201527f7472616e736665725061796f7574733a206e6f7468696e6720746f207472616e60408201526339b332b960e11b606082015260800190565b6020808252600c908201526b77726f6e67206d617846656560a01b604082015260600190565b6020808252600e908201526d3bb937b733902b19903a3cb8329960911b604082015260600190565b60208082526024908201527f72696768744f726465722e74616b657220766572696669636174696f6e2066616040820152631a5b195960e21b606082015260800190565b60208082526012908201527132b9319b9918903b30b63ab29032b93937b960711b604082015260600190565b6020808252600f908201526e1b9bdd1a1a5b99c81d1bc8199a5b1b608a1b604082015260600190565b6020808252601e908201527f53756d207061796f75747320427073206e6f7420657175616c20313030250000604082015260600190565b6020808252601290820152710c2e6e6cae8e640c8dedc4ee840dac2e8c6d60731b604082015260600190565b60208082526023908201527f6c6566744f726465722e74616b657220766572696669636174696f6e206661696040820152621b195960ea1b606082015260800190565b6020808252600e908201526d0dcdee840cadcdeeaced040cae8d60931b604082015260600190565b6020808252600b908201526a3737ba10309036b0b5b2b960a91b604082015260600190565b60006040825261557e604083018561514f565b8281036020840152613518818561514f565b6000606082528451604060608401526155ac60a084018261514f565b60209687015160808501526001600160a01b03958616968401969096525050911660409091015290565b918252602082015260400190565b9182526001600160401b0316602082015260400190565b6040518181016001600160401b038111828210171561561657fe5b604052919050565b60006001600160401b0382111561563157fe5b5060209081020190565b60006001600160401b0382111561564e57fe5b50601f01601f191660200190565b60005b8381101561567757818101518382015260200161565f565b83811115610e715750506000910152565b6001600160a01b038116811461119757600080fd5b6001600160e01b03198116811461119757600080fdfe4d6574615472616e73616374696f6e2875696e74323536206e6f6e63652c616464726573732066726f6d2c62797465732066756e6374696f6e5369676e6174757265294f776e61626c653a206e6577206f776e657220697320746865207a65726f206164647265737345434453413a20696e76616c6964207369676e6174757265202773272076616c75656f72646572207369676e617475726520766572696669636174696f6e206572726f72636f6e7472616374206f72646572207369676e617475726520766572696669636174696f6e206572726f72496e697469616c697a61626c653a20636f6e747261637420697320616c726561647920696e697469616c697a656445434453413a20696e76616c6964207369676e6174757265202776272076616c7565536166654d6174683a206d756c7469706c69636174696f6e206f766572666c6f774f776e61626c653a2063616c6c6572206973206e6f7420746865206f776e65725369676e657220616e64207369676e617475726520646f206e6f74206d61746368a2646970667358221220f9795583b55110c9facfc1b2c25001d6c7e71390d5c7cd789170673d4ea015bd64736f6c63430007060033",
  "immutableReferences": {},
  "source": "// SPDX-License-Identifier: MIT\n\npragma solidity 0.7.6;\npragma abicoder v2;\n\nimport \"./ExchangeV2Core.sol\";\nimport \"@rarible/meta-tx/contracts/EIP712MetaTransaction.sol\";\nimport \"@rarible/transfer-manager/contracts/RaribleTransferManager.sol\";\n\ncontract ExchangeMetaV2 is ExchangeV2Core, RaribleTransferManager, EIP712MetaTransaction {\n    function __ExchangeV2_init(\n        address _transferProxy,\n        address _erc20TransferProxy,\n        uint newProtocolFee,\n        address newDefaultFeeReceiver,\n        IRoyaltiesProvider newRoyaltiesProvider\n    ) external initializer {\n        __Context_init_unchained();\n        __Ownable_init_unchained();\n        __OrderValidator_init_unchained();\n        __MetaTransaction_init_unchained(\"ExchangeMetaV2\", \"1\");\n        __TransferExecutor_init_unchained(_transferProxy, _erc20TransferProxy);\n        __RaribleTransferManager_init_unchained(newProtocolFee, newDefaultFeeReceiver, newRoyaltiesProvider);\n    }\n\n    function _msgSender() internal view virtual override(ContextUpgradeable, EIP712MetaTransaction) returns (address payable) {\n        return super._msgSender();\n    }\n\n    function getProtocolFee() internal override view returns(uint) {\n        return protocolFee;\n    }\n\n}\n",
  "sourcePath": "@rarible/exchange-v2/contracts/ExchangeMetaV2.sol",
  "compiler": {
    "name": "solc",
    "version": "0.7.6+commit.7338295f.Emscripten.clang"
  },
  "schemaVersion": "3.4.3",
  "updatedAt": "2022-06-22T20:17:09.840Z",
  "devdoc": {
    "kind": "dev",
    "methods": {
      "owner()": {
        "details": "Returns the address of the current owner."
      },
      "renounceOwnership()": {
        "details": "Leaves the contract without owner. It will not be possible to call `onlyOwner` functions anymore. Can only be called by the current owner. NOTE: Renouncing ownership will leave the contract without an owner, thereby removing any functionality that is only available to the owner."
      },
      "transferOwnership(address)": {
        "details": "Transfers ownership of the contract to a new account (`newOwner`). Can only be called by the current owner."
      }
    },
    "version": 1
  },
  "userdoc": {
    "kind": "user",
    "methods": {},
    "version": 1
  }
}