{
  "contractName": "ExchangeWrapper",
  "abi": [
    {
      "inputs": [
        {
          "internalType": "address",
          "name": "_wyvernExchange",
          "type": "address"
        },
        {
          "internalType": "address",
          "name": "_exchangeV2",
          "type": "address"
        },
        {
          "internalType": "address",
          "name": "_seaPort",
          "type": "address"
        },
        {
          "internalType": "address",
          "name": "_x2y2",
          "type": "address"
        },
        {
          "internalType": "address",
          "name": "_looksRare",
          "type": "address"
        }
      ],
      "stateMutability": "nonpayable",
      "type": "constructor"
    },
    {
      "anonymous": false,
      "inputs": [
        {
          "indexed": false,
          "internalType": "bool",
          "name": "result",
          "type": "bool"
        }
      ],
      "name": "Execution",
      "type": "event"
    },
    {
      "anonymous": false,
      "inputs": [
        {
          "indexed": true,
          "internalType": "address",
          "name": "previousOwner",
          "type": "address"
        },
        {
          "indexed": true,
          "internalType": "address",
          "name": "newOwner",
          "type": "address"
        }
      ],
      "name": "OwnershipTransferred",
      "type": "event"
    },
    {
      "anonymous": false,
      "inputs": [
        {
          "indexed": false,
          "internalType": "bool",
          "name": "paused",
          "type": "bool"
        }
      ],
      "name": "Paused",
      "type": "event"
    },
    {
      "inputs": [],
      "name": "exchangeV2",
      "outputs": [
        {
          "internalType": "address",
          "name": "",
          "type": "address"
        }
      ],
      "stateMutability": "view",
      "type": "function"
    },
    {
      "inputs": [],
      "name": "looksRare",
      "outputs": [
        {
          "internalType": "address",
          "name": "",
          "type": "address"
        }
      ],
      "stateMutability": "view",
      "type": "function"
    },
    {
      "inputs": [
        {
          "internalType": "address",
          "name": "",
          "type": "address"
        },
        {
          "internalType": "address",
          "name": "",
          "type": "address"
        },
        {
          "internalType": "uint256[]",
          "name": "",
          "type": "uint256[]"
        },
        {
          "internalType": "uint256[]",
          "name": "",
          "type": "uint256[]"
        },
        {
          "internalType": "bytes",
          "name": "",
          "type": "bytes"
        }
      ],
      "name": "onERC1155BatchReceived",
      "outputs": [
        {
          "internalType": "bytes4",
          "name": "",
          "type": "bytes4"
        }
      ],
      "stateMutability": "nonpayable",
      "type": "function"
    },
    {
      "inputs": [
        {
          "internalType": "address",
          "name": "",
          "type": "address"
        },
        {
          "internalType": "address",
          "name": "",
          "type": "address"
        },
        {
          "internalType": "uint256",
          "name": "",
          "type": "uint256"
        },
        {
          "internalType": "uint256",
          "name": "",
          "type": "uint256"
        },
        {
          "internalType": "bytes",
          "name": "",
          "type": "bytes"
        }
      ],
      "name": "onERC1155Received",
      "outputs": [
        {
          "internalType": "bytes4",
          "name": "",
          "type": "bytes4"
        }
      ],
      "stateMutability": "nonpayable",
      "type": "function"
    },
    {
      "inputs": [
        {
          "internalType": "address",
          "name": "",
          "type": "address"
        },
        {
          "internalType": "address",
          "name": "",
          "type": "address"
        },
        {
          "internalType": "uint256",
          "name": "",
          "type": "uint256"
        },
        {
          "internalType": "bytes",
          "name": "",
          "type": "bytes"
        }
      ],
      "name": "onERC721Received",
      "outputs": [
        {
          "internalType": "bytes4",
          "name": "",
          "type": "bytes4"
        }
      ],
      "stateMutability": "nonpayable",
      "type": "function"
    },
    {
      "inputs": [],
      "name": "owner",
      "outputs": [
        {
          "internalType": "address",
          "name": "",
          "type": "address"
        }
      ],
      "stateMutability": "view",
      "type": "function"
    },
    {
      "inputs": [
        {
          "internalType": "bool",
          "name": "_paused",
          "type": "bool"
        }
      ],
      "name": "pause",
      "outputs": [],
      "stateMutability": "nonpayable",
      "type": "function"
    },
    {
      "inputs": [],
      "name": "paused",
      "outputs": [
        {
          "internalType": "bool",
          "name": "",
          "type": "bool"
        }
      ],
      "stateMutability": "view",
      "type": "function"
    },
    {
      "inputs": [],
      "name": "renounceOwnership",
      "outputs": [],
      "stateMutability": "nonpayable",
      "type": "function"
    },
    {
      "inputs": [],
      "name": "seaPort",
      "outputs": [
        {
          "internalType": "address",
          "name": "",
          "type": "address"
        }
      ],
      "stateMutability": "view",
      "type": "function"
    },
    {
      "inputs": [
        {
          "internalType": "bytes4",
          "name": "interfaceId",
          "type": "bytes4"
        }
      ],
      "name": "supportsInterface",
      "outputs": [
        {
          "internalType": "bool",
          "name": "",
          "type": "bool"
        }
      ],
      "stateMutability": "view",
      "type": "function"
    },
    {
      "inputs": [
        {
          "internalType": "address",
          "name": "newOwner",
          "type": "address"
        }
      ],
      "name": "transferOwnership",
      "outputs": [],
      "stateMutability": "nonpayable",
      "type": "function"
    },
    {
      "inputs": [],
      "name": "wyvernExchange",
      "outputs": [
        {
          "internalType": "address",
          "name": "",
          "type": "address"
        }
      ],
      "stateMutability": "view",
      "type": "function"
    },
    {
      "inputs": [],
      "name": "x2y2",
      "outputs": [
        {
          "internalType": "address",
          "name": "",
          "type": "address"
        }
      ],
      "stateMutability": "view",
      "type": "function"
    },
    {
      "stateMutability": "payable",
      "type": "receive"
    },
    {
      "inputs": [
        {
          "components": [
            {
              "internalType": "enum ExchangeWrapper.Markets",
              "name": "marketId",
              "type": "uint8"
            },
            {
              "internalType": "uint256",
              "name": "amount",
              "type": "uint256"
            },
            {
              "internalType": "uint256",
              "name": "fees",
              "type": "uint256"
            },
            {
              "internalType": "bytes",
              "name": "data",
              "type": "bytes"
            }
          ],
          "internalType": "struct ExchangeWrapper.PurchaseDetails",
          "name": "purchaseDetails",
          "type": "tuple"
        },
        {
          "internalType": "address",
          "name": "feeRecipientFirst",
          "type": "address"
        },
        {
          "internalType": "address",
          "name": "feeRecipientSecond",
          "type": "address"
        }
      ],
      "name": "singlePurchase",
      "outputs": [],
      "stateMutability": "payable",
      "type": "function"
    },
    {
      "inputs": [
        {
          "components": [
            {
              "internalType": "enum ExchangeWrapper.Markets",
              "name": "marketId",
              "type": "uint8"
            },
            {
              "internalType": "uint256",
              "name": "amount",
              "type": "uint256"
            },
            {
              "internalType": "uint256",
              "name": "fees",
              "type": "uint256"
            },
            {
              "internalType": "bytes",
              "name": "data",
              "type": "bytes"
            }
          ],
          "internalType": "struct ExchangeWrapper.PurchaseDetails[]",
          "name": "purchaseDetails",
          "type": "tuple[]"
        },
        {
          "internalType": "address",
          "name": "feeRecipientFirst",
          "type": "address"
        },
        {
          "internalType": "address",
          "name": "feeRecipientSecond",
          "type": "address"
        },
        {
          "internalType": "bool",
          "name": "allowFail",
          "type": "bool"
        }
      ],
      "name": "bulkPurchase",
      "outputs": [],
      "stateMutability": "payable",
      "type": "function"
    }
  ],
  "bytecode": "0x6101206040523480156200001257600080fd5b50604051620029a4380380620029a4833981016040819052620000359162000190565b600062000041620000e7565b600080546001600160a01b0319166001600160a01b0383169081178255604051929350917f8be0079c531659141344cd1fd0a4f28419497f9722a3daafe3b4186f6b6457e0908290a3506200009d6301ffc9a760e01b620000eb565b620000af630271189760e51b620000eb565b6001600160601b0319606095861b811660805293851b841660a05291841b831660c052831b821660e05290911b1661010052620001ff565b3390565b6001600160e01b031980821614156200014b576040805162461bcd60e51b815260206004820152601c60248201527f4552433136353a20696e76616c696420696e7465726661636520696400000000604482015290519081900360640190fd5b6001600160e01b0319166000908152600160208190526040909120805460ff19169091179055565b80516001600160a01b03811681146200018b57600080fd5b919050565b600080600080600060a08688031215620001a8578081fd5b620001b38662000173565b9450620001c36020870162000173565b9350620001d36040870162000173565b9250620001e36060870162000173565b9150620001f36080870162000173565b90509295509295909350565b60805160601c60a05160601c60c05160601c60e05160601c6101005160601c61273362000271600039806105265280610da45280610e3c5250806107bd5280610b175280610bab5250806103bc528061085b52508061054a5280610a0e525080610674528061093a52506127336000f3fe6080604052600436106100f75760003560e01c80639110c7771161008a578063c9f0a2fa11610059578063c9f0a2fa14610259578063f23a6e611461026e578063f2fde38b1461028e578063fc40c9c7146102ae576100fe565b80639110c777146101fc578063a05f32dc14610211578063b94ee33214610226578063bc197c8114610239576100fe565b806362c1a97d116100c657806362c1a97d1461019d578063715018a6146101bf57806386496e7a146101d45780638da5cb5b146101e7576100fe565b806301ffc9a71461010357806302329a2914610139578063150b7a021461015b5780635c975abb14610188576100fe565b366100fe57005b600080fd5b34801561010f57600080fd5b5061012361011e366004611cc1565b6102c3565b60405161013091906121a9565b60405180910390f35b34801561014557600080fd5b50610159610154366004611ca5565b6102e6565b005b34801561016757600080fd5b5061017b610176366004611a4b565b6103a1565b60405161013091906121b4565b34801561019457600080fd5b506101236103b1565b3480156101a957600080fd5b506101b26103ba565b6040516101309190612139565b3480156101cb57600080fd5b506101596103de565b6101596101e2366004611cdd565b61049c565b3480156101f357600080fd5b506101b2610515565b34801561020857600080fd5b506101b2610524565b34801561021d57600080fd5b506101b2610548565b610159610234366004611bea565b61056c565b34801561024557600080fd5b5061017b6102543660046119a2565b610661565b34801561026557600080fd5b506101b2610672565b34801561027a57600080fd5b5061017b610289366004611ab4565b610696565b34801561029a57600080fd5b506101596102a9366004611986565b6106a7565b3480156102ba57600080fd5b506101b26107bb565b6001600160e01b0319811660009081526001602052604090205460ff165b919050565b6102ee6107df565b6001600160a01b03166102ff610515565b6001600160a01b03161461035a576040805162461bcd60e51b815260206004820181905260248201527f4f776e61626c653a2063616c6c6572206973206e6f7420746865206f776e6572604482015290519081900360640190fd5b6002805482151560ff19909116811790915560408051918252517f0e2fb031ee032dc02d8011dc50b816eb450cf856abd8261680dac74f72165bd29181900360200190a150565b630a85bd0160e11b949350505050565b60025460ff1681565b7f000000000000000000000000000000000000000000000000000000000000000081565b6103e66107df565b6001600160a01b03166103f7610515565b6001600160a01b031614610452576040805162461bcd60e51b815260206004820181905260248201527f4f776e61626c653a2063616c6c6572206973206e6f7420746865206f776e6572604482015290519081900360640190fd5b600080546040516001600160a01b03909116907f8be0079c531659141344cd1fd0a4f28419497f9722a3daafe3b4186f6b6457e0908390a3600080546001600160a01b0319169055565b6104a46107e3565b60008060006104b4866000610836565b9250925092507fcc54b89ca2d75d5612023b14f0a477212b0e08bc0c5b8ad2804e2f8e2e401fc0836040516104e991906121a9565b60405180910390a16104fb8286610ff6565b6105058185610ff6565b61050d611021565b505050505050565b6000546001600160a01b031690565b7f000000000000000000000000000000000000000000000000000000000000000081565b7f000000000000000000000000000000000000000000000000000000000000000081565b6105746107e3565b6000806000805b87518110156106155760008060006105a68b858151811061059857fe5b602002602001015189610836565b92509250925084806105b55750825b94507fcc54b89ca2d75d5612023b14f0a477212b0e08bc0c5b8ad2804e2f8e2e401fc0836040516105e691906121a9565b60405180910390a16105f88783611035565b96506106048682611035565b9550506001909201915061057b9050565b508061063c5760405162461bcd60e51b8152600401610633906122d1565b60405180910390fd5b6106468387610ff6565b6106508286610ff6565b610658611021565b50505050505050565b63bc197c8160e01b95945050505050565b7f000000000000000000000000000000000000000000000000000000000000000081565b63f23a6e6160e01b95945050505050565b6106af6107df565b6001600160a01b03166106c0610515565b6001600160a01b03161461071b576040805162461bcd60e51b815260206004820181905260248201527f4f776e61626c653a2063616c6c6572206973206e6f7420746865206f776e6572604482015290519081900360640190fd5b6001600160a01b0381166107605760405162461bcd60e51b81526004018080602001828103825260268152602001806126b76026913960400191505060405180910390fd5b600080546040516001600160a01b03808516939216917f8be0079c531659141344cd1fd0a4f28419497f9722a3daafe3b4186f6b6457e091a3600080546001600160a01b0319166001600160a01b0392909216919091179055565b7f000000000000000000000000000000000000000000000000000000000000000081565b3390565b60025460ff1615610834576040805162461bcd60e51b81526020600482015260166024820152751d1a194818dbdb9d1c9858dd081a5cc81c185d5cd95960521b604482015290519081900360640190fd5b565b60208201516000908190819060028651600481111561085157fe5b14156109215760007f00000000000000000000000000000000000000000000000000000000000000006001600160a01b0316828860600151604051610896919061211d565b60006040518083038185875af1925050503d80600081146108d3576040519150601f19603f3d011682016040523d82523d6000602084013e6108d8565b606091505b5050905085156108fe57806108f95760008060009450945094505050610fef565b61091b565b8061091b5760405162461bcd60e51b81526004016106339061226e565b50610fcd565b60018651600481111561093057fe5b14156109f55760007f00000000000000000000000000000000000000000000000000000000000000006001600160a01b0316828860600151604051610975919061211d565b60006040518083038185875af1925050503d80600081146109b2576040519150601f19603f3d011682016040523d82523d6000602084013e6109b7565b606091505b5050905085156109d857806108f95760008060009450945094505050610fef565b8061091b5760405162461bcd60e51b8152600401610633906121c9565b600086516004811115610a0457fe5b1415610ac95760007f00000000000000000000000000000000000000000000000000000000000000006001600160a01b0316828860600151604051610a49919061211d565b60006040518083038185875af1925050503d8060008114610a86576040519150601f19603f3d011682016040523d82523d6000602084013e610a8b565b606091505b505090508515610aac57806108f95760008060009450945094505050610fef565b8061091b5760405162461bcd60e51b815260040161063390612237565b600386516004811115610ad857fe5b1415610d4f5760008660600151806020019051810190610af89190611d3e565b90508515610b945760405163357a150b60e01b81526001600160a01b037f0000000000000000000000000000000000000000000000000000000000000000169063357a150b908490610b4e908590600401612308565b6000604051808303818588803b158015610b6757600080fd5b505af193505050508015610b79575060015b610b8f5760008060009450945094505050610fef565b610c15565b60405163357a150b60e01b81526001600160a01b037f0000000000000000000000000000000000000000000000000000000000000000169063357a150b908490610be2908590600401612308565b6000604051808303818588803b158015610bfb57600080fd5b505af1158015610c0f573d6000803e3d6000fd5b50505050505b60005b815151811015610d485760005b8251805183908110610c3357fe5b6020026020010151610100015151811015610d3f57600083600001518381518110610c5a57fe5b602002602001015161010001518281518110610c7257fe5b602002602001015160200151806020019051810190610c919190611b1a565b905060005b8151811015610d35576000828281518110610cad57fe5b6020026020010151905080600001516001600160a01b03166342842e0e30610cd36107df565b84602001516040518463ffffffff1660e01b8152600401610cf69392919061214d565b600060405180830381600087803b158015610d1057600080fd5b505af1158015610d24573d6000803e3d6000fd5b505060019093019250610c96915050565b5050600101610c25565b50600101610c18565b5050610fcd565b600486516004811115610d5e57fe5b1415610fb55760008060008860600151806020019051810190610d819190611e06565b9250925092508715610e2557604051635a72594b60e11b81526001600160a01b037f0000000000000000000000000000000000000000000000000000000000000000169063b4e4b296908690610ddd908790879060040161248f565b6000604051808303818588803b158015610df657600080fd5b505af193505050508015610e08575060015b610e2057600080600096509650965050505050610fef565b610ea8565b604051635a72594b60e11b81526001600160a01b037f0000000000000000000000000000000000000000000000000000000000000000169063b4e4b296908690610e75908790879060040161248f565b6000604051808303818588803b158015610e8e57600080fd5b505af1158015610ea2573d6000803e3d6000fd5b50505050505b6001600160e01b031981166339d690a360e11b1415610f375781604001516001600160a01b03166342842e0e30610edd6107df565b85608001516040518463ffffffff1660e01b8152600401610f009392919061214d565b600060405180830381600087803b158015610f1a57600080fd5b505af1158015610f2e573d6000803e3d6000fd5b50505050610fad565b6001600160e01b0319811663025ceed960e61b1415610f955781604001516001600160a01b031663f242432a30610f6c6107df565b85608001518660a001516040518563ffffffff1660e01b8152600401610f009493929190612171565b60405162461bcd60e51b8152600401610633906122a5565b505050610fcd565b60405162461bcd60e51b815260040161063390612200565b600080610fe288604001518960200151611098565b6001975090955093505050505b9250925092565b60008211801561100e57506001600160a01b03811615155b1561101d5761101d81836110c9565b5050565b4780156110325761103233826110c9565b50565b60008282018381101561108f576040805162461bcd60e51b815260206004820152601b60248201527f536166654d6174683a206164646974696f6e206f766572666c6f770000000000604482015290519081900360640190fd5b90505b92915050565b60008061ffff601085901c81169085166110b28583611166565b6110bc8683611166565b9350935050509250929050565b6040516000906001600160a01b0384169083908381818185875af1925050503d8060008114611114576040519150601f19603f3d011682016040523d82523d6000602084013e611119565b606091505b5050905080611161576040805162461bcd60e51b815260206004820152600f60248201526e1d1c985b9cd9995c8819985a5b1959608a1b604482015290519081900360640190fd5b505050565b600061108f612710611178858561117e565b906111d7565b60008261118d57506000611092565b8282028284828161119a57fe5b041461108f5760405162461bcd60e51b81526004018080602001828103825260218152602001806126dd6021913960400191505060405180910390fd5b600080821161122d576040805162461bcd60e51b815260206004820152601a60248201527f536166654d6174683a206469766973696f6e206279207a65726f000000000000604482015290519081900360640190fd5b81838161123657fe5b049392505050565b80356102e18161267d565b80516102e18161267d565b600082601f830112611264578081fd5b815160206112796112748361260f565b6125ec565b82815281810190858301604080860288018501891015611297578687fd5b865b868110156112f25781838b0312156112af578788fd5b81518281018181106001600160401b03821117156112c957fe5b835283518152868401516112dc8161267d565b8188015285529385019391810191600101611299565b509198975050505050505050565b600082601f830112611310578081fd5b815160206113206112748361260f565b82815281810190858301855b858110156113a95781518801604080601f19838d0301121561134c578889fd5b80518181016001600160401b03828210818311171561136757fe5b818452848a01518352928401519280841115611381578b8cfd5b50506113918c89848601016116f6565b8189015286525050928401929084019060010161132c565b5090979650505050505050565b600082601f8301126113c6578081fd5b815160206113d66112748361260f565b82815281810190858301855b858110156113a957815188016101a080601f19838d03011215611403578889fd5b61140c816125ec565b87830151815261141e60408401611249565b88820152606083015160408201526080830151606082015260a0830151608082015260c083015160a082015261145660e08401611249565b60c08201526101008301516001600160401b0380821115611475578b8cfd5b6114838e8b848801016116f6565b60e08401526101209150818501518181111561149d578c8dfd5b6114ab8f8c83890101611300565b6101008501525050610140808501518284015261016091508185015181840152506101806114da818601611975565b828401526114e9848601611975565b90830152508652505092840192908401906001016113e2565b600082601f830112611512578081fd5b815160206115226112748361260f565b82815281810190858301855b858110156113a9578151880161016080601f19838d0301121561154f578889fd5b611558816125ec565b611563888401611741565b815260408084015189830152606080850151828401526080915081850151818401525060a0808501518284015261159c60c08601611249565b908301525060e0838101516001600160401b03808211156115bb578c8dfd5b6115c98f8c848901016116f6565b60c085015261010091508186015183850152610120925082860151828501526101409150818601518385015284860151945080851115611607578c8dfd5b506116168e8b86880101611254565b908301525086525050928401929084019060010161152e565b600082601f83011261163f578081fd5b8135602061164f6112748361260f565b828152818101908583018385028701840188101561166b578586fd5b855b858110156113a95781358452928401929084019060010161166d565b80356102e181612692565b80516102e181612692565b80516102e1816126a0565b600082601f8301126116ba578081fd5b81356116c86112748261262c565b8181528460208386010111156116dc578283fd5b816020850160208301379081016020019190915292915050565b600082601f830112611706578081fd5b81516117146112748261262c565b818152846020838601011115611728578283fd5b61173982602083016020870161264d565b949350505050565b8051600881106102e157600080fd5b6000610200808385031215611763578182fd5b61176c816125ec565b91505061177882611694565b815261178660208301611249565b602082015261179760408301611249565b6040820152606082015160608201526080820151608082015260a082015160a08201526117c660c08301611249565b60c08201526117d760e08301611249565b60e08201526101008281015190820152610120808301519082015261014080830151908201526101608083015190820152610180808301516001600160401b0381111561182357600080fd5b61182f858286016116f6565b8284015250506101a0611843818401611975565b908201526101c082810151908201526101e09182015191810191909152919050565b600060808284031215611876578081fd5b604051608081016001600160401b03828210818311171561189357fe5b8160405282935084359150600582106118ab57600080fd5b818352602085013560208401526040850135604084015260608501359150808211156118d657600080fd5b506118e3858286016116aa565b6060830152505092915050565b600060c08284031215611901578081fd5b60405160c081018181106001600160401b038211171561191d57fe5b80604052508091508251815260208301516020820152604083015160408201526060830151606082015260808301516119558161267d565b608082015260a083015161196881612692565b60a0919091015292915050565b805160ff811681146102e157600080fd5b600060208284031215611997578081fd5b813561108f8161267d565b600080600080600060a086880312156119b9578081fd5b85356119c48161267d565b945060208601356119d48161267d565b935060408601356001600160401b03808211156119ef578283fd5b6119fb89838a0161162f565b94506060880135915080821115611a10578283fd5b611a1c89838a0161162f565b93506080880135915080821115611a31578283fd5b50611a3e888289016116aa565b9150509295509295909350565b60008060008060808587031215611a60578182fd5b8435611a6b8161267d565b93506020850135611a7b8161267d565b92506040850135915060608501356001600160401b03811115611a9c578182fd5b611aa8878288016116aa565b91505092959194509250565b600080600080600060a08688031215611acb578283fd5b8535611ad68161267d565b94506020860135611ae68161267d565b9350604086013592506060860135915060808601356001600160401b03811115611b0e578182fd5b611a3e888289016116aa565b60006020808385031215611b2c578182fd5b82516001600160401b0380821115611b42578384fd5b818501915085601f830112611b55578384fd5b8151611b636112748261260f565b818152848101908486016040808502870188018b1015611b81578889fd5b8896505b84871015611bdb5780828c031215611b9b578889fd5b80518181018181108882111715611bae57fe5b82528251611bbb8161267d565b815282890151898201528452600196909601959287019290810190611b85565b50909998505050505050505050565b60008060008060808587031215611bff578182fd5b84356001600160401b03811115611c14578283fd5b8501601f81018713611c24578283fd5b80356020611c346112748361260f565b82815281810190848301875b85811015611c6957611c578d8684358a0101611865565b84529284019290840190600101611c40565b50508098505050611c7b81890161123e565b9550505050611c8c6040860161123e565b9150611c9a60608601611689565b905092959194509250565b600060208284031215611cb6578081fd5b813561108f81612692565b600060208284031215611cd2578081fd5b813561108f816126a0565b600080600060608486031215611cf1578081fd5b83356001600160401b03811115611d06578182fd5b611d1286828701611865565b9350506020840135611d238161267d565b91506040840135611d338161267d565b809150509250925092565b600060208284031215611d4f578081fd5b81516001600160401b0380821115611d65578283fd5b908301906101608286031215611d79578283fd5b611d8360c06125ec565b825182811115611d91578485fd5b611d9d878286016113b6565b825250602083015182811115611db1578485fd5b611dbd87828601611502565b602083015250611dd086604085016118f0565b604082015261010083015160608201526101208301516080820152611df86101408401611975565b60a082015295945050505050565b600080600060608486031215611e1a578081fd5b83516001600160401b0380821115611e30578283fd5b9085019060c08288031215611e43578283fd5b60405160c081018181108382111715611e5857fe5b604052611e6483611694565b8152611e7260208401611249565b602082015260408301516040820152606083015160608201526080830151608082015260a083015182811115611ea6578485fd5b611eb2898286016116f6565b60a0830152506020870151909550915080821115611ece578283fd5b50611edb86828701611750565b925050611eea6040850161169f565b90509250925092565b6001600160a01b03169052565b6000815180845260208085019450808401835b83811015611f43578151805188528301516001600160a01b03168388015260409096019590820190600101611f13565b509495945050505050565b6000815180845260208085018081965082840281019150828601855b85811015611fa85782840389528151805185528501516040868601819052611f948187018361209a565b9a87019a9550505090840190600101611f6a565b5091979650505050505050565b6000815180845260208085018081965082840281019150828601855b85811015611fa85782840389528151610160611fee8683516120c6565b818701518688015260408083015190870152606080830151908701526080808301519087015260a08083015161202682890182611ef3565b505060c080830151828289015261203f8389018261209a565b60e085810151908a015261010080860151908a015261012080860151908a015261014094850151898203958a01959095529250612080915082905083611f00565b9a87019a9550505090840190600101611fd1565b15159052565b600081518084526120b281602086016020860161264d565b601f01601f19169290920160200192915050565b600881106120d057fe5b9052565b805182526020808201519083015260408082015190830152606080820151908301526080808201516001600160a01b03169083015260a0908101511515910152565b60ff169052565b6000825161212f81846020870161264d565b9190910192915050565b6001600160a01b0391909116815260200190565b6001600160a01b039384168152919092166020820152604081019190915260600190565b6001600160a01b0394851681529290931660208301526040820152606081019190915260a06080820181905260009082015260c00190565b901515815260200190565b6001600160e01b031991909116815260200190565b6020808252601e908201527f50757263686173652077797665726e45786368616e6765206661696c65640000604082015260600190565b60208082526018908201527f556e6b6e6f776e2070757263686173652064657461696c730000000000000000604082015260600190565b60208082526017908201527f50757263686173652072617269626c65206661696c6564000000000000000000604082015260600190565b60208082526017908201527f507572636861736520536561506f7274206661696c6564000000000000000000604082015260600190565b602080825260129082015271556e6b6e6f776e20746f6b656e207479706560701b604082015260600190565b60208082526018908201527f6e6f207375636365737366756c20657865637574696f6e730000000000000000604082015260600190565b60006020808352610180808401855161016080858801528282518085526101a094508489019150848782028a01018785019450885b82811015612425578a820361019f19018452855180518352898101516123658b850182611ef3565b5060408181015190840152606080820151908401526080808201519084015260a0808201519084015260c0808201516123a082860182611ef3565b505060e08082015189828601526123b98a86018261209a565b91505061010080830151858303828701526123d48382611f4e565b925050506101208083015181860152506101408083015181860152508682015161240088860182612116565b509089015190612412848b0183612116565b968a0196948a019492505060010161233d565b50968a0151898803601f190160408b0152966124418189611fb5565b97505050506040880151935061245a60608801856120d4565b6060880151610120880152608088015161014088015260a0880151935061248381880185612116565b50929695505050505050565b60006040825261010084511515604084015260018060a01b03602086015116606084015260408501516080840152606085015160a0840152608085015160c084015260a085015160c060e08501526124e98285018261209a565b90508381036020850152610200612501828751612094565b60208601516125136020840182611ef3565b5060408601516125266040840182611ef3565b50606086015160608301526080860151608083015260a086015160a083015260c086015161255760c0840182611ef3565b5060e086015161256a60e0840182611ef3565b508583015192820192909252610120808601519082015261014080860151908201526101608086015190820152610180808601518183018490529092906125b38284018261209a565b935050506101a0808601516125ca82840182612116565b50506101c085810151908201526101e094850151940193909352509092915050565b6040518181016001600160401b038111828210171561260757fe5b604052919050565b60006001600160401b0382111561262257fe5b5060209081020190565b60006001600160401b0382111561263f57fe5b50601f01601f191660200190565b60005b83811015612668578181015183820152602001612650565b83811115612677576000848401525b50505050565b6001600160a01b038116811461103257600080fd5b801515811461103257600080fd5b6001600160e01b03198116811461103257600080fdfe4f776e61626c653a206e6577206f776e657220697320746865207a65726f2061646472657373536166654d6174683a206d756c7469706c69636174696f6e206f766572666c6f77a26469706673582212207b0ebdfcdbf876bc352371ecf10ee8447e95afb60ef34a44b9b06c6e7dfa9e3d64736f6c63430007060033",
  "immutableReferences": {
    "10812": [
      {
        "length": 32,
        "start": 1652
      },
      {
        "length": 32,
        "start": 2362
      }
    ],
    "10814": [
      {
        "length": 32,
        "start": 1354
      },
      {
        "length": 32,
        "start": 2574
      }
    ],
    "10816": [
      {
        "length": 32,
        "start": 956
      },
      {
        "length": 32,
        "start": 2139
      }
    ],
    "10818": [
      {
        "length": 32,
        "start": 1981
      },
      {
        "length": 32,
        "start": 2839
      },
      {
        "length": 32,
        "start": 2987
      }
    ],
    "10820": [
      {
        "length": 32,
        "start": 1318
      },
      {
        "length": 32,
        "start": 3492
      },
      {
        "length": 32,
        "start": 3644
      }
    ]
  },
  "source": "// SPDX-License-Identifier: MIT\n\npragma solidity 0.7.6;\npragma abicoder v2;\n\nimport \"@rarible/transfer-manager/contracts/lib/LibTransfer.sol\";\nimport \"@rarible/lib-bp/contracts/BpLibrary.sol\";\nimport \"@rarible/lib-part/contracts/LibPart.sol\";\n\nimport \"@openzeppelin/contracts/math/SafeMath.sol\";\n\nimport \"@openzeppelin/contracts/token/ERC721/ERC721Holder.sol\";\nimport \"@openzeppelin/contracts/token/ERC1155/ERC1155Holder.sol\";\n\nimport \"./interfaces/IWyvernExchange.sol\";\nimport \"./interfaces/IExchangeV2.sol\";\nimport \"./interfaces/ISeaPort.sol\";\nimport \"./interfaces/Ix2y2.sol\";\nimport \"./interfaces/ILooksRare.sol\";\n\nimport \"./libraries/IsPausable.sol\";\n\ncontract ExchangeWrapper is Ownable, ERC721Holder, ERC1155Holder, IsPausable {\n    using LibTransfer for address;\n    using BpLibrary for uint;\n    using SafeMath for uint;\n\n    address public immutable wyvernExchange;\n    address public immutable exchangeV2;\n    address public immutable seaPort;\n    address public immutable x2y2;\n    address public immutable looksRare;\n\n    event Execution(bool result);\n\n    enum Markets {\n        ExchangeV2,\n        WyvernExchange,\n        SeaPort,\n        X2Y2,\n        LooksRareOrders\n    }\n\n    /**\n        @notice struct for the purchase data\n        @param marketId - market key from Markets enum (what market to use)\n        @param amount - eth price (amount of eth that needs to be send to the marketplace)\n        @param fees - 2 fees (in base points) that are going to be taken on top of order amount encoded in 1 uint256\n                        bytes (29,30) used for the first value (goes to feeRecipientFirst)\n                        bytes (31,32) are used for the second value (goes to feeRecipientSecond)\n        @param data - data for market call \n     */\n    struct PurchaseDetails {\n        Markets marketId;\n        uint256 amount;\n        uint fees;\n        bytes data;\n    }\n\n    constructor(\n        address _wyvernExchange,\n        address _exchangeV2,\n        address _seaPort,\n        address _x2y2,\n        address _looksRare\n    ) {\n        wyvernExchange = _wyvernExchange;\n        exchangeV2 = _exchangeV2;\n        seaPort = _seaPort;\n        x2y2 = _x2y2;\n        looksRare = _looksRare;\n    }\n\n    /**\n        @notice executes a single purchase\n        @param purchaseDetails - deatails about the purchase (more info in PurchaseDetails struct)\n        @param feeRecipientFirst - address of the first fee recipient\n        @param feeRecipientSecond - address of the second fee recipient\n     */\n    function singlePurchase(PurchaseDetails memory purchaseDetails, address feeRecipientFirst, address feeRecipientSecond) external payable {\n        requireNotPaused();\n\n        (bool success, uint feeAmountFirst, uint feeAmountSecond) = purchase(purchaseDetails, false);\n        emit Execution(success);\n        \n        transferFee(feeAmountFirst, feeRecipientFirst);\n        transferFee(feeAmountSecond, feeRecipientSecond);\n\n        transferChange();\n    }\n\n    /**\n        @notice executes an array of purchases\n        @param purchaseDetails - array of deatails about the purchases (more info in PurchaseDetails struct)\n        @param feeRecipientFirst - address of the first fee recipient\n        @param feeRecipientSecond - address of the second fee recipient\n        @param allowFail - true if fails while executing orders are allowed, false if fail of a single order means fail of the whole batch\n     */\n    \n    function bulkPurchase(PurchaseDetails[] memory purchaseDetails, address feeRecipientFirst, address feeRecipientSecond, bool allowFail) external payable {\n        requireNotPaused();\n\n        uint sumFirstFees = 0;\n        uint sumSecondFees = 0;\n        bool result = false;\n\n        for (uint i = 0; i < purchaseDetails.length; i++) {\n            (bool success, uint firstFeeAmount, uint secondFeeAmount) = purchase(purchaseDetails[i], allowFail);\n\n            result = result || success;\n            emit Execution(success);\n\n            sumFirstFees = sumFirstFees.add(firstFeeAmount);\n            sumSecondFees = sumSecondFees.add(secondFeeAmount);\n        }\n\n        require(result, \"no successful executions\");\n\n        transferFee(sumFirstFees, feeRecipientFirst);\n        transferFee(sumSecondFees, feeRecipientSecond);\n\n        transferChange();\n    }\n\n    /**\n        @notice executes one purchase\n        @param purchaseDetails - details about the purchase\n        @param allowFail - true if errors are handled, false if revert on errors\n        @return result false if execution failed, true if succeded\n        @return firstFeeAmount amount of the first fee of the purchase, 0 if failed\n        @return secondFeeAmount amount of the second fee of the purchase, 0 if failed\n     */\n    function purchase(PurchaseDetails memory purchaseDetails, bool allowFail) internal returns(bool, uint, uint) {\n        uint paymentAmount = purchaseDetails.amount;\n        if (purchaseDetails.marketId == Markets.SeaPort){\n            (bool success,) = address(seaPort).call{value : paymentAmount}(purchaseDetails.data);\n            if (allowFail) {\n                if (!success) {\n                    return (false, 0, 0);\n                }\n            } else {\n                require(success, \"Purchase SeaPort failed\");\n            }\n        } else if (purchaseDetails.marketId == Markets.WyvernExchange) {\n            (bool success,) = address(wyvernExchange).call{value : paymentAmount}(purchaseDetails.data);\n            if (allowFail) {\n                if (!success) {\n                    return (false, 0, 0);\n                }\n            } else {\n                require(success, \"Purchase wyvernExchange failed\");\n            }\n        } else if (purchaseDetails.marketId == Markets.ExchangeV2) {\n            (bool success,) = address(exchangeV2).call{value : paymentAmount}(purchaseDetails.data);\n            if (allowFail) {\n                if (!success) {\n                    return (false, 0, 0);\n                }\n            } else {\n                require(success, \"Purchase rarible failed\");\n            }\n        } else if (purchaseDetails.marketId == Markets.X2Y2) {\n            Ix2y2.RunInput memory input = abi.decode(purchaseDetails.data, (Ix2y2.RunInput));\n\n            if (allowFail) {\n                try Ix2y2(x2y2).run{value : paymentAmount}(input) {\n                } catch {\n                    return (false, 0, 0);\n                }\n            } else {\n                Ix2y2(x2y2).run{value : paymentAmount}(input);\n            }\n            for (uint i = 0; i < input.orders.length; i++) {\n                for (uint j = 0; j < input.orders[i].items.length; j++) {\n                    Ix2y2.Pair[] memory pairs = abi.decode(input.orders[i].items[j].data, (Ix2y2.Pair[]));\n                    for (uint256 k = 0; k < pairs.length; k++) {\n                        Ix2y2.Pair memory p = pairs[k];\n                        IERC721Upgradeable(address(p.token)).safeTransferFrom(address(this), _msgSender(), p.tokenId);\n                    }    \n                }\n            } \n        } else if (purchaseDetails.marketId == Markets.LooksRareOrders) {\n            (LibLooksRare.TakerOrder memory takerOrder, LibLooksRare.MakerOrder memory makerOrder, bytes4 typeNft) = abi.decode(purchaseDetails.data, (LibLooksRare.TakerOrder, LibLooksRare.MakerOrder, bytes4));\n            if (allowFail) {\n                try ILooksRare(looksRare).matchAskWithTakerBidUsingETHAndWETH{value : paymentAmount}(takerOrder, makerOrder) {\n                }   catch {\n                    return (false, 0, 0);\n                }\n            } else {\n                ILooksRare(looksRare).matchAskWithTakerBidUsingETHAndWETH{value : paymentAmount}(takerOrder, makerOrder);\n            }\n            if (typeNft == LibAsset.ERC721_ASSET_CLASS) {\n                IERC721Upgradeable(makerOrder.collection).safeTransferFrom(address(this), _msgSender(), makerOrder.tokenId);\n            } else if (typeNft == LibAsset.ERC1155_ASSET_CLASS) {\n                IERC1155Upgradeable(makerOrder.collection).safeTransferFrom(address(this), _msgSender(), makerOrder.tokenId, makerOrder.amount, \"\");\n            } else {\n                revert(\"Unknown token type\");\n            }\n        } else {\n            revert(\"Unknown purchase details\");\n        }\n        \n        (uint firstFeeAmount, uint secondFeeAmount) = getFees(purchaseDetails.fees, purchaseDetails.amount);\n        return (true, firstFeeAmount, secondFeeAmount);\n    }\n\n    /**\n        @notice transfers fee to feeRecipient\n        @param feeAmount - amount to be transfered\n        @param feeRecipient - address of the recipient\n     */\n    function transferFee(uint feeAmount, address feeRecipient) internal {\n        if (feeAmount > 0 && feeRecipient != address(0)) {\n            LibTransfer.transferEth(feeRecipient, feeAmount);\n        }\n    }\n\n    /**\n        @notice transfers change back to sender\n     */\n    function transferChange() internal {\n        uint ethAmount = address(this).balance;\n        if (ethAmount > 0) {\n            address(msg.sender).transferEth(ethAmount);\n        }\n    }\n\n    /**\n        @notice parses fees in base points from one uint and calculates real amount of fees\n        @param fees two fees encoded in one uint, 29 and 30 bytes are used for the first fee, 31 and 32 bytes for second fee\n        @param amount price of the order\n        @return firstFeeAmount real amount for the first fee\n        @return secondFeeAmount real amount for the second fee\n     */\n    function getFees(uint fees, uint amount) internal pure returns(uint, uint) {\n        uint firstFee = uint(uint16(fees >> 16));\n        uint secondFee = uint(uint16(fees));\n        return (amount.bp(firstFee), amount.bp(secondFee));\n    }\n\n    receive() external payable {}\n}",
  "sourcePath": "@rarible/exchange-wrapper/contracts/ExchangeWrapper.sol",
  "compiler": {
    "name": "solc",
    "version": "0.7.6+commit.7338295f.Emscripten.clang"
  },
  "schemaVersion": "3.4.5",
  "updatedAt": "2022-09-04T06:45:44.941Z",
  "devdoc": {
    "kind": "dev",
    "methods": {
      "bulkPurchase((uint8,uint256,uint256,bytes)[],address,address,bool)": {
        "params": {
          "allowFail": "- true if fails while executing orders are allowed, false if fail of a single order means fail of the whole batch",
          "feeRecipientFirst": "- address of the first fee recipient",
          "feeRecipientSecond": "- address of the second fee recipient",
          "purchaseDetails": "- array of deatails about the purchases (more info in PurchaseDetails struct)"
        }
      },
      "onERC721Received(address,address,uint256,bytes)": {
        "details": "See {IERC721Receiver-onERC721Received}. Always returns `IERC721Receiver.onERC721Received.selector`."
      },
      "owner()": {
        "details": "Returns the address of the current owner."
      },
      "renounceOwnership()": {
        "details": "Leaves the contract without owner. It will not be possible to call `onlyOwner` functions anymore. Can only be called by the current owner. NOTE: Renouncing ownership will leave the contract without an owner, thereby removing any functionality that is only available to the owner."
      },
      "singlePurchase((uint8,uint256,uint256,bytes),address,address)": {
        "params": {
          "feeRecipientFirst": "- address of the first fee recipient",
          "feeRecipientSecond": "- address of the second fee recipient",
          "purchaseDetails": "- deatails about the purchase (more info in PurchaseDetails struct)"
        }
      },
      "supportsInterface(bytes4)": {
        "details": "See {IERC165-supportsInterface}. Time complexity O(1), guaranteed to always use less than 30 000 gas."
      },
      "transferOwnership(address)": {
        "details": "Transfers ownership of the contract to a new account (`newOwner`). Can only be called by the current owner."
      }
    },
    "version": 1
  },
  "userdoc": {
    "kind": "user",
    "methods": {
      "bulkPurchase((uint8,uint256,uint256,bytes)[],address,address,bool)": {
        "notice": "executes an array of purchases"
      },
      "singlePurchase((uint8,uint256,uint256,bytes),address,address)": {
        "notice": "executes a single purchase"
      }
    },
    "version": 1
  }
}