{
  "contractName": "ExchangeWrapper",
  "abi": [
    {
      "anonymous": false,
      "inputs": [
        {
          "indexed": true,
          "internalType": "address",
          "name": "previousOwner",
          "type": "address"
        },
        {
          "indexed": true,
          "internalType": "address",
          "name": "newOwner",
          "type": "address"
        }
      ],
      "name": "OwnershipTransferred",
      "type": "event"
    },
    {
      "inputs": [],
      "name": "exchangeV2",
      "outputs": [
        {
          "internalType": "contract IExchangeV2",
          "name": "",
          "type": "address"
        }
      ],
      "stateMutability": "view",
      "type": "function"
    },
    {
      "inputs": [],
      "name": "looksRare",
      "outputs": [
        {
          "internalType": "contract ILooksRare",
          "name": "",
          "type": "address"
        }
      ],
      "stateMutability": "view",
      "type": "function"
    },
    {
      "inputs": [
        {
          "internalType": "address",
          "name": "",
          "type": "address"
        },
        {
          "internalType": "address",
          "name": "",
          "type": "address"
        },
        {
          "internalType": "uint256[]",
          "name": "",
          "type": "uint256[]"
        },
        {
          "internalType": "uint256[]",
          "name": "",
          "type": "uint256[]"
        },
        {
          "internalType": "bytes",
          "name": "",
          "type": "bytes"
        }
      ],
      "name": "onERC1155BatchReceived",
      "outputs": [
        {
          "internalType": "bytes4",
          "name": "",
          "type": "bytes4"
        }
      ],
      "stateMutability": "nonpayable",
      "type": "function"
    },
    {
      "inputs": [
        {
          "internalType": "address",
          "name": "",
          "type": "address"
        },
        {
          "internalType": "address",
          "name": "",
          "type": "address"
        },
        {
          "internalType": "uint256",
          "name": "",
          "type": "uint256"
        },
        {
          "internalType": "uint256",
          "name": "",
          "type": "uint256"
        },
        {
          "internalType": "bytes",
          "name": "",
          "type": "bytes"
        }
      ],
      "name": "onERC1155Received",
      "outputs": [
        {
          "internalType": "bytes4",
          "name": "",
          "type": "bytes4"
        }
      ],
      "stateMutability": "nonpayable",
      "type": "function"
    },
    {
      "inputs": [
        {
          "internalType": "address",
          "name": "",
          "type": "address"
        },
        {
          "internalType": "address",
          "name": "",
          "type": "address"
        },
        {
          "internalType": "uint256",
          "name": "",
          "type": "uint256"
        },
        {
          "internalType": "bytes",
          "name": "",
          "type": "bytes"
        }
      ],
      "name": "onERC721Received",
      "outputs": [
        {
          "internalType": "bytes4",
          "name": "",
          "type": "bytes4"
        }
      ],
      "stateMutability": "nonpayable",
      "type": "function"
    },
    {
      "inputs": [],
      "name": "owner",
      "outputs": [
        {
          "internalType": "address",
          "name": "",
          "type": "address"
        }
      ],
      "stateMutability": "view",
      "type": "function"
    },
    {
      "inputs": [],
      "name": "renounceOwnership",
      "outputs": [],
      "stateMutability": "nonpayable",
      "type": "function"
    },
    {
      "inputs": [],
      "name": "seaPort",
      "outputs": [
        {
          "internalType": "contract ISeaPort",
          "name": "",
          "type": "address"
        }
      ],
      "stateMutability": "view",
      "type": "function"
    },
    {
      "inputs": [
        {
          "internalType": "bytes4",
          "name": "interfaceId",
          "type": "bytes4"
        }
      ],
      "name": "supportsInterface",
      "outputs": [
        {
          "internalType": "bool",
          "name": "",
          "type": "bool"
        }
      ],
      "stateMutability": "view",
      "type": "function"
    },
    {
      "inputs": [
        {
          "internalType": "address",
          "name": "newOwner",
          "type": "address"
        }
      ],
      "name": "transferOwnership",
      "outputs": [],
      "stateMutability": "nonpayable",
      "type": "function"
    },
    {
      "inputs": [],
      "name": "wyvernExchange",
      "outputs": [
        {
          "internalType": "contract IWyvernExchange",
          "name": "",
          "type": "address"
        }
      ],
      "stateMutability": "view",
      "type": "function"
    },
    {
      "inputs": [],
      "name": "x2y2",
      "outputs": [
        {
          "internalType": "contract Ix2y2",
          "name": "",
          "type": "address"
        }
      ],
      "stateMutability": "view",
      "type": "function"
    },
    {
      "stateMutability": "payable",
      "type": "receive"
    },
    {
      "inputs": [
        {
          "internalType": "contract IWyvernExchange",
          "name": "_wyvernExchange",
          "type": "address"
        },
        {
          "internalType": "contract IExchangeV2",
          "name": "_exchangeV2",
          "type": "address"
        },
        {
          "internalType": "contract ISeaPort",
          "name": "_seaPort",
          "type": "address"
        },
        {
          "internalType": "contract Ix2y2",
          "name": "_x2y2",
          "type": "address"
        },
        {
          "internalType": "contract ILooksRare",
          "name": "_looksRare",
          "type": "address"
        }
      ],
      "name": "__ExchangeWrapper_init",
      "outputs": [],
      "stateMutability": "nonpayable",
      "type": "function"
    },
    {
      "inputs": [
        {
          "internalType": "contract IWyvernExchange",
          "name": "_wyvernExchange",
          "type": "address"
        }
      ],
      "name": "setWyvern",
      "outputs": [],
      "stateMutability": "nonpayable",
      "type": "function"
    },
    {
      "inputs": [
        {
          "internalType": "contract IExchangeV2",
          "name": "_exchangeV2",
          "type": "address"
        }
      ],
      "name": "setExchange",
      "outputs": [],
      "stateMutability": "nonpayable",
      "type": "function"
    },
    {
      "inputs": [
        {
          "internalType": "contract ISeaPort",
          "name": "_seaPort",
          "type": "address"
        }
      ],
      "name": "setSeaPort",
      "outputs": [],
      "stateMutability": "nonpayable",
      "type": "function"
    },
    {
      "inputs": [
        {
          "internalType": "contract Ix2y2",
          "name": "_x2y2",
          "type": "address"
        }
      ],
      "name": "setX2Y2",
      "outputs": [],
      "stateMutability": "nonpayable",
      "type": "function"
    },
    {
      "inputs": [
        {
          "internalType": "contract ILooksRare",
          "name": "_looksRare",
          "type": "address"
        }
      ],
      "name": "setLooksRare",
      "outputs": [],
      "stateMutability": "nonpayable",
      "type": "function"
    },
    {
      "inputs": [
        {
          "components": [
            {
              "internalType": "enum ExchangeWrapper.Markets",
              "name": "marketId",
              "type": "uint8"
            },
            {
              "internalType": "uint256",
              "name": "amount",
              "type": "uint256"
            },
            {
              "internalType": "bytes",
              "name": "data",
              "type": "bytes"
            }
          ],
          "internalType": "struct ExchangeWrapper.PurchaseDetails",
          "name": "purchaseDetails",
          "type": "tuple"
        },
        {
          "internalType": "uint256[]",
          "name": "fees",
          "type": "uint256[]"
        }
      ],
      "name": "singlePurchase",
      "outputs": [],
      "stateMutability": "payable",
      "type": "function"
    },
    {
      "inputs": [
        {
          "components": [
            {
              "internalType": "enum ExchangeWrapper.Markets",
              "name": "marketId",
              "type": "uint8"
            },
            {
              "internalType": "uint256",
              "name": "amount",
              "type": "uint256"
            },
            {
              "internalType": "bytes",
              "name": "data",
              "type": "bytes"
            }
          ],
          "internalType": "struct ExchangeWrapper.PurchaseDetails[]",
          "name": "purchaseDetails",
          "type": "tuple[]"
        },
        {
          "internalType": "uint256[]",
          "name": "fees",
          "type": "uint256[]"
        }
      ],
      "name": "bulkPurchase",
      "outputs": [],
      "stateMutability": "payable",
      "type": "function"
    }
  ],
  "bytecode": "0x608060405234801561001057600080fd5b50612e50806100206000396000f3fe6080604052600436106101235760003560e01c80638da5cb5b116100a0578063d162be1411610064578063d162be14146102e5578063f23a6e6114610305578063f2fde38b14610325578063fc40c9c714610345578063fe7daf171461035a5761012a565b80638da5cb5b146102715780639110c77714610286578063a05f32dc1461029b578063bc197c81146102b0578063c9f0a2fa146102d05761012a565b806362c1a97d116100e757806362c1a97d146101e757806367b1f5df14610209578063715018a6146102295780637ad2607e1461023e57806383758e98146102515761012a565b806301ffc9a71461012f578063150b7a02146101655780631d9a08be1461019257806355b0126d146101b457806357f57d6a146101c75761012a565b3661012a57005b600080fd5b34801561013b57600080fd5b5061014f61014a366004612080565b61037a565b60405161015c9190612846565b60405180910390f35b34801561017157600080fd5b50610185610180366004611e32565b61039d565b60405161015c9190612851565b34801561019e57600080fd5b506101b26101ad366004611d6d565b6103ad565b005b6101b26101c2366004611fd1565b610432565b3480156101d357600080fd5b506101b26101e2366004611d6d565b610479565b3480156101f357600080fd5b506101fc6104fe565b60405161015c91906127d6565b34801561021557600080fd5b506101b2610224366004611d6d565b61050e565b34801561023557600080fd5b506101b2610593565b6101b261024c366004612242565b61063f565b34801561025d57600080fd5b506101b261026c366004611d6d565b610652565b34801561027d57600080fd5b506101fc6106d7565b34801561029257600080fd5b506101fc6106e6565b3480156102a757600080fd5b506101fc6106f6565b3480156102bc57600080fd5b506101856102cb366004611d89565b610706565b3480156102dc57600080fd5b506101fc610717565b3480156102f157600080fd5b506101b261030036600461209c565b610727565b34801561031157600080fd5b50610185610320366004611e9b565b610839565b34801561033157600080fd5b506101b2610340366004611d6d565b61084a565b34801561035157600080fd5b506101fc61094d565b34801561036657600080fd5b506101b2610375366004611d6d565b61095d565b6001600160e01b0319811660009081526097602052604090205460ff165b919050565b630a85bd0160e11b949350505050565b6103b56109e2565b6001600160a01b03166103c66106d7565b6001600160a01b03161461040f576040805162461bcd60e51b81526020600482018190526024820152600080516020612dfb833981519152604482015290519081900360640190fd5b61013080546001600160a01b0319166001600160a01b0392909216919091179055565b60005b82518110156104625761045a83828151811061044d57fe5b60200260200101516109e6565b600101610435565b5061046d3482610f0b565b610475610f85565b5050565b6104816109e2565b6001600160a01b03166104926106d7565b6001600160a01b0316146104db576040805162461bcd60e51b81526020600482018190526024820152600080516020612dfb833981519152604482015290519081900360640190fd5b61013180546001600160a01b0319166001600160a01b0392909216919091179055565b61012f546001600160a01b031681565b6105166109e2565b6001600160a01b03166105276106d7565b6001600160a01b031614610570576040805162461bcd60e51b81526020600482018190526024820152600080516020612dfb833981519152604482015290519081900360640190fd5b61012e80546001600160a01b0319166001600160a01b0392909216919091179055565b61059b6109e2565b6001600160a01b03166105ac6106d7565b6001600160a01b0316146105f5576040805162461bcd60e51b81526020600482018190526024820152600080516020612dfb833981519152604482015290519081900360640190fd5b6033546040516000916001600160a01b0316907f8be0079c531659141344cd1fd0a4f28419497f9722a3daafe3b4186f6b6457e0908390a3603380546001600160a01b0319169055565b610648826109e6565b61046d3482610f0b565b61065a6109e2565b6001600160a01b031661066b6106d7565b6001600160a01b0316146106b4576040805162461bcd60e51b81526020600482018190526024820152600080516020612dfb833981519152604482015290519081900360640190fd5b61012d80546001600160a01b0319166001600160a01b0392909216919091179055565b6033546001600160a01b031690565b610131546001600160a01b031681565b61012e546001600160a01b031681565b63bc197c8160e01b95945050505050565b61012d546001600160a01b031681565b600054610100900460ff16806107405750610740610faa565b8061074e575060005460ff16155b6107895760405162461bcd60e51b815260040180806020018281038252602e815260200180612dac602e913960400191505060405180910390fd5b600054610100900460ff161580156107b4576000805460ff1961ff0019909116610100171660011790555b6107bc610fbb565b6107c461105c565b61012d80546001600160a01b03199081166001600160a01b038981169190911790925561012e8054821688841617905561012f805482168784161790556101308054821686841617905561013180549091169184169190911790558015610831576000805461ff00191690555b505050505050565b63f23a6e6160e01b95945050505050565b6108526109e2565b6001600160a01b03166108636106d7565b6001600160a01b0316146108ac576040805162461bcd60e51b81526020600482018190526024820152600080516020612dfb833981519152604482015290519081900360640190fd5b6001600160a01b0381166108f15760405162461bcd60e51b8152600401808060200182810382526026815260200180612d866026913960400191505060405180910390fd5b6033546040516001600160a01b038084169216907f8be0079c531659141344cd1fd0a4f28419497f9722a3daafe3b4186f6b6457e090600090a3603380546001600160a01b0319166001600160a01b0392909216919091179055565b610130546001600160a01b031681565b6109656109e2565b6001600160a01b03166109766106d7565b6001600160a01b0316146109bf576040805162461bcd60e51b81526020600482018190526024820152600080516020612dfb833981519152604482015290519081900360640190fd5b61012f80546001600160a01b0319166001600160a01b0392909216919091179055565b3390565b60208101516002825160048111156109fa57fe5b1415610a975761012f5460408084015190516000926001600160a01b0316918491610a2591906127ba565b60006040518083038185875af1925050503d8060008114610a62576040519150601f19603f3d011682016040523d82523d6000602084013e610a67565b606091505b5050905080610a915760405162461bcd60e51b8152600401610a88906128d4565b60405180910390fd5b50610475565b600182516004811115610aa657fe5b1415610b345761012d5460408084015190516000926001600160a01b0316918491610ad191906127ba565b60006040518083038185875af1925050503d8060008114610b0e576040519150601f19603f3d011682016040523d82523d6000602084013e610b13565b606091505b5050905080610a915760405162461bcd60e51b8152600401610a8890612866565b600082516004811115610b4357fe5b1415610b805760008060008460400151806020019051810190610b66919061210c565b925092509250610b7883838684611155565b505050610475565b600382516004811115610b8f57fe5b1415610d4f5760008260400151806020019051810190610baf919061228b565b6101305460405163357a150b60e01b81529192506001600160a01b03169063357a150b908490610be39085906004016129e9565b6000604051808303818588803b158015610bfc57600080fd5b505af1158015610c10573d6000803e3d6000fd5b505050505060005b815151811015610d485760005b8251805183908110610c3357fe5b6020026020010151610100015151811015610d3f57600083600001518381518110610c5a57fe5b602002602001015161010001518281518110610c7257fe5b602002602001015160200151806020019051810190610c919190611f01565b905060005b8151811015610d35576000828281518110610cad57fe5b6020026020010151905080600001516001600160a01b03166342842e0e30610cd36109e2565b84602001516040518463ffffffff1660e01b8152600401610cf6939291906127ea565b600060405180830381600087803b158015610d1057600080fd5b505af1158015610d24573d6000803e3d6000fd5b505060019093019250610c96915050565b5050600101610c25565b50600101610c18565b5050610475565b600482516004811115610d5e57fe5b1415610ef35760008060008460400151806020019051810190610d819190612353565b61013154604051635a72594b60e11b815293965091945092506001600160a01b03169063b4e4b296908690610dbc9087908790600401612b70565b6000604051808303818588803b158015610dd557600080fd5b505af1158015610de9573d6000803e3d6000fd5b50505050506001600160e01b031981166339d690a360e11b1415610e7d5781604001516001600160a01b03166342842e0e30610e236109e2565b85608001516040518463ffffffff1660e01b8152600401610e46939291906127ea565b600060405180830381600087803b158015610e6057600080fd5b505af1158015610e74573d6000803e3d6000fd5b50505050610b78565b6001600160e01b0319811663025ceed960e61b1415610edb5781604001516001600160a01b031663f242432a30610eb26109e2565b85608001518660a001516040518563ffffffff1660e01b8152600401610e46949392919061280e565b60405162461bcd60e51b8152600401610a8890612919565b60405162461bcd60e51b8152600401610a889061289d565b6000610f1783476112d2565b905060005b8251811015610f7f576000610f5160a0858481518110610f3857fe5b6020026020010151901c8461133490919063ffffffff16565b90508015610f7657610f76848381518110610f6857fe5b602002602001015182611353565b50600101610f1c565b50505050565b478015610fa757610fa781610f986109e2565b6001600160a01b031690611353565b50565b6000610fb5306113f0565b15905090565b600054610100900460ff1680610fd45750610fd4610faa565b80610fe2575060005460ff16155b61101d5760405162461bcd60e51b815260040180806020018281038252602e815260200180612dac602e913960400191505060405180910390fd5b600054610100900460ff16158015611048576000805460ff1961ff0019909116610100171660011790555b8015610fa7576000805461ff001916905550565b600054610100900460ff16806110755750611075610faa565b80611083575060005460ff16155b6110be5760405162461bcd60e51b815260040180806020018281038252602e815260200180612dac602e913960400191505060405180910390fd5b600054610100900460ff161580156110e9576000805460ff1961ff0019909116610100171660011790555b60006110f36109e2565b603380546001600160a01b0319166001600160a01b038316908117909155604051919250906000907f8be0079c531659141344cd1fd0a4f28419497f9722a3daafe3b4186f6b6457e0908290a3508015610fa7576000805461ff001916905550565b61115d6114b6565b3081526060858101516020808401919091528087015151918301805192909252905101829052604080516001808252818301909252600091816020015b6111a2611521565b81526020019060019003908161119a5790505090506111bf6109e2565b816000815181106111cc57fe5b6020026020010151600001906001600160a01b031690816001600160a01b0316815250506127108160008151811061120057fe5b6020908102919091018101516bffffffffffffffffffffffff909216910152611227611538565b81815260405161123b908290602001612945565b60408051601f198184030181529181526101008501919091526323d235ef60e01b60e085015261012e5490516301d3347f60e71b81526001600160a01b039091169063e99a3f80908790611297908b908b908990600401612997565b6000604051808303818588803b1580156112b057600080fd5b505af11580156112c4573d6000803e3d6000fd5b505050505050505050505050565b600082821115611329576040805162461bcd60e51b815260206004820152601e60248201527f536166654d6174683a207375627472616374696f6e206f766572666c6f770000604482015290519081900360640190fd5b508082035b92915050565b600061134c61271061134685856113f6565b9061144f565b9392505050565b6040516000906001600160a01b0384169083908381818185875af1925050503d806000811461139e576040519150601f19603f3d011682016040523d82523d6000602084013e6113a3565b606091505b50509050806113eb576040805162461bcd60e51b815260206004820152600f60248201526e1d1c985b9cd9995c8819985a5b1959608a1b604482015290519081900360640190fd5b505050565b3b151590565b6000826114055750600061132e565b8282028284828161141257fe5b041461134c5760405162461bcd60e51b8152600401808060200182810382526021815260200180612dda6021913960400191505060405180910390fd5b60008082116114a5576040805162461bcd60e51b815260206004820152601a60248201527f536166654d6174683a206469766973696f6e206279207a65726f000000000000604482015290519081900360640190fd5b8183816114ae57fe5b049392505050565b60405180610120016040528060006001600160a01b031681526020016114da61155b565b8152600060208201526040016114ee61155b565b815260200160008152602001600081526020016000815260200160006001600160e01b0319168152602001606081525090565b604080518082019091526000808252602082015290565b604051806060016040528060608152602001606081526020016000151581525090565b604051806040016040528061156e61157b565b8152602001600081525090565b60408051808201909152600081526060602082015290565b805161039881612d5a565b600082601f8301126115ae578081fd5b815160206115c36115be83612cf0565b612ccd565b828152818101908583016040808602880185018910156115e1578687fd5b865b8681101561163c5781838b0312156115f9578788fd5b81518281018181106001600160401b038211171561161357fe5b8352835181528684015161162681612d5a565b81880152855293850193918101916001016115e3565b509198975050505050505050565b600082601f83011261165a578081fd5b8151602061166a6115be83612cf0565b82815281810190858301855b858110156116f35781518801604080601f19838d03011215611696578889fd5b80518181016001600160401b0382821081831117156116b157fe5b818452848a015183529284015192808411156116cb578b8cfd5b50506116db8c8984860101611a39565b81890152865250509284019290840190600101611676565b5090979650505050505050565b600082601f830112611710578081fd5b815160206117206115be83612cf0565b82815281810190858301855b858110156116f357815188016101a080601f19838d0301121561174d578889fd5b61175681612ccd565b87830151815261176860408401611593565b88820152606083015160408201526080830151606082015260a0830151608082015260c083015160a08201526117a060e08401611593565b60c0820152610100808401516001600160401b03808211156117c0578c8dfd5b6117ce8f8c84890101611a39565b60e08501526101208601519150808211156117e7578c8dfd5b506117f68e8b8388010161164a565b828401525050610140830151610120820152610160830151610140820152610180611822818501611d5c565b610160830152611833838501611d5c565b9082015286525050928401929084019060010161172c565b600082601f83011261185b578081fd5b8151602061186b6115be83612cf0565b82815281810190858301855b858110156116f3578151880161016080601f19838d03011215611898578889fd5b6118a181612ccd565b6118ac888401611a84565b815260408084015189830152606080850151828401526080915081850151818401525060a080850151828401526118e560c08601611593565b908301525060e0838101516001600160401b0380821115611904578c8dfd5b6119128f8c84890101611a39565b60c085015261010091508186015183850152610120925082860151828501526101409150818601518385015284860151945080851115611950578c8dfd5b5061195f8e8b8688010161159e565b9083015250865250509284019290840190600101611877565b600082601f830112611988578081fd5b813560206119986115be83612cf0565b82815281810190858301838502870184018810156119b4578586fd5b855b858110156116f3578135845292840192908401906001016119b6565b8051801515811461039857600080fd5b805161039881612d6f565b600082601f8301126119fd578081fd5b8135611a0b6115be82612d0d565b818152846020838601011115611a1f578283fd5b816020850160208301379081016020019190915292915050565b600082601f830112611a49578081fd5b8151611a576115be82612d0d565b818152846020838601011115611a6b578283fd5b611a7c826020830160208701612d2e565b949350505050565b80516008811061039857600080fd5b60006040808385031215611aa5578182fd5b80518181016001600160401b038282108183111715611ac057fe5b818452829450855181811115611ad557600080fd5b8601808803851315611ae657600080fd5b608084018381108382111715611af857fe5b909452835193611b0785612d6f565b93825260208401519381851115611b1d57600080fd5b611b2988868301611a39565b60608501525050815260209384015193019290925292915050565b6000610200808385031215611b57578182fd5b611b6081612ccd565b915050611b6c826119d2565b8152611b7a60208301611593565b6020820152611b8b60408301611593565b6040820152606082015160608201526080820151608082015260a082015160a0820152611bba60c08301611593565b60c0820152611bcb60e08301611593565b60e08201526101008281015190820152610120808301519082015261014080830151908201526101608083015190820152610180808301516001600160401b03811115611c1757600080fd5b611c2385828601611a39565b8284015250506101a0611c37818401611d5c565b908201526101c082810151908201526101e09182015191810191909152919050565b600060608284031215611c6a578081fd5b604051606081016001600160401b038282108183111715611c8757fe5b816040528293508435915060058210611c9f57600080fd5b818352602085013560208401526040850135915080821115611cc057600080fd5b50611ccd858286016119ed565b6040830152505092915050565b600060c08284031215611ceb578081fd5b60405160c081018181106001600160401b0382111715611d0757fe5b8060405250809150825181526020830151602082015260408301516040820152606083015160608201526080830151611d3f81612d5a565b6080820152611d5060a084016119d2565b60a08201525092915050565b805160ff8116811461039857600080fd5b600060208284031215611d7e578081fd5b813561134c81612d5a565b600080600080600060a08688031215611da0578081fd5b8535611dab81612d5a565b94506020860135611dbb81612d5a565b935060408601356001600160401b0380821115611dd6578283fd5b611de289838a01611978565b94506060880135915080821115611df7578283fd5b611e0389838a01611978565b93506080880135915080821115611e18578283fd5b50611e25888289016119ed565b9150509295509295909350565b60008060008060808587031215611e47578182fd5b8435611e5281612d5a565b93506020850135611e6281612d5a565b92506040850135915060608501356001600160401b03811115611e83578182fd5b611e8f878288016119ed565b91505092959194509250565b600080600080600060a08688031215611eb2578283fd5b8535611ebd81612d5a565b94506020860135611ecd81612d5a565b9350604086013592506060860135915060808601356001600160401b03811115611ef5578182fd5b611e25888289016119ed565b60006020808385031215611f13578182fd5b82516001600160401b0380821115611f29578384fd5b818501915085601f830112611f3c578384fd5b8151611f4a6115be82612cf0565b818152848101908486016040808502870188018b1015611f68578889fd5b8896505b84871015611fc25780828c031215611f82578889fd5b80518181018181108882111715611f9557fe5b82528251611fa281612d5a565b815282890151898201528452600196909601959287019290810190611f6c565b50909998505050505050505050565b60008060408385031215611fe3578182fd5b82356001600160401b0380821115611ff9578384fd5b818501915085601f83011261200c578384fd5b8135602061201c6115be83612cf0565b82815281810190858301885b858110156120515761203f8c8684358b0101611c59565b84529284019290840190600101612028565b50909750505086013592505080821115612069578283fd5b5061207685828601611978565b9150509250929050565b600060208284031215612091578081fd5b813561134c81612d6f565b600080600080600060a086880312156120b3578283fd5b85356120be81612d5a565b945060208601356120ce81612d5a565b935060408601356120de81612d5a565b925060608601356120ee81612d5a565b915060808601356120fe81612d5a565b809150509295509295909350565b600080600060608486031215612120578081fd5b83516001600160401b0380821115612136578283fd5b818601915061012080838903121561214c578384fd5b61215581612ccd565b905061216083611593565b8152602083015182811115612173578485fd5b61217f89828601611a93565b60208301525061219160408401611593565b60408201526060830151828111156121a7578485fd5b6121b389828601611a93565b6060830152506080830151608082015260a083015160a082015260c083015160c08201526121e360e084016119e2565b60e082015261010080840151838111156121fb578586fd5b6122078a828701611a39565b828401525050809550506020860151915080821115612224578283fd5b5061223186828701611a39565b925050604084015190509250925092565b60008060408385031215612254578182fd5b82356001600160401b038082111561226a578384fd5b61227686838701611c59565b93506020850135915080821115612069578283fd5b60006020828403121561229c578081fd5b81516001600160401b03808211156122b2578283fd5b9083019061016082860312156122c6578283fd5b6122d060c0612ccd565b8251828111156122de578485fd5b6122ea87828601611700565b8252506020830151828111156122fe578485fd5b61230a8782860161184b565b60208301525061231d8660408501611cda565b6040820152610100830151606082015261012083015160808201526123456101408401611d5c565b60a082015295945050505050565b600080600060608486031215612367578081fd5b83516001600160401b038082111561237d578283fd5b9085019060c08288031215612390578283fd5b60405160c0810181811083821117156123a557fe5b6040526123b1836119d2565b81526123bf60208401611593565b602082015260408301516040820152606083015160608201526080830151608082015260a0830151828111156123f3578485fd5b6123ff89828601611a39565b60a083015250602087015190955091508082111561241b578283fd5b5061242886828701611b44565b925050612437604085016119e2565b90509250925092565b6001600160a01b03169052565b6000815180845260208085019450808401835b83811015612490578151805188528301516001600160a01b03168388015260409096019590820190600101612460565b509495945050505050565b6000815180845260208085018081965082840281019150828601855b858110156124f557828403895281518051855285015160408686018190526124e181870183612646565b9a87019a95505050908401906001016124b7565b5091979650505050505050565b6000815180845260208085019450808401835b8381101561249057815180516001600160a01b031688528301516bffffffffffffffffffffffff168388015260409096019590820190600101612515565b6000815180845260208085018081965082840281019150828601855b858110156124f5578284038952815161016061258c868351612672565b818701518688015260408083015190870152606080830151908701526080808301519087015260a0808301516125c482890182612440565b505060c08083015182828901526125dd83890182612646565b60e085810151908a015261010080860151908a015261012080860151908a015261014094850151898203958a0195909552925061261e91508290508361244d565b9a87019a955050509084019060010161256f565b15159052565b6001600160e01b0319169052565b6000815180845261265e816020860160208601612d2e565b601f01601f19169290920160200192915050565b6008811061267c57fe5b9052565b600081516040845263ffffffff60e01b815116604085015260208101519050604060608501526126b36080850182612646565b602093840151949093019390935250919050565b60006101206126d7848451612440565b60208301518160208601526126ee82860182612680565b91505060408301516127036040860182612440565b506060830151848203606086015261271b8282612680565b9150506080830151608085015260a083015160a085015260c083015160c085015260e083015161274e60e0860182612638565b5061010080840151858303828701526127678382612646565b9695505050505050565b805182526020808201519083015260408082015190830152606080820151908301526080808201516001600160a01b03169083015260a0908101511515910152565b60ff169052565b600082516127cc818460208701612d2e565b9190910192915050565b6001600160a01b0391909116815260200190565b6001600160a01b039384168152919092166020820152604081019190915260600190565b6001600160a01b0394851681529290931660208301526040820152606081019190915260a06080820181905260009082015260c00190565b901515815260200190565b6001600160e01b031991909116815260200190565b6020808252601e908201527f50757263686173652077797665726e45786368616e6765206661696c65640000604082015260600190565b60208082526018908201527f556e6b6e6f776e2070757263686173652064657461696c730000000000000000604082015260600190565b60208082526025908201527f507572636861736520536561506f7274416476616e6365644f72646572732066604082015264185a5b195960da1b606082015260800190565b602080825260129082015271556e6b6e6f776e20746f6b656e207479706560701b604082015260600190565b6000602082528251606060208401526129616080840182612502565b90506020840151601f1984830301604085015261297e8282612502565b9150506040840151151560608401528091505092915050565b6000608082526129aa60808301866126c7565b82810360208401526129bc8186612646565b905082810360408401526129d081856126c7565b8381036060909401939093525081526020019392505050565b60006020808352610180808401855161016080858801528282518085526101a094508489019150848782028a01018785019450885b82811015612b06578a820361019f1901845285518051835289810151612a468b850182612440565b5060408181015190840152606080820151908401526080808201519084015260a0808201519084015260c080820151612a8182860182612440565b505060e0808201518982860152612a9a8a860182612646565b9150506101008083015185830382870152612ab5838261249b565b9250505061012080830151818601525061014080830151818601525086820151612ae1888601826127b3565b509089015190612af3848b01836127b3565b968a0196948a0194925050600101612a1e565b50968a0151898803601f190160408b015296612b228189612553565b975050505060408801519350612b3b6060880185612771565b6060880151610120880152608088015161014088015260a08801519350612b64818801856127b3565b50929695505050505050565b60006040825261010084511515604084015260018060a01b03602086015116606084015260408501516080840152606085015160a0840152608085015160c084015260a085015160c060e0850152612bca82850182612646565b90508381036020850152610200612be2828751612632565b6020860151612bf46020840182612440565b506040860151612c076040840182612440565b50606086015160608301526080860151608083015260a086015160a083015260c0860151612c3860c0840182612440565b5060e0860151612c4b60e0840182612440565b50858301519282019290925261012080860151908201526101408086015190820152610160808601519082015261018080860151818301849052909290612c9482840182612646565b935050506101a080860151612cab828401826127b3565b50506101c085810151908201526101e094850151940193909352509092915050565b6040518181016001600160401b0381118282101715612ce857fe5b604052919050565b60006001600160401b03821115612d0357fe5b5060209081020190565b60006001600160401b03821115612d2057fe5b50601f01601f191660200190565b60005b83811015612d49578181015183820152602001612d31565b83811115610f7f5750506000910152565b6001600160a01b0381168114610fa757600080fd5b6001600160e01b031981168114610fa757600080fdfe4f776e61626c653a206e6577206f776e657220697320746865207a65726f2061646472657373496e697469616c697a61626c653a20636f6e747261637420697320616c726561647920696e697469616c697a6564536166654d6174683a206d756c7469706c69636174696f6e206f766572666c6f774f776e61626c653a2063616c6c6572206973206e6f7420746865206f776e6572a264697066735822122015a39d2ca01e4c738bd368ebc94dffb830710c32e047b68d3d879ef59af559dc64736f6c63430007060033",
  "immutableReferences": {},
  "source": "// SPDX-License-Identifier: MIT\n\npragma solidity 0.7.6;\npragma abicoder v2;\n\nimport \"@rarible/transfer-manager/contracts/lib/LibTransfer.sol\";\nimport \"@rarible/lib-bp/contracts/BpLibrary.sol\";\nimport \"@rarible/lib-part/contracts/LibPart.sol\";\n\nimport \"@openzeppelin/contracts-upgradeable/access/OwnableUpgradeable.sol\";\nimport \"@openzeppelin/contracts-upgradeable/token/ERC721/IERC721Upgradeable.sol\";\nimport \"@openzeppelin/contracts-upgradeable/token/ERC1155/IERC1155Upgradeable.sol\";\nimport \"@openzeppelin/contracts-upgradeable/token/ERC721/ERC721HolderUpgradeable.sol\";\nimport \"@openzeppelin/contracts-upgradeable/token/ERC1155/ERC1155HolderUpgradeable.sol\";\n\nimport \"./interfaces/IWyvernExchange.sol\";\nimport \"./interfaces/IExchangeV2.sol\";\nimport \"./interfaces/ISeaPort.sol\";\nimport \"./interfaces/Ix2y2.sol\";\nimport \"./interfaces/ILooksRare.sol\";\n\ncontract ExchangeWrapper is OwnableUpgradeable, ERC721HolderUpgradeable, ERC1155HolderUpgradeable {\n    using LibTransfer for address;\n    using BpLibrary for uint;\n    using SafeMathUpgradeable for uint;\n\n    IWyvernExchange public wyvernExchange;\n    IExchangeV2 public exchangeV2;\n    ISeaPort public seaPort;\n    Ix2y2 public x2y2;\n    ILooksRare public looksRare;\n\n    enum Markets {\n        ExchangeV2,\n        WyvernExchange,\n        SeaPortAdvancedOrders,\n        X2Y2,\n        LooksRareOrders\n    }\n\n    struct PurchaseDetails {\n        Markets marketId;\n        uint256 amount;\n        bytes data;\n    }\n\n    function __ExchangeWrapper_init(\n        IWyvernExchange _wyvernExchange,\n        IExchangeV2 _exchangeV2,\n        ISeaPort _seaPort,\n        Ix2y2 _x2y2,\n        ILooksRare _looksRare\n    ) external initializer {\n        __Context_init_unchained();\n        __Ownable_init_unchained();\n        wyvernExchange = _wyvernExchange;\n        exchangeV2 = _exchangeV2;\n        seaPort = _seaPort;\n        x2y2 = _x2y2;\n        looksRare = _looksRare;\n    }\n\n    function setWyvern(IWyvernExchange _wyvernExchange) external onlyOwner {\n        wyvernExchange = _wyvernExchange;\n    }\n\n    function setExchange(IExchangeV2 _exchangeV2) external onlyOwner {\n        exchangeV2 = _exchangeV2;\n    }\n\n    function setSeaPort(ISeaPort _seaPort) external onlyOwner {\n        seaPort = _seaPort;\n    }\n\n    function setX2Y2(Ix2y2 _x2y2) external onlyOwner {\n        x2y2 = _x2y2;\n    }\n\n    function setLooksRare(ILooksRare _looksRare) external onlyOwner {\n        looksRare = _looksRare;\n    }\n\n    function singlePurchase(PurchaseDetails memory purchaseDetails, uint[] memory fees) external payable {\n        purchase(purchaseDetails);\n\n        feesTransfer(msg.value, fees);\n\n        changeTransfer();\n    }\n\n    function bulkPurchase(PurchaseDetails[] memory purchaseDetails, uint[] memory fees) external payable {\n        for (uint i = 0; i < purchaseDetails.length; i++) {\n            purchase(purchaseDetails[i]);\n        }\n\n        feesTransfer(msg.value, fees);\n\n        changeTransfer();\n    }\n\n    function purchase(PurchaseDetails memory purchaseDetails) internal {\n        uint paymentAmount = purchaseDetails.amount;\n        if (purchaseDetails.marketId == Markets.SeaPortAdvancedOrders){\n            (bool success,) = address(seaPort).call{value : paymentAmount}(purchaseDetails.data);\n            require(success, \"Purchase SeaPortAdvancedOrders failed\");\n        } else if (purchaseDetails.marketId == Markets.WyvernExchange) {\n            (bool success,) = address(wyvernExchange).call{value : paymentAmount}(purchaseDetails.data);\n            require(success, \"Purchase wyvernExchange failed\");\n        } else if (purchaseDetails.marketId == Markets.ExchangeV2) {\n            (LibOrder.Order memory sellOrder, bytes memory sellOrderSignature, uint purchaseAmount) = abi.decode(purchaseDetails.data, (LibOrder.Order, bytes, uint));\n            matchExchangeV2(sellOrder, sellOrderSignature, paymentAmount, purchaseAmount);\n        } else if (purchaseDetails.marketId == Markets.X2Y2) {\n            Ix2y2.RunInput memory input = abi.decode(purchaseDetails.data, (Ix2y2.RunInput));\n            x2y2.run{value : paymentAmount}(input);\n            for (uint i = 0; i < input.orders.length; i++) {\n                for (uint j = 0; j < input.orders[i].items.length; j++) {\n                    Ix2y2.Pair[] memory pairs = abi.decode(input.orders[i].items[j].data, (Ix2y2.Pair[]));\n                    for (uint256 k = 0; k < pairs.length; k++) {\n                        Ix2y2.Pair memory p = pairs[k];\n                        IERC721Upgradeable(address(p.token)).safeTransferFrom(address(this), _msgSender(), p.tokenId);\n                    }    \n                }\n            } \n        } else if (purchaseDetails.marketId == Markets.LooksRareOrders) {\n            (LibLooksRare.TakerOrder memory takerOrder, LibLooksRare.MakerOrder memory makerOrder, bytes4 typeNft) = abi.decode(purchaseDetails.data, (LibLooksRare.TakerOrder, LibLooksRare.MakerOrder, bytes4));\n            ILooksRare(looksRare).matchAskWithTakerBidUsingETHAndWETH{value : paymentAmount}(takerOrder, makerOrder);\n\n            if (typeNft == LibAsset.ERC721_ASSET_CLASS) {\n                IERC721Upgradeable(makerOrder.collection).safeTransferFrom(address(this), _msgSender(), makerOrder.tokenId);\n            } else if (typeNft == LibAsset.ERC1155_ASSET_CLASS) {\n                IERC1155Upgradeable(makerOrder.collection).safeTransferFrom(address(this), _msgSender(), makerOrder.tokenId, makerOrder.amount, \"\");\n            } else {\n                revert(\"Unknown token type\");\n            }\n        } else {\n            revert(\"Unknown purchase details\");\n        }\n    }\n\n    function feesTransfer(uint amount, uint[] memory fees) internal {\n        uint spent = amount.sub(address(this).balance);\n        for (uint i = 0; i < fees.length; i++) {\n            uint feeValue = spent.bp(uint(fees[i] >> 160));\n            if (feeValue > 0) {\n                LibTransfer.transferEth(address(fees[i]), feeValue);\n            }\n        }\n    }\n\n    function changeTransfer() internal {\n        uint ethAmount = address(this).balance;\n        if (ethAmount > 0) {\n            address(_msgSender()).transferEth(ethAmount);\n        }\n    }\n\n    /*Transfer by ExchangeV2 sellOrder is in input, buyOrder is generated inside method */\n    function matchExchangeV2(\n        LibOrder.Order memory sellOrder,\n        bytes memory sellOrderSignature,\n        uint paymentAmount,\n        uint purchaseAmount\n    ) internal {\n        LibOrder.Order memory buyerOrder;\n        buyerOrder.maker = address(this);\n        buyerOrder.makeAsset = sellOrder.takeAsset;\n        buyerOrder.takeAsset.assetType = sellOrder.makeAsset.assetType;\n        buyerOrder.takeAsset.value = purchaseAmount;\n\n        /*set buyer in payout*/\n        LibPart.Part[] memory payout = new LibPart.Part[](1);\n        payout[0].account = _msgSender();\n        payout[0].value = 10000;\n        LibOrderDataV2.DataV2 memory data;\n        data.payouts = payout;\n        buyerOrder.data = abi.encode(data);\n        buyerOrder.dataType = bytes4(keccak256(\"V2\"));\n\n        IExchangeV2(exchangeV2).matchOrders{value : paymentAmount }(sellOrder, sellOrderSignature, buyerOrder, \"\");\n    }\n\n    receive() external payable {}\n}",
  "sourcePath": "@rarible/exchange-wrapper/contracts/ExchangeWrapper.sol",
  "compiler": {
    "name": "solc",
    "version": "0.7.6+commit.7338295f.Emscripten.clang"
  },
  "schemaVersion": "3.4.3",
  "updatedAt": "2022-08-02T15:43:46.653Z",
  "devdoc": {
    "kind": "dev",
    "methods": {
      "onERC721Received(address,address,uint256,bytes)": {
        "details": "See {IERC721Receiver-onERC721Received}. Always returns `IERC721Receiver.onERC721Received.selector`."
      },
      "owner()": {
        "details": "Returns the address of the current owner."
      },
      "renounceOwnership()": {
        "details": "Leaves the contract without owner. It will not be possible to call `onlyOwner` functions anymore. Can only be called by the current owner. NOTE: Renouncing ownership will leave the contract without an owner, thereby removing any functionality that is only available to the owner."
      },
      "supportsInterface(bytes4)": {
        "details": "See {IERC165-supportsInterface}. Time complexity O(1), guaranteed to always use less than 30 000 gas."
      },
      "transferOwnership(address)": {
        "details": "Transfers ownership of the contract to a new account (`newOwner`). Can only be called by the current owner."
      }
    },
    "version": 1
  },
  "userdoc": {
    "kind": "user",
    "methods": {},
    "version": 1
  }
}