{
  "contractName": "ExchangeMetaV2",
  "abi": [
    {
      "anonymous": false,
      "inputs": [
        {
          "indexed": false,
          "internalType": "bytes32",
          "name": "hash",
          "type": "bytes32"
        }
      ],
      "name": "Cancel",
      "type": "event"
    },
    {
      "anonymous": false,
      "inputs": [
        {
          "indexed": false,
          "internalType": "bytes32",
          "name": "leftHash",
          "type": "bytes32"
        },
        {
          "indexed": false,
          "internalType": "bytes32",
          "name": "rightHash",
          "type": "bytes32"
        },
        {
          "indexed": false,
          "internalType": "uint256",
          "name": "newLeftFill",
          "type": "uint256"
        },
        {
          "indexed": false,
          "internalType": "uint256",
          "name": "newRightFill",
          "type": "uint256"
        }
      ],
      "name": "Match",
      "type": "event"
    },
    {
      "anonymous": false,
      "inputs": [
        {
          "indexed": true,
          "internalType": "bytes4",
          "name": "assetType",
          "type": "bytes4"
        },
        {
          "indexed": false,
          "internalType": "address",
          "name": "matcher",
          "type": "address"
        }
      ],
      "name": "MatcherChange",
      "type": "event"
    },
    {
      "anonymous": false,
      "inputs": [
        {
          "indexed": false,
          "internalType": "address",
          "name": "userAddress",
          "type": "address"
        },
        {
          "indexed": false,
          "internalType": "address payable",
          "name": "relayerAddress",
          "type": "address"
        },
        {
          "indexed": false,
          "internalType": "bytes",
          "name": "functionSignature",
          "type": "bytes"
        }
      ],
      "name": "MetaTransactionExecuted",
      "type": "event"
    },
    {
      "anonymous": false,
      "inputs": [
        {
          "indexed": true,
          "internalType": "address",
          "name": "previousOwner",
          "type": "address"
        },
        {
          "indexed": true,
          "internalType": "address",
          "name": "newOwner",
          "type": "address"
        }
      ],
      "name": "OwnershipTransferred",
      "type": "event"
    },
    {
      "anonymous": false,
      "inputs": [
        {
          "indexed": true,
          "internalType": "bytes4",
          "name": "assetType",
          "type": "bytes4"
        },
        {
          "indexed": false,
          "internalType": "address",
          "name": "proxy",
          "type": "address"
        }
      ],
      "name": "ProxyChange",
      "type": "event"
    },
    {
      "inputs": [
        {
          "components": [
            {
              "internalType": "address",
              "name": "maker",
              "type": "address"
            },
            {
              "components": [
                {
                  "components": [
                    {
                      "internalType": "bytes4",
                      "name": "assetClass",
                      "type": "bytes4"
                    },
                    {
                      "internalType": "bytes",
                      "name": "data",
                      "type": "bytes"
                    }
                  ],
                  "internalType": "struct LibAsset.AssetType",
                  "name": "assetType",
                  "type": "tuple"
                },
                {
                  "internalType": "uint256",
                  "name": "value",
                  "type": "uint256"
                }
              ],
              "internalType": "struct LibAsset.Asset",
              "name": "makeAsset",
              "type": "tuple"
            },
            {
              "internalType": "address",
              "name": "taker",
              "type": "address"
            },
            {
              "components": [
                {
                  "components": [
                    {
                      "internalType": "bytes4",
                      "name": "assetClass",
                      "type": "bytes4"
                    },
                    {
                      "internalType": "bytes",
                      "name": "data",
                      "type": "bytes"
                    }
                  ],
                  "internalType": "struct LibAsset.AssetType",
                  "name": "assetType",
                  "type": "tuple"
                },
                {
                  "internalType": "uint256",
                  "name": "value",
                  "type": "uint256"
                }
              ],
              "internalType": "struct LibAsset.Asset",
              "name": "takeAsset",
              "type": "tuple"
            },
            {
              "internalType": "uint256",
              "name": "salt",
              "type": "uint256"
            },
            {
              "internalType": "uint256",
              "name": "start",
              "type": "uint256"
            },
            {
              "internalType": "uint256",
              "name": "end",
              "type": "uint256"
            },
            {
              "internalType": "bytes4",
              "name": "dataType",
              "type": "bytes4"
            },
            {
              "internalType": "bytes",
              "name": "data",
              "type": "bytes"
            }
          ],
          "internalType": "struct LibOrder.Order",
          "name": "order",
          "type": "tuple"
        }
      ],
      "name": "cancel",
      "outputs": [],
      "stateMutability": "nonpayable",
      "type": "function"
    },
    {
      "inputs": [
        {
          "components": [
            {
              "internalType": "address",
              "name": "bidMaker",
              "type": "address"
            },
            {
              "internalType": "uint256",
              "name": "bidNftAmount",
              "type": "uint256"
            },
            {
              "internalType": "bytes4",
              "name": "nftAssetClass",
              "type": "bytes4"
            },
            {
              "internalType": "bytes",
              "name": "nftData",
              "type": "bytes"
            },
            {
              "internalType": "uint256",
              "name": "bidPaymentAmount",
              "type": "uint256"
            },
            {
              "internalType": "address",
              "name": "paymentToken",
              "type": "address"
            },
            {
              "internalType": "uint256",
              "name": "bidSalt",
              "type": "uint256"
            },
            {
              "internalType": "uint256",
              "name": "bidStart",
              "type": "uint256"
            },
            {
              "internalType": "uint256",
              "name": "bidEnd",
              "type": "uint256"
            },
            {
              "internalType": "bytes4",
              "name": "bidDataType",
              "type": "bytes4"
            },
            {
              "internalType": "bytes",
              "name": "bidData",
              "type": "bytes"
            },
            {
              "internalType": "bytes",
              "name": "bidSignature",
              "type": "bytes"
            },
            {
              "internalType": "uint256",
              "name": "sellOrderPaymentAmount",
              "type": "uint256"
            },
            {
              "internalType": "uint256",
              "name": "sellOrderNftAmount",
              "type": "uint256"
            },
            {
              "internalType": "bytes",
              "name": "sellOrderData",
              "type": "bytes"
            }
          ],
          "internalType": "struct LibDirectTransfer.AcceptBid",
          "name": "direct",
          "type": "tuple"
        }
      ],
      "name": "directAcceptBid",
      "outputs": [],
      "stateMutability": "payable",
      "type": "function"
    },
    {
      "inputs": [
        {
          "components": [
            {
              "internalType": "address",
              "name": "sellOrderMaker",
              "type": "address"
            },
            {
              "internalType": "uint256",
              "name": "sellOrderNftAmount",
              "type": "uint256"
            },
            {
              "internalType": "bytes4",
              "name": "nftAssetClass",
              "type": "bytes4"
            },
            {
              "internalType": "bytes",
              "name": "nftData",
              "type": "bytes"
            },
            {
              "internalType": "uint256",
              "name": "sellOrderPaymentAmount",
              "type": "uint256"
            },
            {
              "internalType": "address",
              "name": "paymentToken",
              "type": "address"
            },
            {
              "internalType": "uint256",
              "name": "sellOrderSalt",
              "type": "uint256"
            },
            {
              "internalType": "uint256",
              "name": "sellOrderStart",
              "type": "uint256"
            },
            {
              "internalType": "uint256",
              "name": "sellOrderEnd",
              "type": "uint256"
            },
            {
              "internalType": "bytes4",
              "name": "sellOrderDataType",
              "type": "bytes4"
            },
            {
              "internalType": "bytes",
              "name": "sellOrderData",
              "type": "bytes"
            },
            {
              "internalType": "bytes",
              "name": "sellOrderSignature",
              "type": "bytes"
            },
            {
              "internalType": "uint256",
              "name": "buyOrderPaymentAmount",
              "type": "uint256"
            },
            {
              "internalType": "uint256",
              "name": "buyOrderNftAmount",
              "type": "uint256"
            },
            {
              "internalType": "bytes",
              "name": "buyOrderData",
              "type": "bytes"
            }
          ],
          "internalType": "struct LibDirectTransfer.Purchase",
          "name": "direct",
          "type": "tuple"
        }
      ],
      "name": "directPurchase",
      "outputs": [],
      "stateMutability": "payable",
      "type": "function"
    },
    {
      "inputs": [
        {
          "internalType": "address",
          "name": "userAddress",
          "type": "address"
        },
        {
          "internalType": "bytes",
          "name": "functionSignature",
          "type": "bytes"
        },
        {
          "internalType": "bytes32",
          "name": "sigR",
          "type": "bytes32"
        },
        {
          "internalType": "bytes32",
          "name": "sigS",
          "type": "bytes32"
        },
        {
          "internalType": "uint8",
          "name": "sigV",
          "type": "uint8"
        }
      ],
      "name": "executeMetaTransaction",
      "outputs": [
        {
          "internalType": "bytes",
          "name": "",
          "type": "bytes"
        }
      ],
      "stateMutability": "payable",
      "type": "function"
    },
    {
      "inputs": [
        {
          "internalType": "bytes32",
          "name": "",
          "type": "bytes32"
        }
      ],
      "name": "fills",
      "outputs": [
        {
          "internalType": "uint256",
          "name": "",
          "type": "uint256"
        }
      ],
      "stateMutability": "view",
      "type": "function"
    },
    {
      "inputs": [
        {
          "internalType": "address",
          "name": "user",
          "type": "address"
        }
      ],
      "name": "getNonce",
      "outputs": [
        {
          "internalType": "uint256",
          "name": "nonce",
          "type": "uint256"
        }
      ],
      "stateMutability": "view",
      "type": "function"
    },
    {
      "inputs": [
        {
          "components": [
            {
              "internalType": "address",
              "name": "maker",
              "type": "address"
            },
            {
              "components": [
                {
                  "components": [
                    {
                      "internalType": "bytes4",
                      "name": "assetClass",
                      "type": "bytes4"
                    },
                    {
                      "internalType": "bytes",
                      "name": "data",
                      "type": "bytes"
                    }
                  ],
                  "internalType": "struct LibAsset.AssetType",
                  "name": "assetType",
                  "type": "tuple"
                },
                {
                  "internalType": "uint256",
                  "name": "value",
                  "type": "uint256"
                }
              ],
              "internalType": "struct LibAsset.Asset",
              "name": "makeAsset",
              "type": "tuple"
            },
            {
              "internalType": "address",
              "name": "taker",
              "type": "address"
            },
            {
              "components": [
                {
                  "components": [
                    {
                      "internalType": "bytes4",
                      "name": "assetClass",
                      "type": "bytes4"
                    },
                    {
                      "internalType": "bytes",
                      "name": "data",
                      "type": "bytes"
                    }
                  ],
                  "internalType": "struct LibAsset.AssetType",
                  "name": "assetType",
                  "type": "tuple"
                },
                {
                  "internalType": "uint256",
                  "name": "value",
                  "type": "uint256"
                }
              ],
              "internalType": "struct LibAsset.Asset",
              "name": "takeAsset",
              "type": "tuple"
            },
            {
              "internalType": "uint256",
              "name": "salt",
              "type": "uint256"
            },
            {
              "internalType": "uint256",
              "name": "start",
              "type": "uint256"
            },
            {
              "internalType": "uint256",
              "name": "end",
              "type": "uint256"
            },
            {
              "internalType": "bytes4",
              "name": "dataType",
              "type": "bytes4"
            },
            {
              "internalType": "bytes",
              "name": "data",
              "type": "bytes"
            }
          ],
          "internalType": "struct LibOrder.Order",
          "name": "orderLeft",
          "type": "tuple"
        },
        {
          "internalType": "bytes",
          "name": "signatureLeft",
          "type": "bytes"
        },
        {
          "components": [
            {
              "internalType": "address",
              "name": "maker",
              "type": "address"
            },
            {
              "components": [
                {
                  "components": [
                    {
                      "internalType": "bytes4",
                      "name": "assetClass",
                      "type": "bytes4"
                    },
                    {
                      "internalType": "bytes",
                      "name": "data",
                      "type": "bytes"
                    }
                  ],
                  "internalType": "struct LibAsset.AssetType",
                  "name": "assetType",
                  "type": "tuple"
                },
                {
                  "internalType": "uint256",
                  "name": "value",
                  "type": "uint256"
                }
              ],
              "internalType": "struct LibAsset.Asset",
              "name": "makeAsset",
              "type": "tuple"
            },
            {
              "internalType": "address",
              "name": "taker",
              "type": "address"
            },
            {
              "components": [
                {
                  "components": [
                    {
                      "internalType": "bytes4",
                      "name": "assetClass",
                      "type": "bytes4"
                    },
                    {
                      "internalType": "bytes",
                      "name": "data",
                      "type": "bytes"
                    }
                  ],
                  "internalType": "struct LibAsset.AssetType",
                  "name": "assetType",
                  "type": "tuple"
                },
                {
                  "internalType": "uint256",
                  "name": "value",
                  "type": "uint256"
                }
              ],
              "internalType": "struct LibAsset.Asset",
              "name": "takeAsset",
              "type": "tuple"
            },
            {
              "internalType": "uint256",
              "name": "salt",
              "type": "uint256"
            },
            {
              "internalType": "uint256",
              "name": "start",
              "type": "uint256"
            },
            {
              "internalType": "uint256",
              "name": "end",
              "type": "uint256"
            },
            {
              "internalType": "bytes4",
              "name": "dataType",
              "type": "bytes4"
            },
            {
              "internalType": "bytes",
              "name": "data",
              "type": "bytes"
            }
          ],
          "internalType": "struct LibOrder.Order",
          "name": "orderRight",
          "type": "tuple"
        },
        {
          "internalType": "bytes",
          "name": "signatureRight",
          "type": "bytes"
        }
      ],
      "name": "matchOrders",
      "outputs": [],
      "stateMutability": "payable",
      "type": "function"
    },
    {
      "inputs": [],
      "name": "owner",
      "outputs": [
        {
          "internalType": "address",
          "name": "",
          "type": "address"
        }
      ],
      "stateMutability": "view",
      "type": "function"
    },
    {
      "inputs": [],
      "name": "renounceOwnership",
      "outputs": [],
      "stateMutability": "nonpayable",
      "type": "function"
    },
    {
      "inputs": [],
      "name": "royaltiesRegistry",
      "outputs": [
        {
          "internalType": "contract IRoyaltiesProvider",
          "name": "",
          "type": "address"
        }
      ],
      "stateMutability": "view",
      "type": "function"
    },
    {
      "inputs": [
        {
          "internalType": "bytes4",
          "name": "assetType",
          "type": "bytes4"
        },
        {
          "internalType": "address",
          "name": "matcher",
          "type": "address"
        }
      ],
      "name": "setAssetMatcher",
      "outputs": [],
      "stateMutability": "nonpayable",
      "type": "function"
    },
    {
      "inputs": [
        {
          "internalType": "contract IRoyaltiesProvider",
          "name": "newRoyaltiesRegistry",
          "type": "address"
        }
      ],
      "name": "setRoyaltiesRegistry",
      "outputs": [],
      "stateMutability": "nonpayable",
      "type": "function"
    },
    {
      "inputs": [
        {
          "internalType": "bytes4",
          "name": "assetType",
          "type": "bytes4"
        },
        {
          "internalType": "address",
          "name": "proxy",
          "type": "address"
        }
      ],
      "name": "setTransferProxy",
      "outputs": [],
      "stateMutability": "nonpayable",
      "type": "function"
    },
    {
      "inputs": [
        {
          "internalType": "address",
          "name": "newOwner",
          "type": "address"
        }
      ],
      "name": "transferOwnership",
      "outputs": [],
      "stateMutability": "nonpayable",
      "type": "function"
    },
    {
      "inputs": [
        {
          "internalType": "address",
          "name": "_transferProxy",
          "type": "address"
        },
        {
          "internalType": "address",
          "name": "_erc20TransferProxy",
          "type": "address"
        },
        {
          "internalType": "uint256",
          "name": "newProtocolFee",
          "type": "uint256"
        },
        {
          "internalType": "address",
          "name": "newDefaultFeeReceiver",
          "type": "address"
        },
        {
          "internalType": "contract IRoyaltiesProvider",
          "name": "newRoyaltiesProvider",
          "type": "address"
        }
      ],
      "name": "__ExchangeV2_init",
      "outputs": [],
      "stateMutability": "nonpayable",
      "type": "function"
    }
  ],
  "bytecode": "0x608060405234801561001057600080fd5b50615bc680620000216000396000f3fe6080604052600436106100e85760003560e01c806367d49a3b1161008a578063b39deb4611610059578063b39deb4614610237578063e2864fe314610257578063e99a3f8014610277578063f2fde38b1461028a576100e8565b806367d49a3b146101d85780636d8f0694146101eb578063715018a61461020d5780638da5cb5b14610222576100e8565b806320158c44116100c657806320158c441461014b5780632d0335ab1461017857806330c642f1146101985780633be89922146101b8576100e8565b80630c53c51c146100ed5780630d5f7d35146101165780631372a6251461012b575b600080fd5b6101006100fb366004614eef565b6102aa565b60405161010d91906154a8565b60405180910390f35b610129610124366004615013565b610625565b005b34801561013757600080fd5b50610129610146366004614e88565b61094a565b34801561015757600080fd5b5061016b610166366004614fa7565b610a67565b60405161010d9190615484565b34801561018457600080fd5b5061016b610193366004614c33565b610a7a565b3480156101a457600080fd5b506101296101b3366004614fdb565b610a96565b3480156101c457600080fd5b506101296101d3366004614c33565b610b66565b6101296101e6366004615013565b610beb565b3480156101f757600080fd5b50610200610ece565b60405161010d91906153fb565b34801561021957600080fd5b50610129610ede565b34801561022e57600080fd5b50610200610f8a565b34801561024357600080fd5b50610129610252366004614fdb565b610f9a565b34801561026357600080fd5b506101296102723660046152ce565b61105e565b610129610285366004615300565b61111f565b34801561029657600080fd5b506101296102a5366004614c33565b611135565b606060006102b786611238565b90506000356001600160e01b0319908116908216141561031e576040805162461bcd60e51b815260206004820152601760248201527f57726f6e672066756e6374696f6e5369676e6174757265000000000000000000604482015290519081900360640190fd5b604080516060810182526001600160a01b038916600081815261019360209081529084902054835282015290810187905261035c8882888888611258565b6103975760405162461bcd60e51b8152600401808060200182810382526021815260200180615b706021913960400191505060405180910390fd5b6001600160a01b038816600090815261019360205260409020546103bc906001611342565b61019360008a6001600160a01b03166001600160a01b0316815260200190815260200160002081905550600080306001600160a01b0316898b6040516020018083805190602001908083835b602083106104275780518252601f199092019160209182019101610408565b6001836020036101000a038019825116818451168082178552505050505050905001826001600160a01b031660601b8152601401925050506040516020818303038152906040526040518082805190602001908083835b6020831061049d5780518252601f19909201916020918201910161047e565b6001836020036101000a0380198251168184511680821785525050505050509050019150506000604051808303816000865af19150503d80600081146104ff576040519150601f19603f3d011682016040523d82523d6000602084013e610504565b606091505b50915091508161055b576040805162461bcd60e51b815260206004820152601c60248201527f46756e6374696f6e2063616c6c206e6f74207375636365737366756c00000000604482015290519081900360640190fd5b7f5845892132946850460bff5a0083f71031bc5bf9aadcd40f1de79423eac9b10b8a338b60405180846001600160a01b03168152602001836001600160a01b0316815260200180602001828103825283818151815260200191508051906020019080838360005b838110156105da5781810151838201526020016105c2565b50505050905090810190601f1680156106075780820380516001836020036101000a031916815260200191505b5094505050505060405180910390a193505050505b95945050505050565b600061063f61063a60c0840160a08501614c33565b6113a5565b6040805161012081019091529091506000908061065f6020860186614c33565b6001600160a01b03168152602001604051806040016040528060405180604001604052808860400160208101906106969190614fbf565b6001600160e01b03191681526020016106b260608a018a61590a565b8080601f0160208091040260200160405190810160405280939291908181526020018383808284376000920182905250939094525050918352506020888101359281019290925291835282810191909152604080518082018252868152608080890135938201939093529083015260c080870135606084015260e08701359183019190915261010086013560a08301520161075561014086016101208701614fbf565b6001600160e01b031916815260200161077261014086018661590a565b8080601f01602080910402602001604051908101604052809392919081815260200183838082843760009201829052509390945250506040805161012081018252828152815180830183528781526101808901356020828101919091528201528082018390528151608081018352949550919391925060608084019291829182820191829161080691908c01908c01614fbf565b6001600160e01b031916815260200161082260608b018b61590a565b8080601f0160208091040260200160405190810160405280939291908181526020018383808284376000920182905250939094525050918352506101a0890135602092830152918352820181905260408201819052606082015260800161089961089461014088016101208901614fbf565b611408565b6001600160e01b03191681526020016108b66101c087018761590a565b8080601f0160208091040260200160405190810160405280939291908181526020018383808284376000920191909152505050915250905061093a8261090061016087018761590a565b8080601f01602080910402602001604051908101604052809392919081815260200183838082843760009201919091525061148e92505050565b61094482826114a5565b50505050565b600054610100900460ff16806109635750610963611703565b80610971575060005460ff16155b6109ac5760405162461bcd60e51b815260040180806020018281038252602e815260200180615adf602e913960400191505060405180910390fd5b600054610100900460ff161580156109d7576000805460ff1961ff0019909116610100171660011790555b6109df611714565b6109e76117b6565b6109ef6118af565b610a386040518060400160405280600e81526020016d22bc31b430b733b2a6b2ba30ab1960911b815250604051806040016040528060018152602001603160f81b81525061197f565b610a428686611a0f565b610a4d848484611ab9565b8015610a5f576000805461ff00191690555b505050505050565b61012f6020526000908152604090205481565b6001600160a01b03166000908152610193602052604090205490565b610a9e611b95565b6001600160a01b0316610aaf610f8a565b6001600160a01b031614610af8576040805162461bcd60e51b81526020600482018190526024820152600080516020615b50833981519152604482015290519081900360640190fd5b6001600160e01b031982166000818152609760205260409081902080546001600160a01b0319166001600160a01b038516179055517f4b5aced933c0c9a88aeac3f0b3b72c5aaf75df8ebaf53225773248c4c315359390610b5a9084906153fb565b60405180910390a25050565b610b6e611b95565b6001600160a01b0316610b7f610f8a565b6001600160a01b031614610bc8576040805162461bcd60e51b81526020600482018190526024820152600080516020615b50833981519152604482015290519081900360640190fd5b61016280546001600160a01b0319166001600160a01b0392909216919091179055565b6000610c0061063a60c0840160a08501614c33565b60408051610120810190915290915060009080610c206020860186614c33565b6001600160a01b0316815260200160405180604001604052808581526020018660800135815250815260200160006001600160a01b0316815260200160405180604001604052806040518060400160405280886040016020810190610c859190614fbf565b6001600160e01b0319168152602001610ca160608a018a61590a565b8080601f016020809104026020016040519081016040528093929190818152602001838380828437600092019190915250505091525081526020878101359181019190915290825260c08601359082015260e085013560408201526101008501356060820152608001610d1c61014086016101208701614fbf565b6001600160e01b0319168152602001610d3961014086018661590a565b8080601f01602080910402602001604051908101604052809392919081815260200183838082843760009201829052509390945250506040805161012081018252828152815160808101835294955091939192506020830191908190818101908190610dab9060608c01908c01614fbf565b6001600160e01b0319168152602001610dc760608b018b61590a565b8080601f0160208091040260200160405190810160405280939291908181526020018383808284376000920182905250939094525050918352506101a08901356020928301529183528281018290526040805180820182528881526101808a013592810192909252830152606082018190526080820181905260a082015260c001610e5d61089461014088016101208901614fbf565b6001600160e01b0319168152602001610e7a6101c087018761590a565b8080601f01602080910402602001604051908101604052809392919081815260200183838082843760009201919091525050509152509050610ec48261090061016087018761590a565b61094481836114a5565b610162546001600160a01b031681565b610ee6611b95565b6001600160a01b0316610ef7610f8a565b6001600160a01b031614610f40576040805162461bcd60e51b81526020600482018190526024820152600080516020615b50833981519152604482015290519081900360640190fd5b6033546040516000916001600160a01b0316907f8be0079c531659141344cd1fd0a4f28419497f9722a3daafe3b4186f6b6457e0908390a3603380546001600160a01b0319169055565b6033546001600160a01b03165b90565b610fa2611b95565b6001600160a01b0316610fb3610f8a565b6001600160a01b031614610ffc576040805162461bcd60e51b81526020600482018190526024820152600080516020615b50833981519152604482015290519081900360640190fd5b6001600160e01b031982166000818152606560205260409081902080546001600160a01b0319166001600160a01b038516179055517fd2bf91075f105d0fd80328da28e20ebdad1c1261839711183bc29a44cbe6c72f90610b5a9084906153fb565b80516001600160a01b0316611071611b95565b6001600160a01b0316146110a05760405162461bcd60e51b81526004016110979061587a565b60405180910390fd5b60808101516110c15760405162461bcd60e51b815260040161109790615596565b60006110cc82611ba4565b600081815261012f6020526040908190206000199055519091507fe8d9861dbc9c663ed3accd261bbe2fe01e0d3d9e5f51fa38523b265c7757a93a90611113908390615484565b60405180910390a15050565b61112b84848484611d2c565b61094484836114a5565b61113d611b95565b6001600160a01b031661114e610f8a565b6001600160a01b031614611197576040805162461bcd60e51b81526020600482018190526024820152600080516020615b50833981519152604482015290519081900360640190fd5b6001600160a01b0381166111dc5760405162461bcd60e51b8152600401808060200182810382526026815260200180615a4a6026913960400191505060405180910390fd5b6033546040516001600160a01b038084169216907f8be0079c531659141344cd1fd0a4f28419497f9722a3daafe3b4186f6b6457e090600090a3603380546001600160a01b0319166001600160a01b0392909216919091179055565b600081516000141561124c57506000611253565b5060208101515b919050565b600080600161126e61126988611df8565b611e7b565b84878760405160008152602001604052604051808581526020018460ff1681526020018381526020018281526020019450505050506020604051602081039080840390855afa1580156112c5573d6000803e3d6000fd5b5050604051601f1901519150506001600160a01b038116611321576040805162461bcd60e51b8152602060048201526011602482015270496e76616c6964207369676e617475726560781b604482015290519081900360640190fd5b866001600160a01b0316816001600160a01b03161491505095945050505050565b60008282018381101561139c576040805162461bcd60e51b815260206004820152601b60248201527f536166654d6174683a206164646974696f6e206f766572666c6f770000000000604482015290519081900360640190fd5b90505b92915050565b6113ad614837565b6113b5614837565b6001600160a01b0383166113d2576355575f5d60e11b815261139f565b6322ba176160e21b81526040516113ed9084906020016153fb565b60408051601f19818403018152919052602082015292915050565b60006001600160e01b03198216632fa3cfd360e01b141561144a57507f1b18cdf6be079a715471a3705c2d89e1d730066ce14915cb307cc3e4a90c92d4611253565b6001600160e01b03198216630d8c66fb60e11b141561148a57507f2fa3cfd36fc2a11048e46a7dac1916c392731880ba073f2b7f10566b2fd6133e611253565b5090565b61149782611ec7565b6114a18282611f91565b5050565b6000806114b2848461224d565b9150915060008060006114c587876122e6565b92509250925060008061162a6040518060a0016040528060405180604001604052808b8152602001876000015181525081526020018760000151815260200187602001518152602001609760008b600001516001600160e01b0319166001600160e01b031916815260200190815260200160002060009054906101000a90046001600160a01b03166001600160a01b031681526020018b600001516001600160a01b03168152506040518060a0016040528060405180604001604052808b8152602001886020015181525081526020018760000151815260200187602001518152602001609760008b600001516001600160e01b0319166001600160e01b031916815260200190815260200160002060009054906101000a90046001600160a01b03166001600160a01b031681526020018b600001516001600160a01b03168152506116258a600001518a600001518e60e001518e60e001518c8c612395565b6123e5565b885191935091506001600160e01b0319166355575f5d60e11b14156116a95785516001600160e01b0319166355575f5d60e11b141561166857600080fd5b813410156116885760405162461bcd60e51b815260040161109790615852565b813411156116a4576116a461169d34846124ea565b3390612547565b6116f8565b85516001600160e01b0319166355575f5d60e11b14156116f857803410156116e35760405162461bcd60e51b815260040161109790615852565b803411156116f8576116f861169d34836124ea565b505050505050505050565b600061170e306125e4565b15905090565b600054610100900460ff168061172d575061172d611703565b8061173b575060005460ff16155b6117765760405162461bcd60e51b815260040180806020018281038252602e815260200180615adf602e913960400191505060405180910390fd5b600054610100900460ff161580156117a1576000805460ff1961ff0019909116610100171660011790555b80156117b3576000805461ff00191690555b50565b600054610100900460ff16806117cf57506117cf611703565b806117dd575060005460ff16155b6118185760405162461bcd60e51b815260040180806020018281038252602e815260200180615adf602e913960400191505060405180910390fd5b600054610100900460ff16158015611843576000805460ff1961ff0019909116610100171660011790555b600061184d611b95565b603380546001600160a01b0319166001600160a01b038316908117909155604051919250906000907f8be0079c531659141344cd1fd0a4f28419497f9722a3daafe3b4186f6b6457e0908290a35080156117b3576000805461ff001916905550565b600054610100900460ff16806118c857506118c8611703565b806118d6575060005460ff16155b6119115760405162461bcd60e51b815260040180806020018281038252602e815260200180615adf602e913960400191505060405180910390fd5b600054610100900460ff1615801561193c576000805460ff1961ff0019909116610100171660011790555b6117a16040518060400160405280600881526020016745786368616e676560c01b815250604051806040016040528060018152602001601960f91b8152506125ea565b7f36c25de3e541d5d970f66e4210d728721220fff5c077cc6cd008b3a0c62adab782805190602001208280519060200120306119b96126aa565b60405160200180868152602001858152602001848152602001836001600160a01b031681526020018281526020019550505050505060405160208183030381529060405280519060200120610194819055505050565b60976020527f4532fa16f071d6234e30e1a1e69b9806f04095edf37a1ca7a25c8d6af7861cc080546001600160a01b039283166001600160a01b0319918216179091557f30a684095c937b5aa064dcf94f9903a7d808e3efb22d8389dbd43080ad4ed3d5805493909216928116831790915563025ceed960e61b6000527f4b5822151ea34b7c8d9e37c3e466bcecb631efe6a9f26a4a4054110a93dd316f80549091169091179055565b600054610100900460ff1680611ad25750611ad2611703565b80611ae0575060005460ff16155b611b1b5760405162461bcd60e51b815260040180806020018281038252602e815260200180615adf602e913960400191505060405180910390fd5b600054610100900460ff16158015611b46576000805460ff1961ff0019909116610100171660011790555b61016184905561016380546001600160a01b038086166001600160a01b0319928316179092556101628054928516929091169190911790558015610944576000805461ff001916905550505050565b6000611b9f6126b4565b905090565b60e08101516000906001600160e01b031916632611a13360e11b1480611bd8575060e08201516001600160e01b0319908116145b15611c4d578151602083015151611bee90612710565b606084015151611bfd90612710565b846080015160405160200180856001600160a01b03168152602001848152602001838152602001828152602001945050505050604051602081830303815290604052805190602001209050611253565b8151602083015151611c5e90612710565b606084015151611c6d90612710565b846080015185610100015160405160200180866001600160a01b0316815260200185815260200184815260200183815260200180602001828103825283818151815260200191508051906020019080838360005b83811015611cd9578181015183820152602001611cc1565b50505050905090810190601f168015611d065780820380516001836020036101000a031916815260200191505b509650505050505050604051602081830303815290604052805190602001209050611253565b611d36848461148e565b611d40828261148e565b60408401516001600160a01b031615611d9c5781516001600160a01b031615611d9c5783604001516001600160a01b031682600001516001600160a01b031614611d9c5760405162461bcd60e51b81526004016110979061580f565b60408201516001600160a01b0316156109445783516001600160a01b0316156109445783600001516001600160a01b031682604001516001600160a01b0316146109445760405162461bcd60e51b81526004016110979061567e565b6000604051806080016040528060438152602001615a0760439139805190602001208260000151836020015184604001518051906020012060405160200180858152602001848152602001836001600160a01b03168152602001828152602001945050505050604051602081830303815290604052805190602001209050919050565b6000611e8561277a565b82604051602001808061190160f01b81525060020183815260200182815260200192505050604051602081830303815290604052805190602001209050919050565b60a08101511580611edb5750428160a00151105b611f2c576040805162461bcd60e51b815260206004820152601d60248201527f4f726465722073746172742076616c69646174696f6e206661696c6564000000604482015290519081900360640190fd5b60c08101511580611f405750428160c00151115b6117b3576040805162461bcd60e51b815260206004820152601b60248201527f4f7264657220656e642076616c69646174696f6e206661696c65640000000000604482015290519081900360640190fd5b60808201516120165781516001600160a01b0316156120115781516001600160a01b0316611fbd611b95565b6001600160a01b031614612011576040805162461bcd60e51b815260206004820152601660248201527536b0b5b2b91034b9903737ba103a3c1039b2b73232b960511b604482015290519081900360640190fd5b6114a1565b81516001600160a01b0316612029611b95565b6001600160a01b0316146114a157600061204283612781565b90506000825160411415612066576120638361205d84612871565b9061287b565b90505b83516001600160a01b0382811691161461220657835161208e906001600160a01b03166125e4565b156121ca578351630b135d3f60e11b906001600160a01b0316631626ba7e6120b585612871565b866040518363ffffffff1660e01b81526004018083815260200180602001828103825283818151815260200191508051906020019080838360005b838110156121085781810151838201526020016120f0565b50505050905090810190601f1680156121355780820380516001836020036101000a031916815260200191505b50935050505060206040518083038186803b15801561215357600080fd5b505afa158015612167573d6000803e3d6000fd5b505050506040513d602081101561217d57600080fd5b50516001600160e01b031916146121c55760405162461bcd60e51b815260040180806020018281038252602b815260200180615ab4602b913960400191505060405180910390fd5b612201565b60405162461bcd60e51b8152600401808060200182810382526022815260200180615a926022913960400191505060405180910390fd5b610944565b83516001600160a01b0316610944576040805162461bcd60e51b815260206004820152600860248201526737379036b0b5b2b960c11b604482015290519081900360640190fd5b612255614837565b61225d614837565b60208401515160608401515161227391906128fb565b80519092506001600160e01b03191661229e5760405162461bcd60e51b8152600401611097906157e3565b6060840151516020840151516122b491906128fb565b80519091506001600160e01b0319166122df5760405162461bcd60e51b8152600401611097906157e3565b9250929050565b6122ee61484f565b6122f661484f565b6122fe614879565b600061230986611ba4565b9050600061231686611ba4565b90506000612322611b95565b88519091506001600160a01b0316612341576001600160a01b03811688525b86516001600160a01b031661235d576001600160a01b03811687525b6123668861293b565b95506123718761293b565b9450612389888885858a604001518a60400151612b1b565b93505050509250925092565b61239d614893565b6123a78787612c7f565b816020019060028111156123b757fe5b908160028111156123c457fe5b815250506123d9858585858560200151612d50565b81529695505050505050565b825160209081015183519091015160018360200151600281111561240557fe5b141561244a5761241a85858560000151612f04565b9150612445846000015160000151856000015160200151866080015188602001518860600151613153565b6124e2565b60028360200151600281111561245c57fe5b141561249c5761247184868560000151612f04565b9050612445856000015160000151866000015160200151876080015187602001518960600151613153565b8451805160209182015160808801519287015160608901516124bf949190613153565b8351805160209182015160808701519288015160608801516124e2949190613153565b935093915050565b600082821115612541576040805162461bcd60e51b815260206004820152601e60248201527f536166654d6174683a207375627472616374696f6e206f766572666c6f770000604482015290519081900360640190fd5b50900390565b6040516000906001600160a01b0384169083908381818185875af1925050503d8060008114612592576040519150601f19603f3d011682016040523d82523d6000602084013e612597565b606091505b50509050806125df576040805162461bcd60e51b815260206004820152600f60248201526e1d1c985b9cd9995c8819985a5b1959608a1b604482015290519081900360640190fd5b505050565b3b151590565b600054610100900460ff16806126035750612603611703565b80612611575060005460ff16155b61264c5760405162461bcd60e51b815260040180806020018281038252602e815260200180615adf602e913960400191505060405180910390fd5b600054610100900460ff16158015612677576000805460ff1961ff0019909116610100171660011790555b825160208085019190912083519184019190912060c99190915560ca5580156125df576000805461ff0019169055505050565b6000611b9f6132d7565b60003330141561270b57600080368080601f0160208091040260200160405190810160405280939291908181526020018383808284376000920191909152505050503601516001600160a01b03169150610f979050565b503390565b8051602091820151805190830120604080517f452a0dc408cb0d27ffc3b3caff933a5208040a53a9dbecd8d89cad2c0d40e00c818601526001600160e01b031990931683820152606080840192909252805180840390920182526080909201909152805191012090565b6101945490565b60007f477ed43b8020849b755512278536c3766a3b4ab547519949a75f483372493f8d82600001516127b684602001516132db565b84604001516127c886606001516132db565b86608001518760a001518860c001518960e001518a610100015180519060200120604051602001808b81526020018a6001600160a01b03168152602001898152602001886001600160a01b03168152602001878152602001868152602001858152602001848152602001836001600160e01b03191681526020018281526020019a5050505050505050505050604051602081830303815290604052805190602001209050919050565b6000611e8561334b565b600081516041146128d3576040805162461bcd60e51b815260206004820152601f60248201527f45434453413a20696e76616c6964207369676e6174757265206c656e67746800604482015290519081900360640190fd5b60208201516040830151606084015160001a6128f186828585613386565b9695505050505050565b612903614837565b600061290f84846135d3565b80519091506001600160e01b0319166129345761292c83856135d3565b91505061139f565b905061139f565b61294361484f565b60e08201516001600160e01b031916632611a13360e11b141561298f57600082610100015180602001905181019061297b91906150d0565b805183526020908101519083015250612b02565b60e08201516001600160e01b0319166323d235ef60e01b14156129e75760008261010001518060200190518101906129c7919061515c565b805183526020808201519084015260409081015115159083015250612b02565b60e08201516001600160e01b031916632fa3cfd360e01b1415612a5f576000826101000151806020019051810190612a1f9190615266565b9050612a2e81600001516137ef565b825260208101516040820151612a449190613852565b60208301526001604083015260609081015190820152612b02565b60e08201516001600160e01b031916630d8c66fb60e11b1415612ace576000826101000151806020019051810190612a979190615208565b9050612aa681600001516137ef565b825260208101516040820151612abc9190613852565b60208301525060006040820152612b02565b60e08201516001600160e01b03199081161415612aea57612b02565b60405162461bcd60e51b815260040161109790615775565b805151611253578151612b14906139b5565b8152919050565b612b23614879565b6000612b33886080015187613a50565b90506000612b45886080015187613a50565b90506000612b578a8a85858a8a613a75565b905060008160200151118015612b6d5750805115155b612b895760405162461bcd60e51b8152600401611097906156ee565b60808a015115612bdc578515612bbb578051612ba6908490611342565b600089815261012f6020526040902055612bdc565b6020810151612bcb908490611342565b600089815261012f60205260409020555b608089015115612c2f578415612c11576020810151612bfc908390611342565b600088815261012f6020526040902055612c2f565b8051612c1e908390611342565b600088815261012f60205260409020555b602081015181516040517f956cd63ee4cdcd81fda5f0ec7c6c36dceda99e1b412f4a650a5d26055dc3c45092612c6a928c928c92919061548d565b60405180910390a19998505050505050505050565b60006001600160e01b031983166355575f5d60e11b1415612ca25750600161139f565b6001600160e01b031982166355575f5d60e11b1415612cc35750600261139f565b6001600160e01b031983166322ba176160e21b1415612ce45750600161139f565b6001600160e01b031982166322ba176160e21b1415612d055750600261139f565b6001600160e01b0319831663025ceed960e61b1415612d265750600161139f565b6001600160e01b0319821663025ceed960e61b1415612d475750600261139f565b50600092915050565b60006001600160e01b03198616632fa3cfd360e01b14801590612d8457506001600160e01b03198516632fa3cfd360e01b14155b8015612da157506001600160e01b03198616630d8c66fb60e11b14155b8015612dbe57506001600160e01b03198516630d8c66fb60e11b14155b15612dcb5750600061061c565b6000612ddf85602001518560200151613afb565b905060006001846002811115612df157fe5b1415612e4e575060608401516001600160e01b03198816630d8c66fb60e11b148015612e2d57506001600160e01b03198716632fa3cfd360e01b145b612e495760405162461bcd60e51b8152600401611097906155c4565b612ebf565b6002846002811115612e5c57fe5b1415612eb4575060608501516001600160e01b03198716630d8c66fb60e11b148015612e9857506001600160e01b03198816632fa3cfd360e01b145b612e495760405162461bcd60e51b815260040161109790615656565b60009250505061061c565b600081118015612ecf5750818110155b8015612edd57506103e88111155b612ef95760405162461bcd60e51b815260040161109790615630565b979650505050505050565b6000612f1d846000015160200151856040015184613b7a565b84518051855151602080880151930151608089015160608a01519596508695612f4a959287929091613c28565b90508460400151516001148015612f6657508360400151516001145b8015612fbb57508460400151600081518110612f7e57fe5b6020026020010151600001516001600160a01b03168460400151600081518110612fa457fe5b6020026020010151600001516001600160a01b0316145b156130d157604080516001808252818301909252600091816020015b612fdf614893565b815260200190600190039081612fd7579050509050846040015160008151811061300557fe5b6020026020010151600001518160008151811061301e57fe5b60209081029190910101516001600160a01b0390911690526040860151805160009061304657fe5b602002602001015160200151856040015160008151811061306357fe5b602002602001015160200151018160008151811061307d57fe5b6020026020010151602001906001600160601b031690816001600160601b0316815250506130c786600001516000015183886000015160200151848a608001518b60600151613d2b565b50915061312a9050565b6130fb85600001516000015182876000015160200151886040015189608001518a60600151613d2b565b50855180516020909101516040870151608089015160608a0151949550613126948693929190613d2b565b5090505b61314b85600001516000015182876080015187602001518960600151613153565b509392505050565b60008251116131745760405162461bcd60e51b8152600401611097906155ec565b600084815b60018551038110156132435760006131ba86838151811061319657fe5b6020026020010151602001516001600160601b031689613de090919063ffffffff16565b90506131ef8683815181106131cb57fe5b6020026020010151602001516001600160601b03168561134290919063ffffffff16565b9350801561323a5761320183826124ea565b925061323a60405180604001604052808b8152602001838152508888858151811061322857fe5b60200260200101516000015188613df8565b50600101613179565b5060008460018651038151811061325657fe5b6020026020010151905061328081602001516001600160601b03168461134290919063ffffffff16565b925082612710146132a35760405162461bcd60e51b8152600401611097906157ac565b81156132cd576132cd60405180604001604052808a81526020018481525087836000015187613df8565b5050505050505050565b4690565b60007fdb6f72e915676cfc289da13bc4ece054fd17b1df6d77ffc4a60510718c236b0861330b8360000151612710565b8360200151604051602001808481526020018381526020018281526020019350505050604051602081830303815290604052805190602001209050919050565b6000611b9f7f8b73c3c69bb8fe3d512ecc4cf759cc79239f7b179b0ffacaa9a75d522b39400f6133796141fb565b613381614201565b614207565b60007f7fffffffffffffffffffffffffffffff5d576e7357a4501ddfe92f46681b20a08211156133e75760405162461bcd60e51b8152600401808060200182810382526022815260200180615a706022913960400191505060405180910390fd5b6000601e8560ff1611156134c1576004850360ff16601b148061341057506004850360ff16601c145b61344b5760405162461bcd60e51b8152600401808060200182810382526022815260200180615b0d6022913960400191505060405180910390fd5b600161345687614269565b60048703868660405160008152602001604052604051808581526020018460ff1681526020018381526020018281526020019450505050506020604051602081039080840390855afa1580156134b0573d6000803e3d6000fd5b505050602060405103519050613578565b8460ff16601b14806134d657508460ff16601c145b6135115760405162461bcd60e51b8152600401808060200182810382526022815260200180615b0d6022913960400191505060405180910390fd5b60018686868660405160008152602001604052604051808581526020018460ff1681526020018381526020018281526020019450505050506020604051602081039080840390855afa15801561356b573d6000803e3d6000fd5b5050506020604051035190505b6001600160a01b03811661061c576040805162461bcd60e51b815260206004820152601860248201527f45434453413a20696e76616c6964207369676e61747572650000000000000000604482015290519081900360640190fd5b6135db614837565b825182516001600160e01b031982166355575f5d60e11b1415613646576001600160e01b031981166355575f5d60e11b141561361b57849250505061139f565b505060408051808201825260008082528251602081810190945290815291810191909152905061139f565b6001600160e01b031982166322ba176160e21b141561368b576001600160e01b031981166322ba176160e21b141561361b5761368285856142ba565b9250505061139f565b6001600160e01b031982166339d690a360e11b14156136c7576001600160e01b031981166339d690a360e11b141561361b5761368285856142ba565b6001600160e01b0319821663025ceed960e61b1415613703576001600160e01b0319811663025ceed960e61b141561361b5761368285856142ba565b6001600160e01b031982166000908152606560205260409020546001600160a01b031680156137b8576040516306d3f7cb60e41b81526001600160a01b03821690636d3f7cb09061375a908990899060040161589f565b60006040518083038186803b15801561377257600080fd5b505afa158015613786573d6000803e3d6000fd5b505050506040513d6000823e601f3d908101601f191682016040526137ae9190810190615045565b935050505061139f565b6001600160e01b031983811690831614156137d7576137ae86866142ba565b60405162461bcd60e51b815260040161109790615528565b606080821561139f5760408051600180825281830190925290816020015b613815614893565b81526020019060019003908161380d57905050905061383383614317565b8160008151811061384057fe5b60200260200101819052509050919050565b6060806000841180156138655750600083115b156138e0576040805160028082526060820190925290816020015b613888614893565b8152602001906001900390816138805790505090506138a684614317565b816000815181106138b357fe5b60200260200101819052506138c783614317565b816001815181106138d457fe5b60200260200101819052505b6000841180156138ee575082155b156139475760408051600180825281830190925290816020015b613910614893565b81526020019060019003908161390857905050905061392e84614317565b8160008151811061393b57fe5b60200260200101819052505b831580156139555750600083115b1561139c5760408051600180825281830190925290816020015b613977614893565b81526020019060019003908161396f57905050905061399583614317565b816000815181106139a257fe5b6020026020010181905250905092915050565b60408051600180825281830190925260609160009190816020015b6139d8614893565b8152602001906001900390816139d057905050905082816000815181106139fb57fe5b6020026020010151600001906001600160a01b031690816001600160a01b03168152505061271081600081518110613a2f57fe5b6020908102919091018101516001600160601b039092169101529050919050565b600082613a5f5750600061139f565b50600090815261012f6020526040902054919050565b613a7d614879565b600080613a8b89888761433f565b91509150600080613a9d8a898861433f565b9150915083811115613ad057613ac584848c60200151602001518d60600151602001516143b8565b9450505050506128f1565b613aec8b60200151602001518c6060015160200151848461443d565b9b9a5050505050505050505050565b600080805b8451811015613b3b57848181518110613b1557fe5b6020026020010151602001516001600160601b0316820191508080600101915050613b00565b5060005b835181101561314b57838181518110613b5457fe5b6020026020010151602001516001600160601b0316820191508080600101915050613b3f565b60008115613b89575082613c21565b6000805b8451811015613c0857612710858281518110613ba557fe5b6020026020010151602001516001600160601b03161115613bd85760405162461bcd60e51b815260040161109790615746565b848181518110613be457fe5b6020026020010151602001516001600160601b031682019150806001019050613b8d565b50613c1d613c168683613de0565b8690611342565b9150505b9392505050565b600080613c34886144c3565b905080516001148015613c48575086516001145b8015613c95575086600081518110613c5c57fe5b6020026020010151600001516001600160a01b031681600081518110613c7e57fe5b6020026020010151600001516001600160a01b0316145b15613ce65761138881600081518110613caa57fe5b6020026020010151602001516001600160601b03161115613cdd5760405162461bcd60e51b81526004016110979061555f565b85915050612ef9565b600080613cf78b8989868a8a613d2b565b91509150611388811115613d1d5760405162461bcd60e51b81526004016110979061555f565b509998505050505050505050565b846000805b8551811015613dd457613d6c868281518110613d4857fe5b6020026020010151602001516001600160601b03168361134290919063ffffffff16565b91506000613d9b8489898581518110613d8157fe5b6020026020010151602001516001600160601b0316614638565b90945090508015613dcb57613dcb60405180604001604052808c8152602001838152508789858151811061322857fe5b50600101613d30565b50965096945050505050565b600061139c612710613df2858561465a565b906146b3565b8351516001600160e01b0319166339d690a360e11b1415613f3e57600080856000015160200151806020019051810190613e329190614e5b565b915091508560200151600114613e5a5760405162461bcd60e51b8152600401611097906156c2565b6001600160a01b038516301415613ed257604051632142170760e11b81526001600160a01b038316906342842e0e90613e9b9030908890869060040161540f565b600060405180830381600087803b158015613eb557600080fd5b505af1158015613ec9573d6000803e3d6000fd5b50505050613f37565b604051637b84dc8360e11b81526001600160a01b0384169063f709b90690613f049085908990899087906004016154fe565b600060405180830381600087803b158015613f1e57600080fd5b505af1158015613f32573d6000803e3d6000fd5b505050505b5050610944565b8351516001600160e01b0319166322ba176160e21b141561409c576000846000015160200151806020019051810190613f779190614c4f565b90506001600160a01b03841630141561402e57602085015160405163a9059cbb60e01b81526001600160a01b0383169163a9059cbb91613fbb91879160040161546b565b602060405180830381600087803b158015613fd557600080fd5b505af1158015613fe9573d6000803e3d6000fd5b505050506040513d601f19601f8201168201806040525081019061400d9190614f8d565b6140295760405162461bcd60e51b815260040161109790615717565b614096565b602085015160405163776062c360e01b81526001600160a01b0384169163776062c391614063918591899189916004016154fe565b600060405180830381600087803b15801561407d57600080fd5b505af1158015614091573d6000803e3d6000fd5b505050505b50610944565b8351516001600160e01b03191663025ceed960e61b1415614159576000808560000151602001518060200190518101906140d69190614e5b565b90925090506001600160a01b038516301415614121576020860151604051637921219560e11b81526001600160a01b0384169163f242432a91613e9b91309189918791600401615433565b6020860151604051639c1c2ee960e01b81526001600160a01b03851691639c1c2ee991613f049186918a918a918891906004016154bb565b8351516001600160e01b0319166355575f5d60e11b141561419d576001600160a01b0382163014612201576020840151612201906001600160a01b03841690612547565b6040516354bc0cf160e01b81526001600160a01b038216906354bc0cf1906141cd908790879087906004016158c4565b600060405180830381600087803b1580156141e757600080fd5b505af11580156132cd573d6000803e3d6000fd5b60c95490565b60ca5490565b60008383836142146132d7565b3060405160200180868152602001858152602001848152602001838152602001826001600160a01b03168152602001955050505050506040516020818303038152906040528051906020012090509392505050565b604080517f19457468657265756d205369676e6564204d6573736167653a0a333200000000602080830191909152603c8083019490945282518083039094018452605c909101909152815191012090565b6142c2614837565b602080840151805190820120838201518051920191909120808214156142ec57849250505061139f565b5050604080518082018252600080825282516020808201909452908152918101919091529392505050565b61431f614893565b8115611253576001600160a01b038216815260a09190911c602082015290565b600080821561437e57602080860151015161435a90856124ea565b91506143778560600151602001518660200151602001518461471a565b90506124e2565b60608501516020015161439190856124ea565b90506143ae8560200151602001518660600151602001518361471a565b9150935093915050565b6143c0614879565b60006143cd85858561471a565b905085811115614424576040805162461bcd60e51b815260206004820152601860248201527f66696c6c4c6566743a20756e61626c6520746f2066696c6c0000000000000000604482015290519081900360640190fd5b5050604080518082019091529384525050602082015290565b614445614879565b600061445283878761471a565b9050838111156144a9576040805162461bcd60e51b815260206004820152601960248201527f66696c6c52696768743a20756e61626c6520746f2066696c6c00000000000000604482015290519081900360640190fd5b604080518082019091529283526020830152509392505050565b80516060906001600160e01b03191663025ceed960e61b14806144f7575081516001600160e01b0319166339d690a360e11b145b156145ad5760008083602001518060200190518101906145179190614e5b565b61016254604051634e53ee3d60e11b81529294509092506001600160a01b031690639ca7dc7a9061454e908590859060040161546b565b600060405180830381600087803b15801561456857600080fd5b505af115801561457c573d6000803e3d6000fd5b505050506040513d6000823e601f3d908101601f191682016040526145a49190810190614f5b565b92505050611253565b81516001600160e01b03191662737ea960e61b14156145ee57600082602001518060200190518101906145e09190614c6b565b608001519250611253915050565b81516001600160e01b03191663d8f960c160e01b141561463057600082602001518060200190518101906146229190614d68565b606001519250611253915050565b506060919050565b60008061464e856146498686613de0565b614780565b91509150935093915050565b6000826146695750600061139f565b8282028284828161467657fe5b041461139c5760405162461bcd60e51b8152600401808060200182810382526021815260200180615b2f6021913960400191505060405180910390fd5b6000808211614709576040805162461bcd60e51b815260206004820152601a60248201527f536166654d6174683a206469766973696f6e206279207a65726f000000000000604482015290519081900360640190fd5b81838161471257fe5b049392505050565b60006147278484846147a8565b1561476a576040805162461bcd60e51b815260206004820152600e60248201526d3937bab73234b7339032b93937b960911b604482015290519081900360640190fd5b61477883613df2868561465a565b949350505050565b6000808284111561479f5761479584846124ea565b91508290506122df565b50600093915050565b6000826147ef576040805162461bcd60e51b815260206004820152601060248201526f6469766973696f6e206279207a65726f60801b604482015290519081900360640190fd5b8115806147fa575083155b1561480757506000613c21565b6000838061481157fe5b8584099050614820858461465a565b61482c826103e861465a565b101595945050505050565b60408051808201909152600081526060602082015290565b60405180608001604052806060815260200160608152602001600015158152602001600081525090565b604051806040016040528060008152602001600081525090565b604080518082019091526000808252602082015290565b8035611253816159db565b600082601f8301126148c5578081fd5b815160206148da6148d583615971565b61594e565b82815281810190858301855b8581101561490f576148fd898684518b0101614a3e565b845292840192908401906001016148e6565b5090979650505050505050565b600082601f83011261492c578081fd5b8151602061493c6148d583615971565b8281528181019085830160408086028801850189101561495a578687fd5b865b868110156149c95781838b031215614972578788fd5b81518281018181106001600160401b038211171561498c57fe5b83528351614999816159db565b8152838701516001600160601b03811681146149b357898afd5b818801528552938501939181019160010161495c565b509198975050505050505050565b8051801515811461125357600080fd5b8035611253816159f0565b600082601f830112614a02578081fd5b8135614a106148d58261598e565b818152846020838601011115614a24578283fd5b816020850160208301379081016020019190915292915050565b600082601f830112614a4e578081fd5b8151614a5c6148d58261598e565b818152846020838601011115614a70578283fd5b6147788260208301602087016159af565b60006101e08284031215614a93578081fd5b50919050565b60006040808385031215614aab578182fd5b80518181016001600160401b038282108183111715614ac657fe5b818452829450853581811115614adb57600080fd5b8601808803851315614aec57600080fd5b608084018381108382111715614afe57fe5b909452833593614b0d856159f0565b93825260208401359381851115614b2357600080fd5b614b2f888683016149f2565b60608501525050815260209384013593019290925292915050565b6000610120808385031215614b5d578182fd5b614b668161594e565b915050614b72826148aa565b815260208201356001600160401b0380821115614b8e57600080fd5b614b9a85838601614a99565b6020840152614bab604085016148aa565b60408401526060840135915080821115614bc457600080fd5b614bd085838601614a99565b60608401526080840135608084015260a084013560a084015260c084013560c0840152614bff60e085016149e7565b60e084015261010091508184013581811115614c1a57600080fd5b614c26868287016149f2565b8385015250505092915050565b600060208284031215614c44578081fd5b813561139c816159db565b600060208284031215614c60578081fd5b815161139c816159db565b60008060408385031215614c7d578081fd5b8251614c88816159db565b60208401519092506001600160401b0380821115614ca4578283fd5b9084019060c08287031215614cb7578283fd5b614cc160c061594e565b82518152602083015182811115614cd6578485fd5b614ce288828601614a3e565b60208301525060408301516040820152606083015182811115614d03578485fd5b614d0f8882860161491c565b606083015250608083015182811115614d26578485fd5b614d328882860161491c565b60808301525060a083015182811115614d49578485fd5b614d55888286016148b5565b60a0830152508093505050509250929050565b60008060408385031215614d7a578182fd5b8251614d85816159db565b60208401519092506001600160401b0380821115614da1578283fd5b9084019060a08287031215614db4578283fd5b614dbe60a061594e565b82518152602083015182811115614dd3578485fd5b614ddf88828601614a3e565b602083015250604083015182811115614df6578485fd5b614e028882860161491c565b604083015250606083015182811115614e19578485fd5b614e258882860161491c565b606083015250608083015182811115614e3c578485fd5b614e48888286016148b5565b6080830152508093505050509250929050565b60008060408385031215614e6d578182fd5b8251614e78816159db565b6020939093015192949293505050565b600080600080600060a08688031215614e9f578081fd5b8535614eaa816159db565b94506020860135614eba816159db565b9350604086013592506060860135614ed1816159db565b91506080860135614ee1816159db565b809150509295509295909350565b600080600080600060a08688031215614f06578283fd5b8535614f11816159db565b945060208601356001600160401b03811115614f2b578384fd5b614f37888289016149f2565b9450506040860135925060608601359150608086013560ff81168114614ee1578182fd5b600060208284031215614f6c578081fd5b81516001600160401b03811115614f81578182fd5b6147788482850161491c565b600060208284031215614f9e578081fd5b61139c826149d7565b600060208284031215614fb8578081fd5b5035919050565b600060208284031215614fd0578081fd5b813561139c816159f0565b60008060408385031215614fed578182fd5b8235614ff8816159f0565b91506020830135615008816159db565b809150509250929050565b600060208284031215615024578081fd5b81356001600160401b03811115615039578182fd5b61477884828501614a81565b600060208284031215615056578081fd5b81516001600160401b038082111561506c578283fd5b908301906040828603121561507f578283fd5b60405160408101818110838211171561509457fe5b60405282516150a2816159f0565b81526020830151828111156150b5578485fd5b6150c187828601614a3e565b60208301525095945050505050565b6000602082840312156150e1578081fd5b81516001600160401b03808211156150f7578283fd5b908301906040828603121561510a578283fd5b60405160408101818110838211171561511f57fe5b604052825182811115615130578485fd5b61513c8782860161491c565b825250602083015182811115615150578485fd5b6150c18782860161491c565b60006020828403121561516d578081fd5b81516001600160401b0380821115615183578283fd5b9083019060608286031215615196578283fd5b6040516060810181811083821117156151ab57fe5b6040528251828111156151bc578485fd5b6151c88782860161491c565b8252506020830151828111156151dc578485fd5b6151e88782860161491c565b6020830152506151fa604084016149d7565b604082015295945050505050565b600060808284031215615219578081fd5b604051608081018181106001600160401b038211171561523557fe5b8060405250825181526020830151602082015260408301516040820152606083015160608201528091505092915050565b600060a08284031215615277578081fd5b60405160a081018181106001600160401b038211171561529357fe5b806040525082518152602083015160208201526040830151604082015260608301516060820152608083015160808201528091505092915050565b6000602082840312156152df578081fd5b81356001600160401b038111156152f4578182fd5b61477884828501614b4a565b60008060008060808587031215615315578182fd5b84356001600160401b038082111561532b578384fd5b61533788838901614b4a565b9550602087013591508082111561534c578384fd5b615358888389016149f2565b9450604087013591508082111561536d578384fd5b61537988838901614b4a565b9350606087013591508082111561538e578283fd5b5061539b878288016149f2565b91505092959194509250565b600081518084526153bf8160208601602086016159af565b601f01601f19169290920160200192915050565b600063ffffffff60e01b825116835260208201516040602085015261477860408501826153a7565b6001600160a01b0391909116815260200190565b6001600160a01b039384168152919092166020820152604081019190915260600190565b6001600160a01b0394851681529290931660208301526040820152606081019190915260a06080820181905260009082015260c00190565b6001600160a01b03929092168252602082015260400190565b90815260200190565b93845260208401929092526040830152606082015260800190565b60006020825261139c60208301846153a7565b6001600160a01b03958616815293851660208501529190931660408301526060820192909252608081019190915260c060a0820181905260009082015260e00190565b6001600160a01b039485168152928416602084015292166040820152606081019190915260800190565b60208082526017908201527f6e6f7420666f756e64204941737365744d617463686572000000000000000000604082015260600190565b6020808252601d908201527f526f79616c746965732061726520746f6f206869676820283e35302529000000604082015260600190565b6020808252601490820152730c081cd85b1d0818d85b89dd081899481d5cd95960621b604082015260600190565b6020808252600e908201526d77726f6e6720563320747970653160901b604082015260600190565b60208082526024908201527f7472616e736665725061796f7574733a206e6f7468696e6720746f207472616e60408201526339b332b960e11b606082015260800190565b6020808252600c908201526b77726f6e67206d617846656560a01b604082015260600190565b6020808252600e908201526d3bb937b733902b19903a3cb8329960911b604082015260600190565b60208082526024908201527f72696768744f726465722e74616b657220766572696669636174696f6e2066616040820152631a5b195960e21b606082015260800190565b60208082526012908201527132b9319b9918903b30b63ab29032b93937b960711b604082015260600190565b6020808252600f908201526e1b9bdd1a1a5b99c81d1bc8199a5b1b608a1b604082015260600190565b602080825260159082015274195c98cc8c081d1c985b9cd9995c8819985a5b1959605a1b604082015260600190565b6020808252601590820152746f726967696e2066656520697320746f6f2062696760581b604082015260600190565b60208082526017908201527f556e6b6e6f776e204f7264657220646174612074797065000000000000000000604082015260600190565b6020808252601e908201527f53756d207061796f75747320427073206e6f7420657175616c20313030250000604082015260600190565b6020808252601290820152710c2e6e6cae8e640c8dedc4ee840dac2e8c6d60731b604082015260600190565b60208082526023908201527f6c6566744f726465722e74616b657220766572696669636174696f6e206661696040820152621b195960ea1b606082015260800190565b6020808252600e908201526d0dcdee840cadcdeeaced040cae8d60931b604082015260600190565b6020808252600b908201526a3737ba10309036b0b5b2b960a91b604082015260600190565b6000604082526158b260408301856153d3565b8281036020840152613c1d81856153d3565b6000606082528451604060608401526158e060a08401826153d3565b60209687015160808501526001600160a01b03958616968401969096525050911660409091015290565b6000808335601e19843603018112615920578283fd5b8301803591506001600160401b03821115615939578283fd5b6020019150368190038213156122df57600080fd5b6040518181016001600160401b038111828210171561596957fe5b604052919050565b60006001600160401b0382111561598457fe5b5060209081020190565b60006001600160401b038211156159a157fe5b50601f01601f191660200190565b60005b838110156159ca5781810151838201526020016159b2565b838111156109445750506000910152565b6001600160a01b03811681146117b357600080fd5b6001600160e01b0319811681146117b357600080fdfe4d6574615472616e73616374696f6e2875696e74323536206e6f6e63652c616464726573732066726f6d2c62797465732066756e6374696f6e5369676e6174757265294f776e61626c653a206e6577206f776e657220697320746865207a65726f206164647265737345434453413a20696e76616c6964207369676e6174757265202773272076616c75656f72646572207369676e617475726520766572696669636174696f6e206572726f72636f6e7472616374206f72646572207369676e617475726520766572696669636174696f6e206572726f72496e697469616c697a61626c653a20636f6e747261637420697320616c726561647920696e697469616c697a656445434453413a20696e76616c6964207369676e6174757265202776272076616c7565536166654d6174683a206d756c7469706c69636174696f6e206f766572666c6f774f776e61626c653a2063616c6c6572206973206e6f7420746865206f776e65725369676e657220616e64207369676e617475726520646f206e6f74206d61746368a26469706673582212204ad8ffb9822febd4fc250a38e1c6fb8c15b921c2a4bb4e2a616e54edb6a3f81564736f6c63430007060033",
  "immutableReferences": {},
  "source": "// SPDX-License-Identifier: MIT\n\npragma solidity 0.7.6;\npragma abicoder v2;\n\nimport \"./ExchangeV2Core.sol\";\nimport \"@rarible/meta-tx/contracts/EIP712MetaTransaction.sol\";\nimport \"@rarible/transfer-manager/contracts/RaribleTransferManager.sol\";\n\ncontract ExchangeMetaV2 is ExchangeV2Core, RaribleTransferManager, EIP712MetaTransaction {\n    function __ExchangeV2_init(\n        address _transferProxy,\n        address _erc20TransferProxy,\n        uint newProtocolFee,\n        address newDefaultFeeReceiver,\n        IRoyaltiesProvider newRoyaltiesProvider\n    ) external initializer {\n        __Context_init_unchained();\n        __Ownable_init_unchained();\n        __OrderValidator_init_unchained();\n        __MetaTransaction_init_unchained(\"ExchangeMetaV2\", \"1\");\n        __TransferExecutor_init_unchained(_transferProxy, _erc20TransferProxy);\n        __RaribleTransferManager_init_unchained(newProtocolFee, newDefaultFeeReceiver, newRoyaltiesProvider);\n    }\n\n    function _msgSender() internal view virtual override(ContextUpgradeable, EIP712MetaTransaction) returns (address payable) {\n        return super._msgSender();\n    }\n\n}\n",
  "sourcePath": "@rarible/exchange-v2/contracts/ExchangeMetaV2.sol",
  "compiler": {
    "name": "solc",
    "version": "0.7.6+commit.7338295f.Emscripten.clang"
  },
  "schemaVersion": "3.4.3",
  "updatedAt": "2022-12-21T14:04:22.253Z",
  "networkType": "ethereum",
  "devdoc": {
    "kind": "dev",
    "methods": {
      "directAcceptBid((address,uint256,bytes4,bytes,uint256,address,uint256,uint256,uint256,bytes4,bytes,bytes,uint256,uint256,bytes))": {
        "details": "function, generate sellOrder and buyOrder from parameters and call validateAndMatch() for accept bid transaction",
        "params": {
          "direct": "struct with parameters for accept bid operation"
        }
      },
      "directPurchase((address,uint256,bytes4,bytes,uint256,address,uint256,uint256,uint256,bytes4,bytes,bytes,uint256,uint256,bytes))": {
        "details": "function, generate sellOrder and buyOrder from parameters and call validateAndMatch() for purchase transaction"
      },
      "owner()": {
        "details": "Returns the address of the current owner."
      },
      "renounceOwnership()": {
        "details": "Leaves the contract without owner. It will not be possible to call `onlyOwner` functions anymore. Can only be called by the current owner. NOTE: Renouncing ownership will leave the contract without an owner, thereby removing any functionality that is only available to the owner."
      },
      "transferOwnership(address)": {
        "details": "Transfers ownership of the contract to a new account (`newOwner`). Can only be called by the current owner."
      }
    },
    "version": 1
  },
  "userdoc": {
    "kind": "user",
    "methods": {},
    "version": 1
  }
}