{
  "contractName": "ExchangeV2",
  "abi": [
    {
      "anonymous": false,
      "inputs": [
        {
          "indexed": false,
          "internalType": "bytes32",
          "name": "hash",
          "type": "bytes32"
        }
      ],
      "name": "Cancel",
      "type": "event"
    },
    {
      "anonymous": false,
      "inputs": [
        {
          "indexed": false,
          "internalType": "uint256",
          "name": "newLeftFill",
          "type": "uint256"
        },
        {
          "indexed": false,
          "internalType": "uint256",
          "name": "newRightFill",
          "type": "uint256"
        }
      ],
      "name": "Match",
      "type": "event"
    },
    {
      "anonymous": false,
      "inputs": [
        {
          "indexed": true,
          "internalType": "bytes4",
          "name": "assetType",
          "type": "bytes4"
        },
        {
          "indexed": false,
          "internalType": "address",
          "name": "matcher",
          "type": "address"
        }
      ],
      "name": "MatcherChange",
      "type": "event"
    },
    {
      "anonymous": false,
      "inputs": [
        {
          "indexed": true,
          "internalType": "address",
          "name": "previousOwner",
          "type": "address"
        },
        {
          "indexed": true,
          "internalType": "address",
          "name": "newOwner",
          "type": "address"
        }
      ],
      "name": "OwnershipTransferred",
      "type": "event"
    },
    {
      "anonymous": false,
      "inputs": [
        {
          "indexed": false,
          "internalType": "uint256",
          "name": "oldValue",
          "type": "uint256"
        },
        {
          "indexed": false,
          "internalType": "uint256",
          "name": "newValue",
          "type": "uint256"
        }
      ],
      "name": "ProtocolFeeChanged",
      "type": "event"
    },
    {
      "anonymous": false,
      "inputs": [
        {
          "indexed": true,
          "internalType": "bytes4",
          "name": "assetType",
          "type": "bytes4"
        },
        {
          "indexed": false,
          "internalType": "address",
          "name": "proxy",
          "type": "address"
        }
      ],
      "name": "ProxyChange",
      "type": "event"
    },
    {
      "inputs": [
        {
          "components": [
            {
              "internalType": "address",
              "name": "maker",
              "type": "address"
            },
            {
              "components": [
                {
                  "components": [
                    {
                      "internalType": "bytes4",
                      "name": "assetClass",
                      "type": "bytes4"
                    },
                    {
                      "internalType": "bytes",
                      "name": "data",
                      "type": "bytes"
                    }
                  ],
                  "internalType": "struct LibAsset.AssetType",
                  "name": "assetType",
                  "type": "tuple"
                },
                {
                  "internalType": "uint256",
                  "name": "value",
                  "type": "uint256"
                }
              ],
              "internalType": "struct LibAsset.Asset",
              "name": "makeAsset",
              "type": "tuple"
            },
            {
              "internalType": "address",
              "name": "taker",
              "type": "address"
            },
            {
              "components": [
                {
                  "components": [
                    {
                      "internalType": "bytes4",
                      "name": "assetClass",
                      "type": "bytes4"
                    },
                    {
                      "internalType": "bytes",
                      "name": "data",
                      "type": "bytes"
                    }
                  ],
                  "internalType": "struct LibAsset.AssetType",
                  "name": "assetType",
                  "type": "tuple"
                },
                {
                  "internalType": "uint256",
                  "name": "value",
                  "type": "uint256"
                }
              ],
              "internalType": "struct LibAsset.Asset",
              "name": "takeAsset",
              "type": "tuple"
            },
            {
              "internalType": "uint256",
              "name": "salt",
              "type": "uint256"
            },
            {
              "internalType": "uint256",
              "name": "start",
              "type": "uint256"
            },
            {
              "internalType": "uint256",
              "name": "end",
              "type": "uint256"
            },
            {
              "internalType": "bytes4",
              "name": "dataType",
              "type": "bytes4"
            },
            {
              "internalType": "bytes",
              "name": "data",
              "type": "bytes"
            }
          ],
          "internalType": "struct LibOrder.Order",
          "name": "order",
          "type": "tuple"
        }
      ],
      "name": "cancel",
      "outputs": [],
      "stateMutability": "nonpayable",
      "type": "function"
    },
    {
      "inputs": [],
      "name": "defaultFeeReceiver",
      "outputs": [
        {
          "internalType": "address",
          "name": "",
          "type": "address"
        }
      ],
      "stateMutability": "view",
      "type": "function"
    },
    {
      "inputs": [
        {
          "components": [
            {
              "internalType": "address",
              "name": "buyer",
              "type": "address"
            },
            {
              "internalType": "address",
              "name": "tokenPayment",
              "type": "address"
            },
            {
              "internalType": "address",
              "name": "tokenNft",
              "type": "address"
            },
            {
              "internalType": "bytes4",
              "name": "assetType",
              "type": "bytes4"
            },
            {
              "internalType": "uint256",
              "name": "tokenId",
              "type": "uint256"
            },
            {
              "internalType": "uint256",
              "name": "tokenAmount",
              "type": "uint256"
            },
            {
              "internalType": "uint256",
              "name": "price",
              "type": "uint256"
            },
            {
              "internalType": "uint256",
              "name": "salt",
              "type": "uint256"
            },
            {
              "internalType": "bytes",
              "name": "signature",
              "type": "bytes"
            }
          ],
          "internalType": "struct LibDirectPurchase.AcceptBid",
          "name": "direct",
          "type": "tuple"
        },
        {
          "internalType": "bytes",
          "name": "buyData",
          "type": "bytes"
        },
        {
          "internalType": "bytes",
          "name": "sellData",
          "type": "bytes"
        }
      ],
      "name": "directAcceptBid",
      "outputs": [],
      "stateMutability": "payable",
      "type": "function"
    },
    {
      "inputs": [
        {
          "components": [
            {
              "internalType": "address",
              "name": "seller",
              "type": "address"
            },
            {
              "internalType": "address",
              "name": "token",
              "type": "address"
            },
            {
              "internalType": "bytes4",
              "name": "assetType",
              "type": "bytes4"
            },
            {
              "internalType": "uint256",
              "name": "tokenId",
              "type": "uint256"
            },
            {
              "internalType": "uint256",
              "name": "tokenAmount",
              "type": "uint256"
            },
            {
              "internalType": "uint256",
              "name": "price",
              "type": "uint256"
            },
            {
              "internalType": "uint256",
              "name": "salt",
              "type": "uint256"
            },
            {
              "internalType": "bytes",
              "name": "signature",
              "type": "bytes"
            }
          ],
          "internalType": "struct LibDirectPurchase.Purchase",
          "name": "direct",
          "type": "tuple"
        },
        {
          "internalType": "bytes",
          "name": "sellData",
          "type": "bytes"
        },
        {
          "internalType": "bytes",
          "name": "buyData",
          "type": "bytes"
        }
      ],
      "name": "directPurchase",
      "outputs": [],
      "stateMutability": "payable",
      "type": "function"
    },
    {
      "inputs": [
        {
          "internalType": "address",
          "name": "",
          "type": "address"
        }
      ],
      "name": "feeReceivers",
      "outputs": [
        {
          "internalType": "address",
          "name": "",
          "type": "address"
        }
      ],
      "stateMutability": "view",
      "type": "function"
    },
    {
      "inputs": [
        {
          "internalType": "bytes32",
          "name": "",
          "type": "bytes32"
        }
      ],
      "name": "fills",
      "outputs": [
        {
          "internalType": "uint256",
          "name": "",
          "type": "uint256"
        }
      ],
      "stateMutability": "view",
      "type": "function"
    },
    {
      "inputs": [
        {
          "components": [
            {
              "internalType": "address",
              "name": "maker",
              "type": "address"
            },
            {
              "components": [
                {
                  "components": [
                    {
                      "internalType": "bytes4",
                      "name": "assetClass",
                      "type": "bytes4"
                    },
                    {
                      "internalType": "bytes",
                      "name": "data",
                      "type": "bytes"
                    }
                  ],
                  "internalType": "struct LibAsset.AssetType",
                  "name": "assetType",
                  "type": "tuple"
                },
                {
                  "internalType": "uint256",
                  "name": "value",
                  "type": "uint256"
                }
              ],
              "internalType": "struct LibAsset.Asset",
              "name": "makeAsset",
              "type": "tuple"
            },
            {
              "internalType": "address",
              "name": "taker",
              "type": "address"
            },
            {
              "components": [
                {
                  "components": [
                    {
                      "internalType": "bytes4",
                      "name": "assetClass",
                      "type": "bytes4"
                    },
                    {
                      "internalType": "bytes",
                      "name": "data",
                      "type": "bytes"
                    }
                  ],
                  "internalType": "struct LibAsset.AssetType",
                  "name": "assetType",
                  "type": "tuple"
                },
                {
                  "internalType": "uint256",
                  "name": "value",
                  "type": "uint256"
                }
              ],
              "internalType": "struct LibAsset.Asset",
              "name": "takeAsset",
              "type": "tuple"
            },
            {
              "internalType": "uint256",
              "name": "salt",
              "type": "uint256"
            },
            {
              "internalType": "uint256",
              "name": "start",
              "type": "uint256"
            },
            {
              "internalType": "uint256",
              "name": "end",
              "type": "uint256"
            },
            {
              "internalType": "bytes4",
              "name": "dataType",
              "type": "bytes4"
            },
            {
              "internalType": "bytes",
              "name": "data",
              "type": "bytes"
            }
          ],
          "internalType": "struct LibOrder.Order",
          "name": "orderLeft",
          "type": "tuple"
        },
        {
          "internalType": "bytes",
          "name": "signatureLeft",
          "type": "bytes"
        },
        {
          "components": [
            {
              "internalType": "address",
              "name": "maker",
              "type": "address"
            },
            {
              "components": [
                {
                  "components": [
                    {
                      "internalType": "bytes4",
                      "name": "assetClass",
                      "type": "bytes4"
                    },
                    {
                      "internalType": "bytes",
                      "name": "data",
                      "type": "bytes"
                    }
                  ],
                  "internalType": "struct LibAsset.AssetType",
                  "name": "assetType",
                  "type": "tuple"
                },
                {
                  "internalType": "uint256",
                  "name": "value",
                  "type": "uint256"
                }
              ],
              "internalType": "struct LibAsset.Asset",
              "name": "makeAsset",
              "type": "tuple"
            },
            {
              "internalType": "address",
              "name": "taker",
              "type": "address"
            },
            {
              "components": [
                {
                  "components": [
                    {
                      "internalType": "bytes4",
                      "name": "assetClass",
                      "type": "bytes4"
                    },
                    {
                      "internalType": "bytes",
                      "name": "data",
                      "type": "bytes"
                    }
                  ],
                  "internalType": "struct LibAsset.AssetType",
                  "name": "assetType",
                  "type": "tuple"
                },
                {
                  "internalType": "uint256",
                  "name": "value",
                  "type": "uint256"
                }
              ],
              "internalType": "struct LibAsset.Asset",
              "name": "takeAsset",
              "type": "tuple"
            },
            {
              "internalType": "uint256",
              "name": "salt",
              "type": "uint256"
            },
            {
              "internalType": "uint256",
              "name": "start",
              "type": "uint256"
            },
            {
              "internalType": "uint256",
              "name": "end",
              "type": "uint256"
            },
            {
              "internalType": "bytes4",
              "name": "dataType",
              "type": "bytes4"
            },
            {
              "internalType": "bytes",
              "name": "data",
              "type": "bytes"
            }
          ],
          "internalType": "struct LibOrder.Order",
          "name": "orderRight",
          "type": "tuple"
        },
        {
          "internalType": "bytes",
          "name": "signatureRight",
          "type": "bytes"
        }
      ],
      "name": "matchOrders",
      "outputs": [],
      "stateMutability": "payable",
      "type": "function"
    },
    {
      "inputs": [],
      "name": "owner",
      "outputs": [
        {
          "internalType": "address",
          "name": "",
          "type": "address"
        }
      ],
      "stateMutability": "view",
      "type": "function"
    },
    {
      "inputs": [],
      "name": "protocolFee",
      "outputs": [
        {
          "internalType": "uint256",
          "name": "",
          "type": "uint256"
        }
      ],
      "stateMutability": "view",
      "type": "function"
    },
    {
      "inputs": [],
      "name": "renounceOwnership",
      "outputs": [],
      "stateMutability": "nonpayable",
      "type": "function"
    },
    {
      "inputs": [],
      "name": "royaltiesRegistry",
      "outputs": [
        {
          "internalType": "contract IRoyaltiesProvider",
          "name": "",
          "type": "address"
        }
      ],
      "stateMutability": "view",
      "type": "function"
    },
    {
      "inputs": [
        {
          "internalType": "bytes4",
          "name": "assetType",
          "type": "bytes4"
        },
        {
          "internalType": "address",
          "name": "matcher",
          "type": "address"
        }
      ],
      "name": "setAssetMatcher",
      "outputs": [],
      "stateMutability": "nonpayable",
      "type": "function"
    },
    {
      "inputs": [
        {
          "internalType": "address payable",
          "name": "newDefaultFeeReceiver",
          "type": "address"
        }
      ],
      "name": "setDefaultFeeReceiver",
      "outputs": [],
      "stateMutability": "nonpayable",
      "type": "function"
    },
    {
      "inputs": [
        {
          "internalType": "address",
          "name": "token",
          "type": "address"
        },
        {
          "internalType": "address",
          "name": "wallet",
          "type": "address"
        }
      ],
      "name": "setFeeReceiver",
      "outputs": [],
      "stateMutability": "nonpayable",
      "type": "function"
    },
    {
      "inputs": [
        {
          "internalType": "uint64",
          "name": "_protocolFee",
          "type": "uint64"
        }
      ],
      "name": "setProtocolFee",
      "outputs": [],
      "stateMutability": "nonpayable",
      "type": "function"
    },
    {
      "inputs": [
        {
          "internalType": "contract IRoyaltiesProvider",
          "name": "newRoyaltiesRegistry",
          "type": "address"
        }
      ],
      "name": "setRoyaltiesRegistry",
      "outputs": [],
      "stateMutability": "nonpayable",
      "type": "function"
    },
    {
      "inputs": [
        {
          "internalType": "bytes4",
          "name": "assetType",
          "type": "bytes4"
        },
        {
          "internalType": "address",
          "name": "proxy",
          "type": "address"
        }
      ],
      "name": "setTransferProxy",
      "outputs": [],
      "stateMutability": "nonpayable",
      "type": "function"
    },
    {
      "inputs": [
        {
          "internalType": "address",
          "name": "newOwner",
          "type": "address"
        }
      ],
      "name": "transferOwnership",
      "outputs": [],
      "stateMutability": "nonpayable",
      "type": "function"
    },
    {
      "inputs": [
        {
          "internalType": "address",
          "name": "_transferProxy",
          "type": "address"
        },
        {
          "internalType": "address",
          "name": "_erc20TransferProxy",
          "type": "address"
        },
        {
          "internalType": "uint256",
          "name": "newProtocolFee",
          "type": "uint256"
        },
        {
          "internalType": "address",
          "name": "newDefaultFeeReceiver",
          "type": "address"
        },
        {
          "internalType": "contract IRoyaltiesProvider",
          "name": "newRoyaltiesProvider",
          "type": "address"
        }
      ],
      "name": "__ExchangeV2_init",
      "outputs": [],
      "stateMutability": "nonpayable",
      "type": "function"
    }
  ],
  "bytecode": "0x608060405234801561001057600080fd5b5061579780620000216000396000f3fe6080604052600436106101145760003560e01c806366094ae1116100a0578063b39deb4611610064578063b39deb46146102ad578063e2864fe3146102cd578063e66db25e146102ed578063e99a3f801461030d578063f2fde38b1461032057610114565b806366094ae1146102465780636d8f069414610259578063715018a61461026e5780638da5cb5b14610283578063b0e21e8a1461029857610114565b806330c642f1116100e757806330c642f1146101be5780633abf6fd4146101de5780633be89922146101f357806343bc42d314610213578063577f3b9a1461023357610114565b806302097ab1146101195780631372a6251461014f5780631cdfe3d81461017157806320158c4414610191575b600080fd5b34801561012557600080fd5b506101396101343660046148a6565b610340565b60405161014691906150ce565b60405180910390f35b34801561015b57600080fd5b5061016f61016a366004614b33565b61035c565b005b34801561017d57600080fd5b5061016f61018c3660046148a6565b610430565b34801561019d57600080fd5b506101b16101ac366004614be6565b6104b5565b6040516101469190615157565b3480156101ca57600080fd5b5061016f6101d9366004614c1a565b6104c8565b3480156101ea57600080fd5b50610139610598565b3480156101ff57600080fd5b5061016f61020e3660046148a6565b6105a8565b34801561021f57600080fd5b5061016f61022e36600461505e565b61062d565b61016f61024136600461501d565b6106da565b61016f610254366004614c37565b61098c565b34801561026557600080fd5b50610139610c01565b34801561027a57600080fd5b5061016f610c11565b34801561028f57600080fd5b50610139610cbd565b3480156102a457600080fd5b506101b1610ccc565b3480156102b957600080fd5b5061016f6102c8366004614c1a565b610cd3565b3480156102d957600080fd5b5061016f6102e8366004614f44565b610d97565b3480156102f957600080fd5b5061016f610308366004614afb565b610e58565b61016f61031b366004614f76565b610ee9565b34801561032c57600080fd5b5061016f61033b3660046148a6565b610f05565b610162602052600090815260409020546001600160a01b031681565b600054610100900460ff16806103755750610375611008565b80610383575060005460ff16155b6103be5760405162461bcd60e51b815260040180806020018281038252602e8152602001806156d1602e913960400191505060405180910390fd5b600054610100900460ff161580156103e9576000805460ff1961ff0019909116610100171660011790555b6103f1611019565b6103f96110bb565b61040386866111b4565b61040e84848461125e565b61041661133a565b8015610428576000805461ff00191690555b505050505050565b61043861140a565b6001600160a01b0316610449610cbd565b6001600160a01b031614610492576040805162461bcd60e51b81526020600482018190526024820152600080516020615742833981519152604482015290519081900360640190fd5b61016180546001600160a01b0319166001600160a01b0392909216919091179055565b61012f6020526000908152604090205481565b6104d061140a565b6001600160a01b03166104e1610cbd565b6001600160a01b03161461052a576040805162461bcd60e51b81526020600482018190526024820152600080516020615742833981519152604482015290519081900360640190fd5b6001600160e01b031982166000818152609760205260409081902080546001600160a01b0319166001600160a01b038516179055517f4b5aced933c0c9a88aeac3f0b3b72c5aaf75df8ebaf53225773248c4c31535939061058c9084906150ce565b60405180910390a25050565b610161546001600160a01b031681565b6105b061140a565b6001600160a01b03166105c1610cbd565b6001600160a01b03161461060a576040805162461bcd60e51b81526020600482018190526024820152600080516020615742833981519152604482015290519081900360640190fd5b61016080546001600160a01b0319166001600160a01b0392909216919091179055565b61063561140a565b6001600160a01b0316610646610cbd565b6001600160a01b03161461068f576040805162461bcd60e51b81526020600482018190526024820152600080516020615742833981519152604482015290519081900360640190fd5b7fb51bef650ff5ad43303dbe2e500a74d4fd1bdc9ae05f046bece330e82ae0ba8761015f54826040516106c3929190615528565b60405180910390a16001600160401b031661015f55565b60006106ec60408701602088016148a6565b866060013560405160200161070292919061513e565b60408051601f1981840301815260808301825292506000919081908181019081906107339060608d01908d01614bfe565b6001600160e01b031916815260209081018690529082526080808b0135928201929092526040805192830181526355575f5d60e11b838201908152815180840183526000808252606086019190915290845260a08c013584840152815161012081019092529394509192919081906107ad908c018c6148a6565b6001600160a01b0316815260200184815260200160006001600160a01b031681526020018381526020018a60c00135815260200160008152602001600081526020017f2fa3cfd36fc2a11048e46a7dac1916c392731880ba073f2b7f10566b2fd6133e6001600160e01b031916815260200189898080601f01602080910402602001604051908101604052809392919081815260200183838082843760009201829052509390945250506040805161012081019091529293509190508061087261140a565b6001600160a01b0316815260200184815260200160006001600160a01b031681526020018581526020016000815260200160008152602001600081526020017f1b18cdf6be079a715471a3705c2d89e1d730066ce14915cb307cc3e4a90c92d46001600160e01b031916815260200188888080601f016020809104026020016040519081016040528093929190818152602001838380828437600092019190915250505091525090506109768261092c60e08d018d61553f565b8080601f01602080910402602001604051908101604052809392919081815260200183838082843760009201829052506040805160208101909152908152879350915061140e9050565b61098082826114ba565b50505050505050505050565b600061099e60408701602088016148a6565b6040516020016109ae91906150ce565b60408051601f198184030181526080830182526322ba176160e21b838301908152606080850183905290845260c08a013560208501529093506109f6919089019089016148a6565b8760800135604051602001610a0c92919061513e565b60408051601f1981840301815260808084018352909450600092918291908201908190610a3e908d0160608e01614bfe565b6001600160e01b03191681526020018681525081526020018960a00135815250905060006040518061012001604052808a6000016020810190610a8191906148a6565b6001600160a01b0316815260200184815260200160006001600160a01b031681526020018381526020018a60e00135815260200160008152602001600081526020017f1b18cdf6be079a715471a3705c2d89e1d730066ce14915cb307cc3e4a90c92d46001600160e01b031916815260200189898080601f016020809104026020016040519081016040528093929190818152602001838380828437600092018290525093909452505060408051610120810190915292935091905080610b4661140a565b6001600160a01b0316815260200184815260200160006001600160a01b031681526020018581526020016000815260200160008152602001600081526020017f2fa3cfd36fc2a11048e46a7dac1916c392731880ba073f2b7f10566b2fd6133e6001600160e01b031916815260200188888080601f016020809104026020016040519081016040528093929190818152602001838380828437600092019190915250505091525090506109768261092c6101008d018d61553f565b610160546001600160a01b031681565b610c1961140a565b6001600160a01b0316610c2a610cbd565b6001600160a01b031614610c73576040805162461bcd60e51b81526020600482018190526024820152600080516020615742833981519152604482015290519081900360640190fd5b6033546040516000916001600160a01b0316907f8be0079c531659141344cd1fd0a4f28419497f9722a3daafe3b4186f6b6457e0908390a3603380546001600160a01b0319169055565b6033546001600160a01b031690565b61015f5481565b610cdb61140a565b6001600160a01b0316610cec610cbd565b6001600160a01b031614610d35576040805162461bcd60e51b81526020600482018190526024820152600080516020615742833981519152604482015290519081900360640190fd5b6001600160e01b031982166000818152606560205260409081902080546001600160a01b0319166001600160a01b038516179055517fd2bf91075f105d0fd80328da28e20ebdad1c1261839711183bc29a44cbe6c72f9061058c9084906150ce565b80516001600160a01b0316610daa61140a565b6001600160a01b031614610dd95760405162461bcd60e51b8152600401610dd09061548a565b60405180910390fd5b6080810151610dfa5760405162461bcd60e51b8152600401610dd09061523b565b6000610e0582611784565b600081815261012f6020526040908190206000199055519091507fe8d9861dbc9c663ed3accd261bbe2fe01e0d3d9e5f51fa38523b265c7757a93a90610e4c908390615157565b60405180910390a15050565b610e6061140a565b6001600160a01b0316610e71610cbd565b6001600160a01b031614610eba576040805162461bcd60e51b81526020600482018190526024820152600080516020615742833981519152604482015290519081900360640190fd5b6001600160a01b0391821660009081526101626020526040902080546001600160a01b03191691909216179055565b610ef58484848461140e565b610eff84836114ba565b50505050565b610f0d61140a565b6001600160a01b0316610f1e610cbd565b6001600160a01b031614610f67576040805162461bcd60e51b81526020600482018190526024820152600080516020615742833981519152604482015290519081900360640190fd5b6001600160a01b038116610fac5760405162461bcd60e51b815260040180806020018281038252602681526020018061563c6026913960400191505060405180910390fd5b6033546040516001600160a01b038084169216907f8be0079c531659141344cd1fd0a4f28419497f9722a3daafe3b4186f6b6457e090600090a3603380546001600160a01b0319166001600160a01b0392909216919091179055565b60006110133061190d565b15905090565b600054610100900460ff16806110325750611032611008565b80611040575060005460ff16155b61107b5760405162461bcd60e51b815260040180806020018281038252602e8152602001806156d1602e913960400191505060405180910390fd5b600054610100900460ff161580156110a6576000805460ff1961ff0019909116610100171660011790555b80156110b8576000805461ff00191690555b50565b600054610100900460ff16806110d457506110d4611008565b806110e2575060005460ff16155b61111d5760405162461bcd60e51b815260040180806020018281038252602e8152602001806156d1602e913960400191505060405180910390fd5b600054610100900460ff16158015611148576000805460ff1961ff0019909116610100171660011790555b600061115261140a565b603380546001600160a01b0319166001600160a01b038316908117909155604051919250906000907f8be0079c531659141344cd1fd0a4f28419497f9722a3daafe3b4186f6b6457e0908290a35080156110b8576000805461ff001916905550565b60976020527f4532fa16f071d6234e30e1a1e69b9806f04095edf37a1ca7a25c8d6af7861cc080546001600160a01b039283166001600160a01b0319918216179091557f30a684095c937b5aa064dcf94f9903a7d808e3efb22d8389dbd43080ad4ed3d5805493909216928116831790915563025ceed960e61b6000527f4b5822151ea34b7c8d9e37c3e466bcecb631efe6a9f26a4a4054110a93dd316f80549091169091179055565b600054610100900460ff16806112775750611277611008565b80611285575060005460ff16155b6112c05760405162461bcd60e51b815260040180806020018281038252602e8152602001806156d1602e913960400191505060405180910390fd5b600054610100900460ff161580156112eb576000805460ff1961ff0019909116610100171660011790555b61015f84905561016180546001600160a01b038086166001600160a01b0319928316179092556101608054928516929091169190911790558015610eff576000805461ff001916905550505050565b600054610100900460ff16806113535750611353611008565b80611361575060005460ff16155b61139c5760405162461bcd60e51b815260040180806020018281038252602e8152602001806156d1602e913960400191505060405180910390fd5b600054610100900460ff161580156113c7576000805460ff1961ff0019909116610100171660011790555b6110a66040518060400160405280600881526020016745786368616e676560c01b815250604051806040016040528060018152602001601960f91b815250611913565b3390565b61141884846119d4565b61142282826119d4565b60408401516001600160a01b03161561146e5783604001516001600160a01b031682600001516001600160a01b03161461146e5760405162461bcd60e51b8152600401610dd09061541f565b60408201516001600160a01b031615610eff5783600001516001600160a01b031682604001516001600160a01b031614610eff5760405162461bcd60e51b8152600401610dd090615323565b6000806114c784846119eb565b9150915060006114d685611a84565b905060006114e385611a84565b905060006114fb878785604001518560400151611c6d565b905060008061165c6040518060a0016040528060405180604001604052808b8152602001876000015181525081526020018760000151815260200187602001518152602001609760008b600001516001600160e01b0319166001600160e01b031916815260200190815260200160002060009054906101000a90046001600160a01b03166001600160a01b031681526020018b600001516001600160a01b03168152506040518060a0016040528060405180604001604052808b8152602001886020015181525081526020018760000151815260200187602001518152602001609760008b600001516001600160e01b0319166001600160e01b031916815260200190815260200160002060009054906101000a90046001600160a01b03166001600160a01b031681526020018b600001516001600160a01b03168152506116578a600001518a600001518e60e001518e60e001518c8c611daa565b611e0d565b885191935091506001600160e01b0319166355575f5d60e11b14156116eb5785516001600160e01b0319166355575f5d60e11b141561169a57600080fd5b813410156116ba5760405162461bcd60e51b8152600401610dd090615462565b813411156116e6576116e66116cf3484611f1c565b6116d761140a565b6001600160a01b031690611f7e565b61173a565b85516001600160e01b0319166355575f5d60e11b141561173a57803410156117255760405162461bcd60e51b8152600401610dd090615462565b8034111561173a5761173a6116cf3483611f1c565b602083015183516040517ff7f3111fa896b22b4c2b4d808aba59e9fab4e40a697881d951f4ba91011b9df69261177192909161551a565b60405180910390a1505050505050505050565b60e08101516000906001600160e01b031916632611a13360e11b14806117b8575060e08201516001600160e01b0319908116145b1561182d5781516020830151516117ce90612016565b6060840151516117dd90612016565b846080015160405160200180856001600160a01b03168152602001848152602001838152602001828152602001945050505050604051602081830303815290604052805190602001209050611908565b815160208301515161183e90612016565b60608401515161184d90612016565b846080015185610100015160405160200180866001600160a01b0316815260200185815260200184815260200183815260200180602001828103825283818151815260200191508051906020019080838360005b838110156118b95781810151838201526020016118a1565b50505050905090810190601f1680156118e65780820380516001836020036101000a031916815260200191505b5096505050505050506040516020818303038152906040528051906020012090505b919050565b3b151590565b600054610100900460ff168061192c575061192c611008565b8061193a575060005460ff16155b6119755760405162461bcd60e51b815260040180806020018281038252602e8152602001806156d1602e913960400191505060405180910390fd5b600054610100900460ff161580156119a0576000805460ff1961ff0019909116610100171660011790555b825160208085019190912083519184019190912060c99190915560ca5580156119cf576000805461ff00191690555b505050565b6119dd82612080565b6119e7828261214a565b5050565b6119f36143d2565b6119fb6143d2565b602084015151606084015151611a11919061241f565b80519092506001600160e01b031916611a3c5760405162461bcd60e51b8152600401610dd0906153f3565b606084015151602084015151611a52919061241f565b80519091506001600160e01b031916611a7d5760405162461bcd60e51b8152600401610dd0906153f3565b9250929050565b611a8c6143ea565b60e08201516001600160e01b031916632611a13360e11b1415611acd576000611ab983610100015161245f565b805183526020908101519083015250611c54565b60e08201516001600160e01b0319166323d235ef60e01b1415611b1a576000611afa83610100015161247b565b805183526020808201519084015260409081015115159083015250611c54565b60e08201516001600160e01b031916632fa3cfd360e01b1415611b87576000611b47836101000151612497565b9050611b5681600001516124b3565b825260208101516040820151611b6c9190612515565b60208301526001604083015260609081015190820152611c54565b60e08201516001600160e01b031916630d8c66fb60e11b1415611beb576000611bb4836101000151612678565b9050611bc381600001516124b3565b825260208101516040820151611bd99190612515565b60208301525060006040820152611c54565b60e08201516001600160e01b03199081161415611c0757611c54565b6040805162461bcd60e51b815260206004820152601760248201527f556e6b6e6f776e204f7264657220646174612074797065000000000000000000604482015290519081900360640190fd5b805151611908578151611c6690612694565b8152919050565b611c75614414565b6000611c8086611784565b90506000611c8d86611784565b90506000611c9f88608001518461272f565b90506000611cb188608001518461272f565b90506000611cc38a8a85858c8c612754565b905060008160200151118015611cd95750805115155b611cf55760405162461bcd60e51b8152600401610dd090615393565b60808a015115611d48578715611d27578051611d129084906127dc565b600086815261012f6020526040902055611d48565b6020810151611d379084906127dc565b600086815261012f60205260409020555b608089015115611d9b578615611d7d576020810151611d689083906127dc565b600085815261012f6020526040902055611d9b565b8051611d8a9083906127dc565b600085815261012f60205260409020555b9450505050505b949350505050565b611db261442e565b611dbb85612836565b8152611dc78787612883565b81604001906002811115611dd757fe5b90816002811115611de457fe5b81525050611dfe8585858585604001518660000151612954565b60208201529695505050505050565b8251602090810151835190910151600183604001516002811115611e2d57fe5b1415611e7757611e47858585600001518660200151612b0a565b9150611e72846000015160000151856000015160200151866080015188602001518860600151612d86565b611f14565b600283604001516002811115611e8957fe5b1415611ece57611ea3848685600001518660200151612b0a565b9050611e72856000015160000151866000015160200151876080015187602001518960600151612d86565b845180516020918201516080880151928701516060890151611ef1949190612d86565b835180516020918201516080870151928801516060880151611f14949190612d86565b935093915050565b600082821115611f73576040805162461bcd60e51b815260206004820152601e60248201527f536166654d6174683a207375627472616374696f6e206f766572666c6f770000604482015290519081900360640190fd5b508082035b92915050565b6040516000906001600160a01b0384169083908381818185875af1925050503d8060008114611fc9576040519150601f19603f3d011682016040523d82523d6000602084013e611fce565b606091505b50509050806119cf576040805162461bcd60e51b815260206004820152600f60248201526e1d1c985b9cd9995c8819985a5b1959608a1b604482015290519081900360640190fd5b8051602091820151805190830120604080517f452a0dc408cb0d27ffc3b3caff933a5208040a53a9dbecd8d89cad2c0d40e00c818601526001600160e01b031990931683820152606080840192909252805180840390920182526080909201909152805191012090565b60a081015115806120945750428160a00151105b6120e5576040805162461bcd60e51b815260206004820152601d60248201527f4f726465722073746172742076616c69646174696f6e206661696c6564000000604482015290519081900360640190fd5b60c081015115806120f95750428160c00151115b6110b8576040805162461bcd60e51b815260206004820152601b60248201527f4f7264657220656e642076616c69646174696f6e206661696c65640000000000604482015290519081900360640190fd5b60808201516121e85781516001600160a01b0316156121cf5781516001600160a01b031661217661140a565b6001600160a01b0316146121ca576040805162461bcd60e51b815260206004820152601660248201527536b0b5b2b91034b9903737ba103a3c1039b2b73232b960511b604482015290519081900360640190fd5b6121e3565b6121d761140a565b6001600160a01b031682525b6119e7565b81516001600160a01b03166121fb61140a565b6001600160a01b0316146119e757600061221483612f0a565b90506000825160411415612238576122358361222f84612ffa565b90613046565b90505b83516001600160a01b038281169116146123d8578351612260906001600160a01b031661190d565b1561239c578351630b135d3f60e11b906001600160a01b0316631626ba7e61228785612ffa565b866040518363ffffffff1660e01b81526004018083815260200180602001828103825283818151815260200191508051906020019080838360005b838110156122da5781810151838201526020016122c2565b50505050905090810190601f1680156123075780820380516001836020036101000a031916815260200191505b50935050505060206040518083038186803b15801561232557600080fd5b505afa158015612339573d6000803e3d6000fd5b505050506040513d602081101561234f57600080fd5b50516001600160e01b031916146123975760405162461bcd60e51b815260040180806020018281038252602b8152602001806156a6602b913960400191505060405180910390fd5b6123d3565b60405162461bcd60e51b81526004018080602001828103825260228152602001806156846022913960400191505060405180910390fd5b610eff565b83516001600160a01b0316610eff576040805162461bcd60e51b815260206004820152600860248201526737379036b0b5b2b960c11b604482015290519081900360640190fd5b6124276143d2565b600061243384846130bc565b80519091506001600160e01b0319166124585761245083856130bc565b915050611f78565b9050611f78565b612467614459565b81806020019051810190611f789190614d5a565b612483614473565b81806020019051810190611f789190614de6565b61249f614496565b81806020019051810190611f789190614ee6565b6060808215611f785760408051600180825281830190925290816020015b6124d96144be565b8152602001906001900390816124d15790505090506124f7836132d8565b8160008151811061250457fe5b602002602001018190525092915050565b6060806000841180156125285750600083115b156125a3576040805160028082526060820190925290816020015b61254b6144be565b815260200190600190039081612543579050509050612569846132d8565b8160008151811061257657fe5b602002602001018190525061258a836132d8565b8160018151811061259757fe5b60200260200101819052505b6000841180156125b1575082155b1561260a5760408051600180825281830190925290816020015b6125d36144be565b8152602001906001900390816125cb5790505090506125f1846132d8565b816000815181106125fe57fe5b60200260200101819052505b831580156126185750600083115b156126715760408051600180825281830190925290816020015b61263a6144be565b815260200190600190039081612632579050509050612658836132d8565b8160008151811061266557fe5b60200260200101819052505b9392505050565b6126806144d5565b81806020019051810190611f789190614e92565b60408051600180825281830190925260609160009190816020015b6126b76144be565b8152602001906001900390816126af57905050905082816000815181106126da57fe5b6020026020010151600001906001600160a01b031690816001600160a01b0316815250506127108160008151811061270e57fe5b6020908102919091018101516001600160601b039092169101529050919050565b60008261273e57506000611f78565b50600090815261012f6020526040902054919050565b61275c614414565b60008061276a898887613300565b9150915060008061277c8a8988613300565b91509150838111156127af576127a484848c60200151602001518d6060015160200151613379565b9450505050506127d2565b6127cb8b60200151602001518c606001516020015184846133fe565b9450505050505b9695505050505050565b600082820183811015612671576040805162461bcd60e51b815260206004820152601b60248201527f536166654d6174683a206164646974696f6e206f766572666c6f770000000000604482015290519081900360640190fd5b60006001600160e01b03198216632fa3cfd360e01b148061286757506001600160e01b03198216630d8c66fb60e11b145b1561287b57612874613484565b9050611908565b506000919050565b60006001600160e01b031983166355575f5d60e11b14156128a657506001611f78565b6001600160e01b031982166355575f5d60e11b14156128c757506002611f78565b6001600160e01b031983166322ba176160e21b14156128e857506001611f78565b6001600160e01b031982166322ba176160e21b141561290957506002611f78565b6001600160e01b0319831663025ceed960e61b141561292a57506001611f78565b6001600160e01b0319821663025ceed960e61b141561294b57506002611f78565b50600092915050565b60006001600160e01b03198716632fa3cfd360e01b1480159061298857506001600160e01b03198616632fa3cfd360e01b14155b80156129a557506001600160e01b03198716630d8c66fb60e11b14155b80156129c257506001600160e01b03198616630d8c66fb60e11b14155b156129cf575060006127d2565b60006129e4838760200151876020015161348b565b9050600060018560028111156129f657fe5b1415612a53575060608501516001600160e01b03198916630d8c66fb60e11b148015612a3257506001600160e01b03198816632fa3cfd360e01b145b612a4e5760405162461bcd60e51b8152600401610dd090615269565b612ac4565b6002856002811115612a6157fe5b1415612ab9575060608601516001600160e01b03198816630d8c66fb60e11b148015612a9d57506001600160e01b03198916632fa3cfd360e01b145b612a4e5760405162461bcd60e51b8152600401610dd0906152fb565b6000925050506127d2565b600081118015612ad45750818110155b8015612ae257506103e88111155b612afe5760405162461bcd60e51b8152600401610dd0906152d5565b98975050505050505050565b6000612b248560000151602001518487604001518561350a565b90506000612b4e828760000151602001518860800151878a60000151600001518b6060015161356a565b865180518751516020808a015193015160808b015160608c0151959650612b7c959394929387929190613630565b90508560400151516001148015612b9857508460400151516001145b8015612bed57508560400151600081518110612bb057fe5b6020026020010151600001516001600160a01b03168560400151600081518110612bd657fe5b6020026020010151600001516001600160a01b0316145b15612d0357604080516001808252818301909252600091816020015b612c116144be565b815260200190600190039081612c095790505090508560400151600081518110612c3757fe5b60200260200101516000015181600081518110612c5057fe5b60209081029190910101516001600160a01b03909116905260408701518051600090612c7857fe5b6020026020010151602001518660400151600081518110612c9557fe5b6020026020010151602001510181600081518110612caf57fe5b6020026020010151602001906001600160601b031690816001600160601b031681525050612cf987600001516000015183896000015160200151848b608001518c60600151613735565b509150612d5c9050565b612d2d8660000151600001518288600001516020015189604001518a608001518b60600151613735565b5086518051602090910151604088015160808a015160608b0151949550612d58948693929190613735565b5090505b612d7d86600001516000015182886080015188602001518a60600151612d86565b50949350505050565b6000825111612da75760405162461bcd60e51b8152600401610dd090615291565b600084815b6001855103811015612e76576000612ded868381518110612dc957fe5b6020026020010151602001516001600160601b03168961380190919063ffffffff16565b9050612e22868381518110612dfe57fe5b6020026020010151602001516001600160601b0316856127dc90919063ffffffff16565b93508015612e6d57612e348382611f1c565b9250612e6d60405180604001604052808b81526020018381525088888581518110612e5b57fe5b60200260200101516000015188613819565b50600101612dac565b50600084600186510381518110612e8957fe5b60200260200101519050612eb381602001516001600160601b0316846127dc90919063ffffffff16565b92508261271014612ed65760405162461bcd60e51b8152600401610dd0906153bc565b8115612f0057612f0060405180604001604052808a81526020018481525087836000015187613819565b5050505050505050565b60007f477ed43b8020849b755512278536c3766a3b4ab547519949a75f483372493f8d8260000151612f3f8460200151613c01565b8460400151612f518660600151613c01565b86608001518760a001518860c001518960e001518a610100015180519060200120604051602001808b81526020018a6001600160a01b03168152602001898152602001886001600160a01b03168152602001878152602001868152602001858152602001848152602001836001600160e01b03191681526020018281526020019a5050505050505050505050604051602081830303815290604052805190602001209050919050565b6000613004613c71565b82604051602001808061190160f01b81525060020183815260200182815260200192505050604051602081830303815290604052805190602001209050919050565b6000815160411461309e576040805162461bcd60e51b815260206004820152601f60248201527f45434453413a20696e76616c6964207369676e6174757265206c656e67746800604482015290519081900360640190fd5b60208201516040830151606084015160001a6127d286828585613cb1565b6130c46143d2565b825182516001600160e01b031982166355575f5d60e11b141561312f576001600160e01b031981166355575f5d60e11b1415613104578492505050611f78565b5050604080518082018252600080825282516020818101909452908152918101919091529050611f78565b6001600160e01b031982166322ba176160e21b1415613174576001600160e01b031981166322ba176160e21b14156131045761316b8585613f07565b92505050611f78565b6001600160e01b031982166339d690a360e11b14156131b0576001600160e01b031981166339d690a360e11b14156131045761316b8585613f07565b6001600160e01b0319821663025ceed960e61b14156131ec576001600160e01b0319811663025ceed960e61b14156131045761316b8585613f07565b6001600160e01b031982166000908152606560205260409020546001600160a01b031680156132a1576040516306d3f7cb60e41b81526001600160a01b03821690636d3f7cb09061324390899089906004016154af565b60006040518083038186803b15801561325b57600080fd5b505afa15801561326f573d6000803e3d6000fd5b505050506040513d6000823e601f3d908101601f191682016040526132979190810190614ccf565b9350505050611f78565b6001600160e01b031983811690831614156132c0576132978686613f07565b60405162461bcd60e51b8152600401610dd0906151cd565b6132e06144be565b8115611908576001600160a01b038216815260a09190911c602082015290565b600080821561333f57602080860151015161331b9085611f1c565b915061333885606001516020015186602001516020015184613f64565b9050611f14565b6060850151602001516133529085611f1c565b905061336f85602001516020015186606001516020015183613f64565b9150935093915050565b613381614414565b600061338e858585613f64565b9050858111156133e5576040805162461bcd60e51b815260206004820152601860248201527f66696c6c4c6566743a20756e61626c6520746f2066696c6c0000000000000000604482015290519081900360640190fd5b5050604080518082019091529384525050602082015290565b613406614414565b6000613413838787613f64565b90508381111561346a576040805162461bcd60e51b815260206004820152601960248201527f66696c6c52696768743a20756e61626c6520746f2066696c6c00000000000000604482015290519081900360640190fd5b604080518082019091529283526020830152509392505050565b61015f5490565b600083815b84518110156134cb578481815181106134a557fe5b6020026020010151602001516001600160601b0316820191508080600101915050613490565b5060005b8351811015612d7d578381815181106134e457fe5b6020026020010151602001516001600160601b03168201915080806001019150506134cf565b60008115613519575083611da2565b600061352f6135288787613801565b87906127dc565b905060005b84518110156135605761355661354f868381518110612dc957fe5b83906127dc565b9150600101613534565b5095945050505050565b600080600061357a898988613fc2565b909250905080156136245784516000906001600160e01b0319166322ba176160e21b14156135c15785602001518060200190518101906135ba91906148c2565b90506135fa565b85516001600160e01b03191663025ceed960e61b14156135fa57600086602001518060200190518101906135f59190614ace565b509150505b6136226040518060400160405280888152602001848152508961361c84613fe4565b88613819565b505b50979650505050505050565b60008061363c88614023565b905080516001148015613650575086516001145b801561369d57508660008151811061366457fe5b6020026020010151600001516001600160a01b03168160008151811061368657fe5b6020026020010151600001516001600160a01b0316145b156136ee57611388816000815181106136b257fe5b6020026020010151602001516001600160601b031611156136e55760405162461bcd60e51b8152600401610dd090615204565b8591505061372a565b6000806136ff8b8989868a8a613735565b915091506113888111156137255760405162461bcd60e51b8152600401610dd090615204565b509150505b979650505050505050565b846000805b85518110156137f55761377686828151811061375257fe5b6020026020010151602001516001600160601b0316836127dc90919063ffffffff16565b91506000806137a6858a8a868151811061378c57fe5b6020026020010151602001516001600160601b0316613fc2565b909550859250905080156137eb576137eb60405180604001604052808d815260200183815250888a86815181106137d957fe5b60200260200101516000015189613819565b505060010161373a565b50965096945050505050565b60006126716127106138138585614198565b906141f1565b8351516001600160e01b0319166339d690a360e11b141561395f576000808560000151602001518060200190518101906138539190614ace565b91509150856020015160011461387b5760405162461bcd60e51b8152600401610dd090615367565b6001600160a01b0385163014156138f357604051632142170760e11b81526001600160a01b038316906342842e0e906138bc903090889086906004016150e2565b600060405180830381600087803b1580156138d657600080fd5b505af11580156138ea573d6000803e3d6000fd5b50505050613958565b604051637b84dc8360e11b81526001600160a01b0384169063f709b906906139259085908990899087906004016151a3565b600060405180830381600087803b15801561393f57600080fd5b505af1158015613953573d6000803e3d6000fd5b505050505b5050610eff565b8351516001600160e01b0319166322ba176160e21b1415613aa257600084600001516020015180602001905181019061399891906148c2565b90506001600160a01b038416301415613a3457602085015160405163a9059cbb60e01b81526001600160a01b0383169163a9059cbb916139dc91879160040161513e565b602060405180830381600087803b1580156139f657600080fd5b505af1158015613a0a573d6000803e3d6000fd5b505050506040513d601f19601f82011682018060405250810190613a2e9190614bcc565b50613a9c565b602085015160405163776062c360e01b81526001600160a01b0384169163776062c391613a69918591899189916004016151a3565b600060405180830381600087803b158015613a8357600080fd5b505af1158015613a97573d6000803e3d6000fd5b505050505b50610eff565b8351516001600160e01b03191663025ceed960e61b1415613b5f57600080856000015160200151806020019051810190613adc9190614ace565b90925090506001600160a01b038516301415613b27576020860151604051637921219560e11b81526001600160a01b0384169163f242432a916138bc91309189918791600401615106565b6020860151604051639c1c2ee960e01b81526001600160a01b03851691639c1c2ee9916139259186918a918a91889190600401615160565b8351516001600160e01b0319166355575f5d60e11b1415613ba3576001600160a01b03821630146123d35760208401516123d3906001600160a01b03841690611f7e565b6040516354bc0cf160e01b81526001600160a01b038216906354bc0cf190613bd3908790879087906004016154d4565b600060405180830381600087803b158015613bed57600080fd5b505af1158015612f00573d6000803e3d6000fd5b60007fdb6f72e915676cfc289da13bc4ece054fd17b1df6d77ffc4a60510718c236b08613c318360000151612016565b8360200151604051602001808481526020018381526020018281526020019350505050604051602081830303815290604052805190602001209050919050565b6000613cac7f8b73c3c69bb8fe3d512ecc4cf759cc79239f7b179b0ffacaa9a75d522b39400f613c9f614258565b613ca761425e565b614264565b905090565b60007f7fffffffffffffffffffffffffffffff5d576e7357a4501ddfe92f46681b20a0821115613d125760405162461bcd60e51b81526004018080602001828103825260228152602001806156626022913960400191505060405180910390fd5b6000601e8560ff161115613dec576004850360ff16601b1480613d3b57506004850360ff16601c145b613d765760405162461bcd60e51b81526004018080602001828103825260228152602001806156ff6022913960400191505060405180910390fd5b6001613d81876142c6565b60048703868660405160008152602001604052604051808581526020018460ff1681526020018381526020018281526020019450505050506020604051602081039080840390855afa158015613ddb573d6000803e3d6000fd5b505050602060405103519050613ea3565b8460ff16601b1480613e0157508460ff16601c145b613e3c5760405162461bcd60e51b81526004018080602001828103825260228152602001806156ff6022913960400191505060405180910390fd5b60018686868660405160008152602001604052604051808581526020018460ff1681526020018381526020018281526020019450505050506020604051602081039080840390855afa158015613e96573d6000803e3d6000fd5b5050506020604051035190505b6001600160a01b038116613efe576040805162461bcd60e51b815260206004820152601860248201527f45434453413a20696e76616c6964207369676e61747572650000000000000000604482015290519081900360640190fd5b95945050505050565b613f0f6143d2565b60208084015180519082012083820151805192019190912080821415613f39578492505050611f78565b5050604080518082018252600080825282516020808201909452908152918101919091529392505050565b6000613f71848484614317565b15613fb4576040805162461bcd60e51b815260206004820152600e60248201526d3937bab73234b7339032b93937b960911b604482015290519081900360640190fd5b611da2836138138685614198565b600080613fd885613fd38686613801565b6143a6565b91509150935093915050565b6001600160a01b0380821660009081526101626020526040812054909116801561400f579050611908565b5050610161546001600160a01b0316919050565b80516060906001600160e01b03191663025ceed960e61b1480614057575081516001600160e01b0319166339d690a360e11b145b1561410d5760008083602001518060200190518101906140779190614ace565b61016054604051634e53ee3d60e11b81529294509092506001600160a01b031690639ca7dc7a906140ae908590859060040161513e565b600060405180830381600087803b1580156140c857600080fd5b505af11580156140dc573d6000803e3d6000fd5b505050506040513d6000823e601f3d908101601f191682016040526141049190810190614b9a565b92505050611908565b81516001600160e01b03191662737ea960e61b141561414e576000826020015180602001905181019061414091906148de565b608001519250611908915050565b81516001600160e01b03191663d8f960c160e01b1415614190576000826020015180602001905181019061418291906149db565b606001519250611908915050565b506060919050565b6000826141a757506000611f78565b828202828482816141b457fe5b04146126715760405162461bcd60e51b81526004018080602001828103825260218152602001806157216021913960400191505060405180910390fd5b6000808211614247576040805162461bcd60e51b815260206004820152601a60248201527f536166654d6174683a206469766973696f6e206279207a65726f000000000000604482015290519081900360640190fd5b81838161425057fe5b049392505050565b60c95490565b60ca5490565b60008383836142716143ce565b3060405160200180868152602001858152602001848152602001838152602001826001600160a01b03168152602001955050505050506040516020818303038152906040528051906020012090509392505050565b604080517f19457468657265756d205369676e6564204d6573736167653a0a333200000000602080830191909152603c8083019490945282518083039094018452605c909101909152815191012090565b60008261435e576040805162461bcd60e51b815260206004820152601060248201526f6469766973696f6e206279207a65726f60801b604482015290519081900360640190fd5b811580614369575083155b1561437657506000612671565b6000838061438057fe5b858409905061438f8584614198565b61439b826103e8614198565b101595945050505050565b600080828411156143c5576143bb8484611f1c565b9150829050611a7d565b50600093915050565b4690565b60408051808201909152600081526060602082015290565b60405180608001604052806060815260200160608152602001600015158152602001600081525090565b604051806040016040528060008152602001600081525090565b604051806060016040528060008152602001600081526020016000600281111561445457fe5b905290565b604051806040016040528060608152602001606081525090565b604051806060016040528060608152602001606081526020016000151581525090565b6040518060800160405280600081526020016000815260200160008152602001600081525090565b604080518082019091526000808252602082015290565b60405180606001604052806000815260200160008152602001600081525090565b803561190881615610565b600082601f830112614511578081fd5b81516020614526614521836155a6565b615583565b82815281810190858301855b8581101561455b57614549898684518b01016146c9565b84529284019290840190600101614532565b5090979650505050505050565b600082601f830112614578578081fd5b81516020614588614521836155a6565b828152818101908583016040808602880185018910156145a6578687fd5b865b868110156146155781838b0312156145be578788fd5b81518281018181106001600160401b03821117156145d857fe5b835283516145e581615610565b8152838701516001600160601b03811681146145ff57898afd5b81880152855293850193918101916001016145a8565b509198975050505050505050565b8051801515811461190857600080fd5b803561190881615625565b60008083601f84011261464f578182fd5b5081356001600160401b03811115614665578182fd5b602083019150836020828501011115611a7d57600080fd5b600082601f83011261468d578081fd5b813561469b614521826155c3565b8181528460208386010111156146af578283fd5b816020850160208301379081016020019190915292915050565b600082601f8301126146d9578081fd5b81516146e7614521826155c3565b8181528460208386010111156146fb578283fd5b611da28260208301602087016155e4565b6000604080838503121561471e578182fd5b80518181016001600160401b03828210818311171561473957fe5b81845282945085358181111561474e57600080fd5b860180880385131561475f57600080fd5b60808401838110838211171561477157fe5b90945283359361478085615625565b9382526020840135938185111561479657600080fd5b6147a28886830161467d565b60608501525050815260209384013593019290925292915050565b60006101208083850312156147d0578182fd5b6147d981615583565b9150506147e5826144f6565b815260208201356001600160401b038082111561480157600080fd5b61480d8583860161470c565b602084015261481e604085016144f6565b6040840152606084013591508082111561483757600080fd5b6148438583860161470c565b60608401526080840135608084015260a084013560a084015260c084013560c084015261487260e08501614633565b60e08401526101009150818401358181111561488d57600080fd5b6148998682870161467d565b8385015250505092915050565b6000602082840312156148b7578081fd5b813561267181615610565b6000602082840312156148d3578081fd5b815161267181615610565b600080604083850312156148f0578081fd5b82516148fb81615610565b60208401519092506001600160401b0380821115614917578283fd5b9084019060c0828703121561492a578283fd5b61493460c0615583565b82518152602083015182811115614949578485fd5b614955888286016146c9565b60208301525060408301516040820152606083015182811115614976578485fd5b61498288828601614568565b606083015250608083015182811115614999578485fd5b6149a588828601614568565b60808301525060a0830151828111156149bc578485fd5b6149c888828601614501565b60a0830152508093505050509250929050565b600080604083850312156149ed578182fd5b82516149f881615610565b60208401519092506001600160401b0380821115614a14578283fd5b9084019060a08287031215614a27578283fd5b614a3160a0615583565b82518152602083015182811115614a46578485fd5b614a52888286016146c9565b602083015250604083015182811115614a69578485fd5b614a7588828601614568565b604083015250606083015182811115614a8c578485fd5b614a9888828601614568565b606083015250608083015182811115614aaf578485fd5b614abb88828601614501565b6080830152508093505050509250929050565b60008060408385031215614ae0578182fd5b8251614aeb81615610565b6020939093015192949293505050565b60008060408385031215614b0d578182fd5b8235614b1881615610565b91506020830135614b2881615610565b809150509250929050565b600080600080600060a08688031215614b4a578081fd5b8535614b5581615610565b94506020860135614b6581615610565b9350604086013592506060860135614b7c81615610565b91506080860135614b8c81615610565b809150509295509295909350565b600060208284031215614bab578081fd5b81516001600160401b03811115614bc0578182fd5b611da284828501614568565b600060208284031215614bdd578081fd5b61267182614623565b600060208284031215614bf7578081fd5b5035919050565b600060208284031215614c0f578081fd5b813561267181615625565b60008060408385031215614c2c578182fd5b8235614b1881615625565b600080600080600060608688031215614c4e578283fd5b85356001600160401b0380821115614c64578485fd5b90870190610120828a031215614c78578485fd5b90955060208701359080821115614c8d578485fd5b614c9989838a0161463e565b90965094506040880135915080821115614cb1578283fd5b50614cbe8882890161463e565b969995985093965092949392505050565b600060208284031215614ce0578081fd5b81516001600160401b0380821115614cf6578283fd5b9083019060408286031215614d09578283fd5b604051604081018181108382111715614d1e57fe5b6040528251614d2c81615625565b8152602083015182811115614d3f578485fd5b614d4b878286016146c9565b60208301525095945050505050565b600060208284031215614d6b578081fd5b81516001600160401b0380821115614d81578283fd5b9083019060408286031215614d94578283fd5b604051604081018181108382111715614da957fe5b604052825182811115614dba578485fd5b614dc687828601614568565b825250602083015182811115614dda578485fd5b614d4b87828601614568565b600060208284031215614df7578081fd5b81516001600160401b0380821115614e0d578283fd5b9083019060608286031215614e20578283fd5b604051606081018181108382111715614e3557fe5b604052825182811115614e46578485fd5b614e5287828601614568565b825250602083015182811115614e66578485fd5b614e7287828601614568565b602083015250614e8460408401614623565b604082015295945050505050565b600060608284031215614ea3578081fd5b604051606081018181106001600160401b0382111715614ebf57fe5b80604052508251815260208301516020820152604083015160408201528091505092915050565b600060808284031215614ef7578081fd5b604051608081018181106001600160401b0382111715614f1357fe5b8060405250825181526020830151602082015260408301516040820152606083015160608201528091505092915050565b600060208284031215614f55578081fd5b81356001600160401b03811115614f6a578182fd5b611da2848285016147bd565b60008060008060808587031215614f8b578182fd5b84356001600160401b0380821115614fa1578384fd5b614fad888389016147bd565b95506020870135915080821115614fc2578384fd5b614fce8883890161467d565b94506040870135915080821115614fe3578384fd5b614fef888389016147bd565b93506060870135915080821115615004578283fd5b506150118782880161467d565b91505092959194509250565b600080600080600060608688031215615034578283fd5b85356001600160401b038082111561504a578485fd5b90870190610100828a031215614c78578485fd5b60006020828403121561506f578081fd5b81356001600160401b0381168114612671578182fd5b600063ffffffff60e01b825116835260208201516040602085015280518060408601526150b98160608701602085016155e4565b601f01601f1916939093016060019392505050565b6001600160a01b0391909116815260200190565b6001600160a01b039384168152919092166020820152604081019190915260600190565b6001600160a01b0394851681529290931660208301526040820152606081019190915260a06080820181905260009082015260c00190565b6001600160a01b03929092168252602082015260400190565b90815260200190565b6001600160a01b03958616815293851660208501529190931660408301526060820192909252608081019190915260c060a0820181905260009082015260e00190565b6001600160a01b039485168152928416602084015292166040820152606081019190915260800190565b60208082526017908201527f6e6f7420666f756e64204941737365744d617463686572000000000000000000604082015260600190565b6020808252601d908201527f526f79616c746965732061726520746f6f206869676820283e35302529000000604082015260600190565b6020808252601490820152730c081cd85b1d0818d85b89dd081899481d5cd95960621b604082015260600190565b6020808252600e908201526d77726f6e6720563320747970653160901b604082015260600190565b60208082526024908201527f7472616e736665725061796f7574733a206e6f7468696e6720746f207472616e60408201526339b332b960e11b606082015260800190565b6020808252600c908201526b77726f6e67206d617846656560a01b604082015260600190565b6020808252600e908201526d3bb937b733902b19903a3cb8329960911b604082015260600190565b60208082526024908201527f72696768744f726465722e74616b657220766572696669636174696f6e2066616040820152631a5b195960e21b606082015260800190565b60208082526012908201527132b9319b9918903b30b63ab29032b93937b960711b604082015260600190565b6020808252600f908201526e1b9bdd1a1a5b99c81d1bc8199a5b1b608a1b604082015260600190565b6020808252601e908201527f53756d207061796f75747320427073206e6f7420657175616c20313030250000604082015260600190565b6020808252601290820152710c2e6e6cae8e640c8dedc4ee840dac2e8c6d60731b604082015260600190565b60208082526023908201527f6c6566744f726465722e74616b657220766572696669636174696f6e206661696040820152621b195960ea1b606082015260800190565b6020808252600e908201526d0dcdee840cadcdeeaced040cae8d60931b604082015260600190565b6020808252600b908201526a3737ba10309036b0b5b2b960a91b604082015260600190565b6000604082526154c26040830185615085565b8281036020840152613efe8185615085565b6000606082528451604060608401526154f060a0840182615085565b60209687015160808501526001600160a01b03958616968401969096525050911660409091015290565b918252602082015260400190565b9182526001600160401b0316602082015260400190565b6000808335601e19843603018112615555578283fd5b8301803591506001600160401b0382111561556e578283fd5b602001915036819003821315611a7d57600080fd5b6040518181016001600160401b038111828210171561559e57fe5b604052919050565b60006001600160401b038211156155b957fe5b5060209081020190565b60006001600160401b038211156155d657fe5b50601f01601f191660200190565b60005b838110156155ff5781810151838201526020016155e7565b83811115610eff5750506000910152565b6001600160a01b03811681146110b857600080fd5b6001600160e01b0319811681146110b857600080fdfe4f776e61626c653a206e6577206f776e657220697320746865207a65726f206164647265737345434453413a20696e76616c6964207369676e6174757265202773272076616c75656f72646572207369676e617475726520766572696669636174696f6e206572726f72636f6e7472616374206f72646572207369676e617475726520766572696669636174696f6e206572726f72496e697469616c697a61626c653a20636f6e747261637420697320616c726561647920696e697469616c697a656445434453413a20696e76616c6964207369676e6174757265202776272076616c7565536166654d6174683a206d756c7469706c69636174696f6e206f766572666c6f774f776e61626c653a2063616c6c6572206973206e6f7420746865206f776e6572a26469706673582212202d12e8d9151a8c08f2bd6a713d915b3502e7053170ad40eed87a93be9db4359a64736f6c63430007060033",
  "immutableReferences": {},
  "source": "// SPDX-License-Identifier: MIT\n\npragma solidity 0.7.6;\npragma abicoder v2;\n\nimport \"./ExchangeV2Core.sol\";\nimport \"@rarible/transfer-manager/contracts/RaribleTransferManager.sol\";\n\ncontract ExchangeV2 is ExchangeV2Core, RaribleTransferManager {\n    function __ExchangeV2_init(\n        address _transferProxy,\n        address _erc20TransferProxy,\n        uint newProtocolFee,\n        address newDefaultFeeReceiver,\n        IRoyaltiesProvider newRoyaltiesProvider\n    ) external initializer {\n        __Context_init_unchained();\n        __Ownable_init_unchained();\n        __TransferExecutor_init_unchained(_transferProxy, _erc20TransferProxy);\n        __RaribleTransferManager_init_unchained(newProtocolFee, newDefaultFeeReceiver, newRoyaltiesProvider);\n        __OrderValidator_init_unchained();\n    }\n\n    function getProtocolFee() internal override view returns(uint) {\n        return protocolFee;\n    }\n}\n",
  "sourcePath": "@rarible/exchange-v2/contracts/ExchangeV2.sol",
  "compiler": {
    "name": "solc",
    "version": "0.7.6+commit.7338295f.Emscripten.clang"
  },
  "schemaVersion": "3.4.3",
  "updatedAt": "2022-06-23T13:26:49.048Z",
  "devdoc": {
    "kind": "dev",
    "methods": {
      "directAcceptBid((address,address,address,bytes4,uint256,uint256,uint256,uint256,bytes),bytes,bytes)": {
        "details": "function, generate sellOrder and buyOrder from parameters and call validateAndMatch() for accept bid transaction",
        "params": {
          "buyData": "data type V3_SELL for left order",
          "direct": "struct with parameters for accept bid operation",
          "sellData": "data type V3_BUY for left order"
        }
      },
      "directPurchase((address,address,bytes4,uint256,uint256,uint256,uint256,bytes),bytes,bytes)": {
        "details": "function, generate sellOrder and buyOrder from parameters and call validateAndMatch() for purchase transaction",
        "params": {
          "buyData": "data type 3_BUY for right order",
          "direct": "struct with parameters for buy operation",
          "sellData": "data type V3_SELLV for left order"
        }
      },
      "owner()": {
        "details": "Returns the address of the current owner."
      },
      "renounceOwnership()": {
        "details": "Leaves the contract without owner. It will not be possible to call `onlyOwner` functions anymore. Can only be called by the current owner. NOTE: Renouncing ownership will leave the contract without an owner, thereby removing any functionality that is only available to the owner."
      },
      "transferOwnership(address)": {
        "details": "Transfers ownership of the contract to a new account (`newOwner`). Can only be called by the current owner."
      }
    },
    "version": 1
  },
  "userdoc": {
    "kind": "user",
    "methods": {},
    "version": 1
  }
}