{
  "contractName": "ExchangeMetaV2",
  "abi": [
    {
      "anonymous": false,
      "inputs": [
        {
          "indexed": false,
          "internalType": "bytes32",
          "name": "hash",
          "type": "bytes32"
        },
        {
          "indexed": false,
          "internalType": "address",
          "name": "maker",
          "type": "address"
        },
        {
          "components": [
            {
              "internalType": "bytes4",
              "name": "assetClass",
              "type": "bytes4"
            },
            {
              "internalType": "bytes",
              "name": "data",
              "type": "bytes"
            }
          ],
          "indexed": false,
          "internalType": "struct LibAsset.AssetType",
          "name": "makeAssetType",
          "type": "tuple"
        },
        {
          "components": [
            {
              "internalType": "bytes4",
              "name": "assetClass",
              "type": "bytes4"
            },
            {
              "internalType": "bytes",
              "name": "data",
              "type": "bytes"
            }
          ],
          "indexed": false,
          "internalType": "struct LibAsset.AssetType",
          "name": "takeAssetType",
          "type": "tuple"
        }
      ],
      "name": "Cancel",
      "type": "event"
    },
    {
      "anonymous": false,
      "inputs": [
        {
          "indexed": false,
          "internalType": "bytes32",
          "name": "leftHash",
          "type": "bytes32"
        },
        {
          "indexed": false,
          "internalType": "bytes32",
          "name": "rightHash",
          "type": "bytes32"
        },
        {
          "indexed": false,
          "internalType": "address",
          "name": "leftMaker",
          "type": "address"
        },
        {
          "indexed": false,
          "internalType": "address",
          "name": "rightMaker",
          "type": "address"
        },
        {
          "indexed": false,
          "internalType": "uint256",
          "name": "newLeftFill",
          "type": "uint256"
        },
        {
          "indexed": false,
          "internalType": "uint256",
          "name": "newRightFill",
          "type": "uint256"
        },
        {
          "components": [
            {
              "internalType": "bytes4",
              "name": "assetClass",
              "type": "bytes4"
            },
            {
              "internalType": "bytes",
              "name": "data",
              "type": "bytes"
            }
          ],
          "indexed": false,
          "internalType": "struct LibAsset.AssetType",
          "name": "leftAsset",
          "type": "tuple"
        },
        {
          "components": [
            {
              "internalType": "bytes4",
              "name": "assetClass",
              "type": "bytes4"
            },
            {
              "internalType": "bytes",
              "name": "data",
              "type": "bytes"
            }
          ],
          "indexed": false,
          "internalType": "struct LibAsset.AssetType",
          "name": "rightAsset",
          "type": "tuple"
        }
      ],
      "name": "Match",
      "type": "event"
    },
    {
      "anonymous": false,
      "inputs": [
        {
          "indexed": true,
          "internalType": "bytes4",
          "name": "assetType",
          "type": "bytes4"
        },
        {
          "indexed": false,
          "internalType": "address",
          "name": "matcher",
          "type": "address"
        }
      ],
      "name": "MatcherChange",
      "type": "event"
    },
    {
      "anonymous": false,
      "inputs": [
        {
          "indexed": false,
          "internalType": "address",
          "name": "userAddress",
          "type": "address"
        },
        {
          "indexed": false,
          "internalType": "address payable",
          "name": "relayerAddress",
          "type": "address"
        },
        {
          "indexed": false,
          "internalType": "bytes",
          "name": "functionSignature",
          "type": "bytes"
        }
      ],
      "name": "MetaTransactionExecuted",
      "type": "event"
    },
    {
      "anonymous": false,
      "inputs": [
        {
          "indexed": true,
          "internalType": "address",
          "name": "previousOwner",
          "type": "address"
        },
        {
          "indexed": true,
          "internalType": "address",
          "name": "newOwner",
          "type": "address"
        }
      ],
      "name": "OwnershipTransferred",
      "type": "event"
    },
    {
      "anonymous": false,
      "inputs": [
        {
          "indexed": true,
          "internalType": "bytes4",
          "name": "assetType",
          "type": "bytes4"
        },
        {
          "indexed": false,
          "internalType": "address",
          "name": "proxy",
          "type": "address"
        }
      ],
      "name": "ProxyChange",
      "type": "event"
    },
    {
      "anonymous": false,
      "inputs": [
        {
          "components": [
            {
              "components": [
                {
                  "internalType": "bytes4",
                  "name": "assetClass",
                  "type": "bytes4"
                },
                {
                  "internalType": "bytes",
                  "name": "data",
                  "type": "bytes"
                }
              ],
              "internalType": "struct LibAsset.AssetType",
              "name": "assetType",
              "type": "tuple"
            },
            {
              "internalType": "uint256",
              "name": "value",
              "type": "uint256"
            }
          ],
          "indexed": false,
          "internalType": "struct LibAsset.Asset",
          "name": "asset",
          "type": "tuple"
        },
        {
          "indexed": false,
          "internalType": "address",
          "name": "from",
          "type": "address"
        },
        {
          "indexed": false,
          "internalType": "address",
          "name": "to",
          "type": "address"
        },
        {
          "indexed": false,
          "internalType": "bytes4",
          "name": "transferDirection",
          "type": "bytes4"
        },
        {
          "indexed": false,
          "internalType": "bytes4",
          "name": "transferType",
          "type": "bytes4"
        }
      ],
      "name": "Transfer",
      "type": "event"
    },
    {
      "inputs": [
        {
          "components": [
            {
              "internalType": "address",
              "name": "maker",
              "type": "address"
            },
            {
              "components": [
                {
                  "components": [
                    {
                      "internalType": "bytes4",
                      "name": "assetClass",
                      "type": "bytes4"
                    },
                    {
                      "internalType": "bytes",
                      "name": "data",
                      "type": "bytes"
                    }
                  ],
                  "internalType": "struct LibAsset.AssetType",
                  "name": "assetType",
                  "type": "tuple"
                },
                {
                  "internalType": "uint256",
                  "name": "value",
                  "type": "uint256"
                }
              ],
              "internalType": "struct LibAsset.Asset",
              "name": "makeAsset",
              "type": "tuple"
            },
            {
              "internalType": "address",
              "name": "taker",
              "type": "address"
            },
            {
              "components": [
                {
                  "components": [
                    {
                      "internalType": "bytes4",
                      "name": "assetClass",
                      "type": "bytes4"
                    },
                    {
                      "internalType": "bytes",
                      "name": "data",
                      "type": "bytes"
                    }
                  ],
                  "internalType": "struct LibAsset.AssetType",
                  "name": "assetType",
                  "type": "tuple"
                },
                {
                  "internalType": "uint256",
                  "name": "value",
                  "type": "uint256"
                }
              ],
              "internalType": "struct LibAsset.Asset",
              "name": "takeAsset",
              "type": "tuple"
            },
            {
              "internalType": "uint256",
              "name": "salt",
              "type": "uint256"
            },
            {
              "internalType": "uint256",
              "name": "start",
              "type": "uint256"
            },
            {
              "internalType": "uint256",
              "name": "end",
              "type": "uint256"
            },
            {
              "internalType": "bytes4",
              "name": "dataType",
              "type": "bytes4"
            },
            {
              "internalType": "bytes",
              "name": "data",
              "type": "bytes"
            }
          ],
          "internalType": "struct LibOrder.Order",
          "name": "order",
          "type": "tuple"
        }
      ],
      "name": "cancel",
      "outputs": [],
      "stateMutability": "nonpayable",
      "type": "function"
    },
    {
      "inputs": [],
      "name": "defaultFeeReceiver",
      "outputs": [
        {
          "internalType": "address",
          "name": "",
          "type": "address"
        }
      ],
      "stateMutability": "view",
      "type": "function",
      "constant": true
    },
    {
      "inputs": [
        {
          "internalType": "address",
          "name": "userAddress",
          "type": "address"
        },
        {
          "internalType": "bytes",
          "name": "functionSignature",
          "type": "bytes"
        },
        {
          "internalType": "bytes32",
          "name": "sigR",
          "type": "bytes32"
        },
        {
          "internalType": "bytes32",
          "name": "sigS",
          "type": "bytes32"
        },
        {
          "internalType": "uint8",
          "name": "sigV",
          "type": "uint8"
        }
      ],
      "name": "executeMetaTransaction",
      "outputs": [
        {
          "internalType": "bytes",
          "name": "",
          "type": "bytes"
        }
      ],
      "stateMutability": "payable",
      "type": "function",
      "payable": true
    },
    {
      "inputs": [
        {
          "internalType": "address",
          "name": "",
          "type": "address"
        }
      ],
      "name": "feeReceivers",
      "outputs": [
        {
          "internalType": "address",
          "name": "",
          "type": "address"
        }
      ],
      "stateMutability": "view",
      "type": "function",
      "constant": true
    },
    {
      "inputs": [
        {
          "internalType": "bytes32",
          "name": "",
          "type": "bytes32"
        }
      ],
      "name": "fills",
      "outputs": [
        {
          "internalType": "uint256",
          "name": "",
          "type": "uint256"
        }
      ],
      "stateMutability": "view",
      "type": "function",
      "constant": true
    },
    {
      "inputs": [
        {
          "internalType": "address",
          "name": "user",
          "type": "address"
        }
      ],
      "name": "getNonce",
      "outputs": [
        {
          "internalType": "uint256",
          "name": "nonce",
          "type": "uint256"
        }
      ],
      "stateMutability": "view",
      "type": "function",
      "constant": true
    },
    {
      "inputs": [
        {
          "components": [
            {
              "internalType": "address",
              "name": "maker",
              "type": "address"
            },
            {
              "components": [
                {
                  "components": [
                    {
                      "internalType": "bytes4",
                      "name": "assetClass",
                      "type": "bytes4"
                    },
                    {
                      "internalType": "bytes",
                      "name": "data",
                      "type": "bytes"
                    }
                  ],
                  "internalType": "struct LibAsset.AssetType",
                  "name": "assetType",
                  "type": "tuple"
                },
                {
                  "internalType": "uint256",
                  "name": "value",
                  "type": "uint256"
                }
              ],
              "internalType": "struct LibAsset.Asset",
              "name": "makeAsset",
              "type": "tuple"
            },
            {
              "internalType": "address",
              "name": "taker",
              "type": "address"
            },
            {
              "components": [
                {
                  "components": [
                    {
                      "internalType": "bytes4",
                      "name": "assetClass",
                      "type": "bytes4"
                    },
                    {
                      "internalType": "bytes",
                      "name": "data",
                      "type": "bytes"
                    }
                  ],
                  "internalType": "struct LibAsset.AssetType",
                  "name": "assetType",
                  "type": "tuple"
                },
                {
                  "internalType": "uint256",
                  "name": "value",
                  "type": "uint256"
                }
              ],
              "internalType": "struct LibAsset.Asset",
              "name": "takeAsset",
              "type": "tuple"
            },
            {
              "internalType": "uint256",
              "name": "salt",
              "type": "uint256"
            },
            {
              "internalType": "uint256",
              "name": "start",
              "type": "uint256"
            },
            {
              "internalType": "uint256",
              "name": "end",
              "type": "uint256"
            },
            {
              "internalType": "bytes4",
              "name": "dataType",
              "type": "bytes4"
            },
            {
              "internalType": "bytes",
              "name": "data",
              "type": "bytes"
            }
          ],
          "internalType": "struct LibOrder.Order",
          "name": "orderLeft",
          "type": "tuple"
        },
        {
          "internalType": "bytes",
          "name": "signatureLeft",
          "type": "bytes"
        },
        {
          "components": [
            {
              "internalType": "address",
              "name": "maker",
              "type": "address"
            },
            {
              "components": [
                {
                  "components": [
                    {
                      "internalType": "bytes4",
                      "name": "assetClass",
                      "type": "bytes4"
                    },
                    {
                      "internalType": "bytes",
                      "name": "data",
                      "type": "bytes"
                    }
                  ],
                  "internalType": "struct LibAsset.AssetType",
                  "name": "assetType",
                  "type": "tuple"
                },
                {
                  "internalType": "uint256",
                  "name": "value",
                  "type": "uint256"
                }
              ],
              "internalType": "struct LibAsset.Asset",
              "name": "makeAsset",
              "type": "tuple"
            },
            {
              "internalType": "address",
              "name": "taker",
              "type": "address"
            },
            {
              "components": [
                {
                  "components": [
                    {
                      "internalType": "bytes4",
                      "name": "assetClass",
                      "type": "bytes4"
                    },
                    {
                      "internalType": "bytes",
                      "name": "data",
                      "type": "bytes"
                    }
                  ],
                  "internalType": "struct LibAsset.AssetType",
                  "name": "assetType",
                  "type": "tuple"
                },
                {
                  "internalType": "uint256",
                  "name": "value",
                  "type": "uint256"
                }
              ],
              "internalType": "struct LibAsset.Asset",
              "name": "takeAsset",
              "type": "tuple"
            },
            {
              "internalType": "uint256",
              "name": "salt",
              "type": "uint256"
            },
            {
              "internalType": "uint256",
              "name": "start",
              "type": "uint256"
            },
            {
              "internalType": "uint256",
              "name": "end",
              "type": "uint256"
            },
            {
              "internalType": "bytes4",
              "name": "dataType",
              "type": "bytes4"
            },
            {
              "internalType": "bytes",
              "name": "data",
              "type": "bytes"
            }
          ],
          "internalType": "struct LibOrder.Order",
          "name": "orderRight",
          "type": "tuple"
        },
        {
          "internalType": "bytes",
          "name": "signatureRight",
          "type": "bytes"
        }
      ],
      "name": "matchOrders",
      "outputs": [],
      "stateMutability": "payable",
      "type": "function",
      "payable": true
    },
    {
      "inputs": [],
      "name": "owner",
      "outputs": [
        {
          "internalType": "address",
          "name": "",
          "type": "address"
        }
      ],
      "stateMutability": "view",
      "type": "function",
      "constant": true
    },
    {
      "inputs": [],
      "name": "protocolFee",
      "outputs": [
        {
          "internalType": "uint256",
          "name": "",
          "type": "uint256"
        }
      ],
      "stateMutability": "view",
      "type": "function",
      "constant": true
    },
    {
      "inputs": [],
      "name": "renounceOwnership",
      "outputs": [],
      "stateMutability": "nonpayable",
      "type": "function"
    },
    {
      "inputs": [],
      "name": "royaltiesRegistry",
      "outputs": [
        {
          "internalType": "contract IRoyaltiesProvider",
          "name": "",
          "type": "address"
        }
      ],
      "stateMutability": "view",
      "type": "function",
      "constant": true
    },
    {
      "inputs": [
        {
          "internalType": "bytes4",
          "name": "assetType",
          "type": "bytes4"
        },
        {
          "internalType": "address",
          "name": "matcher",
          "type": "address"
        }
      ],
      "name": "setAssetMatcher",
      "outputs": [],
      "stateMutability": "nonpayable",
      "type": "function"
    },
    {
      "inputs": [
        {
          "internalType": "address payable",
          "name": "newDefaultFeeReceiver",
          "type": "address"
        }
      ],
      "name": "setDefaultFeeReceiver",
      "outputs": [],
      "stateMutability": "nonpayable",
      "type": "function"
    },
    {
      "inputs": [
        {
          "internalType": "address",
          "name": "token",
          "type": "address"
        },
        {
          "internalType": "address",
          "name": "wallet",
          "type": "address"
        }
      ],
      "name": "setFeeReceiver",
      "outputs": [],
      "stateMutability": "nonpayable",
      "type": "function"
    },
    {
      "inputs": [
        {
          "internalType": "uint256",
          "name": "newProtocolFee",
          "type": "uint256"
        }
      ],
      "name": "setProtocolFee",
      "outputs": [],
      "stateMutability": "nonpayable",
      "type": "function"
    },
    {
      "inputs": [
        {
          "internalType": "contract IRoyaltiesProvider",
          "name": "newRoyaltiesRegistry",
          "type": "address"
        }
      ],
      "name": "setRoyaltiesRegistry",
      "outputs": [],
      "stateMutability": "nonpayable",
      "type": "function"
    },
    {
      "inputs": [
        {
          "internalType": "bytes4",
          "name": "assetType",
          "type": "bytes4"
        },
        {
          "internalType": "address",
          "name": "proxy",
          "type": "address"
        }
      ],
      "name": "setTransferProxy",
      "outputs": [],
      "stateMutability": "nonpayable",
      "type": "function"
    },
    {
      "inputs": [
        {
          "internalType": "address",
          "name": "newOwner",
          "type": "address"
        }
      ],
      "name": "transferOwnership",
      "outputs": [],
      "stateMutability": "nonpayable",
      "type": "function"
    },
    {
      "inputs": [
        {
          "internalType": "contract INftTransferProxy",
          "name": "_transferProxy",
          "type": "address"
        },
        {
          "internalType": "contract IERC20TransferProxy",
          "name": "_erc20TransferProxy",
          "type": "address"
        },
        {
          "internalType": "uint256",
          "name": "newProtocolFee",
          "type": "uint256"
        },
        {
          "internalType": "address",
          "name": "newDefaultFeeReceiver",
          "type": "address"
        },
        {
          "internalType": "contract IRoyaltiesProvider",
          "name": "newRoyaltiesProvider",
          "type": "address"
        }
      ],
      "name": "__ExchangeV2_init",
      "outputs": [],
      "stateMutability": "nonpayable",
      "type": "function"
    }
  ],
  "bytecode": "0x608060405234801561001057600080fd5b50614d2e806100206000396000f3fe6080604052600436106101145760003560e01c80636d8f0694116100a0578063b39deb4611610064578063b39deb46146102c7578063e2864fe3146102e7578063e66db25e14610307578063e99a3f8014610327578063f2fde38b1461033a57610114565b80636d8f069414610253578063715018a614610268578063787dce3d1461027d5780638da5cb5b1461029d578063b0e21e8a146102b257610114565b806320158c44116100e757806320158c44146101b15780632d0335ab146101de57806330c642f1146101fe5780633abf6fd41461021e5780633be899221461023357610114565b806302097ab1146101195780630c53c51c1461014f5780631372a6251461016f5780631cdfe3d814610191575b600080fd5b34801561012557600080fd5b50610139610134366004613fa8565b61035a565b6040516101469190614692565b60405180910390f35b61016261015d366004614235565b610376565b6040516101469190614762565b34801561017b57600080fd5b5061018f61018a366004614316565b6106ef565b005b34801561019d57600080fd5b5061018f6101ac366004613fa8565b610808565b3480156101bd57600080fd5b506101d16101cc3660046142e1565b61088d565b6040516101469190614aad565b3480156101ea57600080fd5b506101d16101f9366004613fa8565b6108a0565b34801561020a57600080fd5b5061018f6102193660046142f9565b6108bc565b34801561022a57600080fd5b5061013961098c565b34801561023f57600080fd5b5061018f61024e366004613fa8565b61099c565b34801561025f57600080fd5b50610139610a21565b34801561027457600080fd5b5061018f610a31565b34801561028957600080fd5b5061018f6102983660046142e1565b610add565b3480156102a957600080fd5b50610139610b45565b3480156102be57600080fd5b506101d1610b55565b3480156102d357600080fd5b5061018f6102e23660046142f9565b610b5c565b3480156102f357600080fd5b5061018f61030236600461453c565b610c20565b34801561031357600080fd5b5061018f6103223660046141fd565b610cf3565b61018f61033536600461456e565b610d84565b34801561034657600080fd5b5061018f610355366004613fa8565b610e40565b610164602052600090815260409020546001600160a01b031681565b6060600061038386610f43565b90506000356001600160e01b031990811690821614156103ea576040805162461bcd60e51b815260206004820152601760248201527f57726f6e672066756e6374696f6e5369676e6174757265000000000000000000604482015290519081900360640190fd5b604080516060810182526001600160a01b03891660008181526101936020908152908490205483528201529081018790526104288882888888610f63565b6104635760405162461bcd60e51b8152600401808060200182810382526021815260200180614cd86021913960400191505060405180910390fd5b6001600160a01b0388166000908152610193602052604090205461048890600161104d565b61019360008a6001600160a01b03166001600160a01b0316815260200190815260200160002081905550600080306001600160a01b0316898b6040516020018083805190602001908083835b602083106104f35780518252601f1990920191602091820191016104d4565b6001836020036101000a038019825116818451168082178552505050505050905001826001600160a01b031660601b8152601401925050506040516020818303038152906040526040518082805190602001908083835b602083106105695780518252601f19909201916020918201910161054a565b6001836020036101000a0380198251168184511680821785525050505050509050019150506000604051808303816000865af19150503d80600081146105cb576040519150601f19603f3d011682016040523d82523d6000602084013e6105d0565b606091505b509150915081610627576040805162461bcd60e51b815260206004820152601c60248201527f46756e6374696f6e2063616c6c206e6f74207375636365737366756c00000000604482015290519081900360640190fd5b7f5845892132946850460bff5a0083f71031bc5bf9aadcd40f1de79423eac9b10b8a338b60405180846001600160a01b03168152602001836001600160a01b0316815260200180602001828103825283818151815260200191508051906020019080838360005b838110156106a657818101518382015260200161068e565b50505050905090810190601f1680156106d35780820380516001836020036101000a031916815260200191505b5094505050505060405180910390a19998505050505050505050565b600054610100900460ff168061070857506107086110b0565b80610716575060005460ff16155b6107515760405162461bcd60e51b815260040180806020018281038252602e815260200180614c47602e913960400191505060405180910390fd5b600054610100900460ff1615801561077c576000805460ff1961ff0019909116610100171660011790555b6107846110c1565b61078c611163565b610796868661125c565b6107a1848484611306565b6107a96113e2565b6107ee6040518060400160405280600a81526020016922bc31b430b733b2ab1960b11b815250604051806040016040528060018152602001603160f81b8152506114b2565b8015610800576000805461ff00191690555b505050505050565b610810611542565b6001600160a01b0316610821610b45565b6001600160a01b03161461086a576040805162461bcd60e51b81526020600482018190526024820152600080516020614cb8833981519152604482015290519081900360640190fd5b61016380546001600160a01b0319166001600160a01b0392909216919091179055565b61012f6020526000908152604090205481565b6001600160a01b03166000908152610193602052604090205490565b6108c4611542565b6001600160a01b03166108d5610b45565b6001600160a01b03161461091e576040805162461bcd60e51b81526020600482018190526024820152600080516020614cb8833981519152604482015290519081900360640190fd5b6001600160e01b031982166000818152609760205260409081902080546001600160a01b0319166001600160a01b038516179055517f4b5aced933c0c9a88aeac3f0b3b72c5aaf75df8ebaf53225773248c4c315359390610980908490614692565b60405180910390a25050565b610163546001600160a01b031681565b6109a4611542565b6001600160a01b03166109b5610b45565b6001600160a01b0316146109fe576040805162461bcd60e51b81526020600482018190526024820152600080516020614cb8833981519152604482015290519081900360640190fd5b61016280546001600160a01b0319166001600160a01b0392909216919091179055565b610162546001600160a01b031681565b610a39611542565b6001600160a01b0316610a4a610b45565b6001600160a01b031614610a93576040805162461bcd60e51b81526020600482018190526024820152600080516020614cb8833981519152604482015290519081900360640190fd5b6033546040516000916001600160a01b0316907f8be0079c531659141344cd1fd0a4f28419497f9722a3daafe3b4186f6b6457e0908390a3603380546001600160a01b0319169055565b610ae5611542565b6001600160a01b0316610af6610b45565b6001600160a01b031614610b3f576040805162461bcd60e51b81526020600482018190526024820152600080516020614cb8833981519152604482015290519081900360640190fd5b61016155565b6033546001600160a01b03165b90565b6101615481565b610b64611542565b6001600160a01b0316610b75610b45565b6001600160a01b031614610bbe576040805162461bcd60e51b81526020600482018190526024820152600080516020614cb8833981519152604482015290519081900360640190fd5b6001600160e01b031982166000818152606560205260409081902080546001600160a01b0319166001600160a01b038516179055517fd2bf91075f105d0fd80328da28e20ebdad1c1261839711183bc29a44cbe6c72f90610980908490614692565b80516001600160a01b0316610c33611542565b6001600160a01b031614610c625760405162461bcd60e51b8152600401610c59906149e5565b60405180910390fd5b6080810151610c835760405162461bcd60e51b8152600401610c5990614850565b6000610c8e82611551565b600081815261012f602090815260409182902060001990558451908501515160608601515192519394507fbbdc98cb2835f4f846e6a63700d0498b4674f0e8858fd50c6379314227afa04e93610ce793869392916146bf565b60405180910390a15050565b610cfb611542565b6001600160a01b0316610d0c610b45565b6001600160a01b031614610d55576040805162461bcd60e51b81526020600482018190526024820152600080516020614cb8833981519152604482015290519081900360640190fd5b6001600160a01b0391821660009081526101646020526040902080546001600160a01b03191691909216179055565b610d8e84846116c0565b610d9882826116c0565b60408401516001600160a01b031615610de45783604001516001600160a01b031682600001516001600160a01b031614610de45760405162461bcd60e51b8152600401610c599061497a565b60408201516001600160a01b031615610e305783600001516001600160a01b031682604001516001600160a01b031614610e305760405162461bcd60e51b8152600401610c599061487e565b610e3a84836116d7565b50505050565b610e48611542565b6001600160a01b0316610e59610b45565b6001600160a01b031614610ea2576040805162461bcd60e51b81526020600482018190526024820152600080516020614cb8833981519152604482015290519081900360640190fd5b6001600160a01b038116610ee75760405162461bcd60e51b8152600401808060200182810382526026815260200180614bb26026913960400191505060405180910390fd5b6033546040516001600160a01b038084169216907f8be0079c531659141344cd1fd0a4f28419497f9722a3daafe3b4186f6b6457e090600090a3603380546001600160a01b0319166001600160a01b0392909216919091179055565b6000815160001415610f5757506000610f5e565b5060208101515b919050565b6000806001610f79610f7488611870565b6118f3565b84878760405160008152602001604052604051808581526020018460ff1681526020018381526020018281526020019450505050506020604051602081039080840390855afa158015610fd0573d6000803e3d6000fd5b5050604051601f1901519150506001600160a01b03811661102c576040805162461bcd60e51b8152602060048201526011602482015270496e76616c6964207369676e617475726560781b604482015290519081900360640190fd5b866001600160a01b0316816001600160a01b03161491505095945050505050565b6000828201838110156110a7576040805162461bcd60e51b815260206004820152601b60248201527f536166654d6174683a206164646974696f6e206f766572666c6f770000000000604482015290519081900360640190fd5b90505b92915050565b60006110bb3061193f565b15905090565b600054610100900460ff16806110da57506110da6110b0565b806110e8575060005460ff16155b6111235760405162461bcd60e51b815260040180806020018281038252602e815260200180614c47602e913960400191505060405180910390fd5b600054610100900460ff1615801561114e576000805460ff1961ff0019909116610100171660011790555b8015611160576000805461ff00191690555b50565b600054610100900460ff168061117c575061117c6110b0565b8061118a575060005460ff16155b6111c55760405162461bcd60e51b815260040180806020018281038252602e815260200180614c47602e913960400191505060405180910390fd5b600054610100900460ff161580156111f0576000805460ff1961ff0019909116610100171660011790555b60006111fa611542565b603380546001600160a01b0319166001600160a01b038316908117909155604051919250906000907f8be0079c531659141344cd1fd0a4f28419497f9722a3daafe3b4186f6b6457e0908290a3508015611160576000805461ff001916905550565b60976020527f4532fa16f071d6234e30e1a1e69b9806f04095edf37a1ca7a25c8d6af7861cc080546001600160a01b039283166001600160a01b0319918216179091557f30a684095c937b5aa064dcf94f9903a7d808e3efb22d8389dbd43080ad4ed3d5805493909216928116831790915563025ceed960e61b6000527f4b5822151ea34b7c8d9e37c3e466bcecb631efe6a9f26a4a4054110a93dd316f80549091169091179055565b600054610100900460ff168061131f575061131f6110b0565b8061132d575060005460ff16155b6113685760405162461bcd60e51b815260040180806020018281038252602e815260200180614c47602e913960400191505060405180910390fd5b600054610100900460ff16158015611393576000805460ff1961ff0019909116610100171660011790555b61016184905561016380546001600160a01b038086166001600160a01b0319928316179092556101628054928516929091169190911790558015610e3a576000805461ff001916905550505050565b600054610100900460ff16806113fb57506113fb6110b0565b80611409575060005460ff16155b6114445760405162461bcd60e51b815260040180806020018281038252602e815260200180614c47602e913960400191505060405180910390fd5b600054610100900460ff1615801561146f576000805460ff1961ff0019909116610100171660011790555b61114e6040518060400160405280600881526020016745786368616e676560c01b815250604051806040016040528060018152602001601960f91b815250611945565b7f36c25de3e541d5d970f66e4210d728721220fff5c077cc6cd008b3a0c62adab782805190602001208280519060200120306114ec611a06565b60405160200180868152602001858152602001848152602001836001600160a01b031681526020018281526020019550505050505060405160208183030381529060405280519060200120610194819055505050565b600061154c611a10565b905090565b60e08101516000906001600160e01b0319166323d235ef60e01b141561165057815160208301515161158290611a6c565b60608401515161159190611a6c565b846080015185610100015160405160200180866001600160a01b0316815260200185815260200184815260200183815260200180602001828103825283818151815260200191508051906020019080838360005b838110156115fd5781810151838201526020016115e5565b50505050905090810190601f16801561162a5780820380516001836020036101000a031916815260200191505b509650505050505050604051602081830303815290604052805190602001209050610f5e565b815160208301515161166190611a6c565b60608401515161167090611a6c565b846080015160405160200180856001600160a01b03168152602001848152602001838152602001828152602001945050505050604051602081830303815290604052805190602001209050610f5e565b6116c982611ad6565b6116d38282611ba0565b5050565b6000806116e48484611e29565b9150915060006116f385611551565b9050600061170085611551565b9050600061170d87611ec2565b9050600061171a87611ec2565b9050600061172c898987878787611fc6565b90506000806117408989858e8e8a8a6120f1565b8a5191935091506001600160e01b0319166355575f5d60e11b14156117bf5787516001600160e01b0319166355575f5d60e11b141561177e57600080fd5b8134101561179e5760405162461bcd60e51b8152600401610c59906149bd565b813411156117ba576117ba6117b33484612299565b33906122f6565b61180e565b87516001600160e01b0319166355575f5d60e11b141561180e57803410156117f95760405162461bcd60e51b8152600401610c59906149bd565b8034111561180e5761180e6117b33483612299565b7f268820db288a211986b26a8fda86b1e0046281b21206936bb0e61c67b5c79ef487878d600001518d60000151876020015188600001518f8f60405161185b989796959493929190614706565b60405180910390a15050505050505050505050565b6000604051806080016040528060438152602001614b6f60439139805190602001208260000151836020015184604001518051906020012060405160200180858152602001848152602001836001600160a01b03168152602001828152602001945050505050604051602081830303815290604052805190602001209050919050565b60006118fd61238e565b82604051602001808061190160f01b81525060020183815260200182815260200192505050604051602081830303815290604052805190602001209050919050565b3b151590565b600054610100900460ff168061195e575061195e6110b0565b8061196c575060005460ff16155b6119a75760405162461bcd60e51b815260040180806020018281038252602e815260200180614c47602e913960400191505060405180910390fd5b600054610100900460ff161580156119d2576000805460ff1961ff0019909116610100171660011790555b825160208085019190912083519184019190912060c99190915560ca558015611a01576000805461ff00191690555b505050565b600061154c612395565b600033301415611a6757600080368080601f0160208091040260200160405190810160405280939291908181526020018383808284376000920191909152505050503601516001600160a01b03169150610b529050565b503390565b8051602091820151805190830120604080517f452a0dc408cb0d27ffc3b3caff933a5208040a53a9dbecd8d89cad2c0d40e00c818601526001600160e01b031990931683820152606080840192909252805180840390920182526080909201909152805191012090565b60a08101511580611aea5750428160a00151105b611b3b576040805162461bcd60e51b815260206004820152601d60248201527f4f726465722073746172742076616c69646174696f6e206661696c6564000000604482015290519081900360640190fd5b60c08101511580611b4f5750428160c00151115b611160576040805162461bcd60e51b815260206004820152601b60248201527f4f7264657220656e642076616c69646174696f6e206661696c65640000000000604482015290519081900360640190fd5b6080820151611c3e5781516001600160a01b031615611c255781516001600160a01b0316611bcc611542565b6001600160a01b031614611c20576040805162461bcd60e51b815260206004820152601660248201527536b0b5b2b91034b9903737ba103a3c1039b2b73232b960511b604482015290519081900360640190fd5b611c39565b611c2d611542565b6001600160a01b031682525b6116d3565b81516001600160a01b0316611c51611542565b6001600160a01b0316146116d3576000611c6a83612399565b90506000825160411415611c8e57611c8b83611c8584612489565b90612493565b90505b83516001600160a01b03828116911614610e3a578351611cb6906001600160a01b031661193f565b15611df2578351630b135d3f60e11b906001600160a01b0316631626ba7e611cdd85612489565b866040518363ffffffff1660e01b81526004018083815260200180602001828103825283818151815260200191508051906020019080838360005b83811015611d30578181015183820152602001611d18565b50505050905090810190601f168015611d5d5780820380516001836020036101000a031916815260200191505b50935050505060206040518083038186803b158015611d7b57600080fd5b505afa158015611d8f573d6000803e3d6000fd5b505050506040513d6020811015611da557600080fd5b50516001600160e01b03191614611ded5760405162461bcd60e51b815260040180806020018281038252602b815260200180614c1c602b913960400191505060405180910390fd5b610e3a565b60405162461bcd60e51b8152600401808060200182810382526022815260200180614bfa6022913960400191505060405180910390fd5b611e31613bc1565b611e39613bc1565b602084015151606084015151611e4f9190612509565b80519092506001600160e01b031916611e7a5760405162461bcd60e51b8152600401610c599061494e565b606084015151602084015151611e909190612509565b80519091506001600160e01b031916611ebb5760405162461bcd60e51b8152600401610c599061494e565b9250929050565b611eca613bd9565b60e08201516001600160e01b031916632611a13360e11b1415611f12576000611ef7836101000151612549565b80518352602090810151908301525060006040820152611fad565b60e08201516001600160e01b0319166323d235ef60e01b1415611f4457611f3d826101000151612565565b9050611fad565b60e08201516001600160e01b03199081161415611f6057611fad565b6040805162461bcd60e51b815260206004820152601760248201527f556e6b6e6f776e204f7264657220646174612074797065000000000000000000604482015290519081900360640190fd5b805151610f5e578151611fbf90612581565b8152919050565b611fce613bfc565b6000611fda888761261c565b90506000611fe8888761261c565b905060006120028a8a85858a604001518a60400151612649565b9050600081602001511180156120185750805115155b6120345760405162461bcd60e51b8152600401610c59906148ee565b60808a01511561208b5785604001511561206a57805161205590849061104d565b600089815261012f602052604090205561208b565b602081015161207a90849061104d565b600089815261012f60205260409020555b6080890151156120e2578460400151156120c45760208101516120af90839061104d565b600088815261012f60205260409020556120e2565b80516120d190839061104d565b600088815261012f60205260409020555b925050505b9695505050505050565b60008060006121088a600001518a600001516126cf565b885160208a015190945092509050600181600281111561212457fe5b141561219d578751875161215d919087878e8e7f1a0388dd7519a093630516a672419a2562e0e74deb98af068657dc265f0164c96127a0565b9250612198898960200151886000015188600001517fb45a3ba14423c8f1b71cc094845ab56b5294dbe8d8e3ba53f3cdb63d59a4044b612864565b61228c565b60028160028111156121ab57fe5b141561221f576121e88860200151876000015186888d8f7fb45a3ba14423c8f1b71cc094845ab56b5294dbe8d8e3ba53f3cdb63d59a4044b6127a0565b885188518651929450612198928d9291907f1a0388dd7519a093630516a672419a2562e0e74deb98af068657dc265f0164c9612864565b875187518551612253928d9290917f1a0388dd7519a093630516a672419a2562e0e74deb98af068657dc265f0164c9612864565b61228c898960200151886000015188600001517fb45a3ba14423c8f1b71cc094845ab56b5294dbe8d8e3ba53f3cdb63d59a4044b612864565b5097509795505050505050565b6000828211156122f0576040805162461bcd60e51b815260206004820152601e60248201527f536166654d6174683a207375627472616374696f6e206f766572666c6f770000604482015290519081900360640190fd5b50900390565b6040516000906001600160a01b0384169083908381818185875af1925050503d8060008114612341576040519150601f19603f3d011682016040523d82523d6000602084013e612346565b606091505b5050905080611a01576040805162461bcd60e51b815260206004820152600f60248201526e1d1c985b9cd9995c8819985a5b1959608a1b604482015290519081900360640190fd5b6101945490565b4690565b60007f477ed43b8020849b755512278536c3766a3b4ab547519949a75f483372493f8d82600001516123ce8460200151612a09565b84604001516123e08660600151612a09565b86608001518760a001518860c001518960e001518a610100015180519060200120604051602001808b81526020018a6001600160a01b03168152602001898152602001886001600160a01b03168152602001878152602001868152602001858152602001848152602001836001600160e01b03191681526020018281526020019a5050505050505050505050604051602081830303815290604052805190602001209050919050565b60006118fd612a79565b600081516041146124eb576040805162461bcd60e51b815260206004820152601f60248201527f45434453413a20696e76616c6964207369676e6174757265206c656e67746800604482015290519081900360640190fd5b60208201516040830151606084015160001a6120e786828585612ab4565b612511613bc1565b600061251d8484612d0a565b80519091506001600160e01b0319166125425761253a8385612d0a565b9150506110aa565b90506110aa565b612551613c16565b818060200190518101906110aa91906143fa565b61256d613bd9565b818060200190518101906110aa9190614486565b60408051600180825281830190925260609160009190816020015b6125a4613c30565b81526020019060019003908161259c57905050905082816000815181106125c757fe5b6020026020010151600001906001600160a01b031690816001600160a01b031681525050612710816000815181106125fb57fe5b6020908102919091018101516001600160601b039092169101529050919050565b6000826080015160001415612633575060006110aa565b50600090815261012f6020526040902054919050565b612651613bfc565b60008061265f898887612f26565b915091506000806126718a8988612f26565b91509150838111156126a45761269984848c60200151602001518d6060015160200151612fa0565b9450505050506120e7565b6126c08b60200151602001518c60600151602001518484613025565b9b9a5050505050505050505050565b60006001600160e01b031983166355575f5d60e11b14156126f2575060016110aa565b6001600160e01b031982166355575f5d60e11b1415612713575060026110aa565b6001600160e01b031983166322ba176160e21b1415612734575060016110aa565b6001600160e01b031982166322ba176160e21b1415612755575060026110aa565b6001600160e01b0319831663025ceed960e61b1415612776575060016110aa565b6001600160e01b0319821663025ceed960e61b1415612797575060026110aa565b50600092915050565b60006127b4886101615488602001516130ab565b905060006127c5828a8a888761311e565b90506127d58585838c8c8861321a565b905061280a85828b8a602001518c887fdfdfdaf4cc275341b6776a7ee23b953990b8d991717449077287da70f32cf95561328d565b508091505061284285828b89602001518c887fdfdfdaf4cc275341b6776a7ee23b953990b8d991717449077287da70f32cf95561328d565b508091505061285885828a896000015187612864565b50979650505050505050565b600084815b60018551038110156129545760006128aa86838151811061288657fe5b6020026020010151602001516001600160601b03168961334e90919063ffffffff16565b90506128df8683815181106128bb57fe5b6020026020010151602001516001600160601b03168561104d90919063ffffffff16565b9350801561294b576128f18382612299565b925061294b60405180604001604052808b8152602001838152508888858151811061291857fe5b602002602001015160000151887fa10bb5b2060a412d05113732875a5431ca23453eb93f797e0ffcb5b40e5f2c3e613366565b50600101612869565b5060008460018651038151811061296757fe5b6020026020010151905061299181602001516001600160601b03168461104d90919063ffffffff16565b925082612710146129b45760405162461bcd60e51b8152600401610c5990614917565b81156129ff576129ff60405180604001604052808a815260200184815250878360000151877fa10bb5b2060a412d05113732875a5431ca23453eb93f797e0ffcb5b40e5f2c3e613366565b5050505050505050565b60007fdb6f72e915676cfc289da13bc4ece054fd17b1df6d77ffc4a60510718c236b08612a398360000151611a6c565b8360200151604051602001808481526020018381526020018281526020019350505050604051602081830303815290604052805190602001209050919050565b600061154c7f8b73c3c69bb8fe3d512ecc4cf759cc79239f7b179b0ffacaa9a75d522b39400f612aa76136ed565b612aaf6136f3565b6136f9565b60007f7fffffffffffffffffffffffffffffff5d576e7357a4501ddfe92f46681b20a0821115612b155760405162461bcd60e51b8152600401808060200182810382526022815260200180614bd86022913960400191505060405180910390fd5b6000601e8560ff161115612bef576004850360ff16601b1480612b3e57506004850360ff16601c145b612b795760405162461bcd60e51b8152600401808060200182810382526022815260200180614c756022913960400191505060405180910390fd5b6001612b848761375c565b60048703868660405160008152602001604052604051808581526020018460ff1681526020018381526020018281526020019450505050506020604051602081039080840390855afa158015612bde573d6000803e3d6000fd5b505050602060405103519050612ca6565b8460ff16601b1480612c0457508460ff16601c145b612c3f5760405162461bcd60e51b8152600401808060200182810382526022815260200180614c756022913960400191505060405180910390fd5b60018686868660405160008152602001604052604051808581526020018460ff1681526020018381526020018281526020019450505050506020604051602081039080840390855afa158015612c99573d6000803e3d6000fd5b5050506020604051035190505b6001600160a01b038116612d01576040805162461bcd60e51b815260206004820152601860248201527f45434453413a20696e76616c6964207369676e61747572650000000000000000604482015290519081900360640190fd5b95945050505050565b612d12613bc1565b825182516001600160e01b031982166355575f5d60e11b1415612d7d576001600160e01b031981166355575f5d60e11b1415612d525784925050506110aa565b50506040805180820182526000808252825160208181019094529081529181019190915290506110aa565b6001600160e01b031982166322ba176160e21b1415612dc2576001600160e01b031981166322ba176160e21b1415612d5257612db985856137ad565b925050506110aa565b6001600160e01b031982166339d690a360e11b1415612dfe576001600160e01b031981166339d690a360e11b1415612d5257612db985856137ad565b6001600160e01b0319821663025ceed960e61b1415612e3a576001600160e01b0319811663025ceed960e61b1415612d5257612db985856137ad565b6001600160e01b031982166000908152606560205260409020546001600160a01b03168015612eef576040516306d3f7cb60e41b81526001600160a01b03821690636d3f7cb090612e919089908990600401614a0a565b60006040518083038186803b158015612ea957600080fd5b505afa158015612ebd573d6000803e3d6000fd5b505050506040513d6000823e601f3d908101601f19168201604052612ee5919081019061436f565b93505050506110aa565b6001600160e01b03198381169083161415612f0e57612ee586866137ad565b60405162461bcd60e51b8152600401610c59906147e2565b6000808215612f65576020808601510151612f419085612299565b9150612f5e8560600151602001518660200151602001518461380a565b9050612f98565b606085015160200151612f789085612299565b9050612f958560200151602001518660600151602001518361380a565b91505b935093915050565b612fa8613bfc565b6000612fb585858561380a565b90508581111561300c576040805162461bcd60e51b815260206004820152601860248201527f66696c6c4c6566743a20756e61626c6520746f2066696c6c0000000000000000604482015290519081900360640190fd5b5050604080518082019091529384525050602082015290565b61302d613bfc565b600061303a83878761380a565b905083811115613091576040805162461bcd60e51b815260206004820152601960248201527f66696c6c52696768743a20756e61626c6520746f2066696c6c00000000000000604482015290519081900360640190fd5b604080518082019091529283526020830152509392505050565b60006130c16130ba858561334e565b859061104d565b905060005b82518110156131165761310c6131058483815181106130e157fe5b6020026020010151602001516001600160601b03168761334e90919063ffffffff16565b839061104d565b91506001016130c6565b509392505050565b6000806000613144888861313f60026101615461387090919063ffffffff16565b6138c9565b9092509050801561320f5784516000906001600160e01b0319166322ba176160e21b141561318b5785602001518060200190518101906131849190613fc4565b90506131c4565b85516001600160e01b03191663025ceed960e61b14156131c457600086602001518060200190518101906131bf91906141d0565b509150505b61320d604051806040016040528088815260200184815250886131e6846138eb565b887ff87e69cb514f255f3d32f9d90f25160a10d0cdefe6618a6406db334d4450595c613366565b505b509695505050505050565b6000806132268761392a565b905060008061325a8a8989868a8a7fb3c5c697ec0b511b76d12f6293e6ee827b1e1df79ac7c64d0466d945904893d761328d565b915091506113888111156132805760405162461bcd60e51b8152600401610c5990614819565b5098975050505050505050565b856000805b865181101561228c576132ce8782815181106132aa57fe5b6020026020010151602001516001600160601b03168361104d90919063ffffffff16565b91506000806132fe858b8b86815181106132e457fe5b6020026020010151602001516001600160601b03166138c9565b909550859250905080156133445761334460405180604001604052808e815260200183815250898b868151811061333157fe5b6020026020010151600001518a8a613366565b5050600101613292565b60006110a76127106133608585613870565b90613aa3565b8451516001600160e01b0319166355575f5d60e11b141561339f57602085015161339a906001600160a01b038516906122f6565b6136a7565b8451516001600160e01b0319166322ba176160e21b141561347d5760008560000151602001518060200190518101906133d89190613fc4565b6322ba176160e21b600052609760209081527f4532fa16f071d6234e30e1a1e69b9806f04095edf37a1ca7a25c8d6af7861cc0549088015160405163776062c360e01b81529293506001600160a01b039091169163776062c3916134459185918a918a91906004016147b8565b600060405180830381600087803b15801561345f57600080fd5b505af1158015613473573d6000803e3d6000fd5b50505050506136a7565b8451516001600160e01b0319166339d690a360e11b141561357d576000808660000151602001518060200190518101906134b791906141d0565b9150915086602001516001146134df5760405162461bcd60e51b8152600401610c59906148c2565b6339d690a360e11b60005260976020527f30a684095c937b5aa064dcf94f9903a7d808e3efb22d8389dbd43080ad4ed3d554604051637b84dc8360e11b81526001600160a01b039091169063f709b906906135449085908a908a9087906004016147b8565b600060405180830381600087803b15801561355e57600080fd5b505af1158015613572573d6000803e3d6000fd5b5050505050506136a7565b8451516001600160e01b03191663025ceed960e61b1415613626576000808660000151602001518060200190518101906135b791906141d0565b63025ceed960e61b600052609760209081527f4b5822151ea34b7c8d9e37c3e466bcecb631efe6a9f26a4a4054110a93dd316f54908a0151604051639c1c2ee960e01b81529395509193506001600160a01b031691639c1c2ee9916135449186918b918b918891600401614775565b8451516001600160e01b031916600090815260976020526040908190205490516354bc0cf160e01b81526001600160a01b03909116906354bc0cf19061367490889088908890600401614a2f565b600060405180830381600087803b15801561368e57600080fd5b505af11580156136a2573d6000803e3d6000fd5b505050505b7fcae9d16f553e92058883de29cb3135dbc0c1e31fd7eace79fef1d80577fe482e85858585856040516136de959493929190614a62565b60405180910390a15050505050565b60c95490565b60ca5490565b6000838383613706612395565b3060405160200180868152602001858152602001848152602001838152602001826001600160a01b03168152602001955050505050506040516020818303038152906040528051906020012090505b9392505050565b604080517f19457468657265756d205369676e6564204d6573736167653a0a333200000000602080830191909152603c8083019490945282518083039094018452605c909101909152815191012090565b6137b5613bc1565b602080840151805190820120838201518051920191909120808214156137df5784925050506110aa565b5050604080518082018252600080825282516020808201909452908152918101919091529392505050565b6000613817848484613b0a565b1561385a576040805162461bcd60e51b815260206004820152600e60248201526d3937bab73234b7339032b93937b960911b604482015290519081900360640190fd5b613868836133608685613870565b949350505050565b60008261387f575060006110aa565b8282028284828161388c57fe5b04146110a75760405162461bcd60e51b8152600401808060200182810382526021815260200180614c976021913960400191505060405180910390fd5b6000806138df856138da868661334e565b613b99565b91509150935093915050565b6001600160a01b03808216600090815261016460205260408120549091168015613916579050610f5e565b5050610163546001600160a01b0316919050565b80516060906001600160e01b03191663025ceed960e61b148061395e575081516001600160e01b0319166339d690a360e11b145b15613a1457600080836020015180602001905181019061397e91906141d0565b61016254604051634e53ee3d60e11b81529294509092506001600160a01b031690639ca7dc7a906139b590859085906004016146a6565b600060405180830381600087803b1580156139cf57600080fd5b505af11580156139e3573d6000803e3d6000fd5b505050506040513d6000823e601f3d908101601f19168201604052613a0b91908101906142af565b92505050610f5e565b81516001600160e01b03191662737ea960e61b1415613a57576000808360200151806020019051810190613a489190613fe0565b608001519350610f5e92505050565b81516001600160e01b03191663d8f960c160e01b1415613a9b576000808360200151806020019051810190613a8c91906140dd565b606001519350610f5e92505050565b506060919050565b6000808211613af9576040805162461bcd60e51b815260206004820152601a60248201527f536166654d6174683a206469766973696f6e206279207a65726f000000000000604482015290519081900360640190fd5b818381613b0257fe5b049392505050565b600082613b51576040805162461bcd60e51b815260206004820152601060248201526f6469766973696f6e206279207a65726f60801b604482015290519081900360640190fd5b811580613b5c575083155b15613b6957506000613755565b60008380613b7357fe5b8584099050613b828584613870565b613b8e826103e8613870565b101595945050505050565b60008082841115613bb857613bae8484612299565b9150829050611ebb565b50600093915050565b60408051808201909152600081526060602082015290565b604051806060016040528060608152602001606081526020016000151581525090565b604051806040016040528060008152602001600081525090565b604051806040016040528060608152602001606081525090565b604080518082019091526000808252602082015290565b8035610f5e81614b43565b600082601f830112613c62578081fd5b81516020613c77613c7283614ad9565b614ab6565b82815281810190858301855b85811015613cac57613c9a898684518b0101613dcb565b84529284019290840190600101613c83565b5090979650505050505050565b600082601f830112613cc9578081fd5b81516020613cd9613c7283614ad9565b82815281810190858301604080860288018501891015613cf7578687fd5b865b86811015613d665781838b031215613d0f578788fd5b81518281018181106001600160401b0382111715613d2957fe5b83528351613d3681614b43565b8152838701516001600160601b0381168114613d5057898afd5b8188015285529385019391810191600101613cf9565b509198975050505050505050565b8035610f5e81614b58565b600082601f830112613d8f578081fd5b8135613d9d613c7282614af6565b818152846020838601011115613db1578283fd5b816020850160208301379081016020019190915292915050565b600082601f830112613ddb578081fd5b8151613de9613c7282614af6565b818152846020838601011115613dfd578283fd5b613868826020830160208701614b17565b60006040808385031215613e20578182fd5b80518181016001600160401b038282108183111715613e3b57fe5b818452829450853581811115613e5057600080fd5b8601808803851315613e6157600080fd5b608084018381108382111715613e7357fe5b909452833593613e8285614b58565b93825260208401359381851115613e9857600080fd5b613ea488868301613d7f565b60608501525050815260209384013593019290925292915050565b6000610120808385031215613ed2578182fd5b613edb81614ab6565b915050613ee782613c47565b815260208201356001600160401b0380821115613f0357600080fd5b613f0f85838601613e0e565b6020840152613f2060408501613c47565b60408401526060840135915080821115613f3957600080fd5b613f4585838601613e0e565b60608401526080840135608084015260a084013560a084015260c084013560c0840152613f7460e08501613d74565b60e084015261010091508184013581811115613f8f57600080fd5b613f9b86828701613d7f565b8385015250505092915050565b600060208284031215613fb9578081fd5b81356110a781614b43565b600060208284031215613fd5578081fd5b81516110a781614b43565b60008060408385031215613ff2578081fd5b8251613ffd81614b43565b60208401519092506001600160401b0380821115614019578283fd5b9084019060c0828703121561402c578283fd5b61403660c0614ab6565b8251815260208301518281111561404b578485fd5b61405788828601613dcb565b60208301525060408301516040820152606083015182811115614078578485fd5b61408488828601613cb9565b60608301525060808301518281111561409b578485fd5b6140a788828601613cb9565b60808301525060a0830151828111156140be578485fd5b6140ca88828601613c52565b60a0830152508093505050509250929050565b600080604083850312156140ef578182fd5b82516140fa81614b43565b60208401519092506001600160401b0380821115614116578283fd5b9084019060a08287031215614129578283fd5b61413360a0614ab6565b82518152602083015182811115614148578485fd5b61415488828601613dcb565b60208301525060408301518281111561416b578485fd5b61417788828601613cb9565b60408301525060608301518281111561418e578485fd5b61419a88828601613cb9565b6060830152506080830151828111156141b1578485fd5b6141bd88828601613c52565b6080830152508093505050509250929050565b600080604083850312156141e2578182fd5b82516141ed81614b43565b6020939093015192949293505050565b6000806040838503121561420f578182fd5b823561421a81614b43565b9150602083013561422a81614b43565b809150509250929050565b600080600080600060a0868803121561424c578081fd5b853561425781614b43565b945060208601356001600160401b03811115614271578182fd5b61427d88828901613d7f565b9450506040860135925060608601359150608086013560ff811681146142a1578182fd5b809150509295509295909350565b6000602082840312156142c0578081fd5b81516001600160401b038111156142d5578182fd5b61386884828501613cb9565b6000602082840312156142f2578081fd5b5035919050565b6000806040838503121561430b578182fd5b823561421a81614b58565b600080600080600060a0868803121561432d578283fd5b853561433881614b43565b9450602086013561434881614b43565b935060408601359250606086013561435f81614b43565b915060808601356142a181614b43565b600060208284031215614380578081fd5b81516001600160401b0380821115614396578283fd5b90830190604082860312156143a9578283fd5b6040516040810181811083821117156143be57fe5b60405282516143cc81614b58565b81526020830151828111156143df578485fd5b6143eb87828601613dcb565b60208301525095945050505050565b60006020828403121561440b578081fd5b81516001600160401b0380821115614421578283fd5b9083019060408286031215614434578283fd5b60405160408101818110838211171561444957fe5b60405282518281111561445a578485fd5b61446687828601613cb9565b82525060208301518281111561447a578485fd5b6143eb87828601613cb9565b600060208284031215614497578081fd5b81516001600160401b03808211156144ad578283fd5b90830190606082860312156144c0578283fd5b6040516060810181811083821117156144d557fe5b6040528251828111156144e6578485fd5b6144f287828601613cb9565b825250602083015182811115614506578485fd5b61451287828601613cb9565b60208301525060408301519250821515831461452c578384fd5b6040810192909252509392505050565b60006020828403121561454d578081fd5b81356001600160401b03811115614562578182fd5b61386884828501613ebf565b60008060008060808587031215614583578182fd5b84356001600160401b0380821115614599578384fd5b6145a588838901613ebf565b955060208701359150808211156145ba578384fd5b6145c688838901613d7f565b945060408701359150808211156145db578384fd5b6145e788838901613ebf565b935060608701359150808211156145fc578283fd5b5061460987828801613d7f565b91505092959194509250565b6000815180845261462d816020860160208601614b17565b601f01601f19169290920160200192915050565b600063ffffffff60e01b82511683526020820151604060208501526138686040850182614615565b600081516040845261467e6040850182614641565b602093840151949093019390935250919050565b6001600160a01b0391909116815260200190565b6001600160a01b03929092168252602082015260400190565b8481526001600160a01b03841660208201526080604082018190526000906146e990830185614641565b82810360608401526146fb8185614641565b979650505050505050565b888152602081018890526001600160a01b038781166040830152861660608201526080810185905260a0810184905261010060c0820181905260009061474e83820186614641565b905082810360e08401526126c08185614641565b6000602082526110a76020830184614615565b6001600160a01b03958616815293851660208501529190931660408301526060820192909252608081019190915260c060a0820181905260009082015260e00190565b6001600160a01b039485168152928416602084015292166040820152606081019190915260800190565b60208082526017908201527f6e6f7420666f756e64204941737365744d617463686572000000000000000000604082015260600190565b6020808252601d908201527f526f79616c746965732061726520746f6f206869676820283e35302529000000604082015260600190565b6020808252601490820152730c081cd85b1d0818d85b89dd081899481d5cd95960621b604082015260600190565b60208082526024908201527f72696768744f726465722e74616b657220766572696669636174696f6e2066616040820152631a5b195960e21b606082015260800190565b60208082526012908201527132b9319b9918903b30b63ab29032b93937b960711b604082015260600190565b6020808252600f908201526e1b9bdd1a1a5b99c81d1bc8199a5b1b608a1b604082015260600190565b6020808252601e908201527f53756d207061796f75747320427073206e6f7420657175616c20313030250000604082015260600190565b6020808252601290820152710c2e6e6cae8e640c8dedc4ee840dac2e8c6d60731b604082015260600190565b60208082526023908201527f6c6566744f726465722e74616b657220766572696669636174696f6e206661696040820152621b195960ea1b606082015260800190565b6020808252600e908201526d0dcdee840cadcdeeaced040cae8d60931b604082015260600190565b6020808252600b908201526a3737ba10309036b0b5b2b960a91b604082015260600190565b600060408252614a1d6040830185614641565b8281036020840152612d018185614641565b600060608252614a426060830186614669565b6001600160a01b0394851660208401529290931660409091015292915050565b600060a08252614a7560a0830188614669565b6001600160a01b0396871660208401529490951660408201526001600160e01b03199283166060820152911660809091015292915050565b90815260200190565b6040518181016001600160401b0381118282101715614ad157fe5b604052919050565b60006001600160401b03821115614aec57fe5b5060209081020190565b60006001600160401b03821115614b0957fe5b50601f01601f191660200190565b60005b83811015614b32578181015183820152602001614b1a565b83811115610e3a5750506000910152565b6001600160a01b038116811461116057600080fd5b6001600160e01b03198116811461116057600080fdfe4d6574615472616e73616374696f6e2875696e74323536206e6f6e63652c616464726573732066726f6d2c62797465732066756e6374696f6e5369676e6174757265294f776e61626c653a206e6577206f776e657220697320746865207a65726f206164647265737345434453413a20696e76616c6964207369676e6174757265202773272076616c75656f72646572207369676e617475726520766572696669636174696f6e206572726f72636f6e7472616374206f72646572207369676e617475726520766572696669636174696f6e206572726f72496e697469616c697a61626c653a20636f6e747261637420697320616c726561647920696e697469616c697a656445434453413a20696e76616c6964207369676e6174757265202776272076616c7565536166654d6174683a206d756c7469706c69636174696f6e206f766572666c6f774f776e61626c653a2063616c6c6572206973206e6f7420746865206f776e65725369676e657220616e64207369676e617475726520646f206e6f74206d61746368a264697066735822122039c44f745243b125cd1b617ae15886c8bb24ee0f70b8d8751f893f189c6bd94164736f6c63430007060033",
  "immutableReferences": {},
  "source": "// SPDX-License-Identifier: MIT\n\npragma solidity 0.7.6;\npragma abicoder v2;\n\nimport \"./ExchangeV2Core.sol\";\nimport \"./RaribleTransferManager.sol\";\nimport \"@rarible/meta-tx/contracts/EIP712MetaTransaction.sol\";\nimport \"@rarible/royalties/contracts/IRoyaltiesProvider.sol\";\n\ncontract ExchangeMetaV2 is ExchangeV2Core, RaribleTransferManager, EIP712MetaTransaction {\n    function __ExchangeV2_init(\n        INftTransferProxy _transferProxy,\n        IERC20TransferProxy _erc20TransferProxy,\n        uint newProtocolFee,\n        address newDefaultFeeReceiver,\n        IRoyaltiesProvider newRoyaltiesProvider\n    ) external initializer {\n        __Context_init_unchained();\n        __Ownable_init_unchained();\n        __TransferExecutor_init_unchained(_transferProxy, _erc20TransferProxy);\n        __RaribleTransferManager_init_unchained(newProtocolFee, newDefaultFeeReceiver, newRoyaltiesProvider);\n        __OrderValidator_init_unchained();\n        __MetaTransaction_init_unchained(\"ExchangeV2\", \"1\");\n    }\n\n    function _msgSender() internal view virtual override(ContextUpgradeable, EIP712MetaTransaction) returns (address payable) {\n        return super._msgSender();\n    }\n}\n",
  "sourcePath": "@rarible/exchange-v2/contracts/ExchangeMetaV2.sol",
  "compiler": {
    "name": "solc",
    "version": "0.7.6+commit.7338295f.Emscripten.clang"
  },
  "schemaVersion": "3.4.3",
  "updatedAt": "2022-02-15T07:08:23.267Z",
  "networkType": "ethereum",
  "devdoc": {
    "kind": "dev",
    "methods": {
      "owner()": {
        "details": "Returns the address of the current owner."
      },
      "renounceOwnership()": {
        "details": "Leaves the contract without owner. It will not be possible to call `onlyOwner` functions anymore. Can only be called by the current owner. NOTE: Renouncing ownership will leave the contract without an owner, thereby removing any functionality that is only available to the owner."
      },
      "transferOwnership(address)": {
        "details": "Transfers ownership of the contract to a new account (`newOwner`). Can only be called by the current owner."
      }
    },
    "version": 1
  },
  "userdoc": {
    "kind": "user",
    "methods": {},
    "version": 1
  }
}