{
  "contractName": "ExchangeWrapper",
  "abi": [
    {
      "inputs": [
        {
          "internalType": "address",
          "name": "_wyvernExchange",
          "type": "address"
        },
        {
          "internalType": "address",
          "name": "_exchangeV2",
          "type": "address"
        },
        {
          "internalType": "address",
          "name": "_seaPort",
          "type": "address"
        },
        {
          "internalType": "address",
          "name": "_x2y2",
          "type": "address"
        },
        {
          "internalType": "address",
          "name": "_looksRare",
          "type": "address"
        },
        {
          "internalType": "address",
          "name": "_sudoswap",
          "type": "address"
        }
      ],
      "stateMutability": "nonpayable",
      "type": "constructor"
    },
    {
      "anonymous": false,
      "inputs": [
        {
          "indexed": false,
          "internalType": "bool",
          "name": "result",
          "type": "bool"
        }
      ],
      "name": "Execution",
      "type": "event"
    },
    {
      "anonymous": false,
      "inputs": [
        {
          "indexed": true,
          "internalType": "address",
          "name": "previousOwner",
          "type": "address"
        },
        {
          "indexed": true,
          "internalType": "address",
          "name": "newOwner",
          "type": "address"
        }
      ],
      "name": "OwnershipTransferred",
      "type": "event"
    },
    {
      "anonymous": false,
      "inputs": [
        {
          "indexed": false,
          "internalType": "bool",
          "name": "paused",
          "type": "bool"
        }
      ],
      "name": "Paused",
      "type": "event"
    },
    {
      "inputs": [],
      "name": "exchangeV2",
      "outputs": [
        {
          "internalType": "address",
          "name": "",
          "type": "address"
        }
      ],
      "stateMutability": "view",
      "type": "function",
      "constant": true
    },
    {
      "inputs": [],
      "name": "looksRare",
      "outputs": [
        {
          "internalType": "address",
          "name": "",
          "type": "address"
        }
      ],
      "stateMutability": "view",
      "type": "function",
      "constant": true
    },
    {
      "inputs": [
        {
          "internalType": "address",
          "name": "",
          "type": "address"
        },
        {
          "internalType": "address",
          "name": "",
          "type": "address"
        },
        {
          "internalType": "uint256[]",
          "name": "",
          "type": "uint256[]"
        },
        {
          "internalType": "uint256[]",
          "name": "",
          "type": "uint256[]"
        },
        {
          "internalType": "bytes",
          "name": "",
          "type": "bytes"
        }
      ],
      "name": "onERC1155BatchReceived",
      "outputs": [
        {
          "internalType": "bytes4",
          "name": "",
          "type": "bytes4"
        }
      ],
      "stateMutability": "nonpayable",
      "type": "function"
    },
    {
      "inputs": [
        {
          "internalType": "address",
          "name": "",
          "type": "address"
        },
        {
          "internalType": "address",
          "name": "",
          "type": "address"
        },
        {
          "internalType": "uint256",
          "name": "",
          "type": "uint256"
        },
        {
          "internalType": "uint256",
          "name": "",
          "type": "uint256"
        },
        {
          "internalType": "bytes",
          "name": "",
          "type": "bytes"
        }
      ],
      "name": "onERC1155Received",
      "outputs": [
        {
          "internalType": "bytes4",
          "name": "",
          "type": "bytes4"
        }
      ],
      "stateMutability": "nonpayable",
      "type": "function"
    },
    {
      "inputs": [
        {
          "internalType": "address",
          "name": "",
          "type": "address"
        },
        {
          "internalType": "address",
          "name": "",
          "type": "address"
        },
        {
          "internalType": "uint256",
          "name": "",
          "type": "uint256"
        },
        {
          "internalType": "bytes",
          "name": "",
          "type": "bytes"
        }
      ],
      "name": "onERC721Received",
      "outputs": [
        {
          "internalType": "bytes4",
          "name": "",
          "type": "bytes4"
        }
      ],
      "stateMutability": "nonpayable",
      "type": "function"
    },
    {
      "inputs": [],
      "name": "owner",
      "outputs": [
        {
          "internalType": "address",
          "name": "",
          "type": "address"
        }
      ],
      "stateMutability": "view",
      "type": "function",
      "constant": true
    },
    {
      "inputs": [
        {
          "internalType": "bool",
          "name": "_paused",
          "type": "bool"
        }
      ],
      "name": "pause",
      "outputs": [],
      "stateMutability": "nonpayable",
      "type": "function"
    },
    {
      "inputs": [],
      "name": "paused",
      "outputs": [
        {
          "internalType": "bool",
          "name": "",
          "type": "bool"
        }
      ],
      "stateMutability": "view",
      "type": "function",
      "constant": true
    },
    {
      "inputs": [],
      "name": "renounceOwnership",
      "outputs": [],
      "stateMutability": "nonpayable",
      "type": "function"
    },
    {
      "inputs": [],
      "name": "seaPort",
      "outputs": [
        {
          "internalType": "address",
          "name": "",
          "type": "address"
        }
      ],
      "stateMutability": "view",
      "type": "function",
      "constant": true
    },
    {
      "inputs": [],
      "name": "sudoswap",
      "outputs": [
        {
          "internalType": "address",
          "name": "",
          "type": "address"
        }
      ],
      "stateMutability": "view",
      "type": "function",
      "constant": true
    },
    {
      "inputs": [
        {
          "internalType": "bytes4",
          "name": "interfaceId",
          "type": "bytes4"
        }
      ],
      "name": "supportsInterface",
      "outputs": [
        {
          "internalType": "bool",
          "name": "",
          "type": "bool"
        }
      ],
      "stateMutability": "view",
      "type": "function",
      "constant": true
    },
    {
      "inputs": [
        {
          "internalType": "address",
          "name": "newOwner",
          "type": "address"
        }
      ],
      "name": "transferOwnership",
      "outputs": [],
      "stateMutability": "nonpayable",
      "type": "function"
    },
    {
      "inputs": [],
      "name": "wyvernExchange",
      "outputs": [
        {
          "internalType": "address",
          "name": "",
          "type": "address"
        }
      ],
      "stateMutability": "view",
      "type": "function",
      "constant": true
    },
    {
      "inputs": [],
      "name": "x2y2",
      "outputs": [
        {
          "internalType": "address",
          "name": "",
          "type": "address"
        }
      ],
      "stateMutability": "view",
      "type": "function",
      "constant": true
    },
    {
      "stateMutability": "payable",
      "type": "receive",
      "payable": true
    },
    {
      "inputs": [
        {
          "components": [
            {
              "internalType": "enum ExchangeWrapper.Markets",
              "name": "marketId",
              "type": "uint8"
            },
            {
              "internalType": "uint256",
              "name": "amount",
              "type": "uint256"
            },
            {
              "internalType": "uint256",
              "name": "fees",
              "type": "uint256"
            },
            {
              "internalType": "bytes",
              "name": "data",
              "type": "bytes"
            }
          ],
          "internalType": "struct ExchangeWrapper.PurchaseDetails",
          "name": "purchaseDetails",
          "type": "tuple"
        },
        {
          "internalType": "address",
          "name": "feeRecipientFirst",
          "type": "address"
        },
        {
          "internalType": "address",
          "name": "feeRecipientSecond",
          "type": "address"
        }
      ],
      "name": "singlePurchase",
      "outputs": [],
      "stateMutability": "payable",
      "type": "function",
      "payable": true
    },
    {
      "inputs": [
        {
          "components": [
            {
              "internalType": "enum ExchangeWrapper.Markets",
              "name": "marketId",
              "type": "uint8"
            },
            {
              "internalType": "uint256",
              "name": "amount",
              "type": "uint256"
            },
            {
              "internalType": "uint256",
              "name": "fees",
              "type": "uint256"
            },
            {
              "internalType": "bytes",
              "name": "data",
              "type": "bytes"
            }
          ],
          "internalType": "struct ExchangeWrapper.PurchaseDetails[]",
          "name": "purchaseDetails",
          "type": "tuple[]"
        },
        {
          "internalType": "address",
          "name": "feeRecipientFirst",
          "type": "address"
        },
        {
          "internalType": "address",
          "name": "feeRecipientSecond",
          "type": "address"
        },
        {
          "internalType": "bool",
          "name": "allowFail",
          "type": "bool"
        }
      ],
      "name": "bulkPurchase",
      "outputs": [],
      "stateMutability": "payable",
      "type": "function",
      "payable": true
    }
  ],
  "bytecode": "0x6101406040523480156200001257600080fd5b5060405162002d8f38038062002d8f833981016040819052620000359162000199565b600062000041620000f0565b600080546001600160a01b0319166001600160a01b0383169081178255604051929350917f8be0079c531659141344cd1fd0a4f28419497f9722a3daafe3b4186f6b6457e0908290a3506200009d6301ffc9a760e01b620000f4565b620000af630271189760e51b620000f4565b6001600160601b0319606096871b811660805294861b851660a05292851b841660c05290841b831660e052831b82166101005290911b166101205262000219565b3390565b6001600160e01b0319808216141562000154576040805162461bcd60e51b815260206004820152601c60248201527f4552433136353a20696e76616c696420696e7465726661636520696400000000604482015290519081900360640190fd5b6001600160e01b0319166000908152600160208190526040909120805460ff19169091179055565b80516001600160a01b03811681146200019457600080fd5b919050565b60008060008060008060c08789031215620001b2578182fd5b620001bd876200017c565b9550620001cd602088016200017c565b9450620001dd604088016200017c565b9350620001ed606088016200017c565b9250620001fd608088016200017c565b91506200020d60a088016200017c565b90509295509295509295565b60805160601c60a05160601c60c05160601c60e05160601c6101005160601c6101205160601c612af26200029d600039806103dc528061102052508061056a5280610df45280610e8e5250806108015280610b695280610bff52508061040052806108b752508061058e5280610a665250806106b852806109945250612af26000f3fe6080604052600436106101025760003560e01c80638da5cb5b11610095578063bc197c8111610064578063bc197c8114610259578063c9f0a2fa14610279578063f23a6e611461028e578063f2fde38b146102ae578063fc40c9c7146102ce57610109565b80638da5cb5b146102075780639110c7771461021c578063a05f32dc14610231578063b94ee3321461024657610109565b80635ea1e4c9116100d15780635ea1e4c9146101a857806362c1a97d146101ca578063715018a6146101df57806386496e7a146101f457610109565b806301ffc9a71461010e57806302329a2914610144578063150b7a02146101665780635c975abb1461019357610109565b3661010957005b600080fd5b34801561011a57600080fd5b5061012e610129366004611f1b565b6102e3565b60405161013b91906124fa565b60405180910390f35b34801561015057600080fd5b5061016461015f366004611eff565b610306565b005b34801561017257600080fd5b50610186610181366004611ca5565b6103c1565b60405161013b9190612505565b34801561019f57600080fd5b5061012e6103d1565b3480156101b457600080fd5b506101bd6103da565b60405161013b919061248a565b3480156101d657600080fd5b506101bd6103fe565b3480156101eb57600080fd5b50610164610422565b61016461020236600461202b565b6104e0565b34801561021357600080fd5b506101bd610559565b34801561022857600080fd5b506101bd610568565b34801561023d57600080fd5b506101bd61058c565b610164610254366004611e44565b6105b0565b34801561026557600080fd5b50610186610274366004611bfc565b6106a5565b34801561028557600080fd5b506101bd6106b6565b34801561029a57600080fd5b506101866102a9366004611d0e565b6106da565b3480156102ba57600080fd5b506101646102c9366004611be0565b6106eb565b3480156102da57600080fd5b506101bd6107ff565b6001600160e01b0319811660009081526001602052604090205460ff165b919050565b61030e610823565b6001600160a01b031661031f610559565b6001600160a01b03161461037a576040805162461bcd60e51b815260206004820181905260248201527f4f776e61626c653a2063616c6c6572206973206e6f7420746865206f776e6572604482015290519081900360640190fd5b6002805482151560ff19909116811790915560408051918252517f0e2fb031ee032dc02d8011dc50b816eb450cf856abd8261680dac74f72165bd29181900360200190a150565b630a85bd0160e11b949350505050565b60025460ff1681565b7f000000000000000000000000000000000000000000000000000000000000000081565b7f000000000000000000000000000000000000000000000000000000000000000081565b61042a610823565b6001600160a01b031661043b610559565b6001600160a01b031614610496576040805162461bcd60e51b815260206004820181905260248201527f4f776e61626c653a2063616c6c6572206973206e6f7420746865206f776e6572604482015290519081900360640190fd5b600080546040516001600160a01b03909116907f8be0079c531659141344cd1fd0a4f28419497f9722a3daafe3b4186f6b6457e0908390a3600080546001600160a01b0319169055565b6104e8610827565b60008060006104f886600061087a565b9250925092507fcc54b89ca2d75d5612023b14f0a477212b0e08bc0c5b8ad2804e2f8e2e401fc08360405161052d91906124fa565b60405180910390a161053f828661112f565b610549818561112f565b61055161115a565b505050505050565b6000546001600160a01b031690565b7f000000000000000000000000000000000000000000000000000000000000000081565b7f000000000000000000000000000000000000000000000000000000000000000081565b6105b8610827565b6000806000805b87518110156106595760008060006105ea8b85815181106105dc57fe5b60200260200101518961087a565b92509250925084806105f95750825b94507fcc54b89ca2d75d5612023b14f0a477212b0e08bc0c5b8ad2804e2f8e2e401fc08360405161062a91906124fa565b60405180910390a161063c878361116e565b9650610648868261116e565b955050600190920191506105bf9050565b50806106805760405162461bcd60e51b815260040161067790612690565b60405180910390fd5b61068a838761112f565b610694828661112f565b61069c61115a565b50505050505050565b63bc197c8160e01b95945050505050565b7f000000000000000000000000000000000000000000000000000000000000000081565b63f23a6e6160e01b95945050505050565b6106f3610823565b6001600160a01b0316610704610559565b6001600160a01b03161461075f576040805162461bcd60e51b815260206004820181905260248201527f4f776e61626c653a2063616c6c6572206973206e6f7420746865206f776e6572604482015290519081900360640190fd5b6001600160a01b0381166107a45760405162461bcd60e51b8152600401808060200182810382526026815260200180612a766026913960400191505060405180910390fd5b600080546040516001600160a01b03808516939216917f8be0079c531659141344cd1fd0a4f28419497f9722a3daafe3b4186f6b6457e091a3600080546001600160a01b0319166001600160a01b0392909216919091179055565b7f000000000000000000000000000000000000000000000000000000000000000081565b3390565b60025460ff1615610878576040805162461bcd60e51b81526020600482015260166024820152751d1a194818dbdb9d1c9858dd081a5cc81c185d5cd95960521b604482015290519081900360640190fd5b565b6000806000806000610894876060015188604001516111d1565b602089015191935091506002885160058111156108ad57fe5b141561097b5760007f00000000000000000000000000000000000000000000000000000000000000006001600160a01b031682856040516108ee919061246e565b60006040518083038185875af1925050503d806000811461092b576040519150601f19603f3d011682016040523d82523d6000602084013e610930565b606091505b505090508715610958578061095357600080600096509650965050505050611128565b610975565b806109755760405162461bcd60e51b8152600401610677906125bf565b50611104565b60018851600581111561098a57fe5b1415610a4d5760007f00000000000000000000000000000000000000000000000000000000000000006001600160a01b031682856040516109cb919061246e565b60006040518083038185875af1925050503d8060008114610a08576040519150601f19603f3d011682016040523d82523d6000602084013e610a0d565b606091505b505090508715610a30578061095357600080600096509650965050505050611128565b806109755760405162461bcd60e51b81526004016106779061251a565b600088516005811115610a5c57fe5b1415610b1f5760007f00000000000000000000000000000000000000000000000000000000000000006001600160a01b03168285604051610a9d919061246e565b60006040518083038185875af1925050503d8060008114610ada576040519150601f19603f3d011682016040523d82523d6000602084013e610adf565b606091505b505090508715610b02578061095357600080600096509650965050505050611128565b806109755760405162461bcd60e51b815260040161067790612588565b600388516005811115610b2e57fe5b1415610da357600083806020019051810190610b4a919061208c565b90508715610be85760405163357a150b60e01b81526001600160a01b037f0000000000000000000000000000000000000000000000000000000000000000169063357a150b908490610ba09085906004016126c7565b6000604051808303818588803b158015610bb957600080fd5b505af193505050508015610bcb575060015b610be357600080600096509650965050505050611128565b610c69565b60405163357a150b60e01b81526001600160a01b037f0000000000000000000000000000000000000000000000000000000000000000169063357a150b908490610c369085906004016126c7565b6000604051808303818588803b158015610c4f57600080fd5b505af1158015610c63573d6000803e3d6000fd5b50505050505b60005b815151811015610d9c5760005b8251805183908110610c8757fe5b6020026020010151610100015151811015610d9357600083600001518381518110610cae57fe5b602002602001015161010001518281518110610cc657fe5b602002602001015160200151806020019051810190610ce59190611d74565b905060005b8151811015610d89576000828281518110610d0157fe5b6020026020010151905080600001516001600160a01b03166342842e0e30610d27610823565b84602001516040518463ffffffff1660e01b8152600401610d4a9392919061249e565b600060405180830381600087803b158015610d6457600080fd5b505af1158015610d78573d6000803e3d6000fd5b505060019093019250610cea915050565b5050600101610c79565b50600101610c6c565b5050611104565b600488516005811115610db257fe5b141561100757600080600085806020019051810190610dd19190612154565b9250925092508915610e7757604051635a72594b60e11b81526001600160a01b037f0000000000000000000000000000000000000000000000000000000000000000169063b4e4b296908690610e2d908790879060040161284e565b6000604051808303818588803b158015610e4657600080fd5b505af193505050508015610e58575060015b610e72576000806000985098509850505050505050611128565b610efa565b604051635a72594b60e11b81526001600160a01b037f0000000000000000000000000000000000000000000000000000000000000000169063b4e4b296908690610ec7908790879060040161284e565b6000604051808303818588803b158015610ee057600080fd5b505af1158015610ef4573d6000803e3d6000fd5b50505050505b6001600160e01b031981166339d690a360e11b1415610f895781604001516001600160a01b03166342842e0e30610f2f610823565b85608001516040518463ffffffff1660e01b8152600401610f529392919061249e565b600060405180830381600087803b158015610f6c57600080fd5b505af1158015610f80573d6000803e3d6000fd5b50505050610fff565b6001600160e01b0319811663025ceed960e61b1415610fe75781604001516001600160a01b031663f242432a30610fbe610823565b85608001518660a001516040518563ffffffff1660e01b8152600401610f5294939291906124c2565b60405162461bcd60e51b81526004016106779061262d565b505050611104565b60058851600581111561101657fe5b14156110ec5760007f00000000000000000000000000000000000000000000000000000000000000006001600160a01b03168285604051611057919061246e565b60006040518083038185875af1925050503d8060008114611094576040519150601f19603f3d011682016040523d82523d6000602084013e611099565b606091505b5050905087156110c157806110bc57600080600096509650965050505050611128565b6110de565b806110de5760405162461bcd60e51b8152600401610677906125f6565b610975838a6020015161126b565b60405162461bcd60e51b815260040161067790612551565b6000806111198a604001518b602001516112f9565b60019950909750955050505050505b9250925092565b60008211801561114757506001600160a01b03811615155b1561115657611156818361132a565b5050565b47801561116b5761116b338261132a565b50565b6000828201838110156111c8576040805162461bcd60e51b815260206004820152601b60248201527f536166654d6174683a206164646974696f6e206f766572666c6f770000000000604482015290519081900360640190fd5b90505b92915050565b6060806000602084901c61ffff1660018111156111ea57fe5b905060008160018111156111fa57fe5b141561120d575083915060609050611264565b600181600181111561121b57fe5b141561124c576000858060200190518101906112379190611f37565b80516020909101519094509250611264915050565b60405162461bcd60e51b815260040161067790612659565b9250929050565b60005b82518110156112f457600083828151811061128557fe5b602002602001015111156112ec5760008382815181106112a157fe5b60200260200101519050600060a08584815181106112bb57fe5b6020026020010151901c905060006112dc82866113c290919063ffffffff16565b90506112e8818461112f565b5050505b60010161126e565b505050565b60008061ffff601085901c811690851661131385836113c2565b61131d86836113c2565b9350935050509250929050565b6040516000906001600160a01b0384169083908381818185875af1925050503d8060008114611375576040519150601f19603f3d011682016040523d82523d6000602084013e61137a565b606091505b50509050806112f4576040805162461bcd60e51b815260206004820152600f60248201526e1d1c985b9cd9995c8819985a5b1959608a1b604482015290519081900360640190fd5b60006111c86127106113d485856113da565b90611433565b6000826113e9575060006111cb565b828202828482816113f657fe5b04146111c85760405162461bcd60e51b8152600401808060200182810382526021815260200180612a9c6021913960400191505060405180910390fd5b6000808211611489576040805162461bcd60e51b815260206004820152601a60248201527f536166654d6174683a206469766973696f6e206279207a65726f000000000000604482015290519081900360640190fd5b81838161149257fe5b049392505050565b803561030181612a3c565b805161030181612a3c565b600082601f8301126114c0578081fd5b815160206114d56114d0836129ce565b6129ab565b828152818101908583016040808602880185018910156114f3578687fd5b865b8681101561154e5781838b03121561150b578788fd5b81518281018181106001600160401b038211171561152557fe5b8352835181528684015161153881612a3c565b81880152855293850193918101916001016114f5565b509198975050505050505050565b600082601f83011261156c578081fd5b8151602061157c6114d0836129ce565b82815281810190858301855b858110156116055781518801604080601f19838d030112156115a8578889fd5b80518181016001600160401b0382821081831117156115c357fe5b818452848a015183529284015192808411156115dd578b8cfd5b50506115ed8c8984860101611950565b81890152865250509284019290840190600101611588565b5090979650505050505050565b600082601f830112611622578081fd5b815160206116326114d0836129ce565b82815281810190858301855b8581101561160557815188016101a080601f19838d0301121561165f578889fd5b611668816129ab565b87830151815261167a604084016114a5565b88820152606083015160408201526080830151606082015260a0830151608082015260c083015160a08201526116b260e084016114a5565b60c08201526101008301516001600160401b03808211156116d1578b8cfd5b6116df8e8b84880101611950565b60e0840152610120915081850151818111156116f9578c8dfd5b6117078f8c8389010161155c565b610100850152505061014080850151828401526101609150818501518184015250610180611736818601611bcf565b82840152611745848601611bcf565b908301525086525050928401929084019060010161163e565b600082601f83011261176e578081fd5b8151602061177e6114d0836129ce565b82815281810190858301855b85811015611605578151880161016080601f19838d030112156117ab578889fd5b6117b4816129ab565b6117bf88840161199b565b8152604083015188820152606083015160408201526080830151606082015260a080840151608083015260c06117f68186016114a5565b8284015260e085015191506001600160401b0380831115611815578c8dfd5b6118238f8c85890101611950565b8285015261010092508286015160e0850152610120915081860151838501526101409250828601518285015284860151945080851115611861578c8dfd5b50506118718d8a858701016114b0565b9082015286525050928401929084019060010161178a565b600082601f830112611899578081fd5b813560206118a96114d0836129ce565b82815281810190858301838502870184018810156118c5578586fd5b855b85811015611605578135845292840192908401906001016118c7565b803561030181612a51565b805161030181612a51565b805161030181612a5f565b600082601f830112611914578081fd5b81356119226114d0826129eb565b818152846020838601011115611936578283fd5b816020850160208301379081016020019190915292915050565b600082601f830112611960578081fd5b815161196e6114d0826129eb565b818152846020838601011115611982578283fd5b611993826020830160208701612a0c565b949350505050565b80516008811061030157600080fd5b60006102008083850312156119bd578182fd5b6119c6816129ab565b9150506119d2826118ee565b81526119e0602083016114a5565b60208201526119f1604083016114a5565b6040820152606082015160608201526080820151608082015260a082015160a0820152611a2060c083016114a5565b60c0820152611a3160e083016114a5565b60e08201526101008281015190820152610120808301519082015261014080830151908201526101608083015190820152610180808301516001600160401b03811115611a7d57600080fd5b611a8985828601611950565b8284015250506101a0611a9d818401611bcf565b908201526101c082810151908201526101e09182015191810191909152919050565b600060808284031215611ad0578081fd5b604051608081016001600160401b038282108183111715611aed57fe5b816040528293508435915060068210611b0557600080fd5b81835260208501356020840152604085013560408401526060850135915080821115611b3057600080fd5b50611b3d85828601611904565b6060830152505092915050565b600060c08284031215611b5b578081fd5b60405160c081018181106001600160401b0382111715611b7757fe5b8060405250809150825181526020830151602082015260408301516040820152606083015160608201526080830151611baf81612a3c565b608082015260a0830151611bc281612a51565b60a0919091015292915050565b805160ff8116811461030157600080fd5b600060208284031215611bf1578081fd5b81356111c881612a3c565b600080600080600060a08688031215611c13578081fd5b8535611c1e81612a3c565b94506020860135611c2e81612a3c565b935060408601356001600160401b0380821115611c49578283fd5b611c5589838a01611889565b94506060880135915080821115611c6a578283fd5b611c7689838a01611889565b93506080880135915080821115611c8b578283fd5b50611c9888828901611904565b9150509295509295909350565b60008060008060808587031215611cba578182fd5b8435611cc581612a3c565b93506020850135611cd581612a3c565b92506040850135915060608501356001600160401b03811115611cf6578182fd5b611d0287828801611904565b91505092959194509250565b600080600080600060a08688031215611d25578283fd5b8535611d3081612a3c565b94506020860135611d4081612a3c565b9350604086013592506060860135915060808601356001600160401b03811115611d68578182fd5b611c9888828901611904565b60006020808385031215611d86578182fd5b82516001600160401b0380821115611d9c578384fd5b818501915085601f830112611daf578384fd5b8151611dbd6114d0826129ce565b818152848101908486016040808502870188018b1015611ddb578889fd5b8896505b84871015611e355780828c031215611df5578889fd5b80518181018181108882111715611e0857fe5b82528251611e1581612a3c565b815282890151898201528452600196909601959287019290810190611ddf565b50909998505050505050505050565b60008060008060808587031215611e59578182fd5b84356001600160401b03811115611e6e578283fd5b8501601f81018713611e7e578283fd5b80356020611e8e6114d0836129ce565b82815281810190848301875b85811015611ec357611eb18d8684358a0101611abf565b84529284019290840190600101611e9a565b50508098505050611ed581890161149a565b9550505050611ee66040860161149a565b9150611ef4606086016118e3565b905092959194509250565b600060208284031215611f10578081fd5b81356111c881612a51565b600060208284031215611f2c578081fd5b81356111c881612a5f565b60006020808385031215611f49578182fd5b82516001600160401b0380821115611f5f578384fd5b9084019060408287031215611f72578384fd5b604051604081018181108382111715611f8757fe5b604052825182811115611f98578586fd5b611fa488828601611950565b8252508383015182811115611fb7578586fd5b80840193505086601f840112611fcb578485fd5b82519150611fdb6114d0836129ce565b82815284810190848601868502860187018a1015611ff7578788fd5b8795505b84861015612019578051835260019590950194918601918601611ffb565b50948201949094529695505050505050565b60008060006060848603121561203f578081fd5b83356001600160401b03811115612054578182fd5b61206086828701611abf565b935050602084013561207181612a3c565b9150604084013561208181612a3c565b809150509250925092565b60006020828403121561209d578081fd5b81516001600160401b03808211156120b3578283fd5b9083019061016082860312156120c7578283fd5b6120d160c06129ab565b8251828111156120df578485fd5b6120eb87828601611612565b8252506020830151828111156120ff578485fd5b61210b8782860161175e565b60208301525061211e8660408501611b4a565b6040820152610100830151606082015261012083015160808201526121466101408401611bcf565b60a082015295945050505050565b600080600060608486031215612168578081fd5b83516001600160401b038082111561217e578283fd5b9085019060c08288031215612191578283fd5b60405160c0810181811083821117156121a657fe5b6040526121b2836118ee565b81526121c0602084016114a5565b602082015260408301516040820152606083015160608201526080830151608082015260a0830151828111156121f4578485fd5b61220089828601611950565b60a083015250602087015190955091508082111561221c578283fd5b50612229868287016119aa565b925050612238604085016118f9565b90509250925092565b6001600160a01b03169052565b6000815180845260208085019450808401835b83811015612291578151805188528301516001600160a01b03168388015260409096019590820190600101612261565b509495945050505050565b60008282518085526020808601955080818302840101818601855b8481101561160557858303601f1901895281518051845284015160408585018190526122e5818601836123eb565b9a86019a94505050908301906001016122b7565b6000815180845260208085018081965082840281019150828601855b858110156123d85782840389528151610160612332868351612417565b818701518688015260408083015190870152606080830151908701526080808301519087015260a08083015161236a82890182612241565b505060c0808301518282890152612383838901826123eb565b60e085810151908a015261010080860151908a015261012080860151908a015261014094850151898203958a019590955292506123c491508290508361224e565b9a87019a9550505090840190600101612315565b5091979650505050505050565b15159052565b60008151808452612403816020860160208601612a0c565b601f01601f19169290920160200192915050565b6008811061242157fe5b9052565b805182526020808201519083015260408082015190830152606080820151908301526080808201516001600160a01b03169083015260a0908101511515910152565b60ff169052565b60008251612480818460208701612a0c565b9190910192915050565b6001600160a01b0391909116815260200190565b6001600160a01b039384168152919092166020820152604081019190915260600190565b6001600160a01b0394851681529290931660208301526040820152606081019190915260a06080820181905260009082015260c00190565b901515815260200190565b6001600160e01b031991909116815260200190565b6020808252601e908201527f50757263686173652077797665726e45786368616e6765206661696c65640000604082015260600190565b60208082526018908201527f556e6b6e6f776e2070757263686173652064657461696c730000000000000000604082015260600190565b60208082526017908201527f50757263686173652072617269626c65206661696c6564000000000000000000604082015260600190565b60208082526017908201527f507572636861736520536561506f7274206661696c6564000000000000000000604082015260600190565b60208082526018908201527f5075726368617365207375646f73776170206661696c65640000000000000000604082015260600190565b602080825260129082015271556e6b6e6f776e20746f6b656e207479706560701b604082015260600190565b6020808252601a908201527f756e6b6e6f776e206164646974696f6e616c4461746154797065000000000000604082015260600190565b60208082526018908201527f6e6f207375636365737366756c20657865637574696f6e730000000000000000604082015260600190565b60006020808352610180808401855161016080858801528282518085526101a094508489019150848782028a01018785019450885b828110156127e4578a820361019f19018452855180518352898101516127248b850182612241565b5060408181015190840152606080820151908401526080808201519084015260a0808201519084015260c08082015161275f82860182612241565b505060e08082015189828601526127788a8601826123eb565b9150506101008083015185830382870152612793838261229c565b92505050610120808301518186015250610140808301518186015250868201516127bf88860182612467565b5090890151906127d1848b0183612467565b968a0196948a01949250506001016126fc565b50968a0151898803601f190160408b01529661280081896122f9565b9750505050604088015193506128196060880185612425565b6060880151610120880152608088015161014088015260a0880151935061284281880185612467565b50929695505050505050565b60006040825261010084511515604084015260018060a01b03602086015116606084015260408501516080840152606085015160a0840152608085015160c084015260a085015160c060e08501526128a8828501826123eb565b905083810360208501526102006128c08287516123e5565b60208601516128d26020840182612241565b5060408601516128e56040840182612241565b50606086015160608301526080860151608083015260a086015160a083015260c086015161291660c0840182612241565b5060e086015161292960e0840182612241565b50858301519282019290925261012080860151908201526101408086015190820152610160808601519082015261018080860151818301849052909290612972828401826123eb565b935050506101a08086015161298982840182612467565b50506101c085810151908201526101e094850151940193909352509092915050565b6040518181016001600160401b03811182821017156129c657fe5b604052919050565b60006001600160401b038211156129e157fe5b5060209081020190565b60006001600160401b038211156129fe57fe5b50601f01601f191660200190565b60005b83811015612a27578181015183820152602001612a0f565b83811115612a36576000848401525b50505050565b6001600160a01b038116811461116b57600080fd5b801515811461116b57600080fd5b6001600160e01b03198116811461116b57600080fdfe4f776e61626c653a206e6577206f776e657220697320746865207a65726f2061646472657373536166654d6174683a206d756c7469706c69636174696f6e206f766572666c6f77a2646970667358221220a887ab63d115fcff9ef1f5426436d057abb9ec03113827dbe0ba44245714be7664736f6c63430007060033",
  "immutableReferences": {
    "10991": [
      {
        "length": 32,
        "start": 1720
      },
      {
        "length": 32,
        "start": 2452
      }
    ],
    "10993": [
      {
        "length": 32,
        "start": 1422
      },
      {
        "length": 32,
        "start": 2662
      }
    ],
    "10995": [
      {
        "length": 32,
        "start": 1024
      },
      {
        "length": 32,
        "start": 2231
      }
    ],
    "10997": [
      {
        "length": 32,
        "start": 2049
      },
      {
        "length": 32,
        "start": 2921
      },
      {
        "length": 32,
        "start": 3071
      }
    ],
    "10999": [
      {
        "length": 32,
        "start": 1386
      },
      {
        "length": 32,
        "start": 3572
      },
      {
        "length": 32,
        "start": 3726
      }
    ],
    "11001": [
      {
        "length": 32,
        "start": 988
      },
      {
        "length": 32,
        "start": 4128
      }
    ]
  },
  "source": "// SPDX-License-Identifier: MIT\n\npragma solidity 0.7.6;\npragma abicoder v2;\n\nimport \"@rarible/transfer-manager/contracts/lib/LibTransfer.sol\";\nimport \"@rarible/lib-bp/contracts/BpLibrary.sol\";\nimport \"@rarible/lib-part/contracts/LibPart.sol\";\n\nimport \"@openzeppelin/contracts/math/SafeMath.sol\";\n\nimport \"@openzeppelin/contracts/token/ERC721/ERC721Holder.sol\";\nimport \"@openzeppelin/contracts/token/ERC1155/ERC1155Holder.sol\";\n\nimport \"./interfaces/IWyvernExchange.sol\";\nimport \"./interfaces/IExchangeV2.sol\";\nimport \"./interfaces/ISeaPort.sol\";\nimport \"./interfaces/Ix2y2.sol\";\nimport \"./interfaces/ILooksRare.sol\";\n\nimport \"./libraries/IsPausable.sol\";\n\ncontract ExchangeWrapper is Ownable, ERC721Holder, ERC1155Holder, IsPausable {\n    using LibTransfer for address;\n    using BpLibrary for uint;\n    using SafeMath for uint;\n\n    address public immutable wyvernExchange;\n    address public immutable exchangeV2;\n    address public immutable seaPort;\n    address public immutable x2y2;\n    address public immutable looksRare;\n    address public immutable sudoswap;\n\n    event Execution(bool result);\n\n    enum Markets {\n        ExchangeV2,\n        WyvernExchange,\n        SeaPort,\n        X2Y2,\n        LooksRareOrders,\n        SudoSwap\n    }\n\n    enum AdditionalDataTypes {\n        NoAdditionalData,\n        RoyaltiesAdditionalData\n    }\n\n    /**\n        @notice struct for the purchase data\n        @param marketId - market key from Markets enum (what market to use)\n        @param amount - eth price (amount of eth that needs to be send to the marketplace)\n        @param fees - 2 fees (in base points) that are going to be taken on top of order amount encoded in 1 uint256\n                        bytes (27,28) used for dataType\n                        bytes (29,30) used for the first value (goes to feeRecipientFirst)\n                        bytes (31,32) are used for the second value (goes to feeRecipientSecond)\n        @param data - data for market call\n     */\n    struct PurchaseDetails {\n        Markets marketId;\n        uint256 amount;\n        uint fees;\n        bytes data;\n    }\n\n    /**\n        @notice struct for the data with additional Ddta\n        @param data - data for market call\n        @param additionalRoyalties - array additional Royalties (in base points plus address Royalty recipient)\n     */\n    struct AdditionalData {\n        bytes data;\n        uint[] additionalRoyalties;\n    }\n\n    constructor(\n        address _wyvernExchange,\n        address _exchangeV2,\n        address _seaPort,\n        address _x2y2,\n        address _looksRare,\n        address _sudoswap\n    ) {\n        wyvernExchange = _wyvernExchange;\n        exchangeV2 = _exchangeV2;\n        seaPort = _seaPort;\n        x2y2 = _x2y2;\n        looksRare = _looksRare;\n        sudoswap = _sudoswap;\n    }\n\n    /**\n        @notice executes a single purchase\n        @param purchaseDetails - deatails about the purchase (more info in PurchaseDetails struct)\n        @param feeRecipientFirst - address of the first fee recipient\n        @param feeRecipientSecond - address of the second fee recipient\n     */\n    function singlePurchase(PurchaseDetails memory purchaseDetails, address feeRecipientFirst, address feeRecipientSecond) external payable {\n        requireNotPaused();\n\n        (bool success, uint feeAmountFirst, uint feeAmountSecond) = purchase(purchaseDetails, false);\n        emit Execution(success);\n        \n        transferFee(feeAmountFirst, feeRecipientFirst);\n        transferFee(feeAmountSecond, feeRecipientSecond);\n\n        transferChange();\n    }\n\n    /**\n        @notice executes an array of purchases\n        @param purchaseDetails - array of deatails about the purchases (more info in PurchaseDetails struct)\n        @param feeRecipientFirst - address of the first fee recipient\n        @param feeRecipientSecond - address of the second fee recipient\n        @param allowFail - true if fails while executing orders are allowed, false if fail of a single order means fail of the whole batch\n     */\n    \n    function bulkPurchase(PurchaseDetails[] memory purchaseDetails, address feeRecipientFirst, address feeRecipientSecond, bool allowFail) external payable {\n        requireNotPaused();\n\n        uint sumFirstFees = 0;\n        uint sumSecondFees = 0;\n        bool result = false;\n\n        for (uint i = 0; i < purchaseDetails.length; i++) {\n            (bool success, uint firstFeeAmount, uint secondFeeAmount) = purchase(purchaseDetails[i], allowFail);\n\n            result = result || success;\n            emit Execution(success);\n\n            sumFirstFees = sumFirstFees.add(firstFeeAmount);\n            sumSecondFees = sumSecondFees.add(secondFeeAmount);\n        }\n\n        require(result, \"no successful executions\");\n\n        transferFee(sumFirstFees, feeRecipientFirst);\n        transferFee(sumSecondFees, feeRecipientSecond);\n\n        transferChange();\n    }\n\n    /**\n        @notice executes one purchase\n        @param purchaseDetails - details about the purchase\n        @param allowFail - true if errors are handled, false if revert on errors\n        @return result false if execution failed, true if succeded\n        @return firstFeeAmount amount of the first fee of the purchase, 0 if failed\n        @return secondFeeAmount amount of the second fee of the purchase, 0 if failed\n     */\n    function purchase(PurchaseDetails memory purchaseDetails, bool allowFail) internal returns(bool, uint, uint) {\n        (bytes memory marketData, uint[] memory additionalRoyalties) = getDataAndAdditionalData (purchaseDetails.data, purchaseDetails.fees);\n        uint paymentAmount = purchaseDetails.amount;\n        if (purchaseDetails.marketId == Markets.SeaPort){\n            (bool success,) = address(seaPort).call{value : paymentAmount}(marketData);\n            if (allowFail) {\n                if (!success) {\n                    return (false, 0, 0);\n                }\n            } else {\n                require(success, \"Purchase SeaPort failed\");\n            }\n        } else if (purchaseDetails.marketId == Markets.WyvernExchange) {\n            (bool success,) = address(wyvernExchange).call{value : paymentAmount}(marketData);\n            if (allowFail) {\n                if (!success) {\n                    return (false, 0, 0);\n                }\n            } else {\n                require(success, \"Purchase wyvernExchange failed\");\n            }\n        } else if (purchaseDetails.marketId == Markets.ExchangeV2) {\n            (bool success,) = address(exchangeV2).call{value : paymentAmount}(marketData);\n            if (allowFail) {\n                if (!success) {\n                    return (false, 0, 0);\n                }\n            } else {\n                require(success, \"Purchase rarible failed\");\n            }\n        } else if (purchaseDetails.marketId == Markets.X2Y2) {\n            Ix2y2.RunInput memory input = abi.decode(marketData, (Ix2y2.RunInput));\n\n            if (allowFail) {\n                try Ix2y2(x2y2).run{value : paymentAmount}(input) {\n                } catch {\n                    return (false, 0, 0);\n                }\n            } else {\n                Ix2y2(x2y2).run{value : paymentAmount}(input);\n            }\n            for (uint i = 0; i < input.orders.length; i++) {\n                for (uint j = 0; j < input.orders[i].items.length; j++) {\n                    Ix2y2.Pair[] memory pairs = abi.decode(input.orders[i].items[j].data, (Ix2y2.Pair[]));\n                    for (uint256 k = 0; k < pairs.length; k++) {\n                        Ix2y2.Pair memory p = pairs[k];\n                        IERC721Upgradeable(address(p.token)).safeTransferFrom(address(this), _msgSender(), p.tokenId);\n                    }    \n                }\n            } \n        } else if (purchaseDetails.marketId == Markets.LooksRareOrders) {\n            (LibLooksRare.TakerOrder memory takerOrder, LibLooksRare.MakerOrder memory makerOrder, bytes4 typeNft) = abi.decode(marketData, (LibLooksRare.TakerOrder, LibLooksRare.MakerOrder, bytes4));\n            if (allowFail) {\n                try ILooksRare(looksRare).matchAskWithTakerBidUsingETHAndWETH{value : paymentAmount}(takerOrder, makerOrder) {\n                }   catch {\n                    return (false, 0, 0);\n                }\n            } else {\n                ILooksRare(looksRare).matchAskWithTakerBidUsingETHAndWETH{value : paymentAmount}(takerOrder, makerOrder);\n            }\n            if (typeNft == LibAsset.ERC721_ASSET_CLASS) {\n                IERC721Upgradeable(makerOrder.collection).safeTransferFrom(address(this), _msgSender(), makerOrder.tokenId);\n            } else if (typeNft == LibAsset.ERC1155_ASSET_CLASS) {\n                IERC1155Upgradeable(makerOrder.collection).safeTransferFrom(address(this), _msgSender(), makerOrder.tokenId, makerOrder.amount, \"\");\n            } else {\n                revert(\"Unknown token type\");\n            }\n        } else if (purchaseDetails.marketId == Markets.SudoSwap) {\n            (bool success,) = address(sudoswap).call{value : paymentAmount}(marketData);\n            if (allowFail) {\n                if (!success) {\n                    return (false, 0, 0);\n                }\n            } else {\n                require(success, \"Purchase sudoswap failed\");\n            }\n            transferAdditionalRoyalties(additionalRoyalties, purchaseDetails.amount);\n        } else {\n            revert(\"Unknown purchase details\");\n        }\n        \n        (uint firstFeeAmount, uint secondFeeAmount) = getFees(purchaseDetails.fees, purchaseDetails.amount);\n        return (true, firstFeeAmount, secondFeeAmount);\n    }\n\n    /**\n        @notice transfers fee to feeRecipient\n        @param feeAmount - amount to be transfered\n        @param feeRecipient - address of the recipient\n     */\n    function transferFee(uint feeAmount, address feeRecipient) internal {\n        if (feeAmount > 0 && feeRecipient != address(0)) {\n            LibTransfer.transferEth(feeRecipient, feeAmount);\n        }\n    }\n\n    /**\n        @notice transfers change back to sender\n     */\n    function transferChange() internal {\n        uint ethAmount = address(this).balance;\n        if (ethAmount > 0) {\n            address(msg.sender).transferEth(ethAmount);\n        }\n    }\n\n    /**\n        @notice parses fees in base points from one uint and calculates real amount of fees\n        @param fees two fees encoded in one uint, 29 and 30 bytes are used for the first fee, 31 and 32 bytes for second fee\n        @param amount price of the order\n        @return firstFeeAmount real amount for the first fee\n        @return secondFeeAmount real amount for the second fee\n     */\n    function getFees(uint fees, uint amount) internal pure returns(uint, uint) {\n        uint firstFee = uint(uint16(fees >> 16));\n        uint secondFee = uint(uint16(fees));\n        return (amount.bp(firstFee), amount.bp(secondFee));\n    }\n\n    /**\n        @notice parses _data to data for market call and additionalData\n        @param feesAndDataType 27 and 28 bytes for dataType\n        @return marketData data for market call\n        @return additionalRoyalties array uint256, (base point + address)\n     */\n    function getDataAndAdditionalData (bytes memory _data, uint feesAndDataType) internal pure returns (bytes memory, uint[] memory) {\n        AdditionalDataTypes dataType = AdditionalDataTypes(uint16(feesAndDataType >> 32));\n\n        if (dataType == AdditionalDataTypes.NoAdditionalData) {\n            uint[] memory additionalRoyalties;\n            return (_data, additionalRoyalties);\n        } else if (dataType == AdditionalDataTypes.RoyaltiesAdditionalData) {\n            AdditionalData memory additionalData = abi.decode(_data, (AdditionalData));\n            return (additionalData.data, additionalData.additionalRoyalties);\n        } else {\n            revert(\"unknown additionalDataType\");\n        }\n    }\n\n    /**\n        @notice transfer additional royalties\n        @param _additionalRoyalties array uint256 (base point + royalty recipient address)\n     */\n    function transferAdditionalRoyalties (uint[] memory _additionalRoyalties, uint amount) internal {\n        for (uint i = 0; i < _additionalRoyalties.length; i++) {\n            if (_additionalRoyalties[i] > 0) {\n                address payable account = payable(address(_additionalRoyalties[i]));\n                uint basePoint = uint(_additionalRoyalties[i] >> 160);\n                uint value = amount.bp(basePoint);\n                transferFee(value, account);\n            }\n        }\n    }\n\n    receive() external payable {}\n}",
  "sourcePath": "@rarible/exchange-wrapper/contracts/ExchangeWrapper.sol",
  "compiler": {
    "name": "solc",
    "version": "0.7.6+commit.7338295f.Emscripten.clang"
  },
  "schemaVersion": "3.4.3",
  "updatedAt": "2022-10-11T11:23:49.872Z",
  "networkType": "ethereum",
  "devdoc": {
    "kind": "dev",
    "methods": {
      "bulkPurchase((uint8,uint256,uint256,bytes)[],address,address,bool)": {
        "params": {
          "allowFail": "- true if fails while executing orders are allowed, false if fail of a single order means fail of the whole batch",
          "feeRecipientFirst": "- address of the first fee recipient",
          "feeRecipientSecond": "- address of the second fee recipient",
          "purchaseDetails": "- array of deatails about the purchases (more info in PurchaseDetails struct)"
        }
      },
      "onERC721Received(address,address,uint256,bytes)": {
        "details": "See {IERC721Receiver-onERC721Received}. Always returns `IERC721Receiver.onERC721Received.selector`."
      },
      "owner()": {
        "details": "Returns the address of the current owner."
      },
      "renounceOwnership()": {
        "details": "Leaves the contract without owner. It will not be possible to call `onlyOwner` functions anymore. Can only be called by the current owner. NOTE: Renouncing ownership will leave the contract without an owner, thereby removing any functionality that is only available to the owner."
      },
      "singlePurchase((uint8,uint256,uint256,bytes),address,address)": {
        "params": {
          "feeRecipientFirst": "- address of the first fee recipient",
          "feeRecipientSecond": "- address of the second fee recipient",
          "purchaseDetails": "- deatails about the purchase (more info in PurchaseDetails struct)"
        }
      },
      "supportsInterface(bytes4)": {
        "details": "See {IERC165-supportsInterface}. Time complexity O(1), guaranteed to always use less than 30 000 gas."
      },
      "transferOwnership(address)": {
        "details": "Transfers ownership of the contract to a new account (`newOwner`). Can only be called by the current owner."
      }
    },
    "version": 1
  },
  "userdoc": {
    "kind": "user",
    "methods": {
      "bulkPurchase((uint8,uint256,uint256,bytes)[],address,address,bool)": {
        "notice": "executes an array of purchases"
      },
      "singlePurchase((uint8,uint256,uint256,bytes),address,address)": {
        "notice": "executes a single purchase"
      }
    },
    "version": 1
  }
}