{
  "contractName": "ExchangeWrapper",
  "abi": [
    {
      "inputs": [
        {
          "internalType": "address",
          "name": "_wyvernExchange",
          "type": "address"
        },
        {
          "internalType": "address",
          "name": "_exchangeV2",
          "type": "address"
        },
        {
          "internalType": "address",
          "name": "_seaPort",
          "type": "address"
        },
        {
          "internalType": "address",
          "name": "_x2y2",
          "type": "address"
        },
        {
          "internalType": "address",
          "name": "_looksRare",
          "type": "address"
        },
        {
          "internalType": "address",
          "name": "_sudoswap",
          "type": "address"
        }
      ],
      "stateMutability": "nonpayable",
      "type": "constructor"
    },
    {
      "anonymous": false,
      "inputs": [
        {
          "indexed": false,
          "internalType": "bool",
          "name": "result",
          "type": "bool"
        }
      ],
      "name": "Execution",
      "type": "event"
    },
    {
      "anonymous": false,
      "inputs": [
        {
          "indexed": true,
          "internalType": "address",
          "name": "previousOwner",
          "type": "address"
        },
        {
          "indexed": true,
          "internalType": "address",
          "name": "newOwner",
          "type": "address"
        }
      ],
      "name": "OwnershipTransferred",
      "type": "event"
    },
    {
      "anonymous": false,
      "inputs": [
        {
          "indexed": false,
          "internalType": "bool",
          "name": "paused",
          "type": "bool"
        }
      ],
      "name": "Paused",
      "type": "event"
    },
    {
      "inputs": [],
      "name": "exchangeV2",
      "outputs": [
        {
          "internalType": "address",
          "name": "",
          "type": "address"
        }
      ],
      "stateMutability": "view",
      "type": "function"
    },
    {
      "inputs": [],
      "name": "looksRare",
      "outputs": [
        {
          "internalType": "address",
          "name": "",
          "type": "address"
        }
      ],
      "stateMutability": "view",
      "type": "function"
    },
    {
      "inputs": [
        {
          "internalType": "address",
          "name": "",
          "type": "address"
        },
        {
          "internalType": "address",
          "name": "",
          "type": "address"
        },
        {
          "internalType": "uint256[]",
          "name": "",
          "type": "uint256[]"
        },
        {
          "internalType": "uint256[]",
          "name": "",
          "type": "uint256[]"
        },
        {
          "internalType": "bytes",
          "name": "",
          "type": "bytes"
        }
      ],
      "name": "onERC1155BatchReceived",
      "outputs": [
        {
          "internalType": "bytes4",
          "name": "",
          "type": "bytes4"
        }
      ],
      "stateMutability": "nonpayable",
      "type": "function"
    },
    {
      "inputs": [
        {
          "internalType": "address",
          "name": "",
          "type": "address"
        },
        {
          "internalType": "address",
          "name": "",
          "type": "address"
        },
        {
          "internalType": "uint256",
          "name": "",
          "type": "uint256"
        },
        {
          "internalType": "uint256",
          "name": "",
          "type": "uint256"
        },
        {
          "internalType": "bytes",
          "name": "",
          "type": "bytes"
        }
      ],
      "name": "onERC1155Received",
      "outputs": [
        {
          "internalType": "bytes4",
          "name": "",
          "type": "bytes4"
        }
      ],
      "stateMutability": "nonpayable",
      "type": "function"
    },
    {
      "inputs": [
        {
          "internalType": "address",
          "name": "",
          "type": "address"
        },
        {
          "internalType": "address",
          "name": "",
          "type": "address"
        },
        {
          "internalType": "uint256",
          "name": "",
          "type": "uint256"
        },
        {
          "internalType": "bytes",
          "name": "",
          "type": "bytes"
        }
      ],
      "name": "onERC721Received",
      "outputs": [
        {
          "internalType": "bytes4",
          "name": "",
          "type": "bytes4"
        }
      ],
      "stateMutability": "nonpayable",
      "type": "function"
    },
    {
      "inputs": [],
      "name": "owner",
      "outputs": [
        {
          "internalType": "address",
          "name": "",
          "type": "address"
        }
      ],
      "stateMutability": "view",
      "type": "function"
    },
    {
      "inputs": [
        {
          "internalType": "bool",
          "name": "_paused",
          "type": "bool"
        }
      ],
      "name": "pause",
      "outputs": [],
      "stateMutability": "nonpayable",
      "type": "function"
    },
    {
      "inputs": [],
      "name": "paused",
      "outputs": [
        {
          "internalType": "bool",
          "name": "",
          "type": "bool"
        }
      ],
      "stateMutability": "view",
      "type": "function"
    },
    {
      "inputs": [],
      "name": "renounceOwnership",
      "outputs": [],
      "stateMutability": "nonpayable",
      "type": "function"
    },
    {
      "inputs": [],
      "name": "seaPort",
      "outputs": [
        {
          "internalType": "address",
          "name": "",
          "type": "address"
        }
      ],
      "stateMutability": "view",
      "type": "function"
    },
    {
      "inputs": [],
      "name": "sudoswap",
      "outputs": [
        {
          "internalType": "address",
          "name": "",
          "type": "address"
        }
      ],
      "stateMutability": "view",
      "type": "function"
    },
    {
      "inputs": [
        {
          "internalType": "bytes4",
          "name": "interfaceId",
          "type": "bytes4"
        }
      ],
      "name": "supportsInterface",
      "outputs": [
        {
          "internalType": "bool",
          "name": "",
          "type": "bool"
        }
      ],
      "stateMutability": "view",
      "type": "function"
    },
    {
      "inputs": [
        {
          "internalType": "address",
          "name": "newOwner",
          "type": "address"
        }
      ],
      "name": "transferOwnership",
      "outputs": [],
      "stateMutability": "nonpayable",
      "type": "function"
    },
    {
      "inputs": [],
      "name": "wyvernExchange",
      "outputs": [
        {
          "internalType": "address",
          "name": "",
          "type": "address"
        }
      ],
      "stateMutability": "view",
      "type": "function"
    },
    {
      "inputs": [],
      "name": "x2y2",
      "outputs": [
        {
          "internalType": "address",
          "name": "",
          "type": "address"
        }
      ],
      "stateMutability": "view",
      "type": "function"
    },
    {
      "stateMutability": "payable",
      "type": "receive"
    },
    {
      "inputs": [
        {
          "components": [
            {
              "internalType": "enum ExchangeWrapper.Markets",
              "name": "marketId",
              "type": "uint8"
            },
            {
              "internalType": "uint256",
              "name": "amount",
              "type": "uint256"
            },
            {
              "internalType": "uint256",
              "name": "fees",
              "type": "uint256"
            },
            {
              "internalType": "bytes",
              "name": "data",
              "type": "bytes"
            }
          ],
          "internalType": "struct ExchangeWrapper.PurchaseDetails",
          "name": "purchaseDetails",
          "type": "tuple"
        },
        {
          "internalType": "address",
          "name": "feeRecipientFirst",
          "type": "address"
        },
        {
          "internalType": "address",
          "name": "feeRecipientSecond",
          "type": "address"
        }
      ],
      "name": "singlePurchase",
      "outputs": [],
      "stateMutability": "payable",
      "type": "function"
    },
    {
      "inputs": [
        {
          "components": [
            {
              "internalType": "enum ExchangeWrapper.Markets",
              "name": "marketId",
              "type": "uint8"
            },
            {
              "internalType": "uint256",
              "name": "amount",
              "type": "uint256"
            },
            {
              "internalType": "uint256",
              "name": "fees",
              "type": "uint256"
            },
            {
              "internalType": "bytes",
              "name": "data",
              "type": "bytes"
            }
          ],
          "internalType": "struct ExchangeWrapper.PurchaseDetails[]",
          "name": "purchaseDetails",
          "type": "tuple[]"
        },
        {
          "internalType": "address",
          "name": "feeRecipientFirst",
          "type": "address"
        },
        {
          "internalType": "address",
          "name": "feeRecipientSecond",
          "type": "address"
        },
        {
          "internalType": "bool",
          "name": "allowFail",
          "type": "bool"
        }
      ],
      "name": "bulkPurchase",
      "outputs": [],
      "stateMutability": "payable",
      "type": "function"
    }
  ],
  "bytecode": "0x6101406040523480156200001257600080fd5b5060405162002f0f38038062002f0f833981016040819052620000359162000199565b600062000041620000f0565b600080546001600160a01b0319166001600160a01b0383169081178255604051929350917f8be0079c531659141344cd1fd0a4f28419497f9722a3daafe3b4186f6b6457e0908290a3506200009d6301ffc9a760e01b620000f4565b620000af630271189760e51b620000f4565b6001600160601b0319606096871b811660805294861b851660a05292851b841660c05290841b831660e052831b82166101005290911b166101205262000219565b3390565b6001600160e01b0319808216141562000154576040805162461bcd60e51b815260206004820152601c60248201527f4552433136353a20696e76616c696420696e7465726661636520696400000000604482015290519081900360640190fd5b6001600160e01b0319166000908152600160208190526040909120805460ff19169091179055565b80516001600160a01b03811681146200019457600080fd5b919050565b60008060008060008060c08789031215620001b2578182fd5b620001bd876200017c565b9550620001cd602088016200017c565b9450620001dd604088016200017c565b9350620001ed606088016200017c565b9250620001fd608088016200017c565b91506200020d60a088016200017c565b90509295509295509295565b60805160601c60a05160601c60c05160601c60e05160601c6101005160601c6101205160601c612c726200029d600039806103dc52806110d352508061056a5280610ea75280610f415250806108015280610b6e5280610c0452508061040052806108bc52508061058e5280610a6b5250806106b852806109995250612c726000f3fe6080604052600436106101025760003560e01c80638da5cb5b11610095578063bc197c8111610064578063bc197c8114610259578063c9f0a2fa14610279578063f23a6e611461028e578063f2fde38b146102ae578063fc40c9c7146102ce57610109565b80638da5cb5b146102075780639110c7771461021c578063a05f32dc14610231578063b94ee3321461024657610109565b80635ea1e4c9116100d15780635ea1e4c9146101a857806362c1a97d146101ca578063715018a6146101df57806386496e7a146101f457610109565b806301ffc9a71461010e57806302329a2914610144578063150b7a02146101665780635c975abb1461019357610109565b3661010957005b600080fd5b34801561011a57600080fd5b5061012e61012936600461209f565b6102e3565b60405161013b919061267e565b60405180910390f35b34801561015057600080fd5b5061016461015f366004612083565b610306565b005b34801561017257600080fd5b50610186610181366004611e29565b6103c1565b60405161013b9190612689565b34801561019f57600080fd5b5061012e6103d1565b3480156101b457600080fd5b506101bd6103da565b60405161013b919061260e565b3480156101d657600080fd5b506101bd6103fe565b3480156101eb57600080fd5b50610164610422565b6101646102023660046121af565b6104e0565b34801561021357600080fd5b506101bd610559565b34801561022857600080fd5b506101bd610568565b34801561023d57600080fd5b506101bd61058c565b610164610254366004611fc8565b6105b0565b34801561026557600080fd5b50610186610274366004611d80565b6106a5565b34801561028557600080fd5b506101bd6106b6565b34801561029a57600080fd5b506101866102a9366004611e92565b6106da565b3480156102ba57600080fd5b506101646102c9366004611d64565b6106eb565b3480156102da57600080fd5b506101bd6107ff565b6001600160e01b0319811660009081526001602052604090205460ff165b919050565b61030e610823565b6001600160a01b031661031f610559565b6001600160a01b03161461037a576040805162461bcd60e51b815260206004820181905260248201527f4f776e61626c653a2063616c6c6572206973206e6f7420746865206f776e6572604482015290519081900360640190fd5b6002805482151560ff19909116811790915560408051918252517f0e2fb031ee032dc02d8011dc50b816eb450cf856abd8261680dac74f72165bd29181900360200190a150565b630a85bd0160e11b949350505050565b60025460ff1681565b7f000000000000000000000000000000000000000000000000000000000000000081565b7f000000000000000000000000000000000000000000000000000000000000000081565b61042a610823565b6001600160a01b031661043b610559565b6001600160a01b031614610496576040805162461bcd60e51b815260206004820181905260248201527f4f776e61626c653a2063616c6c6572206973206e6f7420746865206f776e6572604482015290519081900360640190fd5b600080546040516001600160a01b03909116907f8be0079c531659141344cd1fd0a4f28419497f9722a3daafe3b4186f6b6457e0908390a3600080546001600160a01b0319169055565b6104e8610827565b60008060006104f886600061087a565b9250925092507fcc54b89ca2d75d5612023b14f0a477212b0e08bc0c5b8ad2804e2f8e2e401fc08360405161052d919061267e565b60405180910390a161053f82866111dd565b61054981856111dd565b610551611208565b505050505050565b6000546001600160a01b031690565b7f000000000000000000000000000000000000000000000000000000000000000081565b7f000000000000000000000000000000000000000000000000000000000000000081565b6105b8610827565b6000806000805b87518110156106595760008060006105ea8b85815181106105dc57fe5b60200260200101518961087a565b92509250925084806105f95750825b94507fcc54b89ca2d75d5612023b14f0a477212b0e08bc0c5b8ad2804e2f8e2e401fc08360405161062a919061267e565b60405180910390a161063c878361121c565b9650610648868261121c565b955050600190920191506105bf9050565b50806106805760405162461bcd60e51b815260040161067790612814565b60405180910390fd5b61068a83876111dd565b61069482866111dd565b61069c611208565b50505050505050565b63bc197c8160e01b95945050505050565b7f000000000000000000000000000000000000000000000000000000000000000081565b63f23a6e6160e01b95945050505050565b6106f3610823565b6001600160a01b0316610704610559565b6001600160a01b03161461075f576040805162461bcd60e51b815260206004820181905260248201527f4f776e61626c653a2063616c6c6572206973206e6f7420746865206f776e6572604482015290519081900360640190fd5b6001600160a01b0381166107a45760405162461bcd60e51b8152600401808060200182810382526026815260200180612bf66026913960400191505060405180910390fd5b600080546040516001600160a01b03808516939216917f8be0079c531659141344cd1fd0a4f28419497f9722a3daafe3b4186f6b6457e091a3600080546001600160a01b0319166001600160a01b0392909216919091179055565b7f000000000000000000000000000000000000000000000000000000000000000081565b3390565b60025460ff1615610878576040805162461bcd60e51b81526020600482015260166024820152751d1a194818dbdb9d1c9858dd081a5cc81c185d5cd95960521b604482015290519081900360640190fd5b565b600080600080600061089987606001518860400151896000015161127f565b602089015191935091506002885160058111156108b257fe5b14156109805760007f00000000000000000000000000000000000000000000000000000000000000006001600160a01b031682856040516108f391906125f2565b60006040518083038185875af1925050503d8060008114610930576040519150601f19603f3d011682016040523d82523d6000602084013e610935565b606091505b50509050871561095d5780610958576000806000965096509650505050506111d6565b61097a565b8061097a5760405162461bcd60e51b815260040161067790612743565b506111a4565b60018851600581111561098f57fe5b1415610a525760007f00000000000000000000000000000000000000000000000000000000000000006001600160a01b031682856040516109d091906125f2565b60006040518083038185875af1925050503d8060008114610a0d576040519150601f19603f3d011682016040523d82523d6000602084013e610a12565b606091505b505090508715610a355780610958576000806000965096509650505050506111d6565b8061097a5760405162461bcd60e51b81526004016106779061269e565b600088516005811115610a6157fe5b1415610b245760007f00000000000000000000000000000000000000000000000000000000000000006001600160a01b03168285604051610aa291906125f2565b60006040518083038185875af1925050503d8060008114610adf576040519150601f19603f3d011682016040523d82523d6000602084013e610ae4565b606091505b505090508715610b075780610958576000806000965096509650505050506111d6565b8061097a5760405162461bcd60e51b81526004016106779061270c565b600388516005811115610b3357fe5b1415610e5657600083806020019051810190610b4f9190612210565b90508715610bed5760405163357a150b60e01b81526001600160a01b037f0000000000000000000000000000000000000000000000000000000000000000169063357a150b908490610ba590859060040161284b565b6000604051808303818588803b158015610bbe57600080fd5b505af193505050508015610bd0575060015b610be8576000806000965096509650505050506111d6565b610c6e565b60405163357a150b60e01b81526001600160a01b037f0000000000000000000000000000000000000000000000000000000000000000169063357a150b908490610c3b90859060040161284b565b6000604051808303818588803b158015610c5457600080fd5b505af1158015610c68573d6000803e3d6000fd5b50505050505b60005b816020015151811015610e4f57600082602001518281518110610c9057fe5b6020026020010151602001519050600083602001518381518110610cb057fe5b6020026020010151604001519050600084600001518381518110610cd057fe5b602002602001015161010001518281518110610ce857fe5b6020026020010151602001519050600085600001518481518110610d0857fe5b602002602001015160e0015151118015610d3e5750600085602001518581518110610d2f57fe5b602002602001015160c0015151115b15610d8457610d848186602001518681518110610d5757fe5b602002602001015160c0015187600001518681518110610d7357fe5b602002602001015160e00151611338565b600081806020019051810190610d9a9190611ef8565b905060005b8151811015610e3e576000828281518110610db657fe5b6020026020010151905080600001516001600160a01b03166342842e0e30610ddc610823565b84602001516040518463ffffffff1660e01b8152600401610dff93929190612622565b600060405180830381600087803b158015610e1957600080fd5b505af1158015610e2d573d6000803e3d6000fd5b505060019093019250610d9f915050565b505060019093019250610c71915050565b50506111a4565b600488516005811115610e6557fe5b14156110ba57600080600085806020019051810190610e8491906122d8565b9250925092508915610f2a57604051635a72594b60e11b81526001600160a01b037f0000000000000000000000000000000000000000000000000000000000000000169063b4e4b296908690610ee090879087906004016129d2565b6000604051808303818588803b158015610ef957600080fd5b505af193505050508015610f0b575060015b610f255760008060009850985098505050505050506111d6565b610fad565b604051635a72594b60e11b81526001600160a01b037f0000000000000000000000000000000000000000000000000000000000000000169063b4e4b296908690610f7a90879087906004016129d2565b6000604051808303818588803b158015610f9357600080fd5b505af1158015610fa7573d6000803e3d6000fd5b50505050505b6001600160e01b031981166339d690a360e11b141561103c5781604001516001600160a01b03166342842e0e30610fe2610823565b85608001516040518463ffffffff1660e01b815260040161100593929190612622565b600060405180830381600087803b15801561101f57600080fd5b505af1158015611033573d6000803e3d6000fd5b505050506110b2565b6001600160e01b0319811663025ceed960e61b141561109a5781604001516001600160a01b031663f242432a30611071610823565b85608001518660a001516040518563ffffffff1660e01b81526004016110059493929190612646565b60405162461bcd60e51b8152600401610677906127b1565b5050506111a4565b6005885160058111156110c957fe5b141561118c5760007f00000000000000000000000000000000000000000000000000000000000000006001600160a01b0316828560405161110a91906125f2565b60006040518083038185875af1925050503d8060008114611147576040519150601f19603f3d011682016040523d82523d6000602084013e61114c565b606091505b50509050871561116f5780610958576000806000965096509650505050506111d6565b8061097a5760405162461bcd60e51b81526004016106779061277a565b60405162461bcd60e51b8152600401610677906126d5565b6111b28289602001516113c9565b6000806111c78a604001518b60200151611457565b60019950909750955050505050505b9250925092565b6000821180156111f557506001600160a01b03811615155b15611204576112048183611488565b5050565b478015611219576112193382611488565b50565b600082820183811015611276576040805162461bcd60e51b815260206004820152601b60248201527f536166654d6174683a206164646974696f6e206f766572666c6f770000000000604482015290519081900360640190fd5b90505b92915050565b6060806000602085901c61ffff16600181111561129857fe5b9050606060008260018111156112aa57fe5b14156112bc5786935091506113309050565b60018260018111156112ca57fe5b1415611318576000878060200190518101906112e691906120bb565b90506112f186611520565b1561130c578060000151816020015194509450505050611330565b51935091506113309050565b60405162461bcd60e51b8152600401610677906127dd565b935093915050565b815183511461134657600080fd5b805183511461135457600080fd5b60005b83518110156113c35781818151811061136c57fe5b01602001516001600160f81b031916156113bb5782818151811061138c57fe5b602001015160f81c60f81b8482815181106113a357fe5b60200101906001600160f81b031916908160001a9053505b600101611357565b50505050565b60005b82518110156114525760008382815181106113e357fe5b6020026020010151111561144a5760008382815181106113ff57fe5b60200260200101519050600060a085848151811061141957fe5b6020026020010151901c9050600061143a828661154690919063ffffffff16565b905061144681846111dd565b5050505b6001016113cc565b505050565b60008061ffff601085901c81169085166114718583611546565b61147b8683611546565b9350935050509250929050565b6040516000906001600160a01b0384169083908381818185875af1925050503d80600081146114d3576040519150601f19603f3d011682016040523d82523d6000602084013e6114d8565b606091505b5050905080611452576040805162461bcd60e51b815260206004820152600f60248201526e1d1c985b9cd9995c8819985a5b1959608a1b604482015290519081900360640190fd5b6000600582600581111561153057fe5b141561153e57506001610301565b506000919050565b6000611276612710611558858561155e565b906115b7565b60008261156d57506000611279565b8282028284828161157a57fe5b04146112765760405162461bcd60e51b8152600401808060200182810382526021815260200180612c1c6021913960400191505060405180910390fd5b600080821161160d576040805162461bcd60e51b815260206004820152601a60248201527f536166654d6174683a206469766973696f6e206279207a65726f000000000000604482015290519081900360640190fd5b81838161161657fe5b049392505050565b803561030181612bbc565b805161030181612bbc565b600082601f830112611644578081fd5b8151602061165961165483612b52565b612b2f565b82815281810190858301604080860288018501891015611677578687fd5b865b868110156116d25781838b03121561168f578788fd5b81518281018181106001600160401b03821117156116a957fe5b835283518152868401516116bc81612bbc565b8188015285529385019391810191600101611679565b509198975050505050505050565b600082601f8301126116f0578081fd5b8151602061170061165483612b52565b82815281810190858301855b858110156117895781518801604080601f19838d0301121561172c578889fd5b80518181016001600160401b03828210818311171561174757fe5b818452848a01518352928401519280841115611761578b8cfd5b50506117718c8984860101611ad4565b8189015286525050928401929084019060010161170c565b5090979650505050505050565b600082601f8301126117a6578081fd5b815160206117b661165483612b52565b82815281810190858301855b8581101561178957815188016101a080601f19838d030112156117e3578889fd5b6117ec81612b2f565b8783015181526117fe60408401611629565b88820152606083015160408201526080830151606082015260a0830151608082015260c083015160a082015261183660e08401611629565b60c08201526101008301516001600160401b0380821115611855578b8cfd5b6118638e8b84880101611ad4565b60e08401526101209150818501518181111561187d578c8dfd5b61188b8f8c838901016116e0565b6101008501525050610140808501518284015261016091508185015181840152506101806118ba818601611d53565b828401526118c9848601611d53565b90830152508652505092840192908401906001016117c2565b600082601f8301126118f2578081fd5b8151602061190261165483612b52565b82815281810190858301855b85811015611789578151880161016080601f19838d0301121561192f578889fd5b61193881612b2f565b611943888401611b1f565b8152604083015188820152606083015160408201526080830151606082015260a080840151608083015260c061197a818601611629565b8284015260e085015191506001600160401b0380831115611999578c8dfd5b6119a78f8c85890101611ad4565b8285015261010092508286015160e08501526101209150818601518385015261014092508286015182850152848601519450808511156119e5578c8dfd5b50506119f58d8a85870101611634565b9082015286525050928401929084019060010161190e565b600082601f830112611a1d578081fd5b81356020611a2d61165483612b52565b8281528181019085830183850287018401881015611a49578586fd5b855b8581101561178957813584529284019290840190600101611a4b565b803561030181612bd1565b805161030181612bd1565b805161030181612bdf565b600082601f830112611a98578081fd5b8135611aa661165482612b6f565b818152846020838601011115611aba578283fd5b816020850160208301379081016020019190915292915050565b600082601f830112611ae4578081fd5b8151611af261165482612b6f565b818152846020838601011115611b06578283fd5b611b17826020830160208701612b90565b949350505050565b80516008811061030157600080fd5b6000610200808385031215611b41578182fd5b611b4a81612b2f565b915050611b5682611a72565b8152611b6460208301611629565b6020820152611b7560408301611629565b6040820152606082015160608201526080820151608082015260a082015160a0820152611ba460c08301611629565b60c0820152611bb560e08301611629565b60e08201526101008281015190820152610120808301519082015261014080830151908201526101608083015190820152610180808301516001600160401b03811115611c0157600080fd5b611c0d85828601611ad4565b8284015250506101a0611c21818401611d53565b908201526101c082810151908201526101e09182015191810191909152919050565b600060808284031215611c54578081fd5b604051608081016001600160401b038282108183111715611c7157fe5b816040528293508435915060068210611c8957600080fd5b81835260208501356020840152604085013560408401526060850135915080821115611cb457600080fd5b50611cc185828601611a88565b6060830152505092915050565b600060c08284031215611cdf578081fd5b60405160c081018181106001600160401b0382111715611cfb57fe5b8060405250809150825181526020830151602082015260408301516040820152606083015160608201526080830151611d3381612bbc565b608082015260a0830151611d4681612bd1565b60a0919091015292915050565b805160ff8116811461030157600080fd5b600060208284031215611d75578081fd5b813561127681612bbc565b600080600080600060a08688031215611d97578081fd5b8535611da281612bbc565b94506020860135611db281612bbc565b935060408601356001600160401b0380821115611dcd578283fd5b611dd989838a01611a0d565b94506060880135915080821115611dee578283fd5b611dfa89838a01611a0d565b93506080880135915080821115611e0f578283fd5b50611e1c88828901611a88565b9150509295509295909350565b60008060008060808587031215611e3e578182fd5b8435611e4981612bbc565b93506020850135611e5981612bbc565b92506040850135915060608501356001600160401b03811115611e7a578182fd5b611e8687828801611a88565b91505092959194509250565b600080600080600060a08688031215611ea9578283fd5b8535611eb481612bbc565b94506020860135611ec481612bbc565b9350604086013592506060860135915060808601356001600160401b03811115611eec578182fd5b611e1c88828901611a88565b60006020808385031215611f0a578182fd5b82516001600160401b0380821115611f20578384fd5b818501915085601f830112611f33578384fd5b8151611f4161165482612b52565b818152848101908486016040808502870188018b1015611f5f578889fd5b8896505b84871015611fb95780828c031215611f79578889fd5b80518181018181108882111715611f8c57fe5b82528251611f9981612bbc565b815282890151898201528452600196909601959287019290810190611f63565b50909998505050505050505050565b60008060008060808587031215611fdd578182fd5b84356001600160401b03811115611ff2578283fd5b8501601f81018713612002578283fd5b8035602061201261165483612b52565b82815281810190848301875b85811015612047576120358d8684358a0101611c43565b8452928401929084019060010161201e565b5050809850505061205981890161161e565b955050505061206a6040860161161e565b915061207860608601611a67565b905092959194509250565b600060208284031215612094578081fd5b813561127681612bd1565b6000602082840312156120b0578081fd5b813561127681612bdf565b600060208083850312156120cd578182fd5b82516001600160401b03808211156120e3578384fd5b90840190604082870312156120f6578384fd5b60405160408101818110838211171561210b57fe5b60405282518281111561211c578586fd5b61212888828601611ad4565b825250838301518281111561213b578586fd5b80840193505086601f84011261214f578485fd5b8251915061215f61165483612b52565b82815284810190848601868502860187018a101561217b578788fd5b8795505b8486101561219d57805183526001959095019491860191860161217f565b50948201949094529695505050505050565b6000806000606084860312156121c3578081fd5b83356001600160401b038111156121d8578182fd5b6121e486828701611c43565b93505060208401356121f581612bbc565b9150604084013561220581612bbc565b809150509250925092565b600060208284031215612221578081fd5b81516001600160401b0380821115612237578283fd5b90830190610160828603121561224b578283fd5b61225560c0612b2f565b825182811115612263578485fd5b61226f87828601611796565b825250602083015182811115612283578485fd5b61228f878286016118e2565b6020830152506122a28660408501611cce565b6040820152610100830151606082015261012083015160808201526122ca6101408401611d53565b60a082015295945050505050565b6000806000606084860312156122ec578081fd5b83516001600160401b0380821115612302578283fd5b9085019060c08288031215612315578283fd5b60405160c08101818110838211171561232a57fe5b60405261233683611a72565b815261234460208401611629565b602082015260408301516040820152606083015160608201526080830151608082015260a083015182811115612378578485fd5b61238489828601611ad4565b60a08301525060208701519095509150808211156123a0578283fd5b506123ad86828701611b2e565b9250506123bc60408501611a7d565b90509250925092565b6001600160a01b03169052565b6000815180845260208085019450808401835b83811015612415578151805188528301516001600160a01b031683880152604090960195908201906001016123e5565b509495945050505050565b60008282518085526020808601955080818302840101818601855b8481101561178957858303601f1901895281518051845284015160408585018190526124698186018361256f565b9a86019a945050509083019060010161243b565b6000815180845260208085018081965082840281019150828601855b8581101561255c57828403895281516101606124b686835161259b565b818701518688015260408083015190870152606080830151908701526080808301519087015260a0808301516124ee828901826123c5565b505060c08083015182828901526125078389018261256f565b60e085810151908a015261010080860151908a015261012080860151908a015261014094850151898203958a019590955292506125489150829050836123d2565b9a87019a9550505090840190600101612499565b5091979650505050505050565b15159052565b60008151808452612587816020860160208601612b90565b601f01601f19169290920160200192915050565b600881106125a557fe5b9052565b805182526020808201519083015260408082015190830152606080820151908301526080808201516001600160a01b03169083015260a0908101511515910152565b60ff169052565b60008251612604818460208701612b90565b9190910192915050565b6001600160a01b0391909116815260200190565b6001600160a01b039384168152919092166020820152604081019190915260600190565b6001600160a01b0394851681529290931660208301526040820152606081019190915260a06080820181905260009082015260c00190565b901515815260200190565b6001600160e01b031991909116815260200190565b6020808252601e908201527f50757263686173652077797665726e45786368616e6765206661696c65640000604082015260600190565b60208082526018908201527f556e6b6e6f776e2070757263686173652064657461696c730000000000000000604082015260600190565b60208082526017908201527f50757263686173652072617269626c65206661696c6564000000000000000000604082015260600190565b60208082526017908201527f507572636861736520536561506f7274206661696c6564000000000000000000604082015260600190565b60208082526018908201527f5075726368617365207375646f73776170206661696c65640000000000000000604082015260600190565b602080825260129082015271556e6b6e6f776e20746f6b656e207479706560701b604082015260600190565b6020808252601a908201527f756e6b6e6f776e206164646974696f6e616c4461746154797065000000000000604082015260600190565b60208082526018908201527f6e6f207375636365737366756c20657865637574696f6e730000000000000000604082015260600190565b60006020808352610180808401855161016080858801528282518085526101a094508489019150848782028a01018785019450885b82811015612968578a820361019f19018452855180518352898101516128a88b8501826123c5565b5060408181015190840152606080820151908401526080808201519084015260a0808201519084015260c0808201516128e3828601826123c5565b505060e08082015189828601526128fc8a86018261256f565b91505061010080830151858303828701526129178382612420565b9250505061012080830151818601525061014080830151818601525086820151612943888601826125eb565b509089015190612955848b01836125eb565b968a0196948a0194925050600101612880565b50968a0151898803601f190160408b015296612984818961247d565b97505050506040880151935061299d60608801856125a9565b6060880151610120880152608088015161014088015260a088015193506129c6818801856125eb565b50929695505050505050565b60006040825261010084511515604084015260018060a01b03602086015116606084015260408501516080840152606085015160a0840152608085015160c084015260a085015160c060e0850152612a2c8285018261256f565b90508381036020850152610200612a44828751612569565b6020860151612a5660208401826123c5565b506040860151612a6960408401826123c5565b50606086015160608301526080860151608083015260a086015160a083015260c0860151612a9a60c08401826123c5565b5060e0860151612aad60e08401826123c5565b50858301519282019290925261012080860151908201526101408086015190820152610160808601519082015261018080860151818301849052909290612af68284018261256f565b935050506101a080860151612b0d828401826125eb565b50506101c085810151908201526101e094850151940193909352509092915050565b6040518181016001600160401b0381118282101715612b4a57fe5b604052919050565b60006001600160401b03821115612b6557fe5b5060209081020190565b60006001600160401b03821115612b8257fe5b50601f01601f191660200190565b60005b83811015612bab578181015183820152602001612b93565b838111156113c35750506000910152565b6001600160a01b038116811461121957600080fd5b801515811461121957600080fd5b6001600160e01b03198116811461121957600080fdfe4f776e61626c653a206e6577206f776e657220697320746865207a65726f2061646472657373536166654d6174683a206d756c7469706c69636174696f6e206f766572666c6f77a2646970667358221220da5013ecf033bcb0984dbf425934292859e545fa9bae4f4c47176a8d36b6482564736f6c63430007060033",
  "immutableReferences": {
    "10991": [
      {
        "length": 32,
        "start": 1720
      },
      {
        "length": 32,
        "start": 2457
      }
    ],
    "10993": [
      {
        "length": 32,
        "start": 1422
      },
      {
        "length": 32,
        "start": 2667
      }
    ],
    "10995": [
      {
        "length": 32,
        "start": 1024
      },
      {
        "length": 32,
        "start": 2236
      }
    ],
    "10997": [
      {
        "length": 32,
        "start": 2049
      },
      {
        "length": 32,
        "start": 2926
      },
      {
        "length": 32,
        "start": 3076
      }
    ],
    "10999": [
      {
        "length": 32,
        "start": 1386
      },
      {
        "length": 32,
        "start": 3751
      },
      {
        "length": 32,
        "start": 3905
      }
    ],
    "11001": [
      {
        "length": 32,
        "start": 988
      },
      {
        "length": 32,
        "start": 4307
      }
    ]
  },
  "source": "// SPDX-License-Identifier: MIT\n\npragma solidity 0.7.6;\npragma abicoder v2;\n\nimport \"@rarible/transfer-manager/contracts/lib/LibTransfer.sol\";\nimport \"@rarible/lib-bp/contracts/BpLibrary.sol\";\nimport \"@rarible/lib-part/contracts/LibPart.sol\";\n\nimport \"@openzeppelin/contracts/math/SafeMath.sol\";\n\nimport \"@openzeppelin/contracts/token/ERC721/ERC721Holder.sol\";\nimport \"@openzeppelin/contracts/token/ERC1155/ERC1155Holder.sol\";\n\nimport \"./interfaces/IWyvernExchange.sol\";\nimport \"./interfaces/IExchangeV2.sol\";\nimport \"./interfaces/ISeaPort.sol\";\nimport \"./interfaces/Ix2y2.sol\";\nimport \"./interfaces/ILooksRare.sol\";\n\nimport \"./libraries/IsPausable.sol\";\n\ncontract ExchangeWrapper is Ownable, ERC721Holder, ERC1155Holder, IsPausable {\n    using LibTransfer for address;\n    using BpLibrary for uint;\n    using SafeMath for uint;\n\n    address public immutable wyvernExchange;\n    address public immutable exchangeV2;\n    address public immutable seaPort;\n    address public immutable x2y2;\n    address public immutable looksRare;\n    address public immutable sudoswap;\n\n    event Execution(bool result);\n\n    enum Markets {\n        ExchangeV2,\n        WyvernExchange,\n        SeaPort,\n        X2Y2,\n        LooksRareOrders,\n        SudoSwap\n    }\n\n    enum AdditionalDataTypes {\n        NoAdditionalData,\n        RoyaltiesAdditionalData\n    }\n\n    /**\n        @notice struct for the purchase data\n        @param marketId - market key from Markets enum (what market to use)\n        @param amount - eth price (amount of eth that needs to be send to the marketplace)\n        @param fees - 2 fees (in base points) that are going to be taken on top of order amount encoded in 1 uint256\n                        bytes (27,28) used for dataType\n                        bytes (29,30) used for the first value (goes to feeRecipientFirst)\n                        bytes (31,32) are used for the second value (goes to feeRecipientSecond)\n        @param data - data for market call\n     */\n    struct PurchaseDetails {\n        Markets marketId;\n        uint256 amount;\n        uint fees;\n        bytes data;\n    }\n\n    /**\n        @notice struct for the data with additional Ddta\n        @param data - data for market call\n        @param additionalRoyalties - array additional Royalties (in base points plus address Royalty recipient)\n     */\n    struct AdditionalData {\n        bytes data;\n        uint[] additionalRoyalties;\n    }\n\n    constructor(\n        address _wyvernExchange,\n        address _exchangeV2,\n        address _seaPort,\n        address _x2y2,\n        address _looksRare,\n        address _sudoswap\n    ) {\n        wyvernExchange = _wyvernExchange;\n        exchangeV2 = _exchangeV2;\n        seaPort = _seaPort;\n        x2y2 = _x2y2;\n        looksRare = _looksRare;\n        sudoswap = _sudoswap;\n    }\n\n    /**\n        @notice executes a single purchase\n        @param purchaseDetails - deatails about the purchase (more info in PurchaseDetails struct)\n        @param feeRecipientFirst - address of the first fee recipient\n        @param feeRecipientSecond - address of the second fee recipient\n     */\n    function singlePurchase(PurchaseDetails memory purchaseDetails, address feeRecipientFirst, address feeRecipientSecond) external payable {\n        requireNotPaused();\n\n        (bool success, uint feeAmountFirst, uint feeAmountSecond) = purchase(purchaseDetails, false);\n        emit Execution(success);\n        \n        transferFee(feeAmountFirst, feeRecipientFirst);\n        transferFee(feeAmountSecond, feeRecipientSecond);\n\n        transferChange();\n    }\n\n    /**\n        @notice executes an array of purchases\n        @param purchaseDetails - array of deatails about the purchases (more info in PurchaseDetails struct)\n        @param feeRecipientFirst - address of the first fee recipient\n        @param feeRecipientSecond - address of the second fee recipient\n        @param allowFail - true if fails while executing orders are allowed, false if fail of a single order means fail of the whole batch\n     */\n    \n    function bulkPurchase(PurchaseDetails[] memory purchaseDetails, address feeRecipientFirst, address feeRecipientSecond, bool allowFail) external payable {\n        requireNotPaused();\n\n        uint sumFirstFees = 0;\n        uint sumSecondFees = 0;\n        bool result = false;\n\n        for (uint i = 0; i < purchaseDetails.length; i++) {\n            (bool success, uint firstFeeAmount, uint secondFeeAmount) = purchase(purchaseDetails[i], allowFail);\n\n            result = result || success;\n            emit Execution(success);\n\n            sumFirstFees = sumFirstFees.add(firstFeeAmount);\n            sumSecondFees = sumSecondFees.add(secondFeeAmount);\n        }\n\n        require(result, \"no successful executions\");\n\n        transferFee(sumFirstFees, feeRecipientFirst);\n        transferFee(sumSecondFees, feeRecipientSecond);\n\n        transferChange();\n    }\n\n    /**\n        @notice executes one purchase\n        @param purchaseDetails - details about the purchase\n        @param allowFail - true if errors are handled, false if revert on errors\n        @return result false if execution failed, true if succeded\n        @return firstFeeAmount amount of the first fee of the purchase, 0 if failed\n        @return secondFeeAmount amount of the second fee of the purchase, 0 if failed\n     */\n    function purchase(PurchaseDetails memory purchaseDetails, bool allowFail) internal returns(bool, uint, uint) {\n        (bytes memory marketData, uint[] memory additionalRoyalties) = getDataAndAdditionalData (purchaseDetails.data, purchaseDetails.fees, purchaseDetails.marketId);\n        uint paymentAmount = purchaseDetails.amount;\n        if (purchaseDetails.marketId == Markets.SeaPort){\n            (bool success,) = address(seaPort).call{value : paymentAmount}(marketData);\n            if (allowFail) {\n                if (!success) {\n                    return (false, 0, 0);\n                }\n            } else {\n                require(success, \"Purchase SeaPort failed\");\n            }\n        } else if (purchaseDetails.marketId == Markets.WyvernExchange) {\n            (bool success,) = address(wyvernExchange).call{value : paymentAmount}(marketData);\n            if (allowFail) {\n                if (!success) {\n                    return (false, 0, 0);\n                }\n            } else {\n                require(success, \"Purchase wyvernExchange failed\");\n            }\n        } else if (purchaseDetails.marketId == Markets.ExchangeV2) {\n            (bool success,) = address(exchangeV2).call{value : paymentAmount}(marketData);\n            if (allowFail) {\n                if (!success) {\n                    return (false, 0, 0);\n                }\n            } else {\n                require(success, \"Purchase rarible failed\");\n            }\n        } else if (purchaseDetails.marketId == Markets.X2Y2) {\n            Ix2y2.RunInput memory input = abi.decode(marketData, (Ix2y2.RunInput));\n\n            if (allowFail) {\n                try Ix2y2(x2y2).run{value : paymentAmount}(input) {\n                } catch {\n                    return (false, 0, 0);\n                }\n            } else {\n                Ix2y2(x2y2).run{value : paymentAmount}(input);\n            }\n\n            //for every element in input.details[] getting\n            // order = input.details[i].orderIdx\n            // and from that order getting item = input.details[i].itemId\n            for (uint i = 0; i < input.details.length; i++) {\n                uint orderId = input.details[i].orderIdx;\n                uint itemId = input.details[i].itemIdx;\n                bytes memory data = input.orders[orderId].items[itemId].data;\n                {\n                    if (input.orders[orderId].dataMask.length > 0 && input.details[i].dataReplacement.length > 0) {\n                        _arrayReplace(data, input.details[i].dataReplacement, input.orders[orderId].dataMask);\n                    }\n                }\n                Ix2y2.Pair[] memory pairs = abi.decode(data, (Ix2y2.Pair[]));\n\n                for (uint256 j = 0; j < pairs.length; j++) {\n                    Ix2y2.Pair memory p = pairs[j];\n                    IERC721Upgradeable(address(p.token)).safeTransferFrom(address(this), _msgSender(), p.tokenId);\n                }\n            }\n        } else if (purchaseDetails.marketId == Markets.LooksRareOrders) {\n            (LibLooksRare.TakerOrder memory takerOrder, LibLooksRare.MakerOrder memory makerOrder, bytes4 typeNft) = abi.decode(marketData, (LibLooksRare.TakerOrder, LibLooksRare.MakerOrder, bytes4));\n            if (allowFail) {\n                try ILooksRare(looksRare).matchAskWithTakerBidUsingETHAndWETH{value : paymentAmount}(takerOrder, makerOrder) {\n                }   catch {\n                    return (false, 0, 0);\n                }\n            } else {\n                ILooksRare(looksRare).matchAskWithTakerBidUsingETHAndWETH{value : paymentAmount}(takerOrder, makerOrder);\n            }\n            if (typeNft == LibAsset.ERC721_ASSET_CLASS) {\n                IERC721Upgradeable(makerOrder.collection).safeTransferFrom(address(this), _msgSender(), makerOrder.tokenId);\n            } else if (typeNft == LibAsset.ERC1155_ASSET_CLASS) {\n                IERC1155Upgradeable(makerOrder.collection).safeTransferFrom(address(this), _msgSender(), makerOrder.tokenId, makerOrder.amount, \"\");\n            } else {\n                revert(\"Unknown token type\");\n            }\n        } else if (purchaseDetails.marketId == Markets.SudoSwap) {\n            (bool success,) = address(sudoswap).call{value : paymentAmount}(marketData);\n            if (allowFail) {\n                if (!success) {\n                    return (false, 0, 0);\n                }\n            } else {\n                require(success, \"Purchase sudoswap failed\");\n            }\n        } else {\n            revert(\"Unknown purchase details\");\n        }\n\n        //transferring royalties\n        transferAdditionalRoyalties(additionalRoyalties, purchaseDetails.amount);\n        \n        (uint firstFeeAmount, uint secondFeeAmount) = getFees(purchaseDetails.fees, purchaseDetails.amount);\n        return (true, firstFeeAmount, secondFeeAmount);\n    }\n\n    /**\n        @notice transfers fee to feeRecipient\n        @param feeAmount - amount to be transfered\n        @param feeRecipient - address of the recipient\n     */\n    function transferFee(uint feeAmount, address feeRecipient) internal {\n        if (feeAmount > 0 && feeRecipient != address(0)) {\n            LibTransfer.transferEth(feeRecipient, feeAmount);\n        }\n    }\n\n    /**\n        @notice transfers change back to sender\n     */\n    function transferChange() internal {\n        uint ethAmount = address(this).balance;\n        if (ethAmount > 0) {\n            address(msg.sender).transferEth(ethAmount);\n        }\n    }\n\n    /**\n        @notice parses fees in base points from one uint and calculates real amount of fees\n        @param fees two fees encoded in one uint, 29 and 30 bytes are used for the first fee, 31 and 32 bytes for second fee\n        @param amount price of the order\n        @return firstFeeAmount real amount for the first fee\n        @return secondFeeAmount real amount for the second fee\n     */\n    function getFees(uint fees, uint amount) internal pure returns(uint, uint) {\n        uint firstFee = uint(uint16(fees >> 16));\n        uint secondFee = uint(uint16(fees));\n        return (amount.bp(firstFee), amount.bp(secondFee));\n    }\n\n    /**\n        @notice parses _data to data for market call and additionalData\n        @param feesAndDataType 27 and 28 bytes for dataType\n        @return marketData data for market call\n        @return additionalRoyalties array uint256, (base point + address)\n     */\n    function getDataAndAdditionalData (bytes memory _data, uint feesAndDataType, Markets marketId) internal pure returns (bytes memory, uint[] memory) {\n        AdditionalDataTypes dataType = AdditionalDataTypes(uint16(feesAndDataType >> 32));\n        uint[] memory additionalRoyalties;\n\n        //return no royalties if wrong data type\n        if (dataType == AdditionalDataTypes.NoAdditionalData) {\n            return (_data, additionalRoyalties);\n        }\n\n        if (dataType == AdditionalDataTypes.RoyaltiesAdditionalData) {\n            AdditionalData memory additionalData = abi.decode(_data, (AdditionalData));\n\n            //return no royalties if market doesn't support royalties\n            if (supportsRoyalties(marketId)) {\n                return (additionalData.data, additionalData.additionalRoyalties);\n            } else {\n                return (additionalData.data, additionalRoyalties);\n            } \n        }\n        \n        revert(\"unknown additionalDataType\");\n    }\n\n    /**\n        @notice transfer additional royalties\n        @param _additionalRoyalties array uint256 (base point + royalty recipient address)\n     */\n    function transferAdditionalRoyalties (uint[] memory _additionalRoyalties, uint amount) internal {\n        for (uint i = 0; i < _additionalRoyalties.length; i++) {\n            if (_additionalRoyalties[i] > 0) {\n                address payable account = payable(address(_additionalRoyalties[i]));\n                uint basePoint = uint(_additionalRoyalties[i] >> 160);\n                uint value = amount.bp(basePoint);\n                transferFee(value, account);\n            }\n        }\n    }\n\n    // modifies `src`\n    function _arrayReplace(\n        bytes memory src,\n        bytes memory replacement,\n        bytes memory mask\n    ) internal view virtual {\n        require(src.length == replacement.length);\n        require(src.length == mask.length);\n\n        for (uint256 i = 0; i < src.length; i++) {\n            if (mask[i] != 0) {\n                src[i] = replacement[i];\n            }\n        }\n    }\n\n    /**\n        @notice returns true if this contract supports additional royalties for the marketpale\n        now royalties support only for marketId = sudoswap\n    */\n    function supportsRoyalties(Markets marketId) internal pure returns (bool){\n        if (marketId == Markets.SudoSwap) {\n            return true;\n        }\n\n        return false;\n    }\n\n    receive() external payable {}\n}",
  "sourcePath": "@rarible/exchange-wrapper/contracts/ExchangeWrapper.sol",
  "compiler": {
    "name": "solc",
    "version": "0.7.6+commit.7338295f.Emscripten.clang"
  },
  "schemaVersion": "3.4.3",
  "updatedAt": "2022-10-19T15:56:19.128Z",
  "devdoc": {
    "kind": "dev",
    "methods": {
      "bulkPurchase((uint8,uint256,uint256,bytes)[],address,address,bool)": {
        "params": {
          "allowFail": "- true if fails while executing orders are allowed, false if fail of a single order means fail of the whole batch",
          "feeRecipientFirst": "- address of the first fee recipient",
          "feeRecipientSecond": "- address of the second fee recipient",
          "purchaseDetails": "- array of deatails about the purchases (more info in PurchaseDetails struct)"
        }
      },
      "onERC721Received(address,address,uint256,bytes)": {
        "details": "See {IERC721Receiver-onERC721Received}. Always returns `IERC721Receiver.onERC721Received.selector`."
      },
      "owner()": {
        "details": "Returns the address of the current owner."
      },
      "renounceOwnership()": {
        "details": "Leaves the contract without owner. It will not be possible to call `onlyOwner` functions anymore. Can only be called by the current owner. NOTE: Renouncing ownership will leave the contract without an owner, thereby removing any functionality that is only available to the owner."
      },
      "singlePurchase((uint8,uint256,uint256,bytes),address,address)": {
        "params": {
          "feeRecipientFirst": "- address of the first fee recipient",
          "feeRecipientSecond": "- address of the second fee recipient",
          "purchaseDetails": "- deatails about the purchase (more info in PurchaseDetails struct)"
        }
      },
      "supportsInterface(bytes4)": {
        "details": "See {IERC165-supportsInterface}. Time complexity O(1), guaranteed to always use less than 30 000 gas."
      },
      "transferOwnership(address)": {
        "details": "Transfers ownership of the contract to a new account (`newOwner`). Can only be called by the current owner."
      }
    },
    "version": 1
  },
  "userdoc": {
    "kind": "user",
    "methods": {
      "bulkPurchase((uint8,uint256,uint256,bytes)[],address,address,bool)": {
        "notice": "executes an array of purchases"
      },
      "singlePurchase((uint8,uint256,uint256,bytes),address,address)": {
        "notice": "executes a single purchase"
      }
    },
    "version": 1
  }
}