{
  "contractName": "ExchangeWrapper",
  "abi": [
    {
      "anonymous": false,
      "inputs": [
        {
          "indexed": true,
          "internalType": "address",
          "name": "previousOwner",
          "type": "address"
        },
        {
          "indexed": true,
          "internalType": "address",
          "name": "newOwner",
          "type": "address"
        }
      ],
      "name": "OwnershipTransferred",
      "type": "event"
    },
    {
      "inputs": [],
      "name": "exchangeV2",
      "outputs": [
        {
          "internalType": "contract IExchangeV2",
          "name": "",
          "type": "address"
        }
      ],
      "stateMutability": "view",
      "type": "function",
      "constant": true
    },
    {
      "inputs": [],
      "name": "owner",
      "outputs": [
        {
          "internalType": "address",
          "name": "",
          "type": "address"
        }
      ],
      "stateMutability": "view",
      "type": "function",
      "constant": true
    },
    {
      "inputs": [],
      "name": "renounceOwnership",
      "outputs": [],
      "stateMutability": "nonpayable",
      "type": "function"
    },
    {
      "inputs": [],
      "name": "seaPort",
      "outputs": [
        {
          "internalType": "contract ISeaPort",
          "name": "",
          "type": "address"
        }
      ],
      "stateMutability": "view",
      "type": "function",
      "constant": true
    },
    {
      "inputs": [
        {
          "internalType": "address",
          "name": "newOwner",
          "type": "address"
        }
      ],
      "name": "transferOwnership",
      "outputs": [],
      "stateMutability": "nonpayable",
      "type": "function"
    },
    {
      "inputs": [],
      "name": "wyvernExchange",
      "outputs": [
        {
          "internalType": "contract IWyvernExchange",
          "name": "",
          "type": "address"
        }
      ],
      "stateMutability": "view",
      "type": "function",
      "constant": true
    },
    {
      "stateMutability": "payable",
      "type": "receive",
      "payable": true
    },
    {
      "inputs": [
        {
          "internalType": "contract IWyvernExchange",
          "name": "_wyvernExchange",
          "type": "address"
        },
        {
          "internalType": "contract IExchangeV2",
          "name": "_exchangeV2",
          "type": "address"
        },
        {
          "internalType": "contract ISeaPort",
          "name": "_seaPort",
          "type": "address"
        }
      ],
      "name": "__ExchangeWrapper_init",
      "outputs": [],
      "stateMutability": "nonpayable",
      "type": "function"
    },
    {
      "inputs": [
        {
          "internalType": "contract IWyvernExchange",
          "name": "_wyvernExchange",
          "type": "address"
        }
      ],
      "name": "setWyvern",
      "outputs": [],
      "stateMutability": "nonpayable",
      "type": "function"
    },
    {
      "inputs": [
        {
          "internalType": "contract IExchangeV2",
          "name": "_exchangeV2",
          "type": "address"
        }
      ],
      "name": "setExchange",
      "outputs": [],
      "stateMutability": "nonpayable",
      "type": "function"
    },
    {
      "inputs": [
        {
          "internalType": "contract ISeaPort",
          "name": "_seaPort",
          "type": "address"
        }
      ],
      "name": "setSeaPort",
      "outputs": [],
      "stateMutability": "nonpayable",
      "type": "function"
    },
    {
      "inputs": [
        {
          "components": [
            {
              "internalType": "enum ExchangeWrapper.Markets",
              "name": "marketId",
              "type": "uint8"
            },
            {
              "internalType": "uint256",
              "name": "amount",
              "type": "uint256"
            },
            {
              "internalType": "bytes",
              "name": "data",
              "type": "bytes"
            }
          ],
          "internalType": "struct ExchangeWrapper.PurchaseDetails",
          "name": "purchaseDetails",
          "type": "tuple"
        },
        {
          "internalType": "uint256[]",
          "name": "fees",
          "type": "uint256[]"
        }
      ],
      "name": "singlePurchase",
      "outputs": [],
      "stateMutability": "payable",
      "type": "function",
      "payable": true
    },
    {
      "inputs": [
        {
          "components": [
            {
              "internalType": "enum ExchangeWrapper.Markets",
              "name": "marketId",
              "type": "uint8"
            },
            {
              "internalType": "uint256",
              "name": "amount",
              "type": "uint256"
            },
            {
              "internalType": "bytes",
              "name": "data",
              "type": "bytes"
            }
          ],
          "internalType": "struct ExchangeWrapper.PurchaseDetails[]",
          "name": "purchaseDetails",
          "type": "tuple[]"
        },
        {
          "internalType": "uint256[]",
          "name": "fees",
          "type": "uint256[]"
        }
      ],
      "name": "bulkPurchase",
      "outputs": [],
      "stateMutability": "payable",
      "type": "function",
      "payable": true
    },
    {
      "inputs": [
        {
          "internalType": "address",
          "name": "",
          "type": "address"
        },
        {
          "internalType": "address",
          "name": "",
          "type": "address"
        },
        {
          "internalType": "uint256",
          "name": "",
          "type": "uint256"
        },
        {
          "internalType": "uint256",
          "name": "",
          "type": "uint256"
        },
        {
          "internalType": "bytes",
          "name": "",
          "type": "bytes"
        }
      ],
      "name": "onERC1155Received",
      "outputs": [
        {
          "internalType": "bytes4",
          "name": "",
          "type": "bytes4"
        }
      ],
      "stateMutability": "nonpayable",
      "type": "function"
    }
  ],
  "bytecode": "0x608060405234801561001057600080fd5b50611fd8806100206000396000f3fe6080604052600436106100c65760003560e01c806383758e981161007f578063c9f0a2fa11610059578063c9f0a2fa146101c4578063f23a6e61146101d9578063f2fde38b14610206578063fe7daf1714610226576100cd565b806383758e981461017a5780638da5cb5b1461019a578063a05f32dc146101af576100cd565b806346eb8753146100d257806355b0126d146100f457806362c1a97d1461010757806367b1f5df14610132578063715018a6146101525780637ad2607e14610167576100cd565b366100cd57005b600080fd5b3480156100de57600080fd5b506100f26100ed3660046115a1565b610246565b005b6100f26101023660046114d1565b610338565b34801561011357600080fd5b5061011c61037f565b6040516101299190611ae1565b60405180910390f35b34801561013e57600080fd5b506100f261014d366004611441565b61038e565b34801561015e57600080fd5b506100f2610412565b6100f2610175366004611896565b6104be565b34801561018657600080fd5b506100f2610195366004611441565b6104d1565b3480156101a657600080fd5b5061011c610555565b3480156101bb57600080fd5b5061011c610564565b3480156101d057600080fd5b5061011c610573565b3480156101e557600080fd5b506101f96101f436600461145d565b610582565b6040516101299190611b51565b34801561021257600080fd5b506100f2610221366004611441565b610593565b34801561023257600080fd5b506100f2610241366004611441565b610696565b600054610100900460ff168061025f575061025f61071a565b8061026d575060005460ff16155b6102a85760405162461bcd60e51b815260040180806020018281038252602e815260200180611f34602e913960400191505060405180910390fd5b600054610100900460ff161580156102d3576000805460ff1961ff0019909116610100171660011790555b6102db61072b565b6102e36107cd565b606580546001600160a01b038087166001600160a01b0319928316179092556066805486841690831617905560678054928516929091169190911790558015610332576000805461ff00191690555b50505050565b60005b82518110156103685761036083828151811061035357fe5b60200260200101516108c6565b60010161033b565b506103733482610c57565b61037b610ccb565b5050565b6067546001600160a01b031681565b610396610ced565b6001600160a01b03166103a7610555565b6001600160a01b0316146103f0576040805162461bcd60e51b81526020600482018190526024820152600080516020611f83833981519152604482015290519081900360640190fd5b606680546001600160a01b0319166001600160a01b0392909216919091179055565b61041a610ced565b6001600160a01b031661042b610555565b6001600160a01b031614610474576040805162461bcd60e51b81526020600482018190526024820152600080516020611f83833981519152604482015290519081900360640190fd5b6033546040516000916001600160a01b0316907f8be0079c531659141344cd1fd0a4f28419497f9722a3daafe3b4186f6b6457e0908390a3603380546001600160a01b0319169055565b6104c7826108c6565b6103733482610c57565b6104d9610ced565b6001600160a01b03166104ea610555565b6001600160a01b031614610533576040805162461bcd60e51b81526020600482018190526024820152600080516020611f83833981519152604482015290519081900360640190fd5b606580546001600160a01b0319166001600160a01b0392909216919091179055565b6033546001600160a01b031690565b6066546001600160a01b031681565b6065546001600160a01b031681565b63f23a6e6160e01b95945050505050565b61059b610ced565b6001600160a01b03166105ac610555565b6001600160a01b0316146105f5576040805162461bcd60e51b81526020600482018190526024820152600080516020611f83833981519152604482015290519081900360640190fd5b6001600160a01b03811661063a5760405162461bcd60e51b8152600401808060200182810382526026815260200180611f0e6026913960400191505060405180910390fd5b6033546040516001600160a01b038084169216907f8be0079c531659141344cd1fd0a4f28419497f9722a3daafe3b4186f6b6457e090600090a3603380546001600160a01b0319166001600160a01b0392909216919091179055565b61069e610ced565b6001600160a01b03166106af610555565b6001600160a01b0316146106f8576040805162461bcd60e51b81526020600482018190526024820152600080516020611f83833981519152604482015290519081900360640190fd5b606780546001600160a01b0319166001600160a01b0392909216919091179055565b600061072530610cf1565b15905090565b600054610100900460ff1680610744575061074461071a565b80610752575060005460ff16155b61078d5760405162461bcd60e51b815260040180806020018281038252602e815260200180611f34602e913960400191505060405180910390fd5b600054610100900460ff161580156107b8576000805460ff1961ff0019909116610100171660011790555b80156107ca576000805461ff00191690555b50565b600054610100900460ff16806107e657506107e661071a565b806107f4575060005460ff16155b61082f5760405162461bcd60e51b815260040180806020018281038252602e815260200180611f34602e913960400191505060405180910390fd5b600054610100900460ff1615801561085a576000805460ff1961ff0019909116610100171660011790555b6000610864610ced565b603380546001600160a01b0319166001600160a01b038316908117909155604051919250906000907f8be0079c531659141344cd1fd0a4f28419497f9722a3daafe3b4186f6b6457e0908290a35080156107ca576000805461ff001916905550565b60208101516002825160038111156108da57fe5b14156109765760675460408084015190516000926001600160a01b03169184916109049190611ac5565b60006040518083038185875af1925050503d8060008114610941576040519150601f19603f3d011682016040523d82523d6000602084013e610946565b606091505b50509050806109705760405162461bcd60e51b815260040161096790611c15565b60405180910390fd5b5061037b565b60038251600381111561098557fe5b1415610b5f5760008083604001518060200190518101906109a691906115eb565b60675460405163fb0f3ee160e01b81529294509092506000916001600160a01b039091169063fb0f3ee19086906109e1908790600401611c9e565b6020604051808303818588803b1580156109fa57600080fd5b505af1158015610a0e573d6000803e3d6000fd5b50505050506040513d601f19601f82011682018060405250810190610a339190611581565b905080610a525760405162461bcd60e51b815260040161096790611b66565b6001600160e01b031982166339d690a360e11b1415610ae1578260a001516001600160a01b03166342842e0e30610a87610ced565b8660c001516040518463ffffffff1660e01b8152600401610aaa93929190611af5565b600060405180830381600087803b158015610ac457600080fd5b505af1158015610ad8573d6000803e3d6000fd5b50505050610b57565b6001600160e01b0319821663025ceed960e61b1415610b3f578260a001516001600160a01b031663f242432a30610b16610ced565b8660c001518760e001516040518563ffffffff1660e01b8152600401610aaa9493929190611b19565b60405162461bcd60e51b815260040161096790611c5a565b50505061037b565b600182516003811115610b6e57fe5b1415610bfb5760655460408084015190516000926001600160a01b0316918491610b989190611ac5565b60006040518083038185875af1925050503d8060008114610bd5576040519150601f19603f3d011682016040523d82523d6000602084013e610bda565b606091505b50509050806109705760405162461bcd60e51b815260040161096790611ba7565b600082516003811115610c0a57fe5b1415610c3f5760008060008460400151806020019051810190610c2d919061175f565b925092509250610b5783838684610cfb565b60405162461bcd60e51b815260040161096790611bde565b6000610c638347610e79565b905060005b8251811015610332576000610c9d60a0858481518110610c8457fe5b6020026020010151901c84610edb90919063ffffffff16565b90508015610cc257610cc2848381518110610cb457fe5b602002602001015182610efa565b50600101610c68565b4780156107ca576107ca81610cde610ced565b6001600160a01b031690610efa565b3390565b803b15155b919050565b610d03611057565b3081526060858101516020808401919091528087015151918301805192909252905101829052604080516001808252818301909252600091816020015b610d486110c2565b815260200190600190039081610d40579050509050610d65610ced565b81600081518110610d7257fe5b6020026020010151600001906001600160a01b031690816001600160a01b03168152505061271081600081518110610da657fe5b6020908102919091018101516bffffffffffffffffffffffff909216910152610dcd6110d9565b818152604051610de1908290602001611dc4565b60408051601f198184030181529181526101008501919091526323d235ef60e01b60e085015260665490516301d3347f60e71b81526060916001600160a01b03169063e99a3f80908890610e3d908c908c908a90600401611e16565b6000604051808303818588803b158015610e5657600080fd5b505af1158015610e6a573d6000803e3d6000fd5b50505050505050505050505050565b600082821115610ed0576040805162461bcd60e51b815260206004820152601e60248201527f536166654d6174683a207375627472616374696f6e206f766572666c6f770000604482015290519081900360640190fd5b508082035b92915050565b6000610ef3612710610eed8585610f97565b90610ff0565b9392505050565b6040516000906001600160a01b0384169083908381818185875af1925050503d8060008114610f45576040519150601f19603f3d011682016040523d82523d6000602084013e610f4a565b606091505b5050905080610f92576040805162461bcd60e51b815260206004820152600f60248201526e1d1c985b9cd9995c8819985a5b1959608a1b604482015290519081900360640190fd5b505050565b600082610fa657506000610ed5565b82820282848281610fb357fe5b0414610ef35760405162461bcd60e51b8152600401808060200182810382526021815260200180611f626021913960400191505060405180910390fd5b6000808211611046576040805162461bcd60e51b815260206004820152601a60248201527f536166654d6174683a206469766973696f6e206279207a65726f000000000000604482015290519081900360640190fd5b81838161104f57fe5b049392505050565b60405180610120016040528060006001600160a01b0316815260200161107b6110fc565b81526000602082015260400161108f6110fc565b815260200160008152602001600081526020016000815260200160006001600160e01b0319168152602001606081525090565b604080518082019091526000808252602082015290565b604051806060016040528060608152602001606081526020016000151581525090565b604051806040016040528061110f61111c565b8152602001600081525090565b60408051808201909152600081526060602082015290565b8051610cf681611ef8565b600082601f83011261114f578081fd5b8151602061116461115f83611e8c565b611e68565b82815281810190858301604080860288018501891015611182578687fd5b865b868110156111de5781838b03121561119a578788fd5b815182810181811067ffffffffffffffff821117156111b557fe5b835283518152868401516111c881611ef8565b8188015285529385019391810191600101611184565b509198975050505050505050565b600082601f8301126111fc578081fd5b8135602061120c61115f83611e8c565b8281528181019085830183850287018401881015611228578586fd5b855b858110156112465781358452928401929084019060010161122a565b5090979650505050505050565b80516001600160e01b031981168114610cf657600080fd5b600082601f83011261127b578081fd5b813561128961115f82611eaa565b81815284602083860101111561129d578283fd5b816020850160208301379081016020019190915292915050565b600082601f8301126112c7578081fd5b81516112d561115f82611eaa565b8181528460208386010111156112e9578283fd5b6112fa826020830160208701611ecc565b949350505050565b805160188110610cf657600080fd5b60006040808385031215611323578182fd5b805181810167ffffffffffffffff828210818311171561133f57fe5b81845282945085518181111561135457600080fd5b860180880385131561136557600080fd5b60808401838110838211171561137757fe5b855261138281611253565b8352602081015194508185111561139857600080fd5b6113a4888683016112b7565b60608501525050815260209384015193019290925292915050565b6000606082840312156113d0578081fd5b6040516060810167ffffffffffffffff82821081831117156113ee57fe5b81604052829350843591506004821061140657600080fd5b81835260208501356020840152604085013591508082111561142757600080fd5b506114348582860161126b565b6040830152505092915050565b600060208284031215611452578081fd5b8135610ef381611ef8565b600080600080600060a08688031215611474578081fd5b853561147f81611ef8565b9450602086013561148f81611ef8565b93506040860135925060608601359150608086013567ffffffffffffffff8111156114b8578182fd5b6114c48882890161126b565b9150509295509295909350565b600080604083850312156114e3578182fd5b823567ffffffffffffffff808211156114fa578384fd5b818501915085601f83011261150d578384fd5b8135602061151d61115f83611e8c565b82815281810190858301885b85811015611552576115408c8684358b01016113bf565b84529284019290840190600101611529565b5090975050508601359250508082111561156a578283fd5b50611577858286016111ec565b9150509250929050565b600060208284031215611592578081fd5b81518015158114610ef3578182fd5b6000806000606084860312156115b5578081fd5b83356115c081611ef8565b925060208401356115d081611ef8565b915060408401356115e081611ef8565b809150509250925092565b600080604083850312156115fd578182fd5b825167ffffffffffffffff80821115611614578384fd5b818501915061024080838803121561162a578485fd5b61163381611e68565b905061163e83611134565b8152602083015160208201526040830151604082015261166060608401611134565b606082015261167160808401611134565b608082015261168260a08401611134565b60a082015260c083015160c082015260e083015160e08201526101006116a9818501611302565b9082015261012083810151908201526101408084015190820152610160808401519082015261018080840151908201526101a080840151908201526101c080840151908201526101e08084015190820152610200808401518381111561170d578687fd5b6117198982870161113f565b8284015250506102208084015183811115611732578687fd5b61173e898287016112b7565b82840152505080945050505061175660208401611253565b90509250929050565b600080600060608486031215611773578081fd5b835167ffffffffffffffff8082111561178a578283fd5b81860191506101208083890312156117a0578384fd5b6117a981611e68565b90506117b483611134565b81526020830151828111156117c7578485fd5b6117d389828601611311565b6020830152506117e560408401611134565b60408201526060830151828111156117fb578485fd5b61180789828601611311565b6060830152506080830151608082015260a083015160a082015260c083015160c082015261183760e08401611253565b60e0820152610100808401518381111561184f578586fd5b61185b8a8287016112b7565b828401525050809550506020860151915080821115611878578283fd5b50611885868287016112b7565b925050604084015190509250925092565b600080604083850312156118a8578182fd5b823567ffffffffffffffff808211156118bf578384fd5b6118cb868387016113bf565b9350602085013591508082111561156a578283fd5b6001600160a01b03169052565b6000815180845260208085019450808401835b83811015611930578151805188528301516001600160a01b03168388015260409096019590820190600101611900565b509495945050505050565b6000815180845260208085019450808401835b8381101561193057815180516001600160a01b031688528301516bffffffffffffffffffffffff16838801526040909601959082019060010161194e565b6001600160e01b0319169052565b600081518084526119b2816020860160208601611ecc565b601f01601f19169290920160200192915050565b601881106119d057fe5b9052565b600081516040845263ffffffff60e01b81511660408501526020810151905060406060850152611a07608085018261199a565b602093840151949093019390935250919050565b6000610120611a2b8484516118e0565b6020830151816020860152611a42828601826119d4565b9150506040830151611a5760408601826118e0565b5060608301518482036060860152611a6f82826119d4565b9150506080830151608085015260a083015160a085015260c083015160c085015260e0830151611aa260e086018261198c565b506101008084015185830382870152611abb838261199a565b9695505050505050565b60008251611ad7818460208701611ecc565b9190910192915050565b6001600160a01b0391909116815260200190565b6001600160a01b039384168152919092166020820152604081019190915260600190565b6001600160a01b0394851681529290931660208301526040820152606081019190915260a06080820181905260009082015260c00190565b6001600160e01b031991909116815260200190565b60208082526021908201527f507572636861736520536561506f727442617369634f72646572206661696c656040820152601960fa1b606082015260800190565b6020808252601e908201527f50757263686173652077797665726e45786368616e6765206661696c65640000604082015260600190565b60208082526018908201527f556e6b6e6f776e2070757263686173652064657461696c730000000000000000604082015260600190565b60208082526025908201527f507572636861736520536561506f7274416476616e6365644f72646572732066604082015264185a5b195960da1b606082015260800190565b60208082526024908201527f556e6b6e6f776e204261736963536561506f7274206f66666572546f6b656e206040820152637479706560e01b606082015260800190565b600060208252611cb26020830184516118e0565b60208301516040830152604083015160608301526060830151611cd860808401826118e0565b506080830151611ceb60a08401826118e0565b5060a0830151611cfe60c08401826118e0565b5060c083015160e083015260e0830151610100818185015280850151915050610120611d2c818501836119c6565b8401516101408481019190915284015161016080850191909152840151610180808501919091528401516101a0808501919091528401516101c0808501919091528401516101e0808501919091528401516102008085019190915284015161024061022080860182905291925090611da86102608601846118ed565b90860151858203601f190183870152909250611abb838261199a565b600060208252825160606020840152611de0608084018261193b565b90506020840151601f19848303016040850152611dfd828261193b565b9150506040840151151560608401528091505092915050565b600060808252611e296080830186611a1b565b8281036020840152611e3b818661199a565b90508281036040840152611e4f8185611a1b565b8381036060909401939093525081526020019392505050565b60405181810167ffffffffffffffff81118282101715611e8457fe5b604052919050565b600067ffffffffffffffff821115611ea057fe5b5060209081020190565b600067ffffffffffffffff821115611ebe57fe5b50601f01601f191660200190565b60005b83811015611ee7578181015183820152602001611ecf565b838111156103325750506000910152565b6001600160a01b03811681146107ca57600080fdfe4f776e61626c653a206e6577206f776e657220697320746865207a65726f2061646472657373496e697469616c697a61626c653a20636f6e747261637420697320616c726561647920696e697469616c697a6564536166654d6174683a206d756c7469706c69636174696f6e206f766572666c6f774f776e61626c653a2063616c6c6572206973206e6f7420746865206f776e6572a264697066735822122060732853bfefc57a55f8b2a1eba7bdc3d108170d9977e909e7cddde611312ada64736f6c63430007060033",
  "immutableReferences": {},
  "source": "// SPDX-License-Identifier: MIT\n\npragma solidity 0.7.6;\npragma abicoder v2;\n\nimport \"@rarible/transfer-manager/contracts/lib/LibTransfer.sol\";\nimport \"@rarible/lib-bp/contracts/BpLibrary.sol\";\nimport \"@openzeppelin/contracts-upgradeable/access/OwnableUpgradeable.sol\";\nimport \"./interfaces/IWyvernExchange.sol\";\nimport \"./interfaces/IExchangeV2.sol\";\nimport \"./interfaces/ISeaPort.sol\";\nimport \"@rarible/lib-part/contracts/LibPart.sol\";\nimport \"@openzeppelin/contracts-upgradeable/token/ERC721/IERC721Upgradeable.sol\";\nimport \"@openzeppelin/contracts-upgradeable/token/ERC1155/IERC1155Upgradeable.sol\";\n\ncontract ExchangeWrapper is OwnableUpgradeable {\n    using LibTransfer for address;\n    using BpLibrary for uint;\n    using SafeMathUpgradeable for uint;\n\n    IWyvernExchange public wyvernExchange;\n    IExchangeV2 public exchangeV2;\n    ISeaPort public seaPort;\n\n    enum Markets {\n        ExchangeV2,\n        WyvernExchange,\n        SeaPortAdvancedOrders,\n        SeaPortBasicOrders\n    }\n\n    struct PurchaseDetails {\n        Markets marketId;\n        uint256 amount;\n        bytes data;\n    }\n\n    function __ExchangeWrapper_init(\n        IWyvernExchange _wyvernExchange,\n        IExchangeV2 _exchangeV2,\n        ISeaPort _seaPort\n    ) external initializer {\n        __Context_init_unchained();\n        __Ownable_init_unchained();\n        wyvernExchange = _wyvernExchange;\n        exchangeV2 = _exchangeV2;\n        seaPort = _seaPort;\n    }\n\n    function setWyvern(IWyvernExchange _wyvernExchange) external onlyOwner {\n        wyvernExchange = _wyvernExchange;\n    }\n\n    function setExchange(IExchangeV2 _exchangeV2) external onlyOwner {\n        exchangeV2 = _exchangeV2;\n    }\n\n    function setSeaPort(ISeaPort _seaPort) external onlyOwner {\n        seaPort = _seaPort;\n    }\n\n    function singlePurchase(PurchaseDetails memory purchaseDetails, uint[] memory fees) external payable {\n        purchase(purchaseDetails);\n\n        feesTransfer(msg.value, fees);\n\n        changeTransfer();\n    }\n\n    function bulkPurchase(PurchaseDetails[] memory purchaseDetails, uint[] memory fees) external payable {\n        for (uint i = 0; i < purchaseDetails.length; i++) {\n            purchase(purchaseDetails[i]);\n        }\n\n        feesTransfer(msg.value, fees);\n\n        changeTransfer();\n    }\n\n    function purchase(PurchaseDetails memory purchaseDetails) internal {\n        uint paymentAmount = purchaseDetails.amount;\n        if (purchaseDetails.marketId == Markets.SeaPortAdvancedOrders){\n            (bool success,) = address(seaPort).call{value : paymentAmount}(purchaseDetails.data);\n            require(success, \"Purchase SeaPortAdvancedOrders failed\");\n        } else if (purchaseDetails.marketId == Markets.SeaPortBasicOrders) {\n            (LibSeaPort.BasicOrderParameters memory seaPortBasic, bytes4 typeNft) = abi.decode(purchaseDetails.data, (LibSeaPort.BasicOrderParameters, bytes4));\n            bool success = ISeaPort(seaPort).fulfillBasicOrder{value : paymentAmount}(seaPortBasic);\n            require(success, \"Purchase SeaPortBasicOrder failed\");\n            if (typeNft == LibAsset.ERC721_ASSET_CLASS) {\n                IERC721Upgradeable(seaPortBasic.offerToken).safeTransferFrom(address(this), _msgSender(), seaPortBasic.offerIdentifier);\n            } else if (typeNft == LibAsset.ERC1155_ASSET_CLASS) {\n                IERC1155Upgradeable(seaPortBasic.offerToken).safeTransferFrom(address(this), _msgSender(), seaPortBasic.offerIdentifier, seaPortBasic.offerAmount, \"\");\n            } else {\n                revert(\"Unknown BasicSeaPort offerToken type\");\n            }\n        } else if (purchaseDetails.marketId == Markets.WyvernExchange) {\n            (bool success,) = address(wyvernExchange).call{value : paymentAmount}(purchaseDetails.data);\n            require(success, \"Purchase wyvernExchange failed\");\n        } else if (purchaseDetails.marketId == Markets.ExchangeV2) {\n            (LibOrder.Order memory sellOrder, bytes memory sellOrderSignature, uint purchaseAmount) = abi.decode(purchaseDetails.data, (LibOrder.Order, bytes, uint));\n            matchExchangeV2(sellOrder, sellOrderSignature, paymentAmount, purchaseAmount);\n        } else {\n            revert(\"Unknown purchase details\");\n        }\n    }\n\n    function feesTransfer(uint amount, uint[] memory fees) internal {\n        uint spent = amount.sub(address(this).balance);\n        for (uint i = 0; i < fees.length; i++) {\n            uint feeValue = spent.bp(uint(fees[i] >> 160));\n            if (feeValue > 0) {\n                LibTransfer.transferEth(address(fees[i]), feeValue);\n            }\n        }\n    }\n\n    function changeTransfer() internal {\n        uint ethAmount = address(this).balance;\n        if (ethAmount > 0) {\n            address(_msgSender()).transferEth(ethAmount);\n        }\n    }\n\n    /*Transfer by ExchangeV2 sellOrder is in input, buyOrder is generated inside method */\n    function matchExchangeV2(\n        LibOrder.Order memory sellOrder,\n        bytes memory sellOrderSignature,\n        uint paymentAmount,\n        uint purchaseAmount\n    ) internal {\n        LibOrder.Order memory buyerOrder;\n        buyerOrder.maker = address(this);\n        buyerOrder.makeAsset = sellOrder.takeAsset;\n        buyerOrder.takeAsset.assetType = sellOrder.makeAsset.assetType;\n        buyerOrder.takeAsset.value = purchaseAmount;\n\n        /*set buyer in payout*/\n        LibPart.Part[] memory payout = new LibPart.Part[](1);\n        payout[0].account = _msgSender();\n        payout[0].value = 10000;\n        LibOrderDataV2.DataV2 memory data;\n        data.payouts = payout;\n        buyerOrder.data = abi.encode(data);\n        buyerOrder.dataType = bytes4(keccak256(\"V2\"));\n\n        bytes memory buyOrderSignature; //empty signature is enough for buyerOrder\n\n        IExchangeV2(exchangeV2).matchOrders{value : paymentAmount }(sellOrder, sellOrderSignature, buyerOrder, \"\");\n    }\n\n    //this method need to prevent error ERC1155: transfer to non ERC1155Receiver implementer\n    function onERC1155Received(address, address, uint256, uint256, bytes memory) public virtual returns (bytes4) {\n        return this.onERC1155Received.selector;\n    }\n\n    receive() external payable {}\n}",
  "sourcePath": "@rarible/exchange-wrapper/contracts/ExchangeWrapper.sol",
  "compiler": {
    "name": "solc",
    "version": "0.7.6+commit.7338295f.Emscripten.clang"
  },
  "schemaVersion": "3.4.3",
  "updatedAt": "2022-07-26T06:51:36.871Z",
  "networkType": "ethereum",
  "devdoc": {
    "kind": "dev",
    "methods": {
      "owner()": {
        "details": "Returns the address of the current owner."
      },
      "renounceOwnership()": {
        "details": "Leaves the contract without owner. It will not be possible to call `onlyOwner` functions anymore. Can only be called by the current owner. NOTE: Renouncing ownership will leave the contract without an owner, thereby removing any functionality that is only available to the owner."
      },
      "transferOwnership(address)": {
        "details": "Transfers ownership of the contract to a new account (`newOwner`). Can only be called by the current owner."
      }
    },
    "version": 1
  },
  "userdoc": {
    "kind": "user",
    "methods": {},
    "version": 1
  }
}