{
  "contractName": "LibAsset",
  "abi": [
    {
      "inputs": [],
      "name": "ERC1155_ASSET_CLASS",
      "outputs": [
        {
          "internalType": "bytes4",
          "name": "",
          "type": "bytes4"
        }
      ],
      "stateMutability": "view",
      "type": "function"
    },
    {
      "inputs": [],
      "name": "ERC20_ASSET_CLASS",
      "outputs": [
        {
          "internalType": "bytes4",
          "name": "",
          "type": "bytes4"
        }
      ],
      "stateMutability": "view",
      "type": "function"
    },
    {
      "inputs": [],
      "name": "ERC721_ASSET_CLASS",
      "outputs": [
        {
          "internalType": "bytes4",
          "name": "",
          "type": "bytes4"
        }
      ],
      "stateMutability": "view",
      "type": "function"
    },
    {
      "inputs": [],
      "name": "ETH_ASSET_CLASS",
      "outputs": [
        {
          "internalType": "bytes4",
          "name": "",
          "type": "bytes4"
        }
      ],
      "stateMutability": "view",
      "type": "function"
    }
  ],
  "bytecode": "0x61015e610026600b82828239805160001a60731461001957fe5b30600052607381538281f3fe73000000000000000000000000000000000000000030146080604052600436106100565760003560e01c8063405bf2751461005b5780636cd2c30a14610080578063b4797da214610088578063c214be5914610090575b600080fd5b610063610098565b604080516001600160e01b03199092168252519081900360200190f35b6100636100bc565b6100636100e0565b610063610104565b7f973bb64086f173ec8099b7ed3d43da984f4a332e4417a08bc6a286e6402b058681565b7f8ae85d849167ff996c04040c44924fd364217285e4cad818292c7ac37c0a345b81565b7faaaebeba3810b1e6b70781f14b2d72c1cb89c0b2b320c43bb67ff79f562f5ff481565b7f73ad2146b3d3a286642c794379d750360a2d53a3459a11b3e5d6cc900f55f44a8156fea26469706673582212204aefe784e0ea73616739d723391cb1e40c1c8746dac6710a4ece70f70e72e7a664736f6c63430007060033",
  "immutableReferences": {},
  "source": "// SPDX-License-Identifier: MIT\n\npragma solidity 0.7.6;\n\nlibrary LibAsset {\n    bytes4 constant public ETH_ASSET_CLASS = bytes4(keccak256(\"ETH\"));\n    bytes4 constant public ERC20_ASSET_CLASS = bytes4(keccak256(\"ERC20\"));\n    bytes4 constant public ERC721_ASSET_CLASS = bytes4(keccak256(\"ERC721\"));\n    bytes4 constant public ERC1155_ASSET_CLASS = bytes4(keccak256(\"ERC1155\"));\n\n    bytes32 constant ASSET_TYPE_TYPEHASH = keccak256(\n        \"AssetType(bytes4 assetClass,bytes data)\"\n    );\n\n    bytes32 constant ASSET_TYPEHASH = keccak256(\n        \"Asset(AssetType assetType,uint256 value)AssetType(bytes4 assetClass,bytes data)\"\n    );\n\n    struct AssetType {\n        bytes4 assetClass;\n        bytes data;\n    }\n\n    struct Asset {\n        AssetType assetType;\n        uint value;\n    }\n\n    function hash(AssetType memory assetType) internal pure returns (bytes32) {\n        return keccak256(abi.encode(\n                ASSET_TYPE_TYPEHASH,\n                assetType.assetClass,\n                keccak256(assetType.data)\n            ));\n    }\n\n    function hash(Asset memory asset) internal pure returns (bytes32) {\n        return keccak256(abi.encode(\n                ASSET_TYPEHASH,\n                hash(asset.assetType),\n                asset.value\n            ));\n    }\n\n}\n",
  "sourcePath": "@rarible/lib-asset/contracts/LibAsset.sol",
  "compiler": {
    "name": "solc",
    "version": "0.7.6+commit.7338295f.Emscripten.clang"
  },
  "schemaVersion": "3.4.3",
  "updatedAt": "2021-10-14T08:51:23.135Z",
  "devdoc": {
    "kind": "dev",
    "methods": {},
    "version": 1
  },
  "userdoc": {
    "kind": "user",
    "methods": {},
    "version": 1
  }
}