{
  "contractName": "LibERC721LazyMint",
  "abi": [
    {
      "inputs": [],
      "name": "ERC721_LAZY_ASSET_CLASS",
      "outputs": [
        {
          "internalType": "bytes4",
          "name": "",
          "type": "bytes4"
        }
      ],
      "stateMutability": "view",
      "type": "function"
    },
    {
      "inputs": [],
      "name": "MINT_AND_TRANSFER_TYPEHASH",
      "outputs": [
        {
          "internalType": "bytes32",
          "name": "",
          "type": "bytes32"
        }
      ],
      "stateMutability": "view",
      "type": "function"
    }
  ],
  "bytecode": "0x60fb610025600b82828239805160001a60731461001857fe5b30600052607381538281f3fe7300000000000000000000000000000000000000003014608060405260043610603d5760003560e01c80637987105f14604257806394d5e89d14605a575b600080fd5b6048607d565b60408051918252519081900360200190f35b606060a1565b604080516001600160e01b03199092168252519081900360200190f35b7ff64326045af5fd7e15297ba939f85b550474d3899daa47d2bc1ffbdb9ced344e81565b7fd8f960c1450658267efb07308b4050c9e705cea25a53b560236c88cb149696be8156fea264697066735822122018d8b140a5ce005f415300ebc1ad875d98186ceb0830a76e4c8e500bdd929cc664736f6c63430007060033",
  "immutableReferences": {},
  "source": "// SPDX-License-Identifier: MIT\n\npragma solidity >=0.6.2 <0.8.0;\n\nimport \"@rarible/lib-part/contracts/LibPart.sol\";\n\nlibrary LibERC721LazyMint {\n    bytes4 constant public ERC721_LAZY_ASSET_CLASS = bytes4(keccak256(\"ERC721_LAZY\"));\n    bytes4 constant _INTERFACE_ID_MINT_AND_TRANSFER = 0x8486f69f;\n\n    struct Mint721Data {\n        uint tokenId;\n        string tokenURI;\n        LibPart.Part[] creators;\n        LibPart.Part[] royalties;\n        bytes[] signatures;\n    }\n\n    bytes32 public constant MINT_AND_TRANSFER_TYPEHASH = keccak256(\"Mint721(uint256 tokenId,string tokenURI,Part[] creators,Part[] royalties)Part(address account,uint96 value)\");\n\n    function hash(Mint721Data memory data) internal pure returns (bytes32) {\n        bytes32[] memory royaltiesBytes = new bytes32[](data.royalties.length);\n        for (uint i = 0; i < data.royalties.length; ++i) {\n            royaltiesBytes[i] = LibPart.hash(data.royalties[i]);\n        }\n        bytes32[] memory creatorsBytes = new bytes32[](data.creators.length);\n        for (uint i = 0; i < data.creators.length; ++i) {\n            creatorsBytes[i] = LibPart.hash(data.creators[i]);\n        }\n        return keccak256(abi.encode(\n                MINT_AND_TRANSFER_TYPEHASH,\n                data.tokenId,\n                keccak256(bytes(data.tokenURI)),\n                keccak256(abi.encodePacked(creatorsBytes)),\n                keccak256(abi.encodePacked(royaltiesBytes))\n            ));\n    }\n\n}\n",
  "sourcePath": "@rarible/lazy-mint/contracts/erc-721/LibERC721LazyMint.sol",
  "compiler": {
    "name": "solc",
    "version": "0.7.6+commit.7338295f.Emscripten.clang"
  },
  "schemaVersion": "3.4.3",
  "updatedAt": "2022-12-20T17:29:20.267Z",
  "devdoc": {
    "kind": "dev",
    "methods": {},
    "version": 1
  },
  "userdoc": {
    "kind": "user",
    "methods": {},
    "version": 1
  }
}