{
  "contractName": "LibOrder",
  "abi": [
    {
      "inputs": [],
      "name": "V2",
      "outputs": [
        {
          "internalType": "bytes4",
          "name": "",
          "type": "bytes4"
        }
      ],
      "stateMutability": "view",
      "type": "function"
    }
  ],
  "bytecode": "0x60b5610024600b82828239805160001a607314601757fe5b30600052607381538281f3fe730000000000000000000000000000000000000000301460806040526004361060335760003560e01c806396cd25ef146038575b600080fd5b603e605b565b604080516001600160e01b03199092168252519081900360200190f35b7f23d235efaf569b2b407d10f447247743508d1762a8e3a3aed85ccc0570dde35f8156fea264697066735822122098cf6e9b58b156f5d42453682cd4fbb8d8098e75039cdcca5151f34d44fc61e964736f6c63430007060033",
  "immutableReferences": {},
  "source": "// SPDX-License-Identifier: MIT\n\npragma solidity 0.7.6;\n\nimport \"./lib/LibMath.sol\";\nimport \"@rarible/lib-asset/contracts/LibAsset.sol\";\n\nlibrary LibOrder {\n    using SafeMathUpgradeable for uint;\n\n    bytes4 constant public V2 = bytes4(keccak256(\"V2\"));\n\n    bytes32 constant ORDER_TYPEHASH = keccak256(\n        \"Order(address maker,Asset makeAsset,address taker,Asset takeAsset,uint256 salt,uint256 start,uint256 end,bytes4 dataType,bytes data)Asset(AssetType assetType,uint256 value)AssetType(bytes4 assetClass,bytes data)\"\n    );\n\n    struct Order {\n        address maker;\n        LibAsset.Asset makeAsset;\n        address taker;\n        LibAsset.Asset takeAsset;\n        uint salt;\n        uint start;\n        uint end;\n        bytes4 dataType;\n        bytes data;\n    }\n\n    function calculateRemaining(Order memory order, uint fill, bool isMakeFill) internal pure returns (uint makeValue, uint takeValue) {\n        if (!isMakeFill){\n            takeValue = order.takeAsset.value.sub(fill);\n            makeValue = LibMath.safeGetPartialAmountFloor(order.makeAsset.value, order.takeAsset.value, takeValue);\n        } else {\n            makeValue = order.makeAsset.value.sub(fill);\n            takeValue = LibMath.safeGetPartialAmountFloor(order.takeAsset.value, order.makeAsset.value, makeValue);\n        } \n    }\n\n    function hashKey(Order memory order) internal pure returns (bytes32) {\n        //order.data is in hash for V2 orders\n        if (order.dataType == V2){\n            return keccak256(abi.encode(\n                order.maker,\n                LibAsset.hash(order.makeAsset.assetType),\n                LibAsset.hash(order.takeAsset.assetType),\n                order.salt,\n                order.data\n            ));\n        } else {\n            return keccak256(abi.encode(\n                order.maker,\n                LibAsset.hash(order.makeAsset.assetType),\n                LibAsset.hash(order.takeAsset.assetType),\n                order.salt\n            ));\n        }\n        \n    }\n\n    function hash(Order memory order) internal pure returns (bytes32) {\n        return keccak256(abi.encode(\n                ORDER_TYPEHASH,\n                order.maker,\n                LibAsset.hash(order.makeAsset),\n                order.taker,\n                LibAsset.hash(order.takeAsset),\n                order.salt,\n                order.start,\n                order.end,\n                order.dataType,\n                keccak256(order.data)\n            ));\n    }\n\n    function validate(LibOrder.Order memory order) internal view {\n        require(order.start == 0 || order.start < block.timestamp, \"Order start validation failed\");\n        require(order.end == 0 || order.end > block.timestamp, \"Order end validation failed\");\n    }\n}\n",
  "sourcePath": "@rarible/exchange-v2/contracts/LibOrder.sol",
  "compiler": {
    "name": "solc",
    "version": "0.7.6+commit.7338295f.Emscripten.clang"
  },
  "schemaVersion": "3.4.3",
  "updatedAt": "2021-11-03T09:28:44.693Z",
  "devdoc": {
    "kind": "dev",
    "methods": {},
    "version": 1
  },
  "userdoc": {
    "kind": "user",
    "methods": {},
    "version": 1
  }
}