{
  "contractName": "LockingVotes",
  "abi": [
    {
      "anonymous": false,
      "inputs": [
        {
          "indexed": true,
          "internalType": "uint256",
          "name": "id",
          "type": "uint256"
        },
        {
          "indexed": true,
          "internalType": "address",
          "name": "account",
          "type": "address"
        },
        {
          "indexed": true,
          "internalType": "address",
          "name": "delegate",
          "type": "address"
        },
        {
          "indexed": false,
          "internalType": "uint256",
          "name": "time",
          "type": "uint256"
        }
      ],
      "name": "Delegate",
      "type": "event"
    },
    {
      "anonymous": false,
      "inputs": [
        {
          "indexed": true,
          "internalType": "address",
          "name": "delegator",
          "type": "address"
        },
        {
          "indexed": true,
          "internalType": "address",
          "name": "fromDelegate",
          "type": "address"
        },
        {
          "indexed": true,
          "internalType": "address",
          "name": "toDelegate",
          "type": "address"
        }
      ],
      "name": "DelegateChanged",
      "type": "event"
    },
    {
      "anonymous": false,
      "inputs": [
        {
          "indexed": true,
          "internalType": "address",
          "name": "delegate",
          "type": "address"
        },
        {
          "indexed": false,
          "internalType": "uint256",
          "name": "previousBalance",
          "type": "uint256"
        },
        {
          "indexed": false,
          "internalType": "uint256",
          "name": "newBalance",
          "type": "uint256"
        }
      ],
      "name": "DelegateVotesChanged",
      "type": "event"
    },
    {
      "anonymous": false,
      "inputs": [
        {
          "indexed": true,
          "internalType": "uint256",
          "name": "id",
          "type": "uint256"
        },
        {
          "indexed": true,
          "internalType": "address",
          "name": "account",
          "type": "address"
        },
        {
          "indexed": true,
          "internalType": "address",
          "name": "delegate",
          "type": "address"
        },
        {
          "indexed": false,
          "internalType": "uint256",
          "name": "time",
          "type": "uint256"
        },
        {
          "indexed": false,
          "internalType": "uint256",
          "name": "amount",
          "type": "uint256"
        },
        {
          "indexed": false,
          "internalType": "uint256",
          "name": "slopePeriod",
          "type": "uint256"
        },
        {
          "indexed": false,
          "internalType": "uint256",
          "name": "cliff",
          "type": "uint256"
        }
      ],
      "name": "LockCreate",
      "type": "event"
    },
    {
      "anonymous": false,
      "inputs": [
        {
          "indexed": true,
          "internalType": "address",
          "name": "account",
          "type": "address"
        },
        {
          "indexed": false,
          "internalType": "uint256[]",
          "name": "id",
          "type": "uint256[]"
        }
      ],
      "name": "Migrate",
      "type": "event"
    },
    {
      "anonymous": false,
      "inputs": [
        {
          "indexed": true,
          "internalType": "address",
          "name": "previousOwner",
          "type": "address"
        },
        {
          "indexed": true,
          "internalType": "address",
          "name": "newOwner",
          "type": "address"
        }
      ],
      "name": "OwnershipTransferred",
      "type": "event"
    },
    {
      "anonymous": false,
      "inputs": [
        {
          "indexed": true,
          "internalType": "uint256",
          "name": "id",
          "type": "uint256"
        },
        {
          "indexed": true,
          "internalType": "address",
          "name": "account",
          "type": "address"
        },
        {
          "indexed": true,
          "internalType": "address",
          "name": "delegate",
          "type": "address"
        },
        {
          "indexed": false,
          "internalType": "uint256",
          "name": "counter",
          "type": "uint256"
        },
        {
          "indexed": false,
          "internalType": "uint256",
          "name": "time",
          "type": "uint256"
        },
        {
          "indexed": false,
          "internalType": "uint256",
          "name": "amount",
          "type": "uint256"
        },
        {
          "indexed": false,
          "internalType": "uint256",
          "name": "slopePeriod",
          "type": "uint256"
        },
        {
          "indexed": false,
          "internalType": "uint256",
          "name": "cliff",
          "type": "uint256"
        }
      ],
      "name": "Relock",
      "type": "event"
    },
    {
      "anonymous": false,
      "inputs": [
        {
          "indexed": true,
          "internalType": "uint256",
          "name": "newMinCliffPeriod",
          "type": "uint256"
        }
      ],
      "name": "SetMinCliffPeriod",
      "type": "event"
    },
    {
      "anonymous": false,
      "inputs": [
        {
          "indexed": true,
          "internalType": "uint256",
          "name": "newMinSlopePeriod",
          "type": "uint256"
        }
      ],
      "name": "SetMinSlopePeriod",
      "type": "event"
    },
    {
      "anonymous": false,
      "inputs": [
        {
          "indexed": true,
          "internalType": "uint256",
          "name": "newStartingPointWeek",
          "type": "uint256"
        }
      ],
      "name": "SetStartingPointWeek",
      "type": "event"
    },
    {
      "anonymous": false,
      "inputs": [
        {
          "indexed": true,
          "internalType": "address",
          "name": "account",
          "type": "address"
        }
      ],
      "name": "StartLocking",
      "type": "event"
    },
    {
      "anonymous": false,
      "inputs": [
        {
          "indexed": true,
          "internalType": "address",
          "name": "account",
          "type": "address"
        },
        {
          "indexed": true,
          "internalType": "address",
          "name": "to",
          "type": "address"
        }
      ],
      "name": "StartMigration",
      "type": "event"
    },
    {
      "anonymous": false,
      "inputs": [
        {
          "indexed": true,
          "internalType": "address",
          "name": "account",
          "type": "address"
        }
      ],
      "name": "StopLocking",
      "type": "event"
    },
    {
      "anonymous": false,
      "inputs": [
        {
          "indexed": true,
          "internalType": "address",
          "name": "account",
          "type": "address"
        },
        {
          "indexed": false,
          "internalType": "uint256",
          "name": "amount",
          "type": "uint256"
        }
      ],
      "name": "Withdraw",
      "type": "event"
    },
    {
      "inputs": [],
      "name": "WEEK",
      "outputs": [
        {
          "internalType": "uint256",
          "name": "",
          "type": "uint256"
        }
      ],
      "stateMutability": "view",
      "type": "function"
    },
    {
      "inputs": [],
      "name": "counter",
      "outputs": [
        {
          "internalType": "uint256",
          "name": "",
          "type": "uint256"
        }
      ],
      "stateMutability": "view",
      "type": "function"
    },
    {
      "inputs": [
        {
          "internalType": "uint256",
          "name": "amount",
          "type": "uint256"
        },
        {
          "internalType": "uint256",
          "name": "slopePeriod",
          "type": "uint256"
        },
        {
          "internalType": "uint256",
          "name": "cliff",
          "type": "uint256"
        }
      ],
      "name": "getLock",
      "outputs": [
        {
          "internalType": "uint256",
          "name": "lockAmount",
          "type": "uint256"
        },
        {
          "internalType": "uint256",
          "name": "lockSlope",
          "type": "uint256"
        }
      ],
      "stateMutability": "view",
      "type": "function"
    },
    {
      "inputs": [],
      "name": "migrateTo",
      "outputs": [
        {
          "internalType": "address",
          "name": "",
          "type": "address"
        }
      ],
      "stateMutability": "view",
      "type": "function"
    },
    {
      "inputs": [],
      "name": "minCliffPeriod",
      "outputs": [
        {
          "internalType": "uint256",
          "name": "",
          "type": "uint256"
        }
      ],
      "stateMutability": "view",
      "type": "function"
    },
    {
      "inputs": [],
      "name": "minSlopePeriod",
      "outputs": [
        {
          "internalType": "uint256",
          "name": "",
          "type": "uint256"
        }
      ],
      "stateMutability": "view",
      "type": "function"
    },
    {
      "inputs": [],
      "name": "owner",
      "outputs": [
        {
          "internalType": "address",
          "name": "",
          "type": "address"
        }
      ],
      "stateMutability": "view",
      "type": "function"
    },
    {
      "inputs": [],
      "name": "renounceOwnership",
      "outputs": [],
      "stateMutability": "nonpayable",
      "type": "function"
    },
    {
      "inputs": [
        {
          "internalType": "uint256",
          "name": "ts",
          "type": "uint256"
        }
      ],
      "name": "roundTimestamp",
      "outputs": [
        {
          "internalType": "uint256",
          "name": "",
          "type": "uint256"
        }
      ],
      "stateMutability": "view",
      "type": "function"
    },
    {
      "inputs": [
        {
          "internalType": "uint256",
          "name": "newMinCliffPeriod",
          "type": "uint256"
        }
      ],
      "name": "setMinCliffPeriod",
      "outputs": [],
      "stateMutability": "nonpayable",
      "type": "function"
    },
    {
      "inputs": [
        {
          "internalType": "uint256",
          "name": "newMinSlopePeriod",
          "type": "uint256"
        }
      ],
      "name": "setMinSlopePeriod",
      "outputs": [],
      "stateMutability": "nonpayable",
      "type": "function"
    },
    {
      "inputs": [
        {
          "internalType": "uint256",
          "name": "newStartingPointWeek",
          "type": "uint256"
        }
      ],
      "name": "setStartingPointWeek",
      "outputs": [],
      "stateMutability": "nonpayable",
      "type": "function"
    },
    {
      "inputs": [],
      "name": "startingPointWeek",
      "outputs": [
        {
          "internalType": "uint256",
          "name": "",
          "type": "uint256"
        }
      ],
      "stateMutability": "view",
      "type": "function"
    },
    {
      "inputs": [],
      "name": "stopped",
      "outputs": [
        {
          "internalType": "bool",
          "name": "",
          "type": "bool"
        }
      ],
      "stateMutability": "view",
      "type": "function"
    },
    {
      "inputs": [],
      "name": "token",
      "outputs": [
        {
          "internalType": "contract IERC20Upgradeable",
          "name": "",
          "type": "address"
        }
      ],
      "stateMutability": "view",
      "type": "function"
    },
    {
      "inputs": [],
      "name": "totalSupplyLine",
      "outputs": [
        {
          "components": [
            {
              "internalType": "uint256",
              "name": "start",
              "type": "uint256"
            },
            {
              "internalType": "uint256",
              "name": "bias",
              "type": "uint256"
            },
            {
              "internalType": "uint256",
              "name": "slope",
              "type": "uint256"
            }
          ],
          "internalType": "struct LibBrokenLine.Line",
          "name": "initial",
          "type": "tuple"
        }
      ],
      "stateMutability": "view",
      "type": "function"
    },
    {
      "inputs": [
        {
          "internalType": "address",
          "name": "newOwner",
          "type": "address"
        }
      ],
      "name": "transferOwnership",
      "outputs": [],
      "stateMutability": "nonpayable",
      "type": "function"
    },
    {
      "inputs": [
        {
          "internalType": "address",
          "name": "account",
          "type": "address"
        },
        {
          "internalType": "uint256",
          "name": "time",
          "type": "uint256"
        }
      ],
      "name": "updateAccountLines",
      "outputs": [],
      "stateMutability": "nonpayable",
      "type": "function"
    },
    {
      "inputs": [
        {
          "internalType": "address",
          "name": "account",
          "type": "address"
        },
        {
          "internalType": "uint256",
          "name": "blockNumber",
          "type": "uint256"
        }
      ],
      "name": "updateAccountLinesBlockNumber",
      "outputs": [],
      "stateMutability": "nonpayable",
      "type": "function"
    },
    {
      "inputs": [
        {
          "internalType": "uint256",
          "name": "time",
          "type": "uint256"
        }
      ],
      "name": "updateTotalSupplyLine",
      "outputs": [],
      "stateMutability": "nonpayable",
      "type": "function"
    },
    {
      "inputs": [
        {
          "internalType": "uint256",
          "name": "blockNumber",
          "type": "uint256"
        }
      ],
      "name": "updateTotalSupplyLineBlockNumber",
      "outputs": [],
      "stateMutability": "nonpayable",
      "type": "function"
    },
    {
      "inputs": [
        {
          "internalType": "address",
          "name": "account",
          "type": "address"
        }
      ],
      "name": "getVotes",
      "outputs": [
        {
          "internalType": "uint256",
          "name": "",
          "type": "uint256"
        }
      ],
      "stateMutability": "view",
      "type": "function"
    },
    {
      "inputs": [
        {
          "internalType": "address",
          "name": "account",
          "type": "address"
        },
        {
          "internalType": "uint256",
          "name": "blockNumber",
          "type": "uint256"
        }
      ],
      "name": "getPastVotes",
      "outputs": [
        {
          "internalType": "uint256",
          "name": "",
          "type": "uint256"
        }
      ],
      "stateMutability": "view",
      "type": "function"
    },
    {
      "inputs": [
        {
          "internalType": "uint256",
          "name": "blockNumber",
          "type": "uint256"
        }
      ],
      "name": "getPastTotalSupply",
      "outputs": [
        {
          "internalType": "uint256",
          "name": "",
          "type": "uint256"
        }
      ],
      "stateMutability": "view",
      "type": "function"
    },
    {
      "inputs": [
        {
          "internalType": "address",
          "name": "account",
          "type": "address"
        }
      ],
      "name": "delegates",
      "outputs": [
        {
          "internalType": "address",
          "name": "",
          "type": "address"
        }
      ],
      "stateMutability": "view",
      "type": "function"
    },
    {
      "inputs": [
        {
          "internalType": "address",
          "name": "delegatee",
          "type": "address"
        }
      ],
      "name": "delegate",
      "outputs": [],
      "stateMutability": "nonpayable",
      "type": "function"
    },
    {
      "inputs": [
        {
          "internalType": "address",
          "name": "delegatee",
          "type": "address"
        },
        {
          "internalType": "uint256",
          "name": "nonce",
          "type": "uint256"
        },
        {
          "internalType": "uint256",
          "name": "expiry",
          "type": "uint256"
        },
        {
          "internalType": "uint8",
          "name": "v",
          "type": "uint8"
        },
        {
          "internalType": "bytes32",
          "name": "r",
          "type": "bytes32"
        },
        {
          "internalType": "bytes32",
          "name": "s",
          "type": "bytes32"
        }
      ],
      "name": "delegateBySig",
      "outputs": [],
      "stateMutability": "nonpayable",
      "type": "function"
    }
  ],
  "bytecode": "0x608060405234801561001057600080fd5b506118bb806100206000396000f3fe608060405234801561001057600080fd5b50600436106101a95760003560e01c806398c6e760116100f9578063b623163311610097578063ee12055f11610071578063ee12055f14610348578063f2fde38b1461035b578063f4359ce51461036e578063fc0c546a14610376576101a9565b8063b623163314610311578063c3cda52014610319578063cf94687b14610327576101a9565b8063a8edafbe116100d3578063a8edafbe146102ce578063ac7ae589146102e1578063acc9b648146102e9578063b53546ab146102fc576101a9565b806398c6e760146102a057806399eccf62146102a85780639ab24eb0146102bb576101a9565b806367c8c473116101665780637fbffce7116101405780637fbffce71461025f5780638da5cb5b146102725780638e539e8c1461027a57806392382d201461028d576101a9565b806367c8c4731461023a578063715018a61461024257806375f12b211461024a576101a9565b80633a46b1a8146101ae57806346b96097146101d7578063587cde1e146101ea5780635c19a95c1461020a57806361bc221a1461021f57806362c4196d14610227575b600080fd5b6101c16101bc3660046113d2565b61037e565b6040516101ce91906117c2565b60405180910390f35b6101c16101e5366004611459565b6103f7565b6101fd6101f83660046113b8565b610449565b6040516101ce919061149c565b61021d6102183660046113b8565b610463565b005b6101c161047b565b61021d6102353660046113d2565b610481565b6101c1610550565b61021d610556565b610252610602565b6040516101ce91906114b0565b61021d61026d366004611459565b61060b565b6101fd6106d8565b6101c1610288366004611459565b6106e7565b61021d61029b366004611459565b610736565b6101fd6107f7565b61021d6102b6366004611459565b61080b565b6101c16102c93660046113b8565b610911565b61021d6102dc366004611459565b610948565b6101c1610a57565b61021d6102f7366004611459565b610a5d565b610304610b63565b6040516101ce91906117a1565b6101c1610b87565b61021d6102183660046113fb565b61033a610335366004611471565b610b8d565b6040516101ce9291906117cb565b61021d6103563660046113d2565b610c71565b61021d6103693660046113b8565b610d6b565b6101c1610e6e565b6101fd610e74565b60008061038a836103f7565b9050610394610e83565b831080156103a25750600081115b6103c75760405162461bcd60e51b81526004016103be90611711565b60405180910390fd5b6001600160a01b0384166000908152606b602052604090206103ed906000198301610e87565b9150505b92915050565b6000610401610ef8565b82101561041057506000610444565b600061042461041d610ef8565b8490610efe565b606a549091506104409061043a8361c4e0610f5b565b90610efe565b9150505b919050565b600060405162461bcd60e51b81526004016103be906115bc565b60405162461bcd60e51b81526004016103be906115bc565b60665481565b60675460ff16156104a45760405162461bcd60e51b81526004016103be9061173e565b60675461010090046001600160a01b0316156104d25760405162461bcd60e51b81526004016103be90611653565b6104da610fc2565b6001600160a01b03166104eb6106d8565b6001600160a01b031614610534576040805162461bcd60e51b81526020600482018190526024820152600080516020611842833981519152604482015290519081900360640190fd5b600061053f826103f7565b905061054b8382610c71565b505050565b60685481565b61055e610fc2565b6001600160a01b031661056f6106d8565b6001600160a01b0316146105b8576040805162461bcd60e51b81526020600482018190526024820152600080516020611842833981519152604482015290519081900360640190fd5b6033546040516000916001600160a01b0316907f8be0079c531659141344cd1fd0a4f28419497f9722a3daafe3b4186f6b6457e0908390a3603380546001600160a01b0319169055565b60675460ff1681565b60675460ff161561062e5760405162461bcd60e51b81526004016103be9061173e565b60675461010090046001600160a01b03161561065c5760405162461bcd60e51b81526004016103be90611653565b610664610fc2565b6001600160a01b03166106756106d8565b6001600160a01b0316146106be576040805162461bcd60e51b81526020600482018190526024820152600080516020611842833981519152604482015290519081900360640190fd5b60006106c9826103f7565b90506106d481610736565b5050565b6033546001600160a01b031690565b6000806106f3836103f7565b90506106fd610e83565b8310801561070b5750600081115b6107275760405162461bcd60e51b81526004016103be90611711565b610440606d6000198301610e87565b60675460ff16156107595760405162461bcd60e51b81526004016103be9061173e565b60675461010090046001600160a01b0316156107875760405162461bcd60e51b81526004016103be90611653565b61078f610fc2565b6001600160a01b03166107a06106d8565b6001600160a01b0316146107e9576040805162461bcd60e51b81526020600482018190526024820152600080516020611842833981519152604482015290519081900360640190fd5b6107f4606d82610fc6565b50565b60675461010090046001600160a01b031681565b60675460ff161561082e5760405162461bcd60e51b81526004016103be9061173e565b60675461010090046001600160a01b03161561085c5760405162461bcd60e51b81526004016103be90611653565b610864610fc2565b6001600160a01b03166108756106d8565b6001600160a01b0316146108be576040805162461bcd60e51b81526020600482018190526024820152600080516020611842833981519152604482015290519081900360640190fd5b606881106108de5760405162461bcd60e51b81526004016103be906114bb565b606981905560405181907f88345dd2cdc36a4778bf7fed510015cf81efda1a773e1b6360fde7cb1631b21090600090a250565b60008061091f6101e5610e83565b6001600160a01b0384166000908152606b60205260409020909150610440906000198301610e87565b60675460ff161561096b5760405162461bcd60e51b81526004016103be9061173e565b60675461010090046001600160a01b0316156109995760405162461bcd60e51b81526004016103be90611653565b6109a1610fc2565b6001600160a01b03166109b26106d8565b6001600160a01b0316146109fb576040805162461bcd60e51b81526020600482018190526024820152600080516020611842833981519152604482015290519081900360640190fd5b610a066101e5610e83565b8110610a245760405162461bcd60e51b81526004016103be9061161c565b606a81905560405181907f2f807974bc9b84320f39300f6395b257c58bb285c61d262ec17c8332772d683690600090a250565b606a5481565b60675460ff1615610a805760405162461bcd60e51b81526004016103be9061173e565b60675461010090046001600160a01b031615610aae5760405162461bcd60e51b81526004016103be90611653565b610ab6610fc2565b6001600160a01b0316610ac76106d8565b6001600160a01b031614610b10576040805162461bcd60e51b81526020600482018190526024820152600080516020611842833981519152604482015290519081900360640190fd5b60678110610b305760405162461bcd60e51b81526004016103be906115e5565b606881905560405181907fa21222d0eed205eed6a46ed1fe7faf1d0b5d097b9e04a6d4e59b7f1debfc8b2b90600090a250565b60408051606081018252607054815260715460208201526072549181019190915281565b60695481565b600080606854831015610bb25760405162461bcd60e51b81526004016103be90611537565b606954841015610bd45760405162461bcd60e51b81526004016103be9061175f565b6000610c00606854606703610bfa6304c4b400606854880361108f90919063ffffffff16565b90610f5b565b90506000610c28606954606803610bfa6302625a006069548a0361108f90919063ffffffff16565b90506000610c446301312d00610c3e85856110ef565b906110ef565b9050610c586305f5e100610bfa8a8461108f565b9450610c648588611149565b9350505050935093915050565b60675460ff1615610c945760405162461bcd60e51b81526004016103be9061173e565b60675461010090046001600160a01b031615610cc25760405162461bcd60e51b81526004016103be90611653565b610cca610fc2565b6001600160a01b0316610cdb6106d8565b6001600160a01b031614610d24576040805162461bcd60e51b81526020600482018190526024820152600080516020611842833981519152604482015290519081900360640190fd5b6001600160a01b0382166000908152606b60205260409020610d469082610fc6565b6001600160a01b0382166000908152606b602052604090206106d49060060182610fc6565b610d73610fc2565b6001600160a01b0316610d846106d8565b6001600160a01b031614610dcd576040805162461bcd60e51b81526020600482018190526024820152600080516020611842833981519152604482015290519081900360640190fd5b6001600160a01b038116610e125760405162461bcd60e51b81526004018080602001828103825260268152602001806117da6026913960400191505060405180910390fd5b6033546040516001600160a01b038084169216907f8be0079c531659141344cd1fd0a4f28419497f9722a3daafe3b4186f6b6457e090600090a3603380546001600160a01b0319166001600160a01b0392909216919091179055565b61c4e081565b6065546001600160a01b031681565b4390565b600382015460048301546000919083821415610ea65791506103f19050565b81841115610ec357610eba8583868461115e565b925050506103f1565b60008411610ee35760405162461bcd60e51b81526004016103be9061169e565b610eef858386846111ec565b95945050505050565b612a3090565b600082821115610f55576040805162461bcd60e51b815260206004820152601e60248201527f536166654d6174683a207375627472616374696f6e206f766572666c6f770000604482015290519081900360640190fd5b50900390565b6000808211610fb1576040805162461bcd60e51b815260206004820152601a60248201527f536166654d6174683a206469766973696f6e206279207a65726f000000000000604482015290519081900360640190fd5b818381610fba57fe5b049392505050565b3390565b600382015481811415610fd957506106d4565b600583015460048401548015611079578284116110085760405162461bcd60e51b81526004016103be906116cc565b838310156110795761101a8183610efe565b600084815260208790526040812054919250906110409061103a856112ae565b906112d7565b905060008112156110635760405162461bcd60e51b81526004016103be906114f2565b9150816110718460016110ef565b935050611008565b6003850184905560048501556005840155505050565b60008261109e575060006103f1565b828202828482816110ab57fe5b04146110e85760405162461bcd60e51b81526004018080602001828103825260218152602001806118216021913960400191505060405180910390fd5b9392505050565b6000828201838110156110e8576040805162461bcd60e51b815260206004820152601b60248201527f536166654d6174683a206164646974696f6e206f766572666c6f770000000000604482015290519081900360640190fd5b60006110e86001610c3e84610bfa8784610efe565b60008161116c5750806111e4565b6005850154845b848110156111de576111858483610efe565b600082815260208990526040812054919550906111a59061103a856112ae565b905060008112156111c85760405162461bcd60e51b81526004016103be906114f2565b9150816111d68260016110ef565b915050611173565b83925050505b949350505050565b6005840154600090845b848111156111de57611209816001610efe565b6000818152600189016020526040812054919250906112319061122b876112ae565b9061133c565b905060008112156112545760405162461bcd60e51b81526004016103be90611579565b60008281526020899052604081205491955085916112759061122b866112ae565b905060008112156112985760405162461bcd60e51b81526004016103be906114f2565b9250826112a586826110ef565b955050506111f6565b6000600160ff1b82106112d35760405162461bcd60e51b81526004016103be90611676565b5090565b60008282018183128015906112ec5750838112155b80611301575060008312801561130157508381125b6110e85760405162461bcd60e51b81526004018080602001828103825260218152602001806118006021913960400191505060405180910390fd5b60008183038183128015906113515750838113155b80611366575060008312801561136657508381135b6110e85760405162461bcd60e51b81526004018080602001828103825260248152602001806118626024913960400191505060405180910390fd5b80356001600160a01b038116811461044457600080fd5b6000602082840312156113c9578081fd5b6110e8826113a1565b600080604083850312156113e4578081fd5b6113ed836113a1565b946020939093013593505050565b60008060008060008060c08789031215611413578182fd5b61141c876113a1565b95506020870135945060408701359350606087013560ff8116811461143f578283fd5b9598949750929560808101359460a0909101359350915050565b60006020828403121561146a578081fd5b5035919050565b600080600060608486031215611485578283fd5b505081359360208301359350604090920135919050565b6001600160a01b0391909116815260200190565b901515815260200190565b6020808252601a908201527f6e657720736c6f706520706572696f64203e2032207965617273000000000000604082015260600190565b60208082526025908201527f736c6f7065203c20302c20736f6d657468696e672077726f6e67207769746820604082015264736c6f706560d81b606082015260800190565b60208082526022908201527f636c69666620706572696f64203c206d696e696d616c206c6f636b20706572696040820152611bd960f21b606082015260800190565b60208082526023908201527f62696173203c20302c20736f6d657468696e672077726f6e672077697468206260408201526269617360e81b606082015260800190565b6020808252600f908201526e1b9bdd081a5b5c1b195b595b9d1959608a1b604082015260600190565b6020808252601a908201527f6e657720636c69666620706572696f64203e2032207965617273000000000000604082015260600190565b6020808252601a908201527f77726f6e67206e65775374617274696e67506f696e745765656b000000000000604082015260600190565b6020808252600990820152686d6967726174696e6760b81b604082015260600190565b6020808252600e908201526d34b73a1031b0b9ba1032b93937b960911b604082015260600190565b602080825260149082015273756e657870656374656420706173742074696d6560601b604082015260600190565b60208082526025908201527f63616e2774207570646174652042726f6b656e4c696e6520666f7220706173746040820152642074696d6560d81b606082015260800190565b602080825260139082015272189b1bd8dac81b9bdd081e595d081b5a5b9959606a1b604082015260600190565b6020808252600790820152661cdd1bdc1c195960ca1b604082015260600190565b60208082526022908201527f736c6f706520706572696f64203c206d696e696d616c206c6f636b20706572696040820152611bd960f21b606082015260800190565b81518152602080830151908201526040918201519181019190915260600190565b90815260200190565b91825260208201526040019056fe4f776e61626c653a206e6577206f776e657220697320746865207a65726f20616464726573735369676e6564536166654d6174683a206164646974696f6e206f766572666c6f77536166654d6174683a206d756c7469706c69636174696f6e206f766572666c6f774f776e61626c653a2063616c6c6572206973206e6f7420746865206f776e65725369676e6564536166654d6174683a207375627472616374696f6e206f766572666c6f77a26469706673582212208ccd5b03da7d6ae7211ee765186f801697a3eb757460e40f7e5bb5f33c7a1b6364736f6c63430007060033",
  "immutableReferences": {},
  "source": "// SPDX-License-Identifier: MIT\n\npragma solidity 0.7.6;\npragma abicoder v2;\n\nimport \"./LockingBase.sol\";\n\ncontract LockingVotes is LockingBase {\n    using LibBrokenLine for LibBrokenLine.BrokenLine;\n\n    /**\n     * @dev Returns the current amount of votes that `account` has.\n     */\n    function getVotes(address account) external override view returns (uint256) {\n        uint currentWeek = roundTimestamp(getBlockNumber());\n        return accounts[account].balance.actualValue(currentWeek - 1);\n    }\n\n    /**\n     * @dev Returns the amount of votes that `account` had\n     * at the end of the last period\n     */\n    function getPastVotes(address account, uint256 blockNumber) external override view returns (uint256) {\n        uint currentWeek = roundTimestamp(blockNumber);\n        require(blockNumber < getBlockNumber() && currentWeek > 0, \"block not yet mined\");\n\n        return accounts[account].balance.actualValue(currentWeek - 1);\n    }\n\n    /**\n     * @dev Returns the total supply of votes available \n     * at the end of the last period\n     */\n    function getPastTotalSupply(uint256 blockNumber) external override view returns (uint256) {\n        uint currentWeek = roundTimestamp(blockNumber);\n        require(blockNumber < getBlockNumber() && currentWeek > 0, \"block not yet mined\");\n\n        return totalSupplyLine.actualValue(currentWeek - 1);\n    }\n\n    /**\n     * @dev Returns the delegate that `account` has chosen.\n     */\n    function delegates(address account) external override view returns (address) {\n        revert(\"not implemented\");\n    }\n\n    /**\n     * @dev Delegates votes from the sender to `delegatee`.\n     */\n    function delegate(address delegatee) external override {\n        revert(\"not implemented\");\n    }\n\n    /**\n     * @dev Delegates votes from signer to `delegatee`.\n     */\n    function delegateBySig(\n        address delegatee,\n        uint256 nonce,\n        uint256 expiry,\n        uint8 v,\n        bytes32 r,\n        bytes32 s\n    ) external override {\n        revert(\"not implemented\");\n    }\n\n    uint256[50] private __gap;\n}",
  "sourcePath": "@rarible/locking/contracts/LockingVotes.sol",
  "compiler": {
    "name": "solc",
    "version": "0.7.6+commit.7338295f.Emscripten.clang"
  },
  "schemaVersion": "3.4.3",
  "updatedAt": "2022-12-20T17:29:20.428Z",
  "devdoc": {
    "kind": "dev",
    "methods": {
      "delegate(address)": {
        "details": "Delegates votes from the sender to `delegatee`."
      },
      "delegateBySig(address,uint256,uint256,uint8,bytes32,bytes32)": {
        "details": "Delegates votes from signer to `delegatee`."
      },
      "delegates(address)": {
        "details": "Returns the delegate that `account` has chosen."
      },
      "getPastTotalSupply(uint256)": {
        "details": "Returns the total supply of votes available  at the end of the last period"
      },
      "getPastVotes(address,uint256)": {
        "details": "Returns the amount of votes that `account` had at the end of the last period"
      },
      "getVotes(address)": {
        "details": "Returns the current amount of votes that `account` has."
      },
      "owner()": {
        "details": "Returns the address of the current owner."
      },
      "renounceOwnership()": {
        "details": "Leaves the contract without owner. It will not be possible to call `onlyOwner` functions anymore. Can only be called by the current owner. NOTE: Renouncing ownership will leave the contract without an owner, thereby removing any functionality that is only available to the owner."
      },
      "transferOwnership(address)": {
        "details": "Transfers ownership of the contract to a new account (`newOwner`). Can only be called by the current owner."
      }
    },
    "version": 1
  },
  "userdoc": {
    "kind": "user",
    "methods": {
      "getLock(uint256,uint256,uint256)": {
        "notice": "alculate and return (newAmount, newSlope), using formula: locking = (tokens * (      ST_FORMULA_CONST_MULTIPLIER      + ST_FORMULA_CLIFF_MULTIPLIER * (cliffPeriod - minCliffPeriod))/(MAX_CLIFF_PERIOD - minCliffPeriod)      + ST_FORMULA_SLOPE_MULTIPLIER * (slopePeriod - minSlopePeriod))/(MAX_SLOPE_PERIOD - minSlopePeriod)      )) / ST_FORMULA_DIVIDER*"
      }
    },
    "version": 1
  }
}