{
  "contractName": "LooksRareTestHelper",
  "abi": [
    {
      "inputs": [
        {
          "internalType": "uint256",
          "name": "_protocolFee",
          "type": "uint256"
        }
      ],
      "stateMutability": "nonpayable",
      "type": "constructor"
    },
    {
      "inputs": [],
      "name": "PROTOCOL_FEE",
      "outputs": [
        {
          "internalType": "uint256",
          "name": "",
          "type": "uint256"
        }
      ],
      "stateMutability": "view",
      "type": "function"
    },
    {
      "inputs": [
        {
          "components": [
            {
              "internalType": "bool",
              "name": "isOrderAsk",
              "type": "bool"
            },
            {
              "internalType": "address",
              "name": "taker",
              "type": "address"
            },
            {
              "internalType": "uint256",
              "name": "price",
              "type": "uint256"
            },
            {
              "internalType": "uint256",
              "name": "tokenId",
              "type": "uint256"
            },
            {
              "internalType": "uint256",
              "name": "minPercentageToAsk",
              "type": "uint256"
            },
            {
              "internalType": "bytes",
              "name": "params",
              "type": "bytes"
            }
          ],
          "internalType": "struct LibLooksRare.TakerOrder",
          "name": "takerAsk",
          "type": "tuple"
        },
        {
          "components": [
            {
              "internalType": "bool",
              "name": "isOrderAsk",
              "type": "bool"
            },
            {
              "internalType": "address",
              "name": "signer",
              "type": "address"
            },
            {
              "internalType": "address",
              "name": "collection",
              "type": "address"
            },
            {
              "internalType": "uint256",
              "name": "price",
              "type": "uint256"
            },
            {
              "internalType": "uint256",
              "name": "tokenId",
              "type": "uint256"
            },
            {
              "internalType": "uint256",
              "name": "amount",
              "type": "uint256"
            },
            {
              "internalType": "address",
              "name": "strategy",
              "type": "address"
            },
            {
              "internalType": "address",
              "name": "currency",
              "type": "address"
            },
            {
              "internalType": "uint256",
              "name": "nonce",
              "type": "uint256"
            },
            {
              "internalType": "uint256",
              "name": "startTime",
              "type": "uint256"
            },
            {
              "internalType": "uint256",
              "name": "endTime",
              "type": "uint256"
            },
            {
              "internalType": "uint256",
              "name": "minPercentageToAsk",
              "type": "uint256"
            },
            {
              "internalType": "bytes",
              "name": "params",
              "type": "bytes"
            },
            {
              "internalType": "uint8",
              "name": "v",
              "type": "uint8"
            },
            {
              "internalType": "bytes32",
              "name": "r",
              "type": "bytes32"
            },
            {
              "internalType": "bytes32",
              "name": "s",
              "type": "bytes32"
            }
          ],
          "internalType": "struct LibLooksRare.MakerOrder",
          "name": "makerBid",
          "type": "tuple"
        }
      ],
      "name": "canExecuteTakerAsk",
      "outputs": [
        {
          "internalType": "bool",
          "name": "",
          "type": "bool"
        },
        {
          "internalType": "uint256",
          "name": "",
          "type": "uint256"
        },
        {
          "internalType": "uint256",
          "name": "",
          "type": "uint256"
        }
      ],
      "stateMutability": "view",
      "type": "function"
    },
    {
      "inputs": [
        {
          "components": [
            {
              "internalType": "bool",
              "name": "isOrderAsk",
              "type": "bool"
            },
            {
              "internalType": "address",
              "name": "taker",
              "type": "address"
            },
            {
              "internalType": "uint256",
              "name": "price",
              "type": "uint256"
            },
            {
              "internalType": "uint256",
              "name": "tokenId",
              "type": "uint256"
            },
            {
              "internalType": "uint256",
              "name": "minPercentageToAsk",
              "type": "uint256"
            },
            {
              "internalType": "bytes",
              "name": "params",
              "type": "bytes"
            }
          ],
          "internalType": "struct LibLooksRare.TakerOrder",
          "name": "takerBid",
          "type": "tuple"
        },
        {
          "components": [
            {
              "internalType": "bool",
              "name": "isOrderAsk",
              "type": "bool"
            },
            {
              "internalType": "address",
              "name": "signer",
              "type": "address"
            },
            {
              "internalType": "address",
              "name": "collection",
              "type": "address"
            },
            {
              "internalType": "uint256",
              "name": "price",
              "type": "uint256"
            },
            {
              "internalType": "uint256",
              "name": "tokenId",
              "type": "uint256"
            },
            {
              "internalType": "uint256",
              "name": "amount",
              "type": "uint256"
            },
            {
              "internalType": "address",
              "name": "strategy",
              "type": "address"
            },
            {
              "internalType": "address",
              "name": "currency",
              "type": "address"
            },
            {
              "internalType": "uint256",
              "name": "nonce",
              "type": "uint256"
            },
            {
              "internalType": "uint256",
              "name": "startTime",
              "type": "uint256"
            },
            {
              "internalType": "uint256",
              "name": "endTime",
              "type": "uint256"
            },
            {
              "internalType": "uint256",
              "name": "minPercentageToAsk",
              "type": "uint256"
            },
            {
              "internalType": "bytes",
              "name": "params",
              "type": "bytes"
            },
            {
              "internalType": "uint8",
              "name": "v",
              "type": "uint8"
            },
            {
              "internalType": "bytes32",
              "name": "r",
              "type": "bytes32"
            },
            {
              "internalType": "bytes32",
              "name": "s",
              "type": "bytes32"
            }
          ],
          "internalType": "struct LibLooksRare.MakerOrder",
          "name": "makerAsk",
          "type": "tuple"
        }
      ],
      "name": "canExecuteTakerBid",
      "outputs": [
        {
          "internalType": "bool",
          "name": "",
          "type": "bool"
        },
        {
          "internalType": "uint256",
          "name": "",
          "type": "uint256"
        },
        {
          "internalType": "uint256",
          "name": "",
          "type": "uint256"
        }
      ],
      "stateMutability": "view",
      "type": "function"
    },
    {
      "inputs": [],
      "name": "viewProtocolFee",
      "outputs": [
        {
          "internalType": "uint256",
          "name": "",
          "type": "uint256"
        }
      ],
      "stateMutability": "view",
      "type": "function"
    }
  ],
  "bytecode": "0x60a060405234801561001057600080fd5b5060405161024a38038061024a83398101604081905261002f91610037565b60805261004f565b600060208284031215610048578081fd5b5051919050565b6080516101e261006860003980609b52506101e26000f3fe608060405234801561001057600080fd5b506004361061004c5760003560e01c80630b4501fd14610051578063865781ca1461006f5780639dd1cda614610091578063ad2390ac1461006f575b600080fd5b610059610099565b60405161006691906101a3565b60405180910390f35b61008261007d36600461011c565b6100bd565b6040516100669392919061018b565b610059610117565b7f000000000000000000000000000000000000000000000000000000000000000081565b6000806000846040013584606001351480156100e0575084606001358460800135145b80156100f157504284610120013511155b801561010257504284610140013510155b92505050608082013560a08301359250925092565b600090565b6000806040838503121561012e578182fd5b823567ffffffffffffffff80821115610145578384fd5b9084019060c08287031215610158578384fd5b9092506020840135908082111561016d578283fd5b5083016102008186031215610180578182fd5b809150509250929050565b92151583526020830191909152604082015260600190565b9081526020019056fea2646970667358221220035368331245ea8b6bcc133b592acc75d5bed1ac4478c7fff604e9825fd36e9e64736f6c63430007060033",
  "immutableReferences": {
    "2631": [
      {
        "length": 32,
        "start": 155
      }
    ]
  },
  "source": "// SPDX-License-Identifier: MIT\n\npragma solidity 0.7.6;\npragma abicoder v2;\n\nimport {LibLooksRare} from \"./libraries/LibLooksRare.sol\";\n\ninterface IExecutionStrategy {\n    function canExecuteTakerAsk(LibLooksRare.TakerOrder calldata takerAsk, LibLooksRare.MakerOrder calldata makerBid)\n    external\n    view\n    returns (\n        bool,\n        uint256,\n        uint256\n    );\n\n    function canExecuteTakerBid(LibLooksRare.TakerOrder calldata takerBid, LibLooksRare.MakerOrder calldata makerAsk)\n    external\n    view\n    returns (\n        bool,\n        uint256,\n        uint256\n    );\n\n    function viewProtocolFee() external view returns (uint256);\n}\n/**\n * @title StrategyStandardSaleForFixedPrice\n * @notice Strategy that executes an order at a fixed price that\n * can be taken either by a bid or an ask.\n */\ncontract LooksRareTestHelper is IExecutionStrategy {\n    uint256 public immutable PROTOCOL_FEE;\n\n    /**\n     * @notice Constructor\n     * @param _protocolFee protocol fee (200 --> 2%, 400 --> 4%)\n     */\n    constructor(uint256 _protocolFee) {\n        PROTOCOL_FEE = _protocolFee;\n    }\n\n    /**\n     * @notice Check whether a taker ask order can be executed against a maker bid\n     * @param takerAsk taker ask order\n     * @param makerBid maker bid order\n     * @return (whether strategy can be executed, tokenId to execute, amount of tokens to execute)\n     */\n    function canExecuteTakerAsk(LibLooksRare.TakerOrder calldata takerAsk, LibLooksRare.MakerOrder calldata makerBid)\n    external\n    view\n    override\n    returns (\n        bool,\n        uint256,\n        uint256\n    )\n    {\n        return (\n        ((makerBid.price == takerAsk.price) &&\n        (makerBid.tokenId == takerAsk.tokenId) &&\n        (makerBid.startTime <= block.timestamp) &&\n        (makerBid.endTime >= block.timestamp)),\n        makerBid.tokenId,\n        makerBid.amount\n        );\n    }\n\n    /**\n     * @notice Check whether a taker bid order can be executed against a maker ask\n     * @param takerBid taker bid order\n     * @param makerAsk maker ask order\n     * @return (whether strategy can be executed, tokenId to execute, amount of tokens to execute)\n     */\n    function canExecuteTakerBid(LibLooksRare.TakerOrder calldata takerBid, LibLooksRare.MakerOrder calldata makerAsk)\n    external\n    view\n    override\n    returns (\n        bool,\n        uint256,\n        uint256\n    )\n    {\n        return (\n        ((makerAsk.price == takerBid.price) &&\n        (makerAsk.tokenId == takerBid.tokenId) &&\n        (makerAsk.startTime <= block.timestamp) &&\n        (makerAsk.endTime >= block.timestamp)),\n        makerAsk.tokenId,\n        makerAsk.amount\n        );\n    }\n\n    function viewProtocolFee() external view override returns (uint256) {\n        return 0;\n    }\n}\n",
  "sourcePath": "/home/sks/Work/project/11/protocol-contracts/exchange-wrapper/contracts/LooksRareTestHelper.sol",
  "compiler": {
    "name": "solc",
    "version": "0.7.6+commit.7338295f.Emscripten.clang"
  },
  "schemaVersion": "3.4.3",
  "updatedAt": "2022-07-28T05:57:21.536Z",
  "devdoc": {
    "kind": "dev",
    "methods": {
      "canExecuteTakerAsk((bool,address,uint256,uint256,uint256,bytes),(bool,address,address,uint256,uint256,uint256,address,address,uint256,uint256,uint256,uint256,bytes,uint8,bytes32,bytes32))": {
        "params": {
          "makerBid": "maker bid order",
          "takerAsk": "taker ask order"
        },
        "returns": {
          "_0": "(whether strategy can be executed, tokenId to execute, amount of tokens to execute)"
        }
      },
      "canExecuteTakerBid((bool,address,uint256,uint256,uint256,bytes),(bool,address,address,uint256,uint256,uint256,address,address,uint256,uint256,uint256,uint256,bytes,uint8,bytes32,bytes32))": {
        "params": {
          "makerAsk": "maker ask order",
          "takerBid": "taker bid order"
        },
        "returns": {
          "_0": "(whether strategy can be executed, tokenId to execute, amount of tokens to execute)"
        }
      },
      "constructor": {
        "params": {
          "_protocolFee": "protocol fee (200 --> 2%, 400 --> 4%)"
        }
      }
    },
    "title": "StrategyStandardSaleForFixedPrice",
    "version": 1
  },
  "userdoc": {
    "kind": "user",
    "methods": {
      "canExecuteTakerAsk((bool,address,uint256,uint256,uint256,bytes),(bool,address,address,uint256,uint256,uint256,address,address,uint256,uint256,uint256,uint256,bytes,uint8,bytes32,bytes32))": {
        "notice": "Check whether a taker ask order can be executed against a maker bid"
      },
      "canExecuteTakerBid((bool,address,uint256,uint256,uint256,bytes),(bool,address,address,uint256,uint256,uint256,address,address,uint256,uint256,uint256,uint256,bytes,uint8,bytes32,bytes32))": {
        "notice": "Check whether a taker bid order can be executed against a maker ask"
      },
      "constructor": {
        "notice": "Constructor"
      }
    },
    "notice": "Strategy that executes an order at a fixed price that can be taken either by a bid or an ask.",
    "version": 1
  }
}