{
  "contractName": "NFTLottery",
  "abi": [
    {
      "anonymous": false,
      "inputs": [
        {
          "indexed": true,
          "internalType": "uint256",
          "name": "lotteryId",
          "type": "uint256"
        },
        {
          "indexed": false,
          "internalType": "address",
          "name": "token",
          "type": "address"
        },
        {
          "indexed": false,
          "internalType": "uint256",
          "name": "tokenId",
          "type": "uint256"
        },
        {
          "indexed": false,
          "internalType": "uint256",
          "name": "price",
          "type": "uint256"
        },
        {
          "indexed": false,
          "internalType": "uint256",
          "name": "amountOfTickets",
          "type": "uint256"
        },
        {
          "indexed": false,
          "internalType": "address",
          "name": "seller",
          "type": "address"
        }
      ],
      "name": "LotteryCreated",
      "type": "event"
    },
    {
      "anonymous": false,
      "inputs": [
        {
          "indexed": true,
          "internalType": "uint256",
          "name": "lotteryId",
          "type": "uint256"
        },
        {
          "indexed": false,
          "internalType": "address",
          "name": "winner",
          "type": "address"
        },
        {
          "indexed": false,
          "internalType": "uint256",
          "name": "moneyPaid",
          "type": "uint256"
        }
      ],
      "name": "LotteryFinalised",
      "type": "event"
    },
    {
      "anonymous": false,
      "inputs": [
        {
          "indexed": true,
          "internalType": "uint256",
          "name": "lotteryId",
          "type": "uint256"
        },
        {
          "indexed": false,
          "internalType": "address",
          "name": "buyer",
          "type": "address"
        },
        {
          "indexed": false,
          "internalType": "uint256",
          "name": "moneyPaid",
          "type": "uint256"
        },
        {
          "indexed": false,
          "internalType": "uint256",
          "name": "ticketsLeft",
          "type": "uint256"
        }
      ],
      "name": "TicketsBought",
      "type": "event"
    },
    {
      "inputs": [
        {
          "internalType": "uint256",
          "name": "",
          "type": "uint256"
        }
      ],
      "name": "lotteries",
      "outputs": [
        {
          "internalType": "address",
          "name": "token",
          "type": "address"
        },
        {
          "internalType": "uint256",
          "name": "tokenId",
          "type": "uint256"
        },
        {
          "internalType": "uint256",
          "name": "price",
          "type": "uint256"
        },
        {
          "internalType": "uint256",
          "name": "amountOfTikectsNeeded",
          "type": "uint256"
        },
        {
          "internalType": "uint256",
          "name": "amountOfTikectsBought",
          "type": "uint256"
        },
        {
          "internalType": "address",
          "name": "seller",
          "type": "address"
        }
      ],
      "stateMutability": "view",
      "type": "function",
      "constant": true
    },
    {
      "inputs": [],
      "name": "lotteryId",
      "outputs": [
        {
          "internalType": "uint256",
          "name": "",
          "type": "uint256"
        }
      ],
      "stateMutability": "view",
      "type": "function",
      "constant": true
    },
    {
      "inputs": [
        {
          "internalType": "address",
          "name": "",
          "type": "address"
        },
        {
          "internalType": "address",
          "name": "",
          "type": "address"
        },
        {
          "internalType": "uint256",
          "name": "",
          "type": "uint256"
        },
        {
          "internalType": "bytes",
          "name": "",
          "type": "bytes"
        }
      ],
      "name": "onERC721Received",
      "outputs": [
        {
          "internalType": "bytes4",
          "name": "",
          "type": "bytes4"
        }
      ],
      "stateMutability": "nonpayable",
      "type": "function"
    },
    {
      "inputs": [
        {
          "internalType": "address",
          "name": "token",
          "type": "address"
        },
        {
          "internalType": "uint256",
          "name": "tokenId",
          "type": "uint256"
        },
        {
          "internalType": "uint256",
          "name": "price",
          "type": "uint256"
        },
        {
          "internalType": "uint256",
          "name": "amountOfTikects",
          "type": "uint256"
        }
      ],
      "name": "startLottery",
      "outputs": [
        {
          "internalType": "uint256",
          "name": "",
          "type": "uint256"
        }
      ],
      "stateMutability": "nonpayable",
      "type": "function"
    },
    {
      "inputs": [
        {
          "internalType": "uint256",
          "name": "_lotteryId",
          "type": "uint256"
        },
        {
          "internalType": "uint256",
          "name": "amountOfTicketsToBuy",
          "type": "uint256"
        }
      ],
      "name": "buyTikects",
      "outputs": [],
      "stateMutability": "payable",
      "type": "function",
      "payable": true
    },
    {
      "inputs": [
        {
          "internalType": "uint256",
          "name": "_lotteryId",
          "type": "uint256"
        }
      ],
      "name": "finaliseLottery",
      "outputs": [],
      "stateMutability": "nonpayable",
      "type": "function"
    },
    {
      "inputs": [
        {
          "internalType": "uint256",
          "name": "_lotteryId",
          "type": "uint256"
        }
      ],
      "name": "getBuyers",
      "outputs": [
        {
          "internalType": "address[]",
          "name": "",
          "type": "address[]"
        }
      ],
      "stateMutability": "view",
      "type": "function",
      "constant": true
    },
    {
      "inputs": [
        {
          "internalType": "uint256",
          "name": "_lotteryId",
          "type": "uint256"
        }
      ],
      "name": "getTicketsLeft",
      "outputs": [
        {
          "internalType": "uint256",
          "name": "",
          "type": "uint256"
        }
      ],
      "stateMutability": "view",
      "type": "function",
      "constant": true
    },
    {
      "inputs": [
        {
          "internalType": "uint256",
          "name": "_lotteryId",
          "type": "uint256"
        }
      ],
      "name": "isLotteryFinalised",
      "outputs": [
        {
          "internalType": "bool",
          "name": "",
          "type": "bool"
        }
      ],
      "stateMutability": "view",
      "type": "function",
      "constant": true
    }
  ],
  "bytecode": "0x6080604052600160025534801561001557600080fd5b50610e40806100256000396000f3fe6080604052600436106100865760003560e01c80637feafd20116100595780637feafd2014610249578063a56c49ab146102c3578063b539e030146102ff578063bd36cdc314610329578063e580f47b1461036e57610086565b80631398e0761461008b578063150b7a02146100f65780632934855f146101e65780637880027214610224575b600080fd5b34801561009757600080fd5b506100b5600480360360208110156100ae57600080fd5b5035610383565b604080516001600160a01b0397881681526020810196909652858101949094526060850192909252608084015290921660a082015290519081900360c00190f35b34801561010257600080fd5b506101c96004803603608081101561011957600080fd5b6001600160a01b0382358116926020810135909116916040820135919081019060808101606082013564010000000081111561015457600080fd5b82018360208201111561016657600080fd5b8035906020019184600183028401116401000000008311171561018857600080fd5b91908080601f0160208091040260200160405190810160405280939291908181526020018383808284376000920191909152509295506103c3945050505050565b604080516001600160e01b03199092168252519081900360200190f35b3480156101f257600080fd5b506102106004803603602081101561020957600080fd5b50356103d3565b604080519115158252519081900360200190f35b6102476004803603604081101561023a57600080fd5b5080359060200135610450565b005b34801561025557600080fd5b506102736004803603602081101561026c57600080fd5b5035610631565b60408051602080825283518183015283519192839290830191858101910280838360005b838110156102af578181015183820152602001610297565b505050509050019250505060405180910390f35b3480156102cf57600080fd5b506102ed600480360360208110156102e657600080fd5b503561069d565b60408051918252519081900360200190f35b34801561030b57600080fd5b506102476004803603602081101561032257600080fd5b5035610705565b34801561033557600080fd5b506102ed6004803603608081101561034c57600080fd5b506001600160a01b0381351690602081013590604081013590606001356108cf565b34801561037a57600080fd5b506102ed6109db565b6000602081905290815260409020805460018201546002830154600384015460048501546005909501546001600160a01b03948516959394929391921686565b630a85bd0160e11b949350505050565b600081815260208181526040808320815160c08101835281546001600160a01b03908116825260018301549482019490945260028201549281019290925260038101546060830152600481015460808301526005015490911660a082015261043b90826109e1565b1561044757600061044a565b60015b92915050565b60008281526020818152604091829020825160c08101845281546001600160a01b0390811682526001830154938201939093526002820154938101939093526003810154606084015260048101546080840152600501541660a08201819052349033906104fc576040805162461bcd60e51b81526020600482015260156024820152741b1bdd1d195c9e48191bd95cdb89dd08195e1a5cdd605a1b604482015290519081900360640190fd5b61050f8461050985610a0f565b90610a2c565b8214610562576040805162461bcd60e51b815260206004820152601a60248201527f77726f6e6720616d6f756e74206f66206d6f6e65792073656e74000000000000604482015290519081900360640190fd5b600061056e84866109e1565b60808501519091506105809086610a85565b6000878152602081905260408120600401919091555b858110156105dc576000878152600160208181526040832080548084018255908452922090910180546001600160a01b0319166001600160a01b03861617905501610596565b50604080516001600160a01b038416815260208101859052808201839052905187917fc8c5c2b0e44fb6312c0098ec42642058527713d0a1d29a5c6ccbfe34d714d41e919081900360600190a2505050505050565b60008181526001602090815260409182902080548351818402810184019094528084526060939283018282801561069157602002820191906000526020600020905b81546001600160a01b03168152600190910190602001808311610673575b50505050509050919050565b600081815260208181526040808320815160c08101835281546001600160a01b03908116825260018301549482019490945260028201549281019290925260038101546060830152600481015460808301526005015490911660a082015261044a90826109e1565b60008181526020818152604091829020825160c08101845281546001600160a01b0390811682526001830154938201939093526002820154938101939093526003810154606084015260048101546080840152600501541660a0820181905233146107b7576040805162461bcd60e51b815260206004820152601c60248201527f63616e206f6e6c792062652063616c6c65642062792073656c6c657200000000604482015290519081900360640190fd5b6107c28160006109e1565b156107fe5760405162461bcd60e51b8152600401808060200182810382526028815260200180610d986028913960400191505060405180910390fd5b60608101516000838152600160205260409020541461084e5760405162461bcd60e51b815260040180806020018281038252602a815260200180610de1602a913960400191505060405180910390fd5b600061085a8383610adf565b9050610870826000015183602001513084610ba2565b6108828260a001518360400151610c28565b60408083015181516001600160a01b03841681526020810191909152815185927f96098b82fbb3aaa6d585c84b7ef573aa2ae5cdaf655c73273fbc5b5739552f45928290030190a2505050565b6000806108da610cc5565b6040805160c0810182526001600160a01b03808a16825260208083018a81528385018a8152606085018a81526000608087018181523360a089018181528b84529683905298909120965187549087166001600160a01b0319918216178855935160018801559151600287015551600386015551600485015590516005909301805493909216921691909117905590915061097687878330610ba2565b604080516001600160a01b03808a168252602082018990528183018890526060820187905283166080820152905183917fe88e0bbc792a7a49812e53b33e7e3cecf6aa40a67d916a291bc7d943acffa04d919081900360a00190a25095945050505050565b60025481565b6000610a086109fd838560800151610a8590919063ffffffff16565b606085015190610cd3565b9392505050565b600061044a82606001518360400151610d3090919063ffffffff16565b600082610a3b5750600061044a565b82820282848281610a4857fe5b0414610a085760405162461bcd60e51b8152600401808060200182810382526021815260200180610dc06021913960400191505060405180910390fd5b600082820183811015610a08576040805162461bcd60e51b815260206004820152601b60248201527f536166654d6174683a206164646974696f6e206f766572666c6f770000000000604482015290519081900360640190fd5b6000808260600151836000015184602001518560a0015142434460405160200180876001600160a01b031660601b8152601401868152602001856001600160a01b031660601b815260140184815260200183815260200182815260200196505050505050506040516020818303038152906040528051906020012060001c81610b6457fe5b069050600160008581526020019081526020016000208181548110610b8557fe5b6000918252602090912001546001600160a01b0316949350505050565b836001600160a01b03166342842e0e8383866040518463ffffffff1660e01b815260040180846001600160a01b03168152602001836001600160a01b031681526020018281526020019350505050600060405180830381600087803b158015610c0a57600080fd5b505af1158015610c1e573d6000803e3d6000fd5b5050505050505050565b6040516000906001600160a01b0384169083908381818185875af1925050503d8060008114610c73576040519150601f19603f3d011682016040523d82523d6000602084013e610c78565b606091505b5050905080610cc0576040805162461bcd60e51b815260206004820152600f60248201526e1d1c985b9cd9995c8819985a5b1959608a1b604482015290519081900360640190fd5b505050565b600280546001810190915590565b600082821115610d2a576040805162461bcd60e51b815260206004820152601e60248201527f536166654d6174683a207375627472616374696f6e206f766572666c6f770000604482015290519081900360640190fd5b50900390565b6000808211610d86576040805162461bcd60e51b815260206004820152601a60248201527f536166654d6174683a206469766973696f6e206279207a65726f000000000000604482015290519081900360640190fd5b818381610d8f57fe5b04939250505056fe7374696c6c2074686572652061726520736f6d65207469636b657473206c65667420746f20627579536166654d6174683a206d756c7469706c69636174696f6e206f766572666c6f777374696c6c2074686572652061726520736f6d65207469636b657473206c65667420746f206275792032a26469706673582212208b8fb9e18a8546805079d8cd9ea4a42df0aac92f527d15523340841b847f908264736f6c63430007060033",
  "immutableReferences": {},
  "source": "// SPDX-License-Identifier: MIT\n\npragma solidity 0.7.6;\n\nimport \"@openzeppelin/contracts-upgradeable/token/ERC721/IERC721Upgradeable.sol\";\nimport \"@openzeppelin/contracts/token/ERC721/ERC721Holder.sol\";\nimport \"@openzeppelin/contracts-upgradeable/math/SafeMathUpgradeable.sol\";\n\ncontract NFTLottery is ERC721Holder {\n    using SafeMathUpgradeable for uint;\n\n    /// @dev struct with Lottery data\n    struct Lottery {\n        address token;\n        uint256 tokenId;\n        uint256 price;\n        uint256 amountOfTikectsNeeded;\n        uint256 amountOfTikectsBought;\n        address seller;\n    }\n\n    /// @dev mapping that stores data \n    mapping (uint256 => Lottery) public lotteries;\n\n    mapping (uint256 => address[]) buyers;\n\n    /// @dev latest lotteryId\n    uint256 public lotteryId = 1;\n\n    event LotteryCreated(uint indexed lotteryId, address token, uint256 tokenId, uint256 price, uint256 amountOfTickets, address seller);\n    event TicketsBought(uint indexed lotteryId, address buyer, uint256 moneyPaid, uint256 ticketsLeft);\n    event LotteryFinalised(uint indexed lotteryId, address winner, uint256 moneyPaid);\n\n    /// @dev increments lotteryId and returns new value\n    function getNextAndIncrementLotteryId() internal returns (uint256) {\n        return lotteryId++;\n    }\n\n    function startLottery(address token, uint256 tokenId, uint256 price, uint256 amountOfTikects) external returns(uint256){\n        uint256 currentLotteryId = getNextAndIncrementLotteryId();\n        address seller = msg.sender;\n\n        lotteries[currentLotteryId] = Lottery(\n            token,\n            tokenId,\n            price,\n            amountOfTikects,\n            0,\n            seller\n        );\n\n        transferNFT(token, tokenId, seller, address(this));\n\n        emit LotteryCreated(currentLotteryId, token, tokenId, price, amountOfTikects, seller);\n        \n        return currentLotteryId;\n    }\n\n    function buyTikects(uint256 _lotteryId, uint256 amountOfTicketsToBuy) external payable {\n        Lottery memory lottery = lotteries[_lotteryId];\n        uint msgValue = msg.value;\n        address buyer = msg.sender;\n\n        require(lottery.seller != address(0), \"lottery doesn't exist\");\n        require(msgValue == (getTicketPrice(lottery).mul(amountOfTicketsToBuy)), \"wrong amount of money sent\");\n\n        uint256 ticketsLeft = howManyTicketsLeft(lottery, amountOfTicketsToBuy);\n\n        lotteries[_lotteryId].amountOfTikectsBought = lottery.amountOfTikectsBought.add(amountOfTicketsToBuy);\n\n        for (uint i = 0; i < amountOfTicketsToBuy; i++) {\n            buyers[_lotteryId].push(buyer);\n        }\n        emit TicketsBought(_lotteryId, buyer, msgValue, ticketsLeft);\n    }\n\n    function getTicketPrice(Lottery memory lottery) internal pure returns(uint256) {\n        return lottery.price.div(lottery.amountOfTikectsNeeded);\n    }\n\n    function transferNFT(address token, uint256 tokenId, address from, address to) internal {\n        IERC721Upgradeable(token).safeTransferFrom(from, to, tokenId);\n    }\n\n    function howManyTicketsLeft(Lottery memory lottery, uint256 amountOfTicketsToBuy) internal pure returns(uint256) {\n        return lottery.amountOfTikectsNeeded.sub(lottery.amountOfTikectsBought.add(amountOfTicketsToBuy));\n    }\n\n    function finaliseLottery(uint256 _lotteryId) external {\n        Lottery memory lottery = lotteries[_lotteryId];\n\n        require(lottery.seller == msg.sender, \"can only be called by seller\");\n        require(howManyTicketsLeft(lottery, 0) == 0, \"still there are some tickets left to buy\");\n        require(buyers[_lotteryId].length == lottery.amountOfTikectsNeeded, \"still there are some tickets left to buy 2\");\n\n        //getting the winner\n        address winner = getWinner(_lotteryId, lottery);\n\n        //transferring the NFT to the winner\n        transferNFT(lottery.token, lottery.tokenId, address(this), winner);\n\n        //transferring money to the seller\n        transferEth(lottery.seller, lottery.price);\n\n        emit LotteryFinalised(_lotteryId, winner, lottery.price);\n    }\n\n    function getWinner(uint256 _lotteryId, Lottery memory lottery) internal view returns(address) {\n        uint256 index = uint(keccak256(abi.encodePacked(lottery.token, lottery.tokenId, lottery.seller, block.timestamp, block.number, block.difficulty))) % lottery.amountOfTikectsNeeded;\n        return buyers[_lotteryId][index];\n    }\n\n    function getBuyers(uint256 _lotteryId) external view returns(address[] memory) {\n        return buyers[_lotteryId];\n    }\n\n    function transferEth(address to, uint value) internal {\n        (bool success,) = to.call{ value: value }(\"\");\n        require(success, \"transfer failed\");\n    }\n\n    /// @dev method that return how many tickets left in the lottery\n    function getTicketsLeft(uint256 _lotteryId) external view returns(uint256) {\n        return howManyTicketsLeft(lotteries[_lotteryId], 0);\n    }\n\n    /// @dev method that returns bool if lottery is finalised\n    function isLotteryFinalised(uint256 _lotteryId) external view returns(bool) {\n        return (howManyTicketsLeft(lotteries[_lotteryId], 0) == 0) ? true : false;\n    }\n\n}",
  "sourcePath": "@rarible/auction/contracts/NFTLottery.sol",
  "compiler": {
    "name": "solc",
    "version": "0.7.6+commit.7338295f.Emscripten.clang"
  },
  "schemaVersion": "3.4.3",
  "updatedAt": "2023-09-26T14:01:14.958Z",
  "networkType": "ethereum",
  "devdoc": {
    "kind": "dev",
    "methods": {
      "getTicketsLeft(uint256)": {
        "details": "method that return how many tickets left in the lottery"
      },
      "isLotteryFinalised(uint256)": {
        "details": "method that returns bool if lottery is finalised"
      },
      "onERC721Received(address,address,uint256,bytes)": {
        "details": "See {IERC721Receiver-onERC721Received}. Always returns `IERC721Receiver.onERC721Received.selector`."
      }
    },
    "stateVariables": {
      "lotteries": {
        "details": "mapping that stores data "
      },
      "lotteryId": {
        "details": "latest lotteryId"
      }
    },
    "version": 1
  },
  "userdoc": {
    "kind": "user",
    "methods": {},
    "version": 1
  }
}