{
  "contractName": "RaribleExchangeWrapper",
  "abi": [
    {
      "inputs": [
        {
          "internalType": "address",
          "name": "_wyvernExchange",
          "type": "address"
        },
        {
          "internalType": "address",
          "name": "_exchangeV2",
          "type": "address"
        },
        {
          "internalType": "address",
          "name": "_seaPort_1_1",
          "type": "address"
        },
        {
          "internalType": "address",
          "name": "_x2y2",
          "type": "address"
        },
        {
          "internalType": "address",
          "name": "_looksRare",
          "type": "address"
        },
        {
          "internalType": "address",
          "name": "_sudoswap",
          "type": "address"
        },
        {
          "internalType": "address",
          "name": "_seaPort_1_4",
          "type": "address"
        }
      ],
      "stateMutability": "nonpayable",
      "type": "constructor"
    },
    {
      "anonymous": false,
      "inputs": [
        {
          "indexed": false,
          "internalType": "bool",
          "name": "result",
          "type": "bool"
        }
      ],
      "name": "Execution",
      "type": "event"
    },
    {
      "anonymous": false,
      "inputs": [
        {
          "indexed": true,
          "internalType": "address",
          "name": "previousOwner",
          "type": "address"
        },
        {
          "indexed": true,
          "internalType": "address",
          "name": "newOwner",
          "type": "address"
        }
      ],
      "name": "OwnershipTransferred",
      "type": "event"
    },
    {
      "anonymous": false,
      "inputs": [
        {
          "indexed": false,
          "internalType": "bool",
          "name": "paused",
          "type": "bool"
        }
      ],
      "name": "Paused",
      "type": "event"
    },
    {
      "inputs": [],
      "name": "exchangeV2",
      "outputs": [
        {
          "internalType": "address",
          "name": "",
          "type": "address"
        }
      ],
      "stateMutability": "view",
      "type": "function",
      "constant": true
    },
    {
      "inputs": [],
      "name": "looksRare",
      "outputs": [
        {
          "internalType": "address",
          "name": "",
          "type": "address"
        }
      ],
      "stateMutability": "view",
      "type": "function",
      "constant": true
    },
    {
      "inputs": [
        {
          "internalType": "address",
          "name": "",
          "type": "address"
        },
        {
          "internalType": "address",
          "name": "",
          "type": "address"
        },
        {
          "internalType": "uint256[]",
          "name": "",
          "type": "uint256[]"
        },
        {
          "internalType": "uint256[]",
          "name": "",
          "type": "uint256[]"
        },
        {
          "internalType": "bytes",
          "name": "",
          "type": "bytes"
        }
      ],
      "name": "onERC1155BatchReceived",
      "outputs": [
        {
          "internalType": "bytes4",
          "name": "",
          "type": "bytes4"
        }
      ],
      "stateMutability": "nonpayable",
      "type": "function"
    },
    {
      "inputs": [
        {
          "internalType": "address",
          "name": "",
          "type": "address"
        },
        {
          "internalType": "address",
          "name": "",
          "type": "address"
        },
        {
          "internalType": "uint256",
          "name": "",
          "type": "uint256"
        },
        {
          "internalType": "uint256",
          "name": "",
          "type": "uint256"
        },
        {
          "internalType": "bytes",
          "name": "",
          "type": "bytes"
        }
      ],
      "name": "onERC1155Received",
      "outputs": [
        {
          "internalType": "bytes4",
          "name": "",
          "type": "bytes4"
        }
      ],
      "stateMutability": "nonpayable",
      "type": "function"
    },
    {
      "inputs": [
        {
          "internalType": "address",
          "name": "",
          "type": "address"
        },
        {
          "internalType": "address",
          "name": "",
          "type": "address"
        },
        {
          "internalType": "uint256",
          "name": "",
          "type": "uint256"
        },
        {
          "internalType": "bytes",
          "name": "",
          "type": "bytes"
        }
      ],
      "name": "onERC721Received",
      "outputs": [
        {
          "internalType": "bytes4",
          "name": "",
          "type": "bytes4"
        }
      ],
      "stateMutability": "nonpayable",
      "type": "function"
    },
    {
      "inputs": [],
      "name": "owner",
      "outputs": [
        {
          "internalType": "address",
          "name": "",
          "type": "address"
        }
      ],
      "stateMutability": "view",
      "type": "function",
      "constant": true
    },
    {
      "inputs": [
        {
          "internalType": "bool",
          "name": "_paused",
          "type": "bool"
        }
      ],
      "name": "pause",
      "outputs": [],
      "stateMutability": "nonpayable",
      "type": "function"
    },
    {
      "inputs": [],
      "name": "paused",
      "outputs": [
        {
          "internalType": "bool",
          "name": "",
          "type": "bool"
        }
      ],
      "stateMutability": "view",
      "type": "function",
      "constant": true
    },
    {
      "inputs": [],
      "name": "renounceOwnership",
      "outputs": [],
      "stateMutability": "nonpayable",
      "type": "function"
    },
    {
      "inputs": [],
      "name": "seaPort_1_1",
      "outputs": [
        {
          "internalType": "address",
          "name": "",
          "type": "address"
        }
      ],
      "stateMutability": "view",
      "type": "function",
      "constant": true
    },
    {
      "inputs": [],
      "name": "seaPort_1_4",
      "outputs": [
        {
          "internalType": "address",
          "name": "",
          "type": "address"
        }
      ],
      "stateMutability": "view",
      "type": "function",
      "constant": true
    },
    {
      "inputs": [],
      "name": "sudoswap",
      "outputs": [
        {
          "internalType": "address",
          "name": "",
          "type": "address"
        }
      ],
      "stateMutability": "view",
      "type": "function",
      "constant": true
    },
    {
      "inputs": [
        {
          "internalType": "bytes4",
          "name": "interfaceId",
          "type": "bytes4"
        }
      ],
      "name": "supportsInterface",
      "outputs": [
        {
          "internalType": "bool",
          "name": "",
          "type": "bool"
        }
      ],
      "stateMutability": "view",
      "type": "function",
      "constant": true
    },
    {
      "inputs": [
        {
          "internalType": "address",
          "name": "newOwner",
          "type": "address"
        }
      ],
      "name": "transferOwnership",
      "outputs": [],
      "stateMutability": "nonpayable",
      "type": "function"
    },
    {
      "inputs": [],
      "name": "wyvernExchange",
      "outputs": [
        {
          "internalType": "address",
          "name": "",
          "type": "address"
        }
      ],
      "stateMutability": "view",
      "type": "function",
      "constant": true
    },
    {
      "inputs": [],
      "name": "x2y2",
      "outputs": [
        {
          "internalType": "address",
          "name": "",
          "type": "address"
        }
      ],
      "stateMutability": "view",
      "type": "function",
      "constant": true
    },
    {
      "stateMutability": "payable",
      "type": "receive",
      "payable": true
    },
    {
      "inputs": [
        {
          "components": [
            {
              "internalType": "enum RaribleExchangeWrapper.Markets",
              "name": "marketId",
              "type": "uint8"
            },
            {
              "internalType": "uint256",
              "name": "amount",
              "type": "uint256"
            },
            {
              "internalType": "uint256",
              "name": "fees",
              "type": "uint256"
            },
            {
              "internalType": "bytes",
              "name": "data",
              "type": "bytes"
            }
          ],
          "internalType": "struct RaribleExchangeWrapper.PurchaseDetails",
          "name": "purchaseDetails",
          "type": "tuple"
        },
        {
          "internalType": "address",
          "name": "feeRecipientFirst",
          "type": "address"
        },
        {
          "internalType": "address",
          "name": "feeRecipientSecond",
          "type": "address"
        }
      ],
      "name": "singlePurchase",
      "outputs": [],
      "stateMutability": "payable",
      "type": "function",
      "payable": true
    },
    {
      "inputs": [
        {
          "components": [
            {
              "internalType": "enum RaribleExchangeWrapper.Markets",
              "name": "marketId",
              "type": "uint8"
            },
            {
              "internalType": "uint256",
              "name": "amount",
              "type": "uint256"
            },
            {
              "internalType": "uint256",
              "name": "fees",
              "type": "uint256"
            },
            {
              "internalType": "bytes",
              "name": "data",
              "type": "bytes"
            }
          ],
          "internalType": "struct RaribleExchangeWrapper.PurchaseDetails[]",
          "name": "purchaseDetails",
          "type": "tuple[]"
        },
        {
          "internalType": "address",
          "name": "feeRecipientFirst",
          "type": "address"
        },
        {
          "internalType": "address",
          "name": "feeRecipientSecond",
          "type": "address"
        },
        {
          "internalType": "bool",
          "name": "allowFail",
          "type": "bool"
        }
      ],
      "name": "bulkPurchase",
      "outputs": [],
      "stateMutability": "payable",
      "type": "function",
      "payable": true
    }
  ],
  "bytecode": "0x6101606040523480156200001257600080fd5b50604051620032bb380380620032bb8339810160408190526200003591620001a1565b600062000041620000f8565b600080546001600160a01b0319166001600160a01b0383169081178255604051929350917f8be0079c531659141344cd1fd0a4f28419497f9722a3daafe3b4186f6b6457e0908290a3506200009d6301ffc9a760e01b620000fc565b620000af630271189760e51b620000fc565b6001600160601b0319606097881b811660805295871b861660a05293861b851660c05291851b841660e052841b831661010052831b82166101205290911b166101405262000235565b3390565b6001600160e01b031980821614156200015c576040805162461bcd60e51b815260206004820152601c60248201527f4552433136353a20696e76616c696420696e7465726661636520696400000000604482015290519081900360640190fd5b6001600160e01b0319166000908152600160208190526040909120805460ff19169091179055565b80516001600160a01b03811681146200019c57600080fd5b919050565b600080600080600080600060e0888a031215620001bc578283fd5b620001c78862000184565b9650620001d76020890162000184565b9550620001e76040890162000184565b9450620001f76060890162000184565b9350620002076080890162000184565b92506200021760a0890162000184565b91506200022760c0890162000184565b905092959891949750929550565b60805160601c60a05160601c60c05160601c60e05160601c6101005160601c6101205160601c6101405160601c612ff0620002cb600039806106d6528061130752508061041f5280611235525080610589528061100952806110a35250806108435280610bb05280610c4652508061030452806108fe5250806105ad5280610aad5250806106fa52806109db5250612ff06000f3fe60806040526004361061010c5760003560e01c80639110c77711610095578063bd4486ee11610064578063bd4486ee14610283578063c9f0a2fa14610298578063f23a6e61146102ad578063f2fde38b146102cd578063fc40c9c7146102ed57610113565b80639110c77714610226578063a05f32dc1461023b578063b94ee33214610250578063bc197c811461026357610113565b80635c975abb116100dc5780635c975abb146101bf5780635ea1e4c9146101d4578063715018a6146101e957806386496e7a146101fe5780638da5cb5b1461021157610113565b80628534f71461011857806301ffc9a71461014357806302329a2914610170578063150b7a021461019257610113565b3661011357005b600080fd5b34801561012457600080fd5b5061012d610302565b60405161013a919061291e565b60405180910390f35b34801561014f57600080fd5b5061016361015e3660046123b5565b610326565b60405161013a919061298e565b34801561017c57600080fd5b5061019061018b366004612399565b610349565b005b34801561019e57600080fd5b506101b26101ad366004612071565b610404565b60405161013a9190612999565b3480156101cb57600080fd5b50610163610414565b3480156101e057600080fd5b5061012d61041d565b3480156101f557600080fd5b50610190610441565b61019061020c3660046124c5565b6104ff565b34801561021d57600080fd5b5061012d610578565b34801561023257600080fd5b5061012d610587565b34801561024757600080fd5b5061012d6105ab565b61019061025e3660046122de565b6105cf565b34801561026f57600080fd5b506101b261027e366004611fc8565b6106c3565b34801561028f57600080fd5b5061012d6106d4565b3480156102a457600080fd5b5061012d6106f8565b3480156102b957600080fd5b506101b26102c83660046120da565b61071c565b3480156102d957600080fd5b506101906102e8366004611fac565b61072d565b3480156102f957600080fd5b5061012d610841565b7f000000000000000000000000000000000000000000000000000000000000000081565b6001600160e01b0319811660009081526001602052604090205460ff165b919050565b610351610865565b6001600160a01b0316610362610578565b6001600160a01b0316146103bd576040805162461bcd60e51b815260206004820181905260248201527f4f776e61626c653a2063616c6c6572206973206e6f7420746865206f776e6572604482015290519081900360640190fd5b6002805482151560ff19909116811790915560408051918252517f0e2fb031ee032dc02d8011dc50b816eb450cf856abd8261680dac74f72165bd29181900360200190a150565b630a85bd0160e11b949350505050565b60025460ff1681565b7f000000000000000000000000000000000000000000000000000000000000000081565b610449610865565b6001600160a01b031661045a610578565b6001600160a01b0316146104b5576040805162461bcd60e51b815260206004820181905260248201527f4f776e61626c653a2063616c6c6572206973206e6f7420746865206f776e6572604482015290519081900360640190fd5b600080546040516001600160a01b03909116907f8be0079c531659141344cd1fd0a4f28419497f9722a3daafe3b4186f6b6457e0908390a3600080546001600160a01b0319169055565b610507610869565b60008060006105178660006108bc565b9250925092507fcc54b89ca2d75d5612023b14f0a477212b0e08bc0c5b8ad2804e2f8e2e401fc08360405161054c919061298e565b60405180910390a161055e8286611411565b6105688185611411565b61057061143c565b505050505050565b6000546001600160a01b031690565b7f000000000000000000000000000000000000000000000000000000000000000081565b7f000000000000000000000000000000000000000000000000000000000000000081565b6105d7610869565b6000806000805b87518110156106775760008060006106098b85815181106105fb57fe5b6020026020010151896108bc565b92509250925084806106185750825b94507fcc54b89ca2d75d5612023b14f0a477212b0e08bc0c5b8ad2804e2f8e2e401fc083604051610649919061298e565b60405180910390a161065b8783611450565b96506106678682611450565b95505050508060010190506105de565b508061069e5760405162461bcd60e51b815260040161069590612b92565b60405180910390fd5b6106a88387611411565b6106b28286611411565b6106ba61143c565b50505050505050565b63bc197c8160e01b95945050505050565b7f000000000000000000000000000000000000000000000000000000000000000081565b7f000000000000000000000000000000000000000000000000000000000000000081565b63f23a6e6160e01b95945050505050565b610735610865565b6001600160a01b0316610746610578565b6001600160a01b0316146107a1576040805162461bcd60e51b815260206004820181905260248201527f4f776e61626c653a2063616c6c6572206973206e6f7420746865206f776e6572604482015290519081900360640190fd5b6001600160a01b0381166107e65760405162461bcd60e51b8152600401808060200182810382526026815260200180612f746026913960400191505060405180910390fd5b600080546040516001600160a01b03808516939216917f8be0079c531659141344cd1fd0a4f28419497f9722a3daafe3b4186f6b6457e091a3600080546001600160a01b0319166001600160a01b0392909216919091179055565b7f000000000000000000000000000000000000000000000000000000000000000081565b3390565b60025460ff16156108ba576040805162461bcd60e51b81526020600482015260166024820152751d1a194818dbdb9d1c9858dd081a5cc81c185d5cd95960521b604482015290519081900360640190fd5b565b60008060008060006108db8760600151886040015189600001516114b3565b602089015191935091506002885160068111156108f457fe5b14156109c25760007f00000000000000000000000000000000000000000000000000000000000000006001600160a01b031682856040516109359190612902565b60006040518083038185875af1925050503d8060008114610972576040519150601f19603f3d011682016040523d82523d6000602084013e610977565b606091505b50509050871561099f578061099a5760008060009650965096505050505061140a565b6109bc565b806109bc5760405162461bcd60e51b815260040161069590612a8a565b506113d8565b6001885160068111156109d157fe5b1415610a945760007f00000000000000000000000000000000000000000000000000000000000000006001600160a01b03168285604051610a129190612902565b60006040518083038185875af1925050503d8060008114610a4f576040519150601f19603f3d011682016040523d82523d6000602084013e610a54565b606091505b505090508715610a77578061099a5760008060009650965096505050505061140a565b806109bc5760405162461bcd60e51b8152600401610695906129ae565b600088516006811115610aa357fe5b1415610b665760007f00000000000000000000000000000000000000000000000000000000000000006001600160a01b03168285604051610ae49190612902565b60006040518083038185875af1925050503d8060008114610b21576040519150601f19603f3d011682016040523d82523d6000602084013e610b26565b606091505b505090508715610b49578061099a5760008060009650965096505050505061140a565b806109bc5760405162461bcd60e51b815260040161069590612a53565b600388516006811115610b7557fe5b1415610fb857600083806020019051810190610b919190612526565b90508715610c2f5760405163357a150b60e01b81526001600160a01b037f0000000000000000000000000000000000000000000000000000000000000000169063357a150b908490610be7908590600401612bc9565b6000604051808303818588803b158015610c0057600080fd5b505af193505050508015610c12575060015b610c2a5760008060009650965096505050505061140a565b610cb0565b60405163357a150b60e01b81526001600160a01b037f0000000000000000000000000000000000000000000000000000000000000000169063357a150b908490610c7d908590600401612bc9565b6000604051808303818588803b158015610c9657600080fd5b505af1158015610caa573d6000803e3d6000fd5b50505050505b60005b816020015151811015610fb157600082602001518281518110610cd257fe5b6020026020010151602001519050600083602001518381518110610cf257fe5b6020026020010151604001519050600084600001518381518110610d1257fe5b602002602001015161010001518281518110610d2a57fe5b6020026020010151602001519050600085600001518481518110610d4a57fe5b602002602001015160e0015151118015610d805750600085602001518581518110610d7157fe5b602002602001015160c0015151115b15610dc657610dc68186602001518681518110610d9957fe5b602002602001015160c0015187600001518681518110610db557fe5b602002602001015160e0015161156c565b8451805184908110610dd457fe5b60200260200101516080015160011415610ea957600081806020019051810190610dfe919061221d565b905060005b8151811015610ea2576000828281518110610e1a57fe5b6020026020010151905080600001516001600160a01b03166342842e0e30610e40610865565b84602001516040518463ffffffff1660e01b8152600401610e6393929190612932565b600060405180830381600087803b158015610e7d57600080fd5b505af1158015610e91573d6000803e3d6000fd5b505060019093019250610e03915050565b5050610fa3565b8451805184908110610eb757fe5b60200260200101516080015160021415610f8b57600081806020019051810190610ee19190612140565b905060005b8151811015610ea2576000828281518110610efd57fe5b6020026020010151905080600001516001600160a01b031663f242432a30610f23610865565b846020015185604001516040518563ffffffff1660e01b8152600401610f4c9493929190612956565b600060405180830381600087803b158015610f6657600080fd5b505af1158015610f7a573d6000803e3d6000fd5b505060019093019250610ee6915050565b60405162461bcd60e51b815260040161069590612af8565b505050806001019050610cb3565b50506113d8565b600488516006811115610fc757fe5b141561121c57600080600085806020019051810190610fe691906125ee565b925092509250891561108c57604051635a72594b60e11b81526001600160a01b037f0000000000000000000000000000000000000000000000000000000000000000169063b4e4b2969086906110429087908790600401612d50565b6000604051808303818588803b15801561105b57600080fd5b505af19350505050801561106d575060015b61108757600080600098509850985050505050505061140a565b61110f565b604051635a72594b60e11b81526001600160a01b037f0000000000000000000000000000000000000000000000000000000000000000169063b4e4b2969086906110dc9087908790600401612d50565b6000604051808303818588803b1580156110f557600080fd5b505af1158015611109573d6000803e3d6000fd5b50505050505b6001600160e01b031981166339d690a360e11b141561119e5781604001516001600160a01b03166342842e0e30611144610865565b85608001516040518463ffffffff1660e01b815260040161116793929190612932565b600060405180830381600087803b15801561118157600080fd5b505af1158015611195573d6000803e3d6000fd5b50505050611214565b6001600160e01b0319811663025ceed960e61b14156111fc5781604001516001600160a01b031663f242432a306111d3610865565b85608001518660a001516040518563ffffffff1660e01b81526004016111679493929190612956565b60405162461bcd60e51b815260040161069590612b2f565b5050506113d8565b60058851600681111561122b57fe5b14156112ee5760007f00000000000000000000000000000000000000000000000000000000000000006001600160a01b0316828560405161126c9190612902565b60006040518083038185875af1925050503d80600081146112a9576040519150601f19603f3d011682016040523d82523d6000602084013e6112ae565b606091505b5050905087156112d1578061099a5760008060009650965096505050505061140a565b806109bc5760405162461bcd60e51b815260040161069590612ac1565b6006885160068111156112fd57fe5b14156113c05760007f00000000000000000000000000000000000000000000000000000000000000006001600160a01b0316828560405161133e9190612902565b60006040518083038185875af1925050503d806000811461137b576040519150601f19603f3d011682016040523d82523d6000602084013e611380565b606091505b5050905087156113a3578061099a5760008060009650965096505050505061140a565b806109bc5760405162461bcd60e51b8152600401610695906129e5565b60405162461bcd60e51b815260040161069590612a1c565b6113e68289602001516115fd565b6000806113fb8a604001518b6020015161168b565b60019950909750955050505050505b9250925092565b60008211801561142957506001600160a01b03811615155b156114385761143881836116bc565b5050565b47801561144d5761144d33826116bc565b50565b6000828201838110156114aa576040805162461bcd60e51b815260206004820152601b60248201527f536166654d6174683a206164646974696f6e206f766572666c6f770000000000604482015290519081900360640190fd5b90505b92915050565b6060806000602085901c61ffff1660018111156114cc57fe5b9050606060008260018111156114de57fe5b14156114f05786935091506115649050565b60018260018111156114fe57fe5b141561154c5760008780602001905181019061151a91906123d1565b905061152586611754565b15611540578060000151816020015194509450505050611564565b51935091506115649050565b60405162461bcd60e51b815260040161069590612b5b565b935093915050565b815183511461157a57600080fd5b805183511461158857600080fd5b60005b83518110156115f7578181815181106115a057fe5b01602001516001600160f81b031916156115ef578281815181106115c057fe5b602001015160f81c60f81b8482815181106115d757fe5b60200101906001600160f81b031916908160001a9053505b60010161158b565b50505050565b60005b825181101561168657600083828151811061161757fe5b6020026020010151111561167e57600083828151811061163357fe5b60200260200101519050600060a085848151811061164d57fe5b6020026020010151901c9050600061166e828661179090919063ffffffff16565b905061167a8184611411565b5050505b600101611600565b505050565b60008061ffff601085901c81169085166116a58583611790565b6116af8683611790565b9350935050509250929050565b6040516000906001600160a01b0384169083908381818185875af1925050503d8060008114611707576040519150601f19603f3d011682016040523d82523d6000602084013e61170c565b606091505b5050905080611686576040805162461bcd60e51b815260206004820152600f60248201526e1d1c985b9cd9995c8819985a5b1959608a1b604482015290519081900360640190fd5b6000600582600681111561176457fe5b148061177b5750600482600681111561177957fe5b145b1561178857506001610344565b506000919050565b60006114aa6127106117a285856117a8565b90611801565b6000826117b7575060006114ad565b828202828482816117c457fe5b04146114aa5760405162461bcd60e51b8152600401808060200182810382526021815260200180612f9a6021913960400191505060405180910390fd5b6000808211611857576040805162461bcd60e51b815260206004820152601a60248201527f536166654d6174683a206469766973696f6e206279207a65726f000000000000604482015290519081900360640190fd5b81838161186057fe5b049392505050565b803561034481612f3a565b805161034481612f3a565b600082601f83011261188e578081fd5b815160206118a361189e83612ed0565b612ead565b828152818101908583016040808602880185018910156118c1578687fd5b865b8681101561191c5781838b0312156118d9578788fd5b81518281018181106001600160401b03821117156118f357fe5b8352835181528684015161190681612f3a565b81880152855293850193918101916001016118c3565b509198975050505050505050565b600082601f83011261193a578081fd5b8151602061194a61189e83612ed0565b82815281810190858301855b858110156119d35781518801604080601f19838d03011215611976578889fd5b80518181016001600160401b03828210818311171561199157fe5b818452848a015183529284015192808411156119ab578b8cfd5b50506119bb8c8984860101611d1c565b81890152865250509284019290840190600101611956565b5090979650505050505050565b600082601f8301126119f0578081fd5b81516020611a0061189e83612ed0565b82815281810190858301855b858110156119d357815188016101a080601f19838d03011215611a2d578889fd5b611a3681612ead565b878301518152611a4860408401611873565b88820152606083015160408201526080830151606082015260a0830151608082015260c083015160a0820152611a8060e08401611873565b60c08201526101008301516001600160401b0380821115611a9f578b8cfd5b611aad8e8b84880101611d1c565b60e084015261012091508185015181811115611ac7578c8dfd5b611ad58f8c8389010161192a565b61010085015250506101408085015182840152610160850151818401525050611b016101808401611f9b565b610160820152611b12828401611f9b565b610180820152865250509284019290840190600101611a0c565b600082601f830112611b3c578081fd5b81516020611b4c61189e83612ed0565b82815281810190858301855b858110156119d3578151880161016080601f19838d03011215611b79578889fd5b611b8281612ead565b611b8d888401611d67565b8152604083015188820152606083015160408201526080830151606082015260a08301516080820152611bc260c08401611873565b60a082015260e0808401516001600160401b0380821115611be1578c8dfd5b611bef8f8c84890101611d1c565b60c085015261010091508186015183850152610120925082860151828501526101409150818601518385015284860151945080851115611c2d578c8dfd5b50611c3c8e8b8688010161187e565b9083015250865250509284019290840190600101611b58565b600082601f830112611c65578081fd5b81356020611c7561189e83612ed0565b8281528181019085830183850287018401881015611c91578586fd5b855b858110156119d357813584529284019290840190600101611c93565b803561034481612f4f565b805161034481612f4f565b805161034481612f5d565b600082601f830112611ce0578081fd5b8135611cee61189e82612eed565b818152846020838601011115611d02578283fd5b816020850160208301379081016020019190915292915050565b600082601f830112611d2c578081fd5b8151611d3a61189e82612eed565b818152846020838601011115611d4e578283fd5b611d5f826020830160208701612f0e565b949350505050565b80516008811061034457600080fd5b6000610200808385031215611d89578182fd5b611d9281612ead565b915050611d9e82611cba565b8152611dac60208301611873565b6020820152611dbd60408301611873565b6040820152606082015160608201526080820151608082015260a082015160a0820152611dec60c08301611873565b60c0820152611dfd60e08301611873565b60e08201526101008281015190820152610120808301519082015261014080830151908201526101608083015190820152610180808301516001600160401b03811115611e4957600080fd5b611e5585828601611d1c565b8284015250506101a0611e69818401611f9b565b908201526101c082810151908201526101e09182015191810191909152919050565b600060808284031215611e9c578081fd5b604051608081016001600160401b038282108183111715611eb957fe5b816040528293508435915060078210611ed157600080fd5b81835260208501356020840152604085013560408401526060850135915080821115611efc57600080fd5b50611f0985828601611cd0565b6060830152505092915050565b600060c08284031215611f27578081fd5b60405160c081018181106001600160401b0382111715611f4357fe5b8060405250809150825181526020830151602082015260408301516040820152606083015160608201526080830151611f7b81612f3a565b608082015260a0830151611f8e81612f4f565b60a0919091015292915050565b805160ff8116811461034457600080fd5b600060208284031215611fbd578081fd5b81356114aa81612f3a565b600080600080600060a08688031215611fdf578081fd5b8535611fea81612f3a565b94506020860135611ffa81612f3a565b935060408601356001600160401b0380821115612015578283fd5b61202189838a01611c55565b94506060880135915080821115612036578283fd5b61204289838a01611c55565b93506080880135915080821115612057578283fd5b5061206488828901611cd0565b9150509295509295909350565b60008060008060808587031215612086578182fd5b843561209181612f3a565b935060208501356120a181612f3a565b92506040850135915060608501356001600160401b038111156120c2578182fd5b6120ce87828801611cd0565b91505092959194509250565b600080600080600060a086880312156120f1578283fd5b85356120fc81612f3a565b9450602086013561210c81612f3a565b9350604086013592506060860135915060808601356001600160401b03811115612134578182fd5b61206488828901611cd0565b60006020808385031215612152578182fd5b82516001600160401b0380821115612168578384fd5b818501915085601f83011261217b578384fd5b815161218961189e82612ed0565b818152848101908486016060808502870188018b10156121a7578889fd5b8896505b8487101561220e5780828c0312156121c1578889fd5b6040805182810181811089821117156121d657fe5b825283516121e381612f3a565b8152838a01518a820152818401519181019190915284526001969096019592870192908101906121ab565b50909998505050505050505050565b6000602080838503121561222f578182fd5b82516001600160401b0380821115612245578384fd5b818501915085601f830112612258578384fd5b815161226661189e82612ed0565b818152848101908486016040808502870188018b1015612284578889fd5b8896505b8487101561220e5780828c03121561229e578889fd5b805181810181811088821117156122b157fe5b825282516122be81612f3a565b815282890151898201528452600196909601959287019290810190612288565b600080600080608085870312156122f3578182fd5b84356001600160401b03811115612308578283fd5b8501601f81018713612318578283fd5b8035602061232861189e83612ed0565b82815281810190848301875b8581101561235d5761234b8d8684358a0101611e8b565b84529284019290840190600101612334565b5050809850505061236f818901611868565b955050505061238060408601611868565b915061238e60608601611caf565b905092959194509250565b6000602082840312156123aa578081fd5b81356114aa81612f4f565b6000602082840312156123c6578081fd5b81356114aa81612f5d565b600060208083850312156123e3578182fd5b82516001600160401b03808211156123f9578384fd5b908401906040828703121561240c578384fd5b60405160408101818110838211171561242157fe5b604052825182811115612432578586fd5b61243e88828601611d1c565b8252508383015182811115612451578586fd5b80840193505086601f840112612465578485fd5b8251915061247561189e83612ed0565b82815284810190848601868502860187018a1015612491578788fd5b8795505b848610156124b3578051835260019590950194918601918601612495565b50948201949094529695505050505050565b6000806000606084860312156124d9578081fd5b83356001600160401b038111156124ee578182fd5b6124fa86828701611e8b565b935050602084013561250b81612f3a565b9150604084013561251b81612f3a565b809150509250925092565b600060208284031215612537578081fd5b81516001600160401b038082111561254d578283fd5b908301906101608286031215612561578283fd5b61256b60c0612ead565b825182811115612579578485fd5b612585878286016119e0565b825250602083015182811115612599578485fd5b6125a587828601611b2c565b6020830152506125b88660408501611f16565b6040820152610100830151606082015261012083015160808201526125e06101408401611f9b565b60a082015295945050505050565b600080600060608486031215612602578081fd5b83516001600160401b0380821115612618578283fd5b9085019060c0828803121561262b578283fd5b60405160c08101818110838211171561264057fe5b60405261264c83611cba565b815261265a60208401611873565b602082015260408301516040820152606083015160608201526080830151608082015260a08301518281111561268e578485fd5b61269a89828601611d1c565b60a08301525060208701519095509150808211156126b6578283fd5b506126c386828701611d76565b9250506126d260408501611cc5565b90509250925092565b6001600160a01b03169052565b6000815180845260208085019450808401835b8381101561272b578151805188528301516001600160a01b031683880152604090960195908201906001016126fb565b509495945050505050565b6000815180845260208085018081965082840281019150828601855b85811015612790578284038952815180518552850151604086860181905261277c8187018361287f565b9a87019a9550505090840190600101612752565b5091979650505050505050565b6000815180845260208085019450848183028601828601855b858110156119d357838303895281516101606127d38583516128ab565b818701518588015260408083015190860152606080830151908601526080808301519086015260a08083015161280b828801826126db565b505060c08083015182828801526128248388018261287f565b60e0858101519089015261010080860151908901526101208086015190890152610140948501518882039589019590955292506128659150829050836126e8565b9a87019a94505050908401906001016127b6565b15159052565b60008151808452612897816020860160208601612f0e565b601f01601f19169290920160200192915050565b600881106128b557fe5b9052565b805182526020808201519083015260408082015190830152606080820151908301526080808201516001600160a01b03169083015260a0908101511515910152565b60ff169052565b60008251612914818460208701612f0e565b9190910192915050565b6001600160a01b0391909116815260200190565b6001600160a01b039384168152919092166020820152604081019190915260600190565b6001600160a01b0394851681529290931660208301526040820152606081019190915260a06080820181905260009082015260c00190565b901515815260200190565b6001600160e01b031991909116815260200190565b6020808252601e908201527f50757263686173652077797665726e45786368616e6765206661696c65640000604082015260600190565b6020808252601b908201527f507572636861736520536561506f72745f315f34206661696c65640000000000604082015260600190565b60208082526018908201527f556e6b6e6f776e2070757263686173652064657461696c730000000000000000604082015260600190565b60208082526017908201527f50757263686173652072617269626c65206661696c6564000000000000000000604082015260600190565b6020808252601b908201527f507572636861736520536561506f72745f315f31206661696c65640000000000604082015260600190565b60208082526018908201527f5075726368617365207375646f73776170206661696c65640000000000000000604082015260600190565b60208082526019908201527f756e6b6e6f776e2064656c656761746554797065207832793200000000000000604082015260600190565b602080825260129082015271556e6b6e6f776e20746f6b656e207479706560701b604082015260600190565b6020808252601a908201527f756e6b6e6f776e206164646974696f6e616c4461746154797065000000000000604082015260600190565b60208082526018908201527f6e6f207375636365737366756c20657865637574696f6e730000000000000000604082015260600190565b60006020808352610180808401855161016080858801528282518085526101a094508489019150848782028a01018785019450885b82811015612ce6578a820361019f1901845285518051835289810151612c268b8501826126db565b5060408181015190840152606080820151908401526080808201519084015260a0808201519084015260c080820151612c61828601826126db565b505060e0808201518982860152612c7a8a86018261287f565b9150506101008083015185830382870152612c958382612736565b9250505061012080830151818601525061014080830151818601525086820151612cc1888601826128fb565b509089015190612cd3848b01836128fb565b968a0196948a0194925050600101612bfe565b50968a0151898803601f190160408b015296612d02818961279d565b975050505060408801519350612d1b60608801856128b9565b6060880151610120880152608088015161014088015260a08801519350612d44818801856128fb565b50929695505050505050565b60006040825261010084511515604084015260018060a01b03602086015116606084015260408501516080840152606085015160a0840152608085015160c084015260a085015160c060e0850152612daa8285018261287f565b90508381036020850152610200612dc2828751612879565b6020860151612dd460208401826126db565b506040860151612de760408401826126db565b50606086015160608301526080860151608083015260a086015160a083015260c0860151612e1860c08401826126db565b5060e0860151612e2b60e08401826126db565b50858301519282019290925261012080860151908201526101408086015190820152610160808601519082015261018080860151818301849052909290612e748284018261287f565b935050506101a080860151612e8b828401826128fb565b50506101c085810151908201526101e094850151940193909352509092915050565b6040518181016001600160401b0381118282101715612ec857fe5b604052919050565b60006001600160401b03821115612ee357fe5b5060209081020190565b60006001600160401b03821115612f0057fe5b50601f01601f191660200190565b60005b83811015612f29578181015183820152602001612f11565b838111156115f75750506000910152565b6001600160a01b038116811461144d57600080fd5b801515811461144d57600080fd5b6001600160e01b03198116811461144d57600080fdfe4f776e61626c653a206e6577206f776e657220697320746865207a65726f2061646472657373536166654d6174683a206d756c7469706c69636174696f6e206f766572666c6f77a264697066735822122079e76143a9aaa09559e992c68836dc922ba70d33a13312c3130d60d76ed2b8a064736f6c63430007060033",
  "immutableReferences": {
    "11375": [
      {
        "length": 32,
        "start": 1786
      },
      {
        "length": 32,
        "start": 2523
      }
    ],
    "11377": [
      {
        "length": 32,
        "start": 1453
      },
      {
        "length": 32,
        "start": 2733
      }
    ],
    "11379": [
      {
        "length": 32,
        "start": 772
      },
      {
        "length": 32,
        "start": 2302
      }
    ],
    "11381": [
      {
        "length": 32,
        "start": 2115
      },
      {
        "length": 32,
        "start": 2992
      },
      {
        "length": 32,
        "start": 3142
      }
    ],
    "11383": [
      {
        "length": 32,
        "start": 1417
      },
      {
        "length": 32,
        "start": 4105
      },
      {
        "length": 32,
        "start": 4259
      }
    ],
    "11385": [
      {
        "length": 32,
        "start": 1055
      },
      {
        "length": 32,
        "start": 4661
      }
    ],
    "11387": [
      {
        "length": 32,
        "start": 1750
      },
      {
        "length": 32,
        "start": 4871
      }
    ]
  },
  "source": "// SPDX-License-Identifier: MIT\n\npragma solidity 0.7.6;\npragma abicoder v2;\n\nimport \"@rarible/transfer-manager/contracts/lib/LibTransfer.sol\";\nimport \"@rarible/lib-bp/contracts/BpLibrary.sol\";\nimport \"@rarible/lib-part/contracts/LibPart.sol\";\n\nimport \"@openzeppelin/contracts/math/SafeMath.sol\";\n\nimport \"@openzeppelin/contracts/token/ERC721/ERC721Holder.sol\";\nimport \"@openzeppelin/contracts/token/ERC1155/ERC1155Holder.sol\";\n\nimport \"./interfaces/IWyvernExchange.sol\";\nimport \"./interfaces/IExchangeV2.sol\";\nimport \"./interfaces/ISeaPort.sol\";\nimport \"./interfaces/Ix2y2.sol\";\nimport \"./interfaces/ILooksRare.sol\";\n\nimport \"./libraries/IsPausable.sol\";\n\ncontract RaribleExchangeWrapper is Ownable, ERC721Holder, ERC1155Holder, IsPausable {\n    using LibTransfer for address;\n    using BpLibrary for uint;\n    using SafeMath for uint;\n\n    address public immutable wyvernExchange;\n    address public immutable exchangeV2;\n    address public immutable seaPort_1_1;\n    address public immutable x2y2;\n    address public immutable looksRare;\n    address public immutable sudoswap;\n    address public immutable seaPort_1_4;\n\n    event Execution(bool result);\n\n    enum Markets {\n        ExchangeV2,\n        WyvernExchange,\n        SeaPort_1_1,\n        X2Y2,\n        LooksRareOrders,\n        SudoSwap,\n        SeaPort_1_4\n    }\n\n    enum AdditionalDataTypes {\n        NoAdditionalData,\n        RoyaltiesAdditionalData\n    }\n\n    /**\n        @notice struct for the purchase data\n        @param marketId - market key from Markets enum (what market to use)\n        @param amount - eth price (amount of eth that needs to be send to the marketplace)\n        @param fees - 2 fees (in base points) that are going to be taken on top of order amount encoded in 1 uint256\n                        bytes (27,28) used for dataType\n                        bytes (29,30) used for the first value (goes to feeRecipientFirst)\n                        bytes (31,32) are used for the second value (goes to feeRecipientSecond)\n        @param data - data for market call\n     */\n    struct PurchaseDetails {\n        Markets marketId;\n        uint256 amount;\n        uint fees;\n        bytes data;\n    }\n\n    /**\n        @notice struct for the data with additional Ddta\n        @param data - data for market call\n        @param additionalRoyalties - array additional Royalties (in base points plus address Royalty recipient)\n     */\n    struct AdditionalData {\n        bytes data;\n        uint[] additionalRoyalties;\n    }\n\n    constructor(\n        address _wyvernExchange,\n        address _exchangeV2,\n        address _seaPort_1_1,\n        address _x2y2,\n        address _looksRare,\n        address _sudoswap,\n        address _seaPort_1_4\n    ) {\n        wyvernExchange = _wyvernExchange;\n        exchangeV2 = _exchangeV2;\n        seaPort_1_1 = _seaPort_1_1;\n        x2y2 = _x2y2;\n        looksRare = _looksRare;\n        sudoswap = _sudoswap;\n        seaPort_1_4 = _seaPort_1_4;\n    }\n\n    /**\n        @notice executes a single purchase\n        @param purchaseDetails - deatails about the purchase (more info in PurchaseDetails struct)\n        @param feeRecipientFirst - address of the first fee recipient\n        @param feeRecipientSecond - address of the second fee recipient\n     */\n    function singlePurchase(PurchaseDetails memory purchaseDetails, address feeRecipientFirst, address feeRecipientSecond) external payable {\n        requireNotPaused();\n\n        (bool success, uint feeAmountFirst, uint feeAmountSecond) = purchase(purchaseDetails, false);\n        emit Execution(success);\n        \n        transferFee(feeAmountFirst, feeRecipientFirst);\n        transferFee(feeAmountSecond, feeRecipientSecond);\n\n        transferChange();\n    }\n\n    /**\n        @notice executes an array of purchases\n        @param purchaseDetails - array of deatails about the purchases (more info in PurchaseDetails struct)\n        @param feeRecipientFirst - address of the first fee recipient\n        @param feeRecipientSecond - address of the second fee recipient\n        @param allowFail - true if fails while executing orders are allowed, false if fail of a single order means fail of the whole batch\n     */\n    \n    function bulkPurchase(PurchaseDetails[] memory purchaseDetails, address feeRecipientFirst, address feeRecipientSecond, bool allowFail) external payable {\n        requireNotPaused();\n\n        uint sumFirstFees = 0;\n        uint sumSecondFees = 0;\n        bool result = false;\n\n        for (uint i = 0; i < purchaseDetails.length; ++i) {\n            (bool success, uint firstFeeAmount, uint secondFeeAmount) = purchase(purchaseDetails[i], allowFail);\n\n            result = result || success;\n            emit Execution(success);\n\n            sumFirstFees = sumFirstFees.add(firstFeeAmount);\n            sumSecondFees = sumSecondFees.add(secondFeeAmount);\n        }\n\n        require(result, \"no successful executions\");\n\n        transferFee(sumFirstFees, feeRecipientFirst);\n        transferFee(sumSecondFees, feeRecipientSecond);\n\n        transferChange();\n    }\n\n    /**\n        @notice executes one purchase\n        @param purchaseDetails - details about the purchase\n        @param allowFail - true if errors are handled, false if revert on errors\n        @return result false if execution failed, true if succeded\n        @return firstFeeAmount amount of the first fee of the purchase, 0 if failed\n        @return secondFeeAmount amount of the second fee of the purchase, 0 if failed\n     */\n    function purchase(PurchaseDetails memory purchaseDetails, bool allowFail) internal returns(bool, uint, uint) {\n        (bytes memory marketData, uint[] memory additionalRoyalties) = getDataAndAdditionalData (purchaseDetails.data, purchaseDetails.fees, purchaseDetails.marketId);\n        uint paymentAmount = purchaseDetails.amount;\n        if (purchaseDetails.marketId == Markets.SeaPort_1_1){\n            (bool success,) = address(seaPort_1_1).call{value : paymentAmount}(marketData);\n            if (allowFail) {\n                if (!success) {\n                    return (false, 0, 0);\n                }\n            } else {\n                require(success, \"Purchase SeaPort_1_1 failed\");\n            }\n        } else if (purchaseDetails.marketId == Markets.WyvernExchange) {\n            (bool success,) = address(wyvernExchange).call{value : paymentAmount}(marketData);\n            if (allowFail) {\n                if (!success) {\n                    return (false, 0, 0);\n                }\n            } else {\n                require(success, \"Purchase wyvernExchange failed\");\n            }\n        } else if (purchaseDetails.marketId == Markets.ExchangeV2) {\n            (bool success,) = address(exchangeV2).call{value : paymentAmount}(marketData);\n            if (allowFail) {\n                if (!success) {\n                    return (false, 0, 0);\n                }\n            } else {\n                require(success, \"Purchase rarible failed\");\n            }\n        } else if (purchaseDetails.marketId == Markets.X2Y2) {\n            Ix2y2.RunInput memory input = abi.decode(marketData, (Ix2y2.RunInput));\n\n            if (allowFail) {\n                try Ix2y2(x2y2).run{value : paymentAmount}(input) {\n                } catch {\n                    return (false, 0, 0);\n                }\n            } else {\n                Ix2y2(x2y2).run{value : paymentAmount}(input);\n            }\n\n            //for every element in input.details[] getting\n            // order = input.details[i].orderIdx\n            // and from that order getting item = input.details[i].itemId\n            for (uint i = 0; i < input.details.length; ++i) {\n                uint orderId = input.details[i].orderIdx;\n                uint itemId = input.details[i].itemIdx;\n                bytes memory data = input.orders[orderId].items[itemId].data;\n                {\n                    if (input.orders[orderId].dataMask.length > 0 && input.details[i].dataReplacement.length > 0) {\n                        _arrayReplace(data, input.details[i].dataReplacement, input.orders[orderId].dataMask);\n                    }\n                }\n\n                // 1 = erc-721\n                if (input.orders[orderId].delegateType == 1) {\n                    Ix2y2.Pair721[] memory pairs = abi.decode(data, (Ix2y2.Pair721[]));\n\n                    for (uint256 j = 0; j < pairs.length; j++) {\n                        Ix2y2.Pair721 memory p = pairs[j];\n                        IERC721Upgradeable(address(p.token)).safeTransferFrom(address(this), _msgSender(), p.tokenId);\n                    }\n                } else if (input.orders[orderId].delegateType == 2) {\n                    // 2 = erc-1155\n                    Ix2y2.Pair1155[] memory pairs = abi.decode(data, (Ix2y2.Pair1155[]));\n\n                    for (uint256 j = 0; j < pairs.length; j++) {\n                        Ix2y2.Pair1155 memory p = pairs[j];\n                        IERC1155Upgradeable(address(p.token)).safeTransferFrom(address(this),  _msgSender(), p.tokenId, p.amount, \"\");\n                    }\n                } else {\n                    revert(\"unknown delegateType x2y2\");\n                }\n            }\n        } else if (purchaseDetails.marketId == Markets.LooksRareOrders) {\n            (LibLooksRare.TakerOrder memory takerOrder, LibLooksRare.MakerOrder memory makerOrder, bytes4 typeNft) = abi.decode(marketData, (LibLooksRare.TakerOrder, LibLooksRare.MakerOrder, bytes4));\n            if (allowFail) {\n                try ILooksRare(looksRare).matchAskWithTakerBidUsingETHAndWETH{value : paymentAmount}(takerOrder, makerOrder) {\n                }   catch {\n                    return (false, 0, 0);\n                }\n            } else {\n                ILooksRare(looksRare).matchAskWithTakerBidUsingETHAndWETH{value : paymentAmount}(takerOrder, makerOrder);\n            }\n            if (typeNft == LibAsset.ERC721_ASSET_CLASS) {\n                IERC721Upgradeable(makerOrder.collection).safeTransferFrom(address(this), _msgSender(), makerOrder.tokenId);\n            } else if (typeNft == LibAsset.ERC1155_ASSET_CLASS) {\n                IERC1155Upgradeable(makerOrder.collection).safeTransferFrom(address(this), _msgSender(), makerOrder.tokenId, makerOrder.amount, \"\");\n            } else {\n                revert(\"Unknown token type\");\n            }\n        } else if (purchaseDetails.marketId == Markets.SudoSwap) {\n            (bool success,) = address(sudoswap).call{value : paymentAmount}(marketData);\n            if (allowFail) {\n                if (!success) {\n                    return (false, 0, 0);\n                }\n            } else {\n                require(success, \"Purchase sudoswap failed\");\n            }\n        } else if (purchaseDetails.marketId == Markets.SeaPort_1_4){\n            (bool success,) = address(seaPort_1_4).call{value : paymentAmount}(marketData);\n            if (allowFail) {\n                if (!success) {\n                    return (false, 0, 0);\n                }\n            } else {\n                require(success, \"Purchase SeaPort_1_4 failed\");\n            }\n        } else {\n            revert(\"Unknown purchase details\");\n        }\n\n        //transferring royalties\n        transferAdditionalRoyalties(additionalRoyalties, purchaseDetails.amount);\n        \n        (uint firstFeeAmount, uint secondFeeAmount) = getFees(purchaseDetails.fees, purchaseDetails.amount);\n        return (true, firstFeeAmount, secondFeeAmount);\n    }\n\n    /**\n        @notice transfers fee to feeRecipient\n        @param feeAmount - amount to be transfered\n        @param feeRecipient - address of the recipient\n     */\n    function transferFee(uint feeAmount, address feeRecipient) internal {\n        if (feeAmount > 0 && feeRecipient != address(0)) {\n            LibTransfer.transferEth(feeRecipient, feeAmount);\n        }\n    }\n\n    /**\n        @notice transfers change back to sender\n     */\n    function transferChange() internal {\n        uint ethAmount = address(this).balance;\n        if (ethAmount > 0) {\n            address(msg.sender).transferEth(ethAmount);\n        }\n    }\n\n    /**\n        @notice parses fees in base points from one uint and calculates real amount of fees\n        @param fees two fees encoded in one uint, 29 and 30 bytes are used for the first fee, 31 and 32 bytes for second fee\n        @param amount price of the order\n        @return firstFeeAmount real amount for the first fee\n        @return secondFeeAmount real amount for the second fee\n     */\n    function getFees(uint fees, uint amount) internal pure returns(uint, uint) {\n        uint firstFee = uint(uint16(fees >> 16));\n        uint secondFee = uint(uint16(fees));\n        return (amount.bp(firstFee), amount.bp(secondFee));\n    }\n\n    /**\n        @notice parses _data to data for market call and additionalData\n        @param feesAndDataType 27 and 28 bytes for dataType\n        @return marketData data for market call\n        @return additionalRoyalties array uint256, (base point + address)\n     */\n    function getDataAndAdditionalData (bytes memory _data, uint feesAndDataType, Markets marketId) internal pure returns (bytes memory, uint[] memory) {\n        AdditionalDataTypes dataType = AdditionalDataTypes(uint16(feesAndDataType >> 32));\n        uint[] memory additionalRoyalties;\n\n        //return no royalties if wrong data type\n        if (dataType == AdditionalDataTypes.NoAdditionalData) {\n            return (_data, additionalRoyalties);\n        }\n\n        if (dataType == AdditionalDataTypes.RoyaltiesAdditionalData) {\n            AdditionalData memory additionalData = abi.decode(_data, (AdditionalData));\n\n            //return no royalties if market doesn't support royalties\n            if (supportsRoyalties(marketId)) {\n                return (additionalData.data, additionalData.additionalRoyalties);\n            } else {\n                return (additionalData.data, additionalRoyalties);\n            } \n        }\n        \n        revert(\"unknown additionalDataType\");\n    }\n\n    /**\n        @notice transfer additional royalties\n        @param _additionalRoyalties array uint256 (base point + royalty recipient address)\n     */\n    function transferAdditionalRoyalties (uint[] memory _additionalRoyalties, uint amount) internal {\n        for (uint i = 0; i < _additionalRoyalties.length; ++i) {\n            if (_additionalRoyalties[i] > 0) {\n                address payable account = payable(address(_additionalRoyalties[i]));\n                uint basePoint = uint(_additionalRoyalties[i] >> 160);\n                uint value = amount.bp(basePoint);\n                transferFee(value, account);\n            }\n        }\n    }\n\n    // modifies `src`\n    function _arrayReplace(\n        bytes memory src,\n        bytes memory replacement,\n        bytes memory mask\n    ) internal view virtual {\n        require(src.length == replacement.length);\n        require(src.length == mask.length);\n\n        for (uint256 i = 0; i < src.length; ++i) {\n            if (mask[i] != 0) {\n                src[i] = replacement[i];\n            }\n        }\n    }\n\n    /**\n        @notice returns true if this contract supports additional royalties for the marketplace\n        now royalties are supported for:\n          1. SudoSwap\n          2. LooksRare\n    */\n    function supportsRoyalties(Markets marketId) internal pure returns (bool){\n        if (\n            marketId == Markets.SudoSwap ||\n            marketId == Markets.LooksRareOrders\n        ) {\n            return true;\n        }\n\n        return false;\n    }\n\n    receive() external payable {}\n}",
  "sourcePath": "@rarible/exchange-wrapper/contracts/RaribleExchangeWrapper.sol",
  "compiler": {
    "name": "solc",
    "version": "0.7.6+commit.7338295f.Emscripten.clang"
  },
  "schemaVersion": "3.4.3",
  "updatedAt": "2023-03-09T10:33:13.855Z",
  "networkType": "ethereum",
  "devdoc": {
    "kind": "dev",
    "methods": {
      "bulkPurchase((uint8,uint256,uint256,bytes)[],address,address,bool)": {
        "params": {
          "allowFail": "- true if fails while executing orders are allowed, false if fail of a single order means fail of the whole batch",
          "feeRecipientFirst": "- address of the first fee recipient",
          "feeRecipientSecond": "- address of the second fee recipient",
          "purchaseDetails": "- array of deatails about the purchases (more info in PurchaseDetails struct)"
        }
      },
      "onERC721Received(address,address,uint256,bytes)": {
        "details": "See {IERC721Receiver-onERC721Received}. Always returns `IERC721Receiver.onERC721Received.selector`."
      },
      "owner()": {
        "details": "Returns the address of the current owner."
      },
      "renounceOwnership()": {
        "details": "Leaves the contract without owner. It will not be possible to call `onlyOwner` functions anymore. Can only be called by the current owner. NOTE: Renouncing ownership will leave the contract without an owner, thereby removing any functionality that is only available to the owner."
      },
      "singlePurchase((uint8,uint256,uint256,bytes),address,address)": {
        "params": {
          "feeRecipientFirst": "- address of the first fee recipient",
          "feeRecipientSecond": "- address of the second fee recipient",
          "purchaseDetails": "- deatails about the purchase (more info in PurchaseDetails struct)"
        }
      },
      "supportsInterface(bytes4)": {
        "details": "See {IERC165-supportsInterface}. Time complexity O(1), guaranteed to always use less than 30 000 gas."
      },
      "transferOwnership(address)": {
        "details": "Transfers ownership of the contract to a new account (`newOwner`). Can only be called by the current owner."
      }
    },
    "version": 1
  },
  "userdoc": {
    "kind": "user",
    "methods": {
      "bulkPurchase((uint8,uint256,uint256,bytes)[],address,address,bool)": {
        "notice": "executes an array of purchases"
      },
      "singlePurchase((uint8,uint256,uint256,bytes),address,address)": {
        "notice": "executes a single purchase"
      }
    },
    "version": 1
  }
}