{
  "contractName": "RariMineV3",
  "abi": [
    {
      "anonymous": false,
      "inputs": [
        {
          "indexed": true,
          "internalType": "address",
          "name": "owner",
          "type": "address"
        },
        {
          "indexed": false,
          "internalType": "uint256",
          "name": "value",
          "type": "uint256"
        }
      ],
      "name": "Claim",
      "type": "event"
    },
    {
      "anonymous": false,
      "inputs": [
        {
          "indexed": true,
          "internalType": "address",
          "name": "previousOwner",
          "type": "address"
        },
        {
          "indexed": true,
          "internalType": "address",
          "name": "newOwner",
          "type": "address"
        }
      ],
      "name": "OwnershipTransferred",
      "type": "event"
    },
    {
      "anonymous": false,
      "inputs": [
        {
          "indexed": true,
          "internalType": "uint256",
          "name": "newClaimCliffWeeks",
          "type": "uint256"
        }
      ],
      "name": "SetClaimCliffWeeks",
      "type": "event"
    },
    {
      "anonymous": false,
      "inputs": [
        {
          "indexed": true,
          "internalType": "uint256",
          "name": "newClaimFormulaClaim",
          "type": "uint256"
        }
      ],
      "name": "SetClaimFormulaClaim",
      "type": "event"
    },
    {
      "anonymous": false,
      "inputs": [
        {
          "indexed": true,
          "internalType": "uint256",
          "name": "newClaimSlopeWeeks",
          "type": "uint256"
        }
      ],
      "name": "SetClaimSlopeWeeks",
      "type": "event"
    },
    {
      "anonymous": false,
      "inputs": [
        {
          "indexed": true,
          "internalType": "address",
          "name": "newStaking",
          "type": "address"
        }
      ],
      "name": "SetNewStaking",
      "type": "event"
    },
    {
      "anonymous": false,
      "inputs": [
        {
          "indexed": true,
          "internalType": "address",
          "name": "newTokenOwner",
          "type": "address"
        }
      ],
      "name": "SetNewTokenOwner",
      "type": "event"
    },
    {
      "anonymous": false,
      "inputs": [
        {
          "indexed": true,
          "internalType": "address",
          "name": "owner",
          "type": "address"
        },
        {
          "indexed": false,
          "internalType": "uint256",
          "name": "value",
          "type": "uint256"
        }
      ],
      "name": "Value",
      "type": "event"
    },
    {
      "inputs": [],
      "name": "VERSION",
      "outputs": [
        {
          "internalType": "uint8",
          "name": "",
          "type": "uint8"
        }
      ],
      "stateMutability": "view",
      "type": "function",
      "constant": true
    },
    {
      "inputs": [],
      "name": "claimCliffWeeks",
      "outputs": [
        {
          "internalType": "uint256",
          "name": "",
          "type": "uint256"
        }
      ],
      "stateMutability": "view",
      "type": "function",
      "constant": true
    },
    {
      "inputs": [],
      "name": "claimFormulaClaim",
      "outputs": [
        {
          "internalType": "uint256",
          "name": "",
          "type": "uint256"
        }
      ],
      "stateMutability": "view",
      "type": "function",
      "constant": true
    },
    {
      "inputs": [],
      "name": "claimSlopeWeeks",
      "outputs": [
        {
          "internalType": "uint256",
          "name": "",
          "type": "uint256"
        }
      ],
      "stateMutability": "view",
      "type": "function",
      "constant": true
    },
    {
      "inputs": [
        {
          "internalType": "address",
          "name": "",
          "type": "address"
        }
      ],
      "name": "claimed",
      "outputs": [
        {
          "internalType": "uint256",
          "name": "",
          "type": "uint256"
        }
      ],
      "stateMutability": "view",
      "type": "function",
      "constant": true
    },
    {
      "inputs": [],
      "name": "owner",
      "outputs": [
        {
          "internalType": "address",
          "name": "",
          "type": "address"
        }
      ],
      "stateMutability": "view",
      "type": "function",
      "constant": true
    },
    {
      "inputs": [],
      "name": "renounceOwnership",
      "outputs": [],
      "stateMutability": "nonpayable",
      "type": "function"
    },
    {
      "inputs": [],
      "name": "staking",
      "outputs": [
        {
          "internalType": "contract IStaking",
          "name": "",
          "type": "address"
        }
      ],
      "stateMutability": "view",
      "type": "function",
      "constant": true
    },
    {
      "inputs": [],
      "name": "token",
      "outputs": [
        {
          "internalType": "contract IERC20Upgradeable",
          "name": "",
          "type": "address"
        }
      ],
      "stateMutability": "view",
      "type": "function",
      "constant": true
    },
    {
      "inputs": [],
      "name": "tokenOwner",
      "outputs": [
        {
          "internalType": "address",
          "name": "",
          "type": "address"
        }
      ],
      "stateMutability": "view",
      "type": "function",
      "constant": true
    },
    {
      "inputs": [
        {
          "internalType": "address",
          "name": "newOwner",
          "type": "address"
        }
      ],
      "name": "transferOwnership",
      "outputs": [],
      "stateMutability": "nonpayable",
      "type": "function"
    },
    {
      "inputs": [
        {
          "internalType": "contract IERC20Upgradeable",
          "name": "_token",
          "type": "address"
        },
        {
          "internalType": "address",
          "name": "_tokenOwner",
          "type": "address"
        },
        {
          "internalType": "contract IStaking",
          "name": "_staking",
          "type": "address"
        },
        {
          "internalType": "uint256",
          "name": "_claimCliffWeeks",
          "type": "uint256"
        },
        {
          "internalType": "uint256",
          "name": "_claimSlopeWeeks",
          "type": "uint256"
        },
        {
          "internalType": "uint256",
          "name": "_claimFormulaClaim",
          "type": "uint256"
        }
      ],
      "name": "__RariMineV3_init",
      "outputs": [],
      "stateMutability": "nonpayable",
      "type": "function"
    },
    {
      "inputs": [
        {
          "components": [
            {
              "internalType": "address",
              "name": "recipient",
              "type": "address"
            },
            {
              "internalType": "uint256",
              "name": "value",
              "type": "uint256"
            }
          ],
          "internalType": "struct IRariMine.Balance",
          "name": "_balance",
          "type": "tuple"
        },
        {
          "internalType": "uint8",
          "name": "v",
          "type": "uint8"
        },
        {
          "internalType": "bytes32",
          "name": "r",
          "type": "bytes32"
        },
        {
          "internalType": "bytes32",
          "name": "s",
          "type": "bytes32"
        }
      ],
      "name": "claim",
      "outputs": [],
      "stateMutability": "nonpayable",
      "type": "function"
    },
    {
      "inputs": [
        {
          "components": [
            {
              "internalType": "address",
              "name": "recipient",
              "type": "address"
            },
            {
              "internalType": "uint256",
              "name": "value",
              "type": "uint256"
            }
          ],
          "internalType": "struct IRariMine.Balance[]",
          "name": "_balances",
          "type": "tuple[]"
        }
      ],
      "name": "doOverride",
      "outputs": [],
      "stateMutability": "nonpayable",
      "type": "function"
    },
    {
      "inputs": [
        {
          "internalType": "address",
          "name": "newTokenOwner",
          "type": "address"
        }
      ],
      "name": "setTokenOwner",
      "outputs": [],
      "stateMutability": "nonpayable",
      "type": "function"
    },
    {
      "inputs": [
        {
          "internalType": "uint256",
          "name": "newClaimFormulaClaim",
          "type": "uint256"
        }
      ],
      "name": "setClaimFormulaClaim",
      "outputs": [],
      "stateMutability": "nonpayable",
      "type": "function"
    },
    {
      "inputs": [
        {
          "internalType": "uint256",
          "name": "newClaimCliffWeeks",
          "type": "uint256"
        }
      ],
      "name": "setClaimCliffWeeks",
      "outputs": [],
      "stateMutability": "nonpayable",
      "type": "function"
    },
    {
      "inputs": [
        {
          "internalType": "uint256",
          "name": "newClaimSlopeWeeks",
          "type": "uint256"
        }
      ],
      "name": "setClaimSlopeWeeks",
      "outputs": [],
      "stateMutability": "nonpayable",
      "type": "function"
    },
    {
      "inputs": [
        {
          "internalType": "address",
          "name": "newStaking",
          "type": "address"
        }
      ],
      "name": "setStaking",
      "outputs": [],
      "stateMutability": "nonpayable",
      "type": "function"
    }
  ],
  "bytecode": "0x608060405234801561001057600080fd5b50611da4806100206000396000f3fe608060405234801561001057600080fd5b50600436106101215760003560e01c8063591041a0116100ad578063a3e6761011610071578063a3e6761014610213578063c884ef831461021b578063f2fde38b1461022e578063fc0c546a14610241578063ffa1ad741461024957610121565b8063591041a0146101d55780636965f173146101dd578063715018a6146101f05780638da5cb5b146101f85780638ff390991461020057610121565b806318e02bd9116100f457806318e02bd9146101745780631f842e7d14610187578063220712161461019a57806323526f06146101b85780634cf088d9146101c057610121565b8063091a28ab146101265780630be42fcc1461013b5780630ecf28e91461014e5780630f4b53b014610161575b600080fd5b610139610134366004611987565b61025e565b005b6101396101493660046118b9565b610324565b61013961015c3660046119eb565b610465565b61013961016f366004611a34565b6108d6565b61013961018236600461189d565b61096b565b610139610195366004611a34565b610a17565b6101a2610aac565b6040516101af9190611c89565b60405180910390f35b6101a2610ab2565b6101c8610ab8565b6040516101af9190611a64565b6101a2610ac7565b6101396101eb366004611a34565b610acd565b610139610b62565b6101c8610c0e565b61013961020e36600461189d565b610c1d565b6101c8610cc9565b6101a261022936600461189d565b610cd8565b61013961023c36600461189d565b610cea565b6101c8610ded565b610251610dfc565b6040516101af9190611c92565b600054610100900460ff16806102775750610277610e01565b80610285575060005460ff16155b6102c05760405162461bcd60e51b815260040180806020018281038252602e815260200180611d00602e913960400191505060405180910390fd5b600054610100900460ff161580156102eb576000805460ff1961ff0019909116610100171660011790555b6102f9878787878787610e12565b610301610f05565b610309610fff565b801561031b576000805461ff00191690555b50505050505050565b61032c6110a0565b6001600160a01b031661033d610c0e565b6001600160a01b031614610386576040805162461bcd60e51b81526020600482018190526024820152600080516020611d4f833981519152604482015290519081900360640190fd5b60005b81518110156104615781818151811061039e57fe5b602002602001015160200151606b60008484815181106103ba57fe5b6020026020010151600001516001600160a01b03166001600160a01b03168152602001908152602001600020819055508181815181106103f657fe5b6020026020010151600001516001600160a01b03167f4fccb55fc57298c6ed3fb8da8e64b2541fe5ef1a07553abb5123c87d2361ccba83838151811061043857fe5b6020026020010151602001516040516104519190611c89565b60405180910390a2600101610389565b5050565b61046d610c0e565b6001600160a01b031661048e84848461048689306110a4565b9291906110eb565b6001600160a01b0316146104bd5760405162461bcd60e51b81526004016104b490611b56565b60405180910390fd5b83516001600160a01b0381166104d16110a0565b6001600160a01b031614156108b8576001600160a01b0381166000908152606b60209081526040808320548151808301909252601082526f6e6f7468696e6720746f20636c61696d60801b828401529188015161052f9290916111dc565b9050600081116105515760405162461bcd60e51b81526004016104b490611ae6565b6020808701516001600160a01b0384166000908152606b909252604082205560685461058c9061271090610586908590611273565b906112d3565b905080156106c1576065546066546040516323b872dd60e01b81526001600160a01b03928316926323b872dd926105cc9291169087908690600401611a78565b602060405180830381600087803b1580156105e657600080fd5b505af11580156105fa573d6000803e3d6000fd5b505050506040513d601f19601f8201168201806040525081019061061e9190611967565b61063a5760405162461bcd60e51b81526004016104b490611bc4565b826001600160a01b03167f47cee97cb7acd717b3c0aa1435d004cd5b3c8c57d70dbceb4e4458bbd60e39d4826040516106739190611c89565b60405180910390a2826001600160a01b03167f4fccb55fc57298c6ed3fb8da8e64b2541fe5ef1a07553abb5123c87d2361ccba88602001516040516106b89190611c89565b60405180910390a25b60006106cd838361133a565b905080156108af576065546066546040516323b872dd60e01b81526001600160a01b03928316926323b872dd9261070d9291169030908690600401611a78565b602060405180830381600087803b15801561072757600080fd5b505af115801561073b573d6000803e3d6000fd5b505050506040513d601f19601f8201168201806040525081019061075f9190611967565b61077b5760405162461bcd60e51b81526004016104b490611b10565b60655460675460405163095ea7b360e01b81526001600160a01b039283169263095ea7b3926107b1929116908590600401611acd565b602060405180830381600087803b1580156107cb57600080fd5b505af11580156107df573d6000803e3d6000fd5b505050506040513d601f19601f820116820180604052508101906108039190611967565b61081f5760405162461bcd60e51b81526004016104b490611b8d565b606754606a5460695460405163f108fa9360e01b81526001600160a01b039093169263f108fa939261085b928992839288929091600401611a9c565b602060405180830381600087803b15801561087557600080fd5b505af1158015610889573d6000803e3d6000fd5b505050506040513d601f19601f820116820180604052508101906108ad9190611a4c565b505b505050506108d0565b60405162461bcd60e51b81526004016104b490611c0c565b50505050565b6108de6110a0565b6001600160a01b03166108ef610c0e565b6001600160a01b031614610938576040805162461bcd60e51b81526020600482018190526024820152600080516020611d4f833981519152604482015290519081900360640190fd5b606881905560405181907f2b3e94e9b05d83dceaadc284ae1c3a0d09cd75d13efaa19e37c33f59f069420990600090a250565b6109736110a0565b6001600160a01b0316610984610c0e565b6001600160a01b0316146109cd576040805162461bcd60e51b81526020600482018190526024820152600080516020611d4f833981519152604482015290519081900360640190fd5b606680546001600160a01b0319166001600160a01b0383169081179091556040517f756b3a80473d847237cccd94401c2cb5970adda46f21e0169a35b878331bde4d90600090a250565b610a1f6110a0565b6001600160a01b0316610a30610c0e565b6001600160a01b031614610a79576040805162461bcd60e51b81526020600482018190526024820152600080516020611d4f833981519152604482015290519081900360640190fd5b606a81905560405181907f2b3e94e9b05d83dceaadc284ae1c3a0d09cd75d13efaa19e37c33f59f069420990600090a250565b60685481565b606a5481565b6067546001600160a01b031681565b60695481565b610ad56110a0565b6001600160a01b0316610ae6610c0e565b6001600160a01b031614610b2f576040805162461bcd60e51b81526020600482018190526024820152600080516020611d4f833981519152604482015290519081900360640190fd5b606981905560405181907f2b3e94e9b05d83dceaadc284ae1c3a0d09cd75d13efaa19e37c33f59f069420990600090a250565b610b6a6110a0565b6001600160a01b0316610b7b610c0e565b6001600160a01b031614610bc4576040805162461bcd60e51b81526020600482018190526024820152600080516020611d4f833981519152604482015290519081900360640190fd5b6033546040516000916001600160a01b0316907f8be0079c531659141344cd1fd0a4f28419497f9722a3daafe3b4186f6b6457e0908390a3603380546001600160a01b0319169055565b6033546001600160a01b031690565b610c256110a0565b6001600160a01b0316610c36610c0e565b6001600160a01b031614610c7f576040805162461bcd60e51b81526020600482018190526024820152600080516020611d4f833981519152604482015290519081900360640190fd5b606780546001600160a01b0319166001600160a01b0383169081179091556040517f0c477bb10759130f16a97845292a45bb26580f9c05783af9453f64ec18c48c1e90600090a250565b6066546001600160a01b031681565b606b6020526000908152604090205481565b610cf26110a0565b6001600160a01b0316610d03610c0e565b6001600160a01b031614610d4c576040805162461bcd60e51b81526020600482018190526024820152600080516020611d4f833981519152604482015290519081900360640190fd5b6001600160a01b038116610d915760405162461bcd60e51b8152600401808060200182810382526026815260200180611cda6026913960400191505060405180910390fd5b6033546040516001600160a01b038084169216907f8be0079c531659141344cd1fd0a4f28419497f9722a3daafe3b4186f6b6457e090600090a3603380546001600160a01b0319166001600160a01b0392909216919091179055565b6065546001600160a01b031681565b600181565b6000610e0c30611397565b15905090565b600054610100900460ff1680610e2b5750610e2b610e01565b80610e39575060005460ff16155b610e745760405162461bcd60e51b815260040180806020018281038252602e815260200180611d00602e913960400191505060405180910390fd5b600054610100900460ff16158015610e9f576000805460ff1961ff0019909116610100171660011790555b606580546001600160a01b03808a166001600160a01b0319928316179092556066805489841690831617905560678054928816929091169190911790556069849055606a8390556068829055801561031b576000805461ff001916905550505050505050565b600054610100900460ff1680610f1e5750610f1e610e01565b80610f2c575060005460ff16155b610f675760405162461bcd60e51b815260040180806020018281038252602e815260200180611d00602e913960400191505060405180910390fd5b600054610100900460ff16158015610f92576000805460ff1961ff0019909116610100171660011790555b6000610f9c6110a0565b603380546001600160a01b0319166001600160a01b038316908117909155604051919250906000907f8be0079c531659141344cd1fd0a4f28419497f9722a3daafe3b4186f6b6457e0908290a3508015610ffc576000805461ff00191690555b50565b600054610100900460ff16806110185750611018610e01565b80611026575060005460ff16155b6110615760405162461bcd60e51b815260040180806020018281038252602e815260200180611d00602e913960400191505060405180910390fd5b600054610100900460ff1615801561108c576000805460ff1961ff0019909116610100171660011790555b8015610ffc576000805461ff001916905550565b3390565b606060004690506110e184846001846040516020016110c69493929190611c4e565b604051602081830303815290604052805190602001206113a1565b9150505b92915050565b60008085905060006111636040518060400160405280601a81526020017f19457468657265756d205369676e6564204d6573736167653a0a00000000000081525061113684516114b5565b6040805160008082526020820181815282840182815260608401928352608084019094528893909161158d565b90506001818051906020012087878760405160008152602001604052604051808581526020018460ff1681526020018381526020018281526020019450505050506020604051602081039080840390855afa1580156111c6573d6000803e3d6000fd5b5050604051601f19015198975050505050505050565b6000818484111561126b5760405162461bcd60e51b81526004018080602001828103825283818151815260200191508051906020019080838360005b83811015611230578181015183820152602001611218565b50505050905090810190601f16801561125d5780820380516001836020036101000a031916815260200191505b509250505060405180910390fd5b505050900390565b600082611282575060006110e5565b8282028284828161128f57fe5b04146112cc5760405162461bcd60e51b8152600401808060200182810382526021815260200180611d2e6021913960400191505060405180910390fd5b9392505050565b6000808211611329576040805162461bcd60e51b815260206004820152601a60248201527f536166654d6174683a206469766973696f6e206279207a65726f000000000000604482015290519081900360640190fd5b81838161133257fe5b049392505050565b600082821115611391576040805162461bcd60e51b815260206004820152601e60248201527f536166654d6174683a207375627472616374696f6e206f766572666c6f770000604482015290519081900360640190fd5b50900390565b803b15155b919050565b604080518082018252601081526f181899199a1a9b1b9c1cb0b131b232b360811b6020820152815182815260608181018452926000919060208201818036833701905050905060005b60208110156114ad5782600486836020811061140257fe5b1a60f81b6001600160f81b031916901c60f81c60ff168151811061142257fe5b602001015160f81c60f81b82826002028151811061143c57fe5b60200101906001600160f81b031916908160001a9053508285826020811061146057fe5b825191901a600f1690811061147157fe5b602001015160f81c60f81b82826002026001018151811061148e57fe5b60200101906001600160f81b031916908160001a9053506001016113ea565b509392505050565b6060816114da57506040805180820190915260018152600360fc1b602082015261139c565b8160005b81156114f257600101600a820491506114de565b60008167ffffffffffffffff8111801561150b57600080fd5b506040519080825280601f01601f191660200182016040528015611536576020820181803683370190505b50905060001982015b851561158457600a860660300160f81b8282806001900393508151811061156257fe5b60200101906001600160f81b031916908160001a905350600a8604955061153f565b50949350505050565b6060600082518451865188518a518c518e5101010101010167ffffffffffffffff811180156115bb57600080fd5b506040519080825280601f01601f1916602001820160405280156115e6576020820181803683370190505b5090506000805b8a5181101561163e578a818151811061160257fe5b602001015160f81c60f81b83838060010194508151811061161f57fe5b60200101906001600160f81b031916908160001a9053506001016115ed565b5060005b89518110156116935789818151811061165757fe5b602001015160f81c60f81b83838060010194508151811061167457fe5b60200101906001600160f81b031916908160001a905350600101611642565b5060005b88518110156116e8578881815181106116ac57fe5b602001015160f81c60f81b8383806001019450815181106116c957fe5b60200101906001600160f81b031916908160001a905350600101611697565b5060005b875181101561173d5787818151811061170157fe5b602001015160f81c60f81b83838060010194508151811061171e57fe5b60200101906001600160f81b031916908160001a9053506001016116ec565b5060005b86518110156117925786818151811061175657fe5b602001015160f81c60f81b83838060010194508151811061177357fe5b60200101906001600160f81b031916908160001a905350600101611741565b5060005b85518110156117e7578581815181106117ab57fe5b602001015160f81c60f81b8383806001019450815181106117c857fe5b60200101906001600160f81b031916908160001a905350600101611796565b5060005b845181101561183c5784818151811061180057fe5b602001015160f81c60f81b83838060010194508151811061181d57fe5b60200101906001600160f81b031916908160001a9053506001016117eb565b50909998505050505050505050565b60006040828403121561185c578081fd5b6040516040810181811067ffffffffffffffff8211171561187957fe5b604052905080823561188a81611cc4565b8152602092830135920191909152919050565b6000602082840312156118ae578081fd5b81356112cc81611cc4565b600060208083850312156118cb578182fd5b823567ffffffffffffffff808211156118e2578384fd5b818501915085601f8301126118f5578384fd5b81358181111561190157fe5b61190e8485830201611ca0565b81815284810192508385016040808402860187018a101561192d578788fd5b8795505b83861015611959576119438a8361184b565b8552600195909501949386019390810190611931565b509098975050505050505050565b600060208284031215611978578081fd5b815180151581146112cc578182fd5b60008060008060008060c0878903121561199f578182fd5b86356119aa81611cc4565b955060208701356119ba81611cc4565b945060408701356119ca81611cc4565b959894975094956060810135955060808101359460a0909101359350915050565b60008060008060a08587031215611a00578384fd5b611a0a868661184b565b9350604085013560ff81168114611a1f578384fd5b93969395505050506060820135916080013590565b600060208284031215611a45578081fd5b5035919050565b600060208284031215611a5d578081fd5b5051919050565b6001600160a01b0391909116815260200190565b6001600160a01b039384168152919092166020820152604081019190915260600190565b6001600160a01b03958616815293909416602084015260408301919091526060820152608081019190915260a00190565b6001600160a01b03929092168252602082015260400190565b60208082526010908201526f6e6f7468696e6720746f20636c61696d60801b604082015260600190565b60208082526026908201527f7472616e7366657220746f20526172694d696e65206973206e6f742073756363604082015265195cdcd99d5b60d21b606082015260800190565b6020808252601a908201527f6f776e65722073686f756c64207369676e2062616c616e636573000000000000604082015260600190565b60208082526019908201527f617070726f7665206973206e6f74207375636365737366756c00000000000000604082015260600190565b60208082526028908201527f7472616e7366657220746f206d73672073656e646572206973206e6f7420737560408201526718d8d95cdcd99d5b60c21b606082015260800190565b60208082526022908201527f5f6d736753656e6465722829206973206e6f74207468652072656365697069656040820152611b9d60f21b606082015260800190565b84516001600160a01b0390811682526020958601519582019590955292909316604083015260ff166060820152608081019190915260a00190565b90815260200190565b60ff91909116815260200190565b60405181810167ffffffffffffffff81118282101715611cbc57fe5b604052919050565b6001600160a01b0381168114610ffc57600080fdfe4f776e61626c653a206e6577206f776e657220697320746865207a65726f2061646472657373496e697469616c697a61626c653a20636f6e747261637420697320616c726561647920696e697469616c697a6564536166654d6174683a206d756c7469706c69636174696f6e206f766572666c6f774f776e61626c653a2063616c6c6572206973206e6f7420746865206f776e6572a26469706673582212200f3919525cfd3ef58bb97dbf26cb21bdcfdee39eba064b0671062884a6f9db1c64736f6c63430007060033",
  "immutableReferences": {},
  "source": "// SPDX-License-Identifier: MIT\n\n/**\n *Submitted for verification at Etherscan.io on 2020-07-20\n */\n\npragma solidity 0.7.6;\npragma abicoder v2;\n\nimport \"@openzeppelin/contracts-upgradeable/access/OwnableUpgradeable.sol\";\nimport \"@openzeppelin/contracts-upgradeable/utils/AddressUpgradeable.sol\";\nimport \"@openzeppelin/contracts-upgradeable/token/ERC20/IERC20Upgradeable.sol\";\n\nimport \"./libs/LibString.sol\";\nimport \"./libs/LibAddress.sol\";\nimport \"./libs/LibUint.sol\";\nimport \"./libs/LibStakingMath.sol\";\nimport \"./IRariMine.sol\";\nimport \"./IStaking.sol\";\n\ncontract RariMineV3 is OwnableUpgradeable, IRariMine {\n    using SafeMathUpgradeable for uint256;\n    using LibString for string;\n    using LibUint for uint256;\n    using LibAddress for address;\n\n    IERC20Upgradeable public token;\n    address public tokenOwner;\n    IStaking public staking;\n\n    uint256 public claimFormulaClaim;\n    uint256 public claimCliffWeeks;\n    uint256 public claimSlopeWeeks;\n    uint256 constant CLAIM_FORMULA_DIVIDER = 10000;\n\n    uint8 public constant VERSION = 1;\n\n    mapping(address => uint256) public claimed;\n\n    event SetClaimFormulaClaim(uint256 indexed newClaimFormulaClaim);\n    event SetClaimCliffWeeks(uint256 indexed newClaimCliffWeeks);\n    event SetClaimSlopeWeeks(uint256 indexed newClaimSlopeWeeks);\n    event SetNewTokenOwner(address indexed newTokenOwner);\n    event SetNewStaking(address indexed newStaking);\n\n    function __RariMineV3_init(\n        IERC20Upgradeable _token,\n        address _tokenOwner,\n        IStaking _staking,\n        uint256 _claimCliffWeeks,\n        uint256 _claimSlopeWeeks,\n        uint256 _claimFormulaClaim\n    ) external initializer {\n        __RariMineV3_init_unchained(_token, _tokenOwner, _staking, _claimCliffWeeks, _claimSlopeWeeks, _claimFormulaClaim);\n        __Ownable_init_unchained();\n        __Context_init_unchained();\n    }\n\n    function __RariMineV3_init_unchained(\n        IERC20Upgradeable _token,\n        address _tokenOwner,\n        IStaking _staking,\n        uint256 _claimCliffWeeks,\n        uint256 _claimSlopeWeeks,\n        uint256 _claimFormulaClaim\n    ) internal initializer {\n        token = _token;\n        tokenOwner = _tokenOwner;\n        staking = _staking;\n        claimCliffWeeks = _claimCliffWeeks;\n        claimSlopeWeeks = _claimSlopeWeeks;\n        claimFormulaClaim = _claimFormulaClaim;\n    }\n\n    function claim(\n        Balance memory _balance,\n        uint8 v,\n        bytes32 r,\n        bytes32 s\n    ) public {\n        require(prepareMessage(_balance, address(this)).recover(v, r, s) == owner(), \"owner should sign balances\");\n\n        address recipient = _balance.recipient;\n        if (_msgSender() == recipient) {\n            uint256 toClaim = _balance.value.sub(claimed[recipient], \"nothing to claim\");\n            require(toClaim > 0, \"nothing to claim\");\n            claimed[recipient] = _balance.value;\n\n            // claim rari tokens\n            uint256 claimAmount = toClaim.mul(claimFormulaClaim).div(CLAIM_FORMULA_DIVIDER);\n            if (claimAmount > 0) {\n                require(token.transferFrom(tokenOwner, recipient, claimAmount), \"transfer to msg sender is not successful\");\n                emit Claim(recipient, claimAmount);\n                emit Value(recipient, _balance.value);\n            }\n\n            // stake some tokens\n            uint256 stakeAmount = toClaim.sub(claimAmount);\n            if(stakeAmount > 0) {\n                require(token.transferFrom(tokenOwner, address(this), stakeAmount), \"transfer to RariMine is not successful\");\n                require(token.approve(address(staking), stakeAmount), \"approve is not successful\");\n                staking.stake(recipient, recipient, stakeAmount, claimSlopeWeeks, claimCliffWeeks);\n            }\n\n            return;\n        }\n\n        revert(\"_msgSender() is not the receipient\");\n    }\n\n    function doOverride(Balance[] memory _balances) public onlyOwner {\n        for (uint256 i = 0; i < _balances.length; i++) {\n            claimed[_balances[i].recipient] = _balances[i].value;\n            emit Value(_balances[i].recipient, _balances[i].value);\n        }\n    }\n\n    function prepareMessage(Balance memory _balance, address _address) internal pure returns (string memory) {\n        uint256 id;\n        assembly {\n            id := chainid()\n        }\n        return toString(keccak256(abi.encode(_balance, _address, VERSION, id)));\n    }\n\n    function toString(bytes32 value) internal pure returns (string memory) {\n        bytes memory alphabet = \"0123456789abcdef\";\n        bytes memory str = new bytes(64);\n        for (uint256 i = 0; i < 32; i++) {\n            str[i * 2] = alphabet[uint8(value[i] >> 4)];\n            str[1 + i * 2] = alphabet[uint8(value[i] & 0x0f)];\n        }\n        return string(str);\n    }\n\n    function setTokenOwner(address newTokenOwner) external onlyOwner {\n        tokenOwner = newTokenOwner;\n        emit SetNewTokenOwner(newTokenOwner);\n    }\n\n    function setClaimFormulaClaim(uint256 newClaimFormulaClaim) external onlyOwner {\n        claimFormulaClaim = newClaimFormulaClaim;\n        emit SetClaimCliffWeeks(newClaimFormulaClaim);\n    }\n\n    function setClaimCliffWeeks(uint256 newClaimCliffWeeks) external onlyOwner {\n        claimCliffWeeks = newClaimCliffWeeks;\n        emit SetClaimCliffWeeks(newClaimCliffWeeks);\n    }\n\n    function setClaimSlopeWeeks(uint256 newClaimSlopeWeeks) external onlyOwner {\n        claimSlopeWeeks = newClaimSlopeWeeks;\n        emit SetClaimCliffWeeks(newClaimSlopeWeeks);\n    }\n\n    function setStaking(address newStaking) external onlyOwner {\n        staking = IStaking(newStaking);\n        emit SetNewStaking(newStaking);\n    }\n\n    uint256[48] private __gap;\n}\n",
  "sourcePath": "@rarible/staking/contracts/RariMineV3.sol",
  "compiler": {
    "name": "solc",
    "version": "0.7.6+commit.7338295f.Emscripten.clang"
  },
  "schemaVersion": "3.4.3",
  "updatedAt": "2022-10-17T13:30:01.840Z",
  "networkType": "ethereum",
  "devdoc": {
    "kind": "dev",
    "methods": {
      "owner()": {
        "details": "Returns the address of the current owner."
      },
      "renounceOwnership()": {
        "details": "Leaves the contract without owner. It will not be possible to call `onlyOwner` functions anymore. Can only be called by the current owner. NOTE: Renouncing ownership will leave the contract without an owner, thereby removing any functionality that is only available to the owner."
      },
      "transferOwnership(address)": {
        "details": "Transfers ownership of the contract to a new account (`newOwner`). Can only be called by the current owner."
      }
    },
    "version": 1
  },
  "userdoc": {
    "kind": "user",
    "methods": {},
    "version": 1
  }
}