{
  "contractName": "RoyaltiesRegistry",
  "abi": [
    {
      "anonymous": false,
      "inputs": [
        {
          "indexed": true,
          "internalType": "address",
          "name": "previousOwner",
          "type": "address"
        },
        {
          "indexed": true,
          "internalType": "address",
          "name": "newOwner",
          "type": "address"
        }
      ],
      "name": "OwnershipTransferred",
      "type": "event"
    },
    {
      "anonymous": false,
      "inputs": [
        {
          "indexed": true,
          "internalType": "address",
          "name": "token",
          "type": "address"
        },
        {
          "components": [
            {
              "internalType": "address payable",
              "name": "account",
              "type": "address"
            },
            {
              "internalType": "uint96",
              "name": "value",
              "type": "uint96"
            }
          ],
          "indexed": false,
          "internalType": "struct LibPart.Part[]",
          "name": "royalties",
          "type": "tuple[]"
        }
      ],
      "name": "RoyaltiesSetForContract",
      "type": "event"
    },
    {
      "anonymous": false,
      "inputs": [
        {
          "indexed": true,
          "internalType": "address",
          "name": "token",
          "type": "address"
        },
        {
          "indexed": true,
          "internalType": "uint256",
          "name": "tokenId",
          "type": "uint256"
        },
        {
          "components": [
            {
              "internalType": "address payable",
              "name": "account",
              "type": "address"
            },
            {
              "internalType": "uint96",
              "name": "value",
              "type": "uint96"
            }
          ],
          "indexed": false,
          "internalType": "struct LibPart.Part[]",
          "name": "royalties",
          "type": "tuple[]"
        }
      ],
      "name": "RoyaltiesSetForToken",
      "type": "event"
    },
    {
      "inputs": [],
      "name": "owner",
      "outputs": [
        {
          "internalType": "address",
          "name": "",
          "type": "address"
        }
      ],
      "stateMutability": "view",
      "type": "function"
    },
    {
      "inputs": [],
      "name": "renounceOwnership",
      "outputs": [],
      "stateMutability": "nonpayable",
      "type": "function"
    },
    {
      "inputs": [
        {
          "internalType": "address",
          "name": "",
          "type": "address"
        }
      ],
      "name": "royaltiesByToken",
      "outputs": [
        {
          "internalType": "bool",
          "name": "initialized",
          "type": "bool"
        }
      ],
      "stateMutability": "view",
      "type": "function"
    },
    {
      "inputs": [
        {
          "internalType": "bytes32",
          "name": "",
          "type": "bytes32"
        }
      ],
      "name": "royaltiesByTokenAndTokenId",
      "outputs": [
        {
          "internalType": "bool",
          "name": "initialized",
          "type": "bool"
        }
      ],
      "stateMutability": "view",
      "type": "function"
    },
    {
      "inputs": [
        {
          "internalType": "address",
          "name": "",
          "type": "address"
        }
      ],
      "name": "royaltiesProviders",
      "outputs": [
        {
          "internalType": "address",
          "name": "",
          "type": "address"
        }
      ],
      "stateMutability": "view",
      "type": "function"
    },
    {
      "inputs": [
        {
          "internalType": "address",
          "name": "newOwner",
          "type": "address"
        }
      ],
      "name": "transferOwnership",
      "outputs": [],
      "stateMutability": "nonpayable",
      "type": "function"
    },
    {
      "inputs": [],
      "name": "__RoyaltiesRegistry_init",
      "outputs": [],
      "stateMutability": "nonpayable",
      "type": "function"
    },
    {
      "inputs": [
        {
          "internalType": "address",
          "name": "token",
          "type": "address"
        },
        {
          "internalType": "address",
          "name": "provider",
          "type": "address"
        }
      ],
      "name": "setProviderByToken",
      "outputs": [],
      "stateMutability": "nonpayable",
      "type": "function"
    },
    {
      "inputs": [
        {
          "internalType": "address",
          "name": "token",
          "type": "address"
        },
        {
          "components": [
            {
              "internalType": "address payable",
              "name": "account",
              "type": "address"
            },
            {
              "internalType": "uint96",
              "name": "value",
              "type": "uint96"
            }
          ],
          "internalType": "struct LibPart.Part[]",
          "name": "royalties",
          "type": "tuple[]"
        }
      ],
      "name": "setRoyaltiesByToken",
      "outputs": [],
      "stateMutability": "nonpayable",
      "type": "function"
    },
    {
      "inputs": [
        {
          "internalType": "address",
          "name": "token",
          "type": "address"
        },
        {
          "internalType": "uint256",
          "name": "tokenId",
          "type": "uint256"
        },
        {
          "components": [
            {
              "internalType": "address payable",
              "name": "account",
              "type": "address"
            },
            {
              "internalType": "uint96",
              "name": "value",
              "type": "uint96"
            }
          ],
          "internalType": "struct LibPart.Part[]",
          "name": "royalties",
          "type": "tuple[]"
        }
      ],
      "name": "setRoyaltiesByTokenAndTokenId",
      "outputs": [],
      "stateMutability": "nonpayable",
      "type": "function"
    },
    {
      "inputs": [
        {
          "internalType": "address",
          "name": "token",
          "type": "address"
        },
        {
          "internalType": "uint256",
          "name": "tokenId",
          "type": "uint256"
        }
      ],
      "name": "getRoyalties",
      "outputs": [
        {
          "components": [
            {
              "internalType": "address payable",
              "name": "account",
              "type": "address"
            },
            {
              "internalType": "uint96",
              "name": "value",
              "type": "uint96"
            }
          ],
          "internalType": "struct LibPart.Part[]",
          "name": "",
          "type": "tuple[]"
        }
      ],
      "stateMutability": "nonpayable",
      "type": "function"
    }
  ],
  "bytecode": "0x608060405234801561001057600080fd5b506119c7806100206000396000f3fe608060405234801561001057600080fd5b50600436106100a95760003560e01c8063acf14efb11610071578063acf14efb1461011e578063c652885f14610131578063d1da3cce14610144578063d836f01314610157578063f2fde38b1461016a578063f39cc7061461017d576100a9565b806305df952f146100ae57806327fff8ab146100d7578063715018a6146100e15780638da5cb5b146100e95780639ca7dc7a146100fe575b600080fd5b6100c16100bc36600461127e565b610190565b6040516100ce9190611682565b60405180910390f35b6100df6101a5565b005b6100df61024f565b6100f161030d565b6040516100ce91906115f4565b61011161010c366004611343565b61031c565b6040516100ce9190611621565b6100df61012c3660046112f5565b6104f4565b6100df61013f36600461136e565b610712565b6100c16101523660046115dc565b61072b565b6100df6101653660046112bd565b610740565b6100df61017836600461127e565b610777565b6100f161018b36600461127e565b61088c565b60666020526000908152604090205460ff1681565b600054610100900460ff16806101be57506101be6108a7565b806101cc575060005460ff16155b6102075760405162461bcd60e51b815260040180806020018281038252602e815260200180611964602e913960400191505060405180910390fd5b600054610100900460ff16158015610232576000805460ff1961ff0019909116610100171660011790555b61023a6108b8565b801561024c576000805461ff00191690555b50565b6102576109b1565b6001600160a01b031661026861030d565b6001600160a01b0316146102c3576040805162461bcd60e51b815260206004820181905260248201527f4f776e61626c653a2063616c6c6572206973206e6f7420746865206f776e6572604482015290519081900360640190fd5b6033546040516000916001600160a01b0316907f8be0079c531659141344cd1fd0a4f28419497f9722a3daafe3b4186f6b6457e0908390a3603380546001600160a01b0319169055565b6033546001600160a01b031690565b60606000606560008585604051602001610337929190611608565b60408051601f198184030181529181528151602092830120835282820193909352908201600090812083518085018552815460ff161515815260018201805486518187028101870190975280875291959294868101949192919084015b828210156103e357600084815260209081902060408051808201909152908401546001600160a01b0381168252600160a01b90046001600160601b031681830152825260019092019101610394565b505050915250508051909150156103ff576020015190506104ee565b6001600160a01b038416600090815260666020908152604080832081518083018352815460ff16151581526001820180548451818702810187019095528085529195929486810194939192919084015b8282101561049e57600084815260209081902060408051808201909152908401546001600160a01b0381168252600160a01b90046001600160601b03168183015282526001909201910161044f565b505050915250508051909150156104ba576020015190506104ee565b6000806104c786866109b5565b9092509050816104de576104db8686610a74565b90505b6104e9868683610e7f565b925050505b92915050565b6104fd8261109e565b6001600160a01b0382166000908152606660205260408120805460ff191681558161052b600183018261117a565b505060005b82518110156106905760006001600160a01b031683828151811061055057fe5b6020026020010151600001516001600160a01b0316141561058c5760405162461bcd60e51b8152600401610583906116a2565b60405180910390fd5b82818151811061059857fe5b6020026020010151602001516001600160601b0316600014156105cd5760405162461bcd60e51b815260040161058390611822565b60666000856001600160a01b03166001600160a01b0316815260200190815260200160002060010183828151811061060157fe5b602090810291909101810151825460018101845560009384529282902081519301805491909201516001600160601b0316600160a01b026001600160a01b039384166001600160a01b031990921691909117909216919091179055825183908290811061066a57fe5b6020026020010151602001516001600160601b0316820191508080600101915050610530565b5061271081106106b25760405162461bcd60e51b8152600401610583906116ee565b6001600160a01b03831660008181526066602052604090819020805460ff19166001179055517fc026171b9a7c9009d6a748a19a0a3cb877978a585e1647a87a786d724bbde12790610705908590611621565b60405180910390a2505050565b61071b8361109e565b610726838383610e7f565b505050565b60656020526000908152604090205460ff1681565b6107498261109e565b6001600160a01b03918216600090815260676020526040902080546001600160a01b03191691909216179055565b61077f6109b1565b6001600160a01b031661079061030d565b6001600160a01b0316146107eb576040805162461bcd60e51b815260206004820181905260248201527f4f776e61626c653a2063616c6c6572206973206e6f7420746865206f776e6572604482015290519081900360640190fd5b6001600160a01b0381166108305760405162461bcd60e51b815260040180806020018281038252602681526020018061193e6026913960400191505060405180910390fd5b6033546040516001600160a01b038084169216907f8be0079c531659141344cd1fd0a4f28419497f9722a3daafe3b4186f6b6457e090600090a3603380546001600160a01b0319166001600160a01b0392909216919091179055565b6067602052600090815260409020546001600160a01b031681565b60006108b230611174565b15905090565b600054610100900460ff16806108d157506108d16108a7565b806108df575060005460ff16155b61091a5760405162461bcd60e51b815260040180806020018281038252602e815260200180611964602e913960400191505060405180910390fd5b600054610100900460ff16158015610945576000805460ff1961ff0019909116610100171660011790555b600061094f6109b1565b603380546001600160a01b0319166001600160a01b038316908117909155604051919250906000907f8be0079c531659141344cd1fd0a4f28419497f9722a3daafe3b4186f6b6457e0908290a350801561024c576000805461ff001916905550565b3390565b6001600160a01b038083166000908152606760205260408120549091606091168015610a6c57604051634e53ee3d60e11b815281906001600160a01b03821690639ca7dc7a90610a0b9089908990600401611608565b600060405180830381600087803b158015610a2557600080fd5b505af1925050508015610a5a57506040513d6000823e601f3d908101601f19168201604052610a57919081019061145e565b60015b610a6357610a6a565b6001945092505b505b509250929050565b6040516301ffc9a760e01b81526060906001600160a01b038416906301ffc9a790610aaa9063656cb66560e11b9060040161168d565b60206040518083038186803b158015610ac257600080fd5b505afa158015610ad6573d6000803e3d6000fd5b505050506040513d601f19601f82011682018060405250810190610afa91906115bc565b15610b925760405163656cb66560e11b815283906001600160a01b0382169063cad96cca90610b2d9086906004016118c8565b60006040518083038186803b158015610b4557600080fd5b505afa925050508015610b7a57506040513d6000823e601f3d908101601f19168201604052610b77919081019061145e565b60015b610b8357610b8c565b91506104ee9050565b50610e46565b60405163b9c4d9fb60e01b815283906060906001600160a01b0383169063b9c4d9fb90610bc39087906004016118c8565b60006040518083038186803b158015610bdb57600080fd5b505afa925050508015610c1057506040513d6000823e601f3d908101601f19168201604052610c0d91908101906113c5565b60015b610c4f576040805160008082526020820190925290610c45565b610c32611198565b815260200190600190039081610c2a5790505b50925050506104ee565b9050604051630ebd4c7f60e01b81526060906001600160a01b03841690630ebd4c7f90610c809088906004016118c8565b60006040518083038186803b158015610c9857600080fd5b505afa925050508015610ccd57506040513d6000823e601f3d908101601f19168201604052610cca9190810190611538565b60015b610d0d576040805160008082526020820190925290610d02565b610cef611198565b815260200190600190039081610ce75790505b5093505050506104ee565b90508151815114610d53576040805160008082526020820190925290610d02565b610d36611198565b815260200190600190039081610d2e5790505093505050506104ee565b6000815167ffffffffffffffff81118015610d6d57600080fd5b50604051908082528060200260200182016040528015610da757816020015b610d94611198565b815260200190600190039081610d8c5790505b50905060005b8251811015610e3a57828181518110610dc257fe5b6020026020010151828281518110610dd657fe5b6020026020010151602001906001600160601b031690816001600160601b031681525050838181518110610e0657fe5b6020026020010151828281518110610e1a57fe5b60209081029190910101516001600160a01b039091169052600101610dad565b5093506104ee92505050565b6040805160008082526020820190925290610e77565b610e64611198565b815260200190600190039081610e5c5790505b509392505050565b6000808484604051602001610e95929190611608565b604051602081830303815290604052805190602001209050606560008281526020019081526020016000206001016000610ecf919061117a565b60005b83518110156110175760006001600160a01b0316848281518110610ef257fe5b6020026020010151600001516001600160a01b03161415610f255760405162461bcd60e51b815260040161058390611872565b838181518110610f3157fe5b6020026020010151602001516001600160601b031660001415610f665760405162461bcd60e51b8152600401610583906117c5565b60656000838152602001908152602001600020600101848281518110610f8857fe5b602090810291909101810151825460018101845560009384529282902081519301805491909201516001600160601b0316600160a01b026001600160a01b039384166001600160a01b0319909216919091179092169190911790558351849082908110610ff157fe5b6020026020010151602001516001600160601b0316830192508080600101915050610ed2565b5061271082106110395760405162461bcd60e51b815260040161058390611738565b60008181526065602052604090819020805460ff191660011790555184906001600160a01b038716907feb39ff9fa01427567623bcdf507c38c3661f0febd78123a35951895dc9ec73159061108f908790611621565b60405180910390a35050505050565b6110a66109b1565b6001600160a01b03166110b761030d565b6001600160a01b03161415801561115757506110d16109b1565b6001600160a01b0316816001600160a01b0316638da5cb5b6040518163ffffffff1660e01b815260040160206040518083038186803b15801561111357600080fd5b505afa158015611127573d6000803e3d6000fd5b505050506040513d601f19601f8201168201806040525081019061114b91906112a1565b6001600160a01b031614155b1561024c5760405162461bcd60e51b81526004016105839061178e565b3b151590565b508054600082559060005260206000209081019061024c91906111af565b604080518082019091526000808252602082015290565b5b808211156111c457600081556001016111b0565b5090565b600082601f8301126111d8578081fd5b813560206111ed6111e8836118f5565b6118d1565b8281528181019085830160408086028801850189101561120b578687fd5b865b868110156112705781838b031215611223578788fd5b815182810181811067ffffffffffffffff8211171561123e57fe5b8352833561124b81611913565b81528387013561125a81611928565b818801528552938501939181019160010161120d565b509198975050505050505050565b60006020828403121561128f578081fd5b813561129a81611913565b9392505050565b6000602082840312156112b2578081fd5b815161129a81611913565b600080604083850312156112cf578081fd5b82356112da81611913565b915060208301356112ea81611913565b809150509250929050565b60008060408385031215611307578182fd5b823561131281611913565b9150602083013567ffffffffffffffff81111561132d578182fd5b611339858286016111c8565b9150509250929050565b60008060408385031215611355578182fd5b823561136081611913565b946020939093013593505050565b600080600060608486031215611382578081fd5b833561138d81611913565b925060208401359150604084013567ffffffffffffffff8111156113af578182fd5b6113bb868287016111c8565b9150509250925092565b600060208083850312156113d7578182fd5b825167ffffffffffffffff8111156113ed578283fd5b8301601f810185136113fd578283fd5b805161140b6111e8826118f5565b8181528381019083850185840285018601891015611427578687fd5b8694505b8385101561145257805161143e81611913565b83526001949094019391850191850161142b565b50979650505050505050565b60006020808385031215611470578182fd5b825167ffffffffffffffff80821115611487578384fd5b818501915085601f83011261149a578384fd5b81516114a86111e8826118f5565b818152848101908486016040808502870188018b10156114c6578889fd5b8896505b848710156115295780828c0312156114e0578889fd5b805181810181811088821117156114f357fe5b8252825161150081611913565b81528289015161150f81611928565b818a015284526001969096019592870192908101906114ca565b50909998505050505050505050565b6000602080838503121561154a578182fd5b825167ffffffffffffffff811115611560578283fd5b8301601f81018513611570578283fd5b805161157e6111e8826118f5565b818152838101908385018584028501860189101561159a578687fd5b8694505b8385101561145257805183526001949094019391850191850161159e565b6000602082840312156115cd578081fd5b8151801515811461129a578182fd5b6000602082840312156115ed578081fd5b5035919050565b6001600160a01b0391909116815260200190565b6001600160a01b03929092168252602082015260400190565b602080825282518282018190526000919060409081850190868401855b8281101561167557815180516001600160a01b031685528601516001600160601b031686850152928401929085019060010161163e565b5091979650505050505050565b901515815260200190565b6001600160e01b031991909116815260200190565b6020808252602c908201527f526f79616c746965734279546f6b656e20726563697069656e742073686f756c60408201526b19081899481c1c995cd95b9d60a21b606082015260800190565b6020808252602a908201527f53657420627920746f6b656e20726f79616c746965732073756d206d6f72652c604082015269207468616e203130302560b01b606082015260800190565b60208082526036908201527f53657420627920746f6b656e20616e6420746f6b656e496420726f79616c746960408201527565732073756d206d6f72652c207468616e203130302560501b606082015260800190565b60208082526018908201527f546f6b656e206f776e6572206e6f742064657465637465640000000000000000604082015260600190565b6020808252603a908201527f526f79616c74792076616c756520666f7220526f79616c746965734279546f6b60408201527f656e416e64546f6b656e49642073686f756c64206265203e2030000000000000606082015260800190565b60208082526030908201527f526f79616c74792076616c756520666f7220526f79616c746965734279546f6b60408201526f0656e2073686f756c64206265203e20360841b606082015260800190565b60208082526036908201527f526f79616c746965734279546f6b656e416e64546f6b656e49642072656369706040820152751a595b9d081cda1bdd5b19081899481c1c995cd95b9d60521b606082015260800190565b90815260200190565b60405181810167ffffffffffffffff811182821017156118ed57fe5b604052919050565b600067ffffffffffffffff82111561190957fe5b5060209081020190565b6001600160a01b038116811461024c57600080fd5b6001600160601b038116811461024c57600080fdfe4f776e61626c653a206e6577206f776e657220697320746865207a65726f2061646472657373496e697469616c697a61626c653a20636f6e747261637420697320616c726561647920696e697469616c697a6564a2646970667358221220a5eaeb2c6e04ddc43e3473cf3f2337ead378649e52b7b4be9a47c621380eb82364736f6c63430007060033",
  "immutableReferences": {},
  "source": "// SPDX-License-Identifier: MIT\n\npragma solidity >=0.6.2 <0.8.0;\npragma abicoder v2;\n\nimport \"@rarible/royalties/contracts/IRoyaltiesProvider.sol\";\nimport \"@rarible/royalties/contracts/LibRoyaltiesV2.sol\";\nimport \"@rarible/royalties/contracts/LibRoyaltiesV1.sol\";\nimport \"@rarible/royalties/contracts/RoyaltiesV1.sol\";\nimport \"@rarible/royalties/contracts/RoyaltiesV2.sol\";\nimport \"@openzeppelin/contracts-upgradeable/token/ERC721/IERC721Upgradeable.sol\";\nimport \"@openzeppelin/contracts-upgradeable/access/OwnableUpgradeable.sol\";\n\ncontract RoyaltiesRegistry is IRoyaltiesProvider, OwnableUpgradeable {\n\n    event RoyaltiesSetForToken(address indexed token, uint indexed tokenId, LibPart.Part[] royalties);\n    event RoyaltiesSetForContract(address indexed token, LibPart.Part[] royalties);\n\n    struct RoyaltiesSet {\n        bool initialized;\n        LibPart.Part[] royalties;\n    }\n\n    mapping(bytes32 => RoyaltiesSet) public royaltiesByTokenAndTokenId;\n    mapping(address => RoyaltiesSet) public royaltiesByToken;\n    mapping(address => address) public royaltiesProviders;\n\n    function __RoyaltiesRegistry_init() external initializer {\n        __Ownable_init_unchained();\n    }\n\n    function setProviderByToken(address token, address provider) external {\n        checkOwner(token);\n        royaltiesProviders[token] = provider;\n    }\n\n    function setRoyaltiesByToken(address token, LibPart.Part[] memory royalties) external {\n        checkOwner(token);\n        uint sumRoyalties = 0;\n        delete royaltiesByToken[token];\n        for (uint i = 0; i < royalties.length; i++) {\n            require(royalties[i].account != address(0x0), \"RoyaltiesByToken recipient should be present\");\n            require(royalties[i].value != 0, \"Royalty value for RoyaltiesByToken should be > 0\");\n            royaltiesByToken[token].royalties.push(royalties[i]);\n            sumRoyalties += royalties[i].value;\n        }\n        require(sumRoyalties < 10000, \"Set by token royalties sum more, than 100%\");\n        royaltiesByToken[token].initialized = true;\n        emit RoyaltiesSetForContract(token, royalties);\n    }\n\n    function setRoyaltiesByTokenAndTokenId(address token, uint tokenId, LibPart.Part[] memory royalties) external {\n        checkOwner(token);\n        setRoyaltiesCacheByTokenAndTokenId(token, tokenId, royalties);\n    }\n\n    function checkOwner(address token) internal view {\n        if ((owner() != _msgSender()) && (OwnableUpgradeable(token).owner() != _msgSender())) {\n            revert(\"Token owner not detected\");\n        }\n    }\n\n    function getRoyalties(address token, uint tokenId) override external returns (LibPart.Part[] memory) {\n        RoyaltiesSet memory royaltiesSet = royaltiesByTokenAndTokenId[keccak256(abi.encode(token, tokenId))];\n        if (royaltiesSet.initialized) {\n            return royaltiesSet.royalties;\n        }\n        royaltiesSet = royaltiesByToken[token];\n        if (royaltiesSet.initialized) {\n            return royaltiesSet.royalties;\n        }\n        (bool result, LibPart.Part[] memory resultRoyalties) = providerExtractor(token, tokenId);\n        if (result == false) {\n            resultRoyalties = royaltiesFromContract(token, tokenId);\n        }\n        setRoyaltiesCacheByTokenAndTokenId(token, tokenId, resultRoyalties);\n        return resultRoyalties;\n    }\n\n    function setRoyaltiesCacheByTokenAndTokenId(address token, uint tokenId, LibPart.Part[] memory royalties) internal {\n        uint sumRoyalties = 0;\n        bytes32 key = keccak256(abi.encode(token, tokenId));\n        delete royaltiesByTokenAndTokenId[key].royalties;\n        for (uint i = 0; i < royalties.length; i++) {\n            require(royalties[i].account != address(0x0), \"RoyaltiesByTokenAndTokenId recipient should be present\");\n            require(royalties[i].value != 0, \"Royalty value for RoyaltiesByTokenAndTokenId should be > 0\");\n            royaltiesByTokenAndTokenId[key].royalties.push(royalties[i]);\n            sumRoyalties += royalties[i].value;\n        }\n        require(sumRoyalties < 10000, \"Set by token and tokenId royalties sum more, than 100%\");\n        royaltiesByTokenAndTokenId[key].initialized = true;\n        emit RoyaltiesSetForToken(token, tokenId, royalties);\n    }\n\n    function royaltiesFromContract(address token, uint tokenId) internal view returns (LibPart.Part[] memory) {\n        if (IERC165Upgradeable(token).supportsInterface(LibRoyaltiesV2._INTERFACE_ID_ROYALTIES)) {\n            RoyaltiesV2 v2 = RoyaltiesV2(token);\n            try v2.getRaribleV2Royalties(tokenId) returns (LibPart.Part[] memory result) {\n                return result;\n            } catch {}\n        } else {\n            RoyaltiesV1 v1 = RoyaltiesV1(token);\n            address payable[] memory recipients;\n            try v1.getFeeRecipients(tokenId) returns (address payable[] memory result) {\n                recipients = result;\n            } catch {\n                return new LibPart.Part[](0);\n            }\n            uint[] memory values;\n            try v1.getFeeBps(tokenId) returns (uint[] memory result) {\n                values = result;\n            } catch {\n                return new LibPart.Part[](0);\n            }\n            if (values.length != recipients.length) {\n                return new LibPart.Part[](0);\n            }\n            LibPart.Part[] memory result = new LibPart.Part[](values.length);\n            for (uint256 i = 0; i < values.length; i++) {\n                result[i].value = uint96(values[i]);\n                result[i].account = recipients[i];\n            }\n            return result;\n        }\n        return new LibPart.Part[](0);\n    }\n\n    function providerExtractor(address token, uint tokenId) internal returns (bool result, LibPart.Part[] memory royalties) {\n        result = false;\n        address providerAddress = royaltiesProviders[token];\n        if (providerAddress != address(0x0)) {\n            IRoyaltiesProvider provider = IRoyaltiesProvider(providerAddress);\n            try provider.getRoyalties(token, tokenId) returns (LibPart.Part[] memory royaltiesByProvider) {\n                royalties = royaltiesByProvider;\n                result = true;\n            } catch {}\n        }\n    }\n\n    uint256[46] private __gap;\n}\n",
  "sourcePath": "@rarible/royalties-registry/contracts/RoyaltiesRegistry.sol",
  "compiler": {
    "name": "solc",
    "version": "0.7.6+commit.7338295f.Emscripten.clang"
  },
  "schemaVersion": "3.4.3",
  "updatedAt": "2021-11-03T09:28:44.767Z",
  "devdoc": {
    "kind": "dev",
    "methods": {
      "owner()": {
        "details": "Returns the address of the current owner."
      },
      "renounceOwnership()": {
        "details": "Leaves the contract without owner. It will not be possible to call `onlyOwner` functions anymore. Can only be called by the current owner. NOTE: Renouncing ownership will leave the contract without an owner, thereby removing any functionality that is only available to the owner."
      },
      "transferOwnership(address)": {
        "details": "Transfers ownership of the contract to a new account (`newOwner`). Can only be called by the current owner."
      }
    },
    "version": 1
  },
  "userdoc": {
    "kind": "user",
    "methods": {},
    "version": 1
  }
}