{
  "contractName": "RoyaltiesV2Impl",
  "abi": [
    {
      "anonymous": false,
      "inputs": [
        {
          "indexed": false,
          "internalType": "uint256",
          "name": "tokenId",
          "type": "uint256"
        },
        {
          "components": [
            {
              "internalType": "address payable",
              "name": "account",
              "type": "address"
            },
            {
              "internalType": "uint96",
              "name": "value",
              "type": "uint96"
            }
          ],
          "indexed": false,
          "internalType": "struct LibPart.Part[]",
          "name": "royalties",
          "type": "tuple[]"
        }
      ],
      "name": "RoyaltiesSet",
      "type": "event"
    },
    {
      "inputs": [
        {
          "internalType": "uint256",
          "name": "id",
          "type": "uint256"
        }
      ],
      "name": "getRaribleV2Royalties",
      "outputs": [
        {
          "components": [
            {
              "internalType": "address payable",
              "name": "account",
              "type": "address"
            },
            {
              "internalType": "uint96",
              "name": "value",
              "type": "uint96"
            }
          ],
          "internalType": "struct LibPart.Part[]",
          "name": "",
          "type": "tuple[]"
        }
      ],
      "stateMutability": "view",
      "type": "function"
    },
    {
      "inputs": [
        {
          "internalType": "uint256",
          "name": "id",
          "type": "uint256"
        },
        {
          "internalType": "uint256",
          "name": "_salePrice",
          "type": "uint256"
        }
      ],
      "name": "royaltyInfo",
      "outputs": [
        {
          "internalType": "address",
          "name": "receiver",
          "type": "address"
        },
        {
          "internalType": "uint256",
          "name": "royaltyAmount",
          "type": "uint256"
        }
      ],
      "stateMutability": "view",
      "type": "function"
    }
  ],
  "bytecode": "0x608060405234801561001057600080fd5b50610300806100206000396000f3fe608060405234801561001057600080fd5b50600436106100365760003560e01c80632a55205a1461003b578063cad96cca14610065575b600080fd5b61004e61004936600461022f565b610085565b60405161005c929190610250565b60405180910390f35b610078610073366004610217565b610191565b60405161005c9190610269565b60008281526020819052604081205481906100a55750600090508061018a565b60008481526020818152604080832080548251818502810185019093528083529192909190849084015b8282101561011e57600084815260209081902060408051808201909152908401546001600160a01b0381168252600160a01b90046001600160601b0316818301528252600190920191016100cf565b5050505090508060008151811061013157fe5b60209081029190910101515192506000805b825181101561017e5782818151811061015857fe5b6020026020010151602001516001600160601b0316820191508080600101915050610143565b50612710908502049150505b9250929050565b600081815260208181526040808320805482518185028101850190935280835260609492939192909184015b8282101561020c57600084815260209081902060408051808201909152908401546001600160a01b0381168252600160a01b90046001600160601b0316818301528252600190920191016101bd565b505050509050919050565b600060208284031215610228578081fd5b5035919050565b60008060408385031215610241578081fd5b50508035926020909101359150565b6001600160a01b03929092168252602082015260400190565b602080825282518282018190526000919060409081850190868401855b828110156102bd57815180516001600160a01b031685528601516001600160601b0316868501529284019290850190600101610286565b509197965050505050505056fea264697066735822122038baffacc4fd302e9606738bf65cc4c14366ea7c3be624098997350e3f328f2964736f6c63430007060033",
  "immutableReferences": {},
  "source": "// SPDX-License-Identifier: MIT\n\npragma solidity >=0.6.2 <0.8.0;\npragma abicoder v2;\n\nimport \"./AbstractRoyalties.sol\";\nimport \"../RoyaltiesV2.sol\";\nimport \"../IERC2981.sol\";\nimport \"../LibRoyalties2981.sol\";\n\ncontract RoyaltiesV2Impl is AbstractRoyalties, RoyaltiesV2, IERC2981 {\n\n    function getRaribleV2Royalties(uint256 id) override external view returns (LibPart.Part[] memory) {\n        return royalties[id];\n    }\n\n    function _onRoyaltiesSet(uint256 id, LibPart.Part[] memory _royalties) override internal {\n        emit RoyaltiesSet(id, _royalties);\n    }\n\n    /*\n    *Token (ERC721, ERC721Minimal, ERC721MinimalMeta, ERC1155 ) can have a number of different royalties beneficiaries\n    *calculate sum all royalties, but royalties beneficiary will be only one royalties[0].account, according to rules of IERC2981\n    */\n    function royaltyInfo(uint256 id, uint256 _salePrice) override external view returns (address receiver, uint256 royaltyAmount) {\n        if (royalties[id].length == 0) {\n            receiver = address(0);\n            royaltyAmount = 0;\n            return(receiver, royaltyAmount);\n        }\n        LibPart.Part[] memory _royalties = royalties[id];\n        receiver = _royalties[0].account;\n        uint percent;\n        for (uint i = 0; i < _royalties.length; i++) {\n            percent += _royalties[i].value;\n        }\n        //don`t need require(percent < 10000, \"Token royalty > 100%\"); here, because check later in calculateRoyalties\n        royaltyAmount = percent * _salePrice / 10000;\n    }\n}\n",
  "sourcePath": "@rarible/royalties/contracts/impl/RoyaltiesV2Impl.sol",
  "compiler": {
    "name": "solc",
    "version": "0.7.6+commit.7338295f.Emscripten.clang"
  },
  "schemaVersion": "3.4.3",
  "updatedAt": "2022-02-02T14:08:14.367Z",
  "devdoc": {
    "kind": "dev",
    "methods": {},
    "version": 1
  },
  "userdoc": {
    "kind": "user",
    "methods": {},
    "version": 1
  }
}