{
  "contractName": "RoyaltiesV2Impl",
  "abi": [
    {
      "anonymous": false,
      "inputs": [
        {
          "indexed": false,
          "internalType": "uint256",
          "name": "tokenId",
          "type": "uint256"
        },
        {
          "components": [
            {
              "internalType": "address payable",
              "name": "account",
              "type": "address"
            },
            {
              "internalType": "uint96",
              "name": "value",
              "type": "uint96"
            }
          ],
          "indexed": false,
          "internalType": "struct LibPart.Part[]",
          "name": "royalties",
          "type": "tuple[]"
        }
      ],
      "name": "RoyaltiesSet",
      "type": "event"
    },
    {
      "inputs": [
        {
          "internalType": "uint256",
          "name": "id",
          "type": "uint256"
        }
      ],
      "name": "getRaribleV2Royalties",
      "outputs": [
        {
          "components": [
            {
              "internalType": "address payable",
              "name": "account",
              "type": "address"
            },
            {
              "internalType": "uint96",
              "name": "value",
              "type": "uint96"
            }
          ],
          "internalType": "struct LibPart.Part[]",
          "name": "",
          "type": "tuple[]"
        }
      ],
      "stateMutability": "view",
      "type": "function"
    }
  ],
  "bytecode": "0x608060405234801561001057600080fd5b50610198806100206000396000f3fe608060405234801561001057600080fd5b506004361061002b5760003560e01c8063cad96cca14610030575b600080fd5b61004361003e3660046100e4565b610059565b60405161005091906100fc565b60405180910390f35b600081815260208181526040808320805482518185028101850190935280835260609492939192909184015b828210156100d957600084815260209081902060408051808201909152908401546001600160a01b0381168252600160a01b90046bffffffffffffffffffffffff1681830152825260019092019101610085565b505050509050919050565b6000602082840312156100f5578081fd5b5035919050565b602080825282518282018190526000919060409081850190868401855b8281101561015557815180516001600160a01b031685528601516bffffffffffffffffffffffff16868501529284019290850190600101610119565b509197965050505050505056fea2646970667358221220cc2d139006662688647f8a00e36220662a84fa7e82e582b8d9c636f99d2eda8464736f6c63430007060033",
  "immutableReferences": {},
  "source": "// SPDX-License-Identifier: MIT\n\npragma solidity >=0.6.2 <0.8.0;\npragma abicoder v2;\n\nimport \"./AbstractRoyalties.sol\";\nimport \"../RoyaltiesV2.sol\";\n\ncontract RoyaltiesV2Impl is AbstractRoyalties, RoyaltiesV2 {\n\n    function getRaribleV2Royalties(uint256 id) override external view returns (LibPart.Part[] memory) {\n        return royalties[id];\n    }\n\n    function _onRoyaltiesSet(uint256 id, LibPart.Part[] memory _royalties) override internal {\n        emit RoyaltiesSet(id, _royalties);\n    }\n}\n",
  "sourcePath": "@rarible/royalties/contracts/impl/RoyaltiesV2Impl.sol",
  "compiler": {
    "name": "solc",
    "version": "0.7.6+commit.7338295f.Emscripten.clang"
  },
  "schemaVersion": "3.4.3",
  "updatedAt": "2021-12-02T16:41:33.780Z",
  "devdoc": {
    "kind": "dev",
    "methods": {},
    "version": 1
  },
  "userdoc": {
    "kind": "user",
    "methods": {},
    "version": 1
  }
}