{
  "contractName": "Staking",
  "abi": [
    {
      "anonymous": false,
      "inputs": [
        {
          "indexed": true,
          "internalType": "uint256",
          "name": "id",
          "type": "uint256"
        },
        {
          "indexed": true,
          "internalType": "address",
          "name": "account",
          "type": "address"
        },
        {
          "indexed": true,
          "internalType": "address",
          "name": "delegate",
          "type": "address"
        },
        {
          "indexed": false,
          "internalType": "uint256",
          "name": "time",
          "type": "uint256"
        }
      ],
      "name": "Delegate",
      "type": "event"
    },
    {
      "anonymous": false,
      "inputs": [
        {
          "indexed": true,
          "internalType": "address",
          "name": "delegator",
          "type": "address"
        },
        {
          "indexed": true,
          "internalType": "address",
          "name": "fromDelegate",
          "type": "address"
        },
        {
          "indexed": true,
          "internalType": "address",
          "name": "toDelegate",
          "type": "address"
        }
      ],
      "name": "DelegateChanged",
      "type": "event"
    },
    {
      "anonymous": false,
      "inputs": [
        {
          "indexed": true,
          "internalType": "address",
          "name": "delegate",
          "type": "address"
        },
        {
          "indexed": false,
          "internalType": "uint256",
          "name": "previousBalance",
          "type": "uint256"
        },
        {
          "indexed": false,
          "internalType": "uint256",
          "name": "newBalance",
          "type": "uint256"
        }
      ],
      "name": "DelegateVotesChanged",
      "type": "event"
    },
    {
      "anonymous": false,
      "inputs": [
        {
          "indexed": true,
          "internalType": "address",
          "name": "account",
          "type": "address"
        },
        {
          "indexed": false,
          "internalType": "uint256[]",
          "name": "id",
          "type": "uint256[]"
        }
      ],
      "name": "Migrate",
      "type": "event"
    },
    {
      "anonymous": false,
      "inputs": [
        {
          "indexed": true,
          "internalType": "address",
          "name": "previousOwner",
          "type": "address"
        },
        {
          "indexed": true,
          "internalType": "address",
          "name": "newOwner",
          "type": "address"
        }
      ],
      "name": "OwnershipTransferred",
      "type": "event"
    },
    {
      "anonymous": false,
      "inputs": [
        {
          "indexed": true,
          "internalType": "uint256",
          "name": "id",
          "type": "uint256"
        },
        {
          "indexed": true,
          "internalType": "address",
          "name": "account",
          "type": "address"
        },
        {
          "indexed": true,
          "internalType": "address",
          "name": "delegate",
          "type": "address"
        },
        {
          "indexed": false,
          "internalType": "uint256",
          "name": "counter",
          "type": "uint256"
        },
        {
          "indexed": false,
          "internalType": "uint256",
          "name": "time",
          "type": "uint256"
        },
        {
          "indexed": false,
          "internalType": "uint256",
          "name": "amount",
          "type": "uint256"
        },
        {
          "indexed": false,
          "internalType": "uint256",
          "name": "slope",
          "type": "uint256"
        },
        {
          "indexed": false,
          "internalType": "uint256",
          "name": "cliff",
          "type": "uint256"
        }
      ],
      "name": "Restake",
      "type": "event"
    },
    {
      "anonymous": false,
      "inputs": [
        {
          "indexed": true,
          "internalType": "uint256",
          "name": "newMinCliffPeriod",
          "type": "uint256"
        }
      ],
      "name": "SetMinCliffPeriod",
      "type": "event"
    },
    {
      "anonymous": false,
      "inputs": [
        {
          "indexed": true,
          "internalType": "uint256",
          "name": "newMinSlopePeriod",
          "type": "uint256"
        }
      ],
      "name": "SetMinSlopePeriod",
      "type": "event"
    },
    {
      "anonymous": false,
      "inputs": [
        {
          "indexed": true,
          "internalType": "uint256",
          "name": "newStartingPointWeek",
          "type": "uint256"
        }
      ],
      "name": "SetStartingPointWeek",
      "type": "event"
    },
    {
      "anonymous": false,
      "inputs": [
        {
          "indexed": true,
          "internalType": "uint256",
          "name": "id",
          "type": "uint256"
        },
        {
          "indexed": true,
          "internalType": "address",
          "name": "account",
          "type": "address"
        },
        {
          "indexed": true,
          "internalType": "address",
          "name": "delegate",
          "type": "address"
        },
        {
          "indexed": false,
          "internalType": "uint256",
          "name": "time",
          "type": "uint256"
        },
        {
          "indexed": false,
          "internalType": "uint256",
          "name": "amount",
          "type": "uint256"
        },
        {
          "indexed": false,
          "internalType": "uint256",
          "name": "slope",
          "type": "uint256"
        },
        {
          "indexed": false,
          "internalType": "uint256",
          "name": "cliff",
          "type": "uint256"
        }
      ],
      "name": "StakeCreate",
      "type": "event"
    },
    {
      "anonymous": false,
      "inputs": [
        {
          "indexed": true,
          "internalType": "address",
          "name": "account",
          "type": "address"
        },
        {
          "indexed": true,
          "internalType": "address",
          "name": "to",
          "type": "address"
        }
      ],
      "name": "StartMigration",
      "type": "event"
    },
    {
      "anonymous": false,
      "inputs": [
        {
          "indexed": true,
          "internalType": "address",
          "name": "account",
          "type": "address"
        }
      ],
      "name": "StopStaking",
      "type": "event"
    },
    {
      "anonymous": false,
      "inputs": [
        {
          "indexed": true,
          "internalType": "address",
          "name": "account",
          "type": "address"
        },
        {
          "indexed": false,
          "internalType": "uint256",
          "name": "amount",
          "type": "uint256"
        }
      ],
      "name": "Withdraw",
      "type": "event"
    },
    {
      "inputs": [],
      "name": "WEEK",
      "outputs": [
        {
          "internalType": "uint256",
          "name": "",
          "type": "uint256"
        }
      ],
      "stateMutability": "view",
      "type": "function",
      "constant": true
    },
    {
      "inputs": [],
      "name": "counter",
      "outputs": [
        {
          "internalType": "uint256",
          "name": "",
          "type": "uint256"
        }
      ],
      "stateMutability": "view",
      "type": "function",
      "constant": true
    },
    {
      "inputs": [
        {
          "internalType": "address",
          "name": "delegatee",
          "type": "address"
        }
      ],
      "name": "delegate",
      "outputs": [],
      "stateMutability": "nonpayable",
      "type": "function"
    },
    {
      "inputs": [
        {
          "internalType": "address",
          "name": "delegatee",
          "type": "address"
        },
        {
          "internalType": "uint256",
          "name": "nonce",
          "type": "uint256"
        },
        {
          "internalType": "uint256",
          "name": "expiry",
          "type": "uint256"
        },
        {
          "internalType": "uint8",
          "name": "v",
          "type": "uint8"
        },
        {
          "internalType": "bytes32",
          "name": "r",
          "type": "bytes32"
        },
        {
          "internalType": "bytes32",
          "name": "s",
          "type": "bytes32"
        }
      ],
      "name": "delegateBySig",
      "outputs": [],
      "stateMutability": "nonpayable",
      "type": "function"
    },
    {
      "inputs": [
        {
          "internalType": "address",
          "name": "account",
          "type": "address"
        }
      ],
      "name": "delegates",
      "outputs": [
        {
          "internalType": "address",
          "name": "",
          "type": "address"
        }
      ],
      "stateMutability": "view",
      "type": "function",
      "constant": true
    },
    {
      "inputs": [
        {
          "internalType": "uint256",
          "name": "blockNumber",
          "type": "uint256"
        }
      ],
      "name": "getPastTotalSupply",
      "outputs": [
        {
          "internalType": "uint256",
          "name": "",
          "type": "uint256"
        }
      ],
      "stateMutability": "view",
      "type": "function",
      "constant": true
    },
    {
      "inputs": [
        {
          "internalType": "address",
          "name": "account",
          "type": "address"
        },
        {
          "internalType": "uint256",
          "name": "blockNumber",
          "type": "uint256"
        }
      ],
      "name": "getPastVotes",
      "outputs": [
        {
          "internalType": "uint256",
          "name": "",
          "type": "uint256"
        }
      ],
      "stateMutability": "view",
      "type": "function",
      "constant": true
    },
    {
      "inputs": [
        {
          "internalType": "uint256",
          "name": "amount",
          "type": "uint256"
        },
        {
          "internalType": "uint256",
          "name": "slope",
          "type": "uint256"
        },
        {
          "internalType": "uint256",
          "name": "cliff",
          "type": "uint256"
        }
      ],
      "name": "getStake",
      "outputs": [
        {
          "internalType": "uint256",
          "name": "stakeAmount",
          "type": "uint256"
        },
        {
          "internalType": "uint256",
          "name": "stakeSlope",
          "type": "uint256"
        }
      ],
      "stateMutability": "view",
      "type": "function",
      "constant": true
    },
    {
      "inputs": [
        {
          "internalType": "address",
          "name": "account",
          "type": "address"
        }
      ],
      "name": "getVotes",
      "outputs": [
        {
          "internalType": "uint256",
          "name": "",
          "type": "uint256"
        }
      ],
      "stateMutability": "view",
      "type": "function",
      "constant": true
    },
    {
      "inputs": [],
      "name": "migrateTo",
      "outputs": [
        {
          "internalType": "address",
          "name": "",
          "type": "address"
        }
      ],
      "stateMutability": "view",
      "type": "function",
      "constant": true
    },
    {
      "inputs": [],
      "name": "minCliffPeriod",
      "outputs": [
        {
          "internalType": "uint256",
          "name": "",
          "type": "uint256"
        }
      ],
      "stateMutability": "view",
      "type": "function",
      "constant": true
    },
    {
      "inputs": [],
      "name": "minSlopePeriod",
      "outputs": [
        {
          "internalType": "uint256",
          "name": "",
          "type": "uint256"
        }
      ],
      "stateMutability": "view",
      "type": "function",
      "constant": true
    },
    {
      "inputs": [],
      "name": "owner",
      "outputs": [
        {
          "internalType": "address",
          "name": "",
          "type": "address"
        }
      ],
      "stateMutability": "view",
      "type": "function",
      "constant": true
    },
    {
      "inputs": [],
      "name": "renounceOwnership",
      "outputs": [],
      "stateMutability": "nonpayable",
      "type": "function"
    },
    {
      "inputs": [
        {
          "internalType": "uint256",
          "name": "id",
          "type": "uint256"
        },
        {
          "internalType": "address",
          "name": "newDelegate",
          "type": "address"
        },
        {
          "internalType": "uint256",
          "name": "newAmount",
          "type": "uint256"
        },
        {
          "internalType": "uint256",
          "name": "newSlope",
          "type": "uint256"
        },
        {
          "internalType": "uint256",
          "name": "newCliff",
          "type": "uint256"
        }
      ],
      "name": "restake",
      "outputs": [
        {
          "internalType": "uint256",
          "name": "",
          "type": "uint256"
        }
      ],
      "stateMutability": "nonpayable",
      "type": "function"
    },
    {
      "inputs": [
        {
          "internalType": "uint256",
          "name": "newMinCliffPeriod",
          "type": "uint256"
        }
      ],
      "name": "setMinCliffPeriod",
      "outputs": [],
      "stateMutability": "nonpayable",
      "type": "function"
    },
    {
      "inputs": [
        {
          "internalType": "uint256",
          "name": "newMinSlopePeriod",
          "type": "uint256"
        }
      ],
      "name": "setMinSlopePeriod",
      "outputs": [],
      "stateMutability": "nonpayable",
      "type": "function"
    },
    {
      "inputs": [
        {
          "internalType": "uint256",
          "name": "newStartingPointWeek",
          "type": "uint256"
        }
      ],
      "name": "setStartingPointWeek",
      "outputs": [],
      "stateMutability": "nonpayable",
      "type": "function"
    },
    {
      "inputs": [],
      "name": "startingPointWeek",
      "outputs": [
        {
          "internalType": "uint256",
          "name": "",
          "type": "uint256"
        }
      ],
      "stateMutability": "view",
      "type": "function",
      "constant": true
    },
    {
      "inputs": [],
      "name": "stopped",
      "outputs": [
        {
          "internalType": "bool",
          "name": "",
          "type": "bool"
        }
      ],
      "stateMutability": "view",
      "type": "function",
      "constant": true
    },
    {
      "inputs": [],
      "name": "token",
      "outputs": [
        {
          "internalType": "contract IERC20Upgradeable",
          "name": "",
          "type": "address"
        }
      ],
      "stateMutability": "view",
      "type": "function",
      "constant": true
    },
    {
      "inputs": [],
      "name": "totalSupplyLine",
      "outputs": [
        {
          "components": [
            {
              "internalType": "uint256",
              "name": "start",
              "type": "uint256"
            },
            {
              "internalType": "uint256",
              "name": "bias",
              "type": "uint256"
            },
            {
              "internalType": "uint256",
              "name": "slope",
              "type": "uint256"
            }
          ],
          "internalType": "struct LibBrokenLine.Line",
          "name": "initial",
          "type": "tuple"
        }
      ],
      "stateMutability": "view",
      "type": "function",
      "constant": true
    },
    {
      "inputs": [
        {
          "internalType": "address",
          "name": "newOwner",
          "type": "address"
        }
      ],
      "name": "transferOwnership",
      "outputs": [],
      "stateMutability": "nonpayable",
      "type": "function"
    },
    {
      "inputs": [
        {
          "internalType": "contract IERC20Upgradeable",
          "name": "_token",
          "type": "address"
        },
        {
          "internalType": "uint256",
          "name": "_startingPointWeek",
          "type": "uint256"
        },
        {
          "internalType": "uint256",
          "name": "_minCliffPeriod",
          "type": "uint256"
        },
        {
          "internalType": "uint256",
          "name": "_minSlopePeriod",
          "type": "uint256"
        }
      ],
      "name": "__Staking_init",
      "outputs": [],
      "stateMutability": "nonpayable",
      "type": "function"
    },
    {
      "inputs": [],
      "name": "stop",
      "outputs": [],
      "stateMutability": "nonpayable",
      "type": "function"
    },
    {
      "inputs": [
        {
          "internalType": "address",
          "name": "to",
          "type": "address"
        }
      ],
      "name": "startMigration",
      "outputs": [],
      "stateMutability": "nonpayable",
      "type": "function"
    },
    {
      "inputs": [
        {
          "internalType": "address",
          "name": "account",
          "type": "address"
        },
        {
          "internalType": "address",
          "name": "_delegate",
          "type": "address"
        },
        {
          "internalType": "uint256",
          "name": "amount",
          "type": "uint256"
        },
        {
          "internalType": "uint256",
          "name": "slope",
          "type": "uint256"
        },
        {
          "internalType": "uint256",
          "name": "cliff",
          "type": "uint256"
        }
      ],
      "name": "stake",
      "outputs": [
        {
          "internalType": "uint256",
          "name": "",
          "type": "uint256"
        }
      ],
      "stateMutability": "nonpayable",
      "type": "function"
    },
    {
      "inputs": [],
      "name": "withdraw",
      "outputs": [],
      "stateMutability": "nonpayable",
      "type": "function"
    },
    {
      "inputs": [
        {
          "internalType": "address",
          "name": "account",
          "type": "address"
        }
      ],
      "name": "getAvailableForWithdraw",
      "outputs": [
        {
          "internalType": "uint256",
          "name": "value",
          "type": "uint256"
        }
      ],
      "stateMutability": "view",
      "type": "function",
      "constant": true
    },
    {
      "inputs": [
        {
          "internalType": "address",
          "name": "account",
          "type": "address"
        }
      ],
      "name": "locked",
      "outputs": [
        {
          "internalType": "uint256",
          "name": "",
          "type": "uint256"
        }
      ],
      "stateMutability": "view",
      "type": "function",
      "constant": true
    },
    {
      "inputs": [
        {
          "internalType": "uint256",
          "name": "id",
          "type": "uint256"
        }
      ],
      "name": "getAccountAndDelegate",
      "outputs": [
        {
          "internalType": "address",
          "name": "account",
          "type": "address"
        },
        {
          "internalType": "address",
          "name": "delegate",
          "type": "address"
        }
      ],
      "stateMutability": "view",
      "type": "function",
      "constant": true
    },
    {
      "inputs": [],
      "name": "getWeek",
      "outputs": [
        {
          "internalType": "uint256",
          "name": "",
          "type": "uint256"
        }
      ],
      "stateMutability": "view",
      "type": "function",
      "constant": true
    },
    {
      "inputs": [
        {
          "internalType": "uint256",
          "name": "id",
          "type": "uint256"
        },
        {
          "internalType": "address",
          "name": "newDelegate",
          "type": "address"
        }
      ],
      "name": "delegateTo",
      "outputs": [],
      "stateMutability": "nonpayable",
      "type": "function"
    },
    {
      "inputs": [],
      "name": "totalSupply",
      "outputs": [
        {
          "internalType": "uint256",
          "name": "",
          "type": "uint256"
        }
      ],
      "stateMutability": "view",
      "type": "function",
      "constant": true
    },
    {
      "inputs": [
        {
          "internalType": "address",
          "name": "account",
          "type": "address"
        }
      ],
      "name": "balanceOf",
      "outputs": [
        {
          "internalType": "uint256",
          "name": "",
          "type": "uint256"
        }
      ],
      "stateMutability": "view",
      "type": "function",
      "constant": true
    },
    {
      "inputs": [
        {
          "internalType": "uint256[]",
          "name": "id",
          "type": "uint256[]"
        }
      ],
      "name": "migrate",
      "outputs": [],
      "stateMutability": "nonpayable",
      "type": "function"
    },
    {
      "inputs": [],
      "name": "name",
      "outputs": [
        {
          "internalType": "string",
          "name": "",
          "type": "string"
        }
      ],
      "stateMutability": "view",
      "type": "function",
      "constant": true
    },
    {
      "inputs": [],
      "name": "symbol",
      "outputs": [
        {
          "internalType": "string",
          "name": "",
          "type": "string"
        }
      ],
      "stateMutability": "view",
      "type": "function",
      "constant": true
    },
    {
      "inputs": [],
      "name": "decimals",
      "outputs": [
        {
          "internalType": "uint8",
          "name": "",
          "type": "uint8"
        }
      ],
      "stateMutability": "view",
      "type": "function",
      "constant": true
    }
  ],
  "bytecode": "0x608060405234801561001057600080fd5b506139c6806100206000396000f3fe608060405234801561001057600080fd5b506004361061023d5760003560e01c80638e539e8c1161013b578063b6231633116100b8578063f2fde38b1161007c578063f2fde38b1461047a578063f4359ce51461048d578063fc0c546a14610495578063fc7881c61461049d578063fecf0fdd146104b05761023d565b8063b62316331461042b578063c3cda52014610433578063cbf9fe5f14610441578063d93bf4fe14610454578063f108fa93146104675761023d565b8063a0f52da0116100ff578063a0f52da0146103d5578063a8edafbe146103e8578063ac7ae589146103fb578063acc9b64814610403578063b53546ab146104165761023d565b80638e539e8c1461038c57806395d89b411461039f57806398c6e760146103a757806399eccf62146103af5780639ab24eb0146103c25761023d565b80635c19a95c116101c9578063715018a61161018d578063715018a61461034c57806375f12b2114610354578063874d6d81146103695780638cda5c14146103715780638da5cb5b146103845761023d565b80635c19a95c1461030357806361bc221a1461031657806367c8c4731461031e5780636bde67d81461032657806370a08231146103395761023d565b806318160ddd1161021057806318160ddd146102ab578063313ce567146102b35780633a46b1a8146102c85780633ccfd60b146102db578063587cde1e146102e35761023d565b806306fdde031461024257806307da68f5146102605780630fc8deca1461026a57806315622e231461028a575b600080fd5b61024a6104d1565b6040516102579190613205565b60405180910390f35b6102686104ff565b005b61027d610278366004612e96565b6105c7565b60405161025791906137ea565b61029d610298366004613095565b61063e565b60405161025792919061319a565b61027d610665565b6102bb6106a6565b6040516102579190613873565b61027d6102d6366004612f02565b6106ab565b61026861071b565b6102f66102f1366004612e96565b610844565b6040516102579190613149565b610268610311366004612e96565b61085e565b61027d610876565b61027d61087c565b61027d6103343660046130dc565b610882565b61027d610347366004612e96565b610ac8565b610268610b38565b61035c610be4565b60405161025791906131ec565b61027d610bed565b61026861037f36600461305b565b610bff565b6102f6610cc1565b61027d61039a366004613095565b610cd0565b61024a610d1f565b6102f6610d3f565b6102686103bd366004613095565b610d53565b61027d6103d0366004612e96565b610e59565b6102686103e3366004612e96565b610e87565b6102686103f6366004613095565b610f3d565b61027d61104c565b610268610411366004613095565b611052565b61041e611158565b60405161025791906137dc565b61027d61117c565b610268610311366004612f2d565b61027d61044f366004612e96565b611182565b610268610462366004612f8d565b6111a0565b61027d610475366004612eb2565b611545565b610268610488366004612e96565b6117eb565b61027d6118ee565b6102f66118f4565b6102686104ab3660046130ad565b611903565b6104c36104be366004613105565b611b95565b6040516102579291906131f7565b60408051808201909152601381527252617269626c6520566f74652d457363726f7760681b60208201525b90565b610507611c88565b6001600160a01b0316610518610cc1565b6001600160a01b031614610561576040805162461bcd60e51b8152602060048201819052602482015260008051602061392d833981519152604482015290519081900360640190fd5b60675460ff161561058d5760405162461bcd60e51b815260040161058490613778565b60405180910390fd5b6067805460ff1916600117905560405133907f6bc4e1d7a91902d97533e9181b5ca4c1e8a90725e767a9b8cdbbcf901ba554fe90600090a2565b6001600160a01b0381166000908152606b60205260409020600c015460675460ff166106395760006105ff6105fa611c8c565b611c90565b6001600160a01b0384166000908152606b60205260408120919250906106289060060183611cd9565b90506106348382611d4a565b925050505b919050565b6000908152606c6020526040902080546001909101546001600160a01b0391821692911690565b6071546000901580610679575060675460ff165b15610686575060006104fc565b60006106936105fa611c8c565b90506106a0606d82611cd9565b91505090565b601290565b6000806106b783611c90565b90506106c1611c8c565b831080156106cf5750600081115b6106eb5760405162461bcd60e51b815260040161058490613722565b6001600160a01b0384166000908152606b60205260409020610711906000198301611cd9565b9150505b92915050565b6000610726336105c7565b9050801561080057336000908152606b60205260409020600c015461074b9082611d4a565b336000818152606b602052604090819020600c0192909255606554915163a9059cbb60e01b81526001600160a01b039092169163a9059cbb91610792918590600401613181565b602060405180830381600087803b1580156107ac57600080fd5b505af11580156107c0573d6000803e3d6000fd5b505050506040513d601f19601f820116820180604052508101906107e4919061303b565b6108005760405162461bcd60e51b81526004016105849061374f565b336001600160a01b03167f884edad9ce6fa2440d8a54cc123490eb96d2768479d49ff9c7366125a94243648260405161083991906137ea565b60405180910390a250565b600060405162461bcd60e51b815260040161058490613373565b60405162461bcd60e51b815260040161058490613373565b60665481565b60685481565b60675460009060ff16156108a85760405162461bcd60e51b815260040161058490613778565b60675461010090046001600160a01b0316156108d65760405162461bcd60e51b815260040161058490613525565b60006108e187611da7565b905060006108f06105fa611c8c565b9050610900828988888886611dde565b6000888152606c60209081526040808320600101546001600160a01b038681168552606b90935292209116906109399060060183611f9a565b6001600160a01b0383166000908152606b60205260409020600a015461096f908a90859061096983838789612064565b8b6120da565b606680546001019055610986838989898987612248565b876001600160a01b0316836001600160a01b03168a7fed21ca2fb4312d282540746b7f00899205aee2bd522dcbb837405aea6a92b52a606654868c8c8c6040516109d4959493929190613850565b60405180910390a4876001600160a01b0316816001600160a01b0316846001600160a01b03167f3134e8a2e6d97e929a7e54011ea5485d7d196dd5f0ba4d4ef95803e8e3fc257f60405160405180910390a46001600160a01b0381166000818152606b602052604081206000805160206139718339815191529190610a599086611cd9565b604051610a679291906131f7565b60405180910390a26001600160a01b0388166000818152606b602052604081206000805160206139718339815191529190610aa29086611cd9565b604051610ab09291906131f7565b60405180910390a25050606654979650505050505050565b6001600160a01b0381166000908152606b60205260408120600401541580610af2575060675460ff165b15610aff57506000610639565b6000610b0c6105fa611c8c565b6001600160a01b0384166000908152606b60205260409020909150610b319082611cd9565b9392505050565b610b40611c88565b6001600160a01b0316610b51610cc1565b6001600160a01b031614610b9a576040805162461bcd60e51b8152602060048201819052602482015260008051602061392d833981519152604482015290519081900360640190fd5b6033546040516000916001600160a01b0316907f8be0079c531659141344cd1fd0a4f28419497f9722a3daafe3b4186f6b6457e0908390a3603380546001600160a01b0319169055565b60675460ff1681565b6000610bfa6105fa611c8c565b905090565b600054610100900460ff1680610c185750610c18612351565b80610c26575060005460ff16155b610c615760405162461bcd60e51b815260040180806020018281038252602e8152602001806138de602e913960400191505060405180910390fd5b600054610100900460ff16158015610c8c576000805460ff1961ff0019909116610100171660011790555b610c9885858585612362565b610ca0612431565b610ca861252a565b8015610cba576000805461ff00191690555b5050505050565b6033546001600160a01b031690565b600080610cdc83611c90565b9050610ce6611c8c565b83108015610cf45750600081115b610d105760405162461bcd60e51b815260040161058490613722565b610b31606d6000198301611cd9565b60408051808201909152600681526576655241524960d01b602082015290565b60675461010090046001600160a01b031681565b60675460ff1615610d765760405162461bcd60e51b815260040161058490613778565b60675461010090046001600160a01b031615610da45760405162461bcd60e51b815260040161058490613525565b610dac611c88565b6001600160a01b0316610dbd610cc1565b6001600160a01b031614610e06576040805162461bcd60e51b8152602060048201819052602482015260008051602061392d833981519152604482015290519081900360640190fd5b60688110610e265760405162461bcd60e51b815260040161058490613258565b606981905560405181907f88345dd2cdc36a4778bf7fed510015cf81efda1a773e1b6360fde7cb1631b21090600090a250565b6000610715610e696105fa611c8c565b6001600160a01b0384166000908152606b6020526040902090611cd9565b610e8f611c88565b6001600160a01b0316610ea0610cc1565b6001600160a01b031614610ee9576040805162461bcd60e51b8152602060048201819052602482015260008051602061392d833981519152604482015290519081900360640190fd5b60678054610100600160a81b0319166101006001600160a01b0384169081029190911790915560405133907f51ace7fc4e2a9f6104449d0bbe0532efdfd8dfebc68b225b91dd1de3bbb804fd90600090a350565b60675460ff1615610f605760405162461bcd60e51b815260040161058490613778565b60675461010090046001600160a01b031615610f8e5760405162461bcd60e51b815260040161058490613525565b610f96611c88565b6001600160a01b0316610fa7610cc1565b6001600160a01b031614610ff0576040805162461bcd60e51b8152602060048201819052602482015260008051602061392d833981519152604482015290519081900360640190fd5b610ffb6105fa611c8c565b81106110195760405162461bcd60e51b8152600401610584906134ab565b606a81905560405181907f2f807974bc9b84320f39300f6395b257c58bb285c61d262ec17c8332772d683690600090a250565b606a5481565b60675460ff16156110755760405162461bcd60e51b815260040161058490613778565b60675461010090046001600160a01b0316156110a35760405162461bcd60e51b815260040161058490613525565b6110ab611c88565b6001600160a01b03166110bc610cc1565b6001600160a01b031614611105576040805162461bcd60e51b8152602060048201819052602482015260008051602061392d833981519152604482015290519081900360640190fd5b606881106111255760405162461bcd60e51b8152600401610584906133fa565b606881905560405181907fa21222d0eed205eed6a46ed1fe7faf1d0b5d097b9e04a6d4e59b7f1debfc8b2b90600090a250565b60408051606081018252607054815260715460208201526072549181019190915281565b60695481565b6001600160a01b03166000908152606b60205260409020600c015490565b60675461010090046001600160a01b03166111ba57611542565b60006111c76105fa611c8c565b60675490915061010090046001600160a01b031660005b83518110156114fd5760006112058583815181106111f857fe5b6020026020010151611da7565b90506000606c600087858151811061121957fe5b6020908102919091018101518252810191909152604001600020600101546001600160a01b0316905061124d8282876125cb565b6001600160a01b0382166000908152606b602052604081208751600890910190829089908790811061127b57fe5b6020026020010151815260200190815260200160002060405180604001604052908160008201604051806060016040529081600082015481526020016001820154815260200160028201548152505081526020016003820154815250509050600061131a8886815181106112eb57fe5b6020908102919091018101516001600160a01b0387166000908152606b90925260409091206006019089612622565b505060655460675460405163a9059cbb60e01b81529293506001600160a01b039182169263a9059cbb9261135992610100900416908590600401613181565b602060405180830381600087803b15801561137357600080fd5b505af1158015611387573d6000803e3d6000fd5b505050506040513d601f19601f820116820180604052508101906113ab919061303b565b6113c75760405162461bcd60e51b81526004016105849061374f565b6001600160a01b0384166000908152606b60205260409020600c01546113ed9082611d4a565b6001600160a01b0385166000908152606b60205260409020600c015587516114479089908790811061141b57fe5b6020908102919091018101516001600160a01b0386166000908152606b90925260409091209089612622565b50505061147388868151811061145957fe5b602002602001015188606d6126229092919063ffffffff16565b505050856001600160a01b0316638d7cdec289878151811061149157fe5b60200260200101518487876040518563ffffffff1660e01b81526004016114bb94939291906137f3565b600060405180830381600087803b1580156114d557600080fd5b505af11580156114e9573d6000803e3d6000fd5b5050600190960195506111de945050505050565b50336001600160a01b03167f9302ff85f986fa03af144f0430ecea91ded0b24af1655f46bde13c1d3c13b76b8460405161153791906131b4565b60405180910390a250505b50565b60675460009060ff161561156b5760405162461bcd60e51b815260040161058490613778565b60675461010090046001600160a01b0316156115995760405162461bcd60e51b815260040161058490613525565b600084116115b95760405162461bcd60e51b8152600401610584906132d4565b60688211156115da5760405162461bcd60e51b81526004016105849061339c565b60686115e6858561287c565b11156116045760405162461bcd60e51b815260040161058490613616565b6065546040516323b872dd60e01b81526001600160a01b03909116906323b872dd906116389033903090899060040161315d565b602060405180830381600087803b15801561165257600080fd5b505af1158015611666573d6000803e3d6000fd5b505050506040513d601f19601f8201168201806040525081019061168a919061303b565b6116a65760405162461bcd60e51b81526004016105849061374f565b60668054600101905560006116bc6105fa611c8c565b90506116cc878787878786612248565b6001600160a01b0387166000908152606b60205260409020600c01546116f29086612891565b6001600160a01b038089166000818152606b602052604090819020600c019390935560665492519189169290917f623b3d5e572a148a73b818e6f65063f047c4acf2a38cc0c8b367c5cd555963ae906117529086908b908b908b90613835565b60405180910390a46040516001600160a01b03808816916000918a16907f3134e8a2e6d97e929a7e54011ea5485d7d196dd5f0ba4d4ef95803e8e3fc257f908390a46001600160a01b0386166000818152606b6020526040812060008051602061397183398151915291906117c79085611cd9565b6040516117d59291906131f7565b60405180910390a2505060665495945050505050565b6117f3611c88565b6001600160a01b0316611804610cc1565b6001600160a01b03161461184d576040805162461bcd60e51b8152602060048201819052602482015260008051602061392d833981519152604482015290519081900360640190fd5b6001600160a01b0381166118925760405162461bcd60e51b81526004018080602001828103825260268152602001806138976026913960400191505060405180910390fd5b6033546040516001600160a01b038084169216907f8be0079c531659141344cd1fd0a4f28419497f9722a3daafe3b4186f6b6457e090600090a3603380546001600160a01b0319166001600160a01b0392909216919091179055565b61c4e081565b6065546001600160a01b031681565b60675460ff16156119265760405162461bcd60e51b815260040161058490613778565b60675461010090046001600160a01b0316156119545760405162461bcd60e51b815260040161058490613525565b600061195f83611da7565b6000848152606c60205260408120600101549192506001600160a01b039091169061198b6105fa611c8c565b6001600160a01b0383166000908152606b602052604090209091506119b09082611f9a565b6001600160a01b0382166000908152606b60205260408120819081906119d7908986612622565b6040805160608101825288815260208082018690528183018590526001600160a01b038d166000908152606b90915291909120939650919450925090611a1d9086611f9a565b6001600160a01b0388166000908152606b60205260409020611a41908a83856128eb565b6000898152606c60205260409081902060010180546001600160a01b0319166001600160a01b038b81169182179092559151908916908b907f85c2730e083fbf1495501a47cbebc8a7e57eab8b6eeac16aedcebc825e268fac90611aa6908a906137ea565b60405180910390a4876001600160a01b0316866001600160a01b0316886001600160a01b03167f3134e8a2e6d97e929a7e54011ea5485d7d196dd5f0ba4d4ef95803e8e3fc257f60405160405180910390a46001600160a01b0386166000818152606b602052604081206000805160206139718339815191529190611b2b9089611cd9565b604051611b399291906131f7565b60405180910390a26001600160a01b0388166000818152606b602052604081206000805160206139718339815191529190611b749089611cd9565b604051611b829291906131f7565b60405180910390a2505050505050505050565b6000806000611ba4868661287c565b9050606854841015611bc85760405162461bcd60e51b815260040161058490613431565b606954811015611bea5760405162461bcd60e51b815260040161058490613799565b6000611c16606854606803611c106304cace806068548903612b0490919063ffffffff16565b90612b5d565b90506000611c3e606954606803611c106302625a006069548703612b0490919063ffffffff16565b90506000611c5a6301312d00611c548585612891565b90612891565b9050611c6e6305f5e100611c108b84612b04565b9550611c7a868561287c565b945050505050935093915050565b3390565b4390565b6000611c9a612bc4565b821015611ca957506000610639565b6000611cbd611cb6612bc4565b8490611d4a565b606a54909150610b3190611cd38361c4e0612b5d565b90611d4a565b600382015460048301546000919083821415611cf85791506107159050565b81841115611d1557611d0c85838684612bca565b92505050610715565b60008411611d355760405162461bcd60e51b81526004016105849061363e565b611d4185838684612c58565b95945050505050565b600082821115611da1576040805162461bcd60e51b815260206004820152601e60248201527f536166654d6174683a207375627472616374696f6e206f766572666c6f770000604482015290519081900360640190fd5b50900390565b6000818152606c60205260409020546001600160a01b03163381146106395760405162461bcd60e51b8152600401610584906132f9565b60008411611dfe5760405162461bcd60e51b8152600401610584906132d4565b6068821115611e1f5760405162461bcd60e51b81526004016105849061339c565b6000611e2b858561287c565b90506068811115611e4e5760405162461bcd60e51b8152600401610584906136fb565b6000611e5e82611c548587612891565b6001600160a01b0389166000908152606b602090815260408083208b8452600801825291829020825160a081018452815493810193845260018201546060820181905260028301546080830181905285835260039093015493820193909352939450611eca919061287c565b93506000611eed85611c548560200151856000015161289190919063ffffffff16565b905083811115611f0f5760405162461bcd60e51b815260040161058490613548565b60208301518251600091611f239190612891565b90506000611f31888a612891565b905080821115611f8b576000611f478383611d4a565b60208601519091506000611f65611f5e848f612b04565b8f90611d4a565b905081811015611f875760405162461bcd60e51b8152600401610584906133c3565b5050505b50505050505050505050505050565b600382015481811415611fad5750612060565b60058301546004840154801561204d57828411611fdc5760405162461bcd60e51b8152600401610584906136b6565b8383101561204d57611fee8183611d4a565b600084815260208790526040812054919250906120149061200e85612d14565b90612d1a565b905060008112156120375760405162461bcd60e51b81526004016105849061328f565b915081612045846001612891565b935050611fdc565b6003850184905560048501556005840155505b5050565b60006120718484846125cb565b6001600160a01b0383166000908152606b60205260409020612094908684612622565b506120a59150606d90508684612622565b5050506001600160a01b0384166000908152606b602052604090206120ce906006018684612622565b50909695505050505050565b808211156120fa5760405162461bcd60e51b8152600401610584906135c7565b60006121068284611d4a565b6001600160a01b0386166000908152606b60205260408120600c015491925061212f8287611d4a565b90508083111561223e5760006121458483611d4a565b60655460008b8152606c6020526040908190205490516323b872dd60e01b81529293506001600160a01b03918216926323b872dd9261218c9216903090869060040161315d565b602060405180830381600087803b1580156121a657600080fd5b505af11580156121ba573d6000803e3d6000fd5b505050506040513d601f19601f820116820180604052508101906121de919061303b565b6121fa5760405162461bcd60e51b81526004016105849061374f565b6001600160a01b0388166000908152606b60205260409020600c01546122209082612891565b6001600160a01b0389166000908152606b60205260409020600c0155505b5050505050505050565b6122538686836125cb565b600080612261868686611b95565b60408051606081018252868152602081018490529081018290526066549294509092509061229390606d9083886128eb565b6066546001600160a01b0389166000908152606b602052604090206122b99183886128eb565b506040805160608101825284815260208082018990528183018890526066546001600160a01b038c166000908152606b9092529290209091612300916006019083886128eb565b5050606680546000908152606c602052604080822080546001600160a01b039b8c166001600160a01b0319918216179091559254825290206001018054979098169616959095179095555050505050565b600061235c30612d7f565b15905090565b600054610100900460ff168061237b575061237b612351565b80612389575060005460ff16155b6123c45760405162461bcd60e51b815260040180806020018281038252602e8152602001806138de602e913960400191505060405180910390fd5b600054610100900460ff161580156123ef576000805460ff1961ff0019909116610100171660011790555b606580546001600160a01b0319166001600160a01b038716179055606a849055606883905560698290558015610cba576000805461ff00191690555050505050565b600054610100900460ff168061244a575061244a612351565b80612458575060005460ff16155b6124935760405162461bcd60e51b815260040180806020018281038252602e8152602001806138de602e913960400191505060405180910390fd5b600054610100900460ff161580156124be576000805460ff1961ff0019909116610100171660011790555b60006124c8611c88565b603380546001600160a01b0319166001600160a01b038316908117909155604051919250906000907f8be0079c531659141344cd1fd0a4f28419497f9722a3daafe3b4186f6b6457e0908290a3508015611542576000805461ff001916905550565b600054610100900460ff16806125435750612543612351565b80612551575060005460ff16155b61258c5760405162461bcd60e51b815260040180806020018281038252602e8152602001806138de602e913960400191505060405180910390fd5b600054610100900460ff161580156125b7576000805460ff1961ff0019909116610100171660011790555b8015611542576000805461ff001916905550565b6125d6606d82611f9a565b6001600160a01b0382166000908152606b602052604090206125f89082611f9a565b6001600160a01b0383166000908152606b6020526040902061261d9060060182611f9a565b505050565b6000828152600280850160209081526040808420815160a08101835281549281019283526001820154606082018190529482015460808201529182526003015491810191909152829182919061268a5760405162461bcd60e51b815260040161058490613474565b80516126968887611f9a565b80602001519450806040015193506000925060006126d08360200151611c546126c8888a612b5d90919063ffffffff16565b855190612891565b9050808711156126ea576000955060009450505050612873565b60006126f7826001611d4a565b90506000612706896001611d4a565b9050600061271c6127178a8a612d85565b612d14565b905060006127406001611cd38960200151896000015161289190919063ffffffff16565b9050808b11612793576127586001611c54838e611d4a565b975061276f816127678b612d14565b8f9190612dec565b61278e84612786846127808d612d14565b90612e18565b8f9190612e7d565b612818565b838b116127ef5760058d01546127a9908a611d4a565b60058e01556127bf84612786846127808d612d14565b6127e082611c548b6127da8f8a611d4a90919063ffffffff16565b90612b04565b995061278e836127678b612d14565b60058d01546127fe9083611d4a565b60058e015590985088975087906128188361276784612d14565b6128238d8684612e7d565b60048d0154612832908b611d4a565b60048e015560008c815260028e01602052604081206001015561286b836128588c612d14565b8f600101612dec9092919063ffffffff16565b505050505050505b93509350939050565b6000610b316001611c5484611c108784611d4a565b600082820183811015610b31576040805162461bcd60e51b815260206004820152601b60248201527f536166654d6174683a206164646974696f6e206f766572666c6f770000000000604482015290519081900360640190fd5b604082015161290c5760405162461bcd60e51b81526004016105849061357f565b8160200151826040015111156129345760405162461bcd60e51b81526004016105849061366c565b6000838152600285016020526040902060010154156129655760405162461bcd60e51b8152600401610584906134e2565b604080518082018252838152602080820184815260008781526002808a01845290859020935180518555928301516001850155919093015190820155905160039091015581516129b6908590611f9a565b602082015160048501546129c991612891565b600485015581516000906129de906001611d4a565b90506129fc816129f18560200151612d14565b600188019190612e7d565b6000612a1984604001518560200151612b5d90919063ffffffff16565b905082612a595760408401516005870154612a3391612891565b60058701556040840151612a54908390612a4c90612d14565b889190612e7d565b612a8e565b6000612a658385612891565b9050612a8081612a788760400151612d14565b899190612e7d565b612a8a8285612891565b9150505b6000612aae61271786604001518760200151612d8590919063ffffffff16565b8551909150600090612ac09084612891565b90506000612acf826001611d4a565b9050612aee81612ae6856127808b60400151612d14565b8b9190612dec565b612af9898385612dec565b505050505050505050565b600082612b1357506000610715565b82820282848281612b2057fe5b0414610b315760405162461bcd60e51b815260040180806020018281038252602181526020018061390c6021913960400191505060405180910390fd5b6000808211612bb3576040805162461bcd60e51b815260206004820152601a60248201527f536166654d6174683a206469766973696f6e206279207a65726f000000000000604482015290519081900360640190fd5b818381612bbc57fe5b049392505050565b61290490565b600081612bd8575080612c50565b6005850154845b84811015612c4a57612bf18483611d4a565b60008281526020899052604081205491955090612c119061200e85612d14565b90506000811215612c345760405162461bcd60e51b81526004016105849061328f565b915081612c42826001612891565b915050612bdf565b83925050505b949350505050565b6005840154600090845b84811115612c4a57612c75816001611d4a565b600081815260018901602052604081205491925090612c979061278087612d14565b90506000811215612cba5760405162461bcd60e51b815260040161058490613330565b6000828152602089905260408120549195508591612cdb9061278086612d14565b90506000811215612cfe5760405162461bcd60e51b81526004016105849061328f565b925082612d0b8682612891565b95505050612c62565b80610639565b6000828201818312801590612d2f5750838112155b80612d445750600083128015612d4457508381125b610b315760405162461bcd60e51b81526004018080602001828103825260218152602001806138bd6021913960400191505060405180910390fd5b3b151590565b6000808211612ddb576040805162461bcd60e51b815260206004820152601860248201527f536166654d6174683a206d6f64756c6f206279207a65726f0000000000000000604482015290519081900360640190fd5b818381612de457fe5b069392505050565b600082815260208490526040902054612e059082612e18565b6000928352602093909352506040902055565b6000818303818312801590612e2d5750838113155b80612e425750600083128015612e4257508381135b610b315760405162461bcd60e51b815260040180806020018281038252602481526020018061394d6024913960400191505060405180910390fd5b600082815260208490526040902054612e059082612d1a565b600060208284031215612ea7578081fd5b8135610b3181613881565b600080600080600060a08688031215612ec9578081fd5b8535612ed481613881565b94506020860135612ee481613881565b94979496505050506040830135926060810135926080909101359150565b60008060408385031215612f14578182fd5b8235612f1f81613881565b946020939093013593505050565b60008060008060008060c08789031215612f45578081fd5b8635612f5081613881565b95506020870135945060408701359350606087013560ff81168114612f73578182fd5b9598949750929560808101359460a0909101359350915050565b60006020808385031215612f9f578182fd5b823567ffffffffffffffff80821115612fb6578384fd5b818501915085601f830112612fc9578384fd5b813581811115612fd557fe5b83810260405185828201018181108582111715612fee57fe5b604052828152858101935084860182860187018a101561300c578788fd5b8795505b8386101561302e578035855260019590950194938601938601613010565b5098975050505050505050565b60006020828403121561304c578081fd5b81518015158114610b31578182fd5b60008060008060808587031215613070578384fd5b843561307b81613881565b966020860135965060408601359560600135945092505050565b6000602082840312156130a6578081fd5b5035919050565b600080604083850312156130bf578182fd5b8235915060208301356130d181613881565b809150509250929050565b600080600080600060a086880312156130f3578081fd5b853594506020860135612ee481613881565b600080600060608486031215613119578283fd5b505081359360208301359350604090920135919050565b8051825260208082015190830152604090810151910152565b6001600160a01b0391909116815260200190565b6001600160a01b039384168152919092166020820152604081019190915260600190565b6001600160a01b03929092168252602082015260400190565b6001600160a01b0392831681529116602082015260400190565b6020808252825182820181905260009190848201906040850190845b818110156120ce578351835292840192918401916001016131d0565b901515815260200190565b918252602082015260400190565b6000602080835283518082850152825b8181101561323157858101830151858201604001528201613215565b818111156132425783604083870101525b50601f01601f1916929092016040019392505050565b6020808252601a908201527f6e657720736c6f706520706572696f64203e2032207965617273000000000000604082015260600190565b60208082526025908201527f736c6f7065203c20302c20736f6d657468696e672077726f6e67207769746820604082015264736c6f706560d81b606082015260800190565b6020808252600b908201526a1e995c9bc8185b5bdd5b9d60aa1b604082015260600190565b60208082526018908201527f63616c6c6572206e6f742061207374616b65206f776e65720000000000000000604082015260600190565b60208082526023908201527f62696173203c20302c20736f6d657468696e672077726f6e672077697468206260408201526269617360e81b606082015260800190565b6020808252600f908201526e1b9bdd081a5b5c1b195b595b9d1959608a1b604082015260600190565b6020808252600d908201526c636c69666620746f6f2062696760981b604082015260600190565b60208082526019908201527f64657465637420637574206465706f73697420636f726e657200000000000000604082015260600190565b6020808252601a908201527f6e657720636c69666620706572696f64203e2032207965617273000000000000604082015260600190565b60208082526023908201527f636c69666620706572696f64203c206d696e696d616c207374616b65207065726040820152621a5bd960ea1b606082015260800190565b6020808252601f908201527f52656d6f76696e67204c696e652c207768696368206e6f742065786973747300604082015260600190565b6020808252601a908201527f77726f6e67206e65775374617274696e67506f696e745765656b000000000000604082015260600190565b60208082526023908201527f4c696e65207769746820676976656e20696420697320616c72656164792065786040820152621a5cdd60ea1b606082015260800190565b6020808252600990820152686d6967726174696e6760b81b604082015260600190565b6020808252601f908201527f6e6577206c696e6520706572696f64207374616b6520746f6f2073686f727400604082015260600190565b60208082526028908201527f536c6f7065203d3d20302c20756e61636365707461626c652076616c756520666040820152676f7220736c6f706560c01b606082015260800190565b6020808252602f908201527f496d706f737369626c6520746f2072657374616b653a206c65737320616d6f7560408201526e6e742c207468656e206e6f7720697360881b606082015260800190565b6020808252600e908201526d706572696f6420746f6f2062696760901b604082015260600190565b602080825260149082015273756e657870656374656420706173742074696d6560601b604082015260600190565b6020808252602a908201527f536c6f7065203e20626961732c20756e61636365707461626c652076616c756560408201526920666f7220736c6f706560b01b606082015260800190565b60208082526025908201527f63616e2774207570646174652042726f6b656e4c696e6520666f7220706173746040820152642074696d6560d81b606082015260800190565b6020808252600d908201526c736c6f706520746f6f2062696760981b604082015260600190565b602080825260139082015272189b1bd8dac81b9bdd081e595d081b5a5b9959606a1b604082015260600190565b6020808252600f908201526e1d1c985b9cd9995c8819985a5b1959608a1b604082015260600190565b6020808252600790820152661cdd1bdc1c195960ca1b604082015260600190565b60208082526023908201527f736c6f706520706572696f64203c206d696e696d616c207374616b65207065726040820152621a5bd960ea1b606082015260800190565b606081016107158284613130565b90815260200190565b600060e08201905085825261380c602083018651613130565b6020949094015160808201526001600160a01b0392831660a0820152911660c090910152919050565b93845260208401929092526040830152606082015260800190565b948552602085019390935260408401919091526060830152608082015260a00190565b60ff91909116815260200190565b6001600160a01b038116811461154257600080fdfe4f776e61626c653a206e6577206f776e657220697320746865207a65726f20616464726573735369676e6564536166654d6174683a206164646974696f6e206f766572666c6f77496e697469616c697a61626c653a20636f6e747261637420697320616c726561647920696e697469616c697a6564536166654d6174683a206d756c7469706c69636174696f6e206f766572666c6f774f776e61626c653a2063616c6c6572206973206e6f7420746865206f776e65725369676e6564536166654d6174683a207375627472616374696f6e206f766572666c6f77dec2bacdd2f05b59de34da9b523dff8be42e5e38e818c82fdb0bae774387a724a264697066735822122021bb7364ea3d909682d6cdf3339d21f7639f31cc54176d80736a9da5d6a6f33c64736f6c63430007060033",
  "immutableReferences": {},
  "source": "// SPDX-License-Identifier: MIT\n\npragma solidity 0.7.6;\npragma abicoder v2;\n\nimport \"./INextVersionStake.sol\";\nimport \"./StakingBase.sol\";\nimport \"./StakingRestake.sol\";\nimport \"./StakingVotes.sol\";\n\ncontract Staking is StakingBase, StakingRestake, StakingVotes {\n    using SafeMathUpgradeable for uint;\n    using LibBrokenLine for LibBrokenLine.BrokenLine;\n\n    function __Staking_init(IERC20Upgradeable _token, uint _startingPointWeek, uint _minCliffPeriod, uint _minSlopePeriod) external initializer {\n        __StakingBase_init_unchained(_token, _startingPointWeek, _minCliffPeriod, _minSlopePeriod);\n        __Ownable_init_unchained();\n        __Context_init_unchained();\n    }\n\n    function stop() external onlyOwner notStopped {\n        stopped = true;\n        emit StopStaking(msg.sender);\n    }\n\n    function startMigration(address to) external onlyOwner {\n        migrateTo = to;\n        emit StartMigration(msg.sender, to);\n    }\n\n    function stake(address account, address _delegate, uint amount, uint slope, uint cliff) external notStopped notMigrating returns (uint) {\n        require(amount > 0, \"zero amount\");\n        require(cliff <= TWO_YEAR_WEEKS, \"cliff too big\");\n        require(divUp(amount, slope) <= TWO_YEAR_WEEKS, \"period too big\");\n        require(token.transferFrom(msg.sender, address(this), amount), \"transfer failed\");\n\n        counter++;\n\n        uint time = roundTimestamp(getBlockNumber());\n        addLines(account, _delegate, amount, slope, cliff, time);\n        accounts[account].amount = accounts[account].amount.add(amount);\n        emit StakeCreate(counter, account, _delegate, time, amount, slope, cliff);\n\n        // IVotesUpgradeable events\n        emit DelegateChanged(account, address(0), _delegate);\n        emit DelegateVotesChanged(_delegate, 0, accounts[_delegate].balance.actualValue(time));\n        return counter;\n    }\n\n    function withdraw() external {\n        uint value = getAvailableForWithdraw(msg.sender);\n        if (value > 0) {\n            accounts[msg.sender].amount = accounts[msg.sender].amount.sub(value);\n            require(token.transfer(msg.sender, value), \"transfer failed\");\n        }\n        emit Withdraw(msg.sender, value);\n    }\n\n    // Amount available for withdrawal\n    function getAvailableForWithdraw(address account) public view returns (uint value) {\n        value = accounts[account].amount;\n        if (!stopped) {\n            uint time = roundTimestamp(getBlockNumber());\n            uint bias = accounts[account].locked.actualValue(time);\n            value = value.sub(bias);\n        }\n    }\n\n    //Remaining locked amount\n    function locked(address account) external view returns (uint) {\n        return accounts[account].amount;\n    }\n\n    //For a given Line id, the owner and delegate addresses.\n    function getAccountAndDelegate(uint id) external view returns (address account, address delegate) {\n        account = stakes[id].account;\n        delegate = stakes[id].delegate;\n    }\n\n    //Getting \"current week\" of the contract.\n    function getWeek() external view returns (uint) {\n        return roundTimestamp(getBlockNumber());\n    }\n\n    function delegateTo(uint id, address newDelegate) external notStopped notMigrating {\n        address account = verifyStakeOwner(id);\n        address _delegate = stakes[id].delegate;\n        uint time = roundTimestamp(getBlockNumber());\n        accounts[_delegate].balance.update(time);\n        (uint bias, uint slope, uint cliff) = accounts[_delegate].balance.remove(id, time);\n        LibBrokenLine.Line memory line = LibBrokenLine.Line(time, bias, slope);\n        accounts[newDelegate].balance.update(time);\n        accounts[newDelegate].balance.add(id, line, cliff);\n        stakes[id].delegate = newDelegate;\n        emit Delegate(id, account, newDelegate, time);\n\n        // IVotesUpgradeable events\n        emit DelegateChanged(account, _delegate, newDelegate);\n        emit DelegateVotesChanged(_delegate, 0, accounts[_delegate].balance.actualValue(time));\n        emit DelegateVotesChanged(newDelegate, 0, accounts[newDelegate].balance.actualValue(time));\n    }\n\n    function totalSupply() external view returns (uint) {\n        if ((totalSupplyLine.initial.bias == 0) || (stopped)) {\n            return 0;\n        }\n        uint time = roundTimestamp(getBlockNumber());\n        return totalSupplyLine.actualValue(time);\n    }\n\n    function balanceOf(address account) external view returns (uint) {\n        if ((accounts[account].balance.initial.bias == 0) || (stopped)) {\n            return 0;\n        }\n        uint time = roundTimestamp(getBlockNumber());\n        return accounts[account].balance.actualValue(time);\n    }\n\n    function migrate(uint[] memory id) external {\n        if (migrateTo == address(0)) {\n            return;\n        }\n        uint time = roundTimestamp(getBlockNumber());\n        INextVersionStake nextVersionStake = INextVersionStake(migrateTo);\n        for (uint256 i = 0; i < id.length; i++) {\n            address account = verifyStakeOwner(id[i]);\n            address _delegate = stakes[id[i]].delegate;\n            updateLines(account, _delegate, time);\n            //save data Line before remove\n            LibBrokenLine.LineData memory lineData = accounts[account].locked.initiatedLines[id[i]];\n            (uint residue,,) = accounts[account].locked.remove(id[i], time);\n\n            require(token.transfer(migrateTo, residue), \"transfer failed\");\n            accounts[account].amount = accounts[account].amount.sub(residue);\n\n            accounts[_delegate].balance.remove(id[i], time);\n            totalSupplyLine.remove(id[i], time);\n            nextVersionStake.initiateData(id[i], lineData, account, _delegate);\n        }\n        emit Migrate(msg.sender, id);\n    }\n\n    function name() public view virtual returns (string memory) {\n        return \"Rarible Vote-Escrow\";\n    }\n\n    function symbol() public view virtual returns (string memory) {\n        return \"veRARI\";\n    }\n\n    function decimals() public view virtual returns (uint8) {\n        return 18;\n    }\n\n    uint256[50] private __gap;\n}",
  "sourcePath": "@rarible/staking/contracts/Staking.sol",
  "compiler": {
    "name": "solc",
    "version": "0.7.6+commit.7338295f.Emscripten.clang"
  },
  "schemaVersion": "3.4.5",
  "updatedAt": "2022-10-03T18:01:02.002Z",
  "networkType": "ethereum",
  "devdoc": {
    "kind": "dev",
    "methods": {
      "delegate(address)": {
        "details": "Delegates votes from the sender to `delegatee`."
      },
      "delegateBySig(address,uint256,uint256,uint8,bytes32,bytes32)": {
        "details": "Delegates votes from signer to `delegatee`."
      },
      "delegates(address)": {
        "details": "Returns the delegate that `account` has chosen."
      },
      "getPastTotalSupply(uint256)": {
        "details": "Returns the total supply of votes available  at the end of the last period"
      },
      "getPastVotes(address,uint256)": {
        "details": "Returns the amount of votes that `account` had at the end of the last period"
      },
      "getVotes(address)": {
        "details": "Returns the current amount of votes that `account` has."
      },
      "owner()": {
        "details": "Returns the address of the current owner."
      },
      "renounceOwnership()": {
        "details": "Leaves the contract without owner. It will not be possible to call `onlyOwner` functions anymore. Can only be called by the current owner. NOTE: Renouncing ownership will leave the contract without an owner, thereby removing any functionality that is only available to the owner."
      },
      "transferOwnership(address)": {
        "details": "Transfers ownership of the contract to a new account (`newOwner`). Can only be called by the current owner."
      }
    },
    "version": 1
  },
  "userdoc": {
    "kind": "user",
    "methods": {
      "getStake(uint256,uint256,uint256)": {
        "notice": "alculate and return (newAmount, newSlope), using formula: staking = (tokens * (      ST_FORMULA_CONST_MULTIPLIER      + ST_FORMULA_CLIFF_MULTIPLIER * (cliffPeriod - minCliffPeriod))/(TWO_YEAR_WEEKS - minCliffPeriod)      + ST_FORMULA_SLOPE_MULTIPLIER * (slopePeriod - minSlopePeriod))/(TWO_YEAR_WEEKS - minSlopePeriod)      )) / ST_FORMULA_DIVIDER*"
      }
    },
    "version": 1
  }
}