{
  "contractName": "StakingVotes",
  "abi": [
    {
      "anonymous": false,
      "inputs": [
        {
          "indexed": true,
          "internalType": "uint256",
          "name": "id",
          "type": "uint256"
        },
        {
          "indexed": true,
          "internalType": "address",
          "name": "account",
          "type": "address"
        },
        {
          "indexed": true,
          "internalType": "address",
          "name": "delegate",
          "type": "address"
        },
        {
          "indexed": false,
          "internalType": "uint256",
          "name": "time",
          "type": "uint256"
        }
      ],
      "name": "Delegate",
      "type": "event"
    },
    {
      "anonymous": false,
      "inputs": [
        {
          "indexed": true,
          "internalType": "address",
          "name": "delegator",
          "type": "address"
        },
        {
          "indexed": true,
          "internalType": "address",
          "name": "fromDelegate",
          "type": "address"
        },
        {
          "indexed": true,
          "internalType": "address",
          "name": "toDelegate",
          "type": "address"
        }
      ],
      "name": "DelegateChanged",
      "type": "event"
    },
    {
      "anonymous": false,
      "inputs": [
        {
          "indexed": true,
          "internalType": "address",
          "name": "delegate",
          "type": "address"
        },
        {
          "indexed": false,
          "internalType": "uint256",
          "name": "previousBalance",
          "type": "uint256"
        },
        {
          "indexed": false,
          "internalType": "uint256",
          "name": "newBalance",
          "type": "uint256"
        }
      ],
      "name": "DelegateVotesChanged",
      "type": "event"
    },
    {
      "anonymous": false,
      "inputs": [
        {
          "indexed": true,
          "internalType": "address",
          "name": "account",
          "type": "address"
        },
        {
          "indexed": false,
          "internalType": "uint256[]",
          "name": "id",
          "type": "uint256[]"
        }
      ],
      "name": "Migrate",
      "type": "event"
    },
    {
      "anonymous": false,
      "inputs": [
        {
          "indexed": true,
          "internalType": "address",
          "name": "previousOwner",
          "type": "address"
        },
        {
          "indexed": true,
          "internalType": "address",
          "name": "newOwner",
          "type": "address"
        }
      ],
      "name": "OwnershipTransferred",
      "type": "event"
    },
    {
      "anonymous": false,
      "inputs": [
        {
          "indexed": true,
          "internalType": "uint256",
          "name": "id",
          "type": "uint256"
        },
        {
          "indexed": true,
          "internalType": "address",
          "name": "account",
          "type": "address"
        },
        {
          "indexed": true,
          "internalType": "address",
          "name": "delegate",
          "type": "address"
        },
        {
          "indexed": false,
          "internalType": "uint256",
          "name": "counter",
          "type": "uint256"
        },
        {
          "indexed": false,
          "internalType": "uint256",
          "name": "time",
          "type": "uint256"
        },
        {
          "indexed": false,
          "internalType": "uint256",
          "name": "amount",
          "type": "uint256"
        },
        {
          "indexed": false,
          "internalType": "uint256",
          "name": "slope",
          "type": "uint256"
        },
        {
          "indexed": false,
          "internalType": "uint256",
          "name": "cliff",
          "type": "uint256"
        }
      ],
      "name": "Restake",
      "type": "event"
    },
    {
      "anonymous": false,
      "inputs": [
        {
          "indexed": true,
          "internalType": "uint256",
          "name": "newMinCliffPeriod",
          "type": "uint256"
        }
      ],
      "name": "SetMinCliffPeriod",
      "type": "event"
    },
    {
      "anonymous": false,
      "inputs": [
        {
          "indexed": true,
          "internalType": "uint256",
          "name": "newMinSlopePeriod",
          "type": "uint256"
        }
      ],
      "name": "SetMinSlopePeriod",
      "type": "event"
    },
    {
      "anonymous": false,
      "inputs": [
        {
          "indexed": true,
          "internalType": "uint256",
          "name": "newStartingPointWeek",
          "type": "uint256"
        }
      ],
      "name": "SetStartingPointWeek",
      "type": "event"
    },
    {
      "anonymous": false,
      "inputs": [
        {
          "indexed": true,
          "internalType": "uint256",
          "name": "id",
          "type": "uint256"
        },
        {
          "indexed": true,
          "internalType": "address",
          "name": "account",
          "type": "address"
        },
        {
          "indexed": true,
          "internalType": "address",
          "name": "delegate",
          "type": "address"
        },
        {
          "indexed": false,
          "internalType": "uint256",
          "name": "time",
          "type": "uint256"
        },
        {
          "indexed": false,
          "internalType": "uint256",
          "name": "amount",
          "type": "uint256"
        },
        {
          "indexed": false,
          "internalType": "uint256",
          "name": "slopePeriod",
          "type": "uint256"
        },
        {
          "indexed": false,
          "internalType": "uint256",
          "name": "cliff",
          "type": "uint256"
        }
      ],
      "name": "StakeCreate",
      "type": "event"
    },
    {
      "anonymous": false,
      "inputs": [
        {
          "indexed": true,
          "internalType": "address",
          "name": "account",
          "type": "address"
        },
        {
          "indexed": true,
          "internalType": "address",
          "name": "to",
          "type": "address"
        }
      ],
      "name": "StartMigration",
      "type": "event"
    },
    {
      "anonymous": false,
      "inputs": [
        {
          "indexed": true,
          "internalType": "address",
          "name": "account",
          "type": "address"
        }
      ],
      "name": "StartStaking",
      "type": "event"
    },
    {
      "anonymous": false,
      "inputs": [
        {
          "indexed": true,
          "internalType": "address",
          "name": "account",
          "type": "address"
        }
      ],
      "name": "StopStaking",
      "type": "event"
    },
    {
      "anonymous": false,
      "inputs": [
        {
          "indexed": true,
          "internalType": "address",
          "name": "account",
          "type": "address"
        },
        {
          "indexed": false,
          "internalType": "uint256",
          "name": "amount",
          "type": "uint256"
        }
      ],
      "name": "Withdraw",
      "type": "event"
    },
    {
      "inputs": [],
      "name": "WEEK",
      "outputs": [
        {
          "internalType": "uint256",
          "name": "",
          "type": "uint256"
        }
      ],
      "stateMutability": "view",
      "type": "function"
    },
    {
      "inputs": [],
      "name": "counter",
      "outputs": [
        {
          "internalType": "uint256",
          "name": "",
          "type": "uint256"
        }
      ],
      "stateMutability": "view",
      "type": "function"
    },
    {
      "inputs": [
        {
          "internalType": "uint256",
          "name": "amount",
          "type": "uint256"
        },
        {
          "internalType": "uint256",
          "name": "slope",
          "type": "uint256"
        },
        {
          "internalType": "uint256",
          "name": "cliff",
          "type": "uint256"
        }
      ],
      "name": "getStake",
      "outputs": [
        {
          "internalType": "uint256",
          "name": "stakeAmount",
          "type": "uint256"
        },
        {
          "internalType": "uint256",
          "name": "stakeSlope",
          "type": "uint256"
        }
      ],
      "stateMutability": "view",
      "type": "function"
    },
    {
      "inputs": [],
      "name": "migrateTo",
      "outputs": [
        {
          "internalType": "address",
          "name": "",
          "type": "address"
        }
      ],
      "stateMutability": "view",
      "type": "function"
    },
    {
      "inputs": [],
      "name": "minCliffPeriod",
      "outputs": [
        {
          "internalType": "uint256",
          "name": "",
          "type": "uint256"
        }
      ],
      "stateMutability": "view",
      "type": "function"
    },
    {
      "inputs": [],
      "name": "minSlopePeriod",
      "outputs": [
        {
          "internalType": "uint256",
          "name": "",
          "type": "uint256"
        }
      ],
      "stateMutability": "view",
      "type": "function"
    },
    {
      "inputs": [],
      "name": "owner",
      "outputs": [
        {
          "internalType": "address",
          "name": "",
          "type": "address"
        }
      ],
      "stateMutability": "view",
      "type": "function"
    },
    {
      "inputs": [],
      "name": "renounceOwnership",
      "outputs": [],
      "stateMutability": "nonpayable",
      "type": "function"
    },
    {
      "inputs": [
        {
          "internalType": "uint256",
          "name": "ts",
          "type": "uint256"
        }
      ],
      "name": "roundTimestamp",
      "outputs": [
        {
          "internalType": "uint256",
          "name": "",
          "type": "uint256"
        }
      ],
      "stateMutability": "view",
      "type": "function"
    },
    {
      "inputs": [
        {
          "internalType": "uint256",
          "name": "newMinCliffPeriod",
          "type": "uint256"
        }
      ],
      "name": "setMinCliffPeriod",
      "outputs": [],
      "stateMutability": "nonpayable",
      "type": "function"
    },
    {
      "inputs": [
        {
          "internalType": "uint256",
          "name": "newMinSlopePeriod",
          "type": "uint256"
        }
      ],
      "name": "setMinSlopePeriod",
      "outputs": [],
      "stateMutability": "nonpayable",
      "type": "function"
    },
    {
      "inputs": [
        {
          "internalType": "uint256",
          "name": "newStartingPointWeek",
          "type": "uint256"
        }
      ],
      "name": "setStartingPointWeek",
      "outputs": [],
      "stateMutability": "nonpayable",
      "type": "function"
    },
    {
      "inputs": [],
      "name": "startingPointWeek",
      "outputs": [
        {
          "internalType": "uint256",
          "name": "",
          "type": "uint256"
        }
      ],
      "stateMutability": "view",
      "type": "function"
    },
    {
      "inputs": [],
      "name": "stopped",
      "outputs": [
        {
          "internalType": "bool",
          "name": "",
          "type": "bool"
        }
      ],
      "stateMutability": "view",
      "type": "function"
    },
    {
      "inputs": [],
      "name": "token",
      "outputs": [
        {
          "internalType": "contract IERC20Upgradeable",
          "name": "",
          "type": "address"
        }
      ],
      "stateMutability": "view",
      "type": "function"
    },
    {
      "inputs": [],
      "name": "totalSupplyLine",
      "outputs": [
        {
          "components": [
            {
              "internalType": "uint256",
              "name": "start",
              "type": "uint256"
            },
            {
              "internalType": "uint256",
              "name": "bias",
              "type": "uint256"
            },
            {
              "internalType": "uint256",
              "name": "slope",
              "type": "uint256"
            }
          ],
          "internalType": "struct LibBrokenLine.Line",
          "name": "initial",
          "type": "tuple"
        }
      ],
      "stateMutability": "view",
      "type": "function"
    },
    {
      "inputs": [
        {
          "internalType": "address",
          "name": "newOwner",
          "type": "address"
        }
      ],
      "name": "transferOwnership",
      "outputs": [],
      "stateMutability": "nonpayable",
      "type": "function"
    },
    {
      "inputs": [
        {
          "internalType": "address",
          "name": "account",
          "type": "address"
        }
      ],
      "name": "getVotes",
      "outputs": [
        {
          "internalType": "uint256",
          "name": "",
          "type": "uint256"
        }
      ],
      "stateMutability": "view",
      "type": "function"
    },
    {
      "inputs": [
        {
          "internalType": "address",
          "name": "account",
          "type": "address"
        },
        {
          "internalType": "uint256",
          "name": "blockNumber",
          "type": "uint256"
        }
      ],
      "name": "getPastVotes",
      "outputs": [
        {
          "internalType": "uint256",
          "name": "",
          "type": "uint256"
        }
      ],
      "stateMutability": "view",
      "type": "function"
    },
    {
      "inputs": [
        {
          "internalType": "uint256",
          "name": "blockNumber",
          "type": "uint256"
        }
      ],
      "name": "getPastTotalSupply",
      "outputs": [
        {
          "internalType": "uint256",
          "name": "",
          "type": "uint256"
        }
      ],
      "stateMutability": "view",
      "type": "function"
    },
    {
      "inputs": [
        {
          "internalType": "address",
          "name": "account",
          "type": "address"
        }
      ],
      "name": "delegates",
      "outputs": [
        {
          "internalType": "address",
          "name": "",
          "type": "address"
        }
      ],
      "stateMutability": "view",
      "type": "function"
    },
    {
      "inputs": [
        {
          "internalType": "address",
          "name": "delegatee",
          "type": "address"
        }
      ],
      "name": "delegate",
      "outputs": [],
      "stateMutability": "nonpayable",
      "type": "function"
    },
    {
      "inputs": [
        {
          "internalType": "address",
          "name": "delegatee",
          "type": "address"
        },
        {
          "internalType": "uint256",
          "name": "nonce",
          "type": "uint256"
        },
        {
          "internalType": "uint256",
          "name": "expiry",
          "type": "uint256"
        },
        {
          "internalType": "uint8",
          "name": "v",
          "type": "uint8"
        },
        {
          "internalType": "bytes32",
          "name": "r",
          "type": "bytes32"
        },
        {
          "internalType": "bytes32",
          "name": "s",
          "type": "bytes32"
        }
      ],
      "name": "delegateBySig",
      "outputs": [],
      "stateMutability": "nonpayable",
      "type": "function"
    }
  ],
  "bytecode": "0x608060405234801561001057600080fd5b5061137a806100206000396000f3fe608060405234801561001057600080fd5b506004361061014d5760003560e01c806399eccf62116100c3578063b62316331161007c578063b62316331461027c578063c3cda52014610284578063f2fde38b14610292578063f4359ce5146102a5578063fc0c546a146102ad578063fecf0fdd146102b55761014d565b806399eccf62146102135780639ab24eb014610226578063a8edafbe14610239578063ac7ae5891461024c578063acc9b64814610254578063b53546ab146102675761014d565b806367c8c4731161011557806367c8c473146101cb578063715018a6146101d357806375f12b21146101db5780638da5cb5b146101f05780638e539e8c146101f857806398c6e7601461020b5761014d565b80633a46b1a81461015257806346b960971461017b578063587cde1e1461018e5780635c19a95c146101ae57806361bc221a146101c3575b600080fd5b610165610160366004610efc565b6102d6565b6040516101729190611281565b60405180910390f35b610165610189366004610f83565b61034f565b6101a161019c366004610ee2565b6103a1565b6040516101729190610fc6565b6101c16101bc366004610ee2565b6103bb565b005b6101656103d3565b6101656103d9565b6101c16103df565b6101e361048b565b6040516101729190610fda565b6101a1610494565b610165610206366004610f83565b6104a3565b6101a16104f2565b6101c1610221366004610f83565b610506565b610165610234366004610ee2565b61060c565b6101c1610247366004610f83565b610643565b610165610752565b6101c1610262366004610f83565b610758565b61026f61085e565b6040516101729190611260565b610165610882565b6101c16101bc366004610f25565b6101c16102a0366004610ee2565b610888565b61016561098b565b6101a1610991565b6102c86102c3366004610f9b565b6109a0565b60405161017292919061128a565b6000806102e28361034f565b90506102ec610a93565b831080156102fa5750600081115b61031f5760405162461bcd60e51b8152600401610316906111cf565b60405180910390fd5b6001600160a01b0384166000908152606b60205260409020610345906000198301610a97565b9150505b92915050565b6000610359610b08565b8210156103685750600061039c565b600061037c610375610b08565b8490610b0e565b606a54909150610398906103928361c4e0610b6b565b90610b0e565b9150505b919050565b600060405162461bcd60e51b8152600401610316906110a4565b60405162461bcd60e51b8152600401610316906110a4565b60665481565b60685481565b6103e7610bd2565b6001600160a01b03166103f8610494565b6001600160a01b031614610441576040805162461bcd60e51b81526020600482018190526024820152600080516020611301833981519152604482015290519081900360640190fd5b6033546040516000916001600160a01b0316907f8be0079c531659141344cd1fd0a4f28419497f9722a3daafe3b4186f6b6457e0908390a3603380546001600160a01b0319169055565b60675460ff1681565b6033546001600160a01b031690565b6000806104af8361034f565b90506104b9610a93565b831080156104c75750600081115b6104e35760405162461bcd60e51b8152600401610316906111cf565b610398606d6000198301610a97565b60675461010090046001600160a01b031681565b60675460ff16156105295760405162461bcd60e51b8152600401610316906111fc565b60675461010090046001600160a01b0316156105575760405162461bcd60e51b81526004016103169061117e565b61055f610bd2565b6001600160a01b0316610570610494565b6001600160a01b0316146105b9576040805162461bcd60e51b81526020600482018190526024820152600080516020611301833981519152604482015290519081900360640190fd5b606881106105d95760405162461bcd60e51b815260040161031690610fe5565b606981905560405181907f88345dd2cdc36a4778bf7fed510015cf81efda1a773e1b6360fde7cb1631b21090600090a250565b60008061061a610189610a93565b6001600160a01b0384166000908152606b60205260409020909150610398906000198301610a97565b60675460ff16156106665760405162461bcd60e51b8152600401610316906111fc565b60675461010090046001600160a01b0316156106945760405162461bcd60e51b81526004016103169061117e565b61069c610bd2565b6001600160a01b03166106ad610494565b6001600160a01b0316146106f6576040805162461bcd60e51b81526020600482018190526024820152600080516020611301833981519152604482015290519081900360640190fd5b610701610189610a93565b811061071f5760405162461bcd60e51b815260040161031690611147565b606a81905560405181907f2f807974bc9b84320f39300f6395b257c58bb285c61d262ec17c8332772d683690600090a250565b606a5481565b60675460ff161561077b5760405162461bcd60e51b8152600401610316906111fc565b60675461010090046001600160a01b0316156107a95760405162461bcd60e51b81526004016103169061117e565b6107b1610bd2565b6001600160a01b03166107c2610494565b6001600160a01b03161461080b576040805162461bcd60e51b81526020600482018190526024820152600080516020611301833981519152604482015290519081900360640190fd5b6067811061082b5760405162461bcd60e51b8152600401610316906110cd565b606881905560405181907fa21222d0eed205eed6a46ed1fe7faf1d0b5d097b9e04a6d4e59b7f1debfc8b2b90600090a250565b60408051606081018252607054815260715460208201526072549181019190915281565b60695481565b610890610bd2565b6001600160a01b03166108a1610494565b6001600160a01b0316146108ea576040805162461bcd60e51b81526020600482018190526024820152600080516020611301833981519152604482015290519081900360640190fd5b6001600160a01b03811661092f5760405162461bcd60e51b81526004018080602001828103825260268152602001806112996026913960400191505060405180910390fd5b6033546040516001600160a01b038084169216907f8be0079c531659141344cd1fd0a4f28419497f9722a3daafe3b4186f6b6457e090600090a3603380546001600160a01b0319166001600160a01b0392909216919091179055565b61c4e081565b6065546001600160a01b031681565b60008060006109af8686610bd6565b90506068548410156109d35760405162461bcd60e51b815260040161031690611104565b6069548110156109f55760405162461bcd60e51b81526004016103169061121d565b6000610a21606854606703610a1b6304c4b4006068548903610bf290919063ffffffff16565b90610b6b565b90506000610a49606954606803610a1b6302625a006069548703610bf290919063ffffffff16565b90506000610a656301312d00610a5f8585610c4b565b90610c4b565b9050610a796305f5e100610a1b8b84610bf2565b9550610a858685610bd6565b945050505050935093915050565b4390565b600382015460048301546000919083821415610ab65791506103499050565b81841115610ad357610aca85838684610ca5565b92505050610349565b60008411610af35760405162461bcd60e51b8152600401610316906111a1565b610aff85838684610d39565b95945050505050565b612a3090565b600082821115610b65576040805162461bcd60e51b815260206004820152601e60248201527f536166654d6174683a207375627472616374696f6e206f766572666c6f770000604482015290519081900360640190fd5b50900390565b6000808211610bc1576040805162461bcd60e51b815260206004820152601a60248201527f536166654d6174683a206469766973696f6e206279207a65726f000000000000604482015290519081900360640190fd5b818381610bca57fe5b049392505050565b3390565b6000610beb6001610a5f84610a1b8784610b0e565b9392505050565b600082610c0157506000610349565b82820282848281610c0e57fe5b0414610beb5760405162461bcd60e51b81526004018080602001828103825260218152602001806112e06021913960400191505060405180910390fd5b600082820183811015610beb576040805162461bcd60e51b815260206004820152601b60248201527f536166654d6174683a206164646974696f6e206f766572666c6f770000000000604482015290519081900360640190fd5b600081610cb3575080610d31565b6005850154845b84811015610d2b57610ccc8483610b0e565b60008281526020899052604081205491955090610cf290610cec85610dfb565b90610e01565b90506000811215610d155760405162461bcd60e51b81526004016103169061101c565b915081610d23826001610c4b565b915050610cba565b83925050505b949350505050565b6005840154600090845b84811115610d2b57610d56816001610b0e565b600081815260018901602052604081205491925090610d7e90610d7887610dfb565b90610e66565b90506000811215610da15760405162461bcd60e51b815260040161031690611061565b6000828152602089905260408120549195508591610dc290610d7886610dfb565b90506000811215610de55760405162461bcd60e51b81526004016103169061101c565b925082610df28682610c4b565b95505050610d43565b8061039c565b6000828201818312801590610e165750838112155b80610e2b5750600083128015610e2b57508381125b610beb5760405162461bcd60e51b81526004018080602001828103825260218152602001806112bf6021913960400191505060405180910390fd5b6000818303818312801590610e7b5750838113155b80610e905750600083128015610e9057508381135b610beb5760405162461bcd60e51b81526004018080602001828103825260248152602001806113216024913960400191505060405180910390fd5b80356001600160a01b038116811461039c57600080fd5b600060208284031215610ef3578081fd5b610beb82610ecb565b60008060408385031215610f0e578081fd5b610f1783610ecb565b946020939093013593505050565b60008060008060008060c08789031215610f3d578182fd5b610f4687610ecb565b95506020870135945060408701359350606087013560ff81168114610f69578283fd5b9598949750929560808101359460a0909101359350915050565b600060208284031215610f94578081fd5b5035919050565b600080600060608486031215610faf578283fd5b505081359360208301359350604090920135919050565b6001600160a01b0391909116815260200190565b901515815260200190565b6020808252601a908201527f6e657720736c6f706520706572696f64203e2032207965617273000000000000604082015260600190565b60208082526025908201527f736c6f7065203c20302c20736f6d657468696e672077726f6e67207769746820604082015264736c6f706560d81b606082015260800190565b60208082526023908201527f62696173203c20302c20736f6d657468696e672077726f6e672077697468206260408201526269617360e81b606082015260800190565b6020808252600f908201526e1b9bdd081a5b5c1b195b595b9d1959608a1b604082015260600190565b6020808252601a908201527f6e657720636c69666620706572696f64203e2032207965617273000000000000604082015260600190565b60208082526023908201527f636c69666620706572696f64203c206d696e696d616c207374616b65207065726040820152621a5bd960ea1b606082015260800190565b6020808252601a908201527f77726f6e67206e65775374617274696e67506f696e745765656b000000000000604082015260600190565b6020808252600990820152686d6967726174696e6760b81b604082015260600190565b602080825260149082015273756e657870656374656420706173742074696d6560601b604082015260600190565b602080825260139082015272189b1bd8dac81b9bdd081e595d081b5a5b9959606a1b604082015260600190565b6020808252600790820152661cdd1bdc1c195960ca1b604082015260600190565b60208082526023908201527f736c6f706520706572696f64203c206d696e696d616c207374616b65207065726040820152621a5bd960ea1b606082015260800190565b81518152602080830151908201526040918201519181019190915260600190565b90815260200190565b91825260208201526040019056fe4f776e61626c653a206e6577206f776e657220697320746865207a65726f20616464726573735369676e6564536166654d6174683a206164646974696f6e206f766572666c6f77536166654d6174683a206d756c7469706c69636174696f6e206f766572666c6f774f776e61626c653a2063616c6c6572206973206e6f7420746865206f776e65725369676e6564536166654d6174683a207375627472616374696f6e206f766572666c6f77a26469706673582212200f0cce05d101e032b34cc165c43f5536f41b6747eae60922757ea8c6028fae4364736f6c63430007060033",
  "immutableReferences": {},
  "source": "// SPDX-License-Identifier: MIT\n\npragma solidity 0.7.6;\npragma abicoder v2;\n\nimport \"./StakingBase.sol\";\n\ncontract StakingVotes is StakingBase {\n    using LibBrokenLine for LibBrokenLine.BrokenLine;\n\n    /**\n     * @dev Returns the current amount of votes that `account` has.\n     */\n    function getVotes(address account) external override view returns (uint256) {\n        uint currentWeek = roundTimestamp(getBlockNumber());\n        return accounts[account].balance.actualValue(currentWeek - 1);\n    }\n\n    /**\n     * @dev Returns the amount of votes that `account` had\n     * at the end of the last period\n     */\n    function getPastVotes(address account, uint256 blockNumber) external override view returns (uint256) {\n        uint currentWeek = roundTimestamp(blockNumber);\n        require(blockNumber < getBlockNumber() && currentWeek > 0, \"block not yet mined\");\n\n        return accounts[account].balance.actualValue(currentWeek - 1);\n    }\n\n    /**\n     * @dev Returns the total supply of votes available \n     * at the end of the last period\n     */\n    function getPastTotalSupply(uint256 blockNumber) external override view returns (uint256) {\n        uint currentWeek = roundTimestamp(blockNumber);\n        require(blockNumber < getBlockNumber() && currentWeek > 0, \"block not yet mined\");\n\n        return totalSupplyLine.actualValue(currentWeek - 1);\n    }\n\n    /**\n     * @dev Returns the delegate that `account` has chosen.\n     */\n    function delegates(address account) external override view returns (address) {\n        revert(\"not implemented\");\n    }\n\n    /**\n     * @dev Delegates votes from the sender to `delegatee`.\n     */\n    function delegate(address delegatee) external override {\n        revert(\"not implemented\");\n    }\n\n    /**\n     * @dev Delegates votes from signer to `delegatee`.\n     */\n    function delegateBySig(\n        address delegatee,\n        uint256 nonce,\n        uint256 expiry,\n        uint8 v,\n        bytes32 r,\n        bytes32 s\n    ) external override {\n        revert(\"not implemented\");\n    }\n\n    uint256[50] private __gap;\n}",
  "sourcePath": "@rarible/staking/contracts/StakingVotes.sol",
  "compiler": {
    "name": "solc",
    "version": "0.7.6+commit.7338295f.Emscripten.clang"
  },
  "schemaVersion": "3.4.5",
  "updatedAt": "2022-10-10T16:56:34.789Z",
  "devdoc": {
    "kind": "dev",
    "methods": {
      "delegate(address)": {
        "details": "Delegates votes from the sender to `delegatee`."
      },
      "delegateBySig(address,uint256,uint256,uint8,bytes32,bytes32)": {
        "details": "Delegates votes from signer to `delegatee`."
      },
      "delegates(address)": {
        "details": "Returns the delegate that `account` has chosen."
      },
      "getPastTotalSupply(uint256)": {
        "details": "Returns the total supply of votes available  at the end of the last period"
      },
      "getPastVotes(address,uint256)": {
        "details": "Returns the amount of votes that `account` had at the end of the last period"
      },
      "getVotes(address)": {
        "details": "Returns the current amount of votes that `account` has."
      },
      "owner()": {
        "details": "Returns the address of the current owner."
      },
      "renounceOwnership()": {
        "details": "Leaves the contract without owner. It will not be possible to call `onlyOwner` functions anymore. Can only be called by the current owner. NOTE: Renouncing ownership will leave the contract without an owner, thereby removing any functionality that is only available to the owner."
      },
      "transferOwnership(address)": {
        "details": "Transfers ownership of the contract to a new account (`newOwner`). Can only be called by the current owner."
      }
    },
    "version": 1
  },
  "userdoc": {
    "kind": "user",
    "methods": {
      "getStake(uint256,uint256,uint256)": {
        "notice": "alculate and return (newAmount, newSlope), using formula: staking = (tokens * (      ST_FORMULA_CONST_MULTIPLIER      + ST_FORMULA_CLIFF_MULTIPLIER * (cliffPeriod - minCliffPeriod))/(MAX_CLIFF_PERIOD - minCliffPeriod)      + ST_FORMULA_SLOPE_MULTIPLIER * (slopePeriod - minSlopePeriod))/(MAX_SLOPE_PERIOD - minSlopePeriod)      )) / ST_FORMULA_DIVIDER*"
      }
    },
    "version": 1
  }
}