{
  "contractName": "Staking",
  "abi": [
    {
      "anonymous": false,
      "inputs": [
        {
          "indexed": true,
          "internalType": "uint256",
          "name": "id",
          "type": "uint256"
        },
        {
          "indexed": true,
          "internalType": "address",
          "name": "account",
          "type": "address"
        },
        {
          "indexed": true,
          "internalType": "address",
          "name": "delegate",
          "type": "address"
        },
        {
          "indexed": false,
          "internalType": "uint256",
          "name": "time",
          "type": "uint256"
        }
      ],
      "name": "Delegate",
      "type": "event"
    },
    {
      "anonymous": false,
      "inputs": [
        {
          "indexed": true,
          "internalType": "address",
          "name": "delegator",
          "type": "address"
        },
        {
          "indexed": true,
          "internalType": "address",
          "name": "fromDelegate",
          "type": "address"
        },
        {
          "indexed": true,
          "internalType": "address",
          "name": "toDelegate",
          "type": "address"
        }
      ],
      "name": "DelegateChanged",
      "type": "event"
    },
    {
      "anonymous": false,
      "inputs": [
        {
          "indexed": true,
          "internalType": "address",
          "name": "delegate",
          "type": "address"
        },
        {
          "indexed": false,
          "internalType": "uint256",
          "name": "previousBalance",
          "type": "uint256"
        },
        {
          "indexed": false,
          "internalType": "uint256",
          "name": "newBalance",
          "type": "uint256"
        }
      ],
      "name": "DelegateVotesChanged",
      "type": "event"
    },
    {
      "anonymous": false,
      "inputs": [
        {
          "indexed": true,
          "internalType": "address",
          "name": "account",
          "type": "address"
        },
        {
          "indexed": false,
          "internalType": "uint256[]",
          "name": "id",
          "type": "uint256[]"
        }
      ],
      "name": "Migrate",
      "type": "event"
    },
    {
      "anonymous": false,
      "inputs": [
        {
          "indexed": true,
          "internalType": "address",
          "name": "previousOwner",
          "type": "address"
        },
        {
          "indexed": true,
          "internalType": "address",
          "name": "newOwner",
          "type": "address"
        }
      ],
      "name": "OwnershipTransferred",
      "type": "event"
    },
    {
      "anonymous": false,
      "inputs": [
        {
          "indexed": true,
          "internalType": "uint256",
          "name": "id",
          "type": "uint256"
        },
        {
          "indexed": true,
          "internalType": "address",
          "name": "account",
          "type": "address"
        },
        {
          "indexed": true,
          "internalType": "address",
          "name": "delegate",
          "type": "address"
        },
        {
          "indexed": false,
          "internalType": "uint256",
          "name": "counter",
          "type": "uint256"
        },
        {
          "indexed": false,
          "internalType": "uint256",
          "name": "time",
          "type": "uint256"
        },
        {
          "indexed": false,
          "internalType": "uint256",
          "name": "amount",
          "type": "uint256"
        },
        {
          "indexed": false,
          "internalType": "uint256",
          "name": "slope",
          "type": "uint256"
        },
        {
          "indexed": false,
          "internalType": "uint256",
          "name": "cliff",
          "type": "uint256"
        }
      ],
      "name": "Restake",
      "type": "event"
    },
    {
      "anonymous": false,
      "inputs": [
        {
          "indexed": true,
          "internalType": "uint256",
          "name": "newMinCliffPeriod",
          "type": "uint256"
        }
      ],
      "name": "SetMinCliffPeriod",
      "type": "event"
    },
    {
      "anonymous": false,
      "inputs": [
        {
          "indexed": true,
          "internalType": "uint256",
          "name": "newMinSlopePeriod",
          "type": "uint256"
        }
      ],
      "name": "SetMinSlopePeriod",
      "type": "event"
    },
    {
      "anonymous": false,
      "inputs": [
        {
          "indexed": true,
          "internalType": "uint256",
          "name": "newStartingPointWeek",
          "type": "uint256"
        }
      ],
      "name": "SetStartingPointWeek",
      "type": "event"
    },
    {
      "anonymous": false,
      "inputs": [
        {
          "indexed": true,
          "internalType": "uint256",
          "name": "id",
          "type": "uint256"
        },
        {
          "indexed": true,
          "internalType": "address",
          "name": "account",
          "type": "address"
        },
        {
          "indexed": true,
          "internalType": "address",
          "name": "delegate",
          "type": "address"
        },
        {
          "indexed": false,
          "internalType": "uint256",
          "name": "time",
          "type": "uint256"
        },
        {
          "indexed": false,
          "internalType": "uint256",
          "name": "amount",
          "type": "uint256"
        },
        {
          "indexed": false,
          "internalType": "uint256",
          "name": "slopePeriod",
          "type": "uint256"
        },
        {
          "indexed": false,
          "internalType": "uint256",
          "name": "cliff",
          "type": "uint256"
        }
      ],
      "name": "StakeCreate",
      "type": "event"
    },
    {
      "anonymous": false,
      "inputs": [
        {
          "indexed": true,
          "internalType": "address",
          "name": "account",
          "type": "address"
        },
        {
          "indexed": true,
          "internalType": "address",
          "name": "to",
          "type": "address"
        }
      ],
      "name": "StartMigration",
      "type": "event"
    },
    {
      "anonymous": false,
      "inputs": [
        {
          "indexed": true,
          "internalType": "address",
          "name": "account",
          "type": "address"
        }
      ],
      "name": "StartStaking",
      "type": "event"
    },
    {
      "anonymous": false,
      "inputs": [
        {
          "indexed": true,
          "internalType": "address",
          "name": "account",
          "type": "address"
        }
      ],
      "name": "StopStaking",
      "type": "event"
    },
    {
      "anonymous": false,
      "inputs": [
        {
          "indexed": true,
          "internalType": "address",
          "name": "account",
          "type": "address"
        },
        {
          "indexed": false,
          "internalType": "uint256",
          "name": "amount",
          "type": "uint256"
        }
      ],
      "name": "Withdraw",
      "type": "event"
    },
    {
      "inputs": [],
      "name": "WEEK",
      "outputs": [
        {
          "internalType": "uint256",
          "name": "",
          "type": "uint256"
        }
      ],
      "stateMutability": "view",
      "type": "function",
      "constant": true
    },
    {
      "inputs": [],
      "name": "counter",
      "outputs": [
        {
          "internalType": "uint256",
          "name": "",
          "type": "uint256"
        }
      ],
      "stateMutability": "view",
      "type": "function",
      "constant": true
    },
    {
      "inputs": [
        {
          "internalType": "address",
          "name": "delegatee",
          "type": "address"
        }
      ],
      "name": "delegate",
      "outputs": [],
      "stateMutability": "nonpayable",
      "type": "function"
    },
    {
      "inputs": [
        {
          "internalType": "address",
          "name": "delegatee",
          "type": "address"
        },
        {
          "internalType": "uint256",
          "name": "nonce",
          "type": "uint256"
        },
        {
          "internalType": "uint256",
          "name": "expiry",
          "type": "uint256"
        },
        {
          "internalType": "uint8",
          "name": "v",
          "type": "uint8"
        },
        {
          "internalType": "bytes32",
          "name": "r",
          "type": "bytes32"
        },
        {
          "internalType": "bytes32",
          "name": "s",
          "type": "bytes32"
        }
      ],
      "name": "delegateBySig",
      "outputs": [],
      "stateMutability": "nonpayable",
      "type": "function"
    },
    {
      "inputs": [
        {
          "internalType": "address",
          "name": "account",
          "type": "address"
        }
      ],
      "name": "delegates",
      "outputs": [
        {
          "internalType": "address",
          "name": "",
          "type": "address"
        }
      ],
      "stateMutability": "view",
      "type": "function",
      "constant": true
    },
    {
      "inputs": [
        {
          "internalType": "uint256",
          "name": "blockNumber",
          "type": "uint256"
        }
      ],
      "name": "getPastTotalSupply",
      "outputs": [
        {
          "internalType": "uint256",
          "name": "",
          "type": "uint256"
        }
      ],
      "stateMutability": "view",
      "type": "function",
      "constant": true
    },
    {
      "inputs": [
        {
          "internalType": "address",
          "name": "account",
          "type": "address"
        },
        {
          "internalType": "uint256",
          "name": "blockNumber",
          "type": "uint256"
        }
      ],
      "name": "getPastVotes",
      "outputs": [
        {
          "internalType": "uint256",
          "name": "",
          "type": "uint256"
        }
      ],
      "stateMutability": "view",
      "type": "function",
      "constant": true
    },
    {
      "inputs": [
        {
          "internalType": "uint256",
          "name": "amount",
          "type": "uint256"
        },
        {
          "internalType": "uint256",
          "name": "slope",
          "type": "uint256"
        },
        {
          "internalType": "uint256",
          "name": "cliff",
          "type": "uint256"
        }
      ],
      "name": "getStake",
      "outputs": [
        {
          "internalType": "uint256",
          "name": "stakeAmount",
          "type": "uint256"
        },
        {
          "internalType": "uint256",
          "name": "stakeSlope",
          "type": "uint256"
        }
      ],
      "stateMutability": "view",
      "type": "function",
      "constant": true
    },
    {
      "inputs": [
        {
          "internalType": "address",
          "name": "account",
          "type": "address"
        }
      ],
      "name": "getVotes",
      "outputs": [
        {
          "internalType": "uint256",
          "name": "",
          "type": "uint256"
        }
      ],
      "stateMutability": "view",
      "type": "function",
      "constant": true
    },
    {
      "inputs": [],
      "name": "migrateTo",
      "outputs": [
        {
          "internalType": "address",
          "name": "",
          "type": "address"
        }
      ],
      "stateMutability": "view",
      "type": "function",
      "constant": true
    },
    {
      "inputs": [],
      "name": "minCliffPeriod",
      "outputs": [
        {
          "internalType": "uint256",
          "name": "",
          "type": "uint256"
        }
      ],
      "stateMutability": "view",
      "type": "function",
      "constant": true
    },
    {
      "inputs": [],
      "name": "minSlopePeriod",
      "outputs": [
        {
          "internalType": "uint256",
          "name": "",
          "type": "uint256"
        }
      ],
      "stateMutability": "view",
      "type": "function",
      "constant": true
    },
    {
      "inputs": [],
      "name": "owner",
      "outputs": [
        {
          "internalType": "address",
          "name": "",
          "type": "address"
        }
      ],
      "stateMutability": "view",
      "type": "function",
      "constant": true
    },
    {
      "inputs": [],
      "name": "renounceOwnership",
      "outputs": [],
      "stateMutability": "nonpayable",
      "type": "function"
    },
    {
      "inputs": [
        {
          "internalType": "uint256",
          "name": "id",
          "type": "uint256"
        },
        {
          "internalType": "address",
          "name": "newDelegate",
          "type": "address"
        },
        {
          "internalType": "uint256",
          "name": "newAmount",
          "type": "uint256"
        },
        {
          "internalType": "uint256",
          "name": "newSlope",
          "type": "uint256"
        },
        {
          "internalType": "uint256",
          "name": "newCliff",
          "type": "uint256"
        }
      ],
      "name": "restake",
      "outputs": [
        {
          "internalType": "uint256",
          "name": "",
          "type": "uint256"
        }
      ],
      "stateMutability": "nonpayable",
      "type": "function"
    },
    {
      "inputs": [
        {
          "internalType": "uint256",
          "name": "ts",
          "type": "uint256"
        }
      ],
      "name": "roundTimestamp",
      "outputs": [
        {
          "internalType": "uint256",
          "name": "",
          "type": "uint256"
        }
      ],
      "stateMutability": "view",
      "type": "function",
      "constant": true
    },
    {
      "inputs": [
        {
          "internalType": "uint256",
          "name": "newMinCliffPeriod",
          "type": "uint256"
        }
      ],
      "name": "setMinCliffPeriod",
      "outputs": [],
      "stateMutability": "nonpayable",
      "type": "function"
    },
    {
      "inputs": [
        {
          "internalType": "uint256",
          "name": "newMinSlopePeriod",
          "type": "uint256"
        }
      ],
      "name": "setMinSlopePeriod",
      "outputs": [],
      "stateMutability": "nonpayable",
      "type": "function"
    },
    {
      "inputs": [
        {
          "internalType": "uint256",
          "name": "newStartingPointWeek",
          "type": "uint256"
        }
      ],
      "name": "setStartingPointWeek",
      "outputs": [],
      "stateMutability": "nonpayable",
      "type": "function"
    },
    {
      "inputs": [],
      "name": "startingPointWeek",
      "outputs": [
        {
          "internalType": "uint256",
          "name": "",
          "type": "uint256"
        }
      ],
      "stateMutability": "view",
      "type": "function",
      "constant": true
    },
    {
      "inputs": [],
      "name": "stopped",
      "outputs": [
        {
          "internalType": "bool",
          "name": "",
          "type": "bool"
        }
      ],
      "stateMutability": "view",
      "type": "function",
      "constant": true
    },
    {
      "inputs": [],
      "name": "token",
      "outputs": [
        {
          "internalType": "contract IERC20Upgradeable",
          "name": "",
          "type": "address"
        }
      ],
      "stateMutability": "view",
      "type": "function",
      "constant": true
    },
    {
      "inputs": [],
      "name": "totalSupplyLine",
      "outputs": [
        {
          "components": [
            {
              "internalType": "uint256",
              "name": "start",
              "type": "uint256"
            },
            {
              "internalType": "uint256",
              "name": "bias",
              "type": "uint256"
            },
            {
              "internalType": "uint256",
              "name": "slope",
              "type": "uint256"
            }
          ],
          "internalType": "struct LibBrokenLine.Line",
          "name": "initial",
          "type": "tuple"
        }
      ],
      "stateMutability": "view",
      "type": "function",
      "constant": true
    },
    {
      "inputs": [
        {
          "internalType": "address",
          "name": "newOwner",
          "type": "address"
        }
      ],
      "name": "transferOwnership",
      "outputs": [],
      "stateMutability": "nonpayable",
      "type": "function"
    },
    {
      "inputs": [
        {
          "internalType": "contract IERC20Upgradeable",
          "name": "_token",
          "type": "address"
        },
        {
          "internalType": "uint256",
          "name": "_startingPointWeek",
          "type": "uint256"
        },
        {
          "internalType": "uint256",
          "name": "_minCliffPeriod",
          "type": "uint256"
        },
        {
          "internalType": "uint256",
          "name": "_minSlopePeriod",
          "type": "uint256"
        }
      ],
      "name": "__Staking_init",
      "outputs": [],
      "stateMutability": "nonpayable",
      "type": "function"
    },
    {
      "inputs": [],
      "name": "stop",
      "outputs": [],
      "stateMutability": "nonpayable",
      "type": "function"
    },
    {
      "inputs": [],
      "name": "start",
      "outputs": [],
      "stateMutability": "nonpayable",
      "type": "function"
    },
    {
      "inputs": [
        {
          "internalType": "address",
          "name": "to",
          "type": "address"
        }
      ],
      "name": "startMigration",
      "outputs": [],
      "stateMutability": "nonpayable",
      "type": "function"
    },
    {
      "inputs": [
        {
          "internalType": "address",
          "name": "account",
          "type": "address"
        },
        {
          "internalType": "address",
          "name": "_delegate",
          "type": "address"
        },
        {
          "internalType": "uint256",
          "name": "amount",
          "type": "uint256"
        },
        {
          "internalType": "uint256",
          "name": "slope",
          "type": "uint256"
        },
        {
          "internalType": "uint256",
          "name": "cliff",
          "type": "uint256"
        }
      ],
      "name": "stake",
      "outputs": [
        {
          "internalType": "uint256",
          "name": "",
          "type": "uint256"
        }
      ],
      "stateMutability": "nonpayable",
      "type": "function"
    },
    {
      "inputs": [],
      "name": "withdraw",
      "outputs": [],
      "stateMutability": "nonpayable",
      "type": "function"
    },
    {
      "inputs": [
        {
          "internalType": "address",
          "name": "account",
          "type": "address"
        }
      ],
      "name": "getAvailableForWithdraw",
      "outputs": [
        {
          "internalType": "uint256",
          "name": "value",
          "type": "uint256"
        }
      ],
      "stateMutability": "view",
      "type": "function",
      "constant": true
    },
    {
      "inputs": [
        {
          "internalType": "address",
          "name": "account",
          "type": "address"
        }
      ],
      "name": "locked",
      "outputs": [
        {
          "internalType": "uint256",
          "name": "",
          "type": "uint256"
        }
      ],
      "stateMutability": "view",
      "type": "function",
      "constant": true
    },
    {
      "inputs": [
        {
          "internalType": "uint256",
          "name": "id",
          "type": "uint256"
        }
      ],
      "name": "getAccountAndDelegate",
      "outputs": [
        {
          "internalType": "address",
          "name": "account",
          "type": "address"
        },
        {
          "internalType": "address",
          "name": "delegate",
          "type": "address"
        }
      ],
      "stateMutability": "view",
      "type": "function",
      "constant": true
    },
    {
      "inputs": [],
      "name": "getWeek",
      "outputs": [
        {
          "internalType": "uint256",
          "name": "",
          "type": "uint256"
        }
      ],
      "stateMutability": "view",
      "type": "function",
      "constant": true
    },
    {
      "inputs": [
        {
          "internalType": "uint256",
          "name": "id",
          "type": "uint256"
        },
        {
          "internalType": "address",
          "name": "newDelegate",
          "type": "address"
        }
      ],
      "name": "delegateTo",
      "outputs": [],
      "stateMutability": "nonpayable",
      "type": "function"
    },
    {
      "inputs": [],
      "name": "totalSupply",
      "outputs": [
        {
          "internalType": "uint256",
          "name": "",
          "type": "uint256"
        }
      ],
      "stateMutability": "view",
      "type": "function",
      "constant": true
    },
    {
      "inputs": [
        {
          "internalType": "address",
          "name": "account",
          "type": "address"
        }
      ],
      "name": "balanceOf",
      "outputs": [
        {
          "internalType": "uint256",
          "name": "",
          "type": "uint256"
        }
      ],
      "stateMutability": "view",
      "type": "function",
      "constant": true
    },
    {
      "inputs": [
        {
          "internalType": "uint256[]",
          "name": "id",
          "type": "uint256[]"
        }
      ],
      "name": "migrate",
      "outputs": [],
      "stateMutability": "nonpayable",
      "type": "function"
    },
    {
      "inputs": [],
      "name": "name",
      "outputs": [
        {
          "internalType": "string",
          "name": "",
          "type": "string"
        }
      ],
      "stateMutability": "view",
      "type": "function",
      "constant": true
    },
    {
      "inputs": [],
      "name": "symbol",
      "outputs": [
        {
          "internalType": "string",
          "name": "",
          "type": "string"
        }
      ],
      "stateMutability": "view",
      "type": "function",
      "constant": true
    },
    {
      "inputs": [],
      "name": "decimals",
      "outputs": [
        {
          "internalType": "uint8",
          "name": "",
          "type": "uint8"
        }
      ],
      "stateMutability": "view",
      "type": "function",
      "constant": true
    }
  ],
  "bytecode": "0x608060405234801561001057600080fd5b50613ae1806100206000396000f3fe608060405234801561001057600080fd5b50600436106102535760003560e01c80638e539e8c11610146578063b6231633116100c3578063f108fa9311610087578063f108fa9314610498578063f2fde38b146104ab578063f4359ce5146104be578063fc0c546a146104c6578063fc7881c6146104ce578063fecf0fdd146104e157610253565b8063b623163314610454578063be9a65551461045c578063c3cda52014610464578063cbf9fe5f14610472578063d93bf4fe1461048557610253565b8063a0f52da01161010a578063a0f52da0146103fe578063a8edafbe14610411578063ac7ae58914610424578063acc9b6481461042c578063b53546ab1461043f57610253565b80638e539e8c146103b557806395d89b41146103c857806398c6e760146103d057806399eccf62146103d85780639ab24eb0146103eb57610253565b80635c19a95c116101d4578063715018a611610198578063715018a61461037557806375f12b211461037d578063874d6d81146103925780638cda5c141461039a5780638da5cb5b146103ad57610253565b80635c19a95c1461032c57806361bc221a1461033f57806367c8c473146103475780636bde67d81461034f57806370a082311461036257610253565b8063313ce5671161021b578063313ce567146102c95780633a46b1a8146102de5780633ccfd60b146102f157806346b96097146102f9578063587cde1e1461030c57610253565b806306fdde031461025857806307da68f5146102765780630fc8deca1461028057806315622e23146102a057806318160ddd146102c1575b600080fd5b610260610502565b60405161026d91906132fb565b60405180910390f35b61027e610530565b005b61029361028e366004612f8c565b6105f8565b60405161026d9190613905565b6102b36102ae36600461318b565b61066a565b60405161026d929190613290565b610293610691565b6102d16106d2565b60405161026d919061398e565b6102936102ec366004612ff8565b6106d7565b61027e610747565b61029361030736600461318b565b610870565b61031f61031a366004612f8c565b6108c0565b60405161026d919061323f565b61027e61033a366004612f8c565b6108da565b6102936108f2565b6102936108f8565b61029361035d3660046131d2565b6108fe565b610293610370366004612f8c565b610b44565b61027e610bad565b610385610c59565b60405161026d91906132e2565b610293610c62565b61027e6103a8366004613151565b610c74565b61031f610d36565b6102936103c336600461318b565b610d45565b610260610d94565b61031f610db4565b61027e6103e636600461318b565b610dc8565b6102936103f9366004612f8c565b610ece565b61027e61040c366004612f8c565b610f05565b61027e61041f36600461318b565b610fbb565b6102936110ca565b61027e61043a36600461318b565b6110d0565b6104476111d6565b60405161026d91906138f7565b6102936111fa565b61027e611200565b61027e61033a366004613023565b610293610480366004612f8c565b6112bb565b61027e610493366004613083565b6112d9565b6102936104a6366004612fa8565b61167e565b61027e6104b9366004612f8c565b61192a565b610293611a2d565b61031f611a33565b61027e6104dc3660046131a3565b611a42565b6104f46104ef3660046131fb565b611cd4565b60405161026d9291906132ed565b60408051808201909152601381527252617269626c6520566f74652d457363726f7760681b60208201525b90565b610538611dc7565b6001600160a01b0316610549610d36565b6001600160a01b031614610592576040805162461bcd60e51b81526020600482018190526024820152600080516020613a48833981519152604482015290519081900360640190fd5b60675460ff16156105be5760405162461bcd60e51b81526004016105b590613893565b60405180910390fd5b6067805460ff1916600117905560405133907f6bc4e1d7a91902d97533e9181b5ca4c1e8a90725e767a9b8cdbbcf901ba554fe90600090a2565b6001600160a01b0381166000908152606b60205260409020600c015460675460ff1661066557600061062b610307611dcb565b6001600160a01b0384166000908152606b60205260408120919250906106549060060183611dcf565b90506106608382611e40565b925050505b919050565b6000908152606c6020526040902080546001909101546001600160a01b0391821692911690565b60715460009015806106a5575060675460ff165b156106b25750600061052d565b60006106bf610307611dcb565b90506106cc606d82611dcf565b91505090565b601290565b6000806106e383610870565b90506106ed611dcb565b831080156106fb5750600081115b6107175760405162461bcd60e51b81526004016105b59061383d565b6001600160a01b0384166000908152606b6020526040902061073d906000198301611dcf565b9150505b92915050565b6000610752336105f8565b9050801561082c57336000908152606b60205260409020600c01546107779082611e40565b336000818152606b602052604090819020600c0192909255606554915163a9059cbb60e01b81526001600160a01b039092169163a9059cbb916107be918590600401613277565b602060405180830381600087803b1580156107d857600080fd5b505af11580156107ec573d6000803e3d6000fd5b505050506040513d601f19601f820116820180604052508101906108109190613131565b61082c5760405162461bcd60e51b81526004016105b59061386a565b336001600160a01b03167f884edad9ce6fa2440d8a54cc123490eb96d2768479d49ff9c7366125a9424364826040516108659190613905565b60405180910390a250565b600061087a611e9d565b82101561088957506000610665565b600061089d610896611e9d565b8490611e40565b606a549091506108b9906108b38361c4e0611ea3565b90611e40565b9392505050565b600060405162461bcd60e51b81526004016105b590613469565b60405162461bcd60e51b81526004016105b590613469565b60665481565b60685481565b60675460009060ff16156109245760405162461bcd60e51b81526004016105b590613893565b60675461010090046001600160a01b0316156109525760405162461bcd60e51b81526004016105b590613640565b600061095d87611f0a565b9050600061096c610307611dcb565b905061097c828988888886611f41565b6000888152606c60209081526040808320600101546001600160a01b038681168552606b90935292209116906109b590600601836120fd565b6001600160a01b0383166000908152606b60205260409020600a01546109eb908a9085906109e5838387896121c7565b8b61223d565b606680546001019055610a028389898989876123ab565b876001600160a01b0316836001600160a01b03168a7fed21ca2fb4312d282540746b7f00899205aee2bd522dcbb837405aea6a92b52a606654868c8c8c604051610a5095949392919061396b565b60405180910390a4876001600160a01b0316816001600160a01b0316846001600160a01b03167f3134e8a2e6d97e929a7e54011ea5485d7d196dd5f0ba4d4ef95803e8e3fc257f60405160405180910390a46001600160a01b0381166000818152606b60205260408120600080516020613a8c8339815191529190610ad59086611dcf565b604051610ae39291906132ed565b60405180910390a26001600160a01b0388166000818152606b60205260408120600080516020613a8c8339815191529190610b1e9086611dcf565b604051610b2c9291906132ed565b60405180910390a25050606654979650505050505050565b6001600160a01b0381166000908152606b60205260408120600401541580610b6e575060675460ff165b15610b7b57506000610665565b6000610b88610307611dcb565b6001600160a01b0384166000908152606b602052604090209091506108b99082611dcf565b610bb5611dc7565b6001600160a01b0316610bc6610d36565b6001600160a01b031614610c0f576040805162461bcd60e51b81526020600482018190526024820152600080516020613a48833981519152604482015290519081900360640190fd5b6033546040516000916001600160a01b0316907f8be0079c531659141344cd1fd0a4f28419497f9722a3daafe3b4186f6b6457e0908390a3603380546001600160a01b0319169055565b60675460ff1681565b6000610c6f610307611dcb565b905090565b600054610100900460ff1680610c8d5750610c8d6124b4565b80610c9b575060005460ff16155b610cd65760405162461bcd60e51b815260040180806020018281038252602e8152602001806139f9602e913960400191505060405180910390fd5b600054610100900460ff16158015610d01576000805460ff1961ff0019909116610100171660011790555b610d0d858585856124c5565b610d15612594565b610d1d61268d565b8015610d2f576000805461ff00191690555b5050505050565b6033546001600160a01b031690565b600080610d5183610870565b9050610d5b611dcb565b83108015610d695750600081115b610d855760405162461bcd60e51b81526004016105b59061383d565b6108b9606d6000198301611dcf565b60408051808201909152600681526576655241524960d01b602082015290565b60675461010090046001600160a01b031681565b60675460ff1615610deb5760405162461bcd60e51b81526004016105b590613893565b60675461010090046001600160a01b031615610e195760405162461bcd60e51b81526004016105b590613640565b610e21611dc7565b6001600160a01b0316610e32610d36565b6001600160a01b031614610e7b576040805162461bcd60e51b81526020600482018190526024820152600080516020613a48833981519152604482015290519081900360640190fd5b60688110610e9b5760405162461bcd60e51b81526004016105b59061334e565b606981905560405181907f88345dd2cdc36a4778bf7fed510015cf81efda1a773e1b6360fde7cb1631b21090600090a250565b600080610edc610307611dcb565b6001600160a01b0384166000908152606b602052604090209091506108b9906000198301611dcf565b610f0d611dc7565b6001600160a01b0316610f1e610d36565b6001600160a01b031614610f67576040805162461bcd60e51b81526020600482018190526024820152600080516020613a48833981519152604482015290519081900360640190fd5b60678054610100600160a81b0319166101006001600160a01b0384169081029190911790915560405133907f51ace7fc4e2a9f6104449d0bbe0532efdfd8dfebc68b225b91dd1de3bbb804fd90600090a350565b60675460ff1615610fde5760405162461bcd60e51b81526004016105b590613893565b60675461010090046001600160a01b03161561100c5760405162461bcd60e51b81526004016105b590613640565b611014611dc7565b6001600160a01b0316611025610d36565b6001600160a01b03161461106e576040805162461bcd60e51b81526020600482018190526024820152600080516020613a48833981519152604482015290519081900360640190fd5b611079610307611dcb565b81106110975760405162461bcd60e51b81526004016105b5906135c6565b606a81905560405181907f2f807974bc9b84320f39300f6395b257c58bb285c61d262ec17c8332772d683690600090a250565b606a5481565b60675460ff16156110f35760405162461bcd60e51b81526004016105b590613893565b60675461010090046001600160a01b0316156111215760405162461bcd60e51b81526004016105b590613640565b611129611dc7565b6001600160a01b031661113a610d36565b6001600160a01b031614611183576040805162461bcd60e51b81526020600482018190526024820152600080516020613a48833981519152604482015290519081900360640190fd5b606781106111a35760405162461bcd60e51b81526004016105b5906134f0565b606881905560405181907fa21222d0eed205eed6a46ed1fe7faf1d0b5d097b9e04a6d4e59b7f1debfc8b2b90600090a250565b60408051606081018252607054815260715460208201526072549181019190915281565b60695481565b611208611dc7565b6001600160a01b0316611219610d36565b6001600160a01b031614611262576040805162461bcd60e51b81526020600482018190526024820152600080516020613a48833981519152604482015290519081900360640190fd5b60675460ff166112845760405162461bcd60e51b81526004016105b5906135a1565b6067805460ff1916905560405133907ff1421bf36228f9555c8ffd2f76f6daaffade7af838a38bd6f665c6547d6948de90600090a2565b6001600160a01b03166000908152606b60205260409020600c015490565b60675461010090046001600160a01b03166112f35761167b565b6000611300610307611dcb565b60675490915061010090046001600160a01b031660005b835181101561163657600061133e85838151811061133157fe5b6020026020010151611f0a565b90506000606c600087858151811061135257fe5b6020908102919091018101518252810191909152604001600020600101546001600160a01b0316905061138682828761272e565b6001600160a01b0382166000908152606b60205260408120875160089091019082908990879081106113b457fe5b6020026020010151815260200190815260200160002060405180604001604052908160008201604051806060016040529081600082015481526020016001820154815260200160028201548152505081526020016003820154815250509050600061145388868151811061142457fe5b6020908102919091018101516001600160a01b0387166000908152606b90925260409091206006019089612785565b505060655460675460405163a9059cbb60e01b81529293506001600160a01b039182169263a9059cbb9261149292610100900416908590600401613277565b602060405180830381600087803b1580156114ac57600080fd5b505af11580156114c0573d6000803e3d6000fd5b505050506040513d601f19601f820116820180604052508101906114e49190613131565b6115005760405162461bcd60e51b81526004016105b59061386a565b6001600160a01b0384166000908152606b60205260409020600c01546115269082611e40565b6001600160a01b0385166000908152606b60205260409020600c015587516115809089908790811061155457fe5b6020908102919091018101516001600160a01b0386166000908152606b90925260409091209089612785565b5050506115ac88868151811061159257fe5b602002602001015188606d6127859092919063ffffffff16565b505050856001600160a01b0316638d7cdec28987815181106115ca57fe5b60200260200101518487876040518563ffffffff1660e01b81526004016115f4949392919061390e565b600060405180830381600087803b15801561160e57600080fd5b505af1158015611622573d6000803e3d6000fd5b505060019096019550611317945050505050565b50336001600160a01b03167f9302ff85f986fa03af144f0430ecea91ded0b24af1655f46bde13c1d3c13b76b8460405161167091906132aa565b60405180910390a250505b50565b60675460009060ff16156116a45760405162461bcd60e51b81526004016105b590613893565b60675461010090046001600160a01b0316156116d25760405162461bcd60e51b81526004016105b590613640565b60006116de85856129df565b9050600085116117005760405162461bcd60e51b81526004016105b5906133ca565b60678311156117215760405162461bcd60e51b81526004016105b590613492565b60688111156117425760405162461bcd60e51b81526004016105b590613731565b6065546040516323b872dd60e01b81526001600160a01b03909116906323b872dd9061177690339030908a90600401613253565b602060405180830381600087803b15801561179057600080fd5b505af11580156117a4573d6000803e3d6000fd5b505050506040513d601f19601f820116820180604052508101906117c89190613131565b6117e45760405162461bcd60e51b81526004016105b59061386a565b60668054600101905560006117fa610307611dcb565b905061180a8888888888866123ab565b6001600160a01b0388166000908152606b60205260409020600c015461183090876129f4565b6001600160a01b03808a166000818152606b602052604090819020600c01939093556066549251918a169290917f623b3d5e572a148a73b818e6f65063f047c4acf2a38cc0c8b367c5cd555963ae906118909086908c9089908c90613950565b60405180910390a46040516001600160a01b03808916916000918b16907f3134e8a2e6d97e929a7e54011ea5485d7d196dd5f0ba4d4ef95803e8e3fc257f908390a46001600160a01b0387166000818152606b60205260408120600080516020613a8c83398151915291906119059085611dcf565b6040516119139291906132ed565b60405180910390a250506066549695505050505050565b611932611dc7565b6001600160a01b0316611943610d36565b6001600160a01b03161461198c576040805162461bcd60e51b81526020600482018190526024820152600080516020613a48833981519152604482015290519081900360640190fd5b6001600160a01b0381166119d15760405162461bcd60e51b81526004018080602001828103825260268152602001806139b26026913960400191505060405180910390fd5b6033546040516001600160a01b038084169216907f8be0079c531659141344cd1fd0a4f28419497f9722a3daafe3b4186f6b6457e090600090a3603380546001600160a01b0319166001600160a01b0392909216919091179055565b61c4e081565b6065546001600160a01b031681565b60675460ff1615611a655760405162461bcd60e51b81526004016105b590613893565b60675461010090046001600160a01b031615611a935760405162461bcd60e51b81526004016105b590613640565b6000611a9e83611f0a565b6000848152606c60205260408120600101549192506001600160a01b0390911690611aca610307611dcb565b6001600160a01b0383166000908152606b60205260409020909150611aef90826120fd565b6001600160a01b0382166000908152606b6020526040812081908190611b16908986612785565b6040805160608101825288815260208082018690528183018590526001600160a01b038d166000908152606b90915291909120939650919450925090611b5c90866120fd565b6001600160a01b0388166000908152606b60205260409020611b80908a8385612a4e565b6000898152606c60205260409081902060010180546001600160a01b0319166001600160a01b038b81169182179092559151908916908b907f85c2730e083fbf1495501a47cbebc8a7e57eab8b6eeac16aedcebc825e268fac90611be5908a90613905565b60405180910390a4876001600160a01b0316866001600160a01b0316886001600160a01b03167f3134e8a2e6d97e929a7e54011ea5485d7d196dd5f0ba4d4ef95803e8e3fc257f60405160405180910390a46001600160a01b0386166000818152606b60205260408120600080516020613a8c8339815191529190611c6a9089611dcf565b604051611c789291906132ed565b60405180910390a26001600160a01b0388166000818152606b60205260408120600080516020613a8c8339815191529190611cb39089611dcf565b604051611cc19291906132ed565b60405180910390a2505050505050505050565b6000806000611ce386866129df565b9050606854841015611d075760405162461bcd60e51b81526004016105b590613527565b606954811015611d295760405162461bcd60e51b81526004016105b5906138b4565b6000611d55606854606703611d4f6304c4b4006068548903612c6790919063ffffffff16565b90611ea3565b90506000611d7d606954606803611d4f6302625a006069548703612c6790919063ffffffff16565b90506000611d996301312d00611d9385856129f4565b906129f4565b9050611dad6305f5e100611d4f8b84612c67565b9550611db986856129df565b945050505050935093915050565b3390565b4390565b600382015460048301546000919083821415611dee5791506107419050565b81841115611e0b57611e0285838684612cc0565b92505050610741565b60008411611e2b5760405162461bcd60e51b81526004016105b590613759565b611e3785838684612d4e565b95945050505050565b600082821115611e97576040805162461bcd60e51b815260206004820152601e60248201527f536166654d6174683a207375627472616374696f6e206f766572666c6f770000604482015290519081900360640190fd5b50900390565b612a3090565b6000808211611ef9576040805162461bcd60e51b815260206004820152601a60248201527f536166654d6174683a206469766973696f6e206279207a65726f000000000000604482015290519081900360640190fd5b818381611f0257fe5b049392505050565b6000818152606c60205260409020546001600160a01b03163381146106655760405162461bcd60e51b81526004016105b5906133ef565b60008411611f615760405162461bcd60e51b81526004016105b5906133ca565b6067821115611f825760405162461bcd60e51b81526004016105b590613492565b6000611f8e85856129df565b90506068811115611fb15760405162461bcd60e51b81526004016105b590613816565b6000611fc182611d9385876129f4565b6001600160a01b0389166000908152606b602090815260408083208b8452600801825291829020825160a08101845281549381019384526001820154606082018190526002830154608083018190528583526003909301549382019390935293945061202d91906129df565b9350600061205085611d93856020015185600001516129f490919063ffffffff16565b9050838111156120725760405162461bcd60e51b81526004016105b590613663565b6020830151825160009161208691906129f4565b90506000612094888a6129f4565b9050808211156120ee5760006120aa8383611e40565b602086015190915060006120c86120c1848f612c67565b8f90611e40565b9050818110156120ea5760405162461bcd60e51b81526004016105b5906134b9565b5050505b50505050505050505050505050565b60038201548181141561211057506121c3565b6005830154600484015480156121b05782841161213f5760405162461bcd60e51b81526004016105b5906137d1565b838310156121b0576121518183611e40565b600084815260208790526040812054919250906121779061217185612e0a565b90612e10565b9050600081121561219a5760405162461bcd60e51b81526004016105b590613385565b9150816121a88460016129f4565b93505061213f565b6003850184905560048501556005840155505b5050565b60006121d484848461272e565b6001600160a01b0383166000908152606b602052604090206121f7908684612785565b506122089150606d90508684612785565b5050506001600160a01b0384166000908152606b60205260409020612231906006018684612785565b50909695505050505050565b8082111561225d5760405162461bcd60e51b81526004016105b5906136e2565b60006122698284611e40565b6001600160a01b0386166000908152606b60205260408120600c01549192506122928287611e40565b9050808311156123a15760006122a88483611e40565b60655460008b8152606c6020526040908190205490516323b872dd60e01b81529293506001600160a01b03918216926323b872dd926122ef92169030908690600401613253565b602060405180830381600087803b15801561230957600080fd5b505af115801561231d573d6000803e3d6000fd5b505050506040513d601f19601f820116820180604052508101906123419190613131565b61235d5760405162461bcd60e51b81526004016105b59061386a565b6001600160a01b0388166000908152606b60205260409020600c015461238390826129f4565b6001600160a01b0389166000908152606b60205260409020600c0155505b5050505050505050565b6123b686868361272e565b6000806123c4868686611cd4565b6040805160608101825286815260208101849052908101829052606654929450909250906123f690606d908388612a4e565b6066546001600160a01b0389166000908152606b6020526040902061241c918388612a4e565b506040805160608101825284815260208082018990528183018890526066546001600160a01b038c166000908152606b909252929020909161246391600601908388612a4e565b5050606680546000908152606c602052604080822080546001600160a01b039b8c166001600160a01b0319918216179091559254825290206001018054979098169616959095179095555050505050565b60006124bf30612e75565b15905090565b600054610100900460ff16806124de57506124de6124b4565b806124ec575060005460ff16155b6125275760405162461bcd60e51b815260040180806020018281038252602e8152602001806139f9602e913960400191505060405180910390fd5b600054610100900460ff16158015612552576000805460ff1961ff0019909116610100171660011790555b606580546001600160a01b0319166001600160a01b038716179055606a849055606883905560698290558015610d2f576000805461ff00191690555050505050565b600054610100900460ff16806125ad57506125ad6124b4565b806125bb575060005460ff16155b6125f65760405162461bcd60e51b815260040180806020018281038252602e8152602001806139f9602e913960400191505060405180910390fd5b600054610100900460ff16158015612621576000805460ff1961ff0019909116610100171660011790555b600061262b611dc7565b603380546001600160a01b0319166001600160a01b038316908117909155604051919250906000907f8be0079c531659141344cd1fd0a4f28419497f9722a3daafe3b4186f6b6457e0908290a350801561167b576000805461ff001916905550565b600054610100900460ff16806126a657506126a66124b4565b806126b4575060005460ff16155b6126ef5760405162461bcd60e51b815260040180806020018281038252602e8152602001806139f9602e913960400191505060405180910390fd5b600054610100900460ff1615801561271a576000805460ff1961ff0019909116610100171660011790555b801561167b576000805461ff001916905550565b612739606d826120fd565b6001600160a01b0382166000908152606b6020526040902061275b90826120fd565b6001600160a01b0383166000908152606b6020526040902061278090600601826120fd565b505050565b6000828152600280850160209081526040808420815160a0810183528154928101928352600182015460608201819052948201546080820152918252600301549181019190915282918291906127ed5760405162461bcd60e51b81526004016105b59061356a565b80516127f988876120fd565b80602001519450806040015193506000925060006128338360200151611d9361282b888a611ea390919063ffffffff16565b8551906129f4565b90508087111561284d5760009550600094505050506129d6565b600061285a826001611e40565b90506000612869896001611e40565b9050600061287f61287a8a8a612e7b565b612e0a565b905060006128a360016108b3896020015189600001516129f490919063ffffffff16565b9050808b116128f6576128bb6001611d93838e611e40565b97506128d2816128ca8b612e0a565b8f9190612ee2565b6128f1846128e9846128e38d612e0a565b90612f0e565b8f9190612f73565b61297b565b838b116129525760058d015461290c908a611e40565b60058e0155612922846128e9846128e38d612e0a565b61294382611d938b61293d8f8a611e4090919063ffffffff16565b90612c67565b99506128f1836128ca8b612e0a565b60058d01546129619083611e40565b60058e0155909850889750879061297b836128ca84612e0a565b6129868d8684612f73565b60048d0154612995908b611e40565b60048e015560008c815260028e0160205260408120600101556129ce836129bb8c612e0a565b8f600101612ee29092919063ffffffff16565b505050505050505b93509350939050565b60006108b96001611d9384611d4f8784611e40565b6000828201838110156108b9576040805162461bcd60e51b815260206004820152601b60248201527f536166654d6174683a206164646974696f6e206f766572666c6f770000000000604482015290519081900360640190fd5b6040820151612a6f5760405162461bcd60e51b81526004016105b59061369a565b816020015182604001511115612a975760405162461bcd60e51b81526004016105b590613787565b600083815260028501602052604090206001015415612ac85760405162461bcd60e51b81526004016105b5906135fd565b604080518082018252838152602080820184815260008781526002808a0184529085902093518051855592830151600185015591909301519082015590516003909101558151612b199085906120fd565b60208201516004850154612b2c916129f4565b60048501558151600090612b41906001611e40565b9050612b5f81612b548560200151612e0a565b600188019190612f73565b6000612b7c84604001518560200151611ea390919063ffffffff16565b905082612bbc5760408401516005870154612b96916129f4565b60058701556040840151612bb7908390612baf90612e0a565b889190612f73565b612bf1565b6000612bc883856129f4565b9050612be381612bdb8760400151612e0a565b899190612f73565b612bed82856129f4565b9150505b6000612c1161287a86604001518760200151612e7b90919063ffffffff16565b8551909150600090612c2390846129f4565b90506000612c32826001611e40565b9050612c5181612c49856128e38b60400151612e0a565b8b9190612ee2565b612c5c898385612ee2565b505050505050505050565b600082612c7657506000610741565b82820282848281612c8357fe5b04146108b95760405162461bcd60e51b8152600401808060200182810382526021815260200180613a276021913960400191505060405180910390fd5b600081612cce575080612d46565b6005850154845b84811015612d4057612ce78483611e40565b60008281526020899052604081205491955090612d079061217185612e0a565b90506000811215612d2a5760405162461bcd60e51b81526004016105b590613385565b915081612d388260016129f4565b915050612cd5565b83925050505b949350505050565b6005840154600090845b84811115612d4057612d6b816001611e40565b600081815260018901602052604081205491925090612d8d906128e387612e0a565b90506000811215612db05760405162461bcd60e51b81526004016105b590613426565b6000828152602089905260408120549195508591612dd1906128e386612e0a565b90506000811215612df45760405162461bcd60e51b81526004016105b590613385565b925082612e0186826129f4565b95505050612d58565b80610665565b6000828201818312801590612e255750838112155b80612e3a5750600083128015612e3a57508381125b6108b95760405162461bcd60e51b81526004018080602001828103825260218152602001806139d86021913960400191505060405180910390fd5b3b151590565b6000808211612ed1576040805162461bcd60e51b815260206004820152601860248201527f536166654d6174683a206d6f64756c6f206279207a65726f0000000000000000604482015290519081900360640190fd5b818381612eda57fe5b069392505050565b600082815260208490526040902054612efb9082612f0e565b6000928352602093909352506040902055565b6000818303818312801590612f235750838113155b80612f385750600083128015612f3857508381135b6108b95760405162461bcd60e51b8152600401808060200182810382526024815260200180613a686024913960400191505060405180910390fd5b600082815260208490526040902054612efb9082612e10565b600060208284031215612f9d578081fd5b81356108b98161399c565b600080600080600060a08688031215612fbf578081fd5b8535612fca8161399c565b94506020860135612fda8161399c565b94979496505050506040830135926060810135926080909101359150565b6000806040838503121561300a578182fd5b82356130158161399c565b946020939093013593505050565b60008060008060008060c0878903121561303b578081fd5b86356130468161399c565b95506020870135945060408701359350606087013560ff81168114613069578182fd5b9598949750929560808101359460a0909101359350915050565b60006020808385031215613095578182fd5b823567ffffffffffffffff808211156130ac578384fd5b818501915085601f8301126130bf578384fd5b8135818111156130cb57fe5b838102604051858282010181811085821117156130e457fe5b604052828152858101935084860182860187018a1015613102578788fd5b8795505b83861015613124578035855260019590950194938601938601613106565b5098975050505050505050565b600060208284031215613142578081fd5b815180151581146108b9578182fd5b60008060008060808587031215613166578384fd5b84356131718161399c565b966020860135965060408601359560600135945092505050565b60006020828403121561319c578081fd5b5035919050565b600080604083850312156131b5578182fd5b8235915060208301356131c78161399c565b809150509250929050565b600080600080600060a086880312156131e9578081fd5b853594506020860135612fda8161399c565b60008060006060848603121561320f578283fd5b505081359360208301359350604090920135919050565b8051825260208082015190830152604090810151910152565b6001600160a01b0391909116815260200190565b6001600160a01b039384168152919092166020820152604081019190915260600190565b6001600160a01b03929092168252602082015260400190565b6001600160a01b0392831681529116602082015260400190565b6020808252825182820181905260009190848201906040850190845b81811015612231578351835292840192918401916001016132c6565b901515815260200190565b918252602082015260400190565b6000602080835283518082850152825b818110156133275785810183015185820160400152820161330b565b818111156133385783604083870101525b50601f01601f1916929092016040019392505050565b6020808252601a908201527f6e657720736c6f706520706572696f64203e2032207965617273000000000000604082015260600190565b60208082526025908201527f736c6f7065203c20302c20736f6d657468696e672077726f6e67207769746820604082015264736c6f706560d81b606082015260800190565b6020808252600b908201526a1e995c9bc8185b5bdd5b9d60aa1b604082015260600190565b60208082526018908201527f63616c6c6572206e6f742061207374616b65206f776e65720000000000000000604082015260600190565b60208082526023908201527f62696173203c20302c20736f6d657468696e672077726f6e672077697468206260408201526269617360e81b606082015260800190565b6020808252600f908201526e1b9bdd081a5b5c1b195b595b9d1959608a1b604082015260600190565b6020808252600d908201526c636c69666620746f6f2062696760981b604082015260600190565b60208082526019908201527f64657465637420637574206465706f73697420636f726e657200000000000000604082015260600190565b6020808252601a908201527f6e657720636c69666620706572696f64203e2032207965617273000000000000604082015260600190565b60208082526023908201527f636c69666620706572696f64203c206d696e696d616c207374616b65207065726040820152621a5bd960ea1b606082015260800190565b6020808252601f908201527f52656d6f76696e67204c696e652c207768696368206e6f742065786973747300604082015260600190565b6020808252600b908201526a1b9bdd081cdd1bdc1c195960aa1b604082015260600190565b6020808252601a908201527f77726f6e67206e65775374617274696e67506f696e745765656b000000000000604082015260600190565b60208082526023908201527f4c696e65207769746820676976656e20696420697320616c72656164792065786040820152621a5cdd60ea1b606082015260800190565b6020808252600990820152686d6967726174696e6760b81b604082015260600190565b6020808252601f908201527f6e6577206c696e6520706572696f64207374616b6520746f6f2073686f727400604082015260600190565b60208082526028908201527f536c6f7065203d3d20302c20756e61636365707461626c652076616c756520666040820152676f7220736c6f706560c01b606082015260800190565b6020808252602f908201527f496d706f737369626c6520746f2072657374616b653a206c65737320616d6f7560408201526e6e742c207468656e206e6f7720697360881b606082015260800190565b6020808252600e908201526d706572696f6420746f6f2062696760901b604082015260600190565b602080825260149082015273756e657870656374656420706173742074696d6560601b604082015260600190565b6020808252602a908201527f536c6f7065203e20626961732c20756e61636365707461626c652076616c756560408201526920666f7220736c6f706560b01b606082015260800190565b60208082526025908201527f63616e2774207570646174652042726f6b656e4c696e6520666f7220706173746040820152642074696d6560d81b606082015260800190565b6020808252600d908201526c736c6f706520746f6f2062696760981b604082015260600190565b602080825260139082015272189b1bd8dac81b9bdd081e595d081b5a5b9959606a1b604082015260600190565b6020808252600f908201526e1d1c985b9cd9995c8819985a5b1959608a1b604082015260600190565b6020808252600790820152661cdd1bdc1c195960ca1b604082015260600190565b60208082526023908201527f736c6f706520706572696f64203c206d696e696d616c207374616b65207065726040820152621a5bd960ea1b606082015260800190565b606081016107418284613226565b90815260200190565b600060e082019050858252613927602083018651613226565b6020949094015160808201526001600160a01b0392831660a0820152911660c090910152919050565b93845260208401929092526040830152606082015260800190565b948552602085019390935260408401919091526060830152608082015260a00190565b60ff91909116815260200190565b6001600160a01b038116811461167b57600080fdfe4f776e61626c653a206e6577206f776e657220697320746865207a65726f20616464726573735369676e6564536166654d6174683a206164646974696f6e206f766572666c6f77496e697469616c697a61626c653a20636f6e747261637420697320616c726561647920696e697469616c697a6564536166654d6174683a206d756c7469706c69636174696f6e206f766572666c6f774f776e61626c653a2063616c6c6572206973206e6f7420746865206f776e65725369676e6564536166654d6174683a207375627472616374696f6e206f766572666c6f77dec2bacdd2f05b59de34da9b523dff8be42e5e38e818c82fdb0bae774387a724a26469706673582212201671fb03203047af55c93956eef5592f4bc1843d63dccb8e91b649b8e91005f164736f6c63430007060033",
  "immutableReferences": {},
  "source": "// SPDX-License-Identifier: MIT\n\npragma solidity 0.7.6;\npragma abicoder v2;\n\nimport \"./INextVersionStake.sol\";\nimport \"./StakingBase.sol\";\nimport \"./StakingRestake.sol\";\nimport \"./StakingVotes.sol\";\n\ncontract Staking is StakingBase, StakingRestake, StakingVotes {\n    using SafeMathUpgradeable for uint;\n    using LibBrokenLine for LibBrokenLine.BrokenLine;\n\n    function __Staking_init(IERC20Upgradeable _token, uint _startingPointWeek, uint _minCliffPeriod, uint _minSlopePeriod) external initializer {\n        __StakingBase_init_unchained(_token, _startingPointWeek, _minCliffPeriod, _minSlopePeriod);\n        __Ownable_init_unchained();\n        __Context_init_unchained();\n    }\n\n    function stop() external onlyOwner notStopped {\n        stopped = true;\n        emit StopStaking(msg.sender);\n    }\n\n    function start() external onlyOwner isStopped {\n        stopped = false;\n        emit StartStaking(msg.sender);\n    }\n\n    function startMigration(address to) external onlyOwner {\n        migrateTo = to;\n        emit StartMigration(msg.sender, to);\n    }\n\n    function stake(address account, address _delegate, uint amount, uint slope, uint cliff) external notStopped notMigrating returns (uint) {\n        uint slopePeriod = divUp(amount, slope);\n        require(amount > 0, \"zero amount\");\n        require(cliff <= MAX_CLIFF_PERIOD, \"cliff too big\");\n        require(slopePeriod <= MAX_SLOPE_PERIOD, \"period too big\");\n        require(token.transferFrom(msg.sender, address(this), amount), \"transfer failed\");\n\n        counter++;\n\n        uint time = roundTimestamp(getBlockNumber());\n        addLines(account, _delegate, amount, slope, cliff, time);\n        accounts[account].amount = accounts[account].amount.add(amount);\n        emit StakeCreate(counter, account, _delegate, time, amount, slopePeriod, cliff);\n\n        // IVotesUpgradeable events\n        emit DelegateChanged(account, address(0), _delegate);\n        emit DelegateVotesChanged(_delegate, 0, accounts[_delegate].balance.actualValue(time));\n        return counter;\n    }\n\n    function withdraw() external {\n        uint value = getAvailableForWithdraw(msg.sender);\n        if (value > 0) {\n            accounts[msg.sender].amount = accounts[msg.sender].amount.sub(value);\n            require(token.transfer(msg.sender, value), \"transfer failed\");\n        }\n        emit Withdraw(msg.sender, value);\n    }\n\n    // Amount available for withdrawal\n    function getAvailableForWithdraw(address account) public view returns (uint value) {\n        value = accounts[account].amount;\n        if (!stopped) {\n            uint time = roundTimestamp(getBlockNumber());\n            uint bias = accounts[account].locked.actualValue(time);\n            value = value.sub(bias);\n        }\n    }\n\n    //Remaining locked amount\n    function locked(address account) external view returns (uint) {\n        return accounts[account].amount;\n    }\n\n    //For a given Line id, the owner and delegate addresses.\n    function getAccountAndDelegate(uint id) external view returns (address account, address delegate) {\n        account = stakes[id].account;\n        delegate = stakes[id].delegate;\n    }\n\n    //Getting \"current week\" of the contract.\n    function getWeek() external view returns (uint) {\n        return roundTimestamp(getBlockNumber());\n    }\n\n    function delegateTo(uint id, address newDelegate) external notStopped notMigrating {\n        address account = verifyStakeOwner(id);\n        address _delegate = stakes[id].delegate;\n        uint time = roundTimestamp(getBlockNumber());\n        accounts[_delegate].balance.update(time);\n        (uint bias, uint slope, uint cliff) = accounts[_delegate].balance.remove(id, time);\n        LibBrokenLine.Line memory line = LibBrokenLine.Line(time, bias, slope);\n        accounts[newDelegate].balance.update(time);\n        accounts[newDelegate].balance.add(id, line, cliff);\n        stakes[id].delegate = newDelegate;\n        emit Delegate(id, account, newDelegate, time);\n\n        // IVotesUpgradeable events\n        emit DelegateChanged(account, _delegate, newDelegate);\n        emit DelegateVotesChanged(_delegate, 0, accounts[_delegate].balance.actualValue(time));\n        emit DelegateVotesChanged(newDelegate, 0, accounts[newDelegate].balance.actualValue(time));\n    }\n\n    function totalSupply() external view returns (uint) {\n        if ((totalSupplyLine.initial.bias == 0) || (stopped)) {\n            return 0;\n        }\n        uint time = roundTimestamp(getBlockNumber());\n        return totalSupplyLine.actualValue(time);\n    }\n\n    function balanceOf(address account) external view returns (uint) {\n        if ((accounts[account].balance.initial.bias == 0) || (stopped)) {\n            return 0;\n        }\n        uint time = roundTimestamp(getBlockNumber());\n        return accounts[account].balance.actualValue(time);\n    }\n\n    function migrate(uint[] memory id) external {\n        if (migrateTo == address(0)) {\n            return;\n        }\n        uint time = roundTimestamp(getBlockNumber());\n        INextVersionStake nextVersionStake = INextVersionStake(migrateTo);\n        for (uint256 i = 0; i < id.length; i++) {\n            address account = verifyStakeOwner(id[i]);\n            address _delegate = stakes[id[i]].delegate;\n            updateLines(account, _delegate, time);\n            //save data Line before remove\n            LibBrokenLine.LineData memory lineData = accounts[account].locked.initiatedLines[id[i]];\n            (uint residue,,) = accounts[account].locked.remove(id[i], time);\n\n            require(token.transfer(migrateTo, residue), \"transfer failed\");\n            accounts[account].amount = accounts[account].amount.sub(residue);\n\n            accounts[_delegate].balance.remove(id[i], time);\n            totalSupplyLine.remove(id[i], time);\n            nextVersionStake.initiateData(id[i], lineData, account, _delegate);\n        }\n        emit Migrate(msg.sender, id);\n    }\n\n    function name() public view virtual returns (string memory) {\n        return \"Rarible Vote-Escrow\";\n    }\n\n    function symbol() public view virtual returns (string memory) {\n        return \"veRARI\";\n    }\n\n    function decimals() public view virtual returns (uint8) {\n        return 18;\n    }\n\n    uint256[50] private __gap;\n}",
  "sourcePath": "@rarible/staking/contracts/Staking.sol",
  "compiler": {
    "name": "solc",
    "version": "0.7.6+commit.7338295f.Emscripten.clang"
  },
  "schemaVersion": "3.4.5",
  "updatedAt": "2022-10-10T17:08:36.906Z",
  "networkType": "ethereum",
  "devdoc": {
    "kind": "dev",
    "methods": {
      "delegate(address)": {
        "details": "Delegates votes from the sender to `delegatee`."
      },
      "delegateBySig(address,uint256,uint256,uint8,bytes32,bytes32)": {
        "details": "Delegates votes from signer to `delegatee`."
      },
      "delegates(address)": {
        "details": "Returns the delegate that `account` has chosen."
      },
      "getPastTotalSupply(uint256)": {
        "details": "Returns the total supply of votes available  at the end of the last period"
      },
      "getPastVotes(address,uint256)": {
        "details": "Returns the amount of votes that `account` had at the end of the last period"
      },
      "getVotes(address)": {
        "details": "Returns the current amount of votes that `account` has."
      },
      "owner()": {
        "details": "Returns the address of the current owner."
      },
      "renounceOwnership()": {
        "details": "Leaves the contract without owner. It will not be possible to call `onlyOwner` functions anymore. Can only be called by the current owner. NOTE: Renouncing ownership will leave the contract without an owner, thereby removing any functionality that is only available to the owner."
      },
      "transferOwnership(address)": {
        "details": "Transfers ownership of the contract to a new account (`newOwner`). Can only be called by the current owner."
      }
    },
    "version": 1
  },
  "userdoc": {
    "kind": "user",
    "methods": {
      "getStake(uint256,uint256,uint256)": {
        "notice": "alculate and return (newAmount, newSlope), using formula: staking = (tokens * (      ST_FORMULA_CONST_MULTIPLIER      + ST_FORMULA_CLIFF_MULTIPLIER * (cliffPeriod - minCliffPeriod))/(MAX_CLIFF_PERIOD - minCliffPeriod)      + ST_FORMULA_SLOPE_MULTIPLIER * (slopePeriod - minSlopePeriod))/(MAX_SLOPE_PERIOD - minSlopePeriod)      )) / ST_FORMULA_DIVIDER*"
      }
    },
    "version": 1
  }
}