{
  "contractName": "Staking",
  "abi": [
    {
      "anonymous": false,
      "inputs": [
        {
          "indexed": true,
          "internalType": "uint256",
          "name": "id",
          "type": "uint256"
        },
        {
          "indexed": true,
          "internalType": "address",
          "name": "account",
          "type": "address"
        },
        {
          "indexed": true,
          "internalType": "address",
          "name": "delegate",
          "type": "address"
        },
        {
          "indexed": false,
          "internalType": "uint256",
          "name": "time",
          "type": "uint256"
        }
      ],
      "name": "Delegate",
      "type": "event"
    },
    {
      "anonymous": false,
      "inputs": [
        {
          "indexed": true,
          "internalType": "address",
          "name": "delegator",
          "type": "address"
        },
        {
          "indexed": true,
          "internalType": "address",
          "name": "fromDelegate",
          "type": "address"
        },
        {
          "indexed": true,
          "internalType": "address",
          "name": "toDelegate",
          "type": "address"
        }
      ],
      "name": "DelegateChanged",
      "type": "event"
    },
    {
      "anonymous": false,
      "inputs": [
        {
          "indexed": true,
          "internalType": "address",
          "name": "delegate",
          "type": "address"
        },
        {
          "indexed": false,
          "internalType": "uint256",
          "name": "previousBalance",
          "type": "uint256"
        },
        {
          "indexed": false,
          "internalType": "uint256",
          "name": "newBalance",
          "type": "uint256"
        }
      ],
      "name": "DelegateVotesChanged",
      "type": "event"
    },
    {
      "anonymous": false,
      "inputs": [
        {
          "indexed": true,
          "internalType": "address",
          "name": "account",
          "type": "address"
        },
        {
          "indexed": false,
          "internalType": "uint256[]",
          "name": "id",
          "type": "uint256[]"
        }
      ],
      "name": "Migrate",
      "type": "event"
    },
    {
      "anonymous": false,
      "inputs": [
        {
          "indexed": true,
          "internalType": "address",
          "name": "previousOwner",
          "type": "address"
        },
        {
          "indexed": true,
          "internalType": "address",
          "name": "newOwner",
          "type": "address"
        }
      ],
      "name": "OwnershipTransferred",
      "type": "event"
    },
    {
      "anonymous": false,
      "inputs": [
        {
          "indexed": true,
          "internalType": "uint256",
          "name": "id",
          "type": "uint256"
        },
        {
          "indexed": true,
          "internalType": "address",
          "name": "account",
          "type": "address"
        },
        {
          "indexed": true,
          "internalType": "address",
          "name": "delegate",
          "type": "address"
        },
        {
          "indexed": false,
          "internalType": "uint256",
          "name": "counter",
          "type": "uint256"
        },
        {
          "indexed": false,
          "internalType": "uint256",
          "name": "time",
          "type": "uint256"
        },
        {
          "indexed": false,
          "internalType": "uint256",
          "name": "amount",
          "type": "uint256"
        },
        {
          "indexed": false,
          "internalType": "uint256",
          "name": "slopePeriod",
          "type": "uint256"
        },
        {
          "indexed": false,
          "internalType": "uint256",
          "name": "cliff",
          "type": "uint256"
        }
      ],
      "name": "Restake",
      "type": "event"
    },
    {
      "anonymous": false,
      "inputs": [
        {
          "indexed": true,
          "internalType": "uint256",
          "name": "newMinCliffPeriod",
          "type": "uint256"
        }
      ],
      "name": "SetMinCliffPeriod",
      "type": "event"
    },
    {
      "anonymous": false,
      "inputs": [
        {
          "indexed": true,
          "internalType": "uint256",
          "name": "newMinSlopePeriod",
          "type": "uint256"
        }
      ],
      "name": "SetMinSlopePeriod",
      "type": "event"
    },
    {
      "anonymous": false,
      "inputs": [
        {
          "indexed": true,
          "internalType": "uint256",
          "name": "newStartingPointWeek",
          "type": "uint256"
        }
      ],
      "name": "SetStartingPointWeek",
      "type": "event"
    },
    {
      "anonymous": false,
      "inputs": [
        {
          "indexed": true,
          "internalType": "uint256",
          "name": "id",
          "type": "uint256"
        },
        {
          "indexed": true,
          "internalType": "address",
          "name": "account",
          "type": "address"
        },
        {
          "indexed": true,
          "internalType": "address",
          "name": "delegate",
          "type": "address"
        },
        {
          "indexed": false,
          "internalType": "uint256",
          "name": "time",
          "type": "uint256"
        },
        {
          "indexed": false,
          "internalType": "uint256",
          "name": "amount",
          "type": "uint256"
        },
        {
          "indexed": false,
          "internalType": "uint256",
          "name": "slopePeriod",
          "type": "uint256"
        },
        {
          "indexed": false,
          "internalType": "uint256",
          "name": "cliff",
          "type": "uint256"
        }
      ],
      "name": "StakeCreate",
      "type": "event"
    },
    {
      "anonymous": false,
      "inputs": [
        {
          "indexed": true,
          "internalType": "address",
          "name": "account",
          "type": "address"
        },
        {
          "indexed": true,
          "internalType": "address",
          "name": "to",
          "type": "address"
        }
      ],
      "name": "StartMigration",
      "type": "event"
    },
    {
      "anonymous": false,
      "inputs": [
        {
          "indexed": true,
          "internalType": "address",
          "name": "account",
          "type": "address"
        }
      ],
      "name": "StartStaking",
      "type": "event"
    },
    {
      "anonymous": false,
      "inputs": [
        {
          "indexed": true,
          "internalType": "address",
          "name": "account",
          "type": "address"
        }
      ],
      "name": "StopStaking",
      "type": "event"
    },
    {
      "anonymous": false,
      "inputs": [
        {
          "indexed": true,
          "internalType": "address",
          "name": "account",
          "type": "address"
        },
        {
          "indexed": false,
          "internalType": "uint256",
          "name": "amount",
          "type": "uint256"
        }
      ],
      "name": "Withdraw",
      "type": "event"
    },
    {
      "inputs": [],
      "name": "WEEK",
      "outputs": [
        {
          "internalType": "uint256",
          "name": "",
          "type": "uint256"
        }
      ],
      "stateMutability": "view",
      "type": "function"
    },
    {
      "inputs": [],
      "name": "counter",
      "outputs": [
        {
          "internalType": "uint256",
          "name": "",
          "type": "uint256"
        }
      ],
      "stateMutability": "view",
      "type": "function"
    },
    {
      "inputs": [
        {
          "internalType": "address",
          "name": "delegatee",
          "type": "address"
        }
      ],
      "name": "delegate",
      "outputs": [],
      "stateMutability": "nonpayable",
      "type": "function"
    },
    {
      "inputs": [
        {
          "internalType": "address",
          "name": "delegatee",
          "type": "address"
        },
        {
          "internalType": "uint256",
          "name": "nonce",
          "type": "uint256"
        },
        {
          "internalType": "uint256",
          "name": "expiry",
          "type": "uint256"
        },
        {
          "internalType": "uint8",
          "name": "v",
          "type": "uint8"
        },
        {
          "internalType": "bytes32",
          "name": "r",
          "type": "bytes32"
        },
        {
          "internalType": "bytes32",
          "name": "s",
          "type": "bytes32"
        }
      ],
      "name": "delegateBySig",
      "outputs": [],
      "stateMutability": "nonpayable",
      "type": "function"
    },
    {
      "inputs": [
        {
          "internalType": "address",
          "name": "account",
          "type": "address"
        }
      ],
      "name": "delegates",
      "outputs": [
        {
          "internalType": "address",
          "name": "",
          "type": "address"
        }
      ],
      "stateMutability": "view",
      "type": "function"
    },
    {
      "inputs": [
        {
          "internalType": "uint256",
          "name": "blockNumber",
          "type": "uint256"
        }
      ],
      "name": "getPastTotalSupply",
      "outputs": [
        {
          "internalType": "uint256",
          "name": "",
          "type": "uint256"
        }
      ],
      "stateMutability": "view",
      "type": "function"
    },
    {
      "inputs": [
        {
          "internalType": "address",
          "name": "account",
          "type": "address"
        },
        {
          "internalType": "uint256",
          "name": "blockNumber",
          "type": "uint256"
        }
      ],
      "name": "getPastVotes",
      "outputs": [
        {
          "internalType": "uint256",
          "name": "",
          "type": "uint256"
        }
      ],
      "stateMutability": "view",
      "type": "function"
    },
    {
      "inputs": [
        {
          "internalType": "uint256",
          "name": "amount",
          "type": "uint256"
        },
        {
          "internalType": "uint256",
          "name": "slopePeriod",
          "type": "uint256"
        },
        {
          "internalType": "uint256",
          "name": "cliff",
          "type": "uint256"
        }
      ],
      "name": "getStake",
      "outputs": [
        {
          "internalType": "uint256",
          "name": "stakeAmount",
          "type": "uint256"
        },
        {
          "internalType": "uint256",
          "name": "stakeSlope",
          "type": "uint256"
        }
      ],
      "stateMutability": "view",
      "type": "function"
    },
    {
      "inputs": [
        {
          "internalType": "address",
          "name": "account",
          "type": "address"
        }
      ],
      "name": "getVotes",
      "outputs": [
        {
          "internalType": "uint256",
          "name": "",
          "type": "uint256"
        }
      ],
      "stateMutability": "view",
      "type": "function"
    },
    {
      "inputs": [],
      "name": "migrateTo",
      "outputs": [
        {
          "internalType": "address",
          "name": "",
          "type": "address"
        }
      ],
      "stateMutability": "view",
      "type": "function"
    },
    {
      "inputs": [],
      "name": "minCliffPeriod",
      "outputs": [
        {
          "internalType": "uint256",
          "name": "",
          "type": "uint256"
        }
      ],
      "stateMutability": "view",
      "type": "function"
    },
    {
      "inputs": [],
      "name": "minSlopePeriod",
      "outputs": [
        {
          "internalType": "uint256",
          "name": "",
          "type": "uint256"
        }
      ],
      "stateMutability": "view",
      "type": "function"
    },
    {
      "inputs": [],
      "name": "owner",
      "outputs": [
        {
          "internalType": "address",
          "name": "",
          "type": "address"
        }
      ],
      "stateMutability": "view",
      "type": "function"
    },
    {
      "inputs": [],
      "name": "renounceOwnership",
      "outputs": [],
      "stateMutability": "nonpayable",
      "type": "function"
    },
    {
      "inputs": [
        {
          "internalType": "uint256",
          "name": "id",
          "type": "uint256"
        },
        {
          "internalType": "address",
          "name": "newDelegate",
          "type": "address"
        },
        {
          "internalType": "uint256",
          "name": "newAmount",
          "type": "uint256"
        },
        {
          "internalType": "uint256",
          "name": "newSlopePeriod",
          "type": "uint256"
        },
        {
          "internalType": "uint256",
          "name": "newCliff",
          "type": "uint256"
        }
      ],
      "name": "restake",
      "outputs": [
        {
          "internalType": "uint256",
          "name": "",
          "type": "uint256"
        }
      ],
      "stateMutability": "nonpayable",
      "type": "function"
    },
    {
      "inputs": [
        {
          "internalType": "uint256",
          "name": "ts",
          "type": "uint256"
        }
      ],
      "name": "roundTimestamp",
      "outputs": [
        {
          "internalType": "uint256",
          "name": "",
          "type": "uint256"
        }
      ],
      "stateMutability": "view",
      "type": "function"
    },
    {
      "inputs": [
        {
          "internalType": "uint256",
          "name": "newMinCliffPeriod",
          "type": "uint256"
        }
      ],
      "name": "setMinCliffPeriod",
      "outputs": [],
      "stateMutability": "nonpayable",
      "type": "function"
    },
    {
      "inputs": [
        {
          "internalType": "uint256",
          "name": "newMinSlopePeriod",
          "type": "uint256"
        }
      ],
      "name": "setMinSlopePeriod",
      "outputs": [],
      "stateMutability": "nonpayable",
      "type": "function"
    },
    {
      "inputs": [
        {
          "internalType": "uint256",
          "name": "newStartingPointWeek",
          "type": "uint256"
        }
      ],
      "name": "setStartingPointWeek",
      "outputs": [],
      "stateMutability": "nonpayable",
      "type": "function"
    },
    {
      "inputs": [],
      "name": "startingPointWeek",
      "outputs": [
        {
          "internalType": "uint256",
          "name": "",
          "type": "uint256"
        }
      ],
      "stateMutability": "view",
      "type": "function"
    },
    {
      "inputs": [],
      "name": "stopped",
      "outputs": [
        {
          "internalType": "bool",
          "name": "",
          "type": "bool"
        }
      ],
      "stateMutability": "view",
      "type": "function"
    },
    {
      "inputs": [],
      "name": "token",
      "outputs": [
        {
          "internalType": "contract IERC20Upgradeable",
          "name": "",
          "type": "address"
        }
      ],
      "stateMutability": "view",
      "type": "function"
    },
    {
      "inputs": [],
      "name": "totalSupplyLine",
      "outputs": [
        {
          "components": [
            {
              "internalType": "uint256",
              "name": "start",
              "type": "uint256"
            },
            {
              "internalType": "uint256",
              "name": "bias",
              "type": "uint256"
            },
            {
              "internalType": "uint256",
              "name": "slope",
              "type": "uint256"
            }
          ],
          "internalType": "struct LibBrokenLine.Line",
          "name": "initial",
          "type": "tuple"
        }
      ],
      "stateMutability": "view",
      "type": "function"
    },
    {
      "inputs": [
        {
          "internalType": "address",
          "name": "newOwner",
          "type": "address"
        }
      ],
      "name": "transferOwnership",
      "outputs": [],
      "stateMutability": "nonpayable",
      "type": "function"
    },
    {
      "inputs": [
        {
          "internalType": "address",
          "name": "account",
          "type": "address"
        },
        {
          "internalType": "uint256",
          "name": "time",
          "type": "uint256"
        }
      ],
      "name": "updateAccountLines",
      "outputs": [],
      "stateMutability": "nonpayable",
      "type": "function"
    },
    {
      "inputs": [
        {
          "internalType": "address",
          "name": "account",
          "type": "address"
        },
        {
          "internalType": "uint256",
          "name": "blockNumber",
          "type": "uint256"
        }
      ],
      "name": "updateAccountLinesBlockNumber",
      "outputs": [],
      "stateMutability": "nonpayable",
      "type": "function"
    },
    {
      "inputs": [
        {
          "internalType": "uint256",
          "name": "time",
          "type": "uint256"
        }
      ],
      "name": "updateTotalSupplyLine",
      "outputs": [],
      "stateMutability": "nonpayable",
      "type": "function"
    },
    {
      "inputs": [
        {
          "internalType": "uint256",
          "name": "blockNumber",
          "type": "uint256"
        }
      ],
      "name": "updateTotalSupplyLineBlockNumber",
      "outputs": [],
      "stateMutability": "nonpayable",
      "type": "function"
    },
    {
      "inputs": [
        {
          "internalType": "contract IERC20Upgradeable",
          "name": "_token",
          "type": "address"
        },
        {
          "internalType": "uint256",
          "name": "_startingPointWeek",
          "type": "uint256"
        },
        {
          "internalType": "uint256",
          "name": "_minCliffPeriod",
          "type": "uint256"
        },
        {
          "internalType": "uint256",
          "name": "_minSlopePeriod",
          "type": "uint256"
        }
      ],
      "name": "__Staking_init",
      "outputs": [],
      "stateMutability": "nonpayable",
      "type": "function"
    },
    {
      "inputs": [],
      "name": "stop",
      "outputs": [],
      "stateMutability": "nonpayable",
      "type": "function"
    },
    {
      "inputs": [],
      "name": "start",
      "outputs": [],
      "stateMutability": "nonpayable",
      "type": "function"
    },
    {
      "inputs": [
        {
          "internalType": "address",
          "name": "to",
          "type": "address"
        }
      ],
      "name": "startMigration",
      "outputs": [],
      "stateMutability": "nonpayable",
      "type": "function"
    },
    {
      "inputs": [
        {
          "internalType": "address",
          "name": "account",
          "type": "address"
        },
        {
          "internalType": "address",
          "name": "_delegate",
          "type": "address"
        },
        {
          "internalType": "uint256",
          "name": "amount",
          "type": "uint256"
        },
        {
          "internalType": "uint256",
          "name": "slopePeriod",
          "type": "uint256"
        },
        {
          "internalType": "uint256",
          "name": "cliff",
          "type": "uint256"
        }
      ],
      "name": "stake",
      "outputs": [
        {
          "internalType": "uint256",
          "name": "",
          "type": "uint256"
        }
      ],
      "stateMutability": "nonpayable",
      "type": "function"
    },
    {
      "inputs": [],
      "name": "withdraw",
      "outputs": [],
      "stateMutability": "nonpayable",
      "type": "function"
    },
    {
      "inputs": [
        {
          "internalType": "address",
          "name": "account",
          "type": "address"
        }
      ],
      "name": "getAvailableForWithdraw",
      "outputs": [
        {
          "internalType": "uint256",
          "name": "value",
          "type": "uint256"
        }
      ],
      "stateMutability": "view",
      "type": "function"
    },
    {
      "inputs": [
        {
          "internalType": "address",
          "name": "account",
          "type": "address"
        }
      ],
      "name": "locked",
      "outputs": [
        {
          "internalType": "uint256",
          "name": "",
          "type": "uint256"
        }
      ],
      "stateMutability": "view",
      "type": "function"
    },
    {
      "inputs": [
        {
          "internalType": "uint256",
          "name": "id",
          "type": "uint256"
        }
      ],
      "name": "getAccountAndDelegate",
      "outputs": [
        {
          "internalType": "address",
          "name": "account",
          "type": "address"
        },
        {
          "internalType": "address",
          "name": "delegate",
          "type": "address"
        }
      ],
      "stateMutability": "view",
      "type": "function"
    },
    {
      "inputs": [],
      "name": "getWeek",
      "outputs": [
        {
          "internalType": "uint256",
          "name": "",
          "type": "uint256"
        }
      ],
      "stateMutability": "view",
      "type": "function"
    },
    {
      "inputs": [
        {
          "internalType": "uint256",
          "name": "id",
          "type": "uint256"
        },
        {
          "internalType": "address",
          "name": "newDelegate",
          "type": "address"
        }
      ],
      "name": "delegateTo",
      "outputs": [],
      "stateMutability": "nonpayable",
      "type": "function"
    },
    {
      "inputs": [],
      "name": "totalSupply",
      "outputs": [
        {
          "internalType": "uint256",
          "name": "",
          "type": "uint256"
        }
      ],
      "stateMutability": "view",
      "type": "function"
    },
    {
      "inputs": [
        {
          "internalType": "address",
          "name": "account",
          "type": "address"
        }
      ],
      "name": "balanceOf",
      "outputs": [
        {
          "internalType": "uint256",
          "name": "",
          "type": "uint256"
        }
      ],
      "stateMutability": "view",
      "type": "function"
    },
    {
      "inputs": [
        {
          "internalType": "uint256[]",
          "name": "id",
          "type": "uint256[]"
        }
      ],
      "name": "migrate",
      "outputs": [],
      "stateMutability": "nonpayable",
      "type": "function"
    },
    {
      "inputs": [],
      "name": "name",
      "outputs": [
        {
          "internalType": "string",
          "name": "",
          "type": "string"
        }
      ],
      "stateMutability": "view",
      "type": "function"
    },
    {
      "inputs": [],
      "name": "symbol",
      "outputs": [
        {
          "internalType": "string",
          "name": "",
          "type": "string"
        }
      ],
      "stateMutability": "view",
      "type": "function"
    },
    {
      "inputs": [],
      "name": "decimals",
      "outputs": [
        {
          "internalType": "uint8",
          "name": "",
          "type": "uint8"
        }
      ],
      "stateMutability": "view",
      "type": "function"
    }
  ],
  "bytecode": "0x608060405234801561001057600080fd5b50613f46806100206000396000f3fe608060405234801561001057600080fd5b506004361061027f5760003560e01c80638e539e8c1161015c578063b6231633116100ce578063f108fa9311610087578063f108fa9314610510578063f2fde38b14610523578063f4359ce514610536578063fc0c546a1461053e578063fc7881c614610546578063fecf0fdd146105595761027f565b8063b6231633146104b9578063be9a6555146104c1578063c3cda520146104c9578063cbf9fe5f146104d7578063d93bf4fe146104ea578063ee12055f146104fd5761027f565b80639ab24eb0116101205780639ab24eb014610450578063a0f52da014610463578063a8edafbe14610476578063ac7ae58914610489578063acc9b64814610491578063b53546ab146104a45761027f565b80638e539e8c1461040757806392382d201461041a57806395d89b411461042d57806398c6e7601461043557806399eccf621461043d5761027f565b806361bc221a116101f5578063715018a6116101b9578063715018a6146103b457806375f12b21146103bc5780637fbffce7146103d1578063874d6d81146103e45780638cda5c14146103ec5780638da5cb5b146103ff5761027f565b806361bc221a1461036b57806362c4196d1461037357806367c8c473146103865780636bde67d81461038e57806370a08231146103a15761027f565b8063313ce56711610247578063313ce567146102f55780633a46b1a81461030a5780633ccfd60b1461031d57806346b9609714610325578063587cde1e146103385780635c19a95c146103585761027f565b806306fdde031461028457806307da68f5146102a25780630fc8deca146102ac57806315622e23146102cc57806318160ddd146102ed575b600080fd5b61028c61057a565b60405161029991906136f4565b60405180910390f35b6102aa6105a8565b005b6102bf6102ba366004613385565b610670565b6040516102999190613d6a565b6102df6102da366004613584565b6106e2565b604051610299929190613689565b6102bf610709565b6102fd61074a565b6040516102999190613df3565b6102bf6103183660046133f1565b61074f565b6102aa6107bf565b6102bf610333366004613584565b6108e8565b61034b610346366004613385565b610938565b6040516102999190613638565b6102aa610366366004613385565b610952565b6102bf61096a565b6102aa6103813660046133f1565b610970565b6102bf610a3f565b6102bf61039c3660046135cb565b610a45565b6102bf6103af366004613385565b610c8b565b6102aa610cf4565b6103c4610da0565b60405161029991906136db565b6102aa6103df366004613584565b610da9565b6102bf610e76565b6102aa6103fa36600461354a565b610e88565b61034b610f4a565b6102bf610415366004613584565b610f59565b6102aa610428366004613584565b610fa8565b61028c611069565b61034b611089565b6102aa61044b366004613584565b61109d565b6102bf61045e366004613385565b6111a3565b6102aa610471366004613385565b6111da565b6102aa610484366004613584565b611290565b6102bf61139f565b6102aa61049f366004613584565b6113a5565b6104ac6114ab565b6040516102999190613d5c565b6102bf6114cf565b6102aa6114d5565b6102aa61036636600461341c565b6102bf6104e5366004613385565b611590565b6102aa6104f836600461347c565b6115ae565b6102aa61050b3660046133f1565b611952565b6102bf61051e3660046133a1565b611a4c565b6102aa610531366004613385565b611ce9565b6102bf611dec565b61034b611df2565b6102aa61055436600461359c565b611e01565b61056c6105673660046135f4565b612093565b6040516102999291906136e6565b60408051808201909152601381527252617269626c6520566f74652d457363726f7760681b60208201525b90565b6105b0612177565b6001600160a01b03166105c1610f4a565b6001600160a01b03161461060a576040805162461bcd60e51b81526020600482018190526024820152600080516020613ead833981519152604482015290519081900360640190fd5b60675460ff16156106365760405162461bcd60e51b815260040161062d90613cf8565b60405180910390fd5b6067805460ff1916600117905560405133907f6bc4e1d7a91902d97533e9181b5ca4c1e8a90725e767a9b8cdbbcf901ba554fe90600090a2565b6001600160a01b0381166000908152606b60205260409020600c015460675460ff166106dd5760006106a361033361217b565b6001600160a01b0384166000908152606b60205260408120919250906106cc906006018361217f565b90506106d883826121f0565b925050505b919050565b6000908152606c6020526040902080546001909101546001600160a01b0391821692911690565b607154600090158061071d575060675460ff165b1561072a575060006105a5565b600061073761033361217b565b9050610744606d8261217f565b91505090565b601290565b60008061075b836108e8565b905061076561217b565b831080156107735750600081115b61078f5760405162461bcd60e51b815260040161062d90613ca2565b6001600160a01b0384166000908152606b602052604090206107b590600019830161217f565b9150505b92915050565b60006107ca33610670565b905080156108a457336000908152606b60205260409020600c01546107ef90826121f0565b336000818152606b602052604090819020600c0192909255606554915163a9059cbb60e01b81526001600160a01b039092169163a9059cbb91610836918590600401613670565b602060405180830381600087803b15801561085057600080fd5b505af1158015610864573d6000803e3d6000fd5b505050506040513d601f19601f82011682018060405250810190610888919061352a565b6108a45760405162461bcd60e51b815260040161062d90613ccf565b336001600160a01b03167f884edad9ce6fa2440d8a54cc123490eb96d2768479d49ff9c7366125a9424364826040516108dd9190613d6a565b60405180910390a250565b60006108f261224d565b821015610901575060006106dd565b600061091561090e61224d565b84906121f0565b606a549091506109319061092b8361c4e0612253565b906121f0565b9392505050565b600060405162461bcd60e51b815260040161062d90613899565b60405162461bcd60e51b815260040161062d90613899565b60665481565b60675460ff16156109935760405162461bcd60e51b815260040161062d90613cf8565b60675461010090046001600160a01b0316156109c15760405162461bcd60e51b815260040161062d90613a9e565b6109c9612177565b6001600160a01b03166109da610f4a565b6001600160a01b031614610a23576040805162461bcd60e51b81526020600482018190526024820152600080516020613ead833981519152604482015290519081900360640190fd5b6000610a2e826108e8565b9050610a3a8382611952565b505050565b60685481565b60675460009060ff1615610a6b5760405162461bcd60e51b815260040161062d90613cf8565b60675461010090046001600160a01b031615610a995760405162461bcd60e51b815260040161062d90613a9e565b6000610aa4876122ba565b90506000610ab361033361217b565b9050610ac38289888888866122f1565b6000888152606c60209081526040808320600101546001600160a01b038681168552606b9093529220911690610afc90600601836124cc565b6001600160a01b0383166000908152606b60205260409020600a0154610b32908a908590610b2c83838789612595565b8b61260b565b606680546001019055610b49838989898987612779565b876001600160a01b0316836001600160a01b03168a7fed21ca2fb4312d282540746b7f00899205aee2bd522dcbb837405aea6a92b52a606654868c8c8c604051610b97959493929190613dd0565b60405180910390a4876001600160a01b0316816001600160a01b0316846001600160a01b03167f3134e8a2e6d97e929a7e54011ea5485d7d196dd5f0ba4d4ef95803e8e3fc257f60405160405180910390a46001600160a01b0381166000818152606b60205260408120600080516020613ef18339815191529190610c1c908661217f565b604051610c2a9291906136e6565b60405180910390a26001600160a01b0388166000818152606b60205260408120600080516020613ef18339815191529190610c65908661217f565b604051610c739291906136e6565b60405180910390a25050606654979650505050505050565b6001600160a01b0381166000908152606b60205260408120600401541580610cb5575060675460ff165b15610cc2575060006106dd565b6000610ccf61033361217b565b6001600160a01b0384166000908152606b60205260409020909150610931908261217f565b610cfc612177565b6001600160a01b0316610d0d610f4a565b6001600160a01b031614610d56576040805162461bcd60e51b81526020600482018190526024820152600080516020613ead833981519152604482015290519081900360640190fd5b6033546040516000916001600160a01b0316907f8be0079c531659141344cd1fd0a4f28419497f9722a3daafe3b4186f6b6457e0908390a3603380546001600160a01b0319169055565b60675460ff1681565b60675460ff1615610dcc5760405162461bcd60e51b815260040161062d90613cf8565b60675461010090046001600160a01b031615610dfa5760405162461bcd60e51b815260040161062d90613a9e565b610e02612177565b6001600160a01b0316610e13610f4a565b6001600160a01b031614610e5c576040805162461bcd60e51b81526020600482018190526024820152600080516020613ead833981519152604482015290519081900360640190fd5b6000610e67826108e8565b9050610e7281610fa8565b5050565b6000610e8361033361217b565b905090565b600054610100900460ff1680610ea15750610ea16128b2565b80610eaf575060005460ff16155b610eea5760405162461bcd60e51b815260040180806020018281038252602e815260200180613e5e602e913960400191505060405180910390fd5b600054610100900460ff16158015610f15576000805460ff1961ff0019909116610100171660011790555b610f21858585856128c3565b610f29612992565b610f31612a8b565b8015610f43576000805461ff00191690555b5050505050565b6033546001600160a01b031690565b600080610f65836108e8565b9050610f6f61217b565b83108015610f7d5750600081115b610f995760405162461bcd60e51b815260040161062d90613ca2565b610931606d600019830161217f565b60675460ff1615610fcb5760405162461bcd60e51b815260040161062d90613cf8565b60675461010090046001600160a01b031615610ff95760405162461bcd60e51b815260040161062d90613a9e565b611001612177565b6001600160a01b0316611012610f4a565b6001600160a01b03161461105b576040805162461bcd60e51b81526020600482018190526024820152600080516020613ead833981519152604482015290519081900360640190fd5b611066606d826124cc565b50565b60408051808201909152600681526576655241524960d01b602082015290565b60675461010090046001600160a01b031681565b60675460ff16156110c05760405162461bcd60e51b815260040161062d90613cf8565b60675461010090046001600160a01b0316156110ee5760405162461bcd60e51b815260040161062d90613a9e565b6110f6612177565b6001600160a01b0316611107610f4a565b6001600160a01b031614611150576040805162461bcd60e51b81526020600482018190526024820152600080516020613ead833981519152604482015290519081900360640190fd5b606881106111705760405162461bcd60e51b815260040161062d90613747565b606981905560405181907f88345dd2cdc36a4778bf7fed510015cf81efda1a773e1b6360fde7cb1631b21090600090a250565b6000806111b161033361217b565b6001600160a01b0384166000908152606b6020526040902090915061093190600019830161217f565b6111e2612177565b6001600160a01b03166111f3610f4a565b6001600160a01b03161461123c576040805162461bcd60e51b81526020600482018190526024820152600080516020613ead833981519152604482015290519081900360640190fd5b60678054610100600160a81b0319166101006001600160a01b0384169081029190911790915560405133907f51ace7fc4e2a9f6104449d0bbe0532efdfd8dfebc68b225b91dd1de3bbb804fd90600090a350565b60675460ff16156112b35760405162461bcd60e51b815260040161062d90613cf8565b60675461010090046001600160a01b0316156112e15760405162461bcd60e51b815260040161062d90613a9e565b6112e9612177565b6001600160a01b03166112fa610f4a565b6001600160a01b031614611343576040805162461bcd60e51b81526020600482018190526024820152600080516020613ead833981519152604482015290519081900360640190fd5b61134e61033361217b565b811061136c5760405162461bcd60e51b815260040161062d90613a24565b606a81905560405181907f2f807974bc9b84320f39300f6395b257c58bb285c61d262ec17c8332772d683690600090a250565b606a5481565b60675460ff16156113c85760405162461bcd60e51b815260040161062d90613cf8565b60675461010090046001600160a01b0316156113f65760405162461bcd60e51b815260040161062d90613a9e565b6113fe612177565b6001600160a01b031661140f610f4a565b6001600160a01b031614611458576040805162461bcd60e51b81526020600482018190526024820152600080516020613ead833981519152604482015290519081900360640190fd5b606781106114785760405162461bcd60e51b815260040161062d9061394e565b606881905560405181907fa21222d0eed205eed6a46ed1fe7faf1d0b5d097b9e04a6d4e59b7f1debfc8b2b90600090a250565b60408051606081018252607054815260715460208201526072549181019190915281565b60695481565b6114dd612177565b6001600160a01b03166114ee610f4a565b6001600160a01b031614611537576040805162461bcd60e51b81526020600482018190526024820152600080516020613ead833981519152604482015290519081900360640190fd5b60675460ff166115595760405162461bcd60e51b815260040161062d906139ff565b6067805460ff1916905560405133907ff1421bf36228f9555c8ffd2f76f6daaffade7af838a38bd6f665c6547d6948de90600090a2565b6001600160a01b03166000908152606b60205260409020600c015490565b60675461010090046001600160a01b03166115c857611066565b60006115d561033361217b565b60675490915061010090046001600160a01b031660005b835181101561190b57600061161385838151811061160657fe5b60200260200101516122ba565b90506000606c600087858151811061162757fe5b6020908102919091018101518252810191909152604001600020600101546001600160a01b0316905061165b828287612b2c565b6001600160a01b0382166000908152606b602052604081208751600890910190829089908790811061168957fe5b602002602001015181526020019081526020016000206040518060400160405290816000820160405180606001604052908160008201548152602001600182015481526020016002820154815250508152602001600382015481525050905060006117288886815181106116f957fe5b6020908102919091018101516001600160a01b0387166000908152606b90925260409091206006019089612b7e565b505060655460675460405163a9059cbb60e01b81529293506001600160a01b039182169263a9059cbb9261176792610100900416908590600401613670565b602060405180830381600087803b15801561178157600080fd5b505af1158015611795573d6000803e3d6000fd5b505050506040513d601f19601f820116820180604052508101906117b9919061352a565b6117d55760405162461bcd60e51b815260040161062d90613ccf565b6001600160a01b0384166000908152606b60205260409020600c01546117fb90826121f0565b6001600160a01b0385166000908152606b60205260409020600c015587516118559089908790811061182957fe5b6020908102919091018101516001600160a01b0386166000908152606b90925260409091209089612b7e565b50505061188188868151811061186757fe5b602002602001015188606d612b7e9092919063ffffffff16565b505050856001600160a01b0316638d7cdec289878151811061189f57fe5b60200260200101518487876040518563ffffffff1660e01b81526004016118c99493929190613d73565b600060405180830381600087803b1580156118e357600080fd5b505af11580156118f7573d6000803e3d6000fd5b5050600190960195506115ec945050505050565b50336001600160a01b03167f9302ff85f986fa03af144f0430ecea91ded0b24af1655f46bde13c1d3c13b76b8460405161194591906136a3565b60405180910390a2505050565b60675460ff16156119755760405162461bcd60e51b815260040161062d90613cf8565b60675461010090046001600160a01b0316156119a35760405162461bcd60e51b815260040161062d90613a9e565b6119ab612177565b6001600160a01b03166119bc610f4a565b6001600160a01b031614611a05576040805162461bcd60e51b81526020600482018190526024820152600080516020613ead833981519152604482015290519081900360640190fd5b6001600160a01b0382166000908152606b60205260409020611a2790826124cc565b6001600160a01b0382166000908152606b60205260409020610e7290600601826124cc565b60675460009060ff1615611a725760405162461bcd60e51b815260040161062d90613cf8565b60675461010090046001600160a01b031615611aa05760405162461bcd60e51b815260040161062d90613a9e565b60008411611ac05760405162461bcd60e51b815260040161062d906137fa565b6067821115611ae15760405162461bcd60e51b815260040161062d906138c2565b6068831115611b025760405162461bcd60e51b815260040161062d90613bbd565b6065546040516323b872dd60e01b81526001600160a01b03909116906323b872dd90611b369033903090899060040161364c565b602060405180830381600087803b158015611b5057600080fd5b505af1158015611b64573d6000803e3d6000fd5b505050506040513d601f19601f82011682018060405250810190611b88919061352a565b611ba45760405162461bcd60e51b815260040161062d90613ccf565b6066805460010190556000611bba61033361217b565b9050611bca878787878786612779565b6001600160a01b0387166000908152606b60205260409020600c0154611bf09086612dd8565b6001600160a01b038089166000818152606b602052604090819020600c019390935560665492519189169290917f623b3d5e572a148a73b818e6f65063f047c4acf2a38cc0c8b367c5cd555963ae90611c509086908b908b908b90613db5565b60405180910390a46040516001600160a01b03808816916000918a16907f3134e8a2e6d97e929a7e54011ea5485d7d196dd5f0ba4d4ef95803e8e3fc257f908390a46001600160a01b0386166000818152606b60205260408120600080516020613ef18339815191529190611cc5908561217f565b604051611cd39291906136e6565b60405180910390a2505060665495945050505050565b611cf1612177565b6001600160a01b0316611d02610f4a565b6001600160a01b031614611d4b576040805162461bcd60e51b81526020600482018190526024820152600080516020613ead833981519152604482015290519081900360640190fd5b6001600160a01b038116611d905760405162461bcd60e51b8152600401808060200182810382526026815260200180613e176026913960400191505060405180910390fd5b6033546040516001600160a01b038084169216907f8be0079c531659141344cd1fd0a4f28419497f9722a3daafe3b4186f6b6457e090600090a3603380546001600160a01b0319166001600160a01b0392909216919091179055565b61c4e081565b6065546001600160a01b031681565b60675460ff1615611e245760405162461bcd60e51b815260040161062d90613cf8565b60675461010090046001600160a01b031615611e525760405162461bcd60e51b815260040161062d90613a9e565b6000611e5d836122ba565b6000848152606c60205260408120600101549192506001600160a01b0390911690611e8961033361217b565b6001600160a01b0383166000908152606b60205260409020909150611eae90826124cc565b6001600160a01b0382166000908152606b6020526040812081908190611ed5908986612b7e565b6040805160608101825288815260208082018690528183018590526001600160a01b038d166000908152606b90915291909120939650919450925090611f1b90866124cc565b6001600160a01b0388166000908152606b60205260409020611f3f908a8385612e32565b6000898152606c60205260409081902060010180546001600160a01b0319166001600160a01b038b81169182179092559151908916908b907f85c2730e083fbf1495501a47cbebc8a7e57eab8b6eeac16aedcebc825e268fac90611fa4908a90613d6a565b60405180910390a4876001600160a01b0316866001600160a01b0316886001600160a01b03167f3134e8a2e6d97e929a7e54011ea5485d7d196dd5f0ba4d4ef95803e8e3fc257f60405160405180910390a46001600160a01b0386166000818152606b60205260408120600080516020613ef18339815191529190612029908961217f565b6040516120379291906136e6565b60405180910390a26001600160a01b0388166000818152606b60205260408120600080516020613ef18339815191529190612072908961217f565b6040516120809291906136e6565b60405180910390a2505050505050505050565b6000806068548310156120b85760405162461bcd60e51b815260040161062d90613985565b6069548410156120da5760405162461bcd60e51b815260040161062d90613d19565b60006121066068546067036121006304c4b400606854880361304b90919063ffffffff16565b90612253565b9050600061212e6069546068036121006302625a006069548a0361304b90919063ffffffff16565b9050600061214a6301312d006121448585612dd8565b90612dd8565b905061215e6305f5e1006121008a8461304b565b945061216a85886130a4565b9350505050935093915050565b3390565b4390565b60038201546004830154600091908382141561219e5791506107b99050565b818411156121bb576121b2858386846130b9565b925050506107b9565b600084116121db5760405162461bcd60e51b815260040161062d90613be5565b6121e785838684613147565b95945050505050565b600082821115612247576040805162461bcd60e51b815260206004820152601e60248201527f536166654d6174683a207375627472616374696f6e206f766572666c6f770000604482015290519081900360640190fd5b50900390565b612a3090565b60008082116122a9576040805162461bcd60e51b815260206004820152601a60248201527f536166654d6174683a206469766973696f6e206279207a65726f000000000000604482015290519081900360640190fd5b8183816122b257fe5b049392505050565b6000818152606c60205260409020546001600160a01b03163381146106dd5760405162461bcd60e51b815260040161062d9061381f565b600084116123115760405162461bcd60e51b815260040161062d906137fa565b60678211156123325760405162461bcd60e51b815260040161062d906138c2565b60688311156123535760405162461bcd60e51b815260040161062d90613b40565b600083116123735760405162461bcd60e51b815260040161062d90613920565b6000612383846121448486612dd8565b6001600160a01b0388166000908152606b602090815260408083208a84526008018252808320815160a0810183528154928101928352600182015460608201819052600283015460808301819052848352600390930154948201949094529495509092916123f0916130a4565b905060006124138261214486602001518660000151612dd890919063ffffffff16565b9050848111156124355760405162461bcd60e51b815260040161062d90613ac1565b602084015183516000916124499190612dd8565b90506000612457888a612dd8565b9050808211156124bd57600061246d83836121f0565b9050600061247b8d8d6130a4565b9050600061249361248c848461304b565b8f906121f0565b905087602001518110156124b95760405162461bcd60e51b815260040161062d906138e9565b5050505b50505050505050505050505050565b6003820154818114156124df5750610e72565b60058301546004840154801561257f5782841161250e5760405162461bcd60e51b815260040161062d90613c5d565b8383101561257f5761252081836121f0565b600084815260208790526040812054919250906125469061254085613203565b90613209565b905060008112156125695760405162461bcd60e51b815260040161062d9061377e565b915081612577846001612dd8565b93505061250e565b6003850184905560048501556005840155505050565b60006125a2848484612b2c565b6001600160a01b0383166000908152606b602052604090206125c5908684612b7e565b506125d69150606d90508684612b7e565b5050506001600160a01b0384166000908152606b602052604090206125ff906006018684612b7e565b50909695505050505050565b8082111561262b5760405162461bcd60e51b815260040161062d90613b6e565b600061263782846121f0565b6001600160a01b0386166000908152606b60205260408120600c015491925061266082876121f0565b90508083111561276f57600061267684836121f0565b60655460008b8152606c6020526040908190205490516323b872dd60e01b81529293506001600160a01b03918216926323b872dd926126bd9216903090869060040161364c565b602060405180830381600087803b1580156126d757600080fd5b505af11580156126eb573d6000803e3d6000fd5b505050506040513d601f19601f8201168201806040525081019061270f919061352a565b61272b5760405162461bcd60e51b815260040161062d90613ccf565b6001600160a01b0388166000908152606b60205260409020600c01546127519082612dd8565b6001600160a01b0389166000908152606b60205260409020600c0155505b5050505050505050565b838311156127995760405162461bcd60e51b815260040161062d906137c3565b6127a4868683612b2c565b6000806127b2868686612093565b6040805160608101825286815260208101849052908101829052606654929450909250906127e490606d908388612e32565b6066546001600160a01b0389166000908152606b6020526040902061280a918388612e32565b600061281688886130a4565b6040805160608101825287815260208082018c90528183018490526066546001600160a01b038f166000908152606b90925292902090945091925061286091600601908489612e32565b5050606680546000908152606c602052604080822080546001600160a01b039c8d166001600160a01b031991821617909155925482529020600101805498909916971696909617909655505050505050565b60006128bd3061326e565b15905090565b600054610100900460ff16806128dc57506128dc6128b2565b806128ea575060005460ff16155b6129255760405162461bcd60e51b815260040180806020018281038252602e815260200180613e5e602e913960400191505060405180910390fd5b600054610100900460ff16158015612950576000805460ff1961ff0019909116610100171660011790555b606580546001600160a01b0319166001600160a01b038716179055606a849055606883905560698290558015610f43576000805461ff00191690555050505050565b600054610100900460ff16806129ab57506129ab6128b2565b806129b9575060005460ff16155b6129f45760405162461bcd60e51b815260040180806020018281038252602e815260200180613e5e602e913960400191505060405180910390fd5b600054610100900460ff16158015612a1f576000805460ff1961ff0019909116610100171660011790555b6000612a29612177565b603380546001600160a01b0319166001600160a01b038316908117909155604051919250906000907f8be0079c531659141344cd1fd0a4f28419497f9722a3daafe3b4186f6b6457e0908290a3508015611066576000805461ff001916905550565b600054610100900460ff1680612aa45750612aa46128b2565b80612ab2575060005460ff16155b612aed5760405162461bcd60e51b815260040180806020018281038252602e815260200180613e5e602e913960400191505060405180910390fd5b600054610100900460ff16158015612b18576000805460ff1961ff0019909116610100171660011790555b8015611066576000805461ff001916905550565b612b37606d826124cc565b6001600160a01b0382166000908152606b60205260409020612b5990826124cc565b6001600160a01b0383166000908152606b60205260409020610a3a90600601826124cc565b6000828152600280850160209081526040808420815160a081018352815492810192835260018201546060820181905294820154608082015291825260030154918101919091528291829190612be65760405162461bcd60e51b815260040161062d906139c8565b8051612bf288876124cc565b8060200151945080604001519350600092506000612c2c8360200151612144612c24888a61225390919063ffffffff16565b855190612dd8565b905080871115612c46576000955060009450505050612dcf565b6000612c538260016121f0565b90506000612c628960016121f0565b90506000612c78612c738a8a613274565b613203565b90506000612c9c600161092b89602001518960000151612dd890919063ffffffff16565b9050808b11612cef57612cb46001612144838e6121f0565b9750612ccb81612cc38b613203565b8f91906132db565b612cea84612ce284612cdc8d613203565b90613307565b8f919061336c565b612d74565b838b11612d4b5760058d0154612d05908a6121f0565b60058e0155612d1b84612ce284612cdc8d613203565b612d3c826121448b612d368f8a6121f090919063ffffffff16565b9061304b565b9950612cea83612cc38b613203565b60058d0154612d5a90836121f0565b60058e01559098508897508790612d7483612cc384613203565b612d7f8d868461336c565b60048d0154612d8e908b6121f0565b60048e015560008c815260028e016020526040812060010155612dc783612db48c613203565b8f6001016132db9092919063ffffffff16565b505050505050505b93509350939050565b600082820183811015610931576040805162461bcd60e51b815260206004820152601b60248201527f536166654d6174683a206164646974696f6e206f766572666c6f770000000000604482015290519081900360640190fd5b6040820151612e535760405162461bcd60e51b815260040161062d90613af8565b816020015182604001511115612e7b5760405162461bcd60e51b815260040161062d90613c13565b600083815260028501602052604090206001015415612eac5760405162461bcd60e51b815260040161062d90613a5b565b604080518082018252838152602080820184815260008781526002808a0184529085902093518051855592830151600185015591909301519082015590516003909101558151612efd9085906124cc565b60208201516004850154612f1091612dd8565b60048501558151600090612f259060016121f0565b9050612f4381612f388560200151613203565b60018801919061336c565b6000612f608460400151856020015161225390919063ffffffff16565b905082612fa05760408401516005870154612f7a91612dd8565b60058701556040840151612f9b908390612f9390613203565b88919061336c565b612fd5565b6000612fac8385612dd8565b9050612fc781612fbf8760400151613203565b89919061336c565b612fd18285612dd8565b9150505b6000612ff5612c738660400151876020015161327490919063ffffffff16565b85519091506000906130079084612dd8565b905060006130168260016121f0565b90506130358161302d85612cdc8b60400151613203565b8b91906132db565b6130408983856132db565b505050505050505050565b60008261305a575060006107b9565b8282028284828161306757fe5b04146109315760405162461bcd60e51b8152600401808060200182810382526021815260200180613e8c6021913960400191505060405180910390fd5b600061093160016121448461210087846121f0565b6000816130c757508061313f565b6005850154845b84811015613139576130e084836121f0565b600082815260208990526040812054919550906131009061254085613203565b905060008112156131235760405162461bcd60e51b815260040161062d9061377e565b915081613131826001612dd8565b9150506130ce565b83925050505b949350505050565b6005840154600090845b84811115613139576131648160016121f0565b60008181526001890160205260408120549192509061318690612cdc87613203565b905060008112156131a95760405162461bcd60e51b815260040161062d90613856565b60008281526020899052604081205491955085916131ca90612cdc86613203565b905060008112156131ed5760405162461bcd60e51b815260040161062d9061377e565b9250826131fa8682612dd8565b95505050613151565b806106dd565b600082820181831280159061321e5750838112155b80613233575060008312801561323357508381125b6109315760405162461bcd60e51b8152600401808060200182810382526021815260200180613e3d6021913960400191505060405180910390fd5b3b151590565b60008082116132ca576040805162461bcd60e51b815260206004820152601860248201527f536166654d6174683a206d6f64756c6f206279207a65726f0000000000000000604482015290519081900360640190fd5b8183816132d357fe5b069392505050565b6000828152602084905260409020546132f49082613307565b6000928352602093909352506040902055565b600081830381831280159061331c5750838113155b80613331575060008312801561333157508381135b6109315760405162461bcd60e51b8152600401808060200182810382526024815260200180613ecd6024913960400191505060405180910390fd5b6000828152602084905260409020546132f49082613209565b600060208284031215613396578081fd5b813561093181613e01565b600080600080600060a086880312156133b8578081fd5b85356133c381613e01565b945060208601356133d381613e01565b94979496505050506040830135926060810135926080909101359150565b60008060408385031215613403578182fd5b823561340e81613e01565b946020939093013593505050565b60008060008060008060c08789031215613434578081fd5b863561343f81613e01565b95506020870135945060408701359350606087013560ff81168114613462578182fd5b9598949750929560808101359460a0909101359350915050565b6000602080838503121561348e578182fd5b823567ffffffffffffffff808211156134a5578384fd5b818501915085601f8301126134b8578384fd5b8135818111156134c457fe5b838102604051858282010181811085821117156134dd57fe5b604052828152858101935084860182860187018a10156134fb578788fd5b8795505b8386101561351d5780358552600195909501949386019386016134ff565b5098975050505050505050565b60006020828403121561353b578081fd5b81518015158114610931578182fd5b6000806000806080858703121561355f578384fd5b843561356a81613e01565b966020860135965060408601359560600135945092505050565b600060208284031215613595578081fd5b5035919050565b600080604083850312156135ae578182fd5b8235915060208301356135c081613e01565b809150509250929050565b600080600080600060a086880312156135e2578081fd5b8535945060208601356133d381613e01565b600080600060608486031215613608578283fd5b505081359360208301359350604090920135919050565b8051825260208082015190830152604090810151910152565b6001600160a01b0391909116815260200190565b6001600160a01b039384168152919092166020820152604081019190915260600190565b6001600160a01b03929092168252602082015260400190565b6001600160a01b0392831681529116602082015260400190565b6020808252825182820181905260009190848201906040850190845b818110156125ff578351835292840192918401916001016136bf565b901515815260200190565b918252602082015260400190565b6000602080835283518082850152825b8181101561372057858101830151858201604001528201613704565b818111156137315783604083870101525b50601f01601f1916929092016040019392505050565b6020808252601a908201527f6e657720736c6f706520706572696f64203e2032207965617273000000000000604082015260600190565b60208082526025908201527f736c6f7065203c20302c20736f6d657468696e672077726f6e67207769746820604082015264736c6f706560d81b606082015260800190565b60208082526017908201527f57726f6e672076616c756520736c6f7065506572696f64000000000000000000604082015260600190565b6020808252600b908201526a1e995c9bc8185b5bdd5b9d60aa1b604082015260600190565b60208082526018908201527f63616c6c6572206e6f742061207374616b65206f776e65720000000000000000604082015260600190565b60208082526023908201527f62696173203c20302c20736f6d657468696e672077726f6e672077697468206260408201526269617360e81b606082015260800190565b6020808252600f908201526e1b9bdd081a5b5c1b195b595b9d1959608a1b604082015260600190565b6020808252600d908201526c636c69666620746f6f2062696760981b604082015260600190565b60208082526019908201527f64657465637420637574206465706f73697420636f726e657200000000000000604082015260600190565b6020808252601490820152730736c6f706520706572696f6420657175616c20360641b604082015260600190565b6020808252601a908201527f6e657720636c69666620706572696f64203e2032207965617273000000000000604082015260600190565b60208082526023908201527f636c69666620706572696f64203c206d696e696d616c207374616b65207065726040820152621a5bd960ea1b606082015260800190565b6020808252601f908201527f52656d6f76696e67204c696e652c207768696368206e6f742065786973747300604082015260600190565b6020808252600b908201526a1b9bdd081cdd1bdc1c195960aa1b604082015260600190565b6020808252601a908201527f77726f6e67206e65775374617274696e67506f696e745765656b000000000000604082015260600190565b60208082526023908201527f4c696e65207769746820676976656e20696420697320616c72656164792065786040820152621a5cdd60ea1b606082015260800190565b6020808252600990820152686d6967726174696e6760b81b604082015260600190565b6020808252601f908201527f6e6577206c696e6520706572696f64207374616b6520746f6f2073686f727400604082015260600190565b60208082526028908201527f536c6f7065203d3d20302c20756e61636365707461626c652076616c756520666040820152676f7220736c6f706560c01b606082015260800190565b602080825260149082015273736c6f706520706572696f6420746f6f2062696760601b604082015260600190565b6020808252602f908201527f496d706f737369626c6520746f2072657374616b653a206c65737320616d6f7560408201526e6e742c207468656e206e6f7720697360881b606082015260800190565b6020808252600e908201526d706572696f6420746f6f2062696760901b604082015260600190565b602080825260149082015273756e657870656374656420706173742074696d6560601b604082015260600190565b6020808252602a908201527f536c6f7065203e20626961732c20756e61636365707461626c652076616c756560408201526920666f7220736c6f706560b01b606082015260800190565b60208082526025908201527f63616e2774207570646174652042726f6b656e4c696e6520666f7220706173746040820152642074696d6560d81b606082015260800190565b602080825260139082015272189b1bd8dac81b9bdd081e595d081b5a5b9959606a1b604082015260600190565b6020808252600f908201526e1d1c985b9cd9995c8819985a5b1959608a1b604082015260600190565b6020808252600790820152661cdd1bdc1c195960ca1b604082015260600190565b60208082526023908201527f736c6f706520706572696f64203c206d696e696d616c207374616b65207065726040820152621a5bd960ea1b606082015260800190565b606081016107b9828461361f565b90815260200190565b600060e082019050858252613d8c60208301865161361f565b6020949094015160808201526001600160a01b0392831660a0820152911660c090910152919050565b93845260208401929092526040830152606082015260800190565b948552602085019390935260408401919091526060830152608082015260a00190565b60ff91909116815260200190565b6001600160a01b038116811461106657600080fdfe4f776e61626c653a206e6577206f776e657220697320746865207a65726f20616464726573735369676e6564536166654d6174683a206164646974696f6e206f766572666c6f77496e697469616c697a61626c653a20636f6e747261637420697320616c726561647920696e697469616c697a6564536166654d6174683a206d756c7469706c69636174696f6e206f766572666c6f774f776e61626c653a2063616c6c6572206973206e6f7420746865206f776e65725369676e6564536166654d6174683a207375627472616374696f6e206f766572666c6f77dec2bacdd2f05b59de34da9b523dff8be42e5e38e818c82fdb0bae774387a724a2646970667358221220688056165e40e7a7c4e3dbf1df67d820960299499fc38995637fff5e6db00b5264736f6c63430007060033",
  "immutableReferences": {},
  "source": "// SPDX-License-Identifier: MIT\n\npragma solidity 0.7.6;\npragma abicoder v2;\n\nimport \"./INextVersionStake.sol\";\nimport \"./StakingBase.sol\";\nimport \"./StakingRestake.sol\";\nimport \"./StakingVotes.sol\";\n\ncontract Staking is StakingBase, StakingRestake, StakingVotes {\n    using SafeMathUpgradeable for uint;\n    using LibBrokenLine for LibBrokenLine.BrokenLine;\n\n    function __Staking_init(IERC20Upgradeable _token, uint _startingPointWeek, uint _minCliffPeriod, uint _minSlopePeriod) external initializer {\n        __StakingBase_init_unchained(_token, _startingPointWeek, _minCliffPeriod, _minSlopePeriod);\n        __Ownable_init_unchained();\n        __Context_init_unchained();\n    }\n\n    function stop() external onlyOwner notStopped {\n        stopped = true;\n        emit StopStaking(msg.sender);\n    }\n\n    function start() external onlyOwner isStopped {\n        stopped = false;\n        emit StartStaking(msg.sender);\n    }\n\n    function startMigration(address to) external onlyOwner {\n        migrateTo = to;\n        emit StartMigration(msg.sender, to);\n    }\n\n    function stake(address account, address _delegate, uint amount, uint slopePeriod, uint cliff) external notStopped notMigrating returns (uint) {\n        require(amount > 0, \"zero amount\");\n        require(cliff <= MAX_CLIFF_PERIOD, \"cliff too big\");\n        require(slopePeriod <= MAX_SLOPE_PERIOD, \"period too big\");\n        require(token.transferFrom(msg.sender, address(this), amount), \"transfer failed\");\n\n        counter++;\n\n        uint time = roundTimestamp(getBlockNumber());\n        addLines(account, _delegate, amount, slopePeriod, cliff, time);\n        accounts[account].amount = accounts[account].amount.add(amount);\n        emit StakeCreate(counter, account, _delegate, time, amount, slopePeriod, cliff);\n\n        // IVotesUpgradeable events\n        emit DelegateChanged(account, address(0), _delegate);\n        emit DelegateVotesChanged(_delegate, 0, accounts[_delegate].balance.actualValue(time));\n        return counter;\n    }\n\n    function withdraw() external {\n        uint value = getAvailableForWithdraw(msg.sender);\n        if (value > 0) {\n            accounts[msg.sender].amount = accounts[msg.sender].amount.sub(value);\n            require(token.transfer(msg.sender, value), \"transfer failed\");\n        }\n        emit Withdraw(msg.sender, value);\n    }\n\n    // Amount available for withdrawal\n    function getAvailableForWithdraw(address account) public view returns (uint value) {\n        value = accounts[account].amount;\n        if (!stopped) {\n            uint time = roundTimestamp(getBlockNumber());\n            uint bias = accounts[account].locked.actualValue(time);\n            value = value.sub(bias);\n        }\n    }\n\n    //Remaining locked amount\n    function locked(address account) external view returns (uint) {\n        return accounts[account].amount;\n    }\n\n    //For a given Line id, the owner and delegate addresses.\n    function getAccountAndDelegate(uint id) external view returns (address account, address delegate) {\n        account = stakes[id].account;\n        delegate = stakes[id].delegate;\n    }\n\n    //Getting \"current week\" of the contract.\n    function getWeek() external view returns (uint) {\n        return roundTimestamp(getBlockNumber());\n    }\n\n    function delegateTo(uint id, address newDelegate) external notStopped notMigrating {\n        address account = verifyStakeOwner(id);\n        address _delegate = stakes[id].delegate;\n        uint time = roundTimestamp(getBlockNumber());\n        accounts[_delegate].balance.update(time);\n        (uint bias, uint slope, uint cliff) = accounts[_delegate].balance.remove(id, time);\n        LibBrokenLine.Line memory line = LibBrokenLine.Line(time, bias, slope);\n        accounts[newDelegate].balance.update(time);\n        accounts[newDelegate].balance.add(id, line, cliff);\n        stakes[id].delegate = newDelegate;\n        emit Delegate(id, account, newDelegate, time);\n\n        // IVotesUpgradeable events\n        emit DelegateChanged(account, _delegate, newDelegate);\n        emit DelegateVotesChanged(_delegate, 0, accounts[_delegate].balance.actualValue(time));\n        emit DelegateVotesChanged(newDelegate, 0, accounts[newDelegate].balance.actualValue(time));\n    }\n\n    function totalSupply() external view returns (uint) {\n        if ((totalSupplyLine.initial.bias == 0) || (stopped)) {\n            return 0;\n        }\n        uint time = roundTimestamp(getBlockNumber());\n        return totalSupplyLine.actualValue(time);\n    }\n\n    function balanceOf(address account) external view returns (uint) {\n        if ((accounts[account].balance.initial.bias == 0) || (stopped)) {\n            return 0;\n        }\n        uint time = roundTimestamp(getBlockNumber());\n        return accounts[account].balance.actualValue(time);\n    }\n\n    function migrate(uint[] memory id) external {\n        if (migrateTo == address(0)) {\n            return;\n        }\n        uint time = roundTimestamp(getBlockNumber());\n        INextVersionStake nextVersionStake = INextVersionStake(migrateTo);\n        for (uint256 i = 0; i < id.length; i++) {\n            address account = verifyStakeOwner(id[i]);\n            address _delegate = stakes[id[i]].delegate;\n            updateLines(account, _delegate, time);\n            //save data Line before remove\n            LibBrokenLine.LineData memory lineData = accounts[account].locked.initiatedLines[id[i]];\n            (uint residue,,) = accounts[account].locked.remove(id[i], time);\n\n            require(token.transfer(migrateTo, residue), \"transfer failed\");\n            accounts[account].amount = accounts[account].amount.sub(residue);\n\n            accounts[_delegate].balance.remove(id[i], time);\n            totalSupplyLine.remove(id[i], time);\n            nextVersionStake.initiateData(id[i], lineData, account, _delegate);\n        }\n        emit Migrate(msg.sender, id);\n    }\n\n    function name() public view virtual returns (string memory) {\n        return \"Rarible Vote-Escrow\";\n    }\n\n    function symbol() public view virtual returns (string memory) {\n        return \"veRARI\";\n    }\n\n    function decimals() public view virtual returns (uint8) {\n        return 18;\n    }\n\n    uint256[50] private __gap;\n}",
  "sourcePath": "@rarible/staking/contracts/Staking.sol",
  "compiler": {
    "name": "solc",
    "version": "0.7.6+commit.7338295f.Emscripten.clang"
  },
  "schemaVersion": "3.4.5",
  "updatedAt": "2022-10-25T13:07:07.675Z",
  "devdoc": {
    "kind": "dev",
    "methods": {
      "delegate(address)": {
        "details": "Delegates votes from the sender to `delegatee`."
      },
      "delegateBySig(address,uint256,uint256,uint8,bytes32,bytes32)": {
        "details": "Delegates votes from signer to `delegatee`."
      },
      "delegates(address)": {
        "details": "Returns the delegate that `account` has chosen."
      },
      "getPastTotalSupply(uint256)": {
        "details": "Returns the total supply of votes available  at the end of the last period"
      },
      "getPastVotes(address,uint256)": {
        "details": "Returns the amount of votes that `account` had at the end of the last period"
      },
      "getVotes(address)": {
        "details": "Returns the current amount of votes that `account` has."
      },
      "owner()": {
        "details": "Returns the address of the current owner."
      },
      "renounceOwnership()": {
        "details": "Leaves the contract without owner. It will not be possible to call `onlyOwner` functions anymore. Can only be called by the current owner. NOTE: Renouncing ownership will leave the contract without an owner, thereby removing any functionality that is only available to the owner."
      },
      "transferOwnership(address)": {
        "details": "Transfers ownership of the contract to a new account (`newOwner`). Can only be called by the current owner."
      }
    },
    "version": 1
  },
  "userdoc": {
    "kind": "user",
    "methods": {
      "getStake(uint256,uint256,uint256)": {
        "notice": "alculate and return (newAmount, newSlope), using formula: staking = (tokens * (      ST_FORMULA_CONST_MULTIPLIER      + ST_FORMULA_CLIFF_MULTIPLIER * (cliffPeriod - minCliffPeriod))/(MAX_CLIFF_PERIOD - minCliffPeriod)      + ST_FORMULA_SLOPE_MULTIPLIER * (slopePeriod - minSlopePeriod))/(MAX_SLOPE_PERIOD - minSlopePeriod)      )) / ST_FORMULA_DIVIDER*"
      }
    },
    "version": 1
  }
}