{
  "contractName": "StakingVotes",
  "abi": [
    {
      "anonymous": false,
      "inputs": [
        {
          "indexed": true,
          "internalType": "uint256",
          "name": "id",
          "type": "uint256"
        },
        {
          "indexed": true,
          "internalType": "address",
          "name": "account",
          "type": "address"
        },
        {
          "indexed": true,
          "internalType": "address",
          "name": "delegate",
          "type": "address"
        },
        {
          "indexed": false,
          "internalType": "uint256",
          "name": "time",
          "type": "uint256"
        }
      ],
      "name": "Delegate",
      "type": "event"
    },
    {
      "anonymous": false,
      "inputs": [
        {
          "indexed": true,
          "internalType": "address",
          "name": "delegator",
          "type": "address"
        },
        {
          "indexed": true,
          "internalType": "address",
          "name": "fromDelegate",
          "type": "address"
        },
        {
          "indexed": true,
          "internalType": "address",
          "name": "toDelegate",
          "type": "address"
        }
      ],
      "name": "DelegateChanged",
      "type": "event"
    },
    {
      "anonymous": false,
      "inputs": [
        {
          "indexed": true,
          "internalType": "address",
          "name": "delegate",
          "type": "address"
        },
        {
          "indexed": false,
          "internalType": "uint256",
          "name": "previousBalance",
          "type": "uint256"
        },
        {
          "indexed": false,
          "internalType": "uint256",
          "name": "newBalance",
          "type": "uint256"
        }
      ],
      "name": "DelegateVotesChanged",
      "type": "event"
    },
    {
      "anonymous": false,
      "inputs": [
        {
          "indexed": true,
          "internalType": "address",
          "name": "account",
          "type": "address"
        },
        {
          "indexed": false,
          "internalType": "uint256[]",
          "name": "id",
          "type": "uint256[]"
        }
      ],
      "name": "Migrate",
      "type": "event"
    },
    {
      "anonymous": false,
      "inputs": [
        {
          "indexed": true,
          "internalType": "address",
          "name": "previousOwner",
          "type": "address"
        },
        {
          "indexed": true,
          "internalType": "address",
          "name": "newOwner",
          "type": "address"
        }
      ],
      "name": "OwnershipTransferred",
      "type": "event"
    },
    {
      "anonymous": false,
      "inputs": [
        {
          "indexed": true,
          "internalType": "uint256",
          "name": "id",
          "type": "uint256"
        },
        {
          "indexed": true,
          "internalType": "address",
          "name": "account",
          "type": "address"
        },
        {
          "indexed": true,
          "internalType": "address",
          "name": "delegate",
          "type": "address"
        },
        {
          "indexed": false,
          "internalType": "uint256",
          "name": "counter",
          "type": "uint256"
        },
        {
          "indexed": false,
          "internalType": "uint256",
          "name": "time",
          "type": "uint256"
        },
        {
          "indexed": false,
          "internalType": "uint256",
          "name": "amount",
          "type": "uint256"
        },
        {
          "indexed": false,
          "internalType": "uint256",
          "name": "slope",
          "type": "uint256"
        },
        {
          "indexed": false,
          "internalType": "uint256",
          "name": "cliff",
          "type": "uint256"
        }
      ],
      "name": "Restake",
      "type": "event"
    },
    {
      "anonymous": false,
      "inputs": [
        {
          "indexed": true,
          "internalType": "uint256",
          "name": "newMinCliffPeriod",
          "type": "uint256"
        }
      ],
      "name": "SetMinCliffPeriod",
      "type": "event"
    },
    {
      "anonymous": false,
      "inputs": [
        {
          "indexed": true,
          "internalType": "uint256",
          "name": "newMinSlopePeriod",
          "type": "uint256"
        }
      ],
      "name": "SetMinSlopePeriod",
      "type": "event"
    },
    {
      "anonymous": false,
      "inputs": [
        {
          "indexed": true,
          "internalType": "uint256",
          "name": "newStartingPointWeek",
          "type": "uint256"
        }
      ],
      "name": "SetStartingPointWeek",
      "type": "event"
    },
    {
      "anonymous": false,
      "inputs": [
        {
          "indexed": true,
          "internalType": "uint256",
          "name": "id",
          "type": "uint256"
        },
        {
          "indexed": true,
          "internalType": "address",
          "name": "account",
          "type": "address"
        },
        {
          "indexed": true,
          "internalType": "address",
          "name": "delegate",
          "type": "address"
        },
        {
          "indexed": false,
          "internalType": "uint256",
          "name": "time",
          "type": "uint256"
        },
        {
          "indexed": false,
          "internalType": "uint256",
          "name": "amount",
          "type": "uint256"
        },
        {
          "indexed": false,
          "internalType": "uint256",
          "name": "slope",
          "type": "uint256"
        },
        {
          "indexed": false,
          "internalType": "uint256",
          "name": "cliff",
          "type": "uint256"
        }
      ],
      "name": "StakeCreate",
      "type": "event"
    },
    {
      "anonymous": false,
      "inputs": [
        {
          "indexed": true,
          "internalType": "address",
          "name": "account",
          "type": "address"
        },
        {
          "indexed": true,
          "internalType": "address",
          "name": "to",
          "type": "address"
        }
      ],
      "name": "StartMigration",
      "type": "event"
    },
    {
      "anonymous": false,
      "inputs": [
        {
          "indexed": true,
          "internalType": "address",
          "name": "account",
          "type": "address"
        }
      ],
      "name": "StopStaking",
      "type": "event"
    },
    {
      "anonymous": false,
      "inputs": [
        {
          "indexed": true,
          "internalType": "address",
          "name": "account",
          "type": "address"
        },
        {
          "indexed": false,
          "internalType": "uint256",
          "name": "amount",
          "type": "uint256"
        }
      ],
      "name": "Withdraw",
      "type": "event"
    },
    {
      "inputs": [],
      "name": "WEEK",
      "outputs": [
        {
          "internalType": "uint256",
          "name": "",
          "type": "uint256"
        }
      ],
      "stateMutability": "view",
      "type": "function"
    },
    {
      "inputs": [],
      "name": "counter",
      "outputs": [
        {
          "internalType": "uint256",
          "name": "",
          "type": "uint256"
        }
      ],
      "stateMutability": "view",
      "type": "function"
    },
    {
      "inputs": [
        {
          "internalType": "uint256",
          "name": "amount",
          "type": "uint256"
        },
        {
          "internalType": "uint256",
          "name": "slope",
          "type": "uint256"
        },
        {
          "internalType": "uint256",
          "name": "cliff",
          "type": "uint256"
        }
      ],
      "name": "getStake",
      "outputs": [
        {
          "internalType": "uint256",
          "name": "stakeAmount",
          "type": "uint256"
        },
        {
          "internalType": "uint256",
          "name": "stakeSlope",
          "type": "uint256"
        }
      ],
      "stateMutability": "view",
      "type": "function"
    },
    {
      "inputs": [],
      "name": "migrateTo",
      "outputs": [
        {
          "internalType": "address",
          "name": "",
          "type": "address"
        }
      ],
      "stateMutability": "view",
      "type": "function"
    },
    {
      "inputs": [],
      "name": "minCliffPeriod",
      "outputs": [
        {
          "internalType": "uint256",
          "name": "",
          "type": "uint256"
        }
      ],
      "stateMutability": "view",
      "type": "function"
    },
    {
      "inputs": [],
      "name": "minSlopePeriod",
      "outputs": [
        {
          "internalType": "uint256",
          "name": "",
          "type": "uint256"
        }
      ],
      "stateMutability": "view",
      "type": "function"
    },
    {
      "inputs": [],
      "name": "owner",
      "outputs": [
        {
          "internalType": "address",
          "name": "",
          "type": "address"
        }
      ],
      "stateMutability": "view",
      "type": "function"
    },
    {
      "inputs": [],
      "name": "renounceOwnership",
      "outputs": [],
      "stateMutability": "nonpayable",
      "type": "function"
    },
    {
      "inputs": [
        {
          "internalType": "uint256",
          "name": "newMinCliffPeriod",
          "type": "uint256"
        }
      ],
      "name": "setMinCliffPeriod",
      "outputs": [],
      "stateMutability": "nonpayable",
      "type": "function"
    },
    {
      "inputs": [
        {
          "internalType": "uint256",
          "name": "newMinSlopePeriod",
          "type": "uint256"
        }
      ],
      "name": "setMinSlopePeriod",
      "outputs": [],
      "stateMutability": "nonpayable",
      "type": "function"
    },
    {
      "inputs": [
        {
          "internalType": "uint256",
          "name": "newStartingPointWeek",
          "type": "uint256"
        }
      ],
      "name": "setStartingPointWeek",
      "outputs": [],
      "stateMutability": "nonpayable",
      "type": "function"
    },
    {
      "inputs": [],
      "name": "startingPointWeek",
      "outputs": [
        {
          "internalType": "uint256",
          "name": "",
          "type": "uint256"
        }
      ],
      "stateMutability": "view",
      "type": "function"
    },
    {
      "inputs": [],
      "name": "stopped",
      "outputs": [
        {
          "internalType": "bool",
          "name": "",
          "type": "bool"
        }
      ],
      "stateMutability": "view",
      "type": "function"
    },
    {
      "inputs": [],
      "name": "token",
      "outputs": [
        {
          "internalType": "contract IERC20Upgradeable",
          "name": "",
          "type": "address"
        }
      ],
      "stateMutability": "view",
      "type": "function"
    },
    {
      "inputs": [],
      "name": "totalSupplyLine",
      "outputs": [
        {
          "components": [
            {
              "internalType": "uint256",
              "name": "start",
              "type": "uint256"
            },
            {
              "internalType": "uint256",
              "name": "bias",
              "type": "uint256"
            },
            {
              "internalType": "uint256",
              "name": "slope",
              "type": "uint256"
            }
          ],
          "internalType": "struct LibBrokenLine.Line",
          "name": "initial",
          "type": "tuple"
        }
      ],
      "stateMutability": "view",
      "type": "function"
    },
    {
      "inputs": [
        {
          "internalType": "address",
          "name": "newOwner",
          "type": "address"
        }
      ],
      "name": "transferOwnership",
      "outputs": [],
      "stateMutability": "nonpayable",
      "type": "function"
    },
    {
      "inputs": [
        {
          "internalType": "address",
          "name": "account",
          "type": "address"
        }
      ],
      "name": "getVotes",
      "outputs": [
        {
          "internalType": "uint256",
          "name": "",
          "type": "uint256"
        }
      ],
      "stateMutability": "view",
      "type": "function"
    },
    {
      "inputs": [
        {
          "internalType": "address",
          "name": "account",
          "type": "address"
        },
        {
          "internalType": "uint256",
          "name": "blockNumber",
          "type": "uint256"
        }
      ],
      "name": "getPastVotes",
      "outputs": [
        {
          "internalType": "uint256",
          "name": "",
          "type": "uint256"
        }
      ],
      "stateMutability": "view",
      "type": "function"
    },
    {
      "inputs": [
        {
          "internalType": "uint256",
          "name": "blockNumber",
          "type": "uint256"
        }
      ],
      "name": "getPastTotalSupply",
      "outputs": [
        {
          "internalType": "uint256",
          "name": "",
          "type": "uint256"
        }
      ],
      "stateMutability": "view",
      "type": "function"
    },
    {
      "inputs": [
        {
          "internalType": "address",
          "name": "account",
          "type": "address"
        }
      ],
      "name": "delegates",
      "outputs": [
        {
          "internalType": "address",
          "name": "",
          "type": "address"
        }
      ],
      "stateMutability": "view",
      "type": "function"
    },
    {
      "inputs": [
        {
          "internalType": "address",
          "name": "delegatee",
          "type": "address"
        }
      ],
      "name": "delegate",
      "outputs": [],
      "stateMutability": "nonpayable",
      "type": "function"
    },
    {
      "inputs": [
        {
          "internalType": "address",
          "name": "delegatee",
          "type": "address"
        },
        {
          "internalType": "uint256",
          "name": "nonce",
          "type": "uint256"
        },
        {
          "internalType": "uint256",
          "name": "expiry",
          "type": "uint256"
        },
        {
          "internalType": "uint8",
          "name": "v",
          "type": "uint8"
        },
        {
          "internalType": "bytes32",
          "name": "r",
          "type": "bytes32"
        },
        {
          "internalType": "bytes32",
          "name": "s",
          "type": "bytes32"
        }
      ],
      "name": "delegateBySig",
      "outputs": [],
      "stateMutability": "nonpayable",
      "type": "function"
    }
  ],
  "bytecode": "0x608060405234801561001057600080fd5b50611358806100206000396000f3fe608060405234801561001057600080fd5b50600436106101425760003560e01c80639ab24eb0116100b8578063b62316331161007c578063b62316331461025e578063c3cda52014610266578063f2fde38b14610274578063f4359ce514610287578063fc0c546a1461028f578063fecf0fdd1461029757610142565b80639ab24eb014610208578063a8edafbe1461021b578063ac7ae5891461022e578063acc9b64814610236578063b53546ab1461024957610142565b8063715018a61161010a578063715018a6146101b557806375f12b21146101bd5780638da5cb5b146101d25780638e539e8c146101da57806398c6e760146101ed57806399eccf62146101f557610142565b80633a46b1a814610147578063587cde1e146101705780635c19a95c1461019057806361bc221a146101a557806367c8c473146101ad575b600080fd5b61015a610155366004610eda565b6102b8565b604051610167919061125f565b60405180910390f35b61018361017e366004610ec0565b610331565b6040516101679190610fa4565b6101a361019e366004610ec0565b61034b565b005b61015a610363565b61015a610369565b6101a361036f565b6101c561041b565b6040516101679190610fb8565b610183610424565b61015a6101e8366004610f61565b610433565b61018361048b565b6101a3610203366004610f61565b61049f565b61015a610216366004610ec0565b6105a5565b6101a3610229366004610f61565b6105d8565b61015a6106e7565b6101a3610244366004610f61565b6106ed565b6102516107f3565b604051610167919061123e565b61015a610817565b6101a361019e366004610f03565b6101a3610282366004610ec0565b61081d565b61015a610920565b610183610926565b6102aa6102a5366004610f79565b610935565b604051610167929190611268565b6000806102c483610a28565b90506102ce610a71565b831080156102dc5750600081115b6103015760405162461bcd60e51b81526004016102f8906111ad565b60405180910390fd5b6001600160a01b0384166000908152606b60205260409020610327906000198301610a75565b9150505b92915050565b600060405162461bcd60e51b81526004016102f890611082565b60405162461bcd60e51b81526004016102f890611082565b60665481565b60685481565b610377610ae6565b6001600160a01b0316610388610424565b6001600160a01b0316146103d1576040805162461bcd60e51b815260206004820181905260248201526000805160206112df833981519152604482015290519081900360640190fd5b6033546040516000916001600160a01b0316907f8be0079c531659141344cd1fd0a4f28419497f9722a3daafe3b4186f6b6457e0908390a3603380546001600160a01b0319169055565b60675460ff1681565b6033546001600160a01b031690565b60008061043f83610a28565b9050610449610a71565b831080156104575750600081115b6104735760405162461bcd60e51b81526004016102f8906111ad565b610482606d6000198301610a75565b9150505b919050565b60675461010090046001600160a01b031681565b60675460ff16156104c25760405162461bcd60e51b81526004016102f8906111da565b60675461010090046001600160a01b0316156104f05760405162461bcd60e51b81526004016102f89061115c565b6104f8610ae6565b6001600160a01b0316610509610424565b6001600160a01b031614610552576040805162461bcd60e51b815260206004820181905260248201526000805160206112df833981519152604482015290519081900360640190fd5b606881106105725760405162461bcd60e51b81526004016102f890610fc3565b606981905560405181907f88345dd2cdc36a4778bf7fed510015cf81efda1a773e1b6360fde7cb1631b21090600090a250565b600061032b6105ba6105b5610a71565b610a28565b6001600160a01b0384166000908152606b6020526040902090610a75565b60675460ff16156105fb5760405162461bcd60e51b81526004016102f8906111da565b60675461010090046001600160a01b0316156106295760405162461bcd60e51b81526004016102f89061115c565b610631610ae6565b6001600160a01b0316610642610424565b6001600160a01b03161461068b576040805162461bcd60e51b815260206004820181905260248201526000805160206112df833981519152604482015290519081900360640190fd5b6106966105b5610a71565b81106106b45760405162461bcd60e51b81526004016102f890611125565b606a81905560405181907f2f807974bc9b84320f39300f6395b257c58bb285c61d262ec17c8332772d683690600090a250565b606a5481565b60675460ff16156107105760405162461bcd60e51b81526004016102f8906111da565b60675461010090046001600160a01b03161561073e5760405162461bcd60e51b81526004016102f89061115c565b610746610ae6565b6001600160a01b0316610757610424565b6001600160a01b0316146107a0576040805162461bcd60e51b815260206004820181905260248201526000805160206112df833981519152604482015290519081900360640190fd5b606881106107c05760405162461bcd60e51b81526004016102f8906110ab565b606881905560405181907fa21222d0eed205eed6a46ed1fe7faf1d0b5d097b9e04a6d4e59b7f1debfc8b2b90600090a250565b60408051606081018252607054815260715460208201526072549181019190915281565b60695481565b610825610ae6565b6001600160a01b0316610836610424565b6001600160a01b03161461087f576040805162461bcd60e51b815260206004820181905260248201526000805160206112df833981519152604482015290519081900360640190fd5b6001600160a01b0381166108c45760405162461bcd60e51b81526004018080602001828103825260268152602001806112776026913960400191505060405180910390fd5b6033546040516001600160a01b038084169216907f8be0079c531659141344cd1fd0a4f28419497f9722a3daafe3b4186f6b6457e090600090a3603380546001600160a01b0319166001600160a01b0392909216919091179055565b61c4e081565b6065546001600160a01b031681565b60008060006109448686610aea565b90506068548410156109685760405162461bcd60e51b81526004016102f8906110e2565b60695481101561098a5760405162461bcd60e51b81526004016102f8906111fb565b60006109b66068546068036109b06304cace806068548903610b0690919063ffffffff16565b90610b5f565b905060006109de6069546068036109b06302625a006069548703610b0690919063ffffffff16565b905060006109fa6301312d006109f48585610bc6565b90610bc6565b9050610a0e6305f5e1006109b08b84610b06565b9550610a1a8685610aea565b945050505050935093915050565b6000610a32610c20565b821015610a4157506000610486565b6000610a55610a4e610c20565b8490610c26565b606a5490915061048290610a6b8361c4e0610b5f565b90610c26565b4390565b600382015460048301546000919083821415610a9457915061032b9050565b81841115610ab157610aa885838684610c83565b9250505061032b565b60008411610ad15760405162461bcd60e51b81526004016102f89061117f565b610add85838684610d17565b95945050505050565b3390565b6000610aff60016109f4846109b08784610c26565b9392505050565b600082610b155750600061032b565b82820282848281610b2257fe5b0414610aff5760405162461bcd60e51b81526004018080602001828103825260218152602001806112be6021913960400191505060405180910390fd5b6000808211610bb5576040805162461bcd60e51b815260206004820152601a60248201527f536166654d6174683a206469766973696f6e206279207a65726f000000000000604482015290519081900360640190fd5b818381610bbe57fe5b049392505050565b600082820183811015610aff576040805162461bcd60e51b815260206004820152601b60248201527f536166654d6174683a206164646974696f6e206f766572666c6f770000000000604482015290519081900360640190fd5b61290490565b600082821115610c7d576040805162461bcd60e51b815260206004820152601e60248201527f536166654d6174683a207375627472616374696f6e206f766572666c6f770000604482015290519081900360640190fd5b50900390565b600081610c91575080610d0f565b6005850154845b84811015610d0957610caa8483610c26565b60008281526020899052604081205491955090610cd090610cca85610dd9565b90610ddf565b90506000811215610cf35760405162461bcd60e51b81526004016102f890610ffa565b915081610d01826001610bc6565b915050610c98565b83925050505b949350505050565b6005840154600090845b84811115610d0957610d34816001610c26565b600081815260018901602052604081205491925090610d5c90610d5687610dd9565b90610e44565b90506000811215610d7f5760405162461bcd60e51b81526004016102f89061103f565b6000828152602089905260408120549195508591610da090610d5686610dd9565b90506000811215610dc35760405162461bcd60e51b81526004016102f890610ffa565b925082610dd08682610bc6565b95505050610d21565b80610486565b6000828201818312801590610df45750838112155b80610e095750600083128015610e0957508381125b610aff5760405162461bcd60e51b815260040180806020018281038252602181526020018061129d6021913960400191505060405180910390fd5b6000818303818312801590610e595750838113155b80610e6e5750600083128015610e6e57508381135b610aff5760405162461bcd60e51b81526004018080602001828103825260248152602001806112ff6024913960400191505060405180910390fd5b80356001600160a01b038116811461048657600080fd5b600060208284031215610ed1578081fd5b610aff82610ea9565b60008060408385031215610eec578081fd5b610ef583610ea9565b946020939093013593505050565b60008060008060008060c08789031215610f1b578182fd5b610f2487610ea9565b95506020870135945060408701359350606087013560ff81168114610f47578283fd5b9598949750929560808101359460a0909101359350915050565b600060208284031215610f72578081fd5b5035919050565b600080600060608486031215610f8d578283fd5b505081359360208301359350604090920135919050565b6001600160a01b0391909116815260200190565b901515815260200190565b6020808252601a908201527f6e657720736c6f706520706572696f64203e2032207965617273000000000000604082015260600190565b60208082526025908201527f736c6f7065203c20302c20736f6d657468696e672077726f6e67207769746820604082015264736c6f706560d81b606082015260800190565b60208082526023908201527f62696173203c20302c20736f6d657468696e672077726f6e672077697468206260408201526269617360e81b606082015260800190565b6020808252600f908201526e1b9bdd081a5b5c1b195b595b9d1959608a1b604082015260600190565b6020808252601a908201527f6e657720636c69666620706572696f64203e2032207965617273000000000000604082015260600190565b60208082526023908201527f636c69666620706572696f64203c206d696e696d616c207374616b65207065726040820152621a5bd960ea1b606082015260800190565b6020808252601a908201527f77726f6e67206e65775374617274696e67506f696e745765656b000000000000604082015260600190565b6020808252600990820152686d6967726174696e6760b81b604082015260600190565b602080825260149082015273756e657870656374656420706173742074696d6560601b604082015260600190565b602080825260139082015272189b1bd8dac81b9bdd081e595d081b5a5b9959606a1b604082015260600190565b6020808252600790820152661cdd1bdc1c195960ca1b604082015260600190565b60208082526023908201527f736c6f706520706572696f64203c206d696e696d616c207374616b65207065726040820152621a5bd960ea1b606082015260800190565b81518152602080830151908201526040918201519181019190915260600190565b90815260200190565b91825260208201526040019056fe4f776e61626c653a206e6577206f776e657220697320746865207a65726f20616464726573735369676e6564536166654d6174683a206164646974696f6e206f766572666c6f77536166654d6174683a206d756c7469706c69636174696f6e206f766572666c6f774f776e61626c653a2063616c6c6572206973206e6f7420746865206f776e65725369676e6564536166654d6174683a207375627472616374696f6e206f766572666c6f77a264697066735822122097d5feb99302a902f75b46d94c8f949954f0c3610cfb00f62401271bd362805e64736f6c63430007060033",
  "immutableReferences": {},
  "source": "// SPDX-License-Identifier: MIT\n\npragma solidity 0.7.6;\npragma abicoder v2;\n\nimport \"./StakingBase.sol\";\n\ncontract StakingVotes is StakingBase {\n    using LibBrokenLine for LibBrokenLine.BrokenLine;\n\n    /**\n     * @dev Returns the current amount of votes that `account` has.\n     */\n    function getVotes(address account) external override view returns (uint256) {\n        return accounts[account].balance.actualValue(roundTimestamp(getBlockNumber()));\n    }\n\n    /**\n     * @dev Returns the amount of votes that `account` had\n     * at the end of the last period\n     */\n    function getPastVotes(address account, uint256 blockNumber) external override view returns (uint256) {\n        uint currentWeek = roundTimestamp(blockNumber);\n        require(blockNumber < getBlockNumber() && currentWeek > 0, \"block not yet mined\");\n\n        return accounts[account].balance.actualValue(currentWeek - 1);\n    }\n\n    /**\n     * @dev Returns the total supply of votes available \n     * at the end of the last period\n     */\n    function getPastTotalSupply(uint256 blockNumber) external override view returns (uint256) {\n        uint currentWeek = roundTimestamp(blockNumber);\n        require(blockNumber < getBlockNumber() && currentWeek > 0, \"block not yet mined\");\n\n        return totalSupplyLine.actualValue(currentWeek - 1);\n    }\n\n    /**\n     * @dev Returns the delegate that `account` has chosen.\n     */\n    function delegates(address account) external override view returns (address) {\n        revert(\"not implemented\");\n    }\n\n    /**\n     * @dev Delegates votes from the sender to `delegatee`.\n     */\n    function delegate(address delegatee) external override {\n        revert(\"not implemented\");\n    }\n\n    /**\n     * @dev Delegates votes from signer to `delegatee`.\n     */\n    function delegateBySig(\n        address delegatee,\n        uint256 nonce,\n        uint256 expiry,\n        uint8 v,\n        bytes32 r,\n        bytes32 s\n    ) external override {\n        revert(\"not implemented\");\n    }\n\n    uint256[50] private __gap;\n}",
  "sourcePath": "@rarible/staking/contracts/StakingVotes.sol",
  "compiler": {
    "name": "solc",
    "version": "0.7.6+commit.7338295f.Emscripten.clang"
  },
  "schemaVersion": "3.4.5",
  "updatedAt": "2022-10-03T17:47:10.667Z",
  "devdoc": {
    "kind": "dev",
    "methods": {
      "delegate(address)": {
        "details": "Delegates votes from the sender to `delegatee`."
      },
      "delegateBySig(address,uint256,uint256,uint8,bytes32,bytes32)": {
        "details": "Delegates votes from signer to `delegatee`."
      },
      "delegates(address)": {
        "details": "Returns the delegate that `account` has chosen."
      },
      "getPastTotalSupply(uint256)": {
        "details": "Returns the total supply of votes available  at the end of the last period"
      },
      "getPastVotes(address,uint256)": {
        "details": "Returns the amount of votes that `account` had at the end of the last period"
      },
      "getVotes(address)": {
        "details": "Returns the current amount of votes that `account` has."
      },
      "owner()": {
        "details": "Returns the address of the current owner."
      },
      "renounceOwnership()": {
        "details": "Leaves the contract without owner. It will not be possible to call `onlyOwner` functions anymore. Can only be called by the current owner. NOTE: Renouncing ownership will leave the contract without an owner, thereby removing any functionality that is only available to the owner."
      },
      "transferOwnership(address)": {
        "details": "Transfers ownership of the contract to a new account (`newOwner`). Can only be called by the current owner."
      }
    },
    "version": 1
  },
  "userdoc": {
    "kind": "user",
    "methods": {
      "getStake(uint256,uint256,uint256)": {
        "notice": "alculate and return (newAmount, newSlope), using formula: staking = (tokens * (      ST_FORMULA_CONST_MULTIPLIER      + ST_FORMULA_CLIFF_MULTIPLIER * (cliffPeriod - minCliffPeriod))/(TWO_YEAR_WEEKS - minCliffPeriod)      + ST_FORMULA_SLOPE_MULTIPLIER * (slopePeriod - minSlopePeriod))/(TWO_YEAR_WEEKS - minSlopePeriod)      )) / ST_FORMULA_DIVIDER*"
      }
    },
    "version": 1
  }
}