{
  "address": "0x18e6C7988F3c4C3B6EFdb69449EAE6B5eeA39e30",
  "abi": [
    {
      "anonymous": false,
      "inputs": [
        {
          "indexed": true,
          "internalType": "address",
          "name": "previousOwner",
          "type": "address"
        },
        {
          "indexed": true,
          "internalType": "address",
          "name": "newOwner",
          "type": "address"
        }
      ],
      "name": "OwnershipTransferred",
      "type": "event"
    },
    {
      "inputs": [
        {
          "internalType": "address",
          "name": "_initialOwner",
          "type": "address"
        }
      ],
      "name": "__ERC721LazyMintTransferProxy_init_proxy",
      "outputs": [],
      "stateMutability": "nonpayable",
      "type": "function"
    },
    {
      "inputs": [],
      "name": "__OperatorRole_init",
      "outputs": [],
      "stateMutability": "nonpayable",
      "type": "function"
    },
    {
      "inputs": [
        {
          "internalType": "address",
          "name": "initialOwner",
          "type": "address"
        }
      ],
      "name": "__OperatorRole_init_proxy",
      "outputs": [],
      "stateMutability": "nonpayable",
      "type": "function"
    },
    {
      "inputs": [
        {
          "internalType": "address",
          "name": "operator",
          "type": "address"
        }
      ],
      "name": "addOperator",
      "outputs": [],
      "stateMutability": "nonpayable",
      "type": "function"
    },
    {
      "inputs": [],
      "name": "owner",
      "outputs": [
        {
          "internalType": "address",
          "name": "",
          "type": "address"
        }
      ],
      "stateMutability": "view",
      "type": "function"
    },
    {
      "inputs": [
        {
          "internalType": "address",
          "name": "operator",
          "type": "address"
        }
      ],
      "name": "removeOperator",
      "outputs": [],
      "stateMutability": "nonpayable",
      "type": "function"
    },
    {
      "inputs": [],
      "name": "renounceOwnership",
      "outputs": [],
      "stateMutability": "nonpayable",
      "type": "function"
    },
    {
      "inputs": [
        {
          "components": [
            {
              "components": [
                {
                  "internalType": "bytes4",
                  "name": "assetClass",
                  "type": "bytes4"
                },
                {
                  "internalType": "bytes",
                  "name": "data",
                  "type": "bytes"
                }
              ],
              "internalType": "struct LibAsset.AssetType",
              "name": "assetType",
              "type": "tuple"
            },
            {
              "internalType": "uint256",
              "name": "value",
              "type": "uint256"
            }
          ],
          "internalType": "struct LibAsset.Asset",
          "name": "asset",
          "type": "tuple"
        },
        {
          "internalType": "address",
          "name": "from",
          "type": "address"
        },
        {
          "internalType": "address",
          "name": "to",
          "type": "address"
        }
      ],
      "name": "transfer",
      "outputs": [],
      "stateMutability": "nonpayable",
      "type": "function"
    },
    {
      "inputs": [
        {
          "internalType": "address",
          "name": "newOwner",
          "type": "address"
        }
      ],
      "name": "transferOwnership",
      "outputs": [],
      "stateMutability": "nonpayable",
      "type": "function"
    }
  ],
  "transactionHash": "0xecd86225c67463bf20f32331a4c0fce845c54fe1461122c8f3fd28f3b7c467db",
  "args": [],
  "numDeployments": 1,
  "solcInputHash": "25cec8d3d0ea4b0d6c3f88e02b714495",
  "bytecode": "0x608060405234801561001057600080fd5b50610f4a806100206000396000f3fe608060405234801561001057600080fd5b50600436106100935760003560e01c80638da5cb5b116100665780638da5cb5b146100d05780639870d7fe146100ee578063ac8a584a14610101578063e814f46d146100bd578063f2fde38b1461011457610093565b80632ff26a0a1461009857806354bc0cf1146100a2578063715018a6146100b5578063795c7aaa146100bd575b600080fd5b6100a0610127565b005b6100a06100b0366004610ae0565b6101d9565b6100a06102f7565b6100a06100cb3660046109d0565b6103a3565b6100d861045f565b6040516100e59190610ca9565b60405180910390f35b6100a06100fc3660046109d0565b61046e565b6100a061010f3660046109d0565b6104f4565b6100a06101223660046109d0565b610577565b600054610100900460ff1680610140575061014061067a565b8061014e575060005460ff16155b6101895760405162461bcd60e51b815260040180806020018281038252602e815260200180610e9f602e913960400191505060405180910390fd5b600054610100900460ff161580156101b4576000805460ff1961ff0019909116610100171660011790555b6101bc61068b565b6101c461072b565b80156101d6576000805461ff00191690555b50565b606560006101e5610824565b6001600160a01b0316815260208101919091526040016000205460ff1661023d5760405162461bcd60e51b8152600401808060200182810382526028815260200180610eed6028913960400191505060405180910390fd5b826020015160011461026a5760405162461bcd60e51b815260040161026190610cbd565b60405180910390fd5b60008084600001516020015180602001905181019061028991906109ec565b60405163832fbb2960e01b815291935091506001600160a01b0383169063832fbb29906102be90849088908890600401610ce9565b600060405180830381600087803b1580156102d857600080fd5b505af11580156102ec573d6000803e3d6000fd5b505050505050505050565b6102ff610824565b6001600160a01b031661031061045f565b6001600160a01b031614610359576040805162461bcd60e51b81526020600482018190526024820152600080516020610ecd833981519152604482015290519081900360640190fd5b6033546040516000916001600160a01b0316907f8be0079c531659141344cd1fd0a4f28419497f9722a3daafe3b4186f6b6457e0908390a3603380546001600160a01b0319169055565b600054610100900460ff16806103bc57506103bc61067a565b806103ca575060005460ff16155b6104055760405162461bcd60e51b815260040180806020018281038252602e815260200180610e9f602e913960400191505060405180910390fd5b600054610100900460ff16158015610430576000805460ff1961ff0019909116610100171660011790555b61043861068b565b61044061072b565b61044982610577565b801561045b576000805461ff00191690555b5050565b6033546001600160a01b031690565b610476610824565b6001600160a01b031661048761045f565b6001600160a01b0316146104d0576040805162461bcd60e51b81526020600482018190526024820152600080516020610ecd833981519152604482015290519081900360640190fd5b6001600160a01b03166000908152606560205260409020805460ff19166001179055565b6104fc610824565b6001600160a01b031661050d61045f565b6001600160a01b031614610556576040805162461bcd60e51b81526020600482018190526024820152600080516020610ecd833981519152604482015290519081900360640190fd5b6001600160a01b03166000908152606560205260409020805460ff19169055565b61057f610824565b6001600160a01b031661059061045f565b6001600160a01b0316146105d9576040805162461bcd60e51b81526020600482018190526024820152600080516020610ecd833981519152604482015290519081900360640190fd5b6001600160a01b03811661061e5760405162461bcd60e51b8152600401808060200182810382526026815260200180610e796026913960400191505060405180910390fd5b6033546040516001600160a01b038084169216907f8be0079c531659141344cd1fd0a4f28419497f9722a3daafe3b4186f6b6457e090600090a3603380546001600160a01b0319166001600160a01b0392909216919091179055565b600061068530610828565b15905090565b600054610100900460ff16806106a457506106a461067a565b806106b2575060005460ff16155b6106ed5760405162461bcd60e51b815260040180806020018281038252602e815260200180610e9f602e913960400191505060405180910390fd5b600054610100900460ff161580156101c4576000805460ff1961ff00199091166101001716600117905580156101d6576000805461ff001916905550565b600054610100900460ff1680610744575061074461067a565b80610752575060005460ff16155b61078d5760405162461bcd60e51b815260040180806020018281038252602e815260200180610e9f602e913960400191505060405180910390fd5b600054610100900460ff161580156107b8576000805460ff1961ff0019909116610100171660011790555b60006107c2610824565b603380546001600160a01b0319166001600160a01b038316908117909155604051919250906000907f8be0079c531659141344cd1fd0a4f28419497f9722a3daafe3b4186f6b6457e0908290a35080156101d6576000805461ff001916905550565b3390565b803b15155b919050565b600061084561084084610e11565b610dcf565b905082815283838301111561085957600080fd5b610867836020830184610e33565b9392505050565b803561082d81610e63565b600082601f830112610889578081fd5b8151602061089961084083610df3565b82815281810190858301855b858110156108e3578151880189603f8201126108bf578788fd5b6108d08a8783015160408401610832565b85525092840192908401906001016108a5565b5090979650505050505050565b600082601f830112610900578081fd5b8151602061091061084083610df3565b8281528181019085830160408086028801850189101561092e578687fd5b865b868110156109a35781838b031215610946578788fd5b815182810181811067ffffffffffffffff8211171561096157fe5b8352835161096e81610e63565b8152838701516bffffffffffffffffffffffff8116811461098d57898afd5b8188015285529385019391810191600101610930565b509198975050505050505050565b600082601f8301126109c1578081fd5b61086783835160208501610832565b6000602082840312156109e1578081fd5b813561086781610e63565b600080604083850312156109fe578081fd5b8251610a0981610e63565b602084015190925067ffffffffffffffff80821115610a26578283fd5b9084019060a08287031215610a39578283fd5b610a4360a0610dcf565b82518152602083015182811115610a58578485fd5b610a64888286016109b1565b602083015250604083015182811115610a7b578485fd5b610a87888286016108f0565b604083015250606083015182811115610a9e578485fd5b610aaa888286016108f0565b606083015250608083015182811115610ac1578485fd5b610acd88828601610879565b6080830152508093505050509250929050565b600080600060608486031215610af4578081fd5b833567ffffffffffffffff80821115610b0b578283fd5b81860191506040808389031215610b20578384fd5b80518181018181108482111715610b3357fe5b808352843584811115610b44578687fd5b8501808b03841315610b54578687fd5b608083018281108682111715610b6657fe5b845280356001600160e01b031981168114610b7f578788fd5b825260208181013586811115610b93578889fd5b82019550601f86018c13610ba5578788fd5b85359150610bb561084083610e11565b8281528c82848901011115610bc8578889fd5b828288018383013788828483010152806060860152508284528087013581850152839950610bf7818c0161086e565b985050505050610c0881880161086e565b93505050509250925092565b6001600160a01b03169052565b6000815180845260208085019450808401835b83811015610c7257815180516001600160a01b031688528301516bffffffffffffffffffffffff168388015260409096019590820190600101610c34565b509495945050505050565b60008151808452610c95816020860160208601610e33565b601f01601f19169290920160200192915050565b6001600160a01b0391909116815260200190565b60208082526012908201527132b9319b9918903b30b63ab29032b93937b960711b604082015260600190565b6000606082528451606083015260208086015160a06080850152610d11610100850182610c7d565b90506040870151605f19808684030160a0870152610d2f8383610c21565b925060608901519150808684030160c0870152610d4c8383610c21565b60808a015187820390920160e0880152815180825290935090840191508383019084810284018501865b82811015610da457601f19868303018452610d92828651610c7d565b94870194938701939150600101610d76565b508096505050505050610db981840186610c14565b50610dc76040830184610c14565b949350505050565b60405181810167ffffffffffffffff81118282101715610deb57fe5b604052919050565b600067ffffffffffffffff821115610e0757fe5b5060209081020190565b600067ffffffffffffffff821115610e2557fe5b50601f01601f191660200190565b60005b83811015610e4e578181015183820152602001610e36565b83811115610e5d576000848401525b50505050565b6001600160a01b03811681146101d657600080fdfe4f776e61626c653a206e6577206f776e657220697320746865207a65726f2061646472657373496e697469616c697a61626c653a20636f6e747261637420697320616c726561647920696e697469616c697a65644f776e61626c653a2063616c6c6572206973206e6f7420746865206f776e65724f70657261746f72526f6c653a2063616c6c6572206973206e6f7420746865206f70657261746f72a2646970667358221220a70ad50617bc7d86721e59644bb144857ba8df35926720d11f324896d0ef12f264736f6c63430007060033",
  "devdoc": {
    "kind": "dev",
    "methods": {
      "owner()": {
        "details": "Returns the address of the current owner."
      },
      "renounceOwnership()": {
        "details": "Leaves the contract without owner. It will not be possible to call `onlyOwner` functions anymore. Can only be called by the current owner. NOTE: Renouncing ownership will leave the contract without an owner, thereby removing any functionality that is only available to the owner."
      },
      "transferOwnership(address)": {
        "details": "Transfers ownership of the contract to a new account (`newOwner`). Can only be called by the current owner."
      }
    },
    "version": 1
  },
  "userdoc": {
    "kind": "user",
    "methods": {},
    "version": 1
  },
  "storageLayout": {
    "storage": [
      {
        "astId": 739,
        "contract": "@rarible/transfer-proxy/contracts/lazy-mint/erc721/ERC721LazyMintTransferProxy.sol:ERC721LazyMintTransferProxy",
        "label": "_initialized",
        "offset": 0,
        "slot": "0",
        "type": "t_bool"
      },
      {
        "astId": 742,
        "contract": "@rarible/transfer-proxy/contracts/lazy-mint/erc721/ERC721LazyMintTransferProxy.sol:ERC721LazyMintTransferProxy",
        "label": "_initializing",
        "offset": 1,
        "slot": "0",
        "type": "t_bool"
      },
      {
        "astId": 4256,
        "contract": "@rarible/transfer-proxy/contracts/lazy-mint/erc721/ERC721LazyMintTransferProxy.sol:ERC721LazyMintTransferProxy",
        "label": "__gap",
        "offset": 0,
        "slot": "1",
        "type": "t_array(t_uint256)50_storage"
      },
      {
        "astId": 10,
        "contract": "@rarible/transfer-proxy/contracts/lazy-mint/erc721/ERC721LazyMintTransferProxy.sol:ERC721LazyMintTransferProxy",
        "label": "_owner",
        "offset": 0,
        "slot": "51",
        "type": "t_address"
      },
      {
        "astId": 129,
        "contract": "@rarible/transfer-proxy/contracts/lazy-mint/erc721/ERC721LazyMintTransferProxy.sol:ERC721LazyMintTransferProxy",
        "label": "__gap",
        "offset": 0,
        "slot": "52",
        "type": "t_array(t_uint256)49_storage"
      },
      {
        "astId": 19884,
        "contract": "@rarible/transfer-proxy/contracts/lazy-mint/erc721/ERC721LazyMintTransferProxy.sol:ERC721LazyMintTransferProxy",
        "label": "operators",
        "offset": 0,
        "slot": "101",
        "type": "t_mapping(t_address,t_bool)"
      }
    ],
    "types": {
      "t_address": {
        "encoding": "inplace",
        "label": "address",
        "numberOfBytes": "20"
      },
      "t_array(t_uint256)49_storage": {
        "base": "t_uint256",
        "encoding": "inplace",
        "label": "uint256[49]",
        "numberOfBytes": "1568"
      },
      "t_array(t_uint256)50_storage": {
        "base": "t_uint256",
        "encoding": "inplace",
        "label": "uint256[50]",
        "numberOfBytes": "1600"
      },
      "t_bool": {
        "encoding": "inplace",
        "label": "bool",
        "numberOfBytes": "1"
      },
      "t_mapping(t_address,t_bool)": {
        "encoding": "mapping",
        "key": "t_address",
        "label": "mapping(address => bool)",
        "numberOfBytes": "32",
        "value": "t_bool"
      },
      "t_uint256": {
        "encoding": "inplace",
        "label": "uint256",
        "numberOfBytes": "32"
      }
    }
  }
}