{
  "address": "0x5Cf10DE0E37425Aaa6ABC923733bb83138f9aCce",
  "abi": [
    {
      "inputs": [],
      "stateMutability": "nonpayable",
      "type": "constructor"
    },
    {
      "inputs": [],
      "name": "CollectionAlreadyWhitelisted",
      "type": "error"
    },
    {
      "inputs": [],
      "name": "CollectionNotWhitelisted",
      "type": "error"
    },
    {
      "inputs": [],
      "name": "InvalidChainId",
      "type": "error"
    },
    {
      "inputs": [],
      "name": "InvalidCollectionAddress",
      "type": "error"
    },
    {
      "inputs": [],
      "name": "InvalidOwner",
      "type": "error"
    },
    {
      "anonymous": false,
      "inputs": [
        {
          "indexed": false,
          "internalType": "address",
          "name": "previousAdmin",
          "type": "address"
        },
        {
          "indexed": false,
          "internalType": "address",
          "name": "newAdmin",
          "type": "address"
        }
      ],
      "name": "AdminChanged",
      "type": "event"
    },
    {
      "anonymous": false,
      "inputs": [
        {
          "indexed": true,
          "internalType": "address",
          "name": "beacon",
          "type": "address"
        }
      ],
      "name": "BeaconUpgraded",
      "type": "event"
    },
    {
      "anonymous": false,
      "inputs": [
        {
          "indexed": true,
          "internalType": "address",
          "name": "collection",
          "type": "address"
        },
        {
          "indexed": true,
          "internalType": "address",
          "name": "creator",
          "type": "address"
        },
        {
          "indexed": false,
          "internalType": "uint256",
          "name": "chainId",
          "type": "uint256"
        }
      ],
      "name": "CollectionAdded",
      "type": "event"
    },
    {
      "anonymous": false,
      "inputs": [
        {
          "indexed": true,
          "internalType": "address",
          "name": "collection",
          "type": "address"
        },
        {
          "indexed": true,
          "internalType": "address",
          "name": "creator",
          "type": "address"
        },
        {
          "indexed": false,
          "internalType": "uint256",
          "name": "chainId",
          "type": "uint256"
        }
      ],
      "name": "CollectionRemoved",
      "type": "event"
    },
    {
      "anonymous": false,
      "inputs": [
        {
          "indexed": false,
          "internalType": "uint8",
          "name": "version",
          "type": "uint8"
        }
      ],
      "name": "Initialized",
      "type": "event"
    },
    {
      "anonymous": false,
      "inputs": [
        {
          "indexed": true,
          "internalType": "address",
          "name": "previousOwner",
          "type": "address"
        },
        {
          "indexed": true,
          "internalType": "address",
          "name": "newOwner",
          "type": "address"
        }
      ],
      "name": "OwnershipTransferred",
      "type": "event"
    },
    {
      "anonymous": false,
      "inputs": [
        {
          "indexed": true,
          "internalType": "bytes32",
          "name": "role",
          "type": "bytes32"
        },
        {
          "indexed": true,
          "internalType": "bytes32",
          "name": "previousAdminRole",
          "type": "bytes32"
        },
        {
          "indexed": true,
          "internalType": "bytes32",
          "name": "newAdminRole",
          "type": "bytes32"
        }
      ],
      "name": "RoleAdminChanged",
      "type": "event"
    },
    {
      "anonymous": false,
      "inputs": [
        {
          "indexed": true,
          "internalType": "bytes32",
          "name": "role",
          "type": "bytes32"
        },
        {
          "indexed": true,
          "internalType": "address",
          "name": "account",
          "type": "address"
        },
        {
          "indexed": true,
          "internalType": "address",
          "name": "sender",
          "type": "address"
        }
      ],
      "name": "RoleGranted",
      "type": "event"
    },
    {
      "anonymous": false,
      "inputs": [
        {
          "indexed": true,
          "internalType": "bytes32",
          "name": "role",
          "type": "bytes32"
        },
        {
          "indexed": true,
          "internalType": "address",
          "name": "account",
          "type": "address"
        },
        {
          "indexed": true,
          "internalType": "address",
          "name": "sender",
          "type": "address"
        }
      ],
      "name": "RoleRevoked",
      "type": "event"
    },
    {
      "anonymous": false,
      "inputs": [
        {
          "indexed": true,
          "internalType": "address",
          "name": "implementation",
          "type": "address"
        }
      ],
      "name": "Upgraded",
      "type": "event"
    },
    {
      "inputs": [],
      "name": "DEFAULT_ADMIN_ROLE",
      "outputs": [
        {
          "internalType": "bytes32",
          "name": "",
          "type": "bytes32"
        }
      ],
      "stateMutability": "view",
      "type": "function"
    },
    {
      "inputs": [],
      "name": "WL_ADMIN_ROLE",
      "outputs": [
        {
          "internalType": "bytes32",
          "name": "",
          "type": "bytes32"
        }
      ],
      "stateMutability": "view",
      "type": "function"
    },
    {
      "inputs": [
        {
          "internalType": "address",
          "name": "collection",
          "type": "address"
        },
        {
          "internalType": "address",
          "name": "creator",
          "type": "address"
        },
        {
          "internalType": "uint256",
          "name": "chainId",
          "type": "uint256"
        }
      ],
      "name": "addToWL",
      "outputs": [],
      "stateMutability": "nonpayable",
      "type": "function"
    },
    {
      "inputs": [
        {
          "internalType": "uint256",
          "name": "",
          "type": "uint256"
        },
        {
          "internalType": "address",
          "name": "",
          "type": "address"
        }
      ],
      "name": "collections",
      "outputs": [
        {
          "internalType": "address",
          "name": "creator",
          "type": "address"
        },
        {
          "internalType": "address",
          "name": "collection",
          "type": "address"
        }
      ],
      "stateMutability": "view",
      "type": "function"
    },
    {
      "inputs": [
        {
          "internalType": "address",
          "name": "collection",
          "type": "address"
        },
        {
          "internalType": "uint256",
          "name": "chainId",
          "type": "uint256"
        }
      ],
      "name": "getCollection",
      "outputs": [
        {
          "internalType": "address",
          "name": "creator",
          "type": "address"
        }
      ],
      "stateMutability": "view",
      "type": "function"
    },
    {
      "inputs": [
        {
          "internalType": "bytes32",
          "name": "role",
          "type": "bytes32"
        }
      ],
      "name": "getRoleAdmin",
      "outputs": [
        {
          "internalType": "bytes32",
          "name": "",
          "type": "bytes32"
        }
      ],
      "stateMutability": "view",
      "type": "function"
    },
    {
      "inputs": [
        {
          "internalType": "bytes32",
          "name": "role",
          "type": "bytes32"
        },
        {
          "internalType": "address",
          "name": "account",
          "type": "address"
        }
      ],
      "name": "grantRole",
      "outputs": [],
      "stateMutability": "nonpayable",
      "type": "function"
    },
    {
      "inputs": [
        {
          "internalType": "bytes32",
          "name": "role",
          "type": "bytes32"
        },
        {
          "internalType": "address",
          "name": "account",
          "type": "address"
        }
      ],
      "name": "hasRole",
      "outputs": [
        {
          "internalType": "bool",
          "name": "",
          "type": "bool"
        }
      ],
      "stateMutability": "view",
      "type": "function"
    },
    {
      "inputs": [
        {
          "internalType": "address",
          "name": "_initialOwner",
          "type": "address"
        }
      ],
      "name": "initialize",
      "outputs": [],
      "stateMutability": "nonpayable",
      "type": "function"
    },
    {
      "inputs": [],
      "name": "owner",
      "outputs": [
        {
          "internalType": "address",
          "name": "",
          "type": "address"
        }
      ],
      "stateMutability": "view",
      "type": "function"
    },
    {
      "inputs": [],
      "name": "proxiableUUID",
      "outputs": [
        {
          "internalType": "bytes32",
          "name": "",
          "type": "bytes32"
        }
      ],
      "stateMutability": "view",
      "type": "function"
    },
    {
      "inputs": [
        {
          "internalType": "address",
          "name": "collection",
          "type": "address"
        },
        {
          "internalType": "uint256",
          "name": "chainId",
          "type": "uint256"
        }
      ],
      "name": "removeFromWL",
      "outputs": [],
      "stateMutability": "nonpayable",
      "type": "function"
    },
    {
      "inputs": [],
      "name": "renounceOwnership",
      "outputs": [],
      "stateMutability": "nonpayable",
      "type": "function"
    },
    {
      "inputs": [
        {
          "internalType": "bytes32",
          "name": "role",
          "type": "bytes32"
        },
        {
          "internalType": "address",
          "name": "account",
          "type": "address"
        }
      ],
      "name": "renounceRole",
      "outputs": [],
      "stateMutability": "nonpayable",
      "type": "function"
    },
    {
      "inputs": [
        {
          "internalType": "bytes32",
          "name": "role",
          "type": "bytes32"
        },
        {
          "internalType": "address",
          "name": "account",
          "type": "address"
        }
      ],
      "name": "revokeRole",
      "outputs": [],
      "stateMutability": "nonpayable",
      "type": "function"
    },
    {
      "inputs": [
        {
          "internalType": "bytes4",
          "name": "interfaceId",
          "type": "bytes4"
        }
      ],
      "name": "supportsInterface",
      "outputs": [
        {
          "internalType": "bool",
          "name": "",
          "type": "bool"
        }
      ],
      "stateMutability": "view",
      "type": "function"
    },
    {
      "inputs": [
        {
          "internalType": "address",
          "name": "newOwner",
          "type": "address"
        }
      ],
      "name": "transferOwnership",
      "outputs": [],
      "stateMutability": "nonpayable",
      "type": "function"
    },
    {
      "inputs": [
        {
          "internalType": "address",
          "name": "newImplementation",
          "type": "address"
        }
      ],
      "name": "upgradeTo",
      "outputs": [],
      "stateMutability": "nonpayable",
      "type": "function"
    },
    {
      "inputs": [
        {
          "internalType": "address",
          "name": "newImplementation",
          "type": "address"
        },
        {
          "internalType": "bytes",
          "name": "data",
          "type": "bytes"
        }
      ],
      "name": "upgradeToAndCall",
      "outputs": [],
      "stateMutability": "payable",
      "type": "function"
    }
  ],
  "transactionHash": "0x907b4b17b53a6f9ee348a23d1605121a0e3f7bfc4ad7d8e2544bfcce54d0c1f2",
  "args": [],
  "numDeployments": 1,
  "solcInputHash": "d61b68672c7ba791981f471d22defc89",
  "bytecode": "0x60a06040523060805234801561001457600080fd5b5061001d610022565b6100e1565b600054610100900460ff161561008e5760405162461bcd60e51b815260206004820152602760248201527f496e697469616c697a61626c653a20636f6e747261637420697320696e697469604482015266616c697a696e6760c81b606482015260840160405180910390fd5b60005460ff908116146100df576000805460ff191660ff9081179091556040519081527f7f26b83ff96e1f2b6a682f133852f6798a09c465da95921460cefb38474024989060200160405180910390a15b565b60805161195e610118600039600081816104d4015281816105140152818161059c015281816105dc0152610654015261195e6000f3fe6080604052600436106100e45760003560e01c806301ffc9a7146100e95780631560ad281461011e578063248a9ca31461014e5780632f2ff15d1461016e57806336568abe146101905780633659cfe6146101b05780634f1ef286146101d057806352cb7e0a146101e357806352d1902d146102505780636b38add314610265578063715018a6146102855780638da5cb5b1461029a57806391d14854146102c7578063a217fddf146102e7578063c4d66de8146102fc578063c912414f1461031c578063ce283a841461037a578063d547741f1461039a578063f2fde38b146103ba575b600080fd5b3480156100f557600080fd5b50610109610104366004611493565b6103da565b60405190151581526020015b60405180910390f35b34801561012a57600080fd5b506101406000805160206118e283398151915281565b604051908152602001610115565b34801561015a57600080fd5b506101406101693660046114bd565b610411565b34801561017a57600080fd5b5061018e6101893660046114f2565b610426565b005b34801561019c57600080fd5b5061018e6101ab3660046114f2565b610447565b3480156101bc57600080fd5b5061018e6101cb36600461151e565b6104ca565b61018e6101de36600461154f565b610592565b3480156101ef57600080fd5b506102306101fe3660046114f2565b61015f602090815260009283526040808420909152908252902080546001909101546001600160a01b03918216911682565b604080516001600160a01b03938416815292909116602083015201610115565b34801561025c57600080fd5b50610140610647565b34801561027157600080fd5b5061018e610280366004611610565b6106f5565b34801561029157600080fd5b5061018e6107f8565b3480156102a657600080fd5b506102af61080c565b6040516001600160a01b039091168152602001610115565b3480156102d357600080fd5b506101096102e23660046114f2565b61081b565b3480156102f357600080fd5b50610140600081565b34801561030857600080fd5b5061018e61031736600461151e565b610846565b34801561032857600080fd5b506102af610337366004611610565b600090815261015f602090815260408083206001600160a01b03948516845282529182902082518084019093528054841680845260019091015490931691015290565b34801561038657600080fd5b5061018e61039536600461163a565b6109c9565b3480156103a657600080fd5b5061018e6103b53660046114f2565b610b1f565b3480156103c657600080fd5b5061018e6103d536600461151e565b610b3b565b60006001600160e01b03198216637965db0b60e01b148061040b57506301ffc9a760e01b6001600160e01b03198316145b92915050565b600090815260fb602052604090206001015490565b61042f82610411565b61043881610bb1565b6104428383610bbb565b505050565b6001600160a01b03811633146104bc5760405162461bcd60e51b815260206004820152602f60248201527f416363657373436f6e74726f6c3a2063616e206f6e6c792072656e6f756e636560448201526e103937b632b9903337b91039b2b63360891b60648201526084015b60405180910390fd5b6104c68282610c41565b5050565b6001600160a01b037f00000000000000000000000000000000000000000000000000000000000000001630036105125760405162461bcd60e51b81526004016104b390611676565b7f00000000000000000000000000000000000000000000000000000000000000006001600160a01b0316610544610ca8565b6001600160a01b03161461056a5760405162461bcd60e51b81526004016104b3906116c2565b61057381610cc4565b6040805160008082526020820190925261058f91839190610ccc565b50565b6001600160a01b037f00000000000000000000000000000000000000000000000000000000000000001630036105da5760405162461bcd60e51b81526004016104b390611676565b7f00000000000000000000000000000000000000000000000000000000000000006001600160a01b031661060c610ca8565b6001600160a01b0316146106325760405162461bcd60e51b81526004016104b3906116c2565b61063b82610cc4565b6104c682826001610ccc565b6000306001600160a01b037f000000000000000000000000000000000000000000000000000000000000000016146106e25760405162461bcd60e51b815260206004820152603860248201527f555550535570677261646561626c653a206d757374206e6f742062652063616c6044820152771b1959081d1a1c9bdd59da0819195b1959d85d1958d85b1b60421b60648201526084016104b3565b506000805160206118c283398151915290565b6106fd610e37565b6000805160206118e283398151915261071581610bb1565b600082815261015f602090815260408083206001600160a01b0387811685529252909120541661075857604051632f579acf60e11b815260040160405180910390fd5b600082815261015f602090815260408083206001600160a01b038781168086528285528386208451808601865281548085168252600183018054808716848b0152998590529588526001600160a01b031990811690925596169092558451925187815292169290917f45b5631a30caa1353ec620f8ee598dcfb836c2ba2f9c576d2e70b2418e474f39910160405180910390a350506104c6600161012d55565b610800610e9a565b61080a6000610ef9565b565b6097546001600160a01b031690565b600091825260fb602090815260408084206001600160a01b0393909316845291905290205460ff1690565b600054610100900460ff16158080156108665750600054600160ff909116105b80610887575061087530610f4b565b158015610887575060005460ff166001145b6108ea5760405162461bcd60e51b815260206004820152602e60248201527f496e697469616c697a61626c653a20636f6e747261637420697320616c72656160448201526d191e481a5b9a5d1a585b1a5e995960921b60648201526084016104b3565b6000805460ff19166001179055801561090d576000805461ff0019166101001790555b6001600160a01b038216610934576040516349e27cff60e01b815260040160405180910390fd5b61093c610f5a565b610944610f89565b61094c610fb0565b610954610f89565b61095f600083610fdf565b6109776000805160206118e283398151915283610fdf565b61098082610b3b565b80156104c6576000805461ff0019169055604051600181527f7f26b83ff96e1f2b6a682f133852f6798a09c465da95921460cefb38474024989060200160405180910390a15050565b6109d1610e37565b6000805160206118e28339815191526109e981610bb1565b6001600160a01b038416610a105760405163db781b8360e01b815260040160405180910390fd5b600082815261015f602090815260408083206001600160a01b0388811685529252909120541615610a5457604051636522d58760e11b815260040160405180910390fd5b81600003610a7557604051633d23e4d160e11b815260040160405180910390fd5b6040805180820182526001600160a01b038086168083528782166020808501828152600089815261015f835287812084825290925290869020945185549085166001600160a01b03199182161786559051600190950180549590941694169390931790915591517f2a5e614d870607e6f8e37faa3d03029a584442d1ce60b3b292851a04452a95da90610b0b9086815260200190565b60405180910390a350610442600161012d55565b610b2882610411565b610b3181610bb1565b6104428383610c41565b610b43610e9a565b6001600160a01b038116610ba85760405162461bcd60e51b815260206004820152602660248201527f4f776e61626c653a206e6577206f776e657220697320746865207a65726f206160448201526564647265737360d01b60648201526084016104b3565b61058f81610ef9565b61058f8133610fe9565b610bc5828261081b565b6104c657600082815260fb602090815260408083206001600160a01b03851684529091529020805460ff19166001179055610bfd3390565b6001600160a01b0316816001600160a01b0316837f2f8788117e7eff1d82e926ec794901d17c78024a50270940304540a733656f0d60405160405180910390a45050565b610c4b828261081b565b156104c657600082815260fb602090815260408083206001600160a01b0385168085529252808320805460ff1916905551339285917ff6391f5c32d9c69d2a47ea670b442974b53935d1edc7fd64eb21e047a839171b9190a45050565b6000805160206118c2833981519152546001600160a01b031690565b61058f610e9a565b7f4910fdfa16fed3260ed0e7147f7cc6da11a60208b5b9406d12a635614ffd91435460ff1615610cff5761044283611042565b826001600160a01b03166352d1902d6040518163ffffffff1660e01b8152600401602060405180830381865afa925050508015610d59575060408051601f3d908101601f19168201909252610d569181019061170e565b60015b610dbc5760405162461bcd60e51b815260206004820152602e60248201527f45524331393637557067726164653a206e657720696d706c656d656e7461746960448201526d6f6e206973206e6f74205555505360901b60648201526084016104b3565b6000805160206118c28339815191528114610e2b5760405162461bcd60e51b815260206004820152602960248201527f45524331393637557067726164653a20756e737570706f727465642070726f786044820152681a58589b195555525160ba1b60648201526084016104b3565b506104428383836110dc565b600261012d5403610e8a5760405162461bcd60e51b815260206004820152601f60248201527f5265656e7472616e637947756172643a207265656e7472616e742063616c6c0060448201526064016104b3565b600261012d55565b600161012d55565b33610ea361080c565b6001600160a01b03161461080a5760405162461bcd60e51b815260206004820181905260248201527f4f776e61626c653a2063616c6c6572206973206e6f7420746865206f776e657260448201526064016104b3565b609780546001600160a01b038381166001600160a01b0319831681179093556040519116919082907f8be0079c531659141344cd1fd0a4f28419497f9722a3daafe3b4186f6b6457e090600090a35050565b6001600160a01b03163b151590565b600054610100900460ff16610f815760405162461bcd60e51b81526004016104b390611727565b61080a611107565b600054610100900460ff1661080a5760405162461bcd60e51b81526004016104b390611727565b600054610100900460ff16610fd75760405162461bcd60e51b81526004016104b390611727565b61080a611137565b6104c68282610bbb565b610ff3828261081b565b6104c6576110008161115e565b61100b836020611170565b60405160200161101c929190611796565b60408051601f198184030181529082905262461bcd60e51b82526104b391600401611805565b61104b81610f4b565b6110ad5760405162461bcd60e51b815260206004820152602d60248201527f455243313936373a206e657720696d706c656d656e746174696f6e206973206e60448201526c1bdd08184818dbdb9d1c9858dd609a1b60648201526084016104b3565b6000805160206118c283398151915280546001600160a01b0319166001600160a01b0392909216919091179055565b6110e583611312565b6000825111806110f25750805b15610442576111018383611352565b50505050565b600054610100900460ff1661112e5760405162461bcd60e51b81526004016104b390611727565b61080a33610ef9565b600054610100900460ff16610e925760405162461bcd60e51b81526004016104b390611727565b606061040b6001600160a01b03831660145b6060600061117f83600261184e565b61118a906002611865565b6001600160401b038111156111a1576111a1611539565b6040519080825280601f01601f1916602001820160405280156111cb576020820181803683370190505b509050600360fc1b816000815181106111e6576111e6611878565b60200101906001600160f81b031916908160001a905350600f60fb1b8160018151811061121557611215611878565b60200101906001600160f81b031916908160001a905350600061123984600261184e565b611244906001611865565b90505b60018111156112bc576f181899199a1a9b1b9c1cb0b131b232b360811b85600f166010811061127857611278611878565b1a60f81b82828151811061128e5761128e611878565b60200101906001600160f81b031916908160001a90535060049490941c936112b58161188e565b9050611247565b50831561130b5760405162461bcd60e51b815260206004820181905260248201527f537472696e67733a20686578206c656e67746820696e73756666696369656e7460448201526064016104b3565b9392505050565b61131b81611042565b6040516001600160a01b038216907fbc7cd75a20ee27fd9adebab32041f755214dbc6bffa90cc0225b39da2e5c2d3b90600090a250565b606061130b8383604051806060016040528060278152602001611902602791396060600080856001600160a01b03168560405161138f91906118a5565b600060405180830381855af49150503d80600081146113ca576040519150601f19603f3d011682016040523d82523d6000602084013e6113cf565b606091505b50915091506113e0868383876113ea565b9695505050505050565b606083156114575782516000036114505761140485610f4b565b6114505760405162461bcd60e51b815260206004820152601d60248201527f416464726573733a2063616c6c20746f206e6f6e2d636f6e747261637400000060448201526064016104b3565b5081611461565b6114618383611469565b949350505050565b8151156114795781518083602001fd5b8060405162461bcd60e51b81526004016104b39190611805565b6000602082840312156114a557600080fd5b81356001600160e01b03198116811461130b57600080fd5b6000602082840312156114cf57600080fd5b5035919050565b80356001600160a01b03811681146114ed57600080fd5b919050565b6000806040838503121561150557600080fd5b82359150611515602084016114d6565b90509250929050565b60006020828403121561153057600080fd5b61130b826114d6565b634e487b7160e01b600052604160045260246000fd5b6000806040838503121561156257600080fd5b61156b836114d6565b915060208301356001600160401b038082111561158757600080fd5b818501915085601f83011261159b57600080fd5b8135818111156115ad576115ad611539565b604051601f8201601f19908116603f011681019083821181831017156115d5576115d5611539565b816040528281528860208487010111156115ee57600080fd5b8260208601602083013760006020848301015280955050505050509250929050565b6000806040838503121561162357600080fd5b61162c836114d6565b946020939093013593505050565b60008060006060848603121561164f57600080fd5b611658846114d6565b9250611666602085016114d6565b9150604084013590509250925092565b6020808252602c908201527f46756e6374696f6e206d7573742062652063616c6c6564207468726f7567682060408201526b19195b1959d85d1958d85b1b60a21b606082015260800190565b6020808252602c908201527f46756e6374696f6e206d7573742062652063616c6c6564207468726f7567682060408201526b6163746976652070726f787960a01b606082015260800190565b60006020828403121561172057600080fd5b5051919050565b6020808252602b908201527f496e697469616c697a61626c653a20636f6e7472616374206973206e6f74206960408201526a6e697469616c697a696e6760a81b606082015260800190565b60005b8381101561178d578181015183820152602001611775565b50506000910152565b76020b1b1b2b9b9a1b7b73a3937b61d1030b1b1b7bab73a1604d1b8152600083516117c8816017850160208801611772565b7001034b99036b4b9b9b4b733903937b6329607d1b60179184019182015283516117f9816028840160208801611772565b01602801949350505050565b6020815260008251806020840152611824816040850160208701611772565b601f01601f19169190910160400192915050565b634e487b7160e01b600052601160045260246000fd5b808202811582820484141761040b5761040b611838565b8082018082111561040b5761040b611838565b634e487b7160e01b600052603260045260246000fd5b60008161189d5761189d611838565b506000190190565b600082516118b7818460208701611772565b919091019291505056fe360894a13ba1a3210667c828492db98dca3e2076cc3735a920a3ca505d382bbc890890e02be6a0b8e1b70730bcef8a1c3cf7e7736f24f1faf9db9c6c31b69317416464726573733a206c6f772d6c6576656c2064656c65676174652063616c6c206661696c6564a26469706673582212208baa657dd6235843d01b2069cfc1e402e9686816f1d23c96147c25d6b286de4e64736f6c63430008170033",
  "devdoc": {
    "events": {
      "AdminChanged(address,address)": {
        "details": "Emitted when the admin account has changed."
      },
      "BeaconUpgraded(address)": {
        "details": "Emitted when the beacon is changed."
      },
      "Initialized(uint8)": {
        "details": "Triggered when the contract has been initialized or reinitialized."
      },
      "RoleAdminChanged(bytes32,bytes32,bytes32)": {
        "details": "Emitted when `newAdminRole` is set as ``role``'s admin role, replacing `previousAdminRole` `DEFAULT_ADMIN_ROLE` is the starting admin for all roles, despite {RoleAdminChanged} not being emitted signaling this. _Available since v3.1._"
      },
      "RoleGranted(bytes32,address,address)": {
        "details": "Emitted when `account` is granted `role`. `sender` is the account that originated the contract call, an admin role bearer except when using {AccessControl-_setupRole}."
      },
      "RoleRevoked(bytes32,address,address)": {
        "details": "Emitted when `account` is revoked `role`. `sender` is the account that originated the contract call:   - if using `revokeRole`, it is the admin role bearer   - if using `renounceRole`, it is the role bearer (i.e. `account`)"
      },
      "Upgraded(address)": {
        "details": "Emitted when the implementation is upgraded."
      }
    },
    "kind": "dev",
    "methods": {
      "addToWL(address,address,uint256)": {
        "params": {
          "chainId": "The chainId associated with the collection.",
          "collection": "The collection address.",
          "creator": "The creator of the collection."
        }
      },
      "constructor": {
        "custom:oz-upgrades-unsafe-allow": "constructor"
      },
      "getCollection(address,uint256)": {
        "params": {
          "chainId": "The chainId associated with the collection.",
          "collection": "The collection address."
        },
        "returns": {
          "creator": "The creator of the collection."
        }
      },
      "getRoleAdmin(bytes32)": {
        "details": "Returns the admin role that controls `role`. See {grantRole} and {revokeRole}. To change a role's admin, use {_setRoleAdmin}."
      },
      "grantRole(bytes32,address)": {
        "details": "Grants `role` to `account`. If `account` had not been already granted `role`, emits a {RoleGranted} event. Requirements: - the caller must have ``role``'s admin role. May emit a {RoleGranted} event."
      },
      "hasRole(bytes32,address)": {
        "details": "Returns `true` if `account` has been granted `role`."
      },
      "owner()": {
        "details": "Returns the address of the current owner."
      },
      "proxiableUUID()": {
        "details": "Implementation of the ERC1822 {proxiableUUID} function. This returns the storage slot used by the implementation. It is used to validate the implementation's compatibility when performing an upgrade. IMPORTANT: A proxy pointing at a proxiable contract should not be considered proxiable itself, because this risks bricking a proxy that upgrades to it, by delegating to itself until out of gas. Thus it is critical that this function revert if invoked through a proxy. This is guaranteed by the `notDelegated` modifier."
      },
      "removeFromWL(address,uint256)": {
        "params": {
          "chainId": "The chainId associated with the collection.",
          "collection": "The collection address."
        }
      },
      "renounceOwnership()": {
        "details": "Leaves the contract without owner. It will not be possible to call `onlyOwner` functions. Can only be called by the current owner. NOTE: Renouncing ownership will leave the contract without an owner, thereby disabling any functionality that is only available to the owner."
      },
      "renounceRole(bytes32,address)": {
        "details": "Revokes `role` from the calling account. Roles are often managed via {grantRole} and {revokeRole}: this function's purpose is to provide a mechanism for accounts to lose their privileges if they are compromised (such as when a trusted device is misplaced). If the calling account had been revoked `role`, emits a {RoleRevoked} event. Requirements: - the caller must be `account`. May emit a {RoleRevoked} event."
      },
      "revokeRole(bytes32,address)": {
        "details": "Revokes `role` from `account`. If `account` had been granted `role`, emits a {RoleRevoked} event. Requirements: - the caller must have ``role``'s admin role. May emit a {RoleRevoked} event."
      },
      "supportsInterface(bytes4)": {
        "details": "See {IERC165-supportsInterface}."
      },
      "transferOwnership(address)": {
        "details": "Transfers ownership of the contract to a new account (`newOwner`). Can only be called by the current owner."
      },
      "upgradeTo(address)": {
        "custom:oz-upgrades-unsafe-allow-reachable": "delegatecall",
        "details": "Upgrade the implementation of the proxy to `newImplementation`. Calls {_authorizeUpgrade}. Emits an {Upgraded} event."
      },
      "upgradeToAndCall(address,bytes)": {
        "custom:oz-upgrades-unsafe-allow-reachable": "delegatecall",
        "details": "Upgrade the implementation of the proxy to `newImplementation`, and subsequently execute the function call encoded in `data`. Calls {_authorizeUpgrade}. Emits an {Upgraded} event."
      }
    },
    "version": 1
  },
  "userdoc": {
    "kind": "user",
    "methods": {
      "addToWL(address,address,uint256)": {
        "notice": "Adds a collection to the whitelist for a specific chainId."
      },
      "getCollection(address,uint256)": {
        "notice": "Returns info about a collection for a specific chainId."
      },
      "removeFromWL(address,uint256)": {
        "notice": "Removes a collection from the whitelist for a specific chainId. Only WL_ADMIN_ROLE can call this."
      }
    },
    "version": 1
  },
  "storageLayout": {
    "storage": [
      {
        "astId": 934,
        "contract": "src/WLCollectionRegistry.sol:WLCollectionRegistry",
        "label": "_initialized",
        "offset": 0,
        "slot": "0",
        "type": "t_uint8"
      },
      {
        "astId": 937,
        "contract": "src/WLCollectionRegistry.sol:WLCollectionRegistry",
        "label": "_initializing",
        "offset": 1,
        "slot": "0",
        "type": "t_bool"
      },
      {
        "astId": 916,
        "contract": "src/WLCollectionRegistry.sol:WLCollectionRegistry",
        "label": "__gap",
        "offset": 0,
        "slot": "1",
        "type": "t_array(t_uint256)50_storage"
      },
      {
        "astId": 1232,
        "contract": "src/WLCollectionRegistry.sol:WLCollectionRegistry",
        "label": "__gap",
        "offset": 0,
        "slot": "51",
        "type": "t_array(t_uint256)50_storage"
      },
      {
        "astId": 3411,
        "contract": "src/WLCollectionRegistry.sol:WLCollectionRegistry",
        "label": "__gap",
        "offset": 0,
        "slot": "101",
        "type": "t_array(t_uint256)50_storage"
      },
      {
        "astId": 421,
        "contract": "src/WLCollectionRegistry.sol:WLCollectionRegistry",
        "label": "_owner",
        "offset": 0,
        "slot": "151",
        "type": "t_address"
      },
      {
        "astId": 541,
        "contract": "src/WLCollectionRegistry.sol:WLCollectionRegistry",
        "label": "__gap",
        "offset": 0,
        "slot": "152",
        "type": "t_array(t_uint256)49_storage"
      },
      {
        "astId": 3795,
        "contract": "src/WLCollectionRegistry.sol:WLCollectionRegistry",
        "label": "__gap",
        "offset": 0,
        "slot": "201",
        "type": "t_array(t_uint256)50_storage"
      },
      {
        "astId": 28,
        "contract": "src/WLCollectionRegistry.sol:WLCollectionRegistry",
        "label": "_roles",
        "offset": 0,
        "slot": "251",
        "type": "t_mapping(t_bytes32,t_struct(RoleData)23_storage)"
      },
      {
        "astId": 335,
        "contract": "src/WLCollectionRegistry.sol:WLCollectionRegistry",
        "label": "__gap",
        "offset": 0,
        "slot": "252",
        "type": "t_array(t_uint256)49_storage"
      },
      {
        "astId": 1376,
        "contract": "src/WLCollectionRegistry.sol:WLCollectionRegistry",
        "label": "_status",
        "offset": 0,
        "slot": "301",
        "type": "t_uint256"
      },
      {
        "astId": 1445,
        "contract": "src/WLCollectionRegistry.sol:WLCollectionRegistry",
        "label": "__gap",
        "offset": 0,
        "slot": "302",
        "type": "t_array(t_uint256)49_storage"
      },
      {
        "astId": 21728,
        "contract": "src/WLCollectionRegistry.sol:WLCollectionRegistry",
        "label": "collections",
        "offset": 0,
        "slot": "351",
        "type": "t_mapping(t_uint256,t_mapping(t_address,t_struct(Collection)21721_storage))"
      },
      {
        "astId": 21950,
        "contract": "src/WLCollectionRegistry.sol:WLCollectionRegistry",
        "label": "__gap",
        "offset": 0,
        "slot": "352",
        "type": "t_array(t_uint256)50_storage"
      }
    ],
    "types": {
      "t_address": {
        "encoding": "inplace",
        "label": "address",
        "numberOfBytes": "20"
      },
      "t_array(t_uint256)49_storage": {
        "base": "t_uint256",
        "encoding": "inplace",
        "label": "uint256[49]",
        "numberOfBytes": "1568"
      },
      "t_array(t_uint256)50_storage": {
        "base": "t_uint256",
        "encoding": "inplace",
        "label": "uint256[50]",
        "numberOfBytes": "1600"
      },
      "t_bool": {
        "encoding": "inplace",
        "label": "bool",
        "numberOfBytes": "1"
      },
      "t_bytes32": {
        "encoding": "inplace",
        "label": "bytes32",
        "numberOfBytes": "32"
      },
      "t_mapping(t_address,t_bool)": {
        "encoding": "mapping",
        "key": "t_address",
        "label": "mapping(address => bool)",
        "numberOfBytes": "32",
        "value": "t_bool"
      },
      "t_mapping(t_address,t_struct(Collection)21721_storage)": {
        "encoding": "mapping",
        "key": "t_address",
        "label": "mapping(address => struct WLCollectionRegistry.Collection)",
        "numberOfBytes": "32",
        "value": "t_struct(Collection)21721_storage"
      },
      "t_mapping(t_bytes32,t_struct(RoleData)23_storage)": {
        "encoding": "mapping",
        "key": "t_bytes32",
        "label": "mapping(bytes32 => struct AccessControlUpgradeable.RoleData)",
        "numberOfBytes": "32",
        "value": "t_struct(RoleData)23_storage"
      },
      "t_mapping(t_uint256,t_mapping(t_address,t_struct(Collection)21721_storage))": {
        "encoding": "mapping",
        "key": "t_uint256",
        "label": "mapping(uint256 => mapping(address => struct WLCollectionRegistry.Collection))",
        "numberOfBytes": "32",
        "value": "t_mapping(t_address,t_struct(Collection)21721_storage)"
      },
      "t_struct(Collection)21721_storage": {
        "encoding": "inplace",
        "label": "struct WLCollectionRegistry.Collection",
        "members": [
          {
            "astId": 21718,
            "contract": "src/WLCollectionRegistry.sol:WLCollectionRegistry",
            "label": "creator",
            "offset": 0,
            "slot": "0",
            "type": "t_address"
          },
          {
            "astId": 21720,
            "contract": "src/WLCollectionRegistry.sol:WLCollectionRegistry",
            "label": "collection",
            "offset": 0,
            "slot": "1",
            "type": "t_address"
          }
        ],
        "numberOfBytes": "64"
      },
      "t_struct(RoleData)23_storage": {
        "encoding": "inplace",
        "label": "struct AccessControlUpgradeable.RoleData",
        "members": [
          {
            "astId": 20,
            "contract": "src/WLCollectionRegistry.sol:WLCollectionRegistry",
            "label": "members",
            "offset": 0,
            "slot": "0",
            "type": "t_mapping(t_address,t_bool)"
          },
          {
            "astId": 22,
            "contract": "src/WLCollectionRegistry.sol:WLCollectionRegistry",
            "label": "adminRole",
            "offset": 0,
            "slot": "1",
            "type": "t_bytes32"
          }
        ],
        "numberOfBytes": "64"
      },
      "t_uint256": {
        "encoding": "inplace",
        "label": "uint256",
        "numberOfBytes": "32"
      },
      "t_uint8": {
        "encoding": "inplace",
        "label": "uint8",
        "numberOfBytes": "1"
      }
    }
  }
}