{
  "address": "0x0bb51a7230d9BFff7e302D4b911a57bb56C6a637",
  "abi": [
    {
      "inputs": [],
      "stateMutability": "nonpayable",
      "type": "constructor"
    },
    {
      "inputs": [],
      "name": "CollectionNotWhitelisted",
      "type": "error"
    },
    {
      "inputs": [],
      "name": "IncorrectNativeAmount",
      "type": "error"
    },
    {
      "inputs": [],
      "name": "InvalidChainId",
      "type": "error"
    },
    {
      "inputs": [],
      "name": "InvalidCollectionAddress",
      "type": "error"
    },
    {
      "inputs": [],
      "name": "InvalidOwner",
      "type": "error"
    },
    {
      "inputs": [],
      "name": "InvalidTokenAddress",
      "type": "error"
    },
    {
      "inputs": [],
      "name": "InvalidTreasury",
      "type": "error"
    },
    {
      "inputs": [],
      "name": "NotCreatorNorAdmin",
      "type": "error"
    },
    {
      "inputs": [],
      "name": "PriceMustBeGreaterThanZero",
      "type": "error"
    },
    {
      "inputs": [],
      "name": "RegistryNotSet",
      "type": "error"
    },
    {
      "inputs": [],
      "name": "TreasuryNotSet",
      "type": "error"
    },
    {
      "inputs": [],
      "name": "UnexpectedNativeValue",
      "type": "error"
    },
    {
      "inputs": [],
      "name": "WLTokenNotSetOrNativeDisabled",
      "type": "error"
    },
    {
      "inputs": [],
      "name": "ZeroRegistryAddress",
      "type": "error"
    },
    {
      "anonymous": false,
      "inputs": [
        {
          "indexed": false,
          "internalType": "address",
          "name": "previousAdmin",
          "type": "address"
        },
        {
          "indexed": false,
          "internalType": "address",
          "name": "newAdmin",
          "type": "address"
        }
      ],
      "name": "AdminChanged",
      "type": "event"
    },
    {
      "anonymous": false,
      "inputs": [
        {
          "indexed": true,
          "internalType": "address",
          "name": "beacon",
          "type": "address"
        }
      ],
      "name": "BeaconUpgraded",
      "type": "event"
    },
    {
      "anonymous": false,
      "inputs": [
        {
          "indexed": false,
          "internalType": "uint8",
          "name": "version",
          "type": "uint8"
        }
      ],
      "name": "Initialized",
      "type": "event"
    },
    {
      "anonymous": false,
      "inputs": [
        {
          "indexed": false,
          "internalType": "uint256",
          "name": "oldPrice",
          "type": "uint256"
        },
        {
          "indexed": false,
          "internalType": "uint256",
          "name": "newPrice",
          "type": "uint256"
        }
      ],
      "name": "NativeWLPriceSet",
      "type": "event"
    },
    {
      "anonymous": false,
      "inputs": [
        {
          "indexed": true,
          "internalType": "address",
          "name": "previousOwner",
          "type": "address"
        },
        {
          "indexed": true,
          "internalType": "address",
          "name": "newOwner",
          "type": "address"
        }
      ],
      "name": "OwnershipTransferred",
      "type": "event"
    },
    {
      "anonymous": false,
      "inputs": [
        {
          "indexed": false,
          "internalType": "address",
          "name": "account",
          "type": "address"
        }
      ],
      "name": "Paused",
      "type": "event"
    },
    {
      "anonymous": false,
      "inputs": [
        {
          "indexed": false,
          "internalType": "bool",
          "name": "payWithNative",
          "type": "bool"
        }
      ],
      "name": "PayWithNativeSet",
      "type": "event"
    },
    {
      "anonymous": false,
      "inputs": [
        {
          "indexed": true,
          "internalType": "bytes32",
          "name": "role",
          "type": "bytes32"
        },
        {
          "indexed": true,
          "internalType": "bytes32",
          "name": "previousAdminRole",
          "type": "bytes32"
        },
        {
          "indexed": true,
          "internalType": "bytes32",
          "name": "newAdminRole",
          "type": "bytes32"
        }
      ],
      "name": "RoleAdminChanged",
      "type": "event"
    },
    {
      "anonymous": false,
      "inputs": [
        {
          "indexed": true,
          "internalType": "bytes32",
          "name": "role",
          "type": "bytes32"
        },
        {
          "indexed": true,
          "internalType": "address",
          "name": "account",
          "type": "address"
        },
        {
          "indexed": true,
          "internalType": "address",
          "name": "sender",
          "type": "address"
        }
      ],
      "name": "RoleGranted",
      "type": "event"
    },
    {
      "anonymous": false,
      "inputs": [
        {
          "indexed": true,
          "internalType": "bytes32",
          "name": "role",
          "type": "bytes32"
        },
        {
          "indexed": true,
          "internalType": "address",
          "name": "account",
          "type": "address"
        },
        {
          "indexed": true,
          "internalType": "address",
          "name": "sender",
          "type": "address"
        }
      ],
      "name": "RoleRevoked",
      "type": "event"
    },
    {
      "anonymous": false,
      "inputs": [
        {
          "indexed": true,
          "internalType": "address",
          "name": "oldTreasury",
          "type": "address"
        },
        {
          "indexed": true,
          "internalType": "address",
          "name": "newTreasury",
          "type": "address"
        }
      ],
      "name": "TreasurySet",
      "type": "event"
    },
    {
      "anonymous": false,
      "inputs": [
        {
          "indexed": false,
          "internalType": "address",
          "name": "account",
          "type": "address"
        }
      ],
      "name": "Unpaused",
      "type": "event"
    },
    {
      "anonymous": false,
      "inputs": [
        {
          "indexed": true,
          "internalType": "address",
          "name": "implementation",
          "type": "address"
        }
      ],
      "name": "Upgraded",
      "type": "event"
    },
    {
      "anonymous": false,
      "inputs": [
        {
          "indexed": true,
          "internalType": "address",
          "name": "oldRegistry",
          "type": "address"
        },
        {
          "indexed": true,
          "internalType": "address",
          "name": "newRegistry",
          "type": "address"
        }
      ],
      "name": "WLCollectionRegistrySet",
      "type": "event"
    },
    {
      "anonymous": false,
      "inputs": [
        {
          "indexed": false,
          "internalType": "uint256",
          "name": "oldPrice",
          "type": "uint256"
        },
        {
          "indexed": false,
          "internalType": "uint256",
          "name": "newPrice",
          "type": "uint256"
        }
      ],
      "name": "WLPriceSet",
      "type": "event"
    },
    {
      "anonymous": false,
      "inputs": [
        {
          "indexed": true,
          "internalType": "address",
          "name": "oldToken",
          "type": "address"
        },
        {
          "indexed": true,
          "internalType": "address",
          "name": "newToken",
          "type": "address"
        }
      ],
      "name": "WLTokenSet",
      "type": "event"
    },
    {
      "inputs": [],
      "name": "DEFAULT_ADMIN_ROLE",
      "outputs": [
        {
          "internalType": "bytes32",
          "name": "",
          "type": "bytes32"
        }
      ],
      "stateMutability": "view",
      "type": "function"
    },
    {
      "inputs": [],
      "name": "WL_ADMIN_ROLE",
      "outputs": [
        {
          "internalType": "bytes32",
          "name": "",
          "type": "bytes32"
        }
      ],
      "stateMutability": "view",
      "type": "function"
    },
    {
      "inputs": [
        {
          "internalType": "address",
          "name": "collection",
          "type": "address"
        },
        {
          "internalType": "uint256",
          "name": "chainId",
          "type": "uint256"
        }
      ],
      "name": "addToWL",
      "outputs": [],
      "stateMutability": "payable",
      "type": "function"
    },
    {
      "inputs": [
        {
          "internalType": "bytes32",
          "name": "role",
          "type": "bytes32"
        }
      ],
      "name": "getRoleAdmin",
      "outputs": [
        {
          "internalType": "bytes32",
          "name": "",
          "type": "bytes32"
        }
      ],
      "stateMutability": "view",
      "type": "function"
    },
    {
      "inputs": [
        {
          "internalType": "bytes32",
          "name": "role",
          "type": "bytes32"
        },
        {
          "internalType": "address",
          "name": "account",
          "type": "address"
        }
      ],
      "name": "grantRole",
      "outputs": [],
      "stateMutability": "nonpayable",
      "type": "function"
    },
    {
      "inputs": [
        {
          "internalType": "bytes32",
          "name": "role",
          "type": "bytes32"
        },
        {
          "internalType": "address",
          "name": "account",
          "type": "address"
        }
      ],
      "name": "hasRole",
      "outputs": [
        {
          "internalType": "bool",
          "name": "",
          "type": "bool"
        }
      ],
      "stateMutability": "view",
      "type": "function"
    },
    {
      "inputs": [
        {
          "internalType": "address",
          "name": "_initialOwner",
          "type": "address"
        },
        {
          "internalType": "address",
          "name": "_initialTreasury",
          "type": "address"
        }
      ],
      "name": "initialize",
      "outputs": [],
      "stateMutability": "nonpayable",
      "type": "function"
    },
    {
      "inputs": [],
      "name": "nativeWlPrice",
      "outputs": [
        {
          "internalType": "uint256",
          "name": "",
          "type": "uint256"
        }
      ],
      "stateMutability": "view",
      "type": "function"
    },
    {
      "inputs": [],
      "name": "owner",
      "outputs": [
        {
          "internalType": "address",
          "name": "",
          "type": "address"
        }
      ],
      "stateMutability": "view",
      "type": "function"
    },
    {
      "inputs": [],
      "name": "pause",
      "outputs": [],
      "stateMutability": "nonpayable",
      "type": "function"
    },
    {
      "inputs": [],
      "name": "paused",
      "outputs": [
        {
          "internalType": "bool",
          "name": "",
          "type": "bool"
        }
      ],
      "stateMutability": "view",
      "type": "function"
    },
    {
      "inputs": [],
      "name": "payWithNative",
      "outputs": [
        {
          "internalType": "bool",
          "name": "",
          "type": "bool"
        }
      ],
      "stateMutability": "view",
      "type": "function"
    },
    {
      "inputs": [],
      "name": "proxiableUUID",
      "outputs": [
        {
          "internalType": "bytes32",
          "name": "",
          "type": "bytes32"
        }
      ],
      "stateMutability": "view",
      "type": "function"
    },
    {
      "inputs": [
        {
          "internalType": "address",
          "name": "collection",
          "type": "address"
        },
        {
          "internalType": "uint256",
          "name": "chainId",
          "type": "uint256"
        }
      ],
      "name": "removeFromWL",
      "outputs": [],
      "stateMutability": "nonpayable",
      "type": "function"
    },
    {
      "inputs": [],
      "name": "renounceOwnership",
      "outputs": [],
      "stateMutability": "nonpayable",
      "type": "function"
    },
    {
      "inputs": [
        {
          "internalType": "bytes32",
          "name": "role",
          "type": "bytes32"
        },
        {
          "internalType": "address",
          "name": "account",
          "type": "address"
        }
      ],
      "name": "renounceRole",
      "outputs": [],
      "stateMutability": "nonpayable",
      "type": "function"
    },
    {
      "inputs": [
        {
          "internalType": "bytes32",
          "name": "role",
          "type": "bytes32"
        },
        {
          "internalType": "address",
          "name": "account",
          "type": "address"
        }
      ],
      "name": "revokeRole",
      "outputs": [],
      "stateMutability": "nonpayable",
      "type": "function"
    },
    {
      "inputs": [
        {
          "internalType": "uint256",
          "name": "_price",
          "type": "uint256"
        }
      ],
      "name": "setNativeWLPrice",
      "outputs": [],
      "stateMutability": "nonpayable",
      "type": "function"
    },
    {
      "inputs": [
        {
          "internalType": "bool",
          "name": "_payWithNative",
          "type": "bool"
        }
      ],
      "name": "setPayWithNative",
      "outputs": [],
      "stateMutability": "nonpayable",
      "type": "function"
    },
    {
      "inputs": [
        {
          "internalType": "address",
          "name": "_treasury",
          "type": "address"
        }
      ],
      "name": "setTreasuryAddress",
      "outputs": [],
      "stateMutability": "nonpayable",
      "type": "function"
    },
    {
      "inputs": [
        {
          "internalType": "address",
          "name": "_wlCollectionRegistry",
          "type": "address"
        }
      ],
      "name": "setWLCollectionRegistry",
      "outputs": [],
      "stateMutability": "nonpayable",
      "type": "function"
    },
    {
      "inputs": [
        {
          "internalType": "uint256",
          "name": "_price",
          "type": "uint256"
        }
      ],
      "name": "setWLPrice",
      "outputs": [],
      "stateMutability": "nonpayable",
      "type": "function"
    },
    {
      "inputs": [
        {
          "internalType": "address",
          "name": "_wlToken",
          "type": "address"
        }
      ],
      "name": "setWLToken",
      "outputs": [],
      "stateMutability": "nonpayable",
      "type": "function"
    },
    {
      "inputs": [
        {
          "internalType": "bytes4",
          "name": "interfaceId",
          "type": "bytes4"
        }
      ],
      "name": "supportsInterface",
      "outputs": [
        {
          "internalType": "bool",
          "name": "",
          "type": "bool"
        }
      ],
      "stateMutability": "view",
      "type": "function"
    },
    {
      "inputs": [
        {
          "internalType": "address",
          "name": "newOwner",
          "type": "address"
        }
      ],
      "name": "transferOwnership",
      "outputs": [],
      "stateMutability": "nonpayable",
      "type": "function"
    },
    {
      "inputs": [],
      "name": "treasury",
      "outputs": [
        {
          "internalType": "address",
          "name": "",
          "type": "address"
        }
      ],
      "stateMutability": "view",
      "type": "function"
    },
    {
      "inputs": [],
      "name": "unpause",
      "outputs": [],
      "stateMutability": "nonpayable",
      "type": "function"
    },
    {
      "inputs": [
        {
          "internalType": "address",
          "name": "newImplementation",
          "type": "address"
        }
      ],
      "name": "upgradeTo",
      "outputs": [],
      "stateMutability": "nonpayable",
      "type": "function"
    },
    {
      "inputs": [
        {
          "internalType": "address",
          "name": "newImplementation",
          "type": "address"
        },
        {
          "internalType": "bytes",
          "name": "data",
          "type": "bytes"
        }
      ],
      "name": "upgradeToAndCall",
      "outputs": [],
      "stateMutability": "payable",
      "type": "function"
    },
    {
      "inputs": [],
      "name": "wlCollectionRegistry",
      "outputs": [
        {
          "internalType": "contract IWLCollectionRegistry",
          "name": "",
          "type": "address"
        }
      ],
      "stateMutability": "view",
      "type": "function"
    },
    {
      "inputs": [],
      "name": "wlPrice",
      "outputs": [
        {
          "internalType": "uint256",
          "name": "",
          "type": "uint256"
        }
      ],
      "stateMutability": "view",
      "type": "function"
    },
    {
      "inputs": [],
      "name": "wlToken",
      "outputs": [
        {
          "internalType": "contract IERC20",
          "name": "",
          "type": "address"
        }
      ],
      "stateMutability": "view",
      "type": "function"
    }
  ],
  "transactionHash": "0xa64fa7cd019f0e2acc0d8d5afb418fb1c6cd77b3ad12e60b2f621ce1d8567a96",
  "args": [],
  "numDeployments": 1,
  "solcInputHash": "d61b68672c7ba791981f471d22defc89",
  "bytecode": "0x60a06040523060805234801561001457600080fd5b5061001d610022565b6100e1565b600054610100900460ff161561008e5760405162461bcd60e51b815260206004820152602760248201527f496e697469616c697a61626c653a20636f6e747261637420697320696e697469604482015266616c697a696e6760c81b606482015260840160405180910390fd5b60005460ff908116146100df576000805460ff191660ff9081179091556040519081527f7f26b83ff96e1f2b6a682f133852f6798a09c465da95921460cefb38474024989060200160405180910390a15b565b60805161240e620001196000396000818161063601528181610676015281816108fa0152818161093a01526109b2015261240e6000f3fe6080604052600436106101735760003560e01c806301ffc9a7146101785780631560ad28146101ad578063248a9ca3146101dd5780632f2ff15d146101fd57806336568abe1461021f5780633659cfe61461023f57806338b28e1d1461025f5780633f4ba83a14610281578063485cc955146102965780634f1ef286146102b657806352d1902d146102c95780635c975abb146102de57806360548592146102f757806361d027b31461030a5780636605bfda146103385780636b38add314610358578063715018a6146103785780638456cb591461038d5780638da5cb5b146103a257806391d14854146103b7578063a0143aa4146103d7578063a217fddf146103f7578063a2c78ba71461040c578063c7f8d01a1461042d578063cfafb90414610444578063d547741f1461045b578063db9c3c8b1461047b578063e124f97a1461049b578063e77d7bf5146104bc578063f2fde38b146104dc578063f6a5b8e6146104fc578063ffa237cb1461051c575b600080fd5b34801561018457600080fd5b50610198610193366004611e98565b61053c565b60405190151581526020015b60405180910390f35b3480156101b957600080fd5b506101cf60008051602061239283398151915281565b6040519081526020016101a4565b3480156101e957600080fd5b506101cf6101f8366004611ec2565b610573565b34801561020957600080fd5b5061021d610218366004611ef0565b610588565b005b34801561022b57600080fd5b5061021d61023a366004611ef0565b6105a9565b34801561024b57600080fd5b5061021d61025a366004611f20565b61062c565b34801561026b57600080fd5b506101955461019890600160a01b900460ff1681565b34801561028d57600080fd5b5061021d6106f4565b3480156102a257600080fd5b5061021d6102b1366004611f3d565b610707565b61021d6102c4366004611f81565b6108f0565b3480156102d557600080fd5b506101cf6109a5565b3480156102ea57600080fd5b5061015f5460ff16610198565b61021d610305366004612044565b610a53565b34801561031657600080fd5b506101955461032b906001600160a01b031681565b6040516101a49190612070565b34801561034457600080fd5b5061021d610353366004611f20565b610ccc565b34801561036457600080fd5b5061021d610373366004612044565b610d52565b34801561038457600080fd5b5061021d610ee3565b34801561039957600080fd5b5061021d610ef7565b3480156103ae57600080fd5b5061032b610f0a565b3480156103c357600080fd5b506101986103d2366004611ef0565b610f19565b3480156103e357600080fd5b5061021d6103f2366004611f20565b610f44565b34801561040357600080fd5b506101cf600081565b34801561041857600080fd5b506101915461032b906001600160a01b031681565b34801561043957600080fd5b506101cf6101935481565b34801561045057600080fd5b506101cf6101945481565b34801561046757600080fd5b5061021d610476366004611ef0565b610fca565b34801561048757600080fd5b5061021d610496366004611ec2565b610fe6565b3480156104a757600080fd5b506101925461032b906001600160a01b031681565b3480156104c857600080fd5b5061021d6104d7366004612092565b611051565b3480156104e857600080fd5b5061021d6104f7366004611f20565b6110b9565b34801561050857600080fd5b5061021d610517366004611ec2565b61112f565b34801561052857600080fd5b5061021d610537366004611f20565b61119a565b60006001600160e01b03198216637965db0b60e01b148061056d57506301ffc9a760e01b6001600160e01b03198316145b92915050565b600090815260fb602052604090206001015490565b61059182610573565b61059a81611220565b6105a4838361122a565b505050565b6001600160a01b038116331461061e5760405162461bcd60e51b815260206004820152602f60248201527f416363657373436f6e74726f6c3a2063616e206f6e6c792072656e6f756e636560448201526e103937b632b9903337b91039b2b63360891b60648201526084015b60405180910390fd5b61062882826112b0565b5050565b6001600160a01b037f00000000000000000000000000000000000000000000000000000000000000001630036106745760405162461bcd60e51b8152600401610615906120af565b7f00000000000000000000000000000000000000000000000000000000000000006001600160a01b03166106a6611317565b6001600160a01b0316146106cc5760405162461bcd60e51b8152600401610615906120fb565b6106d581611333565b604080516000808252602082019092526106f19183919061133b565b50565b60006106ff81611220565b6106f16114a6565b600054610100900460ff16158080156107275750600054600160ff909116105b806107485750610736306114f3565b158015610748575060005460ff166001145b6107ab5760405162461bcd60e51b815260206004820152602e60248201527f496e697469616c697a61626c653a20636f6e747261637420697320616c72656160448201526d191e481a5b9a5d1a585b1a5e995960921b6064820152608401610615565b6000805460ff1916600117905580156107ce576000805461ff0019166101001790555b6001600160a01b0383166107f5576040516349e27cff60e01b815260040160405180910390fd5b6001600160a01b03821661081c576040516302979eb960e31b815260040160405180910390fd5b610824611502565b61082c611531565b610834611558565b61083c611531565b610844611587565b61084f6000846115b6565b610867600080516020612392833981519152846115b6565b610870836110b9565b6101958054670de0b6b3a7640000610193819055610194556001600160a81b0319166001600160a01b03841617600160a01b17905580156105a4576000805461ff0019169055604051600181527f7f26b83ff96e1f2b6a682f133852f6798a09c465da95921460cefb3847402498906020015b60405180910390a1505050565b6001600160a01b037f00000000000000000000000000000000000000000000000000000000000000001630036109385760405162461bcd60e51b8152600401610615906120af565b7f00000000000000000000000000000000000000000000000000000000000000006001600160a01b031661096a611317565b6001600160a01b0316146109905760405162461bcd60e51b8152600401610615906120fb565b61099982611333565b6106288282600161133b565b6000306001600160a01b037f00000000000000000000000000000000000000000000000000000000000000001614610a405760405162461bcd60e51b815260206004820152603860248201527f555550535570677261646561626c653a206d757374206e6f742062652063616c6044820152771b1959081d1a1c9bdd59da0819195b1959d85d1958d85b1b60421b6064820152608401610615565b5060008051602061237283398151915290565b610a5b6115c0565b610a6361161b565b6001600160a01b038216610a8a5760405163db781b8360e01b815260040160405180910390fd5b610192546001600160a01b0316158015610aaf575061019554600160a01b900460ff16155b15610acd57604051630331aac360e01b815260040160405180910390fd5b610195546001600160a01b0316610af75760405163b2c4cce960e01b815260040160405180910390fd5b80600003610b1857604051633d23e4d160e11b815260040160405180910390fd5b610191546001600160a01b0316610b4257604051630e048e7160e41b815260040160405180910390fd5b61019554600160a01b900460ff1615610c1457610194543414610b78576040516316fe52a960e21b815260040160405180910390fd5b610195546040516000916001600160a01b03169034908381818185875af1925050503d8060008114610bc6576040519150601f19603f3d011682016040523d82523d6000602084013e610bcb565b606091505b5050905080610c0e5760405162461bcd60e51b815260206004820152600f60248201526e151c985b9cd9995c8819985a5b1959608a1b6044820152606401610615565b50610c5a565b3415610c335760405163e0aeda7d60e01b815260040160405180910390fd5b610195546101935461019254610c5a926001600160a01b0391821692339290911690611662565b6101915460405163338a0ea160e21b81526001600160a01b039091169063ce283a8490610c8f90859033908690600401612147565b600060405180830381600087803b158015610ca957600080fd5b505af1158015610cbd573d6000803e3d6000fd5b50505050610628600161012d55565b6000610cd781611220565b6001600160a01b038216610cfe576040516302979eb960e31b815260040160405180910390fd5b61019580546001600160a01b038481166001600160a01b0319831681179093556040519116919082907f21eb548722a564f6e09f039f7aa858ae94c911910f3823b37af2250eeca4f40390600090a3505050565b610d5a6115c0565b610d6261161b565b610191546001600160a01b0316610d8c57604051630e048e7160e41b815260040160405180910390fd5b6101915460405163c912414f60e01b81526000916001600160a01b03169063c912414f90610dc0908690869060040161216b565b602060405180830381865afa158015610ddd573d6000803e3d6000fd5b505050506040513d601f19601f82011682018060405250810190610e019190612184565b90506001600160a01b038116610e2a57604051632f579acf60e11b815260040160405180910390fd5b610e4260008051602061239283398151915233610f19565b80610e5557506001600160a01b03811633145b610e7257604051634a003d7f60e11b815260040160405180910390fd5b61019154604051636b38add360e01b81526001600160a01b0390911690636b38add390610ea5908690869060040161216b565b600060405180830381600087803b158015610ebf57600080fd5b505af1158015610ed3573d6000803e3d6000fd5b5050505050610628600161012d55565b610eeb6116c8565b610ef56000611727565b565b6000610f0281611220565b6106f1611779565b6097546001600160a01b031690565b600091825260fb602090815260408084206001600160a01b0393909316845291905290205460ff1690565b6000610f4f81611220565b6001600160a01b038216610f765760405163d54bd17d60e01b815260040160405180910390fd5b61019180546001600160a01b038481166001600160a01b0319831681179093556040519116919082907f59aaeb276dbe063a56c0930e4754d21ace4417cc15be6fd7697382bbc521980190600090a3505050565b610fd382610573565b610fdc81611220565b6105a483836112b0565b6000610ff181611220565b81600003611012576040516323a3620960e01b815260040160405180910390fd5b61019480549083905560408051828152602081018590527f3497a8394ee922e00d8e96906346c8f965499b9c9b6b415a6790f27f2d97302c91016108e3565b600061105c81611220565b610195805460ff60a01b1916600160a01b8415158102919091179182905560405160ff9190920416151581527f7b718b0608d5dc7cf0e1c8fd640acf00805c9ffcd62392228e32b2958844df089060200160405180910390a15050565b6110c16116c8565b6001600160a01b0381166111265760405162461bcd60e51b815260206004820152602660248201527f4f776e61626c653a206e6577206f776e657220697320746865207a65726f206160448201526564647265737360d01b6064820152608401610615565b6106f181611727565b600061113a81611220565b8160000361115b576040516323a3620960e01b815260040160405180910390fd5b61019380549083905560408051828152602081018590527f63af036375ff9c560a1b987e40b5862268f62427961c3b74626605690b0c15ff91016108e3565b60006111a581611220565b6001600160a01b0382166111cc57604051630f58058360e11b815260040160405180910390fd5b61019280546001600160a01b038481166001600160a01b0319831681179093556040519116919082907f468a1beedf8641f81b81a11f4664a92ce3a2227092abd659679bb99ae395d2b790600090a3505050565b6106f181336117b7565b6112348282610f19565b61062857600082815260fb602090815260408083206001600160a01b03851684529091529020805460ff1916600117905561126c3390565b6001600160a01b0316816001600160a01b0316837f2f8788117e7eff1d82e926ec794901d17c78024a50270940304540a733656f0d60405160405180910390a45050565b6112ba8282610f19565b1561062857600082815260fb602090815260408083206001600160a01b0385168085529252808320805460ff1916905551339285917ff6391f5c32d9c69d2a47ea670b442974b53935d1edc7fd64eb21e047a839171b9190a45050565b600080516020612372833981519152546001600160a01b031690565b6106f16116c8565b7f4910fdfa16fed3260ed0e7147f7cc6da11a60208b5b9406d12a635614ffd91435460ff161561136e576105a483611810565b826001600160a01b03166352d1902d6040518163ffffffff1660e01b8152600401602060405180830381865afa9250505080156113c8575060408051601f3d908101601f191682019092526113c5918101906121a1565b60015b61142b5760405162461bcd60e51b815260206004820152602e60248201527f45524331393637557067726164653a206e657720696d706c656d656e7461746960448201526d6f6e206973206e6f74205555505360901b6064820152608401610615565b600080516020612372833981519152811461149a5760405162461bcd60e51b815260206004820152602960248201527f45524331393637557067726164653a20756e737570706f727465642070726f786044820152681a58589b195555525160ba1b6064820152608401610615565b506105a48383836118aa565b6114ae6118cf565b61015f805460ff191690557f5db9ee0a495bf2e6ff9c91a7834c1ba4fdd244a5e8aa4e537bd38aeae4b073aa335b6040516114e99190612070565b60405180910390a1565b6001600160a01b03163b151590565b600054610100900460ff166115295760405162461bcd60e51b8152600401610615906121ba565b610ef5611919565b600054610100900460ff16610ef55760405162461bcd60e51b8152600401610615906121ba565b600054610100900460ff1661157f5760405162461bcd60e51b8152600401610615906121ba565b610ef5611949565b600054610100900460ff166115ae5760405162461bcd60e51b8152600401610615906121ba565b610ef5611970565b610628828261122a565b600261012d54036116135760405162461bcd60e51b815260206004820152601f60248201527f5265656e7472616e637947756172643a207265656e7472616e742063616c6c006044820152606401610615565b600261012d55565b61015f5460ff1615610ef55760405162461bcd60e51b815260206004820152601060248201526f14185d5cd8589b194e881c185d5cd95960821b6044820152606401610615565b6116ba846323b872dd60e01b85858560405160240161168393929190612147565b60408051601f198184030181529190526020810180516001600160e01b03166001600160e01b0319909316929092179091526119a4565b50505050565b600161012d55565b336116d1610f0a565b6001600160a01b031614610ef55760405162461bcd60e51b815260206004820181905260248201527f4f776e61626c653a2063616c6c6572206973206e6f7420746865206f776e65726044820152606401610615565b609780546001600160a01b038381166001600160a01b0319831681179093556040519116919082907f8be0079c531659141344cd1fd0a4f28419497f9722a3daafe3b4186f6b6457e090600090a35050565b61178161161b565b61015f805460ff191660011790557f62e78cea01bee320cd4e420270b5ea74000d11b0c9f74754ebdbfc544b05a2586114dc3390565b6117c18282610f19565b610628576117ce81611a79565b6117d9836020611a8b565b6040516020016117ea929190612229565b60408051601f198184030181529082905262461bcd60e51b825261061591600401612298565b611819816114f3565b61187b5760405162461bcd60e51b815260206004820152602d60248201527f455243313936373a206e657720696d706c656d656e746174696f6e206973206e60448201526c1bdd08184818dbdb9d1c9858dd609a1b6064820152608401610615565b60008051602061237283398151915280546001600160a01b0319166001600160a01b0392909216919091179055565b6118b383611c2d565b6000825111806118c05750805b156105a4576116ba8383611c6d565b61015f5460ff16610ef55760405162461bcd60e51b815260206004820152601460248201527314185d5cd8589b194e881b9bdd081c185d5cd95960621b6044820152606401610615565b600054610100900460ff166119405760405162461bcd60e51b8152600401610615906121ba565b610ef533611727565b600054610100900460ff166116c05760405162461bcd60e51b8152600401610615906121ba565b600054610100900460ff166119975760405162461bcd60e51b8152600401610615906121ba565b61015f805460ff19169055565b60006119f9826040518060400160405280602081526020017f5361666545524332303a206c6f772d6c6576656c2063616c6c206661696c6564815250856001600160a01b0316611c929092919063ffffffff16565b9050805160001480611a1a575080806020019051810190611a1a91906122cb565b6105a45760405162461bcd60e51b815260206004820152602a60248201527f5361666545524332303a204552433230206f7065726174696f6e20646964206e6044820152691bdd081cdd58d8d9595960b21b6064820152608401610615565b606061056d6001600160a01b03831660145b60606000611a9a8360026122fe565b611aa5906002612315565b6001600160401b03811115611abc57611abc611f6b565b6040519080825280601f01601f191660200182016040528015611ae6576020820181803683370190505b509050600360fc1b81600081518110611b0157611b01612328565b60200101906001600160f81b031916908160001a905350600f60fb1b81600181518110611b3057611b30612328565b60200101906001600160f81b031916908160001a9053506000611b548460026122fe565b611b5f906001612315565b90505b6001811115611bd7576f181899199a1a9b1b9c1cb0b131b232b360811b85600f1660108110611b9357611b93612328565b1a60f81b828281518110611ba957611ba9612328565b60200101906001600160f81b031916908160001a90535060049490941c93611bd08161233e565b9050611b62565b508315611c265760405162461bcd60e51b815260206004820181905260248201527f537472696e67733a20686578206c656e67746820696e73756666696369656e746044820152606401610615565b9392505050565b611c3681611810565b6040516001600160a01b038216907fbc7cd75a20ee27fd9adebab32041f755214dbc6bffa90cc0225b39da2e5c2d3b90600090a250565b6060611c2683836040518060600160405280602781526020016123b260279139611ca9565b6060611ca18484600085611d21565b949350505050565b6060600080856001600160a01b031685604051611cc69190612355565b600060405180830381855af49150503d8060008114611d01576040519150601f19603f3d011682016040523d82523d6000602084013e611d06565b606091505b5091509150611d1786838387611dfc565b9695505050505050565b606082471015611d825760405162461bcd60e51b815260206004820152602660248201527f416464726573733a20696e73756666696369656e742062616c616e636520666f6044820152651c8818d85b1b60d21b6064820152608401610615565b600080866001600160a01b03168587604051611d9e9190612355565b60006040518083038185875af1925050503d8060008114611ddb576040519150601f19603f3d011682016040523d82523d6000602084013e611de0565b606091505b5091509150611df187838387611dfc565b979650505050505050565b60608315611e69578251600003611e6257611e16856114f3565b611e625760405162461bcd60e51b815260206004820152601d60248201527f416464726573733a2063616c6c20746f206e6f6e2d636f6e74726163740000006044820152606401610615565b5081611ca1565b611ca18383815115611e7e5781518083602001fd5b8060405162461bcd60e51b81526004016106159190612298565b600060208284031215611eaa57600080fd5b81356001600160e01b031981168114611c2657600080fd5b600060208284031215611ed457600080fd5b5035919050565b6001600160a01b03811681146106f157600080fd5b60008060408385031215611f0357600080fd5b823591506020830135611f1581611edb565b809150509250929050565b600060208284031215611f3257600080fd5b8135611c2681611edb565b60008060408385031215611f5057600080fd5b8235611f5b81611edb565b91506020830135611f1581611edb565b634e487b7160e01b600052604160045260246000fd5b60008060408385031215611f9457600080fd5b8235611f9f81611edb565b915060208301356001600160401b0380821115611fbb57600080fd5b818501915085601f830112611fcf57600080fd5b813581811115611fe157611fe1611f6b565b604051601f8201601f19908116603f0116810190838211818310171561200957612009611f6b565b8160405282815288602084870101111561202257600080fd5b8260208601602083013760006020848301015280955050505050509250929050565b6000806040838503121561205757600080fd5b823561206281611edb565b946020939093013593505050565b6001600160a01b0391909116815260200190565b80151581146106f157600080fd5b6000602082840312156120a457600080fd5b8135611c2681612084565b6020808252602c908201527f46756e6374696f6e206d7573742062652063616c6c6564207468726f7567682060408201526b19195b1959d85d1958d85b1b60a21b606082015260800190565b6020808252602c908201527f46756e6374696f6e206d7573742062652063616c6c6564207468726f7567682060408201526b6163746976652070726f787960a01b606082015260800190565b6001600160a01b039384168152919092166020820152604081019190915260600190565b6001600160a01b03929092168252602082015260400190565b60006020828403121561219657600080fd5b8151611c2681611edb565b6000602082840312156121b357600080fd5b5051919050565b6020808252602b908201527f496e697469616c697a61626c653a20636f6e7472616374206973206e6f74206960408201526a6e697469616c697a696e6760a81b606082015260800190565b60005b83811015612220578181015183820152602001612208565b50506000910152565b76020b1b1b2b9b9a1b7b73a3937b61d1030b1b1b7bab73a1604d1b81526000835161225b816017850160208801612205565b7001034b99036b4b9b9b4b733903937b6329607d1b601791840191820152835161228c816028840160208801612205565b01602801949350505050565b60208152600082518060208401526122b7816040850160208701612205565b601f01601f19169190910160400192915050565b6000602082840312156122dd57600080fd5b8151611c2681612084565b634e487b7160e01b600052601160045260246000fd5b808202811582820484141761056d5761056d6122e8565b8082018082111561056d5761056d6122e8565b634e487b7160e01b600052603260045260246000fd5b60008161234d5761234d6122e8565b506000190190565b60008251612367818460208701612205565b919091019291505056fe360894a13ba1a3210667c828492db98dca3e2076cc3735a920a3ca505d382bbc890890e02be6a0b8e1b70730bcef8a1c3cf7e7736f24f1faf9db9c6c31b69317416464726573733a206c6f772d6c6576656c2064656c65676174652063616c6c206661696c6564a2646970667358221220741cdae30a6145cbd745c621c844ee61e592e27f84dc4344acdf16ecefc78fea64736f6c63430008170033",
  "devdoc": {
    "events": {
      "AdminChanged(address,address)": {
        "details": "Emitted when the admin account has changed."
      },
      "BeaconUpgraded(address)": {
        "details": "Emitted when the beacon is changed."
      },
      "Initialized(uint8)": {
        "details": "Triggered when the contract has been initialized or reinitialized."
      },
      "Paused(address)": {
        "details": "Emitted when the pause is triggered by `account`."
      },
      "RoleAdminChanged(bytes32,bytes32,bytes32)": {
        "details": "Emitted when `newAdminRole` is set as ``role``'s admin role, replacing `previousAdminRole` `DEFAULT_ADMIN_ROLE` is the starting admin for all roles, despite {RoleAdminChanged} not being emitted signaling this. _Available since v3.1._"
      },
      "RoleGranted(bytes32,address,address)": {
        "details": "Emitted when `account` is granted `role`. `sender` is the account that originated the contract call, an admin role bearer except when using {AccessControl-_setupRole}."
      },
      "RoleRevoked(bytes32,address,address)": {
        "details": "Emitted when `account` is revoked `role`. `sender` is the account that originated the contract call:   - if using `revokeRole`, it is the admin role bearer   - if using `renounceRole`, it is the role bearer (i.e. `account`)"
      },
      "Unpaused(address)": {
        "details": "Emitted when the pause is lifted by `account`."
      },
      "Upgraded(address)": {
        "details": "Emitted when the implementation is upgraded."
      }
    },
    "kind": "dev",
    "methods": {
      "addToWL(address,uint256)": {
        "params": {
          "chainId": "The chainId associated with the collection.",
          "collection": "The collection address."
        }
      },
      "constructor": {
        "custom:oz-upgrades-unsafe-allow": "constructor"
      },
      "getRoleAdmin(bytes32)": {
        "details": "Returns the admin role that controls `role`. See {grantRole} and {revokeRole}. To change a role's admin, use {_setRoleAdmin}."
      },
      "grantRole(bytes32,address)": {
        "details": "Grants `role` to `account`. If `account` had not been already granted `role`, emits a {RoleGranted} event. Requirements: - the caller must have ``role``'s admin role. May emit a {RoleGranted} event."
      },
      "hasRole(bytes32,address)": {
        "details": "Returns `true` if `account` has been granted `role`."
      },
      "owner()": {
        "details": "Returns the address of the current owner."
      },
      "paused()": {
        "details": "Returns true if the contract is paused, and false otherwise."
      },
      "proxiableUUID()": {
        "details": "Implementation of the ERC1822 {proxiableUUID} function. This returns the storage slot used by the implementation. It is used to validate the implementation's compatibility when performing an upgrade. IMPORTANT: A proxy pointing at a proxiable contract should not be considered proxiable itself, because this risks bricking a proxy that upgrades to it, by delegating to itself until out of gas. Thus it is critical that this function revert if invoked through a proxy. This is guaranteed by the `notDelegated` modifier."
      },
      "renounceOwnership()": {
        "details": "Leaves the contract without owner. It will not be possible to call `onlyOwner` functions. Can only be called by the current owner. NOTE: Renouncing ownership will leave the contract without an owner, thereby disabling any functionality that is only available to the owner."
      },
      "renounceRole(bytes32,address)": {
        "details": "Revokes `role` from the calling account. Roles are often managed via {grantRole} and {revokeRole}: this function's purpose is to provide a mechanism for accounts to lose their privileges if they are compromised (such as when a trusted device is misplaced). If the calling account had been revoked `role`, emits a {RoleRevoked} event. Requirements: - the caller must be `account`. May emit a {RoleRevoked} event."
      },
      "revokeRole(bytes32,address)": {
        "details": "Revokes `role` from `account`. If `account` had been granted `role`, emits a {RoleRevoked} event. Requirements: - the caller must have ``role``'s admin role. May emit a {RoleRevoked} event."
      },
      "supportsInterface(bytes4)": {
        "details": "See {IERC165-supportsInterface}."
      },
      "transferOwnership(address)": {
        "details": "Transfers ownership of the contract to a new account (`newOwner`). Can only be called by the current owner."
      },
      "upgradeTo(address)": {
        "custom:oz-upgrades-unsafe-allow-reachable": "delegatecall",
        "details": "Upgrade the implementation of the proxy to `newImplementation`. Calls {_authorizeUpgrade}. Emits an {Upgraded} event."
      },
      "upgradeToAndCall(address,bytes)": {
        "custom:oz-upgrades-unsafe-allow-reachable": "delegatecall",
        "details": "Upgrade the implementation of the proxy to `newImplementation`, and subsequently execute the function call encoded in `data`. Calls {_authorizeUpgrade}. Emits an {Upgraded} event."
      }
    },
    "version": 1
  },
  "userdoc": {
    "kind": "user",
    "methods": {
      "addToWL(address,uint256)": {
        "notice": "Adds a collection to the whitelist."
      },
      "removeFromWL(address,uint256)": {
        "notice": "Removes a collection from the whitelist. Only the collection creator can call this."
      }
    },
    "version": 1
  },
  "storageLayout": {
    "storage": [
      {
        "astId": 934,
        "contract": "src/WLCollectionListing.sol:WLCollectionListing",
        "label": "_initialized",
        "offset": 0,
        "slot": "0",
        "type": "t_uint8"
      },
      {
        "astId": 937,
        "contract": "src/WLCollectionListing.sol:WLCollectionListing",
        "label": "_initializing",
        "offset": 1,
        "slot": "0",
        "type": "t_bool"
      },
      {
        "astId": 916,
        "contract": "src/WLCollectionListing.sol:WLCollectionListing",
        "label": "__gap",
        "offset": 0,
        "slot": "1",
        "type": "t_array(t_uint256)50_storage"
      },
      {
        "astId": 1232,
        "contract": "src/WLCollectionListing.sol:WLCollectionListing",
        "label": "__gap",
        "offset": 0,
        "slot": "51",
        "type": "t_array(t_uint256)50_storage"
      },
      {
        "astId": 3411,
        "contract": "src/WLCollectionListing.sol:WLCollectionListing",
        "label": "__gap",
        "offset": 0,
        "slot": "101",
        "type": "t_array(t_uint256)50_storage"
      },
      {
        "astId": 421,
        "contract": "src/WLCollectionListing.sol:WLCollectionListing",
        "label": "_owner",
        "offset": 0,
        "slot": "151",
        "type": "t_address"
      },
      {
        "astId": 541,
        "contract": "src/WLCollectionListing.sol:WLCollectionListing",
        "label": "__gap",
        "offset": 0,
        "slot": "152",
        "type": "t_array(t_uint256)49_storage"
      },
      {
        "astId": 3795,
        "contract": "src/WLCollectionListing.sol:WLCollectionListing",
        "label": "__gap",
        "offset": 0,
        "slot": "201",
        "type": "t_array(t_uint256)50_storage"
      },
      {
        "astId": 28,
        "contract": "src/WLCollectionListing.sol:WLCollectionListing",
        "label": "_roles",
        "offset": 0,
        "slot": "251",
        "type": "t_mapping(t_bytes32,t_struct(RoleData)23_storage)"
      },
      {
        "astId": 335,
        "contract": "src/WLCollectionListing.sol:WLCollectionListing",
        "label": "__gap",
        "offset": 0,
        "slot": "252",
        "type": "t_array(t_uint256)49_storage"
      },
      {
        "astId": 1376,
        "contract": "src/WLCollectionListing.sol:WLCollectionListing",
        "label": "_status",
        "offset": 0,
        "slot": "301",
        "type": "t_uint256"
      },
      {
        "astId": 1445,
        "contract": "src/WLCollectionListing.sol:WLCollectionListing",
        "label": "__gap",
        "offset": 0,
        "slot": "302",
        "type": "t_array(t_uint256)49_storage"
      },
      {
        "astId": 1255,
        "contract": "src/WLCollectionListing.sol:WLCollectionListing",
        "label": "_paused",
        "offset": 0,
        "slot": "351",
        "type": "t_bool"
      },
      {
        "astId": 1360,
        "contract": "src/WLCollectionListing.sol:WLCollectionListing",
        "label": "__gap",
        "offset": 0,
        "slot": "352",
        "type": "t_array(t_uint256)49_storage"
      },
      {
        "astId": 21134,
        "contract": "src/WLCollectionListing.sol:WLCollectionListing",
        "label": "wlCollectionRegistry",
        "offset": 0,
        "slot": "401",
        "type": "t_contract(IWLCollectionRegistry)20761"
      },
      {
        "astId": 21137,
        "contract": "src/WLCollectionListing.sol:WLCollectionListing",
        "label": "wlToken",
        "offset": 0,
        "slot": "402",
        "type": "t_contract(IERC20)5557"
      },
      {
        "astId": 21139,
        "contract": "src/WLCollectionListing.sol:WLCollectionListing",
        "label": "wlPrice",
        "offset": 0,
        "slot": "403",
        "type": "t_uint256"
      },
      {
        "astId": 21141,
        "contract": "src/WLCollectionListing.sol:WLCollectionListing",
        "label": "nativeWlPrice",
        "offset": 0,
        "slot": "404",
        "type": "t_uint256"
      },
      {
        "astId": 21143,
        "contract": "src/WLCollectionListing.sol:WLCollectionListing",
        "label": "treasury",
        "offset": 0,
        "slot": "405",
        "type": "t_address"
      },
      {
        "astId": 21145,
        "contract": "src/WLCollectionListing.sol:WLCollectionListing",
        "label": "payWithNative",
        "offset": 20,
        "slot": "405",
        "type": "t_bool"
      },
      {
        "astId": 21666,
        "contract": "src/WLCollectionListing.sol:WLCollectionListing",
        "label": "__gap",
        "offset": 0,
        "slot": "406",
        "type": "t_array(t_uint256)50_storage"
      }
    ],
    "types": {
      "t_address": {
        "encoding": "inplace",
        "label": "address",
        "numberOfBytes": "20"
      },
      "t_array(t_uint256)49_storage": {
        "base": "t_uint256",
        "encoding": "inplace",
        "label": "uint256[49]",
        "numberOfBytes": "1568"
      },
      "t_array(t_uint256)50_storage": {
        "base": "t_uint256",
        "encoding": "inplace",
        "label": "uint256[50]",
        "numberOfBytes": "1600"
      },
      "t_bool": {
        "encoding": "inplace",
        "label": "bool",
        "numberOfBytes": "1"
      },
      "t_bytes32": {
        "encoding": "inplace",
        "label": "bytes32",
        "numberOfBytes": "32"
      },
      "t_contract(IERC20)5557": {
        "encoding": "inplace",
        "label": "contract IERC20",
        "numberOfBytes": "20"
      },
      "t_contract(IWLCollectionRegistry)20761": {
        "encoding": "inplace",
        "label": "contract IWLCollectionRegistry",
        "numberOfBytes": "20"
      },
      "t_mapping(t_address,t_bool)": {
        "encoding": "mapping",
        "key": "t_address",
        "label": "mapping(address => bool)",
        "numberOfBytes": "32",
        "value": "t_bool"
      },
      "t_mapping(t_bytes32,t_struct(RoleData)23_storage)": {
        "encoding": "mapping",
        "key": "t_bytes32",
        "label": "mapping(bytes32 => struct AccessControlUpgradeable.RoleData)",
        "numberOfBytes": "32",
        "value": "t_struct(RoleData)23_storage"
      },
      "t_struct(RoleData)23_storage": {
        "encoding": "inplace",
        "label": "struct AccessControlUpgradeable.RoleData",
        "members": [
          {
            "astId": 20,
            "contract": "src/WLCollectionListing.sol:WLCollectionListing",
            "label": "members",
            "offset": 0,
            "slot": "0",
            "type": "t_mapping(t_address,t_bool)"
          },
          {
            "astId": 22,
            "contract": "src/WLCollectionListing.sol:WLCollectionListing",
            "label": "adminRole",
            "offset": 0,
            "slot": "1",
            "type": "t_bytes32"
          }
        ],
        "numberOfBytes": "64"
      },
      "t_uint256": {
        "encoding": "inplace",
        "label": "uint256",
        "numberOfBytes": "32"
      },
      "t_uint8": {
        "encoding": "inplace",
        "label": "uint8",
        "numberOfBytes": "1"
      }
    }
  }
}