{
  "address": "0x5a0cB3b018D866361709692bB1F1ee70825e17F6",
  "abi": [
    {
      "inputs": [
        {
          "internalType": "uint256",
          "name": "_value1",
          "type": "uint256"
        },
        {
          "internalType": "uint256",
          "name": "_value2",
          "type": "uint256"
        }
      ],
      "stateMutability": "nonpayable",
      "type": "constructor"
    },
    {
      "inputs": [],
      "name": "getValue1",
      "outputs": [
        {
          "internalType": "uint256",
          "name": "",
          "type": "uint256"
        }
      ],
      "stateMutability": "view",
      "type": "function"
    },
    {
      "inputs": [],
      "name": "getValue2",
      "outputs": [
        {
          "internalType": "uint256",
          "name": "",
          "type": "uint256"
        }
      ],
      "stateMutability": "view",
      "type": "function"
    },
    {
      "inputs": [],
      "name": "value1",
      "outputs": [
        {
          "internalType": "uint256",
          "name": "",
          "type": "uint256"
        }
      ],
      "stateMutability": "view",
      "type": "function"
    },
    {
      "inputs": [],
      "name": "value2",
      "outputs": [
        {
          "internalType": "uint256",
          "name": "",
          "type": "uint256"
        }
      ],
      "stateMutability": "view",
      "type": "function"
    }
  ],
  "transactionHash": "0xed9af4f8dd8ec031b74db616bc3653b5e154f5875f4afa6c069fb34d659f5add",
  "args": [
    100,
    200
  ],
  "numDeployments": 1,
  "solcInputHash": "4403dd282ba33b25c8087b7e931d156b",
  "bytecode": "0x608060405234801561001057600080fd5b506040516101163803806101168339818101604052604081101561003357600080fd5b50805160209091015160009190915560015560c3806100536000396000f3fe6080604052348015600f57600080fd5b506004361060465760003560e01c80633033413b14604b5780635d33a27f14606357806360d586f8146069578063c515205d14606f575b600080fd5b60516075565b60408051918252519081900360200190f35b6051607b565b60516081565b60516087565b60005481565b60015481565b60005490565b6001549056fea264697066735822122084259bdfca1e2a6f343107902e211a3844e8d43d88318f7344ca4c31ba6286c464736f6c63430007060033",
  "devdoc": {
    "kind": "dev",
    "methods": {},
    "version": 1
  },
  "userdoc": {
    "kind": "user",
    "methods": {},
    "version": 1
  },
  "storageLayout": {
    "storage": [
      {
        "astId": 3,
        "contract": "contracts/TestDeployContract.sol:TestDeployContract",
        "label": "value1",
        "offset": 0,
        "slot": "0",
        "type": "t_uint256"
      },
      {
        "astId": 5,
        "contract": "contracts/TestDeployContract.sol:TestDeployContract",
        "label": "value2",
        "offset": 0,
        "slot": "1",
        "type": "t_uint256"
      }
    ],
    "types": {
      "t_uint256": {
        "encoding": "inplace",
        "label": "uint256",
        "numberOfBytes": "32"
      }
    }
  }
}