{
  "_format": "hh-sol-artifact-1",
  "contractName": "TestERC721RoyaltyV2Legacy",
  "sourceName": "contracts/test/tokens/TestERC721RoyaltyV2Legacy.sol",
  "abi": [
    {
      "anonymous": false,
      "inputs": [
        {
          "indexed": true,
          "internalType": "address",
          "name": "owner",
          "type": "address"
        },
        {
          "indexed": true,
          "internalType": "address",
          "name": "approved",
          "type": "address"
        },
        {
          "indexed": true,
          "internalType": "uint256",
          "name": "tokenId",
          "type": "uint256"
        }
      ],
      "name": "Approval",
      "type": "event"
    },
    {
      "anonymous": false,
      "inputs": [
        {
          "indexed": true,
          "internalType": "address",
          "name": "owner",
          "type": "address"
        },
        {
          "indexed": true,
          "internalType": "address",
          "name": "operator",
          "type": "address"
        },
        {
          "indexed": false,
          "internalType": "bool",
          "name": "approved",
          "type": "bool"
        }
      ],
      "name": "ApprovalForAll",
      "type": "event"
    },
    {
      "anonymous": false,
      "inputs": [
        {
          "indexed": false,
          "internalType": "uint256",
          "name": "tokenId",
          "type": "uint256"
        },
        {
          "components": [
            {
              "internalType": "address payable",
              "name": "account",
              "type": "address"
            },
            {
              "internalType": "uint96",
              "name": "value",
              "type": "uint96"
            }
          ],
          "indexed": false,
          "internalType": "struct LibPart.Part[]",
          "name": "royalties",
          "type": "tuple[]"
        }
      ],
      "name": "RoyaltiesSet",
      "type": "event"
    },
    {
      "anonymous": false,
      "inputs": [
        {
          "indexed": true,
          "internalType": "address",
          "name": "from",
          "type": "address"
        },
        {
          "indexed": true,
          "internalType": "address",
          "name": "to",
          "type": "address"
        },
        {
          "indexed": true,
          "internalType": "uint256",
          "name": "tokenId",
          "type": "uint256"
        }
      ],
      "name": "Transfer",
      "type": "event"
    },
    {
      "inputs": [
        {
          "internalType": "uint256",
          "name": "id",
          "type": "uint256"
        },
        {
          "components": [
            {
              "internalType": "address payable",
              "name": "account",
              "type": "address"
            },
            {
              "internalType": "uint96",
              "name": "value",
              "type": "uint96"
            }
          ],
          "internalType": "struct LibPart.Part[]",
          "name": "_royalties",
          "type": "tuple[]"
        }
      ],
      "name": "_saveRoyalties",
      "outputs": [],
      "stateMutability": "nonpayable",
      "type": "function"
    },
    {
      "inputs": [
        {
          "internalType": "address",
          "name": "to",
          "type": "address"
        },
        {
          "internalType": "uint256",
          "name": "tokenId",
          "type": "uint256"
        }
      ],
      "name": "approve",
      "outputs": [],
      "stateMutability": "nonpayable",
      "type": "function"
    },
    {
      "inputs": [
        {
          "internalType": "address",
          "name": "owner",
          "type": "address"
        }
      ],
      "name": "balanceOf",
      "outputs": [
        {
          "internalType": "uint256",
          "name": "",
          "type": "uint256"
        }
      ],
      "stateMutability": "view",
      "type": "function"
    },
    {
      "inputs": [],
      "name": "baseURI",
      "outputs": [
        {
          "internalType": "string",
          "name": "",
          "type": "string"
        }
      ],
      "stateMutability": "view",
      "type": "function"
    },
    {
      "inputs": [
        {
          "internalType": "uint256",
          "name": "tokenId",
          "type": "uint256"
        }
      ],
      "name": "getApproved",
      "outputs": [
        {
          "internalType": "address",
          "name": "",
          "type": "address"
        }
      ],
      "stateMutability": "view",
      "type": "function"
    },
    {
      "inputs": [
        {
          "internalType": "uint256",
          "name": "id",
          "type": "uint256"
        }
      ],
      "name": "getRoyalties",
      "outputs": [
        {
          "components": [
            {
              "internalType": "address payable",
              "name": "account",
              "type": "address"
            },
            {
              "internalType": "uint96",
              "name": "value",
              "type": "uint96"
            }
          ],
          "internalType": "struct LibPart.Part[]",
          "name": "",
          "type": "tuple[]"
        }
      ],
      "stateMutability": "view",
      "type": "function"
    },
    {
      "inputs": [
        {
          "internalType": "address",
          "name": "owner",
          "type": "address"
        },
        {
          "internalType": "address",
          "name": "operator",
          "type": "address"
        }
      ],
      "name": "isApprovedForAll",
      "outputs": [
        {
          "internalType": "bool",
          "name": "",
          "type": "bool"
        }
      ],
      "stateMutability": "view",
      "type": "function"
    },
    {
      "inputs": [
        {
          "internalType": "address",
          "name": "to",
          "type": "address"
        },
        {
          "internalType": "uint256",
          "name": "tokenId",
          "type": "uint256"
        }
      ],
      "name": "mint",
      "outputs": [],
      "stateMutability": "nonpayable",
      "type": "function"
    },
    {
      "inputs": [],
      "name": "name",
      "outputs": [
        {
          "internalType": "string",
          "name": "",
          "type": "string"
        }
      ],
      "stateMutability": "view",
      "type": "function"
    },
    {
      "inputs": [
        {
          "internalType": "uint256",
          "name": "tokenId",
          "type": "uint256"
        }
      ],
      "name": "ownerOf",
      "outputs": [
        {
          "internalType": "address",
          "name": "",
          "type": "address"
        }
      ],
      "stateMutability": "view",
      "type": "function"
    },
    {
      "inputs": [
        {
          "internalType": "address",
          "name": "from",
          "type": "address"
        },
        {
          "internalType": "address",
          "name": "to",
          "type": "address"
        },
        {
          "internalType": "uint256",
          "name": "tokenId",
          "type": "uint256"
        }
      ],
      "name": "safeTransferFrom",
      "outputs": [],
      "stateMutability": "nonpayable",
      "type": "function"
    },
    {
      "inputs": [
        {
          "internalType": "address",
          "name": "from",
          "type": "address"
        },
        {
          "internalType": "address",
          "name": "to",
          "type": "address"
        },
        {
          "internalType": "uint256",
          "name": "tokenId",
          "type": "uint256"
        },
        {
          "internalType": "bytes",
          "name": "_data",
          "type": "bytes"
        }
      ],
      "name": "safeTransferFrom",
      "outputs": [],
      "stateMutability": "nonpayable",
      "type": "function"
    },
    {
      "inputs": [
        {
          "internalType": "address",
          "name": "operator",
          "type": "address"
        },
        {
          "internalType": "bool",
          "name": "approved",
          "type": "bool"
        }
      ],
      "name": "setApprovalForAll",
      "outputs": [],
      "stateMutability": "nonpayable",
      "type": "function"
    },
    {
      "inputs": [
        {
          "internalType": "bytes4",
          "name": "interfaceId",
          "type": "bytes4"
        }
      ],
      "name": "supportsInterface",
      "outputs": [
        {
          "internalType": "bool",
          "name": "",
          "type": "bool"
        }
      ],
      "stateMutability": "view",
      "type": "function"
    },
    {
      "inputs": [],
      "name": "symbol",
      "outputs": [
        {
          "internalType": "string",
          "name": "",
          "type": "string"
        }
      ],
      "stateMutability": "view",
      "type": "function"
    },
    {
      "inputs": [
        {
          "internalType": "uint256",
          "name": "index",
          "type": "uint256"
        }
      ],
      "name": "tokenByIndex",
      "outputs": [
        {
          "internalType": "uint256",
          "name": "",
          "type": "uint256"
        }
      ],
      "stateMutability": "view",
      "type": "function"
    },
    {
      "inputs": [
        {
          "internalType": "address",
          "name": "owner",
          "type": "address"
        },
        {
          "internalType": "uint256",
          "name": "index",
          "type": "uint256"
        }
      ],
      "name": "tokenOfOwnerByIndex",
      "outputs": [
        {
          "internalType": "uint256",
          "name": "",
          "type": "uint256"
        }
      ],
      "stateMutability": "view",
      "type": "function"
    },
    {
      "inputs": [
        {
          "internalType": "uint256",
          "name": "tokenId",
          "type": "uint256"
        }
      ],
      "name": "tokenURI",
      "outputs": [
        {
          "internalType": "string",
          "name": "",
          "type": "string"
        }
      ],
      "stateMutability": "view",
      "type": "function"
    },
    {
      "inputs": [],
      "name": "totalSupply",
      "outputs": [
        {
          "internalType": "uint256",
          "name": "",
          "type": "uint256"
        }
      ],
      "stateMutability": "view",
      "type": "function"
    },
    {
      "inputs": [
        {
          "internalType": "address",
          "name": "from",
          "type": "address"
        },
        {
          "internalType": "address",
          "name": "to",
          "type": "address"
        },
        {
          "internalType": "uint256",
          "name": "tokenId",
          "type": "uint256"
        }
      ],
      "name": "transferFrom",
      "outputs": [],
      "stateMutability": "nonpayable",
      "type": "function"
    }
  ],
  "bytecode": "0x608060405234801561001057600080fd5b50612007806100206000396000f3fe608060405234801561001057600080fd5b506004361061012c5760003560e01c80636352211e116100ad578063b88d4fde11610071578063b88d4fde14610261578063bb3bafd614610274578063c87b56dd14610294578063dfa5ce5d146102a7578063e985e9c5146102ba5761012c565b80636352211e146102185780636c0360eb1461022b57806370a082311461023357806395d89b4114610246578063a22cb4651461024e5761012c565b806323b872dd116100f457806323b872dd146101b95780632f745c59146101cc57806340c10f19146101df57806342842e0e146101f25780634f6ccce7146102055761012c565b806301ffc9a71461013157806306fdde031461015a578063081812fc1461016f578063095ea7b31461018f57806318160ddd146101a4575b600080fd5b61014461013f366004611a87565b6102cd565b6040516101519190611c3d565b60405180910390f35b6101626102f0565b6040516101519190611c48565b61018261017d366004611aaf565b610386565b6040516101519190611c16565b6101a261019d366004611a5c565b6103e8565b005b6101ac6104be565b6040516101519190611d4c565b6101a26101c7366004611935565b6104cf565b6101ac6101da366004611a5c565b610526565b6101a26101ed366004611a5c565b610551565b6101a2610200366004611935565b61055f565b6101ac610213366004611aaf565b61057a565b610182610226366004611aaf565b610590565b6101626105b8565b6101ac6102413660046118e1565b610619565b610162610681565b6101a261025c366004611a2b565b6106e2565b6101a261026f366004611975565b6107e7565b610287610282366004611aaf565b610845565b6040516101519190611c2a565b6101626102a2366004611aaf565b6108d4565b6101a26102b5366004611ac7565b610b55565b6101446102c83660046118fd565b610cc3565b6001600160e01b0319811660009081526033602052604090205460ff165b919050565b606a8054604080516020601f600260001961010060018816150201909516949094049384018190048102820181019092528281526060939092909183018282801561037c5780601f106103515761010080835404028352916020019161037c565b820191906000526020600020905b81548152906001019060200180831161035f57829003601f168201915b5050505050905090565b600061039182610cf1565b6103cc5760405162461bcd60e51b815260040180806020018281038252602c815260200180611efc602c913960400191505060405180910390fd5b506000908152606860205260409020546001600160a01b031690565b60006103f382610590565b9050806001600160a01b0316836001600160a01b031614156104465760405162461bcd60e51b8152600401808060200182810382526021815260200180611f806021913960400191505060405180910390fd5b806001600160a01b0316610458610cfe565b6001600160a01b031614806104745750610474816102c8610cfe565b6104af5760405162461bcd60e51b8152600401808060200182810382526038815260200180611e4f6038913960400191505060405180910390fd5b6104b98383610d02565b505050565b60006104ca6066610d70565b905090565b6104e06104da610cfe565b82610d7b565b61051b5760405162461bcd60e51b8152600401808060200182810382526031815260200180611fa16031913960400191505060405180910390fd5b6104b9838383610e1f565b6001600160a01b03821660009081526065602052604081206105489083610f6b565b90505b92915050565b61055b8282610f77565b5050565b6104b9838383604051806020016040528060008152506107e7565b6000806105886066846110a5565b509392505050565b600061054b82604051806060016040528060298152602001611eb160299139606691906110c1565b606d8054604080516020601f600260001961010060018816150201909516949094049384018190048102820181019092528281526060939092909183018282801561037c5780601f106103515761010080835404028352916020019161037c565b60006001600160a01b0382166106605760405162461bcd60e51b815260040180806020018281038252602a815260200180611e87602a913960400191505060405180910390fd5b6001600160a01b038216600090815260656020526040902061054b90610d70565b606b8054604080516020601f600260001961010060018816150201909516949094049384018190048102820181019092528281526060939092909183018282801561037c5780601f106103515761010080835404028352916020019161037c565b6106ea610cfe565b6001600160a01b0316826001600160a01b03161415610750576040805162461bcd60e51b815260206004820152601960248201527f4552433732313a20617070726f766520746f2063616c6c657200000000000000604482015290519081900360640190fd5b806069600061075d610cfe565b6001600160a01b03908116825260208083019390935260409182016000908120918716808252919093529120805460ff1916921515929092179091556107a1610cfe565b6001600160a01b03167f17307eab39ab6107e8899845ad3d59bd9653f200f220920489ca2b5937696c318360405180821515815260200191505060405180910390a35050565b6107f86107f2610cfe565b83610d7b565b6108335760405162461bcd60e51b8152600401808060200182810382526031815260200180611fa16031913960400191505060405180910390fd5b61083f848484846110d8565b50505050565b606060976000838152602001908152602001600020805480602002602001604051908101604052809291908181526020016000905b828210156108c957600084815260209081902060408051808201909152908401546001600160a01b0381168252600160a01b90046001600160601b03168183015282526001909201910161087a565b505050509050919050565b60606108df82610cf1565b61091a5760405162461bcd60e51b815260040180806020018281038252602f815260200180611f51602f913960400191505060405180910390fd5b6000828152606c602090815260408083208054825160026001831615610100026000190190921691909104601f8101859004850282018501909352828152929091908301828280156109ad5780601f10610982576101008083540402835291602001916109ad565b820191906000526020600020905b81548152906001019060200180831161099057829003601f168201915b5050505050905060006109be6105b8565b90508051600014156109d2575090506102eb565b815115610a935780826040516020018083805190602001908083835b60208310610a0d5780518252601f1990920191602091820191016109ee565b51815160209384036101000a600019018019909216911617905285519190930192850191508083835b60208310610a555780518252601f199092019160209182019101610a36565b6001836020036101000a03801982511681845116808217855250505050505090500192505050604051602081830303815290604052925050506102eb565b80610a9d8561112a565b6040516020018083805190602001908083835b60208310610acf5780518252601f199092019160209182019101610ab0565b51815160209384036101000a600019018019909216911617905285519190930192850191508083835b60208310610b175780518252601f199092019160209182019101610af8565b6001836020036101000a0380198251168184511680821785525050505050509050019250505060405160208183030381529060405292505050919050565b6000805b8251811015610c975760006001600160a01b0316838281518110610b7957fe5b6020026020010151600001516001600160a01b03161415610bb55760405162461bcd60e51b8152600401610bac90611d15565b60405180910390fd5b828181518110610bc157fe5b6020026020010151602001516001600160601b031660001415610bf65760405162461bcd60e51b8152600401610bac90611c9b565b828181518110610c0257fe5b6020026020010151602001516001600160601b03168201915060976000858152602001908152602001600020838281518110610c3a57fe5b60209081029190910181015182546001818101855560009485529383902082519101805492909301516001600160601b0316600160a01b026001600160a01b039182166001600160a01b0319909316929092171617905501610b59565b506127108110610cb95760405162461bcd60e51b8152600401610bac90611cd0565b6104b98383611205565b6001600160a01b03918216600090815260696020908152604080832093909416825291909152205460ff1690565b600061054b606683611242565b3390565b600081815260686020526040902080546001600160a01b0319166001600160a01b0384169081179091558190610d3782610590565b6001600160a01b03167f8c5be1e5ebec7d5bd14f71427d1e84f3dd0314c0f7b2291e5b200ac8c7c3b92560405160405180910390a45050565b600061054b8261124e565b6000610d8682610cf1565b610dc15760405162461bcd60e51b815260040180806020018281038252602c815260200180611e23602c913960400191505060405180910390fd5b6000610dcc83610590565b9050806001600160a01b0316846001600160a01b03161480610e075750836001600160a01b0316610dfc84610386565b6001600160a01b0316145b80610e175750610e178185610cc3565b949350505050565b826001600160a01b0316610e3282610590565b6001600160a01b031614610e775760405162461bcd60e51b8152600401808060200182810382526029815260200180611f286029913960400191505060405180910390fd5b6001600160a01b038216610ebc5760405162461bcd60e51b8152600401808060200182810382526024815260200180611dff6024913960400191505060405180910390fd5b610ec78383836104b9565b610ed2600082610d02565b6001600160a01b0383166000908152606560205260409020610ef49082611252565b506001600160a01b0382166000908152606560205260409020610f17908261125e565b50610f246066828461126a565b5080826001600160a01b0316846001600160a01b03167fddf252ad1be2c89b69c2b068fc378daa952ba7f163c4a11628f55a4df523b3ef60405160405180910390a4505050565b60006105488383611280565b6001600160a01b038216610fd2576040805162461bcd60e51b815260206004820181905260248201527f4552433732313a206d696e7420746f20746865207a65726f2061646472657373604482015290519081900360640190fd5b610fdb81610cf1565b1561102d576040805162461bcd60e51b815260206004820152601c60248201527f4552433732313a20746f6b656e20616c7265616479206d696e74656400000000604482015290519081900360640190fd5b611039600083836104b9565b6001600160a01b038216600090815260656020526040902061105b908261125e565b506110686066828461126a565b5060405181906001600160a01b038416906000907fddf252ad1be2c89b69c2b068fc378daa952ba7f163c4a11628f55a4df523b3ef908290a45050565b60008080806110b486866112e4565b9097909650945050505050565b60006110ce84848461135f565b90505b9392505050565b6110e3848484610e1f565b6110ef84848484611429565b61083f5760405162461bcd60e51b8152600401808060200182810382526032815260200180611dcd6032913960400191505060405180910390fd5b60608161114f57506040805180820190915260018152600360fc1b60208201526102eb565b8160005b811561116757600101600a82049150611153565b60008167ffffffffffffffff8111801561118057600080fd5b506040519080825280601f01601f1916602001820160405280156111ab576020820181803683370190505b50859350905060001982015b83156111fc57600a840660300160f81b828280600190039350815181106111da57fe5b60200101906001600160f81b031916908160001a905350600a840493506111b7565b50949350505050565b7f3fa96d7b6bcbfe71ef171666d84db3cf52fa2d1c8afdb1cc8e486177f208b7df8282604051611236929190611d55565b60405180910390a15050565b60006105488383611591565b5490565b600061054883836115a9565b6000610548838361166f565b60006110ce84846001600160a01b0385166116b9565b815460009082106112c25760405162461bcd60e51b8152600401808060200182810382526022815260200180611dab6022913960400191505060405180910390fd5b8260000182815481106112d157fe5b9060005260206000200154905092915050565b8154600090819083106113285760405162461bcd60e51b8152600401808060200182810382526022815260200180611eda6022913960400191505060405180910390fd5b600084600001848154811061133957fe5b906000526020600020906002020190508060000154816001015492509250509250929050565b600082815260018401602052604081205482816113fa5760405162461bcd60e51b81526004018080602001828103825283818151815260200191508051906020019080838360005b838110156113bf5781810151838201526020016113a7565b50505050905090810190601f1680156113ec5780820380516001836020036101000a031916815260200191505b509250505060405180910390fd5b5084600001600182038154811061140d57fe5b9060005260206000209060020201600101549150509392505050565b600061143d846001600160a01b0316611750565b61144957506001610e17565b6000611557630a85bd0160e11b61145e610cfe565b88878760405160240180856001600160a01b03168152602001846001600160a01b0316815260200183815260200180602001828103825283818151815260200191508051906020019080838360005b838110156114c55781810151838201526020016114ad565b50505050905090810190601f1680156114f25780820380516001836020036101000a031916815260200191505b5095505050505050604051602081830303815290604052906001600160e01b0319166020820180516001600160e01b038381831617835250505050604051806060016040528060328152602001611dcd603291396001600160a01b0388169190611756565b9050600081806020019051602081101561157057600080fd5b50516001600160e01b031916630a85bd0160e11b1492505050949350505050565b60009081526001919091016020526040902054151590565b6000818152600183016020526040812054801561166557835460001980830191908101906000908790839081106115dc57fe5b90600052602060002001549050808760000184815481106115f957fe5b60009182526020808320909101929092558281526001898101909252604090209084019055865487908061162957fe5b6001900381819060005260206000200160009055905586600101600087815260200190815260200160002060009055600194505050505061054b565b600091505061054b565b600061167b8383611591565b6116b15750815460018181018455600084815260208082209093018490558454848252828601909352604090209190915561054b565b50600061054b565b60008281526001840160205260408120548061171e5750506040805180820182528381526020808201848152865460018181018955600089815284812095516002909302909501918255915190820155865486845281880190925292909120556110d1565b8285600001600183038154811061173157fe5b90600052602060002090600202016001018190555060009150506110d1565b3b151590565b60606110ce84846000858561176a85611750565b6117bb576040805162461bcd60e51b815260206004820152601d60248201527f416464726573733a2063616c6c20746f206e6f6e2d636f6e7472616374000000604482015290519081900360640190fd5b600080866001600160a01b031685876040518082805190602001908083835b602083106117f95780518252601f1990920191602091820191016117da565b6001836020036101000a03801982511681845116808217855250505050505090500191505060006040518083038185875af1925050503d806000811461185b576040519150601f19603f3d011682016040523d82523d6000602084013e611860565b606091505b509150915061187082828661187b565b979650505050505050565b6060831561188a5750816110d1565b82511561189a5782518084602001fd5b60405162461bcd60e51b81526020600482018181528451602484015284518593919283926044019190850190808383600083156113bf5781810151838201526020016113a7565b6000602082840312156118f2578081fd5b81356110d181611d92565b6000806040838503121561190f578081fd5b823561191a81611d92565b9150602083013561192a81611d92565b809150509250929050565b600080600060608486031215611949578081fd5b833561195481611d92565b9250602084013561196481611d92565b929592945050506040919091013590565b6000806000806080858703121561198a578081fd5b843561199581611d92565b93506020858101356119a681611d92565b935060408601359250606086013567ffffffffffffffff808211156119c9578384fd5b818801915088601f8301126119dc578384fd5b8135818111156119e857fe5b6119fa601f8201601f19168501611d6e565b91508082528984828501011115611a0f578485fd5b8084840185840137810190920192909252939692955090935050565b60008060408385031215611a3d578182fd5b8235611a4881611d92565b91506020830135801515811461192a578182fd5b60008060408385031215611a6e578182fd5b8235611a7981611d92565b946020939093013593505050565b600060208284031215611a98578081fd5b81356001600160e01b0319811681146110d1578182fd5b600060208284031215611ac0578081fd5b5035919050565b6000806040808486031215611ada578283fd5b8335925060208085013567ffffffffffffffff80821115611af9578485fd5b818701915087601f830112611b0c578485fd5b813581811115611b1857fe5b611b258485830201611d6e565b81815284810190848601878402860187018c1015611b41578889fd5b8895505b83861015611bad5787818d031215611b5b578889fd5b87518881018181108782111715611b6e57fe5b89528135611b7b81611d92565b8152818801356001600160601b0381168114611b95578a8bfd5b81890152835260019590950194918601918701611b45565b50809750505050505050509250929050565b6000815180845260208085019450808401835b83811015611c0b57815180516001600160a01b031688528301516001600160601b03168388015260409096019590820190600101611bd2565b509495945050505050565b6001600160a01b0391909116815260200190565b6000602082526105486020830184611bbf565b901515815260200190565b6000602080835283518082850152825b81811015611c7457858101830151858201604001528201611c58565b81811115611c855783604083870101525b50601f01601f1916929092016040019392505050565b6020808252818101527f526f79616c74792076616c75652073686f756c6420626520706f736974697665604082015260600190565b60208082526025908201527f526f79616c747920746f74616c2076616c75652073686f756c64206265203c20604082015264031303030360dc1b606082015260800190565b6020808252601b908201527f526563697069656e742073686f756c642062652070726573656e740000000000604082015260600190565b90815260200190565b6000838252604060208301526110ce6040830184611bbf565b60405181810167ffffffffffffffff81118282101715611d8a57fe5b604052919050565b6001600160a01b0381168114611da757600080fd5b5056fe456e756d657261626c655365743a20696e646578206f7574206f6620626f756e64734552433732313a207472616e7366657220746f206e6f6e20455243373231526563656976657220696d706c656d656e7465724552433732313a207472616e7366657220746f20746865207a65726f20616464726573734552433732313a206f70657261746f7220717565727920666f72206e6f6e6578697374656e7420746f6b656e4552433732313a20617070726f76652063616c6c6572206973206e6f74206f776e6572206e6f7220617070726f76656420666f7220616c6c4552433732313a2062616c616e636520717565727920666f7220746865207a65726f20616464726573734552433732313a206f776e657220717565727920666f72206e6f6e6578697374656e7420746f6b656e456e756d657261626c654d61703a20696e646578206f7574206f6620626f756e64734552433732313a20617070726f76656420717565727920666f72206e6f6e6578697374656e7420746f6b656e4552433732313a207472616e73666572206f6620746f6b656e2074686174206973206e6f74206f776e4552433732314d657461646174613a2055524920717565727920666f72206e6f6e6578697374656e7420746f6b656e4552433732313a20617070726f76616c20746f2063757272656e74206f776e65724552433732313a207472616e736665722063616c6c6572206973206e6f74206f776e6572206e6f7220617070726f766564a2646970667358221220f3cea11284a47797946549fa68444a3298f3a241ea1a543273fc4209e1f388af64736f6c63430007060033",
  "linkReferences": {},
  "deployedLinkReferences": {}
}