{
  "_format": "hh-sol-artifact-1",
  "contractName": "RoyaltiesV1Impl",
  "sourceName": "@rarible/royalties/contracts/impl/RoyaltiesV1Impl.sol",
  "abi": [
    {
      "anonymous": false,
      "inputs": [
        {
          "indexed": false,
          "internalType": "uint256",
          "name": "tokenId",
          "type": "uint256"
        },
        {
          "indexed": false,
          "internalType": "address[]",
          "name": "recipients",
          "type": "address[]"
        },
        {
          "indexed": false,
          "internalType": "uint256[]",
          "name": "bps",
          "type": "uint256[]"
        }
      ],
      "name": "SecondarySaleFees",
      "type": "event"
    },
    {
      "inputs": [
        {
          "internalType": "uint256",
          "name": "id",
          "type": "uint256"
        }
      ],
      "name": "getFeeBps",
      "outputs": [
        {
          "internalType": "uint256[]",
          "name": "",
          "type": "uint256[]"
        }
      ],
      "stateMutability": "view",
      "type": "function"
    },
    {
      "inputs": [
        {
          "internalType": "uint256",
          "name": "id",
          "type": "uint256"
        }
      ],
      "name": "getFeeRecipients",
      "outputs": [
        {
          "internalType": "address payable[]",
          "name": "",
          "type": "address[]"
        }
      ],
      "stateMutability": "view",
      "type": "function"
    }
  ],
  "bytecode": "0x608060405234801561001057600080fd5b50610329806100206000396000f3fe608060405234801561001057600080fd5b50600436106100365760003560e01c80630ebd4c7f1461003b578063b9c4d9fb146100a8575b600080fd5b6100586004803603602081101561005157600080fd5b50356100c5565b60408051602080825283518183015283519192839290830191858101910280838360005b8381101561009457818101518382015260200161007c565b505050509050019250505060405180910390f35b610058600480360360208110156100be57600080fd5b50356101de565b600081815260208181526040808320805482518185028101850190935280835260609493849084015b8282101561013d57600084815260209081902060408051808201909152908401546001600160a01b0381168252600160a01b90046001600160601b0316818301528252600190920191016100ee565b5050505090506000815167ffffffffffffffff8111801561015d57600080fd5b50604051908082528060200260200182016040528015610187578160200160208202803683370190505b50905060005b82518110156101d6578281815181106101a257fe5b6020026020010151602001516001600160601b03168282815181106101c357fe5b602090810291909101015260010161018d565b509392505050565b600081815260208181526040808320805482518185028101850190935280835260609493849084015b8282101561025657600084815260209081902060408051808201909152908401546001600160a01b0381168252600160a01b90046001600160601b031681830152825260019092019101610207565b5050505090506000815167ffffffffffffffff8111801561027657600080fd5b506040519080825280602002602001820160405280156102a0578160200160208202803683370190505b50905060005b82518110156101d6578281815181106102bb57fe5b6020026020010151600001518282815181106102d357fe5b6001600160a01b03909216602092830291909101909101526001016102a656fea26469706673582212204e7f6812b30665b5b32c7f6dda22dcbfb60ed7dcbad3eb6219a15cec903d9bd964736f6c63430007060033",
  "linkReferences": {},
  "deployedLinkReferences": {}
}