{
  "contractName": "AsksCoreErc20",
  "abi": [
    {
      "inputs": [
        {
          "internalType": "address",
          "name": "_erc20TransferHelper",
          "type": "address"
        },
        {
          "internalType": "address",
          "name": "_erc721TransferHelper",
          "type": "address"
        },
        {
          "internalType": "address",
          "name": "_royaltyEngine",
          "type": "address"
        },
        {
          "internalType": "address",
          "name": "_protocolFeeSettings",
          "type": "address"
        },
        {
          "internalType": "address",
          "name": "_weth",
          "type": "address"
        }
      ],
      "stateMutability": "nonpayable",
      "type": "constructor"
    },
    {
      "anonymous": false,
      "inputs": [
        {
          "indexed": true,
          "internalType": "address",
          "name": "tokenContract",
          "type": "address"
        },
        {
          "indexed": true,
          "internalType": "uint256",
          "name": "tokenId",
          "type": "uint256"
        },
        {
          "components": [
            {
              "internalType": "address",
              "name": "seller",
              "type": "address"
            },
            {
              "internalType": "uint96",
              "name": "price",
              "type": "uint96"
            },
            {
              "internalType": "address",
              "name": "currency",
              "type": "address"
            }
          ],
          "indexed": false,
          "internalType": "struct AsksCoreErc20.Ask",
          "name": "ask",
          "type": "tuple"
        }
      ],
      "name": "AskCanceled",
      "type": "event"
    },
    {
      "anonymous": false,
      "inputs": [
        {
          "indexed": true,
          "internalType": "address",
          "name": "tokenContract",
          "type": "address"
        },
        {
          "indexed": true,
          "internalType": "uint256",
          "name": "tokenId",
          "type": "uint256"
        },
        {
          "components": [
            {
              "internalType": "address",
              "name": "seller",
              "type": "address"
            },
            {
              "internalType": "uint96",
              "name": "price",
              "type": "uint96"
            },
            {
              "internalType": "address",
              "name": "currency",
              "type": "address"
            }
          ],
          "indexed": false,
          "internalType": "struct AsksCoreErc20.Ask",
          "name": "ask",
          "type": "tuple"
        }
      ],
      "name": "AskCreated",
      "type": "event"
    },
    {
      "anonymous": false,
      "inputs": [
        {
          "indexed": true,
          "internalType": "address",
          "name": "tokenContract",
          "type": "address"
        },
        {
          "indexed": true,
          "internalType": "uint256",
          "name": "tokenId",
          "type": "uint256"
        },
        {
          "indexed": false,
          "internalType": "address",
          "name": "buyer",
          "type": "address"
        },
        {
          "components": [
            {
              "internalType": "address",
              "name": "seller",
              "type": "address"
            },
            {
              "internalType": "uint96",
              "name": "price",
              "type": "uint96"
            },
            {
              "internalType": "address",
              "name": "currency",
              "type": "address"
            }
          ],
          "indexed": false,
          "internalType": "struct AsksCoreErc20.Ask",
          "name": "ask",
          "type": "tuple"
        }
      ],
      "name": "AskFilled",
      "type": "event"
    },
    {
      "anonymous": false,
      "inputs": [
        {
          "indexed": true,
          "internalType": "address",
          "name": "tokenContract",
          "type": "address"
        },
        {
          "indexed": true,
          "internalType": "uint256",
          "name": "tokenId",
          "type": "uint256"
        },
        {
          "components": [
            {
              "internalType": "address",
              "name": "seller",
              "type": "address"
            },
            {
              "internalType": "uint96",
              "name": "price",
              "type": "uint96"
            },
            {
              "internalType": "address",
              "name": "currency",
              "type": "address"
            }
          ],
          "indexed": false,
          "internalType": "struct AsksCoreErc20.Ask",
          "name": "ask",
          "type": "tuple"
        }
      ],
      "name": "AskPriceUpdated",
      "type": "event"
    },
    {
      "anonymous": false,
      "inputs": [
        {
          "indexed": true,
          "internalType": "address",
          "name": "tokenContract",
          "type": "address"
        },
        {
          "indexed": true,
          "internalType": "uint256",
          "name": "tokenId",
          "type": "uint256"
        },
        {
          "indexed": false,
          "internalType": "address",
          "name": "recipient",
          "type": "address"
        },
        {
          "indexed": false,
          "internalType": "uint256",
          "name": "amount",
          "type": "uint256"
        }
      ],
      "name": "RoyaltyPayout",
      "type": "event"
    },
    {
      "inputs": [
        {
          "internalType": "address",
          "name": "_tokenContract",
          "type": "address"
        },
        {
          "internalType": "uint256",
          "name": "_tokenId",
          "type": "uint256"
        },
        {
          "internalType": "uint256",
          "name": "_amount",
          "type": "uint256"
        },
        {
          "internalType": "address",
          "name": "_payoutCurrency",
          "type": "address"
        }
      ],
      "name": "_handleRoyaltyEnginePayout",
      "outputs": [
        {
          "internalType": "uint256",
          "name": "",
          "type": "uint256"
        }
      ],
      "stateMutability": "payable",
      "type": "function"
    },
    {
      "inputs": [
        {
          "internalType": "address",
          "name": "",
          "type": "address"
        },
        {
          "internalType": "uint256",
          "name": "",
          "type": "uint256"
        }
      ],
      "name": "askForNFT",
      "outputs": [
        {
          "internalType": "address",
          "name": "seller",
          "type": "address"
        },
        {
          "internalType": "uint96",
          "name": "price",
          "type": "uint96"
        },
        {
          "internalType": "address",
          "name": "currency",
          "type": "address"
        }
      ],
      "stateMutability": "view",
      "type": "function"
    },
    {
      "inputs": [],
      "name": "erc20TransferHelper",
      "outputs": [
        {
          "internalType": "contract ERC20TransferHelper",
          "name": "",
          "type": "address"
        }
      ],
      "stateMutability": "view",
      "type": "function"
    },
    {
      "inputs": [],
      "name": "erc721TransferHelper",
      "outputs": [
        {
          "internalType": "contract ERC721TransferHelper",
          "name": "",
          "type": "address"
        }
      ],
      "stateMutability": "view",
      "type": "function"
    },
    {
      "inputs": [],
      "name": "name",
      "outputs": [
        {
          "internalType": "string",
          "name": "",
          "type": "string"
        }
      ],
      "stateMutability": "view",
      "type": "function"
    },
    {
      "inputs": [],
      "name": "registrar",
      "outputs": [
        {
          "internalType": "address",
          "name": "",
          "type": "address"
        }
      ],
      "stateMutability": "view",
      "type": "function"
    },
    {
      "inputs": [
        {
          "internalType": "address",
          "name": "_royaltyEngine",
          "type": "address"
        }
      ],
      "name": "setRoyaltyEngineAddress",
      "outputs": [],
      "stateMutability": "nonpayable",
      "type": "function"
    },
    {
      "inputs": [
        {
          "internalType": "bytes4",
          "name": "_interfaceId",
          "type": "bytes4"
        }
      ],
      "name": "supportsInterface",
      "outputs": [
        {
          "internalType": "bool",
          "name": "",
          "type": "bool"
        }
      ],
      "stateMutability": "pure",
      "type": "function"
    },
    {
      "inputs": [
        {
          "internalType": "address",
          "name": "_tokenContract",
          "type": "address"
        },
        {
          "internalType": "uint256",
          "name": "_tokenId",
          "type": "uint256"
        },
        {
          "internalType": "uint256",
          "name": "_price",
          "type": "uint256"
        },
        {
          "internalType": "address",
          "name": "_currency",
          "type": "address"
        }
      ],
      "name": "createAsk",
      "outputs": [],
      "stateMutability": "nonpayable",
      "type": "function"
    },
    {
      "inputs": [
        {
          "internalType": "address",
          "name": "_tokenContract",
          "type": "address"
        },
        {
          "internalType": "uint256",
          "name": "_tokenId",
          "type": "uint256"
        },
        {
          "internalType": "uint256",
          "name": "_price",
          "type": "uint256"
        },
        {
          "internalType": "address",
          "name": "_currency",
          "type": "address"
        }
      ],
      "name": "setAskPrice",
      "outputs": [],
      "stateMutability": "nonpayable",
      "type": "function"
    },
    {
      "inputs": [
        {
          "internalType": "address",
          "name": "_tokenContract",
          "type": "address"
        },
        {
          "internalType": "uint256",
          "name": "_tokenId",
          "type": "uint256"
        }
      ],
      "name": "cancelAsk",
      "outputs": [],
      "stateMutability": "nonpayable",
      "type": "function"
    },
    {
      "inputs": [
        {
          "internalType": "address",
          "name": "_tokenContract",
          "type": "address"
        },
        {
          "internalType": "uint256",
          "name": "_tokenId",
          "type": "uint256"
        },
        {
          "internalType": "uint256",
          "name": "_price",
          "type": "uint256"
        },
        {
          "internalType": "address",
          "name": "_currency",
          "type": "address"
        }
      ],
      "name": "fillAsk",
      "outputs": [],
      "stateMutability": "payable",
      "type": "function"
    }
  ],
  "bytecode": "0x61012060405260016000553480156200001757600080fd5b50604051620021f1380380620021f18339810160408190526200003a9162000255565b6040518060400160405280601081526020016f041736b7320436f7265204552432d32360841b815250838383876001600160a01b031663e3e606f06040518163ffffffff1660e01b8152600401602060405180830381865afa158015620000a5573d6000803e3d6000fd5b505050506040513d601f19601f82011682018060405250810190620000cb9190620002d5565b6001600160a01b0316632b20e3976040518163ffffffff1660e01b8152600401602060405180830381865afa15801562000109573d6000803e3d6000fd5b505050506040513d601f19601f820116820180604052508101906200012f9190620002d5565b6001600160a01b038a811660805291821660a052600180546001600160a01b0319169483169490941790935590811660e0521660c05280516200017a90600290602084019062000196565b5050506001600160a01b03909216610100525062000339915050565b828054620001a490620002fc565b90600052602060002090601f016020900481019282620001c8576000855562000213565b82601f10620001e357805160ff191683800117855562000213565b8280016001018555821562000213579182015b8281111562000213578251825591602001919060010190620001f6565b506200022192915062000225565b5090565b5b8082111562000221576000815560010162000226565b6001600160a01b03811681146200025257600080fd5b50565b600080600080600060a086880312156200026e57600080fd5b85516200027b816200023c565b60208701519095506200028e816200023c565b6040870151909450620002a1816200023c565b6060870151909350620002b4816200023c565b6080870151909250620002c7816200023c565b809150509295509295909350565b600060208284031215620002e857600080fd5b8151620002f5816200023c565b9392505050565b600181811c908216806200031157607f821691505b602082108114156200033357634e487b7160e01b600052602260045260246000fd5b50919050565b60805160a05160c05160e05161010051611e50620003a1600039600081816102da0152610e5f0152600081816114af01526115420152600081816101150152610b6b01526000818161104801526110c6015260008181610232015261125f0152611e506000f3fe6080604052600436106100a75760003560e01c80638f9d3251116100645780638f9d3251146102205780639128c22c14610254578063b200753314610275578063b249bb3014610295578063d8606343146102b5578063f7cd1d9b146102c857600080fd5b806301ffc9a7146100ac57806306fdde03146100e15780632b20e397146101035780632b9f663e1461014f57806340b8074614610171578063418f065614610191575b600080fd5b3480156100b857600080fd5b506100cc6100c7366004611931565b6102fc565b60405190151581526020015b60405180910390f35b3480156100ed57600080fd5b506100f6610332565b6040516100d89190611987565b34801561010f57600080fd5b506101377f000000000000000000000000000000000000000000000000000000000000000081565b6040516001600160a01b0390911681526020016100d8565b34801561015b57600080fd5b5061016f61016a3660046119d2565b6103c0565b005b34801561017d57600080fd5b5061016f61018c366004611a1c565b61060f565b34801561019d57600080fd5b506101ee6101ac366004611a1c565b6003602090815260009283526040808420909152908252902080546001909101546001600160a01b0380831692600160a01b90046001600160601b0316911683565b604080516001600160a01b0394851681526001600160601b0390931660208401529216918101919091526060016100d8565b34801561022c57600080fd5b506101377f000000000000000000000000000000000000000000000000000000000000000081565b6102676102623660046119d2565b6107e7565b6040519081526020016100d8565b34801561028157600080fd5b5061016f6102903660046119d2565b6109e3565b3480156102a157600080fd5b5061016f6102b0366004611a48565b610b60565b61016f6102c33660046119d2565b610c8c565b3480156102d457600080fd5b506101377f000000000000000000000000000000000000000000000000000000000000000081565b60006001600160e01b031982166228eee160e31b148061032c57506301ffc9a760e01b6001600160e01b03198316145b92915050565b6002805461033f90611a65565b80601f016020809104026020016040519081016040528092919081815260200182805461036b90611a65565b80156103b85780601f1061038d576101008083540402835291602001916103b8565b820191906000526020600020905b81548152906001019060200180831161039b57829003601f168201915b505050505081565b6000546001146103eb5760405162461bcd60e51b81526004016103e290611aa0565b60405180910390fd5b600260009081556040516331a9108f60e11b8152600481018590526001600160a01b03861690636352211e90602401602060405180830381865afa158015610437573d6000803e3d6000fd5b505050506040513d601f19601f8201168201806040525081019061045b9190611ac4565b9050336001600160a01b03821614806104df575060405163e985e9c560e01b81526001600160a01b03828116600483015233602483015286169063e985e9c590604401602060405180830381865afa1580156104bb573d6000803e3d6000fd5b505050506040513d601f19601f820116820180604052508101906104df9190611ae1565b61052b5760405162461bcd60e51b815260206004820152601c60248201527f4f4e4c595f544f4b454e5f4f574e45525f4f525f4f50455241544f520000000060448201526064016103e2565b6001600160601b038311156105765760405162461bcd60e51b8152602060048201526011602482015270494e56414c49445f41534b5f505249434560781b60448201526064016103e2565b6001600160a01b03858116600081815260036020908152604080832089845290915290819020848416600160a01b6001600160601b038916021781556001810180546001600160a01b031916948716949094179093555186927fa5bd647f34fcbc80ec242a9c943441939ba9c241c90515e6c49bd8c3207a3147916105fb9190611b03565b60405180910390a350506001600055505050565b6000546001146106315760405162461bcd60e51b81526004016103e290611aa0565b600260009081556001600160a01b03838116825260036020908152604080842085855282529283902083516060810185528154808516808352600160a01b9091046001600160601b031693820193909352600190910154909216928201929092529033148061071957506040516331a9108f60e11b8152600481018390526001600160a01b03841690636352211e90602401602060405180830381865afa1580156106e0573d6000803e3d6000fd5b505050506040513d601f19601f820116820180604052508101906107049190611ac4565b6001600160a01b0316336001600160a01b0316145b6107655760405162461bcd60e51b815260206004820152601a60248201527f4f4e4c595f53454c4c45525f4f525f544f4b454e5f4f574e455200000000000060448201526064016103e2565b81836001600160a01b03167ffa3f57ecc148dff66af5b7988fd23bb7d42b7c6cf1ac1f4c611980667d8880078360405161079f9190611b31565b60405180910390a3506001600160a01b039091166000908152600360209081526040808320938352929052908120818155600190810180546001600160a01b03191690559055565b600033301461084e5760405162461bcd60e51b815260206004820152602d60248201527f5f68616e646c65526f79616c7479456e67696e655061796f7574206f6e6c792060448201526c73656c662063616c6c61626c6560981b60648201526084016103e2565b600154604051637a99dc0160e11b81526001600160a01b0387811660048301526024820187905260448201869052600092839291169063f533b802906064016000604051808303816000875af11580156108ac573d6000803e3d6000fd5b505050506040513d6000823e601f3d908101601f191682016040526108d49190810190611c3e565b81519193509150806108eb578593505050506109db565b85600080805b848110156109d15786818151811061090b5761090b611d03565b6020026020010151925085818151811061092757610927611d03565b602002602001015191508184101561096d5760405162461bcd60e51b81526020600482015260096024820152681a5b9cdbdb1d995b9d60ba1b60448201526064016103e2565b61097b83838b61c350610f46565b604080516001600160a01b038581168252602082018590528d92908f16917f866e6ef8682ddf5f1025e64dfdb45527077f7be70fa9ef680b7ffd8cf4ab9c50910160405180910390a392819003926001016108f1565b5091955050505050505b949350505050565b600054600114610a055760405162461bcd60e51b81526004016103e290611aa0565b600260009081556001600160a01b03858116825260036020908152604080842087855290915290912080549091163314610a6f5760405162461bcd60e51b815260206004820152600b60248201526a27a7262cafa9a2a62622a960a91b60448201526064016103e2565b8054600160a01b90046001600160601b03168314610af1576001600160601b03831115610ad25760405162461bcd60e51b8152602060048201526011602482015270494e56414c49445f41534b5f505249434560781b60448201526064016103e2565b80546001600160a01b0316600160a01b6001600160601b038516021781555b60018101546001600160a01b03838116911614610b26576001810180546001600160a01b0319166001600160a01b0384161790555b83856001600160a01b03167f0c294c0a739f71ec000739c4763bc46f863f09ca23f26cd9b293094e13e1be1e836040516105fb9190611b03565b336001600160a01b037f00000000000000000000000000000000000000000000000000000000000000001614610be75760405162461bcd60e51b815260206004820152602660248201527f736574526f79616c7479456e67696e6541646472657373206f6e6c792072656760448201526534b9ba3930b960d11b60648201526084016103e2565b610bf881636591fc0b60e11b611112565b610c6a5760405162461bcd60e51b815260206004820152603d60248201527f736574526f79616c7479456e67696e6541646472657373206d757374206d617460448201527f63682049526f79616c7479456e67696e65563120696e7465726661636500000060648201526084016103e2565b600180546001600160a01b0319166001600160a01b0392909216919091179055565b600054600114610cae5760405162461bcd60e51b81526004016103e290611aa0565b600260009081556001600160a01b03858116825260036020908152604080842087855282529283902083516060810185528154808516808352600160a01b9091046001600160601b031693820193909352600190910154909216928201929092529080610d4c5760405162461bcd60e51b815260206004820152600c60248201526b494e4143544956455f41534b60a01b60448201526064016103e2565b60208201516001600160601b0316848114610d9c5760405162461bcd60e51b815260206004820152601060248201526f4d5553545f4d415443485f505249434560801b60448201526064016103e2565b60408301516001600160a01b0385811690821614610df25760405162461bcd60e51b81526020600482015260136024820152724d5553545f4d415443485f43555252454e435960681b60448201526064016103e2565b610dfc8282611135565b6000610e0e89898585620493e06113c4565b509050610e1b8183611486565b9050610e2b84828461c350610f46565b604051630aed65f560e11b81526001600160a01b038a811660048301528581166024830152336044830152606482018a90527f000000000000000000000000000000000000000000000000000000000000000016906315dacbea90608401600060405180830381600087803b158015610ea357600080fd5b505af1158015610eb7573d6000803e3d6000fd5b5050505087896001600160a01b03167f4f241d819b27a0bbc6cc9667ecdfc0bb171d27659515e844c3442b203848d1423388604051610ef7929190611d19565b60405180910390a35050506001600160a01b039095166000908152600360209081526040808320968352959052938420848155600190810180546001600160a01b031916905590935550505050565b821580610f5a57506001600160a01b038416155b15610f645761110c565b6001600160a01b0382166110f85782471015610fcc5760405162461bcd60e51b815260206004820152602160248201527f5f68616e646c654f7574676f696e675472616e7366657220696e736f6c76656e6044820152601d60fa1b60648201526084016103e2565b6000811580610fda57505a82115b610fe45781610fe6565b5a5b90506000856001600160a01b0316858390604051600060405180830381858888f193505050503d8060008114611038576040519150601f19603f3d011682016040523d82523d6000602084013e61103d565b606091505b50509050806110f1577f00000000000000000000000000000000000000000000000000000000000000006001600160a01b031663d0e30db0866040518263ffffffff1660e01b81526004016000604051808303818588803b1580156110a157600080fd5b505af11580156110b5573d6000803e3d6000fd5b506110f19350506001600160a01b037f0000000000000000000000000000000000000000000000000000000000000000169150889050876115d8565b505061110c565b61110c6001600160a01b03831685856115d8565b50505050565b600061111d8361162f565b801561112e575061112e8383611662565b9392505050565b6001600160a01b0381166111bd57813410156111b95760405162461bcd60e51b815260206004820152603b60248201527f5f68616e646c65496e636f6d696e675472616e73666572206d73672076616c7560448201527f65206c657373207468616e20657870656374656420616d6f756e74000000000060648201526084016103e2565b5050565b6040516370a0823160e01b815230600482015281906000906001600160a01b038316906370a0823190602401602060405180830381865afa158015611206573d6000803e3d6000fd5b505050506040513d601f19601f8201168201806040525081019061122a9190611d5f565b60405163d9fc4b6160e01b81526001600160a01b038581166004830152336024830152306044830152606482018790529192507f00000000000000000000000000000000000000000000000000000000000000009091169063d9fc4b6190608401600060405180830381600087803b1580156112a557600080fd5b505af11580156112b9573d6000803e3d6000fd5b50506040516370a0823160e01b8152306004820152600092506001600160a01b03851691506370a0823190602401602060405180830381865afa158015611304573d6000803e3d6000fd5b505050506040513d601f19601f820116820180604052508101906113289190611d5f565b9050806113358684611d8e565b146113bd5760405162461bcd60e51b815260206004820152604c60248201527f5f68616e646c65496e636f6d696e675472616e7366657220746f6b656e20747260448201527f616e736665722063616c6c20646964206e6f74207472616e736665722065787060648201526b1958dd195908185b5bdd5b9d60a21b608482015260a4016103e2565b5050505050565b600080808315806113d457505a84115b6113de57836113e0565b5a5b60405163244a308b60e21b81526001600160a01b03808b166004830152602482018a905260448201899052871660648201529091503090639128c22c90839060840160206040518083038160008887f19350505050801561145e575060408051601f3d908101601f1916820190925261145b91810190611d5f565b60015b61146f57856000925092505061147c565b92506001915061147c9050565b9550959350505050565b6040516330da42fb60e11b81523060048201526024810183905260009081906001600160a01b037f000000000000000000000000000000000000000000000000000000000000000016906361b485f690604401602060405180830381865afa1580156114f6573d6000803e3d6000fd5b505050506040513d601f19601f8201168201806040525081019061151a9190611d5f565b90508061152a578391505061032c565b6040516386ab6fb960e01b81523060048201526000907f00000000000000000000000000000000000000000000000000000000000000006001600160a01b0316906386ab6fb9906024016040805180830381865afa158015611590573d6000803e3d6000fd5b505050506040513d601f19601f820116820180604052508101906115b49190611da6565b9150506115c581838661c350610f46565b6115cf8286611de7565b95945050505050565b604080516001600160a01b038416602482015260448082018490528251808303909101815260649091019091526020810180516001600160e01b031663a9059cbb60e01b17905261162a90849061174b565b505050565b6000611642826301ffc9a760e01b611662565b801561032c575061165b826001600160e01b0319611662565b1592915050565b604080516001600160e01b0319831660248083019190915282518083039091018152604490910182526020810180516001600160e01b03166301ffc9a760e01b179052905160009190829081906001600160a01b03871690617530906116c9908690611dfe565b6000604051808303818686fa925050503d8060008114611705576040519150601f19603f3d011682016040523d82523d6000602084013e61170a565b606091505b5091509150602081511015611725576000935050505061032c565b8180156117415750808060200190518101906117419190611ae1565b9695505050505050565b60006117a0826040518060400160405280602081526020017f5361666545524332303a206c6f772d6c6576656c2063616c6c206661696c6564815250856001600160a01b031661181d9092919063ffffffff16565b80519091501561162a57808060200190518101906117be9190611ae1565b61162a5760405162461bcd60e51b815260206004820152602a60248201527f5361666545524332303a204552433230206f7065726174696f6e20646964206e6044820152691bdd081cdd58d8d9595960b21b60648201526084016103e2565b60606109db8484600085856001600160a01b0385163b61187f5760405162461bcd60e51b815260206004820152601d60248201527f416464726573733a2063616c6c20746f206e6f6e2d636f6e747261637400000060448201526064016103e2565b600080866001600160a01b0316858760405161189b9190611dfe565b60006040518083038185875af1925050503d80600081146118d8576040519150601f19603f3d011682016040523d82523d6000602084013e6118dd565b606091505b50915091506118ed8282866118f8565b979650505050505050565b6060831561190757508161112e565b8251156119175782518084602001fd5b8160405162461bcd60e51b81526004016103e29190611987565b60006020828403121561194357600080fd5b81356001600160e01b03198116811461112e57600080fd5b60005b8381101561197657818101518382015260200161195e565b8381111561110c5750506000910152565b60208152600082518060208401526119a681604085016020870161195b565b601f01601f19169190910160400192915050565b6001600160a01b03811681146119cf57600080fd5b50565b600080600080608085870312156119e857600080fd5b84356119f3816119ba565b935060208501359250604085013591506060850135611a11816119ba565b939692955090935050565b60008060408385031215611a2f57600080fd5b8235611a3a816119ba565b946020939093013593505050565b600060208284031215611a5a57600080fd5b813561112e816119ba565b600181811c90821680611a7957607f821691505b60208210811415611a9a57634e487b7160e01b600052602260045260246000fd5b50919050565b6020808252600a90820152695245454e5452414e435960b01b604082015260600190565b600060208284031215611ad657600080fd5b815161112e816119ba565b600060208284031215611af357600080fd5b8151801515811461112e57600080fd5b81546001600160a01b03808216835260a09190911c602083015260018301541660408201526060810161032c565b6060810161032c828480516001600160a01b0390811683526020808301516001600160601b03169084015260409182015116910152565b634e487b7160e01b600052604160045260246000fd5b604051601f8201601f1916810167ffffffffffffffff81118282101715611ba757611ba7611b68565b604052919050565b600067ffffffffffffffff821115611bc957611bc9611b68565b5060051b60200190565b600082601f830112611be457600080fd5b81516020611bf9611bf483611baf565b611b7e565b82815260059290921b84018101918181019086841115611c1857600080fd5b8286015b84811015611c335780518352918301918301611c1c565b509695505050505050565b60008060408385031215611c5157600080fd5b825167ffffffffffffffff80821115611c6957600080fd5b818501915085601f830112611c7d57600080fd5b81516020611c8d611bf483611baf565b82815260059290921b84018101918181019089841115611cac57600080fd5b948201945b83861015611cd3578551611cc4816119ba565b82529482019490820190611cb1565b91880151919650909350505080821115611cec57600080fd5b50611cf985828601611bd3565b9150509250929050565b634e487b7160e01b600052603260045260246000fd5b6001600160a01b03831681526080810161112e602083018480516001600160a01b0390811683526020808301516001600160601b03169084015260409182015116910152565b600060208284031215611d7157600080fd5b5051919050565b634e487b7160e01b600052601160045260246000fd5b60008219821115611da157611da1611d78565b500190565b60008060408385031215611db957600080fd5b825161ffff81168114611dcb57600080fd5b6020840151909250611ddc816119ba565b809150509250929050565b600082821015611df957611df9611d78565b500390565b60008251611e1081846020870161195b565b919091019291505056fea26469706673582212205112420a8759292aab133c92e9a32dd7e28d023d0382f01da008ac29ab01f80a64736f6c634300080a0033",
  "immutableReferences": {
    "8147": [
      {
        "length": 32,
        "start": 277
      },
      {
        "length": 32,
        "start": 2923
      }
    ],
    "8151": [
      {
        "length": 32,
        "start": 5295
      },
      {
        "length": 32,
        "start": 5442
      }
    ],
    "8470": [
      {
        "length": 32,
        "start": 562
      },
      {
        "length": 32,
        "start": 4703
      }
    ],
    "8607": [
      {
        "length": 32,
        "start": 4168
      },
      {
        "length": 32,
        "start": 4294
      }
    ],
    "8775": [
      {
        "length": 32,
        "start": 730
      },
      {
        "length": 32,
        "start": 3679
      }
    ]
  },
  "source": "// SPDX-License-Identifier: GPL-3.0\npragma solidity 0.8.10;\n\nimport {ReentrancyGuard} from \"@rari-capital/solmate/src/utils/ReentrancyGuard.sol\";\nimport {IERC721} from \"@openzeppelin/contracts/token/ERC721/IERC721.sol\";\n\nimport {ERC721TransferHelper} from \"../../../../transferHelpers/ERC721TransferHelper.sol\";\nimport {IncomingTransferSupportV1} from \"../../../../common/IncomingTransferSupport/V1/IncomingTransferSupportV1.sol\";\nimport {FeePayoutSupportV1} from \"../../../../common/FeePayoutSupport/FeePayoutSupportV1.sol\";\nimport {ModuleNamingSupportV1} from \"../../../../common/ModuleNamingSupport/ModuleNamingSupportV1.sol\";\nimport {IAsksCoreErc20} from \"./IAsksCoreErc20.sol\";\n\n/// @title Asks Core ERC-20\n/// @author kulkarohan\n/// @notice Module for minimal ERC-20 asks for ERC-721 tokens\ncontract AsksCoreErc20 is ReentrancyGuard, IncomingTransferSupportV1, FeePayoutSupportV1, ModuleNamingSupportV1 {\n    ///                                                          ///\n    ///                        IMMUTABLES                        ///\n    ///                                                          ///\n\n    /// @notice The ZORA ERC-721 Transfer Helper\n    ERC721TransferHelper public immutable erc721TransferHelper;\n\n    /// @param _erc20TransferHelper The ZORA ERC-20 Transfer Helper address\n    /// @param _erc721TransferHelper The ZORA ERC-721 Transfer Helper address\n    /// @param _royaltyEngine The Manifold Royalty Engine address\n    /// @param _protocolFeeSettings The ZORA Protocol Fee Settings address\n    /// @param _weth The WETH token address\n    constructor(\n        address _erc20TransferHelper,\n        address _erc721TransferHelper,\n        address _royaltyEngine,\n        address _protocolFeeSettings,\n        address _weth\n    )\n        IncomingTransferSupportV1(_erc20TransferHelper)\n        FeePayoutSupportV1(_royaltyEngine, _protocolFeeSettings, _weth, ERC721TransferHelper(_erc721TransferHelper).ZMM().registrar())\n        ModuleNamingSupportV1(\"Asks Core ERC-20\")\n    {\n        erc721TransferHelper = ERC721TransferHelper(_erc721TransferHelper);\n    }\n\n    /// @notice Implements EIP-165 for standard interface detection\n    /// @dev `0x01ffc9a7` is the IERC165 interface id\n    /// @param _interfaceId The identifier of a given interface\n    /// @return If the given interface is supported\n    function supportsInterface(bytes4 _interfaceId) external pure returns (bool) {\n        return _interfaceId == type(IAsksCoreErc20).interfaceId || _interfaceId == 0x01ffc9a7;\n    }\n\n    ///                                                          ///\n    ///                        ASK STORAGE                       ///\n    ///                                                          ///\n\n    /// @notice The metadata for a given ask\n    /// @param seller The address of the seller\n    /// @param price The price to fill the ask\n    /// @param currency The address of the ERC-20 currency, or address(0) for ETH\n    struct Ask {\n        address seller;\n        uint96 price;\n        address currency;\n    }\n\n    /// @notice The ask for a given NFT, if one exists\n    /// @dev ERC-721 token contract => ERC-721 token id => Ask\n    mapping(address => mapping(uint256 => Ask)) public askForNFT;\n\n    ///                                                          ///\n    ///                        CREATE ASK                        ///\n    ///                                                          ///\n\n    //     ,-.\n    //     `-'\n    //     /|\\\n    //      |             ,-------------.\n    //     / \\            |AsksCoreErc20|\n    //   Caller           `------+------'\n    //     |     createAsk()     |\n    //     | ------------------->|\n    //     |                     |\n    //     |                     ----.\n    //     |                         | store ask metadata\n    //     |                     <---'\n    //     |                     |\n    //     |                     ----.\n    //     |                         | emit AskCreated()\n    //     |                     <---'\n    //   Caller           ,------+------.\n    //     ,-.            |AsksCoreErc20|\n    //     `-'            `-------------'\n    //     /|\\\n    //      |\n    //     / \\\n\n    /// @notice Emitted when an ask is created\n    /// @param tokenContract The ERC-721 token address of the created ask\n    /// @param tokenId The ERC-721 token id of the created ask\n    /// @param ask The metadata of the created ask\n    event AskCreated(address indexed tokenContract, uint256 indexed tokenId, Ask ask);\n\n    /// @notice Creates an ask for a given NFT\n    /// @param _tokenContract The address of the ERC-721 token\n    /// @param _tokenId The id of the ERC-721 token\n    /// @param _price The price to fill the ask\n    /// @param _currency The currency of the ask price\n    function createAsk(\n        address _tokenContract,\n        uint256 _tokenId,\n        uint256 _price,\n        address _currency\n    ) external nonReentrant {\n        // Get the owner of the specified token\n        address tokenOwner = IERC721(_tokenContract).ownerOf(_tokenId);\n\n        // Ensure the caller is the owner or an approved operator\n        require(msg.sender == tokenOwner || IERC721(_tokenContract).isApprovedForAll(tokenOwner, msg.sender), \"ONLY_TOKEN_OWNER_OR_OPERATOR\");\n\n        // Ensure the price can be downcasted to 96 bits for this module\n        // For a higher ask price, use the supporting module\n        require(_price <= type(uint96).max, \"INVALID_ASK_PRICE\");\n\n        // Store the ask metadata\n        askForNFT[_tokenContract][_tokenId].seller = tokenOwner;\n        askForNFT[_tokenContract][_tokenId].price = uint96(_price);\n        askForNFT[_tokenContract][_tokenId].currency = _currency;\n\n        emit AskCreated(_tokenContract, _tokenId, askForNFT[_tokenContract][_tokenId]);\n    }\n\n    ///                                                          ///\n    ///                        UPDATE ASK                        ///\n    ///                                                          ///\n\n    //     ,-.\n    //     `-'\n    //     /|\\\n    //      |             ,-------------.\n    //     / \\            |AsksCoreErc20|\n    //   Caller           `------+------'\n    //     |    setAskPrice()    |\n    //     | ------------------->|\n    //     |                     |\n    //     |                     |\n    //     |    _______________________________________\n    //     |    ! ALT  /  price change?                !\n    //     |    !_____/          |                     !\n    //     |    !                ----.                 !\n    //     |    !                    | update price    !\n    //     |    !                <---'                 !\n    //     |    !~~~~~~~~~~~~~~~~~~~~~~~~~~~~~~~~~~~~~~!\n    //     |    !~[noop]~~~~~~~~~~~~~~~~~~~~~~~~~~~~~~~!\n    //     |                     |\n    //     |                     |\n    //     |    __________________________________________\n    //     |    ! ALT  /  currency change?                !\n    //     |    !_____/          |                        !\n    //     |    !                ----.                    !\n    //     |    !                    | update currency    !\n    //     |    !                <---'                    !\n    //     |    !~~~~~~~~~~~~~~~~~~~~~~~~~~~~~~~~~~~~~~~~~!\n    //     |    !~[noop]~~~~~~~~~~~~~~~~~~~~~~~~~~~~~~~~~~!\n    //     |                     |\n    //     |                     ----.\n    //     |                         | emit AskPriceUpdated()\n    //     |                     <---'\n    //   Caller           ,------+------.\n    //     ,-.            |AsksCoreErc20|\n    //     `-'            `-------------'\n    //     /|\\\n    //      |\n    //     / \\\n\n    /// @notice Emitted when an ask price is updated\n    /// @param tokenContract The ERC-721 token address of the updated ask\n    /// @param tokenId The ERC-721 token id of the updated ask\n    /// @param ask The metadata of the updated the ask\n    event AskPriceUpdated(address indexed tokenContract, uint256 indexed tokenId, Ask ask);\n\n    /// @notice Updates the ask for a given NFT\n    /// @param _tokenContract The address of the ERC-721 token\n    /// @param _tokenId The id of the ERC-721 token\n    /// @param _price The price to fill the ask\n    /// @param _currency The currency of the ask price\n    function setAskPrice(\n        address _tokenContract,\n        uint256 _tokenId,\n        uint256 _price,\n        address _currency\n    ) external nonReentrant {\n        // Get the ask for the specified token\n        Ask storage ask = askForNFT[_tokenContract][_tokenId];\n\n        // Ensure the caller is seller\n        require(msg.sender == ask.seller, \"ONLY_SELLER\");\n\n        // If updating the price,\n        if (_price != ask.price) {\n            // Ensure the price to set can be downcasted\n            require(_price <= type(uint96).max, \"INVALID_ASK_PRICE\");\n\n            // Store the new price\n            ask.price = uint96(_price);\n        }\n\n        // If updating the currency,\n        if (_currency != ask.currency) {\n            // Store the new currency\n            ask.currency = _currency;\n        }\n\n        emit AskPriceUpdated(_tokenContract, _tokenId, ask);\n    }\n\n    ///                                                          ///\n    ///                        CANCEL ASK                        ///\n    ///                                                          ///\n\n    //     ,-.\n    //     `-'\n    //     /|\\\n    //      |             ,-------------.\n    //     / \\            |AsksCoreErc20|\n    //   Caller           `------+------'\n    //     |     cancelAsk()     |\n    //     | ------------------->|\n    //     |                     |\n    //     |                     ----.\n    //     |                         | emit AskCanceled()\n    //     |                     <---'\n    //     |                     |\n    //     |                     ----.\n    //     |                         | delete ask\n    //     |                     <---'\n    //   Caller           ,------+------.\n    //     ,-.            |AsksCoreErc20|\n    //     `-'            `-------------'\n    //     /|\\\n    //      |\n    //     / \\\n\n    /// @notice Emitted when an ask is canceled\n    /// @param tokenContract The ERC-721 token address of the canceled ask\n    /// @param tokenId The ERC-721 token id of the canceled ask\n    /// @param ask The metadata of the canceled ask\n    event AskCanceled(address indexed tokenContract, uint256 indexed tokenId, Ask ask);\n\n    /// @notice Cancels the ask for a given NFT\n    /// @param _tokenContract The address of the ERC-721 token\n    /// @param _tokenId The id of the ERC-721 token\n    function cancelAsk(address _tokenContract, uint256 _tokenId) external nonReentrant {\n        // Get the ask for the specified token\n        Ask memory ask = askForNFT[_tokenContract][_tokenId];\n\n        // Ensure the caller is the seller or a new owner of the token\n        require(msg.sender == ask.seller || msg.sender == IERC721(_tokenContract).ownerOf(_tokenId), \"ONLY_SELLER_OR_TOKEN_OWNER\");\n\n        emit AskCanceled(_tokenContract, _tokenId, ask);\n\n        // Remove the ask from storage\n        delete askForNFT[_tokenContract][_tokenId];\n    }\n\n    ///                                                          ///\n    ///                         FILL ASK                         ///\n    ///                                                          ///\n\n    //     ,-.\n    //     `-'\n    //     /|\\\n    //      |             ,-------------.            ,--------------------.\n    //     / \\            |AsksCoreErc20|            |ERC721TransferHelper|\n    //   Caller           `------+------'            `---------+----------'\n    //     |      fillAsk()      |                             |\n    //     | ------------------->|                             |\n    //     |                     |                             |\n    //     |                     ----.\n    //     |                         | validate received payment\n    //     |                     <---'\n    //     |                     |                             |\n    //     |                     ----.                         |\n    //     |                         | handle royalty payouts  |\n    //     |                     <---'                         |\n    //     |                     |                             |\n    //     |                     ----.                         |\n    //     |                         | handle seller payout    |\n    //     |                     <---'                         |\n    //     |                     |                             |\n    //     |                     |       transferFrom()        |\n    //     |                     |----------------------------->\n    //     |                     |                             |\n    //     |                     |                             |----.\n    //     |                     |                             |    | transfer NFT from seller to buyer\n    //     |                     |                             |<---'\n    //     |                     |                             |\n    //     |                     ----.                         |\n    //     |                         | emit AskFilled()        |\n    //     |                     <---'                         |\n    //     |                     |                             |\n    //     |                     ----.                         |\n    //     |                         | delete ask from contract|\n    //     |                     <---'                         |\n    //   Caller           ,------+------.            ,---------+----------.\n    //     ,-.            |AsksCoreErc20|            |ERC721TransferHelper|\n    //     `-'            `-------------'            `--------------------'\n    //     /|\\\n    //      |\n    //     / \\\n\n    /// @notice Emitted when an ask is filled\n    /// @param tokenContract The ERC-721 token address of the filled ask\n    /// @param tokenId The ERC-721 token id of the filled ask\n    /// @param buyer The buyer address of the filled ask\n    /// @param ask The metadata of the filled ask\n    event AskFilled(address indexed tokenContract, uint256 indexed tokenId, address buyer, Ask ask);\n\n    /// @notice Fills the ask for a given NFT\n    /// @param _tokenContract The address of the ERC-721 token\n    /// @param _tokenId The id of the ERC-721 token\n    /// @param _price The price to fill the ask\n    /// @param _currency The currency to fill the ask\n    function fillAsk(\n        address _tokenContract,\n        uint256 _tokenId,\n        uint256 _price,\n        address _currency\n    ) external payable nonReentrant {\n        // Get the ask for the specified token\n        Ask memory ask = askForNFT[_tokenContract][_tokenId];\n\n        // Cache the seller\n        address seller = ask.seller;\n\n        // Ensure the ask is active\n        require(seller != address(0), \"INACTIVE_ASK\");\n\n        // Cache the price\n        uint256 price = ask.price;\n\n        // Ensure the specified price matches the ask price\n        require(_price == price, \"MUST_MATCH_PRICE\");\n\n        // Cache the currency\n        address currency = ask.currency;\n\n        // Ensure the specified currency matches the ask currency\n        require(_currency == currency, \"MUST_MATCH_CURRENCY\");\n\n        // Transfer the ask price from the buyer\n        // If ETH, this reverts if the buyer did not attach enough\n        // If ERC-20, this reverts if the buyer did not approve the ERC20TransferHelper or does not own the specified tokens\n        _handleIncomingTransfer(price, currency);\n\n        // Payout associated token royalties, if any\n        (uint256 remainingProfit, ) = _handleRoyaltyPayout(_tokenContract, _tokenId, price, currency, 300000);\n\n        // Payout the module fee, if configured\n        remainingProfit = _handleProtocolFeePayout(remainingProfit, currency);\n\n        // Transfer the remaining profit to the seller\n        _handleOutgoingTransfer(seller, remainingProfit, currency, 50000);\n\n        // Transfer the NFT to the buyer\n        // Reverts if the seller did not approve the ERC721TransferHelper or no longer owns the token\n        erc721TransferHelper.transferFrom(_tokenContract, seller, msg.sender, _tokenId);\n\n        emit AskFilled(_tokenContract, _tokenId, msg.sender, ask);\n\n        // Remove the ask from storage\n        delete askForNFT[_tokenContract][_tokenId];\n    }\n}\n",
  "sourcePath": "/Users/ds/Documents/rarible/scripts/contracts/modules/Asks/Core/ERC20/AsksCoreErc20.sol",
  "compiler": {
    "name": "solc",
    "version": "0.8.10+commit.fc410830.Emscripten.clang"
  },
  "schemaVersion": "3.4.3",
  "updatedAt": "2022-04-04T14:37:20.145Z",
  "devdoc": {
    "author": "kulkarohan",
    "events": {
      "AskCanceled(address,uint256,(address,uint96,address))": {
        "params": {
          "ask": "The metadata of the canceled ask",
          "tokenContract": "The ERC-721 token address of the canceled ask",
          "tokenId": "The ERC-721 token id of the canceled ask"
        }
      },
      "AskCreated(address,uint256,(address,uint96,address))": {
        "params": {
          "ask": "The metadata of the created ask",
          "tokenContract": "The ERC-721 token address of the created ask",
          "tokenId": "The ERC-721 token id of the created ask"
        }
      },
      "AskFilled(address,uint256,address,(address,uint96,address))": {
        "params": {
          "ask": "The metadata of the filled ask",
          "buyer": "The buyer address of the filled ask",
          "tokenContract": "The ERC-721 token address of the filled ask",
          "tokenId": "The ERC-721 token id of the filled ask"
        }
      },
      "AskPriceUpdated(address,uint256,(address,uint96,address))": {
        "params": {
          "ask": "The metadata of the updated the ask",
          "tokenContract": "The ERC-721 token address of the updated ask",
          "tokenId": "The ERC-721 token id of the updated ask"
        }
      }
    },
    "kind": "dev",
    "methods": {
      "_handleRoyaltyEnginePayout(address,uint256,uint256,address)": {
        "details": "This method is external to enable setting a gas limit when called - see `_handleRoyaltyPayout`.",
        "params": {
          "_amount": "The total sale amount",
          "_payoutCurrency": "The ERC-20 token address to payout royalties in, or address(0) for ETH",
          "_tokenContract": "The NFT Contract to get royalty information from",
          "_tokenId": ", The Token ID to get royalty information from"
        },
        "returns": {
          "_0": "The remaining funds after paying out royalties"
        }
      },
      "cancelAsk(address,uint256)": {
        "params": {
          "_tokenContract": "The address of the ERC-721 token",
          "_tokenId": "The id of the ERC-721 token"
        }
      },
      "constructor": {
        "params": {
          "_erc20TransferHelper": "The ZORA ERC-20 Transfer Helper address",
          "_erc721TransferHelper": "The ZORA ERC-721 Transfer Helper address",
          "_protocolFeeSettings": "The ZORA Protocol Fee Settings address",
          "_royaltyEngine": "The Manifold Royalty Engine address",
          "_weth": "The WETH token address"
        }
      },
      "createAsk(address,uint256,uint256,address)": {
        "params": {
          "_currency": "The currency of the ask price",
          "_price": "The price to fill the ask",
          "_tokenContract": "The address of the ERC-721 token",
          "_tokenId": "The id of the ERC-721 token"
        }
      },
      "fillAsk(address,uint256,uint256,address)": {
        "params": {
          "_currency": "The currency to fill the ask",
          "_price": "The price to fill the ask",
          "_tokenContract": "The address of the ERC-721 token",
          "_tokenId": "The id of the ERC-721 token"
        }
      },
      "setAskPrice(address,uint256,uint256,address)": {
        "params": {
          "_currency": "The currency of the ask price",
          "_price": "The price to fill the ask",
          "_tokenContract": "The address of the ERC-721 token",
          "_tokenId": "The id of the ERC-721 token"
        }
      },
      "setRoyaltyEngineAddress(address)": {
        "details": "emergency use only  requires a frozen RoyaltyEngineV1 at commit 4ae77a73a8a73a79d628352d206fadae7f8e0f74  to be deployed elsewhere, or a contract matching that ABI",
        "params": {
          "_royaltyEngine": "The address for the new royalty engine"
        }
      },
      "supportsInterface(bytes4)": {
        "details": "`0x01ffc9a7` is the IERC165 interface id",
        "params": {
          "_interfaceId": "The identifier of a given interface"
        },
        "returns": {
          "_0": "If the given interface is supported"
        }
      }
    },
    "stateVariables": {
      "askForNFT": {
        "details": "ERC-721 token contract => ERC-721 token id => Ask"
      }
    },
    "title": "Asks Core ERC-20",
    "version": 1
  },
  "userdoc": {
    "events": {
      "AskCanceled(address,uint256,(address,uint96,address))": {
        "notice": "Emitted when an ask is canceled"
      },
      "AskCreated(address,uint256,(address,uint96,address))": {
        "notice": "Emitted when an ask is created"
      },
      "AskFilled(address,uint256,address,(address,uint96,address))": {
        "notice": "Emitted when an ask is filled"
      },
      "AskPriceUpdated(address,uint256,(address,uint96,address))": {
        "notice": "Emitted when an ask price is updated"
      },
      "RoyaltyPayout(address,uint256,address,uint256)": {
        "notice": "Emitted when royalties are paid"
      }
    },
    "kind": "user",
    "methods": {
      "_handleRoyaltyEnginePayout(address,uint256,uint256,address)": {
        "notice": "Pays out royalties for NFTs based on the information returned by the royalty engine"
      },
      "askForNFT(address,uint256)": {
        "notice": "The ask for a given NFT, if one exists"
      },
      "cancelAsk(address,uint256)": {
        "notice": "Cancels the ask for a given NFT"
      },
      "createAsk(address,uint256,uint256,address)": {
        "notice": "Creates an ask for a given NFT"
      },
      "erc20TransferHelper()": {
        "notice": "The ZORA ERC-20 Transfer Helper"
      },
      "erc721TransferHelper()": {
        "notice": "The ZORA ERC-721 Transfer Helper"
      },
      "fillAsk(address,uint256,uint256,address)": {
        "notice": "Fills the ask for a given NFT"
      },
      "name()": {
        "notice": "The module name"
      },
      "registrar()": {
        "notice": "The ZORA Module Registrar"
      },
      "setAskPrice(address,uint256,uint256,address)": {
        "notice": "Updates the ask for a given NFT"
      },
      "setRoyaltyEngineAddress(address)": {
        "notice": "Update the address of the Royalty Engine, in case of unexpected update on Manifold's Proxy"
      },
      "supportsInterface(bytes4)": {
        "notice": "Implements EIP-165 for standard interface detection"
      }
    },
    "notice": "Module for minimal ERC-20 asks for ERC-721 tokens",
    "version": 1
  }
}