{
  "contractName": "FeePayoutSupportV1",
  "abi": [
    {
      "inputs": [
        {
          "internalType": "address",
          "name": "_royaltyEngine",
          "type": "address"
        },
        {
          "internalType": "address",
          "name": "_protocolFeeSettings",
          "type": "address"
        },
        {
          "internalType": "address",
          "name": "_wethAddress",
          "type": "address"
        },
        {
          "internalType": "address",
          "name": "_registrarAddress",
          "type": "address"
        }
      ],
      "stateMutability": "nonpayable",
      "type": "constructor"
    },
    {
      "anonymous": false,
      "inputs": [
        {
          "indexed": true,
          "internalType": "address",
          "name": "tokenContract",
          "type": "address"
        },
        {
          "indexed": true,
          "internalType": "uint256",
          "name": "tokenId",
          "type": "uint256"
        },
        {
          "indexed": false,
          "internalType": "address",
          "name": "recipient",
          "type": "address"
        },
        {
          "indexed": false,
          "internalType": "uint256",
          "name": "amount",
          "type": "uint256"
        }
      ],
      "name": "RoyaltyPayout",
      "type": "event"
    },
    {
      "inputs": [],
      "name": "registrar",
      "outputs": [
        {
          "internalType": "address",
          "name": "",
          "type": "address"
        }
      ],
      "stateMutability": "view",
      "type": "function"
    },
    {
      "inputs": [
        {
          "internalType": "address",
          "name": "_royaltyEngine",
          "type": "address"
        }
      ],
      "name": "setRoyaltyEngineAddress",
      "outputs": [],
      "stateMutability": "nonpayable",
      "type": "function"
    },
    {
      "inputs": [
        {
          "internalType": "address",
          "name": "_tokenContract",
          "type": "address"
        },
        {
          "internalType": "uint256",
          "name": "_tokenId",
          "type": "uint256"
        },
        {
          "internalType": "uint256",
          "name": "_amount",
          "type": "uint256"
        },
        {
          "internalType": "address",
          "name": "_payoutCurrency",
          "type": "address"
        }
      ],
      "name": "_handleRoyaltyEnginePayout",
      "outputs": [
        {
          "internalType": "uint256",
          "name": "",
          "type": "uint256"
        }
      ],
      "stateMutability": "payable",
      "type": "function"
    }
  ],
  "bytecode": "0x60e060405234801561001057600080fd5b50604051610dc0380380610dc083398101604081905261002f91610080565b6001600160a01b03918216608052600080546001600160a01b0319169483169490941790935590811660c0521660a0526100d4565b80516001600160a01b038116811461007b57600080fd5b919050565b6000806000806080858703121561009657600080fd5b61009f85610064565b93506100ad60208601610064565b92506100bb60408601610064565b91506100c960608601610064565b905092959194509250565b60805160a05160c051610cb361010d6000396000505060008181604b01526102d60152600081816104f901526105770152610cb36000f3fe6080604052600436106100345760003560e01c80632b20e397146100395780639128c22c1461008a578063b249bb30146100ab575b600080fd5b34801561004557600080fd5b5061006d7f000000000000000000000000000000000000000000000000000000000000000081565b6040516001600160a01b0390911681526020015b60405180910390f35b61009d6100983660046109c8565b6100cd565b604051908152602001610081565b3480156100b757600080fd5b506100cb6100c6366004610a12565b6102cb565b005b60003330146101395760405162461bcd60e51b815260206004820152602d60248201527f5f68616e646c65526f79616c7479456e67696e655061796f7574206f6e6c792060448201526c73656c662063616c6c61626c6560981b60648201526084015b60405180910390fd5b60008054604051637a99dc0160e11b81526001600160a01b03888116600483015260248201889052604482018790528392169063f533b802906064016000604051808303816000875af1158015610194573d6000803e3d6000fd5b505050506040513d6000823e601f3d908101601f191682016040526101bc9190810190610b05565b81519193509150806101d3578593505050506102c3565b85600080805b848110156102b9578681815181106101f3576101f3610bca565b6020026020010151925085818151811061020f5761020f610bca565b60200260200101519150818410156102555760405162461bcd60e51b81526020600482015260096024820152681a5b9cdbdb1d995b9d60ba1b6044820152606401610130565b61026383838b61c3506103f7565b604080516001600160a01b038581168252602082018590528d92908f16917f866e6ef8682ddf5f1025e64dfdb45527077f7be70fa9ef680b7ffd8cf4ab9c50910160405180910390a392819003926001016101d9565b5091955050505050505b949350505050565b336001600160a01b037f000000000000000000000000000000000000000000000000000000000000000016146103525760405162461bcd60e51b815260206004820152602660248201527f736574526f79616c7479456e67696e6541646472657373206f6e6c792072656760448201526534b9ba3930b960d11b6064820152608401610130565b61036381636591fc0b60e11b6105c3565b6103d55760405162461bcd60e51b815260206004820152603d60248201527f736574526f79616c7479456e67696e6541646472657373206d757374206d617460448201527f63682049526f79616c7479456e67696e65563120696e746572666163650000006064820152608401610130565b600080546001600160a01b0319166001600160a01b0392909216919091179055565b82158061040b57506001600160a01b038416155b15610415576105bd565b6001600160a01b0382166105a9578247101561047d5760405162461bcd60e51b815260206004820152602160248201527f5f68616e646c654f7574676f696e675472616e7366657220696e736f6c76656e6044820152601d60fa1b6064820152608401610130565b600081158061048b57505a82115b6104955781610497565b5a5b90506000856001600160a01b0316858390604051600060405180830381858888f193505050503d80600081146104e9576040519150601f19603f3d011682016040523d82523d6000602084013e6104ee565b606091505b50509050806105a2577f00000000000000000000000000000000000000000000000000000000000000006001600160a01b031663d0e30db0866040518263ffffffff1660e01b81526004016000604051808303818588803b15801561055257600080fd5b505af1158015610566573d6000803e3d6000fd5b506105a29350506001600160a01b037f0000000000000000000000000000000000000000000000000000000000000000169150889050876105e8565b50506105bd565b6105bd6001600160a01b03831685856105e8565b50505050565b60006105ce8361063f565b80156105df57506105df8383610672565b90505b92915050565b604080516001600160a01b038416602482015260448082018490528251808303909101815260649091019091526020810180516001600160e01b031663a9059cbb60e01b17905261063a90849061075b565b505050565b6000610652826301ffc9a760e01b610672565b80156105e2575061066b826001600160e01b0319610672565b1592915050565b604080516001600160e01b0319831660248083019190915282518083039091018152604490910182526020810180516001600160e01b03166301ffc9a760e01b179052905160009190829081906001600160a01b03871690617530906106d9908690610c0c565b6000604051808303818686fa925050503d8060008114610715576040519150601f19603f3d011682016040523d82523d6000602084013e61071a565b606091505b509150915060208151101561073557600093505050506105e2565b8180156107515750808060200190518101906107519190610c28565b9695505050505050565b60006107b0826040518060400160405280602081526020017f5361666545524332303a206c6f772d6c6576656c2063616c6c206661696c6564815250856001600160a01b031661082d9092919063ffffffff16565b80519091501561063a57808060200190518101906107ce9190610c28565b61063a5760405162461bcd60e51b815260206004820152602a60248201527f5361666545524332303a204552433230206f7065726174696f6e20646964206e6044820152691bdd081cdd58d8d9595960b21b6064820152608401610130565b606061083c8484600085610846565b90505b9392505050565b6060824710156108a75760405162461bcd60e51b815260206004820152602660248201527f416464726573733a20696e73756666696369656e742062616c616e636520666f6044820152651c8818d85b1b60d21b6064820152608401610130565b6001600160a01b0385163b6108fe5760405162461bcd60e51b815260206004820152601d60248201527f416464726573733a2063616c6c20746f206e6f6e2d636f6e74726163740000006044820152606401610130565b600080866001600160a01b0316858760405161091a9190610c0c565b60006040518083038185875af1925050503d8060008114610957576040519150601f19603f3d011682016040523d82523d6000602084013e61095c565b606091505b509150915061096c828286610977565b979650505050505050565b6060831561098657508161083f565b8251156109965782518084602001fd5b8160405162461bcd60e51b81526004016101309190610c4a565b6001600160a01b03811681146109c557600080fd5b50565b600080600080608085870312156109de57600080fd5b84356109e9816109b0565b935060208501359250604085013591506060850135610a07816109b0565b939692955090935050565b600060208284031215610a2457600080fd5b813561083f816109b0565b634e487b7160e01b600052604160045260246000fd5b604051601f8201601f1916810167ffffffffffffffff81118282101715610a6e57610a6e610a2f565b604052919050565b600067ffffffffffffffff821115610a9057610a90610a2f565b5060051b60200190565b600082601f830112610aab57600080fd5b81516020610ac0610abb83610a76565b610a45565b82815260059290921b84018101918181019086841115610adf57600080fd5b8286015b84811015610afa5780518352918301918301610ae3565b509695505050505050565b60008060408385031215610b1857600080fd5b825167ffffffffffffffff80821115610b3057600080fd5b818501915085601f830112610b4457600080fd5b81516020610b54610abb83610a76565b82815260059290921b84018101918181019089841115610b7357600080fd5b948201945b83861015610b9a578551610b8b816109b0565b82529482019490820190610b78565b91880151919650909350505080821115610bb357600080fd5b50610bc085828601610a9a565b9150509250929050565b634e487b7160e01b600052603260045260246000fd5b60005b83811015610bfb578181015183820152602001610be3565b838111156105bd5750506000910152565b60008251610c1e818460208701610be0565b9190910192915050565b600060208284031215610c3a57600080fd5b8151801515811461083f57600080fd5b6020815260008251806020840152610c69816040850160208701610be0565b601f01601f1916919091016040019291505056fea26469706673582212206e1806ff8209afc4a10806c3102aae29fafed1fabf6d50a6c45172027ee5c75064736f6c634300080a0033",
  "immutableReferences": {
    "8147": [
      {
        "length": 32,
        "start": 75
      },
      {
        "length": 32,
        "start": 726
      }
    ],
    "8607": [
      {
        "length": 32,
        "start": 1273
      },
      {
        "length": 32,
        "start": 1399
      }
    ]
  },
  "source": "// SPDX-License-Identifier: GPL-3.0\npragma solidity 0.8.10;\n\nimport {IRoyaltyEngineV1} from \"@manifoldxyz/royalty-registry-solidity/contracts/IRoyaltyEngineV1.sol\";\nimport {IERC20} from \"@openzeppelin/contracts/token/ERC20/IERC20.sol\";\nimport {ERC165Checker} from \"@openzeppelin/contracts/utils/introspection/ERC165Checker.sol\";\nimport {ZoraProtocolFeeSettings} from \"../../auxiliary/ZoraProtocolFeeSettings/ZoraProtocolFeeSettings.sol\";\nimport {OutgoingTransferSupportV1} from \"../OutgoingTransferSupport/V1/OutgoingTransferSupportV1.sol\";\n\n/// @title FeePayoutSupportV1\n/// @author tbtstl <t@zora.co>\n/// @notice This contract extension supports paying out protocol fees and royalties\ncontract FeePayoutSupportV1 is OutgoingTransferSupportV1 {\n    /// @notice The ZORA Module Registrar\n    address public immutable registrar;\n\n    /// @notice The ZORA Protocol Fee Settings\n    ZoraProtocolFeeSettings immutable protocolFeeSettings;\n\n    /// @notice The Manifold Royalty Engine\n    IRoyaltyEngineV1 royaltyEngine;\n\n    /// @notice Emitted when royalties are paid\n    /// @param tokenContract The ERC-721 token address of the royalty payout\n    /// @param tokenId The ERC-721 token ID of the royalty payout\n    /// @param recipient The recipient address of the royalty\n    /// @param amount The amount paid to the recipient\n    event RoyaltyPayout(address indexed tokenContract, uint256 indexed tokenId, address recipient, uint256 amount);\n\n    /// @param _royaltyEngine The Manifold Royalty Engine V1 address\n    /// @param _protocolFeeSettings The ZoraProtocolFeeSettingsV1 address\n    /// @param _wethAddress WETH address\n    /// @param _registrarAddress The Registrar address, who can update the royalty engine address\n    constructor(\n        address _royaltyEngine,\n        address _protocolFeeSettings,\n        address _wethAddress,\n        address _registrarAddress\n    ) OutgoingTransferSupportV1(_wethAddress) {\n        royaltyEngine = IRoyaltyEngineV1(_royaltyEngine);\n        protocolFeeSettings = ZoraProtocolFeeSettings(_protocolFeeSettings);\n        registrar = _registrarAddress;\n    }\n\n    /// @notice Update the address of the Royalty Engine, in case of unexpected update on Manifold's Proxy\n    /// @dev emergency use only  requires a frozen RoyaltyEngineV1 at commit 4ae77a73a8a73a79d628352d206fadae7f8e0f74\n    ///  to be deployed elsewhere, or a contract matching that ABI\n    /// @param _royaltyEngine The address for the new royalty engine\n    function setRoyaltyEngineAddress(address _royaltyEngine) public {\n        require(msg.sender == registrar, \"setRoyaltyEngineAddress only registrar\");\n        require(\n            ERC165Checker.supportsInterface(_royaltyEngine, type(IRoyaltyEngineV1).interfaceId),\n            \"setRoyaltyEngineAddress must match IRoyaltyEngineV1 interface\"\n        );\n        royaltyEngine = IRoyaltyEngineV1(_royaltyEngine);\n    }\n\n    /// @notice Pays out the protocol fee to its fee recipient\n    /// @param _amount The sale amount\n    /// @param _payoutCurrency The currency to pay the fee\n    /// @return The remaining funds after paying the protocol fee\n    function _handleProtocolFeePayout(uint256 _amount, address _payoutCurrency) internal returns (uint256) {\n        // Get fee for this module\n        uint256 protocolFee = protocolFeeSettings.getFeeAmount(address(this), _amount);\n\n        // If no fee, return initial amount\n        if (protocolFee == 0) return _amount;\n\n        // Get fee recipient\n        (, address feeRecipient) = protocolFeeSettings.moduleFeeSetting(address(this));\n\n        // Payout protocol fee\n        _handleOutgoingTransfer(feeRecipient, protocolFee, _payoutCurrency, 50000);\n\n        // Return remaining amount\n        return _amount - protocolFee;\n    }\n\n    /// @notice Pays out royalties for given NFTs\n    /// @param _tokenContract The NFT contract address to get royalty information from\n    /// @param _tokenId, The Token ID to get royalty information from\n    /// @param _amount The total sale amount\n    /// @param _payoutCurrency The ERC-20 token address to payout royalties in, or address(0) for ETH\n    /// @param _gasLimit The gas limit to use when attempting to payout royalties. Uses gasleft() if not provided.\n    /// @return The remaining funds after paying out royalties\n    function _handleRoyaltyPayout(\n        address _tokenContract,\n        uint256 _tokenId,\n        uint256 _amount,\n        address _payoutCurrency,\n        uint256 _gasLimit\n    ) internal returns (uint256, bool) {\n        // If no gas limit was provided or provided gas limit greater than gas left, just pass the remaining gas.\n        uint256 gas = (_gasLimit == 0 || _gasLimit > gasleft()) ? gasleft() : _gasLimit;\n\n        // External call ensuring contract doesn't run out of gas paying royalties\n        try this._handleRoyaltyEnginePayout{gas: gas}(_tokenContract, _tokenId, _amount, _payoutCurrency) returns (uint256 remainingFunds) {\n            // Return remaining amount if royalties payout succeeded\n            return (remainingFunds, true);\n        } catch {\n            // Return initial amount if royalties payout failed\n            return (_amount, false);\n        }\n    }\n\n    /// @notice Pays out royalties for NFTs based on the information returned by the royalty engine\n    /// @dev This method is external to enable setting a gas limit when called - see `_handleRoyaltyPayout`.\n    /// @param _tokenContract The NFT Contract to get royalty information from\n    /// @param _tokenId, The Token ID to get royalty information from\n    /// @param _amount The total sale amount\n    /// @param _payoutCurrency The ERC-20 token address to payout royalties in, or address(0) for ETH\n    /// @return The remaining funds after paying out royalties\n    function _handleRoyaltyEnginePayout(\n        address _tokenContract,\n        uint256 _tokenId,\n        uint256 _amount,\n        address _payoutCurrency\n    ) external payable returns (uint256) {\n        // Ensure the caller is the contract\n        require(msg.sender == address(this), \"_handleRoyaltyEnginePayout only self callable\");\n\n        // Get the royalty recipients and their associated amounts\n        (address payable[] memory recipients, uint256[] memory amounts) = royaltyEngine.getRoyalty(_tokenContract, _tokenId, _amount);\n\n        // Store the number of recipients\n        uint256 numRecipients = recipients.length;\n\n        // If there are no royalties, return the initial amount\n        if (numRecipients == 0) return _amount;\n\n        // Store the initial amount\n        uint256 amountRemaining = _amount;\n\n        // Store the variables that cache each recipient and amount\n        address recipient;\n        uint256 amount;\n\n        // Payout each royalty\n        for (uint256 i = 0; i < numRecipients; ) {\n            // Cache the recipient and amount\n            recipient = recipients[i];\n            amount = amounts[i];\n\n            // Ensure that we aren't somehow paying out more than we have\n            require(amountRemaining >= amount, \"insolvent\");\n\n            // Transfer to the recipient\n            _handleOutgoingTransfer(recipient, amount, _payoutCurrency, 50000);\n\n            emit RoyaltyPayout(_tokenContract, _tokenId, recipient, amount);\n\n            // Cannot underflow as remaining amount is ensured to be greater than or equal to royalty amount\n            unchecked {\n                amountRemaining -= amount;\n                ++i;\n            }\n        }\n\n        return amountRemaining;\n    }\n}\n",
  "sourcePath": "/Users/ds/Documents/rarible/scripts/contracts/common/FeePayoutSupport/FeePayoutSupportV1.sol",
  "compiler": {
    "name": "solc",
    "version": "0.8.10+commit.fc410830.Emscripten.clang"
  },
  "schemaVersion": "3.4.3",
  "updatedAt": "2022-04-04T14:37:20.134Z",
  "devdoc": {
    "author": "tbtstl <t@zora.co>",
    "events": {
      "RoyaltyPayout(address,uint256,address,uint256)": {
        "params": {
          "amount": "The amount paid to the recipient",
          "recipient": "The recipient address of the royalty",
          "tokenContract": "The ERC-721 token address of the royalty payout",
          "tokenId": "The ERC-721 token ID of the royalty payout"
        }
      }
    },
    "kind": "dev",
    "methods": {
      "_handleRoyaltyEnginePayout(address,uint256,uint256,address)": {
        "details": "This method is external to enable setting a gas limit when called - see `_handleRoyaltyPayout`.",
        "params": {
          "_amount": "The total sale amount",
          "_payoutCurrency": "The ERC-20 token address to payout royalties in, or address(0) for ETH",
          "_tokenContract": "The NFT Contract to get royalty information from",
          "_tokenId": ", The Token ID to get royalty information from"
        },
        "returns": {
          "_0": "The remaining funds after paying out royalties"
        }
      },
      "constructor": {
        "params": {
          "_protocolFeeSettings": "The ZoraProtocolFeeSettingsV1 address",
          "_registrarAddress": "The Registrar address, who can update the royalty engine address",
          "_royaltyEngine": "The Manifold Royalty Engine V1 address",
          "_wethAddress": "WETH address"
        }
      },
      "setRoyaltyEngineAddress(address)": {
        "details": "emergency use only  requires a frozen RoyaltyEngineV1 at commit 4ae77a73a8a73a79d628352d206fadae7f8e0f74  to be deployed elsewhere, or a contract matching that ABI",
        "params": {
          "_royaltyEngine": "The address for the new royalty engine"
        }
      }
    },
    "title": "FeePayoutSupportV1",
    "version": 1
  },
  "userdoc": {
    "events": {
      "RoyaltyPayout(address,uint256,address,uint256)": {
        "notice": "Emitted when royalties are paid"
      }
    },
    "kind": "user",
    "methods": {
      "_handleRoyaltyEnginePayout(address,uint256,uint256,address)": {
        "notice": "Pays out royalties for NFTs based on the information returned by the royalty engine"
      },
      "registrar()": {
        "notice": "The ZORA Module Registrar"
      },
      "setRoyaltyEngineAddress(address)": {
        "notice": "Update the address of the Royalty Engine, in case of unexpected update on Manifold's Proxy"
      }
    },
    "notice": "This contract extension supports paying out protocol fees and royalties",
    "version": 1
  }
}