{
  "contractName": "LibOrderDataV1",
  "abi": [
    {
      "inputs": [],
      "name": "V1",
      "outputs": [
        {
          "internalType": "bytes4",
          "name": "",
          "type": "bytes4"
        }
      ],
      "stateMutability": "view",
      "type": "function"
    }
  ],
  "bytecode": "0x60c1610025600b82828239805160001a60731461001857fe5b30600052607381538281f3fe730000000000000000000000000000000000000000301460806040526004361060335760003560e01c80633ee569bf146038575b600080fd5b603e6052565b604051604991906076565b60405180910390f35b7f4c23426613a5dc69e08fbd2787e6210aa679d4522e95a89d4dd88c4fd13a228381565b6001600160e01b03199190911681526020019056fea2646970667358221220d998cf3d1b33cb0db55daa8fcd67cb76111d4a1d7693aa0a789fd70db1bbf40564736f6c63430007060033",
  "immutableReferences": {},
  "source": "// SPDX-License-Identifier: MIT\n\npragma solidity 0.7.6;\npragma abicoder v2;\n\nimport \"@rarible/lib-part/contracts/LibPart.sol\";\n\nlibrary LibOrderDataV1 {\n    bytes4 constant public V1 = bytes4(keccak256(\"V1\"));\n\n    struct DataV1 {\n        LibPart.Part[] payouts;\n        LibPart.Part[] originFees;\n    }\n\n}\n",
  "sourcePath": "@rarible/exchange-v2/contracts/libraries/LibOrderDataV1.sol",
  "compiler": {
    "name": "solc",
    "version": "0.7.6+commit.7338295f.Emscripten.clang"
  },
  "schemaVersion": "3.4.3",
  "updatedAt": "2023-10-24T13:51:41.010Z",
  "devdoc": {
    "kind": "dev",
    "methods": {},
    "version": 1
  },
  "userdoc": {
    "kind": "user",
    "methods": {},
    "version": 1
  }
}