{
  "contractName": "ReserveAuctionListingErc20",
  "abi": [
    {
      "inputs": [
        {
          "internalType": "address",
          "name": "_erc20TransferHelper",
          "type": "address"
        },
        {
          "internalType": "address",
          "name": "_erc721TransferHelper",
          "type": "address"
        },
        {
          "internalType": "address",
          "name": "_royaltyEngine",
          "type": "address"
        },
        {
          "internalType": "address",
          "name": "_protocolFeeSettings",
          "type": "address"
        },
        {
          "internalType": "address",
          "name": "_weth",
          "type": "address"
        }
      ],
      "stateMutability": "nonpayable",
      "type": "constructor"
    },
    {
      "anonymous": false,
      "inputs": [
        {
          "indexed": true,
          "internalType": "address",
          "name": "tokenContract",
          "type": "address"
        },
        {
          "indexed": true,
          "internalType": "uint256",
          "name": "tokenId",
          "type": "uint256"
        },
        {
          "indexed": false,
          "internalType": "bool",
          "name": "firstBid",
          "type": "bool"
        },
        {
          "indexed": false,
          "internalType": "bool",
          "name": "extended",
          "type": "bool"
        },
        {
          "components": [
            {
              "internalType": "address",
              "name": "seller",
              "type": "address"
            },
            {
              "internalType": "uint96",
              "name": "reservePrice",
              "type": "uint96"
            },
            {
              "internalType": "address",
              "name": "sellerFundsRecipient",
              "type": "address"
            },
            {
              "internalType": "uint96",
              "name": "highestBid",
              "type": "uint96"
            },
            {
              "internalType": "address",
              "name": "highestBidder",
              "type": "address"
            },
            {
              "internalType": "uint96",
              "name": "startTime",
              "type": "uint96"
            },
            {
              "internalType": "address",
              "name": "currency",
              "type": "address"
            },
            {
              "internalType": "uint96",
              "name": "firstBidTime",
              "type": "uint96"
            },
            {
              "internalType": "address",
              "name": "listingFeeRecipient",
              "type": "address"
            },
            {
              "internalType": "uint80",
              "name": "duration",
              "type": "uint80"
            },
            {
              "internalType": "uint16",
              "name": "listingFeeBps",
              "type": "uint16"
            }
          ],
          "indexed": false,
          "internalType": "struct ReserveAuctionListingErc20.Auction",
          "name": "auction",
          "type": "tuple"
        }
      ],
      "name": "AuctionBid",
      "type": "event"
    },
    {
      "anonymous": false,
      "inputs": [
        {
          "indexed": true,
          "internalType": "address",
          "name": "tokenContract",
          "type": "address"
        },
        {
          "indexed": true,
          "internalType": "uint256",
          "name": "tokenId",
          "type": "uint256"
        },
        {
          "components": [
            {
              "internalType": "address",
              "name": "seller",
              "type": "address"
            },
            {
              "internalType": "uint96",
              "name": "reservePrice",
              "type": "uint96"
            },
            {
              "internalType": "address",
              "name": "sellerFundsRecipient",
              "type": "address"
            },
            {
              "internalType": "uint96",
              "name": "highestBid",
              "type": "uint96"
            },
            {
              "internalType": "address",
              "name": "highestBidder",
              "type": "address"
            },
            {
              "internalType": "uint96",
              "name": "startTime",
              "type": "uint96"
            },
            {
              "internalType": "address",
              "name": "currency",
              "type": "address"
            },
            {
              "internalType": "uint96",
              "name": "firstBidTime",
              "type": "uint96"
            },
            {
              "internalType": "address",
              "name": "listingFeeRecipient",
              "type": "address"
            },
            {
              "internalType": "uint80",
              "name": "duration",
              "type": "uint80"
            },
            {
              "internalType": "uint16",
              "name": "listingFeeBps",
              "type": "uint16"
            }
          ],
          "indexed": false,
          "internalType": "struct ReserveAuctionListingErc20.Auction",
          "name": "auction",
          "type": "tuple"
        }
      ],
      "name": "AuctionCanceled",
      "type": "event"
    },
    {
      "anonymous": false,
      "inputs": [
        {
          "indexed": true,
          "internalType": "address",
          "name": "tokenContract",
          "type": "address"
        },
        {
          "indexed": true,
          "internalType": "uint256",
          "name": "tokenId",
          "type": "uint256"
        },
        {
          "components": [
            {
              "internalType": "address",
              "name": "seller",
              "type": "address"
            },
            {
              "internalType": "uint96",
              "name": "reservePrice",
              "type": "uint96"
            },
            {
              "internalType": "address",
              "name": "sellerFundsRecipient",
              "type": "address"
            },
            {
              "internalType": "uint96",
              "name": "highestBid",
              "type": "uint96"
            },
            {
              "internalType": "address",
              "name": "highestBidder",
              "type": "address"
            },
            {
              "internalType": "uint96",
              "name": "startTime",
              "type": "uint96"
            },
            {
              "internalType": "address",
              "name": "currency",
              "type": "address"
            },
            {
              "internalType": "uint96",
              "name": "firstBidTime",
              "type": "uint96"
            },
            {
              "internalType": "address",
              "name": "listingFeeRecipient",
              "type": "address"
            },
            {
              "internalType": "uint80",
              "name": "duration",
              "type": "uint80"
            },
            {
              "internalType": "uint16",
              "name": "listingFeeBps",
              "type": "uint16"
            }
          ],
          "indexed": false,
          "internalType": "struct ReserveAuctionListingErc20.Auction",
          "name": "auction",
          "type": "tuple"
        }
      ],
      "name": "AuctionCreated",
      "type": "event"
    },
    {
      "anonymous": false,
      "inputs": [
        {
          "indexed": true,
          "internalType": "address",
          "name": "tokenContract",
          "type": "address"
        },
        {
          "indexed": true,
          "internalType": "uint256",
          "name": "tokenId",
          "type": "uint256"
        },
        {
          "components": [
            {
              "internalType": "address",
              "name": "seller",
              "type": "address"
            },
            {
              "internalType": "uint96",
              "name": "reservePrice",
              "type": "uint96"
            },
            {
              "internalType": "address",
              "name": "sellerFundsRecipient",
              "type": "address"
            },
            {
              "internalType": "uint96",
              "name": "highestBid",
              "type": "uint96"
            },
            {
              "internalType": "address",
              "name": "highestBidder",
              "type": "address"
            },
            {
              "internalType": "uint96",
              "name": "startTime",
              "type": "uint96"
            },
            {
              "internalType": "address",
              "name": "currency",
              "type": "address"
            },
            {
              "internalType": "uint96",
              "name": "firstBidTime",
              "type": "uint96"
            },
            {
              "internalType": "address",
              "name": "listingFeeRecipient",
              "type": "address"
            },
            {
              "internalType": "uint80",
              "name": "duration",
              "type": "uint80"
            },
            {
              "internalType": "uint16",
              "name": "listingFeeBps",
              "type": "uint16"
            }
          ],
          "indexed": false,
          "internalType": "struct ReserveAuctionListingErc20.Auction",
          "name": "auction",
          "type": "tuple"
        }
      ],
      "name": "AuctionEnded",
      "type": "event"
    },
    {
      "anonymous": false,
      "inputs": [
        {
          "indexed": true,
          "internalType": "address",
          "name": "tokenContract",
          "type": "address"
        },
        {
          "indexed": true,
          "internalType": "uint256",
          "name": "tokenId",
          "type": "uint256"
        },
        {
          "components": [
            {
              "internalType": "address",
              "name": "seller",
              "type": "address"
            },
            {
              "internalType": "uint96",
              "name": "reservePrice",
              "type": "uint96"
            },
            {
              "internalType": "address",
              "name": "sellerFundsRecipient",
              "type": "address"
            },
            {
              "internalType": "uint96",
              "name": "highestBid",
              "type": "uint96"
            },
            {
              "internalType": "address",
              "name": "highestBidder",
              "type": "address"
            },
            {
              "internalType": "uint96",
              "name": "startTime",
              "type": "uint96"
            },
            {
              "internalType": "address",
              "name": "currency",
              "type": "address"
            },
            {
              "internalType": "uint96",
              "name": "firstBidTime",
              "type": "uint96"
            },
            {
              "internalType": "address",
              "name": "listingFeeRecipient",
              "type": "address"
            },
            {
              "internalType": "uint80",
              "name": "duration",
              "type": "uint80"
            },
            {
              "internalType": "uint16",
              "name": "listingFeeBps",
              "type": "uint16"
            }
          ],
          "indexed": false,
          "internalType": "struct ReserveAuctionListingErc20.Auction",
          "name": "auction",
          "type": "tuple"
        }
      ],
      "name": "AuctionReservePriceUpdated",
      "type": "event"
    },
    {
      "anonymous": false,
      "inputs": [
        {
          "indexed": true,
          "internalType": "address",
          "name": "tokenContract",
          "type": "address"
        },
        {
          "indexed": true,
          "internalType": "uint256",
          "name": "tokenId",
          "type": "uint256"
        },
        {
          "indexed": false,
          "internalType": "address",
          "name": "recipient",
          "type": "address"
        },
        {
          "indexed": false,
          "internalType": "uint256",
          "name": "amount",
          "type": "uint256"
        }
      ],
      "name": "RoyaltyPayout",
      "type": "event"
    },
    {
      "inputs": [
        {
          "internalType": "address",
          "name": "_tokenContract",
          "type": "address"
        },
        {
          "internalType": "uint256",
          "name": "_tokenId",
          "type": "uint256"
        },
        {
          "internalType": "uint256",
          "name": "_amount",
          "type": "uint256"
        },
        {
          "internalType": "address",
          "name": "_payoutCurrency",
          "type": "address"
        }
      ],
      "name": "_handleRoyaltyEnginePayout",
      "outputs": [
        {
          "internalType": "uint256",
          "name": "",
          "type": "uint256"
        }
      ],
      "stateMutability": "payable",
      "type": "function"
    },
    {
      "inputs": [
        {
          "internalType": "address",
          "name": "",
          "type": "address"
        },
        {
          "internalType": "uint256",
          "name": "",
          "type": "uint256"
        }
      ],
      "name": "auctionForNFT",
      "outputs": [
        {
          "internalType": "address",
          "name": "seller",
          "type": "address"
        },
        {
          "internalType": "uint96",
          "name": "reservePrice",
          "type": "uint96"
        },
        {
          "internalType": "address",
          "name": "sellerFundsRecipient",
          "type": "address"
        },
        {
          "internalType": "uint96",
          "name": "highestBid",
          "type": "uint96"
        },
        {
          "internalType": "address",
          "name": "highestBidder",
          "type": "address"
        },
        {
          "internalType": "uint96",
          "name": "startTime",
          "type": "uint96"
        },
        {
          "internalType": "address",
          "name": "currency",
          "type": "address"
        },
        {
          "internalType": "uint96",
          "name": "firstBidTime",
          "type": "uint96"
        },
        {
          "internalType": "address",
          "name": "listingFeeRecipient",
          "type": "address"
        },
        {
          "internalType": "uint80",
          "name": "duration",
          "type": "uint80"
        },
        {
          "internalType": "uint16",
          "name": "listingFeeBps",
          "type": "uint16"
        }
      ],
      "stateMutability": "view",
      "type": "function"
    },
    {
      "inputs": [],
      "name": "erc20TransferHelper",
      "outputs": [
        {
          "internalType": "contract ERC20TransferHelper",
          "name": "",
          "type": "address"
        }
      ],
      "stateMutability": "view",
      "type": "function"
    },
    {
      "inputs": [],
      "name": "erc721TransferHelper",
      "outputs": [
        {
          "internalType": "contract ERC721TransferHelper",
          "name": "",
          "type": "address"
        }
      ],
      "stateMutability": "view",
      "type": "function"
    },
    {
      "inputs": [],
      "name": "name",
      "outputs": [
        {
          "internalType": "string",
          "name": "",
          "type": "string"
        }
      ],
      "stateMutability": "view",
      "type": "function"
    },
    {
      "inputs": [],
      "name": "registrar",
      "outputs": [
        {
          "internalType": "address",
          "name": "",
          "type": "address"
        }
      ],
      "stateMutability": "view",
      "type": "function"
    },
    {
      "inputs": [
        {
          "internalType": "address",
          "name": "_royaltyEngine",
          "type": "address"
        }
      ],
      "name": "setRoyaltyEngineAddress",
      "outputs": [],
      "stateMutability": "nonpayable",
      "type": "function"
    },
    {
      "inputs": [
        {
          "internalType": "bytes4",
          "name": "_interfaceId",
          "type": "bytes4"
        }
      ],
      "name": "supportsInterface",
      "outputs": [
        {
          "internalType": "bool",
          "name": "",
          "type": "bool"
        }
      ],
      "stateMutability": "pure",
      "type": "function"
    },
    {
      "inputs": [
        {
          "internalType": "address",
          "name": "_tokenContract",
          "type": "address"
        },
        {
          "internalType": "uint256",
          "name": "_tokenId",
          "type": "uint256"
        },
        {
          "internalType": "uint256",
          "name": "_duration",
          "type": "uint256"
        },
        {
          "internalType": "uint256",
          "name": "_reservePrice",
          "type": "uint256"
        },
        {
          "internalType": "address",
          "name": "_sellerFundsRecipient",
          "type": "address"
        },
        {
          "internalType": "uint256",
          "name": "_startTime",
          "type": "uint256"
        },
        {
          "internalType": "address",
          "name": "_bidCurrency",
          "type": "address"
        },
        {
          "internalType": "uint256",
          "name": "_listingFeeBps",
          "type": "uint256"
        },
        {
          "internalType": "address",
          "name": "_listingFeeRecipient",
          "type": "address"
        }
      ],
      "name": "createAuction",
      "outputs": [],
      "stateMutability": "nonpayable",
      "type": "function"
    },
    {
      "inputs": [
        {
          "internalType": "address",
          "name": "_tokenContract",
          "type": "address"
        },
        {
          "internalType": "uint256",
          "name": "_tokenId",
          "type": "uint256"
        },
        {
          "internalType": "uint256",
          "name": "_reservePrice",
          "type": "uint256"
        }
      ],
      "name": "setAuctionReservePrice",
      "outputs": [],
      "stateMutability": "nonpayable",
      "type": "function"
    },
    {
      "inputs": [
        {
          "internalType": "address",
          "name": "_tokenContract",
          "type": "address"
        },
        {
          "internalType": "uint256",
          "name": "_tokenId",
          "type": "uint256"
        }
      ],
      "name": "cancelAuction",
      "outputs": [],
      "stateMutability": "nonpayable",
      "type": "function"
    },
    {
      "inputs": [
        {
          "internalType": "address",
          "name": "_tokenContract",
          "type": "address"
        },
        {
          "internalType": "uint256",
          "name": "_tokenId",
          "type": "uint256"
        },
        {
          "internalType": "uint256",
          "name": "_amount",
          "type": "uint256"
        }
      ],
      "name": "createBid",
      "outputs": [],
      "stateMutability": "payable",
      "type": "function"
    },
    {
      "inputs": [
        {
          "internalType": "address",
          "name": "_tokenContract",
          "type": "address"
        },
        {
          "internalType": "uint256",
          "name": "_tokenId",
          "type": "uint256"
        }
      ],
      "name": "settleAuction",
      "outputs": [],
      "stateMutability": "nonpayable",
      "type": "function"
    }
  ],
  "bytecode": "0x61012060405260016000553480156200001757600080fd5b5060405162002e2638038062002e268339810160408190526200003a9162000262565b6040518060400160405280601e81526020017f526573657276652041756374696f6e204c697374696e67204552432d32300000815250838383876001600160a01b031663e3e606f06040518163ffffffff1660e01b8152600401602060405180830381865afa158015620000b2573d6000803e3d6000fd5b505050506040513d601f19601f82011682018060405250810190620000d89190620002e2565b6001600160a01b0316632b20e3976040518163ffffffff1660e01b8152600401602060405180830381865afa15801562000116573d6000803e3d6000fd5b505050506040513d601f19601f820116820180604052508101906200013c9190620002e2565b6001600160a01b038a811660805291821660a052600180546001600160a01b0319169483169490941790935590811660e0521660c052805162000187906002906020840190620001a3565b5050506001600160a01b03909216610100525062000346915050565b828054620001b19062000309565b90600052602060002090601f016020900481019282620001d5576000855562000220565b82601f10620001f057805160ff191683800117855562000220565b8280016001018555821562000220579182015b828111156200022057825182559160200191906001019062000203565b506200022e92915062000232565b5090565b5b808211156200022e576000815560010162000233565b6001600160a01b03811681146200025f57600080fd5b50565b600080600080600060a086880312156200027b57600080fd5b8551620002888162000249565b60208701519095506200029b8162000249565b6040870151909450620002ae8162000249565b6060870151909350620002c18162000249565b6080870151909250620002d48162000249565b809150509295509295909350565b600060208284031215620002f557600080fd5b8151620003028162000249565b9392505050565b600181811c908216806200031e57607f821691505b602082108114156200034057634e487b7160e01b600052602260045260246000fd5b50919050565b60805160a05160c05160e05161010051612a78620003ae6000396000818161039d01526116f9015260008181611a430152611ad60152600081816101520152611222015260008181611c6e0152611cec0152600081816101de0152611e850152612a786000f3fe6080604052600436106100c25760003560e01c80638f9d32511161007f578063b249bb3011610059578063b249bb301461034b578063cbe98dba1461036b578063f7cd1d9b1461038b578063fba133d9146103bf57600080fd5b80638f9d3251146101cc5780639128c22c14610200578063a90832a11461022157600080fd5b806301ffc9a7146100c757806306fdde03146100fc578063295086161461011e5780632b20e397146101405780635138b08c1461018c578063859b97fe146101ac575b600080fd5b3480156100d357600080fd5b506100e76100e2366004612343565b6103d2565b60405190151581526020015b60405180910390f35b34801561010857600080fd5b50610111610409565b6040516100f39190612399565b34801561012a57600080fd5b5061013e6101393660046123e4565b610497565b005b34801561014c57600080fd5b506101747f000000000000000000000000000000000000000000000000000000000000000081565b6040516001600160a01b0390911681526020016100f3565b34801561019857600080fd5b5061013e6101a7366004612473565b610a5d565b3480156101b857600080fd5b5061013e6101c7366004612473565b610d87565b3480156101d857600080fd5b506101747f000000000000000000000000000000000000000000000000000000000000000081565b61021361020e36600461249f565b61101b565b6040519081526020016100f3565b34801561022d57600080fd5b506102cc61023c366004612473565b60036020818152600093845260408085209091529183529120805460018201546002830154938301546004909301546001600160a01b0380841695600160a01b948590046001600160601b0390811696838616969586900482169584841695938190048316948083169492829004909316928216919081046001600160501b031690600160f01b900461ffff168b565b604080516001600160a01b039c8d1681526001600160601b039b8c166020820152998c16908a01529689166060890152948916608088015292871660a087015290871660c08601529490941660e0840152939092166101008201526001600160501b0390921661012083015261ffff16610140820152610160016100f3565b34801561035757600080fd5b5061013e6103663660046124e9565b611217565b34801561037757600080fd5b5061013e610386366004612506565b611343565b34801561039757600080fd5b506101747f000000000000000000000000000000000000000000000000000000000000000081565b61013e6103cd366004612506565b6114de565b60006001600160e01b0319821663cdbb1f0760e01b148061040357506301ffc9a760e01b6001600160e01b03198316145b92915050565b600280546104169061253b565b80601f01602080910402602001604051908101604052809291908181526020018280546104429061253b565b801561048f5780601f106104645761010080835404028352916020019161048f565b820191906000526020600020905b81548152906001019060200180831161047257829003601f168201915b505050505081565b6000546001146104c25760405162461bcd60e51b81526004016104b990612576565b60405180910390fd5b600260009081556040516331a9108f60e11b8152600481018a90526001600160a01b038b1690636352211e90602401602060405180830381865afa15801561050e573d6000803e3d6000fd5b505050506040513d601f19601f82011682018060405250810190610532919061259a565b9050336001600160a01b03821614806105b6575060405163e985e9c560e01b81526001600160a01b0382811660048301523360248301528b169063e985e9c590604401602060405180830381865afa158015610592573d6000803e3d6000fd5b505050506040513d601f19601f820116820180604052508101906105b691906125b7565b6106025760405162461bcd60e51b815260206004820152601c60248201527f4f4e4c595f544f4b454e5f4f574e45525f4f525f4f50455241544f520000000060448201526064016104b9565b6001600160601b038711156106515760405162461bcd60e51b8152602060048201526015602482015274494e56414c49445f524553455256455f505249434560581b60448201526064016104b9565b6001600160a01b0386166106a75760405162461bcd60e51b815260206004820152601760248201527f494e56414c49445f46554e44535f524543495049454e5400000000000000000060448201526064016104b9565b6127108311156106ef5760405162461bcd60e51b8152602060048201526013602482015272494e56414c49445f4c495354494e475f46454560681b60448201526064016104b9565b80600360008c6001600160a01b03166001600160a01b0316815260200190815260200160002060008b815260200190815260200160002060000160006101000a8154816001600160a01b0302191690836001600160a01b0316021790555086600360008c6001600160a01b03166001600160a01b0316815260200190815260200160002060008b815260200190815260200160002060000160146101000a8154816001600160601b0302191690836001600160601b0316021790555085600360008c6001600160a01b03166001600160a01b0316815260200190815260200160002060008b815260200190815260200160002060010160006101000a8154816001600160a01b0302191690836001600160a01b0316021790555084600360008c6001600160a01b03166001600160a01b0316815260200190815260200160002060008b815260200190815260200160002060020160146101000a8154816001600160601b0302191690836001600160601b0316021790555083600360008c6001600160a01b03166001600160a01b0316815260200190815260200160002060008b815260200190815260200160002060030160006101000a8154816001600160a01b0302191690836001600160a01b0316021790555081600360008c6001600160a01b03166001600160a01b0316815260200190815260200160002060008b815260200190815260200160002060040160006101000a8154816001600160a01b0302191690836001600160a01b0316021790555087600360008c6001600160a01b03166001600160a01b0316815260200190815260200160002060008b815260200190815260200160002060040160146101000a8154816001600160501b0302191690836001600160501b0316021790555082600360008c6001600160a01b03166001600160a01b0316815260200190815260200160002060008b8152602001908152602001600020600401601e6101000a81548161ffff021916908361ffff160217905550888a6001600160a01b03167f03ef2f2b041a45100213176373bebc6d2102d4a19bdffe436a107e6ab8121b4e600360008e6001600160a01b03166001600160a01b0316815260200190815260200160002060008d8152602001908152602001600020604051610a44919061265a565b60405180910390a3505060016000555050505050505050565b600054600114610a7f5760405162461bcd60e51b81526004016104b990612576565b600260008181556001600160a01b03848116825260036020818152604080852087865282529384902084516101608101865281548086168252600160a01b908190046001600160601b03908116948301949094526001830154808716978301979097529586900483166060820152958101548085166080880152859004821660a08701529182015480841660c08701528490041660e085018190526004909101549182166101008501529181046001600160501b0316610120840152600160f01b900461ffff1661014083015280610b8f5760405162461bcd60e51b8152602060048201526013602482015272105550d51253d397d393d517d4d51054951151606a1b60448201526064016104b9565b610120820151610ba8906001600160501b03168261267f565b421015610bea5760405162461bcd60e51b815260206004820152601060248201526f20aaa1aa24a7a72fa727aa2fa7ab22a960811b60448201526064016104b9565b60008260c0015190506000610c12868686606001516001600160601b031685620493e0611958565b509050610c1f8183611a1a565b6101008501519091506001600160a01b03811615610c7957600061271086610140015161ffff1684610c519190612697565b610c5b91906126b6565b9050610c6b82828661c350611b6c565b610c7581846126d8565b9250505b610c8b8560400151838561c350611b6c565b60808501516040516323b872dd60e01b81523060048201526001600160a01b03918216602482015260448101889052908816906323b872dd90606401600060405180830381600087803b158015610ce157600080fd5b505af1158015610cf5573d6000803e3d6000fd5b5050505085876001600160a01b03167f673a8aabad33e5a47fb4624bca8d2714e0e0ddbfb879841f484e0a5b2116f42787604051610d3391906126ef565b60405180910390a3505050506001600160a01b039290921660009081526003602081815260408084209484529390529181208181556001808201839055600282018390559281018290556004018190555550565b600054600114610da95760405162461bcd60e51b81526004016104b990612576565b600260008181556001600160a01b03848116825260036020818152604080852087865282529384902084516101608101865281548086168252600160a01b908190046001600160601b03908116948301949094526001830154808716978301979097529586900483166060820152958101548085166080880152859004821660a08701529182015480841660c08701528490041660e085018190526004909101549182166101008501529181046001600160501b0316610120840152600160f01b900461ffff1661014083015215610eb55760405162461bcd60e51b815260206004820152600f60248201526e105550d51253d397d4d51054951151608a1b60448201526064016104b9565b80516001600160a01b0316331480610f4657506040516331a9108f60e11b8152600481018390526001600160a01b03841690636352211e90602401602060405180830381865afa158015610f0d573d6000803e3d6000fd5b505050506040513d601f19601f82011682018060405250810190610f31919061259a565b6001600160a01b0316336001600160a01b0316145b610f925760405162461bcd60e51b815260206004820152601a60248201527f4f4e4c595f53454c4c45525f4f525f544f4b454e5f4f574e455200000000000060448201526064016104b9565b81836001600160a01b03167f51609a494b82623ea1e63b25a46a93daa9990348ff6d5398a0f0cdd7c7301bf083604051610fcc91906126ef565b60405180910390a3506001600160a01b03909116600090815260036020818152604080842094845293905291812081815560018082018390556002820183905592810182905560040181905555565b60003330146110825760405162461bcd60e51b815260206004820152602d60248201527f5f68616e646c65526f79616c7479456e67696e655061796f7574206f6e6c792060448201526c73656c662063616c6c61626c6560981b60648201526084016104b9565b600154604051637a99dc0160e11b81526001600160a01b0387811660048301526024820187905260448201869052600092839291169063f533b802906064016000604051808303816000875af11580156110e0573d6000803e3d6000fd5b505050506040513d6000823e601f3d908101601f1916820160405261110891908101906128d2565b815191935091508061111f5785935050505061120f565b85600080805b848110156112055786818151811061113f5761113f612997565b6020026020010151925085818151811061115b5761115b612997565b60200260200101519150818410156111a15760405162461bcd60e51b81526020600482015260096024820152681a5b9cdbdb1d995b9d60ba1b60448201526064016104b9565b6111af83838b61c350611b6c565b604080516001600160a01b038581168252602082018590528d92908f16917f866e6ef8682ddf5f1025e64dfdb45527077f7be70fa9ef680b7ffd8cf4ab9c50910160405180910390a39281900392600101611125565b5091955050505050505b949350505050565b336001600160a01b037f0000000000000000000000000000000000000000000000000000000000000000161461129e5760405162461bcd60e51b815260206004820152602660248201527f736574526f79616c7479456e67696e6541646472657373206f6e6c792072656760448201526534b9ba3930b960d11b60648201526084016104b9565b6112af81636591fc0b60e11b611d38565b6113215760405162461bcd60e51b815260206004820152603d60248201527f736574526f79616c7479456e67696e6541646472657373206d757374206d617460448201527f63682049526f79616c7479456e67696e65563120696e7465726661636500000060648201526084016104b9565b600180546001600160a01b0319166001600160a01b0392909216919091179055565b6000546001146113655760405162461bcd60e51b81526004016104b990612576565b600260009081556001600160a01b038416815260036020818152604080842086855290915290912090810154600160a01b90046001600160601b0316156113e05760405162461bcd60e51b815260206004820152600f60248201526e105550d51253d397d4d51054951151608a1b60448201526064016104b9565b80546001600160a01b031633146114275760405162461bcd60e51b815260206004820152600b60248201526a27a7262cafa9a2a62622a960a91b60448201526064016104b9565b6001600160601b038211156114765760405162461bcd60e51b8152602060048201526015602482015274494e56414c49445f524553455256455f505249434560581b60448201526064016104b9565b80546001600160601b038316600160a01b026001600160a01b0391821617825560405184918616907f247ed58b9a16e90ce5d2f9bbda6f87233c10ab81cf22bce209d88b602eb43be6906114cb90859061265a565b60405180910390a3505060016000555050565b6000546001146115005760405162461bcd60e51b81526004016104b990612576565b600260009081556001600160a01b0380851682526003602090815260408084208685529091529091208054909116806115745760405162461bcd60e51b8152602060048201526016602482015275105550d51253d397d113d154d7d393d517d1561254d560521b60448201526064016104b9565b6002820154600160a01b90046001600160601b03164210156115ce5760405162461bcd60e51b8152602060048201526013602482015272105550d51253d397d393d517d4d51054951151606a1b60448201526064016104b9565b6001600160601b038311156116135760405162461bcd60e51b815260206004820152600b60248201526a1253959053125117d0925160aa1b60448201526064016104b9565b60038201546004830154600160a01b8083046001600160601b03169291046001600160501b0316906001600160a01b031660008361175a578554600160a01b90046001600160601b03168710156116a45760405162461bcd60e51b8152602060048201526015602482015274149154d154959157d4149250d157d393d517d35155605a1b60448201526064016104b9565b506003850180546001600160a01b03908116600160a01b426001600160601b03160217909155604051630aed65f560e11b815289821660048201528582166024820152306044820152606481018990526001917f000000000000000000000000000000000000000000000000000000000000000016906315dacbea90608401600060405180830381600087803b15801561173d57600080fd5b505af1158015611751573d6000803e3d6000fd5b50505050611870565b611764838561267f565b42106117a15760405162461bcd60e51b815260206004820152600c60248201526b20aaa1aa24a7a72fa7ab22a960a11b60448201526064016104b9565b6001860154600160a01b90046001600160601b031660006064600a830204820190506001600160601b0381111561180b5760405162461bcd60e51b815260206004820152600e60248201526d13505617d0925117d4131050d15160921b60448201526064016104b9565b808910156118515760405162461bcd60e51b81526020600482015260136024820152721352539253555357d0925117d393d517d35155606a1b60448201526064016104b9565b600288015461186d906001600160a01b0316838661c350611b6c565b50505b61187a8783611d5b565b6001860180546001600160601b038916600160a01b026001600160a01b039091161790556002860180546001600160a01b0319163317905560004285850103610384811015611900576004880180546001600160501b03600160a01b8083048216610384869003019091160269ffffffffffffffffffff60a01b19909116179055600191505b898b6001600160a01b03167f93c14b9b5fe3a510d1b982bb7c04eaf2b28919188f662d9152cd82bae24de30d85858c60405161193e939291906129ad565b60405180910390a350506001600055505050505050505050565b6000808083158061196857505a84115b6119725783611974565b5a5b60405163244a308b60e21b81526001600160a01b03808b166004830152602482018a905260448201899052871660648201529091503090639128c22c90839060840160206040518083038160008887f1935050505080156119f2575060408051601f3d908101601f191682019092526119ef918101906129cc565b60015b611a03578560009250925050611a10565b925060019150611a109050565b9550959350505050565b6040516330da42fb60e11b81523060048201526024810183905260009081906001600160a01b037f000000000000000000000000000000000000000000000000000000000000000016906361b485f690604401602060405180830381865afa158015611a8a573d6000803e3d6000fd5b505050506040513d601f19601f82011682018060405250810190611aae91906129cc565b905080611abe5783915050610403565b6040516386ab6fb960e01b81523060048201526000907f00000000000000000000000000000000000000000000000000000000000000006001600160a01b0316906386ab6fb9906024016040805180830381865afa158015611b24573d6000803e3d6000fd5b505050506040513d601f19601f82011682018060405250810190611b4891906129e5565b915050611b5981838661c350611b6c565b611b6382866126d8565b95945050505050565b821580611b8057506001600160a01b038416155b15611b8a57611d32565b6001600160a01b038216611d1e5782471015611bf25760405162461bcd60e51b815260206004820152602160248201527f5f68616e646c654f7574676f696e675472616e7366657220696e736f6c76656e6044820152601d60fa1b60648201526084016104b9565b6000811580611c0057505a82115b611c0a5781611c0c565b5a5b90506000856001600160a01b0316858390604051600060405180830381858888f193505050503d8060008114611c5e576040519150601f19603f3d011682016040523d82523d6000602084013e611c63565b606091505b5050905080611d17577f00000000000000000000000000000000000000000000000000000000000000006001600160a01b031663d0e30db0866040518263ffffffff1660e01b81526004016000604051808303818588803b158015611cc757600080fd5b505af1158015611cdb573d6000803e3d6000fd5b50611d179350506001600160a01b037f000000000000000000000000000000000000000000000000000000000000000016915088905087611fea565b5050611d32565b611d326001600160a01b0383168585611fea565b50505050565b6000611d4383612041565b8015611d545750611d548383612074565b9392505050565b6001600160a01b038116611de35781341015611ddf5760405162461bcd60e51b815260206004820152603b60248201527f5f68616e646c65496e636f6d696e675472616e73666572206d73672076616c7560448201527f65206c657373207468616e20657870656374656420616d6f756e74000000000060648201526084016104b9565b5050565b6040516370a0823160e01b815230600482015281906000906001600160a01b038316906370a0823190602401602060405180830381865afa158015611e2c573d6000803e3d6000fd5b505050506040513d601f19601f82011682018060405250810190611e5091906129cc565b60405163d9fc4b6160e01b81526001600160a01b038581166004830152336024830152306044830152606482018790529192507f00000000000000000000000000000000000000000000000000000000000000009091169063d9fc4b6190608401600060405180830381600087803b158015611ecb57600080fd5b505af1158015611edf573d6000803e3d6000fd5b50506040516370a0823160e01b8152306004820152600092506001600160a01b03851691506370a0823190602401602060405180830381865afa158015611f2a573d6000803e3d6000fd5b505050506040513d601f19601f82011682018060405250810190611f4e91906129cc565b905080611f5b868461267f565b14611fe35760405162461bcd60e51b815260206004820152604c60248201527f5f68616e646c65496e636f6d696e675472616e7366657220746f6b656e20747260448201527f616e736665722063616c6c20646964206e6f74207472616e736665722065787060648201526b1958dd195908185b5bdd5b9d60a21b608482015260a4016104b9565b5050505050565b604080516001600160a01b038416602482015260448082018490528251808303909101815260649091019091526020810180516001600160e01b031663a9059cbb60e01b17905261203c90849061215d565b505050565b6000612054826301ffc9a760e01b612074565b8015610403575061206d826001600160e01b0319612074565b1592915050565b604080516001600160e01b0319831660248083019190915282518083039091018152604490910182526020810180516001600160e01b03166301ffc9a760e01b179052905160009190829081906001600160a01b03871690617530906120db908690612a26565b6000604051808303818686fa925050503d8060008114612117576040519150601f19603f3d011682016040523d82523d6000602084013e61211c565b606091505b50915091506020815110156121375760009350505050610403565b81801561215357508080602001905181019061215391906125b7565b9695505050505050565b60006121b2826040518060400160405280602081526020017f5361666545524332303a206c6f772d6c6576656c2063616c6c206661696c6564815250856001600160a01b031661222f9092919063ffffffff16565b80519091501561203c57808060200190518101906121d091906125b7565b61203c5760405162461bcd60e51b815260206004820152602a60248201527f5361666545524332303a204552433230206f7065726174696f6e20646964206e6044820152691bdd081cdd58d8d9595960b21b60648201526084016104b9565b606061120f8484600085856001600160a01b0385163b6122915760405162461bcd60e51b815260206004820152601d60248201527f416464726573733a2063616c6c20746f206e6f6e2d636f6e747261637400000060448201526064016104b9565b600080866001600160a01b031685876040516122ad9190612a26565b60006040518083038185875af1925050503d80600081146122ea576040519150601f19603f3d011682016040523d82523d6000602084013e6122ef565b606091505b50915091506122ff82828661230a565b979650505050505050565b60608315612319575081611d54565b8251156123295782518084602001fd5b8160405162461bcd60e51b81526004016104b99190612399565b60006020828403121561235557600080fd5b81356001600160e01b031981168114611d5457600080fd5b60005b83811015612388578181015183820152602001612370565b83811115611d325750506000910152565b60208152600082518060208401526123b881604085016020870161236d565b601f01601f19169190910160400192915050565b6001600160a01b03811681146123e157600080fd5b50565b60008060008060008060008060006101208a8c03121561240357600080fd5b893561240e816123cc565b985060208a0135975060408a0135965060608a0135955060808a0135612433816123cc565b945060a08a0135935060c08a013561244a816123cc565b925060e08a013591506101008a0135612462816123cc565b809150509295985092959850929598565b6000806040838503121561248657600080fd5b8235612491816123cc565b946020939093013593505050565b600080600080608085870312156124b557600080fd5b84356124c0816123cc565b9350602085013592506040850135915060608501356124de816123cc565b939692955090935050565b6000602082840312156124fb57600080fd5b8135611d54816123cc565b60008060006060848603121561251b57600080fd5b8335612526816123cc565b95602085013595506040909401359392505050565b600181811c9082168061254f57607f821691505b6020821081141561257057634e487b7160e01b600052602260045260246000fd5b50919050565b6020808252600a90820152695245454e5452414e435960b01b604082015260600190565b6000602082840312156125ac57600080fd5b8151611d54816123cc565b6000602082840312156125c957600080fd5b81518015158114611d5457600080fd5b80546001600160a01b03808216845260a091821c602085015260018301548082166040860152821c606085015260028301548082166080860152821c82850152600383015480821660c0860152821c60e085015260049092015491821661010084015281901c6001600160501b031661012083015260f01c61014090910152565b610160810161040382846125d9565b634e487b7160e01b600052601160045260246000fd5b6000821982111561269257612692612669565b500190565b60008160001904831182151516156126b1576126b1612669565b500290565b6000826126d357634e487b7160e01b600052601260045260246000fd5b500490565b6000828210156126ea576126ea612669565b500390565b81516001600160a01b031681526101608101602083015161271b60208401826001600160601b03169052565b50604083015161273660408401826001600160a01b03169052565b50606083015161275160608401826001600160601b03169052565b50608083015161276c60808401826001600160a01b03169052565b5060a083015161278760a08401826001600160601b03169052565b5060c08301516127a260c08401826001600160a01b03169052565b5060e08301516127bd60e08401826001600160601b03169052565b50610100838101516001600160a01b031690830152610120808401516001600160501b0316908301526101409283015161ffff16929091019190915290565b634e487b7160e01b600052604160045260246000fd5b604051601f8201601f1916810167ffffffffffffffff8111828210171561283b5761283b6127fc565b604052919050565b600067ffffffffffffffff82111561285d5761285d6127fc565b5060051b60200190565b600082601f83011261287857600080fd5b8151602061288d61288883612843565b612812565b82815260059290921b840181019181810190868411156128ac57600080fd5b8286015b848110156128c757805183529183019183016128b0565b509695505050505050565b600080604083850312156128e557600080fd5b825167ffffffffffffffff808211156128fd57600080fd5b818501915085601f83011261291157600080fd5b8151602061292161288883612843565b82815260059290921b8401810191818101908984111561294057600080fd5b948201945b83861015612967578551612958816123cc565b82529482019490820190612945565b9188015191965090935050508082111561298057600080fd5b5061298d85828601612867565b9150509250929050565b634e487b7160e01b600052603260045260246000fd5b831515815282151560208201526101a0810161120f60408301846125d9565b6000602082840312156129de57600080fd5b5051919050565b600080604083850312156129f857600080fd5b825161ffff81168114612a0a57600080fd5b6020840151909250612a1b816123cc565b809150509250929050565b60008251612a3881846020870161236d565b919091019291505056fea2646970667358221220ed9df1505690abd693e4f21d75cfc786c31af7a5db1f6bc424347b63ac5a22e264736f6c634300080a0033",
  "immutableReferences": {
    "8147": [
      {
        "length": 32,
        "start": 338
      },
      {
        "length": 32,
        "start": 4642
      }
    ],
    "8151": [
      {
        "length": 32,
        "start": 6723
      },
      {
        "length": 32,
        "start": 6870
      }
    ],
    "8470": [
      {
        "length": 32,
        "start": 478
      },
      {
        "length": 32,
        "start": 7813
      }
    ],
    "8607": [
      {
        "length": 32,
        "start": 7278
      },
      {
        "length": 32,
        "start": 7404
      }
    ],
    "14406": [
      {
        "length": 32,
        "start": 925
      },
      {
        "length": 32,
        "start": 5881
      }
    ]
  },
  "source": "// SPDX-License-Identifier: GPL-3.0\npragma solidity 0.8.10;\n\nimport {ReentrancyGuard} from \"@rari-capital/solmate/src/utils/ReentrancyGuard.sol\";\nimport {IERC721} from \"@openzeppelin/contracts/token/ERC721/IERC721.sol\";\n\nimport {ERC721TransferHelper} from \"../../../../transferHelpers/ERC721TransferHelper.sol\";\nimport {IncomingTransferSupportV1} from \"../../../../common/IncomingTransferSupport/V1/IncomingTransferSupportV1.sol\";\nimport {FeePayoutSupportV1} from \"../../../../common/FeePayoutSupport/FeePayoutSupportV1.sol\";\nimport {ModuleNamingSupportV1} from \"../../../../common/ModuleNamingSupport/ModuleNamingSupportV1.sol\";\nimport {IReserveAuctionListingErc20} from \"./IReserveAuctionListingErc20.sol\";\n\n/// @title Reserve Auction Listing ERC-20\n/// @author kulkarohan\n/// @notice Module adding Listing Fee to Reserve Auction Core ERC-20\ncontract ReserveAuctionListingErc20 is ReentrancyGuard, IncomingTransferSupportV1, FeePayoutSupportV1, ModuleNamingSupportV1 {\n    /// @notice The minimum amount of time left in an auction after a new bid is created\n    uint16 constant TIME_BUFFER = 15 minutes;\n\n    /// @notice The minimum percentage difference between two bids\n    uint8 constant MIN_BID_INCREMENT_PERCENTAGE = 10;\n\n    /// @notice The ZORA ERC-721 Transfer Helper\n    ERC721TransferHelper public immutable erc721TransferHelper;\n\n    /// @notice The auction for a given NFT, if one exists\n    /// @dev ERC-721 token contract => ERC-721 token id => Auction\n    mapping(address => mapping(uint256 => Auction)) public auctionForNFT;\n\n    /// @notice The metadata for a given auction\n    /// @param seller The address of the seller\n    /// @param reservePrice The reserve price to start the auction\n    /// @param sellerFundsRecipient The address where funds are sent after the auction\n    /// @param highestBid The highest bid of the auction\n    /// @param highestBidder The address of the highest bidder\n    /// @param startTime The time that the first bid can be placed\n    /// @param currency The address of the ERC-20 token, or address(0) for ETH, required to place a bid\n    /// @param firstBidTime The time that the first bid is placed\n    /// @param listingFeeRecipient The address that listed the auction\n    /// @param duration The length of time that the auction runs after the first bid is placed\n    /// @param listingFeeBps The fee that is sent to the lister of the auction\n    struct Auction {\n        address seller;\n        uint96 reservePrice;\n        address sellerFundsRecipient;\n        uint96 highestBid;\n        address highestBidder;\n        uint96 startTime;\n        address currency;\n        uint96 firstBidTime;\n        address listingFeeRecipient;\n        uint80 duration;\n        uint16 listingFeeBps;\n    }\n\n    /// @notice Emitted when an auction is created\n    /// @param tokenContract The ERC-721 token address of the created auction\n    /// @param tokenId The ERC-721 token id of the created auction\n    /// @param auction The metadata of the created auction\n    event AuctionCreated(address indexed tokenContract, uint256 indexed tokenId, Auction auction);\n\n    /// @notice Emitted when a reserve price is updated\n    /// @param tokenContract The ERC-721 token address of the updated auction\n    /// @param tokenId The ERC-721 token id of the updated auction\n    /// @param auction The metadata of the updated auction\n    event AuctionReservePriceUpdated(address indexed tokenContract, uint256 indexed tokenId, Auction auction);\n\n    /// @notice Emitted when an auction is canceled\n    /// @param tokenContract The ERC-721 token address of the canceled auction\n    /// @param tokenId The ERC-721 token id of the canceled auction\n    /// @param auction The metadata of the canceled auction\n    event AuctionCanceled(address indexed tokenContract, uint256 indexed tokenId, Auction auction);\n\n    /// @notice Emitted when a bid is placed\n    /// @param tokenContract The ERC-721 token address of the auction\n    /// @param tokenId The ERC-721 token id of the auction\n    /// @param firstBid If the bid started the auction\n    /// @param extended If the bid extended the auction\n    /// @param auction The metadata of the auction\n    event AuctionBid(address indexed tokenContract, uint256 indexed tokenId, bool firstBid, bool extended, Auction auction);\n\n    /// @notice Emitted when an auction has ended\n    /// @param tokenContract The ERC-721 token address of the auction\n    /// @param tokenId The ERC-721 token id of the auction\n    /// @param auction The metadata of the settled auction\n    event AuctionEnded(address indexed tokenContract, uint256 indexed tokenId, Auction auction);\n\n    /// @param _erc20TransferHelper The ZORA ERC-20 Transfer Helper address\n    /// @param _erc721TransferHelper The ZORA ERC-721 Transfer Helper address\n    /// @param _royaltyEngine The Manifold Royalty Engine address\n    /// @param _protocolFeeSettings The ZORA Protocol Fee Settings address\n    /// @param _weth The WETH token address\n    constructor(\n        address _erc20TransferHelper,\n        address _erc721TransferHelper,\n        address _royaltyEngine,\n        address _protocolFeeSettings,\n        address _weth\n    )\n        IncomingTransferSupportV1(_erc20TransferHelper)\n        FeePayoutSupportV1(_royaltyEngine, _protocolFeeSettings, _weth, ERC721TransferHelper(_erc721TransferHelper).ZMM().registrar())\n        ModuleNamingSupportV1(\"Reserve Auction Listing ERC-20\")\n    {\n        erc721TransferHelper = ERC721TransferHelper(_erc721TransferHelper);\n    }\n\n    /// @notice Implements EIP-165 for standard interface detection\n    /// @dev `0x01ffc9a7` is the IERC165 interface id\n    /// @param _interfaceId The identifier of a given interface\n    /// @return If the given interface is supported\n    function supportsInterface(bytes4 _interfaceId) external pure returns (bool) {\n        return _interfaceId == type(IReserveAuctionListingErc20).interfaceId || _interfaceId == 0x01ffc9a7;\n    }\n\n    /// @notice Creates an auction for a given NFT\n    /// @param _tokenContract The address of the ERC-721 token\n    /// @param _tokenId The id of the ERC-721 token\n    /// @param _duration The length of time the auction should run after the first bid\n    /// @param _reservePrice The minimum bid amount to start the auction\n    /// @param _sellerFundsRecipient The address to send funds to once the auction is complete\n    /// @param _startTime The time that users can begin placing bids\n    /// @param _bidCurrency The address of the ERC-20 token, or address(0) for ETH, that users must bid with\n    /// @param _listingFeeBps The fee to send to the lister of the auction\n    /// @param _listingFeeRecipient The address listing the auction\n    function createAuction(\n        address _tokenContract,\n        uint256 _tokenId,\n        uint256 _duration,\n        uint256 _reservePrice,\n        address _sellerFundsRecipient,\n        uint256 _startTime,\n        address _bidCurrency,\n        uint256 _listingFeeBps,\n        address _listingFeeRecipient\n    ) external nonReentrant {\n        // Get the owner of the specified token\n        address tokenOwner = IERC721(_tokenContract).ownerOf(_tokenId);\n\n        // Ensure the caller is the owner or an approved operator\n        require(msg.sender == tokenOwner || IERC721(_tokenContract).isApprovedForAll(tokenOwner, msg.sender), \"ONLY_TOKEN_OWNER_OR_OPERATOR\");\n\n        // Ensure the reserve price can be downcasted to 96 bits for this module\n        // For a higher reserve price, use the supporting module\n        require(_reservePrice <= type(uint96).max, \"INVALID_RESERVE_PRICE\");\n\n        // Ensure the funds recipient is specified\n        require(_sellerFundsRecipient != address(0), \"INVALID_FUNDS_RECIPIENT\");\n\n        // Ensure the listing fee does not exceed 10,000 basis points\n        require(_listingFeeBps <= 10000, \"INVALID_LISTING_FEE\");\n\n        // Store the auction metadata\n        auctionForNFT[_tokenContract][_tokenId].seller = tokenOwner;\n        auctionForNFT[_tokenContract][_tokenId].reservePrice = uint96(_reservePrice);\n        auctionForNFT[_tokenContract][_tokenId].sellerFundsRecipient = _sellerFundsRecipient;\n        auctionForNFT[_tokenContract][_tokenId].startTime = uint96(_startTime);\n        auctionForNFT[_tokenContract][_tokenId].currency = _bidCurrency;\n        auctionForNFT[_tokenContract][_tokenId].listingFeeRecipient = _listingFeeRecipient;\n        auctionForNFT[_tokenContract][_tokenId].duration = uint80(_duration);\n        auctionForNFT[_tokenContract][_tokenId].listingFeeBps = uint16(_listingFeeBps);\n\n        emit AuctionCreated(_tokenContract, _tokenId, auctionForNFT[_tokenContract][_tokenId]);\n    }\n\n    /// @notice Updates the reserve price for a given auction\n    /// @param _tokenContract The address of the ERC-721 token\n    /// @param _tokenId The id of the ERC-721 token\n    /// @param _reservePrice The new reserve price\n    function setAuctionReservePrice(\n        address _tokenContract,\n        uint256 _tokenId,\n        uint256 _reservePrice\n    ) external nonReentrant {\n        // Get the auction for the specified token\n        Auction storage auction = auctionForNFT[_tokenContract][_tokenId];\n\n        // Ensure the auction has not started\n        require(auction.firstBidTime == 0, \"AUCTION_STARTED\");\n\n        // Ensure the caller is the seller\n        require(msg.sender == auction.seller, \"ONLY_SELLER\");\n\n        // Ensure the reserve price can be downcasted to 96 bits\n        require(_reservePrice <= type(uint96).max, \"INVALID_RESERVE_PRICE\");\n\n        // Update the reserve price\n        auction.reservePrice = uint96(_reservePrice);\n\n        emit AuctionReservePriceUpdated(_tokenContract, _tokenId, auction);\n    }\n\n    /// @notice Cancels the auction for a given NFT\n    /// @param _tokenContract The address of the ERC-721 token\n    /// @param _tokenId The id of the ERC-721 token\n    function cancelAuction(address _tokenContract, uint256 _tokenId) external nonReentrant {\n        // Get the auction for the specified token\n        Auction memory auction = auctionForNFT[_tokenContract][_tokenId];\n\n        // Ensure the auction has not started\n        require(auction.firstBidTime == 0, \"AUCTION_STARTED\");\n\n        // Ensure the caller is the seller or a new owner of the token\n        require(msg.sender == auction.seller || msg.sender == IERC721(_tokenContract).ownerOf(_tokenId), \"ONLY_SELLER_OR_TOKEN_OWNER\");\n\n        emit AuctionCanceled(_tokenContract, _tokenId, auction);\n\n        // Remove the auction from storage\n        delete auctionForNFT[_tokenContract][_tokenId];\n    }\n\n    /// @notice Places a bid on the auction for a given NFT\n    /// @param _tokenContract The address of the ERC-721 token\n    /// @param _tokenId The id of the ERC-721 token\n    /// @param _amount The amount to bid\n    function createBid(\n        address _tokenContract,\n        uint256 _tokenId,\n        uint256 _amount\n    ) external payable nonReentrant {\n        // Get the auction for the specified token\n        Auction storage auction = auctionForNFT[_tokenContract][_tokenId];\n\n        // Cache the seller\n        address seller = auction.seller;\n\n        // Ensure the auction exists\n        require(seller != address(0), \"AUCTION_DOES_NOT_EXIST\");\n\n        // Ensure the auction has started or is valid to start\n        require(block.timestamp >= auction.startTime, \"AUCTION_NOT_STARTED\");\n\n        // Ensure the bid can be downcasted to 96 bits for this module\n        // For a higher bid, use the supporting module\n        require(_amount <= type(uint96).max, \"INVALID_BID\");\n\n        // Cache more auction metadata\n        uint256 firstBidTime = auction.firstBidTime;\n        uint256 duration = auction.duration;\n        address currency = auction.currency;\n\n        // Used to emit whether the bid started the auction\n        bool firstBid;\n\n        // If this is the first bid, start the auction\n        if (firstBidTime == 0) {\n            // Ensure the bid meets the reserve price\n            require(_amount >= auction.reservePrice, \"RESERVE_PRICE_NOT_MET\");\n\n            // Store the current time as the first bid time\n            auction.firstBidTime = uint96(block.timestamp);\n\n            // Mark this bid as the first\n            firstBid = true;\n\n            // Transfer the NFT from the seller into escrow for the duration of the auction\n            // Reverts if the seller did not approve the ERC721TransferHelper or no longer owns the token\n            erc721TransferHelper.transferFrom(_tokenContract, seller, address(this), _tokenId);\n\n            // Else this is a subsequent bid, so refund the previous bidder\n        } else {\n            // Ensure the auction has not ended\n            require(block.timestamp < (firstBidTime + duration), \"AUCTION_OVER\");\n\n            // Cache the highest bid\n            uint256 highestBid = auction.highestBid;\n\n            // Used to store the minimum bid required to outbid the highest bidder\n            uint256 minValidBid;\n\n            // Calculate the minimum bid required (10% higher than the highest bid)\n            // Cannot overflow as `minValidBid` cannot be greater than 104 bits\n            unchecked {\n                minValidBid = highestBid + ((highestBid * MIN_BID_INCREMENT_PERCENTAGE) / 100);\n            }\n\n            // Ensure the result can be downcasted to 96 bits\n            require(minValidBid <= type(uint96).max, \"MAX_BID_PLACED\");\n\n            // Ensure the incoming bid meets the minimum\n            require(_amount >= minValidBid, \"MINIMUM_BID_NOT_MET\");\n\n            // Refund the previous bidder\n            _handleOutgoingTransfer(auction.highestBidder, highestBid, currency, 50000);\n        }\n\n        // Retrieve the bid from the bidder\n        // If ETH, this reverts if the bidder did not attach enough\n        // If ERC-20, this reverts if the bidder did not approve the ERC20TransferHelper or does not own the specified amount\n        _handleIncomingTransfer(_amount, currency);\n\n        // Store the amount as the highest bid\n        auction.highestBid = uint96(_amount);\n\n        // Store the caller as the highest bidder\n        auction.highestBidder = msg.sender;\n\n        // Used to emit whether the bid extended the auction\n        bool extended;\n\n        // Used to store the auction time remaining\n        uint256 timeRemaining;\n\n        // Get the auction time remaining\n        // Cannot underflow as `firstBidTime + duration` is ensured to be greater than `block.timestamp`\n        unchecked {\n            timeRemaining = firstBidTime + duration - block.timestamp;\n        }\n\n        // If the bid is placed within 15 minutes of the auction end, extend the auction\n        if (timeRemaining < TIME_BUFFER) {\n            // Add (15 minutes - remaining time) to the duration so that 15 minutes remain\n            // Cannot underflow as `timeRemaining` is ensured to be less than `TIME_BUFFER`\n            unchecked {\n                auction.duration += uint80(TIME_BUFFER - timeRemaining);\n            }\n\n            // Mark the bid as one that extended the auction\n            extended = true;\n        }\n\n        emit AuctionBid(_tokenContract, _tokenId, firstBid, extended, auction);\n    }\n\n    /// @notice Ends the auction for a given NFT\n    /// @param _tokenContract The address of the ERC-721 token\n    /// @param _tokenId The id of the ERC-721 token\n    function settleAuction(address _tokenContract, uint256 _tokenId) external nonReentrant {\n        // Get the auction for the specified token\n        Auction memory auction = auctionForNFT[_tokenContract][_tokenId];\n\n        // Cache the time of the first bid\n        uint256 firstBidTime = auction.firstBidTime;\n\n        // Ensure the auction had started\n        require(firstBidTime != 0, \"AUCTION_NOT_STARTED\");\n\n        // Ensure the auction has ended\n        require(block.timestamp >= (firstBidTime + auction.duration), \"AUCTION_NOT_OVER\");\n\n        // Cache the auction currency\n        address currency = auction.currency;\n\n        // Payout associated token royalties, if any\n        (uint256 remainingProfit, ) = _handleRoyaltyPayout(_tokenContract, _tokenId, auction.highestBid, currency, 300000);\n\n        // Payout the module fee, if configured by the owner\n        remainingProfit = _handleProtocolFeePayout(remainingProfit, currency);\n\n        // Cache the listing fee recipient\n        address listingFeeRecipient = auction.listingFeeRecipient;\n\n        // Payout the listing fee, if a recipient exists\n        if (listingFeeRecipient != address(0)) {\n            // Get the listing fee from the remaining profit\n            uint256 listingFee = (remainingProfit * auction.listingFeeBps) / 10000;\n\n            // Transfer the amount to the listing fee recipient\n            _handleOutgoingTransfer(listingFeeRecipient, listingFee, currency, 50000);\n\n            // Update the remaining profit\n            remainingProfit -= listingFee;\n        }\n\n        // Transfer the remaining profit to the funds recipient\n        _handleOutgoingTransfer(auction.sellerFundsRecipient, remainingProfit, currency, 50000);\n\n        // Transfer the NFT to the winning bidder\n        IERC721(_tokenContract).transferFrom(address(this), auction.highestBidder, _tokenId);\n\n        emit AuctionEnded(_tokenContract, _tokenId, auction);\n\n        // Remove the auction from storage\n        delete auctionForNFT[_tokenContract][_tokenId];\n    }\n}\n",
  "sourcePath": "/Users/ds/Documents/rarible/scripts/contracts/modules/ReserveAuction/Listing/ERC20/ReserveAuctionListingErc20.sol",
  "compiler": {
    "name": "solc",
    "version": "0.8.10+commit.fc410830.Emscripten.clang"
  },
  "schemaVersion": "3.4.3",
  "updatedAt": "2022-04-04T14:37:20.253Z",
  "devdoc": {
    "author": "kulkarohan",
    "events": {
      "AuctionBid(address,uint256,bool,bool,(address,uint96,address,uint96,address,uint96,address,uint96,address,uint80,uint16))": {
        "params": {
          "auction": "The metadata of the auction",
          "extended": "If the bid extended the auction",
          "firstBid": "If the bid started the auction",
          "tokenContract": "The ERC-721 token address of the auction",
          "tokenId": "The ERC-721 token id of the auction"
        }
      },
      "AuctionCanceled(address,uint256,(address,uint96,address,uint96,address,uint96,address,uint96,address,uint80,uint16))": {
        "params": {
          "auction": "The metadata of the canceled auction",
          "tokenContract": "The ERC-721 token address of the canceled auction",
          "tokenId": "The ERC-721 token id of the canceled auction"
        }
      },
      "AuctionCreated(address,uint256,(address,uint96,address,uint96,address,uint96,address,uint96,address,uint80,uint16))": {
        "params": {
          "auction": "The metadata of the created auction",
          "tokenContract": "The ERC-721 token address of the created auction",
          "tokenId": "The ERC-721 token id of the created auction"
        }
      },
      "AuctionEnded(address,uint256,(address,uint96,address,uint96,address,uint96,address,uint96,address,uint80,uint16))": {
        "params": {
          "auction": "The metadata of the settled auction",
          "tokenContract": "The ERC-721 token address of the auction",
          "tokenId": "The ERC-721 token id of the auction"
        }
      },
      "AuctionReservePriceUpdated(address,uint256,(address,uint96,address,uint96,address,uint96,address,uint96,address,uint80,uint16))": {
        "params": {
          "auction": "The metadata of the updated auction",
          "tokenContract": "The ERC-721 token address of the updated auction",
          "tokenId": "The ERC-721 token id of the updated auction"
        }
      }
    },
    "kind": "dev",
    "methods": {
      "_handleRoyaltyEnginePayout(address,uint256,uint256,address)": {
        "details": "This method is external to enable setting a gas limit when called - see `_handleRoyaltyPayout`.",
        "params": {
          "_amount": "The total sale amount",
          "_payoutCurrency": "The ERC-20 token address to payout royalties in, or address(0) for ETH",
          "_tokenContract": "The NFT Contract to get royalty information from",
          "_tokenId": ", The Token ID to get royalty information from"
        },
        "returns": {
          "_0": "The remaining funds after paying out royalties"
        }
      },
      "cancelAuction(address,uint256)": {
        "params": {
          "_tokenContract": "The address of the ERC-721 token",
          "_tokenId": "The id of the ERC-721 token"
        }
      },
      "constructor": {
        "params": {
          "_erc20TransferHelper": "The ZORA ERC-20 Transfer Helper address",
          "_erc721TransferHelper": "The ZORA ERC-721 Transfer Helper address",
          "_protocolFeeSettings": "The ZORA Protocol Fee Settings address",
          "_royaltyEngine": "The Manifold Royalty Engine address",
          "_weth": "The WETH token address"
        }
      },
      "createAuction(address,uint256,uint256,uint256,address,uint256,address,uint256,address)": {
        "params": {
          "_bidCurrency": "The address of the ERC-20 token, or address(0) for ETH, that users must bid with",
          "_duration": "The length of time the auction should run after the first bid",
          "_listingFeeBps": "The fee to send to the lister of the auction",
          "_listingFeeRecipient": "The address listing the auction",
          "_reservePrice": "The minimum bid amount to start the auction",
          "_sellerFundsRecipient": "The address to send funds to once the auction is complete",
          "_startTime": "The time that users can begin placing bids",
          "_tokenContract": "The address of the ERC-721 token",
          "_tokenId": "The id of the ERC-721 token"
        }
      },
      "createBid(address,uint256,uint256)": {
        "params": {
          "_amount": "The amount to bid",
          "_tokenContract": "The address of the ERC-721 token",
          "_tokenId": "The id of the ERC-721 token"
        }
      },
      "setAuctionReservePrice(address,uint256,uint256)": {
        "params": {
          "_reservePrice": "The new reserve price",
          "_tokenContract": "The address of the ERC-721 token",
          "_tokenId": "The id of the ERC-721 token"
        }
      },
      "setRoyaltyEngineAddress(address)": {
        "details": "emergency use only  requires a frozen RoyaltyEngineV1 at commit 4ae77a73a8a73a79d628352d206fadae7f8e0f74  to be deployed elsewhere, or a contract matching that ABI",
        "params": {
          "_royaltyEngine": "The address for the new royalty engine"
        }
      },
      "settleAuction(address,uint256)": {
        "params": {
          "_tokenContract": "The address of the ERC-721 token",
          "_tokenId": "The id of the ERC-721 token"
        }
      },
      "supportsInterface(bytes4)": {
        "details": "`0x01ffc9a7` is the IERC165 interface id",
        "params": {
          "_interfaceId": "The identifier of a given interface"
        },
        "returns": {
          "_0": "If the given interface is supported"
        }
      }
    },
    "stateVariables": {
      "auctionForNFT": {
        "details": "ERC-721 token contract => ERC-721 token id => Auction"
      }
    },
    "title": "Reserve Auction Listing ERC-20",
    "version": 1
  },
  "userdoc": {
    "events": {
      "AuctionBid(address,uint256,bool,bool,(address,uint96,address,uint96,address,uint96,address,uint96,address,uint80,uint16))": {
        "notice": "Emitted when a bid is placed"
      },
      "AuctionCanceled(address,uint256,(address,uint96,address,uint96,address,uint96,address,uint96,address,uint80,uint16))": {
        "notice": "Emitted when an auction is canceled"
      },
      "AuctionCreated(address,uint256,(address,uint96,address,uint96,address,uint96,address,uint96,address,uint80,uint16))": {
        "notice": "Emitted when an auction is created"
      },
      "AuctionEnded(address,uint256,(address,uint96,address,uint96,address,uint96,address,uint96,address,uint80,uint16))": {
        "notice": "Emitted when an auction has ended"
      },
      "AuctionReservePriceUpdated(address,uint256,(address,uint96,address,uint96,address,uint96,address,uint96,address,uint80,uint16))": {
        "notice": "Emitted when a reserve price is updated"
      },
      "RoyaltyPayout(address,uint256,address,uint256)": {
        "notice": "Emitted when royalties are paid"
      }
    },
    "kind": "user",
    "methods": {
      "_handleRoyaltyEnginePayout(address,uint256,uint256,address)": {
        "notice": "Pays out royalties for NFTs based on the information returned by the royalty engine"
      },
      "auctionForNFT(address,uint256)": {
        "notice": "The auction for a given NFT, if one exists"
      },
      "cancelAuction(address,uint256)": {
        "notice": "Cancels the auction for a given NFT"
      },
      "createAuction(address,uint256,uint256,uint256,address,uint256,address,uint256,address)": {
        "notice": "Creates an auction for a given NFT"
      },
      "createBid(address,uint256,uint256)": {
        "notice": "Places a bid on the auction for a given NFT"
      },
      "erc20TransferHelper()": {
        "notice": "The ZORA ERC-20 Transfer Helper"
      },
      "erc721TransferHelper()": {
        "notice": "The ZORA ERC-721 Transfer Helper"
      },
      "name()": {
        "notice": "The module name"
      },
      "registrar()": {
        "notice": "The ZORA Module Registrar"
      },
      "setAuctionReservePrice(address,uint256,uint256)": {
        "notice": "Updates the reserve price for a given auction"
      },
      "setRoyaltyEngineAddress(address)": {
        "notice": "Update the address of the Royalty Engine, in case of unexpected update on Manifold's Proxy"
      },
      "settleAuction(address,uint256)": {
        "notice": "Ends the auction for a given NFT"
      },
      "supportsInterface(bytes4)": {
        "notice": "Implements EIP-165 for standard interface detection"
      }
    },
    "notice": "Module adding Listing Fee to Reserve Auction Core ERC-20",
    "version": 1
  }
}