{
  "contractName": "ReserveAuctionCoreEth",
  "abi": [
    {
      "inputs": [
        {
          "internalType": "address",
          "name": "_erc721TransferHelper",
          "type": "address"
        },
        {
          "internalType": "address",
          "name": "_royaltyEngine",
          "type": "address"
        },
        {
          "internalType": "address",
          "name": "_protocolFeeSettings",
          "type": "address"
        },
        {
          "internalType": "address",
          "name": "_weth",
          "type": "address"
        }
      ],
      "stateMutability": "nonpayable",
      "type": "constructor"
    },
    {
      "anonymous": false,
      "inputs": [
        {
          "indexed": true,
          "internalType": "address",
          "name": "tokenContract",
          "type": "address"
        },
        {
          "indexed": true,
          "internalType": "uint256",
          "name": "tokenId",
          "type": "uint256"
        },
        {
          "indexed": false,
          "internalType": "bool",
          "name": "firstBid",
          "type": "bool"
        },
        {
          "indexed": false,
          "internalType": "bool",
          "name": "extended",
          "type": "bool"
        },
        {
          "components": [
            {
              "internalType": "address",
              "name": "seller",
              "type": "address"
            },
            {
              "internalType": "uint96",
              "name": "reservePrice",
              "type": "uint96"
            },
            {
              "internalType": "address",
              "name": "sellerFundsRecipient",
              "type": "address"
            },
            {
              "internalType": "uint96",
              "name": "highestBid",
              "type": "uint96"
            },
            {
              "internalType": "address",
              "name": "highestBidder",
              "type": "address"
            },
            {
              "internalType": "uint32",
              "name": "duration",
              "type": "uint32"
            },
            {
              "internalType": "uint32",
              "name": "startTime",
              "type": "uint32"
            },
            {
              "internalType": "uint32",
              "name": "firstBidTime",
              "type": "uint32"
            }
          ],
          "indexed": false,
          "internalType": "struct ReserveAuctionCoreEth.Auction",
          "name": "auction",
          "type": "tuple"
        }
      ],
      "name": "AuctionBid",
      "type": "event"
    },
    {
      "anonymous": false,
      "inputs": [
        {
          "indexed": true,
          "internalType": "address",
          "name": "tokenContract",
          "type": "address"
        },
        {
          "indexed": true,
          "internalType": "uint256",
          "name": "tokenId",
          "type": "uint256"
        },
        {
          "components": [
            {
              "internalType": "address",
              "name": "seller",
              "type": "address"
            },
            {
              "internalType": "uint96",
              "name": "reservePrice",
              "type": "uint96"
            },
            {
              "internalType": "address",
              "name": "sellerFundsRecipient",
              "type": "address"
            },
            {
              "internalType": "uint96",
              "name": "highestBid",
              "type": "uint96"
            },
            {
              "internalType": "address",
              "name": "highestBidder",
              "type": "address"
            },
            {
              "internalType": "uint32",
              "name": "duration",
              "type": "uint32"
            },
            {
              "internalType": "uint32",
              "name": "startTime",
              "type": "uint32"
            },
            {
              "internalType": "uint32",
              "name": "firstBidTime",
              "type": "uint32"
            }
          ],
          "indexed": false,
          "internalType": "struct ReserveAuctionCoreEth.Auction",
          "name": "auction",
          "type": "tuple"
        }
      ],
      "name": "AuctionCanceled",
      "type": "event"
    },
    {
      "anonymous": false,
      "inputs": [
        {
          "indexed": true,
          "internalType": "address",
          "name": "tokenContract",
          "type": "address"
        },
        {
          "indexed": true,
          "internalType": "uint256",
          "name": "tokenId",
          "type": "uint256"
        },
        {
          "components": [
            {
              "internalType": "address",
              "name": "seller",
              "type": "address"
            },
            {
              "internalType": "uint96",
              "name": "reservePrice",
              "type": "uint96"
            },
            {
              "internalType": "address",
              "name": "sellerFundsRecipient",
              "type": "address"
            },
            {
              "internalType": "uint96",
              "name": "highestBid",
              "type": "uint96"
            },
            {
              "internalType": "address",
              "name": "highestBidder",
              "type": "address"
            },
            {
              "internalType": "uint32",
              "name": "duration",
              "type": "uint32"
            },
            {
              "internalType": "uint32",
              "name": "startTime",
              "type": "uint32"
            },
            {
              "internalType": "uint32",
              "name": "firstBidTime",
              "type": "uint32"
            }
          ],
          "indexed": false,
          "internalType": "struct ReserveAuctionCoreEth.Auction",
          "name": "auction",
          "type": "tuple"
        }
      ],
      "name": "AuctionCreated",
      "type": "event"
    },
    {
      "anonymous": false,
      "inputs": [
        {
          "indexed": true,
          "internalType": "address",
          "name": "tokenContract",
          "type": "address"
        },
        {
          "indexed": true,
          "internalType": "uint256",
          "name": "tokenId",
          "type": "uint256"
        },
        {
          "components": [
            {
              "internalType": "address",
              "name": "seller",
              "type": "address"
            },
            {
              "internalType": "uint96",
              "name": "reservePrice",
              "type": "uint96"
            },
            {
              "internalType": "address",
              "name": "sellerFundsRecipient",
              "type": "address"
            },
            {
              "internalType": "uint96",
              "name": "highestBid",
              "type": "uint96"
            },
            {
              "internalType": "address",
              "name": "highestBidder",
              "type": "address"
            },
            {
              "internalType": "uint32",
              "name": "duration",
              "type": "uint32"
            },
            {
              "internalType": "uint32",
              "name": "startTime",
              "type": "uint32"
            },
            {
              "internalType": "uint32",
              "name": "firstBidTime",
              "type": "uint32"
            }
          ],
          "indexed": false,
          "internalType": "struct ReserveAuctionCoreEth.Auction",
          "name": "auction",
          "type": "tuple"
        }
      ],
      "name": "AuctionEnded",
      "type": "event"
    },
    {
      "anonymous": false,
      "inputs": [
        {
          "indexed": true,
          "internalType": "address",
          "name": "tokenContract",
          "type": "address"
        },
        {
          "indexed": true,
          "internalType": "uint256",
          "name": "tokenId",
          "type": "uint256"
        },
        {
          "components": [
            {
              "internalType": "address",
              "name": "seller",
              "type": "address"
            },
            {
              "internalType": "uint96",
              "name": "reservePrice",
              "type": "uint96"
            },
            {
              "internalType": "address",
              "name": "sellerFundsRecipient",
              "type": "address"
            },
            {
              "internalType": "uint96",
              "name": "highestBid",
              "type": "uint96"
            },
            {
              "internalType": "address",
              "name": "highestBidder",
              "type": "address"
            },
            {
              "internalType": "uint32",
              "name": "duration",
              "type": "uint32"
            },
            {
              "internalType": "uint32",
              "name": "startTime",
              "type": "uint32"
            },
            {
              "internalType": "uint32",
              "name": "firstBidTime",
              "type": "uint32"
            }
          ],
          "indexed": false,
          "internalType": "struct ReserveAuctionCoreEth.Auction",
          "name": "auction",
          "type": "tuple"
        }
      ],
      "name": "AuctionReservePriceUpdated",
      "type": "event"
    },
    {
      "anonymous": false,
      "inputs": [
        {
          "indexed": true,
          "internalType": "address",
          "name": "tokenContract",
          "type": "address"
        },
        {
          "indexed": true,
          "internalType": "uint256",
          "name": "tokenId",
          "type": "uint256"
        },
        {
          "indexed": false,
          "internalType": "address",
          "name": "recipient",
          "type": "address"
        },
        {
          "indexed": false,
          "internalType": "uint256",
          "name": "amount",
          "type": "uint256"
        }
      ],
      "name": "RoyaltyPayout",
      "type": "event"
    },
    {
      "inputs": [
        {
          "internalType": "address",
          "name": "_tokenContract",
          "type": "address"
        },
        {
          "internalType": "uint256",
          "name": "_tokenId",
          "type": "uint256"
        },
        {
          "internalType": "uint256",
          "name": "_amount",
          "type": "uint256"
        },
        {
          "internalType": "address",
          "name": "_payoutCurrency",
          "type": "address"
        }
      ],
      "name": "_handleRoyaltyEnginePayout",
      "outputs": [
        {
          "internalType": "uint256",
          "name": "",
          "type": "uint256"
        }
      ],
      "stateMutability": "payable",
      "type": "function"
    },
    {
      "inputs": [
        {
          "internalType": "address",
          "name": "",
          "type": "address"
        },
        {
          "internalType": "uint256",
          "name": "",
          "type": "uint256"
        }
      ],
      "name": "auctionForNFT",
      "outputs": [
        {
          "internalType": "address",
          "name": "seller",
          "type": "address"
        },
        {
          "internalType": "uint96",
          "name": "reservePrice",
          "type": "uint96"
        },
        {
          "internalType": "address",
          "name": "sellerFundsRecipient",
          "type": "address"
        },
        {
          "internalType": "uint96",
          "name": "highestBid",
          "type": "uint96"
        },
        {
          "internalType": "address",
          "name": "highestBidder",
          "type": "address"
        },
        {
          "internalType": "uint32",
          "name": "duration",
          "type": "uint32"
        },
        {
          "internalType": "uint32",
          "name": "startTime",
          "type": "uint32"
        },
        {
          "internalType": "uint32",
          "name": "firstBidTime",
          "type": "uint32"
        }
      ],
      "stateMutability": "view",
      "type": "function"
    },
    {
      "inputs": [],
      "name": "erc721TransferHelper",
      "outputs": [
        {
          "internalType": "contract ERC721TransferHelper",
          "name": "",
          "type": "address"
        }
      ],
      "stateMutability": "view",
      "type": "function"
    },
    {
      "inputs": [],
      "name": "name",
      "outputs": [
        {
          "internalType": "string",
          "name": "",
          "type": "string"
        }
      ],
      "stateMutability": "view",
      "type": "function"
    },
    {
      "inputs": [],
      "name": "registrar",
      "outputs": [
        {
          "internalType": "address",
          "name": "",
          "type": "address"
        }
      ],
      "stateMutability": "view",
      "type": "function"
    },
    {
      "inputs": [
        {
          "internalType": "address",
          "name": "_royaltyEngine",
          "type": "address"
        }
      ],
      "name": "setRoyaltyEngineAddress",
      "outputs": [],
      "stateMutability": "nonpayable",
      "type": "function"
    },
    {
      "inputs": [
        {
          "internalType": "bytes4",
          "name": "_interfaceId",
          "type": "bytes4"
        }
      ],
      "name": "supportsInterface",
      "outputs": [
        {
          "internalType": "bool",
          "name": "",
          "type": "bool"
        }
      ],
      "stateMutability": "pure",
      "type": "function"
    },
    {
      "inputs": [
        {
          "internalType": "address",
          "name": "_tokenContract",
          "type": "address"
        },
        {
          "internalType": "uint256",
          "name": "_tokenId",
          "type": "uint256"
        },
        {
          "internalType": "uint256",
          "name": "_duration",
          "type": "uint256"
        },
        {
          "internalType": "uint256",
          "name": "_reservePrice",
          "type": "uint256"
        },
        {
          "internalType": "address",
          "name": "_sellerFundsRecipient",
          "type": "address"
        },
        {
          "internalType": "uint256",
          "name": "_startTime",
          "type": "uint256"
        }
      ],
      "name": "createAuction",
      "outputs": [],
      "stateMutability": "nonpayable",
      "type": "function"
    },
    {
      "inputs": [
        {
          "internalType": "address",
          "name": "_tokenContract",
          "type": "address"
        },
        {
          "internalType": "uint256",
          "name": "_tokenId",
          "type": "uint256"
        },
        {
          "internalType": "uint256",
          "name": "_reservePrice",
          "type": "uint256"
        }
      ],
      "name": "setAuctionReservePrice",
      "outputs": [],
      "stateMutability": "nonpayable",
      "type": "function"
    },
    {
      "inputs": [
        {
          "internalType": "address",
          "name": "_tokenContract",
          "type": "address"
        },
        {
          "internalType": "uint256",
          "name": "_tokenId",
          "type": "uint256"
        }
      ],
      "name": "cancelAuction",
      "outputs": [],
      "stateMutability": "nonpayable",
      "type": "function"
    },
    {
      "inputs": [
        {
          "internalType": "address",
          "name": "_tokenContract",
          "type": "address"
        },
        {
          "internalType": "uint256",
          "name": "_tokenId",
          "type": "uint256"
        }
      ],
      "name": "createBid",
      "outputs": [],
      "stateMutability": "payable",
      "type": "function"
    },
    {
      "inputs": [
        {
          "internalType": "address",
          "name": "_tokenContract",
          "type": "address"
        },
        {
          "internalType": "uint256",
          "name": "_tokenId",
          "type": "uint256"
        }
      ],
      "name": "settleAuction",
      "outputs": [],
      "stateMutability": "nonpayable",
      "type": "function"
    }
  ],
  "bytecode": "0x61010060405260016000553480156200001757600080fd5b5060405162002651380380620026518339810160408190526200003a916200025a565b6040518060400160405280601881526020017f526573657276652041756374696f6e20436f7265204554480000000000000000815250838383876001600160a01b031663e3e606f06040518163ffffffff1660e01b8152600401602060405180830381865afa158015620000b2573d6000803e3d6000fd5b505050506040513d601f19601f82011682018060405250810190620000d89190620002c2565b6001600160a01b0316632b20e3976040518163ffffffff1660e01b8152600401602060405180830381865afa15801562000116573d6000803e3d6000fd5b505050506040513d601f19601f820116820180604052508101906200013c9190620002c2565b6001600160a01b03918216608052600180546001600160a01b0319169483169490941790935590811660c0521660a0528051620001819060029060208401906200019b565b5050506001600160a01b0390921660e05250620003269050565b828054620001a990620002e9565b90600052602060002090601f016020900481019282620001cd576000855562000218565b82601f10620001e857805160ff191683800117855562000218565b8280016001018555821562000218579182015b8281111562000218578251825591602001919060010190620001fb565b50620002269291506200022a565b5090565b5b808211156200022657600081556001016200022b565b6001600160a01b03811681146200025757600080fd5b50565b600080600080608085870312156200027157600080fd5b84516200027e8162000241565b6020860151909450620002918162000241565b6040860151909350620002a48162000241565b6060860151909250620002b78162000241565b939692955090935050565b600060208284031215620002d557600080fd5b8151620002e28162000241565b9392505050565b600181811c90821680620002fe57607f821691505b602082108114156200032057634e487b7160e01b600052602260045260246000fd5b50919050565b60805160a05160c05160e0516122d56200037c600039600081816103230152610c6e01526000818161162d01526116c001526000818161013701526112d901526000818161185801526118d601526122d56000f3fe6080604052600436106100a75760003560e01c8063859b97fe11610064578063859b97fe146101a45780639128c22c146101c4578063a90832a1146101e5578063b249bb30146102d1578063cbe98dba146102f1578063f7cd1d9b1461031157600080fd5b806301ffc9a7146100ac57806306fdd531146100e157806306fdde03146101035780632b20e397146101255780635138b08c1461017157806370a7eba914610191575b600080fd5b3480156100b857600080fd5b506100cc6100c7366004611c9e565b610345565b60405190151581526020015b60405180910390f35b3480156100ed57600080fd5b506101016100fc366004611ce0565b61037c565b005b34801561010f57600080fd5b5061011861078c565b6040516100d89190611d6a565b34801561013157600080fd5b506101597f000000000000000000000000000000000000000000000000000000000000000081565b6040516001600160a01b0390911681526020016100d8565b34801561017d57600080fd5b5061010161018c366004611d9d565b61081a565b61010161019f366004611d9d565b610aae565b3480156101b057600080fd5b506101016101bf366004611d9d565b610e6f565b6101d76101d2366004611dc9565b6110d2565b6040519081526020016100d8565b3480156101f157600080fd5b50610275610200366004611d9d565b60036020908152600092835260408084209091529082529020805460018201546002909201546001600160a01b03808316936001600160601b03600160a01b9485900481169482841694928190049091169282169163ffffffff918104821691600160c01b8204811691600160e01b90041688565b604080516001600160a01b03998a1681526001600160601b039889166020820152968916908701529590931660608501529416608083015263ffffffff93841660a0830152831660c0820152911660e0820152610100016100d8565b3480156102dd57600080fd5b506101016102ec366004611e13565b6112ce565b3480156102fd57600080fd5b5061010161030c366004611e30565b6113fa565b34801561031d57600080fd5b506101597f000000000000000000000000000000000000000000000000000000000000000081565b60006001600160e01b03198216630691094560e41b148061037657506301ffc9a760e01b6001600160e01b03198316145b92915050565b6000546001146103a75760405162461bcd60e51b815260040161039e90611e65565b60405180910390fd5b600260009081556040516331a9108f60e11b8152600481018790526001600160a01b03881690636352211e90602401602060405180830381865afa1580156103f3573d6000803e3d6000fd5b505050506040513d601f19601f820116820180604052508101906104179190611e89565b9050336001600160a01b038216148061049b575060405163e985e9c560e01b81526001600160a01b03828116600483015233602483015288169063e985e9c590604401602060405180830381865afa158015610477573d6000803e3d6000fd5b505050506040513d601f19601f8201168201806040525081019061049b9190611ea6565b6104e75760405162461bcd60e51b815260206004820152601c60248201527f4f4e4c595f544f4b454e5f4f574e45525f4f525f4f50455241544f5200000000604482015260640161039e565b6001600160a01b03831661053d5760405162461bcd60e51b815260206004820152601760248201527f494e56414c49445f46554e44535f524543495049454e54000000000000000000604482015260640161039e565b8060036000896001600160a01b03166001600160a01b03168152602001908152602001600020600088815260200190815260200160002060000160006101000a8154816001600160a01b0302191690836001600160a01b031602179055508360036000896001600160a01b03166001600160a01b03168152602001908152602001600020600088815260200190815260200160002060000160146101000a8154816001600160601b0302191690836001600160601b031602179055508260036000896001600160a01b03166001600160a01b03168152602001908152602001600020600088815260200190815260200160002060010160006101000a8154816001600160a01b0302191690836001600160a01b031602179055508460036000896001600160a01b03166001600160a01b03168152602001908152602001600020600088815260200190815260200160002060020160146101000a81548163ffffffff021916908363ffffffff1602179055508160036000896001600160a01b03166001600160a01b03168152602001908152602001600020600088815260200190815260200160002060020160186101000a81548163ffffffff021916908363ffffffff16021790555085876001600160a01b03167f121f6d6881cb1dd3914c0234659abdd33704f600899be3db716f88f44a22eb71600360008b6001600160a01b03166001600160a01b0316815260200190815260200160002060008a81526020019081526020016000206040516107769190611f2a565b60405180910390a3505060016000555050505050565b6002805461079990611f39565b80601f01602080910402602001604051908101604052809291908181526020018280546107c590611f39565b80156108125780601f106107e757610100808354040283529160200191610812565b820191906000526020600020905b8154815290600101906020018083116107f557829003601f168201915b505050505081565b60005460011461083c5760405162461bcd60e51b815260040161039e90611e65565b600260008181556001600160a01b038085168252600360209081526040808420868552825292839020835161010081018552815480851682526001600160601b03600160a01b9182900481169483019490945260018301548086169683019690965294859004909216606083015290930154908116608084015263ffffffff918104821660a0840152600160c01b8104821660c0840152600160e01b90041660e08201819052806109255760405162461bcd60e51b8152602060048201526013602482015272105550d51253d397d393d517d4d51054951151606a1b604482015260640161039e565b60a082015161093a9063ffffffff1682611f8a565b42101561097c5760405162461bcd60e51b815260206004820152601060248201526f20aaa1aa24a7a72fa727aa2fa7ab22a960811b604482015260640161039e565b600061099c858585606001516001600160601b03166000620493e0611542565b5090506109aa816000611604565b90506109bf836040015182600061c350611756565b60808301516040516323b872dd60e01b81523060048201526001600160a01b03918216602482015260448101869052908616906323b872dd90606401600060405180830381600087803b158015610a1557600080fd5b505af1158015610a29573d6000803e3d6000fd5b5050505083856001600160a01b03167fde4690ca69ca2f9bab030a05a3072d626b0692c7020c1ef534aa3cc140fb1ff585604051610a679190611fa2565b60405180910390a35050506001600160a01b039091166000908152600360209081526040808320938352929052908120818155600180820183905560029091018290559055565b600054600114610ad05760405162461bcd60e51b815260040161039e90611e65565b600260009081556001600160a01b038084168252600360209081526040808420858552909152909120805490911680610b445760405162461bcd60e51b8152602060048201526016602482015275105550d51253d397d113d154d7d393d517d1561254d560521b604482015260640161039e565b6002820154600160c01b900463ffffffff16421015610b9b5760405162461bcd60e51b8152602060048201526013602482015272105550d51253d397d393d517d4d51054951151606a1b604482015260640161039e565b600282015463ffffffff600160e01b8204811691600160a01b900416600082610cd1578454600160a01b90046001600160601b0316341015610c175760405162461bcd60e51b8152602060048201526015602482015274149154d154959157d4149250d157d393d517d35155605a1b604482015260640161039e565b506002840180546001600160e01b0316600160e01b4263ffffffff1602179055604051630aed65f560e11b81526001600160a01b0387811660048301528481166024830152306044830152606482018790526001917f0000000000000000000000000000000000000000000000000000000000000000909116906315dacbea90608401600060405180830381600087803b158015610cb457600080fd5b505af1158015610cc8573d6000803e3d6000fd5b50505050610d9c565b610cdb8284611f8a565b4210610d185760405162461bcd60e51b815260206004820152600c60248201526b20aaa1aa24a7a72fa7ab22a960a11b604482015260640161039e565b6001850154600160a01b90046001600160601b03166064600a820204810134811115610d7c5760405162461bcd60e51b81526020600482015260136024820152721352539253555357d0925117d393d517d35155606a1b604482015260640161039e565b6002870154610d99906001600160a01b031683600061c350611756565b50505b6001850180546001600160601b033416600160a01b026001600160a01b039091161790556002850180546001600160a01b0319163317905560004284840103610384811015610e195760028701805463ffffffff600160a01b8083048216610384869003019091160263ffffffff60a01b19909116179055600191505b87896001600160a01b03167f0a3da7cd15c46d5cafa4dd84d39231172bb1e7822cacea75610917733a77dcc385858b604051610e5793929190612042565b60405180910390a35050600160005550505050505050565b600054600114610e915760405162461bcd60e51b815260040161039e90611e65565b600260008181556001600160a01b038085168252600360209081526040808420868552825292839020835161010081018552815480851682526001600160601b03600160a01b9182900481169483019490945260018301548086169683019690965294859004909216606083015290930154908116608084015263ffffffff918104821660a0840152600160c01b8104821660c0840152600160e01b90041660e0820181905215610f765760405162461bcd60e51b815260206004820152600f60248201526e105550d51253d397d4d51054951151608a1b604482015260640161039e565b80516001600160a01b031633148061100757506040516331a9108f60e11b8152600481018390526001600160a01b03841690636352211e90602401602060405180830381865afa158015610fce573d6000803e3d6000fd5b505050506040513d601f19601f82011682018060405250810190610ff29190611e89565b6001600160a01b0316336001600160a01b0316145b6110535760405162461bcd60e51b815260206004820152601a60248201527f4f4e4c595f53454c4c45525f4f525f544f4b454e5f4f574e4552000000000000604482015260640161039e565b81836001600160a01b03167f03a68264db4df5c4ee072ef5ddf1c65b80a3d96e54c2082d5dbbfa479b4b159a8360405161108d9190611fa2565b60405180910390a3506001600160a01b039091166000908152600360209081526040808320938352929052908120818155600180820183905560029091018290559055565b60003330146111395760405162461bcd60e51b815260206004820152602d60248201527f5f68616e646c65526f79616c7479456e67696e655061796f7574206f6e6c792060448201526c73656c662063616c6c61626c6560981b606482015260840161039e565b600154604051637a99dc0160e11b81526001600160a01b0387811660048301526024820187905260448201869052600092839291169063f533b802906064016000604051808303816000875af1158015611197573d6000803e3d6000fd5b505050506040513d6000823e601f3d908101601f191682016040526111bf9190810190612137565b81519193509150806111d6578593505050506112c6565b85600080805b848110156112bc578681815181106111f6576111f66121fc565b60200260200101519250858181518110611212576112126121fc565b60200260200101519150818410156112585760405162461bcd60e51b81526020600482015260096024820152681a5b9cdbdb1d995b9d60ba1b604482015260640161039e565b61126683838b61c350611756565b604080516001600160a01b038581168252602082018590528d92908f16917f866e6ef8682ddf5f1025e64dfdb45527077f7be70fa9ef680b7ffd8cf4ab9c50910160405180910390a392819003926001016111dc565b5091955050505050505b949350505050565b336001600160a01b037f000000000000000000000000000000000000000000000000000000000000000016146113555760405162461bcd60e51b815260206004820152602660248201527f736574526f79616c7479456e67696e6541646472657373206f6e6c792072656760448201526534b9ba3930b960d11b606482015260840161039e565b61136681636591fc0b60e11b611922565b6113d85760405162461bcd60e51b815260206004820152603d60248201527f736574526f79616c7479456e67696e6541646472657373206d757374206d617460448201527f63682049526f79616c7479456e67696e65563120696e74657266616365000000606482015260840161039e565b600180546001600160a01b0319166001600160a01b0392909216919091179055565b60005460011461141c5760405162461bcd60e51b815260040161039e90611e65565b600260008181556001600160a01b0385168152600360209081526040808320868452909152902090810154600160e01b900463ffffffff16156114935760405162461bcd60e51b815260206004820152600f60248201526e105550d51253d397d4d51054951151608a1b604482015260640161039e565b80546001600160a01b031633146114da5760405162461bcd60e51b815260206004820152600b60248201526a27a7262cafa9a2a62622a960a91b604482015260640161039e565b80546001600160601b038316600160a01b026001600160a01b0391821617825560405184918616907f340f8e02bf825f1f02f5409eb2c69a09374d9063b8a3297579b69c9b3643f9619061152f908590611f2a565b60405180910390a3505060016000555050565b6000808083158061155257505a84115b61155c578361155e565b5a5b60405163244a308b60e21b81526001600160a01b03808b166004830152602482018a905260448201899052871660648201529091503090639128c22c90839060840160206040518083038160008887f1935050505080156115dc575060408051601f3d908101601f191682019092526115d991810190612212565b60015b6115ed5785600092509250506115fa565b9250600191506115fa9050565b9550959350505050565b6040516330da42fb60e11b81523060048201526024810183905260009081906001600160a01b037f000000000000000000000000000000000000000000000000000000000000000016906361b485f690604401602060405180830381865afa158015611674573d6000803e3d6000fd5b505050506040513d601f19601f820116820180604052508101906116989190612212565b9050806116a85783915050610376565b6040516386ab6fb960e01b81523060048201526000907f00000000000000000000000000000000000000000000000000000000000000006001600160a01b0316906386ab6fb9906024016040805180830381865afa15801561170e573d6000803e3d6000fd5b505050506040513d601f19601f82011682018060405250810190611732919061222b565b91505061174381838661c350611756565b61174d828661226c565b95945050505050565b82158061176a57506001600160a01b038416155b156117745761191c565b6001600160a01b03821661190857824710156117dc5760405162461bcd60e51b815260206004820152602160248201527f5f68616e646c654f7574676f696e675472616e7366657220696e736f6c76656e6044820152601d60fa1b606482015260840161039e565b60008115806117ea57505a82115b6117f457816117f6565b5a5b90506000856001600160a01b0316858390604051600060405180830381858888f193505050503d8060008114611848576040519150601f19603f3d011682016040523d82523d6000602084013e61184d565b606091505b5050905080611901577f00000000000000000000000000000000000000000000000000000000000000006001600160a01b031663d0e30db0866040518263ffffffff1660e01b81526004016000604051808303818588803b1580156118b157600080fd5b505af11580156118c5573d6000803e3d6000fd5b506119019350506001600160a01b037f000000000000000000000000000000000000000000000000000000000000000016915088905087611945565b505061191c565b61191c6001600160a01b0383168585611945565b50505050565b600061192d8361199c565b801561193e575061193e83836119cf565b9392505050565b604080516001600160a01b038416602482015260448082018490528251808303909101815260649091019091526020810180516001600160e01b031663a9059cbb60e01b179052611997908490611ab8565b505050565b60006119af826301ffc9a760e01b6119cf565b801561037657506119c8826001600160e01b03196119cf565b1592915050565b604080516001600160e01b0319831660248083019190915282518083039091018152604490910182526020810180516001600160e01b03166301ffc9a760e01b179052905160009190829081906001600160a01b0387169061753090611a36908690612283565b6000604051808303818686fa925050503d8060008114611a72576040519150601f19603f3d011682016040523d82523d6000602084013e611a77565b606091505b5091509150602081511015611a925760009350505050610376565b818015611aae575080806020019051810190611aae9190611ea6565b9695505050505050565b6000611b0d826040518060400160405280602081526020017f5361666545524332303a206c6f772d6c6576656c2063616c6c206661696c6564815250856001600160a01b0316611b8a9092919063ffffffff16565b8051909150156119975780806020019051810190611b2b9190611ea6565b6119975760405162461bcd60e51b815260206004820152602a60248201527f5361666545524332303a204552433230206f7065726174696f6e20646964206e6044820152691bdd081cdd58d8d9595960b21b606482015260840161039e565b60606112c68484600085856001600160a01b0385163b611bec5760405162461bcd60e51b815260206004820152601d60248201527f416464726573733a2063616c6c20746f206e6f6e2d636f6e7472616374000000604482015260640161039e565b600080866001600160a01b03168587604051611c089190612283565b60006040518083038185875af1925050503d8060008114611c45576040519150601f19603f3d011682016040523d82523d6000602084013e611c4a565b606091505b5091509150611c5a828286611c65565b979650505050505050565b60608315611c7457508161193e565b825115611c845782518084602001fd5b8160405162461bcd60e51b815260040161039e9190611d6a565b600060208284031215611cb057600080fd5b81356001600160e01b03198116811461193e57600080fd5b6001600160a01b0381168114611cdd57600080fd5b50565b60008060008060008060c08789031215611cf957600080fd5b8635611d0481611cc8565b95506020870135945060408701359350606087013592506080870135611d2981611cc8565b8092505060a087013590509295509295509295565b60005b83811015611d59578181015183820152602001611d41565b8381111561191c5750506000910152565b6020815260008251806020840152611d89816040850160208701611d3e565b601f01601f19169190910160400192915050565b60008060408385031215611db057600080fd5b8235611dbb81611cc8565b946020939093013593505050565b60008060008060808587031215611ddf57600080fd5b8435611dea81611cc8565b935060208501359250604085013591506060850135611e0881611cc8565b939692955090935050565b600060208284031215611e2557600080fd5b813561193e81611cc8565b600080600060608486031215611e4557600080fd5b8335611e5081611cc8565b95602085013595506040909401359392505050565b6020808252600a90820152695245454e5452414e435960b01b604082015260600190565b600060208284031215611e9b57600080fd5b815161193e81611cc8565b600060208284031215611eb857600080fd5b8151801515811461193e57600080fd5b80546001600160a01b03808216845260a091821c602085015260018301548082166040860152821c6060850152600290920154918216608084015263ffffffff82821c81169184019190915260c082811c9091169083015260e090811c910152565b61010081016103768284611ec8565b600181811c90821680611f4d57607f821691505b60208210811415611f6e57634e487b7160e01b600052602260045260246000fd5b50919050565b634e487b7160e01b600052601160045260246000fd5b60008219821115611f9d57611f9d611f74565b500190565b60006101008201905060018060a01b0380845116835260208401516001600160601b03808216602086015282604087015116604086015280606087015116606086015250508060808501511660808401525060a083015161200b60a084018263ffffffff169052565b5060c083015161202360c084018263ffffffff169052565b5060e083015161203b60e084018263ffffffff169052565b5092915050565b8315158152821515602082015261014081016112c66040830184611ec8565b634e487b7160e01b600052604160045260246000fd5b604051601f8201601f1916810167ffffffffffffffff811182821017156120a0576120a0612061565b604052919050565b600067ffffffffffffffff8211156120c2576120c2612061565b5060051b60200190565b600082601f8301126120dd57600080fd5b815160206120f26120ed836120a8565b612077565b82815260059290921b8401810191818101908684111561211157600080fd5b8286015b8481101561212c5780518352918301918301612115565b509695505050505050565b6000806040838503121561214a57600080fd5b825167ffffffffffffffff8082111561216257600080fd5b818501915085601f83011261217657600080fd5b815160206121866120ed836120a8565b82815260059290921b840181019181810190898411156121a557600080fd5b948201945b838610156121cc5785516121bd81611cc8565b825294820194908201906121aa565b918801519196509093505050808211156121e557600080fd5b506121f2858286016120cc565b9150509250929050565b634e487b7160e01b600052603260045260246000fd5b60006020828403121561222457600080fd5b5051919050565b6000806040838503121561223e57600080fd5b825161ffff8116811461225057600080fd5b602084015190925061226181611cc8565b809150509250929050565b60008282101561227e5761227e611f74565b500390565b60008251612295818460208701611d3e565b919091019291505056fea2646970667358221220d6da38c8f301bc68ce75206538f4884c746d2ef290c733dee3110c6b8f7df7de64736f6c634300080a0033",
  "immutableReferences": {
    "8147": [
      {
        "length": 32,
        "start": 311
      },
      {
        "length": 32,
        "start": 4825
      }
    ],
    "8151": [
      {
        "length": 32,
        "start": 5677
      },
      {
        "length": 32,
        "start": 5824
      }
    ],
    "8607": [
      {
        "length": 32,
        "start": 6232
      },
      {
        "length": 32,
        "start": 6358
      }
    ],
    "11863": [
      {
        "length": 32,
        "start": 803
      },
      {
        "length": 32,
        "start": 3182
      }
    ]
  },
  "source": "// SPDX-License-Identifier: GPL-3.0\npragma solidity 0.8.10;\n\nimport {ReentrancyGuard} from \"@rari-capital/solmate/src/utils/ReentrancyGuard.sol\";\nimport {IERC721} from \"@openzeppelin/contracts/token/ERC721/IERC721.sol\";\n\nimport {ERC721TransferHelper} from \"../../../../transferHelpers/ERC721TransferHelper.sol\";\nimport {FeePayoutSupportV1} from \"../../../../common/FeePayoutSupport/FeePayoutSupportV1.sol\";\nimport {ModuleNamingSupportV1} from \"../../../../common/ModuleNamingSupport/ModuleNamingSupportV1.sol\";\nimport {IReserveAuctionCoreEth} from \"./IReserveAuctionCoreEth.sol\";\n\n/// @title Reserve Auction Core ETH\n/// @author kulkarohan\n/// @notice Module for minimal ETH timed reserve auctions for ERC-721 tokens\ncontract ReserveAuctionCoreEth is IReserveAuctionCoreEth, ReentrancyGuard, FeePayoutSupportV1, ModuleNamingSupportV1 {\n    /// @notice The minimum amount of time left in an auction after a new bid is created\n    uint16 constant TIME_BUFFER = 15 minutes;\n\n    /// @notice The minimum percentage difference between two bids\n    uint8 constant MIN_BID_INCREMENT_PERCENTAGE = 10;\n\n    /// @notice The ZORA ERC-721 Transfer Helper\n    ERC721TransferHelper public immutable erc721TransferHelper;\n\n    /// @notice The auction for a given NFT, if one exists\n    /// @dev ERC-721 token contract => ERC-721 token id => Auction\n    mapping(address => mapping(uint256 => Auction)) public auctionForNFT;\n\n    /// @notice The metadata for a given auction\n    /// @param seller The address of the seller\n    /// @param reservePrice The reserve price to start the auction\n    /// @param sellerFundsRecipient The address where funds are sent after the auction\n    /// @param highestBid The highest bid of the auction\n    /// @param highestBidder The address of the highest bidder\n    /// @param duration The length of time that the auction runs after the first bid is placed\n    /// @param startTime The time that the first bid can be placed\n    /// @param firstBidTime The time that the first bid is placed\n    struct Auction {\n        address seller;\n        uint96 reservePrice;\n        address sellerFundsRecipient;\n        uint96 highestBid;\n        address highestBidder;\n        uint32 duration;\n        uint32 startTime;\n        uint32 firstBidTime;\n    }\n\n    /// @notice Emitted when an auction is created\n    /// @param tokenContract The ERC-721 token address of the created auction\n    /// @param tokenId The ERC-721 token id of the created auction\n    /// @param auction The metadata of the created auction\n    event AuctionCreated(address indexed tokenContract, uint256 indexed tokenId, Auction auction);\n\n    /// @notice Emitted when a reserve price is updated\n    /// @param tokenContract The ERC-721 token address of the updated auction\n    /// @param tokenId The ERC-721 token id of the updated auction\n    /// @param auction The metadata of the updated auction\n    event AuctionReservePriceUpdated(address indexed tokenContract, uint256 indexed tokenId, Auction auction);\n\n    /// @notice Emitted when an auction is canceled\n    /// @param tokenContract The ERC-721 token address of the canceled auction\n    /// @param tokenId The ERC-721 token id of the canceled auction\n    /// @param auction The metadata of the canceled auction\n    event AuctionCanceled(address indexed tokenContract, uint256 indexed tokenId, Auction auction);\n\n    /// @notice Emitted when a bid is placed\n    /// @param tokenContract The ERC-721 token address of the auction\n    /// @param tokenId The ERC-721 token id of the auction\n    /// @param firstBid If the bid started the auction\n    /// @param extended If the bid extended the auction\n    /// @param auction The metadata of the auction\n    event AuctionBid(address indexed tokenContract, uint256 indexed tokenId, bool firstBid, bool extended, Auction auction);\n\n    /// @notice Emitted when an auction has ended\n    /// @param tokenContract The ERC-721 token address of the auction\n    /// @param tokenId The ERC-721 token id of the auction\n    /// @param auction The metadata of the settled auction\n    event AuctionEnded(address indexed tokenContract, uint256 indexed tokenId, Auction auction);\n\n    /// @param _erc721TransferHelper The ZORA ERC-721 Transfer Helper address\n    /// @param _royaltyEngine The Manifold Royalty Engine address\n    /// @param _protocolFeeSettings The ZORA Protocol Fee Settings address\n    /// @param _weth The WETH token address\n    constructor(\n        address _erc721TransferHelper,\n        address _royaltyEngine,\n        address _protocolFeeSettings,\n        address _weth\n    )\n        FeePayoutSupportV1(_royaltyEngine, _protocolFeeSettings, _weth, ERC721TransferHelper(_erc721TransferHelper).ZMM().registrar())\n        ModuleNamingSupportV1(\"Reserve Auction Core ETH\")\n    {\n        erc721TransferHelper = ERC721TransferHelper(_erc721TransferHelper);\n    }\n\n    /// @notice Implements EIP-165 for standard interface detection\n    /// @dev `0x01ffc9a7` is the IERC165 interface id\n    /// @param _interfaceId The identifier of a given interface\n    /// @return If the given interface is supported\n    function supportsInterface(bytes4 _interfaceId) external pure returns (bool) {\n        return _interfaceId == type(IReserveAuctionCoreEth).interfaceId || _interfaceId == 0x01ffc9a7;\n    }\n\n    //     ,-.\n    //     `-'\n    //     /|\\\n    //      |             ,---------------------.\n    //     / \\            |ReserveAuctionCoreEth|\n    //   Caller           `----------+----------'\n    //     |     createAuction()     |\n    //     | ----------------------->|\n    //     |                         |\n    //     |                         ----.\n    //     |                             | store auction metadata\n    //     |                         <---'\n    //     |                         |\n    //     |                         ----.\n    //     |                             | emit AuctionCreated()\n    //     |                         <---'\n    //   Caller           ,----------+----------.\n    //     ,-.            |ReserveAuctionCoreEth|\n    //     `-'            `---------------------'\n    //     /|\\\n    //      |\n    //     / \\\n    /// @notice Creates an auction for a given NFT\n    /// @param _tokenContract The address of the ERC-721 token\n    /// @param _tokenId The id of the ERC-721 token\n    /// @param _duration The length of time the auction should run after the first bid\n    /// @param _reservePrice The minimum bid amount to start the auction\n    /// @param _sellerFundsRecipient The address to send funds to once the auction is complete\n    /// @param _startTime The time that users can begin placing bids\n    function createAuction(\n        address _tokenContract,\n        uint256 _tokenId,\n        uint256 _duration,\n        uint256 _reservePrice,\n        address _sellerFundsRecipient,\n        uint256 _startTime\n    ) external nonReentrant {\n        // Get the owner of the specified token\n        address tokenOwner = IERC721(_tokenContract).ownerOf(_tokenId);\n\n        // Ensure the caller is the owner or an approved operator\n        require(msg.sender == tokenOwner || IERC721(_tokenContract).isApprovedForAll(tokenOwner, msg.sender), \"ONLY_TOKEN_OWNER_OR_OPERATOR\");\n\n        // Ensure the funds recipient is specified\n        require(_sellerFundsRecipient != address(0), \"INVALID_FUNDS_RECIPIENT\");\n\n        // Store the auction metadata\n        auctionForNFT[_tokenContract][_tokenId].seller = tokenOwner;\n        auctionForNFT[_tokenContract][_tokenId].reservePrice = uint96(_reservePrice);\n        auctionForNFT[_tokenContract][_tokenId].sellerFundsRecipient = _sellerFundsRecipient;\n        auctionForNFT[_tokenContract][_tokenId].duration = uint32(_duration);\n        auctionForNFT[_tokenContract][_tokenId].startTime = uint32(_startTime);\n\n        emit AuctionCreated(_tokenContract, _tokenId, auctionForNFT[_tokenContract][_tokenId]);\n    }\n\n    //     ,-.\n    //     `-'\n    //     /|\\\n    //      |             ,---------------------.\n    //     / \\            |ReserveAuctionCoreEth|\n    //   Caller           `----------+----------'\n    //     | setAuctionReservePrice()|\n    //     | ------------------------>\n    //     |                         |\n    //     |                         |----.\n    //     |                         |    | update reserve price\n    //     |                         |<---'\n    //     |                         |\n    //     |                         |----.\n    //     |                         |    | emit AuctionReservePriceUpdated()\n    //     |                         |<---'\n    //   Caller           ,----------+----------.\n    //     ,-.            |ReserveAuctionCoreEth|\n    //     `-'            `---------------------'\n    //     /|\\\n    //      |\n    //     / \\\n    /// @notice Updates the auction reserve price for a given NFT\n    /// @param _tokenContract The address of the ERC-721 token\n    /// @param _tokenId The id of the ERC-721 token\n    /// @param _reservePrice The new reserve price\n    function setAuctionReservePrice(\n        address _tokenContract,\n        uint256 _tokenId,\n        uint256 _reservePrice\n    ) external nonReentrant {\n        // Get the auction for the specified token\n        Auction storage auction = auctionForNFT[_tokenContract][_tokenId];\n\n        // Ensure the auction has not started\n        require(auction.firstBidTime == 0, \"AUCTION_STARTED\");\n\n        // Ensure the caller is the seller\n        require(msg.sender == auction.seller, \"ONLY_SELLER\");\n\n        // Update the reserve price\n        auction.reservePrice = uint96(_reservePrice);\n\n        emit AuctionReservePriceUpdated(_tokenContract, _tokenId, auction);\n    }\n\n    //     ,-.\n    //     `-'\n    //     /|\\\n    //      |             ,---------------------.\n    //     / \\            |ReserveAuctionCoreEth|\n    //   Caller           `----------+----------'\n    //     |     cancelAuction()     |\n    //     | ----------------------->|\n    //     |                         |\n    //     |                         ----.\n    //     |                             | emit AuctionCanceled()\n    //     |                         <---'\n    //     |                         |\n    //     |                         ----.\n    //     |                             | delete auction\n    //     |                         <---'\n    //   Caller           ,----------+----------.\n    //     ,-.            |ReserveAuctionCoreEth|\n    //     `-'            `---------------------'\n    //     /|\\\n    //      |\n    //     / \\\n    /// @notice Cancels the auction for a given NFT\n    /// @param _tokenContract The address of the ERC-721 token\n    /// @param _tokenId The id of the ERC-721 token\n    function cancelAuction(address _tokenContract, uint256 _tokenId) external nonReentrant {\n        // Get the auction for the specified token\n        Auction memory auction = auctionForNFT[_tokenContract][_tokenId];\n\n        // Ensure the auction has not started\n        require(auction.firstBidTime == 0, \"AUCTION_STARTED\");\n\n        // Ensure the caller is the seller or a new owner\n        require(msg.sender == auction.seller || msg.sender == IERC721(_tokenContract).ownerOf(_tokenId), \"ONLY_SELLER_OR_TOKEN_OWNER\");\n\n        emit AuctionCanceled(_tokenContract, _tokenId, auction);\n\n        // Remove the auction from storage\n        delete auctionForNFT[_tokenContract][_tokenId];\n    }\n\n    //     ,-.\n    //     `-'\n    //     /|\\\n    //      |             ,---------------------.          ,--------------------.\n    //     / \\            |ReserveAuctionCoreEth|          |ERC721TransferHelper|\n    //   Caller           `----------+----------'          `---------+----------'\n    //     |       createBid()       |                               |\n    //     | ----------------------->|                               |\n    //     |                         |                               |\n    //     |                         |                               |\n    //     |    __________________________________________________________________________________________________\n    //     |    ! ALT  /  First bid? |                               |                                            !\n    //     |    !_____/              |                               |                                            !\n    //     |    !                    ----.                           |                                            !\n    //     |    !                        | start auction             |                                            !\n    //     |    !                    <---'                           |                                            !\n    //     |    !                    |                               |                                            !\n    //     |    !                    |        transferFrom()         |                                            !\n    //     |    !                    |------------------------------>|                                            !\n    //     |    !                    |                               |                                            !\n    //     |    !                    |                               |----.                                       !\n    //     |    !                    |                               |    | transfer NFT from seller to escrow    !\n    //     |    !                    |                               |<---'                                       !\n    //     |    !~~~~~~~~~~~~~~~~~~~~~~~~~~~~~~~~~~~~~~~~~~~~~~~~~~~~~~~~~~~~~~~~~~~~~~~~~~~~~~~~~~~~~~~~~~~~~~~~~!\n    //     |    ! [refund previous bidder]                           |                                            !\n    //     |    !                    ----.                           |                                            !\n    //     |    !                        | transfer ETH to bidder    |                                            !\n    //     |    !                    <---'                           |                                            !\n    //     |    !~~~~~~~~~~~~~~~~~~~~~~~~~~~~~~~~~~~~~~~~~~~~~~~~~~~~~~~~~~~~~~~~~~~~~~~~~~~~~~~~~~~~~~~~~~~~~~~~~!\n    //     |                         |                               |\n    //     |                         |                               |\n    //     |    _____________________________________________        |\n    //     |    ! ALT  /  Bid placed within 15 min of end?   !       |\n    //     |    !_____/              |                       !       |\n    //     |    !                    ----.                   !       |\n    //     |    !                        | extend auction    !       |\n    //     |    !                    <---'                   !       |\n    //     |    !~~~~~~~~~~~~~~~~~~~~~~~~~~~~~~~~~~~~~~~~~~~~!       |\n    //     |    !~[noop]~~~~~~~~~~~~~~~~~~~~~~~~~~~~~~~~~~~~~!       |\n    //     |                         |                               |\n    //     |                         ----.                           |\n    //     |                             | emit AuctionBid()         |\n    //     |                         <---'                           |\n    //   Caller           ,----------+----------.          ,---------+----------.\n    //     ,-.            |ReserveAuctionCoreEth|          |ERC721TransferHelper|\n    //     `-'            `---------------------'          `--------------------'\n    //     /|\\\n    //      |\n    //     / \\\n    /// @notice Places a bid on the auction for a given NFT\n    /// @param _tokenContract The address of the ERC-721 token\n    /// @param _tokenId The id of the ERC-721 token\n    function createBid(address _tokenContract, uint256 _tokenId) external payable nonReentrant {\n        // Get the auction for the specified token\n        Auction storage auction = auctionForNFT[_tokenContract][_tokenId];\n\n        // Cache the seller\n        address seller = auction.seller;\n\n        // Ensure the auction exists\n        require(seller != address(0), \"AUCTION_DOES_NOT_EXIST\");\n\n        // Ensure the auction has started or is valid to start\n        require(block.timestamp >= auction.startTime, \"AUCTION_NOT_STARTED\");\n\n        // Cache more auction metadata\n        uint256 firstBidTime = auction.firstBidTime;\n        uint256 duration = auction.duration;\n\n        // Used to emit whether the bid started the auction\n        bool firstBid;\n\n        // If this is the first bid, start the auction\n        if (firstBidTime == 0) {\n            // Ensure the bid meets the reserve price\n            require(msg.value >= auction.reservePrice, \"RESERVE_PRICE_NOT_MET\");\n\n            // Store the current time as the first bid time\n            auction.firstBidTime = uint32(block.timestamp);\n\n            // Mark the bid as the first\n            firstBid = true;\n\n            // Transfer the NFT from the seller into escrow for the duration of the auction\n            // Reverts if the seller did not approve the ERC721TransferHelper or no longer owns the token\n            erc721TransferHelper.transferFrom(_tokenContract, seller, address(this), _tokenId);\n\n            // Else this is a subsequent bid, so refund the previous bidder\n        } else {\n            // Ensure the auction has not ended\n            require(block.timestamp < (firstBidTime + duration), \"AUCTION_OVER\");\n\n            // Cache the highest bid\n            uint256 highestBid = auction.highestBid;\n\n            // Used to store the minimum bid required to outbid the highest bidder\n            uint256 minValidBid;\n\n            // Calculate the minimum bid required (10% higher than the highest bid)\n            // Cannot overflow as the highest bid would have to be magnitudes higher than the total supply of ETH\n            unchecked {\n                minValidBid = highestBid + ((highestBid * MIN_BID_INCREMENT_PERCENTAGE) / 100);\n            }\n\n            // Ensure the incoming bid meets the minimum\n            require(msg.value >= minValidBid, \"MINIMUM_BID_NOT_MET\");\n\n            // Refund the previous bidder\n            _handleOutgoingTransfer(auction.highestBidder, highestBid, address(0), 50000);\n        }\n\n        // Store the attached ETH as the highest bid\n        auction.highestBid = uint96(msg.value);\n\n        // Store the caller as the highest bidder\n        auction.highestBidder = msg.sender;\n\n        // Used to emit whether the bid extended the auction\n        bool extended;\n\n        // Used to store the auction time remaining\n        uint256 timeRemaining;\n\n        // Get the auction time remaining\n        // Cannot underflow as `firstBidTime + duration` is ensured to be greater than `block.timestamp`\n        unchecked {\n            timeRemaining = firstBidTime + duration - block.timestamp;\n        }\n\n        // If the bid is placed within 15 minutes of the auction end, extend the auction\n        if (timeRemaining < TIME_BUFFER) {\n            // Add (15 minutes - remaining time) to the duration so that 15 minutes remain\n            // Cannot underflow as `timeRemaining` is ensured to be less than `TIME_BUFFER`\n            unchecked {\n                auction.duration += uint32(TIME_BUFFER - timeRemaining);\n            }\n\n            // Mark the bid as one that extended the auction\n            extended = true;\n        }\n\n        emit AuctionBid(_tokenContract, _tokenId, firstBid, extended, auction);\n    }\n\n    //     ,-.\n    //     `-'\n    //     /|\\\n    //      |             ,---------------------.\n    //     / \\            |ReserveAuctionCoreEth|\n    //   Caller           `----------+----------'\n    //     |     settleAuction()     |\n    //     | ----------------------->|\n    //     |                         |\n    //     |                         ----.\n    //     |                             | validate auction ended\n    //     |                         <---'\n    //     |                         |\n    //     |                         ----.\n    //     |                             | handle royalty payouts\n    //     |                         <---'\n    //     |                         |\n    //     |                         ----.\n    //     |                             | handle seller funds recipient payout\n    //     |                         <---'\n    //     |                         |\n    //     |                         ----.\n    //     |                             | transfer NFT from escrow to winning bidder\n    //     |                         <---'\n    //     |                         |\n    //     |                         ----.\n    //     |                             | emit AuctionEnded()\n    //     |                         <---'\n    //     |                         |\n    //     |                         ----.\n    //     |                             | delete auction from contract\n    //     |                         <---'\n    //   Caller           ,----------+----------.\n    //     ,-.            |ReserveAuctionCoreEth|\n    //     `-'            `---------------------'\n    //     /|\\\n    //      |\n    //     / \\\n    /// @notice Ends the auction for a given NFT\n    /// @param _tokenContract The address of the ERC-721 token\n    /// @param _tokenId The id of the ERC-721 token\n    function settleAuction(address _tokenContract, uint256 _tokenId) external nonReentrant {\n        // Get the auction for the specified token\n        Auction memory auction = auctionForNFT[_tokenContract][_tokenId];\n\n        // Cache the time of the first bid\n        uint256 firstBidTime = auction.firstBidTime;\n\n        // Ensure the auction had started\n        require(firstBidTime != 0, \"AUCTION_NOT_STARTED\");\n\n        // Ensure the auction has ended\n        require(block.timestamp >= (firstBidTime + auction.duration), \"AUCTION_NOT_OVER\");\n\n        // Payout associated token royalties, if any\n        (uint256 remainingProfit, ) = _handleRoyaltyPayout(_tokenContract, _tokenId, auction.highestBid, address(0), 300000);\n\n        // Payout the module fee, if configured by the owner\n        remainingProfit = _handleProtocolFeePayout(remainingProfit, address(0));\n\n        // Transfer the remaining profit to the funds recipient\n        _handleOutgoingTransfer(auction.sellerFundsRecipient, remainingProfit, address(0), 50000);\n\n        // Transfer the NFT to the winning bidder\n        IERC721(_tokenContract).transferFrom(address(this), auction.highestBidder, _tokenId);\n\n        emit AuctionEnded(_tokenContract, _tokenId, auction);\n\n        // Remove the auction from storage\n        delete auctionForNFT[_tokenContract][_tokenId];\n    }\n}\n",
  "sourcePath": "/Users/ds/Documents/rarible/scripts/contracts/modules/ReserveAuction/Core/ETH/ReserveAuctionCoreEth.sol",
  "compiler": {
    "name": "solc",
    "version": "0.8.10+commit.fc410830.Emscripten.clang"
  },
  "schemaVersion": "3.4.3",
  "updatedAt": "2022-04-04T14:37:20.205Z",
  "devdoc": {
    "author": "kulkarohan",
    "events": {
      "AuctionBid(address,uint256,bool,bool,(address,uint96,address,uint96,address,uint32,uint32,uint32))": {
        "params": {
          "auction": "The metadata of the auction",
          "extended": "If the bid extended the auction",
          "firstBid": "If the bid started the auction",
          "tokenContract": "The ERC-721 token address of the auction",
          "tokenId": "The ERC-721 token id of the auction"
        }
      },
      "AuctionCanceled(address,uint256,(address,uint96,address,uint96,address,uint32,uint32,uint32))": {
        "params": {
          "auction": "The metadata of the canceled auction",
          "tokenContract": "The ERC-721 token address of the canceled auction",
          "tokenId": "The ERC-721 token id of the canceled auction"
        }
      },
      "AuctionCreated(address,uint256,(address,uint96,address,uint96,address,uint32,uint32,uint32))": {
        "params": {
          "auction": "The metadata of the created auction",
          "tokenContract": "The ERC-721 token address of the created auction",
          "tokenId": "The ERC-721 token id of the created auction"
        }
      },
      "AuctionEnded(address,uint256,(address,uint96,address,uint96,address,uint32,uint32,uint32))": {
        "params": {
          "auction": "The metadata of the settled auction",
          "tokenContract": "The ERC-721 token address of the auction",
          "tokenId": "The ERC-721 token id of the auction"
        }
      },
      "AuctionReservePriceUpdated(address,uint256,(address,uint96,address,uint96,address,uint32,uint32,uint32))": {
        "params": {
          "auction": "The metadata of the updated auction",
          "tokenContract": "The ERC-721 token address of the updated auction",
          "tokenId": "The ERC-721 token id of the updated auction"
        }
      }
    },
    "kind": "dev",
    "methods": {
      "_handleRoyaltyEnginePayout(address,uint256,uint256,address)": {
        "details": "This method is external to enable setting a gas limit when called - see `_handleRoyaltyPayout`.",
        "params": {
          "_amount": "The total sale amount",
          "_payoutCurrency": "The ERC-20 token address to payout royalties in, or address(0) for ETH",
          "_tokenContract": "The NFT Contract to get royalty information from",
          "_tokenId": ", The Token ID to get royalty information from"
        },
        "returns": {
          "_0": "The remaining funds after paying out royalties"
        }
      },
      "cancelAuction(address,uint256)": {
        "params": {
          "_tokenContract": "The address of the ERC-721 token",
          "_tokenId": "The id of the ERC-721 token"
        }
      },
      "constructor": {
        "params": {
          "_erc721TransferHelper": "The ZORA ERC-721 Transfer Helper address",
          "_protocolFeeSettings": "The ZORA Protocol Fee Settings address",
          "_royaltyEngine": "The Manifold Royalty Engine address",
          "_weth": "The WETH token address"
        }
      },
      "createAuction(address,uint256,uint256,uint256,address,uint256)": {
        "params": {
          "_duration": "The length of time the auction should run after the first bid",
          "_reservePrice": "The minimum bid amount to start the auction",
          "_sellerFundsRecipient": "The address to send funds to once the auction is complete",
          "_startTime": "The time that users can begin placing bids",
          "_tokenContract": "The address of the ERC-721 token",
          "_tokenId": "The id of the ERC-721 token"
        }
      },
      "createBid(address,uint256)": {
        "params": {
          "_tokenContract": "The address of the ERC-721 token",
          "_tokenId": "The id of the ERC-721 token"
        }
      },
      "setAuctionReservePrice(address,uint256,uint256)": {
        "params": {
          "_reservePrice": "The new reserve price",
          "_tokenContract": "The address of the ERC-721 token",
          "_tokenId": "The id of the ERC-721 token"
        }
      },
      "setRoyaltyEngineAddress(address)": {
        "details": "emergency use only  requires a frozen RoyaltyEngineV1 at commit 4ae77a73a8a73a79d628352d206fadae7f8e0f74  to be deployed elsewhere, or a contract matching that ABI",
        "params": {
          "_royaltyEngine": "The address for the new royalty engine"
        }
      },
      "settleAuction(address,uint256)": {
        "params": {
          "_tokenContract": "The address of the ERC-721 token",
          "_tokenId": "The id of the ERC-721 token"
        }
      },
      "supportsInterface(bytes4)": {
        "details": "`0x01ffc9a7` is the IERC165 interface id",
        "params": {
          "_interfaceId": "The identifier of a given interface"
        },
        "returns": {
          "_0": "If the given interface is supported"
        }
      }
    },
    "stateVariables": {
      "auctionForNFT": {
        "details": "ERC-721 token contract => ERC-721 token id => Auction"
      }
    },
    "title": "Reserve Auction Core ETH",
    "version": 1
  },
  "userdoc": {
    "events": {
      "AuctionBid(address,uint256,bool,bool,(address,uint96,address,uint96,address,uint32,uint32,uint32))": {
        "notice": "Emitted when a bid is placed"
      },
      "AuctionCanceled(address,uint256,(address,uint96,address,uint96,address,uint32,uint32,uint32))": {
        "notice": "Emitted when an auction is canceled"
      },
      "AuctionCreated(address,uint256,(address,uint96,address,uint96,address,uint32,uint32,uint32))": {
        "notice": "Emitted when an auction is created"
      },
      "AuctionEnded(address,uint256,(address,uint96,address,uint96,address,uint32,uint32,uint32))": {
        "notice": "Emitted when an auction has ended"
      },
      "AuctionReservePriceUpdated(address,uint256,(address,uint96,address,uint96,address,uint32,uint32,uint32))": {
        "notice": "Emitted when a reserve price is updated"
      },
      "RoyaltyPayout(address,uint256,address,uint256)": {
        "notice": "Emitted when royalties are paid"
      }
    },
    "kind": "user",
    "methods": {
      "_handleRoyaltyEnginePayout(address,uint256,uint256,address)": {
        "notice": "Pays out royalties for NFTs based on the information returned by the royalty engine"
      },
      "auctionForNFT(address,uint256)": {
        "notice": "The auction for a given NFT, if one exists"
      },
      "cancelAuction(address,uint256)": {
        "notice": "Cancels the auction for a given NFT"
      },
      "createAuction(address,uint256,uint256,uint256,address,uint256)": {
        "notice": "Creates an auction for a given NFT"
      },
      "createBid(address,uint256)": {
        "notice": "Places a bid on the auction for a given NFT"
      },
      "erc721TransferHelper()": {
        "notice": "The ZORA ERC-721 Transfer Helper"
      },
      "name()": {
        "notice": "The module name"
      },
      "registrar()": {
        "notice": "The ZORA Module Registrar"
      },
      "setAuctionReservePrice(address,uint256,uint256)": {
        "notice": "Updates the auction reserve price for a given NFT"
      },
      "setRoyaltyEngineAddress(address)": {
        "notice": "Update the address of the Royalty Engine, in case of unexpected update on Manifold's Proxy"
      },
      "settleAuction(address,uint256)": {
        "notice": "Ends the auction for a given NFT"
      },
      "supportsInterface(bytes4)": {
        "notice": "Implements EIP-165 for standard interface detection"
      }
    },
    "notice": "Module for minimal ETH timed reserve auctions for ERC-721 tokens",
    "version": 1
  }
}