{
  "contractName": "TestERC1155",
  "abi": [
    {
      "inputs": [],
      "stateMutability": "nonpayable",
      "type": "constructor"
    },
    {
      "anonymous": false,
      "inputs": [
        {
          "indexed": true,
          "internalType": "address",
          "name": "account",
          "type": "address"
        },
        {
          "indexed": true,
          "internalType": "address",
          "name": "operator",
          "type": "address"
        },
        {
          "indexed": false,
          "internalType": "bool",
          "name": "approved",
          "type": "bool"
        }
      ],
      "name": "ApprovalForAll",
      "type": "event"
    },
    {
      "anonymous": false,
      "inputs": [
        {
          "indexed": true,
          "internalType": "address",
          "name": "operator",
          "type": "address"
        },
        {
          "indexed": true,
          "internalType": "address",
          "name": "from",
          "type": "address"
        },
        {
          "indexed": true,
          "internalType": "address",
          "name": "to",
          "type": "address"
        },
        {
          "indexed": false,
          "internalType": "uint256[]",
          "name": "ids",
          "type": "uint256[]"
        },
        {
          "indexed": false,
          "internalType": "uint256[]",
          "name": "values",
          "type": "uint256[]"
        }
      ],
      "name": "TransferBatch",
      "type": "event"
    },
    {
      "anonymous": false,
      "inputs": [
        {
          "indexed": true,
          "internalType": "address",
          "name": "operator",
          "type": "address"
        },
        {
          "indexed": true,
          "internalType": "address",
          "name": "from",
          "type": "address"
        },
        {
          "indexed": true,
          "internalType": "address",
          "name": "to",
          "type": "address"
        },
        {
          "indexed": false,
          "internalType": "uint256",
          "name": "id",
          "type": "uint256"
        },
        {
          "indexed": false,
          "internalType": "uint256",
          "name": "value",
          "type": "uint256"
        }
      ],
      "name": "TransferSingle",
      "type": "event"
    },
    {
      "anonymous": false,
      "inputs": [
        {
          "indexed": false,
          "internalType": "string",
          "name": "value",
          "type": "string"
        },
        {
          "indexed": true,
          "internalType": "uint256",
          "name": "id",
          "type": "uint256"
        }
      ],
      "name": "URI",
      "type": "event"
    },
    {
      "inputs": [
        {
          "internalType": "address",
          "name": "account",
          "type": "address"
        },
        {
          "internalType": "uint256",
          "name": "id",
          "type": "uint256"
        }
      ],
      "name": "balanceOf",
      "outputs": [
        {
          "internalType": "uint256",
          "name": "",
          "type": "uint256"
        }
      ],
      "stateMutability": "view",
      "type": "function"
    },
    {
      "inputs": [
        {
          "internalType": "address[]",
          "name": "accounts",
          "type": "address[]"
        },
        {
          "internalType": "uint256[]",
          "name": "ids",
          "type": "uint256[]"
        }
      ],
      "name": "balanceOfBatch",
      "outputs": [
        {
          "internalType": "uint256[]",
          "name": "",
          "type": "uint256[]"
        }
      ],
      "stateMutability": "view",
      "type": "function"
    },
    {
      "inputs": [
        {
          "internalType": "address",
          "name": "account",
          "type": "address"
        },
        {
          "internalType": "address",
          "name": "operator",
          "type": "address"
        }
      ],
      "name": "isApprovedForAll",
      "outputs": [
        {
          "internalType": "bool",
          "name": "",
          "type": "bool"
        }
      ],
      "stateMutability": "view",
      "type": "function"
    },
    {
      "inputs": [
        {
          "internalType": "address",
          "name": "from",
          "type": "address"
        },
        {
          "internalType": "address",
          "name": "to",
          "type": "address"
        },
        {
          "internalType": "uint256[]",
          "name": "ids",
          "type": "uint256[]"
        },
        {
          "internalType": "uint256[]",
          "name": "amounts",
          "type": "uint256[]"
        },
        {
          "internalType": "bytes",
          "name": "data",
          "type": "bytes"
        }
      ],
      "name": "safeBatchTransferFrom",
      "outputs": [],
      "stateMutability": "nonpayable",
      "type": "function"
    },
    {
      "inputs": [
        {
          "internalType": "address",
          "name": "from",
          "type": "address"
        },
        {
          "internalType": "address",
          "name": "to",
          "type": "address"
        },
        {
          "internalType": "uint256",
          "name": "id",
          "type": "uint256"
        },
        {
          "internalType": "uint256",
          "name": "amount",
          "type": "uint256"
        },
        {
          "internalType": "bytes",
          "name": "data",
          "type": "bytes"
        }
      ],
      "name": "safeTransferFrom",
      "outputs": [],
      "stateMutability": "nonpayable",
      "type": "function"
    },
    {
      "inputs": [
        {
          "internalType": "address",
          "name": "operator",
          "type": "address"
        },
        {
          "internalType": "bool",
          "name": "approved",
          "type": "bool"
        }
      ],
      "name": "setApprovalForAll",
      "outputs": [],
      "stateMutability": "nonpayable",
      "type": "function"
    },
    {
      "inputs": [
        {
          "internalType": "bytes4",
          "name": "interfaceId",
          "type": "bytes4"
        }
      ],
      "name": "supportsInterface",
      "outputs": [
        {
          "internalType": "bool",
          "name": "",
          "type": "bool"
        }
      ],
      "stateMutability": "view",
      "type": "function"
    },
    {
      "inputs": [
        {
          "internalType": "uint256",
          "name": "",
          "type": "uint256"
        }
      ],
      "name": "uri",
      "outputs": [
        {
          "internalType": "string",
          "name": "",
          "type": "string"
        }
      ],
      "stateMutability": "view",
      "type": "function"
    },
    {
      "inputs": [
        {
          "internalType": "address",
          "name": "_to",
          "type": "address"
        },
        {
          "internalType": "uint256",
          "name": "_tokenId",
          "type": "uint256"
        },
        {
          "internalType": "uint256",
          "name": "_amount",
          "type": "uint256"
        }
      ],
      "name": "mint",
      "outputs": [],
      "stateMutability": "nonpayable",
      "type": "function"
    },
    {
      "inputs": [
        {
          "internalType": "address",
          "name": "_to",
          "type": "address"
        },
        {
          "internalType": "uint256[]",
          "name": "_tokenIds",
          "type": "uint256[]"
        },
        {
          "internalType": "uint256[]",
          "name": "_amounts",
          "type": "uint256[]"
        }
      ],
      "name": "mintBatch",
      "outputs": [],
      "stateMutability": "nonpayable",
      "type": "function"
    }
  ],
  "bytecode": "0x60806040523480156200001157600080fd5b506040805160208101909152600081526200002c8162000033565b506200012f565b8051620000489060029060208401906200004c565b5050565b8280546200005a90620000f2565b90600052602060002090601f0160209004810192826200007e5760008555620000c9565b82601f106200009957805160ff1916838001178555620000c9565b82800160010185558215620000c9579182015b82811115620000c9578251825591602001919060010190620000ac565b50620000d7929150620000db565b5090565b5b80821115620000d75760008155600101620000dc565b600181811c908216806200010757607f821691505b602082108114156200012957634e487b7160e01b600052602260045260246000fd5b50919050565b611738806200013f6000396000f3fe608060405234801561001057600080fd5b506004361061009d5760003560e01c80634e1273f4116100665780634e1273f414610133578063a22cb46514610153578063d81d0a1514610166578063e985e9c514610179578063f242432a146101b557600080fd5b8062fdd58e146100a257806301ffc9a7146100c85780630e89341c146100eb578063156e29f61461010b5780632eb2c2d614610120575b600080fd5b6100b56100b0366004610e0a565b6101c8565b6040519081526020015b60405180910390f35b6100db6100d6366004610e4d565b61025f565b60405190151581526020016100bf565b6100fe6100f9366004610e71565b6102b1565b6040516100bf9190610ed7565b61011e610119366004610eea565b610345565b005b61011e61012e366004611069565b610365565b610146610141366004611113565b6103fc565b6040516100bf9190611219565b61011e61016136600461122c565b610526565b61011e610174366004611268565b610535565b6100db6101873660046112dc565b6001600160a01b03918216600090815260016020908152604080832093909416825291909152205460ff1690565b61011e6101c336600461130f565b610550565b60006001600160a01b0383166102395760405162461bcd60e51b815260206004820152602b60248201527f455243313135353a2062616c616e636520717565727920666f7220746865207a60448201526a65726f206164647265737360a81b60648201526084015b60405180910390fd5b506000908152602081815260408083206001600160a01b03949094168352929052205490565b60006001600160e01b03198216636cdb3d1360e11b148061029057506001600160e01b031982166303a24d0760e21b145b806102ab57506301ffc9a760e01b6001600160e01b03198316145b92915050565b6060600280546102c090611374565b80601f01602080910402602001604051908101604052809291908181526020018280546102ec90611374565b80156103395780601f1061030e57610100808354040283529160200191610339565b820191906000526020600020905b81548152906001019060200180831161031c57829003601f168201915b50505050509050919050565b610360838383604051806020016040528060008152506105d7565b505050565b6001600160a01b03851633148061038157506103818533610187565b6103e85760405162461bcd60e51b815260206004820152603260248201527f455243313135353a207472616e736665722063616c6c6572206973206e6f74206044820152711bdddb995c881b9bdc88185c1c1c9bdd995960721b6064820152608401610230565b6103f585858585856106a7565b5050505050565b606081518351146104615760405162461bcd60e51b815260206004820152602960248201527f455243313135353a206163636f756e747320616e6420696473206c656e677468604482015268040dad2e6dac2e8c6d60bb1b6064820152608401610230565b6000835167ffffffffffffffff81111561047d5761047d610f1d565b6040519080825280602002602001820160405280156104a6578160200160208202803683370190505b50905060005b845181101561051e576104f18582815181106104ca576104ca6113af565b60200260200101518583815181106104e4576104e46113af565b60200260200101516101c8565b828281518110610503576105036113af565b6020908102919091010152610517816113db565b90506104ac565b509392505050565b610531338383610843565b5050565b61036083838360405180602001604052806000815250610924565b6001600160a01b03851633148061056c575061056c8533610187565b6105ca5760405162461bcd60e51b815260206004820152602960248201527f455243313135353a2063616c6c6572206973206e6f74206f776e6572206e6f7260448201526808185c1c1c9bdd995960ba1b6064820152608401610230565b6103f58585858585610a6f565b6001600160a01b0384166105fd5760405162461bcd60e51b8152600401610230906113f6565b336106178160008761060e88610b8c565b6103f588610b8c565b6000848152602081815260408083206001600160a01b038916845290915281208054859290610647908490611437565b909155505060408051858152602081018590526001600160a01b0380881692600092918516917fc3d58168c5ae7397731d063d5bbf3d657854427343f4c083240f7aacaa2d0f62910160405180910390a46103f581600087878787610bd7565b81518351146106c85760405162461bcd60e51b81526004016102309061144f565b6001600160a01b0384166106ee5760405162461bcd60e51b815260040161023090611497565b3360005b84518110156107d557600085828151811061070f5761070f6113af565b60200260200101519050600085838151811061072d5761072d6113af565b602090810291909101810151600084815280835260408082206001600160a01b038e16835290935291909120549091508181101561077d5760405162461bcd60e51b8152600401610230906114dc565b6000838152602081815260408083206001600160a01b038e8116855292528083208585039055908b168252812080548492906107ba908490611437565b92505081905550505050806107ce906113db565b90506106f2565b50846001600160a01b0316866001600160a01b0316826001600160a01b03167f4a39dc06d4c0dbc64b70af90fd698a233a518aa5d07e595d983b8c0526c8f7fb8787604051610825929190611526565b60405180910390a461083b818787878787610d33565b505050505050565b816001600160a01b0316836001600160a01b031614156108b75760405162461bcd60e51b815260206004820152602960248201527f455243313135353a2073657474696e6720617070726f76616c20737461747573604482015268103337b91039b2b63360b91b6064820152608401610230565b6001600160a01b03838116600081815260016020908152604080832094871680845294825291829020805460ff191686151590811790915591519182527f17307eab39ab6107e8899845ad3d59bd9653f200f220920489ca2b5937696c31910160405180910390a3505050565b6001600160a01b03841661094a5760405162461bcd60e51b8152600401610230906113f6565b815183511461096b5760405162461bcd60e51b81526004016102309061144f565b3360005b8451811015610a075783818151811061098a5761098a6113af565b60200260200101516000808784815181106109a7576109a76113af565b602002602001015181526020019081526020016000206000886001600160a01b03166001600160a01b0316815260200190815260200160002060008282546109ef9190611437565b909155508190506109ff816113db565b91505061096f565b50846001600160a01b031660006001600160a01b0316826001600160a01b03167f4a39dc06d4c0dbc64b70af90fd698a233a518aa5d07e595d983b8c0526c8f7fb8787604051610a58929190611526565b60405180910390a46103f581600087878787610d33565b6001600160a01b038416610a955760405162461bcd60e51b815260040161023090611497565b33610aa581878761060e88610b8c565b6000848152602081815260408083206001600160a01b038a16845290915290205483811015610ae65760405162461bcd60e51b8152600401610230906114dc565b6000858152602081815260408083206001600160a01b038b8116855292528083208785039055908816825281208054869290610b23908490611437565b909155505060408051868152602081018690526001600160a01b03808916928a821692918616917fc3d58168c5ae7397731d063d5bbf3d657854427343f4c083240f7aacaa2d0f62910160405180910390a4610b83828888888888610bd7565b50505050505050565b60408051600180825281830190925260609160009190602080830190803683370190505090508281600081518110610bc657610bc66113af565b602090810291909101015292915050565b6001600160a01b0384163b1561083b5760405163f23a6e6160e01b81526001600160a01b0385169063f23a6e6190610c1b9089908990889088908890600401611554565b6020604051808303816000875af1925050508015610c56575060408051601f3d908101601f19168201909252610c5391810190611599565b60015b610d0357610c626115b6565b806308c379a01415610c9c5750610c776115d2565b80610c825750610c9e565b8060405162461bcd60e51b81526004016102309190610ed7565b505b60405162461bcd60e51b815260206004820152603460248201527f455243313135353a207472616e7366657220746f206e6f6e20455243313135356044820152732932b1b2b4bb32b91034b6b83632b6b2b73a32b960611b6064820152608401610230565b6001600160e01b0319811663f23a6e6160e01b14610b835760405162461bcd60e51b81526004016102309061165c565b6001600160a01b0384163b1561083b5760405163bc197c8160e01b81526001600160a01b0385169063bc197c8190610d7790899089908890889088906004016116a4565b6020604051808303816000875af1925050508015610db2575060408051601f3d908101601f19168201909252610daf91810190611599565b60015b610dbe57610c626115b6565b6001600160e01b0319811663bc197c8160e01b14610b835760405162461bcd60e51b81526004016102309061165c565b80356001600160a01b0381168114610e0557600080fd5b919050565b60008060408385031215610e1d57600080fd5b610e2683610dee565b946020939093013593505050565b6001600160e01b031981168114610e4a57600080fd5b50565b600060208284031215610e5f57600080fd5b8135610e6a81610e34565b9392505050565b600060208284031215610e8357600080fd5b5035919050565b6000815180845260005b81811015610eb057602081850181015186830182015201610e94565b81811115610ec2576000602083870101525b50601f01601f19169290920160200192915050565b602081526000610e6a6020830184610e8a565b600080600060608486031215610eff57600080fd5b610f0884610dee565b95602085013595506040909401359392505050565b634e487b7160e01b600052604160045260246000fd5b601f8201601f1916810167ffffffffffffffff81118282101715610f5957610f59610f1d565b6040525050565b600067ffffffffffffffff821115610f7a57610f7a610f1d565b5060051b60200190565b600082601f830112610f9557600080fd5b81356020610fa282610f60565b604051610faf8282610f33565b83815260059390931b8501820192828101915086841115610fcf57600080fd5b8286015b84811015610fea5780358352918301918301610fd3565b509695505050505050565b600082601f83011261100657600080fd5b813567ffffffffffffffff81111561102057611020610f1d565b604051611037601f8301601f191660200182610f33565b81815284602083860101111561104c57600080fd5b816020850160208301376000918101602001919091529392505050565b600080600080600060a0868803121561108157600080fd5b61108a86610dee565b945061109860208701610dee565b9350604086013567ffffffffffffffff808211156110b557600080fd5b6110c189838a01610f84565b945060608801359150808211156110d757600080fd5b6110e389838a01610f84565b935060808801359150808211156110f957600080fd5b5061110688828901610ff5565b9150509295509295909350565b6000806040838503121561112657600080fd5b823567ffffffffffffffff8082111561113e57600080fd5b818501915085601f83011261115257600080fd5b8135602061115f82610f60565b60405161116c8282610f33565b83815260059390931b850182019282810191508984111561118c57600080fd5b948201945b838610156111b1576111a286610dee565b82529482019490820190611191565b965050860135925050808211156111c757600080fd5b506111d485828601610f84565b9150509250929050565b600081518084526020808501945080840160005b8381101561120e578151875295820195908201906001016111f2565b509495945050505050565b602081526000610e6a60208301846111de565b6000806040838503121561123f57600080fd5b61124883610dee565b91506020830135801515811461125d57600080fd5b809150509250929050565b60008060006060848603121561127d57600080fd5b61128684610dee565b9250602084013567ffffffffffffffff808211156112a357600080fd5b6112af87838801610f84565b935060408601359150808211156112c557600080fd5b506112d286828701610f84565b9150509250925092565b600080604083850312156112ef57600080fd5b6112f883610dee565b915061130660208401610dee565b90509250929050565b600080600080600060a0868803121561132757600080fd5b61133086610dee565b945061133e60208701610dee565b93506040860135925060608601359150608086013567ffffffffffffffff81111561136857600080fd5b61110688828901610ff5565b600181811c9082168061138857607f821691505b602082108114156113a957634e487b7160e01b600052602260045260246000fd5b50919050565b634e487b7160e01b600052603260045260246000fd5b634e487b7160e01b600052601160045260246000fd5b60006000198214156113ef576113ef6113c5565b5060010190565b60208082526021908201527f455243313135353a206d696e7420746f20746865207a65726f206164647265736040820152607360f81b606082015260800190565b6000821982111561144a5761144a6113c5565b500190565b60208082526028908201527f455243313135353a2069647320616e6420616d6f756e7473206c656e677468206040820152670dad2e6dac2e8c6d60c31b606082015260800190565b60208082526025908201527f455243313135353a207472616e7366657220746f20746865207a65726f206164604082015264647265737360d81b606082015260800190565b6020808252602a908201527f455243313135353a20696e73756666696369656e742062616c616e636520666f60408201526939103a3930b739b332b960b11b606082015260800190565b60408152600061153960408301856111de565b828103602084015261154b81856111de565b95945050505050565b6001600160a01b03868116825285166020820152604081018490526060810183905260a06080820181905260009061158e90830184610e8a565b979650505050505050565b6000602082840312156115ab57600080fd5b8151610e6a81610e34565b600060033d11156115cf5760046000803e5060005160e01c5b90565b600060443d10156115e05790565b6040516003193d81016004833e81513d67ffffffffffffffff816024840111818411171561161057505050505090565b82850191508151818111156116285750505050505090565b843d87010160208285010111156116425750505050505090565b61165160208286010187610f33565b509095945050505050565b60208082526028908201527f455243313135353a204552433131353552656365697665722072656a656374656040820152676420746f6b656e7360c01b606082015260800190565b6001600160a01b0386811682528516602082015260a0604082018190526000906116d0908301866111de565b82810360608401526116e281866111de565b905082810360808401526116f68185610e8a565b9897505050505050505056fea26469706673582212200485cf0a073e86a22479e78ff96ff2129e706e5e7411aaddbee2e2108714437164736f6c634300080a0033",
  "immutableReferences": {},
  "source": "// SPDX-License-Identifier: GPL-3.0\npragma solidity 0.8.10;\n\nimport \"@openzeppelin/contracts/token/ERC1155/ERC1155.sol\";\n\n/// @title TestERC1155\n/// @notice FOR TEST PURPOSES ONLY.\ncontract TestERC1155 is ERC1155 {\n    constructor() ERC1155(\"\") {}\n\n    function mint(\n        address _to,\n        uint256 _tokenId,\n        uint256 _amount\n    ) public {\n        _mint(_to, _tokenId, _amount, \"\");\n    }\n\n    function mintBatch(\n        address _to,\n        uint256[] memory _tokenIds,\n        uint256[] memory _amounts\n    ) public {\n        _mintBatch(_to, _tokenIds, _amounts, \"\");\n    }\n}\n",
  "sourcePath": "/Users/ds/Documents/rarible/scripts/contracts/asd/utils/tokens/TestERC1155.sol",
  "compiler": {
    "name": "solc",
    "version": "0.8.10+commit.fc410830.Emscripten.clang"
  },
  "schemaVersion": "3.4.3",
  "updatedAt": "2022-04-04T14:37:20.099Z",
  "devdoc": {
    "kind": "dev",
    "methods": {
      "balanceOf(address,uint256)": {
        "details": "See {IERC1155-balanceOf}. Requirements: - `account` cannot be the zero address."
      },
      "balanceOfBatch(address[],uint256[])": {
        "details": "See {IERC1155-balanceOfBatch}. Requirements: - `accounts` and `ids` must have the same length."
      },
      "isApprovedForAll(address,address)": {
        "details": "See {IERC1155-isApprovedForAll}."
      },
      "safeBatchTransferFrom(address,address,uint256[],uint256[],bytes)": {
        "details": "See {IERC1155-safeBatchTransferFrom}."
      },
      "safeTransferFrom(address,address,uint256,uint256,bytes)": {
        "details": "See {IERC1155-safeTransferFrom}."
      },
      "setApprovalForAll(address,bool)": {
        "details": "See {IERC1155-setApprovalForAll}."
      },
      "supportsInterface(bytes4)": {
        "details": "See {IERC165-supportsInterface}."
      },
      "uri(uint256)": {
        "details": "See {IERC1155MetadataURI-uri}. This implementation returns the same URI for *all* token types. It relies on the token type ID substitution mechanism https://eips.ethereum.org/EIPS/eip-1155#metadata[defined in the EIP]. Clients calling this function must replace the `\\{id\\}` substring with the actual token type ID."
      }
    },
    "title": "TestERC1155",
    "version": 1
  },
  "userdoc": {
    "kind": "user",
    "methods": {},
    "notice": "FOR TEST PURPOSES ONLY.",
    "version": 1
  }
}