{
  "contractName": "ZoraRegistrar",
  "abi": [
    {
      "inputs": [
        {
          "internalType": "contract ZoraModuleManager",
          "name": "_ZMM",
          "type": "address"
        }
      ],
      "name": "init",
      "outputs": [],
      "stateMutability": "nonpayable",
      "type": "function"
    },
    {
      "inputs": [
        {
          "internalType": "address",
          "name": "_module",
          "type": "address"
        }
      ],
      "name": "registerModule",
      "outputs": [],
      "stateMutability": "nonpayable",
      "type": "function"
    },
    {
      "inputs": [
        {
          "internalType": "address",
          "name": "_registrar",
          "type": "address"
        }
      ],
      "name": "setRegistrar",
      "outputs": [],
      "stateMutability": "nonpayable",
      "type": "function"
    }
  ],
  "bytecode": "0x608060405234801561001057600080fd5b506101a5806100206000396000f3fe608060405234801561001057600080fd5b50600436106100415760003560e01c806319ab453c14610046578063ad64ae4b14610078578063faab9d391461008b575b600080fd5b61007661005436600461014b565b600080546001600160a01b0319166001600160a01b0392909216919091179055565b005b61007661008636600461014b565b61009e565b61007661009936600461014b565b610101565b60005460405163ad64ae4b60e01b81526001600160a01b0383811660048301529091169063ad64ae4b906024015b600060405180830381600087803b1580156100e657600080fd5b505af11580156100fa573d6000803e3d6000fd5b5050505050565b60005460405163faab9d3960e01b81526001600160a01b0383811660048301529091169063faab9d39906024016100cc565b6001600160a01b038116811461014857600080fd5b50565b60006020828403121561015d57600080fd5b813561016881610133565b939250505056fea2646970667358221220c4e99dc71aa006777476fc327b031727c33f3fea138e81c6e6a707e6334feae964736f6c634300080a0033",
  "immutableReferences": {},
  "source": "// SPDX-License-Identifier: GPL-3.0\npragma solidity 0.8.10;\n\nimport {ZoraModuleManager} from \"../../../ZoraModuleManager.sol\";\n\n/// @title ZoraRegistrar\n/// @notice Mock ZORA V3 Registrar\ncontract ZoraRegistrar {\n    ZoraModuleManager internal ZMM;\n\n    function init(ZoraModuleManager _ZMM) public {\n        ZMM = _ZMM;\n    }\n\n    function registerModule(address _module) public {\n        ZMM.registerModule(_module);\n    }\n\n    function setRegistrar(address _registrar) public {\n        ZMM.setRegistrar(_registrar);\n    }\n}\n",
  "sourcePath": "/Users/ds/Documents/rarible/scripts/contracts/asd/utils/users/ZoraRegistrar.sol",
  "compiler": {
    "name": "solc",
    "version": "0.8.10+commit.fc410830.Emscripten.clang"
  },
  "schemaVersion": "3.4.3",
  "updatedAt": "2022-04-04T14:37:20.115Z",
  "devdoc": {
    "kind": "dev",
    "methods": {},
    "title": "ZoraRegistrar",
    "version": 1
  },
  "userdoc": {
    "kind": "user",
    "methods": {},
    "notice": "Mock ZORA V3 Registrar",
    "version": 1
  }
}