{
  "contractName": "AuctionHouse1155",
  "abi": [
    {
      "anonymous": false,
      "inputs": [
        {
          "indexed": true,
          "internalType": "uint256",
          "name": "auctionId",
          "type": "uint256"
        },
        {
          "indexed": false,
          "internalType": "address",
          "name": "buyer",
          "type": "address"
        }
      ],
      "name": "AuctionBuyOut",
      "type": "event"
    },
    {
      "anonymous": false,
      "inputs": [
        {
          "indexed": true,
          "internalType": "uint256",
          "name": "auctionId",
          "type": "uint256"
        }
      ],
      "name": "AuctionCancelled",
      "type": "event"
    },
    {
      "anonymous": false,
      "inputs": [
        {
          "indexed": true,
          "internalType": "uint256",
          "name": "auctionId",
          "type": "uint256"
        },
        {
          "indexed": false,
          "internalType": "address",
          "name": "buyer",
          "type": "address"
        },
        {
          "indexed": false,
          "internalType": "uint128",
          "name": "endTime",
          "type": "uint128"
        }
      ],
      "name": "AuctionCreated",
      "type": "event"
    },
    {
      "anonymous": false,
      "inputs": [
        {
          "indexed": true,
          "internalType": "uint256",
          "name": "auctionId",
          "type": "uint256"
        }
      ],
      "name": "AuctionFinished",
      "type": "event"
    },
    {
      "anonymous": false,
      "inputs": [
        {
          "indexed": true,
          "internalType": "address",
          "name": "owner",
          "type": "address"
        },
        {
          "indexed": false,
          "internalType": "uint256",
          "name": "added",
          "type": "uint256"
        },
        {
          "indexed": false,
          "internalType": "uint256",
          "name": "total",
          "type": "uint256"
        }
      ],
      "name": "AvailableToWithdraw",
      "type": "event"
    },
    {
      "anonymous": false,
      "inputs": [
        {
          "indexed": true,
          "internalType": "uint256",
          "name": "auctionId",
          "type": "uint256"
        },
        {
          "indexed": false,
          "internalType": "address",
          "name": "buyer",
          "type": "address"
        },
        {
          "indexed": false,
          "internalType": "uint256",
          "name": "endTime",
          "type": "uint256"
        }
      ],
      "name": "BidPlaced",
      "type": "event"
    },
    {
      "anonymous": false,
      "inputs": [
        {
          "indexed": false,
          "internalType": "uint256",
          "name": "oldValue",
          "type": "uint256"
        },
        {
          "indexed": false,
          "internalType": "uint256",
          "name": "newValue",
          "type": "uint256"
        }
      ],
      "name": "MinimalDurationChanged",
      "type": "event"
    },
    {
      "anonymous": false,
      "inputs": [
        {
          "indexed": false,
          "internalType": "uint256",
          "name": "oldValue",
          "type": "uint256"
        },
        {
          "indexed": false,
          "internalType": "uint256",
          "name": "newValue",
          "type": "uint256"
        }
      ],
      "name": "MinimalStepChanged",
      "type": "event"
    },
    {
      "anonymous": false,
      "inputs": [
        {
          "indexed": true,
          "internalType": "address",
          "name": "previousOwner",
          "type": "address"
        },
        {
          "indexed": true,
          "internalType": "address",
          "name": "newOwner",
          "type": "address"
        }
      ],
      "name": "OwnershipTransferred",
      "type": "event"
    },
    {
      "anonymous": false,
      "inputs": [
        {
          "indexed": false,
          "internalType": "uint256",
          "name": "oldValue",
          "type": "uint256"
        },
        {
          "indexed": false,
          "internalType": "uint256",
          "name": "newValue",
          "type": "uint256"
        }
      ],
      "name": "ProtocolFeeChanged",
      "type": "event"
    },
    {
      "anonymous": false,
      "inputs": [
        {
          "indexed": true,
          "internalType": "bytes4",
          "name": "assetType",
          "type": "bytes4"
        },
        {
          "indexed": false,
          "internalType": "address",
          "name": "proxy",
          "type": "address"
        }
      ],
      "name": "ProxyChange",
      "type": "event"
    },
    {
      "inputs": [],
      "name": "auctionId",
      "outputs": [
        {
          "internalType": "uint256",
          "name": "",
          "type": "uint256"
        }
      ],
      "stateMutability": "view",
      "type": "function"
    },
    {
      "inputs": [
        {
          "internalType": "uint96",
          "name": "newValue",
          "type": "uint96"
        }
      ],
      "name": "changeMinimalDuration",
      "outputs": [],
      "stateMutability": "nonpayable",
      "type": "function"
    },
    {
      "inputs": [
        {
          "internalType": "uint128",
          "name": "newValue",
          "type": "uint128"
        }
      ],
      "name": "changeMinimalStep",
      "outputs": [],
      "stateMutability": "nonpayable",
      "type": "function"
    },
    {
      "inputs": [],
      "name": "defaultFeeReceiver",
      "outputs": [
        {
          "internalType": "address",
          "name": "",
          "type": "address"
        }
      ],
      "stateMutability": "view",
      "type": "function"
    },
    {
      "inputs": [
        {
          "internalType": "address",
          "name": "",
          "type": "address"
        }
      ],
      "name": "feeReceivers",
      "outputs": [
        {
          "internalType": "address",
          "name": "",
          "type": "address"
        }
      ],
      "stateMutability": "view",
      "type": "function"
    },
    {
      "inputs": [
        {
          "internalType": "address",
          "name": "token",
          "type": "address"
        }
      ],
      "name": "getFeeReceiver",
      "outputs": [
        {
          "internalType": "address",
          "name": "",
          "type": "address"
        }
      ],
      "stateMutability": "view",
      "type": "function"
    },
    {
      "inputs": [],
      "name": "minimalDuration",
      "outputs": [
        {
          "internalType": "uint96",
          "name": "",
          "type": "uint96"
        }
      ],
      "stateMutability": "view",
      "type": "function"
    },
    {
      "inputs": [],
      "name": "minimalStepBasePoint",
      "outputs": [
        {
          "internalType": "uint128",
          "name": "",
          "type": "uint128"
        }
      ],
      "stateMutability": "view",
      "type": "function"
    },
    {
      "inputs": [
        {
          "internalType": "address",
          "name": "",
          "type": "address"
        },
        {
          "internalType": "address",
          "name": "",
          "type": "address"
        },
        {
          "internalType": "uint256[]",
          "name": "",
          "type": "uint256[]"
        },
        {
          "internalType": "uint256[]",
          "name": "",
          "type": "uint256[]"
        },
        {
          "internalType": "bytes",
          "name": "",
          "type": "bytes"
        }
      ],
      "name": "onERC1155BatchReceived",
      "outputs": [
        {
          "internalType": "bytes4",
          "name": "",
          "type": "bytes4"
        }
      ],
      "stateMutability": "nonpayable",
      "type": "function"
    },
    {
      "inputs": [
        {
          "internalType": "address",
          "name": "",
          "type": "address"
        },
        {
          "internalType": "address",
          "name": "",
          "type": "address"
        },
        {
          "internalType": "uint256",
          "name": "",
          "type": "uint256"
        },
        {
          "internalType": "uint256",
          "name": "",
          "type": "uint256"
        },
        {
          "internalType": "bytes",
          "name": "",
          "type": "bytes"
        }
      ],
      "name": "onERC1155Received",
      "outputs": [
        {
          "internalType": "bytes4",
          "name": "",
          "type": "bytes4"
        }
      ],
      "stateMutability": "nonpayable",
      "type": "function"
    },
    {
      "inputs": [],
      "name": "owner",
      "outputs": [
        {
          "internalType": "address",
          "name": "",
          "type": "address"
        }
      ],
      "stateMutability": "view",
      "type": "function"
    },
    {
      "inputs": [
        {
          "internalType": "uint256",
          "name": "data",
          "type": "uint256"
        }
      ],
      "name": "parseFeeData",
      "outputs": [
        {
          "internalType": "address",
          "name": "",
          "type": "address"
        },
        {
          "internalType": "uint96",
          "name": "",
          "type": "uint96"
        }
      ],
      "stateMutability": "pure",
      "type": "function"
    },
    {
      "inputs": [],
      "name": "protocolFee",
      "outputs": [
        {
          "internalType": "uint64",
          "name": "",
          "type": "uint64"
        }
      ],
      "stateMutability": "view",
      "type": "function"
    },
    {
      "inputs": [],
      "name": "renounceOwnership",
      "outputs": [],
      "stateMutability": "nonpayable",
      "type": "function"
    },
    {
      "inputs": [],
      "name": "royaltiesRegistry",
      "outputs": [
        {
          "internalType": "contract IRoyaltiesProvider",
          "name": "",
          "type": "address"
        }
      ],
      "stateMutability": "view",
      "type": "function"
    },
    {
      "inputs": [
        {
          "internalType": "address payable",
          "name": "newDefaultFeeReceiver",
          "type": "address"
        }
      ],
      "name": "setDefaultFeeReceiver",
      "outputs": [],
      "stateMutability": "nonpayable",
      "type": "function"
    },
    {
      "inputs": [
        {
          "internalType": "address",
          "name": "token",
          "type": "address"
        },
        {
          "internalType": "address",
          "name": "wallet",
          "type": "address"
        }
      ],
      "name": "setFeeReceiver",
      "outputs": [],
      "stateMutability": "nonpayable",
      "type": "function"
    },
    {
      "inputs": [
        {
          "internalType": "uint64",
          "name": "_protocolFee",
          "type": "uint64"
        }
      ],
      "name": "setProtocolFee",
      "outputs": [],
      "stateMutability": "nonpayable",
      "type": "function"
    },
    {
      "inputs": [
        {
          "internalType": "contract IRoyaltiesProvider",
          "name": "newRoyaltiesRegistry",
          "type": "address"
        }
      ],
      "name": "setRoyaltiesRegistry",
      "outputs": [],
      "stateMutability": "nonpayable",
      "type": "function"
    },
    {
      "inputs": [
        {
          "internalType": "bytes4",
          "name": "assetType",
          "type": "bytes4"
        },
        {
          "internalType": "address",
          "name": "proxy",
          "type": "address"
        }
      ],
      "name": "setTransferProxy",
      "outputs": [],
      "stateMutability": "nonpayable",
      "type": "function"
    },
    {
      "inputs": [
        {
          "internalType": "address",
          "name": "newOwner",
          "type": "address"
        }
      ],
      "name": "transferOwnership",
      "outputs": [],
      "stateMutability": "nonpayable",
      "type": "function"
    },
    {
      "inputs": [
        {
          "internalType": "address",
          "name": "newDefaultFeeReceiver",
          "type": "address"
        },
        {
          "internalType": "contract IRoyaltiesProvider",
          "name": "newRoyaltiesProvider",
          "type": "address"
        },
        {
          "internalType": "address",
          "name": "transferProxy",
          "type": "address"
        },
        {
          "internalType": "address",
          "name": "erc20TransferProxy",
          "type": "address"
        },
        {
          "internalType": "uint64",
          "name": "_protocolFee",
          "type": "uint64"
        },
        {
          "internalType": "uint128",
          "name": "_minimalStepBasePoint",
          "type": "uint128"
        }
      ],
      "name": "__AuctionHouse1155_init",
      "outputs": [],
      "stateMutability": "nonpayable",
      "type": "function"
    },
    {
      "inputs": [
        {
          "internalType": "address",
          "name": "_sellToken",
          "type": "address"
        },
        {
          "internalType": "uint96",
          "name": "_sellTokenValue",
          "type": "uint96"
        },
        {
          "internalType": "uint256",
          "name": "_sellTokenId",
          "type": "uint256"
        },
        {
          "internalType": "address",
          "name": "_buyAsset",
          "type": "address"
        },
        {
          "internalType": "uint96",
          "name": "minimalPrice",
          "type": "uint96"
        },
        {
          "internalType": "bytes4",
          "name": "dataType",
          "type": "bytes4"
        },
        {
          "internalType": "bytes",
          "name": "data",
          "type": "bytes"
        }
      ],
      "name": "startAuction",
      "outputs": [],
      "stateMutability": "nonpayable",
      "type": "function"
    },
    {
      "inputs": [
        {
          "internalType": "uint256",
          "name": "_auctionId",
          "type": "uint256"
        },
        {
          "components": [
            {
              "internalType": "uint256",
              "name": "amount",
              "type": "uint256"
            },
            {
              "internalType": "bytes4",
              "name": "dataType",
              "type": "bytes4"
            },
            {
              "internalType": "bytes",
              "name": "data",
              "type": "bytes"
            }
          ],
          "internalType": "struct AuctionHouseStruct1155.Bid",
          "name": "bid",
          "type": "tuple"
        }
      ],
      "name": "putBid",
      "outputs": [],
      "stateMutability": "payable",
      "type": "function"
    },
    {
      "inputs": [
        {
          "internalType": "uint256",
          "name": "_auctionId",
          "type": "uint256"
        }
      ],
      "name": "getMinimalNextBid",
      "outputs": [
        {
          "internalType": "uint256",
          "name": "minBid",
          "type": "uint256"
        }
      ],
      "stateMutability": "view",
      "type": "function"
    },
    {
      "inputs": [
        {
          "internalType": "uint256",
          "name": "_auctionId",
          "type": "uint256"
        }
      ],
      "name": "checkAuctionExistence",
      "outputs": [
        {
          "internalType": "bool",
          "name": "",
          "type": "bool"
        }
      ],
      "stateMutability": "view",
      "type": "function"
    },
    {
      "inputs": [
        {
          "internalType": "uint256",
          "name": "_auctionId",
          "type": "uint256"
        }
      ],
      "name": "finishAuction",
      "outputs": [],
      "stateMutability": "nonpayable",
      "type": "function"
    },
    {
      "inputs": [
        {
          "internalType": "uint256",
          "name": "_auctionId",
          "type": "uint256"
        }
      ],
      "name": "checkAuctionRangeTime",
      "outputs": [
        {
          "internalType": "bool",
          "name": "",
          "type": "bool"
        }
      ],
      "stateMutability": "view",
      "type": "function"
    },
    {
      "inputs": [
        {
          "internalType": "uint256",
          "name": "_auctionId",
          "type": "uint256"
        }
      ],
      "name": "cancel",
      "outputs": [],
      "stateMutability": "nonpayable",
      "type": "function"
    },
    {
      "inputs": [
        {
          "internalType": "uint256",
          "name": "_auctionId",
          "type": "uint256"
        },
        {
          "components": [
            {
              "internalType": "uint256",
              "name": "amount",
              "type": "uint256"
            },
            {
              "internalType": "bytes4",
              "name": "dataType",
              "type": "bytes4"
            },
            {
              "internalType": "bytes",
              "name": "data",
              "type": "bytes"
            }
          ],
          "internalType": "struct AuctionHouseStruct1155.Bid",
          "name": "bid",
          "type": "tuple"
        }
      ],
      "name": "buyOut",
      "outputs": [],
      "stateMutability": "payable",
      "type": "function"
    },
    {
      "inputs": [
        {
          "internalType": "uint256",
          "name": "_auctionId",
          "type": "uint256"
        }
      ],
      "name": "getCurrentBuyer",
      "outputs": [
        {
          "internalType": "address",
          "name": "",
          "type": "address"
        }
      ],
      "stateMutability": "view",
      "type": "function"
    },
    {
      "inputs": [
        {
          "internalType": "uint256",
          "name": "_auctionId",
          "type": "uint256"
        }
      ],
      "name": "putBidWrapper",
      "outputs": [],
      "stateMutability": "payable",
      "type": "function"
    },
    {
      "inputs": [
        {
          "internalType": "address",
          "name": "_to",
          "type": "address"
        }
      ],
      "name": "withdrawFaultyBid",
      "outputs": [],
      "stateMutability": "nonpayable",
      "type": "function"
    },
    {
      "inputs": [
        {
          "internalType": "bytes4",
          "name": "interfaceId",
          "type": "bytes4"
        }
      ],
      "name": "supportsInterface",
      "outputs": [
        {
          "internalType": "bool",
          "name": "",
          "type": "bool"
        }
      ],
      "stateMutability": "view",
      "type": "function"
    }
  ],
  "bytecode": "0x608060405234801561001057600080fd5b5061588680620000216000396000f3fe6080604052600436106101f95760003560e01c8063715018a61161010d578063bd9d21bd116100a0578063e66db25e1161006f578063e66db25e14610593578063e68aceae146105b3578063ec578348146105d3578063f23a6e61146105f3578063f2fde38b14610613576101f9565b8063bd9d21bd14610513578063c90f1f7c14610533578063cf266ed014610553578063d596199914610573576101f9565b8063a6f4a3e0116100dc578063a6f4a3e014610483578063b0e21e8a14610496578063b8bfa006146104b8578063bc197c81146104e6576101f9565b8063715018a6146104175780638da5cb5b1461042c578063914bf5f914610441578063a2a106b814610463576101f9565b806330c642f11161019057806340e58ee51161015f57806340e58ee51461038f57806343bc42d3146103af578063506a90e7146103cf5780636d8f0694146103e25780636eeb69db146103f7576101f9565b806330c642f11461031a578063363188151461033a5780633abf6fd41461035a5780633be899221461036f576101f9565b80631cdfe3d8116101cc5780631cdfe3d8146102a35780632a6bf6a8146102c55780632deafb99146102d85780632f572336146102f8576101f9565b806301ffc9a7146101fe57806302097ab1146102345780630d6079641461026157806310782f8f1461028e575b600080fd5b34801561020a57600080fd5b5061021e610219366004614e81565b610633565b60405161022b9190615103565b60405180910390f35b34801561024057600080fd5b5061025461024f366004614971565b6106b1565b60405161022b9190615058565b34801561026d57600080fd5b5061028161027c366004614f68565b6106cd565b60405161022b9190615651565b34801561029a57600080fd5b5061028161090b565b3480156102af57600080fd5b506102c36102be366004614971565b610912565b005b6102c36102d3366004614f68565b610997565b3480156102e457600080fd5b506102546102f3366004614971565b610a38565b34801561030457600080fd5b5061030d610a77565b60405161022b9190615696565b34801561032657600080fd5b506102c3610335366004614e9b565b610a87565b34801561034657600080fd5b506102c3610355366004615039565b610b58565b34801561036657600080fd5b50610254610c2a565b34801561037b57600080fd5b506102c361038a366004614971565b610c3a565b34801561039b57600080fd5b506102c36103aa366004614f68565b610cbf565b3480156103bb57600080fd5b506102c36103ca36600461501f565b611035565b6102c36103dd366004614f80565b611114565b3480156103ee57600080fd5b506102546116e1565b34801561040357600080fd5b50610254610412366004614f68565b6116f1565b34801561042357600080fd5b506102c361170f565b34801561043857600080fd5b506102546117bb565b34801561044d57600080fd5b506104566117ca565b60405161022b9190615623565b34801561046f57600080fd5b5061021e61047e366004614f68565b6117da565b6102c3610491366004614f80565b6117fa565b3480156104a257600080fd5b506104ab611b43565b60405161022b9190615668565b3480156104c457600080fd5b506104d86104d3366004614f68565b611b5a565b60405161022b92919061506c565b3480156104f257600080fd5b50610506610501366004614bfe565b611b63565b60405161022b919061510e565b34801561051f57600080fd5b506102c361052e366004614971565b611b74565b34801561053f57600080fd5b506102c361054e366004614f4e565b611be4565b34801561055f57600080fd5b506102c361056e366004614f68565b611cb1565b34801561057f57600080fd5b506102c361058e366004614d0d565b612143565b34801561059f57600080fd5b506102c36105ae366004614bc6565b612229565b3480156105bf57600080fd5b506102c36105ce366004614d88565b6122ba565b3480156105df57600080fd5b5061021e6105ee366004614f68565b6126cf565b3480156105ff57600080fd5b5061050661060e366004614ca7565b612808565b34801561061f57600080fd5b506102c361062e366004614971565b612819565b6040516301ffc9a760e01b815260009030906301ffc9a79061065990859060040161510e565b60206040518083038186803b15801561067157600080fd5b505afa158015610685573d6000803e3d6000fd5b505050506040513d601f19601f820116820180604052508101906106a99190614e61565b90505b919050565b610130602052600090815260409020546001600160a01b031681565b600081815260976020908152604080832081516101808101835281546001600160a01b038082168352600160a01b918290046001600160601b039081168488015260018086015485880152600280870154938416606080880191909152949093049091166080850152855192830186526003850180548452600486015460e01b6001600160e01b0319168489015260058601805488516101009482161594909402600019011693909304601f810189900489028301890188528083528998959760a0890196929490860193929091908301828280156107ed5780601f106107c2576101008083540402835291602001916107ed565b820191906000526020600020905b8154815290600101906020018083116107d057829003601f168201915b50505091909252505050815260068201546001600160a01b03808216602080850191909152600160a01b928390046001600160601b0316604080860191909152600786015492831660608601529282046001600160401b03166080850152600160e01b90910460e01b6001600160e01b03191660a0840152600884018054835160026101006001841615026000190190921691909104601f810184900484028201840190945283815260c0909401939290918301828280156108f05780601f106108c5576101008083540402835291602001916108f0565b820191906000526020600020905b8154815290600101906020018083116108d357829003601f168201915b50505050508152505090506109048161291c565b9392505050565b6101925481565b61091a612970565b6001600160a01b031661092b6117bb565b6001600160a01b031614610974576040805162461bcd60e51b81526020600482018190526024820152600080516020615831833981519152604482015290519081900360640190fd5b61012f80546001600160a01b0319166001600160a01b0392909216919091179055565b6000818152609760205260409020600201546001600160a01b0316156109d85760405162461bcd60e51b81526004016109cf906151c7565b60405180910390fd5b610a358160405180606001604052803481526020017f4c23426613a5dc69e08fbd2787e6210aa679d4522e95a89d4dd88c4fd13a22836001600160e01b031916815260200160405180602001604052806000815250815250611114565b50565b6001600160a01b03808216600090815261013060205260408120549091168015610a635790506106ac565b505061012f546001600160a01b0316919050565b610193546001600160601b031681565b610a8f612970565b6001600160a01b0316610aa06117bb565b6001600160a01b031614610ae9576040805162461bcd60e51b81526020600482018190526024820152600080516020615831833981519152604482015290519081900360640190fd5b6001600160e01b031982166000818152610131602090815260409182902080546001600160a01b0319166001600160a01b038616908117909155825190815291517f4b5aced933c0c9a88aeac3f0b3b72c5aaf75df8ebaf53225773248c4c31535939281900390910190a25050565b610b60612970565b6001600160a01b0316610b716117bb565b6001600160a01b031614610bba576040805162461bcd60e51b81526020600482018190526024820152600080516020615831833981519152604482015290519081900360640190fd5b610193546040517fa13d21133118bfdffd1e4dc724faaadc5860dcb38ac5836e06f183ac5306b27991610bfa916001600160601b039091169084906156aa565b60405180910390a161019380546bffffffffffffffffffffffff19166001600160601b0392909216919091179055565b61012f546001600160a01b031681565b610c42612970565b6001600160a01b0316610c536117bb565b6001600160a01b031614610c9c576040805162461bcd60e51b81526020600482018190526024820152600080516020615831833981519152604482015290519081900360640190fd5b61012e80546001600160a01b0319166001600160a01b0392909216919091179055565b600260fc541415610d05576040805162461bcd60e51b815260206004820152601f602482015260008051602061577c833981519152604482015290519081900360640190fd5b600260fc819055600082815260976020908152604080832081516101808101835281546001600160a01b038082168352600160a01b918290046001600160601b039081168488015260018086015485880152858a015492831660608087019190915293909204166080840152845191820185526003840180548352600485015460e01b6001600160e01b0319168388015260058501805487516101009482161594909402600019011699909904601f8101889004880283018801875280835297989397949660a089019693959194938601939190830182828015610e2a5780601f10610dff57610100808354040283529160200191610e2a565b820191906000526020600020905b815481529060010190602001808311610e0d57829003601f168201915b50505091909252505050815260068201546001600160a01b03808216602080850191909152600160a01b928390046001600160601b0316604080860191909152600786015492831660608601529282046001600160401b03166080850152600160e01b90910460e01b6001600160e01b03191660a0840152600884018054835160026101006001841615026000190190921691909104601f810184900484028201840190945283815260c090940193929091830182828015610f2d5780601f10610f0257610100808354040283529160200191610f2d565b820191906000526020600020905b815481529060010190602001808311610f1057829003601f168201915b5050505050815250509050610f4181612974565b610f5d5760405162461bcd60e51b81526004016109cf9061522d565b60c0810151610f6a612970565b6001600160a01b0316816001600160a01b031614610f9a5760405162461bcd60e51b81526004016109cf906152f7565b6101008201516001600160a01b031615610fc65760405162461bcd60e51b81526004016109cf90615406565b610ff78260000151836040015184602001516001600160601b03166000805160206158118339815191523086612986565b611000836129ca565b60405183907f2809c7e17bf978fbc7194c0a694b638c4215e9140cacc6c38ca36010b45697df90600090a25050600160fc5550565b61103d612970565b6001600160a01b031661104e6117bb565b6001600160a01b031614611097576040805162461bcd60e51b81526020600482018190526024820152600080516020615831833981519152604482015290519081900360640190fd5b7fb51bef650ff5ad43303dbe2e500a74d4fd1bdc9ae05f046bece330e82ae0ba87610193600c9054906101000a90046001600160401b0316826040516110de92919061567c565b60405180910390a161019380546001600160401b03909216600160601b0267ffffffffffffffff60601b19909216919091179055565b600260fc54141561115a576040805162461bcd60e51b815260206004820152601f602482015260008051602061577c833981519152604482015290519081900360640190fd5b600260fc556000611169612970565b8251600085815260976020908152604080832081516101808101835281546001600160a01b038082168352600160a01b918290046001600160601b039081168488015260018086015485880152600280870154938416606080880191909152949093049091166080850152855192830186526003850180548452600486015460e01b6001600160e01b0319168489015260058601805488516101009482161594909402600019011693909304601f810189900489028301890188528083529a9b50989997989397949660a0890196939593860193919291908301828280156112925780601f1061126757610100808354040283529160200191611292565b820191906000526020600020905b81548152906001019060200180831161127557829003601f168201915b50505091909252505050815260068201546001600160a01b03808216602080850191909152600160a01b928390046001600160601b0316604080860191909152600786015492831660608601529282046001600160401b03166080850152600160e01b90910460e01b6001600160e01b03191660a0840152600884018054835160026101006001841615026000190190921691909104601f810184900484028201840190945283815260c0909401939290918301828280156113955780601f1061136a57610100808354040283529160200191611395565b820191906000526020600020905b81548152906001019060200180831161137857829003601f168201915b505050505081525050905060008160800151905060006113bf836101600151846101400151612a5b565b905060006113d587604001518860200151612abd565b600001519050600061140288600001518661012001516001600160401b03166113fd85612b11565b612bae565b60608601519091506001600160a01b0316611421576114218188612c21565b61142b8584612c65565b6114358387612cb0565b15611455576114498589858c86868d612cdf565b505050505050506116d8565b61010085015142906001600160a01b03166114f95760808601516001600160601b03166114c75760208481015160008c81526097909252604090912060020180546001600160a01b0316600160a01b6001600160601b0385811690940193841690810291909117909155608088015294505b8560e001516001600160601b03168710156114f45760405162461bcd60e51b81526004016109cf9061532e565b61155f565b876001600160a01b03168661010001516001600160a01b031614156115305760405162461bcd60e51b81526004016109cf9061543d565b600061153b8761291c565b90508088101561155d5760405162461bcd60e51b81526004016109cf90615262565b505b600061156e8760600151612ea2565b905061159a87606001518861012001516001600160401b03168961010001518c8b60a001518689612ef6565b60008b8152609760209081526040918290208c51600382019081558d83015160048301805463ffffffff191660e09290921c919091179055928d015180518e94936115ea9360050192019061459b565b50505060008b815260976020526040812060070180546001600160a01b0319166001600160a01b038c16179055610193546001600160601b031690610384821061163657610384611638565b815b9050806001600160601b03168489036001600160601b031610156116925760008d815260976020526040902060020180546001600160601b03868401908116600160a01b026001600160a01b039092169190911790915597505b8c7f0e54eff26401bf69b81b26f60bd85ef47f5d85275c1d268d84f68d6897431c478c8a6040516116c492919061506c565b60405180910390a250505050505050505050505b5050600160fc55565b61012e546001600160a01b031681565b6000908152609760205260409020600701546001600160a01b031690565b611717612970565b6001600160a01b03166117286117bb565b6001600160a01b031614611771576040805162461bcd60e51b81526020600482018190526024820152600080516020615831833981519152604482015290519081900360640190fd5b60ca546040516000916001600160a01b0316907f8be0079c531659141344cd1fd0a4f28419497f9722a3daafe3b4186f6b6457e0908390a360ca80546001600160a01b0319169055565b60ca546001600160a01b031690565b610194546001600160801b031681565b6000908152609760205260409020600601546001600160a01b0316151590565b600260fc541415611840576040805162461bcd60e51b815260206004820152601f602482015260008051602061577c833981519152604482015290519081900360640190fd5b600260fc819055600083815260976020908152604080832081516101808101835281546001600160a01b038082168352600160a01b918290046001600160601b039081168488015260018086015485880152858a015492831660608087019190915293909204166080840152845191820185526003840180548352600485015460e01b6001600160e01b0319168388015260058501805487516101009482161594909402600019011699909904601f8101889004880283018801875280835297989397949660a0890196939591949386019391908301828280156119655780601f1061193a57610100808354040283529160200191611965565b820191906000526020600020905b81548152906001019060200180831161194857829003601f168201915b50505091909252505050815260068201546001600160a01b03808216602080850191909152600160a01b928390046001600160601b0316604080860191909152600786015492831660608601529282046001600160401b03166080850152600160e01b90910460e01b6001600160e01b03191660a0840152600884018054835160026101006001841615026000190190921691909104601f810184900484028201840190945283815260c090940193929091830182828015611a685780601f10611a3d57610100808354040283529160200191611a68565b820191906000526020600020905b815481529060010190602001808311611a4b57829003601f168201915b50505050508152505090506000611a89826101600151836101400151612a5b565b9050611a958282612c65565b611aa3818460000151612cb0565b611abf5760405162461bcd60e51b81526004016109cf906153d7565b6000611ad384604001518560200151612abd565b6000015190506000611afb85600001518561012001516001600160401b03166113fd85612b11565b90506000611b07612970565b60608601519091506001600160a01b0316611b2657611b268282612c21565b611b358587868a878787612cdf565b5050600160fc555050505050565b61019354600160601b90046001600160401b031681565b9060a082901c90565b63bc197c8160e01b95945050505050565b6000611b7e612970565b6001600160a01b0381166000908152610191602052604090205490915080611bb85760405162461bcd60e51b81526004016109cf906154ce565b6001600160a01b0380831660009081526101916020526040812055611bdf90841682612f10565b505050565b611bec612970565b6001600160a01b0316611bfd6117bb565b6001600160a01b031614611c46576040805162461bcd60e51b81526020600482018190526024820152600080516020615831833981519152604482015290519081900360640190fd5b610194546040517f30bd79db520376a437e44c44c2b3ec63f6730f4df0a95f56ea39765f1420cab791611c86916001600160801b03909116908490615637565b60405180910390a161019480546001600160801b0319166001600160801b0392909216919091179055565b600260fc541415611cf7576040805162461bcd60e51b815260206004820152601f602482015260008051602061577c833981519152604482015290519081900360640190fd5b600260fc819055600082815260976020908152604080832081516101808101835281546001600160a01b038082168352600160a01b918290046001600160601b039081168488015260018086015485880152858a015492831660608087019190915293909204166080840152845191820185526003840180548352600485015460e01b6001600160e01b0319168388015260058501805487516101009482161594909402600019011699909904601f8101889004880283018801875280835297989397949660a089019693959194938601939190830182828015611e1c5780601f10611df157610100808354040283529160200191611e1c565b820191906000526020600020905b815481529060010190602001808311611dff57829003601f168201915b50505091909252505050815260068201546001600160a01b03808216602080850191909152600160a01b928390046001600160601b0316604080860191909152600786015492831660608601529282046001600160401b03166080850152600160e01b90910460e01b6001600160e01b03191660a0840152600884018054835160026101006001841615026000190190921691909104601f810184900484028201840190945283815260c090940193929091830182828015611f1f5780601f10611ef457610100808354040283529160200191611f1f565b820191906000526020600020905b815481529060010190602001808311611f0257829003601f168201915b5050505050815250509050611f3381612974565b611f4f5760405162461bcd60e51b81526004016109cf9061522d565b6000611f65826101600151836101400151612a5b565b9050611f8282608001516001600160601b03168260400151612fa8565b158015611f9c57506101008201516001600160a01b031615155b611fb85760405162461bcd60e51b81526004016109cf9061552b565b6000611fd48360a00151604001518460a0015160200151612abd565b60000151905060006120008460a00151600001518561012001516001600160401b03166113fd85612b11565b905061212c6040518060a0016040528061203f8760000151886040015189602001516001600160601b0316600080516020615811833981519152612ff1565b81526020016120518760c0015161303f565b81526020016120638660000151612b11565b815263025ceed960e61b60005261013160209081527f63c5e593bf2ee54e7cba16647235067582c7e8fc237b6736e61c9d87d0578cf7546001600160a01b03169082015230604091820152805160a080820190925260608801519188015151909182916120d091906130b9565b81526020016120e388610100015161303f565b81526020016120f186612b11565b81526020016121038860600151612ea2565b6001600160a01b03168152306020909101526101208701516002906001600160401b0316613120565b5050612137856129ca565b5050600160fc55505050565b600054610100900460ff168061215c575061215c613216565b8061216a575060005460ff16155b6121a55760405162461bcd60e51b815260040180806020018281038252602e8152602001806157c2602e913960400191505060405180910390fd5b600054610100900460ff161580156121d0576000805460ff1961ff0019909116610100171660011790555b6121d8613227565b6121e06132c8565b6121e86133c1565b6121f061345e565b6121fa8383613504565b61220687878787613604565b61220e613227565b8015612220576000805461ff00191690555b50505050505050565b612231612970565b6001600160a01b03166122426117bb565b6001600160a01b03161461228b576040805162461bcd60e51b81526020600482018190526024820152600080516020615831833981519152604482015290519081900360640190fd5b6001600160a01b0391821660009081526101306020526040902080546001600160a01b03191691909216179055565b60006122c68284612a5b565b6101935460208201519192506001600160601b0316118015906122f1575060208101516305265c0010155b61230d5760405162461bcd60e51b81526004016109cf906152cb565b6000876001600160601b0316116123365760405162461bcd60e51b81526004016109cf90615190565b6040810151600090156123745742826040015110156123675760405162461bcd60e51b81526004016109cf9061537d565b5060208101516040820151015b600061237e6136d6565b9050600061238a612970565b905060006040518061018001604052808d6001600160a01b031681526020018c6001600160601b031681526020018b81526020018a6001600160a01b03168152602001856001600160601b0316815260200160405180606001604052806000815260200160006001600160e01b0319168152602001604051806020016040528060008152508152508152602001836001600160a01b03168152602001896001600160601b0316815260200160006001600160a01b03168152602001610193600c9054906101000a90046001600160401b03166001600160401b03168152602001886001600160e01b0319168152602001878152509050806097600085815260200190815260200160002060008201518160000160006101000a8154816001600160a01b0302191690836001600160a01b0316021790555060208201518160000160146101000a8154816001600160601b0302191690836001600160601b031602179055506040820151816001015560608201518160020160006101000a8154816001600160a01b0302191690836001600160a01b0316021790555060808201518160020160146101000a8154816001600160601b0302191690836001600160601b0316021790555060a0820151816003016000820151816000015560208201518160010160006101000a81548163ffffffff021916908360e01c021790555060408201518160020190805190602001906125a592919061459b565b50505060c082015160068201805460e0808601516001600160601b0316600160a01b9081026001600160a01b039586166001600160a01b0319948516178616179093556101008601516007860180546101208901516101408a015190941c600160e01b026001600160e01b036001600160401b0390951690960267ffffffffffffffff60a01b1993909716941693909317169390931792909216179055610160820151805161265e91600884019160209091019061459b565b509050506126878c8b8d6001600160601b03166000805160206158118339815191528630612986565b827f651452447442638a9395d6ab7f472421a3c164ffea75651cbc2d0be20f44498783866040516126b992919061506c565b60405180910390a2505050505050505050505050565b60008181526097602090815260408083206008018054825160026001831615610100026000190190921691909104601f810185900485028201850190935282815242938593612792939183018282801561276a5780601f1061273f5761010080835404028352916020019161276a565b820191906000526020600020905b81548152906001019060200180831161274d57829003601f168201915b505050600088815260976020526040902060070154600160e01b900460e01b9150612a5b9050565b9050600081604001511180156127ab5750818160400151115b156127bb576000925050506106ac565b600084815260976020526040902060020154600160a01b90046001600160601b031680158015906127ec5750828111155b156127fd57600093505050506106ac565b506001949350505050565b63f23a6e6160e01b95945050505050565b612821612970565b6001600160a01b03166128326117bb565b6001600160a01b03161461287b576040805162461bcd60e51b81526020600482018190526024820152600080516020615831833981519152604482015290519081900360640190fd5b6001600160a01b0381166128c05760405162461bcd60e51b815260040180806020018281038252602681526020018061579c6026913960400191505060405180910390fd5b60ca546040516001600160a01b038084169216907f8be0079c531659141344cd1fd0a4f28419497f9722a3daafe3b4186f6b6457e090600090a360ca80546001600160a01b0319166001600160a01b0392909216919091179055565b6101008101516000906001600160a01b0316612946575060e08101516001600160601b03166106ac565b6101945460a083015151612962916001600160801b03166136e5565b60a083015151019050919050565b3390565b60c001516001600160a01b0316151590565b6129c261299587878787612ff1565b6001600160e01b0319851660009081526101316020526040902054849084906001600160a01b03166136fd565b505050505050565b60405181907f53ab6823c4ae8c865033f94ee16313a21c6ade19520d884dc804d622a43bc67490600090a2600081815260976020526040812081815560018101829055600281018290556003810182815560048201805463ffffffff1916905590919081612a3b6005850182614627565b505060006006830181905560078301819055611bdf906008840190614627565b612a6361466b565b6001600160e01b03198216632611a13360e11b1415612a9f57825115612a9a5782806020019051810190612a979190614eb6565b90505b612ab7565b60405162461bcd60e51b81526004016109cf906154fb565b92915050565b612ac5614693565b6001600160e01b03198216632611a13360e11b1415612af957825115612a9a5782806020019051810190612a979190614f14565b60405162461bcd60e51b81526004016109cf90615576565b60408051600180825281830190925260609160009190816020015b612b346146a6565b815260200190600190039081612b2c5790505090508281600081518110612b5757fe5b6020026020010151600001906001600160a01b031690816001600160a01b03168152505060a083901c81600081518110612b8d57fe5b6020908102919091018101516001600160601b039092169101529050919050565b6000612bc4612bbd85856136e5565b8590613af4565b905060005b8251811015612c1957612c0f612c08848381518110612be457fe5b6020026020010151602001516001600160601b0316876136e590919063ffffffff16565b8390613af4565b9150600101612bc9565b509392505050565b3482811015612c425760405162461bcd60e51b81526004016109cf90615355565b348390038015612c5f57612c5f6001600160a01b03841682612f10565b50505050565b612c6e82612974565b8015612c905750612c9082608001516001600160601b03168260400151612fa8565b612cac5760405162461bcd60e51b81526004016109cf9061546a565b5050565b6000808360600151118015612cc9575081836060015111155b15612cd657506001612ab7565b50600092915050565b6000612cee8860600151612ea2565b9050612d188860a0015189606001518a61010001518b61012001516001600160401b031685613b4e565b60608801516000906001600160a01b0316612d34575030612d37565b50815b612e516040518060a00160405280612d748c600001518d604001518e602001516001600160601b0316600080516020615811833981519152612ff1565b8152602001612d868c60c0015161303f565b8152602001612d988a60000151612b11565b815263025ceed960e61b60005261013160209081527f63c5e593bf2ee54e7cba16647235067582c7e8fc237b6736e61c9d87d0578cf7546001600160a01b03169082015230604091820152805160a0810190915260608c01518b518291612dfe916130b9565b8152602001612e0c8761303f565b8152602001612e1a89612b11565b8152602001856001600160a01b03168152602001846001600160a01b031681525060028c61012001516001600160401b0316613120565b5050612e5c866129ca565b610192547f10373d853b64ae416c332eacb659de0f9bfc4fa3601556194abce1991061efbe84604051612e8f9190615058565b60405180910390a2505050505050505050565b6000806001600160a01b038316156106a95750506322ba176160e21b600052506101316020527f3d7d0e7a10352b2c9daf0c889f67f342fb7b4666f6977a8d4c4c256af4bb11a9546001600160a01b031690565b612f038388878986613b4e565b6122208188863086613c76565b6040516000906001600160a01b0384169083908381818185875af1925050503d8060008114612f5b576040519150601f19603f3d011682016040523d82523d6000602084013e612f60565b606091505b5050905080611bdf576040805162461bcd60e51b815260206004820152600f60248201526e1d1c985b9cd9995c8819985a5b1959608a1b604482015290519081900360640190fd5b6000428215801590612fb957508083115b15612fc8576000915050612ab7565b600084118015612fd85750808411155b15612fe7576000915050612ab7565b5060019392505050565b612ff96146bd565b602080820184905281516001600160e01b0319841690526040516130219187918791016150ea565b60408051601f19818403018152919052815160200152949350505050565b60408051600180825281830190925260609160009190816020015b6130626146a6565b81526020019060019003908161305a579050509050828160008151811061308557fe5b6020026020010151600001906001600160a01b031690816001600160a01b03168152505061271081600081518110612b8d57fe5b6130c16146bd565b602081018290526001600160a01b0383166130e75780516355575f5d60e11b9052612ab7565b80516322ba176160e21b9052604051613104908490602001615058565b60408051601f1981840301815291905281516020015292915050565b8351602090810151845190910151600184600281111561313c57fe5b141561317d5761314d868685613c8b565b9150613178856000015160000151866000015160200151876080015189602001518960600151613d6f565b61320d565b600284600281111561318b57fe5b14156131c75761319c858785613c8b565b9050613178866000015160000151876000015160200151886080015188602001518a60600151613d6f565b8551805160209182015160808901519288015160608a01516131ea949190613d6f565b84518051602091820151608088015192890151606089015161320d949190613d6f565b94509492505050565b600061322130613ee9565b15905090565b600054610100900460ff16806132405750613240613216565b8061324e575060005460ff16155b6132895760405162461bcd60e51b815260040180806020018281038252602e8152602001806157c2602e913960400191505060405180910390fd5b600054610100900460ff161580156132b4576000805460ff1961ff0019909116610100171660011790555b8015610a35576000805461ff001916905550565b600054610100900460ff16806132e157506132e1613216565b806132ef575060005460ff16155b61332a5760405162461bcd60e51b815260040180806020018281038252602e8152602001806157c2602e913960400191505060405180910390fd5b600054610100900460ff16158015613355576000805460ff1961ff0019909116610100171660011790555b600061335f612970565b60ca80546001600160a01b0319166001600160a01b038316908117909155604051919250906000907f8be0079c531659141344cd1fd0a4f28419497f9722a3daafe3b4186f6b6457e0908290a3508015610a35576000805461ff001916905550565b600054610100900460ff16806133da57506133da613216565b806133e8575060005460ff16155b6134235760405162461bcd60e51b815260040180806020018281038252602e8152602001806157c2602e913960400191505060405180910390fd5b600054610100900460ff1615801561344e576000805460ff1961ff0019909116610100171660011790555b6132b4630271189760e51b613eef565b600054610100900460ff16806134775750613477613216565b80613485575060005460ff16155b6134c05760405162461bcd60e51b815260040180806020018281038252602e8152602001806157c2602e913960400191505060405180910390fd5b600054610100900460ff161580156134eb576000805460ff1961ff0019909116610100171660011790555b600160fc558015610a35576000805461ff001916905550565b600054610100900460ff168061351d575061351d613216565b8061352b575060005460ff16155b6135665760405162461bcd60e51b815260040180806020018281038252602e8152602001806157c2602e913960400191505060405180910390fd5b600054610100900460ff16158015613591576000805460ff1961ff0019909116610100171660011790555b600161019255610193805461038467ffffffffffffffff60601b19909116600160601b6001600160401b03871602176bffffffffffffffffffffffff191617905561019480546001600160801b0319166001600160801b0384161790558015611bdf576000805461ff0019169055505050565b600054610100900460ff168061361d575061361d613216565b8061362b575060005460ff16155b6136665760405162461bcd60e51b815260040180806020018281038252602e8152602001806157c2602e913960400191505060405180910390fd5b600054610100900460ff16158015613691576000805460ff1961ff0019909116610100171660011790555b613699613227565b6136a16132c8565b6136a9613f76565b6136b1613227565b6136bd85858585613f78565b80156136cf576000805461ff00191690555b5050505050565b61019280546001810190915590565b60006109046127106136f785856140e0565b90614139565b8351516001600160e01b0319166339d690a360e11b1415613843576000808560000151602001518060200190518101906137379190614b99565b91509150856020015160011461375f5760405162461bcd60e51b81526004016109cf906153ab565b6001600160a01b0385163014156137d757604051632142170760e11b81526001600160a01b038316906342842e0e906137a09030908890869060040161508e565b600060405180830381600087803b1580156137ba57600080fd5b505af11580156137ce573d6000803e3d6000fd5b5050505061383c565b604051637b84dc8360e11b81526001600160a01b0384169063f709b90690613809908590899089908790600401615166565b600060405180830381600087803b15801561382357600080fd5b505af1158015613837573d6000803e3d6000fd5b505050505b5050612c5f565b8351516001600160e01b0319166322ba176160e21b141561398657600084600001516020015180602001905181019061387c919061498d565b90506001600160a01b03841630141561391857602085015160405163a9059cbb60e01b81526001600160a01b0383169163a9059cbb916138c09187916004016150ea565b602060405180830381600087803b1580156138da57600080fd5b505af11580156138ee573d6000803e3d6000fd5b505050506040513d601f19601f820116820180604052508101906139129190614e61565b50613980565b602085015160405163776062c360e01b81526001600160a01b0384169163776062c39161394d91859189918991600401615166565b600060405180830381600087803b15801561396757600080fd5b505af115801561397b573d6000803e3d6000fd5b505050505b50612c5f565b8351516001600160e01b03191663025ceed960e61b1415613a43576000808560000151602001518060200190518101906139c09190614b99565b90925090506001600160a01b038516301415613a0b576020860151604051637921219560e11b81526001600160a01b0384169163f242432a916137a0913091899187916004016150b2565b6020860151604051639c1c2ee960e01b81526001600160a01b03851691639c1c2ee9916138099186918a918a91889190600401615123565b8351516001600160e01b0319166355575f5d60e11b1415613a8c576001600160a01b0382163014613a87576020840151613a87906001600160a01b03841690612f10565b612c5f565b6040516354bc0cf160e01b81526001600160a01b038216906354bc0cf190613abc908790879087906004016155a2565b600060405180830381600087803b158015613ad657600080fd5b505af1158015613aea573d6000803e3d6000fd5b5050505050505050565b600082820183811015610904576040805162461bcd60e51b815260206004820152601b60248201527f536166654d6174683a206164646974696f6e206f766572666c6f770000000000604482015290519081900360640190fd5b6001600160a01b038316613b61576136cf565b6000613b908660000151846001600160801b03166113fd613b8a8a604001518b60200151612abd565b51612b11565b90506001600160a01b038516613c6d576000846001600160a01b031682604051613bb990615055565b60006040518083038185875af1925050503d8060008114613bf6576040519150601f19603f3d011682016040523d82523d6000602084013e613bfb565b606091505b5050905080613c67576001600160a01b03851660008181526101916020526040908190208054858101918290559151919290917e13bff06d622c14d54757ee0547a817dc3e491fb8da534f108a531b016dee3c90613c5c908790859061565a565b60405180910390a250505b506129c2565b6129c281863087865b6136cf613c8385876130b9565b8484846136fd565b6000613ca4846000015160200151838660400151612bae565b90506000613ccf82866000015160200151876080015186878a60000151600001518b606001516141a0565b85518051865151602090920151608089015160608a0151949550613cf99492939286929190614269565b9050613d2585600001516000015182876000015160200151886040015189608001518a606001516142ae565b50855180516020909101516040870151608089015160608a0151949550613d509486939291906142ae565b50855151608087015160208701516060890151939450612c1993859291905b6000825111613d905760405162461bcd60e51b81526004016109cf90615287565b600084815b6001855103811015613e5f576000613dd6868381518110613db257fe5b6020026020010151602001516001600160601b0316896136e590919063ffffffff16565b9050613e0b868381518110613de757fe5b6020026020010151602001516001600160601b031685613af490919063ffffffff16565b93508015613e5657613e1d838261437a565b9250613e5660405180604001604052808b81526020018381525088888581518110613e4457fe5b602002602001015160000151886136fd565b50600101613d95565b50600084600186510381518110613e7257fe5b60200260200101519050613e9c81602001516001600160601b031684613af490919063ffffffff16565b92508261271014613ebf5760405162461bcd60e51b81526004016109cf90615497565b8115613aea57613aea60405180604001604052808a815260200184815250878360000151876136fd565b3b151590565b6001600160e01b03198082161415613f4e576040805162461bcd60e51b815260206004820152601c60248201527f4552433136353a20696e76616c696420696e7465726661636520696400000000604482015290519081900360640190fd5b6001600160e01b0319166000908152600160208190526040909120805460ff19169091179055565b565b600054610100900460ff1680613f915750613f91613216565b80613f9f575060005460ff16155b613fda5760405162461bcd60e51b815260040180806020018281038252602e8152602001806157c2602e913960400191505060405180910390fd5b600054610100900460ff16158015614005576000805460ff1961ff0019909116610100171660011790555b61012f80546001600160a01b038088166001600160a01b03199283161790925561012e80548784169083161790556101316020527f3d7d0e7a10352b2c9daf0c889f67f342fb7b4666f6977a8d4c4c256af4bb11a980548584169083161790557ffd23a7b9b5314a90813df2b64e60502a6b31b56b5df0686ee0049c8f7717bf7980549286169282168317905563025ceed960e61b6000527f63c5e593bf2ee54e7cba16647235067582c7e8fc237b6736e61c9d87d0578cf78054909116909117905580156136cf576000805461ff00191690555050505050565b6000826140ef57506000612ab7565b828202828482816140fc57fe5b04146109045760405162461bcd60e51b81526004018080602001828103825260218152602001806157f06021913960400191505060405180910390fd5b600080821161418f576040805162461bcd60e51b815260206004820152601a60248201527f536166654d6174683a206469766973696f6e206279207a65726f000000000000604482015290519081900360640190fd5b81838161419857fe5b049392505050565b60008060006141b28a8a888a016143d7565b9092509050801561425c5784516000906001600160e01b0319166322ba176160e21b14156141f95785602001518060200190518101906141f2919061498d565b9050614232565b85516001600160e01b03191663025ceed960e61b1415614232576000866020015180602001905181019061422d9190614b99565b509150505b61425a6040518060400160405280888152602001848152508a61425484610a38565b886136fd565b505b5098975050505050505050565b600080614275876143f9565b90506000806142888a8989868a8a6142ae565b9150915061138881111561425c5760405162461bcd60e51b81526004016109cf906151f6565b846000805b855181101561436e576142ef8682815181106142cb57fe5b6020026020010151602001516001600160601b031683613af490919063ffffffff16565b915060008061431f858a8a868151811061430557fe5b6020026020010151602001516001600160601b03166143d7565b909550859250905080156143645761436460405180604001604052808d815260200183815250888a868151811061435257fe5b602002602001015160000151896136fd565b50506001016142b3565b50965096945050505050565b6000828211156143d1576040805162461bcd60e51b815260206004820152601e60248201527f536166654d6174683a207375627472616374696f6e206f766572666c6f770000604482015290519081900360640190fd5b50900390565b6000806143ed856143e886866136e5565b61456e565b91509150935093915050565b80516060906001600160e01b03191663025ceed960e61b148061442d575081516001600160e01b0319166339d690a360e11b145b156144e357600080836020015180602001905181019061444d9190614b99565b61012e54604051634e53ee3d60e11b81529294509092506001600160a01b031690639ca7dc7a9061448490859085906004016150ea565b600060405180830381600087803b15801561449e57600080fd5b505af11580156144b2573d6000803e3d6000fd5b505050506040513d6000823e601f3d908101601f191682016040526144da9190810190614e27565b925050506106ac565b81516001600160e01b03191662737ea960e61b1415614524576000826020015180602001905181019061451691906149a9565b6080015192506106ac915050565b81516001600160e01b03191663d8f960c160e01b141561456657600082602001518060200190518101906145589190614aa6565b6060015192506106ac915050565b506060919050565b6000808284111561458d57614583848461437a565b9150829050614594565b5060009050825b9250929050565b828054600181600116156101000203166002900490600052602060002090601f0160209004810192826145d15760008555614617565b82601f106145ea57805160ff1916838001178555614617565b82800160010185558215614617579182015b828111156146175782518255916020019190600101906145fc565b506146239291506146dd565b5090565b50805460018160011615610100020316600290046000825580601f1061464d5750610a35565b601f016020900490600052602060002090810190610a3591906146dd565b6040518060800160405280600081526020016000815260200160008152602001600081525090565b6040518060200160405280600081525090565b604080518082019091526000808252602082015290565b60405180604001604052806146d06146f2565b8152602001600081525090565b5b8082111561462357600081556001016146de565b60408051808201909152600081526060602082015290565b600061471d61471884615704565b6156c4565b905082815283838301111561473157600080fd5b610904836020830184615725565b600082601f83011261474f578081fd5b8151602061475f614718836156e7565b82815281810190858301855b858110156147a9578151880189603f820112614785578788fd5b6147968a878301516040840161470a565b855250928401929084019060010161476b565b5090979650505050505050565b600082601f8301126147c6578081fd5b815160206147d6614718836156e7565b828152818101908583016040808602880185018910156147f4578687fd5b865b868110156148585781838b03121561480c578788fd5b81518281018181106001600160401b038211171561482657fe5b8352835161483381615751565b81528387015161484281615766565b81880152855293850193918101916001016147f6565b509198975050505050505050565b600082601f830112614876578081fd5b81356020614886614718836156e7565b82815281810190858301838502870184018810156148a2578586fd5b855b858110156147a9578135845292840192908401906001016148a4565b80356001600160e01b0319811681146106ac57600080fd5b600082601f8301126148e8578081fd5b81356148f661471882615704565b81815284602083860101111561490a578283fd5b816020850160208301379081016020019190915292915050565b600082601f830112614934578081fd5b6109048383516020850161470a565b80356001600160801b03811681146106ac57600080fd5b80356001600160401b03811681146106ac57600080fd5b600060208284031215614982578081fd5b813561090481615751565b60006020828403121561499e578081fd5b815161090481615751565b600080604083850312156149bb578081fd5b82516149c681615751565b60208401519092506001600160401b03808211156149e2578283fd5b9084019060c082870312156149f5578283fd5b6149ff60c06156c4565b82518152602083015182811115614a14578485fd5b614a2088828601614924565b60208301525060408301516040820152606083015182811115614a41578485fd5b614a4d888286016147b6565b606083015250608083015182811115614a64578485fd5b614a70888286016147b6565b60808301525060a083015182811115614a87578485fd5b614a938882860161473f565b60a0830152508093505050509250929050565b60008060408385031215614ab8578182fd5b8251614ac381615751565b60208401519092506001600160401b0380821115614adf578283fd5b9084019060a08287031215614af2578283fd5b614afc60a06156c4565b82518152602083015182811115614b11578485fd5b614b1d88828601614924565b602083015250604083015182811115614b34578485fd5b614b40888286016147b6565b604083015250606083015182811115614b57578485fd5b614b63888286016147b6565b606083015250608083015182811115614b7a578485fd5b614b868882860161473f565b6080830152508093505050509250929050565b60008060408385031215614bab578182fd5b8251614bb681615751565b6020939093015192949293505050565b60008060408385031215614bd8578182fd5b8235614be381615751565b91506020830135614bf381615751565b809150509250929050565b600080600080600060a08688031215614c15578081fd5b8535614c2081615751565b94506020860135614c3081615751565b935060408601356001600160401b0380821115614c4b578283fd5b614c5789838a01614866565b94506060880135915080821115614c6c578283fd5b614c7889838a01614866565b93506080880135915080821115614c8d578283fd5b50614c9a888289016148d8565b9150509295509295909350565b600080600080600060a08688031215614cbe578283fd5b8535614cc981615751565b94506020860135614cd981615751565b9350604086013592506060860135915060808601356001600160401b03811115614d01578182fd5b614c9a888289016148d8565b60008060008060008060c08789031215614d25578384fd5b8635614d3081615751565b95506020870135614d4081615751565b94506040870135614d5081615751565b93506060870135614d6081615751565b9250614d6e6080880161495a565b9150614d7c60a08801614943565b90509295509295509295565b600080600080600080600060e0888a031215614da2578485fd5b8735614dad81615751565b96506020880135614dbd81615766565b9550604088013594506060880135614dd481615751565b93506080880135614de481615766565b9250614df260a089016148c0565b915060c08801356001600160401b03811115614e0c578182fd5b614e188a828b016148d8565b91505092959891949750929550565b600060208284031215614e38578081fd5b81516001600160401b03811115614e4d578182fd5b614e59848285016147b6565b949350505050565b600060208284031215614e72578081fd5b81518015158114610904578182fd5b600060208284031215614e92578081fd5b610904826148c0565b60008060408385031215614ead578182fd5b614be3836148c0565b600060808284031215614ec7578081fd5b604051608081018181106001600160401b0382111715614ee357fe5b8060405250825181526020830151602082015260408301516040820152606083015160608201528091505092915050565b600060208284031215614f25578081fd5b604051602081018181106001600160401b0382111715614f4157fe5b6040529151825250919050565b600060208284031215614f5f578081fd5b61090482614943565b600060208284031215614f79578081fd5b5035919050565b60008060408385031215614f92578182fd5b8235915060208301356001600160401b0380821115614faf578283fd5b9084019060608287031215614fc2578283fd5b604051606081018181108382111715614fd757fe5b60405282358152614fea602084016148c0565b6020820152604083013582811115615000578485fd5b61500c888286016148d8565b6040830152508093505050509250929050565b600060208284031215615030578081fd5b6109048261495a565b60006020828403121561504a578081fd5b813561090481615766565b90565b6001600160a01b0391909116815260200190565b6001600160a01b039290921682526001600160601b0316602082015260400190565b6001600160a01b039384168152919092166020820152604081019190915260600190565b6001600160a01b0394851681529290931660208301526040820152606081019190915260a06080820181905260009082015260c00190565b6001600160a01b03929092168252602082015260400190565b901515815260200190565b6001600160e01b031991909116815260200190565b6001600160a01b03958616815293851660208501529190931660408301526060820192909252608081019190915260c060a0820181905260009082015260e00190565b6001600160a01b039485168152928416602084015292166040820152606081019190915260800190565b60208082526019908201527f696e636f7272656374205f73656c6c546f6b656e56616c756500000000000000604082015260600190565b6020808252601590820152741bdb9b1e4811551208189a591cc8185b1b1bddd959605a1b604082015260600190565b6020808252601d908201527f526f79616c746965732061726520746f6f206869676820283e35302529000000604082015260600190565b6020808252818101527f7468657265206973206e6f2061756374696f6e20776974682074686973206964604082015260600190565b6020808252600b908201526a62696420746f6f206c6f7760a81b604082015260600190565b60208082526024908201527f7472616e736665725061796f7574733a206e6f7468696e6720746f207472616e60408201526339b332b960e11b606082015260800190565b60208082526012908201527134b731b7b93932b1ba10323ab930ba34b7b760711b604082015260600190565b6020808252601a908201527f61756374696f6e206f776e6572206e6f74206465746563746564000000000000604082015260600190565b6020808252600d908201526c189a59081d1bdbc81cdb585b1b609a1b604082015260600190565b6020808252600e908201526d0dcdee840cadcdeeaced0408aa8960931b604082015260600190565b602080825260149082015273696e636f72726563742073746172742074696d6560601b604082015260600190565b60208082526012908201527132b9319b9918903b30b63ab29032b93937b960711b604082015260600190565b6020808252601590820152741b9bdd08195b9bdd59da08199bdc88189d5e5bdd5d605a1b604082015260600190565b6020808252601d908201527f63616e27742063616e63656c2061756374696f6e207769746820626964000000604082015260600190565b602080825260139082015272185b1c9958591e481dda5b9b9a5b99c8189a59606a1b604082015260600190565b60208082526013908201527261756374696f6e20697320696e61637469766560681b604082015260600190565b6020808252601e908201527f53756d207061796f75747320427073206e6f7420657175616c20313030250000604082015260600190565b6020808252601390820152726e6f7468696e6720746f20776974686472617760681b604082015260600190565b60208082526016908201527577726f6e672061756374696f6e20646174615479706560501b604082015260600190565b6020808252602b908201527f6f6e6c7920656e6465642061756374696f6e2077697468206269642063616e2060408201526a189948199a5b9a5cda195960aa1b606082015260800190565b60208082526012908201527177726f6e672062696420646174615479706560701b604082015260600190565b60006060825284516040606084015263ffffffff60e01b81511660a084015260208101519050604060c084015280518060e08501526101006155ea8282870160208601615725565b60209788015160808601526001600160a01b039687169785019790975293909416604083015250601f909101601f191601909101919050565b6001600160801b0391909116815260200190565b6001600160801b0392831681529116602082015260400190565b90815260200190565b918252602082015260400190565b6001600160401b0391909116815260200190565b6001600160401b0392831681529116602082015260400190565b6001600160601b0391909116815260200190565b6001600160601b0392831681529116602082015260400190565b6040518181016001600160401b03811182821017156156df57fe5b604052919050565b60006001600160401b038211156156fa57fe5b5060209081020190565b60006001600160401b0382111561571757fe5b50601f01601f191660200190565b60005b83811015615740578181015183820152602001615728565b83811115612c5f5750506000910152565b6001600160a01b0381168114610a3557600080fd5b6001600160601b0381168114610a3557600080fdfe5265656e7472616e637947756172643a207265656e7472616e742063616c6c004f776e61626c653a206e6577206f776e657220697320746865207a65726f2061646472657373496e697469616c697a61626c653a20636f6e747261637420697320616c726561647920696e697469616c697a6564536166654d6174683a206d756c7469706c69636174696f6e206f766572666c6f77973bb64086f173ec8099b7ed3d43da984f4a332e4417a08bc6a286e6402b05864f776e61626c653a2063616c6c6572206973206e6f7420746865206f776e6572a264697066735822122042201e93f47a94604de69cc11ded2575cc7fe412c01b486e6c820fbcdb6f175d64736f6c63430007060033",
  "immutableReferences": {},
  "source": "// SPDX-License-Identifier: MIT\n\npragma solidity 0.7.6;\npragma abicoder v2;\n\nimport \"./AuctionHouseStruct1155.sol\";\nimport \"../AuctionHouseBase.sol\";\n\nimport \"@openzeppelin/contracts-upgradeable/math/SafeMathUpgradeable.sol\";\nimport \"@openzeppelin/contracts-upgradeable/token/ERC1155/ERC1155HolderUpgradeable.sol\";\n\n/// @dev contract to create and interact with auctions\ncontract AuctionHouse1155 is ERC1155HolderUpgradeable, AuctionHouseStruct1155, AuctionHouseBase {\n    using LibTransfer for address;\n    using BpLibrary for uint;\n\n    function __AuctionHouse1155_init(\n        address newDefaultFeeReceiver,\n        IRoyaltiesProvider newRoyaltiesProvider,\n        address transferProxy,\n        address erc20TransferProxy,\n        uint64 _protocolFee,\n        uint128 _minimalStepBasePoint\n    ) external initializer {\n        __Context_init_unchained();\n        __Ownable_init_unchained();\n        __ERC1155Receiver_init_unchained();\n        __ReentrancyGuard_init_unchained();\n        __AuctionHouseBase_init_unchained(_protocolFee, _minimalStepBasePoint);\n        __RaribleTransferManager_init(newDefaultFeeReceiver, newRoyaltiesProvider, transferProxy, erc20TransferProxy);\n        __AuctionHouse1155_init_unchained();\n    }\n\n    function __AuctionHouse1155_init_unchained() internal initializer {  \n    }\n\n    /// @dev creates an auction and locks sell asset\n    function startAuction(\n        address _sellToken,\n        uint96 _sellTokenValue,\n        uint _sellTokenId,\n        address _buyAsset,\n        uint96 minimalPrice,\n        bytes4 dataType,\n        bytes memory data\n    ) external {\n        //todo: check if token contract supports ERC1155 interface?\n    \n        LibAucDataV1.DataV1 memory aucData = LibAucDataV1.parse(data, dataType);\n        require(aucData.duration >= minimalDuration && aucData.duration <= MAX_DURATION, \"incorrect duration\");\n        require(_sellTokenValue > 0, \"incorrect _sellTokenValue\");\n\n        uint96 endTime = 0;\n        if (aucData.startTime > 0){\n            require (aucData.startTime >= block.timestamp, \"incorrect start time\");\n            endTime = uint96(aucData.startTime + aucData.duration);\n        }\n\n        uint currentAuctionId = getNextAndIncrementAuctionId();\n        address payable sender = _msgSender();\n        Auction memory auc = Auction(\n            _sellToken,\n            _sellTokenValue,\n            _sellTokenId,\n            _buyAsset,\n            endTime,\n            Bid(0, \"\", \"\"),\n            sender,\n            minimalPrice,\n            payable(address(0)),\n            protocolFee,\n            dataType,\n            data\n        );\n        auctions[currentAuctionId] = auc;\n\n        transferNFT(\n            _sellToken, \n            _sellTokenId, \n            _sellTokenValue, \n            LibAsset.ERC1155_ASSET_CLASS,\n            sender,\n            address(this)\n        );\n        \n        emit AuctionCreated(currentAuctionId, sender, endTime);\n    }\n\n    /// @dev put a bid and return locked assets for the last bid\n    function putBid(uint _auctionId, Bid memory bid) payable public nonReentrant {\n        address payable newBuyer = _msgSender();\n        uint newAmount = bid.amount;\n        Auction memory currentAuction = auctions[_auctionId];\n        uint96 endTime = currentAuction.endTime;\n        LibAucDataV1.DataV1 memory aucData = LibAucDataV1.parse(currentAuction.data, currentAuction.dataType);\n        uint bidOriginFee = LibBidDataV1.parse(bid.data, bid.dataType).originFee;\n        uint totalAmount = calculateTotalAmount(\n            bid.amount, \n            currentAuction.protocolFee, \n            getOriginFee(bidOriginFee)\n        );\n        if (currentAuction.buyAsset == address(0)) {\n            checkEthReturnChange(totalAmount, newBuyer);\n        }\n        checkAuctionInProgress(currentAuction, aucData);\n        if (buyOutVerify(aucData, newAmount)) {\n            _buyOut(\n                currentAuction,\n                bid,\n                aucData,\n                _auctionId,\n                bidOriginFee,\n                totalAmount,\n                newBuyer\n            );\n            return;\n        }\n        \n        uint96 currentTime = uint96(block.timestamp);\n        //start action if minimal price is met\n        if (currentAuction.buyer == address(0x0)) {//no bid at all\n            // set endTime if it's not set\n            if (currentAuction.endTime == 0){\n                endTime = uint96(currentTime + aucData.duration);\n                auctions[_auctionId].endTime = endTime;\n                currentAuction.endTime = endTime;\n                \n            }\n            require(newAmount >= currentAuction.minimalPrice, \"bid too small\");\n        } else {//there is bid in auction\n            require(currentAuction.buyer != newBuyer, \"already winning bid\");\n            uint256 minAmount = _getMinimalNextBid(currentAuction);\n            require(newAmount >= minAmount, \"bid too low\");\n        }\n\n        address proxy = _getProxy(currentAuction.buyAsset);\n        reserveBid(\n            currentAuction.buyAsset,\n            currentAuction.protocolFee,\n            currentAuction.buyer,\n            newBuyer,\n            currentAuction.lastBid,\n            proxy,\n            totalAmount\n        );\n        auctions[_auctionId].lastBid = bid;\n        auctions[_auctionId].buyer = newBuyer;\n\n        // auction is extended for EXTENSION_DURATION or minimalDuration if (minimalDuration < EXTENSION_DURATION)\n        uint96 minDur = minimalDuration;\n        uint96 extension = (minDur < EXTENSION_DURATION) ? minDur : EXTENSION_DURATION;\n\n        // extends auction time if it's about to end\n        if (endTime - currentTime < extension) {\n            endTime = currentTime + extension;\n            auctions[_auctionId].endTime = endTime;\n        }\n        emit BidPlaced(_auctionId, newBuyer, endTime);\n    }\n\n    /// @dev reserves new bid and returns the last one if it exists\n    function reserveBid(\n        address buyAsset,\n        uint128 curProtocolFee,\n        address oldBuyer,\n        address newBuyer,\n        Bid memory oldBid,\n        address proxy,\n        uint newTotalAmount\n    ) internal {\n        // return old bid if theres any\n        _returnBid(\n            oldBid,\n            buyAsset,\n            oldBuyer,\n            curProtocolFee,\n            proxy\n        );\n        \n        //lock new bid\n        transferBid(\n            newTotalAmount,\n            buyAsset,\n            newBuyer,\n            address(this),\n            proxy\n        );\n    }\n\n    /// @dev returns the minimal amount of the next bid (without fees)\n    function getMinimalNextBid(uint _auctionId) external view returns (uint minBid){\n        Auction memory currentAuction = auctions[_auctionId];\n        return _getMinimalNextBid(currentAuction);\n    }\n\n    /// @dev returns the minimal amount of the next bid (without fees)\n    function _getMinimalNextBid(Auction memory currentAuction) internal view returns (uint minBid){\n        if (currentAuction.buyer == address(0x0)) {\n            minBid = currentAuction.minimalPrice;\n        } else {\n            minBid = currentAuction.lastBid.amount + currentAuction.lastBid.amount.bp(minimalStepBasePoint);\n        }\n    }\n\n    /// @dev returns true if auction exists, false otherwise\n    function checkAuctionExistence(uint _auctionId) external view returns (bool){\n        return auctions[_auctionId].seller != address(0);\n    }\n\n    /// @dev returns true if auction exists, false otherwise\n    function _checkAuctionExistence(Auction memory currentAuction) internal pure returns (bool){\n        return currentAuction.seller != address(0);\n    }\n\n    /// @dev returns true if newAmount is enough for buyOut\n    function buyOutVerify(LibAucDataV1.DataV1 memory aucData, uint newAmount) internal pure returns (bool) {\n        if (aucData.buyOutPrice > 0 && aucData.buyOutPrice <= newAmount) {\n            return true;\n        }\n        return false;\n    }\n\n    /// @dev finishes, deletes and transfers all assets for an auction if it's ended (it exists, it has at least one bid, now > endTme)\n    function finishAuction(uint _auctionId) external nonReentrant {\n        Auction memory currentAuction = auctions[_auctionId];\n        require(_checkAuctionExistence(currentAuction), \"there is no auction with this id\");\n        LibAucDataV1.DataV1 memory aucData = LibAucDataV1.parse(currentAuction.data, currentAuction.dataType);\n        require(\n            !_checkAuctionRangeTime(currentAuction.endTime, aucData.startTime) &&\n            currentAuction.buyer != address(0),\n            \"only ended auction with bid can be finished\"\n        );\n        uint bidOriginFee = LibBidDataV1.parse(currentAuction.lastBid.data, currentAuction.lastBid.dataType).originFee;\n        uint totalAmount = calculateTotalAmount(\n            currentAuction.lastBid.amount, \n            currentAuction.protocolFee, \n            getOriginFee(bidOriginFee)\n        );\n        doTransfers(\n            LibDeal.DealSide(\n                getSellAsset(\n                    currentAuction.sellToken, \n                    currentAuction.sellTokenId,\n                    currentAuction.sellTokenValue,\n                    LibAsset.ERC1155_ASSET_CLASS\n                ),\n                getPayouts(currentAuction.seller),\n                getOriginFee(aucData.originFee),\n                proxies[LibAsset.ERC1155_ASSET_CLASS],\n                address(this)\n            ), \n            LibDeal.DealSide(\n                getBuyAsset(\n                    currentAuction.buyAsset,\n                    currentAuction.lastBid.amount\n                ),\n                getPayouts(currentAuction.buyer),\n                getOriginFee(bidOriginFee),\n                _getProxy(currentAuction.buyAsset),\n                address(this)\n            ), \n            LibFeeSide.FeeSide.RIGHT, \n            currentAuction.protocolFee\n        );\n        deactivateAuction(_auctionId);\n    }\n\n    /// @dev returns true if auction started and hasn't finished yet, false otherwise\n    function checkAuctionRangeTime(uint _auctionId) external view returns (bool){\n        uint currentTime = block.timestamp;\n        LibAucDataV1.DataV1 memory aucData = LibAucDataV1.parse(auctions[_auctionId].data, auctions[_auctionId].dataType);\n        if (aucData.startTime > 0 && aucData.startTime > currentTime) {\n            return false;\n        }\n        uint endTime = auctions[_auctionId].endTime;\n        if (endTime > 0 && endTime <= currentTime){\n            return false;\n        }\n\n        return true;\n    }\n\n    function _checkAuctionRangeTime(uint endTime, uint startTime) internal view returns (bool){\n        uint currentTime = block.timestamp;\n        if (startTime > 0 && startTime > currentTime) {\n            return false;\n        }\n        if (endTime > 0 && endTime <= currentTime){\n            return false;\n        }\n\n        return true;\n    }\n\n    /// @dev deletes auction after finalizing\n    function deactivateAuction(uint _auctionId) internal {\n        emit AuctionFinished(_auctionId);\n        delete auctions[_auctionId];\n    }\n\n    /// @dev cancels existing auction without bid\n    function cancel(uint _auctionId) external nonReentrant {\n        Auction memory currentAuction = auctions[_auctionId];\n        require(_checkAuctionExistence(currentAuction), \"there is no auction with this id\");\n        address seller = currentAuction.seller;\n        require(seller == _msgSender(), \"auction owner not detected\");\n        require(currentAuction.buyer == address(0), \"can't cancel auction with bid\");\n        transferNFT(\n            currentAuction.sellToken, \n            currentAuction.sellTokenId, \n            currentAuction.sellTokenValue, \n            LibAsset.ERC1155_ASSET_CLASS,\n            address(this),\n            seller\n        );\n        deactivateAuction(_auctionId);\n        emit AuctionCancelled(_auctionId);\n    }\n\n    // todo will there be a problem if buyer is last bidder?\n    /// @dev buyout auction if bid satisfies buyout condition\n    function buyOut(uint _auctionId, Bid memory bid) external payable nonReentrant {\n        Auction memory currentAuction = auctions[_auctionId];\n        LibAucDataV1.DataV1 memory aucData = LibAucDataV1.parse(currentAuction.data, currentAuction.dataType);\n        checkAuctionInProgress(currentAuction, aucData);\n        require(buyOutVerify(aucData, bid.amount), \"not enough for buyout\");\n        uint bidOriginFee = LibBidDataV1.parse(bid.data, bid.dataType).originFee;\n        uint totalAmount = calculateTotalAmount(\n            bid.amount, \n            currentAuction.protocolFee, \n            getOriginFee(bidOriginFee)\n        );\n        address sender = _msgSender();\n        if (currentAuction.buyAsset == address(0)) {\n            checkEthReturnChange(totalAmount, sender);\n        }\n        _buyOut(\n            currentAuction,\n            bid,\n            aucData,\n            _auctionId,\n            bidOriginFee,\n            totalAmount,\n            sender\n        );\n    }\n\n    function _buyOut(\n        Auction memory currentAuction,\n        Bid memory bid,\n        LibAucDataV1.DataV1 memory aucData,\n        uint _auctionId,\n        uint newBidOriginFee,\n        uint newTotalAmount,\n        address sender\n    ) internal {\n        address proxy = _getProxy(currentAuction.buyAsset);\n\n        _returnBid(\n            currentAuction.lastBid,\n            currentAuction.buyAsset,\n            currentAuction.buyer,\n            currentAuction.protocolFee,\n            proxy\n        );\n\n        address from;\n        if (currentAuction.buyAsset == address(0)) {\n            // if buyAsset = ETH\n            from = address(this);\n        } else {\n            // if buyAsset = ERC20\n            from = sender;\n        }\n        doTransfers(\n            LibDeal.DealSide(\n                getSellAsset(\n                    currentAuction.sellToken, \n                    currentAuction.sellTokenId,\n                    currentAuction.sellTokenValue,\n                    LibAsset.ERC1155_ASSET_CLASS\n                ),\n                getPayouts(currentAuction.seller),\n                getOriginFee(aucData.originFee),\n                proxies[LibAsset.ERC1155_ASSET_CLASS],\n                address(this)\n            ), \n            LibDeal.DealSide(\n                getBuyAsset(\n                    currentAuction.buyAsset,\n                    bid.amount\n                ),\n                getPayouts(sender),\n                getOriginFee(newBidOriginFee),\n                proxy,\n                from\n            ), \n            LibFeeSide.FeeSide.RIGHT, \n            currentAuction.protocolFee\n        );\n        \n        deactivateAuction(_auctionId);\n        emit AuctionBuyOut(auctionId, sender);\n    }\n\n    /// @dev returns current highest bidder for an auction\n    function getCurrentBuyer(uint _auctionId) public view returns(address) {\n        return auctions[_auctionId].buyer;\n    }\n\n    /// @dev returns true if auction in progress, false otherwise\n    function checkAuctionInProgress(Auction memory currentAuction, LibAucDataV1.DataV1 memory aucData) internal view{\n        require(_checkAuctionExistence(currentAuction) && _checkAuctionRangeTime(currentAuction.endTime, aucData.startTime), \"auction is inactive\");\n    }\n\n    /// @dev function to call from wrapper to put bid\n    function putBidWrapper(uint256 _auctionId) external payable {\n        require(auctions[_auctionId].buyAsset == address(0), \"only ETH bids allowed\");\n        putBid(_auctionId, Bid(msg.value, LibBidDataV1.V1, \"\"));\n    }\n\n    /// @dev Used to withdraw faulty bids (bids that failed to return after out-bidding)\n    function withdrawFaultyBid(address _to) external {\n        address sender = _msgSender();\n        uint amount = readyToWithdraw[sender];\n        require( amount > 0, \"nothing to withdraw\");\n        readyToWithdraw[sender] = 0;\n        _to.transferEth(amount);\n    }\n\n    function _returnBid(\n        Bid memory oldBid,\n        address buyAsset,\n        address oldBuyer,\n        uint128 curProtocolFee,\n        address proxy\n    ) internal {\n        // nothing to return\n        if (oldBuyer == address(0)) {\n            return;\n        }\n        uint oldTotalAmount = calculateTotalAmount(oldBid.amount, curProtocolFee, getOriginFee(LibBidDataV1.parse(oldBid.data, oldBid.dataType).originFee));\n        if (buyAsset == address(0)) {\n            (bool success,) = oldBuyer.call{ value: oldTotalAmount }(\"\");\n            if (!success) {\n                uint currentValueToWithdraw = readyToWithdraw[oldBuyer];\n                uint newValueToWithdraw = oldTotalAmount + (currentValueToWithdraw);\n                readyToWithdraw[oldBuyer] = newValueToWithdraw;\n                emit AvailableToWithdraw(oldBuyer, oldTotalAmount, newValueToWithdraw);\n            }\n        } else {\n            transferBid(\n                oldTotalAmount,\n                buyAsset,\n                address(this),\n                oldBuyer,\n                proxy\n            );\n        }\n    }\n\n    function _getProxy(address buyAsset) internal view returns(address){\n        address proxy;\n        if (buyAsset != address(0)){\n            proxy = proxies[LibAsset.ERC20_ASSET_CLASS];\n        }\n        return proxy;\n    }\n\n    /// @dev check that msg.value more than bid amount with fees and return change\n    function checkEthReturnChange(uint totalAmount, address buyer) internal {\n        uint msgValue = msg.value;\n        require(msgValue >= totalAmount, \"not enough ETH\");\n        uint256 change = msg.value - totalAmount;\n        if (change > 0) {\n            buyer.transferEth(change);\n        }\n    }\n\n    function supportsInterface(bytes4 interfaceId) public view virtual override returns (bool) {\n        return this.supportsInterface(interfaceId);\n    }\n\n}",
  "sourcePath": "/Users/ds/Documents/rarible/protocol-contracts/auction/contracts/1155/AuctionHouse1155.sol",
  "compiler": {
    "name": "solc",
    "version": "0.7.6+commit.7338295f.Emscripten.clang"
  },
  "schemaVersion": "3.4.3",
  "updatedAt": "2022-03-09T10:01:50.539Z",
  "devdoc": {
    "details": "contract to create and interact with auctions",
    "kind": "dev",
    "methods": {
      "buyOut(uint256,(uint256,bytes4,bytes))": {
        "details": "buyout auction if bid satisfies buyout condition"
      },
      "cancel(uint256)": {
        "details": "cancels existing auction without bid"
      },
      "checkAuctionExistence(uint256)": {
        "details": "returns true if auction exists, false otherwise"
      },
      "checkAuctionRangeTime(uint256)": {
        "details": "returns true if auction started and hasn't finished yet, false otherwise"
      },
      "finishAuction(uint256)": {
        "details": "finishes, deletes and transfers all assets for an auction if it's ended (it exists, it has at least one bid, now > endTme)"
      },
      "getCurrentBuyer(uint256)": {
        "details": "returns current highest bidder for an auction"
      },
      "getMinimalNextBid(uint256)": {
        "details": "returns the minimal amount of the next bid (without fees)"
      },
      "owner()": {
        "details": "Returns the address of the current owner."
      },
      "putBid(uint256,(uint256,bytes4,bytes))": {
        "details": "put a bid and return locked assets for the last bid"
      },
      "putBidWrapper(uint256)": {
        "details": "function to call from wrapper to put bid"
      },
      "renounceOwnership()": {
        "details": "Leaves the contract without owner. It will not be possible to call `onlyOwner` functions anymore. Can only be called by the current owner. NOTE: Renouncing ownership will leave the contract without an owner, thereby removing any functionality that is only available to the owner."
      },
      "startAuction(address,uint96,uint256,address,uint96,bytes4,bytes)": {
        "details": "creates an auction and locks sell asset"
      },
      "supportsInterface(bytes4)": {
        "details": "See {IERC165-supportsInterface}. Time complexity O(1), guaranteed to always use less than 30 000 gas."
      },
      "transferOwnership(address)": {
        "details": "Transfers ownership of the contract to a new account (`newOwner`). Can only be called by the current owner."
      },
      "withdrawFaultyBid(address)": {
        "details": "Used to withdraw faulty bids (bids that failed to return after out-bidding)"
      }
    },
    "version": 1
  },
  "userdoc": {
    "kind": "user",
    "methods": {},
    "version": 1
  }
}