{
  "contractName": "AuctionHouse721",
  "abi": [
    {
      "anonymous": false,
      "inputs": [
        {
          "indexed": true,
          "internalType": "uint256",
          "name": "auctionId",
          "type": "uint256"
        },
        {
          "indexed": false,
          "internalType": "address",
          "name": "buyer",
          "type": "address"
        }
      ],
      "name": "AuctionBuyOut",
      "type": "event"
    },
    {
      "anonymous": false,
      "inputs": [
        {
          "indexed": true,
          "internalType": "uint256",
          "name": "auctionId",
          "type": "uint256"
        }
      ],
      "name": "AuctionCancelled",
      "type": "event"
    },
    {
      "anonymous": false,
      "inputs": [
        {
          "indexed": true,
          "internalType": "uint256",
          "name": "auctionId",
          "type": "uint256"
        },
        {
          "indexed": false,
          "internalType": "address",
          "name": "buyer",
          "type": "address"
        },
        {
          "indexed": false,
          "internalType": "uint128",
          "name": "endTime",
          "type": "uint128"
        }
      ],
      "name": "AuctionCreated",
      "type": "event"
    },
    {
      "anonymous": false,
      "inputs": [
        {
          "indexed": true,
          "internalType": "uint256",
          "name": "auctionId",
          "type": "uint256"
        }
      ],
      "name": "AuctionFinished",
      "type": "event"
    },
    {
      "anonymous": false,
      "inputs": [
        {
          "indexed": true,
          "internalType": "address",
          "name": "owner",
          "type": "address"
        },
        {
          "indexed": false,
          "internalType": "uint256",
          "name": "added",
          "type": "uint256"
        },
        {
          "indexed": false,
          "internalType": "uint256",
          "name": "total",
          "type": "uint256"
        }
      ],
      "name": "AvailableToWithdraw",
      "type": "event"
    },
    {
      "anonymous": false,
      "inputs": [
        {
          "indexed": true,
          "internalType": "uint256",
          "name": "auctionId",
          "type": "uint256"
        },
        {
          "indexed": false,
          "internalType": "address",
          "name": "buyer",
          "type": "address"
        },
        {
          "indexed": false,
          "internalType": "uint256",
          "name": "endTime",
          "type": "uint256"
        }
      ],
      "name": "BidPlaced",
      "type": "event"
    },
    {
      "anonymous": false,
      "inputs": [
        {
          "indexed": false,
          "internalType": "uint256",
          "name": "oldValue",
          "type": "uint256"
        },
        {
          "indexed": false,
          "internalType": "uint256",
          "name": "newValue",
          "type": "uint256"
        }
      ],
      "name": "MinimalDurationChanged",
      "type": "event"
    },
    {
      "anonymous": false,
      "inputs": [
        {
          "indexed": false,
          "internalType": "uint256",
          "name": "oldValue",
          "type": "uint256"
        },
        {
          "indexed": false,
          "internalType": "uint256",
          "name": "newValue",
          "type": "uint256"
        }
      ],
      "name": "MinimalStepChanged",
      "type": "event"
    },
    {
      "anonymous": false,
      "inputs": [
        {
          "indexed": true,
          "internalType": "address",
          "name": "previousOwner",
          "type": "address"
        },
        {
          "indexed": true,
          "internalType": "address",
          "name": "newOwner",
          "type": "address"
        }
      ],
      "name": "OwnershipTransferred",
      "type": "event"
    },
    {
      "anonymous": false,
      "inputs": [
        {
          "indexed": false,
          "internalType": "uint256",
          "name": "oldValue",
          "type": "uint256"
        },
        {
          "indexed": false,
          "internalType": "uint256",
          "name": "newValue",
          "type": "uint256"
        }
      ],
      "name": "ProtocolFeeChanged",
      "type": "event"
    },
    {
      "anonymous": false,
      "inputs": [
        {
          "indexed": true,
          "internalType": "bytes4",
          "name": "assetType",
          "type": "bytes4"
        },
        {
          "indexed": false,
          "internalType": "address",
          "name": "proxy",
          "type": "address"
        }
      ],
      "name": "ProxyChange",
      "type": "event"
    },
    {
      "inputs": [],
      "name": "auctionId",
      "outputs": [
        {
          "internalType": "uint256",
          "name": "",
          "type": "uint256"
        }
      ],
      "stateMutability": "view",
      "type": "function"
    },
    {
      "inputs": [
        {
          "internalType": "uint96",
          "name": "newValue",
          "type": "uint96"
        }
      ],
      "name": "changeMinimalDuration",
      "outputs": [],
      "stateMutability": "nonpayable",
      "type": "function"
    },
    {
      "inputs": [
        {
          "internalType": "uint128",
          "name": "newValue",
          "type": "uint128"
        }
      ],
      "name": "changeMinimalStep",
      "outputs": [],
      "stateMutability": "nonpayable",
      "type": "function"
    },
    {
      "inputs": [],
      "name": "defaultFeeReceiver",
      "outputs": [
        {
          "internalType": "address",
          "name": "",
          "type": "address"
        }
      ],
      "stateMutability": "view",
      "type": "function"
    },
    {
      "inputs": [
        {
          "internalType": "address",
          "name": "",
          "type": "address"
        }
      ],
      "name": "feeReceivers",
      "outputs": [
        {
          "internalType": "address",
          "name": "",
          "type": "address"
        }
      ],
      "stateMutability": "view",
      "type": "function"
    },
    {
      "inputs": [
        {
          "internalType": "address",
          "name": "_collection",
          "type": "address"
        },
        {
          "internalType": "uint256",
          "name": "tokenId",
          "type": "uint256"
        }
      ],
      "name": "getAuctionByToken",
      "outputs": [
        {
          "internalType": "uint256",
          "name": "",
          "type": "uint256"
        }
      ],
      "stateMutability": "view",
      "type": "function"
    },
    {
      "inputs": [],
      "name": "minimalDuration",
      "outputs": [
        {
          "internalType": "uint96",
          "name": "",
          "type": "uint96"
        }
      ],
      "stateMutability": "view",
      "type": "function"
    },
    {
      "inputs": [],
      "name": "minimalStepBasePoint",
      "outputs": [
        {
          "internalType": "uint128",
          "name": "",
          "type": "uint128"
        }
      ],
      "stateMutability": "view",
      "type": "function"
    },
    {
      "inputs": [
        {
          "internalType": "address",
          "name": "",
          "type": "address"
        },
        {
          "internalType": "address",
          "name": "",
          "type": "address"
        },
        {
          "internalType": "uint256",
          "name": "",
          "type": "uint256"
        },
        {
          "internalType": "bytes",
          "name": "",
          "type": "bytes"
        }
      ],
      "name": "onERC721Received",
      "outputs": [
        {
          "internalType": "bytes4",
          "name": "",
          "type": "bytes4"
        }
      ],
      "stateMutability": "nonpayable",
      "type": "function"
    },
    {
      "inputs": [],
      "name": "owner",
      "outputs": [
        {
          "internalType": "address",
          "name": "",
          "type": "address"
        }
      ],
      "stateMutability": "view",
      "type": "function"
    },
    {
      "inputs": [],
      "name": "protocolFee",
      "outputs": [
        {
          "internalType": "uint256",
          "name": "",
          "type": "uint256"
        }
      ],
      "stateMutability": "view",
      "type": "function"
    },
    {
      "inputs": [],
      "name": "renounceOwnership",
      "outputs": [],
      "stateMutability": "nonpayable",
      "type": "function"
    },
    {
      "inputs": [],
      "name": "royaltiesRegistry",
      "outputs": [
        {
          "internalType": "contract IRoyaltiesProvider",
          "name": "",
          "type": "address"
        }
      ],
      "stateMutability": "view",
      "type": "function"
    },
    {
      "inputs": [
        {
          "internalType": "address payable",
          "name": "newDefaultFeeReceiver",
          "type": "address"
        }
      ],
      "name": "setDefaultFeeReceiver",
      "outputs": [],
      "stateMutability": "nonpayable",
      "type": "function"
    },
    {
      "inputs": [
        {
          "internalType": "address",
          "name": "token",
          "type": "address"
        },
        {
          "internalType": "address",
          "name": "wallet",
          "type": "address"
        }
      ],
      "name": "setFeeReceiver",
      "outputs": [],
      "stateMutability": "nonpayable",
      "type": "function"
    },
    {
      "inputs": [
        {
          "internalType": "uint64",
          "name": "_protocolFee",
          "type": "uint64"
        }
      ],
      "name": "setProtocolFee",
      "outputs": [],
      "stateMutability": "nonpayable",
      "type": "function"
    },
    {
      "inputs": [
        {
          "internalType": "contract IRoyaltiesProvider",
          "name": "newRoyaltiesRegistry",
          "type": "address"
        }
      ],
      "name": "setRoyaltiesRegistry",
      "outputs": [],
      "stateMutability": "nonpayable",
      "type": "function"
    },
    {
      "inputs": [
        {
          "internalType": "bytes4",
          "name": "assetType",
          "type": "bytes4"
        },
        {
          "internalType": "address",
          "name": "proxy",
          "type": "address"
        }
      ],
      "name": "setTransferProxy",
      "outputs": [],
      "stateMutability": "nonpayable",
      "type": "function"
    },
    {
      "inputs": [
        {
          "internalType": "address",
          "name": "newOwner",
          "type": "address"
        }
      ],
      "name": "transferOwnership",
      "outputs": [],
      "stateMutability": "nonpayable",
      "type": "function"
    },
    {
      "inputs": [
        {
          "internalType": "address",
          "name": "newDefaultFeeReceiver",
          "type": "address"
        },
        {
          "internalType": "contract IRoyaltiesProvider",
          "name": "newRoyaltiesProvider",
          "type": "address"
        },
        {
          "internalType": "address",
          "name": "_transferProxy",
          "type": "address"
        },
        {
          "internalType": "address",
          "name": "_erc20TransferProxy",
          "type": "address"
        },
        {
          "internalType": "uint64",
          "name": "newProtocolFee",
          "type": "uint64"
        },
        {
          "internalType": "uint128",
          "name": "_minimalStepBasePoint",
          "type": "uint128"
        }
      ],
      "name": "__AuctionHouse721_init",
      "outputs": [],
      "stateMutability": "nonpayable",
      "type": "function"
    },
    {
      "inputs": [
        {
          "internalType": "address",
          "name": "_sellToken",
          "type": "address"
        },
        {
          "internalType": "uint256",
          "name": "_sellTokenId",
          "type": "uint256"
        },
        {
          "internalType": "address",
          "name": "_buyAsset",
          "type": "address"
        },
        {
          "internalType": "uint96",
          "name": "minimalPrice",
          "type": "uint96"
        },
        {
          "internalType": "bytes4",
          "name": "dataType",
          "type": "bytes4"
        },
        {
          "internalType": "bytes",
          "name": "data",
          "type": "bytes"
        }
      ],
      "name": "startAuction",
      "outputs": [],
      "stateMutability": "nonpayable",
      "type": "function"
    },
    {
      "inputs": [
        {
          "internalType": "uint256",
          "name": "_auctionId",
          "type": "uint256"
        },
        {
          "components": [
            {
              "internalType": "uint256",
              "name": "amount",
              "type": "uint256"
            },
            {
              "internalType": "bytes4",
              "name": "dataType",
              "type": "bytes4"
            },
            {
              "internalType": "bytes",
              "name": "data",
              "type": "bytes"
            }
          ],
          "internalType": "struct AuctionHouseStruct721.Bid",
          "name": "bid",
          "type": "tuple"
        }
      ],
      "name": "putBid",
      "outputs": [],
      "stateMutability": "payable",
      "type": "function"
    },
    {
      "inputs": [
        {
          "internalType": "uint256",
          "name": "_auctionId",
          "type": "uint256"
        }
      ],
      "name": "getMinimalNextBid",
      "outputs": [
        {
          "internalType": "uint256",
          "name": "minBid",
          "type": "uint256"
        }
      ],
      "stateMutability": "view",
      "type": "function"
    },
    {
      "inputs": [
        {
          "internalType": "uint256",
          "name": "_auctionId",
          "type": "uint256"
        }
      ],
      "name": "checkAuctionExistence",
      "outputs": [
        {
          "internalType": "bool",
          "name": "",
          "type": "bool"
        }
      ],
      "stateMutability": "view",
      "type": "function"
    },
    {
      "inputs": [
        {
          "internalType": "uint256",
          "name": "_auctionId",
          "type": "uint256"
        }
      ],
      "name": "finishAuction",
      "outputs": [],
      "stateMutability": "nonpayable",
      "type": "function"
    },
    {
      "inputs": [
        {
          "internalType": "uint256",
          "name": "_auctionId",
          "type": "uint256"
        }
      ],
      "name": "checkAuctionRangeTime",
      "outputs": [
        {
          "internalType": "bool",
          "name": "",
          "type": "bool"
        }
      ],
      "stateMutability": "view",
      "type": "function"
    },
    {
      "inputs": [
        {
          "internalType": "uint256",
          "name": "_auctionId",
          "type": "uint256"
        }
      ],
      "name": "cancel",
      "outputs": [],
      "stateMutability": "nonpayable",
      "type": "function"
    },
    {
      "inputs": [
        {
          "internalType": "uint256",
          "name": "_auctionId",
          "type": "uint256"
        },
        {
          "components": [
            {
              "internalType": "uint256",
              "name": "amount",
              "type": "uint256"
            },
            {
              "internalType": "bytes4",
              "name": "dataType",
              "type": "bytes4"
            },
            {
              "internalType": "bytes",
              "name": "data",
              "type": "bytes"
            }
          ],
          "internalType": "struct AuctionHouseStruct721.Bid",
          "name": "bid",
          "type": "tuple"
        }
      ],
      "name": "buyOut",
      "outputs": [],
      "stateMutability": "payable",
      "type": "function"
    },
    {
      "inputs": [
        {
          "internalType": "uint256",
          "name": "_auctionId",
          "type": "uint256"
        }
      ],
      "name": "getCurrentBuyer",
      "outputs": [
        {
          "internalType": "address",
          "name": "",
          "type": "address"
        }
      ],
      "stateMutability": "view",
      "type": "function"
    },
    {
      "inputs": [
        {
          "internalType": "uint256",
          "name": "_auctionId",
          "type": "uint256"
        }
      ],
      "name": "putBidWrapper",
      "outputs": [],
      "stateMutability": "payable",
      "type": "function"
    },
    {
      "inputs": [
        {
          "internalType": "address",
          "name": "_to",
          "type": "address"
        }
      ],
      "name": "withdrawFaultyBid",
      "outputs": [],
      "stateMutability": "nonpayable",
      "type": "function"
    }
  ],
  "bytecode": "0x608060405234801561001057600080fd5b5061538a806100206000396000f3fe6080604052600436106101d85760003560e01c80636d8f069411610102578063b0e21e8a11610095578063e66db25e11610064578063e66db25e14610517578063ec57834814610537578063efa0598a14610557578063f2fde38b14610577576101d8565b8063b0e21e8a146104a2578063bd9d21bd146104b7578063c90f1f7c146104d7578063cf266ed0146104f7576101d8565b8063914bf5f9116100d1578063914bf5f91461042057806399523b9514610442578063a2a106b814610462578063a6f4a3e01461048f576101d8565b80636d8f0694146103c15780636eeb69db146103d6578063715018a6146103f65780638da5cb5b1461040b576101d8565b80632f5723361161017a5780633be89922116101495780633be899221461034e57806340e58ee51461036e57806343bc42d31461038e578063506a90e7146103ae576101d8565b80632f572336146102d757806330c642f1146102f957806336318815146103195780633abf6fd414610339576101d8565b8063150b7a02116101b6578063150b7a0214610255578063152b2c0a146102825780631cdfe3d8146102a25780632a6bf6a8146102c4576101d8565b806302097ab1146101dd5780630d6079641461021357806310782f8f14610240575b600080fd5b3480156101e957600080fd5b506101fd6101f836600461456c565b610597565b60405161020a9190614baa565b60405180910390f35b34801561021f57600080fd5b5061023361022e366004614aba565b6105b3565b60405161020a919061516c565b34801561024c57600080fd5b506102336107e6565b34801561026157600080fd5b506102756102703660046147f9565b6107ed565b60405161020a9190614c60565b34801561028e57600080fd5b5061023361029d3660046148dd565b6107fd565b3480156102ae57600080fd5b506102c26102bd36600461456c565b610828565b005b6102c26102d2366004614aba565b6108ac565b3480156102e357600080fd5b506102ec61094d565b60405161020a919061519a565b34801561030557600080fd5b506102c26103143660046149ed565b61095d565b34801561032557600080fd5b506102c2610334366004614b8b565b610a2e565b34801561034557600080fd5b506101fd610b00565b34801561035a57600080fd5b506102c261036936600461456c565b610b0f565b34801561037a57600080fd5b506102c2610389366004614aba565b610b93565b34801561039a57600080fd5b506102c26103a9366004614b71565b610efa565b6102c26103bc366004614ad2565b610fa5565b3480156103cd57600080fd5b506101fd61155e565b3480156103e257600080fd5b506101fd6103f1366004614aba565b61156d565b34801561040257600080fd5b506102c261158b565b34801561041757600080fd5b506101fd611637565b34801561042c57600080fd5b50610435611646565b60405161020a919061513e565b34801561044e57600080fd5b506102c261045d366004614862565b61165d565b34801561046e57600080fd5b5061048261047d366004614aba565b611754565b60405161020a9190614c55565b6102c261049d366004614ad2565b611774565b3480156104ae57600080fd5b50610233611ab1565b3480156104c357600080fd5b506102c26104d236600461456c565b611ab7565b3480156104e357600080fd5b506102c26104f2366004614aa0565b611b27565b34801561050357600080fd5b506102c2610512366004614aba565b611c05565b34801561052357600080fd5b506102c26105323660046147c1565b612059565b34801561054357600080fd5b50610482610552366004614aba565b6120ea565b34801561056357600080fd5b506102c2610572366004614908565b612223565b34801561058357600080fd5b506102c261059236600461456c565b6125c0565b610100602052600090815260409020546001600160a01b031681565b600081815260666020908152604080832081516101608101835281546001600160a01b0390811682526001808401548387015260028085015492831684870152600160a01b9092046001600160601b0316606080850191909152855190810186526003850180548252600486015460e01b6001600160e01b0319168289015260058601805488516101009582161595909502600019011694909404601f810189900489028401890188528084528998959760808901969395929490860193909291908301828280156106c65780601f1061069b576101008083540402835291602001916106c6565b820191906000526020600020905b8154815290600101906020018083116106a957829003601f168201915b50505091909252505050815260068201546001600160a01b03808216602080850191909152600160a01b928390046001600160601b0316604080860191909152600786015492831660608601529282046001600160401b03166080850152600160e01b90910460e01b6001600160e01b03191660a0840152600884018054835160026101006001841615026000190190921691909104601f810184900484028201840190945283815260c0909401939290918301828280156107c95780601f1061079e576101008083540402835291602001916107c9565b820191906000526020600020905b8154815290600101906020018083116107ac57829003601f168201915b50505050508152505090506107dd816126c3565b9150505b919050565b6101625481565b630a85bd0160e11b949350505050565b6001600160a01b03821660009081526033602090815260408083208484529091529020545b92915050565b61083061271d565b6001600160a01b0316610841611637565b6001600160a01b03161461088a576040805162461bcd60e51b81526020600482018190526024820152600080516020615335833981519152604482015290519081900360640190fd5b60ff80546001600160a01b0319166001600160a01b0392909216919091179055565b6000818152606660205260409020600201546001600160a01b0316156108ed5760405162461bcd60e51b81526004016108e490614ce2565b60405180910390fd5b61094a8160405180606001604052803481526020017f4c23426613a5dc69e08fbd2787e6210aa679d4522e95a89d4dd88c4fd13a22836001600160e01b031916815260200160405180602001604052806000815250815250610fa5565b50565b610163546001600160601b031681565b61096561271d565b6001600160a01b0316610976611637565b6001600160a01b0316146109bf576040805162461bcd60e51b81526020600482018190526024820152600080516020615335833981519152604482015290519081900360640190fd5b6001600160e01b03198216600081815261012f60205260409081902080546001600160a01b0319166001600160a01b038516179055517f4b5aced933c0c9a88aeac3f0b3b72c5aaf75df8ebaf53225773248c4c315359390610a22908490614baa565b60405180910390a25050565b610a3661271d565b6001600160a01b0316610a47611637565b6001600160a01b031614610a90576040805162461bcd60e51b81526020600482018190526024820152600080516020615335833981519152604482015290519081900360640190fd5b610163546040517fa13d21133118bfdffd1e4dc724faaadc5860dcb38ac5836e06f183ac5306b27991610ad0916001600160601b039091169084906151ae565b60405180910390a161016380546bffffffffffffffffffffffff19166001600160601b0392909216919091179055565b60ff546001600160a01b031681565b610b1761271d565b6001600160a01b0316610b28611637565b6001600160a01b031614610b71576040805162461bcd60e51b81526020600482018190526024820152600080516020615335833981519152604482015290519081900360640190fd5b60fe80546001600160a01b0319166001600160a01b0392909216919091179055565b600260cb541415610bd9576040805162461bcd60e51b815260206004820152601f6024820152600080516020615280833981519152604482015290519081900360640190fd5b600260cb819055600082815260666020908152604080832081516101608101835281546001600160a01b039081168252600180840154838701528388015491821683860152600160a01b9091046001600160601b0316606080840191909152845190810185526003840180548252600485015460e01b6001600160e01b0319168288015260058501805487516101009582161595909502600019011699909904601f8101889004880284018801875280845297989397949660808901969295919492860193929190830182828015610cf25780601f10610cc757610100808354040283529160200191610cf2565b820191906000526020600020905b815481529060010190602001808311610cd557829003601f168201915b50505091909252505050815260068201546001600160a01b03808216602080850191909152600160a01b928390046001600160601b0316604080860191909152600786015492831660608601529282046001600160401b03166080850152600160e01b90910460e01b6001600160e01b03191660a0840152600884018054835160026101006001841615026000190190921691909104601f810184900484028201840190945283815260c090940193929091830182828015610df55780601f10610dca57610100808354040283529160200191610df5565b820191906000526020600020905b815481529060010190602001808311610dd857829003601f168201915b5050505050815250509050610e0981612721565b610e255760405162461bcd60e51b81526004016108e490614d48565b60a0810151610e3261271d565b6001600160a01b0316816001600160a01b031614610e625760405162461bcd60e51b81526004016108e490614e12565b60e08201516001600160a01b031615610e8d5760405162461bcd60e51b81526004016108e490614f21565b610eb28260000151836020015160016000805160206152c68339815191523086612733565b610ec58383600001518460200151612777565b60405183907f2809c7e17bf978fbc7194c0a694b638c4215e9140cacc6c38ca36010b45697df90600090a25050600160cb5550565b610f0261271d565b6001600160a01b0316610f13611637565b6001600160a01b031614610f5c576040805162461bcd60e51b81526020600482018190526024820152600080516020615335833981519152604482015290519081900360640190fd5b7fb51bef650ff5ad43303dbe2e500a74d4fd1bdc9ae05f046bece330e82ae0ba8760fd5482604051610f8f929190615183565b60405180910390a16001600160401b031660fd55565b600260cb541415610feb576040805162461bcd60e51b815260206004820152601f6024820152600080516020615280833981519152604482015290519081900360640190fd5b600260cb556000610ffa61271d565b8251600085815260666020908152604080832081516101608101835281546001600160a01b0390811682526001808401548387015260028085015492831684870152600160a01b9092046001600160601b0316606080850191909152855190810186526003850180548252600486015460e01b6001600160e01b0319168289015260058601805488516101009582161595909502600019011694909404601f810189900489028401890188528084529a9b509899979893979496608089019691959186019391908301828280156111125780601f106110e757610100808354040283529160200191611112565b820191906000526020600020905b8154815290600101906020018083116110f557829003601f168201915b50505091909252505050815260068201546001600160a01b03808216602080850191909152600160a01b928390046001600160601b0316604080860191909152600786015492831660608601529282046001600160401b03166080850152600160e01b90910460e01b6001600160e01b03191660a0840152600884018054835160026101006001841615026000190190921691909104601f810184900484028201840190945283815260c0909401939290918301828280156112155780601f106111ea57610100808354040283529160200191611215565b820191906000526020600020905b8154815290600101906020018083116111f857829003601f168201915b5050505050815250509050600081606001519050600061123f836101400151846101200151612824565b9050600061125587604001518860200151612880565b600001519050600061128288600001518661010001516001600160401b031661127d856128d4565b612971565b60408601519091506001600160a01b03166112a1576112a181886129e4565b6112ab8584612a27565b6112b58387612a72565b156112d5576112c98589858c86868d612aa1565b50505050505050611555565b60e085015142906001600160a01b03166113785760608601516001600160601b03166113465760208481015160008c81526066909252604090912060020180546001600160a01b0316600160a01b6001600160601b0385811690940193841690810291909117909155606088015294505b8560c001516001600160601b03168710156113735760405162461bcd60e51b81526004016108e490614e49565b6113dd565b876001600160a01b03168660e001516001600160a01b031614156113ae5760405162461bcd60e51b81526004016108e490614f58565b60006113b9876126c3565b9050808810156113db5760405162461bcd60e51b81526004016108e490614d7d565b505b60006113ec8760400151612c5f565b905061141787604001518861010001516001600160401b03168960e001518c8b608001518689612cb3565b60008b8152606660209081526040918290208c51600382019081558d83015160048301805463ffffffff191660e09290921c919091179055928d015180518e9493611467936005019201906141f0565b50505060008b815260666020526040812060070180546001600160a01b0319166001600160a01b038c16179055610163546001600160601b03169061038482106114b3576103846114b5565b815b9050806001600160601b03168489036001600160601b0316101561150f5760008d815260666020526040902060020180546001600160601b03868401908116600160a01b026001600160a01b039092169190911790915597505b8c7f0e54eff26401bf69b81b26f60bd85ef47f5d85275c1d268d84f68d6897431c478c8a604051611541929190614bbe565b60405180910390a250505050505050505050505b5050600160cb55565b60fe546001600160a01b031681565b6000908152606660205260409020600701546001600160a01b031690565b61159361271d565b6001600160a01b03166115a4611637565b6001600160a01b0316146115ed576040805162461bcd60e51b81526020600482018190526024820152600080516020615335833981519152604482015290519081900360640190fd5b6099546040516000916001600160a01b0316907f8be0079c531659141344cd1fd0a4f28419497f9722a3daafe3b4186f6b6457e0908390a3609980546001600160a01b0319169055565b6099546001600160a01b031690565b61016354600160601b90046001600160801b031681565b600054610100900460ff16806116765750611676612ccd565b80611684575060005460ff16155b6116bf5760405162461bcd60e51b815260040180806020018281038252602e8152602001806152e6602e913960400191505060405180910390fd5b600054610100900460ff161580156116ea576000805460ff1961ff0019909116610100171660011790555b6116f2612cde565b6116fa612d7f565b611702612cde565b61170a612e78565b61171382612f1e565b61171d8585613000565b611731836001600160401b031688886130ab565b611739612cde565b801561174b576000805461ff00191690555b50505050505050565b6000908152606660205260409020600601546001600160a01b0316151590565b600260cb5414156117ba576040805162461bcd60e51b815260206004820152601f6024820152600080516020615280833981519152604482015290519081900360640190fd5b600260cb819055600083815260666020908152604080832081516101608101835281546001600160a01b039081168252600180840154838701528388015491821683860152600160a01b9091046001600160601b0316606080840191909152845190810185526003840180548252600485015460e01b6001600160e01b0319168288015260058501805487516101009582161595909502600019011699909904601f81018890048802840188018752808452979893979496608089019692959194928601939291908301828280156118d35780601f106118a8576101008083540402835291602001916118d3565b820191906000526020600020905b8154815290600101906020018083116118b657829003601f168201915b50505091909252505050815260068201546001600160a01b03808216602080850191909152600160a01b928390046001600160601b0316604080860191909152600786015492831660608601529282046001600160401b03166080850152600160e01b90910460e01b6001600160e01b03191660a0840152600884018054835160026101006001841615026000190190921691909104601f810184900484028201840190945283815260c0909401939290918301828280156119d65780601f106119ab576101008083540402835291602001916119d6565b820191906000526020600020905b8154815290600101906020018083116119b957829003601f168201915b505050505081525050905060006119f7826101400151836101200151612824565b9050611a038282612a27565b611a11818460000151612a72565b611a2d5760405162461bcd60e51b81526004016108e490614ef2565b6000611a4184604001518560200151612880565b6000015190506000611a6985600001518561010001516001600160401b031661127d856128d4565b90506000611a7561271d565b60408601519091506001600160a01b0316611a9457611a9482826129e4565b611aa38587868a878787612aa1565b5050600160cb555050505050565b60fd5481565b6000611ac161271d565b6001600160a01b0381166000908152610161602052604090205490915080611afb5760405162461bcd60e51b81526004016108e490614fe9565b6001600160a01b0380831660009081526101616020526040812055611b2290841682613184565b505050565b611b2f61271d565b6001600160a01b0316611b40611637565b6001600160a01b031614611b89576040805162461bcd60e51b81526020600482018190526024820152600080516020615335833981519152604482015290519081900360640190fd5b7f30bd79db520376a437e44c44c2b3ec63f6730f4df0a95f56ea39765f1420cab7610163600c9054906101000a90046001600160801b031682604051611bd0929190615152565b60405180910390a161016380546001600160801b03909216600160601b02600160601b600160e01b0319909216919091179055565b600260cb541415611c4b576040805162461bcd60e51b815260206004820152601f6024820152600080516020615280833981519152604482015290519081900360640190fd5b600260cb819055600082815260666020908152604080832081516101608101835281546001600160a01b039081168252600180840154838701528388015491821683860152600160a01b9091046001600160601b0316606080840191909152845190810185526003840180548252600485015460e01b6001600160e01b0319168288015260058501805487516101009582161595909502600019011699909904601f8101889004880284018801875280845297989397949660808901969295919492860193929190830182828015611d645780601f10611d3957610100808354040283529160200191611d64565b820191906000526020600020905b815481529060010190602001808311611d4757829003601f168201915b50505091909252505050815260068201546001600160a01b03808216602080850191909152600160a01b928390046001600160601b0316604080860191909152600786015492831660608601529282046001600160401b03166080850152600160e01b90910460e01b6001600160e01b03191660a0840152600884018054835160026101006001841615026000190190921691909104601f810184900484028201840190945283815260c090940193929091830182828015611e675780601f10611e3c57610100808354040283529160200191611e67565b820191906000526020600020905b815481529060010190602001808311611e4a57829003601f168201915b5050505050815250509050611e7b81612721565b611e975760405162461bcd60e51b81526004016108e490614d48565b6000611ead826101400151836101200151612824565b9050611eca82606001516001600160601b0316826040015161321c565b158015611ee3575060e08201516001600160a01b031615155b611eff5760405162461bcd60e51b81526004016108e490615046565b6000611f1b836080015160400151846080015160200151612880565b6000015190506120396040518060a00160405280611f528660000151876020015160016000805160206152c6833981519152613265565b8152602001611f648660a001516132b3565b8152602001611f7685600001516128d4565b81526339d690a360e11b60005261012f60209081527fc28c43c4aa23029674dbba16a7ffa001d28e4b6c821f1ad56ff5b62cd474fc2a546001600160a01b03169082015230604091820152805160a081018252908601516080870151518291611fde9161332d565b8152602001611ff08760e001516132b3565b8152602001611ffe856128d4565b81526020016120108760400151612c5f565b6001600160a01b03168152306020909101526101008601516002906001600160401b0316613394565b505061204e8484600001518560200151612777565b5050600160cb555050565b61206161271d565b6001600160a01b0316612072611637565b6001600160a01b0316146120bb576040805162461bcd60e51b81526020600482018190526024820152600080516020615335833981519152604482015290519081900360640190fd5b6001600160a01b0391821660009081526101006020526040902080546001600160a01b03191691909216179055565b60008181526066602090815260408083206008018054825160026001831615610100026000190190921691909104601f8101859004850282018501909352828152429385936121ad93918301828280156121855780601f1061215a57610100808354040283529160200191612185565b820191906000526020600020905b81548152906001019060200180831161216857829003601f168201915b505050600088815260666020526040902060070154600160e01b900460e01b91506128249050565b9050600081604001511180156121c65750818160400151115b156121d6576000925050506107e1565b600084815260666020526040902060020154600160a01b90046001600160601b031680158015906122075750828111155b1561221857600093505050506107e1565b506001949350505050565b600061222f8284612824565b6101635460208201519192506001600160601b03161180159061225a575060208101516305265c0010155b6122765760405162461bcd60e51b81526004016108e490614de6565b6040810151600090156122b45742826040015110156122a75760405162461bcd60e51b81526004016108e490614e98565b5060208101516040820151015b60006122be61348a565b905060006122ca61271d565b905060006040518061016001604052808c6001600160a01b031681526020018b81526020018a6001600160a01b03168152602001856001600160601b0316815260200160405180606001604052806000815260200160006001600160e01b0319168152602001604051806020016040528060008152508152508152602001836001600160a01b03168152602001896001600160601b0316815260200160006001600160a01b0316815260200160fd546001600160401b03168152602001886001600160e01b0319168152602001878152509050806066600085815260200190815260200160002060008201518160000160006101000a8154816001600160a01b0302191690836001600160a01b031602179055506020820151816001015560408201518160020160006101000a8154816001600160a01b0302191690836001600160a01b0316021790555060608201518160020160146101000a8154816001600160601b0302191690836001600160601b031602179055506080820151816003016000820151816000015560208201518160010160006101000a81548163ffffffff021916908360e01c021790555060408201518160020190805190602001906124959291906141f0565b50505060a082015160068201805460c08501516001600160601b0316600160a01b9081026001600160a01b039485166001600160a01b03199384161785161790925560e0808601516007860180546101008901516101208a015190941c600160e01b026001600160e01b036001600160401b0390951690960267ffffffffffffffff60a01b1993909716941693909317169390931792909216179055610140820151805161254d9160088401916020909101906141f0565b5090505061256e8b8b60016000805160206152c68339815191528630612733565b6125798b8b85613499565b827f651452447442638a9395d6ab7f472421a3c164ffea75651cbc2d0be20f44498783866040516125ab929190614bbe565b60405180910390a25050505050505050505050565b6125c861271d565b6001600160a01b03166125d9611637565b6001600160a01b031614612622576040805162461bcd60e51b81526020600482018190526024820152600080516020615335833981519152604482015290519081900360640190fd5b6001600160a01b0381166126675760405162461bcd60e51b81526004018080602001828103825260268152602001806152a06026913960400191505060405180910390fd5b6099546040516001600160a01b038084169216907f8be0079c531659141344cd1fd0a4f28419497f9722a3daafe3b4186f6b6457e090600090a3609980546001600160a01b0319166001600160a01b0392909216919091179055565b60e08101516000906001600160a01b03166126ec575060c08101516001600160601b03166107e1565b6101635460808301515161270f91600160601b90046001600160801b03166134bf565b608083015151019050919050565b3390565b60a001516001600160a01b0316151590565b61276f61274287878787613265565b6001600160e01b03198516600090815261012f6020526040902054849084906001600160a01b03166134de565b505050505050565b60405183907f53ab6823c4ae8c865033f94ee16313a21c6ade19520d884dc804d622a43bc67490600090a26127ac82826138d5565b600083815260666020526040812080546001600160a01b031916815560018101829055600281018290556003810182815560048201805463ffffffff19169055909190816127fd600585018261427c565b50506000600683018190556007830181905561281d90600884019061427c565b5050505050565b61282c6142c0565b6001600160e01b03198216632611a13360e11b14156128685782511561286357828060200190518101906128609190614a08565b90505b610822565b60405162461bcd60e51b81526004016108e490615016565b6128886142e8565b6001600160e01b03198216632611a13360e11b14156128bc5782511561286357828060200190518101906128609190614a66565b60405162461bcd60e51b81526004016108e490615091565b60408051600180825281830190925260609160009190816020015b6128f76142fb565b8152602001906001900390816128ef579050509050828160008151811061291a57fe5b6020026020010151600001906001600160a01b031690816001600160a01b03168152505060a083901c8160008151811061295057fe5b6020908102919091018101516001600160601b039092169101529050919050565b600061298761298085856134bf565b85906138fd565b905060005b82518110156129dc576129d26129cb8483815181106129a757fe5b6020026020010151602001516001600160601b0316876134bf90919063ffffffff16565b83906138fd565b915060010161298c565b509392505050565b3482811015612a055760405162461bcd60e51b81526004016108e490614e70565b8281038015612a2157612a216001600160a01b03841682613184565b50505050565b612a3082612721565b8015612a525750612a5282606001516001600160601b0316826040015161321c565b612a6e5760405162461bcd60e51b81526004016108e490614f85565b5050565b6000808360600151118015612a8b575081836060015111155b15612a9857506001610822565b50600092915050565b6000612ab08860400151612c5f565b9050612ad9886080015189604001518a60e001518b61010001516001600160401b031685613957565b60408801516000906001600160a01b0316612af5575030612af8565b50815b612c046040518060a00160405280612b298c600001518d6020015160016000805160206152c6833981519152613265565b8152602001612b3b8c60a001516132b3565b8152602001612b4d8a600001516128d4565b81526339d690a360e11b60005261012f60209081527fc28c43c4aa23029674dbba16a7ffa001d28e4b6c821f1ad56ff5b62cd474fc2a546001600160a01b03169082015230604091820152805160a081018252908c01518b518291612bb19161332d565b8152602001612bbf876132b3565b8152602001612bcd896128d4565b8152602001856001600160a01b03168152602001846001600160a01b031681525060028c61010001516001600160401b0316613394565b5050612c19868a600001518b60200151612777565b610162547f10373d853b64ae416c332eacb659de0f9bfc4fa3601556194abce1991061efbe84604051612c4c9190614baa565b60405180910390a2505050505050505050565b6000806001600160a01b038316156108225750506322ba176160e21b6000525061012f6020527f57e84f7b8a8bca23b320143cbaa109357032ca189de87ab548fff63eba4472a5546001600160a01b031690565b612cc08388878986613957565b61174b8188863086613a7f565b6000612cd830613a94565b15905090565b600054610100900460ff1680612cf75750612cf7612ccd565b80612d05575060005460ff16155b612d405760405162461bcd60e51b815260040180806020018281038252602e8152602001806152e6602e913960400191505060405180910390fd5b600054610100900460ff16158015612d6b576000805460ff1961ff0019909116610100171660011790555b801561094a576000805461ff001916905550565b600054610100900460ff1680612d985750612d98612ccd565b80612da6575060005460ff16155b612de15760405162461bcd60e51b815260040180806020018281038252602e8152602001806152e6602e913960400191505060405180910390fd5b600054610100900460ff16158015612e0c576000805460ff1961ff0019909116610100171660011790555b6000612e1661271d565b609980546001600160a01b0319166001600160a01b038316908117909155604051919250906000907f8be0079c531659141344cd1fd0a4f28419497f9722a3daafe3b4186f6b6457e0908290a350801561094a576000805461ff001916905550565b600054610100900460ff1680612e915750612e91612ccd565b80612e9f575060005460ff16155b612eda5760405162461bcd60e51b815260040180806020018281038252602e8152602001806152e6602e913960400191505060405180910390fd5b600054610100900460ff16158015612f05576000805460ff1961ff0019909116610100171660011790555b600160cb55801561094a576000805461ff001916905550565b600054610100900460ff1680612f375750612f37612ccd565b80612f45575060005460ff16155b612f805760405162461bcd60e51b815260040180806020018281038252602e8152602001806152e6602e913960400191505060405180910390fd5b600054610100900460ff16158015612fab576000805460ff1961ff0019909116610100171660011790555b60016101625561016380546103846bffffffffffffffffffffffff1990911617600160601b600160e01b031916600160601b6001600160801b038516021790558015612a6e576000805461ff00191690555050565b61012f6020527f57e84f7b8a8bca23b320143cbaa109357032ca189de87ab548fff63eba4472a580546001600160a01b039283166001600160a01b0319918216179091557fc28c43c4aa23029674dbba16a7ffa001d28e4b6c821f1ad56ff5b62cd474fc2a805493909216928116831790915563025ceed960e61b6000527f1a49cbf01c238c4dbdb533af87925962407df89449cf736bfd00e3b6b87092e280549091169091179055565b600054610100900460ff16806130c457506130c4612ccd565b806130d2575060005460ff16155b61310d5760405162461bcd60e51b815260040180806020018281038252602e8152602001806152e6602e913960400191505060405180910390fd5b600054610100900460ff16158015613138576000805460ff1961ff0019909116610100171660011790555b60fd84905560ff80546001600160a01b038086166001600160a01b03199283161790925560fe8054928516929091169190911790558015612a21576000805461ff001916905550505050565b6040516000906001600160a01b0384169083908381818185875af1925050503d80600081146131cf576040519150601f19603f3d011682016040523d82523d6000602084013e6131d4565b606091505b5050905080611b22576040805162461bcd60e51b815260206004820152600f60248201526e1d1c985b9cd9995c8819985a5b1959608a1b604482015290519081900360640190fd5b600042821580159061322d57508083115b1561323c576000915050610822565b60008411801561324c5750808411155b1561325b576000915050610822565b5060019392505050565b61326d614312565b602080820184905281516001600160e01b031984169052604051613295918791879101614c3c565b60408051601f19818403018152919052815160200152949350505050565b60408051600180825281830190925260609160009190816020015b6132d66142fb565b8152602001906001900390816132ce57905050905082816000815181106132f957fe5b6020026020010151600001906001600160a01b031690816001600160a01b0316815250506127108160008151811061295057fe5b613335614312565b602081018290526001600160a01b03831661335b5780516355575f5d60e11b9052610822565b80516322ba176160e21b9052604051613378908490602001614baa565b60408051601f1981840301815291905281516020015292915050565b835160209081015184519091015160018460028111156133b057fe5b14156133f1576133c1868685613a9a565b91506133ec856000015160000151866000015160200151876080015189602001518960600151613b7e565b613481565b60028460028111156133ff57fe5b141561343b57613410858785613a9a565b90506133ec866000015160000151876000015160200151886080015188602001518a60600151613b7e565b8551805160209182015160808901519288015160608a015161345e949190613b7e565b845180516020918201516080880151928901516060890151613481949190613b7e565b94509492505050565b61016280546001810190915590565b6001600160a01b0390921660009081526033602090815260408083209383529290522055565b60006134d76127106134d18585613cf8565b90613d51565b9392505050565b8351516001600160e01b0319166339d690a360e11b1415613624576000808560000151602001518060200190518101906135189190614794565b9150915085602001516001146135405760405162461bcd60e51b81526004016108e490614ec6565b6001600160a01b0385163014156135b857604051632142170760e11b81526001600160a01b038316906342842e0e9061358190309088908690600401614be0565b600060405180830381600087803b15801561359b57600080fd5b505af11580156135af573d6000803e3d6000fd5b5050505061361d565b604051637b84dc8360e11b81526001600160a01b0384169063f709b906906135ea908590899089908790600401614cb8565b600060405180830381600087803b15801561360457600080fd5b505af1158015613618573d6000803e3d6000fd5b505050505b5050612a21565b8351516001600160e01b0319166322ba176160e21b141561376757600084600001516020015180602001905181019061365d9190614588565b90506001600160a01b0384163014156136f957602085015160405163a9059cbb60e01b81526001600160a01b0383169163a9059cbb916136a1918791600401614c3c565b602060405180830381600087803b1580156136bb57600080fd5b505af11580156136cf573d6000803e3d6000fd5b505050506040513d601f19601f820116820180604052508101906136f391906149cd565b50613761565b602085015160405163776062c360e01b81526001600160a01b0384169163776062c39161372e91859189918991600401614cb8565b600060405180830381600087803b15801561374857600080fd5b505af115801561375c573d6000803e3d6000fd5b505050505b50612a21565b8351516001600160e01b03191663025ceed960e61b1415613824576000808560000151602001518060200190518101906137a19190614794565b90925090506001600160a01b0385163014156137ec576020860151604051637921219560e11b81526001600160a01b0384169163f242432a9161358191309189918791600401614c04565b6020860151604051639c1c2ee960e01b81526001600160a01b03851691639c1c2ee9916135ea9186918a918a91889190600401614c75565b8351516001600160e01b0319166355575f5d60e11b141561386d576001600160a01b0382163014613868576020840151613868906001600160a01b03841690613184565b612a21565b6040516354bc0cf160e01b81526001600160a01b038216906354bc0cf19061389d908790879087906004016150bd565b600060405180830381600087803b1580156138b757600080fd5b505af11580156138cb573d6000803e3d6000fd5b5050505050505050565b6001600160a01b03909116600090815260336020908152604080832093835292905290812055565b6000828201838110156134d7576040805162461bcd60e51b815260206004820152601b60248201527f536166654d6174683a206164646974696f6e206f766572666c6f770000000000604482015290519081900360640190fd5b6001600160a01b03831661396a5761281d565b60006139998660000151846001600160801b031661127d6139938a604001518b60200151612880565b516128d4565b90506001600160a01b038516613a76576000846001600160a01b0316826040516139c290614ba7565b60006040518083038185875af1925050503d80600081146139ff576040519150601f19603f3d011682016040523d82523d6000602084013e613a04565b606091505b5050905080613a70576001600160a01b03851660008181526101616020526040908190208054858101918290559151919290917e13bff06d622c14d54757ee0547a817dc3e491fb8da534f108a531b016dee3c90613a659087908590615175565b60405180910390a250505b5061276f565b61276f81863087865b61281d613a8c858761332d565b8484846134de565b3b151590565b6000613ab3846000015160200151838660400151612971565b90506000613ade82866000015160200151876080015186878a60000151600001518b60600151613db8565b85518051865151602090920151608089015160608a0151949550613b089492939286929190613e81565b9050613b3485600001516000015182876000015160200151886040015189608001518a60600151613ec6565b50855180516020909101516040870151608089015160608a0151949550613b5f948693929190613ec6565b508551516080870151602087015160608901519394506129dc93859291905b6000825111613b9f5760405162461bcd60e51b81526004016108e490614da2565b600084815b6001855103811015613c6e576000613be5868381518110613bc157fe5b6020026020010151602001516001600160601b0316896134bf90919063ffffffff16565b9050613c1a868381518110613bf657fe5b6020026020010151602001516001600160601b0316856138fd90919063ffffffff16565b93508015613c6557613c2c8382613f92565b9250613c6560405180604001604052808b81526020018381525088888581518110613c5357fe5b602002602001015160000151886134de565b50600101613ba4565b50600084600186510381518110613c8157fe5b60200260200101519050613cab81602001516001600160601b0316846138fd90919063ffffffff16565b92508261271014613cce5760405162461bcd60e51b81526004016108e490614fb2565b81156138cb576138cb60405180604001604052808a815260200184815250878360000151876134de565b600082613d0757506000610822565b82820282848281613d1457fe5b04146134d75760405162461bcd60e51b81526004018080602001828103825260218152602001806153146021913960400191505060405180910390fd5b6000808211613da7576040805162461bcd60e51b815260206004820152601a60248201527f536166654d6174683a206469766973696f6e206279207a65726f000000000000604482015290519081900360640190fd5b818381613db057fe5b049392505050565b6000806000613dca8a8a888a01613fef565b90925090508015613e745784516000906001600160e01b0319166322ba176160e21b1415613e11578560200151806020019051810190613e0a9190614588565b9050613e4a565b85516001600160e01b03191663025ceed960e61b1415613e4a5760008660200151806020019051810190613e459190614794565b509150505b613e726040518060400160405280888152602001848152508a613e6c84614011565b886134de565b505b5098975050505050505050565b600080613e8d8761404f565b9050600080613ea08a8989868a8a613ec6565b91509150611388811115613e745760405162461bcd60e51b81526004016108e490614d11565b846000805b8551811015613f8657613f07868281518110613ee357fe5b6020026020010151602001516001600160601b0316836138fd90919063ffffffff16565b9150600080613f37858a8a8681518110613f1d57fe5b6020026020010151602001516001600160601b0316613fef565b90955085925090508015613f7c57613f7c60405180604001604052808d815260200183815250888a8681518110613f6a57fe5b602002602001015160000151896134de565b5050600101613ecb565b50965096945050505050565b600082821115613fe9576040805162461bcd60e51b815260206004820152601e60248201527f536166654d6174683a207375627472616374696f6e206f766572666c6f770000604482015290519081900360640190fd5b50900390565b6000806140058561400086866134bf565b6141c3565b91509150935093915050565b6001600160a01b0380821660009081526101006020526040812054909116801561403c5790506107e1565b505060ff546001600160a01b0316919050565b80516060906001600160e01b03191663025ceed960e61b1480614083575081516001600160e01b0319166339d690a360e11b145b156141385760008083602001518060200190518101906140a39190614794565b60fe54604051634e53ee3d60e11b81529294509092506001600160a01b031690639ca7dc7a906140d99085908590600401614c3c565b600060405180830381600087803b1580156140f357600080fd5b505af1158015614107573d6000803e3d6000fd5b505050506040513d6000823e601f3d908101601f1916820160405261412f9190810190614993565b925050506107e1565b81516001600160e01b03191662737ea960e61b1415614179576000826020015180602001905181019061416b91906145a4565b6080015192506107e1915050565b81516001600160e01b03191663d8f960c160e01b14156141bb57600082602001518060200190518101906141ad91906146a1565b6060015192506107e1915050565b506060919050565b600080828411156141e2576141d88484613f92565b91508290506141e9565b5060009050825b9250929050565b828054600181600116156101000203166002900490600052602060002090601f016020900481019282614226576000855561426c565b82601f1061423f57805160ff191683800117855561426c565b8280016001018555821561426c579182015b8281111561426c578251825591602001919060010190614251565b50614278929150614332565b5090565b50805460018160011615610100020316600290046000825580601f106142a2575061094a565b601f01602090049060005260206000209081019061094a9190614332565b6040518060800160405280600081526020016000815260200160008152602001600081525090565b6040518060200160405280600081525090565b604080518082019091526000808252602082015290565b6040518060400160405280614325614347565b8152602001600081525090565b5b808211156142785760008155600101614333565b60408051808201909152600081526060602082015290565b600061437261436d84615208565b6151c8565b905082815283838301111561438657600080fd5b6134d7836020830184615229565b600082601f8301126143a4578081fd5b815160206143b461436d836151eb565b82815281810190858301855b858110156143fe578151880189603f8201126143da578788fd5b6143eb8a878301516040840161435f565b85525092840192908401906001016143c0565b5090979650505050505050565b600082601f83011261441b578081fd5b8151602061442b61436d836151eb565b82815281810190858301604080860288018501891015614449578687fd5b865b868110156144ad5781838b031215614461578788fd5b81518281018181106001600160401b038211171561447b57fe5b8352835161448881615255565b8152838701516144978161526a565b818801528552938501939181019160010161444b565b509198975050505050505050565b80356001600160e01b0319811681146107e157600080fd5b600082601f8301126144e3578081fd5b81356144f161436d82615208565b818152846020838601011115614505578283fd5b816020850160208301379081016020019190915292915050565b600082601f83011261452f578081fd5b6134d78383516020850161435f565b80356001600160801b03811681146107e157600080fd5b80356001600160401b03811681146107e157600080fd5b60006020828403121561457d578081fd5b81356134d781615255565b600060208284031215614599578081fd5b81516134d781615255565b600080604083850312156145b6578081fd5b82516145c181615255565b60208401519092506001600160401b03808211156145dd578283fd5b9084019060c082870312156145f0578283fd5b6145fa60c06151c8565b8251815260208301518281111561460f578485fd5b61461b8882860161451f565b6020830152506040830151604082015260608301518281111561463c578485fd5b6146488882860161440b565b60608301525060808301518281111561465f578485fd5b61466b8882860161440b565b60808301525060a083015182811115614682578485fd5b61468e88828601614394565b60a0830152508093505050509250929050565b600080604083850312156146b3578182fd5b82516146be81615255565b60208401519092506001600160401b03808211156146da578283fd5b9084019060a082870312156146ed578283fd5b6146f760a06151c8565b8251815260208301518281111561470c578485fd5b6147188882860161451f565b60208301525060408301518281111561472f578485fd5b61473b8882860161440b565b604083015250606083015182811115614752578485fd5b61475e8882860161440b565b606083015250608083015182811115614775578485fd5b61478188828601614394565b6080830152508093505050509250929050565b600080604083850312156147a6578182fd5b82516147b181615255565b6020939093015192949293505050565b600080604083850312156147d3578182fd5b82356147de81615255565b915060208301356147ee81615255565b809150509250929050565b6000806000806080858703121561480e578182fd5b843561481981615255565b9350602085013561482981615255565b92506040850135915060608501356001600160401b0381111561484a578182fd5b614856878288016144d3565b91505092959194509250565b60008060008060008060c0878903121561487a578384fd5b863561488581615255565b9550602087013561489581615255565b945060408701356148a581615255565b935060608701356148b581615255565b92506148c360808801614555565b91506148d160a0880161453e565b90509295509295509295565b600080604083850312156148ef578182fd5b82356148fa81615255565b946020939093013593505050565b60008060008060008060c08789031215614920578384fd5b863561492b81615255565b955060208701359450604087013561494281615255565b935060608701356149528161526a565b9250614960608088016144bb565b915060a08701356001600160401b0381111561497a578182fd5b61498689828a016144d3565b9150509295509295509295565b6000602082840312156149a4578081fd5b81516001600160401b038111156149b9578182fd5b6149c58482850161440b565b949350505050565b6000602082840312156149de578081fd5b815180151581146134d7578182fd5b600080604083850312156149ff578182fd5b6147de836144bb565b600060808284031215614a19578081fd5b604051608081018181106001600160401b0382111715614a3557fe5b8060405250825181526020830151602082015260408301516040820152606083015160608201528091505092915050565b600060208284031215614a77578081fd5b604051602081018181106001600160401b0382111715614a9357fe5b6040529151825250919050565b600060208284031215614ab1578081fd5b6134d78261453e565b600060208284031215614acb578081fd5b5035919050565b60008060408385031215614ae4578182fd5b8235915060208301356001600160401b0380821115614b01578283fd5b9084019060608287031215614b14578283fd5b604051606081018181108382111715614b2957fe5b60405282358152614b3c602084016144bb565b6020820152604083013582811115614b52578485fd5b614b5e888286016144d3565b6040830152508093505050509250929050565b600060208284031215614b82578081fd5b6134d782614555565b600060208284031215614b9c578081fd5b81356134d78161526a565b90565b6001600160a01b0391909116815260200190565b6001600160a01b039290921682526001600160601b0316602082015260400190565b6001600160a01b039384168152919092166020820152604081019190915260600190565b6001600160a01b0394851681529290931660208301526040820152606081019190915260a06080820181905260009082015260c00190565b6001600160a01b03929092168252602082015260400190565b901515815260200190565b6001600160e01b031991909116815260200190565b6001600160a01b03958616815293851660208501529190931660408301526060820192909252608081019190915260c060a0820181905260009082015260e00190565b6001600160a01b039485168152928416602084015292166040820152606081019190915260800190565b6020808252601590820152741bdb9b1e4811551208189a591cc8185b1b1bddd959605a1b604082015260600190565b6020808252601d908201527f526f79616c746965732061726520746f6f206869676820283e35302529000000604082015260600190565b6020808252818101527f7468657265206973206e6f2061756374696f6e20776974682074686973206964604082015260600190565b6020808252600b908201526a62696420746f6f206c6f7760a81b604082015260600190565b60208082526024908201527f7472616e736665725061796f7574733a206e6f7468696e6720746f207472616e60408201526339b332b960e11b606082015260800190565b60208082526012908201527134b731b7b93932b1ba10323ab930ba34b7b760711b604082015260600190565b6020808252601a908201527f61756374696f6e206f776e6572206e6f74206465746563746564000000000000604082015260600190565b6020808252600d908201526c189a59081d1bdbc81cdb585b1b609a1b604082015260600190565b6020808252600e908201526d0dcdee840cadcdeeaced0408aa8960931b604082015260600190565b602080825260149082015273696e636f72726563742073746172742074696d6560601b604082015260600190565b60208082526012908201527132b9319b9918903b30b63ab29032b93937b960711b604082015260600190565b6020808252601590820152741b9bdd08195b9bdd59da08199bdc88189d5e5bdd5d605a1b604082015260600190565b6020808252601d908201527f63616e27742063616e63656c2061756374696f6e207769746820626964000000604082015260600190565b602080825260139082015272185b1c9958591e481dda5b9b9a5b99c8189a59606a1b604082015260600190565b60208082526013908201527261756374696f6e20697320696e61637469766560681b604082015260600190565b6020808252601e908201527f53756d207061796f75747320427073206e6f7420657175616c20313030250000604082015260600190565b6020808252601390820152726e6f7468696e6720746f20776974686472617760681b604082015260600190565b60208082526016908201527577726f6e672061756374696f6e20646174615479706560501b604082015260600190565b6020808252602b908201527f6f6e6c7920656e6465642061756374696f6e2077697468206269642063616e2060408201526a189948199a5b9a5cda195960aa1b606082015260800190565b60208082526012908201527177726f6e672062696420646174615479706560701b604082015260600190565b60006060825284516040606084015263ffffffff60e01b81511660a084015260208101519050604060c084015280518060e08501526101006151058282870160208601615229565b60209788015160808601526001600160a01b039687169785019790975293909416604083015250601f909101601f191601909101919050565b6001600160801b0391909116815260200190565b6001600160801b0392831681529116602082015260400190565b90815260200190565b918252602082015260400190565b9182526001600160401b0316602082015260400190565b6001600160601b0391909116815260200190565b6001600160601b0392831681529116602082015260400190565b6040518181016001600160401b03811182821017156151e357fe5b604052919050565b60006001600160401b038211156151fe57fe5b5060209081020190565b60006001600160401b0382111561521b57fe5b50601f01601f191660200190565b60005b8381101561524457818101518382015260200161522c565b83811115612a215750506000910152565b6001600160a01b038116811461094a57600080fd5b6001600160601b038116811461094a57600080fdfe5265656e7472616e637947756172643a207265656e7472616e742063616c6c004f776e61626c653a206e6577206f776e657220697320746865207a65726f206164647265737373ad2146b3d3a286642c794379d750360a2d53a3459a11b3e5d6cc900f55f44a496e697469616c697a61626c653a20636f6e747261637420697320616c726561647920696e697469616c697a6564536166654d6174683a206d756c7469706c69636174696f6e206f766572666c6f774f776e61626c653a2063616c6c6572206973206e6f7420746865206f776e6572a26469706673582212204a108da898f5e5ec5edbe70cfb16bc551385e15aa6a640d9ad9c42abdebcd05564736f6c63430007060033",
  "immutableReferences": {},
  "source": "// SPDX-License-Identifier: MIT\n\npragma solidity 0.7.6;\npragma abicoder v2;\n\nimport \"./AuctionHouseStruct721.sol\";\nimport \"../wrapper/TokenToAuction.sol\";\nimport \"../AuctionHouseBase.sol\";\n\nimport \"@openzeppelin/contracts-upgradeable/math/SafeMathUpgradeable.sol\";\nimport \"@openzeppelin/contracts-upgradeable/token/ERC721/ERC721HolderUpgradeable.sol\";\n\n/// @dev contract to create and interact with auctions\ncontract AuctionHouse721 is ERC721HolderUpgradeable, TokenToAuction, AuctionHouseStruct721, AuctionHouseBase {\n    using LibTransfer for address;\n    using BpLibrary for uint;\n\n    function __AuctionHouse721_init(\n        address newDefaultFeeReceiver,\n        IRoyaltiesProvider newRoyaltiesProvider,\n        address _transferProxy,\n        address _erc20TransferProxy,\n        uint64 newProtocolFee,\n        uint128 _minimalStepBasePoint\n    ) external initializer {\n        __Context_init_unchained();\n        __Ownable_init_unchained();\n        __ERC721Holder_init_unchained();\n        __ReentrancyGuard_init_unchained();\n        __AuctionHouseBase_init_unchained(_minimalStepBasePoint);\n        __TransferExecutor_init_unchained(_transferProxy, _erc20TransferProxy);\n        __RaribleTransferManager_init_unchained(newProtocolFee, newDefaultFeeReceiver, newRoyaltiesProvider);          \n        __AuctionHouse721_init_unchained();\n    }\n\n    function __AuctionHouse721_init_unchained() internal initializer {  \n    }\n\n    /// @dev creates an auction and locks sell asset\n    function startAuction(\n        address _sellToken,\n        uint _sellTokenId,\n        address _buyAsset,\n        uint96 minimalPrice,\n        bytes4 dataType,\n        bytes memory data\n    ) external {\n        //todo: check if token contract supports ERC721 interface?\n\n        LibAucDataV1.DataV1 memory aucData = LibAucDataV1.parse(data, dataType);\n        require(aucData.duration >= minimalDuration && aucData.duration <= MAX_DURATION, \"incorrect duration\");\n\n        uint96 endTime = 0;\n        if (aucData.startTime > 0){\n            require (aucData.startTime >= block.timestamp, \"incorrect start time\");\n            endTime = uint96(aucData.startTime + aucData.duration);\n        }\n\n        uint currentAuctionId = getNextAndIncrementAuctionId();\n        address payable sender = _msgSender();\n        Auction memory auc = Auction(\n            _sellToken,\n            _sellTokenId,\n            _buyAsset,\n            endTime,\n            Bid(0, \"\", \"\"),\n            sender,\n            minimalPrice,\n            payable(address(0)),\n            uint64(protocolFee),\n            dataType,\n            data\n        );\n        auctions[currentAuctionId] = auc;\n        transferNFT(\n            _sellToken, \n            _sellTokenId, \n            1, \n            LibAsset.ERC721_ASSET_CLASS,\n            sender,\n            address(this)\n        );\n        setAuctionForToken(_sellToken, _sellTokenId, currentAuctionId);\n        \n        emit AuctionCreated(currentAuctionId, sender, endTime);\n    }\n\n    /// @dev put a bid and return locked assets for the last bid\n    function putBid(uint _auctionId, Bid memory bid) payable public nonReentrant {\n        address payable newBuyer = _msgSender();\n        uint newAmount = bid.amount;\n        Auction memory currentAuction = auctions[_auctionId];\n        uint96 endTime = currentAuction.endTime;\n        LibAucDataV1.DataV1 memory aucData = LibAucDataV1.parse(currentAuction.data, currentAuction.dataType);\n        uint bidOriginFee = LibBidDataV1.parse(bid.data, bid.dataType).originFee;\n        uint totalAmount = calculateTotalAmount(\n            bid.amount, \n            currentAuction.protocolFee, \n            getOriginFee(bidOriginFee)\n        );\n        if (currentAuction.buyAsset == address(0)) {\n            checkEthReturnChange(totalAmount, newBuyer);\n        }\n        checkAuctionInProgress(currentAuction, aucData);\n        if (buyOutVerify(aucData, newAmount)) {\n            _buyOut(\n                currentAuction,\n                bid,\n                aucData,\n                _auctionId,\n                bidOriginFee,\n                totalAmount,\n                newBuyer\n            );\n            return;\n        }\n        \n        uint96 currentTime = uint96(block.timestamp);\n        //start action if minimal price is met\n        if (currentAuction.buyer == address(0x0)) {//no bid at all\n            // set endTime if it's not set\n            if (currentAuction.endTime == 0){\n                endTime = uint96(currentTime + aucData.duration);\n                auctions[_auctionId].endTime = endTime;\n                currentAuction.endTime = endTime;\n                \n            }\n            require(newAmount >= currentAuction.minimalPrice, \"bid too small\");\n        } else {//there is bid in auction\n            require(currentAuction.buyer != newBuyer, \"already winning bid\");\n            uint256 minAmount = _getMinimalNextBid(currentAuction);\n            require(newAmount >= minAmount, \"bid too low\");\n        }\n\n        address proxy = _getProxy(currentAuction.buyAsset);\n        reserveBid(\n            currentAuction.buyAsset,\n            currentAuction.protocolFee,\n            currentAuction.buyer,\n            newBuyer,\n            currentAuction.lastBid,\n            proxy,\n            totalAmount\n        );\n        auctions[_auctionId].lastBid = bid;\n        auctions[_auctionId].buyer = newBuyer;\n\n        // auction is extended for EXTENSION_DURATION or minimalDuration if (minimalDuration < EXTENSION_DURATION)\n        uint96 minDur = minimalDuration;\n        uint96 extension = (minDur < EXTENSION_DURATION) ? minDur : EXTENSION_DURATION;\n\n        // extends auction time if it's about to end\n        if (endTime - currentTime < extension) {\n            endTime = currentTime + extension;\n            auctions[_auctionId].endTime = endTime;\n        }\n        emit BidPlaced(_auctionId, newBuyer, endTime);\n    }\n\n    /// @dev reserves new bid and returns the last one if it exists\n    function reserveBid(\n        address buyAsset,\n        uint128 curProtocolFee,\n        address oldBuyer,\n        address newBuyer,\n        Bid memory oldBid,\n        address proxy,\n        uint newTotalAmount\n    ) internal {\n        // return old bid if theres any\n        _returnBid(\n            oldBid,\n            buyAsset,\n            oldBuyer,\n            curProtocolFee,\n            proxy\n        );\n        \n        //lock new bid\n        transferBid(\n            newTotalAmount,\n            buyAsset,\n            newBuyer,\n            address(this),\n            proxy\n        );\n    }\n\n    /// @dev returns the minimal amount of the next bid (without fees)\n    function getMinimalNextBid(uint _auctionId) external view returns (uint minBid){\n        Auction memory currentAuction = auctions[_auctionId];\n        return _getMinimalNextBid(currentAuction);\n    }\n\n    /// @dev returns the minimal amount of the next bid (without fees)\n    function _getMinimalNextBid(Auction memory currentAuction) internal view returns (uint minBid){\n        if (currentAuction.buyer == address(0x0)) {\n            minBid = currentAuction.minimalPrice;\n        } else {\n            minBid = currentAuction.lastBid.amount + currentAuction.lastBid.amount.bp(minimalStepBasePoint);\n        }\n    }\n\n    /// @dev returns true if auction exists, false otherwise\n    function checkAuctionExistence(uint _auctionId) external view returns (bool){\n        return auctions[_auctionId].seller != address(0);\n    }\n\n    /// @dev returns true if auction exists, false otherwise\n    function _checkAuctionExistence(Auction memory currentAuction) internal pure returns (bool){\n        return currentAuction.seller != address(0);\n    }\n\n    /// @dev returns true if newAmount is enough for buyOut\n    function buyOutVerify(LibAucDataV1.DataV1 memory aucData, uint newAmount) internal pure returns (bool) {\n        if (aucData.buyOutPrice > 0 && aucData.buyOutPrice <= newAmount) {\n            return true;\n        }\n        return false;\n    }\n\n    /// @dev finishes, deletes and transfers all assets for an auction if it's ended (it exists, it has at least one bid, now > endTme)\n    function finishAuction(uint _auctionId) external nonReentrant {\n        Auction memory currentAuction = auctions[_auctionId];\n        require(_checkAuctionExistence(currentAuction), \"there is no auction with this id\");\n        LibAucDataV1.DataV1 memory aucData = LibAucDataV1.parse(currentAuction.data, currentAuction.dataType);\n        require(\n            !_checkAuctionRangeTime(currentAuction.endTime, aucData.startTime) &&\n            currentAuction.buyer != address(0),\n            \"only ended auction with bid can be finished\"\n        );\n        uint bidOriginFee = LibBidDataV1.parse(currentAuction.lastBid.data, currentAuction.lastBid.dataType).originFee;\n\n        doTransfers(\n            LibDeal.DealSide(\n                getSellAsset(\n                    currentAuction.sellToken, \n                    currentAuction.sellTokenId,\n                    1,\n                    LibAsset.ERC721_ASSET_CLASS\n                ),\n                getPayouts(currentAuction.seller),\n                getOriginFee(aucData.originFee),\n                proxies[LibAsset.ERC721_ASSET_CLASS],\n                address(this)\n            ), \n            LibDeal.DealSide(\n                getBuyAsset(\n                    currentAuction.buyAsset,\n                    currentAuction.lastBid.amount\n                ),\n                getPayouts(currentAuction.buyer),\n                getOriginFee(bidOriginFee),\n                _getProxy(currentAuction.buyAsset),\n                address(this)\n            ), \n            LibFeeSide.FeeSide.RIGHT, \n            currentAuction.protocolFee\n        );\n        deactivateAuction(_auctionId, currentAuction.sellToken, currentAuction.sellTokenId);\n    }\n\n    /// @dev returns true if auction started and hasn't finished yet, false otherwise\n    function checkAuctionRangeTime(uint _auctionId) external view returns (bool){\n        uint currentTime = block.timestamp;\n        LibAucDataV1.DataV1 memory aucData = LibAucDataV1.parse(auctions[_auctionId].data, auctions[_auctionId].dataType);\n        if (aucData.startTime > 0 && aucData.startTime > currentTime) {\n            return false;\n        }\n        uint endTime = auctions[_auctionId].endTime;\n        if (endTime > 0 && endTime <= currentTime){\n            return false;\n        }\n\n        return true;\n    }\n\n    function _checkAuctionRangeTime(uint endTime, uint startTime) internal view returns (bool){\n        uint currentTime = block.timestamp;\n        if (startTime > 0 && startTime > currentTime) {\n            return false;\n        }\n        if (endTime > 0 && endTime <= currentTime){\n            return false;\n        }\n\n        return true;\n    }\n\n    /// @dev deletes auction after finalizing\n    function deactivateAuction(uint _auctionId, address token, uint tokenId) internal {\n        emit AuctionFinished(_auctionId);\n        deleteAuctionForToken(token, tokenId);\n        delete auctions[_auctionId];\n    }\n\n    /// @dev cancels existing auction without bid\n    function cancel(uint _auctionId) external nonReentrant {\n        Auction memory currentAuction = auctions[_auctionId];\n        require(_checkAuctionExistence(currentAuction), \"there is no auction with this id\");\n        address seller = currentAuction.seller;\n        require(seller == _msgSender(), \"auction owner not detected\");\n        require(currentAuction.buyer == address(0), \"can't cancel auction with bid\");\n        transferNFT(\n            currentAuction.sellToken, \n            currentAuction.sellTokenId, \n            1, \n            LibAsset.ERC721_ASSET_CLASS,\n            address(this),\n            seller\n        );\n        deactivateAuction(_auctionId, currentAuction.sellToken, currentAuction.sellTokenId);\n        emit AuctionCancelled(_auctionId);\n    }\n\n    // todo will there be a problem if buyer is last bidder?\n    /// @dev buyout auction if bid satisfies buyout condition\n    function buyOut(uint _auctionId, Bid memory bid) external payable nonReentrant {\n        Auction memory currentAuction = auctions[_auctionId];\n        LibAucDataV1.DataV1 memory aucData = LibAucDataV1.parse(currentAuction.data, currentAuction.dataType);\n        checkAuctionInProgress(currentAuction, aucData);\n        require(buyOutVerify(aucData, bid.amount), \"not enough for buyout\");\n        uint bidOriginFee = LibBidDataV1.parse(bid.data, bid.dataType).originFee;\n        uint totalAmount = calculateTotalAmount(\n            bid.amount, \n            currentAuction.protocolFee, \n            getOriginFee(bidOriginFee)\n        );\n        address sender = _msgSender();\n        if (currentAuction.buyAsset == address(0)) {\n            checkEthReturnChange(totalAmount, sender);\n        }\n        _buyOut(\n            currentAuction,\n            bid,\n            aucData,\n            _auctionId,\n            bidOriginFee,\n            totalAmount,\n            sender\n        );\n    }\n\n    function _buyOut(\n        Auction memory currentAuction,\n        Bid memory bid,\n        LibAucDataV1.DataV1 memory aucData,\n        uint _auctionId,\n        uint newBidOriginFee,\n        uint newTotalAmount,\n        address sender\n    ) internal {\n        address proxy = _getProxy(currentAuction.buyAsset);\n\n        _returnBid(\n            currentAuction.lastBid,\n            currentAuction.buyAsset,\n            currentAuction.buyer,\n            currentAuction.protocolFee,\n            proxy\n        );\n\n        address from;\n        if (currentAuction.buyAsset == address(0)) {\n            // if buyAsset = ETH\n            from = address(this);\n        } else {\n            // if buyAsset = ERC20\n            from = sender;\n        }\n\n        doTransfers(\n            LibDeal.DealSide(\n                getSellAsset(\n                    currentAuction.sellToken, \n                    currentAuction.sellTokenId,\n                    1,\n                    LibAsset.ERC721_ASSET_CLASS\n                ),\n                getPayouts(currentAuction.seller),\n                getOriginFee(aucData.originFee),\n                proxies[LibAsset.ERC721_ASSET_CLASS],\n                address(this)\n            ), \n            LibDeal.DealSide(\n                getBuyAsset(\n                    currentAuction.buyAsset,\n                    bid.amount\n                ),\n                getPayouts(sender),\n                getOriginFee(newBidOriginFee),\n                proxy,\n                from\n            ), \n            LibFeeSide.FeeSide.RIGHT, \n            currentAuction.protocolFee\n        );\n\n        deactivateAuction(_auctionId, currentAuction.sellToken, currentAuction.sellTokenId);\n        emit AuctionBuyOut(auctionId, sender);\n    }\n\n    /// @dev returns current highest bidder for an auction\n    function getCurrentBuyer(uint _auctionId) public view returns(address) {\n        return auctions[_auctionId].buyer;\n    }\n\n    /// @dev returns true if auction in progress, false otherwise\n    function checkAuctionInProgress(Auction memory currentAuction, LibAucDataV1.DataV1 memory aucData) internal view{\n        require(_checkAuctionExistence(currentAuction) && _checkAuctionRangeTime(currentAuction.endTime, aucData.startTime), \"auction is inactive\");\n    }\n\n    /// @dev function to call from wrapper to put bid\n    function putBidWrapper(uint256 _auctionId) external payable {\n        require(auctions[_auctionId].buyAsset == address(0), \"only ETH bids allowed\");\n        putBid(_auctionId, Bid(msg.value, LibBidDataV1.V1, \"\"));\n    }\n\n    /// @dev Used to withdraw faulty bids (bids that failed to return after out-bidding)\n    function withdrawFaultyBid(address _to) external {\n        address sender = _msgSender();\n        uint amount = readyToWithdraw[sender];\n        require( amount > 0, \"nothing to withdraw\");\n        readyToWithdraw[sender] = 0;\n        _to.transferEth(amount);\n    }\n\n    function _returnBid(\n        Bid memory oldBid,\n        address buyAsset,\n        address oldBuyer,\n        uint128 curProtocolFee,\n        address proxy\n    ) internal {\n        // nothing to return\n        if (oldBuyer == address(0)) {\n            return;\n        }\n        uint oldTotalAmount = calculateTotalAmount(oldBid.amount, curProtocolFee, getOriginFee(LibBidDataV1.parse(oldBid.data, oldBid.dataType).originFee));\n        if (buyAsset == address(0)) {\n            (bool success,) = oldBuyer.call{ value: oldTotalAmount }(\"\");\n            if (!success) {\n                uint currentValueToWithdraw = readyToWithdraw[oldBuyer];\n                uint newValueToWithdraw = oldTotalAmount + (currentValueToWithdraw);\n                readyToWithdraw[oldBuyer] = newValueToWithdraw;\n                emit AvailableToWithdraw(oldBuyer, oldTotalAmount, newValueToWithdraw);\n            }\n        } else {\n            transferBid(\n                oldTotalAmount,\n                buyAsset,\n                address(this),\n                oldBuyer,\n                proxy\n            );\n        }\n    }\n\n    function _getProxy(address buyAsset) internal view returns(address){\n        address proxy;\n        if (buyAsset != address(0)){\n            proxy = proxies[LibAsset.ERC20_ASSET_CLASS];\n        }\n        return proxy;\n    }\n\n    /// @dev check that msg.value more than bid amount with fees and return change\n    function checkEthReturnChange(uint totalAmount, address buyer) internal {\n        uint msgValue = msg.value;\n        require(msgValue >= totalAmount, \"not enough ETH\");\n        uint256 change = msgValue - totalAmount;\n        if (change > 0) {\n            buyer.transferEth(change);\n        }\n    }\n\n}",
  "sourcePath": "/Users/ds/Documents/rarible/protocol-contracts/auction/contracts/721/AuctionHouse721.sol",
  "compiler": {
    "name": "solc",
    "version": "0.7.6+commit.7338295f.Emscripten.clang"
  },
  "schemaVersion": "3.4.3",
  "updatedAt": "2022-03-11T07:16:37.778Z",
  "devdoc": {
    "details": "contract to create and interact with auctions",
    "kind": "dev",
    "methods": {
      "buyOut(uint256,(uint256,bytes4,bytes))": {
        "details": "buyout auction if bid satisfies buyout condition"
      },
      "cancel(uint256)": {
        "details": "cancels existing auction without bid"
      },
      "checkAuctionExistence(uint256)": {
        "details": "returns true if auction exists, false otherwise"
      },
      "checkAuctionRangeTime(uint256)": {
        "details": "returns true if auction started and hasn't finished yet, false otherwise"
      },
      "finishAuction(uint256)": {
        "details": "finishes, deletes and transfers all assets for an auction if it's ended (it exists, it has at least one bid, now > endTme)"
      },
      "getAuctionByToken(address,uint256)": {
        "details": "returns auction id by token address and token id"
      },
      "getCurrentBuyer(uint256)": {
        "details": "returns current highest bidder for an auction"
      },
      "getMinimalNextBid(uint256)": {
        "details": "returns the minimal amount of the next bid (without fees)"
      },
      "onERC721Received(address,address,uint256,bytes)": {
        "details": "See {IERC721Receiver-onERC721Received}. Always returns `IERC721Receiver.onERC721Received.selector`."
      },
      "owner()": {
        "details": "Returns the address of the current owner."
      },
      "putBid(uint256,(uint256,bytes4,bytes))": {
        "details": "put a bid and return locked assets for the last bid"
      },
      "putBidWrapper(uint256)": {
        "details": "function to call from wrapper to put bid"
      },
      "renounceOwnership()": {
        "details": "Leaves the contract without owner. It will not be possible to call `onlyOwner` functions anymore. Can only be called by the current owner. NOTE: Renouncing ownership will leave the contract without an owner, thereby removing any functionality that is only available to the owner."
      },
      "startAuction(address,uint256,address,uint96,bytes4,bytes)": {
        "details": "creates an auction and locks sell asset"
      },
      "transferOwnership(address)": {
        "details": "Transfers ownership of the contract to a new account (`newOwner`). Can only be called by the current owner."
      },
      "withdrawFaultyBid(address)": {
        "details": "Used to withdraw faulty bids (bids that failed to return after out-bidding)"
      }
    },
    "version": 1
  },
  "userdoc": {
    "kind": "user",
    "methods": {},
    "version": 1
  }
}