{
  "contractName": "AuctionHouse1155",
  "abi": [
    {
      "anonymous": false,
      "inputs": [
        {
          "indexed": true,
          "internalType": "uint256",
          "name": "auctionId",
          "type": "uint256"
        }
      ],
      "name": "AuctionBuyOut",
      "type": "event"
    },
    {
      "anonymous": false,
      "inputs": [
        {
          "indexed": true,
          "internalType": "uint256",
          "name": "auctionId",
          "type": "uint256"
        }
      ],
      "name": "AuctionCancelled",
      "type": "event"
    },
    {
      "anonymous": false,
      "inputs": [
        {
          "indexed": true,
          "internalType": "uint256",
          "name": "auctionId",
          "type": "uint256"
        },
        {
          "indexed": false,
          "internalType": "uint128",
          "name": "endTime",
          "type": "uint128"
        }
      ],
      "name": "AuctionCreated",
      "type": "event"
    },
    {
      "anonymous": false,
      "inputs": [
        {
          "indexed": true,
          "internalType": "uint256",
          "name": "auctionId",
          "type": "uint256"
        }
      ],
      "name": "AuctionFinished",
      "type": "event"
    },
    {
      "anonymous": false,
      "inputs": [
        {
          "indexed": true,
          "internalType": "address",
          "name": "owner",
          "type": "address"
        },
        {
          "indexed": false,
          "internalType": "uint256",
          "name": "added",
          "type": "uint256"
        },
        {
          "indexed": false,
          "internalType": "uint256",
          "name": "total",
          "type": "uint256"
        }
      ],
      "name": "AvailableToWithdraw",
      "type": "event"
    },
    {
      "anonymous": false,
      "inputs": [
        {
          "indexed": true,
          "internalType": "uint256",
          "name": "auctionId",
          "type": "uint256"
        },
        {
          "indexed": false,
          "internalType": "uint256",
          "name": "endTime",
          "type": "uint256"
        }
      ],
      "name": "BidPlaced",
      "type": "event"
    },
    {
      "anonymous": false,
      "inputs": [
        {
          "indexed": false,
          "internalType": "uint256",
          "name": "oldValue",
          "type": "uint256"
        },
        {
          "indexed": false,
          "internalType": "uint256",
          "name": "newValue",
          "type": "uint256"
        }
      ],
      "name": "MinimalDurationChanged",
      "type": "event"
    },
    {
      "anonymous": false,
      "inputs": [
        {
          "indexed": false,
          "internalType": "uint256",
          "name": "oldValue",
          "type": "uint256"
        },
        {
          "indexed": false,
          "internalType": "uint256",
          "name": "newValue",
          "type": "uint256"
        }
      ],
      "name": "MinimalStepChanged",
      "type": "event"
    },
    {
      "anonymous": false,
      "inputs": [
        {
          "indexed": true,
          "internalType": "address",
          "name": "previousOwner",
          "type": "address"
        },
        {
          "indexed": true,
          "internalType": "address",
          "name": "newOwner",
          "type": "address"
        }
      ],
      "name": "OwnershipTransferred",
      "type": "event"
    },
    {
      "anonymous": false,
      "inputs": [
        {
          "indexed": false,
          "internalType": "uint256",
          "name": "oldValue",
          "type": "uint256"
        },
        {
          "indexed": false,
          "internalType": "uint256",
          "name": "newValue",
          "type": "uint256"
        }
      ],
      "name": "ProtocolFeeChanged",
      "type": "event"
    },
    {
      "anonymous": false,
      "inputs": [
        {
          "indexed": true,
          "internalType": "bytes4",
          "name": "assetType",
          "type": "bytes4"
        },
        {
          "indexed": false,
          "internalType": "address",
          "name": "proxy",
          "type": "address"
        }
      ],
      "name": "ProxyChange",
      "type": "event"
    },
    {
      "inputs": [],
      "name": "auctionId",
      "outputs": [
        {
          "internalType": "uint256",
          "name": "",
          "type": "uint256"
        }
      ],
      "stateMutability": "view",
      "type": "function"
    },
    {
      "inputs": [
        {
          "internalType": "uint96",
          "name": "newValue",
          "type": "uint96"
        }
      ],
      "name": "changeMinimalDuration",
      "outputs": [],
      "stateMutability": "nonpayable",
      "type": "function"
    },
    {
      "inputs": [
        {
          "internalType": "uint128",
          "name": "newValue",
          "type": "uint128"
        }
      ],
      "name": "changeMinimalStep",
      "outputs": [],
      "stateMutability": "nonpayable",
      "type": "function"
    },
    {
      "inputs": [],
      "name": "defaultFeeReceiver",
      "outputs": [
        {
          "internalType": "address",
          "name": "",
          "type": "address"
        }
      ],
      "stateMutability": "view",
      "type": "function"
    },
    {
      "inputs": [
        {
          "internalType": "address",
          "name": "",
          "type": "address"
        }
      ],
      "name": "feeReceivers",
      "outputs": [
        {
          "internalType": "address",
          "name": "",
          "type": "address"
        }
      ],
      "stateMutability": "view",
      "type": "function"
    },
    {
      "inputs": [
        {
          "internalType": "address",
          "name": "token",
          "type": "address"
        }
      ],
      "name": "getFeeReceiver",
      "outputs": [
        {
          "internalType": "address",
          "name": "",
          "type": "address"
        }
      ],
      "stateMutability": "view",
      "type": "function"
    },
    {
      "inputs": [],
      "name": "minimalDuration",
      "outputs": [
        {
          "internalType": "uint96",
          "name": "",
          "type": "uint96"
        }
      ],
      "stateMutability": "view",
      "type": "function"
    },
    {
      "inputs": [],
      "name": "minimalStepBasePoint",
      "outputs": [
        {
          "internalType": "uint128",
          "name": "",
          "type": "uint128"
        }
      ],
      "stateMutability": "view",
      "type": "function"
    },
    {
      "inputs": [
        {
          "internalType": "address",
          "name": "",
          "type": "address"
        },
        {
          "internalType": "address",
          "name": "",
          "type": "address"
        },
        {
          "internalType": "uint256[]",
          "name": "",
          "type": "uint256[]"
        },
        {
          "internalType": "uint256[]",
          "name": "",
          "type": "uint256[]"
        },
        {
          "internalType": "bytes",
          "name": "",
          "type": "bytes"
        }
      ],
      "name": "onERC1155BatchReceived",
      "outputs": [
        {
          "internalType": "bytes4",
          "name": "",
          "type": "bytes4"
        }
      ],
      "stateMutability": "nonpayable",
      "type": "function"
    },
    {
      "inputs": [
        {
          "internalType": "address",
          "name": "",
          "type": "address"
        },
        {
          "internalType": "address",
          "name": "",
          "type": "address"
        },
        {
          "internalType": "uint256",
          "name": "",
          "type": "uint256"
        },
        {
          "internalType": "uint256",
          "name": "",
          "type": "uint256"
        },
        {
          "internalType": "bytes",
          "name": "",
          "type": "bytes"
        }
      ],
      "name": "onERC1155Received",
      "outputs": [
        {
          "internalType": "bytes4",
          "name": "",
          "type": "bytes4"
        }
      ],
      "stateMutability": "nonpayable",
      "type": "function"
    },
    {
      "inputs": [],
      "name": "owner",
      "outputs": [
        {
          "internalType": "address",
          "name": "",
          "type": "address"
        }
      ],
      "stateMutability": "view",
      "type": "function"
    },
    {
      "inputs": [
        {
          "internalType": "uint256",
          "name": "data",
          "type": "uint256"
        }
      ],
      "name": "parseFeeData",
      "outputs": [
        {
          "internalType": "address",
          "name": "",
          "type": "address"
        },
        {
          "internalType": "uint96",
          "name": "",
          "type": "uint96"
        }
      ],
      "stateMutability": "pure",
      "type": "function"
    },
    {
      "inputs": [],
      "name": "protocolFee",
      "outputs": [
        {
          "internalType": "uint64",
          "name": "",
          "type": "uint64"
        }
      ],
      "stateMutability": "view",
      "type": "function"
    },
    {
      "inputs": [],
      "name": "renounceOwnership",
      "outputs": [],
      "stateMutability": "nonpayable",
      "type": "function"
    },
    {
      "inputs": [],
      "name": "royaltiesRegistry",
      "outputs": [
        {
          "internalType": "contract IRoyaltiesProvider",
          "name": "",
          "type": "address"
        }
      ],
      "stateMutability": "view",
      "type": "function"
    },
    {
      "inputs": [
        {
          "internalType": "address payable",
          "name": "newDefaultFeeReceiver",
          "type": "address"
        }
      ],
      "name": "setDefaultFeeReceiver",
      "outputs": [],
      "stateMutability": "nonpayable",
      "type": "function"
    },
    {
      "inputs": [
        {
          "internalType": "address",
          "name": "token",
          "type": "address"
        },
        {
          "internalType": "address",
          "name": "wallet",
          "type": "address"
        }
      ],
      "name": "setFeeReceiver",
      "outputs": [],
      "stateMutability": "nonpayable",
      "type": "function"
    },
    {
      "inputs": [
        {
          "internalType": "uint64",
          "name": "_protocolFee",
          "type": "uint64"
        }
      ],
      "name": "setProtocolFee",
      "outputs": [],
      "stateMutability": "nonpayable",
      "type": "function"
    },
    {
      "inputs": [
        {
          "internalType": "contract IRoyaltiesProvider",
          "name": "newRoyaltiesRegistry",
          "type": "address"
        }
      ],
      "name": "setRoyaltiesRegistry",
      "outputs": [],
      "stateMutability": "nonpayable",
      "type": "function"
    },
    {
      "inputs": [
        {
          "internalType": "bytes4",
          "name": "assetType",
          "type": "bytes4"
        },
        {
          "internalType": "address",
          "name": "proxy",
          "type": "address"
        }
      ],
      "name": "setTransferProxy",
      "outputs": [],
      "stateMutability": "nonpayable",
      "type": "function"
    },
    {
      "inputs": [
        {
          "internalType": "address",
          "name": "newOwner",
          "type": "address"
        }
      ],
      "name": "transferOwnership",
      "outputs": [],
      "stateMutability": "nonpayable",
      "type": "function"
    },
    {
      "inputs": [
        {
          "internalType": "address",
          "name": "newDefaultFeeReceiver",
          "type": "address"
        },
        {
          "internalType": "contract IRoyaltiesProvider",
          "name": "newRoyaltiesProvider",
          "type": "address"
        },
        {
          "internalType": "address",
          "name": "transferProxy",
          "type": "address"
        },
        {
          "internalType": "address",
          "name": "erc20TransferProxy",
          "type": "address"
        },
        {
          "internalType": "uint64",
          "name": "_protocolFee",
          "type": "uint64"
        },
        {
          "internalType": "uint128",
          "name": "_minimalStepBasePoint",
          "type": "uint128"
        }
      ],
      "name": "__AuctionHouse1155_init",
      "outputs": [],
      "stateMutability": "nonpayable",
      "type": "function"
    },
    {
      "inputs": [
        {
          "internalType": "address",
          "name": "_sellToken",
          "type": "address"
        },
        {
          "internalType": "uint96",
          "name": "_sellTokenValue",
          "type": "uint96"
        },
        {
          "internalType": "uint256",
          "name": "_sellTokenId",
          "type": "uint256"
        },
        {
          "internalType": "address",
          "name": "_buyAsset",
          "type": "address"
        },
        {
          "internalType": "uint96",
          "name": "minimalPrice",
          "type": "uint96"
        },
        {
          "internalType": "bytes4",
          "name": "dataType",
          "type": "bytes4"
        },
        {
          "internalType": "bytes",
          "name": "data",
          "type": "bytes"
        }
      ],
      "name": "startAuction",
      "outputs": [],
      "stateMutability": "nonpayable",
      "type": "function"
    },
    {
      "inputs": [
        {
          "internalType": "uint256",
          "name": "_auctionId",
          "type": "uint256"
        },
        {
          "components": [
            {
              "internalType": "uint256",
              "name": "amount",
              "type": "uint256"
            },
            {
              "internalType": "bytes4",
              "name": "dataType",
              "type": "bytes4"
            },
            {
              "internalType": "bytes",
              "name": "data",
              "type": "bytes"
            }
          ],
          "internalType": "struct AuctionHouseStruct1155.Bid",
          "name": "bid",
          "type": "tuple"
        }
      ],
      "name": "putBid",
      "outputs": [],
      "stateMutability": "payable",
      "type": "function"
    },
    {
      "inputs": [
        {
          "internalType": "uint256",
          "name": "_auctionId",
          "type": "uint256"
        }
      ],
      "name": "getMinimalNextBid",
      "outputs": [
        {
          "internalType": "uint256",
          "name": "minBid",
          "type": "uint256"
        }
      ],
      "stateMutability": "view",
      "type": "function"
    },
    {
      "inputs": [
        {
          "internalType": "uint256",
          "name": "_auctionId",
          "type": "uint256"
        }
      ],
      "name": "checkAuctionExistence",
      "outputs": [
        {
          "internalType": "bool",
          "name": "",
          "type": "bool"
        }
      ],
      "stateMutability": "view",
      "type": "function"
    },
    {
      "inputs": [
        {
          "internalType": "uint256",
          "name": "_auctionId",
          "type": "uint256"
        }
      ],
      "name": "finishAuction",
      "outputs": [],
      "stateMutability": "nonpayable",
      "type": "function"
    },
    {
      "inputs": [
        {
          "internalType": "uint256",
          "name": "_auctionId",
          "type": "uint256"
        }
      ],
      "name": "checkAuctionRangeTime",
      "outputs": [
        {
          "internalType": "bool",
          "name": "",
          "type": "bool"
        }
      ],
      "stateMutability": "view",
      "type": "function"
    },
    {
      "inputs": [
        {
          "internalType": "uint256",
          "name": "_auctionId",
          "type": "uint256"
        }
      ],
      "name": "cancel",
      "outputs": [],
      "stateMutability": "nonpayable",
      "type": "function"
    },
    {
      "inputs": [
        {
          "internalType": "uint256",
          "name": "_auctionId",
          "type": "uint256"
        },
        {
          "components": [
            {
              "internalType": "uint256",
              "name": "amount",
              "type": "uint256"
            },
            {
              "internalType": "bytes4",
              "name": "dataType",
              "type": "bytes4"
            },
            {
              "internalType": "bytes",
              "name": "data",
              "type": "bytes"
            }
          ],
          "internalType": "struct AuctionHouseStruct1155.Bid",
          "name": "bid",
          "type": "tuple"
        }
      ],
      "name": "buyOut",
      "outputs": [],
      "stateMutability": "payable",
      "type": "function"
    },
    {
      "inputs": [
        {
          "internalType": "uint256",
          "name": "_auctionId",
          "type": "uint256"
        }
      ],
      "name": "getCurrentBuyer",
      "outputs": [
        {
          "internalType": "address",
          "name": "",
          "type": "address"
        }
      ],
      "stateMutability": "view",
      "type": "function"
    },
    {
      "inputs": [
        {
          "internalType": "uint256",
          "name": "_auctionId",
          "type": "uint256"
        }
      ],
      "name": "putBidWrapper",
      "outputs": [],
      "stateMutability": "payable",
      "type": "function"
    },
    {
      "inputs": [
        {
          "internalType": "address",
          "name": "_to",
          "type": "address"
        }
      ],
      "name": "withdrawFaultyBid",
      "outputs": [],
      "stateMutability": "nonpayable",
      "type": "function"
    },
    {
      "inputs": [
        {
          "internalType": "bytes4",
          "name": "interfaceId",
          "type": "bytes4"
        }
      ],
      "name": "supportsInterface",
      "outputs": [
        {
          "internalType": "bool",
          "name": "",
          "type": "bool"
        }
      ],
      "stateMutability": "view",
      "type": "function"
    }
  ],
  "bytecode": "0x608060405234801561001057600080fd5b50614b14806100206000396000f3fe6080604052600436106101f95760003560e01c8063715018a61161010d578063bd9d21bd116100a0578063e66db25e1161006f578063e66db25e14610593578063e68aceae146105b3578063ec578348146105d3578063f23a6e61146105f3578063f2fde38b14610613576101f9565b8063bd9d21bd14610513578063c90f1f7c14610533578063cf266ed014610553578063d596199914610573576101f9565b8063a6f4a3e0116100dc578063a6f4a3e014610483578063b0e21e8a14610496578063b8bfa006146104b8578063bc197c81146104e6576101f9565b8063715018a6146104175780638da5cb5b1461042c578063914bf5f914610441578063a2a106b814610463576101f9565b806330c642f11161019057806340e58ee51161015f57806340e58ee51461038f57806343bc42d3146103af578063506a90e7146103cf5780636d8f0694146103e25780636eeb69db146103f7576101f9565b806330c642f11461031a578063363188151461033a5780633abf6fd41461035a5780633be899221461036f576101f9565b80631cdfe3d8116101cc5780631cdfe3d8146102a35780632a6bf6a8146102c55780632deafb99146102d85780632f572336146102f8576101f9565b806301ffc9a7146101fe57806302097ab1146102345780630d6079641461026157806310782f8f1461028e575b600080fd5b34801561020a57600080fd5b5061021e610219366004614284565b610633565b60405161022b9190614506565b60405180910390f35b34801561024057600080fd5b5061025461024f366004613f0e565b6106b1565b60405161022b919061445b565b34801561026d57600080fd5b5061028161027c36600461436b565b6106cd565b60405161022b919061492c565b34801561029a57600080fd5b5061028161090c565b3480156102af57600080fd5b506102c36102be366004613f0e565b610913565b005b6102c36102d336600461436b565b610998565b3480156102e457600080fd5b506102546102f3366004613f0e565b610a3a565b34801561030457600080fd5b5061030d610a79565b60405161022b9190614971565b34801561032657600080fd5b506102c361033536600461429e565b610a89565b34801561034657600080fd5b506102c361035536600461443c565b610b5a565b34801561036657600080fd5b50610254610c2c565b34801561037b57600080fd5b506102c361038a366004613f0e565b610c3c565b34801561039b57600080fd5b506102c36103aa36600461436b565b610cc1565b3480156103bb57600080fd5b506102c36103ca366004614422565b611068565b6102c36103dd366004614383565b611147565b3480156103ee57600080fd5b5061025461170f565b34801561040357600080fd5b5061025461041236600461436b565b61171f565b34801561042357600080fd5b506102c361173e565b34801561043857600080fd5b506102546117ea565b34801561044d57600080fd5b506104566117f9565b60405161022b91906148fe565b34801561046f57600080fd5b5061021e61047e36600461436b565b611809565b6102c3610491366004614383565b61182a565b3480156104a257600080fd5b506104ab611b71565b60405161022b9190614943565b3480156104c457600080fd5b506104d86104d336600461436b565b611b88565b60405161022b9291906144e4565b3480156104f257600080fd5b50610506610501366004613f62565b611b91565b60405161022b9190614511565b34801561051f57600080fd5b506102c361052e366004613f0e565b611ba2565b34801561053f57600080fd5b506102c361054e366004614351565b611c12565b34801561055f57600080fd5b506102c361056e36600461436b565b611cdf565b34801561057f57600080fd5b506102c361058e366004614071565b6120df565b34801561059f57600080fd5b506102c36105ae366004613f2a565b6121cd565b3480156105bf57600080fd5b506102c36105ce3660046140ec565b61225e565b3480156105df57600080fd5b5061021e6105ee36600461436b565b6126a2565b3480156105ff57600080fd5b5061050661060e36600461400b565b6127de565b34801561061f57600080fd5b506102c361062e366004613f0e565b6127ef565b6040516301ffc9a760e01b815260009030906301ffc9a790610659908590600401614511565b60206040518083038186803b15801561067157600080fd5b505afa158015610685573d6000803e3d6000fd5b505050506040513d601f19601f820116820180604052508101906106a99190614264565b90505b919050565b610165602052600090815260409020546001600160a01b031681565b60008181526101676020908152604080832081516101808101835281546001600160a01b038082168352600160a01b918290046001600160601b039081168488015260018086015485880152600280870154938416606080880191909152949093049091166080850152855192830186526003850180548452600486015460e01b6001600160e01b0319168489015260058601805488516101009482161594909402600019011693909304601f810189900489028301890188528083528998959760a0890196929490860193929091908301828280156107ee5780601f106107c3576101008083540402835291602001916107ee565b820191906000526020600020905b8154815290600101906020018083116107d157829003601f168201915b50505091909252505050815260068201546001600160a01b03808216602080850191909152600160a01b928390046001600160601b0316604080860191909152600786015492831660608601529282046001600160401b03166080850152600160e01b90910460e01b6001600160e01b03191660a0840152600884018054835160026101006001841615026000190190921691909104601f810184900484028201840190945283815260c0909401939290918301828280156108f15780601f106108c6576101008083540402835291602001916108f1565b820191906000526020600020905b8154815290600101906020018083116108d457829003601f168201915b5050505050815250509050610905816128f2565b9392505050565b61012e5481565b61091b612946565b6001600160a01b031661092c6117ea565b6001600160a01b031614610975576040805162461bcd60e51b81526020600482018190526024820152600080516020614abf833981519152604482015290519081900360640190fd5b61016480546001600160a01b0319166001600160a01b0392909216919091179055565b600081815261016760205260409020600201546001600160a01b0316156109da5760405162461bcd60e51b81526004016109d1906145ca565b60405180910390fd5b610a378160405180606001604052803481526020017f4c23426613a5dc69e08fbd2787e6210aa679d4522e95a89d4dd88c4fd13a22836001600160e01b031916815260200160405180602001604052806000815250815250611147565b50565b6001600160a01b03808216600090815261016560205260408120549091168015610a655790506106ac565b5050610164546001600160a01b0316919050565b61012f546001600160601b031681565b610a91612946565b6001600160a01b0316610aa26117ea565b6001600160a01b031614610aeb576040805162461bcd60e51b81526020600482018190526024820152600080516020614abf833981519152604482015290519081900360640190fd5b6001600160e01b031982166000818152610166602090815260409182902080546001600160a01b0319166001600160a01b038616908117909155825190815291517f4b5aced933c0c9a88aeac3f0b3b72c5aaf75df8ebaf53225773248c4c31535939281900390910190a25050565b610b62612946565b6001600160a01b0316610b736117ea565b6001600160a01b031614610bbc576040805162461bcd60e51b81526020600482018190526024820152600080516020614abf833981519152604482015290519081900360640190fd5b61012f546040517fa13d21133118bfdffd1e4dc724faaadc5860dcb38ac5836e06f183ac5306b27991610bfc916001600160601b03909116908490614985565b60405180910390a161012f80546bffffffffffffffffffffffff19166001600160601b0392909216919091179055565b610164546001600160a01b031681565b610c44612946565b6001600160a01b0316610c556117ea565b6001600160a01b031614610c9e576040805162461bcd60e51b81526020600482018190526024820152600080516020614abf833981519152604482015290519081900360640190fd5b61016380546001600160a01b0319166001600160a01b0392909216919091179055565b600260fb541415610d07576040805162461bcd60e51b815260206004820152601f6024820152600080516020614a0a833981519152604482015290519081900360640190fd5b600260fb81905560008281526101676020908152604080832081516101808101835281546001600160a01b038082168352600160a01b918290046001600160601b039081168488015260018086015485880152858a015492831660608087019190915293909204166080840152845191820185526003840180548352600485015460e01b6001600160e01b0319168388015260058501805487516101009482161594909402600019011699909904601f8101889004880283018801875280835297989397949660a089019693959194938601939190830182828015610e2d5780601f10610e0257610100808354040283529160200191610e2d565b820191906000526020600020905b815481529060010190602001808311610e1057829003601f168201915b50505091909252505050815260068201546001600160a01b03808216602080850191909152600160a01b928390046001600160601b0316604080860191909152600786015492831660608601529282046001600160401b03166080850152600160e01b90910460e01b6001600160e01b03191660a0840152600884018054835160026101006001841615026000190190921691909104601f810184900484028201840190945283815260c090940193929091830182828015610f305780601f10610f0557610100808354040283529160200191610f30565b820191906000526020600020905b815481529060010190602001808311610f1357829003601f168201915b5050505050815250509050610f448161294a565b610f605760405162461bcd60e51b81526004016109d190614630565b60c0810151610f6d612946565b6001600160a01b0316816001600160a01b031614610f9d5760405162461bcd60e51b81526004016109d1906146b6565b6101008201516001600160a01b031615610fc95760405162461bcd60e51b81526004016109d190614799565b61102a604051806080016040528084600001516001600160a01b031681526020018460400151815260200184602001516001600160601b03168152602001600080516020614a9f8339815191526001600160e01b031916815250308361295c565b611033836129a4565b60405183907f2809c7e17bf978fbc7194c0a694b638c4215e9140cacc6c38ca36010b45697df90600090a25050600160fb5550565b611070612946565b6001600160a01b03166110816117ea565b6001600160a01b0316146110ca576040805162461bcd60e51b81526020600482018190526024820152600080516020614abf833981519152604482015290519081900360640190fd5b7fb51bef650ff5ad43303dbe2e500a74d4fd1bdc9ae05f046bece330e82ae0ba8761012f600c9054906101000a90046001600160401b031682604051611111929190614957565b60405180910390a161012f80546001600160401b03909216600160601b0267ffffffffffffffff60601b19909216919091179055565b600260fb54141561118d576040805162461bcd60e51b815260206004820152601f6024820152600080516020614a0a833981519152604482015290519081900360640190fd5b600260fb55600061119c612946565b825160008581526101676020908152604080832081516101808101835281546001600160a01b038082168352600160a01b918290046001600160601b039081168488015260018086015485880152600280870154938416606080880191909152949093049091166080850152855192830186526003850180548452600486015460e01b6001600160e01b0319168489015260058601805488516101009482161594909402600019011693909304601f810189900489028301890188528083529a9b50989997989397949660a0890196939593860193919291908301828280156112c65780601f1061129b576101008083540402835291602001916112c6565b820191906000526020600020905b8154815290600101906020018083116112a957829003601f168201915b50505091909252505050815260068201546001600160a01b03808216602080850191909152600160a01b928390046001600160601b0316604080860191909152600786015492831660608601529282046001600160401b03166080850152600160e01b90910460e01b6001600160e01b03191660a0840152600884018054835160026101006001841615026000190190921691909104601f810184900484028201840190945283815260c0909401939290918301828280156113c95780601f1061139e576101008083540402835291602001916113c9565b820191906000526020600020905b8154815290600101906020018083116113ac57829003601f168201915b505050505081525050905060008160800151905060006113f3836101600151846101400151612a36565b9050600061140987604001518860200151612a98565b600001519050600061142e88600001518661012001516001600160401b031684612aec565b60608601519091506001600160a01b031661144d5761144d8188612b38565b6114578584612b7c565b6114618387612bc7565b15611481576114758589858c86868d612bf6565b50505050505050611706565b61010085015142906001600160a01b03166115265760808601516001600160601b03166114f45760208481015160008c8152610167909252604090912060020180546001600160a01b0316600160a01b6001600160601b0385811690940193841690810291909117909155608088015294505b8560e001516001600160601b03168710156115215760405162461bcd60e51b81526004016109d1906146ed565b61158c565b876001600160a01b03168661010001516001600160a01b0316141561155d5760405162461bcd60e51b81526004016109d1906147d0565b6000611568876128f2565b90508088101561158a5760405162461bcd60e51b81526004016109d190614665565b505b600061159b8760600151612d16565b90506115c787606001518861012001516001600160401b03168961010001518c8b60a001518689612d6a565b60008b815261016760209081526040918290208c51600382019081558d83015160048301805463ffffffff191660e09290921c919091179055928d015180518e949361161893600501920190613cd8565b50505060008b81526101676020526040812060070180546001600160a01b0319166001600160a01b038c1617905561012f546001600160601b031690610384821061166557610384611667565b815b9050806001600160601b03168489036001600160601b031610156116c25760008d81526101676020526040902060020180546001600160601b03868401908116600160a01b026001600160a01b039092169190911790915597505b8c7f0fc69407039e8ba8cdd517e2a4cae9dd19697b0a500ff37a2425c59ebc649b31896040516116f29190614971565b60405180910390a250505050505050505050505b5050600160fb55565b610163546001600160a01b031681565b600090815261016760205260409020600701546001600160a01b031690565b611746612946565b6001600160a01b03166117576117ea565b6001600160a01b0316146117a0576040805162461bcd60e51b81526020600482018190526024820152600080516020614abf833981519152604482015290519081900360640190fd5b60c9546040516000916001600160a01b0316907f8be0079c531659141344cd1fd0a4f28419497f9722a3daafe3b4186f6b6457e0908390a360c980546001600160a01b0319169055565b60c9546001600160a01b031690565b610130546001600160801b031681565b600090815261016760205260409020600601546001600160a01b0316151590565b600260fb541415611870576040805162461bcd60e51b815260206004820152601f6024820152600080516020614a0a833981519152604482015290519081900360640190fd5b600260fb81905560008381526101676020908152604080832081516101808101835281546001600160a01b038082168352600160a01b918290046001600160601b039081168488015260018086015485880152858a015492831660608087019190915293909204166080840152845191820185526003840180548352600485015460e01b6001600160e01b0319168388015260058501805487516101009482161594909402600019011699909904601f8101889004880283018801875280835297989397949660a0890196939591949386019391908301828280156119965780601f1061196b57610100808354040283529160200191611996565b820191906000526020600020905b81548152906001019060200180831161197957829003601f168201915b50505091909252505050815260068201546001600160a01b03808216602080850191909152600160a01b928390046001600160601b0316604080860191909152600786015492831660608601529282046001600160401b03166080850152600160e01b90910460e01b6001600160e01b03191660a0840152600884018054835160026101006001841615026000190190921691909104601f810184900484028201840190945283815260c090940193929091830182828015611a995780601f10611a6e57610100808354040283529160200191611a99565b820191906000526020600020905b815481529060010190602001808311611a7c57829003601f168201915b50505050508152505090506000611aba826101600151836101400151612a36565b9050611ac68282612b7c565b611ad4818460000151612bc7565b611af05760405162461bcd60e51b81526004016109d19061476a565b6000611b0484604001518560200151612a98565b6000015190506000611b2985600001518561012001516001600160401b031684612aec565b90506000611b35612946565b60608601519091506001600160a01b0316611b5457611b548282612b38565b611b638587868a878787612bf6565b5050600160fb555050505050565b61012f54600160601b90046001600160401b031681565b9060a082901c90565b63bc197c8160e01b95945050505050565b6000611bac612946565b6001600160a01b038116600090815261012d602052604090205490915080611be65760405162461bcd60e51b81526004016109d19061482a565b6001600160a01b03808316600090815261012d6020526040812055611c0d90841682612d84565b505050565b611c1a612946565b6001600160a01b0316611c2b6117ea565b6001600160a01b031614611c74576040805162461bcd60e51b81526020600482018190526024820152600080516020614abf833981519152604482015290519081900360640190fd5b610130546040517f30bd79db520376a437e44c44c2b3ec63f6730f4df0a95f56ea39765f1420cab791611cb4916001600160801b03909116908490614912565b60405180910390a161013080546001600160801b0319166001600160801b0392909216919091179055565b600260fb541415611d25576040805162461bcd60e51b815260206004820152601f6024820152600080516020614a0a833981519152604482015290519081900360640190fd5b600260fb81905560008281526101676020908152604080832081516101808101835281546001600160a01b038082168352600160a01b918290046001600160601b039081168488015260018086015485880152858a015492831660608087019190915293909204166080840152845191820185526003840180548352600485015460e01b6001600160e01b0319168388015260058501805487516101009482161594909402600019011699909904601f8101889004880283018801875280835297989397949660a089019693959194938601939190830182828015611e4b5780601f10611e2057610100808354040283529160200191611e4b565b820191906000526020600020905b815481529060010190602001808311611e2e57829003601f168201915b50505091909252505050815260068201546001600160a01b03808216602080850191909152600160a01b928390046001600160601b0316604080860191909152600786015492831660608601529282046001600160401b03166080850152600160e01b90910460e01b6001600160e01b03191660a0840152600884018054835160026101006001841615026000190190921691909104601f810184900484028201840190945283815260c090940193929091830182828015611f4e5780601f10611f2357610100808354040283529160200191611f4e565b820191906000526020600020905b815481529060010190602001808311611f3157829003601f168201915b5050505050815250509050611f628161294a565b611f7e5760405162461bcd60e51b81526004016109d190614630565b6000611f94826101600151836101400151612a36565b9050611fb182608001516001600160601b03168260400151612e1c565b158015611fcb57506101008201516001600160a01b031615155b611fe75760405162461bcd60e51b81526004016109d190614887565b60006120038360a00151604001518460a0015160200151612a98565b600001519050600061202c8460a00151600001518561012001516001600160401b031684612aec565b90506120ca604051806080016040528086600001516001600160a01b031681526020018660400151815260200186602001516001600160601b03168152602001600080516020614a9f8339815191526001600160e01b03191681525085606001518660a0015160000151308861010001518960c001518a61012001516001600160401b03168a600001516120c38d60600151612d16565b8b8b612e65565b6120d3856129a4565b5050600160fb55505050565b600054610100900460ff16806120f857506120f8612ed3565b80612106575060005460ff16155b6121415760405162461bcd60e51b815260040180806020018281038252602e815260200180614a50602e913960400191505060405180910390fd5b600054610100900460ff1615801561216c576000805460ff1961ff0019909116610100171660011790555b612174612ee4565b61217c612f85565b61218461307e565b61218c61311b565b61219683836131c1565b61219e6132c1565b6121aa878787876132c3565b6121b2612ee4565b80156121c4576000805461ff00191690555b50505050505050565b6121d5612946565b6001600160a01b03166121e66117ea565b6001600160a01b03161461222f576040805162461bcd60e51b81526020600482018190526024820152600080516020614abf833981519152604482015290519081900360640190fd5b6001600160a01b0391821660009081526101656020526040902080546001600160a01b03191691909216179055565b600061226a8284612a36565b61012f5460208201519192506001600160601b031611801590612295575060208101516305265c0010155b6122b15760405162461bcd60e51b81526004016109d19061468a565b6000876001600160601b0316116122da5760405162461bcd60e51b81526004016109d190614593565b60408101516000901561231857428260400151101561230b5760405162461bcd60e51b81526004016109d19061473c565b5060208101516040820151015b600061232261342c565b9050600061232e612946565b905060006040518061018001604052808d6001600160a01b031681526020018c6001600160601b031681526020018b81526020018a6001600160a01b03168152602001856001600160601b0316815260200160405180606001604052806000815260200160006001600160e01b0319168152602001604051806020016040528060008152508152508152602001836001600160a01b03168152602001896001600160601b0316815260200160006001600160a01b0316815260200161012f600c9054906101000a90046001600160401b03166001600160401b03168152602001886001600160e01b031916815260200187815250905080610167600085815260200190815260200160002060008201518160000160006101000a8154816001600160a01b0302191690836001600160a01b0316021790555060208201518160000160146101000a8154816001600160601b0302191690836001600160601b031602179055506040820151816001015560608201518160020160006101000a8154816001600160a01b0302191690836001600160a01b0316021790555060808201518160020160146101000a8154816001600160601b0302191690836001600160601b0316021790555060a0820151816003016000820151816000015560208201518160010160006101000a81548163ffffffff021916908360e01c0217905550604082015181600201908051906020019061254a929190613cd8565b50505060c082015160068201805460e0808601516001600160601b0316600160a01b9081026001600160a01b039586166001600160a01b0319948516178616179093556101008601516007860180546101208901516101408a015190941c600160e01b026001600160e01b036001600160401b0390951690960267ffffffffffffffff60a01b19939097169416939093171693909317929092161790556101608201518051612603916008840191602090910190613cd8565b5090505061265c60405180608001604052808e6001600160a01b031681526020018c81526020018d6001600160601b03168152602001600080516020614a9f8339815191526001600160e01b031916815250833061295c565b827fbcdc8301bb4c80e298a223945c162e7f8b4d8521d812f6536963063d7f9cc5a68560405161268c9190614971565b60405180910390a2505050505050505050505050565b6000818152610167602090815260408083206008018054825160026001831615610100026000190190921691909104601f810185900485028201850190935282815242938593612767939183018282801561273e5780601f106127135761010080835404028352916020019161273e565b820191906000526020600020905b81548152906001019060200180831161272157829003601f168201915b50505060008881526101676020526040902060070154600160e01b900460e01b9150612a369050565b9050600081604001511180156127805750818160400151115b15612790576000925050506106ac565b60008481526101676020526040902060020154600160a01b90046001600160601b031680158015906127c25750828111155b156127d357600093505050506106ac565b506001949350505050565b63f23a6e6160e01b95945050505050565b6127f7612946565b6001600160a01b03166128086117ea565b6001600160a01b031614612851576040805162461bcd60e51b81526020600482018190526024820152600080516020614abf833981519152604482015290519081900360640190fd5b6001600160a01b0381166128965760405162461bcd60e51b8152600401808060200182810382526026815260200180614a2a6026913960400191505060405180910390fd5b60c9546040516001600160a01b038084169216907f8be0079c531659141344cd1fd0a4f28419497f9722a3daafe3b4186f6b6457e090600090a360c980546001600160a01b0319166001600160a01b0392909216919091179055565b6101008101516000906001600160a01b031661291c575060e08101516001600160601b03166106ac565b6101305460a083015151612938916001600160801b031661343b565b60a083015151019050919050565b3390565b60c001516001600160a01b0316151590565b604080840151602080860151606087015187516001600160e01b0319821660009081526101669094529490922054611c0d9491929190879087906001600160a01b0316613453565b60405181907f53ab6823c4ae8c865033f94ee16313a21c6ade19520d884dc804d622a43bc67490600090a260008181526101676020526040812081815560018101829055600281018290556003810182815560048201805463ffffffff1916905590919081612a166005850182613d64565b505060006006830181905560078301819055611c0d906008840190613d64565b612a3e613da8565b6001600160e01b03198216632611a13360e11b1415612a7a57825115612a755782806020019051810190612a7291906142b9565b90505b612a92565b60405162461bcd60e51b81526004016109d190614857565b92915050565b612aa0613dd0565b6001600160e01b03198216632611a13360e11b1415612ad457825115612a755782806020019051810190612a729190614317565b60405162461bcd60e51b81526004016109d1906148d2565b600080612af883611b88565b9150612b109050612b09868661343b565b86906136fc565b9150612b2f612b28866001600160601b03841661343b565b83906136fc565b95945050505050565b3482811015612b595760405162461bcd60e51b81526004016109d190614714565b348390038015612b7657612b766001600160a01b03841682612d84565b50505050565b612b858261294a565b8015612ba75750612ba782608001516001600160601b03168260400151612e1c565b612bc35760405162461bcd60e51b81526004016109d1906147fd565b5050565b6000808360600151118015612be0575081836060015111155b15612bed57506001612a92565b50600092915050565b6000612c058860600151612d16565b9050612c2f8860a0015189606001518a61010001518b61012001516001600160401b031685613756565b60608801516000906001600160a01b0316612c4b575030612c4e565b50815b612cd560405180608001604052808b600001516001600160a01b031681526020018b6040015181526020018b602001516001600160601b03168152602001600080516020614a9f8339815191526001600160e01b0319168152508a606001518a6000015184878e60c001518f61012001516001600160401b03168e600001518a8e8e612e65565b612cde866129a4565b61012e546040517f5a28582ddb8790a81a3ab22a2cba2677acdba09bc6ee1385990f0f2bbabc26c390600090a2505050505050505050565b6000806001600160a01b038316156106a95750506322ba176160e21b600052506101666020527f956ead2b3a0423270060ad34b9822897b656fddccf4d367bfd272cff9c7a193c546001600160a01b031690565b612d778388878986613756565b6121c48188863086613887565b6040516000906001600160a01b0384169083908381818185875af1925050503d8060008114612dcf576040519150601f19603f3d011682016040523d82523d6000602084013e612dd4565b606091505b5050905080611c0d576040805162461bcd60e51b815260206004820152600f60248201526e1d1c985b9cd9995c8819985a5b1959608a1b604482015290519081900360640190fd5b6000428215801590612e2d57508083115b15612e3c576000915050612a92565b600084118015612e4c5750808411155b15612e5b576000915050612a92565b5060019392505050565b612e7c818a876001600160801b03168b8e886138f1565b9050612e8c8b828b8b878f61393d565b9050612e9c818a8c8b8787613a90565b9050612eac818a8c8b8789613a90565b9050612ebb818b8a8987613887565b612ec68b308961295c565b5050505050505050505050565b6000612ede30613adf565b15905090565b600054610100900460ff1680612efd5750612efd612ed3565b80612f0b575060005460ff16155b612f465760405162461bcd60e51b815260040180806020018281038252602e815260200180614a50602e913960400191505060405180910390fd5b600054610100900460ff16158015612f71576000805460ff1961ff0019909116610100171660011790555b8015610a37576000805461ff001916905550565b600054610100900460ff1680612f9e5750612f9e612ed3565b80612fac575060005460ff16155b612fe75760405162461bcd60e51b815260040180806020018281038252602e815260200180614a50602e913960400191505060405180910390fd5b600054610100900460ff16158015613012576000805460ff1961ff0019909116610100171660011790555b600061301c612946565b60c980546001600160a01b0319166001600160a01b038316908117909155604051919250906000907f8be0079c531659141344cd1fd0a4f28419497f9722a3daafe3b4186f6b6457e0908290a3508015610a37576000805461ff001916905550565b600054610100900460ff16806130975750613097612ed3565b806130a5575060005460ff16155b6130e05760405162461bcd60e51b815260040180806020018281038252602e815260200180614a50602e913960400191505060405180910390fd5b600054610100900460ff1615801561310b576000805460ff1961ff0019909116610100171660011790555b612f71630271189760e51b613ae5565b600054610100900460ff16806131345750613134612ed3565b80613142575060005460ff16155b61317d5760405162461bcd60e51b815260040180806020018281038252602e815260200180614a50602e913960400191505060405180910390fd5b600054610100900460ff161580156131a8576000805460ff1961ff0019909116610100171660011790555b600160fb558015610a37576000805461ff001916905550565b600054610100900460ff16806131da57506131da612ed3565b806131e8575060005460ff16155b6132235760405162461bcd60e51b815260040180806020018281038252602e815260200180614a50602e913960400191505060405180910390fd5b600054610100900460ff1615801561324e576000805460ff1961ff0019909116610100171660011790555b600161012e5561012f805461038467ffffffffffffffff60601b19909116600160601b6001600160401b03871602176bffffffffffffffffffffffff191617905561013080546001600160801b0319166001600160801b0384161790558015611c0d576000805461ff0019169055505050565b565b600054610100900460ff16806132dc57506132dc612ed3565b806132ea575060005460ff16155b6133255760405162461bcd60e51b815260040180806020018281038252602e815260200180614a50602e913960400191505060405180910390fd5b600054610100900460ff16158015613350576000805460ff1961ff0019909116610100171660011790555b61016480546001600160a01b038088166001600160a01b03199283161790925561016380548784169083161790556101666020527f956ead2b3a0423270060ad34b9822897b656fddccf4d367bfd272cff9c7a193c80548584169083161790557fa05a06030d393e218cff8bc2dc09762b3b2b36e6f21f6031cab03c723dac859780549286169282168317905563025ceed960e61b6000527f6e56b63a486db897906c27610df043ba016d0016cfc94427ec7594d929982baa805490911690911790558015613425576000805461ff00191690555b5050505050565b61012e80546001810190915590565b600061090561271061344d8585613b6c565b90613bc5565b6001600160e01b031985166339d690a360e11b141561354e576001600160a01b0383163014156134e457604051632142170760e11b81526001600160a01b038516906342842e0e906134ad90309086908b9060040161446f565b600060405180830381600087803b1580156134c757600080fd5b505af11580156134db573d6000803e3d6000fd5b50505050613549565b604051637b84dc8360e11b81526001600160a01b0382169063f709b90690613516908790879087908c90600401614569565b600060405180830381600087803b15801561353057600080fd5b505af1158015613544573d6000803e3d6000fd5b505050505b6121c4565b6001600160e01b031985166322ba176160e21b1415613630576001600160a01b0383163014156135fe5760405163a9059cbb60e01b81526001600160a01b0385169063a9059cbb906135a69085908b906004016144cb565b602060405180830381600087803b1580156135c057600080fd5b505af11580156135d4573d6000803e3d6000fd5b505050506040513d601f19601f820116820180604052508101906135f89190614264565b50613549565b60405163776062c360e01b81526001600160a01b0382169063776062c390613516908790879087908d90600401614569565b6001600160e01b0319851663025ceed960e61b14156136c0576001600160a01b03831630141561368c57604051637921219560e11b81526001600160a01b0385169063f242432a906134ad90309086908b908d90600401614493565b604051639c1c2ee960e01b81526001600160a01b03821690639c1c2ee990613516908790879087908c908e90600401614526565b6001600160e01b031985166355575f5d60e11b14156121c4576001600160a01b03821630146121c4576121c46001600160a01b03831688612d84565b600082820183811015610905576040805162461bcd60e51b815260206004820152601b60248201527f536166654d6174683a206164646974696f6e206f766572666c6f770000000000604482015290519081900360640190fd5b6001600160a01b03831661376957613425565b60006137958660000151846001600160801b031661378f89604001518a60200151612a98565b51612aec565b90506001600160a01b038516613872576000846001600160a01b0316826040516137be90614458565b60006040518083038185875af1925050503d80600081146137fb576040519150601f19603f3d011682016040523d82523d6000602084013e613800565b606091505b505090508061386c576001600160a01b038516600081815261012d6020526040908190208054858101918290559151919290917e13bff06d622c14d54757ee0547a817dc3e491fb8da534f108a531b016dee3c906138619087908590614935565b60405180910390a250505b5061387f565b61387f8186308786613887565b505050505050565b60006001600160a01b0385166138be57507faaaebeba3810b1e6b70781f14b2d72c1cb89c0b2b320c43bb67ff79f562f5ff46138e1565b507f8ae85d849167ff996c04040c44924fd364217285e4cad818292c7ac37c0a345b5b61387f8660008388888888613453565b6000846138ff575085613933565b600061390a84610a3a565b905060008061391d8a8a8a600202613c2c565b9150915061392e8187898689613887565b509150505b9695505050505050565b6101635486516020880151604051634e53ee3d60e11b815260009384936001600160a01b0390911692639ca7dc7a9261397a9291906004016144cb565b600060405180830381600087803b15801561399457600080fd5b505af11580156139a8573d6000803e3d6000fd5b505050506040513d6000823e601f3d908101601f191682016040526139d0919081019061418b565b90508051600014156139e55786915050613933565b600080805b8351811015613a60576000848281518110613a0157fe5b6020026020010151602001516001600160601b031690506000613a258c8c84613c2c565b80925081955050508185019450613a5681898c898781518110613a4457fe5b6020026020010151600001518d613887565b50506001016139ea565b50611388821115613a835760405162461bcd60e51b81526004016109d1906145f9565b9998505050505050505050565b6000806000613a9e84611b88565b91509150600080613ab98b8b856001600160601b0316613c2c565b90925090508015613ad157613ad1818a8a878b613887565b509998505050505050505050565b3b151590565b6001600160e01b03198082161415613b44576040805162461bcd60e51b815260206004820152601c60248201527f4552433136353a20696e76616c696420696e7465726661636520696400000000604482015290519081900360640190fd5b6001600160e01b0319166000908152600160208190526040909120805460ff19169091179055565b600082613b7b57506000612a92565b82820282848281613b8857fe5b04146109055760405162461bcd60e51b8152600401808060200182810382526021815260200180614a7e6021913960400191505060405180910390fd5b6000808211613c1b576040805162461bcd60e51b815260206004820152601a60248201527f536166654d6174683a206469766973696f6e206279207a65726f000000000000604482015290519081900360640190fd5b818381613c2457fe5b049392505050565b600080613c4285613c3d868661343b565b613c4e565b91509150935093915050565b60008082841115613c6d57613c638484613c7b565b9150829050613c74565b5060009050825b9250929050565b600082821115613cd2576040805162461bcd60e51b815260206004820152601e60248201527f536166654d6174683a207375627472616374696f6e206f766572666c6f770000604482015290519081900360640190fd5b50900390565b828054600181600116156101000203166002900490600052602060002090601f016020900481019282613d0e5760008555613d54565b82601f10613d2757805160ff1916838001178555613d54565b82800160010185558215613d54579182015b82811115613d54578251825591602001919060010190613d39565b50613d60929150613de3565b5090565b50805460018160011615610100020316600290046000825580601f10613d8a5750610a37565b601f016020900490600052602060002090810190610a379190613de3565b6040518060800160405280600081526020016000815260200160008152602001600081525090565b6040518060200160405280600081525090565b5b80821115613d605760008155600101613de4565b600082601f830112613e08578081fd5b81356020613e1d613e18836149c2565b61499f565b8281528181019085830183850287018401881015613e39578586fd5b855b85811015613e5757813584529284019290840190600101613e3b565b5090979650505050505050565b80356001600160e01b0319811681146106ac57600080fd5b600082601f830112613e8c578081fd5b81356001600160401b03811115613e9f57fe5b613eb2601f8201601f191660200161499f565b818152846020838601011115613ec6578283fd5b816020850160208301379081016020019190915292915050565b80356001600160801b03811681146106ac57600080fd5b80356001600160401b03811681146106ac57600080fd5b600060208284031215613f1f578081fd5b8135610905816149df565b60008060408385031215613f3c578081fd5b8235613f47816149df565b91506020830135613f57816149df565b809150509250929050565b600080600080600060a08688031215613f79578081fd5b8535613f84816149df565b94506020860135613f94816149df565b935060408601356001600160401b0380821115613faf578283fd5b613fbb89838a01613df8565b94506060880135915080821115613fd0578283fd5b613fdc89838a01613df8565b93506080880135915080821115613ff1578283fd5b50613ffe88828901613e7c565b9150509295509295909350565b600080600080600060a08688031215614022578283fd5b853561402d816149df565b9450602086013561403d816149df565b9350604086013592506060860135915060808601356001600160401b03811115614065578182fd5b613ffe88828901613e7c565b60008060008060008060c08789031215614089578384fd5b8635614094816149df565b955060208701356140a4816149df565b945060408701356140b4816149df565b935060608701356140c4816149df565b92506140d260808801613ef7565b91506140e060a08801613ee0565b90509295509295509295565b600080600080600080600060e0888a031215614106578485fd5b8735614111816149df565b96506020880135614121816149f4565b9550604088013594506060880135614138816149df565b93506080880135614148816149f4565b925061415660a08901613e64565b915060c08801356001600160401b03811115614170578182fd5b61417c8a828b01613e7c565b91505092959891949750929550565b6000602080838503121561419d578182fd5b82516001600160401b03808211156141b3578384fd5b818501915085601f8301126141c6578384fd5b81516141d4613e18826149c2565b818152848101908486016040808502870188018b10156141f2578889fd5b8896505b848710156142555780828c03121561420c578889fd5b8051818101818110888211171561421f57fe5b8252825161422c816149df565b81528289015161423b816149f4565b818a015284526001969096019592870192908101906141f6565b50909998505050505050505050565b600060208284031215614275578081fd5b81518015158114610905578182fd5b600060208284031215614295578081fd5b61090582613e64565b600080604083850312156142b0578182fd5b613f4783613e64565b6000608082840312156142ca578081fd5b604051608081018181106001600160401b03821117156142e657fe5b8060405250825181526020830151602082015260408301516040820152606083015160608201528091505092915050565b600060208284031215614328578081fd5b604051602081018181106001600160401b038211171561434457fe5b6040529151825250919050565b600060208284031215614362578081fd5b61090582613ee0565b60006020828403121561437c578081fd5b5035919050565b60008060408385031215614395578182fd5b8235915060208301356001600160401b03808211156143b2578283fd5b90840190606082870312156143c5578283fd5b6040516060810181811083821117156143da57fe5b604052823581526143ed60208401613e64565b6020820152604083013582811115614403578485fd5b61440f88828601613e7c565b6040830152508093505050509250929050565b600060208284031215614433578081fd5b61090582613ef7565b60006020828403121561444d578081fd5b8135610905816149f4565b90565b6001600160a01b0391909116815260200190565b6001600160a01b039384168152919092166020820152604081019190915260600190565b6001600160a01b0394851681529290931660208301526040820152606081019190915260a06080820181905260009082015260c00190565b6001600160a01b03929092168252602082015260400190565b6001600160a01b039290921682526001600160601b0316602082015260400190565b901515815260200190565b6001600160e01b031991909116815260200190565b6001600160a01b03958616815293851660208501529190931660408301526060820192909252608081019190915260c060a0820181905260009082015260e00190565b6001600160a01b039485168152928416602084015292166040820152606081019190915260800190565b60208082526019908201527f696e636f7272656374205f73656c6c546f6b656e56616c756500000000000000604082015260600190565b6020808252601590820152741bdb9b1e4811551208189a591cc8185b1b1bddd959605a1b604082015260600190565b6020808252601d908201527f526f79616c746965732061726520746f6f206869676820283e35302529000000604082015260600190565b6020808252818101527f7468657265206973206e6f2061756374696f6e20776974682074686973206964604082015260600190565b6020808252600b908201526a62696420746f6f206c6f7760a81b604082015260600190565b60208082526012908201527134b731b7b93932b1ba10323ab930ba34b7b760711b604082015260600190565b6020808252601a908201527f61756374696f6e206f776e6572206e6f74206465746563746564000000000000604082015260600190565b6020808252600d908201526c189a59081d1bdbc81cdb585b1b609a1b604082015260600190565b6020808252600e908201526d0dcdee840cadcdeeaced0408aa8960931b604082015260600190565b602080825260149082015273696e636f72726563742073746172742074696d6560601b604082015260600190565b6020808252601590820152741b9bdd08195b9bdd59da08199bdc88189d5e5bdd5d605a1b604082015260600190565b6020808252601d908201527f63616e27742063616e63656c2061756374696f6e207769746820626964000000604082015260600190565b602080825260139082015272185b1c9958591e481dda5b9b9a5b99c8189a59606a1b604082015260600190565b60208082526013908201527261756374696f6e20697320696e61637469766560681b604082015260600190565b6020808252601390820152726e6f7468696e6720746f20776974686472617760681b604082015260600190565b60208082526016908201527577726f6e672061756374696f6e20646174615479706560501b604082015260600190565b6020808252602b908201527f6f6e6c7920656e6465642061756374696f6e2077697468206269642063616e2060408201526a189948199a5b9a5cda195960aa1b606082015260800190565b60208082526012908201527177726f6e672062696420646174615479706560701b604082015260600190565b6001600160801b0391909116815260200190565b6001600160801b0392831681529116602082015260400190565b90815260200190565b918252602082015260400190565b6001600160401b0391909116815260200190565b6001600160401b0392831681529116602082015260400190565b6001600160601b0391909116815260200190565b6001600160601b0392831681529116602082015260400190565b6040518181016001600160401b03811182821017156149ba57fe5b604052919050565b60006001600160401b038211156149d557fe5b5060209081020190565b6001600160a01b0381168114610a3757600080fd5b6001600160601b0381168114610a3757600080fdfe5265656e7472616e637947756172643a207265656e7472616e742063616c6c004f776e61626c653a206e6577206f776e657220697320746865207a65726f2061646472657373496e697469616c697a61626c653a20636f6e747261637420697320616c726561647920696e697469616c697a6564536166654d6174683a206d756c7469706c69636174696f6e206f766572666c6f77973bb64086f173ec8099b7ed3d43da984f4a332e4417a08bc6a286e6402b05864f776e61626c653a2063616c6c6572206973206e6f7420746865206f776e6572a26469706673582212205f0ddf10d94b5d71042cd366002dfa1fa16e7442b8cd5cebc34fb96431bb54f164736f6c63430007060033",
  "immutableReferences": {},
  "source": "// SPDX-License-Identifier: MIT\n\npragma solidity 0.7.6;\npragma abicoder v2;\n\nimport \"../AuctionTransferExecutor.sol\";\nimport \"./AuctionHouseStruct1155.sol\";\n\nimport \"@openzeppelin/contracts-upgradeable/math/SafeMathUpgradeable.sol\";\nimport \"@openzeppelin/contracts-upgradeable/token/ERC1155/ERC1155HolderUpgradeable.sol\";\n\n/// @dev contract to create and interact with auctions\ncontract AuctionHouse1155 is ERC1155HolderUpgradeable, AuctionTransferExecutor, AuctionHouseStruct1155 {\n    using LibTransfer for address;\n    using BpLibrary for uint;\n\n    function __AuctionHouse1155_init(\n        address newDefaultFeeReceiver,\n        IRoyaltiesProvider newRoyaltiesProvider,\n        address transferProxy,\n        address erc20TransferProxy,\n        uint64 _protocolFee,\n        uint128 _minimalStepBasePoint\n    ) external initializer {\n        __Context_init_unchained();\n        __Ownable_init_unchained();\n        __ERC1155Receiver_init_unchained();\n        __ReentrancyGuard_init_unchained();\n        __AuctionHouseBase_init_unchained(_protocolFee, _minimalStepBasePoint);\n        __AuctionTransferExecutor_init_unchained();\n        __TransferManagerCore_init_unchained(newDefaultFeeReceiver, newRoyaltiesProvider, transferProxy, erc20TransferProxy);\n        __AuctionHouse1155_init_unchained();\n    }\n\n    function __AuctionHouse1155_init_unchained() internal initializer {  \n    }\n\n    /// @dev creates an auction and locks sell asset\n    function startAuction(\n        address _sellToken,\n        uint96 _sellTokenValue,\n        uint _sellTokenId,\n        address _buyAsset,\n        uint96 minimalPrice,\n        bytes4 dataType,\n        bytes memory data\n    ) external {\n        //todo: check if token contract supports ERC1155 interface?\n\n        LibAucDataV1.DataV1 memory aucData = LibAucDataV1.parse(data, dataType);\n        require(aucData.duration >= minimalDuration && aucData.duration <= MAX_DURATION, \"incorrect duration\");\n        require(_sellTokenValue > 0, \"incorrect _sellTokenValue\");\n\n        uint96 endTime = 0;\n        if (aucData.startTime > 0){\n            require (aucData.startTime >= block.timestamp, \"incorrect start time\");\n            endTime = uint96(aucData.startTime + aucData.duration);\n        }\n\n        uint currentAuctionId = getNextAndIncrementAuctionId();\n        address payable sender = _msgSender();\n        Auction memory auc = Auction(\n            _sellToken,\n            _sellTokenValue,\n            _sellTokenId,\n            _buyAsset,\n            endTime,\n            Bid(0, \"\", \"\"),\n            sender,\n            minimalPrice,\n            payable(address(0)),\n            protocolFee,\n            dataType,\n            data\n        );\n        auctions[currentAuctionId] = auc;\n        transferNFT(\n            SellAsset(_sellToken, _sellTokenId, _sellTokenValue, LibAsset.ERC1155_ASSET_CLASS),\n            sender,\n            address(this)\n        );\n        \n        emit AuctionCreated(currentAuctionId, endTime);\n    }\n\n    /// @dev put a bid and return locked assets for the last bid\n    function putBid(uint _auctionId, Bid memory bid) payable public nonReentrant {\n        address payable newBuyer = _msgSender();\n        uint newAmount = bid.amount;\n        Auction memory currentAuction = auctions[_auctionId];\n        uint96 endTime = currentAuction.endTime;\n        LibAucDataV1.DataV1 memory aucData = LibAucDataV1.parse(currentAuction.data, currentAuction.dataType);\n        uint bidOriginFee = LibBidDataV1.parse(bid.data, bid.dataType).originFee;\n        uint totalAmount = calculateTotalAmount(\n            bid.amount, \n            currentAuction.protocolFee, \n            bidOriginFee\n        );\n        if (currentAuction.buyAsset == address(0)) {\n            checkEthReturnChange(totalAmount, newBuyer);\n        }\n        checkAuctionInProgress(currentAuction, aucData);\n        if (buyOutVerify(aucData, newAmount)) {\n            _buyOut(\n                currentAuction,\n                bid,\n                aucData,\n                _auctionId,\n                bidOriginFee,\n                totalAmount,\n                newBuyer\n            );\n            return;\n        }\n        \n        uint96 currentTime = uint96(block.timestamp);\n        //start action if minimal price is met\n        if (currentAuction.buyer == address(0x0)) {//no bid at all\n            // set endTime if it's not set\n            if (currentAuction.endTime == 0){\n                endTime = uint96(currentTime + aucData.duration);\n                auctions[_auctionId].endTime = endTime;\n                currentAuction.endTime = endTime;\n                \n            }\n            require(newAmount >= currentAuction.minimalPrice, \"bid too small\");\n        } else {//there is bid in auction\n            require(currentAuction.buyer != newBuyer, \"already winning bid\");\n            uint256 minAmount = _getMinimalNextBid(currentAuction);\n            require(newAmount >= minAmount, \"bid too low\");\n        }\n\n        address proxy = _getProxy(currentAuction.buyAsset);\n        reserveBid(\n            currentAuction.buyAsset,\n            currentAuction.protocolFee,\n            currentAuction.buyer,\n            newBuyer,\n            currentAuction.lastBid,\n            proxy,\n            totalAmount\n        );\n        auctions[_auctionId].lastBid = bid;\n        auctions[_auctionId].buyer = newBuyer;\n\n        // auction is extended for EXTENSION_DURATION or minimalDuration if (minimalDuration < EXTENSION_DURATION)\n        uint96 minDur = minimalDuration;\n        uint96 extension = (minDur < EXTENSION_DURATION) ? minDur : EXTENSION_DURATION;\n\n        // extends auction time if it's about to end\n        if (endTime - currentTime < extension) {\n            endTime = currentTime + extension;\n            auctions[_auctionId].endTime = endTime;\n        }\n        emit BidPlaced(_auctionId, endTime);\n    }\n\n    /// @dev reserves new bid and returns the last one if it exists\n    function reserveBid(\n        address buyAsset,\n        uint128 curProtocolFee,\n        address oldBuyer,\n        address newBuyer,\n        Bid memory oldBid,\n        address proxy,\n        uint newTotalAmount\n    ) internal {\n        // return old bid if theres any\n        _returnBid(\n            oldBid,\n            buyAsset,\n            oldBuyer,\n            curProtocolFee,\n            proxy\n        );\n        \n        //lock new bid\n        transferBid(\n            newTotalAmount,\n            buyAsset,\n            newBuyer,\n            address(this),\n            proxy\n        );\n    }\n\n    /// @dev returns the minimal amount of the next bid (without fees)\n    function getMinimalNextBid(uint _auctionId) external view returns (uint minBid){\n        Auction memory currentAuction = auctions[_auctionId];\n        return _getMinimalNextBid(currentAuction);\n    }\n\n    /// @dev returns the minimal amount of the next bid (without fees)\n    function _getMinimalNextBid(Auction memory currentAuction) internal view returns (uint minBid){\n        if (currentAuction.buyer == address(0x0)) {\n            minBid = currentAuction.minimalPrice;\n        } else {\n            minBid = currentAuction.lastBid.amount + currentAuction.lastBid.amount.bp(minimalStepBasePoint);\n        }\n    }\n\n    /// @dev returns true if auction exists, false otherwise\n    function checkAuctionExistence(uint _auctionId) external view returns (bool){\n        return auctions[_auctionId].seller != address(0);\n    }\n\n    /// @dev returns true if auction exists, false otherwise\n    function _checkAuctionExistence(Auction memory currentAuction) internal pure returns (bool){\n        return currentAuction.seller != address(0);\n    }\n\n    /// @dev returns true if newAmount is enough for buyOut\n    function buyOutVerify(LibAucDataV1.DataV1 memory aucData, uint newAmount) internal pure returns (bool) {\n        if (aucData.buyOutPrice > 0 && aucData.buyOutPrice <= newAmount) {\n            return true;\n        }\n        return false;\n    }\n\n    /// @dev finishes, deletes and transfers all assets for an auction if it's ended (it exists, it has at least one bid, now > endTme)\n    function finishAuction(uint _auctionId) external nonReentrant {\n        Auction memory currentAuction = auctions[_auctionId];\n        require(_checkAuctionExistence(currentAuction), \"there is no auction with this id\");\n        LibAucDataV1.DataV1 memory aucData = LibAucDataV1.parse(currentAuction.data, currentAuction.dataType);\n        require(\n            !_checkAuctionRangeTime(currentAuction.endTime, aucData.startTime) &&\n            currentAuction.buyer != address(0),\n            \"only ended auction with bid can be finished\"\n        );\n        uint bidOriginFee = LibBidDataV1.parse(currentAuction.lastBid.data, currentAuction.lastBid.dataType).originFee;\n        uint totalAmount = calculateTotalAmount(\n            currentAuction.lastBid.amount, \n            currentAuction.protocolFee, \n            bidOriginFee\n        );\n        doTransfers(\n            SellAsset(currentAuction.sellToken, currentAuction.sellTokenId , currentAuction.sellTokenValue, LibAsset.ERC1155_ASSET_CLASS),\n            currentAuction.buyAsset,\n            currentAuction.lastBid.amount,\n            address(this),\n            currentAuction.buyer,\n            currentAuction.seller,\n            currentAuction.protocolFee,\n            aucData.originFee,\n            _getProxy(currentAuction.buyAsset),\n            bidOriginFee,\n            totalAmount\n        );\n        deactivateAuction(_auctionId);\n    }\n\n    /// @dev returns true if auction started and hasn't finished yet, false otherwise\n    function checkAuctionRangeTime(uint _auctionId) external view returns (bool){\n        uint currentTime = block.timestamp;\n        LibAucDataV1.DataV1 memory aucData = LibAucDataV1.parse(auctions[_auctionId].data, auctions[_auctionId].dataType);\n        if (aucData.startTime > 0 && aucData.startTime > currentTime) {\n            return false;\n        }\n        uint endTime = auctions[_auctionId].endTime;\n        if (endTime > 0 && endTime <= currentTime){\n            return false;\n        }\n\n        return true;\n    }\n\n    function _checkAuctionRangeTime(uint endTime, uint startTime) internal view returns (bool){\n        uint currentTime = block.timestamp;\n        if (startTime > 0 && startTime > currentTime) {\n            return false;\n        }\n        if (endTime > 0 && endTime <= currentTime){\n            return false;\n        }\n\n        return true;\n    }\n\n    /// @dev deletes auction after finalizing\n    function deactivateAuction(uint _auctionId) internal {\n        emit AuctionFinished(_auctionId);\n        delete auctions[_auctionId];\n    }\n\n    /// @dev cancels existing auction without bid\n    function cancel(uint _auctionId) external nonReentrant {\n        Auction memory currentAuction = auctions[_auctionId];\n        require(_checkAuctionExistence(currentAuction), \"there is no auction with this id\");\n        address seller = currentAuction.seller;\n        require(seller == _msgSender(), \"auction owner not detected\");\n        require(currentAuction.buyer == address(0), \"can't cancel auction with bid\");\n        transferNFT(\n            SellAsset(currentAuction.sellToken, currentAuction.sellTokenId , currentAuction.sellTokenValue, LibAsset.ERC1155_ASSET_CLASS),\n            address(this),\n            seller\n        );\n        deactivateAuction(_auctionId);\n        emit AuctionCancelled(_auctionId);\n    }\n\n    // todo will there be a problem if buyer is last bidder?\n    /// @dev buyout auction if bid satisfies buyout condition\n    function buyOut(uint _auctionId, Bid memory bid) external payable nonReentrant {\n        Auction memory currentAuction = auctions[_auctionId];\n        LibAucDataV1.DataV1 memory aucData = LibAucDataV1.parse(currentAuction.data, currentAuction.dataType);\n        checkAuctionInProgress(currentAuction, aucData);\n        require(buyOutVerify(aucData, bid.amount), \"not enough for buyout\");\n        uint bidOriginFee = LibBidDataV1.parse(bid.data, bid.dataType).originFee;\n        uint totalAmount = calculateTotalAmount(\n            bid.amount, \n            currentAuction.protocolFee, \n            bidOriginFee\n        );\n        address sender = _msgSender();\n        if (currentAuction.buyAsset == address(0)) {\n            checkEthReturnChange(totalAmount, sender);\n        }\n        _buyOut(\n            currentAuction,\n            bid,\n            aucData,\n            _auctionId,\n            bidOriginFee,\n            totalAmount,\n            sender\n        );\n    }\n\n    function _buyOut(\n        Auction memory currentAuction,\n        Bid memory bid,\n        LibAucDataV1.DataV1 memory aucData,\n        uint _auctionId,\n        uint newBidOriginFee,\n        uint newTotalAmount,\n        address sender\n    ) internal {\n        address proxy = _getProxy(currentAuction.buyAsset);\n\n        _returnBid(\n            currentAuction.lastBid,\n            currentAuction.buyAsset,\n            currentAuction.buyer,\n            currentAuction.protocolFee,\n            proxy\n        );\n\n        address from;\n        if (currentAuction.buyAsset == address(0)) {\n            // if buyAsset = ETH\n            from = address(this);\n        } else {\n            // if buyAsset = ERC20\n            from = sender;\n        }\n        doTransfers(\n            SellAsset(currentAuction.sellToken, currentAuction.sellTokenId , currentAuction.sellTokenValue, LibAsset.ERC1155_ASSET_CLASS),\n            currentAuction.buyAsset,\n            bid.amount,\n            from,\n            sender,\n            currentAuction.seller,\n            currentAuction.protocolFee,\n            aucData.originFee,\n            proxy,\n            newBidOriginFee,\n            newTotalAmount\n        );\n        \n        deactivateAuction(_auctionId);\n        emit AuctionBuyOut(auctionId);\n    }\n\n    /// @dev returns current highest bidder for an auction\n    function getCurrentBuyer(uint _auctionId) public view returns(address) {\n        return auctions[_auctionId].buyer;\n    }\n\n    /// @dev returns true if auction in progress, false otherwise\n    function checkAuctionInProgress(Auction memory currentAuction, LibAucDataV1.DataV1 memory aucData) internal view{\n        require(_checkAuctionExistence(currentAuction) && _checkAuctionRangeTime(currentAuction.endTime, aucData.startTime), \"auction is inactive\");\n    }\n\n    /// @dev function to call from wrapper to put bid\n    function putBidWrapper(uint256 _auctionId) external payable {\n        require(auctions[_auctionId].buyAsset == address(0), \"only ETH bids allowed\");\n        putBid(_auctionId, Bid(msg.value, LibBidDataV1.V1, \"\"));\n    }\n\n    /// @dev Used to withdraw faulty bids (bids that failed to return after out-bidding)\n    function withdrawFaultyBid(address _to) external {\n        address sender = _msgSender();\n        uint amount = readyToWithdraw[sender];\n        require( amount > 0, \"nothing to withdraw\");\n        readyToWithdraw[sender] = 0;\n        _to.transferEth(amount);\n    }\n\n    function _returnBid(\n        Bid memory oldBid,\n        address buyAsset,\n        address oldBuyer,\n        uint128 curProtocolFee,\n        address proxy\n    ) internal {\n        // nothing to return\n        if (oldBuyer == address(0)) {\n            return;\n        }\n        uint oldTotalAmount = calculateTotalAmount(oldBid.amount, curProtocolFee, LibBidDataV1.parse(oldBid.data, oldBid.dataType).originFee);\n        if (buyAsset == address(0)) {\n            (bool success,) = oldBuyer.call{ value: oldTotalAmount }(\"\");\n            if (!success) {\n                uint currentValueToWithdraw = readyToWithdraw[oldBuyer];\n                uint newValueToWithdraw = oldTotalAmount + (currentValueToWithdraw);\n                readyToWithdraw[oldBuyer] = newValueToWithdraw;\n                emit AvailableToWithdraw(oldBuyer, oldTotalAmount, newValueToWithdraw);\n            }\n        } else {\n            transferBid(\n                oldTotalAmount,\n                buyAsset,\n                address(this),\n                oldBuyer,\n                proxy\n            );\n        }\n    }\n\n    function _getProxy(address buyAsset) internal view returns(address){\n        address proxy;\n        if (buyAsset != address(0)){\n            proxy = proxies[LibAsset.ERC20_ASSET_CLASS];\n        }\n        return proxy;\n    }\n\n    /// @dev check that msg.value more than bid amount with fees and return change\n    function checkEthReturnChange(uint totalAmount, address buyer) internal {\n        uint msgValue = msg.value;\n        require(msgValue >= totalAmount, \"not enough ETH\");\n        uint256 change = msg.value - totalAmount;\n        if (change > 0) {\n            buyer.transferEth(change);\n        }\n    }\n\n    function supportsInterface(bytes4 interfaceId) public view virtual override returns (bool) {\n        return this.supportsInterface(interfaceId);\n    }\n\n}",
  "sourcePath": "/Users/ds/Documents/rarible/protocol-contracts/auction/contracts/1155/AuctionHouse1155.sol",
  "compiler": {
    "name": "solc",
    "version": "0.7.6+commit.7338295f.Emscripten.clang"
  },
  "schemaVersion": "3.4.3",
  "updatedAt": "2022-03-01T16:42:46.969Z",
  "devdoc": {
    "details": "contract to create and interact with auctions",
    "kind": "dev",
    "methods": {
      "buyOut(uint256,(uint256,bytes4,bytes))": {
        "details": "buyout auction if bid satisfies buyout condition"
      },
      "cancel(uint256)": {
        "details": "cancels existing auction without bid"
      },
      "checkAuctionExistence(uint256)": {
        "details": "returns true if auction exists, false otherwise"
      },
      "checkAuctionRangeTime(uint256)": {
        "details": "returns true if auction started and hasn't finished yet, false otherwise"
      },
      "finishAuction(uint256)": {
        "details": "finishes, deletes and transfers all assets for an auction if it's ended (it exists, it has at least one bid, now > endTme)"
      },
      "getCurrentBuyer(uint256)": {
        "details": "returns current highest bidder for an auction"
      },
      "getMinimalNextBid(uint256)": {
        "details": "returns the minimal amount of the next bid (without fees)"
      },
      "owner()": {
        "details": "Returns the address of the current owner."
      },
      "putBid(uint256,(uint256,bytes4,bytes))": {
        "details": "put a bid and return locked assets for the last bid"
      },
      "putBidWrapper(uint256)": {
        "details": "function to call from wrapper to put bid"
      },
      "renounceOwnership()": {
        "details": "Leaves the contract without owner. It will not be possible to call `onlyOwner` functions anymore. Can only be called by the current owner. NOTE: Renouncing ownership will leave the contract without an owner, thereby removing any functionality that is only available to the owner."
      },
      "startAuction(address,uint96,uint256,address,uint96,bytes4,bytes)": {
        "details": "creates an auction and locks sell asset"
      },
      "supportsInterface(bytes4)": {
        "details": "See {IERC165-supportsInterface}. Time complexity O(1), guaranteed to always use less than 30 000 gas."
      },
      "transferOwnership(address)": {
        "details": "Transfers ownership of the contract to a new account (`newOwner`). Can only be called by the current owner."
      },
      "withdrawFaultyBid(address)": {
        "details": "Used to withdraw faulty bids (bids that failed to return after out-bidding)"
      }
    },
    "version": 1
  },
  "userdoc": {
    "kind": "user",
    "methods": {},
    "version": 1
  }
}