{
  "contractName": "AuctionHouse1155",
  "abi": [
    {
      "anonymous": false,
      "inputs": [
        {
          "indexed": true,
          "internalType": "uint256",
          "name": "auctionId",
          "type": "uint256"
        },
        {
          "indexed": false,
          "internalType": "address",
          "name": "buyer",
          "type": "address"
        }
      ],
      "name": "AuctionBuyOut",
      "type": "event"
    },
    {
      "anonymous": false,
      "inputs": [
        {
          "indexed": true,
          "internalType": "uint256",
          "name": "auctionId",
          "type": "uint256"
        }
      ],
      "name": "AuctionCancelled",
      "type": "event"
    },
    {
      "anonymous": false,
      "inputs": [
        {
          "indexed": true,
          "internalType": "uint256",
          "name": "auctionId",
          "type": "uint256"
        },
        {
          "indexed": false,
          "internalType": "address",
          "name": "buyer",
          "type": "address"
        },
        {
          "indexed": false,
          "internalType": "uint128",
          "name": "endTime",
          "type": "uint128"
        }
      ],
      "name": "AuctionCreated",
      "type": "event"
    },
    {
      "anonymous": false,
      "inputs": [
        {
          "indexed": true,
          "internalType": "uint256",
          "name": "auctionId",
          "type": "uint256"
        }
      ],
      "name": "AuctionFinished",
      "type": "event"
    },
    {
      "anonymous": false,
      "inputs": [
        {
          "indexed": true,
          "internalType": "address",
          "name": "owner",
          "type": "address"
        },
        {
          "indexed": false,
          "internalType": "uint256",
          "name": "added",
          "type": "uint256"
        },
        {
          "indexed": false,
          "internalType": "uint256",
          "name": "total",
          "type": "uint256"
        }
      ],
      "name": "AvailableToWithdraw",
      "type": "event"
    },
    {
      "anonymous": false,
      "inputs": [
        {
          "indexed": true,
          "internalType": "uint256",
          "name": "auctionId",
          "type": "uint256"
        },
        {
          "indexed": false,
          "internalType": "address",
          "name": "buyer",
          "type": "address"
        },
        {
          "indexed": false,
          "internalType": "uint256",
          "name": "endTime",
          "type": "uint256"
        }
      ],
      "name": "BidPlaced",
      "type": "event"
    },
    {
      "anonymous": false,
      "inputs": [
        {
          "indexed": false,
          "internalType": "uint256",
          "name": "oldValue",
          "type": "uint256"
        },
        {
          "indexed": false,
          "internalType": "uint256",
          "name": "newValue",
          "type": "uint256"
        }
      ],
      "name": "MinimalDurationChanged",
      "type": "event"
    },
    {
      "anonymous": false,
      "inputs": [
        {
          "indexed": false,
          "internalType": "uint256",
          "name": "oldValue",
          "type": "uint256"
        },
        {
          "indexed": false,
          "internalType": "uint256",
          "name": "newValue",
          "type": "uint256"
        }
      ],
      "name": "MinimalStepChanged",
      "type": "event"
    },
    {
      "anonymous": false,
      "inputs": [
        {
          "indexed": true,
          "internalType": "address",
          "name": "previousOwner",
          "type": "address"
        },
        {
          "indexed": true,
          "internalType": "address",
          "name": "newOwner",
          "type": "address"
        }
      ],
      "name": "OwnershipTransferred",
      "type": "event"
    },
    {
      "anonymous": false,
      "inputs": [
        {
          "indexed": false,
          "internalType": "uint256",
          "name": "oldValue",
          "type": "uint256"
        },
        {
          "indexed": false,
          "internalType": "uint256",
          "name": "newValue",
          "type": "uint256"
        }
      ],
      "name": "ProtocolFeeChanged",
      "type": "event"
    },
    {
      "anonymous": false,
      "inputs": [
        {
          "indexed": true,
          "internalType": "bytes4",
          "name": "assetType",
          "type": "bytes4"
        },
        {
          "indexed": false,
          "internalType": "address",
          "name": "proxy",
          "type": "address"
        }
      ],
      "name": "ProxyChange",
      "type": "event"
    },
    {
      "inputs": [],
      "name": "auctionId",
      "outputs": [
        {
          "internalType": "uint256",
          "name": "",
          "type": "uint256"
        }
      ],
      "stateMutability": "view",
      "type": "function"
    },
    {
      "inputs": [
        {
          "internalType": "uint96",
          "name": "newValue",
          "type": "uint96"
        }
      ],
      "name": "changeMinimalDuration",
      "outputs": [],
      "stateMutability": "nonpayable",
      "type": "function"
    },
    {
      "inputs": [
        {
          "internalType": "uint128",
          "name": "newValue",
          "type": "uint128"
        }
      ],
      "name": "changeMinimalStep",
      "outputs": [],
      "stateMutability": "nonpayable",
      "type": "function"
    },
    {
      "inputs": [],
      "name": "defaultFeeReceiver",
      "outputs": [
        {
          "internalType": "address",
          "name": "",
          "type": "address"
        }
      ],
      "stateMutability": "view",
      "type": "function"
    },
    {
      "inputs": [
        {
          "internalType": "address",
          "name": "",
          "type": "address"
        }
      ],
      "name": "feeReceivers",
      "outputs": [
        {
          "internalType": "address",
          "name": "",
          "type": "address"
        }
      ],
      "stateMutability": "view",
      "type": "function"
    },
    {
      "inputs": [],
      "name": "minimalDuration",
      "outputs": [
        {
          "internalType": "uint96",
          "name": "",
          "type": "uint96"
        }
      ],
      "stateMutability": "view",
      "type": "function"
    },
    {
      "inputs": [],
      "name": "minimalStepBasePoint",
      "outputs": [
        {
          "internalType": "uint128",
          "name": "",
          "type": "uint128"
        }
      ],
      "stateMutability": "view",
      "type": "function"
    },
    {
      "inputs": [
        {
          "internalType": "address",
          "name": "",
          "type": "address"
        },
        {
          "internalType": "address",
          "name": "",
          "type": "address"
        },
        {
          "internalType": "uint256[]",
          "name": "",
          "type": "uint256[]"
        },
        {
          "internalType": "uint256[]",
          "name": "",
          "type": "uint256[]"
        },
        {
          "internalType": "bytes",
          "name": "",
          "type": "bytes"
        }
      ],
      "name": "onERC1155BatchReceived",
      "outputs": [
        {
          "internalType": "bytes4",
          "name": "",
          "type": "bytes4"
        }
      ],
      "stateMutability": "nonpayable",
      "type": "function"
    },
    {
      "inputs": [
        {
          "internalType": "address",
          "name": "",
          "type": "address"
        },
        {
          "internalType": "address",
          "name": "",
          "type": "address"
        },
        {
          "internalType": "uint256",
          "name": "",
          "type": "uint256"
        },
        {
          "internalType": "uint256",
          "name": "",
          "type": "uint256"
        },
        {
          "internalType": "bytes",
          "name": "",
          "type": "bytes"
        }
      ],
      "name": "onERC1155Received",
      "outputs": [
        {
          "internalType": "bytes4",
          "name": "",
          "type": "bytes4"
        }
      ],
      "stateMutability": "nonpayable",
      "type": "function"
    },
    {
      "inputs": [],
      "name": "owner",
      "outputs": [
        {
          "internalType": "address",
          "name": "",
          "type": "address"
        }
      ],
      "stateMutability": "view",
      "type": "function"
    },
    {
      "inputs": [],
      "name": "protocolFee",
      "outputs": [
        {
          "internalType": "uint256",
          "name": "",
          "type": "uint256"
        }
      ],
      "stateMutability": "view",
      "type": "function"
    },
    {
      "inputs": [],
      "name": "renounceOwnership",
      "outputs": [],
      "stateMutability": "nonpayable",
      "type": "function"
    },
    {
      "inputs": [],
      "name": "royaltiesRegistry",
      "outputs": [
        {
          "internalType": "contract IRoyaltiesProvider",
          "name": "",
          "type": "address"
        }
      ],
      "stateMutability": "view",
      "type": "function"
    },
    {
      "inputs": [
        {
          "internalType": "address payable",
          "name": "newDefaultFeeReceiver",
          "type": "address"
        }
      ],
      "name": "setDefaultFeeReceiver",
      "outputs": [],
      "stateMutability": "nonpayable",
      "type": "function"
    },
    {
      "inputs": [
        {
          "internalType": "address",
          "name": "token",
          "type": "address"
        },
        {
          "internalType": "address",
          "name": "wallet",
          "type": "address"
        }
      ],
      "name": "setFeeReceiver",
      "outputs": [],
      "stateMutability": "nonpayable",
      "type": "function"
    },
    {
      "inputs": [
        {
          "internalType": "uint64",
          "name": "_protocolFee",
          "type": "uint64"
        }
      ],
      "name": "setProtocolFee",
      "outputs": [],
      "stateMutability": "nonpayable",
      "type": "function"
    },
    {
      "inputs": [
        {
          "internalType": "contract IRoyaltiesProvider",
          "name": "newRoyaltiesRegistry",
          "type": "address"
        }
      ],
      "name": "setRoyaltiesRegistry",
      "outputs": [],
      "stateMutability": "nonpayable",
      "type": "function"
    },
    {
      "inputs": [
        {
          "internalType": "bytes4",
          "name": "assetType",
          "type": "bytes4"
        },
        {
          "internalType": "address",
          "name": "proxy",
          "type": "address"
        }
      ],
      "name": "setTransferProxy",
      "outputs": [],
      "stateMutability": "nonpayable",
      "type": "function"
    },
    {
      "inputs": [
        {
          "internalType": "address",
          "name": "newOwner",
          "type": "address"
        }
      ],
      "name": "transferOwnership",
      "outputs": [],
      "stateMutability": "nonpayable",
      "type": "function"
    },
    {
      "inputs": [
        {
          "internalType": "address",
          "name": "newDefaultFeeReceiver",
          "type": "address"
        },
        {
          "internalType": "contract IRoyaltiesProvider",
          "name": "newRoyaltiesProvider",
          "type": "address"
        },
        {
          "internalType": "address",
          "name": "_transferProxy",
          "type": "address"
        },
        {
          "internalType": "address",
          "name": "_erc20TransferProxy",
          "type": "address"
        },
        {
          "internalType": "uint64",
          "name": "newProtocolFee",
          "type": "uint64"
        },
        {
          "internalType": "uint128",
          "name": "_minimalStepBasePoint",
          "type": "uint128"
        }
      ],
      "name": "__AuctionHouse1155_init",
      "outputs": [],
      "stateMutability": "nonpayable",
      "type": "function"
    },
    {
      "inputs": [
        {
          "internalType": "address",
          "name": "_sellToken",
          "type": "address"
        },
        {
          "internalType": "uint96",
          "name": "_sellTokenValue",
          "type": "uint96"
        },
        {
          "internalType": "uint256",
          "name": "_sellTokenId",
          "type": "uint256"
        },
        {
          "internalType": "address",
          "name": "_buyAsset",
          "type": "address"
        },
        {
          "internalType": "uint96",
          "name": "minimalPrice",
          "type": "uint96"
        },
        {
          "internalType": "bytes4",
          "name": "dataType",
          "type": "bytes4"
        },
        {
          "internalType": "bytes",
          "name": "data",
          "type": "bytes"
        }
      ],
      "name": "startAuction",
      "outputs": [],
      "stateMutability": "nonpayable",
      "type": "function"
    },
    {
      "inputs": [
        {
          "internalType": "uint256",
          "name": "_auctionId",
          "type": "uint256"
        },
        {
          "components": [
            {
              "internalType": "uint256",
              "name": "amount",
              "type": "uint256"
            },
            {
              "internalType": "bytes4",
              "name": "dataType",
              "type": "bytes4"
            },
            {
              "internalType": "bytes",
              "name": "data",
              "type": "bytes"
            }
          ],
          "internalType": "struct AuctionHouseStruct1155.Bid",
          "name": "bid",
          "type": "tuple"
        }
      ],
      "name": "putBid",
      "outputs": [],
      "stateMutability": "payable",
      "type": "function"
    },
    {
      "inputs": [
        {
          "internalType": "uint256",
          "name": "_auctionId",
          "type": "uint256"
        }
      ],
      "name": "getMinimalNextBid",
      "outputs": [
        {
          "internalType": "uint256",
          "name": "minBid",
          "type": "uint256"
        }
      ],
      "stateMutability": "view",
      "type": "function"
    },
    {
      "inputs": [
        {
          "internalType": "uint256",
          "name": "_auctionId",
          "type": "uint256"
        }
      ],
      "name": "checkAuctionExistence",
      "outputs": [
        {
          "internalType": "bool",
          "name": "",
          "type": "bool"
        }
      ],
      "stateMutability": "view",
      "type": "function"
    },
    {
      "inputs": [
        {
          "internalType": "uint256",
          "name": "_auctionId",
          "type": "uint256"
        }
      ],
      "name": "finishAuction",
      "outputs": [],
      "stateMutability": "nonpayable",
      "type": "function"
    },
    {
      "inputs": [
        {
          "internalType": "uint256",
          "name": "_auctionId",
          "type": "uint256"
        }
      ],
      "name": "checkAuctionRangeTime",
      "outputs": [
        {
          "internalType": "bool",
          "name": "",
          "type": "bool"
        }
      ],
      "stateMutability": "view",
      "type": "function"
    },
    {
      "inputs": [
        {
          "internalType": "uint256",
          "name": "_auctionId",
          "type": "uint256"
        }
      ],
      "name": "cancel",
      "outputs": [],
      "stateMutability": "nonpayable",
      "type": "function"
    },
    {
      "inputs": [
        {
          "internalType": "uint256",
          "name": "_auctionId",
          "type": "uint256"
        },
        {
          "components": [
            {
              "internalType": "uint256",
              "name": "amount",
              "type": "uint256"
            },
            {
              "internalType": "bytes4",
              "name": "dataType",
              "type": "bytes4"
            },
            {
              "internalType": "bytes",
              "name": "data",
              "type": "bytes"
            }
          ],
          "internalType": "struct AuctionHouseStruct1155.Bid",
          "name": "bid",
          "type": "tuple"
        }
      ],
      "name": "buyOut",
      "outputs": [],
      "stateMutability": "payable",
      "type": "function"
    },
    {
      "inputs": [
        {
          "internalType": "uint256",
          "name": "_auctionId",
          "type": "uint256"
        }
      ],
      "name": "getCurrentBuyer",
      "outputs": [
        {
          "internalType": "address",
          "name": "",
          "type": "address"
        }
      ],
      "stateMutability": "view",
      "type": "function"
    },
    {
      "inputs": [
        {
          "internalType": "uint256",
          "name": "_auctionId",
          "type": "uint256"
        }
      ],
      "name": "putBidWrapper",
      "outputs": [],
      "stateMutability": "payable",
      "type": "function"
    },
    {
      "inputs": [
        {
          "internalType": "address",
          "name": "_to",
          "type": "address"
        }
      ],
      "name": "withdrawFaultyBid",
      "outputs": [],
      "stateMutability": "nonpayable",
      "type": "function"
    },
    {
      "inputs": [
        {
          "internalType": "bytes4",
          "name": "interfaceId",
          "type": "bytes4"
        }
      ],
      "name": "supportsInterface",
      "outputs": [
        {
          "internalType": "bool",
          "name": "",
          "type": "bool"
        }
      ],
      "stateMutability": "view",
      "type": "function"
    }
  ],
  "bytecode": "0x608060405234801561001057600080fd5b506156dc80620000216000396000f3fe6080604052600436106101e35760003560e01c8063715018a611610102578063c90f1f7c11610095578063e68aceae11610064578063e68aceae14610542578063ec57834814610562578063f23a6e6114610582578063f2fde38b146105a2576101e3565b8063c90f1f7c146104c2578063cf266ed0146104e2578063d596199914610502578063e66db25e14610522576101e3565b8063a6f4a3e0116100d1578063a6f4a3e01461044d578063b0e21e8a14610460578063bc197c8114610475578063bd9d21bd146104a2576101e3565b8063715018a6146103e15780638da5cb5b146103f6578063914bf5f91461040b578063a2a106b81461042d576101e3565b8063363188151161017a57806343bc42d31161014957806343bc42d314610379578063506a90e7146103995780636d8f0694146103ac5780636eeb69db146103c1576101e3565b806336318815146103045780633abf6fd4146103245780633be899221461033957806340e58ee514610359576101e3565b80631cdfe3d8116101b65780631cdfe3d81461028d5780632a6bf6a8146102af5780632f572336146102c257806330c642f1146102e4576101e3565b806301ffc9a7146101e857806302097ab11461021e5780630d6079641461024b57806310782f8f14610278575b600080fd5b3480156101f457600080fd5b50610208610203366004614cee565b6105c2565b6040516102159190614f70565b60405180910390f35b34801561022a57600080fd5b5061023e6102393660046147de565b610640565b6040516102159190614ec5565b34801561025757600080fd5b5061026b610266366004614dd5565b61065c565b60405161021591906154be565b34801561028457600080fd5b5061026b61089a565b34801561029957600080fd5b506102ad6102a83660046147de565b6108a1565b005b6102ad6102bd366004614dd5565b610926565b3480156102ce57600080fd5b506102d76109c7565b60405161021591906154ec565b3480156102f057600080fd5b506102ad6102ff366004614d08565b6109d7565b34801561031057600080fd5b506102ad61031f366004614ea6565b610aa8565b34801561033057600080fd5b5061023e610b7a565b34801561034557600080fd5b506102ad6103543660046147de565b610b8a565b34801561036557600080fd5b506102ad610374366004614dd5565b610c0f565b34801561038557600080fd5b506102ad610394366004614e8c565b610f85565b6102ad6103a7366004614ded565b611032565b3480156103b857600080fd5b5061023e6115fe565b3480156103cd57600080fd5b5061023e6103dc366004614dd5565b61160e565b3480156103ed57600080fd5b506102ad61162c565b34801561040257600080fd5b5061023e6116d8565b34801561041757600080fd5b506104206116e7565b6040516102159190615490565b34801561043957600080fd5b50610208610448366004614dd5565b6116fe565b6102ad61045b366004614ded565b61171e565b34801561046c57600080fd5b5061026b611a66565b34801561048157600080fd5b50610495610490366004614a6b565b611a6d565b6040516102159190614f7b565b3480156104ae57600080fd5b506102ad6104bd3660046147de565b611a7e565b3480156104ce57600080fd5b506102ad6104dd366004614dbb565b611aee565b3480156104ee57600080fd5b506102ad6104fd366004614dd5565b611bcc565b34801561050e57600080fd5b506102ad61051d366004614b7a565b612035565b34801561052e57600080fd5b506102ad61053d366004614a33565b61212c565b34801561054e57600080fd5b506102ad61055d366004614bf5565b6121bd565b34801561056e57600080fd5b5061020861057d366004614dd5565b6125bf565b34801561058e57600080fd5b5061049561059d366004614b14565b6126f8565b3480156105ae57600080fd5b506102ad6105bd3660046147de565b612709565b6040516301ffc9a760e01b815260009030906301ffc9a7906105e8908590600401614f7b565b60206040518083038186803b15801561060057600080fd5b505afa158015610614573d6000803e3d6000fd5b505050506040513d601f19601f820116820180604052508101906106389190614cce565b90505b919050565b610131602052600090815260409020546001600160a01b031681565b600081815260976020908152604080832081516101808101835281546001600160a01b038082168352600160a01b918290046001600160601b039081168488015260018086015485880152600280870154938416606080880191909152949093049091166080850152855192830186526003850180548452600486015460e01b6001600160e01b0319168489015260058601805488516101009482161594909402600019011693909304601f810189900489028301890188528083528998959760a08901969294908601939290919083018282801561077c5780601f106107515761010080835404028352916020019161077c565b820191906000526020600020905b81548152906001019060200180831161075f57829003601f168201915b50505091909252505050815260068201546001600160a01b03808216602080850191909152600160a01b928390046001600160601b0316604080860191909152600786015492831660608601529282046001600160401b03166080850152600160e01b90910460e01b6001600160e01b03191660a0840152600884018054835160026101006001841615026000190190921691909104601f810184900484028201840190945283815260c09094019392909183018282801561087f5780601f106108545761010080835404028352916020019161087f565b820191906000526020600020905b81548152906001019060200180831161086257829003601f168201915b50505050508152505090506108938161280c565b9392505050565b6101935481565b6108a9612867565b6001600160a01b03166108ba6116d8565b6001600160a01b031614610903576040805162461bcd60e51b81526020600482018190526024820152600080516020615687833981519152604482015290519081900360640190fd5b61013080546001600160a01b0319166001600160a01b0392909216919091179055565b6000818152609760205260409020600201546001600160a01b0316156109675760405162461bcd60e51b815260040161095e90615034565b60405180910390fd5b6109c48160405180606001604052803481526020017f4c23426613a5dc69e08fbd2787e6210aa679d4522e95a89d4dd88c4fd13a22836001600160e01b031916815260200160405180602001604052806000815250815250611032565b50565b610194546001600160601b031681565b6109df612867565b6001600160a01b03166109f06116d8565b6001600160a01b031614610a39576040805162461bcd60e51b81526020600482018190526024820152600080516020615687833981519152604482015290519081900360640190fd5b6001600160e01b03198216600081815261016060205260409081902080546001600160a01b0319166001600160a01b038516179055517f4b5aced933c0c9a88aeac3f0b3b72c5aaf75df8ebaf53225773248c4c315359390610a9c908490614ec5565b60405180910390a25050565b610ab0612867565b6001600160a01b0316610ac16116d8565b6001600160a01b031614610b0a576040805162461bcd60e51b81526020600482018190526024820152600080516020615687833981519152604482015290519081900360640190fd5b610194546040517fa13d21133118bfdffd1e4dc724faaadc5860dcb38ac5836e06f183ac5306b27991610b4a916001600160601b03909116908490615500565b60405180910390a161019480546bffffffffffffffffffffffff19166001600160601b0392909216919091179055565b610130546001600160a01b031681565b610b92612867565b6001600160a01b0316610ba36116d8565b6001600160a01b031614610bec576040805162461bcd60e51b81526020600482018190526024820152600080516020615687833981519152604482015290519081900360640190fd5b61012f80546001600160a01b0319166001600160a01b0392909216919091179055565b600260fc541415610c55576040805162461bcd60e51b815260206004820152601f60248201526000805160206155d2833981519152604482015290519081900360640190fd5b600260fc819055600082815260976020908152604080832081516101808101835281546001600160a01b038082168352600160a01b918290046001600160601b039081168488015260018086015485880152858a015492831660608087019190915293909204166080840152845191820185526003840180548352600485015460e01b6001600160e01b0319168388015260058501805487516101009482161594909402600019011699909904601f8101889004880283018801875280835297989397949660a089019693959194938601939190830182828015610d7a5780601f10610d4f57610100808354040283529160200191610d7a565b820191906000526020600020905b815481529060010190602001808311610d5d57829003601f168201915b50505091909252505050815260068201546001600160a01b03808216602080850191909152600160a01b928390046001600160601b0316604080860191909152600786015492831660608601529282046001600160401b03166080850152600160e01b90910460e01b6001600160e01b03191660a0840152600884018054835160026101006001841615026000190190921691909104601f810184900484028201840190945283815260c090940193929091830182828015610e7d5780601f10610e5257610100808354040283529160200191610e7d565b820191906000526020600020905b815481529060010190602001808311610e6057829003601f168201915b5050505050815250509050610e918161286b565b610ead5760405162461bcd60e51b815260040161095e9061509a565b60c0810151610eba612867565b6001600160a01b0316816001600160a01b031614610eea5760405162461bcd60e51b815260040161095e90615164565b6101008201516001600160a01b031615610f165760405162461bcd60e51b815260040161095e90615273565b610f478260000151836040015184602001516001600160601b0316600080516020615667833981519152308661287d565b610f50836128c1565b60405183907f2809c7e17bf978fbc7194c0a694b638c4215e9140cacc6c38ca36010b45697df90600090a25050600160fc5550565b610f8d612867565b6001600160a01b0316610f9e6116d8565b6001600160a01b031614610fe7576040805162461bcd60e51b81526020600482018190526024820152600080516020615687833981519152604482015290519081900360640190fd5b7fb51bef650ff5ad43303dbe2e500a74d4fd1bdc9ae05f046bece330e82ae0ba8761012e548260405161101b9291906154d5565b60405180910390a16001600160401b031661012e55565b600260fc541415611078576040805162461bcd60e51b815260206004820152601f60248201526000805160206155d2833981519152604482015290519081900360640190fd5b600260fc556000611087612867565b8251600085815260976020908152604080832081516101808101835281546001600160a01b038082168352600160a01b918290046001600160601b039081168488015260018086015485880152600280870154938416606080880191909152949093049091166080850152855192830186526003850180548452600486015460e01b6001600160e01b0319168489015260058601805488516101009482161594909402600019011693909304601f810189900489028301890188528083529a9b50989997989397949660a0890196939593860193919291908301828280156111b05780601f10611185576101008083540402835291602001916111b0565b820191906000526020600020905b81548152906001019060200180831161119357829003601f168201915b50505091909252505050815260068201546001600160a01b03808216602080850191909152600160a01b928390046001600160601b0316604080860191909152600786015492831660608601529282046001600160401b03166080850152600160e01b90910460e01b6001600160e01b03191660a0840152600884018054835160026101006001841615026000190190921691909104601f810184900484028201840190945283815260c0909401939290918301828280156112b35780601f10611288576101008083540402835291602001916112b3565b820191906000526020600020905b81548152906001019060200180831161129657829003601f168201915b505050505081525050905060008160800151905060006112dd836101600151846101400151612952565b905060006112f3876040015188602001516129b4565b600001519050600061132088600001518661012001516001600160401b031661131b85612a08565b612aa5565b60608601519091506001600160a01b031661133f5761133f8188612b18565b6113498584612b5c565b6113538387612ba7565b15611372576113668589858c868c612bd6565b505050505050506115f5565b61010085015142906001600160a01b03166114165760808601516001600160601b03166113e45760208481015160008c81526097909252604090912060020180546001600160a01b0316600160a01b6001600160601b0385811690940193841690810291909117909155608088015294505b8560e001516001600160601b03168710156114115760405162461bcd60e51b815260040161095e9061519b565b61147c565b876001600160a01b03168661010001516001600160a01b0316141561144d5760405162461bcd60e51b815260040161095e906152aa565b60006114588761280c565b90508088101561147a5760405162461bcd60e51b815260040161095e906150cf565b505b600061148b8760600151612d98565b90506114b787606001518861012001516001600160401b03168961010001518c8b60a001518689612dec565b60008b8152609760209081526040918290208c51600382019081558d83015160048301805463ffffffff191660e09290921c919091179055928d015180518e949361150793600501920190614408565b50505060008b815260976020526040812060070180546001600160a01b0319166001600160a01b038c16179055610194546001600160601b031690610384821061155357610384611555565b815b9050806001600160601b03168489036001600160601b031610156115af5760008d815260976020526040902060020180546001600160601b03868401908116600160a01b026001600160a01b039092169190911790915597505b8c7f0e54eff26401bf69b81b26f60bd85ef47f5d85275c1d268d84f68d6897431c478c8a6040516115e1929190614ed9565b60405180910390a250505050505050505050505b5050600160fc55565b61012f546001600160a01b031681565b6000908152609760205260409020600701546001600160a01b031690565b611634612867565b6001600160a01b03166116456116d8565b6001600160a01b03161461168e576040805162461bcd60e51b81526020600482018190526024820152600080516020615687833981519152604482015290519081900360640190fd5b60ca546040516000916001600160a01b0316907f8be0079c531659141344cd1fd0a4f28419497f9722a3daafe3b4186f6b6457e0908390a360ca80546001600160a01b0319169055565b60ca546001600160a01b031690565b61019454600160601b90046001600160801b031681565b6000908152609760205260409020600601546001600160a01b0316151590565b600260fc541415611764576040805162461bcd60e51b815260206004820152601f60248201526000805160206155d2833981519152604482015290519081900360640190fd5b600260fc819055600083815260976020908152604080832081516101808101835281546001600160a01b038082168352600160a01b918290046001600160601b039081168488015260018086015485880152858a015492831660608087019190915293909204166080840152845191820185526003840180548352600485015460e01b6001600160e01b0319168388015260058501805487516101009482161594909402600019011699909904601f8101889004880283018801875280835297989397949660a0890196939591949386019391908301828280156118895780601f1061185e57610100808354040283529160200191611889565b820191906000526020600020905b81548152906001019060200180831161186c57829003601f168201915b50505091909252505050815260068201546001600160a01b03808216602080850191909152600160a01b928390046001600160601b0316604080860191909152600786015492831660608601529282046001600160401b03166080850152600160e01b90910460e01b6001600160e01b03191660a0840152600884018054835160026101006001841615026000190190921691909104601f810184900484028201840190945283815260c09094019392909183018282801561198c5780601f106119615761010080835404028352916020019161198c565b820191906000526020600020905b81548152906001019060200180831161196f57829003601f168201915b505050505081525050905060006119ad826101600151836101400151612952565b90506119b98282612b5c565b6119c7818460000151612ba7565b6119e35760405162461bcd60e51b815260040161095e90615244565b60006119f7846040015185602001516129b4565b6000015190506000611a1f85600001518561012001516001600160401b031661131b85612a08565b90506000611a2b612867565b60608601519091506001600160a01b0316611a4a57611a4a8282612b18565b611a588587868a8786612bd6565b5050600160fc555050505050565b61012e5481565b63bc197c8160e01b95945050505050565b6000611a88612867565b6001600160a01b0381166000908152610192602052604090205490915080611ac25760405162461bcd60e51b815260040161095e9061533b565b6001600160a01b0380831660009081526101926020526040812055611ae990841682612e06565b505050565b611af6612867565b6001600160a01b0316611b076116d8565b6001600160a01b031614611b50576040805162461bcd60e51b81526020600482018190526024820152600080516020615687833981519152604482015290519081900360640190fd5b7f30bd79db520376a437e44c44c2b3ec63f6730f4df0a95f56ea39765f1420cab7610194600c9054906101000a90046001600160801b031682604051611b979291906154a4565b60405180910390a161019480546001600160801b03909216600160601b02600160601b600160e01b0319909216919091179055565b600260fc541415611c12576040805162461bcd60e51b815260206004820152601f60248201526000805160206155d2833981519152604482015290519081900360640190fd5b600260fc819055600082815260976020908152604080832081516101808101835281546001600160a01b038082168352600160a01b918290046001600160601b039081168488015260018086015485880152858a015492831660608087019190915293909204166080840152845191820185526003840180548352600485015460e01b6001600160e01b0319168388015260058501805487516101009482161594909402600019011699909904601f8101889004880283018801875280835297989397949660a089019693959194938601939190830182828015611d375780601f10611d0c57610100808354040283529160200191611d37565b820191906000526020600020905b815481529060010190602001808311611d1a57829003601f168201915b50505091909252505050815260068201546001600160a01b03808216602080850191909152600160a01b928390046001600160601b0316604080860191909152600786015492831660608601529282046001600160401b03166080850152600160e01b90910460e01b6001600160e01b03191660a0840152600884018054835160026101006001841615026000190190921691909104601f810184900484028201840190945283815260c090940193929091830182828015611e3a5780601f10611e0f57610100808354040283529160200191611e3a565b820191906000526020600020905b815481529060010190602001808311611e1d57829003601f168201915b5050505050815250509050611e4e8161286b565b611e6a5760405162461bcd60e51b815260040161095e9061509a565b6000611e80826101600151836101400151612952565b9050611e9d82608001516001600160601b03168260400151612e9e565b158015611eb757506101008201516001600160a01b031615155b611ed35760405162461bcd60e51b815260040161095e90615398565b6000611eef8360a00151604001518460a00151602001516129b4565b60000151905061201f6040518060a00160405280611f328660000151876040015188602001516001600160601b0316600080516020615667833981519152612ee7565b8152602001611f448660c00151612f35565b8152602001611f568560000151612a08565b815263025ceed960e61b60005261016060209081527ff87b4bee0c38b7733cf6e6ae6e9ff68e97be771feb4d52f12144e922b7be163a546001600160a01b03169082015230604091820152805160a08082019092526060870151918701515190918291611fc39190612faf565b8152602001611fd6876101000151612f35565b8152602001611fe485612a08565b8152602001611ff68760600151612d98565b6001600160a01b03168152306020909101526101208601516002906001600160401b0316613016565b505061202a846128c1565b5050600160fc555050565b600054610100900460ff168061204e575061204e61310c565b8061205c575060005460ff16155b6120975760405162461bcd60e51b815260040180806020018281038252602e815260200180615618602e913960400191505060405180910390fd5b600054610100900460ff161580156120c2576000805460ff1961ff0019909116610100171660011790555b6120ca61311d565b6120d26131be565b6120da6132b7565b6120e2613354565b6120eb826133fa565b6120f585856134dc565b612109836001600160401b03168888613587565b61211161311d565b8015612123576000805461ff00191690555b50505050505050565b612134612867565b6001600160a01b03166121456116d8565b6001600160a01b03161461218e576040805162461bcd60e51b81526020600482018190526024820152600080516020615687833981519152604482015290519081900360640190fd5b6001600160a01b0391821660009081526101316020526040902080546001600160a01b03191691909216179055565b60006121c98284612952565b6101945460208201519192506001600160601b0316118015906121f4575060208101516305265c0010155b6122105760405162461bcd60e51b815260040161095e90615138565b6000876001600160601b0316116122395760405162461bcd60e51b815260040161095e90614ffd565b60408101516000901561227757428260400151101561226a5760405162461bcd60e51b815260040161095e906151ea565b5060208101516040820151015b6000612281613663565b9050600061228d612867565b905060006040518061018001604052808d6001600160a01b031681526020018c6001600160601b031681526020018b81526020018a6001600160a01b03168152602001856001600160601b0316815260200160405180606001604052806000815260200160006001600160e01b0319168152602001604051806020016040528060008152508152508152602001836001600160a01b03168152602001896001600160601b0316815260200160006001600160a01b0316815260200161012e546001600160401b03168152602001886001600160e01b0319168152602001878152509050806097600085815260200190815260200160002060008201518160000160006101000a8154816001600160a01b0302191690836001600160a01b0316021790555060208201518160000160146101000a8154816001600160601b0302191690836001600160601b031602179055506040820151816001015560608201518160020160006101000a8154816001600160a01b0302191690836001600160a01b0316021790555060808201518160020160146101000a8154816001600160601b0302191690836001600160601b0316021790555060a0820151816003016000820151816000015560208201518160010160006101000a81548163ffffffff021916908360e01c02179055506040820151816002019080519060200190612495929190614408565b50505060c082015160068201805460e0808601516001600160601b0316600160a01b9081026001600160a01b039586166001600160a01b0319948516178616179093556101008601516007860180546101208901516101408a015190941c600160e01b026001600160e01b036001600160401b0390951690960267ffffffffffffffff60a01b1993909716941693909317169390931792909216179055610160820151805161254e916008840191602090910190614408565b509050506125778c8b8d6001600160601b0316600080516020615667833981519152863061287d565b827f651452447442638a9395d6ab7f472421a3c164ffea75651cbc2d0be20f44498783866040516125a9929190614ed9565b60405180910390a2505050505050505050505050565b60008181526097602090815260408083206008018054825160026001831615610100026000190190921691909104601f810185900485028201850190935282815242938593612682939183018282801561265a5780601f1061262f5761010080835404028352916020019161265a565b820191906000526020600020905b81548152906001019060200180831161263d57829003601f168201915b505050600088815260976020526040902060070154600160e01b900460e01b91506129529050565b90506000816040015111801561269b5750818160400151115b156126ab5760009250505061063b565b600084815260976020526040902060020154600160a01b90046001600160601b031680158015906126dc5750828111155b156126ed576000935050505061063b565b506001949350505050565b63f23a6e6160e01b95945050505050565b612711612867565b6001600160a01b03166127226116d8565b6001600160a01b03161461276b576040805162461bcd60e51b81526020600482018190526024820152600080516020615687833981519152604482015290519081900360640190fd5b6001600160a01b0381166127b05760405162461bcd60e51b81526004018080602001828103825260268152602001806155f26026913960400191505060405180910390fd5b60ca546040516001600160a01b038084169216907f8be0079c531659141344cd1fd0a4f28419497f9722a3daafe3b4186f6b6457e090600090a360ca80546001600160a01b0319166001600160a01b0392909216919091179055565b6101008101516000906001600160a01b0316612836575060e08101516001600160601b031661063b565b6101945460a08301515161285991600160601b90046001600160801b0316613672565b60a083015151019050919050565b3390565b60c001516001600160a01b0316151590565b6128b961288c87878787612ee7565b6001600160e01b0319851660009081526101606020526040902054849084906001600160a01b031661368a565b505050505050565b60405181907f53ab6823c4ae8c865033f94ee16313a21c6ade19520d884dc804d622a43bc67490600090a2600081815260976020526040812081815560018101829055600281018290556003810182815560048201805463ffffffff19169055909190816129326005850182614494565b505060006006830181905560078301819055611ae9906008840190614494565b61295a6144d8565b6001600160e01b03198216632611a13360e11b141561299657825115612991578280602001905181019061298e9190614d23565b90505b6129ae565b60405162461bcd60e51b815260040161095e90615368565b92915050565b6129bc614500565b6001600160e01b03198216632611a13360e11b14156129f057825115612991578280602001905181019061298e9190614d81565b60405162461bcd60e51b815260040161095e906153e3565b60408051600180825281830190925260609160009190816020015b612a2b614513565b815260200190600190039081612a235790505090508281600081518110612a4e57fe5b6020026020010151600001906001600160a01b031690816001600160a01b03168152505060a083901c81600081518110612a8457fe5b6020908102919091018101516001600160601b039092169101529050919050565b6000612abb612ab48585613672565b8590613a81565b905060005b8251811015612b1057612b06612aff848381518110612adb57fe5b6020026020010151602001516001600160601b03168761367290919063ffffffff16565b8390613a81565b9150600101612ac0565b509392505050565b3482811015612b395760405162461bcd60e51b815260040161095e906151c2565b348390038015612b5657612b566001600160a01b03841682612e06565b50505050565b612b658261286b565b8015612b875750612b8782608001516001600160601b03168260400151612e9e565b612ba35760405162461bcd60e51b815260040161095e906152d7565b5050565b6000808360600151118015612bc0575081836060015111155b15612bcd575060016129ae565b50600092915050565b6000612be58760600151612d98565b9050612c0f8760a0015188606001518961010001518a61012001516001600160401b031685613adb565b60608701516000906001600160a01b0316612c2b575030612c2e565b50815b612d486040518060a00160405280612c6b8b600001518c604001518d602001516001600160601b0316600080516020615667833981519152612ee7565b8152602001612c7d8b60c00151612f35565b8152602001612c8f8960000151612a08565b815263025ceed960e61b60005261016060209081527ff87b4bee0c38b7733cf6e6ae6e9ff68e97be771feb4d52f12144e922b7be163a546001600160a01b03169082015230604091820152805160a0810190915260608b01518a518291612cf591612faf565b8152602001612d0387612f35565b8152602001612d1188612a08565b8152602001856001600160a01b03168152602001846001600160a01b031681525060028b61012001516001600160401b0316613016565b5050612d53856128c1565b610193547f10373d853b64ae416c332eacb659de0f9bfc4fa3601556194abce1991061efbe84604051612d869190614ec5565b60405180910390a25050505050505050565b6000806001600160a01b038316156106385750506322ba176160e21b600052506101606020527fcc3321aeb8b7a2c9f2c5853bad52161a9b2c32ac951264909c8eb671f5e8a2fe546001600160a01b031690565b612df98388878986613adb565b6121238188863086613c0e565b6040516000906001600160a01b0384169083908381818185875af1925050503d8060008114612e51576040519150601f19603f3d011682016040523d82523d6000602084013e612e56565b606091505b5050905080611ae9576040805162461bcd60e51b815260206004820152600f60248201526e1d1c985b9cd9995c8819985a5b1959608a1b604482015290519081900360640190fd5b6000428215801590612eaf57508083115b15612ebe5760009150506129ae565b600084118015612ece5750808411155b15612edd5760009150506129ae565b5060019392505050565b612eef61452a565b602080820184905281516001600160e01b031984169052604051612f17918791879101614f57565b60408051601f19818403018152919052815160200152949350505050565b60408051600180825281830190925260609160009190816020015b612f58614513565b815260200190600190039081612f505790505090508281600081518110612f7b57fe5b6020026020010151600001906001600160a01b031690816001600160a01b03168152505061271081600081518110612a8457fe5b612fb761452a565b602081018290526001600160a01b038316612fdd5780516355575f5d60e11b90526129ae565b80516322ba176160e21b9052604051612ffa908490602001614ec5565b60408051601f1981840301815291905281516020015292915050565b8351602090810151845190910151600184600281111561303257fe5b141561307357613043868685613c23565b915061306e856000015160000151866000015160200151876080015189602001518960600151613d07565b613103565b600284600281111561308157fe5b14156130bd57613092858785613c23565b905061306e866000015160000151876000015160200151886080015188602001518a60600151613d07565b8551805160209182015160808901519288015160608a01516130e0949190613d07565b845180516020918201516080880151928901516060890151613103949190613d07565b94509492505050565b600061311730613e81565b15905090565b600054610100900460ff1680613136575061313661310c565b80613144575060005460ff16155b61317f5760405162461bcd60e51b815260040180806020018281038252602e815260200180615618602e913960400191505060405180910390fd5b600054610100900460ff161580156131aa576000805460ff1961ff0019909116610100171660011790555b80156109c4576000805461ff001916905550565b600054610100900460ff16806131d757506131d761310c565b806131e5575060005460ff16155b6132205760405162461bcd60e51b815260040180806020018281038252602e815260200180615618602e913960400191505060405180910390fd5b600054610100900460ff1615801561324b576000805460ff1961ff0019909116610100171660011790555b6000613255612867565b60ca80546001600160a01b0319166001600160a01b038316908117909155604051919250906000907f8be0079c531659141344cd1fd0a4f28419497f9722a3daafe3b4186f6b6457e0908290a35080156109c4576000805461ff001916905550565b600054610100900460ff16806132d057506132d061310c565b806132de575060005460ff16155b6133195760405162461bcd60e51b815260040180806020018281038252602e815260200180615618602e913960400191505060405180910390fd5b600054610100900460ff16158015613344576000805460ff1961ff0019909116610100171660011790555b6131aa630271189760e51b613e87565b600054610100900460ff168061336d575061336d61310c565b8061337b575060005460ff16155b6133b65760405162461bcd60e51b815260040180806020018281038252602e815260200180615618602e913960400191505060405180910390fd5b600054610100900460ff161580156133e1576000805460ff1961ff0019909116610100171660011790555b600160fc5580156109c4576000805461ff001916905550565b600054610100900460ff1680613413575061341361310c565b80613421575060005460ff16155b61345c5760405162461bcd60e51b815260040180806020018281038252602e815260200180615618602e913960400191505060405180910390fd5b600054610100900460ff16158015613487576000805460ff1961ff0019909116610100171660011790555b60016101935561019480546103846bffffffffffffffffffffffff1990911617600160601b600160e01b031916600160601b6001600160801b038516021790558015612ba3576000805461ff00191690555050565b6101606020527fcc3321aeb8b7a2c9f2c5853bad52161a9b2c32ac951264909c8eb671f5e8a2fe80546001600160a01b039283166001600160a01b0319918216179091557ff8438ac3c894ac02e07302d6095daf9b1a70971d1492bf1049af2509a4a09ca3805493909216928116831790915563025ceed960e61b6000527ff87b4bee0c38b7733cf6e6ae6e9ff68e97be771feb4d52f12144e922b7be163a80549091169091179055565b600054610100900460ff16806135a057506135a061310c565b806135ae575060005460ff16155b6135e95760405162461bcd60e51b815260040180806020018281038252602e815260200180615618602e913960400191505060405180910390fd5b600054610100900460ff16158015613614576000805460ff1961ff0019909116610100171660011790555b61012e84905561013080546001600160a01b038086166001600160a01b03199283161790925561012f8054928516929091169190911790558015612b56576000805461ff001916905550505050565b61019380546001810190915590565b60006108936127106136848585613f0e565b90613f67565b8351516001600160e01b0319166339d690a360e11b14156137d0576000808560000151602001518060200190518101906136c49190614a06565b9150915085602001516001146136ec5760405162461bcd60e51b815260040161095e90615218565b6001600160a01b03851630141561376457604051632142170760e11b81526001600160a01b038316906342842e0e9061372d90309088908690600401614efb565b600060405180830381600087803b15801561374757600080fd5b505af115801561375b573d6000803e3d6000fd5b505050506137c9565b604051637b84dc8360e11b81526001600160a01b0384169063f709b90690613796908590899089908790600401614fd3565b600060405180830381600087803b1580156137b057600080fd5b505af11580156137c4573d6000803e3d6000fd5b505050505b5050612b56565b8351516001600160e01b0319166322ba176160e21b141561391357600084600001516020015180602001905181019061380991906147fa565b90506001600160a01b0384163014156138a557602085015160405163a9059cbb60e01b81526001600160a01b0383169163a9059cbb9161384d918791600401614f57565b602060405180830381600087803b15801561386757600080fd5b505af115801561387b573d6000803e3d6000fd5b505050506040513d601f19601f8201168201806040525081019061389f9190614cce565b5061390d565b602085015160405163776062c360e01b81526001600160a01b0384169163776062c3916138da91859189918991600401614fd3565b600060405180830381600087803b1580156138f457600080fd5b505af1158015613908573d6000803e3d6000fd5b505050505b50612b56565b8351516001600160e01b03191663025ceed960e61b14156139d05760008085600001516020015180602001905181019061394d9190614a06565b90925090506001600160a01b038516301415613998576020860151604051637921219560e11b81526001600160a01b0384169163f242432a9161372d91309189918791600401614f1f565b6020860151604051639c1c2ee960e01b81526001600160a01b03851691639c1c2ee9916137969186918a918a91889190600401614f90565b8351516001600160e01b0319166355575f5d60e11b1415613a19576001600160a01b0382163014613a14576020840151613a14906001600160a01b03841690612e06565b612b56565b6040516354bc0cf160e01b81526001600160a01b038216906354bc0cf190613a499087908790879060040161540f565b600060405180830381600087803b158015613a6357600080fd5b505af1158015613a77573d6000803e3d6000fd5b5050505050505050565b600082820183811015610893576040805162461bcd60e51b815260206004820152601b60248201527f536166654d6174683a206164646974696f6e206f766572666c6f770000000000604482015290519081900360640190fd5b6001600160a01b038316613aee57613c07565b6000613b1d8660000151846001600160801b031661131b613b178a604001518b602001516129b4565b51612a08565b90506001600160a01b038516613bfa576000846001600160a01b031682604051613b4690614ec2565b60006040518083038185875af1925050503d8060008114613b83576040519150601f19603f3d011682016040523d82523d6000602084013e613b88565b606091505b5050905080613bf4576001600160a01b03851660008181526101926020526040908190208054858101918290559151919290917e13bff06d622c14d54757ee0547a817dc3e491fb8da534f108a531b016dee3c90613be990879085906154c7565b60405180910390a250505b506128b9565b6128b98186308786613c0e565b5050505050565b613c07613c1b8587612faf565b84848461368a565b6000613c3c846000015160200151838660400151612aa5565b90506000613c6782866000015160200151876080015186878a60000151600001518b60600151613fce565b85518051865151602090920151608089015160608a0151949550613c919492939286929190614097565b9050613cbd85600001516000015182876000015160200151886040015189608001518a606001516140dc565b50855180516020909101516040870151608089015160608a0151949550613ce89486939291906140dc565b50855151608087015160208701516060890151939450612b1093859291905b6000825111613d285760405162461bcd60e51b815260040161095e906150f4565b600084815b6001855103811015613df7576000613d6e868381518110613d4a57fe5b6020026020010151602001516001600160601b03168961367290919063ffffffff16565b9050613da3868381518110613d7f57fe5b6020026020010151602001516001600160601b031685613a8190919063ffffffff16565b93508015613dee57613db583826141a8565b9250613dee60405180604001604052808b81526020018381525088888581518110613ddc57fe5b6020026020010151600001518861368a565b50600101613d2d565b50600084600186510381518110613e0a57fe5b60200260200101519050613e3481602001516001600160601b031684613a8190919063ffffffff16565b92508261271014613e575760405162461bcd60e51b815260040161095e90615304565b8115613a7757613a7760405180604001604052808a8152602001848152508783600001518761368a565b3b151590565b6001600160e01b03198082161415613ee6576040805162461bcd60e51b815260206004820152601c60248201527f4552433136353a20696e76616c696420696e7465726661636520696400000000604482015290519081900360640190fd5b6001600160e01b0319166000908152600160208190526040909120805460ff19169091179055565b600082613f1d575060006129ae565b82820282848281613f2a57fe5b04146108935760405162461bcd60e51b81526004018080602001828103825260218152602001806156466021913960400191505060405180910390fd5b6000808211613fbd576040805162461bcd60e51b815260206004820152601a60248201527f536166654d6174683a206469766973696f6e206279207a65726f000000000000604482015290519081900360640190fd5b818381613fc657fe5b049392505050565b6000806000613fe08a8a888a01614205565b9092509050801561408a5784516000906001600160e01b0319166322ba176160e21b141561402757856020015180602001905181019061402091906147fa565b9050614060565b85516001600160e01b03191663025ceed960e61b1415614060576000866020015180602001905181019061405b9190614a06565b509150505b6140886040518060400160405280888152602001848152508a61408284614227565b8861368a565b505b5098975050505050505050565b6000806140a387614266565b90506000806140b68a8989868a8a6140dc565b9150915061138881111561408a5760405162461bcd60e51b815260040161095e90615063565b846000805b855181101561419c5761411d8682815181106140f957fe5b6020026020010151602001516001600160601b031683613a8190919063ffffffff16565b915060008061414d858a8a868151811061413357fe5b6020026020010151602001516001600160601b0316614205565b909550859250905080156141925761419260405180604001604052808d815260200183815250888a868151811061418057fe5b6020026020010151600001518961368a565b50506001016140e1565b50965096945050505050565b6000828211156141ff576040805162461bcd60e51b815260206004820152601e60248201527f536166654d6174683a207375627472616374696f6e206f766572666c6f770000604482015290519081900360640190fd5b50900390565b60008061421b856142168686613672565b6143db565b91509150935093915050565b6001600160a01b0380821660009081526101316020526040812054909116801561425257905061063b565b5050610130546001600160a01b0316919050565b80516060906001600160e01b03191663025ceed960e61b148061429a575081516001600160e01b0319166339d690a360e11b145b156143505760008083602001518060200190518101906142ba9190614a06565b61012f54604051634e53ee3d60e11b81529294509092506001600160a01b031690639ca7dc7a906142f19085908590600401614f57565b600060405180830381600087803b15801561430b57600080fd5b505af115801561431f573d6000803e3d6000fd5b505050506040513d6000823e601f3d908101601f191682016040526143479190810190614c94565b9250505061063b565b81516001600160e01b03191662737ea960e61b141561439157600082602001518060200190518101906143839190614816565b60800151925061063b915050565b81516001600160e01b03191663d8f960c160e01b14156143d357600082602001518060200190518101906143c59190614913565b60600151925061063b915050565b506060919050565b600080828411156143fa576143f084846141a8565b9150829050614401565b5060009050825b9250929050565b828054600181600116156101000203166002900490600052602060002090601f01602090048101928261443e5760008555614484565b82601f1061445757805160ff1916838001178555614484565b82800160010185558215614484579182015b82811115614484578251825591602001919060010190614469565b5061449092915061454a565b5090565b50805460018160011615610100020316600290046000825580601f106144ba57506109c4565b601f0160209004906000526020600020908101906109c4919061454a565b6040518060800160405280600081526020016000815260200160008152602001600081525090565b6040518060200160405280600081525090565b604080518082019091526000808252602082015290565b604051806040016040528061453d61455f565b8152602001600081525090565b5b80821115614490576000815560010161454b565b60408051808201909152600081526060602082015290565b600061458a6145858461555a565b61551a565b905082815283838301111561459e57600080fd5b61089383602083018461557b565b600082601f8301126145bc578081fd5b815160206145cc6145858361553d565b82815281810190858301855b85811015614616578151880189603f8201126145f2578788fd5b6146038a8783015160408401614577565b85525092840192908401906001016145d8565b5090979650505050505050565b600082601f830112614633578081fd5b815160206146436145858361553d565b82815281810190858301604080860288018501891015614661578687fd5b865b868110156146c55781838b031215614679578788fd5b81518281018181106001600160401b038211171561469357fe5b835283516146a0816155a7565b8152838701516146af816155bc565b8188015285529385019391810191600101614663565b509198975050505050505050565b600082601f8301126146e3578081fd5b813560206146f36145858361553d565b828152818101908583018385028701840188101561470f578586fd5b855b8581101561461657813584529284019290840190600101614711565b80356001600160e01b03198116811461063b57600080fd5b600082601f830112614755578081fd5b81356147636145858261555a565b818152846020838601011115614777578283fd5b816020850160208301379081016020019190915292915050565b600082601f8301126147a1578081fd5b61089383835160208501614577565b80356001600160801b038116811461063b57600080fd5b80356001600160401b038116811461063b57600080fd5b6000602082840312156147ef578081fd5b8135610893816155a7565b60006020828403121561480b578081fd5b8151610893816155a7565b60008060408385031215614828578081fd5b8251614833816155a7565b60208401519092506001600160401b038082111561484f578283fd5b9084019060c08287031215614862578283fd5b61486c60c061551a565b82518152602083015182811115614881578485fd5b61488d88828601614791565b602083015250604083015160408201526060830151828111156148ae578485fd5b6148ba88828601614623565b6060830152506080830151828111156148d1578485fd5b6148dd88828601614623565b60808301525060a0830151828111156148f4578485fd5b614900888286016145ac565b60a0830152508093505050509250929050565b60008060408385031215614925578182fd5b8251614930816155a7565b60208401519092506001600160401b038082111561494c578283fd5b9084019060a0828703121561495f578283fd5b61496960a061551a565b8251815260208301518281111561497e578485fd5b61498a88828601614791565b6020830152506040830151828111156149a1578485fd5b6149ad88828601614623565b6040830152506060830151828111156149c4578485fd5b6149d088828601614623565b6060830152506080830151828111156149e7578485fd5b6149f3888286016145ac565b6080830152508093505050509250929050565b60008060408385031215614a18578182fd5b8251614a23816155a7565b6020939093015192949293505050565b60008060408385031215614a45578182fd5b8235614a50816155a7565b91506020830135614a60816155a7565b809150509250929050565b600080600080600060a08688031215614a82578081fd5b8535614a8d816155a7565b94506020860135614a9d816155a7565b935060408601356001600160401b0380821115614ab8578283fd5b614ac489838a016146d3565b94506060880135915080821115614ad9578283fd5b614ae589838a016146d3565b93506080880135915080821115614afa578283fd5b50614b0788828901614745565b9150509295509295909350565b600080600080600060a08688031215614b2b578283fd5b8535614b36816155a7565b94506020860135614b46816155a7565b9350604086013592506060860135915060808601356001600160401b03811115614b6e578182fd5b614b0788828901614745565b60008060008060008060c08789031215614b92578384fd5b8635614b9d816155a7565b95506020870135614bad816155a7565b94506040870135614bbd816155a7565b93506060870135614bcd816155a7565b9250614bdb608088016147c7565b9150614be960a088016147b0565b90509295509295509295565b600080600080600080600060e0888a031215614c0f578485fd5b8735614c1a816155a7565b96506020880135614c2a816155bc565b9550604088013594506060880135614c41816155a7565b93506080880135614c51816155bc565b9250614c5f60a0890161472d565b915060c08801356001600160401b03811115614c79578182fd5b614c858a828b01614745565b91505092959891949750929550565b600060208284031215614ca5578081fd5b81516001600160401b03811115614cba578182fd5b614cc684828501614623565b949350505050565b600060208284031215614cdf578081fd5b81518015158114610893578182fd5b600060208284031215614cff578081fd5b6108938261472d565b60008060408385031215614d1a578182fd5b614a508361472d565b600060808284031215614d34578081fd5b604051608081018181106001600160401b0382111715614d5057fe5b8060405250825181526020830151602082015260408301516040820152606083015160608201528091505092915050565b600060208284031215614d92578081fd5b604051602081018181106001600160401b0382111715614dae57fe5b6040529151825250919050565b600060208284031215614dcc578081fd5b610893826147b0565b600060208284031215614de6578081fd5b5035919050565b60008060408385031215614dff578182fd5b8235915060208301356001600160401b0380821115614e1c578283fd5b9084019060608287031215614e2f578283fd5b604051606081018181108382111715614e4457fe5b60405282358152614e576020840161472d565b6020820152604083013582811115614e6d578485fd5b614e7988828601614745565b6040830152508093505050509250929050565b600060208284031215614e9d578081fd5b610893826147c7565b600060208284031215614eb7578081fd5b8135610893816155bc565b90565b6001600160a01b0391909116815260200190565b6001600160a01b039290921682526001600160601b0316602082015260400190565b6001600160a01b039384168152919092166020820152604081019190915260600190565b6001600160a01b0394851681529290931660208301526040820152606081019190915260a06080820181905260009082015260c00190565b6001600160a01b03929092168252602082015260400190565b901515815260200190565b6001600160e01b031991909116815260200190565b6001600160a01b03958616815293851660208501529190931660408301526060820192909252608081019190915260c060a0820181905260009082015260e00190565b6001600160a01b039485168152928416602084015292166040820152606081019190915260800190565b60208082526019908201527f696e636f7272656374205f73656c6c546f6b656e56616c756500000000000000604082015260600190565b6020808252601590820152741bdb9b1e4811551208189a591cc8185b1b1bddd959605a1b604082015260600190565b6020808252601d908201527f526f79616c746965732061726520746f6f206869676820283e35302529000000604082015260600190565b6020808252818101527f7468657265206973206e6f2061756374696f6e20776974682074686973206964604082015260600190565b6020808252600b908201526a62696420746f6f206c6f7760a81b604082015260600190565b60208082526024908201527f7472616e736665725061796f7574733a206e6f7468696e6720746f207472616e60408201526339b332b960e11b606082015260800190565b60208082526012908201527134b731b7b93932b1ba10323ab930ba34b7b760711b604082015260600190565b6020808252601a908201527f61756374696f6e206f776e6572206e6f74206465746563746564000000000000604082015260600190565b6020808252600d908201526c189a59081d1bdbc81cdb585b1b609a1b604082015260600190565b6020808252600e908201526d0dcdee840cadcdeeaced0408aa8960931b604082015260600190565b602080825260149082015273696e636f72726563742073746172742074696d6560601b604082015260600190565b60208082526012908201527132b9319b9918903b30b63ab29032b93937b960711b604082015260600190565b6020808252601590820152741b9bdd08195b9bdd59da08199bdc88189d5e5bdd5d605a1b604082015260600190565b6020808252601d908201527f63616e27742063616e63656c2061756374696f6e207769746820626964000000604082015260600190565b602080825260139082015272185b1c9958591e481dda5b9b9a5b99c8189a59606a1b604082015260600190565b60208082526013908201527261756374696f6e20697320696e61637469766560681b604082015260600190565b6020808252601e908201527f53756d207061796f75747320427073206e6f7420657175616c20313030250000604082015260600190565b6020808252601390820152726e6f7468696e6720746f20776974686472617760681b604082015260600190565b60208082526016908201527577726f6e672061756374696f6e20646174615479706560501b604082015260600190565b6020808252602b908201527f6f6e6c7920656e6465642061756374696f6e2077697468206269642063616e2060408201526a189948199a5b9a5cda195960aa1b606082015260800190565b60208082526012908201527177726f6e672062696420646174615479706560701b604082015260600190565b60006060825284516040606084015263ffffffff60e01b81511660a084015260208101519050604060c084015280518060e0850152610100615457828287016020860161557b565b60209788015160808601526001600160a01b039687169785019790975293909416604083015250601f909101601f191601909101919050565b6001600160801b0391909116815260200190565b6001600160801b0392831681529116602082015260400190565b90815260200190565b918252602082015260400190565b9182526001600160401b0316602082015260400190565b6001600160601b0391909116815260200190565b6001600160601b0392831681529116602082015260400190565b6040518181016001600160401b038111828210171561553557fe5b604052919050565b60006001600160401b0382111561555057fe5b5060209081020190565b60006001600160401b0382111561556d57fe5b50601f01601f191660200190565b60005b8381101561559657818101518382015260200161557e565b83811115612b565750506000910152565b6001600160a01b03811681146109c457600080fd5b6001600160601b03811681146109c457600080fdfe5265656e7472616e637947756172643a207265656e7472616e742063616c6c004f776e61626c653a206e6577206f776e657220697320746865207a65726f2061646472657373496e697469616c697a61626c653a20636f6e747261637420697320616c726561647920696e697469616c697a6564536166654d6174683a206d756c7469706c69636174696f6e206f766572666c6f77973bb64086f173ec8099b7ed3d43da984f4a332e4417a08bc6a286e6402b05864f776e61626c653a2063616c6c6572206973206e6f7420746865206f776e6572a264697066735822122048bf1c43fe6bf5b137b3b7f53bcb6730223d050e460f1d6dbd6667ffd507ed3964736f6c63430007060033",
  "immutableReferences": {},
  "source": "// SPDX-License-Identifier: MIT\n\npragma solidity 0.7.6;\npragma abicoder v2;\n\nimport \"./AuctionHouseStruct1155.sol\";\nimport \"../AuctionHouseBase.sol\";\n\nimport \"@openzeppelin/contracts-upgradeable/math/SafeMathUpgradeable.sol\";\nimport \"@openzeppelin/contracts-upgradeable/token/ERC1155/ERC1155HolderUpgradeable.sol\";\n\n/// @dev contract to create and interact with auctions\ncontract AuctionHouse1155 is ERC1155HolderUpgradeable, AuctionHouseStruct1155, AuctionHouseBase {\n    using LibTransfer for address;\n    using BpLibrary for uint;\n\n    function __AuctionHouse1155_init(\n        address newDefaultFeeReceiver,\n        IRoyaltiesProvider newRoyaltiesProvider,\n        address _transferProxy,\n        address _erc20TransferProxy,\n        uint64 newProtocolFee,\n        uint128 _minimalStepBasePoint\n    ) external initializer {\n        __Context_init_unchained();\n        __Ownable_init_unchained();\n        __ERC1155Receiver_init_unchained();\n        __ReentrancyGuard_init_unchained();\n        __AuctionHouseBase_init_unchained(_minimalStepBasePoint);\n        __TransferExecutor_init_unchained(_transferProxy, _erc20TransferProxy);\n        __RaribleTransferManager_init_unchained(newProtocolFee, newDefaultFeeReceiver, newRoyaltiesProvider);        \n        __AuctionHouse1155_init_unchained();\n    }\n\n    function __AuctionHouse1155_init_unchained() internal initializer {  \n    }\n\n    /// @dev creates an auction and locks sell asset\n    function startAuction(\n        address _sellToken,\n        uint96 _sellTokenValue,\n        uint _sellTokenId,\n        address _buyAsset,\n        uint96 minimalPrice,\n        bytes4 dataType,\n        bytes memory data\n    ) external {\n        //todo: check if token contract supports ERC1155 interface?\n    \n        LibAucDataV1.DataV1 memory aucData = LibAucDataV1.parse(data, dataType);\n        require(aucData.duration >= minimalDuration && aucData.duration <= MAX_DURATION, \"incorrect duration\");\n        require(_sellTokenValue > 0, \"incorrect _sellTokenValue\");\n\n        uint96 endTime = 0;\n        if (aucData.startTime > 0){\n            require (aucData.startTime >= block.timestamp, \"incorrect start time\");\n            endTime = uint96(aucData.startTime + aucData.duration);\n        }\n\n        uint currentAuctionId = getNextAndIncrementAuctionId();\n        address payable sender = _msgSender();\n        Auction memory auc = Auction(\n            _sellToken,\n            _sellTokenValue,\n            _sellTokenId,\n            _buyAsset,\n            endTime,\n            Bid(0, \"\", \"\"),\n            sender,\n            minimalPrice,\n            payable(address(0)),\n            uint64(protocolFee),\n            dataType,\n            data\n        );\n        auctions[currentAuctionId] = auc;\n\n        transferNFT(\n            _sellToken, \n            _sellTokenId, \n            _sellTokenValue, \n            LibAsset.ERC1155_ASSET_CLASS,\n            sender,\n            address(this)\n        );\n        \n        emit AuctionCreated(currentAuctionId, sender, endTime);\n    }\n\n    /// @dev put a bid and return locked assets for the last bid\n    function putBid(uint _auctionId, Bid memory bid) payable public nonReentrant {\n        address payable newBuyer = _msgSender();\n        uint newAmount = bid.amount;\n        Auction memory currentAuction = auctions[_auctionId];\n        uint96 endTime = currentAuction.endTime;\n        LibAucDataV1.DataV1 memory aucData = LibAucDataV1.parse(currentAuction.data, currentAuction.dataType);\n        uint bidOriginFee = LibBidDataV1.parse(bid.data, bid.dataType).originFee;\n        uint totalAmount = calculateTotalAmount(\n            bid.amount, \n            currentAuction.protocolFee, \n            getOriginFee(bidOriginFee)\n        );\n        if (currentAuction.buyAsset == address(0)) {\n            checkEthReturnChange(totalAmount, newBuyer);\n        }\n        checkAuctionInProgress(currentAuction, aucData);\n        if (buyOutVerify(aucData, newAmount)) {\n            _buyOut(\n                currentAuction,\n                bid,\n                aucData,\n                _auctionId,\n                bidOriginFee,\n                newBuyer\n            );\n            return;\n        }\n        \n        uint96 currentTime = uint96(block.timestamp);\n        //start action if minimal price is met\n        if (currentAuction.buyer == address(0x0)) {//no bid at all\n            // set endTime if it's not set\n            if (currentAuction.endTime == 0){\n                endTime = uint96(currentTime + aucData.duration);\n                auctions[_auctionId].endTime = endTime;\n                currentAuction.endTime = endTime;\n                \n            }\n            require(newAmount >= currentAuction.minimalPrice, \"bid too small\");\n        } else {//there is bid in auction\n            require(currentAuction.buyer != newBuyer, \"already winning bid\");\n            uint256 minAmount = _getMinimalNextBid(currentAuction);\n            require(newAmount >= minAmount, \"bid too low\");\n        }\n\n        address proxy = _getProxy(currentAuction.buyAsset);\n        reserveBid(\n            currentAuction.buyAsset,\n            currentAuction.protocolFee,\n            currentAuction.buyer,\n            newBuyer,\n            currentAuction.lastBid,\n            proxy,\n            totalAmount\n        );\n        auctions[_auctionId].lastBid = bid;\n        auctions[_auctionId].buyer = newBuyer;\n\n        // auction is extended for EXTENSION_DURATION or minimalDuration if (minimalDuration < EXTENSION_DURATION)\n        uint96 minDur = minimalDuration;\n        uint96 extension = (minDur < EXTENSION_DURATION) ? minDur : EXTENSION_DURATION;\n\n        // extends auction time if it's about to end\n        if (endTime - currentTime < extension) {\n            endTime = currentTime + extension;\n            auctions[_auctionId].endTime = endTime;\n        }\n        emit BidPlaced(_auctionId, newBuyer, endTime);\n    }\n\n    /// @dev reserves new bid and returns the last one if it exists\n    function reserveBid(\n        address buyAsset,\n        uint128 curProtocolFee,\n        address oldBuyer,\n        address newBuyer,\n        Bid memory oldBid,\n        address proxy,\n        uint newTotalAmount\n    ) internal {\n        // return old bid if theres any\n        _returnBid(\n            oldBid,\n            buyAsset,\n            oldBuyer,\n            curProtocolFee,\n            proxy\n        );\n        \n        //lock new bid\n        transferBid(\n            newTotalAmount,\n            buyAsset,\n            newBuyer,\n            address(this),\n            proxy\n        );\n    }\n\n    /// @dev returns the minimal amount of the next bid (without fees)\n    function getMinimalNextBid(uint _auctionId) external view returns (uint minBid){\n        Auction memory currentAuction = auctions[_auctionId];\n        return _getMinimalNextBid(currentAuction);\n    }\n\n    /// @dev returns the minimal amount of the next bid (without fees)\n    function _getMinimalNextBid(Auction memory currentAuction) internal view returns (uint minBid){\n        if (currentAuction.buyer == address(0x0)) {\n            minBid = currentAuction.minimalPrice;\n        } else {\n            minBid = currentAuction.lastBid.amount + currentAuction.lastBid.amount.bp(minimalStepBasePoint);\n        }\n    }\n\n    /// @dev returns true if auction exists, false otherwise\n    function checkAuctionExistence(uint _auctionId) external view returns (bool){\n        return auctions[_auctionId].seller != address(0);\n    }\n\n    /// @dev returns true if auction exists, false otherwise\n    function _checkAuctionExistence(Auction memory currentAuction) internal pure returns (bool){\n        return currentAuction.seller != address(0);\n    }\n\n    /// @dev returns true if newAmount is enough for buyOut\n    function buyOutVerify(LibAucDataV1.DataV1 memory aucData, uint newAmount) internal pure returns (bool) {\n        if (aucData.buyOutPrice > 0 && aucData.buyOutPrice <= newAmount) {\n            return true;\n        }\n        return false;\n    }\n\n    /// @dev finishes, deletes and transfers all assets for an auction if it's ended (it exists, it has at least one bid, now > endTme)\n    function finishAuction(uint _auctionId) external nonReentrant {\n        Auction memory currentAuction = auctions[_auctionId];\n        require(_checkAuctionExistence(currentAuction), \"there is no auction with this id\");\n        LibAucDataV1.DataV1 memory aucData = LibAucDataV1.parse(currentAuction.data, currentAuction.dataType);\n        require(\n            !_checkAuctionRangeTime(currentAuction.endTime, aucData.startTime) &&\n            currentAuction.buyer != address(0),\n            \"only ended auction with bid can be finished\"\n        );\n        uint bidOriginFee = LibBidDataV1.parse(currentAuction.lastBid.data, currentAuction.lastBid.dataType).originFee;\n\n        doTransfers(\n            LibDeal.DealSide(\n                getSellAsset(\n                    currentAuction.sellToken, \n                    currentAuction.sellTokenId,\n                    currentAuction.sellTokenValue,\n                    LibAsset.ERC1155_ASSET_CLASS\n                ),\n                getPayouts(currentAuction.seller),\n                getOriginFee(aucData.originFee),\n                proxies[LibAsset.ERC1155_ASSET_CLASS],\n                address(this)\n            ), \n            LibDeal.DealSide(\n                getBuyAsset(\n                    currentAuction.buyAsset,\n                    currentAuction.lastBid.amount\n                ),\n                getPayouts(currentAuction.buyer),\n                getOriginFee(bidOriginFee),\n                _getProxy(currentAuction.buyAsset),\n                address(this)\n            ), \n            LibFeeSide.FeeSide.RIGHT, \n            currentAuction.protocolFee\n        );\n        deactivateAuction(_auctionId);\n    }\n\n    /// @dev returns true if auction started and hasn't finished yet, false otherwise\n    function checkAuctionRangeTime(uint _auctionId) external view returns (bool){\n        uint currentTime = block.timestamp;\n        LibAucDataV1.DataV1 memory aucData = LibAucDataV1.parse(auctions[_auctionId].data, auctions[_auctionId].dataType);\n        if (aucData.startTime > 0 && aucData.startTime > currentTime) {\n            return false;\n        }\n        uint endTime = auctions[_auctionId].endTime;\n        if (endTime > 0 && endTime <= currentTime){\n            return false;\n        }\n\n        return true;\n    }\n\n    function _checkAuctionRangeTime(uint endTime, uint startTime) internal view returns (bool){\n        uint currentTime = block.timestamp;\n        if (startTime > 0 && startTime > currentTime) {\n            return false;\n        }\n        if (endTime > 0 && endTime <= currentTime){\n            return false;\n        }\n\n        return true;\n    }\n\n    /// @dev deletes auction after finalizing\n    function deactivateAuction(uint _auctionId) internal {\n        emit AuctionFinished(_auctionId);\n        delete auctions[_auctionId];\n    }\n\n    /// @dev cancels existing auction without bid\n    function cancel(uint _auctionId) external nonReentrant {\n        Auction memory currentAuction = auctions[_auctionId];\n        require(_checkAuctionExistence(currentAuction), \"there is no auction with this id\");\n        address seller = currentAuction.seller;\n        require(seller == _msgSender(), \"auction owner not detected\");\n        require(currentAuction.buyer == address(0), \"can't cancel auction with bid\");\n        transferNFT(\n            currentAuction.sellToken, \n            currentAuction.sellTokenId, \n            currentAuction.sellTokenValue, \n            LibAsset.ERC1155_ASSET_CLASS,\n            address(this),\n            seller\n        );\n        deactivateAuction(_auctionId);\n        emit AuctionCancelled(_auctionId);\n    }\n\n    // todo will there be a problem if buyer is last bidder?\n    /// @dev buyout auction if bid satisfies buyout condition\n    function buyOut(uint _auctionId, Bid memory bid) external payable nonReentrant {\n        Auction memory currentAuction = auctions[_auctionId];\n        LibAucDataV1.DataV1 memory aucData = LibAucDataV1.parse(currentAuction.data, currentAuction.dataType);\n        checkAuctionInProgress(currentAuction, aucData);\n        require(buyOutVerify(aucData, bid.amount), \"not enough for buyout\");\n        uint bidOriginFee = LibBidDataV1.parse(bid.data, bid.dataType).originFee;\n        uint totalAmount = calculateTotalAmount(\n            bid.amount, \n            currentAuction.protocolFee, \n            getOriginFee(bidOriginFee)\n        );\n        address sender = _msgSender();\n        if (currentAuction.buyAsset == address(0)) {\n            checkEthReturnChange(totalAmount, sender);\n        }\n        _buyOut(\n            currentAuction,\n            bid,\n            aucData,\n            _auctionId,\n            bidOriginFee,\n            sender\n        );\n    }\n\n    function _buyOut(\n        Auction memory currentAuction,\n        Bid memory bid,\n        LibAucDataV1.DataV1 memory aucData,\n        uint _auctionId,\n        uint newBidOriginFee,\n        address sender\n    ) internal {\n        address proxy = _getProxy(currentAuction.buyAsset);\n\n        _returnBid(\n            currentAuction.lastBid,\n            currentAuction.buyAsset,\n            currentAuction.buyer,\n            currentAuction.protocolFee,\n            proxy\n        );\n\n        address from;\n        if (currentAuction.buyAsset == address(0)) {\n            // if buyAsset = ETH\n            from = address(this);\n        } else {\n            // if buyAsset = ERC20\n            from = sender;\n        }\n        doTransfers(\n            LibDeal.DealSide(\n                getSellAsset(\n                    currentAuction.sellToken, \n                    currentAuction.sellTokenId,\n                    currentAuction.sellTokenValue,\n                    LibAsset.ERC1155_ASSET_CLASS\n                ),\n                getPayouts(currentAuction.seller),\n                getOriginFee(aucData.originFee),\n                proxies[LibAsset.ERC1155_ASSET_CLASS],\n                address(this)\n            ), \n            LibDeal.DealSide(\n                getBuyAsset(\n                    currentAuction.buyAsset,\n                    bid.amount\n                ),\n                getPayouts(sender),\n                getOriginFee(newBidOriginFee),\n                proxy,\n                from\n            ), \n            LibFeeSide.FeeSide.RIGHT, \n            currentAuction.protocolFee\n        );\n        \n        deactivateAuction(_auctionId);\n        emit AuctionBuyOut(auctionId, sender);\n    }\n\n    /// @dev returns current highest bidder for an auction\n    function getCurrentBuyer(uint _auctionId) public view returns(address) {\n        return auctions[_auctionId].buyer;\n    }\n\n    /// @dev returns true if auction in progress, false otherwise\n    function checkAuctionInProgress(Auction memory currentAuction, LibAucDataV1.DataV1 memory aucData) internal view{\n        require(_checkAuctionExistence(currentAuction) && _checkAuctionRangeTime(currentAuction.endTime, aucData.startTime), \"auction is inactive\");\n    }\n\n    /// @dev function to call from wrapper to put bid\n    function putBidWrapper(uint256 _auctionId) external payable {\n        require(auctions[_auctionId].buyAsset == address(0), \"only ETH bids allowed\");\n        putBid(_auctionId, Bid(msg.value, LibBidDataV1.V1, \"\"));\n    }\n\n    /// @dev Used to withdraw faulty bids (bids that failed to return after out-bidding)\n    function withdrawFaultyBid(address _to) external {\n        address sender = _msgSender();\n        uint amount = readyToWithdraw[sender];\n        require( amount > 0, \"nothing to withdraw\");\n        readyToWithdraw[sender] = 0;\n        _to.transferEth(amount);\n    }\n\n    function _returnBid(\n        Bid memory oldBid,\n        address buyAsset,\n        address oldBuyer,\n        uint128 curProtocolFee,\n        address proxy\n    ) internal {\n        // nothing to return\n        if (oldBuyer == address(0)) {\n            return;\n        }\n        uint oldTotalAmount = calculateTotalAmount(oldBid.amount, curProtocolFee, getOriginFee(LibBidDataV1.parse(oldBid.data, oldBid.dataType).originFee));\n        if (buyAsset == address(0)) {\n            (bool success,) = oldBuyer.call{ value: oldTotalAmount }(\"\");\n            if (!success) {\n                uint currentValueToWithdraw = readyToWithdraw[oldBuyer];\n                uint newValueToWithdraw = oldTotalAmount + (currentValueToWithdraw);\n                readyToWithdraw[oldBuyer] = newValueToWithdraw;\n                emit AvailableToWithdraw(oldBuyer, oldTotalAmount, newValueToWithdraw);\n            }\n        } else {\n            transferBid(\n                oldTotalAmount,\n                buyAsset,\n                address(this),\n                oldBuyer,\n                proxy\n            );\n        }\n    }\n\n    function _getProxy(address buyAsset) internal view returns(address){\n        address proxy;\n        if (buyAsset != address(0)){\n            proxy = proxies[LibAsset.ERC20_ASSET_CLASS];\n        }\n        return proxy;\n    }\n\n    /// @dev check that msg.value more than bid amount with fees and return change\n    function checkEthReturnChange(uint totalAmount, address buyer) internal {\n        uint msgValue = msg.value;\n        require(msgValue >= totalAmount, \"not enough ETH\");\n        uint256 change = msg.value - totalAmount;\n        if (change > 0) {\n            buyer.transferEth(change);\n        }\n    }\n\n    function supportsInterface(bytes4 interfaceId) public view virtual override returns (bool) {\n        return this.supportsInterface(interfaceId);\n    }\n\n}",
  "sourcePath": "/Users/ds/Documents/rarible/protocol-contracts/auction/contracts/1155/AuctionHouse1155.sol",
  "compiler": {
    "name": "solc",
    "version": "0.7.6+commit.7338295f.Emscripten.clang"
  },
  "schemaVersion": "3.4.3",
  "updatedAt": "2022-03-09T21:03:34.394Z",
  "devdoc": {
    "details": "contract to create and interact with auctions",
    "kind": "dev",
    "methods": {
      "buyOut(uint256,(uint256,bytes4,bytes))": {
        "details": "buyout auction if bid satisfies buyout condition"
      },
      "cancel(uint256)": {
        "details": "cancels existing auction without bid"
      },
      "checkAuctionExistence(uint256)": {
        "details": "returns true if auction exists, false otherwise"
      },
      "checkAuctionRangeTime(uint256)": {
        "details": "returns true if auction started and hasn't finished yet, false otherwise"
      },
      "finishAuction(uint256)": {
        "details": "finishes, deletes and transfers all assets for an auction if it's ended (it exists, it has at least one bid, now > endTme)"
      },
      "getCurrentBuyer(uint256)": {
        "details": "returns current highest bidder for an auction"
      },
      "getMinimalNextBid(uint256)": {
        "details": "returns the minimal amount of the next bid (without fees)"
      },
      "owner()": {
        "details": "Returns the address of the current owner."
      },
      "putBid(uint256,(uint256,bytes4,bytes))": {
        "details": "put a bid and return locked assets for the last bid"
      },
      "putBidWrapper(uint256)": {
        "details": "function to call from wrapper to put bid"
      },
      "renounceOwnership()": {
        "details": "Leaves the contract without owner. It will not be possible to call `onlyOwner` functions anymore. Can only be called by the current owner. NOTE: Renouncing ownership will leave the contract without an owner, thereby removing any functionality that is only available to the owner."
      },
      "startAuction(address,uint96,uint256,address,uint96,bytes4,bytes)": {
        "details": "creates an auction and locks sell asset"
      },
      "supportsInterface(bytes4)": {
        "details": "See {IERC165-supportsInterface}. Time complexity O(1), guaranteed to always use less than 30 000 gas."
      },
      "transferOwnership(address)": {
        "details": "Transfers ownership of the contract to a new account (`newOwner`). Can only be called by the current owner."
      },
      "withdrawFaultyBid(address)": {
        "details": "Used to withdraw faulty bids (bids that failed to return after out-bidding)"
      }
    },
    "version": 1
  },
  "userdoc": {
    "kind": "user",
    "methods": {},
    "version": 1
  }
}