{
  "contractName": "RaribleTransferManager",
  "abi": [
    {
      "anonymous": false,
      "inputs": [
        {
          "indexed": true,
          "internalType": "address",
          "name": "previousOwner",
          "type": "address"
        },
        {
          "indexed": true,
          "internalType": "address",
          "name": "newOwner",
          "type": "address"
        }
      ],
      "name": "OwnershipTransferred",
      "type": "event"
    },
    {
      "anonymous": false,
      "inputs": [
        {
          "indexed": true,
          "internalType": "bytes4",
          "name": "assetType",
          "type": "bytes4"
        },
        {
          "indexed": false,
          "internalType": "address",
          "name": "proxy",
          "type": "address"
        }
      ],
      "name": "ProxyChange",
      "type": "event"
    },
    {
      "inputs": [],
      "name": "defaultFeeReceiver",
      "outputs": [
        {
          "internalType": "address",
          "name": "",
          "type": "address"
        }
      ],
      "stateMutability": "view",
      "type": "function"
    },
    {
      "inputs": [
        {
          "internalType": "address",
          "name": "",
          "type": "address"
        }
      ],
      "name": "feeReceivers",
      "outputs": [
        {
          "internalType": "address",
          "name": "",
          "type": "address"
        }
      ],
      "stateMutability": "view",
      "type": "function"
    },
    {
      "inputs": [
        {
          "internalType": "address",
          "name": "token",
          "type": "address"
        }
      ],
      "name": "getFeeReceiver",
      "outputs": [
        {
          "internalType": "address",
          "name": "",
          "type": "address"
        }
      ],
      "stateMutability": "view",
      "type": "function"
    },
    {
      "inputs": [],
      "name": "owner",
      "outputs": [
        {
          "internalType": "address",
          "name": "",
          "type": "address"
        }
      ],
      "stateMutability": "view",
      "type": "function"
    },
    {
      "inputs": [
        {
          "internalType": "uint256",
          "name": "data",
          "type": "uint256"
        }
      ],
      "name": "parseFeeData",
      "outputs": [
        {
          "internalType": "address",
          "name": "",
          "type": "address"
        },
        {
          "internalType": "uint96",
          "name": "",
          "type": "uint96"
        }
      ],
      "stateMutability": "pure",
      "type": "function"
    },
    {
      "inputs": [],
      "name": "renounceOwnership",
      "outputs": [],
      "stateMutability": "nonpayable",
      "type": "function"
    },
    {
      "inputs": [],
      "name": "royaltiesRegistry",
      "outputs": [
        {
          "internalType": "contract IRoyaltiesProvider",
          "name": "",
          "type": "address"
        }
      ],
      "stateMutability": "view",
      "type": "function"
    },
    {
      "inputs": [
        {
          "internalType": "address payable",
          "name": "newDefaultFeeReceiver",
          "type": "address"
        }
      ],
      "name": "setDefaultFeeReceiver",
      "outputs": [],
      "stateMutability": "nonpayable",
      "type": "function"
    },
    {
      "inputs": [
        {
          "internalType": "address",
          "name": "token",
          "type": "address"
        },
        {
          "internalType": "address",
          "name": "wallet",
          "type": "address"
        }
      ],
      "name": "setFeeReceiver",
      "outputs": [],
      "stateMutability": "nonpayable",
      "type": "function"
    },
    {
      "inputs": [
        {
          "internalType": "contract IRoyaltiesProvider",
          "name": "newRoyaltiesRegistry",
          "type": "address"
        }
      ],
      "name": "setRoyaltiesRegistry",
      "outputs": [],
      "stateMutability": "nonpayable",
      "type": "function"
    },
    {
      "inputs": [
        {
          "internalType": "bytes4",
          "name": "assetType",
          "type": "bytes4"
        },
        {
          "internalType": "address",
          "name": "proxy",
          "type": "address"
        }
      ],
      "name": "setTransferProxy",
      "outputs": [],
      "stateMutability": "nonpayable",
      "type": "function"
    },
    {
      "inputs": [
        {
          "internalType": "address",
          "name": "newOwner",
          "type": "address"
        }
      ],
      "name": "transferOwnership",
      "outputs": [],
      "stateMutability": "nonpayable",
      "type": "function"
    }
  ],
  "bytecode": "0x608060405234801561001057600080fd5b506107ac806100206000396000f3fe608060405234801561001057600080fd5b50600436106100b45760003560e01c80636d8f0694116100715780636d8f069414610138578063715018a6146101405780638da5cb5b14610148578063b8bfa00614610150578063e66db25e14610171578063f2fde38b14610184576100b4565b806302097ab1146100b95780631cdfe3d8146100e25780632deafb99146100f757806330c642f11461010a5780633abf6fd41461011d5780633be8992214610125575b600080fd5b6100cc6100c7366004610641565b610197565b6040516100d991906106dd565b60405180910390f35b6100f56100f0366004610641565b6101b2565b005b6100cc610105366004610641565b610236565b6100f561011836600461069c565b610274565b6100cc610344565b6100f5610133366004610641565b610353565b6100cc6103d7565b6100f56103e6565b6100cc610492565b61016361015e3660046106c5565b6104a1565b6040516100d99291906106f1565b6100f561017f366004610664565b6104aa565b6100f5610192366004610641565b61053a565b6067602052600090815260409020546001600160a01b031681565b6101ba61063d565b6001600160a01b03166101cb610492565b6001600160a01b031614610214576040805162461bcd60e51b81526020600482018190526024820152600080516020610757833981519152604482015290519081900360640190fd5b606680546001600160a01b0319166001600160a01b0392909216919091179055565b6001600160a01b03808216600090815260676020526040812054909116801561026057905061026f565b50506066546001600160a01b03165b919050565b61027c61063d565b6001600160a01b031661028d610492565b6001600160a01b0316146102d6576040805162461bcd60e51b81526020600482018190526024820152600080516020610757833981519152604482015290519081900360640190fd5b6001600160e01b0319821660008181526068602090815260409182902080546001600160a01b0319166001600160a01b038616908117909155825190815291517f4b5aced933c0c9a88aeac3f0b3b72c5aaf75df8ebaf53225773248c4c31535939281900390910190a25050565b6066546001600160a01b031681565b61035b61063d565b6001600160a01b031661036c610492565b6001600160a01b0316146103b5576040805162461bcd60e51b81526020600482018190526024820152600080516020610757833981519152604482015290519081900360640190fd5b606580546001600160a01b0319166001600160a01b0392909216919091179055565b6065546001600160a01b031681565b6103ee61063d565b6001600160a01b03166103ff610492565b6001600160a01b031614610448576040805162461bcd60e51b81526020600482018190526024820152600080516020610757833981519152604482015290519081900360640190fd5b6033546040516000916001600160a01b0316907f8be0079c531659141344cd1fd0a4f28419497f9722a3daafe3b4186f6b6457e0908390a3603380546001600160a01b0319169055565b6033546001600160a01b031690565b9060a082901c90565b6104b261063d565b6001600160a01b03166104c3610492565b6001600160a01b03161461050c576040805162461bcd60e51b81526020600482018190526024820152600080516020610757833981519152604482015290519081900360640190fd5b6001600160a01b03918216600090815260676020526040902080546001600160a01b03191691909216179055565b61054261063d565b6001600160a01b0316610553610492565b6001600160a01b03161461059c576040805162461bcd60e51b81526020600482018190526024820152600080516020610757833981519152604482015290519081900360640190fd5b6001600160a01b0381166105e15760405162461bcd60e51b81526004018080602001828103825260268152602001806107316026913960400191505060405180910390fd5b6033546040516001600160a01b038084169216907f8be0079c531659141344cd1fd0a4f28419497f9722a3daafe3b4186f6b6457e090600090a3603380546001600160a01b0319166001600160a01b0392909216919091179055565b3390565b600060208284031215610652578081fd5b813561065d81610718565b9392505050565b60008060408385031215610676578081fd5b823561068181610718565b9150602083013561069181610718565b809150509250929050565b600080604083850312156106ae578182fd5b82356001600160e01b031981168114610681578283fd5b6000602082840312156106d6578081fd5b5035919050565b6001600160a01b0391909116815260200190565b6001600160a01b039290921682526bffffffffffffffffffffffff16602082015260400190565b6001600160a01b038116811461072d57600080fd5b5056fe4f776e61626c653a206e6577206f776e657220697320746865207a65726f20616464726573734f776e61626c653a2063616c6c6572206973206e6f7420746865206f776e6572a26469706673582212209e8f2333888660e414a93d29be602e9051d9398d0f29d3829d18a2a003675cc964736f6c63430007060033",
  "immutableReferences": {},
  "source": "// SPDX-License-Identifier: MIT\n\npragma solidity 0.7.6;\npragma abicoder v2;\n\nimport \"@openzeppelin/contracts-upgradeable/math/SafeMathUpgradeable.sol\";\nimport \"@rarible/lazy-mint/contracts/erc-721/LibERC721LazyMint.sol\";\nimport \"@rarible/lazy-mint/contracts/erc-1155/LibERC1155LazyMint.sol\";\nimport \"@rarible/libraries/contracts/LibFill.sol\";\nimport \"@rarible/libraries/contracts/LibFeeSide.sol\";\nimport \"@rarible/libraries/contracts/LibDeal.sol\";\nimport \"@rarible/exchange-interfaces/contracts/ITransferManager.sol\";\n\nimport \"./TransferExecutor.sol\";\n\ncontract RaribleTransferManager is TransferExecutor, ITransferManager {\n    using BpLibrary for uint;\n    using SafeMathUpgradeable for uint;\n    using LibTransfer for address;\n\n    function __RaribleTransferManager_init(\n        address newDefaultFeeReceiver,\n        IRoyaltiesProvider newRoyaltiesProvider,\n        address transferProxy,\n        address erc20TransferProxy\n    ) internal initializer {\n        __Context_init_unchained();\n        __Ownable_init_unchained();\n        __TransferExecutor_init_unchained();\n        __RaribleTransferManager_init_unchained();\n        __TransferExecutorCore_init_unchained(newDefaultFeeReceiver, newRoyaltiesProvider, transferProxy, erc20TransferProxy);\n    }\n\n    function __RaribleTransferManager_init_unchained() internal initializer {\n    }\n\n    function doTransfers(\n        LibDeal.DealSide memory left,\n        LibDeal.DealSide memory right,\n        LibFeeSide.FeeSide feeSide,\n        uint _protocolFee\n    ) override internal returns (uint totalLeftValue, uint totalRightValue) {\n        totalLeftValue = left.asset.value;\n        totalRightValue = right.asset.value;\n\n        if (feeSide == LibFeeSide.FeeSide.LEFT) {\n            totalLeftValue = doTransfersWithFees(left, right, _protocolFee);\n            transferPayouts(right.asset.assetType, right.asset.value, right.from, left.payouts, right.proxy);\n        } else if (feeSide == LibFeeSide.FeeSide.RIGHT) {\n            totalRightValue = doTransfersWithFees(right, left, _protocolFee);\n            transferPayouts(left.asset.assetType, left.asset.value, left.from, right.payouts, left.proxy);\n        } else {\n            transferPayouts(left.asset.assetType, left.asset.value, left.from, right.payouts, left.proxy);\n            transferPayouts(right.asset.assetType, right.asset.value, right.from, left.payouts, right.proxy);\n        }\n    }\n\n    function doTransfersWithFees(\n        LibDeal.DealSide memory calculateSide,\n        LibDeal.DealSide memory nftSide,\n        uint _protocolFee\n    ) internal returns (uint totalAmount) {\n        totalAmount = calculateTotalAmount(calculateSide.asset.value, _protocolFee, calculateSide.originFees);\n        uint rest = transferProtocolFee(totalAmount, calculateSide.asset.value, calculateSide.from, _protocolFee, _protocolFee, calculateSide.asset.assetType, calculateSide.proxy);\n        rest = transferRoyalties(calculateSide.asset.assetType, nftSide.asset.assetType, rest, calculateSide.asset.value, calculateSide.from, calculateSide.proxy);\n        (rest,) = transferFees(calculateSide.asset.assetType, rest, calculateSide.asset.value, calculateSide.originFees, calculateSide.from, calculateSide.proxy);\n        (rest,) = transferFees(calculateSide.asset.assetType, rest, calculateSide.asset.value, nftSide.originFees, calculateSide.from, calculateSide.proxy);\n        transferPayouts(calculateSide.asset.assetType, rest, calculateSide.from, nftSide.payouts, calculateSide.proxy);\n    }\n\n    function transferProtocolFee(\n        uint totalAmount,\n        uint amount,\n        address from,\n        uint feeSideProtocolFee,\n        uint nftSideProtocolFee,\n        LibAsset.AssetType memory matchCalculate,\n        address proxy\n    ) internal returns (uint) {\n        (uint rest, uint fee) = subFeeInBp(totalAmount, amount, feeSideProtocolFee + nftSideProtocolFee);\n        if (fee > 0) {\n            address tokenAddress = address(0);\n            if (matchCalculate.assetClass == LibAsset.ERC20_ASSET_CLASS) {\n                tokenAddress = abi.decode(matchCalculate.data, (address));\n            } else if (matchCalculate.assetClass == LibAsset.ERC1155_ASSET_CLASS) {\n                uint tokenId;\n                (tokenAddress, tokenId) = abi.decode(matchCalculate.data, (address, uint));\n            }\n            transfer(LibAsset.Asset(matchCalculate, fee), from, getFeeReceiver(tokenAddress), proxy);\n        }\n        return rest;\n    }\n\n    function transferRoyalties(\n        LibAsset.AssetType memory matchCalculate,\n        LibAsset.AssetType memory matchNft,\n        uint rest,\n        uint amount,\n        address from,\n        address proxy\n    ) internal returns (uint) {\n        LibPart.Part[] memory fees = getRoyaltiesByAssetType(matchNft);\n\n        (uint result, uint totalRoyalties) = transferFees(matchCalculate, rest, amount, fees, from, proxy);\n        require(totalRoyalties <= 5000, \"Royalties are too high (>50%)\");\n        return result;\n    }\n\n    function getRoyaltiesByAssetType(LibAsset.AssetType memory matchNft) internal returns (LibPart.Part[] memory) {\n        if (matchNft.assetClass == LibAsset.ERC1155_ASSET_CLASS || matchNft.assetClass == LibAsset.ERC721_ASSET_CLASS) {\n            (address token, uint tokenId) = abi.decode(matchNft.data, (address, uint));\n            return royaltiesRegistry.getRoyalties(token, tokenId);\n        } else if (matchNft.assetClass == LibERC1155LazyMint.ERC1155_LAZY_ASSET_CLASS) {\n            (, LibERC1155LazyMint.Mint1155Data memory data) = abi.decode(matchNft.data, (address, LibERC1155LazyMint.Mint1155Data));\n            return data.royalties;\n        } else if (matchNft.assetClass == LibERC721LazyMint.ERC721_LAZY_ASSET_CLASS) {\n            (, LibERC721LazyMint.Mint721Data memory data) = abi.decode(matchNft.data, (address, LibERC721LazyMint.Mint721Data));\n            return data.royalties;\n        }\n        LibPart.Part[] memory empty;\n        return empty;\n    }\n\n    function transferFees(\n        LibAsset.AssetType memory matchCalculate,\n        uint rest,\n        uint amount,\n        LibPart.Part[] memory fees,\n        address from,\n        address proxy\n    ) internal returns (uint restValue, uint totalFees) {\n        totalFees = 0;\n        restValue = rest;\n        for (uint256 i = 0; i < fees.length; i++) {\n            totalFees = totalFees.add(fees[i].value);\n            (uint newRestValue, uint feeValue) = subFeeInBp(restValue, amount, fees[i].value);\n            restValue = newRestValue;\n            if (feeValue > 0) {\n                transfer(LibAsset.Asset(matchCalculate, feeValue), from, fees[i].account, proxy);\n            }\n        }\n    }\n\n    function transferPayouts(\n        LibAsset.AssetType memory matchCalculate,\n        uint amount,\n        address from,\n        LibPart.Part[] memory payouts,\n        address proxy\n    ) internal {\n        require(payouts.length > 0, \"transferPayouts: nothing to transfer\");\n        uint sumBps = 0;\n        uint restValue = amount;\n        for (uint256 i = 0; i < payouts.length - 1; i++) {\n            uint currentAmount = amount.bp(payouts[i].value);\n            sumBps = sumBps.add(payouts[i].value);\n            if (currentAmount > 0) {\n                restValue = restValue.sub(currentAmount);\n                transfer(LibAsset.Asset(matchCalculate, currentAmount), from, payouts[i].account, proxy);\n            }\n        }\n        LibPart.Part memory lastPayout = payouts[payouts.length - 1];\n        sumBps = sumBps.add(lastPayout.value);\n        require(sumBps == 10000, \"Sum payouts Bps not equal 100%\");\n        if (restValue > 0) {\n            transfer(LibAsset.Asset(matchCalculate, restValue), from, lastPayout.account, proxy);\n        }\n    }\n\n    function calculateTotalAmount(\n        uint amount,\n        uint feeOnTopBp,\n        LibPart.Part[] memory orderOriginFees\n    ) override internal pure returns (uint total) {\n        total = amount.add(amount.bp(feeOnTopBp));\n        for (uint256 i = 0; i < orderOriginFees.length; i++) {\n            total = total.add(amount.bp(orderOriginFees[i].value));\n        }\n    }\n\n    uint256[46] private __gap;\n}\n",
  "sourcePath": "@rarible/transfer-manager/contracts/RaribleTransferManager.sol",
  "compiler": {
    "name": "solc",
    "version": "0.7.6+commit.7338295f.Emscripten.clang"
  },
  "schemaVersion": "3.4.3",
  "updatedAt": "2022-03-09T10:01:50.510Z",
  "devdoc": {
    "kind": "dev",
    "methods": {
      "owner()": {
        "details": "Returns the address of the current owner."
      },
      "renounceOwnership()": {
        "details": "Leaves the contract without owner. It will not be possible to call `onlyOwner` functions anymore. Can only be called by the current owner. NOTE: Renouncing ownership will leave the contract without an owner, thereby removing any functionality that is only available to the owner."
      },
      "transferOwnership(address)": {
        "details": "Transfers ownership of the contract to a new account (`newOwner`). Can only be called by the current owner."
      }
    },
    "version": 1
  },
  "userdoc": {
    "kind": "user",
    "methods": {},
    "version": 1
  }
}