{
  "address": "0xa637cf3a72fc3b711210c930cdf20696bdc97856",
  "abi": [
    {
      "inputs": [
        {
          "internalType": "address",
          "name": "_beacon",
          "type": "address"
        },
        {
          "internalType": "address",
          "name": "_transferProxy",
          "type": "address"
        },
        {
          "internalType": "address",
          "name": "_lazyTransferProxy",
          "type": "address"
        }
      ],
      "stateMutability": "nonpayable",
      "type": "constructor"
    },
    {
      "inputs": [
        {
          "internalType": "address",
          "name": "owner",
          "type": "address"
        }
      ],
      "name": "OwnableInvalidOwner",
      "type": "error"
    },
    {
      "inputs": [
        {
          "internalType": "address",
          "name": "account",
          "type": "address"
        }
      ],
      "name": "OwnableUnauthorizedAccount",
      "type": "error"
    },
    {
      "anonymous": false,
      "inputs": [
        {
          "indexed": false,
          "internalType": "address",
          "name": "proxy",
          "type": "address"
        }
      ],
      "name": "Create1155RaribleProxy",
      "type": "event"
    },
    {
      "anonymous": false,
      "inputs": [
        {
          "indexed": false,
          "internalType": "address",
          "name": "proxy",
          "type": "address"
        }
      ],
      "name": "Create1155RaribleUserProxy",
      "type": "event"
    },
    {
      "anonymous": false,
      "inputs": [
        {
          "indexed": true,
          "internalType": "address",
          "name": "previousOwner",
          "type": "address"
        },
        {
          "indexed": true,
          "internalType": "address",
          "name": "newOwner",
          "type": "address"
        }
      ],
      "name": "OwnershipTransferred",
      "type": "event"
    },
    {
      "inputs": [],
      "name": "beacon",
      "outputs": [
        {
          "internalType": "address",
          "name": "",
          "type": "address"
        }
      ],
      "stateMutability": "view",
      "type": "function"
    },
    {
      "inputs": [
        {
          "internalType": "string",
          "name": "_name",
          "type": "string"
        },
        {
          "internalType": "string",
          "name": "_symbol",
          "type": "string"
        },
        {
          "internalType": "string",
          "name": "baseURI",
          "type": "string"
        },
        {
          "internalType": "string",
          "name": "contractURI",
          "type": "string"
        },
        {
          "internalType": "address[]",
          "name": "operators",
          "type": "address[]"
        },
        {
          "internalType": "address",
          "name": "initialOwner",
          "type": "address"
        },
        {
          "internalType": "uint256",
          "name": "salt",
          "type": "uint256"
        }
      ],
      "name": "createToken",
      "outputs": [],
      "stateMutability": "nonpayable",
      "type": "function"
    },
    {
      "inputs": [
        {
          "internalType": "string",
          "name": "_name",
          "type": "string"
        },
        {
          "internalType": "string",
          "name": "_symbol",
          "type": "string"
        },
        {
          "internalType": "string",
          "name": "baseURI",
          "type": "string"
        },
        {
          "internalType": "string",
          "name": "contractURI",
          "type": "string"
        },
        {
          "internalType": "address",
          "name": "initialOwner",
          "type": "address"
        },
        {
          "internalType": "uint256",
          "name": "salt",
          "type": "uint256"
        }
      ],
      "name": "createToken",
      "outputs": [],
      "stateMutability": "nonpayable",
      "type": "function"
    },
    {
      "inputs": [
        {
          "internalType": "string",
          "name": "_name",
          "type": "string"
        },
        {
          "internalType": "string",
          "name": "_symbol",
          "type": "string"
        },
        {
          "internalType": "string",
          "name": "baseURI",
          "type": "string"
        },
        {
          "internalType": "string",
          "name": "contractURI",
          "type": "string"
        },
        {
          "internalType": "address[]",
          "name": "operators",
          "type": "address[]"
        },
        {
          "internalType": "address",
          "name": "initialOwner",
          "type": "address"
        },
        {
          "internalType": "uint256",
          "name": "_salt",
          "type": "uint256"
        }
      ],
      "name": "getAddress",
      "outputs": [
        {
          "internalType": "address",
          "name": "",
          "type": "address"
        }
      ],
      "stateMutability": "view",
      "type": "function"
    },
    {
      "inputs": [
        {
          "internalType": "string",
          "name": "_name",
          "type": "string"
        },
        {
          "internalType": "string",
          "name": "_symbol",
          "type": "string"
        },
        {
          "internalType": "string",
          "name": "baseURI",
          "type": "string"
        },
        {
          "internalType": "string",
          "name": "contractURI",
          "type": "string"
        },
        {
          "internalType": "address",
          "name": "initialOwner",
          "type": "address"
        },
        {
          "internalType": "uint256",
          "name": "_salt",
          "type": "uint256"
        }
      ],
      "name": "getAddress",
      "outputs": [
        {
          "internalType": "address",
          "name": "",
          "type": "address"
        }
      ],
      "stateMutability": "view",
      "type": "function"
    },
    {
      "inputs": [],
      "name": "owner",
      "outputs": [
        {
          "internalType": "address",
          "name": "",
          "type": "address"
        }
      ],
      "stateMutability": "view",
      "type": "function"
    },
    {
      "inputs": [],
      "name": "renounceOwnership",
      "outputs": [],
      "stateMutability": "nonpayable",
      "type": "function"
    },
    {
      "inputs": [
        {
          "internalType": "address",
          "name": "newOwner",
          "type": "address"
        }
      ],
      "name": "transferOwnership",
      "outputs": [],
      "stateMutability": "nonpayable",
      "type": "function"
    }
  ],
  "contractName": "ERC1155RaribleFactoryC2",
  "sourceName": "@rarible/tokens/contracts/create-2/ERC1155RaribleFactoryC2.sol",
  "bytecode": "0x608060405234801561000f575f5ffd5b5060405161116e38038061116e83398101604081905261002e91610109565b338061005357604051631e4fbdf760e01b81525f600482015260240160405180910390fd5b61005c8161009f565b50600180546001600160a01b039485166001600160a01b031991821617909155600280549385169382169390931790925560038054919093169116179055610149565b5f80546001600160a01b038381166001600160a01b0319831681178455604051919092169283917f8be0079c531659141344cd1fd0a4f28419497f9722a3daafe3b4186f6b6457e09190a35050565b80516001600160a01b0381168114610104575f5ffd5b919050565b5f5f5f6060848603121561011b575f5ffd5b610124846100ee565b9250610132602085016100ee565b9150610140604085016100ee565b90509250925092565b611018806101565f395ff3fe608060405234801561000f575f5ffd5b5060043610610085575f3560e01c80638b588f1a116100585780638b588f1a146100e85780638da5cb5b146100fb578063e725ac421461010b578063f2fde38b1461011e575f5ffd5b806310000e72146100895780632db5bb7c1461009e57806359659e90146100b1578063715018a6146100e0575b5f5ffd5b61009c610097366004610670565b610131565b005b61009c6100ac36600461076f565b610195565b6001546100c4906001600160a01b031681565b6040516001600160a01b03909116815260200160405180910390f35b61009c6101f1565b6100c46100f6366004610670565b610204565b5f546001600160a01b03166100c4565b6100c461011936600461076f565b610267565b61009c61012c366004610842565b6102c3565b5f610149610143898989898989610305565b8361037e565b6040516001600160a01b038216815290915081907f5b961e37212df9fe72e2c84d894099793a4569a883f97d6413c4362e68c644b59060200160405180910390a1505050505050505050565b5f6101a661014388888888886103a7565b6040516001600160a01b038216815290915081907f7d676ffa0eb839c909c4588fca6dd0076b4036f58e821b53b7d754c0e4b9a4d09060200160405180910390a15050505050505050565b6101f961041d565b6102025f610449565b565b5f5f61021c6102178a8a8a8a8a8a610305565b610498565b90505f60ff60f81b308584805190602001206040516020016102419493929190610862565b60408051808303601f1901815291905280516020909101209a9950505050505050505050565b5f5f61027961021789898989896103a7565b90505f60ff60f81b3085848051906020012060405160200161029e9493929190610862565b60408051808303601f1901815291905280516020909101209998505050505050505050565b6102cb61041d565b6001600160a01b0381166102f957604051631e4fbdf760e01b81525f60048201526024015b60405180910390fd5b61030281610449565b50565b60025460035460405160609262e8597960e01b92610340928b928b928b928b928b926001600160a01b03918216929116908b906024016108c9565b60408051601f198184030181529190526020810180516001600160e01b03166001600160e01b03199093169290921790915290509695505050505050565b5f5f61038984610498565b9050828151602083015ff59150813b6103a0575f5ffd5b5092915050565b60025460035460405160609263c67b435f60e01b926103e0928a928a928a928a926001600160a01b039081169216908a9060240161099d565b60408051601f198184030181529190526020810180516001600160e01b03166001600160e01b031990931692909217909152905095945050505050565b5f546001600160a01b031633146102025760405163118cdaa760e01b81523360048201526024016102f0565b5f80546001600160a01b038381166001600160a01b0319831681178455604051919092169283917f8be0079c531659141344cd1fd0a4f28419497f9722a3daafe3b4186f6b6457e09190a35050565b6060604051806020016104aa90610510565b601f1982820381018352601f9091011660408190526001546104dc916001600160a01b03909116908590602001610a16565b60408051601f19818403018152908290526104fa9291602001610a58565b6040516020818303038152906040529050919050565b61057680610a6d83390190565b634e487b7160e01b5f52604160045260245ffd5b604051601f8201601f1916810167ffffffffffffffff8111828210171561055a5761055a61051d565b604052919050565b5f82601f830112610571575f5ffd5b813567ffffffffffffffff81111561058b5761058b61051d565b61059e601f8201601f1916602001610531565b8181528460208386010111156105b2575f5ffd5b816020850160208301375f918101602001919091529392505050565b80356001600160a01b03811681146105e4575f5ffd5b919050565b5f82601f8301126105f8575f5ffd5b813567ffffffffffffffff8111156106125761061261051d565b8060051b61062260208201610531565b9182526020818501810192908101908684111561063d575f5ffd5b6020860192505b8383101561066657610655836105ce565b825260209283019290910190610644565b9695505050505050565b5f5f5f5f5f5f5f60e0888a031215610686575f5ffd5b873567ffffffffffffffff81111561069c575f5ffd5b6106a88a828b01610562565b975050602088013567ffffffffffffffff8111156106c4575f5ffd5b6106d08a828b01610562565b965050604088013567ffffffffffffffff8111156106ec575f5ffd5b6106f88a828b01610562565b955050606088013567ffffffffffffffff811115610714575f5ffd5b6107208a828b01610562565b945050608088013567ffffffffffffffff81111561073c575f5ffd5b6107488a828b016105e9565b93505061075760a089016105ce565b96999598509396929591949193505060c09091013590565b5f5f5f5f5f5f60c08789031215610784575f5ffd5b863567ffffffffffffffff81111561079a575f5ffd5b6107a689828a01610562565b965050602087013567ffffffffffffffff8111156107c2575f5ffd5b6107ce89828a01610562565b955050604087013567ffffffffffffffff8111156107ea575f5ffd5b6107f689828a01610562565b945050606087013567ffffffffffffffff811115610812575f5ffd5b61081e89828a01610562565b93505061082d608088016105ce565b9598949750929591949360a090920135925050565b5f60208284031215610852575f5ffd5b61085b826105ce565b9392505050565b6001600160f81b031994909416845260609290921b6bffffffffffffffffffffffff191660018401526015830152603582015260550190565b5f81518084528060208401602086015e5f602082860101526020601f19601f83011685010191505092915050565b61010081525f6108dd61010083018b61089b565b82810360208401526108ef818b61089b565b90508281036040840152610903818a61089b565b90508281036060840152610917818961089b565b838103608085015287518082526020808a019350909101905f5b818110156109585783516001600160a01b0316835260209384019390920191600101610931565b50506001600160a01b03871660a085015291506109729050565b6001600160a01b03841660c08301526001600160a01b03831660e08301529998505050505050505050565b60e081525f6109af60e083018a61089b565b82810360208401526109c1818a61089b565b905082810360408401526109d5818961089b565b905082810360608401526109e9818861089b565b6001600160a01b03968716608085015294861660a08401525050921660c090920191909152949350505050565b6001600160a01b03831681526040602082018190525f90610a399083018461089b565b949350505050565b5f81518060208401855e5f93019283525090919050565b5f610a39610a668386610a41565b84610a4156fe60a060405260405161057638038061057683398101604081905261002291610353565b61002c828261003e565b506001600160a01b0316608052610444565b610047826100fb565b6040516001600160a01b038316907f1cf3b03a6cf19fa2baba4df148e9dcabedea7f8a5c07840e207e5c089be95d3e905f90a28051156100ef576100ea826001600160a01b0316635c60da1b6040518163ffffffff1660e01b8152600401602060405180830381865afa1580156100c0573d5f5f3e3d5ffd5b505050506040513d601f19601f820116820180604052508101906100e49190610415565b82610209565b505050565b6100f761027c565b5050565b806001600160a01b03163b5f0361013557604051631933b43b60e21b81526001600160a01b03821660048201526024015b60405180910390fd5b807fa3f0ad74e5423aebfd80d3ef4346578335a9a72aeaee59ff6cb3582b35133d5080546001600160a01b0319166001600160a01b0392831617905560408051635c60da1b60e01b815290515f92841691635c60da1b9160048083019260209291908290030181865afa1580156101ae573d5f5f3e3d5ffd5b505050506040513d601f19601f820116820180604052508101906101d29190610415565b9050806001600160a01b03163b5f036100f757604051634c9c8ce360e01b81526001600160a01b038216600482015260240161012c565b60605f5f846001600160a01b031684604051610225919061042e565b5f60405180830381855af49150503d805f811461025d576040519150601f19603f3d011682016040523d82523d5f602084013e610262565b606091505b50909250905061027385838361029d565b95945050505050565b341561029b5760405163b398979f60e01b815260040160405180910390fd5b565b6060826102b2576102ad826102fc565b6102f5565b81511580156102c957506001600160a01b0384163b155b156102f257604051639996b31560e01b81526001600160a01b038516600482015260240161012c565b50805b9392505050565b80511561030b57805160208201fd5b60405163d6bda27560e01b815260040160405180910390fd5b80516001600160a01b038116811461033a575f5ffd5b919050565b634e487b7160e01b5f52604160045260245ffd5b5f5f60408385031215610364575f5ffd5b61036d83610324565b60208401519092506001600160401b03811115610388575f5ffd5b8301601f81018513610398575f5ffd5b80516001600160401b038111156103b1576103b161033f565b604051601f8201601f19908116603f011681016001600160401b03811182821017156103df576103df61033f565b6040528181528282016020018710156103f6575f5ffd5b8160208401602083015e5f602083830101528093505050509250929050565b5f60208284031215610425575f5ffd5b6102f582610324565b5f82518060208501845e5f920191825250919050565b60805161011b61045b5f395f601d015261011b5ff3fe6080604052600a600c565b005b60186014601a565b609d565b565b5f7f00000000000000000000000000000000000000000000000000000000000000006001600160a01b0316635c60da1b6040518163ffffffff1660e01b8152600401602060405180830381865afa1580156076573d5f5f3e3d5ffd5b505050506040513d601f19601f820116820180604052508101906098919060ba565b905090565b365f5f375f5f365f845af43d5f5f3e80801560b6573d5ff35b3d5ffd5b5f6020828403121560c9575f5ffd5b81516001600160a01b038116811460de575f5ffd5b939250505056fea26469706673582212203693ee4c5478eb512e5e002fdadeda69c8ab38dff5daa106d1bb548f68e509ba64736f6c634300081e0033a2646970667358221220c55136843cc377dbf202a4f65edfc5236393e007920f445c79f007de12d6900964736f6c634300081e0033",
  "linkReferences": {},
  "deployedLinkReferences": {},
  "immutableReferences": {},
  "inputSourceName": "npm/@rarible/tokens@local/contracts/create-2/ERC1155RaribleFactoryC2.sol",
  "devdoc": {
    "details": "This contract is for creating proxy to access ERC1155Rarible token. The beacon should be initialized before call ERC1155RaribleFactoryC2 constructor.",
    "errors": {
      "OwnableInvalidOwner(address)": [
        {
          "details": "The owner is not a valid owner account. (eg. `address(0)`)"
        }
      ],
      "OwnableUnauthorizedAccount(address)": [
        {
          "details": "The caller account is not authorized to perform an operation."
        }
      ]
    },
    "kind": "dev",
    "methods": {
      "owner()": {
        "details": "Returns the address of the current owner."
      },
      "renounceOwnership()": {
        "details": "Leaves the contract without owner. It will not be possible to call `onlyOwner` functions. Can only be called by the current owner. NOTE: Renouncing ownership will leave the contract without an owner, thereby disabling any functionality that is only available to the owner."
      },
      "transferOwnership(address)": {
        "details": "Transfers ownership of the contract to a new account (`newOwner`). Can only be called by the current owner."
      }
    },
    "version": 1
  },
  "evm": {
    "gasEstimates": {
      "creation": {
        "codeDepositCost": "824000",
        "executionCost": "infinite",
        "totalCost": "infinite"
      },
      "external": {
        "beacon()": "2369",
        "createToken(string,string,string,string,address,uint256)": "infinite",
        "createToken(string,string,string,string,address[],address,uint256)": "infinite",
        "getAddress(string,string,string,string,address,uint256)": "infinite",
        "getAddress(string,string,string,string,address[],address,uint256)": "infinite",
        "owner()": "2339",
        "renounceOwnership()": "infinite",
        "transferOwnership(address)": "28395"
      },
      "internal": {
        "deployProxy(bytes memory,uint256)": "infinite",
        "getCreationBytecode(bytes memory)": "infinite",
        "getData(string memory,string memory,string memory,string memory,address)": "infinite",
        "getData(string memory,string memory,string memory,string memory,address[] memory,address)": "infinite"
      }
    }
  },
  "storageLayout": {
    "storage": [
      {
        "astId": 901,
        "contract": "npm/@rarible/tokens@local/contracts/create-2/ERC1155RaribleFactoryC2.sol:ERC1155RaribleFactoryC2",
        "label": "_owner",
        "offset": 0,
        "slot": "0",
        "type": "t_address"
      },
      {
        "astId": 9054,
        "contract": "npm/@rarible/tokens@local/contracts/create-2/ERC1155RaribleFactoryC2.sol:ERC1155RaribleFactoryC2",
        "label": "beacon",
        "offset": 0,
        "slot": "1",
        "type": "t_address"
      },
      {
        "astId": 9056,
        "contract": "npm/@rarible/tokens@local/contracts/create-2/ERC1155RaribleFactoryC2.sol:ERC1155RaribleFactoryC2",
        "label": "transferProxy",
        "offset": 0,
        "slot": "2",
        "type": "t_address"
      },
      {
        "astId": 9058,
        "contract": "npm/@rarible/tokens@local/contracts/create-2/ERC1155RaribleFactoryC2.sol:ERC1155RaribleFactoryC2",
        "label": "lazyTransferProxy",
        "offset": 0,
        "slot": "3",
        "type": "t_address"
      }
    ],
    "types": {
      "t_address": {
        "encoding": "inplace",
        "label": "address",
        "numberOfBytes": "20"
      }
    }
  },
  "userdoc": {
    "kind": "user",
    "methods": {},
    "version": 1
  },
  "argsData": "0x000000000000000000000000e31d6d9547f24e5e6e506ccaed17f27d5b329c620000000000000000000000001d3f902a19cb77ba4c1f077707946a6f4e8eb05a0000000000000000000000008886d4512bc65bc3f262169c3640556201322f28",
  "transaction": {
    "nonce": "0x385",
    "hash": "0xc7413533d080663eaec336178725dcdceaf7ae2b7e5d43dbc28aeaa3d58b6495",
    "origin": "0xfb571f9da71d1ac33e069571bf5c67fadcff18e4"
  }
}