{
  "address": "0xcb1cd2fc1355eeb4f3e3c15cd364aa6d33ad9982",
  "abi": [
    {
      "inputs": [],
      "name": "InvalidInitialization",
      "type": "error"
    },
    {
      "inputs": [],
      "name": "NotInitializing",
      "type": "error"
    },
    {
      "inputs": [
        {
          "internalType": "address",
          "name": "owner",
          "type": "address"
        }
      ],
      "name": "OwnableInvalidOwner",
      "type": "error"
    },
    {
      "inputs": [
        {
          "internalType": "address",
          "name": "account",
          "type": "address"
        }
      ],
      "name": "OwnableUnauthorizedAccount",
      "type": "error"
    },
    {
      "anonymous": false,
      "inputs": [
        {
          "indexed": false,
          "internalType": "uint64",
          "name": "version",
          "type": "uint64"
        }
      ],
      "name": "Initialized",
      "type": "event"
    },
    {
      "anonymous": false,
      "inputs": [
        {
          "indexed": true,
          "internalType": "address",
          "name": "previousOwner",
          "type": "address"
        },
        {
          "indexed": true,
          "internalType": "address",
          "name": "newOwner",
          "type": "address"
        }
      ],
      "name": "OwnershipTransferred",
      "type": "event"
    },
    {
      "inputs": [
        {
          "internalType": "address",
          "name": "owner",
          "type": "address"
        }
      ],
      "name": "__ERC20TransferProxy_init",
      "outputs": [],
      "stateMutability": "nonpayable",
      "type": "function"
    },
    {
      "inputs": [
        {
          "internalType": "address",
          "name": "initialOwner",
          "type": "address"
        }
      ],
      "name": "__OperatorRole_init",
      "outputs": [],
      "stateMutability": "nonpayable",
      "type": "function"
    },
    {
      "inputs": [
        {
          "internalType": "address",
          "name": "operator",
          "type": "address"
        }
      ],
      "name": "addOperator",
      "outputs": [],
      "stateMutability": "nonpayable",
      "type": "function"
    },
    {
      "inputs": [
        {
          "internalType": "contract IERC20",
          "name": "token",
          "type": "address"
        },
        {
          "internalType": "address",
          "name": "from",
          "type": "address"
        },
        {
          "internalType": "address",
          "name": "to",
          "type": "address"
        },
        {
          "internalType": "uint256",
          "name": "value",
          "type": "uint256"
        }
      ],
      "name": "erc20safeTransferFrom",
      "outputs": [],
      "stateMutability": "nonpayable",
      "type": "function"
    },
    {
      "inputs": [],
      "name": "owner",
      "outputs": [
        {
          "internalType": "address",
          "name": "",
          "type": "address"
        }
      ],
      "stateMutability": "view",
      "type": "function"
    },
    {
      "inputs": [
        {
          "internalType": "address",
          "name": "operator",
          "type": "address"
        }
      ],
      "name": "removeOperator",
      "outputs": [],
      "stateMutability": "nonpayable",
      "type": "function"
    },
    {
      "inputs": [],
      "name": "renounceOwnership",
      "outputs": [],
      "stateMutability": "nonpayable",
      "type": "function"
    },
    {
      "inputs": [
        {
          "internalType": "address",
          "name": "newOwner",
          "type": "address"
        }
      ],
      "name": "transferOwnership",
      "outputs": [],
      "stateMutability": "nonpayable",
      "type": "function"
    }
  ],
  "contractName": "ERC20TransferProxy",
  "sourceName": "@rarible/transfer-proxy/contracts/proxy/ERC20TransferProxy.sol",
  "bytecode": "0x6080604052348015600e575f5ffd5b5060156019565b60c9565b7ff0c57e16840df040f15088dc2f81fe391c3923bec73e23a9662efc9c229c6a00805468010000000000000000900460ff161560685760405163f92ee8a960e01b815260040160405180910390fd5b80546001600160401b039081161460c65780546001600160401b0319166001600160401b0390811782556040519081527fc7f505b2f371ae2175ee4913f4499e1f2633a7b5936321eed1cdaeb6115181d29060200160405180910390a15b50565b610708806100d65f395ff3fe608060405234801561000f575f5ffd5b5060043610610085575f3560e01c80639870d7fe116100585780639870d7fe146100f7578063ac8a584a1461010a578063c66510251461011d578063f2fde38b14610130575f5ffd5b80636fc25a3114610089578063715018a61461009e578063776062c3146100a65780638da5cb5b146100b9575b5f5ffd5b61009c610097366004610643565b610143565b005b61009c610259565b61009c6100b4366004610665565b61026c565b7f9016d09d72d40fdae2fd8ceac6b6234c7706214fd39c1cd1e609a0528c19930054604080516001600160a01b039092168252519081900360200190f35b61009c610105366004610643565b6103aa565b61009c610118366004610643565b6103d5565b61009c61012b366004610643565b6103fd565b61009c61013e366004610643565b6104bd565b7ff0c57e16840df040f15088dc2f81fe391c3923bec73e23a9662efc9c229c6a008054600160401b810460ff16159067ffffffffffffffff165f811580156101885750825b90505f8267ffffffffffffffff1660011480156101a45750303b155b9050811580156101b2575080155b156101d05760405163f92ee8a960e01b815260040160405180910390fd5b845467ffffffffffffffff1916600117855583156101fa57845460ff60401b1916600160401b1785555b6102026104fa565b61020b86610502565b831561025157845460ff60401b19168555604051600181527fc7f505b2f371ae2175ee4913f4499e1f2633a7b5936321eed1cdaeb6115181d29060200160405180910390a15b505050505050565b61026161050a565b61026a5f610565565b565b335f9081526020819052604090205460ff166102e05760405162461bcd60e51b815260206004820152602860248201527f4f70657261746f72526f6c653a2063616c6c6572206973206e6f74207468652060448201526737b832b930ba37b960c11b60648201526084015b60405180910390fd5b6040516323b872dd60e01b81526001600160a01b0384811660048301528381166024830152604482018390528516906323b872dd906064016020604051808303815f875af1158015610334573d5f5f3e3d5ffd5b505050506040513d601f19601f8201168201806040525081019061035891906106b3565b6103a45760405162461bcd60e51b815260206004820152601a60248201527f6661696c757265207768696c65207472616e7366657272696e6700000000000060448201526064016102d7565b50505050565b6103b261050a565b6001600160a01b03165f908152602081905260409020805460ff19166001179055565b6103dd61050a565b6001600160a01b03165f908152602081905260409020805460ff19169055565b7ff0c57e16840df040f15088dc2f81fe391c3923bec73e23a9662efc9c229c6a008054600160401b810460ff16159067ffffffffffffffff165f811580156104425750825b90505f8267ffffffffffffffff16600114801561045e5750303b155b90508115801561046c575080155b1561048a5760405163f92ee8a960e01b815260040160405180910390fd5b845467ffffffffffffffff1916600117855583156104b457845460ff60401b1916600160401b1785555b61020b866105d5565b6104c561050a565b6001600160a01b0381166104ee57604051631e4fbdf760e01b81525f60048201526024016102d7565b6104f781610565565b50565b61026a6105e6565b6104c56105e6565b3361053c7f9016d09d72d40fdae2fd8ceac6b6234c7706214fd39c1cd1e609a0528c199300546001600160a01b031690565b6001600160a01b03161461026a5760405163118cdaa760e01b81523360048201526024016102d7565b7f9016d09d72d40fdae2fd8ceac6b6234c7706214fd39c1cd1e609a0528c19930080546001600160a01b031981166001600160a01b03848116918217845560405192169182907f8be0079c531659141344cd1fd0a4f28419497f9722a3daafe3b4186f6b6457e0905f90a3505050565b6105dd6105e6565b6104f781610502565b7ff0c57e16840df040f15088dc2f81fe391c3923bec73e23a9662efc9c229c6a0054600160401b900460ff1661026a57604051631afcd79f60e31b815260040160405180910390fd5b6001600160a01b03811681146104f7575f5ffd5b5f60208284031215610653575f5ffd5b813561065e8161062f565b9392505050565b5f5f5f5f60808587031215610678575f5ffd5b84356106838161062f565b935060208501356106938161062f565b925060408501356106a38161062f565b9396929550929360600135925050565b5f602082840312156106c3575f5ffd5b8151801515811461065e575f5ffdfea26469706673582212204e415c251dade85eafbf444591b5658c776869978bb4044fae5ba7dc235b41c664736f6c634300081e0033",
  "linkReferences": {},
  "deployedLinkReferences": {},
  "immutableReferences": {},
  "inputSourceName": "npm/@rarible/transfer-proxy@local/contracts/proxy/ERC20TransferProxy.sol",
  "devdoc": {
    "errors": {
      "InvalidInitialization()": [
        {
          "details": "The contract is already initialized."
        }
      ],
      "NotInitializing()": [
        {
          "details": "The contract is not initializing."
        }
      ],
      "OwnableInvalidOwner(address)": [
        {
          "details": "The owner is not a valid owner account. (eg. `address(0)`)"
        }
      ],
      "OwnableUnauthorizedAccount(address)": [
        {
          "details": "The caller account is not authorized to perform an operation."
        }
      ]
    },
    "events": {
      "Initialized(uint64)": {
        "details": "Triggered when the contract has been initialized or reinitialized."
      }
    },
    "kind": "dev",
    "methods": {
      "owner()": {
        "details": "Returns the address of the current owner."
      },
      "renounceOwnership()": {
        "details": "Leaves the contract without owner. It will not be possible to call `onlyOwner` functions. Can only be called by the current owner. NOTE: Renouncing ownership will leave the contract without an owner, thereby disabling any functionality that is only available to the owner."
      },
      "transferOwnership(address)": {
        "details": "Transfers ownership of the contract to a new account (`newOwner`). Can only be called by the current owner."
      }
    },
    "version": 1
  },
  "evm": {
    "gasEstimates": {
      "creation": {
        "codeDepositCost": "360000",
        "executionCost": "30021",
        "totalCost": "390021"
      },
      "external": {
        "__ERC20TransferProxy_init(address)": "infinite",
        "__OperatorRole_init(address)": "infinite",
        "addOperator(address)": "26801",
        "erc20safeTransferFrom(address,address,address,uint256)": "infinite",
        "owner()": "2358",
        "removeOperator(address)": "26817",
        "renounceOwnership()": "infinite",
        "transferOwnership(address)": "infinite"
      }
    }
  },
  "storageLayout": {
    "storage": [
      {
        "astId": 15781,
        "contract": "npm/@rarible/transfer-proxy@local/contracts/proxy/ERC20TransferProxy.sol:ERC20TransferProxy",
        "label": "operators",
        "offset": 0,
        "slot": "0",
        "type": "t_mapping(t_address,t_bool)"
      }
    ],
    "types": {
      "t_address": {
        "encoding": "inplace",
        "label": "address",
        "numberOfBytes": "20"
      },
      "t_bool": {
        "encoding": "inplace",
        "label": "bool",
        "numberOfBytes": "1"
      },
      "t_mapping(t_address,t_bool)": {
        "encoding": "mapping",
        "key": "t_address",
        "label": "mapping(address => bool)",
        "numberOfBytes": "32",
        "value": "t_bool"
      }
    }
  },
  "userdoc": {
    "kind": "user",
    "methods": {},
    "version": 1
  },
  "argsData": "0x",
  "transaction": {
    "hash": "0x01644685369ee8cc7aac54c1f44f49012e918e5900a6bee7e6e1d6de6795c4c5",
    "nonce": "0x36c",
    "origin": "0xfb571f9da71d1ac33e069571bf5c67fadcff18e4"
  }
}