{
  "address": "0x8afdfcfa471f42a5af5a5e12b76c6358292cda7e",
  "abi": [
    {
      "inputs": [],
      "name": "ECDSAInvalidSignature",
      "type": "error"
    },
    {
      "inputs": [
        {
          "internalType": "uint256",
          "name": "length",
          "type": "uint256"
        }
      ],
      "name": "ECDSAInvalidSignatureLength",
      "type": "error"
    },
    {
      "inputs": [
        {
          "internalType": "bytes32",
          "name": "s",
          "type": "bytes32"
        }
      ],
      "name": "ECDSAInvalidSignatureS",
      "type": "error"
    },
    {
      "inputs": [],
      "name": "InvalidInitialization",
      "type": "error"
    },
    {
      "inputs": [],
      "name": "NotInitializing",
      "type": "error"
    },
    {
      "inputs": [
        {
          "internalType": "address",
          "name": "owner",
          "type": "address"
        }
      ],
      "name": "OwnableInvalidOwner",
      "type": "error"
    },
    {
      "inputs": [
        {
          "internalType": "address",
          "name": "account",
          "type": "address"
        }
      ],
      "name": "OwnableUnauthorizedAccount",
      "type": "error"
    },
    {
      "anonymous": false,
      "inputs": [
        {
          "indexed": true,
          "internalType": "address",
          "name": "owner",
          "type": "address"
        },
        {
          "indexed": true,
          "internalType": "address",
          "name": "approved",
          "type": "address"
        },
        {
          "indexed": true,
          "internalType": "uint256",
          "name": "tokenId",
          "type": "uint256"
        }
      ],
      "name": "Approval",
      "type": "event"
    },
    {
      "anonymous": false,
      "inputs": [
        {
          "indexed": true,
          "internalType": "address",
          "name": "owner",
          "type": "address"
        },
        {
          "indexed": true,
          "internalType": "address",
          "name": "operator",
          "type": "address"
        },
        {
          "indexed": false,
          "internalType": "bool",
          "name": "approved",
          "type": "bool"
        }
      ],
      "name": "ApprovalForAll",
      "type": "event"
    },
    {
      "anonymous": false,
      "inputs": [
        {
          "indexed": false,
          "internalType": "string",
          "name": "newBaseURI",
          "type": "string"
        }
      ],
      "name": "BaseUriChanged",
      "type": "event"
    },
    {
      "anonymous": false,
      "inputs": [
        {
          "indexed": false,
          "internalType": "address",
          "name": "owner",
          "type": "address"
        },
        {
          "indexed": false,
          "internalType": "string",
          "name": "name",
          "type": "string"
        },
        {
          "indexed": false,
          "internalType": "string",
          "name": "symbol",
          "type": "string"
        }
      ],
      "name": "CreateERC721Rarible",
      "type": "event"
    },
    {
      "anonymous": false,
      "inputs": [
        {
          "indexed": false,
          "internalType": "address",
          "name": "owner",
          "type": "address"
        },
        {
          "indexed": false,
          "internalType": "string",
          "name": "name",
          "type": "string"
        },
        {
          "indexed": false,
          "internalType": "string",
          "name": "symbol",
          "type": "string"
        }
      ],
      "name": "CreateERC721RaribleUser",
      "type": "event"
    },
    {
      "anonymous": false,
      "inputs": [
        {
          "indexed": false,
          "internalType": "uint256",
          "name": "tokenId",
          "type": "uint256"
        },
        {
          "components": [
            {
              "internalType": "address payable",
              "name": "account",
              "type": "address"
            },
            {
              "internalType": "uint96",
              "name": "value",
              "type": "uint96"
            }
          ],
          "indexed": false,
          "internalType": "struct LibPart.Part[]",
          "name": "creators",
          "type": "tuple[]"
        }
      ],
      "name": "Creators",
      "type": "event"
    },
    {
      "anonymous": false,
      "inputs": [
        {
          "indexed": true,
          "internalType": "address",
          "name": "operator",
          "type": "address"
        },
        {
          "indexed": false,
          "internalType": "bool",
          "name": "hasApproval",
          "type": "bool"
        }
      ],
      "name": "DefaultApproval",
      "type": "event"
    },
    {
      "anonymous": false,
      "inputs": [],
      "name": "EIP712DomainChanged",
      "type": "event"
    },
    {
      "anonymous": false,
      "inputs": [
        {
          "indexed": false,
          "internalType": "uint64",
          "name": "version",
          "type": "uint64"
        }
      ],
      "name": "Initialized",
      "type": "event"
    },
    {
      "anonymous": false,
      "inputs": [
        {
          "indexed": true,
          "internalType": "address",
          "name": "minter",
          "type": "address"
        },
        {
          "indexed": true,
          "internalType": "bool",
          "name": "status",
          "type": "bool"
        }
      ],
      "name": "MinterStatusChanged",
      "type": "event"
    },
    {
      "anonymous": false,
      "inputs": [
        {
          "indexed": true,
          "internalType": "address",
          "name": "previousOwner",
          "type": "address"
        },
        {
          "indexed": true,
          "internalType": "address",
          "name": "newOwner",
          "type": "address"
        }
      ],
      "name": "OwnershipTransferred",
      "type": "event"
    },
    {
      "anonymous": false,
      "inputs": [
        {
          "indexed": false,
          "internalType": "uint256",
          "name": "tokenId",
          "type": "uint256"
        },
        {
          "components": [
            {
              "internalType": "address payable",
              "name": "account",
              "type": "address"
            },
            {
              "internalType": "uint96",
              "name": "value",
              "type": "uint96"
            }
          ],
          "indexed": false,
          "internalType": "struct LibPart.Part[]",
          "name": "royalties",
          "type": "tuple[]"
        }
      ],
      "name": "RoyaltiesSet",
      "type": "event"
    },
    {
      "anonymous": false,
      "inputs": [
        {
          "indexed": true,
          "internalType": "address",
          "name": "from",
          "type": "address"
        },
        {
          "indexed": true,
          "internalType": "address",
          "name": "to",
          "type": "address"
        },
        {
          "indexed": true,
          "internalType": "uint256",
          "name": "tokenId",
          "type": "uint256"
        }
      ],
      "name": "Transfer",
      "type": "event"
    },
    {
      "inputs": [
        {
          "internalType": "string",
          "name": "_name",
          "type": "string"
        },
        {
          "internalType": "string",
          "name": "_symbol",
          "type": "string"
        },
        {
          "internalType": "string",
          "name": "baseURI",
          "type": "string"
        },
        {
          "internalType": "string",
          "name": "contractURI",
          "type": "string"
        },
        {
          "internalType": "address[]",
          "name": "operators",
          "type": "address[]"
        },
        {
          "internalType": "address",
          "name": "transferProxy",
          "type": "address"
        },
        {
          "internalType": "address",
          "name": "lazyTransferProxy",
          "type": "address"
        },
        {
          "internalType": "address",
          "name": "initialOwner",
          "type": "address"
        }
      ],
      "name": "__ERC721RaribleUser_init",
      "outputs": [],
      "stateMutability": "nonpayable",
      "type": "function"
    },
    {
      "inputs": [
        {
          "internalType": "string",
          "name": "_name",
          "type": "string"
        },
        {
          "internalType": "string",
          "name": "_symbol",
          "type": "string"
        },
        {
          "internalType": "string",
          "name": "baseURI",
          "type": "string"
        },
        {
          "internalType": "string",
          "name": "contractURI",
          "type": "string"
        },
        {
          "internalType": "address",
          "name": "transferProxy",
          "type": "address"
        },
        {
          "internalType": "address",
          "name": "lazyTransferProxy",
          "type": "address"
        },
        {
          "internalType": "address",
          "name": "initialOwner",
          "type": "address"
        }
      ],
      "name": "__ERC721Rarible_init",
      "outputs": [],
      "stateMutability": "nonpayable",
      "type": "function"
    },
    {
      "inputs": [
        {
          "internalType": "address",
          "name": "minter",
          "type": "address"
        }
      ],
      "name": "addMinter",
      "outputs": [],
      "stateMutability": "nonpayable",
      "type": "function"
    },
    {
      "inputs": [
        {
          "internalType": "address[]",
          "name": "minters",
          "type": "address[]"
        }
      ],
      "name": "addMinters",
      "outputs": [],
      "stateMutability": "nonpayable",
      "type": "function"
    },
    {
      "inputs": [
        {
          "internalType": "address",
          "name": "to",
          "type": "address"
        },
        {
          "internalType": "uint256",
          "name": "tokenId",
          "type": "uint256"
        }
      ],
      "name": "approve",
      "outputs": [],
      "stateMutability": "nonpayable",
      "type": "function"
    },
    {
      "inputs": [
        {
          "internalType": "address",
          "name": "owner",
          "type": "address"
        }
      ],
      "name": "balanceOf",
      "outputs": [
        {
          "internalType": "uint256",
          "name": "",
          "type": "uint256"
        }
      ],
      "stateMutability": "view",
      "type": "function"
    },
    {
      "inputs": [],
      "name": "baseURI",
      "outputs": [
        {
          "internalType": "string",
          "name": "",
          "type": "string"
        }
      ],
      "stateMutability": "view",
      "type": "function"
    },
    {
      "inputs": [
        {
          "internalType": "uint256",
          "name": "tokenId",
          "type": "uint256"
        }
      ],
      "name": "burn",
      "outputs": [],
      "stateMutability": "nonpayable",
      "type": "function"
    },
    {
      "inputs": [],
      "name": "contractURI",
      "outputs": [
        {
          "internalType": "string",
          "name": "",
          "type": "string"
        }
      ],
      "stateMutability": "view",
      "type": "function"
    },
    {
      "inputs": [],
      "name": "eip712Domain",
      "outputs": [
        {
          "internalType": "bytes1",
          "name": "fields",
          "type": "bytes1"
        },
        {
          "internalType": "string",
          "name": "name",
          "type": "string"
        },
        {
          "internalType": "string",
          "name": "version",
          "type": "string"
        },
        {
          "internalType": "uint256",
          "name": "chainId",
          "type": "uint256"
        },
        {
          "internalType": "address",
          "name": "verifyingContract",
          "type": "address"
        },
        {
          "internalType": "bytes32",
          "name": "salt",
          "type": "bytes32"
        },
        {
          "internalType": "uint256[]",
          "name": "extensions",
          "type": "uint256[]"
        }
      ],
      "stateMutability": "view",
      "type": "function"
    },
    {
      "inputs": [
        {
          "internalType": "uint256",
          "name": "tokenId",
          "type": "uint256"
        }
      ],
      "name": "getApproved",
      "outputs": [
        {
          "internalType": "address",
          "name": "",
          "type": "address"
        }
      ],
      "stateMutability": "view",
      "type": "function"
    },
    {
      "inputs": [
        {
          "internalType": "uint256",
          "name": "_id",
          "type": "uint256"
        }
      ],
      "name": "getCreators",
      "outputs": [
        {
          "components": [
            {
              "internalType": "address payable",
              "name": "account",
              "type": "address"
            },
            {
              "internalType": "uint96",
              "name": "value",
              "type": "uint96"
            }
          ],
          "internalType": "struct LibPart.Part[]",
          "name": "",
          "type": "tuple[]"
        }
      ],
      "stateMutability": "view",
      "type": "function"
    },
    {
      "inputs": [
        {
          "internalType": "uint256",
          "name": "id",
          "type": "uint256"
        }
      ],
      "name": "getRaribleV2Royalties",
      "outputs": [
        {
          "components": [
            {
              "internalType": "address payable",
              "name": "account",
              "type": "address"
            },
            {
              "internalType": "uint96",
              "name": "value",
              "type": "uint96"
            }
          ],
          "internalType": "struct LibPart.Part[]",
          "name": "",
          "type": "tuple[]"
        }
      ],
      "stateMutability": "view",
      "type": "function"
    },
    {
      "inputs": [
        {
          "internalType": "address",
          "name": "owner",
          "type": "address"
        },
        {
          "internalType": "address",
          "name": "operator",
          "type": "address"
        }
      ],
      "name": "isApprovedForAll",
      "outputs": [
        {
          "internalType": "bool",
          "name": "",
          "type": "bool"
        }
      ],
      "stateMutability": "view",
      "type": "function"
    },
    {
      "inputs": [
        {
          "internalType": "address",
          "name": "account",
          "type": "address"
        }
      ],
      "name": "isMinter",
      "outputs": [
        {
          "internalType": "bool",
          "name": "",
          "type": "bool"
        }
      ],
      "stateMutability": "view",
      "type": "function"
    },
    {
      "inputs": [
        {
          "components": [
            {
              "internalType": "uint256",
              "name": "tokenId",
              "type": "uint256"
            },
            {
              "internalType": "string",
              "name": "tokenURI",
              "type": "string"
            },
            {
              "components": [
                {
                  "internalType": "address payable",
                  "name": "account",
                  "type": "address"
                },
                {
                  "internalType": "uint96",
                  "name": "value",
                  "type": "uint96"
                }
              ],
              "internalType": "struct LibPart.Part[]",
              "name": "creators",
              "type": "tuple[]"
            },
            {
              "components": [
                {
                  "internalType": "address payable",
                  "name": "account",
                  "type": "address"
                },
                {
                  "internalType": "uint96",
                  "name": "value",
                  "type": "uint96"
                }
              ],
              "internalType": "struct LibPart.Part[]",
              "name": "royalties",
              "type": "tuple[]"
            },
            {
              "internalType": "bytes[]",
              "name": "signatures",
              "type": "bytes[]"
            }
          ],
          "internalType": "struct LibERC721LazyMint.Mint721Data",
          "name": "data",
          "type": "tuple"
        },
        {
          "internalType": "address",
          "name": "to",
          "type": "address"
        }
      ],
      "name": "mintAndTransfer",
      "outputs": [],
      "stateMutability": "nonpayable",
      "type": "function"
    },
    {
      "inputs": [],
      "name": "name",
      "outputs": [
        {
          "internalType": "string",
          "name": "",
          "type": "string"
        }
      ],
      "stateMutability": "view",
      "type": "function"
    },
    {
      "inputs": [],
      "name": "owner",
      "outputs": [
        {
          "internalType": "address",
          "name": "",
          "type": "address"
        }
      ],
      "stateMutability": "view",
      "type": "function"
    },
    {
      "inputs": [
        {
          "internalType": "uint256",
          "name": "tokenId",
          "type": "uint256"
        }
      ],
      "name": "ownerOf",
      "outputs": [
        {
          "internalType": "address",
          "name": "",
          "type": "address"
        }
      ],
      "stateMutability": "view",
      "type": "function"
    },
    {
      "inputs": [
        {
          "internalType": "address",
          "name": "_minter",
          "type": "address"
        }
      ],
      "name": "removeMinter",
      "outputs": [],
      "stateMutability": "nonpayable",
      "type": "function"
    },
    {
      "inputs": [],
      "name": "renounceOwnership",
      "outputs": [],
      "stateMutability": "nonpayable",
      "type": "function"
    },
    {
      "inputs": [
        {
          "internalType": "uint256",
          "name": "id",
          "type": "uint256"
        },
        {
          "internalType": "uint256",
          "name": "_salePrice",
          "type": "uint256"
        }
      ],
      "name": "royaltyInfo",
      "outputs": [
        {
          "internalType": "address",
          "name": "receiver",
          "type": "address"
        },
        {
          "internalType": "uint256",
          "name": "royaltyAmount",
          "type": "uint256"
        }
      ],
      "stateMutability": "view",
      "type": "function"
    },
    {
      "inputs": [
        {
          "internalType": "address",
          "name": "from",
          "type": "address"
        },
        {
          "internalType": "address",
          "name": "to",
          "type": "address"
        },
        {
          "internalType": "uint256",
          "name": "tokenId",
          "type": "uint256"
        }
      ],
      "name": "safeTransferFrom",
      "outputs": [],
      "stateMutability": "nonpayable",
      "type": "function"
    },
    {
      "inputs": [
        {
          "internalType": "address",
          "name": "from",
          "type": "address"
        },
        {
          "internalType": "address",
          "name": "to",
          "type": "address"
        },
        {
          "internalType": "uint256",
          "name": "tokenId",
          "type": "uint256"
        },
        {
          "internalType": "bytes",
          "name": "_data",
          "type": "bytes"
        }
      ],
      "name": "safeTransferFrom",
      "outputs": [],
      "stateMutability": "nonpayable",
      "type": "function"
    },
    {
      "inputs": [
        {
          "internalType": "address",
          "name": "operator",
          "type": "address"
        },
        {
          "internalType": "bool",
          "name": "approved",
          "type": "bool"
        }
      ],
      "name": "setApprovalForAll",
      "outputs": [],
      "stateMutability": "nonpayable",
      "type": "function"
    },
    {
      "inputs": [
        {
          "internalType": "string",
          "name": "newBaseURI",
          "type": "string"
        }
      ],
      "name": "setBaseURI",
      "outputs": [],
      "stateMutability": "nonpayable",
      "type": "function"
    },
    {
      "inputs": [
        {
          "internalType": "bytes4",
          "name": "interfaceId",
          "type": "bytes4"
        }
      ],
      "name": "supportsInterface",
      "outputs": [
        {
          "internalType": "bool",
          "name": "",
          "type": "bool"
        }
      ],
      "stateMutability": "view",
      "type": "function"
    },
    {
      "inputs": [],
      "name": "symbol",
      "outputs": [
        {
          "internalType": "string",
          "name": "",
          "type": "string"
        }
      ],
      "stateMutability": "view",
      "type": "function"
    },
    {
      "inputs": [
        {
          "internalType": "uint256",
          "name": "tokenId",
          "type": "uint256"
        }
      ],
      "name": "tokenURI",
      "outputs": [
        {
          "internalType": "string",
          "name": "",
          "type": "string"
        }
      ],
      "stateMutability": "view",
      "type": "function"
    },
    {
      "inputs": [
        {
          "internalType": "address",
          "name": "from",
          "type": "address"
        },
        {
          "internalType": "address",
          "name": "to",
          "type": "address"
        },
        {
          "internalType": "uint256",
          "name": "tokenId",
          "type": "uint256"
        }
      ],
      "name": "transferFrom",
      "outputs": [],
      "stateMutability": "nonpayable",
      "type": "function"
    },
    {
      "inputs": [
        {
          "components": [
            {
              "internalType": "uint256",
              "name": "tokenId",
              "type": "uint256"
            },
            {
              "internalType": "string",
              "name": "tokenURI",
              "type": "string"
            },
            {
              "components": [
                {
                  "internalType": "address payable",
                  "name": "account",
                  "type": "address"
                },
                {
                  "internalType": "uint96",
                  "name": "value",
                  "type": "uint96"
                }
              ],
              "internalType": "struct LibPart.Part[]",
              "name": "creators",
              "type": "tuple[]"
            },
            {
              "components": [
                {
                  "internalType": "address payable",
                  "name": "account",
                  "type": "address"
                },
                {
                  "internalType": "uint96",
                  "name": "value",
                  "type": "uint96"
                }
              ],
              "internalType": "struct LibPart.Part[]",
              "name": "royalties",
              "type": "tuple[]"
            },
            {
              "internalType": "bytes[]",
              "name": "signatures",
              "type": "bytes[]"
            }
          ],
          "internalType": "struct LibERC721LazyMint.Mint721Data",
          "name": "data",
          "type": "tuple"
        },
        {
          "internalType": "address",
          "name": "from",
          "type": "address"
        },
        {
          "internalType": "address",
          "name": "to",
          "type": "address"
        }
      ],
      "name": "transferFromOrMint",
      "outputs": [],
      "stateMutability": "nonpayable",
      "type": "function"
    },
    {
      "inputs": [
        {
          "internalType": "address",
          "name": "newOwner",
          "type": "address"
        }
      ],
      "name": "transferOwnership",
      "outputs": [],
      "stateMutability": "nonpayable",
      "type": "function"
    },
    {
      "inputs": [
        {
          "internalType": "uint256",
          "name": "_id",
          "type": "uint256"
        },
        {
          "internalType": "address",
          "name": "_from",
          "type": "address"
        },
        {
          "internalType": "address",
          "name": "_to",
          "type": "address"
        }
      ],
      "name": "updateAccount",
      "outputs": [],
      "stateMutability": "nonpayable",
      "type": "function"
    }
  ],
  "contractName": "ERC721RaribleMinimal",
  "sourceName": "@rarible/tokens/contracts/erc-721-minimal/ERC721RaribleMinimal.sol",
  "bytecode": "0x6080604052348015600e575f5ffd5b506143f28061001c5f395ff3fe608060405234801561000f575f5ffd5b50600436106101f2575f3560e01c806371e2a65711610114578063a60c434e116100a9578063cad96cca11610079578063cad96cca1461046a578063e07f23191461047d578063e8a3d48514610490578063e985e9c514610498578063f2fde38b146104ab575f5ffd5b8063a60c434e14610405578063aa271e1a14610418578063b88d4fde14610444578063c87b56dd14610457575f5ffd5b80638da5cb5b116100e45780638da5cb5b146103cf57806395d89b41146103d7578063983b2d56146103df578063a22cb465146103f2575f5ffd5b806371e2a6571461036e578063832fbb291461038157806384b0196e14610394578063891be974146103af575f5ffd5b80633092afd51161018a5780636352211e1161015a5780636352211e1461032a5780636c0360eb1461033d57806370a0823114610345578063715018a614610366575f5ffd5b80633092afd5146102de57806342842e0e146102f157806342966c681461030457806355f804b314610317575f5ffd5b80630a6d8989116101c55780630a6d89891461027357806322a775b61461028657806323b872dd146102995780632a55205a146102ac575f5ffd5b806301ffc9a7146101f657806306fdde031461021e578063081812fc14610233578063095ea7b31461025e575b5f5ffd5b61020961020436600461362d565b6104be565b60405190151581526020015b60405180910390f35b6102266104ce565b6040516102159190613676565b610246610241366004613688565b61055e565b6040516001600160a01b039091168152602001610215565b61027161026c3660046136c3565b6105e9565b005b610271610281366004613881565b6106fd565b610271610294366004613b7b565b610765565b6102716102a7366004613bc9565b610845565b6102bf6102ba366004613c07565b610877565b604080516001600160a01b039093168352602083019190915201610215565b6102716102ec366004613c27565b6109a2565b6102716102ff366004613bc9565b6109f7565b610271610312366004613688565b610a11565b610271610325366004613c42565b610b20565b610246610338366004613688565b610b6b565b610226610be1565b610358610353366004613c27565b610bf0565b604051908152602001610215565b610271610c75565b61027161037c366004613c73565b610c88565b61027161038f366004613ca4565b610d16565b61039c610db3565b6040516102159796959493929190613d03565b6103c26103bd366004613688565b610e5c565b6040516102159190613df1565b610246610ee8565b610226610f16565b6102716103ed366004613c27565b610f25565b610271610400366004613e03565b610f7f565b610271610413366004613e33565b611042565b610209610426366004613c27565b6001600160a01b03165f9081526101f9602052604090205460ff1690565b610271610452366004613f18565b6110a0565b610226610465366004613688565b6110d8565b6103c2610478366004613688565b6110e3565b61027161048b366004613f7f565b61115b565b6102266111ac565b6102096104a6366004613fa3565b611239565b6102716104b9366004613c27565b61124b565b5f6104c882611285565b92915050565b6060603280546104dd90613fcf565b80601f016020809104026020016040519081016040528092919081815260200182805461050990613fcf565b80156105545780601f1061052b57610100808354040283529160200191610554565b820191905f5260205f20905b81548152906001019060200180831161053757829003601f168201915b5050505050905090565b5f610568826112a9565b6105ce5760405162461bcd60e51b815260206004820152602c60248201527f4552433732313a20617070726f76656420717565727920666f72206e6f6e657860448201526b34b9ba32b73a103a37b5b2b760a11b60648201526084015b60405180910390fd5b505f908152603660205260409020546001600160a01b031690565b5f6105f382610b6b565b9050806001600160a01b0316836001600160a01b0316036106605760405162461bcd60e51b815260206004820152602160248201527f4552433732313a20617070726f76616c20746f2063757272656e74206f776e656044820152603960f91b60648201526084016105c5565b336001600160a01b038216148061067c575061067c8133611239565b6106ee5760405162461bcd60e51b815260206004820152603860248201527f4552433732313a20617070726f76652063616c6c6572206973206e6f74206f7760448201527f6e6572206e6f7220617070726f76656420666f7220616c6c000000000000000060648201526084016105c5565b6106f883836112c5565b505050565b61070c88888888878787611332565b6101c7805460ff191660011790557fd901a467fa419f379a67636a1de44cc2ed772beb43a0c05fa1ddcad5d59e99136107423390565b898960405161075393929190614007565b60405180910390a15050505050505050565b6101c75460ff16156108375781604001515f8151811061078757610787614046565b60200260200101515f01516001600160a01b03166107a3610ee8565b6001600160a01b031614806107f557506107f582604001515f815181106107cc576107cc614046565b60200260200101515f01516001600160a01b03165f9081526101f9602052604090205460ff1690565b6108375760405162461bcd60e51b81526020600482015260136024820152723737ba1037bbb732b91037b91036b4b73a32b960691b60448201526064016105c5565b6108418282611486565b5050565b610850335b8261162b565b61086c5760405162461bcd60e51b81526004016105c59061405a565b6106f8838383611636565b5f82815260fb60205260408120548190810361089757505f90508061099b565b5f84815260fb6020908152604080832080548251818502810185019093528083529192909190849084015b82821015610910575f84815260209081902060408051808201909152908401546001600160a01b0381168252600160a01b90046001600160601b0316818301528252600190920191016108c2565b505050509050805f8151811061092857610928614046565b60209081029190910101515192505f805b825181101561097e5782818151811061095457610954614046565b6020026020010151602001516001600160601b03168261097491906140bf565b9150600101610939565b5061271061098c86836140d2565b61099691906140e9565b925050505b9250929050565b6109aa6117bf565b6001600160a01b0381165f8181526101f96020526040808220805460ff19169055519091907f3042b80e435ae46c334b2cfec51a66d64c9a8a8af4cd0c279a124c35a09e91dd908390a350565b6106f883838360405180602001604052805f8152506110a0565b610a1a816112a9565b610aa657606081901c338114610a885760405162461bcd60e51b815260206004820152602d60248201527f4552433732314275726e61626c653a2063616c6c6572206973206e6f74206f7760448201526c3732b916103737ba10313ab93760991b60648201526084016105c5565b610841825f908152603860205260409020805460ff19166001179055565b610aaf3361084a565b610b145760405162461bcd60e51b815260206004820152603060248201527f4552433732314275726e61626c653a2063616c6c6572206973206e6f74206f7760448201526f1b995c881b9bdc88185c1c1c9bdd995960821b60648201526084016105c5565b610b1d816117f1565b50565b610b286117bf565b610b3181611893565b7f87cdeaffd8e70903d6ce7cc983fac3b09ca79e83818124c98e47a1d70f8027d681604051610b609190613676565b60405180910390a150565b5f818152603460205260408120546001600160a01b0316806104c85760405162461bcd60e51b815260206004820152602960248201527f4552433732313a206f776e657220717565727920666f72206e6f6e657869737460448201526832b73a103a37b5b2b760b91b60648201526084016105c5565b606060fd80546104dd90613fcf565b5f6001600160a01b038216610c5a5760405162461bcd60e51b815260206004820152602a60248201527f4552433732313a2062616c616e636520717565727920666f7220746865207a65604482015269726f206164647265737360b01b60648201526084016105c5565b506001600160a01b03165f9081526035602052604090205490565b610c7d6117bf565b610c865f61189f565b565b610c906117bf565b5f5b8151811015610841575f828281518110610cae57610cae614046565b6020908102919091018101516001600160a01b0381165f8181526101f99093526040808420805460ff1916600190811790915590519294509290917f3042b80e435ae46c334b2cfec51a66d64c9a8a8af4cd0c279a124c35a09e91dd9190a350600101610c92565b8251610d21906112a9565b15610d34576106f88282855f01516109f7565b82604001515f81518110610d4a57610d4a614046565b60200260200101515f01516001600160a01b0316826001600160a01b031614610da95760405162461bcd60e51b81526020600482015260116024820152703bb937b7339037b93232b91036b0b5b2b960791b60448201526064016105c5565b6106f88382610765565b5f60608082808083815f51602061437d5f395f51905f528054909150158015610dde57506001810154155b610e225760405162461bcd60e51b81526020600482015260156024820152741152540dcc4c8e88155b9a5b9a5d1a585b1a5e9959605a1b60448201526064016105c5565b610e2a61190f565b610e326119cf565b604080515f80825260208201909252600f60f81b9c939b5091995046985030975095509350915050565b60606101305f8381526020019081526020015f20805480602002602001604051908101604052809291908181526020015f905b82821015610edd575f84815260209081902060408051808201909152908401546001600160a01b0381168252600160a01b90046001600160601b031681830152825260019092019101610e8f565b505050509050919050565b7f9016d09d72d40fdae2fd8ceac6b6234c7706214fd39c1cd1e609a0528c199300546001600160a01b031690565b6060603380546104dd90613fcf565b610f2d6117bf565b6001600160a01b0381165f8181526101f96020526040808220805460ff1916600190811790915590519092917f3042b80e435ae46c334b2cfec51a66d64c9a8a8af4cd0c279a124c35a09e91dd91a350565b336001600160a01b03831603610fd75760405162461bcd60e51b815260206004820152601960248201527f4552433732313a20617070726f766520746f2063616c6c65720000000000000060448201526064016105c5565b335f8181526037602090815260408083206001600160a01b03871680855290835292819020805460ff191686151590811790915590519081529192917f17307eab39ab6107e8899845ad3d59bd9653f200f220920489ca2b5937696c31910160405180910390a35050565b61105187878787878787611332565b6101c7805460ff191690557ff05e55f0a9d205977ca8cc02236338b6a361376f404cf0b3019b2111964a01fd33888860405161108f93929190614007565b60405180910390a150505050505050565b6110aa338361162b565b6110c65760405162461bcd60e51b81526004016105c59061405a565b6110d284848484611a0d565b50505050565b60606104c882611a40565b5f81815260fb60209081526040808320805482518185028101850190935280835260609492939192909184018215610edd575f84815260209081902060408051808201909152908401546001600160a01b0381168252600160a01b90046001600160601b031681830152825260019092019101610e8f565b336001600160a01b038316146111a15760405162461bcd60e51b815260206004820152600b60248201526a1b9bdd08185b1b1bddd95960aa1b60448201526064016105c5565b6106f8838383611a4b565b61016380546111ba90613fcf565b80601f01602080910402602001604051908101604052809291908181526020018280546111e690613fcf565b80156112315780601f1061120857610100808354040283529160200191611231565b820191905f5260205f20905b81548152906001019060200180831161121457829003601f168201915b505050505081565b5f6112448383611afa565b9392505050565b6112536117bf565b6001600160a01b03811661127c57604051631e4fbdf760e01b81525f60048201526024016105c5565b610b1d8161189f565b5f6001600160e01b0319821663e8a3d48560e01b14806104c857506104c882611b48565b5f908152603460205260409020546001600160a01b0316151590565b5f81815260366020526040902080546001600160a01b0319166001600160a01b03841690811790915581906112f982610b6b565b6001600160a01b03167f8c5be1e5ebec7d5bd14f71427d1e84f3dd0314c0f7b2291e5b200ac8c7c3b92560405160405180910390a45050565b5f61133b611c04565b805490915060ff600160401b82041615906001600160401b03165f811580156113615750825b90505f826001600160401b0316600114801561137c5750303b155b90508115801561138a575080155b156113a85760405163f92ee8a960e01b815260040160405180910390fd5b845467ffffffffffffffff1916600117855583156113d257845460ff60401b1916600160401b1785555b6113db8a611893565b6113e3611c2c565b6113eb611d05565b6113f3611da9565b6113fb611da9565b61140486611db1565b61140c611c2c565b611414611db9565b61141c611c2c565b61142589611e9b565b61142f8c8c611f84565b61143a886001612076565b611445876001612076565b831561147857845460ff60401b19168555604051600181525f51602061435d5f395f51905f529060200160405180910390a15b505050505050505050505050565b815160601c5f33905083604001515f815181106114a5576114a5614046565b60200260200101515f01516001600160a01b0316826001600160a01b0316146115045760405162461bcd60e51b81526020600482015260116024820152701d1bdad95b9259081a5b98dbdc9c9958dd607a1b60448201526064016105c5565b83608001515184604001515114611519575f5ffd5b806001600160a01b0316826001600160a01b0316148061153e575061153e8282611239565b61155a5760405162461bcd60e51b81526004016105c59061405a565b5f611564856120d4565b90505f5b8560400151518110156115e3575f8660400151828151811061158c5761158c614046565b60200260200101515f01519050836001600160a01b0316816001600160a01b0316146115da576115da8184896080015185815181106115cd576115cd614046565b60200260200101516122d7565b50600101611568565b506115f184865f01516122e2565b611602855f015186606001516122fb565b611613855f01518660400151612505565b611624855f0151866020015161274b565b5050505050565b5f61124483836127cc565b826001600160a01b031661164982610b6b565b6001600160a01b0316146116b15760405162461bcd60e51b815260206004820152602960248201527f4552433732313a207472616e73666572206f6620746f6b656e2074686174206960448201526839903737ba1037bbb760b91b60648201526084016105c5565b6001600160a01b0382166117135760405162461bcd60e51b8152602060048201526024808201527f4552433732313a207472616e7366657220746f20746865207a65726f206164646044820152637265737360e01b60648201526084016105c5565b61171d5f826112c5565b6001600160a01b0383165f908152603560205260408120805460019290611745908490614108565b90915550506001600160a01b0382165f9081526035602052604081208054600192906117729084906140bf565b90915550505f8181526034602052604080822080546001600160a01b0319166001600160a01b0386811691821790925591518493918716915f51602061439d5f395f51905f5291a4505050565b336117c8610ee8565b6001600160a01b031614610c865760405163118cdaa760e01b81523360048201526024016105c5565b5f6117fb82610b6b565b90506118075f836112c5565b611810826127f7565b6001600160a01b0381165f908152603560205260408120805460019290611838908490614108565b90915550505f82815260346020908152604080832080546001600160a01b03191690556038909152808220805460ff19166001179055518391906001600160a01b038416905f51602061439d5f395f51905f52908390a45050565b60fd610841828261415f565b7f9016d09d72d40fdae2fd8ceac6b6234c7706214fd39c1cd1e609a0528c19930080546001600160a01b031981166001600160a01b03848116918217845560405192169182907f8be0079c531659141344cd1fd0a4f28419497f9722a3daafe3b4186f6b6457e0905f90a3505050565b7fa16a46d94261c7517cc8ff89f61c0ce93598e3c849801011dee649a6a557d10280546060915f51602061437d5f395f51905f529161194d90613fcf565b80601f016020809104026020016040519081016040528092919081815260200182805461197990613fcf565b80156119c45780601f1061199b576101008083540402835291602001916119c4565b820191905f5260205f20905b8154815290600101906020018083116119a757829003601f168201915b505050505091505090565b7fa16a46d94261c7517cc8ff89f61c0ce93598e3c849801011dee649a6a557d10380546060915f51602061437d5f395f51905f529161194d90613fcf565b611a18848484611636565b611a2484848484612800565b6110d25760405162461bcd60e51b81526004016105c590614219565b60606104c8826128fe565b5f83815260fb6020526040812054905b81811015611624575f85815260fb6020526040902080546001600160a01b038616919083908110611a8e57611a8e614046565b5f918252602090912001546001600160a01b031603611af2575f85815260fb60205260409020805484919083908110611ac957611ac9614046565b5f91825260209091200180546001600160a01b0319166001600160a01b03929092169190911790555b600101611a5b565b6001600160a01b0381165f9081526064602052604081205460ff168061124457506001600160a01b038084165f9081526037602090815260408083209386168352929052205460ff16611244565b5f6001600160e01b03198216638486f69f60e01b1480611b7857506001600160e01b0319821663656cb66560e11b145b80611b9357506001600160e01b0319821663152a902d60e11b145b80611bae57506001600160e01b031982166301ffc9a760e01b145b80611bc957506001600160e01b031982166380ac58cd60e01b145b80611be457506001600160e01b03198216635b5e139f60e01b145b806104c857506001600160e01b0319821663780e9d6360e01b1492915050565b5f807ff0c57e16840df040f15088dc2f81fe391c3923bec73e23a9662efc9c229c6a006104c8565b5f611c35611c04565b805490915060ff600160401b82041615906001600160401b03165f81158015611c5b5750825b90505f826001600160401b03166001148015611c765750303b155b905081158015611c84575080155b15611ca25760405163f92ee8a960e01b815260040160405180910390fd5b845467ffffffffffffffff191660011785558315611ccc57845460ff60401b1916600160401b1785555b831561162457845460ff60401b19168555604051600181525f51602061435d5f395f51905f529060200160405180910390a15050505050565b5f611d0e611c04565b805490915060ff600160401b82041615906001600160401b03165f81158015611d345750825b90505f826001600160401b03166001148015611d4f5750303b155b905081158015611d5d575080155b15611d7b5760405163f92ee8a960e01b815260040160405180910390fd5b845467ffffffffffffffff191660011785558315611da557845460ff60401b1916600160401b1785555b611ccc5b610c86612a61565b611253612a61565b5f611dc2611c04565b805490915060ff600160401b82041615906001600160401b03165f81158015611de85750825b90505f826001600160401b03166001148015611e035750303b155b905081158015611e11575080155b15611e2f5760405163f92ee8a960e01b815260040160405180910390fd5b845467ffffffffffffffff191660011785558315611e5957845460ff60401b1916600160401b1785555b611ccc604051806040016040528060078152602001664d696e7437323160c81b815250604051806040016040528060018152602001603160f81b815250612a86565b5f611ea4611c04565b805490915060ff600160401b82041615906001600160401b03165f81158015611eca5750825b90505f826001600160401b03166001148015611ee55750303b155b905081158015611ef3575080155b15611f115760405163f92ee8a960e01b815260040160405180910390fd5b845467ffffffffffffffff191660011785558315611f3b57845460ff60401b1916600160401b1785555b610163611f48878261415f565b508315611f7c57845460ff60401b19168555604051600181525f51602061435d5f395f51905f529060200160405180910390a15b505050505050565b5f611f8d611c04565b805490915060ff600160401b82041615906001600160401b03165f81158015611fb35750825b90505f826001600160401b03166001148015611fce5750303b155b905081158015611fdc575080155b15611ffa5760405163f92ee8a960e01b815260040160405180910390fd5b845467ffffffffffffffff19166001178555831561202457845460ff60401b1916600160401b1785555b6032612030888261415f565b50603361203d878261415f565b50831561206d57845460ff60401b19168555604051600181525f51602061435d5f395f51905f529060200161108f565b50505050505050565b6001600160a01b0382165f81815260646020908152604091829020805460ff191685151590811790915591519182527f270dbb8ba4292910ae92862466486be25c355c837270a3d8824b36a8bc7c653b910160405180910390a25050565b5f5f8260600151516001600160401b038111156120f3576120f36136ed565b60405190808252806020026020018201604052801561211c578160200160208202803683370190505b5090505f5b836060015151811015612179576121548460600151828151811061214757612147614046565b6020026020010151612ae5565b82828151811061216657612166614046565b6020908102919091010152600101612121565b505f8360400151516001600160401b03811115612198576121986136ed565b6040519080825280602002602001820160405280156121c1578160200160208202803683370190505b5090505f5b846040015151811015612211576121ec8560400151828151811061214757612147614046565b8282815181106121fe576121fe614046565b60209081029190910101526001016121c6565b507ff64326045af5fd7e15297ba939f85b550474d3899daa47d2bc1ffbdb9ced344e845f015185602001518051906020012083604051602001612254919061426b565b604051602081830303815290604052805190602001208560405160200161227b919061426b565b60408051601f198184030181528282528051602091820120908301969096528101939093526060830191909152608082015260a081019190915260c0016040516020818303038152906040528051906020012092505050919050565b6106f8838383612b60565b610841828260405180602001604052805f815250612ccb565b5f805b825181101561249b575f6001600160a01b031683828151811061232357612323614046565b60200260200101515f01516001600160a01b0316036123845760405162461bcd60e51b815260206004820152601b60248201527f526563697069656e742073686f756c642062652070726573656e74000000000060448201526064016105c5565b82818151811061239657612396614046565b6020026020010151602001516001600160601b03165f036123f95760405162461bcd60e51b815260206004820181905260248201527f526f79616c74792076616c75652073686f756c6420626520706f73697469766560448201526064016105c5565b82818151811061240b5761240b614046565b6020026020010151602001516001600160601b03168261242b91906140bf565b915060fb5f8581526020019081526020015f2083828151811061245057612450614046565b6020908102919091018101518254600181810185555f94855293839020825192909301516001600160601b0316600160a01b026001600160a01b0390921691909117910155016122fe565b5061271081106124fb5760405162461bcd60e51b815260206004820152602560248201527f526f79616c747920746f74616c2076616c75652073686f756c64206265203c20604482015264031303030360dc1b60648201526084016105c5565b6106f88383612cfd565b5f8281526101306020526040812090805b83518110156126a3575f6001600160a01b031684828151811061253b5761253b614046565b60200260200101515f01516001600160a01b03160361259c5760405162461bcd60e51b815260206004820152601960248201527f4163636f756e742073686f756c642062652070726573656e740000000000000060448201526064016105c5565b8381815181106125ae576125ae614046565b6020026020010151602001516001600160601b03165f036126115760405162461bcd60e51b815260206004820181905260248201527f43726561746f722073686172652073686f756c6420626520706f73697469766560448201526064016105c5565b8284828151811061262457612624614046565b60209081029190910181015182546001810184555f93845292829020815191909201516001600160601b0316600160a01b026001600160a01b0390911617910155835184908290811061267957612679614046565b6020026020010151602001516001600160601b03168261269991906140bf565b9150600101612516565b50806127101461270c5760405162461bcd60e51b815260206004820152602e60248201527f746f74616c20616d6f756e74206f662063726561746f7273207368617265207360448201526d0686f756c642062652031303030360941b60648201526084016105c5565b7f841ffb90d4cabdd1f16034f3fa831d79060febbb8167bdd54a49269365bdf78f848460405161273d9291906142a0565b60405180910390a150505050565b612754826112a9565b6127b55760405162461bcd60e51b815260206004820152602c60248201527f4552433732314d657461646174613a2055524920736574206f66206e6f6e657860448201526b34b9ba32b73a103a37b5b2b760a11b60648201526084016105c5565b5f82815260fc602052604090206106f8828261415f565b6001600160a01b0382165f9081526064602052604081205460ff168061124457506112448383612d3a565b610b1d81612dfa565b5f6001600160a01b0384163b156128f257604051630a85bd0160e11b81526001600160a01b0385169063150b7a02906128439033908990889088906004016142b8565b6020604051808303815f875af192505050801561287d575060408051601f3d908101601f1916820190925261287a918101906142ea565b60015b6128d8573d8080156128aa576040519150601f19603f3d011682016040523d82523d5f602084013e6128af565b606091505b5080515f036128d05760405162461bcd60e51b81526004016105c590614219565b805181602001fd5b6001600160e01b031916630a85bd0160e11b1490506128f6565b5060015b949350505050565b6060612909826112a9565b61296d5760405162461bcd60e51b815260206004820152602f60248201527f4552433732314d657461646174613a2055524920717565727920666f72206e6f60448201526e3732bc34b9ba32b73a103a37b5b2b760891b60648201526084016105c5565b5f82815260fc60205260408120805461298590613fcf565b80601f01602080910402602001604051908101604052809291908181526020018280546129b190613fcf565b80156129fc5780601f106129d3576101008083540402835291602001916129fc565b820191905f5260205f20905b8154815290600101906020018083116129df57829003601f168201915b505050505090505f612a0c610be1565b905080515f03612a1d575092915050565b815115612a2e576128f68183612e03565b80612a3885612ed5565b604051602001612a4992919061431c565b60405160208183030381529060405292505050919050565b612a69612f64565b610c8657604051631afcd79f60e31b815260040160405180910390fd5b612a8e612a61565b5f51602061437d5f395f51905f527fa16a46d94261c7517cc8ff89f61c0ce93598e3c849801011dee649a6a557d102612ac7848261415f565b5060038101612ad6838261415f565b505f8082556001909101555050565b80516020808301516040515f93612b43937f397e04204c1e1a60ee8724b71f8244e10ab5f2e9009854d80f602bda21b59ebb939192019283526001600160a01b039190911660208301526001600160601b0316604082015260600190565b604051602081830303815290604052805190602001209050919050565b5f612b6a83612f7d565b90505f8251604103612b8357612b808284612fa9565b90505b846001600160a01b0316816001600160a01b031614611624576001600160a01b0385163b15612c8057604051630b135d3f60e11b808252906001600160a01b03871690631626ba7e90612bdc9086908890600401614330565b602060405180830381865afa158015612bf7573d5f5f3e3d5ffd5b505050506040513d601f19601f82011682018060405250810190612c1b91906142ea565b6001600160e01b031916146040518060400160405280601c81526020017f7369676e617475726520766572696669636174696f6e206572726f720000000081525090612c7a5760405162461bcd60e51b81526004016105c59190613676565b50611624565b604080518082018252601c81527f7369676e617475726520766572696669636174696f6e206572726f72000000006020820152905162461bcd60e51b81526105c59190600401613676565b612cd58383612fd1565b612ce15f848484612800565b6106f85760405162461bcd60e51b81526004016105c590614219565b7f3fa96d7b6bcbfe71ef171666d84db3cf52fa2d1c8afdb1cc8e486177f208b7df8282604051612d2e9291906142a0565b60405180910390a15050565b5f612d44826112a9565b612da55760405162461bcd60e51b815260206004820152602c60248201527f4552433732313a206f70657261746f7220717565727920666f72206e6f6e657860448201526b34b9ba32b73a103a37b5b2b760a11b60648201526084016105c5565b5f612daf83610b6b565b9050806001600160a01b0316846001600160a01b03161480612dea5750836001600160a01b0316612ddf8461055e565b6001600160a01b0316145b806128f657506128f68185611239565b610b1d8161312f565b80518251606091849184911015612e3f578484604051602001612e2792919061431c565b604051602081830303815290604052925050506104c8565b5f5b8251811015612ecb57828181518110612e5c57612e5c614046565b602001015160f81c60f81b6001600160f81b031916828281518110612e8357612e83614046565b01602001516001600160f81b03191614612ec3578585604051602001612eaa92919061431c565b60405160208183030381529060405293505050506104c8565b600101612e41565b5092949350505050565b60605f612ee183613164565b60010190505f816001600160401b03811115612eff57612eff6136ed565b6040519080825280601f01601f191660200182016040528015612f29576020820181803683370190505b5090508181016020015b5f19016f181899199a1a9b1b9c1cb0b131b232b360811b600a86061a8153600a8504945084612f3357509392505050565b5f612f6d611c04565b54600160401b900460ff16919050565b5f6104c8612f8961323b565b8360405161190160f01b8152600281019290925260228201526042902090565b5f5f5f5f612fb78686613249565b925092509250612fc78282613292565b5090949350505050565b6001600160a01b0382166130275760405162461bcd60e51b815260206004820181905260248201527f4552433732313a206d696e7420746f20746865207a65726f206164647265737360448201526064016105c5565b5f8181526038602052604090205460ff161561307c5760405162461bcd60e51b81526020600482015260146024820152731d1bdad95b88185b1c9958591e48189d5c9b995960621b60448201526064016105c5565b613085816112a9565b156130d25760405162461bcd60e51b815260206004820152601c60248201527f4552433732313a20746f6b656e20616c7265616479206d696e7465640000000060448201526064016105c5565b6001600160a01b0382165f9081526035602052604081208054600192906130fa9084906140bf565b90915550505f81815260346020526040902080546001600160a01b0319166001600160a01b038416179055610841828261334a565b5f81815260fc60205260409020805461314790613fcf565b159050610b1d575f81815260fc60205260408120610b1d916135ce565b5f8072184f03e93ff9f4daa797ed6e38ed64bf6a1f0160401b83106131a25772184f03e93ff9f4daa797ed6e38ed64bf6a1f0160401b830492506040015b6d04ee2d6d415b85acef810000000083106131ce576d04ee2d6d415b85acef8100000000830492506020015b662386f26fc1000083106131ec57662386f26fc10000830492506010015b6305f5e1008310613204576305f5e100830492506008015b612710831061321857612710830492506004015b6064831061322a576064830492506002015b600a83106104c85760010192915050565b5f613244613354565b905090565b5f5f5f8351604103613280576020840151604085015160608601515f1a613272888285856133c7565b95509550955050505061328b565b505081515f91506002905b9250925092565b5f8260038111156132a5576132a5614348565b036132ae575050565b60018260038111156132c2576132c2614348565b036132e05760405163f645eedf60e01b815260040160405180910390fd5b60028260038111156132f4576132f4614348565b036133155760405163fce698f760e01b8152600481018290526024016105c5565b600382600381111561332957613329614348565b03610841576040516335e2f38360e21b8152600481018290526024016105c5565b610841828261348f565b5f7f8b73c3c69bb8fe3d512ecc4cf759cc79239f7b179b0ffacaa9a75d522b39400f61337e613524565b61338661358c565b60408051602081019490945283019190915260608201524660808201523060a082015260c00160405160208183030381529060405280519060200120905090565b5f80807f7fffffffffffffffffffffffffffffff5d576e7357a4501ddfe92f46681b20a084111561340057505f91506003905082613485565b604080515f808252602082018084528a905260ff891692820192909252606081018790526080810186905260019060a0016020604051602081039080840390855afa158015613451573d5f5f3e3d5ffd5b5050604051601f1901519150506001600160a01b03811661347c57505f925060019150829050613485565b92505f91508190505b9450945094915050565b606081901c6001600160a01b03831681146134fb5760405182906001600160a01b038316905f905f51602061439d5f395f51905f52908290a481836001600160a01b0316826001600160a01b03165f51602061439d5f395f51905f5260405160405180910390a4505050565b60405182906001600160a01b038516905f905f51602061439d5f395f51905f52908290a4505050565b5f5f51602061437d5f395f51905f528161353c61190f565b80519091501561355457805160209091012092915050565b81548015613563579392505050565b7fc5d2460186f7233c927e7db2dcc703c0e500b653ca82273b7bfad8045d85a470935050505090565b5f5f51602061437d5f395f51905f52816135a46119cf565b8051909150156135bc57805160209091012092915050565b60018201548015613563579392505050565b5080546135da90613fcf565b5f825580601f106135e9575050565b601f0160209004905f5260205f2090810190610b1d91905b80821115613614575f8155600101613601565b5090565b6001600160e01b031981168114610b1d575f5ffd5b5f6020828403121561363d575f5ffd5b813561124481613618565b5f81518084528060208401602086015e5f602082860101526020601f19601f83011685010191505092915050565b602081525f6112446020830184613648565b5f60208284031215613698575f5ffd5b5035919050565b6001600160a01b0381168114610b1d575f5ffd5b80356136be8161369f565b919050565b5f5f604083850312156136d4575f5ffd5b82356136df8161369f565b946020939093013593505050565b634e487b7160e01b5f52604160045260245ffd5b604080519081016001600160401b0381118282101715613723576137236136ed565b60405290565b60405160a081016001600160401b0381118282101715613723576137236136ed565b604051601f8201601f191681016001600160401b0381118282101715613773576137736136ed565b604052919050565b5f82601f83011261378a575f5ffd5b8135602083015f5f6001600160401b038411156137a9576137a96136ed565b50601f8301601f19166020016137be8161374b565b9150508281528583830111156137d2575f5ffd5b828260208301375f92810160200192909252509392505050565b5f6001600160401b03821115613804576138046136ed565b5060051b60200190565b5f82601f83011261381d575f5ffd5b813561383061382b826137ec565b61374b565b8082825260208201915060208360051b860101925085831115613851575f5ffd5b602085015b838110156138775780356138698161369f565b835260209283019201613856565b5095945050505050565b5f5f5f5f5f5f5f5f610100898b031215613899575f5ffd5b88356001600160401b038111156138ae575f5ffd5b6138ba8b828c0161377b565b98505060208901356001600160401b038111156138d5575f5ffd5b6138e18b828c0161377b565b97505060408901356001600160401b038111156138fc575f5ffd5b6139088b828c0161377b565b96505060608901356001600160401b03811115613923575f5ffd5b61392f8b828c0161377b565b95505060808901356001600160401b0381111561394a575f5ffd5b6139568b828c0161380e565b94505061396560a08a016136b3565b925061397360c08a016136b3565b915061398160e08a016136b3565b90509295985092959890939650565b5f82601f83011261399f575f5ffd5b81356139ad61382b826137ec565b8082825260208201915060208360061b8601019250858311156139ce575f5ffd5b602085015b8381101561387757604081880312156139ea575f5ffd5b6139f2613701565b81356139fd8161369f565b815260208201356001600160601b0381168114613a18575f5ffd5b60208281019190915290845292909201916040016139d3565b5f82601f830112613a40575f5ffd5b8135613a4e61382b826137ec565b8082825260208201915060208360051b860101925085831115613a6f575f5ffd5b602085015b838110156138775780356001600160401b03811115613a91575f5ffd5b613aa0886020838a010161377b565b84525060209283019201613a74565b5f60a08284031215613abf575f5ffd5b613ac7613729565b82358152905060208201356001600160401b03811115613ae5575f5ffd5b613af18482850161377b565b60208301525060408201356001600160401b03811115613b0f575f5ffd5b613b1b84828501613990565b60408301525060608201356001600160401b03811115613b39575f5ffd5b613b4584828501613990565b60608301525060808201356001600160401b03811115613b63575f5ffd5b613b6f84828501613a31565b60808301525092915050565b5f5f60408385031215613b8c575f5ffd5b82356001600160401b03811115613ba1575f5ffd5b613bad85828601613aaf565b9250506020830135613bbe8161369f565b809150509250929050565b5f5f5f60608486031215613bdb575f5ffd5b8335613be68161369f565b92506020840135613bf68161369f565b929592945050506040919091013590565b5f5f60408385031215613c18575f5ffd5b50508035926020909101359150565b5f60208284031215613c37575f5ffd5b81356112448161369f565b5f60208284031215613c52575f5ffd5b81356001600160401b03811115613c67575f5ffd5b6128f68482850161377b565b5f60208284031215613c83575f5ffd5b81356001600160401b03811115613c98575f5ffd5b6128f68482850161380e565b5f5f5f60608486031215613cb6575f5ffd5b83356001600160401b03811115613ccb575f5ffd5b613cd786828701613aaf565b9350506020840135613ce88161369f565b91506040840135613cf88161369f565b809150509250925092565b60ff60f81b8816815260e060208201525f613d2160e0830189613648565b8281036040840152613d338189613648565b606084018890526001600160a01b038716608085015260a0840186905283810360c0850152845180825260208087019350909101905f5b81811015613d88578351835260209384019390920191600101613d6a565b50909b9a5050505050505050505050565b5f8151808452602084019350602083015f5b82811015613de757815180516001600160a01b031687526020908101516001600160601b03168188015260409096019590910190600101613dab565b5093949350505050565b602081525f6112446020830184613d99565b5f5f60408385031215613e14575f5ffd5b8235613e1f8161369f565b915060208301358015158114613bbe575f5ffd5b5f5f5f5f5f5f5f60e0888a031215613e49575f5ffd5b87356001600160401b03811115613e5e575f5ffd5b613e6a8a828b0161377b565b97505060208801356001600160401b03811115613e85575f5ffd5b613e918a828b0161377b565b96505060408801356001600160401b03811115613eac575f5ffd5b613eb88a828b0161377b565b95505060608801356001600160401b03811115613ed3575f5ffd5b613edf8a828b0161377b565b945050613eee608089016136b3565b9250613efc60a089016136b3565b9150613f0a60c089016136b3565b905092959891949750929550565b5f5f5f5f60808587031215613f2b575f5ffd5b8435613f368161369f565b93506020850135613f468161369f565b92506040850135915060608501356001600160401b03811115613f67575f5ffd5b613f738782880161377b565b91505092959194509250565b5f5f5f60608486031215613f91575f5ffd5b833592506020840135613ce88161369f565b5f5f60408385031215613fb4575f5ffd5b8235613fbf8161369f565b91506020830135613bbe8161369f565b600181811c90821680613fe357607f821691505b60208210810361400157634e487b7160e01b5f52602260045260245ffd5b50919050565b6001600160a01b03841681526060602082018190525f9061402a90830185613648565b828103604084015261403c8185613648565b9695505050505050565b634e487b7160e01b5f52603260045260245ffd5b60208082526031908201527f4552433732313a207472616e736665722063616c6c6572206973206e6f74206f6040820152701ddb995c881b9bdc88185c1c1c9bdd9959607a1b606082015260800190565b634e487b7160e01b5f52601160045260245ffd5b808201808211156104c8576104c86140ab565b80820281158282048414176104c8576104c86140ab565b5f8261410357634e487b7160e01b5f52601260045260245ffd5b500490565b818103818111156104c8576104c86140ab565b601f8211156106f857805f5260205f20601f840160051c810160208510156141405750805b601f840160051c820191505b81811015611624575f815560010161414c565b81516001600160401b03811115614178576141786136ed565b61418c816141868454613fcf565b8461411b565b6020601f8211600181146141be575f83156141a75750848201515b5f19600385901b1c1916600184901b178455611624565b5f84815260208120601f198516915b828110156141ed57878501518255602094850194600190920191016141cd565b508482101561420a57868401515f19600387901b60f8161c191681555b50505050600190811b01905550565b60208082526032908201527f4552433732313a207472616e7366657220746f206e6f6e20455243373231526560408201527131b2b4bb32b91034b6b83632b6b2b73a32b960711b606082015260800190565b81515f90829060208501835b82811015614295578151845260209384019390910190600101614277565b509195945050505050565b828152604060208201525f6128f66040830184613d99565b6001600160a01b03858116825284166020820152604081018390526080606082018190525f9061403c90830184613648565b5f602082840312156142fa575f5ffd5b815161124481613618565b5f81518060208401855e5f93019283525090919050565b5f6128f661432a8386614305565b84614305565b828152604060208201525f6128f66040830184613648565b634e487b7160e01b5f52602160045260245ffdfec7f505b2f371ae2175ee4913f4499e1f2633a7b5936321eed1cdaeb6115181d2a16a46d94261c7517cc8ff89f61c0ce93598e3c849801011dee649a6a557d100ddf252ad1be2c89b69c2b068fc378daa952ba7f163c4a11628f55a4df523b3efa26469706673582212208dffa7c1a3a2e6aa055614b6fd7ca6c9783dc94dbbcd4237769f299b81191ad364736f6c634300081e0033",
  "linkReferences": {},
  "deployedLinkReferences": {},
  "devdoc": {
    "errors": {
      "ECDSAInvalidSignature()": [
        {
          "details": "The signature derives the `address(0)`."
        }
      ],
      "ECDSAInvalidSignatureLength(uint256)": [
        {
          "details": "The signature has an invalid length."
        }
      ],
      "ECDSAInvalidSignatureS(bytes32)": [
        {
          "details": "The signature has an S value that is in the upper half order."
        }
      ],
      "InvalidInitialization()": [
        {
          "details": "The contract is already initialized."
        }
      ],
      "NotInitializing()": [
        {
          "details": "The contract is not initializing."
        }
      ],
      "OwnableInvalidOwner(address)": [
        {
          "details": "The owner is not a valid owner account. (eg. `address(0)`)"
        }
      ],
      "OwnableUnauthorizedAccount(address)": [
        {
          "details": "The caller account is not authorized to perform an operation."
        }
      ]
    },
    "events": {
      "Approval(address,address,uint256)": {
        "details": "Emitted when `owner` enables `approved` to manage the `tokenId` token."
      },
      "ApprovalForAll(address,address,bool)": {
        "details": "Emitted when `owner` enables or disables (`approved`) `operator` to manage all of its assets."
      },
      "EIP712DomainChanged()": {
        "details": "MAY be emitted to signal that the domain could have changed."
      },
      "Initialized(uint64)": {
        "details": "Triggered when the contract has been initialized or reinitialized."
      },
      "Transfer(address,address,uint256)": {
        "details": "Emitted when `tokenId` token is transferred from `from` to `to`."
      }
    },
    "kind": "dev",
    "methods": {
      "addMinter(address)": {
        "details": "Add `minter` to the list of allowed minters."
      },
      "addMinters(address[])": {
        "details": "Add `minters` to the list of allowed minters."
      },
      "approve(address,uint256)": {
        "details": "See {IERC721-approve}."
      },
      "balanceOf(address)": {
        "details": "See {IERC721-balanceOf}."
      },
      "baseURI()": {
        "details": "Returns the base URI set via {_setBaseURI}. This will be automatically added as a prefix in {tokenURI} to each token's URI, or to the token ID if no specific URI is set for that token ID."
      },
      "burn(uint256)": {
        "details": "Burns `tokenId`. See {ERC721-_burn}. Requirements: - The caller must own `tokenId` or be an approved operator."
      },
      "eip712Domain()": {
        "details": "returns the fields and values that describe the domain separator used by this contract for EIP-712 signature."
      },
      "getApproved(uint256)": {
        "details": "See {IERC721-getApproved}."
      },
      "isMinter(address)": {
        "details": "Returns `true` if `account` has been granted to minters."
      },
      "name()": {
        "details": "See {IERC721Metadata-name}."
      },
      "owner()": {
        "details": "Returns the address of the current owner."
      },
      "ownerOf(uint256)": {
        "details": "See {IERC721-ownerOf}."
      },
      "removeMinter(address)": {
        "details": "Revoke `_minter` from the list of allowed minters."
      },
      "renounceOwnership()": {
        "details": "Leaves the contract without owner. It will not be possible to call `onlyOwner` functions. Can only be called by the current owner. NOTE: Renouncing ownership will leave the contract without an owner, thereby disabling any functionality that is only available to the owner."
      },
      "safeTransferFrom(address,address,uint256)": {
        "details": "See {IERC721-safeTransferFrom}."
      },
      "safeTransferFrom(address,address,uint256,bytes)": {
        "details": "See {IERC721-safeTransferFrom}."
      },
      "setApprovalForAll(address,bool)": {
        "details": "See {IERC721-setApprovalForAll}."
      },
      "symbol()": {
        "details": "See {IERC721Metadata-symbol}."
      },
      "transferFrom(address,address,uint256)": {
        "details": "See {IERC721-transferFrom}."
      },
      "transferOwnership(address)": {
        "details": "Transfers ownership of the contract to a new account (`newOwner`). Can only be called by the current owner."
      }
    },
    "version": 1
  },
  "evm": {
    "gasEstimates": {
      "creation": {
        "codeDepositCost": "3478800",
        "executionCost": "3891",
        "totalCost": "3482691"
      },
      "external": {
        "__ERC721RaribleUser_init(string,string,string,string,address[],address,address,address)": "infinite",
        "__ERC721Rarible_init(string,string,string,string,address,address,address)": "infinite",
        "addMinter(address)": "28437",
        "addMinters(address[])": "infinite",
        "approve(address,uint256)": "infinite",
        "balanceOf(address)": "2668",
        "baseURI()": "infinite",
        "burn(uint256)": "infinite",
        "contractURI()": "infinite",
        "eip712Domain()": "infinite",
        "getApproved(uint256)": "4817",
        "getCreators(uint256)": "infinite",
        "getRaribleV2Royalties(uint256)": "infinite",
        "isApprovedForAll(address,address)": "infinite",
        "isMinter(address)": "2596",
        "mintAndTransfer((uint256,string,(address,uint96)[],(address,uint96)[],bytes[]),address)": "infinite",
        "name()": "infinite",
        "owner()": "2390",
        "ownerOf(uint256)": "2598",
        "removeMinter(address)": "28382",
        "renounceOwnership()": "infinite",
        "royaltyInfo(uint256,uint256)": "infinite",
        "safeTransferFrom(address,address,uint256)": "infinite",
        "safeTransferFrom(address,address,uint256,bytes)": "infinite",
        "setApprovalForAll(address,bool)": "26726",
        "setBaseURI(string)": "infinite",
        "supportsInterface(bytes4)": "infinite",
        "symbol()": "infinite",
        "tokenURI(uint256)": "infinite",
        "transferFrom(address,address,uint256)": "infinite",
        "transferFromOrMint((uint256,string,(address,uint96)[],(address,uint96)[],bytes[]),address,address)": "infinite",
        "transferOwnership(address)": "infinite",
        "updateAccount(uint256,address,address)": "infinite"
      },
      "internal": {
        "__ERC721Rarible_init_unchained(string memory,string memory,string memory,string memory,address,address,address)": "infinite"
      }
    }
  },
  "storageLayout": {
    "storage": [
      {
        "astId": 19763,
        "contract": "npm/@rarible/tokens@local/contracts/erc-721-minimal/ERC721RaribleMinimal.sol:ERC721RaribleMinimal",
        "label": "__gap",
        "offset": 0,
        "slot": "0",
        "type": "t_array(t_uint256)50_storage"
      },
      {
        "astId": 20965,
        "contract": "npm/@rarible/tokens@local/contracts/erc-721-minimal/ERC721RaribleMinimal.sol:ERC721RaribleMinimal",
        "label": "_name",
        "offset": 0,
        "slot": "50",
        "type": "t_string_storage"
      },
      {
        "astId": 20967,
        "contract": "npm/@rarible/tokens@local/contracts/erc-721-minimal/ERC721RaribleMinimal.sol:ERC721RaribleMinimal",
        "label": "_symbol",
        "offset": 0,
        "slot": "51",
        "type": "t_string_storage"
      },
      {
        "astId": 20971,
        "contract": "npm/@rarible/tokens@local/contracts/erc-721-minimal/ERC721RaribleMinimal.sol:ERC721RaribleMinimal",
        "label": "_owners",
        "offset": 0,
        "slot": "52",
        "type": "t_mapping(t_uint256,t_address)"
      },
      {
        "astId": 20975,
        "contract": "npm/@rarible/tokens@local/contracts/erc-721-minimal/ERC721RaribleMinimal.sol:ERC721RaribleMinimal",
        "label": "_balances",
        "offset": 0,
        "slot": "53",
        "type": "t_mapping(t_address,t_uint256)"
      },
      {
        "astId": 20979,
        "contract": "npm/@rarible/tokens@local/contracts/erc-721-minimal/ERC721RaribleMinimal.sol:ERC721RaribleMinimal",
        "label": "_tokenApprovals",
        "offset": 0,
        "slot": "54",
        "type": "t_mapping(t_uint256,t_address)"
      },
      {
        "astId": 20985,
        "contract": "npm/@rarible/tokens@local/contracts/erc-721-minimal/ERC721RaribleMinimal.sol:ERC721RaribleMinimal",
        "label": "_operatorApprovals",
        "offset": 0,
        "slot": "55",
        "type": "t_mapping(t_address,t_mapping(t_address,t_bool))"
      },
      {
        "astId": 20995,
        "contract": "npm/@rarible/tokens@local/contracts/erc-721-minimal/ERC721RaribleMinimal.sol:ERC721RaribleMinimal",
        "label": "_burnedTokens",
        "offset": 0,
        "slot": "56",
        "type": "t_mapping(t_uint256,t_bool)"
      },
      {
        "astId": 21790,
        "contract": "npm/@rarible/tokens@local/contracts/erc-721-minimal/ERC721RaribleMinimal.sol:ERC721RaribleMinimal",
        "label": "__gap",
        "offset": 0,
        "slot": "57",
        "type": "t_array(t_uint256)43_storage"
      },
      {
        "astId": 20010,
        "contract": "npm/@rarible/tokens@local/contracts/erc-721-minimal/ERC721RaribleMinimal.sol:ERC721RaribleMinimal",
        "label": "defaultApprovals",
        "offset": 0,
        "slot": "100",
        "type": "t_mapping(t_address,t_bool)"
      },
      {
        "astId": 20081,
        "contract": "npm/@rarible/tokens@local/contracts/erc-721-minimal/ERC721RaribleMinimal.sol:ERC721RaribleMinimal",
        "label": "__gap",
        "offset": 0,
        "slot": "101",
        "type": "t_array(t_uint256)50_storage"
      },
      {
        "astId": 20000,
        "contract": "npm/@rarible/tokens@local/contracts/erc-721-minimal/ERC721RaribleMinimal.sol:ERC721RaribleMinimal",
        "label": "__gap",
        "offset": 0,
        "slot": "151",
        "type": "t_array(t_uint256)50_storage"
      },
      {
        "astId": 19150,
        "contract": "npm/@rarible/tokens@local/contracts/erc-721-minimal/ERC721RaribleMinimal.sol:ERC721RaribleMinimal",
        "label": "__gap",
        "offset": 0,
        "slot": "201",
        "type": "t_array(t_uint256)50_storage"
      },
      {
        "astId": 18695,
        "contract": "npm/@rarible/tokens@local/contracts/erc-721-minimal/ERC721RaribleMinimal.sol:ERC721RaribleMinimal",
        "label": "royalties",
        "offset": 0,
        "slot": "251",
        "type": "t_mapping(t_uint256,t_array(t_struct(Part)16058_storage)dyn_storage)"
      },
      {
        "astId": 20793,
        "contract": "npm/@rarible/tokens@local/contracts/erc-721-minimal/ERC721RaribleMinimal.sol:ERC721RaribleMinimal",
        "label": "_tokenURIs",
        "offset": 0,
        "slot": "252",
        "type": "t_mapping(t_uint256,t_string_storage)"
      },
      {
        "astId": 20795,
        "contract": "npm/@rarible/tokens@local/contracts/erc-721-minimal/ERC721RaribleMinimal.sol:ERC721RaribleMinimal",
        "label": "_baseURI",
        "offset": 0,
        "slot": "253",
        "type": "t_string_storage"
      },
      {
        "astId": 20930,
        "contract": "npm/@rarible/tokens@local/contracts/erc-721-minimal/ERC721RaribleMinimal.sol:ERC721RaribleMinimal",
        "label": "__gap",
        "offset": 0,
        "slot": "254",
        "type": "t_array(t_uint256)50_storage"
      },
      {
        "astId": 20121,
        "contract": "npm/@rarible/tokens@local/contracts/erc-721-minimal/ERC721RaribleMinimal.sol:ERC721RaribleMinimal",
        "label": "creators",
        "offset": 0,
        "slot": "304",
        "type": "t_mapping(t_uint256,t_array(t_struct(Part)16058_storage)dyn_storage)"
      },
      {
        "astId": 20555,
        "contract": "npm/@rarible/tokens@local/contracts/erc-721-minimal/ERC721RaribleMinimal.sol:ERC721RaribleMinimal",
        "label": "__gap",
        "offset": 0,
        "slot": "305",
        "type": "t_array(t_uint256)50_storage"
      },
      {
        "astId": 18976,
        "contract": "npm/@rarible/tokens@local/contracts/erc-721-minimal/ERC721RaribleMinimal.sol:ERC721RaribleMinimal",
        "label": "contractURI",
        "offset": 0,
        "slot": "355",
        "type": "t_string_storage"
      },
      {
        "astId": 19025,
        "contract": "npm/@rarible/tokens@local/contracts/erc-721-minimal/ERC721RaribleMinimal.sol:ERC721RaribleMinimal",
        "label": "__gap",
        "offset": 0,
        "slot": "356",
        "type": "t_array(t_uint256)49_storage"
      },
      {
        "astId": 19911,
        "contract": "npm/@rarible/tokens@local/contracts/erc-721-minimal/ERC721RaribleMinimal.sol:ERC721RaribleMinimal",
        "label": "__gap",
        "offset": 0,
        "slot": "405",
        "type": "t_array(t_uint256)50_storage"
      },
      {
        "astId": 19031,
        "contract": "npm/@rarible/tokens@local/contracts/erc-721-minimal/ERC721RaribleMinimal.sol:ERC721RaribleMinimal",
        "label": "isPrivate",
        "offset": 0,
        "slot": "455",
        "type": "t_bool"
      },
      {
        "astId": 19035,
        "contract": "npm/@rarible/tokens@local/contracts/erc-721-minimal/ERC721RaribleMinimal.sol:ERC721RaribleMinimal",
        "label": "__gap",
        "offset": 0,
        "slot": "456",
        "type": "t_array(t_uint256)49_storage"
      },
      {
        "astId": 19160,
        "contract": "npm/@rarible/tokens@local/contracts/erc-721-minimal/ERC721RaribleMinimal.sol:ERC721RaribleMinimal",
        "label": "_minters",
        "offset": 0,
        "slot": "505",
        "type": "t_mapping(t_address,t_bool)"
      },
      {
        "astId": 19284,
        "contract": "npm/@rarible/tokens@local/contracts/erc-721-minimal/ERC721RaribleMinimal.sol:ERC721RaribleMinimal",
        "label": "__gap",
        "offset": 0,
        "slot": "506",
        "type": "t_array(t_uint256)50_storage"
      }
    ],
    "types": {
      "t_address": {
        "encoding": "inplace",
        "label": "address",
        "numberOfBytes": "20"
      },
      "t_address_payable": {
        "encoding": "inplace",
        "label": "address payable",
        "numberOfBytes": "20"
      },
      "t_array(t_struct(Part)16058_storage)dyn_storage": {
        "base": "t_struct(Part)16058_storage",
        "encoding": "dynamic_array",
        "label": "struct LibPart.Part[]",
        "numberOfBytes": "32"
      },
      "t_array(t_uint256)43_storage": {
        "base": "t_uint256",
        "encoding": "inplace",
        "label": "uint256[43]",
        "numberOfBytes": "1376"
      },
      "t_array(t_uint256)49_storage": {
        "base": "t_uint256",
        "encoding": "inplace",
        "label": "uint256[49]",
        "numberOfBytes": "1568"
      },
      "t_array(t_uint256)50_storage": {
        "base": "t_uint256",
        "encoding": "inplace",
        "label": "uint256[50]",
        "numberOfBytes": "1600"
      },
      "t_bool": {
        "encoding": "inplace",
        "label": "bool",
        "numberOfBytes": "1"
      },
      "t_mapping(t_address,t_bool)": {
        "encoding": "mapping",
        "key": "t_address",
        "label": "mapping(address => bool)",
        "numberOfBytes": "32",
        "value": "t_bool"
      },
      "t_mapping(t_address,t_mapping(t_address,t_bool))": {
        "encoding": "mapping",
        "key": "t_address",
        "label": "mapping(address => mapping(address => bool))",
        "numberOfBytes": "32",
        "value": "t_mapping(t_address,t_bool)"
      },
      "t_mapping(t_address,t_uint256)": {
        "encoding": "mapping",
        "key": "t_address",
        "label": "mapping(address => uint256)",
        "numberOfBytes": "32",
        "value": "t_uint256"
      },
      "t_mapping(t_uint256,t_address)": {
        "encoding": "mapping",
        "key": "t_uint256",
        "label": "mapping(uint256 => address)",
        "numberOfBytes": "32",
        "value": "t_address"
      },
      "t_mapping(t_uint256,t_array(t_struct(Part)16058_storage)dyn_storage)": {
        "encoding": "mapping",
        "key": "t_uint256",
        "label": "mapping(uint256 => struct LibPart.Part[])",
        "numberOfBytes": "32",
        "value": "t_array(t_struct(Part)16058_storage)dyn_storage"
      },
      "t_mapping(t_uint256,t_bool)": {
        "encoding": "mapping",
        "key": "t_uint256",
        "label": "mapping(uint256 => bool)",
        "numberOfBytes": "32",
        "value": "t_bool"
      },
      "t_mapping(t_uint256,t_string_storage)": {
        "encoding": "mapping",
        "key": "t_uint256",
        "label": "mapping(uint256 => string)",
        "numberOfBytes": "32",
        "value": "t_string_storage"
      },
      "t_string_storage": {
        "encoding": "bytes",
        "label": "string",
        "numberOfBytes": "32"
      },
      "t_struct(Part)16058_storage": {
        "encoding": "inplace",
        "label": "struct LibPart.Part",
        "members": [
          {
            "astId": 16055,
            "contract": "npm/@rarible/tokens@local/contracts/erc-721-minimal/ERC721RaribleMinimal.sol:ERC721RaribleMinimal",
            "label": "account",
            "offset": 0,
            "slot": "0",
            "type": "t_address_payable"
          },
          {
            "astId": 16057,
            "contract": "npm/@rarible/tokens@local/contracts/erc-721-minimal/ERC721RaribleMinimal.sol:ERC721RaribleMinimal",
            "label": "value",
            "offset": 20,
            "slot": "0",
            "type": "t_uint96"
          }
        ],
        "numberOfBytes": "32"
      },
      "t_uint256": {
        "encoding": "inplace",
        "label": "uint256",
        "numberOfBytes": "32"
      },
      "t_uint96": {
        "encoding": "inplace",
        "label": "uint96",
        "numberOfBytes": "12"
      }
    }
  },
  "userdoc": {
    "kind": "user",
    "methods": {},
    "version": 1
  },
  "solcInputHash": "0e89febeebc7444140de8e67c9067d2c",
  "argsData": "0x000000000000000000000000694642476810cd4dec4375d1538e1ccaa57eef4f000000000000000000000000a4e4b698d0126a76eaa9510c9525edcd3b0f2c0c000000000000000000000000000000000000000000000000000000000000006000000000000000000000000000000000000000000000000000000000000001c4a60c434e00000000000000000000000000000000000000000000000000000000000000e00000000000000000000000000000000000000000000000000000000000000120000000000000000000000000000000000000000000000000000000000000016000000000000000000000000000000000000000000000000000000000000001a00000000000000000000000001d3f902a19cb77ba4c1f077707946a6f4e8eb05a000000000000000000000000ad46fd7abee8c40e6745524efac7a18d44e8e709000000000000000000000000fb571f9da71d1ac33e069571bf5c67fadcff18e4000000000000000000000000000000000000000000000000000000000000000752617269626c6500000000000000000000000000000000000000000000000000000000000000000000000000000000000000000000000000000000000000000452415249000000000000000000000000000000000000000000000000000000000000000000000000000000000000000000000000000000000000000000000006697066733a2f0000000000000000000000000000000000000000000000000000000000000000000000000000000000000000000000000000000000000000000000000000000000000000000000000000000000000000000000000000",
  "transaction": {
    "nonce": "0x37f",
    "hash": "0x8182a6b89856efee5fbe9a74ee0209efbc0284cae44f0a68c32fb15ae9a64382",
    "origin": "0xfb571f9da71d1ac33e069571bf5c67fadcff18e4"
  },
  "immutableReferences": {},
  "inputSourceName": "npm/@rarible/tokens@local/contracts/erc-721-minimal/ERC721RaribleMinimal.sol",
  "linkedData": {
    "deployer": "0xfb571f9da71d1ac33e069571bf5c67fadcff18e4"
  }
}