{
  "address": "0xdd79346a098a8cdd8e46689680c7d2d16abdd0be",
  "abi": [
    {
      "inputs": [],
      "name": "ECDSAInvalidSignature",
      "type": "error"
    },
    {
      "inputs": [
        {
          "internalType": "uint256",
          "name": "length",
          "type": "uint256"
        }
      ],
      "name": "ECDSAInvalidSignatureLength",
      "type": "error"
    },
    {
      "inputs": [
        {
          "internalType": "bytes32",
          "name": "s",
          "type": "bytes32"
        }
      ],
      "name": "ECDSAInvalidSignatureS",
      "type": "error"
    },
    {
      "inputs": [],
      "name": "InvalidInitialization",
      "type": "error"
    },
    {
      "inputs": [],
      "name": "NotInitializing",
      "type": "error"
    },
    {
      "inputs": [
        {
          "internalType": "address",
          "name": "owner",
          "type": "address"
        }
      ],
      "name": "OwnableInvalidOwner",
      "type": "error"
    },
    {
      "inputs": [
        {
          "internalType": "address",
          "name": "account",
          "type": "address"
        }
      ],
      "name": "OwnableUnauthorizedAccount",
      "type": "error"
    },
    {
      "anonymous": false,
      "inputs": [
        {
          "indexed": false,
          "internalType": "uint256",
          "name": "oldValue",
          "type": "uint256"
        },
        {
          "indexed": false,
          "internalType": "uint256",
          "name": "newValue",
          "type": "uint256"
        }
      ],
      "name": "BuyerFeeAmountChanged",
      "type": "event"
    },
    {
      "anonymous": false,
      "inputs": [
        {
          "indexed": false,
          "internalType": "bytes32",
          "name": "hash",
          "type": "bytes32"
        }
      ],
      "name": "Cancel",
      "type": "event"
    },
    {
      "anonymous": false,
      "inputs": [],
      "name": "EIP712DomainChanged",
      "type": "event"
    },
    {
      "anonymous": false,
      "inputs": [
        {
          "indexed": false,
          "internalType": "address",
          "name": "oldValue",
          "type": "address"
        },
        {
          "indexed": false,
          "internalType": "address",
          "name": "newValue",
          "type": "address"
        }
      ],
      "name": "FeeReceiverChanged",
      "type": "event"
    },
    {
      "anonymous": false,
      "inputs": [
        {
          "indexed": false,
          "internalType": "uint64",
          "name": "version",
          "type": "uint64"
        }
      ],
      "name": "Initialized",
      "type": "event"
    },
    {
      "anonymous": false,
      "inputs": [
        {
          "indexed": false,
          "internalType": "bytes32",
          "name": "leftHash",
          "type": "bytes32"
        },
        {
          "indexed": false,
          "internalType": "bytes32",
          "name": "rightHash",
          "type": "bytes32"
        },
        {
          "indexed": false,
          "internalType": "uint256",
          "name": "newLeftFill",
          "type": "uint256"
        },
        {
          "indexed": false,
          "internalType": "uint256",
          "name": "newRightFill",
          "type": "uint256"
        }
      ],
      "name": "Match",
      "type": "event"
    },
    {
      "anonymous": false,
      "inputs": [
        {
          "indexed": true,
          "internalType": "bytes4",
          "name": "assetType",
          "type": "bytes4"
        },
        {
          "indexed": false,
          "internalType": "address",
          "name": "matcher",
          "type": "address"
        }
      ],
      "name": "MatcherChange",
      "type": "event"
    },
    {
      "anonymous": false,
      "inputs": [
        {
          "indexed": true,
          "internalType": "address",
          "name": "previousOwner",
          "type": "address"
        },
        {
          "indexed": true,
          "internalType": "address",
          "name": "newOwner",
          "type": "address"
        }
      ],
      "name": "OwnershipTransferred",
      "type": "event"
    },
    {
      "anonymous": false,
      "inputs": [
        {
          "indexed": true,
          "internalType": "bytes4",
          "name": "assetType",
          "type": "bytes4"
        },
        {
          "indexed": false,
          "internalType": "address",
          "name": "proxy",
          "type": "address"
        }
      ],
      "name": "ProxyChange",
      "type": "event"
    },
    {
      "anonymous": false,
      "inputs": [
        {
          "indexed": false,
          "internalType": "uint256",
          "name": "oldValue",
          "type": "uint256"
        },
        {
          "indexed": false,
          "internalType": "uint256",
          "name": "newValue",
          "type": "uint256"
        }
      ],
      "name": "SellerFeeAmountChanged",
      "type": "event"
    },
    {
      "inputs": [
        {
          "internalType": "address",
          "name": "_transferProxy",
          "type": "address"
        },
        {
          "internalType": "address",
          "name": "_erc20TransferProxy",
          "type": "address"
        },
        {
          "internalType": "uint256",
          "name": "newProtocolFee",
          "type": "uint256"
        },
        {
          "internalType": "address",
          "name": "newDefaultFeeReceiver",
          "type": "address"
        },
        {
          "internalType": "contract IRoyaltiesProvider",
          "name": "newRoyaltiesProvider",
          "type": "address"
        },
        {
          "internalType": "address",
          "name": "initialOwner",
          "type": "address"
        }
      ],
      "name": "__ExchangeV2_init",
      "outputs": [],
      "stateMutability": "nonpayable",
      "type": "function"
    },
    {
      "inputs": [
        {
          "components": [
            {
              "internalType": "address",
              "name": "maker",
              "type": "address"
            },
            {
              "components": [
                {
                  "components": [
                    {
                      "internalType": "bytes4",
                      "name": "assetClass",
                      "type": "bytes4"
                    },
                    {
                      "internalType": "bytes",
                      "name": "data",
                      "type": "bytes"
                    }
                  ],
                  "internalType": "struct LibAsset.AssetType",
                  "name": "assetType",
                  "type": "tuple"
                },
                {
                  "internalType": "uint256",
                  "name": "value",
                  "type": "uint256"
                }
              ],
              "internalType": "struct LibAsset.Asset",
              "name": "makeAsset",
              "type": "tuple"
            },
            {
              "internalType": "address",
              "name": "taker",
              "type": "address"
            },
            {
              "components": [
                {
                  "components": [
                    {
                      "internalType": "bytes4",
                      "name": "assetClass",
                      "type": "bytes4"
                    },
                    {
                      "internalType": "bytes",
                      "name": "data",
                      "type": "bytes"
                    }
                  ],
                  "internalType": "struct LibAsset.AssetType",
                  "name": "assetType",
                  "type": "tuple"
                },
                {
                  "internalType": "uint256",
                  "name": "value",
                  "type": "uint256"
                }
              ],
              "internalType": "struct LibAsset.Asset",
              "name": "takeAsset",
              "type": "tuple"
            },
            {
              "internalType": "uint256",
              "name": "salt",
              "type": "uint256"
            },
            {
              "internalType": "uint256",
              "name": "start",
              "type": "uint256"
            },
            {
              "internalType": "uint256",
              "name": "end",
              "type": "uint256"
            },
            {
              "internalType": "bytes4",
              "name": "dataType",
              "type": "bytes4"
            },
            {
              "internalType": "bytes",
              "name": "data",
              "type": "bytes"
            }
          ],
          "internalType": "struct LibOrder.Order",
          "name": "order",
          "type": "tuple"
        }
      ],
      "name": "cancel",
      "outputs": [],
      "stateMutability": "nonpayable",
      "type": "function"
    },
    {
      "inputs": [
        {
          "components": [
            {
              "internalType": "address",
              "name": "bidMaker",
              "type": "address"
            },
            {
              "internalType": "uint256",
              "name": "bidNftAmount",
              "type": "uint256"
            },
            {
              "internalType": "bytes4",
              "name": "nftAssetClass",
              "type": "bytes4"
            },
            {
              "internalType": "bytes",
              "name": "nftData",
              "type": "bytes"
            },
            {
              "internalType": "uint256",
              "name": "bidPaymentAmount",
              "type": "uint256"
            },
            {
              "internalType": "address",
              "name": "paymentToken",
              "type": "address"
            },
            {
              "internalType": "uint256",
              "name": "bidSalt",
              "type": "uint256"
            },
            {
              "internalType": "uint256",
              "name": "bidStart",
              "type": "uint256"
            },
            {
              "internalType": "uint256",
              "name": "bidEnd",
              "type": "uint256"
            },
            {
              "internalType": "bytes4",
              "name": "bidDataType",
              "type": "bytes4"
            },
            {
              "internalType": "bytes",
              "name": "bidData",
              "type": "bytes"
            },
            {
              "internalType": "bytes",
              "name": "bidSignature",
              "type": "bytes"
            },
            {
              "internalType": "uint256",
              "name": "sellOrderPaymentAmount",
              "type": "uint256"
            },
            {
              "internalType": "uint256",
              "name": "sellOrderNftAmount",
              "type": "uint256"
            },
            {
              "internalType": "bytes",
              "name": "sellOrderData",
              "type": "bytes"
            }
          ],
          "internalType": "struct LibDirectTransfer.AcceptBid",
          "name": "direct",
          "type": "tuple"
        }
      ],
      "name": "directAcceptBid",
      "outputs": [],
      "stateMutability": "payable",
      "type": "function"
    },
    {
      "inputs": [
        {
          "components": [
            {
              "internalType": "address",
              "name": "sellOrderMaker",
              "type": "address"
            },
            {
              "internalType": "uint256",
              "name": "sellOrderNftAmount",
              "type": "uint256"
            },
            {
              "internalType": "bytes4",
              "name": "nftAssetClass",
              "type": "bytes4"
            },
            {
              "internalType": "bytes",
              "name": "nftData",
              "type": "bytes"
            },
            {
              "internalType": "uint256",
              "name": "sellOrderPaymentAmount",
              "type": "uint256"
            },
            {
              "internalType": "address",
              "name": "paymentToken",
              "type": "address"
            },
            {
              "internalType": "uint256",
              "name": "sellOrderSalt",
              "type": "uint256"
            },
            {
              "internalType": "uint256",
              "name": "sellOrderStart",
              "type": "uint256"
            },
            {
              "internalType": "uint256",
              "name": "sellOrderEnd",
              "type": "uint256"
            },
            {
              "internalType": "bytes4",
              "name": "sellOrderDataType",
              "type": "bytes4"
            },
            {
              "internalType": "bytes",
              "name": "sellOrderData",
              "type": "bytes"
            },
            {
              "internalType": "bytes",
              "name": "sellOrderSignature",
              "type": "bytes"
            },
            {
              "internalType": "uint256",
              "name": "buyOrderPaymentAmount",
              "type": "uint256"
            },
            {
              "internalType": "uint256",
              "name": "buyOrderNftAmount",
              "type": "uint256"
            },
            {
              "internalType": "bytes",
              "name": "buyOrderData",
              "type": "bytes"
            }
          ],
          "internalType": "struct LibDirectTransfer.Purchase",
          "name": "direct",
          "type": "tuple"
        }
      ],
      "name": "directPurchase",
      "outputs": [],
      "stateMutability": "payable",
      "type": "function"
    },
    {
      "inputs": [],
      "name": "eip712Domain",
      "outputs": [
        {
          "internalType": "bytes1",
          "name": "fields",
          "type": "bytes1"
        },
        {
          "internalType": "string",
          "name": "name",
          "type": "string"
        },
        {
          "internalType": "string",
          "name": "version",
          "type": "string"
        },
        {
          "internalType": "uint256",
          "name": "chainId",
          "type": "uint256"
        },
        {
          "internalType": "address",
          "name": "verifyingContract",
          "type": "address"
        },
        {
          "internalType": "bytes32",
          "name": "salt",
          "type": "bytes32"
        },
        {
          "internalType": "uint256[]",
          "name": "extensions",
          "type": "uint256[]"
        }
      ],
      "stateMutability": "view",
      "type": "function"
    },
    {
      "inputs": [
        {
          "internalType": "bytes32",
          "name": "",
          "type": "bytes32"
        }
      ],
      "name": "fills",
      "outputs": [
        {
          "internalType": "uint256",
          "name": "",
          "type": "uint256"
        }
      ],
      "stateMutability": "view",
      "type": "function"
    },
    {
      "inputs": [
        {
          "components": [
            {
              "internalType": "address",
              "name": "maker",
              "type": "address"
            },
            {
              "components": [
                {
                  "components": [
                    {
                      "internalType": "bytes4",
                      "name": "assetClass",
                      "type": "bytes4"
                    },
                    {
                      "internalType": "bytes",
                      "name": "data",
                      "type": "bytes"
                    }
                  ],
                  "internalType": "struct LibAsset.AssetType",
                  "name": "assetType",
                  "type": "tuple"
                },
                {
                  "internalType": "uint256",
                  "name": "value",
                  "type": "uint256"
                }
              ],
              "internalType": "struct LibAsset.Asset",
              "name": "makeAsset",
              "type": "tuple"
            },
            {
              "internalType": "address",
              "name": "taker",
              "type": "address"
            },
            {
              "components": [
                {
                  "components": [
                    {
                      "internalType": "bytes4",
                      "name": "assetClass",
                      "type": "bytes4"
                    },
                    {
                      "internalType": "bytes",
                      "name": "data",
                      "type": "bytes"
                    }
                  ],
                  "internalType": "struct LibAsset.AssetType",
                  "name": "assetType",
                  "type": "tuple"
                },
                {
                  "internalType": "uint256",
                  "name": "value",
                  "type": "uint256"
                }
              ],
              "internalType": "struct LibAsset.Asset",
              "name": "takeAsset",
              "type": "tuple"
            },
            {
              "internalType": "uint256",
              "name": "salt",
              "type": "uint256"
            },
            {
              "internalType": "uint256",
              "name": "start",
              "type": "uint256"
            },
            {
              "internalType": "uint256",
              "name": "end",
              "type": "uint256"
            },
            {
              "internalType": "bytes4",
              "name": "dataType",
              "type": "bytes4"
            },
            {
              "internalType": "bytes",
              "name": "data",
              "type": "bytes"
            }
          ],
          "internalType": "struct LibOrder.Order",
          "name": "orderLeft",
          "type": "tuple"
        },
        {
          "internalType": "bytes",
          "name": "signatureLeft",
          "type": "bytes"
        },
        {
          "components": [
            {
              "internalType": "address",
              "name": "maker",
              "type": "address"
            },
            {
              "components": [
                {
                  "components": [
                    {
                      "internalType": "bytes4",
                      "name": "assetClass",
                      "type": "bytes4"
                    },
                    {
                      "internalType": "bytes",
                      "name": "data",
                      "type": "bytes"
                    }
                  ],
                  "internalType": "struct LibAsset.AssetType",
                  "name": "assetType",
                  "type": "tuple"
                },
                {
                  "internalType": "uint256",
                  "name": "value",
                  "type": "uint256"
                }
              ],
              "internalType": "struct LibAsset.Asset",
              "name": "makeAsset",
              "type": "tuple"
            },
            {
              "internalType": "address",
              "name": "taker",
              "type": "address"
            },
            {
              "components": [
                {
                  "components": [
                    {
                      "internalType": "bytes4",
                      "name": "assetClass",
                      "type": "bytes4"
                    },
                    {
                      "internalType": "bytes",
                      "name": "data",
                      "type": "bytes"
                    }
                  ],
                  "internalType": "struct LibAsset.AssetType",
                  "name": "assetType",
                  "type": "tuple"
                },
                {
                  "internalType": "uint256",
                  "name": "value",
                  "type": "uint256"
                }
              ],
              "internalType": "struct LibAsset.Asset",
              "name": "takeAsset",
              "type": "tuple"
            },
            {
              "internalType": "uint256",
              "name": "salt",
              "type": "uint256"
            },
            {
              "internalType": "uint256",
              "name": "start",
              "type": "uint256"
            },
            {
              "internalType": "uint256",
              "name": "end",
              "type": "uint256"
            },
            {
              "internalType": "bytes4",
              "name": "dataType",
              "type": "bytes4"
            },
            {
              "internalType": "bytes",
              "name": "data",
              "type": "bytes"
            }
          ],
          "internalType": "struct LibOrder.Order",
          "name": "orderRight",
          "type": "tuple"
        },
        {
          "internalType": "bytes",
          "name": "signatureRight",
          "type": "bytes"
        }
      ],
      "name": "matchOrders",
      "outputs": [],
      "stateMutability": "payable",
      "type": "function"
    },
    {
      "inputs": [],
      "name": "owner",
      "outputs": [
        {
          "internalType": "address",
          "name": "",
          "type": "address"
        }
      ],
      "stateMutability": "view",
      "type": "function"
    },
    {
      "inputs": [],
      "name": "protocolFee",
      "outputs": [
        {
          "internalType": "address",
          "name": "receiver",
          "type": "address"
        },
        {
          "internalType": "uint48",
          "name": "buyerAmount",
          "type": "uint48"
        },
        {
          "internalType": "uint48",
          "name": "sellerAmount",
          "type": "uint48"
        }
      ],
      "stateMutability": "view",
      "type": "function"
    },
    {
      "inputs": [],
      "name": "renounceOwnership",
      "outputs": [],
      "stateMutability": "nonpayable",
      "type": "function"
    },
    {
      "inputs": [],
      "name": "royaltiesRegistry",
      "outputs": [
        {
          "internalType": "contract IRoyaltiesProvider",
          "name": "",
          "type": "address"
        }
      ],
      "stateMutability": "view",
      "type": "function"
    },
    {
      "inputs": [
        {
          "internalType": "address",
          "name": "_receiver",
          "type": "address"
        },
        {
          "internalType": "uint48",
          "name": "_buyerAmount",
          "type": "uint48"
        },
        {
          "internalType": "uint48",
          "name": "_sellerAmount",
          "type": "uint48"
        }
      ],
      "name": "setAllProtocolFeeData",
      "outputs": [],
      "stateMutability": "nonpayable",
      "type": "function"
    },
    {
      "inputs": [
        {
          "internalType": "bytes4",
          "name": "assetType",
          "type": "bytes4"
        },
        {
          "internalType": "address",
          "name": "matcher",
          "type": "address"
        }
      ],
      "name": "setAssetMatcher",
      "outputs": [],
      "stateMutability": "nonpayable",
      "type": "function"
    },
    {
      "inputs": [
        {
          "internalType": "uint48",
          "name": "_buyerAmount",
          "type": "uint48"
        }
      ],
      "name": "setPrtocolFeeBuyerAmount",
      "outputs": [],
      "stateMutability": "nonpayable",
      "type": "function"
    },
    {
      "inputs": [
        {
          "internalType": "address",
          "name": "_receiver",
          "type": "address"
        }
      ],
      "name": "setPrtocolFeeReceiver",
      "outputs": [],
      "stateMutability": "nonpayable",
      "type": "function"
    },
    {
      "inputs": [
        {
          "internalType": "uint48",
          "name": "_sellerAmount",
          "type": "uint48"
        }
      ],
      "name": "setPrtocolFeeSellerAmount",
      "outputs": [],
      "stateMutability": "nonpayable",
      "type": "function"
    },
    {
      "inputs": [
        {
          "internalType": "contract IRoyaltiesProvider",
          "name": "newRoyaltiesRegistry",
          "type": "address"
        }
      ],
      "name": "setRoyaltiesRegistry",
      "outputs": [],
      "stateMutability": "nonpayable",
      "type": "function"
    },
    {
      "inputs": [
        {
          "internalType": "bytes4",
          "name": "assetType",
          "type": "bytes4"
        },
        {
          "internalType": "address",
          "name": "proxy",
          "type": "address"
        }
      ],
      "name": "setTransferProxy",
      "outputs": [],
      "stateMutability": "nonpayable",
      "type": "function"
    },
    {
      "inputs": [
        {
          "internalType": "address",
          "name": "newOwner",
          "type": "address"
        }
      ],
      "name": "transferOwnership",
      "outputs": [],
      "stateMutability": "nonpayable",
      "type": "function"
    }
  ],
  "contractName": "ExchangeV2",
  "sourceName": "@rarible/exchange-v2/contracts/ExchangeV2.sol",
  "bytecode": "0x6080604052348015600e575f5ffd5b506150ba8061001c5f395ff3fe608060405260043610610110575f3560e01c80638da5cb5b1161009d578063d6ca6ab711610062578063d6ca6ab71461034a578063e2864fe314610369578063e99a3f8014610388578063eae3ad6f1461039b578063f2fde38b146103ba575f5ffd5b80638da5cb5b14610249578063b0e21e8a14610285578063b39deb46146102ed578063b74c8e9a1461030c578063bc158c2d1461032b575f5ffd5b80633be89922116100e35780633be89922146101a557806367d49a3b146101c45780636d8f0694146101d7578063715018a61461020e57806384b0196e14610222575f5ffd5b80630d5f7d351461011457806320158c441461012957806330c642f1146101675780633528867114610186575b5f5ffd5b610127610122366004614087565b6103d9565b005b348015610134575f5ffd5b506101546101433660046140b8565b60966020525f908152604090205481565b6040519081526020015b60405180910390f35b348015610172575f5ffd5b5061012761018136600461410e565b6106ef565b348015610191575f5ffd5b506101276101a0366004614145565b610764565b3480156101b0575f5ffd5b506101276101bf3660046141ba565b610920565b6101276101d2366004614087565b61094a565b3480156101e2575f5ffd5b5060c9546101f6906001600160a01b031681565b6040516001600160a01b03909116815260200161015e565b348015610219575f5ffd5b50610127610c23565b34801561022d575f5ffd5b50610236610c36565b60405161015e9796959493929190614203565b348015610254575f5ffd5b507f9016d09d72d40fdae2fd8ceac6b6234c7706214fd39c1cd1e609a0528c199300546001600160a01b03166101f6565b348015610290575f5ffd5b5060c8546102bf906001600160a01b0381169065ffffffffffff600160a01b8204811691600160d01b90041683565b604080516001600160a01b03909416845265ffffffffffff928316602085015291169082015260600161015e565b3480156102f8575f5ffd5b5061012761030736600461410e565b610ce4565b348015610317575f5ffd5b506101276103263660046142ae565b610d4f565b348015610336575f5ffd5b506101276103453660046141ba565b610d77565b348015610355575f5ffd5b506101276103643660046142f0565b610de8565b348015610374575f5ffd5b506101276103833660046145d9565b610e67565b61012761039636600461460a565b610f5d565b3480156103a6575f5ffd5b506101276103b53660046142f0565b610f73565b3480156103c5575f5ffd5b506101276103d43660046141ba565b610fef565b5f6103f26103ed60c0840160a085016141ba565b61102c565b6040805161012081019091529091505f908061041160208601866141ba565b6001600160a01b031681526020016040518060400160405280604051806040016040528088604001602081019061044891906146bf565b6001600160e01b031916815260200161046460608a018a6146da565b8080601f0160208091040260200160405190810160405280939291908181526020018383808284375f920182905250939094525050918352506020888101359281019290925291835282810191909152604080518082018252868152608080890135938201939093529083015260c080870135606084015260e08701359183019190915261010086013560a083015201610506610140860161012087016146bf565b6001600160e01b03191681526020016105236101408601866146da565b8080601f0160208091040260200160405190810160405280939291908181526020018383808284375f920182905250939094525050604080516101208101825282815281518083018352878152610180890135602082810191909152820152808201839052815160808101835294955091939192506060808401929182918282019182916105b691908c01908c016146bf565b6001600160e01b03191681526020016105d260608b018b6146da565b8080601f0160208091040260200160405190810160405280939291908181526020018383808284375f920182905250939094525050918352506101a08901356020928301529183528201819052604082018190526060820152608001610640610140870161012088016146bf565b6001600160e01b031916815260200161065d6101c08701876146da565b8080601f0160208091040260200160405190810160405280939291908181526020018383808284375f92019190915250505091525090506106df826106a66101608701876146da565b8080601f0160208091040260200160405190810160405280939291908181526020018383808284375f920191909152506110ab92505050565b6106e982826110c2565b50505050565b6106f7611357565b6001600160e01b031982165f8181526032602090815260409182902080546001600160a01b0319166001600160a01b03861690811790915591519182527f4b5aced933c0c9a88aeac3f0b3b72c5aaf75df8ebaf53225773248c4c315359391015b60405180910390a25050565b5f61076d6113b2565b805490915060ff600160401b82041615906001600160401b03165f811580156107935750825b90505f826001600160401b031660011480156107ae5750303b155b9050811580156107bc575080155b156107da5760405163f92ee8a960e01b815260040160405180910390fd5b845467ffffffffffffffff19166001178555831561080457845460ff60401b1916600160401b1785555b61080c6113da565b610815866113e2565b60326020527ff0b999fe7cea7235132737eecee26f1ac2c66c45fa4b545fd4b30a25759b768f80546001600160a01b038c81166001600160a01b0319928316179092557f033c1347b99d428f1d673e53c1e27d112d0a8572598e539122df71c4385697c08054928e169282168317905563025ceed960e61b5f527fa1ff489f5df595da5159f7593df553585a8359e7a4e0d738b7bcfc4e5af7716f805490911690911790556108c58989896113ea565b6108cd6114f5565b831561091357845460ff60401b19168555604051600181527fc7f505b2f371ae2175ee4913f4499e1f2633a7b5936321eed1cdaeb6115181d29060200160405180910390a15b5050505050505050505050565b610928611357565b60c980546001600160a01b0319166001600160a01b0392909216919091179055565b5f61095e6103ed60c0840160a085016141ba565b6040805161012081019091529091505f908061097d60208601866141ba565b6001600160a01b031681526020016040518060400160405280858152602001866080013581525081526020015f6001600160a01b03168152602001604051806040016040528060405180604001604052808860400160208101906109e191906146bf565b6001600160e01b03191681526020016109fd60608a018a6146da565b8080601f0160208091040260200160405190810160405280939291908181526020018383808284375f92019190915250505091525081526020878101359181019190915290825260c08601359082015260e085013560408201526101008501356060820152608001610a77610140860161012087016146bf565b6001600160e01b0319168152602001610a946101408601866146da565b8080601f0160208091040260200160405190810160405280939291908181526020018383808284375f9201829052509390945250506040805161012081018252828152815160808101835294955091939192506020830191908190818101908190610b059060608c01908c016146bf565b6001600160e01b0319168152602001610b2160608b018b6146da565b8080601f0160208091040260200160405190810160405280939291908181526020018383808284375f920182905250939094525050918352506101a08901356020928301529183528281018290526040805180820182528881526101808a013592810192909252830152606082018190526080820181905260a082015260c001610bb3610140870161012088016146bf565b6001600160e01b0319168152602001610bd06101c08701876146da565b8080601f0160208091040260200160405190810160405280939291908181526020018383808284375f9201919091525050509152509050610c19826106a66101608701876146da565b6106e981836110c2565b610c2b611357565b610c345f611625565b565b5f60608082808083815f5160206150655f395f51905f528054909150158015610c6157506001810154155b610caa5760405162461bcd60e51b81526020600482015260156024820152741152540dcc4c8e88155b9a5b9a5d1a585b1a5e9959605a1b60448201526064015b60405180910390fd5b610cb2611695565b610cba611755565b604080515f80825260208201909252600f60f81b9c939b5091995046985030975095509350915050565b610cec611357565b6001600160e01b031982165f818152602081815260409182902080546001600160a01b0319166001600160a01b03861690811790915591519182527fd2bf91075f105d0fd80328da28e20ebdad1c1261839711183bc29a44cbe6c72f9101610758565b610d57611357565b610d6083610d77565b610d6982610de8565b610d7281610f73565b505050565b610d7f611357565b60c854604080516001600160a01b03928316815291831660208301527fa4b009cc442411b602eaf94bc0579b6abdb8fd90b4ef5b9426e270038906bd03910160405180910390a160c880546001600160a01b0319166001600160a01b0392909216919091179055565b610df0611357565b60c85460408051600160a01b90920465ffffffffffff9081168352831660208301527f70bba4f904a93ba5c1af3a1bb602bc9c058551dbe963dfe0b6cb5bc11c5fea9e910160405180910390a160c8805465ffffffffffff909216600160a01b0265ffffffffffff60a01b19909216919091179055565b80516001600160a01b0316336001600160a01b031614610eb75760405162461bcd60e51b815260206004820152600b60248201526a3737ba10309036b0b5b2b960a91b6044820152606401610ca1565b80608001515f03610f015760405162461bcd60e51b81526020600482015260146024820152730c081cd85b1d0818d85b89dd081899481d5cd95960621b6044820152606401610ca1565b5f610f0b82611793565b5f81815260966020526040908190205f199055519091507fe8d9861dbc9c663ed3accd261bbe2fe01e0d3d9e5f51fa38523b265c7757a93a90610f519083815260200190565b60405180910390a15050565b610f698484848461187b565b6106e984836110c2565b610f7b611357565b60c85460408051600160d01b90920465ffffffffffff9081168352831660208301527fa8af9093caa9beb61d20432227c66258ceef926f21879b80f3adf22a4d19f131910160405180910390a160c8805465ffffffffffff909216600160d01b026001600160d01b03909216919091179055565b610ff7611357565b6001600160a01b03811661102057604051631e4fbdf760e01b81525f6004820152602401610ca1565b61102981611625565b50565b604080518082019091525f815260606020820152604080518082019091525f8152606060208201526001600160a01b038316611071576355575f5d60e11b81526110a5565b6322ba176160e21b8152604080516001600160a01b03851660208201520160408051601f1981840301815291905260208201525b92915050565b6110b4826119bd565b6110be8282611a7d565b5050565b5f5f6110ce8484611d4c565b915091505f5f5f6110df8787611e4b565b9250925092505f5f6112406040518060c0016040528060405180604001604052808b8152602001875f01518152508152602001875f015181526020018760200151815260200160325f8b5f01516001600160e01b0319166001600160e01b03191681526020019081526020015f205f9054906101000a90046001600160a01b03166001600160a01b031681526020018b5f01516001600160a01b03168152602001876060015115158152506040518060c0016040528060405180604001604052808b815260200188602001518152508152602001875f015181526020018760200151815260200160325f8b5f01516001600160e01b0319166001600160e01b03191681526020019081526020015f205f9054906101000a90046001600160a01b03166001600160a01b031681526020018b5f01516001600160a01b031681526020018760600151151581525061123b8a5f01518a5f0151611f2f565b611ff8565b885191935091506001600160e01b031916632aa8a0a360e11b016112dd5785516001600160e01b031916632aa8a0a360e11b0161127b575f5ffd5b813410156112bc5760405162461bcd60e51b815260206004820152600e60248201526d0dcdee840cadcdeeaced040cae8d60931b6044820152606401610ca1565b813411156112d8576112d86112d18334614730565b3390612171565b61134c565b85516001600160e01b031916632aa8a0a360e11b0161134c57803410156113375760405162461bcd60e51b815260206004820152600e60248201526d0dcdee840cadcdeeaced040cae8d60931b6044820152606401610ca1565b8034111561134c5761134c6112d18234614730565b505050505050505050565b336113897f9016d09d72d40fdae2fd8ceac6b6234c7706214fd39c1cd1e609a0528c199300546001600160a01b031690565b6001600160a01b031614610c345760405163118cdaa760e01b8152336004820152602401610ca1565b5f807ff0c57e16840df040f15088dc2f81fe391c3923bec73e23a9662efc9c229c6a006110a5565b610c34612202565b610ff7612202565b5f6113f36113b2565b805490915060ff600160401b82041615906001600160401b03165f811580156114195750825b90505f826001600160401b031660011480156114345750303b155b905081158015611442575080155b156114605760405163f92ee8a960e01b815260040160405180910390fd5b845467ffffffffffffffff19166001178555831561148a57845460ff60401b1916600160401b1785555b60c980546001600160a01b0319166001600160a01b03881617905583156114eb57845460ff60401b19168555604051600181527fc7f505b2f371ae2175ee4913f4499e1f2633a7b5936321eed1cdaeb6115181d29060200160405180910390a15b5050505050505050565b5f6114fe6113b2565b805490915060ff600160401b82041615906001600160401b03165f811580156115245750825b90505f826001600160401b0316600114801561153f5750303b155b90508115801561154d575080155b1561156b5760405163f92ee8a960e01b815260040160405180910390fd5b845467ffffffffffffffff19166001178555831561159557845460ff60401b1916600160401b1785555b6115d86040518060400160405280600881526020016745786368616e676560c01b815250604051806040016040528060018152602001601960f91b815250612227565b831561161e57845460ff60401b19168555604051600181527fc7f505b2f371ae2175ee4913f4499e1f2633a7b5936321eed1cdaeb6115181d29060200160405180910390a15b5050505050565b7f9016d09d72d40fdae2fd8ceac6b6234c7706214fd39c1cd1e609a0528c19930080546001600160a01b031981166001600160a01b03848116918217845560405192169182907f8be0079c531659141344cd1fd0a4f28419497f9722a3daafe3b4186f6b6457e0905f90a3505050565b7fa16a46d94261c7517cc8ff89f61c0ce93598e3c849801011dee649a6a557d10280546060915f5160206150655f395f51905f52916116d390614743565b80601f01602080910402602001604051908101604052809291908181526020018280546116ff90614743565b801561174a5780601f106117215761010080835404028352916020019161174a565b820191905f5260205f20905b81548152906001019060200180831161172d57829003601f168201915b505050505091505090565b7fa16a46d94261c7517cc8ff89f61c0ce93598e3c849801011dee649a6a557d10380546060915f5160206150655f395f51905f52916116d390614743565b60e08101515f906001600160e01b031916632611a13360e11b14806117c6575060e08201516001600160e01b0319908116145b156118375781516020830151516117dc90612286565b6060840151516117eb90612286565b608080860151604080516001600160a01b039096166020870152850193909352606084019190915282015260a0015b604051602081830303815290604052805190602001209050919050565b815160208301515161184890612286565b60608401515161185790612286565b846080015185610100015160405160200161181a959493929190614775565b919050565b61188584846110ab565b61188f82826110ab565b60408401516001600160a01b0316156119265781516001600160a01b0316156119265783604001516001600160a01b0316825f01516001600160a01b0316146119265760405162461bcd60e51b815260206004820152602360248201527f6c6566744f726465722e74616b657220766572696669636174696f6e206661696044820152621b195960ea1b6064820152608401610ca1565b60408201516001600160a01b0316156106e95783516001600160a01b0316156106e957835f01516001600160a01b031682604001516001600160a01b0316146106e95760405162461bcd60e51b8152602060048201526024808201527f72696768744f726465722e74616b657220766572696669636174696f6e2066616044820152631a5b195960e21b6064820152608401610ca1565b60a081015115806119d15750428160a00151105b611a1d5760405162461bcd60e51b815260206004820152601d60248201527f4f726465722073746172742076616c69646174696f6e206661696c65640000006044820152606401610ca1565b60c08101511580611a315750428160c00151115b6110295760405162461bcd60e51b815260206004820152601b60248201527f4f7264657220656e642076616c69646174696f6e206661696c656400000000006044820152606401610ca1565b81608001515f03611af35781516001600160a01b0316156110be5781516001600160a01b0316336001600160a01b0316146110be5760405162461bcd60e51b815260206004820152601660248201527536b0b5b2b91034b9903737ba103a3c1039b2b73232b960511b6044820152606401610ca1565b81516001600160a01b0316336001600160a01b0316146110be575f611b17836122e2565b83519091506001600160a01b03163b15611c915782515f906001600160a01b0316631626ba7e611b46846123b8565b856040518363ffffffff1660e01b8152600401611b649291906147a7565b602060405180830381865afa925050508015611b9d575060408051601f3d908101601f19168201909252611b9a918101906147bf565b60015b611ba857505f611bbe565b6001600160e01b031916630b135d3f60e11b1490505b80611c305783516001600160a01b0316611c055760405162461bcd60e51b815260206004820152600860248201526737379036b0b5b2b960c11b6044820152606401610ca1565b83516001600160a01b0316611c2384611c1d856123b8565b906123e4565b6001600160a01b03161490505b806106e95760405162461bcd60e51b815260206004820152602b60248201527f636f6e7472616374206f72646572207369676e6174757265207665726966696360448201526a30ba34b7b71032b93937b960a91b6064820152608401610ca1565b82516001600160a01b0316611ca983611c1d846123b8565b6001600160a01b031614611d0a5760405162461bcd60e51b815260206004820152602260248201527f6f72646572207369676e617475726520766572696669636174696f6e2065727260448201526137b960f11b6064820152608401610ca1565b82516001600160a01b0316610d725760405162461bcd60e51b815260206004820152600860248201526737379036b0b5b2b960c11b6044820152606401610ca1565b604080518082019091525f815260606020820152604080518082019091525f815260606020820152602084015151606084015151611d8a919061240c565b80519092506001600160e01b0319165f03611ddc5760405162461bcd60e51b81526020600482015260126024820152710c2e6e6cae8e640c8dedc4ee840dac2e8c6d60731b6044820152606401610ca1565b606084015151602084015151611df2919061240c565b80519091506001600160e01b0319165f03611e445760405162461bcd60e51b81526020600482015260126024820152710c2e6e6cae8e640c8dedc4ee840dac2e8c6d60731b6044820152606401610ca1565b9250929050565b604080516080810182526060808252602082018190525f928201839052810191909152604080516080810182526060808252602082018190525f928201839052810191909152604080518082019091525f80825260208201525f611eae86611793565b90505f611eba86611793565b875190915033906001600160a01b0316611edb576001600160a01b03811688525b86516001600160a01b0316611ef7576001600160a01b03811687525b611f0088612459565b9550611f0b87612459565b9450611f23888885858a604001518a604001516125f2565b93505050509250925092565b5f632aa8a0a360e11b6001600160e01b0319841601611f50575060016110a5565b632aa8a0a360e11b6001600160e01b0319831601611f70575060026110a5565b631d45e89f60e21b6001600160e01b0319841601611f90575060016110a5565b631d45e89f60e21b6001600160e01b0319831601611fb0575060026110a5565b6301a3112760e61b6001600160e01b0319841601611fd0575060016110a5565b6301a3112760e61b6001600160e01b0319831601611ff0575060026110a5565b505f92915050565b8251602090810151835190910151600183600281111561201a5761201a6147da565b03612097576040805160608101825260c8546001600160a01b038116825265ffffffffffff600160a01b820481166020840152600160d01b909104169181019190915261206a90869086906127f3565b9150612092845f01515f0151855f015160200151866080015188602001518860600151612add565b612169565b60028360028111156120ab576120ab6147da565b03612123576040805160608101825260c8546001600160a01b038116825265ffffffffffff600160a01b820481166020840152600160d01b90910416918101919091526120fb90859087906127f3565b9050612092855f01515f0151865f015160200151876080015187602001518960600151612add565b845180516020918201516080880151928701516060890151612146949190612add565b835180516020918201516080870151928801516060880151612169949190612add565b935093915050565b5f826001600160a01b0316826040515f6040518083038185875af1925050503d805f81146121ba576040519150601f19603f3d011682016040523d82523d5f602084013e6121bf565b606091505b5050905080610d725760405162461bcd60e51b815260206004820152600f60248201526e1d1c985b9cd9995c8819985a5b1959608a1b6044820152606401610ca1565b61220a612cd9565b610c3457604051631afcd79f60e31b815260040160405180910390fd5b61222f612202565b5f5160206150655f395f51905f527fa16a46d94261c7517cc8ff89f61c0ce93598e3c849801011dee649a6a557d1026122688482614832565b50600381016122778382614832565b505f8082556001909101555050565b80516020808301518051908201206040515f9361181a937f452a0dc408cb0d27ffc3b3caff933a5208040a53a9dbecd8d89cad2c0d40e00c939192019283526001600160e01b0319919091166020830152604082015260600190565b5f7f477ed43b8020849b755512278536c3766a3b4ab547519949a75f483372493f8d825f01516123158460200151612cf2565b84604001516123278660600151612cf2565b608087015160a088015160c089015160e08a01516101008b0151805160209182012060405161181a9b9a999897969594939201998a526001600160a01b0398891660208b015260408a0197909752949096166060880152608087019290925260a086015260c085015260e08401929092526001600160e01b0319919091166101008301526101208201526101400190565b5f6110a56123c4612d46565b8360405161190160f01b8152600281019290925260228201526042902090565b5f5f5f5f6123f28686612d54565b9250925092506124028282612d9d565b5090949350505050565b604080518082019091525f8152606060208201525f61242b8484612e55565b80519091506001600160e01b0319165f036124525761244a8385612e55565b9150506110a5565b90506110a5565b604080516080810182526060808252602082018190525f92820183905281019190915260e08201516001600160e01b0319166359ee5ecd60e11b016124c6575f8261010001518060200190518101906124b291906149b9565b8051835260209081015190830152506125d7565b60e08201516001600160e01b03191663dc2dca1160e01b0161251c575f8261010001518060200190518101906124fc9190614afc565b8051835260208082015190840152604090810151151590830152506125d7565b60e08201516001600160e01b031916635a90d59b60e11b01612579575f8261010001518060200190518101906125529190614afc565b805183526020808201519084015260409081015115159083015250600160608201526125d7565b60e08201516001600160e01b0319908116146125d75760405162461bcd60e51b815260206004820152601760248201527f556e6b6e6f776e204f72646572206461746120747970650000000000000000006044820152606401610ca1565b8051515f036118765781516125eb9061308f565b8152919050565b604080518082019091525f80825260208201525f61261488608001518761313c565b90505f61262588608001518761313c565b90505f1982036126475760405162461bcd60e51b8152600401610ca190614b2d565b5f1981036126675760405162461bcd60e51b8152600401610ca190614b2d565b5f6126768a8a85858a8a61315f565b90508960200151602001515f141580612696575060608901516020015115155b156126b95780516126b95760405162461bcd60e51b8152600401610ca190614b2d565b60608a0151602001511515806126d557506020808a0151015115155b156126fd575f8160200151116126fd5760405162461bcd60e51b8152600401610ca190614b2d565b60808a01511561274a57851561272c5780516127199084614b56565b5f8981526096602052604090205561274a565b602081015161273b9084614b56565b5f898152609660205260409020555b60808901511561279757841561277c5760208101516127699083614b56565b5f88815260966020526040902055612797565b80516127889083614b56565b5f888152609660205260409020555b6020818101518251604080518c81529384018b905283019190915260608201527f956cd63ee4cdcd81fda5f0ec7c6c36dceda99e1b412f4a650a5d26055dc3c4509060800160405180910390a1925050505b9695505050505050565b5f5f8460a00151612804575f61280a565b82602001515b65ffffffffffff1690505f8460a00151612824575f61282a565b83604001515b65ffffffffffff16905061284a865f015160200151838860400151613201565b92505f61287984885f0151602001518960800151858761286a9190614b56565b89518c515160608e01516132da565b875180518851516020808b015193015160808c015160608d01519596506128a7959394929387929190613322565b905086604001515160011480156128c357508560400151516001145b8015612920575086604001515f815181106128e0576128e0614b69565b60200260200101515f01516001600160a01b031686604001515f8151811061290a5761290a614b69565b60200260200101515f01516001600160a01b0316145b15612a5e576040805160018082528183019092525f91816020015b604080518082019091525f808252602082015281526020019060019003908161293b57905050905086604001515f8151811061297957612979614b69565b60200260200101515f0151815f8151811061299657612996614b69565b60209081029190910101516001600160a01b039091169052604088015180515f906129c3576129c3614b69565b60200260200101516020015187604001515f815181106129e5576129e5614b69565b6020026020010151602001516129fb9190614b7d565b815f81518110612a0d57612a0d614b69565b6020026020010151602001906001600160601b031690816001600160601b031681525050612a54885f01515f0151838a5f015160200151848c608001518d60600151613490565b509150612ab49050565b612a85875f01515f015182895f0151602001518a604001518b608001518c60600151613490565b5087518051602090910151604089015160808b015160608c0151949550612ab0948693929190613490565b5090505b612ad3875f01515f015182896080015189602001518b60600151612add565b5050509392505050565b5f825111612b395760405162461bcd60e51b8152602060048201526024808201527f7472616e736665725061796f7574733a206e6f7468696e6720746f207472616e60448201526339b332b960e11b6064820152608401610ca1565b5f84815b60018551612b4b9190614730565b811015612c19575f612b8c868381518110612b6857612b68614b69565b6020026020010151602001516001600160601b03168961354e90919063ffffffff16565b9050858281518110612ba057612ba0614b69565b6020026020010151602001516001600160601b031684612bc09190614b56565b93508015612c1057612bd28184614730565b9250612c1060405180604001604052808b81526020018381525088888581518110612bff57612bff614b69565b60200260200101515f015188613566565b50600101612b3d565b505f8460018651612c2a9190614730565b81518110612c3a57612c3a614b69565b6020026020010151905080602001516001600160601b031683612c5d9190614b56565b92508261271014612cb05760405162461bcd60e51b815260206004820152601e60248201527f53756d207061796f75747320427073206e6f7420657175616c203130302500006044820152606401610ca1565b81156114eb576114eb60405180604001604052808a81526020018481525087835f015187613566565b5f612ce26113b2565b54600160401b900460ff16919050565b5f7fdb6f72e915676cfc289da13bc4ece054fd17b1df6d77ffc4a60510718c236b08612d20835f0151612286565b60208085015160405161181a949392019283526020830191909152604082015260600190565b5f612d4f6139ff565b905090565b5f5f5f8351604103612d8b576020840151604085015160608601515f1a612d7d88828585613a72565b955095509550505050612d96565b505081515f91506002905b9250925092565b5f826003811115612db057612db06147da565b03612db9575050565b6001826003811115612dcd57612dcd6147da565b03612deb5760405163f645eedf60e01b815260040160405180910390fd5b6002826003811115612dff57612dff6147da565b03612e205760405163fce698f760e01b815260048101829052602401610ca1565b6003826003811115612e3457612e346147da565b036110be576040516335e2f38360e21b815260048101829052602401610ca1565b604080518082019091525f81526060602082015282518251632aa8a0a360e11b6001600160e01b0319831601612ed157632aa8a0a360e11b6001600160e01b0319821601612ea75784925050506110a5565b50506040805180820182525f808252825160208181019094529081529181019190915290506110a5565b631d45e89f60e21b6001600160e01b0319831601612f1457631d45e89f60e21b6001600160e01b0319821601612ea757612f0b8585613b3a565b925050506110a5565b6346296f5d60e11b6001600160e01b0319831601612f4e576346296f5d60e11b6001600160e01b0319821601612ea757612f0b8585613b3a565b6301a3112760e61b6001600160e01b0319831601612f88576301a3112760e61b6001600160e01b0319821601612ea757612f0b8585613b3a565b6001600160e01b031982165f908152602081905260409020546001600160a01b03168015613029576040516306d3f7cb60e41b81526001600160a01b03821690636d3f7cb090612fde9089908990600401614bc3565b5f60405180830381865afa158015612ff8573d5f5f3e3d5ffd5b505050506040513d5f823e601f3d908101601f1916820160405261301f9190810190614c36565b93505050506110a5565b6001600160e01b0319808316908416036130475761301f8686613b3a565b60405162461bcd60e51b815260206004820152601760248201527f6e6f7420666f756e64204941737365744d6174636865720000000000000000006044820152606401610ca1565b6040805160018082528183019092526060915f9190816020015b604080518082019091525f80825260208201528152602001906001900390816130a957905050905082815f815181106130e4576130e4614b69565b60200260200101515f01906001600160a01b031690816001600160a01b031681525050612710815f8151811061311c5761311c614b69565b6020908102919091018101516001600160601b0390921691015292915050565b5f825f0361314b57505f6110a5565b505f90815260966020526040902054919050565b604080518082019091525f80825260208201525f5f61317f898887613ba1565b915091505f5f6131908a8988613ba1565b91509150838111806131aa575083811480156131aa575083155b156131d6576131cb84848c60200151602001518d6060015160200151613c1c565b9450505050506127e9565b6131f28b60200151602001518c60600151602001518484613ca6565b9b9a5050505050505050505050565b5f82815b83518110156132ba5761271084828151811061322357613223614b69565b6020026020010151602001516001600160601b0316111561327e5760405162461bcd60e51b81526020600482015260156024820152746f726967696e2066656520697320746f6f2062696760581b6044820152606401610ca1565b83818151811061329057613290614b69565b6020026020010151602001516001600160601b0316826132b09190614b56565b9150600101613205565b506132c5858261354e565b6132cf9086614b56565b9150505b9392505050565b5f5f5f6132e88a8a89613d31565b9092509050801561331357613313604051806040016040528087815260200183815250898887613566565b5090505b979650505050505050565b5f5f61332d88613d52565b905080516001148015613341575086516001145b80156133965750865f8151811061335a5761335a614b69565b60200260200101515f01516001600160a01b0316815f8151811061338057613380614b69565b60200260200101515f01516001600160a01b0316145b1561341c57611388815f815181106133b0576133b0614b69565b6020026020010151602001516001600160601b031611156134135760405162461bcd60e51b815260206004820152601d60248201527f526f79616c746965732061726520746f6f206869676820283e353025290000006044820152606401610ca1565b85915050613317565b5f5f61342c8b8989868a8a613490565b915091506113888111156134825760405162461bcd60e51b815260206004820152601d60248201527f526f79616c746965732061726520746f6f206869676820283e353025290000006044820152606401610ca1565b509998505050505050505050565b845f805b8551811015613542578581815181106134af576134af614b69565b6020026020010151602001516001600160601b0316826134cf9190614b56565b91505f61350384898985815181106134e9576134e9614b69565b6020026020010151602001516001600160601b0316613d31565b909450905080156135395761353960405180604001604052808c81526020018381525087898581518110612bff57612bff614b69565b50600101613494565b50965096945050505050565b5f61271061355c8385614ca5565b6132d39190614cd0565b8351516001600160e01b0319166346296f5d60e11b016136d9575f5f855f01516020015180602001905181019061359d9190614ce3565b9150915085602001516001146135ea5760405162461bcd60e51b815260206004820152601260248201527132b9319b9918903b30b63ab29032b93937b960711b6044820152606401610ca1565b306001600160a01b0386160361366357604051632142170760e11b81523060048201526001600160a01b038581166024830152604482018390528316906342842e0e906064015b5f604051808303815f87803b158015613648575f5ffd5b505af115801561365a573d5f5f3e3d5ffd5b505050506136d2565b604051637b84dc8360e11b81526001600160a01b038381166004830152868116602483015285811660448301526064820183905284169063f709b906906084015b5f604051808303815f87803b1580156136bb575f5ffd5b505af11580156136cd573d5f5f3e3d5ffd5b505050505b50506106e9565b8351516001600160e01b031916631d45e89f60e21b0161385c575f845f01516020015180602001905181019061370f9190614d0f565b9050306001600160a01b038516036137e157602085015160405163a9059cbb60e01b81526001600160a01b03858116600483015260248201929092529082169063a9059cbb906044016020604051808303815f875af1158015613774573d5f5f3e3d5ffd5b505050506040513d601f19601f820116820180604052508101906137989190614d2a565b6137dc5760405162461bcd60e51b8152602060048201526015602482015274195c98cc8c081d1c985b9cd9995c8819985a5b1959605a1b6044820152606401610ca1565b613856565b602085015160405163776062c360e01b81526001600160a01b0383811660048301528681166024830152858116604483015260648201929092529083169063776062c3906084015f604051808303815f87803b15801561383f575f5ffd5b505af1158015613851573d5f5f3e3d5ffd5b505050505b506106e9565b8351516001600160e01b0319166301a3112760e61b0161395e575f5f855f0151602001518060200190518101906138939190614ce3565b9092509050306001600160a01b038616036138fe576020860151604051637921219560e11b81523060048201526001600160a01b03868116602483015260448201849052606482019290925260a060848201525f60a48201529083169063f242432a9060c401613631565b6020860151604051639c1c2ee960e01b81526001600160a01b0384811660048301528781166024830152868116604483015260648201849052608482019290925260c060a48201525f60c482015290841690639c1c2ee99060e4016136a4565b8351516001600160e01b031916632aa8a0a360e11b016139a6576001600160a01b03821630146139a15760208401516139a1906001600160a01b03841690612171565b6106e9565b6040516354bc0cf160e01b81526001600160a01b038216906354bc0cf1906139d690879087908790600401614d43565b5f604051808303815f87803b1580156139ed575f5ffd5b505af11580156114eb573d5f5f3e3d5ffd5b5f7f8b73c3c69bb8fe3d512ecc4cf759cc79239f7b179b0ffacaa9a75d522b39400f613a29613eae565b613a31613f16565b60408051602081019490945283019190915260608201524660808201523060a082015260c00160405160208183030381529060405280519060200120905090565b5f80807f7fffffffffffffffffffffffffffffff5d576e7357a4501ddfe92f46681b20a0841115613aab57505f91506003905082613b30565b604080515f808252602082018084528a905260ff891692820192909252606081018790526080810186905260019060a0016020604051602081039080840390855afa158015613afc573d5f5f3e3d5ffd5b5050604051601f1901519150506001600160a01b038116613b2757505f925060019150829050613b30565b92505f91508190505b9450945094915050565b604080518082019091525f815260606020820152602080840151805190820120838201518051920191909120808203613b775784925050506110a5565b50506040805180820182525f80825282516020808201909452908152918101919091529392505050565b5f5f8215613be15783856020015160200151613bbd9190614730565b9150613bda85606001516020015186602001516020015184613f58565b9050612169565b83856060015160200151613bf59190614730565b9050613c1285602001516020015186606001516020015183613f58565b9150935093915050565b604080518082019091525f80825260208201525f613c3b858585613f58565b905085811115613c8d5760405162461bcd60e51b815260206004820152601860248201527f66696c6c4c6566743a20756e61626c6520746f2066696c6c00000000000000006044820152606401610ca1565b5050604080518082019091529384525050602082015290565b604080518082019091525f80825260208201525f613cc5838787613f58565b905083811115613d175760405162461bcd60e51b815260206004820152601960248201527f66696c6c52696768743a20756e61626c6520746f2066696c6c000000000000006044820152606401610ca1565b604080518082019091529283526020830152509392505050565b5f80613d4685613d41868661354e565b613fb7565b91509150935093915050565b80516060906001600160e01b03191663025ceed960e61b1480613d86575081516001600160e01b0319166339d690a360e11b145b15613e2a575f5f8360200151806020019051810190613da59190614ce3565b60c954604051634e53ee3d60e11b81526001600160a01b038085166004830152602482018490529395509193509190911690639ca7dc7a906044015f604051808303815f875af1158015613dfb573d5f5f3e3d5ffd5b505050506040513d5f823e601f3d908101601f19168201604052613e229190810190614d88565b949350505050565b81516001600160e01b03191663038c815760e61b01613e68575f8260200151806020019051810190613e5c9190614e37565b60800151949350505050565b81516001600160e01b0319166327069f3f60e01b01613ea6575f8260200151806020019051810190613e9a9190614f49565b60600151949350505050565b506060919050565b5f5f5160206150655f395f51905f5281613ec6611695565b805190915015613ede57805160209091012092915050565b81548015613eed579392505050565b7fc5d2460186f7233c927e7db2dcc703c0e500b653ca82273b7bfad8045d85a470935050505090565b5f5f5160206150655f395f51905f5281613f2e611755565b805190915015613f4657805160209091012092915050565b60018201548015613eed579392505050565b5f613f64848484613fdd565b15613fa25760405162461bcd60e51b815260206004820152600e60248201526d3937bab73234b7339032b93937b960911b6044820152606401610ca1565b82613fad8386614ca5565b613e229190614cd0565b5f5f82841115613fd557613fcb8385614730565b9150829050611e44565b505f93915050565b5f825f036140205760405162461bcd60e51b815260206004820152601060248201526f6469766973696f6e206279207a65726f60801b6044820152606401610ca1565b81158061402b575083155b1561403757505f6132d3565b5f836140438685614ca5565b61404d9190615051565b90506140598386614ca5565b614065826103e8614ca5565b101595945050505050565b5f6101e08284031215614081575f5ffd5b50919050565b5f60208284031215614097575f5ffd5b81356001600160401b038111156140ac575f5ffd5b613e2284828501614070565b5f602082840312156140c8575f5ffd5b5035919050565b6001600160e01b031981168114611029575f5ffd5b8035611876816140cf565b6001600160a01b0381168114611029575f5ffd5b8035611876816140ef565b5f5f6040838503121561411f575f5ffd5b823561412a816140cf565b9150602083013561413a816140ef565b809150509250929050565b5f5f5f5f5f5f60c0878903121561415a575f5ffd5b8635614165816140ef565b95506020870135614175816140ef565b945060408701359350606087013561418c816140ef565b9250608087013561419c816140ef565b915060a08701356141ac816140ef565b809150509295509295509295565b5f602082840312156141ca575f5ffd5b81356132d3816140ef565b5f81518084528060208401602086015e5f602082860101526020601f19601f83011685010191505092915050565b60ff60f81b8816815260e060208201525f61422160e08301896141d5565b828103604084015261423381896141d5565b606084018890526001600160a01b038716608085015260a0840186905283810360c0850152845180825260208087019350909101905f5b8181101561428857835183526020938401939092019160010161426a565b50909b9a5050505050505050505050565b803565ffffffffffff81168114611876575f5ffd5b5f5f5f606084860312156142c0575f5ffd5b83356142cb816140ef565b92506142d960208501614299565b91506142e760408501614299565b90509250925092565b5f60208284031215614300575f5ffd5b6132d382614299565b634e487b7160e01b5f52604160045260245ffd5b604080519081016001600160401b038111828210171561433f5761433f614309565b60405290565b60405161012081016001600160401b038111828210171561433f5761433f614309565b60405160c081016001600160401b038111828210171561433f5761433f614309565b60405160a081016001600160401b038111828210171561433f5761433f614309565b604051601f8201601f191681016001600160401b03811182821017156143d4576143d4614309565b604052919050565b5f6001600160401b038211156143f4576143f4614309565b50601f01601f191660200190565b5f82601f830112614411575f5ffd5b813561442461441f826143dc565b6143ac565b818152846020838601011115614438575f5ffd5b816020850160208301375f918101602001919091529392505050565b5f60408284031215614464575f5ffd5b61446c61431d565b905081356001600160401b03811115614483575f5ffd5b820160408185031215614494575f5ffd5b61449c61431d565b81356144a7816140cf565b815260208201356001600160401b038111156144c1575f5ffd5b6144cd86828501614402565b60208301525080835250505f602083013590508060208301525092915050565b5f61012082840312156144fe575f5ffd5b614506614345565b905061451182614103565b815260208201356001600160401b0381111561452b575f5ffd5b61453784828501614454565b60208301525061454960408301614103565b604082015260608201356001600160401b03811115614566575f5ffd5b61457284828501614454565b6060830152506080828101359082015260a0808301359082015260c080830135908201526145a260e083016140e4565b60e08201526101008201356001600160401b038111156145c0575f5ffd5b6145cc84828501614402565b6101008301525092915050565b5f602082840312156145e9575f5ffd5b81356001600160401b038111156145fe575f5ffd5b613e22848285016144ed565b5f5f5f5f6080858703121561461d575f5ffd5b84356001600160401b03811115614632575f5ffd5b61463e878288016144ed565b94505060208501356001600160401b03811115614659575f5ffd5b61466587828801614402565b93505060408501356001600160401b03811115614680575f5ffd5b61468c878288016144ed565b92505060608501356001600160401b038111156146a7575f5ffd5b6146b387828801614402565b91505092959194509250565b5f602082840312156146cf575f5ffd5b81356132d3816140cf565b5f5f8335601e198436030181126146ef575f5ffd5b8301803591506001600160401b03821115614708575f5ffd5b602001915036819003821315611e44575f5ffd5b634e487b7160e01b5f52601160045260245ffd5b818103818111156110a5576110a561471c565b600181811c9082168061475757607f821691505b60208210810361408157634e487b7160e01b5f52602260045260245ffd5b60018060a01b038616815284602082015283604082015282606082015260a060808201525f61331760a08301846141d5565b828152604060208201525f613e2260408301846141d5565b5f602082840312156147cf575f5ffd5b81516132d3816140cf565b634e487b7160e01b5f52602160045260245ffd5b601f821115610d7257805f5260205f20601f840160051c810160208510156148135750805b601f840160051c820191505b8181101561161e575f815560010161481f565b81516001600160401b0381111561484b5761484b614309565b61485f816148598454614743565b846147ee565b6020601f821160018114614891575f831561487a5750848201515b5f19600385901b1c1916600184901b17845561161e565b5f84815260208120601f198516915b828110156148c057878501518255602094850194600190920191016148a0565b50848210156148dd57868401515f19600387901b60f8161c191681555b50505050600190811b01905550565b5f6001600160401b0382111561490457614904614309565b5060051b60200190565b5f82601f83011261491d575f5ffd5b815161492b61441f826148ec565b8082825260208201915060208360061b86010192508583111561494c575f5ffd5b602085015b838110156149af5760408188031215614968575f5ffd5b61497061431d565b815161497b816140ef565b815260208201516001600160601b0381168114614996575f5ffd5b6020828101919091529084529290920191604001614951565b5095945050505050565b5f602082840312156149c9575f5ffd5b81516001600160401b038111156149de575f5ffd5b8201604081850312156149ef575f5ffd5b6149f761431d565b81516001600160401b03811115614a0c575f5ffd5b614a188682850161490e565b82525060208201516001600160401b03811115614a33575f5ffd5b614a3f8682850161490e565b602083015250949350505050565b80518015158114611876575f5ffd5b5f60608284031215614a6c575f5ffd5b604051606081016001600160401b0381118282101715614a8e57614a8e614309565b806040525080915082516001600160401b03811115614aab575f5ffd5b614ab78582860161490e565b82525060208301516001600160401b03811115614ad2575f5ffd5b614ade8582860161490e565b602083015250614af060408401614a4d565b60408201525092915050565b5f60208284031215614b0c575f5ffd5b81516001600160401b03811115614b21575f5ffd5b613e2284828501614a5c565b6020808252600f908201526e1b9bdd1a1a5b99c81d1bc8199a5b1b608a1b604082015260600190565b808201808211156110a5576110a561471c565b634e487b7160e01b5f52603260045260245ffd5b6001600160601b0381811683821601908111156110a5576110a561471c565b63ffffffff60e01b81511682525f602082015160406020850152613e2260408501826141d5565b604081525f614bd56040830185614b9c565b82810360208401526132cf8185614b9c565b5f82601f830112614bf6575f5ffd5b8151602083015f614c0961441f846143dc565b9050828152858383011115614c1c575f5ffd5b8282602083015e5f92810160200192909252509392505050565b5f60208284031215614c46575f5ffd5b81516001600160401b03811115614c5b575f5ffd5b820160408185031215614c6c575f5ffd5b614c7461431d565b8151614c7f816140cf565b815260208201516001600160401b03811115614c99575f5ffd5b614a3f86828501614be7565b80820281158282048414176110a5576110a561471c565b634e487b7160e01b5f52601260045260245ffd5b5f82614cde57614cde614cbc565b500490565b5f5f60408385031215614cf4575f5ffd5b8251614cff816140ef565b6020939093015192949293505050565b5f60208284031215614d1f575f5ffd5b81516132d3816140ef565b5f60208284031215614d3a575f5ffd5b6132d382614a4d565b606081525f845160406060840152614d5e60a0840182614b9c565b60209687015160808501526001600160a01b03958616968401969096525050911660409091015290565b5f60208284031215614d98575f5ffd5b81516001600160401b03811115614dad575f5ffd5b613e228482850161490e565b5f82601f830112614dc8575f5ffd5b8151614dd661441f826148ec565b8082825260208201915060208360051b860101925085831115614df7575f5ffd5b602085015b838110156149af5780516001600160401b03811115614e19575f5ffd5b614e28886020838a0101614be7565b84525060209283019201614dfc565b5f5f60408385031215614e48575f5ffd5b8251614e53816140ef565b60208401519092506001600160401b03811115614e6e575f5ffd5b830160c08186031215614e7f575f5ffd5b614e87614368565b8151815260208201516001600160401b03811115614ea3575f5ffd5b614eaf87828501614be7565b6020830152506040828101519082015260608201516001600160401b03811115614ed7575f5ffd5b614ee38782850161490e565b60608301525060808201516001600160401b03811115614f01575f5ffd5b614f0d8782850161490e565b60808301525060a08201516001600160401b03811115614f2b575f5ffd5b614f3787828501614db9565b60a08301525080925050509250929050565b5f5f60408385031215614f5a575f5ffd5b8251614f65816140ef565b60208401519092506001600160401b03811115614f80575f5ffd5b830160a08186031215614f91575f5ffd5b614f9961438a565b8151815260208201516001600160401b03811115614fb5575f5ffd5b614fc187828501614be7565b60208301525060408201516001600160401b03811115614fdf575f5ffd5b614feb8782850161490e565b60408301525060608201516001600160401b03811115615009575f5ffd5b6150158782850161490e565b60608301525060808201516001600160401b03811115615033575f5ffd5b61503f87828501614db9565b60808301525080925050509250929050565b5f8261505f5761505f614cbc565b50069056fea16a46d94261c7517cc8ff89f61c0ce93598e3c849801011dee649a6a557d100a2646970667358221220bc940631a598e8bb5735db77f73d68593f314cc069fcac609731610e9d25ae2764736f6c634300081e0033",
  "linkReferences": {},
  "deployedLinkReferences": {},
  "immutableReferences": {},
  "inputSourceName": "npm/@rarible/exchange-v2@local/contracts/ExchangeV2.sol",
  "devdoc": {
    "errors": {
      "ECDSAInvalidSignature()": [
        {
          "details": "The signature derives the `address(0)`."
        }
      ],
      "ECDSAInvalidSignatureLength(uint256)": [
        {
          "details": "The signature has an invalid length."
        }
      ],
      "ECDSAInvalidSignatureS(bytes32)": [
        {
          "details": "The signature has an S value that is in the upper half order."
        }
      ],
      "InvalidInitialization()": [
        {
          "details": "The contract is already initialized."
        }
      ],
      "NotInitializing()": [
        {
          "details": "The contract is not initializing."
        }
      ],
      "OwnableInvalidOwner(address)": [
        {
          "details": "The owner is not a valid owner account. (eg. `address(0)`)"
        }
      ],
      "OwnableUnauthorizedAccount(address)": [
        {
          "details": "The caller account is not authorized to perform an operation."
        }
      ]
    },
    "events": {
      "BuyerFeeAmountChanged(uint256,uint256)": {
        "details": "event that's emitted when ProtocolFeeData buyerAmount changes"
      },
      "EIP712DomainChanged()": {
        "details": "MAY be emitted to signal that the domain could have changed."
      },
      "FeeReceiverChanged(address,address)": {
        "details": "event that's emitted when ProtocolFeeData receiver changes"
      },
      "Initialized(uint64)": {
        "details": "Triggered when the contract has been initialized or reinitialized."
      },
      "SellerFeeAmountChanged(uint256,uint256)": {
        "details": "event that's emitted when ProtocolFeeData sellerAmount changes"
      }
    },
    "kind": "dev",
    "methods": {
      "directAcceptBid((address,uint256,bytes4,bytes,uint256,address,uint256,uint256,uint256,bytes4,bytes,bytes,uint256,uint256,bytes))": {
        "details": "function, generate sellOrder and buyOrder from parameters and call validateAndMatch() for accept bid transaction",
        "params": {
          "direct": "struct with parameters for accept bid operation"
        }
      },
      "directPurchase((address,uint256,bytes4,bytes,uint256,address,uint256,uint256,uint256,bytes4,bytes,bytes,uint256,uint256,bytes))": {
        "details": "function, generate sellOrder and buyOrder from parameters and call validateAndMatch() for purchase transaction"
      },
      "eip712Domain()": {
        "details": "returns the fields and values that describe the domain separator used by this contract for EIP-712 signature."
      },
      "owner()": {
        "details": "Returns the address of the current owner."
      },
      "renounceOwnership()": {
        "details": "Leaves the contract without owner. It will not be possible to call `onlyOwner` functions. Can only be called by the current owner. NOTE: Renouncing ownership will leave the contract without an owner, thereby disabling any functionality that is only available to the owner."
      },
      "transferOwnership(address)": {
        "details": "Transfers ownership of the contract to a new account (`newOwner`). Can only be called by the current owner."
      }
    },
    "version": 1
  },
  "evm": {
    "gasEstimates": {
      "creation": {
        "codeDepositCost": "4133200",
        "executionCost": "4740",
        "totalCost": "4137940"
      },
      "external": {
        "__ExchangeV2_init(address,address,uint256,address,address,address)": "infinite",
        "cancel((address,((bytes4,bytes),uint256),address,((bytes4,bytes),uint256),uint256,uint256,uint256,bytes4,bytes))": "infinite",
        "directAcceptBid((address,uint256,bytes4,bytes,uint256,address,uint256,uint256,uint256,bytes4,bytes,bytes,uint256,uint256,bytes))": "infinite",
        "directPurchase((address,uint256,bytes4,bytes,uint256,address,uint256,uint256,uint256,bytes4,bytes,bytes,uint256,uint256,bytes))": "infinite",
        "eip712Domain()": "infinite",
        "fills(bytes32)": "2470",
        "matchOrders((address,((bytes4,bytes),uint256),address,((bytes4,bytes),uint256),uint256,uint256,uint256,bytes4,bytes),bytes,(address,((bytes4,bytes),uint256),address,((bytes4,bytes),uint256),uint256,uint256,uint256,bytes4,bytes),bytes)": "infinite",
        "owner()": "2353",
        "protocolFee()": "2487",
        "renounceOwnership()": "infinite",
        "royaltiesRegistry()": "2403",
        "setAllProtocolFeeData(address,uint48,uint48)": "infinite",
        "setAssetMatcher(bytes4,address)": "infinite",
        "setPrtocolFeeBuyerAmount(uint48)": "30241",
        "setPrtocolFeeReceiver(address)": "30332",
        "setPrtocolFeeSellerAmount(uint48)": "30310",
        "setRoyaltiesRegistry(address)": "26783",
        "setTransferProxy(bytes4,address)": "infinite",
        "transferOwnership(address)": "infinite"
      }
    }
  },
  "storageLayout": {
    "storage": [
      {
        "astId": 12447,
        "contract": "npm/@rarible/exchange-v2@local/contracts/ExchangeV2.sol:ExchangeV2",
        "label": "matchers",
        "offset": 0,
        "slot": "0",
        "type": "t_mapping(t_bytes4,t_address)"
      },
      {
        "astId": 12703,
        "contract": "npm/@rarible/exchange-v2@local/contracts/ExchangeV2.sol:ExchangeV2",
        "label": "__gap",
        "offset": 0,
        "slot": "1",
        "type": "t_array(t_uint256)49_storage"
      },
      {
        "astId": 19079,
        "contract": "npm/@rarible/exchange-v2@local/contracts/ExchangeV2.sol:ExchangeV2",
        "label": "proxies",
        "offset": 0,
        "slot": "50",
        "type": "t_mapping(t_bytes4,t_address)"
      },
      {
        "astId": 19377,
        "contract": "npm/@rarible/exchange-v2@local/contracts/ExchangeV2.sol:ExchangeV2",
        "label": "__gap",
        "offset": 0,
        "slot": "51",
        "type": "t_array(t_uint256)49_storage"
      },
      {
        "astId": 13958,
        "contract": "npm/@rarible/exchange-v2@local/contracts/ExchangeV2.sol:ExchangeV2",
        "label": "__gap",
        "offset": 0,
        "slot": "100",
        "type": "t_array(t_uint256)50_storage"
      },
      {
        "astId": 12789,
        "contract": "npm/@rarible/exchange-v2@local/contracts/ExchangeV2.sol:ExchangeV2",
        "label": "fills",
        "offset": 0,
        "slot": "150",
        "type": "t_mapping(t_bytes32,t_uint256)"
      },
      {
        "astId": 13769,
        "contract": "npm/@rarible/exchange-v2@local/contracts/ExchangeV2.sol:ExchangeV2",
        "label": "__gap",
        "offset": 0,
        "slot": "151",
        "type": "t_array(t_uint256)49_storage"
      },
      {
        "astId": 17966,
        "contract": "npm/@rarible/exchange-v2@local/contracts/ExchangeV2.sol:ExchangeV2",
        "label": "protocolFee",
        "offset": 0,
        "slot": "200",
        "type": "t_struct(ProtocolFeeData)18004_storage"
      },
      {
        "astId": 17969,
        "contract": "npm/@rarible/exchange-v2@local/contracts/ExchangeV2.sol:ExchangeV2",
        "label": "royaltiesRegistry",
        "offset": 0,
        "slot": "201",
        "type": "t_contract(IRoyaltiesProvider)12417"
      },
      {
        "astId": 17971,
        "contract": "npm/@rarible/exchange-v2@local/contracts/ExchangeV2.sol:ExchangeV2",
        "label": "defaultFeeReceiver",
        "offset": 0,
        "slot": "202",
        "type": "t_address"
      },
      {
        "astId": 17975,
        "contract": "npm/@rarible/exchange-v2@local/contracts/ExchangeV2.sol:ExchangeV2",
        "label": "feeReceivers",
        "offset": 0,
        "slot": "203",
        "type": "t_mapping(t_address,t_address)"
      },
      {
        "astId": 19056,
        "contract": "npm/@rarible/exchange-v2@local/contracts/ExchangeV2.sol:ExchangeV2",
        "label": "__gap",
        "offset": 0,
        "slot": "204",
        "type": "t_array(t_uint256)46_storage"
      }
    ],
    "types": {
      "t_address": {
        "encoding": "inplace",
        "label": "address",
        "numberOfBytes": "20"
      },
      "t_array(t_uint256)46_storage": {
        "base": "t_uint256",
        "encoding": "inplace",
        "label": "uint256[46]",
        "numberOfBytes": "1472"
      },
      "t_array(t_uint256)49_storage": {
        "base": "t_uint256",
        "encoding": "inplace",
        "label": "uint256[49]",
        "numberOfBytes": "1568"
      },
      "t_array(t_uint256)50_storage": {
        "base": "t_uint256",
        "encoding": "inplace",
        "label": "uint256[50]",
        "numberOfBytes": "1600"
      },
      "t_bytes32": {
        "encoding": "inplace",
        "label": "bytes32",
        "numberOfBytes": "32"
      },
      "t_bytes4": {
        "encoding": "inplace",
        "label": "bytes4",
        "numberOfBytes": "4"
      },
      "t_contract(IRoyaltiesProvider)12417": {
        "encoding": "inplace",
        "label": "contract IRoyaltiesProvider",
        "numberOfBytes": "20"
      },
      "t_mapping(t_address,t_address)": {
        "encoding": "mapping",
        "key": "t_address",
        "label": "mapping(address => address)",
        "numberOfBytes": "32",
        "value": "t_address"
      },
      "t_mapping(t_bytes32,t_uint256)": {
        "encoding": "mapping",
        "key": "t_bytes32",
        "label": "mapping(bytes32 => uint256)",
        "numberOfBytes": "32",
        "value": "t_uint256"
      },
      "t_mapping(t_bytes4,t_address)": {
        "encoding": "mapping",
        "key": "t_bytes4",
        "label": "mapping(bytes4 => address)",
        "numberOfBytes": "32",
        "value": "t_address"
      },
      "t_struct(ProtocolFeeData)18004_storage": {
        "encoding": "inplace",
        "label": "struct RaribleTransferManager.ProtocolFeeData",
        "members": [
          {
            "astId": 17999,
            "contract": "npm/@rarible/exchange-v2@local/contracts/ExchangeV2.sol:ExchangeV2",
            "label": "receiver",
            "offset": 0,
            "slot": "0",
            "type": "t_address"
          },
          {
            "astId": 18001,
            "contract": "npm/@rarible/exchange-v2@local/contracts/ExchangeV2.sol:ExchangeV2",
            "label": "buyerAmount",
            "offset": 20,
            "slot": "0",
            "type": "t_uint48"
          },
          {
            "astId": 18003,
            "contract": "npm/@rarible/exchange-v2@local/contracts/ExchangeV2.sol:ExchangeV2",
            "label": "sellerAmount",
            "offset": 26,
            "slot": "0",
            "type": "t_uint48"
          }
        ],
        "numberOfBytes": "32"
      },
      "t_uint256": {
        "encoding": "inplace",
        "label": "uint256",
        "numberOfBytes": "32"
      },
      "t_uint48": {
        "encoding": "inplace",
        "label": "uint48",
        "numberOfBytes": "6"
      }
    }
  },
  "userdoc": {
    "kind": "user",
    "methods": {},
    "version": 1
  },
  "argsData": "0x",
  "transaction": {
    "nonce": "0x374",
    "hash": "0xab13298e1489c4457b7bcb835d1400a1eacfe0b27e6204c6462d1ee5ae713c88",
    "origin": "0xfb571f9da71d1ac33e069571bf5c67fadcff18e4"
  }
}