{
  "address": "0xe51ea6b5513607d1fd47a8728943cf2deb7bdc59",
  "abi": [
    {
      "inputs": [
        {
          "internalType": "address[11]",
          "name": "marketplaces",
          "type": "address[11]"
        },
        {
          "internalType": "address",
          "name": "_weth",
          "type": "address"
        },
        {
          "internalType": "address[]",
          "name": "transferProxies",
          "type": "address[]"
        },
        {
          "internalType": "address",
          "name": "owner",
          "type": "address"
        }
      ],
      "stateMutability": "nonpayable",
      "type": "constructor"
    },
    {
      "inputs": [
        {
          "internalType": "address",
          "name": "owner",
          "type": "address"
        }
      ],
      "name": "OwnableInvalidOwner",
      "type": "error"
    },
    {
      "inputs": [
        {
          "internalType": "address",
          "name": "account",
          "type": "address"
        }
      ],
      "name": "OwnableUnauthorizedAccount",
      "type": "error"
    },
    {
      "anonymous": false,
      "inputs": [
        {
          "indexed": false,
          "internalType": "bool",
          "name": "result",
          "type": "bool"
        }
      ],
      "name": "Execution",
      "type": "event"
    },
    {
      "anonymous": false,
      "inputs": [
        {
          "indexed": true,
          "internalType": "address",
          "name": "previousOwner",
          "type": "address"
        },
        {
          "indexed": true,
          "internalType": "address",
          "name": "newOwner",
          "type": "address"
        }
      ],
      "name": "OwnershipTransferred",
      "type": "event"
    },
    {
      "anonymous": false,
      "inputs": [
        {
          "indexed": false,
          "internalType": "bool",
          "name": "paused",
          "type": "bool"
        }
      ],
      "name": "Paused",
      "type": "event"
    },
    {
      "inputs": [
        {
          "internalType": "address[]",
          "name": "transferProxies",
          "type": "address[]"
        }
      ],
      "name": "approveWETH",
      "outputs": [],
      "stateMutability": "nonpayable",
      "type": "function"
    },
    {
      "inputs": [],
      "name": "blur",
      "outputs": [
        {
          "internalType": "address",
          "name": "",
          "type": "address"
        }
      ],
      "stateMutability": "view",
      "type": "function"
    },
    {
      "inputs": [
        {
          "components": [
            {
              "internalType": "enum RaribleExchangeWrapper.Markets",
              "name": "marketId",
              "type": "uint8"
            },
            {
              "internalType": "uint256",
              "name": "amount",
              "type": "uint256"
            },
            {
              "internalType": "uint256",
              "name": "fees",
              "type": "uint256"
            },
            {
              "internalType": "bytes",
              "name": "data",
              "type": "bytes"
            }
          ],
          "internalType": "struct RaribleExchangeWrapper.PurchaseDetails[]",
          "name": "purchaseDetails",
          "type": "tuple[]"
        },
        {
          "internalType": "address",
          "name": "feeRecipientFirst",
          "type": "address"
        },
        {
          "internalType": "address",
          "name": "feeRecipientSecond",
          "type": "address"
        },
        {
          "internalType": "bool",
          "name": "allowFail",
          "type": "bool"
        }
      ],
      "name": "bulkPurchase",
      "outputs": [],
      "stateMutability": "payable",
      "type": "function"
    },
    {
      "inputs": [],
      "name": "exchangeV2",
      "outputs": [
        {
          "internalType": "address",
          "name": "",
          "type": "address"
        }
      ],
      "stateMutability": "view",
      "type": "function"
    },
    {
      "inputs": [],
      "name": "looksRare",
      "outputs": [
        {
          "internalType": "address",
          "name": "",
          "type": "address"
        }
      ],
      "stateMutability": "view",
      "type": "function"
    },
    {
      "inputs": [],
      "name": "looksRareV2",
      "outputs": [
        {
          "internalType": "address",
          "name": "",
          "type": "address"
        }
      ],
      "stateMutability": "view",
      "type": "function"
    },
    {
      "inputs": [
        {
          "internalType": "address",
          "name": "",
          "type": "address"
        },
        {
          "internalType": "address",
          "name": "",
          "type": "address"
        },
        {
          "internalType": "uint256[]",
          "name": "",
          "type": "uint256[]"
        },
        {
          "internalType": "uint256[]",
          "name": "",
          "type": "uint256[]"
        },
        {
          "internalType": "bytes",
          "name": "",
          "type": "bytes"
        }
      ],
      "name": "onERC1155BatchReceived",
      "outputs": [
        {
          "internalType": "bytes4",
          "name": "",
          "type": "bytes4"
        }
      ],
      "stateMutability": "nonpayable",
      "type": "function"
    },
    {
      "inputs": [
        {
          "internalType": "address",
          "name": "",
          "type": "address"
        },
        {
          "internalType": "address",
          "name": "",
          "type": "address"
        },
        {
          "internalType": "uint256",
          "name": "",
          "type": "uint256"
        },
        {
          "internalType": "uint256",
          "name": "",
          "type": "uint256"
        },
        {
          "internalType": "bytes",
          "name": "",
          "type": "bytes"
        }
      ],
      "name": "onERC1155Received",
      "outputs": [
        {
          "internalType": "bytes4",
          "name": "",
          "type": "bytes4"
        }
      ],
      "stateMutability": "nonpayable",
      "type": "function"
    },
    {
      "inputs": [
        {
          "internalType": "address",
          "name": "",
          "type": "address"
        },
        {
          "internalType": "address",
          "name": "",
          "type": "address"
        },
        {
          "internalType": "uint256",
          "name": "",
          "type": "uint256"
        },
        {
          "internalType": "bytes",
          "name": "",
          "type": "bytes"
        }
      ],
      "name": "onERC721Received",
      "outputs": [
        {
          "internalType": "bytes4",
          "name": "",
          "type": "bytes4"
        }
      ],
      "stateMutability": "nonpayable",
      "type": "function"
    },
    {
      "inputs": [],
      "name": "owner",
      "outputs": [
        {
          "internalType": "address",
          "name": "",
          "type": "address"
        }
      ],
      "stateMutability": "view",
      "type": "function"
    },
    {
      "inputs": [
        {
          "internalType": "bool",
          "name": "_paused",
          "type": "bool"
        }
      ],
      "name": "pause",
      "outputs": [],
      "stateMutability": "nonpayable",
      "type": "function"
    },
    {
      "inputs": [],
      "name": "paused",
      "outputs": [
        {
          "internalType": "bool",
          "name": "",
          "type": "bool"
        }
      ],
      "stateMutability": "view",
      "type": "function"
    },
    {
      "inputs": [],
      "name": "renounceOwnership",
      "outputs": [],
      "stateMutability": "nonpayable",
      "type": "function"
    },
    {
      "inputs": [],
      "name": "seaPort_1_1",
      "outputs": [
        {
          "internalType": "address",
          "name": "",
          "type": "address"
        }
      ],
      "stateMutability": "view",
      "type": "function"
    },
    {
      "inputs": [],
      "name": "seaPort_1_4",
      "outputs": [
        {
          "internalType": "address",
          "name": "",
          "type": "address"
        }
      ],
      "stateMutability": "view",
      "type": "function"
    },
    {
      "inputs": [],
      "name": "seaPort_1_5",
      "outputs": [
        {
          "internalType": "address",
          "name": "",
          "type": "address"
        }
      ],
      "stateMutability": "view",
      "type": "function"
    },
    {
      "inputs": [],
      "name": "seaPort_1_6",
      "outputs": [
        {
          "internalType": "address",
          "name": "",
          "type": "address"
        }
      ],
      "stateMutability": "view",
      "type": "function"
    },
    {
      "inputs": [
        {
          "components": [
            {
              "internalType": "enum RaribleExchangeWrapper.Markets",
              "name": "marketId",
              "type": "uint8"
            },
            {
              "internalType": "uint256",
              "name": "amount",
              "type": "uint256"
            },
            {
              "internalType": "uint256",
              "name": "fees",
              "type": "uint256"
            },
            {
              "internalType": "bytes",
              "name": "data",
              "type": "bytes"
            }
          ],
          "internalType": "struct RaribleExchangeWrapper.PurchaseDetails",
          "name": "purchaseDetails",
          "type": "tuple"
        },
        {
          "internalType": "address",
          "name": "feeRecipientFirst",
          "type": "address"
        },
        {
          "internalType": "address",
          "name": "feeRecipientSecond",
          "type": "address"
        }
      ],
      "name": "singlePurchase",
      "outputs": [],
      "stateMutability": "payable",
      "type": "function"
    },
    {
      "inputs": [],
      "name": "sudoswap",
      "outputs": [
        {
          "internalType": "address",
          "name": "",
          "type": "address"
        }
      ],
      "stateMutability": "view",
      "type": "function"
    },
    {
      "inputs": [
        {
          "internalType": "bytes4",
          "name": "interfaceId",
          "type": "bytes4"
        }
      ],
      "name": "supportsInterface",
      "outputs": [
        {
          "internalType": "bool",
          "name": "",
          "type": "bool"
        }
      ],
      "stateMutability": "view",
      "type": "function"
    },
    {
      "inputs": [
        {
          "internalType": "address",
          "name": "newOwner",
          "type": "address"
        }
      ],
      "name": "transferOwnership",
      "outputs": [],
      "stateMutability": "nonpayable",
      "type": "function"
    },
    {
      "inputs": [],
      "name": "weth",
      "outputs": [
        {
          "internalType": "address",
          "name": "",
          "type": "address"
        }
      ],
      "stateMutability": "view",
      "type": "function"
    },
    {
      "inputs": [],
      "name": "wyvernExchange",
      "outputs": [
        {
          "internalType": "address",
          "name": "",
          "type": "address"
        }
      ],
      "stateMutability": "view",
      "type": "function"
    },
    {
      "inputs": [],
      "name": "x2y2",
      "outputs": [
        {
          "internalType": "address",
          "name": "",
          "type": "address"
        }
      ],
      "stateMutability": "view",
      "type": "function"
    },
    {
      "stateMutability": "payable",
      "type": "receive"
    }
  ],
  "contractName": "RaribleExchangeWrapper",
  "sourceName": "@rarible/exchange-wrapper/contracts/RaribleExchangeWrapper.sol",
  "bytecode": "0x610200604052348015610010575f5ffd5b50604051614ca5380380614ca583398101604081905261002f91610314565b806001600160a01b03811661005d57604051631e4fbdf760e01b81525f600482015260240160405180910390fd5b610066816101b7565b5083516001600160a01b0390811660809081526020860151821660a09081526040870151831660c09081526060880151841660e0908152928801518416610100908152918801518416610120908152908801518416610140908152928801518416610160529087015183166101805286015182166101a05285015181166101c05283166101e0525f5b82518110156101ad576001600160a01b038416156101a557836001600160a01b031663095ea7b3848381518110610128576101286103c5565b60200260200101515f196040518363ffffffff1660e01b81526004016101639291906001600160a01b03929092168252602082015260400190565b6020604051808303815f875af115801561017f573d5f5f3e3d5ffd5b505050506040513d601f19601f820116820180604052508101906101a391906103d9565b505b6001016100ef565b50505050506103ff565b5f80546001600160a01b038381166001600160a01b0319831681178455604051919092169283917f8be0079c531659141344cd1fd0a4f28419497f9722a3daafe3b4186f6b6457e09190a35050565b634e487b7160e01b5f52604160045260245ffd5b60405161016081016001600160401b038111828210171561023d5761023d610206565b60405290565b604051601f8201601f191681016001600160401b038111828210171561026b5761026b610206565b604052919050565b80516001600160a01b0381168114610289575f5ffd5b919050565b5f82601f83011261029d575f5ffd5b81516001600160401b038111156102b6576102b6610206565b8060051b6102c660208201610243565b918252602081850181019290810190868411156102e1575f5ffd5b6020860192505b8383101561030a576102f983610273565b8252602092830192909101906102e8565b9695505050505050565b5f5f5f5f6101c08587031215610328575f5ffd5b85601f860112610336575f5ffd5b61033e61021a565b80610160870188811115610350575f5ffd5b875b818110156103715761036381610273565b845260209384019301610352565b5081965061037e81610273565b610180890151909650925050506001600160401b0381111561039e575f5ffd5b6103aa8782880161028e565b9250506103ba6101a08601610273565b905092959194509250565b634e487b7160e01b5f52603260045260245ffd5b5f602082840312156103e9575f5ffd5b815180151581146103f8575f5ffd5b9392505050565b60805160a05160c05160e05161010051610120516101405161016051610180516101a0516101c0516101e0516147746105315f395f81816102ae015281816106420152818161080e015281816109430152818161258501528181612617015261269a01525f818161051c01528181611e2a01526123ee01525f818161024801528181611d2901526122f001525f818161049f01528181611b5e0152611bf401525f818161027b0152611a2601525f81816104390152818161192501526121f201525f8181610300015261182401525f8181610395015281816115ec015261168201525f818161054f0152818161113f01526111d101525f818161016501528181610e010152611fec01525f81816103c80152818161100d01526120f401525f818161046c0152610f0d01526147745ff3fe608060405260043610610149575f3560e01c80638da5cb5b116100b3578063c9f0a2fa1161006d578063c9f0a2fa1461045b578063df6c25581461048e578063f23a6e61146104c1578063f2fde38b146104ec578063f66ac0cb1461050b578063fc40c9c71461053e575f5ffd5b80638da5cb5b146103685780639110c77714610384578063a05f32dc146103b7578063b94ee332146103ea578063bc197c81146103fd578063bd4486ee14610428575f5ffd5b80633fc8cef3116101045780633fc8cef31461029d5780635c975abb146102d05780635ea1e4c9146102ef578063715018a61461032257806386496e7a1461033657806386dcbd2714610349575f5ffd5b80628534f71461015457806301ffc9a7146101a457806302329a29146101d3578063150b7a02146101f4578063349d6a85146102375780633733b82b1461026a575f5ffd5b3661015057005b5f5ffd5b34801561015f575f5ffd5b506101877f000000000000000000000000000000000000000000000000000000000000000081565b6040516001600160a01b0390911681526020015b60405180910390f35b3480156101af575f5ffd5b506101c36101be366004612b45565b610571565b604051901515815260200161019b565b3480156101de575f5ffd5b506101f26101ed366004612b7d565b6105a7565b005b3480156101ff575f5ffd5b5061021e61020e366004612d6a565b630a85bd0160e11b949350505050565b6040516001600160e01b0319909116815260200161019b565b348015610242575f5ffd5b506101877f000000000000000000000000000000000000000000000000000000000000000081565b348015610275575f5ffd5b506101877f000000000000000000000000000000000000000000000000000000000000000081565b3480156102a8575f5ffd5b506101877f000000000000000000000000000000000000000000000000000000000000000081565b3480156102db575f5ffd5b505f546101c390600160a01b900460ff1681565b3480156102fa575f5ffd5b506101877f000000000000000000000000000000000000000000000000000000000000000081565b34801561032d575f5ffd5b506101f2610606565b6101f2610344366004612e5e565b610619565b348015610354575f5ffd5b506101f2610363366004612ebd565b6107fa565b348015610373575f5ffd5b505f546001600160a01b0316610187565b34801561038f575f5ffd5b506101877f000000000000000000000000000000000000000000000000000000000000000081565b3480156103c2575f5ffd5b506101877f000000000000000000000000000000000000000000000000000000000000000081565b6101f26103f8366004612f4e565b6108de565b348015610408575f5ffd5b5061021e610417366004613094565b63bc197c8160e01b95945050505050565b348015610433575f5ffd5b506101877f000000000000000000000000000000000000000000000000000000000000000081565b348015610466575f5ffd5b506101877f000000000000000000000000000000000000000000000000000000000000000081565b348015610499575f5ffd5b506101877f000000000000000000000000000000000000000000000000000000000000000081565b3480156104cc575f5ffd5b5061021e6104db366004613144565b63f23a6e6160e01b95945050505050565b3480156104f7575f5ffd5b506101f261050636600461319b565b610ba5565b348015610516575f5ffd5b506101877f000000000000000000000000000000000000000000000000000000000000000081565b348015610549575f5ffd5b506101877f000000000000000000000000000000000000000000000000000000000000000081565b5f6001600160e01b03198216630271189760e51b14806105a157506301ffc9a760e01b6001600160e01b03198316145b92915050565b6105af610be2565b5f8054821515600160a01b0260ff60a01b199091161790556040517f0e2fb031ee032dc02d8011dc50b816eb450cf856abd8261680dac74f72165bd2906105fb90831515815260200190565b60405180910390a150565b61060e610be2565b6106175f610c0e565b565b610621610c5d565b5f61062b84610caf565b905080156106c5576040516323b872dd60e01b81527f00000000000000000000000000000000000000000000000000000000000000006001600160a01b0316906323b872dd90610683903390309086906004016131b6565b6020604051808303815f875af115801561069f573d5f5f3e3d5ffd5b505050506040513d601f19601f820116820180604052508101906106c391906131e5565b505b5f6106d38560400151610da4565b90505f8080808460018111156106eb576106eb613200565b0361071a576106fa885f610dbf565b9194509250905061070b8288611f85565b6107158187611f85565b6107a5565b600184600181111561072e5761072e613200565b036107585761073d885f611faf565b9194509250905061074e8288612543565b6107158187612543565b60405162461bcd60e51b815260206004820152601960248201527f556e6b6e6f776e2070757263686173652063757272656e63790000000000000060448201526064015b60405180910390fd5b60405183151581527fcc54b89ca2d75d5612023b14f0a477212b0e08bc0c5b8ad2804e2f8e2e401fc09060200160405180910390a16107e26125ef565b84156107f0576107f0612600565b5050505050505050565b610802610be2565b5f5b818110156108d9577f00000000000000000000000000000000000000000000000000000000000000006001600160a01b031663095ea7b384848481811061084d5761084d613214565b9050602002016020810190610862919061319b565b6040516001600160e01b031960e084901b1681526001600160a01b0390911660048201525f1960248201526044016020604051808303815f875af11580156108ac573d5f5f3e3d5ffd5b505050506040513d601f19601f820116820180604052508101906108d091906131e5565b50600101610804565b505050565b6108e6610c5d565b5f8080808080805b8a5181101561092d576109198b828151811061090c5761090c613214565b6020026020010151610caf565b610923908361323c565b91506001016108ee565b5080156109c6576040516323b872dd60e01b81527f00000000000000000000000000000000000000000000000000000000000000006001600160a01b0316906323b872dd90610984903390309086906004016131b6565b6020604051808303815f875af11580156109a0573d5f5f3e3d5ffd5b505050506040513d601f19601f820116820180604052508101906109c491906131e5565b505b5f5b8a51811015610b0d575f6109f88c83815181106109e7576109e7613214565b602002602001015160400151610da4565b90505f808080846001811115610a1057610a10613200565b03610a5c57610a388f8681518110610a2a57610a2a613214565b60200260200101518d610dbf565b91945092509050610a49828c61323c565b9a50610a55818b61323c565b9950610ab8565b6001846001811115610a7057610a70613200565b0361075857610a988f8681518110610a8a57610a8a613214565b60200260200101518d611faf565b91945092509050610aa9828a61323c565b9850610ab5818961323c565b97505b8680610ac15750825b96507fcc54b89ca2d75d5612023b14f0a477212b0e08bc0c5b8ad2804e2f8e2e401fc083604051610af6911515815260200190565b60405180910390a1505050508060010190506109c8565b5081610b5b5760405162461bcd60e51b815260206004820152601860248201527f6e6f207375636365737366756c20657865637574696f6e730000000000000000604482015260640161079c565b610b65868a611f85565b610b6f8589611f85565b610b79848a612543565b610b838389612543565b610b8b6125ef565b8015610b9957610b99612600565b50505050505050505050565b610bad610be2565b6001600160a01b038116610bd657604051631e4fbdf760e01b81525f600482015260240161079c565b610bdf81610c0e565b50565b5f546001600160a01b031633146106175760405163118cdaa760e01b815233600482015260240161079c565b5f80546001600160a01b038381166001600160a01b0319831681178455604051919092169283917f8be0079c531659141344cd1fd0a4f28419497f9722a3daafe3b4186f6b6457e09190a35050565b5f54600160a01b900460ff16156106175760405162461bcd60e51b81526020600482015260166024820152751d1a194818dbdb9d1c9858dd081a5cc81c185d5cd95960521b604482015260640161079c565b5f5f5f90505f610cc28460400151610da4565b90506001816001811115610cd857610cd8613200565b03610d9d576020840151610cec908361323c565b91505f5f610d028660400151876020015161272e565b909250905080610d12838661323c565b610d1c919061323c565b93505f610d3587606001518860400151895f015161275e565b91505f90505b8151811015610d98575f60a0838381518110610d5957610d59613214565b6020026020010151901c90505f610d7d828b6020015161285390919063ffffffff16565b9050610d89818961323c565b97505050806001019050610d3b565b505050505b5092915050565b5f603082901c61ffff1660018111156105a1576105a1613200565b5f5f5f5f5f610dda87606001518860400151895f015161275e565b6020890151919350915060028851600a811115610df957610df9613200565b03610ef0575f7f00000000000000000000000000000000000000000000000000000000000000006001600160a01b03168285604051610e38919061324f565b5f6040518083038185875af1925050503d805f8114610e72576040519150601f19603f3d011682016040523d82523d5f602084013e610e77565b606091505b505090508715610e9d5780610e98575f5f5f96509650965050505050611f7e565b610eea565b80610eea5760405162461bcd60e51b815260206004820152601b60248201527f507572636861736520536561506f72745f315f31206661696c65640000000000604482015260640161079c565b50611f4d565b60018851600a811115610f0557610f05613200565b03610ff1575f7f00000000000000000000000000000000000000000000000000000000000000006001600160a01b03168285604051610f44919061324f565b5f6040518083038185875af1925050503d805f8114610f7e576040519150601f19603f3d011682016040523d82523d5f602084013e610f83565b606091505b505090508715610fa45780610e98575f5f5f96509650965050505050611f7e565b80610eea5760405162461bcd60e51b815260206004820152601e60248201527f50757263686173652077797665726e45786368616e6765206661696c65640000604482015260640161079c565b5f8851600a81111561100557611005613200565b036110f1575f7f00000000000000000000000000000000000000000000000000000000000000006001600160a01b03168285604051611044919061324f565b5f6040518083038185875af1925050503d805f811461107e576040519150601f19603f3d011682016040523d82523d5f602084013e611083565b606091505b5050905087156110a45780610e98575f5f5f96509650965050505050611f7e565b80610eea5760405162461bcd60e51b815260206004820152601760248201527f50757263686173652072617269626c65206661696c6564000000000000000000604482015260640161079c565b60038851600a81111561110657611106613200565b03611598575f838060200190518101906111209190613770565b905087156111ba5760405163357a150b60e01b81526001600160a01b037f0000000000000000000000000000000000000000000000000000000000000000169063357a150b908490611176908590600401613a30565b5f604051808303818588803b15801561118d575f5ffd5b505af19350505050801561119f575060015b6111b5575f5f5f96509650965050505050611f7e565b611237565b60405163357a150b60e01b81526001600160a01b037f0000000000000000000000000000000000000000000000000000000000000000169063357a150b908490611208908590600401613a30565b5f604051808303818588803b15801561121f575f5ffd5b505af1158015611231573d5f5f3e3d5ffd5b50505050505b5f5b816020015151811015611591575f8260200151828151811061125d5761125d613214565b60200260200101516020015190505f8360200151838151811061128257611282613214565b60200260200101516040015190505f845f015183815181106112a6576112a6613214565b6020026020010151610100015182815181106112c4576112c4613214565b60200260200101516020015190505f855f015184815181106112e8576112e8613214565b602002602001015160e001515111801561132357505f8560200151858151811061131457611314613214565b602002602001015160c0015151115b1561137457611374818660200151868151811061134257611342613214565b602002602001015160c00151875f0151868151811061136357611363613214565b602002602001015160e00151612872565b845180518490811061138857611388613214565b602002602001015160800151600103611458575f818060200190518101906113b09190613c10565b90505f5b8151811015611451575f8282815181106113d0576113d0613214565b60200260200101519050805f01516001600160a01b03166342842e0e306113f43390565b84602001516040518463ffffffff1660e01b8152600401611417939291906131b6565b5f604051808303815f87803b15801561142e575f5ffd5b505af1158015611440573d5f5f3e3d5ffd5b5050600190930192506113b4915050565b5050611583565b845180518490811061146c5761146c613214565b60200260200101516080015160020361153b575f818060200190518101906114949190613cce565b90505f5b8151811015611451575f8282815181106114b4576114b4613214565b60200260200101519050805f01516001600160a01b031663f242432a306114d83390565b846020015185604001516040518563ffffffff1660e01b81526004016115019493929190613d8c565b5f604051808303815f87803b158015611518575f5ffd5b505af115801561152a573d5f5f3e3d5ffd5b505060019093019250611498915050565b60405162461bcd60e51b815260206004820152601960248201527f756e6b6e6f776e2064656c656761746554797065207832793200000000000000604482015260640161079c565b505050806001019050611239565b5050611f4d565b60048851600a8111156115ad576115ad613200565b03611807575f5f5f858060200190518101906115c99190613edf565b925092509250891561166b57604051635a72594b60e11b81526001600160a01b037f0000000000000000000000000000000000000000000000000000000000000000169063b4e4b29690869061162590879087906004016140e1565b5f604051808303818588803b15801561163c575f5ffd5b505af19350505050801561164e575060015b611666575f5f5f985098509850505050505050611f7e565b6116ea565b604051635a72594b60e11b81526001600160a01b037f0000000000000000000000000000000000000000000000000000000000000000169063b4e4b2969086906116bb90879087906004016140e1565b5f604051808303818588803b1580156116d2575f5ffd5b505af11580156116e4573d5f5f3e3d5ffd5b50505050505b6346296f5d60e11b6001600160e01b031982160161176c5760408201516001600160a01b03166342842e0e303385608001516040518463ffffffff1660e01b815260040161173a939291906131b6565b5f604051808303815f87803b158015611751575f5ffd5b505af1158015611763573d5f5f3e3d5ffd5b505050506117ff565b6301a3112760e61b6001600160e01b03198216016117c257604082810151608084015160a08501519251637921219560e11b81526001600160a01b039092169263f242432a9261173a9230923392600401613d8c565b60405162461bcd60e51b8152602060048201526012602482015271556e6b6e6f776e20746f6b656e207479706560701b604482015260640161079c565b505050611f4d565b60058851600a81111561181c5761181c613200565b03611908575f7f00000000000000000000000000000000000000000000000000000000000000006001600160a01b0316828560405161185b919061324f565b5f6040518083038185875af1925050503d805f8114611895576040519150601f19603f3d011682016040523d82523d5f602084013e61189a565b606091505b5050905087156118bb5780610e98575f5f5f96509650965050505050611f7e565b80610eea5760405162461bcd60e51b815260206004820152601860248201527f5075726368617365207375646f73776170206661696c65640000000000000000604482015260640161079c565b60068851600a81111561191d5761191d613200565b03611a09575f7f00000000000000000000000000000000000000000000000000000000000000006001600160a01b0316828560405161195c919061324f565b5f6040518083038185875af1925050503d805f8114611996576040519150601f19603f3d011682016040523d82523d5f602084013e61199b565b606091505b5050905087156119bc5780610e98575f5f5f96509650965050505050611f7e565b80610eea5760405162461bcd60e51b815260206004820152601b60248201527f507572636861736520536561506f72745f315f34206661696c65640000000000604482015260640161079c565b60078851600a811115611a1e57611a1e613200565b03611b0a575f7f00000000000000000000000000000000000000000000000000000000000000006001600160a01b03168285604051611a5d919061324f565b5f6040518083038185875af1925050503d805f8114611a97576040519150601f19603f3d011682016040523d82523d5f602084013e611a9c565b606091505b505090508715611abd5780610e98575f5f5f96509650965050505050611f7e565b80610eea5760405162461bcd60e51b815260206004820152601b60248201527f5075726368617365204c6f6f6b73526172655632206661696c65640000000000604482015260640161079c565b60088851600a811115611b1f57611b1f613200565b03611d0c575f5f5f85806020019051810190611b3b91906143b7565b9250925092508915611bdd57604051639a1fc3a760e01b81526001600160a01b037f00000000000000000000000000000000000000000000000000000000000000001690639a1fc3a7908690611b9790879087906004016145de565b5f604051808303818588803b158015611bae575f5ffd5b505af193505050508015611bc0575060015b611bd8575f5f5f985098509850505050505050611f7e565b611c5c565b604051639a1fc3a760e01b81526001600160a01b037f00000000000000000000000000000000000000000000000000000000000000001690639a1fc3a7908690611c2d90879087906004016145de565b5f604051808303818588803b158015611c44575f5ffd5b505af1158015611c56573d5f5f3e3d5ffd5b50505050505b6346296f5d60e11b6001600160e01b0319821601611cb05782516060810151608090910151604051632142170760e11b81526001600160a01b03909216916342842e0e9161173a91309133916004016131b6565b6301a3112760e61b6001600160e01b03198216016117c25782516060810151608082015160a090920151604051637921219560e11b81526001600160a01b039092169263f242432a9261173a9230923392909190600401613d8c565b60098851600a811115611d2157611d21613200565b03611e0d575f7f00000000000000000000000000000000000000000000000000000000000000006001600160a01b03168285604051611d60919061324f565b5f6040518083038185875af1925050503d805f8114611d9a576040519150601f19603f3d011682016040523d82523d5f602084013e611d9f565b606091505b505090508715611dc05780610e98575f5f5f96509650965050505050611f7e565b80610eea5760405162461bcd60e51b815260206004820152601b60248201527f507572636861736520536561506f72745f315f35206661696c65640000000000604482015260640161079c565b600a8851600a811115611e2257611e22613200565b03611f0e575f7f00000000000000000000000000000000000000000000000000000000000000006001600160a01b03168285604051611e61919061324f565b5f6040518083038185875af1925050503d805f8114611e9b576040519150601f19603f3d011682016040523d82523d5f602084013e611ea0565b606091505b505090508715611ec15780610e98575f5f5f96509650965050505050611f7e565b80610eea5760405162461bcd60e51b815260206004820152601b60248201527f507572636861736520536561506f72745f315f36206661696c65640000000000604482015260640161079c565b60405162461bcd60e51b81526020600482015260146024820152730aadcd6dcdeeedc40dac2e4d6cae892c8408aa8960631b604482015260640161079c565b611f5b828960200151612911565b5f5f611f6f8a604001518b6020015161272e565b60019950909750955050505050505b9250925092565b5f82118015611f9c57506001600160a01b03811615155b15611fab57611fab81836129a7565b5050565b5f5f5f5f5f611fca87606001518860400151895f015161275e565b909250905060028751600a811115611fe457611fe4613200565b036120d8575f7f00000000000000000000000000000000000000000000000000000000000000006001600160a01b031683604051612022919061324f565b5f604051808303815f865af19150503d805f811461205b576040519150601f19603f3d011682016040523d82523d5f602084013e612060565b606091505b5050905086156120855780612080575f5f5f955095509550505050611f7e565b6120d2565b806120d25760405162461bcd60e51b815260206004820181905260248201527f507572636861736520536561506f72745f315f31206661696c65642057455448604482015260640161079c565b5061250f565b5f8751600a8111156120ec576120ec613200565b036121d5575f7f00000000000000000000000000000000000000000000000000000000000000006001600160a01b03168360405161212a919061324f565b5f604051808303815f865af19150503d805f8114612163576040519150601f19603f3d011682016040523d82523d5f602084013e612168565b606091505b5050905086156121885780612080575f5f5f955095509550505050611f7e565b806120d25760405162461bcd60e51b815260206004820152601c60248201527f50757263686173652072617269626c65206661696c6564205745544800000000604482015260640161079c565b60068751600a8111156121ea576121ea613200565b036122d3575f7f00000000000000000000000000000000000000000000000000000000000000006001600160a01b031683604051612228919061324f565b5f604051808303815f865af19150503d805f8114612261576040519150601f19603f3d011682016040523d82523d5f602084013e612266565b606091505b5050905086156122865780612080575f5f5f955095509550505050611f7e565b806120d25760405162461bcd60e51b815260206004820181905260248201527f507572636861736520536561506f72745f315f34206661696c65642057455448604482015260640161079c565b60098751600a8111156122e8576122e8613200565b036123d1575f7f00000000000000000000000000000000000000000000000000000000000000006001600160a01b031683604051612326919061324f565b5f604051808303815f865af19150503d805f811461235f576040519150601f19603f3d011682016040523d82523d5f602084013e612364565b606091505b5050905086156123845780612080575f5f5f955095509550505050611f7e565b806120d25760405162461bcd60e51b815260206004820181905260248201527f507572636861736520536561506f72745f315f35206661696c65642057455448604482015260640161079c565b600a8751600a8111156123e6576123e6613200565b036124cf575f7f00000000000000000000000000000000000000000000000000000000000000006001600160a01b031683604051612424919061324f565b5f604051808303815f865af19150503d805f811461245d576040519150601f19603f3d011682016040523d82523d5f602084013e612462565b606091505b5050905086156124825780612080575f5f5f955095509550505050611f7e565b806120d25760405162461bcd60e51b815260206004820181905260248201527f507572636861736520536561506f72745f315f36206661696c65642057455448604482015260640161079c565b60405162461bcd60e51b81526020600482015260156024820152740aadcd6dcdeeedc40dac2e4d6cae892c840ae8aa89605b1b604482015260640161079c565b61251d818860200151612a38565b5f5f61253189604001518a6020015161272e565b60019b919a5098509650505050505050565b5f8211801561255a57506001600160a01b03811615155b15611fab5760405163a9059cbb60e01b81526001600160a01b038281166004830152602482018490527f0000000000000000000000000000000000000000000000000000000000000000169063a9059cbb906044016020604051808303815f875af11580156125cb573d5f5f3e3d5ffd5b505050506040513d601f19601f820116820180604052508101906108d991906131e5565b478015610bdf57610bdf33826129a7565b6040516370a0823160e01b81523060048201525f907f00000000000000000000000000000000000000000000000000000000000000006001600160a01b0316906370a0823190602401602060405180830381865afa158015612664573d5f5f3e3d5ffd5b505050506040513d601f19601f820116820180604052508101906126889190614602565b90508015610bdf576001600160a01b037f00000000000000000000000000000000000000000000000000000000000000001663a9059cbb336040516001600160e01b031960e084901b1681526001600160a01b039091166004820152602481018490526044016020604051808303815f875af115801561270a573d5f5f3e3d5ffd5b505050506040513d601f19601f82011682018060405250810190611fab91906131e5565b5f8061ffff601085901c81169085166127478583612853565b6127518683612853565b9350935050509250929050565b6060805f602085901c61ffff16600181111561277c5761277c613200565b905060605f82600181111561279357612793613200565b036127a457869350915061284b9050565b60018260018111156127b8576127b8613200565b03612803575f878060200190518101906127d29190614619565b90506127dd86612ace565b156127f757805f015181602001519450945050505061284b565b519350915061284b9050565b60405162461bcd60e51b815260206004820152601a60248201527f756e6b6e6f776e206164646974696f6e616c4461746154797065000000000000604482015260640161079c565b935093915050565b5f6127106128618385614708565b61286b919061471f565b9392505050565b815183511461287f575f5ffd5b805183511461288c575f5ffd5b5f5b835181101561290b578181815181106128a9576128a9613214565b01602001516001600160f81b03191615612903578281815181106128cf576128cf613214565b602001015160f81c60f81b8482815181106128ec576128ec613214565b60200101906001600160f81b03191690815f1a9053505b60010161288e565b50505050565b5f5b82518110156108d9575f83828151811061292f5761292f613214565b6020026020010151111561299f575f83828151811061295057612950613214565b602002602001015190505f60a085848151811061296f5761296f613214565b6020026020010151901c90505f61298f828661285390919063ffffffff16565b905061299b8184611f85565b5050505b600101612913565b5f826001600160a01b0316826040515f6040518083038185875af1925050503d805f81146129f0576040519150601f19603f3d011682016040523d82523d5f602084013e6129f5565b606091505b50509050806108d95760405162461bcd60e51b815260206004820152600f60248201526e1d1c985b9cd9995c8819985a5b1959608a1b604482015260640161079c565b5f5b82518110156108d9575f838281518110612a5657612a56613214565b60200260200101511115612ac6575f838281518110612a7757612a77613214565b602002602001015190505f60a0858481518110612a9657612a96613214565b6020026020010151901c90505f612ab6828661285390919063ffffffff16565b9050612ac28184612543565b5050505b600101612a3a565b5f600582600a811115612ae357612ae3613200565b1480612b005750600482600a811115612afe57612afe613200565b145b80612b1c5750600782600a811115612b1a57612b1a613200565b145b15612b2957506001919050565b505f919050565b6001600160e01b031981168114610bdf575f5ffd5b5f60208284031215612b55575f5ffd5b813561286b81612b30565b8015158114610bdf575f5ffd5b8035612b7881612b60565b919050565b5f60208284031215612b8d575f5ffd5b813561286b81612b60565b6001600160a01b0381168114610bdf575f5ffd5b8035612b7881612b98565b634e487b7160e01b5f52604160045260245ffd5b604080519081016001600160401b0381118282101715612bed57612bed612bb7565b60405290565b6040516101a081016001600160401b0381118282101715612bed57612bed612bb7565b60405161016081016001600160401b0381118282101715612bed57612bed612bb7565b60405160c081016001600160401b0381118282101715612bed57612bed612bb7565b604051606081016001600160401b0381118282101715612bed57612bed612bb7565b60405161020081016001600160401b0381118282101715612bed57612bed612bb7565b60405160e081016001600160401b0381118282101715612bed57612bed612bb7565b604051601f8201601f191681016001600160401b0381118282101715612cea57612cea612bb7565b604052919050565b5f6001600160401b03821115612d0a57612d0a612bb7565b50601f01601f191660200190565b5f82601f830112612d27575f5ffd5b8135612d3a612d3582612cf2565b612cc2565b818152846020838601011115612d4e575f5ffd5b816020850160208301375f918101602001919091529392505050565b5f5f5f5f60808587031215612d7d575f5ffd5b8435612d8881612b98565b93506020850135612d9881612b98565b92506040850135915060608501356001600160401b03811115612db9575f5ffd5b612dc587828801612d18565b91505092959194509250565b5f60808284031215612de1575f5ffd5b604051608081016001600160401b0381118282101715612e0357612e03612bb7565b6040529050808235600b8110612e17575f5ffd5b8152602083810135908201526040808401359082015260608301356001600160401b03811115612e45575f5ffd5b612e5185828601612d18565b6060830152505092915050565b5f5f5f60608486031215612e70575f5ffd5b83356001600160401b03811115612e85575f5ffd5b612e9186828701612dd1565b9350506020840135612ea281612b98565b91506040840135612eb281612b98565b809150509250925092565b5f5f60208385031215612ece575f5ffd5b82356001600160401b03811115612ee3575f5ffd5b8301601f81018513612ef3575f5ffd5b80356001600160401b03811115612f08575f5ffd5b8560208260051b8401011115612f1c575f5ffd5b6020919091019590945092505050565b5f6001600160401b03821115612f4457612f44612bb7565b5060051b60200190565b5f5f5f5f60808587031215612f61575f5ffd5b84356001600160401b03811115612f76575f5ffd5b8501601f81018713612f86575f5ffd5b8035612f94612d3582612f2c565b8082825260208201915060208360051b850101925089831115612fb5575f5ffd5b602084015b83811015612ff55780356001600160401b03811115612fd7575f5ffd5b612fe68c602083890101612dd1565b84525060209283019201612fba565b5096506130089250505060208601612bac565b925061301660408601612bac565b915061302460608601612b6d565b905092959194509250565b5f82601f83011261303e575f5ffd5b813561304c612d3582612f2c565b8082825260208201915060208360051b86010192508583111561306d575f5ffd5b602085015b8381101561308a578035835260209283019201613072565b5095945050505050565b5f5f5f5f5f60a086880312156130a8575f5ffd5b85356130b381612b98565b945060208601356130c381612b98565b935060408601356001600160401b038111156130dd575f5ffd5b6130e98882890161302f565b93505060608601356001600160401b03811115613104575f5ffd5b6131108882890161302f565b92505060808601356001600160401b0381111561312b575f5ffd5b61313788828901612d18565b9150509295509295909350565b5f5f5f5f5f60a08688031215613158575f5ffd5b853561316381612b98565b9450602086013561317381612b98565b9350604086013592506060860135915060808601356001600160401b0381111561312b575f5ffd5b5f602082840312156131ab575f5ffd5b813561286b81612b98565b6001600160a01b039384168152919092166020820152604081019190915260600190565b8051612b7881612b60565b5f602082840312156131f5575f5ffd5b815161286b81612b60565b634e487b7160e01b5f52602160045260245ffd5b634e487b7160e01b5f52603260045260245ffd5b634e487b7160e01b5f52601160045260245ffd5b808201808211156105a1576105a1613228565b5f82518060208501845e5f920191825250919050565b8051612b7881612b98565b5f82601f83011261327f575f5ffd5b815161328d612d3582612cf2565b8181528460208386010111156132a1575f5ffd5b8160208501602083015e5f918101602001919091529392505050565b5f82601f8301126132cc575f5ffd5b81516132da612d3582612f2c565b8082825260208201915060208360051b8601019250858311156132fb575f5ffd5b602085015b8381101561308a5780516001600160401b0381111561331d575f5ffd5b86016040818903601f19011215613332575f5ffd5b61333a612bcb565b6020820151815260408201516001600160401b03811115613359575f5ffd5b6133688a602083860101613270565b6020830152508085525050602083019250602081019050613300565b805160ff81168114612b78575f5ffd5b5f82601f8301126133a3575f5ffd5b81516133b1612d3582612f2c565b8082825260208201915060208360051b8601019250858311156133d2575f5ffd5b602085015b8381101561308a5780516001600160401b038111156133f4575f5ffd5b86016101a0818903601f1901121561340a575f5ffd5b613412612bf3565b6020820151815261342560408301613265565b602082015260608281015160408301526080808401519183019190915260a0808401519183019190915260c08301519082015261346460e08301613265565b60c08201526101008201516001600160401b03811115613482575f5ffd5b6134918a602083860101613270565b60e0830152506101208201516001600160401b038111156134b0575f5ffd5b6134bf8a6020838601016132bd565b6101008301525061014082810151610120830152610160830151908201526134ea6101808301613384565b6101608201526134fd6101a08301613384565b610180820152845250602092830192016133d7565b805160088110612b78575f5ffd5b5f82601f83011261352f575f5ffd5b815161353d612d3582612f2c565b8082825260208201915060208360061b86010192508583111561355e575f5ffd5b602085015b8381101561308a576040818803121561357a575f5ffd5b613582612bcb565b81518152602082015161359481612b98565b6020828101919091529084529290920191604001613563565b5f82601f8301126135bc575f5ffd5b81516135ca612d3582612f2c565b8082825260208201915060208360051b8601019250858311156135eb575f5ffd5b602085015b8381101561308a5780516001600160401b0381111561360d575f5ffd5b8601610160818903601f19011215613623575f5ffd5b61362b612c16565b61363760208301613512565b81526040828101516020830152606080840151918301919091526080808401519183019190915260a08301519082015261367360c08301613265565b60a082015260e08201516001600160401b03811115613690575f5ffd5b61369f8a602083860101613270565b60c0830152506101008281015160e08301526101208084015191830191909152610140830151908201526101608201516001600160401b038111156136e2575f5ffd5b6136f18a602083860101613520565b61014083015250845250602092830192016135f0565b5f60c08284031215613717575f5ffd5b61371f612c39565b82518152602080840151908201526040808401519082015260608084015190820152608083015190915061375281612b98565b608082015260a082015161376581612b60565b60a082015292915050565b5f60208284031215613780575f5ffd5b81516001600160401b03811115613795575f5ffd5b820161016081850312156137a7575f5ffd5b6137af612c39565b81516001600160401b038111156137c4575f5ffd5b6137d086828501613394565b82525060208201516001600160401b038111156137eb575f5ffd5b6137f7868285016135ad565b60208301525061380a8560408401613707565b6040820152610100820151606082015261012082015160808201526138326101408301613384565b60a0820152949350505050565b5f81518084528060208401602086015e5f602082860101526020601f19601f83011685010191505092915050565b5f82825180855260208501945060208160051b830101602085015f5b838110156138d257601f1985840301885281518051845260208101519050604060208501526138bb604085018261383f565b6020998a0199909450929092019150600101613889565b50909695505050505050565b600881106138ee576138ee613200565b9052565b5f8151808452602084019350602083015f5b82811015613937578151805187526020908101516001600160a01b03168188015260409096019590910190600101613904565b5093949350505050565b5f82825180855260208501945060208160051b830101602085015f5b838110156138d257601f19858403018852815161397b8482516138de565b6020810151602085015260408101516040850152606081015160608501526080810151608085015260a08101516139bd60a08601826001600160a01b03169052565b5060c081015161016060c08601526139d961016086018261383f565b905060e082015160e08601526101008201516101008601526101208201516101208601526101408201519150848103610140860152613a1881836138f2565b60209a8b019a9095509390930192505060010161395d565b602081525f6101808201835161016060208501528181518084526101a0860191506101a08160051b87010193506020830192505f5b81811015613b715761019f198786030183528351805186526020810151613a9760208801826001600160a01b03169052565b5060408101516040870152606081015160608701526080810151608087015260a081015160a087015260c0810151613ada60c08801826001600160a01b03169052565b5060e08101516101a060e0880152613af66101a088018261383f565b9050610100820151878203610100890152613b11828261386d565b915050610120820151610120880152610140820151610140880152610160820151613b4261016089018260ff169052565b506101808201519150613b5b61018088018360ff169052565b9550506020938401939290920191600101613a65565b505050506020840151838203601f19016040850152613b908282613941565b9150506040840151613be26060850182805182526020808201519083015260408082015190830152606080820151908301526080808201516001600160a01b03169083015260a0908101511515910152565b506060840151610120840152608084015161014084015260a084015160ff8116610160850152509392505050565b5f60208284031215613c20575f5ffd5b81516001600160401b03811115613c35575f5ffd5b8201601f81018413613c45575f5ffd5b8051613c53612d3582612f2c565b8082825260208201915060208360061b850101925086831115613c74575f5ffd5b6020840193505b82841015613cc45760408488031215613c92575f5ffd5b613c9a612bcb565b8451613ca581612b98565b8152602085810151818301529083526040909401939190910190613c7b565b9695505050505050565b5f60208284031215613cde575f5ffd5b81516001600160401b03811115613cf3575f5ffd5b8201601f81018413613d03575f5ffd5b8051613d11612d3582612f2c565b80828252602082019150602060608402850101925086831115613d32575f5ffd5b6020840193505b82841015613cc45760608488031215613d50575f5ffd5b613d58612c5b565b8451613d6381612b98565b815260208581015181830152604080870151908301529083526060909401939190910190613d39565b6001600160a01b0394851681529290931660208301526040820152606081019190915260a0608082018190525f9082015260c00190565b5f6102008284031215613dd4575f5ffd5b613ddc612c7d565b9050613de7826131da565b8152613df560208301613265565b6020820152613e0660408301613265565b6040820152606082810151908201526080808301519082015260a08083015190820152613e3560c08301613265565b60c0820152613e4660e08301613265565b60e082015261010082810151908201526101208083015190820152610140808301519082015261016080830151908201526101808201516001600160401b03811115613e90575f5ffd5b613e9c84828501613270565b61018083015250613eb06101a08301613384565b6101a08201526101c082810151908201526101e09182015191810191909152919050565b8051612b7881612b30565b5f5f5f60608486031215613ef1575f5ffd5b83516001600160401b03811115613f06575f5ffd5b840160c08187031215613f17575f5ffd5b613f1f612c39565b8151613f2a81612b60565b81526020820151613f3a81612b98565b602082015260408281015190820152606080830151908201526080808301519082015260a08201516001600160401b03811115613f75575f5ffd5b613f8188828501613270565b60a083015250809450505060208401516001600160401b03811115613fa4575f5ffd5b613fb086828701613dc3565b925050613fbf60408501613ed4565b90509250925092565b8051151582525f6020820151613fe960208501826001600160a01b03169052565b50604082015161400460408501826001600160a01b03169052565b50606082015160608401526080820151608084015260a082015160a084015260c082015161403d60c08501826001600160a01b03169052565b5060e082015161405860e08501826001600160a01b03169052565b506101008201516101008401526101208201516101208401526101408201516101408401526101608201516101608401526101808201516102006101808501526140a661020085018261383f565b90506101a08301516140be6101a086018260ff169052565b506101c08301516101c08501526101e08301516101e08501528091505092915050565b6040815282511515604082015260018060a01b03602084015116606082015260408301516080820152606083015160a0820152608083015160c08201525f60a084015160c060e084015261413961010084018261383f565b9050828103602084015261414d8185613fc8565b95945050505050565b805160028110612b78575f5ffd5b5f82601f830112614173575f5ffd5b8151614181612d3582612f2c565b8082825260208201915060208360061b8601019250858311156141a2575f5ffd5b602085015b8381101561308a57604081880312156141be575f5ffd5b6141c6612bcb565b815161ffff811681146141d7575f5ffd5b815260208201516141e781612b98565b60208281019190915290845292909201916040016141a7565b5f6101a08284031215614211575f5ffd5b614219612bf3565b905061422482613265565b815261423260208301614156565b602082015261424360408301613265565b604082015261425460608301613265565b60608201526080828101519082015260a0808301519082015261427960c08301613265565b60c082015260e08281015190820152610100808301519082015261012080830151908201526101408201516001600160401b038111156142b7575f5ffd5b6142c384828501614164565b6101408301525061016082810151908201526101808201516001600160401b038111156142ee575f5ffd5b6142fa84828501613270565b6101808301525092915050565b5f60e08284031215614317575f5ffd5b61431f612ca0565b905081516001600160401b03811115614336575f5ffd5b61434284828501614200565b82525061435160208301613384565b6020820152604082810151908201526060808301519082015260808201516001600160401b03811115614382575f5ffd5b61438e84828501613270565b6080830152506143a060a08301614156565b60a082015260c09182015191810191909152919050565b5f5f5f606084860312156143c9575f5ffd5b83516001600160401b038111156143de575f5ffd5b6143ea86828701614307565b93505060208401516001600160401b03811115614405575f5ffd5b61441186828701614307565b9250506040840151612eb281612b30565b600281106138ee576138ee613200565b5f8151808452602084019350602083015f5b82811015613937578151805161ffff1687526020908101516001600160a01b03168188015260409096019590910190600101614444565b5f815160e0845261449860e0850182516001600160a01b03169052565b60208101516144ab610100860182614422565b5060408101516001600160a01b0381166101208601525060608101516001600160a01b03811661014086015250608081015161016085015260a081015161018085015260c08101516001600160a01b0381166101a08601525060e08101516101c08501526101008101516101e08501526101208101516102008501526101408101516101a0610220860152614544610280860182614432565b6101608301516102408701526101809092015185830360df1901610260870152919050614571818361383f565b9150506020830151614588602086018260ff169052565b506040830151604085015260608301516060850152608083015184820360808601526145b4828261383f565b91505060a08301516145c960a0860182614422565b5060c083015160c08501528091505092915050565b604081525f6145f0604083018561447b565b828103602084015261414d818561447b565b5f60208284031215614612575f5ffd5b5051919050565b5f60208284031215614629575f5ffd5b81516001600160401b0381111561463e575f5ffd5b82016040818503121561464f575f5ffd5b614657612bcb565b81516001600160401b0381111561466c575f5ffd5b61467886828501613270565b82525060208201516001600160401b03811115614693575f5ffd5b80830192505084601f8301126146a7575f5ffd5b81516146b5612d3582612f2c565b8082825260208201915060208360051b8601019250878311156146d6575f5ffd5b6020850194505b828510156146f85784518252602094850194909101906146dd565b6020840152509095945050505050565b80820281158282048414176105a1576105a1613228565b5f8261473957634e487b7160e01b5f52601260045260245ffd5b50049056fea26469706673582212204611784164e4bd52d247e3e678b0ae5fc3eede3e6fd0c1527814bfdf31f2ee9164736f6c634300081e0033",
  "linkReferences": {},
  "deployedLinkReferences": {},
  "immutableReferences": {
    "10078": [
      {
        "length": 32,
        "start": 1132
      },
      {
        "length": 32,
        "start": 3853
      }
    ],
    "10080": [
      {
        "length": 32,
        "start": 968
      },
      {
        "length": 32,
        "start": 4109
      },
      {
        "length": 32,
        "start": 8436
      }
    ],
    "10082": [
      {
        "length": 32,
        "start": 357
      },
      {
        "length": 32,
        "start": 3585
      },
      {
        "length": 32,
        "start": 8172
      }
    ],
    "10084": [
      {
        "length": 32,
        "start": 1359
      },
      {
        "length": 32,
        "start": 4415
      },
      {
        "length": 32,
        "start": 4561
      }
    ],
    "10086": [
      {
        "length": 32,
        "start": 917
      },
      {
        "length": 32,
        "start": 5612
      },
      {
        "length": 32,
        "start": 5762
      }
    ],
    "10088": [
      {
        "length": 32,
        "start": 768
      },
      {
        "length": 32,
        "start": 6180
      }
    ],
    "10090": [
      {
        "length": 32,
        "start": 1081
      },
      {
        "length": 32,
        "start": 6437
      },
      {
        "length": 32,
        "start": 8690
      }
    ],
    "10092": [
      {
        "length": 32,
        "start": 635
      },
      {
        "length": 32,
        "start": 6694
      }
    ],
    "10094": [
      {
        "length": 32,
        "start": 1183
      },
      {
        "length": 32,
        "start": 7006
      },
      {
        "length": 32,
        "start": 7156
      }
    ],
    "10096": [
      {
        "length": 32,
        "start": 584
      },
      {
        "length": 32,
        "start": 7465
      },
      {
        "length": 32,
        "start": 8944
      }
    ],
    "10098": [
      {
        "length": 32,
        "start": 1308
      },
      {
        "length": 32,
        "start": 7722
      },
      {
        "length": 32,
        "start": 9198
      }
    ],
    "10100": [
      {
        "length": 32,
        "start": 686
      },
      {
        "length": 32,
        "start": 1602
      },
      {
        "length": 32,
        "start": 2062
      },
      {
        "length": 32,
        "start": 2371
      },
      {
        "length": 32,
        "start": 9605
      },
      {
        "length": 32,
        "start": 9751
      },
      {
        "length": 32,
        "start": 9882
      }
    ]
  },
  "inputSourceName": "npm/@rarible/exchange-wrapper@local/contracts/RaribleExchangeWrapper.sol",
  "devdoc": {
    "errors": {
      "OwnableInvalidOwner(address)": [
        {
          "details": "The owner is not a valid owner account. (eg. `address(0)`)"
        }
      ],
      "OwnableUnauthorizedAccount(address)": [
        {
          "details": "The caller account is not authorized to perform an operation."
        }
      ]
    },
    "kind": "dev",
    "methods": {
      "approveWETH(address[])": {
        "params": {
          "transferProxies": "- array of addresses to approve WETH for"
        }
      },
      "bulkPurchase((uint8,uint256,uint256,bytes)[],address,address,bool)": {
        "params": {
          "allowFail": "- true if fails while executing orders are allowed, false if fail of a single order means fail of the whole batch",
          "feeRecipientFirst": "- address of the first fee recipient",
          "feeRecipientSecond": "- address of the second fee recipient",
          "purchaseDetails": "- array of deatails about the purchases (more info in PurchaseDetails struct)"
        }
      },
      "onERC721Received(address,address,uint256,bytes)": {
        "details": "See {IERC721Receiver-onERC721Received}. Always returns `IERC721Receiver.onERC721Received.selector`."
      },
      "owner()": {
        "details": "Returns the address of the current owner."
      },
      "renounceOwnership()": {
        "details": "Leaves the contract without owner. It will not be possible to call `onlyOwner` functions. Can only be called by the current owner. NOTE: Renouncing ownership will leave the contract without an owner, thereby disabling any functionality that is only available to the owner."
      },
      "singlePurchase((uint8,uint256,uint256,bytes),address,address)": {
        "params": {
          "feeRecipientFirst": "- address of the first fee recipient",
          "feeRecipientSecond": "- address of the second fee recipient",
          "purchaseDetails": "- deatails about the purchase (more info in PurchaseDetails struct)"
        }
      },
      "supportsInterface(bytes4)": {
        "details": "Returns true if this contract implements the interface defined by `interfaceId`. See the corresponding https://eips.ethereum.org/EIPS/eip-165#how-interfaces-are-identified[ERC section] to learn more about how these ids are created. This function call must use less than 30 000 gas."
      },
      "transferOwnership(address)": {
        "details": "Transfers ownership of the contract to a new account (`newOwner`). Can only be called by the current owner."
      }
    },
    "version": 1
  },
  "evm": {
    "gasEstimates": {
      "creation": {
        "codeDepositCost": "3658400",
        "executionCost": "infinite",
        "totalCost": "infinite"
      },
      "external": {
        "approveWETH(address[])": "infinite",
        "blur()": "infinite",
        "bulkPurchase((uint8,uint256,uint256,bytes)[],address,address,bool)": "infinite",
        "exchangeV2()": "infinite",
        "looksRare()": "infinite",
        "looksRareV2()": "infinite",
        "onERC1155BatchReceived(address,address,uint256[],uint256[],bytes)": "infinite",
        "onERC1155Received(address,address,uint256,uint256,bytes)": "infinite",
        "onERC721Received(address,address,uint256,bytes)": "infinite",
        "owner()": "2341",
        "pause(bool)": "27851",
        "paused()": "2370",
        "renounceOwnership()": "infinite",
        "seaPort_1_1()": "infinite",
        "seaPort_1_4()": "infinite",
        "seaPort_1_5()": "infinite",
        "seaPort_1_6()": "infinite",
        "singlePurchase((uint8,uint256,uint256,bytes),address,address)": "infinite",
        "sudoswap()": "infinite",
        "supportsInterface(bytes4)": "509",
        "transferOwnership(address)": "infinite",
        "weth()": "infinite",
        "wyvernExchange()": "infinite",
        "x2y2()": "infinite"
      },
      "internal": {
        "_arrayReplace(bytes memory,bytes memory,bytes memory)": "infinite",
        "getAmountOfWethForPurchase(struct RaribleExchangeWrapper.PurchaseDetails memory)": "infinite",
        "getCurrency(uint256)": "95",
        "getDataAndAdditionalData(bytes memory,uint256,enum RaribleExchangeWrapper.Markets)": "infinite",
        "getFees(uint256,uint256)": "infinite",
        "purchase(struct RaribleExchangeWrapper.PurchaseDetails memory,bool)": "infinite",
        "purchaseWETH(struct RaribleExchangeWrapper.PurchaseDetails memory,bool)": "infinite",
        "supportsRoyalties(enum RaribleExchangeWrapper.Markets)": "190",
        "transferAdditionalRoyaltiesETH(uint256[] memory,uint256)": "infinite",
        "transferAdditionalRoyaltiesWETH(uint256[] memory,uint256)": "infinite",
        "transferChange()": "infinite",
        "transferChangeWETH()": "infinite",
        "transferFeeETH(uint256,address)": "infinite",
        "transferFeeWETH(uint256,address)": "infinite"
      }
    }
  },
  "storageLayout": {
    "storage": [
      {
        "astId": 861,
        "contract": "npm/@rarible/exchange-wrapper@local/contracts/RaribleExchangeWrapper.sol:RaribleExchangeWrapper",
        "label": "_owner",
        "offset": 0,
        "slot": "0",
        "type": "t_address"
      },
      {
        "astId": 12717,
        "contract": "npm/@rarible/exchange-wrapper@local/contracts/RaribleExchangeWrapper.sol:RaribleExchangeWrapper",
        "label": "paused",
        "offset": 20,
        "slot": "0",
        "type": "t_bool"
      }
    ],
    "types": {
      "t_address": {
        "encoding": "inplace",
        "label": "address",
        "numberOfBytes": "20"
      },
      "t_bool": {
        "encoding": "inplace",
        "label": "bool",
        "numberOfBytes": "1"
      }
    }
  },
  "userdoc": {
    "kind": "user",
    "methods": {
      "approveWETH(address[])": {
        "notice": "approves weth for a list of the addresses"
      },
      "bulkPurchase((uint8,uint256,uint256,bytes)[],address,address,bool)": {
        "notice": "executes an array of purchases"
      },
      "singlePurchase((uint8,uint256,uint256,bytes),address,address)": {
        "notice": "executes a single purchase"
      }
    },
    "version": 1
  },
  "argsData": "0x00000000000000000000000000000000000000000000000000000000000000000000000000000000000000004f9795a4ccee4f3e4eb4a5111a5ef298e7a5fbc600000000000000000000000000000000006c3852cbef3e08e8df289169ede5810000000000000000000000000000000000000000000000000000000000000000000000000000000000000000d112466471b5438c1ca2d218694200e49d81d04700000000000000000000000025b4efc43c9dcae134233cd577ffca7cfad6748f00000000000000000000000000000000000001ad428e4906ae43d8f9852d0dd600000000000000000000000035c2215f2ffe8917b06454eeeaba189877f200cf000000000000000000000000000000000000000000000000000000000000000000000000000000000000000000000000000000adc04c56bf30ac9d3c0aaf14dc0000000000000000000000000000000000000068f116a894984e2db1123eb3950000000000000000000000007b79995e5f793a07bc00c21412e50ecae098e7f900000000000000000000000000000000000000000000000000000000000001c0000000000000000000000000fb571f9da71d1ac33e069571bf5c67fadcff18e40000000000000000000000000000000000000000000000000000000000000001000000000000000000000000f3964b93f0127c9cc2f48752c67df4b1db7c9138",
  "transaction": {
    "nonce": "0x394",
    "hash": "0x800322e71464ca132fc0e09c5c2de8c83f0a9e0d3e0bf557c35117fa62d4a160",
    "origin": "0xfb571f9da71d1ac33e069571bf5c67fadcff18e4"
  }
}