{
  "address": "0xcd1b15cf602bb8bf469676e94b6ebef76796cfcc",
  "abi": [
    {
      "inputs": [],
      "name": "InvalidInitialization",
      "type": "error"
    },
    {
      "inputs": [],
      "name": "NotInitializing",
      "type": "error"
    },
    {
      "inputs": [
        {
          "internalType": "address",
          "name": "owner",
          "type": "address"
        }
      ],
      "name": "OwnableInvalidOwner",
      "type": "error"
    },
    {
      "inputs": [
        {
          "internalType": "address",
          "name": "account",
          "type": "address"
        }
      ],
      "name": "OwnableUnauthorizedAccount",
      "type": "error"
    },
    {
      "anonymous": false,
      "inputs": [
        {
          "indexed": false,
          "internalType": "uint64",
          "name": "version",
          "type": "uint64"
        }
      ],
      "name": "Initialized",
      "type": "event"
    },
    {
      "anonymous": false,
      "inputs": [
        {
          "indexed": true,
          "internalType": "address",
          "name": "previousOwner",
          "type": "address"
        },
        {
          "indexed": true,
          "internalType": "address",
          "name": "newOwner",
          "type": "address"
        }
      ],
      "name": "OwnershipTransferred",
      "type": "event"
    },
    {
      "inputs": [
        {
          "internalType": "address",
          "name": "initialOwner",
          "type": "address"
        }
      ],
      "name": "__OperatorRole_init",
      "outputs": [],
      "stateMutability": "nonpayable",
      "type": "function"
    },
    {
      "inputs": [
        {
          "internalType": "address",
          "name": "owner",
          "type": "address"
        }
      ],
      "name": "__TransferProxy_init",
      "outputs": [],
      "stateMutability": "nonpayable",
      "type": "function"
    },
    {
      "inputs": [
        {
          "internalType": "address",
          "name": "operator",
          "type": "address"
        }
      ],
      "name": "addOperator",
      "outputs": [],
      "stateMutability": "nonpayable",
      "type": "function"
    },
    {
      "inputs": [
        {
          "internalType": "contract IERC1155",
          "name": "token",
          "type": "address"
        },
        {
          "internalType": "address",
          "name": "from",
          "type": "address"
        },
        {
          "internalType": "address",
          "name": "to",
          "type": "address"
        },
        {
          "internalType": "uint256",
          "name": "id",
          "type": "uint256"
        },
        {
          "internalType": "uint256",
          "name": "value",
          "type": "uint256"
        },
        {
          "internalType": "bytes",
          "name": "data",
          "type": "bytes"
        }
      ],
      "name": "erc1155safeTransferFrom",
      "outputs": [],
      "stateMutability": "nonpayable",
      "type": "function"
    },
    {
      "inputs": [
        {
          "internalType": "contract IERC721",
          "name": "token",
          "type": "address"
        },
        {
          "internalType": "address",
          "name": "from",
          "type": "address"
        },
        {
          "internalType": "address",
          "name": "to",
          "type": "address"
        },
        {
          "internalType": "uint256",
          "name": "tokenId",
          "type": "uint256"
        }
      ],
      "name": "erc721safeTransferFrom",
      "outputs": [],
      "stateMutability": "nonpayable",
      "type": "function"
    },
    {
      "inputs": [],
      "name": "owner",
      "outputs": [
        {
          "internalType": "address",
          "name": "",
          "type": "address"
        }
      ],
      "stateMutability": "view",
      "type": "function"
    },
    {
      "inputs": [
        {
          "internalType": "address",
          "name": "operator",
          "type": "address"
        }
      ],
      "name": "removeOperator",
      "outputs": [],
      "stateMutability": "nonpayable",
      "type": "function"
    },
    {
      "inputs": [],
      "name": "renounceOwnership",
      "outputs": [],
      "stateMutability": "nonpayable",
      "type": "function"
    },
    {
      "inputs": [
        {
          "internalType": "address",
          "name": "newOwner",
          "type": "address"
        }
      ],
      "name": "transferOwnership",
      "outputs": [],
      "stateMutability": "nonpayable",
      "type": "function"
    }
  ],
  "contractName": "TransferProxy",
  "sourceName": "@rarible/transfer-proxy/contracts/proxy/TransferProxy.sol",
  "bytecode": "0x6080604052348015600e575f5ffd5b5060156019565b60c9565b7ff0c57e16840df040f15088dc2f81fe391c3923bec73e23a9662efc9c229c6a00805468010000000000000000900460ff161560685760405163f92ee8a960e01b815260040160405180910390fd5b80546001600160401b039081161460c65780546001600160401b0319166001600160401b0390811782556040519081527fc7f505b2f371ae2175ee4913f4499e1f2633a7b5936321eed1cdaeb6115181d29060200160405180910390a15b50565b61085d806100d65f395ff3fe608060405234801561000f575f5ffd5b5060043610610090575f3560e01c80639870d7fe116100635780639870d7fe146101025780639c1c2ee914610115578063ac8a584a14610128578063f2fde38b1461013b578063f709b9061461014e575f5ffd5b80634a776242146100945780636fc25a31146100a9578063715018a6146100bc5780638da5cb5b146100c4575b5f5ffd5b6100a76100a236600461065f565b610161565b005b6100a76100b736600461065f565b61026f565b6100a7610337565b7f9016d09d72d40fdae2fd8ceac6b6234c7706214fd39c1cd1e609a0528c19930054604080516001600160a01b039092168252519081900360200190f35b6100a761011036600461065f565b61034a565b6100a7610123366004610681565b610375565b6100a761013636600461065f565b610418565b6100a761014936600461065f565b610440565b6100a761015c366004610739565b61047d565b7ff0c57e16840df040f15088dc2f81fe391c3923bec73e23a9662efc9c229c6a008054600160401b810460ff16159067ffffffffffffffff165f811580156101a65750825b90505f8267ffffffffffffffff1660011480156101c25750303b155b9050811580156101d0575080155b156101ee5760405163f92ee8a960e01b815260040160405180910390fd5b845467ffffffffffffffff19166001178555831561021857845460ff60401b1916600160401b1785555b61022186610516565b831561026757845460ff60401b19168555604051600181527fc7f505b2f371ae2175ee4913f4499e1f2633a7b5936321eed1cdaeb6115181d29060200160405180910390a15b505050505050565b7ff0c57e16840df040f15088dc2f81fe391c3923bec73e23a9662efc9c229c6a008054600160401b810460ff16159067ffffffffffffffff165f811580156102b45750825b90505f8267ffffffffffffffff1660011480156102d05750303b155b9050811580156102de575080155b156102fc5760405163f92ee8a960e01b815260040160405180910390fd5b845467ffffffffffffffff19166001178555831561032657845460ff60401b1916600160401b1785555b61032e610527565b6102218661052f565b61033f610537565b6103485f610592565b565b610352610537565b6001600160a01b03165f908152602081905260409020805460ff19166001179055565b335f9081526020819052604090205460ff166103ac5760405162461bcd60e51b81526004016103a390610787565b60405180910390fd5b604051637921219560e11b81526001600160a01b0388169063f242432a906103e2908990899089908990899089906004016107cf565b5f604051808303815f87803b1580156103f9575f5ffd5b505af115801561040b573d5f5f3e3d5ffd5b5050505050505050505050565b610420610537565b6001600160a01b03165f908152602081905260409020805460ff19169055565b610448610537565b6001600160a01b03811661047157604051631e4fbdf760e01b81525f60048201526024016103a3565b61047a81610592565b50565b335f9081526020819052604090205460ff166104ab5760405162461bcd60e51b81526004016103a390610787565b604051632142170760e11b81526001600160a01b0384811660048301528381166024830152604482018390528516906342842e0e906064015f604051808303815f87803b1580156104fa575f5ffd5b505af115801561050c573d5f5f3e3d5ffd5b5050505050505050565b61051e610602565b61047a8161052f565b610348610602565b610448610602565b336105697f9016d09d72d40fdae2fd8ceac6b6234c7706214fd39c1cd1e609a0528c199300546001600160a01b031690565b6001600160a01b0316146103485760405163118cdaa760e01b81523360048201526024016103a3565b7f9016d09d72d40fdae2fd8ceac6b6234c7706214fd39c1cd1e609a0528c19930080546001600160a01b031981166001600160a01b03848116918217845560405192169182907f8be0079c531659141344cd1fd0a4f28419497f9722a3daafe3b4186f6b6457e0905f90a3505050565b7ff0c57e16840df040f15088dc2f81fe391c3923bec73e23a9662efc9c229c6a0054600160401b900460ff1661034857604051631afcd79f60e31b815260040160405180910390fd5b6001600160a01b038116811461047a575f5ffd5b5f6020828403121561066f575f5ffd5b813561067a8161064b565b9392505050565b5f5f5f5f5f5f5f60c0888a031215610697575f5ffd5b87356106a28161064b565b965060208801356106b28161064b565b955060408801356106c28161064b565b9450606088013593506080880135925060a088013567ffffffffffffffff8111156106eb575f5ffd5b8801601f81018a136106fb575f5ffd5b803567ffffffffffffffff811115610711575f5ffd5b8a6020828401011115610722575f5ffd5b602082019350809250505092959891949750929550565b5f5f5f5f6080858703121561074c575f5ffd5b84356107578161064b565b935060208501356107678161064b565b925060408501356107778161064b565b9396929550929360600135925050565b60208082526028908201527f4f70657261746f72526f6c653a2063616c6c6572206973206e6f74207468652060408201526737b832b930ba37b960c11b606082015260800190565b6001600160a01b03878116825286166020820152604081018590526060810184905260a0608082018190528101829052818360c08301375f81830160c090810191909152601f909201601f191601019594505050505056fea26469706673582212204a8beead23e1cba374bad1a6e32f657d5183a2f0f9dc7676e67068d6a8f6b82c64736f6c634300081e0033",
  "linkReferences": {},
  "deployedLinkReferences": {},
  "immutableReferences": {},
  "inputSourceName": "npm/@rarible/transfer-proxy@local/contracts/proxy/TransferProxy.sol",
  "devdoc": {
    "errors": {
      "InvalidInitialization()": [
        {
          "details": "The contract is already initialized."
        }
      ],
      "NotInitializing()": [
        {
          "details": "The contract is not initializing."
        }
      ],
      "OwnableInvalidOwner(address)": [
        {
          "details": "The owner is not a valid owner account. (eg. `address(0)`)"
        }
      ],
      "OwnableUnauthorizedAccount(address)": [
        {
          "details": "The caller account is not authorized to perform an operation."
        }
      ]
    },
    "events": {
      "Initialized(uint64)": {
        "details": "Triggered when the contract has been initialized or reinitialized."
      }
    },
    "kind": "dev",
    "methods": {
      "owner()": {
        "details": "Returns the address of the current owner."
      },
      "renounceOwnership()": {
        "details": "Leaves the contract without owner. It will not be possible to call `onlyOwner` functions. Can only be called by the current owner. NOTE: Renouncing ownership will leave the contract without an owner, thereby disabling any functionality that is only available to the owner."
      },
      "transferOwnership(address)": {
        "details": "Transfers ownership of the contract to a new account (`newOwner`). Can only be called by the current owner."
      }
    },
    "version": 1
  },
  "evm": {
    "gasEstimates": {
      "creation": {
        "codeDepositCost": "428200",
        "executionCost": "30083",
        "totalCost": "458283"
      },
      "external": {
        "__OperatorRole_init(address)": "infinite",
        "__TransferProxy_init(address)": "infinite",
        "addOperator(address)": "26801",
        "erc1155safeTransferFrom(address,address,address,uint256,uint256,bytes)": "infinite",
        "erc721safeTransferFrom(address,address,address,uint256)": "infinite",
        "owner()": "2358",
        "removeOperator(address)": "26839",
        "renounceOwnership()": "infinite",
        "transferOwnership(address)": "infinite"
      }
    }
  },
  "storageLayout": {
    "storage": [
      {
        "astId": 15781,
        "contract": "npm/@rarible/transfer-proxy@local/contracts/proxy/TransferProxy.sol:TransferProxy",
        "label": "operators",
        "offset": 0,
        "slot": "0",
        "type": "t_mapping(t_address,t_bool)"
      }
    ],
    "types": {
      "t_address": {
        "encoding": "inplace",
        "label": "address",
        "numberOfBytes": "20"
      },
      "t_bool": {
        "encoding": "inplace",
        "label": "bool",
        "numberOfBytes": "1"
      },
      "t_mapping(t_address,t_bool)": {
        "encoding": "mapping",
        "key": "t_address",
        "label": "mapping(address => bool)",
        "numberOfBytes": "32",
        "value": "t_bool"
      }
    }
  },
  "userdoc": {
    "kind": "user",
    "methods": {},
    "version": 1
  },
  "argsData": "0x",
  "transaction": {
    "hash": "0x143e54adc121fe5d6778ed8579ef2daeb3c38a30c933e085e75492776dc78d5a",
    "nonce": "0x36a",
    "origin": "0xfb571f9da71d1ac33e069571bf5c67fadcff18e4"
  }
}