{
  "address": "0xC5696e98bE223E58D992Fd17225b37DF0FEFbEDf",
  "abi": [
    {
      "anonymous": false,
      "inputs": [
        {
          "indexed": true,
          "internalType": "address",
          "name": "account",
          "type": "address"
        },
        {
          "indexed": true,
          "internalType": "address",
          "name": "operator",
          "type": "address"
        },
        {
          "indexed": false,
          "internalType": "bool",
          "name": "approved",
          "type": "bool"
        }
      ],
      "name": "ApprovalForAll",
      "type": "event"
    },
    {
      "anonymous": false,
      "inputs": [
        {
          "indexed": false,
          "internalType": "string",
          "name": "newBaseURI",
          "type": "string"
        }
      ],
      "name": "BaseUriChanged",
      "type": "event"
    },
    {
      "anonymous": false,
      "inputs": [
        {
          "indexed": true,
          "internalType": "address",
          "name": "operator",
          "type": "address"
        },
        {
          "indexed": true,
          "internalType": "address",
          "name": "account",
          "type": "address"
        },
        {
          "indexed": false,
          "internalType": "uint256",
          "name": "id",
          "type": "uint256"
        },
        {
          "indexed": false,
          "internalType": "uint256",
          "name": "amount",
          "type": "uint256"
        }
      ],
      "name": "BurnLazy",
      "type": "event"
    },
    {
      "anonymous": false,
      "inputs": [
        {
          "indexed": true,
          "internalType": "address",
          "name": "operator",
          "type": "address"
        },
        {
          "indexed": true,
          "internalType": "address",
          "name": "account",
          "type": "address"
        },
        {
          "indexed": false,
          "internalType": "uint256[]",
          "name": "ids",
          "type": "uint256[]"
        },
        {
          "indexed": false,
          "internalType": "uint256[]",
          "name": "amounts",
          "type": "uint256[]"
        }
      ],
      "name": "BurnLazyBatch",
      "type": "event"
    },
    {
      "anonymous": false,
      "inputs": [
        {
          "indexed": false,
          "internalType": "address",
          "name": "owner",
          "type": "address"
        },
        {
          "indexed": false,
          "internalType": "string",
          "name": "name",
          "type": "string"
        },
        {
          "indexed": false,
          "internalType": "string",
          "name": "symbol",
          "type": "string"
        }
      ],
      "name": "CreateERC1155Rarible",
      "type": "event"
    },
    {
      "anonymous": false,
      "inputs": [
        {
          "indexed": false,
          "internalType": "address",
          "name": "owner",
          "type": "address"
        },
        {
          "indexed": false,
          "internalType": "string",
          "name": "name",
          "type": "string"
        },
        {
          "indexed": false,
          "internalType": "string",
          "name": "symbol",
          "type": "string"
        }
      ],
      "name": "CreateERC1155RaribleUser",
      "type": "event"
    },
    {
      "anonymous": false,
      "inputs": [
        {
          "indexed": false,
          "internalType": "uint256",
          "name": "tokenId",
          "type": "uint256"
        },
        {
          "components": [
            {
              "internalType": "address payable",
              "name": "account",
              "type": "address"
            },
            {
              "internalType": "uint96",
              "name": "value",
              "type": "uint96"
            }
          ],
          "indexed": false,
          "internalType": "struct LibPart.Part[]",
          "name": "creators",
          "type": "tuple[]"
        }
      ],
      "name": "Creators",
      "type": "event"
    },
    {
      "anonymous": false,
      "inputs": [
        {
          "indexed": true,
          "internalType": "address",
          "name": "operator",
          "type": "address"
        },
        {
          "indexed": false,
          "internalType": "bool",
          "name": "hasApproval",
          "type": "bool"
        }
      ],
      "name": "DefaultApproval",
      "type": "event"
    },
    {
      "anonymous": false,
      "inputs": [
        {
          "indexed": true,
          "internalType": "address",
          "name": "minter",
          "type": "address"
        },
        {
          "indexed": true,
          "internalType": "bool",
          "name": "status",
          "type": "bool"
        }
      ],
      "name": "MinterStatusChanged",
      "type": "event"
    },
    {
      "anonymous": false,
      "inputs": [
        {
          "indexed": true,
          "internalType": "address",
          "name": "previousOwner",
          "type": "address"
        },
        {
          "indexed": true,
          "internalType": "address",
          "name": "newOwner",
          "type": "address"
        }
      ],
      "name": "OwnershipTransferred",
      "type": "event"
    },
    {
      "anonymous": false,
      "inputs": [
        {
          "indexed": false,
          "internalType": "uint256",
          "name": "tokenId",
          "type": "uint256"
        },
        {
          "components": [
            {
              "internalType": "address payable",
              "name": "account",
              "type": "address"
            },
            {
              "internalType": "uint96",
              "name": "value",
              "type": "uint96"
            }
          ],
          "indexed": false,
          "internalType": "struct LibPart.Part[]",
          "name": "royalties",
          "type": "tuple[]"
        }
      ],
      "name": "RoyaltiesSet",
      "type": "event"
    },
    {
      "anonymous": false,
      "inputs": [
        {
          "indexed": false,
          "internalType": "uint256",
          "name": "tokenId",
          "type": "uint256"
        },
        {
          "indexed": false,
          "internalType": "uint256",
          "name": "value",
          "type": "uint256"
        }
      ],
      "name": "Supply",
      "type": "event"
    },
    {
      "anonymous": false,
      "inputs": [
        {
          "indexed": true,
          "internalType": "address",
          "name": "operator",
          "type": "address"
        },
        {
          "indexed": true,
          "internalType": "address",
          "name": "from",
          "type": "address"
        },
        {
          "indexed": true,
          "internalType": "address",
          "name": "to",
          "type": "address"
        },
        {
          "indexed": false,
          "internalType": "uint256[]",
          "name": "ids",
          "type": "uint256[]"
        },
        {
          "indexed": false,
          "internalType": "uint256[]",
          "name": "values",
          "type": "uint256[]"
        }
      ],
      "name": "TransferBatch",
      "type": "event"
    },
    {
      "anonymous": false,
      "inputs": [
        {
          "indexed": true,
          "internalType": "address",
          "name": "operator",
          "type": "address"
        },
        {
          "indexed": true,
          "internalType": "address",
          "name": "from",
          "type": "address"
        },
        {
          "indexed": true,
          "internalType": "address",
          "name": "to",
          "type": "address"
        },
        {
          "indexed": false,
          "internalType": "uint256",
          "name": "id",
          "type": "uint256"
        },
        {
          "indexed": false,
          "internalType": "uint256",
          "name": "value",
          "type": "uint256"
        }
      ],
      "name": "TransferSingle",
      "type": "event"
    },
    {
      "anonymous": false,
      "inputs": [
        {
          "indexed": false,
          "internalType": "string",
          "name": "value",
          "type": "string"
        },
        {
          "indexed": true,
          "internalType": "uint256",
          "name": "id",
          "type": "uint256"
        }
      ],
      "name": "URI",
      "type": "event"
    },
    {
      "inputs": [
        {
          "internalType": "string",
          "name": "_name",
          "type": "string"
        },
        {
          "internalType": "string",
          "name": "_symbol",
          "type": "string"
        },
        {
          "internalType": "string",
          "name": "baseURI",
          "type": "string"
        },
        {
          "internalType": "string",
          "name": "contractURI",
          "type": "string"
        },
        {
          "internalType": "address[]",
          "name": "operators",
          "type": "address[]"
        },
        {
          "internalType": "address",
          "name": "transferProxy",
          "type": "address"
        },
        {
          "internalType": "address",
          "name": "lazyTransferProxy",
          "type": "address"
        }
      ],
      "name": "__ERC1155RaribleUser_init",
      "outputs": [],
      "stateMutability": "nonpayable",
      "type": "function"
    },
    {
      "inputs": [
        {
          "internalType": "string",
          "name": "_name",
          "type": "string"
        },
        {
          "internalType": "string",
          "name": "_symbol",
          "type": "string"
        },
        {
          "internalType": "string",
          "name": "baseURI",
          "type": "string"
        },
        {
          "internalType": "string",
          "name": "contractURI",
          "type": "string"
        },
        {
          "internalType": "address",
          "name": "transferProxy",
          "type": "address"
        },
        {
          "internalType": "address",
          "name": "lazyTransferProxy",
          "type": "address"
        }
      ],
      "name": "__ERC1155Rarible_init",
      "outputs": [],
      "stateMutability": "nonpayable",
      "type": "function"
    },
    {
      "inputs": [
        {
          "internalType": "address",
          "name": "minter",
          "type": "address"
        }
      ],
      "name": "addMinter",
      "outputs": [],
      "stateMutability": "nonpayable",
      "type": "function"
    },
    {
      "inputs": [
        {
          "internalType": "address[]",
          "name": "minters",
          "type": "address[]"
        }
      ],
      "name": "addMinters",
      "outputs": [],
      "stateMutability": "nonpayable",
      "type": "function"
    },
    {
      "inputs": [
        {
          "internalType": "address",
          "name": "account",
          "type": "address"
        },
        {
          "internalType": "uint256",
          "name": "id",
          "type": "uint256"
        }
      ],
      "name": "balanceOf",
      "outputs": [
        {
          "internalType": "uint256",
          "name": "",
          "type": "uint256"
        }
      ],
      "stateMutability": "view",
      "type": "function"
    },
    {
      "inputs": [
        {
          "internalType": "address[]",
          "name": "accounts",
          "type": "address[]"
        },
        {
          "internalType": "uint256[]",
          "name": "ids",
          "type": "uint256[]"
        }
      ],
      "name": "balanceOfBatch",
      "outputs": [
        {
          "internalType": "uint256[]",
          "name": "",
          "type": "uint256[]"
        }
      ],
      "stateMutability": "view",
      "type": "function"
    },
    {
      "inputs": [],
      "name": "baseURI",
      "outputs": [
        {
          "internalType": "string",
          "name": "",
          "type": "string"
        }
      ],
      "stateMutability": "view",
      "type": "function"
    },
    {
      "inputs": [
        {
          "internalType": "address",
          "name": "account",
          "type": "address"
        },
        {
          "internalType": "uint256",
          "name": "id",
          "type": "uint256"
        },
        {
          "internalType": "uint256",
          "name": "amount",
          "type": "uint256"
        }
      ],
      "name": "burn",
      "outputs": [],
      "stateMutability": "nonpayable",
      "type": "function"
    },
    {
      "inputs": [
        {
          "internalType": "address",
          "name": "account",
          "type": "address"
        },
        {
          "internalType": "uint256[]",
          "name": "ids",
          "type": "uint256[]"
        },
        {
          "internalType": "uint256[]",
          "name": "amounts",
          "type": "uint256[]"
        }
      ],
      "name": "burnBatch",
      "outputs": [],
      "stateMutability": "nonpayable",
      "type": "function"
    },
    {
      "inputs": [],
      "name": "contractURI",
      "outputs": [
        {
          "internalType": "string",
          "name": "",
          "type": "string"
        }
      ],
      "stateMutability": "view",
      "type": "function"
    },
    {
      "inputs": [
        {
          "internalType": "uint256",
          "name": "_id",
          "type": "uint256"
        }
      ],
      "name": "getCreators",
      "outputs": [
        {
          "components": [
            {
              "internalType": "address payable",
              "name": "account",
              "type": "address"
            },
            {
              "internalType": "uint96",
              "name": "value",
              "type": "uint96"
            }
          ],
          "internalType": "struct LibPart.Part[]",
          "name": "",
          "type": "tuple[]"
        }
      ],
      "stateMutability": "view",
      "type": "function"
    },
    {
      "inputs": [
        {
          "internalType": "uint256",
          "name": "id",
          "type": "uint256"
        }
      ],
      "name": "getRaribleV2Royalties",
      "outputs": [
        {
          "components": [
            {
              "internalType": "address payable",
              "name": "account",
              "type": "address"
            },
            {
              "internalType": "uint96",
              "name": "value",
              "type": "uint96"
            }
          ],
          "internalType": "struct LibPart.Part[]",
          "name": "",
          "type": "tuple[]"
        }
      ],
      "stateMutability": "view",
      "type": "function"
    },
    {
      "inputs": [
        {
          "internalType": "address",
          "name": "_owner",
          "type": "address"
        },
        {
          "internalType": "address",
          "name": "_operator",
          "type": "address"
        }
      ],
      "name": "isApprovedForAll",
      "outputs": [
        {
          "internalType": "bool",
          "name": "",
          "type": "bool"
        }
      ],
      "stateMutability": "view",
      "type": "function"
    },
    {
      "inputs": [
        {
          "internalType": "address",
          "name": "account",
          "type": "address"
        }
      ],
      "name": "isMinter",
      "outputs": [
        {
          "internalType": "bool",
          "name": "",
          "type": "bool"
        }
      ],
      "stateMutability": "view",
      "type": "function"
    },
    {
      "inputs": [
        {
          "components": [
            {
              "internalType": "uint256",
              "name": "tokenId",
              "type": "uint256"
            },
            {
              "internalType": "string",
              "name": "tokenURI",
              "type": "string"
            },
            {
              "internalType": "uint256",
              "name": "supply",
              "type": "uint256"
            },
            {
              "components": [
                {
                  "internalType": "address payable",
                  "name": "account",
                  "type": "address"
                },
                {
                  "internalType": "uint96",
                  "name": "value",
                  "type": "uint96"
                }
              ],
              "internalType": "struct LibPart.Part[]",
              "name": "creators",
              "type": "tuple[]"
            },
            {
              "components": [
                {
                  "internalType": "address payable",
                  "name": "account",
                  "type": "address"
                },
                {
                  "internalType": "uint96",
                  "name": "value",
                  "type": "uint96"
                }
              ],
              "internalType": "struct LibPart.Part[]",
              "name": "royalties",
              "type": "tuple[]"
            },
            {
              "internalType": "bytes[]",
              "name": "signatures",
              "type": "bytes[]"
            }
          ],
          "internalType": "struct LibERC1155LazyMint.Mint1155Data",
          "name": "data",
          "type": "tuple"
        },
        {
          "internalType": "address",
          "name": "to",
          "type": "address"
        },
        {
          "internalType": "uint256",
          "name": "_amount",
          "type": "uint256"
        }
      ],
      "name": "mintAndTransfer",
      "outputs": [],
      "stateMutability": "nonpayable",
      "type": "function"
    },
    {
      "inputs": [],
      "name": "name",
      "outputs": [
        {
          "internalType": "string",
          "name": "",
          "type": "string"
        }
      ],
      "stateMutability": "view",
      "type": "function"
    },
    {
      "inputs": [],
      "name": "owner",
      "outputs": [
        {
          "internalType": "address",
          "name": "",
          "type": "address"
        }
      ],
      "stateMutability": "view",
      "type": "function"
    },
    {
      "inputs": [
        {
          "internalType": "address",
          "name": "_minter",
          "type": "address"
        }
      ],
      "name": "removeMinter",
      "outputs": [],
      "stateMutability": "nonpayable",
      "type": "function"
    },
    {
      "inputs": [],
      "name": "renounceOwnership",
      "outputs": [],
      "stateMutability": "nonpayable",
      "type": "function"
    },
    {
      "inputs": [
        {
          "internalType": "uint256",
          "name": "id",
          "type": "uint256"
        },
        {
          "internalType": "uint256",
          "name": "_salePrice",
          "type": "uint256"
        }
      ],
      "name": "royaltyInfo",
      "outputs": [
        {
          "internalType": "address",
          "name": "receiver",
          "type": "address"
        },
        {
          "internalType": "uint256",
          "name": "royaltyAmount",
          "type": "uint256"
        }
      ],
      "stateMutability": "view",
      "type": "function"
    },
    {
      "inputs": [
        {
          "internalType": "address",
          "name": "from",
          "type": "address"
        },
        {
          "internalType": "address",
          "name": "to",
          "type": "address"
        },
        {
          "internalType": "uint256[]",
          "name": "ids",
          "type": "uint256[]"
        },
        {
          "internalType": "uint256[]",
          "name": "amounts",
          "type": "uint256[]"
        },
        {
          "internalType": "bytes",
          "name": "data",
          "type": "bytes"
        }
      ],
      "name": "safeBatchTransferFrom",
      "outputs": [],
      "stateMutability": "nonpayable",
      "type": "function"
    },
    {
      "inputs": [
        {
          "internalType": "address",
          "name": "from",
          "type": "address"
        },
        {
          "internalType": "address",
          "name": "to",
          "type": "address"
        },
        {
          "internalType": "uint256",
          "name": "id",
          "type": "uint256"
        },
        {
          "internalType": "uint256",
          "name": "amount",
          "type": "uint256"
        },
        {
          "internalType": "bytes",
          "name": "data",
          "type": "bytes"
        }
      ],
      "name": "safeTransferFrom",
      "outputs": [],
      "stateMutability": "nonpayable",
      "type": "function"
    },
    {
      "inputs": [
        {
          "internalType": "address",
          "name": "operator",
          "type": "address"
        },
        {
          "internalType": "bool",
          "name": "approved",
          "type": "bool"
        }
      ],
      "name": "setApprovalForAll",
      "outputs": [],
      "stateMutability": "nonpayable",
      "type": "function"
    },
    {
      "inputs": [
        {
          "internalType": "string",
          "name": "newBaseURI",
          "type": "string"
        }
      ],
      "name": "setBaseURI",
      "outputs": [],
      "stateMutability": "nonpayable",
      "type": "function"
    },
    {
      "inputs": [
        {
          "internalType": "bytes4",
          "name": "interfaceId",
          "type": "bytes4"
        }
      ],
      "name": "supportsInterface",
      "outputs": [
        {
          "internalType": "bool",
          "name": "",
          "type": "bool"
        }
      ],
      "stateMutability": "view",
      "type": "function"
    },
    {
      "inputs": [],
      "name": "symbol",
      "outputs": [
        {
          "internalType": "string",
          "name": "",
          "type": "string"
        }
      ],
      "stateMutability": "view",
      "type": "function"
    },
    {
      "inputs": [
        {
          "components": [
            {
              "internalType": "uint256",
              "name": "tokenId",
              "type": "uint256"
            },
            {
              "internalType": "string",
              "name": "tokenURI",
              "type": "string"
            },
            {
              "internalType": "uint256",
              "name": "supply",
              "type": "uint256"
            },
            {
              "components": [
                {
                  "internalType": "address payable",
                  "name": "account",
                  "type": "address"
                },
                {
                  "internalType": "uint96",
                  "name": "value",
                  "type": "uint96"
                }
              ],
              "internalType": "struct LibPart.Part[]",
              "name": "creators",
              "type": "tuple[]"
            },
            {
              "components": [
                {
                  "internalType": "address payable",
                  "name": "account",
                  "type": "address"
                },
                {
                  "internalType": "uint96",
                  "name": "value",
                  "type": "uint96"
                }
              ],
              "internalType": "struct LibPart.Part[]",
              "name": "royalties",
              "type": "tuple[]"
            },
            {
              "internalType": "bytes[]",
              "name": "signatures",
              "type": "bytes[]"
            }
          ],
          "internalType": "struct LibERC1155LazyMint.Mint1155Data",
          "name": "data",
          "type": "tuple"
        },
        {
          "internalType": "address",
          "name": "from",
          "type": "address"
        },
        {
          "internalType": "address",
          "name": "to",
          "type": "address"
        },
        {
          "internalType": "uint256",
          "name": "amount",
          "type": "uint256"
        }
      ],
      "name": "transferFromOrMint",
      "outputs": [],
      "stateMutability": "nonpayable",
      "type": "function"
    },
    {
      "inputs": [
        {
          "internalType": "address",
          "name": "newOwner",
          "type": "address"
        }
      ],
      "name": "transferOwnership",
      "outputs": [],
      "stateMutability": "nonpayable",
      "type": "function"
    },
    {
      "inputs": [
        {
          "internalType": "uint256",
          "name": "_id",
          "type": "uint256"
        },
        {
          "internalType": "address",
          "name": "_from",
          "type": "address"
        },
        {
          "internalType": "address",
          "name": "_to",
          "type": "address"
        }
      ],
      "name": "updateAccount",
      "outputs": [],
      "stateMutability": "nonpayable",
      "type": "function"
    },
    {
      "inputs": [
        {
          "internalType": "uint256",
          "name": "id",
          "type": "uint256"
        }
      ],
      "name": "uri",
      "outputs": [
        {
          "internalType": "string",
          "name": "",
          "type": "string"
        }
      ],
      "stateMutability": "view",
      "type": "function"
    }
  ],
  "transactionHash": "0x3e6fcf6ee1b3e27b442ae480fa57ef10377dd10a4e900a6cda7ff7103f8fe37f",
  "args": [],
  "numDeployments": 1,
  "solcInputHash": "7238d10cc6d9b157a0ebb0f70bc36233",
  "bytecode": "0x608060405234801561001057600080fd5b50615623806100206000396000f3fe608060405234801561001057600080fd5b50600436106101d95760003560e01c806371e2a65711610104578063cad96cca116100a2578063f242432a11610071578063f242432a146103f1578063f2fde38b14610404578063f5298aca14610417578063ffc4e0a71461042a576101d9565b8063cad96cca146103b0578063e07f2319146103c3578063e8a3d485146103d6578063e985e9c5146103de576101d9565b806395d89b41116100de57806395d89b411461036f578063983b2d5614610377578063a22cb4651461038a578063aa271e1a1461039d576101d9565b806371e2a65714610327578063891be9741461033a5780638da5cb5b1461035a576101d9565b80632eb2c2d61161017c57806361e054591161014b57806361e05459146102f15780636b20c454146103045780636c0360eb14610317578063715018a61461031f576101d9565b80632eb2c2d6146102985780633092afd5146102ab5780634e1273f4146102be57806355f804b3146102de576101d9565b80630e89341c116101b85780630e89341c1461023c5780630eaead671461024f578063173c43d2146102645780632a55205a14610277576101d9565b8062fdd58e146101de57806301ffc9a71461020757806306fdde0314610227575b600080fd5b6101f16101ec366004614963565b61043d565b6040516101fe91906151cf565b60405180910390f35b61021a610215366004614a5c565b6104af565b6040516101fe9190614f20565b61022f6104c2565b6040516101fe9190614f2b565b61022f61024a366004614d27565b610551565b61026261025d366004614cd0565b61055c565b005b610262610272366004614ab6565b610600565b61028a610285366004614d80565b610663565b6040516101fe929190614ebc565b6102626102a63660046147b1565b610771565b6102626102b936600461475d565b610a6f565b6102d16102cc3660046149fc565b610b1f565b6040516101fe9190614ee8565b6102626102ec366004614a84565b610c0a565b6102626102ff366004614b7d565b610caf565b6102626103123660046148c0565b610d16565b61022f610e9c565b610262610f34565b6102626103353660046149c2565b610fe0565b61034d610348366004614d27565b6110c9565b6040516101fe9190614ed5565b610362611159565b6040516101fe9190614e72565b61022f611168565b61026261038536600461475d565b6111c4565b610262610398366004614932565b611279565b61021a6103ab36600461475d565b611368565b61034d6103be366004614d27565b611387565b6102626103d1366004614d3f565b611402565b61022f611445565b61021a6103ec366004614779565b6114a1565b6102626103ff36600461485a565b6114b4565b61026261041236600461475d565b61166d565b61026261042536600461498e565b611770565b610262610438366004614c69565b6117ec565b60006001600160a01b0383166104845760405162461bcd60e51b815260040180806020018281038252602b81526020018061537b602b913960400191505060405180910390fd5b5060008181526097602090815260408083206001600160a01b03861684529091529020545b92915050565b60006104ba82611894565b90505b919050565b610262805460408051602060026001851615610100026000190190941693909304601f810184900484028201840190925281815292918301828280156105495780601f1061051e57610100808354040283529160200191610549565b820191906000526020600020905b81548152906001019060200180831161052c57829003601f168201915b505050505081565b60606104ba82611933565b6102965460ff16156105f057826060015160008151811061057957fe5b6020026020010151600001516001600160a01b0316610596611159565b6001600160a01b031614806105cb57506105cb83606001516000815181106105ba57fe5b602002602001015160000151611368565b6105f05760405162461bcd60e51b81526004016105e790614f69565b60405180910390fd5b6105fb838383611ac9565b505050565b61060e868686868686611dc5565b610296805460ff191690557fcc215b7682459c30faa0e854780165d503a7d62d22a9aaaad6334585dc63343e610642611ef7565b878760405161065393929190614e86565b60405180910390a1505050505050565b60008281526101fa602052604081205481906106845750600090508061076a565b60008481526101fa6020908152604080832080548251818502810185019093528083529192909190849084015b8282101561070057600084815260209081902060408051808201909152908401546001600160a01b0381168252600160a01b90046001600160601b0316818301528252600190920191016106b1565b5050505090508060008151811061071357fe5b60209081029190910101515192506000805b825181101561075e5782818151811061073a57fe5b6020026020010151602001516001600160601b031682019150806001019050610725565b50612710908502049150505b9250929050565b81518351146107b15760405162461bcd60e51b81526004018080602001828103825260288152602001806155c66028913960400191505060405180910390fd5b6001600160a01b0384166107f65760405162461bcd60e51b815260040180806020018281038252602581526020018061543b6025913960400191505060405180910390fd5b6107fe611ef7565b6001600160a01b0316856001600160a01b031614806108245750610824856103ec611ef7565b61085f5760405162461bcd60e51b81526004018080602001828103825260328152602001806154606032913960400191505060405180910390fd5b6000610869611ef7565b9050610879818787878787610a67565b60005b845181101561097f57600085828151811061089357fe5b6020026020010151905060008583815181106108ab57fe5b60200260200101519050610918816040518060600160405280602a8152602001615505602a91396097600086815260200190815260200160002060008d6001600160a01b03166001600160a01b0316815260200190815260200160002054611efb9092919063ffffffff16565b60008381526097602090815260408083206001600160a01b038e811685529252808320939093558a168152205461094f9082611f92565b60009283526097602090815260408085206001600160a01b038c168652909152909220919091555060010161087c565b50846001600160a01b0316866001600160a01b0316826001600160a01b03167f4a39dc06d4c0dbc64b70af90fd698a233a518aa5d07e595d983b8c0526c8f7fb8787604051808060200180602001838103835285818151815260200191508051906020019060200280838360005b83811015610a055781810151838201526020016109ed565b50505050905001838103825284818151815260200191508051906020019060200280838360005b83811015610a44578181015183820152602001610a2c565b5050505090500194505050505060405180910390a4610a67818787878787611fec565b505050505050565b610a77611ef7565b6001600160a01b0316610a88611159565b6001600160a01b031614610ad1576040805162461bcd60e51b8152602060048201819052602482015260008051602061552f833981519152604482015290519081900360640190fd5b6001600160a01b03811660008181526102c86020526040808220805460ff19169055519091907f3042b80e435ae46c334b2cfec51a66d64c9a8a8af4cd0c279a124c35a09e91dd908390a350565b60608151835114610b615760405162461bcd60e51b815260040180806020018281038252602981526020018061559d6029913960400191505060405180910390fd5b600083516001600160401b0381118015610b7a57600080fd5b50604051908082528060200260200182016040528015610ba4578160200160208202803683370190505b50905060005b8451811015610c0257610be3858281518110610bc257fe5b6020026020010151858381518110610bd657fe5b602002602001015161043d565b828281518110610bef57fe5b6020908102919091010152600101610baa565b509392505050565b610c12611ef7565b6001600160a01b0316610c23611159565b6001600160a01b031614610c6c576040805162461bcd60e51b8152602060048201819052602482015260008051602061552f833981519152604482015290519081900360640190fd5b610c7581612262565b7f87cdeaffd8e70903d6ce7cc983fac3b09ca79e83818124c98e47a1d70f8027d681604051610ca49190614f2b565b60405180910390a150565b610cbd878787878686611dc5565b610296805460ff191660011790557f7da6bc204c8c4856a6aff786a6cb81c59477c782191dc51837d644a8ad50f2cc610cf4611ef7565b8888604051610d0593929190614e86565b60405180910390a150505050505050565b8051825114610d375760405162461bcd60e51b81526004016105e790615118565b600082516001600160401b0381118015610d5057600080fd5b50604051908082528060200260200182016040528015610d7a578160200160208202803683370190505b509050600083516001600160401b0381118015610d9657600080fd5b50604051908082528060200260200182016040528015610dc0578160200160208202803683370190505b50905060005b8451811015610e3557610dff858281518110610dde57fe5b6020026020010151858381518110610df257fe5b6020026020010151612276565b848381518110610e0b57fe5b60200260200101848481518110610e1e57fe5b602090810291909101019190915252600101610dc6565b50610e418585846122eb565b846001600160a01b0316610e53611ef7565b6001600160a01b03167fcf3391513e21a9d4a0348f8e890080170eba18dc62db35b60d8a518b7088eb3a8684604051610e8d929190614efb565b60405180910390a35050505050565b61012f8054604080516020601f6002600019610100600188161502019095169490940493840181900481028201810190925282815260609390929091830182828015610f295780601f10610efe57610100808354040283529160200191610f29565b820191906000526020600020905b815481529060010190602001808311610f0c57829003601f168201915b505050505090505b90565b610f3c611ef7565b6001600160a01b0316610f4d611159565b6001600160a01b031614610f96576040805162461bcd60e51b8152602060048201819052602482015260008051602061552f833981519152604482015290519081900360640190fd5b6033546040516000916001600160a01b0316907f8be0079c531659141344cd1fd0a4f28419497f9722a3daafe3b4186f6b6457e0908390a3603380546001600160a01b0319169055565b610fe8611ef7565b6001600160a01b0316610ff9611159565b6001600160a01b031614611042576040805162461bcd60e51b8152602060048201819052602482015260008051602061552f833981519152604482015290519081900360640190fd5b60005b81518110156110c557600082828151811061105c57fe5b6020908102919091018101516001600160a01b03811660008181526102c89093526040808420805460ff1916600190811790915590519294509290917f3042b80e435ae46c334b2cfec51a66d64c9a8a8af4cd0c279a124c35a09e91dd9190a350600101611045565b5050565b60606101fb6000838152602001908152602001600020805480602002602001604051908101604052809291908181526020016000905b8282101561114e57600084815260209081902060408051808201909152908401546001600160a01b0381168252600160a01b90046001600160601b0316818301528252600190920191016110ff565b505050509050919050565b6033546001600160a01b031690565b610263805460408051602060026001851615610100026000190190941693909304601f810184900484028201840190925281815292918301828280156105495780601f1061051e57610100808354040283529160200191610549565b6111cc611ef7565b6001600160a01b03166111dd611159565b6001600160a01b031614611226576040805162461bcd60e51b8152602060048201819052602482015260008051602061552f833981519152604482015290519081900360640190fd5b6001600160a01b03811660008181526102c86020526040808220805460ff1916600190811790915590519092917f3042b80e435ae46c334b2cfec51a66d64c9a8a8af4cd0c279a124c35a09e91dd91a350565b816001600160a01b031661128b611ef7565b6001600160a01b031614156112d15760405162461bcd60e51b81526004018080602001828103825260298152602001806155746029913960400191505060405180910390fd5b80609860006112de611ef7565b6001600160a01b03908116825260208083019390935260409182016000908120918716808252919093529120805460ff191692151592909217909155611322611ef7565b6001600160a01b03167f17307eab39ab6107e8899845ad3d59bd9653f200f220920489ca2b5937696c318360405180821515815260200191505060405180910390a35050565b6001600160a01b031660009081526102c8602052604090205460ff1690565b60008181526101fa6020908152604080832080548251818502810185019093528083526060949293919290918401821561114e57600084815260209081902060408051808201909152908401546001600160a01b0381168252600160a01b90046001600160601b0316818301528252600190920191016110ff565b816001600160a01b0316611414611ef7565b6001600160a01b03161461143a5760405162461bcd60e51b81526004016105e790615020565b6105fb83838361235f565b610230805460408051602060026001851615610100026000190190941693909304601f810184900484028201840190925281815292918301828280156105495780601f1061051e57610100808354040283529160200191610549565b60006114ad838361240b565b9392505050565b6001600160a01b0384166114f95760405162461bcd60e51b815260040180806020018281038252602581526020018061543b6025913960400191505060405180910390fd5b611501611ef7565b6001600160a01b0316856001600160a01b031614806115275750611527856103ec611ef7565b6115625760405162461bcd60e51b81526004018080602001828103825260298152602001806153f06029913960400191505060405180910390fd5b600061156c611ef7565b905061158c81878761157d88612437565b61158688612437565b87610a67565b6115d3836040518060600160405280602a8152602001615505602a913960008781526097602090815260408083206001600160a01b038d1684529091529020549190611efb565b60008581526097602090815260408083206001600160a01b038b8116855292528083209390935587168152205461160a9084611f92565b60008581526097602090815260408083206001600160a01b03808b168086529184529382902094909455805188815291820187905280518a84169386169260008051602061535b83398151915292908290030190a4610a6781878787878761247c565b611675611ef7565b6001600160a01b0316611686611159565b6001600160a01b0316146116cf576040805162461bcd60e51b8152602060048201819052602482015260008051602061552f833981519152604482015290519081900360640190fd5b6001600160a01b0381166117145760405162461bcd60e51b81526004018080602001828103825260268152602001806153a66026913960400191505060405180910390fd5b6033546040516001600160a01b038084169216907f8be0079c531659141344cd1fd0a4f28419497f9722a3daafe3b4186f6b6457e090600090a3603380546001600160a01b0319166001600160a01b0392909216919091179055565b60008061177d8484612276565b90925090508115611793576117938585846125ed565b80156117e557846001600160a01b03166117ab611ef7565b6001600160a01b03167f5110a21391aa55386de41fe7a3e3dffb40132d38d629a113a7f4afff251b1a018684604051610e8d9291906151f1565b5050505050565b60006117fc84866000015161043d565b90508181156118365782808310156118115750815b6118318686896000015184604051806020016040528060008152506114b4565b830390505b8015610a6757856060015160008151811061184d57fe5b6020026020010151600001516001600160a01b0316856001600160a01b0316146118895760405162461bcd60e51b81526004016105e790614f3e565b610a6786858361055c565b60006001600160e01b03198216636db15a0f60e01b14806118c557506001600160e01b0319821663656cb66560e11b145b806118e057506001600160e01b0319821663152a902d60e11b145b806118fb57506001600160e01b031982166301ffc9a760e01b145b8061191657506001600160e01b03198216636cdb3d1360e11b145b806104ba5750506001600160e01b0319166303a24d0760e21b1490565b600081815261012e6020908152604080832080548251601f60026000196101006001861615020190931692909204918201859004850281018501909352808352606094938301828280156119c85780601f1061199d576101008083540402835291602001916119c8565b820191906000526020600020905b8154815290600101906020018083116119ab57829003601f168201915b5050505050905060006119d9610e9c565b90508051600014156119ed575090506104bd565b815115611a07576119fe8183612661565b925050506104bd565b80611a1185612846565b6040516020018083805190602001908083835b60208310611a435780518252601f199092019160209182019101611a24565b51815160209384036101000a600019018019909216911617905285519190930192850191508083835b60208310611a8b5780518252601f199092019160209182019101611a6c565b6001836020036101000a0380198251168184511680821785525050505050509050019250505060405160208183030381529060405292505050919050565b825160601c6000611ad8611ef7565b9050806001600160a01b0316826001600160a01b03161480611aff5750611aff82826114a1565b611b1b5760405162461bcd60e51b81526004016105e79061506f565b60008311611b3b5760405162461bcd60e51b81526004016105e790615045565b845160009081526101fc6020526040902054611ca4578460600151600081518110611b6257fe5b6020026020010151600001516001600160a01b0316826001600160a01b031614611b9e5760405162461bcd60e51b81526004016105e790614ff5565b6000856040015111611bc25760405162461bcd60e51b81526004016105e790614f96565b8460a001515185606001515114611bd857600080fd5b6000611be386612920565b905060005b866060015151811015611c5957600087606001518281518110611c0757fe5b6020026020010151600001519050836001600160a01b0316816001600160a01b031614611c5057611c5081848a60a001518581518110611c4357fe5b6020026020010151612b73565b50600101611be8565b50611c6c86600001518760400151612b7e565b611c7e86600001518760800151612be8565b611c9086600001518760600151612dd7565b611ca286600001518760200151612f86565b505b611cc3848660000151856040518060200160405280600081525061304a565b836001600160a01b0316826001600160a01b031614611d7457816001600160a01b031660006001600160a01b0316826001600160a01b031660008051602061535b833981519152886000015187604051611d1e9291906151f1565b60405180910390a4836001600160a01b0316826001600160a01b0316826001600160a01b031660008051602061535b833981519152886000015187604051611d679291906151f1565b60405180910390a46117e5565b836001600160a01b031660006001600160a01b0316826001600160a01b031660008051602061535b833981519152886000015187604051611db69291906151f1565b60405180910390a45050505050565b600054610100900460ff1680611dde5750611dde61305c565b80611dec575060005460ff16155b611e275760405162461bcd60e51b815260040180806020018281038252602e815260200180615492602e913960400191505060405180910390fd5b600054610100900460ff16158015611e52576000805460ff1961ff0019909116610100171660011790555b611e5a61306d565b611e62613167565b611e6a613169565b611e7261321a565b611e7a6132ba565b611e926040518060200160405280600081525061338a565b611e9b84613455565b611ea3613167565b611eab613507565b611eb587876135a4565b611ebd61321a565b611ec685612262565b611ed18360016135cd565b611edc8260016135cd565b8015611eee576000805461ff00191690555b50505050505050565b3390565b60008184841115611f8a5760405162461bcd60e51b81526004018080602001828103825283818151815260200191508051906020019080838360005b83811015611f4f578181015183820152602001611f37565b50505050905090810190601f168015611f7c5780820380516001836020036101000a031916815260200191505b509250505060405180910390fd5b505050900390565b6000828201838110156114ad576040805162461bcd60e51b815260206004820152601b60248201527f536166654d6174683a206164646974696f6e206f766572666c6f770000000000604482015290519081900360640190fd5b611ffe846001600160a01b031661362d565b15610a6757836001600160a01b031663bc197c8187878686866040518663ffffffff1660e01b815260040180866001600160a01b03168152602001856001600160a01b03168152602001806020018060200180602001848103845287818151815260200191508051906020019060200280838360005b8381101561208c578181015183820152602001612074565b50505050905001848103835286818151815260200191508051906020019060200280838360005b838110156120cb5781810151838201526020016120b3565b50505050905001848103825285818151815260200191508051906020019080838360005b838110156121075781810151838201526020016120ef565b50505050905090810190601f1680156121345780820380516001836020036101000a031916815260200191505b5098505050505050505050602060405180830381600087803b15801561215957600080fd5b505af192505050801561217e57506040513d602081101561217957600080fd5b505160015b6122135761218a615245565b8061219557506121dc565b60405162461bcd60e51b8152602060048201818152835160248401528351849391928392604401919085019080838360008315611f4f578181015183820152602001611f37565b60405162461bcd60e51b81526004018080602001828103825260348152602001806152ff6034913960400191505060405180910390fd5b6001600160e01b0319811663bc197c8160e01b14611eee5760405162461bcd60e51b81526004018080602001828103825260288152602001806153336028913960400191505060405180910390fd5b80516110c59061012f9060208401906143a1565b806000606084901c612286611ef7565b6001600160a01b0316816001600160a01b031614156122e35783915060006122ad86613633565b905080156122d25760006122c087613646565b82039050808611156122d0578093505b505b6122dc8684613659565b8285039350505b509250929050565b6122f3611ef7565b6001600160a01b0316836001600160a01b031614806123195750612319836103ec611ef7565b6123545760405162461bcd60e51b81526004018080602001828103825260298152602001806153f06029913960400191505060405180910390fd5b6105fb838383613672565b60008381526101fa6020526040812054905b818110156117e55760008581526101fa6020526040902080546001600160a01b0386169190839081106123a057fe5b6000918252602090912001546001600160a01b031614156124035760008581526101fa602052604090208054849190839081106123d957fe5b600091825260209091200180546001600160a01b0319166001600160a01b03929092169190911790555b600101612371565b6001600160a01b038116600090815260c9602052604081205460ff16806114ad57506114ad83836138e0565b6040805160018082528183019092526060916000919060208083019080368337019050509050828160008151811061246b57fe5b602090810291909101015292915050565b61248e846001600160a01b031661362d565b15610a6757836001600160a01b031663f23a6e6187878686866040518663ffffffff1660e01b815260040180866001600160a01b03168152602001856001600160a01b0316815260200184815260200183815260200180602001828103825283818151815260200191508051906020019080838360005b8381101561251d578181015183820152602001612505565b50505050905090810190601f16801561254a5780820380516001836020036101000a031916815260200191505b509650505050505050602060405180830381600087803b15801561256d57600080fd5b505af192505050801561259257506040513d602081101561258d57600080fd5b505160015b61259e5761218a615245565b6001600160e01b0319811663f23a6e6160e01b14611eee5760405162461bcd60e51b81526004018080602001828103825260288152602001806153336028913960400191505060405180910390fd5b6125f5611ef7565b6001600160a01b0316836001600160a01b0316148061261b575061261b836103ec611ef7565b6126565760405162461bcd60e51b81526004018080602001828103825260298152602001806153f06029913960400191505060405180910390fd5b6105fb83838361390e565b8051825160609184918491101561272c5784846040516020018083805190602001908083835b602083106126a65780518252601f199092019160209182019101612687565b51815160209384036101000a600019018019909216911617905285519190930192850191508083835b602083106126ee5780518252601f1990920191602091820191016126cf565b6001836020036101000a03801982511681845116808217855250505050505090500192505050604051602081830303815290604052925050506104a9565b60005b825181101561283c5782818151811061274457fe5b602001015160f81c60f81b6001600160f81b03191682828151811061276557fe5b01602001516001600160f81b031916146128345785856040516020018083805190602001908083835b602083106127ad5780518252601f19909201916020918201910161278e565b51815160209384036101000a600019018019909216911617905285519190930192850191508083835b602083106127f55780518252601f1990920191602091820191016127d6565b6001836020036101000a0380198251168184511680821785525050505050509050019250505060405160208183030381529060405293505050506104a9565b60010161272f565b5092949350505050565b60608161286b57506040805180820190915260018152600360fc1b60208201526104bd565b8160005b811561288357600101600a8204915061286f565b6000816001600160401b038111801561289b57600080fd5b506040519080825280601f01601f1916602001820160405280156128c6576020820181803683370190505b50859350905060001982015b831561291757600a840660300160f81b828280600190039350815181106128f557fe5b60200101906001600160f81b031916908160001a905350600a840493506128d2565b50949350505050565b6000808260800151516001600160401b038111801561293e57600080fd5b50604051908082528060200260200182016040528015612968578160200160208202803683370190505b50905060005b8360800151518110156129ba5761299b8460800151828151811061298e57fe5b6020026020010151613a2f565b8282815181106129a757fe5b602090810291909101015260010161296e565b5060008360600151516001600160401b03811180156129d857600080fd5b50604051908082528060200260200182016040528015612a02578160200160208202803683370190505b50905060005b846060015151811015612a4757612a288560600151828151811061298e57fe5b828281518110612a3457fe5b6020908102919091010152600101612a08565b507ffb988707ebb338694f318760b0fd5cfe756d00a2ade251fda110b80c336a3c7f846000015185604001518660200151805190602001208460405160200180828051906020019060200280838360005b83811015612ab0578181015183820152602001612a98565b50505050905001915050604051602081830303815290604052805190602001208660405160200180828051906020019060200280838360005b83811015612b01578181015183820152602001612ae9565b50505050905001915050604051602081830303815290604052805190602001206040516020018087815260200186815260200185815260200184815260200183815260200182815260200196505050505050506040516020818303038152906040528051906020012092505050919050565b6105fb838383613a9c565b60008281526101fc602052604090205415612b9857600080fd5b60008281526101fc602052604090819020829055517f5e2aa66efd74cce82b21852e317e5490d9ecc9e6bb953ae24d90851258cc2f5c90612bdc90849084906151f1565b60405180910390a15050565b6000805b8251811015612d8c5760006001600160a01b0316838281518110612c0c57fe5b6020026020010151600001516001600160a01b03161415612c74576040805162461bcd60e51b815260206004820152601b60248201527f526563697069656e742073686f756c642062652070726573656e740000000000604482015290519081900360640190fd5b828181518110612c8057fe5b6020026020010151602001516001600160601b031660001415612cea576040805162461bcd60e51b815260206004820181905260248201527f526f79616c74792076616c75652073686f756c6420626520706f736974697665604482015290519081900360640190fd5b828181518110612cf657fe5b6020026020010151602001516001600160601b0316820191506101fa6000858152602001908152602001600020838281518110612d2f57fe5b60209081029190910181015182546001818101855560009485529383902082519101805492909301516001600160601b0316600160a01b026001600160a01b039182166001600160a01b0319909316929092171617905501612bec565b506127108110612dcd5760405162461bcd60e51b815260040180806020018281038252602581526020018061554f6025913960400191505060405180910390fd5b6105fb8383613cde565b60008281526101fb6020526040812090805b8351811015612f255760006001600160a01b0316848281518110612e0957fe5b6020026020010151600001516001600160a01b03161415612e3c5760405162461bcd60e51b81526004016105e7906150e1565b838181518110612e4857fe5b6020026020010151602001516001600160601b031660001415612e7d5760405162461bcd60e51b81526004016105e790614fc0565b82848281518110612e8a57fe5b602090810291909101810151825460018101845560009384529282902081519301805491909201516001600160601b0316600160a01b026001600160a01b039384166001600160a01b0319909216919091179092169190911790558351612f1b90859083908110612ef757fe5b6020026020010151602001516001600160601b031683611f9290919063ffffffff16565b9150600101612de9565b508061271014612f475760405162461bcd60e51b81526004016105e790615181565b7f841ffb90d4cabdd1f16034f3fa831d79060febbb8167bdd54a49269365bdf78f8484604051612f789291906151d8565b60405180910390a150505050565b600082815261012e602090815260409091208251612fa6928401906143a1565b50817f6bb7ff708619ba0610cba295a58592e0451dee2622938c8755667688daf3529b612fd284611933565b6040805160208082528351818301528351919283929083019185019080838360005b8381101561300c578181015183820152602001612ff4565b50505050905090810190601f1680156130395780820380516001836020036101000a031916815260200191505b509250505060405180910390a25050565b61305684848484613d0f565b50505050565b60006130673061362d565b15905090565b600054610100900460ff1680613086575061308661305c565b80613094575060005460ff16155b6130cf5760405162461bcd60e51b815260040180806020018281038252602e815260200180615492602e913960400191505060405180910390fd5b600054610100900460ff161580156130fa576000805460ff1961ff0019909116610100171660011790555b6000613104611ef7565b603380546001600160a01b0319166001600160a01b038316908117909155604051919250906000907f8be0079c531659141344cd1fd0a4f28419497f9722a3daafe3b4186f6b6457e0908290a3508015613164576000805461ff00191690555b50565b565b600054610100900460ff1680613182575061318261305c565b80613190575060005460ff16155b6131cb5760405162461bcd60e51b815260040180806020018281038252602e815260200180615492602e913960400191505060405180910390fd5b600054610100900460ff161580156131f6576000805460ff1961ff0019909116610100171660011790555b6132066301ffc9a760e01b613e21565b8015613164576000805461ff001916905550565b600054610100900460ff1680613233575061323361305c565b80613241575060005460ff16155b61327c5760405162461bcd60e51b815260040180806020018281038252602e815260200180615492602e913960400191505060405180910390fd5b600054610100900460ff16158015613206576000805460ff1961ff0019909116610100171660011790558015613164576000805461ff001916905550565b600054610100900460ff16806132d357506132d361305c565b806132e1575060005460ff16155b61331c5760405162461bcd60e51b815260040180806020018281038252602e815260200180615492602e913960400191505060405180910390fd5b600054610100900460ff16158015613347576000805460ff1961ff0019909116610100171660011790555b613206604051806040016040528060088152602001674d696e743131353560c01b815250604051806040016040528060018152602001603160f81b815250613ea5565b600054610100900460ff16806133a357506133a361305c565b806133b1575060005460ff16155b6133ec5760405162461bcd60e51b815260040180806020018281038252602e815260200180615492602e913960400191505060405180910390fd5b600054610100900460ff16158015613417576000805460ff1961ff0019909116610100171660011790555b61342082613f67565b613430636cdb3d1360e11b613e21565b6134406303a24d0760e21b613e21565b80156110c5576000805461ff00191690555050565b600054610100900460ff168061346e575061346e61305c565b8061347c575060005460ff16155b6134b75760405162461bcd60e51b815260040180806020018281038252602e815260200180615492602e913960400191505060405180910390fd5b600054610100900460ff161580156134e2576000805460ff1961ff0019909116610100171660011790555b81516134f6906102309060208501906143a1565b5061344063e8a3d48560e01b613e21565b600054610100900460ff1680613520575061352061305c565b8061352e575060005460ff16155b6135695760405162461bcd60e51b815260040180806020018281038252602e815260200180615492602e913960400191505060405180910390fd5b600054610100900460ff16158015613594576000805460ff1961ff0019909116610100171660011790555b61320663656cb66560e11b613e21565b81516135b8906102629060208501906143a1565b5080516105fb906102639060208401906143a1565b6001600160a01b038216600081815260c96020908152604091829020805460ff1916851515908117909155825190815291517f270dbb8ba4292910ae92862466486be25c355c837270a3d8824b36a8bc7c653b9281900390910190a25050565b3b151590565b60009081526101fc602052604090205490565b60009081526101fd602052604090205490565b60009182526101fd602052604090912080549091019055565b6001600160a01b0383166136b75760405162461bcd60e51b81526004018080602001828103825260238152602001806154e26023913960400191505060405180910390fd5b80518251146136f75760405162461bcd60e51b81526004018080602001828103825260288152602001806155c66028913960400191505060405180910390fd5b6000613701611ef7565b905061372181856000868660405180602001604052806000815250610a67565b60005b83518110156137ff576137b683828151811061373c57fe5b60200260200101516040518060600160405280602481526020016153cc602491396097600088868151811061376d57fe5b602002602001015181526020019081526020016000206000896001600160a01b03166001600160a01b0316815260200190815260200160002054611efb9092919063ffffffff16565b609760008684815181106137c657fe5b602090810291909101810151825281810192909252604090810160009081206001600160a01b038a168252909252902055600101613724565b5060006001600160a01b0316846001600160a01b0316826001600160a01b03167f4a39dc06d4c0dbc64b70af90fd698a233a518aa5d07e595d983b8c0526c8f7fb8686604051808060200180602001838103835285818151815260200191508051906020019060200280838360005b8381101561388657818101518382015260200161386e565b50505050905001838103825284818151815260200191508051906020019060200280838360005b838110156138c55781810151838201526020016138ad565b5050505090500194505050505060405180910390a450505050565b6001600160a01b03918216600090815260986020908152604080832093909416825291909152205460ff1690565b6001600160a01b0383166139535760405162461bcd60e51b81526004018080602001828103825260238152602001806154e26023913960400191505060405180910390fd5b600061395d611ef7565b905061398d8185600061396f87612437565b61397887612437565b60405180602001604052806000815250610a67565b6139d4826040518060600160405280602481526020016153cc6024913960008681526097602090815260408083206001600160a01b038b1684529091529020549190611efb565b60008481526097602090815260408083206001600160a01b03808a168086529184528285209590955581518881529283018790528151939490939086169260008051602061535b83398151915292908290030190a450505050565b8051602091820151604080517f397e04204c1e1a60ee8724b71f8244e10ab5f2e9009854d80f602bda21b59ebb818601526001600160a01b03909316838201526001600160601b039091166060808401919091528151808403909101815260809092019052805191012090565b6000613aa783613f7a565b90506000825160411415613ac257613abf8284613fc6565b90505b846001600160a01b0316816001600160a01b0316146117e557613aed856001600160a01b031661362d565b15613c665760408051630b135d3f60e11b808252600482018581526024830193845286516044840152865191936001600160a01b038a1693631626ba7e9388938a9390929091606490910190602085019080838360005b83811015613b5c578181015183820152602001613b44565b50505050905090810190601f168015613b895780820380516001836020036101000a031916815260200191505b50935050505060206040518083038186803b158015613ba757600080fd5b505afa158015613bbb573d6000803e3d6000fd5b505050506040513d6020811015613bd157600080fd5b505160408051808201909152601c81527f7369676e617475726520766572696669636174696f6e206572726f72000000006020820152916001600160e01b031990911614613c605760405162461bcd60e51b8152602060048201818152835160248401528351909283926044909101919085019080838360008315611f4f578181015183820152602001611f37565b506117e5565b604080518082018252601c81527f7369676e617475726520766572696669636174696f6e206572726f72000000006020808301918252925162461bcd60e51b81526004810193845282516024820152825192939283926044909201919080838360008315611f4f578181015183820152602001611f37565b7f3fa96d7b6bcbfe71ef171666d84db3cf52fa2d1c8afdb1cc8e486177f208b7df8282604051612bdc9291906151d8565b60008381526101fd6020526040812054613d2a908490611f92565b60008581526101fc6020526040902054909150811115613d5c5760405162461bcd60e51b81526004016105e7906150b7565b60008481526101fd602052604090208190556001600160a01b038516613d945760405162461bcd60e51b81526004016105e790615140565b6000613d9e611ef7565b9050613dbf81600088613db089612437565b613db989612437565b88610a67565b60008581526097602090815260408083206001600160a01b038a168452909152902054613dec9085611f92565b60008681526097602090815260408083206001600160a01b038b168452909152812091909155610a679082908888888861247c565b6001600160e01b03198082161415613e80576040805162461bcd60e51b815260206004820152601c60248201527f4552433136353a20696e76616c696420696e7465726661636520696400000000604482015290519081900360640190fd5b6001600160e01b0319166000908152606560205260409020805460ff19166001179055565b600054610100900460ff1680613ebe5750613ebe61305c565b80613ecc575060005460ff16155b613f075760405162461bcd60e51b815260040180806020018281038252602e815260200180615492602e913960400191505060405180910390fd5b600054610100900460ff16158015613f32576000805460ff1961ff0019909116610100171660011790555b8251602080850191909120835191840191909120610162919091556101635580156105fb576000805461ff0019169055505050565b80516110c59060999060208401906143a1565b6000613f84614046565b82604051602001808061190160f01b81525060020183815260200182815260200192505050604051602081830303815290604052805190602001209050919050565b6000815160411461401e576040805162461bcd60e51b815260206004820152601f60248201527f45434453413a20696e76616c6964207369676e6174757265206c656e67746800604482015290519081900360640190fd5b60208201516040830151606084015160001a61403c86828585614086565b9695505050505050565b60006140817f8b73c3c69bb8fe3d512ecc4cf759cc79239f7b179b0ffacaa9a75d522b39400f6140746142dc565b61407c6142e3565b6142ea565b905090565b60007f7fffffffffffffffffffffffffffffff5d576e7357a4501ddfe92f46681b20a08211156140e75760405162461bcd60e51b81526004018080602001828103825260228152602001806154196022913960400191505060405180910390fd5b6000601e8560ff1611156141c1576004850360ff16601b148061411057506004850360ff16601c145b61414b5760405162461bcd60e51b81526004018080602001828103825260228152602001806154c06022913960400191505060405180910390fd5b60016141568761434c565b60048703868660405160008152602001604052604051808581526020018460ff1681526020018381526020018281526020019450505050506020604051602081039080840390855afa1580156141b0573d6000803e3d6000fd5b505050602060405103519050614278565b8460ff16601b14806141d657508460ff16601c145b6142115760405162461bcd60e51b81526004018080602001828103825260228152602001806154c06022913960400191505060405180910390fd5b60018686868660405160008152602001604052604051808581526020018460ff1681526020018381526020018281526020019450505050506020604051602081039080840390855afa15801561426b573d6000803e3d6000fd5b5050506020604051035190505b6001600160a01b0381166142d3576040805162461bcd60e51b815260206004820152601860248201527f45434453413a20696e76616c6964207369676e61747572650000000000000000604482015290519081900360640190fd5b95945050505050565b6101625490565b6101635490565b60008383836142f761439d565b3060405160200180868152602001858152602001848152602001838152602001826001600160a01b03168152602001955050505050506040516020818303038152906040528051906020012090509392505050565b604080517f19457468657265756d205369676e6564204d6573736167653a0a333200000000602080830191909152603c8083019490945282518083039094018452605c909101909152815191012090565b4690565b828054600181600116156101000203166002900490600052602060002090601f0160209004810192826143d7576000855561441d565b82601f106143f057805160ff191683800117855561441d565b8280016001018555821561441d579182015b8281111561441d578251825591602001919060010190614402565b5061442992915061442d565b5090565b5b80821115614429576000815560010161442e565b80356104bd816152e9565b600082601f83011261445d578081fd5b8135602061447261446d83615222565b6151ff565b828152818101908583018385028701840188101561448e578586fd5b855b858110156144b55781356144a3816152e9565b84529284019290840190600101614490565b5090979650505050505050565b600082601f8301126144d2578081fd5b813560206144e261446d83615222565b82815281810190858301855b858110156144b557614505898684358b010161462c565b845292840192908401906001016144ee565b600082601f830112614527578081fd5b8135602061453761446d83615222565b82815281810190858301604080860288018501891015614555578687fd5b865b868110156145c45781838b03121561456d578788fd5b81518281018181106001600160401b038211171561458757fe5b83528335614594816152e9565b8152838701356001600160601b03811681146145ae57898afd5b8188015285529385019391810191600101614557565b509198975050505050505050565b600082601f8301126145e2578081fd5b813560206145f261446d83615222565b828152818101908583018385028701840188101561460e578586fd5b855b858110156144b557813584529284019290840190600101614610565b600082601f83011261463c578081fd5b81356001600160401b0381111561464f57fe5b614662601f8201601f19166020016151ff565b818152846020838601011115614676578283fd5b816020850160208301379081016020019190915292915050565b600060c082840312156146a1578081fd5b6146ab60c06151ff565b90508135815260208201356001600160401b03808211156146cb57600080fd5b6146d78583860161462c565b60208401526040840135604084015260608401359150808211156146fa57600080fd5b61470685838601614517565b6060840152608084013591508082111561471f57600080fd5b61472b85838601614517565b608084015260a084013591508082111561474457600080fd5b50614751848285016144c2565b60a08301525092915050565b60006020828403121561476e578081fd5b81356114ad816152e9565b6000806040838503121561478b578081fd5b8235614796816152e9565b915060208301356147a6816152e9565b809150509250929050565b600080600080600060a086880312156147c8578081fd5b85356147d3816152e9565b945060208601356147e3816152e9565b935060408601356001600160401b03808211156147fe578283fd5b61480a89838a016145d2565b9450606088013591508082111561481f578283fd5b61482b89838a016145d2565b93506080880135915080821115614840578283fd5b5061484d8882890161462c565b9150509295509295909350565b600080600080600060a08688031215614871578283fd5b853561487c816152e9565b9450602086013561488c816152e9565b9350604086013592506060860135915060808601356001600160401b038111156148b4578182fd5b61484d8882890161462c565b6000806000606084860312156148d4578081fd5b83356148df816152e9565b925060208401356001600160401b03808211156148fa578283fd5b614906878388016145d2565b9350604086013591508082111561491b578283fd5b50614928868287016145d2565b9150509250925092565b60008060408385031215614944578182fd5b823561494f816152e9565b9150602083013580151581146147a6578182fd5b60008060408385031215614975578182fd5b8235614980816152e9565b946020939093013593505050565b6000806000606084860312156149a2578081fd5b83356149ad816152e9565b95602085013595506040909401359392505050565b6000602082840312156149d3578081fd5b81356001600160401b038111156149e8578182fd5b6149f48482850161444d565b949350505050565b60008060408385031215614a0e578182fd5b82356001600160401b0380821115614a24578384fd5b614a308683870161444d565b93506020850135915080821115614a45578283fd5b50614a52858286016145d2565b9150509250929050565b600060208284031215614a6d578081fd5b81356001600160e01b0319811681146114ad578182fd5b600060208284031215614a95578081fd5b81356001600160401b03811115614aaa578182fd5b6149f48482850161462c565b60008060008060008060c08789031215614ace578384fd5b86356001600160401b0380821115614ae4578586fd5b614af08a838b0161462c565b97506020890135915080821115614b05578586fd5b614b118a838b0161462c565b96506040890135915080821115614b26578586fd5b614b328a838b0161462c565b95506060890135915080821115614b47578283fd5b50614b5489828a0161462c565b935050614b6360808801614442565b9150614b7160a08801614442565b90509295509295509295565b600080600080600080600060e0888a031215614b97578485fd5b87356001600160401b0380821115614bad578687fd5b614bb98b838c0161462c565b985060208a0135915080821115614bce578687fd5b614bda8b838c0161462c565b975060408a0135915080821115614bef578687fd5b614bfb8b838c0161462c565b965060608a0135915080821115614c10578283fd5b614c1c8b838c0161462c565b955060808a0135915080821115614c31578283fd5b50614c3e8a828b0161444d565b935050614c4d60a08901614442565b9150614c5b60c08901614442565b905092959891949750929550565b60008060008060808587031215614c7e578182fd5b84356001600160401b03811115614c93578283fd5b614c9f87828801614690565b9450506020850135614cb0816152e9565b92506040850135614cc0816152e9565b9396929550929360600135925050565b600080600060608486031215614ce4578081fd5b83356001600160401b03811115614cf9578182fd5b614d0586828701614690565b9350506020840135614d16816152e9565b929592945050506040919091013590565b600060208284031215614d38578081fd5b5035919050565b600080600060608486031215614d53578081fd5b833592506020840135614d65816152e9565b91506040840135614d75816152e9565b809150509250925092565b60008060408385031215614d92578182fd5b50508035926020909101359150565b6000815180845260208085019450808401835b83811015614ded57815180516001600160a01b031688528301516001600160601b03168388015260409096019590820190600101614db4565b509495945050505050565b6000815180845260208085019450808401835b83811015614ded57815187529582019590820190600101614e0b565b60008151808452815b81811015614e4c57602081850181015186830182015201614e30565b81811115614e5d5782602083870101525b50601f01601f19169290920160200192915050565b6001600160a01b0391909116815260200190565b6001600160a01b0384168152606060208201819052600090614eaa90830185614e27565b828103604084015261403c8185614e27565b6001600160a01b03929092168252602082015260400190565b6000602082526114ad6020830184614da1565b6000602082526114ad6020830184614df8565b600060408252614f0e6040830185614df8565b82810360208401526142d38185614df8565b901515815260200190565b6000602082526114ad6020830184614e27565b6020808252601190820152703bb937b7339037b93232b91036b0b5b2b960791b604082015260600190565b6020808252601390820152723737ba1037bbb732b91037b91036b4b73a32b960691b604082015260600190565b60208082526010908201526f1cdd5c1c1b1e481a5b98dbdc9c9958dd60821b604082015260600190565b6020808252818101527f43726561746f722073686172652073686f756c6420626520706f736974697665604082015260600190565b6020808252601190820152701d1bdad95b9259081a5b98dbdc9c9958dd607a1b604082015260600190565b6020808252600b908201526a1b9bdd08185b1b1bddd95960aa1b604082015260600190565b60208082526010908201526f185b5bdd5b9d081a5b98dbdc9c9958dd60821b604082015260600190565b60208082526028908201527f455243313135353a207472616e736665722063616c6c6572206973206e6f7420604082015267185c1c1c9bdd995960c21b606082015260800190565b60208082526010908201526f6d6f7265207468616e20737570706c7960801b604082015260600190565b60208082526019908201527f4163636f756e742073686f756c642062652070726573656e7400000000000000604082015260600190565b6020808252600e908201526d69647320213d20616d6f756e747360901b604082015260600190565b60208082526021908201527f455243313135353a206d696e7420746f20746865207a65726f206164647265736040820152607360f81b606082015260800190565b6020808252602e908201527f746f74616c20616d6f756e74206f662063726561746f7273207368617265207360408201526d0686f756c642062652031303030360941b606082015260800190565b90815260200190565b6000838252604060208301526149f46040830184614da1565b918252602082015260400190565b6040518181016001600160401b038111828210171561521a57fe5b604052919050565b60006001600160401b0382111561523557fe5b5060209081020190565b60e01c90565b600060443d101561525557610f31565b600481823e6308c379a0615269825161523f565b1461527357610f31565b6040513d600319016004823e80513d6001600160401b0381602484011181841117156152a25750505050610f31565b828401925082519150808211156152bc5750505050610f31565b503d830160208284010111156152d457505050610f31565b601f01601f1916810160200160405291505090565b6001600160a01b038116811461316457600080fdfe455243313135353a207472616e7366657220746f206e6f6e2045524331313535526563656976657220696d706c656d656e746572455243313135353a204552433131353552656365697665722072656a656374656420746f6b656e73c3d58168c5ae7397731d063d5bbf3d657854427343f4c083240f7aacaa2d0f62455243313135353a2062616c616e636520717565727920666f7220746865207a65726f20616464726573734f776e61626c653a206e6577206f776e657220697320746865207a65726f2061646472657373455243313135353a206275726e20616d6f756e7420657863656564732062616c616e6365455243313135353a2063616c6c6572206973206e6f74206f776e6572206e6f7220617070726f76656445434453413a20696e76616c6964207369676e6174757265202773272076616c7565455243313135353a207472616e7366657220746f20746865207a65726f2061646472657373455243313135353a207472616e736665722063616c6c6572206973206e6f74206f776e6572206e6f7220617070726f766564496e697469616c697a61626c653a20636f6e747261637420697320616c726561647920696e697469616c697a656445434453413a20696e76616c6964207369676e6174757265202776272076616c7565455243313135353a206275726e2066726f6d20746865207a65726f2061646472657373455243313135353a20696e73756666696369656e742062616c616e636520666f72207472616e736665724f776e61626c653a2063616c6c6572206973206e6f7420746865206f776e6572526f79616c747920746f74616c2076616c75652073686f756c64206265203c203130303030455243313135353a2073657474696e6720617070726f76616c2073746174757320666f722073656c66455243313135353a206163636f756e747320616e6420696473206c656e677468206d69736d61746368455243313135353a2069647320616e6420616d6f756e7473206c656e677468206d69736d61746368a26469706673582212201fcf1585ef785faaf22ca08a73a9325e2c8445a52b799df379ca4d72f94061b164736f6c63430007060033",
  "devdoc": {
    "kind": "dev",
    "methods": {
      "addMinter(address)": {
        "details": "Add `minter` to the list of allowed minters."
      },
      "addMinters(address[])": {
        "details": "Add `minters` to the list of allowed minters."
      },
      "balanceOf(address,uint256)": {
        "details": "See {IERC1155-balanceOf}. Requirements: - `account` cannot be the zero address."
      },
      "balanceOfBatch(address[],uint256[])": {
        "details": "See {IERC1155-balanceOfBatch}. Requirements: - `accounts` and `ids` must have the same length."
      },
      "baseURI()": {
        "details": "Returns the base URI set via {_setBaseURI}. This will be automatically added as a prefix in {tokenURI} to each token's URI, or to the token ID if no specific URI is set for that token ID."
      },
      "isMinter(address)": {
        "details": "Returns `true` if `account` has been granted to minters."
      },
      "owner()": {
        "details": "Returns the address of the current owner."
      },
      "removeMinter(address)": {
        "details": "Revoke `_minter` from the list of allowed minters."
      },
      "renounceOwnership()": {
        "details": "Leaves the contract without owner. It will not be possible to call `onlyOwner` functions anymore. Can only be called by the current owner. NOTE: Renouncing ownership will leave the contract without an owner, thereby removing any functionality that is only available to the owner."
      },
      "safeBatchTransferFrom(address,address,uint256[],uint256[],bytes)": {
        "details": "See {IERC1155-safeBatchTransferFrom}."
      },
      "safeTransferFrom(address,address,uint256,uint256,bytes)": {
        "details": "See {IERC1155-safeTransferFrom}."
      },
      "setApprovalForAll(address,bool)": {
        "details": "See {IERC1155-setApprovalForAll}."
      },
      "transferOwnership(address)": {
        "details": "Transfers ownership of the contract to a new account (`newOwner`). Can only be called by the current owner."
      }
    },
    "version": 1
  },
  "userdoc": {
    "kind": "user",
    "methods": {},
    "version": 1
  },
  "storageLayout": {
    "storage": [
      {
        "astId": 739,
        "contract": "@rarible/tokens/contracts/erc-1155/ERC1155Rarible.sol:ERC1155Rarible",
        "label": "_initialized",
        "offset": 0,
        "slot": "0",
        "type": "t_bool"
      },
      {
        "astId": 742,
        "contract": "@rarible/tokens/contracts/erc-1155/ERC1155Rarible.sol:ERC1155Rarible",
        "label": "_initializing",
        "offset": 1,
        "slot": "0",
        "type": "t_bool"
      },
      {
        "astId": 4256,
        "contract": "@rarible/tokens/contracts/erc-1155/ERC1155Rarible.sol:ERC1155Rarible",
        "label": "__gap",
        "offset": 0,
        "slot": "1",
        "type": "t_array(t_uint256)50_storage"
      },
      {
        "astId": 10,
        "contract": "@rarible/tokens/contracts/erc-1155/ERC1155Rarible.sol:ERC1155Rarible",
        "label": "_owner",
        "offset": 0,
        "slot": "51",
        "type": "t_address"
      },
      {
        "astId": 129,
        "contract": "@rarible/tokens/contracts/erc-1155/ERC1155Rarible.sol:ERC1155Rarible",
        "label": "__gap",
        "offset": 0,
        "slot": "52",
        "type": "t_array(t_uint256)49_storage"
      },
      {
        "astId": 307,
        "contract": "@rarible/tokens/contracts/erc-1155/ERC1155Rarible.sol:ERC1155Rarible",
        "label": "_supportedInterfaces",
        "offset": 0,
        "slot": "101",
        "type": "t_mapping(t_bytes4,t_bool)"
      },
      {
        "astId": 364,
        "contract": "@rarible/tokens/contracts/erc-1155/ERC1155Rarible.sol:ERC1155Rarible",
        "label": "__gap",
        "offset": 0,
        "slot": "102",
        "type": "t_array(t_uint256)49_storage"
      },
      {
        "astId": 24679,
        "contract": "@rarible/tokens/contracts/erc-1155/ERC1155Rarible.sol:ERC1155Rarible",
        "label": "_balances",
        "offset": 0,
        "slot": "151",
        "type": "t_mapping(t_uint256,t_mapping(t_address,t_uint256))"
      },
      {
        "astId": 24685,
        "contract": "@rarible/tokens/contracts/erc-1155/ERC1155Rarible.sol:ERC1155Rarible",
        "label": "_operatorApprovals",
        "offset": 0,
        "slot": "152",
        "type": "t_mapping(t_address,t_mapping(t_address,t_bool))"
      },
      {
        "astId": 24687,
        "contract": "@rarible/tokens/contracts/erc-1155/ERC1155Rarible.sol:ERC1155Rarible",
        "label": "_uri",
        "offset": 0,
        "slot": "153",
        "type": "t_string_storage"
      },
      {
        "astId": 25680,
        "contract": "@rarible/tokens/contracts/erc-1155/ERC1155Rarible.sol:ERC1155Rarible",
        "label": "__gap",
        "offset": 0,
        "slot": "154",
        "type": "t_array(t_uint256)47_storage"
      },
      {
        "astId": 23722,
        "contract": "@rarible/tokens/contracts/erc-1155/ERC1155Rarible.sol:ERC1155Rarible",
        "label": "defaultApprovals",
        "offset": 0,
        "slot": "201",
        "type": "t_mapping(t_address,t_bool)"
      },
      {
        "astId": 23772,
        "contract": "@rarible/tokens/contracts/erc-1155/ERC1155Rarible.sol:ERC1155Rarible",
        "label": "__gap",
        "offset": 0,
        "slot": "202",
        "type": "t_array(t_uint256)50_storage"
      },
      {
        "astId": 23712,
        "contract": "@rarible/tokens/contracts/erc-1155/ERC1155Rarible.sol:ERC1155Rarible",
        "label": "__gap",
        "offset": 0,
        "slot": "252",
        "type": "t_array(t_uint256)50_storage"
      },
      {
        "astId": 23502,
        "contract": "@rarible/tokens/contracts/erc-1155/ERC1155Rarible.sol:ERC1155Rarible",
        "label": "_tokenURIs",
        "offset": 0,
        "slot": "302",
        "type": "t_mapping(t_uint256,t_string_storage)"
      },
      {
        "astId": 23504,
        "contract": "@rarible/tokens/contracts/erc-1155/ERC1155Rarible.sol:ERC1155Rarible",
        "label": "_baseURI",
        "offset": 0,
        "slot": "303",
        "type": "t_string_storage"
      },
      {
        "astId": 23619,
        "contract": "@rarible/tokens/contracts/erc-1155/ERC1155Rarible.sol:ERC1155Rarible",
        "label": "__gap",
        "offset": 0,
        "slot": "304",
        "type": "t_array(t_uint256)50_storage"
      },
      {
        "astId": 138,
        "contract": "@rarible/tokens/contracts/erc-1155/ERC1155Rarible.sol:ERC1155Rarible",
        "label": "_HASHED_NAME",
        "offset": 0,
        "slot": "354",
        "type": "t_bytes32"
      },
      {
        "astId": 140,
        "contract": "@rarible/tokens/contracts/erc-1155/ERC1155Rarible.sol:ERC1155Rarible",
        "label": "_HASHED_VERSION",
        "offset": 0,
        "slot": "355",
        "type": "t_bytes32"
      },
      {
        "astId": 289,
        "contract": "@rarible/tokens/contracts/erc-1155/ERC1155Rarible.sol:ERC1155Rarible",
        "label": "__gap",
        "offset": 0,
        "slot": "356",
        "type": "t_array(t_uint256)50_storage"
      },
      {
        "astId": 26043,
        "contract": "@rarible/tokens/contracts/erc-1155/ERC1155Rarible.sol:ERC1155Rarible",
        "label": "__gap",
        "offset": 0,
        "slot": "406",
        "type": "t_array(t_uint256)50_storage"
      },
      {
        "astId": 25718,
        "contract": "@rarible/tokens/contracts/erc-1155/ERC1155Rarible.sol:ERC1155Rarible",
        "label": "__gap",
        "offset": 0,
        "slot": "456",
        "type": "t_array(t_uint256)50_storage"
      },
      {
        "astId": 21194,
        "contract": "@rarible/tokens/contracts/erc-1155/ERC1155Rarible.sol:ERC1155Rarible",
        "label": "royalties",
        "offset": 0,
        "slot": "506",
        "type": "t_mapping(t_uint256,t_array(t_struct(Part)19000_storage)dyn_storage)"
      },
      {
        "astId": 23809,
        "contract": "@rarible/tokens/contracts/erc-1155/ERC1155Rarible.sol:ERC1155Rarible",
        "label": "creators",
        "offset": 0,
        "slot": "507",
        "type": "t_mapping(t_uint256,t_array(t_struct(Part)19000_storage)dyn_storage)"
      },
      {
        "astId": 23813,
        "contract": "@rarible/tokens/contracts/erc-1155/ERC1155Rarible.sol:ERC1155Rarible",
        "label": "supply",
        "offset": 0,
        "slot": "508",
        "type": "t_mapping(t_uint256,t_uint256)"
      },
      {
        "astId": 23817,
        "contract": "@rarible/tokens/contracts/erc-1155/ERC1155Rarible.sol:ERC1155Rarible",
        "label": "minted",
        "offset": 0,
        "slot": "509",
        "type": "t_mapping(t_uint256,t_uint256)"
      },
      {
        "astId": 24430,
        "contract": "@rarible/tokens/contracts/erc-1155/ERC1155Rarible.sol:ERC1155Rarible",
        "label": "__gap",
        "offset": 0,
        "slot": "510",
        "type": "t_array(t_uint256)50_storage"
      },
      {
        "astId": 22019,
        "contract": "@rarible/tokens/contracts/erc-1155/ERC1155Rarible.sol:ERC1155Rarible",
        "label": "contractURI",
        "offset": 0,
        "slot": "560",
        "type": "t_string_storage"
      },
      {
        "astId": 22053,
        "contract": "@rarible/tokens/contracts/erc-1155/ERC1155Rarible.sol:ERC1155Rarible",
        "label": "__gap",
        "offset": 0,
        "slot": "561",
        "type": "t_array(t_uint256)49_storage"
      },
      {
        "astId": 23126,
        "contract": "@rarible/tokens/contracts/erc-1155/ERC1155Rarible.sol:ERC1155Rarible",
        "label": "name",
        "offset": 0,
        "slot": "610",
        "type": "t_string_storage"
      },
      {
        "astId": 23128,
        "contract": "@rarible/tokens/contracts/erc-1155/ERC1155Rarible.sol:ERC1155Rarible",
        "label": "symbol",
        "offset": 0,
        "slot": "611",
        "type": "t_string_storage"
      },
      {
        "astId": 23487,
        "contract": "@rarible/tokens/contracts/erc-1155/ERC1155Rarible.sol:ERC1155Rarible",
        "label": "__gap",
        "offset": 0,
        "slot": "612",
        "type": "t_array(t_uint256)50_storage"
      },
      {
        "astId": 22059,
        "contract": "@rarible/tokens/contracts/erc-1155/ERC1155Rarible.sol:ERC1155Rarible",
        "label": "isPrivate",
        "offset": 0,
        "slot": "662",
        "type": "t_bool"
      },
      {
        "astId": 22063,
        "contract": "@rarible/tokens/contracts/erc-1155/ERC1155Rarible.sol:ERC1155Rarible",
        "label": "__gap",
        "offset": 0,
        "slot": "663",
        "type": "t_array(t_uint256)49_storage"
      },
      {
        "astId": 22188,
        "contract": "@rarible/tokens/contracts/erc-1155/ERC1155Rarible.sol:ERC1155Rarible",
        "label": "_minters",
        "offset": 0,
        "slot": "712",
        "type": "t_mapping(t_address,t_bool)"
      },
      {
        "astId": 22309,
        "contract": "@rarible/tokens/contracts/erc-1155/ERC1155Rarible.sol:ERC1155Rarible",
        "label": "__gap",
        "offset": 0,
        "slot": "713",
        "type": "t_array(t_uint256)50_storage"
      }
    ],
    "types": {
      "t_address": {
        "encoding": "inplace",
        "label": "address",
        "numberOfBytes": "20"
      },
      "t_address_payable": {
        "encoding": "inplace",
        "label": "address payable",
        "numberOfBytes": "20"
      },
      "t_array(t_struct(Part)19000_storage)dyn_storage": {
        "base": "t_struct(Part)19000_storage",
        "encoding": "dynamic_array",
        "label": "struct LibPart.Part[]",
        "numberOfBytes": "32"
      },
      "t_array(t_uint256)47_storage": {
        "base": "t_uint256",
        "encoding": "inplace",
        "label": "uint256[47]",
        "numberOfBytes": "1504"
      },
      "t_array(t_uint256)49_storage": {
        "base": "t_uint256",
        "encoding": "inplace",
        "label": "uint256[49]",
        "numberOfBytes": "1568"
      },
      "t_array(t_uint256)50_storage": {
        "base": "t_uint256",
        "encoding": "inplace",
        "label": "uint256[50]",
        "numberOfBytes": "1600"
      },
      "t_bool": {
        "encoding": "inplace",
        "label": "bool",
        "numberOfBytes": "1"
      },
      "t_bytes32": {
        "encoding": "inplace",
        "label": "bytes32",
        "numberOfBytes": "32"
      },
      "t_bytes4": {
        "encoding": "inplace",
        "label": "bytes4",
        "numberOfBytes": "4"
      },
      "t_mapping(t_address,t_bool)": {
        "encoding": "mapping",
        "key": "t_address",
        "label": "mapping(address => bool)",
        "numberOfBytes": "32",
        "value": "t_bool"
      },
      "t_mapping(t_address,t_mapping(t_address,t_bool))": {
        "encoding": "mapping",
        "key": "t_address",
        "label": "mapping(address => mapping(address => bool))",
        "numberOfBytes": "32",
        "value": "t_mapping(t_address,t_bool)"
      },
      "t_mapping(t_address,t_uint256)": {
        "encoding": "mapping",
        "key": "t_address",
        "label": "mapping(address => uint256)",
        "numberOfBytes": "32",
        "value": "t_uint256"
      },
      "t_mapping(t_bytes4,t_bool)": {
        "encoding": "mapping",
        "key": "t_bytes4",
        "label": "mapping(bytes4 => bool)",
        "numberOfBytes": "32",
        "value": "t_bool"
      },
      "t_mapping(t_uint256,t_array(t_struct(Part)19000_storage)dyn_storage)": {
        "encoding": "mapping",
        "key": "t_uint256",
        "label": "mapping(uint256 => struct LibPart.Part[])",
        "numberOfBytes": "32",
        "value": "t_array(t_struct(Part)19000_storage)dyn_storage"
      },
      "t_mapping(t_uint256,t_mapping(t_address,t_uint256))": {
        "encoding": "mapping",
        "key": "t_uint256",
        "label": "mapping(uint256 => mapping(address => uint256))",
        "numberOfBytes": "32",
        "value": "t_mapping(t_address,t_uint256)"
      },
      "t_mapping(t_uint256,t_string_storage)": {
        "encoding": "mapping",
        "key": "t_uint256",
        "label": "mapping(uint256 => string)",
        "numberOfBytes": "32",
        "value": "t_string_storage"
      },
      "t_mapping(t_uint256,t_uint256)": {
        "encoding": "mapping",
        "key": "t_uint256",
        "label": "mapping(uint256 => uint256)",
        "numberOfBytes": "32",
        "value": "t_uint256"
      },
      "t_string_storage": {
        "encoding": "bytes",
        "label": "string",
        "numberOfBytes": "32"
      },
      "t_struct(Part)19000_storage": {
        "encoding": "inplace",
        "label": "struct LibPart.Part",
        "members": [
          {
            "astId": 18997,
            "contract": "@rarible/tokens/contracts/erc-1155/ERC1155Rarible.sol:ERC1155Rarible",
            "label": "account",
            "offset": 0,
            "slot": "0",
            "type": "t_address_payable"
          },
          {
            "astId": 18999,
            "contract": "@rarible/tokens/contracts/erc-1155/ERC1155Rarible.sol:ERC1155Rarible",
            "label": "value",
            "offset": 20,
            "slot": "0",
            "type": "t_uint96"
          }
        ],
        "numberOfBytes": "32"
      },
      "t_uint256": {
        "encoding": "inplace",
        "label": "uint256",
        "numberOfBytes": "32"
      },
      "t_uint96": {
        "encoding": "inplace",
        "label": "uint96",
        "numberOfBytes": "12"
      }
    }
  }
}